{
	"Staking/staking.sol": {
		"staking": {
			"abi": [
				{
					"inputs": [
						{
							"internalType": "address",
							"name": "_token",
							"type": "address"
						}
					],
					"stateMutability": "nonpayable",
					"type": "constructor"
				},
				{
					"inputs": [],
					"name": "CurrentTime",
					"outputs": [
						{
							"internalType": "uint256",
							"name": "",
							"type": "uint256"
						}
					],
					"stateMutability": "view",
					"type": "function"
				},
				{
					"inputs": [
						{
							"internalType": "address",
							"name": "ad",
							"type": "address"
						}
					],
					"name": "IdsAndDetails",
					"outputs": [
						{
							"internalType": "uint256[]",
							"name": "",
							"type": "uint256[]"
						},
						{
							"components": [
								{
									"internalType": "uint256",
									"name": "StakedAmount",
									"type": "uint256"
								},
								{
									"internalType": "uint256",
									"name": "StakedTime",
									"type": "uint256"
								},
								{
									"internalType": "uint256",
									"name": "duration",
									"type": "uint256"
								},
								{
									"internalType": "bool",
									"name": "expired",
									"type": "bool"
								}
							],
							"internalType": "struct staking.StakingInfo[]",
							"name": "",
							"type": "tuple[]"
						}
					],
					"stateMutability": "view",
					"type": "function"
				},
				{
					"inputs": [
						{
							"internalType": "uint256",
							"name": "_numTokens",
							"type": "uint256"
						},
						{
							"internalType": "uint256",
							"name": "tarrif",
							"type": "uint256"
						}
					],
					"name": "Stake",
					"outputs": [
						{
							"internalType": "uint256",
							"name": "",
							"type": "uint256"
						}
					],
					"stateMutability": "nonpayable",
					"type": "function"
				},
				{
					"inputs": [
						{
							"internalType": "address",
							"name": "user",
							"type": "address"
						}
					],
					"name": "claimAmount",
					"outputs": [],
					"stateMutability": "nonpayable",
					"type": "function"
				},
				{
					"inputs": [
						{
							"internalType": "address",
							"name": "user",
							"type": "address"
						}
					],
					"name": "claimReward",
					"outputs": [],
					"stateMutability": "nonpayable",
					"type": "function"
				},
				{
					"inputs": [],
					"name": "contractBalance",
					"outputs": [
						{
							"internalType": "uint256",
							"name": "",
							"type": "uint256"
						}
					],
					"stateMutability": "view",
					"type": "function"
				},
				{
					"inputs": [
						{
							"internalType": "uint256",
							"name": "id",
							"type": "uint256"
						}
					],
					"name": "genrateReward",
					"outputs": [],
					"stateMutability": "nonpayable",
					"type": "function"
				},
				{
					"inputs": [
						{
							"internalType": "address",
							"name": "ad",
							"type": "address"
						}
					],
					"name": "getIds",
					"outputs": [
						{
							"internalType": "uint256[]",
							"name": "",
							"type": "uint256[]"
						}
					],
					"stateMutability": "view",
					"type": "function"
				},
				{
					"inputs": [],
					"name": "interest",
					"outputs": [
						{
							"internalType": "uint256",
							"name": "",
							"type": "uint256"
						}
					],
					"stateMutability": "view",
					"type": "function"
				},
				{
					"inputs": [
						{
							"internalType": "address",
							"name": "user",
							"type": "address"
						}
					],
					"name": "isRewardAvailable",
					"outputs": [
						{
							"internalType": "bool",
							"name": "",
							"type": "bool"
						}
					],
					"stateMutability": "view",
					"type": "function"
				},
				{
					"inputs": [],
					"name": "owner",
					"outputs": [
						{
							"internalType": "address",
							"name": "",
							"type": "address"
						}
					],
					"stateMutability": "view",
					"type": "function"
				},
				{
					"inputs": [
						{
							"internalType": "address",
							"name": "",
							"type": "address"
						}
					],
					"name": "rewards",
					"outputs": [
						{
							"internalType": "uint256",
							"name": "",
							"type": "uint256"
						}
					],
					"stateMutability": "view",
					"type": "function"
				},
				{
					"inputs": [
						{
							"internalType": "uint256",
							"name": "id",
							"type": "uint256"
						}
					],
					"name": "stakeTime",
					"outputs": [
						{
							"internalType": "uint256",
							"name": "",
							"type": "uint256"
						}
					],
					"stateMutability": "view",
					"type": "function"
				},
				{
					"inputs": [
						{
							"internalType": "uint256",
							"name": "",
							"type": "uint256"
						}
					],
					"name": "stakes",
					"outputs": [
						{
							"internalType": "uint256",
							"name": "StakedAmount",
							"type": "uint256"
						},
						{
							"internalType": "uint256",
							"name": "StakedTime",
							"type": "uint256"
						},
						{
							"internalType": "uint256",
							"name": "duration",
							"type": "uint256"
						},
						{
							"internalType": "bool",
							"name": "expired",
							"type": "bool"
						}
					],
					"stateMutability": "view",
					"type": "function"
				},
				{
					"inputs": [
						{
							"internalType": "uint256",
							"name": "",
							"type": "uint256"
						}
					],
					"name": "stakingOwner",
					"outputs": [
						{
							"internalType": "address",
							"name": "",
							"type": "address"
						}
					],
					"stateMutability": "view",
					"type": "function"
				},
				{
					"inputs": [],
					"name": "token",
					"outputs": [
						{
							"internalType": "contract IERC20",
							"name": "",
							"type": "address"
						}
					],
					"stateMutability": "view",
					"type": "function"
				}
			],
			"devdoc": {
				"kind": "dev",
				"methods": {},
				"version": 1
			},
			"evm": {
				"assembly": "    /* \"Staking/staking.sol\":759:8796  contract staking {... */\n  mstore(0x40, 0x80)\n    /* \"Staking/staking.sol\":947:948  1 */\n  0x01\n    /* \"Staking/staking.sol\":921:948  uint256 public interest = 1 */\n  0x03\n  sstore\n    /* \"Staking/staking.sol\":1486:1655  constructor(address _token) {... */\n  callvalue\n  dup1\n  iszero\n  tag_1\n  jumpi\n  0x00\n  dup1\n  revert\ntag_1:\n  pop\n  mload(0x40)\n  sub(codesize, bytecodeSize)\n  dup1\n  bytecodeSize\n  dup4\n  codecopy\n  dup2\n  dup2\n  add\n  0x40\n  mstore\n  dup2\n  add\n  swap1\n  tag_2\n  swap2\n  swap1\n  tag_3\n  jump\t// in\ntag_2:\n    /* \"Staking/staking.sol\":1613:1619  _token */\n  dup1\n    /* \"Staking/staking.sol\":1598:1603  token */\n  0x01\n  0x00\n    /* \"Staking/staking.sol\":1598:1620  token = IERC20(_token) */\n  0x0100\n  exp\n  dup2\n  sload\n  dup2\n  0xffffffffffffffffffffffffffffffffffffffff\n  mul\n  not\n  and\n  swap1\n  dup4\n  0xffffffffffffffffffffffffffffffffffffffff\n  and\n  mul\n  or\n  swap1\n  sstore\n  pop\n    /* \"Staking/staking.sol\":1638:1648  msg.sender */\n  caller\n    /* \"Staking/staking.sol\":1630:1635  owner */\n  0x02\n  0x00\n    /* \"Staking/staking.sol\":1630:1648  owner = msg.sender */\n  0x0100\n  exp\n  dup2\n  sload\n  dup2\n  0xffffffffffffffffffffffffffffffffffffffff\n  mul\n  not\n  and\n  swap1\n  dup4\n  0xffffffffffffffffffffffffffffffffffffffff\n  and\n  mul\n  or\n  swap1\n  sstore\n  pop\n    /* \"Staking/staking.sol\":1486:1655  constructor(address _token) {... */\n  pop\n    /* \"Staking/staking.sol\":759:8796  contract staking {... */\n  jump(tag_6)\n    /* \"#utility.yul\":88:205   */\ntag_8:\n    /* \"#utility.yul\":197:198   */\n  0x00\n    /* \"#utility.yul\":194:195   */\n  dup1\n    /* \"#utility.yul\":187:199   */\n  revert\n    /* \"#utility.yul\":334:460   */\ntag_10:\n    /* \"#utility.yul\":371:378   */\n  0x00\n    /* \"#utility.yul\":411:453   */\n  0xffffffffffffffffffffffffffffffffffffffff\n    /* \"#utility.yul\":404:409   */\n  dup3\n    /* \"#utility.yul\":400:454   */\n  and\n    /* \"#utility.yul\":389:454   */\n  swap1\n  pop\n    /* \"#utility.yul\":334:460   */\n  swap2\n  swap1\n  pop\n  jump\t// out\n    /* \"#utility.yul\":466:562   */\ntag_11:\n    /* \"#utility.yul\":503:510   */\n  0x00\n    /* \"#utility.yul\":532:556   */\n  tag_20\n    /* \"#utility.yul\":550:555   */\n  dup3\n    /* \"#utility.yul\":532:556   */\n  tag_10\n  jump\t// in\ntag_20:\n    /* \"#utility.yul\":521:556   */\n  swap1\n  pop\n    /* \"#utility.yul\":466:562   */\n  swap2\n  swap1\n  pop\n  jump\t// out\n    /* \"#utility.yul\":568:690   */\ntag_12:\n    /* \"#utility.yul\":641:665   */\n  tag_22\n    /* \"#utility.yul\":659:664   */\n  dup2\n    /* \"#utility.yul\":641:665   */\n  tag_11\n  jump\t// in\ntag_22:\n    /* \"#utility.yul\":634:639   */\n  dup2\n    /* \"#utility.yul\":631:666   */\n  eq\n    /* \"#utility.yul\":621:684   */\n  tag_23\n  jumpi\n    /* \"#utility.yul\":680:681   */\n  0x00\n    /* \"#utility.yul\":677:678   */\n  dup1\n    /* \"#utility.yul\":670:682   */\n  revert\n    /* \"#utility.yul\":621:684   */\ntag_23:\n    /* \"#utility.yul\":568:690   */\n  pop\n  jump\t// out\n    /* \"#utility.yul\":696:839   */\ntag_13:\n    /* \"#utility.yul\":753:758   */\n  0x00\n    /* \"#utility.yul\":784:790   */\n  dup2\n    /* \"#utility.yul\":778:791   */\n  mload\n    /* \"#utility.yul\":769:791   */\n  swap1\n  pop\n    /* \"#utility.yul\":800:833   */\n  tag_25\n    /* \"#utility.yul\":827:832   */\n  dup2\n    /* \"#utility.yul\":800:833   */\n  tag_12\n  jump\t// in\ntag_25:\n    /* \"#utility.yul\":696:839   */\n  swap3\n  swap2\n  pop\n  pop\n  jump\t// out\n    /* \"#utility.yul\":845:1196   */\ntag_3:\n    /* \"#utility.yul\":915:921   */\n  0x00\n    /* \"#utility.yul\":964:966   */\n  0x20\n    /* \"#utility.yul\":952:961   */\n  dup3\n    /* \"#utility.yul\":943:950   */\n  dup5\n    /* \"#utility.yul\":939:962   */\n  sub\n    /* \"#utility.yul\":935:967   */\n  slt\n    /* \"#utility.yul\":932:1051   */\n  iszero\n  tag_27\n  jumpi\n    /* \"#utility.yul\":970:1049   */\n  tag_28\n  tag_8\n  jump\t// in\ntag_28:\n    /* \"#utility.yul\":932:1051   */\ntag_27:\n    /* \"#utility.yul\":1090:1091   */\n  0x00\n    /* \"#utility.yul\":1115:1179   */\n  tag_29\n    /* \"#utility.yul\":1171:1178   */\n  dup5\n    /* \"#utility.yul\":1162:1168   */\n  dup3\n    /* \"#utility.yul\":1151:1160   */\n  dup6\n    /* \"#utility.yul\":1147:1169   */\n  add\n    /* \"#utility.yul\":1115:1179   */\n  tag_13\n  jump\t// in\ntag_29:\n    /* \"#utility.yul\":1105:1179   */\n  swap2\n  pop\n    /* \"#utility.yul\":1061:1189   */\n  pop\n    /* \"#utility.yul\":845:1196   */\n  swap3\n  swap2\n  pop\n  pop\n  jump\t// out\n    /* \"Staking/staking.sol\":759:8796  contract staking {... */\ntag_6:\n  dataSize(sub_0)\n  dup1\n  dataOffset(sub_0)\n  0x00\n  codecopy\n  0x00\n  return\nstop\n\nsub_0: assembly {\n        /* \"Staking/staking.sol\":759:8796  contract staking {... */\n      mstore(0x40, 0x80)\n      callvalue\n      dup1\n      iszero\n      tag_1\n      jumpi\n      0x00\n      dup1\n      revert\n    tag_1:\n      pop\n      jumpi(tag_2, lt(calldatasize, 0x04))\n      shr(0xe0, calldataload(0x00))\n      dup1\n      0xc392f766\n      gt\n      tag_19\n      jumpi\n      dup1\n      0xd5a44f86\n      gt\n      tag_20\n      jumpi\n      dup1\n      0xd5a44f86\n      eq\n      tag_15\n      jumpi\n      dup1\n      0xd80e8700\n      eq\n      tag_16\n      jumpi\n      dup1\n      0xf3a93e80\n      eq\n      tag_17\n      jumpi\n      dup1\n      0xfc0c546a\n      eq\n      tag_18\n      jumpi\n      jump(tag_2)\n    tag_20:\n      dup1\n      0xc392f766\n      eq\n      tag_11\n      jumpi\n      dup1\n      0xc9352971\n      eq\n      tag_12\n      jumpi\n      dup1\n      0xc9ec05ea\n      eq\n      tag_13\n      jumpi\n      dup1\n      0xd279c191\n      eq\n      tag_14\n      jumpi\n      jump(tag_2)\n    tag_19:\n      dup1\n      0x78317be7\n      gt\n      tag_21\n      jumpi\n      dup1\n      0x78317be7\n      eq\n      tag_7\n      jumpi\n      dup1\n      0x8b7afe2e\n      eq\n      tag_8\n      jumpi\n      dup1\n      0x8da5cb5b\n      eq\n      tag_9\n      jumpi\n      dup1\n      0x90eb2981\n      eq\n      tag_10\n      jumpi\n      jump(tag_2)\n    tag_21:\n      dup1\n      0x64f50c\n      eq\n      tag_3\n      jumpi\n      dup1\n      0x0700037d\n      eq\n      tag_4\n      jumpi\n      dup1\n      0x0a42f049\n      eq\n      tag_5\n      jumpi\n      dup1\n      0x2671b0d8\n      eq\n      tag_6\n      jumpi\n    tag_2:\n      0x00\n      dup1\n      revert\n        /* \"Staking/staking.sol\":6954:7110  function isRewardAvailable(address user) public view returns(bool){... */\n    tag_3:\n      tag_22\n      0x04\n      dup1\n      calldatasize\n      sub\n      dup2\n      add\n      swap1\n      tag_23\n      swap2\n      swap1\n      tag_24\n      jump\t// in\n    tag_23:\n      tag_25\n      jump\t// in\n    tag_22:\n      mload(0x40)\n      tag_26\n      swap2\n      swap1\n      tag_27\n      jump\t// in\n    tag_26:\n      mload(0x40)\n      dup1\n      swap2\n      sub\n      swap1\n      return\n        /* \"Staking/staking.sol\":1437:1479  mapping(address => uint256) public rewards */\n    tag_4:\n      tag_28\n      0x04\n      dup1\n      calldatasize\n      sub\n      dup2\n      add\n      swap1\n      tag_29\n      swap2\n      swap1\n      tag_24\n      jump\t// in\n    tag_29:\n      tag_30\n      jump\t// in\n    tag_28:\n      mload(0x40)\n      tag_31\n      swap2\n      swap1\n      tag_32\n      jump\t// in\n    tag_31:\n      mload(0x40)\n      dup1\n      swap2\n      sub\n      swap1\n      return\n        /* \"Staking/staking.sol\":5482:5588  function stakeTime(uint256 id) view public returns (uint256) {... */\n    tag_5:\n      tag_33\n      0x04\n      dup1\n      calldatasize\n      sub\n      dup2\n      add\n      swap1\n      tag_34\n      swap2\n      swap1\n      tag_35\n      jump\t// in\n    tag_34:\n      tag_36\n      jump\t// in\n    tag_33:\n      mload(0x40)\n      tag_37\n      swap2\n      swap1\n      tag_32\n      jump\t// in\n    tag_37:\n      mload(0x40)\n      dup1\n      swap2\n      sub\n      swap1\n      return\n        /* \"Staking/staking.sol\":4758:5411  function getIds(address ad) public view returns (uint256[] memory) {... */\n    tag_6:\n      tag_38\n      0x04\n      dup1\n      calldatasize\n      sub\n      dup2\n      add\n      swap1\n      tag_39\n      swap2\n      swap1\n      tag_24\n      jump\t// in\n    tag_39:\n      tag_40\n      jump\t// in\n    tag_38:\n      mload(0x40)\n      tag_41\n      swap2\n      swap1\n      tag_42\n      jump\t// in\n    tag_41:\n      mload(0x40)\n      dup1\n      swap2\n      sub\n      swap1\n      return\n        /* \"Staking/staking.sol\":8123:8794  function claimAmount(address user) public {... */\n    tag_7:\n      tag_43\n      0x04\n      dup1\n      calldatasize\n      sub\n      dup2\n      add\n      swap1\n      tag_44\n      swap2\n      swap1\n      tag_24\n      jump\t// in\n    tag_44:\n      tag_45\n      jump\t// in\n    tag_43:\n      stop\n        /* \"Staking/staking.sol\":5647:5758  function contractBalance() public view returns (uint256) {... */\n    tag_8:\n      tag_46\n      tag_47\n      jump\t// in\n    tag_46:\n      mload(0x40)\n      tag_48\n      swap2\n      swap1\n      tag_32\n      jump\t// in\n    tag_48:\n      mload(0x40)\n      dup1\n      swap2\n      sub\n      swap1\n      return\n        /* \"Staking/staking.sol\":894:914  address public owner */\n    tag_9:\n      tag_49\n      tag_50\n      jump\t// in\n    tag_49:\n      mload(0x40)\n      tag_51\n      swap2\n      swap1\n      tag_52\n      jump\t// in\n    tag_51:\n      mload(0x40)\n      dup1\n      swap2\n      sub\n      swap1\n      return\n        /* \"Staking/staking.sol\":1152:1199  mapping(uint256 => address) public stakingOwner */\n    tag_10:\n      tag_53\n      0x04\n      dup1\n      calldatasize\n      sub\n      dup2\n      add\n      swap1\n      tag_54\n      swap2\n      swap1\n      tag_35\n      jump\t// in\n    tag_54:\n      tag_55\n      jump\t// in\n    tag_53:\n      mload(0x40)\n      tag_56\n      swap2\n      swap1\n      tag_52\n      jump\t// in\n    tag_56:\n      mload(0x40)\n      dup1\n      swap2\n      sub\n      swap1\n      return\n        /* \"Staking/staking.sol\":921:948  uint256 public interest = 1 */\n    tag_11:\n      tag_57\n      tag_58\n      jump\t// in\n    tag_57:\n      mload(0x40)\n      tag_59\n      swap2\n      swap1\n      tag_32\n      jump\t// in\n    tag_59:\n      mload(0x40)\n      dup1\n      swap2\n      sub\n      swap1\n      return\n        /* \"Staking/staking.sol\":3760:4685  function IdsAndDetails(address ad) public view returns (uint256[] memory, StakingInfo[] memory) {... */\n    tag_12:\n      tag_60\n      0x04\n      dup1\n      calldatasize\n      sub\n      dup2\n      add\n      swap1\n      tag_61\n      swap2\n      swap1\n      tag_24\n      jump\t// in\n    tag_61:\n      tag_62\n      jump\t// in\n    tag_60:\n      mload(0x40)\n      tag_63\n      swap3\n      swap2\n      swap1\n      tag_64\n      jump\t// in\n    tag_63:\n      mload(0x40)\n      dup1\n      swap2\n      sub\n      swap1\n      return\n        /* \"Staking/staking.sol\":2107:3667  function Stake(uint256 _numTokens, uint256 tarrif) external returns (uint256) {... */\n    tag_13:\n      tag_65\n      0x04\n      dup1\n      calldatasize\n      sub\n      dup2\n      add\n      swap1\n      tag_66\n      swap2\n      swap1\n      tag_67\n      jump\t// in\n    tag_66:\n      tag_68\n      jump\t// in\n    tag_65:\n      mload(0x40)\n      tag_69\n      swap2\n      swap1\n      tag_32\n      jump\t// in\n    tag_69:\n      mload(0x40)\n      dup1\n      swap2\n      sub\n      swap1\n      return\n        /* \"Staking/staking.sol\":7257:8065  function claimReward(address user) public {... */\n    tag_14:\n      tag_70\n      0x04\n      dup1\n      calldatasize\n      sub\n      dup2\n      add\n      swap1\n      tag_71\n      swap2\n      swap1\n      tag_24\n      jump\t// in\n    tag_71:\n      tag_72\n      jump\t// in\n    tag_70:\n      stop\n        /* \"Staking/staking.sol\":1228:1273  mapping(uint256 => StakingInfo) public stakes */\n    tag_15:\n      tag_73\n      0x04\n      dup1\n      calldatasize\n      sub\n      dup2\n      add\n      swap1\n      tag_74\n      swap2\n      swap1\n      tag_35\n      jump\t// in\n    tag_74:\n      tag_75\n      jump\t// in\n    tag_73:\n      mload(0x40)\n      tag_76\n      swap5\n      swap4\n      swap3\n      swap2\n      swap1\n      tag_77\n      jump\t// in\n    tag_76:\n      mload(0x40)\n      dup1\n      swap2\n      sub\n      swap1\n      return\n        /* \"Staking/staking.sol\":5842:5934  function CurrentTime() public view returns (uint256) {... */\n    tag_16:\n      tag_78\n      tag_79\n      jump\t// in\n    tag_78:\n      mload(0x40)\n      tag_80\n      swap2\n      swap1\n      tag_32\n      jump\t// in\n    tag_80:\n      mload(0x40)\n      dup1\n      swap2\n      sub\n      swap1\n      return\n        /* \"Staking/staking.sol\":6366:6909  function genrateReward(uint256 id) public {... */\n    tag_17:\n      tag_81\n      0x04\n      dup1\n      calldatasize\n      sub\n      dup2\n      add\n      swap1\n      tag_82\n      swap2\n      swap1\n      tag_35\n      jump\t// in\n    tag_82:\n      tag_83\n      jump\t// in\n    tag_81:\n      stop\n        /* \"Staking/staking.sol\":869:888  IERC20 public token */\n    tag_18:\n      tag_84\n      tag_85\n      jump\t// in\n    tag_84:\n      mload(0x40)\n      tag_86\n      swap2\n      swap1\n      tag_87\n      jump\t// in\n    tag_86:\n      mload(0x40)\n      dup1\n      swap2\n      sub\n      swap1\n      return\n        /* \"Staking/staking.sol\":6954:7110  function isRewardAvailable(address user) public view returns(bool){... */\n    tag_25:\n        /* \"Staking/staking.sol\":7015:7019  bool */\n      0x00\n        /* \"Staking/staking.sol\":7055:7056  0 */\n      dup1\n        /* \"Staking/staking.sol\":7039:7046  rewards */\n      0x07\n        /* \"Staking/staking.sol\":7039:7052  rewards[user] */\n      0x00\n        /* \"Staking/staking.sol\":7047:7051  user */\n      dup5\n        /* \"Staking/staking.sol\":7039:7052  rewards[user] */\n      0xffffffffffffffffffffffffffffffffffffffff\n      and\n      0xffffffffffffffffffffffffffffffffffffffff\n      and\n      dup2\n      mstore\n      0x20\n      add\n      swap1\n      dup2\n      mstore\n      0x20\n      add\n      0x00\n      keccak256\n      sload\n        /* \"Staking/staking.sol\":7039:7056  rewards[user] > 0 */\n      gt\n        /* \"Staking/staking.sol\":7038:7102  (rewards[user] > 0) && (lastRewardClaimTime-block.timestamp)>120 */\n      dup1\n      iszero\n      tag_89\n      jumpi\n      pop\n        /* \"Staking/staking.sol\":7099:7102  120 */\n      0x78\n        /* \"Staking/staking.sol\":7082:7097  block.timestamp */\n      timestamp\n        /* \"Staking/staking.sol\":7062:7081  lastRewardClaimTime */\n      sload(0x04)\n        /* \"Staking/staking.sol\":7062:7097  lastRewardClaimTime-block.timestamp */\n      tag_90\n      swap2\n      swap1\n      tag_91\n      jump\t// in\n    tag_90:\n        /* \"Staking/staking.sol\":7061:7102  (lastRewardClaimTime-block.timestamp)>120 */\n      gt\n        /* \"Staking/staking.sol\":7038:7102  (rewards[user] > 0) && (lastRewardClaimTime-block.timestamp)>120 */\n    tag_89:\n        /* \"Staking/staking.sol\":7030:7103  return ((rewards[user] > 0) && (lastRewardClaimTime-block.timestamp)>120) */\n      swap1\n      pop\n        /* \"Staking/staking.sol\":6954:7110  function isRewardAvailable(address user) public view returns(bool){... */\n      swap2\n      swap1\n      pop\n      jump\t// out\n        /* \"Staking/staking.sol\":1437:1479  mapping(address => uint256) public rewards */\n    tag_30:\n      mstore(0x20, 0x07)\n      dup1\n      0x00\n      mstore\n      keccak256(0x00, 0x40)\n      0x00\n      swap2\n      pop\n      swap1\n      pop\n      sload\n      dup2\n      jump\t// out\n        /* \"Staking/staking.sol\":5482:5588  function stakeTime(uint256 id) view public returns (uint256) {... */\n    tag_36:\n        /* \"Staking/staking.sol\":5534:5541  uint256 */\n      0x00\n        /* \"Staking/staking.sol\":5560:5566  stakes */\n      0x06\n        /* \"Staking/staking.sol\":5560:5570  stakes[id] */\n      0x00\n        /* \"Staking/staking.sol\":5567:5569  id */\n      dup4\n        /* \"Staking/staking.sol\":5560:5570  stakes[id] */\n      dup2\n      mstore\n      0x20\n      add\n      swap1\n      dup2\n      mstore\n      0x20\n      add\n      0x00\n      keccak256\n        /* \"Staking/staking.sol\":5560:5581  stakes[id].StakedTime */\n      0x01\n      add\n      sload\n        /* \"Staking/staking.sol\":5553:5581  return stakes[id].StakedTime */\n      swap1\n      pop\n        /* \"Staking/staking.sol\":5482:5588  function stakeTime(uint256 id) view public returns (uint256) {... */\n      swap2\n      swap1\n      pop\n      jump\t// out\n        /* \"Staking/staking.sol\":4758:5411  function getIds(address ad) public view returns (uint256[] memory) {... */\n    tag_40:\n        /* \"Staking/staking.sol\":4807:4823  uint256[] memory */\n      0x60\n        /* \"Staking/staking.sol\":4899:4912  uint256 count */\n      0x00\n        /* \"Staking/staking.sol\":4931:4940  uint256 i */\n      dup1\n        /* \"Staking/staking.sol\":4926:5073  for (uint256 i = 0; i <= StakeIdCounter.current(); i++) {... */\n    tag_94:\n        /* \"Staking/staking.sol\":4951:4975  StakeIdCounter.current() */\n      tag_97\n        /* \"Staking/staking.sol\":4951:4965  StakeIdCounter */\n      0x00\n        /* \"Staking/staking.sol\":4951:4973  StakeIdCounter.current */\n      tag_98\n        /* \"Staking/staking.sol\":4951:4975  StakeIdCounter.current() */\n      jump\t// in\n    tag_97:\n        /* \"Staking/staking.sol\":4946:4947  i */\n      dup2\n        /* \"Staking/staking.sol\":4946:4975  i <= StakeIdCounter.current() */\n      gt\n        /* \"Staking/staking.sol\":4926:5073  for (uint256 i = 0; i <= StakeIdCounter.current(); i++) {... */\n      tag_95\n      jumpi\n        /* \"Staking/staking.sol\":5019:5021  ad */\n      dup4\n        /* \"Staking/staking.sol\":5000:5021  stakingOwner[i] == ad */\n      0xffffffffffffffffffffffffffffffffffffffff\n      and\n        /* \"Staking/staking.sol\":5000:5012  stakingOwner */\n      0x05\n        /* \"Staking/staking.sol\":5000:5015  stakingOwner[i] */\n      0x00\n        /* \"Staking/staking.sol\":5013:5014  i */\n      dup4\n        /* \"Staking/staking.sol\":5000:5015  stakingOwner[i] */\n      dup2\n      mstore\n      0x20\n      add\n      swap1\n      dup2\n      mstore\n      0x20\n      add\n      0x00\n      keccak256\n      0x00\n      swap1\n      sload\n      swap1\n      0x0100\n      exp\n      swap1\n      div\n      0xffffffffffffffffffffffffffffffffffffffff\n      and\n        /* \"Staking/staking.sol\":5000:5021  stakingOwner[i] == ad */\n      0xffffffffffffffffffffffffffffffffffffffff\n      and\n      sub\n        /* \"Staking/staking.sol\":4996:5063  if (stakingOwner[i] == ad) {... */\n      tag_99\n      jumpi\n        /* \"Staking/staking.sol\":5041:5048  count++ */\n      dup2\n      dup1\n      tag_100\n      swap1\n      tag_101\n      jump\t// in\n    tag_100:\n      swap3\n      pop\n      pop\n        /* \"Staking/staking.sol\":4996:5063  if (stakingOwner[i] == ad) {... */\n    tag_99:\n        /* \"Staking/staking.sol\":4977:4980  i++ */\n      dup1\n      dup1\n      tag_102\n      swap1\n      tag_101\n      jump\t// in\n    tag_102:\n      swap2\n      pop\n      pop\n        /* \"Staking/staking.sol\":4926:5073  for (uint256 i = 0; i <= StakeIdCounter.current(); i++) {... */\n      jump(tag_94)\n    tag_95:\n      pop\n        /* \"Staking/staking.sol\":5114:5138  uint256[] memory userids */\n      0x00\n        /* \"Staking/staking.sol\":5155:5160  count */\n      dup2\n        /* \"Staking/staking.sol\":5141:5161  new uint256[](count) */\n      0xffffffffffffffff\n      dup2\n      gt\n      iszero\n      tag_103\n      jumpi\n      tag_104\n      tag_105\n      jump\t// in\n    tag_104:\n    tag_103:\n      mload(0x40)\n      swap1\n      dup1\n      dup3\n      mstore\n      dup1\n      0x20\n      mul\n      0x20\n      add\n      dup3\n      add\n      0x40\n      mstore\n      dup1\n      iszero\n      tag_106\n      jumpi\n      dup2\n      0x20\n      add\n      0x20\n      dup3\n      mul\n      dup1\n      calldatasize\n      dup4\n      calldatacopy\n      dup1\n      dup3\n      add\n      swap2\n      pop\n      pop\n      swap1\n      pop\n    tag_106:\n      pop\n        /* \"Staking/staking.sol\":5114:5161  uint256[] memory userids = new uint256[](count) */\n      swap1\n      pop\n        /* \"Staking/staking.sol\":5171:5184  uint256 index */\n      0x00\n        /* \"Staking/staking.sol\":5203:5212  uint256 i */\n      dup1\n        /* \"Staking/staking.sol\":5198:5381  for (uint256 i = 0; i <= StakeIdCounter.current(); i++) {... */\n    tag_107:\n        /* \"Staking/staking.sol\":5223:5247  StakeIdCounter.current() */\n      tag_110\n        /* \"Staking/staking.sol\":5223:5237  StakeIdCounter */\n      0x00\n        /* \"Staking/staking.sol\":5223:5245  StakeIdCounter.current */\n      tag_98\n        /* \"Staking/staking.sol\":5223:5247  StakeIdCounter.current() */\n      jump\t// in\n    tag_110:\n        /* \"Staking/staking.sol\":5218:5219  i */\n      dup2\n        /* \"Staking/staking.sol\":5218:5247  i <= StakeIdCounter.current() */\n      gt\n        /* \"Staking/staking.sol\":5198:5381  for (uint256 i = 0; i <= StakeIdCounter.current(); i++) {... */\n      tag_108\n      jumpi\n        /* \"Staking/staking.sol\":5291:5293  ad */\n      dup6\n        /* \"Staking/staking.sol\":5272:5293  stakingOwner[i] == ad */\n      0xffffffffffffffffffffffffffffffffffffffff\n      and\n        /* \"Staking/staking.sol\":5272:5284  stakingOwner */\n      0x05\n        /* \"Staking/staking.sol\":5272:5287  stakingOwner[i] */\n      0x00\n        /* \"Staking/staking.sol\":5285:5286  i */\n      dup4\n        /* \"Staking/staking.sol\":5272:5287  stakingOwner[i] */\n      dup2\n      mstore\n      0x20\n      add\n      swap1\n      dup2\n      mstore\n      0x20\n      add\n      0x00\n      keccak256\n      0x00\n      swap1\n      sload\n      swap1\n      0x0100\n      exp\n      swap1\n      div\n      0xffffffffffffffffffffffffffffffffffffffff\n      and\n        /* \"Staking/staking.sol\":5272:5293  stakingOwner[i] == ad */\n      0xffffffffffffffffffffffffffffffffffffffff\n      and\n      sub\n        /* \"Staking/staking.sol\":5268:5371  if (stakingOwner[i] == ad) {... */\n      tag_111\n      jumpi\n        /* \"Staking/staking.sol\":5330:5331  i */\n      dup1\n        /* \"Staking/staking.sol\":5313:5320  userids */\n      dup4\n        /* \"Staking/staking.sol\":5321:5326  index */\n      dup4\n        /* \"Staking/staking.sol\":5313:5327  userids[index] */\n      dup2\n      mload\n      dup2\n      lt\n      tag_112\n      jumpi\n      tag_113\n      tag_114\n      jump\t// in\n    tag_113:\n    tag_112:\n      0x20\n      mul\n      0x20\n      add\n      add\n        /* \"Staking/staking.sol\":5313:5331  userids[index] = i */\n      dup2\n      dup2\n      mstore\n      pop\n      pop\n        /* \"Staking/staking.sol\":5349:5356  index++ */\n      dup2\n      dup1\n      tag_115\n      swap1\n      tag_101\n      jump\t// in\n    tag_115:\n      swap3\n      pop\n      pop\n        /* \"Staking/staking.sol\":5268:5371  if (stakingOwner[i] == ad) {... */\n    tag_111:\n        /* \"Staking/staking.sol\":5249:5252  i++ */\n      dup1\n      dup1\n      tag_116\n      swap1\n      tag_101\n      jump\t// in\n    tag_116:\n      swap2\n      pop\n      pop\n        /* \"Staking/staking.sol\":5198:5381  for (uint256 i = 0; i <= StakeIdCounter.current(); i++) {... */\n      jump(tag_107)\n    tag_108:\n      pop\n        /* \"Staking/staking.sol\":5397:5404  userids */\n      dup2\n        /* \"Staking/staking.sol\":5390:5404  return userids */\n      swap4\n      pop\n      pop\n      pop\n      pop\n        /* \"Staking/staking.sol\":4758:5411  function getIds(address ad) public view returns (uint256[] memory) {... */\n      swap2\n      swap1\n      pop\n      jump\t// out\n        /* \"Staking/staking.sol\":8123:8794  function claimAmount(address user) public {... */\n    tag_45:\n        /* \"Staking/staking.sol\":8232:8256  uint256[] memory userids */\n      0x00\n        /* \"Staking/staking.sol\":8259:8271  getIds(user) */\n      tag_118\n        /* \"Staking/staking.sol\":8266:8270  user */\n      dup3\n        /* \"Staking/staking.sol\":8259:8265  getIds */\n      tag_40\n        /* \"Staking/staking.sol\":8259:8271  getIds(user) */\n      jump\t// in\n    tag_118:\n        /* \"Staking/staking.sol\":8232:8271  uint256[] memory userids = getIds(user) */\n      swap1\n      pop\n        /* \"Staking/staking.sol\":8306:8307  0 */\n      0x00\n        /* \"Staking/staking.sol\":8289:8296  userids */\n      dup2\n        /* \"Staking/staking.sol\":8289:8303  userids.length */\n      mload\n        /* \"Staking/staking.sol\":8289:8307  userids.length > 0 */\n      gt\n        /* \"Staking/staking.sol\":8281:8328  require(userids.length > 0, \"No amount staked\") */\n      tag_119\n      jumpi\n      mload(0x40)\n      0x08c379a000000000000000000000000000000000000000000000000000000000\n      dup2\n      mstore\n      0x04\n      add\n      tag_120\n      swap1\n      tag_121\n      jump\t// in\n    tag_120:\n      mload(0x40)\n      dup1\n      swap2\n      sub\n      swap1\n      revert\n    tag_119:\n        /* \"Staking/staking.sol\":8429:8438  uint256 i */\n      0x00\n        /* \"Staking/staking.sol\":8424:8788  for (uint256 i = 0; i < userids.length; i++) {... */\n    tag_122:\n        /* \"Staking/staking.sol\":8448:8455  userids */\n      dup2\n        /* \"Staking/staking.sol\":8448:8462  userids.length */\n      mload\n        /* \"Staking/staking.sol\":8444:8445  i */\n      dup2\n        /* \"Staking/staking.sol\":8444:8462  i < userids.length */\n      lt\n        /* \"Staking/staking.sol\":8424:8788  for (uint256 i = 0; i < userids.length; i++) {... */\n      iszero\n      tag_123\n      jumpi\n        /* \"Staking/staking.sol\":8488:8494  stakes */\n      0x06\n        /* \"Staking/staking.sol\":8488:8506  stakes[userids[i]] */\n      0x00\n        /* \"Staking/staking.sol\":8495:8502  userids */\n      dup4\n        /* \"Staking/staking.sol\":8503:8504  i */\n      dup4\n        /* \"Staking/staking.sol\":8495:8505  userids[i] */\n      dup2\n      mload\n      dup2\n      lt\n      tag_125\n      jumpi\n      tag_126\n      tag_114\n      jump\t// in\n    tag_126:\n    tag_125:\n      0x20\n      mul\n      0x20\n      add\n      add\n      mload\n        /* \"Staking/staking.sol\":8488:8506  stakes[userids[i]] */\n      dup2\n      mstore\n      0x20\n      add\n      swap1\n      dup2\n      mstore\n      0x20\n      add\n      0x00\n      keccak256\n        /* \"Staking/staking.sol\":8488:8514  stakes[userids[i]].expired */\n      0x03\n      add\n      0x00\n      swap1\n      sload\n      swap1\n      0x0100\n      exp\n      swap1\n      div\n      0xff\n      and\n        /* \"Staking/staking.sol\":8483:8778  if (!stakes[userids[i]].expired) {... */\n      tag_127\n      jumpi\n        /* \"Staking/staking.sol\":8534:8539  token */\n      0x01\n      0x00\n      swap1\n      sload\n      swap1\n      0x0100\n      exp\n      swap1\n      div\n      0xffffffffffffffffffffffffffffffffffffffff\n      and\n        /* \"Staking/staking.sol\":8534:8548  token.transfer */\n      0xffffffffffffffffffffffffffffffffffffffff\n      and\n      0xa9059cbb\n        /* \"Staking/staking.sol\":8549:8559  msg.sender */\n      caller\n        /* \"Staking/staking.sol\":8561:8567  stakes */\n      0x06\n        /* \"Staking/staking.sol\":8561:8579  stakes[userids[i]] */\n      0x00\n        /* \"Staking/staking.sol\":8568:8575  userids */\n      dup7\n        /* \"Staking/staking.sol\":8576:8577  i */\n      dup7\n        /* \"Staking/staking.sol\":8568:8578  userids[i] */\n      dup2\n      mload\n      dup2\n      lt\n      tag_128\n      jumpi\n      tag_129\n      tag_114\n      jump\t// in\n    tag_129:\n    tag_128:\n      0x20\n      mul\n      0x20\n      add\n      add\n      mload\n        /* \"Staking/staking.sol\":8561:8579  stakes[userids[i]] */\n      dup2\n      mstore\n      0x20\n      add\n      swap1\n      dup2\n      mstore\n      0x20\n      add\n      0x00\n      keccak256\n        /* \"Staking/staking.sol\":8561:8592  stakes[userids[i]].StakedAmount */\n      0x00\n      add\n      sload\n        /* \"Staking/staking.sol\":8534:8593  token.transfer(msg.sender, stakes[userids[i]].StakedAmount) */\n      mload(0x40)\n      dup4\n      0xffffffff\n      and\n      0xe0\n      shl\n      dup2\n      mstore\n      0x04\n      add\n      tag_130\n      swap3\n      swap2\n      swap1\n      tag_131\n      jump\t// in\n    tag_130:\n      0x20\n      mload(0x40)\n      dup1\n      dup4\n      sub\n      dup2\n      0x00\n      dup8\n      gas\n      call\n      iszero\n      dup1\n      iszero\n      tag_133\n      jumpi\n      returndatasize\n      0x00\n      dup1\n      returndatacopy\n      revert(0x00, returndatasize)\n    tag_133:\n      pop\n      pop\n      pop\n      pop\n      mload(0x40)\n      returndatasize\n      not(0x1f)\n      0x1f\n      dup3\n      add\n      and\n      dup3\n      add\n      dup1\n      0x40\n      mstore\n      pop\n      dup2\n      add\n      swap1\n      tag_134\n      swap2\n      swap1\n      tag_135\n      jump\t// in\n    tag_134:\n      pop\n        /* \"Staking/staking.sol\":8645:8646  0 */\n      0x00\n        /* \"Staking/staking.sol\":8611:8617  stakes */\n      0x06\n        /* \"Staking/staking.sol\":8611:8629  stakes[userids[i]] */\n      0x00\n        /* \"Staking/staking.sol\":8618:8625  userids */\n      dup5\n        /* \"Staking/staking.sol\":8626:8627  i */\n      dup5\n        /* \"Staking/staking.sol\":8618:8628  userids[i] */\n      dup2\n      mload\n      dup2\n      lt\n      tag_136\n      jumpi\n      tag_137\n      tag_114\n      jump\t// in\n    tag_137:\n    tag_136:\n      0x20\n      mul\n      0x20\n      add\n      add\n      mload\n        /* \"Staking/staking.sol\":8611:8629  stakes[userids[i]] */\n      dup2\n      mstore\n      0x20\n      add\n      swap1\n      dup2\n      mstore\n      0x20\n      add\n      0x00\n      keccak256\n        /* \"Staking/staking.sol\":8611:8642  stakes[userids[i]].StakedAmount */\n      0x00\n      add\n        /* \"Staking/staking.sol\":8611:8646  stakes[userids[i]].StakedAmount = 0 */\n      dup2\n      swap1\n      sstore\n      pop\n        /* \"Staking/staking.sol\":8693:8697  true */\n      0x01\n        /* \"Staking/staking.sol\":8664:8670  stakes */\n      0x06\n        /* \"Staking/staking.sol\":8664:8682  stakes[userids[i]] */\n      0x00\n        /* \"Staking/staking.sol\":8671:8678  userids */\n      dup5\n        /* \"Staking/staking.sol\":8679:8680  i */\n      dup5\n        /* \"Staking/staking.sol\":8671:8681  userids[i] */\n      dup2\n      mload\n      dup2\n      lt\n      tag_138\n      jumpi\n      tag_139\n      tag_114\n      jump\t// in\n    tag_139:\n    tag_138:\n      0x20\n      mul\n      0x20\n      add\n      add\n      mload\n        /* \"Staking/staking.sol\":8664:8682  stakes[userids[i]] */\n      dup2\n      mstore\n      0x20\n      add\n      swap1\n      dup2\n      mstore\n      0x20\n      add\n      0x00\n      keccak256\n        /* \"Staking/staking.sol\":8664:8690  stakes[userids[i]].expired */\n      0x03\n      add\n      0x00\n        /* \"Staking/staking.sol\":8664:8697  stakes[userids[i]].expired = true */\n      0x0100\n      exp\n      dup2\n      sload\n      dup2\n      0xff\n      mul\n      not\n      and\n      swap1\n      dup4\n      iszero\n      iszero\n      mul\n      or\n      swap1\n      sstore\n      pop\n        /* \"Staking/staking.sol\":8483:8778  if (!stakes[userids[i]].expired) {... */\n    tag_127:\n        /* \"Staking/staking.sol\":8464:8467  i++ */\n      dup1\n      dup1\n      tag_140\n      swap1\n      tag_101\n      jump\t// in\n    tag_140:\n      swap2\n      pop\n      pop\n        /* \"Staking/staking.sol\":8424:8788  for (uint256 i = 0; i < userids.length; i++) {... */\n      jump(tag_122)\n    tag_123:\n      pop\n        /* \"Staking/staking.sol\":8165:8794  {... */\n      pop\n        /* \"Staking/staking.sol\":8123:8794  function claimAmount(address user) public {... */\n      pop\n      jump\t// out\n        /* \"Staking/staking.sol\":5647:5758  function contractBalance() public view returns (uint256) {... */\n    tag_47:\n        /* \"Staking/staking.sol\":5695:5702  uint256 */\n      0x00\n        /* \"Staking/staking.sol\":5721:5726  token */\n      0x01\n      0x00\n      swap1\n      sload\n      swap1\n      0x0100\n      exp\n      swap1\n      div\n      0xffffffffffffffffffffffffffffffffffffffff\n      and\n        /* \"Staking/staking.sol\":5721:5736  token.balanceOf */\n      0xffffffffffffffffffffffffffffffffffffffff\n      and\n      0x70a08231\n        /* \"Staking/staking.sol\":5745:5749  this */\n      address\n        /* \"Staking/staking.sol\":5721:5751  token.balanceOf(address(this)) */\n      mload(0x40)\n      dup3\n      0xffffffff\n      and\n      0xe0\n      shl\n      dup2\n      mstore\n      0x04\n      add\n      tag_142\n      swap2\n      swap1\n      tag_52\n      jump\t// in\n    tag_142:\n      0x20\n      mload(0x40)\n      dup1\n      dup4\n      sub\n      dup2\n      dup7\n      gas\n      staticcall\n      iszero\n      dup1\n      iszero\n      tag_144\n      jumpi\n      returndatasize\n      0x00\n      dup1\n      returndatacopy\n      revert(0x00, returndatasize)\n    tag_144:\n      pop\n      pop\n      pop\n      pop\n      mload(0x40)\n      returndatasize\n      not(0x1f)\n      0x1f\n      dup3\n      add\n      and\n      dup3\n      add\n      dup1\n      0x40\n      mstore\n      pop\n      dup2\n      add\n      swap1\n      tag_145\n      swap2\n      swap1\n      tag_146\n      jump\t// in\n    tag_145:\n        /* \"Staking/staking.sol\":5714:5751  return token.balanceOf(address(this)) */\n      swap1\n      pop\n        /* \"Staking/staking.sol\":5647:5758  function contractBalance() public view returns (uint256) {... */\n      swap1\n      jump\t// out\n        /* \"Staking/staking.sol\":894:914  address public owner */\n    tag_50:\n      0x02\n      0x00\n      swap1\n      sload\n      swap1\n      0x0100\n      exp\n      swap1\n      div\n      0xffffffffffffffffffffffffffffffffffffffff\n      and\n      dup2\n      jump\t// out\n        /* \"Staking/staking.sol\":1152:1199  mapping(uint256 => address) public stakingOwner */\n    tag_55:\n      mstore(0x20, 0x05)\n      dup1\n      0x00\n      mstore\n      keccak256(0x00, 0x40)\n      0x00\n      swap2\n      pop\n      sload\n      swap1\n      0x0100\n      exp\n      swap1\n      div\n      0xffffffffffffffffffffffffffffffffffffffff\n      and\n      dup2\n      jump\t// out\n        /* \"Staking/staking.sol\":921:948  uint256 public interest = 1 */\n    tag_58:\n      sload(0x03)\n      dup2\n      jump\t// out\n        /* \"Staking/staking.sol\":3760:4685  function IdsAndDetails(address ad) public view returns (uint256[] memory, StakingInfo[] memory) {... */\n    tag_62:\n        /* \"Staking/staking.sol\":3816:3832  uint256[] memory */\n      0x60\n        /* \"Staking/staking.sol\":3834:3854  StakingInfo[] memory */\n      dup1\n        /* \"Staking/staking.sol\":3930:3943  uint256 count */\n      0x00\n        /* \"Staking/staking.sol\":3962:3971  uint256 i */\n      dup1\n        /* \"Staking/staking.sol\":3957:4104  for (uint256 i = 0; i <= StakeIdCounter.current(); i++) {... */\n    tag_148:\n        /* \"Staking/staking.sol\":3982:4006  StakeIdCounter.current() */\n      tag_151\n        /* \"Staking/staking.sol\":3982:3996  StakeIdCounter */\n      0x00\n        /* \"Staking/staking.sol\":3982:4004  StakeIdCounter.current */\n      tag_98\n        /* \"Staking/staking.sol\":3982:4006  StakeIdCounter.current() */\n      jump\t// in\n    tag_151:\n        /* \"Staking/staking.sol\":3977:3978  i */\n      dup2\n        /* \"Staking/staking.sol\":3977:4006  i <= StakeIdCounter.current() */\n      gt\n        /* \"Staking/staking.sol\":3957:4104  for (uint256 i = 0; i <= StakeIdCounter.current(); i++) {... */\n      tag_149\n      jumpi\n        /* \"Staking/staking.sol\":4050:4052  ad */\n      dup5\n        /* \"Staking/staking.sol\":4031:4052  stakingOwner[i] == ad */\n      0xffffffffffffffffffffffffffffffffffffffff\n      and\n        /* \"Staking/staking.sol\":4031:4043  stakingOwner */\n      0x05\n        /* \"Staking/staking.sol\":4031:4046  stakingOwner[i] */\n      0x00\n        /* \"Staking/staking.sol\":4044:4045  i */\n      dup4\n        /* \"Staking/staking.sol\":4031:4046  stakingOwner[i] */\n      dup2\n      mstore\n      0x20\n      add\n      swap1\n      dup2\n      mstore\n      0x20\n      add\n      0x00\n      keccak256\n      0x00\n      swap1\n      sload\n      swap1\n      0x0100\n      exp\n      swap1\n      div\n      0xffffffffffffffffffffffffffffffffffffffff\n      and\n        /* \"Staking/staking.sol\":4031:4052  stakingOwner[i] == ad */\n      0xffffffffffffffffffffffffffffffffffffffff\n      and\n      sub\n        /* \"Staking/staking.sol\":4027:4094  if (stakingOwner[i] == ad) {... */\n      tag_152\n      jumpi\n        /* \"Staking/staking.sol\":4072:4079  count++ */\n      dup2\n      dup1\n      tag_153\n      swap1\n      tag_101\n      jump\t// in\n    tag_153:\n      swap3\n      pop\n      pop\n        /* \"Staking/staking.sol\":4027:4094  if (stakingOwner[i] == ad) {... */\n    tag_152:\n        /* \"Staking/staking.sol\":4008:4011  i++ */\n      dup1\n      dup1\n      tag_154\n      swap1\n      tag_101\n      jump\t// in\n    tag_154:\n      swap2\n      pop\n      pop\n        /* \"Staking/staking.sol\":3957:4104  for (uint256 i = 0; i <= StakeIdCounter.current(); i++) {... */\n      jump(tag_148)\n    tag_149:\n      pop\n        /* \"Staking/staking.sol\":4183:4216  StakingInfo[] memory stakingInfos */\n      0x00\n        /* \"Staking/staking.sol\":4237:4242  count */\n      dup2\n        /* \"Staking/staking.sol\":4219:4243  new StakingInfo[](count) */\n      0xffffffffffffffff\n      dup2\n      gt\n      iszero\n      tag_155\n      jumpi\n      tag_156\n      tag_105\n      jump\t// in\n    tag_156:\n    tag_155:\n      mload(0x40)\n      swap1\n      dup1\n      dup3\n      mstore\n      dup1\n      0x20\n      mul\n      0x20\n      add\n      dup3\n      add\n      0x40\n      mstore\n      dup1\n      iszero\n      tag_157\n      jumpi\n      dup2\n      0x20\n      add\n    tag_158:\n      tag_159\n      tag_160\n      jump\t// in\n    tag_159:\n      dup2\n      mstore\n      0x20\n      add\n      swap1\n      0x01\n      swap1\n      sub\n      swap1\n      dup2\n      tag_158\n      jumpi\n      swap1\n      pop\n    tag_157:\n      pop\n        /* \"Staking/staking.sol\":4183:4243  StakingInfo[] memory stakingInfos = new StakingInfo[](count) */\n      swap1\n      pop\n        /* \"Staking/staking.sol\":4253:4277  uint256[] memory userids */\n      0x00\n        /* \"Staking/staking.sol\":4294:4299  count */\n      dup3\n        /* \"Staking/staking.sol\":4280:4300  new uint256[](count) */\n      0xffffffffffffffff\n      dup2\n      gt\n      iszero\n      tag_161\n      jumpi\n      tag_162\n      tag_105\n      jump\t// in\n    tag_162:\n    tag_161:\n      mload(0x40)\n      swap1\n      dup1\n      dup3\n      mstore\n      dup1\n      0x20\n      mul\n      0x20\n      add\n      dup3\n      add\n      0x40\n      mstore\n      dup1\n      iszero\n      tag_163\n      jumpi\n      dup2\n      0x20\n      add\n      0x20\n      dup3\n      mul\n      dup1\n      calldatasize\n      dup4\n      calldatacopy\n      dup1\n      dup3\n      add\n      swap2\n      pop\n      pop\n      swap1\n      pop\n    tag_163:\n      pop\n        /* \"Staking/staking.sol\":4253:4300  uint256[] memory userids = new uint256[](count) */\n      swap1\n      pop\n        /* \"Staking/staking.sol\":4310:4323  uint256 index */\n      0x00\n        /* \"Staking/staking.sol\":4342:4351  uint256 i */\n      dup1\n        /* \"Staking/staking.sol\":4337:4639  for (uint256 i = 0; i <= StakeIdCounter.current(); i++) {... */\n    tag_164:\n        /* \"Staking/staking.sol\":4362:4386  StakeIdCounter.current() */\n      tag_167\n        /* \"Staking/staking.sol\":4362:4376  StakeIdCounter */\n      0x00\n        /* \"Staking/staking.sol\":4362:4384  StakeIdCounter.current */\n      tag_98\n        /* \"Staking/staking.sol\":4362:4386  StakeIdCounter.current() */\n      jump\t// in\n    tag_167:\n        /* \"Staking/staking.sol\":4357:4358  i */\n      dup2\n        /* \"Staking/staking.sol\":4357:4386  i <= StakeIdCounter.current() */\n      gt\n        /* \"Staking/staking.sol\":4337:4639  for (uint256 i = 0; i <= StakeIdCounter.current(); i++) {... */\n      tag_165\n      jumpi\n        /* \"Staking/staking.sol\":4430:4432  ad */\n      dup8\n        /* \"Staking/staking.sol\":4411:4432  stakingOwner[i] == ad */\n      0xffffffffffffffffffffffffffffffffffffffff\n      and\n        /* \"Staking/staking.sol\":4411:4423  stakingOwner */\n      0x05\n        /* \"Staking/staking.sol\":4411:4426  stakingOwner[i] */\n      0x00\n        /* \"Staking/staking.sol\":4424:4425  i */\n      dup4\n        /* \"Staking/staking.sol\":4411:4426  stakingOwner[i] */\n      dup2\n      mstore\n      0x20\n      add\n      swap1\n      dup2\n      mstore\n      0x20\n      add\n      0x00\n      keccak256\n      0x00\n      swap1\n      sload\n      swap1\n      0x0100\n      exp\n      swap1\n      div\n      0xffffffffffffffffffffffffffffffffffffffff\n      and\n        /* \"Staking/staking.sol\":4411:4432  stakingOwner[i] == ad */\n      0xffffffffffffffffffffffffffffffffffffffff\n      and\n      sub\n        /* \"Staking/staking.sol\":4407:4559  if (stakingOwner[i] == ad) {... */\n      tag_168\n      jumpi\n        /* \"Staking/staking.sol\":4474:4480  stakes */\n      0x06\n        /* \"Staking/staking.sol\":4474:4483  stakes[i] */\n      0x00\n        /* \"Staking/staking.sol\":4481:4482  i */\n      dup3\n        /* \"Staking/staking.sol\":4474:4483  stakes[i] */\n      dup2\n      mstore\n      0x20\n      add\n      swap1\n      dup2\n      mstore\n      0x20\n      add\n      0x00\n      keccak256\n        /* \"Staking/staking.sol\":4452:4483  stakingInfos[index] = stakes[i] */\n      mload(0x40)\n      dup1\n      0x80\n      add\n      0x40\n      mstore\n      swap1\n      dup2\n      0x00\n      dup3\n      add\n      sload\n      dup2\n      mstore\n      0x20\n      add\n      0x01\n      dup3\n      add\n      sload\n      dup2\n      mstore\n      0x20\n      add\n      0x02\n      dup3\n      add\n      sload\n      dup2\n      mstore\n      0x20\n      add\n      0x03\n      dup3\n      add\n      0x00\n      swap1\n      sload\n      swap1\n      0x0100\n      exp\n      swap1\n      div\n      0xff\n      and\n      iszero\n      iszero\n      iszero\n      iszero\n      dup2\n      mstore\n      pop\n      pop\n        /* \"Staking/staking.sol\":4452:4464  stakingInfos */\n      dup5\n        /* \"Staking/staking.sol\":4465:4470  index */\n      dup4\n        /* \"Staking/staking.sol\":4452:4471  stakingInfos[index] */\n      dup2\n      mload\n      dup2\n      lt\n      tag_169\n      jumpi\n      tag_170\n      tag_114\n      jump\t// in\n    tag_170:\n    tag_169:\n      0x20\n      mul\n      0x20\n      add\n      add\n        /* \"Staking/staking.sol\":4452:4483  stakingInfos[index] = stakes[i] */\n      dup2\n      swap1\n      mstore\n      pop\n        /* \"Staking/staking.sol\":4518:4519  i */\n      dup1\n        /* \"Staking/staking.sol\":4501:4508  userids */\n      dup4\n        /* \"Staking/staking.sol\":4509:4514  index */\n      dup4\n        /* \"Staking/staking.sol\":4501:4515  userids[index] */\n      dup2\n      mload\n      dup2\n      lt\n      tag_171\n      jumpi\n      tag_172\n      tag_114\n      jump\t// in\n    tag_172:\n    tag_171:\n      0x20\n      mul\n      0x20\n      add\n      add\n        /* \"Staking/staking.sol\":4501:4519  userids[index] = i */\n      dup2\n      dup2\n      mstore\n      pop\n      pop\n        /* \"Staking/staking.sol\":4537:4544  index++ */\n      dup2\n      dup1\n      tag_173\n      swap1\n      tag_101\n      jump\t// in\n    tag_173:\n      swap3\n      pop\n      pop\n        /* \"Staking/staking.sol\":4407:4559  if (stakingOwner[i] == ad) {... */\n    tag_168:\n        /* \"Staking/staking.sol\":4584:4589  count */\n      dup5\n        /* \"Staking/staking.sol\":4576:4581  index */\n      dup3\n        /* \"Staking/staking.sol\":4576:4589  index > count */\n      gt\n        /* \"Staking/staking.sol\":4609:4614  break */\n      tag_165\n        /* \"Staking/staking.sol\":4572:4629  if (index > count) {... */\n      jumpi\n        /* \"Staking/staking.sol\":4388:4391  i++ */\n      dup1\n      dup1\n      tag_175\n      swap1\n      tag_101\n      jump\t// in\n    tag_175:\n      swap2\n      pop\n      pop\n        /* \"Staking/staking.sol\":4337:4639  for (uint256 i = 0; i <= StakeIdCounter.current(); i++) {... */\n      jump(tag_164)\n    tag_165:\n      pop\n        /* \"Staking/staking.sol\":4656:4663  userids */\n      dup2\n        /* \"Staking/staking.sol\":4665:4677  stakingInfos */\n      dup4\n        /* \"Staking/staking.sol\":4648:4678  return (userids, stakingInfos) */\n      swap6\n      pop\n      swap6\n      pop\n      pop\n      pop\n      pop\n      pop\n        /* \"Staking/staking.sol\":3760:4685  function IdsAndDetails(address ad) public view returns (uint256[] memory, StakingInfo[] memory) {... */\n      swap2\n      pop\n      swap2\n      jump\t// out\n        /* \"Staking/staking.sol\":2107:3667  function Stake(uint256 _numTokens, uint256 tarrif) external returns (uint256) {... */\n    tag_68:\n        /* \"Staking/staking.sol\":2176:2183  uint256 */\n      0x00\n        /* \"Staking/staking.sol\":2375:2401  StakeIdCounter.increment() */\n      tag_177\n        /* \"Staking/staking.sol\":2375:2389  StakeIdCounter */\n      0x00\n        /* \"Staking/staking.sol\":2375:2399  StakeIdCounter.increment */\n      tag_178\n        /* \"Staking/staking.sol\":2375:2401  StakeIdCounter.increment() */\n      jump\t// in\n    tag_177:\n        /* \"Staking/staking.sol\":2497:2498  0 */\n      0x00\n        /* \"Staking/staking.sol\":2484:2494  _numTokens */\n      dup4\n        /* \"Staking/staking.sol\":2484:2498  _numTokens > 0 */\n      gt\n        /* \"Staking/staking.sol\":2476:2535  require(_numTokens > 0, \"Must stake more than zero tokens\") */\n      tag_179\n      jumpi\n      mload(0x40)\n      0x08c379a000000000000000000000000000000000000000000000000000000000\n      dup2\n      mstore\n      0x04\n      add\n      tag_180\n      swap1\n      tag_181\n      jump\t// in\n    tag_180:\n      mload(0x40)\n      dup1\n      swap2\n      sub\n      swap1\n      revert\n    tag_179:\n        /* \"Staking/staking.sol\":2584:2594  _numTokens */\n      dup3\n        /* \"Staking/staking.sol\":2553:2558  token */\n      0x01\n      0x00\n      swap1\n      sload\n      swap1\n      0x0100\n      exp\n      swap1\n      div\n      0xffffffffffffffffffffffffffffffffffffffff\n      and\n        /* \"Staking/staking.sol\":2553:2568  token.balanceOf */\n      0xffffffffffffffffffffffffffffffffffffffff\n      and\n      0x70a08231\n        /* \"Staking/staking.sol\":2569:2579  msg.sender */\n      caller\n        /* \"Staking/staking.sol\":2553:2580  token.balanceOf(msg.sender) */\n      mload(0x40)\n      dup3\n      0xffffffff\n      and\n      0xe0\n      shl\n      dup2\n      mstore\n      0x04\n      add\n      tag_182\n      swap2\n      swap1\n      tag_52\n      jump\t// in\n    tag_182:\n      0x20\n      mload(0x40)\n      dup1\n      dup4\n      sub\n      dup2\n      dup7\n      gas\n      staticcall\n      iszero\n      dup1\n      iszero\n      tag_184\n      jumpi\n      returndatasize\n      0x00\n      dup1\n      returndatacopy\n      revert(0x00, returndatasize)\n    tag_184:\n      pop\n      pop\n      pop\n      pop\n      mload(0x40)\n      returndatasize\n      not(0x1f)\n      0x1f\n      dup3\n      add\n      and\n      dup3\n      add\n      dup1\n      0x40\n      mstore\n      pop\n      dup2\n      add\n      swap1\n      tag_185\n      swap2\n      swap1\n      tag_146\n      jump\t// in\n    tag_185:\n        /* \"Staking/staking.sol\":2553:2594  token.balanceOf(msg.sender) >= _numTokens */\n      lt\n      iszero\n        /* \"Staking/staking.sol\":2545:2633  require(token.balanceOf(msg.sender) >= _numTokens, \"Not Enough Balance Tokens To Stake\") */\n      tag_186\n      jumpi\n      mload(0x40)\n      0x08c379a000000000000000000000000000000000000000000000000000000000\n      dup2\n      mstore\n      0x04\n      add\n      tag_187\n      swap1\n      tag_188\n      jump\t// in\n    tag_187:\n      mload(0x40)\n      dup1\n      swap2\n      sub\n      swap1\n      revert\n    tag_186:\n        /* \"Staking/staking.sol\":2661:2662  2 */\n      0x02\n        /* \"Staking/staking.sol\":2651:2657  tarrif */\n      dup3\n        /* \"Staking/staking.sol\":2651:2662  tarrif == 2 */\n      eq\n        /* \"Staking/staking.sol\":2651:2693  tarrif == 2 ||... */\n      dup1\n      tag_189\n      jumpi\n      pop\n        /* \"Staking/staking.sol\":2692:2693  4 */\n      0x04\n        /* \"Staking/staking.sol\":2682:2688  tarrif */\n      dup3\n        /* \"Staking/staking.sol\":2682:2693  tarrif == 4 */\n      eq\n        /* \"Staking/staking.sol\":2651:2693  tarrif == 2 ||... */\n    tag_189:\n        /* \"Staking/staking.sol\":2651:2725  tarrif == 2 ||... */\n      dup1\n      tag_190\n      jumpi\n      pop\n        /* \"Staking/staking.sol\":2724:2725  6 */\n      0x06\n        /* \"Staking/staking.sol\":2714:2720  tarrif */\n      dup3\n        /* \"Staking/staking.sol\":2714:2725  tarrif == 6 */\n      eq\n        /* \"Staking/staking.sol\":2651:2725  tarrif == 2 ||... */\n    tag_190:\n        /* \"Staking/staking.sol\":2651:2757  tarrif == 2 ||... */\n      dup1\n      tag_191\n      jumpi\n      pop\n        /* \"Staking/staking.sol\":2756:2757  8 */\n      0x08\n        /* \"Staking/staking.sol\":2746:2752  tarrif */\n      dup3\n        /* \"Staking/staking.sol\":2746:2757  tarrif == 8 */\n      eq\n        /* \"Staking/staking.sol\":2651:2757  tarrif == 2 ||... */\n    tag_191:\n        /* \"Staking/staking.sol\":2651:2790  tarrif == 2 ||... */\n      dup1\n      tag_192\n      jumpi\n      pop\n        /* \"Staking/staking.sol\":2788:2790  10 */\n      0x0a\n        /* \"Staking/staking.sol\":2778:2784  tarrif */\n      dup3\n        /* \"Staking/staking.sol\":2778:2790  tarrif == 10 */\n      eq\n        /* \"Staking/staking.sol\":2651:2790  tarrif == 2 ||... */\n    tag_192:\n        /* \"Staking/staking.sol\":2643:2847  require(tarrif == 2 ||... */\n      tag_193\n      jumpi\n      mload(0x40)\n      0x08c379a000000000000000000000000000000000000000000000000000000000\n      dup2\n      mstore\n      0x04\n      add\n      tag_194\n      swap1\n      tag_195\n      jump\t// in\n    tag_194:\n      mload(0x40)\n      dup1\n      swap2\n      sub\n      swap1\n      revert\n    tag_193:\n        /* \"Staking/staking.sol\":2910:2932  uint256 current_tarrif */\n      0x00\n        /* \"Staking/staking.sol\":2935:2950  block.timestamp */\n      timestamp\n        /* \"Staking/staking.sol\":2910:2950  uint256 current_tarrif = block.timestamp */\n      swap1\n      pop\n        /* \"Staking/staking.sol\":3001:3011  msg.sender */\n      caller\n        /* \"Staking/staking.sol\":2960:2972  stakingOwner */\n      0x05\n        /* \"Staking/staking.sol\":2960:2998  stakingOwner[StakeIdCounter.current()] */\n      0x00\n        /* \"Staking/staking.sol\":2973:2997  StakeIdCounter.current() */\n      tag_196\n        /* \"Staking/staking.sol\":2973:2987  StakeIdCounter */\n      0x00\n        /* \"Staking/staking.sol\":2973:2995  StakeIdCounter.current */\n      tag_98\n        /* \"Staking/staking.sol\":2973:2997  StakeIdCounter.current() */\n      jump\t// in\n    tag_196:\n        /* \"Staking/staking.sol\":2960:2998  stakingOwner[StakeIdCounter.current()] */\n      dup2\n      mstore\n      0x20\n      add\n      swap1\n      dup2\n      mstore\n      0x20\n      add\n      0x00\n      keccak256\n      0x00\n        /* \"Staking/staking.sol\":2960:3011  stakingOwner[StakeIdCounter.current()] = msg.sender */\n      0x0100\n      exp\n      dup2\n      sload\n      dup2\n      0xffffffffffffffffffffffffffffffffffffffff\n      mul\n      not\n      and\n      swap1\n      dup4\n      0xffffffffffffffffffffffffffffffffffffffff\n      and\n      mul\n      or\n      swap1\n      sstore\n      pop\n        /* \"Staking/staking.sol\":3029:3034  token */\n      0x01\n      0x00\n      swap1\n      sload\n      swap1\n      0x0100\n      exp\n      swap1\n      div\n      0xffffffffffffffffffffffffffffffffffffffff\n      and\n        /* \"Staking/staking.sol\":3029:3047  token.transferFrom */\n      0xffffffffffffffffffffffffffffffffffffffff\n      and\n      0x23b872dd\n        /* \"Staking/staking.sol\":3048:3058  msg.sender */\n      caller\n        /* \"Staking/staking.sol\":3068:3072  this */\n      address\n        /* \"Staking/staking.sol\":3075:3085  _numTokens */\n      dup8\n        /* \"Staking/staking.sol\":3029:3086  token.transferFrom(msg.sender, address(this), _numTokens) */\n      mload(0x40)\n      dup5\n      0xffffffff\n      and\n      0xe0\n      shl\n      dup2\n      mstore\n      0x04\n      add\n      tag_197\n      swap4\n      swap3\n      swap2\n      swap1\n      tag_198\n      jump\t// in\n    tag_197:\n      0x20\n      mload(0x40)\n      dup1\n      dup4\n      sub\n      dup2\n      0x00\n      dup8\n      gas\n      call\n      iszero\n      dup1\n      iszero\n      tag_200\n      jumpi\n      returndatasize\n      0x00\n      dup1\n      returndatacopy\n      revert(0x00, returndatasize)\n    tag_200:\n      pop\n      pop\n      pop\n      pop\n      mload(0x40)\n      returndatasize\n      not(0x1f)\n      0x1f\n      dup3\n      add\n      and\n      dup3\n      add\n      dup1\n      0x40\n      mstore\n      pop\n      dup2\n      add\n      swap1\n      tag_201\n      swap2\n      swap1\n      tag_135\n      jump\t// in\n    tag_201:\n        /* \"Staking/staking.sol\":3021:3126  require(token.transferFrom(msg.sender, address(this), _numTokens), \"Give approval from initial to stake\") */\n      tag_202\n      jumpi\n      mload(0x40)\n      0x08c379a000000000000000000000000000000000000000000000000000000000\n      dup2\n      mstore\n      0x04\n      add\n      tag_203\n      swap1\n      tag_204\n      jump\t// in\n    tag_203:\n      mload(0x40)\n      dup1\n      swap2\n      sub\n      swap1\n      revert\n    tag_202:\n        /* \"Staking/staking.sol\":3185:3195  _numTokens */\n      dup4\n        /* \"Staking/staking.sol\":3136:3142  stakes */\n      0x06\n        /* \"Staking/staking.sol\":3136:3168  stakes[StakeIdCounter.current()] */\n      0x00\n        /* \"Staking/staking.sol\":3143:3167  StakeIdCounter.current() */\n      tag_205\n        /* \"Staking/staking.sol\":3143:3157  StakeIdCounter */\n      0x00\n        /* \"Staking/staking.sol\":3143:3165  StakeIdCounter.current */\n      tag_98\n        /* \"Staking/staking.sol\":3143:3167  StakeIdCounter.current() */\n      jump\t// in\n    tag_205:\n        /* \"Staking/staking.sol\":3136:3168  stakes[StakeIdCounter.current()] */\n      dup2\n      mstore\n      0x20\n      add\n      swap1\n      dup2\n      mstore\n      0x20\n      add\n      0x00\n      keccak256\n        /* \"Staking/staking.sol\":3136:3181  stakes[StakeIdCounter.current()].StakedAmount */\n      0x00\n      add\n      0x00\n        /* \"Staking/staking.sol\":3136:3195  stakes[StakeIdCounter.current()].StakedAmount += _numTokens */\n      dup3\n      dup3\n      sload\n      tag_206\n      swap2\n      swap1\n      tag_207\n      jump\t// in\n    tag_206:\n      swap3\n      pop\n      pop\n      dup2\n      swap1\n      sstore\n      pop\n        /* \"Staking/staking.sol\":3251:3265  current_tarrif */\n      dup1\n        /* \"Staking/staking.sol\":3205:3211  stakes */\n      0x06\n        /* \"Staking/staking.sol\":3205:3237  stakes[StakeIdCounter.current()] */\n      0x00\n        /* \"Staking/staking.sol\":3212:3236  StakeIdCounter.current() */\n      tag_208\n        /* \"Staking/staking.sol\":3212:3226  StakeIdCounter */\n      0x00\n        /* \"Staking/staking.sol\":3212:3234  StakeIdCounter.current */\n      tag_98\n        /* \"Staking/staking.sol\":3212:3236  StakeIdCounter.current() */\n      jump\t// in\n    tag_208:\n        /* \"Staking/staking.sol\":3205:3237  stakes[StakeIdCounter.current()] */\n      dup2\n      mstore\n      0x20\n      add\n      swap1\n      dup2\n      mstore\n      0x20\n      add\n      0x00\n      keccak256\n        /* \"Staking/staking.sol\":3205:3248  stakes[StakeIdCounter.current()].StakedTime */\n      0x01\n      add\n        /* \"Staking/staking.sol\":3205:3265  stakes[StakeIdCounter.current()].StakedTime = current_tarrif */\n      dup2\n      swap1\n      sstore\n      pop\n        /* \"Staking/staking.sol\":3449:3451  60 */\n      0x3c\n        /* \"Staking/staking.sol\":3440:3446  tarrif */\n      dup4\n        /* \"Staking/staking.sol\":3440:3451  tarrif * 60 */\n      tag_209\n      swap2\n      swap1\n      tag_210\n      jump\t// in\n    tag_209:\n        /* \"Staking/staking.sol\":3396:3402  stakes */\n      0x06\n        /* \"Staking/staking.sol\":3396:3428  stakes[StakeIdCounter.current()] */\n      0x00\n        /* \"Staking/staking.sol\":3403:3427  StakeIdCounter.current() */\n      tag_211\n        /* \"Staking/staking.sol\":3403:3417  StakeIdCounter */\n      0x00\n        /* \"Staking/staking.sol\":3403:3425  StakeIdCounter.current */\n      tag_98\n        /* \"Staking/staking.sol\":3403:3427  StakeIdCounter.current() */\n      jump\t// in\n    tag_211:\n        /* \"Staking/staking.sol\":3396:3428  stakes[StakeIdCounter.current()] */\n      dup2\n      mstore\n      0x20\n      add\n      swap1\n      dup2\n      mstore\n      0x20\n      add\n      0x00\n      keccak256\n        /* \"Staking/staking.sol\":3396:3437  stakes[StakeIdCounter.current()].duration */\n      0x02\n      add\n        /* \"Staking/staking.sol\":3396:3451  stakes[StakeIdCounter.current()].duration = tarrif * 60 */\n      dup2\n      swap1\n      sstore\n      pop\n        /* \"Staking/staking.sol\":3613:3618  false */\n      0x00\n        /* \"Staking/staking.sol\":3570:3576  stakes */\n      0x06\n        /* \"Staking/staking.sol\":3570:3602  stakes[StakeIdCounter.current()] */\n      0x00\n        /* \"Staking/staking.sol\":3577:3601  StakeIdCounter.current() */\n      tag_212\n        /* \"Staking/staking.sol\":3577:3591  StakeIdCounter */\n      0x00\n        /* \"Staking/staking.sol\":3577:3599  StakeIdCounter.current */\n      tag_98\n        /* \"Staking/staking.sol\":3577:3601  StakeIdCounter.current() */\n      jump\t// in\n    tag_212:\n        /* \"Staking/staking.sol\":3570:3602  stakes[StakeIdCounter.current()] */\n      dup2\n      mstore\n      0x20\n      add\n      swap1\n      dup2\n      mstore\n      0x20\n      add\n      0x00\n      keccak256\n        /* \"Staking/staking.sol\":3570:3610  stakes[StakeIdCounter.current()].expired */\n      0x03\n      add\n      0x00\n        /* \"Staking/staking.sol\":3570:3618  stakes[StakeIdCounter.current()].expired = false */\n      0x0100\n      exp\n      dup2\n      sload\n      dup2\n      0xff\n      mul\n      not\n      and\n      swap1\n      dup4\n      iszero\n      iszero\n      mul\n      or\n      swap1\n      sstore\n      pop\n        /* \"Staking/staking.sol\":3636:3660  StakeIdCounter.current() */\n      tag_213\n        /* \"Staking/staking.sol\":3636:3650  StakeIdCounter */\n      0x00\n        /* \"Staking/staking.sol\":3636:3658  StakeIdCounter.current */\n      tag_98\n        /* \"Staking/staking.sol\":3636:3660  StakeIdCounter.current() */\n      jump\t// in\n    tag_213:\n        /* \"Staking/staking.sol\":3629:3660  return StakeIdCounter.current() */\n      swap2\n      pop\n      pop\n        /* \"Staking/staking.sol\":2107:3667  function Stake(uint256 _numTokens, uint256 tarrif) external returns (uint256) {... */\n      swap3\n      swap2\n      pop\n      pop\n      jump\t// out\n        /* \"Staking/staking.sol\":7257:8065  function claimReward(address user) public {... */\n    tag_72:\n        /* \"Staking/staking.sol\":7411:7414  120 */\n      0x78\n        /* \"Staking/staking.sol\":7394:7409  block.timestamp */\n      timestamp\n        /* \"Staking/staking.sol\":7374:7393  lastRewardClaimTime */\n      sload(0x04)\n        /* \"Staking/staking.sol\":7374:7409  lastRewardClaimTime-block.timestamp */\n      tag_215\n      swap2\n      swap1\n      tag_91\n      jump\t// in\n    tag_215:\n        /* \"Staking/staking.sol\":7373:7414  (lastRewardClaimTime-block.timestamp)>120 */\n      gt\n        /* \"Staking/staking.sol\":7365:7431  require((lastRewardClaimTime-block.timestamp)>120,\"Cooldown Time\") */\n      tag_216\n      jumpi\n      mload(0x40)\n      0x08c379a000000000000000000000000000000000000000000000000000000000\n      dup2\n      mstore\n      0x04\n      add\n      tag_217\n      swap1\n      tag_218\n      jump\t// in\n    tag_217:\n      mload(0x40)\n      dup1\n      swap2\n      sub\n      swap1\n      revert\n    tag_216:\n        /* \"Staking/staking.sol\":7461:7476  block.timestamp */\n      timestamp\n        /* \"Staking/staking.sol\":7441:7460  lastRewardClaimTime */\n      0x04\n        /* \"Staking/staking.sol\":7441:7476  lastRewardClaimTime=block.timestamp */\n      dup2\n      swap1\n      sstore\n      pop\n        /* \"Staking/staking.sol\":7486:7510  uint256[] memory userids */\n      0x00\n        /* \"Staking/staking.sol\":7513:7525  getIds(user) */\n      tag_219\n        /* \"Staking/staking.sol\":7520:7524  user */\n      dup3\n        /* \"Staking/staking.sol\":7513:7519  getIds */\n      tag_40\n        /* \"Staking/staking.sol\":7513:7525  getIds(user) */\n      jump\t// in\n    tag_219:\n        /* \"Staking/staking.sol\":7486:7525  uint256[] memory userids = getIds(user) */\n      swap1\n      pop\n        /* \"Staking/staking.sol\":7560:7561  0 */\n      0x00\n        /* \"Staking/staking.sol\":7543:7550  userids */\n      dup2\n        /* \"Staking/staking.sol\":7543:7557  userids.length */\n      mload\n        /* \"Staking/staking.sol\":7543:7561  userids.length > 0 */\n      gt\n        /* \"Staking/staking.sol\":7535:7595  require(userids.length > 0, \"You haven't staked any amount\") */\n      tag_220\n      jumpi\n      mload(0x40)\n      0x08c379a000000000000000000000000000000000000000000000000000000000\n      dup2\n      mstore\n      0x04\n      add\n      tag_221\n      swap1\n      tag_222\n      jump\t// in\n    tag_221:\n      mload(0x40)\n      dup1\n      swap2\n      sub\n      swap1\n      revert\n    tag_220:\n        /* \"Staking/staking.sol\":7687:7696  uint256 i */\n      0x00\n        /* \"Staking/staking.sol\":7682:7842  for (uint256 i = 0; i < userids.length; i++) {... */\n    tag_223:\n        /* \"Staking/staking.sol\":7706:7713  userids */\n      dup2\n        /* \"Staking/staking.sol\":7706:7720  userids.length */\n      mload\n        /* \"Staking/staking.sol\":7702:7703  i */\n      dup2\n        /* \"Staking/staking.sol\":7702:7720  i < userids.length */\n      lt\n        /* \"Staking/staking.sol\":7682:7842  for (uint256 i = 0; i < userids.length; i++) {... */\n      iszero\n      tag_224\n      jumpi\n        /* \"Staking/staking.sol\":7746:7752  stakes */\n      0x06\n        /* \"Staking/staking.sol\":7746:7764  stakes[userids[i]] */\n      0x00\n        /* \"Staking/staking.sol\":7753:7760  userids */\n      dup4\n        /* \"Staking/staking.sol\":7761:7762  i */\n      dup4\n        /* \"Staking/staking.sol\":7753:7763  userids[i] */\n      dup2\n      mload\n      dup2\n      lt\n      tag_226\n      jumpi\n      tag_227\n      tag_114\n      jump\t// in\n    tag_227:\n    tag_226:\n      0x20\n      mul\n      0x20\n      add\n      add\n      mload\n        /* \"Staking/staking.sol\":7746:7764  stakes[userids[i]] */\n      dup2\n      mstore\n      0x20\n      add\n      swap1\n      dup2\n      mstore\n      0x20\n      add\n      0x00\n      keccak256\n        /* \"Staking/staking.sol\":7746:7772  stakes[userids[i]].expired */\n      0x03\n      add\n      0x00\n      swap1\n      sload\n      swap1\n      0x0100\n      exp\n      swap1\n      div\n      0xff\n      and\n        /* \"Staking/staking.sol\":7741:7832  if (!stakes[userids[i]].expired) {... */\n      tag_228\n      jumpi\n        /* \"Staking/staking.sol\":7792:7817  genrateReward(userids[i]) */\n      tag_229\n        /* \"Staking/staking.sol\":7806:7813  userids */\n      dup3\n        /* \"Staking/staking.sol\":7814:7815  i */\n      dup3\n        /* \"Staking/staking.sol\":7806:7816  userids[i] */\n      dup2\n      mload\n      dup2\n      lt\n      tag_230\n      jumpi\n      tag_231\n      tag_114\n      jump\t// in\n    tag_231:\n    tag_230:\n      0x20\n      mul\n      0x20\n      add\n      add\n      mload\n        /* \"Staking/staking.sol\":7792:7805  genrateReward */\n      tag_83\n        /* \"Staking/staking.sol\":7792:7817  genrateReward(userids[i]) */\n      jump\t// in\n    tag_229:\n        /* \"Staking/staking.sol\":7741:7832  if (!stakes[userids[i]].expired) {... */\n    tag_228:\n        /* \"Staking/staking.sol\":7722:7725  i++ */\n      dup1\n      dup1\n      tag_232\n      swap1\n      tag_101\n      jump\t// in\n    tag_232:\n      swap2\n      pop\n      pop\n        /* \"Staking/staking.sol\":7682:7842  for (uint256 i = 0; i < userids.length; i++) {... */\n      jump(tag_223)\n    tag_224:\n      pop\n        /* \"Staking/staking.sol\":7956:7957  0 */\n      0x00\n        /* \"Staking/staking.sol\":7940:7947  rewards */\n      0x07\n        /* \"Staking/staking.sol\":7940:7953  rewards[user] */\n      0x00\n        /* \"Staking/staking.sol\":7948:7952  user */\n      dup5\n        /* \"Staking/staking.sol\":7940:7953  rewards[user] */\n      0xffffffffffffffffffffffffffffffffffffffff\n      and\n      0xffffffffffffffffffffffffffffffffffffffff\n      and\n      dup2\n      mstore\n      0x20\n      add\n      swap1\n      dup2\n      mstore\n      0x20\n      add\n      0x00\n      keccak256\n      sload\n        /* \"Staking/staking.sol\":7940:7957  rewards[user] > 0 */\n      gt\n        /* \"Staking/staking.sol\":7932:7980  require(rewards[user] > 0, \"No reward to claim\") */\n      tag_233\n      jumpi\n      mload(0x40)\n      0x08c379a000000000000000000000000000000000000000000000000000000000\n      dup2\n      mstore\n      0x04\n      add\n      tag_234\n      swap1\n      tag_235\n      jump\t// in\n    tag_234:\n      mload(0x40)\n      dup1\n      swap2\n      sub\n      swap1\n      revert\n    tag_233:\n        /* \"Staking/staking.sol\":7990:7995  token */\n      0x01\n      0x00\n      swap1\n      sload\n      swap1\n      0x0100\n      exp\n      swap1\n      div\n      0xffffffffffffffffffffffffffffffffffffffff\n      and\n        /* \"Staking/staking.sol\":7990:8004  token.transfer */\n      0xffffffffffffffffffffffffffffffffffffffff\n      and\n      0xa9059cbb\n        /* \"Staking/staking.sol\":8005:8015  msg.sender */\n      caller\n        /* \"Staking/staking.sol\":8017:8024  rewards */\n      0x07\n        /* \"Staking/staking.sol\":8017:8030  rewards[user] */\n      0x00\n        /* \"Staking/staking.sol\":8025:8029  user */\n      dup7\n        /* \"Staking/staking.sol\":8017:8030  rewards[user] */\n      0xffffffffffffffffffffffffffffffffffffffff\n      and\n      0xffffffffffffffffffffffffffffffffffffffff\n      and\n      dup2\n      mstore\n      0x20\n      add\n      swap1\n      dup2\n      mstore\n      0x20\n      add\n      0x00\n      keccak256\n      sload\n        /* \"Staking/staking.sol\":7990:8031  token.transfer(msg.sender, rewards[user]) */\n      mload(0x40)\n      dup4\n      0xffffffff\n      and\n      0xe0\n      shl\n      dup2\n      mstore\n      0x04\n      add\n      tag_236\n      swap3\n      swap2\n      swap1\n      tag_131\n      jump\t// in\n    tag_236:\n      0x20\n      mload(0x40)\n      dup1\n      dup4\n      sub\n      dup2\n      0x00\n      dup8\n      gas\n      call\n      iszero\n      dup1\n      iszero\n      tag_238\n      jumpi\n      returndatasize\n      0x00\n      dup1\n      returndatacopy\n      revert(0x00, returndatasize)\n    tag_238:\n      pop\n      pop\n      pop\n      pop\n      mload(0x40)\n      returndatasize\n      not(0x1f)\n      0x1f\n      dup3\n      add\n      and\n      dup3\n      add\n      dup1\n      0x40\n      mstore\n      pop\n      dup2\n      add\n      swap1\n      tag_239\n      swap2\n      swap1\n      tag_135\n      jump\t// in\n    tag_239:\n      pop\n        /* \"Staking/staking.sol\":8057:8058  0 */\n      0x00\n        /* \"Staking/staking.sol\":8041:8048  rewards */\n      0x07\n        /* \"Staking/staking.sol\":8041:8054  rewards[user] */\n      0x00\n        /* \"Staking/staking.sol\":8049:8053  user */\n      dup5\n        /* \"Staking/staking.sol\":8041:8054  rewards[user] */\n      0xffffffffffffffffffffffffffffffffffffffff\n      and\n      0xffffffffffffffffffffffffffffffffffffffff\n      and\n      dup2\n      mstore\n      0x20\n      add\n      swap1\n      dup2\n      mstore\n      0x20\n      add\n      0x00\n      keccak256\n        /* \"Staking/staking.sol\":8041:8058  rewards[user] = 0 */\n      dup2\n      swap1\n      sstore\n      pop\n        /* \"Staking/staking.sol\":7299:8065  {... */\n      pop\n        /* \"Staking/staking.sol\":7257:8065  function claimReward(address user) public {... */\n      pop\n      jump\t// out\n        /* \"Staking/staking.sol\":1228:1273  mapping(uint256 => StakingInfo) public stakes */\n    tag_75:\n      mstore(0x20, 0x06)\n      dup1\n      0x00\n      mstore\n      keccak256(0x00, 0x40)\n      0x00\n      swap2\n      pop\n      swap1\n      pop\n      dup1\n      0x00\n      add\n      sload\n      swap1\n      dup1\n      0x01\n      add\n      sload\n      swap1\n      dup1\n      0x02\n      add\n      sload\n      swap1\n      dup1\n      0x03\n      add\n      0x00\n      swap1\n      sload\n      swap1\n      0x0100\n      exp\n      swap1\n      div\n      0xff\n      and\n      swap1\n      pop\n      dup5\n      jump\t// out\n        /* \"Staking/staking.sol\":5842:5934  function CurrentTime() public view returns (uint256) {... */\n    tag_79:\n        /* \"Staking/staking.sol\":5886:5893  uint256 */\n      0x00\n        /* \"Staking/staking.sol\":5912:5927  block.timestamp */\n      timestamp\n        /* \"Staking/staking.sol\":5905:5927  return block.timestamp */\n      swap1\n      pop\n        /* \"Staking/staking.sol\":5842:5934  function CurrentTime() public view returns (uint256) {... */\n      swap1\n      jump\t// out\n        /* \"Staking/staking.sol\":6366:6909  function genrateReward(uint256 id) public {... */\n    tag_83:\n        /* \"Staking/staking.sol\":6418:6438  uint256 current_time */\n      0x00\n        /* \"Staking/staking.sol\":6441:6456  block.timestamp */\n      timestamp\n        /* \"Staking/staking.sol\":6418:6456  uint256 current_time = block.timestamp */\n      swap1\n      pop\n        /* \"Staking/staking.sol\":6466:6489  uint256 stakingDuration */\n      0x00\n        /* \"Staking/staking.sol\":6507:6513  stakes */\n      0x06\n        /* \"Staking/staking.sol\":6507:6517  stakes[id] */\n      0x00\n        /* \"Staking/staking.sol\":6514:6516  id */\n      dup5\n        /* \"Staking/staking.sol\":6507:6517  stakes[id] */\n      dup2\n      mstore\n      0x20\n      add\n      swap1\n      dup2\n      mstore\n      0x20\n      add\n      0x00\n      keccak256\n        /* \"Staking/staking.sol\":6507:6528  stakes[id].StakedTime */\n      0x01\n      add\n      sload\n        /* \"Staking/staking.sol\":6492:6504  current_time */\n      dup3\n        /* \"Staking/staking.sol\":6492:6528  current_time - stakes[id].StakedTime */\n      tag_242\n      swap2\n      swap1\n      tag_91\n      jump\t// in\n    tag_242:\n        /* \"Staking/staking.sol\":6466:6528  uint256 stakingDuration = current_time - stakes[id].StakedTime */\n      swap1\n      pop\n        /* \"Staking/staking.sol\":6538:6550  uint256 time */\n      0x00\n        /* \"Staking/staking.sol\":6553:6594  min(stakingDuration, stakes[id].duration) */\n      tag_243\n        /* \"Staking/staking.sol\":6557:6572  stakingDuration */\n      dup3\n        /* \"Staking/staking.sol\":6574:6580  stakes */\n      0x06\n        /* \"Staking/staking.sol\":6574:6584  stakes[id] */\n      0x00\n        /* \"Staking/staking.sol\":6581:6583  id */\n      dup8\n        /* \"Staking/staking.sol\":6574:6584  stakes[id] */\n      dup2\n      mstore\n      0x20\n      add\n      swap1\n      dup2\n      mstore\n      0x20\n      add\n      0x00\n      keccak256\n        /* \"Staking/staking.sol\":6574:6593  stakes[id].duration */\n      0x02\n      add\n      sload\n        /* \"Staking/staking.sol\":6553:6556  min */\n      tag_244\n        /* \"Staking/staking.sol\":6553:6594  min(stakingDuration, stakes[id].duration) */\n      jump\t// in\n    tag_243:\n        /* \"Staking/staking.sol\":6538:6594  uint256 time = min(stakingDuration, stakes[id].duration) */\n      swap1\n      pop\n        /* \"Staking/staking.sol\":6795:6798  100 */\n      0x64\n        /* \"Staking/staking.sol\":6787:6791  time */\n      dup2\n        /* \"Staking/staking.sol\":6776:6784  interest */\n      sload(0x03)\n        /* \"Staking/staking.sol\":6750:6756  stakes */\n      0x06\n        /* \"Staking/staking.sol\":6750:6760  stakes[id] */\n      0x00\n        /* \"Staking/staking.sol\":6757:6759  id */\n      dup9\n        /* \"Staking/staking.sol\":6750:6760  stakes[id] */\n      dup2\n      mstore\n      0x20\n      add\n      swap1\n      dup2\n      mstore\n      0x20\n      add\n      0x00\n      keccak256\n        /* \"Staking/staking.sol\":6750:6773  stakes[id].StakedAmount */\n      0x00\n      add\n      sload\n        /* \"Staking/staking.sol\":6750:6784  stakes[id].StakedAmount * interest */\n      tag_245\n      swap2\n      swap1\n      tag_210\n      jump\t// in\n    tag_245:\n        /* \"Staking/staking.sol\":6750:6791  stakes[id].StakedAmount * interest * time */\n      tag_246\n      swap2\n      swap1\n      tag_210\n      jump\t// in\n    tag_246:\n        /* \"Staking/staking.sol\":6749:6798  (stakes[id].StakedAmount * interest * time) / 100 */\n      tag_247\n      swap2\n      swap1\n      tag_248\n      jump\t// in\n    tag_247:\n        /* \"Staking/staking.sol\":6721:6728  rewards */\n      0x07\n        /* \"Staking/staking.sol\":6721:6746  rewards[stakingOwner[id]] */\n      0x00\n        /* \"Staking/staking.sol\":6729:6741  stakingOwner */\n      0x05\n        /* \"Staking/staking.sol\":6729:6745  stakingOwner[id] */\n      0x00\n        /* \"Staking/staking.sol\":6742:6744  id */\n      dup9\n        /* \"Staking/staking.sol\":6729:6745  stakingOwner[id] */\n      dup2\n      mstore\n      0x20\n      add\n      swap1\n      dup2\n      mstore\n      0x20\n      add\n      0x00\n      keccak256\n      0x00\n      swap1\n      sload\n      swap1\n      0x0100\n      exp\n      swap1\n      div\n      0xffffffffffffffffffffffffffffffffffffffff\n      and\n        /* \"Staking/staking.sol\":6721:6746  rewards[stakingOwner[id]] */\n      0xffffffffffffffffffffffffffffffffffffffff\n      and\n      0xffffffffffffffffffffffffffffffffffffffff\n      and\n      dup2\n      mstore\n      0x20\n      add\n      swap1\n      dup2\n      mstore\n      0x20\n      add\n      0x00\n      keccak256\n      sload\n        /* \"Staking/staking.sol\":6721:6798  rewards[stakingOwner[id]] + (stakes[id].StakedAmount * interest * time) / 100 */\n      tag_249\n      swap2\n      swap1\n      tag_207\n      jump\t// in\n    tag_249:\n        /* \"Staking/staking.sol\":6693:6700  rewards */\n      0x07\n        /* \"Staking/staking.sol\":6693:6718  rewards[stakingOwner[id]] */\n      0x00\n        /* \"Staking/staking.sol\":6701:6713  stakingOwner */\n      0x05\n        /* \"Staking/staking.sol\":6701:6717  stakingOwner[id] */\n      0x00\n        /* \"Staking/staking.sol\":6714:6716  id */\n      dup9\n        /* \"Staking/staking.sol\":6701:6717  stakingOwner[id] */\n      dup2\n      mstore\n      0x20\n      add\n      swap1\n      dup2\n      mstore\n      0x20\n      add\n      0x00\n      keccak256\n      0x00\n      swap1\n      sload\n      swap1\n      0x0100\n      exp\n      swap1\n      div\n      0xffffffffffffffffffffffffffffffffffffffff\n      and\n        /* \"Staking/staking.sol\":6693:6718  rewards[stakingOwner[id]] */\n      0xffffffffffffffffffffffffffffffffffffffff\n      and\n      0xffffffffffffffffffffffffffffffffffffffff\n      and\n      dup2\n      mstore\n      0x20\n      add\n      swap1\n      dup2\n      mstore\n      0x20\n      add\n      0x00\n      keccak256\n        /* \"Staking/staking.sol\":6693:6798  rewards[stakingOwner[id]] = rewards[stakingOwner[id]] + (stakes[id].StakedAmount * interest * time) / 100 */\n      dup2\n      swap1\n      sstore\n      pop\n        /* \"Staking/staking.sol\":6832:6844  current_time */\n      dup3\n        /* \"Staking/staking.sol\":6808:6814  stakes */\n      0x06\n        /* \"Staking/staking.sol\":6808:6818  stakes[id] */\n      0x00\n        /* \"Staking/staking.sol\":6815:6817  id */\n      dup7\n        /* \"Staking/staking.sol\":6808:6818  stakes[id] */\n      dup2\n      mstore\n      0x20\n      add\n      swap1\n      dup2\n      mstore\n      0x20\n      add\n      0x00\n      keccak256\n        /* \"Staking/staking.sol\":6808:6829  stakes[id].StakedTime */\n      0x01\n      add\n        /* \"Staking/staking.sol\":6808:6844  stakes[id].StakedTime = current_time */\n      dup2\n      swap1\n      sstore\n      pop\n        /* \"Staking/staking.sol\":6898:6902  time */\n      dup1\n        /* \"Staking/staking.sol\":6876:6882  stakes */\n      0x06\n        /* \"Staking/staking.sol\":6876:6886  stakes[id] */\n      0x00\n        /* \"Staking/staking.sol\":6883:6885  id */\n      dup7\n        /* \"Staking/staking.sol\":6876:6886  stakes[id] */\n      dup2\n      mstore\n      0x20\n      add\n      swap1\n      dup2\n      mstore\n      0x20\n      add\n      0x00\n      keccak256\n        /* \"Staking/staking.sol\":6876:6895  stakes[id].duration */\n      0x02\n      add\n      sload\n        /* \"Staking/staking.sol\":6876:6902  stakes[id].duration - time */\n      tag_250\n      swap2\n      swap1\n      tag_91\n      jump\t// in\n    tag_250:\n        /* \"Staking/staking.sol\":6854:6860  stakes */\n      0x06\n        /* \"Staking/staking.sol\":6854:6864  stakes[id] */\n      0x00\n        /* \"Staking/staking.sol\":6861:6863  id */\n      dup7\n        /* \"Staking/staking.sol\":6854:6864  stakes[id] */\n      dup2\n      mstore\n      0x20\n      add\n      swap1\n      dup2\n      mstore\n      0x20\n      add\n      0x00\n      keccak256\n        /* \"Staking/staking.sol\":6854:6873  stakes[id].duration */\n      0x02\n      add\n        /* \"Staking/staking.sol\":6854:6902  stakes[id].duration = stakes[id].duration - time */\n      dup2\n      swap1\n      sstore\n      pop\n        /* \"Staking/staking.sol\":6408:6909  {... */\n      pop\n      pop\n      pop\n        /* \"Staking/staking.sol\":6366:6909  function genrateReward(uint256 id) public {... */\n      pop\n      jump\t// out\n        /* \"Staking/staking.sol\":869:888  IERC20 public token */\n    tag_85:\n      0x01\n      0x00\n      swap1\n      sload\n      swap1\n      0x0100\n      exp\n      swap1\n      div\n      0xffffffffffffffffffffffffffffffffffffffff\n      and\n      dup2\n      jump\t// out\n        /* \"@openzeppelin/contracts/utils/Counters.sol\":827:939  function current(Counter storage counter) internal view returns (uint256) {... */\n    tag_98:\n        /* \"@openzeppelin/contracts/utils/Counters.sol\":892:899  uint256 */\n      0x00\n        /* \"@openzeppelin/contracts/utils/Counters.sol\":918:925  counter */\n      dup2\n        /* \"@openzeppelin/contracts/utils/Counters.sol\":918:932  counter._value */\n      0x00\n      add\n      sload\n        /* \"@openzeppelin/contracts/utils/Counters.sol\":911:932  return counter._value */\n      swap1\n      pop\n        /* \"@openzeppelin/contracts/utils/Counters.sol\":827:939  function current(Counter storage counter) internal view returns (uint256) {... */\n      swap2\n      swap1\n      pop\n      jump\t// out\n        /* \"@openzeppelin/contracts/utils/Counters.sol\":945:1068  function increment(Counter storage counter) internal {... */\n    tag_178:\n        /* \"@openzeppelin/contracts/utils/Counters.sol\":1050:1051  1 */\n      0x01\n        /* \"@openzeppelin/contracts/utils/Counters.sol\":1032:1039  counter */\n      dup2\n        /* \"@openzeppelin/contracts/utils/Counters.sol\":1032:1046  counter._value */\n      0x00\n      add\n      0x00\n        /* \"@openzeppelin/contracts/utils/Counters.sol\":1032:1051  counter._value += 1 */\n      dup3\n      dup3\n      sload\n      add\n      swap3\n      pop\n      pop\n      dup2\n      swap1\n      sstore\n      pop\n        /* \"@openzeppelin/contracts/utils/Counters.sol\":945:1068  function increment(Counter storage counter) internal {... */\n      pop\n      jump\t// out\n        /* \"Staking/staking.sol\":6030:6134  function min(uint256 a, uint256 b) internal pure returns (uint256) {... */\n    tag_244:\n        /* \"Staking/staking.sol\":6088:6095  uint256 */\n      0x00\n        /* \"Staking/staking.sol\":6118:6119  b */\n      dup2\n        /* \"Staking/staking.sol\":6114:6115  a */\n      dup4\n        /* \"Staking/staking.sol\":6114:6119  a < b */\n      lt\n        /* \"Staking/staking.sol\":6114:6127  a < b ? a : b */\n      tag_254\n      jumpi\n        /* \"Staking/staking.sol\":6126:6127  b */\n      dup2\n        /* \"Staking/staking.sol\":6114:6127  a < b ? a : b */\n      jump(tag_255)\n    tag_254:\n        /* \"Staking/staking.sol\":6122:6123  a */\n      dup3\n        /* \"Staking/staking.sol\":6114:6127  a < b ? a : b */\n    tag_255:\n        /* \"Staking/staking.sol\":6107:6127  return a < b ? a : b */\n      swap1\n      pop\n        /* \"Staking/staking.sol\":6030:6134  function min(uint256 a, uint256 b) internal pure returns (uint256) {... */\n      swap3\n      swap2\n      pop\n      pop\n      jump\t// out\n    tag_160:\n      mload(0x40)\n      dup1\n      0x80\n      add\n      0x40\n      mstore\n      dup1\n      0x00\n      dup2\n      mstore\n      0x20\n      add\n      0x00\n      dup2\n      mstore\n      0x20\n      add\n      0x00\n      dup2\n      mstore\n      0x20\n      add\n      iszero(iszero(0x00))\n      dup2\n      mstore\n      pop\n      swap1\n      jump\t// out\n        /* \"#utility.yul\":88:205   */\n    tag_257:\n        /* \"#utility.yul\":197:198   */\n      0x00\n        /* \"#utility.yul\":194:195   */\n      dup1\n        /* \"#utility.yul\":187:199   */\n      revert\n        /* \"#utility.yul\":334:460   */\n    tag_259:\n        /* \"#utility.yul\":371:378   */\n      0x00\n        /* \"#utility.yul\":411:453   */\n      0xffffffffffffffffffffffffffffffffffffffff\n        /* \"#utility.yul\":404:409   */\n      dup3\n        /* \"#utility.yul\":400:454   */\n      and\n        /* \"#utility.yul\":389:454   */\n      swap1\n      pop\n        /* \"#utility.yul\":334:460   */\n      swap2\n      swap1\n      pop\n      jump\t// out\n        /* \"#utility.yul\":466:562   */\n    tag_260:\n        /* \"#utility.yul\":503:510   */\n      0x00\n        /* \"#utility.yul\":532:556   */\n      tag_318\n        /* \"#utility.yul\":550:555   */\n      dup3\n        /* \"#utility.yul\":532:556   */\n      tag_259\n      jump\t// in\n    tag_318:\n        /* \"#utility.yul\":521:556   */\n      swap1\n      pop\n        /* \"#utility.yul\":466:562   */\n      swap2\n      swap1\n      pop\n      jump\t// out\n        /* \"#utility.yul\":568:690   */\n    tag_261:\n        /* \"#utility.yul\":641:665   */\n      tag_320\n        /* \"#utility.yul\":659:664   */\n      dup2\n        /* \"#utility.yul\":641:665   */\n      tag_260\n      jump\t// in\n    tag_320:\n        /* \"#utility.yul\":634:639   */\n      dup2\n        /* \"#utility.yul\":631:666   */\n      eq\n        /* \"#utility.yul\":621:684   */\n      tag_321\n      jumpi\n        /* \"#utility.yul\":680:681   */\n      0x00\n        /* \"#utility.yul\":677:678   */\n      dup1\n        /* \"#utility.yul\":670:682   */\n      revert\n        /* \"#utility.yul\":621:684   */\n    tag_321:\n        /* \"#utility.yul\":568:690   */\n      pop\n      jump\t// out\n        /* \"#utility.yul\":696:835   */\n    tag_262:\n        /* \"#utility.yul\":742:747   */\n      0x00\n        /* \"#utility.yul\":780:786   */\n      dup2\n        /* \"#utility.yul\":767:787   */\n      calldataload\n        /* \"#utility.yul\":758:787   */\n      swap1\n      pop\n        /* \"#utility.yul\":796:829   */\n      tag_323\n        /* \"#utility.yul\":823:828   */\n      dup2\n        /* \"#utility.yul\":796:829   */\n      tag_261\n      jump\t// in\n    tag_323:\n        /* \"#utility.yul\":696:835   */\n      swap3\n      swap2\n      pop\n      pop\n      jump\t// out\n        /* \"#utility.yul\":841:1170   */\n    tag_24:\n        /* \"#utility.yul\":900:906   */\n      0x00\n        /* \"#utility.yul\":949:951   */\n      0x20\n        /* \"#utility.yul\":937:946   */\n      dup3\n        /* \"#utility.yul\":928:935   */\n      dup5\n        /* \"#utility.yul\":924:947   */\n      sub\n        /* \"#utility.yul\":920:952   */\n      slt\n        /* \"#utility.yul\":917:1036   */\n      iszero\n      tag_325\n      jumpi\n        /* \"#utility.yul\":955:1034   */\n      tag_326\n      tag_257\n      jump\t// in\n    tag_326:\n        /* \"#utility.yul\":917:1036   */\n    tag_325:\n        /* \"#utility.yul\":1075:1076   */\n      0x00\n        /* \"#utility.yul\":1100:1153   */\n      tag_327\n        /* \"#utility.yul\":1145:1152   */\n      dup5\n        /* \"#utility.yul\":1136:1142   */\n      dup3\n        /* \"#utility.yul\":1125:1134   */\n      dup6\n        /* \"#utility.yul\":1121:1143   */\n      add\n        /* \"#utility.yul\":1100:1153   */\n      tag_262\n      jump\t// in\n    tag_327:\n        /* \"#utility.yul\":1090:1153   */\n      swap2\n      pop\n        /* \"#utility.yul\":1046:1163   */\n      pop\n        /* \"#utility.yul\":841:1170   */\n      swap3\n      swap2\n      pop\n      pop\n      jump\t// out\n        /* \"#utility.yul\":1176:1266   */\n    tag_263:\n        /* \"#utility.yul\":1210:1217   */\n      0x00\n        /* \"#utility.yul\":1253:1258   */\n      dup2\n        /* \"#utility.yul\":1246:1259   */\n      iszero\n        /* \"#utility.yul\":1239:1260   */\n      iszero\n        /* \"#utility.yul\":1228:1260   */\n      swap1\n      pop\n        /* \"#utility.yul\":1176:1266   */\n      swap2\n      swap1\n      pop\n      jump\t// out\n        /* \"#utility.yul\":1272:1381   */\n    tag_264:\n        /* \"#utility.yul\":1353:1374   */\n      tag_330\n        /* \"#utility.yul\":1368:1373   */\n      dup2\n        /* \"#utility.yul\":1353:1374   */\n      tag_263\n      jump\t// in\n    tag_330:\n        /* \"#utility.yul\":1348:1351   */\n      dup3\n        /* \"#utility.yul\":1341:1375   */\n      mstore\n        /* \"#utility.yul\":1272:1381   */\n      pop\n      pop\n      jump\t// out\n        /* \"#utility.yul\":1387:1597   */\n    tag_27:\n        /* \"#utility.yul\":1474:1478   */\n      0x00\n        /* \"#utility.yul\":1512:1514   */\n      0x20\n        /* \"#utility.yul\":1501:1510   */\n      dup3\n        /* \"#utility.yul\":1497:1515   */\n      add\n        /* \"#utility.yul\":1489:1515   */\n      swap1\n      pop\n        /* \"#utility.yul\":1525:1590   */\n      tag_332\n        /* \"#utility.yul\":1587:1588   */\n      0x00\n        /* \"#utility.yul\":1576:1585   */\n      dup4\n        /* \"#utility.yul\":1572:1589   */\n      add\n        /* \"#utility.yul\":1563:1569   */\n      dup5\n        /* \"#utility.yul\":1525:1590   */\n      tag_264\n      jump\t// in\n    tag_332:\n        /* \"#utility.yul\":1387:1597   */\n      swap3\n      swap2\n      pop\n      pop\n      jump\t// out\n        /* \"#utility.yul\":1603:1680   */\n    tag_265:\n        /* \"#utility.yul\":1640:1647   */\n      0x00\n        /* \"#utility.yul\":1669:1674   */\n      dup2\n        /* \"#utility.yul\":1658:1674   */\n      swap1\n      pop\n        /* \"#utility.yul\":1603:1680   */\n      swap2\n      swap1\n      pop\n      jump\t// out\n        /* \"#utility.yul\":1686:1804   */\n    tag_266:\n        /* \"#utility.yul\":1773:1797   */\n      tag_335\n        /* \"#utility.yul\":1791:1796   */\n      dup2\n        /* \"#utility.yul\":1773:1797   */\n      tag_265\n      jump\t// in\n    tag_335:\n        /* \"#utility.yul\":1768:1771   */\n      dup3\n        /* \"#utility.yul\":1761:1798   */\n      mstore\n        /* \"#utility.yul\":1686:1804   */\n      pop\n      pop\n      jump\t// out\n        /* \"#utility.yul\":1810:2032   */\n    tag_32:\n        /* \"#utility.yul\":1903:1907   */\n      0x00\n        /* \"#utility.yul\":1941:1943   */\n      0x20\n        /* \"#utility.yul\":1930:1939   */\n      dup3\n        /* \"#utility.yul\":1926:1944   */\n      add\n        /* \"#utility.yul\":1918:1944   */\n      swap1\n      pop\n        /* \"#utility.yul\":1954:2025   */\n      tag_337\n        /* \"#utility.yul\":2022:2023   */\n      0x00\n        /* \"#utility.yul\":2011:2020   */\n      dup4\n        /* \"#utility.yul\":2007:2024   */\n      add\n        /* \"#utility.yul\":1998:2004   */\n      dup5\n        /* \"#utility.yul\":1954:2025   */\n      tag_266\n      jump\t// in\n    tag_337:\n        /* \"#utility.yul\":1810:2032   */\n      swap3\n      swap2\n      pop\n      pop\n      jump\t// out\n        /* \"#utility.yul\":2038:2160   */\n    tag_267:\n        /* \"#utility.yul\":2111:2135   */\n      tag_339\n        /* \"#utility.yul\":2129:2134   */\n      dup2\n        /* \"#utility.yul\":2111:2135   */\n      tag_265\n      jump\t// in\n    tag_339:\n        /* \"#utility.yul\":2104:2109   */\n      dup2\n        /* \"#utility.yul\":2101:2136   */\n      eq\n        /* \"#utility.yul\":2091:2154   */\n      tag_340\n      jumpi\n        /* \"#utility.yul\":2150:2151   */\n      0x00\n        /* \"#utility.yul\":2147:2148   */\n      dup1\n        /* \"#utility.yul\":2140:2152   */\n      revert\n        /* \"#utility.yul\":2091:2154   */\n    tag_340:\n        /* \"#utility.yul\":2038:2160   */\n      pop\n      jump\t// out\n        /* \"#utility.yul\":2166:2305   */\n    tag_268:\n        /* \"#utility.yul\":2212:2217   */\n      0x00\n        /* \"#utility.yul\":2250:2256   */\n      dup2\n        /* \"#utility.yul\":2237:2257   */\n      calldataload\n        /* \"#utility.yul\":2228:2257   */\n      swap1\n      pop\n        /* \"#utility.yul\":2266:2299   */\n      tag_342\n        /* \"#utility.yul\":2293:2298   */\n      dup2\n        /* \"#utility.yul\":2266:2299   */\n      tag_267\n      jump\t// in\n    tag_342:\n        /* \"#utility.yul\":2166:2305   */\n      swap3\n      swap2\n      pop\n      pop\n      jump\t// out\n        /* \"#utility.yul\":2311:2640   */\n    tag_35:\n        /* \"#utility.yul\":2370:2376   */\n      0x00\n        /* \"#utility.yul\":2419:2421   */\n      0x20\n        /* \"#utility.yul\":2407:2416   */\n      dup3\n        /* \"#utility.yul\":2398:2405   */\n      dup5\n        /* \"#utility.yul\":2394:2417   */\n      sub\n        /* \"#utility.yul\":2390:2422   */\n      slt\n        /* \"#utility.yul\":2387:2506   */\n      iszero\n      tag_344\n      jumpi\n        /* \"#utility.yul\":2425:2504   */\n      tag_345\n      tag_257\n      jump\t// in\n    tag_345:\n        /* \"#utility.yul\":2387:2506   */\n    tag_344:\n        /* \"#utility.yul\":2545:2546   */\n      0x00\n        /* \"#utility.yul\":2570:2623   */\n      tag_346\n        /* \"#utility.yul\":2615:2622   */\n      dup5\n        /* \"#utility.yul\":2606:2612   */\n      dup3\n        /* \"#utility.yul\":2595:2604   */\n      dup6\n        /* \"#utility.yul\":2591:2613   */\n      add\n        /* \"#utility.yul\":2570:2623   */\n      tag_268\n      jump\t// in\n    tag_346:\n        /* \"#utility.yul\":2560:2623   */\n      swap2\n      pop\n        /* \"#utility.yul\":2516:2633   */\n      pop\n        /* \"#utility.yul\":2311:2640   */\n      swap3\n      swap2\n      pop\n      pop\n      jump\t// out\n        /* \"#utility.yul\":2646:2760   */\n    tag_269:\n        /* \"#utility.yul\":2713:2719   */\n      0x00\n        /* \"#utility.yul\":2747:2752   */\n      dup2\n        /* \"#utility.yul\":2741:2753   */\n      mload\n        /* \"#utility.yul\":2731:2753   */\n      swap1\n      pop\n        /* \"#utility.yul\":2646:2760   */\n      swap2\n      swap1\n      pop\n      jump\t// out\n        /* \"#utility.yul\":2766:2950   */\n    tag_270:\n        /* \"#utility.yul\":2865:2876   */\n      0x00\n        /* \"#utility.yul\":2899:2905   */\n      dup3\n        /* \"#utility.yul\":2894:2897   */\n      dup3\n        /* \"#utility.yul\":2887:2906   */\n      mstore\n        /* \"#utility.yul\":2939:2943   */\n      0x20\n        /* \"#utility.yul\":2934:2937   */\n      dup3\n        /* \"#utility.yul\":2930:2944   */\n      add\n        /* \"#utility.yul\":2915:2944   */\n      swap1\n      pop\n        /* \"#utility.yul\":2766:2950   */\n      swap3\n      swap2\n      pop\n      pop\n      jump\t// out\n        /* \"#utility.yul\":2956:3088   */\n    tag_271:\n        /* \"#utility.yul\":3023:3027   */\n      0x00\n        /* \"#utility.yul\":3046:3049   */\n      dup2\n        /* \"#utility.yul\":3038:3049   */\n      swap1\n      pop\n        /* \"#utility.yul\":3076:3080   */\n      0x20\n        /* \"#utility.yul\":3071:3074   */\n      dup3\n        /* \"#utility.yul\":3067:3081   */\n      add\n        /* \"#utility.yul\":3059:3081   */\n      swap1\n      pop\n        /* \"#utility.yul\":2956:3088   */\n      swap2\n      swap1\n      pop\n      jump\t// out\n        /* \"#utility.yul\":3094:3202   */\n    tag_272:\n        /* \"#utility.yul\":3171:3195   */\n      tag_351\n        /* \"#utility.yul\":3189:3194   */\n      dup2\n        /* \"#utility.yul\":3171:3195   */\n      tag_265\n      jump\t// in\n    tag_351:\n        /* \"#utility.yul\":3166:3169   */\n      dup3\n        /* \"#utility.yul\":3159:3196   */\n      mstore\n        /* \"#utility.yul\":3094:3202   */\n      pop\n      pop\n      jump\t// out\n        /* \"#utility.yul\":3208:3387   */\n    tag_273:\n        /* \"#utility.yul\":3277:3287   */\n      0x00\n        /* \"#utility.yul\":3298:3344   */\n      tag_353\n        /* \"#utility.yul\":3340:3343   */\n      dup4\n        /* \"#utility.yul\":3332:3338   */\n      dup4\n        /* \"#utility.yul\":3298:3344   */\n      tag_272\n      jump\t// in\n    tag_353:\n        /* \"#utility.yul\":3376:3380   */\n      0x20\n        /* \"#utility.yul\":3371:3374   */\n      dup4\n        /* \"#utility.yul\":3367:3381   */\n      add\n        /* \"#utility.yul\":3353:3381   */\n      swap1\n      pop\n        /* \"#utility.yul\":3208:3387   */\n      swap3\n      swap2\n      pop\n      pop\n      jump\t// out\n        /* \"#utility.yul\":3393:3506   */\n    tag_274:\n        /* \"#utility.yul\":3463:3467   */\n      0x00\n        /* \"#utility.yul\":3495:3499   */\n      0x20\n        /* \"#utility.yul\":3490:3493   */\n      dup3\n        /* \"#utility.yul\":3486:3500   */\n      add\n        /* \"#utility.yul\":3478:3500   */\n      swap1\n      pop\n        /* \"#utility.yul\":3393:3506   */\n      swap2\n      swap1\n      pop\n      jump\t// out\n        /* \"#utility.yul\":3542:4274   */\n    tag_275:\n        /* \"#utility.yul\":3661:3664   */\n      0x00\n        /* \"#utility.yul\":3690:3744   */\n      tag_356\n        /* \"#utility.yul\":3738:3743   */\n      dup3\n        /* \"#utility.yul\":3690:3744   */\n      tag_269\n      jump\t// in\n    tag_356:\n        /* \"#utility.yul\":3760:3846   */\n      tag_357\n        /* \"#utility.yul\":3839:3845   */\n      dup2\n        /* \"#utility.yul\":3834:3837   */\n      dup6\n        /* \"#utility.yul\":3760:3846   */\n      tag_270\n      jump\t// in\n    tag_357:\n        /* \"#utility.yul\":3753:3846   */\n      swap4\n      pop\n        /* \"#utility.yul\":3870:3926   */\n      tag_358\n        /* \"#utility.yul\":3920:3925   */\n      dup4\n        /* \"#utility.yul\":3870:3926   */\n      tag_271\n      jump\t// in\n    tag_358:\n        /* \"#utility.yul\":3949:3956   */\n      dup1\n        /* \"#utility.yul\":3980:3981   */\n      0x00\n        /* \"#utility.yul\":3965:4249   */\n    tag_359:\n        /* \"#utility.yul\":3990:3996   */\n      dup4\n        /* \"#utility.yul\":3987:3988   */\n      dup2\n        /* \"#utility.yul\":3984:3997   */\n      lt\n        /* \"#utility.yul\":3965:4249   */\n      iszero\n      tag_361\n      jumpi\n        /* \"#utility.yul\":4066:4072   */\n      dup2\n        /* \"#utility.yul\":4060:4073   */\n      mload\n        /* \"#utility.yul\":4093:4156   */\n      tag_362\n        /* \"#utility.yul\":4152:4155   */\n      dup9\n        /* \"#utility.yul\":4137:4150   */\n      dup3\n        /* \"#utility.yul\":4093:4156   */\n      tag_273\n      jump\t// in\n    tag_362:\n        /* \"#utility.yul\":4086:4156   */\n      swap8\n      pop\n        /* \"#utility.yul\":4179:4239   */\n      tag_363\n        /* \"#utility.yul\":4232:4238   */\n      dup4\n        /* \"#utility.yul\":4179:4239   */\n      tag_274\n      jump\t// in\n    tag_363:\n        /* \"#utility.yul\":4169:4239   */\n      swap3\n      pop\n        /* \"#utility.yul\":4025:4249   */\n      pop\n        /* \"#utility.yul\":4012:4013   */\n      0x01\n        /* \"#utility.yul\":4009:4010   */\n      dup2\n        /* \"#utility.yul\":4005:4014   */\n      add\n        /* \"#utility.yul\":4000:4014   */\n      swap1\n      pop\n        /* \"#utility.yul\":3965:4249   */\n      jump(tag_359)\n    tag_361:\n        /* \"#utility.yul\":3969:3983   */\n      pop\n        /* \"#utility.yul\":4265:4268   */\n      dup6\n        /* \"#utility.yul\":4258:4268   */\n      swap4\n      pop\n        /* \"#utility.yul\":3666:4274   */\n      pop\n      pop\n      pop\n        /* \"#utility.yul\":3542:4274   */\n      swap3\n      swap2\n      pop\n      pop\n      jump\t// out\n        /* \"#utility.yul\":4280:4653   */\n    tag_42:\n        /* \"#utility.yul\":4423:4427   */\n      0x00\n        /* \"#utility.yul\":4461:4463   */\n      0x20\n        /* \"#utility.yul\":4450:4459   */\n      dup3\n        /* \"#utility.yul\":4446:4464   */\n      add\n        /* \"#utility.yul\":4438:4464   */\n      swap1\n      pop\n        /* \"#utility.yul\":4510:4519   */\n      dup2\n        /* \"#utility.yul\":4504:4508   */\n      dup2\n        /* \"#utility.yul\":4500:4520   */\n      sub\n        /* \"#utility.yul\":4496:4497   */\n      0x00\n        /* \"#utility.yul\":4485:4494   */\n      dup4\n        /* \"#utility.yul\":4481:4498   */\n      add\n        /* \"#utility.yul\":4474:4521   */\n      mstore\n        /* \"#utility.yul\":4538:4646   */\n      tag_365\n        /* \"#utility.yul\":4641:4645   */\n      dup2\n        /* \"#utility.yul\":4632:4638   */\n      dup5\n        /* \"#utility.yul\":4538:4646   */\n      tag_275\n      jump\t// in\n    tag_365:\n        /* \"#utility.yul\":4530:4646   */\n      swap1\n      pop\n        /* \"#utility.yul\":4280:4653   */\n      swap3\n      swap2\n      pop\n      pop\n      jump\t// out\n        /* \"#utility.yul\":4659:4777   */\n    tag_276:\n        /* \"#utility.yul\":4746:4770   */\n      tag_367\n        /* \"#utility.yul\":4764:4769   */\n      dup2\n        /* \"#utility.yul\":4746:4770   */\n      tag_260\n      jump\t// in\n    tag_367:\n        /* \"#utility.yul\":4741:4744   */\n      dup3\n        /* \"#utility.yul\":4734:4771   */\n      mstore\n        /* \"#utility.yul\":4659:4777   */\n      pop\n      pop\n      jump\t// out\n        /* \"#utility.yul\":4783:5005   */\n    tag_52:\n        /* \"#utility.yul\":4876:4880   */\n      0x00\n        /* \"#utility.yul\":4914:4916   */\n      0x20\n        /* \"#utility.yul\":4903:4912   */\n      dup3\n        /* \"#utility.yul\":4899:4917   */\n      add\n        /* \"#utility.yul\":4891:4917   */\n      swap1\n      pop\n        /* \"#utility.yul\":4927:4998   */\n      tag_369\n        /* \"#utility.yul\":4995:4996   */\n      0x00\n        /* \"#utility.yul\":4984:4993   */\n      dup4\n        /* \"#utility.yul\":4980:4997   */\n      add\n        /* \"#utility.yul\":4971:4977   */\n      dup5\n        /* \"#utility.yul\":4927:4998   */\n      tag_276\n      jump\t// in\n    tag_369:\n        /* \"#utility.yul\":4783:5005   */\n      swap3\n      swap2\n      pop\n      pop\n      jump\t// out\n        /* \"#utility.yul\":5011:5153   */\n    tag_277:\n        /* \"#utility.yul\":5106:5112   */\n      0x00\n        /* \"#utility.yul\":5140:5145   */\n      dup2\n        /* \"#utility.yul\":5134:5146   */\n      mload\n        /* \"#utility.yul\":5124:5146   */\n      swap1\n      pop\n        /* \"#utility.yul\":5011:5153   */\n      swap2\n      swap1\n      pop\n      jump\t// out\n        /* \"#utility.yul\":5159:5371   */\n    tag_278:\n        /* \"#utility.yul\":5286:5297   */\n      0x00\n        /* \"#utility.yul\":5320:5326   */\n      dup3\n        /* \"#utility.yul\":5315:5318   */\n      dup3\n        /* \"#utility.yul\":5308:5327   */\n      mstore\n        /* \"#utility.yul\":5360:5364   */\n      0x20\n        /* \"#utility.yul\":5355:5358   */\n      dup3\n        /* \"#utility.yul\":5351:5365   */\n      add\n        /* \"#utility.yul\":5336:5365   */\n      swap1\n      pop\n        /* \"#utility.yul\":5159:5371   */\n      swap3\n      swap2\n      pop\n      pop\n      jump\t// out\n        /* \"#utility.yul\":5377:5537   */\n    tag_279:\n        /* \"#utility.yul\":5472:5476   */\n      0x00\n        /* \"#utility.yul\":5495:5498   */\n      dup2\n        /* \"#utility.yul\":5487:5498   */\n      swap1\n      pop\n        /* \"#utility.yul\":5525:5529   */\n      0x20\n        /* \"#utility.yul\":5520:5523   */\n      dup3\n        /* \"#utility.yul\":5516:5530   */\n      add\n        /* \"#utility.yul\":5508:5530   */\n      swap1\n      pop\n        /* \"#utility.yul\":5377:5537   */\n      swap2\n      swap1\n      pop\n      jump\t// out\n        /* \"#utility.yul\":5543:5642   */\n    tag_280:\n        /* \"#utility.yul\":5614:5635   */\n      tag_374\n        /* \"#utility.yul\":5629:5634   */\n      dup2\n        /* \"#utility.yul\":5614:5635   */\n      tag_263\n      jump\t// in\n    tag_374:\n        /* \"#utility.yul\":5609:5612   */\n      dup3\n        /* \"#utility.yul\":5602:5636   */\n      mstore\n        /* \"#utility.yul\":5543:5642   */\n      pop\n      pop\n      jump\t// out\n        /* \"#utility.yul\":5712:6578   */\n    tag_281:\n        /* \"#utility.yul\":5855:5859   */\n      0x80\n        /* \"#utility.yul\":5850:5853   */\n      dup3\n        /* \"#utility.yul\":5846:5860   */\n      add\n        /* \"#utility.yul\":5950:5954   */\n      0x00\n        /* \"#utility.yul\":5943:5948   */\n      dup3\n        /* \"#utility.yul\":5939:5955   */\n      add\n        /* \"#utility.yul\":5933:5956   */\n      mload\n        /* \"#utility.yul\":5969:6032   */\n      tag_376\n        /* \"#utility.yul\":6026:6030   */\n      0x00\n        /* \"#utility.yul\":6021:6024   */\n      dup6\n        /* \"#utility.yul\":6017:6031   */\n      add\n        /* \"#utility.yul\":6003:6015   */\n      dup3\n        /* \"#utility.yul\":5969:6032   */\n      tag_272\n      jump\t// in\n    tag_376:\n        /* \"#utility.yul\":5870:6042   */\n      pop\n        /* \"#utility.yul\":6130:6134   */\n      0x20\n        /* \"#utility.yul\":6123:6128   */\n      dup3\n        /* \"#utility.yul\":6119:6135   */\n      add\n        /* \"#utility.yul\":6113:6136   */\n      mload\n        /* \"#utility.yul\":6149:6212   */\n      tag_377\n        /* \"#utility.yul\":6206:6210   */\n      0x20\n        /* \"#utility.yul\":6201:6204   */\n      dup6\n        /* \"#utility.yul\":6197:6211   */\n      add\n        /* \"#utility.yul\":6183:6195   */\n      dup3\n        /* \"#utility.yul\":6149:6212   */\n      tag_272\n      jump\t// in\n    tag_377:\n        /* \"#utility.yul\":6052:6222   */\n      pop\n        /* \"#utility.yul\":6308:6312   */\n      0x40\n        /* \"#utility.yul\":6301:6306   */\n      dup3\n        /* \"#utility.yul\":6297:6313   */\n      add\n        /* \"#utility.yul\":6291:6314   */\n      mload\n        /* \"#utility.yul\":6327:6390   */\n      tag_378\n        /* \"#utility.yul\":6384:6388   */\n      0x40\n        /* \"#utility.yul\":6379:6382   */\n      dup6\n        /* \"#utility.yul\":6375:6389   */\n      add\n        /* \"#utility.yul\":6361:6373   */\n      dup3\n        /* \"#utility.yul\":6327:6390   */\n      tag_272\n      jump\t// in\n    tag_378:\n        /* \"#utility.yul\":6232:6400   */\n      pop\n        /* \"#utility.yul\":6485:6489   */\n      0x60\n        /* \"#utility.yul\":6478:6483   */\n      dup3\n        /* \"#utility.yul\":6474:6490   */\n      add\n        /* \"#utility.yul\":6468:6491   */\n      mload\n        /* \"#utility.yul\":6504:6561   */\n      tag_379\n        /* \"#utility.yul\":6555:6559   */\n      0x60\n        /* \"#utility.yul\":6550:6553   */\n      dup6\n        /* \"#utility.yul\":6546:6560   */\n      add\n        /* \"#utility.yul\":6532:6544   */\n      dup3\n        /* \"#utility.yul\":6504:6561   */\n      tag_280\n      jump\t// in\n    tag_379:\n        /* \"#utility.yul\":6410:6571   */\n      pop\n        /* \"#utility.yul\":5824:6578   */\n      pop\n        /* \"#utility.yul\":5712:6578   */\n      pop\n      pop\n      jump\t// out\n        /* \"#utility.yul\":6584:6875   */\n    tag_282:\n        /* \"#utility.yul\":6709:6719   */\n      0x00\n        /* \"#utility.yul\":6730:6832   */\n      tag_381\n        /* \"#utility.yul\":6828:6831   */\n      dup4\n        /* \"#utility.yul\":6820:6826   */\n      dup4\n        /* \"#utility.yul\":6730:6832   */\n      tag_281\n      jump\t// in\n    tag_381:\n        /* \"#utility.yul\":6864:6868   */\n      0x80\n        /* \"#utility.yul\":6859:6862   */\n      dup4\n        /* \"#utility.yul\":6855:6869   */\n      add\n        /* \"#utility.yul\":6841:6869   */\n      swap1\n      pop\n        /* \"#utility.yul\":6584:6875   */\n      swap3\n      swap2\n      pop\n      pop\n      jump\t// out\n        /* \"#utility.yul\":6881:7022   */\n    tag_283:\n        /* \"#utility.yul\":6979:6983   */\n      0x00\n        /* \"#utility.yul\":7011:7015   */\n      0x20\n        /* \"#utility.yul\":7006:7009   */\n      dup3\n        /* \"#utility.yul\":7002:7016   */\n      add\n        /* \"#utility.yul\":6994:7016   */\n      swap1\n      pop\n        /* \"#utility.yul\":6881:7022   */\n      swap2\n      swap1\n      pop\n      jump\t// out\n        /* \"#utility.yul\":7096:8052   */\n    tag_284:\n        /* \"#utility.yul\":7271:7274   */\n      0x00\n        /* \"#utility.yul\":7300:7382   */\n      tag_384\n        /* \"#utility.yul\":7376:7381   */\n      dup3\n        /* \"#utility.yul\":7300:7382   */\n      tag_277\n      jump\t// in\n    tag_384:\n        /* \"#utility.yul\":7398:7512   */\n      tag_385\n        /* \"#utility.yul\":7505:7511   */\n      dup2\n        /* \"#utility.yul\":7500:7503   */\n      dup6\n        /* \"#utility.yul\":7398:7512   */\n      tag_278\n      jump\t// in\n    tag_385:\n        /* \"#utility.yul\":7391:7512   */\n      swap4\n      pop\n        /* \"#utility.yul\":7536:7620   */\n      tag_386\n        /* \"#utility.yul\":7614:7619   */\n      dup4\n        /* \"#utility.yul\":7536:7620   */\n      tag_279\n      jump\t// in\n    tag_386:\n        /* \"#utility.yul\":7643:7650   */\n      dup1\n        /* \"#utility.yul\":7674:7675   */\n      0x00\n        /* \"#utility.yul\":7659:8027   */\n    tag_387:\n        /* \"#utility.yul\":7684:7690   */\n      dup4\n        /* \"#utility.yul\":7681:7682   */\n      dup2\n        /* \"#utility.yul\":7678:7691   */\n      lt\n        /* \"#utility.yul\":7659:8027   */\n      iszero\n      tag_389\n      jumpi\n        /* \"#utility.yul\":7760:7766   */\n      dup2\n        /* \"#utility.yul\":7754:7767   */\n      mload\n        /* \"#utility.yul\":7787:7906   */\n      tag_390\n        /* \"#utility.yul\":7902:7905   */\n      dup9\n        /* \"#utility.yul\":7887:7900   */\n      dup3\n        /* \"#utility.yul\":7787:7906   */\n      tag_282\n      jump\t// in\n    tag_390:\n        /* \"#utility.yul\":7780:7906   */\n      swap8\n      pop\n        /* \"#utility.yul\":7929:8017   */\n      tag_391\n        /* \"#utility.yul\":8010:8016   */\n      dup4\n        /* \"#utility.yul\":7929:8017   */\n      tag_283\n      jump\t// in\n    tag_391:\n        /* \"#utility.yul\":7919:8017   */\n      swap3\n      pop\n        /* \"#utility.yul\":7719:8027   */\n      pop\n        /* \"#utility.yul\":7706:7707   */\n      0x01\n        /* \"#utility.yul\":7703:7704   */\n      dup2\n        /* \"#utility.yul\":7699:7708   */\n      add\n        /* \"#utility.yul\":7694:7708   */\n      swap1\n      pop\n        /* \"#utility.yul\":7659:8027   */\n      jump(tag_387)\n    tag_389:\n        /* \"#utility.yul\":7663:7677   */\n      pop\n        /* \"#utility.yul\":8043:8046   */\n      dup6\n        /* \"#utility.yul\":8036:8046   */\n      swap4\n      pop\n        /* \"#utility.yul\":7276:8052   */\n      pop\n      pop\n      pop\n        /* \"#utility.yul\":7096:8052   */\n      swap3\n      swap2\n      pop\n      pop\n      jump\t// out\n        /* \"#utility.yul\":8058:8804   */\n    tag_64:\n        /* \"#utility.yul\":8335:8339   */\n      0x00\n        /* \"#utility.yul\":8373:8375   */\n      0x40\n        /* \"#utility.yul\":8362:8371   */\n      dup3\n        /* \"#utility.yul\":8358:8376   */\n      add\n        /* \"#utility.yul\":8350:8376   */\n      swap1\n      pop\n        /* \"#utility.yul\":8422:8431   */\n      dup2\n        /* \"#utility.yul\":8416:8420   */\n      dup2\n        /* \"#utility.yul\":8412:8432   */\n      sub\n        /* \"#utility.yul\":8408:8409   */\n      0x00\n        /* \"#utility.yul\":8397:8406   */\n      dup4\n        /* \"#utility.yul\":8393:8410   */\n      add\n        /* \"#utility.yul\":8386:8433   */\n      mstore\n        /* \"#utility.yul\":8450:8558   */\n      tag_393\n        /* \"#utility.yul\":8553:8557   */\n      dup2\n        /* \"#utility.yul\":8544:8550   */\n      dup6\n        /* \"#utility.yul\":8450:8558   */\n      tag_275\n      jump\t// in\n    tag_393:\n        /* \"#utility.yul\":8442:8558   */\n      swap1\n      pop\n        /* \"#utility.yul\":8605:8614   */\n      dup2\n        /* \"#utility.yul\":8599:8603   */\n      dup2\n        /* \"#utility.yul\":8595:8615   */\n      sub\n        /* \"#utility.yul\":8590:8592   */\n      0x20\n        /* \"#utility.yul\":8579:8588   */\n      dup4\n        /* \"#utility.yul\":8575:8593   */\n      add\n        /* \"#utility.yul\":8568:8616   */\n      mstore\n        /* \"#utility.yul\":8633:8797   */\n      tag_394\n        /* \"#utility.yul\":8792:8796   */\n      dup2\n        /* \"#utility.yul\":8783:8789   */\n      dup5\n        /* \"#utility.yul\":8633:8797   */\n      tag_284\n      jump\t// in\n    tag_394:\n        /* \"#utility.yul\":8625:8797   */\n      swap1\n      pop\n        /* \"#utility.yul\":8058:8804   */\n      swap4\n      swap3\n      pop\n      pop\n      pop\n      jump\t// out\n        /* \"#utility.yul\":8810:9284   */\n    tag_67:\n        /* \"#utility.yul\":8878:8884   */\n      0x00\n        /* \"#utility.yul\":8886:8892   */\n      dup1\n        /* \"#utility.yul\":8935:8937   */\n      0x40\n        /* \"#utility.yul\":8923:8932   */\n      dup4\n        /* \"#utility.yul\":8914:8921   */\n      dup6\n        /* \"#utility.yul\":8910:8933   */\n      sub\n        /* \"#utility.yul\":8906:8938   */\n      slt\n        /* \"#utility.yul\":8903:9022   */\n      iszero\n      tag_396\n      jumpi\n        /* \"#utility.yul\":8941:9020   */\n      tag_397\n      tag_257\n      jump\t// in\n    tag_397:\n        /* \"#utility.yul\":8903:9022   */\n    tag_396:\n        /* \"#utility.yul\":9061:9062   */\n      0x00\n        /* \"#utility.yul\":9086:9139   */\n      tag_398\n        /* \"#utility.yul\":9131:9138   */\n      dup6\n        /* \"#utility.yul\":9122:9128   */\n      dup3\n        /* \"#utility.yul\":9111:9120   */\n      dup7\n        /* \"#utility.yul\":9107:9129   */\n      add\n        /* \"#utility.yul\":9086:9139   */\n      tag_268\n      jump\t// in\n    tag_398:\n        /* \"#utility.yul\":9076:9139   */\n      swap3\n      pop\n        /* \"#utility.yul\":9032:9149   */\n      pop\n        /* \"#utility.yul\":9188:9190   */\n      0x20\n        /* \"#utility.yul\":9214:9267   */\n      tag_399\n        /* \"#utility.yul\":9259:9266   */\n      dup6\n        /* \"#utility.yul\":9250:9256   */\n      dup3\n        /* \"#utility.yul\":9239:9248   */\n      dup7\n        /* \"#utility.yul\":9235:9257   */\n      add\n        /* \"#utility.yul\":9214:9267   */\n      tag_268\n      jump\t// in\n    tag_399:\n        /* \"#utility.yul\":9204:9267   */\n      swap2\n      pop\n        /* \"#utility.yul\":9159:9277   */\n      pop\n        /* \"#utility.yul\":8810:9284   */\n      swap3\n      pop\n      swap3\n      swap1\n      pop\n      jump\t// out\n        /* \"#utility.yul\":9290:9831   */\n    tag_77:\n        /* \"#utility.yul\":9461:9465   */\n      0x00\n        /* \"#utility.yul\":9499:9502   */\n      0x80\n        /* \"#utility.yul\":9488:9497   */\n      dup3\n        /* \"#utility.yul\":9484:9503   */\n      add\n        /* \"#utility.yul\":9476:9503   */\n      swap1\n      pop\n        /* \"#utility.yul\":9513:9584   */\n      tag_401\n        /* \"#utility.yul\":9581:9582   */\n      0x00\n        /* \"#utility.yul\":9570:9579   */\n      dup4\n        /* \"#utility.yul\":9566:9583   */\n      add\n        /* \"#utility.yul\":9557:9563   */\n      dup8\n        /* \"#utility.yul\":9513:9584   */\n      tag_266\n      jump\t// in\n    tag_401:\n        /* \"#utility.yul\":9594:9666   */\n      tag_402\n        /* \"#utility.yul\":9662:9664   */\n      0x20\n        /* \"#utility.yul\":9651:9660   */\n      dup4\n        /* \"#utility.yul\":9647:9665   */\n      add\n        /* \"#utility.yul\":9638:9644   */\n      dup7\n        /* \"#utility.yul\":9594:9666   */\n      tag_266\n      jump\t// in\n    tag_402:\n        /* \"#utility.yul\":9676:9748   */\n      tag_403\n        /* \"#utility.yul\":9744:9746   */\n      0x40\n        /* \"#utility.yul\":9733:9742   */\n      dup4\n        /* \"#utility.yul\":9729:9747   */\n      add\n        /* \"#utility.yul\":9720:9726   */\n      dup6\n        /* \"#utility.yul\":9676:9748   */\n      tag_266\n      jump\t// in\n    tag_403:\n        /* \"#utility.yul\":9758:9824   */\n      tag_404\n        /* \"#utility.yul\":9820:9822   */\n      0x60\n        /* \"#utility.yul\":9809:9818   */\n      dup4\n        /* \"#utility.yul\":9805:9823   */\n      add\n        /* \"#utility.yul\":9796:9802   */\n      dup5\n        /* \"#utility.yul\":9758:9824   */\n      tag_264\n      jump\t// in\n    tag_404:\n        /* \"#utility.yul\":9290:9831   */\n      swap6\n      swap5\n      pop\n      pop\n      pop\n      pop\n      pop\n      jump\t// out\n        /* \"#utility.yul\":9837:9897   */\n    tag_285:\n        /* \"#utility.yul\":9865:9868   */\n      0x00\n        /* \"#utility.yul\":9886:9891   */\n      dup2\n        /* \"#utility.yul\":9879:9891   */\n      swap1\n      pop\n        /* \"#utility.yul\":9837:9897   */\n      swap2\n      swap1\n      pop\n      jump\t// out\n        /* \"#utility.yul\":9903:10045   */\n    tag_286:\n        /* \"#utility.yul\":9953:9962   */\n      0x00\n        /* \"#utility.yul\":9986:10039   */\n      tag_407\n        /* \"#utility.yul\":10004:10038   */\n      tag_408\n        /* \"#utility.yul\":10013:10037   */\n      tag_409\n        /* \"#utility.yul\":10031:10036   */\n      dup5\n        /* \"#utility.yul\":10013:10037   */\n      tag_259\n      jump\t// in\n    tag_409:\n        /* \"#utility.yul\":10004:10038   */\n      tag_285\n      jump\t// in\n    tag_408:\n        /* \"#utility.yul\":9986:10039   */\n      tag_259\n      jump\t// in\n    tag_407:\n        /* \"#utility.yul\":9973:10039   */\n      swap1\n      pop\n        /* \"#utility.yul\":9903:10045   */\n      swap2\n      swap1\n      pop\n      jump\t// out\n        /* \"#utility.yul\":10051:10177   */\n    tag_287:\n        /* \"#utility.yul\":10101:10110   */\n      0x00\n        /* \"#utility.yul\":10134:10171   */\n      tag_411\n        /* \"#utility.yul\":10165:10170   */\n      dup3\n        /* \"#utility.yul\":10134:10171   */\n      tag_286\n      jump\t// in\n    tag_411:\n        /* \"#utility.yul\":10121:10171   */\n      swap1\n      pop\n        /* \"#utility.yul\":10051:10177   */\n      swap2\n      swap1\n      pop\n      jump\t// out\n        /* \"#utility.yul\":10183:10322   */\n    tag_288:\n        /* \"#utility.yul\":10246:10255   */\n      0x00\n        /* \"#utility.yul\":10279:10316   */\n      tag_413\n        /* \"#utility.yul\":10310:10315   */\n      dup3\n        /* \"#utility.yul\":10279:10316   */\n      tag_287\n      jump\t// in\n    tag_413:\n        /* \"#utility.yul\":10266:10316   */\n      swap1\n      pop\n        /* \"#utility.yul\":10183:10322   */\n      swap2\n      swap1\n      pop\n      jump\t// out\n        /* \"#utility.yul\":10328:10485   */\n    tag_289:\n        /* \"#utility.yul\":10428:10478   */\n      tag_415\n        /* \"#utility.yul\":10472:10477   */\n      dup2\n        /* \"#utility.yul\":10428:10478   */\n      tag_288\n      jump\t// in\n    tag_415:\n        /* \"#utility.yul\":10423:10426   */\n      dup3\n        /* \"#utility.yul\":10416:10479   */\n      mstore\n        /* \"#utility.yul\":10328:10485   */\n      pop\n      pop\n      jump\t// out\n        /* \"#utility.yul\":10491:10739   */\n    tag_87:\n        /* \"#utility.yul\":10597:10601   */\n      0x00\n        /* \"#utility.yul\":10635:10637   */\n      0x20\n        /* \"#utility.yul\":10624:10633   */\n      dup3\n        /* \"#utility.yul\":10620:10638   */\n      add\n        /* \"#utility.yul\":10612:10638   */\n      swap1\n      pop\n        /* \"#utility.yul\":10648:10732   */\n      tag_417\n        /* \"#utility.yul\":10729:10730   */\n      0x00\n        /* \"#utility.yul\":10718:10727   */\n      dup4\n        /* \"#utility.yul\":10714:10731   */\n      add\n        /* \"#utility.yul\":10705:10711   */\n      dup5\n        /* \"#utility.yul\":10648:10732   */\n      tag_289\n      jump\t// in\n    tag_417:\n        /* \"#utility.yul\":10491:10739   */\n      swap3\n      swap2\n      pop\n      pop\n      jump\t// out\n        /* \"#utility.yul\":10745:10925   */\n    tag_290:\n        /* \"#utility.yul\":10793:10870   */\n      0x4e487b7100000000000000000000000000000000000000000000000000000000\n        /* \"#utility.yul\":10790:10791   */\n      0x00\n        /* \"#utility.yul\":10783:10871   */\n      mstore\n        /* \"#utility.yul\":10890:10894   */\n      0x11\n        /* \"#utility.yul\":10887:10888   */\n      0x04\n        /* \"#utility.yul\":10880:10895   */\n      mstore\n        /* \"#utility.yul\":10914:10918   */\n      0x24\n        /* \"#utility.yul\":10911:10912   */\n      0x00\n        /* \"#utility.yul\":10904:10919   */\n      revert\n        /* \"#utility.yul\":10931:11125   */\n    tag_91:\n        /* \"#utility.yul\":10971:10975   */\n      0x00\n        /* \"#utility.yul\":10991:11011   */\n      tag_420\n        /* \"#utility.yul\":11009:11010   */\n      dup3\n        /* \"#utility.yul\":10991:11011   */\n      tag_265\n      jump\t// in\n    tag_420:\n        /* \"#utility.yul\":10986:11011   */\n      swap2\n      pop\n        /* \"#utility.yul\":11025:11045   */\n      tag_421\n        /* \"#utility.yul\":11043:11044   */\n      dup4\n        /* \"#utility.yul\":11025:11045   */\n      tag_265\n      jump\t// in\n    tag_421:\n        /* \"#utility.yul\":11020:11045   */\n      swap3\n      pop\n        /* \"#utility.yul\":11069:11070   */\n      dup3\n        /* \"#utility.yul\":11066:11067   */\n      dup3\n        /* \"#utility.yul\":11062:11071   */\n      sub\n        /* \"#utility.yul\":11054:11071   */\n      swap1\n      pop\n        /* \"#utility.yul\":11093:11094   */\n      dup2\n        /* \"#utility.yul\":11087:11091   */\n      dup2\n        /* \"#utility.yul\":11084:11095   */\n      gt\n        /* \"#utility.yul\":11081:11118   */\n      iszero\n      tag_422\n      jumpi\n        /* \"#utility.yul\":11098:11116   */\n      tag_423\n      tag_290\n      jump\t// in\n    tag_423:\n        /* \"#utility.yul\":11081:11118   */\n    tag_422:\n        /* \"#utility.yul\":10931:11125   */\n      swap3\n      swap2\n      pop\n      pop\n      jump\t// out\n        /* \"#utility.yul\":11131:11364   */\n    tag_101:\n        /* \"#utility.yul\":11170:11173   */\n      0x00\n        /* \"#utility.yul\":11193:11217   */\n      tag_425\n        /* \"#utility.yul\":11211:11216   */\n      dup3\n        /* \"#utility.yul\":11193:11217   */\n      tag_265\n      jump\t// in\n    tag_425:\n        /* \"#utility.yul\":11184:11217   */\n      swap2\n      pop\n        /* \"#utility.yul\":11239:11305   */\n      0xffffffffffffffffffffffffffffffffffffffffffffffffffffffffffffffff\n        /* \"#utility.yul\":11232:11237   */\n      dup3\n        /* \"#utility.yul\":11229:11306   */\n      sub\n        /* \"#utility.yul\":11226:11329   */\n      tag_426\n      jumpi\n        /* \"#utility.yul\":11309:11327   */\n      tag_427\n      tag_290\n      jump\t// in\n    tag_427:\n        /* \"#utility.yul\":11226:11329   */\n    tag_426:\n        /* \"#utility.yul\":11356:11357   */\n      0x01\n        /* \"#utility.yul\":11349:11354   */\n      dup3\n        /* \"#utility.yul\":11345:11358   */\n      add\n        /* \"#utility.yul\":11338:11358   */\n      swap1\n      pop\n        /* \"#utility.yul\":11131:11364   */\n      swap2\n      swap1\n      pop\n      jump\t// out\n        /* \"#utility.yul\":11370:11550   */\n    tag_105:\n        /* \"#utility.yul\":11418:11495   */\n      0x4e487b7100000000000000000000000000000000000000000000000000000000\n        /* \"#utility.yul\":11415:11416   */\n      0x00\n        /* \"#utility.yul\":11408:11496   */\n      mstore\n        /* \"#utility.yul\":11515:11519   */\n      0x41\n        /* \"#utility.yul\":11512:11513   */\n      0x04\n        /* \"#utility.yul\":11505:11520   */\n      mstore\n        /* \"#utility.yul\":11539:11543   */\n      0x24\n        /* \"#utility.yul\":11536:11537   */\n      0x00\n        /* \"#utility.yul\":11529:11544   */\n      revert\n        /* \"#utility.yul\":11556:11736   */\n    tag_114:\n        /* \"#utility.yul\":11604:11681   */\n      0x4e487b7100000000000000000000000000000000000000000000000000000000\n        /* \"#utility.yul\":11601:11602   */\n      0x00\n        /* \"#utility.yul\":11594:11682   */\n      mstore\n        /* \"#utility.yul\":11701:11705   */\n      0x32\n        /* \"#utility.yul\":11698:11699   */\n      0x04\n        /* \"#utility.yul\":11691:11706   */\n      mstore\n        /* \"#utility.yul\":11725:11729   */\n      0x24\n        /* \"#utility.yul\":11722:11723   */\n      0x00\n        /* \"#utility.yul\":11715:11730   */\n      revert\n        /* \"#utility.yul\":11742:11911   */\n    tag_291:\n        /* \"#utility.yul\":11826:11837   */\n      0x00\n        /* \"#utility.yul\":11860:11866   */\n      dup3\n        /* \"#utility.yul\":11855:11858   */\n      dup3\n        /* \"#utility.yul\":11848:11867   */\n      mstore\n        /* \"#utility.yul\":11900:11904   */\n      0x20\n        /* \"#utility.yul\":11895:11898   */\n      dup3\n        /* \"#utility.yul\":11891:11905   */\n      add\n        /* \"#utility.yul\":11876:11905   */\n      swap1\n      pop\n        /* \"#utility.yul\":11742:11911   */\n      swap3\n      swap2\n      pop\n      pop\n      jump\t// out\n        /* \"#utility.yul\":11917:12083   */\n    tag_292:\n        /* \"#utility.yul\":12057:12075   */\n      0x4e6f20616d6f756e74207374616b656400000000000000000000000000000000\n        /* \"#utility.yul\":12053:12054   */\n      0x00\n        /* \"#utility.yul\":12045:12051   */\n      dup3\n        /* \"#utility.yul\":12041:12055   */\n      add\n        /* \"#utility.yul\":12034:12076   */\n      mstore\n        /* \"#utility.yul\":11917:12083   */\n      pop\n      jump\t// out\n        /* \"#utility.yul\":12089:12455   */\n    tag_293:\n        /* \"#utility.yul\":12231:12234   */\n      0x00\n        /* \"#utility.yul\":12252:12319   */\n      tag_433\n        /* \"#utility.yul\":12316:12318   */\n      0x10\n        /* \"#utility.yul\":12311:12314   */\n      dup4\n        /* \"#utility.yul\":12252:12319   */\n      tag_291\n      jump\t// in\n    tag_433:\n        /* \"#utility.yul\":12245:12319   */\n      swap2\n      pop\n        /* \"#utility.yul\":12328:12421   */\n      tag_434\n        /* \"#utility.yul\":12417:12420   */\n      dup3\n        /* \"#utility.yul\":12328:12421   */\n      tag_292\n      jump\t// in\n    tag_434:\n        /* \"#utility.yul\":12446:12448   */\n      0x20\n        /* \"#utility.yul\":12441:12444   */\n      dup3\n        /* \"#utility.yul\":12437:12449   */\n      add\n        /* \"#utility.yul\":12430:12449   */\n      swap1\n      pop\n        /* \"#utility.yul\":12089:12455   */\n      swap2\n      swap1\n      pop\n      jump\t// out\n        /* \"#utility.yul\":12461:12880   */\n    tag_121:\n        /* \"#utility.yul\":12627:12631   */\n      0x00\n        /* \"#utility.yul\":12665:12667   */\n      0x20\n        /* \"#utility.yul\":12654:12663   */\n      dup3\n        /* \"#utility.yul\":12650:12668   */\n      add\n        /* \"#utility.yul\":12642:12668   */\n      swap1\n      pop\n        /* \"#utility.yul\":12714:12723   */\n      dup2\n        /* \"#utility.yul\":12708:12712   */\n      dup2\n        /* \"#utility.yul\":12704:12724   */\n      sub\n        /* \"#utility.yul\":12700:12701   */\n      0x00\n        /* \"#utility.yul\":12689:12698   */\n      dup4\n        /* \"#utility.yul\":12685:12702   */\n      add\n        /* \"#utility.yul\":12678:12725   */\n      mstore\n        /* \"#utility.yul\":12742:12873   */\n      tag_436\n        /* \"#utility.yul\":12868:12872   */\n      dup2\n        /* \"#utility.yul\":12742:12873   */\n      tag_293\n      jump\t// in\n    tag_436:\n        /* \"#utility.yul\":12734:12873   */\n      swap1\n      pop\n        /* \"#utility.yul\":12461:12880   */\n      swap2\n      swap1\n      pop\n      jump\t// out\n        /* \"#utility.yul\":12886:13218   */\n    tag_131:\n        /* \"#utility.yul\":13007:13011   */\n      0x00\n        /* \"#utility.yul\":13045:13047   */\n      0x40\n        /* \"#utility.yul\":13034:13043   */\n      dup3\n        /* \"#utility.yul\":13030:13048   */\n      add\n        /* \"#utility.yul\":13022:13048   */\n      swap1\n      pop\n        /* \"#utility.yul\":13058:13129   */\n      tag_438\n        /* \"#utility.yul\":13126:13127   */\n      0x00\n        /* \"#utility.yul\":13115:13124   */\n      dup4\n        /* \"#utility.yul\":13111:13128   */\n      add\n        /* \"#utility.yul\":13102:13108   */\n      dup6\n        /* \"#utility.yul\":13058:13129   */\n      tag_276\n      jump\t// in\n    tag_438:\n        /* \"#utility.yul\":13139:13211   */\n      tag_439\n        /* \"#utility.yul\":13207:13209   */\n      0x20\n        /* \"#utility.yul\":13196:13205   */\n      dup4\n        /* \"#utility.yul\":13192:13210   */\n      add\n        /* \"#utility.yul\":13183:13189   */\n      dup5\n        /* \"#utility.yul\":13139:13211   */\n      tag_266\n      jump\t// in\n    tag_439:\n        /* \"#utility.yul\":12886:13218   */\n      swap4\n      swap3\n      pop\n      pop\n      pop\n      jump\t// out\n        /* \"#utility.yul\":13224:13340   */\n    tag_294:\n        /* \"#utility.yul\":13294:13315   */\n      tag_441\n        /* \"#utility.yul\":13309:13314   */\n      dup2\n        /* \"#utility.yul\":13294:13315   */\n      tag_263\n      jump\t// in\n    tag_441:\n        /* \"#utility.yul\":13287:13292   */\n      dup2\n        /* \"#utility.yul\":13284:13316   */\n      eq\n        /* \"#utility.yul\":13274:13334   */\n      tag_442\n      jumpi\n        /* \"#utility.yul\":13330:13331   */\n      0x00\n        /* \"#utility.yul\":13327:13328   */\n      dup1\n        /* \"#utility.yul\":13320:13332   */\n      revert\n        /* \"#utility.yul\":13274:13334   */\n    tag_442:\n        /* \"#utility.yul\":13224:13340   */\n      pop\n      jump\t// out\n        /* \"#utility.yul\":13346:13483   */\n    tag_295:\n        /* \"#utility.yul\":13400:13405   */\n      0x00\n        /* \"#utility.yul\":13431:13437   */\n      dup2\n        /* \"#utility.yul\":13425:13438   */\n      mload\n        /* \"#utility.yul\":13416:13438   */\n      swap1\n      pop\n        /* \"#utility.yul\":13447:13477   */\n      tag_444\n        /* \"#utility.yul\":13471:13476   */\n      dup2\n        /* \"#utility.yul\":13447:13477   */\n      tag_294\n      jump\t// in\n    tag_444:\n        /* \"#utility.yul\":13346:13483   */\n      swap3\n      swap2\n      pop\n      pop\n      jump\t// out\n        /* \"#utility.yul\":13489:13834   */\n    tag_135:\n        /* \"#utility.yul\":13556:13562   */\n      0x00\n        /* \"#utility.yul\":13605:13607   */\n      0x20\n        /* \"#utility.yul\":13593:13602   */\n      dup3\n        /* \"#utility.yul\":13584:13591   */\n      dup5\n        /* \"#utility.yul\":13580:13603   */\n      sub\n        /* \"#utility.yul\":13576:13608   */\n      slt\n        /* \"#utility.yul\":13573:13692   */\n      iszero\n      tag_446\n      jumpi\n        /* \"#utility.yul\":13611:13690   */\n      tag_447\n      tag_257\n      jump\t// in\n    tag_447:\n        /* \"#utility.yul\":13573:13692   */\n    tag_446:\n        /* \"#utility.yul\":13731:13732   */\n      0x00\n        /* \"#utility.yul\":13756:13817   */\n      tag_448\n        /* \"#utility.yul\":13809:13816   */\n      dup5\n        /* \"#utility.yul\":13800:13806   */\n      dup3\n        /* \"#utility.yul\":13789:13798   */\n      dup6\n        /* \"#utility.yul\":13785:13807   */\n      add\n        /* \"#utility.yul\":13756:13817   */\n      tag_295\n      jump\t// in\n    tag_448:\n        /* \"#utility.yul\":13746:13817   */\n      swap2\n      pop\n        /* \"#utility.yul\":13702:13827   */\n      pop\n        /* \"#utility.yul\":13489:13834   */\n      swap3\n      swap2\n      pop\n      pop\n      jump\t// out\n        /* \"#utility.yul\":13840:13983   */\n    tag_296:\n        /* \"#utility.yul\":13897:13902   */\n      0x00\n        /* \"#utility.yul\":13928:13934   */\n      dup2\n        /* \"#utility.yul\":13922:13935   */\n      mload\n        /* \"#utility.yul\":13913:13935   */\n      swap1\n      pop\n        /* \"#utility.yul\":13944:13977   */\n      tag_450\n        /* \"#utility.yul\":13971:13976   */\n      dup2\n        /* \"#utility.yul\":13944:13977   */\n      tag_267\n      jump\t// in\n    tag_450:\n        /* \"#utility.yul\":13840:13983   */\n      swap3\n      swap2\n      pop\n      pop\n      jump\t// out\n        /* \"#utility.yul\":13989:14340   */\n    tag_146:\n        /* \"#utility.yul\":14059:14065   */\n      0x00\n        /* \"#utility.yul\":14108:14110   */\n      0x20\n        /* \"#utility.yul\":14096:14105   */\n      dup3\n        /* \"#utility.yul\":14087:14094   */\n      dup5\n        /* \"#utility.yul\":14083:14106   */\n      sub\n        /* \"#utility.yul\":14079:14111   */\n      slt\n        /* \"#utility.yul\":14076:14195   */\n      iszero\n      tag_452\n      jumpi\n        /* \"#utility.yul\":14114:14193   */\n      tag_453\n      tag_257\n      jump\t// in\n    tag_453:\n        /* \"#utility.yul\":14076:14195   */\n    tag_452:\n        /* \"#utility.yul\":14234:14235   */\n      0x00\n        /* \"#utility.yul\":14259:14323   */\n      tag_454\n        /* \"#utility.yul\":14315:14322   */\n      dup5\n        /* \"#utility.yul\":14306:14312   */\n      dup3\n        /* \"#utility.yul\":14295:14304   */\n      dup6\n        /* \"#utility.yul\":14291:14313   */\n      add\n        /* \"#utility.yul\":14259:14323   */\n      tag_296\n      jump\t// in\n    tag_454:\n        /* \"#utility.yul\":14249:14323   */\n      swap2\n      pop\n        /* \"#utility.yul\":14205:14333   */\n      pop\n        /* \"#utility.yul\":13989:14340   */\n      swap3\n      swap2\n      pop\n      pop\n      jump\t// out\n        /* \"#utility.yul\":14346:14528   */\n    tag_297:\n        /* \"#utility.yul\":14486:14520   */\n      0x4d757374207374616b65206d6f7265207468616e207a65726f20746f6b656e73\n        /* \"#utility.yul\":14482:14483   */\n      0x00\n        /* \"#utility.yul\":14474:14480   */\n      dup3\n        /* \"#utility.yul\":14470:14484   */\n      add\n        /* \"#utility.yul\":14463:14521   */\n      mstore\n        /* \"#utility.yul\":14346:14528   */\n      pop\n      jump\t// out\n        /* \"#utility.yul\":14534:14900   */\n    tag_298:\n        /* \"#utility.yul\":14676:14679   */\n      0x00\n        /* \"#utility.yul\":14697:14764   */\n      tag_457\n        /* \"#utility.yul\":14761:14763   */\n      0x20\n        /* \"#utility.yul\":14756:14759   */\n      dup4\n        /* \"#utility.yul\":14697:14764   */\n      tag_291\n      jump\t// in\n    tag_457:\n        /* \"#utility.yul\":14690:14764   */\n      swap2\n      pop\n        /* \"#utility.yul\":14773:14866   */\n      tag_458\n        /* \"#utility.yul\":14862:14865   */\n      dup3\n        /* \"#utility.yul\":14773:14866   */\n      tag_297\n      jump\t// in\n    tag_458:\n        /* \"#utility.yul\":14891:14893   */\n      0x20\n        /* \"#utility.yul\":14886:14889   */\n      dup3\n        /* \"#utility.yul\":14882:14894   */\n      add\n        /* \"#utility.yul\":14875:14894   */\n      swap1\n      pop\n        /* \"#utility.yul\":14534:14900   */\n      swap2\n      swap1\n      pop\n      jump\t// out\n        /* \"#utility.yul\":14906:15325   */\n    tag_181:\n        /* \"#utility.yul\":15072:15076   */\n      0x00\n        /* \"#utility.yul\":15110:15112   */\n      0x20\n        /* \"#utility.yul\":15099:15108   */\n      dup3\n        /* \"#utility.yul\":15095:15113   */\n      add\n        /* \"#utility.yul\":15087:15113   */\n      swap1\n      pop\n        /* \"#utility.yul\":15159:15168   */\n      dup2\n        /* \"#utility.yul\":15153:15157   */\n      dup2\n        /* \"#utility.yul\":15149:15169   */\n      sub\n        /* \"#utility.yul\":15145:15146   */\n      0x00\n        /* \"#utility.yul\":15134:15143   */\n      dup4\n        /* \"#utility.yul\":15130:15147   */\n      add\n        /* \"#utility.yul\":15123:15170   */\n      mstore\n        /* \"#utility.yul\":15187:15318   */\n      tag_460\n        /* \"#utility.yul\":15313:15317   */\n      dup2\n        /* \"#utility.yul\":15187:15318   */\n      tag_298\n      jump\t// in\n    tag_460:\n        /* \"#utility.yul\":15179:15318   */\n      swap1\n      pop\n        /* \"#utility.yul\":14906:15325   */\n      swap2\n      swap1\n      pop\n      jump\t// out\n        /* \"#utility.yul\":15331:15552   */\n    tag_299:\n        /* \"#utility.yul\":15471:15505   */\n      0x4e6f7420456e6f7567682042616c616e636520546f6b656e7320546f20537461\n        /* \"#utility.yul\":15467:15468   */\n      0x00\n        /* \"#utility.yul\":15459:15465   */\n      dup3\n        /* \"#utility.yul\":15455:15469   */\n      add\n        /* \"#utility.yul\":15448:15506   */\n      mstore\n        /* \"#utility.yul\":15540:15544   */\n      0x6b65000000000000000000000000000000000000000000000000000000000000\n        /* \"#utility.yul\":15535:15537   */\n      0x20\n        /* \"#utility.yul\":15527:15533   */\n      dup3\n        /* \"#utility.yul\":15523:15538   */\n      add\n        /* \"#utility.yul\":15516:15545   */\n      mstore\n        /* \"#utility.yul\":15331:15552   */\n      pop\n      jump\t// out\n        /* \"#utility.yul\":15558:15924   */\n    tag_300:\n        /* \"#utility.yul\":15700:15703   */\n      0x00\n        /* \"#utility.yul\":15721:15788   */\n      tag_463\n        /* \"#utility.yul\":15785:15787   */\n      0x22\n        /* \"#utility.yul\":15780:15783   */\n      dup4\n        /* \"#utility.yul\":15721:15788   */\n      tag_291\n      jump\t// in\n    tag_463:\n        /* \"#utility.yul\":15714:15788   */\n      swap2\n      pop\n        /* \"#utility.yul\":15797:15890   */\n      tag_464\n        /* \"#utility.yul\":15886:15889   */\n      dup3\n        /* \"#utility.yul\":15797:15890   */\n      tag_299\n      jump\t// in\n    tag_464:\n        /* \"#utility.yul\":15915:15917   */\n      0x40\n        /* \"#utility.yul\":15910:15913   */\n      dup3\n        /* \"#utility.yul\":15906:15918   */\n      add\n        /* \"#utility.yul\":15899:15918   */\n      swap1\n      pop\n        /* \"#utility.yul\":15558:15924   */\n      swap2\n      swap1\n      pop\n      jump\t// out\n        /* \"#utility.yul\":15930:16349   */\n    tag_188:\n        /* \"#utility.yul\":16096:16100   */\n      0x00\n        /* \"#utility.yul\":16134:16136   */\n      0x20\n        /* \"#utility.yul\":16123:16132   */\n      dup3\n        /* \"#utility.yul\":16119:16137   */\n      add\n        /* \"#utility.yul\":16111:16137   */\n      swap1\n      pop\n        /* \"#utility.yul\":16183:16192   */\n      dup2\n        /* \"#utility.yul\":16177:16181   */\n      dup2\n        /* \"#utility.yul\":16173:16193   */\n      sub\n        /* \"#utility.yul\":16169:16170   */\n      0x00\n        /* \"#utility.yul\":16158:16167   */\n      dup4\n        /* \"#utility.yul\":16154:16171   */\n      add\n        /* \"#utility.yul\":16147:16194   */\n      mstore\n        /* \"#utility.yul\":16211:16342   */\n      tag_466\n        /* \"#utility.yul\":16337:16341   */\n      dup2\n        /* \"#utility.yul\":16211:16342   */\n      tag_300\n      jump\t// in\n    tag_466:\n        /* \"#utility.yul\":16203:16342   */\n      swap1\n      pop\n        /* \"#utility.yul\":15930:16349   */\n      swap2\n      swap1\n      pop\n      jump\t// out\n        /* \"#utility.yul\":16355:16582   */\n    tag_301:\n        /* \"#utility.yul\":16495:16529   */\n      0x5461727269662063616e204f6e6c79206265206f6620322c342c362c382c3130\n        /* \"#utility.yul\":16491:16492   */\n      0x00\n        /* \"#utility.yul\":16483:16489   */\n      dup3\n        /* \"#utility.yul\":16479:16493   */\n      add\n        /* \"#utility.yul\":16472:16530   */\n      mstore\n        /* \"#utility.yul\":16564:16574   */\n      0x204d696e75746573000000000000000000000000000000000000000000000000\n        /* \"#utility.yul\":16559:16561   */\n      0x20\n        /* \"#utility.yul\":16551:16557   */\n      dup3\n        /* \"#utility.yul\":16547:16562   */\n      add\n        /* \"#utility.yul\":16540:16575   */\n      mstore\n        /* \"#utility.yul\":16355:16582   */\n      pop\n      jump\t// out\n        /* \"#utility.yul\":16588:16954   */\n    tag_302:\n        /* \"#utility.yul\":16730:16733   */\n      0x00\n        /* \"#utility.yul\":16751:16818   */\n      tag_469\n        /* \"#utility.yul\":16815:16817   */\n      0x28\n        /* \"#utility.yul\":16810:16813   */\n      dup4\n        /* \"#utility.yul\":16751:16818   */\n      tag_291\n      jump\t// in\n    tag_469:\n        /* \"#utility.yul\":16744:16818   */\n      swap2\n      pop\n        /* \"#utility.yul\":16827:16920   */\n      tag_470\n        /* \"#utility.yul\":16916:16919   */\n      dup3\n        /* \"#utility.yul\":16827:16920   */\n      tag_301\n      jump\t// in\n    tag_470:\n        /* \"#utility.yul\":16945:16947   */\n      0x40\n        /* \"#utility.yul\":16940:16943   */\n      dup3\n        /* \"#utility.yul\":16936:16948   */\n      add\n        /* \"#utility.yul\":16929:16948   */\n      swap1\n      pop\n        /* \"#utility.yul\":16588:16954   */\n      swap2\n      swap1\n      pop\n      jump\t// out\n        /* \"#utility.yul\":16960:17379   */\n    tag_195:\n        /* \"#utility.yul\":17126:17130   */\n      0x00\n        /* \"#utility.yul\":17164:17166   */\n      0x20\n        /* \"#utility.yul\":17153:17162   */\n      dup3\n        /* \"#utility.yul\":17149:17167   */\n      add\n        /* \"#utility.yul\":17141:17167   */\n      swap1\n      pop\n        /* \"#utility.yul\":17213:17222   */\n      dup2\n        /* \"#utility.yul\":17207:17211   */\n      dup2\n        /* \"#utility.yul\":17203:17223   */\n      sub\n        /* \"#utility.yul\":17199:17200   */\n      0x00\n        /* \"#utility.yul\":17188:17197   */\n      dup4\n        /* \"#utility.yul\":17184:17201   */\n      add\n        /* \"#utility.yul\":17177:17224   */\n      mstore\n        /* \"#utility.yul\":17241:17372   */\n      tag_472\n        /* \"#utility.yul\":17367:17371   */\n      dup2\n        /* \"#utility.yul\":17241:17372   */\n      tag_302\n      jump\t// in\n    tag_472:\n        /* \"#utility.yul\":17233:17372   */\n      swap1\n      pop\n        /* \"#utility.yul\":16960:17379   */\n      swap2\n      swap1\n      pop\n      jump\t// out\n        /* \"#utility.yul\":17385:17827   */\n    tag_198:\n        /* \"#utility.yul\":17534:17538   */\n      0x00\n        /* \"#utility.yul\":17572:17574   */\n      0x60\n        /* \"#utility.yul\":17561:17570   */\n      dup3\n        /* \"#utility.yul\":17557:17575   */\n      add\n        /* \"#utility.yul\":17549:17575   */\n      swap1\n      pop\n        /* \"#utility.yul\":17585:17656   */\n      tag_474\n        /* \"#utility.yul\":17653:17654   */\n      0x00\n        /* \"#utility.yul\":17642:17651   */\n      dup4\n        /* \"#utility.yul\":17638:17655   */\n      add\n        /* \"#utility.yul\":17629:17635   */\n      dup7\n        /* \"#utility.yul\":17585:17656   */\n      tag_276\n      jump\t// in\n    tag_474:\n        /* \"#utility.yul\":17666:17738   */\n      tag_475\n        /* \"#utility.yul\":17734:17736   */\n      0x20\n        /* \"#utility.yul\":17723:17732   */\n      dup4\n        /* \"#utility.yul\":17719:17737   */\n      add\n        /* \"#utility.yul\":17710:17716   */\n      dup6\n        /* \"#utility.yul\":17666:17738   */\n      tag_276\n      jump\t// in\n    tag_475:\n        /* \"#utility.yul\":17748:17820   */\n      tag_476\n        /* \"#utility.yul\":17816:17818   */\n      0x40\n        /* \"#utility.yul\":17805:17814   */\n      dup4\n        /* \"#utility.yul\":17801:17819   */\n      add\n        /* \"#utility.yul\":17792:17798   */\n      dup5\n        /* \"#utility.yul\":17748:17820   */\n      tag_266\n      jump\t// in\n    tag_476:\n        /* \"#utility.yul\":17385:17827   */\n      swap5\n      swap4\n      pop\n      pop\n      pop\n      pop\n      jump\t// out\n        /* \"#utility.yul\":17833:18055   */\n    tag_303:\n        /* \"#utility.yul\":17973:18007   */\n      0x4769766520617070726f76616c2066726f6d20696e697469616c20746f207374\n        /* \"#utility.yul\":17969:17970   */\n      0x00\n        /* \"#utility.yul\":17961:17967   */\n      dup3\n        /* \"#utility.yul\":17957:17971   */\n      add\n        /* \"#utility.yul\":17950:18008   */\n      mstore\n        /* \"#utility.yul\":18042:18047   */\n      0x616b650000000000000000000000000000000000000000000000000000000000\n        /* \"#utility.yul\":18037:18039   */\n      0x20\n        /* \"#utility.yul\":18029:18035   */\n      dup3\n        /* \"#utility.yul\":18025:18040   */\n      add\n        /* \"#utility.yul\":18018:18048   */\n      mstore\n        /* \"#utility.yul\":17833:18055   */\n      pop\n      jump\t// out\n        /* \"#utility.yul\":18061:18427   */\n    tag_304:\n        /* \"#utility.yul\":18203:18206   */\n      0x00\n        /* \"#utility.yul\":18224:18291   */\n      tag_479\n        /* \"#utility.yul\":18288:18290   */\n      0x23\n        /* \"#utility.yul\":18283:18286   */\n      dup4\n        /* \"#utility.yul\":18224:18291   */\n      tag_291\n      jump\t// in\n    tag_479:\n        /* \"#utility.yul\":18217:18291   */\n      swap2\n      pop\n        /* \"#utility.yul\":18300:18393   */\n      tag_480\n        /* \"#utility.yul\":18389:18392   */\n      dup3\n        /* \"#utility.yul\":18300:18393   */\n      tag_303\n      jump\t// in\n    tag_480:\n        /* \"#utility.yul\":18418:18420   */\n      0x40\n        /* \"#utility.yul\":18413:18416   */\n      dup3\n        /* \"#utility.yul\":18409:18421   */\n      add\n        /* \"#utility.yul\":18402:18421   */\n      swap1\n      pop\n        /* \"#utility.yul\":18061:18427   */\n      swap2\n      swap1\n      pop\n      jump\t// out\n        /* \"#utility.yul\":18433:18852   */\n    tag_204:\n        /* \"#utility.yul\":18599:18603   */\n      0x00\n        /* \"#utility.yul\":18637:18639   */\n      0x20\n        /* \"#utility.yul\":18626:18635   */\n      dup3\n        /* \"#utility.yul\":18622:18640   */\n      add\n        /* \"#utility.yul\":18614:18640   */\n      swap1\n      pop\n        /* \"#utility.yul\":18686:18695   */\n      dup2\n        /* \"#utility.yul\":18680:18684   */\n      dup2\n        /* \"#utility.yul\":18676:18696   */\n      sub\n        /* \"#utility.yul\":18672:18673   */\n      0x00\n        /* \"#utility.yul\":18661:18670   */\n      dup4\n        /* \"#utility.yul\":18657:18674   */\n      add\n        /* \"#utility.yul\":18650:18697   */\n      mstore\n        /* \"#utility.yul\":18714:18845   */\n      tag_482\n        /* \"#utility.yul\":18840:18844   */\n      dup2\n        /* \"#utility.yul\":18714:18845   */\n      tag_304\n      jump\t// in\n    tag_482:\n        /* \"#utility.yul\":18706:18845   */\n      swap1\n      pop\n        /* \"#utility.yul\":18433:18852   */\n      swap2\n      swap1\n      pop\n      jump\t// out\n        /* \"#utility.yul\":18858:19049   */\n    tag_207:\n        /* \"#utility.yul\":18898:18901   */\n      0x00\n        /* \"#utility.yul\":18917:18937   */\n      tag_484\n        /* \"#utility.yul\":18935:18936   */\n      dup3\n        /* \"#utility.yul\":18917:18937   */\n      tag_265\n      jump\t// in\n    tag_484:\n        /* \"#utility.yul\":18912:18937   */\n      swap2\n      pop\n        /* \"#utility.yul\":18951:18971   */\n      tag_485\n        /* \"#utility.yul\":18969:18970   */\n      dup4\n        /* \"#utility.yul\":18951:18971   */\n      tag_265\n      jump\t// in\n    tag_485:\n        /* \"#utility.yul\":18946:18971   */\n      swap3\n      pop\n        /* \"#utility.yul\":18994:18995   */\n      dup3\n        /* \"#utility.yul\":18991:18992   */\n      dup3\n        /* \"#utility.yul\":18987:18996   */\n      add\n        /* \"#utility.yul\":18980:18996   */\n      swap1\n      pop\n        /* \"#utility.yul\":19015:19018   */\n      dup1\n        /* \"#utility.yul\":19012:19013   */\n      dup3\n        /* \"#utility.yul\":19009:19019   */\n      gt\n        /* \"#utility.yul\":19006:19042   */\n      iszero\n      tag_486\n      jumpi\n        /* \"#utility.yul\":19022:19040   */\n      tag_487\n      tag_290\n      jump\t// in\n    tag_487:\n        /* \"#utility.yul\":19006:19042   */\n    tag_486:\n        /* \"#utility.yul\":18858:19049   */\n      swap3\n      swap2\n      pop\n      pop\n      jump\t// out\n        /* \"#utility.yul\":19055:19465   */\n    tag_210:\n        /* \"#utility.yul\":19095:19102   */\n      0x00\n        /* \"#utility.yul\":19118:19138   */\n      tag_489\n        /* \"#utility.yul\":19136:19137   */\n      dup3\n        /* \"#utility.yul\":19118:19138   */\n      tag_265\n      jump\t// in\n    tag_489:\n        /* \"#utility.yul\":19113:19138   */\n      swap2\n      pop\n        /* \"#utility.yul\":19152:19172   */\n      tag_490\n        /* \"#utility.yul\":19170:19171   */\n      dup4\n        /* \"#utility.yul\":19152:19172   */\n      tag_265\n      jump\t// in\n    tag_490:\n        /* \"#utility.yul\":19147:19172   */\n      swap3\n      pop\n        /* \"#utility.yul\":19207:19208   */\n      dup3\n        /* \"#utility.yul\":19204:19205   */\n      dup3\n        /* \"#utility.yul\":19200:19209   */\n      mul\n        /* \"#utility.yul\":19229:19259   */\n      tag_491\n        /* \"#utility.yul\":19247:19258   */\n      dup2\n        /* \"#utility.yul\":19229:19259   */\n      tag_265\n      jump\t// in\n    tag_491:\n        /* \"#utility.yul\":19218:19259   */\n      swap2\n      pop\n        /* \"#utility.yul\":19408:19409   */\n      dup3\n        /* \"#utility.yul\":19399:19406   */\n      dup3\n        /* \"#utility.yul\":19395:19410   */\n      div\n        /* \"#utility.yul\":19392:19393   */\n      dup5\n        /* \"#utility.yul\":19389:19411   */\n      eq\n        /* \"#utility.yul\":19369:19370   */\n      dup4\n        /* \"#utility.yul\":19362:19371   */\n      iszero\n        /* \"#utility.yul\":19342:19425   */\n      or\n        /* \"#utility.yul\":19319:19458   */\n      tag_492\n      jumpi\n        /* \"#utility.yul\":19438:19456   */\n      tag_493\n      tag_290\n      jump\t// in\n    tag_493:\n        /* \"#utility.yul\":19319:19458   */\n    tag_492:\n        /* \"#utility.yul\":19103:19465   */\n      pop\n        /* \"#utility.yul\":19055:19465   */\n      swap3\n      swap2\n      pop\n      pop\n      jump\t// out\n        /* \"#utility.yul\":19471:19634   */\n    tag_305:\n        /* \"#utility.yul\":19611:19626   */\n      0x436f6f6c646f776e2054696d6500000000000000000000000000000000000000\n        /* \"#utility.yul\":19607:19608   */\n      0x00\n        /* \"#utility.yul\":19599:19605   */\n      dup3\n        /* \"#utility.yul\":19595:19609   */\n      add\n        /* \"#utility.yul\":19588:19627   */\n      mstore\n        /* \"#utility.yul\":19471:19634   */\n      pop\n      jump\t// out\n        /* \"#utility.yul\":19640:20006   */\n    tag_306:\n        /* \"#utility.yul\":19782:19785   */\n      0x00\n        /* \"#utility.yul\":19803:19870   */\n      tag_496\n        /* \"#utility.yul\":19867:19869   */\n      0x0d\n        /* \"#utility.yul\":19862:19865   */\n      dup4\n        /* \"#utility.yul\":19803:19870   */\n      tag_291\n      jump\t// in\n    tag_496:\n        /* \"#utility.yul\":19796:19870   */\n      swap2\n      pop\n        /* \"#utility.yul\":19879:19972   */\n      tag_497\n        /* \"#utility.yul\":19968:19971   */\n      dup3\n        /* \"#utility.yul\":19879:19972   */\n      tag_305\n      jump\t// in\n    tag_497:\n        /* \"#utility.yul\":19997:19999   */\n      0x20\n        /* \"#utility.yul\":19992:19995   */\n      dup3\n        /* \"#utility.yul\":19988:20000   */\n      add\n        /* \"#utility.yul\":19981:20000   */\n      swap1\n      pop\n        /* \"#utility.yul\":19640:20006   */\n      swap2\n      swap1\n      pop\n      jump\t// out\n        /* \"#utility.yul\":20012:20431   */\n    tag_218:\n        /* \"#utility.yul\":20178:20182   */\n      0x00\n        /* \"#utility.yul\":20216:20218   */\n      0x20\n        /* \"#utility.yul\":20205:20214   */\n      dup3\n        /* \"#utility.yul\":20201:20219   */\n      add\n        /* \"#utility.yul\":20193:20219   */\n      swap1\n      pop\n        /* \"#utility.yul\":20265:20274   */\n      dup2\n        /* \"#utility.yul\":20259:20263   */\n      dup2\n        /* \"#utility.yul\":20255:20275   */\n      sub\n        /* \"#utility.yul\":20251:20252   */\n      0x00\n        /* \"#utility.yul\":20240:20249   */\n      dup4\n        /* \"#utility.yul\":20236:20253   */\n      add\n        /* \"#utility.yul\":20229:20276   */\n      mstore\n        /* \"#utility.yul\":20293:20424   */\n      tag_499\n        /* \"#utility.yul\":20419:20423   */\n      dup2\n        /* \"#utility.yul\":20293:20424   */\n      tag_306\n      jump\t// in\n    tag_499:\n        /* \"#utility.yul\":20285:20424   */\n      swap1\n      pop\n        /* \"#utility.yul\":20012:20431   */\n      swap2\n      swap1\n      pop\n      jump\t// out\n        /* \"#utility.yul\":20437:20616   */\n    tag_307:\n        /* \"#utility.yul\":20577:20608   */\n      0x596f7520686176656e2774207374616b656420616e7920616d6f756e74000000\n        /* \"#utility.yul\":20573:20574   */\n      0x00\n        /* \"#utility.yul\":20565:20571   */\n      dup3\n        /* \"#utility.yul\":20561:20575   */\n      add\n        /* \"#utility.yul\":20554:20609   */\n      mstore\n        /* \"#utility.yul\":20437:20616   */\n      pop\n      jump\t// out\n        /* \"#utility.yul\":20622:20988   */\n    tag_308:\n        /* \"#utility.yul\":20764:20767   */\n      0x00\n        /* \"#utility.yul\":20785:20852   */\n      tag_502\n        /* \"#utility.yul\":20849:20851   */\n      0x1d\n        /* \"#utility.yul\":20844:20847   */\n      dup4\n        /* \"#utility.yul\":20785:20852   */\n      tag_291\n      jump\t// in\n    tag_502:\n        /* \"#utility.yul\":20778:20852   */\n      swap2\n      pop\n        /* \"#utility.yul\":20861:20954   */\n      tag_503\n        /* \"#utility.yul\":20950:20953   */\n      dup3\n        /* \"#utility.yul\":20861:20954   */\n      tag_307\n      jump\t// in\n    tag_503:\n        /* \"#utility.yul\":20979:20981   */\n      0x20\n        /* \"#utility.yul\":20974:20977   */\n      dup3\n        /* \"#utility.yul\":20970:20982   */\n      add\n        /* \"#utility.yul\":20963:20982   */\n      swap1\n      pop\n        /* \"#utility.yul\":20622:20988   */\n      swap2\n      swap1\n      pop\n      jump\t// out\n        /* \"#utility.yul\":20994:21413   */\n    tag_222:\n        /* \"#utility.yul\":21160:21164   */\n      0x00\n        /* \"#utility.yul\":21198:21200   */\n      0x20\n        /* \"#utility.yul\":21187:21196   */\n      dup3\n        /* \"#utility.yul\":21183:21201   */\n      add\n        /* \"#utility.yul\":21175:21201   */\n      swap1\n      pop\n        /* \"#utility.yul\":21247:21256   */\n      dup2\n        /* \"#utility.yul\":21241:21245   */\n      dup2\n        /* \"#utility.yul\":21237:21257   */\n      sub\n        /* \"#utility.yul\":21233:21234   */\n      0x00\n        /* \"#utility.yul\":21222:21231   */\n      dup4\n        /* \"#utility.yul\":21218:21235   */\n      add\n        /* \"#utility.yul\":21211:21258   */\n      mstore\n        /* \"#utility.yul\":21275:21406   */\n      tag_505\n        /* \"#utility.yul\":21401:21405   */\n      dup2\n        /* \"#utility.yul\":21275:21406   */\n      tag_308\n      jump\t// in\n    tag_505:\n        /* \"#utility.yul\":21267:21406   */\n      swap1\n      pop\n        /* \"#utility.yul\":20994:21413   */\n      swap2\n      swap1\n      pop\n      jump\t// out\n        /* \"#utility.yul\":21419:21587   */\n    tag_309:\n        /* \"#utility.yul\":21559:21579   */\n      0x4e6f2072657761726420746f20636c61696d0000000000000000000000000000\n        /* \"#utility.yul\":21555:21556   */\n      0x00\n        /* \"#utility.yul\":21547:21553   */\n      dup3\n        /* \"#utility.yul\":21543:21557   */\n      add\n        /* \"#utility.yul\":21536:21580   */\n      mstore\n        /* \"#utility.yul\":21419:21587   */\n      pop\n      jump\t// out\n        /* \"#utility.yul\":21593:21959   */\n    tag_310:\n        /* \"#utility.yul\":21735:21738   */\n      0x00\n        /* \"#utility.yul\":21756:21823   */\n      tag_508\n        /* \"#utility.yul\":21820:21822   */\n      0x12\n        /* \"#utility.yul\":21815:21818   */\n      dup4\n        /* \"#utility.yul\":21756:21823   */\n      tag_291\n      jump\t// in\n    tag_508:\n        /* \"#utility.yul\":21749:21823   */\n      swap2\n      pop\n        /* \"#utility.yul\":21832:21925   */\n      tag_509\n        /* \"#utility.yul\":21921:21924   */\n      dup3\n        /* \"#utility.yul\":21832:21925   */\n      tag_309\n      jump\t// in\n    tag_509:\n        /* \"#utility.yul\":21950:21952   */\n      0x20\n        /* \"#utility.yul\":21945:21948   */\n      dup3\n        /* \"#utility.yul\":21941:21953   */\n      add\n        /* \"#utility.yul\":21934:21953   */\n      swap1\n      pop\n        /* \"#utility.yul\":21593:21959   */\n      swap2\n      swap1\n      pop\n      jump\t// out\n        /* \"#utility.yul\":21965:22384   */\n    tag_235:\n        /* \"#utility.yul\":22131:22135   */\n      0x00\n        /* \"#utility.yul\":22169:22171   */\n      0x20\n        /* \"#utility.yul\":22158:22167   */\n      dup3\n        /* \"#utility.yul\":22154:22172   */\n      add\n        /* \"#utility.yul\":22146:22172   */\n      swap1\n      pop\n        /* \"#utility.yul\":22218:22227   */\n      dup2\n        /* \"#utility.yul\":22212:22216   */\n      dup2\n        /* \"#utility.yul\":22208:22228   */\n      sub\n        /* \"#utility.yul\":22204:22205   */\n      0x00\n        /* \"#utility.yul\":22193:22202   */\n      dup4\n        /* \"#utility.yul\":22189:22206   */\n      add\n        /* \"#utility.yul\":22182:22229   */\n      mstore\n        /* \"#utility.yul\":22246:22377   */\n      tag_511\n        /* \"#utility.yul\":22372:22376   */\n      dup2\n        /* \"#utility.yul\":22246:22377   */\n      tag_310\n      jump\t// in\n    tag_511:\n        /* \"#utility.yul\":22238:22377   */\n      swap1\n      pop\n        /* \"#utility.yul\":21965:22384   */\n      swap2\n      swap1\n      pop\n      jump\t// out\n        /* \"#utility.yul\":22390:22570   */\n    tag_311:\n        /* \"#utility.yul\":22438:22515   */\n      0x4e487b7100000000000000000000000000000000000000000000000000000000\n        /* \"#utility.yul\":22435:22436   */\n      0x00\n        /* \"#utility.yul\":22428:22516   */\n      mstore\n        /* \"#utility.yul\":22535:22539   */\n      0x12\n        /* \"#utility.yul\":22532:22533   */\n      0x04\n        /* \"#utility.yul\":22525:22540   */\n      mstore\n        /* \"#utility.yul\":22559:22563   */\n      0x24\n        /* \"#utility.yul\":22556:22557   */\n      0x00\n        /* \"#utility.yul\":22549:22564   */\n      revert\n        /* \"#utility.yul\":22576:22761   */\n    tag_248:\n        /* \"#utility.yul\":22616:22617   */\n      0x00\n        /* \"#utility.yul\":22633:22653   */\n      tag_514\n        /* \"#utility.yul\":22651:22652   */\n      dup3\n        /* \"#utility.yul\":22633:22653   */\n      tag_265\n      jump\t// in\n    tag_514:\n        /* \"#utility.yul\":22628:22653   */\n      swap2\n      pop\n        /* \"#utility.yul\":22667:22687   */\n      tag_515\n        /* \"#utility.yul\":22685:22686   */\n      dup4\n        /* \"#utility.yul\":22667:22687   */\n      tag_265\n      jump\t// in\n    tag_515:\n        /* \"#utility.yul\":22662:22687   */\n      swap3\n      pop\n        /* \"#utility.yul\":22706:22707   */\n      dup3\n        /* \"#utility.yul\":22696:22731   */\n      tag_516\n      jumpi\n        /* \"#utility.yul\":22711:22729   */\n      tag_517\n      tag_311\n      jump\t// in\n    tag_517:\n        /* \"#utility.yul\":22696:22731   */\n    tag_516:\n        /* \"#utility.yul\":22753:22754   */\n      dup3\n        /* \"#utility.yul\":22750:22751   */\n      dup3\n        /* \"#utility.yul\":22746:22755   */\n      div\n        /* \"#utility.yul\":22741:22755   */\n      swap1\n      pop\n        /* \"#utility.yul\":22576:22761   */\n      swap3\n      swap2\n      pop\n      pop\n      jump\t// out\n\n    auxdata: 0xa26469706673582212206b7577b14fa31c322171130a717455efa4668fb726e1d6f114b12d2d5f93678d64736f6c63430008150033\n}\n",
				"bytecode": {
					"linkReferences": {},
					"object": "6080604052600160035534801562000015575f80fd5b50604051620020853803806200208583398181016040528101906200003b919062000127565b8060015f6101000a81548173ffffffffffffffffffffffffffffffffffffffff021916908373ffffffffffffffffffffffffffffffffffffffff1602179055503360025f6101000a81548173ffffffffffffffffffffffffffffffffffffffff021916908373ffffffffffffffffffffffffffffffffffffffff1602179055505062000157565b5f80fd5b5f73ffffffffffffffffffffffffffffffffffffffff82169050919050565b5f620000f182620000c6565b9050919050565b6200010381620000e5565b81146200010e575f80fd5b50565b5f815190506200012181620000f8565b92915050565b5f602082840312156200013f576200013e620000c2565b5b5f6200014e8482850162000111565b91505092915050565b611f2080620001655f395ff3fe608060405234801561000f575f80fd5b50600436106100fd575f3560e01c8063c392f76611610095578063d5a44f8611610064578063d5a44f86146102e4578063d80e870014610317578063f3a93e8014610335578063fc0c546a14610351576100fd565b8063c392f76614610249578063c935297114610267578063c9ec05ea14610298578063d279c191146102c8576100fd565b806378317be7116100d157806378317be7146101c15780638b7afe2e146101dd5780638da5cb5b146101fb57806390eb298114610219576100fd565b806264f50c146101015780630700037d146101315780630a42f049146101615780632671b0d814610191575b5f80fd5b61011b6004803603810190610116919061144f565b61036f565b6040516101289190611494565b60405180910390f35b61014b6004803603810190610146919061144f565b6103d0565b60405161015891906114c5565b60405180910390f35b61017b60048036038101906101769190611508565b6103e5565b60405161018891906114c5565b60405180910390f35b6101ab60048036038101906101a6919061144f565b610402565b6040516101b891906115ea565b60405180910390f35b6101db60048036038101906101d6919061144f565b6105ab565b005b6101e561079f565b6040516101f291906114c5565b60405180910390f35b61020361083e565b6040516102109190611619565b60405180910390f35b610233600480360381019061022e9190611508565b610863565b6040516102409190611619565b60405180910390f35b610251610893565b60405161025e91906114c5565b60405180910390f35b610281600480360381019061027c919061144f565b610899565b60405161028f92919061173c565b60405180910390f35b6102b260048036038101906102ad9190611771565b610b16565b6040516102bf91906114c5565b60405180910390f35b6102e260048036038101906102dd919061144f565b610ea8565b005b6102fe60048036038101906102f99190611508565b61116f565b60405161030e94939291906117af565b60405180910390f35b61031f6111a7565b60405161032c91906114c5565b60405180910390f35b61034f600480360381019061034a9190611508565b6111ae565b005b61035961136e565b604051610366919061184d565b60405180910390f35b5f8060075f8473ffffffffffffffffffffffffffffffffffffffff1673ffffffffffffffffffffffffffffffffffffffff1681526020019081526020015f20541180156103c957506078426004546103c79190611893565b115b9050919050565b6007602052805f5260405f205f915090505481565b5f60065f8381526020019081526020015f20600101549050919050565b60605f805b6104105f611393565b811161049b578373ffffffffffffffffffffffffffffffffffffffff1660055f8381526020019081526020015f205f9054906101000a900473ffffffffffffffffffffffffffffffffffffffff1673ffffffffffffffffffffffffffffffffffffffff1603610488578180610484906118c6565b9250505b8080610493906118c6565b915050610407565b505f8167ffffffffffffffff8111156104b7576104b661190d565b5b6040519080825280602002602001820160405280156104e55781602001602082028036833780820191505090505b5090505f805b6104f45f611393565b811161059f578573ffffffffffffffffffffffffffffffffffffffff1660055f8381526020019081526020015f205f9054906101000a900473ffffffffffffffffffffffffffffffffffffffff1673ffffffffffffffffffffffffffffffffffffffff160361058c57808383815181106105715761057061193a565b5b6020026020010181815250508180610588906118c6565b9250505b8080610597906118c6565b9150506104eb565b50819350505050919050565b5f6105b582610402565b90505f8151116105fa576040517f08c379a00000000000000000000000000000000000000000000000000000000081526004016105f1906119c1565b60405180910390fd5b5f5b815181101561079a5760065f83838151811061061b5761061a61193a565b5b602002602001015181526020019081526020015f206003015f9054906101000a900460ff166107875760015f9054906101000a900473ffffffffffffffffffffffffffffffffffffffff1673ffffffffffffffffffffffffffffffffffffffff1663a9059cbb3360065f8686815181106106985761069761193a565b5b602002602001015181526020019081526020015f205f01546040518363ffffffff1660e01b81526004016106cd9291906119df565b6020604051808303815f875af11580156106e9573d5f803e3d5ffd5b505050506040513d601f19601f8201168201806040525081019061070d9190611a30565b505f60065f8484815181106107255761072461193a565b5b602002602001015181526020019081526020015f205f0181905550600160065f8484815181106107585761075761193a565b5b602002602001015181526020019081526020015f206003015f6101000a81548160ff0219169083151502179055505b8080610792906118c6565b9150506105fc565b505050565b5f60015f9054906101000a900473ffffffffffffffffffffffffffffffffffffffff1673ffffffffffffffffffffffffffffffffffffffff166370a08231306040518263ffffffff1660e01b81526004016107fa9190611619565b602060405180830381865afa158015610815573d5f803e3d5ffd5b505050506040513d601f19601f820116820180604052508101906108399190611a6f565b905090565b60025f9054906101000a900473ffffffffffffffffffffffffffffffffffffffff1681565b6005602052805f5260405f205f915054906101000a900473ffffffffffffffffffffffffffffffffffffffff1681565b60035481565b6060805f805b6108a85f611393565b8111610933578473ffffffffffffffffffffffffffffffffffffffff1660055f8381526020019081526020015f205f9054906101000a900473ffffffffffffffffffffffffffffffffffffffff1673ffffffffffffffffffffffffffffffffffffffff160361092057818061091c906118c6565b9250505b808061092b906118c6565b91505061089f565b505f8167ffffffffffffffff81111561094f5761094e61190d565b5b60405190808252806020026020018201604052801561098857816020015b6109756113cb565b81526020019060019003908161096d5790505b5090505f8267ffffffffffffffff8111156109a6576109a561190d565b5b6040519080825280602002602001820160405280156109d45781602001602082028036833780820191505090505b5090505f805b6109e35f611393565b8111610b06578773ffffffffffffffffffffffffffffffffffffffff1660055f8381526020019081526020015f205f9054906101000a900473ffffffffffffffffffffffffffffffffffffffff1673ffffffffffffffffffffffffffffffffffffffff1603610aec5760065f8281526020019081526020015f206040518060800160405290815f82015481526020016001820154815260200160028201548152602001600382015f9054906101000a900460ff161515151581525050848381518110610ab257610ab161193a565b5b602002602001018190525080838381518110610ad157610ad061193a565b5b6020026020010181815250508180610ae8906118c6565b9250505b848211610b06578080610afe906118c6565b9150506109da565b5081839550955050505050915091565b5f610b205f61139f565b5f8311610b62576040517f08c379a0000000000000000000000000000000000000000000000000000000008152600401610b5990611ae4565b60405180910390fd5b8260015f9054906101000a900473ffffffffffffffffffffffffffffffffffffffff1673ffffffffffffffffffffffffffffffffffffffff166370a08231336040518263ffffffff1660e01b8152600401610bbd9190611619565b602060405180830381865afa158015610bd8573d5f803e3d5ffd5b505050506040513d601f19601f82011682018060405250810190610bfc9190611a6f565b1015610c3d576040517f08c379a0000000000000000000000000000000000000000000000000000000008152600401610c3490611b72565b60405180910390fd5b6002821480610c4c5750600482145b80610c575750600682145b80610c625750600882145b80610c6d5750600a82145b610cac576040517f08c379a0000000000000000000000000000000000000000000000000000000008152600401610ca390611c00565b60405180910390fd5b5f4290503360055f610cbd5f611393565b81526020019081526020015f205f6101000a81548173ffffffffffffffffffffffffffffffffffffffff021916908373ffffffffffffffffffffffffffffffffffffffff16021790555060015f9054906101000a900473ffffffffffffffffffffffffffffffffffffffff1673ffffffffffffffffffffffffffffffffffffffff166323b872dd3330876040518463ffffffff1660e01b8152600401610d6593929190611c1e565b6020604051808303815f875af1158015610d81573d5f803e3d5ffd5b505050506040513d601f19601f82011682018060405250810190610da59190611a30565b610de4576040517f08c379a0000000000000000000000000000000000000000000000000000000008152600401610ddb90611cc3565b60405180910390fd5b8360065f610df15f611393565b81526020019081526020015f205f015f828254610e0e9190611ce1565b925050819055508060065f610e225f611393565b81526020019081526020015f2060010181905550603c83610e439190611d14565b60065f610e4f5f611393565b81526020019081526020015f20600201819055505f60065f610e705f611393565b81526020019081526020015f206003015f6101000a81548160ff021916908315150217905550610e9f5f611393565b91505092915050565b607842600454610eb89190611893565b11610ef8576040517f08c379a0000000000000000000000000000000000000000000000000000000008152600401610eef90611d9f565b60405180910390fd5b426004819055505f610f0982610402565b90505f815111610f4e576040517f08c379a0000000000000000000000000000000000000000000000000000000008152600401610f4590611e07565b60405180910390fd5b5f5b8151811015610fcf5760065f838381518110610f6f57610f6e61193a565b5b602002602001015181526020019081526020015f206003015f9054906101000a900460ff16610fbc57610fbb828281518110610fae57610fad61193a565b5b60200260200101516111ae565b5b8080610fc7906118c6565b915050610f50565b505f60075f8473ffffffffffffffffffffffffffffffffffffffff1673ffffffffffffffffffffffffffffffffffffffff1681526020019081526020015f20541161104f576040517f08c379a000000000000000000000000000000000000000000000000000000000815260040161104690611e6f565b60405180910390fd5b60015f9054906101000a900473ffffffffffffffffffffffffffffffffffffffff1673ffffffffffffffffffffffffffffffffffffffff1663a9059cbb3360075f8673ffffffffffffffffffffffffffffffffffffffff1673ffffffffffffffffffffffffffffffffffffffff1681526020019081526020015f20546040518363ffffffff1660e01b81526004016110e89291906119df565b6020604051808303815f875af1158015611104573d5f803e3d5ffd5b505050506040513d601f19601f820116820180604052508101906111289190611a30565b505f60075f8473ffffffffffffffffffffffffffffffffffffffff1673ffffffffffffffffffffffffffffffffffffffff1681526020019081526020015f20819055505050565b6006602052805f5260405f205f91509050805f015490806001015490806002015490806003015f9054906101000a900460ff16905084565b5f42905090565b5f4290505f60065f8481526020019081526020015f2060010154826111d39190611893565b90505f6111f48260065f8781526020019081526020015f20600201546113b3565b905060648160035460065f8881526020019081526020015f205f015461121a9190611d14565b6112249190611d14565b61122e9190611eba565b60075f60055f8881526020019081526020015f205f9054906101000a900473ffffffffffffffffffffffffffffffffffffffff1673ffffffffffffffffffffffffffffffffffffffff1673ffffffffffffffffffffffffffffffffffffffff1681526020019081526020015f20546112a69190611ce1565b60075f60055f8881526020019081526020015f205f9054906101000a900473ffffffffffffffffffffffffffffffffffffffff1673ffffffffffffffffffffffffffffffffffffffff1673ffffffffffffffffffffffffffffffffffffffff1681526020019081526020015f20819055508260065f8681526020019081526020015f20600101819055508060065f8681526020019081526020015f20600201546113509190611893565b60065f8681526020019081526020015f206002018190555050505050565b60015f9054906101000a900473ffffffffffffffffffffffffffffffffffffffff1681565b5f815f01549050919050565b6001815f015f828254019250508190555050565b5f8183106113c157816113c3565b825b905092915050565b60405180608001604052805f81526020015f81526020015f81526020015f151581525090565b5f80fd5b5f73ffffffffffffffffffffffffffffffffffffffff82169050919050565b5f61141e826113f5565b9050919050565b61142e81611414565b8114611438575f80fd5b50565b5f8135905061144981611425565b92915050565b5f60208284031215611464576114636113f1565b5b5f6114718482850161143b565b91505092915050565b5f8115159050919050565b61148e8161147a565b82525050565b5f6020820190506114a75f830184611485565b92915050565b5f819050919050565b6114bf816114ad565b82525050565b5f6020820190506114d85f8301846114b6565b92915050565b6114e7816114ad565b81146114f1575f80fd5b50565b5f81359050611502816114de565b92915050565b5f6020828403121561151d5761151c6113f1565b5b5f61152a848285016114f4565b91505092915050565b5f81519050919050565b5f82825260208201905092915050565b5f819050602082019050919050565b611565816114ad565b82525050565b5f611576838361155c565b60208301905092915050565b5f602082019050919050565b5f61159882611533565b6115a2818561153d565b93506115ad8361154d565b805f5b838110156115dd5781516115c4888261156b565b97506115cf83611582565b9250506001810190506115b0565b5085935050505092915050565b5f6020820190508181035f830152611602818461158e565b905092915050565b61161381611414565b82525050565b5f60208201905061162c5f83018461160a565b92915050565b5f81519050919050565b5f82825260208201905092915050565b5f819050602082019050919050565b6116648161147a565b82525050565b608082015f82015161167e5f85018261155c565b506020820151611691602085018261155c565b5060408201516116a4604085018261155c565b5060608201516116b7606085018261165b565b50505050565b5f6116c8838361166a565b60808301905092915050565b5f602082019050919050565b5f6116ea82611632565b6116f4818561163c565b93506116ff8361164c565b805f5b8381101561172f57815161171688826116bd565b9750611721836116d4565b925050600181019050611702565b5085935050505092915050565b5f6040820190508181035f830152611754818561158e565b9050818103602083015261176881846116e0565b90509392505050565b5f8060408385031215611787576117866113f1565b5b5f611794858286016114f4565b92505060206117a5858286016114f4565b9150509250929050565b5f6080820190506117c25f8301876114b6565b6117cf60208301866114b6565b6117dc60408301856114b6565b6117e96060830184611485565b95945050505050565b5f819050919050565b5f61181561181061180b846113f5565b6117f2565b6113f5565b9050919050565b5f611826826117fb565b9050919050565b5f6118378261181c565b9050919050565b6118478161182d565b82525050565b5f6020820190506118605f83018461183e565b92915050565b7f4e487b71000000000000000000000000000000000000000000000000000000005f52601160045260245ffd5b5f61189d826114ad565b91506118a8836114ad565b92508282039050818111156118c0576118bf611866565b5b92915050565b5f6118d0826114ad565b91507fffffffffffffffffffffffffffffffffffffffffffffffffffffffffffffffff820361190257611901611866565b5b600182019050919050565b7f4e487b71000000000000000000000000000000000000000000000000000000005f52604160045260245ffd5b7f4e487b71000000000000000000000000000000000000000000000000000000005f52603260045260245ffd5b5f82825260208201905092915050565b7f4e6f20616d6f756e74207374616b6564000000000000000000000000000000005f82015250565b5f6119ab601083611967565b91506119b682611977565b602082019050919050565b5f6020820190508181035f8301526119d88161199f565b9050919050565b5f6040820190506119f25f83018561160a565b6119ff60208301846114b6565b9392505050565b611a0f8161147a565b8114611a19575f80fd5b50565b5f81519050611a2a81611a06565b92915050565b5f60208284031215611a4557611a446113f1565b5b5f611a5284828501611a1c565b91505092915050565b5f81519050611a69816114de565b92915050565b5f60208284031215611a8457611a836113f1565b5b5f611a9184828501611a5b565b91505092915050565b7f4d757374207374616b65206d6f7265207468616e207a65726f20746f6b656e735f82015250565b5f611ace602083611967565b9150611ad982611a9a565b602082019050919050565b5f6020820190508181035f830152611afb81611ac2565b9050919050565b7f4e6f7420456e6f7567682042616c616e636520546f6b656e7320546f205374615f8201527f6b65000000000000000000000000000000000000000000000000000000000000602082015250565b5f611b5c602283611967565b9150611b6782611b02565b604082019050919050565b5f6020820190508181035f830152611b8981611b50565b9050919050565b7f5461727269662063616e204f6e6c79206265206f6620322c342c362c382c31305f8201527f204d696e75746573000000000000000000000000000000000000000000000000602082015250565b5f611bea602883611967565b9150611bf582611b90565b604082019050919050565b5f6020820190508181035f830152611c1781611bde565b9050919050565b5f606082019050611c315f83018661160a565b611c3e602083018561160a565b611c4b60408301846114b6565b949350505050565b7f4769766520617070726f76616c2066726f6d20696e697469616c20746f2073745f8201527f616b650000000000000000000000000000000000000000000000000000000000602082015250565b5f611cad602383611967565b9150611cb882611c53565b604082019050919050565b5f6020820190508181035f830152611cda81611ca1565b9050919050565b5f611ceb826114ad565b9150611cf6836114ad565b9250828201905080821115611d0e57611d0d611866565b5b92915050565b5f611d1e826114ad565b9150611d29836114ad565b9250828202611d37816114ad565b91508282048414831517611d4e57611d4d611866565b5b5092915050565b7f436f6f6c646f776e2054696d65000000000000000000000000000000000000005f82015250565b5f611d89600d83611967565b9150611d9482611d55565b602082019050919050565b5f6020820190508181035f830152611db681611d7d565b9050919050565b7f596f7520686176656e2774207374616b656420616e7920616d6f756e740000005f82015250565b5f611df1601d83611967565b9150611dfc82611dbd565b602082019050919050565b5f6020820190508181035f830152611e1e81611de5565b9050919050565b7f4e6f2072657761726420746f20636c61696d00000000000000000000000000005f82015250565b5f611e59601283611967565b9150611e6482611e25565b602082019050919050565b5f6020820190508181035f830152611e8681611e4d565b9050919050565b7f4e487b71000000000000000000000000000000000000000000000000000000005f52601260045260245ffd5b5f611ec4826114ad565b9150611ecf836114ad565b925082611edf57611ede611e8d565b5b82820490509291505056fea26469706673582212206b7577b14fa31c322171130a717455efa4668fb726e1d6f114b12d2d5f93678d64736f6c63430008150033",
					"opcodes": "PUSH1 0x80 PUSH1 0x40 MSTORE PUSH1 0x1 PUSH1 0x3 SSTORE CALLVALUE DUP1 ISZERO PUSH3 0x15 JUMPI PUSH0 DUP1 REVERT JUMPDEST POP PUSH1 0x40 MLOAD PUSH3 0x2085 CODESIZE SUB DUP1 PUSH3 0x2085 DUP4 CODECOPY DUP2 DUP2 ADD PUSH1 0x40 MSTORE DUP2 ADD SWAP1 PUSH3 0x3B SWAP2 SWAP1 PUSH3 0x127 JUMP JUMPDEST DUP1 PUSH1 0x1 PUSH0 PUSH2 0x100 EXP DUP2 SLOAD DUP2 PUSH20 0xFFFFFFFFFFFFFFFFFFFFFFFFFFFFFFFFFFFFFFFF MUL NOT AND SWAP1 DUP4 PUSH20 0xFFFFFFFFFFFFFFFFFFFFFFFFFFFFFFFFFFFFFFFF AND MUL OR SWAP1 SSTORE POP CALLER PUSH1 0x2 PUSH0 PUSH2 0x100 EXP DUP2 SLOAD DUP2 PUSH20 0xFFFFFFFFFFFFFFFFFFFFFFFFFFFFFFFFFFFFFFFF MUL NOT AND SWAP1 DUP4 PUSH20 0xFFFFFFFFFFFFFFFFFFFFFFFFFFFFFFFFFFFFFFFF AND MUL OR SWAP1 SSTORE POP POP PUSH3 0x157 JUMP JUMPDEST PUSH0 DUP1 REVERT JUMPDEST PUSH0 PUSH20 0xFFFFFFFFFFFFFFFFFFFFFFFFFFFFFFFFFFFFFFFF DUP3 AND SWAP1 POP SWAP2 SWAP1 POP JUMP JUMPDEST PUSH0 PUSH3 0xF1 DUP3 PUSH3 0xC6 JUMP JUMPDEST SWAP1 POP SWAP2 SWAP1 POP JUMP JUMPDEST PUSH3 0x103 DUP2 PUSH3 0xE5 JUMP JUMPDEST DUP2 EQ PUSH3 0x10E JUMPI PUSH0 DUP1 REVERT JUMPDEST POP JUMP JUMPDEST PUSH0 DUP2 MLOAD SWAP1 POP PUSH3 0x121 DUP2 PUSH3 0xF8 JUMP JUMPDEST SWAP3 SWAP2 POP POP JUMP JUMPDEST PUSH0 PUSH1 0x20 DUP3 DUP5 SUB SLT ISZERO PUSH3 0x13F JUMPI PUSH3 0x13E PUSH3 0xC2 JUMP JUMPDEST JUMPDEST PUSH0 PUSH3 0x14E DUP5 DUP3 DUP6 ADD PUSH3 0x111 JUMP JUMPDEST SWAP2 POP POP SWAP3 SWAP2 POP POP JUMP JUMPDEST PUSH2 0x1F20 DUP1 PUSH3 0x165 PUSH0 CODECOPY PUSH0 RETURN INVALID PUSH1 0x80 PUSH1 0x40 MSTORE CALLVALUE DUP1 ISZERO PUSH2 0xF JUMPI PUSH0 DUP1 REVERT JUMPDEST POP PUSH1 0x4 CALLDATASIZE LT PUSH2 0xFD JUMPI PUSH0 CALLDATALOAD PUSH1 0xE0 SHR DUP1 PUSH4 0xC392F766 GT PUSH2 0x95 JUMPI DUP1 PUSH4 0xD5A44F86 GT PUSH2 0x64 JUMPI DUP1 PUSH4 0xD5A44F86 EQ PUSH2 0x2E4 JUMPI DUP1 PUSH4 0xD80E8700 EQ PUSH2 0x317 JUMPI DUP1 PUSH4 0xF3A93E80 EQ PUSH2 0x335 JUMPI DUP1 PUSH4 0xFC0C546A EQ PUSH2 0x351 JUMPI PUSH2 0xFD JUMP JUMPDEST DUP1 PUSH4 0xC392F766 EQ PUSH2 0x249 JUMPI DUP1 PUSH4 0xC9352971 EQ PUSH2 0x267 JUMPI DUP1 PUSH4 0xC9EC05EA EQ PUSH2 0x298 JUMPI DUP1 PUSH4 0xD279C191 EQ PUSH2 0x2C8 JUMPI PUSH2 0xFD JUMP JUMPDEST DUP1 PUSH4 0x78317BE7 GT PUSH2 0xD1 JUMPI DUP1 PUSH4 0x78317BE7 EQ PUSH2 0x1C1 JUMPI DUP1 PUSH4 0x8B7AFE2E EQ PUSH2 0x1DD JUMPI DUP1 PUSH4 0x8DA5CB5B EQ PUSH2 0x1FB JUMPI DUP1 PUSH4 0x90EB2981 EQ PUSH2 0x219 JUMPI PUSH2 0xFD JUMP JUMPDEST DUP1 PUSH3 0x64F50C EQ PUSH2 0x101 JUMPI DUP1 PUSH4 0x700037D EQ PUSH2 0x131 JUMPI DUP1 PUSH4 0xA42F049 EQ PUSH2 0x161 JUMPI DUP1 PUSH4 0x2671B0D8 EQ PUSH2 0x191 JUMPI JUMPDEST PUSH0 DUP1 REVERT JUMPDEST PUSH2 0x11B PUSH1 0x4 DUP1 CALLDATASIZE SUB DUP2 ADD SWAP1 PUSH2 0x116 SWAP2 SWAP1 PUSH2 0x144F JUMP JUMPDEST PUSH2 0x36F JUMP JUMPDEST PUSH1 0x40 MLOAD PUSH2 0x128 SWAP2 SWAP1 PUSH2 0x1494 JUMP JUMPDEST PUSH1 0x40 MLOAD DUP1 SWAP2 SUB SWAP1 RETURN JUMPDEST PUSH2 0x14B PUSH1 0x4 DUP1 CALLDATASIZE SUB DUP2 ADD SWAP1 PUSH2 0x146 SWAP2 SWAP1 PUSH2 0x144F JUMP JUMPDEST PUSH2 0x3D0 JUMP JUMPDEST PUSH1 0x40 MLOAD PUSH2 0x158 SWAP2 SWAP1 PUSH2 0x14C5 JUMP JUMPDEST PUSH1 0x40 MLOAD DUP1 SWAP2 SUB SWAP1 RETURN JUMPDEST PUSH2 0x17B PUSH1 0x4 DUP1 CALLDATASIZE SUB DUP2 ADD SWAP1 PUSH2 0x176 SWAP2 SWAP1 PUSH2 0x1508 JUMP JUMPDEST PUSH2 0x3E5 JUMP JUMPDEST PUSH1 0x40 MLOAD PUSH2 0x188 SWAP2 SWAP1 PUSH2 0x14C5 JUMP JUMPDEST PUSH1 0x40 MLOAD DUP1 SWAP2 SUB SWAP1 RETURN JUMPDEST PUSH2 0x1AB PUSH1 0x4 DUP1 CALLDATASIZE SUB DUP2 ADD SWAP1 PUSH2 0x1A6 SWAP2 SWAP1 PUSH2 0x144F JUMP JUMPDEST PUSH2 0x402 JUMP JUMPDEST PUSH1 0x40 MLOAD PUSH2 0x1B8 SWAP2 SWAP1 PUSH2 0x15EA JUMP JUMPDEST PUSH1 0x40 MLOAD DUP1 SWAP2 SUB SWAP1 RETURN JUMPDEST PUSH2 0x1DB PUSH1 0x4 DUP1 CALLDATASIZE SUB DUP2 ADD SWAP1 PUSH2 0x1D6 SWAP2 SWAP1 PUSH2 0x144F JUMP JUMPDEST PUSH2 0x5AB JUMP JUMPDEST STOP JUMPDEST PUSH2 0x1E5 PUSH2 0x79F JUMP JUMPDEST PUSH1 0x40 MLOAD PUSH2 0x1F2 SWAP2 SWAP1 PUSH2 0x14C5 JUMP JUMPDEST PUSH1 0x40 MLOAD DUP1 SWAP2 SUB SWAP1 RETURN JUMPDEST PUSH2 0x203 PUSH2 0x83E JUMP JUMPDEST PUSH1 0x40 MLOAD PUSH2 0x210 SWAP2 SWAP1 PUSH2 0x1619 JUMP JUMPDEST PUSH1 0x40 MLOAD DUP1 SWAP2 SUB SWAP1 RETURN JUMPDEST PUSH2 0x233 PUSH1 0x4 DUP1 CALLDATASIZE SUB DUP2 ADD SWAP1 PUSH2 0x22E SWAP2 SWAP1 PUSH2 0x1508 JUMP JUMPDEST PUSH2 0x863 JUMP JUMPDEST PUSH1 0x40 MLOAD PUSH2 0x240 SWAP2 SWAP1 PUSH2 0x1619 JUMP JUMPDEST PUSH1 0x40 MLOAD DUP1 SWAP2 SUB SWAP1 RETURN JUMPDEST PUSH2 0x251 PUSH2 0x893 JUMP JUMPDEST PUSH1 0x40 MLOAD PUSH2 0x25E SWAP2 SWAP1 PUSH2 0x14C5 JUMP JUMPDEST PUSH1 0x40 MLOAD DUP1 SWAP2 SUB SWAP1 RETURN JUMPDEST PUSH2 0x281 PUSH1 0x4 DUP1 CALLDATASIZE SUB DUP2 ADD SWAP1 PUSH2 0x27C SWAP2 SWAP1 PUSH2 0x144F JUMP JUMPDEST PUSH2 0x899 JUMP JUMPDEST PUSH1 0x40 MLOAD PUSH2 0x28F SWAP3 SWAP2 SWAP1 PUSH2 0x173C JUMP JUMPDEST PUSH1 0x40 MLOAD DUP1 SWAP2 SUB SWAP1 RETURN JUMPDEST PUSH2 0x2B2 PUSH1 0x4 DUP1 CALLDATASIZE SUB DUP2 ADD SWAP1 PUSH2 0x2AD SWAP2 SWAP1 PUSH2 0x1771 JUMP JUMPDEST PUSH2 0xB16 JUMP JUMPDEST PUSH1 0x40 MLOAD PUSH2 0x2BF SWAP2 SWAP1 PUSH2 0x14C5 JUMP JUMPDEST PUSH1 0x40 MLOAD DUP1 SWAP2 SUB SWAP1 RETURN JUMPDEST PUSH2 0x2E2 PUSH1 0x4 DUP1 CALLDATASIZE SUB DUP2 ADD SWAP1 PUSH2 0x2DD SWAP2 SWAP1 PUSH2 0x144F JUMP JUMPDEST PUSH2 0xEA8 JUMP JUMPDEST STOP JUMPDEST PUSH2 0x2FE PUSH1 0x4 DUP1 CALLDATASIZE SUB DUP2 ADD SWAP1 PUSH2 0x2F9 SWAP2 SWAP1 PUSH2 0x1508 JUMP JUMPDEST PUSH2 0x116F JUMP JUMPDEST PUSH1 0x40 MLOAD PUSH2 0x30E SWAP5 SWAP4 SWAP3 SWAP2 SWAP1 PUSH2 0x17AF JUMP JUMPDEST PUSH1 0x40 MLOAD DUP1 SWAP2 SUB SWAP1 RETURN JUMPDEST PUSH2 0x31F PUSH2 0x11A7 JUMP JUMPDEST PUSH1 0x40 MLOAD PUSH2 0x32C SWAP2 SWAP1 PUSH2 0x14C5 JUMP JUMPDEST PUSH1 0x40 MLOAD DUP1 SWAP2 SUB SWAP1 RETURN JUMPDEST PUSH2 0x34F PUSH1 0x4 DUP1 CALLDATASIZE SUB DUP2 ADD SWAP1 PUSH2 0x34A SWAP2 SWAP1 PUSH2 0x1508 JUMP JUMPDEST PUSH2 0x11AE JUMP JUMPDEST STOP JUMPDEST PUSH2 0x359 PUSH2 0x136E JUMP JUMPDEST PUSH1 0x40 MLOAD PUSH2 0x366 SWAP2 SWAP1 PUSH2 0x184D JUMP JUMPDEST PUSH1 0x40 MLOAD DUP1 SWAP2 SUB SWAP1 RETURN JUMPDEST PUSH0 DUP1 PUSH1 0x7 PUSH0 DUP5 PUSH20 0xFFFFFFFFFFFFFFFFFFFFFFFFFFFFFFFFFFFFFFFF AND PUSH20 0xFFFFFFFFFFFFFFFFFFFFFFFFFFFFFFFFFFFFFFFF AND DUP2 MSTORE PUSH1 0x20 ADD SWAP1 DUP2 MSTORE PUSH1 0x20 ADD PUSH0 KECCAK256 SLOAD GT DUP1 ISZERO PUSH2 0x3C9 JUMPI POP PUSH1 0x78 TIMESTAMP PUSH1 0x4 SLOAD PUSH2 0x3C7 SWAP2 SWAP1 PUSH2 0x1893 JUMP JUMPDEST GT JUMPDEST SWAP1 POP SWAP2 SWAP1 POP JUMP JUMPDEST PUSH1 0x7 PUSH1 0x20 MSTORE DUP1 PUSH0 MSTORE PUSH1 0x40 PUSH0 KECCAK256 PUSH0 SWAP2 POP SWAP1 POP SLOAD DUP2 JUMP JUMPDEST PUSH0 PUSH1 0x6 PUSH0 DUP4 DUP2 MSTORE PUSH1 0x20 ADD SWAP1 DUP2 MSTORE PUSH1 0x20 ADD PUSH0 KECCAK256 PUSH1 0x1 ADD SLOAD SWAP1 POP SWAP2 SWAP1 POP JUMP JUMPDEST PUSH1 0x60 PUSH0 DUP1 JUMPDEST PUSH2 0x410 PUSH0 PUSH2 0x1393 JUMP JUMPDEST DUP2 GT PUSH2 0x49B JUMPI DUP4 PUSH20 0xFFFFFFFFFFFFFFFFFFFFFFFFFFFFFFFFFFFFFFFF AND PUSH1 0x5 PUSH0 DUP4 DUP2 MSTORE PUSH1 0x20 ADD SWAP1 DUP2 MSTORE PUSH1 0x20 ADD PUSH0 KECCAK256 PUSH0 SWAP1 SLOAD SWAP1 PUSH2 0x100 EXP SWAP1 DIV PUSH20 0xFFFFFFFFFFFFFFFFFFFFFFFFFFFFFFFFFFFFFFFF AND PUSH20 0xFFFFFFFFFFFFFFFFFFFFFFFFFFFFFFFFFFFFFFFF AND SUB PUSH2 0x488 JUMPI DUP2 DUP1 PUSH2 0x484 SWAP1 PUSH2 0x18C6 JUMP JUMPDEST SWAP3 POP POP JUMPDEST DUP1 DUP1 PUSH2 0x493 SWAP1 PUSH2 0x18C6 JUMP JUMPDEST SWAP2 POP POP PUSH2 0x407 JUMP JUMPDEST POP PUSH0 DUP2 PUSH8 0xFFFFFFFFFFFFFFFF DUP2 GT ISZERO PUSH2 0x4B7 JUMPI PUSH2 0x4B6 PUSH2 0x190D JUMP JUMPDEST JUMPDEST PUSH1 0x40 MLOAD SWAP1 DUP1 DUP3 MSTORE DUP1 PUSH1 0x20 MUL PUSH1 0x20 ADD DUP3 ADD PUSH1 0x40 MSTORE DUP1 ISZERO PUSH2 0x4E5 JUMPI DUP2 PUSH1 0x20 ADD PUSH1 0x20 DUP3 MUL DUP1 CALLDATASIZE DUP4 CALLDATACOPY DUP1 DUP3 ADD SWAP2 POP POP SWAP1 POP JUMPDEST POP SWAP1 POP PUSH0 DUP1 JUMPDEST PUSH2 0x4F4 PUSH0 PUSH2 0x1393 JUMP JUMPDEST DUP2 GT PUSH2 0x59F JUMPI DUP6 PUSH20 0xFFFFFFFFFFFFFFFFFFFFFFFFFFFFFFFFFFFFFFFF AND PUSH1 0x5 PUSH0 DUP4 DUP2 MSTORE PUSH1 0x20 ADD SWAP1 DUP2 MSTORE PUSH1 0x20 ADD PUSH0 KECCAK256 PUSH0 SWAP1 SLOAD SWAP1 PUSH2 0x100 EXP SWAP1 DIV PUSH20 0xFFFFFFFFFFFFFFFFFFFFFFFFFFFFFFFFFFFFFFFF AND PUSH20 0xFFFFFFFFFFFFFFFFFFFFFFFFFFFFFFFFFFFFFFFF AND SUB PUSH2 0x58C JUMPI DUP1 DUP4 DUP4 DUP2 MLOAD DUP2 LT PUSH2 0x571 JUMPI PUSH2 0x570 PUSH2 0x193A JUMP JUMPDEST JUMPDEST PUSH1 0x20 MUL PUSH1 0x20 ADD ADD DUP2 DUP2 MSTORE POP POP DUP2 DUP1 PUSH2 0x588 SWAP1 PUSH2 0x18C6 JUMP JUMPDEST SWAP3 POP POP JUMPDEST DUP1 DUP1 PUSH2 0x597 SWAP1 PUSH2 0x18C6 JUMP JUMPDEST SWAP2 POP POP PUSH2 0x4EB JUMP JUMPDEST POP DUP2 SWAP4 POP POP POP POP SWAP2 SWAP1 POP JUMP JUMPDEST PUSH0 PUSH2 0x5B5 DUP3 PUSH2 0x402 JUMP JUMPDEST SWAP1 POP PUSH0 DUP2 MLOAD GT PUSH2 0x5FA JUMPI PUSH1 0x40 MLOAD PUSH32 0x8C379A000000000000000000000000000000000000000000000000000000000 DUP2 MSTORE PUSH1 0x4 ADD PUSH2 0x5F1 SWAP1 PUSH2 0x19C1 JUMP JUMPDEST PUSH1 0x40 MLOAD DUP1 SWAP2 SUB SWAP1 REVERT JUMPDEST PUSH0 JUMPDEST DUP2 MLOAD DUP2 LT ISZERO PUSH2 0x79A JUMPI PUSH1 0x6 PUSH0 DUP4 DUP4 DUP2 MLOAD DUP2 LT PUSH2 0x61B JUMPI PUSH2 0x61A PUSH2 0x193A JUMP JUMPDEST JUMPDEST PUSH1 0x20 MUL PUSH1 0x20 ADD ADD MLOAD DUP2 MSTORE PUSH1 0x20 ADD SWAP1 DUP2 MSTORE PUSH1 0x20 ADD PUSH0 KECCAK256 PUSH1 0x3 ADD PUSH0 SWAP1 SLOAD SWAP1 PUSH2 0x100 EXP SWAP1 DIV PUSH1 0xFF AND PUSH2 0x787 JUMPI PUSH1 0x1 PUSH0 SWAP1 SLOAD SWAP1 PUSH2 0x100 EXP SWAP1 DIV PUSH20 0xFFFFFFFFFFFFFFFFFFFFFFFFFFFFFFFFFFFFFFFF AND PUSH20 0xFFFFFFFFFFFFFFFFFFFFFFFFFFFFFFFFFFFFFFFF AND PUSH4 0xA9059CBB CALLER PUSH1 0x6 PUSH0 DUP7 DUP7 DUP2 MLOAD DUP2 LT PUSH2 0x698 JUMPI PUSH2 0x697 PUSH2 0x193A JUMP JUMPDEST JUMPDEST PUSH1 0x20 MUL PUSH1 0x20 ADD ADD MLOAD DUP2 MSTORE PUSH1 0x20 ADD SWAP1 DUP2 MSTORE PUSH1 0x20 ADD PUSH0 KECCAK256 PUSH0 ADD SLOAD PUSH1 0x40 MLOAD DUP4 PUSH4 0xFFFFFFFF AND PUSH1 0xE0 SHL DUP2 MSTORE PUSH1 0x4 ADD PUSH2 0x6CD SWAP3 SWAP2 SWAP1 PUSH2 0x19DF JUMP JUMPDEST PUSH1 0x20 PUSH1 0x40 MLOAD DUP1 DUP4 SUB DUP2 PUSH0 DUP8 GAS CALL ISZERO DUP1 ISZERO PUSH2 0x6E9 JUMPI RETURNDATASIZE PUSH0 DUP1 RETURNDATACOPY RETURNDATASIZE PUSH0 REVERT JUMPDEST POP POP POP POP PUSH1 0x40 MLOAD RETURNDATASIZE PUSH1 0x1F NOT PUSH1 0x1F DUP3 ADD AND DUP3 ADD DUP1 PUSH1 0x40 MSTORE POP DUP2 ADD SWAP1 PUSH2 0x70D SWAP2 SWAP1 PUSH2 0x1A30 JUMP JUMPDEST POP PUSH0 PUSH1 0x6 PUSH0 DUP5 DUP5 DUP2 MLOAD DUP2 LT PUSH2 0x725 JUMPI PUSH2 0x724 PUSH2 0x193A JUMP JUMPDEST JUMPDEST PUSH1 0x20 MUL PUSH1 0x20 ADD ADD MLOAD DUP2 MSTORE PUSH1 0x20 ADD SWAP1 DUP2 MSTORE PUSH1 0x20 ADD PUSH0 KECCAK256 PUSH0 ADD DUP2 SWAP1 SSTORE POP PUSH1 0x1 PUSH1 0x6 PUSH0 DUP5 DUP5 DUP2 MLOAD DUP2 LT PUSH2 0x758 JUMPI PUSH2 0x757 PUSH2 0x193A JUMP JUMPDEST JUMPDEST PUSH1 0x20 MUL PUSH1 0x20 ADD ADD MLOAD DUP2 MSTORE PUSH1 0x20 ADD SWAP1 DUP2 MSTORE PUSH1 0x20 ADD PUSH0 KECCAK256 PUSH1 0x3 ADD PUSH0 PUSH2 0x100 EXP DUP2 SLOAD DUP2 PUSH1 0xFF MUL NOT AND SWAP1 DUP4 ISZERO ISZERO MUL OR SWAP1 SSTORE POP JUMPDEST DUP1 DUP1 PUSH2 0x792 SWAP1 PUSH2 0x18C6 JUMP JUMPDEST SWAP2 POP POP PUSH2 0x5FC JUMP JUMPDEST POP POP POP JUMP JUMPDEST PUSH0 PUSH1 0x1 PUSH0 SWAP1 SLOAD SWAP1 PUSH2 0x100 EXP SWAP1 DIV PUSH20 0xFFFFFFFFFFFFFFFFFFFFFFFFFFFFFFFFFFFFFFFF AND PUSH20 0xFFFFFFFFFFFFFFFFFFFFFFFFFFFFFFFFFFFFFFFF AND PUSH4 0x70A08231 ADDRESS PUSH1 0x40 MLOAD DUP3 PUSH4 0xFFFFFFFF AND PUSH1 0xE0 SHL DUP2 MSTORE PUSH1 0x4 ADD PUSH2 0x7FA SWAP2 SWAP1 PUSH2 0x1619 JUMP JUMPDEST PUSH1 0x20 PUSH1 0x40 MLOAD DUP1 DUP4 SUB DUP2 DUP7 GAS STATICCALL ISZERO DUP1 ISZERO PUSH2 0x815 JUMPI RETURNDATASIZE PUSH0 DUP1 RETURNDATACOPY RETURNDATASIZE PUSH0 REVERT JUMPDEST POP POP POP POP PUSH1 0x40 MLOAD RETURNDATASIZE PUSH1 0x1F NOT PUSH1 0x1F DUP3 ADD AND DUP3 ADD DUP1 PUSH1 0x40 MSTORE POP DUP2 ADD SWAP1 PUSH2 0x839 SWAP2 SWAP1 PUSH2 0x1A6F JUMP JUMPDEST SWAP1 POP SWAP1 JUMP JUMPDEST PUSH1 0x2 PUSH0 SWAP1 SLOAD SWAP1 PUSH2 0x100 EXP SWAP1 DIV PUSH20 0xFFFFFFFFFFFFFFFFFFFFFFFFFFFFFFFFFFFFFFFF AND DUP2 JUMP JUMPDEST PUSH1 0x5 PUSH1 0x20 MSTORE DUP1 PUSH0 MSTORE PUSH1 0x40 PUSH0 KECCAK256 PUSH0 SWAP2 POP SLOAD SWAP1 PUSH2 0x100 EXP SWAP1 DIV PUSH20 0xFFFFFFFFFFFFFFFFFFFFFFFFFFFFFFFFFFFFFFFF AND DUP2 JUMP JUMPDEST PUSH1 0x3 SLOAD DUP2 JUMP JUMPDEST PUSH1 0x60 DUP1 PUSH0 DUP1 JUMPDEST PUSH2 0x8A8 PUSH0 PUSH2 0x1393 JUMP JUMPDEST DUP2 GT PUSH2 0x933 JUMPI DUP5 PUSH20 0xFFFFFFFFFFFFFFFFFFFFFFFFFFFFFFFFFFFFFFFF AND PUSH1 0x5 PUSH0 DUP4 DUP2 MSTORE PUSH1 0x20 ADD SWAP1 DUP2 MSTORE PUSH1 0x20 ADD PUSH0 KECCAK256 PUSH0 SWAP1 SLOAD SWAP1 PUSH2 0x100 EXP SWAP1 DIV PUSH20 0xFFFFFFFFFFFFFFFFFFFFFFFFFFFFFFFFFFFFFFFF AND PUSH20 0xFFFFFFFFFFFFFFFFFFFFFFFFFFFFFFFFFFFFFFFF AND SUB PUSH2 0x920 JUMPI DUP2 DUP1 PUSH2 0x91C SWAP1 PUSH2 0x18C6 JUMP JUMPDEST SWAP3 POP POP JUMPDEST DUP1 DUP1 PUSH2 0x92B SWAP1 PUSH2 0x18C6 JUMP JUMPDEST SWAP2 POP POP PUSH2 0x89F JUMP JUMPDEST POP PUSH0 DUP2 PUSH8 0xFFFFFFFFFFFFFFFF DUP2 GT ISZERO PUSH2 0x94F JUMPI PUSH2 0x94E PUSH2 0x190D JUMP JUMPDEST JUMPDEST PUSH1 0x40 MLOAD SWAP1 DUP1 DUP3 MSTORE DUP1 PUSH1 0x20 MUL PUSH1 0x20 ADD DUP3 ADD PUSH1 0x40 MSTORE DUP1 ISZERO PUSH2 0x988 JUMPI DUP2 PUSH1 0x20 ADD JUMPDEST PUSH2 0x975 PUSH2 0x13CB JUMP JUMPDEST DUP2 MSTORE PUSH1 0x20 ADD SWAP1 PUSH1 0x1 SWAP1 SUB SWAP1 DUP2 PUSH2 0x96D JUMPI SWAP1 POP JUMPDEST POP SWAP1 POP PUSH0 DUP3 PUSH8 0xFFFFFFFFFFFFFFFF DUP2 GT ISZERO PUSH2 0x9A6 JUMPI PUSH2 0x9A5 PUSH2 0x190D JUMP JUMPDEST JUMPDEST PUSH1 0x40 MLOAD SWAP1 DUP1 DUP3 MSTORE DUP1 PUSH1 0x20 MUL PUSH1 0x20 ADD DUP3 ADD PUSH1 0x40 MSTORE DUP1 ISZERO PUSH2 0x9D4 JUMPI DUP2 PUSH1 0x20 ADD PUSH1 0x20 DUP3 MUL DUP1 CALLDATASIZE DUP4 CALLDATACOPY DUP1 DUP3 ADD SWAP2 POP POP SWAP1 POP JUMPDEST POP SWAP1 POP PUSH0 DUP1 JUMPDEST PUSH2 0x9E3 PUSH0 PUSH2 0x1393 JUMP JUMPDEST DUP2 GT PUSH2 0xB06 JUMPI DUP8 PUSH20 0xFFFFFFFFFFFFFFFFFFFFFFFFFFFFFFFFFFFFFFFF AND PUSH1 0x5 PUSH0 DUP4 DUP2 MSTORE PUSH1 0x20 ADD SWAP1 DUP2 MSTORE PUSH1 0x20 ADD PUSH0 KECCAK256 PUSH0 SWAP1 SLOAD SWAP1 PUSH2 0x100 EXP SWAP1 DIV PUSH20 0xFFFFFFFFFFFFFFFFFFFFFFFFFFFFFFFFFFFFFFFF AND PUSH20 0xFFFFFFFFFFFFFFFFFFFFFFFFFFFFFFFFFFFFFFFF AND SUB PUSH2 0xAEC JUMPI PUSH1 0x6 PUSH0 DUP3 DUP2 MSTORE PUSH1 0x20 ADD SWAP1 DUP2 MSTORE PUSH1 0x20 ADD PUSH0 KECCAK256 PUSH1 0x40 MLOAD DUP1 PUSH1 0x80 ADD PUSH1 0x40 MSTORE SWAP1 DUP2 PUSH0 DUP3 ADD SLOAD DUP2 MSTORE PUSH1 0x20 ADD PUSH1 0x1 DUP3 ADD SLOAD DUP2 MSTORE PUSH1 0x20 ADD PUSH1 0x2 DUP3 ADD SLOAD DUP2 MSTORE PUSH1 0x20 ADD PUSH1 0x3 DUP3 ADD PUSH0 SWAP1 SLOAD SWAP1 PUSH2 0x100 EXP SWAP1 DIV PUSH1 0xFF AND ISZERO ISZERO ISZERO ISZERO DUP2 MSTORE POP POP DUP5 DUP4 DUP2 MLOAD DUP2 LT PUSH2 0xAB2 JUMPI PUSH2 0xAB1 PUSH2 0x193A JUMP JUMPDEST JUMPDEST PUSH1 0x20 MUL PUSH1 0x20 ADD ADD DUP2 SWAP1 MSTORE POP DUP1 DUP4 DUP4 DUP2 MLOAD DUP2 LT PUSH2 0xAD1 JUMPI PUSH2 0xAD0 PUSH2 0x193A JUMP JUMPDEST JUMPDEST PUSH1 0x20 MUL PUSH1 0x20 ADD ADD DUP2 DUP2 MSTORE POP POP DUP2 DUP1 PUSH2 0xAE8 SWAP1 PUSH2 0x18C6 JUMP JUMPDEST SWAP3 POP POP JUMPDEST DUP5 DUP3 GT PUSH2 0xB06 JUMPI DUP1 DUP1 PUSH2 0xAFE SWAP1 PUSH2 0x18C6 JUMP JUMPDEST SWAP2 POP POP PUSH2 0x9DA JUMP JUMPDEST POP DUP2 DUP4 SWAP6 POP SWAP6 POP POP POP POP POP SWAP2 POP SWAP2 JUMP JUMPDEST PUSH0 PUSH2 0xB20 PUSH0 PUSH2 0x139F JUMP JUMPDEST PUSH0 DUP4 GT PUSH2 0xB62 JUMPI PUSH1 0x40 MLOAD PUSH32 0x8C379A000000000000000000000000000000000000000000000000000000000 DUP2 MSTORE PUSH1 0x4 ADD PUSH2 0xB59 SWAP1 PUSH2 0x1AE4 JUMP JUMPDEST PUSH1 0x40 MLOAD DUP1 SWAP2 SUB SWAP1 REVERT JUMPDEST DUP3 PUSH1 0x1 PUSH0 SWAP1 SLOAD SWAP1 PUSH2 0x100 EXP SWAP1 DIV PUSH20 0xFFFFFFFFFFFFFFFFFFFFFFFFFFFFFFFFFFFFFFFF AND PUSH20 0xFFFFFFFFFFFFFFFFFFFFFFFFFFFFFFFFFFFFFFFF AND PUSH4 0x70A08231 CALLER PUSH1 0x40 MLOAD DUP3 PUSH4 0xFFFFFFFF AND PUSH1 0xE0 SHL DUP2 MSTORE PUSH1 0x4 ADD PUSH2 0xBBD SWAP2 SWAP1 PUSH2 0x1619 JUMP JUMPDEST PUSH1 0x20 PUSH1 0x40 MLOAD DUP1 DUP4 SUB DUP2 DUP7 GAS STATICCALL ISZERO DUP1 ISZERO PUSH2 0xBD8 JUMPI RETURNDATASIZE PUSH0 DUP1 RETURNDATACOPY RETURNDATASIZE PUSH0 REVERT JUMPDEST POP POP POP POP PUSH1 0x40 MLOAD RETURNDATASIZE PUSH1 0x1F NOT PUSH1 0x1F DUP3 ADD AND DUP3 ADD DUP1 PUSH1 0x40 MSTORE POP DUP2 ADD SWAP1 PUSH2 0xBFC SWAP2 SWAP1 PUSH2 0x1A6F JUMP JUMPDEST LT ISZERO PUSH2 0xC3D JUMPI PUSH1 0x40 MLOAD PUSH32 0x8C379A000000000000000000000000000000000000000000000000000000000 DUP2 MSTORE PUSH1 0x4 ADD PUSH2 0xC34 SWAP1 PUSH2 0x1B72 JUMP JUMPDEST PUSH1 0x40 MLOAD DUP1 SWAP2 SUB SWAP1 REVERT JUMPDEST PUSH1 0x2 DUP3 EQ DUP1 PUSH2 0xC4C JUMPI POP PUSH1 0x4 DUP3 EQ JUMPDEST DUP1 PUSH2 0xC57 JUMPI POP PUSH1 0x6 DUP3 EQ JUMPDEST DUP1 PUSH2 0xC62 JUMPI POP PUSH1 0x8 DUP3 EQ JUMPDEST DUP1 PUSH2 0xC6D JUMPI POP PUSH1 0xA DUP3 EQ JUMPDEST PUSH2 0xCAC JUMPI PUSH1 0x40 MLOAD PUSH32 0x8C379A000000000000000000000000000000000000000000000000000000000 DUP2 MSTORE PUSH1 0x4 ADD PUSH2 0xCA3 SWAP1 PUSH2 0x1C00 JUMP JUMPDEST PUSH1 0x40 MLOAD DUP1 SWAP2 SUB SWAP1 REVERT JUMPDEST PUSH0 TIMESTAMP SWAP1 POP CALLER PUSH1 0x5 PUSH0 PUSH2 0xCBD PUSH0 PUSH2 0x1393 JUMP JUMPDEST DUP2 MSTORE PUSH1 0x20 ADD SWAP1 DUP2 MSTORE PUSH1 0x20 ADD PUSH0 KECCAK256 PUSH0 PUSH2 0x100 EXP DUP2 SLOAD DUP2 PUSH20 0xFFFFFFFFFFFFFFFFFFFFFFFFFFFFFFFFFFFFFFFF MUL NOT AND SWAP1 DUP4 PUSH20 0xFFFFFFFFFFFFFFFFFFFFFFFFFFFFFFFFFFFFFFFF AND MUL OR SWAP1 SSTORE POP PUSH1 0x1 PUSH0 SWAP1 SLOAD SWAP1 PUSH2 0x100 EXP SWAP1 DIV PUSH20 0xFFFFFFFFFFFFFFFFFFFFFFFFFFFFFFFFFFFFFFFF AND PUSH20 0xFFFFFFFFFFFFFFFFFFFFFFFFFFFFFFFFFFFFFFFF AND PUSH4 0x23B872DD CALLER ADDRESS DUP8 PUSH1 0x40 MLOAD DUP5 PUSH4 0xFFFFFFFF AND PUSH1 0xE0 SHL DUP2 MSTORE PUSH1 0x4 ADD PUSH2 0xD65 SWAP4 SWAP3 SWAP2 SWAP1 PUSH2 0x1C1E JUMP JUMPDEST PUSH1 0x20 PUSH1 0x40 MLOAD DUP1 DUP4 SUB DUP2 PUSH0 DUP8 GAS CALL ISZERO DUP1 ISZERO PUSH2 0xD81 JUMPI RETURNDATASIZE PUSH0 DUP1 RETURNDATACOPY RETURNDATASIZE PUSH0 REVERT JUMPDEST POP POP POP POP PUSH1 0x40 MLOAD RETURNDATASIZE PUSH1 0x1F NOT PUSH1 0x1F DUP3 ADD AND DUP3 ADD DUP1 PUSH1 0x40 MSTORE POP DUP2 ADD SWAP1 PUSH2 0xDA5 SWAP2 SWAP1 PUSH2 0x1A30 JUMP JUMPDEST PUSH2 0xDE4 JUMPI PUSH1 0x40 MLOAD PUSH32 0x8C379A000000000000000000000000000000000000000000000000000000000 DUP2 MSTORE PUSH1 0x4 ADD PUSH2 0xDDB SWAP1 PUSH2 0x1CC3 JUMP JUMPDEST PUSH1 0x40 MLOAD DUP1 SWAP2 SUB SWAP1 REVERT JUMPDEST DUP4 PUSH1 0x6 PUSH0 PUSH2 0xDF1 PUSH0 PUSH2 0x1393 JUMP JUMPDEST DUP2 MSTORE PUSH1 0x20 ADD SWAP1 DUP2 MSTORE PUSH1 0x20 ADD PUSH0 KECCAK256 PUSH0 ADD PUSH0 DUP3 DUP3 SLOAD PUSH2 0xE0E SWAP2 SWAP1 PUSH2 0x1CE1 JUMP JUMPDEST SWAP3 POP POP DUP2 SWAP1 SSTORE POP DUP1 PUSH1 0x6 PUSH0 PUSH2 0xE22 PUSH0 PUSH2 0x1393 JUMP JUMPDEST DUP2 MSTORE PUSH1 0x20 ADD SWAP1 DUP2 MSTORE PUSH1 0x20 ADD PUSH0 KECCAK256 PUSH1 0x1 ADD DUP2 SWAP1 SSTORE POP PUSH1 0x3C DUP4 PUSH2 0xE43 SWAP2 SWAP1 PUSH2 0x1D14 JUMP JUMPDEST PUSH1 0x6 PUSH0 PUSH2 0xE4F PUSH0 PUSH2 0x1393 JUMP JUMPDEST DUP2 MSTORE PUSH1 0x20 ADD SWAP1 DUP2 MSTORE PUSH1 0x20 ADD PUSH0 KECCAK256 PUSH1 0x2 ADD DUP2 SWAP1 SSTORE POP PUSH0 PUSH1 0x6 PUSH0 PUSH2 0xE70 PUSH0 PUSH2 0x1393 JUMP JUMPDEST DUP2 MSTORE PUSH1 0x20 ADD SWAP1 DUP2 MSTORE PUSH1 0x20 ADD PUSH0 KECCAK256 PUSH1 0x3 ADD PUSH0 PUSH2 0x100 EXP DUP2 SLOAD DUP2 PUSH1 0xFF MUL NOT AND SWAP1 DUP4 ISZERO ISZERO MUL OR SWAP1 SSTORE POP PUSH2 0xE9F PUSH0 PUSH2 0x1393 JUMP JUMPDEST SWAP2 POP POP SWAP3 SWAP2 POP POP JUMP JUMPDEST PUSH1 0x78 TIMESTAMP PUSH1 0x4 SLOAD PUSH2 0xEB8 SWAP2 SWAP1 PUSH2 0x1893 JUMP JUMPDEST GT PUSH2 0xEF8 JUMPI PUSH1 0x40 MLOAD PUSH32 0x8C379A000000000000000000000000000000000000000000000000000000000 DUP2 MSTORE PUSH1 0x4 ADD PUSH2 0xEEF SWAP1 PUSH2 0x1D9F JUMP JUMPDEST PUSH1 0x40 MLOAD DUP1 SWAP2 SUB SWAP1 REVERT JUMPDEST TIMESTAMP PUSH1 0x4 DUP2 SWAP1 SSTORE POP PUSH0 PUSH2 0xF09 DUP3 PUSH2 0x402 JUMP JUMPDEST SWAP1 POP PUSH0 DUP2 MLOAD GT PUSH2 0xF4E JUMPI PUSH1 0x40 MLOAD PUSH32 0x8C379A000000000000000000000000000000000000000000000000000000000 DUP2 MSTORE PUSH1 0x4 ADD PUSH2 0xF45 SWAP1 PUSH2 0x1E07 JUMP JUMPDEST PUSH1 0x40 MLOAD DUP1 SWAP2 SUB SWAP1 REVERT JUMPDEST PUSH0 JUMPDEST DUP2 MLOAD DUP2 LT ISZERO PUSH2 0xFCF JUMPI PUSH1 0x6 PUSH0 DUP4 DUP4 DUP2 MLOAD DUP2 LT PUSH2 0xF6F JUMPI PUSH2 0xF6E PUSH2 0x193A JUMP JUMPDEST JUMPDEST PUSH1 0x20 MUL PUSH1 0x20 ADD ADD MLOAD DUP2 MSTORE PUSH1 0x20 ADD SWAP1 DUP2 MSTORE PUSH1 0x20 ADD PUSH0 KECCAK256 PUSH1 0x3 ADD PUSH0 SWAP1 SLOAD SWAP1 PUSH2 0x100 EXP SWAP1 DIV PUSH1 0xFF AND PUSH2 0xFBC JUMPI PUSH2 0xFBB DUP3 DUP3 DUP2 MLOAD DUP2 LT PUSH2 0xFAE JUMPI PUSH2 0xFAD PUSH2 0x193A JUMP JUMPDEST JUMPDEST PUSH1 0x20 MUL PUSH1 0x20 ADD ADD MLOAD PUSH2 0x11AE JUMP JUMPDEST JUMPDEST DUP1 DUP1 PUSH2 0xFC7 SWAP1 PUSH2 0x18C6 JUMP JUMPDEST SWAP2 POP POP PUSH2 0xF50 JUMP JUMPDEST POP PUSH0 PUSH1 0x7 PUSH0 DUP5 PUSH20 0xFFFFFFFFFFFFFFFFFFFFFFFFFFFFFFFFFFFFFFFF AND PUSH20 0xFFFFFFFFFFFFFFFFFFFFFFFFFFFFFFFFFFFFFFFF AND DUP2 MSTORE PUSH1 0x20 ADD SWAP1 DUP2 MSTORE PUSH1 0x20 ADD PUSH0 KECCAK256 SLOAD GT PUSH2 0x104F JUMPI PUSH1 0x40 MLOAD PUSH32 0x8C379A000000000000000000000000000000000000000000000000000000000 DUP2 MSTORE PUSH1 0x4 ADD PUSH2 0x1046 SWAP1 PUSH2 0x1E6F JUMP JUMPDEST PUSH1 0x40 MLOAD DUP1 SWAP2 SUB SWAP1 REVERT JUMPDEST PUSH1 0x1 PUSH0 SWAP1 SLOAD SWAP1 PUSH2 0x100 EXP SWAP1 DIV PUSH20 0xFFFFFFFFFFFFFFFFFFFFFFFFFFFFFFFFFFFFFFFF AND PUSH20 0xFFFFFFFFFFFFFFFFFFFFFFFFFFFFFFFFFFFFFFFF AND PUSH4 0xA9059CBB CALLER PUSH1 0x7 PUSH0 DUP7 PUSH20 0xFFFFFFFFFFFFFFFFFFFFFFFFFFFFFFFFFFFFFFFF AND PUSH20 0xFFFFFFFFFFFFFFFFFFFFFFFFFFFFFFFFFFFFFFFF AND DUP2 MSTORE PUSH1 0x20 ADD SWAP1 DUP2 MSTORE PUSH1 0x20 ADD PUSH0 KECCAK256 SLOAD PUSH1 0x40 MLOAD DUP4 PUSH4 0xFFFFFFFF AND PUSH1 0xE0 SHL DUP2 MSTORE PUSH1 0x4 ADD PUSH2 0x10E8 SWAP3 SWAP2 SWAP1 PUSH2 0x19DF JUMP JUMPDEST PUSH1 0x20 PUSH1 0x40 MLOAD DUP1 DUP4 SUB DUP2 PUSH0 DUP8 GAS CALL ISZERO DUP1 ISZERO PUSH2 0x1104 JUMPI RETURNDATASIZE PUSH0 DUP1 RETURNDATACOPY RETURNDATASIZE PUSH0 REVERT JUMPDEST POP POP POP POP PUSH1 0x40 MLOAD RETURNDATASIZE PUSH1 0x1F NOT PUSH1 0x1F DUP3 ADD AND DUP3 ADD DUP1 PUSH1 0x40 MSTORE POP DUP2 ADD SWAP1 PUSH2 0x1128 SWAP2 SWAP1 PUSH2 0x1A30 JUMP JUMPDEST POP PUSH0 PUSH1 0x7 PUSH0 DUP5 PUSH20 0xFFFFFFFFFFFFFFFFFFFFFFFFFFFFFFFFFFFFFFFF AND PUSH20 0xFFFFFFFFFFFFFFFFFFFFFFFFFFFFFFFFFFFFFFFF AND DUP2 MSTORE PUSH1 0x20 ADD SWAP1 DUP2 MSTORE PUSH1 0x20 ADD PUSH0 KECCAK256 DUP2 SWAP1 SSTORE POP POP POP JUMP JUMPDEST PUSH1 0x6 PUSH1 0x20 MSTORE DUP1 PUSH0 MSTORE PUSH1 0x40 PUSH0 KECCAK256 PUSH0 SWAP2 POP SWAP1 POP DUP1 PUSH0 ADD SLOAD SWAP1 DUP1 PUSH1 0x1 ADD SLOAD SWAP1 DUP1 PUSH1 0x2 ADD SLOAD SWAP1 DUP1 PUSH1 0x3 ADD PUSH0 SWAP1 SLOAD SWAP1 PUSH2 0x100 EXP SWAP1 DIV PUSH1 0xFF AND SWAP1 POP DUP5 JUMP JUMPDEST PUSH0 TIMESTAMP SWAP1 POP SWAP1 JUMP JUMPDEST PUSH0 TIMESTAMP SWAP1 POP PUSH0 PUSH1 0x6 PUSH0 DUP5 DUP2 MSTORE PUSH1 0x20 ADD SWAP1 DUP2 MSTORE PUSH1 0x20 ADD PUSH0 KECCAK256 PUSH1 0x1 ADD SLOAD DUP3 PUSH2 0x11D3 SWAP2 SWAP1 PUSH2 0x1893 JUMP JUMPDEST SWAP1 POP PUSH0 PUSH2 0x11F4 DUP3 PUSH1 0x6 PUSH0 DUP8 DUP2 MSTORE PUSH1 0x20 ADD SWAP1 DUP2 MSTORE PUSH1 0x20 ADD PUSH0 KECCAK256 PUSH1 0x2 ADD SLOAD PUSH2 0x13B3 JUMP JUMPDEST SWAP1 POP PUSH1 0x64 DUP2 PUSH1 0x3 SLOAD PUSH1 0x6 PUSH0 DUP9 DUP2 MSTORE PUSH1 0x20 ADD SWAP1 DUP2 MSTORE PUSH1 0x20 ADD PUSH0 KECCAK256 PUSH0 ADD SLOAD PUSH2 0x121A SWAP2 SWAP1 PUSH2 0x1D14 JUMP JUMPDEST PUSH2 0x1224 SWAP2 SWAP1 PUSH2 0x1D14 JUMP JUMPDEST PUSH2 0x122E SWAP2 SWAP1 PUSH2 0x1EBA JUMP JUMPDEST PUSH1 0x7 PUSH0 PUSH1 0x5 PUSH0 DUP9 DUP2 MSTORE PUSH1 0x20 ADD SWAP1 DUP2 MSTORE PUSH1 0x20 ADD PUSH0 KECCAK256 PUSH0 SWAP1 SLOAD SWAP1 PUSH2 0x100 EXP SWAP1 DIV PUSH20 0xFFFFFFFFFFFFFFFFFFFFFFFFFFFFFFFFFFFFFFFF AND PUSH20 0xFFFFFFFFFFFFFFFFFFFFFFFFFFFFFFFFFFFFFFFF AND PUSH20 0xFFFFFFFFFFFFFFFFFFFFFFFFFFFFFFFFFFFFFFFF AND DUP2 MSTORE PUSH1 0x20 ADD SWAP1 DUP2 MSTORE PUSH1 0x20 ADD PUSH0 KECCAK256 SLOAD PUSH2 0x12A6 SWAP2 SWAP1 PUSH2 0x1CE1 JUMP JUMPDEST PUSH1 0x7 PUSH0 PUSH1 0x5 PUSH0 DUP9 DUP2 MSTORE PUSH1 0x20 ADD SWAP1 DUP2 MSTORE PUSH1 0x20 ADD PUSH0 KECCAK256 PUSH0 SWAP1 SLOAD SWAP1 PUSH2 0x100 EXP SWAP1 DIV PUSH20 0xFFFFFFFFFFFFFFFFFFFFFFFFFFFFFFFFFFFFFFFF AND PUSH20 0xFFFFFFFFFFFFFFFFFFFFFFFFFFFFFFFFFFFFFFFF AND PUSH20 0xFFFFFFFFFFFFFFFFFFFFFFFFFFFFFFFFFFFFFFFF AND DUP2 MSTORE PUSH1 0x20 ADD SWAP1 DUP2 MSTORE PUSH1 0x20 ADD PUSH0 KECCAK256 DUP2 SWAP1 SSTORE POP DUP3 PUSH1 0x6 PUSH0 DUP7 DUP2 MSTORE PUSH1 0x20 ADD SWAP1 DUP2 MSTORE PUSH1 0x20 ADD PUSH0 KECCAK256 PUSH1 0x1 ADD DUP2 SWAP1 SSTORE POP DUP1 PUSH1 0x6 PUSH0 DUP7 DUP2 MSTORE PUSH1 0x20 ADD SWAP1 DUP2 MSTORE PUSH1 0x20 ADD PUSH0 KECCAK256 PUSH1 0x2 ADD SLOAD PUSH2 0x1350 SWAP2 SWAP1 PUSH2 0x1893 JUMP JUMPDEST PUSH1 0x6 PUSH0 DUP7 DUP2 MSTORE PUSH1 0x20 ADD SWAP1 DUP2 MSTORE PUSH1 0x20 ADD PUSH0 KECCAK256 PUSH1 0x2 ADD DUP2 SWAP1 SSTORE POP POP POP POP POP JUMP JUMPDEST PUSH1 0x1 PUSH0 SWAP1 SLOAD SWAP1 PUSH2 0x100 EXP SWAP1 DIV PUSH20 0xFFFFFFFFFFFFFFFFFFFFFFFFFFFFFFFFFFFFFFFF AND DUP2 JUMP JUMPDEST PUSH0 DUP2 PUSH0 ADD SLOAD SWAP1 POP SWAP2 SWAP1 POP JUMP JUMPDEST PUSH1 0x1 DUP2 PUSH0 ADD PUSH0 DUP3 DUP3 SLOAD ADD SWAP3 POP POP DUP2 SWAP1 SSTORE POP POP JUMP JUMPDEST PUSH0 DUP2 DUP4 LT PUSH2 0x13C1 JUMPI DUP2 PUSH2 0x13C3 JUMP JUMPDEST DUP3 JUMPDEST SWAP1 POP SWAP3 SWAP2 POP POP JUMP JUMPDEST PUSH1 0x40 MLOAD DUP1 PUSH1 0x80 ADD PUSH1 0x40 MSTORE DUP1 PUSH0 DUP2 MSTORE PUSH1 0x20 ADD PUSH0 DUP2 MSTORE PUSH1 0x20 ADD PUSH0 DUP2 MSTORE PUSH1 0x20 ADD PUSH0 ISZERO ISZERO DUP2 MSTORE POP SWAP1 JUMP JUMPDEST PUSH0 DUP1 REVERT JUMPDEST PUSH0 PUSH20 0xFFFFFFFFFFFFFFFFFFFFFFFFFFFFFFFFFFFFFFFF DUP3 AND SWAP1 POP SWAP2 SWAP1 POP JUMP JUMPDEST PUSH0 PUSH2 0x141E DUP3 PUSH2 0x13F5 JUMP JUMPDEST SWAP1 POP SWAP2 SWAP1 POP JUMP JUMPDEST PUSH2 0x142E DUP2 PUSH2 0x1414 JUMP JUMPDEST DUP2 EQ PUSH2 0x1438 JUMPI PUSH0 DUP1 REVERT JUMPDEST POP JUMP JUMPDEST PUSH0 DUP2 CALLDATALOAD SWAP1 POP PUSH2 0x1449 DUP2 PUSH2 0x1425 JUMP JUMPDEST SWAP3 SWAP2 POP POP JUMP JUMPDEST PUSH0 PUSH1 0x20 DUP3 DUP5 SUB SLT ISZERO PUSH2 0x1464 JUMPI PUSH2 0x1463 PUSH2 0x13F1 JUMP JUMPDEST JUMPDEST PUSH0 PUSH2 0x1471 DUP5 DUP3 DUP6 ADD PUSH2 0x143B JUMP JUMPDEST SWAP2 POP POP SWAP3 SWAP2 POP POP JUMP JUMPDEST PUSH0 DUP2 ISZERO ISZERO SWAP1 POP SWAP2 SWAP1 POP JUMP JUMPDEST PUSH2 0x148E DUP2 PUSH2 0x147A JUMP JUMPDEST DUP3 MSTORE POP POP JUMP JUMPDEST PUSH0 PUSH1 0x20 DUP3 ADD SWAP1 POP PUSH2 0x14A7 PUSH0 DUP4 ADD DUP5 PUSH2 0x1485 JUMP JUMPDEST SWAP3 SWAP2 POP POP JUMP JUMPDEST PUSH0 DUP2 SWAP1 POP SWAP2 SWAP1 POP JUMP JUMPDEST PUSH2 0x14BF DUP2 PUSH2 0x14AD JUMP JUMPDEST DUP3 MSTORE POP POP JUMP JUMPDEST PUSH0 PUSH1 0x20 DUP3 ADD SWAP1 POP PUSH2 0x14D8 PUSH0 DUP4 ADD DUP5 PUSH2 0x14B6 JUMP JUMPDEST SWAP3 SWAP2 POP POP JUMP JUMPDEST PUSH2 0x14E7 DUP2 PUSH2 0x14AD JUMP JUMPDEST DUP2 EQ PUSH2 0x14F1 JUMPI PUSH0 DUP1 REVERT JUMPDEST POP JUMP JUMPDEST PUSH0 DUP2 CALLDATALOAD SWAP1 POP PUSH2 0x1502 DUP2 PUSH2 0x14DE JUMP JUMPDEST SWAP3 SWAP2 POP POP JUMP JUMPDEST PUSH0 PUSH1 0x20 DUP3 DUP5 SUB SLT ISZERO PUSH2 0x151D JUMPI PUSH2 0x151C PUSH2 0x13F1 JUMP JUMPDEST JUMPDEST PUSH0 PUSH2 0x152A DUP5 DUP3 DUP6 ADD PUSH2 0x14F4 JUMP JUMPDEST SWAP2 POP POP SWAP3 SWAP2 POP POP JUMP JUMPDEST PUSH0 DUP2 MLOAD SWAP1 POP SWAP2 SWAP1 POP JUMP JUMPDEST PUSH0 DUP3 DUP3 MSTORE PUSH1 0x20 DUP3 ADD SWAP1 POP SWAP3 SWAP2 POP POP JUMP JUMPDEST PUSH0 DUP2 SWAP1 POP PUSH1 0x20 DUP3 ADD SWAP1 POP SWAP2 SWAP1 POP JUMP JUMPDEST PUSH2 0x1565 DUP2 PUSH2 0x14AD JUMP JUMPDEST DUP3 MSTORE POP POP JUMP JUMPDEST PUSH0 PUSH2 0x1576 DUP4 DUP4 PUSH2 0x155C JUMP JUMPDEST PUSH1 0x20 DUP4 ADD SWAP1 POP SWAP3 SWAP2 POP POP JUMP JUMPDEST PUSH0 PUSH1 0x20 DUP3 ADD SWAP1 POP SWAP2 SWAP1 POP JUMP JUMPDEST PUSH0 PUSH2 0x1598 DUP3 PUSH2 0x1533 JUMP JUMPDEST PUSH2 0x15A2 DUP2 DUP6 PUSH2 0x153D JUMP JUMPDEST SWAP4 POP PUSH2 0x15AD DUP4 PUSH2 0x154D JUMP JUMPDEST DUP1 PUSH0 JUMPDEST DUP4 DUP2 LT ISZERO PUSH2 0x15DD JUMPI DUP2 MLOAD PUSH2 0x15C4 DUP9 DUP3 PUSH2 0x156B JUMP JUMPDEST SWAP8 POP PUSH2 0x15CF DUP4 PUSH2 0x1582 JUMP JUMPDEST SWAP3 POP POP PUSH1 0x1 DUP2 ADD SWAP1 POP PUSH2 0x15B0 JUMP JUMPDEST POP DUP6 SWAP4 POP POP POP POP SWAP3 SWAP2 POP POP JUMP JUMPDEST PUSH0 PUSH1 0x20 DUP3 ADD SWAP1 POP DUP2 DUP2 SUB PUSH0 DUP4 ADD MSTORE PUSH2 0x1602 DUP2 DUP5 PUSH2 0x158E JUMP JUMPDEST SWAP1 POP SWAP3 SWAP2 POP POP JUMP JUMPDEST PUSH2 0x1613 DUP2 PUSH2 0x1414 JUMP JUMPDEST DUP3 MSTORE POP POP JUMP JUMPDEST PUSH0 PUSH1 0x20 DUP3 ADD SWAP1 POP PUSH2 0x162C PUSH0 DUP4 ADD DUP5 PUSH2 0x160A JUMP JUMPDEST SWAP3 SWAP2 POP POP JUMP JUMPDEST PUSH0 DUP2 MLOAD SWAP1 POP SWAP2 SWAP1 POP JUMP JUMPDEST PUSH0 DUP3 DUP3 MSTORE PUSH1 0x20 DUP3 ADD SWAP1 POP SWAP3 SWAP2 POP POP JUMP JUMPDEST PUSH0 DUP2 SWAP1 POP PUSH1 0x20 DUP3 ADD SWAP1 POP SWAP2 SWAP1 POP JUMP JUMPDEST PUSH2 0x1664 DUP2 PUSH2 0x147A JUMP JUMPDEST DUP3 MSTORE POP POP JUMP JUMPDEST PUSH1 0x80 DUP3 ADD PUSH0 DUP3 ADD MLOAD PUSH2 0x167E PUSH0 DUP6 ADD DUP3 PUSH2 0x155C JUMP JUMPDEST POP PUSH1 0x20 DUP3 ADD MLOAD PUSH2 0x1691 PUSH1 0x20 DUP6 ADD DUP3 PUSH2 0x155C JUMP JUMPDEST POP PUSH1 0x40 DUP3 ADD MLOAD PUSH2 0x16A4 PUSH1 0x40 DUP6 ADD DUP3 PUSH2 0x155C JUMP JUMPDEST POP PUSH1 0x60 DUP3 ADD MLOAD PUSH2 0x16B7 PUSH1 0x60 DUP6 ADD DUP3 PUSH2 0x165B JUMP JUMPDEST POP POP POP POP JUMP JUMPDEST PUSH0 PUSH2 0x16C8 DUP4 DUP4 PUSH2 0x166A JUMP JUMPDEST PUSH1 0x80 DUP4 ADD SWAP1 POP SWAP3 SWAP2 POP POP JUMP JUMPDEST PUSH0 PUSH1 0x20 DUP3 ADD SWAP1 POP SWAP2 SWAP1 POP JUMP JUMPDEST PUSH0 PUSH2 0x16EA DUP3 PUSH2 0x1632 JUMP JUMPDEST PUSH2 0x16F4 DUP2 DUP6 PUSH2 0x163C JUMP JUMPDEST SWAP4 POP PUSH2 0x16FF DUP4 PUSH2 0x164C JUMP JUMPDEST DUP1 PUSH0 JUMPDEST DUP4 DUP2 LT ISZERO PUSH2 0x172F JUMPI DUP2 MLOAD PUSH2 0x1716 DUP9 DUP3 PUSH2 0x16BD JUMP JUMPDEST SWAP8 POP PUSH2 0x1721 DUP4 PUSH2 0x16D4 JUMP JUMPDEST SWAP3 POP POP PUSH1 0x1 DUP2 ADD SWAP1 POP PUSH2 0x1702 JUMP JUMPDEST POP DUP6 SWAP4 POP POP POP POP SWAP3 SWAP2 POP POP JUMP JUMPDEST PUSH0 PUSH1 0x40 DUP3 ADD SWAP1 POP DUP2 DUP2 SUB PUSH0 DUP4 ADD MSTORE PUSH2 0x1754 DUP2 DUP6 PUSH2 0x158E JUMP JUMPDEST SWAP1 POP DUP2 DUP2 SUB PUSH1 0x20 DUP4 ADD MSTORE PUSH2 0x1768 DUP2 DUP5 PUSH2 0x16E0 JUMP JUMPDEST SWAP1 POP SWAP4 SWAP3 POP POP POP JUMP JUMPDEST PUSH0 DUP1 PUSH1 0x40 DUP4 DUP6 SUB SLT ISZERO PUSH2 0x1787 JUMPI PUSH2 0x1786 PUSH2 0x13F1 JUMP JUMPDEST JUMPDEST PUSH0 PUSH2 0x1794 DUP6 DUP3 DUP7 ADD PUSH2 0x14F4 JUMP JUMPDEST SWAP3 POP POP PUSH1 0x20 PUSH2 0x17A5 DUP6 DUP3 DUP7 ADD PUSH2 0x14F4 JUMP JUMPDEST SWAP2 POP POP SWAP3 POP SWAP3 SWAP1 POP JUMP JUMPDEST PUSH0 PUSH1 0x80 DUP3 ADD SWAP1 POP PUSH2 0x17C2 PUSH0 DUP4 ADD DUP8 PUSH2 0x14B6 JUMP JUMPDEST PUSH2 0x17CF PUSH1 0x20 DUP4 ADD DUP7 PUSH2 0x14B6 JUMP JUMPDEST PUSH2 0x17DC PUSH1 0x40 DUP4 ADD DUP6 PUSH2 0x14B6 JUMP JUMPDEST PUSH2 0x17E9 PUSH1 0x60 DUP4 ADD DUP5 PUSH2 0x1485 JUMP JUMPDEST SWAP6 SWAP5 POP POP POP POP POP JUMP JUMPDEST PUSH0 DUP2 SWAP1 POP SWAP2 SWAP1 POP JUMP JUMPDEST PUSH0 PUSH2 0x1815 PUSH2 0x1810 PUSH2 0x180B DUP5 PUSH2 0x13F5 JUMP JUMPDEST PUSH2 0x17F2 JUMP JUMPDEST PUSH2 0x13F5 JUMP JUMPDEST SWAP1 POP SWAP2 SWAP1 POP JUMP JUMPDEST PUSH0 PUSH2 0x1826 DUP3 PUSH2 0x17FB JUMP JUMPDEST SWAP1 POP SWAP2 SWAP1 POP JUMP JUMPDEST PUSH0 PUSH2 0x1837 DUP3 PUSH2 0x181C JUMP JUMPDEST SWAP1 POP SWAP2 SWAP1 POP JUMP JUMPDEST PUSH2 0x1847 DUP2 PUSH2 0x182D JUMP JUMPDEST DUP3 MSTORE POP POP JUMP JUMPDEST PUSH0 PUSH1 0x20 DUP3 ADD SWAP1 POP PUSH2 0x1860 PUSH0 DUP4 ADD DUP5 PUSH2 0x183E JUMP JUMPDEST SWAP3 SWAP2 POP POP JUMP JUMPDEST PUSH32 0x4E487B7100000000000000000000000000000000000000000000000000000000 PUSH0 MSTORE PUSH1 0x11 PUSH1 0x4 MSTORE PUSH1 0x24 PUSH0 REVERT JUMPDEST PUSH0 PUSH2 0x189D DUP3 PUSH2 0x14AD JUMP JUMPDEST SWAP2 POP PUSH2 0x18A8 DUP4 PUSH2 0x14AD JUMP JUMPDEST SWAP3 POP DUP3 DUP3 SUB SWAP1 POP DUP2 DUP2 GT ISZERO PUSH2 0x18C0 JUMPI PUSH2 0x18BF PUSH2 0x1866 JUMP JUMPDEST JUMPDEST SWAP3 SWAP2 POP POP JUMP JUMPDEST PUSH0 PUSH2 0x18D0 DUP3 PUSH2 0x14AD JUMP JUMPDEST SWAP2 POP PUSH32 0xFFFFFFFFFFFFFFFFFFFFFFFFFFFFFFFFFFFFFFFFFFFFFFFFFFFFFFFFFFFFFFFF DUP3 SUB PUSH2 0x1902 JUMPI PUSH2 0x1901 PUSH2 0x1866 JUMP JUMPDEST JUMPDEST PUSH1 0x1 DUP3 ADD SWAP1 POP SWAP2 SWAP1 POP JUMP JUMPDEST PUSH32 0x4E487B7100000000000000000000000000000000000000000000000000000000 PUSH0 MSTORE PUSH1 0x41 PUSH1 0x4 MSTORE PUSH1 0x24 PUSH0 REVERT JUMPDEST PUSH32 0x4E487B7100000000000000000000000000000000000000000000000000000000 PUSH0 MSTORE PUSH1 0x32 PUSH1 0x4 MSTORE PUSH1 0x24 PUSH0 REVERT JUMPDEST PUSH0 DUP3 DUP3 MSTORE PUSH1 0x20 DUP3 ADD SWAP1 POP SWAP3 SWAP2 POP POP JUMP JUMPDEST PUSH32 0x4E6F20616D6F756E74207374616B656400000000000000000000000000000000 PUSH0 DUP3 ADD MSTORE POP JUMP JUMPDEST PUSH0 PUSH2 0x19AB PUSH1 0x10 DUP4 PUSH2 0x1967 JUMP JUMPDEST SWAP2 POP PUSH2 0x19B6 DUP3 PUSH2 0x1977 JUMP JUMPDEST PUSH1 0x20 DUP3 ADD SWAP1 POP SWAP2 SWAP1 POP JUMP JUMPDEST PUSH0 PUSH1 0x20 DUP3 ADD SWAP1 POP DUP2 DUP2 SUB PUSH0 DUP4 ADD MSTORE PUSH2 0x19D8 DUP2 PUSH2 0x199F JUMP JUMPDEST SWAP1 POP SWAP2 SWAP1 POP JUMP JUMPDEST PUSH0 PUSH1 0x40 DUP3 ADD SWAP1 POP PUSH2 0x19F2 PUSH0 DUP4 ADD DUP6 PUSH2 0x160A JUMP JUMPDEST PUSH2 0x19FF PUSH1 0x20 DUP4 ADD DUP5 PUSH2 0x14B6 JUMP JUMPDEST SWAP4 SWAP3 POP POP POP JUMP JUMPDEST PUSH2 0x1A0F DUP2 PUSH2 0x147A JUMP JUMPDEST DUP2 EQ PUSH2 0x1A19 JUMPI PUSH0 DUP1 REVERT JUMPDEST POP JUMP JUMPDEST PUSH0 DUP2 MLOAD SWAP1 POP PUSH2 0x1A2A DUP2 PUSH2 0x1A06 JUMP JUMPDEST SWAP3 SWAP2 POP POP JUMP JUMPDEST PUSH0 PUSH1 0x20 DUP3 DUP5 SUB SLT ISZERO PUSH2 0x1A45 JUMPI PUSH2 0x1A44 PUSH2 0x13F1 JUMP JUMPDEST JUMPDEST PUSH0 PUSH2 0x1A52 DUP5 DUP3 DUP6 ADD PUSH2 0x1A1C JUMP JUMPDEST SWAP2 POP POP SWAP3 SWAP2 POP POP JUMP JUMPDEST PUSH0 DUP2 MLOAD SWAP1 POP PUSH2 0x1A69 DUP2 PUSH2 0x14DE JUMP JUMPDEST SWAP3 SWAP2 POP POP JUMP JUMPDEST PUSH0 PUSH1 0x20 DUP3 DUP5 SUB SLT ISZERO PUSH2 0x1A84 JUMPI PUSH2 0x1A83 PUSH2 0x13F1 JUMP JUMPDEST JUMPDEST PUSH0 PUSH2 0x1A91 DUP5 DUP3 DUP6 ADD PUSH2 0x1A5B JUMP JUMPDEST SWAP2 POP POP SWAP3 SWAP2 POP POP JUMP JUMPDEST PUSH32 0x4D757374207374616B65206D6F7265207468616E207A65726F20746F6B656E73 PUSH0 DUP3 ADD MSTORE POP JUMP JUMPDEST PUSH0 PUSH2 0x1ACE PUSH1 0x20 DUP4 PUSH2 0x1967 JUMP JUMPDEST SWAP2 POP PUSH2 0x1AD9 DUP3 PUSH2 0x1A9A JUMP JUMPDEST PUSH1 0x20 DUP3 ADD SWAP1 POP SWAP2 SWAP1 POP JUMP JUMPDEST PUSH0 PUSH1 0x20 DUP3 ADD SWAP1 POP DUP2 DUP2 SUB PUSH0 DUP4 ADD MSTORE PUSH2 0x1AFB DUP2 PUSH2 0x1AC2 JUMP JUMPDEST SWAP1 POP SWAP2 SWAP1 POP JUMP JUMPDEST PUSH32 0x4E6F7420456E6F7567682042616C616E636520546F6B656E7320546F20537461 PUSH0 DUP3 ADD MSTORE PUSH32 0x6B65000000000000000000000000000000000000000000000000000000000000 PUSH1 0x20 DUP3 ADD MSTORE POP JUMP JUMPDEST PUSH0 PUSH2 0x1B5C PUSH1 0x22 DUP4 PUSH2 0x1967 JUMP JUMPDEST SWAP2 POP PUSH2 0x1B67 DUP3 PUSH2 0x1B02 JUMP JUMPDEST PUSH1 0x40 DUP3 ADD SWAP1 POP SWAP2 SWAP1 POP JUMP JUMPDEST PUSH0 PUSH1 0x20 DUP3 ADD SWAP1 POP DUP2 DUP2 SUB PUSH0 DUP4 ADD MSTORE PUSH2 0x1B89 DUP2 PUSH2 0x1B50 JUMP JUMPDEST SWAP1 POP SWAP2 SWAP1 POP JUMP JUMPDEST PUSH32 0x5461727269662063616E204F6E6C79206265206F6620322C342C362C382C3130 PUSH0 DUP3 ADD MSTORE PUSH32 0x204D696E75746573000000000000000000000000000000000000000000000000 PUSH1 0x20 DUP3 ADD MSTORE POP JUMP JUMPDEST PUSH0 PUSH2 0x1BEA PUSH1 0x28 DUP4 PUSH2 0x1967 JUMP JUMPDEST SWAP2 POP PUSH2 0x1BF5 DUP3 PUSH2 0x1B90 JUMP JUMPDEST PUSH1 0x40 DUP3 ADD SWAP1 POP SWAP2 SWAP1 POP JUMP JUMPDEST PUSH0 PUSH1 0x20 DUP3 ADD SWAP1 POP DUP2 DUP2 SUB PUSH0 DUP4 ADD MSTORE PUSH2 0x1C17 DUP2 PUSH2 0x1BDE JUMP JUMPDEST SWAP1 POP SWAP2 SWAP1 POP JUMP JUMPDEST PUSH0 PUSH1 0x60 DUP3 ADD SWAP1 POP PUSH2 0x1C31 PUSH0 DUP4 ADD DUP7 PUSH2 0x160A JUMP JUMPDEST PUSH2 0x1C3E PUSH1 0x20 DUP4 ADD DUP6 PUSH2 0x160A JUMP JUMPDEST PUSH2 0x1C4B PUSH1 0x40 DUP4 ADD DUP5 PUSH2 0x14B6 JUMP JUMPDEST SWAP5 SWAP4 POP POP POP POP JUMP JUMPDEST PUSH32 0x4769766520617070726F76616C2066726F6D20696E697469616C20746F207374 PUSH0 DUP3 ADD MSTORE PUSH32 0x616B650000000000000000000000000000000000000000000000000000000000 PUSH1 0x20 DUP3 ADD MSTORE POP JUMP JUMPDEST PUSH0 PUSH2 0x1CAD PUSH1 0x23 DUP4 PUSH2 0x1967 JUMP JUMPDEST SWAP2 POP PUSH2 0x1CB8 DUP3 PUSH2 0x1C53 JUMP JUMPDEST PUSH1 0x40 DUP3 ADD SWAP1 POP SWAP2 SWAP1 POP JUMP JUMPDEST PUSH0 PUSH1 0x20 DUP3 ADD SWAP1 POP DUP2 DUP2 SUB PUSH0 DUP4 ADD MSTORE PUSH2 0x1CDA DUP2 PUSH2 0x1CA1 JUMP JUMPDEST SWAP1 POP SWAP2 SWAP1 POP JUMP JUMPDEST PUSH0 PUSH2 0x1CEB DUP3 PUSH2 0x14AD JUMP JUMPDEST SWAP2 POP PUSH2 0x1CF6 DUP4 PUSH2 0x14AD JUMP JUMPDEST SWAP3 POP DUP3 DUP3 ADD SWAP1 POP DUP1 DUP3 GT ISZERO PUSH2 0x1D0E JUMPI PUSH2 0x1D0D PUSH2 0x1866 JUMP JUMPDEST JUMPDEST SWAP3 SWAP2 POP POP JUMP JUMPDEST PUSH0 PUSH2 0x1D1E DUP3 PUSH2 0x14AD JUMP JUMPDEST SWAP2 POP PUSH2 0x1D29 DUP4 PUSH2 0x14AD JUMP JUMPDEST SWAP3 POP DUP3 DUP3 MUL PUSH2 0x1D37 DUP2 PUSH2 0x14AD JUMP JUMPDEST SWAP2 POP DUP3 DUP3 DIV DUP5 EQ DUP4 ISZERO OR PUSH2 0x1D4E JUMPI PUSH2 0x1D4D PUSH2 0x1866 JUMP JUMPDEST JUMPDEST POP SWAP3 SWAP2 POP POP JUMP JUMPDEST PUSH32 0x436F6F6C646F776E2054696D6500000000000000000000000000000000000000 PUSH0 DUP3 ADD MSTORE POP JUMP JUMPDEST PUSH0 PUSH2 0x1D89 PUSH1 0xD DUP4 PUSH2 0x1967 JUMP JUMPDEST SWAP2 POP PUSH2 0x1D94 DUP3 PUSH2 0x1D55 JUMP JUMPDEST PUSH1 0x20 DUP3 ADD SWAP1 POP SWAP2 SWAP1 POP JUMP JUMPDEST PUSH0 PUSH1 0x20 DUP3 ADD SWAP1 POP DUP2 DUP2 SUB PUSH0 DUP4 ADD MSTORE PUSH2 0x1DB6 DUP2 PUSH2 0x1D7D JUMP JUMPDEST SWAP1 POP SWAP2 SWAP1 POP JUMP JUMPDEST PUSH32 0x596F7520686176656E2774207374616B656420616E7920616D6F756E74000000 PUSH0 DUP3 ADD MSTORE POP JUMP JUMPDEST PUSH0 PUSH2 0x1DF1 PUSH1 0x1D DUP4 PUSH2 0x1967 JUMP JUMPDEST SWAP2 POP PUSH2 0x1DFC DUP3 PUSH2 0x1DBD JUMP JUMPDEST PUSH1 0x20 DUP3 ADD SWAP1 POP SWAP2 SWAP1 POP JUMP JUMPDEST PUSH0 PUSH1 0x20 DUP3 ADD SWAP1 POP DUP2 DUP2 SUB PUSH0 DUP4 ADD MSTORE PUSH2 0x1E1E DUP2 PUSH2 0x1DE5 JUMP JUMPDEST SWAP1 POP SWAP2 SWAP1 POP JUMP JUMPDEST PUSH32 0x4E6F2072657761726420746F20636C61696D0000000000000000000000000000 PUSH0 DUP3 ADD MSTORE POP JUMP JUMPDEST PUSH0 PUSH2 0x1E59 PUSH1 0x12 DUP4 PUSH2 0x1967 JUMP JUMPDEST SWAP2 POP PUSH2 0x1E64 DUP3 PUSH2 0x1E25 JUMP JUMPDEST PUSH1 0x20 DUP3 ADD SWAP1 POP SWAP2 SWAP1 POP JUMP JUMPDEST PUSH0 PUSH1 0x20 DUP3 ADD SWAP1 POP DUP2 DUP2 SUB PUSH0 DUP4 ADD MSTORE PUSH2 0x1E86 DUP2 PUSH2 0x1E4D JUMP JUMPDEST SWAP1 POP SWAP2 SWAP1 POP JUMP JUMPDEST PUSH32 0x4E487B7100000000000000000000000000000000000000000000000000000000 PUSH0 MSTORE PUSH1 0x12 PUSH1 0x4 MSTORE PUSH1 0x24 PUSH0 REVERT JUMPDEST PUSH0 PUSH2 0x1EC4 DUP3 PUSH2 0x14AD JUMP JUMPDEST SWAP2 POP PUSH2 0x1ECF DUP4 PUSH2 0x14AD JUMP JUMPDEST SWAP3 POP DUP3 PUSH2 0x1EDF JUMPI PUSH2 0x1EDE PUSH2 0x1E8D JUMP JUMPDEST JUMPDEST DUP3 DUP3 DIV SWAP1 POP SWAP3 SWAP2 POP POP JUMP INVALID LOG2 PUSH5 0x6970667358 0x22 SLT KECCAK256 PUSH12 0x7577B14FA31C322171130A71 PUSH21 0x55EFA4668FB726E1D6F114B12D2D5F93678D64736F PUSH13 0x63430008150033000000000000 "
				},
				"gasEstimates": {
					"creation": {
						"codeDepositCost": "1593600",
						"executionCost": "infinite",
						"totalCost": "infinite"
					},
					"external": {
						"CurrentTime()": "375",
						"IdsAndDetails(address)": "infinite",
						"Stake(uint256,uint256)": "infinite",
						"claimAmount(address)": "infinite",
						"claimReward(address)": "infinite",
						"contractBalance()": "infinite",
						"genrateReward(uint256)": "infinite",
						"getIds(address)": "infinite",
						"interest()": "2448",
						"isRewardAvailable(address)": "infinite",
						"owner()": "2575",
						"rewards(address)": "2848",
						"stakeTime(uint256)": "infinite",
						"stakes(uint256)": "infinite",
						"stakingOwner(uint256)": "2916",
						"token()": "infinite"
					},
					"internal": {
						"min(uint256,uint256)": "63"
					}
				},
				"methodIdentifiers": {
					"CurrentTime()": "d80e8700",
					"IdsAndDetails(address)": "c9352971",
					"Stake(uint256,uint256)": "c9ec05ea",
					"claimAmount(address)": "78317be7",
					"claimReward(address)": "d279c191",
					"contractBalance()": "8b7afe2e",
					"genrateReward(uint256)": "f3a93e80",
					"getIds(address)": "2671b0d8",
					"interest()": "c392f766",
					"isRewardAvailable(address)": "0064f50c",
					"owner()": "8da5cb5b",
					"rewards(address)": "0700037d",
					"stakeTime(uint256)": "0a42f049",
					"stakes(uint256)": "d5a44f86",
					"stakingOwner(uint256)": "90eb2981",
					"token()": "fc0c546a"
				}
			},
			"storageLayout": {
				"storage": [
					{
						"astId": 162,
						"contract": "Staking/staking.sol:staking",
						"label": "StakeIdCounter",
						"offset": 0,
						"slot": "0",
						"type": "t_struct(Counter)83_storage"
					},
					{
						"astId": 165,
						"contract": "Staking/staking.sol:staking",
						"label": "token",
						"offset": 0,
						"slot": "1",
						"type": "t_contract(IERC20)77"
					},
					{
						"astId": 167,
						"contract": "Staking/staking.sol:staking",
						"label": "owner",
						"offset": 0,
						"slot": "2",
						"type": "t_address"
					},
					{
						"astId": 170,
						"contract": "Staking/staking.sol:staking",
						"label": "interest",
						"offset": 0,
						"slot": "3",
						"type": "t_uint256"
					},
					{
						"astId": 181,
						"contract": "Staking/staking.sol:staking",
						"label": "lastRewardClaimTime",
						"offset": 0,
						"slot": "4",
						"type": "t_uint256"
					},
					{
						"astId": 185,
						"contract": "Staking/staking.sol:staking",
						"label": "stakingOwner",
						"offset": 0,
						"slot": "5",
						"type": "t_mapping(t_uint256,t_address)"
					},
					{
						"astId": 190,
						"contract": "Staking/staking.sol:staking",
						"label": "stakes",
						"offset": 0,
						"slot": "6",
						"type": "t_mapping(t_uint256,t_struct(StakingInfo)179_storage)"
					},
					{
						"astId": 194,
						"contract": "Staking/staking.sol:staking",
						"label": "rewards",
						"offset": 0,
						"slot": "7",
						"type": "t_mapping(t_address,t_uint256)"
					}
				],
				"types": {
					"t_address": {
						"encoding": "inplace",
						"label": "address",
						"numberOfBytes": "20"
					},
					"t_bool": {
						"encoding": "inplace",
						"label": "bool",
						"numberOfBytes": "1"
					},
					"t_contract(IERC20)77": {
						"encoding": "inplace",
						"label": "contract IERC20",
						"numberOfBytes": "20"
					},
					"t_mapping(t_address,t_uint256)": {
						"encoding": "mapping",
						"key": "t_address",
						"label": "mapping(address => uint256)",
						"numberOfBytes": "32",
						"value": "t_uint256"
					},
					"t_mapping(t_uint256,t_address)": {
						"encoding": "mapping",
						"key": "t_uint256",
						"label": "mapping(uint256 => address)",
						"numberOfBytes": "32",
						"value": "t_address"
					},
					"t_mapping(t_uint256,t_struct(StakingInfo)179_storage)": {
						"encoding": "mapping",
						"key": "t_uint256",
						"label": "mapping(uint256 => struct staking.StakingInfo)",
						"numberOfBytes": "32",
						"value": "t_struct(StakingInfo)179_storage"
					},
					"t_struct(Counter)83_storage": {
						"encoding": "inplace",
						"label": "struct Counters.Counter",
						"members": [
							{
								"astId": 82,
								"contract": "Staking/staking.sol:staking",
								"label": "_value",
								"offset": 0,
								"slot": "0",
								"type": "t_uint256"
							}
						],
						"numberOfBytes": "32"
					},
					"t_struct(StakingInfo)179_storage": {
						"encoding": "inplace",
						"label": "struct staking.StakingInfo",
						"members": [
							{
								"astId": 172,
								"contract": "Staking/staking.sol:staking",
								"label": "StakedAmount",
								"offset": 0,
								"slot": "0",
								"type": "t_uint256"
							},
							{
								"astId": 174,
								"contract": "Staking/staking.sol:staking",
								"label": "StakedTime",
								"offset": 0,
								"slot": "1",
								"type": "t_uint256"
							},
							{
								"astId": 176,
								"contract": "Staking/staking.sol:staking",
								"label": "duration",
								"offset": 0,
								"slot": "2",
								"type": "t_uint256"
							},
							{
								"astId": 178,
								"contract": "Staking/staking.sol:staking",
								"label": "expired",
								"offset": 0,
								"slot": "3",
								"type": "t_bool"
							}
						],
						"numberOfBytes": "128"
					},
					"t_uint256": {
						"encoding": "inplace",
						"label": "uint256",
						"numberOfBytes": "32"
					}
				}
			},
			"userdoc": {
				"kind": "user",
				"methods": {},
				"version": 1
			}
		}
	}
}