{
	"Staking/staking.sol": {
		"staking": {
			"abi": [
				{
					"inputs": [
						{
							"internalType": "address",
							"name": "_token",
							"type": "address"
						}
					],
					"stateMutability": "nonpayable",
					"type": "constructor"
				},
				{
					"inputs": [],
					"name": "CurrentTime",
					"outputs": [
						{
							"internalType": "uint256",
							"name": "",
							"type": "uint256"
						}
					],
					"stateMutability": "view",
					"type": "function"
				},
				{
					"inputs": [
						{
							"internalType": "address",
							"name": "ad",
							"type": "address"
						}
					],
					"name": "IdsAndDetails",
					"outputs": [
						{
							"internalType": "uint256[]",
							"name": "",
							"type": "uint256[]"
						},
						{
							"components": [
								{
									"internalType": "uint256",
									"name": "StakedAmount",
									"type": "uint256"
								},
								{
									"internalType": "uint256",
									"name": "StakedTime",
									"type": "uint256"
								},
								{
									"internalType": "uint256",
									"name": "duration",
									"type": "uint256"
								},
								{
									"internalType": "bool",
									"name": "expired",
									"type": "bool"
								}
							],
							"internalType": "struct staking.StakingInfo[]",
							"name": "",
							"type": "tuple[]"
						}
					],
					"stateMutability": "view",
					"type": "function"
				},
				{
					"inputs": [
						{
							"internalType": "address",
							"name": "ad",
							"type": "address"
						}
					],
					"name": "claimAmount",
					"outputs": [],
					"stateMutability": "nonpayable",
					"type": "function"
				},
				{
					"inputs": [
						{
							"internalType": "address",
							"name": "ad",
							"type": "address"
						}
					],
					"name": "claimReward",
					"outputs": [],
					"stateMutability": "nonpayable",
					"type": "function"
				},
				{
					"inputs": [],
					"name": "contractBalance",
					"outputs": [
						{
							"internalType": "uint256",
							"name": "",
							"type": "uint256"
						}
					],
					"stateMutability": "view",
					"type": "function"
				},
				{
					"inputs": [
						{
							"internalType": "uint256",
							"name": "id",
							"type": "uint256"
						}
					],
					"name": "genrateReward",
					"outputs": [],
					"stateMutability": "nonpayable",
					"type": "function"
				},
				{
					"inputs": [
						{
							"internalType": "address",
							"name": "ad",
							"type": "address"
						}
					],
					"name": "getIds",
					"outputs": [
						{
							"internalType": "uint256[]",
							"name": "",
							"type": "uint256[]"
						}
					],
					"stateMutability": "view",
					"type": "function"
				},
				{
					"inputs": [],
					"name": "interest",
					"outputs": [
						{
							"internalType": "uint256",
							"name": "",
							"type": "uint256"
						}
					],
					"stateMutability": "view",
					"type": "function"
				},
				{
					"inputs": [],
					"name": "owner",
					"outputs": [
						{
							"internalType": "address",
							"name": "",
							"type": "address"
						}
					],
					"stateMutability": "view",
					"type": "function"
				},
				{
					"inputs": [
						{
							"internalType": "address",
							"name": "",
							"type": "address"
						}
					],
					"name": "rewards",
					"outputs": [
						{
							"internalType": "uint256",
							"name": "",
							"type": "uint256"
						}
					],
					"stateMutability": "view",
					"type": "function"
				},
				{
					"inputs": [
						{
							"internalType": "uint256",
							"name": "_numTokens",
							"type": "uint256"
						},
						{
							"internalType": "uint256",
							"name": "time",
							"type": "uint256"
						}
					],
					"name": "stake",
					"outputs": [
						{
							"internalType": "uint256",
							"name": "",
							"type": "uint256"
						}
					],
					"stateMutability": "nonpayable",
					"type": "function"
				},
				{
					"inputs": [
						{
							"internalType": "uint256",
							"name": "id",
							"type": "uint256"
						}
					],
					"name": "stakeTime",
					"outputs": [
						{
							"internalType": "uint256",
							"name": "",
							"type": "uint256"
						}
					],
					"stateMutability": "view",
					"type": "function"
				},
				{
					"inputs": [
						{
							"internalType": "uint256",
							"name": "",
							"type": "uint256"
						}
					],
					"name": "stakes",
					"outputs": [
						{
							"internalType": "uint256",
							"name": "StakedAmount",
							"type": "uint256"
						},
						{
							"internalType": "uint256",
							"name": "StakedTime",
							"type": "uint256"
						},
						{
							"internalType": "uint256",
							"name": "duration",
							"type": "uint256"
						},
						{
							"internalType": "bool",
							"name": "expired",
							"type": "bool"
						}
					],
					"stateMutability": "view",
					"type": "function"
				},
				{
					"inputs": [
						{
							"internalType": "uint256",
							"name": "",
							"type": "uint256"
						}
					],
					"name": "stakingOwner",
					"outputs": [
						{
							"internalType": "address",
							"name": "",
							"type": "address"
						}
					],
					"stateMutability": "view",
					"type": "function"
				},
				{
					"inputs": [],
					"name": "token",
					"outputs": [
						{
							"internalType": "contract IERC20",
							"name": "",
							"type": "address"
						}
					],
					"stateMutability": "view",
					"type": "function"
				}
			],
			"devdoc": {
				"kind": "dev",
				"methods": {},
				"version": 1
			},
			"evm": {
				"assembly": "    /* \"Staking/staking.sol\":702:8149  contract staking {... */\n  mstore(0x40, 0x80)\n    /* \"Staking/staking.sol\":890:891  1 */\n  0x01\n    /* \"Staking/staking.sol\":864:891  uint256 public interest = 1 */\n  0x03\n  sstore\n    /* \"Staking/staking.sol\":1390:1559  constructor(address _token) {... */\n  callvalue\n  dup1\n  iszero\n  tag_1\n  jumpi\n  0x00\n  dup1\n  revert\ntag_1:\n  pop\n  mload(0x40)\n  sub(codesize, bytecodeSize)\n  dup1\n  bytecodeSize\n  dup4\n  codecopy\n  dup2\n  dup2\n  add\n  0x40\n  mstore\n  dup2\n  add\n  swap1\n  tag_2\n  swap2\n  swap1\n  tag_3\n  jump\t// in\ntag_2:\n    /* \"Staking/staking.sol\":1517:1523  _token */\n  dup1\n    /* \"Staking/staking.sol\":1502:1507  token */\n  0x01\n  0x00\n    /* \"Staking/staking.sol\":1502:1524  token = IERC20(_token) */\n  0x0100\n  exp\n  dup2\n  sload\n  dup2\n  0xffffffffffffffffffffffffffffffffffffffff\n  mul\n  not\n  and\n  swap1\n  dup4\n  0xffffffffffffffffffffffffffffffffffffffff\n  and\n  mul\n  or\n  swap1\n  sstore\n  pop\n    /* \"Staking/staking.sol\":1542:1552  msg.sender */\n  caller\n    /* \"Staking/staking.sol\":1534:1539  owner */\n  0x02\n  0x00\n    /* \"Staking/staking.sol\":1534:1552  owner = msg.sender */\n  0x0100\n  exp\n  dup2\n  sload\n  dup2\n  0xffffffffffffffffffffffffffffffffffffffff\n  mul\n  not\n  and\n  swap1\n  dup4\n  0xffffffffffffffffffffffffffffffffffffffff\n  and\n  mul\n  or\n  swap1\n  sstore\n  pop\n    /* \"Staking/staking.sol\":1390:1559  constructor(address _token) {... */\n  pop\n    /* \"Staking/staking.sol\":702:8149  contract staking {... */\n  jump(tag_6)\n    /* \"#utility.yul\":88:205   */\ntag_8:\n    /* \"#utility.yul\":197:198   */\n  0x00\n    /* \"#utility.yul\":194:195   */\n  dup1\n    /* \"#utility.yul\":187:199   */\n  revert\n    /* \"#utility.yul\":334:460   */\ntag_10:\n    /* \"#utility.yul\":371:378   */\n  0x00\n    /* \"#utility.yul\":411:453   */\n  0xffffffffffffffffffffffffffffffffffffffff\n    /* \"#utility.yul\":404:409   */\n  dup3\n    /* \"#utility.yul\":400:454   */\n  and\n    /* \"#utility.yul\":389:454   */\n  swap1\n  pop\n    /* \"#utility.yul\":334:460   */\n  swap2\n  swap1\n  pop\n  jump\t// out\n    /* \"#utility.yul\":466:562   */\ntag_11:\n    /* \"#utility.yul\":503:510   */\n  0x00\n    /* \"#utility.yul\":532:556   */\n  tag_20\n    /* \"#utility.yul\":550:555   */\n  dup3\n    /* \"#utility.yul\":532:556   */\n  tag_10\n  jump\t// in\ntag_20:\n    /* \"#utility.yul\":521:556   */\n  swap1\n  pop\n    /* \"#utility.yul\":466:562   */\n  swap2\n  swap1\n  pop\n  jump\t// out\n    /* \"#utility.yul\":568:690   */\ntag_12:\n    /* \"#utility.yul\":641:665   */\n  tag_22\n    /* \"#utility.yul\":659:664   */\n  dup2\n    /* \"#utility.yul\":641:665   */\n  tag_11\n  jump\t// in\ntag_22:\n    /* \"#utility.yul\":634:639   */\n  dup2\n    /* \"#utility.yul\":631:666   */\n  eq\n    /* \"#utility.yul\":621:684   */\n  tag_23\n  jumpi\n    /* \"#utility.yul\":680:681   */\n  0x00\n    /* \"#utility.yul\":677:678   */\n  dup1\n    /* \"#utility.yul\":670:682   */\n  revert\n    /* \"#utility.yul\":621:684   */\ntag_23:\n    /* \"#utility.yul\":568:690   */\n  pop\n  jump\t// out\n    /* \"#utility.yul\":696:839   */\ntag_13:\n    /* \"#utility.yul\":753:758   */\n  0x00\n    /* \"#utility.yul\":784:790   */\n  dup2\n    /* \"#utility.yul\":778:791   */\n  mload\n    /* \"#utility.yul\":769:791   */\n  swap1\n  pop\n    /* \"#utility.yul\":800:833   */\n  tag_25\n    /* \"#utility.yul\":827:832   */\n  dup2\n    /* \"#utility.yul\":800:833   */\n  tag_12\n  jump\t// in\ntag_25:\n    /* \"#utility.yul\":696:839   */\n  swap3\n  swap2\n  pop\n  pop\n  jump\t// out\n    /* \"#utility.yul\":845:1196   */\ntag_3:\n    /* \"#utility.yul\":915:921   */\n  0x00\n    /* \"#utility.yul\":964:966   */\n  0x20\n    /* \"#utility.yul\":952:961   */\n  dup3\n    /* \"#utility.yul\":943:950   */\n  dup5\n    /* \"#utility.yul\":939:962   */\n  sub\n    /* \"#utility.yul\":935:967   */\n  slt\n    /* \"#utility.yul\":932:1051   */\n  iszero\n  tag_27\n  jumpi\n    /* \"#utility.yul\":970:1049   */\n  tag_28\n  tag_8\n  jump\t// in\ntag_28:\n    /* \"#utility.yul\":932:1051   */\ntag_27:\n    /* \"#utility.yul\":1090:1091   */\n  0x00\n    /* \"#utility.yul\":1115:1179   */\n  tag_29\n    /* \"#utility.yul\":1171:1178   */\n  dup5\n    /* \"#utility.yul\":1162:1168   */\n  dup3\n    /* \"#utility.yul\":1151:1160   */\n  dup6\n    /* \"#utility.yul\":1147:1169   */\n  add\n    /* \"#utility.yul\":1115:1179   */\n  tag_13\n  jump\t// in\ntag_29:\n    /* \"#utility.yul\":1105:1179   */\n  swap2\n  pop\n    /* \"#utility.yul\":1061:1189   */\n  pop\n    /* \"#utility.yul\":845:1196   */\n  swap3\n  swap2\n  pop\n  pop\n  jump\t// out\n    /* \"Staking/staking.sol\":702:8149  contract staking {... */\ntag_6:\n  dataSize(sub_0)\n  dup1\n  dataOffset(sub_0)\n  0x00\n  codecopy\n  0x00\n  return\nstop\n\nsub_0: assembly {\n        /* \"Staking/staking.sol\":702:8149  contract staking {... */\n      mstore(0x40, 0x80)\n      callvalue\n      dup1\n      iszero\n      tag_1\n      jumpi\n      0x00\n      dup1\n      revert\n    tag_1:\n      pop\n      jumpi(tag_2, lt(calldatasize, 0x04))\n      shr(0xe0, calldataload(0x00))\n      dup1\n      0x90eb2981\n      gt\n      tag_18\n      jumpi\n      dup1\n      0xd5a44f86\n      gt\n      tag_19\n      jumpi\n      dup1\n      0xd5a44f86\n      eq\n      tag_14\n      jumpi\n      dup1\n      0xd80e8700\n      eq\n      tag_15\n      jumpi\n      dup1\n      0xf3a93e80\n      eq\n      tag_16\n      jumpi\n      dup1\n      0xfc0c546a\n      eq\n      tag_17\n      jumpi\n      jump(tag_2)\n    tag_19:\n      dup1\n      0x90eb2981\n      eq\n      tag_10\n      jumpi\n      dup1\n      0xc392f766\n      eq\n      tag_11\n      jumpi\n      dup1\n      0xc9352971\n      eq\n      tag_12\n      jumpi\n      dup1\n      0xd279c191\n      eq\n      tag_13\n      jumpi\n      jump(tag_2)\n    tag_18:\n      dup1\n      0x78317be7\n      gt\n      tag_20\n      jumpi\n      dup1\n      0x78317be7\n      eq\n      tag_6\n      jumpi\n      dup1\n      0x7b0472f0\n      eq\n      tag_7\n      jumpi\n      dup1\n      0x8b7afe2e\n      eq\n      tag_8\n      jumpi\n      dup1\n      0x8da5cb5b\n      eq\n      tag_9\n      jumpi\n      jump(tag_2)\n    tag_20:\n      dup1\n      0x0700037d\n      eq\n      tag_3\n      jumpi\n      dup1\n      0x0a42f049\n      eq\n      tag_4\n      jumpi\n      dup1\n      0x2671b0d8\n      eq\n      tag_5\n      jumpi\n    tag_2:\n      0x00\n      dup1\n      revert\n        /* \"Staking/staking.sol\":1341:1383  mapping(address => uint256) public rewards */\n    tag_3:\n      tag_21\n      0x04\n      dup1\n      calldatasize\n      sub\n      dup2\n      add\n      swap1\n      tag_22\n      swap2\n      swap1\n      tag_23\n      jump\t// in\n    tag_22:\n      tag_24\n      jump\t// in\n    tag_21:\n      mload(0x40)\n      tag_25\n      swap2\n      swap1\n      tag_26\n      jump\t// in\n    tag_25:\n      mload(0x40)\n      dup1\n      swap2\n      sub\n      swap1\n      return\n        /* \"Staking/staking.sol\":5210:5316  function stakeTime(uint256 id) view public returns (uint256) {... */\n    tag_4:\n      tag_27\n      0x04\n      dup1\n      calldatasize\n      sub\n      dup2\n      add\n      swap1\n      tag_28\n      swap2\n      swap1\n      tag_29\n      jump\t// in\n    tag_28:\n      tag_30\n      jump\t// in\n    tag_27:\n      mload(0x40)\n      tag_31\n      swap2\n      swap1\n      tag_26\n      jump\t// in\n    tag_31:\n      mload(0x40)\n      dup1\n      swap2\n      sub\n      swap1\n      return\n        /* \"Staking/staking.sol\":4486:5139  function getIds(address ad) public view returns (uint256[] memory) {... */\n    tag_5:\n      tag_32\n      0x04\n      dup1\n      calldatasize\n      sub\n      dup2\n      add\n      swap1\n      tag_33\n      swap2\n      swap1\n      tag_23\n      jump\t// in\n    tag_33:\n      tag_34\n      jump\t// in\n    tag_32:\n      mload(0x40)\n      tag_35\n      swap2\n      swap1\n      tag_36\n      jump\t// in\n    tag_35:\n      mload(0x40)\n      dup1\n      swap2\n      sub\n      swap1\n      return\n        /* \"Staking/staking.sol\":7481:8147  function claimAmount(address ad) public {... */\n    tag_6:\n      tag_37\n      0x04\n      dup1\n      calldatasize\n      sub\n      dup2\n      add\n      swap1\n      tag_38\n      swap2\n      swap1\n      tag_23\n      jump\t// in\n    tag_38:\n      tag_39\n      jump\t// in\n    tag_37:\n      stop\n        /* \"Staking/staking.sol\":1990:3395  function stake(uint256 _numTokens, uint256 time) external returns (uint256) {... */\n    tag_7:\n      tag_40\n      0x04\n      dup1\n      calldatasize\n      sub\n      dup2\n      add\n      swap1\n      tag_41\n      swap2\n      swap1\n      tag_42\n      jump\t// in\n    tag_41:\n      tag_43\n      jump\t// in\n    tag_40:\n      mload(0x40)\n      tag_44\n      swap2\n      swap1\n      tag_26\n      jump\t// in\n    tag_44:\n      mload(0x40)\n      dup1\n      swap2\n      sub\n      swap1\n      return\n        /* \"Staking/staking.sol\":5375:5486  function contractBalance() public view returns (uint256) {... */\n    tag_8:\n      tag_45\n      tag_46\n      jump\t// in\n    tag_45:\n      mload(0x40)\n      tag_47\n      swap2\n      swap1\n      tag_26\n      jump\t// in\n    tag_47:\n      mload(0x40)\n      dup1\n      swap2\n      sub\n      swap1\n      return\n        /* \"Staking/staking.sol\":837:857  address public owner */\n    tag_9:\n      tag_48\n      tag_49\n      jump\t// in\n    tag_48:\n      mload(0x40)\n      tag_50\n      swap2\n      swap1\n      tag_51\n      jump\t// in\n    tag_50:\n      mload(0x40)\n      dup1\n      swap2\n      sub\n      swap1\n      return\n        /* \"Staking/staking.sol\":1062:1109  mapping(uint256 => address) public stakingOwner */\n    tag_10:\n      tag_52\n      0x04\n      dup1\n      calldatasize\n      sub\n      dup2\n      add\n      swap1\n      tag_53\n      swap2\n      swap1\n      tag_29\n      jump\t// in\n    tag_53:\n      tag_54\n      jump\t// in\n    tag_52:\n      mload(0x40)\n      tag_55\n      swap2\n      swap1\n      tag_51\n      jump\t// in\n    tag_55:\n      mload(0x40)\n      dup1\n      swap2\n      sub\n      swap1\n      return\n        /* \"Staking/staking.sol\":864:891  uint256 public interest = 1 */\n    tag_11:\n      tag_56\n      tag_57\n      jump\t// in\n    tag_56:\n      mload(0x40)\n      tag_58\n      swap2\n      swap1\n      tag_26\n      jump\t// in\n    tag_58:\n      mload(0x40)\n      dup1\n      swap2\n      sub\n      swap1\n      return\n        /* \"Staking/staking.sol\":3488:4413  function IdsAndDetails(address ad) public view returns (uint256[] memory, StakingInfo[] memory) {... */\n    tag_12:\n      tag_59\n      0x04\n      dup1\n      calldatasize\n      sub\n      dup2\n      add\n      swap1\n      tag_60\n      swap2\n      swap1\n      tag_23\n      jump\t// in\n    tag_60:\n      tag_61\n      jump\t// in\n    tag_59:\n      mload(0x40)\n      tag_62\n      swap3\n      swap2\n      swap1\n      tag_63\n      jump\t// in\n    tag_62:\n      mload(0x40)\n      dup1\n      swap2\n      sub\n      swap1\n      return\n        /* \"Staking/staking.sol\":6746:7423  function claimReward(address ad) public {... */\n    tag_13:\n      tag_64\n      0x04\n      dup1\n      calldatasize\n      sub\n      dup2\n      add\n      swap1\n      tag_65\n      swap2\n      swap1\n      tag_23\n      jump\t// in\n    tag_65:\n      tag_66\n      jump\t// in\n    tag_64:\n      stop\n        /* \"Staking/staking.sol\":1138:1183  mapping(uint256 => StakingInfo) public stakes */\n    tag_14:\n      tag_67\n      0x04\n      dup1\n      calldatasize\n      sub\n      dup2\n      add\n      swap1\n      tag_68\n      swap2\n      swap1\n      tag_29\n      jump\t// in\n    tag_68:\n      tag_69\n      jump\t// in\n    tag_67:\n      mload(0x40)\n      tag_70\n      swap5\n      swap4\n      swap3\n      swap2\n      swap1\n      tag_71\n      jump\t// in\n    tag_70:\n      mload(0x40)\n      dup1\n      swap2\n      sub\n      swap1\n      return\n        /* \"Staking/staking.sol\":5570:5662  function CurrentTime() public view returns (uint256) {... */\n    tag_15:\n      tag_72\n      tag_73\n      jump\t// in\n    tag_72:\n      mload(0x40)\n      tag_74\n      swap2\n      swap1\n      tag_26\n      jump\t// in\n    tag_74:\n      mload(0x40)\n      dup1\n      swap2\n      sub\n      swap1\n      return\n        /* \"Staking/staking.sol\":6074:6617  function genrateReward(uint256 id) public {... */\n    tag_16:\n      tag_75\n      0x04\n      dup1\n      calldatasize\n      sub\n      dup2\n      add\n      swap1\n      tag_76\n      swap2\n      swap1\n      tag_29\n      jump\t// in\n    tag_76:\n      tag_77\n      jump\t// in\n    tag_75:\n      stop\n        /* \"Staking/staking.sol\":812:831  IERC20 public token */\n    tag_17:\n      tag_78\n      tag_79\n      jump\t// in\n    tag_78:\n      mload(0x40)\n      tag_80\n      swap2\n      swap1\n      tag_81\n      jump\t// in\n    tag_80:\n      mload(0x40)\n      dup1\n      swap2\n      sub\n      swap1\n      return\n        /* \"Staking/staking.sol\":1341:1383  mapping(address => uint256) public rewards */\n    tag_24:\n      mstore(0x20, 0x06)\n      dup1\n      0x00\n      mstore\n      keccak256(0x00, 0x40)\n      0x00\n      swap2\n      pop\n      swap1\n      pop\n      sload\n      dup2\n      jump\t// out\n        /* \"Staking/staking.sol\":5210:5316  function stakeTime(uint256 id) view public returns (uint256) {... */\n    tag_30:\n        /* \"Staking/staking.sol\":5262:5269  uint256 */\n      0x00\n        /* \"Staking/staking.sol\":5288:5294  stakes */\n      0x05\n        /* \"Staking/staking.sol\":5288:5298  stakes[id] */\n      0x00\n        /* \"Staking/staking.sol\":5295:5297  id */\n      dup4\n        /* \"Staking/staking.sol\":5288:5298  stakes[id] */\n      dup2\n      mstore\n      0x20\n      add\n      swap1\n      dup2\n      mstore\n      0x20\n      add\n      0x00\n      keccak256\n        /* \"Staking/staking.sol\":5288:5309  stakes[id].StakedTime */\n      0x01\n      add\n      sload\n        /* \"Staking/staking.sol\":5281:5309  return stakes[id].StakedTime */\n      swap1\n      pop\n        /* \"Staking/staking.sol\":5210:5316  function stakeTime(uint256 id) view public returns (uint256) {... */\n      swap2\n      swap1\n      pop\n      jump\t// out\n        /* \"Staking/staking.sol\":4486:5139  function getIds(address ad) public view returns (uint256[] memory) {... */\n    tag_34:\n        /* \"Staking/staking.sol\":4535:4551  uint256[] memory */\n      0x60\n        /* \"Staking/staking.sol\":4627:4640  uint256 count */\n      0x00\n        /* \"Staking/staking.sol\":4659:4668  uint256 i */\n      dup1\n        /* \"Staking/staking.sol\":4654:4801  for (uint256 i = 0; i <= StakeIdCounter.current(); i++) {... */\n    tag_84:\n        /* \"Staking/staking.sol\":4679:4703  StakeIdCounter.current() */\n      tag_87\n        /* \"Staking/staking.sol\":4679:4693  StakeIdCounter */\n      0x00\n        /* \"Staking/staking.sol\":4679:4701  StakeIdCounter.current */\n      tag_88\n        /* \"Staking/staking.sol\":4679:4703  StakeIdCounter.current() */\n      jump\t// in\n    tag_87:\n        /* \"Staking/staking.sol\":4674:4675  i */\n      dup2\n        /* \"Staking/staking.sol\":4674:4703  i <= StakeIdCounter.current() */\n      gt\n        /* \"Staking/staking.sol\":4654:4801  for (uint256 i = 0; i <= StakeIdCounter.current(); i++) {... */\n      tag_85\n      jumpi\n        /* \"Staking/staking.sol\":4747:4749  ad */\n      dup4\n        /* \"Staking/staking.sol\":4728:4749  stakingOwner[i] == ad */\n      0xffffffffffffffffffffffffffffffffffffffff\n      and\n        /* \"Staking/staking.sol\":4728:4740  stakingOwner */\n      0x04\n        /* \"Staking/staking.sol\":4728:4743  stakingOwner[i] */\n      0x00\n        /* \"Staking/staking.sol\":4741:4742  i */\n      dup4\n        /* \"Staking/staking.sol\":4728:4743  stakingOwner[i] */\n      dup2\n      mstore\n      0x20\n      add\n      swap1\n      dup2\n      mstore\n      0x20\n      add\n      0x00\n      keccak256\n      0x00\n      swap1\n      sload\n      swap1\n      0x0100\n      exp\n      swap1\n      div\n      0xffffffffffffffffffffffffffffffffffffffff\n      and\n        /* \"Staking/staking.sol\":4728:4749  stakingOwner[i] == ad */\n      0xffffffffffffffffffffffffffffffffffffffff\n      and\n      sub\n        /* \"Staking/staking.sol\":4724:4791  if (stakingOwner[i] == ad) {... */\n      tag_89\n      jumpi\n        /* \"Staking/staking.sol\":4769:4776  count++ */\n      dup2\n      dup1\n      tag_90\n      swap1\n      tag_91\n      jump\t// in\n    tag_90:\n      swap3\n      pop\n      pop\n        /* \"Staking/staking.sol\":4724:4791  if (stakingOwner[i] == ad) {... */\n    tag_89:\n        /* \"Staking/staking.sol\":4705:4708  i++ */\n      dup1\n      dup1\n      tag_92\n      swap1\n      tag_91\n      jump\t// in\n    tag_92:\n      swap2\n      pop\n      pop\n        /* \"Staking/staking.sol\":4654:4801  for (uint256 i = 0; i <= StakeIdCounter.current(); i++) {... */\n      jump(tag_84)\n    tag_85:\n      pop\n        /* \"Staking/staking.sol\":4842:4866  uint256[] memory userids */\n      0x00\n        /* \"Staking/staking.sol\":4883:4888  count */\n      dup2\n        /* \"Staking/staking.sol\":4869:4889  new uint256[](count) */\n      0xffffffffffffffff\n      dup2\n      gt\n      iszero\n      tag_93\n      jumpi\n      tag_94\n      tag_95\n      jump\t// in\n    tag_94:\n    tag_93:\n      mload(0x40)\n      swap1\n      dup1\n      dup3\n      mstore\n      dup1\n      0x20\n      mul\n      0x20\n      add\n      dup3\n      add\n      0x40\n      mstore\n      dup1\n      iszero\n      tag_96\n      jumpi\n      dup2\n      0x20\n      add\n      0x20\n      dup3\n      mul\n      dup1\n      calldatasize\n      dup4\n      calldatacopy\n      dup1\n      dup3\n      add\n      swap2\n      pop\n      pop\n      swap1\n      pop\n    tag_96:\n      pop\n        /* \"Staking/staking.sol\":4842:4889  uint256[] memory userids = new uint256[](count) */\n      swap1\n      pop\n        /* \"Staking/staking.sol\":4899:4912  uint256 index */\n      0x00\n        /* \"Staking/staking.sol\":4931:4940  uint256 i */\n      dup1\n        /* \"Staking/staking.sol\":4926:5109  for (uint256 i = 0; i <= StakeIdCounter.current(); i++) {... */\n    tag_97:\n        /* \"Staking/staking.sol\":4951:4975  StakeIdCounter.current() */\n      tag_100\n        /* \"Staking/staking.sol\":4951:4965  StakeIdCounter */\n      0x00\n        /* \"Staking/staking.sol\":4951:4973  StakeIdCounter.current */\n      tag_88\n        /* \"Staking/staking.sol\":4951:4975  StakeIdCounter.current() */\n      jump\t// in\n    tag_100:\n        /* \"Staking/staking.sol\":4946:4947  i */\n      dup2\n        /* \"Staking/staking.sol\":4946:4975  i <= StakeIdCounter.current() */\n      gt\n        /* \"Staking/staking.sol\":4926:5109  for (uint256 i = 0; i <= StakeIdCounter.current(); i++) {... */\n      tag_98\n      jumpi\n        /* \"Staking/staking.sol\":5019:5021  ad */\n      dup6\n        /* \"Staking/staking.sol\":5000:5021  stakingOwner[i] == ad */\n      0xffffffffffffffffffffffffffffffffffffffff\n      and\n        /* \"Staking/staking.sol\":5000:5012  stakingOwner */\n      0x04\n        /* \"Staking/staking.sol\":5000:5015  stakingOwner[i] */\n      0x00\n        /* \"Staking/staking.sol\":5013:5014  i */\n      dup4\n        /* \"Staking/staking.sol\":5000:5015  stakingOwner[i] */\n      dup2\n      mstore\n      0x20\n      add\n      swap1\n      dup2\n      mstore\n      0x20\n      add\n      0x00\n      keccak256\n      0x00\n      swap1\n      sload\n      swap1\n      0x0100\n      exp\n      swap1\n      div\n      0xffffffffffffffffffffffffffffffffffffffff\n      and\n        /* \"Staking/staking.sol\":5000:5021  stakingOwner[i] == ad */\n      0xffffffffffffffffffffffffffffffffffffffff\n      and\n      sub\n        /* \"Staking/staking.sol\":4996:5099  if (stakingOwner[i] == ad) {... */\n      tag_101\n      jumpi\n        /* \"Staking/staking.sol\":5058:5059  i */\n      dup1\n        /* \"Staking/staking.sol\":5041:5048  userids */\n      dup4\n        /* \"Staking/staking.sol\":5049:5054  index */\n      dup4\n        /* \"Staking/staking.sol\":5041:5055  userids[index] */\n      dup2\n      mload\n      dup2\n      lt\n      tag_102\n      jumpi\n      tag_103\n      tag_104\n      jump\t// in\n    tag_103:\n    tag_102:\n      0x20\n      mul\n      0x20\n      add\n      add\n        /* \"Staking/staking.sol\":5041:5059  userids[index] = i */\n      dup2\n      dup2\n      mstore\n      pop\n      pop\n        /* \"Staking/staking.sol\":5077:5084  index++ */\n      dup2\n      dup1\n      tag_105\n      swap1\n      tag_91\n      jump\t// in\n    tag_105:\n      swap3\n      pop\n      pop\n        /* \"Staking/staking.sol\":4996:5099  if (stakingOwner[i] == ad) {... */\n    tag_101:\n        /* \"Staking/staking.sol\":4977:4980  i++ */\n      dup1\n      dup1\n      tag_106\n      swap1\n      tag_91\n      jump\t// in\n    tag_106:\n      swap2\n      pop\n      pop\n        /* \"Staking/staking.sol\":4926:5109  for (uint256 i = 0; i <= StakeIdCounter.current(); i++) {... */\n      jump(tag_97)\n    tag_98:\n      pop\n        /* \"Staking/staking.sol\":5125:5132  userids */\n      dup2\n        /* \"Staking/staking.sol\":5118:5132  return userids */\n      swap4\n      pop\n      pop\n      pop\n      pop\n        /* \"Staking/staking.sol\":4486:5139  function getIds(address ad) public view returns (uint256[] memory) {... */\n      swap2\n      swap1\n      pop\n      jump\t// out\n        /* \"Staking/staking.sol\":7481:8147  function claimAmount(address ad) public {... */\n    tag_39:\n        /* \"Staking/staking.sol\":7587:7611  uint256[] memory userids */\n      0x00\n        /* \"Staking/staking.sol\":7614:7624  getIds(ad) */\n      tag_108\n        /* \"Staking/staking.sol\":7621:7623  ad */\n      dup3\n        /* \"Staking/staking.sol\":7614:7620  getIds */\n      tag_34\n        /* \"Staking/staking.sol\":7614:7624  getIds(ad) */\n      jump\t// in\n    tag_108:\n        /* \"Staking/staking.sol\":7587:7624  uint256[] memory userids = getIds(ad) */\n      swap1\n      pop\n        /* \"Staking/staking.sol\":7659:7660  0 */\n      0x00\n        /* \"Staking/staking.sol\":7642:7649  userids */\n      dup2\n        /* \"Staking/staking.sol\":7642:7656  userids.length */\n      mload\n        /* \"Staking/staking.sol\":7642:7660  userids.length > 0 */\n      gt\n        /* \"Staking/staking.sol\":7634:7681  require(userids.length > 0, \"No amount staked\") */\n      tag_109\n      jumpi\n      mload(0x40)\n      0x08c379a000000000000000000000000000000000000000000000000000000000\n      dup2\n      mstore\n      0x04\n      add\n      tag_110\n      swap1\n      tag_111\n      jump\t// in\n    tag_110:\n      mload(0x40)\n      dup1\n      swap2\n      sub\n      swap1\n      revert\n    tag_109:\n        /* \"Staking/staking.sol\":7782:7791  uint256 i */\n      0x00\n        /* \"Staking/staking.sol\":7777:8141  for (uint256 i = 0; i < userids.length; i++) {... */\n    tag_112:\n        /* \"Staking/staking.sol\":7801:7808  userids */\n      dup2\n        /* \"Staking/staking.sol\":7801:7815  userids.length */\n      mload\n        /* \"Staking/staking.sol\":7797:7798  i */\n      dup2\n        /* \"Staking/staking.sol\":7797:7815  i < userids.length */\n      lt\n        /* \"Staking/staking.sol\":7777:8141  for (uint256 i = 0; i < userids.length; i++) {... */\n      iszero\n      tag_113\n      jumpi\n        /* \"Staking/staking.sol\":7841:7847  stakes */\n      0x05\n        /* \"Staking/staking.sol\":7841:7859  stakes[userids[i]] */\n      0x00\n        /* \"Staking/staking.sol\":7848:7855  userids */\n      dup4\n        /* \"Staking/staking.sol\":7856:7857  i */\n      dup4\n        /* \"Staking/staking.sol\":7848:7858  userids[i] */\n      dup2\n      mload\n      dup2\n      lt\n      tag_115\n      jumpi\n      tag_116\n      tag_104\n      jump\t// in\n    tag_116:\n    tag_115:\n      0x20\n      mul\n      0x20\n      add\n      add\n      mload\n        /* \"Staking/staking.sol\":7841:7859  stakes[userids[i]] */\n      dup2\n      mstore\n      0x20\n      add\n      swap1\n      dup2\n      mstore\n      0x20\n      add\n      0x00\n      keccak256\n        /* \"Staking/staking.sol\":7841:7867  stakes[userids[i]].expired */\n      0x03\n      add\n      0x00\n      swap1\n      sload\n      swap1\n      0x0100\n      exp\n      swap1\n      div\n      0xff\n      and\n        /* \"Staking/staking.sol\":7836:8131  if (!stakes[userids[i]].expired) {//after ecpired neither rewards could be claimed not amount  again... */\n      tag_117\n      jumpi\n        /* \"Staking/staking.sol\":7953:7958  token */\n      0x01\n      0x00\n      swap1\n      sload\n      swap1\n      0x0100\n      exp\n      swap1\n      div\n      0xffffffffffffffffffffffffffffffffffffffff\n      and\n        /* \"Staking/staking.sol\":7953:7967  token.transfer */\n      0xffffffffffffffffffffffffffffffffffffffff\n      and\n      0xa9059cbb\n        /* \"Staking/staking.sol\":7968:7978  msg.sender */\n      caller\n        /* \"Staking/staking.sol\":7980:7986  stakes */\n      0x05\n        /* \"Staking/staking.sol\":7980:7998  stakes[userids[i]] */\n      0x00\n        /* \"Staking/staking.sol\":7987:7994  userids */\n      dup7\n        /* \"Staking/staking.sol\":7995:7996  i */\n      dup7\n        /* \"Staking/staking.sol\":7987:7997  userids[i] */\n      dup2\n      mload\n      dup2\n      lt\n      tag_118\n      jumpi\n      tag_119\n      tag_104\n      jump\t// in\n    tag_119:\n    tag_118:\n      0x20\n      mul\n      0x20\n      add\n      add\n      mload\n        /* \"Staking/staking.sol\":7980:7998  stakes[userids[i]] */\n      dup2\n      mstore\n      0x20\n      add\n      swap1\n      dup2\n      mstore\n      0x20\n      add\n      0x00\n      keccak256\n        /* \"Staking/staking.sol\":7980:8011  stakes[userids[i]].StakedAmount */\n      0x00\n      add\n      sload\n        /* \"Staking/staking.sol\":7953:8012  token.transfer(msg.sender, stakes[userids[i]].StakedAmount) */\n      mload(0x40)\n      dup4\n      0xffffffff\n      and\n      0xe0\n      shl\n      dup2\n      mstore\n      0x04\n      add\n      tag_120\n      swap3\n      swap2\n      swap1\n      tag_121\n      jump\t// in\n    tag_120:\n      0x20\n      mload(0x40)\n      dup1\n      dup4\n      sub\n      dup2\n      0x00\n      dup8\n      gas\n      call\n      iszero\n      dup1\n      iszero\n      tag_123\n      jumpi\n      returndatasize\n      0x00\n      dup1\n      returndatacopy\n      revert(0x00, returndatasize)\n    tag_123:\n      pop\n      pop\n      pop\n      pop\n      mload(0x40)\n      returndatasize\n      not(0x1f)\n      0x1f\n      dup3\n      add\n      and\n      dup3\n      add\n      dup1\n      0x40\n      mstore\n      pop\n      dup2\n      add\n      swap1\n      tag_124\n      swap2\n      swap1\n      tag_125\n      jump\t// in\n    tag_124:\n      pop\n        /* \"Staking/staking.sol\":8064:8065  0 */\n      0x00\n        /* \"Staking/staking.sol\":8030:8036  stakes */\n      0x05\n        /* \"Staking/staking.sol\":8030:8048  stakes[userids[i]] */\n      0x00\n        /* \"Staking/staking.sol\":8037:8044  userids */\n      dup5\n        /* \"Staking/staking.sol\":8045:8046  i */\n      dup5\n        /* \"Staking/staking.sol\":8037:8047  userids[i] */\n      dup2\n      mload\n      dup2\n      lt\n      tag_126\n      jumpi\n      tag_127\n      tag_104\n      jump\t// in\n    tag_127:\n    tag_126:\n      0x20\n      mul\n      0x20\n      add\n      add\n      mload\n        /* \"Staking/staking.sol\":8030:8048  stakes[userids[i]] */\n      dup2\n      mstore\n      0x20\n      add\n      swap1\n      dup2\n      mstore\n      0x20\n      add\n      0x00\n      keccak256\n        /* \"Staking/staking.sol\":8030:8061  stakes[userids[i]].StakedAmount */\n      0x00\n      add\n        /* \"Staking/staking.sol\":8030:8065  stakes[userids[i]].StakedAmount = 0 */\n      dup2\n      swap1\n      sstore\n      pop\n        /* \"Staking/staking.sol\":8112:8116  true */\n      0x01\n        /* \"Staking/staking.sol\":8083:8089  stakes */\n      0x05\n        /* \"Staking/staking.sol\":8083:8101  stakes[userids[i]] */\n      0x00\n        /* \"Staking/staking.sol\":8090:8097  userids */\n      dup5\n        /* \"Staking/staking.sol\":8098:8099  i */\n      dup5\n        /* \"Staking/staking.sol\":8090:8100  userids[i] */\n      dup2\n      mload\n      dup2\n      lt\n      tag_128\n      jumpi\n      tag_129\n      tag_104\n      jump\t// in\n    tag_129:\n    tag_128:\n      0x20\n      mul\n      0x20\n      add\n      add\n      mload\n        /* \"Staking/staking.sol\":8083:8101  stakes[userids[i]] */\n      dup2\n      mstore\n      0x20\n      add\n      swap1\n      dup2\n      mstore\n      0x20\n      add\n      0x00\n      keccak256\n        /* \"Staking/staking.sol\":8083:8109  stakes[userids[i]].expired */\n      0x03\n      add\n      0x00\n        /* \"Staking/staking.sol\":8083:8116  stakes[userids[i]].expired = true */\n      0x0100\n      exp\n      dup2\n      sload\n      dup2\n      0xff\n      mul\n      not\n      and\n      swap1\n      dup4\n      iszero\n      iszero\n      mul\n      or\n      swap1\n      sstore\n      pop\n        /* \"Staking/staking.sol\":7836:8131  if (!stakes[userids[i]].expired) {//after ecpired neither rewards could be claimed not amount  again... */\n    tag_117:\n        /* \"Staking/staking.sol\":7817:7820  i++ */\n      dup1\n      dup1\n      tag_130\n      swap1\n      tag_91\n      jump\t// in\n    tag_130:\n      swap2\n      pop\n      pop\n        /* \"Staking/staking.sol\":7777:8141  for (uint256 i = 0; i < userids.length; i++) {... */\n      jump(tag_112)\n    tag_113:\n      pop\n        /* \"Staking/staking.sol\":7521:8147  {... */\n      pop\n        /* \"Staking/staking.sol\":7481:8147  function claimAmount(address ad) public {... */\n      pop\n      jump\t// out\n        /* \"Staking/staking.sol\":1990:3395  function stake(uint256 _numTokens, uint256 time) external returns (uint256) {... */\n    tag_43:\n        /* \"Staking/staking.sol\":2057:2064  uint256 */\n      0x00\n        /* \"Staking/staking.sol\":2218:2244  StakeIdCounter.increment() */\n      tag_132\n        /* \"Staking/staking.sol\":2218:2232  StakeIdCounter */\n      0x00\n        /* \"Staking/staking.sol\":2218:2242  StakeIdCounter.increment */\n      tag_133\n        /* \"Staking/staking.sol\":2218:2244  StakeIdCounter.increment() */\n      jump\t// in\n    tag_132:\n        /* \"Staking/staking.sol\":2340:2341  0 */\n      0x00\n        /* \"Staking/staking.sol\":2327:2337  _numTokens */\n      dup4\n        /* \"Staking/staking.sol\":2327:2341  _numTokens > 0 */\n      gt\n        /* \"Staking/staking.sol\":2319:2378  require(_numTokens > 0, \"Must stake more than zero tokens\") */\n      tag_134\n      jumpi\n      mload(0x40)\n      0x08c379a000000000000000000000000000000000000000000000000000000000\n      dup2\n      mstore\n      0x04\n      add\n      tag_135\n      swap1\n      tag_136\n      jump\t// in\n    tag_135:\n      mload(0x40)\n      dup1\n      swap2\n      sub\n      swap1\n      revert\n    tag_134:\n        /* \"Staking/staking.sol\":2427:2437  _numTokens */\n      dup3\n        /* \"Staking/staking.sol\":2396:2401  token */\n      0x01\n      0x00\n      swap1\n      sload\n      swap1\n      0x0100\n      exp\n      swap1\n      div\n      0xffffffffffffffffffffffffffffffffffffffff\n      and\n        /* \"Staking/staking.sol\":2396:2411  token.balanceOf */\n      0xffffffffffffffffffffffffffffffffffffffff\n      and\n      0x70a08231\n        /* \"Staking/staking.sol\":2412:2422  msg.sender */\n      caller\n        /* \"Staking/staking.sol\":2396:2423  token.balanceOf(msg.sender) */\n      mload(0x40)\n      dup3\n      0xffffffff\n      and\n      0xe0\n      shl\n      dup2\n      mstore\n      0x04\n      add\n      tag_137\n      swap2\n      swap1\n      tag_51\n      jump\t// in\n    tag_137:\n      0x20\n      mload(0x40)\n      dup1\n      dup4\n      sub\n      dup2\n      dup7\n      gas\n      staticcall\n      iszero\n      dup1\n      iszero\n      tag_139\n      jumpi\n      returndatasize\n      0x00\n      dup1\n      returndatacopy\n      revert(0x00, returndatasize)\n    tag_139:\n      pop\n      pop\n      pop\n      pop\n      mload(0x40)\n      returndatasize\n      not(0x1f)\n      0x1f\n      dup3\n      add\n      and\n      dup3\n      add\n      dup1\n      0x40\n      mstore\n      pop\n      dup2\n      add\n      swap1\n      tag_140\n      swap2\n      swap1\n      tag_141\n      jump\t// in\n    tag_140:\n        /* \"Staking/staking.sol\":2396:2437  token.balanceOf(msg.sender) >= _numTokens */\n      lt\n      iszero\n        /* \"Staking/staking.sol\":2388:2476  require(token.balanceOf(msg.sender) >= _numTokens, \"Not Enough Balance Tokens To Stake\") */\n      tag_142\n      jumpi\n      mload(0x40)\n      0x08c379a000000000000000000000000000000000000000000000000000000000\n      dup2\n      mstore\n      0x04\n      add\n      tag_143\n      swap1\n      tag_144\n      jump\t// in\n    tag_143:\n      mload(0x40)\n      dup1\n      swap2\n      sub\n      swap1\n      revert\n    tag_142:\n        /* \"Staking/staking.sol\":2502:2503  2 */\n      0x02\n        /* \"Staking/staking.sol\":2494:2498  time */\n      dup3\n        /* \"Staking/staking.sol\":2494:2503  time == 2 */\n      eq\n        /* \"Staking/staking.sol\":2494:2516  time == 2 || time == 4 */\n      dup1\n      tag_145\n      jumpi\n      pop\n        /* \"Staking/staking.sol\":2515:2516  4 */\n      0x04\n        /* \"Staking/staking.sol\":2507:2511  time */\n      dup3\n        /* \"Staking/staking.sol\":2507:2516  time == 4 */\n      eq\n        /* \"Staking/staking.sol\":2494:2516  time == 2 || time == 4 */\n    tag_145:\n        /* \"Staking/staking.sol\":2494:2529  time == 2 || time == 4 || time == 6 */\n      dup1\n      tag_146\n      jumpi\n      pop\n        /* \"Staking/staking.sol\":2528:2529  6 */\n      0x06\n        /* \"Staking/staking.sol\":2520:2524  time */\n      dup3\n        /* \"Staking/staking.sol\":2520:2529  time == 6 */\n      eq\n        /* \"Staking/staking.sol\":2494:2529  time == 2 || time == 4 || time == 6 */\n    tag_146:\n        /* \"Staking/staking.sol\":2494:2542  time == 2 || time == 4 || time == 6 || time == 8 */\n      dup1\n      tag_147\n      jumpi\n      pop\n        /* \"Staking/staking.sol\":2541:2542  8 */\n      0x08\n        /* \"Staking/staking.sol\":2533:2537  time */\n      dup3\n        /* \"Staking/staking.sol\":2533:2542  time == 8 */\n      eq\n        /* \"Staking/staking.sol\":2494:2542  time == 2 || time == 4 || time == 6 || time == 8 */\n    tag_147:\n        /* \"Staking/staking.sol\":2494:2556  time == 2 || time == 4 || time == 6 || time == 8 || time == 10 */\n      dup1\n      tag_148\n      jumpi\n      pop\n        /* \"Staking/staking.sol\":2554:2556  10 */\n      0x0a\n        /* \"Staking/staking.sol\":2546:2550  time */\n      dup3\n        /* \"Staking/staking.sol\":2546:2556  time == 10 */\n      eq\n        /* \"Staking/staking.sol\":2494:2556  time == 2 || time == 4 || time == 6 || time == 8 || time == 10 */\n    tag_148:\n        /* \"Staking/staking.sol\":2486:2599  require(time == 2 || time == 4 || time == 6 || time == 8 || time == 10, \"Time can Only be of 2,4,6,8,10 Minutes\") */\n      tag_149\n      jumpi\n      mload(0x40)\n      0x08c379a000000000000000000000000000000000000000000000000000000000\n      dup2\n      mstore\n      0x04\n      add\n      tag_150\n      swap1\n      tag_151\n      jump\t// in\n    tag_150:\n      mload(0x40)\n      dup1\n      swap2\n      sub\n      swap1\n      revert\n    tag_149:\n        /* \"Staking/staking.sol\":2662:2682  uint256 current_time */\n      0x00\n        /* \"Staking/staking.sol\":2685:2700  block.timestamp */\n      timestamp\n        /* \"Staking/staking.sol\":2662:2700  uint256 current_time = block.timestamp */\n      swap1\n      pop\n        /* \"Staking/staking.sol\":2751:2761  msg.sender */\n      caller\n        /* \"Staking/staking.sol\":2710:2722  stakingOwner */\n      0x04\n        /* \"Staking/staking.sol\":2710:2748  stakingOwner[StakeIdCounter.current()] */\n      0x00\n        /* \"Staking/staking.sol\":2723:2747  StakeIdCounter.current() */\n      tag_152\n        /* \"Staking/staking.sol\":2723:2737  StakeIdCounter */\n      0x00\n        /* \"Staking/staking.sol\":2723:2745  StakeIdCounter.current */\n      tag_88\n        /* \"Staking/staking.sol\":2723:2747  StakeIdCounter.current() */\n      jump\t// in\n    tag_152:\n        /* \"Staking/staking.sol\":2710:2748  stakingOwner[StakeIdCounter.current()] */\n      dup2\n      mstore\n      0x20\n      add\n      swap1\n      dup2\n      mstore\n      0x20\n      add\n      0x00\n      keccak256\n      0x00\n        /* \"Staking/staking.sol\":2710:2761  stakingOwner[StakeIdCounter.current()] = msg.sender */\n      0x0100\n      exp\n      dup2\n      sload\n      dup2\n      0xffffffffffffffffffffffffffffffffffffffff\n      mul\n      not\n      and\n      swap1\n      dup4\n      0xffffffffffffffffffffffffffffffffffffffff\n      and\n      mul\n      or\n      swap1\n      sstore\n      pop\n        /* \"Staking/staking.sol\":2779:2784  token */\n      0x01\n      0x00\n      swap1\n      sload\n      swap1\n      0x0100\n      exp\n      swap1\n      div\n      0xffffffffffffffffffffffffffffffffffffffff\n      and\n        /* \"Staking/staking.sol\":2779:2797  token.transferFrom */\n      0xffffffffffffffffffffffffffffffffffffffff\n      and\n      0x23b872dd\n        /* \"Staking/staking.sol\":2798:2808  msg.sender */\n      caller\n        /* \"Staking/staking.sol\":2818:2822  this */\n      address\n        /* \"Staking/staking.sol\":2825:2835  _numTokens */\n      dup8\n        /* \"Staking/staking.sol\":2779:2836  token.transferFrom(msg.sender, address(this), _numTokens) */\n      mload(0x40)\n      dup5\n      0xffffffff\n      and\n      0xe0\n      shl\n      dup2\n      mstore\n      0x04\n      add\n      tag_153\n      swap4\n      swap3\n      swap2\n      swap1\n      tag_154\n      jump\t// in\n    tag_153:\n      0x20\n      mload(0x40)\n      dup1\n      dup4\n      sub\n      dup2\n      0x00\n      dup8\n      gas\n      call\n      iszero\n      dup1\n      iszero\n      tag_156\n      jumpi\n      returndatasize\n      0x00\n      dup1\n      returndatacopy\n      revert(0x00, returndatasize)\n    tag_156:\n      pop\n      pop\n      pop\n      pop\n      mload(0x40)\n      returndatasize\n      not(0x1f)\n      0x1f\n      dup3\n      add\n      and\n      dup3\n      add\n      dup1\n      0x40\n      mstore\n      pop\n      dup2\n      add\n      swap1\n      tag_157\n      swap2\n      swap1\n      tag_125\n      jump\t// in\n    tag_157:\n        /* \"Staking/staking.sol\":2771:2876  require(token.transferFrom(msg.sender, address(this), _numTokens), \"Give approval from initial to stake\") */\n      tag_158\n      jumpi\n      mload(0x40)\n      0x08c379a000000000000000000000000000000000000000000000000000000000\n      dup2\n      mstore\n      0x04\n      add\n      tag_159\n      swap1\n      tag_160\n      jump\t// in\n    tag_159:\n      mload(0x40)\n      dup1\n      swap2\n      sub\n      swap1\n      revert\n    tag_158:\n        /* \"Staking/staking.sol\":2935:2945  _numTokens */\n      dup4\n        /* \"Staking/staking.sol\":2886:2892  stakes */\n      0x05\n        /* \"Staking/staking.sol\":2886:2918  stakes[StakeIdCounter.current()] */\n      0x00\n        /* \"Staking/staking.sol\":2893:2917  StakeIdCounter.current() */\n      tag_161\n        /* \"Staking/staking.sol\":2893:2907  StakeIdCounter */\n      0x00\n        /* \"Staking/staking.sol\":2893:2915  StakeIdCounter.current */\n      tag_88\n        /* \"Staking/staking.sol\":2893:2917  StakeIdCounter.current() */\n      jump\t// in\n    tag_161:\n        /* \"Staking/staking.sol\":2886:2918  stakes[StakeIdCounter.current()] */\n      dup2\n      mstore\n      0x20\n      add\n      swap1\n      dup2\n      mstore\n      0x20\n      add\n      0x00\n      keccak256\n        /* \"Staking/staking.sol\":2886:2931  stakes[StakeIdCounter.current()].StakedAmount */\n      0x00\n      add\n      0x00\n        /* \"Staking/staking.sol\":2886:2945  stakes[StakeIdCounter.current()].StakedAmount += _numTokens */\n      dup3\n      dup3\n      sload\n      tag_162\n      swap2\n      swap1\n      tag_163\n      jump\t// in\n    tag_162:\n      swap3\n      pop\n      pop\n      dup2\n      swap1\n      sstore\n      pop\n        /* \"Staking/staking.sol\":3001:3013  current_time */\n      dup1\n        /* \"Staking/staking.sol\":2955:2961  stakes */\n      0x05\n        /* \"Staking/staking.sol\":2955:2987  stakes[StakeIdCounter.current()] */\n      0x00\n        /* \"Staking/staking.sol\":2962:2986  StakeIdCounter.current() */\n      tag_164\n        /* \"Staking/staking.sol\":2962:2976  StakeIdCounter */\n      0x00\n        /* \"Staking/staking.sol\":2962:2984  StakeIdCounter.current */\n      tag_88\n        /* \"Staking/staking.sol\":2962:2986  StakeIdCounter.current() */\n      jump\t// in\n    tag_164:\n        /* \"Staking/staking.sol\":2955:2987  stakes[StakeIdCounter.current()] */\n      dup2\n      mstore\n      0x20\n      add\n      swap1\n      dup2\n      mstore\n      0x20\n      add\n      0x00\n      keccak256\n        /* \"Staking/staking.sol\":2955:2998  stakes[StakeIdCounter.current()].StakedTime */\n      0x01\n      add\n        /* \"Staking/staking.sol\":2955:3013  stakes[StakeIdCounter.current()].StakedTime = current_time */\n      dup2\n      swap1\n      sstore\n      pop\n        /* \"Staking/staking.sol\":3090:3092  60 */\n      0x3c\n        /* \"Staking/staking.sol\":3083:3087  time */\n      dup4\n        /* \"Staking/staking.sol\":3083:3092  time * 60 */\n      tag_165\n      swap2\n      swap1\n      tag_166\n      jump\t// in\n    tag_165:\n        /* \"Staking/staking.sol\":3039:3045  stakes */\n      0x05\n        /* \"Staking/staking.sol\":3039:3071  stakes[StakeIdCounter.current()] */\n      0x00\n        /* \"Staking/staking.sol\":3046:3070  StakeIdCounter.current() */\n      tag_167\n        /* \"Staking/staking.sol\":3046:3060  StakeIdCounter */\n      0x00\n        /* \"Staking/staking.sol\":3046:3068  StakeIdCounter.current */\n      tag_88\n        /* \"Staking/staking.sol\":3046:3070  StakeIdCounter.current() */\n      jump\t// in\n    tag_167:\n        /* \"Staking/staking.sol\":3039:3071  stakes[StakeIdCounter.current()] */\n      dup2\n      mstore\n      0x20\n      add\n      swap1\n      dup2\n      mstore\n      0x20\n      add\n      0x00\n      keccak256\n        /* \"Staking/staking.sol\":3039:3080  stakes[StakeIdCounter.current()].duration */\n      0x02\n      add\n        /* \"Staking/staking.sol\":3039:3092  stakes[StakeIdCounter.current()].duration = time * 60 */\n      dup2\n      swap1\n      sstore\n      pop\n        /* \"Staking/staking.sol\":3241:3246  false */\n      0x00\n        /* \"Staking/staking.sol\":3198:3204  stakes */\n      0x05\n        /* \"Staking/staking.sol\":3198:3230  stakes[StakeIdCounter.current()] */\n      0x00\n        /* \"Staking/staking.sol\":3205:3229  StakeIdCounter.current() */\n      tag_168\n        /* \"Staking/staking.sol\":3205:3219  StakeIdCounter */\n      0x00\n        /* \"Staking/staking.sol\":3205:3227  StakeIdCounter.current */\n      tag_88\n        /* \"Staking/staking.sol\":3205:3229  StakeIdCounter.current() */\n      jump\t// in\n    tag_168:\n        /* \"Staking/staking.sol\":3198:3230  stakes[StakeIdCounter.current()] */\n      dup2\n      mstore\n      0x20\n      add\n      swap1\n      dup2\n      mstore\n      0x20\n      add\n      0x00\n      keccak256\n        /* \"Staking/staking.sol\":3198:3238  stakes[StakeIdCounter.current()].expired */\n      0x03\n      add\n      0x00\n        /* \"Staking/staking.sol\":3198:3246  stakes[StakeIdCounter.current()].expired = false */\n      0x0100\n      exp\n      dup2\n      sload\n      dup2\n      0xff\n      mul\n      not\n      and\n      swap1\n      dup4\n      iszero\n      iszero\n      mul\n      or\n      swap1\n      sstore\n      pop\n        /* \"Staking/staking.sol\":3364:3388  StakeIdCounter.current() */\n      tag_169\n        /* \"Staking/staking.sol\":3364:3378  StakeIdCounter */\n      0x00\n        /* \"Staking/staking.sol\":3364:3386  StakeIdCounter.current */\n      tag_88\n        /* \"Staking/staking.sol\":3364:3388  StakeIdCounter.current() */\n      jump\t// in\n    tag_169:\n        /* \"Staking/staking.sol\":3357:3388  return StakeIdCounter.current() */\n      swap2\n      pop\n      pop\n        /* \"Staking/staking.sol\":1990:3395  function stake(uint256 _numTokens, uint256 time) external returns (uint256) {... */\n      swap3\n      swap2\n      pop\n      pop\n      jump\t// out\n        /* \"Staking/staking.sol\":5375:5486  function contractBalance() public view returns (uint256) {... */\n    tag_46:\n        /* \"Staking/staking.sol\":5423:5430  uint256 */\n      0x00\n        /* \"Staking/staking.sol\":5449:5454  token */\n      0x01\n      0x00\n      swap1\n      sload\n      swap1\n      0x0100\n      exp\n      swap1\n      div\n      0xffffffffffffffffffffffffffffffffffffffff\n      and\n        /* \"Staking/staking.sol\":5449:5464  token.balanceOf */\n      0xffffffffffffffffffffffffffffffffffffffff\n      and\n      0x70a08231\n        /* \"Staking/staking.sol\":5473:5477  this */\n      address\n        /* \"Staking/staking.sol\":5449:5479  token.balanceOf(address(this)) */\n      mload(0x40)\n      dup3\n      0xffffffff\n      and\n      0xe0\n      shl\n      dup2\n      mstore\n      0x04\n      add\n      tag_171\n      swap2\n      swap1\n      tag_51\n      jump\t// in\n    tag_171:\n      0x20\n      mload(0x40)\n      dup1\n      dup4\n      sub\n      dup2\n      dup7\n      gas\n      staticcall\n      iszero\n      dup1\n      iszero\n      tag_173\n      jumpi\n      returndatasize\n      0x00\n      dup1\n      returndatacopy\n      revert(0x00, returndatasize)\n    tag_173:\n      pop\n      pop\n      pop\n      pop\n      mload(0x40)\n      returndatasize\n      not(0x1f)\n      0x1f\n      dup3\n      add\n      and\n      dup3\n      add\n      dup1\n      0x40\n      mstore\n      pop\n      dup2\n      add\n      swap1\n      tag_174\n      swap2\n      swap1\n      tag_141\n      jump\t// in\n    tag_174:\n        /* \"Staking/staking.sol\":5442:5479  return token.balanceOf(address(this)) */\n      swap1\n      pop\n        /* \"Staking/staking.sol\":5375:5486  function contractBalance() public view returns (uint256) {... */\n      swap1\n      jump\t// out\n        /* \"Staking/staking.sol\":837:857  address public owner */\n    tag_49:\n      0x02\n      0x00\n      swap1\n      sload\n      swap1\n      0x0100\n      exp\n      swap1\n      div\n      0xffffffffffffffffffffffffffffffffffffffff\n      and\n      dup2\n      jump\t// out\n        /* \"Staking/staking.sol\":1062:1109  mapping(uint256 => address) public stakingOwner */\n    tag_54:\n      mstore(0x20, 0x04)\n      dup1\n      0x00\n      mstore\n      keccak256(0x00, 0x40)\n      0x00\n      swap2\n      pop\n      sload\n      swap1\n      0x0100\n      exp\n      swap1\n      div\n      0xffffffffffffffffffffffffffffffffffffffff\n      and\n      dup2\n      jump\t// out\n        /* \"Staking/staking.sol\":864:891  uint256 public interest = 1 */\n    tag_57:\n      sload(0x03)\n      dup2\n      jump\t// out\n        /* \"Staking/staking.sol\":3488:4413  function IdsAndDetails(address ad) public view returns (uint256[] memory, StakingInfo[] memory) {... */\n    tag_61:\n        /* \"Staking/staking.sol\":3544:3560  uint256[] memory */\n      0x60\n        /* \"Staking/staking.sol\":3562:3582  StakingInfo[] memory */\n      dup1\n        /* \"Staking/staking.sol\":3658:3671  uint256 count */\n      0x00\n        /* \"Staking/staking.sol\":3690:3699  uint256 i */\n      dup1\n        /* \"Staking/staking.sol\":3685:3832  for (uint256 i = 0; i <= StakeIdCounter.current(); i++) {... */\n    tag_176:\n        /* \"Staking/staking.sol\":3710:3734  StakeIdCounter.current() */\n      tag_179\n        /* \"Staking/staking.sol\":3710:3724  StakeIdCounter */\n      0x00\n        /* \"Staking/staking.sol\":3710:3732  StakeIdCounter.current */\n      tag_88\n        /* \"Staking/staking.sol\":3710:3734  StakeIdCounter.current() */\n      jump\t// in\n    tag_179:\n        /* \"Staking/staking.sol\":3705:3706  i */\n      dup2\n        /* \"Staking/staking.sol\":3705:3734  i <= StakeIdCounter.current() */\n      gt\n        /* \"Staking/staking.sol\":3685:3832  for (uint256 i = 0; i <= StakeIdCounter.current(); i++) {... */\n      tag_177\n      jumpi\n        /* \"Staking/staking.sol\":3778:3780  ad */\n      dup5\n        /* \"Staking/staking.sol\":3759:3780  stakingOwner[i] == ad */\n      0xffffffffffffffffffffffffffffffffffffffff\n      and\n        /* \"Staking/staking.sol\":3759:3771  stakingOwner */\n      0x04\n        /* \"Staking/staking.sol\":3759:3774  stakingOwner[i] */\n      0x00\n        /* \"Staking/staking.sol\":3772:3773  i */\n      dup4\n        /* \"Staking/staking.sol\":3759:3774  stakingOwner[i] */\n      dup2\n      mstore\n      0x20\n      add\n      swap1\n      dup2\n      mstore\n      0x20\n      add\n      0x00\n      keccak256\n      0x00\n      swap1\n      sload\n      swap1\n      0x0100\n      exp\n      swap1\n      div\n      0xffffffffffffffffffffffffffffffffffffffff\n      and\n        /* \"Staking/staking.sol\":3759:3780  stakingOwner[i] == ad */\n      0xffffffffffffffffffffffffffffffffffffffff\n      and\n      sub\n        /* \"Staking/staking.sol\":3755:3822  if (stakingOwner[i] == ad) {... */\n      tag_180\n      jumpi\n        /* \"Staking/staking.sol\":3800:3807  count++ */\n      dup2\n      dup1\n      tag_181\n      swap1\n      tag_91\n      jump\t// in\n    tag_181:\n      swap3\n      pop\n      pop\n        /* \"Staking/staking.sol\":3755:3822  if (stakingOwner[i] == ad) {... */\n    tag_180:\n        /* \"Staking/staking.sol\":3736:3739  i++ */\n      dup1\n      dup1\n      tag_182\n      swap1\n      tag_91\n      jump\t// in\n    tag_182:\n      swap2\n      pop\n      pop\n        /* \"Staking/staking.sol\":3685:3832  for (uint256 i = 0; i <= StakeIdCounter.current(); i++) {... */\n      jump(tag_176)\n    tag_177:\n      pop\n        /* \"Staking/staking.sol\":3911:3944  StakingInfo[] memory stakingInfos */\n      0x00\n        /* \"Staking/staking.sol\":3965:3970  count */\n      dup2\n        /* \"Staking/staking.sol\":3947:3971  new StakingInfo[](count) */\n      0xffffffffffffffff\n      dup2\n      gt\n      iszero\n      tag_183\n      jumpi\n      tag_184\n      tag_95\n      jump\t// in\n    tag_184:\n    tag_183:\n      mload(0x40)\n      swap1\n      dup1\n      dup3\n      mstore\n      dup1\n      0x20\n      mul\n      0x20\n      add\n      dup3\n      add\n      0x40\n      mstore\n      dup1\n      iszero\n      tag_185\n      jumpi\n      dup2\n      0x20\n      add\n    tag_186:\n      tag_187\n      tag_188\n      jump\t// in\n    tag_187:\n      dup2\n      mstore\n      0x20\n      add\n      swap1\n      0x01\n      swap1\n      sub\n      swap1\n      dup2\n      tag_186\n      jumpi\n      swap1\n      pop\n    tag_185:\n      pop\n        /* \"Staking/staking.sol\":3911:3971  StakingInfo[] memory stakingInfos = new StakingInfo[](count) */\n      swap1\n      pop\n        /* \"Staking/staking.sol\":3981:4005  uint256[] memory userids */\n      0x00\n        /* \"Staking/staking.sol\":4022:4027  count */\n      dup3\n        /* \"Staking/staking.sol\":4008:4028  new uint256[](count) */\n      0xffffffffffffffff\n      dup2\n      gt\n      iszero\n      tag_189\n      jumpi\n      tag_190\n      tag_95\n      jump\t// in\n    tag_190:\n    tag_189:\n      mload(0x40)\n      swap1\n      dup1\n      dup3\n      mstore\n      dup1\n      0x20\n      mul\n      0x20\n      add\n      dup3\n      add\n      0x40\n      mstore\n      dup1\n      iszero\n      tag_191\n      jumpi\n      dup2\n      0x20\n      add\n      0x20\n      dup3\n      mul\n      dup1\n      calldatasize\n      dup4\n      calldatacopy\n      dup1\n      dup3\n      add\n      swap2\n      pop\n      pop\n      swap1\n      pop\n    tag_191:\n      pop\n        /* \"Staking/staking.sol\":3981:4028  uint256[] memory userids = new uint256[](count) */\n      swap1\n      pop\n        /* \"Staking/staking.sol\":4038:4051  uint256 index */\n      0x00\n        /* \"Staking/staking.sol\":4070:4079  uint256 i */\n      dup1\n        /* \"Staking/staking.sol\":4065:4367  for (uint256 i = 0; i <= StakeIdCounter.current(); i++) {... */\n    tag_192:\n        /* \"Staking/staking.sol\":4090:4114  StakeIdCounter.current() */\n      tag_195\n        /* \"Staking/staking.sol\":4090:4104  StakeIdCounter */\n      0x00\n        /* \"Staking/staking.sol\":4090:4112  StakeIdCounter.current */\n      tag_88\n        /* \"Staking/staking.sol\":4090:4114  StakeIdCounter.current() */\n      jump\t// in\n    tag_195:\n        /* \"Staking/staking.sol\":4085:4086  i */\n      dup2\n        /* \"Staking/staking.sol\":4085:4114  i <= StakeIdCounter.current() */\n      gt\n        /* \"Staking/staking.sol\":4065:4367  for (uint256 i = 0; i <= StakeIdCounter.current(); i++) {... */\n      tag_193\n      jumpi\n        /* \"Staking/staking.sol\":4158:4160  ad */\n      dup8\n        /* \"Staking/staking.sol\":4139:4160  stakingOwner[i] == ad */\n      0xffffffffffffffffffffffffffffffffffffffff\n      and\n        /* \"Staking/staking.sol\":4139:4151  stakingOwner */\n      0x04\n        /* \"Staking/staking.sol\":4139:4154  stakingOwner[i] */\n      0x00\n        /* \"Staking/staking.sol\":4152:4153  i */\n      dup4\n        /* \"Staking/staking.sol\":4139:4154  stakingOwner[i] */\n      dup2\n      mstore\n      0x20\n      add\n      swap1\n      dup2\n      mstore\n      0x20\n      add\n      0x00\n      keccak256\n      0x00\n      swap1\n      sload\n      swap1\n      0x0100\n      exp\n      swap1\n      div\n      0xffffffffffffffffffffffffffffffffffffffff\n      and\n        /* \"Staking/staking.sol\":4139:4160  stakingOwner[i] == ad */\n      0xffffffffffffffffffffffffffffffffffffffff\n      and\n      sub\n        /* \"Staking/staking.sol\":4135:4287  if (stakingOwner[i] == ad) {... */\n      tag_196\n      jumpi\n        /* \"Staking/staking.sol\":4202:4208  stakes */\n      0x05\n        /* \"Staking/staking.sol\":4202:4211  stakes[i] */\n      0x00\n        /* \"Staking/staking.sol\":4209:4210  i */\n      dup3\n        /* \"Staking/staking.sol\":4202:4211  stakes[i] */\n      dup2\n      mstore\n      0x20\n      add\n      swap1\n      dup2\n      mstore\n      0x20\n      add\n      0x00\n      keccak256\n        /* \"Staking/staking.sol\":4180:4211  stakingInfos[index] = stakes[i] */\n      mload(0x40)\n      dup1\n      0x80\n      add\n      0x40\n      mstore\n      swap1\n      dup2\n      0x00\n      dup3\n      add\n      sload\n      dup2\n      mstore\n      0x20\n      add\n      0x01\n      dup3\n      add\n      sload\n      dup2\n      mstore\n      0x20\n      add\n      0x02\n      dup3\n      add\n      sload\n      dup2\n      mstore\n      0x20\n      add\n      0x03\n      dup3\n      add\n      0x00\n      swap1\n      sload\n      swap1\n      0x0100\n      exp\n      swap1\n      div\n      0xff\n      and\n      iszero\n      iszero\n      iszero\n      iszero\n      dup2\n      mstore\n      pop\n      pop\n        /* \"Staking/staking.sol\":4180:4192  stakingInfos */\n      dup5\n        /* \"Staking/staking.sol\":4193:4198  index */\n      dup4\n        /* \"Staking/staking.sol\":4180:4199  stakingInfos[index] */\n      dup2\n      mload\n      dup2\n      lt\n      tag_197\n      jumpi\n      tag_198\n      tag_104\n      jump\t// in\n    tag_198:\n    tag_197:\n      0x20\n      mul\n      0x20\n      add\n      add\n        /* \"Staking/staking.sol\":4180:4211  stakingInfos[index] = stakes[i] */\n      dup2\n      swap1\n      mstore\n      pop\n        /* \"Staking/staking.sol\":4246:4247  i */\n      dup1\n        /* \"Staking/staking.sol\":4229:4236  userids */\n      dup4\n        /* \"Staking/staking.sol\":4237:4242  index */\n      dup4\n        /* \"Staking/staking.sol\":4229:4243  userids[index] */\n      dup2\n      mload\n      dup2\n      lt\n      tag_199\n      jumpi\n      tag_200\n      tag_104\n      jump\t// in\n    tag_200:\n    tag_199:\n      0x20\n      mul\n      0x20\n      add\n      add\n        /* \"Staking/staking.sol\":4229:4247  userids[index] = i */\n      dup2\n      dup2\n      mstore\n      pop\n      pop\n        /* \"Staking/staking.sol\":4265:4272  index++ */\n      dup2\n      dup1\n      tag_201\n      swap1\n      tag_91\n      jump\t// in\n    tag_201:\n      swap3\n      pop\n      pop\n        /* \"Staking/staking.sol\":4135:4287  if (stakingOwner[i] == ad) {... */\n    tag_196:\n        /* \"Staking/staking.sol\":4312:4317  count */\n      dup5\n        /* \"Staking/staking.sol\":4304:4309  index */\n      dup3\n        /* \"Staking/staking.sol\":4304:4317  index > count */\n      gt\n        /* \"Staking/staking.sol\":4337:4342  break */\n      tag_193\n        /* \"Staking/staking.sol\":4300:4357  if (index > count) {... */\n      jumpi\n        /* \"Staking/staking.sol\":4116:4119  i++ */\n      dup1\n      dup1\n      tag_203\n      swap1\n      tag_91\n      jump\t// in\n    tag_203:\n      swap2\n      pop\n      pop\n        /* \"Staking/staking.sol\":4065:4367  for (uint256 i = 0; i <= StakeIdCounter.current(); i++) {... */\n      jump(tag_192)\n    tag_193:\n      pop\n        /* \"Staking/staking.sol\":4384:4391  userids */\n      dup2\n        /* \"Staking/staking.sol\":4393:4405  stakingInfos */\n      dup4\n        /* \"Staking/staking.sol\":4376:4406  return (userids, stakingInfos) */\n      swap6\n      pop\n      swap6\n      pop\n      pop\n      pop\n      pop\n      pop\n        /* \"Staking/staking.sol\":3488:4413  function IdsAndDetails(address ad) public view returns (uint256[] memory, StakingInfo[] memory) {... */\n      swap2\n      pop\n      swap2\n      jump\t// out\n        /* \"Staking/staking.sol\":6746:7423  function claimReward(address ad) public {... */\n    tag_66:\n        /* \"Staking/staking.sol\":6852:6876  uint256[] memory userids */\n      0x00\n        /* \"Staking/staking.sol\":6879:6889  getIds(ad) */\n      tag_205\n        /* \"Staking/staking.sol\":6886:6888  ad */\n      dup3\n        /* \"Staking/staking.sol\":6879:6885  getIds */\n      tag_34\n        /* \"Staking/staking.sol\":6879:6889  getIds(ad) */\n      jump\t// in\n    tag_205:\n        /* \"Staking/staking.sol\":6852:6889  uint256[] memory userids = getIds(ad) */\n      swap1\n      pop\n        /* \"Staking/staking.sol\":6924:6925  0 */\n      0x00\n        /* \"Staking/staking.sol\":6907:6914  userids */\n      dup2\n        /* \"Staking/staking.sol\":6907:6921  userids.length */\n      mload\n        /* \"Staking/staking.sol\":6907:6925  userids.length > 0 */\n      gt\n        /* \"Staking/staking.sol\":6899:6959  require(userids.length > 0, \"You haven't staked any amount\") */\n      tag_206\n      jumpi\n      mload(0x40)\n      0x08c379a000000000000000000000000000000000000000000000000000000000\n      dup2\n      mstore\n      0x04\n      add\n      tag_207\n      swap1\n      tag_208\n      jump\t// in\n    tag_207:\n      mload(0x40)\n      dup1\n      swap2\n      sub\n      swap1\n      revert\n    tag_206:\n        /* \"Staking/staking.sol\":7051:7060  uint256 i */\n      0x00\n        /* \"Staking/staking.sol\":7046:7206  for (uint256 i = 0; i < userids.length; i++) {... */\n    tag_209:\n        /* \"Staking/staking.sol\":7070:7077  userids */\n      dup2\n        /* \"Staking/staking.sol\":7070:7084  userids.length */\n      mload\n        /* \"Staking/staking.sol\":7066:7067  i */\n      dup2\n        /* \"Staking/staking.sol\":7066:7084  i < userids.length */\n      lt\n        /* \"Staking/staking.sol\":7046:7206  for (uint256 i = 0; i < userids.length; i++) {... */\n      iszero\n      tag_210\n      jumpi\n        /* \"Staking/staking.sol\":7110:7116  stakes */\n      0x05\n        /* \"Staking/staking.sol\":7110:7128  stakes[userids[i]] */\n      0x00\n        /* \"Staking/staking.sol\":7117:7124  userids */\n      dup4\n        /* \"Staking/staking.sol\":7125:7126  i */\n      dup4\n        /* \"Staking/staking.sol\":7117:7127  userids[i] */\n      dup2\n      mload\n      dup2\n      lt\n      tag_212\n      jumpi\n      tag_213\n      tag_104\n      jump\t// in\n    tag_213:\n    tag_212:\n      0x20\n      mul\n      0x20\n      add\n      add\n      mload\n        /* \"Staking/staking.sol\":7110:7128  stakes[userids[i]] */\n      dup2\n      mstore\n      0x20\n      add\n      swap1\n      dup2\n      mstore\n      0x20\n      add\n      0x00\n      keccak256\n        /* \"Staking/staking.sol\":7110:7136  stakes[userids[i]].expired */\n      0x03\n      add\n      0x00\n      swap1\n      sload\n      swap1\n      0x0100\n      exp\n      swap1\n      div\n      0xff\n      and\n        /* \"Staking/staking.sol\":7105:7196  if (!stakes[userids[i]].expired) {... */\n      tag_214\n      jumpi\n        /* \"Staking/staking.sol\":7156:7181  genrateReward(userids[i]) */\n      tag_215\n        /* \"Staking/staking.sol\":7170:7177  userids */\n      dup3\n        /* \"Staking/staking.sol\":7178:7179  i */\n      dup3\n        /* \"Staking/staking.sol\":7170:7180  userids[i] */\n      dup2\n      mload\n      dup2\n      lt\n      tag_216\n      jumpi\n      tag_217\n      tag_104\n      jump\t// in\n    tag_217:\n    tag_216:\n      0x20\n      mul\n      0x20\n      add\n      add\n      mload\n        /* \"Staking/staking.sol\":7156:7169  genrateReward */\n      tag_77\n        /* \"Staking/staking.sol\":7156:7181  genrateReward(userids[i]) */\n      jump\t// in\n    tag_215:\n        /* \"Staking/staking.sol\":7105:7196  if (!stakes[userids[i]].expired) {... */\n    tag_214:\n        /* \"Staking/staking.sol\":7086:7089  i++ */\n      dup1\n      dup1\n      tag_218\n      swap1\n      tag_91\n      jump\t// in\n    tag_218:\n      swap2\n      pop\n      pop\n        /* \"Staking/staking.sol\":7046:7206  for (uint256 i = 0; i < userids.length; i++) {... */\n      jump(tag_209)\n    tag_210:\n      pop\n        /* \"Staking/staking.sol\":7318:7319  0 */\n      0x00\n        /* \"Staking/staking.sol\":7304:7311  rewards */\n      0x06\n        /* \"Staking/staking.sol\":7304:7315  rewards[ad] */\n      0x00\n        /* \"Staking/staking.sol\":7312:7314  ad */\n      dup5\n        /* \"Staking/staking.sol\":7304:7315  rewards[ad] */\n      0xffffffffffffffffffffffffffffffffffffffff\n      and\n      0xffffffffffffffffffffffffffffffffffffffff\n      and\n      dup2\n      mstore\n      0x20\n      add\n      swap1\n      dup2\n      mstore\n      0x20\n      add\n      0x00\n      keccak256\n      sload\n        /* \"Staking/staking.sol\":7304:7319  rewards[ad] > 0 */\n      gt\n        /* \"Staking/staking.sol\":7296:7342  require(rewards[ad] > 0, \"No reward to claim\") */\n      tag_219\n      jumpi\n      mload(0x40)\n      0x08c379a000000000000000000000000000000000000000000000000000000000\n      dup2\n      mstore\n      0x04\n      add\n      tag_220\n      swap1\n      tag_221\n      jump\t// in\n    tag_220:\n      mload(0x40)\n      dup1\n      swap2\n      sub\n      swap1\n      revert\n    tag_219:\n        /* \"Staking/staking.sol\":7352:7357  token */\n      0x01\n      0x00\n      swap1\n      sload\n      swap1\n      0x0100\n      exp\n      swap1\n      div\n      0xffffffffffffffffffffffffffffffffffffffff\n      and\n        /* \"Staking/staking.sol\":7352:7366  token.transfer */\n      0xffffffffffffffffffffffffffffffffffffffff\n      and\n      0xa9059cbb\n        /* \"Staking/staking.sol\":7367:7377  msg.sender */\n      caller\n        /* \"Staking/staking.sol\":7379:7386  rewards */\n      0x06\n        /* \"Staking/staking.sol\":7379:7390  rewards[ad] */\n      0x00\n        /* \"Staking/staking.sol\":7387:7389  ad */\n      dup7\n        /* \"Staking/staking.sol\":7379:7390  rewards[ad] */\n      0xffffffffffffffffffffffffffffffffffffffff\n      and\n      0xffffffffffffffffffffffffffffffffffffffff\n      and\n      dup2\n      mstore\n      0x20\n      add\n      swap1\n      dup2\n      mstore\n      0x20\n      add\n      0x00\n      keccak256\n      sload\n        /* \"Staking/staking.sol\":7352:7391  token.transfer(msg.sender, rewards[ad]) */\n      mload(0x40)\n      dup4\n      0xffffffff\n      and\n      0xe0\n      shl\n      dup2\n      mstore\n      0x04\n      add\n      tag_222\n      swap3\n      swap2\n      swap1\n      tag_121\n      jump\t// in\n    tag_222:\n      0x20\n      mload(0x40)\n      dup1\n      dup4\n      sub\n      dup2\n      0x00\n      dup8\n      gas\n      call\n      iszero\n      dup1\n      iszero\n      tag_224\n      jumpi\n      returndatasize\n      0x00\n      dup1\n      returndatacopy\n      revert(0x00, returndatasize)\n    tag_224:\n      pop\n      pop\n      pop\n      pop\n      mload(0x40)\n      returndatasize\n      not(0x1f)\n      0x1f\n      dup3\n      add\n      and\n      dup3\n      add\n      dup1\n      0x40\n      mstore\n      pop\n      dup2\n      add\n      swap1\n      tag_225\n      swap2\n      swap1\n      tag_125\n      jump\t// in\n    tag_225:\n      pop\n        /* \"Staking/staking.sol\":7415:7416  0 */\n      0x00\n        /* \"Staking/staking.sol\":7401:7408  rewards */\n      0x06\n        /* \"Staking/staking.sol\":7401:7412  rewards[ad] */\n      0x00\n        /* \"Staking/staking.sol\":7409:7411  ad */\n      dup5\n        /* \"Staking/staking.sol\":7401:7412  rewards[ad] */\n      0xffffffffffffffffffffffffffffffffffffffff\n      and\n      0xffffffffffffffffffffffffffffffffffffffff\n      and\n      dup2\n      mstore\n      0x20\n      add\n      swap1\n      dup2\n      mstore\n      0x20\n      add\n      0x00\n      keccak256\n        /* \"Staking/staking.sol\":7401:7416  rewards[ad] = 0 */\n      dup2\n      swap1\n      sstore\n      pop\n        /* \"Staking/staking.sol\":6786:7423  {... */\n      pop\n        /* \"Staking/staking.sol\":6746:7423  function claimReward(address ad) public {... */\n      pop\n      jump\t// out\n        /* \"Staking/staking.sol\":1138:1183  mapping(uint256 => StakingInfo) public stakes */\n    tag_69:\n      mstore(0x20, 0x05)\n      dup1\n      0x00\n      mstore\n      keccak256(0x00, 0x40)\n      0x00\n      swap2\n      pop\n      swap1\n      pop\n      dup1\n      0x00\n      add\n      sload\n      swap1\n      dup1\n      0x01\n      add\n      sload\n      swap1\n      dup1\n      0x02\n      add\n      sload\n      swap1\n      dup1\n      0x03\n      add\n      0x00\n      swap1\n      sload\n      swap1\n      0x0100\n      exp\n      swap1\n      div\n      0xff\n      and\n      swap1\n      pop\n      dup5\n      jump\t// out\n        /* \"Staking/staking.sol\":5570:5662  function CurrentTime() public view returns (uint256) {... */\n    tag_73:\n        /* \"Staking/staking.sol\":5614:5621  uint256 */\n      0x00\n        /* \"Staking/staking.sol\":5640:5655  block.timestamp */\n      timestamp\n        /* \"Staking/staking.sol\":5633:5655  return block.timestamp */\n      swap1\n      pop\n        /* \"Staking/staking.sol\":5570:5662  function CurrentTime() public view returns (uint256) {... */\n      swap1\n      jump\t// out\n        /* \"Staking/staking.sol\":6074:6617  function genrateReward(uint256 id) public {... */\n    tag_77:\n        /* \"Staking/staking.sol\":6126:6146  uint256 current_time */\n      0x00\n        /* \"Staking/staking.sol\":6149:6164  block.timestamp */\n      timestamp\n        /* \"Staking/staking.sol\":6126:6164  uint256 current_time = block.timestamp */\n      swap1\n      pop\n        /* \"Staking/staking.sol\":6174:6197  uint256 stakingDuration */\n      0x00\n        /* \"Staking/staking.sol\":6215:6221  stakes */\n      0x05\n        /* \"Staking/staking.sol\":6215:6225  stakes[id] */\n      0x00\n        /* \"Staking/staking.sol\":6222:6224  id */\n      dup5\n        /* \"Staking/staking.sol\":6215:6225  stakes[id] */\n      dup2\n      mstore\n      0x20\n      add\n      swap1\n      dup2\n      mstore\n      0x20\n      add\n      0x00\n      keccak256\n        /* \"Staking/staking.sol\":6215:6236  stakes[id].StakedTime */\n      0x01\n      add\n      sload\n        /* \"Staking/staking.sol\":6200:6212  current_time */\n      dup3\n        /* \"Staking/staking.sol\":6200:6236  current_time - stakes[id].StakedTime */\n      tag_228\n      swap2\n      swap1\n      tag_229\n      jump\t// in\n    tag_228:\n        /* \"Staking/staking.sol\":6174:6236  uint256 stakingDuration = current_time - stakes[id].StakedTime */\n      swap1\n      pop\n        /* \"Staking/staking.sol\":6246:6258  uint256 time */\n      0x00\n        /* \"Staking/staking.sol\":6261:6302  min(stakingDuration, stakes[id].duration) */\n      tag_230\n        /* \"Staking/staking.sol\":6265:6280  stakingDuration */\n      dup3\n        /* \"Staking/staking.sol\":6282:6288  stakes */\n      0x05\n        /* \"Staking/staking.sol\":6282:6292  stakes[id] */\n      0x00\n        /* \"Staking/staking.sol\":6289:6291  id */\n      dup8\n        /* \"Staking/staking.sol\":6282:6292  stakes[id] */\n      dup2\n      mstore\n      0x20\n      add\n      swap1\n      dup2\n      mstore\n      0x20\n      add\n      0x00\n      keccak256\n        /* \"Staking/staking.sol\":6282:6301  stakes[id].duration */\n      0x02\n      add\n      sload\n        /* \"Staking/staking.sol\":6261:6264  min */\n      tag_231\n        /* \"Staking/staking.sol\":6261:6302  min(stakingDuration, stakes[id].duration) */\n      jump\t// in\n    tag_230:\n        /* \"Staking/staking.sol\":6246:6302  uint256 time = min(stakingDuration, stakes[id].duration) */\n      swap1\n      pop\n        /* \"Staking/staking.sol\":6503:6506  100 */\n      0x64\n        /* \"Staking/staking.sol\":6495:6499  time */\n      dup2\n        /* \"Staking/staking.sol\":6484:6492  interest */\n      sload(0x03)\n        /* \"Staking/staking.sol\":6458:6464  stakes */\n      0x05\n        /* \"Staking/staking.sol\":6458:6468  stakes[id] */\n      0x00\n        /* \"Staking/staking.sol\":6465:6467  id */\n      dup9\n        /* \"Staking/staking.sol\":6458:6468  stakes[id] */\n      dup2\n      mstore\n      0x20\n      add\n      swap1\n      dup2\n      mstore\n      0x20\n      add\n      0x00\n      keccak256\n        /* \"Staking/staking.sol\":6458:6481  stakes[id].StakedAmount */\n      0x00\n      add\n      sload\n        /* \"Staking/staking.sol\":6458:6492  stakes[id].StakedAmount * interest */\n      tag_232\n      swap2\n      swap1\n      tag_166\n      jump\t// in\n    tag_232:\n        /* \"Staking/staking.sol\":6458:6499  stakes[id].StakedAmount * interest * time */\n      tag_233\n      swap2\n      swap1\n      tag_166\n      jump\t// in\n    tag_233:\n        /* \"Staking/staking.sol\":6457:6506  (stakes[id].StakedAmount * interest * time) / 100 */\n      tag_234\n      swap2\n      swap1\n      tag_235\n      jump\t// in\n    tag_234:\n        /* \"Staking/staking.sol\":6429:6436  rewards */\n      0x06\n        /* \"Staking/staking.sol\":6429:6454  rewards[stakingOwner[id]] */\n      0x00\n        /* \"Staking/staking.sol\":6437:6449  stakingOwner */\n      0x04\n        /* \"Staking/staking.sol\":6437:6453  stakingOwner[id] */\n      0x00\n        /* \"Staking/staking.sol\":6450:6452  id */\n      dup9\n        /* \"Staking/staking.sol\":6437:6453  stakingOwner[id] */\n      dup2\n      mstore\n      0x20\n      add\n      swap1\n      dup2\n      mstore\n      0x20\n      add\n      0x00\n      keccak256\n      0x00\n      swap1\n      sload\n      swap1\n      0x0100\n      exp\n      swap1\n      div\n      0xffffffffffffffffffffffffffffffffffffffff\n      and\n        /* \"Staking/staking.sol\":6429:6454  rewards[stakingOwner[id]] */\n      0xffffffffffffffffffffffffffffffffffffffff\n      and\n      0xffffffffffffffffffffffffffffffffffffffff\n      and\n      dup2\n      mstore\n      0x20\n      add\n      swap1\n      dup2\n      mstore\n      0x20\n      add\n      0x00\n      keccak256\n      sload\n        /* \"Staking/staking.sol\":6429:6506  rewards[stakingOwner[id]] + (stakes[id].StakedAmount * interest * time) / 100 */\n      tag_236\n      swap2\n      swap1\n      tag_163\n      jump\t// in\n    tag_236:\n        /* \"Staking/staking.sol\":6401:6408  rewards */\n      0x06\n        /* \"Staking/staking.sol\":6401:6426  rewards[stakingOwner[id]] */\n      0x00\n        /* \"Staking/staking.sol\":6409:6421  stakingOwner */\n      0x04\n        /* \"Staking/staking.sol\":6409:6425  stakingOwner[id] */\n      0x00\n        /* \"Staking/staking.sol\":6422:6424  id */\n      dup9\n        /* \"Staking/staking.sol\":6409:6425  stakingOwner[id] */\n      dup2\n      mstore\n      0x20\n      add\n      swap1\n      dup2\n      mstore\n      0x20\n      add\n      0x00\n      keccak256\n      0x00\n      swap1\n      sload\n      swap1\n      0x0100\n      exp\n      swap1\n      div\n      0xffffffffffffffffffffffffffffffffffffffff\n      and\n        /* \"Staking/staking.sol\":6401:6426  rewards[stakingOwner[id]] */\n      0xffffffffffffffffffffffffffffffffffffffff\n      and\n      0xffffffffffffffffffffffffffffffffffffffff\n      and\n      dup2\n      mstore\n      0x20\n      add\n      swap1\n      dup2\n      mstore\n      0x20\n      add\n      0x00\n      keccak256\n        /* \"Staking/staking.sol\":6401:6506  rewards[stakingOwner[id]] = rewards[stakingOwner[id]] + (stakes[id].StakedAmount * interest * time) / 100 */\n      dup2\n      swap1\n      sstore\n      pop\n        /* \"Staking/staking.sol\":6540:6552  current_time */\n      dup3\n        /* \"Staking/staking.sol\":6516:6522  stakes */\n      0x05\n        /* \"Staking/staking.sol\":6516:6526  stakes[id] */\n      0x00\n        /* \"Staking/staking.sol\":6523:6525  id */\n      dup7\n        /* \"Staking/staking.sol\":6516:6526  stakes[id] */\n      dup2\n      mstore\n      0x20\n      add\n      swap1\n      dup2\n      mstore\n      0x20\n      add\n      0x00\n      keccak256\n        /* \"Staking/staking.sol\":6516:6537  stakes[id].StakedTime */\n      0x01\n      add\n        /* \"Staking/staking.sol\":6516:6552  stakes[id].StakedTime = current_time */\n      dup2\n      swap1\n      sstore\n      pop\n        /* \"Staking/staking.sol\":6606:6610  time */\n      dup1\n        /* \"Staking/staking.sol\":6584:6590  stakes */\n      0x05\n        /* \"Staking/staking.sol\":6584:6594  stakes[id] */\n      0x00\n        /* \"Staking/staking.sol\":6591:6593  id */\n      dup7\n        /* \"Staking/staking.sol\":6584:6594  stakes[id] */\n      dup2\n      mstore\n      0x20\n      add\n      swap1\n      dup2\n      mstore\n      0x20\n      add\n      0x00\n      keccak256\n        /* \"Staking/staking.sol\":6584:6603  stakes[id].duration */\n      0x02\n      add\n      sload\n        /* \"Staking/staking.sol\":6584:6610  stakes[id].duration - time */\n      tag_237\n      swap2\n      swap1\n      tag_229\n      jump\t// in\n    tag_237:\n        /* \"Staking/staking.sol\":6562:6568  stakes */\n      0x05\n        /* \"Staking/staking.sol\":6562:6572  stakes[id] */\n      0x00\n        /* \"Staking/staking.sol\":6569:6571  id */\n      dup7\n        /* \"Staking/staking.sol\":6562:6572  stakes[id] */\n      dup2\n      mstore\n      0x20\n      add\n      swap1\n      dup2\n      mstore\n      0x20\n      add\n      0x00\n      keccak256\n        /* \"Staking/staking.sol\":6562:6581  stakes[id].duration */\n      0x02\n      add\n        /* \"Staking/staking.sol\":6562:6610  stakes[id].duration = stakes[id].duration - time */\n      dup2\n      swap1\n      sstore\n      pop\n        /* \"Staking/staking.sol\":6116:6617  {... */\n      pop\n      pop\n      pop\n        /* \"Staking/staking.sol\":6074:6617  function genrateReward(uint256 id) public {... */\n      pop\n      jump\t// out\n        /* \"Staking/staking.sol\":812:831  IERC20 public token */\n    tag_79:\n      0x01\n      0x00\n      swap1\n      sload\n      swap1\n      0x0100\n      exp\n      swap1\n      div\n      0xffffffffffffffffffffffffffffffffffffffff\n      and\n      dup2\n      jump\t// out\n        /* \"@openzeppelin/contracts/utils/Counters.sol\":827:939  function current(Counter storage counter) internal view returns (uint256) {... */\n    tag_88:\n        /* \"@openzeppelin/contracts/utils/Counters.sol\":892:899  uint256 */\n      0x00\n        /* \"@openzeppelin/contracts/utils/Counters.sol\":918:925  counter */\n      dup2\n        /* \"@openzeppelin/contracts/utils/Counters.sol\":918:932  counter._value */\n      0x00\n      add\n      sload\n        /* \"@openzeppelin/contracts/utils/Counters.sol\":911:932  return counter._value */\n      swap1\n      pop\n        /* \"@openzeppelin/contracts/utils/Counters.sol\":827:939  function current(Counter storage counter) internal view returns (uint256) {... */\n      swap2\n      swap1\n      pop\n      jump\t// out\n        /* \"@openzeppelin/contracts/utils/Counters.sol\":945:1068  function increment(Counter storage counter) internal {... */\n    tag_133:\n        /* \"@openzeppelin/contracts/utils/Counters.sol\":1050:1051  1 */\n      0x01\n        /* \"@openzeppelin/contracts/utils/Counters.sol\":1032:1039  counter */\n      dup2\n        /* \"@openzeppelin/contracts/utils/Counters.sol\":1032:1046  counter._value */\n      0x00\n      add\n      0x00\n        /* \"@openzeppelin/contracts/utils/Counters.sol\":1032:1051  counter._value += 1 */\n      dup3\n      dup3\n      sload\n      add\n      swap3\n      pop\n      pop\n      dup2\n      swap1\n      sstore\n      pop\n        /* \"@openzeppelin/contracts/utils/Counters.sol\":945:1068  function increment(Counter storage counter) internal {... */\n      pop\n      jump\t// out\n        /* \"Staking/staking.sol\":5758:5862  function min(uint256 a, uint256 b) internal pure returns (uint256) {... */\n    tag_231:\n        /* \"Staking/staking.sol\":5816:5823  uint256 */\n      0x00\n        /* \"Staking/staking.sol\":5846:5847  b */\n      dup2\n        /* \"Staking/staking.sol\":5842:5843  a */\n      dup4\n        /* \"Staking/staking.sol\":5842:5847  a < b */\n      lt\n        /* \"Staking/staking.sol\":5842:5855  a < b ? a : b */\n      tag_241\n      jumpi\n        /* \"Staking/staking.sol\":5854:5855  b */\n      dup2\n        /* \"Staking/staking.sol\":5842:5855  a < b ? a : b */\n      jump(tag_242)\n    tag_241:\n        /* \"Staking/staking.sol\":5850:5851  a */\n      dup3\n        /* \"Staking/staking.sol\":5842:5855  a < b ? a : b */\n    tag_242:\n        /* \"Staking/staking.sol\":5835:5855  return a < b ? a : b */\n      swap1\n      pop\n        /* \"Staking/staking.sol\":5758:5862  function min(uint256 a, uint256 b) internal pure returns (uint256) {... */\n      swap3\n      swap2\n      pop\n      pop\n      jump\t// out\n    tag_188:\n      mload(0x40)\n      dup1\n      0x80\n      add\n      0x40\n      mstore\n      dup1\n      0x00\n      dup2\n      mstore\n      0x20\n      add\n      0x00\n      dup2\n      mstore\n      0x20\n      add\n      0x00\n      dup2\n      mstore\n      0x20\n      add\n      iszero(iszero(0x00))\n      dup2\n      mstore\n      pop\n      swap1\n      jump\t// out\n        /* \"#utility.yul\":88:205   */\n    tag_244:\n        /* \"#utility.yul\":197:198   */\n      0x00\n        /* \"#utility.yul\":194:195   */\n      dup1\n        /* \"#utility.yul\":187:199   */\n      revert\n        /* \"#utility.yul\":334:460   */\n    tag_246:\n        /* \"#utility.yul\":371:378   */\n      0x00\n        /* \"#utility.yul\":411:453   */\n      0xffffffffffffffffffffffffffffffffffffffff\n        /* \"#utility.yul\":404:409   */\n      dup3\n        /* \"#utility.yul\":400:454   */\n      and\n        /* \"#utility.yul\":389:454   */\n      swap1\n      pop\n        /* \"#utility.yul\":334:460   */\n      swap2\n      swap1\n      pop\n      jump\t// out\n        /* \"#utility.yul\":466:562   */\n    tag_247:\n        /* \"#utility.yul\":503:510   */\n      0x00\n        /* \"#utility.yul\":532:556   */\n      tag_303\n        /* \"#utility.yul\":550:555   */\n      dup3\n        /* \"#utility.yul\":532:556   */\n      tag_246\n      jump\t// in\n    tag_303:\n        /* \"#utility.yul\":521:556   */\n      swap1\n      pop\n        /* \"#utility.yul\":466:562   */\n      swap2\n      swap1\n      pop\n      jump\t// out\n        /* \"#utility.yul\":568:690   */\n    tag_248:\n        /* \"#utility.yul\":641:665   */\n      tag_305\n        /* \"#utility.yul\":659:664   */\n      dup2\n        /* \"#utility.yul\":641:665   */\n      tag_247\n      jump\t// in\n    tag_305:\n        /* \"#utility.yul\":634:639   */\n      dup2\n        /* \"#utility.yul\":631:666   */\n      eq\n        /* \"#utility.yul\":621:684   */\n      tag_306\n      jumpi\n        /* \"#utility.yul\":680:681   */\n      0x00\n        /* \"#utility.yul\":677:678   */\n      dup1\n        /* \"#utility.yul\":670:682   */\n      revert\n        /* \"#utility.yul\":621:684   */\n    tag_306:\n        /* \"#utility.yul\":568:690   */\n      pop\n      jump\t// out\n        /* \"#utility.yul\":696:835   */\n    tag_249:\n        /* \"#utility.yul\":742:747   */\n      0x00\n        /* \"#utility.yul\":780:786   */\n      dup2\n        /* \"#utility.yul\":767:787   */\n      calldataload\n        /* \"#utility.yul\":758:787   */\n      swap1\n      pop\n        /* \"#utility.yul\":796:829   */\n      tag_308\n        /* \"#utility.yul\":823:828   */\n      dup2\n        /* \"#utility.yul\":796:829   */\n      tag_248\n      jump\t// in\n    tag_308:\n        /* \"#utility.yul\":696:835   */\n      swap3\n      swap2\n      pop\n      pop\n      jump\t// out\n        /* \"#utility.yul\":841:1170   */\n    tag_23:\n        /* \"#utility.yul\":900:906   */\n      0x00\n        /* \"#utility.yul\":949:951   */\n      0x20\n        /* \"#utility.yul\":937:946   */\n      dup3\n        /* \"#utility.yul\":928:935   */\n      dup5\n        /* \"#utility.yul\":924:947   */\n      sub\n        /* \"#utility.yul\":920:952   */\n      slt\n        /* \"#utility.yul\":917:1036   */\n      iszero\n      tag_310\n      jumpi\n        /* \"#utility.yul\":955:1034   */\n      tag_311\n      tag_244\n      jump\t// in\n    tag_311:\n        /* \"#utility.yul\":917:1036   */\n    tag_310:\n        /* \"#utility.yul\":1075:1076   */\n      0x00\n        /* \"#utility.yul\":1100:1153   */\n      tag_312\n        /* \"#utility.yul\":1145:1152   */\n      dup5\n        /* \"#utility.yul\":1136:1142   */\n      dup3\n        /* \"#utility.yul\":1125:1134   */\n      dup6\n        /* \"#utility.yul\":1121:1143   */\n      add\n        /* \"#utility.yul\":1100:1153   */\n      tag_249\n      jump\t// in\n    tag_312:\n        /* \"#utility.yul\":1090:1153   */\n      swap2\n      pop\n        /* \"#utility.yul\":1046:1163   */\n      pop\n        /* \"#utility.yul\":841:1170   */\n      swap3\n      swap2\n      pop\n      pop\n      jump\t// out\n        /* \"#utility.yul\":1176:1253   */\n    tag_250:\n        /* \"#utility.yul\":1213:1220   */\n      0x00\n        /* \"#utility.yul\":1242:1247   */\n      dup2\n        /* \"#utility.yul\":1231:1247   */\n      swap1\n      pop\n        /* \"#utility.yul\":1176:1253   */\n      swap2\n      swap1\n      pop\n      jump\t// out\n        /* \"#utility.yul\":1259:1377   */\n    tag_251:\n        /* \"#utility.yul\":1346:1370   */\n      tag_315\n        /* \"#utility.yul\":1364:1369   */\n      dup2\n        /* \"#utility.yul\":1346:1370   */\n      tag_250\n      jump\t// in\n    tag_315:\n        /* \"#utility.yul\":1341:1344   */\n      dup3\n        /* \"#utility.yul\":1334:1371   */\n      mstore\n        /* \"#utility.yul\":1259:1377   */\n      pop\n      pop\n      jump\t// out\n        /* \"#utility.yul\":1383:1605   */\n    tag_26:\n        /* \"#utility.yul\":1476:1480   */\n      0x00\n        /* \"#utility.yul\":1514:1516   */\n      0x20\n        /* \"#utility.yul\":1503:1512   */\n      dup3\n        /* \"#utility.yul\":1499:1517   */\n      add\n        /* \"#utility.yul\":1491:1517   */\n      swap1\n      pop\n        /* \"#utility.yul\":1527:1598   */\n      tag_317\n        /* \"#utility.yul\":1595:1596   */\n      0x00\n        /* \"#utility.yul\":1584:1593   */\n      dup4\n        /* \"#utility.yul\":1580:1597   */\n      add\n        /* \"#utility.yul\":1571:1577   */\n      dup5\n        /* \"#utility.yul\":1527:1598   */\n      tag_251\n      jump\t// in\n    tag_317:\n        /* \"#utility.yul\":1383:1605   */\n      swap3\n      swap2\n      pop\n      pop\n      jump\t// out\n        /* \"#utility.yul\":1611:1733   */\n    tag_252:\n        /* \"#utility.yul\":1684:1708   */\n      tag_319\n        /* \"#utility.yul\":1702:1707   */\n      dup2\n        /* \"#utility.yul\":1684:1708   */\n      tag_250\n      jump\t// in\n    tag_319:\n        /* \"#utility.yul\":1677:1682   */\n      dup2\n        /* \"#utility.yul\":1674:1709   */\n      eq\n        /* \"#utility.yul\":1664:1727   */\n      tag_320\n      jumpi\n        /* \"#utility.yul\":1723:1724   */\n      0x00\n        /* \"#utility.yul\":1720:1721   */\n      dup1\n        /* \"#utility.yul\":1713:1725   */\n      revert\n        /* \"#utility.yul\":1664:1727   */\n    tag_320:\n        /* \"#utility.yul\":1611:1733   */\n      pop\n      jump\t// out\n        /* \"#utility.yul\":1739:1878   */\n    tag_253:\n        /* \"#utility.yul\":1785:1790   */\n      0x00\n        /* \"#utility.yul\":1823:1829   */\n      dup2\n        /* \"#utility.yul\":1810:1830   */\n      calldataload\n        /* \"#utility.yul\":1801:1830   */\n      swap1\n      pop\n        /* \"#utility.yul\":1839:1872   */\n      tag_322\n        /* \"#utility.yul\":1866:1871   */\n      dup2\n        /* \"#utility.yul\":1839:1872   */\n      tag_252\n      jump\t// in\n    tag_322:\n        /* \"#utility.yul\":1739:1878   */\n      swap3\n      swap2\n      pop\n      pop\n      jump\t// out\n        /* \"#utility.yul\":1884:2213   */\n    tag_29:\n        /* \"#utility.yul\":1943:1949   */\n      0x00\n        /* \"#utility.yul\":1992:1994   */\n      0x20\n        /* \"#utility.yul\":1980:1989   */\n      dup3\n        /* \"#utility.yul\":1971:1978   */\n      dup5\n        /* \"#utility.yul\":1967:1990   */\n      sub\n        /* \"#utility.yul\":1963:1995   */\n      slt\n        /* \"#utility.yul\":1960:2079   */\n      iszero\n      tag_324\n      jumpi\n        /* \"#utility.yul\":1998:2077   */\n      tag_325\n      tag_244\n      jump\t// in\n    tag_325:\n        /* \"#utility.yul\":1960:2079   */\n    tag_324:\n        /* \"#utility.yul\":2118:2119   */\n      0x00\n        /* \"#utility.yul\":2143:2196   */\n      tag_326\n        /* \"#utility.yul\":2188:2195   */\n      dup5\n        /* \"#utility.yul\":2179:2185   */\n      dup3\n        /* \"#utility.yul\":2168:2177   */\n      dup6\n        /* \"#utility.yul\":2164:2186   */\n      add\n        /* \"#utility.yul\":2143:2196   */\n      tag_253\n      jump\t// in\n    tag_326:\n        /* \"#utility.yul\":2133:2196   */\n      swap2\n      pop\n        /* \"#utility.yul\":2089:2206   */\n      pop\n        /* \"#utility.yul\":1884:2213   */\n      swap3\n      swap2\n      pop\n      pop\n      jump\t// out\n        /* \"#utility.yul\":2219:2333   */\n    tag_254:\n        /* \"#utility.yul\":2286:2292   */\n      0x00\n        /* \"#utility.yul\":2320:2325   */\n      dup2\n        /* \"#utility.yul\":2314:2326   */\n      mload\n        /* \"#utility.yul\":2304:2326   */\n      swap1\n      pop\n        /* \"#utility.yul\":2219:2333   */\n      swap2\n      swap1\n      pop\n      jump\t// out\n        /* \"#utility.yul\":2339:2523   */\n    tag_255:\n        /* \"#utility.yul\":2438:2449   */\n      0x00\n        /* \"#utility.yul\":2472:2478   */\n      dup3\n        /* \"#utility.yul\":2467:2470   */\n      dup3\n        /* \"#utility.yul\":2460:2479   */\n      mstore\n        /* \"#utility.yul\":2512:2516   */\n      0x20\n        /* \"#utility.yul\":2507:2510   */\n      dup3\n        /* \"#utility.yul\":2503:2517   */\n      add\n        /* \"#utility.yul\":2488:2517   */\n      swap1\n      pop\n        /* \"#utility.yul\":2339:2523   */\n      swap3\n      swap2\n      pop\n      pop\n      jump\t// out\n        /* \"#utility.yul\":2529:2661   */\n    tag_256:\n        /* \"#utility.yul\":2596:2600   */\n      0x00\n        /* \"#utility.yul\":2619:2622   */\n      dup2\n        /* \"#utility.yul\":2611:2622   */\n      swap1\n      pop\n        /* \"#utility.yul\":2649:2653   */\n      0x20\n        /* \"#utility.yul\":2644:2647   */\n      dup3\n        /* \"#utility.yul\":2640:2654   */\n      add\n        /* \"#utility.yul\":2632:2654   */\n      swap1\n      pop\n        /* \"#utility.yul\":2529:2661   */\n      swap2\n      swap1\n      pop\n      jump\t// out\n        /* \"#utility.yul\":2667:2775   */\n    tag_257:\n        /* \"#utility.yul\":2744:2768   */\n      tag_331\n        /* \"#utility.yul\":2762:2767   */\n      dup2\n        /* \"#utility.yul\":2744:2768   */\n      tag_250\n      jump\t// in\n    tag_331:\n        /* \"#utility.yul\":2739:2742   */\n      dup3\n        /* \"#utility.yul\":2732:2769   */\n      mstore\n        /* \"#utility.yul\":2667:2775   */\n      pop\n      pop\n      jump\t// out\n        /* \"#utility.yul\":2781:2960   */\n    tag_258:\n        /* \"#utility.yul\":2850:2860   */\n      0x00\n        /* \"#utility.yul\":2871:2917   */\n      tag_333\n        /* \"#utility.yul\":2913:2916   */\n      dup4\n        /* \"#utility.yul\":2905:2911   */\n      dup4\n        /* \"#utility.yul\":2871:2917   */\n      tag_257\n      jump\t// in\n    tag_333:\n        /* \"#utility.yul\":2949:2953   */\n      0x20\n        /* \"#utility.yul\":2944:2947   */\n      dup4\n        /* \"#utility.yul\":2940:2954   */\n      add\n        /* \"#utility.yul\":2926:2954   */\n      swap1\n      pop\n        /* \"#utility.yul\":2781:2960   */\n      swap3\n      swap2\n      pop\n      pop\n      jump\t// out\n        /* \"#utility.yul\":2966:3079   */\n    tag_259:\n        /* \"#utility.yul\":3036:3040   */\n      0x00\n        /* \"#utility.yul\":3068:3072   */\n      0x20\n        /* \"#utility.yul\":3063:3066   */\n      dup3\n        /* \"#utility.yul\":3059:3073   */\n      add\n        /* \"#utility.yul\":3051:3073   */\n      swap1\n      pop\n        /* \"#utility.yul\":2966:3079   */\n      swap2\n      swap1\n      pop\n      jump\t// out\n        /* \"#utility.yul\":3115:3847   */\n    tag_260:\n        /* \"#utility.yul\":3234:3237   */\n      0x00\n        /* \"#utility.yul\":3263:3317   */\n      tag_336\n        /* \"#utility.yul\":3311:3316   */\n      dup3\n        /* \"#utility.yul\":3263:3317   */\n      tag_254\n      jump\t// in\n    tag_336:\n        /* \"#utility.yul\":3333:3419   */\n      tag_337\n        /* \"#utility.yul\":3412:3418   */\n      dup2\n        /* \"#utility.yul\":3407:3410   */\n      dup6\n        /* \"#utility.yul\":3333:3419   */\n      tag_255\n      jump\t// in\n    tag_337:\n        /* \"#utility.yul\":3326:3419   */\n      swap4\n      pop\n        /* \"#utility.yul\":3443:3499   */\n      tag_338\n        /* \"#utility.yul\":3493:3498   */\n      dup4\n        /* \"#utility.yul\":3443:3499   */\n      tag_256\n      jump\t// in\n    tag_338:\n        /* \"#utility.yul\":3522:3529   */\n      dup1\n        /* \"#utility.yul\":3553:3554   */\n      0x00\n        /* \"#utility.yul\":3538:3822   */\n    tag_339:\n        /* \"#utility.yul\":3563:3569   */\n      dup4\n        /* \"#utility.yul\":3560:3561   */\n      dup2\n        /* \"#utility.yul\":3557:3570   */\n      lt\n        /* \"#utility.yul\":3538:3822   */\n      iszero\n      tag_341\n      jumpi\n        /* \"#utility.yul\":3639:3645   */\n      dup2\n        /* \"#utility.yul\":3633:3646   */\n      mload\n        /* \"#utility.yul\":3666:3729   */\n      tag_342\n        /* \"#utility.yul\":3725:3728   */\n      dup9\n        /* \"#utility.yul\":3710:3723   */\n      dup3\n        /* \"#utility.yul\":3666:3729   */\n      tag_258\n      jump\t// in\n    tag_342:\n        /* \"#utility.yul\":3659:3729   */\n      swap8\n      pop\n        /* \"#utility.yul\":3752:3812   */\n      tag_343\n        /* \"#utility.yul\":3805:3811   */\n      dup4\n        /* \"#utility.yul\":3752:3812   */\n      tag_259\n      jump\t// in\n    tag_343:\n        /* \"#utility.yul\":3742:3812   */\n      swap3\n      pop\n        /* \"#utility.yul\":3598:3822   */\n      pop\n        /* \"#utility.yul\":3585:3586   */\n      0x01\n        /* \"#utility.yul\":3582:3583   */\n      dup2\n        /* \"#utility.yul\":3578:3587   */\n      add\n        /* \"#utility.yul\":3573:3587   */\n      swap1\n      pop\n        /* \"#utility.yul\":3538:3822   */\n      jump(tag_339)\n    tag_341:\n        /* \"#utility.yul\":3542:3556   */\n      pop\n        /* \"#utility.yul\":3838:3841   */\n      dup6\n        /* \"#utility.yul\":3831:3841   */\n      swap4\n      pop\n        /* \"#utility.yul\":3239:3847   */\n      pop\n      pop\n      pop\n        /* \"#utility.yul\":3115:3847   */\n      swap3\n      swap2\n      pop\n      pop\n      jump\t// out\n        /* \"#utility.yul\":3853:4226   */\n    tag_36:\n        /* \"#utility.yul\":3996:4000   */\n      0x00\n        /* \"#utility.yul\":4034:4036   */\n      0x20\n        /* \"#utility.yul\":4023:4032   */\n      dup3\n        /* \"#utility.yul\":4019:4037   */\n      add\n        /* \"#utility.yul\":4011:4037   */\n      swap1\n      pop\n        /* \"#utility.yul\":4083:4092   */\n      dup2\n        /* \"#utility.yul\":4077:4081   */\n      dup2\n        /* \"#utility.yul\":4073:4093   */\n      sub\n        /* \"#utility.yul\":4069:4070   */\n      0x00\n        /* \"#utility.yul\":4058:4067   */\n      dup4\n        /* \"#utility.yul\":4054:4071   */\n      add\n        /* \"#utility.yul\":4047:4094   */\n      mstore\n        /* \"#utility.yul\":4111:4219   */\n      tag_345\n        /* \"#utility.yul\":4214:4218   */\n      dup2\n        /* \"#utility.yul\":4205:4211   */\n      dup5\n        /* \"#utility.yul\":4111:4219   */\n      tag_260\n      jump\t// in\n    tag_345:\n        /* \"#utility.yul\":4103:4219   */\n      swap1\n      pop\n        /* \"#utility.yul\":3853:4226   */\n      swap3\n      swap2\n      pop\n      pop\n      jump\t// out\n        /* \"#utility.yul\":4232:4706   */\n    tag_42:\n        /* \"#utility.yul\":4300:4306   */\n      0x00\n        /* \"#utility.yul\":4308:4314   */\n      dup1\n        /* \"#utility.yul\":4357:4359   */\n      0x40\n        /* \"#utility.yul\":4345:4354   */\n      dup4\n        /* \"#utility.yul\":4336:4343   */\n      dup6\n        /* \"#utility.yul\":4332:4355   */\n      sub\n        /* \"#utility.yul\":4328:4360   */\n      slt\n        /* \"#utility.yul\":4325:4444   */\n      iszero\n      tag_347\n      jumpi\n        /* \"#utility.yul\":4363:4442   */\n      tag_348\n      tag_244\n      jump\t// in\n    tag_348:\n        /* \"#utility.yul\":4325:4444   */\n    tag_347:\n        /* \"#utility.yul\":4483:4484   */\n      0x00\n        /* \"#utility.yul\":4508:4561   */\n      tag_349\n        /* \"#utility.yul\":4553:4560   */\n      dup6\n        /* \"#utility.yul\":4544:4550   */\n      dup3\n        /* \"#utility.yul\":4533:4542   */\n      dup7\n        /* \"#utility.yul\":4529:4551   */\n      add\n        /* \"#utility.yul\":4508:4561   */\n      tag_253\n      jump\t// in\n    tag_349:\n        /* \"#utility.yul\":4498:4561   */\n      swap3\n      pop\n        /* \"#utility.yul\":4454:4571   */\n      pop\n        /* \"#utility.yul\":4610:4612   */\n      0x20\n        /* \"#utility.yul\":4636:4689   */\n      tag_350\n        /* \"#utility.yul\":4681:4688   */\n      dup6\n        /* \"#utility.yul\":4672:4678   */\n      dup3\n        /* \"#utility.yul\":4661:4670   */\n      dup7\n        /* \"#utility.yul\":4657:4679   */\n      add\n        /* \"#utility.yul\":4636:4689   */\n      tag_253\n      jump\t// in\n    tag_350:\n        /* \"#utility.yul\":4626:4689   */\n      swap2\n      pop\n        /* \"#utility.yul\":4581:4699   */\n      pop\n        /* \"#utility.yul\":4232:4706   */\n      swap3\n      pop\n      swap3\n      swap1\n      pop\n      jump\t// out\n        /* \"#utility.yul\":4712:4830   */\n    tag_261:\n        /* \"#utility.yul\":4799:4823   */\n      tag_352\n        /* \"#utility.yul\":4817:4822   */\n      dup2\n        /* \"#utility.yul\":4799:4823   */\n      tag_247\n      jump\t// in\n    tag_352:\n        /* \"#utility.yul\":4794:4797   */\n      dup3\n        /* \"#utility.yul\":4787:4824   */\n      mstore\n        /* \"#utility.yul\":4712:4830   */\n      pop\n      pop\n      jump\t// out\n        /* \"#utility.yul\":4836:5058   */\n    tag_51:\n        /* \"#utility.yul\":4929:4933   */\n      0x00\n        /* \"#utility.yul\":4967:4969   */\n      0x20\n        /* \"#utility.yul\":4956:4965   */\n      dup3\n        /* \"#utility.yul\":4952:4970   */\n      add\n        /* \"#utility.yul\":4944:4970   */\n      swap1\n      pop\n        /* \"#utility.yul\":4980:5051   */\n      tag_354\n        /* \"#utility.yul\":5048:5049   */\n      0x00\n        /* \"#utility.yul\":5037:5046   */\n      dup4\n        /* \"#utility.yul\":5033:5050   */\n      add\n        /* \"#utility.yul\":5024:5030   */\n      dup5\n        /* \"#utility.yul\":4980:5051   */\n      tag_261\n      jump\t// in\n    tag_354:\n        /* \"#utility.yul\":4836:5058   */\n      swap3\n      swap2\n      pop\n      pop\n      jump\t// out\n        /* \"#utility.yul\":5064:5206   */\n    tag_262:\n        /* \"#utility.yul\":5159:5165   */\n      0x00\n        /* \"#utility.yul\":5193:5198   */\n      dup2\n        /* \"#utility.yul\":5187:5199   */\n      mload\n        /* \"#utility.yul\":5177:5199   */\n      swap1\n      pop\n        /* \"#utility.yul\":5064:5206   */\n      swap2\n      swap1\n      pop\n      jump\t// out\n        /* \"#utility.yul\":5212:5424   */\n    tag_263:\n        /* \"#utility.yul\":5339:5350   */\n      0x00\n        /* \"#utility.yul\":5373:5379   */\n      dup3\n        /* \"#utility.yul\":5368:5371   */\n      dup3\n        /* \"#utility.yul\":5361:5380   */\n      mstore\n        /* \"#utility.yul\":5413:5417   */\n      0x20\n        /* \"#utility.yul\":5408:5411   */\n      dup3\n        /* \"#utility.yul\":5404:5418   */\n      add\n        /* \"#utility.yul\":5389:5418   */\n      swap1\n      pop\n        /* \"#utility.yul\":5212:5424   */\n      swap3\n      swap2\n      pop\n      pop\n      jump\t// out\n        /* \"#utility.yul\":5430:5590   */\n    tag_264:\n        /* \"#utility.yul\":5525:5529   */\n      0x00\n        /* \"#utility.yul\":5548:5551   */\n      dup2\n        /* \"#utility.yul\":5540:5551   */\n      swap1\n      pop\n        /* \"#utility.yul\":5578:5582   */\n      0x20\n        /* \"#utility.yul\":5573:5576   */\n      dup3\n        /* \"#utility.yul\":5569:5583   */\n      add\n        /* \"#utility.yul\":5561:5583   */\n      swap1\n      pop\n        /* \"#utility.yul\":5430:5590   */\n      swap2\n      swap1\n      pop\n      jump\t// out\n        /* \"#utility.yul\":5596:5686   */\n    tag_265:\n        /* \"#utility.yul\":5630:5637   */\n      0x00\n        /* \"#utility.yul\":5673:5678   */\n      dup2\n        /* \"#utility.yul\":5666:5679   */\n      iszero\n        /* \"#utility.yul\":5659:5680   */\n      iszero\n        /* \"#utility.yul\":5648:5680   */\n      swap1\n      pop\n        /* \"#utility.yul\":5596:5686   */\n      swap2\n      swap1\n      pop\n      jump\t// out\n        /* \"#utility.yul\":5692:5791   */\n    tag_266:\n        /* \"#utility.yul\":5763:5784   */\n      tag_360\n        /* \"#utility.yul\":5778:5783   */\n      dup2\n        /* \"#utility.yul\":5763:5784   */\n      tag_265\n      jump\t// in\n    tag_360:\n        /* \"#utility.yul\":5758:5761   */\n      dup3\n        /* \"#utility.yul\":5751:5785   */\n      mstore\n        /* \"#utility.yul\":5692:5791   */\n      pop\n      pop\n      jump\t// out\n        /* \"#utility.yul\":5861:6727   */\n    tag_267:\n        /* \"#utility.yul\":6004:6008   */\n      0x80\n        /* \"#utility.yul\":5999:6002   */\n      dup3\n        /* \"#utility.yul\":5995:6009   */\n      add\n        /* \"#utility.yul\":6099:6103   */\n      0x00\n        /* \"#utility.yul\":6092:6097   */\n      dup3\n        /* \"#utility.yul\":6088:6104   */\n      add\n        /* \"#utility.yul\":6082:6105   */\n      mload\n        /* \"#utility.yul\":6118:6181   */\n      tag_362\n        /* \"#utility.yul\":6175:6179   */\n      0x00\n        /* \"#utility.yul\":6170:6173   */\n      dup6\n        /* \"#utility.yul\":6166:6180   */\n      add\n        /* \"#utility.yul\":6152:6164   */\n      dup3\n        /* \"#utility.yul\":6118:6181   */\n      tag_257\n      jump\t// in\n    tag_362:\n        /* \"#utility.yul\":6019:6191   */\n      pop\n        /* \"#utility.yul\":6279:6283   */\n      0x20\n        /* \"#utility.yul\":6272:6277   */\n      dup3\n        /* \"#utility.yul\":6268:6284   */\n      add\n        /* \"#utility.yul\":6262:6285   */\n      mload\n        /* \"#utility.yul\":6298:6361   */\n      tag_363\n        /* \"#utility.yul\":6355:6359   */\n      0x20\n        /* \"#utility.yul\":6350:6353   */\n      dup6\n        /* \"#utility.yul\":6346:6360   */\n      add\n        /* \"#utility.yul\":6332:6344   */\n      dup3\n        /* \"#utility.yul\":6298:6361   */\n      tag_257\n      jump\t// in\n    tag_363:\n        /* \"#utility.yul\":6201:6371   */\n      pop\n        /* \"#utility.yul\":6457:6461   */\n      0x40\n        /* \"#utility.yul\":6450:6455   */\n      dup3\n        /* \"#utility.yul\":6446:6462   */\n      add\n        /* \"#utility.yul\":6440:6463   */\n      mload\n        /* \"#utility.yul\":6476:6539   */\n      tag_364\n        /* \"#utility.yul\":6533:6537   */\n      0x40\n        /* \"#utility.yul\":6528:6531   */\n      dup6\n        /* \"#utility.yul\":6524:6538   */\n      add\n        /* \"#utility.yul\":6510:6522   */\n      dup3\n        /* \"#utility.yul\":6476:6539   */\n      tag_257\n      jump\t// in\n    tag_364:\n        /* \"#utility.yul\":6381:6549   */\n      pop\n        /* \"#utility.yul\":6634:6638   */\n      0x60\n        /* \"#utility.yul\":6627:6632   */\n      dup3\n        /* \"#utility.yul\":6623:6639   */\n      add\n        /* \"#utility.yul\":6617:6640   */\n      mload\n        /* \"#utility.yul\":6653:6710   */\n      tag_365\n        /* \"#utility.yul\":6704:6708   */\n      0x60\n        /* \"#utility.yul\":6699:6702   */\n      dup6\n        /* \"#utility.yul\":6695:6709   */\n      add\n        /* \"#utility.yul\":6681:6693   */\n      dup3\n        /* \"#utility.yul\":6653:6710   */\n      tag_266\n      jump\t// in\n    tag_365:\n        /* \"#utility.yul\":6559:6720   */\n      pop\n        /* \"#utility.yul\":5973:6727   */\n      pop\n        /* \"#utility.yul\":5861:6727   */\n      pop\n      pop\n      jump\t// out\n        /* \"#utility.yul\":6733:7024   */\n    tag_268:\n        /* \"#utility.yul\":6858:6868   */\n      0x00\n        /* \"#utility.yul\":6879:6981   */\n      tag_367\n        /* \"#utility.yul\":6977:6980   */\n      dup4\n        /* \"#utility.yul\":6969:6975   */\n      dup4\n        /* \"#utility.yul\":6879:6981   */\n      tag_267\n      jump\t// in\n    tag_367:\n        /* \"#utility.yul\":7013:7017   */\n      0x80\n        /* \"#utility.yul\":7008:7011   */\n      dup4\n        /* \"#utility.yul\":7004:7018   */\n      add\n        /* \"#utility.yul\":6990:7018   */\n      swap1\n      pop\n        /* \"#utility.yul\":6733:7024   */\n      swap3\n      swap2\n      pop\n      pop\n      jump\t// out\n        /* \"#utility.yul\":7030:7171   */\n    tag_269:\n        /* \"#utility.yul\":7128:7132   */\n      0x00\n        /* \"#utility.yul\":7160:7164   */\n      0x20\n        /* \"#utility.yul\":7155:7158   */\n      dup3\n        /* \"#utility.yul\":7151:7165   */\n      add\n        /* \"#utility.yul\":7143:7165   */\n      swap1\n      pop\n        /* \"#utility.yul\":7030:7171   */\n      swap2\n      swap1\n      pop\n      jump\t// out\n        /* \"#utility.yul\":7245:8201   */\n    tag_270:\n        /* \"#utility.yul\":7420:7423   */\n      0x00\n        /* \"#utility.yul\":7449:7531   */\n      tag_370\n        /* \"#utility.yul\":7525:7530   */\n      dup3\n        /* \"#utility.yul\":7449:7531   */\n      tag_262\n      jump\t// in\n    tag_370:\n        /* \"#utility.yul\":7547:7661   */\n      tag_371\n        /* \"#utility.yul\":7654:7660   */\n      dup2\n        /* \"#utility.yul\":7649:7652   */\n      dup6\n        /* \"#utility.yul\":7547:7661   */\n      tag_263\n      jump\t// in\n    tag_371:\n        /* \"#utility.yul\":7540:7661   */\n      swap4\n      pop\n        /* \"#utility.yul\":7685:7769   */\n      tag_372\n        /* \"#utility.yul\":7763:7768   */\n      dup4\n        /* \"#utility.yul\":7685:7769   */\n      tag_264\n      jump\t// in\n    tag_372:\n        /* \"#utility.yul\":7792:7799   */\n      dup1\n        /* \"#utility.yul\":7823:7824   */\n      0x00\n        /* \"#utility.yul\":7808:8176   */\n    tag_373:\n        /* \"#utility.yul\":7833:7839   */\n      dup4\n        /* \"#utility.yul\":7830:7831   */\n      dup2\n        /* \"#utility.yul\":7827:7840   */\n      lt\n        /* \"#utility.yul\":7808:8176   */\n      iszero\n      tag_375\n      jumpi\n        /* \"#utility.yul\":7909:7915   */\n      dup2\n        /* \"#utility.yul\":7903:7916   */\n      mload\n        /* \"#utility.yul\":7936:8055   */\n      tag_376\n        /* \"#utility.yul\":8051:8054   */\n      dup9\n        /* \"#utility.yul\":8036:8049   */\n      dup3\n        /* \"#utility.yul\":7936:8055   */\n      tag_268\n      jump\t// in\n    tag_376:\n        /* \"#utility.yul\":7929:8055   */\n      swap8\n      pop\n        /* \"#utility.yul\":8078:8166   */\n      tag_377\n        /* \"#utility.yul\":8159:8165   */\n      dup4\n        /* \"#utility.yul\":8078:8166   */\n      tag_269\n      jump\t// in\n    tag_377:\n        /* \"#utility.yul\":8068:8166   */\n      swap3\n      pop\n        /* \"#utility.yul\":7868:8176   */\n      pop\n        /* \"#utility.yul\":7855:7856   */\n      0x01\n        /* \"#utility.yul\":7852:7853   */\n      dup2\n        /* \"#utility.yul\":7848:7857   */\n      add\n        /* \"#utility.yul\":7843:7857   */\n      swap1\n      pop\n        /* \"#utility.yul\":7808:8176   */\n      jump(tag_373)\n    tag_375:\n        /* \"#utility.yul\":7812:7826   */\n      pop\n        /* \"#utility.yul\":8192:8195   */\n      dup6\n        /* \"#utility.yul\":8185:8195   */\n      swap4\n      pop\n        /* \"#utility.yul\":7425:8201   */\n      pop\n      pop\n      pop\n        /* \"#utility.yul\":7245:8201   */\n      swap3\n      swap2\n      pop\n      pop\n      jump\t// out\n        /* \"#utility.yul\":8207:8953   */\n    tag_63:\n        /* \"#utility.yul\":8484:8488   */\n      0x00\n        /* \"#utility.yul\":8522:8524   */\n      0x40\n        /* \"#utility.yul\":8511:8520   */\n      dup3\n        /* \"#utility.yul\":8507:8525   */\n      add\n        /* \"#utility.yul\":8499:8525   */\n      swap1\n      pop\n        /* \"#utility.yul\":8571:8580   */\n      dup2\n        /* \"#utility.yul\":8565:8569   */\n      dup2\n        /* \"#utility.yul\":8561:8581   */\n      sub\n        /* \"#utility.yul\":8557:8558   */\n      0x00\n        /* \"#utility.yul\":8546:8555   */\n      dup4\n        /* \"#utility.yul\":8542:8559   */\n      add\n        /* \"#utility.yul\":8535:8582   */\n      mstore\n        /* \"#utility.yul\":8599:8707   */\n      tag_379\n        /* \"#utility.yul\":8702:8706   */\n      dup2\n        /* \"#utility.yul\":8693:8699   */\n      dup6\n        /* \"#utility.yul\":8599:8707   */\n      tag_260\n      jump\t// in\n    tag_379:\n        /* \"#utility.yul\":8591:8707   */\n      swap1\n      pop\n        /* \"#utility.yul\":8754:8763   */\n      dup2\n        /* \"#utility.yul\":8748:8752   */\n      dup2\n        /* \"#utility.yul\":8744:8764   */\n      sub\n        /* \"#utility.yul\":8739:8741   */\n      0x20\n        /* \"#utility.yul\":8728:8737   */\n      dup4\n        /* \"#utility.yul\":8724:8742   */\n      add\n        /* \"#utility.yul\":8717:8765   */\n      mstore\n        /* \"#utility.yul\":8782:8946   */\n      tag_380\n        /* \"#utility.yul\":8941:8945   */\n      dup2\n        /* \"#utility.yul\":8932:8938   */\n      dup5\n        /* \"#utility.yul\":8782:8946   */\n      tag_270\n      jump\t// in\n    tag_380:\n        /* \"#utility.yul\":8774:8946   */\n      swap1\n      pop\n        /* \"#utility.yul\":8207:8953   */\n      swap4\n      swap3\n      pop\n      pop\n      pop\n      jump\t// out\n        /* \"#utility.yul\":8959:9068   */\n    tag_271:\n        /* \"#utility.yul\":9040:9061   */\n      tag_382\n        /* \"#utility.yul\":9055:9060   */\n      dup2\n        /* \"#utility.yul\":9040:9061   */\n      tag_265\n      jump\t// in\n    tag_382:\n        /* \"#utility.yul\":9035:9038   */\n      dup3\n        /* \"#utility.yul\":9028:9062   */\n      mstore\n        /* \"#utility.yul\":8959:9068   */\n      pop\n      pop\n      jump\t// out\n        /* \"#utility.yul\":9074:9615   */\n    tag_71:\n        /* \"#utility.yul\":9245:9249   */\n      0x00\n        /* \"#utility.yul\":9283:9286   */\n      0x80\n        /* \"#utility.yul\":9272:9281   */\n      dup3\n        /* \"#utility.yul\":9268:9287   */\n      add\n        /* \"#utility.yul\":9260:9287   */\n      swap1\n      pop\n        /* \"#utility.yul\":9297:9368   */\n      tag_384\n        /* \"#utility.yul\":9365:9366   */\n      0x00\n        /* \"#utility.yul\":9354:9363   */\n      dup4\n        /* \"#utility.yul\":9350:9367   */\n      add\n        /* \"#utility.yul\":9341:9347   */\n      dup8\n        /* \"#utility.yul\":9297:9368   */\n      tag_251\n      jump\t// in\n    tag_384:\n        /* \"#utility.yul\":9378:9450   */\n      tag_385\n        /* \"#utility.yul\":9446:9448   */\n      0x20\n        /* \"#utility.yul\":9435:9444   */\n      dup4\n        /* \"#utility.yul\":9431:9449   */\n      add\n        /* \"#utility.yul\":9422:9428   */\n      dup7\n        /* \"#utility.yul\":9378:9450   */\n      tag_251\n      jump\t// in\n    tag_385:\n        /* \"#utility.yul\":9460:9532   */\n      tag_386\n        /* \"#utility.yul\":9528:9530   */\n      0x40\n        /* \"#utility.yul\":9517:9526   */\n      dup4\n        /* \"#utility.yul\":9513:9531   */\n      add\n        /* \"#utility.yul\":9504:9510   */\n      dup6\n        /* \"#utility.yul\":9460:9532   */\n      tag_251\n      jump\t// in\n    tag_386:\n        /* \"#utility.yul\":9542:9608   */\n      tag_387\n        /* \"#utility.yul\":9604:9606   */\n      0x60\n        /* \"#utility.yul\":9593:9602   */\n      dup4\n        /* \"#utility.yul\":9589:9607   */\n      add\n        /* \"#utility.yul\":9580:9586   */\n      dup5\n        /* \"#utility.yul\":9542:9608   */\n      tag_271\n      jump\t// in\n    tag_387:\n        /* \"#utility.yul\":9074:9615   */\n      swap6\n      swap5\n      pop\n      pop\n      pop\n      pop\n      pop\n      jump\t// out\n        /* \"#utility.yul\":9621:9681   */\n    tag_272:\n        /* \"#utility.yul\":9649:9652   */\n      0x00\n        /* \"#utility.yul\":9670:9675   */\n      dup2\n        /* \"#utility.yul\":9663:9675   */\n      swap1\n      pop\n        /* \"#utility.yul\":9621:9681   */\n      swap2\n      swap1\n      pop\n      jump\t// out\n        /* \"#utility.yul\":9687:9829   */\n    tag_273:\n        /* \"#utility.yul\":9737:9746   */\n      0x00\n        /* \"#utility.yul\":9770:9823   */\n      tag_390\n        /* \"#utility.yul\":9788:9822   */\n      tag_391\n        /* \"#utility.yul\":9797:9821   */\n      tag_392\n        /* \"#utility.yul\":9815:9820   */\n      dup5\n        /* \"#utility.yul\":9797:9821   */\n      tag_246\n      jump\t// in\n    tag_392:\n        /* \"#utility.yul\":9788:9822   */\n      tag_272\n      jump\t// in\n    tag_391:\n        /* \"#utility.yul\":9770:9823   */\n      tag_246\n      jump\t// in\n    tag_390:\n        /* \"#utility.yul\":9757:9823   */\n      swap1\n      pop\n        /* \"#utility.yul\":9687:9829   */\n      swap2\n      swap1\n      pop\n      jump\t// out\n        /* \"#utility.yul\":9835:9961   */\n    tag_274:\n        /* \"#utility.yul\":9885:9894   */\n      0x00\n        /* \"#utility.yul\":9918:9955   */\n      tag_394\n        /* \"#utility.yul\":9949:9954   */\n      dup3\n        /* \"#utility.yul\":9918:9955   */\n      tag_273\n      jump\t// in\n    tag_394:\n        /* \"#utility.yul\":9905:9955   */\n      swap1\n      pop\n        /* \"#utility.yul\":9835:9961   */\n      swap2\n      swap1\n      pop\n      jump\t// out\n        /* \"#utility.yul\":9967:10106   */\n    tag_275:\n        /* \"#utility.yul\":10030:10039   */\n      0x00\n        /* \"#utility.yul\":10063:10100   */\n      tag_396\n        /* \"#utility.yul\":10094:10099   */\n      dup3\n        /* \"#utility.yul\":10063:10100   */\n      tag_274\n      jump\t// in\n    tag_396:\n        /* \"#utility.yul\":10050:10100   */\n      swap1\n      pop\n        /* \"#utility.yul\":9967:10106   */\n      swap2\n      swap1\n      pop\n      jump\t// out\n        /* \"#utility.yul\":10112:10269   */\n    tag_276:\n        /* \"#utility.yul\":10212:10262   */\n      tag_398\n        /* \"#utility.yul\":10256:10261   */\n      dup2\n        /* \"#utility.yul\":10212:10262   */\n      tag_275\n      jump\t// in\n    tag_398:\n        /* \"#utility.yul\":10207:10210   */\n      dup3\n        /* \"#utility.yul\":10200:10263   */\n      mstore\n        /* \"#utility.yul\":10112:10269   */\n      pop\n      pop\n      jump\t// out\n        /* \"#utility.yul\":10275:10523   */\n    tag_81:\n        /* \"#utility.yul\":10381:10385   */\n      0x00\n        /* \"#utility.yul\":10419:10421   */\n      0x20\n        /* \"#utility.yul\":10408:10417   */\n      dup3\n        /* \"#utility.yul\":10404:10422   */\n      add\n        /* \"#utility.yul\":10396:10422   */\n      swap1\n      pop\n        /* \"#utility.yul\":10432:10516   */\n      tag_400\n        /* \"#utility.yul\":10513:10514   */\n      0x00\n        /* \"#utility.yul\":10502:10511   */\n      dup4\n        /* \"#utility.yul\":10498:10515   */\n      add\n        /* \"#utility.yul\":10489:10495   */\n      dup5\n        /* \"#utility.yul\":10432:10516   */\n      tag_276\n      jump\t// in\n    tag_400:\n        /* \"#utility.yul\":10275:10523   */\n      swap3\n      swap2\n      pop\n      pop\n      jump\t// out\n        /* \"#utility.yul\":10529:10709   */\n    tag_277:\n        /* \"#utility.yul\":10577:10654   */\n      0x4e487b7100000000000000000000000000000000000000000000000000000000\n        /* \"#utility.yul\":10574:10575   */\n      0x00\n        /* \"#utility.yul\":10567:10655   */\n      mstore\n        /* \"#utility.yul\":10674:10678   */\n      0x11\n        /* \"#utility.yul\":10671:10672   */\n      0x04\n        /* \"#utility.yul\":10664:10679   */\n      mstore\n        /* \"#utility.yul\":10698:10702   */\n      0x24\n        /* \"#utility.yul\":10695:10696   */\n      0x00\n        /* \"#utility.yul\":10688:10703   */\n      revert\n        /* \"#utility.yul\":10715:10948   */\n    tag_91:\n        /* \"#utility.yul\":10754:10757   */\n      0x00\n        /* \"#utility.yul\":10777:10801   */\n      tag_403\n        /* \"#utility.yul\":10795:10800   */\n      dup3\n        /* \"#utility.yul\":10777:10801   */\n      tag_250\n      jump\t// in\n    tag_403:\n        /* \"#utility.yul\":10768:10801   */\n      swap2\n      pop\n        /* \"#utility.yul\":10823:10889   */\n      0xffffffffffffffffffffffffffffffffffffffffffffffffffffffffffffffff\n        /* \"#utility.yul\":10816:10821   */\n      dup3\n        /* \"#utility.yul\":10813:10890   */\n      sub\n        /* \"#utility.yul\":10810:10913   */\n      tag_404\n      jumpi\n        /* \"#utility.yul\":10893:10911   */\n      tag_405\n      tag_277\n      jump\t// in\n    tag_405:\n        /* \"#utility.yul\":10810:10913   */\n    tag_404:\n        /* \"#utility.yul\":10940:10941   */\n      0x01\n        /* \"#utility.yul\":10933:10938   */\n      dup3\n        /* \"#utility.yul\":10929:10942   */\n      add\n        /* \"#utility.yul\":10922:10942   */\n      swap1\n      pop\n        /* \"#utility.yul\":10715:10948   */\n      swap2\n      swap1\n      pop\n      jump\t// out\n        /* \"#utility.yul\":10954:11134   */\n    tag_95:\n        /* \"#utility.yul\":11002:11079   */\n      0x4e487b7100000000000000000000000000000000000000000000000000000000\n        /* \"#utility.yul\":10999:11000   */\n      0x00\n        /* \"#utility.yul\":10992:11080   */\n      mstore\n        /* \"#utility.yul\":11099:11103   */\n      0x41\n        /* \"#utility.yul\":11096:11097   */\n      0x04\n        /* \"#utility.yul\":11089:11104   */\n      mstore\n        /* \"#utility.yul\":11123:11127   */\n      0x24\n        /* \"#utility.yul\":11120:11121   */\n      0x00\n        /* \"#utility.yul\":11113:11128   */\n      revert\n        /* \"#utility.yul\":11140:11320   */\n    tag_104:\n        /* \"#utility.yul\":11188:11265   */\n      0x4e487b7100000000000000000000000000000000000000000000000000000000\n        /* \"#utility.yul\":11185:11186   */\n      0x00\n        /* \"#utility.yul\":11178:11266   */\n      mstore\n        /* \"#utility.yul\":11285:11289   */\n      0x32\n        /* \"#utility.yul\":11282:11283   */\n      0x04\n        /* \"#utility.yul\":11275:11290   */\n      mstore\n        /* \"#utility.yul\":11309:11313   */\n      0x24\n        /* \"#utility.yul\":11306:11307   */\n      0x00\n        /* \"#utility.yul\":11299:11314   */\n      revert\n        /* \"#utility.yul\":11326:11495   */\n    tag_278:\n        /* \"#utility.yul\":11410:11421   */\n      0x00\n        /* \"#utility.yul\":11444:11450   */\n      dup3\n        /* \"#utility.yul\":11439:11442   */\n      dup3\n        /* \"#utility.yul\":11432:11451   */\n      mstore\n        /* \"#utility.yul\":11484:11488   */\n      0x20\n        /* \"#utility.yul\":11479:11482   */\n      dup3\n        /* \"#utility.yul\":11475:11489   */\n      add\n        /* \"#utility.yul\":11460:11489   */\n      swap1\n      pop\n        /* \"#utility.yul\":11326:11495   */\n      swap3\n      swap2\n      pop\n      pop\n      jump\t// out\n        /* \"#utility.yul\":11501:11667   */\n    tag_279:\n        /* \"#utility.yul\":11641:11659   */\n      0x4e6f20616d6f756e74207374616b656400000000000000000000000000000000\n        /* \"#utility.yul\":11637:11638   */\n      0x00\n        /* \"#utility.yul\":11629:11635   */\n      dup3\n        /* \"#utility.yul\":11625:11639   */\n      add\n        /* \"#utility.yul\":11618:11660   */\n      mstore\n        /* \"#utility.yul\":11501:11667   */\n      pop\n      jump\t// out\n        /* \"#utility.yul\":11673:12039   */\n    tag_280:\n        /* \"#utility.yul\":11815:11818   */\n      0x00\n        /* \"#utility.yul\":11836:11903   */\n      tag_411\n        /* \"#utility.yul\":11900:11902   */\n      0x10\n        /* \"#utility.yul\":11895:11898   */\n      dup4\n        /* \"#utility.yul\":11836:11903   */\n      tag_278\n      jump\t// in\n    tag_411:\n        /* \"#utility.yul\":11829:11903   */\n      swap2\n      pop\n        /* \"#utility.yul\":11912:12005   */\n      tag_412\n        /* \"#utility.yul\":12001:12004   */\n      dup3\n        /* \"#utility.yul\":11912:12005   */\n      tag_279\n      jump\t// in\n    tag_412:\n        /* \"#utility.yul\":12030:12032   */\n      0x20\n        /* \"#utility.yul\":12025:12028   */\n      dup3\n        /* \"#utility.yul\":12021:12033   */\n      add\n        /* \"#utility.yul\":12014:12033   */\n      swap1\n      pop\n        /* \"#utility.yul\":11673:12039   */\n      swap2\n      swap1\n      pop\n      jump\t// out\n        /* \"#utility.yul\":12045:12464   */\n    tag_111:\n        /* \"#utility.yul\":12211:12215   */\n      0x00\n        /* \"#utility.yul\":12249:12251   */\n      0x20\n        /* \"#utility.yul\":12238:12247   */\n      dup3\n        /* \"#utility.yul\":12234:12252   */\n      add\n        /* \"#utility.yul\":12226:12252   */\n      swap1\n      pop\n        /* \"#utility.yul\":12298:12307   */\n      dup2\n        /* \"#utility.yul\":12292:12296   */\n      dup2\n        /* \"#utility.yul\":12288:12308   */\n      sub\n        /* \"#utility.yul\":12284:12285   */\n      0x00\n        /* \"#utility.yul\":12273:12282   */\n      dup4\n        /* \"#utility.yul\":12269:12286   */\n      add\n        /* \"#utility.yul\":12262:12309   */\n      mstore\n        /* \"#utility.yul\":12326:12457   */\n      tag_414\n        /* \"#utility.yul\":12452:12456   */\n      dup2\n        /* \"#utility.yul\":12326:12457   */\n      tag_280\n      jump\t// in\n    tag_414:\n        /* \"#utility.yul\":12318:12457   */\n      swap1\n      pop\n        /* \"#utility.yul\":12045:12464   */\n      swap2\n      swap1\n      pop\n      jump\t// out\n        /* \"#utility.yul\":12470:12802   */\n    tag_121:\n        /* \"#utility.yul\":12591:12595   */\n      0x00\n        /* \"#utility.yul\":12629:12631   */\n      0x40\n        /* \"#utility.yul\":12618:12627   */\n      dup3\n        /* \"#utility.yul\":12614:12632   */\n      add\n        /* \"#utility.yul\":12606:12632   */\n      swap1\n      pop\n        /* \"#utility.yul\":12642:12713   */\n      tag_416\n        /* \"#utility.yul\":12710:12711   */\n      0x00\n        /* \"#utility.yul\":12699:12708   */\n      dup4\n        /* \"#utility.yul\":12695:12712   */\n      add\n        /* \"#utility.yul\":12686:12692   */\n      dup6\n        /* \"#utility.yul\":12642:12713   */\n      tag_261\n      jump\t// in\n    tag_416:\n        /* \"#utility.yul\":12723:12795   */\n      tag_417\n        /* \"#utility.yul\":12791:12793   */\n      0x20\n        /* \"#utility.yul\":12780:12789   */\n      dup4\n        /* \"#utility.yul\":12776:12794   */\n      add\n        /* \"#utility.yul\":12767:12773   */\n      dup5\n        /* \"#utility.yul\":12723:12795   */\n      tag_251\n      jump\t// in\n    tag_417:\n        /* \"#utility.yul\":12470:12802   */\n      swap4\n      swap3\n      pop\n      pop\n      pop\n      jump\t// out\n        /* \"#utility.yul\":12808:12924   */\n    tag_281:\n        /* \"#utility.yul\":12878:12899   */\n      tag_419\n        /* \"#utility.yul\":12893:12898   */\n      dup2\n        /* \"#utility.yul\":12878:12899   */\n      tag_265\n      jump\t// in\n    tag_419:\n        /* \"#utility.yul\":12871:12876   */\n      dup2\n        /* \"#utility.yul\":12868:12900   */\n      eq\n        /* \"#utility.yul\":12858:12918   */\n      tag_420\n      jumpi\n        /* \"#utility.yul\":12914:12915   */\n      0x00\n        /* \"#utility.yul\":12911:12912   */\n      dup1\n        /* \"#utility.yul\":12904:12916   */\n      revert\n        /* \"#utility.yul\":12858:12918   */\n    tag_420:\n        /* \"#utility.yul\":12808:12924   */\n      pop\n      jump\t// out\n        /* \"#utility.yul\":12930:13067   */\n    tag_282:\n        /* \"#utility.yul\":12984:12989   */\n      0x00\n        /* \"#utility.yul\":13015:13021   */\n      dup2\n        /* \"#utility.yul\":13009:13022   */\n      mload\n        /* \"#utility.yul\":13000:13022   */\n      swap1\n      pop\n        /* \"#utility.yul\":13031:13061   */\n      tag_422\n        /* \"#utility.yul\":13055:13060   */\n      dup2\n        /* \"#utility.yul\":13031:13061   */\n      tag_281\n      jump\t// in\n    tag_422:\n        /* \"#utility.yul\":12930:13067   */\n      swap3\n      swap2\n      pop\n      pop\n      jump\t// out\n        /* \"#utility.yul\":13073:13418   */\n    tag_125:\n        /* \"#utility.yul\":13140:13146   */\n      0x00\n        /* \"#utility.yul\":13189:13191   */\n      0x20\n        /* \"#utility.yul\":13177:13186   */\n      dup3\n        /* \"#utility.yul\":13168:13175   */\n      dup5\n        /* \"#utility.yul\":13164:13187   */\n      sub\n        /* \"#utility.yul\":13160:13192   */\n      slt\n        /* \"#utility.yul\":13157:13276   */\n      iszero\n      tag_424\n      jumpi\n        /* \"#utility.yul\":13195:13274   */\n      tag_425\n      tag_244\n      jump\t// in\n    tag_425:\n        /* \"#utility.yul\":13157:13276   */\n    tag_424:\n        /* \"#utility.yul\":13315:13316   */\n      0x00\n        /* \"#utility.yul\":13340:13401   */\n      tag_426\n        /* \"#utility.yul\":13393:13400   */\n      dup5\n        /* \"#utility.yul\":13384:13390   */\n      dup3\n        /* \"#utility.yul\":13373:13382   */\n      dup6\n        /* \"#utility.yul\":13369:13391   */\n      add\n        /* \"#utility.yul\":13340:13401   */\n      tag_282\n      jump\t// in\n    tag_426:\n        /* \"#utility.yul\":13330:13401   */\n      swap2\n      pop\n        /* \"#utility.yul\":13286:13411   */\n      pop\n        /* \"#utility.yul\":13073:13418   */\n      swap3\n      swap2\n      pop\n      pop\n      jump\t// out\n        /* \"#utility.yul\":13424:13606   */\n    tag_283:\n        /* \"#utility.yul\":13564:13598   */\n      0x4d757374207374616b65206d6f7265207468616e207a65726f20746f6b656e73\n        /* \"#utility.yul\":13560:13561   */\n      0x00\n        /* \"#utility.yul\":13552:13558   */\n      dup3\n        /* \"#utility.yul\":13548:13562   */\n      add\n        /* \"#utility.yul\":13541:13599   */\n      mstore\n        /* \"#utility.yul\":13424:13606   */\n      pop\n      jump\t// out\n        /* \"#utility.yul\":13612:13978   */\n    tag_284:\n        /* \"#utility.yul\":13754:13757   */\n      0x00\n        /* \"#utility.yul\":13775:13842   */\n      tag_429\n        /* \"#utility.yul\":13839:13841   */\n      0x20\n        /* \"#utility.yul\":13834:13837   */\n      dup4\n        /* \"#utility.yul\":13775:13842   */\n      tag_278\n      jump\t// in\n    tag_429:\n        /* \"#utility.yul\":13768:13842   */\n      swap2\n      pop\n        /* \"#utility.yul\":13851:13944   */\n      tag_430\n        /* \"#utility.yul\":13940:13943   */\n      dup3\n        /* \"#utility.yul\":13851:13944   */\n      tag_283\n      jump\t// in\n    tag_430:\n        /* \"#utility.yul\":13969:13971   */\n      0x20\n        /* \"#utility.yul\":13964:13967   */\n      dup3\n        /* \"#utility.yul\":13960:13972   */\n      add\n        /* \"#utility.yul\":13953:13972   */\n      swap1\n      pop\n        /* \"#utility.yul\":13612:13978   */\n      swap2\n      swap1\n      pop\n      jump\t// out\n        /* \"#utility.yul\":13984:14403   */\n    tag_136:\n        /* \"#utility.yul\":14150:14154   */\n      0x00\n        /* \"#utility.yul\":14188:14190   */\n      0x20\n        /* \"#utility.yul\":14177:14186   */\n      dup3\n        /* \"#utility.yul\":14173:14191   */\n      add\n        /* \"#utility.yul\":14165:14191   */\n      swap1\n      pop\n        /* \"#utility.yul\":14237:14246   */\n      dup2\n        /* \"#utility.yul\":14231:14235   */\n      dup2\n        /* \"#utility.yul\":14227:14247   */\n      sub\n        /* \"#utility.yul\":14223:14224   */\n      0x00\n        /* \"#utility.yul\":14212:14221   */\n      dup4\n        /* \"#utility.yul\":14208:14225   */\n      add\n        /* \"#utility.yul\":14201:14248   */\n      mstore\n        /* \"#utility.yul\":14265:14396   */\n      tag_432\n        /* \"#utility.yul\":14391:14395   */\n      dup2\n        /* \"#utility.yul\":14265:14396   */\n      tag_284\n      jump\t// in\n    tag_432:\n        /* \"#utility.yul\":14257:14396   */\n      swap1\n      pop\n        /* \"#utility.yul\":13984:14403   */\n      swap2\n      swap1\n      pop\n      jump\t// out\n        /* \"#utility.yul\":14409:14552   */\n    tag_285:\n        /* \"#utility.yul\":14466:14471   */\n      0x00\n        /* \"#utility.yul\":14497:14503   */\n      dup2\n        /* \"#utility.yul\":14491:14504   */\n      mload\n        /* \"#utility.yul\":14482:14504   */\n      swap1\n      pop\n        /* \"#utility.yul\":14513:14546   */\n      tag_434\n        /* \"#utility.yul\":14540:14545   */\n      dup2\n        /* \"#utility.yul\":14513:14546   */\n      tag_252\n      jump\t// in\n    tag_434:\n        /* \"#utility.yul\":14409:14552   */\n      swap3\n      swap2\n      pop\n      pop\n      jump\t// out\n        /* \"#utility.yul\":14558:14909   */\n    tag_141:\n        /* \"#utility.yul\":14628:14634   */\n      0x00\n        /* \"#utility.yul\":14677:14679   */\n      0x20\n        /* \"#utility.yul\":14665:14674   */\n      dup3\n        /* \"#utility.yul\":14656:14663   */\n      dup5\n        /* \"#utility.yul\":14652:14675   */\n      sub\n        /* \"#utility.yul\":14648:14680   */\n      slt\n        /* \"#utility.yul\":14645:14764   */\n      iszero\n      tag_436\n      jumpi\n        /* \"#utility.yul\":14683:14762   */\n      tag_437\n      tag_244\n      jump\t// in\n    tag_437:\n        /* \"#utility.yul\":14645:14764   */\n    tag_436:\n        /* \"#utility.yul\":14803:14804   */\n      0x00\n        /* \"#utility.yul\":14828:14892   */\n      tag_438\n        /* \"#utility.yul\":14884:14891   */\n      dup5\n        /* \"#utility.yul\":14875:14881   */\n      dup3\n        /* \"#utility.yul\":14864:14873   */\n      dup6\n        /* \"#utility.yul\":14860:14882   */\n      add\n        /* \"#utility.yul\":14828:14892   */\n      tag_285\n      jump\t// in\n    tag_438:\n        /* \"#utility.yul\":14818:14892   */\n      swap2\n      pop\n        /* \"#utility.yul\":14774:14902   */\n      pop\n        /* \"#utility.yul\":14558:14909   */\n      swap3\n      swap2\n      pop\n      pop\n      jump\t// out\n        /* \"#utility.yul\":14915:15136   */\n    tag_286:\n        /* \"#utility.yul\":15055:15089   */\n      0x4e6f7420456e6f7567682042616c616e636520546f6b656e7320546f20537461\n        /* \"#utility.yul\":15051:15052   */\n      0x00\n        /* \"#utility.yul\":15043:15049   */\n      dup3\n        /* \"#utility.yul\":15039:15053   */\n      add\n        /* \"#utility.yul\":15032:15090   */\n      mstore\n        /* \"#utility.yul\":15124:15128   */\n      0x6b65000000000000000000000000000000000000000000000000000000000000\n        /* \"#utility.yul\":15119:15121   */\n      0x20\n        /* \"#utility.yul\":15111:15117   */\n      dup3\n        /* \"#utility.yul\":15107:15122   */\n      add\n        /* \"#utility.yul\":15100:15129   */\n      mstore\n        /* \"#utility.yul\":14915:15136   */\n      pop\n      jump\t// out\n        /* \"#utility.yul\":15142:15508   */\n    tag_287:\n        /* \"#utility.yul\":15284:15287   */\n      0x00\n        /* \"#utility.yul\":15305:15372   */\n      tag_441\n        /* \"#utility.yul\":15369:15371   */\n      0x22\n        /* \"#utility.yul\":15364:15367   */\n      dup4\n        /* \"#utility.yul\":15305:15372   */\n      tag_278\n      jump\t// in\n    tag_441:\n        /* \"#utility.yul\":15298:15372   */\n      swap2\n      pop\n        /* \"#utility.yul\":15381:15474   */\n      tag_442\n        /* \"#utility.yul\":15470:15473   */\n      dup3\n        /* \"#utility.yul\":15381:15474   */\n      tag_286\n      jump\t// in\n    tag_442:\n        /* \"#utility.yul\":15499:15501   */\n      0x40\n        /* \"#utility.yul\":15494:15497   */\n      dup3\n        /* \"#utility.yul\":15490:15502   */\n      add\n        /* \"#utility.yul\":15483:15502   */\n      swap1\n      pop\n        /* \"#utility.yul\":15142:15508   */\n      swap2\n      swap1\n      pop\n      jump\t// out\n        /* \"#utility.yul\":15514:15933   */\n    tag_144:\n        /* \"#utility.yul\":15680:15684   */\n      0x00\n        /* \"#utility.yul\":15718:15720   */\n      0x20\n        /* \"#utility.yul\":15707:15716   */\n      dup3\n        /* \"#utility.yul\":15703:15721   */\n      add\n        /* \"#utility.yul\":15695:15721   */\n      swap1\n      pop\n        /* \"#utility.yul\":15767:15776   */\n      dup2\n        /* \"#utility.yul\":15761:15765   */\n      dup2\n        /* \"#utility.yul\":15757:15777   */\n      sub\n        /* \"#utility.yul\":15753:15754   */\n      0x00\n        /* \"#utility.yul\":15742:15751   */\n      dup4\n        /* \"#utility.yul\":15738:15755   */\n      add\n        /* \"#utility.yul\":15731:15778   */\n      mstore\n        /* \"#utility.yul\":15795:15926   */\n      tag_444\n        /* \"#utility.yul\":15921:15925   */\n      dup2\n        /* \"#utility.yul\":15795:15926   */\n      tag_287\n      jump\t// in\n    tag_444:\n        /* \"#utility.yul\":15787:15926   */\n      swap1\n      pop\n        /* \"#utility.yul\":15514:15933   */\n      swap2\n      swap1\n      pop\n      jump\t// out\n        /* \"#utility.yul\":15939:16164   */\n    tag_288:\n        /* \"#utility.yul\":16079:16113   */\n      0x54696d652063616e204f6e6c79206265206f6620322c342c362c382c3130204d\n        /* \"#utility.yul\":16075:16076   */\n      0x00\n        /* \"#utility.yul\":16067:16073   */\n      dup3\n        /* \"#utility.yul\":16063:16077   */\n      add\n        /* \"#utility.yul\":16056:16114   */\n      mstore\n        /* \"#utility.yul\":16148:16156   */\n      0x696e757465730000000000000000000000000000000000000000000000000000\n        /* \"#utility.yul\":16143:16145   */\n      0x20\n        /* \"#utility.yul\":16135:16141   */\n      dup3\n        /* \"#utility.yul\":16131:16146   */\n      add\n        /* \"#utility.yul\":16124:16157   */\n      mstore\n        /* \"#utility.yul\":15939:16164   */\n      pop\n      jump\t// out\n        /* \"#utility.yul\":16170:16536   */\n    tag_289:\n        /* \"#utility.yul\":16312:16315   */\n      0x00\n        /* \"#utility.yul\":16333:16400   */\n      tag_447\n        /* \"#utility.yul\":16397:16399   */\n      0x26\n        /* \"#utility.yul\":16392:16395   */\n      dup4\n        /* \"#utility.yul\":16333:16400   */\n      tag_278\n      jump\t// in\n    tag_447:\n        /* \"#utility.yul\":16326:16400   */\n      swap2\n      pop\n        /* \"#utility.yul\":16409:16502   */\n      tag_448\n        /* \"#utility.yul\":16498:16501   */\n      dup3\n        /* \"#utility.yul\":16409:16502   */\n      tag_288\n      jump\t// in\n    tag_448:\n        /* \"#utility.yul\":16527:16529   */\n      0x40\n        /* \"#utility.yul\":16522:16525   */\n      dup3\n        /* \"#utility.yul\":16518:16530   */\n      add\n        /* \"#utility.yul\":16511:16530   */\n      swap1\n      pop\n        /* \"#utility.yul\":16170:16536   */\n      swap2\n      swap1\n      pop\n      jump\t// out\n        /* \"#utility.yul\":16542:16961   */\n    tag_151:\n        /* \"#utility.yul\":16708:16712   */\n      0x00\n        /* \"#utility.yul\":16746:16748   */\n      0x20\n        /* \"#utility.yul\":16735:16744   */\n      dup3\n        /* \"#utility.yul\":16731:16749   */\n      add\n        /* \"#utility.yul\":16723:16749   */\n      swap1\n      pop\n        /* \"#utility.yul\":16795:16804   */\n      dup2\n        /* \"#utility.yul\":16789:16793   */\n      dup2\n        /* \"#utility.yul\":16785:16805   */\n      sub\n        /* \"#utility.yul\":16781:16782   */\n      0x00\n        /* \"#utility.yul\":16770:16779   */\n      dup4\n        /* \"#utility.yul\":16766:16783   */\n      add\n        /* \"#utility.yul\":16759:16806   */\n      mstore\n        /* \"#utility.yul\":16823:16954   */\n      tag_450\n        /* \"#utility.yul\":16949:16953   */\n      dup2\n        /* \"#utility.yul\":16823:16954   */\n      tag_289\n      jump\t// in\n    tag_450:\n        /* \"#utility.yul\":16815:16954   */\n      swap1\n      pop\n        /* \"#utility.yul\":16542:16961   */\n      swap2\n      swap1\n      pop\n      jump\t// out\n        /* \"#utility.yul\":16967:17409   */\n    tag_154:\n        /* \"#utility.yul\":17116:17120   */\n      0x00\n        /* \"#utility.yul\":17154:17156   */\n      0x60\n        /* \"#utility.yul\":17143:17152   */\n      dup3\n        /* \"#utility.yul\":17139:17157   */\n      add\n        /* \"#utility.yul\":17131:17157   */\n      swap1\n      pop\n        /* \"#utility.yul\":17167:17238   */\n      tag_452\n        /* \"#utility.yul\":17235:17236   */\n      0x00\n        /* \"#utility.yul\":17224:17233   */\n      dup4\n        /* \"#utility.yul\":17220:17237   */\n      add\n        /* \"#utility.yul\":17211:17217   */\n      dup7\n        /* \"#utility.yul\":17167:17238   */\n      tag_261\n      jump\t// in\n    tag_452:\n        /* \"#utility.yul\":17248:17320   */\n      tag_453\n        /* \"#utility.yul\":17316:17318   */\n      0x20\n        /* \"#utility.yul\":17305:17314   */\n      dup4\n        /* \"#utility.yul\":17301:17319   */\n      add\n        /* \"#utility.yul\":17292:17298   */\n      dup6\n        /* \"#utility.yul\":17248:17320   */\n      tag_261\n      jump\t// in\n    tag_453:\n        /* \"#utility.yul\":17330:17402   */\n      tag_454\n        /* \"#utility.yul\":17398:17400   */\n      0x40\n        /* \"#utility.yul\":17387:17396   */\n      dup4\n        /* \"#utility.yul\":17383:17401   */\n      add\n        /* \"#utility.yul\":17374:17380   */\n      dup5\n        /* \"#utility.yul\":17330:17402   */\n      tag_251\n      jump\t// in\n    tag_454:\n        /* \"#utility.yul\":16967:17409   */\n      swap5\n      swap4\n      pop\n      pop\n      pop\n      pop\n      jump\t// out\n        /* \"#utility.yul\":17415:17637   */\n    tag_290:\n        /* \"#utility.yul\":17555:17589   */\n      0x4769766520617070726f76616c2066726f6d20696e697469616c20746f207374\n        /* \"#utility.yul\":17551:17552   */\n      0x00\n        /* \"#utility.yul\":17543:17549   */\n      dup3\n        /* \"#utility.yul\":17539:17553   */\n      add\n        /* \"#utility.yul\":17532:17590   */\n      mstore\n        /* \"#utility.yul\":17624:17629   */\n      0x616b650000000000000000000000000000000000000000000000000000000000\n        /* \"#utility.yul\":17619:17621   */\n      0x20\n        /* \"#utility.yul\":17611:17617   */\n      dup3\n        /* \"#utility.yul\":17607:17622   */\n      add\n        /* \"#utility.yul\":17600:17630   */\n      mstore\n        /* \"#utility.yul\":17415:17637   */\n      pop\n      jump\t// out\n        /* \"#utility.yul\":17643:18009   */\n    tag_291:\n        /* \"#utility.yul\":17785:17788   */\n      0x00\n        /* \"#utility.yul\":17806:17873   */\n      tag_457\n        /* \"#utility.yul\":17870:17872   */\n      0x23\n        /* \"#utility.yul\":17865:17868   */\n      dup4\n        /* \"#utility.yul\":17806:17873   */\n      tag_278\n      jump\t// in\n    tag_457:\n        /* \"#utility.yul\":17799:17873   */\n      swap2\n      pop\n        /* \"#utility.yul\":17882:17975   */\n      tag_458\n        /* \"#utility.yul\":17971:17974   */\n      dup3\n        /* \"#utility.yul\":17882:17975   */\n      tag_290\n      jump\t// in\n    tag_458:\n        /* \"#utility.yul\":18000:18002   */\n      0x40\n        /* \"#utility.yul\":17995:17998   */\n      dup3\n        /* \"#utility.yul\":17991:18003   */\n      add\n        /* \"#utility.yul\":17984:18003   */\n      swap1\n      pop\n        /* \"#utility.yul\":17643:18009   */\n      swap2\n      swap1\n      pop\n      jump\t// out\n        /* \"#utility.yul\":18015:18434   */\n    tag_160:\n        /* \"#utility.yul\":18181:18185   */\n      0x00\n        /* \"#utility.yul\":18219:18221   */\n      0x20\n        /* \"#utility.yul\":18208:18217   */\n      dup3\n        /* \"#utility.yul\":18204:18222   */\n      add\n        /* \"#utility.yul\":18196:18222   */\n      swap1\n      pop\n        /* \"#utility.yul\":18268:18277   */\n      dup2\n        /* \"#utility.yul\":18262:18266   */\n      dup2\n        /* \"#utility.yul\":18258:18278   */\n      sub\n        /* \"#utility.yul\":18254:18255   */\n      0x00\n        /* \"#utility.yul\":18243:18252   */\n      dup4\n        /* \"#utility.yul\":18239:18256   */\n      add\n        /* \"#utility.yul\":18232:18279   */\n      mstore\n        /* \"#utility.yul\":18296:18427   */\n      tag_460\n        /* \"#utility.yul\":18422:18426   */\n      dup2\n        /* \"#utility.yul\":18296:18427   */\n      tag_291\n      jump\t// in\n    tag_460:\n        /* \"#utility.yul\":18288:18427   */\n      swap1\n      pop\n        /* \"#utility.yul\":18015:18434   */\n      swap2\n      swap1\n      pop\n      jump\t// out\n        /* \"#utility.yul\":18440:18631   */\n    tag_163:\n        /* \"#utility.yul\":18480:18483   */\n      0x00\n        /* \"#utility.yul\":18499:18519   */\n      tag_462\n        /* \"#utility.yul\":18517:18518   */\n      dup3\n        /* \"#utility.yul\":18499:18519   */\n      tag_250\n      jump\t// in\n    tag_462:\n        /* \"#utility.yul\":18494:18519   */\n      swap2\n      pop\n        /* \"#utility.yul\":18533:18553   */\n      tag_463\n        /* \"#utility.yul\":18551:18552   */\n      dup4\n        /* \"#utility.yul\":18533:18553   */\n      tag_250\n      jump\t// in\n    tag_463:\n        /* \"#utility.yul\":18528:18553   */\n      swap3\n      pop\n        /* \"#utility.yul\":18576:18577   */\n      dup3\n        /* \"#utility.yul\":18573:18574   */\n      dup3\n        /* \"#utility.yul\":18569:18578   */\n      add\n        /* \"#utility.yul\":18562:18578   */\n      swap1\n      pop\n        /* \"#utility.yul\":18597:18600   */\n      dup1\n        /* \"#utility.yul\":18594:18595   */\n      dup3\n        /* \"#utility.yul\":18591:18601   */\n      gt\n        /* \"#utility.yul\":18588:18624   */\n      iszero\n      tag_464\n      jumpi\n        /* \"#utility.yul\":18604:18622   */\n      tag_465\n      tag_277\n      jump\t// in\n    tag_465:\n        /* \"#utility.yul\":18588:18624   */\n    tag_464:\n        /* \"#utility.yul\":18440:18631   */\n      swap3\n      swap2\n      pop\n      pop\n      jump\t// out\n        /* \"#utility.yul\":18637:19047   */\n    tag_166:\n        /* \"#utility.yul\":18677:18684   */\n      0x00\n        /* \"#utility.yul\":18700:18720   */\n      tag_467\n        /* \"#utility.yul\":18718:18719   */\n      dup3\n        /* \"#utility.yul\":18700:18720   */\n      tag_250\n      jump\t// in\n    tag_467:\n        /* \"#utility.yul\":18695:18720   */\n      swap2\n      pop\n        /* \"#utility.yul\":18734:18754   */\n      tag_468\n        /* \"#utility.yul\":18752:18753   */\n      dup4\n        /* \"#utility.yul\":18734:18754   */\n      tag_250\n      jump\t// in\n    tag_468:\n        /* \"#utility.yul\":18729:18754   */\n      swap3\n      pop\n        /* \"#utility.yul\":18789:18790   */\n      dup3\n        /* \"#utility.yul\":18786:18787   */\n      dup3\n        /* \"#utility.yul\":18782:18791   */\n      mul\n        /* \"#utility.yul\":18811:18841   */\n      tag_469\n        /* \"#utility.yul\":18829:18840   */\n      dup2\n        /* \"#utility.yul\":18811:18841   */\n      tag_250\n      jump\t// in\n    tag_469:\n        /* \"#utility.yul\":18800:18841   */\n      swap2\n      pop\n        /* \"#utility.yul\":18990:18991   */\n      dup3\n        /* \"#utility.yul\":18981:18988   */\n      dup3\n        /* \"#utility.yul\":18977:18992   */\n      div\n        /* \"#utility.yul\":18974:18975   */\n      dup5\n        /* \"#utility.yul\":18971:18993   */\n      eq\n        /* \"#utility.yul\":18951:18952   */\n      dup4\n        /* \"#utility.yul\":18944:18953   */\n      iszero\n        /* \"#utility.yul\":18924:19007   */\n      or\n        /* \"#utility.yul\":18901:19040   */\n      tag_470\n      jumpi\n        /* \"#utility.yul\":19020:19038   */\n      tag_471\n      tag_277\n      jump\t// in\n    tag_471:\n        /* \"#utility.yul\":18901:19040   */\n    tag_470:\n        /* \"#utility.yul\":18685:19047   */\n      pop\n        /* \"#utility.yul\":18637:19047   */\n      swap3\n      swap2\n      pop\n      pop\n      jump\t// out\n        /* \"#utility.yul\":19053:19232   */\n    tag_292:\n        /* \"#utility.yul\":19193:19224   */\n      0x596f7520686176656e2774207374616b656420616e7920616d6f756e74000000\n        /* \"#utility.yul\":19189:19190   */\n      0x00\n        /* \"#utility.yul\":19181:19187   */\n      dup3\n        /* \"#utility.yul\":19177:19191   */\n      add\n        /* \"#utility.yul\":19170:19225   */\n      mstore\n        /* \"#utility.yul\":19053:19232   */\n      pop\n      jump\t// out\n        /* \"#utility.yul\":19238:19604   */\n    tag_293:\n        /* \"#utility.yul\":19380:19383   */\n      0x00\n        /* \"#utility.yul\":19401:19468   */\n      tag_474\n        /* \"#utility.yul\":19465:19467   */\n      0x1d\n        /* \"#utility.yul\":19460:19463   */\n      dup4\n        /* \"#utility.yul\":19401:19468   */\n      tag_278\n      jump\t// in\n    tag_474:\n        /* \"#utility.yul\":19394:19468   */\n      swap2\n      pop\n        /* \"#utility.yul\":19477:19570   */\n      tag_475\n        /* \"#utility.yul\":19566:19569   */\n      dup3\n        /* \"#utility.yul\":19477:19570   */\n      tag_292\n      jump\t// in\n    tag_475:\n        /* \"#utility.yul\":19595:19597   */\n      0x20\n        /* \"#utility.yul\":19590:19593   */\n      dup3\n        /* \"#utility.yul\":19586:19598   */\n      add\n        /* \"#utility.yul\":19579:19598   */\n      swap1\n      pop\n        /* \"#utility.yul\":19238:19604   */\n      swap2\n      swap1\n      pop\n      jump\t// out\n        /* \"#utility.yul\":19610:20029   */\n    tag_208:\n        /* \"#utility.yul\":19776:19780   */\n      0x00\n        /* \"#utility.yul\":19814:19816   */\n      0x20\n        /* \"#utility.yul\":19803:19812   */\n      dup3\n        /* \"#utility.yul\":19799:19817   */\n      add\n        /* \"#utility.yul\":19791:19817   */\n      swap1\n      pop\n        /* \"#utility.yul\":19863:19872   */\n      dup2\n        /* \"#utility.yul\":19857:19861   */\n      dup2\n        /* \"#utility.yul\":19853:19873   */\n      sub\n        /* \"#utility.yul\":19849:19850   */\n      0x00\n        /* \"#utility.yul\":19838:19847   */\n      dup4\n        /* \"#utility.yul\":19834:19851   */\n      add\n        /* \"#utility.yul\":19827:19874   */\n      mstore\n        /* \"#utility.yul\":19891:20022   */\n      tag_477\n        /* \"#utility.yul\":20017:20021   */\n      dup2\n        /* \"#utility.yul\":19891:20022   */\n      tag_293\n      jump\t// in\n    tag_477:\n        /* \"#utility.yul\":19883:20022   */\n      swap1\n      pop\n        /* \"#utility.yul\":19610:20029   */\n      swap2\n      swap1\n      pop\n      jump\t// out\n        /* \"#utility.yul\":20035:20203   */\n    tag_294:\n        /* \"#utility.yul\":20175:20195   */\n      0x4e6f2072657761726420746f20636c61696d0000000000000000000000000000\n        /* \"#utility.yul\":20171:20172   */\n      0x00\n        /* \"#utility.yul\":20163:20169   */\n      dup3\n        /* \"#utility.yul\":20159:20173   */\n      add\n        /* \"#utility.yul\":20152:20196   */\n      mstore\n        /* \"#utility.yul\":20035:20203   */\n      pop\n      jump\t// out\n        /* \"#utility.yul\":20209:20575   */\n    tag_295:\n        /* \"#utility.yul\":20351:20354   */\n      0x00\n        /* \"#utility.yul\":20372:20439   */\n      tag_480\n        /* \"#utility.yul\":20436:20438   */\n      0x12\n        /* \"#utility.yul\":20431:20434   */\n      dup4\n        /* \"#utility.yul\":20372:20439   */\n      tag_278\n      jump\t// in\n    tag_480:\n        /* \"#utility.yul\":20365:20439   */\n      swap2\n      pop\n        /* \"#utility.yul\":20448:20541   */\n      tag_481\n        /* \"#utility.yul\":20537:20540   */\n      dup3\n        /* \"#utility.yul\":20448:20541   */\n      tag_294\n      jump\t// in\n    tag_481:\n        /* \"#utility.yul\":20566:20568   */\n      0x20\n        /* \"#utility.yul\":20561:20564   */\n      dup3\n        /* \"#utility.yul\":20557:20569   */\n      add\n        /* \"#utility.yul\":20550:20569   */\n      swap1\n      pop\n        /* \"#utility.yul\":20209:20575   */\n      swap2\n      swap1\n      pop\n      jump\t// out\n        /* \"#utility.yul\":20581:21000   */\n    tag_221:\n        /* \"#utility.yul\":20747:20751   */\n      0x00\n        /* \"#utility.yul\":20785:20787   */\n      0x20\n        /* \"#utility.yul\":20774:20783   */\n      dup3\n        /* \"#utility.yul\":20770:20788   */\n      add\n        /* \"#utility.yul\":20762:20788   */\n      swap1\n      pop\n        /* \"#utility.yul\":20834:20843   */\n      dup2\n        /* \"#utility.yul\":20828:20832   */\n      dup2\n        /* \"#utility.yul\":20824:20844   */\n      sub\n        /* \"#utility.yul\":20820:20821   */\n      0x00\n        /* \"#utility.yul\":20809:20818   */\n      dup4\n        /* \"#utility.yul\":20805:20822   */\n      add\n        /* \"#utility.yul\":20798:20845   */\n      mstore\n        /* \"#utility.yul\":20862:20993   */\n      tag_483\n        /* \"#utility.yul\":20988:20992   */\n      dup2\n        /* \"#utility.yul\":20862:20993   */\n      tag_295\n      jump\t// in\n    tag_483:\n        /* \"#utility.yul\":20854:20993   */\n      swap1\n      pop\n        /* \"#utility.yul\":20581:21000   */\n      swap2\n      swap1\n      pop\n      jump\t// out\n        /* \"#utility.yul\":21006:21200   */\n    tag_229:\n        /* \"#utility.yul\":21046:21050   */\n      0x00\n        /* \"#utility.yul\":21066:21086   */\n      tag_485\n        /* \"#utility.yul\":21084:21085   */\n      dup3\n        /* \"#utility.yul\":21066:21086   */\n      tag_250\n      jump\t// in\n    tag_485:\n        /* \"#utility.yul\":21061:21086   */\n      swap2\n      pop\n        /* \"#utility.yul\":21100:21120   */\n      tag_486\n        /* \"#utility.yul\":21118:21119   */\n      dup4\n        /* \"#utility.yul\":21100:21120   */\n      tag_250\n      jump\t// in\n    tag_486:\n        /* \"#utility.yul\":21095:21120   */\n      swap3\n      pop\n        /* \"#utility.yul\":21144:21145   */\n      dup3\n        /* \"#utility.yul\":21141:21142   */\n      dup3\n        /* \"#utility.yul\":21137:21146   */\n      sub\n        /* \"#utility.yul\":21129:21146   */\n      swap1\n      pop\n        /* \"#utility.yul\":21168:21169   */\n      dup2\n        /* \"#utility.yul\":21162:21166   */\n      dup2\n        /* \"#utility.yul\":21159:21170   */\n      gt\n        /* \"#utility.yul\":21156:21193   */\n      iszero\n      tag_487\n      jumpi\n        /* \"#utility.yul\":21173:21191   */\n      tag_488\n      tag_277\n      jump\t// in\n    tag_488:\n        /* \"#utility.yul\":21156:21193   */\n    tag_487:\n        /* \"#utility.yul\":21006:21200   */\n      swap3\n      swap2\n      pop\n      pop\n      jump\t// out\n        /* \"#utility.yul\":21206:21386   */\n    tag_296:\n        /* \"#utility.yul\":21254:21331   */\n      0x4e487b7100000000000000000000000000000000000000000000000000000000\n        /* \"#utility.yul\":21251:21252   */\n      0x00\n        /* \"#utility.yul\":21244:21332   */\n      mstore\n        /* \"#utility.yul\":21351:21355   */\n      0x12\n        /* \"#utility.yul\":21348:21349   */\n      0x04\n        /* \"#utility.yul\":21341:21356   */\n      mstore\n        /* \"#utility.yul\":21375:21379   */\n      0x24\n        /* \"#utility.yul\":21372:21373   */\n      0x00\n        /* \"#utility.yul\":21365:21380   */\n      revert\n        /* \"#utility.yul\":21392:21577   */\n    tag_235:\n        /* \"#utility.yul\":21432:21433   */\n      0x00\n        /* \"#utility.yul\":21449:21469   */\n      tag_491\n        /* \"#utility.yul\":21467:21468   */\n      dup3\n        /* \"#utility.yul\":21449:21469   */\n      tag_250\n      jump\t// in\n    tag_491:\n        /* \"#utility.yul\":21444:21469   */\n      swap2\n      pop\n        /* \"#utility.yul\":21483:21503   */\n      tag_492\n        /* \"#utility.yul\":21501:21502   */\n      dup4\n        /* \"#utility.yul\":21483:21503   */\n      tag_250\n      jump\t// in\n    tag_492:\n        /* \"#utility.yul\":21478:21503   */\n      swap3\n      pop\n        /* \"#utility.yul\":21522:21523   */\n      dup3\n        /* \"#utility.yul\":21512:21547   */\n      tag_493\n      jumpi\n        /* \"#utility.yul\":21527:21545   */\n      tag_494\n      tag_296\n      jump\t// in\n    tag_494:\n        /* \"#utility.yul\":21512:21547   */\n    tag_493:\n        /* \"#utility.yul\":21569:21570   */\n      dup3\n        /* \"#utility.yul\":21566:21567   */\n      dup3\n        /* \"#utility.yul\":21562:21571   */\n      div\n        /* \"#utility.yul\":21557:21571   */\n      swap1\n      pop\n        /* \"#utility.yul\":21392:21577   */\n      swap3\n      swap2\n      pop\n      pop\n      jump\t// out\n\n    auxdata: 0xa26469706673582212209311e20f64dedf64c3dda104de03a3da73175c0f824924cce00ff1c9e3659e1264736f6c63430008120033\n}\n",
				"bytecode": {
					"linkReferences": {},
					"object": "608060405260016003553480156200001657600080fd5b506040516200201e3803806200201e83398181016040528101906200003c91906200012f565b80600160006101000a81548173ffffffffffffffffffffffffffffffffffffffff021916908373ffffffffffffffffffffffffffffffffffffffff16021790555033600260006101000a81548173ffffffffffffffffffffffffffffffffffffffff021916908373ffffffffffffffffffffffffffffffffffffffff1602179055505062000161565b600080fd5b600073ffffffffffffffffffffffffffffffffffffffff82169050919050565b6000620000f782620000ca565b9050919050565b6200010981620000ea565b81146200011557600080fd5b50565b6000815190506200012981620000fe565b92915050565b600060208284031215620001485762000147620000c5565b5b6000620001588482850162000118565b91505092915050565b611ead80620001716000396000f3fe608060405234801561001057600080fd5b50600436106100f55760003560e01c806390eb298111610097578063d5a44f8611610066578063d5a44f86146102ad578063d80e8700146102e0578063f3a93e80146102fe578063fc0c546a1461031a576100f5565b806390eb298114610212578063c392f76614610242578063c935297114610260578063d279c19114610291576100f5565b806378317be7116100d357806378317be71461018a5780637b0472f0146101a65780638b7afe2e146101d65780638da5cb5b146101f4576100f5565b80630700037d146100fa5780630a42f0491461012a5780632671b0d81461015a575b600080fd5b610114600480360381019061010f91906113fe565b610338565b6040516101219190611444565b60405180910390f35b610144600480360381019061013f919061148b565b610350565b6040516101519190611444565b60405180910390f35b610174600480360381019061016f91906113fe565b610370565b6040516101819190611576565b60405180910390f35b6101a4600480360381019061019f91906113fe565b610524565b005b6101c060048036038101906101bb9190611598565b61072c565b6040516101cd9190611444565b60405180910390f35b6101de610ade565b6040516101eb9190611444565b60405180910390f35b6101fc610b81565b60405161020991906115e7565b60405180910390f35b61022c6004803603810190610227919061148b565b610ba7565b60405161023991906115e7565b60405180910390f35b61024a610bda565b6040516102579190611444565b60405180910390f35b61027a600480360381019061027591906113fe565b610be0565b604051610288929190611721565b60405180910390f35b6102ab60048036038101906102a691906113fe565b610e6d565b005b6102c760048036038101906102c2919061148b565b6110ef565b6040516102d79493929190611767565b60405180910390f35b6102e861112c565b6040516102f59190611444565b60405180910390f35b6103186004803603810190610313919061148b565b611134565b005b61032261130e565b60405161032f919061180b565b60405180910390f35b60066020528060005260406000206000915090505481565b600060056000838152602001908152602001600020600101549050919050565b60606000805b6103806000611334565b811161040e578373ffffffffffffffffffffffffffffffffffffffff166004600083815260200190815260200160002060009054906101000a900473ffffffffffffffffffffffffffffffffffffffff1673ffffffffffffffffffffffffffffffffffffffff16036103fb5781806103f790611855565b9250505b808061040690611855565b915050610376565b5060008167ffffffffffffffff81111561042b5761042a61189d565b5b6040519080825280602002602001820160405280156104595781602001602082028036833780820191505090505b5090506000805b61046a6000611334565b8111610518578573ffffffffffffffffffffffffffffffffffffffff166004600083815260200190815260200160002060009054906101000a900473ffffffffffffffffffffffffffffffffffffffff1673ffffffffffffffffffffffffffffffffffffffff160361050557808383815181106104ea576104e96118cc565b5b602002602001018181525050818061050190611855565b9250505b808061051090611855565b915050610460565b50819350505050919050565b600061052f82610370565b90506000815111610575576040517f08c379a000000000000000000000000000000000000000000000000000000000815260040161056c90611958565b60405180910390fd5b60005b81518110156107275760056000838381518110610598576105976118cc565b5b6020026020010151815260200190815260200160002060030160009054906101000a900460ff1661071457600160009054906101000a900473ffffffffffffffffffffffffffffffffffffffff1673ffffffffffffffffffffffffffffffffffffffff1663a9059cbb3360056000868681518110610619576106186118cc565b5b60200260200101518152602001908152602001600020600001546040518363ffffffff1660e01b8152600401610650929190611978565b6020604051808303816000875af115801561066f573d6000803e3d6000fd5b505050506040513d601f19601f8201168201806040525081019061069391906119cd565b506000600560008484815181106106ad576106ac6118cc565b5b60200260200101518152602001908152602001600020600001819055506001600560008484815181106106e3576106e26118cc565b5b6020026020010151815260200190815260200160002060030160006101000a81548160ff0219169083151502179055505b808061071f90611855565b915050610578565b505050565b60006107386000611342565b6000831161077b576040517f08c379a000000000000000000000000000000000000000000000000000000000815260040161077290611a46565b60405180910390fd5b82600160009054906101000a900473ffffffffffffffffffffffffffffffffffffffff1673ffffffffffffffffffffffffffffffffffffffff166370a08231336040518263ffffffff1660e01b81526004016107d791906115e7565b602060405180830381865afa1580156107f4573d6000803e3d6000fd5b505050506040513d601f19601f820116820180604052508101906108189190611a7b565b1015610859576040517f08c379a000000000000000000000000000000000000000000000000000000000815260040161085090611b1a565b60405180910390fd5b60028214806108685750600482145b806108735750600682145b8061087e5750600882145b806108895750600a82145b6108c8576040517f08c379a00000000000000000000000000000000000000000000000000000000081526004016108bf90611bac565b60405180910390fd5b600042905033600460006108dc6000611334565b815260200190815260200160002060006101000a81548173ffffffffffffffffffffffffffffffffffffffff021916908373ffffffffffffffffffffffffffffffffffffffff160217905550600160009054906101000a900473ffffffffffffffffffffffffffffffffffffffff1673ffffffffffffffffffffffffffffffffffffffff166323b872dd3330876040518463ffffffff1660e01b815260040161098793929190611bcc565b6020604051808303816000875af11580156109a6573d6000803e3d6000fd5b505050506040513d601f19601f820116820180604052508101906109ca91906119cd565b610a09576040517f08c379a0000000000000000000000000000000000000000000000000000000008152600401610a0090611c75565b60405180910390fd5b8360056000610a186000611334565b81526020019081526020016000206000016000828254610a389190611c95565b925050819055508060056000610a4e6000611334565b815260200190815260200160002060010181905550603c83610a709190611cc9565b60056000610a7e6000611334565b815260200190815260200160002060020181905550600060056000610aa36000611334565b815260200190815260200160002060030160006101000a81548160ff021916908315150217905550610ad56000611334565b91505092915050565b6000600160009054906101000a900473ffffffffffffffffffffffffffffffffffffffff1673ffffffffffffffffffffffffffffffffffffffff166370a08231306040518263ffffffff1660e01b8152600401610b3b91906115e7565b602060405180830381865afa158015610b58573d6000803e3d6000fd5b505050506040513d601f19601f82011682018060405250810190610b7c9190611a7b565b905090565b600260009054906101000a900473ffffffffffffffffffffffffffffffffffffffff1681565b60046020528060005260406000206000915054906101000a900473ffffffffffffffffffffffffffffffffffffffff1681565b60035481565b6060806000805b610bf16000611334565b8111610c7f578473ffffffffffffffffffffffffffffffffffffffff166004600083815260200190815260200160002060009054906101000a900473ffffffffffffffffffffffffffffffffffffffff1673ffffffffffffffffffffffffffffffffffffffff1603610c6c578180610c6890611855565b9250505b8080610c7790611855565b915050610be7565b5060008167ffffffffffffffff811115610c9c57610c9b61189d565b5b604051908082528060200260200182016040528015610cd557816020015b610cc2611371565b815260200190600190039081610cba5790505b50905060008267ffffffffffffffff811115610cf457610cf361189d565b5b604051908082528060200260200182016040528015610d225781602001602082028036833780820191505090505b5090506000805b610d336000611334565b8111610e5d578773ffffffffffffffffffffffffffffffffffffffff166004600083815260200190815260200160002060009054906101000a900473ffffffffffffffffffffffffffffffffffffffff1673ffffffffffffffffffffffffffffffffffffffff1603610e4357600560008281526020019081526020016000206040518060800160405290816000820154815260200160018201548152602001600282015481526020016003820160009054906101000a900460ff161515151581525050848381518110610e0957610e086118cc565b5b602002602001018190525080838381518110610e2857610e276118cc565b5b6020026020010181815250508180610e3f90611855565b9250505b848211610e5d578080610e5590611855565b915050610d29565b5081839550955050505050915091565b6000610e7882610370565b90506000815111610ebe576040517f08c379a0000000000000000000000000000000000000000000000000000000008152600401610eb590611d57565b60405180910390fd5b60005b8151811015610f435760056000838381518110610ee157610ee06118cc565b5b6020026020010151815260200190815260200160002060030160009054906101000a900460ff16610f3057610f2f828281518110610f2257610f216118cc565b5b6020026020010151611134565b5b8080610f3b90611855565b915050610ec1565b506000600660008473ffffffffffffffffffffffffffffffffffffffff1673ffffffffffffffffffffffffffffffffffffffff1681526020019081526020016000205411610fc6576040517f08c379a0000000000000000000000000000000000000000000000000000000008152600401610fbd90611dc3565b60405180910390fd5b600160009054906101000a900473ffffffffffffffffffffffffffffffffffffffff1673ffffffffffffffffffffffffffffffffffffffff1663a9059cbb33600660008673ffffffffffffffffffffffffffffffffffffffff1673ffffffffffffffffffffffffffffffffffffffff168152602001908152602001600020546040518363ffffffff1660e01b8152600401611062929190611978565b6020604051808303816000875af1158015611081573d6000803e3d6000fd5b505050506040513d601f19601f820116820180604052508101906110a591906119cd565b506000600660008473ffffffffffffffffffffffffffffffffffffffff1673ffffffffffffffffffffffffffffffffffffffff168152602001908152602001600020819055505050565b60056020528060005260406000206000915090508060000154908060010154908060020154908060030160009054906101000a900460ff16905084565b600042905090565b6000429050600060056000848152602001908152602001600020600101548261115d9190611de3565b90506000611181826005600087815260200190815260200160002060020154611358565b905060648160035460056000888152602001908152602001600020600001546111aa9190611cc9565b6111b49190611cc9565b6111be9190611e46565b600660006004600088815260200190815260200160002060009054906101000a900473ffffffffffffffffffffffffffffffffffffffff1673ffffffffffffffffffffffffffffffffffffffff1673ffffffffffffffffffffffffffffffffffffffff1681526020019081526020016000205461123b9190611c95565b600660006004600088815260200190815260200160002060009054906101000a900473ffffffffffffffffffffffffffffffffffffffff1673ffffffffffffffffffffffffffffffffffffffff1673ffffffffffffffffffffffffffffffffffffffff168152602001908152602001600020819055508260056000868152602001908152602001600020600101819055508060056000868152602001908152602001600020600201546112ee9190611de3565b600560008681526020019081526020016000206002018190555050505050565b600160009054906101000a900473ffffffffffffffffffffffffffffffffffffffff1681565b600081600001549050919050565b6001816000016000828254019250508190555050565b60008183106113675781611369565b825b905092915050565b60405180608001604052806000815260200160008152602001600081526020016000151581525090565b600080fd5b600073ffffffffffffffffffffffffffffffffffffffff82169050919050565b60006113cb826113a0565b9050919050565b6113db816113c0565b81146113e657600080fd5b50565b6000813590506113f8816113d2565b92915050565b6000602082840312156114145761141361139b565b5b6000611422848285016113e9565b91505092915050565b6000819050919050565b61143e8161142b565b82525050565b60006020820190506114596000830184611435565b92915050565b6114688161142b565b811461147357600080fd5b50565b6000813590506114858161145f565b92915050565b6000602082840312156114a1576114a061139b565b5b60006114af84828501611476565b91505092915050565b600081519050919050565b600082825260208201905092915050565b6000819050602082019050919050565b6114ed8161142b565b82525050565b60006114ff83836114e4565b60208301905092915050565b6000602082019050919050565b6000611523826114b8565b61152d81856114c3565b9350611538836114d4565b8060005b8381101561156957815161155088826114f3565b975061155b8361150b565b92505060018101905061153c565b5085935050505092915050565b600060208201905081810360008301526115908184611518565b905092915050565b600080604083850312156115af576115ae61139b565b5b60006115bd85828601611476565b92505060206115ce85828601611476565b9150509250929050565b6115e1816113c0565b82525050565b60006020820190506115fc60008301846115d8565b92915050565b600081519050919050565b600082825260208201905092915050565b6000819050602082019050919050565b60008115159050919050565b6116438161162e565b82525050565b60808201600082015161165f60008501826114e4565b50602082015161167260208501826114e4565b50604082015161168560408501826114e4565b506060820151611698606085018261163a565b50505050565b60006116aa8383611649565b60808301905092915050565b6000602082019050919050565b60006116ce82611602565b6116d8818561160d565b93506116e38361161e565b8060005b838110156117145781516116fb888261169e565b9750611706836116b6565b9250506001810190506116e7565b5085935050505092915050565b6000604082019050818103600083015261173b8185611518565b9050818103602083015261174f81846116c3565b90509392505050565b6117618161162e565b82525050565b600060808201905061177c6000830187611435565b6117896020830186611435565b6117966040830185611435565b6117a36060830184611758565b95945050505050565b6000819050919050565b60006117d16117cc6117c7846113a0565b6117ac565b6113a0565b9050919050565b60006117e3826117b6565b9050919050565b60006117f5826117d8565b9050919050565b611805816117ea565b82525050565b600060208201905061182060008301846117fc565b92915050565b7f4e487b7100000000000000000000000000000000000000000000000000000000600052601160045260246000fd5b60006118608261142b565b91507fffffffffffffffffffffffffffffffffffffffffffffffffffffffffffffffff820361189257611891611826565b5b600182019050919050565b7f4e487b7100000000000000000000000000000000000000000000000000000000600052604160045260246000fd5b7f4e487b7100000000000000000000000000000000000000000000000000000000600052603260045260246000fd5b600082825260208201905092915050565b7f4e6f20616d6f756e74207374616b656400000000000000000000000000000000600082015250565b60006119426010836118fb565b915061194d8261190c565b602082019050919050565b6000602082019050818103600083015261197181611935565b9050919050565b600060408201905061198d60008301856115d8565b61199a6020830184611435565b9392505050565b6119aa8161162e565b81146119b557600080fd5b50565b6000815190506119c7816119a1565b92915050565b6000602082840312156119e3576119e261139b565b5b60006119f1848285016119b8565b91505092915050565b7f4d757374207374616b65206d6f7265207468616e207a65726f20746f6b656e73600082015250565b6000611a306020836118fb565b9150611a3b826119fa565b602082019050919050565b60006020820190508181036000830152611a5f81611a23565b9050919050565b600081519050611a758161145f565b92915050565b600060208284031215611a9157611a9061139b565b5b6000611a9f84828501611a66565b91505092915050565b7f4e6f7420456e6f7567682042616c616e636520546f6b656e7320546f2053746160008201527f6b65000000000000000000000000000000000000000000000000000000000000602082015250565b6000611b046022836118fb565b9150611b0f82611aa8565b604082019050919050565b60006020820190508181036000830152611b3381611af7565b9050919050565b7f54696d652063616e204f6e6c79206265206f6620322c342c362c382c3130204d60008201527f696e757465730000000000000000000000000000000000000000000000000000602082015250565b6000611b966026836118fb565b9150611ba182611b3a565b604082019050919050565b60006020820190508181036000830152611bc581611b89565b9050919050565b6000606082019050611be160008301866115d8565b611bee60208301856115d8565b611bfb6040830184611435565b949350505050565b7f4769766520617070726f76616c2066726f6d20696e697469616c20746f20737460008201527f616b650000000000000000000000000000000000000000000000000000000000602082015250565b6000611c5f6023836118fb565b9150611c6a82611c03565b604082019050919050565b60006020820190508181036000830152611c8e81611c52565b9050919050565b6000611ca08261142b565b9150611cab8361142b565b9250828201905080821115611cc357611cc2611826565b5b92915050565b6000611cd48261142b565b9150611cdf8361142b565b9250828202611ced8161142b565b91508282048414831517611d0457611d03611826565b5b5092915050565b7f596f7520686176656e2774207374616b656420616e7920616d6f756e74000000600082015250565b6000611d41601d836118fb565b9150611d4c82611d0b565b602082019050919050565b60006020820190508181036000830152611d7081611d34565b9050919050565b7f4e6f2072657761726420746f20636c61696d0000000000000000000000000000600082015250565b6000611dad6012836118fb565b9150611db882611d77565b602082019050919050565b60006020820190508181036000830152611ddc81611da0565b9050919050565b6000611dee8261142b565b9150611df98361142b565b9250828203905081811115611e1157611e10611826565b5b92915050565b7f4e487b7100000000000000000000000000000000000000000000000000000000600052601260045260246000fd5b6000611e518261142b565b9150611e5c8361142b565b925082611e6c57611e6b611e17565b5b82820490509291505056fea26469706673582212209311e20f64dedf64c3dda104de03a3da73175c0f824924cce00ff1c9e3659e1264736f6c63430008120033",
					"opcodes": "PUSH1 0x80 PUSH1 0x40 MSTORE PUSH1 0x1 PUSH1 0x3 SSTORE CALLVALUE DUP1 ISZERO PUSH3 0x16 JUMPI PUSH1 0x0 DUP1 REVERT JUMPDEST POP PUSH1 0x40 MLOAD PUSH3 0x201E CODESIZE SUB DUP1 PUSH3 0x201E DUP4 CODECOPY DUP2 DUP2 ADD PUSH1 0x40 MSTORE DUP2 ADD SWAP1 PUSH3 0x3C SWAP2 SWAP1 PUSH3 0x12F JUMP JUMPDEST DUP1 PUSH1 0x1 PUSH1 0x0 PUSH2 0x100 EXP DUP2 SLOAD DUP2 PUSH20 0xFFFFFFFFFFFFFFFFFFFFFFFFFFFFFFFFFFFFFFFF MUL NOT AND SWAP1 DUP4 PUSH20 0xFFFFFFFFFFFFFFFFFFFFFFFFFFFFFFFFFFFFFFFF AND MUL OR SWAP1 SSTORE POP CALLER PUSH1 0x2 PUSH1 0x0 PUSH2 0x100 EXP DUP2 SLOAD DUP2 PUSH20 0xFFFFFFFFFFFFFFFFFFFFFFFFFFFFFFFFFFFFFFFF MUL NOT AND SWAP1 DUP4 PUSH20 0xFFFFFFFFFFFFFFFFFFFFFFFFFFFFFFFFFFFFFFFF AND MUL OR SWAP1 SSTORE POP POP PUSH3 0x161 JUMP JUMPDEST PUSH1 0x0 DUP1 REVERT JUMPDEST PUSH1 0x0 PUSH20 0xFFFFFFFFFFFFFFFFFFFFFFFFFFFFFFFFFFFFFFFF DUP3 AND SWAP1 POP SWAP2 SWAP1 POP JUMP JUMPDEST PUSH1 0x0 PUSH3 0xF7 DUP3 PUSH3 0xCA JUMP JUMPDEST SWAP1 POP SWAP2 SWAP1 POP JUMP JUMPDEST PUSH3 0x109 DUP2 PUSH3 0xEA JUMP JUMPDEST DUP2 EQ PUSH3 0x115 JUMPI PUSH1 0x0 DUP1 REVERT JUMPDEST POP JUMP JUMPDEST PUSH1 0x0 DUP2 MLOAD SWAP1 POP PUSH3 0x129 DUP2 PUSH3 0xFE JUMP JUMPDEST SWAP3 SWAP2 POP POP JUMP JUMPDEST PUSH1 0x0 PUSH1 0x20 DUP3 DUP5 SUB SLT ISZERO PUSH3 0x148 JUMPI PUSH3 0x147 PUSH3 0xC5 JUMP JUMPDEST JUMPDEST PUSH1 0x0 PUSH3 0x158 DUP5 DUP3 DUP6 ADD PUSH3 0x118 JUMP JUMPDEST SWAP2 POP POP SWAP3 SWAP2 POP POP JUMP JUMPDEST PUSH2 0x1EAD DUP1 PUSH3 0x171 PUSH1 0x0 CODECOPY PUSH1 0x0 RETURN INVALID PUSH1 0x80 PUSH1 0x40 MSTORE CALLVALUE DUP1 ISZERO PUSH2 0x10 JUMPI PUSH1 0x0 DUP1 REVERT JUMPDEST POP PUSH1 0x4 CALLDATASIZE LT PUSH2 0xF5 JUMPI PUSH1 0x0 CALLDATALOAD PUSH1 0xE0 SHR DUP1 PUSH4 0x90EB2981 GT PUSH2 0x97 JUMPI DUP1 PUSH4 0xD5A44F86 GT PUSH2 0x66 JUMPI DUP1 PUSH4 0xD5A44F86 EQ PUSH2 0x2AD JUMPI DUP1 PUSH4 0xD80E8700 EQ PUSH2 0x2E0 JUMPI DUP1 PUSH4 0xF3A93E80 EQ PUSH2 0x2FE JUMPI DUP1 PUSH4 0xFC0C546A EQ PUSH2 0x31A JUMPI PUSH2 0xF5 JUMP JUMPDEST DUP1 PUSH4 0x90EB2981 EQ PUSH2 0x212 JUMPI DUP1 PUSH4 0xC392F766 EQ PUSH2 0x242 JUMPI DUP1 PUSH4 0xC9352971 EQ PUSH2 0x260 JUMPI DUP1 PUSH4 0xD279C191 EQ PUSH2 0x291 JUMPI PUSH2 0xF5 JUMP JUMPDEST DUP1 PUSH4 0x78317BE7 GT PUSH2 0xD3 JUMPI DUP1 PUSH4 0x78317BE7 EQ PUSH2 0x18A JUMPI DUP1 PUSH4 0x7B0472F0 EQ PUSH2 0x1A6 JUMPI DUP1 PUSH4 0x8B7AFE2E EQ PUSH2 0x1D6 JUMPI DUP1 PUSH4 0x8DA5CB5B EQ PUSH2 0x1F4 JUMPI PUSH2 0xF5 JUMP JUMPDEST DUP1 PUSH4 0x700037D EQ PUSH2 0xFA JUMPI DUP1 PUSH4 0xA42F049 EQ PUSH2 0x12A JUMPI DUP1 PUSH4 0x2671B0D8 EQ PUSH2 0x15A JUMPI JUMPDEST PUSH1 0x0 DUP1 REVERT JUMPDEST PUSH2 0x114 PUSH1 0x4 DUP1 CALLDATASIZE SUB DUP2 ADD SWAP1 PUSH2 0x10F SWAP2 SWAP1 PUSH2 0x13FE JUMP JUMPDEST PUSH2 0x338 JUMP JUMPDEST PUSH1 0x40 MLOAD PUSH2 0x121 SWAP2 SWAP1 PUSH2 0x1444 JUMP JUMPDEST PUSH1 0x40 MLOAD DUP1 SWAP2 SUB SWAP1 RETURN JUMPDEST PUSH2 0x144 PUSH1 0x4 DUP1 CALLDATASIZE SUB DUP2 ADD SWAP1 PUSH2 0x13F SWAP2 SWAP1 PUSH2 0x148B JUMP JUMPDEST PUSH2 0x350 JUMP JUMPDEST PUSH1 0x40 MLOAD PUSH2 0x151 SWAP2 SWAP1 PUSH2 0x1444 JUMP JUMPDEST PUSH1 0x40 MLOAD DUP1 SWAP2 SUB SWAP1 RETURN JUMPDEST PUSH2 0x174 PUSH1 0x4 DUP1 CALLDATASIZE SUB DUP2 ADD SWAP1 PUSH2 0x16F SWAP2 SWAP1 PUSH2 0x13FE JUMP JUMPDEST PUSH2 0x370 JUMP JUMPDEST PUSH1 0x40 MLOAD PUSH2 0x181 SWAP2 SWAP1 PUSH2 0x1576 JUMP JUMPDEST PUSH1 0x40 MLOAD DUP1 SWAP2 SUB SWAP1 RETURN JUMPDEST PUSH2 0x1A4 PUSH1 0x4 DUP1 CALLDATASIZE SUB DUP2 ADD SWAP1 PUSH2 0x19F SWAP2 SWAP1 PUSH2 0x13FE JUMP JUMPDEST PUSH2 0x524 JUMP JUMPDEST STOP JUMPDEST PUSH2 0x1C0 PUSH1 0x4 DUP1 CALLDATASIZE SUB DUP2 ADD SWAP1 PUSH2 0x1BB SWAP2 SWAP1 PUSH2 0x1598 JUMP JUMPDEST PUSH2 0x72C JUMP JUMPDEST PUSH1 0x40 MLOAD PUSH2 0x1CD SWAP2 SWAP1 PUSH2 0x1444 JUMP JUMPDEST PUSH1 0x40 MLOAD DUP1 SWAP2 SUB SWAP1 RETURN JUMPDEST PUSH2 0x1DE PUSH2 0xADE JUMP JUMPDEST PUSH1 0x40 MLOAD PUSH2 0x1EB SWAP2 SWAP1 PUSH2 0x1444 JUMP JUMPDEST PUSH1 0x40 MLOAD DUP1 SWAP2 SUB SWAP1 RETURN JUMPDEST PUSH2 0x1FC PUSH2 0xB81 JUMP JUMPDEST PUSH1 0x40 MLOAD PUSH2 0x209 SWAP2 SWAP1 PUSH2 0x15E7 JUMP JUMPDEST PUSH1 0x40 MLOAD DUP1 SWAP2 SUB SWAP1 RETURN JUMPDEST PUSH2 0x22C PUSH1 0x4 DUP1 CALLDATASIZE SUB DUP2 ADD SWAP1 PUSH2 0x227 SWAP2 SWAP1 PUSH2 0x148B JUMP JUMPDEST PUSH2 0xBA7 JUMP JUMPDEST PUSH1 0x40 MLOAD PUSH2 0x239 SWAP2 SWAP1 PUSH2 0x15E7 JUMP JUMPDEST PUSH1 0x40 MLOAD DUP1 SWAP2 SUB SWAP1 RETURN JUMPDEST PUSH2 0x24A PUSH2 0xBDA JUMP JUMPDEST PUSH1 0x40 MLOAD PUSH2 0x257 SWAP2 SWAP1 PUSH2 0x1444 JUMP JUMPDEST PUSH1 0x40 MLOAD DUP1 SWAP2 SUB SWAP1 RETURN JUMPDEST PUSH2 0x27A PUSH1 0x4 DUP1 CALLDATASIZE SUB DUP2 ADD SWAP1 PUSH2 0x275 SWAP2 SWAP1 PUSH2 0x13FE JUMP JUMPDEST PUSH2 0xBE0 JUMP JUMPDEST PUSH1 0x40 MLOAD PUSH2 0x288 SWAP3 SWAP2 SWAP1 PUSH2 0x1721 JUMP JUMPDEST PUSH1 0x40 MLOAD DUP1 SWAP2 SUB SWAP1 RETURN JUMPDEST PUSH2 0x2AB PUSH1 0x4 DUP1 CALLDATASIZE SUB DUP2 ADD SWAP1 PUSH2 0x2A6 SWAP2 SWAP1 PUSH2 0x13FE JUMP JUMPDEST PUSH2 0xE6D JUMP JUMPDEST STOP JUMPDEST PUSH2 0x2C7 PUSH1 0x4 DUP1 CALLDATASIZE SUB DUP2 ADD SWAP1 PUSH2 0x2C2 SWAP2 SWAP1 PUSH2 0x148B JUMP JUMPDEST PUSH2 0x10EF JUMP JUMPDEST PUSH1 0x40 MLOAD PUSH2 0x2D7 SWAP5 SWAP4 SWAP3 SWAP2 SWAP1 PUSH2 0x1767 JUMP JUMPDEST PUSH1 0x40 MLOAD DUP1 SWAP2 SUB SWAP1 RETURN JUMPDEST PUSH2 0x2E8 PUSH2 0x112C JUMP JUMPDEST PUSH1 0x40 MLOAD PUSH2 0x2F5 SWAP2 SWAP1 PUSH2 0x1444 JUMP JUMPDEST PUSH1 0x40 MLOAD DUP1 SWAP2 SUB SWAP1 RETURN JUMPDEST PUSH2 0x318 PUSH1 0x4 DUP1 CALLDATASIZE SUB DUP2 ADD SWAP1 PUSH2 0x313 SWAP2 SWAP1 PUSH2 0x148B JUMP JUMPDEST PUSH2 0x1134 JUMP JUMPDEST STOP JUMPDEST PUSH2 0x322 PUSH2 0x130E JUMP JUMPDEST PUSH1 0x40 MLOAD PUSH2 0x32F SWAP2 SWAP1 PUSH2 0x180B JUMP JUMPDEST PUSH1 0x40 MLOAD DUP1 SWAP2 SUB SWAP1 RETURN JUMPDEST PUSH1 0x6 PUSH1 0x20 MSTORE DUP1 PUSH1 0x0 MSTORE PUSH1 0x40 PUSH1 0x0 KECCAK256 PUSH1 0x0 SWAP2 POP SWAP1 POP SLOAD DUP2 JUMP JUMPDEST PUSH1 0x0 PUSH1 0x5 PUSH1 0x0 DUP4 DUP2 MSTORE PUSH1 0x20 ADD SWAP1 DUP2 MSTORE PUSH1 0x20 ADD PUSH1 0x0 KECCAK256 PUSH1 0x1 ADD SLOAD SWAP1 POP SWAP2 SWAP1 POP JUMP JUMPDEST PUSH1 0x60 PUSH1 0x0 DUP1 JUMPDEST PUSH2 0x380 PUSH1 0x0 PUSH2 0x1334 JUMP JUMPDEST DUP2 GT PUSH2 0x40E JUMPI DUP4 PUSH20 0xFFFFFFFFFFFFFFFFFFFFFFFFFFFFFFFFFFFFFFFF AND PUSH1 0x4 PUSH1 0x0 DUP4 DUP2 MSTORE PUSH1 0x20 ADD SWAP1 DUP2 MSTORE PUSH1 0x20 ADD PUSH1 0x0 KECCAK256 PUSH1 0x0 SWAP1 SLOAD SWAP1 PUSH2 0x100 EXP SWAP1 DIV PUSH20 0xFFFFFFFFFFFFFFFFFFFFFFFFFFFFFFFFFFFFFFFF AND PUSH20 0xFFFFFFFFFFFFFFFFFFFFFFFFFFFFFFFFFFFFFFFF AND SUB PUSH2 0x3FB JUMPI DUP2 DUP1 PUSH2 0x3F7 SWAP1 PUSH2 0x1855 JUMP JUMPDEST SWAP3 POP POP JUMPDEST DUP1 DUP1 PUSH2 0x406 SWAP1 PUSH2 0x1855 JUMP JUMPDEST SWAP2 POP POP PUSH2 0x376 JUMP JUMPDEST POP PUSH1 0x0 DUP2 PUSH8 0xFFFFFFFFFFFFFFFF DUP2 GT ISZERO PUSH2 0x42B JUMPI PUSH2 0x42A PUSH2 0x189D JUMP JUMPDEST JUMPDEST PUSH1 0x40 MLOAD SWAP1 DUP1 DUP3 MSTORE DUP1 PUSH1 0x20 MUL PUSH1 0x20 ADD DUP3 ADD PUSH1 0x40 MSTORE DUP1 ISZERO PUSH2 0x459 JUMPI DUP2 PUSH1 0x20 ADD PUSH1 0x20 DUP3 MUL DUP1 CALLDATASIZE DUP4 CALLDATACOPY DUP1 DUP3 ADD SWAP2 POP POP SWAP1 POP JUMPDEST POP SWAP1 POP PUSH1 0x0 DUP1 JUMPDEST PUSH2 0x46A PUSH1 0x0 PUSH2 0x1334 JUMP JUMPDEST DUP2 GT PUSH2 0x518 JUMPI DUP6 PUSH20 0xFFFFFFFFFFFFFFFFFFFFFFFFFFFFFFFFFFFFFFFF AND PUSH1 0x4 PUSH1 0x0 DUP4 DUP2 MSTORE PUSH1 0x20 ADD SWAP1 DUP2 MSTORE PUSH1 0x20 ADD PUSH1 0x0 KECCAK256 PUSH1 0x0 SWAP1 SLOAD SWAP1 PUSH2 0x100 EXP SWAP1 DIV PUSH20 0xFFFFFFFFFFFFFFFFFFFFFFFFFFFFFFFFFFFFFFFF AND PUSH20 0xFFFFFFFFFFFFFFFFFFFFFFFFFFFFFFFFFFFFFFFF AND SUB PUSH2 0x505 JUMPI DUP1 DUP4 DUP4 DUP2 MLOAD DUP2 LT PUSH2 0x4EA JUMPI PUSH2 0x4E9 PUSH2 0x18CC JUMP JUMPDEST JUMPDEST PUSH1 0x20 MUL PUSH1 0x20 ADD ADD DUP2 DUP2 MSTORE POP POP DUP2 DUP1 PUSH2 0x501 SWAP1 PUSH2 0x1855 JUMP JUMPDEST SWAP3 POP POP JUMPDEST DUP1 DUP1 PUSH2 0x510 SWAP1 PUSH2 0x1855 JUMP JUMPDEST SWAP2 POP POP PUSH2 0x460 JUMP JUMPDEST POP DUP2 SWAP4 POP POP POP POP SWAP2 SWAP1 POP JUMP JUMPDEST PUSH1 0x0 PUSH2 0x52F DUP3 PUSH2 0x370 JUMP JUMPDEST SWAP1 POP PUSH1 0x0 DUP2 MLOAD GT PUSH2 0x575 JUMPI PUSH1 0x40 MLOAD PUSH32 0x8C379A000000000000000000000000000000000000000000000000000000000 DUP2 MSTORE PUSH1 0x4 ADD PUSH2 0x56C SWAP1 PUSH2 0x1958 JUMP JUMPDEST PUSH1 0x40 MLOAD DUP1 SWAP2 SUB SWAP1 REVERT JUMPDEST PUSH1 0x0 JUMPDEST DUP2 MLOAD DUP2 LT ISZERO PUSH2 0x727 JUMPI PUSH1 0x5 PUSH1 0x0 DUP4 DUP4 DUP2 MLOAD DUP2 LT PUSH2 0x598 JUMPI PUSH2 0x597 PUSH2 0x18CC JUMP JUMPDEST JUMPDEST PUSH1 0x20 MUL PUSH1 0x20 ADD ADD MLOAD DUP2 MSTORE PUSH1 0x20 ADD SWAP1 DUP2 MSTORE PUSH1 0x20 ADD PUSH1 0x0 KECCAK256 PUSH1 0x3 ADD PUSH1 0x0 SWAP1 SLOAD SWAP1 PUSH2 0x100 EXP SWAP1 DIV PUSH1 0xFF AND PUSH2 0x714 JUMPI PUSH1 0x1 PUSH1 0x0 SWAP1 SLOAD SWAP1 PUSH2 0x100 EXP SWAP1 DIV PUSH20 0xFFFFFFFFFFFFFFFFFFFFFFFFFFFFFFFFFFFFFFFF AND PUSH20 0xFFFFFFFFFFFFFFFFFFFFFFFFFFFFFFFFFFFFFFFF AND PUSH4 0xA9059CBB CALLER PUSH1 0x5 PUSH1 0x0 DUP7 DUP7 DUP2 MLOAD DUP2 LT PUSH2 0x619 JUMPI PUSH2 0x618 PUSH2 0x18CC JUMP JUMPDEST JUMPDEST PUSH1 0x20 MUL PUSH1 0x20 ADD ADD MLOAD DUP2 MSTORE PUSH1 0x20 ADD SWAP1 DUP2 MSTORE PUSH1 0x20 ADD PUSH1 0x0 KECCAK256 PUSH1 0x0 ADD SLOAD PUSH1 0x40 MLOAD DUP4 PUSH4 0xFFFFFFFF AND PUSH1 0xE0 SHL DUP2 MSTORE PUSH1 0x4 ADD PUSH2 0x650 SWAP3 SWAP2 SWAP1 PUSH2 0x1978 JUMP JUMPDEST PUSH1 0x20 PUSH1 0x40 MLOAD DUP1 DUP4 SUB DUP2 PUSH1 0x0 DUP8 GAS CALL ISZERO DUP1 ISZERO PUSH2 0x66F JUMPI RETURNDATASIZE PUSH1 0x0 DUP1 RETURNDATACOPY RETURNDATASIZE PUSH1 0x0 REVERT JUMPDEST POP POP POP POP PUSH1 0x40 MLOAD RETURNDATASIZE PUSH1 0x1F NOT PUSH1 0x1F DUP3 ADD AND DUP3 ADD DUP1 PUSH1 0x40 MSTORE POP DUP2 ADD SWAP1 PUSH2 0x693 SWAP2 SWAP1 PUSH2 0x19CD JUMP JUMPDEST POP PUSH1 0x0 PUSH1 0x5 PUSH1 0x0 DUP5 DUP5 DUP2 MLOAD DUP2 LT PUSH2 0x6AD JUMPI PUSH2 0x6AC PUSH2 0x18CC JUMP JUMPDEST JUMPDEST PUSH1 0x20 MUL PUSH1 0x20 ADD ADD MLOAD DUP2 MSTORE PUSH1 0x20 ADD SWAP1 DUP2 MSTORE PUSH1 0x20 ADD PUSH1 0x0 KECCAK256 PUSH1 0x0 ADD DUP2 SWAP1 SSTORE POP PUSH1 0x1 PUSH1 0x5 PUSH1 0x0 DUP5 DUP5 DUP2 MLOAD DUP2 LT PUSH2 0x6E3 JUMPI PUSH2 0x6E2 PUSH2 0x18CC JUMP JUMPDEST JUMPDEST PUSH1 0x20 MUL PUSH1 0x20 ADD ADD MLOAD DUP2 MSTORE PUSH1 0x20 ADD SWAP1 DUP2 MSTORE PUSH1 0x20 ADD PUSH1 0x0 KECCAK256 PUSH1 0x3 ADD PUSH1 0x0 PUSH2 0x100 EXP DUP2 SLOAD DUP2 PUSH1 0xFF MUL NOT AND SWAP1 DUP4 ISZERO ISZERO MUL OR SWAP1 SSTORE POP JUMPDEST DUP1 DUP1 PUSH2 0x71F SWAP1 PUSH2 0x1855 JUMP JUMPDEST SWAP2 POP POP PUSH2 0x578 JUMP JUMPDEST POP POP POP JUMP JUMPDEST PUSH1 0x0 PUSH2 0x738 PUSH1 0x0 PUSH2 0x1342 JUMP JUMPDEST PUSH1 0x0 DUP4 GT PUSH2 0x77B JUMPI PUSH1 0x40 MLOAD PUSH32 0x8C379A000000000000000000000000000000000000000000000000000000000 DUP2 MSTORE PUSH1 0x4 ADD PUSH2 0x772 SWAP1 PUSH2 0x1A46 JUMP JUMPDEST PUSH1 0x40 MLOAD DUP1 SWAP2 SUB SWAP1 REVERT JUMPDEST DUP3 PUSH1 0x1 PUSH1 0x0 SWAP1 SLOAD SWAP1 PUSH2 0x100 EXP SWAP1 DIV PUSH20 0xFFFFFFFFFFFFFFFFFFFFFFFFFFFFFFFFFFFFFFFF AND PUSH20 0xFFFFFFFFFFFFFFFFFFFFFFFFFFFFFFFFFFFFFFFF AND PUSH4 0x70A08231 CALLER PUSH1 0x40 MLOAD DUP3 PUSH4 0xFFFFFFFF AND PUSH1 0xE0 SHL DUP2 MSTORE PUSH1 0x4 ADD PUSH2 0x7D7 SWAP2 SWAP1 PUSH2 0x15E7 JUMP JUMPDEST PUSH1 0x20 PUSH1 0x40 MLOAD DUP1 DUP4 SUB DUP2 DUP7 GAS STATICCALL ISZERO DUP1 ISZERO PUSH2 0x7F4 JUMPI RETURNDATASIZE PUSH1 0x0 DUP1 RETURNDATACOPY RETURNDATASIZE PUSH1 0x0 REVERT JUMPDEST POP POP POP POP PUSH1 0x40 MLOAD RETURNDATASIZE PUSH1 0x1F NOT PUSH1 0x1F DUP3 ADD AND DUP3 ADD DUP1 PUSH1 0x40 MSTORE POP DUP2 ADD SWAP1 PUSH2 0x818 SWAP2 SWAP1 PUSH2 0x1A7B JUMP JUMPDEST LT ISZERO PUSH2 0x859 JUMPI PUSH1 0x40 MLOAD PUSH32 0x8C379A000000000000000000000000000000000000000000000000000000000 DUP2 MSTORE PUSH1 0x4 ADD PUSH2 0x850 SWAP1 PUSH2 0x1B1A JUMP JUMPDEST PUSH1 0x40 MLOAD DUP1 SWAP2 SUB SWAP1 REVERT JUMPDEST PUSH1 0x2 DUP3 EQ DUP1 PUSH2 0x868 JUMPI POP PUSH1 0x4 DUP3 EQ JUMPDEST DUP1 PUSH2 0x873 JUMPI POP PUSH1 0x6 DUP3 EQ JUMPDEST DUP1 PUSH2 0x87E JUMPI POP PUSH1 0x8 DUP3 EQ JUMPDEST DUP1 PUSH2 0x889 JUMPI POP PUSH1 0xA DUP3 EQ JUMPDEST PUSH2 0x8C8 JUMPI PUSH1 0x40 MLOAD PUSH32 0x8C379A000000000000000000000000000000000000000000000000000000000 DUP2 MSTORE PUSH1 0x4 ADD PUSH2 0x8BF SWAP1 PUSH2 0x1BAC JUMP JUMPDEST PUSH1 0x40 MLOAD DUP1 SWAP2 SUB SWAP1 REVERT JUMPDEST PUSH1 0x0 TIMESTAMP SWAP1 POP CALLER PUSH1 0x4 PUSH1 0x0 PUSH2 0x8DC PUSH1 0x0 PUSH2 0x1334 JUMP JUMPDEST DUP2 MSTORE PUSH1 0x20 ADD SWAP1 DUP2 MSTORE PUSH1 0x20 ADD PUSH1 0x0 KECCAK256 PUSH1 0x0 PUSH2 0x100 EXP DUP2 SLOAD DUP2 PUSH20 0xFFFFFFFFFFFFFFFFFFFFFFFFFFFFFFFFFFFFFFFF MUL NOT AND SWAP1 DUP4 PUSH20 0xFFFFFFFFFFFFFFFFFFFFFFFFFFFFFFFFFFFFFFFF AND MUL OR SWAP1 SSTORE POP PUSH1 0x1 PUSH1 0x0 SWAP1 SLOAD SWAP1 PUSH2 0x100 EXP SWAP1 DIV PUSH20 0xFFFFFFFFFFFFFFFFFFFFFFFFFFFFFFFFFFFFFFFF AND PUSH20 0xFFFFFFFFFFFFFFFFFFFFFFFFFFFFFFFFFFFFFFFF AND PUSH4 0x23B872DD CALLER ADDRESS DUP8 PUSH1 0x40 MLOAD DUP5 PUSH4 0xFFFFFFFF AND PUSH1 0xE0 SHL DUP2 MSTORE PUSH1 0x4 ADD PUSH2 0x987 SWAP4 SWAP3 SWAP2 SWAP1 PUSH2 0x1BCC JUMP JUMPDEST PUSH1 0x20 PUSH1 0x40 MLOAD DUP1 DUP4 SUB DUP2 PUSH1 0x0 DUP8 GAS CALL ISZERO DUP1 ISZERO PUSH2 0x9A6 JUMPI RETURNDATASIZE PUSH1 0x0 DUP1 RETURNDATACOPY RETURNDATASIZE PUSH1 0x0 REVERT JUMPDEST POP POP POP POP PUSH1 0x40 MLOAD RETURNDATASIZE PUSH1 0x1F NOT PUSH1 0x1F DUP3 ADD AND DUP3 ADD DUP1 PUSH1 0x40 MSTORE POP DUP2 ADD SWAP1 PUSH2 0x9CA SWAP2 SWAP1 PUSH2 0x19CD JUMP JUMPDEST PUSH2 0xA09 JUMPI PUSH1 0x40 MLOAD PUSH32 0x8C379A000000000000000000000000000000000000000000000000000000000 DUP2 MSTORE PUSH1 0x4 ADD PUSH2 0xA00 SWAP1 PUSH2 0x1C75 JUMP JUMPDEST PUSH1 0x40 MLOAD DUP1 SWAP2 SUB SWAP1 REVERT JUMPDEST DUP4 PUSH1 0x5 PUSH1 0x0 PUSH2 0xA18 PUSH1 0x0 PUSH2 0x1334 JUMP JUMPDEST DUP2 MSTORE PUSH1 0x20 ADD SWAP1 DUP2 MSTORE PUSH1 0x20 ADD PUSH1 0x0 KECCAK256 PUSH1 0x0 ADD PUSH1 0x0 DUP3 DUP3 SLOAD PUSH2 0xA38 SWAP2 SWAP1 PUSH2 0x1C95 JUMP JUMPDEST SWAP3 POP POP DUP2 SWAP1 SSTORE POP DUP1 PUSH1 0x5 PUSH1 0x0 PUSH2 0xA4E PUSH1 0x0 PUSH2 0x1334 JUMP JUMPDEST DUP2 MSTORE PUSH1 0x20 ADD SWAP1 DUP2 MSTORE PUSH1 0x20 ADD PUSH1 0x0 KECCAK256 PUSH1 0x1 ADD DUP2 SWAP1 SSTORE POP PUSH1 0x3C DUP4 PUSH2 0xA70 SWAP2 SWAP1 PUSH2 0x1CC9 JUMP JUMPDEST PUSH1 0x5 PUSH1 0x0 PUSH2 0xA7E PUSH1 0x0 PUSH2 0x1334 JUMP JUMPDEST DUP2 MSTORE PUSH1 0x20 ADD SWAP1 DUP2 MSTORE PUSH1 0x20 ADD PUSH1 0x0 KECCAK256 PUSH1 0x2 ADD DUP2 SWAP1 SSTORE POP PUSH1 0x0 PUSH1 0x5 PUSH1 0x0 PUSH2 0xAA3 PUSH1 0x0 PUSH2 0x1334 JUMP JUMPDEST DUP2 MSTORE PUSH1 0x20 ADD SWAP1 DUP2 MSTORE PUSH1 0x20 ADD PUSH1 0x0 KECCAK256 PUSH1 0x3 ADD PUSH1 0x0 PUSH2 0x100 EXP DUP2 SLOAD DUP2 PUSH1 0xFF MUL NOT AND SWAP1 DUP4 ISZERO ISZERO MUL OR SWAP1 SSTORE POP PUSH2 0xAD5 PUSH1 0x0 PUSH2 0x1334 JUMP JUMPDEST SWAP2 POP POP SWAP3 SWAP2 POP POP JUMP JUMPDEST PUSH1 0x0 PUSH1 0x1 PUSH1 0x0 SWAP1 SLOAD SWAP1 PUSH2 0x100 EXP SWAP1 DIV PUSH20 0xFFFFFFFFFFFFFFFFFFFFFFFFFFFFFFFFFFFFFFFF AND PUSH20 0xFFFFFFFFFFFFFFFFFFFFFFFFFFFFFFFFFFFFFFFF AND PUSH4 0x70A08231 ADDRESS PUSH1 0x40 MLOAD DUP3 PUSH4 0xFFFFFFFF AND PUSH1 0xE0 SHL DUP2 MSTORE PUSH1 0x4 ADD PUSH2 0xB3B SWAP2 SWAP1 PUSH2 0x15E7 JUMP JUMPDEST PUSH1 0x20 PUSH1 0x40 MLOAD DUP1 DUP4 SUB DUP2 DUP7 GAS STATICCALL ISZERO DUP1 ISZERO PUSH2 0xB58 JUMPI RETURNDATASIZE PUSH1 0x0 DUP1 RETURNDATACOPY RETURNDATASIZE PUSH1 0x0 REVERT JUMPDEST POP POP POP POP PUSH1 0x40 MLOAD RETURNDATASIZE PUSH1 0x1F NOT PUSH1 0x1F DUP3 ADD AND DUP3 ADD DUP1 PUSH1 0x40 MSTORE POP DUP2 ADD SWAP1 PUSH2 0xB7C SWAP2 SWAP1 PUSH2 0x1A7B JUMP JUMPDEST SWAP1 POP SWAP1 JUMP JUMPDEST PUSH1 0x2 PUSH1 0x0 SWAP1 SLOAD SWAP1 PUSH2 0x100 EXP SWAP1 DIV PUSH20 0xFFFFFFFFFFFFFFFFFFFFFFFFFFFFFFFFFFFFFFFF AND DUP2 JUMP JUMPDEST PUSH1 0x4 PUSH1 0x20 MSTORE DUP1 PUSH1 0x0 MSTORE PUSH1 0x40 PUSH1 0x0 KECCAK256 PUSH1 0x0 SWAP2 POP SLOAD SWAP1 PUSH2 0x100 EXP SWAP1 DIV PUSH20 0xFFFFFFFFFFFFFFFFFFFFFFFFFFFFFFFFFFFFFFFF AND DUP2 JUMP JUMPDEST PUSH1 0x3 SLOAD DUP2 JUMP JUMPDEST PUSH1 0x60 DUP1 PUSH1 0x0 DUP1 JUMPDEST PUSH2 0xBF1 PUSH1 0x0 PUSH2 0x1334 JUMP JUMPDEST DUP2 GT PUSH2 0xC7F JUMPI DUP5 PUSH20 0xFFFFFFFFFFFFFFFFFFFFFFFFFFFFFFFFFFFFFFFF AND PUSH1 0x4 PUSH1 0x0 DUP4 DUP2 MSTORE PUSH1 0x20 ADD SWAP1 DUP2 MSTORE PUSH1 0x20 ADD PUSH1 0x0 KECCAK256 PUSH1 0x0 SWAP1 SLOAD SWAP1 PUSH2 0x100 EXP SWAP1 DIV PUSH20 0xFFFFFFFFFFFFFFFFFFFFFFFFFFFFFFFFFFFFFFFF AND PUSH20 0xFFFFFFFFFFFFFFFFFFFFFFFFFFFFFFFFFFFFFFFF AND SUB PUSH2 0xC6C JUMPI DUP2 DUP1 PUSH2 0xC68 SWAP1 PUSH2 0x1855 JUMP JUMPDEST SWAP3 POP POP JUMPDEST DUP1 DUP1 PUSH2 0xC77 SWAP1 PUSH2 0x1855 JUMP JUMPDEST SWAP2 POP POP PUSH2 0xBE7 JUMP JUMPDEST POP PUSH1 0x0 DUP2 PUSH8 0xFFFFFFFFFFFFFFFF DUP2 GT ISZERO PUSH2 0xC9C JUMPI PUSH2 0xC9B PUSH2 0x189D JUMP JUMPDEST JUMPDEST PUSH1 0x40 MLOAD SWAP1 DUP1 DUP3 MSTORE DUP1 PUSH1 0x20 MUL PUSH1 0x20 ADD DUP3 ADD PUSH1 0x40 MSTORE DUP1 ISZERO PUSH2 0xCD5 JUMPI DUP2 PUSH1 0x20 ADD JUMPDEST PUSH2 0xCC2 PUSH2 0x1371 JUMP JUMPDEST DUP2 MSTORE PUSH1 0x20 ADD SWAP1 PUSH1 0x1 SWAP1 SUB SWAP1 DUP2 PUSH2 0xCBA JUMPI SWAP1 POP JUMPDEST POP SWAP1 POP PUSH1 0x0 DUP3 PUSH8 0xFFFFFFFFFFFFFFFF DUP2 GT ISZERO PUSH2 0xCF4 JUMPI PUSH2 0xCF3 PUSH2 0x189D JUMP JUMPDEST JUMPDEST PUSH1 0x40 MLOAD SWAP1 DUP1 DUP3 MSTORE DUP1 PUSH1 0x20 MUL PUSH1 0x20 ADD DUP3 ADD PUSH1 0x40 MSTORE DUP1 ISZERO PUSH2 0xD22 JUMPI DUP2 PUSH1 0x20 ADD PUSH1 0x20 DUP3 MUL DUP1 CALLDATASIZE DUP4 CALLDATACOPY DUP1 DUP3 ADD SWAP2 POP POP SWAP1 POP JUMPDEST POP SWAP1 POP PUSH1 0x0 DUP1 JUMPDEST PUSH2 0xD33 PUSH1 0x0 PUSH2 0x1334 JUMP JUMPDEST DUP2 GT PUSH2 0xE5D JUMPI DUP8 PUSH20 0xFFFFFFFFFFFFFFFFFFFFFFFFFFFFFFFFFFFFFFFF AND PUSH1 0x4 PUSH1 0x0 DUP4 DUP2 MSTORE PUSH1 0x20 ADD SWAP1 DUP2 MSTORE PUSH1 0x20 ADD PUSH1 0x0 KECCAK256 PUSH1 0x0 SWAP1 SLOAD SWAP1 PUSH2 0x100 EXP SWAP1 DIV PUSH20 0xFFFFFFFFFFFFFFFFFFFFFFFFFFFFFFFFFFFFFFFF AND PUSH20 0xFFFFFFFFFFFFFFFFFFFFFFFFFFFFFFFFFFFFFFFF AND SUB PUSH2 0xE43 JUMPI PUSH1 0x5 PUSH1 0x0 DUP3 DUP2 MSTORE PUSH1 0x20 ADD SWAP1 DUP2 MSTORE PUSH1 0x20 ADD PUSH1 0x0 KECCAK256 PUSH1 0x40 MLOAD DUP1 PUSH1 0x80 ADD PUSH1 0x40 MSTORE SWAP1 DUP2 PUSH1 0x0 DUP3 ADD SLOAD DUP2 MSTORE PUSH1 0x20 ADD PUSH1 0x1 DUP3 ADD SLOAD DUP2 MSTORE PUSH1 0x20 ADD PUSH1 0x2 DUP3 ADD SLOAD DUP2 MSTORE PUSH1 0x20 ADD PUSH1 0x3 DUP3 ADD PUSH1 0x0 SWAP1 SLOAD SWAP1 PUSH2 0x100 EXP SWAP1 DIV PUSH1 0xFF AND ISZERO ISZERO ISZERO ISZERO DUP2 MSTORE POP POP DUP5 DUP4 DUP2 MLOAD DUP2 LT PUSH2 0xE09 JUMPI PUSH2 0xE08 PUSH2 0x18CC JUMP JUMPDEST JUMPDEST PUSH1 0x20 MUL PUSH1 0x20 ADD ADD DUP2 SWAP1 MSTORE POP DUP1 DUP4 DUP4 DUP2 MLOAD DUP2 LT PUSH2 0xE28 JUMPI PUSH2 0xE27 PUSH2 0x18CC JUMP JUMPDEST JUMPDEST PUSH1 0x20 MUL PUSH1 0x20 ADD ADD DUP2 DUP2 MSTORE POP POP DUP2 DUP1 PUSH2 0xE3F SWAP1 PUSH2 0x1855 JUMP JUMPDEST SWAP3 POP POP JUMPDEST DUP5 DUP3 GT PUSH2 0xE5D JUMPI DUP1 DUP1 PUSH2 0xE55 SWAP1 PUSH2 0x1855 JUMP JUMPDEST SWAP2 POP POP PUSH2 0xD29 JUMP JUMPDEST POP DUP2 DUP4 SWAP6 POP SWAP6 POP POP POP POP POP SWAP2 POP SWAP2 JUMP JUMPDEST PUSH1 0x0 PUSH2 0xE78 DUP3 PUSH2 0x370 JUMP JUMPDEST SWAP1 POP PUSH1 0x0 DUP2 MLOAD GT PUSH2 0xEBE JUMPI PUSH1 0x40 MLOAD PUSH32 0x8C379A000000000000000000000000000000000000000000000000000000000 DUP2 MSTORE PUSH1 0x4 ADD PUSH2 0xEB5 SWAP1 PUSH2 0x1D57 JUMP JUMPDEST PUSH1 0x40 MLOAD DUP1 SWAP2 SUB SWAP1 REVERT JUMPDEST PUSH1 0x0 JUMPDEST DUP2 MLOAD DUP2 LT ISZERO PUSH2 0xF43 JUMPI PUSH1 0x5 PUSH1 0x0 DUP4 DUP4 DUP2 MLOAD DUP2 LT PUSH2 0xEE1 JUMPI PUSH2 0xEE0 PUSH2 0x18CC JUMP JUMPDEST JUMPDEST PUSH1 0x20 MUL PUSH1 0x20 ADD ADD MLOAD DUP2 MSTORE PUSH1 0x20 ADD SWAP1 DUP2 MSTORE PUSH1 0x20 ADD PUSH1 0x0 KECCAK256 PUSH1 0x3 ADD PUSH1 0x0 SWAP1 SLOAD SWAP1 PUSH2 0x100 EXP SWAP1 DIV PUSH1 0xFF AND PUSH2 0xF30 JUMPI PUSH2 0xF2F DUP3 DUP3 DUP2 MLOAD DUP2 LT PUSH2 0xF22 JUMPI PUSH2 0xF21 PUSH2 0x18CC JUMP JUMPDEST JUMPDEST PUSH1 0x20 MUL PUSH1 0x20 ADD ADD MLOAD PUSH2 0x1134 JUMP JUMPDEST JUMPDEST DUP1 DUP1 PUSH2 0xF3B SWAP1 PUSH2 0x1855 JUMP JUMPDEST SWAP2 POP POP PUSH2 0xEC1 JUMP JUMPDEST POP PUSH1 0x0 PUSH1 0x6 PUSH1 0x0 DUP5 PUSH20 0xFFFFFFFFFFFFFFFFFFFFFFFFFFFFFFFFFFFFFFFF AND PUSH20 0xFFFFFFFFFFFFFFFFFFFFFFFFFFFFFFFFFFFFFFFF AND DUP2 MSTORE PUSH1 0x20 ADD SWAP1 DUP2 MSTORE PUSH1 0x20 ADD PUSH1 0x0 KECCAK256 SLOAD GT PUSH2 0xFC6 JUMPI PUSH1 0x40 MLOAD PUSH32 0x8C379A000000000000000000000000000000000000000000000000000000000 DUP2 MSTORE PUSH1 0x4 ADD PUSH2 0xFBD SWAP1 PUSH2 0x1DC3 JUMP JUMPDEST PUSH1 0x40 MLOAD DUP1 SWAP2 SUB SWAP1 REVERT JUMPDEST PUSH1 0x1 PUSH1 0x0 SWAP1 SLOAD SWAP1 PUSH2 0x100 EXP SWAP1 DIV PUSH20 0xFFFFFFFFFFFFFFFFFFFFFFFFFFFFFFFFFFFFFFFF AND PUSH20 0xFFFFFFFFFFFFFFFFFFFFFFFFFFFFFFFFFFFFFFFF AND PUSH4 0xA9059CBB CALLER PUSH1 0x6 PUSH1 0x0 DUP7 PUSH20 0xFFFFFFFFFFFFFFFFFFFFFFFFFFFFFFFFFFFFFFFF AND PUSH20 0xFFFFFFFFFFFFFFFFFFFFFFFFFFFFFFFFFFFFFFFF AND DUP2 MSTORE PUSH1 0x20 ADD SWAP1 DUP2 MSTORE PUSH1 0x20 ADD PUSH1 0x0 KECCAK256 SLOAD PUSH1 0x40 MLOAD DUP4 PUSH4 0xFFFFFFFF AND PUSH1 0xE0 SHL DUP2 MSTORE PUSH1 0x4 ADD PUSH2 0x1062 SWAP3 SWAP2 SWAP1 PUSH2 0x1978 JUMP JUMPDEST PUSH1 0x20 PUSH1 0x40 MLOAD DUP1 DUP4 SUB DUP2 PUSH1 0x0 DUP8 GAS CALL ISZERO DUP1 ISZERO PUSH2 0x1081 JUMPI RETURNDATASIZE PUSH1 0x0 DUP1 RETURNDATACOPY RETURNDATASIZE PUSH1 0x0 REVERT JUMPDEST POP POP POP POP PUSH1 0x40 MLOAD RETURNDATASIZE PUSH1 0x1F NOT PUSH1 0x1F DUP3 ADD AND DUP3 ADD DUP1 PUSH1 0x40 MSTORE POP DUP2 ADD SWAP1 PUSH2 0x10A5 SWAP2 SWAP1 PUSH2 0x19CD JUMP JUMPDEST POP PUSH1 0x0 PUSH1 0x6 PUSH1 0x0 DUP5 PUSH20 0xFFFFFFFFFFFFFFFFFFFFFFFFFFFFFFFFFFFFFFFF AND PUSH20 0xFFFFFFFFFFFFFFFFFFFFFFFFFFFFFFFFFFFFFFFF AND DUP2 MSTORE PUSH1 0x20 ADD SWAP1 DUP2 MSTORE PUSH1 0x20 ADD PUSH1 0x0 KECCAK256 DUP2 SWAP1 SSTORE POP POP POP JUMP JUMPDEST PUSH1 0x5 PUSH1 0x20 MSTORE DUP1 PUSH1 0x0 MSTORE PUSH1 0x40 PUSH1 0x0 KECCAK256 PUSH1 0x0 SWAP2 POP SWAP1 POP DUP1 PUSH1 0x0 ADD SLOAD SWAP1 DUP1 PUSH1 0x1 ADD SLOAD SWAP1 DUP1 PUSH1 0x2 ADD SLOAD SWAP1 DUP1 PUSH1 0x3 ADD PUSH1 0x0 SWAP1 SLOAD SWAP1 PUSH2 0x100 EXP SWAP1 DIV PUSH1 0xFF AND SWAP1 POP DUP5 JUMP JUMPDEST PUSH1 0x0 TIMESTAMP SWAP1 POP SWAP1 JUMP JUMPDEST PUSH1 0x0 TIMESTAMP SWAP1 POP PUSH1 0x0 PUSH1 0x5 PUSH1 0x0 DUP5 DUP2 MSTORE PUSH1 0x20 ADD SWAP1 DUP2 MSTORE PUSH1 0x20 ADD PUSH1 0x0 KECCAK256 PUSH1 0x1 ADD SLOAD DUP3 PUSH2 0x115D SWAP2 SWAP1 PUSH2 0x1DE3 JUMP JUMPDEST SWAP1 POP PUSH1 0x0 PUSH2 0x1181 DUP3 PUSH1 0x5 PUSH1 0x0 DUP8 DUP2 MSTORE PUSH1 0x20 ADD SWAP1 DUP2 MSTORE PUSH1 0x20 ADD PUSH1 0x0 KECCAK256 PUSH1 0x2 ADD SLOAD PUSH2 0x1358 JUMP JUMPDEST SWAP1 POP PUSH1 0x64 DUP2 PUSH1 0x3 SLOAD PUSH1 0x5 PUSH1 0x0 DUP9 DUP2 MSTORE PUSH1 0x20 ADD SWAP1 DUP2 MSTORE PUSH1 0x20 ADD PUSH1 0x0 KECCAK256 PUSH1 0x0 ADD SLOAD PUSH2 0x11AA SWAP2 SWAP1 PUSH2 0x1CC9 JUMP JUMPDEST PUSH2 0x11B4 SWAP2 SWAP1 PUSH2 0x1CC9 JUMP JUMPDEST PUSH2 0x11BE SWAP2 SWAP1 PUSH2 0x1E46 JUMP JUMPDEST PUSH1 0x6 PUSH1 0x0 PUSH1 0x4 PUSH1 0x0 DUP9 DUP2 MSTORE PUSH1 0x20 ADD SWAP1 DUP2 MSTORE PUSH1 0x20 ADD PUSH1 0x0 KECCAK256 PUSH1 0x0 SWAP1 SLOAD SWAP1 PUSH2 0x100 EXP SWAP1 DIV PUSH20 0xFFFFFFFFFFFFFFFFFFFFFFFFFFFFFFFFFFFFFFFF AND PUSH20 0xFFFFFFFFFFFFFFFFFFFFFFFFFFFFFFFFFFFFFFFF AND PUSH20 0xFFFFFFFFFFFFFFFFFFFFFFFFFFFFFFFFFFFFFFFF AND DUP2 MSTORE PUSH1 0x20 ADD SWAP1 DUP2 MSTORE PUSH1 0x20 ADD PUSH1 0x0 KECCAK256 SLOAD PUSH2 0x123B SWAP2 SWAP1 PUSH2 0x1C95 JUMP JUMPDEST PUSH1 0x6 PUSH1 0x0 PUSH1 0x4 PUSH1 0x0 DUP9 DUP2 MSTORE PUSH1 0x20 ADD SWAP1 DUP2 MSTORE PUSH1 0x20 ADD PUSH1 0x0 KECCAK256 PUSH1 0x0 SWAP1 SLOAD SWAP1 PUSH2 0x100 EXP SWAP1 DIV PUSH20 0xFFFFFFFFFFFFFFFFFFFFFFFFFFFFFFFFFFFFFFFF AND PUSH20 0xFFFFFFFFFFFFFFFFFFFFFFFFFFFFFFFFFFFFFFFF AND PUSH20 0xFFFFFFFFFFFFFFFFFFFFFFFFFFFFFFFFFFFFFFFF AND DUP2 MSTORE PUSH1 0x20 ADD SWAP1 DUP2 MSTORE PUSH1 0x20 ADD PUSH1 0x0 KECCAK256 DUP2 SWAP1 SSTORE POP DUP3 PUSH1 0x5 PUSH1 0x0 DUP7 DUP2 MSTORE PUSH1 0x20 ADD SWAP1 DUP2 MSTORE PUSH1 0x20 ADD PUSH1 0x0 KECCAK256 PUSH1 0x1 ADD DUP2 SWAP1 SSTORE POP DUP1 PUSH1 0x5 PUSH1 0x0 DUP7 DUP2 MSTORE PUSH1 0x20 ADD SWAP1 DUP2 MSTORE PUSH1 0x20 ADD PUSH1 0x0 KECCAK256 PUSH1 0x2 ADD SLOAD PUSH2 0x12EE SWAP2 SWAP1 PUSH2 0x1DE3 JUMP JUMPDEST PUSH1 0x5 PUSH1 0x0 DUP7 DUP2 MSTORE PUSH1 0x20 ADD SWAP1 DUP2 MSTORE PUSH1 0x20 ADD PUSH1 0x0 KECCAK256 PUSH1 0x2 ADD DUP2 SWAP1 SSTORE POP POP POP POP POP JUMP JUMPDEST PUSH1 0x1 PUSH1 0x0 SWAP1 SLOAD SWAP1 PUSH2 0x100 EXP SWAP1 DIV PUSH20 0xFFFFFFFFFFFFFFFFFFFFFFFFFFFFFFFFFFFFFFFF AND DUP2 JUMP JUMPDEST PUSH1 0x0 DUP2 PUSH1 0x0 ADD SLOAD SWAP1 POP SWAP2 SWAP1 POP JUMP JUMPDEST PUSH1 0x1 DUP2 PUSH1 0x0 ADD PUSH1 0x0 DUP3 DUP3 SLOAD ADD SWAP3 POP POP DUP2 SWAP1 SSTORE POP POP JUMP JUMPDEST PUSH1 0x0 DUP2 DUP4 LT PUSH2 0x1367 JUMPI DUP2 PUSH2 0x1369 JUMP JUMPDEST DUP3 JUMPDEST SWAP1 POP SWAP3 SWAP2 POP POP JUMP JUMPDEST PUSH1 0x40 MLOAD DUP1 PUSH1 0x80 ADD PUSH1 0x40 MSTORE DUP1 PUSH1 0x0 DUP2 MSTORE PUSH1 0x20 ADD PUSH1 0x0 DUP2 MSTORE PUSH1 0x20 ADD PUSH1 0x0 DUP2 MSTORE PUSH1 0x20 ADD PUSH1 0x0 ISZERO ISZERO DUP2 MSTORE POP SWAP1 JUMP JUMPDEST PUSH1 0x0 DUP1 REVERT JUMPDEST PUSH1 0x0 PUSH20 0xFFFFFFFFFFFFFFFFFFFFFFFFFFFFFFFFFFFFFFFF DUP3 AND SWAP1 POP SWAP2 SWAP1 POP JUMP JUMPDEST PUSH1 0x0 PUSH2 0x13CB DUP3 PUSH2 0x13A0 JUMP JUMPDEST SWAP1 POP SWAP2 SWAP1 POP JUMP JUMPDEST PUSH2 0x13DB DUP2 PUSH2 0x13C0 JUMP JUMPDEST DUP2 EQ PUSH2 0x13E6 JUMPI PUSH1 0x0 DUP1 REVERT JUMPDEST POP JUMP JUMPDEST PUSH1 0x0 DUP2 CALLDATALOAD SWAP1 POP PUSH2 0x13F8 DUP2 PUSH2 0x13D2 JUMP JUMPDEST SWAP3 SWAP2 POP POP JUMP JUMPDEST PUSH1 0x0 PUSH1 0x20 DUP3 DUP5 SUB SLT ISZERO PUSH2 0x1414 JUMPI PUSH2 0x1413 PUSH2 0x139B JUMP JUMPDEST JUMPDEST PUSH1 0x0 PUSH2 0x1422 DUP5 DUP3 DUP6 ADD PUSH2 0x13E9 JUMP JUMPDEST SWAP2 POP POP SWAP3 SWAP2 POP POP JUMP JUMPDEST PUSH1 0x0 DUP2 SWAP1 POP SWAP2 SWAP1 POP JUMP JUMPDEST PUSH2 0x143E DUP2 PUSH2 0x142B JUMP JUMPDEST DUP3 MSTORE POP POP JUMP JUMPDEST PUSH1 0x0 PUSH1 0x20 DUP3 ADD SWAP1 POP PUSH2 0x1459 PUSH1 0x0 DUP4 ADD DUP5 PUSH2 0x1435 JUMP JUMPDEST SWAP3 SWAP2 POP POP JUMP JUMPDEST PUSH2 0x1468 DUP2 PUSH2 0x142B JUMP JUMPDEST DUP2 EQ PUSH2 0x1473 JUMPI PUSH1 0x0 DUP1 REVERT JUMPDEST POP JUMP JUMPDEST PUSH1 0x0 DUP2 CALLDATALOAD SWAP1 POP PUSH2 0x1485 DUP2 PUSH2 0x145F JUMP JUMPDEST SWAP3 SWAP2 POP POP JUMP JUMPDEST PUSH1 0x0 PUSH1 0x20 DUP3 DUP5 SUB SLT ISZERO PUSH2 0x14A1 JUMPI PUSH2 0x14A0 PUSH2 0x139B JUMP JUMPDEST JUMPDEST PUSH1 0x0 PUSH2 0x14AF DUP5 DUP3 DUP6 ADD PUSH2 0x1476 JUMP JUMPDEST SWAP2 POP POP SWAP3 SWAP2 POP POP JUMP JUMPDEST PUSH1 0x0 DUP2 MLOAD SWAP1 POP SWAP2 SWAP1 POP JUMP JUMPDEST PUSH1 0x0 DUP3 DUP3 MSTORE PUSH1 0x20 DUP3 ADD SWAP1 POP SWAP3 SWAP2 POP POP JUMP JUMPDEST PUSH1 0x0 DUP2 SWAP1 POP PUSH1 0x20 DUP3 ADD SWAP1 POP SWAP2 SWAP1 POP JUMP JUMPDEST PUSH2 0x14ED DUP2 PUSH2 0x142B JUMP JUMPDEST DUP3 MSTORE POP POP JUMP JUMPDEST PUSH1 0x0 PUSH2 0x14FF DUP4 DUP4 PUSH2 0x14E4 JUMP JUMPDEST PUSH1 0x20 DUP4 ADD SWAP1 POP SWAP3 SWAP2 POP POP JUMP JUMPDEST PUSH1 0x0 PUSH1 0x20 DUP3 ADD SWAP1 POP SWAP2 SWAP1 POP JUMP JUMPDEST PUSH1 0x0 PUSH2 0x1523 DUP3 PUSH2 0x14B8 JUMP JUMPDEST PUSH2 0x152D DUP2 DUP6 PUSH2 0x14C3 JUMP JUMPDEST SWAP4 POP PUSH2 0x1538 DUP4 PUSH2 0x14D4 JUMP JUMPDEST DUP1 PUSH1 0x0 JUMPDEST DUP4 DUP2 LT ISZERO PUSH2 0x1569 JUMPI DUP2 MLOAD PUSH2 0x1550 DUP9 DUP3 PUSH2 0x14F3 JUMP JUMPDEST SWAP8 POP PUSH2 0x155B DUP4 PUSH2 0x150B JUMP JUMPDEST SWAP3 POP POP PUSH1 0x1 DUP2 ADD SWAP1 POP PUSH2 0x153C JUMP JUMPDEST POP DUP6 SWAP4 POP POP POP POP SWAP3 SWAP2 POP POP JUMP JUMPDEST PUSH1 0x0 PUSH1 0x20 DUP3 ADD SWAP1 POP DUP2 DUP2 SUB PUSH1 0x0 DUP4 ADD MSTORE PUSH2 0x1590 DUP2 DUP5 PUSH2 0x1518 JUMP JUMPDEST SWAP1 POP SWAP3 SWAP2 POP POP JUMP JUMPDEST PUSH1 0x0 DUP1 PUSH1 0x40 DUP4 DUP6 SUB SLT ISZERO PUSH2 0x15AF JUMPI PUSH2 0x15AE PUSH2 0x139B JUMP JUMPDEST JUMPDEST PUSH1 0x0 PUSH2 0x15BD DUP6 DUP3 DUP7 ADD PUSH2 0x1476 JUMP JUMPDEST SWAP3 POP POP PUSH1 0x20 PUSH2 0x15CE DUP6 DUP3 DUP7 ADD PUSH2 0x1476 JUMP JUMPDEST SWAP2 POP POP SWAP3 POP SWAP3 SWAP1 POP JUMP JUMPDEST PUSH2 0x15E1 DUP2 PUSH2 0x13C0 JUMP JUMPDEST DUP3 MSTORE POP POP JUMP JUMPDEST PUSH1 0x0 PUSH1 0x20 DUP3 ADD SWAP1 POP PUSH2 0x15FC PUSH1 0x0 DUP4 ADD DUP5 PUSH2 0x15D8 JUMP JUMPDEST SWAP3 SWAP2 POP POP JUMP JUMPDEST PUSH1 0x0 DUP2 MLOAD SWAP1 POP SWAP2 SWAP1 POP JUMP JUMPDEST PUSH1 0x0 DUP3 DUP3 MSTORE PUSH1 0x20 DUP3 ADD SWAP1 POP SWAP3 SWAP2 POP POP JUMP JUMPDEST PUSH1 0x0 DUP2 SWAP1 POP PUSH1 0x20 DUP3 ADD SWAP1 POP SWAP2 SWAP1 POP JUMP JUMPDEST PUSH1 0x0 DUP2 ISZERO ISZERO SWAP1 POP SWAP2 SWAP1 POP JUMP JUMPDEST PUSH2 0x1643 DUP2 PUSH2 0x162E JUMP JUMPDEST DUP3 MSTORE POP POP JUMP JUMPDEST PUSH1 0x80 DUP3 ADD PUSH1 0x0 DUP3 ADD MLOAD PUSH2 0x165F PUSH1 0x0 DUP6 ADD DUP3 PUSH2 0x14E4 JUMP JUMPDEST POP PUSH1 0x20 DUP3 ADD MLOAD PUSH2 0x1672 PUSH1 0x20 DUP6 ADD DUP3 PUSH2 0x14E4 JUMP JUMPDEST POP PUSH1 0x40 DUP3 ADD MLOAD PUSH2 0x1685 PUSH1 0x40 DUP6 ADD DUP3 PUSH2 0x14E4 JUMP JUMPDEST POP PUSH1 0x60 DUP3 ADD MLOAD PUSH2 0x1698 PUSH1 0x60 DUP6 ADD DUP3 PUSH2 0x163A JUMP JUMPDEST POP POP POP POP JUMP JUMPDEST PUSH1 0x0 PUSH2 0x16AA DUP4 DUP4 PUSH2 0x1649 JUMP JUMPDEST PUSH1 0x80 DUP4 ADD SWAP1 POP SWAP3 SWAP2 POP POP JUMP JUMPDEST PUSH1 0x0 PUSH1 0x20 DUP3 ADD SWAP1 POP SWAP2 SWAP1 POP JUMP JUMPDEST PUSH1 0x0 PUSH2 0x16CE DUP3 PUSH2 0x1602 JUMP JUMPDEST PUSH2 0x16D8 DUP2 DUP6 PUSH2 0x160D JUMP JUMPDEST SWAP4 POP PUSH2 0x16E3 DUP4 PUSH2 0x161E JUMP JUMPDEST DUP1 PUSH1 0x0 JUMPDEST DUP4 DUP2 LT ISZERO PUSH2 0x1714 JUMPI DUP2 MLOAD PUSH2 0x16FB DUP9 DUP3 PUSH2 0x169E JUMP JUMPDEST SWAP8 POP PUSH2 0x1706 DUP4 PUSH2 0x16B6 JUMP JUMPDEST SWAP3 POP POP PUSH1 0x1 DUP2 ADD SWAP1 POP PUSH2 0x16E7 JUMP JUMPDEST POP DUP6 SWAP4 POP POP POP POP SWAP3 SWAP2 POP POP JUMP JUMPDEST PUSH1 0x0 PUSH1 0x40 DUP3 ADD SWAP1 POP DUP2 DUP2 SUB PUSH1 0x0 DUP4 ADD MSTORE PUSH2 0x173B DUP2 DUP6 PUSH2 0x1518 JUMP JUMPDEST SWAP1 POP DUP2 DUP2 SUB PUSH1 0x20 DUP4 ADD MSTORE PUSH2 0x174F DUP2 DUP5 PUSH2 0x16C3 JUMP JUMPDEST SWAP1 POP SWAP4 SWAP3 POP POP POP JUMP JUMPDEST PUSH2 0x1761 DUP2 PUSH2 0x162E JUMP JUMPDEST DUP3 MSTORE POP POP JUMP JUMPDEST PUSH1 0x0 PUSH1 0x80 DUP3 ADD SWAP1 POP PUSH2 0x177C PUSH1 0x0 DUP4 ADD DUP8 PUSH2 0x1435 JUMP JUMPDEST PUSH2 0x1789 PUSH1 0x20 DUP4 ADD DUP7 PUSH2 0x1435 JUMP JUMPDEST PUSH2 0x1796 PUSH1 0x40 DUP4 ADD DUP6 PUSH2 0x1435 JUMP JUMPDEST PUSH2 0x17A3 PUSH1 0x60 DUP4 ADD DUP5 PUSH2 0x1758 JUMP JUMPDEST SWAP6 SWAP5 POP POP POP POP POP JUMP JUMPDEST PUSH1 0x0 DUP2 SWAP1 POP SWAP2 SWAP1 POP JUMP JUMPDEST PUSH1 0x0 PUSH2 0x17D1 PUSH2 0x17CC PUSH2 0x17C7 DUP5 PUSH2 0x13A0 JUMP JUMPDEST PUSH2 0x17AC JUMP JUMPDEST PUSH2 0x13A0 JUMP JUMPDEST SWAP1 POP SWAP2 SWAP1 POP JUMP JUMPDEST PUSH1 0x0 PUSH2 0x17E3 DUP3 PUSH2 0x17B6 JUMP JUMPDEST SWAP1 POP SWAP2 SWAP1 POP JUMP JUMPDEST PUSH1 0x0 PUSH2 0x17F5 DUP3 PUSH2 0x17D8 JUMP JUMPDEST SWAP1 POP SWAP2 SWAP1 POP JUMP JUMPDEST PUSH2 0x1805 DUP2 PUSH2 0x17EA JUMP JUMPDEST DUP3 MSTORE POP POP JUMP JUMPDEST PUSH1 0x0 PUSH1 0x20 DUP3 ADD SWAP1 POP PUSH2 0x1820 PUSH1 0x0 DUP4 ADD DUP5 PUSH2 0x17FC JUMP JUMPDEST SWAP3 SWAP2 POP POP JUMP JUMPDEST PUSH32 0x4E487B7100000000000000000000000000000000000000000000000000000000 PUSH1 0x0 MSTORE PUSH1 0x11 PUSH1 0x4 MSTORE PUSH1 0x24 PUSH1 0x0 REVERT JUMPDEST PUSH1 0x0 PUSH2 0x1860 DUP3 PUSH2 0x142B JUMP JUMPDEST SWAP2 POP PUSH32 0xFFFFFFFFFFFFFFFFFFFFFFFFFFFFFFFFFFFFFFFFFFFFFFFFFFFFFFFFFFFFFFFF DUP3 SUB PUSH2 0x1892 JUMPI PUSH2 0x1891 PUSH2 0x1826 JUMP JUMPDEST JUMPDEST PUSH1 0x1 DUP3 ADD SWAP1 POP SWAP2 SWAP1 POP JUMP JUMPDEST PUSH32 0x4E487B7100000000000000000000000000000000000000000000000000000000 PUSH1 0x0 MSTORE PUSH1 0x41 PUSH1 0x4 MSTORE PUSH1 0x24 PUSH1 0x0 REVERT JUMPDEST PUSH32 0x4E487B7100000000000000000000000000000000000000000000000000000000 PUSH1 0x0 MSTORE PUSH1 0x32 PUSH1 0x4 MSTORE PUSH1 0x24 PUSH1 0x0 REVERT JUMPDEST PUSH1 0x0 DUP3 DUP3 MSTORE PUSH1 0x20 DUP3 ADD SWAP1 POP SWAP3 SWAP2 POP POP JUMP JUMPDEST PUSH32 0x4E6F20616D6F756E74207374616B656400000000000000000000000000000000 PUSH1 0x0 DUP3 ADD MSTORE POP JUMP JUMPDEST PUSH1 0x0 PUSH2 0x1942 PUSH1 0x10 DUP4 PUSH2 0x18FB JUMP JUMPDEST SWAP2 POP PUSH2 0x194D DUP3 PUSH2 0x190C JUMP JUMPDEST PUSH1 0x20 DUP3 ADD SWAP1 POP SWAP2 SWAP1 POP JUMP JUMPDEST PUSH1 0x0 PUSH1 0x20 DUP3 ADD SWAP1 POP DUP2 DUP2 SUB PUSH1 0x0 DUP4 ADD MSTORE PUSH2 0x1971 DUP2 PUSH2 0x1935 JUMP JUMPDEST SWAP1 POP SWAP2 SWAP1 POP JUMP JUMPDEST PUSH1 0x0 PUSH1 0x40 DUP3 ADD SWAP1 POP PUSH2 0x198D PUSH1 0x0 DUP4 ADD DUP6 PUSH2 0x15D8 JUMP JUMPDEST PUSH2 0x199A PUSH1 0x20 DUP4 ADD DUP5 PUSH2 0x1435 JUMP JUMPDEST SWAP4 SWAP3 POP POP POP JUMP JUMPDEST PUSH2 0x19AA DUP2 PUSH2 0x162E JUMP JUMPDEST DUP2 EQ PUSH2 0x19B5 JUMPI PUSH1 0x0 DUP1 REVERT JUMPDEST POP JUMP JUMPDEST PUSH1 0x0 DUP2 MLOAD SWAP1 POP PUSH2 0x19C7 DUP2 PUSH2 0x19A1 JUMP JUMPDEST SWAP3 SWAP2 POP POP JUMP JUMPDEST PUSH1 0x0 PUSH1 0x20 DUP3 DUP5 SUB SLT ISZERO PUSH2 0x19E3 JUMPI PUSH2 0x19E2 PUSH2 0x139B JUMP JUMPDEST JUMPDEST PUSH1 0x0 PUSH2 0x19F1 DUP5 DUP3 DUP6 ADD PUSH2 0x19B8 JUMP JUMPDEST SWAP2 POP POP SWAP3 SWAP2 POP POP JUMP JUMPDEST PUSH32 0x4D757374207374616B65206D6F7265207468616E207A65726F20746F6B656E73 PUSH1 0x0 DUP3 ADD MSTORE POP JUMP JUMPDEST PUSH1 0x0 PUSH2 0x1A30 PUSH1 0x20 DUP4 PUSH2 0x18FB JUMP JUMPDEST SWAP2 POP PUSH2 0x1A3B DUP3 PUSH2 0x19FA JUMP JUMPDEST PUSH1 0x20 DUP3 ADD SWAP1 POP SWAP2 SWAP1 POP JUMP JUMPDEST PUSH1 0x0 PUSH1 0x20 DUP3 ADD SWAP1 POP DUP2 DUP2 SUB PUSH1 0x0 DUP4 ADD MSTORE PUSH2 0x1A5F DUP2 PUSH2 0x1A23 JUMP JUMPDEST SWAP1 POP SWAP2 SWAP1 POP JUMP JUMPDEST PUSH1 0x0 DUP2 MLOAD SWAP1 POP PUSH2 0x1A75 DUP2 PUSH2 0x145F JUMP JUMPDEST SWAP3 SWAP2 POP POP JUMP JUMPDEST PUSH1 0x0 PUSH1 0x20 DUP3 DUP5 SUB SLT ISZERO PUSH2 0x1A91 JUMPI PUSH2 0x1A90 PUSH2 0x139B JUMP JUMPDEST JUMPDEST PUSH1 0x0 PUSH2 0x1A9F DUP5 DUP3 DUP6 ADD PUSH2 0x1A66 JUMP JUMPDEST SWAP2 POP POP SWAP3 SWAP2 POP POP JUMP JUMPDEST PUSH32 0x4E6F7420456E6F7567682042616C616E636520546F6B656E7320546F20537461 PUSH1 0x0 DUP3 ADD MSTORE PUSH32 0x6B65000000000000000000000000000000000000000000000000000000000000 PUSH1 0x20 DUP3 ADD MSTORE POP JUMP JUMPDEST PUSH1 0x0 PUSH2 0x1B04 PUSH1 0x22 DUP4 PUSH2 0x18FB JUMP JUMPDEST SWAP2 POP PUSH2 0x1B0F DUP3 PUSH2 0x1AA8 JUMP JUMPDEST PUSH1 0x40 DUP3 ADD SWAP1 POP SWAP2 SWAP1 POP JUMP JUMPDEST PUSH1 0x0 PUSH1 0x20 DUP3 ADD SWAP1 POP DUP2 DUP2 SUB PUSH1 0x0 DUP4 ADD MSTORE PUSH2 0x1B33 DUP2 PUSH2 0x1AF7 JUMP JUMPDEST SWAP1 POP SWAP2 SWAP1 POP JUMP JUMPDEST PUSH32 0x54696D652063616E204F6E6C79206265206F6620322C342C362C382C3130204D PUSH1 0x0 DUP3 ADD MSTORE PUSH32 0x696E757465730000000000000000000000000000000000000000000000000000 PUSH1 0x20 DUP3 ADD MSTORE POP JUMP JUMPDEST PUSH1 0x0 PUSH2 0x1B96 PUSH1 0x26 DUP4 PUSH2 0x18FB JUMP JUMPDEST SWAP2 POP PUSH2 0x1BA1 DUP3 PUSH2 0x1B3A JUMP JUMPDEST PUSH1 0x40 DUP3 ADD SWAP1 POP SWAP2 SWAP1 POP JUMP JUMPDEST PUSH1 0x0 PUSH1 0x20 DUP3 ADD SWAP1 POP DUP2 DUP2 SUB PUSH1 0x0 DUP4 ADD MSTORE PUSH2 0x1BC5 DUP2 PUSH2 0x1B89 JUMP JUMPDEST SWAP1 POP SWAP2 SWAP1 POP JUMP JUMPDEST PUSH1 0x0 PUSH1 0x60 DUP3 ADD SWAP1 POP PUSH2 0x1BE1 PUSH1 0x0 DUP4 ADD DUP7 PUSH2 0x15D8 JUMP JUMPDEST PUSH2 0x1BEE PUSH1 0x20 DUP4 ADD DUP6 PUSH2 0x15D8 JUMP JUMPDEST PUSH2 0x1BFB PUSH1 0x40 DUP4 ADD DUP5 PUSH2 0x1435 JUMP JUMPDEST SWAP5 SWAP4 POP POP POP POP JUMP JUMPDEST PUSH32 0x4769766520617070726F76616C2066726F6D20696E697469616C20746F207374 PUSH1 0x0 DUP3 ADD MSTORE PUSH32 0x616B650000000000000000000000000000000000000000000000000000000000 PUSH1 0x20 DUP3 ADD MSTORE POP JUMP JUMPDEST PUSH1 0x0 PUSH2 0x1C5F PUSH1 0x23 DUP4 PUSH2 0x18FB JUMP JUMPDEST SWAP2 POP PUSH2 0x1C6A DUP3 PUSH2 0x1C03 JUMP JUMPDEST PUSH1 0x40 DUP3 ADD SWAP1 POP SWAP2 SWAP1 POP JUMP JUMPDEST PUSH1 0x0 PUSH1 0x20 DUP3 ADD SWAP1 POP DUP2 DUP2 SUB PUSH1 0x0 DUP4 ADD MSTORE PUSH2 0x1C8E DUP2 PUSH2 0x1C52 JUMP JUMPDEST SWAP1 POP SWAP2 SWAP1 POP JUMP JUMPDEST PUSH1 0x0 PUSH2 0x1CA0 DUP3 PUSH2 0x142B JUMP JUMPDEST SWAP2 POP PUSH2 0x1CAB DUP4 PUSH2 0x142B JUMP JUMPDEST SWAP3 POP DUP3 DUP3 ADD SWAP1 POP DUP1 DUP3 GT ISZERO PUSH2 0x1CC3 JUMPI PUSH2 0x1CC2 PUSH2 0x1826 JUMP JUMPDEST JUMPDEST SWAP3 SWAP2 POP POP JUMP JUMPDEST PUSH1 0x0 PUSH2 0x1CD4 DUP3 PUSH2 0x142B JUMP JUMPDEST SWAP2 POP PUSH2 0x1CDF DUP4 PUSH2 0x142B JUMP JUMPDEST SWAP3 POP DUP3 DUP3 MUL PUSH2 0x1CED DUP2 PUSH2 0x142B JUMP JUMPDEST SWAP2 POP DUP3 DUP3 DIV DUP5 EQ DUP4 ISZERO OR PUSH2 0x1D04 JUMPI PUSH2 0x1D03 PUSH2 0x1826 JUMP JUMPDEST JUMPDEST POP SWAP3 SWAP2 POP POP JUMP JUMPDEST PUSH32 0x596F7520686176656E2774207374616B656420616E7920616D6F756E74000000 PUSH1 0x0 DUP3 ADD MSTORE POP JUMP JUMPDEST PUSH1 0x0 PUSH2 0x1D41 PUSH1 0x1D DUP4 PUSH2 0x18FB JUMP JUMPDEST SWAP2 POP PUSH2 0x1D4C DUP3 PUSH2 0x1D0B JUMP JUMPDEST PUSH1 0x20 DUP3 ADD SWAP1 POP SWAP2 SWAP1 POP JUMP JUMPDEST PUSH1 0x0 PUSH1 0x20 DUP3 ADD SWAP1 POP DUP2 DUP2 SUB PUSH1 0x0 DUP4 ADD MSTORE PUSH2 0x1D70 DUP2 PUSH2 0x1D34 JUMP JUMPDEST SWAP1 POP SWAP2 SWAP1 POP JUMP JUMPDEST PUSH32 0x4E6F2072657761726420746F20636C61696D0000000000000000000000000000 PUSH1 0x0 DUP3 ADD MSTORE POP JUMP JUMPDEST PUSH1 0x0 PUSH2 0x1DAD PUSH1 0x12 DUP4 PUSH2 0x18FB JUMP JUMPDEST SWAP2 POP PUSH2 0x1DB8 DUP3 PUSH2 0x1D77 JUMP JUMPDEST PUSH1 0x20 DUP3 ADD SWAP1 POP SWAP2 SWAP1 POP JUMP JUMPDEST PUSH1 0x0 PUSH1 0x20 DUP3 ADD SWAP1 POP DUP2 DUP2 SUB PUSH1 0x0 DUP4 ADD MSTORE PUSH2 0x1DDC DUP2 PUSH2 0x1DA0 JUMP JUMPDEST SWAP1 POP SWAP2 SWAP1 POP JUMP JUMPDEST PUSH1 0x0 PUSH2 0x1DEE DUP3 PUSH2 0x142B JUMP JUMPDEST SWAP2 POP PUSH2 0x1DF9 DUP4 PUSH2 0x142B JUMP JUMPDEST SWAP3 POP DUP3 DUP3 SUB SWAP1 POP DUP2 DUP2 GT ISZERO PUSH2 0x1E11 JUMPI PUSH2 0x1E10 PUSH2 0x1826 JUMP JUMPDEST JUMPDEST SWAP3 SWAP2 POP POP JUMP JUMPDEST PUSH32 0x4E487B7100000000000000000000000000000000000000000000000000000000 PUSH1 0x0 MSTORE PUSH1 0x12 PUSH1 0x4 MSTORE PUSH1 0x24 PUSH1 0x0 REVERT JUMPDEST PUSH1 0x0 PUSH2 0x1E51 DUP3 PUSH2 0x142B JUMP JUMPDEST SWAP2 POP PUSH2 0x1E5C DUP4 PUSH2 0x142B JUMP JUMPDEST SWAP3 POP DUP3 PUSH2 0x1E6C JUMPI PUSH2 0x1E6B PUSH2 0x1E17 JUMP JUMPDEST JUMPDEST DUP3 DUP3 DIV SWAP1 POP SWAP3 SWAP2 POP POP JUMP INVALID LOG2 PUSH5 0x6970667358 0x22 SLT KECCAK256 SWAP4 GT 0xE2 0xF PUSH5 0xDEDF64C3DD LOG1 DIV 0xDE SUB LOG3 0xDA PUSH20 0x175C0F824924CCE00FF1C9E3659E1264736F6C63 NUMBER STOP ADDMOD SLT STOP CALLER "
				},
				"gasEstimates": {
					"creation": {
						"codeDepositCost": "1570600",
						"executionCost": "infinite",
						"totalCost": "infinite"
					},
					"external": {
						"CurrentTime()": "380",
						"IdsAndDetails(address)": "infinite",
						"claimAmount(address)": "infinite",
						"claimReward(address)": "infinite",
						"contractBalance()": "infinite",
						"genrateReward(uint256)": "infinite",
						"getIds(address)": "infinite",
						"interest()": "2474",
						"owner()": "2603",
						"rewards(address)": "2838",
						"stake(uint256,uint256)": "infinite",
						"stakeTime(uint256)": "infinite",
						"stakes(uint256)": "infinite",
						"stakingOwner(uint256)": "2862",
						"token()": "infinite"
					},
					"internal": {
						"min(uint256,uint256)": "64"
					}
				},
				"methodIdentifiers": {
					"CurrentTime()": "d80e8700",
					"IdsAndDetails(address)": "c9352971",
					"claimAmount(address)": "78317be7",
					"claimReward(address)": "d279c191",
					"contractBalance()": "8b7afe2e",
					"genrateReward(uint256)": "f3a93e80",
					"getIds(address)": "2671b0d8",
					"interest()": "c392f766",
					"owner()": "8da5cb5b",
					"rewards(address)": "0700037d",
					"stake(uint256,uint256)": "7b0472f0",
					"stakeTime(uint256)": "0a42f049",
					"stakes(uint256)": "d5a44f86",
					"stakingOwner(uint256)": "90eb2981",
					"token()": "fc0c546a"
				}
			},
			"storageLayout": {
				"storage": [
					{
						"astId": 162,
						"contract": "Staking/staking.sol:staking",
						"label": "StakeIdCounter",
						"offset": 0,
						"slot": "0",
						"type": "t_struct(Counter)83_storage"
					},
					{
						"astId": 165,
						"contract": "Staking/staking.sol:staking",
						"label": "token",
						"offset": 0,
						"slot": "1",
						"type": "t_contract(IERC20)77"
					},
					{
						"astId": 167,
						"contract": "Staking/staking.sol:staking",
						"label": "owner",
						"offset": 0,
						"slot": "2",
						"type": "t_address"
					},
					{
						"astId": 170,
						"contract": "Staking/staking.sol:staking",
						"label": "interest",
						"offset": 0,
						"slot": "3",
						"type": "t_uint256"
					},
					{
						"astId": 183,
						"contract": "Staking/staking.sol:staking",
						"label": "stakingOwner",
						"offset": 0,
						"slot": "4",
						"type": "t_mapping(t_uint256,t_address)"
					},
					{
						"astId": 188,
						"contract": "Staking/staking.sol:staking",
						"label": "stakes",
						"offset": 0,
						"slot": "5",
						"type": "t_mapping(t_uint256,t_struct(StakingInfo)179_storage)"
					},
					{
						"astId": 192,
						"contract": "Staking/staking.sol:staking",
						"label": "rewards",
						"offset": 0,
						"slot": "6",
						"type": "t_mapping(t_address,t_uint256)"
					}
				],
				"types": {
					"t_address": {
						"encoding": "inplace",
						"label": "address",
						"numberOfBytes": "20"
					},
					"t_bool": {
						"encoding": "inplace",
						"label": "bool",
						"numberOfBytes": "1"
					},
					"t_contract(IERC20)77": {
						"encoding": "inplace",
						"label": "contract IERC20",
						"numberOfBytes": "20"
					},
					"t_mapping(t_address,t_uint256)": {
						"encoding": "mapping",
						"key": "t_address",
						"label": "mapping(address => uint256)",
						"numberOfBytes": "32",
						"value": "t_uint256"
					},
					"t_mapping(t_uint256,t_address)": {
						"encoding": "mapping",
						"key": "t_uint256",
						"label": "mapping(uint256 => address)",
						"numberOfBytes": "32",
						"value": "t_address"
					},
					"t_mapping(t_uint256,t_struct(StakingInfo)179_storage)": {
						"encoding": "mapping",
						"key": "t_uint256",
						"label": "mapping(uint256 => struct staking.StakingInfo)",
						"numberOfBytes": "32",
						"value": "t_struct(StakingInfo)179_storage"
					},
					"t_struct(Counter)83_storage": {
						"encoding": "inplace",
						"label": "struct Counters.Counter",
						"members": [
							{
								"astId": 82,
								"contract": "Staking/staking.sol:staking",
								"label": "_value",
								"offset": 0,
								"slot": "0",
								"type": "t_uint256"
							}
						],
						"numberOfBytes": "32"
					},
					"t_struct(StakingInfo)179_storage": {
						"encoding": "inplace",
						"label": "struct staking.StakingInfo",
						"members": [
							{
								"astId": 172,
								"contract": "Staking/staking.sol:staking",
								"label": "StakedAmount",
								"offset": 0,
								"slot": "0",
								"type": "t_uint256"
							},
							{
								"astId": 174,
								"contract": "Staking/staking.sol:staking",
								"label": "StakedTime",
								"offset": 0,
								"slot": "1",
								"type": "t_uint256"
							},
							{
								"astId": 176,
								"contract": "Staking/staking.sol:staking",
								"label": "duration",
								"offset": 0,
								"slot": "2",
								"type": "t_uint256"
							},
							{
								"astId": 178,
								"contract": "Staking/staking.sol:staking",
								"label": "expired",
								"offset": 0,
								"slot": "3",
								"type": "t_bool"
							}
						],
						"numberOfBytes": "128"
					},
					"t_uint256": {
						"encoding": "inplace",
						"label": "uint256",
						"numberOfBytes": "32"
					}
				}
			},
			"userdoc": {
				"kind": "user",
				"methods": {},
				"version": 1
			}
		}
	}
}