{
	"time.sol": {
		"abc": {
			"abi": [
				{
					"inputs": [
						{
							"internalType": "uint256",
							"name": "_durationInSeconds",
							"type": "uint256"
						}
					],
					"stateMutability": "nonpayable",
					"type": "constructor"
				},
				{
					"inputs": [],
					"name": "endTime",
					"outputs": [
						{
							"internalType": "uint256",
							"name": "",
							"type": "uint256"
						}
					],
					"stateMutability": "view",
					"type": "function"
				},
				{
					"inputs": [],
					"name": "getCurrentTime",
					"outputs": [
						{
							"internalType": "uint256",
							"name": "",
							"type": "uint256"
						}
					],
					"stateMutability": "view",
					"type": "function"
				},
				{
					"inputs": [],
					"name": "isContractActive",
					"outputs": [
						{
							"internalType": "bool",
							"name": "",
							"type": "bool"
						}
					],
					"stateMutability": "view",
					"type": "function"
				},
				{
					"inputs": [],
					"name": "startTime",
					"outputs": [
						{
							"internalType": "uint256",
							"name": "",
							"type": "uint256"
						}
					],
					"stateMutability": "view",
					"type": "function"
				},
				{
					"inputs": [
						{
							"internalType": "uint256",
							"name": "timestamp",
							"type": "uint256"
						}
					],
					"name": "timestampToDate",
					"outputs": [
						{
							"internalType": "string",
							"name": "",
							"type": "string"
						}
					],
					"stateMutability": "pure",
					"type": "function"
				}
			],
			"devdoc": {
				"kind": "dev",
				"methods": {},
				"version": 1
			},
			"evm": {
				"assembly": "    /* \"time.sol\":68:2375  contract abc{... */\n  mstore(0x40, 0x80)\n    /* \"time.sol\":145:279  constructor(uint256 _durationInSeconds) {... */\n  callvalue\n  dup1\n  iszero\n  tag_1\n  jumpi\n  0x00\n  dup1\n  revert\ntag_1:\n  pop\n  mload(0x40)\n  sub(codesize, bytecodeSize)\n  dup1\n  bytecodeSize\n  dup4\n  codecopy\n  dup2\n  dup2\n  add\n  0x40\n  mstore\n  dup2\n  add\n  swap1\n  tag_2\n  swap2\n  swap1\n  tag_3\n  jump\t// in\ntag_2:\n    /* \"time.sol\":207:222  block.timestamp */\n  timestamp\n    /* \"time.sol\":195:204  startTime */\n  0x00\n    /* \"time.sol\":195:222  startTime = block.timestamp */\n  dup2\n  swap1\n  sstore\n  pop\n    /* \"time.sol\":254:272  _durationInSeconds */\n  dup1\n    /* \"time.sol\":242:251  startTime */\n  sload(0x00)\n    /* \"time.sol\":242:272  startTime + _durationInSeconds */\n  tag_6\n  swap2\n  swap1\n  tag_7\n  jump\t// in\ntag_6:\n    /* \"time.sol\":232:239  endTime */\n  0x01\n    /* \"time.sol\":232:272  endTime = startTime + _durationInSeconds */\n  dup2\n  swap1\n  sstore\n  pop\n    /* \"time.sol\":145:279  constructor(uint256 _durationInSeconds) {... */\n  pop\n    /* \"time.sol\":68:2375  contract abc{... */\n  jump(tag_8)\n    /* \"#utility.yul\":88:205   */\ntag_10:\n    /* \"#utility.yul\":197:198   */\n  0x00\n    /* \"#utility.yul\":194:195   */\n  dup1\n    /* \"#utility.yul\":187:199   */\n  revert\n    /* \"#utility.yul\":334:411   */\ntag_12:\n    /* \"#utility.yul\":371:378   */\n  0x00\n    /* \"#utility.yul\":400:405   */\n  dup2\n    /* \"#utility.yul\":389:405   */\n  swap1\n  pop\n    /* \"#utility.yul\":334:411   */\n  swap2\n  swap1\n  pop\n  jump\t// out\n    /* \"#utility.yul\":417:539   */\ntag_13:\n    /* \"#utility.yul\":490:514   */\n  tag_22\n    /* \"#utility.yul\":508:513   */\n  dup2\n    /* \"#utility.yul\":490:514   */\n  tag_12\n  jump\t// in\ntag_22:\n    /* \"#utility.yul\":483:488   */\n  dup2\n    /* \"#utility.yul\":480:515   */\n  eq\n    /* \"#utility.yul\":470:533   */\n  tag_23\n  jumpi\n    /* \"#utility.yul\":529:530   */\n  0x00\n    /* \"#utility.yul\":526:527   */\n  dup1\n    /* \"#utility.yul\":519:531   */\n  revert\n    /* \"#utility.yul\":470:533   */\ntag_23:\n    /* \"#utility.yul\":417:539   */\n  pop\n  jump\t// out\n    /* \"#utility.yul\":545:688   */\ntag_14:\n    /* \"#utility.yul\":602:607   */\n  0x00\n    /* \"#utility.yul\":633:639   */\n  dup2\n    /* \"#utility.yul\":627:640   */\n  mload\n    /* \"#utility.yul\":618:640   */\n  swap1\n  pop\n    /* \"#utility.yul\":649:682   */\n  tag_25\n    /* \"#utility.yul\":676:681   */\n  dup2\n    /* \"#utility.yul\":649:682   */\n  tag_13\n  jump\t// in\ntag_25:\n    /* \"#utility.yul\":545:688   */\n  swap3\n  swap2\n  pop\n  pop\n  jump\t// out\n    /* \"#utility.yul\":694:1045   */\ntag_3:\n    /* \"#utility.yul\":764:770   */\n  0x00\n    /* \"#utility.yul\":813:815   */\n  0x20\n    /* \"#utility.yul\":801:810   */\n  dup3\n    /* \"#utility.yul\":792:799   */\n  dup5\n    /* \"#utility.yul\":788:811   */\n  sub\n    /* \"#utility.yul\":784:816   */\n  slt\n    /* \"#utility.yul\":781:900   */\n  iszero\n  tag_27\n  jumpi\n    /* \"#utility.yul\":819:898   */\n  tag_28\n  tag_10\n  jump\t// in\ntag_28:\n    /* \"#utility.yul\":781:900   */\ntag_27:\n    /* \"#utility.yul\":939:940   */\n  0x00\n    /* \"#utility.yul\":964:1028   */\n  tag_29\n    /* \"#utility.yul\":1020:1027   */\n  dup5\n    /* \"#utility.yul\":1011:1017   */\n  dup3\n    /* \"#utility.yul\":1000:1009   */\n  dup6\n    /* \"#utility.yul\":996:1018   */\n  add\n    /* \"#utility.yul\":964:1028   */\n  tag_14\n  jump\t// in\ntag_29:\n    /* \"#utility.yul\":954:1028   */\n  swap2\n  pop\n    /* \"#utility.yul\":910:1038   */\n  pop\n    /* \"#utility.yul\":694:1045   */\n  swap3\n  swap2\n  pop\n  pop\n  jump\t// out\n    /* \"#utility.yul\":1051:1231   */\ntag_15:\n    /* \"#utility.yul\":1099:1176   */\n  0x4e487b7100000000000000000000000000000000000000000000000000000000\n    /* \"#utility.yul\":1096:1097   */\n  0x00\n    /* \"#utility.yul\":1089:1177   */\n  mstore\n    /* \"#utility.yul\":1196:1200   */\n  0x11\n    /* \"#utility.yul\":1193:1194   */\n  0x04\n    /* \"#utility.yul\":1186:1201   */\n  mstore\n    /* \"#utility.yul\":1220:1224   */\n  0x24\n    /* \"#utility.yul\":1217:1218   */\n  0x00\n    /* \"#utility.yul\":1210:1225   */\n  revert\n    /* \"#utility.yul\":1237:1428   */\ntag_7:\n    /* \"#utility.yul\":1277:1280   */\n  0x00\n    /* \"#utility.yul\":1296:1316   */\n  tag_32\n    /* \"#utility.yul\":1314:1315   */\n  dup3\n    /* \"#utility.yul\":1296:1316   */\n  tag_12\n  jump\t// in\ntag_32:\n    /* \"#utility.yul\":1291:1316   */\n  swap2\n  pop\n    /* \"#utility.yul\":1330:1350   */\n  tag_33\n    /* \"#utility.yul\":1348:1349   */\n  dup4\n    /* \"#utility.yul\":1330:1350   */\n  tag_12\n  jump\t// in\ntag_33:\n    /* \"#utility.yul\":1325:1350   */\n  swap3\n  pop\n    /* \"#utility.yul\":1373:1374   */\n  dup3\n    /* \"#utility.yul\":1370:1371   */\n  dup3\n    /* \"#utility.yul\":1366:1375   */\n  add\n    /* \"#utility.yul\":1359:1375   */\n  swap1\n  pop\n    /* \"#utility.yul\":1394:1397   */\n  dup1\n    /* \"#utility.yul\":1391:1392   */\n  dup3\n    /* \"#utility.yul\":1388:1398   */\n  gt\n    /* \"#utility.yul\":1385:1421   */\n  iszero\n  tag_34\n  jumpi\n    /* \"#utility.yul\":1401:1419   */\n  tag_35\n  tag_15\n  jump\t// in\ntag_35:\n    /* \"#utility.yul\":1385:1421   */\ntag_34:\n    /* \"#utility.yul\":1237:1428   */\n  swap3\n  swap2\n  pop\n  pop\n  jump\t// out\n    /* \"time.sol\":68:2375  contract abc{... */\ntag_8:\n  dataSize(sub_0)\n  dup1\n  dataOffset(sub_0)\n  0x00\n  codecopy\n  0x00\n  return\nstop\n\nsub_0: assembly {\n        /* \"time.sol\":68:2375  contract abc{... */\n      mstore(0x40, 0x80)\n      callvalue\n      dup1\n      iszero\n      tag_1\n      jumpi\n      0x00\n      dup1\n      revert\n    tag_1:\n      pop\n      jumpi(tag_2, lt(calldatasize, 0x04))\n      shr(0xe0, calldataload(0x00))\n      dup1\n      0x29cb924d\n      eq\n      tag_3\n      jumpi\n      dup1\n      0x3197cbb6\n      eq\n      tag_4\n      jumpi\n      dup1\n      0x78e97925\n      eq\n      tag_5\n      jumpi\n      dup1\n      0x8f5949f9\n      eq\n      tag_6\n      jumpi\n      dup1\n      0xde5101af\n      eq\n      tag_7\n      jumpi\n    tag_2:\n      0x00\n      dup1\n      revert\n        /* \"time.sol\":395:490  function getCurrentTime() public view returns (uint256) {... */\n    tag_3:\n      tag_8\n      tag_9\n      jump\t// in\n    tag_8:\n      mload(0x40)\n      tag_10\n      swap2\n      swap1\n      tag_11\n      jump\t// in\n    tag_10:\n      mload(0x40)\n      dup1\n      swap2\n      sub\n      swap1\n      return\n        /* \"time.sol\":116:138  uint256 public endTime */\n    tag_4:\n      tag_12\n      tag_13\n      jump\t// in\n    tag_12:\n      mload(0x40)\n      tag_14\n      swap2\n      swap1\n      tag_11\n      jump\t// in\n    tag_14:\n      mload(0x40)\n      dup1\n      swap2\n      sub\n      swap1\n      return\n        /* \"time.sol\":86:110  uint256 public startTime */\n    tag_5:\n      tag_15\n      tag_16\n      jump\t// in\n    tag_15:\n      mload(0x40)\n      tag_17\n      swap2\n      swap1\n      tag_11\n      jump\t// in\n    tag_17:\n      mload(0x40)\n      dup1\n      swap2\n      sub\n      swap1\n      return\n        /* \"time.sol\":285:389  function isContractActive() public view returns (bool) {... */\n    tag_6:\n      tag_18\n      tag_19\n      jump\t// in\n    tag_18:\n      mload(0x40)\n      tag_20\n      swap2\n      swap1\n      tag_21\n      jump\t// in\n    tag_20:\n      mload(0x40)\n      dup1\n      swap2\n      sub\n      swap1\n      return\n        /* \"time.sol\":495:1832  function timestampToDate(uint256 timestamp) public pure returns (string memory) {... */\n    tag_7:\n      tag_22\n      0x04\n      dup1\n      calldatasize\n      sub\n      dup2\n      add\n      swap1\n      tag_23\n      swap2\n      swap1\n      tag_24\n      jump\t// in\n    tag_23:\n      tag_25\n      jump\t// in\n    tag_22:\n      mload(0x40)\n      tag_26\n      swap2\n      swap1\n      tag_27\n      jump\t// in\n    tag_26:\n      mload(0x40)\n      dup1\n      swap2\n      sub\n      swap1\n      return\n        /* \"time.sol\":395:490  function getCurrentTime() public view returns (uint256) {... */\n    tag_9:\n        /* \"time.sol\":442:449  uint256 */\n      0x00\n        /* \"time.sol\":468:483  block.timestamp */\n      timestamp\n        /* \"time.sol\":461:483  return block.timestamp */\n      swap1\n      pop\n        /* \"time.sol\":395:490  function getCurrentTime() public view returns (uint256) {... */\n      swap1\n      jump\t// out\n        /* \"time.sol\":116:138  uint256 public endTime */\n    tag_13:\n      sload(0x01)\n      dup2\n      jump\t// out\n        /* \"time.sol\":86:110  uint256 public startTime */\n    tag_16:\n      sload(0x00)\n      dup2\n      jump\t// out\n        /* \"time.sol\":285:389  function isContractActive() public view returns (bool) {... */\n    tag_19:\n        /* \"time.sol\":334:338  bool */\n      0x00\n        /* \"time.sol\":375:382  endTime */\n      sload(0x01)\n        /* \"time.sol\":357:372  block.timestamp */\n      timestamp\n        /* \"time.sol\":357:382  block.timestamp < endTime */\n      lt\n        /* \"time.sol\":350:382  return block.timestamp < endTime */\n      swap1\n      pop\n        /* \"time.sol\":285:389  function isContractActive() public view returns (bool) {... */\n      swap1\n      jump\t// out\n        /* \"time.sol\":495:1832  function timestampToDate(uint256 timestamp) public pure returns (string memory) {... */\n    tag_25:\n        /* \"time.sol\":560:573  string memory */\n      0x60\n        /* \"time.sol\":605:606  0 */\n      0x00\n        /* \"time.sol\":593:602  timestamp */\n      dup3\n        /* \"time.sol\":593:606  timestamp > 0 */\n      gt\n        /* \"time.sol\":585:643  require(timestamp > 0, \"Timestamp must be greater than 0\") */\n      tag_31\n      jumpi\n      mload(0x40)\n      0x08c379a000000000000000000000000000000000000000000000000000000000\n      dup2\n      mstore\n      0x04\n      add\n      tag_32\n      swap1\n      tag_33\n      jump\t// in\n    tag_32:\n      mload(0x40)\n      dup1\n      swap2\n      sub\n      swap1\n      revert\n    tag_31:\n        /* \"time.sol\":654:666  uint256 year */\n      0x00\n        /* \"time.sol\":676:689  uint256 month */\n      dup1\n        /* \"time.sol\":699:710  uint256 day */\n      0x00\n        /* \"time.sol\":721:750  uint8[12] memory daysPerMonth */\n      tag_34\n      tag_35\n      jump\t// in\n    tag_34:\n        /* \"time.sol\":778:780  31 */\n      0x1f\n        /* \"time.sol\":760:772  daysPerMonth */\n      dup2\n        /* \"time.sol\":773:774  0 */\n      0x00\n        /* \"time.sol\":760:775  daysPerMonth[0] */\n      0x0c\n      dup2\n      lt\n      tag_36\n      jumpi\n      tag_37\n      tag_38\n      jump\t// in\n    tag_37:\n    tag_36:\n      0x20\n      mul\n      add\n        /* \"time.sol\":760:780  daysPerMonth[0] = 31 */\n      swap1\n      0xff\n      and\n      swap1\n      dup2\n      0xff\n      and\n      dup2\n      mstore\n      pop\n      pop\n        /* \"time.sol\":808:810  28 */\n      0x1c\n        /* \"time.sol\":790:802  daysPerMonth */\n      dup2\n        /* \"time.sol\":803:804  1 */\n      0x01\n        /* \"time.sol\":790:805  daysPerMonth[1] */\n      0x0c\n      dup2\n      lt\n      tag_39\n      jumpi\n      tag_40\n      tag_38\n      jump\t// in\n    tag_40:\n    tag_39:\n      0x20\n      mul\n      add\n        /* \"time.sol\":790:810  daysPerMonth[1] = 28 */\n      swap1\n      0xff\n      and\n      swap1\n      dup2\n      0xff\n      and\n      dup2\n      mstore\n      pop\n      pop\n        /* \"time.sol\":838:840  31 */\n      0x1f\n        /* \"time.sol\":820:832  daysPerMonth */\n      dup2\n        /* \"time.sol\":833:834  2 */\n      0x02\n        /* \"time.sol\":820:835  daysPerMonth[2] */\n      0x0c\n      dup2\n      lt\n      tag_41\n      jumpi\n      tag_42\n      tag_38\n      jump\t// in\n    tag_42:\n    tag_41:\n      0x20\n      mul\n      add\n        /* \"time.sol\":820:840  daysPerMonth[2] = 31 */\n      swap1\n      0xff\n      and\n      swap1\n      dup2\n      0xff\n      and\n      dup2\n      mstore\n      pop\n      pop\n        /* \"time.sol\":868:870  30 */\n      0x1e\n        /* \"time.sol\":850:862  daysPerMonth */\n      dup2\n        /* \"time.sol\":863:864  3 */\n      0x03\n        /* \"time.sol\":850:865  daysPerMonth[3] */\n      0x0c\n      dup2\n      lt\n      tag_43\n      jumpi\n      tag_44\n      tag_38\n      jump\t// in\n    tag_44:\n    tag_43:\n      0x20\n      mul\n      add\n        /* \"time.sol\":850:870  daysPerMonth[3] = 30 */\n      swap1\n      0xff\n      and\n      swap1\n      dup2\n      0xff\n      and\n      dup2\n      mstore\n      pop\n      pop\n        /* \"time.sol\":898:900  31 */\n      0x1f\n        /* \"time.sol\":880:892  daysPerMonth */\n      dup2\n        /* \"time.sol\":893:894  4 */\n      0x04\n        /* \"time.sol\":880:895  daysPerMonth[4] */\n      0x0c\n      dup2\n      lt\n      tag_45\n      jumpi\n      tag_46\n      tag_38\n      jump\t// in\n    tag_46:\n    tag_45:\n      0x20\n      mul\n      add\n        /* \"time.sol\":880:900  daysPerMonth[4] = 31 */\n      swap1\n      0xff\n      and\n      swap1\n      dup2\n      0xff\n      and\n      dup2\n      mstore\n      pop\n      pop\n        /* \"time.sol\":928:930  30 */\n      0x1e\n        /* \"time.sol\":910:922  daysPerMonth */\n      dup2\n        /* \"time.sol\":923:924  5 */\n      0x05\n        /* \"time.sol\":910:925  daysPerMonth[5] */\n      0x0c\n      dup2\n      lt\n      tag_47\n      jumpi\n      tag_48\n      tag_38\n      jump\t// in\n    tag_48:\n    tag_47:\n      0x20\n      mul\n      add\n        /* \"time.sol\":910:930  daysPerMonth[5] = 30 */\n      swap1\n      0xff\n      and\n      swap1\n      dup2\n      0xff\n      and\n      dup2\n      mstore\n      pop\n      pop\n        /* \"time.sol\":958:960  31 */\n      0x1f\n        /* \"time.sol\":940:952  daysPerMonth */\n      dup2\n        /* \"time.sol\":953:954  6 */\n      0x06\n        /* \"time.sol\":940:955  daysPerMonth[6] */\n      0x0c\n      dup2\n      lt\n      tag_49\n      jumpi\n      tag_50\n      tag_38\n      jump\t// in\n    tag_50:\n    tag_49:\n      0x20\n      mul\n      add\n        /* \"time.sol\":940:960  daysPerMonth[6] = 31 */\n      swap1\n      0xff\n      and\n      swap1\n      dup2\n      0xff\n      and\n      dup2\n      mstore\n      pop\n      pop\n        /* \"time.sol\":988:990  31 */\n      0x1f\n        /* \"time.sol\":970:982  daysPerMonth */\n      dup2\n        /* \"time.sol\":983:984  7 */\n      0x07\n        /* \"time.sol\":970:985  daysPerMonth[7] */\n      0x0c\n      dup2\n      lt\n      tag_51\n      jumpi\n      tag_52\n      tag_38\n      jump\t// in\n    tag_52:\n    tag_51:\n      0x20\n      mul\n      add\n        /* \"time.sol\":970:990  daysPerMonth[7] = 31 */\n      swap1\n      0xff\n      and\n      swap1\n      dup2\n      0xff\n      and\n      dup2\n      mstore\n      pop\n      pop\n        /* \"time.sol\":1018:1020  30 */\n      0x1e\n        /* \"time.sol\":1000:1012  daysPerMonth */\n      dup2\n        /* \"time.sol\":1013:1014  8 */\n      0x08\n        /* \"time.sol\":1000:1015  daysPerMonth[8] */\n      0x0c\n      dup2\n      lt\n      tag_53\n      jumpi\n      tag_54\n      tag_38\n      jump\t// in\n    tag_54:\n    tag_53:\n      0x20\n      mul\n      add\n        /* \"time.sol\":1000:1020  daysPerMonth[8] = 30 */\n      swap1\n      0xff\n      and\n      swap1\n      dup2\n      0xff\n      and\n      dup2\n      mstore\n      pop\n      pop\n        /* \"time.sol\":1048:1050  31 */\n      0x1f\n        /* \"time.sol\":1030:1042  daysPerMonth */\n      dup2\n        /* \"time.sol\":1043:1044  9 */\n      0x09\n        /* \"time.sol\":1030:1045  daysPerMonth[9] */\n      0x0c\n      dup2\n      lt\n      tag_55\n      jumpi\n      tag_56\n      tag_38\n      jump\t// in\n    tag_56:\n    tag_55:\n      0x20\n      mul\n      add\n        /* \"time.sol\":1030:1050  daysPerMonth[9] = 31 */\n      swap1\n      0xff\n      and\n      swap1\n      dup2\n      0xff\n      and\n      dup2\n      mstore\n      pop\n      pop\n        /* \"time.sol\":1079:1081  30 */\n      0x1e\n        /* \"time.sol\":1060:1072  daysPerMonth */\n      dup2\n        /* \"time.sol\":1073:1075  10 */\n      0x0a\n        /* \"time.sol\":1060:1076  daysPerMonth[10] */\n      0x0c\n      dup2\n      lt\n      tag_57\n      jumpi\n      tag_58\n      tag_38\n      jump\t// in\n    tag_58:\n    tag_57:\n      0x20\n      mul\n      add\n        /* \"time.sol\":1060:1081  daysPerMonth[10] = 30 */\n      swap1\n      0xff\n      and\n      swap1\n      dup2\n      0xff\n      and\n      dup2\n      mstore\n      pop\n      pop\n        /* \"time.sol\":1110:1112  31 */\n      0x1f\n        /* \"time.sol\":1091:1103  daysPerMonth */\n      dup2\n        /* \"time.sol\":1104:1106  11 */\n      0x0b\n        /* \"time.sol\":1091:1107  daysPerMonth[11] */\n      0x0c\n      dup2\n      lt\n      tag_59\n      jumpi\n      tag_60\n      tag_38\n      jump\t// in\n    tag_60:\n    tag_59:\n      0x20\n      mul\n      add\n        /* \"time.sol\":1091:1112  daysPerMonth[11] = 31 */\n      swap1\n      0xff\n      and\n      swap1\n      dup2\n      0xff\n      and\n      dup2\n      mstore\n      pop\n      pop\n        /* \"time.sol\":1123:1143  uint256 secondsInDay */\n      0x00\n        /* \"time.sol\":1146:1151  86400 */\n      0x015180\n        /* \"time.sol\":1123:1151  uint256 secondsInDay = 86400 */\n      swap1\n      pop\n        /* \"time.sol\":1185:1206  uint256 secondsInYear */\n      0x00\n        /* \"time.sol\":1209:1217  31536000 */\n      0x01e13380\n        /* \"time.sol\":1185:1217  uint256 secondsInYear = 31536000 */\n      swap1\n      pop\n        /* \"time.sol\":1271:1284  secondsInYear */\n      dup1\n        /* \"time.sol\":1259:1268  timestamp */\n      dup9\n        /* \"time.sol\":1259:1284  timestamp / secondsInYear */\n      tag_61\n      swap2\n      swap1\n      tag_62\n      jump\t// in\n    tag_61:\n        /* \"time.sol\":1252:1284  year = timestamp / secondsInYear */\n      swap6\n      pop\n        /* \"time.sol\":1307:1320  secondsInYear */\n      dup1\n        /* \"time.sol\":1294:1320  timestamp %= secondsInYear */\n      dup9\n      tag_63\n      swap2\n      swap1\n      tag_64\n      jump\t// in\n    tag_63:\n      swap8\n      pop\n        /* \"time.sol\":1331:1350  uint256 daysInMonth */\n      0x00\n        /* \"time.sol\":1374:1375  0 */\n      dup1\n        /* \"time.sol\":1366:1375  month = 0 */\n      swap6\n      pop\n        /* \"time.sol\":1361:1650  for (month = 0; month < 12; month++) {... */\n    tag_65:\n        /* \"time.sol\":1385:1387  12 */\n      0x0c\n        /* \"time.sol\":1377:1382  month */\n      dup7\n        /* \"time.sol\":1377:1387  month < 12 */\n      lt\n        /* \"time.sol\":1361:1650  for (month = 0; month < 12; month++) {... */\n      iszero\n      tag_66\n      jumpi\n        /* \"time.sol\":1457:1469  secondsInDay */\n      dup3\n        /* \"time.sol\":1434:1446  daysPerMonth */\n      dup5\n        /* \"time.sol\":1447:1452  month */\n      dup8\n        /* \"time.sol\":1434:1453  daysPerMonth[month] */\n      0x0c\n      dup2\n      lt\n      tag_68\n      jumpi\n      tag_69\n      tag_38\n      jump\t// in\n    tag_69:\n    tag_68:\n      0x20\n      mul\n      add\n      mload\n        /* \"time.sol\":1426:1454  uint256(daysPerMonth[month]) */\n      0xff\n      and\n        /* \"time.sol\":1426:1469  uint256(daysPerMonth[month]) * secondsInDay */\n      tag_70\n      swap2\n      swap1\n      tag_71\n      jump\t// in\n    tag_70:\n        /* \"time.sol\":1412:1469  daysInMonth = uint256(daysPerMonth[month]) * secondsInDay */\n      swap1\n      pop\n        /* \"time.sol\":1499:1510  daysInMonth */\n      dup1\n        /* \"time.sol\":1487:1496  timestamp */\n      dup10\n        /* \"time.sol\":1487:1510  timestamp < daysInMonth */\n      lt\n        /* \"time.sol\":1483:1602  if (timestamp < daysInMonth) {... */\n      iszero\n      tag_72\n      jumpi\n        /* \"time.sol\":1563:1564  1 */\n      0x01\n        /* \"time.sol\":1548:1560  secondsInDay */\n      dup4\n        /* \"time.sol\":1536:1545  timestamp */\n      dup11\n        /* \"time.sol\":1536:1560  timestamp / secondsInDay */\n      tag_73\n      swap2\n      swap1\n      tag_62\n      jump\t// in\n    tag_73:\n        /* \"time.sol\":1536:1564  timestamp / secondsInDay + 1 */\n      tag_74\n      swap2\n      swap1\n      tag_75\n      jump\t// in\n    tag_74:\n        /* \"time.sol\":1530:1564  day = timestamp / secondsInDay + 1 */\n      swap5\n      pop\n        /* \"time.sol\":1582:1587  break */\n      jump(tag_66)\n        /* \"time.sol\":1483:1602  if (timestamp < daysInMonth) {... */\n    tag_72:\n        /* \"time.sol\":1628:1639  daysInMonth */\n      dup1\n        /* \"time.sol\":1615:1639  timestamp -= daysInMonth */\n      dup10\n      tag_76\n      swap2\n      swap1\n      tag_77\n      jump\t// in\n    tag_76:\n      swap9\n      pop\n        /* \"time.sol\":1389:1396  month++ */\n      dup6\n      dup1\n      tag_78\n      swap1\n      tag_79\n      jump\t// in\n    tag_78:\n      swap7\n      pop\n      pop\n        /* \"time.sol\":1361:1650  for (month = 0; month < 12; month++) {... */\n      jump(tag_65)\n    tag_66:\n        /* \"time.sol\":1660:1667  month++ */\n      dup6\n      dup1\n      tag_80\n      swap1\n      tag_79\n      jump\t// in\n    tag_80:\n      swap7\n      pop\n      pop\n        /* \"time.sol\":1732:1749  uintToString(day) */\n      tag_81\n        /* \"time.sol\":1745:1748  day */\n      dup6\n        /* \"time.sol\":1732:1744  uintToString */\n      tag_82\n        /* \"time.sol\":1732:1749  uintToString(day) */\n      jump\t// in\n    tag_81:\n        /* \"time.sol\":1759:1778  uintToString(month) */\n      tag_83\n        /* \"time.sol\":1772:1777  month */\n      dup8\n        /* \"time.sol\":1759:1771  uintToString */\n      tag_82\n        /* \"time.sol\":1759:1778  uintToString(month) */\n      jump\t// in\n    tag_83:\n        /* \"time.sol\":1790:1814  uintToString(year % 100) */\n      tag_84\n        /* \"time.sol\":1810:1813  100 */\n      0x64\n        /* \"time.sol\":1803:1807  year */\n      dup11\n        /* \"time.sol\":1803:1813  year % 100 */\n      tag_85\n      swap2\n      swap1\n      tag_64\n      jump\t// in\n    tag_85:\n        /* \"time.sol\":1790:1802  uintToString */\n      tag_82\n        /* \"time.sol\":1790:1814  uintToString(year % 100) */\n      jump\t// in\n    tag_84:\n        /* \"time.sol\":1715:1824  abi.encodePacked(uintToString(day), \"days\", uintToString(month), \"months\", uintToString(year % 100), \"years\") */\n      add(0x20, mload(0x40))\n      tag_86\n      swap4\n      swap3\n      swap2\n      swap1\n      tag_87\n      jump\t// in\n    tag_86:\n      mload(0x40)\n      0x20\n      dup2\n      dup4\n      sub\n      sub\n      dup2\n      mstore\n      swap1\n      0x40\n      mstore\n        /* \"time.sol\":1701:1825  return string(abi.encodePacked(uintToString(day), \"days\", uintToString(month), \"months\", uintToString(year % 100), \"years\")) */\n      swap8\n      pop\n      pop\n      pop\n      pop\n      pop\n      pop\n      pop\n      pop\n        /* \"time.sol\":495:1832  function timestampToDate(uint256 timestamp) public pure returns (string memory) {... */\n      swap2\n      swap1\n      pop\n      jump\t// out\n        /* \"time.sol\":1838:2373  function uintToString(uint256 v) internal pure returns (string memory str) {... */\n    tag_82:\n        /* \"time.sol\":1894:1911  string memory str */\n      0x60\n        /* \"time.sol\":1923:1940  uint256 maxlength */\n      0x00\n        /* \"time.sol\":1943:1946  100 */\n      0x64\n        /* \"time.sol\":1923:1946  uint256 maxlength = 100 */\n      swap1\n      pop\n        /* \"time.sol\":1956:1977  bytes memory reversed */\n      0x00\n        /* \"time.sol\":1990:1999  maxlength */\n      dup2\n        /* \"time.sol\":1980:2000  new bytes(maxlength) */\n      0xffffffffffffffff\n      dup2\n      gt\n      iszero\n      tag_89\n      jumpi\n      tag_90\n      tag_91\n      jump\t// in\n    tag_90:\n    tag_89:\n      mload(0x40)\n      swap1\n      dup1\n      dup3\n      mstore\n      dup1\n      0x1f\n      add\n      not(0x1f)\n      and\n      0x20\n      add\n      dup3\n      add\n      0x40\n      mstore\n      dup1\n      iszero\n      tag_92\n      jumpi\n      dup2\n      0x20\n      add\n      0x01\n      dup3\n      mul\n      dup1\n      calldatasize\n      dup4\n      calldatacopy\n      dup1\n      dup3\n      add\n      swap2\n      pop\n      pop\n      swap1\n      pop\n    tag_92:\n      pop\n        /* \"time.sol\":1956:2000  bytes memory reversed = new bytes(maxlength) */\n      swap1\n      pop\n        /* \"time.sol\":2010:2019  uint256 i */\n      0x00\n        /* \"time.sol\":2033:2182  while (v != 0) {... */\n    tag_93:\n        /* \"time.sol\":2045:2046  0 */\n      0x00\n        /* \"time.sol\":2040:2041  v */\n      dup6\n        /* \"time.sol\":2040:2046  v != 0 */\n      eq\n        /* \"time.sol\":2033:2182  while (v != 0) {... */\n      tag_94\n      jumpi\n        /* \"time.sol\":2062:2079  uint256 remainder */\n      0x00\n        /* \"time.sol\":2086:2088  10 */\n      0x0a\n        /* \"time.sol\":2082:2083  v */\n      dup7\n        /* \"time.sol\":2082:2088  v % 10 */\n      tag_95\n      swap2\n      swap1\n      tag_64\n      jump\t// in\n    tag_95:\n        /* \"time.sol\":2062:2088  uint256 remainder = v % 10 */\n      swap1\n      pop\n        /* \"time.sol\":2110:2112  10 */\n      0x0a\n        /* \"time.sol\":2106:2107  v */\n      dup7\n        /* \"time.sol\":2106:2112  v / 10 */\n      tag_96\n      swap2\n      swap1\n      tag_62\n      jump\t// in\n    tag_96:\n        /* \"time.sol\":2102:2112  v = v / 10 */\n      swap6\n      pop\n        /* \"time.sol\":2160:2169  remainder */\n      dup1\n        /* \"time.sol\":2155:2157  48 */\n      0x30\n        /* \"time.sol\":2155:2169  48 + remainder */\n      tag_97\n      swap2\n      swap1\n      tag_75\n      jump\t// in\n    tag_97:\n        /* \"time.sol\":2142:2171  bytes1(uint8(48 + remainder)) */\n      0xf8\n      shl\n        /* \"time.sol\":2126:2134  reversed */\n      dup4\n        /* \"time.sol\":2135:2138  i++ */\n      dup4\n      dup1\n      tag_98\n      swap1\n      tag_79\n      jump\t// in\n    tag_98:\n      swap5\n      pop\n        /* \"time.sol\":2126:2139  reversed[i++] */\n      dup2\n      mload\n      dup2\n      lt\n      tag_99\n      jumpi\n      tag_100\n      tag_38\n      jump\t// in\n    tag_100:\n    tag_99:\n      0x20\n      add\n      add\n        /* \"time.sol\":2126:2171  reversed[i++] = bytes1(uint8(48 + remainder)) */\n      swap1\n      not(0xffffffffffffffffffffffffffffffffffffffffffffffffffffffffffffff)\n      and\n      swap1\n      dup2\n      0x00\n      byte\n      swap1\n      mstore8\n      pop\n        /* \"time.sol\":2048:2182  {... */\n      pop\n        /* \"time.sol\":2033:2182  while (v != 0) {... */\n      jump(tag_93)\n    tag_94:\n        /* \"time.sol\":2192:2206  bytes memory s */\n      0x00\n        /* \"time.sol\":2219:2220  i */\n      dup2\n        /* \"time.sol\":2209:2221  new bytes(i) */\n      0xffffffffffffffff\n      dup2\n      gt\n      iszero\n      tag_101\n      jumpi\n      tag_102\n      tag_91\n      jump\t// in\n    tag_102:\n    tag_101:\n      mload(0x40)\n      swap1\n      dup1\n      dup3\n      mstore\n      dup1\n      0x1f\n      add\n      not(0x1f)\n      and\n      0x20\n      add\n      dup3\n      add\n      0x40\n      mstore\n      dup1\n      iszero\n      tag_103\n      jumpi\n      dup2\n      0x20\n      add\n      0x01\n      dup3\n      mul\n      dup1\n      calldatasize\n      dup4\n      calldatacopy\n      dup1\n      dup3\n      add\n      swap2\n      pop\n      pop\n      swap1\n      pop\n    tag_103:\n      pop\n        /* \"time.sol\":2192:2221  bytes memory s = new bytes(i) */\n      swap1\n      pop\n        /* \"time.sol\":2264:2273  uint256 j */\n      0x00\n        /* \"time.sol\":2259:2342  for (uint256 j = 0; j < i; j++) {... */\n    tag_104:\n        /* \"time.sol\":2283:2284  i */\n      dup3\n        /* \"time.sol\":2279:2280  j */\n      dup2\n        /* \"time.sol\":2279:2284  j < i */\n      lt\n        /* \"time.sol\":2259:2342  for (uint256 j = 0; j < i; j++) {... */\n      iszero\n      tag_105\n      jumpi\n        /* \"time.sol\":2312:2320  reversed */\n      dup4\n        /* \"time.sol\":2329:2330  j */\n      dup2\n        /* \"time.sol\":2325:2326  1 */\n      0x01\n        /* \"time.sol\":2321:2322  i */\n      dup6\n        /* \"time.sol\":2321:2326  i - 1 */\n      tag_107\n      swap2\n      swap1\n      tag_77\n      jump\t// in\n    tag_107:\n        /* \"time.sol\":2321:2330  i - 1 - j */\n      tag_108\n      swap2\n      swap1\n      tag_77\n      jump\t// in\n    tag_108:\n        /* \"time.sol\":2312:2331  reversed[i - 1 - j] */\n      dup2\n      mload\n      dup2\n      lt\n      tag_109\n      jumpi\n      tag_110\n      tag_38\n      jump\t// in\n    tag_110:\n    tag_109:\n      0x20\n      add\n      add\n      mload\n      0xf8\n      shr\n      0xf8\n      shl\n        /* \"time.sol\":2305:2306  s */\n      dup3\n        /* \"time.sol\":2307:2308  j */\n      dup3\n        /* \"time.sol\":2305:2309  s[j] */\n      dup2\n      mload\n      dup2\n      lt\n      tag_111\n      jumpi\n      tag_112\n      tag_38\n      jump\t// in\n    tag_112:\n    tag_111:\n      0x20\n      add\n      add\n        /* \"time.sol\":2305:2331  s[j] = reversed[i - 1 - j] */\n      swap1\n      not(0xffffffffffffffffffffffffffffffffffffffffffffffffffffffffffffff)\n      and\n      swap1\n      dup2\n      0x00\n      byte\n      swap1\n      mstore8\n      pop\n        /* \"time.sol\":2286:2289  j++ */\n      dup1\n      dup1\n      tag_113\n      swap1\n      tag_79\n      jump\t// in\n    tag_113:\n      swap2\n      pop\n      pop\n        /* \"time.sol\":2259:2342  for (uint256 j = 0; j < i; j++) {... */\n      jump(tag_104)\n    tag_105:\n      pop\n        /* \"time.sol\":2364:2365  s */\n      dup1\n        /* \"time.sol\":2351:2366  str = string(s) */\n      swap5\n      pop\n        /* \"time.sol\":1913:2373  {... */\n      pop\n      pop\n      pop\n      pop\n        /* \"time.sol\":1838:2373  function uintToString(uint256 v) internal pure returns (string memory str) {... */\n      swap2\n      swap1\n      pop\n      jump\t// out\n    tag_35:\n      mload(0x40)\n      dup1\n      0x0180\n      add\n      0x40\n      mstore\n      dup1\n      0x0c\n      swap1\n      0x20\n      dup3\n      mul\n      dup1\n      calldatasize\n      dup4\n      calldatacopy\n      dup1\n      dup3\n      add\n      swap2\n      pop\n      pop\n      swap1\n      pop\n      pop\n      swap1\n      jump\t// out\n        /* \"#utility.yul\":7:84   */\n    tag_114:\n        /* \"#utility.yul\":44:51   */\n      0x00\n        /* \"#utility.yul\":73:78   */\n      dup2\n        /* \"#utility.yul\":62:78   */\n      swap1\n      pop\n        /* \"#utility.yul\":7:84   */\n      swap2\n      swap1\n      pop\n      jump\t// out\n        /* \"#utility.yul\":90:208   */\n    tag_115:\n        /* \"#utility.yul\":177:201   */\n      tag_143\n        /* \"#utility.yul\":195:200   */\n      dup2\n        /* \"#utility.yul\":177:201   */\n      tag_114\n      jump\t// in\n    tag_143:\n        /* \"#utility.yul\":172:175   */\n      dup3\n        /* \"#utility.yul\":165:202   */\n      mstore\n        /* \"#utility.yul\":90:208   */\n      pop\n      pop\n      jump\t// out\n        /* \"#utility.yul\":214:436   */\n    tag_11:\n        /* \"#utility.yul\":307:311   */\n      0x00\n        /* \"#utility.yul\":345:347   */\n      0x20\n        /* \"#utility.yul\":334:343   */\n      dup3\n        /* \"#utility.yul\":330:348   */\n      add\n        /* \"#utility.yul\":322:348   */\n      swap1\n      pop\n        /* \"#utility.yul\":358:429   */\n      tag_145\n        /* \"#utility.yul\":426:427   */\n      0x00\n        /* \"#utility.yul\":415:424   */\n      dup4\n        /* \"#utility.yul\":411:428   */\n      add\n        /* \"#utility.yul\":402:408   */\n      dup5\n        /* \"#utility.yul\":358:429   */\n      tag_115\n      jump\t// in\n    tag_145:\n        /* \"#utility.yul\":214:436   */\n      swap3\n      swap2\n      pop\n      pop\n      jump\t// out\n        /* \"#utility.yul\":442:532   */\n    tag_116:\n        /* \"#utility.yul\":476:483   */\n      0x00\n        /* \"#utility.yul\":519:524   */\n      dup2\n        /* \"#utility.yul\":512:525   */\n      iszero\n        /* \"#utility.yul\":505:526   */\n      iszero\n        /* \"#utility.yul\":494:526   */\n      swap1\n      pop\n        /* \"#utility.yul\":442:532   */\n      swap2\n      swap1\n      pop\n      jump\t// out\n        /* \"#utility.yul\":538:647   */\n    tag_117:\n        /* \"#utility.yul\":619:640   */\n      tag_148\n        /* \"#utility.yul\":634:639   */\n      dup2\n        /* \"#utility.yul\":619:640   */\n      tag_116\n      jump\t// in\n    tag_148:\n        /* \"#utility.yul\":614:617   */\n      dup3\n        /* \"#utility.yul\":607:641   */\n      mstore\n        /* \"#utility.yul\":538:647   */\n      pop\n      pop\n      jump\t// out\n        /* \"#utility.yul\":653:863   */\n    tag_21:\n        /* \"#utility.yul\":740:744   */\n      0x00\n        /* \"#utility.yul\":778:780   */\n      0x20\n        /* \"#utility.yul\":767:776   */\n      dup3\n        /* \"#utility.yul\":763:781   */\n      add\n        /* \"#utility.yul\":755:781   */\n      swap1\n      pop\n        /* \"#utility.yul\":791:856   */\n      tag_150\n        /* \"#utility.yul\":853:854   */\n      0x00\n        /* \"#utility.yul\":842:851   */\n      dup4\n        /* \"#utility.yul\":838:855   */\n      add\n        /* \"#utility.yul\":829:835   */\n      dup5\n        /* \"#utility.yul\":791:856   */\n      tag_117\n      jump\t// in\n    tag_150:\n        /* \"#utility.yul\":653:863   */\n      swap3\n      swap2\n      pop\n      pop\n      jump\t// out\n        /* \"#utility.yul\":950:1067   */\n    tag_119:\n        /* \"#utility.yul\":1059:1060   */\n      0x00\n        /* \"#utility.yul\":1056:1057   */\n      dup1\n        /* \"#utility.yul\":1049:1061   */\n      revert\n        /* \"#utility.yul\":1196:1318   */\n    tag_121:\n        /* \"#utility.yul\":1269:1293   */\n      tag_155\n        /* \"#utility.yul\":1287:1292   */\n      dup2\n        /* \"#utility.yul\":1269:1293   */\n      tag_114\n      jump\t// in\n    tag_155:\n        /* \"#utility.yul\":1262:1267   */\n      dup2\n        /* \"#utility.yul\":1259:1294   */\n      eq\n        /* \"#utility.yul\":1249:1312   */\n      tag_156\n      jumpi\n        /* \"#utility.yul\":1308:1309   */\n      0x00\n        /* \"#utility.yul\":1305:1306   */\n      dup1\n        /* \"#utility.yul\":1298:1310   */\n      revert\n        /* \"#utility.yul\":1249:1312   */\n    tag_156:\n        /* \"#utility.yul\":1196:1318   */\n      pop\n      jump\t// out\n        /* \"#utility.yul\":1324:1463   */\n    tag_122:\n        /* \"#utility.yul\":1370:1375   */\n      0x00\n        /* \"#utility.yul\":1408:1414   */\n      dup2\n        /* \"#utility.yul\":1395:1415   */\n      calldataload\n        /* \"#utility.yul\":1386:1415   */\n      swap1\n      pop\n        /* \"#utility.yul\":1424:1457   */\n      tag_158\n        /* \"#utility.yul\":1451:1456   */\n      dup2\n        /* \"#utility.yul\":1424:1457   */\n      tag_121\n      jump\t// in\n    tag_158:\n        /* \"#utility.yul\":1324:1463   */\n      swap3\n      swap2\n      pop\n      pop\n      jump\t// out\n        /* \"#utility.yul\":1469:1798   */\n    tag_24:\n        /* \"#utility.yul\":1528:1534   */\n      0x00\n        /* \"#utility.yul\":1577:1579   */\n      0x20\n        /* \"#utility.yul\":1565:1574   */\n      dup3\n        /* \"#utility.yul\":1556:1563   */\n      dup5\n        /* \"#utility.yul\":1552:1575   */\n      sub\n        /* \"#utility.yul\":1548:1580   */\n      slt\n        /* \"#utility.yul\":1545:1664   */\n      iszero\n      tag_160\n      jumpi\n        /* \"#utility.yul\":1583:1662   */\n      tag_161\n      tag_119\n      jump\t// in\n    tag_161:\n        /* \"#utility.yul\":1545:1664   */\n    tag_160:\n        /* \"#utility.yul\":1703:1704   */\n      0x00\n        /* \"#utility.yul\":1728:1781   */\n      tag_162\n        /* \"#utility.yul\":1773:1780   */\n      dup5\n        /* \"#utility.yul\":1764:1770   */\n      dup3\n        /* \"#utility.yul\":1753:1762   */\n      dup6\n        /* \"#utility.yul\":1749:1771   */\n      add\n        /* \"#utility.yul\":1728:1781   */\n      tag_122\n      jump\t// in\n    tag_162:\n        /* \"#utility.yul\":1718:1781   */\n      swap2\n      pop\n        /* \"#utility.yul\":1674:1791   */\n      pop\n        /* \"#utility.yul\":1469:1798   */\n      swap3\n      swap2\n      pop\n      pop\n      jump\t// out\n        /* \"#utility.yul\":1804:1903   */\n    tag_123:\n        /* \"#utility.yul\":1856:1862   */\n      0x00\n        /* \"#utility.yul\":1890:1895   */\n      dup2\n        /* \"#utility.yul\":1884:1896   */\n      mload\n        /* \"#utility.yul\":1874:1896   */\n      swap1\n      pop\n        /* \"#utility.yul\":1804:1903   */\n      swap2\n      swap1\n      pop\n      jump\t// out\n        /* \"#utility.yul\":1909:2078   */\n    tag_124:\n        /* \"#utility.yul\":1993:2004   */\n      0x00\n        /* \"#utility.yul\":2027:2033   */\n      dup3\n        /* \"#utility.yul\":2022:2025   */\n      dup3\n        /* \"#utility.yul\":2015:2034   */\n      mstore\n        /* \"#utility.yul\":2067:2071   */\n      0x20\n        /* \"#utility.yul\":2062:2065   */\n      dup3\n        /* \"#utility.yul\":2058:2072   */\n      add\n        /* \"#utility.yul\":2043:2072   */\n      swap1\n      pop\n        /* \"#utility.yul\":1909:2078   */\n      swap3\n      swap2\n      pop\n      pop\n      jump\t// out\n        /* \"#utility.yul\":2084:2330   */\n    tag_125:\n        /* \"#utility.yul\":2165:2166   */\n      0x00\n        /* \"#utility.yul\":2175:2288   */\n    tag_166:\n        /* \"#utility.yul\":2189:2195   */\n      dup4\n        /* \"#utility.yul\":2186:2187   */\n      dup2\n        /* \"#utility.yul\":2183:2196   */\n      lt\n        /* \"#utility.yul\":2175:2288   */\n      iszero\n      tag_168\n      jumpi\n        /* \"#utility.yul\":2274:2275   */\n      dup1\n        /* \"#utility.yul\":2269:2272   */\n      dup3\n        /* \"#utility.yul\":2265:2276   */\n      add\n        /* \"#utility.yul\":2259:2277   */\n      mload\n        /* \"#utility.yul\":2255:2256   */\n      dup2\n        /* \"#utility.yul\":2250:2253   */\n      dup5\n        /* \"#utility.yul\":2246:2257   */\n      add\n        /* \"#utility.yul\":2239:2278   */\n      mstore\n        /* \"#utility.yul\":2211:2213   */\n      0x20\n        /* \"#utility.yul\":2208:2209   */\n      dup2\n        /* \"#utility.yul\":2204:2214   */\n      add\n        /* \"#utility.yul\":2199:2214   */\n      swap1\n      pop\n        /* \"#utility.yul\":2175:2288   */\n      jump(tag_166)\n    tag_168:\n        /* \"#utility.yul\":2322:2323   */\n      0x00\n        /* \"#utility.yul\":2313:2319   */\n      dup5\n        /* \"#utility.yul\":2308:2311   */\n      dup5\n        /* \"#utility.yul\":2304:2320   */\n      add\n        /* \"#utility.yul\":2297:2324   */\n      mstore\n        /* \"#utility.yul\":2146:2330   */\n      pop\n        /* \"#utility.yul\":2084:2330   */\n      pop\n      pop\n      pop\n      jump\t// out\n        /* \"#utility.yul\":2336:2438   */\n    tag_126:\n        /* \"#utility.yul\":2377:2383   */\n      0x00\n        /* \"#utility.yul\":2428:2430   */\n      0x1f\n        /* \"#utility.yul\":2424:2431   */\n      not\n        /* \"#utility.yul\":2419:2421   */\n      0x1f\n        /* \"#utility.yul\":2412:2417   */\n      dup4\n        /* \"#utility.yul\":2408:2422   */\n      add\n        /* \"#utility.yul\":2404:2432   */\n      and\n        /* \"#utility.yul\":2394:2432   */\n      swap1\n      pop\n        /* \"#utility.yul\":2336:2438   */\n      swap2\n      swap1\n      pop\n      jump\t// out\n        /* \"#utility.yul\":2444:2821   */\n    tag_127:\n        /* \"#utility.yul\":2532:2535   */\n      0x00\n        /* \"#utility.yul\":2560:2599   */\n      tag_171\n        /* \"#utility.yul\":2593:2598   */\n      dup3\n        /* \"#utility.yul\":2560:2599   */\n      tag_123\n      jump\t// in\n    tag_171:\n        /* \"#utility.yul\":2615:2686   */\n      tag_172\n        /* \"#utility.yul\":2679:2685   */\n      dup2\n        /* \"#utility.yul\":2674:2677   */\n      dup6\n        /* \"#utility.yul\":2615:2686   */\n      tag_124\n      jump\t// in\n    tag_172:\n        /* \"#utility.yul\":2608:2686   */\n      swap4\n      pop\n        /* \"#utility.yul\":2695:2760   */\n      tag_173\n        /* \"#utility.yul\":2753:2759   */\n      dup2\n        /* \"#utility.yul\":2748:2751   */\n      dup6\n        /* \"#utility.yul\":2741:2745   */\n      0x20\n        /* \"#utility.yul\":2734:2739   */\n      dup7\n        /* \"#utility.yul\":2730:2746   */\n      add\n        /* \"#utility.yul\":2695:2760   */\n      tag_125\n      jump\t// in\n    tag_173:\n        /* \"#utility.yul\":2785:2814   */\n      tag_174\n        /* \"#utility.yul\":2807:2813   */\n      dup2\n        /* \"#utility.yul\":2785:2814   */\n      tag_126\n      jump\t// in\n    tag_174:\n        /* \"#utility.yul\":2780:2783   */\n      dup5\n        /* \"#utility.yul\":2776:2815   */\n      add\n        /* \"#utility.yul\":2769:2815   */\n      swap2\n      pop\n        /* \"#utility.yul\":2536:2821   */\n      pop\n        /* \"#utility.yul\":2444:2821   */\n      swap3\n      swap2\n      pop\n      pop\n      jump\t// out\n        /* \"#utility.yul\":2827:3140   */\n    tag_27:\n        /* \"#utility.yul\":2940:2944   */\n      0x00\n        /* \"#utility.yul\":2978:2980   */\n      0x20\n        /* \"#utility.yul\":2967:2976   */\n      dup3\n        /* \"#utility.yul\":2963:2981   */\n      add\n        /* \"#utility.yul\":2955:2981   */\n      swap1\n      pop\n        /* \"#utility.yul\":3027:3036   */\n      dup2\n        /* \"#utility.yul\":3021:3025   */\n      dup2\n        /* \"#utility.yul\":3017:3037   */\n      sub\n        /* \"#utility.yul\":3013:3014   */\n      0x00\n        /* \"#utility.yul\":3002:3011   */\n      dup4\n        /* \"#utility.yul\":2998:3015   */\n      add\n        /* \"#utility.yul\":2991:3038   */\n      mstore\n        /* \"#utility.yul\":3055:3133   */\n      tag_176\n        /* \"#utility.yul\":3128:3132   */\n      dup2\n        /* \"#utility.yul\":3119:3125   */\n      dup5\n        /* \"#utility.yul\":3055:3133   */\n      tag_127\n      jump\t// in\n    tag_176:\n        /* \"#utility.yul\":3047:3133   */\n      swap1\n      pop\n        /* \"#utility.yul\":2827:3140   */\n      swap3\n      swap2\n      pop\n      pop\n      jump\t// out\n        /* \"#utility.yul\":3146:3328   */\n    tag_128:\n        /* \"#utility.yul\":3286:3320   */\n      0x54696d657374616d70206d7573742062652067726561746572207468616e2030\n        /* \"#utility.yul\":3282:3283   */\n      0x00\n        /* \"#utility.yul\":3274:3280   */\n      dup3\n        /* \"#utility.yul\":3270:3284   */\n      add\n        /* \"#utility.yul\":3263:3321   */\n      mstore\n        /* \"#utility.yul\":3146:3328   */\n      pop\n      jump\t// out\n        /* \"#utility.yul\":3334:3700   */\n    tag_129:\n        /* \"#utility.yul\":3476:3479   */\n      0x00\n        /* \"#utility.yul\":3497:3564   */\n      tag_179\n        /* \"#utility.yul\":3561:3563   */\n      0x20\n        /* \"#utility.yul\":3556:3559   */\n      dup4\n        /* \"#utility.yul\":3497:3564   */\n      tag_124\n      jump\t// in\n    tag_179:\n        /* \"#utility.yul\":3490:3564   */\n      swap2\n      pop\n        /* \"#utility.yul\":3573:3666   */\n      tag_180\n        /* \"#utility.yul\":3662:3665   */\n      dup3\n        /* \"#utility.yul\":3573:3666   */\n      tag_128\n      jump\t// in\n    tag_180:\n        /* \"#utility.yul\":3691:3693   */\n      0x20\n        /* \"#utility.yul\":3686:3689   */\n      dup3\n        /* \"#utility.yul\":3682:3694   */\n      add\n        /* \"#utility.yul\":3675:3694   */\n      swap1\n      pop\n        /* \"#utility.yul\":3334:3700   */\n      swap2\n      swap1\n      pop\n      jump\t// out\n        /* \"#utility.yul\":3706:4125   */\n    tag_33:\n        /* \"#utility.yul\":3872:3876   */\n      0x00\n        /* \"#utility.yul\":3910:3912   */\n      0x20\n        /* \"#utility.yul\":3899:3908   */\n      dup3\n        /* \"#utility.yul\":3895:3913   */\n      add\n        /* \"#utility.yul\":3887:3913   */\n      swap1\n      pop\n        /* \"#utility.yul\":3959:3968   */\n      dup2\n        /* \"#utility.yul\":3953:3957   */\n      dup2\n        /* \"#utility.yul\":3949:3969   */\n      sub\n        /* \"#utility.yul\":3945:3946   */\n      0x00\n        /* \"#utility.yul\":3934:3943   */\n      dup4\n        /* \"#utility.yul\":3930:3947   */\n      add\n        /* \"#utility.yul\":3923:3970   */\n      mstore\n        /* \"#utility.yul\":3987:4118   */\n      tag_182\n        /* \"#utility.yul\":4113:4117   */\n      dup2\n        /* \"#utility.yul\":3987:4118   */\n      tag_129\n      jump\t// in\n    tag_182:\n        /* \"#utility.yul\":3979:4118   */\n      swap1\n      pop\n        /* \"#utility.yul\":3706:4125   */\n      swap2\n      swap1\n      pop\n      jump\t// out\n        /* \"#utility.yul\":4131:4311   */\n    tag_38:\n        /* \"#utility.yul\":4179:4256   */\n      0x4e487b7100000000000000000000000000000000000000000000000000000000\n        /* \"#utility.yul\":4176:4177   */\n      0x00\n        /* \"#utility.yul\":4169:4257   */\n      mstore\n        /* \"#utility.yul\":4276:4280   */\n      0x32\n        /* \"#utility.yul\":4273:4274   */\n      0x04\n        /* \"#utility.yul\":4266:4281   */\n      mstore\n        /* \"#utility.yul\":4300:4304   */\n      0x24\n        /* \"#utility.yul\":4297:4298   */\n      0x00\n        /* \"#utility.yul\":4290:4305   */\n      revert\n        /* \"#utility.yul\":4317:4497   */\n    tag_130:\n        /* \"#utility.yul\":4365:4442   */\n      0x4e487b7100000000000000000000000000000000000000000000000000000000\n        /* \"#utility.yul\":4362:4363   */\n      0x00\n        /* \"#utility.yul\":4355:4443   */\n      mstore\n        /* \"#utility.yul\":4462:4466   */\n      0x12\n        /* \"#utility.yul\":4459:4460   */\n      0x04\n        /* \"#utility.yul\":4452:4467   */\n      mstore\n        /* \"#utility.yul\":4486:4490   */\n      0x24\n        /* \"#utility.yul\":4483:4484   */\n      0x00\n        /* \"#utility.yul\":4476:4491   */\n      revert\n        /* \"#utility.yul\":4503:4683   */\n    tag_131:\n        /* \"#utility.yul\":4551:4628   */\n      0x4e487b7100000000000000000000000000000000000000000000000000000000\n        /* \"#utility.yul\":4548:4549   */\n      0x00\n        /* \"#utility.yul\":4541:4629   */\n      mstore\n        /* \"#utility.yul\":4648:4652   */\n      0x11\n        /* \"#utility.yul\":4645:4646   */\n      0x04\n        /* \"#utility.yul\":4638:4653   */\n      mstore\n        /* \"#utility.yul\":4672:4676   */\n      0x24\n        /* \"#utility.yul\":4669:4670   */\n      0x00\n        /* \"#utility.yul\":4662:4677   */\n      revert\n        /* \"#utility.yul\":4689:4874   */\n    tag_62:\n        /* \"#utility.yul\":4729:4730   */\n      0x00\n        /* \"#utility.yul\":4746:4766   */\n      tag_187\n        /* \"#utility.yul\":4764:4765   */\n      dup3\n        /* \"#utility.yul\":4746:4766   */\n      tag_114\n      jump\t// in\n    tag_187:\n        /* \"#utility.yul\":4741:4766   */\n      swap2\n      pop\n        /* \"#utility.yul\":4780:4800   */\n      tag_188\n        /* \"#utility.yul\":4798:4799   */\n      dup4\n        /* \"#utility.yul\":4780:4800   */\n      tag_114\n      jump\t// in\n    tag_188:\n        /* \"#utility.yul\":4775:4800   */\n      swap3\n      pop\n        /* \"#utility.yul\":4819:4820   */\n      dup3\n        /* \"#utility.yul\":4809:4844   */\n      tag_189\n      jumpi\n        /* \"#utility.yul\":4824:4842   */\n      tag_190\n      tag_130\n      jump\t// in\n    tag_190:\n        /* \"#utility.yul\":4809:4844   */\n    tag_189:\n        /* \"#utility.yul\":4866:4867   */\n      dup3\n        /* \"#utility.yul\":4863:4864   */\n      dup3\n        /* \"#utility.yul\":4859:4868   */\n      div\n        /* \"#utility.yul\":4854:4868   */\n      swap1\n      pop\n        /* \"#utility.yul\":4689:4874   */\n      swap3\n      swap2\n      pop\n      pop\n      jump\t// out\n        /* \"#utility.yul\":4880:5056   */\n    tag_64:\n        /* \"#utility.yul\":4912:4913   */\n      0x00\n        /* \"#utility.yul\":4929:4949   */\n      tag_192\n        /* \"#utility.yul\":4947:4948   */\n      dup3\n        /* \"#utility.yul\":4929:4949   */\n      tag_114\n      jump\t// in\n    tag_192:\n        /* \"#utility.yul\":4924:4949   */\n      swap2\n      pop\n        /* \"#utility.yul\":4963:4983   */\n      tag_193\n        /* \"#utility.yul\":4981:4982   */\n      dup4\n        /* \"#utility.yul\":4963:4983   */\n      tag_114\n      jump\t// in\n    tag_193:\n        /* \"#utility.yul\":4958:4983   */\n      swap3\n      pop\n        /* \"#utility.yul\":5002:5003   */\n      dup3\n        /* \"#utility.yul\":4992:5027   */\n      tag_194\n      jumpi\n        /* \"#utility.yul\":5007:5025   */\n      tag_195\n      tag_130\n      jump\t// in\n    tag_195:\n        /* \"#utility.yul\":4992:5027   */\n    tag_194:\n        /* \"#utility.yul\":5048:5049   */\n      dup3\n        /* \"#utility.yul\":5045:5046   */\n      dup3\n        /* \"#utility.yul\":5041:5050   */\n      mod\n        /* \"#utility.yul\":5036:5050   */\n      swap1\n      pop\n        /* \"#utility.yul\":4880:5056   */\n      swap3\n      swap2\n      pop\n      pop\n      jump\t// out\n        /* \"#utility.yul\":5062:5472   */\n    tag_71:\n        /* \"#utility.yul\":5102:5109   */\n      0x00\n        /* \"#utility.yul\":5125:5145   */\n      tag_197\n        /* \"#utility.yul\":5143:5144   */\n      dup3\n        /* \"#utility.yul\":5125:5145   */\n      tag_114\n      jump\t// in\n    tag_197:\n        /* \"#utility.yul\":5120:5145   */\n      swap2\n      pop\n        /* \"#utility.yul\":5159:5179   */\n      tag_198\n        /* \"#utility.yul\":5177:5178   */\n      dup4\n        /* \"#utility.yul\":5159:5179   */\n      tag_114\n      jump\t// in\n    tag_198:\n        /* \"#utility.yul\":5154:5179   */\n      swap3\n      pop\n        /* \"#utility.yul\":5214:5215   */\n      dup3\n        /* \"#utility.yul\":5211:5212   */\n      dup3\n        /* \"#utility.yul\":5207:5216   */\n      mul\n        /* \"#utility.yul\":5236:5266   */\n      tag_199\n        /* \"#utility.yul\":5254:5265   */\n      dup2\n        /* \"#utility.yul\":5236:5266   */\n      tag_114\n      jump\t// in\n    tag_199:\n        /* \"#utility.yul\":5225:5266   */\n      swap2\n      pop\n        /* \"#utility.yul\":5415:5416   */\n      dup3\n        /* \"#utility.yul\":5406:5413   */\n      dup3\n        /* \"#utility.yul\":5402:5417   */\n      div\n        /* \"#utility.yul\":5399:5400   */\n      dup5\n        /* \"#utility.yul\":5396:5418   */\n      eq\n        /* \"#utility.yul\":5376:5377   */\n      dup4\n        /* \"#utility.yul\":5369:5378   */\n      iszero\n        /* \"#utility.yul\":5349:5432   */\n      or\n        /* \"#utility.yul\":5326:5465   */\n      tag_200\n      jumpi\n        /* \"#utility.yul\":5445:5463   */\n      tag_201\n      tag_131\n      jump\t// in\n    tag_201:\n        /* \"#utility.yul\":5326:5465   */\n    tag_200:\n        /* \"#utility.yul\":5110:5472   */\n      pop\n        /* \"#utility.yul\":5062:5472   */\n      swap3\n      swap2\n      pop\n      pop\n      jump\t// out\n        /* \"#utility.yul\":5478:5669   */\n    tag_75:\n        /* \"#utility.yul\":5518:5521   */\n      0x00\n        /* \"#utility.yul\":5537:5557   */\n      tag_203\n        /* \"#utility.yul\":5555:5556   */\n      dup3\n        /* \"#utility.yul\":5537:5557   */\n      tag_114\n      jump\t// in\n    tag_203:\n        /* \"#utility.yul\":5532:5557   */\n      swap2\n      pop\n        /* \"#utility.yul\":5571:5591   */\n      tag_204\n        /* \"#utility.yul\":5589:5590   */\n      dup4\n        /* \"#utility.yul\":5571:5591   */\n      tag_114\n      jump\t// in\n    tag_204:\n        /* \"#utility.yul\":5566:5591   */\n      swap3\n      pop\n        /* \"#utility.yul\":5614:5615   */\n      dup3\n        /* \"#utility.yul\":5611:5612   */\n      dup3\n        /* \"#utility.yul\":5607:5616   */\n      add\n        /* \"#utility.yul\":5600:5616   */\n      swap1\n      pop\n        /* \"#utility.yul\":5635:5638   */\n      dup1\n        /* \"#utility.yul\":5632:5633   */\n      dup3\n        /* \"#utility.yul\":5629:5639   */\n      gt\n        /* \"#utility.yul\":5626:5662   */\n      iszero\n      tag_205\n      jumpi\n        /* \"#utility.yul\":5642:5660   */\n      tag_206\n      tag_131\n      jump\t// in\n    tag_206:\n        /* \"#utility.yul\":5626:5662   */\n    tag_205:\n        /* \"#utility.yul\":5478:5669   */\n      swap3\n      swap2\n      pop\n      pop\n      jump\t// out\n        /* \"#utility.yul\":5675:5869   */\n    tag_77:\n        /* \"#utility.yul\":5715:5719   */\n      0x00\n        /* \"#utility.yul\":5735:5755   */\n      tag_208\n        /* \"#utility.yul\":5753:5754   */\n      dup3\n        /* \"#utility.yul\":5735:5755   */\n      tag_114\n      jump\t// in\n    tag_208:\n        /* \"#utility.yul\":5730:5755   */\n      swap2\n      pop\n        /* \"#utility.yul\":5769:5789   */\n      tag_209\n        /* \"#utility.yul\":5787:5788   */\n      dup4\n        /* \"#utility.yul\":5769:5789   */\n      tag_114\n      jump\t// in\n    tag_209:\n        /* \"#utility.yul\":5764:5789   */\n      swap3\n      pop\n        /* \"#utility.yul\":5813:5814   */\n      dup3\n        /* \"#utility.yul\":5810:5811   */\n      dup3\n        /* \"#utility.yul\":5806:5815   */\n      sub\n        /* \"#utility.yul\":5798:5815   */\n      swap1\n      pop\n        /* \"#utility.yul\":5837:5838   */\n      dup2\n        /* \"#utility.yul\":5831:5835   */\n      dup2\n        /* \"#utility.yul\":5828:5839   */\n      gt\n        /* \"#utility.yul\":5825:5862   */\n      iszero\n      tag_210\n      jumpi\n        /* \"#utility.yul\":5842:5860   */\n      tag_211\n      tag_131\n      jump\t// in\n    tag_211:\n        /* \"#utility.yul\":5825:5862   */\n    tag_210:\n        /* \"#utility.yul\":5675:5869   */\n      swap3\n      swap2\n      pop\n      pop\n      jump\t// out\n        /* \"#utility.yul\":5875:6108   */\n    tag_79:\n        /* \"#utility.yul\":5914:5917   */\n      0x00\n        /* \"#utility.yul\":5937:5961   */\n      tag_213\n        /* \"#utility.yul\":5955:5960   */\n      dup3\n        /* \"#utility.yul\":5937:5961   */\n      tag_114\n      jump\t// in\n    tag_213:\n        /* \"#utility.yul\":5928:5961   */\n      swap2\n      pop\n        /* \"#utility.yul\":5983:6049   */\n      0xffffffffffffffffffffffffffffffffffffffffffffffffffffffffffffffff\n        /* \"#utility.yul\":5976:5981   */\n      dup3\n        /* \"#utility.yul\":5973:6050   */\n      sub\n        /* \"#utility.yul\":5970:6073   */\n      tag_214\n      jumpi\n        /* \"#utility.yul\":6053:6071   */\n      tag_215\n      tag_131\n      jump\t// in\n    tag_215:\n        /* \"#utility.yul\":5970:6073   */\n    tag_214:\n        /* \"#utility.yul\":6100:6101   */\n      0x01\n        /* \"#utility.yul\":6093:6098   */\n      dup3\n        /* \"#utility.yul\":6089:6102   */\n      add\n        /* \"#utility.yul\":6082:6102   */\n      swap1\n      pop\n        /* \"#utility.yul\":5875:6108   */\n      swap2\n      swap1\n      pop\n      jump\t// out\n        /* \"#utility.yul\":6114:6262   */\n    tag_132:\n        /* \"#utility.yul\":6216:6227   */\n      0x00\n        /* \"#utility.yul\":6253:6256   */\n      dup2\n        /* \"#utility.yul\":6238:6256   */\n      swap1\n      pop\n        /* \"#utility.yul\":6114:6262   */\n      swap3\n      swap2\n      pop\n      pop\n      jump\t// out\n        /* \"#utility.yul\":6268:6658   */\n    tag_133:\n        /* \"#utility.yul\":6374:6377   */\n      0x00\n        /* \"#utility.yul\":6402:6441   */\n      tag_218\n        /* \"#utility.yul\":6435:6440   */\n      dup3\n        /* \"#utility.yul\":6402:6441   */\n      tag_123\n      jump\t// in\n    tag_218:\n        /* \"#utility.yul\":6457:6546   */\n      tag_219\n        /* \"#utility.yul\":6539:6545   */\n      dup2\n        /* \"#utility.yul\":6534:6537   */\n      dup6\n        /* \"#utility.yul\":6457:6546   */\n      tag_132\n      jump\t// in\n    tag_219:\n        /* \"#utility.yul\":6450:6546   */\n      swap4\n      pop\n        /* \"#utility.yul\":6555:6620   */\n      tag_220\n        /* \"#utility.yul\":6613:6619   */\n      dup2\n        /* \"#utility.yul\":6608:6611   */\n      dup6\n        /* \"#utility.yul\":6601:6605   */\n      0x20\n        /* \"#utility.yul\":6594:6599   */\n      dup7\n        /* \"#utility.yul\":6590:6606   */\n      add\n        /* \"#utility.yul\":6555:6620   */\n      tag_125\n      jump\t// in\n    tag_220:\n        /* \"#utility.yul\":6645:6651   */\n      dup1\n        /* \"#utility.yul\":6640:6643   */\n      dup5\n        /* \"#utility.yul\":6636:6652   */\n      add\n        /* \"#utility.yul\":6629:6652   */\n      swap2\n      pop\n        /* \"#utility.yul\":6378:6658   */\n      pop\n        /* \"#utility.yul\":6268:6658   */\n      swap3\n      swap2\n      pop\n      pop\n      jump\t// out\n        /* \"#utility.yul\":6664:6818   */\n    tag_134:\n        /* \"#utility.yul\":6804:6810   */\n      0x6461797300000000000000000000000000000000000000000000000000000000\n        /* \"#utility.yul\":6800:6801   */\n      0x00\n        /* \"#utility.yul\":6792:6798   */\n      dup3\n        /* \"#utility.yul\":6788:6802   */\n      add\n        /* \"#utility.yul\":6781:6811   */\n      mstore\n        /* \"#utility.yul\":6664:6818   */\n      pop\n      jump\t// out\n        /* \"#utility.yul\":6824:7224   */\n    tag_135:\n        /* \"#utility.yul\":6984:6987   */\n      0x00\n        /* \"#utility.yul\":7005:7089   */\n      tag_223\n        /* \"#utility.yul\":7087:7088   */\n      0x04\n        /* \"#utility.yul\":7082:7085   */\n      dup4\n        /* \"#utility.yul\":7005:7089   */\n      tag_132\n      jump\t// in\n    tag_223:\n        /* \"#utility.yul\":6998:7089   */\n      swap2\n      pop\n        /* \"#utility.yul\":7098:7191   */\n      tag_224\n        /* \"#utility.yul\":7187:7190   */\n      dup3\n        /* \"#utility.yul\":7098:7191   */\n      tag_134\n      jump\t// in\n    tag_224:\n        /* \"#utility.yul\":7216:7217   */\n      0x04\n        /* \"#utility.yul\":7211:7214   */\n      dup3\n        /* \"#utility.yul\":7207:7218   */\n      add\n        /* \"#utility.yul\":7200:7218   */\n      swap1\n      pop\n        /* \"#utility.yul\":6824:7224   */\n      swap2\n      swap1\n      pop\n      jump\t// out\n        /* \"#utility.yul\":7230:7386   */\n    tag_136:\n        /* \"#utility.yul\":7370:7378   */\n      0x6d6f6e7468730000000000000000000000000000000000000000000000000000\n        /* \"#utility.yul\":7366:7367   */\n      0x00\n        /* \"#utility.yul\":7358:7364   */\n      dup3\n        /* \"#utility.yul\":7354:7368   */\n      add\n        /* \"#utility.yul\":7347:7379   */\n      mstore\n        /* \"#utility.yul\":7230:7386   */\n      pop\n      jump\t// out\n        /* \"#utility.yul\":7392:7792   */\n    tag_137:\n        /* \"#utility.yul\":7552:7555   */\n      0x00\n        /* \"#utility.yul\":7573:7657   */\n      tag_227\n        /* \"#utility.yul\":7655:7656   */\n      0x06\n        /* \"#utility.yul\":7650:7653   */\n      dup4\n        /* \"#utility.yul\":7573:7657   */\n      tag_132\n      jump\t// in\n    tag_227:\n        /* \"#utility.yul\":7566:7657   */\n      swap2\n      pop\n        /* \"#utility.yul\":7666:7759   */\n      tag_228\n        /* \"#utility.yul\":7755:7758   */\n      dup3\n        /* \"#utility.yul\":7666:7759   */\n      tag_136\n      jump\t// in\n    tag_228:\n        /* \"#utility.yul\":7784:7785   */\n      0x06\n        /* \"#utility.yul\":7779:7782   */\n      dup3\n        /* \"#utility.yul\":7775:7786   */\n      add\n        /* \"#utility.yul\":7768:7786   */\n      swap1\n      pop\n        /* \"#utility.yul\":7392:7792   */\n      swap2\n      swap1\n      pop\n      jump\t// out\n        /* \"#utility.yul\":7798:7953   */\n    tag_138:\n        /* \"#utility.yul\":7938:7945   */\n      0x7965617273000000000000000000000000000000000000000000000000000000\n        /* \"#utility.yul\":7934:7935   */\n      0x00\n        /* \"#utility.yul\":7926:7932   */\n      dup3\n        /* \"#utility.yul\":7922:7936   */\n      add\n        /* \"#utility.yul\":7915:7946   */\n      mstore\n        /* \"#utility.yul\":7798:7953   */\n      pop\n      jump\t// out\n        /* \"#utility.yul\":7959:8359   */\n    tag_139:\n        /* \"#utility.yul\":8119:8122   */\n      0x00\n        /* \"#utility.yul\":8140:8224   */\n      tag_231\n        /* \"#utility.yul\":8222:8223   */\n      0x05\n        /* \"#utility.yul\":8217:8220   */\n      dup4\n        /* \"#utility.yul\":8140:8224   */\n      tag_132\n      jump\t// in\n    tag_231:\n        /* \"#utility.yul\":8133:8224   */\n      swap2\n      pop\n        /* \"#utility.yul\":8233:8326   */\n      tag_232\n        /* \"#utility.yul\":8322:8325   */\n      dup3\n        /* \"#utility.yul\":8233:8326   */\n      tag_138\n      jump\t// in\n    tag_232:\n        /* \"#utility.yul\":8351:8352   */\n      0x05\n        /* \"#utility.yul\":8346:8349   */\n      dup3\n        /* \"#utility.yul\":8342:8353   */\n      add\n        /* \"#utility.yul\":8335:8353   */\n      swap1\n      pop\n        /* \"#utility.yul\":7959:8359   */\n      swap2\n      swap1\n      pop\n      jump\t// out\n        /* \"#utility.yul\":8365:9758   */\n    tag_87:\n        /* \"#utility.yul\":8896:8899   */\n      0x00\n        /* \"#utility.yul\":8918:9013   */\n      tag_234\n        /* \"#utility.yul\":9009:9012   */\n      dup3\n        /* \"#utility.yul\":9000:9006   */\n      dup7\n        /* \"#utility.yul\":8918:9013   */\n      tag_133\n      jump\t// in\n    tag_234:\n        /* \"#utility.yul\":8911:9013   */\n      swap2\n      pop\n        /* \"#utility.yul\":9030:9178   */\n      tag_235\n        /* \"#utility.yul\":9174:9177   */\n      dup3\n        /* \"#utility.yul\":9030:9178   */\n      tag_135\n      jump\t// in\n    tag_235:\n        /* \"#utility.yul\":9023:9178   */\n      swap2\n      pop\n        /* \"#utility.yul\":9195:9290   */\n      tag_236\n        /* \"#utility.yul\":9286:9289   */\n      dup3\n        /* \"#utility.yul\":9277:9283   */\n      dup6\n        /* \"#utility.yul\":9195:9290   */\n      tag_133\n      jump\t// in\n    tag_236:\n        /* \"#utility.yul\":9188:9290   */\n      swap2\n      pop\n        /* \"#utility.yul\":9307:9455   */\n      tag_237\n        /* \"#utility.yul\":9451:9454   */\n      dup3\n        /* \"#utility.yul\":9307:9455   */\n      tag_137\n      jump\t// in\n    tag_237:\n        /* \"#utility.yul\":9300:9455   */\n      swap2\n      pop\n        /* \"#utility.yul\":9472:9567   */\n      tag_238\n        /* \"#utility.yul\":9563:9566   */\n      dup3\n        /* \"#utility.yul\":9554:9560   */\n      dup5\n        /* \"#utility.yul\":9472:9567   */\n      tag_133\n      jump\t// in\n    tag_238:\n        /* \"#utility.yul\":9465:9567   */\n      swap2\n      pop\n        /* \"#utility.yul\":9584:9732   */\n      tag_239\n        /* \"#utility.yul\":9728:9731   */\n      dup3\n        /* \"#utility.yul\":9584:9732   */\n      tag_139\n      jump\t// in\n    tag_239:\n        /* \"#utility.yul\":9577:9732   */\n      swap2\n      pop\n        /* \"#utility.yul\":9749:9752   */\n      dup2\n        /* \"#utility.yul\":9742:9752   */\n      swap1\n      pop\n        /* \"#utility.yul\":8365:9758   */\n      swap5\n      swap4\n      pop\n      pop\n      pop\n      pop\n      jump\t// out\n        /* \"#utility.yul\":9764:9944   */\n    tag_91:\n        /* \"#utility.yul\":9812:9889   */\n      0x4e487b7100000000000000000000000000000000000000000000000000000000\n        /* \"#utility.yul\":9809:9810   */\n      0x00\n        /* \"#utility.yul\":9802:9890   */\n      mstore\n        /* \"#utility.yul\":9909:9913   */\n      0x41\n        /* \"#utility.yul\":9906:9907   */\n      0x04\n        /* \"#utility.yul\":9899:9914   */\n      mstore\n        /* \"#utility.yul\":9933:9937   */\n      0x24\n        /* \"#utility.yul\":9930:9931   */\n      0x00\n        /* \"#utility.yul\":9923:9938   */\n      revert\n\n    auxdata: 0xa2646970667358221220441d31ba52432c51ab79d2a9b811124d351dace8de7134b753b2a3b685db748364736f6c63430008120033\n}\n",
				"bytecode": {
					"linkReferences": {},
					"object": "60806040523480156200001157600080fd5b5060405162000d3d38038062000d3d83398181016040528101906200003791906200009b565b42600081905550806000546200004e9190620000fc565b6001819055505062000137565b600080fd5b6000819050919050565b620000758162000060565b81146200008157600080fd5b50565b60008151905062000095816200006a565b92915050565b600060208284031215620000b457620000b36200005b565b5b6000620000c48482850162000084565b91505092915050565b7f4e487b7100000000000000000000000000000000000000000000000000000000600052601160045260246000fd5b6000620001098262000060565b9150620001168362000060565b9250828201905080821115620001315762000130620000cd565b5b92915050565b610bf680620001476000396000f3fe608060405234801561001057600080fd5b50600436106100575760003560e01c806329cb924d1461005c5780633197cbb61461007a57806378e97925146100985780638f5949f9146100b6578063de5101af146100d4575b600080fd5b610064610104565b6040516100719190610671565b60405180910390f35b61008261010c565b60405161008f9190610671565b60405180910390f35b6100a0610112565b6040516100ad9190610671565b60405180910390f35b6100be610118565b6040516100cb91906106a7565b60405180910390f35b6100ee60048036038101906100e991906106f3565b610124565b6040516100fb91906107b0565b60405180910390f35b600042905090565b60015481565b60005481565b60006001544210905090565b606060008211610169576040517f08c379a00000000000000000000000000000000000000000000000000000000081526004016101609061081e565b60405180910390fd5b6000806000610176610635565b601f816000600c811061018c5761018b61083e565b5b602002019060ff16908160ff1681525050601c816001600c81106101b3576101b261083e565b5b602002019060ff16908160ff1681525050601f816002600c81106101da576101d961083e565b5b602002019060ff16908160ff1681525050601e816003600c81106102015761020061083e565b5b602002019060ff16908160ff1681525050601f816004600c81106102285761022761083e565b5b602002019060ff16908160ff1681525050601e816005600c811061024f5761024e61083e565b5b602002019060ff16908160ff1681525050601f816006600c81106102765761027561083e565b5b602002019060ff16908160ff1681525050601f816007600c811061029d5761029c61083e565b5b602002019060ff16908160ff1681525050601e816008600c81106102c4576102c361083e565b5b602002019060ff16908160ff1681525050601f816009600c81106102eb576102ea61083e565b5b602002019060ff16908160ff1681525050601e81600a600c81106103125761031161083e565b5b602002019060ff16908160ff1681525050601f81600b600c81106103395761033861083e565b5b602002019060ff16908160ff1681525050600062015180905060006301e133809050808861036791906108cb565b9550808861037591906108fc565b975060008095505b600c8610156103f657828487600c811061039a5761039961083e565b5b602002015160ff166103ac919061092d565b9050808910156103d5576001838a6103c491906108cb565b6103ce919061096f565b94506103f6565b80896103e191906109a3565b985085806103ee906109d7565b96505061037d565b8580610401906109d7565b96505061040d8561045a565b6104168761045a565b61042b60648a61042691906108fc565b61045a565b60405160200161043d93929190610b3f565b604051602081830303815290604052975050505050505050919050565b606060006064905060008167ffffffffffffffff81111561047e5761047d610b91565b5b6040519080825280601f01601f1916602001820160405280156104b05781602001600182028036833780820191505090505b50905060005b60008514610542576000600a866104cd91906108fc565b9050600a866104dc91906108cb565b95508060306104eb919061096f565b60f81b8383806104fa906109d7565b94508151811061050d5761050c61083e565b5b60200101907effffffffffffffffffffffffffffffffffffffffffffffffffffffffffffff1916908160001a905350506104b6565b60008167ffffffffffffffff81111561055e5761055d610b91565b5b6040519080825280601f01601f1916602001820160405280156105905781602001600182028036833780820191505090505b50905060005b828110156106285783816001856105ad91906109a3565b6105b791906109a3565b815181106105c8576105c761083e565b5b602001015160f81c60f81b8282815181106105e6576105e561083e565b5b60200101907effffffffffffffffffffffffffffffffffffffffffffffffffffffffffffff1916908160001a9053508080610620906109d7565b915050610596565b5080945050505050919050565b604051806101800160405280600c90602082028036833780820191505090505090565b6000819050919050565b61066b81610658565b82525050565b60006020820190506106866000830184610662565b92915050565b60008115159050919050565b6106a18161068c565b82525050565b60006020820190506106bc6000830184610698565b92915050565b600080fd5b6106d081610658565b81146106db57600080fd5b50565b6000813590506106ed816106c7565b92915050565b600060208284031215610709576107086106c2565b5b6000610717848285016106de565b91505092915050565b600081519050919050565b600082825260208201905092915050565b60005b8381101561075a57808201518184015260208101905061073f565b60008484015250505050565b6000601f19601f8301169050919050565b600061078282610720565b61078c818561072b565b935061079c81856020860161073c565b6107a581610766565b840191505092915050565b600060208201905081810360008301526107ca8184610777565b905092915050565b7f54696d657374616d70206d7573742062652067726561746572207468616e2030600082015250565b600061080860208361072b565b9150610813826107d2565b602082019050919050565b60006020820190508181036000830152610837816107fb565b9050919050565b7f4e487b7100000000000000000000000000000000000000000000000000000000600052603260045260246000fd5b7f4e487b7100000000000000000000000000000000000000000000000000000000600052601260045260246000fd5b7f4e487b7100000000000000000000000000000000000000000000000000000000600052601160045260246000fd5b60006108d682610658565b91506108e183610658565b9250826108f1576108f061086d565b5b828204905092915050565b600061090782610658565b915061091283610658565b9250826109225761092161086d565b5b828206905092915050565b600061093882610658565b915061094383610658565b925082820261095181610658565b915082820484148315176109685761096761089c565b5b5092915050565b600061097a82610658565b915061098583610658565b925082820190508082111561099d5761099c61089c565b5b92915050565b60006109ae82610658565b91506109b983610658565b92508282039050818111156109d1576109d061089c565b5b92915050565b60006109e282610658565b91507fffffffffffffffffffffffffffffffffffffffffffffffffffffffffffffffff8203610a1457610a1361089c565b5b600182019050919050565b600081905092915050565b6000610a3582610720565b610a3f8185610a1f565b9350610a4f81856020860161073c565b80840191505092915050565b7f6461797300000000000000000000000000000000000000000000000000000000600082015250565b6000610a91600483610a1f565b9150610a9c82610a5b565b600482019050919050565b7f6d6f6e7468730000000000000000000000000000000000000000000000000000600082015250565b6000610add600683610a1f565b9150610ae882610aa7565b600682019050919050565b7f7965617273000000000000000000000000000000000000000000000000000000600082015250565b6000610b29600583610a1f565b9150610b3482610af3565b600582019050919050565b6000610b4b8286610a2a565b9150610b5682610a84565b9150610b628285610a2a565b9150610b6d82610ad0565b9150610b798284610a2a565b9150610b8482610b1c565b9150819050949350505050565b7f4e487b7100000000000000000000000000000000000000000000000000000000600052604160045260246000fdfea2646970667358221220441d31ba52432c51ab79d2a9b811124d351dace8de7134b753b2a3b685db748364736f6c63430008120033",
					"opcodes": "PUSH1 0x80 PUSH1 0x40 MSTORE CALLVALUE DUP1 ISZERO PUSH3 0x11 JUMPI PUSH1 0x0 DUP1 REVERT JUMPDEST POP PUSH1 0x40 MLOAD PUSH3 0xD3D CODESIZE SUB DUP1 PUSH3 0xD3D DUP4 CODECOPY DUP2 DUP2 ADD PUSH1 0x40 MSTORE DUP2 ADD SWAP1 PUSH3 0x37 SWAP2 SWAP1 PUSH3 0x9B JUMP JUMPDEST TIMESTAMP PUSH1 0x0 DUP2 SWAP1 SSTORE POP DUP1 PUSH1 0x0 SLOAD PUSH3 0x4E SWAP2 SWAP1 PUSH3 0xFC JUMP JUMPDEST PUSH1 0x1 DUP2 SWAP1 SSTORE POP POP PUSH3 0x137 JUMP JUMPDEST PUSH1 0x0 DUP1 REVERT JUMPDEST PUSH1 0x0 DUP2 SWAP1 POP SWAP2 SWAP1 POP JUMP JUMPDEST PUSH3 0x75 DUP2 PUSH3 0x60 JUMP JUMPDEST DUP2 EQ PUSH3 0x81 JUMPI PUSH1 0x0 DUP1 REVERT JUMPDEST POP JUMP JUMPDEST PUSH1 0x0 DUP2 MLOAD SWAP1 POP PUSH3 0x95 DUP2 PUSH3 0x6A JUMP JUMPDEST SWAP3 SWAP2 POP POP JUMP JUMPDEST PUSH1 0x0 PUSH1 0x20 DUP3 DUP5 SUB SLT ISZERO PUSH3 0xB4 JUMPI PUSH3 0xB3 PUSH3 0x5B JUMP JUMPDEST JUMPDEST PUSH1 0x0 PUSH3 0xC4 DUP5 DUP3 DUP6 ADD PUSH3 0x84 JUMP JUMPDEST SWAP2 POP POP SWAP3 SWAP2 POP POP JUMP JUMPDEST PUSH32 0x4E487B7100000000000000000000000000000000000000000000000000000000 PUSH1 0x0 MSTORE PUSH1 0x11 PUSH1 0x4 MSTORE PUSH1 0x24 PUSH1 0x0 REVERT JUMPDEST PUSH1 0x0 PUSH3 0x109 DUP3 PUSH3 0x60 JUMP JUMPDEST SWAP2 POP PUSH3 0x116 DUP4 PUSH3 0x60 JUMP JUMPDEST SWAP3 POP DUP3 DUP3 ADD SWAP1 POP DUP1 DUP3 GT ISZERO PUSH3 0x131 JUMPI PUSH3 0x130 PUSH3 0xCD JUMP JUMPDEST JUMPDEST SWAP3 SWAP2 POP POP JUMP JUMPDEST PUSH2 0xBF6 DUP1 PUSH3 0x147 PUSH1 0x0 CODECOPY PUSH1 0x0 RETURN INVALID PUSH1 0x80 PUSH1 0x40 MSTORE CALLVALUE DUP1 ISZERO PUSH2 0x10 JUMPI PUSH1 0x0 DUP1 REVERT JUMPDEST POP PUSH1 0x4 CALLDATASIZE LT PUSH2 0x57 JUMPI PUSH1 0x0 CALLDATALOAD PUSH1 0xE0 SHR DUP1 PUSH4 0x29CB924D EQ PUSH2 0x5C JUMPI DUP1 PUSH4 0x3197CBB6 EQ PUSH2 0x7A JUMPI DUP1 PUSH4 0x78E97925 EQ PUSH2 0x98 JUMPI DUP1 PUSH4 0x8F5949F9 EQ PUSH2 0xB6 JUMPI DUP1 PUSH4 0xDE5101AF EQ PUSH2 0xD4 JUMPI JUMPDEST PUSH1 0x0 DUP1 REVERT JUMPDEST PUSH2 0x64 PUSH2 0x104 JUMP JUMPDEST PUSH1 0x40 MLOAD PUSH2 0x71 SWAP2 SWAP1 PUSH2 0x671 JUMP JUMPDEST PUSH1 0x40 MLOAD DUP1 SWAP2 SUB SWAP1 RETURN JUMPDEST PUSH2 0x82 PUSH2 0x10C JUMP JUMPDEST PUSH1 0x40 MLOAD PUSH2 0x8F SWAP2 SWAP1 PUSH2 0x671 JUMP JUMPDEST PUSH1 0x40 MLOAD DUP1 SWAP2 SUB SWAP1 RETURN JUMPDEST PUSH2 0xA0 PUSH2 0x112 JUMP JUMPDEST PUSH1 0x40 MLOAD PUSH2 0xAD SWAP2 SWAP1 PUSH2 0x671 JUMP JUMPDEST PUSH1 0x40 MLOAD DUP1 SWAP2 SUB SWAP1 RETURN JUMPDEST PUSH2 0xBE PUSH2 0x118 JUMP JUMPDEST PUSH1 0x40 MLOAD PUSH2 0xCB SWAP2 SWAP1 PUSH2 0x6A7 JUMP JUMPDEST PUSH1 0x40 MLOAD DUP1 SWAP2 SUB SWAP1 RETURN JUMPDEST PUSH2 0xEE PUSH1 0x4 DUP1 CALLDATASIZE SUB DUP2 ADD SWAP1 PUSH2 0xE9 SWAP2 SWAP1 PUSH2 0x6F3 JUMP JUMPDEST PUSH2 0x124 JUMP JUMPDEST PUSH1 0x40 MLOAD PUSH2 0xFB SWAP2 SWAP1 PUSH2 0x7B0 JUMP JUMPDEST PUSH1 0x40 MLOAD DUP1 SWAP2 SUB SWAP1 RETURN JUMPDEST PUSH1 0x0 TIMESTAMP SWAP1 POP SWAP1 JUMP JUMPDEST PUSH1 0x1 SLOAD DUP2 JUMP JUMPDEST PUSH1 0x0 SLOAD DUP2 JUMP JUMPDEST PUSH1 0x0 PUSH1 0x1 SLOAD TIMESTAMP LT SWAP1 POP SWAP1 JUMP JUMPDEST PUSH1 0x60 PUSH1 0x0 DUP3 GT PUSH2 0x169 JUMPI PUSH1 0x40 MLOAD PUSH32 0x8C379A000000000000000000000000000000000000000000000000000000000 DUP2 MSTORE PUSH1 0x4 ADD PUSH2 0x160 SWAP1 PUSH2 0x81E JUMP JUMPDEST PUSH1 0x40 MLOAD DUP1 SWAP2 SUB SWAP1 REVERT JUMPDEST PUSH1 0x0 DUP1 PUSH1 0x0 PUSH2 0x176 PUSH2 0x635 JUMP JUMPDEST PUSH1 0x1F DUP2 PUSH1 0x0 PUSH1 0xC DUP2 LT PUSH2 0x18C JUMPI PUSH2 0x18B PUSH2 0x83E JUMP JUMPDEST JUMPDEST PUSH1 0x20 MUL ADD SWAP1 PUSH1 0xFF AND SWAP1 DUP2 PUSH1 0xFF AND DUP2 MSTORE POP POP PUSH1 0x1C DUP2 PUSH1 0x1 PUSH1 0xC DUP2 LT PUSH2 0x1B3 JUMPI PUSH2 0x1B2 PUSH2 0x83E JUMP JUMPDEST JUMPDEST PUSH1 0x20 MUL ADD SWAP1 PUSH1 0xFF AND SWAP1 DUP2 PUSH1 0xFF AND DUP2 MSTORE POP POP PUSH1 0x1F DUP2 PUSH1 0x2 PUSH1 0xC DUP2 LT PUSH2 0x1DA JUMPI PUSH2 0x1D9 PUSH2 0x83E JUMP JUMPDEST JUMPDEST PUSH1 0x20 MUL ADD SWAP1 PUSH1 0xFF AND SWAP1 DUP2 PUSH1 0xFF AND DUP2 MSTORE POP POP PUSH1 0x1E DUP2 PUSH1 0x3 PUSH1 0xC DUP2 LT PUSH2 0x201 JUMPI PUSH2 0x200 PUSH2 0x83E JUMP JUMPDEST JUMPDEST PUSH1 0x20 MUL ADD SWAP1 PUSH1 0xFF AND SWAP1 DUP2 PUSH1 0xFF AND DUP2 MSTORE POP POP PUSH1 0x1F DUP2 PUSH1 0x4 PUSH1 0xC DUP2 LT PUSH2 0x228 JUMPI PUSH2 0x227 PUSH2 0x83E JUMP JUMPDEST JUMPDEST PUSH1 0x20 MUL ADD SWAP1 PUSH1 0xFF AND SWAP1 DUP2 PUSH1 0xFF AND DUP2 MSTORE POP POP PUSH1 0x1E DUP2 PUSH1 0x5 PUSH1 0xC DUP2 LT PUSH2 0x24F JUMPI PUSH2 0x24E PUSH2 0x83E JUMP JUMPDEST JUMPDEST PUSH1 0x20 MUL ADD SWAP1 PUSH1 0xFF AND SWAP1 DUP2 PUSH1 0xFF AND DUP2 MSTORE POP POP PUSH1 0x1F DUP2 PUSH1 0x6 PUSH1 0xC DUP2 LT PUSH2 0x276 JUMPI PUSH2 0x275 PUSH2 0x83E JUMP JUMPDEST JUMPDEST PUSH1 0x20 MUL ADD SWAP1 PUSH1 0xFF AND SWAP1 DUP2 PUSH1 0xFF AND DUP2 MSTORE POP POP PUSH1 0x1F DUP2 PUSH1 0x7 PUSH1 0xC DUP2 LT PUSH2 0x29D JUMPI PUSH2 0x29C PUSH2 0x83E JUMP JUMPDEST JUMPDEST PUSH1 0x20 MUL ADD SWAP1 PUSH1 0xFF AND SWAP1 DUP2 PUSH1 0xFF AND DUP2 MSTORE POP POP PUSH1 0x1E DUP2 PUSH1 0x8 PUSH1 0xC DUP2 LT PUSH2 0x2C4 JUMPI PUSH2 0x2C3 PUSH2 0x83E JUMP JUMPDEST JUMPDEST PUSH1 0x20 MUL ADD SWAP1 PUSH1 0xFF AND SWAP1 DUP2 PUSH1 0xFF AND DUP2 MSTORE POP POP PUSH1 0x1F DUP2 PUSH1 0x9 PUSH1 0xC DUP2 LT PUSH2 0x2EB JUMPI PUSH2 0x2EA PUSH2 0x83E JUMP JUMPDEST JUMPDEST PUSH1 0x20 MUL ADD SWAP1 PUSH1 0xFF AND SWAP1 DUP2 PUSH1 0xFF AND DUP2 MSTORE POP POP PUSH1 0x1E DUP2 PUSH1 0xA PUSH1 0xC DUP2 LT PUSH2 0x312 JUMPI PUSH2 0x311 PUSH2 0x83E JUMP JUMPDEST JUMPDEST PUSH1 0x20 MUL ADD SWAP1 PUSH1 0xFF AND SWAP1 DUP2 PUSH1 0xFF AND DUP2 MSTORE POP POP PUSH1 0x1F DUP2 PUSH1 0xB PUSH1 0xC DUP2 LT PUSH2 0x339 JUMPI PUSH2 0x338 PUSH2 0x83E JUMP JUMPDEST JUMPDEST PUSH1 0x20 MUL ADD SWAP1 PUSH1 0xFF AND SWAP1 DUP2 PUSH1 0xFF AND DUP2 MSTORE POP POP PUSH1 0x0 PUSH3 0x15180 SWAP1 POP PUSH1 0x0 PUSH4 0x1E13380 SWAP1 POP DUP1 DUP9 PUSH2 0x367 SWAP2 SWAP1 PUSH2 0x8CB JUMP JUMPDEST SWAP6 POP DUP1 DUP9 PUSH2 0x375 SWAP2 SWAP1 PUSH2 0x8FC JUMP JUMPDEST SWAP8 POP PUSH1 0x0 DUP1 SWAP6 POP JUMPDEST PUSH1 0xC DUP7 LT ISZERO PUSH2 0x3F6 JUMPI DUP3 DUP5 DUP8 PUSH1 0xC DUP2 LT PUSH2 0x39A JUMPI PUSH2 0x399 PUSH2 0x83E JUMP JUMPDEST JUMPDEST PUSH1 0x20 MUL ADD MLOAD PUSH1 0xFF AND PUSH2 0x3AC SWAP2 SWAP1 PUSH2 0x92D JUMP JUMPDEST SWAP1 POP DUP1 DUP10 LT ISZERO PUSH2 0x3D5 JUMPI PUSH1 0x1 DUP4 DUP11 PUSH2 0x3C4 SWAP2 SWAP1 PUSH2 0x8CB JUMP JUMPDEST PUSH2 0x3CE SWAP2 SWAP1 PUSH2 0x96F JUMP JUMPDEST SWAP5 POP PUSH2 0x3F6 JUMP JUMPDEST DUP1 DUP10 PUSH2 0x3E1 SWAP2 SWAP1 PUSH2 0x9A3 JUMP JUMPDEST SWAP9 POP DUP6 DUP1 PUSH2 0x3EE SWAP1 PUSH2 0x9D7 JUMP JUMPDEST SWAP7 POP POP PUSH2 0x37D JUMP JUMPDEST DUP6 DUP1 PUSH2 0x401 SWAP1 PUSH2 0x9D7 JUMP JUMPDEST SWAP7 POP POP PUSH2 0x40D DUP6 PUSH2 0x45A JUMP JUMPDEST PUSH2 0x416 DUP8 PUSH2 0x45A JUMP JUMPDEST PUSH2 0x42B PUSH1 0x64 DUP11 PUSH2 0x426 SWAP2 SWAP1 PUSH2 0x8FC JUMP JUMPDEST PUSH2 0x45A JUMP JUMPDEST PUSH1 0x40 MLOAD PUSH1 0x20 ADD PUSH2 0x43D SWAP4 SWAP3 SWAP2 SWAP1 PUSH2 0xB3F JUMP JUMPDEST PUSH1 0x40 MLOAD PUSH1 0x20 DUP2 DUP4 SUB SUB DUP2 MSTORE SWAP1 PUSH1 0x40 MSTORE SWAP8 POP POP POP POP POP POP POP POP SWAP2 SWAP1 POP JUMP JUMPDEST PUSH1 0x60 PUSH1 0x0 PUSH1 0x64 SWAP1 POP PUSH1 0x0 DUP2 PUSH8 0xFFFFFFFFFFFFFFFF DUP2 GT ISZERO PUSH2 0x47E JUMPI PUSH2 0x47D PUSH2 0xB91 JUMP JUMPDEST JUMPDEST PUSH1 0x40 MLOAD SWAP1 DUP1 DUP3 MSTORE DUP1 PUSH1 0x1F ADD PUSH1 0x1F NOT AND PUSH1 0x20 ADD DUP3 ADD PUSH1 0x40 MSTORE DUP1 ISZERO PUSH2 0x4B0 JUMPI DUP2 PUSH1 0x20 ADD PUSH1 0x1 DUP3 MUL DUP1 CALLDATASIZE DUP4 CALLDATACOPY DUP1 DUP3 ADD SWAP2 POP POP SWAP1 POP JUMPDEST POP SWAP1 POP PUSH1 0x0 JUMPDEST PUSH1 0x0 DUP6 EQ PUSH2 0x542 JUMPI PUSH1 0x0 PUSH1 0xA DUP7 PUSH2 0x4CD SWAP2 SWAP1 PUSH2 0x8FC JUMP JUMPDEST SWAP1 POP PUSH1 0xA DUP7 PUSH2 0x4DC SWAP2 SWAP1 PUSH2 0x8CB JUMP JUMPDEST SWAP6 POP DUP1 PUSH1 0x30 PUSH2 0x4EB SWAP2 SWAP1 PUSH2 0x96F JUMP JUMPDEST PUSH1 0xF8 SHL DUP4 DUP4 DUP1 PUSH2 0x4FA SWAP1 PUSH2 0x9D7 JUMP JUMPDEST SWAP5 POP DUP2 MLOAD DUP2 LT PUSH2 0x50D JUMPI PUSH2 0x50C PUSH2 0x83E JUMP JUMPDEST JUMPDEST PUSH1 0x20 ADD ADD SWAP1 PUSH31 0xFFFFFFFFFFFFFFFFFFFFFFFFFFFFFFFFFFFFFFFFFFFFFFFFFFFFFFFFFFFFFF NOT AND SWAP1 DUP2 PUSH1 0x0 BYTE SWAP1 MSTORE8 POP POP PUSH2 0x4B6 JUMP JUMPDEST PUSH1 0x0 DUP2 PUSH8 0xFFFFFFFFFFFFFFFF DUP2 GT ISZERO PUSH2 0x55E JUMPI PUSH2 0x55D PUSH2 0xB91 JUMP JUMPDEST JUMPDEST PUSH1 0x40 MLOAD SWAP1 DUP1 DUP3 MSTORE DUP1 PUSH1 0x1F ADD PUSH1 0x1F NOT AND PUSH1 0x20 ADD DUP3 ADD PUSH1 0x40 MSTORE DUP1 ISZERO PUSH2 0x590 JUMPI DUP2 PUSH1 0x20 ADD PUSH1 0x1 DUP3 MUL DUP1 CALLDATASIZE DUP4 CALLDATACOPY DUP1 DUP3 ADD SWAP2 POP POP SWAP1 POP JUMPDEST POP SWAP1 POP PUSH1 0x0 JUMPDEST DUP3 DUP2 LT ISZERO PUSH2 0x628 JUMPI DUP4 DUP2 PUSH1 0x1 DUP6 PUSH2 0x5AD SWAP2 SWAP1 PUSH2 0x9A3 JUMP JUMPDEST PUSH2 0x5B7 SWAP2 SWAP1 PUSH2 0x9A3 JUMP JUMPDEST DUP2 MLOAD DUP2 LT PUSH2 0x5C8 JUMPI PUSH2 0x5C7 PUSH2 0x83E JUMP JUMPDEST JUMPDEST PUSH1 0x20 ADD ADD MLOAD PUSH1 0xF8 SHR PUSH1 0xF8 SHL DUP3 DUP3 DUP2 MLOAD DUP2 LT PUSH2 0x5E6 JUMPI PUSH2 0x5E5 PUSH2 0x83E JUMP JUMPDEST JUMPDEST PUSH1 0x20 ADD ADD SWAP1 PUSH31 0xFFFFFFFFFFFFFFFFFFFFFFFFFFFFFFFFFFFFFFFFFFFFFFFFFFFFFFFFFFFFFF NOT AND SWAP1 DUP2 PUSH1 0x0 BYTE SWAP1 MSTORE8 POP DUP1 DUP1 PUSH2 0x620 SWAP1 PUSH2 0x9D7 JUMP JUMPDEST SWAP2 POP POP PUSH2 0x596 JUMP JUMPDEST POP DUP1 SWAP5 POP POP POP POP POP SWAP2 SWAP1 POP JUMP JUMPDEST PUSH1 0x40 MLOAD DUP1 PUSH2 0x180 ADD PUSH1 0x40 MSTORE DUP1 PUSH1 0xC SWAP1 PUSH1 0x20 DUP3 MUL DUP1 CALLDATASIZE DUP4 CALLDATACOPY DUP1 DUP3 ADD SWAP2 POP POP SWAP1 POP POP SWAP1 JUMP JUMPDEST PUSH1 0x0 DUP2 SWAP1 POP SWAP2 SWAP1 POP JUMP JUMPDEST PUSH2 0x66B DUP2 PUSH2 0x658 JUMP JUMPDEST DUP3 MSTORE POP POP JUMP JUMPDEST PUSH1 0x0 PUSH1 0x20 DUP3 ADD SWAP1 POP PUSH2 0x686 PUSH1 0x0 DUP4 ADD DUP5 PUSH2 0x662 JUMP JUMPDEST SWAP3 SWAP2 POP POP JUMP JUMPDEST PUSH1 0x0 DUP2 ISZERO ISZERO SWAP1 POP SWAP2 SWAP1 POP JUMP JUMPDEST PUSH2 0x6A1 DUP2 PUSH2 0x68C JUMP JUMPDEST DUP3 MSTORE POP POP JUMP JUMPDEST PUSH1 0x0 PUSH1 0x20 DUP3 ADD SWAP1 POP PUSH2 0x6BC PUSH1 0x0 DUP4 ADD DUP5 PUSH2 0x698 JUMP JUMPDEST SWAP3 SWAP2 POP POP JUMP JUMPDEST PUSH1 0x0 DUP1 REVERT JUMPDEST PUSH2 0x6D0 DUP2 PUSH2 0x658 JUMP JUMPDEST DUP2 EQ PUSH2 0x6DB JUMPI PUSH1 0x0 DUP1 REVERT JUMPDEST POP JUMP JUMPDEST PUSH1 0x0 DUP2 CALLDATALOAD SWAP1 POP PUSH2 0x6ED DUP2 PUSH2 0x6C7 JUMP JUMPDEST SWAP3 SWAP2 POP POP JUMP JUMPDEST PUSH1 0x0 PUSH1 0x20 DUP3 DUP5 SUB SLT ISZERO PUSH2 0x709 JUMPI PUSH2 0x708 PUSH2 0x6C2 JUMP JUMPDEST JUMPDEST PUSH1 0x0 PUSH2 0x717 DUP5 DUP3 DUP6 ADD PUSH2 0x6DE JUMP JUMPDEST SWAP2 POP POP SWAP3 SWAP2 POP POP JUMP JUMPDEST PUSH1 0x0 DUP2 MLOAD SWAP1 POP SWAP2 SWAP1 POP JUMP JUMPDEST PUSH1 0x0 DUP3 DUP3 MSTORE PUSH1 0x20 DUP3 ADD SWAP1 POP SWAP3 SWAP2 POP POP JUMP JUMPDEST PUSH1 0x0 JUMPDEST DUP4 DUP2 LT ISZERO PUSH2 0x75A JUMPI DUP1 DUP3 ADD MLOAD DUP2 DUP5 ADD MSTORE PUSH1 0x20 DUP2 ADD SWAP1 POP PUSH2 0x73F JUMP JUMPDEST PUSH1 0x0 DUP5 DUP5 ADD MSTORE POP POP POP POP JUMP JUMPDEST PUSH1 0x0 PUSH1 0x1F NOT PUSH1 0x1F DUP4 ADD AND SWAP1 POP SWAP2 SWAP1 POP JUMP JUMPDEST PUSH1 0x0 PUSH2 0x782 DUP3 PUSH2 0x720 JUMP JUMPDEST PUSH2 0x78C DUP2 DUP6 PUSH2 0x72B JUMP JUMPDEST SWAP4 POP PUSH2 0x79C DUP2 DUP6 PUSH1 0x20 DUP7 ADD PUSH2 0x73C JUMP JUMPDEST PUSH2 0x7A5 DUP2 PUSH2 0x766 JUMP JUMPDEST DUP5 ADD SWAP2 POP POP SWAP3 SWAP2 POP POP JUMP JUMPDEST PUSH1 0x0 PUSH1 0x20 DUP3 ADD SWAP1 POP DUP2 DUP2 SUB PUSH1 0x0 DUP4 ADD MSTORE PUSH2 0x7CA DUP2 DUP5 PUSH2 0x777 JUMP JUMPDEST SWAP1 POP SWAP3 SWAP2 POP POP JUMP JUMPDEST PUSH32 0x54696D657374616D70206D7573742062652067726561746572207468616E2030 PUSH1 0x0 DUP3 ADD MSTORE POP JUMP JUMPDEST PUSH1 0x0 PUSH2 0x808 PUSH1 0x20 DUP4 PUSH2 0x72B JUMP JUMPDEST SWAP2 POP PUSH2 0x813 DUP3 PUSH2 0x7D2 JUMP JUMPDEST PUSH1 0x20 DUP3 ADD SWAP1 POP SWAP2 SWAP1 POP JUMP JUMPDEST PUSH1 0x0 PUSH1 0x20 DUP3 ADD SWAP1 POP DUP2 DUP2 SUB PUSH1 0x0 DUP4 ADD MSTORE PUSH2 0x837 DUP2 PUSH2 0x7FB JUMP JUMPDEST SWAP1 POP SWAP2 SWAP1 POP JUMP JUMPDEST PUSH32 0x4E487B7100000000000000000000000000000000000000000000000000000000 PUSH1 0x0 MSTORE PUSH1 0x32 PUSH1 0x4 MSTORE PUSH1 0x24 PUSH1 0x0 REVERT JUMPDEST PUSH32 0x4E487B7100000000000000000000000000000000000000000000000000000000 PUSH1 0x0 MSTORE PUSH1 0x12 PUSH1 0x4 MSTORE PUSH1 0x24 PUSH1 0x0 REVERT JUMPDEST PUSH32 0x4E487B7100000000000000000000000000000000000000000000000000000000 PUSH1 0x0 MSTORE PUSH1 0x11 PUSH1 0x4 MSTORE PUSH1 0x24 PUSH1 0x0 REVERT JUMPDEST PUSH1 0x0 PUSH2 0x8D6 DUP3 PUSH2 0x658 JUMP JUMPDEST SWAP2 POP PUSH2 0x8E1 DUP4 PUSH2 0x658 JUMP JUMPDEST SWAP3 POP DUP3 PUSH2 0x8F1 JUMPI PUSH2 0x8F0 PUSH2 0x86D JUMP JUMPDEST JUMPDEST DUP3 DUP3 DIV SWAP1 POP SWAP3 SWAP2 POP POP JUMP JUMPDEST PUSH1 0x0 PUSH2 0x907 DUP3 PUSH2 0x658 JUMP JUMPDEST SWAP2 POP PUSH2 0x912 DUP4 PUSH2 0x658 JUMP JUMPDEST SWAP3 POP DUP3 PUSH2 0x922 JUMPI PUSH2 0x921 PUSH2 0x86D JUMP JUMPDEST JUMPDEST DUP3 DUP3 MOD SWAP1 POP SWAP3 SWAP2 POP POP JUMP JUMPDEST PUSH1 0x0 PUSH2 0x938 DUP3 PUSH2 0x658 JUMP JUMPDEST SWAP2 POP PUSH2 0x943 DUP4 PUSH2 0x658 JUMP JUMPDEST SWAP3 POP DUP3 DUP3 MUL PUSH2 0x951 DUP2 PUSH2 0x658 JUMP JUMPDEST SWAP2 POP DUP3 DUP3 DIV DUP5 EQ DUP4 ISZERO OR PUSH2 0x968 JUMPI PUSH2 0x967 PUSH2 0x89C JUMP JUMPDEST JUMPDEST POP SWAP3 SWAP2 POP POP JUMP JUMPDEST PUSH1 0x0 PUSH2 0x97A DUP3 PUSH2 0x658 JUMP JUMPDEST SWAP2 POP PUSH2 0x985 DUP4 PUSH2 0x658 JUMP JUMPDEST SWAP3 POP DUP3 DUP3 ADD SWAP1 POP DUP1 DUP3 GT ISZERO PUSH2 0x99D JUMPI PUSH2 0x99C PUSH2 0x89C JUMP JUMPDEST JUMPDEST SWAP3 SWAP2 POP POP JUMP JUMPDEST PUSH1 0x0 PUSH2 0x9AE DUP3 PUSH2 0x658 JUMP JUMPDEST SWAP2 POP PUSH2 0x9B9 DUP4 PUSH2 0x658 JUMP JUMPDEST SWAP3 POP DUP3 DUP3 SUB SWAP1 POP DUP2 DUP2 GT ISZERO PUSH2 0x9D1 JUMPI PUSH2 0x9D0 PUSH2 0x89C JUMP JUMPDEST JUMPDEST SWAP3 SWAP2 POP POP JUMP JUMPDEST PUSH1 0x0 PUSH2 0x9E2 DUP3 PUSH2 0x658 JUMP JUMPDEST SWAP2 POP PUSH32 0xFFFFFFFFFFFFFFFFFFFFFFFFFFFFFFFFFFFFFFFFFFFFFFFFFFFFFFFFFFFFFFFF DUP3 SUB PUSH2 0xA14 JUMPI PUSH2 0xA13 PUSH2 0x89C JUMP JUMPDEST JUMPDEST PUSH1 0x1 DUP3 ADD SWAP1 POP SWAP2 SWAP1 POP JUMP JUMPDEST PUSH1 0x0 DUP2 SWAP1 POP SWAP3 SWAP2 POP POP JUMP JUMPDEST PUSH1 0x0 PUSH2 0xA35 DUP3 PUSH2 0x720 JUMP JUMPDEST PUSH2 0xA3F DUP2 DUP6 PUSH2 0xA1F JUMP JUMPDEST SWAP4 POP PUSH2 0xA4F DUP2 DUP6 PUSH1 0x20 DUP7 ADD PUSH2 0x73C JUMP JUMPDEST DUP1 DUP5 ADD SWAP2 POP POP SWAP3 SWAP2 POP POP JUMP JUMPDEST PUSH32 0x6461797300000000000000000000000000000000000000000000000000000000 PUSH1 0x0 DUP3 ADD MSTORE POP JUMP JUMPDEST PUSH1 0x0 PUSH2 0xA91 PUSH1 0x4 DUP4 PUSH2 0xA1F JUMP JUMPDEST SWAP2 POP PUSH2 0xA9C DUP3 PUSH2 0xA5B JUMP JUMPDEST PUSH1 0x4 DUP3 ADD SWAP1 POP SWAP2 SWAP1 POP JUMP JUMPDEST PUSH32 0x6D6F6E7468730000000000000000000000000000000000000000000000000000 PUSH1 0x0 DUP3 ADD MSTORE POP JUMP JUMPDEST PUSH1 0x0 PUSH2 0xADD PUSH1 0x6 DUP4 PUSH2 0xA1F JUMP JUMPDEST SWAP2 POP PUSH2 0xAE8 DUP3 PUSH2 0xAA7 JUMP JUMPDEST PUSH1 0x6 DUP3 ADD SWAP1 POP SWAP2 SWAP1 POP JUMP JUMPDEST PUSH32 0x7965617273000000000000000000000000000000000000000000000000000000 PUSH1 0x0 DUP3 ADD MSTORE POP JUMP JUMPDEST PUSH1 0x0 PUSH2 0xB29 PUSH1 0x5 DUP4 PUSH2 0xA1F JUMP JUMPDEST SWAP2 POP PUSH2 0xB34 DUP3 PUSH2 0xAF3 JUMP JUMPDEST PUSH1 0x5 DUP3 ADD SWAP1 POP SWAP2 SWAP1 POP JUMP JUMPDEST PUSH1 0x0 PUSH2 0xB4B DUP3 DUP7 PUSH2 0xA2A JUMP JUMPDEST SWAP2 POP PUSH2 0xB56 DUP3 PUSH2 0xA84 JUMP JUMPDEST SWAP2 POP PUSH2 0xB62 DUP3 DUP6 PUSH2 0xA2A JUMP JUMPDEST SWAP2 POP PUSH2 0xB6D DUP3 PUSH2 0xAD0 JUMP JUMPDEST SWAP2 POP PUSH2 0xB79 DUP3 DUP5 PUSH2 0xA2A JUMP JUMPDEST SWAP2 POP PUSH2 0xB84 DUP3 PUSH2 0xB1C JUMP JUMPDEST SWAP2 POP DUP2 SWAP1 POP SWAP5 SWAP4 POP POP POP POP JUMP JUMPDEST PUSH32 0x4E487B7100000000000000000000000000000000000000000000000000000000 PUSH1 0x0 MSTORE PUSH1 0x41 PUSH1 0x4 MSTORE PUSH1 0x24 PUSH1 0x0 REVERT INVALID LOG2 PUSH5 0x6970667358 0x22 SLT KECCAK256 PREVRANDAO SAR BALANCE 0xBA MSTORE NUMBER 0x2C MLOAD 0xAB PUSH26 0xD2A9B811124D351DACE8DE7134B753B2A3B685DB748364736F6C PUSH4 0x43000812 STOP CALLER "
				},
				"gasEstimates": {
					"creation": {
						"codeDepositCost": "612400",
						"executionCost": "infinite",
						"totalCost": "infinite"
					},
					"external": {
						"endTime()": "2429",
						"getCurrentTime()": "314",
						"isContractActive()": "2492",
						"startTime()": "2451",
						"timestampToDate(uint256)": "infinite"
					},
					"internal": {
						"uintToString(uint256)": "infinite"
					}
				},
				"methodIdentifiers": {
					"endTime()": "3197cbb6",
					"getCurrentTime()": "29cb924d",
					"isContractActive()": "8f5949f9",
					"startTime()": "78e97925",
					"timestampToDate(uint256)": "de5101af"
				}
			},
			"storageLayout": {
				"storage": [
					{
						"astId": 3,
						"contract": "time.sol:abc",
						"label": "startTime",
						"offset": 0,
						"slot": "0",
						"type": "t_uint256"
					},
					{
						"astId": 5,
						"contract": "time.sol:abc",
						"label": "endTime",
						"offset": 0,
						"slot": "1",
						"type": "t_uint256"
					}
				],
				"types": {
					"t_uint256": {
						"encoding": "inplace",
						"label": "uint256",
						"numberOfBytes": "32"
					}
				}
			},
			"userdoc": {
				"kind": "user",
				"methods": {},
				"version": 1
			}
		}
	}
}