{
	"student-sponser.sol": {
		"Manager": {
			"abi": [
				{
					"inputs": [
						{
							"internalType": "string",
							"name": "_type1",
							"type": "string"
						},
						{
							"internalType": "string",
							"name": "_type2",
							"type": "string"
						}
					],
					"stateMutability": "nonpayable",
					"type": "constructor"
				},
				{
					"inputs": [
						{
							"internalType": "string",
							"name": "t",
							"type": "string"
						}
					],
					"name": "Register",
					"outputs": [],
					"stateMutability": "nonpayable",
					"type": "function"
				},
				{
					"inputs": [
						{
							"internalType": "address",
							"name": "a",
							"type": "address"
						}
					],
					"name": "isUserRegistered",
					"outputs": [
						{
							"internalType": "bool",
							"name": "",
							"type": "bool"
						}
					],
					"stateMutability": "view",
					"type": "function"
				},
				{
					"inputs": [
						{
							"internalType": "address",
							"name": "a",
							"type": "address"
						}
					],
					"name": "isUserType",
					"outputs": [
						{
							"internalType": "string",
							"name": "",
							"type": "string"
						}
					],
					"stateMutability": "view",
					"type": "function"
				}
			],
			"devdoc": {
				"kind": "dev",
				"methods": {},
				"version": 1
			},
			"evm": {
				"assembly": "    /* \"student-sponser.sol\":68:914  contract Manager{... */\n  mstore(0x40, 0x80)\n    /* \"student-sponser.sol\":165:271  constructor(string memory _type1,string memory _type2) {... */\n  callvalue\n  dup1\n  iszero\n  tag_1\n  jumpi\n  0x00\n  dup1\n  revert\ntag_1:\n  pop\n  mload(0x40)\n  sub(codesize, bytecodeSize)\n  dup1\n  bytecodeSize\n  dup4\n  codecopy\n  dup2\n  dup2\n  add\n  0x40\n  mstore\n  dup2\n  add\n  swap1\n  tag_2\n  swap2\n  swap1\n  tag_3\n  jump\t// in\ntag_2:\n    /* \"student-sponser.sol\":236:242  _type1 */\n  dup2\n    /* \"student-sponser.sol\":230:235  type1 */\n  0x01\n    /* \"student-sponser.sol\":230:242  type1=_type1 */\n  swap1\n  dup2\n  tag_6\n  swap2\n  swap1\n  tag_7\n  jump\t// in\ntag_6:\n  pop\n    /* \"student-sponser.sol\":258:264  _type2 */\n  dup1\n    /* \"student-sponser.sol\":252:257  type2 */\n  0x02\n    /* \"student-sponser.sol\":252:264  type2=_type2 */\n  swap1\n  dup2\n  tag_8\n  swap2\n  swap1\n  tag_7\n  jump\t// in\ntag_8:\n  pop\n    /* \"student-sponser.sol\":165:271  constructor(string memory _type1,string memory _type2) {... */\n  pop\n  pop\n    /* \"student-sponser.sol\":68:914  contract Manager{... */\n  jump(tag_9)\n    /* \"#utility.yul\":7:82   */\ntag_10:\n    /* \"#utility.yul\":40:46   */\n  0x00\n    /* \"#utility.yul\":73:75   */\n  0x40\n    /* \"#utility.yul\":67:76   */\n  mload\n    /* \"#utility.yul\":57:76   */\n  swap1\n  pop\n    /* \"#utility.yul\":7:82   */\n  swap1\n  jump\t// out\n    /* \"#utility.yul\":88:205   */\ntag_11:\n    /* \"#utility.yul\":197:198   */\n  0x00\n    /* \"#utility.yul\":194:195   */\n  dup1\n    /* \"#utility.yul\":187:199   */\n  revert\n    /* \"#utility.yul\":211:328   */\ntag_12:\n    /* \"#utility.yul\":320:321   */\n  0x00\n    /* \"#utility.yul\":317:318   */\n  dup1\n    /* \"#utility.yul\":310:322   */\n  revert\n    /* \"#utility.yul\":334:451   */\ntag_13:\n    /* \"#utility.yul\":443:444   */\n  0x00\n    /* \"#utility.yul\":440:441   */\n  dup1\n    /* \"#utility.yul\":433:445   */\n  revert\n    /* \"#utility.yul\":457:574   */\ntag_14:\n    /* \"#utility.yul\":566:567   */\n  0x00\n    /* \"#utility.yul\":563:564   */\n  dup1\n    /* \"#utility.yul\":556:568   */\n  revert\n    /* \"#utility.yul\":580:682   */\ntag_15:\n    /* \"#utility.yul\":621:627   */\n  0x00\n    /* \"#utility.yul\":672:674   */\n  0x1f\n    /* \"#utility.yul\":668:675   */\n  not\n    /* \"#utility.yul\":663:665   */\n  0x1f\n    /* \"#utility.yul\":656:661   */\n  dup4\n    /* \"#utility.yul\":652:666   */\n  add\n    /* \"#utility.yul\":648:676   */\n  and\n    /* \"#utility.yul\":638:676   */\n  swap1\n  pop\n    /* \"#utility.yul\":580:682   */\n  swap2\n  swap1\n  pop\n  jump\t// out\n    /* \"#utility.yul\":688:868   */\ntag_16:\n    /* \"#utility.yul\":736:813   */\n  0x4e487b7100000000000000000000000000000000000000000000000000000000\n    /* \"#utility.yul\":733:734   */\n  0x00\n    /* \"#utility.yul\":726:814   */\n  mstore\n    /* \"#utility.yul\":833:837   */\n  0x41\n    /* \"#utility.yul\":830:831   */\n  0x04\n    /* \"#utility.yul\":823:838   */\n  mstore\n    /* \"#utility.yul\":857:861   */\n  0x24\n    /* \"#utility.yul\":854:855   */\n  0x00\n    /* \"#utility.yul\":847:862   */\n  revert\n    /* \"#utility.yul\":874:1155   */\ntag_17:\n    /* \"#utility.yul\":957:984   */\n  tag_51\n    /* \"#utility.yul\":979:983   */\n  dup3\n    /* \"#utility.yul\":957:984   */\n  tag_15\n  jump\t// in\ntag_51:\n    /* \"#utility.yul\":949:955   */\n  dup2\n    /* \"#utility.yul\":945:985   */\n  add\n    /* \"#utility.yul\":1087:1093   */\n  dup2\n    /* \"#utility.yul\":1075:1085   */\n  dup2\n    /* \"#utility.yul\":1072:1094   */\n  lt\n    /* \"#utility.yul\":1051:1069   */\n  0xffffffffffffffff\n    /* \"#utility.yul\":1039:1049   */\n  dup3\n    /* \"#utility.yul\":1036:1070   */\n  gt\n    /* \"#utility.yul\":1033:1095   */\n  or\n    /* \"#utility.yul\":1030:1118   */\n  iszero\n  tag_52\n  jumpi\n    /* \"#utility.yul\":1098:1116   */\n  tag_53\n  tag_16\n  jump\t// in\ntag_53:\n    /* \"#utility.yul\":1030:1118   */\ntag_52:\n    /* \"#utility.yul\":1138:1148   */\n  dup1\n    /* \"#utility.yul\":1134:1136   */\n  0x40\n    /* \"#utility.yul\":1127:1149   */\n  mstore\n    /* \"#utility.yul\":917:1155   */\n  pop\n    /* \"#utility.yul\":874:1155   */\n  pop\n  pop\n  jump\t// out\n    /* \"#utility.yul\":1161:1290   */\ntag_18:\n    /* \"#utility.yul\":1195:1201   */\n  0x00\n    /* \"#utility.yul\":1222:1242   */\n  tag_55\n  tag_10\n  jump\t// in\ntag_55:\n    /* \"#utility.yul\":1212:1242   */\n  swap1\n  pop\n    /* \"#utility.yul\":1251:1284   */\n  tag_56\n    /* \"#utility.yul\":1279:1283   */\n  dup3\n    /* \"#utility.yul\":1271:1277   */\n  dup3\n    /* \"#utility.yul\":1251:1284   */\n  tag_17\n  jump\t// in\ntag_56:\n    /* \"#utility.yul\":1161:1290   */\n  swap2\n  swap1\n  pop\n  jump\t// out\n    /* \"#utility.yul\":1296:1604   */\ntag_19:\n    /* \"#utility.yul\":1358:1362   */\n  0x00\n    /* \"#utility.yul\":1448:1466   */\n  0xffffffffffffffff\n    /* \"#utility.yul\":1440:1446   */\n  dup3\n    /* \"#utility.yul\":1437:1467   */\n  gt\n    /* \"#utility.yul\":1434:1490   */\n  iszero\n  tag_58\n  jumpi\n    /* \"#utility.yul\":1470:1488   */\n  tag_59\n  tag_16\n  jump\t// in\ntag_59:\n    /* \"#utility.yul\":1434:1490   */\ntag_58:\n    /* \"#utility.yul\":1508:1537   */\n  tag_60\n    /* \"#utility.yul\":1530:1536   */\n  dup3\n    /* \"#utility.yul\":1508:1537   */\n  tag_15\n  jump\t// in\ntag_60:\n    /* \"#utility.yul\":1500:1537   */\n  swap1\n  pop\n    /* \"#utility.yul\":1592:1596   */\n  0x20\n    /* \"#utility.yul\":1586:1590   */\n  dup2\n    /* \"#utility.yul\":1582:1597   */\n  add\n    /* \"#utility.yul\":1574:1597   */\n  swap1\n  pop\n    /* \"#utility.yul\":1296:1604   */\n  swap2\n  swap1\n  pop\n  jump\t// out\n    /* \"#utility.yul\":1610:1856   */\ntag_20:\n    /* \"#utility.yul\":1691:1692   */\n  0x00\n    /* \"#utility.yul\":1701:1814   */\ntag_62:\n    /* \"#utility.yul\":1715:1721   */\n  dup4\n    /* \"#utility.yul\":1712:1713   */\n  dup2\n    /* \"#utility.yul\":1709:1722   */\n  lt\n    /* \"#utility.yul\":1701:1814   */\n  iszero\n  tag_64\n  jumpi\n    /* \"#utility.yul\":1800:1801   */\n  dup1\n    /* \"#utility.yul\":1795:1798   */\n  dup3\n    /* \"#utility.yul\":1791:1802   */\n  add\n    /* \"#utility.yul\":1785:1803   */\n  mload\n    /* \"#utility.yul\":1781:1782   */\n  dup2\n    /* \"#utility.yul\":1776:1779   */\n  dup5\n    /* \"#utility.yul\":1772:1783   */\n  add\n    /* \"#utility.yul\":1765:1804   */\n  mstore\n    /* \"#utility.yul\":1737:1739   */\n  0x20\n    /* \"#utility.yul\":1734:1735   */\n  dup2\n    /* \"#utility.yul\":1730:1740   */\n  add\n    /* \"#utility.yul\":1725:1740   */\n  swap1\n  pop\n    /* \"#utility.yul\":1701:1814   */\n  jump(tag_62)\ntag_64:\n    /* \"#utility.yul\":1848:1849   */\n  0x00\n    /* \"#utility.yul\":1839:1845   */\n  dup5\n    /* \"#utility.yul\":1834:1837   */\n  dup5\n    /* \"#utility.yul\":1830:1846   */\n  add\n    /* \"#utility.yul\":1823:1850   */\n  mstore\n    /* \"#utility.yul\":1672:1856   */\n  pop\n    /* \"#utility.yul\":1610:1856   */\n  pop\n  pop\n  pop\n  jump\t// out\n    /* \"#utility.yul\":1862:2296   */\ntag_21:\n    /* \"#utility.yul\":1951:1956   */\n  0x00\n    /* \"#utility.yul\":1976:2042   */\n  tag_66\n    /* \"#utility.yul\":1992:2041   */\n  tag_67\n    /* \"#utility.yul\":2034:2040   */\n  dup5\n    /* \"#utility.yul\":1992:2041   */\n  tag_19\n  jump\t// in\ntag_67:\n    /* \"#utility.yul\":1976:2042   */\n  tag_18\n  jump\t// in\ntag_66:\n    /* \"#utility.yul\":1967:2042   */\n  swap1\n  pop\n    /* \"#utility.yul\":2065:2071   */\n  dup3\n    /* \"#utility.yul\":2058:2063   */\n  dup2\n    /* \"#utility.yul\":2051:2072   */\n  mstore\n    /* \"#utility.yul\":2103:2107   */\n  0x20\n    /* \"#utility.yul\":2096:2101   */\n  dup2\n    /* \"#utility.yul\":2092:2108   */\n  add\n    /* \"#utility.yul\":2141:2144   */\n  dup5\n    /* \"#utility.yul\":2132:2138   */\n  dup5\n    /* \"#utility.yul\":2127:2130   */\n  dup5\n    /* \"#utility.yul\":2123:2139   */\n  add\n    /* \"#utility.yul\":2120:2145   */\n  gt\n    /* \"#utility.yul\":2117:2229   */\n  iszero\n  tag_68\n  jumpi\n    /* \"#utility.yul\":2148:2227   */\n  tag_69\n  tag_14\n  jump\t// in\ntag_69:\n    /* \"#utility.yul\":2117:2229   */\ntag_68:\n    /* \"#utility.yul\":2238:2290   */\n  tag_70\n    /* \"#utility.yul\":2283:2289   */\n  dup5\n    /* \"#utility.yul\":2278:2281   */\n  dup3\n    /* \"#utility.yul\":2273:2276   */\n  dup6\n    /* \"#utility.yul\":2238:2290   */\n  tag_20\n  jump\t// in\ntag_70:\n    /* \"#utility.yul\":1957:2296   */\n  pop\n    /* \"#utility.yul\":1862:2296   */\n  swap4\n  swap3\n  pop\n  pop\n  pop\n  jump\t// out\n    /* \"#utility.yul\":2316:2671   */\ntag_22:\n    /* \"#utility.yul\":2383:2388   */\n  0x00\n    /* \"#utility.yul\":2432:2435   */\n  dup3\n    /* \"#utility.yul\":2425:2429   */\n  0x1f\n    /* \"#utility.yul\":2417:2423   */\n  dup4\n    /* \"#utility.yul\":2413:2430   */\n  add\n    /* \"#utility.yul\":2409:2436   */\n  slt\n    /* \"#utility.yul\":2399:2521   */\n  tag_72\n  jumpi\n    /* \"#utility.yul\":2440:2519   */\n  tag_73\n  tag_13\n  jump\t// in\ntag_73:\n    /* \"#utility.yul\":2399:2521   */\ntag_72:\n    /* \"#utility.yul\":2550:2556   */\n  dup2\n    /* \"#utility.yul\":2544:2557   */\n  mload\n    /* \"#utility.yul\":2575:2665   */\n  tag_74\n    /* \"#utility.yul\":2661:2664   */\n  dup5\n    /* \"#utility.yul\":2653:2659   */\n  dup3\n    /* \"#utility.yul\":2646:2650   */\n  0x20\n    /* \"#utility.yul\":2638:2644   */\n  dup7\n    /* \"#utility.yul\":2634:2651   */\n  add\n    /* \"#utility.yul\":2575:2665   */\n  tag_21\n  jump\t// in\ntag_74:\n    /* \"#utility.yul\":2566:2665   */\n  swap2\n  pop\n    /* \"#utility.yul\":2389:2671   */\n  pop\n    /* \"#utility.yul\":2316:2671   */\n  swap3\n  swap2\n  pop\n  pop\n  jump\t// out\n    /* \"#utility.yul\":2677:3530   */\ntag_3:\n    /* \"#utility.yul\":2776:2782   */\n  0x00\n    /* \"#utility.yul\":2784:2790   */\n  dup1\n    /* \"#utility.yul\":2833:2835   */\n  0x40\n    /* \"#utility.yul\":2821:2830   */\n  dup4\n    /* \"#utility.yul\":2812:2819   */\n  dup6\n    /* \"#utility.yul\":2808:2831   */\n  sub\n    /* \"#utility.yul\":2804:2836   */\n  slt\n    /* \"#utility.yul\":2801:2920   */\n  iszero\n  tag_76\n  jumpi\n    /* \"#utility.yul\":2839:2918   */\n  tag_77\n  tag_11\n  jump\t// in\ntag_77:\n    /* \"#utility.yul\":2801:2920   */\ntag_76:\n    /* \"#utility.yul\":2980:2981   */\n  0x00\n    /* \"#utility.yul\":2969:2978   */\n  dup4\n    /* \"#utility.yul\":2965:2982   */\n  add\n    /* \"#utility.yul\":2959:2983   */\n  mload\n    /* \"#utility.yul\":3010:3028   */\n  0xffffffffffffffff\n    /* \"#utility.yul\":3002:3008   */\n  dup2\n    /* \"#utility.yul\":2999:3029   */\n  gt\n    /* \"#utility.yul\":2996:3113   */\n  iszero\n  tag_78\n  jumpi\n    /* \"#utility.yul\":3032:3111   */\n  tag_79\n  tag_12\n  jump\t// in\ntag_79:\n    /* \"#utility.yul\":2996:3113   */\ntag_78:\n    /* \"#utility.yul\":3137:3211   */\n  tag_80\n    /* \"#utility.yul\":3203:3210   */\n  dup6\n    /* \"#utility.yul\":3194:3200   */\n  dup3\n    /* \"#utility.yul\":3183:3192   */\n  dup7\n    /* \"#utility.yul\":3179:3201   */\n  add\n    /* \"#utility.yul\":3137:3211   */\n  tag_22\n  jump\t// in\ntag_80:\n    /* \"#utility.yul\":3127:3211   */\n  swap3\n  pop\n    /* \"#utility.yul\":2930:3221   */\n  pop\n    /* \"#utility.yul\":3281:3283   */\n  0x20\n    /* \"#utility.yul\":3270:3279   */\n  dup4\n    /* \"#utility.yul\":3266:3284   */\n  add\n    /* \"#utility.yul\":3260:3285   */\n  mload\n    /* \"#utility.yul\":3312:3330   */\n  0xffffffffffffffff\n    /* \"#utility.yul\":3304:3310   */\n  dup2\n    /* \"#utility.yul\":3301:3331   */\n  gt\n    /* \"#utility.yul\":3298:3415   */\n  iszero\n  tag_81\n  jumpi\n    /* \"#utility.yul\":3334:3413   */\n  tag_82\n  tag_12\n  jump\t// in\ntag_82:\n    /* \"#utility.yul\":3298:3415   */\ntag_81:\n    /* \"#utility.yul\":3439:3513   */\n  tag_83\n    /* \"#utility.yul\":3505:3512   */\n  dup6\n    /* \"#utility.yul\":3496:3502   */\n  dup3\n    /* \"#utility.yul\":3485:3494   */\n  dup7\n    /* \"#utility.yul\":3481:3503   */\n  add\n    /* \"#utility.yul\":3439:3513   */\n  tag_22\n  jump\t// in\ntag_83:\n    /* \"#utility.yul\":3429:3513   */\n  swap2\n  pop\n    /* \"#utility.yul\":3231:3523   */\n  pop\n    /* \"#utility.yul\":2677:3530   */\n  swap3\n  pop\n  swap3\n  swap1\n  pop\n  jump\t// out\n    /* \"#utility.yul\":3536:3635   */\ntag_23:\n    /* \"#utility.yul\":3588:3594   */\n  0x00\n    /* \"#utility.yul\":3622:3627   */\n  dup2\n    /* \"#utility.yul\":3616:3628   */\n  mload\n    /* \"#utility.yul\":3606:3628   */\n  swap1\n  pop\n    /* \"#utility.yul\":3536:3635   */\n  swap2\n  swap1\n  pop\n  jump\t// out\n    /* \"#utility.yul\":3641:3821   */\ntag_24:\n    /* \"#utility.yul\":3689:3766   */\n  0x4e487b7100000000000000000000000000000000000000000000000000000000\n    /* \"#utility.yul\":3686:3687   */\n  0x00\n    /* \"#utility.yul\":3679:3767   */\n  mstore\n    /* \"#utility.yul\":3786:3790   */\n  0x22\n    /* \"#utility.yul\":3783:3784   */\n  0x04\n    /* \"#utility.yul\":3776:3791   */\n  mstore\n    /* \"#utility.yul\":3810:3814   */\n  0x24\n    /* \"#utility.yul\":3807:3808   */\n  0x00\n    /* \"#utility.yul\":3800:3815   */\n  revert\n    /* \"#utility.yul\":3827:4147   */\ntag_25:\n    /* \"#utility.yul\":3871:3877   */\n  0x00\n    /* \"#utility.yul\":3908:3909   */\n  0x02\n    /* \"#utility.yul\":3902:3906   */\n  dup3\n    /* \"#utility.yul\":3898:3910   */\n  div\n    /* \"#utility.yul\":3888:3910   */\n  swap1\n  pop\n    /* \"#utility.yul\":3955:3956   */\n  0x01\n    /* \"#utility.yul\":3949:3953   */\n  dup3\n    /* \"#utility.yul\":3945:3957   */\n  and\n    /* \"#utility.yul\":3976:3994   */\n  dup1\n    /* \"#utility.yul\":3966:4047   */\n  tag_87\n  jumpi\n    /* \"#utility.yul\":4032:4036   */\n  0x7f\n    /* \"#utility.yul\":4024:4030   */\n  dup3\n    /* \"#utility.yul\":4020:4037   */\n  and\n    /* \"#utility.yul\":4010:4037   */\n  swap2\n  pop\n    /* \"#utility.yul\":3966:4047   */\ntag_87:\n    /* \"#utility.yul\":4094:4096   */\n  0x20\n    /* \"#utility.yul\":4086:4092   */\n  dup3\n    /* \"#utility.yul\":4083:4097   */\n  lt\n    /* \"#utility.yul\":4063:4081   */\n  dup2\n    /* \"#utility.yul\":4060:4098   */\n  sub\n    /* \"#utility.yul\":4057:4141   */\n  tag_88\n  jumpi\n    /* \"#utility.yul\":4113:4131   */\n  tag_89\n  tag_24\n  jump\t// in\ntag_89:\n    /* \"#utility.yul\":4057:4141   */\ntag_88:\n    /* \"#utility.yul\":3878:4147   */\n  pop\n    /* \"#utility.yul\":3827:4147   */\n  swap2\n  swap1\n  pop\n  jump\t// out\n    /* \"#utility.yul\":4153:4294   */\ntag_26:\n    /* \"#utility.yul\":4202:4206   */\n  0x00\n    /* \"#utility.yul\":4225:4228   */\n  dup2\n    /* \"#utility.yul\":4217:4228   */\n  swap1\n  pop\n    /* \"#utility.yul\":4248:4251   */\n  dup2\n    /* \"#utility.yul\":4245:4246   */\n  0x00\n    /* \"#utility.yul\":4238:4252   */\n  mstore\n    /* \"#utility.yul\":4282:4286   */\n  0x20\n    /* \"#utility.yul\":4279:4280   */\n  0x00\n    /* \"#utility.yul\":4269:4287   */\n  keccak256\n    /* \"#utility.yul\":4261:4287   */\n  swap1\n  pop\n    /* \"#utility.yul\":4153:4294   */\n  swap2\n  swap1\n  pop\n  jump\t// out\n    /* \"#utility.yul\":4300:4393   */\ntag_27:\n    /* \"#utility.yul\":4337:4343   */\n  0x00\n    /* \"#utility.yul\":4384:4386   */\n  0x20\n    /* \"#utility.yul\":4379:4381   */\n  0x1f\n    /* \"#utility.yul\":4372:4377   */\n  dup4\n    /* \"#utility.yul\":4368:4382   */\n  add\n    /* \"#utility.yul\":4364:4387   */\n  div\n    /* \"#utility.yul\":4354:4387   */\n  swap1\n  pop\n    /* \"#utility.yul\":4300:4393   */\n  swap2\n  swap1\n  pop\n  jump\t// out\n    /* \"#utility.yul\":4399:4506   */\ntag_28:\n    /* \"#utility.yul\":4443:4451   */\n  0x00\n    /* \"#utility.yul\":4493:4498   */\n  dup3\n    /* \"#utility.yul\":4487:4491   */\n  dup3\n    /* \"#utility.yul\":4483:4499   */\n  shl\n    /* \"#utility.yul\":4462:4499   */\n  swap1\n  pop\n    /* \"#utility.yul\":4399:4506   */\n  swap3\n  swap2\n  pop\n  pop\n  jump\t// out\n    /* \"#utility.yul\":4512:4905   */\ntag_29:\n    /* \"#utility.yul\":4581:4587   */\n  0x00\n    /* \"#utility.yul\":4631:4632   */\n  0x08\n    /* \"#utility.yul\":4619:4629   */\n  dup4\n    /* \"#utility.yul\":4615:4633   */\n  mul\n    /* \"#utility.yul\":4654:4751   */\n  tag_94\n    /* \"#utility.yul\":4684:4750   */\n  0xffffffffffffffffffffffffffffffffffffffffffffffffffffffffffffffff\n    /* \"#utility.yul\":4673:4682   */\n  dup3\n    /* \"#utility.yul\":4654:4751   */\n  tag_28\n  jump\t// in\ntag_94:\n    /* \"#utility.yul\":4772:4811   */\n  tag_95\n    /* \"#utility.yul\":4802:4810   */\n  dup7\n    /* \"#utility.yul\":4791:4800   */\n  dup4\n    /* \"#utility.yul\":4772:4811   */\n  tag_28\n  jump\t// in\ntag_95:\n    /* \"#utility.yul\":4760:4811   */\n  swap6\n  pop\n    /* \"#utility.yul\":4844:4848   */\n  dup1\n    /* \"#utility.yul\":4840:4849   */\n  not\n    /* \"#utility.yul\":4833:4838   */\n  dup5\n    /* \"#utility.yul\":4829:4850   */\n  and\n    /* \"#utility.yul\":4820:4850   */\n  swap4\n  pop\n    /* \"#utility.yul\":4893:4897   */\n  dup1\n    /* \"#utility.yul\":4883:4891   */\n  dup7\n    /* \"#utility.yul\":4879:4898   */\n  and\n    /* \"#utility.yul\":4872:4877   */\n  dup5\n    /* \"#utility.yul\":4869:4899   */\n  or\n    /* \"#utility.yul\":4859:4899   */\n  swap3\n  pop\n    /* \"#utility.yul\":4588:4905   */\n  pop\n  pop\n    /* \"#utility.yul\":4512:4905   */\n  swap4\n  swap3\n  pop\n  pop\n  pop\n  jump\t// out\n    /* \"#utility.yul\":4911:4988   */\ntag_30:\n    /* \"#utility.yul\":4948:4955   */\n  0x00\n    /* \"#utility.yul\":4977:4982   */\n  dup2\n    /* \"#utility.yul\":4966:4982   */\n  swap1\n  pop\n    /* \"#utility.yul\":4911:4988   */\n  swap2\n  swap1\n  pop\n  jump\t// out\n    /* \"#utility.yul\":4994:5054   */\ntag_31:\n    /* \"#utility.yul\":5022:5025   */\n  0x00\n    /* \"#utility.yul\":5043:5048   */\n  dup2\n    /* \"#utility.yul\":5036:5048   */\n  swap1\n  pop\n    /* \"#utility.yul\":4994:5054   */\n  swap2\n  swap1\n  pop\n  jump\t// out\n    /* \"#utility.yul\":5060:5202   */\ntag_32:\n    /* \"#utility.yul\":5110:5119   */\n  0x00\n    /* \"#utility.yul\":5143:5196   */\n  tag_99\n    /* \"#utility.yul\":5161:5195   */\n  tag_100\n    /* \"#utility.yul\":5170:5194   */\n  tag_101\n    /* \"#utility.yul\":5188:5193   */\n  dup5\n    /* \"#utility.yul\":5170:5194   */\n  tag_30\n  jump\t// in\ntag_101:\n    /* \"#utility.yul\":5161:5195   */\n  tag_31\n  jump\t// in\ntag_100:\n    /* \"#utility.yul\":5143:5196   */\n  tag_30\n  jump\t// in\ntag_99:\n    /* \"#utility.yul\":5130:5196   */\n  swap1\n  pop\n    /* \"#utility.yul\":5060:5202   */\n  swap2\n  swap1\n  pop\n  jump\t// out\n    /* \"#utility.yul\":5208:5283   */\ntag_33:\n    /* \"#utility.yul\":5251:5254   */\n  0x00\n    /* \"#utility.yul\":5272:5277   */\n  dup2\n    /* \"#utility.yul\":5265:5277   */\n  swap1\n  pop\n    /* \"#utility.yul\":5208:5283   */\n  swap2\n  swap1\n  pop\n  jump\t// out\n    /* \"#utility.yul\":5289:5558   */\ntag_34:\n    /* \"#utility.yul\":5399:5438   */\n  tag_104\n    /* \"#utility.yul\":5430:5437   */\n  dup4\n    /* \"#utility.yul\":5399:5438   */\n  tag_32\n  jump\t// in\ntag_104:\n    /* \"#utility.yul\":5460:5551   */\n  tag_105\n    /* \"#utility.yul\":5509:5550   */\n  tag_106\n    /* \"#utility.yul\":5533:5549   */\n  dup3\n    /* \"#utility.yul\":5509:5550   */\n  tag_33\n  jump\t// in\ntag_106:\n    /* \"#utility.yul\":5501:5507   */\n  dup5\n    /* \"#utility.yul\":5494:5498   */\n  dup5\n    /* \"#utility.yul\":5488:5499   */\n  sload\n    /* \"#utility.yul\":5460:5551   */\n  tag_29\n  jump\t// in\ntag_105:\n    /* \"#utility.yul\":5454:5458   */\n  dup3\n    /* \"#utility.yul\":5447:5552   */\n  sstore\n    /* \"#utility.yul\":5365:5558   */\n  pop\n    /* \"#utility.yul\":5289:5558   */\n  pop\n  pop\n  pop\n  jump\t// out\n    /* \"#utility.yul\":5564:5637   */\ntag_35:\n    /* \"#utility.yul\":5609:5612   */\n  0x00\n    /* \"#utility.yul\":5564:5637   */\n  swap1\n  jump\t// out\n    /* \"#utility.yul\":5643:5832   */\ntag_36:\n    /* \"#utility.yul\":5720:5752   */\n  tag_109\n  tag_35\n  jump\t// in\ntag_109:\n    /* \"#utility.yul\":5761:5826   */\n  tag_110\n    /* \"#utility.yul\":5819:5825   */\n  dup2\n    /* \"#utility.yul\":5811:5817   */\n  dup5\n    /* \"#utility.yul\":5805:5809   */\n  dup5\n    /* \"#utility.yul\":5761:5826   */\n  tag_34\n  jump\t// in\ntag_110:\n    /* \"#utility.yul\":5696:5832   */\n  pop\n    /* \"#utility.yul\":5643:5832   */\n  pop\n  pop\n  jump\t// out\n    /* \"#utility.yul\":5838:6024   */\ntag_37:\n    /* \"#utility.yul\":5898:6018   */\ntag_112:\n    /* \"#utility.yul\":5915:5918   */\n  dup2\n    /* \"#utility.yul\":5908:5913   */\n  dup2\n    /* \"#utility.yul\":5905:5919   */\n  lt\n    /* \"#utility.yul\":5898:6018   */\n  iszero\n  tag_114\n  jumpi\n    /* \"#utility.yul\":5969:6008   */\n  tag_115\n    /* \"#utility.yul\":6006:6007   */\n  0x00\n    /* \"#utility.yul\":5999:6004   */\n  dup3\n    /* \"#utility.yul\":5969:6008   */\n  tag_36\n  jump\t// in\ntag_115:\n    /* \"#utility.yul\":5942:5943   */\n  0x01\n    /* \"#utility.yul\":5935:5940   */\n  dup2\n    /* \"#utility.yul\":5931:5944   */\n  add\n    /* \"#utility.yul\":5922:5944   */\n  swap1\n  pop\n    /* \"#utility.yul\":5898:6018   */\n  jump(tag_112)\ntag_114:\n    /* \"#utility.yul\":5838:6024   */\n  pop\n  pop\n  jump\t// out\n    /* \"#utility.yul\":6030:6573   */\ntag_38:\n    /* \"#utility.yul\":6131:6133   */\n  0x1f\n    /* \"#utility.yul\":6126:6129   */\n  dup3\n    /* \"#utility.yul\":6123:6134   */\n  gt\n    /* \"#utility.yul\":6120:6566   */\n  iszero\n  tag_117\n  jumpi\n    /* \"#utility.yul\":6165:6203   */\n  tag_118\n    /* \"#utility.yul\":6197:6202   */\n  dup2\n    /* \"#utility.yul\":6165:6203   */\n  tag_26\n  jump\t// in\ntag_118:\n    /* \"#utility.yul\":6249:6278   */\n  tag_119\n    /* \"#utility.yul\":6267:6277   */\n  dup5\n    /* \"#utility.yul\":6249:6278   */\n  tag_27\n  jump\t// in\ntag_119:\n    /* \"#utility.yul\":6239:6247   */\n  dup2\n    /* \"#utility.yul\":6235:6279   */\n  add\n    /* \"#utility.yul\":6432:6434   */\n  0x20\n    /* \"#utility.yul\":6420:6430   */\n  dup6\n    /* \"#utility.yul\":6417:6435   */\n  lt\n    /* \"#utility.yul\":6414:6463   */\n  iszero\n  tag_120\n  jumpi\n    /* \"#utility.yul\":6453:6461   */\n  dup2\n    /* \"#utility.yul\":6438:6461   */\n  swap1\n  pop\n    /* \"#utility.yul\":6414:6463   */\ntag_120:\n    /* \"#utility.yul\":6476:6556   */\n  tag_121\n    /* \"#utility.yul\":6532:6554   */\n  tag_122\n    /* \"#utility.yul\":6550:6553   */\n  dup6\n    /* \"#utility.yul\":6532:6554   */\n  tag_27\n  jump\t// in\ntag_122:\n    /* \"#utility.yul\":6522:6530   */\n  dup4\n    /* \"#utility.yul\":6518:6555   */\n  add\n    /* \"#utility.yul\":6505:6516   */\n  dup3\n    /* \"#utility.yul\":6476:6556   */\n  tag_37\n  jump\t// in\ntag_121:\n    /* \"#utility.yul\":6135:6566   */\n  pop\n  pop\n    /* \"#utility.yul\":6120:6566   */\ntag_117:\n    /* \"#utility.yul\":6030:6573   */\n  pop\n  pop\n  pop\n  jump\t// out\n    /* \"#utility.yul\":6579:6696   */\ntag_39:\n    /* \"#utility.yul\":6633:6641   */\n  0x00\n    /* \"#utility.yul\":6683:6688   */\n  dup3\n    /* \"#utility.yul\":6677:6681   */\n  dup3\n    /* \"#utility.yul\":6673:6689   */\n  shr\n    /* \"#utility.yul\":6652:6689   */\n  swap1\n  pop\n    /* \"#utility.yul\":6579:6696   */\n  swap3\n  swap2\n  pop\n  pop\n  jump\t// out\n    /* \"#utility.yul\":6702:6871   */\ntag_40:\n    /* \"#utility.yul\":6746:6752   */\n  0x00\n    /* \"#utility.yul\":6779:6830   */\n  tag_125\n    /* \"#utility.yul\":6827:6828   */\n  0x00\n    /* \"#utility.yul\":6823:6829   */\n  not\n    /* \"#utility.yul\":6815:6820   */\n  dup5\n    /* \"#utility.yul\":6812:6813   */\n  0x08\n    /* \"#utility.yul\":6808:6821   */\n  mul\n    /* \"#utility.yul\":6779:6830   */\n  tag_39\n  jump\t// in\ntag_125:\n    /* \"#utility.yul\":6775:6831   */\n  not\n    /* \"#utility.yul\":6860:6864   */\n  dup1\n    /* \"#utility.yul\":6854:6858   */\n  dup4\n    /* \"#utility.yul\":6850:6865   */\n  and\n    /* \"#utility.yul\":6840:6865   */\n  swap2\n  pop\n    /* \"#utility.yul\":6753:6871   */\n  pop\n    /* \"#utility.yul\":6702:6871   */\n  swap3\n  swap2\n  pop\n  pop\n  jump\t// out\n    /* \"#utility.yul\":6876:7171   */\ntag_41:\n    /* \"#utility.yul\":6952:6956   */\n  0x00\n    /* \"#utility.yul\":7098:7127   */\n  tag_127\n    /* \"#utility.yul\":7123:7126   */\n  dup4\n    /* \"#utility.yul\":7117:7121   */\n  dup4\n    /* \"#utility.yul\":7098:7127   */\n  tag_40\n  jump\t// in\ntag_127:\n    /* \"#utility.yul\":7090:7127   */\n  swap2\n  pop\n    /* \"#utility.yul\":7160:7163   */\n  dup3\n    /* \"#utility.yul\":7157:7158   */\n  0x02\n    /* \"#utility.yul\":7153:7164   */\n  mul\n    /* \"#utility.yul\":7147:7151   */\n  dup3\n    /* \"#utility.yul\":7144:7165   */\n  or\n    /* \"#utility.yul\":7136:7165   */\n  swap1\n  pop\n    /* \"#utility.yul\":6876:7171   */\n  swap3\n  swap2\n  pop\n  pop\n  jump\t// out\n    /* \"#utility.yul\":7176:8571   */\ntag_7:\n    /* \"#utility.yul\":7293:7330   */\n  tag_129\n    /* \"#utility.yul\":7326:7329   */\n  dup3\n    /* \"#utility.yul\":7293:7330   */\n  tag_23\n  jump\t// in\ntag_129:\n    /* \"#utility.yul\":7395:7413   */\n  0xffffffffffffffff\n    /* \"#utility.yul\":7387:7393   */\n  dup2\n    /* \"#utility.yul\":7384:7414   */\n  gt\n    /* \"#utility.yul\":7381:7437   */\n  iszero\n  tag_130\n  jumpi\n    /* \"#utility.yul\":7417:7435   */\n  tag_131\n  tag_16\n  jump\t// in\ntag_131:\n    /* \"#utility.yul\":7381:7437   */\ntag_130:\n    /* \"#utility.yul\":7461:7499   */\n  tag_132\n    /* \"#utility.yul\":7493:7497   */\n  dup3\n    /* \"#utility.yul\":7487:7498   */\n  sload\n    /* \"#utility.yul\":7461:7499   */\n  tag_25\n  jump\t// in\ntag_132:\n    /* \"#utility.yul\":7546:7613   */\n  tag_133\n    /* \"#utility.yul\":7606:7612   */\n  dup3\n    /* \"#utility.yul\":7598:7604   */\n  dup3\n    /* \"#utility.yul\":7592:7596   */\n  dup6\n    /* \"#utility.yul\":7546:7613   */\n  tag_38\n  jump\t// in\ntag_133:\n    /* \"#utility.yul\":7640:7641   */\n  0x00\n    /* \"#utility.yul\":7664:7668   */\n  0x20\n    /* \"#utility.yul\":7651:7668   */\n  swap1\n  pop\n    /* \"#utility.yul\":7696:7698   */\n  0x1f\n    /* \"#utility.yul\":7688:7694   */\n  dup4\n    /* \"#utility.yul\":7685:7699   */\n  gt\n    /* \"#utility.yul\":7713:7714   */\n  0x01\n    /* \"#utility.yul\":7708:8326   */\n  dup2\n  eq\n  tag_135\n  jumpi\n    /* \"#utility.yul\":8370:8371   */\n  0x00\n    /* \"#utility.yul\":8387:8393   */\n  dup5\n    /* \"#utility.yul\":8384:8461   */\n  iszero\n  tag_136\n  jumpi\n    /* \"#utility.yul\":8436:8445   */\n  dup3\n    /* \"#utility.yul\":8431:8434   */\n  dup8\n    /* \"#utility.yul\":8427:8446   */\n  add\n    /* \"#utility.yul\":8421:8447   */\n  mload\n    /* \"#utility.yul\":8412:8447   */\n  swap1\n  pop\n    /* \"#utility.yul\":8384:8461   */\ntag_136:\n    /* \"#utility.yul\":8487:8554   */\n  tag_137\n    /* \"#utility.yul\":8547:8553   */\n  dup6\n    /* \"#utility.yul\":8540:8545   */\n  dup3\n    /* \"#utility.yul\":8487:8554   */\n  tag_41\n  jump\t// in\ntag_137:\n    /* \"#utility.yul\":8481:8485   */\n  dup7\n    /* \"#utility.yul\":8474:8555   */\n  sstore\n    /* \"#utility.yul\":8343:8565   */\n  pop\n    /* \"#utility.yul\":7678:8565   */\n  jump(tag_134)\n    /* \"#utility.yul\":7708:8326   */\ntag_135:\n    /* \"#utility.yul\":7760:7764   */\n  0x1f\n    /* \"#utility.yul\":7756:7765   */\n  not\n    /* \"#utility.yul\":7748:7754   */\n  dup5\n    /* \"#utility.yul\":7744:7766   */\n  and\n    /* \"#utility.yul\":7794:7831   */\n  tag_138\n    /* \"#utility.yul\":7826:7830   */\n  dup7\n    /* \"#utility.yul\":7794:7831   */\n  tag_26\n  jump\t// in\ntag_138:\n    /* \"#utility.yul\":7853:7854   */\n  0x00\n    /* \"#utility.yul\":7867:8075   */\ntag_139:\n    /* \"#utility.yul\":7881:7888   */\n  dup3\n    /* \"#utility.yul\":7878:7879   */\n  dup2\n    /* \"#utility.yul\":7875:7889   */\n  lt\n    /* \"#utility.yul\":7867:8075   */\n  iszero\n  tag_141\n  jumpi\n    /* \"#utility.yul\":7960:7969   */\n  dup5\n    /* \"#utility.yul\":7955:7958   */\n  dup10\n    /* \"#utility.yul\":7951:7970   */\n  add\n    /* \"#utility.yul\":7945:7971   */\n  mload\n    /* \"#utility.yul\":7937:7943   */\n  dup3\n    /* \"#utility.yul\":7930:7972   */\n  sstore\n    /* \"#utility.yul\":8011:8012   */\n  0x01\n    /* \"#utility.yul\":8003:8009   */\n  dup3\n    /* \"#utility.yul\":7999:8013   */\n  add\n    /* \"#utility.yul\":7989:8013   */\n  swap2\n  pop\n    /* \"#utility.yul\":8058:8060   */\n  0x20\n    /* \"#utility.yul\":8047:8056   */\n  dup6\n    /* \"#utility.yul\":8043:8061   */\n  add\n    /* \"#utility.yul\":8030:8061   */\n  swap5\n  pop\n    /* \"#utility.yul\":7904:7908   */\n  0x20\n    /* \"#utility.yul\":7901:7902   */\n  dup2\n    /* \"#utility.yul\":7897:7909   */\n  add\n    /* \"#utility.yul\":7892:7909   */\n  swap1\n  pop\n    /* \"#utility.yul\":7867:8075   */\n  jump(tag_139)\ntag_141:\n    /* \"#utility.yul\":8103:8109   */\n  dup7\n    /* \"#utility.yul\":8094:8101   */\n  dup4\n    /* \"#utility.yul\":8091:8110   */\n  lt\n    /* \"#utility.yul\":8088:8267   */\n  iszero\n  tag_142\n  jumpi\n    /* \"#utility.yul\":8161:8170   */\n  dup5\n    /* \"#utility.yul\":8156:8159   */\n  dup10\n    /* \"#utility.yul\":8152:8171   */\n  add\n    /* \"#utility.yul\":8146:8172   */\n  mload\n    /* \"#utility.yul\":8204:8252   */\n  tag_143\n    /* \"#utility.yul\":8246:8250   */\n  0x1f\n    /* \"#utility.yul\":8238:8244   */\n  dup10\n    /* \"#utility.yul\":8234:8251   */\n  and\n    /* \"#utility.yul\":8223:8232   */\n  dup3\n    /* \"#utility.yul\":8204:8252   */\n  tag_40\n  jump\t// in\ntag_143:\n    /* \"#utility.yul\":8196:8202   */\n  dup4\n    /* \"#utility.yul\":8189:8253   */\n  sstore\n    /* \"#utility.yul\":8111:8267   */\n  pop\n    /* \"#utility.yul\":8088:8267   */\ntag_142:\n    /* \"#utility.yul\":8313:8314   */\n  0x01\n    /* \"#utility.yul\":8309:8310   */\n  0x02\n    /* \"#utility.yul\":8301:8307   */\n  dup9\n    /* \"#utility.yul\":8297:8311   */\n  mul\n    /* \"#utility.yul\":8293:8315   */\n  add\n    /* \"#utility.yul\":8287:8291   */\n  dup9\n    /* \"#utility.yul\":8280:8316   */\n  sstore\n    /* \"#utility.yul\":7715:8326   */\n  pop\n  pop\n  pop\n    /* \"#utility.yul\":7678:8565   */\ntag_134:\n  pop\n    /* \"#utility.yul\":7268:8571   */\n  pop\n  pop\n  pop\n    /* \"#utility.yul\":7176:8571   */\n  pop\n  pop\n  jump\t// out\n    /* \"student-sponser.sol\":68:914  contract Manager{... */\ntag_9:\n  dataSize(sub_0)\n  dup1\n  dataOffset(sub_0)\n  0x00\n  codecopy\n  0x00\n  return\nstop\n\nsub_0: assembly {\n        /* \"student-sponser.sol\":68:914  contract Manager{... */\n      mstore(0x40, 0x80)\n      callvalue\n      dup1\n      iszero\n      tag_1\n      jumpi\n      0x00\n      dup1\n      revert\n    tag_1:\n      pop\n      jumpi(tag_2, lt(calldatasize, 0x04))\n      shr(0xe0, calldataload(0x00))\n      dup1\n      0x163f7522\n      eq\n      tag_3\n      jumpi\n      dup1\n      0x1bca2b31\n      eq\n      tag_4\n      jumpi\n      dup1\n      0x40b2d3af\n      eq\n      tag_5\n      jumpi\n    tag_2:\n      0x00\n      dup1\n      revert\n        /* \"student-sponser.sol\":807:912  function isUserRegistered(address a) public view returns (bool) {... */\n    tag_3:\n      tag_6\n      0x04\n      dup1\n      calldatasize\n      sub\n      dup2\n      add\n      swap1\n      tag_7\n      swap2\n      swap1\n      tag_8\n      jump\t// in\n    tag_7:\n      tag_9\n      jump\t// in\n    tag_6:\n      mload(0x40)\n      tag_10\n      swap2\n      swap1\n      tag_11\n      jump\t// in\n    tag_10:\n      mload(0x40)\n      dup1\n      swap2\n      sub\n      swap1\n      return\n        /* \"student-sponser.sol\":700:802  function isUserType(address a) public view returns (string memory) {... */\n    tag_4:\n      tag_12\n      0x04\n      dup1\n      calldatasize\n      sub\n      dup2\n      add\n      swap1\n      tag_13\n      swap2\n      swap1\n      tag_8\n      jump\t// in\n    tag_13:\n      tag_14\n      jump\t// in\n    tag_12:\n      mload(0x40)\n      tag_15\n      swap2\n      swap1\n      tag_16\n      jump\t// in\n    tag_15:\n      mload(0x40)\n      dup1\n      swap2\n      sub\n      swap1\n      return\n        /* \"student-sponser.sol\":319:695  function Register(string memory t) public{... */\n    tag_5:\n      tag_17\n      0x04\n      dup1\n      calldatasize\n      sub\n      dup2\n      add\n      swap1\n      tag_18\n      swap2\n      swap1\n      tag_19\n      jump\t// in\n    tag_18:\n      tag_20\n      jump\t// in\n    tag_17:\n      stop\n        /* \"student-sponser.sol\":807:912  function isUserRegistered(address a) public view returns (bool) {... */\n    tag_9:\n        /* \"student-sponser.sol\":865:869  bool */\n      0x00\n        /* \"student-sponser.sol\":888:902  UserRegistered */\n      0x03\n        /* \"student-sponser.sol\":888:905  UserRegistered[a] */\n      0x00\n        /* \"student-sponser.sol\":903:904  a */\n      dup4\n        /* \"student-sponser.sol\":888:905  UserRegistered[a] */\n      0xffffffffffffffffffffffffffffffffffffffff\n      and\n      0xffffffffffffffffffffffffffffffffffffffff\n      and\n      dup2\n      mstore\n      0x20\n      add\n      swap1\n      dup2\n      mstore\n      0x20\n      add\n      0x00\n      keccak256\n      0x00\n      swap1\n      sload\n      swap1\n      0x0100\n      exp\n      swap1\n      div\n      0xff\n      and\n        /* \"student-sponser.sol\":881:905  return UserRegistered[a] */\n      swap1\n      pop\n        /* \"student-sponser.sol\":807:912  function isUserRegistered(address a) public view returns (bool) {... */\n      swap2\n      swap1\n      pop\n      jump\t// out\n        /* \"student-sponser.sol\":700:802  function isUserType(address a) public view returns (string memory) {... */\n    tag_14:\n        /* \"student-sponser.sol\":752:765  string memory */\n      0x60\n        /* \"student-sponser.sol\":784:792  UserType */\n      0x00\n        /* \"student-sponser.sol\":784:795  UserType[a] */\n      dup1\n        /* \"student-sponser.sol\":793:794  a */\n      dup4\n        /* \"student-sponser.sol\":784:795  UserType[a] */\n      0xffffffffffffffffffffffffffffffffffffffff\n      and\n      0xffffffffffffffffffffffffffffffffffffffff\n      and\n      dup2\n      mstore\n      0x20\n      add\n      swap1\n      dup2\n      mstore\n      0x20\n      add\n      0x00\n      keccak256\n        /* \"student-sponser.sol\":777:795  return UserType[a] */\n      dup1\n      sload\n      tag_23\n      swap1\n      tag_24\n      jump\t// in\n    tag_23:\n      dup1\n      0x1f\n      add\n      0x20\n      dup1\n      swap2\n      div\n      mul\n      0x20\n      add\n      mload(0x40)\n      swap1\n      dup2\n      add\n      0x40\n      mstore\n      dup1\n      swap3\n      swap2\n      swap1\n      dup2\n      dup2\n      mstore\n      0x20\n      add\n      dup3\n      dup1\n      sload\n      tag_25\n      swap1\n      tag_24\n      jump\t// in\n    tag_25:\n      dup1\n      iszero\n      tag_26\n      jumpi\n      dup1\n      0x1f\n      lt\n      tag_27\n      jumpi\n      0x0100\n      dup1\n      dup4\n      sload\n      div\n      mul\n      dup4\n      mstore\n      swap2\n      0x20\n      add\n      swap2\n      jump(tag_26)\n    tag_27:\n      dup3\n      add\n      swap2\n      swap1\n      0x00\n      mstore\n      keccak256(0x00, 0x20)\n      swap1\n    tag_28:\n      dup2\n      sload\n      dup2\n      mstore\n      swap1\n      0x01\n      add\n      swap1\n      0x20\n      add\n      dup1\n      dup4\n      gt\n      tag_28\n      jumpi\n      dup3\n      swap1\n      sub\n      0x1f\n      and\n      dup3\n      add\n      swap2\n    tag_26:\n      pop\n      pop\n      pop\n      pop\n      pop\n      swap1\n      pop\n        /* \"student-sponser.sol\":700:802  function isUserType(address a) public view returns (string memory) {... */\n      swap2\n      swap1\n      pop\n      jump\t// out\n        /* \"student-sponser.sol\":319:695  function Register(string memory t) public{... */\n    tag_20:\n        /* \"student-sponser.sol\":379:393  UserRegistered */\n      0x03\n        /* \"student-sponser.sol\":379:405  UserRegistered[msg.sender] */\n      0x00\n        /* \"student-sponser.sol\":394:404  msg.sender */\n      caller\n        /* \"student-sponser.sol\":379:405  UserRegistered[msg.sender] */\n      0xffffffffffffffffffffffffffffffffffffffff\n      and\n      0xffffffffffffffffffffffffffffffffffffffff\n      and\n      dup2\n      mstore\n      0x20\n      add\n      swap1\n      dup2\n      mstore\n      0x20\n      add\n      0x00\n      keccak256\n      0x00\n      swap1\n      sload\n      swap1\n      0x0100\n      exp\n      swap1\n      div\n      0xff\n      and\n        /* \"student-sponser.sol\":378:405  !UserRegistered[msg.sender] */\n      iszero\n        /* \"student-sponser.sol\":370:432  require(!UserRegistered[msg.sender],\"User already Registered\") */\n      tag_30\n      jumpi\n      mload(0x40)\n      0x08c379a000000000000000000000000000000000000000000000000000000000\n      dup2\n      mstore\n      0x04\n      add\n      tag_31\n      swap1\n      tag_32\n      jump\t// in\n    tag_31:\n      mload(0x40)\n      dup1\n      swap2\n      sub\n      swap1\n      revert\n    tag_30:\n        /* \"student-sponser.sol\":509:514  type1 */\n      0x01\n        /* \"student-sponser.sol\":492:515  abi.encodePacked(type1) */\n      add(0x20, mload(0x40))\n      tag_33\n      swap2\n      swap1\n      tag_34\n      jump\t// in\n    tag_33:\n      mload(0x40)\n      0x20\n      dup2\n      dup4\n      sub\n      sub\n      dup2\n      mstore\n      swap1\n      0x40\n      mstore\n        /* \"student-sponser.sol\":482:516  keccak256(abi.encodePacked(type1)) */\n      dup1\n      mload\n      swap1\n      0x20\n      add\n      keccak256\n        /* \"student-sponser.sol\":477:478  t */\n      dup2\n        /* \"student-sponser.sol\":460:479  abi.encodePacked(t) */\n      add(0x20, mload(0x40))\n      tag_35\n      swap2\n      swap1\n      tag_36\n      jump\t// in\n    tag_35:\n      mload(0x40)\n      0x20\n      dup2\n      dup4\n      sub\n      sub\n      dup2\n      mstore\n      swap1\n      0x40\n      mstore\n        /* \"student-sponser.sol\":450:480  keccak256(abi.encodePacked(t)) */\n      dup1\n      mload\n      swap1\n      0x20\n      add\n      keccak256\n        /* \"student-sponser.sol\":450:516  keccak256(abi.encodePacked(t))==keccak256(abi.encodePacked(type1)) */\n      eq\n        /* \"student-sponser.sol\":450:586  keccak256(abi.encodePacked(t))==keccak256(abi.encodePacked(type1)) || keccak256(abi.encodePacked(t))==keccak256(abi.encodePacked(type2)) */\n      dup1\n      tag_37\n      jumpi\n      pop\n        /* \"student-sponser.sol\":579:584  type2 */\n      0x02\n        /* \"student-sponser.sol\":562:585  abi.encodePacked(type2) */\n      add(0x20, mload(0x40))\n      tag_38\n      swap2\n      swap1\n      tag_34\n      jump\t// in\n    tag_38:\n      mload(0x40)\n      0x20\n      dup2\n      dup4\n      sub\n      sub\n      dup2\n      mstore\n      swap1\n      0x40\n      mstore\n        /* \"student-sponser.sol\":552:586  keccak256(abi.encodePacked(type2)) */\n      dup1\n      mload\n      swap1\n      0x20\n      add\n      keccak256\n        /* \"student-sponser.sol\":547:548  t */\n      dup2\n        /* \"student-sponser.sol\":530:549  abi.encodePacked(t) */\n      add(0x20, mload(0x40))\n      tag_39\n      swap2\n      swap1\n      tag_36\n      jump\t// in\n    tag_39:\n      mload(0x40)\n      0x20\n      dup2\n      dup4\n      sub\n      sub\n      dup2\n      mstore\n      swap1\n      0x40\n      mstore\n        /* \"student-sponser.sol\":520:550  keccak256(abi.encodePacked(t)) */\n      dup1\n      mload\n      swap1\n      0x20\n      add\n      keccak256\n        /* \"student-sponser.sol\":520:586  keccak256(abi.encodePacked(t))==keccak256(abi.encodePacked(type2)) */\n      eq\n        /* \"student-sponser.sol\":450:586  keccak256(abi.encodePacked(t))==keccak256(abi.encodePacked(type1)) || keccak256(abi.encodePacked(t))==keccak256(abi.encodePacked(type2)) */\n    tag_37:\n        /* \"student-sponser.sol\":442:613  require(keccak256(abi.encodePacked(t))==keccak256(abi.encodePacked(type1)) || keccak256(abi.encodePacked(t))==keccak256(abi.encodePacked(type2)),\"User already Registered\") */\n      tag_40\n      jumpi\n      mload(0x40)\n      0x08c379a000000000000000000000000000000000000000000000000000000000\n      dup2\n      mstore\n      0x04\n      add\n      tag_41\n      swap1\n      tag_32\n      jump\t// in\n    tag_41:\n      mload(0x40)\n      dup1\n      swap2\n      sub\n      swap1\n      revert\n    tag_40:\n        /* \"student-sponser.sol\":650:654  true */\n      0x01\n        /* \"student-sponser.sol\":623:637  UserRegistered */\n      0x03\n        /* \"student-sponser.sol\":623:649  UserRegistered[msg.sender] */\n      0x00\n        /* \"student-sponser.sol\":638:648  msg.sender */\n      caller\n        /* \"student-sponser.sol\":623:649  UserRegistered[msg.sender] */\n      0xffffffffffffffffffffffffffffffffffffffff\n      and\n      0xffffffffffffffffffffffffffffffffffffffff\n      and\n      dup2\n      mstore\n      0x20\n      add\n      swap1\n      dup2\n      mstore\n      0x20\n      add\n      0x00\n      keccak256\n      0x00\n        /* \"student-sponser.sol\":623:654  UserRegistered[msg.sender]=true */\n      0x0100\n      exp\n      dup2\n      sload\n      dup2\n      0xff\n      mul\n      not\n      and\n      swap1\n      dup4\n      iszero\n      iszero\n      mul\n      or\n      swap1\n      sstore\n      pop\n        /* \"student-sponser.sol\":687:688  t */\n      dup1\n        /* \"student-sponser.sol\":664:672  UserType */\n      0x00\n        /* \"student-sponser.sol\":664:684  UserType[msg.sender] */\n      dup1\n        /* \"student-sponser.sol\":673:683  msg.sender */\n      caller\n        /* \"student-sponser.sol\":664:684  UserType[msg.sender] */\n      0xffffffffffffffffffffffffffffffffffffffff\n      and\n      0xffffffffffffffffffffffffffffffffffffffff\n      and\n      dup2\n      mstore\n      0x20\n      add\n      swap1\n      dup2\n      mstore\n      0x20\n      add\n      0x00\n      keccak256\n        /* \"student-sponser.sol\":664:688  UserType[msg.sender] = t */\n      swap1\n      dup2\n      tag_42\n      swap2\n      swap1\n      tag_43\n      jump\t// in\n    tag_42:\n      pop\n        /* \"student-sponser.sol\":319:695  function Register(string memory t) public{... */\n      pop\n      jump\t// out\n        /* \"#utility.yul\":7:82   */\n    tag_44:\n        /* \"#utility.yul\":40:46   */\n      0x00\n        /* \"#utility.yul\":73:75   */\n      0x40\n        /* \"#utility.yul\":67:76   */\n      mload\n        /* \"#utility.yul\":57:76   */\n      swap1\n      pop\n        /* \"#utility.yul\":7:82   */\n      swap1\n      jump\t// out\n        /* \"#utility.yul\":88:205   */\n    tag_45:\n        /* \"#utility.yul\":197:198   */\n      0x00\n        /* \"#utility.yul\":194:195   */\n      dup1\n        /* \"#utility.yul\":187:199   */\n      revert\n        /* \"#utility.yul\":211:328   */\n    tag_46:\n        /* \"#utility.yul\":320:321   */\n      0x00\n        /* \"#utility.yul\":317:318   */\n      dup1\n        /* \"#utility.yul\":310:322   */\n      revert\n        /* \"#utility.yul\":334:460   */\n    tag_47:\n        /* \"#utility.yul\":371:378   */\n      0x00\n        /* \"#utility.yul\":411:453   */\n      0xffffffffffffffffffffffffffffffffffffffff\n        /* \"#utility.yul\":404:409   */\n      dup3\n        /* \"#utility.yul\":400:454   */\n      and\n        /* \"#utility.yul\":389:454   */\n      swap1\n      pop\n        /* \"#utility.yul\":334:460   */\n      swap2\n      swap1\n      pop\n      jump\t// out\n        /* \"#utility.yul\":466:562   */\n    tag_48:\n        /* \"#utility.yul\":503:510   */\n      0x00\n        /* \"#utility.yul\":532:556   */\n      tag_95\n        /* \"#utility.yul\":550:555   */\n      dup3\n        /* \"#utility.yul\":532:556   */\n      tag_47\n      jump\t// in\n    tag_95:\n        /* \"#utility.yul\":521:556   */\n      swap1\n      pop\n        /* \"#utility.yul\":466:562   */\n      swap2\n      swap1\n      pop\n      jump\t// out\n        /* \"#utility.yul\":568:690   */\n    tag_49:\n        /* \"#utility.yul\":641:665   */\n      tag_97\n        /* \"#utility.yul\":659:664   */\n      dup2\n        /* \"#utility.yul\":641:665   */\n      tag_48\n      jump\t// in\n    tag_97:\n        /* \"#utility.yul\":634:639   */\n      dup2\n        /* \"#utility.yul\":631:666   */\n      eq\n        /* \"#utility.yul\":621:684   */\n      tag_98\n      jumpi\n        /* \"#utility.yul\":680:681   */\n      0x00\n        /* \"#utility.yul\":677:678   */\n      dup1\n        /* \"#utility.yul\":670:682   */\n      revert\n        /* \"#utility.yul\":621:684   */\n    tag_98:\n        /* \"#utility.yul\":568:690   */\n      pop\n      jump\t// out\n        /* \"#utility.yul\":696:835   */\n    tag_50:\n        /* \"#utility.yul\":742:747   */\n      0x00\n        /* \"#utility.yul\":780:786   */\n      dup2\n        /* \"#utility.yul\":767:787   */\n      calldataload\n        /* \"#utility.yul\":758:787   */\n      swap1\n      pop\n        /* \"#utility.yul\":796:829   */\n      tag_100\n        /* \"#utility.yul\":823:828   */\n      dup2\n        /* \"#utility.yul\":796:829   */\n      tag_49\n      jump\t// in\n    tag_100:\n        /* \"#utility.yul\":696:835   */\n      swap3\n      swap2\n      pop\n      pop\n      jump\t// out\n        /* \"#utility.yul\":841:1170   */\n    tag_8:\n        /* \"#utility.yul\":900:906   */\n      0x00\n        /* \"#utility.yul\":949:951   */\n      0x20\n        /* \"#utility.yul\":937:946   */\n      dup3\n        /* \"#utility.yul\":928:935   */\n      dup5\n        /* \"#utility.yul\":924:947   */\n      sub\n        /* \"#utility.yul\":920:952   */\n      slt\n        /* \"#utility.yul\":917:1036   */\n      iszero\n      tag_102\n      jumpi\n        /* \"#utility.yul\":955:1034   */\n      tag_103\n      tag_45\n      jump\t// in\n    tag_103:\n        /* \"#utility.yul\":917:1036   */\n    tag_102:\n        /* \"#utility.yul\":1075:1076   */\n      0x00\n        /* \"#utility.yul\":1100:1153   */\n      tag_104\n        /* \"#utility.yul\":1145:1152   */\n      dup5\n        /* \"#utility.yul\":1136:1142   */\n      dup3\n        /* \"#utility.yul\":1125:1134   */\n      dup6\n        /* \"#utility.yul\":1121:1143   */\n      add\n        /* \"#utility.yul\":1100:1153   */\n      tag_50\n      jump\t// in\n    tag_104:\n        /* \"#utility.yul\":1090:1153   */\n      swap2\n      pop\n        /* \"#utility.yul\":1046:1163   */\n      pop\n        /* \"#utility.yul\":841:1170   */\n      swap3\n      swap2\n      pop\n      pop\n      jump\t// out\n        /* \"#utility.yul\":1176:1266   */\n    tag_51:\n        /* \"#utility.yul\":1210:1217   */\n      0x00\n        /* \"#utility.yul\":1253:1258   */\n      dup2\n        /* \"#utility.yul\":1246:1259   */\n      iszero\n        /* \"#utility.yul\":1239:1260   */\n      iszero\n        /* \"#utility.yul\":1228:1260   */\n      swap1\n      pop\n        /* \"#utility.yul\":1176:1266   */\n      swap2\n      swap1\n      pop\n      jump\t// out\n        /* \"#utility.yul\":1272:1381   */\n    tag_52:\n        /* \"#utility.yul\":1353:1374   */\n      tag_107\n        /* \"#utility.yul\":1368:1373   */\n      dup2\n        /* \"#utility.yul\":1353:1374   */\n      tag_51\n      jump\t// in\n    tag_107:\n        /* \"#utility.yul\":1348:1351   */\n      dup3\n        /* \"#utility.yul\":1341:1375   */\n      mstore\n        /* \"#utility.yul\":1272:1381   */\n      pop\n      pop\n      jump\t// out\n        /* \"#utility.yul\":1387:1597   */\n    tag_11:\n        /* \"#utility.yul\":1474:1478   */\n      0x00\n        /* \"#utility.yul\":1512:1514   */\n      0x20\n        /* \"#utility.yul\":1501:1510   */\n      dup3\n        /* \"#utility.yul\":1497:1515   */\n      add\n        /* \"#utility.yul\":1489:1515   */\n      swap1\n      pop\n        /* \"#utility.yul\":1525:1590   */\n      tag_109\n        /* \"#utility.yul\":1587:1588   */\n      0x00\n        /* \"#utility.yul\":1576:1585   */\n      dup4\n        /* \"#utility.yul\":1572:1589   */\n      add\n        /* \"#utility.yul\":1563:1569   */\n      dup5\n        /* \"#utility.yul\":1525:1590   */\n      tag_52\n      jump\t// in\n    tag_109:\n        /* \"#utility.yul\":1387:1597   */\n      swap3\n      swap2\n      pop\n      pop\n      jump\t// out\n        /* \"#utility.yul\":1603:1702   */\n    tag_53:\n        /* \"#utility.yul\":1655:1661   */\n      0x00\n        /* \"#utility.yul\":1689:1694   */\n      dup2\n        /* \"#utility.yul\":1683:1695   */\n      mload\n        /* \"#utility.yul\":1673:1695   */\n      swap1\n      pop\n        /* \"#utility.yul\":1603:1702   */\n      swap2\n      swap1\n      pop\n      jump\t// out\n        /* \"#utility.yul\":1708:1877   */\n    tag_54:\n        /* \"#utility.yul\":1792:1803   */\n      0x00\n        /* \"#utility.yul\":1826:1832   */\n      dup3\n        /* \"#utility.yul\":1821:1824   */\n      dup3\n        /* \"#utility.yul\":1814:1833   */\n      mstore\n        /* \"#utility.yul\":1866:1870   */\n      0x20\n        /* \"#utility.yul\":1861:1864   */\n      dup3\n        /* \"#utility.yul\":1857:1871   */\n      add\n        /* \"#utility.yul\":1842:1871   */\n      swap1\n      pop\n        /* \"#utility.yul\":1708:1877   */\n      swap3\n      swap2\n      pop\n      pop\n      jump\t// out\n        /* \"#utility.yul\":1883:2129   */\n    tag_55:\n        /* \"#utility.yul\":1964:1965   */\n      0x00\n        /* \"#utility.yul\":1974:2087   */\n    tag_113:\n        /* \"#utility.yul\":1988:1994   */\n      dup4\n        /* \"#utility.yul\":1985:1986   */\n      dup2\n        /* \"#utility.yul\":1982:1995   */\n      lt\n        /* \"#utility.yul\":1974:2087   */\n      iszero\n      tag_115\n      jumpi\n        /* \"#utility.yul\":2073:2074   */\n      dup1\n        /* \"#utility.yul\":2068:2071   */\n      dup3\n        /* \"#utility.yul\":2064:2075   */\n      add\n        /* \"#utility.yul\":2058:2076   */\n      mload\n        /* \"#utility.yul\":2054:2055   */\n      dup2\n        /* \"#utility.yul\":2049:2052   */\n      dup5\n        /* \"#utility.yul\":2045:2056   */\n      add\n        /* \"#utility.yul\":2038:2077   */\n      mstore\n        /* \"#utility.yul\":2010:2012   */\n      0x20\n        /* \"#utility.yul\":2007:2008   */\n      dup2\n        /* \"#utility.yul\":2003:2013   */\n      add\n        /* \"#utility.yul\":1998:2013   */\n      swap1\n      pop\n        /* \"#utility.yul\":1974:2087   */\n      jump(tag_113)\n    tag_115:\n        /* \"#utility.yul\":2121:2122   */\n      0x00\n        /* \"#utility.yul\":2112:2118   */\n      dup5\n        /* \"#utility.yul\":2107:2110   */\n      dup5\n        /* \"#utility.yul\":2103:2119   */\n      add\n        /* \"#utility.yul\":2096:2123   */\n      mstore\n        /* \"#utility.yul\":1945:2129   */\n      pop\n        /* \"#utility.yul\":1883:2129   */\n      pop\n      pop\n      pop\n      jump\t// out\n        /* \"#utility.yul\":2135:2237   */\n    tag_56:\n        /* \"#utility.yul\":2176:2182   */\n      0x00\n        /* \"#utility.yul\":2227:2229   */\n      0x1f\n        /* \"#utility.yul\":2223:2230   */\n      not\n        /* \"#utility.yul\":2218:2220   */\n      0x1f\n        /* \"#utility.yul\":2211:2216   */\n      dup4\n        /* \"#utility.yul\":2207:2221   */\n      add\n        /* \"#utility.yul\":2203:2231   */\n      and\n        /* \"#utility.yul\":2193:2231   */\n      swap1\n      pop\n        /* \"#utility.yul\":2135:2237   */\n      swap2\n      swap1\n      pop\n      jump\t// out\n        /* \"#utility.yul\":2243:2620   */\n    tag_57:\n        /* \"#utility.yul\":2331:2334   */\n      0x00\n        /* \"#utility.yul\":2359:2398   */\n      tag_118\n        /* \"#utility.yul\":2392:2397   */\n      dup3\n        /* \"#utility.yul\":2359:2398   */\n      tag_53\n      jump\t// in\n    tag_118:\n        /* \"#utility.yul\":2414:2485   */\n      tag_119\n        /* \"#utility.yul\":2478:2484   */\n      dup2\n        /* \"#utility.yul\":2473:2476   */\n      dup6\n        /* \"#utility.yul\":2414:2485   */\n      tag_54\n      jump\t// in\n    tag_119:\n        /* \"#utility.yul\":2407:2485   */\n      swap4\n      pop\n        /* \"#utility.yul\":2494:2559   */\n      tag_120\n        /* \"#utility.yul\":2552:2558   */\n      dup2\n        /* \"#utility.yul\":2547:2550   */\n      dup6\n        /* \"#utility.yul\":2540:2544   */\n      0x20\n        /* \"#utility.yul\":2533:2538   */\n      dup7\n        /* \"#utility.yul\":2529:2545   */\n      add\n        /* \"#utility.yul\":2494:2559   */\n      tag_55\n      jump\t// in\n    tag_120:\n        /* \"#utility.yul\":2584:2613   */\n      tag_121\n        /* \"#utility.yul\":2606:2612   */\n      dup2\n        /* \"#utility.yul\":2584:2613   */\n      tag_56\n      jump\t// in\n    tag_121:\n        /* \"#utility.yul\":2579:2582   */\n      dup5\n        /* \"#utility.yul\":2575:2614   */\n      add\n        /* \"#utility.yul\":2568:2614   */\n      swap2\n      pop\n        /* \"#utility.yul\":2335:2620   */\n      pop\n        /* \"#utility.yul\":2243:2620   */\n      swap3\n      swap2\n      pop\n      pop\n      jump\t// out\n        /* \"#utility.yul\":2626:2939   */\n    tag_16:\n        /* \"#utility.yul\":2739:2743   */\n      0x00\n        /* \"#utility.yul\":2777:2779   */\n      0x20\n        /* \"#utility.yul\":2766:2775   */\n      dup3\n        /* \"#utility.yul\":2762:2780   */\n      add\n        /* \"#utility.yul\":2754:2780   */\n      swap1\n      pop\n        /* \"#utility.yul\":2826:2835   */\n      dup2\n        /* \"#utility.yul\":2820:2824   */\n      dup2\n        /* \"#utility.yul\":2816:2836   */\n      sub\n        /* \"#utility.yul\":2812:2813   */\n      0x00\n        /* \"#utility.yul\":2801:2810   */\n      dup4\n        /* \"#utility.yul\":2797:2814   */\n      add\n        /* \"#utility.yul\":2790:2837   */\n      mstore\n        /* \"#utility.yul\":2854:2932   */\n      tag_123\n        /* \"#utility.yul\":2927:2931   */\n      dup2\n        /* \"#utility.yul\":2918:2924   */\n      dup5\n        /* \"#utility.yul\":2854:2932   */\n      tag_57\n      jump\t// in\n    tag_123:\n        /* \"#utility.yul\":2846:2932   */\n      swap1\n      pop\n        /* \"#utility.yul\":2626:2939   */\n      swap3\n      swap2\n      pop\n      pop\n      jump\t// out\n        /* \"#utility.yul\":2945:3062   */\n    tag_58:\n        /* \"#utility.yul\":3054:3055   */\n      0x00\n        /* \"#utility.yul\":3051:3052   */\n      dup1\n        /* \"#utility.yul\":3044:3056   */\n      revert\n        /* \"#utility.yul\":3068:3185   */\n    tag_59:\n        /* \"#utility.yul\":3177:3178   */\n      0x00\n        /* \"#utility.yul\":3174:3175   */\n      dup1\n        /* \"#utility.yul\":3167:3179   */\n      revert\n        /* \"#utility.yul\":3191:3371   */\n    tag_60:\n        /* \"#utility.yul\":3239:3316   */\n      0x4e487b7100000000000000000000000000000000000000000000000000000000\n        /* \"#utility.yul\":3236:3237   */\n      0x00\n        /* \"#utility.yul\":3229:3317   */\n      mstore\n        /* \"#utility.yul\":3336:3340   */\n      0x41\n        /* \"#utility.yul\":3333:3334   */\n      0x04\n        /* \"#utility.yul\":3326:3341   */\n      mstore\n        /* \"#utility.yul\":3360:3364   */\n      0x24\n        /* \"#utility.yul\":3357:3358   */\n      0x00\n        /* \"#utility.yul\":3350:3365   */\n      revert\n        /* \"#utility.yul\":3377:3658   */\n    tag_61:\n        /* \"#utility.yul\":3460:3487   */\n      tag_128\n        /* \"#utility.yul\":3482:3486   */\n      dup3\n        /* \"#utility.yul\":3460:3487   */\n      tag_56\n      jump\t// in\n    tag_128:\n        /* \"#utility.yul\":3452:3458   */\n      dup2\n        /* \"#utility.yul\":3448:3488   */\n      add\n        /* \"#utility.yul\":3590:3596   */\n      dup2\n        /* \"#utility.yul\":3578:3588   */\n      dup2\n        /* \"#utility.yul\":3575:3597   */\n      lt\n        /* \"#utility.yul\":3554:3572   */\n      0xffffffffffffffff\n        /* \"#utility.yul\":3542:3552   */\n      dup3\n        /* \"#utility.yul\":3539:3573   */\n      gt\n        /* \"#utility.yul\":3536:3598   */\n      or\n        /* \"#utility.yul\":3533:3621   */\n      iszero\n      tag_129\n      jumpi\n        /* \"#utility.yul\":3601:3619   */\n      tag_130\n      tag_60\n      jump\t// in\n    tag_130:\n        /* \"#utility.yul\":3533:3621   */\n    tag_129:\n        /* \"#utility.yul\":3641:3651   */\n      dup1\n        /* \"#utility.yul\":3637:3639   */\n      0x40\n        /* \"#utility.yul\":3630:3652   */\n      mstore\n        /* \"#utility.yul\":3420:3658   */\n      pop\n        /* \"#utility.yul\":3377:3658   */\n      pop\n      pop\n      jump\t// out\n        /* \"#utility.yul\":3664:3793   */\n    tag_62:\n        /* \"#utility.yul\":3698:3704   */\n      0x00\n        /* \"#utility.yul\":3725:3745   */\n      tag_132\n      tag_44\n      jump\t// in\n    tag_132:\n        /* \"#utility.yul\":3715:3745   */\n      swap1\n      pop\n        /* \"#utility.yul\":3754:3787   */\n      tag_133\n        /* \"#utility.yul\":3782:3786   */\n      dup3\n        /* \"#utility.yul\":3774:3780   */\n      dup3\n        /* \"#utility.yul\":3754:3787   */\n      tag_61\n      jump\t// in\n    tag_133:\n        /* \"#utility.yul\":3664:3793   */\n      swap2\n      swap1\n      pop\n      jump\t// out\n        /* \"#utility.yul\":3799:4107   */\n    tag_63:\n        /* \"#utility.yul\":3861:3865   */\n      0x00\n        /* \"#utility.yul\":3951:3969   */\n      0xffffffffffffffff\n        /* \"#utility.yul\":3943:3949   */\n      dup3\n        /* \"#utility.yul\":3940:3970   */\n      gt\n        /* \"#utility.yul\":3937:3993   */\n      iszero\n      tag_135\n      jumpi\n        /* \"#utility.yul\":3973:3991   */\n      tag_136\n      tag_60\n      jump\t// in\n    tag_136:\n        /* \"#utility.yul\":3937:3993   */\n    tag_135:\n        /* \"#utility.yul\":4011:4040   */\n      tag_137\n        /* \"#utility.yul\":4033:4039   */\n      dup3\n        /* \"#utility.yul\":4011:4040   */\n      tag_56\n      jump\t// in\n    tag_137:\n        /* \"#utility.yul\":4003:4040   */\n      swap1\n      pop\n        /* \"#utility.yul\":4095:4099   */\n      0x20\n        /* \"#utility.yul\":4089:4093   */\n      dup2\n        /* \"#utility.yul\":4085:4100   */\n      add\n        /* \"#utility.yul\":4077:4100   */\n      swap1\n      pop\n        /* \"#utility.yul\":3799:4107   */\n      swap2\n      swap1\n      pop\n      jump\t// out\n        /* \"#utility.yul\":4113:4259   */\n    tag_64:\n        /* \"#utility.yul\":4210:4216   */\n      dup3\n        /* \"#utility.yul\":4205:4208   */\n      dup2\n        /* \"#utility.yul\":4200:4203   */\n      dup4\n        /* \"#utility.yul\":4187:4217   */\n      calldatacopy\n        /* \"#utility.yul\":4251:4252   */\n      0x00\n        /* \"#utility.yul\":4242:4248   */\n      dup4\n        /* \"#utility.yul\":4237:4240   */\n      dup4\n        /* \"#utility.yul\":4233:4249   */\n      add\n        /* \"#utility.yul\":4226:4253   */\n      mstore\n        /* \"#utility.yul\":4113:4259   */\n      pop\n      pop\n      pop\n      jump\t// out\n        /* \"#utility.yul\":4265:4690   */\n    tag_65:\n        /* \"#utility.yul\":4343:4348   */\n      0x00\n        /* \"#utility.yul\":4368:4434   */\n      tag_140\n        /* \"#utility.yul\":4384:4433   */\n      tag_141\n        /* \"#utility.yul\":4426:4432   */\n      dup5\n        /* \"#utility.yul\":4384:4433   */\n      tag_63\n      jump\t// in\n    tag_141:\n        /* \"#utility.yul\":4368:4434   */\n      tag_62\n      jump\t// in\n    tag_140:\n        /* \"#utility.yul\":4359:4434   */\n      swap1\n      pop\n        /* \"#utility.yul\":4457:4463   */\n      dup3\n        /* \"#utility.yul\":4450:4455   */\n      dup2\n        /* \"#utility.yul\":4443:4464   */\n      mstore\n        /* \"#utility.yul\":4495:4499   */\n      0x20\n        /* \"#utility.yul\":4488:4493   */\n      dup2\n        /* \"#utility.yul\":4484:4500   */\n      add\n        /* \"#utility.yul\":4533:4536   */\n      dup5\n        /* \"#utility.yul\":4524:4530   */\n      dup5\n        /* \"#utility.yul\":4519:4522   */\n      dup5\n        /* \"#utility.yul\":4515:4531   */\n      add\n        /* \"#utility.yul\":4512:4537   */\n      gt\n        /* \"#utility.yul\":4509:4621   */\n      iszero\n      tag_142\n      jumpi\n        /* \"#utility.yul\":4540:4619   */\n      tag_143\n      tag_59\n      jump\t// in\n    tag_143:\n        /* \"#utility.yul\":4509:4621   */\n    tag_142:\n        /* \"#utility.yul\":4630:4684   */\n      tag_144\n        /* \"#utility.yul\":4677:4683   */\n      dup5\n        /* \"#utility.yul\":4672:4675   */\n      dup3\n        /* \"#utility.yul\":4667:4670   */\n      dup6\n        /* \"#utility.yul\":4630:4684   */\n      tag_64\n      jump\t// in\n    tag_144:\n        /* \"#utility.yul\":4349:4690   */\n      pop\n        /* \"#utility.yul\":4265:4690   */\n      swap4\n      swap3\n      pop\n      pop\n      pop\n      jump\t// out\n        /* \"#utility.yul\":4710:5050   */\n    tag_66:\n        /* \"#utility.yul\":4766:4771   */\n      0x00\n        /* \"#utility.yul\":4815:4818   */\n      dup3\n        /* \"#utility.yul\":4808:4812   */\n      0x1f\n        /* \"#utility.yul\":4800:4806   */\n      dup4\n        /* \"#utility.yul\":4796:4813   */\n      add\n        /* \"#utility.yul\":4792:4819   */\n      slt\n        /* \"#utility.yul\":4782:4904   */\n      tag_146\n      jumpi\n        /* \"#utility.yul\":4823:4902   */\n      tag_147\n      tag_58\n      jump\t// in\n    tag_147:\n        /* \"#utility.yul\":4782:4904   */\n    tag_146:\n        /* \"#utility.yul\":4940:4946   */\n      dup2\n        /* \"#utility.yul\":4927:4947   */\n      calldataload\n        /* \"#utility.yul\":4965:5044   */\n      tag_148\n        /* \"#utility.yul\":5040:5043   */\n      dup5\n        /* \"#utility.yul\":5032:5038   */\n      dup3\n        /* \"#utility.yul\":5025:5029   */\n      0x20\n        /* \"#utility.yul\":5017:5023   */\n      dup7\n        /* \"#utility.yul\":5013:5030   */\n      add\n        /* \"#utility.yul\":4965:5044   */\n      tag_65\n      jump\t// in\n    tag_148:\n        /* \"#utility.yul\":4956:5044   */\n      swap2\n      pop\n        /* \"#utility.yul\":4772:5050   */\n      pop\n        /* \"#utility.yul\":4710:5050   */\n      swap3\n      swap2\n      pop\n      pop\n      jump\t// out\n        /* \"#utility.yul\":5056:5565   */\n    tag_19:\n        /* \"#utility.yul\":5125:5131   */\n      0x00\n        /* \"#utility.yul\":5174:5176   */\n      0x20\n        /* \"#utility.yul\":5162:5171   */\n      dup3\n        /* \"#utility.yul\":5153:5160   */\n      dup5\n        /* \"#utility.yul\":5149:5172   */\n      sub\n        /* \"#utility.yul\":5145:5177   */\n      slt\n        /* \"#utility.yul\":5142:5261   */\n      iszero\n      tag_150\n      jumpi\n        /* \"#utility.yul\":5180:5259   */\n      tag_151\n      tag_45\n      jump\t// in\n    tag_151:\n        /* \"#utility.yul\":5142:5261   */\n    tag_150:\n        /* \"#utility.yul\":5328:5329   */\n      0x00\n        /* \"#utility.yul\":5317:5326   */\n      dup3\n        /* \"#utility.yul\":5313:5330   */\n      add\n        /* \"#utility.yul\":5300:5331   */\n      calldataload\n        /* \"#utility.yul\":5358:5376   */\n      0xffffffffffffffff\n        /* \"#utility.yul\":5350:5356   */\n      dup2\n        /* \"#utility.yul\":5347:5377   */\n      gt\n        /* \"#utility.yul\":5344:5461   */\n      iszero\n      tag_152\n      jumpi\n        /* \"#utility.yul\":5380:5459   */\n      tag_153\n      tag_46\n      jump\t// in\n    tag_153:\n        /* \"#utility.yul\":5344:5461   */\n    tag_152:\n        /* \"#utility.yul\":5485:5548   */\n      tag_154\n        /* \"#utility.yul\":5540:5547   */\n      dup5\n        /* \"#utility.yul\":5531:5537   */\n      dup3\n        /* \"#utility.yul\":5520:5529   */\n      dup6\n        /* \"#utility.yul\":5516:5538   */\n      add\n        /* \"#utility.yul\":5485:5548   */\n      tag_66\n      jump\t// in\n    tag_154:\n        /* \"#utility.yul\":5475:5548   */\n      swap2\n      pop\n        /* \"#utility.yul\":5271:5558   */\n      pop\n        /* \"#utility.yul\":5056:5565   */\n      swap3\n      swap2\n      pop\n      pop\n      jump\t// out\n        /* \"#utility.yul\":5571:5751   */\n    tag_67:\n        /* \"#utility.yul\":5619:5696   */\n      0x4e487b7100000000000000000000000000000000000000000000000000000000\n        /* \"#utility.yul\":5616:5617   */\n      0x00\n        /* \"#utility.yul\":5609:5697   */\n      mstore\n        /* \"#utility.yul\":5716:5720   */\n      0x22\n        /* \"#utility.yul\":5713:5714   */\n      0x04\n        /* \"#utility.yul\":5706:5721   */\n      mstore\n        /* \"#utility.yul\":5740:5744   */\n      0x24\n        /* \"#utility.yul\":5737:5738   */\n      0x00\n        /* \"#utility.yul\":5730:5745   */\n      revert\n        /* \"#utility.yul\":5757:6077   */\n    tag_24:\n        /* \"#utility.yul\":5801:5807   */\n      0x00\n        /* \"#utility.yul\":5838:5839   */\n      0x02\n        /* \"#utility.yul\":5832:5836   */\n      dup3\n        /* \"#utility.yul\":5828:5840   */\n      div\n        /* \"#utility.yul\":5818:5840   */\n      swap1\n      pop\n        /* \"#utility.yul\":5885:5886   */\n      0x01\n        /* \"#utility.yul\":5879:5883   */\n      dup3\n        /* \"#utility.yul\":5875:5887   */\n      and\n        /* \"#utility.yul\":5906:5924   */\n      dup1\n        /* \"#utility.yul\":5896:5977   */\n      tag_157\n      jumpi\n        /* \"#utility.yul\":5962:5966   */\n      0x7f\n        /* \"#utility.yul\":5954:5960   */\n      dup3\n        /* \"#utility.yul\":5950:5967   */\n      and\n        /* \"#utility.yul\":5940:5967   */\n      swap2\n      pop\n        /* \"#utility.yul\":5896:5977   */\n    tag_157:\n        /* \"#utility.yul\":6024:6026   */\n      0x20\n        /* \"#utility.yul\":6016:6022   */\n      dup3\n        /* \"#utility.yul\":6013:6027   */\n      lt\n        /* \"#utility.yul\":5993:6011   */\n      dup2\n        /* \"#utility.yul\":5990:6028   */\n      sub\n        /* \"#utility.yul\":5987:6071   */\n      tag_158\n      jumpi\n        /* \"#utility.yul\":6043:6061   */\n      tag_159\n      tag_67\n      jump\t// in\n    tag_159:\n        /* \"#utility.yul\":5987:6071   */\n    tag_158:\n        /* \"#utility.yul\":5808:6077   */\n      pop\n        /* \"#utility.yul\":5757:6077   */\n      swap2\n      swap1\n      pop\n      jump\t// out\n        /* \"#utility.yul\":6083:6256   */\n    tag_68:\n        /* \"#utility.yul\":6223:6248   */\n      0x5573657220616c72656164792052656769737465726564000000000000000000\n        /* \"#utility.yul\":6219:6220   */\n      0x00\n        /* \"#utility.yul\":6211:6217   */\n      dup3\n        /* \"#utility.yul\":6207:6221   */\n      add\n        /* \"#utility.yul\":6200:6249   */\n      mstore\n        /* \"#utility.yul\":6083:6256   */\n      pop\n      jump\t// out\n        /* \"#utility.yul\":6262:6628   */\n    tag_69:\n        /* \"#utility.yul\":6404:6407   */\n      0x00\n        /* \"#utility.yul\":6425:6492   */\n      tag_162\n        /* \"#utility.yul\":6489:6491   */\n      0x17\n        /* \"#utility.yul\":6484:6487   */\n      dup4\n        /* \"#utility.yul\":6425:6492   */\n      tag_54\n      jump\t// in\n    tag_162:\n        /* \"#utility.yul\":6418:6492   */\n      swap2\n      pop\n        /* \"#utility.yul\":6501:6594   */\n      tag_163\n        /* \"#utility.yul\":6590:6593   */\n      dup3\n        /* \"#utility.yul\":6501:6594   */\n      tag_68\n      jump\t// in\n    tag_163:\n        /* \"#utility.yul\":6619:6621   */\n      0x20\n        /* \"#utility.yul\":6614:6617   */\n      dup3\n        /* \"#utility.yul\":6610:6622   */\n      add\n        /* \"#utility.yul\":6603:6622   */\n      swap1\n      pop\n        /* \"#utility.yul\":6262:6628   */\n      swap2\n      swap1\n      pop\n      jump\t// out\n        /* \"#utility.yul\":6634:7053   */\n    tag_32:\n        /* \"#utility.yul\":6800:6804   */\n      0x00\n        /* \"#utility.yul\":6838:6840   */\n      0x20\n        /* \"#utility.yul\":6827:6836   */\n      dup3\n        /* \"#utility.yul\":6823:6841   */\n      add\n        /* \"#utility.yul\":6815:6841   */\n      swap1\n      pop\n        /* \"#utility.yul\":6887:6896   */\n      dup2\n        /* \"#utility.yul\":6881:6885   */\n      dup2\n        /* \"#utility.yul\":6877:6897   */\n      sub\n        /* \"#utility.yul\":6873:6874   */\n      0x00\n        /* \"#utility.yul\":6862:6871   */\n      dup4\n        /* \"#utility.yul\":6858:6875   */\n      add\n        /* \"#utility.yul\":6851:6898   */\n      mstore\n        /* \"#utility.yul\":6915:7046   */\n      tag_165\n        /* \"#utility.yul\":7041:7045   */\n      dup2\n        /* \"#utility.yul\":6915:7046   */\n      tag_69\n      jump\t// in\n    tag_165:\n        /* \"#utility.yul\":6907:7046   */\n      swap1\n      pop\n        /* \"#utility.yul\":6634:7053   */\n      swap2\n      swap1\n      pop\n      jump\t// out\n        /* \"#utility.yul\":7059:7207   */\n    tag_70:\n        /* \"#utility.yul\":7161:7172   */\n      0x00\n        /* \"#utility.yul\":7198:7201   */\n      dup2\n        /* \"#utility.yul\":7183:7201   */\n      swap1\n      pop\n        /* \"#utility.yul\":7059:7207   */\n      swap3\n      swap2\n      pop\n      pop\n      jump\t// out\n        /* \"#utility.yul\":7213:7354   */\n    tag_71:\n        /* \"#utility.yul\":7262:7266   */\n      0x00\n        /* \"#utility.yul\":7285:7288   */\n      dup2\n        /* \"#utility.yul\":7277:7288   */\n      swap1\n      pop\n        /* \"#utility.yul\":7308:7311   */\n      dup2\n        /* \"#utility.yul\":7305:7306   */\n      0x00\n        /* \"#utility.yul\":7298:7312   */\n      mstore\n        /* \"#utility.yul\":7342:7346   */\n      0x20\n        /* \"#utility.yul\":7339:7340   */\n      0x00\n        /* \"#utility.yul\":7329:7347   */\n      keccak256\n        /* \"#utility.yul\":7321:7347   */\n      swap1\n      pop\n        /* \"#utility.yul\":7213:7354   */\n      swap2\n      swap1\n      pop\n      jump\t// out\n        /* \"#utility.yul\":7384:8258   */\n    tag_72:\n        /* \"#utility.yul\":7487:7490   */\n      0x00\n        /* \"#utility.yul\":7524:7529   */\n      dup2\n        /* \"#utility.yul\":7518:7530   */\n      sload\n        /* \"#utility.yul\":7553:7589   */\n      tag_169\n        /* \"#utility.yul\":7579:7588   */\n      dup2\n        /* \"#utility.yul\":7553:7589   */\n      tag_24\n      jump\t// in\n    tag_169:\n        /* \"#utility.yul\":7605:7694   */\n      tag_170\n        /* \"#utility.yul\":7687:7693   */\n      dup2\n        /* \"#utility.yul\":7682:7685   */\n      dup7\n        /* \"#utility.yul\":7605:7694   */\n      tag_70\n      jump\t// in\n    tag_170:\n        /* \"#utility.yul\":7598:7694   */\n      swap5\n      pop\n        /* \"#utility.yul\":7725:7726   */\n      0x01\n        /* \"#utility.yul\":7714:7723   */\n      dup3\n        /* \"#utility.yul\":7710:7727   */\n      and\n        /* \"#utility.yul\":7741:7742   */\n      0x00\n        /* \"#utility.yul\":7736:7902   */\n      dup2\n      eq\n      tag_172\n      jumpi\n        /* \"#utility.yul\":7916:7917   */\n      0x01\n        /* \"#utility.yul\":7911:8252   */\n      dup2\n      eq\n      tag_173\n      jumpi\n        /* \"#utility.yul\":7703:8252   */\n      jump(tag_171)\n        /* \"#utility.yul\":7736:7902   */\n    tag_172:\n        /* \"#utility.yul\":7820:7824   */\n      0xff\n        /* \"#utility.yul\":7816:7825   */\n      not\n        /* \"#utility.yul\":7805:7814   */\n      dup4\n        /* \"#utility.yul\":7801:7826   */\n      and\n        /* \"#utility.yul\":7796:7799   */\n      dup7\n        /* \"#utility.yul\":7789:7827   */\n      mstore\n        /* \"#utility.yul\":7882:7888   */\n      dup2\n        /* \"#utility.yul\":7875:7889   */\n      iszero\n        /* \"#utility.yul\":7868:7890   */\n      iszero\n        /* \"#utility.yul\":7860:7866   */\n      dup3\n        /* \"#utility.yul\":7856:7891   */\n      mul\n        /* \"#utility.yul\":7851:7854   */\n      dup7\n        /* \"#utility.yul\":7847:7892   */\n      add\n        /* \"#utility.yul\":7840:7892   */\n      swap4\n      pop\n        /* \"#utility.yul\":7736:7902   */\n      jump(tag_171)\n        /* \"#utility.yul\":7911:8252   */\n    tag_173:\n        /* \"#utility.yul\":7978:8016   */\n      tag_174\n        /* \"#utility.yul\":8010:8015   */\n      dup6\n        /* \"#utility.yul\":7978:8016   */\n      tag_71\n      jump\t// in\n    tag_174:\n        /* \"#utility.yul\":8038:8039   */\n      0x00\n        /* \"#utility.yul\":8052:8206   */\n    tag_175:\n        /* \"#utility.yul\":8066:8072   */\n      dup4\n        /* \"#utility.yul\":8063:8064   */\n      dup2\n        /* \"#utility.yul\":8060:8073   */\n      lt\n        /* \"#utility.yul\":8052:8206   */\n      iszero\n      tag_177\n      jumpi\n        /* \"#utility.yul\":8140:8147   */\n      dup2\n        /* \"#utility.yul\":8134:8148   */\n      sload\n        /* \"#utility.yul\":8130:8131   */\n      dup2\n        /* \"#utility.yul\":8125:8128   */\n      dup10\n        /* \"#utility.yul\":8121:8132   */\n      add\n        /* \"#utility.yul\":8114:8149   */\n      mstore\n        /* \"#utility.yul\":8190:8191   */\n      0x01\n        /* \"#utility.yul\":8181:8188   */\n      dup3\n        /* \"#utility.yul\":8177:8192   */\n      add\n        /* \"#utility.yul\":8166:8192   */\n      swap2\n      pop\n        /* \"#utility.yul\":8088:8092   */\n      0x20\n        /* \"#utility.yul\":8085:8086   */\n      dup2\n        /* \"#utility.yul\":8081:8093   */\n      add\n        /* \"#utility.yul\":8076:8093   */\n      swap1\n      pop\n        /* \"#utility.yul\":8052:8206   */\n      jump(tag_175)\n    tag_177:\n        /* \"#utility.yul\":8235:8241   */\n      dup4\n        /* \"#utility.yul\":8230:8233   */\n      dup9\n        /* \"#utility.yul\":8226:8242   */\n      add\n        /* \"#utility.yul\":8219:8242   */\n      swap6\n      pop\n        /* \"#utility.yul\":7918:8252   */\n      pop\n      pop\n        /* \"#utility.yul\":7703:8252   */\n    tag_171:\n      pop\n        /* \"#utility.yul\":7491:8258   */\n      pop\n      pop\n        /* \"#utility.yul\":7384:8258   */\n      swap3\n      swap2\n      pop\n      pop\n      jump\t// out\n        /* \"#utility.yul\":8264:8533   */\n    tag_34:\n        /* \"#utility.yul\":8393:8396   */\n      0x00\n        /* \"#utility.yul\":8415:8507   */\n      tag_179\n        /* \"#utility.yul\":8503:8506   */\n      dup3\n        /* \"#utility.yul\":8494:8500   */\n      dup5\n        /* \"#utility.yul\":8415:8507   */\n      tag_72\n      jump\t// in\n    tag_179:\n        /* \"#utility.yul\":8408:8507   */\n      swap2\n      pop\n        /* \"#utility.yul\":8524:8527   */\n      dup2\n        /* \"#utility.yul\":8517:8527   */\n      swap1\n      pop\n        /* \"#utility.yul\":8264:8533   */\n      swap3\n      swap2\n      pop\n      pop\n      jump\t// out\n        /* \"#utility.yul\":8539:8929   */\n    tag_73:\n        /* \"#utility.yul\":8645:8648   */\n      0x00\n        /* \"#utility.yul\":8673:8712   */\n      tag_181\n        /* \"#utility.yul\":8706:8711   */\n      dup3\n        /* \"#utility.yul\":8673:8712   */\n      tag_53\n      jump\t// in\n    tag_181:\n        /* \"#utility.yul\":8728:8817   */\n      tag_182\n        /* \"#utility.yul\":8810:8816   */\n      dup2\n        /* \"#utility.yul\":8805:8808   */\n      dup6\n        /* \"#utility.yul\":8728:8817   */\n      tag_70\n      jump\t// in\n    tag_182:\n        /* \"#utility.yul\":8721:8817   */\n      swap4\n      pop\n        /* \"#utility.yul\":8826:8891   */\n      tag_183\n        /* \"#utility.yul\":8884:8890   */\n      dup2\n        /* \"#utility.yul\":8879:8882   */\n      dup6\n        /* \"#utility.yul\":8872:8876   */\n      0x20\n        /* \"#utility.yul\":8865:8870   */\n      dup7\n        /* \"#utility.yul\":8861:8877   */\n      add\n        /* \"#utility.yul\":8826:8891   */\n      tag_55\n      jump\t// in\n    tag_183:\n        /* \"#utility.yul\":8916:8922   */\n      dup1\n        /* \"#utility.yul\":8911:8914   */\n      dup5\n        /* \"#utility.yul\":8907:8923   */\n      add\n        /* \"#utility.yul\":8900:8923   */\n      swap2\n      pop\n        /* \"#utility.yul\":8649:8929   */\n      pop\n        /* \"#utility.yul\":8539:8929   */\n      swap3\n      swap2\n      pop\n      pop\n      jump\t// out\n        /* \"#utility.yul\":8935:9210   */\n    tag_36:\n        /* \"#utility.yul\":9067:9070   */\n      0x00\n        /* \"#utility.yul\":9089:9184   */\n      tag_185\n        /* \"#utility.yul\":9180:9183   */\n      dup3\n        /* \"#utility.yul\":9171:9177   */\n      dup5\n        /* \"#utility.yul\":9089:9184   */\n      tag_73\n      jump\t// in\n    tag_185:\n        /* \"#utility.yul\":9082:9184   */\n      swap2\n      pop\n        /* \"#utility.yul\":9201:9204   */\n      dup2\n        /* \"#utility.yul\":9194:9204   */\n      swap1\n      pop\n        /* \"#utility.yul\":8935:9210   */\n      swap3\n      swap2\n      pop\n      pop\n      jump\t// out\n        /* \"#utility.yul\":9216:9309   */\n    tag_74:\n        /* \"#utility.yul\":9253:9259   */\n      0x00\n        /* \"#utility.yul\":9300:9302   */\n      0x20\n        /* \"#utility.yul\":9295:9297   */\n      0x1f\n        /* \"#utility.yul\":9288:9293   */\n      dup4\n        /* \"#utility.yul\":9284:9298   */\n      add\n        /* \"#utility.yul\":9280:9303   */\n      div\n        /* \"#utility.yul\":9270:9303   */\n      swap1\n      pop\n        /* \"#utility.yul\":9216:9309   */\n      swap2\n      swap1\n      pop\n      jump\t// out\n        /* \"#utility.yul\":9315:9422   */\n    tag_75:\n        /* \"#utility.yul\":9359:9367   */\n      0x00\n        /* \"#utility.yul\":9409:9414   */\n      dup3\n        /* \"#utility.yul\":9403:9407   */\n      dup3\n        /* \"#utility.yul\":9399:9415   */\n      shl\n        /* \"#utility.yul\":9378:9415   */\n      swap1\n      pop\n        /* \"#utility.yul\":9315:9422   */\n      swap3\n      swap2\n      pop\n      pop\n      jump\t// out\n        /* \"#utility.yul\":9428:9821   */\n    tag_76:\n        /* \"#utility.yul\":9497:9503   */\n      0x00\n        /* \"#utility.yul\":9547:9548   */\n      0x08\n        /* \"#utility.yul\":9535:9545   */\n      dup4\n        /* \"#utility.yul\":9531:9549   */\n      mul\n        /* \"#utility.yul\":9570:9667   */\n      tag_189\n        /* \"#utility.yul\":9600:9666   */\n      0xffffffffffffffffffffffffffffffffffffffffffffffffffffffffffffffff\n        /* \"#utility.yul\":9589:9598   */\n      dup3\n        /* \"#utility.yul\":9570:9667   */\n      tag_75\n      jump\t// in\n    tag_189:\n        /* \"#utility.yul\":9688:9727   */\n      tag_190\n        /* \"#utility.yul\":9718:9726   */\n      dup7\n        /* \"#utility.yul\":9707:9716   */\n      dup4\n        /* \"#utility.yul\":9688:9727   */\n      tag_75\n      jump\t// in\n    tag_190:\n        /* \"#utility.yul\":9676:9727   */\n      swap6\n      pop\n        /* \"#utility.yul\":9760:9764   */\n      dup1\n        /* \"#utility.yul\":9756:9765   */\n      not\n        /* \"#utility.yul\":9749:9754   */\n      dup5\n        /* \"#utility.yul\":9745:9766   */\n      and\n        /* \"#utility.yul\":9736:9766   */\n      swap4\n      pop\n        /* \"#utility.yul\":9809:9813   */\n      dup1\n        /* \"#utility.yul\":9799:9807   */\n      dup7\n        /* \"#utility.yul\":9795:9814   */\n      and\n        /* \"#utility.yul\":9788:9793   */\n      dup5\n        /* \"#utility.yul\":9785:9815   */\n      or\n        /* \"#utility.yul\":9775:9815   */\n      swap3\n      pop\n        /* \"#utility.yul\":9504:9821   */\n      pop\n      pop\n        /* \"#utility.yul\":9428:9821   */\n      swap4\n      swap3\n      pop\n      pop\n      pop\n      jump\t// out\n        /* \"#utility.yul\":9827:9904   */\n    tag_77:\n        /* \"#utility.yul\":9864:9871   */\n      0x00\n        /* \"#utility.yul\":9893:9898   */\n      dup2\n        /* \"#utility.yul\":9882:9898   */\n      swap1\n      pop\n        /* \"#utility.yul\":9827:9904   */\n      swap2\n      swap1\n      pop\n      jump\t// out\n        /* \"#utility.yul\":9910:9970   */\n    tag_78:\n        /* \"#utility.yul\":9938:9941   */\n      0x00\n        /* \"#utility.yul\":9959:9964   */\n      dup2\n        /* \"#utility.yul\":9952:9964   */\n      swap1\n      pop\n        /* \"#utility.yul\":9910:9970   */\n      swap2\n      swap1\n      pop\n      jump\t// out\n        /* \"#utility.yul\":9976:10118   */\n    tag_79:\n        /* \"#utility.yul\":10026:10035   */\n      0x00\n        /* \"#utility.yul\":10059:10112   */\n      tag_194\n        /* \"#utility.yul\":10077:10111   */\n      tag_195\n        /* \"#utility.yul\":10086:10110   */\n      tag_196\n        /* \"#utility.yul\":10104:10109   */\n      dup5\n        /* \"#utility.yul\":10086:10110   */\n      tag_77\n      jump\t// in\n    tag_196:\n        /* \"#utility.yul\":10077:10111   */\n      tag_78\n      jump\t// in\n    tag_195:\n        /* \"#utility.yul\":10059:10112   */\n      tag_77\n      jump\t// in\n    tag_194:\n        /* \"#utility.yul\":10046:10112   */\n      swap1\n      pop\n        /* \"#utility.yul\":9976:10118   */\n      swap2\n      swap1\n      pop\n      jump\t// out\n        /* \"#utility.yul\":10124:10199   */\n    tag_80:\n        /* \"#utility.yul\":10167:10170   */\n      0x00\n        /* \"#utility.yul\":10188:10193   */\n      dup2\n        /* \"#utility.yul\":10181:10193   */\n      swap1\n      pop\n        /* \"#utility.yul\":10124:10199   */\n      swap2\n      swap1\n      pop\n      jump\t// out\n        /* \"#utility.yul\":10205:10474   */\n    tag_81:\n        /* \"#utility.yul\":10315:10354   */\n      tag_199\n        /* \"#utility.yul\":10346:10353   */\n      dup4\n        /* \"#utility.yul\":10315:10354   */\n      tag_79\n      jump\t// in\n    tag_199:\n        /* \"#utility.yul\":10376:10467   */\n      tag_200\n        /* \"#utility.yul\":10425:10466   */\n      tag_201\n        /* \"#utility.yul\":10449:10465   */\n      dup3\n        /* \"#utility.yul\":10425:10466   */\n      tag_80\n      jump\t// in\n    tag_201:\n        /* \"#utility.yul\":10417:10423   */\n      dup5\n        /* \"#utility.yul\":10410:10414   */\n      dup5\n        /* \"#utility.yul\":10404:10415   */\n      sload\n        /* \"#utility.yul\":10376:10467   */\n      tag_76\n      jump\t// in\n    tag_200:\n        /* \"#utility.yul\":10370:10374   */\n      dup3\n        /* \"#utility.yul\":10363:10468   */\n      sstore\n        /* \"#utility.yul\":10281:10474   */\n      pop\n        /* \"#utility.yul\":10205:10474   */\n      pop\n      pop\n      pop\n      jump\t// out\n        /* \"#utility.yul\":10480:10553   */\n    tag_82:\n        /* \"#utility.yul\":10525:10528   */\n      0x00\n        /* \"#utility.yul\":10480:10553   */\n      swap1\n      jump\t// out\n        /* \"#utility.yul\":10559:10748   */\n    tag_83:\n        /* \"#utility.yul\":10636:10668   */\n      tag_204\n      tag_82\n      jump\t// in\n    tag_204:\n        /* \"#utility.yul\":10677:10742   */\n      tag_205\n        /* \"#utility.yul\":10735:10741   */\n      dup2\n        /* \"#utility.yul\":10727:10733   */\n      dup5\n        /* \"#utility.yul\":10721:10725   */\n      dup5\n        /* \"#utility.yul\":10677:10742   */\n      tag_81\n      jump\t// in\n    tag_205:\n        /* \"#utility.yul\":10612:10748   */\n      pop\n        /* \"#utility.yul\":10559:10748   */\n      pop\n      pop\n      jump\t// out\n        /* \"#utility.yul\":10754:10940   */\n    tag_84:\n        /* \"#utility.yul\":10814:10934   */\n    tag_207:\n        /* \"#utility.yul\":10831:10834   */\n      dup2\n        /* \"#utility.yul\":10824:10829   */\n      dup2\n        /* \"#utility.yul\":10821:10835   */\n      lt\n        /* \"#utility.yul\":10814:10934   */\n      iszero\n      tag_209\n      jumpi\n        /* \"#utility.yul\":10885:10924   */\n      tag_210\n        /* \"#utility.yul\":10922:10923   */\n      0x00\n        /* \"#utility.yul\":10915:10920   */\n      dup3\n        /* \"#utility.yul\":10885:10924   */\n      tag_83\n      jump\t// in\n    tag_210:\n        /* \"#utility.yul\":10858:10859   */\n      0x01\n        /* \"#utility.yul\":10851:10856   */\n      dup2\n        /* \"#utility.yul\":10847:10860   */\n      add\n        /* \"#utility.yul\":10838:10860   */\n      swap1\n      pop\n        /* \"#utility.yul\":10814:10934   */\n      jump(tag_207)\n    tag_209:\n        /* \"#utility.yul\":10754:10940   */\n      pop\n      pop\n      jump\t// out\n        /* \"#utility.yul\":10946:11489   */\n    tag_85:\n        /* \"#utility.yul\":11047:11049   */\n      0x1f\n        /* \"#utility.yul\":11042:11045   */\n      dup3\n        /* \"#utility.yul\":11039:11050   */\n      gt\n        /* \"#utility.yul\":11036:11482   */\n      iszero\n      tag_212\n      jumpi\n        /* \"#utility.yul\":11081:11119   */\n      tag_213\n        /* \"#utility.yul\":11113:11118   */\n      dup2\n        /* \"#utility.yul\":11081:11119   */\n      tag_71\n      jump\t// in\n    tag_213:\n        /* \"#utility.yul\":11165:11194   */\n      tag_214\n        /* \"#utility.yul\":11183:11193   */\n      dup5\n        /* \"#utility.yul\":11165:11194   */\n      tag_74\n      jump\t// in\n    tag_214:\n        /* \"#utility.yul\":11155:11163   */\n      dup2\n        /* \"#utility.yul\":11151:11195   */\n      add\n        /* \"#utility.yul\":11348:11350   */\n      0x20\n        /* \"#utility.yul\":11336:11346   */\n      dup6\n        /* \"#utility.yul\":11333:11351   */\n      lt\n        /* \"#utility.yul\":11330:11379   */\n      iszero\n      tag_215\n      jumpi\n        /* \"#utility.yul\":11369:11377   */\n      dup2\n        /* \"#utility.yul\":11354:11377   */\n      swap1\n      pop\n        /* \"#utility.yul\":11330:11379   */\n    tag_215:\n        /* \"#utility.yul\":11392:11472   */\n      tag_216\n        /* \"#utility.yul\":11448:11470   */\n      tag_217\n        /* \"#utility.yul\":11466:11469   */\n      dup6\n        /* \"#utility.yul\":11448:11470   */\n      tag_74\n      jump\t// in\n    tag_217:\n        /* \"#utility.yul\":11438:11446   */\n      dup4\n        /* \"#utility.yul\":11434:11471   */\n      add\n        /* \"#utility.yul\":11421:11432   */\n      dup3\n        /* \"#utility.yul\":11392:11472   */\n      tag_84\n      jump\t// in\n    tag_216:\n        /* \"#utility.yul\":11051:11482   */\n      pop\n      pop\n        /* \"#utility.yul\":11036:11482   */\n    tag_212:\n        /* \"#utility.yul\":10946:11489   */\n      pop\n      pop\n      pop\n      jump\t// out\n        /* \"#utility.yul\":11495:11612   */\n    tag_86:\n        /* \"#utility.yul\":11549:11557   */\n      0x00\n        /* \"#utility.yul\":11599:11604   */\n      dup3\n        /* \"#utility.yul\":11593:11597   */\n      dup3\n        /* \"#utility.yul\":11589:11605   */\n      shr\n        /* \"#utility.yul\":11568:11605   */\n      swap1\n      pop\n        /* \"#utility.yul\":11495:11612   */\n      swap3\n      swap2\n      pop\n      pop\n      jump\t// out\n        /* \"#utility.yul\":11618:11787   */\n    tag_87:\n        /* \"#utility.yul\":11662:11668   */\n      0x00\n        /* \"#utility.yul\":11695:11746   */\n      tag_220\n        /* \"#utility.yul\":11743:11744   */\n      0x00\n        /* \"#utility.yul\":11739:11745   */\n      not\n        /* \"#utility.yul\":11731:11736   */\n      dup5\n        /* \"#utility.yul\":11728:11729   */\n      0x08\n        /* \"#utility.yul\":11724:11737   */\n      mul\n        /* \"#utility.yul\":11695:11746   */\n      tag_86\n      jump\t// in\n    tag_220:\n        /* \"#utility.yul\":11691:11747   */\n      not\n        /* \"#utility.yul\":11776:11780   */\n      dup1\n        /* \"#utility.yul\":11770:11774   */\n      dup4\n        /* \"#utility.yul\":11766:11781   */\n      and\n        /* \"#utility.yul\":11756:11781   */\n      swap2\n      pop\n        /* \"#utility.yul\":11669:11787   */\n      pop\n        /* \"#utility.yul\":11618:11787   */\n      swap3\n      swap2\n      pop\n      pop\n      jump\t// out\n        /* \"#utility.yul\":11792:12087   */\n    tag_88:\n        /* \"#utility.yul\":11868:11872   */\n      0x00\n        /* \"#utility.yul\":12014:12043   */\n      tag_222\n        /* \"#utility.yul\":12039:12042   */\n      dup4\n        /* \"#utility.yul\":12033:12037   */\n      dup4\n        /* \"#utility.yul\":12014:12043   */\n      tag_87\n      jump\t// in\n    tag_222:\n        /* \"#utility.yul\":12006:12043   */\n      swap2\n      pop\n        /* \"#utility.yul\":12076:12079   */\n      dup3\n        /* \"#utility.yul\":12073:12074   */\n      0x02\n        /* \"#utility.yul\":12069:12080   */\n      mul\n        /* \"#utility.yul\":12063:12067   */\n      dup3\n        /* \"#utility.yul\":12060:12081   */\n      or\n        /* \"#utility.yul\":12052:12081   */\n      swap1\n      pop\n        /* \"#utility.yul\":11792:12087   */\n      swap3\n      swap2\n      pop\n      pop\n      jump\t// out\n        /* \"#utility.yul\":12092:13487   */\n    tag_43:\n        /* \"#utility.yul\":12209:12246   */\n      tag_224\n        /* \"#utility.yul\":12242:12245   */\n      dup3\n        /* \"#utility.yul\":12209:12246   */\n      tag_53\n      jump\t// in\n    tag_224:\n        /* \"#utility.yul\":12311:12329   */\n      0xffffffffffffffff\n        /* \"#utility.yul\":12303:12309   */\n      dup2\n        /* \"#utility.yul\":12300:12330   */\n      gt\n        /* \"#utility.yul\":12297:12353   */\n      iszero\n      tag_225\n      jumpi\n        /* \"#utility.yul\":12333:12351   */\n      tag_226\n      tag_60\n      jump\t// in\n    tag_226:\n        /* \"#utility.yul\":12297:12353   */\n    tag_225:\n        /* \"#utility.yul\":12377:12415   */\n      tag_227\n        /* \"#utility.yul\":12409:12413   */\n      dup3\n        /* \"#utility.yul\":12403:12414   */\n      sload\n        /* \"#utility.yul\":12377:12415   */\n      tag_24\n      jump\t// in\n    tag_227:\n        /* \"#utility.yul\":12462:12529   */\n      tag_228\n        /* \"#utility.yul\":12522:12528   */\n      dup3\n        /* \"#utility.yul\":12514:12520   */\n      dup3\n        /* \"#utility.yul\":12508:12512   */\n      dup6\n        /* \"#utility.yul\":12462:12529   */\n      tag_85\n      jump\t// in\n    tag_228:\n        /* \"#utility.yul\":12556:12557   */\n      0x00\n        /* \"#utility.yul\":12580:12584   */\n      0x20\n        /* \"#utility.yul\":12567:12584   */\n      swap1\n      pop\n        /* \"#utility.yul\":12612:12614   */\n      0x1f\n        /* \"#utility.yul\":12604:12610   */\n      dup4\n        /* \"#utility.yul\":12601:12615   */\n      gt\n        /* \"#utility.yul\":12629:12630   */\n      0x01\n        /* \"#utility.yul\":12624:13242   */\n      dup2\n      eq\n      tag_230\n      jumpi\n        /* \"#utility.yul\":13286:13287   */\n      0x00\n        /* \"#utility.yul\":13303:13309   */\n      dup5\n        /* \"#utility.yul\":13300:13377   */\n      iszero\n      tag_231\n      jumpi\n        /* \"#utility.yul\":13352:13361   */\n      dup3\n        /* \"#utility.yul\":13347:13350   */\n      dup8\n        /* \"#utility.yul\":13343:13362   */\n      add\n        /* \"#utility.yul\":13337:13363   */\n      mload\n        /* \"#utility.yul\":13328:13363   */\n      swap1\n      pop\n        /* \"#utility.yul\":13300:13377   */\n    tag_231:\n        /* \"#utility.yul\":13403:13470   */\n      tag_232\n        /* \"#utility.yul\":13463:13469   */\n      dup6\n        /* \"#utility.yul\":13456:13461   */\n      dup3\n        /* \"#utility.yul\":13403:13470   */\n      tag_88\n      jump\t// in\n    tag_232:\n        /* \"#utility.yul\":13397:13401   */\n      dup7\n        /* \"#utility.yul\":13390:13471   */\n      sstore\n        /* \"#utility.yul\":13259:13481   */\n      pop\n        /* \"#utility.yul\":12594:13481   */\n      jump(tag_229)\n        /* \"#utility.yul\":12624:13242   */\n    tag_230:\n        /* \"#utility.yul\":12676:12680   */\n      0x1f\n        /* \"#utility.yul\":12672:12681   */\n      not\n        /* \"#utility.yul\":12664:12670   */\n      dup5\n        /* \"#utility.yul\":12660:12682   */\n      and\n        /* \"#utility.yul\":12710:12747   */\n      tag_233\n        /* \"#utility.yul\":12742:12746   */\n      dup7\n        /* \"#utility.yul\":12710:12747   */\n      tag_71\n      jump\t// in\n    tag_233:\n        /* \"#utility.yul\":12769:12770   */\n      0x00\n        /* \"#utility.yul\":12783:12991   */\n    tag_234:\n        /* \"#utility.yul\":12797:12804   */\n      dup3\n        /* \"#utility.yul\":12794:12795   */\n      dup2\n        /* \"#utility.yul\":12791:12805   */\n      lt\n        /* \"#utility.yul\":12783:12991   */\n      iszero\n      tag_236\n      jumpi\n        /* \"#utility.yul\":12876:12885   */\n      dup5\n        /* \"#utility.yul\":12871:12874   */\n      dup10\n        /* \"#utility.yul\":12867:12886   */\n      add\n        /* \"#utility.yul\":12861:12887   */\n      mload\n        /* \"#utility.yul\":12853:12859   */\n      dup3\n        /* \"#utility.yul\":12846:12888   */\n      sstore\n        /* \"#utility.yul\":12927:12928   */\n      0x01\n        /* \"#utility.yul\":12919:12925   */\n      dup3\n        /* \"#utility.yul\":12915:12929   */\n      add\n        /* \"#utility.yul\":12905:12929   */\n      swap2\n      pop\n        /* \"#utility.yul\":12974:12976   */\n      0x20\n        /* \"#utility.yul\":12963:12972   */\n      dup6\n        /* \"#utility.yul\":12959:12977   */\n      add\n        /* \"#utility.yul\":12946:12977   */\n      swap5\n      pop\n        /* \"#utility.yul\":12820:12824   */\n      0x20\n        /* \"#utility.yul\":12817:12818   */\n      dup2\n        /* \"#utility.yul\":12813:12825   */\n      add\n        /* \"#utility.yul\":12808:12825   */\n      swap1\n      pop\n        /* \"#utility.yul\":12783:12991   */\n      jump(tag_234)\n    tag_236:\n        /* \"#utility.yul\":13019:13025   */\n      dup7\n        /* \"#utility.yul\":13010:13017   */\n      dup4\n        /* \"#utility.yul\":13007:13026   */\n      lt\n        /* \"#utility.yul\":13004:13183   */\n      iszero\n      tag_237\n      jumpi\n        /* \"#utility.yul\":13077:13086   */\n      dup5\n        /* \"#utility.yul\":13072:13075   */\n      dup10\n        /* \"#utility.yul\":13068:13087   */\n      add\n        /* \"#utility.yul\":13062:13088   */\n      mload\n        /* \"#utility.yul\":13120:13168   */\n      tag_238\n        /* \"#utility.yul\":13162:13166   */\n      0x1f\n        /* \"#utility.yul\":13154:13160   */\n      dup10\n        /* \"#utility.yul\":13150:13167   */\n      and\n        /* \"#utility.yul\":13139:13148   */\n      dup3\n        /* \"#utility.yul\":13120:13168   */\n      tag_87\n      jump\t// in\n    tag_238:\n        /* \"#utility.yul\":13112:13118   */\n      dup4\n        /* \"#utility.yul\":13105:13169   */\n      sstore\n        /* \"#utility.yul\":13027:13183   */\n      pop\n        /* \"#utility.yul\":13004:13183   */\n    tag_237:\n        /* \"#utility.yul\":13229:13230   */\n      0x01\n        /* \"#utility.yul\":13225:13226   */\n      0x02\n        /* \"#utility.yul\":13217:13223   */\n      dup9\n        /* \"#utility.yul\":13213:13227   */\n      mul\n        /* \"#utility.yul\":13209:13231   */\n      add\n        /* \"#utility.yul\":13203:13207   */\n      dup9\n        /* \"#utility.yul\":13196:13232   */\n      sstore\n        /* \"#utility.yul\":12631:13242   */\n      pop\n      pop\n      pop\n        /* \"#utility.yul\":12594:13481   */\n    tag_229:\n      pop\n        /* \"#utility.yul\":12184:13487   */\n      pop\n      pop\n      pop\n        /* \"#utility.yul\":12092:13487   */\n      pop\n      pop\n      jump\t// out\n\n    auxdata: 0xa2646970667358221220a0a6af492bbef18316e4ae4781a1de26b43bec82f74d8a2342105778480e3e3964736f6c63430008120033\n}\n",
				"bytecode": {
					"linkReferences": {},
					"object": "60806040523480156200001157600080fd5b506040516200113b3803806200113b8339818101604052810190620000379190620001f6565b8160019081620000489190620004c6565b5080600290816200005a9190620004c6565b505050620005ad565b6000604051905090565b600080fd5b600080fd5b600080fd5b600080fd5b6000601f19601f8301169050919050565b7f4e487b7100000000000000000000000000000000000000000000000000000000600052604160045260246000fd5b620000cc8262000081565b810181811067ffffffffffffffff82111715620000ee57620000ed62000092565b5b80604052505050565b60006200010362000063565b9050620001118282620000c1565b919050565b600067ffffffffffffffff82111562000134576200013362000092565b5b6200013f8262000081565b9050602081019050919050565b60005b838110156200016c5780820151818401526020810190506200014f565b60008484015250505050565b60006200018f620001898462000116565b620000f7565b905082815260208101848484011115620001ae57620001ad6200007c565b5b620001bb8482856200014c565b509392505050565b600082601f830112620001db57620001da62000077565b5b8151620001ed84826020860162000178565b91505092915050565b6000806040838503121562000210576200020f6200006d565b5b600083015167ffffffffffffffff81111562000231576200023062000072565b5b6200023f85828601620001c3565b925050602083015167ffffffffffffffff81111562000263576200026262000072565b5b6200027185828601620001c3565b9150509250929050565b600081519050919050565b7f4e487b7100000000000000000000000000000000000000000000000000000000600052602260045260246000fd5b60006002820490506001821680620002ce57607f821691505b602082108103620002e457620002e362000286565b5b50919050565b60008190508160005260206000209050919050565b60006020601f8301049050919050565b600082821b905092915050565b6000600883026200034e7fffffffffffffffffffffffffffffffffffffffffffffffffffffffffffffffff826200030f565b6200035a86836200030f565b95508019841693508086168417925050509392505050565b6000819050919050565b6000819050919050565b6000620003a7620003a16200039b8462000372565b6200037c565b62000372565b9050919050565b6000819050919050565b620003c38362000386565b620003db620003d282620003ae565b8484546200031c565b825550505050565b600090565b620003f2620003e3565b620003ff818484620003b8565b505050565b5b8181101562000427576200041b600082620003e8565b60018101905062000405565b5050565b601f82111562000476576200044081620002ea565b6200044b84620002ff565b810160208510156200045b578190505b620004736200046a85620002ff565b83018262000404565b50505b505050565b600082821c905092915050565b60006200049b600019846008026200047b565b1980831691505092915050565b6000620004b6838362000488565b9150826002028217905092915050565b620004d1826200027b565b67ffffffffffffffff811115620004ed57620004ec62000092565b5b620004f98254620002b5565b620005068282856200042b565b600060209050601f8311600181146200053e576000841562000529578287015190505b620005358582620004a8565b865550620005a5565b601f1984166200054e86620002ea565b60005b82811015620005785784890151825560018201915060208501945060208101905062000551565b8683101562000598578489015162000594601f89168262000488565b8355505b6001600288020188555050505b505050505050565b610b7e80620005bd6000396000f3fe608060405234801561001057600080fd5b50600436106100415760003560e01c8063163f7522146100465780631bca2b311461007657806340b2d3af146100a6575b600080fd5b610060600480360381019061005b9190610474565b6100c2565b60405161006d91906104bc565b60405180910390f35b610090600480360381019061008b9190610474565b610118565b60405161009d9190610567565b60405180910390f35b6100c060048036038101906100bb91906106be565b6101e8565b005b6000600360008373ffffffffffffffffffffffffffffffffffffffff1673ffffffffffffffffffffffffffffffffffffffff16815260200190815260200160002060009054906101000a900460ff169050919050565b60606000808373ffffffffffffffffffffffffffffffffffffffff1673ffffffffffffffffffffffffffffffffffffffff168152602001908152602001600020805461016390610736565b80601f016020809104026020016040519081016040528092919081815260200182805461018f90610736565b80156101dc5780601f106101b1576101008083540402835291602001916101dc565b820191906000526020600020905b8154815290600101906020018083116101bf57829003601f168201915b50505050509050919050565b600360003373ffffffffffffffffffffffffffffffffffffffff1673ffffffffffffffffffffffffffffffffffffffff16815260200190815260200160002060009054906101000a900460ff1615610275576040517f08c379a000000000000000000000000000000000000000000000000000000000815260040161026c906107b3565b60405180910390fd5b60016040516020016102879190610876565b60405160208183030381529060405280519060200120816040516020016102ae91906108be565b60405160208183030381529060405280519060200120148061031c575060026040516020016102dd9190610876565b604051602081830303815290604052805190602001208160405160200161030491906108be565b60405160208183030381529060405280519060200120145b61035b576040517f08c379a0000000000000000000000000000000000000000000000000000000008152600401610352906107b3565b60405180910390fd5b6001600360003373ffffffffffffffffffffffffffffffffffffffff1673ffffffffffffffffffffffffffffffffffffffff16815260200190815260200160002060006101000a81548160ff021916908315150217905550806000803373ffffffffffffffffffffffffffffffffffffffff1673ffffffffffffffffffffffffffffffffffffffff16815260200190815260200160002090816103fe9190610a76565b5050565b6000604051905090565b600080fd5b600080fd5b600073ffffffffffffffffffffffffffffffffffffffff82169050919050565b600061044182610416565b9050919050565b61045181610436565b811461045c57600080fd5b50565b60008135905061046e81610448565b92915050565b60006020828403121561048a5761048961040c565b5b60006104988482850161045f565b91505092915050565b60008115159050919050565b6104b6816104a1565b82525050565b60006020820190506104d160008301846104ad565b92915050565b600081519050919050565b600082825260208201905092915050565b60005b838110156105115780820151818401526020810190506104f6565b60008484015250505050565b6000601f19601f8301169050919050565b6000610539826104d7565b61054381856104e2565b93506105538185602086016104f3565b61055c8161051d565b840191505092915050565b60006020820190508181036000830152610581818461052e565b905092915050565b600080fd5b600080fd5b7f4e487b7100000000000000000000000000000000000000000000000000000000600052604160045260246000fd5b6105cb8261051d565b810181811067ffffffffffffffff821117156105ea576105e9610593565b5b80604052505050565b60006105fd610402565b905061060982826105c2565b919050565b600067ffffffffffffffff82111561062957610628610593565b5b6106328261051d565b9050602081019050919050565b82818337600083830152505050565b600061066161065c8461060e565b6105f3565b90508281526020810184848401111561067d5761067c61058e565b5b61068884828561063f565b509392505050565b600082601f8301126106a5576106a4610589565b5b81356106b584826020860161064e565b91505092915050565b6000602082840312156106d4576106d361040c565b5b600082013567ffffffffffffffff8111156106f2576106f1610411565b5b6106fe84828501610690565b91505092915050565b7f4e487b7100000000000000000000000000000000000000000000000000000000600052602260045260246000fd5b6000600282049050600182168061074e57607f821691505b60208210810361076157610760610707565b5b50919050565b7f5573657220616c72656164792052656769737465726564000000000000000000600082015250565b600061079d6017836104e2565b91506107a882610767565b602082019050919050565b600060208201905081810360008301526107cc81610790565b9050919050565b600081905092915050565b60008190508160005260206000209050919050565b6000815461080081610736565b61080a81866107d3565b94506001821660008114610825576001811461083a5761086d565b60ff198316865281151582028601935061086d565b610843856107de565b60005b8381101561086557815481890152600182019150602081019050610846565b838801955050505b50505092915050565b600061088282846107f3565b915081905092915050565b6000610898826104d7565b6108a281856107d3565b93506108b28185602086016104f3565b80840191505092915050565b60006108ca828461088d565b915081905092915050565b60006020601f8301049050919050565b600082821b905092915050565b6000600883026109227fffffffffffffffffffffffffffffffffffffffffffffffffffffffffffffffff826108e5565b61092c86836108e5565b95508019841693508086168417925050509392505050565b6000819050919050565b6000819050919050565b600061097361096e61096984610944565b61094e565b610944565b9050919050565b6000819050919050565b61098d83610958565b6109a16109998261097a565b8484546108f2565b825550505050565b600090565b6109b66109a9565b6109c1818484610984565b505050565b5b818110156109e5576109da6000826109ae565b6001810190506109c7565b5050565b601f821115610a2a576109fb816107de565b610a04846108d5565b81016020851015610a13578190505b610a27610a1f856108d5565b8301826109c6565b50505b505050565b600082821c905092915050565b6000610a4d60001984600802610a2f565b1980831691505092915050565b6000610a668383610a3c565b9150826002028217905092915050565b610a7f826104d7565b67ffffffffffffffff811115610a9857610a97610593565b5b610aa28254610736565b610aad8282856109e9565b600060209050601f831160018114610ae05760008415610ace578287015190505b610ad88582610a5a565b865550610b40565b601f198416610aee866107de565b60005b82811015610b1657848901518255600182019150602085019450602081019050610af1565b86831015610b335784890151610b2f601f891682610a3c565b8355505b6001600288020188555050505b50505050505056fea2646970667358221220a0a6af492bbef18316e4ae4781a1de26b43bec82f74d8a2342105778480e3e3964736f6c63430008120033",
					"opcodes": "PUSH1 0x80 PUSH1 0x40 MSTORE CALLVALUE DUP1 ISZERO PUSH3 0x11 JUMPI PUSH1 0x0 DUP1 REVERT JUMPDEST POP PUSH1 0x40 MLOAD PUSH3 0x113B CODESIZE SUB DUP1 PUSH3 0x113B DUP4 CODECOPY DUP2 DUP2 ADD PUSH1 0x40 MSTORE DUP2 ADD SWAP1 PUSH3 0x37 SWAP2 SWAP1 PUSH3 0x1F6 JUMP JUMPDEST DUP2 PUSH1 0x1 SWAP1 DUP2 PUSH3 0x48 SWAP2 SWAP1 PUSH3 0x4C6 JUMP JUMPDEST POP DUP1 PUSH1 0x2 SWAP1 DUP2 PUSH3 0x5A SWAP2 SWAP1 PUSH3 0x4C6 JUMP JUMPDEST POP POP POP PUSH3 0x5AD JUMP JUMPDEST PUSH1 0x0 PUSH1 0x40 MLOAD SWAP1 POP SWAP1 JUMP JUMPDEST PUSH1 0x0 DUP1 REVERT JUMPDEST PUSH1 0x0 DUP1 REVERT JUMPDEST PUSH1 0x0 DUP1 REVERT JUMPDEST PUSH1 0x0 DUP1 REVERT JUMPDEST PUSH1 0x0 PUSH1 0x1F NOT PUSH1 0x1F DUP4 ADD AND SWAP1 POP SWAP2 SWAP1 POP JUMP JUMPDEST PUSH32 0x4E487B7100000000000000000000000000000000000000000000000000000000 PUSH1 0x0 MSTORE PUSH1 0x41 PUSH1 0x4 MSTORE PUSH1 0x24 PUSH1 0x0 REVERT JUMPDEST PUSH3 0xCC DUP3 PUSH3 0x81 JUMP JUMPDEST DUP2 ADD DUP2 DUP2 LT PUSH8 0xFFFFFFFFFFFFFFFF DUP3 GT OR ISZERO PUSH3 0xEE JUMPI PUSH3 0xED PUSH3 0x92 JUMP JUMPDEST JUMPDEST DUP1 PUSH1 0x40 MSTORE POP POP POP JUMP JUMPDEST PUSH1 0x0 PUSH3 0x103 PUSH3 0x63 JUMP JUMPDEST SWAP1 POP PUSH3 0x111 DUP3 DUP3 PUSH3 0xC1 JUMP JUMPDEST SWAP2 SWAP1 POP JUMP JUMPDEST PUSH1 0x0 PUSH8 0xFFFFFFFFFFFFFFFF DUP3 GT ISZERO PUSH3 0x134 JUMPI PUSH3 0x133 PUSH3 0x92 JUMP JUMPDEST JUMPDEST PUSH3 0x13F DUP3 PUSH3 0x81 JUMP JUMPDEST SWAP1 POP PUSH1 0x20 DUP2 ADD SWAP1 POP SWAP2 SWAP1 POP JUMP JUMPDEST PUSH1 0x0 JUMPDEST DUP4 DUP2 LT ISZERO PUSH3 0x16C JUMPI DUP1 DUP3 ADD MLOAD DUP2 DUP5 ADD MSTORE PUSH1 0x20 DUP2 ADD SWAP1 POP PUSH3 0x14F JUMP JUMPDEST PUSH1 0x0 DUP5 DUP5 ADD MSTORE POP POP POP POP JUMP JUMPDEST PUSH1 0x0 PUSH3 0x18F PUSH3 0x189 DUP5 PUSH3 0x116 JUMP JUMPDEST PUSH3 0xF7 JUMP JUMPDEST SWAP1 POP DUP3 DUP2 MSTORE PUSH1 0x20 DUP2 ADD DUP5 DUP5 DUP5 ADD GT ISZERO PUSH3 0x1AE JUMPI PUSH3 0x1AD PUSH3 0x7C JUMP JUMPDEST JUMPDEST PUSH3 0x1BB DUP5 DUP3 DUP6 PUSH3 0x14C JUMP JUMPDEST POP SWAP4 SWAP3 POP POP POP JUMP JUMPDEST PUSH1 0x0 DUP3 PUSH1 0x1F DUP4 ADD SLT PUSH3 0x1DB JUMPI PUSH3 0x1DA PUSH3 0x77 JUMP JUMPDEST JUMPDEST DUP2 MLOAD PUSH3 0x1ED DUP5 DUP3 PUSH1 0x20 DUP7 ADD PUSH3 0x178 JUMP JUMPDEST SWAP2 POP POP SWAP3 SWAP2 POP POP JUMP JUMPDEST PUSH1 0x0 DUP1 PUSH1 0x40 DUP4 DUP6 SUB SLT ISZERO PUSH3 0x210 JUMPI PUSH3 0x20F PUSH3 0x6D JUMP JUMPDEST JUMPDEST PUSH1 0x0 DUP4 ADD MLOAD PUSH8 0xFFFFFFFFFFFFFFFF DUP2 GT ISZERO PUSH3 0x231 JUMPI PUSH3 0x230 PUSH3 0x72 JUMP JUMPDEST JUMPDEST PUSH3 0x23F DUP6 DUP3 DUP7 ADD PUSH3 0x1C3 JUMP JUMPDEST SWAP3 POP POP PUSH1 0x20 DUP4 ADD MLOAD PUSH8 0xFFFFFFFFFFFFFFFF DUP2 GT ISZERO PUSH3 0x263 JUMPI PUSH3 0x262 PUSH3 0x72 JUMP JUMPDEST JUMPDEST PUSH3 0x271 DUP6 DUP3 DUP7 ADD PUSH3 0x1C3 JUMP JUMPDEST SWAP2 POP POP SWAP3 POP SWAP3 SWAP1 POP JUMP JUMPDEST PUSH1 0x0 DUP2 MLOAD SWAP1 POP SWAP2 SWAP1 POP JUMP JUMPDEST PUSH32 0x4E487B7100000000000000000000000000000000000000000000000000000000 PUSH1 0x0 MSTORE PUSH1 0x22 PUSH1 0x4 MSTORE PUSH1 0x24 PUSH1 0x0 REVERT JUMPDEST PUSH1 0x0 PUSH1 0x2 DUP3 DIV SWAP1 POP PUSH1 0x1 DUP3 AND DUP1 PUSH3 0x2CE JUMPI PUSH1 0x7F DUP3 AND SWAP2 POP JUMPDEST PUSH1 0x20 DUP3 LT DUP2 SUB PUSH3 0x2E4 JUMPI PUSH3 0x2E3 PUSH3 0x286 JUMP JUMPDEST JUMPDEST POP SWAP2 SWAP1 POP JUMP JUMPDEST PUSH1 0x0 DUP2 SWAP1 POP DUP2 PUSH1 0x0 MSTORE PUSH1 0x20 PUSH1 0x0 KECCAK256 SWAP1 POP SWAP2 SWAP1 POP JUMP JUMPDEST PUSH1 0x0 PUSH1 0x20 PUSH1 0x1F DUP4 ADD DIV SWAP1 POP SWAP2 SWAP1 POP JUMP JUMPDEST PUSH1 0x0 DUP3 DUP3 SHL SWAP1 POP SWAP3 SWAP2 POP POP JUMP JUMPDEST PUSH1 0x0 PUSH1 0x8 DUP4 MUL PUSH3 0x34E PUSH32 0xFFFFFFFFFFFFFFFFFFFFFFFFFFFFFFFFFFFFFFFFFFFFFFFFFFFFFFFFFFFFFFFF DUP3 PUSH3 0x30F JUMP JUMPDEST PUSH3 0x35A DUP7 DUP4 PUSH3 0x30F JUMP JUMPDEST SWAP6 POP DUP1 NOT DUP5 AND SWAP4 POP DUP1 DUP7 AND DUP5 OR SWAP3 POP POP POP SWAP4 SWAP3 POP POP POP JUMP JUMPDEST PUSH1 0x0 DUP2 SWAP1 POP SWAP2 SWAP1 POP JUMP JUMPDEST PUSH1 0x0 DUP2 SWAP1 POP SWAP2 SWAP1 POP JUMP JUMPDEST PUSH1 0x0 PUSH3 0x3A7 PUSH3 0x3A1 PUSH3 0x39B DUP5 PUSH3 0x372 JUMP JUMPDEST PUSH3 0x37C JUMP JUMPDEST PUSH3 0x372 JUMP JUMPDEST SWAP1 POP SWAP2 SWAP1 POP JUMP JUMPDEST PUSH1 0x0 DUP2 SWAP1 POP SWAP2 SWAP1 POP JUMP JUMPDEST PUSH3 0x3C3 DUP4 PUSH3 0x386 JUMP JUMPDEST PUSH3 0x3DB PUSH3 0x3D2 DUP3 PUSH3 0x3AE JUMP JUMPDEST DUP5 DUP5 SLOAD PUSH3 0x31C JUMP JUMPDEST DUP3 SSTORE POP POP POP POP JUMP JUMPDEST PUSH1 0x0 SWAP1 JUMP JUMPDEST PUSH3 0x3F2 PUSH3 0x3E3 JUMP JUMPDEST PUSH3 0x3FF DUP2 DUP5 DUP5 PUSH3 0x3B8 JUMP JUMPDEST POP POP POP JUMP JUMPDEST JUMPDEST DUP2 DUP2 LT ISZERO PUSH3 0x427 JUMPI PUSH3 0x41B PUSH1 0x0 DUP3 PUSH3 0x3E8 JUMP JUMPDEST PUSH1 0x1 DUP2 ADD SWAP1 POP PUSH3 0x405 JUMP JUMPDEST POP POP JUMP JUMPDEST PUSH1 0x1F DUP3 GT ISZERO PUSH3 0x476 JUMPI PUSH3 0x440 DUP2 PUSH3 0x2EA JUMP JUMPDEST PUSH3 0x44B DUP5 PUSH3 0x2FF JUMP JUMPDEST DUP2 ADD PUSH1 0x20 DUP6 LT ISZERO PUSH3 0x45B JUMPI DUP2 SWAP1 POP JUMPDEST PUSH3 0x473 PUSH3 0x46A DUP6 PUSH3 0x2FF JUMP JUMPDEST DUP4 ADD DUP3 PUSH3 0x404 JUMP JUMPDEST POP POP JUMPDEST POP POP POP JUMP JUMPDEST PUSH1 0x0 DUP3 DUP3 SHR SWAP1 POP SWAP3 SWAP2 POP POP JUMP JUMPDEST PUSH1 0x0 PUSH3 0x49B PUSH1 0x0 NOT DUP5 PUSH1 0x8 MUL PUSH3 0x47B JUMP JUMPDEST NOT DUP1 DUP4 AND SWAP2 POP POP SWAP3 SWAP2 POP POP JUMP JUMPDEST PUSH1 0x0 PUSH3 0x4B6 DUP4 DUP4 PUSH3 0x488 JUMP JUMPDEST SWAP2 POP DUP3 PUSH1 0x2 MUL DUP3 OR SWAP1 POP SWAP3 SWAP2 POP POP JUMP JUMPDEST PUSH3 0x4D1 DUP3 PUSH3 0x27B JUMP JUMPDEST PUSH8 0xFFFFFFFFFFFFFFFF DUP2 GT ISZERO PUSH3 0x4ED JUMPI PUSH3 0x4EC PUSH3 0x92 JUMP JUMPDEST JUMPDEST PUSH3 0x4F9 DUP3 SLOAD PUSH3 0x2B5 JUMP JUMPDEST PUSH3 0x506 DUP3 DUP3 DUP6 PUSH3 0x42B JUMP JUMPDEST PUSH1 0x0 PUSH1 0x20 SWAP1 POP PUSH1 0x1F DUP4 GT PUSH1 0x1 DUP2 EQ PUSH3 0x53E JUMPI PUSH1 0x0 DUP5 ISZERO PUSH3 0x529 JUMPI DUP3 DUP8 ADD MLOAD SWAP1 POP JUMPDEST PUSH3 0x535 DUP6 DUP3 PUSH3 0x4A8 JUMP JUMPDEST DUP7 SSTORE POP PUSH3 0x5A5 JUMP JUMPDEST PUSH1 0x1F NOT DUP5 AND PUSH3 0x54E DUP7 PUSH3 0x2EA JUMP JUMPDEST PUSH1 0x0 JUMPDEST DUP3 DUP2 LT ISZERO PUSH3 0x578 JUMPI DUP5 DUP10 ADD MLOAD DUP3 SSTORE PUSH1 0x1 DUP3 ADD SWAP2 POP PUSH1 0x20 DUP6 ADD SWAP5 POP PUSH1 0x20 DUP2 ADD SWAP1 POP PUSH3 0x551 JUMP JUMPDEST DUP7 DUP4 LT ISZERO PUSH3 0x598 JUMPI DUP5 DUP10 ADD MLOAD PUSH3 0x594 PUSH1 0x1F DUP10 AND DUP3 PUSH3 0x488 JUMP JUMPDEST DUP4 SSTORE POP JUMPDEST PUSH1 0x1 PUSH1 0x2 DUP9 MUL ADD DUP9 SSTORE POP POP POP JUMPDEST POP POP POP POP POP POP JUMP JUMPDEST PUSH2 0xB7E DUP1 PUSH3 0x5BD PUSH1 0x0 CODECOPY PUSH1 0x0 RETURN INVALID PUSH1 0x80 PUSH1 0x40 MSTORE CALLVALUE DUP1 ISZERO PUSH2 0x10 JUMPI PUSH1 0x0 DUP1 REVERT JUMPDEST POP PUSH1 0x4 CALLDATASIZE LT PUSH2 0x41 JUMPI PUSH1 0x0 CALLDATALOAD PUSH1 0xE0 SHR DUP1 PUSH4 0x163F7522 EQ PUSH2 0x46 JUMPI DUP1 PUSH4 0x1BCA2B31 EQ PUSH2 0x76 JUMPI DUP1 PUSH4 0x40B2D3AF EQ PUSH2 0xA6 JUMPI JUMPDEST PUSH1 0x0 DUP1 REVERT JUMPDEST PUSH2 0x60 PUSH1 0x4 DUP1 CALLDATASIZE SUB DUP2 ADD SWAP1 PUSH2 0x5B SWAP2 SWAP1 PUSH2 0x474 JUMP JUMPDEST PUSH2 0xC2 JUMP JUMPDEST PUSH1 0x40 MLOAD PUSH2 0x6D SWAP2 SWAP1 PUSH2 0x4BC JUMP JUMPDEST PUSH1 0x40 MLOAD DUP1 SWAP2 SUB SWAP1 RETURN JUMPDEST PUSH2 0x90 PUSH1 0x4 DUP1 CALLDATASIZE SUB DUP2 ADD SWAP1 PUSH2 0x8B SWAP2 SWAP1 PUSH2 0x474 JUMP JUMPDEST PUSH2 0x118 JUMP JUMPDEST PUSH1 0x40 MLOAD PUSH2 0x9D SWAP2 SWAP1 PUSH2 0x567 JUMP JUMPDEST PUSH1 0x40 MLOAD DUP1 SWAP2 SUB SWAP1 RETURN JUMPDEST PUSH2 0xC0 PUSH1 0x4 DUP1 CALLDATASIZE SUB DUP2 ADD SWAP1 PUSH2 0xBB SWAP2 SWAP1 PUSH2 0x6BE JUMP JUMPDEST PUSH2 0x1E8 JUMP JUMPDEST STOP JUMPDEST PUSH1 0x0 PUSH1 0x3 PUSH1 0x0 DUP4 PUSH20 0xFFFFFFFFFFFFFFFFFFFFFFFFFFFFFFFFFFFFFFFF AND PUSH20 0xFFFFFFFFFFFFFFFFFFFFFFFFFFFFFFFFFFFFFFFF AND DUP2 MSTORE PUSH1 0x20 ADD SWAP1 DUP2 MSTORE PUSH1 0x20 ADD PUSH1 0x0 KECCAK256 PUSH1 0x0 SWAP1 SLOAD SWAP1 PUSH2 0x100 EXP SWAP1 DIV PUSH1 0xFF AND SWAP1 POP SWAP2 SWAP1 POP JUMP JUMPDEST PUSH1 0x60 PUSH1 0x0 DUP1 DUP4 PUSH20 0xFFFFFFFFFFFFFFFFFFFFFFFFFFFFFFFFFFFFFFFF AND PUSH20 0xFFFFFFFFFFFFFFFFFFFFFFFFFFFFFFFFFFFFFFFF AND DUP2 MSTORE PUSH1 0x20 ADD SWAP1 DUP2 MSTORE PUSH1 0x20 ADD PUSH1 0x0 KECCAK256 DUP1 SLOAD PUSH2 0x163 SWAP1 PUSH2 0x736 JUMP JUMPDEST DUP1 PUSH1 0x1F ADD PUSH1 0x20 DUP1 SWAP2 DIV MUL PUSH1 0x20 ADD PUSH1 0x40 MLOAD SWAP1 DUP2 ADD PUSH1 0x40 MSTORE DUP1 SWAP3 SWAP2 SWAP1 DUP2 DUP2 MSTORE PUSH1 0x20 ADD DUP3 DUP1 SLOAD PUSH2 0x18F SWAP1 PUSH2 0x736 JUMP JUMPDEST DUP1 ISZERO PUSH2 0x1DC JUMPI DUP1 PUSH1 0x1F LT PUSH2 0x1B1 JUMPI PUSH2 0x100 DUP1 DUP4 SLOAD DIV MUL DUP4 MSTORE SWAP2 PUSH1 0x20 ADD SWAP2 PUSH2 0x1DC JUMP JUMPDEST DUP3 ADD SWAP2 SWAP1 PUSH1 0x0 MSTORE PUSH1 0x20 PUSH1 0x0 KECCAK256 SWAP1 JUMPDEST DUP2 SLOAD DUP2 MSTORE SWAP1 PUSH1 0x1 ADD SWAP1 PUSH1 0x20 ADD DUP1 DUP4 GT PUSH2 0x1BF JUMPI DUP3 SWAP1 SUB PUSH1 0x1F AND DUP3 ADD SWAP2 JUMPDEST POP POP POP POP POP SWAP1 POP SWAP2 SWAP1 POP JUMP JUMPDEST PUSH1 0x3 PUSH1 0x0 CALLER PUSH20 0xFFFFFFFFFFFFFFFFFFFFFFFFFFFFFFFFFFFFFFFF AND PUSH20 0xFFFFFFFFFFFFFFFFFFFFFFFFFFFFFFFFFFFFFFFF AND DUP2 MSTORE PUSH1 0x20 ADD SWAP1 DUP2 MSTORE PUSH1 0x20 ADD PUSH1 0x0 KECCAK256 PUSH1 0x0 SWAP1 SLOAD SWAP1 PUSH2 0x100 EXP SWAP1 DIV PUSH1 0xFF AND ISZERO PUSH2 0x275 JUMPI PUSH1 0x40 MLOAD PUSH32 0x8C379A000000000000000000000000000000000000000000000000000000000 DUP2 MSTORE PUSH1 0x4 ADD PUSH2 0x26C SWAP1 PUSH2 0x7B3 JUMP JUMPDEST PUSH1 0x40 MLOAD DUP1 SWAP2 SUB SWAP1 REVERT JUMPDEST PUSH1 0x1 PUSH1 0x40 MLOAD PUSH1 0x20 ADD PUSH2 0x287 SWAP2 SWAP1 PUSH2 0x876 JUMP JUMPDEST PUSH1 0x40 MLOAD PUSH1 0x20 DUP2 DUP4 SUB SUB DUP2 MSTORE SWAP1 PUSH1 0x40 MSTORE DUP1 MLOAD SWAP1 PUSH1 0x20 ADD KECCAK256 DUP2 PUSH1 0x40 MLOAD PUSH1 0x20 ADD PUSH2 0x2AE SWAP2 SWAP1 PUSH2 0x8BE JUMP JUMPDEST PUSH1 0x40 MLOAD PUSH1 0x20 DUP2 DUP4 SUB SUB DUP2 MSTORE SWAP1 PUSH1 0x40 MSTORE DUP1 MLOAD SWAP1 PUSH1 0x20 ADD KECCAK256 EQ DUP1 PUSH2 0x31C JUMPI POP PUSH1 0x2 PUSH1 0x40 MLOAD PUSH1 0x20 ADD PUSH2 0x2DD SWAP2 SWAP1 PUSH2 0x876 JUMP JUMPDEST PUSH1 0x40 MLOAD PUSH1 0x20 DUP2 DUP4 SUB SUB DUP2 MSTORE SWAP1 PUSH1 0x40 MSTORE DUP1 MLOAD SWAP1 PUSH1 0x20 ADD KECCAK256 DUP2 PUSH1 0x40 MLOAD PUSH1 0x20 ADD PUSH2 0x304 SWAP2 SWAP1 PUSH2 0x8BE JUMP JUMPDEST PUSH1 0x40 MLOAD PUSH1 0x20 DUP2 DUP4 SUB SUB DUP2 MSTORE SWAP1 PUSH1 0x40 MSTORE DUP1 MLOAD SWAP1 PUSH1 0x20 ADD KECCAK256 EQ JUMPDEST PUSH2 0x35B JUMPI PUSH1 0x40 MLOAD PUSH32 0x8C379A000000000000000000000000000000000000000000000000000000000 DUP2 MSTORE PUSH1 0x4 ADD PUSH2 0x352 SWAP1 PUSH2 0x7B3 JUMP JUMPDEST PUSH1 0x40 MLOAD DUP1 SWAP2 SUB SWAP1 REVERT JUMPDEST PUSH1 0x1 PUSH1 0x3 PUSH1 0x0 CALLER PUSH20 0xFFFFFFFFFFFFFFFFFFFFFFFFFFFFFFFFFFFFFFFF AND PUSH20 0xFFFFFFFFFFFFFFFFFFFFFFFFFFFFFFFFFFFFFFFF AND DUP2 MSTORE PUSH1 0x20 ADD SWAP1 DUP2 MSTORE PUSH1 0x20 ADD PUSH1 0x0 KECCAK256 PUSH1 0x0 PUSH2 0x100 EXP DUP2 SLOAD DUP2 PUSH1 0xFF MUL NOT AND SWAP1 DUP4 ISZERO ISZERO MUL OR SWAP1 SSTORE POP DUP1 PUSH1 0x0 DUP1 CALLER PUSH20 0xFFFFFFFFFFFFFFFFFFFFFFFFFFFFFFFFFFFFFFFF AND PUSH20 0xFFFFFFFFFFFFFFFFFFFFFFFFFFFFFFFFFFFFFFFF AND DUP2 MSTORE PUSH1 0x20 ADD SWAP1 DUP2 MSTORE PUSH1 0x20 ADD PUSH1 0x0 KECCAK256 SWAP1 DUP2 PUSH2 0x3FE SWAP2 SWAP1 PUSH2 0xA76 JUMP JUMPDEST POP POP JUMP JUMPDEST PUSH1 0x0 PUSH1 0x40 MLOAD SWAP1 POP SWAP1 JUMP JUMPDEST PUSH1 0x0 DUP1 REVERT JUMPDEST PUSH1 0x0 DUP1 REVERT JUMPDEST PUSH1 0x0 PUSH20 0xFFFFFFFFFFFFFFFFFFFFFFFFFFFFFFFFFFFFFFFF DUP3 AND SWAP1 POP SWAP2 SWAP1 POP JUMP JUMPDEST PUSH1 0x0 PUSH2 0x441 DUP3 PUSH2 0x416 JUMP JUMPDEST SWAP1 POP SWAP2 SWAP1 POP JUMP JUMPDEST PUSH2 0x451 DUP2 PUSH2 0x436 JUMP JUMPDEST DUP2 EQ PUSH2 0x45C JUMPI PUSH1 0x0 DUP1 REVERT JUMPDEST POP JUMP JUMPDEST PUSH1 0x0 DUP2 CALLDATALOAD SWAP1 POP PUSH2 0x46E DUP2 PUSH2 0x448 JUMP JUMPDEST SWAP3 SWAP2 POP POP JUMP JUMPDEST PUSH1 0x0 PUSH1 0x20 DUP3 DUP5 SUB SLT ISZERO PUSH2 0x48A JUMPI PUSH2 0x489 PUSH2 0x40C JUMP JUMPDEST JUMPDEST PUSH1 0x0 PUSH2 0x498 DUP5 DUP3 DUP6 ADD PUSH2 0x45F JUMP JUMPDEST SWAP2 POP POP SWAP3 SWAP2 POP POP JUMP JUMPDEST PUSH1 0x0 DUP2 ISZERO ISZERO SWAP1 POP SWAP2 SWAP1 POP JUMP JUMPDEST PUSH2 0x4B6 DUP2 PUSH2 0x4A1 JUMP JUMPDEST DUP3 MSTORE POP POP JUMP JUMPDEST PUSH1 0x0 PUSH1 0x20 DUP3 ADD SWAP1 POP PUSH2 0x4D1 PUSH1 0x0 DUP4 ADD DUP5 PUSH2 0x4AD JUMP JUMPDEST SWAP3 SWAP2 POP POP JUMP JUMPDEST PUSH1 0x0 DUP2 MLOAD SWAP1 POP SWAP2 SWAP1 POP JUMP JUMPDEST PUSH1 0x0 DUP3 DUP3 MSTORE PUSH1 0x20 DUP3 ADD SWAP1 POP SWAP3 SWAP2 POP POP JUMP JUMPDEST PUSH1 0x0 JUMPDEST DUP4 DUP2 LT ISZERO PUSH2 0x511 JUMPI DUP1 DUP3 ADD MLOAD DUP2 DUP5 ADD MSTORE PUSH1 0x20 DUP2 ADD SWAP1 POP PUSH2 0x4F6 JUMP JUMPDEST PUSH1 0x0 DUP5 DUP5 ADD MSTORE POP POP POP POP JUMP JUMPDEST PUSH1 0x0 PUSH1 0x1F NOT PUSH1 0x1F DUP4 ADD AND SWAP1 POP SWAP2 SWAP1 POP JUMP JUMPDEST PUSH1 0x0 PUSH2 0x539 DUP3 PUSH2 0x4D7 JUMP JUMPDEST PUSH2 0x543 DUP2 DUP6 PUSH2 0x4E2 JUMP JUMPDEST SWAP4 POP PUSH2 0x553 DUP2 DUP6 PUSH1 0x20 DUP7 ADD PUSH2 0x4F3 JUMP JUMPDEST PUSH2 0x55C DUP2 PUSH2 0x51D JUMP JUMPDEST DUP5 ADD SWAP2 POP POP SWAP3 SWAP2 POP POP JUMP JUMPDEST PUSH1 0x0 PUSH1 0x20 DUP3 ADD SWAP1 POP DUP2 DUP2 SUB PUSH1 0x0 DUP4 ADD MSTORE PUSH2 0x581 DUP2 DUP5 PUSH2 0x52E JUMP JUMPDEST SWAP1 POP SWAP3 SWAP2 POP POP JUMP JUMPDEST PUSH1 0x0 DUP1 REVERT JUMPDEST PUSH1 0x0 DUP1 REVERT JUMPDEST PUSH32 0x4E487B7100000000000000000000000000000000000000000000000000000000 PUSH1 0x0 MSTORE PUSH1 0x41 PUSH1 0x4 MSTORE PUSH1 0x24 PUSH1 0x0 REVERT JUMPDEST PUSH2 0x5CB DUP3 PUSH2 0x51D JUMP JUMPDEST DUP2 ADD DUP2 DUP2 LT PUSH8 0xFFFFFFFFFFFFFFFF DUP3 GT OR ISZERO PUSH2 0x5EA JUMPI PUSH2 0x5E9 PUSH2 0x593 JUMP JUMPDEST JUMPDEST DUP1 PUSH1 0x40 MSTORE POP POP POP JUMP JUMPDEST PUSH1 0x0 PUSH2 0x5FD PUSH2 0x402 JUMP JUMPDEST SWAP1 POP PUSH2 0x609 DUP3 DUP3 PUSH2 0x5C2 JUMP JUMPDEST SWAP2 SWAP1 POP JUMP JUMPDEST PUSH1 0x0 PUSH8 0xFFFFFFFFFFFFFFFF DUP3 GT ISZERO PUSH2 0x629 JUMPI PUSH2 0x628 PUSH2 0x593 JUMP JUMPDEST JUMPDEST PUSH2 0x632 DUP3 PUSH2 0x51D JUMP JUMPDEST SWAP1 POP PUSH1 0x20 DUP2 ADD SWAP1 POP SWAP2 SWAP1 POP JUMP JUMPDEST DUP3 DUP2 DUP4 CALLDATACOPY PUSH1 0x0 DUP4 DUP4 ADD MSTORE POP POP POP JUMP JUMPDEST PUSH1 0x0 PUSH2 0x661 PUSH2 0x65C DUP5 PUSH2 0x60E JUMP JUMPDEST PUSH2 0x5F3 JUMP JUMPDEST SWAP1 POP DUP3 DUP2 MSTORE PUSH1 0x20 DUP2 ADD DUP5 DUP5 DUP5 ADD GT ISZERO PUSH2 0x67D JUMPI PUSH2 0x67C PUSH2 0x58E JUMP JUMPDEST JUMPDEST PUSH2 0x688 DUP5 DUP3 DUP6 PUSH2 0x63F JUMP JUMPDEST POP SWAP4 SWAP3 POP POP POP JUMP JUMPDEST PUSH1 0x0 DUP3 PUSH1 0x1F DUP4 ADD SLT PUSH2 0x6A5 JUMPI PUSH2 0x6A4 PUSH2 0x589 JUMP JUMPDEST JUMPDEST DUP2 CALLDATALOAD PUSH2 0x6B5 DUP5 DUP3 PUSH1 0x20 DUP7 ADD PUSH2 0x64E JUMP JUMPDEST SWAP2 POP POP SWAP3 SWAP2 POP POP JUMP JUMPDEST PUSH1 0x0 PUSH1 0x20 DUP3 DUP5 SUB SLT ISZERO PUSH2 0x6D4 JUMPI PUSH2 0x6D3 PUSH2 0x40C JUMP JUMPDEST JUMPDEST PUSH1 0x0 DUP3 ADD CALLDATALOAD PUSH8 0xFFFFFFFFFFFFFFFF DUP2 GT ISZERO PUSH2 0x6F2 JUMPI PUSH2 0x6F1 PUSH2 0x411 JUMP JUMPDEST JUMPDEST PUSH2 0x6FE DUP5 DUP3 DUP6 ADD PUSH2 0x690 JUMP JUMPDEST SWAP2 POP POP SWAP3 SWAP2 POP POP JUMP JUMPDEST PUSH32 0x4E487B7100000000000000000000000000000000000000000000000000000000 PUSH1 0x0 MSTORE PUSH1 0x22 PUSH1 0x4 MSTORE PUSH1 0x24 PUSH1 0x0 REVERT JUMPDEST PUSH1 0x0 PUSH1 0x2 DUP3 DIV SWAP1 POP PUSH1 0x1 DUP3 AND DUP1 PUSH2 0x74E JUMPI PUSH1 0x7F DUP3 AND SWAP2 POP JUMPDEST PUSH1 0x20 DUP3 LT DUP2 SUB PUSH2 0x761 JUMPI PUSH2 0x760 PUSH2 0x707 JUMP JUMPDEST JUMPDEST POP SWAP2 SWAP1 POP JUMP JUMPDEST PUSH32 0x5573657220616C72656164792052656769737465726564000000000000000000 PUSH1 0x0 DUP3 ADD MSTORE POP JUMP JUMPDEST PUSH1 0x0 PUSH2 0x79D PUSH1 0x17 DUP4 PUSH2 0x4E2 JUMP JUMPDEST SWAP2 POP PUSH2 0x7A8 DUP3 PUSH2 0x767 JUMP JUMPDEST PUSH1 0x20 DUP3 ADD SWAP1 POP SWAP2 SWAP1 POP JUMP JUMPDEST PUSH1 0x0 PUSH1 0x20 DUP3 ADD SWAP1 POP DUP2 DUP2 SUB PUSH1 0x0 DUP4 ADD MSTORE PUSH2 0x7CC DUP2 PUSH2 0x790 JUMP JUMPDEST SWAP1 POP SWAP2 SWAP1 POP JUMP JUMPDEST PUSH1 0x0 DUP2 SWAP1 POP SWAP3 SWAP2 POP POP JUMP JUMPDEST PUSH1 0x0 DUP2 SWAP1 POP DUP2 PUSH1 0x0 MSTORE PUSH1 0x20 PUSH1 0x0 KECCAK256 SWAP1 POP SWAP2 SWAP1 POP JUMP JUMPDEST PUSH1 0x0 DUP2 SLOAD PUSH2 0x800 DUP2 PUSH2 0x736 JUMP JUMPDEST PUSH2 0x80A DUP2 DUP7 PUSH2 0x7D3 JUMP JUMPDEST SWAP5 POP PUSH1 0x1 DUP3 AND PUSH1 0x0 DUP2 EQ PUSH2 0x825 JUMPI PUSH1 0x1 DUP2 EQ PUSH2 0x83A JUMPI PUSH2 0x86D JUMP JUMPDEST PUSH1 0xFF NOT DUP4 AND DUP7 MSTORE DUP2 ISZERO ISZERO DUP3 MUL DUP7 ADD SWAP4 POP PUSH2 0x86D JUMP JUMPDEST PUSH2 0x843 DUP6 PUSH2 0x7DE JUMP JUMPDEST PUSH1 0x0 JUMPDEST DUP4 DUP2 LT ISZERO PUSH2 0x865 JUMPI DUP2 SLOAD DUP2 DUP10 ADD MSTORE PUSH1 0x1 DUP3 ADD SWAP2 POP PUSH1 0x20 DUP2 ADD SWAP1 POP PUSH2 0x846 JUMP JUMPDEST DUP4 DUP9 ADD SWAP6 POP POP POP JUMPDEST POP POP POP SWAP3 SWAP2 POP POP JUMP JUMPDEST PUSH1 0x0 PUSH2 0x882 DUP3 DUP5 PUSH2 0x7F3 JUMP JUMPDEST SWAP2 POP DUP2 SWAP1 POP SWAP3 SWAP2 POP POP JUMP JUMPDEST PUSH1 0x0 PUSH2 0x898 DUP3 PUSH2 0x4D7 JUMP JUMPDEST PUSH2 0x8A2 DUP2 DUP6 PUSH2 0x7D3 JUMP JUMPDEST SWAP4 POP PUSH2 0x8B2 DUP2 DUP6 PUSH1 0x20 DUP7 ADD PUSH2 0x4F3 JUMP JUMPDEST DUP1 DUP5 ADD SWAP2 POP POP SWAP3 SWAP2 POP POP JUMP JUMPDEST PUSH1 0x0 PUSH2 0x8CA DUP3 DUP5 PUSH2 0x88D JUMP JUMPDEST SWAP2 POP DUP2 SWAP1 POP SWAP3 SWAP2 POP POP JUMP JUMPDEST PUSH1 0x0 PUSH1 0x20 PUSH1 0x1F DUP4 ADD DIV SWAP1 POP SWAP2 SWAP1 POP JUMP JUMPDEST PUSH1 0x0 DUP3 DUP3 SHL SWAP1 POP SWAP3 SWAP2 POP POP JUMP JUMPDEST PUSH1 0x0 PUSH1 0x8 DUP4 MUL PUSH2 0x922 PUSH32 0xFFFFFFFFFFFFFFFFFFFFFFFFFFFFFFFFFFFFFFFFFFFFFFFFFFFFFFFFFFFFFFFF DUP3 PUSH2 0x8E5 JUMP JUMPDEST PUSH2 0x92C DUP7 DUP4 PUSH2 0x8E5 JUMP JUMPDEST SWAP6 POP DUP1 NOT DUP5 AND SWAP4 POP DUP1 DUP7 AND DUP5 OR SWAP3 POP POP POP SWAP4 SWAP3 POP POP POP JUMP JUMPDEST PUSH1 0x0 DUP2 SWAP1 POP SWAP2 SWAP1 POP JUMP JUMPDEST PUSH1 0x0 DUP2 SWAP1 POP SWAP2 SWAP1 POP JUMP JUMPDEST PUSH1 0x0 PUSH2 0x973 PUSH2 0x96E PUSH2 0x969 DUP5 PUSH2 0x944 JUMP JUMPDEST PUSH2 0x94E JUMP JUMPDEST PUSH2 0x944 JUMP JUMPDEST SWAP1 POP SWAP2 SWAP1 POP JUMP JUMPDEST PUSH1 0x0 DUP2 SWAP1 POP SWAP2 SWAP1 POP JUMP JUMPDEST PUSH2 0x98D DUP4 PUSH2 0x958 JUMP JUMPDEST PUSH2 0x9A1 PUSH2 0x999 DUP3 PUSH2 0x97A JUMP JUMPDEST DUP5 DUP5 SLOAD PUSH2 0x8F2 JUMP JUMPDEST DUP3 SSTORE POP POP POP POP JUMP JUMPDEST PUSH1 0x0 SWAP1 JUMP JUMPDEST PUSH2 0x9B6 PUSH2 0x9A9 JUMP JUMPDEST PUSH2 0x9C1 DUP2 DUP5 DUP5 PUSH2 0x984 JUMP JUMPDEST POP POP POP JUMP JUMPDEST JUMPDEST DUP2 DUP2 LT ISZERO PUSH2 0x9E5 JUMPI PUSH2 0x9DA PUSH1 0x0 DUP3 PUSH2 0x9AE JUMP JUMPDEST PUSH1 0x1 DUP2 ADD SWAP1 POP PUSH2 0x9C7 JUMP JUMPDEST POP POP JUMP JUMPDEST PUSH1 0x1F DUP3 GT ISZERO PUSH2 0xA2A JUMPI PUSH2 0x9FB DUP2 PUSH2 0x7DE JUMP JUMPDEST PUSH2 0xA04 DUP5 PUSH2 0x8D5 JUMP JUMPDEST DUP2 ADD PUSH1 0x20 DUP6 LT ISZERO PUSH2 0xA13 JUMPI DUP2 SWAP1 POP JUMPDEST PUSH2 0xA27 PUSH2 0xA1F DUP6 PUSH2 0x8D5 JUMP JUMPDEST DUP4 ADD DUP3 PUSH2 0x9C6 JUMP JUMPDEST POP POP JUMPDEST POP POP POP JUMP JUMPDEST PUSH1 0x0 DUP3 DUP3 SHR SWAP1 POP SWAP3 SWAP2 POP POP JUMP JUMPDEST PUSH1 0x0 PUSH2 0xA4D PUSH1 0x0 NOT DUP5 PUSH1 0x8 MUL PUSH2 0xA2F JUMP JUMPDEST NOT DUP1 DUP4 AND SWAP2 POP POP SWAP3 SWAP2 POP POP JUMP JUMPDEST PUSH1 0x0 PUSH2 0xA66 DUP4 DUP4 PUSH2 0xA3C JUMP JUMPDEST SWAP2 POP DUP3 PUSH1 0x2 MUL DUP3 OR SWAP1 POP SWAP3 SWAP2 POP POP JUMP JUMPDEST PUSH2 0xA7F DUP3 PUSH2 0x4D7 JUMP JUMPDEST PUSH8 0xFFFFFFFFFFFFFFFF DUP2 GT ISZERO PUSH2 0xA98 JUMPI PUSH2 0xA97 PUSH2 0x593 JUMP JUMPDEST JUMPDEST PUSH2 0xAA2 DUP3 SLOAD PUSH2 0x736 JUMP JUMPDEST PUSH2 0xAAD DUP3 DUP3 DUP6 PUSH2 0x9E9 JUMP JUMPDEST PUSH1 0x0 PUSH1 0x20 SWAP1 POP PUSH1 0x1F DUP4 GT PUSH1 0x1 DUP2 EQ PUSH2 0xAE0 JUMPI PUSH1 0x0 DUP5 ISZERO PUSH2 0xACE JUMPI DUP3 DUP8 ADD MLOAD SWAP1 POP JUMPDEST PUSH2 0xAD8 DUP6 DUP3 PUSH2 0xA5A JUMP JUMPDEST DUP7 SSTORE POP PUSH2 0xB40 JUMP JUMPDEST PUSH1 0x1F NOT DUP5 AND PUSH2 0xAEE DUP7 PUSH2 0x7DE JUMP JUMPDEST PUSH1 0x0 JUMPDEST DUP3 DUP2 LT ISZERO PUSH2 0xB16 JUMPI DUP5 DUP10 ADD MLOAD DUP3 SSTORE PUSH1 0x1 DUP3 ADD SWAP2 POP PUSH1 0x20 DUP6 ADD SWAP5 POP PUSH1 0x20 DUP2 ADD SWAP1 POP PUSH2 0xAF1 JUMP JUMPDEST DUP7 DUP4 LT ISZERO PUSH2 0xB33 JUMPI DUP5 DUP10 ADD MLOAD PUSH2 0xB2F PUSH1 0x1F DUP10 AND DUP3 PUSH2 0xA3C JUMP JUMPDEST DUP4 SSTORE POP JUMPDEST PUSH1 0x1 PUSH1 0x2 DUP9 MUL ADD DUP9 SSTORE POP POP POP JUMPDEST POP POP POP POP POP POP JUMP INVALID LOG2 PUSH5 0x6970667358 0x22 SLT KECCAK256 LOG0 0xA6 0xAF 0x49 0x2B 0xBE CALL DUP4 AND 0xE4 0xAE SELFBALANCE DUP2 LOG1 0xDE 0x26 0xB4 EXTCODESIZE 0xEC DUP3 0xF7 0x4D DUP11 0x23 TIMESTAMP LT JUMPI PUSH25 0x480E3E3964736F6C6343000812003300000000000000000000 "
				},
				"gasEstimates": {
					"creation": {
						"codeDepositCost": "588400",
						"executionCost": "infinite",
						"totalCost": "infinite"
					},
					"external": {
						"Register(string)": "infinite",
						"isUserRegistered(address)": "2861",
						"isUserType(address)": "infinite"
					}
				},
				"methodIdentifiers": {
					"Register(string)": "40b2d3af",
					"isUserRegistered(address)": "163f7522",
					"isUserType(address)": "1bca2b31"
				}
			},
			"storageLayout": {
				"storage": [
					{
						"astId": 5,
						"contract": "student-sponser.sol:Manager",
						"label": "UserType",
						"offset": 0,
						"slot": "0",
						"type": "t_mapping(t_address,t_string_storage)"
					},
					{
						"astId": 7,
						"contract": "student-sponser.sol:Manager",
						"label": "type1",
						"offset": 0,
						"slot": "1",
						"type": "t_string_storage"
					},
					{
						"astId": 9,
						"contract": "student-sponser.sol:Manager",
						"label": "type2",
						"offset": 0,
						"slot": "2",
						"type": "t_string_storage"
					},
					{
						"astId": 29,
						"contract": "student-sponser.sol:Manager",
						"label": "UserRegistered",
						"offset": 0,
						"slot": "3",
						"type": "t_mapping(t_address,t_bool)"
					}
				],
				"types": {
					"t_address": {
						"encoding": "inplace",
						"label": "address",
						"numberOfBytes": "20"
					},
					"t_bool": {
						"encoding": "inplace",
						"label": "bool",
						"numberOfBytes": "1"
					},
					"t_mapping(t_address,t_bool)": {
						"encoding": "mapping",
						"key": "t_address",
						"label": "mapping(address => bool)",
						"numberOfBytes": "32",
						"value": "t_bool"
					},
					"t_mapping(t_address,t_string_storage)": {
						"encoding": "mapping",
						"key": "t_address",
						"label": "mapping(address => string)",
						"numberOfBytes": "32",
						"value": "t_string_storage"
					},
					"t_string_storage": {
						"encoding": "bytes",
						"label": "string",
						"numberOfBytes": "32"
					}
				}
			},
			"userdoc": {
				"kind": "user",
				"methods": {},
				"version": 1
			}
		}
	}
}