{
	"FungibleToken.sol": {
		"MyToken": {
			"abi": [
				{
					"inputs": [],
					"stateMutability": "nonpayable",
					"type": "constructor"
				},
				{
					"anonymous": false,
					"inputs": [
						{
							"indexed": true,
							"internalType": "address",
							"name": "owner",
							"type": "address"
						},
						{
							"indexed": true,
							"internalType": "address",
							"name": "spender",
							"type": "address"
						},
						{
							"indexed": false,
							"internalType": "uint256",
							"name": "value",
							"type": "uint256"
						}
					],
					"name": "Approval",
					"type": "event"
				},
				{
					"anonymous": false,
					"inputs": [
						{
							"indexed": true,
							"internalType": "address",
							"name": "previousOwner",
							"type": "address"
						},
						{
							"indexed": true,
							"internalType": "address",
							"name": "newOwner",
							"type": "address"
						}
					],
					"name": "OwnershipTransferred",
					"type": "event"
				},
				{
					"anonymous": false,
					"inputs": [
						{
							"indexed": true,
							"internalType": "address",
							"name": "from",
							"type": "address"
						},
						{
							"indexed": true,
							"internalType": "address",
							"name": "to",
							"type": "address"
						},
						{
							"indexed": false,
							"internalType": "uint256",
							"name": "value",
							"type": "uint256"
						}
					],
					"name": "Transfer",
					"type": "event"
				},
				{
					"inputs": [
						{
							"internalType": "address",
							"name": "owner",
							"type": "address"
						},
						{
							"internalType": "address",
							"name": "spender",
							"type": "address"
						}
					],
					"name": "allowance",
					"outputs": [
						{
							"internalType": "uint256",
							"name": "",
							"type": "uint256"
						}
					],
					"stateMutability": "view",
					"type": "function"
				},
				{
					"inputs": [
						{
							"internalType": "address",
							"name": "spender",
							"type": "address"
						},
						{
							"internalType": "uint256",
							"name": "amount",
							"type": "uint256"
						}
					],
					"name": "approve",
					"outputs": [
						{
							"internalType": "bool",
							"name": "",
							"type": "bool"
						}
					],
					"stateMutability": "nonpayable",
					"type": "function"
				},
				{
					"inputs": [
						{
							"internalType": "address",
							"name": "account",
							"type": "address"
						}
					],
					"name": "balanceOf",
					"outputs": [
						{
							"internalType": "uint256",
							"name": "",
							"type": "uint256"
						}
					],
					"stateMutability": "view",
					"type": "function"
				},
				{
					"inputs": [
						{
							"internalType": "uint256",
							"name": "amount",
							"type": "uint256"
						}
					],
					"name": "burn",
					"outputs": [],
					"stateMutability": "nonpayable",
					"type": "function"
				},
				{
					"inputs": [
						{
							"internalType": "address",
							"name": "account",
							"type": "address"
						},
						{
							"internalType": "uint256",
							"name": "amount",
							"type": "uint256"
						}
					],
					"name": "burnFrom",
					"outputs": [],
					"stateMutability": "nonpayable",
					"type": "function"
				},
				{
					"inputs": [],
					"name": "burnUnsoldTokens",
					"outputs": [],
					"stateMutability": "nonpayable",
					"type": "function"
				},
				{
					"inputs": [
						{
							"internalType": "uint256",
							"name": "_numTokens",
							"type": "uint256"
						}
					],
					"name": "buyTokens",
					"outputs": [],
					"stateMutability": "payable",
					"type": "function"
				},
				{
					"inputs": [],
					"name": "decimals",
					"outputs": [
						{
							"internalType": "uint8",
							"name": "",
							"type": "uint8"
						}
					],
					"stateMutability": "view",
					"type": "function"
				},
				{
					"inputs": [
						{
							"internalType": "address",
							"name": "spender",
							"type": "address"
						},
						{
							"internalType": "uint256",
							"name": "subtractedValue",
							"type": "uint256"
						}
					],
					"name": "decreaseAllowance",
					"outputs": [
						{
							"internalType": "bool",
							"name": "",
							"type": "bool"
						}
					],
					"stateMutability": "nonpayable",
					"type": "function"
				},
				{
					"inputs": [
						{
							"internalType": "address",
							"name": "spender",
							"type": "address"
						},
						{
							"internalType": "uint256",
							"name": "addedValue",
							"type": "uint256"
						}
					],
					"name": "increaseAllowance",
					"outputs": [
						{
							"internalType": "bool",
							"name": "",
							"type": "bool"
						}
					],
					"stateMutability": "nonpayable",
					"type": "function"
				},
				{
					"inputs": [],
					"name": "name",
					"outputs": [
						{
							"internalType": "string",
							"name": "",
							"type": "string"
						}
					],
					"stateMutability": "view",
					"type": "function"
				},
				{
					"inputs": [],
					"name": "owner",
					"outputs": [
						{
							"internalType": "address",
							"name": "",
							"type": "address"
						}
					],
					"stateMutability": "view",
					"type": "function"
				},
				{
					"inputs": [],
					"name": "renounceOwnership",
					"outputs": [],
					"stateMutability": "nonpayable",
					"type": "function"
				},
				{
					"inputs": [
						{
							"internalType": "uint256",
							"name": "_numTokens",
							"type": "uint256"
						}
					],
					"name": "sellTokens",
					"outputs": [],
					"stateMutability": "nonpayable",
					"type": "function"
				},
				{
					"inputs": [
						{
							"internalType": "uint256",
							"name": "_newPrice",
							"type": "uint256"
						}
					],
					"name": "setTokenPrice",
					"outputs": [],
					"stateMutability": "nonpayable",
					"type": "function"
				},
				{
					"inputs": [],
					"name": "symbol",
					"outputs": [
						{
							"internalType": "string",
							"name": "",
							"type": "string"
						}
					],
					"stateMutability": "view",
					"type": "function"
				},
				{
					"inputs": [],
					"name": "tokenPrice",
					"outputs": [
						{
							"internalType": "uint256",
							"name": "",
							"type": "uint256"
						}
					],
					"stateMutability": "view",
					"type": "function"
				},
				{
					"inputs": [],
					"name": "totalSupply",
					"outputs": [
						{
							"internalType": "uint256",
							"name": "",
							"type": "uint256"
						}
					],
					"stateMutability": "view",
					"type": "function"
				},
				{
					"inputs": [
						{
							"internalType": "address",
							"name": "to",
							"type": "address"
						},
						{
							"internalType": "uint256",
							"name": "amount",
							"type": "uint256"
						}
					],
					"name": "transfer",
					"outputs": [
						{
							"internalType": "bool",
							"name": "",
							"type": "bool"
						}
					],
					"stateMutability": "nonpayable",
					"type": "function"
				},
				{
					"inputs": [],
					"name": "transferBalanceToOwner",
					"outputs": [],
					"stateMutability": "nonpayable",
					"type": "function"
				},
				{
					"inputs": [
						{
							"internalType": "address",
							"name": "from",
							"type": "address"
						},
						{
							"internalType": "address",
							"name": "to",
							"type": "address"
						},
						{
							"internalType": "uint256",
							"name": "amount",
							"type": "uint256"
						}
					],
					"name": "transferFrom",
					"outputs": [
						{
							"internalType": "bool",
							"name": "",
							"type": "bool"
						}
					],
					"stateMutability": "nonpayable",
					"type": "function"
				},
				{
					"inputs": [
						{
							"internalType": "address",
							"name": "newOwner",
							"type": "address"
						}
					],
					"name": "transferOwnership",
					"outputs": [],
					"stateMutability": "nonpayable",
					"type": "function"
				}
			],
			"devdoc": {
				"events": {
					"Approval(address,address,uint256)": {
						"details": "Emitted when the allowance of a `spender` for an `owner` is set by a call to {approve}. `value` is the new allowance."
					},
					"Transfer(address,address,uint256)": {
						"details": "Emitted when `value` tokens are moved from one account (`from`) to another (`to`). Note that `value` may be zero."
					}
				},
				"kind": "dev",
				"methods": {
					"allowance(address,address)": {
						"details": "See {IERC20-allowance}."
					},
					"approve(address,uint256)": {
						"details": "See {IERC20-approve}. NOTE: If `amount` is the maximum `uint256`, the allowance is not updated on `transferFrom`. This is semantically equivalent to an infinite approval. Requirements: - `spender` cannot be the zero address."
					},
					"balanceOf(address)": {
						"details": "See {IERC20-balanceOf}."
					},
					"burn(uint256)": {
						"details": "Destroys `amount` tokens from the caller. See {ERC20-_burn}."
					},
					"burnFrom(address,uint256)": {
						"details": "Destroys `amount` tokens from `account`, deducting from the caller's allowance. See {ERC20-_burn} and {ERC20-allowance}. Requirements: - the caller must have allowance for ``accounts``'s tokens of at least `amount`."
					},
					"decimals()": {
						"details": "Returns the number of decimals used to get its user representation. For example, if `decimals` equals `2`, a balance of `505` tokens should be displayed to a user as `5.05` (`505 / 10 ** 2`). Tokens usually opt for a value of 18, imitating the relationship between Ether and Wei. This is the default value returned by this function, unless it's overridden. NOTE: This information is only used for _display_ purposes: it in no way affects any of the arithmetic of the contract, including {IERC20-balanceOf} and {IERC20-transfer}."
					},
					"decreaseAllowance(address,uint256)": {
						"details": "Atomically decreases the allowance granted to `spender` by the caller. This is an alternative to {approve} that can be used as a mitigation for problems described in {IERC20-approve}. Emits an {Approval} event indicating the updated allowance. Requirements: - `spender` cannot be the zero address. - `spender` must have allowance for the caller of at least `subtractedValue`."
					},
					"increaseAllowance(address,uint256)": {
						"details": "Atomically increases the allowance granted to `spender` by the caller. This is an alternative to {approve} that can be used as a mitigation for problems described in {IERC20-approve}. Emits an {Approval} event indicating the updated allowance. Requirements: - `spender` cannot be the zero address."
					},
					"name()": {
						"details": "Returns the name of the token."
					},
					"owner()": {
						"details": "Returns the address of the current owner."
					},
					"renounceOwnership()": {
						"details": "Leaves the contract without owner. It will not be possible to call `onlyOwner` functions. Can only be called by the current owner. NOTE: Renouncing ownership will leave the contract without an owner, thereby disabling any functionality that is only available to the owner."
					},
					"symbol()": {
						"details": "Returns the symbol of the token, usually a shorter version of the name."
					},
					"totalSupply()": {
						"details": "See {IERC20-totalSupply}."
					},
					"transfer(address,uint256)": {
						"details": "See {IERC20-transfer}. Requirements: - `to` cannot be the zero address. - the caller must have a balance of at least `amount`."
					},
					"transferFrom(address,address,uint256)": {
						"details": "See {IERC20-transferFrom}. Emits an {Approval} event indicating the updated allowance. This is not required by the EIP. See the note at the beginning of {ERC20}. NOTE: Does not update the allowance if the current allowance is the maximum `uint256`. Requirements: - `from` and `to` cannot be the zero address. - `from` must have a balance of at least `amount`. - the caller must have allowance for ``from``'s tokens of at least `amount`."
					},
					"transferOwnership(address)": {
						"details": "Transfers ownership of the contract to a new account (`newOwner`). Can only be called by the current owner."
					}
				},
				"version": 1
			},
			"evm": {
				"assembly": "    /* \"FungibleToken.sol\":249:1723  contract MyToken is ERC20, ERC20Burnable, Ownable {... */\n  mstore(0x40, 0x80)\n    /* \"FungibleToken.sol\":340:419  constructor() ERC20(\"MyToken\", \"MTK\") {... */\n  callvalue\n  dup1\n  iszero\n  tag_1\n  jumpi\n  0x00\n  dup1\n  revert\ntag_1:\n  pop\n    /* \"@openzeppelin/contracts/token/ERC20/ERC20.sol\":1980:2093  constructor(string memory name_, string memory symbol_) {... */\n  mload(0x40)\n  dup1\n  0x40\n  add\n  0x40\n  mstore\n  dup1\n  0x07\n  dup2\n  mstore\n  0x20\n  add\n  0x4d79546f6b656e00000000000000000000000000000000000000000000000000\n  dup2\n  mstore\n  pop\n  mload(0x40)\n  dup1\n  0x40\n  add\n  0x40\n  mstore\n  dup1\n  0x03\n  dup2\n  mstore\n  0x20\n  add\n  0x4d544b0000000000000000000000000000000000000000000000000000000000\n  dup2\n  mstore\n  pop\n    /* \"@openzeppelin/contracts/token/ERC20/ERC20.sol\":2054:2059  name_ */\n  dup2\n    /* \"@openzeppelin/contracts/token/ERC20/ERC20.sol\":2046:2051  _name */\n  0x03\n    /* \"@openzeppelin/contracts/token/ERC20/ERC20.sol\":2046:2059  _name = name_ */\n  swap1\n  dup2\n  tag_6\n  swap2\n  swap1\n  tag_7\n  jump\t// in\ntag_6:\n  pop\n    /* \"@openzeppelin/contracts/token/ERC20/ERC20.sol\":2079:2086  symbol_ */\n  dup1\n    /* \"@openzeppelin/contracts/token/ERC20/ERC20.sol\":2069:2076  _symbol */\n  0x04\n    /* \"@openzeppelin/contracts/token/ERC20/ERC20.sol\":2069:2086  _symbol = symbol_ */\n  swap1\n  dup2\n  tag_8\n  swap2\n  swap1\n  tag_7\n  jump\t// in\ntag_8:\n  pop\n    /* \"@openzeppelin/contracts/token/ERC20/ERC20.sol\":1980:2093  constructor(string memory name_, string memory symbol_) {... */\n  pop\n  pop\n    /* \"@openzeppelin/contracts/access/Ownable.sol\":936:968  _transferOwnership(_msgSender()) */\n  tag_10\n    /* \"@openzeppelin/contracts/access/Ownable.sol\":955:967  _msgSender() */\n  tag_11\n    /* \"@openzeppelin/contracts/access/Ownable.sol\":955:965  _msgSender */\n  shl(0x20, tag_12)\n    /* \"@openzeppelin/contracts/access/Ownable.sol\":955:967  _msgSender() */\n  0x20\n  shr\n  jump\t// in\ntag_11:\n    /* \"@openzeppelin/contracts/access/Ownable.sol\":936:954  _transferOwnership */\n  shl(0x20, tag_13)\n    /* \"@openzeppelin/contracts/access/Ownable.sol\":936:968  _transferOwnership(_msgSender()) */\n  0x20\n  shr\n  jump\t// in\ntag_10:\n    /* \"FungibleToken.sol\":402:411  0.1 ether */\n  0x016345785d8a0000\n    /* \"FungibleToken.sol\":389:399  tokenPrice */\n  0x06\n    /* \"FungibleToken.sol\":389:411  tokenPrice = 0.1 ether */\n  dup2\n  swap1\n  sstore\n  pop\n    /* \"FungibleToken.sol\":249:1723  contract MyToken is ERC20, ERC20Burnable, Ownable {... */\n  jump(tag_15)\n    /* \"@openzeppelin/contracts/utils/Context.sol\":640:736  function _msgSender() internal view virtual returns (address) {... */\ntag_12:\n    /* \"@openzeppelin/contracts/utils/Context.sol\":693:700  address */\n  0x00\n    /* \"@openzeppelin/contracts/utils/Context.sol\":719:729  msg.sender */\n  caller\n    /* \"@openzeppelin/contracts/utils/Context.sol\":712:729  return msg.sender */\n  swap1\n  pop\n    /* \"@openzeppelin/contracts/utils/Context.sol\":640:736  function _msgSender() internal view virtual returns (address) {... */\n  swap1\n  jump\t// out\n    /* \"@openzeppelin/contracts/access/Ownable.sol\":2426:2613  function _transferOwnership(address newOwner) internal virtual {... */\ntag_13:\n    /* \"@openzeppelin/contracts/access/Ownable.sol\":2499:2515  address oldOwner */\n  0x00\n    /* \"@openzeppelin/contracts/access/Ownable.sol\":2518:2524  _owner */\n  0x05\n  0x00\n  swap1\n  sload\n  swap1\n  0x0100\n  exp\n  swap1\n  div\n  0xffffffffffffffffffffffffffffffffffffffff\n  and\n    /* \"@openzeppelin/contracts/access/Ownable.sol\":2499:2524  address oldOwner = _owner */\n  swap1\n  pop\n    /* \"@openzeppelin/contracts/access/Ownable.sol\":2543:2551  newOwner */\n  dup2\n    /* \"@openzeppelin/contracts/access/Ownable.sol\":2534:2540  _owner */\n  0x05\n  0x00\n    /* \"@openzeppelin/contracts/access/Ownable.sol\":2534:2551  _owner = newOwner */\n  0x0100\n  exp\n  dup2\n  sload\n  dup2\n  0xffffffffffffffffffffffffffffffffffffffff\n  mul\n  not\n  and\n  swap1\n  dup4\n  0xffffffffffffffffffffffffffffffffffffffff\n  and\n  mul\n  or\n  swap1\n  sstore\n  pop\n    /* \"@openzeppelin/contracts/access/Ownable.sol\":2597:2605  newOwner */\n  dup2\n    /* \"@openzeppelin/contracts/access/Ownable.sol\":2566:2606  OwnershipTransferred(oldOwner, newOwner) */\n  0xffffffffffffffffffffffffffffffffffffffff\n  and\n    /* \"@openzeppelin/contracts/access/Ownable.sol\":2587:2595  oldOwner */\n  dup2\n    /* \"@openzeppelin/contracts/access/Ownable.sol\":2566:2606  OwnershipTransferred(oldOwner, newOwner) */\n  0xffffffffffffffffffffffffffffffffffffffff\n  and\n  0x8be0079c531659141344cd1fd0a4f28419497f9722a3daafe3b4186f6b6457e0\n  mload(0x40)\n  mload(0x40)\n  dup1\n  swap2\n  sub\n  swap1\n  log3\n    /* \"@openzeppelin/contracts/access/Ownable.sol\":2489:2613  {... */\n  pop\n    /* \"@openzeppelin/contracts/access/Ownable.sol\":2426:2613  function _transferOwnership(address newOwner) internal virtual {... */\n  pop\n  jump\t// out\n    /* \"#utility.yul\":7:106   */\ntag_18:\n    /* \"#utility.yul\":59:65   */\n  0x00\n    /* \"#utility.yul\":93:98   */\n  dup2\n    /* \"#utility.yul\":87:99   */\n  mload\n    /* \"#utility.yul\":77:99   */\n  swap1\n  pop\n    /* \"#utility.yul\":7:106   */\n  swap2\n  swap1\n  pop\n  jump\t// out\n    /* \"#utility.yul\":112:292   */\ntag_19:\n    /* \"#utility.yul\":160:237   */\n  0x4e487b7100000000000000000000000000000000000000000000000000000000\n    /* \"#utility.yul\":157:158   */\n  0x00\n    /* \"#utility.yul\":150:238   */\n  mstore\n    /* \"#utility.yul\":257:261   */\n  0x41\n    /* \"#utility.yul\":254:255   */\n  0x04\n    /* \"#utility.yul\":247:262   */\n  mstore\n    /* \"#utility.yul\":281:285   */\n  0x24\n    /* \"#utility.yul\":278:279   */\n  0x00\n    /* \"#utility.yul\":271:286   */\n  revert\n    /* \"#utility.yul\":298:478   */\ntag_20:\n    /* \"#utility.yul\":346:423   */\n  0x4e487b7100000000000000000000000000000000000000000000000000000000\n    /* \"#utility.yul\":343:344   */\n  0x00\n    /* \"#utility.yul\":336:424   */\n  mstore\n    /* \"#utility.yul\":443:447   */\n  0x22\n    /* \"#utility.yul\":440:441   */\n  0x04\n    /* \"#utility.yul\":433:448   */\n  mstore\n    /* \"#utility.yul\":467:471   */\n  0x24\n    /* \"#utility.yul\":464:465   */\n  0x00\n    /* \"#utility.yul\":457:472   */\n  revert\n    /* \"#utility.yul\":484:804   */\ntag_21:\n    /* \"#utility.yul\":528:534   */\n  0x00\n    /* \"#utility.yul\":565:566   */\n  0x02\n    /* \"#utility.yul\":559:563   */\n  dup3\n    /* \"#utility.yul\":555:567   */\n  div\n    /* \"#utility.yul\":545:567   */\n  swap1\n  pop\n    /* \"#utility.yul\":612:613   */\n  0x01\n    /* \"#utility.yul\":606:610   */\n  dup3\n    /* \"#utility.yul\":602:614   */\n  and\n    /* \"#utility.yul\":633:651   */\n  dup1\n    /* \"#utility.yul\":623:704   */\n  tag_43\n  jumpi\n    /* \"#utility.yul\":689:693   */\n  0x7f\n    /* \"#utility.yul\":681:687   */\n  dup3\n    /* \"#utility.yul\":677:694   */\n  and\n    /* \"#utility.yul\":667:694   */\n  swap2\n  pop\n    /* \"#utility.yul\":623:704   */\ntag_43:\n    /* \"#utility.yul\":751:753   */\n  0x20\n    /* \"#utility.yul\":743:749   */\n  dup3\n    /* \"#utility.yul\":740:754   */\n  lt\n    /* \"#utility.yul\":720:738   */\n  dup2\n    /* \"#utility.yul\":717:755   */\n  sub\n    /* \"#utility.yul\":714:798   */\n  tag_44\n  jumpi\n    /* \"#utility.yul\":770:788   */\n  tag_45\n  tag_20\n  jump\t// in\ntag_45:\n    /* \"#utility.yul\":714:798   */\ntag_44:\n    /* \"#utility.yul\":535:804   */\n  pop\n    /* \"#utility.yul\":484:804   */\n  swap2\n  swap1\n  pop\n  jump\t// out\n    /* \"#utility.yul\":810:951   */\ntag_22:\n    /* \"#utility.yul\":859:863   */\n  0x00\n    /* \"#utility.yul\":882:885   */\n  dup2\n    /* \"#utility.yul\":874:885   */\n  swap1\n  pop\n    /* \"#utility.yul\":905:908   */\n  dup2\n    /* \"#utility.yul\":902:903   */\n  0x00\n    /* \"#utility.yul\":895:909   */\n  mstore\n    /* \"#utility.yul\":939:943   */\n  0x20\n    /* \"#utility.yul\":936:937   */\n  0x00\n    /* \"#utility.yul\":926:944   */\n  keccak256\n    /* \"#utility.yul\":918:944   */\n  swap1\n  pop\n    /* \"#utility.yul\":810:951   */\n  swap2\n  swap1\n  pop\n  jump\t// out\n    /* \"#utility.yul\":957:1050   */\ntag_23:\n    /* \"#utility.yul\":994:1000   */\n  0x00\n    /* \"#utility.yul\":1041:1043   */\n  0x20\n    /* \"#utility.yul\":1036:1038   */\n  0x1f\n    /* \"#utility.yul\":1029:1034   */\n  dup4\n    /* \"#utility.yul\":1025:1039   */\n  add\n    /* \"#utility.yul\":1021:1044   */\n  div\n    /* \"#utility.yul\":1011:1044   */\n  swap1\n  pop\n    /* \"#utility.yul\":957:1050   */\n  swap2\n  swap1\n  pop\n  jump\t// out\n    /* \"#utility.yul\":1056:1163   */\ntag_24:\n    /* \"#utility.yul\":1100:1108   */\n  0x00\n    /* \"#utility.yul\":1150:1155   */\n  dup3\n    /* \"#utility.yul\":1144:1148   */\n  dup3\n    /* \"#utility.yul\":1140:1156   */\n  shl\n    /* \"#utility.yul\":1119:1156   */\n  swap1\n  pop\n    /* \"#utility.yul\":1056:1163   */\n  swap3\n  swap2\n  pop\n  pop\n  jump\t// out\n    /* \"#utility.yul\":1169:1562   */\ntag_25:\n    /* \"#utility.yul\":1238:1244   */\n  0x00\n    /* \"#utility.yul\":1288:1289   */\n  0x08\n    /* \"#utility.yul\":1276:1286   */\n  dup4\n    /* \"#utility.yul\":1272:1290   */\n  mul\n    /* \"#utility.yul\":1311:1408   */\n  tag_50\n    /* \"#utility.yul\":1341:1407   */\n  0xffffffffffffffffffffffffffffffffffffffffffffffffffffffffffffffff\n    /* \"#utility.yul\":1330:1339   */\n  dup3\n    /* \"#utility.yul\":1311:1408   */\n  tag_24\n  jump\t// in\ntag_50:\n    /* \"#utility.yul\":1429:1468   */\n  tag_51\n    /* \"#utility.yul\":1459:1467   */\n  dup7\n    /* \"#utility.yul\":1448:1457   */\n  dup4\n    /* \"#utility.yul\":1429:1468   */\n  tag_24\n  jump\t// in\ntag_51:\n    /* \"#utility.yul\":1417:1468   */\n  swap6\n  pop\n    /* \"#utility.yul\":1501:1505   */\n  dup1\n    /* \"#utility.yul\":1497:1506   */\n  not\n    /* \"#utility.yul\":1490:1495   */\n  dup5\n    /* \"#utility.yul\":1486:1507   */\n  and\n    /* \"#utility.yul\":1477:1507   */\n  swap4\n  pop\n    /* \"#utility.yul\":1550:1554   */\n  dup1\n    /* \"#utility.yul\":1540:1548   */\n  dup7\n    /* \"#utility.yul\":1536:1555   */\n  and\n    /* \"#utility.yul\":1529:1534   */\n  dup5\n    /* \"#utility.yul\":1526:1556   */\n  or\n    /* \"#utility.yul\":1516:1556   */\n  swap3\n  pop\n    /* \"#utility.yul\":1245:1562   */\n  pop\n  pop\n    /* \"#utility.yul\":1169:1562   */\n  swap4\n  swap3\n  pop\n  pop\n  pop\n  jump\t// out\n    /* \"#utility.yul\":1568:1645   */\ntag_26:\n    /* \"#utility.yul\":1605:1612   */\n  0x00\n    /* \"#utility.yul\":1634:1639   */\n  dup2\n    /* \"#utility.yul\":1623:1639   */\n  swap1\n  pop\n    /* \"#utility.yul\":1568:1645   */\n  swap2\n  swap1\n  pop\n  jump\t// out\n    /* \"#utility.yul\":1651:1711   */\ntag_27:\n    /* \"#utility.yul\":1679:1682   */\n  0x00\n    /* \"#utility.yul\":1700:1705   */\n  dup2\n    /* \"#utility.yul\":1693:1705   */\n  swap1\n  pop\n    /* \"#utility.yul\":1651:1711   */\n  swap2\n  swap1\n  pop\n  jump\t// out\n    /* \"#utility.yul\":1717:1859   */\ntag_28:\n    /* \"#utility.yul\":1767:1776   */\n  0x00\n    /* \"#utility.yul\":1800:1853   */\n  tag_55\n    /* \"#utility.yul\":1818:1852   */\n  tag_56\n    /* \"#utility.yul\":1827:1851   */\n  tag_57\n    /* \"#utility.yul\":1845:1850   */\n  dup5\n    /* \"#utility.yul\":1827:1851   */\n  tag_26\n  jump\t// in\ntag_57:\n    /* \"#utility.yul\":1818:1852   */\n  tag_27\n  jump\t// in\ntag_56:\n    /* \"#utility.yul\":1800:1853   */\n  tag_26\n  jump\t// in\ntag_55:\n    /* \"#utility.yul\":1787:1853   */\n  swap1\n  pop\n    /* \"#utility.yul\":1717:1859   */\n  swap2\n  swap1\n  pop\n  jump\t// out\n    /* \"#utility.yul\":1865:1940   */\ntag_29:\n    /* \"#utility.yul\":1908:1911   */\n  0x00\n    /* \"#utility.yul\":1929:1934   */\n  dup2\n    /* \"#utility.yul\":1922:1934   */\n  swap1\n  pop\n    /* \"#utility.yul\":1865:1940   */\n  swap2\n  swap1\n  pop\n  jump\t// out\n    /* \"#utility.yul\":1946:2215   */\ntag_30:\n    /* \"#utility.yul\":2056:2095   */\n  tag_60\n    /* \"#utility.yul\":2087:2094   */\n  dup4\n    /* \"#utility.yul\":2056:2095   */\n  tag_28\n  jump\t// in\ntag_60:\n    /* \"#utility.yul\":2117:2208   */\n  tag_61\n    /* \"#utility.yul\":2166:2207   */\n  tag_62\n    /* \"#utility.yul\":2190:2206   */\n  dup3\n    /* \"#utility.yul\":2166:2207   */\n  tag_29\n  jump\t// in\ntag_62:\n    /* \"#utility.yul\":2158:2164   */\n  dup5\n    /* \"#utility.yul\":2151:2155   */\n  dup5\n    /* \"#utility.yul\":2145:2156   */\n  sload\n    /* \"#utility.yul\":2117:2208   */\n  tag_25\n  jump\t// in\ntag_61:\n    /* \"#utility.yul\":2111:2115   */\n  dup3\n    /* \"#utility.yul\":2104:2209   */\n  sstore\n    /* \"#utility.yul\":2022:2215   */\n  pop\n    /* \"#utility.yul\":1946:2215   */\n  pop\n  pop\n  pop\n  jump\t// out\n    /* \"#utility.yul\":2221:2294   */\ntag_31:\n    /* \"#utility.yul\":2266:2269   */\n  0x00\n    /* \"#utility.yul\":2221:2294   */\n  swap1\n  jump\t// out\n    /* \"#utility.yul\":2300:2489   */\ntag_32:\n    /* \"#utility.yul\":2377:2409   */\n  tag_65\n  tag_31\n  jump\t// in\ntag_65:\n    /* \"#utility.yul\":2418:2483   */\n  tag_66\n    /* \"#utility.yul\":2476:2482   */\n  dup2\n    /* \"#utility.yul\":2468:2474   */\n  dup5\n    /* \"#utility.yul\":2462:2466   */\n  dup5\n    /* \"#utility.yul\":2418:2483   */\n  tag_30\n  jump\t// in\ntag_66:\n    /* \"#utility.yul\":2353:2489   */\n  pop\n    /* \"#utility.yul\":2300:2489   */\n  pop\n  pop\n  jump\t// out\n    /* \"#utility.yul\":2495:2681   */\ntag_33:\n    /* \"#utility.yul\":2555:2675   */\ntag_68:\n    /* \"#utility.yul\":2572:2575   */\n  dup2\n    /* \"#utility.yul\":2565:2570   */\n  dup2\n    /* \"#utility.yul\":2562:2576   */\n  lt\n    /* \"#utility.yul\":2555:2675   */\n  iszero\n  tag_70\n  jumpi\n    /* \"#utility.yul\":2626:2665   */\n  tag_71\n    /* \"#utility.yul\":2663:2664   */\n  0x00\n    /* \"#utility.yul\":2656:2661   */\n  dup3\n    /* \"#utility.yul\":2626:2665   */\n  tag_32\n  jump\t// in\ntag_71:\n    /* \"#utility.yul\":2599:2600   */\n  0x01\n    /* \"#utility.yul\":2592:2597   */\n  dup2\n    /* \"#utility.yul\":2588:2601   */\n  add\n    /* \"#utility.yul\":2579:2601   */\n  swap1\n  pop\n    /* \"#utility.yul\":2555:2675   */\n  jump(tag_68)\ntag_70:\n    /* \"#utility.yul\":2495:2681   */\n  pop\n  pop\n  jump\t// out\n    /* \"#utility.yul\":2687:3230   */\ntag_34:\n    /* \"#utility.yul\":2788:2790   */\n  0x1f\n    /* \"#utility.yul\":2783:2786   */\n  dup3\n    /* \"#utility.yul\":2780:2791   */\n  gt\n    /* \"#utility.yul\":2777:3223   */\n  iszero\n  tag_73\n  jumpi\n    /* \"#utility.yul\":2822:2860   */\n  tag_74\n    /* \"#utility.yul\":2854:2859   */\n  dup2\n    /* \"#utility.yul\":2822:2860   */\n  tag_22\n  jump\t// in\ntag_74:\n    /* \"#utility.yul\":2906:2935   */\n  tag_75\n    /* \"#utility.yul\":2924:2934   */\n  dup5\n    /* \"#utility.yul\":2906:2935   */\n  tag_23\n  jump\t// in\ntag_75:\n    /* \"#utility.yul\":2896:2904   */\n  dup2\n    /* \"#utility.yul\":2892:2936   */\n  add\n    /* \"#utility.yul\":3089:3091   */\n  0x20\n    /* \"#utility.yul\":3077:3087   */\n  dup6\n    /* \"#utility.yul\":3074:3092   */\n  lt\n    /* \"#utility.yul\":3071:3120   */\n  iszero\n  tag_76\n  jumpi\n    /* \"#utility.yul\":3110:3118   */\n  dup2\n    /* \"#utility.yul\":3095:3118   */\n  swap1\n  pop\n    /* \"#utility.yul\":3071:3120   */\ntag_76:\n    /* \"#utility.yul\":3133:3213   */\n  tag_77\n    /* \"#utility.yul\":3189:3211   */\n  tag_78\n    /* \"#utility.yul\":3207:3210   */\n  dup6\n    /* \"#utility.yul\":3189:3211   */\n  tag_23\n  jump\t// in\ntag_78:\n    /* \"#utility.yul\":3179:3187   */\n  dup4\n    /* \"#utility.yul\":3175:3212   */\n  add\n    /* \"#utility.yul\":3162:3173   */\n  dup3\n    /* \"#utility.yul\":3133:3213   */\n  tag_33\n  jump\t// in\ntag_77:\n    /* \"#utility.yul\":2792:3223   */\n  pop\n  pop\n    /* \"#utility.yul\":2777:3223   */\ntag_73:\n    /* \"#utility.yul\":2687:3230   */\n  pop\n  pop\n  pop\n  jump\t// out\n    /* \"#utility.yul\":3236:3353   */\ntag_35:\n    /* \"#utility.yul\":3290:3298   */\n  0x00\n    /* \"#utility.yul\":3340:3345   */\n  dup3\n    /* \"#utility.yul\":3334:3338   */\n  dup3\n    /* \"#utility.yul\":3330:3346   */\n  shr\n    /* \"#utility.yul\":3309:3346   */\n  swap1\n  pop\n    /* \"#utility.yul\":3236:3353   */\n  swap3\n  swap2\n  pop\n  pop\n  jump\t// out\n    /* \"#utility.yul\":3359:3528   */\ntag_36:\n    /* \"#utility.yul\":3403:3409   */\n  0x00\n    /* \"#utility.yul\":3436:3487   */\n  tag_81\n    /* \"#utility.yul\":3484:3485   */\n  0x00\n    /* \"#utility.yul\":3480:3486   */\n  not\n    /* \"#utility.yul\":3472:3477   */\n  dup5\n    /* \"#utility.yul\":3469:3470   */\n  0x08\n    /* \"#utility.yul\":3465:3478   */\n  mul\n    /* \"#utility.yul\":3436:3487   */\n  tag_35\n  jump\t// in\ntag_81:\n    /* \"#utility.yul\":3432:3488   */\n  not\n    /* \"#utility.yul\":3517:3521   */\n  dup1\n    /* \"#utility.yul\":3511:3515   */\n  dup4\n    /* \"#utility.yul\":3507:3522   */\n  and\n    /* \"#utility.yul\":3497:3522   */\n  swap2\n  pop\n    /* \"#utility.yul\":3410:3528   */\n  pop\n    /* \"#utility.yul\":3359:3528   */\n  swap3\n  swap2\n  pop\n  pop\n  jump\t// out\n    /* \"#utility.yul\":3533:3828   */\ntag_37:\n    /* \"#utility.yul\":3609:3613   */\n  0x00\n    /* \"#utility.yul\":3755:3784   */\n  tag_83\n    /* \"#utility.yul\":3780:3783   */\n  dup4\n    /* \"#utility.yul\":3774:3778   */\n  dup4\n    /* \"#utility.yul\":3755:3784   */\n  tag_36\n  jump\t// in\ntag_83:\n    /* \"#utility.yul\":3747:3784   */\n  swap2\n  pop\n    /* \"#utility.yul\":3817:3820   */\n  dup3\n    /* \"#utility.yul\":3814:3815   */\n  0x02\n    /* \"#utility.yul\":3810:3821   */\n  mul\n    /* \"#utility.yul\":3804:3808   */\n  dup3\n    /* \"#utility.yul\":3801:3822   */\n  or\n    /* \"#utility.yul\":3793:3822   */\n  swap1\n  pop\n    /* \"#utility.yul\":3533:3828   */\n  swap3\n  swap2\n  pop\n  pop\n  jump\t// out\n    /* \"#utility.yul\":3833:5228   */\ntag_7:\n    /* \"#utility.yul\":3950:3987   */\n  tag_85\n    /* \"#utility.yul\":3983:3986   */\n  dup3\n    /* \"#utility.yul\":3950:3987   */\n  tag_18\n  jump\t// in\ntag_85:\n    /* \"#utility.yul\":4052:4070   */\n  0xffffffffffffffff\n    /* \"#utility.yul\":4044:4050   */\n  dup2\n    /* \"#utility.yul\":4041:4071   */\n  gt\n    /* \"#utility.yul\":4038:4094   */\n  iszero\n  tag_86\n  jumpi\n    /* \"#utility.yul\":4074:4092   */\n  tag_87\n  tag_19\n  jump\t// in\ntag_87:\n    /* \"#utility.yul\":4038:4094   */\ntag_86:\n    /* \"#utility.yul\":4118:4156   */\n  tag_88\n    /* \"#utility.yul\":4150:4154   */\n  dup3\n    /* \"#utility.yul\":4144:4155   */\n  sload\n    /* \"#utility.yul\":4118:4156   */\n  tag_21\n  jump\t// in\ntag_88:\n    /* \"#utility.yul\":4203:4270   */\n  tag_89\n    /* \"#utility.yul\":4263:4269   */\n  dup3\n    /* \"#utility.yul\":4255:4261   */\n  dup3\n    /* \"#utility.yul\":4249:4253   */\n  dup6\n    /* \"#utility.yul\":4203:4270   */\n  tag_34\n  jump\t// in\ntag_89:\n    /* \"#utility.yul\":4297:4298   */\n  0x00\n    /* \"#utility.yul\":4321:4325   */\n  0x20\n    /* \"#utility.yul\":4308:4325   */\n  swap1\n  pop\n    /* \"#utility.yul\":4353:4355   */\n  0x1f\n    /* \"#utility.yul\":4345:4351   */\n  dup4\n    /* \"#utility.yul\":4342:4356   */\n  gt\n    /* \"#utility.yul\":4370:4371   */\n  0x01\n    /* \"#utility.yul\":4365:4983   */\n  dup2\n  eq\n  tag_91\n  jumpi\n    /* \"#utility.yul\":5027:5028   */\n  0x00\n    /* \"#utility.yul\":5044:5050   */\n  dup5\n    /* \"#utility.yul\":5041:5118   */\n  iszero\n  tag_92\n  jumpi\n    /* \"#utility.yul\":5093:5102   */\n  dup3\n    /* \"#utility.yul\":5088:5091   */\n  dup8\n    /* \"#utility.yul\":5084:5103   */\n  add\n    /* \"#utility.yul\":5078:5104   */\n  mload\n    /* \"#utility.yul\":5069:5104   */\n  swap1\n  pop\n    /* \"#utility.yul\":5041:5118   */\ntag_92:\n    /* \"#utility.yul\":5144:5211   */\n  tag_93\n    /* \"#utility.yul\":5204:5210   */\n  dup6\n    /* \"#utility.yul\":5197:5202   */\n  dup3\n    /* \"#utility.yul\":5144:5211   */\n  tag_37\n  jump\t// in\ntag_93:\n    /* \"#utility.yul\":5138:5142   */\n  dup7\n    /* \"#utility.yul\":5131:5212   */\n  sstore\n    /* \"#utility.yul\":5000:5222   */\n  pop\n    /* \"#utility.yul\":4335:5222   */\n  jump(tag_90)\n    /* \"#utility.yul\":4365:4983   */\ntag_91:\n    /* \"#utility.yul\":4417:4421   */\n  0x1f\n    /* \"#utility.yul\":4413:4422   */\n  not\n    /* \"#utility.yul\":4405:4411   */\n  dup5\n    /* \"#utility.yul\":4401:4423   */\n  and\n    /* \"#utility.yul\":4451:4488   */\n  tag_94\n    /* \"#utility.yul\":4483:4487   */\n  dup7\n    /* \"#utility.yul\":4451:4488   */\n  tag_22\n  jump\t// in\ntag_94:\n    /* \"#utility.yul\":4510:4511   */\n  0x00\n    /* \"#utility.yul\":4524:4732   */\ntag_95:\n    /* \"#utility.yul\":4538:4545   */\n  dup3\n    /* \"#utility.yul\":4535:4536   */\n  dup2\n    /* \"#utility.yul\":4532:4546   */\n  lt\n    /* \"#utility.yul\":4524:4732   */\n  iszero\n  tag_97\n  jumpi\n    /* \"#utility.yul\":4617:4626   */\n  dup5\n    /* \"#utility.yul\":4612:4615   */\n  dup10\n    /* \"#utility.yul\":4608:4627   */\n  add\n    /* \"#utility.yul\":4602:4628   */\n  mload\n    /* \"#utility.yul\":4594:4600   */\n  dup3\n    /* \"#utility.yul\":4587:4629   */\n  sstore\n    /* \"#utility.yul\":4668:4669   */\n  0x01\n    /* \"#utility.yul\":4660:4666   */\n  dup3\n    /* \"#utility.yul\":4656:4670   */\n  add\n    /* \"#utility.yul\":4646:4670   */\n  swap2\n  pop\n    /* \"#utility.yul\":4715:4717   */\n  0x20\n    /* \"#utility.yul\":4704:4713   */\n  dup6\n    /* \"#utility.yul\":4700:4718   */\n  add\n    /* \"#utility.yul\":4687:4718   */\n  swap5\n  pop\n    /* \"#utility.yul\":4561:4565   */\n  0x20\n    /* \"#utility.yul\":4558:4559   */\n  dup2\n    /* \"#utility.yul\":4554:4566   */\n  add\n    /* \"#utility.yul\":4549:4566   */\n  swap1\n  pop\n    /* \"#utility.yul\":4524:4732   */\n  jump(tag_95)\ntag_97:\n    /* \"#utility.yul\":4760:4766   */\n  dup7\n    /* \"#utility.yul\":4751:4758   */\n  dup4\n    /* \"#utility.yul\":4748:4767   */\n  lt\n    /* \"#utility.yul\":4745:4924   */\n  iszero\n  tag_98\n  jumpi\n    /* \"#utility.yul\":4818:4827   */\n  dup5\n    /* \"#utility.yul\":4813:4816   */\n  dup10\n    /* \"#utility.yul\":4809:4828   */\n  add\n    /* \"#utility.yul\":4803:4829   */\n  mload\n    /* \"#utility.yul\":4861:4909   */\n  tag_99\n    /* \"#utility.yul\":4903:4907   */\n  0x1f\n    /* \"#utility.yul\":4895:4901   */\n  dup10\n    /* \"#utility.yul\":4891:4908   */\n  and\n    /* \"#utility.yul\":4880:4889   */\n  dup3\n    /* \"#utility.yul\":4861:4909   */\n  tag_36\n  jump\t// in\ntag_99:\n    /* \"#utility.yul\":4853:4859   */\n  dup4\n    /* \"#utility.yul\":4846:4910   */\n  sstore\n    /* \"#utility.yul\":4768:4924   */\n  pop\n    /* \"#utility.yul\":4745:4924   */\ntag_98:\n    /* \"#utility.yul\":4970:4971   */\n  0x01\n    /* \"#utility.yul\":4966:4967   */\n  0x02\n    /* \"#utility.yul\":4958:4964   */\n  dup9\n    /* \"#utility.yul\":4954:4968   */\n  mul\n    /* \"#utility.yul\":4950:4972   */\n  add\n    /* \"#utility.yul\":4944:4948   */\n  dup9\n    /* \"#utility.yul\":4937:4973   */\n  sstore\n    /* \"#utility.yul\":4372:4983   */\n  pop\n  pop\n  pop\n    /* \"#utility.yul\":4335:5222   */\ntag_90:\n  pop\n    /* \"#utility.yul\":3925:5228   */\n  pop\n  pop\n  pop\n    /* \"#utility.yul\":3833:5228   */\n  pop\n  pop\n  jump\t// out\n    /* \"FungibleToken.sol\":249:1723  contract MyToken is ERC20, ERC20Burnable, Ownable {... */\ntag_15:\n  dataSize(sub_0)\n  dup1\n  dataOffset(sub_0)\n  0x00\n  codecopy\n  0x00\n  return\nstop\n\nsub_0: assembly {\n        /* \"FungibleToken.sol\":249:1723  contract MyToken is ERC20, ERC20Burnable, Ownable {... */\n      mstore(0x40, 0x80)\n      jumpi(tag_1, lt(calldatasize, 0x04))\n      shr(0xe0, calldataload(0x00))\n      dup1\n      0x70a08231\n      gt\n      tag_24\n      jumpi\n      dup1\n      0x940bb344\n      gt\n      tag_25\n      jumpi\n      dup1\n      0x940bb344\n      eq\n      tag_18\n      jumpi\n      dup1\n      0x95d89b41\n      eq\n      tag_19\n      jumpi\n      dup1\n      0xa457c2d7\n      eq\n      tag_20\n      jumpi\n      dup1\n      0xa9059cbb\n      eq\n      tag_21\n      jumpi\n      dup1\n      0xdd62ed3e\n      eq\n      tag_22\n      jumpi\n      dup1\n      0xf2fde38b\n      eq\n      tag_23\n      jumpi\n      jump(tag_1)\n    tag_25:\n      dup1\n      0x70a08231\n      eq\n      tag_13\n      jumpi\n      dup1\n      0x715018a6\n      eq\n      tag_14\n      jumpi\n      dup1\n      0x79cc6790\n      eq\n      tag_15\n      jumpi\n      dup1\n      0x7ff9b596\n      eq\n      tag_16\n      jumpi\n      dup1\n      0x8da5cb5b\n      eq\n      tag_17\n      jumpi\n      jump(tag_1)\n    tag_24:\n      dup1\n      0x3610724e\n      gt\n      tag_26\n      jumpi\n      dup1\n      0x3610724e\n      eq\n      tag_7\n      jumpi\n      dup1\n      0x39509351\n      eq\n      tag_8\n      jumpi\n      dup1\n      0x42966c68\n      eq\n      tag_9\n      jumpi\n      dup1\n      0x47f07a8e\n      eq\n      tag_10\n      jumpi\n      dup1\n      0x6a61e5fc\n      eq\n      tag_11\n      jumpi\n      dup1\n      0x6c11bcd3\n      eq\n      tag_12\n      jumpi\n      jump(tag_1)\n    tag_26:\n      dup1\n      0x06fdde03\n      eq\n      tag_2\n      jumpi\n      dup1\n      0x095ea7b3\n      eq\n      tag_3\n      jumpi\n      dup1\n      0x18160ddd\n      eq\n      tag_4\n      jumpi\n      dup1\n      0x23b872dd\n      eq\n      tag_5\n      jumpi\n      dup1\n      0x313ce567\n      eq\n      tag_6\n      jumpi\n    tag_1:\n      0x00\n      dup1\n      revert\n        /* \"@openzeppelin/contracts/token/ERC20/ERC20.sol\":2158:2256  function name() public view virtual override returns (string memory) {... */\n    tag_2:\n      callvalue\n      dup1\n      iszero\n      tag_27\n      jumpi\n      0x00\n      dup1\n      revert\n    tag_27:\n      pop\n      tag_28\n      tag_29\n      jump\t// in\n    tag_28:\n      mload(0x40)\n      tag_30\n      swap2\n      swap1\n      tag_31\n      jump\t// in\n    tag_30:\n      mload(0x40)\n      dup1\n      swap2\n      sub\n      swap1\n      return\n        /* \"@openzeppelin/contracts/token/ERC20/ERC20.sol\":4444:4641  function approve(address spender, uint256 amount) public virtual override returns (bool) {... */\n    tag_3:\n      callvalue\n      dup1\n      iszero\n      tag_32\n      jumpi\n      0x00\n      dup1\n      revert\n    tag_32:\n      pop\n      tag_33\n      0x04\n      dup1\n      calldatasize\n      sub\n      dup2\n      add\n      swap1\n      tag_34\n      swap2\n      swap1\n      tag_35\n      jump\t// in\n    tag_34:\n      tag_36\n      jump\t// in\n    tag_33:\n      mload(0x40)\n      tag_37\n      swap2\n      swap1\n      tag_38\n      jump\t// in\n    tag_37:\n      mload(0x40)\n      dup1\n      swap2\n      sub\n      swap1\n      return\n        /* \"@openzeppelin/contracts/token/ERC20/ERC20.sol\":3255:3361  function totalSupply() public view virtual override returns (uint256) {... */\n    tag_4:\n      callvalue\n      dup1\n      iszero\n      tag_39\n      jumpi\n      0x00\n      dup1\n      revert\n    tag_39:\n      pop\n      tag_40\n      tag_41\n      jump\t// in\n    tag_40:\n      mload(0x40)\n      tag_42\n      swap2\n      swap1\n      tag_43\n      jump\t// in\n    tag_42:\n      mload(0x40)\n      dup1\n      swap2\n      sub\n      swap1\n      return\n        /* \"@openzeppelin/contracts/token/ERC20/ERC20.sol\":5203:5459  function transferFrom(address from, address to, uint256 amount) public virtual override returns (bool) {... */\n    tag_5:\n      callvalue\n      dup1\n      iszero\n      tag_44\n      jumpi\n      0x00\n      dup1\n      revert\n    tag_44:\n      pop\n      tag_45\n      0x04\n      dup1\n      calldatasize\n      sub\n      dup2\n      add\n      swap1\n      tag_46\n      swap2\n      swap1\n      tag_47\n      jump\t// in\n    tag_46:\n      tag_48\n      jump\t// in\n    tag_45:\n      mload(0x40)\n      tag_49\n      swap2\n      swap1\n      tag_38\n      jump\t// in\n    tag_49:\n      mload(0x40)\n      dup1\n      swap2\n      sub\n      swap1\n      return\n        /* \"@openzeppelin/contracts/token/ERC20/ERC20.sol\":3104:3195  function decimals() public view virtual override returns (uint8) {... */\n    tag_6:\n      callvalue\n      dup1\n      iszero\n      tag_50\n      jumpi\n      0x00\n      dup1\n      revert\n    tag_50:\n      pop\n      tag_51\n      tag_52\n      jump\t// in\n    tag_51:\n      mload(0x40)\n      tag_53\n      swap2\n      swap1\n      tag_54\n      jump\t// in\n    tag_53:\n      mload(0x40)\n      dup1\n      swap2\n      sub\n      swap1\n      return\n        /* \"FungibleToken.sol\":539:767  function buyTokens(uint256 _numTokens) external payable {... */\n    tag_7:\n      tag_55\n      0x04\n      dup1\n      calldatasize\n      sub\n      dup2\n      add\n      swap1\n      tag_56\n      swap2\n      swap1\n      tag_57\n      jump\t// in\n    tag_56:\n      tag_58\n      jump\t// in\n    tag_55:\n      stop\n        /* \"@openzeppelin/contracts/token/ERC20/ERC20.sol\":5854:6088  function increaseAllowance(address spender, uint256 addedValue) public virtual returns (bool) {... */\n    tag_8:\n      callvalue\n      dup1\n      iszero\n      tag_59\n      jumpi\n      0x00\n      dup1\n      revert\n    tag_59:\n      pop\n      tag_60\n      0x04\n      dup1\n      calldatasize\n      sub\n      dup2\n      add\n      swap1\n      tag_61\n      swap2\n      swap1\n      tag_35\n      jump\t// in\n    tag_61:\n      tag_62\n      jump\t// in\n    tag_60:\n      mload(0x40)\n      tag_63\n      swap2\n      swap1\n      tag_38\n      jump\t// in\n    tag_63:\n      mload(0x40)\n      dup1\n      swap2\n      sub\n      swap1\n      return\n        /* \"@openzeppelin/contracts/token/ERC20/extensions/ERC20Burnable.sol\":578:667  function burn(uint256 amount) public virtual {... */\n    tag_9:\n      callvalue\n      dup1\n      iszero\n      tag_64\n      jumpi\n      0x00\n      dup1\n      revert\n    tag_64:\n      pop\n      tag_65\n      0x04\n      dup1\n      calldatasize\n      sub\n      dup2\n      add\n      swap1\n      tag_66\n      swap2\n      swap1\n      tag_57\n      jump\t// in\n    tag_66:\n      tag_67\n      jump\t// in\n    tag_65:\n      stop\n        /* \"FungibleToken.sol\":1528:1720  function transferBalanceToOwner() external {... */\n    tag_10:\n      callvalue\n      dup1\n      iszero\n      tag_68\n      jumpi\n      0x00\n      dup1\n      revert\n    tag_68:\n      pop\n      tag_69\n      tag_70\n      jump\t// in\n    tag_69:\n      stop\n        /* \"FungibleToken.sol\":427:529  function setTokenPrice(uint256 _newPrice) external onlyOwner {... */\n    tag_11:\n      callvalue\n      dup1\n      iszero\n      tag_71\n      jumpi\n      0x00\n      dup1\n      revert\n    tag_71:\n      pop\n      tag_72\n      0x04\n      dup1\n      calldatasize\n      sub\n      dup2\n      add\n      swap1\n      tag_73\n      swap2\n      swap1\n      tag_57\n      jump\t// in\n    tag_73:\n      tag_74\n      jump\t// in\n    tag_72:\n      stop\n        /* \"FungibleToken.sol\":775:1278  function sellTokens(uint256 _numTokens) external {... */\n    tag_12:\n      callvalue\n      dup1\n      iszero\n      tag_75\n      jumpi\n      0x00\n      dup1\n      revert\n    tag_75:\n      pop\n      tag_76\n      0x04\n      dup1\n      calldatasize\n      sub\n      dup2\n      add\n      swap1\n      tag_77\n      swap2\n      swap1\n      tag_57\n      jump\t// in\n    tag_77:\n      tag_78\n      jump\t// in\n    tag_76:\n      stop\n        /* \"@openzeppelin/contracts/token/ERC20/ERC20.sol\":3419:3544  function balanceOf(address account) public view virtual override returns (uint256) {... */\n    tag_13:\n      callvalue\n      dup1\n      iszero\n      tag_79\n      jumpi\n      0x00\n      dup1\n      revert\n    tag_79:\n      pop\n      tag_80\n      0x04\n      dup1\n      calldatasize\n      sub\n      dup2\n      add\n      swap1\n      tag_81\n      swap2\n      swap1\n      tag_82\n      jump\t// in\n    tag_81:\n      tag_83\n      jump\t// in\n    tag_80:\n      mload(0x40)\n      tag_84\n      swap2\n      swap1\n      tag_43\n      jump\t// in\n    tag_84:\n      mload(0x40)\n      dup1\n      swap2\n      sub\n      swap1\n      return\n        /* \"@openzeppelin/contracts/access/Ownable.sol\":1824:1925  function renounceOwnership() public virtual onlyOwner {... */\n    tag_14:\n      callvalue\n      dup1\n      iszero\n      tag_85\n      jumpi\n      0x00\n      dup1\n      revert\n    tag_85:\n      pop\n      tag_86\n      tag_87\n      jump\t// in\n    tag_86:\n      stop\n        /* \"@openzeppelin/contracts/token/ERC20/extensions/ERC20Burnable.sol\":973:1134  function burnFrom(address account, uint256 amount) public virtual {... */\n    tag_15:\n      callvalue\n      dup1\n      iszero\n      tag_88\n      jumpi\n      0x00\n      dup1\n      revert\n    tag_88:\n      pop\n      tag_89\n      0x04\n      dup1\n      calldatasize\n      sub\n      dup2\n      add\n      swap1\n      tag_90\n      swap2\n      swap1\n      tag_35\n      jump\t// in\n    tag_90:\n      tag_91\n      jump\t// in\n    tag_89:\n      stop\n        /* \"FungibleToken.sol\":306:331  uint256 public tokenPrice */\n    tag_16:\n      callvalue\n      dup1\n      iszero\n      tag_92\n      jumpi\n      0x00\n      dup1\n      revert\n    tag_92:\n      pop\n      tag_93\n      tag_94\n      jump\t// in\n    tag_93:\n      mload(0x40)\n      tag_95\n      swap2\n      swap1\n      tag_43\n      jump\t// in\n    tag_95:\n      mload(0x40)\n      dup1\n      swap2\n      sub\n      swap1\n      return\n        /* \"@openzeppelin/contracts/access/Ownable.sol\":1201:1286  function owner() public view virtual returns (address) {... */\n    tag_17:\n      callvalue\n      dup1\n      iszero\n      tag_96\n      jumpi\n      0x00\n      dup1\n      revert\n    tag_96:\n      pop\n      tag_97\n      tag_98\n      jump\t// in\n    tag_97:\n      mload(0x40)\n      tag_99\n      swap2\n      swap1\n      tag_100\n      jump\t// in\n    tag_99:\n      mload(0x40)\n      dup1\n      swap2\n      sub\n      swap1\n      return\n        /* \"FungibleToken.sol\":1286:1522  function burnUnsoldTokens() external onlyOwner {... */\n    tag_18:\n      callvalue\n      dup1\n      iszero\n      tag_101\n      jumpi\n      0x00\n      dup1\n      revert\n    tag_101:\n      pop\n      tag_102\n      tag_103\n      jump\t// in\n    tag_102:\n      stop\n        /* \"@openzeppelin/contracts/token/ERC20/ERC20.sol\":2369:2471  function symbol() public view virtual override returns (string memory) {... */\n    tag_19:\n      callvalue\n      dup1\n      iszero\n      tag_104\n      jumpi\n      0x00\n      dup1\n      revert\n    tag_104:\n      pop\n      tag_105\n      tag_106\n      jump\t// in\n    tag_105:\n      mload(0x40)\n      tag_107\n      swap2\n      swap1\n      tag_31\n      jump\t// in\n    tag_107:\n      mload(0x40)\n      dup1\n      swap2\n      sub\n      swap1\n      return\n        /* \"@openzeppelin/contracts/token/ERC20/ERC20.sol\":6575:7002  function decreaseAllowance(address spender, uint256 subtractedValue) public virtual returns (bool) {... */\n    tag_20:\n      callvalue\n      dup1\n      iszero\n      tag_108\n      jumpi\n      0x00\n      dup1\n      revert\n    tag_108:\n      pop\n      tag_109\n      0x04\n      dup1\n      calldatasize\n      sub\n      dup2\n      add\n      swap1\n      tag_110\n      swap2\n      swap1\n      tag_35\n      jump\t// in\n    tag_110:\n      tag_111\n      jump\t// in\n    tag_109:\n      mload(0x40)\n      tag_112\n      swap2\n      swap1\n      tag_38\n      jump\t// in\n    tag_112:\n      mload(0x40)\n      dup1\n      swap2\n      sub\n      swap1\n      return\n        /* \"@openzeppelin/contracts/token/ERC20/ERC20.sol\":3740:3929  function transfer(address to, uint256 amount) public virtual override returns (bool) {... */\n    tag_21:\n      callvalue\n      dup1\n      iszero\n      tag_113\n      jumpi\n      0x00\n      dup1\n      revert\n    tag_113:\n      pop\n      tag_114\n      0x04\n      dup1\n      calldatasize\n      sub\n      dup2\n      add\n      swap1\n      tag_115\n      swap2\n      swap1\n      tag_35\n      jump\t// in\n    tag_115:\n      tag_116\n      jump\t// in\n    tag_114:\n      mload(0x40)\n      tag_117\n      swap2\n      swap1\n      tag_38\n      jump\t// in\n    tag_117:\n      mload(0x40)\n      dup1\n      swap2\n      sub\n      swap1\n      return\n        /* \"@openzeppelin/contracts/token/ERC20/ERC20.sol\":3987:4136  function allowance(address owner, address spender) public view virtual override returns (uint256) {... */\n    tag_22:\n      callvalue\n      dup1\n      iszero\n      tag_118\n      jumpi\n      0x00\n      dup1\n      revert\n    tag_118:\n      pop\n      tag_119\n      0x04\n      dup1\n      calldatasize\n      sub\n      dup2\n      add\n      swap1\n      tag_120\n      swap2\n      swap1\n      tag_121\n      jump\t// in\n    tag_120:\n      tag_122\n      jump\t// in\n    tag_119:\n      mload(0x40)\n      tag_123\n      swap2\n      swap1\n      tag_43\n      jump\t// in\n    tag_123:\n      mload(0x40)\n      dup1\n      swap2\n      sub\n      swap1\n      return\n        /* \"@openzeppelin/contracts/access/Ownable.sol\":2074:2272  function transferOwnership(address newOwner) public virtual onlyOwner {... */\n    tag_23:\n      callvalue\n      dup1\n      iszero\n      tag_124\n      jumpi\n      0x00\n      dup1\n      revert\n    tag_124:\n      pop\n      tag_125\n      0x04\n      dup1\n      calldatasize\n      sub\n      dup2\n      add\n      swap1\n      tag_126\n      swap2\n      swap1\n      tag_82\n      jump\t// in\n    tag_126:\n      tag_127\n      jump\t// in\n    tag_125:\n      stop\n        /* \"@openzeppelin/contracts/token/ERC20/ERC20.sol\":2158:2256  function name() public view virtual override returns (string memory) {... */\n    tag_29:\n        /* \"@openzeppelin/contracts/token/ERC20/ERC20.sol\":2212:2225  string memory */\n      0x60\n        /* \"@openzeppelin/contracts/token/ERC20/ERC20.sol\":2244:2249  _name */\n      0x03\n        /* \"@openzeppelin/contracts/token/ERC20/ERC20.sol\":2237:2249  return _name */\n      dup1\n      sload\n      tag_129\n      swap1\n      tag_130\n      jump\t// in\n    tag_129:\n      dup1\n      0x1f\n      add\n      0x20\n      dup1\n      swap2\n      div\n      mul\n      0x20\n      add\n      mload(0x40)\n      swap1\n      dup2\n      add\n      0x40\n      mstore\n      dup1\n      swap3\n      swap2\n      swap1\n      dup2\n      dup2\n      mstore\n      0x20\n      add\n      dup3\n      dup1\n      sload\n      tag_131\n      swap1\n      tag_130\n      jump\t// in\n    tag_131:\n      dup1\n      iszero\n      tag_132\n      jumpi\n      dup1\n      0x1f\n      lt\n      tag_133\n      jumpi\n      0x0100\n      dup1\n      dup4\n      sload\n      div\n      mul\n      dup4\n      mstore\n      swap2\n      0x20\n      add\n      swap2\n      jump(tag_132)\n    tag_133:\n      dup3\n      add\n      swap2\n      swap1\n      0x00\n      mstore\n      keccak256(0x00, 0x20)\n      swap1\n    tag_134:\n      dup2\n      sload\n      dup2\n      mstore\n      swap1\n      0x01\n      add\n      swap1\n      0x20\n      add\n      dup1\n      dup4\n      gt\n      tag_134\n      jumpi\n      dup3\n      swap1\n      sub\n      0x1f\n      and\n      dup3\n      add\n      swap2\n    tag_132:\n      pop\n      pop\n      pop\n      pop\n      pop\n      swap1\n      pop\n        /* \"@openzeppelin/contracts/token/ERC20/ERC20.sol\":2158:2256  function name() public view virtual override returns (string memory) {... */\n      swap1\n      jump\t// out\n        /* \"@openzeppelin/contracts/token/ERC20/ERC20.sol\":4444:4641  function approve(address spender, uint256 amount) public virtual override returns (bool) {... */\n    tag_36:\n        /* \"@openzeppelin/contracts/token/ERC20/ERC20.sol\":4527:4531  bool */\n      0x00\n        /* \"@openzeppelin/contracts/token/ERC20/ERC20.sol\":4543:4556  address owner */\n      dup1\n        /* \"@openzeppelin/contracts/token/ERC20/ERC20.sol\":4559:4571  _msgSender() */\n      tag_136\n        /* \"@openzeppelin/contracts/token/ERC20/ERC20.sol\":4559:4569  _msgSender */\n      tag_137\n        /* \"@openzeppelin/contracts/token/ERC20/ERC20.sol\":4559:4571  _msgSender() */\n      jump\t// in\n    tag_136:\n        /* \"@openzeppelin/contracts/token/ERC20/ERC20.sol\":4543:4571  address owner = _msgSender() */\n      swap1\n      pop\n        /* \"@openzeppelin/contracts/token/ERC20/ERC20.sol\":4581:4613  _approve(owner, spender, amount) */\n      tag_138\n        /* \"@openzeppelin/contracts/token/ERC20/ERC20.sol\":4590:4595  owner */\n      dup2\n        /* \"@openzeppelin/contracts/token/ERC20/ERC20.sol\":4597:4604  spender */\n      dup6\n        /* \"@openzeppelin/contracts/token/ERC20/ERC20.sol\":4606:4612  amount */\n      dup6\n        /* \"@openzeppelin/contracts/token/ERC20/ERC20.sol\":4581:4589  _approve */\n      tag_139\n        /* \"@openzeppelin/contracts/token/ERC20/ERC20.sol\":4581:4613  _approve(owner, spender, amount) */\n      jump\t// in\n    tag_138:\n        /* \"@openzeppelin/contracts/token/ERC20/ERC20.sol\":4630:4634  true */\n      0x01\n        /* \"@openzeppelin/contracts/token/ERC20/ERC20.sol\":4623:4634  return true */\n      swap2\n      pop\n      pop\n        /* \"@openzeppelin/contracts/token/ERC20/ERC20.sol\":4444:4641  function approve(address spender, uint256 amount) public virtual override returns (bool) {... */\n      swap3\n      swap2\n      pop\n      pop\n      jump\t// out\n        /* \"@openzeppelin/contracts/token/ERC20/ERC20.sol\":3255:3361  function totalSupply() public view virtual override returns (uint256) {... */\n    tag_41:\n        /* \"@openzeppelin/contracts/token/ERC20/ERC20.sol\":3316:3323  uint256 */\n      0x00\n        /* \"@openzeppelin/contracts/token/ERC20/ERC20.sol\":3342:3354  _totalSupply */\n      sload(0x02)\n        /* \"@openzeppelin/contracts/token/ERC20/ERC20.sol\":3335:3354  return _totalSupply */\n      swap1\n      pop\n        /* \"@openzeppelin/contracts/token/ERC20/ERC20.sol\":3255:3361  function totalSupply() public view virtual override returns (uint256) {... */\n      swap1\n      jump\t// out\n        /* \"@openzeppelin/contracts/token/ERC20/ERC20.sol\":5203:5459  function transferFrom(address from, address to, uint256 amount) public virtual override returns (bool) {... */\n    tag_48:\n        /* \"@openzeppelin/contracts/token/ERC20/ERC20.sol\":5300:5304  bool */\n      0x00\n        /* \"@openzeppelin/contracts/token/ERC20/ERC20.sol\":5316:5331  address spender */\n      dup1\n        /* \"@openzeppelin/contracts/token/ERC20/ERC20.sol\":5334:5346  _msgSender() */\n      tag_142\n        /* \"@openzeppelin/contracts/token/ERC20/ERC20.sol\":5334:5344  _msgSender */\n      tag_137\n        /* \"@openzeppelin/contracts/token/ERC20/ERC20.sol\":5334:5346  _msgSender() */\n      jump\t// in\n    tag_142:\n        /* \"@openzeppelin/contracts/token/ERC20/ERC20.sol\":5316:5346  address spender = _msgSender() */\n      swap1\n      pop\n        /* \"@openzeppelin/contracts/token/ERC20/ERC20.sol\":5356:5394  _spendAllowance(from, spender, amount) */\n      tag_143\n        /* \"@openzeppelin/contracts/token/ERC20/ERC20.sol\":5372:5376  from */\n      dup6\n        /* \"@openzeppelin/contracts/token/ERC20/ERC20.sol\":5378:5385  spender */\n      dup3\n        /* \"@openzeppelin/contracts/token/ERC20/ERC20.sol\":5387:5393  amount */\n      dup6\n        /* \"@openzeppelin/contracts/token/ERC20/ERC20.sol\":5356:5371  _spendAllowance */\n      tag_144\n        /* \"@openzeppelin/contracts/token/ERC20/ERC20.sol\":5356:5394  _spendAllowance(from, spender, amount) */\n      jump\t// in\n    tag_143:\n        /* \"@openzeppelin/contracts/token/ERC20/ERC20.sol\":5404:5431  _transfer(from, to, amount) */\n      tag_145\n        /* \"@openzeppelin/contracts/token/ERC20/ERC20.sol\":5414:5418  from */\n      dup6\n        /* \"@openzeppelin/contracts/token/ERC20/ERC20.sol\":5420:5422  to */\n      dup6\n        /* \"@openzeppelin/contracts/token/ERC20/ERC20.sol\":5424:5430  amount */\n      dup6\n        /* \"@openzeppelin/contracts/token/ERC20/ERC20.sol\":5404:5413  _transfer */\n      tag_146\n        /* \"@openzeppelin/contracts/token/ERC20/ERC20.sol\":5404:5431  _transfer(from, to, amount) */\n      jump\t// in\n    tag_145:\n        /* \"@openzeppelin/contracts/token/ERC20/ERC20.sol\":5448:5452  true */\n      0x01\n        /* \"@openzeppelin/contracts/token/ERC20/ERC20.sol\":5441:5452  return true */\n      swap2\n      pop\n      pop\n        /* \"@openzeppelin/contracts/token/ERC20/ERC20.sol\":5203:5459  function transferFrom(address from, address to, uint256 amount) public virtual override returns (bool) {... */\n      swap4\n      swap3\n      pop\n      pop\n      pop\n      jump\t// out\n        /* \"@openzeppelin/contracts/token/ERC20/ERC20.sol\":3104:3195  function decimals() public view virtual override returns (uint8) {... */\n    tag_52:\n        /* \"@openzeppelin/contracts/token/ERC20/ERC20.sol\":3162:3167  uint8 */\n      0x00\n        /* \"@openzeppelin/contracts/token/ERC20/ERC20.sol\":3186:3188  18 */\n      0x12\n        /* \"@openzeppelin/contracts/token/ERC20/ERC20.sol\":3179:3188  return 18 */\n      swap1\n      pop\n        /* \"@openzeppelin/contracts/token/ERC20/ERC20.sol\":3104:3195  function decimals() public view virtual override returns (uint8) {... */\n      swap1\n      jump\t// out\n        /* \"FungibleToken.sol\":539:767  function buyTokens(uint256 _numTokens) external payable {... */\n    tag_58:\n        /* \"FungibleToken.sol\":606:623  uint256 totalCost */\n      0x00\n        /* \"FungibleToken.sol\":639:649  tokenPrice */\n      sload(0x06)\n        /* \"FungibleToken.sol\":626:636  _numTokens */\n      dup3\n        /* \"FungibleToken.sol\":626:649  _numTokens * tokenPrice */\n      tag_149\n      swap2\n      swap1\n      tag_150\n      jump\t// in\n    tag_149:\n        /* \"FungibleToken.sol\":606:649  uint256 totalCost = _numTokens * tokenPrice */\n      swap1\n      pop\n        /* \"FungibleToken.sol\":681:690  totalCost */\n      dup1\n        /* \"FungibleToken.sol\":668:677  msg.value */\n      callvalue\n        /* \"FungibleToken.sol\":668:690  msg.value >= totalCost */\n      lt\n      iszero\n        /* \"FungibleToken.sol\":660:719  require(msg.value >= totalCost, \"Insufficient ethers sent\") */\n      tag_151\n      jumpi\n      mload(0x40)\n      0x08c379a000000000000000000000000000000000000000000000000000000000\n      dup2\n      mstore\n      0x04\n      add\n      tag_152\n      swap1\n      tag_153\n      jump\t// in\n    tag_152:\n      mload(0x40)\n      dup1\n      swap2\n      sub\n      swap1\n      revert\n    tag_151:\n        /* \"FungibleToken.sol\":730:759  _mint(msg.sender, _numTokens) */\n      tag_154\n        /* \"FungibleToken.sol\":736:746  msg.sender */\n      caller\n        /* \"FungibleToken.sol\":748:758  _numTokens */\n      dup4\n        /* \"FungibleToken.sol\":730:735  _mint */\n      tag_155\n        /* \"FungibleToken.sol\":730:759  _mint(msg.sender, _numTokens) */\n      jump\t// in\n    tag_154:\n        /* \"FungibleToken.sol\":595:767  {... */\n      pop\n        /* \"FungibleToken.sol\":539:767  function buyTokens(uint256 _numTokens) external payable {... */\n      pop\n      jump\t// out\n        /* \"@openzeppelin/contracts/token/ERC20/ERC20.sol\":5854:6088  function increaseAllowance(address spender, uint256 addedValue) public virtual returns (bool) {... */\n    tag_62:\n        /* \"@openzeppelin/contracts/token/ERC20/ERC20.sol\":5942:5946  bool */\n      0x00\n        /* \"@openzeppelin/contracts/token/ERC20/ERC20.sol\":5958:5971  address owner */\n      dup1\n        /* \"@openzeppelin/contracts/token/ERC20/ERC20.sol\":5974:5986  _msgSender() */\n      tag_157\n        /* \"@openzeppelin/contracts/token/ERC20/ERC20.sol\":5974:5984  _msgSender */\n      tag_137\n        /* \"@openzeppelin/contracts/token/ERC20/ERC20.sol\":5974:5986  _msgSender() */\n      jump\t// in\n    tag_157:\n        /* \"@openzeppelin/contracts/token/ERC20/ERC20.sol\":5958:5986  address owner = _msgSender() */\n      swap1\n      pop\n        /* \"@openzeppelin/contracts/token/ERC20/ERC20.sol\":5996:6060  _approve(owner, spender, allowance(owner, spender) + addedValue) */\n      tag_158\n        /* \"@openzeppelin/contracts/token/ERC20/ERC20.sol\":6005:6010  owner */\n      dup2\n        /* \"@openzeppelin/contracts/token/ERC20/ERC20.sol\":6012:6019  spender */\n      dup6\n        /* \"@openzeppelin/contracts/token/ERC20/ERC20.sol\":6049:6059  addedValue */\n      dup6\n        /* \"@openzeppelin/contracts/token/ERC20/ERC20.sol\":6021:6046  allowance(owner, spender) */\n      tag_159\n        /* \"@openzeppelin/contracts/token/ERC20/ERC20.sol\":6031:6036  owner */\n      dup6\n        /* \"@openzeppelin/contracts/token/ERC20/ERC20.sol\":6038:6045  spender */\n      dup10\n        /* \"@openzeppelin/contracts/token/ERC20/ERC20.sol\":6021:6030  allowance */\n      tag_122\n        /* \"@openzeppelin/contracts/token/ERC20/ERC20.sol\":6021:6046  allowance(owner, spender) */\n      jump\t// in\n    tag_159:\n        /* \"@openzeppelin/contracts/token/ERC20/ERC20.sol\":6021:6059  allowance(owner, spender) + addedValue */\n      tag_160\n      swap2\n      swap1\n      tag_161\n      jump\t// in\n    tag_160:\n        /* \"@openzeppelin/contracts/token/ERC20/ERC20.sol\":5996:6004  _approve */\n      tag_139\n        /* \"@openzeppelin/contracts/token/ERC20/ERC20.sol\":5996:6060  _approve(owner, spender, allowance(owner, spender) + addedValue) */\n      jump\t// in\n    tag_158:\n        /* \"@openzeppelin/contracts/token/ERC20/ERC20.sol\":6077:6081  true */\n      0x01\n        /* \"@openzeppelin/contracts/token/ERC20/ERC20.sol\":6070:6081  return true */\n      swap2\n      pop\n      pop\n        /* \"@openzeppelin/contracts/token/ERC20/ERC20.sol\":5854:6088  function increaseAllowance(address spender, uint256 addedValue) public virtual returns (bool) {... */\n      swap3\n      swap2\n      pop\n      pop\n      jump\t// out\n        /* \"@openzeppelin/contracts/token/ERC20/extensions/ERC20Burnable.sol\":578:667  function burn(uint256 amount) public virtual {... */\n    tag_67:\n        /* \"@openzeppelin/contracts/token/ERC20/extensions/ERC20Burnable.sol\":633:660  _burn(_msgSender(), amount) */\n      tag_163\n        /* \"@openzeppelin/contracts/token/ERC20/extensions/ERC20Burnable.sol\":639:651  _msgSender() */\n      tag_164\n        /* \"@openzeppelin/contracts/token/ERC20/extensions/ERC20Burnable.sol\":639:649  _msgSender */\n      tag_137\n        /* \"@openzeppelin/contracts/token/ERC20/extensions/ERC20Burnable.sol\":639:651  _msgSender() */\n      jump\t// in\n    tag_164:\n        /* \"@openzeppelin/contracts/token/ERC20/extensions/ERC20Burnable.sol\":653:659  amount */\n      dup3\n        /* \"@openzeppelin/contracts/token/ERC20/extensions/ERC20Burnable.sol\":633:638  _burn */\n      tag_165\n        /* \"@openzeppelin/contracts/token/ERC20/extensions/ERC20Burnable.sol\":633:660  _burn(_msgSender(), amount) */\n      jump\t// in\n    tag_163:\n        /* \"@openzeppelin/contracts/token/ERC20/extensions/ERC20Burnable.sol\":578:667  function burn(uint256 amount) public virtual {... */\n      pop\n      jump\t// out\n        /* \"FungibleToken.sol\":1528:1720  function transferBalanceToOwner() external {... */\n    tag_70:\n        /* \"FungibleToken.sol\":1604:1611  owner() */\n      tag_167\n        /* \"FungibleToken.sol\":1604:1609  owner */\n      tag_98\n        /* \"FungibleToken.sol\":1604:1611  owner() */\n      jump\t// in\n    tag_167:\n        /* \"FungibleToken.sol\":1590:1611  msg.sender == owner() */\n      0xffffffffffffffffffffffffffffffffffffffff\n      and\n        /* \"FungibleToken.sol\":1590:1600  msg.sender */\n      caller\n        /* \"FungibleToken.sol\":1590:1611  msg.sender == owner() */\n      0xffffffffffffffffffffffffffffffffffffffff\n      and\n      eq\n        /* \"FungibleToken.sol\":1582:1653  require(msg.sender == owner(), \"Only the owner can call this function\") */\n      tag_168\n      jumpi\n      mload(0x40)\n      0x08c379a000000000000000000000000000000000000000000000000000000000\n      dup2\n      mstore\n      0x04\n      add\n      tag_169\n      swap1\n      tag_170\n      jump\t// in\n    tag_169:\n      mload(0x40)\n      dup1\n      swap2\n      sub\n      swap1\n      revert\n    tag_168:\n        /* \"FungibleToken.sol\":1672:1679  owner() */\n      tag_171\n        /* \"FungibleToken.sol\":1672:1677  owner */\n      tag_98\n        /* \"FungibleToken.sol\":1672:1679  owner() */\n      jump\t// in\n    tag_171:\n        /* \"FungibleToken.sol\":1664:1689  payable(owner()).transfer */\n      0xffffffffffffffffffffffffffffffffffffffff\n      and\n        /* \"FungibleToken.sol\":1664:1712  payable(owner()).transfer(address(this).balance) */\n      0x08fc\n        /* \"FungibleToken.sol\":1690:1711  address(this).balance */\n      selfbalance\n        /* \"FungibleToken.sol\":1664:1712  payable(owner()).transfer(address(this).balance) */\n      swap1\n      dup2\n      iszero\n      mul\n      swap1\n      mload(0x40)\n      0x00\n      mload(0x40)\n      dup1\n      dup4\n      sub\n      dup2\n      dup6\n      dup9\n      dup9\n      call\n      swap4\n      pop\n      pop\n      pop\n      pop\n      iszero\n      dup1\n      iszero\n      tag_173\n      jumpi\n      returndatasize\n      0x00\n      dup1\n      returndatacopy\n      revert(0x00, returndatasize)\n    tag_173:\n      pop\n        /* \"FungibleToken.sol\":1528:1720  function transferBalanceToOwner() external {... */\n      jump\t// out\n        /* \"FungibleToken.sol\":427:529  function setTokenPrice(uint256 _newPrice) external onlyOwner {... */\n    tag_74:\n        /* \"@openzeppelin/contracts/access/Ownable.sol\":1094:1107  _checkOwner() */\n      tag_175\n        /* \"@openzeppelin/contracts/access/Ownable.sol\":1094:1105  _checkOwner */\n      tag_176\n        /* \"@openzeppelin/contracts/access/Ownable.sol\":1094:1107  _checkOwner() */\n      jump\t// in\n    tag_175:\n        /* \"FungibleToken.sol\":512:521  _newPrice */\n      dup1\n        /* \"FungibleToken.sol\":499:509  tokenPrice */\n      0x06\n        /* \"FungibleToken.sol\":499:521  tokenPrice = _newPrice */\n      dup2\n      swap1\n      sstore\n      pop\n        /* \"FungibleToken.sol\":427:529  function setTokenPrice(uint256 _newPrice) external onlyOwner {... */\n      pop\n      jump\t// out\n        /* \"FungibleToken.sol\":775:1278  function sellTokens(uint256 _numTokens) external {... */\n    tag_78:\n        /* \"FungibleToken.sol\":868:878  _numTokens */\n      dup1\n        /* \"FungibleToken.sol\":843:864  balanceOf(msg.sender) */\n      tag_179\n        /* \"FungibleToken.sol\":853:863  msg.sender */\n      caller\n        /* \"FungibleToken.sol\":843:852  balanceOf */\n      tag_83\n        /* \"FungibleToken.sol\":843:864  balanceOf(msg.sender) */\n      jump\t// in\n    tag_179:\n        /* \"FungibleToken.sol\":843:878  balanceOf(msg.sender) >= _numTokens */\n      lt\n      iszero\n        /* \"FungibleToken.sol\":835:902  require(balanceOf(msg.sender) >= _numTokens, \"Insufficient tokens\") */\n      tag_180\n      jumpi\n      mload(0x40)\n      0x08c379a000000000000000000000000000000000000000000000000000000000\n      dup2\n      mstore\n      0x04\n      add\n      tag_181\n      swap1\n      tag_182\n      jump\t// in\n    tag_181:\n      mload(0x40)\n      dup1\n      swap2\n      sub\n      swap1\n      revert\n    tag_180:\n        /* \"FungibleToken.sol\":943:953  _numTokens */\n      dup1\n        /* \"FungibleToken.sol\":921:939  balanceOf(owner()) */\n      tag_183\n        /* \"FungibleToken.sol\":931:938  owner() */\n      tag_184\n        /* \"FungibleToken.sol\":931:936  owner */\n      tag_98\n        /* \"FungibleToken.sol\":931:938  owner() */\n      jump\t// in\n    tag_184:\n        /* \"FungibleToken.sol\":921:930  balanceOf */\n      tag_83\n        /* \"FungibleToken.sol\":921:939  balanceOf(owner()) */\n      jump\t// in\n    tag_183:\n        /* \"FungibleToken.sol\":921:953  balanceOf(owner()) >= _numTokens */\n      lt\n      iszero\n        /* \"FungibleToken.sol\":913:994  require(balanceOf(owner()) >= _numTokens, \"Not enough tokens in owner's balance\") */\n      tag_185\n      jumpi\n      mload(0x40)\n      0x08c379a000000000000000000000000000000000000000000000000000000000\n      dup2\n      mstore\n      0x04\n      add\n      tag_186\n      swap1\n      tag_187\n      jump\t// in\n    tag_186:\n      mload(0x40)\n      dup1\n      swap2\n      sub\n      swap1\n      revert\n    tag_185:\n        /* \"FungibleToken.sol\":1007:1027  uint256 refundAmount */\n      0x00\n        /* \"FungibleToken.sol\":1043:1053  tokenPrice */\n      sload(0x06)\n        /* \"FungibleToken.sol\":1030:1040  _numTokens */\n      dup3\n        /* \"FungibleToken.sol\":1030:1053  _numTokens * tokenPrice */\n      tag_188\n      swap2\n      swap1\n      tag_150\n      jump\t// in\n    tag_188:\n        /* \"FungibleToken.sol\":1007:1053  uint256 refundAmount = _numTokens * tokenPrice */\n      swap1\n      pop\n        /* \"FungibleToken.sol\":1097:1109  refundAmount */\n      dup1\n        /* \"FungibleToken.sol\":1072:1093  address(this).balance */\n      selfbalance\n        /* \"FungibleToken.sol\":1072:1109  address(this).balance >= refundAmount */\n      lt\n      iszero\n        /* \"FungibleToken.sol\":1064:1160  require(address(this).balance >= refundAmount, \"Contract does not have enough ethers to refund\") */\n      tag_189\n      jumpi\n      mload(0x40)\n      0x08c379a000000000000000000000000000000000000000000000000000000000\n      dup2\n      mstore\n      0x04\n      add\n      tag_190\n      swap1\n      tag_191\n      jump\t// in\n    tag_190:\n      mload(0x40)\n      dup1\n      swap2\n      sub\n      swap1\n      revert\n    tag_189:\n        /* \"FungibleToken.sol\":1173:1202  _burn(msg.sender, _numTokens) */\n      tag_192\n        /* \"FungibleToken.sol\":1179:1189  msg.sender */\n      caller\n        /* \"FungibleToken.sol\":1191:1201  _numTokens */\n      dup4\n        /* \"FungibleToken.sol\":1173:1178  _burn */\n      tag_165\n        /* \"FungibleToken.sol\":1173:1202  _burn(msg.sender, _numTokens) */\n      jump\t// in\n    tag_192:\n        /* \"FungibleToken.sol\":1236:1246  msg.sender */\n      caller\n        /* \"FungibleToken.sol\":1228:1256  payable(msg.sender).transfer */\n      0xffffffffffffffffffffffffffffffffffffffff\n      and\n        /* \"FungibleToken.sol\":1228:1270  payable(msg.sender).transfer(refundAmount) */\n      0x08fc\n        /* \"FungibleToken.sol\":1257:1269  refundAmount */\n      dup3\n        /* \"FungibleToken.sol\":1228:1270  payable(msg.sender).transfer(refundAmount) */\n      swap1\n      dup2\n      iszero\n      mul\n      swap1\n      mload(0x40)\n      0x00\n      mload(0x40)\n      dup1\n      dup4\n      sub\n      dup2\n      dup6\n      dup9\n      dup9\n      call\n      swap4\n      pop\n      pop\n      pop\n      pop\n      iszero\n      dup1\n      iszero\n      tag_194\n      jumpi\n      returndatasize\n      0x00\n      dup1\n      returndatacopy\n      revert(0x00, returndatasize)\n    tag_194:\n      pop\n        /* \"FungibleToken.sol\":824:1278  {... */\n      pop\n        /* \"FungibleToken.sol\":775:1278  function sellTokens(uint256 _numTokens) external {... */\n      pop\n      jump\t// out\n        /* \"@openzeppelin/contracts/token/ERC20/ERC20.sol\":3419:3544  function balanceOf(address account) public view virtual override returns (uint256) {... */\n    tag_83:\n        /* \"@openzeppelin/contracts/token/ERC20/ERC20.sol\":3493:3500  uint256 */\n      0x00\n        /* \"@openzeppelin/contracts/token/ERC20/ERC20.sol\":3519:3528  _balances */\n      dup1\n        /* \"@openzeppelin/contracts/token/ERC20/ERC20.sol\":3519:3537  _balances[account] */\n      0x00\n        /* \"@openzeppelin/contracts/token/ERC20/ERC20.sol\":3529:3536  account */\n      dup4\n        /* \"@openzeppelin/contracts/token/ERC20/ERC20.sol\":3519:3537  _balances[account] */\n      0xffffffffffffffffffffffffffffffffffffffff\n      and\n      0xffffffffffffffffffffffffffffffffffffffff\n      and\n      dup2\n      mstore\n      0x20\n      add\n      swap1\n      dup2\n      mstore\n      0x20\n      add\n      0x00\n      keccak256\n      sload\n        /* \"@openzeppelin/contracts/token/ERC20/ERC20.sol\":3512:3537  return _balances[account] */\n      swap1\n      pop\n        /* \"@openzeppelin/contracts/token/ERC20/ERC20.sol\":3419:3544  function balanceOf(address account) public view virtual override returns (uint256) {... */\n      swap2\n      swap1\n      pop\n      jump\t// out\n        /* \"@openzeppelin/contracts/access/Ownable.sol\":1824:1925  function renounceOwnership() public virtual onlyOwner {... */\n    tag_87:\n        /* \"@openzeppelin/contracts/access/Ownable.sol\":1094:1107  _checkOwner() */\n      tag_197\n        /* \"@openzeppelin/contracts/access/Ownable.sol\":1094:1105  _checkOwner */\n      tag_176\n        /* \"@openzeppelin/contracts/access/Ownable.sol\":1094:1107  _checkOwner() */\n      jump\t// in\n    tag_197:\n        /* \"@openzeppelin/contracts/access/Ownable.sol\":1888:1918  _transferOwnership(address(0)) */\n      tag_199\n        /* \"@openzeppelin/contracts/access/Ownable.sol\":1915:1916  0 */\n      0x00\n        /* \"@openzeppelin/contracts/access/Ownable.sol\":1888:1906  _transferOwnership */\n      tag_200\n        /* \"@openzeppelin/contracts/access/Ownable.sol\":1888:1918  _transferOwnership(address(0)) */\n      jump\t// in\n    tag_199:\n        /* \"@openzeppelin/contracts/access/Ownable.sol\":1824:1925  function renounceOwnership() public virtual onlyOwner {... */\n      jump\t// out\n        /* \"@openzeppelin/contracts/token/ERC20/extensions/ERC20Burnable.sol\":973:1134  function burnFrom(address account, uint256 amount) public virtual {... */\n    tag_91:\n        /* \"@openzeppelin/contracts/token/ERC20/extensions/ERC20Burnable.sol\":1049:1095  _spendAllowance(account, _msgSender(), amount) */\n      tag_202\n        /* \"@openzeppelin/contracts/token/ERC20/extensions/ERC20Burnable.sol\":1065:1072  account */\n      dup3\n        /* \"@openzeppelin/contracts/token/ERC20/extensions/ERC20Burnable.sol\":1074:1086  _msgSender() */\n      tag_203\n        /* \"@openzeppelin/contracts/token/ERC20/extensions/ERC20Burnable.sol\":1074:1084  _msgSender */\n      tag_137\n        /* \"@openzeppelin/contracts/token/ERC20/extensions/ERC20Burnable.sol\":1074:1086  _msgSender() */\n      jump\t// in\n    tag_203:\n        /* \"@openzeppelin/contracts/token/ERC20/extensions/ERC20Burnable.sol\":1088:1094  amount */\n      dup4\n        /* \"@openzeppelin/contracts/token/ERC20/extensions/ERC20Burnable.sol\":1049:1064  _spendAllowance */\n      tag_144\n        /* \"@openzeppelin/contracts/token/ERC20/extensions/ERC20Burnable.sol\":1049:1095  _spendAllowance(account, _msgSender(), amount) */\n      jump\t// in\n    tag_202:\n        /* \"@openzeppelin/contracts/token/ERC20/extensions/ERC20Burnable.sol\":1105:1127  _burn(account, amount) */\n      tag_204\n        /* \"@openzeppelin/contracts/token/ERC20/extensions/ERC20Burnable.sol\":1111:1118  account */\n      dup3\n        /* \"@openzeppelin/contracts/token/ERC20/extensions/ERC20Burnable.sol\":1120:1126  amount */\n      dup3\n        /* \"@openzeppelin/contracts/token/ERC20/extensions/ERC20Burnable.sol\":1105:1110  _burn */\n      tag_165\n        /* \"@openzeppelin/contracts/token/ERC20/extensions/ERC20Burnable.sol\":1105:1127  _burn(account, amount) */\n      jump\t// in\n    tag_204:\n        /* \"@openzeppelin/contracts/token/ERC20/extensions/ERC20Burnable.sol\":973:1134  function burnFrom(address account, uint256 amount) public virtual {... */\n      pop\n      pop\n      jump\t// out\n        /* \"FungibleToken.sol\":306:331  uint256 public tokenPrice */\n    tag_94:\n      sload(0x06)\n      dup2\n      jump\t// out\n        /* \"@openzeppelin/contracts/access/Ownable.sol\":1201:1286  function owner() public view virtual returns (address) {... */\n    tag_98:\n        /* \"@openzeppelin/contracts/access/Ownable.sol\":1247:1254  address */\n      0x00\n        /* \"@openzeppelin/contracts/access/Ownable.sol\":1273:1279  _owner */\n      0x05\n      0x00\n      swap1\n      sload\n      swap1\n      0x0100\n      exp\n      swap1\n      div\n      0xffffffffffffffffffffffffffffffffffffffff\n      and\n        /* \"@openzeppelin/contracts/access/Ownable.sol\":1266:1279  return _owner */\n      swap1\n      pop\n        /* \"@openzeppelin/contracts/access/Ownable.sol\":1201:1286  function owner() public view virtual returns (address) {... */\n      swap1\n      jump\t// out\n        /* \"FungibleToken.sol\":1286:1522  function burnUnsoldTokens() external onlyOwner {... */\n    tag_103:\n        /* \"@openzeppelin/contracts/access/Ownable.sol\":1094:1107  _checkOwner() */\n      tag_207\n        /* \"@openzeppelin/contracts/access/Ownable.sol\":1094:1105  _checkOwner */\n      tag_176\n        /* \"@openzeppelin/contracts/access/Ownable.sol\":1094:1107  _checkOwner() */\n      jump\t// in\n    tag_207:\n        /* \"FungibleToken.sol\":1344:1364  uint256 unsoldTokens */\n      0x00\n        /* \"FungibleToken.sol\":1367:1391  balanceOf(address(this)) */\n      tag_209\n        /* \"FungibleToken.sol\":1385:1389  this */\n      address\n        /* \"FungibleToken.sol\":1367:1376  balanceOf */\n      tag_83\n        /* \"FungibleToken.sol\":1367:1391  balanceOf(address(this)) */\n      jump\t// in\n    tag_209:\n        /* \"FungibleToken.sol\":1344:1391  uint256 unsoldTokens = balanceOf(address(this)) */\n      swap1\n      pop\n        /* \"FungibleToken.sol\":1425:1426  0 */\n      0x00\n        /* \"FungibleToken.sol\":1410:1422  unsoldTokens */\n      dup2\n        /* \"FungibleToken.sol\":1410:1426  unsoldTokens > 0 */\n      gt\n        /* \"FungibleToken.sol\":1402:1447  require(unsoldTokens > 0, \"No unsold tokens\") */\n      tag_210\n      jumpi\n      mload(0x40)\n      0x08c379a000000000000000000000000000000000000000000000000000000000\n      dup2\n      mstore\n      0x04\n      add\n      tag_211\n      swap1\n      tag_212\n      jump\t// in\n    tag_211:\n      mload(0x40)\n      dup1\n      swap2\n      sub\n      swap1\n      revert\n    tag_210:\n        /* \"FungibleToken.sol\":1458:1492  _burn(address(this), unsoldTokens) */\n      tag_213\n        /* \"FungibleToken.sol\":1472:1476  this */\n      address\n        /* \"FungibleToken.sol\":1479:1491  unsoldTokens */\n      dup3\n        /* \"FungibleToken.sol\":1458:1463  _burn */\n      tag_165\n        /* \"FungibleToken.sol\":1458:1492  _burn(address(this), unsoldTokens) */\n      jump\t// in\n    tag_213:\n        /* \"FungibleToken.sol\":1333:1522  {... */\n      pop\n        /* \"FungibleToken.sol\":1286:1522  function burnUnsoldTokens() external onlyOwner {... */\n      jump\t// out\n        /* \"@openzeppelin/contracts/token/ERC20/ERC20.sol\":2369:2471  function symbol() public view virtual override returns (string memory) {... */\n    tag_106:\n        /* \"@openzeppelin/contracts/token/ERC20/ERC20.sol\":2425:2438  string memory */\n      0x60\n        /* \"@openzeppelin/contracts/token/ERC20/ERC20.sol\":2457:2464  _symbol */\n      0x04\n        /* \"@openzeppelin/contracts/token/ERC20/ERC20.sol\":2450:2464  return _symbol */\n      dup1\n      sload\n      tag_215\n      swap1\n      tag_130\n      jump\t// in\n    tag_215:\n      dup1\n      0x1f\n      add\n      0x20\n      dup1\n      swap2\n      div\n      mul\n      0x20\n      add\n      mload(0x40)\n      swap1\n      dup2\n      add\n      0x40\n      mstore\n      dup1\n      swap3\n      swap2\n      swap1\n      dup2\n      dup2\n      mstore\n      0x20\n      add\n      dup3\n      dup1\n      sload\n      tag_216\n      swap1\n      tag_130\n      jump\t// in\n    tag_216:\n      dup1\n      iszero\n      tag_217\n      jumpi\n      dup1\n      0x1f\n      lt\n      tag_218\n      jumpi\n      0x0100\n      dup1\n      dup4\n      sload\n      div\n      mul\n      dup4\n      mstore\n      swap2\n      0x20\n      add\n      swap2\n      jump(tag_217)\n    tag_218:\n      dup3\n      add\n      swap2\n      swap1\n      0x00\n      mstore\n      keccak256(0x00, 0x20)\n      swap1\n    tag_219:\n      dup2\n      sload\n      dup2\n      mstore\n      swap1\n      0x01\n      add\n      swap1\n      0x20\n      add\n      dup1\n      dup4\n      gt\n      tag_219\n      jumpi\n      dup3\n      swap1\n      sub\n      0x1f\n      and\n      dup3\n      add\n      swap2\n    tag_217:\n      pop\n      pop\n      pop\n      pop\n      pop\n      swap1\n      pop\n        /* \"@openzeppelin/contracts/token/ERC20/ERC20.sol\":2369:2471  function symbol() public view virtual override returns (string memory) {... */\n      swap1\n      jump\t// out\n        /* \"@openzeppelin/contracts/token/ERC20/ERC20.sol\":6575:7002  function decreaseAllowance(address spender, uint256 subtractedValue) public virtual returns (bool) {... */\n    tag_111:\n        /* \"@openzeppelin/contracts/token/ERC20/ERC20.sol\":6668:6672  bool */\n      0x00\n        /* \"@openzeppelin/contracts/token/ERC20/ERC20.sol\":6684:6697  address owner */\n      dup1\n        /* \"@openzeppelin/contracts/token/ERC20/ERC20.sol\":6700:6712  _msgSender() */\n      tag_221\n        /* \"@openzeppelin/contracts/token/ERC20/ERC20.sol\":6700:6710  _msgSender */\n      tag_137\n        /* \"@openzeppelin/contracts/token/ERC20/ERC20.sol\":6700:6712  _msgSender() */\n      jump\t// in\n    tag_221:\n        /* \"@openzeppelin/contracts/token/ERC20/ERC20.sol\":6684:6712  address owner = _msgSender() */\n      swap1\n      pop\n        /* \"@openzeppelin/contracts/token/ERC20/ERC20.sol\":6722:6746  uint256 currentAllowance */\n      0x00\n        /* \"@openzeppelin/contracts/token/ERC20/ERC20.sol\":6749:6774  allowance(owner, spender) */\n      tag_222\n        /* \"@openzeppelin/contracts/token/ERC20/ERC20.sol\":6759:6764  owner */\n      dup3\n        /* \"@openzeppelin/contracts/token/ERC20/ERC20.sol\":6766:6773  spender */\n      dup7\n        /* \"@openzeppelin/contracts/token/ERC20/ERC20.sol\":6749:6758  allowance */\n      tag_122\n        /* \"@openzeppelin/contracts/token/ERC20/ERC20.sol\":6749:6774  allowance(owner, spender) */\n      jump\t// in\n    tag_222:\n        /* \"@openzeppelin/contracts/token/ERC20/ERC20.sol\":6722:6774  uint256 currentAllowance = allowance(owner, spender) */\n      swap1\n      pop\n        /* \"@openzeppelin/contracts/token/ERC20/ERC20.sol\":6812:6827  subtractedValue */\n      dup4\n        /* \"@openzeppelin/contracts/token/ERC20/ERC20.sol\":6792:6808  currentAllowance */\n      dup2\n        /* \"@openzeppelin/contracts/token/ERC20/ERC20.sol\":6792:6827  currentAllowance >= subtractedValue */\n      lt\n      iszero\n        /* \"@openzeppelin/contracts/token/ERC20/ERC20.sol\":6784:6869  require(currentAllowance >= subtractedValue, \"ERC20: decreased allowance below zero\") */\n      tag_223\n      jumpi\n      mload(0x40)\n      0x08c379a000000000000000000000000000000000000000000000000000000000\n      dup2\n      mstore\n      0x04\n      add\n      tag_224\n      swap1\n      tag_225\n      jump\t// in\n    tag_224:\n      mload(0x40)\n      dup1\n      swap2\n      sub\n      swap1\n      revert\n    tag_223:\n        /* \"@openzeppelin/contracts/token/ERC20/ERC20.sol\":6903:6963  _approve(owner, spender, currentAllowance - subtractedValue) */\n      tag_226\n        /* \"@openzeppelin/contracts/token/ERC20/ERC20.sol\":6912:6917  owner */\n      dup3\n        /* \"@openzeppelin/contracts/token/ERC20/ERC20.sol\":6919:6926  spender */\n      dup7\n        /* \"@openzeppelin/contracts/token/ERC20/ERC20.sol\":6947:6962  subtractedValue */\n      dup7\n        /* \"@openzeppelin/contracts/token/ERC20/ERC20.sol\":6928:6944  currentAllowance */\n      dup5\n        /* \"@openzeppelin/contracts/token/ERC20/ERC20.sol\":6928:6962  currentAllowance - subtractedValue */\n      sub\n        /* \"@openzeppelin/contracts/token/ERC20/ERC20.sol\":6903:6911  _approve */\n      tag_139\n        /* \"@openzeppelin/contracts/token/ERC20/ERC20.sol\":6903:6963  _approve(owner, spender, currentAllowance - subtractedValue) */\n      jump\t// in\n    tag_226:\n        /* \"@openzeppelin/contracts/token/ERC20/ERC20.sol\":6991:6995  true */\n      0x01\n        /* \"@openzeppelin/contracts/token/ERC20/ERC20.sol\":6984:6995  return true */\n      swap3\n      pop\n      pop\n      pop\n        /* \"@openzeppelin/contracts/token/ERC20/ERC20.sol\":6575:7002  function decreaseAllowance(address spender, uint256 subtractedValue) public virtual returns (bool) {... */\n      swap3\n      swap2\n      pop\n      pop\n      jump\t// out\n        /* \"@openzeppelin/contracts/token/ERC20/ERC20.sol\":3740:3929  function transfer(address to, uint256 amount) public virtual override returns (bool) {... */\n    tag_116:\n        /* \"@openzeppelin/contracts/token/ERC20/ERC20.sol\":3819:3823  bool */\n      0x00\n        /* \"@openzeppelin/contracts/token/ERC20/ERC20.sol\":3835:3848  address owner */\n      dup1\n        /* \"@openzeppelin/contracts/token/ERC20/ERC20.sol\":3851:3863  _msgSender() */\n      tag_228\n        /* \"@openzeppelin/contracts/token/ERC20/ERC20.sol\":3851:3861  _msgSender */\n      tag_137\n        /* \"@openzeppelin/contracts/token/ERC20/ERC20.sol\":3851:3863  _msgSender() */\n      jump\t// in\n    tag_228:\n        /* \"@openzeppelin/contracts/token/ERC20/ERC20.sol\":3835:3863  address owner = _msgSender() */\n      swap1\n      pop\n        /* \"@openzeppelin/contracts/token/ERC20/ERC20.sol\":3873:3901  _transfer(owner, to, amount) */\n      tag_229\n        /* \"@openzeppelin/contracts/token/ERC20/ERC20.sol\":3883:3888  owner */\n      dup2\n        /* \"@openzeppelin/contracts/token/ERC20/ERC20.sol\":3890:3892  to */\n      dup6\n        /* \"@openzeppelin/contracts/token/ERC20/ERC20.sol\":3894:3900  amount */\n      dup6\n        /* \"@openzeppelin/contracts/token/ERC20/ERC20.sol\":3873:3882  _transfer */\n      tag_146\n        /* \"@openzeppelin/contracts/token/ERC20/ERC20.sol\":3873:3901  _transfer(owner, to, amount) */\n      jump\t// in\n    tag_229:\n        /* \"@openzeppelin/contracts/token/ERC20/ERC20.sol\":3918:3922  true */\n      0x01\n        /* \"@openzeppelin/contracts/token/ERC20/ERC20.sol\":3911:3922  return true */\n      swap2\n      pop\n      pop\n        /* \"@openzeppelin/contracts/token/ERC20/ERC20.sol\":3740:3929  function transfer(address to, uint256 amount) public virtual override returns (bool) {... */\n      swap3\n      swap2\n      pop\n      pop\n      jump\t// out\n        /* \"@openzeppelin/contracts/token/ERC20/ERC20.sol\":3987:4136  function allowance(address owner, address spender) public view virtual override returns (uint256) {... */\n    tag_122:\n        /* \"@openzeppelin/contracts/token/ERC20/ERC20.sol\":4076:4083  uint256 */\n      0x00\n        /* \"@openzeppelin/contracts/token/ERC20/ERC20.sol\":4102:4113  _allowances */\n      0x01\n        /* \"@openzeppelin/contracts/token/ERC20/ERC20.sol\":4102:4120  _allowances[owner] */\n      0x00\n        /* \"@openzeppelin/contracts/token/ERC20/ERC20.sol\":4114:4119  owner */\n      dup5\n        /* \"@openzeppelin/contracts/token/ERC20/ERC20.sol\":4102:4120  _allowances[owner] */\n      0xffffffffffffffffffffffffffffffffffffffff\n      and\n      0xffffffffffffffffffffffffffffffffffffffff\n      and\n      dup2\n      mstore\n      0x20\n      add\n      swap1\n      dup2\n      mstore\n      0x20\n      add\n      0x00\n      keccak256\n        /* \"@openzeppelin/contracts/token/ERC20/ERC20.sol\":4102:4129  _allowances[owner][spender] */\n      0x00\n        /* \"@openzeppelin/contracts/token/ERC20/ERC20.sol\":4121:4128  spender */\n      dup4\n        /* \"@openzeppelin/contracts/token/ERC20/ERC20.sol\":4102:4129  _allowances[owner][spender] */\n      0xffffffffffffffffffffffffffffffffffffffff\n      and\n      0xffffffffffffffffffffffffffffffffffffffff\n      and\n      dup2\n      mstore\n      0x20\n      add\n      swap1\n      dup2\n      mstore\n      0x20\n      add\n      0x00\n      keccak256\n      sload\n        /* \"@openzeppelin/contracts/token/ERC20/ERC20.sol\":4095:4129  return _allowances[owner][spender] */\n      swap1\n      pop\n        /* \"@openzeppelin/contracts/token/ERC20/ERC20.sol\":3987:4136  function allowance(address owner, address spender) public view virtual override returns (uint256) {... */\n      swap3\n      swap2\n      pop\n      pop\n      jump\t// out\n        /* \"@openzeppelin/contracts/access/Ownable.sol\":2074:2272  function transferOwnership(address newOwner) public virtual onlyOwner {... */\n    tag_127:\n        /* \"@openzeppelin/contracts/access/Ownable.sol\":1094:1107  _checkOwner() */\n      tag_232\n        /* \"@openzeppelin/contracts/access/Ownable.sol\":1094:1105  _checkOwner */\n      tag_176\n        /* \"@openzeppelin/contracts/access/Ownable.sol\":1094:1107  _checkOwner() */\n      jump\t// in\n    tag_232:\n        /* \"@openzeppelin/contracts/access/Ownable.sol\":2182:2183  0 */\n      0x00\n        /* \"@openzeppelin/contracts/access/Ownable.sol\":2162:2184  newOwner != address(0) */\n      0xffffffffffffffffffffffffffffffffffffffff\n      and\n        /* \"@openzeppelin/contracts/access/Ownable.sol\":2162:2170  newOwner */\n      dup2\n        /* \"@openzeppelin/contracts/access/Ownable.sol\":2162:2184  newOwner != address(0) */\n      0xffffffffffffffffffffffffffffffffffffffff\n      and\n      sub\n        /* \"@openzeppelin/contracts/access/Ownable.sol\":2154:2227  require(newOwner != address(0), \"Ownable: new owner is the zero address\") */\n      tag_234\n      jumpi\n      mload(0x40)\n      0x08c379a000000000000000000000000000000000000000000000000000000000\n      dup2\n      mstore\n      0x04\n      add\n      tag_235\n      swap1\n      tag_236\n      jump\t// in\n    tag_235:\n      mload(0x40)\n      dup1\n      swap2\n      sub\n      swap1\n      revert\n    tag_234:\n        /* \"@openzeppelin/contracts/access/Ownable.sol\":2237:2265  _transferOwnership(newOwner) */\n      tag_237\n        /* \"@openzeppelin/contracts/access/Ownable.sol\":2256:2264  newOwner */\n      dup2\n        /* \"@openzeppelin/contracts/access/Ownable.sol\":2237:2255  _transferOwnership */\n      tag_200\n        /* \"@openzeppelin/contracts/access/Ownable.sol\":2237:2265  _transferOwnership(newOwner) */\n      jump\t// in\n    tag_237:\n        /* \"@openzeppelin/contracts/access/Ownable.sol\":2074:2272  function transferOwnership(address newOwner) public virtual onlyOwner {... */\n      pop\n      jump\t// out\n        /* \"@openzeppelin/contracts/utils/Context.sol\":640:736  function _msgSender() internal view virtual returns (address) {... */\n    tag_137:\n        /* \"@openzeppelin/contracts/utils/Context.sol\":693:700  address */\n      0x00\n        /* \"@openzeppelin/contracts/utils/Context.sol\":719:729  msg.sender */\n      caller\n        /* \"@openzeppelin/contracts/utils/Context.sol\":712:729  return msg.sender */\n      swap1\n      pop\n        /* \"@openzeppelin/contracts/utils/Context.sol\":640:736  function _msgSender() internal view virtual returns (address) {... */\n      swap1\n      jump\t// out\n        /* \"@openzeppelin/contracts/token/ERC20/ERC20.sol\":10457:10797  function _approve(address owner, address spender, uint256 amount) internal virtual {... */\n    tag_139:\n        /* \"@openzeppelin/contracts/token/ERC20/ERC20.sol\":10575:10576  0 */\n      0x00\n        /* \"@openzeppelin/contracts/token/ERC20/ERC20.sol\":10558:10577  owner != address(0) */\n      0xffffffffffffffffffffffffffffffffffffffff\n      and\n        /* \"@openzeppelin/contracts/token/ERC20/ERC20.sol\":10558:10563  owner */\n      dup4\n        /* \"@openzeppelin/contracts/token/ERC20/ERC20.sol\":10558:10577  owner != address(0) */\n      0xffffffffffffffffffffffffffffffffffffffff\n      and\n      sub\n        /* \"@openzeppelin/contracts/token/ERC20/ERC20.sol\":10550:10618  require(owner != address(0), \"ERC20: approve from the zero address\") */\n      tag_240\n      jumpi\n      mload(0x40)\n      0x08c379a000000000000000000000000000000000000000000000000000000000\n      dup2\n      mstore\n      0x04\n      add\n      tag_241\n      swap1\n      tag_242\n      jump\t// in\n    tag_241:\n      mload(0x40)\n      dup1\n      swap2\n      sub\n      swap1\n      revert\n    tag_240:\n        /* \"@openzeppelin/contracts/token/ERC20/ERC20.sol\":10655:10656  0 */\n      0x00\n        /* \"@openzeppelin/contracts/token/ERC20/ERC20.sol\":10636:10657  spender != address(0) */\n      0xffffffffffffffffffffffffffffffffffffffff\n      and\n        /* \"@openzeppelin/contracts/token/ERC20/ERC20.sol\":10636:10643  spender */\n      dup3\n        /* \"@openzeppelin/contracts/token/ERC20/ERC20.sol\":10636:10657  spender != address(0) */\n      0xffffffffffffffffffffffffffffffffffffffff\n      and\n      sub\n        /* \"@openzeppelin/contracts/token/ERC20/ERC20.sol\":10628:10696  require(spender != address(0), \"ERC20: approve to the zero address\") */\n      tag_243\n      jumpi\n      mload(0x40)\n      0x08c379a000000000000000000000000000000000000000000000000000000000\n      dup2\n      mstore\n      0x04\n      add\n      tag_244\n      swap1\n      tag_245\n      jump\t// in\n    tag_244:\n      mload(0x40)\n      dup1\n      swap2\n      sub\n      swap1\n      revert\n    tag_243:\n        /* \"@openzeppelin/contracts/token/ERC20/ERC20.sol\":10737:10743  amount */\n      dup1\n        /* \"@openzeppelin/contracts/token/ERC20/ERC20.sol\":10707:10718  _allowances */\n      0x01\n        /* \"@openzeppelin/contracts/token/ERC20/ERC20.sol\":10707:10725  _allowances[owner] */\n      0x00\n        /* \"@openzeppelin/contracts/token/ERC20/ERC20.sol\":10719:10724  owner */\n      dup6\n        /* \"@openzeppelin/contracts/token/ERC20/ERC20.sol\":10707:10725  _allowances[owner] */\n      0xffffffffffffffffffffffffffffffffffffffff\n      and\n      0xffffffffffffffffffffffffffffffffffffffff\n      and\n      dup2\n      mstore\n      0x20\n      add\n      swap1\n      dup2\n      mstore\n      0x20\n      add\n      0x00\n      keccak256\n        /* \"@openzeppelin/contracts/token/ERC20/ERC20.sol\":10707:10734  _allowances[owner][spender] */\n      0x00\n        /* \"@openzeppelin/contracts/token/ERC20/ERC20.sol\":10726:10733  spender */\n      dup5\n        /* \"@openzeppelin/contracts/token/ERC20/ERC20.sol\":10707:10734  _allowances[owner][spender] */\n      0xffffffffffffffffffffffffffffffffffffffff\n      and\n      0xffffffffffffffffffffffffffffffffffffffff\n      and\n      dup2\n      mstore\n      0x20\n      add\n      swap1\n      dup2\n      mstore\n      0x20\n      add\n      0x00\n      keccak256\n        /* \"@openzeppelin/contracts/token/ERC20/ERC20.sol\":10707:10743  _allowances[owner][spender] = amount */\n      dup2\n      swap1\n      sstore\n      pop\n        /* \"@openzeppelin/contracts/token/ERC20/ERC20.sol\":10774:10781  spender */\n      dup2\n        /* \"@openzeppelin/contracts/token/ERC20/ERC20.sol\":10758:10790  Approval(owner, spender, amount) */\n      0xffffffffffffffffffffffffffffffffffffffff\n      and\n        /* \"@openzeppelin/contracts/token/ERC20/ERC20.sol\":10767:10772  owner */\n      dup4\n        /* \"@openzeppelin/contracts/token/ERC20/ERC20.sol\":10758:10790  Approval(owner, spender, amount) */\n      0xffffffffffffffffffffffffffffffffffffffff\n      and\n      0x8c5be1e5ebec7d5bd14f71427d1e84f3dd0314c0f7b2291e5b200ac8c7c3b925\n        /* \"@openzeppelin/contracts/token/ERC20/ERC20.sol\":10783:10789  amount */\n      dup4\n        /* \"@openzeppelin/contracts/token/ERC20/ERC20.sol\":10758:10790  Approval(owner, spender, amount) */\n      mload(0x40)\n      tag_246\n      swap2\n      swap1\n      tag_43\n      jump\t// in\n    tag_246:\n      mload(0x40)\n      dup1\n      swap2\n      sub\n      swap1\n      log3\n        /* \"@openzeppelin/contracts/token/ERC20/ERC20.sol\":10457:10797  function _approve(address owner, address spender, uint256 amount) internal virtual {... */\n      pop\n      pop\n      pop\n      jump\t// out\n        /* \"@openzeppelin/contracts/token/ERC20/ERC20.sol\":11078:11489  function _spendAllowance(address owner, address spender, uint256 amount) internal virtual {... */\n    tag_144:\n        /* \"@openzeppelin/contracts/token/ERC20/ERC20.sol\":11178:11202  uint256 currentAllowance */\n      0x00\n        /* \"@openzeppelin/contracts/token/ERC20/ERC20.sol\":11205:11230  allowance(owner, spender) */\n      tag_248\n        /* \"@openzeppelin/contracts/token/ERC20/ERC20.sol\":11215:11220  owner */\n      dup5\n        /* \"@openzeppelin/contracts/token/ERC20/ERC20.sol\":11222:11229  spender */\n      dup5\n        /* \"@openzeppelin/contracts/token/ERC20/ERC20.sol\":11205:11214  allowance */\n      tag_122\n        /* \"@openzeppelin/contracts/token/ERC20/ERC20.sol\":11205:11230  allowance(owner, spender) */\n      jump\t// in\n    tag_248:\n        /* \"@openzeppelin/contracts/token/ERC20/ERC20.sol\":11178:11230  uint256 currentAllowance = allowance(owner, spender) */\n      swap1\n      pop\n        /* \"@openzeppelin/contracts/token/ERC20/ERC20.sol\":11264:11281  type(uint256).max */\n      0xffffffffffffffffffffffffffffffffffffffffffffffffffffffffffffffff\n        /* \"@openzeppelin/contracts/token/ERC20/ERC20.sol\":11244:11260  currentAllowance */\n      dup2\n        /* \"@openzeppelin/contracts/token/ERC20/ERC20.sol\":11244:11281  currentAllowance != type(uint256).max */\n      eq\n        /* \"@openzeppelin/contracts/token/ERC20/ERC20.sol\":11240:11483  if (currentAllowance != type(uint256).max) {... */\n      tag_249\n      jumpi\n        /* \"@openzeppelin/contracts/token/ERC20/ERC20.sol\":11325:11331  amount */\n      dup2\n        /* \"@openzeppelin/contracts/token/ERC20/ERC20.sol\":11305:11321  currentAllowance */\n      dup2\n        /* \"@openzeppelin/contracts/token/ERC20/ERC20.sol\":11305:11331  currentAllowance >= amount */\n      lt\n      iszero\n        /* \"@openzeppelin/contracts/token/ERC20/ERC20.sol\":11297:11365  require(currentAllowance >= amount, \"ERC20: insufficient allowance\") */\n      tag_250\n      jumpi\n      mload(0x40)\n      0x08c379a000000000000000000000000000000000000000000000000000000000\n      dup2\n      mstore\n      0x04\n      add\n      tag_251\n      swap1\n      tag_252\n      jump\t// in\n    tag_251:\n      mload(0x40)\n      dup1\n      swap2\n      sub\n      swap1\n      revert\n    tag_250:\n        /* \"@openzeppelin/contracts/token/ERC20/ERC20.sol\":11407:11458  _approve(owner, spender, currentAllowance - amount) */\n      tag_253\n        /* \"@openzeppelin/contracts/token/ERC20/ERC20.sol\":11416:11421  owner */\n      dup5\n        /* \"@openzeppelin/contracts/token/ERC20/ERC20.sol\":11423:11430  spender */\n      dup5\n        /* \"@openzeppelin/contracts/token/ERC20/ERC20.sol\":11451:11457  amount */\n      dup5\n        /* \"@openzeppelin/contracts/token/ERC20/ERC20.sol\":11432:11448  currentAllowance */\n      dup5\n        /* \"@openzeppelin/contracts/token/ERC20/ERC20.sol\":11432:11457  currentAllowance - amount */\n      sub\n        /* \"@openzeppelin/contracts/token/ERC20/ERC20.sol\":11407:11415  _approve */\n      tag_139\n        /* \"@openzeppelin/contracts/token/ERC20/ERC20.sol\":11407:11458  _approve(owner, spender, currentAllowance - amount) */\n      jump\t// in\n    tag_253:\n        /* \"@openzeppelin/contracts/token/ERC20/ERC20.sol\":11240:11483  if (currentAllowance != type(uint256).max) {... */\n    tag_249:\n        /* \"@openzeppelin/contracts/token/ERC20/ERC20.sol\":11168:11489  {... */\n      pop\n        /* \"@openzeppelin/contracts/token/ERC20/ERC20.sol\":11078:11489  function _spendAllowance(address owner, address spender, uint256 amount) internal virtual {... */\n      pop\n      pop\n      pop\n      jump\t// out\n        /* \"@openzeppelin/contracts/token/ERC20/ERC20.sol\":7456:8244  function _transfer(address from, address to, uint256 amount) internal virtual {... */\n    tag_146:\n        /* \"@openzeppelin/contracts/token/ERC20/ERC20.sol\":7568:7569  0 */\n      0x00\n        /* \"@openzeppelin/contracts/token/ERC20/ERC20.sol\":7552:7570  from != address(0) */\n      0xffffffffffffffffffffffffffffffffffffffff\n      and\n        /* \"@openzeppelin/contracts/token/ERC20/ERC20.sol\":7552:7556  from */\n      dup4\n        /* \"@openzeppelin/contracts/token/ERC20/ERC20.sol\":7552:7570  from != address(0) */\n      0xffffffffffffffffffffffffffffffffffffffff\n      and\n      sub\n        /* \"@openzeppelin/contracts/token/ERC20/ERC20.sol\":7544:7612  require(from != address(0), \"ERC20: transfer from the zero address\") */\n      tag_255\n      jumpi\n      mload(0x40)\n      0x08c379a000000000000000000000000000000000000000000000000000000000\n      dup2\n      mstore\n      0x04\n      add\n      tag_256\n      swap1\n      tag_257\n      jump\t// in\n    tag_256:\n      mload(0x40)\n      dup1\n      swap2\n      sub\n      swap1\n      revert\n    tag_255:\n        /* \"@openzeppelin/contracts/token/ERC20/ERC20.sol\":7644:7645  0 */\n      0x00\n        /* \"@openzeppelin/contracts/token/ERC20/ERC20.sol\":7630:7646  to != address(0) */\n      0xffffffffffffffffffffffffffffffffffffffff\n      and\n        /* \"@openzeppelin/contracts/token/ERC20/ERC20.sol\":7630:7632  to */\n      dup3\n        /* \"@openzeppelin/contracts/token/ERC20/ERC20.sol\":7630:7646  to != address(0) */\n      0xffffffffffffffffffffffffffffffffffffffff\n      and\n      sub\n        /* \"@openzeppelin/contracts/token/ERC20/ERC20.sol\":7622:7686  require(to != address(0), \"ERC20: transfer to the zero address\") */\n      tag_258\n      jumpi\n      mload(0x40)\n      0x08c379a000000000000000000000000000000000000000000000000000000000\n      dup2\n      mstore\n      0x04\n      add\n      tag_259\n      swap1\n      tag_260\n      jump\t// in\n    tag_259:\n      mload(0x40)\n      dup1\n      swap2\n      sub\n      swap1\n      revert\n    tag_258:\n        /* \"@openzeppelin/contracts/token/ERC20/ERC20.sol\":7697:7735  _beforeTokenTransfer(from, to, amount) */\n      tag_261\n        /* \"@openzeppelin/contracts/token/ERC20/ERC20.sol\":7718:7722  from */\n      dup4\n        /* \"@openzeppelin/contracts/token/ERC20/ERC20.sol\":7724:7726  to */\n      dup4\n        /* \"@openzeppelin/contracts/token/ERC20/ERC20.sol\":7728:7734  amount */\n      dup4\n        /* \"@openzeppelin/contracts/token/ERC20/ERC20.sol\":7697:7717  _beforeTokenTransfer */\n      tag_262\n        /* \"@openzeppelin/contracts/token/ERC20/ERC20.sol\":7697:7735  _beforeTokenTransfer(from, to, amount) */\n      jump\t// in\n    tag_261:\n        /* \"@openzeppelin/contracts/token/ERC20/ERC20.sol\":7746:7765  uint256 fromBalance */\n      0x00\n        /* \"@openzeppelin/contracts/token/ERC20/ERC20.sol\":7768:7777  _balances */\n      dup1\n        /* \"@openzeppelin/contracts/token/ERC20/ERC20.sol\":7768:7783  _balances[from] */\n      0x00\n        /* \"@openzeppelin/contracts/token/ERC20/ERC20.sol\":7778:7782  from */\n      dup6\n        /* \"@openzeppelin/contracts/token/ERC20/ERC20.sol\":7768:7783  _balances[from] */\n      0xffffffffffffffffffffffffffffffffffffffff\n      and\n      0xffffffffffffffffffffffffffffffffffffffff\n      and\n      dup2\n      mstore\n      0x20\n      add\n      swap1\n      dup2\n      mstore\n      0x20\n      add\n      0x00\n      keccak256\n      sload\n        /* \"@openzeppelin/contracts/token/ERC20/ERC20.sol\":7746:7783  uint256 fromBalance = _balances[from] */\n      swap1\n      pop\n        /* \"@openzeppelin/contracts/token/ERC20/ERC20.sol\":7816:7822  amount */\n      dup2\n        /* \"@openzeppelin/contracts/token/ERC20/ERC20.sol\":7801:7812  fromBalance */\n      dup2\n        /* \"@openzeppelin/contracts/token/ERC20/ERC20.sol\":7801:7822  fromBalance >= amount */\n      lt\n      iszero\n        /* \"@openzeppelin/contracts/token/ERC20/ERC20.sol\":7793:7865  require(fromBalance >= amount, \"ERC20: transfer amount exceeds balance\") */\n      tag_263\n      jumpi\n      mload(0x40)\n      0x08c379a000000000000000000000000000000000000000000000000000000000\n      dup2\n      mstore\n      0x04\n      add\n      tag_264\n      swap1\n      tag_265\n      jump\t// in\n    tag_264:\n      mload(0x40)\n      dup1\n      swap2\n      sub\n      swap1\n      revert\n    tag_263:\n        /* \"@openzeppelin/contracts/token/ERC20/ERC20.sol\":7931:7937  amount */\n      dup2\n        /* \"@openzeppelin/contracts/token/ERC20/ERC20.sol\":7917:7928  fromBalance */\n      dup2\n        /* \"@openzeppelin/contracts/token/ERC20/ERC20.sol\":7917:7937  fromBalance - amount */\n      sub\n        /* \"@openzeppelin/contracts/token/ERC20/ERC20.sol\":7899:7908  _balances */\n      0x00\n        /* \"@openzeppelin/contracts/token/ERC20/ERC20.sol\":7899:7914  _balances[from] */\n      dup1\n        /* \"@openzeppelin/contracts/token/ERC20/ERC20.sol\":7909:7913  from */\n      dup7\n        /* \"@openzeppelin/contracts/token/ERC20/ERC20.sol\":7899:7914  _balances[from] */\n      0xffffffffffffffffffffffffffffffffffffffff\n      and\n      0xffffffffffffffffffffffffffffffffffffffff\n      and\n      dup2\n      mstore\n      0x20\n      add\n      swap1\n      dup2\n      mstore\n      0x20\n      add\n      0x00\n      keccak256\n        /* \"@openzeppelin/contracts/token/ERC20/ERC20.sol\":7899:7937  _balances[from] = fromBalance - amount */\n      dup2\n      swap1\n      sstore\n      pop\n        /* \"@openzeppelin/contracts/token/ERC20/ERC20.sol\":8131:8137  amount */\n      dup2\n        /* \"@openzeppelin/contracts/token/ERC20/ERC20.sol\":8114:8123  _balances */\n      0x00\n        /* \"@openzeppelin/contracts/token/ERC20/ERC20.sol\":8114:8127  _balances[to] */\n      dup1\n        /* \"@openzeppelin/contracts/token/ERC20/ERC20.sol\":8124:8126  to */\n      dup6\n        /* \"@openzeppelin/contracts/token/ERC20/ERC20.sol\":8114:8127  _balances[to] */\n      0xffffffffffffffffffffffffffffffffffffffff\n      and\n      0xffffffffffffffffffffffffffffffffffffffff\n      and\n      dup2\n      mstore\n      0x20\n      add\n      swap1\n      dup2\n      mstore\n      0x20\n      add\n      0x00\n      keccak256\n      0x00\n        /* \"@openzeppelin/contracts/token/ERC20/ERC20.sol\":8114:8137  _balances[to] += amount */\n      dup3\n      dup3\n      sload\n      add\n      swap3\n      pop\n      pop\n      dup2\n      swap1\n      sstore\n      pop\n        /* \"@openzeppelin/contracts/token/ERC20/ERC20.sol\":8178:8180  to */\n      dup3\n        /* \"@openzeppelin/contracts/token/ERC20/ERC20.sol\":8163:8189  Transfer(from, to, amount) */\n      0xffffffffffffffffffffffffffffffffffffffff\n      and\n        /* \"@openzeppelin/contracts/token/ERC20/ERC20.sol\":8172:8176  from */\n      dup5\n        /* \"@openzeppelin/contracts/token/ERC20/ERC20.sol\":8163:8189  Transfer(from, to, amount) */\n      0xffffffffffffffffffffffffffffffffffffffff\n      and\n      0xddf252ad1be2c89b69c2b068fc378daa952ba7f163c4a11628f55a4df523b3ef\n        /* \"@openzeppelin/contracts/token/ERC20/ERC20.sol\":8182:8188  amount */\n      dup5\n        /* \"@openzeppelin/contracts/token/ERC20/ERC20.sol\":8163:8189  Transfer(from, to, amount) */\n      mload(0x40)\n      tag_266\n      swap2\n      swap1\n      tag_43\n      jump\t// in\n    tag_266:\n      mload(0x40)\n      dup1\n      swap2\n      sub\n      swap1\n      log3\n        /* \"@openzeppelin/contracts/token/ERC20/ERC20.sol\":8200:8237  _afterTokenTransfer(from, to, amount) */\n      tag_267\n        /* \"@openzeppelin/contracts/token/ERC20/ERC20.sol\":8220:8224  from */\n      dup5\n        /* \"@openzeppelin/contracts/token/ERC20/ERC20.sol\":8226:8228  to */\n      dup5\n        /* \"@openzeppelin/contracts/token/ERC20/ERC20.sol\":8230:8236  amount */\n      dup5\n        /* \"@openzeppelin/contracts/token/ERC20/ERC20.sol\":8200:8219  _afterTokenTransfer */\n      tag_268\n        /* \"@openzeppelin/contracts/token/ERC20/ERC20.sol\":8200:8237  _afterTokenTransfer(from, to, amount) */\n      jump\t// in\n    tag_267:\n        /* \"@openzeppelin/contracts/token/ERC20/ERC20.sol\":7534:8244  {... */\n      pop\n        /* \"@openzeppelin/contracts/token/ERC20/ERC20.sol\":7456:8244  function _transfer(address from, address to, uint256 amount) internal virtual {... */\n      pop\n      pop\n      pop\n      jump\t// out\n        /* \"@openzeppelin/contracts/token/ERC20/ERC20.sol\":8520:9055  function _mint(address account, uint256 amount) internal virtual {... */\n    tag_155:\n        /* \"@openzeppelin/contracts/token/ERC20/ERC20.sol\":8622:8623  0 */\n      0x00\n        /* \"@openzeppelin/contracts/token/ERC20/ERC20.sol\":8603:8624  account != address(0) */\n      0xffffffffffffffffffffffffffffffffffffffff\n      and\n        /* \"@openzeppelin/contracts/token/ERC20/ERC20.sol\":8603:8610  account */\n      dup3\n        /* \"@openzeppelin/contracts/token/ERC20/ERC20.sol\":8603:8624  account != address(0) */\n      0xffffffffffffffffffffffffffffffffffffffff\n      and\n      sub\n        /* \"@openzeppelin/contracts/token/ERC20/ERC20.sol\":8595:8660  require(account != address(0), \"ERC20: mint to the zero address\") */\n      tag_270\n      jumpi\n      mload(0x40)\n      0x08c379a000000000000000000000000000000000000000000000000000000000\n      dup2\n      mstore\n      0x04\n      add\n      tag_271\n      swap1\n      tag_272\n      jump\t// in\n    tag_271:\n      mload(0x40)\n      dup1\n      swap2\n      sub\n      swap1\n      revert\n    tag_270:\n        /* \"@openzeppelin/contracts/token/ERC20/ERC20.sol\":8671:8720  _beforeTokenTransfer(address(0), account, amount) */\n      tag_273\n        /* \"@openzeppelin/contracts/token/ERC20/ERC20.sol\":8700:8701  0 */\n      0x00\n        /* \"@openzeppelin/contracts/token/ERC20/ERC20.sol\":8704:8711  account */\n      dup4\n        /* \"@openzeppelin/contracts/token/ERC20/ERC20.sol\":8713:8719  amount */\n      dup4\n        /* \"@openzeppelin/contracts/token/ERC20/ERC20.sol\":8671:8691  _beforeTokenTransfer */\n      tag_262\n        /* \"@openzeppelin/contracts/token/ERC20/ERC20.sol\":8671:8720  _beforeTokenTransfer(address(0), account, amount) */\n      jump\t// in\n    tag_273:\n        /* \"@openzeppelin/contracts/token/ERC20/ERC20.sol\":8747:8753  amount */\n      dup1\n        /* \"@openzeppelin/contracts/token/ERC20/ERC20.sol\":8731:8743  _totalSupply */\n      0x02\n      0x00\n        /* \"@openzeppelin/contracts/token/ERC20/ERC20.sol\":8731:8753  _totalSupply += amount */\n      dup3\n      dup3\n      sload\n      tag_274\n      swap2\n      swap1\n      tag_161\n      jump\t// in\n    tag_274:\n      swap3\n      pop\n      pop\n      dup2\n      swap1\n      sstore\n      pop\n        /* \"@openzeppelin/contracts/token/ERC20/ERC20.sol\":8921:8927  amount */\n      dup1\n        /* \"@openzeppelin/contracts/token/ERC20/ERC20.sol\":8899:8908  _balances */\n      0x00\n        /* \"@openzeppelin/contracts/token/ERC20/ERC20.sol\":8899:8917  _balances[account] */\n      dup1\n        /* \"@openzeppelin/contracts/token/ERC20/ERC20.sol\":8909:8916  account */\n      dup5\n        /* \"@openzeppelin/contracts/token/ERC20/ERC20.sol\":8899:8917  _balances[account] */\n      0xffffffffffffffffffffffffffffffffffffffff\n      and\n      0xffffffffffffffffffffffffffffffffffffffff\n      and\n      dup2\n      mstore\n      0x20\n      add\n      swap1\n      dup2\n      mstore\n      0x20\n      add\n      0x00\n      keccak256\n      0x00\n        /* \"@openzeppelin/contracts/token/ERC20/ERC20.sol\":8899:8927  _balances[account] += amount */\n      dup3\n      dup3\n      sload\n      add\n      swap3\n      pop\n      pop\n      dup2\n      swap1\n      sstore\n      pop\n        /* \"@openzeppelin/contracts/token/ERC20/ERC20.sol\":8973:8980  account */\n      dup2\n        /* \"@openzeppelin/contracts/token/ERC20/ERC20.sol\":8952:8989  Transfer(address(0), account, amount) */\n      0xffffffffffffffffffffffffffffffffffffffff\n      and\n        /* \"@openzeppelin/contracts/token/ERC20/ERC20.sol\":8969:8970  0 */\n      0x00\n        /* \"@openzeppelin/contracts/token/ERC20/ERC20.sol\":8952:8989  Transfer(address(0), account, amount) */\n      0xffffffffffffffffffffffffffffffffffffffff\n      and\n      0xddf252ad1be2c89b69c2b068fc378daa952ba7f163c4a11628f55a4df523b3ef\n        /* \"@openzeppelin/contracts/token/ERC20/ERC20.sol\":8982:8988  amount */\n      dup4\n        /* \"@openzeppelin/contracts/token/ERC20/ERC20.sol\":8952:8989  Transfer(address(0), account, amount) */\n      mload(0x40)\n      tag_275\n      swap2\n      swap1\n      tag_43\n      jump\t// in\n    tag_275:\n      mload(0x40)\n      dup1\n      swap2\n      sub\n      swap1\n      log3\n        /* \"@openzeppelin/contracts/token/ERC20/ERC20.sol\":9000:9048  _afterTokenTransfer(address(0), account, amount) */\n      tag_276\n        /* \"@openzeppelin/contracts/token/ERC20/ERC20.sol\":9028:9029  0 */\n      0x00\n        /* \"@openzeppelin/contracts/token/ERC20/ERC20.sol\":9032:9039  account */\n      dup4\n        /* \"@openzeppelin/contracts/token/ERC20/ERC20.sol\":9041:9047  amount */\n      dup4\n        /* \"@openzeppelin/contracts/token/ERC20/ERC20.sol\":9000:9019  _afterTokenTransfer */\n      tag_268\n        /* \"@openzeppelin/contracts/token/ERC20/ERC20.sol\":9000:9048  _afterTokenTransfer(address(0), account, amount) */\n      jump\t// in\n    tag_276:\n        /* \"@openzeppelin/contracts/token/ERC20/ERC20.sol\":8520:9055  function _mint(address account, uint256 amount) internal virtual {... */\n      pop\n      pop\n      jump\t// out\n        /* \"@openzeppelin/contracts/token/ERC20/ERC20.sol\":9375:10034  function _burn(address account, uint256 amount) internal virtual {... */\n    tag_165:\n        /* \"@openzeppelin/contracts/token/ERC20/ERC20.sol\":9477:9478  0 */\n      0x00\n        /* \"@openzeppelin/contracts/token/ERC20/ERC20.sol\":9458:9479  account != address(0) */\n      0xffffffffffffffffffffffffffffffffffffffff\n      and\n        /* \"@openzeppelin/contracts/token/ERC20/ERC20.sol\":9458:9465  account */\n      dup3\n        /* \"@openzeppelin/contracts/token/ERC20/ERC20.sol\":9458:9479  account != address(0) */\n      0xffffffffffffffffffffffffffffffffffffffff\n      and\n      sub\n        /* \"@openzeppelin/contracts/token/ERC20/ERC20.sol\":9450:9517  require(account != address(0), \"ERC20: burn from the zero address\") */\n      tag_278\n      jumpi\n      mload(0x40)\n      0x08c379a000000000000000000000000000000000000000000000000000000000\n      dup2\n      mstore\n      0x04\n      add\n      tag_279\n      swap1\n      tag_280\n      jump\t// in\n    tag_279:\n      mload(0x40)\n      dup1\n      swap2\n      sub\n      swap1\n      revert\n    tag_278:\n        /* \"@openzeppelin/contracts/token/ERC20/ERC20.sol\":9528:9577  _beforeTokenTransfer(account, address(0), amount) */\n      tag_281\n        /* \"@openzeppelin/contracts/token/ERC20/ERC20.sol\":9549:9556  account */\n      dup3\n        /* \"@openzeppelin/contracts/token/ERC20/ERC20.sol\":9566:9567  0 */\n      0x00\n        /* \"@openzeppelin/contracts/token/ERC20/ERC20.sol\":9570:9576  amount */\n      dup4\n        /* \"@openzeppelin/contracts/token/ERC20/ERC20.sol\":9528:9548  _beforeTokenTransfer */\n      tag_262\n        /* \"@openzeppelin/contracts/token/ERC20/ERC20.sol\":9528:9577  _beforeTokenTransfer(account, address(0), amount) */\n      jump\t// in\n    tag_281:\n        /* \"@openzeppelin/contracts/token/ERC20/ERC20.sol\":9588:9610  uint256 accountBalance */\n      0x00\n        /* \"@openzeppelin/contracts/token/ERC20/ERC20.sol\":9613:9622  _balances */\n      dup1\n        /* \"@openzeppelin/contracts/token/ERC20/ERC20.sol\":9613:9631  _balances[account] */\n      0x00\n        /* \"@openzeppelin/contracts/token/ERC20/ERC20.sol\":9623:9630  account */\n      dup5\n        /* \"@openzeppelin/contracts/token/ERC20/ERC20.sol\":9613:9631  _balances[account] */\n      0xffffffffffffffffffffffffffffffffffffffff\n      and\n      0xffffffffffffffffffffffffffffffffffffffff\n      and\n      dup2\n      mstore\n      0x20\n      add\n      swap1\n      dup2\n      mstore\n      0x20\n      add\n      0x00\n      keccak256\n      sload\n        /* \"@openzeppelin/contracts/token/ERC20/ERC20.sol\":9588:9631  uint256 accountBalance = _balances[account] */\n      swap1\n      pop\n        /* \"@openzeppelin/contracts/token/ERC20/ERC20.sol\":9667:9673  amount */\n      dup2\n        /* \"@openzeppelin/contracts/token/ERC20/ERC20.sol\":9649:9663  accountBalance */\n      dup2\n        /* \"@openzeppelin/contracts/token/ERC20/ERC20.sol\":9649:9673  accountBalance >= amount */\n      lt\n      iszero\n        /* \"@openzeppelin/contracts/token/ERC20/ERC20.sol\":9641:9712  require(accountBalance >= amount, \"ERC20: burn amount exceeds balance\") */\n      tag_282\n      jumpi\n      mload(0x40)\n      0x08c379a000000000000000000000000000000000000000000000000000000000\n      dup2\n      mstore\n      0x04\n      add\n      tag_283\n      swap1\n      tag_284\n      jump\t// in\n    tag_283:\n      mload(0x40)\n      dup1\n      swap2\n      sub\n      swap1\n      revert\n    tag_282:\n        /* \"@openzeppelin/contracts/token/ERC20/ERC20.sol\":9784:9790  amount */\n      dup2\n        /* \"@openzeppelin/contracts/token/ERC20/ERC20.sol\":9767:9781  accountBalance */\n      dup2\n        /* \"@openzeppelin/contracts/token/ERC20/ERC20.sol\":9767:9790  accountBalance - amount */\n      sub\n        /* \"@openzeppelin/contracts/token/ERC20/ERC20.sol\":9746:9755  _balances */\n      0x00\n        /* \"@openzeppelin/contracts/token/ERC20/ERC20.sol\":9746:9764  _balances[account] */\n      dup1\n        /* \"@openzeppelin/contracts/token/ERC20/ERC20.sol\":9756:9763  account */\n      dup6\n        /* \"@openzeppelin/contracts/token/ERC20/ERC20.sol\":9746:9764  _balances[account] */\n      0xffffffffffffffffffffffffffffffffffffffff\n      and\n      0xffffffffffffffffffffffffffffffffffffffff\n      and\n      dup2\n      mstore\n      0x20\n      add\n      swap1\n      dup2\n      mstore\n      0x20\n      add\n      0x00\n      keccak256\n        /* \"@openzeppelin/contracts/token/ERC20/ERC20.sol\":9746:9790  _balances[account] = accountBalance - amount */\n      dup2\n      swap1\n      sstore\n      pop\n        /* \"@openzeppelin/contracts/token/ERC20/ERC20.sol\":9899:9905  amount */\n      dup2\n        /* \"@openzeppelin/contracts/token/ERC20/ERC20.sol\":9883:9895  _totalSupply */\n      0x02\n      0x00\n        /* \"@openzeppelin/contracts/token/ERC20/ERC20.sol\":9883:9905  _totalSupply -= amount */\n      dup3\n      dup3\n      sload\n      sub\n      swap3\n      pop\n      pop\n      dup2\n      swap1\n      sstore\n      pop\n        /* \"@openzeppelin/contracts/token/ERC20/ERC20.sol\":9957:9958  0 */\n      0x00\n        /* \"@openzeppelin/contracts/token/ERC20/ERC20.sol\":9931:9968  Transfer(account, address(0), amount) */\n      0xffffffffffffffffffffffffffffffffffffffff\n      and\n        /* \"@openzeppelin/contracts/token/ERC20/ERC20.sol\":9940:9947  account */\n      dup4\n        /* \"@openzeppelin/contracts/token/ERC20/ERC20.sol\":9931:9968  Transfer(account, address(0), amount) */\n      0xffffffffffffffffffffffffffffffffffffffff\n      and\n      0xddf252ad1be2c89b69c2b068fc378daa952ba7f163c4a11628f55a4df523b3ef\n        /* \"@openzeppelin/contracts/token/ERC20/ERC20.sol\":9961:9967  amount */\n      dup5\n        /* \"@openzeppelin/contracts/token/ERC20/ERC20.sol\":9931:9968  Transfer(account, address(0), amount) */\n      mload(0x40)\n      tag_285\n      swap2\n      swap1\n      tag_43\n      jump\t// in\n    tag_285:\n      mload(0x40)\n      dup1\n      swap2\n      sub\n      swap1\n      log3\n        /* \"@openzeppelin/contracts/token/ERC20/ERC20.sol\":9979:10027  _afterTokenTransfer(account, address(0), amount) */\n      tag_286\n        /* \"@openzeppelin/contracts/token/ERC20/ERC20.sol\":9999:10006  account */\n      dup4\n        /* \"@openzeppelin/contracts/token/ERC20/ERC20.sol\":10016:10017  0 */\n      0x00\n        /* \"@openzeppelin/contracts/token/ERC20/ERC20.sol\":10020:10026  amount */\n      dup5\n        /* \"@openzeppelin/contracts/token/ERC20/ERC20.sol\":9979:9998  _afterTokenTransfer */\n      tag_268\n        /* \"@openzeppelin/contracts/token/ERC20/ERC20.sol\":9979:10027  _afterTokenTransfer(account, address(0), amount) */\n      jump\t// in\n    tag_286:\n        /* \"@openzeppelin/contracts/token/ERC20/ERC20.sol\":9440:10034  {... */\n      pop\n        /* \"@openzeppelin/contracts/token/ERC20/ERC20.sol\":9375:10034  function _burn(address account, uint256 amount) internal virtual {... */\n      pop\n      pop\n      jump\t// out\n        /* \"@openzeppelin/contracts/access/Ownable.sol\":1359:1489  function _checkOwner() internal view virtual {... */\n    tag_176:\n        /* \"@openzeppelin/contracts/access/Ownable.sol\":1433:1445  _msgSender() */\n      tag_288\n        /* \"@openzeppelin/contracts/access/Ownable.sol\":1433:1443  _msgSender */\n      tag_137\n        /* \"@openzeppelin/contracts/access/Ownable.sol\":1433:1445  _msgSender() */\n      jump\t// in\n    tag_288:\n        /* \"@openzeppelin/contracts/access/Ownable.sol\":1422:1445  owner() == _msgSender() */\n      0xffffffffffffffffffffffffffffffffffffffff\n      and\n        /* \"@openzeppelin/contracts/access/Ownable.sol\":1422:1429  owner() */\n      tag_289\n        /* \"@openzeppelin/contracts/access/Ownable.sol\":1422:1427  owner */\n      tag_98\n        /* \"@openzeppelin/contracts/access/Ownable.sol\":1422:1429  owner() */\n      jump\t// in\n    tag_289:\n        /* \"@openzeppelin/contracts/access/Ownable.sol\":1422:1445  owner() == _msgSender() */\n      0xffffffffffffffffffffffffffffffffffffffff\n      and\n      eq\n        /* \"@openzeppelin/contracts/access/Ownable.sol\":1414:1482  require(owner() == _msgSender(), \"Ownable: caller is not the owner\") */\n      tag_290\n      jumpi\n      mload(0x40)\n      0x08c379a000000000000000000000000000000000000000000000000000000000\n      dup2\n      mstore\n      0x04\n      add\n      tag_291\n      swap1\n      tag_292\n      jump\t// in\n    tag_291:\n      mload(0x40)\n      dup1\n      swap2\n      sub\n      swap1\n      revert\n    tag_290:\n        /* \"@openzeppelin/contracts/access/Ownable.sol\":1359:1489  function _checkOwner() internal view virtual {... */\n      jump\t// out\n        /* \"@openzeppelin/contracts/access/Ownable.sol\":2426:2613  function _transferOwnership(address newOwner) internal virtual {... */\n    tag_200:\n        /* \"@openzeppelin/contracts/access/Ownable.sol\":2499:2515  address oldOwner */\n      0x00\n        /* \"@openzeppelin/contracts/access/Ownable.sol\":2518:2524  _owner */\n      0x05\n      0x00\n      swap1\n      sload\n      swap1\n      0x0100\n      exp\n      swap1\n      div\n      0xffffffffffffffffffffffffffffffffffffffff\n      and\n        /* \"@openzeppelin/contracts/access/Ownable.sol\":2499:2524  address oldOwner = _owner */\n      swap1\n      pop\n        /* \"@openzeppelin/contracts/access/Ownable.sol\":2543:2551  newOwner */\n      dup2\n        /* \"@openzeppelin/contracts/access/Ownable.sol\":2534:2540  _owner */\n      0x05\n      0x00\n        /* \"@openzeppelin/contracts/access/Ownable.sol\":2534:2551  _owner = newOwner */\n      0x0100\n      exp\n      dup2\n      sload\n      dup2\n      0xffffffffffffffffffffffffffffffffffffffff\n      mul\n      not\n      and\n      swap1\n      dup4\n      0xffffffffffffffffffffffffffffffffffffffff\n      and\n      mul\n      or\n      swap1\n      sstore\n      pop\n        /* \"@openzeppelin/contracts/access/Ownable.sol\":2597:2605  newOwner */\n      dup2\n        /* \"@openzeppelin/contracts/access/Ownable.sol\":2566:2606  OwnershipTransferred(oldOwner, newOwner) */\n      0xffffffffffffffffffffffffffffffffffffffff\n      and\n        /* \"@openzeppelin/contracts/access/Ownable.sol\":2587:2595  oldOwner */\n      dup2\n        /* \"@openzeppelin/contracts/access/Ownable.sol\":2566:2606  OwnershipTransferred(oldOwner, newOwner) */\n      0xffffffffffffffffffffffffffffffffffffffff\n      and\n      0x8be0079c531659141344cd1fd0a4f28419497f9722a3daafe3b4186f6b6457e0\n      mload(0x40)\n      mload(0x40)\n      dup1\n      swap2\n      sub\n      swap1\n      log3\n        /* \"@openzeppelin/contracts/access/Ownable.sol\":2489:2613  {... */\n      pop\n        /* \"@openzeppelin/contracts/access/Ownable.sol\":2426:2613  function _transferOwnership(address newOwner) internal virtual {... */\n      pop\n      jump\t// out\n        /* \"@openzeppelin/contracts/token/ERC20/ERC20.sol\":12073:12164  function _beforeTokenTransfer(address from, address to, uint256 amount) internal virtual {} */\n    tag_262:\n      pop\n      pop\n      pop\n      jump\t// out\n        /* \"@openzeppelin/contracts/token/ERC20/ERC20.sol\":12752:12842  function _afterTokenTransfer(address from, address to, uint256 amount) internal virtual {} */\n    tag_268:\n      pop\n      pop\n      pop\n      jump\t// out\n        /* \"#utility.yul\":7:106   */\n    tag_296:\n        /* \"#utility.yul\":59:65   */\n      0x00\n        /* \"#utility.yul\":93:98   */\n      dup2\n        /* \"#utility.yul\":87:99   */\n      mload\n        /* \"#utility.yul\":77:99   */\n      swap1\n      pop\n        /* \"#utility.yul\":7:106   */\n      swap2\n      swap1\n      pop\n      jump\t// out\n        /* \"#utility.yul\":112:281   */\n    tag_297:\n        /* \"#utility.yul\":196:207   */\n      0x00\n        /* \"#utility.yul\":230:236   */\n      dup3\n        /* \"#utility.yul\":225:228   */\n      dup3\n        /* \"#utility.yul\":218:237   */\n      mstore\n        /* \"#utility.yul\":270:274   */\n      0x20\n        /* \"#utility.yul\":265:268   */\n      dup3\n        /* \"#utility.yul\":261:275   */\n      add\n        /* \"#utility.yul\":246:275   */\n      swap1\n      pop\n        /* \"#utility.yul\":112:281   */\n      swap3\n      swap2\n      pop\n      pop\n      jump\t// out\n        /* \"#utility.yul\":287:533   */\n    tag_298:\n        /* \"#utility.yul\":368:369   */\n      0x00\n        /* \"#utility.yul\":378:491   */\n    tag_359:\n        /* \"#utility.yul\":392:398   */\n      dup4\n        /* \"#utility.yul\":389:390   */\n      dup2\n        /* \"#utility.yul\":386:399   */\n      lt\n        /* \"#utility.yul\":378:491   */\n      iszero\n      tag_361\n      jumpi\n        /* \"#utility.yul\":477:478   */\n      dup1\n        /* \"#utility.yul\":472:475   */\n      dup3\n        /* \"#utility.yul\":468:479   */\n      add\n        /* \"#utility.yul\":462:480   */\n      mload\n        /* \"#utility.yul\":458:459   */\n      dup2\n        /* \"#utility.yul\":453:456   */\n      dup5\n        /* \"#utility.yul\":449:460   */\n      add\n        /* \"#utility.yul\":442:481   */\n      mstore\n        /* \"#utility.yul\":414:416   */\n      0x20\n        /* \"#utility.yul\":411:412   */\n      dup2\n        /* \"#utility.yul\":407:417   */\n      add\n        /* \"#utility.yul\":402:417   */\n      swap1\n      pop\n        /* \"#utility.yul\":378:491   */\n      jump(tag_359)\n    tag_361:\n        /* \"#utility.yul\":525:526   */\n      0x00\n        /* \"#utility.yul\":516:522   */\n      dup5\n        /* \"#utility.yul\":511:514   */\n      dup5\n        /* \"#utility.yul\":507:523   */\n      add\n        /* \"#utility.yul\":500:527   */\n      mstore\n        /* \"#utility.yul\":349:533   */\n      pop\n        /* \"#utility.yul\":287:533   */\n      pop\n      pop\n      pop\n      jump\t// out\n        /* \"#utility.yul\":539:641   */\n    tag_299:\n        /* \"#utility.yul\":580:586   */\n      0x00\n        /* \"#utility.yul\":631:633   */\n      0x1f\n        /* \"#utility.yul\":627:634   */\n      not\n        /* \"#utility.yul\":622:624   */\n      0x1f\n        /* \"#utility.yul\":615:620   */\n      dup4\n        /* \"#utility.yul\":611:625   */\n      add\n        /* \"#utility.yul\":607:635   */\n      and\n        /* \"#utility.yul\":597:635   */\n      swap1\n      pop\n        /* \"#utility.yul\":539:641   */\n      swap2\n      swap1\n      pop\n      jump\t// out\n        /* \"#utility.yul\":647:1024   */\n    tag_300:\n        /* \"#utility.yul\":735:738   */\n      0x00\n        /* \"#utility.yul\":763:802   */\n      tag_364\n        /* \"#utility.yul\":796:801   */\n      dup3\n        /* \"#utility.yul\":763:802   */\n      tag_296\n      jump\t// in\n    tag_364:\n        /* \"#utility.yul\":818:889   */\n      tag_365\n        /* \"#utility.yul\":882:888   */\n      dup2\n        /* \"#utility.yul\":877:880   */\n      dup6\n        /* \"#utility.yul\":818:889   */\n      tag_297\n      jump\t// in\n    tag_365:\n        /* \"#utility.yul\":811:889   */\n      swap4\n      pop\n        /* \"#utility.yul\":898:963   */\n      tag_366\n        /* \"#utility.yul\":956:962   */\n      dup2\n        /* \"#utility.yul\":951:954   */\n      dup6\n        /* \"#utility.yul\":944:948   */\n      0x20\n        /* \"#utility.yul\":937:942   */\n      dup7\n        /* \"#utility.yul\":933:949   */\n      add\n        /* \"#utility.yul\":898:963   */\n      tag_298\n      jump\t// in\n    tag_366:\n        /* \"#utility.yul\":988:1017   */\n      tag_367\n        /* \"#utility.yul\":1010:1016   */\n      dup2\n        /* \"#utility.yul\":988:1017   */\n      tag_299\n      jump\t// in\n    tag_367:\n        /* \"#utility.yul\":983:986   */\n      dup5\n        /* \"#utility.yul\":979:1018   */\n      add\n        /* \"#utility.yul\":972:1018   */\n      swap2\n      pop\n        /* \"#utility.yul\":739:1024   */\n      pop\n        /* \"#utility.yul\":647:1024   */\n      swap3\n      swap2\n      pop\n      pop\n      jump\t// out\n        /* \"#utility.yul\":1030:1343   */\n    tag_31:\n        /* \"#utility.yul\":1143:1147   */\n      0x00\n        /* \"#utility.yul\":1181:1183   */\n      0x20\n        /* \"#utility.yul\":1170:1179   */\n      dup3\n        /* \"#utility.yul\":1166:1184   */\n      add\n        /* \"#utility.yul\":1158:1184   */\n      swap1\n      pop\n        /* \"#utility.yul\":1230:1239   */\n      dup2\n        /* \"#utility.yul\":1224:1228   */\n      dup2\n        /* \"#utility.yul\":1220:1240   */\n      sub\n        /* \"#utility.yul\":1216:1217   */\n      0x00\n        /* \"#utility.yul\":1205:1214   */\n      dup4\n        /* \"#utility.yul\":1201:1218   */\n      add\n        /* \"#utility.yul\":1194:1241   */\n      mstore\n        /* \"#utility.yul\":1258:1336   */\n      tag_369\n        /* \"#utility.yul\":1331:1335   */\n      dup2\n        /* \"#utility.yul\":1322:1328   */\n      dup5\n        /* \"#utility.yul\":1258:1336   */\n      tag_300\n      jump\t// in\n    tag_369:\n        /* \"#utility.yul\":1250:1336   */\n      swap1\n      pop\n        /* \"#utility.yul\":1030:1343   */\n      swap3\n      swap2\n      pop\n      pop\n      jump\t// out\n        /* \"#utility.yul\":1430:1547   */\n    tag_302:\n        /* \"#utility.yul\":1539:1540   */\n      0x00\n        /* \"#utility.yul\":1536:1537   */\n      dup1\n        /* \"#utility.yul\":1529:1541   */\n      revert\n        /* \"#utility.yul\":1676:1802   */\n    tag_304:\n        /* \"#utility.yul\":1713:1720   */\n      0x00\n        /* \"#utility.yul\":1753:1795   */\n      0xffffffffffffffffffffffffffffffffffffffff\n        /* \"#utility.yul\":1746:1751   */\n      dup3\n        /* \"#utility.yul\":1742:1796   */\n      and\n        /* \"#utility.yul\":1731:1796   */\n      swap1\n      pop\n        /* \"#utility.yul\":1676:1802   */\n      swap2\n      swap1\n      pop\n      jump\t// out\n        /* \"#utility.yul\":1808:1904   */\n    tag_305:\n        /* \"#utility.yul\":1845:1852   */\n      0x00\n        /* \"#utility.yul\":1874:1898   */\n      tag_375\n        /* \"#utility.yul\":1892:1897   */\n      dup3\n        /* \"#utility.yul\":1874:1898   */\n      tag_304\n      jump\t// in\n    tag_375:\n        /* \"#utility.yul\":1863:1898   */\n      swap1\n      pop\n        /* \"#utility.yul\":1808:1904   */\n      swap2\n      swap1\n      pop\n      jump\t// out\n        /* \"#utility.yul\":1910:2032   */\n    tag_306:\n        /* \"#utility.yul\":1983:2007   */\n      tag_377\n        /* \"#utility.yul\":2001:2006   */\n      dup2\n        /* \"#utility.yul\":1983:2007   */\n      tag_305\n      jump\t// in\n    tag_377:\n        /* \"#utility.yul\":1976:1981   */\n      dup2\n        /* \"#utility.yul\":1973:2008   */\n      eq\n        /* \"#utility.yul\":1963:2026   */\n      tag_378\n      jumpi\n        /* \"#utility.yul\":2022:2023   */\n      0x00\n        /* \"#utility.yul\":2019:2020   */\n      dup1\n        /* \"#utility.yul\":2012:2024   */\n      revert\n        /* \"#utility.yul\":1963:2026   */\n    tag_378:\n        /* \"#utility.yul\":1910:2032   */\n      pop\n      jump\t// out\n        /* \"#utility.yul\":2038:2177   */\n    tag_307:\n        /* \"#utility.yul\":2084:2089   */\n      0x00\n        /* \"#utility.yul\":2122:2128   */\n      dup2\n        /* \"#utility.yul\":2109:2129   */\n      calldataload\n        /* \"#utility.yul\":2100:2129   */\n      swap1\n      pop\n        /* \"#utility.yul\":2138:2171   */\n      tag_380\n        /* \"#utility.yul\":2165:2170   */\n      dup2\n        /* \"#utility.yul\":2138:2171   */\n      tag_306\n      jump\t// in\n    tag_380:\n        /* \"#utility.yul\":2038:2177   */\n      swap3\n      swap2\n      pop\n      pop\n      jump\t// out\n        /* \"#utility.yul\":2183:2260   */\n    tag_308:\n        /* \"#utility.yul\":2220:2227   */\n      0x00\n        /* \"#utility.yul\":2249:2254   */\n      dup2\n        /* \"#utility.yul\":2238:2254   */\n      swap1\n      pop\n        /* \"#utility.yul\":2183:2260   */\n      swap2\n      swap1\n      pop\n      jump\t// out\n        /* \"#utility.yul\":2266:2388   */\n    tag_309:\n        /* \"#utility.yul\":2339:2363   */\n      tag_383\n        /* \"#utility.yul\":2357:2362   */\n      dup2\n        /* \"#utility.yul\":2339:2363   */\n      tag_308\n      jump\t// in\n    tag_383:\n        /* \"#utility.yul\":2332:2337   */\n      dup2\n        /* \"#utility.yul\":2329:2364   */\n      eq\n        /* \"#utility.yul\":2319:2382   */\n      tag_384\n      jumpi\n        /* \"#utility.yul\":2378:2379   */\n      0x00\n        /* \"#utility.yul\":2375:2376   */\n      dup1\n        /* \"#utility.yul\":2368:2380   */\n      revert\n        /* \"#utility.yul\":2319:2382   */\n    tag_384:\n        /* \"#utility.yul\":2266:2388   */\n      pop\n      jump\t// out\n        /* \"#utility.yul\":2394:2533   */\n    tag_310:\n        /* \"#utility.yul\":2440:2445   */\n      0x00\n        /* \"#utility.yul\":2478:2484   */\n      dup2\n        /* \"#utility.yul\":2465:2485   */\n      calldataload\n        /* \"#utility.yul\":2456:2485   */\n      swap1\n      pop\n        /* \"#utility.yul\":2494:2527   */\n      tag_386\n        /* \"#utility.yul\":2521:2526   */\n      dup2\n        /* \"#utility.yul\":2494:2527   */\n      tag_309\n      jump\t// in\n    tag_386:\n        /* \"#utility.yul\":2394:2533   */\n      swap3\n      swap2\n      pop\n      pop\n      jump\t// out\n        /* \"#utility.yul\":2539:3013   */\n    tag_35:\n        /* \"#utility.yul\":2607:2613   */\n      0x00\n        /* \"#utility.yul\":2615:2621   */\n      dup1\n        /* \"#utility.yul\":2664:2666   */\n      0x40\n        /* \"#utility.yul\":2652:2661   */\n      dup4\n        /* \"#utility.yul\":2643:2650   */\n      dup6\n        /* \"#utility.yul\":2639:2662   */\n      sub\n        /* \"#utility.yul\":2635:2667   */\n      slt\n        /* \"#utility.yul\":2632:2751   */\n      iszero\n      tag_388\n      jumpi\n        /* \"#utility.yul\":2670:2749   */\n      tag_389\n      tag_302\n      jump\t// in\n    tag_389:\n        /* \"#utility.yul\":2632:2751   */\n    tag_388:\n        /* \"#utility.yul\":2790:2791   */\n      0x00\n        /* \"#utility.yul\":2815:2868   */\n      tag_390\n        /* \"#utility.yul\":2860:2867   */\n      dup6\n        /* \"#utility.yul\":2851:2857   */\n      dup3\n        /* \"#utility.yul\":2840:2849   */\n      dup7\n        /* \"#utility.yul\":2836:2858   */\n      add\n        /* \"#utility.yul\":2815:2868   */\n      tag_307\n      jump\t// in\n    tag_390:\n        /* \"#utility.yul\":2805:2868   */\n      swap3\n      pop\n        /* \"#utility.yul\":2761:2878   */\n      pop\n        /* \"#utility.yul\":2917:2919   */\n      0x20\n        /* \"#utility.yul\":2943:2996   */\n      tag_391\n        /* \"#utility.yul\":2988:2995   */\n      dup6\n        /* \"#utility.yul\":2979:2985   */\n      dup3\n        /* \"#utility.yul\":2968:2977   */\n      dup7\n        /* \"#utility.yul\":2964:2986   */\n      add\n        /* \"#utility.yul\":2943:2996   */\n      tag_310\n      jump\t// in\n    tag_391:\n        /* \"#utility.yul\":2933:2996   */\n      swap2\n      pop\n        /* \"#utility.yul\":2888:3006   */\n      pop\n        /* \"#utility.yul\":2539:3013   */\n      swap3\n      pop\n      swap3\n      swap1\n      pop\n      jump\t// out\n        /* \"#utility.yul\":3019:3109   */\n    tag_311:\n        /* \"#utility.yul\":3053:3060   */\n      0x00\n        /* \"#utility.yul\":3096:3101   */\n      dup2\n        /* \"#utility.yul\":3089:3102   */\n      iszero\n        /* \"#utility.yul\":3082:3103   */\n      iszero\n        /* \"#utility.yul\":3071:3103   */\n      swap1\n      pop\n        /* \"#utility.yul\":3019:3109   */\n      swap2\n      swap1\n      pop\n      jump\t// out\n        /* \"#utility.yul\":3115:3224   */\n    tag_312:\n        /* \"#utility.yul\":3196:3217   */\n      tag_394\n        /* \"#utility.yul\":3211:3216   */\n      dup2\n        /* \"#utility.yul\":3196:3217   */\n      tag_311\n      jump\t// in\n    tag_394:\n        /* \"#utility.yul\":3191:3194   */\n      dup3\n        /* \"#utility.yul\":3184:3218   */\n      mstore\n        /* \"#utility.yul\":3115:3224   */\n      pop\n      pop\n      jump\t// out\n        /* \"#utility.yul\":3230:3440   */\n    tag_38:\n        /* \"#utility.yul\":3317:3321   */\n      0x00\n        /* \"#utility.yul\":3355:3357   */\n      0x20\n        /* \"#utility.yul\":3344:3353   */\n      dup3\n        /* \"#utility.yul\":3340:3358   */\n      add\n        /* \"#utility.yul\":3332:3358   */\n      swap1\n      pop\n        /* \"#utility.yul\":3368:3433   */\n      tag_396\n        /* \"#utility.yul\":3430:3431   */\n      0x00\n        /* \"#utility.yul\":3419:3428   */\n      dup4\n        /* \"#utility.yul\":3415:3432   */\n      add\n        /* \"#utility.yul\":3406:3412   */\n      dup5\n        /* \"#utility.yul\":3368:3433   */\n      tag_312\n      jump\t// in\n    tag_396:\n        /* \"#utility.yul\":3230:3440   */\n      swap3\n      swap2\n      pop\n      pop\n      jump\t// out\n        /* \"#utility.yul\":3446:3564   */\n    tag_313:\n        /* \"#utility.yul\":3533:3557   */\n      tag_398\n        /* \"#utility.yul\":3551:3556   */\n      dup2\n        /* \"#utility.yul\":3533:3557   */\n      tag_308\n      jump\t// in\n    tag_398:\n        /* \"#utility.yul\":3528:3531   */\n      dup3\n        /* \"#utility.yul\":3521:3558   */\n      mstore\n        /* \"#utility.yul\":3446:3564   */\n      pop\n      pop\n      jump\t// out\n        /* \"#utility.yul\":3570:3792   */\n    tag_43:\n        /* \"#utility.yul\":3663:3667   */\n      0x00\n        /* \"#utility.yul\":3701:3703   */\n      0x20\n        /* \"#utility.yul\":3690:3699   */\n      dup3\n        /* \"#utility.yul\":3686:3704   */\n      add\n        /* \"#utility.yul\":3678:3704   */\n      swap1\n      pop\n        /* \"#utility.yul\":3714:3785   */\n      tag_400\n        /* \"#utility.yul\":3782:3783   */\n      0x00\n        /* \"#utility.yul\":3771:3780   */\n      dup4\n        /* \"#utility.yul\":3767:3784   */\n      add\n        /* \"#utility.yul\":3758:3764   */\n      dup5\n        /* \"#utility.yul\":3714:3785   */\n      tag_313\n      jump\t// in\n    tag_400:\n        /* \"#utility.yul\":3570:3792   */\n      swap3\n      swap2\n      pop\n      pop\n      jump\t// out\n        /* \"#utility.yul\":3798:4417   */\n    tag_47:\n        /* \"#utility.yul\":3875:3881   */\n      0x00\n        /* \"#utility.yul\":3883:3889   */\n      dup1\n        /* \"#utility.yul\":3891:3897   */\n      0x00\n        /* \"#utility.yul\":3940:3942   */\n      0x60\n        /* \"#utility.yul\":3928:3937   */\n      dup5\n        /* \"#utility.yul\":3919:3926   */\n      dup7\n        /* \"#utility.yul\":3915:3938   */\n      sub\n        /* \"#utility.yul\":3911:3943   */\n      slt\n        /* \"#utility.yul\":3908:4027   */\n      iszero\n      tag_402\n      jumpi\n        /* \"#utility.yul\":3946:4025   */\n      tag_403\n      tag_302\n      jump\t// in\n    tag_403:\n        /* \"#utility.yul\":3908:4027   */\n    tag_402:\n        /* \"#utility.yul\":4066:4067   */\n      0x00\n        /* \"#utility.yul\":4091:4144   */\n      tag_404\n        /* \"#utility.yul\":4136:4143   */\n      dup7\n        /* \"#utility.yul\":4127:4133   */\n      dup3\n        /* \"#utility.yul\":4116:4125   */\n      dup8\n        /* \"#utility.yul\":4112:4134   */\n      add\n        /* \"#utility.yul\":4091:4144   */\n      tag_307\n      jump\t// in\n    tag_404:\n        /* \"#utility.yul\":4081:4144   */\n      swap4\n      pop\n        /* \"#utility.yul\":4037:4154   */\n      pop\n        /* \"#utility.yul\":4193:4195   */\n      0x20\n        /* \"#utility.yul\":4219:4272   */\n      tag_405\n        /* \"#utility.yul\":4264:4271   */\n      dup7\n        /* \"#utility.yul\":4255:4261   */\n      dup3\n        /* \"#utility.yul\":4244:4253   */\n      dup8\n        /* \"#utility.yul\":4240:4262   */\n      add\n        /* \"#utility.yul\":4219:4272   */\n      tag_307\n      jump\t// in\n    tag_405:\n        /* \"#utility.yul\":4209:4272   */\n      swap3\n      pop\n        /* \"#utility.yul\":4164:4282   */\n      pop\n        /* \"#utility.yul\":4321:4323   */\n      0x40\n        /* \"#utility.yul\":4347:4400   */\n      tag_406\n        /* \"#utility.yul\":4392:4399   */\n      dup7\n        /* \"#utility.yul\":4383:4389   */\n      dup3\n        /* \"#utility.yul\":4372:4381   */\n      dup8\n        /* \"#utility.yul\":4368:4390   */\n      add\n        /* \"#utility.yul\":4347:4400   */\n      tag_310\n      jump\t// in\n    tag_406:\n        /* \"#utility.yul\":4337:4400   */\n      swap2\n      pop\n        /* \"#utility.yul\":4292:4410   */\n      pop\n        /* \"#utility.yul\":3798:4417   */\n      swap3\n      pop\n      swap3\n      pop\n      swap3\n      jump\t// out\n        /* \"#utility.yul\":4423:4509   */\n    tag_314:\n        /* \"#utility.yul\":4458:4465   */\n      0x00\n        /* \"#utility.yul\":4498:4502   */\n      0xff\n        /* \"#utility.yul\":4491:4496   */\n      dup3\n        /* \"#utility.yul\":4487:4503   */\n      and\n        /* \"#utility.yul\":4476:4503   */\n      swap1\n      pop\n        /* \"#utility.yul\":4423:4509   */\n      swap2\n      swap1\n      pop\n      jump\t// out\n        /* \"#utility.yul\":4515:4627   */\n    tag_315:\n        /* \"#utility.yul\":4598:4620   */\n      tag_409\n        /* \"#utility.yul\":4614:4619   */\n      dup2\n        /* \"#utility.yul\":4598:4620   */\n      tag_314\n      jump\t// in\n    tag_409:\n        /* \"#utility.yul\":4593:4596   */\n      dup3\n        /* \"#utility.yul\":4586:4621   */\n      mstore\n        /* \"#utility.yul\":4515:4627   */\n      pop\n      pop\n      jump\t// out\n        /* \"#utility.yul\":4633:4847   */\n    tag_54:\n        /* \"#utility.yul\":4722:4726   */\n      0x00\n        /* \"#utility.yul\":4760:4762   */\n      0x20\n        /* \"#utility.yul\":4749:4758   */\n      dup3\n        /* \"#utility.yul\":4745:4763   */\n      add\n        /* \"#utility.yul\":4737:4763   */\n      swap1\n      pop\n        /* \"#utility.yul\":4773:4840   */\n      tag_411\n        /* \"#utility.yul\":4837:4838   */\n      0x00\n        /* \"#utility.yul\":4826:4835   */\n      dup4\n        /* \"#utility.yul\":4822:4839   */\n      add\n        /* \"#utility.yul\":4813:4819   */\n      dup5\n        /* \"#utility.yul\":4773:4840   */\n      tag_315\n      jump\t// in\n    tag_411:\n        /* \"#utility.yul\":4633:4847   */\n      swap3\n      swap2\n      pop\n      pop\n      jump\t// out\n        /* \"#utility.yul\":4853:5182   */\n    tag_57:\n        /* \"#utility.yul\":4912:4918   */\n      0x00\n        /* \"#utility.yul\":4961:4963   */\n      0x20\n        /* \"#utility.yul\":4949:4958   */\n      dup3\n        /* \"#utility.yul\":4940:4947   */\n      dup5\n        /* \"#utility.yul\":4936:4959   */\n      sub\n        /* \"#utility.yul\":4932:4964   */\n      slt\n        /* \"#utility.yul\":4929:5048   */\n      iszero\n      tag_413\n      jumpi\n        /* \"#utility.yul\":4967:5046   */\n      tag_414\n      tag_302\n      jump\t// in\n    tag_414:\n        /* \"#utility.yul\":4929:5048   */\n    tag_413:\n        /* \"#utility.yul\":5087:5088   */\n      0x00\n        /* \"#utility.yul\":5112:5165   */\n      tag_415\n        /* \"#utility.yul\":5157:5164   */\n      dup5\n        /* \"#utility.yul\":5148:5154   */\n      dup3\n        /* \"#utility.yul\":5137:5146   */\n      dup6\n        /* \"#utility.yul\":5133:5155   */\n      add\n        /* \"#utility.yul\":5112:5165   */\n      tag_310\n      jump\t// in\n    tag_415:\n        /* \"#utility.yul\":5102:5165   */\n      swap2\n      pop\n        /* \"#utility.yul\":5058:5175   */\n      pop\n        /* \"#utility.yul\":4853:5182   */\n      swap3\n      swap2\n      pop\n      pop\n      jump\t// out\n        /* \"#utility.yul\":5188:5517   */\n    tag_82:\n        /* \"#utility.yul\":5247:5253   */\n      0x00\n        /* \"#utility.yul\":5296:5298   */\n      0x20\n        /* \"#utility.yul\":5284:5293   */\n      dup3\n        /* \"#utility.yul\":5275:5282   */\n      dup5\n        /* \"#utility.yul\":5271:5294   */\n      sub\n        /* \"#utility.yul\":5267:5299   */\n      slt\n        /* \"#utility.yul\":5264:5383   */\n      iszero\n      tag_417\n      jumpi\n        /* \"#utility.yul\":5302:5381   */\n      tag_418\n      tag_302\n      jump\t// in\n    tag_418:\n        /* \"#utility.yul\":5264:5383   */\n    tag_417:\n        /* \"#utility.yul\":5422:5423   */\n      0x00\n        /* \"#utility.yul\":5447:5500   */\n      tag_419\n        /* \"#utility.yul\":5492:5499   */\n      dup5\n        /* \"#utility.yul\":5483:5489   */\n      dup3\n        /* \"#utility.yul\":5472:5481   */\n      dup6\n        /* \"#utility.yul\":5468:5490   */\n      add\n        /* \"#utility.yul\":5447:5500   */\n      tag_307\n      jump\t// in\n    tag_419:\n        /* \"#utility.yul\":5437:5500   */\n      swap2\n      pop\n        /* \"#utility.yul\":5393:5510   */\n      pop\n        /* \"#utility.yul\":5188:5517   */\n      swap3\n      swap2\n      pop\n      pop\n      jump\t// out\n        /* \"#utility.yul\":5523:5641   */\n    tag_316:\n        /* \"#utility.yul\":5610:5634   */\n      tag_421\n        /* \"#utility.yul\":5628:5633   */\n      dup2\n        /* \"#utility.yul\":5610:5634   */\n      tag_305\n      jump\t// in\n    tag_421:\n        /* \"#utility.yul\":5605:5608   */\n      dup3\n        /* \"#utility.yul\":5598:5635   */\n      mstore\n        /* \"#utility.yul\":5523:5641   */\n      pop\n      pop\n      jump\t// out\n        /* \"#utility.yul\":5647:5869   */\n    tag_100:\n        /* \"#utility.yul\":5740:5744   */\n      0x00\n        /* \"#utility.yul\":5778:5780   */\n      0x20\n        /* \"#utility.yul\":5767:5776   */\n      dup3\n        /* \"#utility.yul\":5763:5781   */\n      add\n        /* \"#utility.yul\":5755:5781   */\n      swap1\n      pop\n        /* \"#utility.yul\":5791:5862   */\n      tag_423\n        /* \"#utility.yul\":5859:5860   */\n      0x00\n        /* \"#utility.yul\":5848:5857   */\n      dup4\n        /* \"#utility.yul\":5844:5861   */\n      add\n        /* \"#utility.yul\":5835:5841   */\n      dup5\n        /* \"#utility.yul\":5791:5862   */\n      tag_316\n      jump\t// in\n    tag_423:\n        /* \"#utility.yul\":5647:5869   */\n      swap3\n      swap2\n      pop\n      pop\n      jump\t// out\n        /* \"#utility.yul\":5875:6349   */\n    tag_121:\n        /* \"#utility.yul\":5943:5949   */\n      0x00\n        /* \"#utility.yul\":5951:5957   */\n      dup1\n        /* \"#utility.yul\":6000:6002   */\n      0x40\n        /* \"#utility.yul\":5988:5997   */\n      dup4\n        /* \"#utility.yul\":5979:5986   */\n      dup6\n        /* \"#utility.yul\":5975:5998   */\n      sub\n        /* \"#utility.yul\":5971:6003   */\n      slt\n        /* \"#utility.yul\":5968:6087   */\n      iszero\n      tag_425\n      jumpi\n        /* \"#utility.yul\":6006:6085   */\n      tag_426\n      tag_302\n      jump\t// in\n    tag_426:\n        /* \"#utility.yul\":5968:6087   */\n    tag_425:\n        /* \"#utility.yul\":6126:6127   */\n      0x00\n        /* \"#utility.yul\":6151:6204   */\n      tag_427\n        /* \"#utility.yul\":6196:6203   */\n      dup6\n        /* \"#utility.yul\":6187:6193   */\n      dup3\n        /* \"#utility.yul\":6176:6185   */\n      dup7\n        /* \"#utility.yul\":6172:6194   */\n      add\n        /* \"#utility.yul\":6151:6204   */\n      tag_307\n      jump\t// in\n    tag_427:\n        /* \"#utility.yul\":6141:6204   */\n      swap3\n      pop\n        /* \"#utility.yul\":6097:6214   */\n      pop\n        /* \"#utility.yul\":6253:6255   */\n      0x20\n        /* \"#utility.yul\":6279:6332   */\n      tag_428\n        /* \"#utility.yul\":6324:6331   */\n      dup6\n        /* \"#utility.yul\":6315:6321   */\n      dup3\n        /* \"#utility.yul\":6304:6313   */\n      dup7\n        /* \"#utility.yul\":6300:6322   */\n      add\n        /* \"#utility.yul\":6279:6332   */\n      tag_307\n      jump\t// in\n    tag_428:\n        /* \"#utility.yul\":6269:6332   */\n      swap2\n      pop\n        /* \"#utility.yul\":6224:6342   */\n      pop\n        /* \"#utility.yul\":5875:6349   */\n      swap3\n      pop\n      swap3\n      swap1\n      pop\n      jump\t// out\n        /* \"#utility.yul\":6355:6535   */\n    tag_317:\n        /* \"#utility.yul\":6403:6480   */\n      0x4e487b7100000000000000000000000000000000000000000000000000000000\n        /* \"#utility.yul\":6400:6401   */\n      0x00\n        /* \"#utility.yul\":6393:6481   */\n      mstore\n        /* \"#utility.yul\":6500:6504   */\n      0x22\n        /* \"#utility.yul\":6497:6498   */\n      0x04\n        /* \"#utility.yul\":6490:6505   */\n      mstore\n        /* \"#utility.yul\":6524:6528   */\n      0x24\n        /* \"#utility.yul\":6521:6522   */\n      0x00\n        /* \"#utility.yul\":6514:6529   */\n      revert\n        /* \"#utility.yul\":6541:6861   */\n    tag_130:\n        /* \"#utility.yul\":6585:6591   */\n      0x00\n        /* \"#utility.yul\":6622:6623   */\n      0x02\n        /* \"#utility.yul\":6616:6620   */\n      dup3\n        /* \"#utility.yul\":6612:6624   */\n      div\n        /* \"#utility.yul\":6602:6624   */\n      swap1\n      pop\n        /* \"#utility.yul\":6669:6670   */\n      0x01\n        /* \"#utility.yul\":6663:6667   */\n      dup3\n        /* \"#utility.yul\":6659:6671   */\n      and\n        /* \"#utility.yul\":6690:6708   */\n      dup1\n        /* \"#utility.yul\":6680:6761   */\n      tag_431\n      jumpi\n        /* \"#utility.yul\":6746:6750   */\n      0x7f\n        /* \"#utility.yul\":6738:6744   */\n      dup3\n        /* \"#utility.yul\":6734:6751   */\n      and\n        /* \"#utility.yul\":6724:6751   */\n      swap2\n      pop\n        /* \"#utility.yul\":6680:6761   */\n    tag_431:\n        /* \"#utility.yul\":6808:6810   */\n      0x20\n        /* \"#utility.yul\":6800:6806   */\n      dup3\n        /* \"#utility.yul\":6797:6811   */\n      lt\n        /* \"#utility.yul\":6777:6795   */\n      dup2\n        /* \"#utility.yul\":6774:6812   */\n      sub\n        /* \"#utility.yul\":6771:6855   */\n      tag_432\n      jumpi\n        /* \"#utility.yul\":6827:6845   */\n      tag_433\n      tag_317\n      jump\t// in\n    tag_433:\n        /* \"#utility.yul\":6771:6855   */\n    tag_432:\n        /* \"#utility.yul\":6592:6861   */\n      pop\n        /* \"#utility.yul\":6541:6861   */\n      swap2\n      swap1\n      pop\n      jump\t// out\n        /* \"#utility.yul\":6867:7047   */\n    tag_318:\n        /* \"#utility.yul\":6915:6992   */\n      0x4e487b7100000000000000000000000000000000000000000000000000000000\n        /* \"#utility.yul\":6912:6913   */\n      0x00\n        /* \"#utility.yul\":6905:6993   */\n      mstore\n        /* \"#utility.yul\":7012:7016   */\n      0x11\n        /* \"#utility.yul\":7009:7010   */\n      0x04\n        /* \"#utility.yul\":7002:7017   */\n      mstore\n        /* \"#utility.yul\":7036:7040   */\n      0x24\n        /* \"#utility.yul\":7033:7034   */\n      0x00\n        /* \"#utility.yul\":7026:7041   */\n      revert\n        /* \"#utility.yul\":7053:7463   */\n    tag_150:\n        /* \"#utility.yul\":7093:7100   */\n      0x00\n        /* \"#utility.yul\":7116:7136   */\n      tag_436\n        /* \"#utility.yul\":7134:7135   */\n      dup3\n        /* \"#utility.yul\":7116:7136   */\n      tag_308\n      jump\t// in\n    tag_436:\n        /* \"#utility.yul\":7111:7136   */\n      swap2\n      pop\n        /* \"#utility.yul\":7150:7170   */\n      tag_437\n        /* \"#utility.yul\":7168:7169   */\n      dup4\n        /* \"#utility.yul\":7150:7170   */\n      tag_308\n      jump\t// in\n    tag_437:\n        /* \"#utility.yul\":7145:7170   */\n      swap3\n      pop\n        /* \"#utility.yul\":7205:7206   */\n      dup3\n        /* \"#utility.yul\":7202:7203   */\n      dup3\n        /* \"#utility.yul\":7198:7207   */\n      mul\n        /* \"#utility.yul\":7227:7257   */\n      tag_438\n        /* \"#utility.yul\":7245:7256   */\n      dup2\n        /* \"#utility.yul\":7227:7257   */\n      tag_308\n      jump\t// in\n    tag_438:\n        /* \"#utility.yul\":7216:7257   */\n      swap2\n      pop\n        /* \"#utility.yul\":7406:7407   */\n      dup3\n        /* \"#utility.yul\":7397:7404   */\n      dup3\n        /* \"#utility.yul\":7393:7408   */\n      div\n        /* \"#utility.yul\":7390:7391   */\n      dup5\n        /* \"#utility.yul\":7387:7409   */\n      eq\n        /* \"#utility.yul\":7367:7368   */\n      dup4\n        /* \"#utility.yul\":7360:7369   */\n      iszero\n        /* \"#utility.yul\":7340:7423   */\n      or\n        /* \"#utility.yul\":7317:7456   */\n      tag_439\n      jumpi\n        /* \"#utility.yul\":7436:7454   */\n      tag_440\n      tag_318\n      jump\t// in\n    tag_440:\n        /* \"#utility.yul\":7317:7456   */\n    tag_439:\n        /* \"#utility.yul\":7101:7463   */\n      pop\n        /* \"#utility.yul\":7053:7463   */\n      swap3\n      swap2\n      pop\n      pop\n      jump\t// out\n        /* \"#utility.yul\":7469:7643   */\n    tag_319:\n        /* \"#utility.yul\":7609:7635   */\n      0x496e73756666696369656e74206574686572732073656e740000000000000000\n        /* \"#utility.yul\":7605:7606   */\n      0x00\n        /* \"#utility.yul\":7597:7603   */\n      dup3\n        /* \"#utility.yul\":7593:7607   */\n      add\n        /* \"#utility.yul\":7586:7636   */\n      mstore\n        /* \"#utility.yul\":7469:7643   */\n      pop\n      jump\t// out\n        /* \"#utility.yul\":7649:8015   */\n    tag_320:\n        /* \"#utility.yul\":7791:7794   */\n      0x00\n        /* \"#utility.yul\":7812:7879   */\n      tag_443\n        /* \"#utility.yul\":7876:7878   */\n      0x18\n        /* \"#utility.yul\":7871:7874   */\n      dup4\n        /* \"#utility.yul\":7812:7879   */\n      tag_297\n      jump\t// in\n    tag_443:\n        /* \"#utility.yul\":7805:7879   */\n      swap2\n      pop\n        /* \"#utility.yul\":7888:7981   */\n      tag_444\n        /* \"#utility.yul\":7977:7980   */\n      dup3\n        /* \"#utility.yul\":7888:7981   */\n      tag_319\n      jump\t// in\n    tag_444:\n        /* \"#utility.yul\":8006:8008   */\n      0x20\n        /* \"#utility.yul\":8001:8004   */\n      dup3\n        /* \"#utility.yul\":7997:8009   */\n      add\n        /* \"#utility.yul\":7990:8009   */\n      swap1\n      pop\n        /* \"#utility.yul\":7649:8015   */\n      swap2\n      swap1\n      pop\n      jump\t// out\n        /* \"#utility.yul\":8021:8440   */\n    tag_153:\n        /* \"#utility.yul\":8187:8191   */\n      0x00\n        /* \"#utility.yul\":8225:8227   */\n      0x20\n        /* \"#utility.yul\":8214:8223   */\n      dup3\n        /* \"#utility.yul\":8210:8228   */\n      add\n        /* \"#utility.yul\":8202:8228   */\n      swap1\n      pop\n        /* \"#utility.yul\":8274:8283   */\n      dup2\n        /* \"#utility.yul\":8268:8272   */\n      dup2\n        /* \"#utility.yul\":8264:8284   */\n      sub\n        /* \"#utility.yul\":8260:8261   */\n      0x00\n        /* \"#utility.yul\":8249:8258   */\n      dup4\n        /* \"#utility.yul\":8245:8262   */\n      add\n        /* \"#utility.yul\":8238:8285   */\n      mstore\n        /* \"#utility.yul\":8302:8433   */\n      tag_446\n        /* \"#utility.yul\":8428:8432   */\n      dup2\n        /* \"#utility.yul\":8302:8433   */\n      tag_320\n      jump\t// in\n    tag_446:\n        /* \"#utility.yul\":8294:8433   */\n      swap1\n      pop\n        /* \"#utility.yul\":8021:8440   */\n      swap2\n      swap1\n      pop\n      jump\t// out\n        /* \"#utility.yul\":8446:8637   */\n    tag_161:\n        /* \"#utility.yul\":8486:8489   */\n      0x00\n        /* \"#utility.yul\":8505:8525   */\n      tag_448\n        /* \"#utility.yul\":8523:8524   */\n      dup3\n        /* \"#utility.yul\":8505:8525   */\n      tag_308\n      jump\t// in\n    tag_448:\n        /* \"#utility.yul\":8500:8525   */\n      swap2\n      pop\n        /* \"#utility.yul\":8539:8559   */\n      tag_449\n        /* \"#utility.yul\":8557:8558   */\n      dup4\n        /* \"#utility.yul\":8539:8559   */\n      tag_308\n      jump\t// in\n    tag_449:\n        /* \"#utility.yul\":8534:8559   */\n      swap3\n      pop\n        /* \"#utility.yul\":8582:8583   */\n      dup3\n        /* \"#utility.yul\":8579:8580   */\n      dup3\n        /* \"#utility.yul\":8575:8584   */\n      add\n        /* \"#utility.yul\":8568:8584   */\n      swap1\n      pop\n        /* \"#utility.yul\":8603:8606   */\n      dup1\n        /* \"#utility.yul\":8600:8601   */\n      dup3\n        /* \"#utility.yul\":8597:8607   */\n      gt\n        /* \"#utility.yul\":8594:8630   */\n      iszero\n      tag_450\n      jumpi\n        /* \"#utility.yul\":8610:8628   */\n      tag_451\n      tag_318\n      jump\t// in\n    tag_451:\n        /* \"#utility.yul\":8594:8630   */\n    tag_450:\n        /* \"#utility.yul\":8446:8637   */\n      swap3\n      swap2\n      pop\n      pop\n      jump\t// out\n        /* \"#utility.yul\":8643:8867   */\n    tag_321:\n        /* \"#utility.yul\":8783:8817   */\n      0x4f6e6c7920746865206f776e65722063616e2063616c6c20746869732066756e\n        /* \"#utility.yul\":8779:8780   */\n      0x00\n        /* \"#utility.yul\":8771:8777   */\n      dup3\n        /* \"#utility.yul\":8767:8781   */\n      add\n        /* \"#utility.yul\":8760:8818   */\n      mstore\n        /* \"#utility.yul\":8852:8859   */\n      0x6374696f6e000000000000000000000000000000000000000000000000000000\n        /* \"#utility.yul\":8847:8849   */\n      0x20\n        /* \"#utility.yul\":8839:8845   */\n      dup3\n        /* \"#utility.yul\":8835:8850   */\n      add\n        /* \"#utility.yul\":8828:8860   */\n      mstore\n        /* \"#utility.yul\":8643:8867   */\n      pop\n      jump\t// out\n        /* \"#utility.yul\":8873:9239   */\n    tag_322:\n        /* \"#utility.yul\":9015:9018   */\n      0x00\n        /* \"#utility.yul\":9036:9103   */\n      tag_454\n        /* \"#utility.yul\":9100:9102   */\n      0x25\n        /* \"#utility.yul\":9095:9098   */\n      dup4\n        /* \"#utility.yul\":9036:9103   */\n      tag_297\n      jump\t// in\n    tag_454:\n        /* \"#utility.yul\":9029:9103   */\n      swap2\n      pop\n        /* \"#utility.yul\":9112:9205   */\n      tag_455\n        /* \"#utility.yul\":9201:9204   */\n      dup3\n        /* \"#utility.yul\":9112:9205   */\n      tag_321\n      jump\t// in\n    tag_455:\n        /* \"#utility.yul\":9230:9232   */\n      0x40\n        /* \"#utility.yul\":9225:9228   */\n      dup3\n        /* \"#utility.yul\":9221:9233   */\n      add\n        /* \"#utility.yul\":9214:9233   */\n      swap1\n      pop\n        /* \"#utility.yul\":8873:9239   */\n      swap2\n      swap1\n      pop\n      jump\t// out\n        /* \"#utility.yul\":9245:9664   */\n    tag_170:\n        /* \"#utility.yul\":9411:9415   */\n      0x00\n        /* \"#utility.yul\":9449:9451   */\n      0x20\n        /* \"#utility.yul\":9438:9447   */\n      dup3\n        /* \"#utility.yul\":9434:9452   */\n      add\n        /* \"#utility.yul\":9426:9452   */\n      swap1\n      pop\n        /* \"#utility.yul\":9498:9507   */\n      dup2\n        /* \"#utility.yul\":9492:9496   */\n      dup2\n        /* \"#utility.yul\":9488:9508   */\n      sub\n        /* \"#utility.yul\":9484:9485   */\n      0x00\n        /* \"#utility.yul\":9473:9482   */\n      dup4\n        /* \"#utility.yul\":9469:9486   */\n      add\n        /* \"#utility.yul\":9462:9509   */\n      mstore\n        /* \"#utility.yul\":9526:9657   */\n      tag_457\n        /* \"#utility.yul\":9652:9656   */\n      dup2\n        /* \"#utility.yul\":9526:9657   */\n      tag_322\n      jump\t// in\n    tag_457:\n        /* \"#utility.yul\":9518:9657   */\n      swap1\n      pop\n        /* \"#utility.yul\":9245:9664   */\n      swap2\n      swap1\n      pop\n      jump\t// out\n        /* \"#utility.yul\":9670:9839   */\n    tag_323:\n        /* \"#utility.yul\":9810:9831   */\n      0x496e73756666696369656e7420746f6b656e7300000000000000000000000000\n        /* \"#utility.yul\":9806:9807   */\n      0x00\n        /* \"#utility.yul\":9798:9804   */\n      dup3\n        /* \"#utility.yul\":9794:9808   */\n      add\n        /* \"#utility.yul\":9787:9832   */\n      mstore\n        /* \"#utility.yul\":9670:9839   */\n      pop\n      jump\t// out\n        /* \"#utility.yul\":9845:10211   */\n    tag_324:\n        /* \"#utility.yul\":9987:9990   */\n      0x00\n        /* \"#utility.yul\":10008:10075   */\n      tag_460\n        /* \"#utility.yul\":10072:10074   */\n      0x13\n        /* \"#utility.yul\":10067:10070   */\n      dup4\n        /* \"#utility.yul\":10008:10075   */\n      tag_297\n      jump\t// in\n    tag_460:\n        /* \"#utility.yul\":10001:10075   */\n      swap2\n      pop\n        /* \"#utility.yul\":10084:10177   */\n      tag_461\n        /* \"#utility.yul\":10173:10176   */\n      dup3\n        /* \"#utility.yul\":10084:10177   */\n      tag_323\n      jump\t// in\n    tag_461:\n        /* \"#utility.yul\":10202:10204   */\n      0x20\n        /* \"#utility.yul\":10197:10200   */\n      dup3\n        /* \"#utility.yul\":10193:10205   */\n      add\n        /* \"#utility.yul\":10186:10205   */\n      swap1\n      pop\n        /* \"#utility.yul\":9845:10211   */\n      swap2\n      swap1\n      pop\n      jump\t// out\n        /* \"#utility.yul\":10217:10636   */\n    tag_182:\n        /* \"#utility.yul\":10383:10387   */\n      0x00\n        /* \"#utility.yul\":10421:10423   */\n      0x20\n        /* \"#utility.yul\":10410:10419   */\n      dup3\n        /* \"#utility.yul\":10406:10424   */\n      add\n        /* \"#utility.yul\":10398:10424   */\n      swap1\n      pop\n        /* \"#utility.yul\":10470:10479   */\n      dup2\n        /* \"#utility.yul\":10464:10468   */\n      dup2\n        /* \"#utility.yul\":10460:10480   */\n      sub\n        /* \"#utility.yul\":10456:10457   */\n      0x00\n        /* \"#utility.yul\":10445:10454   */\n      dup4\n        /* \"#utility.yul\":10441:10458   */\n      add\n        /* \"#utility.yul\":10434:10481   */\n      mstore\n        /* \"#utility.yul\":10498:10629   */\n      tag_463\n        /* \"#utility.yul\":10624:10628   */\n      dup2\n        /* \"#utility.yul\":10498:10629   */\n      tag_324\n      jump\t// in\n    tag_463:\n        /* \"#utility.yul\":10490:10629   */\n      swap1\n      pop\n        /* \"#utility.yul\":10217:10636   */\n      swap2\n      swap1\n      pop\n      jump\t// out\n        /* \"#utility.yul\":10642:10865   */\n    tag_325:\n        /* \"#utility.yul\":10782:10816   */\n      0x4e6f7420656e6f75676820746f6b656e7320696e206f776e657227732062616c\n        /* \"#utility.yul\":10778:10779   */\n      0x00\n        /* \"#utility.yul\":10770:10776   */\n      dup3\n        /* \"#utility.yul\":10766:10780   */\n      add\n        /* \"#utility.yul\":10759:10817   */\n      mstore\n        /* \"#utility.yul\":10851:10857   */\n      0x616e636500000000000000000000000000000000000000000000000000000000\n        /* \"#utility.yul\":10846:10848   */\n      0x20\n        /* \"#utility.yul\":10838:10844   */\n      dup3\n        /* \"#utility.yul\":10834:10849   */\n      add\n        /* \"#utility.yul\":10827:10858   */\n      mstore\n        /* \"#utility.yul\":10642:10865   */\n      pop\n      jump\t// out\n        /* \"#utility.yul\":10871:11237   */\n    tag_326:\n        /* \"#utility.yul\":11013:11016   */\n      0x00\n        /* \"#utility.yul\":11034:11101   */\n      tag_466\n        /* \"#utility.yul\":11098:11100   */\n      0x24\n        /* \"#utility.yul\":11093:11096   */\n      dup4\n        /* \"#utility.yul\":11034:11101   */\n      tag_297\n      jump\t// in\n    tag_466:\n        /* \"#utility.yul\":11027:11101   */\n      swap2\n      pop\n        /* \"#utility.yul\":11110:11203   */\n      tag_467\n        /* \"#utility.yul\":11199:11202   */\n      dup3\n        /* \"#utility.yul\":11110:11203   */\n      tag_325\n      jump\t// in\n    tag_467:\n        /* \"#utility.yul\":11228:11230   */\n      0x40\n        /* \"#utility.yul\":11223:11226   */\n      dup3\n        /* \"#utility.yul\":11219:11231   */\n      add\n        /* \"#utility.yul\":11212:11231   */\n      swap1\n      pop\n        /* \"#utility.yul\":10871:11237   */\n      swap2\n      swap1\n      pop\n      jump\t// out\n        /* \"#utility.yul\":11243:11662   */\n    tag_187:\n        /* \"#utility.yul\":11409:11413   */\n      0x00\n        /* \"#utility.yul\":11447:11449   */\n      0x20\n        /* \"#utility.yul\":11436:11445   */\n      dup3\n        /* \"#utility.yul\":11432:11450   */\n      add\n        /* \"#utility.yul\":11424:11450   */\n      swap1\n      pop\n        /* \"#utility.yul\":11496:11505   */\n      dup2\n        /* \"#utility.yul\":11490:11494   */\n      dup2\n        /* \"#utility.yul\":11486:11506   */\n      sub\n        /* \"#utility.yul\":11482:11483   */\n      0x00\n        /* \"#utility.yul\":11471:11480   */\n      dup4\n        /* \"#utility.yul\":11467:11484   */\n      add\n        /* \"#utility.yul\":11460:11507   */\n      mstore\n        /* \"#utility.yul\":11524:11655   */\n      tag_469\n        /* \"#utility.yul\":11650:11654   */\n      dup2\n        /* \"#utility.yul\":11524:11655   */\n      tag_326\n      jump\t// in\n    tag_469:\n        /* \"#utility.yul\":11516:11655   */\n      swap1\n      pop\n        /* \"#utility.yul\":11243:11662   */\n      swap2\n      swap1\n      pop\n      jump\t// out\n        /* \"#utility.yul\":11668:11901   */\n    tag_327:\n        /* \"#utility.yul\":11808:11842   */\n      0x436f6e747261637420646f6573206e6f74206861766520656e6f756768206574\n        /* \"#utility.yul\":11804:11805   */\n      0x00\n        /* \"#utility.yul\":11796:11802   */\n      dup3\n        /* \"#utility.yul\":11792:11806   */\n      add\n        /* \"#utility.yul\":11785:11843   */\n      mstore\n        /* \"#utility.yul\":11877:11893   */\n      0x6865727320746f20726566756e64000000000000000000000000000000000000\n        /* \"#utility.yul\":11872:11874   */\n      0x20\n        /* \"#utility.yul\":11864:11870   */\n      dup3\n        /* \"#utility.yul\":11860:11875   */\n      add\n        /* \"#utility.yul\":11853:11894   */\n      mstore\n        /* \"#utility.yul\":11668:11901   */\n      pop\n      jump\t// out\n        /* \"#utility.yul\":11907:12273   */\n    tag_328:\n        /* \"#utility.yul\":12049:12052   */\n      0x00\n        /* \"#utility.yul\":12070:12137   */\n      tag_472\n        /* \"#utility.yul\":12134:12136   */\n      0x2e\n        /* \"#utility.yul\":12129:12132   */\n      dup4\n        /* \"#utility.yul\":12070:12137   */\n      tag_297\n      jump\t// in\n    tag_472:\n        /* \"#utility.yul\":12063:12137   */\n      swap2\n      pop\n        /* \"#utility.yul\":12146:12239   */\n      tag_473\n        /* \"#utility.yul\":12235:12238   */\n      dup3\n        /* \"#utility.yul\":12146:12239   */\n      tag_327\n      jump\t// in\n    tag_473:\n        /* \"#utility.yul\":12264:12266   */\n      0x40\n        /* \"#utility.yul\":12259:12262   */\n      dup3\n        /* \"#utility.yul\":12255:12267   */\n      add\n        /* \"#utility.yul\":12248:12267   */\n      swap1\n      pop\n        /* \"#utility.yul\":11907:12273   */\n      swap2\n      swap1\n      pop\n      jump\t// out\n        /* \"#utility.yul\":12279:12698   */\n    tag_191:\n        /* \"#utility.yul\":12445:12449   */\n      0x00\n        /* \"#utility.yul\":12483:12485   */\n      0x20\n        /* \"#utility.yul\":12472:12481   */\n      dup3\n        /* \"#utility.yul\":12468:12486   */\n      add\n        /* \"#utility.yul\":12460:12486   */\n      swap1\n      pop\n        /* \"#utility.yul\":12532:12541   */\n      dup2\n        /* \"#utility.yul\":12526:12530   */\n      dup2\n        /* \"#utility.yul\":12522:12542   */\n      sub\n        /* \"#utility.yul\":12518:12519   */\n      0x00\n        /* \"#utility.yul\":12507:12516   */\n      dup4\n        /* \"#utility.yul\":12503:12520   */\n      add\n        /* \"#utility.yul\":12496:12543   */\n      mstore\n        /* \"#utility.yul\":12560:12691   */\n      tag_475\n        /* \"#utility.yul\":12686:12690   */\n      dup2\n        /* \"#utility.yul\":12560:12691   */\n      tag_328\n      jump\t// in\n    tag_475:\n        /* \"#utility.yul\":12552:12691   */\n      swap1\n      pop\n        /* \"#utility.yul\":12279:12698   */\n      swap2\n      swap1\n      pop\n      jump\t// out\n        /* \"#utility.yul\":12704:12870   */\n    tag_329:\n        /* \"#utility.yul\":12844:12862   */\n      0x4e6f20756e736f6c6420746f6b656e7300000000000000000000000000000000\n        /* \"#utility.yul\":12840:12841   */\n      0x00\n        /* \"#utility.yul\":12832:12838   */\n      dup3\n        /* \"#utility.yul\":12828:12842   */\n      add\n        /* \"#utility.yul\":12821:12863   */\n      mstore\n        /* \"#utility.yul\":12704:12870   */\n      pop\n      jump\t// out\n        /* \"#utility.yul\":12876:13242   */\n    tag_330:\n        /* \"#utility.yul\":13018:13021   */\n      0x00\n        /* \"#utility.yul\":13039:13106   */\n      tag_478\n        /* \"#utility.yul\":13103:13105   */\n      0x10\n        /* \"#utility.yul\":13098:13101   */\n      dup4\n        /* \"#utility.yul\":13039:13106   */\n      tag_297\n      jump\t// in\n    tag_478:\n        /* \"#utility.yul\":13032:13106   */\n      swap2\n      pop\n        /* \"#utility.yul\":13115:13208   */\n      tag_479\n        /* \"#utility.yul\":13204:13207   */\n      dup3\n        /* \"#utility.yul\":13115:13208   */\n      tag_329\n      jump\t// in\n    tag_479:\n        /* \"#utility.yul\":13233:13235   */\n      0x20\n        /* \"#utility.yul\":13228:13231   */\n      dup3\n        /* \"#utility.yul\":13224:13236   */\n      add\n        /* \"#utility.yul\":13217:13236   */\n      swap1\n      pop\n        /* \"#utility.yul\":12876:13242   */\n      swap2\n      swap1\n      pop\n      jump\t// out\n        /* \"#utility.yul\":13248:13667   */\n    tag_212:\n        /* \"#utility.yul\":13414:13418   */\n      0x00\n        /* \"#utility.yul\":13452:13454   */\n      0x20\n        /* \"#utility.yul\":13441:13450   */\n      dup3\n        /* \"#utility.yul\":13437:13455   */\n      add\n        /* \"#utility.yul\":13429:13455   */\n      swap1\n      pop\n        /* \"#utility.yul\":13501:13510   */\n      dup2\n        /* \"#utility.yul\":13495:13499   */\n      dup2\n        /* \"#utility.yul\":13491:13511   */\n      sub\n        /* \"#utility.yul\":13487:13488   */\n      0x00\n        /* \"#utility.yul\":13476:13485   */\n      dup4\n        /* \"#utility.yul\":13472:13489   */\n      add\n        /* \"#utility.yul\":13465:13512   */\n      mstore\n        /* \"#utility.yul\":13529:13660   */\n      tag_481\n        /* \"#utility.yul\":13655:13659   */\n      dup2\n        /* \"#utility.yul\":13529:13660   */\n      tag_330\n      jump\t// in\n    tag_481:\n        /* \"#utility.yul\":13521:13660   */\n      swap1\n      pop\n        /* \"#utility.yul\":13248:13667   */\n      swap2\n      swap1\n      pop\n      jump\t// out\n        /* \"#utility.yul\":13673:13897   */\n    tag_331:\n        /* \"#utility.yul\":13813:13847   */\n      0x45524332303a2064656372656173656420616c6c6f77616e63652062656c6f77\n        /* \"#utility.yul\":13809:13810   */\n      0x00\n        /* \"#utility.yul\":13801:13807   */\n      dup3\n        /* \"#utility.yul\":13797:13811   */\n      add\n        /* \"#utility.yul\":13790:13848   */\n      mstore\n        /* \"#utility.yul\":13882:13889   */\n      0x207a65726f000000000000000000000000000000000000000000000000000000\n        /* \"#utility.yul\":13877:13879   */\n      0x20\n        /* \"#utility.yul\":13869:13875   */\n      dup3\n        /* \"#utility.yul\":13865:13880   */\n      add\n        /* \"#utility.yul\":13858:13890   */\n      mstore\n        /* \"#utility.yul\":13673:13897   */\n      pop\n      jump\t// out\n        /* \"#utility.yul\":13903:14269   */\n    tag_332:\n        /* \"#utility.yul\":14045:14048   */\n      0x00\n        /* \"#utility.yul\":14066:14133   */\n      tag_484\n        /* \"#utility.yul\":14130:14132   */\n      0x25\n        /* \"#utility.yul\":14125:14128   */\n      dup4\n        /* \"#utility.yul\":14066:14133   */\n      tag_297\n      jump\t// in\n    tag_484:\n        /* \"#utility.yul\":14059:14133   */\n      swap2\n      pop\n        /* \"#utility.yul\":14142:14235   */\n      tag_485\n        /* \"#utility.yul\":14231:14234   */\n      dup3\n        /* \"#utility.yul\":14142:14235   */\n      tag_331\n      jump\t// in\n    tag_485:\n        /* \"#utility.yul\":14260:14262   */\n      0x40\n        /* \"#utility.yul\":14255:14258   */\n      dup3\n        /* \"#utility.yul\":14251:14263   */\n      add\n        /* \"#utility.yul\":14244:14263   */\n      swap1\n      pop\n        /* \"#utility.yul\":13903:14269   */\n      swap2\n      swap1\n      pop\n      jump\t// out\n        /* \"#utility.yul\":14275:14694   */\n    tag_225:\n        /* \"#utility.yul\":14441:14445   */\n      0x00\n        /* \"#utility.yul\":14479:14481   */\n      0x20\n        /* \"#utility.yul\":14468:14477   */\n      dup3\n        /* \"#utility.yul\":14464:14482   */\n      add\n        /* \"#utility.yul\":14456:14482   */\n      swap1\n      pop\n        /* \"#utility.yul\":14528:14537   */\n      dup2\n        /* \"#utility.yul\":14522:14526   */\n      dup2\n        /* \"#utility.yul\":14518:14538   */\n      sub\n        /* \"#utility.yul\":14514:14515   */\n      0x00\n        /* \"#utility.yul\":14503:14512   */\n      dup4\n        /* \"#utility.yul\":14499:14516   */\n      add\n        /* \"#utility.yul\":14492:14539   */\n      mstore\n        /* \"#utility.yul\":14556:14687   */\n      tag_487\n        /* \"#utility.yul\":14682:14686   */\n      dup2\n        /* \"#utility.yul\":14556:14687   */\n      tag_332\n      jump\t// in\n    tag_487:\n        /* \"#utility.yul\":14548:14687   */\n      swap1\n      pop\n        /* \"#utility.yul\":14275:14694   */\n      swap2\n      swap1\n      pop\n      jump\t// out\n        /* \"#utility.yul\":14700:14925   */\n    tag_333:\n        /* \"#utility.yul\":14840:14874   */\n      0x4f776e61626c653a206e6577206f776e657220697320746865207a65726f2061\n        /* \"#utility.yul\":14836:14837   */\n      0x00\n        /* \"#utility.yul\":14828:14834   */\n      dup3\n        /* \"#utility.yul\":14824:14838   */\n      add\n        /* \"#utility.yul\":14817:14875   */\n      mstore\n        /* \"#utility.yul\":14909:14917   */\n      0x6464726573730000000000000000000000000000000000000000000000000000\n        /* \"#utility.yul\":14904:14906   */\n      0x20\n        /* \"#utility.yul\":14896:14902   */\n      dup3\n        /* \"#utility.yul\":14892:14907   */\n      add\n        /* \"#utility.yul\":14885:14918   */\n      mstore\n        /* \"#utility.yul\":14700:14925   */\n      pop\n      jump\t// out\n        /* \"#utility.yul\":14931:15297   */\n    tag_334:\n        /* \"#utility.yul\":15073:15076   */\n      0x00\n        /* \"#utility.yul\":15094:15161   */\n      tag_490\n        /* \"#utility.yul\":15158:15160   */\n      0x26\n        /* \"#utility.yul\":15153:15156   */\n      dup4\n        /* \"#utility.yul\":15094:15161   */\n      tag_297\n      jump\t// in\n    tag_490:\n        /* \"#utility.yul\":15087:15161   */\n      swap2\n      pop\n        /* \"#utility.yul\":15170:15263   */\n      tag_491\n        /* \"#utility.yul\":15259:15262   */\n      dup3\n        /* \"#utility.yul\":15170:15263   */\n      tag_333\n      jump\t// in\n    tag_491:\n        /* \"#utility.yul\":15288:15290   */\n      0x40\n        /* \"#utility.yul\":15283:15286   */\n      dup3\n        /* \"#utility.yul\":15279:15291   */\n      add\n        /* \"#utility.yul\":15272:15291   */\n      swap1\n      pop\n        /* \"#utility.yul\":14931:15297   */\n      swap2\n      swap1\n      pop\n      jump\t// out\n        /* \"#utility.yul\":15303:15722   */\n    tag_236:\n        /* \"#utility.yul\":15469:15473   */\n      0x00\n        /* \"#utility.yul\":15507:15509   */\n      0x20\n        /* \"#utility.yul\":15496:15505   */\n      dup3\n        /* \"#utility.yul\":15492:15510   */\n      add\n        /* \"#utility.yul\":15484:15510   */\n      swap1\n      pop\n        /* \"#utility.yul\":15556:15565   */\n      dup2\n        /* \"#utility.yul\":15550:15554   */\n      dup2\n        /* \"#utility.yul\":15546:15566   */\n      sub\n        /* \"#utility.yul\":15542:15543   */\n      0x00\n        /* \"#utility.yul\":15531:15540   */\n      dup4\n        /* \"#utility.yul\":15527:15544   */\n      add\n        /* \"#utility.yul\":15520:15567   */\n      mstore\n        /* \"#utility.yul\":15584:15715   */\n      tag_493\n        /* \"#utility.yul\":15710:15714   */\n      dup2\n        /* \"#utility.yul\":15584:15715   */\n      tag_334\n      jump\t// in\n    tag_493:\n        /* \"#utility.yul\":15576:15715   */\n      swap1\n      pop\n        /* \"#utility.yul\":15303:15722   */\n      swap2\n      swap1\n      pop\n      jump\t// out\n        /* \"#utility.yul\":15728:15951   */\n    tag_335:\n        /* \"#utility.yul\":15868:15902   */\n      0x45524332303a20617070726f76652066726f6d20746865207a65726f20616464\n        /* \"#utility.yul\":15864:15865   */\n      0x00\n        /* \"#utility.yul\":15856:15862   */\n      dup3\n        /* \"#utility.yul\":15852:15866   */\n      add\n        /* \"#utility.yul\":15845:15903   */\n      mstore\n        /* \"#utility.yul\":15937:15943   */\n      0x7265737300000000000000000000000000000000000000000000000000000000\n        /* \"#utility.yul\":15932:15934   */\n      0x20\n        /* \"#utility.yul\":15924:15930   */\n      dup3\n        /* \"#utility.yul\":15920:15935   */\n      add\n        /* \"#utility.yul\":15913:15944   */\n      mstore\n        /* \"#utility.yul\":15728:15951   */\n      pop\n      jump\t// out\n        /* \"#utility.yul\":15957:16323   */\n    tag_336:\n        /* \"#utility.yul\":16099:16102   */\n      0x00\n        /* \"#utility.yul\":16120:16187   */\n      tag_496\n        /* \"#utility.yul\":16184:16186   */\n      0x24\n        /* \"#utility.yul\":16179:16182   */\n      dup4\n        /* \"#utility.yul\":16120:16187   */\n      tag_297\n      jump\t// in\n    tag_496:\n        /* \"#utility.yul\":16113:16187   */\n      swap2\n      pop\n        /* \"#utility.yul\":16196:16289   */\n      tag_497\n        /* \"#utility.yul\":16285:16288   */\n      dup3\n        /* \"#utility.yul\":16196:16289   */\n      tag_335\n      jump\t// in\n    tag_497:\n        /* \"#utility.yul\":16314:16316   */\n      0x40\n        /* \"#utility.yul\":16309:16312   */\n      dup3\n        /* \"#utility.yul\":16305:16317   */\n      add\n        /* \"#utility.yul\":16298:16317   */\n      swap1\n      pop\n        /* \"#utility.yul\":15957:16323   */\n      swap2\n      swap1\n      pop\n      jump\t// out\n        /* \"#utility.yul\":16329:16748   */\n    tag_242:\n        /* \"#utility.yul\":16495:16499   */\n      0x00\n        /* \"#utility.yul\":16533:16535   */\n      0x20\n        /* \"#utility.yul\":16522:16531   */\n      dup3\n        /* \"#utility.yul\":16518:16536   */\n      add\n        /* \"#utility.yul\":16510:16536   */\n      swap1\n      pop\n        /* \"#utility.yul\":16582:16591   */\n      dup2\n        /* \"#utility.yul\":16576:16580   */\n      dup2\n        /* \"#utility.yul\":16572:16592   */\n      sub\n        /* \"#utility.yul\":16568:16569   */\n      0x00\n        /* \"#utility.yul\":16557:16566   */\n      dup4\n        /* \"#utility.yul\":16553:16570   */\n      add\n        /* \"#utility.yul\":16546:16593   */\n      mstore\n        /* \"#utility.yul\":16610:16741   */\n      tag_499\n        /* \"#utility.yul\":16736:16740   */\n      dup2\n        /* \"#utility.yul\":16610:16741   */\n      tag_336\n      jump\t// in\n    tag_499:\n        /* \"#utility.yul\":16602:16741   */\n      swap1\n      pop\n        /* \"#utility.yul\":16329:16748   */\n      swap2\n      swap1\n      pop\n      jump\t// out\n        /* \"#utility.yul\":16754:16975   */\n    tag_337:\n        /* \"#utility.yul\":16894:16928   */\n      0x45524332303a20617070726f766520746f20746865207a65726f206164647265\n        /* \"#utility.yul\":16890:16891   */\n      0x00\n        /* \"#utility.yul\":16882:16888   */\n      dup3\n        /* \"#utility.yul\":16878:16892   */\n      add\n        /* \"#utility.yul\":16871:16929   */\n      mstore\n        /* \"#utility.yul\":16963:16967   */\n      0x7373000000000000000000000000000000000000000000000000000000000000\n        /* \"#utility.yul\":16958:16960   */\n      0x20\n        /* \"#utility.yul\":16950:16956   */\n      dup3\n        /* \"#utility.yul\":16946:16961   */\n      add\n        /* \"#utility.yul\":16939:16968   */\n      mstore\n        /* \"#utility.yul\":16754:16975   */\n      pop\n      jump\t// out\n        /* \"#utility.yul\":16981:17347   */\n    tag_338:\n        /* \"#utility.yul\":17123:17126   */\n      0x00\n        /* \"#utility.yul\":17144:17211   */\n      tag_502\n        /* \"#utility.yul\":17208:17210   */\n      0x22\n        /* \"#utility.yul\":17203:17206   */\n      dup4\n        /* \"#utility.yul\":17144:17211   */\n      tag_297\n      jump\t// in\n    tag_502:\n        /* \"#utility.yul\":17137:17211   */\n      swap2\n      pop\n        /* \"#utility.yul\":17220:17313   */\n      tag_503\n        /* \"#utility.yul\":17309:17312   */\n      dup3\n        /* \"#utility.yul\":17220:17313   */\n      tag_337\n      jump\t// in\n    tag_503:\n        /* \"#utility.yul\":17338:17340   */\n      0x40\n        /* \"#utility.yul\":17333:17336   */\n      dup3\n        /* \"#utility.yul\":17329:17341   */\n      add\n        /* \"#utility.yul\":17322:17341   */\n      swap1\n      pop\n        /* \"#utility.yul\":16981:17347   */\n      swap2\n      swap1\n      pop\n      jump\t// out\n        /* \"#utility.yul\":17353:17772   */\n    tag_245:\n        /* \"#utility.yul\":17519:17523   */\n      0x00\n        /* \"#utility.yul\":17557:17559   */\n      0x20\n        /* \"#utility.yul\":17546:17555   */\n      dup3\n        /* \"#utility.yul\":17542:17560   */\n      add\n        /* \"#utility.yul\":17534:17560   */\n      swap1\n      pop\n        /* \"#utility.yul\":17606:17615   */\n      dup2\n        /* \"#utility.yul\":17600:17604   */\n      dup2\n        /* \"#utility.yul\":17596:17616   */\n      sub\n        /* \"#utility.yul\":17592:17593   */\n      0x00\n        /* \"#utility.yul\":17581:17590   */\n      dup4\n        /* \"#utility.yul\":17577:17594   */\n      add\n        /* \"#utility.yul\":17570:17617   */\n      mstore\n        /* \"#utility.yul\":17634:17765   */\n      tag_505\n        /* \"#utility.yul\":17760:17764   */\n      dup2\n        /* \"#utility.yul\":17634:17765   */\n      tag_338\n      jump\t// in\n    tag_505:\n        /* \"#utility.yul\":17626:17765   */\n      swap1\n      pop\n        /* \"#utility.yul\":17353:17772   */\n      swap2\n      swap1\n      pop\n      jump\t// out\n        /* \"#utility.yul\":17778:17957   */\n    tag_339:\n        /* \"#utility.yul\":17918:17949   */\n      0x45524332303a20696e73756666696369656e7420616c6c6f77616e6365000000\n        /* \"#utility.yul\":17914:17915   */\n      0x00\n        /* \"#utility.yul\":17906:17912   */\n      dup3\n        /* \"#utility.yul\":17902:17916   */\n      add\n        /* \"#utility.yul\":17895:17950   */\n      mstore\n        /* \"#utility.yul\":17778:17957   */\n      pop\n      jump\t// out\n        /* \"#utility.yul\":17963:18329   */\n    tag_340:\n        /* \"#utility.yul\":18105:18108   */\n      0x00\n        /* \"#utility.yul\":18126:18193   */\n      tag_508\n        /* \"#utility.yul\":18190:18192   */\n      0x1d\n        /* \"#utility.yul\":18185:18188   */\n      dup4\n        /* \"#utility.yul\":18126:18193   */\n      tag_297\n      jump\t// in\n    tag_508:\n        /* \"#utility.yul\":18119:18193   */\n      swap2\n      pop\n        /* \"#utility.yul\":18202:18295   */\n      tag_509\n        /* \"#utility.yul\":18291:18294   */\n      dup3\n        /* \"#utility.yul\":18202:18295   */\n      tag_339\n      jump\t// in\n    tag_509:\n        /* \"#utility.yul\":18320:18322   */\n      0x20\n        /* \"#utility.yul\":18315:18318   */\n      dup3\n        /* \"#utility.yul\":18311:18323   */\n      add\n        /* \"#utility.yul\":18304:18323   */\n      swap1\n      pop\n        /* \"#utility.yul\":17963:18329   */\n      swap2\n      swap1\n      pop\n      jump\t// out\n        /* \"#utility.yul\":18335:18754   */\n    tag_252:\n        /* \"#utility.yul\":18501:18505   */\n      0x00\n        /* \"#utility.yul\":18539:18541   */\n      0x20\n        /* \"#utility.yul\":18528:18537   */\n      dup3\n        /* \"#utility.yul\":18524:18542   */\n      add\n        /* \"#utility.yul\":18516:18542   */\n      swap1\n      pop\n        /* \"#utility.yul\":18588:18597   */\n      dup2\n        /* \"#utility.yul\":18582:18586   */\n      dup2\n        /* \"#utility.yul\":18578:18598   */\n      sub\n        /* \"#utility.yul\":18574:18575   */\n      0x00\n        /* \"#utility.yul\":18563:18572   */\n      dup4\n        /* \"#utility.yul\":18559:18576   */\n      add\n        /* \"#utility.yul\":18552:18599   */\n      mstore\n        /* \"#utility.yul\":18616:18747   */\n      tag_511\n        /* \"#utility.yul\":18742:18746   */\n      dup2\n        /* \"#utility.yul\":18616:18747   */\n      tag_340\n      jump\t// in\n    tag_511:\n        /* \"#utility.yul\":18608:18747   */\n      swap1\n      pop\n        /* \"#utility.yul\":18335:18754   */\n      swap2\n      swap1\n      pop\n      jump\t// out\n        /* \"#utility.yul\":18760:18984   */\n    tag_341:\n        /* \"#utility.yul\":18900:18934   */\n      0x45524332303a207472616e736665722066726f6d20746865207a65726f206164\n        /* \"#utility.yul\":18896:18897   */\n      0x00\n        /* \"#utility.yul\":18888:18894   */\n      dup3\n        /* \"#utility.yul\":18884:18898   */\n      add\n        /* \"#utility.yul\":18877:18935   */\n      mstore\n        /* \"#utility.yul\":18969:18976   */\n      0x6472657373000000000000000000000000000000000000000000000000000000\n        /* \"#utility.yul\":18964:18966   */\n      0x20\n        /* \"#utility.yul\":18956:18962   */\n      dup3\n        /* \"#utility.yul\":18952:18967   */\n      add\n        /* \"#utility.yul\":18945:18977   */\n      mstore\n        /* \"#utility.yul\":18760:18984   */\n      pop\n      jump\t// out\n        /* \"#utility.yul\":18990:19356   */\n    tag_342:\n        /* \"#utility.yul\":19132:19135   */\n      0x00\n        /* \"#utility.yul\":19153:19220   */\n      tag_514\n        /* \"#utility.yul\":19217:19219   */\n      0x25\n        /* \"#utility.yul\":19212:19215   */\n      dup4\n        /* \"#utility.yul\":19153:19220   */\n      tag_297\n      jump\t// in\n    tag_514:\n        /* \"#utility.yul\":19146:19220   */\n      swap2\n      pop\n        /* \"#utility.yul\":19229:19322   */\n      tag_515\n        /* \"#utility.yul\":19318:19321   */\n      dup3\n        /* \"#utility.yul\":19229:19322   */\n      tag_341\n      jump\t// in\n    tag_515:\n        /* \"#utility.yul\":19347:19349   */\n      0x40\n        /* \"#utility.yul\":19342:19345   */\n      dup3\n        /* \"#utility.yul\":19338:19350   */\n      add\n        /* \"#utility.yul\":19331:19350   */\n      swap1\n      pop\n        /* \"#utility.yul\":18990:19356   */\n      swap2\n      swap1\n      pop\n      jump\t// out\n        /* \"#utility.yul\":19362:19781   */\n    tag_257:\n        /* \"#utility.yul\":19528:19532   */\n      0x00\n        /* \"#utility.yul\":19566:19568   */\n      0x20\n        /* \"#utility.yul\":19555:19564   */\n      dup3\n        /* \"#utility.yul\":19551:19569   */\n      add\n        /* \"#utility.yul\":19543:19569   */\n      swap1\n      pop\n        /* \"#utility.yul\":19615:19624   */\n      dup2\n        /* \"#utility.yul\":19609:19613   */\n      dup2\n        /* \"#utility.yul\":19605:19625   */\n      sub\n        /* \"#utility.yul\":19601:19602   */\n      0x00\n        /* \"#utility.yul\":19590:19599   */\n      dup4\n        /* \"#utility.yul\":19586:19603   */\n      add\n        /* \"#utility.yul\":19579:19626   */\n      mstore\n        /* \"#utility.yul\":19643:19774   */\n      tag_517\n        /* \"#utility.yul\":19769:19773   */\n      dup2\n        /* \"#utility.yul\":19643:19774   */\n      tag_342\n      jump\t// in\n    tag_517:\n        /* \"#utility.yul\":19635:19774   */\n      swap1\n      pop\n        /* \"#utility.yul\":19362:19781   */\n      swap2\n      swap1\n      pop\n      jump\t// out\n        /* \"#utility.yul\":19787:20009   */\n    tag_343:\n        /* \"#utility.yul\":19927:19961   */\n      0x45524332303a207472616e7366657220746f20746865207a65726f2061646472\n        /* \"#utility.yul\":19923:19924   */\n      0x00\n        /* \"#utility.yul\":19915:19921   */\n      dup3\n        /* \"#utility.yul\":19911:19925   */\n      add\n        /* \"#utility.yul\":19904:19962   */\n      mstore\n        /* \"#utility.yul\":19996:20001   */\n      0x6573730000000000000000000000000000000000000000000000000000000000\n        /* \"#utility.yul\":19991:19993   */\n      0x20\n        /* \"#utility.yul\":19983:19989   */\n      dup3\n        /* \"#utility.yul\":19979:19994   */\n      add\n        /* \"#utility.yul\":19972:20002   */\n      mstore\n        /* \"#utility.yul\":19787:20009   */\n      pop\n      jump\t// out\n        /* \"#utility.yul\":20015:20381   */\n    tag_344:\n        /* \"#utility.yul\":20157:20160   */\n      0x00\n        /* \"#utility.yul\":20178:20245   */\n      tag_520\n        /* \"#utility.yul\":20242:20244   */\n      0x23\n        /* \"#utility.yul\":20237:20240   */\n      dup4\n        /* \"#utility.yul\":20178:20245   */\n      tag_297\n      jump\t// in\n    tag_520:\n        /* \"#utility.yul\":20171:20245   */\n      swap2\n      pop\n        /* \"#utility.yul\":20254:20347   */\n      tag_521\n        /* \"#utility.yul\":20343:20346   */\n      dup3\n        /* \"#utility.yul\":20254:20347   */\n      tag_343\n      jump\t// in\n    tag_521:\n        /* \"#utility.yul\":20372:20374   */\n      0x40\n        /* \"#utility.yul\":20367:20370   */\n      dup3\n        /* \"#utility.yul\":20363:20375   */\n      add\n        /* \"#utility.yul\":20356:20375   */\n      swap1\n      pop\n        /* \"#utility.yul\":20015:20381   */\n      swap2\n      swap1\n      pop\n      jump\t// out\n        /* \"#utility.yul\":20387:20806   */\n    tag_260:\n        /* \"#utility.yul\":20553:20557   */\n      0x00\n        /* \"#utility.yul\":20591:20593   */\n      0x20\n        /* \"#utility.yul\":20580:20589   */\n      dup3\n        /* \"#utility.yul\":20576:20594   */\n      add\n        /* \"#utility.yul\":20568:20594   */\n      swap1\n      pop\n        /* \"#utility.yul\":20640:20649   */\n      dup2\n        /* \"#utility.yul\":20634:20638   */\n      dup2\n        /* \"#utility.yul\":20630:20650   */\n      sub\n        /* \"#utility.yul\":20626:20627   */\n      0x00\n        /* \"#utility.yul\":20615:20624   */\n      dup4\n        /* \"#utility.yul\":20611:20628   */\n      add\n        /* \"#utility.yul\":20604:20651   */\n      mstore\n        /* \"#utility.yul\":20668:20799   */\n      tag_523\n        /* \"#utility.yul\":20794:20798   */\n      dup2\n        /* \"#utility.yul\":20668:20799   */\n      tag_344\n      jump\t// in\n    tag_523:\n        /* \"#utility.yul\":20660:20799   */\n      swap1\n      pop\n        /* \"#utility.yul\":20387:20806   */\n      swap2\n      swap1\n      pop\n      jump\t// out\n        /* \"#utility.yul\":20812:21037   */\n    tag_345:\n        /* \"#utility.yul\":20952:20986   */\n      0x45524332303a207472616e7366657220616d6f756e7420657863656564732062\n        /* \"#utility.yul\":20948:20949   */\n      0x00\n        /* \"#utility.yul\":20940:20946   */\n      dup3\n        /* \"#utility.yul\":20936:20950   */\n      add\n        /* \"#utility.yul\":20929:20987   */\n      mstore\n        /* \"#utility.yul\":21021:21029   */\n      0x616c616e63650000000000000000000000000000000000000000000000000000\n        /* \"#utility.yul\":21016:21018   */\n      0x20\n        /* \"#utility.yul\":21008:21014   */\n      dup3\n        /* \"#utility.yul\":21004:21019   */\n      add\n        /* \"#utility.yul\":20997:21030   */\n      mstore\n        /* \"#utility.yul\":20812:21037   */\n      pop\n      jump\t// out\n        /* \"#utility.yul\":21043:21409   */\n    tag_346:\n        /* \"#utility.yul\":21185:21188   */\n      0x00\n        /* \"#utility.yul\":21206:21273   */\n      tag_526\n        /* \"#utility.yul\":21270:21272   */\n      0x26\n        /* \"#utility.yul\":21265:21268   */\n      dup4\n        /* \"#utility.yul\":21206:21273   */\n      tag_297\n      jump\t// in\n    tag_526:\n        /* \"#utility.yul\":21199:21273   */\n      swap2\n      pop\n        /* \"#utility.yul\":21282:21375   */\n      tag_527\n        /* \"#utility.yul\":21371:21374   */\n      dup3\n        /* \"#utility.yul\":21282:21375   */\n      tag_345\n      jump\t// in\n    tag_527:\n        /* \"#utility.yul\":21400:21402   */\n      0x40\n        /* \"#utility.yul\":21395:21398   */\n      dup3\n        /* \"#utility.yul\":21391:21403   */\n      add\n        /* \"#utility.yul\":21384:21403   */\n      swap1\n      pop\n        /* \"#utility.yul\":21043:21409   */\n      swap2\n      swap1\n      pop\n      jump\t// out\n        /* \"#utility.yul\":21415:21834   */\n    tag_265:\n        /* \"#utility.yul\":21581:21585   */\n      0x00\n        /* \"#utility.yul\":21619:21621   */\n      0x20\n        /* \"#utility.yul\":21608:21617   */\n      dup3\n        /* \"#utility.yul\":21604:21622   */\n      add\n        /* \"#utility.yul\":21596:21622   */\n      swap1\n      pop\n        /* \"#utility.yul\":21668:21677   */\n      dup2\n        /* \"#utility.yul\":21662:21666   */\n      dup2\n        /* \"#utility.yul\":21658:21678   */\n      sub\n        /* \"#utility.yul\":21654:21655   */\n      0x00\n        /* \"#utility.yul\":21643:21652   */\n      dup4\n        /* \"#utility.yul\":21639:21656   */\n      add\n        /* \"#utility.yul\":21632:21679   */\n      mstore\n        /* \"#utility.yul\":21696:21827   */\n      tag_529\n        /* \"#utility.yul\":21822:21826   */\n      dup2\n        /* \"#utility.yul\":21696:21827   */\n      tag_346\n      jump\t// in\n    tag_529:\n        /* \"#utility.yul\":21688:21827   */\n      swap1\n      pop\n        /* \"#utility.yul\":21415:21834   */\n      swap2\n      swap1\n      pop\n      jump\t// out\n        /* \"#utility.yul\":21840:22021   */\n    tag_347:\n        /* \"#utility.yul\":21980:22013   */\n      0x45524332303a206d696e7420746f20746865207a65726f206164647265737300\n        /* \"#utility.yul\":21976:21977   */\n      0x00\n        /* \"#utility.yul\":21968:21974   */\n      dup3\n        /* \"#utility.yul\":21964:21978   */\n      add\n        /* \"#utility.yul\":21957:22014   */\n      mstore\n        /* \"#utility.yul\":21840:22021   */\n      pop\n      jump\t// out\n        /* \"#utility.yul\":22027:22393   */\n    tag_348:\n        /* \"#utility.yul\":22169:22172   */\n      0x00\n        /* \"#utility.yul\":22190:22257   */\n      tag_532\n        /* \"#utility.yul\":22254:22256   */\n      0x1f\n        /* \"#utility.yul\":22249:22252   */\n      dup4\n        /* \"#utility.yul\":22190:22257   */\n      tag_297\n      jump\t// in\n    tag_532:\n        /* \"#utility.yul\":22183:22257   */\n      swap2\n      pop\n        /* \"#utility.yul\":22266:22359   */\n      tag_533\n        /* \"#utility.yul\":22355:22358   */\n      dup3\n        /* \"#utility.yul\":22266:22359   */\n      tag_347\n      jump\t// in\n    tag_533:\n        /* \"#utility.yul\":22384:22386   */\n      0x20\n        /* \"#utility.yul\":22379:22382   */\n      dup3\n        /* \"#utility.yul\":22375:22387   */\n      add\n        /* \"#utility.yul\":22368:22387   */\n      swap1\n      pop\n        /* \"#utility.yul\":22027:22393   */\n      swap2\n      swap1\n      pop\n      jump\t// out\n        /* \"#utility.yul\":22399:22818   */\n    tag_272:\n        /* \"#utility.yul\":22565:22569   */\n      0x00\n        /* \"#utility.yul\":22603:22605   */\n      0x20\n        /* \"#utility.yul\":22592:22601   */\n      dup3\n        /* \"#utility.yul\":22588:22606   */\n      add\n        /* \"#utility.yul\":22580:22606   */\n      swap1\n      pop\n        /* \"#utility.yul\":22652:22661   */\n      dup2\n        /* \"#utility.yul\":22646:22650   */\n      dup2\n        /* \"#utility.yul\":22642:22662   */\n      sub\n        /* \"#utility.yul\":22638:22639   */\n      0x00\n        /* \"#utility.yul\":22627:22636   */\n      dup4\n        /* \"#utility.yul\":22623:22640   */\n      add\n        /* \"#utility.yul\":22616:22663   */\n      mstore\n        /* \"#utility.yul\":22680:22811   */\n      tag_535\n        /* \"#utility.yul\":22806:22810   */\n      dup2\n        /* \"#utility.yul\":22680:22811   */\n      tag_348\n      jump\t// in\n    tag_535:\n        /* \"#utility.yul\":22672:22811   */\n      swap1\n      pop\n        /* \"#utility.yul\":22399:22818   */\n      swap2\n      swap1\n      pop\n      jump\t// out\n        /* \"#utility.yul\":22824:23044   */\n    tag_349:\n        /* \"#utility.yul\":22964:22998   */\n      0x45524332303a206275726e2066726f6d20746865207a65726f20616464726573\n        /* \"#utility.yul\":22960:22961   */\n      0x00\n        /* \"#utility.yul\":22952:22958   */\n      dup3\n        /* \"#utility.yul\":22948:22962   */\n      add\n        /* \"#utility.yul\":22941:22999   */\n      mstore\n        /* \"#utility.yul\":23033:23036   */\n      0x7300000000000000000000000000000000000000000000000000000000000000\n        /* \"#utility.yul\":23028:23030   */\n      0x20\n        /* \"#utility.yul\":23020:23026   */\n      dup3\n        /* \"#utility.yul\":23016:23031   */\n      add\n        /* \"#utility.yul\":23009:23037   */\n      mstore\n        /* \"#utility.yul\":22824:23044   */\n      pop\n      jump\t// out\n        /* \"#utility.yul\":23050:23416   */\n    tag_350:\n        /* \"#utility.yul\":23192:23195   */\n      0x00\n        /* \"#utility.yul\":23213:23280   */\n      tag_538\n        /* \"#utility.yul\":23277:23279   */\n      0x21\n        /* \"#utility.yul\":23272:23275   */\n      dup4\n        /* \"#utility.yul\":23213:23280   */\n      tag_297\n      jump\t// in\n    tag_538:\n        /* \"#utility.yul\":23206:23280   */\n      swap2\n      pop\n        /* \"#utility.yul\":23289:23382   */\n      tag_539\n        /* \"#utility.yul\":23378:23381   */\n      dup3\n        /* \"#utility.yul\":23289:23382   */\n      tag_349\n      jump\t// in\n    tag_539:\n        /* \"#utility.yul\":23407:23409   */\n      0x40\n        /* \"#utility.yul\":23402:23405   */\n      dup3\n        /* \"#utility.yul\":23398:23410   */\n      add\n        /* \"#utility.yul\":23391:23410   */\n      swap1\n      pop\n        /* \"#utility.yul\":23050:23416   */\n      swap2\n      swap1\n      pop\n      jump\t// out\n        /* \"#utility.yul\":23422:23841   */\n    tag_280:\n        /* \"#utility.yul\":23588:23592   */\n      0x00\n        /* \"#utility.yul\":23626:23628   */\n      0x20\n        /* \"#utility.yul\":23615:23624   */\n      dup3\n        /* \"#utility.yul\":23611:23629   */\n      add\n        /* \"#utility.yul\":23603:23629   */\n      swap1\n      pop\n        /* \"#utility.yul\":23675:23684   */\n      dup2\n        /* \"#utility.yul\":23669:23673   */\n      dup2\n        /* \"#utility.yul\":23665:23685   */\n      sub\n        /* \"#utility.yul\":23661:23662   */\n      0x00\n        /* \"#utility.yul\":23650:23659   */\n      dup4\n        /* \"#utility.yul\":23646:23663   */\n      add\n        /* \"#utility.yul\":23639:23686   */\n      mstore\n        /* \"#utility.yul\":23703:23834   */\n      tag_541\n        /* \"#utility.yul\":23829:23833   */\n      dup2\n        /* \"#utility.yul\":23703:23834   */\n      tag_350\n      jump\t// in\n    tag_541:\n        /* \"#utility.yul\":23695:23834   */\n      swap1\n      pop\n        /* \"#utility.yul\":23422:23841   */\n      swap2\n      swap1\n      pop\n      jump\t// out\n        /* \"#utility.yul\":23847:24068   */\n    tag_351:\n        /* \"#utility.yul\":23987:24021   */\n      0x45524332303a206275726e20616d6f756e7420657863656564732062616c616e\n        /* \"#utility.yul\":23983:23984   */\n      0x00\n        /* \"#utility.yul\":23975:23981   */\n      dup3\n        /* \"#utility.yul\":23971:23985   */\n      add\n        /* \"#utility.yul\":23964:24022   */\n      mstore\n        /* \"#utility.yul\":24056:24060   */\n      0x6365000000000000000000000000000000000000000000000000000000000000\n        /* \"#utility.yul\":24051:24053   */\n      0x20\n        /* \"#utility.yul\":24043:24049   */\n      dup3\n        /* \"#utility.yul\":24039:24054   */\n      add\n        /* \"#utility.yul\":24032:24061   */\n      mstore\n        /* \"#utility.yul\":23847:24068   */\n      pop\n      jump\t// out\n        /* \"#utility.yul\":24074:24440   */\n    tag_352:\n        /* \"#utility.yul\":24216:24219   */\n      0x00\n        /* \"#utility.yul\":24237:24304   */\n      tag_544\n        /* \"#utility.yul\":24301:24303   */\n      0x22\n        /* \"#utility.yul\":24296:24299   */\n      dup4\n        /* \"#utility.yul\":24237:24304   */\n      tag_297\n      jump\t// in\n    tag_544:\n        /* \"#utility.yul\":24230:24304   */\n      swap2\n      pop\n        /* \"#utility.yul\":24313:24406   */\n      tag_545\n        /* \"#utility.yul\":24402:24405   */\n      dup3\n        /* \"#utility.yul\":24313:24406   */\n      tag_351\n      jump\t// in\n    tag_545:\n        /* \"#utility.yul\":24431:24433   */\n      0x40\n        /* \"#utility.yul\":24426:24429   */\n      dup3\n        /* \"#utility.yul\":24422:24434   */\n      add\n        /* \"#utility.yul\":24415:24434   */\n      swap1\n      pop\n        /* \"#utility.yul\":24074:24440   */\n      swap2\n      swap1\n      pop\n      jump\t// out\n        /* \"#utility.yul\":24446:24865   */\n    tag_284:\n        /* \"#utility.yul\":24612:24616   */\n      0x00\n        /* \"#utility.yul\":24650:24652   */\n      0x20\n        /* \"#utility.yul\":24639:24648   */\n      dup3\n        /* \"#utility.yul\":24635:24653   */\n      add\n        /* \"#utility.yul\":24627:24653   */\n      swap1\n      pop\n        /* \"#utility.yul\":24699:24708   */\n      dup2\n        /* \"#utility.yul\":24693:24697   */\n      dup2\n        /* \"#utility.yul\":24689:24709   */\n      sub\n        /* \"#utility.yul\":24685:24686   */\n      0x00\n        /* \"#utility.yul\":24674:24683   */\n      dup4\n        /* \"#utility.yul\":24670:24687   */\n      add\n        /* \"#utility.yul\":24663:24710   */\n      mstore\n        /* \"#utility.yul\":24727:24858   */\n      tag_547\n        /* \"#utility.yul\":24853:24857   */\n      dup2\n        /* \"#utility.yul\":24727:24858   */\n      tag_352\n      jump\t// in\n    tag_547:\n        /* \"#utility.yul\":24719:24858   */\n      swap1\n      pop\n        /* \"#utility.yul\":24446:24865   */\n      swap2\n      swap1\n      pop\n      jump\t// out\n        /* \"#utility.yul\":24871:25053   */\n    tag_353:\n        /* \"#utility.yul\":25011:25045   */\n      0x4f776e61626c653a2063616c6c6572206973206e6f7420746865206f776e6572\n        /* \"#utility.yul\":25007:25008   */\n      0x00\n        /* \"#utility.yul\":24999:25005   */\n      dup3\n        /* \"#utility.yul\":24995:25009   */\n      add\n        /* \"#utility.yul\":24988:25046   */\n      mstore\n        /* \"#utility.yul\":24871:25053   */\n      pop\n      jump\t// out\n        /* \"#utility.yul\":25059:25425   */\n    tag_354:\n        /* \"#utility.yul\":25201:25204   */\n      0x00\n        /* \"#utility.yul\":25222:25289   */\n      tag_550\n        /* \"#utility.yul\":25286:25288   */\n      0x20\n        /* \"#utility.yul\":25281:25284   */\n      dup4\n        /* \"#utility.yul\":25222:25289   */\n      tag_297\n      jump\t// in\n    tag_550:\n        /* \"#utility.yul\":25215:25289   */\n      swap2\n      pop\n        /* \"#utility.yul\":25298:25391   */\n      tag_551\n        /* \"#utility.yul\":25387:25390   */\n      dup3\n        /* \"#utility.yul\":25298:25391   */\n      tag_353\n      jump\t// in\n    tag_551:\n        /* \"#utility.yul\":25416:25418   */\n      0x20\n        /* \"#utility.yul\":25411:25414   */\n      dup3\n        /* \"#utility.yul\":25407:25419   */\n      add\n        /* \"#utility.yul\":25400:25419   */\n      swap1\n      pop\n        /* \"#utility.yul\":25059:25425   */\n      swap2\n      swap1\n      pop\n      jump\t// out\n        /* \"#utility.yul\":25431:25850   */\n    tag_292:\n        /* \"#utility.yul\":25597:25601   */\n      0x00\n        /* \"#utility.yul\":25635:25637   */\n      0x20\n        /* \"#utility.yul\":25624:25633   */\n      dup3\n        /* \"#utility.yul\":25620:25638   */\n      add\n        /* \"#utility.yul\":25612:25638   */\n      swap1\n      pop\n        /* \"#utility.yul\":25684:25693   */\n      dup2\n        /* \"#utility.yul\":25678:25682   */\n      dup2\n        /* \"#utility.yul\":25674:25694   */\n      sub\n        /* \"#utility.yul\":25670:25671   */\n      0x00\n        /* \"#utility.yul\":25659:25668   */\n      dup4\n        /* \"#utility.yul\":25655:25672   */\n      add\n        /* \"#utility.yul\":25648:25695   */\n      mstore\n        /* \"#utility.yul\":25712:25843   */\n      tag_553\n        /* \"#utility.yul\":25838:25842   */\n      dup2\n        /* \"#utility.yul\":25712:25843   */\n      tag_354\n      jump\t// in\n    tag_553:\n        /* \"#utility.yul\":25704:25843   */\n      swap1\n      pop\n        /* \"#utility.yul\":25431:25850   */\n      swap2\n      swap1\n      pop\n      jump\t// out\n\n    auxdata: 0xa2646970667358221220c9b50d836e773abfa6dd0f0338de543940ef1760439b04f05b6f0950ed7021cd64736f6c63430008120033\n}\n",
				"bytecode": {
					"linkReferences": {},
					"object": "60806040523480156200001157600080fd5b506040518060400160405280600781526020017f4d79546f6b656e000000000000000000000000000000000000000000000000008152506040518060400160405280600381526020017f4d544b000000000000000000000000000000000000000000000000000000000081525081600390816200008f919062000421565b508060049081620000a1919062000421565b505050620000c4620000b8620000d960201b60201c565b620000e160201b60201c565b67016345785d8a000060068190555062000508565b600033905090565b6000600560009054906101000a900473ffffffffffffffffffffffffffffffffffffffff16905081600560006101000a81548173ffffffffffffffffffffffffffffffffffffffff021916908373ffffffffffffffffffffffffffffffffffffffff1602179055508173ffffffffffffffffffffffffffffffffffffffff168173ffffffffffffffffffffffffffffffffffffffff167f8be0079c531659141344cd1fd0a4f28419497f9722a3daafe3b4186f6b6457e060405160405180910390a35050565b600081519050919050565b7f4e487b7100000000000000000000000000000000000000000000000000000000600052604160045260246000fd5b7f4e487b7100000000000000000000000000000000000000000000000000000000600052602260045260246000fd5b600060028204905060018216806200022957607f821691505b6020821081036200023f576200023e620001e1565b5b50919050565b60008190508160005260206000209050919050565b60006020601f8301049050919050565b600082821b905092915050565b600060088302620002a97fffffffffffffffffffffffffffffffffffffffffffffffffffffffffffffffff826200026a565b620002b586836200026a565b95508019841693508086168417925050509392505050565b6000819050919050565b6000819050919050565b600062000302620002fc620002f684620002cd565b620002d7565b620002cd565b9050919050565b6000819050919050565b6200031e83620002e1565b620003366200032d8262000309565b84845462000277565b825550505050565b600090565b6200034d6200033e565b6200035a81848462000313565b505050565b5b8181101562000382576200037660008262000343565b60018101905062000360565b5050565b601f821115620003d1576200039b8162000245565b620003a6846200025a565b81016020851015620003b6578190505b620003ce620003c5856200025a565b8301826200035f565b50505b505050565b600082821c905092915050565b6000620003f660001984600802620003d6565b1980831691505092915050565b6000620004118383620003e3565b9150826002028217905092915050565b6200042c82620001a7565b67ffffffffffffffff811115620004485762000447620001b2565b5b62000454825462000210565b6200046182828562000386565b600060209050601f83116001811462000499576000841562000484578287015190505b62000490858262000403565b86555062000500565b601f198416620004a98662000245565b60005b82811015620004d357848901518255600182019150602085019450602081019050620004ac565b86831015620004f35784890151620004ef601f891682620003e3565b8355505b6001600288020188555050505b505050505050565b61233780620005186000396000f3fe6080604052600436106101355760003560e01c806370a08231116100ab578063940bb3441161006f578063940bb344146103f357806395d89b411461040a578063a457c2d714610435578063a9059cbb14610472578063dd62ed3e146104af578063f2fde38b146104ec57610135565b806370a0823114610320578063715018a61461035d57806379cc6790146103745780637ff9b5961461039d5780638da5cb5b146103c857610135565b80633610724e116100fd5780633610724e14610235578063395093511461025157806342966c681461028e57806347f07a8e146102b75780636a61e5fc146102ce5780636c11bcd3146102f757610135565b806306fdde031461013a578063095ea7b31461016557806318160ddd146101a257806323b872dd146101cd578063313ce5671461020a575b600080fd5b34801561014657600080fd5b5061014f610515565b60405161015c91906115f3565b60405180910390f35b34801561017157600080fd5b5061018c600480360381019061018791906116ae565b6105a7565b6040516101999190611709565b60405180910390f35b3480156101ae57600080fd5b506101b76105ca565b6040516101c49190611733565b60405180910390f35b3480156101d957600080fd5b506101f460048036038101906101ef919061174e565b6105d4565b6040516102019190611709565b60405180910390f35b34801561021657600080fd5b5061021f610603565b60405161022c91906117bd565b60405180910390f35b61024f600480360381019061024a91906117d8565b61060c565b005b34801561025d57600080fd5b50610278600480360381019061027391906116ae565b61066f565b6040516102859190611709565b60405180910390f35b34801561029a57600080fd5b506102b560048036038101906102b091906117d8565b6106a6565b005b3480156102c357600080fd5b506102cc6106ba565b005b3480156102da57600080fd5b506102f560048036038101906102f091906117d8565b61077f565b005b34801561030357600080fd5b5061031e600480360381019061031991906117d8565b610791565b005b34801561032c57600080fd5b5061034760048036038101906103429190611805565b6108d8565b6040516103549190611733565b60405180910390f35b34801561036957600080fd5b50610372610920565b005b34801561038057600080fd5b5061039b600480360381019061039691906116ae565b610934565b005b3480156103a957600080fd5b506103b2610954565b6040516103bf9190611733565b60405180910390f35b3480156103d457600080fd5b506103dd61095a565b6040516103ea9190611841565b60405180910390f35b3480156103ff57600080fd5b50610408610984565b005b34801561041657600080fd5b5061041f6109e9565b60405161042c91906115f3565b60405180910390f35b34801561044157600080fd5b5061045c600480360381019061045791906116ae565b610a7b565b6040516104699190611709565b60405180910390f35b34801561047e57600080fd5b50610499600480360381019061049491906116ae565b610af2565b6040516104a69190611709565b60405180910390f35b3480156104bb57600080fd5b506104d660048036038101906104d1919061185c565b610b15565b6040516104e39190611733565b60405180910390f35b3480156104f857600080fd5b50610513600480360381019061050e9190611805565b610b9c565b005b606060038054610524906118cb565b80601f0160208091040260200160405190810160405280929190818152602001828054610550906118cb565b801561059d5780601f106105725761010080835404028352916020019161059d565b820191906000526020600020905b81548152906001019060200180831161058057829003601f168201915b5050505050905090565b6000806105b2610c1f565b90506105bf818585610c27565b600191505092915050565b6000600254905090565b6000806105df610c1f565b90506105ec858285610df0565b6105f7858585610e7c565b60019150509392505050565b60006012905090565b60006006548261061c919061192b565b905080341015610661576040517f08c379a0000000000000000000000000000000000000000000000000000000008152600401610658906119b9565b60405180910390fd5b61066b33836110f2565b5050565b60008061067a610c1f565b905061069b81858561068c8589610b15565b61069691906119d9565b610c27565b600191505092915050565b6106b76106b1610c1f565b82611248565b50565b6106c261095a565b73ffffffffffffffffffffffffffffffffffffffff163373ffffffffffffffffffffffffffffffffffffffff161461072f576040517f08c379a000000000000000000000000000000000000000000000000000000000815260040161072690611a7f565b60405180910390fd5b61073761095a565b73ffffffffffffffffffffffffffffffffffffffff166108fc479081150290604051600060405180830381858888f1935050505015801561077c573d6000803e3d6000fd5b50565b610787611415565b8060068190555050565b8061079b336108d8565b10156107dc576040517f08c379a00000000000000000000000000000000000000000000000000000000081526004016107d390611aeb565b60405180910390fd5b806107ed6107e861095a565b6108d8565b101561082e576040517f08c379a000000000000000000000000000000000000000000000000000000000815260040161082590611b7d565b60405180910390fd5b60006006548261083e919061192b565b905080471015610883576040517f08c379a000000000000000000000000000000000000000000000000000000000815260040161087a90611c0f565b60405180910390fd5b61088d3383611248565b3373ffffffffffffffffffffffffffffffffffffffff166108fc829081150290604051600060405180830381858888f193505050501580156108d3573d6000803e3d6000fd5b505050565b60008060008373ffffffffffffffffffffffffffffffffffffffff1673ffffffffffffffffffffffffffffffffffffffff168152602001908152602001600020549050919050565b610928611415565b6109326000611493565b565b61094682610940610c1f565b83610df0565b6109508282611248565b5050565b60065481565b6000600560009054906101000a900473ffffffffffffffffffffffffffffffffffffffff16905090565b61098c611415565b6000610997306108d8565b9050600081116109dc576040517f08c379a00000000000000000000000000000000000000000000000000000000081526004016109d390611c7b565b60405180910390fd5b6109e63082611248565b50565b6060600480546109f8906118cb565b80601f0160208091040260200160405190810160405280929190818152602001828054610a24906118cb565b8015610a715780601f10610a4657610100808354040283529160200191610a71565b820191906000526020600020905b815481529060010190602001808311610a5457829003601f168201915b5050505050905090565b600080610a86610c1f565b90506000610a948286610b15565b905083811015610ad9576040517f08c379a0000000000000000000000000000000000000000000000000000000008152600401610ad090611d0d565b60405180910390fd5b610ae68286868403610c27565b60019250505092915050565b600080610afd610c1f565b9050610b0a818585610e7c565b600191505092915050565b6000600160008473ffffffffffffffffffffffffffffffffffffffff1673ffffffffffffffffffffffffffffffffffffffff16815260200190815260200160002060008373ffffffffffffffffffffffffffffffffffffffff1673ffffffffffffffffffffffffffffffffffffffff16815260200190815260200160002054905092915050565b610ba4611415565b600073ffffffffffffffffffffffffffffffffffffffff168173ffffffffffffffffffffffffffffffffffffffff1603610c13576040517f08c379a0000000000000000000000000000000000000000000000000000000008152600401610c0a90611d9f565b60405180910390fd5b610c1c81611493565b50565b600033905090565b600073ffffffffffffffffffffffffffffffffffffffff168373ffffffffffffffffffffffffffffffffffffffff1603610c96576040517f08c379a0000000000000000000000000000000000000000000000000000000008152600401610c8d90611e31565b60405180910390fd5b600073ffffffffffffffffffffffffffffffffffffffff168273ffffffffffffffffffffffffffffffffffffffff1603610d05576040517f08c379a0000000000000000000000000000000000000000000000000000000008152600401610cfc90611ec3565b60405180910390fd5b80600160008573ffffffffffffffffffffffffffffffffffffffff1673ffffffffffffffffffffffffffffffffffffffff16815260200190815260200160002060008473ffffffffffffffffffffffffffffffffffffffff1673ffffffffffffffffffffffffffffffffffffffff168152602001908152602001600020819055508173ffffffffffffffffffffffffffffffffffffffff168373ffffffffffffffffffffffffffffffffffffffff167f8c5be1e5ebec7d5bd14f71427d1e84f3dd0314c0f7b2291e5b200ac8c7c3b92583604051610de39190611733565b60405180910390a3505050565b6000610dfc8484610b15565b90507fffffffffffffffffffffffffffffffffffffffffffffffffffffffffffffffff8114610e765781811015610e68576040517f08c379a0000000000000000000000000000000000000000000000000000000008152600401610e5f90611f2f565b60405180910390fd5b610e758484848403610c27565b5b50505050565b600073ffffffffffffffffffffffffffffffffffffffff168373ffffffffffffffffffffffffffffffffffffffff1603610eeb576040517f08c379a0000000000000000000000000000000000000000000000000000000008152600401610ee290611fc1565b60405180910390fd5b600073ffffffffffffffffffffffffffffffffffffffff168273ffffffffffffffffffffffffffffffffffffffff1603610f5a576040517f08c379a0000000000000000000000000000000000000000000000000000000008152600401610f5190612053565b60405180910390fd5b610f65838383611559565b60008060008573ffffffffffffffffffffffffffffffffffffffff1673ffffffffffffffffffffffffffffffffffffffff16815260200190815260200160002054905081811015610feb576040517f08c379a0000000000000000000000000000000000000000000000000000000008152600401610fe2906120e5565b60405180910390fd5b8181036000808673ffffffffffffffffffffffffffffffffffffffff1673ffffffffffffffffffffffffffffffffffffffff16815260200190815260200160002081905550816000808573ffffffffffffffffffffffffffffffffffffffff1673ffffffffffffffffffffffffffffffffffffffff168152602001908152602001600020600082825401925050819055508273ffffffffffffffffffffffffffffffffffffffff168473ffffffffffffffffffffffffffffffffffffffff167fddf252ad1be2c89b69c2b068fc378daa952ba7f163c4a11628f55a4df523b3ef846040516110d99190611733565b60405180910390a36110ec84848461155e565b50505050565b600073ffffffffffffffffffffffffffffffffffffffff168273ffffffffffffffffffffffffffffffffffffffff1603611161576040517f08c379a000000000000000000000000000000000000000000000000000000000815260040161115890612151565b60405180910390fd5b61116d60008383611559565b806002600082825461117f91906119d9565b92505081905550806000808473ffffffffffffffffffffffffffffffffffffffff1673ffffffffffffffffffffffffffffffffffffffff168152602001908152602001600020600082825401925050819055508173ffffffffffffffffffffffffffffffffffffffff16600073ffffffffffffffffffffffffffffffffffffffff167fddf252ad1be2c89b69c2b068fc378daa952ba7f163c4a11628f55a4df523b3ef836040516112309190611733565b60405180910390a36112446000838361155e565b5050565b600073ffffffffffffffffffffffffffffffffffffffff168273ffffffffffffffffffffffffffffffffffffffff16036112b7576040517f08c379a00000000000000000000000000000000000000000000000000000000081526004016112ae906121e3565b60405180910390fd5b6112c382600083611559565b60008060008473ffffffffffffffffffffffffffffffffffffffff1673ffffffffffffffffffffffffffffffffffffffff16815260200190815260200160002054905081811015611349576040517f08c379a000000000000000000000000000000000000000000000000000000000815260040161134090612275565b60405180910390fd5b8181036000808573ffffffffffffffffffffffffffffffffffffffff1673ffffffffffffffffffffffffffffffffffffffff1681526020019081526020016000208190555081600260008282540392505081905550600073ffffffffffffffffffffffffffffffffffffffff168373ffffffffffffffffffffffffffffffffffffffff167fddf252ad1be2c89b69c2b068fc378daa952ba7f163c4a11628f55a4df523b3ef846040516113fc9190611733565b60405180910390a36114108360008461155e565b505050565b61141d610c1f565b73ffffffffffffffffffffffffffffffffffffffff1661143b61095a565b73ffffffffffffffffffffffffffffffffffffffff1614611491576040517f08c379a0000000000000000000000000000000000000000000000000000000008152600401611488906122e1565b60405180910390fd5b565b6000600560009054906101000a900473ffffffffffffffffffffffffffffffffffffffff16905081600560006101000a81548173ffffffffffffffffffffffffffffffffffffffff021916908373ffffffffffffffffffffffffffffffffffffffff1602179055508173ffffffffffffffffffffffffffffffffffffffff168173ffffffffffffffffffffffffffffffffffffffff167f8be0079c531659141344cd1fd0a4f28419497f9722a3daafe3b4186f6b6457e060405160405180910390a35050565b505050565b505050565b600081519050919050565b600082825260208201905092915050565b60005b8381101561159d578082015181840152602081019050611582565b60008484015250505050565b6000601f19601f8301169050919050565b60006115c582611563565b6115cf818561156e565b93506115df81856020860161157f565b6115e8816115a9565b840191505092915050565b6000602082019050818103600083015261160d81846115ba565b905092915050565b600080fd5b600073ffffffffffffffffffffffffffffffffffffffff82169050919050565b60006116458261161a565b9050919050565b6116558161163a565b811461166057600080fd5b50565b6000813590506116728161164c565b92915050565b6000819050919050565b61168b81611678565b811461169657600080fd5b50565b6000813590506116a881611682565b92915050565b600080604083850312156116c5576116c4611615565b5b60006116d385828601611663565b92505060206116e485828601611699565b9150509250929050565b60008115159050919050565b611703816116ee565b82525050565b600060208201905061171e60008301846116fa565b92915050565b61172d81611678565b82525050565b60006020820190506117486000830184611724565b92915050565b60008060006060848603121561176757611766611615565b5b600061177586828701611663565b935050602061178686828701611663565b925050604061179786828701611699565b9150509250925092565b600060ff82169050919050565b6117b7816117a1565b82525050565b60006020820190506117d260008301846117ae565b92915050565b6000602082840312156117ee576117ed611615565b5b60006117fc84828501611699565b91505092915050565b60006020828403121561181b5761181a611615565b5b600061182984828501611663565b91505092915050565b61183b8161163a565b82525050565b60006020820190506118566000830184611832565b92915050565b6000806040838503121561187357611872611615565b5b600061188185828601611663565b925050602061189285828601611663565b9150509250929050565b7f4e487b7100000000000000000000000000000000000000000000000000000000600052602260045260246000fd5b600060028204905060018216806118e357607f821691505b6020821081036118f6576118f561189c565b5b50919050565b7f4e487b7100000000000000000000000000000000000000000000000000000000600052601160045260246000fd5b600061193682611678565b915061194183611678565b925082820261194f81611678565b91508282048414831517611966576119656118fc565b5b5092915050565b7f496e73756666696369656e74206574686572732073656e740000000000000000600082015250565b60006119a360188361156e565b91506119ae8261196d565b602082019050919050565b600060208201905081810360008301526119d281611996565b9050919050565b60006119e482611678565b91506119ef83611678565b9250828201905080821115611a0757611a066118fc565b5b92915050565b7f4f6e6c7920746865206f776e65722063616e2063616c6c20746869732066756e60008201527f6374696f6e000000000000000000000000000000000000000000000000000000602082015250565b6000611a6960258361156e565b9150611a7482611a0d565b604082019050919050565b60006020820190508181036000830152611a9881611a5c565b9050919050565b7f496e73756666696369656e7420746f6b656e7300000000000000000000000000600082015250565b6000611ad560138361156e565b9150611ae082611a9f565b602082019050919050565b60006020820190508181036000830152611b0481611ac8565b9050919050565b7f4e6f7420656e6f75676820746f6b656e7320696e206f776e657227732062616c60008201527f616e636500000000000000000000000000000000000000000000000000000000602082015250565b6000611b6760248361156e565b9150611b7282611b0b565b604082019050919050565b60006020820190508181036000830152611b9681611b5a565b9050919050565b7f436f6e747261637420646f6573206e6f74206861766520656e6f75676820657460008201527f6865727320746f20726566756e64000000000000000000000000000000000000602082015250565b6000611bf9602e8361156e565b9150611c0482611b9d565b604082019050919050565b60006020820190508181036000830152611c2881611bec565b9050919050565b7f4e6f20756e736f6c6420746f6b656e7300000000000000000000000000000000600082015250565b6000611c6560108361156e565b9150611c7082611c2f565b602082019050919050565b60006020820190508181036000830152611c9481611c58565b9050919050565b7f45524332303a2064656372656173656420616c6c6f77616e63652062656c6f7760008201527f207a65726f000000000000000000000000000000000000000000000000000000602082015250565b6000611cf760258361156e565b9150611d0282611c9b565b604082019050919050565b60006020820190508181036000830152611d2681611cea565b9050919050565b7f4f776e61626c653a206e6577206f776e657220697320746865207a65726f206160008201527f6464726573730000000000000000000000000000000000000000000000000000602082015250565b6000611d8960268361156e565b9150611d9482611d2d565b604082019050919050565b60006020820190508181036000830152611db881611d7c565b9050919050565b7f45524332303a20617070726f76652066726f6d20746865207a65726f2061646460008201527f7265737300000000000000000000000000000000000000000000000000000000602082015250565b6000611e1b60248361156e565b9150611e2682611dbf565b604082019050919050565b60006020820190508181036000830152611e4a81611e0e565b9050919050565b7f45524332303a20617070726f766520746f20746865207a65726f20616464726560008201527f7373000000000000000000000000000000000000000000000000000000000000602082015250565b6000611ead60228361156e565b9150611eb882611e51565b604082019050919050565b60006020820190508181036000830152611edc81611ea0565b9050919050565b7f45524332303a20696e73756666696369656e7420616c6c6f77616e6365000000600082015250565b6000611f19601d8361156e565b9150611f2482611ee3565b602082019050919050565b60006020820190508181036000830152611f4881611f0c565b9050919050565b7f45524332303a207472616e736665722066726f6d20746865207a65726f20616460008201527f6472657373000000000000000000000000000000000000000000000000000000602082015250565b6000611fab60258361156e565b9150611fb682611f4f565b604082019050919050565b60006020820190508181036000830152611fda81611f9e565b9050919050565b7f45524332303a207472616e7366657220746f20746865207a65726f206164647260008201527f6573730000000000000000000000000000000000000000000000000000000000602082015250565b600061203d60238361156e565b915061204882611fe1565b604082019050919050565b6000602082019050818103600083015261206c81612030565b9050919050565b7f45524332303a207472616e7366657220616d6f756e742065786365656473206260008201527f616c616e63650000000000000000000000000000000000000000000000000000602082015250565b60006120cf60268361156e565b91506120da82612073565b604082019050919050565b600060208201905081810360008301526120fe816120c2565b9050919050565b7f45524332303a206d696e7420746f20746865207a65726f206164647265737300600082015250565b600061213b601f8361156e565b915061214682612105565b602082019050919050565b6000602082019050818103600083015261216a8161212e565b9050919050565b7f45524332303a206275726e2066726f6d20746865207a65726f2061646472657360008201527f7300000000000000000000000000000000000000000000000000000000000000602082015250565b60006121cd60218361156e565b91506121d882612171565b604082019050919050565b600060208201905081810360008301526121fc816121c0565b9050919050565b7f45524332303a206275726e20616d6f756e7420657863656564732062616c616e60008201527f6365000000000000000000000000000000000000000000000000000000000000602082015250565b600061225f60228361156e565b915061226a82612203565b604082019050919050565b6000602082019050818103600083015261228e81612252565b9050919050565b7f4f776e61626c653a2063616c6c6572206973206e6f7420746865206f776e6572600082015250565b60006122cb60208361156e565b91506122d682612295565b602082019050919050565b600060208201905081810360008301526122fa816122be565b905091905056fea2646970667358221220c9b50d836e773abfa6dd0f0338de543940ef1760439b04f05b6f0950ed7021cd64736f6c63430008120033",
					"opcodes": "PUSH1 0x80 PUSH1 0x40 MSTORE CALLVALUE DUP1 ISZERO PUSH3 0x11 JUMPI PUSH1 0x0 DUP1 REVERT JUMPDEST POP PUSH1 0x40 MLOAD DUP1 PUSH1 0x40 ADD PUSH1 0x40 MSTORE DUP1 PUSH1 0x7 DUP2 MSTORE PUSH1 0x20 ADD PUSH32 0x4D79546F6B656E00000000000000000000000000000000000000000000000000 DUP2 MSTORE POP PUSH1 0x40 MLOAD DUP1 PUSH1 0x40 ADD PUSH1 0x40 MSTORE DUP1 PUSH1 0x3 DUP2 MSTORE PUSH1 0x20 ADD PUSH32 0x4D544B0000000000000000000000000000000000000000000000000000000000 DUP2 MSTORE POP DUP2 PUSH1 0x3 SWAP1 DUP2 PUSH3 0x8F SWAP2 SWAP1 PUSH3 0x421 JUMP JUMPDEST POP DUP1 PUSH1 0x4 SWAP1 DUP2 PUSH3 0xA1 SWAP2 SWAP1 PUSH3 0x421 JUMP JUMPDEST POP POP POP PUSH3 0xC4 PUSH3 0xB8 PUSH3 0xD9 PUSH1 0x20 SHL PUSH1 0x20 SHR JUMP JUMPDEST PUSH3 0xE1 PUSH1 0x20 SHL PUSH1 0x20 SHR JUMP JUMPDEST PUSH8 0x16345785D8A0000 PUSH1 0x6 DUP2 SWAP1 SSTORE POP PUSH3 0x508 JUMP JUMPDEST PUSH1 0x0 CALLER SWAP1 POP SWAP1 JUMP JUMPDEST PUSH1 0x0 PUSH1 0x5 PUSH1 0x0 SWAP1 SLOAD SWAP1 PUSH2 0x100 EXP SWAP1 DIV PUSH20 0xFFFFFFFFFFFFFFFFFFFFFFFFFFFFFFFFFFFFFFFF AND SWAP1 POP DUP2 PUSH1 0x5 PUSH1 0x0 PUSH2 0x100 EXP DUP2 SLOAD DUP2 PUSH20 0xFFFFFFFFFFFFFFFFFFFFFFFFFFFFFFFFFFFFFFFF MUL NOT AND SWAP1 DUP4 PUSH20 0xFFFFFFFFFFFFFFFFFFFFFFFFFFFFFFFFFFFFFFFF AND MUL OR SWAP1 SSTORE POP DUP2 PUSH20 0xFFFFFFFFFFFFFFFFFFFFFFFFFFFFFFFFFFFFFFFF AND DUP2 PUSH20 0xFFFFFFFFFFFFFFFFFFFFFFFFFFFFFFFFFFFFFFFF AND PUSH32 0x8BE0079C531659141344CD1FD0A4F28419497F9722A3DAAFE3B4186F6B6457E0 PUSH1 0x40 MLOAD PUSH1 0x40 MLOAD DUP1 SWAP2 SUB SWAP1 LOG3 POP POP JUMP JUMPDEST PUSH1 0x0 DUP2 MLOAD SWAP1 POP SWAP2 SWAP1 POP JUMP JUMPDEST PUSH32 0x4E487B7100000000000000000000000000000000000000000000000000000000 PUSH1 0x0 MSTORE PUSH1 0x41 PUSH1 0x4 MSTORE PUSH1 0x24 PUSH1 0x0 REVERT JUMPDEST PUSH32 0x4E487B7100000000000000000000000000000000000000000000000000000000 PUSH1 0x0 MSTORE PUSH1 0x22 PUSH1 0x4 MSTORE PUSH1 0x24 PUSH1 0x0 REVERT JUMPDEST PUSH1 0x0 PUSH1 0x2 DUP3 DIV SWAP1 POP PUSH1 0x1 DUP3 AND DUP1 PUSH3 0x229 JUMPI PUSH1 0x7F DUP3 AND SWAP2 POP JUMPDEST PUSH1 0x20 DUP3 LT DUP2 SUB PUSH3 0x23F JUMPI PUSH3 0x23E PUSH3 0x1E1 JUMP JUMPDEST JUMPDEST POP SWAP2 SWAP1 POP JUMP JUMPDEST PUSH1 0x0 DUP2 SWAP1 POP DUP2 PUSH1 0x0 MSTORE PUSH1 0x20 PUSH1 0x0 KECCAK256 SWAP1 POP SWAP2 SWAP1 POP JUMP JUMPDEST PUSH1 0x0 PUSH1 0x20 PUSH1 0x1F DUP4 ADD DIV SWAP1 POP SWAP2 SWAP1 POP JUMP JUMPDEST PUSH1 0x0 DUP3 DUP3 SHL SWAP1 POP SWAP3 SWAP2 POP POP JUMP JUMPDEST PUSH1 0x0 PUSH1 0x8 DUP4 MUL PUSH3 0x2A9 PUSH32 0xFFFFFFFFFFFFFFFFFFFFFFFFFFFFFFFFFFFFFFFFFFFFFFFFFFFFFFFFFFFFFFFF DUP3 PUSH3 0x26A JUMP JUMPDEST PUSH3 0x2B5 DUP7 DUP4 PUSH3 0x26A JUMP JUMPDEST SWAP6 POP DUP1 NOT DUP5 AND SWAP4 POP DUP1 DUP7 AND DUP5 OR SWAP3 POP POP POP SWAP4 SWAP3 POP POP POP JUMP JUMPDEST PUSH1 0x0 DUP2 SWAP1 POP SWAP2 SWAP1 POP JUMP JUMPDEST PUSH1 0x0 DUP2 SWAP1 POP SWAP2 SWAP1 POP JUMP JUMPDEST PUSH1 0x0 PUSH3 0x302 PUSH3 0x2FC PUSH3 0x2F6 DUP5 PUSH3 0x2CD JUMP JUMPDEST PUSH3 0x2D7 JUMP JUMPDEST PUSH3 0x2CD JUMP JUMPDEST SWAP1 POP SWAP2 SWAP1 POP JUMP JUMPDEST PUSH1 0x0 DUP2 SWAP1 POP SWAP2 SWAP1 POP JUMP JUMPDEST PUSH3 0x31E DUP4 PUSH3 0x2E1 JUMP JUMPDEST PUSH3 0x336 PUSH3 0x32D DUP3 PUSH3 0x309 JUMP JUMPDEST DUP5 DUP5 SLOAD PUSH3 0x277 JUMP JUMPDEST DUP3 SSTORE POP POP POP POP JUMP JUMPDEST PUSH1 0x0 SWAP1 JUMP JUMPDEST PUSH3 0x34D PUSH3 0x33E JUMP JUMPDEST PUSH3 0x35A DUP2 DUP5 DUP5 PUSH3 0x313 JUMP JUMPDEST POP POP POP JUMP JUMPDEST JUMPDEST DUP2 DUP2 LT ISZERO PUSH3 0x382 JUMPI PUSH3 0x376 PUSH1 0x0 DUP3 PUSH3 0x343 JUMP JUMPDEST PUSH1 0x1 DUP2 ADD SWAP1 POP PUSH3 0x360 JUMP JUMPDEST POP POP JUMP JUMPDEST PUSH1 0x1F DUP3 GT ISZERO PUSH3 0x3D1 JUMPI PUSH3 0x39B DUP2 PUSH3 0x245 JUMP JUMPDEST PUSH3 0x3A6 DUP5 PUSH3 0x25A JUMP JUMPDEST DUP2 ADD PUSH1 0x20 DUP6 LT ISZERO PUSH3 0x3B6 JUMPI DUP2 SWAP1 POP JUMPDEST PUSH3 0x3CE PUSH3 0x3C5 DUP6 PUSH3 0x25A JUMP JUMPDEST DUP4 ADD DUP3 PUSH3 0x35F JUMP JUMPDEST POP POP JUMPDEST POP POP POP JUMP JUMPDEST PUSH1 0x0 DUP3 DUP3 SHR SWAP1 POP SWAP3 SWAP2 POP POP JUMP JUMPDEST PUSH1 0x0 PUSH3 0x3F6 PUSH1 0x0 NOT DUP5 PUSH1 0x8 MUL PUSH3 0x3D6 JUMP JUMPDEST NOT DUP1 DUP4 AND SWAP2 POP POP SWAP3 SWAP2 POP POP JUMP JUMPDEST PUSH1 0x0 PUSH3 0x411 DUP4 DUP4 PUSH3 0x3E3 JUMP JUMPDEST SWAP2 POP DUP3 PUSH1 0x2 MUL DUP3 OR SWAP1 POP SWAP3 SWAP2 POP POP JUMP JUMPDEST PUSH3 0x42C DUP3 PUSH3 0x1A7 JUMP JUMPDEST PUSH8 0xFFFFFFFFFFFFFFFF DUP2 GT ISZERO PUSH3 0x448 JUMPI PUSH3 0x447 PUSH3 0x1B2 JUMP JUMPDEST JUMPDEST PUSH3 0x454 DUP3 SLOAD PUSH3 0x210 JUMP JUMPDEST PUSH3 0x461 DUP3 DUP3 DUP6 PUSH3 0x386 JUMP JUMPDEST PUSH1 0x0 PUSH1 0x20 SWAP1 POP PUSH1 0x1F DUP4 GT PUSH1 0x1 DUP2 EQ PUSH3 0x499 JUMPI PUSH1 0x0 DUP5 ISZERO PUSH3 0x484 JUMPI DUP3 DUP8 ADD MLOAD SWAP1 POP JUMPDEST PUSH3 0x490 DUP6 DUP3 PUSH3 0x403 JUMP JUMPDEST DUP7 SSTORE POP PUSH3 0x500 JUMP JUMPDEST PUSH1 0x1F NOT DUP5 AND PUSH3 0x4A9 DUP7 PUSH3 0x245 JUMP JUMPDEST PUSH1 0x0 JUMPDEST DUP3 DUP2 LT ISZERO PUSH3 0x4D3 JUMPI DUP5 DUP10 ADD MLOAD DUP3 SSTORE PUSH1 0x1 DUP3 ADD SWAP2 POP PUSH1 0x20 DUP6 ADD SWAP5 POP PUSH1 0x20 DUP2 ADD SWAP1 POP PUSH3 0x4AC JUMP JUMPDEST DUP7 DUP4 LT ISZERO PUSH3 0x4F3 JUMPI DUP5 DUP10 ADD MLOAD PUSH3 0x4EF PUSH1 0x1F DUP10 AND DUP3 PUSH3 0x3E3 JUMP JUMPDEST DUP4 SSTORE POP JUMPDEST PUSH1 0x1 PUSH1 0x2 DUP9 MUL ADD DUP9 SSTORE POP POP POP JUMPDEST POP POP POP POP POP POP JUMP JUMPDEST PUSH2 0x2337 DUP1 PUSH3 0x518 PUSH1 0x0 CODECOPY PUSH1 0x0 RETURN INVALID PUSH1 0x80 PUSH1 0x40 MSTORE PUSH1 0x4 CALLDATASIZE LT PUSH2 0x135 JUMPI PUSH1 0x0 CALLDATALOAD PUSH1 0xE0 SHR DUP1 PUSH4 0x70A08231 GT PUSH2 0xAB JUMPI DUP1 PUSH4 0x940BB344 GT PUSH2 0x6F JUMPI DUP1 PUSH4 0x940BB344 EQ PUSH2 0x3F3 JUMPI DUP1 PUSH4 0x95D89B41 EQ PUSH2 0x40A JUMPI DUP1 PUSH4 0xA457C2D7 EQ PUSH2 0x435 JUMPI DUP1 PUSH4 0xA9059CBB EQ PUSH2 0x472 JUMPI DUP1 PUSH4 0xDD62ED3E EQ PUSH2 0x4AF JUMPI DUP1 PUSH4 0xF2FDE38B EQ PUSH2 0x4EC JUMPI PUSH2 0x135 JUMP JUMPDEST DUP1 PUSH4 0x70A08231 EQ PUSH2 0x320 JUMPI DUP1 PUSH4 0x715018A6 EQ PUSH2 0x35D JUMPI DUP1 PUSH4 0x79CC6790 EQ PUSH2 0x374 JUMPI DUP1 PUSH4 0x7FF9B596 EQ PUSH2 0x39D JUMPI DUP1 PUSH4 0x8DA5CB5B EQ PUSH2 0x3C8 JUMPI PUSH2 0x135 JUMP JUMPDEST DUP1 PUSH4 0x3610724E GT PUSH2 0xFD JUMPI DUP1 PUSH4 0x3610724E EQ PUSH2 0x235 JUMPI DUP1 PUSH4 0x39509351 EQ PUSH2 0x251 JUMPI DUP1 PUSH4 0x42966C68 EQ PUSH2 0x28E JUMPI DUP1 PUSH4 0x47F07A8E EQ PUSH2 0x2B7 JUMPI DUP1 PUSH4 0x6A61E5FC EQ PUSH2 0x2CE JUMPI DUP1 PUSH4 0x6C11BCD3 EQ PUSH2 0x2F7 JUMPI PUSH2 0x135 JUMP JUMPDEST DUP1 PUSH4 0x6FDDE03 EQ PUSH2 0x13A JUMPI DUP1 PUSH4 0x95EA7B3 EQ PUSH2 0x165 JUMPI DUP1 PUSH4 0x18160DDD EQ PUSH2 0x1A2 JUMPI DUP1 PUSH4 0x23B872DD EQ PUSH2 0x1CD JUMPI DUP1 PUSH4 0x313CE567 EQ PUSH2 0x20A JUMPI JUMPDEST PUSH1 0x0 DUP1 REVERT JUMPDEST CALLVALUE DUP1 ISZERO PUSH2 0x146 JUMPI PUSH1 0x0 DUP1 REVERT JUMPDEST POP PUSH2 0x14F PUSH2 0x515 JUMP JUMPDEST PUSH1 0x40 MLOAD PUSH2 0x15C SWAP2 SWAP1 PUSH2 0x15F3 JUMP JUMPDEST PUSH1 0x40 MLOAD DUP1 SWAP2 SUB SWAP1 RETURN JUMPDEST CALLVALUE DUP1 ISZERO PUSH2 0x171 JUMPI PUSH1 0x0 DUP1 REVERT JUMPDEST POP PUSH2 0x18C PUSH1 0x4 DUP1 CALLDATASIZE SUB DUP2 ADD SWAP1 PUSH2 0x187 SWAP2 SWAP1 PUSH2 0x16AE JUMP JUMPDEST PUSH2 0x5A7 JUMP JUMPDEST PUSH1 0x40 MLOAD PUSH2 0x199 SWAP2 SWAP1 PUSH2 0x1709 JUMP JUMPDEST PUSH1 0x40 MLOAD DUP1 SWAP2 SUB SWAP1 RETURN JUMPDEST CALLVALUE DUP1 ISZERO PUSH2 0x1AE JUMPI PUSH1 0x0 DUP1 REVERT JUMPDEST POP PUSH2 0x1B7 PUSH2 0x5CA JUMP JUMPDEST PUSH1 0x40 MLOAD PUSH2 0x1C4 SWAP2 SWAP1 PUSH2 0x1733 JUMP JUMPDEST PUSH1 0x40 MLOAD DUP1 SWAP2 SUB SWAP1 RETURN JUMPDEST CALLVALUE DUP1 ISZERO PUSH2 0x1D9 JUMPI PUSH1 0x0 DUP1 REVERT JUMPDEST POP PUSH2 0x1F4 PUSH1 0x4 DUP1 CALLDATASIZE SUB DUP2 ADD SWAP1 PUSH2 0x1EF SWAP2 SWAP1 PUSH2 0x174E JUMP JUMPDEST PUSH2 0x5D4 JUMP JUMPDEST PUSH1 0x40 MLOAD PUSH2 0x201 SWAP2 SWAP1 PUSH2 0x1709 JUMP JUMPDEST PUSH1 0x40 MLOAD DUP1 SWAP2 SUB SWAP1 RETURN JUMPDEST CALLVALUE DUP1 ISZERO PUSH2 0x216 JUMPI PUSH1 0x0 DUP1 REVERT JUMPDEST POP PUSH2 0x21F PUSH2 0x603 JUMP JUMPDEST PUSH1 0x40 MLOAD PUSH2 0x22C SWAP2 SWAP1 PUSH2 0x17BD JUMP JUMPDEST PUSH1 0x40 MLOAD DUP1 SWAP2 SUB SWAP1 RETURN JUMPDEST PUSH2 0x24F PUSH1 0x4 DUP1 CALLDATASIZE SUB DUP2 ADD SWAP1 PUSH2 0x24A SWAP2 SWAP1 PUSH2 0x17D8 JUMP JUMPDEST PUSH2 0x60C JUMP JUMPDEST STOP JUMPDEST CALLVALUE DUP1 ISZERO PUSH2 0x25D JUMPI PUSH1 0x0 DUP1 REVERT JUMPDEST POP PUSH2 0x278 PUSH1 0x4 DUP1 CALLDATASIZE SUB DUP2 ADD SWAP1 PUSH2 0x273 SWAP2 SWAP1 PUSH2 0x16AE JUMP JUMPDEST PUSH2 0x66F JUMP JUMPDEST PUSH1 0x40 MLOAD PUSH2 0x285 SWAP2 SWAP1 PUSH2 0x1709 JUMP JUMPDEST PUSH1 0x40 MLOAD DUP1 SWAP2 SUB SWAP1 RETURN JUMPDEST CALLVALUE DUP1 ISZERO PUSH2 0x29A JUMPI PUSH1 0x0 DUP1 REVERT JUMPDEST POP PUSH2 0x2B5 PUSH1 0x4 DUP1 CALLDATASIZE SUB DUP2 ADD SWAP1 PUSH2 0x2B0 SWAP2 SWAP1 PUSH2 0x17D8 JUMP JUMPDEST PUSH2 0x6A6 JUMP JUMPDEST STOP JUMPDEST CALLVALUE DUP1 ISZERO PUSH2 0x2C3 JUMPI PUSH1 0x0 DUP1 REVERT JUMPDEST POP PUSH2 0x2CC PUSH2 0x6BA JUMP JUMPDEST STOP JUMPDEST CALLVALUE DUP1 ISZERO PUSH2 0x2DA JUMPI PUSH1 0x0 DUP1 REVERT JUMPDEST POP PUSH2 0x2F5 PUSH1 0x4 DUP1 CALLDATASIZE SUB DUP2 ADD SWAP1 PUSH2 0x2F0 SWAP2 SWAP1 PUSH2 0x17D8 JUMP JUMPDEST PUSH2 0x77F JUMP JUMPDEST STOP JUMPDEST CALLVALUE DUP1 ISZERO PUSH2 0x303 JUMPI PUSH1 0x0 DUP1 REVERT JUMPDEST POP PUSH2 0x31E PUSH1 0x4 DUP1 CALLDATASIZE SUB DUP2 ADD SWAP1 PUSH2 0x319 SWAP2 SWAP1 PUSH2 0x17D8 JUMP JUMPDEST PUSH2 0x791 JUMP JUMPDEST STOP JUMPDEST CALLVALUE DUP1 ISZERO PUSH2 0x32C JUMPI PUSH1 0x0 DUP1 REVERT JUMPDEST POP PUSH2 0x347 PUSH1 0x4 DUP1 CALLDATASIZE SUB DUP2 ADD SWAP1 PUSH2 0x342 SWAP2 SWAP1 PUSH2 0x1805 JUMP JUMPDEST PUSH2 0x8D8 JUMP JUMPDEST PUSH1 0x40 MLOAD PUSH2 0x354 SWAP2 SWAP1 PUSH2 0x1733 JUMP JUMPDEST PUSH1 0x40 MLOAD DUP1 SWAP2 SUB SWAP1 RETURN JUMPDEST CALLVALUE DUP1 ISZERO PUSH2 0x369 JUMPI PUSH1 0x0 DUP1 REVERT JUMPDEST POP PUSH2 0x372 PUSH2 0x920 JUMP JUMPDEST STOP JUMPDEST CALLVALUE DUP1 ISZERO PUSH2 0x380 JUMPI PUSH1 0x0 DUP1 REVERT JUMPDEST POP PUSH2 0x39B PUSH1 0x4 DUP1 CALLDATASIZE SUB DUP2 ADD SWAP1 PUSH2 0x396 SWAP2 SWAP1 PUSH2 0x16AE JUMP JUMPDEST PUSH2 0x934 JUMP JUMPDEST STOP JUMPDEST CALLVALUE DUP1 ISZERO PUSH2 0x3A9 JUMPI PUSH1 0x0 DUP1 REVERT JUMPDEST POP PUSH2 0x3B2 PUSH2 0x954 JUMP JUMPDEST PUSH1 0x40 MLOAD PUSH2 0x3BF SWAP2 SWAP1 PUSH2 0x1733 JUMP JUMPDEST PUSH1 0x40 MLOAD DUP1 SWAP2 SUB SWAP1 RETURN JUMPDEST CALLVALUE DUP1 ISZERO PUSH2 0x3D4 JUMPI PUSH1 0x0 DUP1 REVERT JUMPDEST POP PUSH2 0x3DD PUSH2 0x95A JUMP JUMPDEST PUSH1 0x40 MLOAD PUSH2 0x3EA SWAP2 SWAP1 PUSH2 0x1841 JUMP JUMPDEST PUSH1 0x40 MLOAD DUP1 SWAP2 SUB SWAP1 RETURN JUMPDEST CALLVALUE DUP1 ISZERO PUSH2 0x3FF JUMPI PUSH1 0x0 DUP1 REVERT JUMPDEST POP PUSH2 0x408 PUSH2 0x984 JUMP JUMPDEST STOP JUMPDEST CALLVALUE DUP1 ISZERO PUSH2 0x416 JUMPI PUSH1 0x0 DUP1 REVERT JUMPDEST POP PUSH2 0x41F PUSH2 0x9E9 JUMP JUMPDEST PUSH1 0x40 MLOAD PUSH2 0x42C SWAP2 SWAP1 PUSH2 0x15F3 JUMP JUMPDEST PUSH1 0x40 MLOAD DUP1 SWAP2 SUB SWAP1 RETURN JUMPDEST CALLVALUE DUP1 ISZERO PUSH2 0x441 JUMPI PUSH1 0x0 DUP1 REVERT JUMPDEST POP PUSH2 0x45C PUSH1 0x4 DUP1 CALLDATASIZE SUB DUP2 ADD SWAP1 PUSH2 0x457 SWAP2 SWAP1 PUSH2 0x16AE JUMP JUMPDEST PUSH2 0xA7B JUMP JUMPDEST PUSH1 0x40 MLOAD PUSH2 0x469 SWAP2 SWAP1 PUSH2 0x1709 JUMP JUMPDEST PUSH1 0x40 MLOAD DUP1 SWAP2 SUB SWAP1 RETURN JUMPDEST CALLVALUE DUP1 ISZERO PUSH2 0x47E JUMPI PUSH1 0x0 DUP1 REVERT JUMPDEST POP PUSH2 0x499 PUSH1 0x4 DUP1 CALLDATASIZE SUB DUP2 ADD SWAP1 PUSH2 0x494 SWAP2 SWAP1 PUSH2 0x16AE JUMP JUMPDEST PUSH2 0xAF2 JUMP JUMPDEST PUSH1 0x40 MLOAD PUSH2 0x4A6 SWAP2 SWAP1 PUSH2 0x1709 JUMP JUMPDEST PUSH1 0x40 MLOAD DUP1 SWAP2 SUB SWAP1 RETURN JUMPDEST CALLVALUE DUP1 ISZERO PUSH2 0x4BB JUMPI PUSH1 0x0 DUP1 REVERT JUMPDEST POP PUSH2 0x4D6 PUSH1 0x4 DUP1 CALLDATASIZE SUB DUP2 ADD SWAP1 PUSH2 0x4D1 SWAP2 SWAP1 PUSH2 0x185C JUMP JUMPDEST PUSH2 0xB15 JUMP JUMPDEST PUSH1 0x40 MLOAD PUSH2 0x4E3 SWAP2 SWAP1 PUSH2 0x1733 JUMP JUMPDEST PUSH1 0x40 MLOAD DUP1 SWAP2 SUB SWAP1 RETURN JUMPDEST CALLVALUE DUP1 ISZERO PUSH2 0x4F8 JUMPI PUSH1 0x0 DUP1 REVERT JUMPDEST POP PUSH2 0x513 PUSH1 0x4 DUP1 CALLDATASIZE SUB DUP2 ADD SWAP1 PUSH2 0x50E SWAP2 SWAP1 PUSH2 0x1805 JUMP JUMPDEST PUSH2 0xB9C JUMP JUMPDEST STOP JUMPDEST PUSH1 0x60 PUSH1 0x3 DUP1 SLOAD PUSH2 0x524 SWAP1 PUSH2 0x18CB JUMP JUMPDEST DUP1 PUSH1 0x1F ADD PUSH1 0x20 DUP1 SWAP2 DIV MUL PUSH1 0x20 ADD PUSH1 0x40 MLOAD SWAP1 DUP2 ADD PUSH1 0x40 MSTORE DUP1 SWAP3 SWAP2 SWAP1 DUP2 DUP2 MSTORE PUSH1 0x20 ADD DUP3 DUP1 SLOAD PUSH2 0x550 SWAP1 PUSH2 0x18CB JUMP JUMPDEST DUP1 ISZERO PUSH2 0x59D JUMPI DUP1 PUSH1 0x1F LT PUSH2 0x572 JUMPI PUSH2 0x100 DUP1 DUP4 SLOAD DIV MUL DUP4 MSTORE SWAP2 PUSH1 0x20 ADD SWAP2 PUSH2 0x59D JUMP JUMPDEST DUP3 ADD SWAP2 SWAP1 PUSH1 0x0 MSTORE PUSH1 0x20 PUSH1 0x0 KECCAK256 SWAP1 JUMPDEST DUP2 SLOAD DUP2 MSTORE SWAP1 PUSH1 0x1 ADD SWAP1 PUSH1 0x20 ADD DUP1 DUP4 GT PUSH2 0x580 JUMPI DUP3 SWAP1 SUB PUSH1 0x1F AND DUP3 ADD SWAP2 JUMPDEST POP POP POP POP POP SWAP1 POP SWAP1 JUMP JUMPDEST PUSH1 0x0 DUP1 PUSH2 0x5B2 PUSH2 0xC1F JUMP JUMPDEST SWAP1 POP PUSH2 0x5BF DUP2 DUP6 DUP6 PUSH2 0xC27 JUMP JUMPDEST PUSH1 0x1 SWAP2 POP POP SWAP3 SWAP2 POP POP JUMP JUMPDEST PUSH1 0x0 PUSH1 0x2 SLOAD SWAP1 POP SWAP1 JUMP JUMPDEST PUSH1 0x0 DUP1 PUSH2 0x5DF PUSH2 0xC1F JUMP JUMPDEST SWAP1 POP PUSH2 0x5EC DUP6 DUP3 DUP6 PUSH2 0xDF0 JUMP JUMPDEST PUSH2 0x5F7 DUP6 DUP6 DUP6 PUSH2 0xE7C JUMP JUMPDEST PUSH1 0x1 SWAP2 POP POP SWAP4 SWAP3 POP POP POP JUMP JUMPDEST PUSH1 0x0 PUSH1 0x12 SWAP1 POP SWAP1 JUMP JUMPDEST PUSH1 0x0 PUSH1 0x6 SLOAD DUP3 PUSH2 0x61C SWAP2 SWAP1 PUSH2 0x192B JUMP JUMPDEST SWAP1 POP DUP1 CALLVALUE LT ISZERO PUSH2 0x661 JUMPI PUSH1 0x40 MLOAD PUSH32 0x8C379A000000000000000000000000000000000000000000000000000000000 DUP2 MSTORE PUSH1 0x4 ADD PUSH2 0x658 SWAP1 PUSH2 0x19B9 JUMP JUMPDEST PUSH1 0x40 MLOAD DUP1 SWAP2 SUB SWAP1 REVERT JUMPDEST PUSH2 0x66B CALLER DUP4 PUSH2 0x10F2 JUMP JUMPDEST POP POP JUMP JUMPDEST PUSH1 0x0 DUP1 PUSH2 0x67A PUSH2 0xC1F JUMP JUMPDEST SWAP1 POP PUSH2 0x69B DUP2 DUP6 DUP6 PUSH2 0x68C DUP6 DUP10 PUSH2 0xB15 JUMP JUMPDEST PUSH2 0x696 SWAP2 SWAP1 PUSH2 0x19D9 JUMP JUMPDEST PUSH2 0xC27 JUMP JUMPDEST PUSH1 0x1 SWAP2 POP POP SWAP3 SWAP2 POP POP JUMP JUMPDEST PUSH2 0x6B7 PUSH2 0x6B1 PUSH2 0xC1F JUMP JUMPDEST DUP3 PUSH2 0x1248 JUMP JUMPDEST POP JUMP JUMPDEST PUSH2 0x6C2 PUSH2 0x95A JUMP JUMPDEST PUSH20 0xFFFFFFFFFFFFFFFFFFFFFFFFFFFFFFFFFFFFFFFF AND CALLER PUSH20 0xFFFFFFFFFFFFFFFFFFFFFFFFFFFFFFFFFFFFFFFF AND EQ PUSH2 0x72F JUMPI PUSH1 0x40 MLOAD PUSH32 0x8C379A000000000000000000000000000000000000000000000000000000000 DUP2 MSTORE PUSH1 0x4 ADD PUSH2 0x726 SWAP1 PUSH2 0x1A7F JUMP JUMPDEST PUSH1 0x40 MLOAD DUP1 SWAP2 SUB SWAP1 REVERT JUMPDEST PUSH2 0x737 PUSH2 0x95A JUMP JUMPDEST PUSH20 0xFFFFFFFFFFFFFFFFFFFFFFFFFFFFFFFFFFFFFFFF AND PUSH2 0x8FC SELFBALANCE SWAP1 DUP2 ISZERO MUL SWAP1 PUSH1 0x40 MLOAD PUSH1 0x0 PUSH1 0x40 MLOAD DUP1 DUP4 SUB DUP2 DUP6 DUP9 DUP9 CALL SWAP4 POP POP POP POP ISZERO DUP1 ISZERO PUSH2 0x77C JUMPI RETURNDATASIZE PUSH1 0x0 DUP1 RETURNDATACOPY RETURNDATASIZE PUSH1 0x0 REVERT JUMPDEST POP JUMP JUMPDEST PUSH2 0x787 PUSH2 0x1415 JUMP JUMPDEST DUP1 PUSH1 0x6 DUP2 SWAP1 SSTORE POP POP JUMP JUMPDEST DUP1 PUSH2 0x79B CALLER PUSH2 0x8D8 JUMP JUMPDEST LT ISZERO PUSH2 0x7DC JUMPI PUSH1 0x40 MLOAD PUSH32 0x8C379A000000000000000000000000000000000000000000000000000000000 DUP2 MSTORE PUSH1 0x4 ADD PUSH2 0x7D3 SWAP1 PUSH2 0x1AEB JUMP JUMPDEST PUSH1 0x40 MLOAD DUP1 SWAP2 SUB SWAP1 REVERT JUMPDEST DUP1 PUSH2 0x7ED PUSH2 0x7E8 PUSH2 0x95A JUMP JUMPDEST PUSH2 0x8D8 JUMP JUMPDEST LT ISZERO PUSH2 0x82E JUMPI PUSH1 0x40 MLOAD PUSH32 0x8C379A000000000000000000000000000000000000000000000000000000000 DUP2 MSTORE PUSH1 0x4 ADD PUSH2 0x825 SWAP1 PUSH2 0x1B7D JUMP JUMPDEST PUSH1 0x40 MLOAD DUP1 SWAP2 SUB SWAP1 REVERT JUMPDEST PUSH1 0x0 PUSH1 0x6 SLOAD DUP3 PUSH2 0x83E SWAP2 SWAP1 PUSH2 0x192B JUMP JUMPDEST SWAP1 POP DUP1 SELFBALANCE LT ISZERO PUSH2 0x883 JUMPI PUSH1 0x40 MLOAD PUSH32 0x8C379A000000000000000000000000000000000000000000000000000000000 DUP2 MSTORE PUSH1 0x4 ADD PUSH2 0x87A SWAP1 PUSH2 0x1C0F JUMP JUMPDEST PUSH1 0x40 MLOAD DUP1 SWAP2 SUB SWAP1 REVERT JUMPDEST PUSH2 0x88D CALLER DUP4 PUSH2 0x1248 JUMP JUMPDEST CALLER PUSH20 0xFFFFFFFFFFFFFFFFFFFFFFFFFFFFFFFFFFFFFFFF AND PUSH2 0x8FC DUP3 SWAP1 DUP2 ISZERO MUL SWAP1 PUSH1 0x40 MLOAD PUSH1 0x0 PUSH1 0x40 MLOAD DUP1 DUP4 SUB DUP2 DUP6 DUP9 DUP9 CALL SWAP4 POP POP POP POP ISZERO DUP1 ISZERO PUSH2 0x8D3 JUMPI RETURNDATASIZE PUSH1 0x0 DUP1 RETURNDATACOPY RETURNDATASIZE PUSH1 0x0 REVERT JUMPDEST POP POP POP JUMP JUMPDEST PUSH1 0x0 DUP1 PUSH1 0x0 DUP4 PUSH20 0xFFFFFFFFFFFFFFFFFFFFFFFFFFFFFFFFFFFFFFFF AND PUSH20 0xFFFFFFFFFFFFFFFFFFFFFFFFFFFFFFFFFFFFFFFF AND DUP2 MSTORE PUSH1 0x20 ADD SWAP1 DUP2 MSTORE PUSH1 0x20 ADD PUSH1 0x0 KECCAK256 SLOAD SWAP1 POP SWAP2 SWAP1 POP JUMP JUMPDEST PUSH2 0x928 PUSH2 0x1415 JUMP JUMPDEST PUSH2 0x932 PUSH1 0x0 PUSH2 0x1493 JUMP JUMPDEST JUMP JUMPDEST PUSH2 0x946 DUP3 PUSH2 0x940 PUSH2 0xC1F JUMP JUMPDEST DUP4 PUSH2 0xDF0 JUMP JUMPDEST PUSH2 0x950 DUP3 DUP3 PUSH2 0x1248 JUMP JUMPDEST POP POP JUMP JUMPDEST PUSH1 0x6 SLOAD DUP2 JUMP JUMPDEST PUSH1 0x0 PUSH1 0x5 PUSH1 0x0 SWAP1 SLOAD SWAP1 PUSH2 0x100 EXP SWAP1 DIV PUSH20 0xFFFFFFFFFFFFFFFFFFFFFFFFFFFFFFFFFFFFFFFF AND SWAP1 POP SWAP1 JUMP JUMPDEST PUSH2 0x98C PUSH2 0x1415 JUMP JUMPDEST PUSH1 0x0 PUSH2 0x997 ADDRESS PUSH2 0x8D8 JUMP JUMPDEST SWAP1 POP PUSH1 0x0 DUP2 GT PUSH2 0x9DC JUMPI PUSH1 0x40 MLOAD PUSH32 0x8C379A000000000000000000000000000000000000000000000000000000000 DUP2 MSTORE PUSH1 0x4 ADD PUSH2 0x9D3 SWAP1 PUSH2 0x1C7B JUMP JUMPDEST PUSH1 0x40 MLOAD DUP1 SWAP2 SUB SWAP1 REVERT JUMPDEST PUSH2 0x9E6 ADDRESS DUP3 PUSH2 0x1248 JUMP JUMPDEST POP JUMP JUMPDEST PUSH1 0x60 PUSH1 0x4 DUP1 SLOAD PUSH2 0x9F8 SWAP1 PUSH2 0x18CB JUMP JUMPDEST DUP1 PUSH1 0x1F ADD PUSH1 0x20 DUP1 SWAP2 DIV MUL PUSH1 0x20 ADD PUSH1 0x40 MLOAD SWAP1 DUP2 ADD PUSH1 0x40 MSTORE DUP1 SWAP3 SWAP2 SWAP1 DUP2 DUP2 MSTORE PUSH1 0x20 ADD DUP3 DUP1 SLOAD PUSH2 0xA24 SWAP1 PUSH2 0x18CB JUMP JUMPDEST DUP1 ISZERO PUSH2 0xA71 JUMPI DUP1 PUSH1 0x1F LT PUSH2 0xA46 JUMPI PUSH2 0x100 DUP1 DUP4 SLOAD DIV MUL DUP4 MSTORE SWAP2 PUSH1 0x20 ADD SWAP2 PUSH2 0xA71 JUMP JUMPDEST DUP3 ADD SWAP2 SWAP1 PUSH1 0x0 MSTORE PUSH1 0x20 PUSH1 0x0 KECCAK256 SWAP1 JUMPDEST DUP2 SLOAD DUP2 MSTORE SWAP1 PUSH1 0x1 ADD SWAP1 PUSH1 0x20 ADD DUP1 DUP4 GT PUSH2 0xA54 JUMPI DUP3 SWAP1 SUB PUSH1 0x1F AND DUP3 ADD SWAP2 JUMPDEST POP POP POP POP POP SWAP1 POP SWAP1 JUMP JUMPDEST PUSH1 0x0 DUP1 PUSH2 0xA86 PUSH2 0xC1F JUMP JUMPDEST SWAP1 POP PUSH1 0x0 PUSH2 0xA94 DUP3 DUP7 PUSH2 0xB15 JUMP JUMPDEST SWAP1 POP DUP4 DUP2 LT ISZERO PUSH2 0xAD9 JUMPI PUSH1 0x40 MLOAD PUSH32 0x8C379A000000000000000000000000000000000000000000000000000000000 DUP2 MSTORE PUSH1 0x4 ADD PUSH2 0xAD0 SWAP1 PUSH2 0x1D0D JUMP JUMPDEST PUSH1 0x40 MLOAD DUP1 SWAP2 SUB SWAP1 REVERT JUMPDEST PUSH2 0xAE6 DUP3 DUP7 DUP7 DUP5 SUB PUSH2 0xC27 JUMP JUMPDEST PUSH1 0x1 SWAP3 POP POP POP SWAP3 SWAP2 POP POP JUMP JUMPDEST PUSH1 0x0 DUP1 PUSH2 0xAFD PUSH2 0xC1F JUMP JUMPDEST SWAP1 POP PUSH2 0xB0A DUP2 DUP6 DUP6 PUSH2 0xE7C JUMP JUMPDEST PUSH1 0x1 SWAP2 POP POP SWAP3 SWAP2 POP POP JUMP JUMPDEST PUSH1 0x0 PUSH1 0x1 PUSH1 0x0 DUP5 PUSH20 0xFFFFFFFFFFFFFFFFFFFFFFFFFFFFFFFFFFFFFFFF AND PUSH20 0xFFFFFFFFFFFFFFFFFFFFFFFFFFFFFFFFFFFFFFFF AND DUP2 MSTORE PUSH1 0x20 ADD SWAP1 DUP2 MSTORE PUSH1 0x20 ADD PUSH1 0x0 KECCAK256 PUSH1 0x0 DUP4 PUSH20 0xFFFFFFFFFFFFFFFFFFFFFFFFFFFFFFFFFFFFFFFF AND PUSH20 0xFFFFFFFFFFFFFFFFFFFFFFFFFFFFFFFFFFFFFFFF AND DUP2 MSTORE PUSH1 0x20 ADD SWAP1 DUP2 MSTORE PUSH1 0x20 ADD PUSH1 0x0 KECCAK256 SLOAD SWAP1 POP SWAP3 SWAP2 POP POP JUMP JUMPDEST PUSH2 0xBA4 PUSH2 0x1415 JUMP JUMPDEST PUSH1 0x0 PUSH20 0xFFFFFFFFFFFFFFFFFFFFFFFFFFFFFFFFFFFFFFFF AND DUP2 PUSH20 0xFFFFFFFFFFFFFFFFFFFFFFFFFFFFFFFFFFFFFFFF AND SUB PUSH2 0xC13 JUMPI PUSH1 0x40 MLOAD PUSH32 0x8C379A000000000000000000000000000000000000000000000000000000000 DUP2 MSTORE PUSH1 0x4 ADD PUSH2 0xC0A SWAP1 PUSH2 0x1D9F JUMP JUMPDEST PUSH1 0x40 MLOAD DUP1 SWAP2 SUB SWAP1 REVERT JUMPDEST PUSH2 0xC1C DUP2 PUSH2 0x1493 JUMP JUMPDEST POP JUMP JUMPDEST PUSH1 0x0 CALLER SWAP1 POP SWAP1 JUMP JUMPDEST PUSH1 0x0 PUSH20 0xFFFFFFFFFFFFFFFFFFFFFFFFFFFFFFFFFFFFFFFF AND DUP4 PUSH20 0xFFFFFFFFFFFFFFFFFFFFFFFFFFFFFFFFFFFFFFFF AND SUB PUSH2 0xC96 JUMPI PUSH1 0x40 MLOAD PUSH32 0x8C379A000000000000000000000000000000000000000000000000000000000 DUP2 MSTORE PUSH1 0x4 ADD PUSH2 0xC8D SWAP1 PUSH2 0x1E31 JUMP JUMPDEST PUSH1 0x40 MLOAD DUP1 SWAP2 SUB SWAP1 REVERT JUMPDEST PUSH1 0x0 PUSH20 0xFFFFFFFFFFFFFFFFFFFFFFFFFFFFFFFFFFFFFFFF AND DUP3 PUSH20 0xFFFFFFFFFFFFFFFFFFFFFFFFFFFFFFFFFFFFFFFF AND SUB PUSH2 0xD05 JUMPI PUSH1 0x40 MLOAD PUSH32 0x8C379A000000000000000000000000000000000000000000000000000000000 DUP2 MSTORE PUSH1 0x4 ADD PUSH2 0xCFC SWAP1 PUSH2 0x1EC3 JUMP JUMPDEST PUSH1 0x40 MLOAD DUP1 SWAP2 SUB SWAP1 REVERT JUMPDEST DUP1 PUSH1 0x1 PUSH1 0x0 DUP6 PUSH20 0xFFFFFFFFFFFFFFFFFFFFFFFFFFFFFFFFFFFFFFFF AND PUSH20 0xFFFFFFFFFFFFFFFFFFFFFFFFFFFFFFFFFFFFFFFF AND DUP2 MSTORE PUSH1 0x20 ADD SWAP1 DUP2 MSTORE PUSH1 0x20 ADD PUSH1 0x0 KECCAK256 PUSH1 0x0 DUP5 PUSH20 0xFFFFFFFFFFFFFFFFFFFFFFFFFFFFFFFFFFFFFFFF AND PUSH20 0xFFFFFFFFFFFFFFFFFFFFFFFFFFFFFFFFFFFFFFFF AND DUP2 MSTORE PUSH1 0x20 ADD SWAP1 DUP2 MSTORE PUSH1 0x20 ADD PUSH1 0x0 KECCAK256 DUP2 SWAP1 SSTORE POP DUP2 PUSH20 0xFFFFFFFFFFFFFFFFFFFFFFFFFFFFFFFFFFFFFFFF AND DUP4 PUSH20 0xFFFFFFFFFFFFFFFFFFFFFFFFFFFFFFFFFFFFFFFF AND PUSH32 0x8C5BE1E5EBEC7D5BD14F71427D1E84F3DD0314C0F7B2291E5B200AC8C7C3B925 DUP4 PUSH1 0x40 MLOAD PUSH2 0xDE3 SWAP2 SWAP1 PUSH2 0x1733 JUMP JUMPDEST PUSH1 0x40 MLOAD DUP1 SWAP2 SUB SWAP1 LOG3 POP POP POP JUMP JUMPDEST PUSH1 0x0 PUSH2 0xDFC DUP5 DUP5 PUSH2 0xB15 JUMP JUMPDEST SWAP1 POP PUSH32 0xFFFFFFFFFFFFFFFFFFFFFFFFFFFFFFFFFFFFFFFFFFFFFFFFFFFFFFFFFFFFFFFF DUP2 EQ PUSH2 0xE76 JUMPI DUP2 DUP2 LT ISZERO PUSH2 0xE68 JUMPI PUSH1 0x40 MLOAD PUSH32 0x8C379A000000000000000000000000000000000000000000000000000000000 DUP2 MSTORE PUSH1 0x4 ADD PUSH2 0xE5F SWAP1 PUSH2 0x1F2F JUMP JUMPDEST PUSH1 0x40 MLOAD DUP1 SWAP2 SUB SWAP1 REVERT JUMPDEST PUSH2 0xE75 DUP5 DUP5 DUP5 DUP5 SUB PUSH2 0xC27 JUMP JUMPDEST JUMPDEST POP POP POP POP JUMP JUMPDEST PUSH1 0x0 PUSH20 0xFFFFFFFFFFFFFFFFFFFFFFFFFFFFFFFFFFFFFFFF AND DUP4 PUSH20 0xFFFFFFFFFFFFFFFFFFFFFFFFFFFFFFFFFFFFFFFF AND SUB PUSH2 0xEEB JUMPI PUSH1 0x40 MLOAD PUSH32 0x8C379A000000000000000000000000000000000000000000000000000000000 DUP2 MSTORE PUSH1 0x4 ADD PUSH2 0xEE2 SWAP1 PUSH2 0x1FC1 JUMP JUMPDEST PUSH1 0x40 MLOAD DUP1 SWAP2 SUB SWAP1 REVERT JUMPDEST PUSH1 0x0 PUSH20 0xFFFFFFFFFFFFFFFFFFFFFFFFFFFFFFFFFFFFFFFF AND DUP3 PUSH20 0xFFFFFFFFFFFFFFFFFFFFFFFFFFFFFFFFFFFFFFFF AND SUB PUSH2 0xF5A JUMPI PUSH1 0x40 MLOAD PUSH32 0x8C379A000000000000000000000000000000000000000000000000000000000 DUP2 MSTORE PUSH1 0x4 ADD PUSH2 0xF51 SWAP1 PUSH2 0x2053 JUMP JUMPDEST PUSH1 0x40 MLOAD DUP1 SWAP2 SUB SWAP1 REVERT JUMPDEST PUSH2 0xF65 DUP4 DUP4 DUP4 PUSH2 0x1559 JUMP JUMPDEST PUSH1 0x0 DUP1 PUSH1 0x0 DUP6 PUSH20 0xFFFFFFFFFFFFFFFFFFFFFFFFFFFFFFFFFFFFFFFF AND PUSH20 0xFFFFFFFFFFFFFFFFFFFFFFFFFFFFFFFFFFFFFFFF AND DUP2 MSTORE PUSH1 0x20 ADD SWAP1 DUP2 MSTORE PUSH1 0x20 ADD PUSH1 0x0 KECCAK256 SLOAD SWAP1 POP DUP2 DUP2 LT ISZERO PUSH2 0xFEB JUMPI PUSH1 0x40 MLOAD PUSH32 0x8C379A000000000000000000000000000000000000000000000000000000000 DUP2 MSTORE PUSH1 0x4 ADD PUSH2 0xFE2 SWAP1 PUSH2 0x20E5 JUMP JUMPDEST PUSH1 0x40 MLOAD DUP1 SWAP2 SUB SWAP1 REVERT JUMPDEST DUP2 DUP2 SUB PUSH1 0x0 DUP1 DUP7 PUSH20 0xFFFFFFFFFFFFFFFFFFFFFFFFFFFFFFFFFFFFFFFF AND PUSH20 0xFFFFFFFFFFFFFFFFFFFFFFFFFFFFFFFFFFFFFFFF AND DUP2 MSTORE PUSH1 0x20 ADD SWAP1 DUP2 MSTORE PUSH1 0x20 ADD PUSH1 0x0 KECCAK256 DUP2 SWAP1 SSTORE POP DUP2 PUSH1 0x0 DUP1 DUP6 PUSH20 0xFFFFFFFFFFFFFFFFFFFFFFFFFFFFFFFFFFFFFFFF AND PUSH20 0xFFFFFFFFFFFFFFFFFFFFFFFFFFFFFFFFFFFFFFFF AND DUP2 MSTORE PUSH1 0x20 ADD SWAP1 DUP2 MSTORE PUSH1 0x20 ADD PUSH1 0x0 KECCAK256 PUSH1 0x0 DUP3 DUP3 SLOAD ADD SWAP3 POP POP DUP2 SWAP1 SSTORE POP DUP3 PUSH20 0xFFFFFFFFFFFFFFFFFFFFFFFFFFFFFFFFFFFFFFFF AND DUP5 PUSH20 0xFFFFFFFFFFFFFFFFFFFFFFFFFFFFFFFFFFFFFFFF AND PUSH32 0xDDF252AD1BE2C89B69C2B068FC378DAA952BA7F163C4A11628F55A4DF523B3EF DUP5 PUSH1 0x40 MLOAD PUSH2 0x10D9 SWAP2 SWAP1 PUSH2 0x1733 JUMP JUMPDEST PUSH1 0x40 MLOAD DUP1 SWAP2 SUB SWAP1 LOG3 PUSH2 0x10EC DUP5 DUP5 DUP5 PUSH2 0x155E JUMP JUMPDEST POP POP POP POP JUMP JUMPDEST PUSH1 0x0 PUSH20 0xFFFFFFFFFFFFFFFFFFFFFFFFFFFFFFFFFFFFFFFF AND DUP3 PUSH20 0xFFFFFFFFFFFFFFFFFFFFFFFFFFFFFFFFFFFFFFFF AND SUB PUSH2 0x1161 JUMPI PUSH1 0x40 MLOAD PUSH32 0x8C379A000000000000000000000000000000000000000000000000000000000 DUP2 MSTORE PUSH1 0x4 ADD PUSH2 0x1158 SWAP1 PUSH2 0x2151 JUMP JUMPDEST PUSH1 0x40 MLOAD DUP1 SWAP2 SUB SWAP1 REVERT JUMPDEST PUSH2 0x116D PUSH1 0x0 DUP4 DUP4 PUSH2 0x1559 JUMP JUMPDEST DUP1 PUSH1 0x2 PUSH1 0x0 DUP3 DUP3 SLOAD PUSH2 0x117F SWAP2 SWAP1 PUSH2 0x19D9 JUMP JUMPDEST SWAP3 POP POP DUP2 SWAP1 SSTORE POP DUP1 PUSH1 0x0 DUP1 DUP5 PUSH20 0xFFFFFFFFFFFFFFFFFFFFFFFFFFFFFFFFFFFFFFFF AND PUSH20 0xFFFFFFFFFFFFFFFFFFFFFFFFFFFFFFFFFFFFFFFF AND DUP2 MSTORE PUSH1 0x20 ADD SWAP1 DUP2 MSTORE PUSH1 0x20 ADD PUSH1 0x0 KECCAK256 PUSH1 0x0 DUP3 DUP3 SLOAD ADD SWAP3 POP POP DUP2 SWAP1 SSTORE POP DUP2 PUSH20 0xFFFFFFFFFFFFFFFFFFFFFFFFFFFFFFFFFFFFFFFF AND PUSH1 0x0 PUSH20 0xFFFFFFFFFFFFFFFFFFFFFFFFFFFFFFFFFFFFFFFF AND PUSH32 0xDDF252AD1BE2C89B69C2B068FC378DAA952BA7F163C4A11628F55A4DF523B3EF DUP4 PUSH1 0x40 MLOAD PUSH2 0x1230 SWAP2 SWAP1 PUSH2 0x1733 JUMP JUMPDEST PUSH1 0x40 MLOAD DUP1 SWAP2 SUB SWAP1 LOG3 PUSH2 0x1244 PUSH1 0x0 DUP4 DUP4 PUSH2 0x155E JUMP JUMPDEST POP POP JUMP JUMPDEST PUSH1 0x0 PUSH20 0xFFFFFFFFFFFFFFFFFFFFFFFFFFFFFFFFFFFFFFFF AND DUP3 PUSH20 0xFFFFFFFFFFFFFFFFFFFFFFFFFFFFFFFFFFFFFFFF AND SUB PUSH2 0x12B7 JUMPI PUSH1 0x40 MLOAD PUSH32 0x8C379A000000000000000000000000000000000000000000000000000000000 DUP2 MSTORE PUSH1 0x4 ADD PUSH2 0x12AE SWAP1 PUSH2 0x21E3 JUMP JUMPDEST PUSH1 0x40 MLOAD DUP1 SWAP2 SUB SWAP1 REVERT JUMPDEST PUSH2 0x12C3 DUP3 PUSH1 0x0 DUP4 PUSH2 0x1559 JUMP JUMPDEST PUSH1 0x0 DUP1 PUSH1 0x0 DUP5 PUSH20 0xFFFFFFFFFFFFFFFFFFFFFFFFFFFFFFFFFFFFFFFF AND PUSH20 0xFFFFFFFFFFFFFFFFFFFFFFFFFFFFFFFFFFFFFFFF AND DUP2 MSTORE PUSH1 0x20 ADD SWAP1 DUP2 MSTORE PUSH1 0x20 ADD PUSH1 0x0 KECCAK256 SLOAD SWAP1 POP DUP2 DUP2 LT ISZERO PUSH2 0x1349 JUMPI PUSH1 0x40 MLOAD PUSH32 0x8C379A000000000000000000000000000000000000000000000000000000000 DUP2 MSTORE PUSH1 0x4 ADD PUSH2 0x1340 SWAP1 PUSH2 0x2275 JUMP JUMPDEST PUSH1 0x40 MLOAD DUP1 SWAP2 SUB SWAP1 REVERT JUMPDEST DUP2 DUP2 SUB PUSH1 0x0 DUP1 DUP6 PUSH20 0xFFFFFFFFFFFFFFFFFFFFFFFFFFFFFFFFFFFFFFFF AND PUSH20 0xFFFFFFFFFFFFFFFFFFFFFFFFFFFFFFFFFFFFFFFF AND DUP2 MSTORE PUSH1 0x20 ADD SWAP1 DUP2 MSTORE PUSH1 0x20 ADD PUSH1 0x0 KECCAK256 DUP2 SWAP1 SSTORE POP DUP2 PUSH1 0x2 PUSH1 0x0 DUP3 DUP3 SLOAD SUB SWAP3 POP POP DUP2 SWAP1 SSTORE POP PUSH1 0x0 PUSH20 0xFFFFFFFFFFFFFFFFFFFFFFFFFFFFFFFFFFFFFFFF AND DUP4 PUSH20 0xFFFFFFFFFFFFFFFFFFFFFFFFFFFFFFFFFFFFFFFF AND PUSH32 0xDDF252AD1BE2C89B69C2B068FC378DAA952BA7F163C4A11628F55A4DF523B3EF DUP5 PUSH1 0x40 MLOAD PUSH2 0x13FC SWAP2 SWAP1 PUSH2 0x1733 JUMP JUMPDEST PUSH1 0x40 MLOAD DUP1 SWAP2 SUB SWAP1 LOG3 PUSH2 0x1410 DUP4 PUSH1 0x0 DUP5 PUSH2 0x155E JUMP JUMPDEST POP POP POP JUMP JUMPDEST PUSH2 0x141D PUSH2 0xC1F JUMP JUMPDEST PUSH20 0xFFFFFFFFFFFFFFFFFFFFFFFFFFFFFFFFFFFFFFFF AND PUSH2 0x143B PUSH2 0x95A JUMP JUMPDEST PUSH20 0xFFFFFFFFFFFFFFFFFFFFFFFFFFFFFFFFFFFFFFFF AND EQ PUSH2 0x1491 JUMPI PUSH1 0x40 MLOAD PUSH32 0x8C379A000000000000000000000000000000000000000000000000000000000 DUP2 MSTORE PUSH1 0x4 ADD PUSH2 0x1488 SWAP1 PUSH2 0x22E1 JUMP JUMPDEST PUSH1 0x40 MLOAD DUP1 SWAP2 SUB SWAP1 REVERT JUMPDEST JUMP JUMPDEST PUSH1 0x0 PUSH1 0x5 PUSH1 0x0 SWAP1 SLOAD SWAP1 PUSH2 0x100 EXP SWAP1 DIV PUSH20 0xFFFFFFFFFFFFFFFFFFFFFFFFFFFFFFFFFFFFFFFF AND SWAP1 POP DUP2 PUSH1 0x5 PUSH1 0x0 PUSH2 0x100 EXP DUP2 SLOAD DUP2 PUSH20 0xFFFFFFFFFFFFFFFFFFFFFFFFFFFFFFFFFFFFFFFF MUL NOT AND SWAP1 DUP4 PUSH20 0xFFFFFFFFFFFFFFFFFFFFFFFFFFFFFFFFFFFFFFFF AND MUL OR SWAP1 SSTORE POP DUP2 PUSH20 0xFFFFFFFFFFFFFFFFFFFFFFFFFFFFFFFFFFFFFFFF AND DUP2 PUSH20 0xFFFFFFFFFFFFFFFFFFFFFFFFFFFFFFFFFFFFFFFF AND PUSH32 0x8BE0079C531659141344CD1FD0A4F28419497F9722A3DAAFE3B4186F6B6457E0 PUSH1 0x40 MLOAD PUSH1 0x40 MLOAD DUP1 SWAP2 SUB SWAP1 LOG3 POP POP JUMP JUMPDEST POP POP POP JUMP JUMPDEST POP POP POP JUMP JUMPDEST PUSH1 0x0 DUP2 MLOAD SWAP1 POP SWAP2 SWAP1 POP JUMP JUMPDEST PUSH1 0x0 DUP3 DUP3 MSTORE PUSH1 0x20 DUP3 ADD SWAP1 POP SWAP3 SWAP2 POP POP JUMP JUMPDEST PUSH1 0x0 JUMPDEST DUP4 DUP2 LT ISZERO PUSH2 0x159D JUMPI DUP1 DUP3 ADD MLOAD DUP2 DUP5 ADD MSTORE PUSH1 0x20 DUP2 ADD SWAP1 POP PUSH2 0x1582 JUMP JUMPDEST PUSH1 0x0 DUP5 DUP5 ADD MSTORE POP POP POP POP JUMP JUMPDEST PUSH1 0x0 PUSH1 0x1F NOT PUSH1 0x1F DUP4 ADD AND SWAP1 POP SWAP2 SWAP1 POP JUMP JUMPDEST PUSH1 0x0 PUSH2 0x15C5 DUP3 PUSH2 0x1563 JUMP JUMPDEST PUSH2 0x15CF DUP2 DUP6 PUSH2 0x156E JUMP JUMPDEST SWAP4 POP PUSH2 0x15DF DUP2 DUP6 PUSH1 0x20 DUP7 ADD PUSH2 0x157F JUMP JUMPDEST PUSH2 0x15E8 DUP2 PUSH2 0x15A9 JUMP JUMPDEST DUP5 ADD SWAP2 POP POP SWAP3 SWAP2 POP POP JUMP JUMPDEST PUSH1 0x0 PUSH1 0x20 DUP3 ADD SWAP1 POP DUP2 DUP2 SUB PUSH1 0x0 DUP4 ADD MSTORE PUSH2 0x160D DUP2 DUP5 PUSH2 0x15BA JUMP JUMPDEST SWAP1 POP SWAP3 SWAP2 POP POP JUMP JUMPDEST PUSH1 0x0 DUP1 REVERT JUMPDEST PUSH1 0x0 PUSH20 0xFFFFFFFFFFFFFFFFFFFFFFFFFFFFFFFFFFFFFFFF DUP3 AND SWAP1 POP SWAP2 SWAP1 POP JUMP JUMPDEST PUSH1 0x0 PUSH2 0x1645 DUP3 PUSH2 0x161A JUMP JUMPDEST SWAP1 POP SWAP2 SWAP1 POP JUMP JUMPDEST PUSH2 0x1655 DUP2 PUSH2 0x163A JUMP JUMPDEST DUP2 EQ PUSH2 0x1660 JUMPI PUSH1 0x0 DUP1 REVERT JUMPDEST POP JUMP JUMPDEST PUSH1 0x0 DUP2 CALLDATALOAD SWAP1 POP PUSH2 0x1672 DUP2 PUSH2 0x164C JUMP JUMPDEST SWAP3 SWAP2 POP POP JUMP JUMPDEST PUSH1 0x0 DUP2 SWAP1 POP SWAP2 SWAP1 POP JUMP JUMPDEST PUSH2 0x168B DUP2 PUSH2 0x1678 JUMP JUMPDEST DUP2 EQ PUSH2 0x1696 JUMPI PUSH1 0x0 DUP1 REVERT JUMPDEST POP JUMP JUMPDEST PUSH1 0x0 DUP2 CALLDATALOAD SWAP1 POP PUSH2 0x16A8 DUP2 PUSH2 0x1682 JUMP JUMPDEST SWAP3 SWAP2 POP POP JUMP JUMPDEST PUSH1 0x0 DUP1 PUSH1 0x40 DUP4 DUP6 SUB SLT ISZERO PUSH2 0x16C5 JUMPI PUSH2 0x16C4 PUSH2 0x1615 JUMP JUMPDEST JUMPDEST PUSH1 0x0 PUSH2 0x16D3 DUP6 DUP3 DUP7 ADD PUSH2 0x1663 JUMP JUMPDEST SWAP3 POP POP PUSH1 0x20 PUSH2 0x16E4 DUP6 DUP3 DUP7 ADD PUSH2 0x1699 JUMP JUMPDEST SWAP2 POP POP SWAP3 POP SWAP3 SWAP1 POP JUMP JUMPDEST PUSH1 0x0 DUP2 ISZERO ISZERO SWAP1 POP SWAP2 SWAP1 POP JUMP JUMPDEST PUSH2 0x1703 DUP2 PUSH2 0x16EE JUMP JUMPDEST DUP3 MSTORE POP POP JUMP JUMPDEST PUSH1 0x0 PUSH1 0x20 DUP3 ADD SWAP1 POP PUSH2 0x171E PUSH1 0x0 DUP4 ADD DUP5 PUSH2 0x16FA JUMP JUMPDEST SWAP3 SWAP2 POP POP JUMP JUMPDEST PUSH2 0x172D DUP2 PUSH2 0x1678 JUMP JUMPDEST DUP3 MSTORE POP POP JUMP JUMPDEST PUSH1 0x0 PUSH1 0x20 DUP3 ADD SWAP1 POP PUSH2 0x1748 PUSH1 0x0 DUP4 ADD DUP5 PUSH2 0x1724 JUMP JUMPDEST SWAP3 SWAP2 POP POP JUMP JUMPDEST PUSH1 0x0 DUP1 PUSH1 0x0 PUSH1 0x60 DUP5 DUP7 SUB SLT ISZERO PUSH2 0x1767 JUMPI PUSH2 0x1766 PUSH2 0x1615 JUMP JUMPDEST JUMPDEST PUSH1 0x0 PUSH2 0x1775 DUP7 DUP3 DUP8 ADD PUSH2 0x1663 JUMP JUMPDEST SWAP4 POP POP PUSH1 0x20 PUSH2 0x1786 DUP7 DUP3 DUP8 ADD PUSH2 0x1663 JUMP JUMPDEST SWAP3 POP POP PUSH1 0x40 PUSH2 0x1797 DUP7 DUP3 DUP8 ADD PUSH2 0x1699 JUMP JUMPDEST SWAP2 POP POP SWAP3 POP SWAP3 POP SWAP3 JUMP JUMPDEST PUSH1 0x0 PUSH1 0xFF DUP3 AND SWAP1 POP SWAP2 SWAP1 POP JUMP JUMPDEST PUSH2 0x17B7 DUP2 PUSH2 0x17A1 JUMP JUMPDEST DUP3 MSTORE POP POP JUMP JUMPDEST PUSH1 0x0 PUSH1 0x20 DUP3 ADD SWAP1 POP PUSH2 0x17D2 PUSH1 0x0 DUP4 ADD DUP5 PUSH2 0x17AE JUMP JUMPDEST SWAP3 SWAP2 POP POP JUMP JUMPDEST PUSH1 0x0 PUSH1 0x20 DUP3 DUP5 SUB SLT ISZERO PUSH2 0x17EE JUMPI PUSH2 0x17ED PUSH2 0x1615 JUMP JUMPDEST JUMPDEST PUSH1 0x0 PUSH2 0x17FC DUP5 DUP3 DUP6 ADD PUSH2 0x1699 JUMP JUMPDEST SWAP2 POP POP SWAP3 SWAP2 POP POP JUMP JUMPDEST PUSH1 0x0 PUSH1 0x20 DUP3 DUP5 SUB SLT ISZERO PUSH2 0x181B JUMPI PUSH2 0x181A PUSH2 0x1615 JUMP JUMPDEST JUMPDEST PUSH1 0x0 PUSH2 0x1829 DUP5 DUP3 DUP6 ADD PUSH2 0x1663 JUMP JUMPDEST SWAP2 POP POP SWAP3 SWAP2 POP POP JUMP JUMPDEST PUSH2 0x183B DUP2 PUSH2 0x163A JUMP JUMPDEST DUP3 MSTORE POP POP JUMP JUMPDEST PUSH1 0x0 PUSH1 0x20 DUP3 ADD SWAP1 POP PUSH2 0x1856 PUSH1 0x0 DUP4 ADD DUP5 PUSH2 0x1832 JUMP JUMPDEST SWAP3 SWAP2 POP POP JUMP JUMPDEST PUSH1 0x0 DUP1 PUSH1 0x40 DUP4 DUP6 SUB SLT ISZERO PUSH2 0x1873 JUMPI PUSH2 0x1872 PUSH2 0x1615 JUMP JUMPDEST JUMPDEST PUSH1 0x0 PUSH2 0x1881 DUP6 DUP3 DUP7 ADD PUSH2 0x1663 JUMP JUMPDEST SWAP3 POP POP PUSH1 0x20 PUSH2 0x1892 DUP6 DUP3 DUP7 ADD PUSH2 0x1663 JUMP JUMPDEST SWAP2 POP POP SWAP3 POP SWAP3 SWAP1 POP JUMP JUMPDEST PUSH32 0x4E487B7100000000000000000000000000000000000000000000000000000000 PUSH1 0x0 MSTORE PUSH1 0x22 PUSH1 0x4 MSTORE PUSH1 0x24 PUSH1 0x0 REVERT JUMPDEST PUSH1 0x0 PUSH1 0x2 DUP3 DIV SWAP1 POP PUSH1 0x1 DUP3 AND DUP1 PUSH2 0x18E3 JUMPI PUSH1 0x7F DUP3 AND SWAP2 POP JUMPDEST PUSH1 0x20 DUP3 LT DUP2 SUB PUSH2 0x18F6 JUMPI PUSH2 0x18F5 PUSH2 0x189C JUMP JUMPDEST JUMPDEST POP SWAP2 SWAP1 POP JUMP JUMPDEST PUSH32 0x4E487B7100000000000000000000000000000000000000000000000000000000 PUSH1 0x0 MSTORE PUSH1 0x11 PUSH1 0x4 MSTORE PUSH1 0x24 PUSH1 0x0 REVERT JUMPDEST PUSH1 0x0 PUSH2 0x1936 DUP3 PUSH2 0x1678 JUMP JUMPDEST SWAP2 POP PUSH2 0x1941 DUP4 PUSH2 0x1678 JUMP JUMPDEST SWAP3 POP DUP3 DUP3 MUL PUSH2 0x194F DUP2 PUSH2 0x1678 JUMP JUMPDEST SWAP2 POP DUP3 DUP3 DIV DUP5 EQ DUP4 ISZERO OR PUSH2 0x1966 JUMPI PUSH2 0x1965 PUSH2 0x18FC JUMP JUMPDEST JUMPDEST POP SWAP3 SWAP2 POP POP JUMP JUMPDEST PUSH32 0x496E73756666696369656E74206574686572732073656E740000000000000000 PUSH1 0x0 DUP3 ADD MSTORE POP JUMP JUMPDEST PUSH1 0x0 PUSH2 0x19A3 PUSH1 0x18 DUP4 PUSH2 0x156E JUMP JUMPDEST SWAP2 POP PUSH2 0x19AE DUP3 PUSH2 0x196D JUMP JUMPDEST PUSH1 0x20 DUP3 ADD SWAP1 POP SWAP2 SWAP1 POP JUMP JUMPDEST PUSH1 0x0 PUSH1 0x20 DUP3 ADD SWAP1 POP DUP2 DUP2 SUB PUSH1 0x0 DUP4 ADD MSTORE PUSH2 0x19D2 DUP2 PUSH2 0x1996 JUMP JUMPDEST SWAP1 POP SWAP2 SWAP1 POP JUMP JUMPDEST PUSH1 0x0 PUSH2 0x19E4 DUP3 PUSH2 0x1678 JUMP JUMPDEST SWAP2 POP PUSH2 0x19EF DUP4 PUSH2 0x1678 JUMP JUMPDEST SWAP3 POP DUP3 DUP3 ADD SWAP1 POP DUP1 DUP3 GT ISZERO PUSH2 0x1A07 JUMPI PUSH2 0x1A06 PUSH2 0x18FC JUMP JUMPDEST JUMPDEST SWAP3 SWAP2 POP POP JUMP JUMPDEST PUSH32 0x4F6E6C7920746865206F776E65722063616E2063616C6C20746869732066756E PUSH1 0x0 DUP3 ADD MSTORE PUSH32 0x6374696F6E000000000000000000000000000000000000000000000000000000 PUSH1 0x20 DUP3 ADD MSTORE POP JUMP JUMPDEST PUSH1 0x0 PUSH2 0x1A69 PUSH1 0x25 DUP4 PUSH2 0x156E JUMP JUMPDEST SWAP2 POP PUSH2 0x1A74 DUP3 PUSH2 0x1A0D JUMP JUMPDEST PUSH1 0x40 DUP3 ADD SWAP1 POP SWAP2 SWAP1 POP JUMP JUMPDEST PUSH1 0x0 PUSH1 0x20 DUP3 ADD SWAP1 POP DUP2 DUP2 SUB PUSH1 0x0 DUP4 ADD MSTORE PUSH2 0x1A98 DUP2 PUSH2 0x1A5C JUMP JUMPDEST SWAP1 POP SWAP2 SWAP1 POP JUMP JUMPDEST PUSH32 0x496E73756666696369656E7420746F6B656E7300000000000000000000000000 PUSH1 0x0 DUP3 ADD MSTORE POP JUMP JUMPDEST PUSH1 0x0 PUSH2 0x1AD5 PUSH1 0x13 DUP4 PUSH2 0x156E JUMP JUMPDEST SWAP2 POP PUSH2 0x1AE0 DUP3 PUSH2 0x1A9F JUMP JUMPDEST PUSH1 0x20 DUP3 ADD SWAP1 POP SWAP2 SWAP1 POP JUMP JUMPDEST PUSH1 0x0 PUSH1 0x20 DUP3 ADD SWAP1 POP DUP2 DUP2 SUB PUSH1 0x0 DUP4 ADD MSTORE PUSH2 0x1B04 DUP2 PUSH2 0x1AC8 JUMP JUMPDEST SWAP1 POP SWAP2 SWAP1 POP JUMP JUMPDEST PUSH32 0x4E6F7420656E6F75676820746F6B656E7320696E206F776E657227732062616C PUSH1 0x0 DUP3 ADD MSTORE PUSH32 0x616E636500000000000000000000000000000000000000000000000000000000 PUSH1 0x20 DUP3 ADD MSTORE POP JUMP JUMPDEST PUSH1 0x0 PUSH2 0x1B67 PUSH1 0x24 DUP4 PUSH2 0x156E JUMP JUMPDEST SWAP2 POP PUSH2 0x1B72 DUP3 PUSH2 0x1B0B JUMP JUMPDEST PUSH1 0x40 DUP3 ADD SWAP1 POP SWAP2 SWAP1 POP JUMP JUMPDEST PUSH1 0x0 PUSH1 0x20 DUP3 ADD SWAP1 POP DUP2 DUP2 SUB PUSH1 0x0 DUP4 ADD MSTORE PUSH2 0x1B96 DUP2 PUSH2 0x1B5A JUMP JUMPDEST SWAP1 POP SWAP2 SWAP1 POP JUMP JUMPDEST PUSH32 0x436F6E747261637420646F6573206E6F74206861766520656E6F756768206574 PUSH1 0x0 DUP3 ADD MSTORE PUSH32 0x6865727320746F20726566756E64000000000000000000000000000000000000 PUSH1 0x20 DUP3 ADD MSTORE POP JUMP JUMPDEST PUSH1 0x0 PUSH2 0x1BF9 PUSH1 0x2E DUP4 PUSH2 0x156E JUMP JUMPDEST SWAP2 POP PUSH2 0x1C04 DUP3 PUSH2 0x1B9D JUMP JUMPDEST PUSH1 0x40 DUP3 ADD SWAP1 POP SWAP2 SWAP1 POP JUMP JUMPDEST PUSH1 0x0 PUSH1 0x20 DUP3 ADD SWAP1 POP DUP2 DUP2 SUB PUSH1 0x0 DUP4 ADD MSTORE PUSH2 0x1C28 DUP2 PUSH2 0x1BEC JUMP JUMPDEST SWAP1 POP SWAP2 SWAP1 POP JUMP JUMPDEST PUSH32 0x4E6F20756E736F6C6420746F6B656E7300000000000000000000000000000000 PUSH1 0x0 DUP3 ADD MSTORE POP JUMP JUMPDEST PUSH1 0x0 PUSH2 0x1C65 PUSH1 0x10 DUP4 PUSH2 0x156E JUMP JUMPDEST SWAP2 POP PUSH2 0x1C70 DUP3 PUSH2 0x1C2F JUMP JUMPDEST PUSH1 0x20 DUP3 ADD SWAP1 POP SWAP2 SWAP1 POP JUMP JUMPDEST PUSH1 0x0 PUSH1 0x20 DUP3 ADD SWAP1 POP DUP2 DUP2 SUB PUSH1 0x0 DUP4 ADD MSTORE PUSH2 0x1C94 DUP2 PUSH2 0x1C58 JUMP JUMPDEST SWAP1 POP SWAP2 SWAP1 POP JUMP JUMPDEST PUSH32 0x45524332303A2064656372656173656420616C6C6F77616E63652062656C6F77 PUSH1 0x0 DUP3 ADD MSTORE PUSH32 0x207A65726F000000000000000000000000000000000000000000000000000000 PUSH1 0x20 DUP3 ADD MSTORE POP JUMP JUMPDEST PUSH1 0x0 PUSH2 0x1CF7 PUSH1 0x25 DUP4 PUSH2 0x156E JUMP JUMPDEST SWAP2 POP PUSH2 0x1D02 DUP3 PUSH2 0x1C9B JUMP JUMPDEST PUSH1 0x40 DUP3 ADD SWAP1 POP SWAP2 SWAP1 POP JUMP JUMPDEST PUSH1 0x0 PUSH1 0x20 DUP3 ADD SWAP1 POP DUP2 DUP2 SUB PUSH1 0x0 DUP4 ADD MSTORE PUSH2 0x1D26 DUP2 PUSH2 0x1CEA JUMP JUMPDEST SWAP1 POP SWAP2 SWAP1 POP JUMP JUMPDEST PUSH32 0x4F776E61626C653A206E6577206F776E657220697320746865207A65726F2061 PUSH1 0x0 DUP3 ADD MSTORE PUSH32 0x6464726573730000000000000000000000000000000000000000000000000000 PUSH1 0x20 DUP3 ADD MSTORE POP JUMP JUMPDEST PUSH1 0x0 PUSH2 0x1D89 PUSH1 0x26 DUP4 PUSH2 0x156E JUMP JUMPDEST SWAP2 POP PUSH2 0x1D94 DUP3 PUSH2 0x1D2D JUMP JUMPDEST PUSH1 0x40 DUP3 ADD SWAP1 POP SWAP2 SWAP1 POP JUMP JUMPDEST PUSH1 0x0 PUSH1 0x20 DUP3 ADD SWAP1 POP DUP2 DUP2 SUB PUSH1 0x0 DUP4 ADD MSTORE PUSH2 0x1DB8 DUP2 PUSH2 0x1D7C JUMP JUMPDEST SWAP1 POP SWAP2 SWAP1 POP JUMP JUMPDEST PUSH32 0x45524332303A20617070726F76652066726F6D20746865207A65726F20616464 PUSH1 0x0 DUP3 ADD MSTORE PUSH32 0x7265737300000000000000000000000000000000000000000000000000000000 PUSH1 0x20 DUP3 ADD MSTORE POP JUMP JUMPDEST PUSH1 0x0 PUSH2 0x1E1B PUSH1 0x24 DUP4 PUSH2 0x156E JUMP JUMPDEST SWAP2 POP PUSH2 0x1E26 DUP3 PUSH2 0x1DBF JUMP JUMPDEST PUSH1 0x40 DUP3 ADD SWAP1 POP SWAP2 SWAP1 POP JUMP JUMPDEST PUSH1 0x0 PUSH1 0x20 DUP3 ADD SWAP1 POP DUP2 DUP2 SUB PUSH1 0x0 DUP4 ADD MSTORE PUSH2 0x1E4A DUP2 PUSH2 0x1E0E JUMP JUMPDEST SWAP1 POP SWAP2 SWAP1 POP JUMP JUMPDEST PUSH32 0x45524332303A20617070726F766520746F20746865207A65726F206164647265 PUSH1 0x0 DUP3 ADD MSTORE PUSH32 0x7373000000000000000000000000000000000000000000000000000000000000 PUSH1 0x20 DUP3 ADD MSTORE POP JUMP JUMPDEST PUSH1 0x0 PUSH2 0x1EAD PUSH1 0x22 DUP4 PUSH2 0x156E JUMP JUMPDEST SWAP2 POP PUSH2 0x1EB8 DUP3 PUSH2 0x1E51 JUMP JUMPDEST PUSH1 0x40 DUP3 ADD SWAP1 POP SWAP2 SWAP1 POP JUMP JUMPDEST PUSH1 0x0 PUSH1 0x20 DUP3 ADD SWAP1 POP DUP2 DUP2 SUB PUSH1 0x0 DUP4 ADD MSTORE PUSH2 0x1EDC DUP2 PUSH2 0x1EA0 JUMP JUMPDEST SWAP1 POP SWAP2 SWAP1 POP JUMP JUMPDEST PUSH32 0x45524332303A20696E73756666696369656E7420616C6C6F77616E6365000000 PUSH1 0x0 DUP3 ADD MSTORE POP JUMP JUMPDEST PUSH1 0x0 PUSH2 0x1F19 PUSH1 0x1D DUP4 PUSH2 0x156E JUMP JUMPDEST SWAP2 POP PUSH2 0x1F24 DUP3 PUSH2 0x1EE3 JUMP JUMPDEST PUSH1 0x20 DUP3 ADD SWAP1 POP SWAP2 SWAP1 POP JUMP JUMPDEST PUSH1 0x0 PUSH1 0x20 DUP3 ADD SWAP1 POP DUP2 DUP2 SUB PUSH1 0x0 DUP4 ADD MSTORE PUSH2 0x1F48 DUP2 PUSH2 0x1F0C JUMP JUMPDEST SWAP1 POP SWAP2 SWAP1 POP JUMP JUMPDEST PUSH32 0x45524332303A207472616E736665722066726F6D20746865207A65726F206164 PUSH1 0x0 DUP3 ADD MSTORE PUSH32 0x6472657373000000000000000000000000000000000000000000000000000000 PUSH1 0x20 DUP3 ADD MSTORE POP JUMP JUMPDEST PUSH1 0x0 PUSH2 0x1FAB PUSH1 0x25 DUP4 PUSH2 0x156E JUMP JUMPDEST SWAP2 POP PUSH2 0x1FB6 DUP3 PUSH2 0x1F4F JUMP JUMPDEST PUSH1 0x40 DUP3 ADD SWAP1 POP SWAP2 SWAP1 POP JUMP JUMPDEST PUSH1 0x0 PUSH1 0x20 DUP3 ADD SWAP1 POP DUP2 DUP2 SUB PUSH1 0x0 DUP4 ADD MSTORE PUSH2 0x1FDA DUP2 PUSH2 0x1F9E JUMP JUMPDEST SWAP1 POP SWAP2 SWAP1 POP JUMP JUMPDEST PUSH32 0x45524332303A207472616E7366657220746F20746865207A65726F2061646472 PUSH1 0x0 DUP3 ADD MSTORE PUSH32 0x6573730000000000000000000000000000000000000000000000000000000000 PUSH1 0x20 DUP3 ADD MSTORE POP JUMP JUMPDEST PUSH1 0x0 PUSH2 0x203D PUSH1 0x23 DUP4 PUSH2 0x156E JUMP JUMPDEST SWAP2 POP PUSH2 0x2048 DUP3 PUSH2 0x1FE1 JUMP JUMPDEST PUSH1 0x40 DUP3 ADD SWAP1 POP SWAP2 SWAP1 POP JUMP JUMPDEST PUSH1 0x0 PUSH1 0x20 DUP3 ADD SWAP1 POP DUP2 DUP2 SUB PUSH1 0x0 DUP4 ADD MSTORE PUSH2 0x206C DUP2 PUSH2 0x2030 JUMP JUMPDEST SWAP1 POP SWAP2 SWAP1 POP JUMP JUMPDEST PUSH32 0x45524332303A207472616E7366657220616D6F756E7420657863656564732062 PUSH1 0x0 DUP3 ADD MSTORE PUSH32 0x616C616E63650000000000000000000000000000000000000000000000000000 PUSH1 0x20 DUP3 ADD MSTORE POP JUMP JUMPDEST PUSH1 0x0 PUSH2 0x20CF PUSH1 0x26 DUP4 PUSH2 0x156E JUMP JUMPDEST SWAP2 POP PUSH2 0x20DA DUP3 PUSH2 0x2073 JUMP JUMPDEST PUSH1 0x40 DUP3 ADD SWAP1 POP SWAP2 SWAP1 POP JUMP JUMPDEST PUSH1 0x0 PUSH1 0x20 DUP3 ADD SWAP1 POP DUP2 DUP2 SUB PUSH1 0x0 DUP4 ADD MSTORE PUSH2 0x20FE DUP2 PUSH2 0x20C2 JUMP JUMPDEST SWAP1 POP SWAP2 SWAP1 POP JUMP JUMPDEST PUSH32 0x45524332303A206D696E7420746F20746865207A65726F206164647265737300 PUSH1 0x0 DUP3 ADD MSTORE POP JUMP JUMPDEST PUSH1 0x0 PUSH2 0x213B PUSH1 0x1F DUP4 PUSH2 0x156E JUMP JUMPDEST SWAP2 POP PUSH2 0x2146 DUP3 PUSH2 0x2105 JUMP JUMPDEST PUSH1 0x20 DUP3 ADD SWAP1 POP SWAP2 SWAP1 POP JUMP JUMPDEST PUSH1 0x0 PUSH1 0x20 DUP3 ADD SWAP1 POP DUP2 DUP2 SUB PUSH1 0x0 DUP4 ADD MSTORE PUSH2 0x216A DUP2 PUSH2 0x212E JUMP JUMPDEST SWAP1 POP SWAP2 SWAP1 POP JUMP JUMPDEST PUSH32 0x45524332303A206275726E2066726F6D20746865207A65726F20616464726573 PUSH1 0x0 DUP3 ADD MSTORE PUSH32 0x7300000000000000000000000000000000000000000000000000000000000000 PUSH1 0x20 DUP3 ADD MSTORE POP JUMP JUMPDEST PUSH1 0x0 PUSH2 0x21CD PUSH1 0x21 DUP4 PUSH2 0x156E JUMP JUMPDEST SWAP2 POP PUSH2 0x21D8 DUP3 PUSH2 0x2171 JUMP JUMPDEST PUSH1 0x40 DUP3 ADD SWAP1 POP SWAP2 SWAP1 POP JUMP JUMPDEST PUSH1 0x0 PUSH1 0x20 DUP3 ADD SWAP1 POP DUP2 DUP2 SUB PUSH1 0x0 DUP4 ADD MSTORE PUSH2 0x21FC DUP2 PUSH2 0x21C0 JUMP JUMPDEST SWAP1 POP SWAP2 SWAP1 POP JUMP JUMPDEST PUSH32 0x45524332303A206275726E20616D6F756E7420657863656564732062616C616E PUSH1 0x0 DUP3 ADD MSTORE PUSH32 0x6365000000000000000000000000000000000000000000000000000000000000 PUSH1 0x20 DUP3 ADD MSTORE POP JUMP JUMPDEST PUSH1 0x0 PUSH2 0x225F PUSH1 0x22 DUP4 PUSH2 0x156E JUMP JUMPDEST SWAP2 POP PUSH2 0x226A DUP3 PUSH2 0x2203 JUMP JUMPDEST PUSH1 0x40 DUP3 ADD SWAP1 POP SWAP2 SWAP1 POP JUMP JUMPDEST PUSH1 0x0 PUSH1 0x20 DUP3 ADD SWAP1 POP DUP2 DUP2 SUB PUSH1 0x0 DUP4 ADD MSTORE PUSH2 0x228E DUP2 PUSH2 0x2252 JUMP JUMPDEST SWAP1 POP SWAP2 SWAP1 POP JUMP JUMPDEST PUSH32 0x4F776E61626C653A2063616C6C6572206973206E6F7420746865206F776E6572 PUSH1 0x0 DUP3 ADD MSTORE POP JUMP JUMPDEST PUSH1 0x0 PUSH2 0x22CB PUSH1 0x20 DUP4 PUSH2 0x156E JUMP JUMPDEST SWAP2 POP PUSH2 0x22D6 DUP3 PUSH2 0x2295 JUMP JUMPDEST PUSH1 0x20 DUP3 ADD SWAP1 POP SWAP2 SWAP1 POP JUMP JUMPDEST PUSH1 0x0 PUSH1 0x20 DUP3 ADD SWAP1 POP DUP2 DUP2 SUB PUSH1 0x0 DUP4 ADD MSTORE PUSH2 0x22FA DUP2 PUSH2 0x22BE JUMP JUMPDEST SWAP1 POP SWAP2 SWAP1 POP JUMP INVALID LOG2 PUSH5 0x6970667358 0x22 SLT KECCAK256 0xC9 0xB5 0xD DUP4 PUSH15 0x773ABFA6DD0F0338DE543940EF1760 NUMBER SWAP12 DIV CREATE JUMPDEST PUSH16 0x950ED7021CD64736F6C634300081200 CALLER "
				},
				"gasEstimates": {
					"creation": {
						"codeDepositCost": "1803000",
						"executionCost": "infinite",
						"totalCost": "infinite"
					},
					"external": {
						"allowance(address,address)": "infinite",
						"approve(address,uint256)": "infinite",
						"balanceOf(address)": "2864",
						"burn(uint256)": "infinite",
						"burnFrom(address,uint256)": "infinite",
						"burnUnsoldTokens()": "38375",
						"buyTokens(uint256)": "infinite",
						"decimals()": "455",
						"decreaseAllowance(address,uint256)": "infinite",
						"increaseAllowance(address,uint256)": "infinite",
						"name()": "infinite",
						"owner()": "2633",
						"renounceOwnership()": "30443",
						"sellTokens(uint256)": "infinite",
						"setTokenPrice(uint256)": "24895",
						"symbol()": "infinite",
						"tokenPrice()": "2518",
						"totalSupply()": "2505",
						"transfer(address,uint256)": "infinite",
						"transferBalanceToOwner()": "infinite",
						"transferFrom(address,address,uint256)": "infinite",
						"transferOwnership(address)": "30876"
					}
				},
				"methodIdentifiers": {
					"allowance(address,address)": "dd62ed3e",
					"approve(address,uint256)": "095ea7b3",
					"balanceOf(address)": "70a08231",
					"burn(uint256)": "42966c68",
					"burnFrom(address,uint256)": "79cc6790",
					"burnUnsoldTokens()": "940bb344",
					"buyTokens(uint256)": "3610724e",
					"decimals()": "313ce567",
					"decreaseAllowance(address,uint256)": "a457c2d7",
					"increaseAllowance(address,uint256)": "39509351",
					"name()": "06fdde03",
					"owner()": "8da5cb5b",
					"renounceOwnership()": "715018a6",
					"sellTokens(uint256)": "6c11bcd3",
					"setTokenPrice(uint256)": "6a61e5fc",
					"symbol()": "95d89b41",
					"tokenPrice()": "7ff9b596",
					"totalSupply()": "18160ddd",
					"transfer(address,uint256)": "a9059cbb",
					"transferBalanceToOwner()": "47f07a8e",
					"transferFrom(address,address,uint256)": "23b872dd",
					"transferOwnership(address)": "f2fde38b"
				}
			},
			"storageLayout": {
				"storage": [
					{
						"astId": 128,
						"contract": "FungibleToken.sol:MyToken",
						"label": "_balances",
						"offset": 0,
						"slot": "0",
						"type": "t_mapping(t_address,t_uint256)"
					},
					{
						"astId": 134,
						"contract": "FungibleToken.sol:MyToken",
						"label": "_allowances",
						"offset": 0,
						"slot": "1",
						"type": "t_mapping(t_address,t_mapping(t_address,t_uint256))"
					},
					{
						"astId": 136,
						"contract": "FungibleToken.sol:MyToken",
						"label": "_totalSupply",
						"offset": 0,
						"slot": "2",
						"type": "t_uint256"
					},
					{
						"astId": 138,
						"contract": "FungibleToken.sol:MyToken",
						"label": "_name",
						"offset": 0,
						"slot": "3",
						"type": "t_string_storage"
					},
					{
						"astId": 140,
						"contract": "FungibleToken.sol:MyToken",
						"label": "_symbol",
						"offset": 0,
						"slot": "4",
						"type": "t_string_storage"
					},
					{
						"astId": 7,
						"contract": "FungibleToken.sol:MyToken",
						"label": "_owner",
						"offset": 0,
						"slot": "5",
						"type": "t_address"
					},
					{
						"astId": 881,
						"contract": "FungibleToken.sol:MyToken",
						"label": "tokenPrice",
						"offset": 0,
						"slot": "6",
						"type": "t_uint256"
					}
				],
				"types": {
					"t_address": {
						"encoding": "inplace",
						"label": "address",
						"numberOfBytes": "20"
					},
					"t_mapping(t_address,t_mapping(t_address,t_uint256))": {
						"encoding": "mapping",
						"key": "t_address",
						"label": "mapping(address => mapping(address => uint256))",
						"numberOfBytes": "32",
						"value": "t_mapping(t_address,t_uint256)"
					},
					"t_mapping(t_address,t_uint256)": {
						"encoding": "mapping",
						"key": "t_address",
						"label": "mapping(address => uint256)",
						"numberOfBytes": "32",
						"value": "t_uint256"
					},
					"t_string_storage": {
						"encoding": "bytes",
						"label": "string",
						"numberOfBytes": "32"
					},
					"t_uint256": {
						"encoding": "inplace",
						"label": "uint256",
						"numberOfBytes": "32"
					}
				}
			},
			"userdoc": {
				"kind": "user",
				"methods": {},
				"version": 1
			}
		}
	}
}