{
	"staking1_test.sol": {
		"MyToken": {
			"abi": [
				{
					"inputs": [],
					"stateMutability": "nonpayable",
					"type": "constructor"
				},
				{
					"anonymous": false,
					"inputs": [
						{
							"indexed": true,
							"internalType": "address",
							"name": "owner",
							"type": "address"
						},
						{
							"indexed": true,
							"internalType": "address",
							"name": "spender",
							"type": "address"
						},
						{
							"indexed": false,
							"internalType": "uint256",
							"name": "value",
							"type": "uint256"
						}
					],
					"name": "Approval",
					"type": "event"
				},
				{
					"anonymous": false,
					"inputs": [
						{
							"indexed": true,
							"internalType": "address",
							"name": "previousOwner",
							"type": "address"
						},
						{
							"indexed": true,
							"internalType": "address",
							"name": "newOwner",
							"type": "address"
						}
					],
					"name": "OwnershipTransferred",
					"type": "event"
				},
				{
					"anonymous": false,
					"inputs": [
						{
							"indexed": true,
							"internalType": "address",
							"name": "from",
							"type": "address"
						},
						{
							"indexed": true,
							"internalType": "address",
							"name": "to",
							"type": "address"
						},
						{
							"indexed": false,
							"internalType": "uint256",
							"name": "value",
							"type": "uint256"
						}
					],
					"name": "Transfer",
					"type": "event"
				},
				{
					"inputs": [
						{
							"internalType": "address",
							"name": "owner",
							"type": "address"
						},
						{
							"internalType": "address",
							"name": "spender",
							"type": "address"
						}
					],
					"name": "allowance",
					"outputs": [
						{
							"internalType": "uint256",
							"name": "",
							"type": "uint256"
						}
					],
					"stateMutability": "view",
					"type": "function"
				},
				{
					"inputs": [
						{
							"internalType": "address",
							"name": "spender",
							"type": "address"
						},
						{
							"internalType": "uint256",
							"name": "amount",
							"type": "uint256"
						}
					],
					"name": "approve",
					"outputs": [
						{
							"internalType": "bool",
							"name": "",
							"type": "bool"
						}
					],
					"stateMutability": "nonpayable",
					"type": "function"
				},
				{
					"inputs": [
						{
							"internalType": "address",
							"name": "account",
							"type": "address"
						}
					],
					"name": "balanceOf",
					"outputs": [
						{
							"internalType": "uint256",
							"name": "",
							"type": "uint256"
						}
					],
					"stateMutability": "view",
					"type": "function"
				},
				{
					"inputs": [
						{
							"internalType": "uint256",
							"name": "amount",
							"type": "uint256"
						}
					],
					"name": "burn",
					"outputs": [],
					"stateMutability": "nonpayable",
					"type": "function"
				},
				{
					"inputs": [
						{
							"internalType": "address",
							"name": "account",
							"type": "address"
						},
						{
							"internalType": "uint256",
							"name": "amount",
							"type": "uint256"
						}
					],
					"name": "burnFrom",
					"outputs": [],
					"stateMutability": "nonpayable",
					"type": "function"
				},
				{
					"inputs": [
						{
							"internalType": "uint256",
							"name": "_numTokens",
							"type": "uint256"
						}
					],
					"name": "buyTokens",
					"outputs": [],
					"stateMutability": "payable",
					"type": "function"
				},
				{
					"inputs": [],
					"name": "claimRewards",
					"outputs": [],
					"stateMutability": "nonpayable",
					"type": "function"
				},
				{
					"inputs": [],
					"name": "decimals",
					"outputs": [
						{
							"internalType": "uint8",
							"name": "",
							"type": "uint8"
						}
					],
					"stateMutability": "view",
					"type": "function"
				},
				{
					"inputs": [
						{
							"internalType": "address",
							"name": "spender",
							"type": "address"
						},
						{
							"internalType": "uint256",
							"name": "subtractedValue",
							"type": "uint256"
						}
					],
					"name": "decreaseAllowance",
					"outputs": [
						{
							"internalType": "bool",
							"name": "",
							"type": "bool"
						}
					],
					"stateMutability": "nonpayable",
					"type": "function"
				},
				{
					"inputs": [
						{
							"internalType": "address",
							"name": "spender",
							"type": "address"
						},
						{
							"internalType": "uint256",
							"name": "addedValue",
							"type": "uint256"
						}
					],
					"name": "increaseAllowance",
					"outputs": [
						{
							"internalType": "bool",
							"name": "",
							"type": "bool"
						}
					],
					"stateMutability": "nonpayable",
					"type": "function"
				},
				{
					"inputs": [],
					"name": "interest",
					"outputs": [
						{
							"internalType": "uint256",
							"name": "",
							"type": "uint256"
						}
					],
					"stateMutability": "view",
					"type": "function"
				},
				{
					"inputs": [],
					"name": "name",
					"outputs": [
						{
							"internalType": "string",
							"name": "",
							"type": "string"
						}
					],
					"stateMutability": "view",
					"type": "function"
				},
				{
					"inputs": [],
					"name": "owner",
					"outputs": [
						{
							"internalType": "address",
							"name": "",
							"type": "address"
						}
					],
					"stateMutability": "view",
					"type": "function"
				},
				{
					"inputs": [],
					"name": "renounceOwnership",
					"outputs": [],
					"stateMutability": "nonpayable",
					"type": "function"
				},
				{
					"inputs": [
						{
							"internalType": "uint256",
							"name": "_numTokens",
							"type": "uint256"
						}
					],
					"name": "sellTokens",
					"outputs": [],
					"stateMutability": "nonpayable",
					"type": "function"
				},
				{
					"inputs": [
						{
							"internalType": "uint256",
							"name": "_newPrice",
							"type": "uint256"
						}
					],
					"name": "setTokenPrice",
					"outputs": [],
					"stateMutability": "nonpayable",
					"type": "function"
				},
				{
					"inputs": [
						{
							"internalType": "uint256",
							"name": "_numTokens",
							"type": "uint256"
						}
					],
					"name": "stake",
					"outputs": [],
					"stateMutability": "nonpayable",
					"type": "function"
				},
				{
					"inputs": [
						{
							"internalType": "address",
							"name": "",
							"type": "address"
						}
					],
					"name": "stakingInfo",
					"outputs": [
						{
							"internalType": "uint256",
							"name": "stakedAmount",
							"type": "uint256"
						},
						{
							"internalType": "uint256",
							"name": "lastStakedTime",
							"type": "uint256"
						},
						{
							"internalType": "uint256",
							"name": "rewards",
							"type": "uint256"
						}
					],
					"stateMutability": "view",
					"type": "function"
				},
				{
					"inputs": [],
					"name": "symbol",
					"outputs": [
						{
							"internalType": "string",
							"name": "",
							"type": "string"
						}
					],
					"stateMutability": "view",
					"type": "function"
				},
				{
					"inputs": [],
					"name": "tokenPrice",
					"outputs": [
						{
							"internalType": "uint256",
							"name": "",
							"type": "uint256"
						}
					],
					"stateMutability": "view",
					"type": "function"
				},
				{
					"inputs": [],
					"name": "totalSupply",
					"outputs": [
						{
							"internalType": "uint256",
							"name": "",
							"type": "uint256"
						}
					],
					"stateMutability": "view",
					"type": "function"
				},
				{
					"inputs": [
						{
							"internalType": "address",
							"name": "to",
							"type": "address"
						},
						{
							"internalType": "uint256",
							"name": "amount",
							"type": "uint256"
						}
					],
					"name": "transfer",
					"outputs": [
						{
							"internalType": "bool",
							"name": "",
							"type": "bool"
						}
					],
					"stateMutability": "nonpayable",
					"type": "function"
				},
				{
					"inputs": [],
					"name": "transferBalanceToOwner",
					"outputs": [],
					"stateMutability": "nonpayable",
					"type": "function"
				},
				{
					"inputs": [
						{
							"internalType": "address",
							"name": "from",
							"type": "address"
						},
						{
							"internalType": "address",
							"name": "to",
							"type": "address"
						},
						{
							"internalType": "uint256",
							"name": "amount",
							"type": "uint256"
						}
					],
					"name": "transferFrom",
					"outputs": [
						{
							"internalType": "bool",
							"name": "",
							"type": "bool"
						}
					],
					"stateMutability": "nonpayable",
					"type": "function"
				},
				{
					"inputs": [
						{
							"internalType": "address",
							"name": "newOwner",
							"type": "address"
						}
					],
					"name": "transferOwnership",
					"outputs": [],
					"stateMutability": "nonpayable",
					"type": "function"
				},
				{
					"inputs": [
						{
							"internalType": "uint256",
							"name": "_numTokens",
							"type": "uint256"
						}
					],
					"name": "unstake",
					"outputs": [],
					"stateMutability": "nonpayable",
					"type": "function"
				}
			],
			"devdoc": {
				"events": {
					"Approval(address,address,uint256)": {
						"details": "Emitted when the allowance of a `spender` for an `owner` is set by a call to {approve}. `value` is the new allowance."
					},
					"Transfer(address,address,uint256)": {
						"details": "Emitted when `value` tokens are moved from one account (`from`) to another (`to`). Note that `value` may be zero."
					}
				},
				"kind": "dev",
				"methods": {
					"allowance(address,address)": {
						"details": "See {IERC20-allowance}."
					},
					"approve(address,uint256)": {
						"details": "See {IERC20-approve}. NOTE: If `amount` is the maximum `uint256`, the allowance is not updated on `transferFrom`. This is semantically equivalent to an infinite approval. Requirements: - `spender` cannot be the zero address."
					},
					"balanceOf(address)": {
						"details": "See {IERC20-balanceOf}."
					},
					"burn(uint256)": {
						"details": "Destroys `amount` tokens from the caller. See {ERC20-_burn}."
					},
					"burnFrom(address,uint256)": {
						"details": "Destroys `amount` tokens from `account`, deducting from the caller's allowance. See {ERC20-_burn} and {ERC20-allowance}. Requirements: - the caller must have allowance for ``accounts``'s tokens of at least `amount`."
					},
					"decimals()": {
						"details": "Returns the number of decimals used to get its user representation. For example, if `decimals` equals `2`, a balance of `505` tokens should be displayed to a user as `5.05` (`505 / 10 ** 2`). Tokens usually opt for a value of 18, imitating the relationship between Ether and Wei. This is the default value returned by this function, unless it's overridden. NOTE: This information is only used for _display_ purposes: it in no way affects any of the arithmetic of the contract, including {IERC20-balanceOf} and {IERC20-transfer}."
					},
					"decreaseAllowance(address,uint256)": {
						"details": "Atomically decreases the allowance granted to `spender` by the caller. This is an alternative to {approve} that can be used as a mitigation for problems described in {IERC20-approve}. Emits an {Approval} event indicating the updated allowance. Requirements: - `spender` cannot be the zero address. - `spender` must have allowance for the caller of at least `subtractedValue`."
					},
					"increaseAllowance(address,uint256)": {
						"details": "Atomically increases the allowance granted to `spender` by the caller. This is an alternative to {approve} that can be used as a mitigation for problems described in {IERC20-approve}. Emits an {Approval} event indicating the updated allowance. Requirements: - `spender` cannot be the zero address."
					},
					"name()": {
						"details": "Returns the name of the token."
					},
					"owner()": {
						"details": "Returns the address of the current owner."
					},
					"renounceOwnership()": {
						"details": "Leaves the contract without owner. It will not be possible to call `onlyOwner` functions. Can only be called by the current owner. NOTE: Renouncing ownership will leave the contract without an owner, thereby disabling any functionality that is only available to the owner."
					},
					"symbol()": {
						"details": "Returns the symbol of the token, usually a shorter version of the name."
					},
					"totalSupply()": {
						"details": "See {IERC20-totalSupply}."
					},
					"transfer(address,uint256)": {
						"details": "See {IERC20-transfer}. Requirements: - `to` cannot be the zero address. - the caller must have a balance of at least `amount`."
					},
					"transferFrom(address,address,uint256)": {
						"details": "See {IERC20-transferFrom}. Emits an {Approval} event indicating the updated allowance. This is not required by the EIP. See the note at the beginning of {ERC20}. NOTE: Does not update the allowance if the current allowance is the maximum `uint256`. Requirements: - `from` and `to` cannot be the zero address. - `from` must have a balance of at least `amount`. - the caller must have allowance for ``from``'s tokens of at least `amount`."
					},
					"transferOwnership(address)": {
						"details": "Transfers ownership of the contract to a new account (`newOwner`). Can only be called by the current owner."
					}
				},
				"version": 1
			},
			"evm": {
				"assembly": "    /* \"staking1_test.sol\":247:4313  contract MyToken is ERC20, ERC20Burnable, Ownable { ... */\n  mstore(0x40, 0x80)\n    /* \"staking1_test.sol\":362:365  100 */\n  0x64\n    /* \"staking1_test.sol\":336:365  uint256 public interest = 100 */\n  0x07\n  sstore\n    /* \"staking1_test.sol\":629:706  constructor() ERC20(\"MyToken\", \"MTK\") { ... */\n  callvalue\n  dup1\n  iszero\n  tag_1\n  jumpi\n  0x00\n  dup1\n  revert\ntag_1:\n  pop\n    /* \"@openzeppelin/contracts/token/ERC20/ERC20.sol\":1980:2093  constructor(string memory name_, string memory symbol_) {... */\n  mload(0x40)\n  dup1\n  0x40\n  add\n  0x40\n  mstore\n  dup1\n  0x07\n  dup2\n  mstore\n  0x20\n  add\n  0x4d79546f6b656e00000000000000000000000000000000000000000000000000\n  dup2\n  mstore\n  pop\n  mload(0x40)\n  dup1\n  0x40\n  add\n  0x40\n  mstore\n  dup1\n  0x03\n  dup2\n  mstore\n  0x20\n  add\n  0x4d544b0000000000000000000000000000000000000000000000000000000000\n  dup2\n  mstore\n  pop\n    /* \"@openzeppelin/contracts/token/ERC20/ERC20.sol\":2054:2059  name_ */\n  dup2\n    /* \"@openzeppelin/contracts/token/ERC20/ERC20.sol\":2046:2051  _name */\n  0x03\n    /* \"@openzeppelin/contracts/token/ERC20/ERC20.sol\":2046:2059  _name = name_ */\n  swap1\n  dup2\n  tag_6\n  swap2\n  swap1\n  tag_7\n  jump\t// in\ntag_6:\n  pop\n    /* \"@openzeppelin/contracts/token/ERC20/ERC20.sol\":2079:2086  symbol_ */\n  dup1\n    /* \"@openzeppelin/contracts/token/ERC20/ERC20.sol\":2069:2076  _symbol */\n  0x04\n    /* \"@openzeppelin/contracts/token/ERC20/ERC20.sol\":2069:2086  _symbol = symbol_ */\n  swap1\n  dup2\n  tag_8\n  swap2\n  swap1\n  tag_7\n  jump\t// in\ntag_8:\n  pop\n    /* \"@openzeppelin/contracts/token/ERC20/ERC20.sol\":1980:2093  constructor(string memory name_, string memory symbol_) {... */\n  pop\n  pop\n    /* \"@openzeppelin/contracts/access/Ownable.sol\":936:968  _transferOwnership(_msgSender()) */\n  tag_10\n    /* \"@openzeppelin/contracts/access/Ownable.sol\":955:967  _msgSender() */\n  tag_11\n    /* \"@openzeppelin/contracts/access/Ownable.sol\":955:965  _msgSender */\n  shl(0x20, tag_12)\n    /* \"@openzeppelin/contracts/access/Ownable.sol\":955:967  _msgSender() */\n  0x20\n  shr\n  jump\t// in\ntag_11:\n    /* \"@openzeppelin/contracts/access/Ownable.sol\":936:954  _transferOwnership */\n  shl(0x20, tag_13)\n    /* \"@openzeppelin/contracts/access/Ownable.sol\":936:968  _transferOwnership(_msgSender()) */\n  0x20\n  shr\n  jump\t// in\ntag_10:\n    /* \"staking1_test.sol\":691:698  1 ether */\n  0x0de0b6b3a7640000\n    /* \"staking1_test.sol\":678:688  tokenPrice */\n  0x06\n    /* \"staking1_test.sol\":678:698  tokenPrice = 1 ether */\n  dup2\n  swap1\n  sstore\n  pop\n    /* \"staking1_test.sol\":247:4313  contract MyToken is ERC20, ERC20Burnable, Ownable { ... */\n  jump(tag_15)\n    /* \"@openzeppelin/contracts/utils/Context.sol\":640:736  function _msgSender() internal view virtual returns (address) {... */\ntag_12:\n    /* \"@openzeppelin/contracts/utils/Context.sol\":693:700  address */\n  0x00\n    /* \"@openzeppelin/contracts/utils/Context.sol\":719:729  msg.sender */\n  caller\n    /* \"@openzeppelin/contracts/utils/Context.sol\":712:729  return msg.sender */\n  swap1\n  pop\n    /* \"@openzeppelin/contracts/utils/Context.sol\":640:736  function _msgSender() internal view virtual returns (address) {... */\n  swap1\n  jump\t// out\n    /* \"@openzeppelin/contracts/access/Ownable.sol\":2426:2613  function _transferOwnership(address newOwner) internal virtual {... */\ntag_13:\n    /* \"@openzeppelin/contracts/access/Ownable.sol\":2499:2515  address oldOwner */\n  0x00\n    /* \"@openzeppelin/contracts/access/Ownable.sol\":2518:2524  _owner */\n  0x05\n  0x00\n  swap1\n  sload\n  swap1\n  0x0100\n  exp\n  swap1\n  div\n  0xffffffffffffffffffffffffffffffffffffffff\n  and\n    /* \"@openzeppelin/contracts/access/Ownable.sol\":2499:2524  address oldOwner = _owner */\n  swap1\n  pop\n    /* \"@openzeppelin/contracts/access/Ownable.sol\":2543:2551  newOwner */\n  dup2\n    /* \"@openzeppelin/contracts/access/Ownable.sol\":2534:2540  _owner */\n  0x05\n  0x00\n    /* \"@openzeppelin/contracts/access/Ownable.sol\":2534:2551  _owner = newOwner */\n  0x0100\n  exp\n  dup2\n  sload\n  dup2\n  0xffffffffffffffffffffffffffffffffffffffff\n  mul\n  not\n  and\n  swap1\n  dup4\n  0xffffffffffffffffffffffffffffffffffffffff\n  and\n  mul\n  or\n  swap1\n  sstore\n  pop\n    /* \"@openzeppelin/contracts/access/Ownable.sol\":2597:2605  newOwner */\n  dup2\n    /* \"@openzeppelin/contracts/access/Ownable.sol\":2566:2606  OwnershipTransferred(oldOwner, newOwner) */\n  0xffffffffffffffffffffffffffffffffffffffff\n  and\n    /* \"@openzeppelin/contracts/access/Ownable.sol\":2587:2595  oldOwner */\n  dup2\n    /* \"@openzeppelin/contracts/access/Ownable.sol\":2566:2606  OwnershipTransferred(oldOwner, newOwner) */\n  0xffffffffffffffffffffffffffffffffffffffff\n  and\n  0x8be0079c531659141344cd1fd0a4f28419497f9722a3daafe3b4186f6b6457e0\n  mload(0x40)\n  mload(0x40)\n  dup1\n  swap2\n  sub\n  swap1\n  log3\n    /* \"@openzeppelin/contracts/access/Ownable.sol\":2489:2613  {... */\n  pop\n    /* \"@openzeppelin/contracts/access/Ownable.sol\":2426:2613  function _transferOwnership(address newOwner) internal virtual {... */\n  pop\n  jump\t// out\n    /* \"#utility.yul\":7:106   */\ntag_18:\n    /* \"#utility.yul\":59:65   */\n  0x00\n    /* \"#utility.yul\":93:98   */\n  dup2\n    /* \"#utility.yul\":87:99   */\n  mload\n    /* \"#utility.yul\":77:99   */\n  swap1\n  pop\n    /* \"#utility.yul\":7:106   */\n  swap2\n  swap1\n  pop\n  jump\t// out\n    /* \"#utility.yul\":112:292   */\ntag_19:\n    /* \"#utility.yul\":160:237   */\n  0x4e487b7100000000000000000000000000000000000000000000000000000000\n    /* \"#utility.yul\":157:158   */\n  0x00\n    /* \"#utility.yul\":150:238   */\n  mstore\n    /* \"#utility.yul\":257:261   */\n  0x41\n    /* \"#utility.yul\":254:255   */\n  0x04\n    /* \"#utility.yul\":247:262   */\n  mstore\n    /* \"#utility.yul\":281:285   */\n  0x24\n    /* \"#utility.yul\":278:279   */\n  0x00\n    /* \"#utility.yul\":271:286   */\n  revert\n    /* \"#utility.yul\":298:478   */\ntag_20:\n    /* \"#utility.yul\":346:423   */\n  0x4e487b7100000000000000000000000000000000000000000000000000000000\n    /* \"#utility.yul\":343:344   */\n  0x00\n    /* \"#utility.yul\":336:424   */\n  mstore\n    /* \"#utility.yul\":443:447   */\n  0x22\n    /* \"#utility.yul\":440:441   */\n  0x04\n    /* \"#utility.yul\":433:448   */\n  mstore\n    /* \"#utility.yul\":467:471   */\n  0x24\n    /* \"#utility.yul\":464:465   */\n  0x00\n    /* \"#utility.yul\":457:472   */\n  revert\n    /* \"#utility.yul\":484:804   */\ntag_21:\n    /* \"#utility.yul\":528:534   */\n  0x00\n    /* \"#utility.yul\":565:566   */\n  0x02\n    /* \"#utility.yul\":559:563   */\n  dup3\n    /* \"#utility.yul\":555:567   */\n  div\n    /* \"#utility.yul\":545:567   */\n  swap1\n  pop\n    /* \"#utility.yul\":612:613   */\n  0x01\n    /* \"#utility.yul\":606:610   */\n  dup3\n    /* \"#utility.yul\":602:614   */\n  and\n    /* \"#utility.yul\":633:651   */\n  dup1\n    /* \"#utility.yul\":623:704   */\n  tag_43\n  jumpi\n    /* \"#utility.yul\":689:693   */\n  0x7f\n    /* \"#utility.yul\":681:687   */\n  dup3\n    /* \"#utility.yul\":677:694   */\n  and\n    /* \"#utility.yul\":667:694   */\n  swap2\n  pop\n    /* \"#utility.yul\":623:704   */\ntag_43:\n    /* \"#utility.yul\":751:753   */\n  0x20\n    /* \"#utility.yul\":743:749   */\n  dup3\n    /* \"#utility.yul\":740:754   */\n  lt\n    /* \"#utility.yul\":720:738   */\n  dup2\n    /* \"#utility.yul\":717:755   */\n  sub\n    /* \"#utility.yul\":714:798   */\n  tag_44\n  jumpi\n    /* \"#utility.yul\":770:788   */\n  tag_45\n  tag_20\n  jump\t// in\ntag_45:\n    /* \"#utility.yul\":714:798   */\ntag_44:\n    /* \"#utility.yul\":535:804   */\n  pop\n    /* \"#utility.yul\":484:804   */\n  swap2\n  swap1\n  pop\n  jump\t// out\n    /* \"#utility.yul\":810:951   */\ntag_22:\n    /* \"#utility.yul\":859:863   */\n  0x00\n    /* \"#utility.yul\":882:885   */\n  dup2\n    /* \"#utility.yul\":874:885   */\n  swap1\n  pop\n    /* \"#utility.yul\":905:908   */\n  dup2\n    /* \"#utility.yul\":902:903   */\n  0x00\n    /* \"#utility.yul\":895:909   */\n  mstore\n    /* \"#utility.yul\":939:943   */\n  0x20\n    /* \"#utility.yul\":936:937   */\n  0x00\n    /* \"#utility.yul\":926:944   */\n  keccak256\n    /* \"#utility.yul\":918:944   */\n  swap1\n  pop\n    /* \"#utility.yul\":810:951   */\n  swap2\n  swap1\n  pop\n  jump\t// out\n    /* \"#utility.yul\":957:1050   */\ntag_23:\n    /* \"#utility.yul\":994:1000   */\n  0x00\n    /* \"#utility.yul\":1041:1043   */\n  0x20\n    /* \"#utility.yul\":1036:1038   */\n  0x1f\n    /* \"#utility.yul\":1029:1034   */\n  dup4\n    /* \"#utility.yul\":1025:1039   */\n  add\n    /* \"#utility.yul\":1021:1044   */\n  div\n    /* \"#utility.yul\":1011:1044   */\n  swap1\n  pop\n    /* \"#utility.yul\":957:1050   */\n  swap2\n  swap1\n  pop\n  jump\t// out\n    /* \"#utility.yul\":1056:1163   */\ntag_24:\n    /* \"#utility.yul\":1100:1108   */\n  0x00\n    /* \"#utility.yul\":1150:1155   */\n  dup3\n    /* \"#utility.yul\":1144:1148   */\n  dup3\n    /* \"#utility.yul\":1140:1156   */\n  shl\n    /* \"#utility.yul\":1119:1156   */\n  swap1\n  pop\n    /* \"#utility.yul\":1056:1163   */\n  swap3\n  swap2\n  pop\n  pop\n  jump\t// out\n    /* \"#utility.yul\":1169:1562   */\ntag_25:\n    /* \"#utility.yul\":1238:1244   */\n  0x00\n    /* \"#utility.yul\":1288:1289   */\n  0x08\n    /* \"#utility.yul\":1276:1286   */\n  dup4\n    /* \"#utility.yul\":1272:1290   */\n  mul\n    /* \"#utility.yul\":1311:1408   */\n  tag_50\n    /* \"#utility.yul\":1341:1407   */\n  0xffffffffffffffffffffffffffffffffffffffffffffffffffffffffffffffff\n    /* \"#utility.yul\":1330:1339   */\n  dup3\n    /* \"#utility.yul\":1311:1408   */\n  tag_24\n  jump\t// in\ntag_50:\n    /* \"#utility.yul\":1429:1468   */\n  tag_51\n    /* \"#utility.yul\":1459:1467   */\n  dup7\n    /* \"#utility.yul\":1448:1457   */\n  dup4\n    /* \"#utility.yul\":1429:1468   */\n  tag_24\n  jump\t// in\ntag_51:\n    /* \"#utility.yul\":1417:1468   */\n  swap6\n  pop\n    /* \"#utility.yul\":1501:1505   */\n  dup1\n    /* \"#utility.yul\":1497:1506   */\n  not\n    /* \"#utility.yul\":1490:1495   */\n  dup5\n    /* \"#utility.yul\":1486:1507   */\n  and\n    /* \"#utility.yul\":1477:1507   */\n  swap4\n  pop\n    /* \"#utility.yul\":1550:1554   */\n  dup1\n    /* \"#utility.yul\":1540:1548   */\n  dup7\n    /* \"#utility.yul\":1536:1555   */\n  and\n    /* \"#utility.yul\":1529:1534   */\n  dup5\n    /* \"#utility.yul\":1526:1556   */\n  or\n    /* \"#utility.yul\":1516:1556   */\n  swap3\n  pop\n    /* \"#utility.yul\":1245:1562   */\n  pop\n  pop\n    /* \"#utility.yul\":1169:1562   */\n  swap4\n  swap3\n  pop\n  pop\n  pop\n  jump\t// out\n    /* \"#utility.yul\":1568:1645   */\ntag_26:\n    /* \"#utility.yul\":1605:1612   */\n  0x00\n    /* \"#utility.yul\":1634:1639   */\n  dup2\n    /* \"#utility.yul\":1623:1639   */\n  swap1\n  pop\n    /* \"#utility.yul\":1568:1645   */\n  swap2\n  swap1\n  pop\n  jump\t// out\n    /* \"#utility.yul\":1651:1711   */\ntag_27:\n    /* \"#utility.yul\":1679:1682   */\n  0x00\n    /* \"#utility.yul\":1700:1705   */\n  dup2\n    /* \"#utility.yul\":1693:1705   */\n  swap1\n  pop\n    /* \"#utility.yul\":1651:1711   */\n  swap2\n  swap1\n  pop\n  jump\t// out\n    /* \"#utility.yul\":1717:1859   */\ntag_28:\n    /* \"#utility.yul\":1767:1776   */\n  0x00\n    /* \"#utility.yul\":1800:1853   */\n  tag_55\n    /* \"#utility.yul\":1818:1852   */\n  tag_56\n    /* \"#utility.yul\":1827:1851   */\n  tag_57\n    /* \"#utility.yul\":1845:1850   */\n  dup5\n    /* \"#utility.yul\":1827:1851   */\n  tag_26\n  jump\t// in\ntag_57:\n    /* \"#utility.yul\":1818:1852   */\n  tag_27\n  jump\t// in\ntag_56:\n    /* \"#utility.yul\":1800:1853   */\n  tag_26\n  jump\t// in\ntag_55:\n    /* \"#utility.yul\":1787:1853   */\n  swap1\n  pop\n    /* \"#utility.yul\":1717:1859   */\n  swap2\n  swap1\n  pop\n  jump\t// out\n    /* \"#utility.yul\":1865:1940   */\ntag_29:\n    /* \"#utility.yul\":1908:1911   */\n  0x00\n    /* \"#utility.yul\":1929:1934   */\n  dup2\n    /* \"#utility.yul\":1922:1934   */\n  swap1\n  pop\n    /* \"#utility.yul\":1865:1940   */\n  swap2\n  swap1\n  pop\n  jump\t// out\n    /* \"#utility.yul\":1946:2215   */\ntag_30:\n    /* \"#utility.yul\":2056:2095   */\n  tag_60\n    /* \"#utility.yul\":2087:2094   */\n  dup4\n    /* \"#utility.yul\":2056:2095   */\n  tag_28\n  jump\t// in\ntag_60:\n    /* \"#utility.yul\":2117:2208   */\n  tag_61\n    /* \"#utility.yul\":2166:2207   */\n  tag_62\n    /* \"#utility.yul\":2190:2206   */\n  dup3\n    /* \"#utility.yul\":2166:2207   */\n  tag_29\n  jump\t// in\ntag_62:\n    /* \"#utility.yul\":2158:2164   */\n  dup5\n    /* \"#utility.yul\":2151:2155   */\n  dup5\n    /* \"#utility.yul\":2145:2156   */\n  sload\n    /* \"#utility.yul\":2117:2208   */\n  tag_25\n  jump\t// in\ntag_61:\n    /* \"#utility.yul\":2111:2115   */\n  dup3\n    /* \"#utility.yul\":2104:2209   */\n  sstore\n    /* \"#utility.yul\":2022:2215   */\n  pop\n    /* \"#utility.yul\":1946:2215   */\n  pop\n  pop\n  pop\n  jump\t// out\n    /* \"#utility.yul\":2221:2294   */\ntag_31:\n    /* \"#utility.yul\":2266:2269   */\n  0x00\n    /* \"#utility.yul\":2221:2294   */\n  swap1\n  jump\t// out\n    /* \"#utility.yul\":2300:2489   */\ntag_32:\n    /* \"#utility.yul\":2377:2409   */\n  tag_65\n  tag_31\n  jump\t// in\ntag_65:\n    /* \"#utility.yul\":2418:2483   */\n  tag_66\n    /* \"#utility.yul\":2476:2482   */\n  dup2\n    /* \"#utility.yul\":2468:2474   */\n  dup5\n    /* \"#utility.yul\":2462:2466   */\n  dup5\n    /* \"#utility.yul\":2418:2483   */\n  tag_30\n  jump\t// in\ntag_66:\n    /* \"#utility.yul\":2353:2489   */\n  pop\n    /* \"#utility.yul\":2300:2489   */\n  pop\n  pop\n  jump\t// out\n    /* \"#utility.yul\":2495:2681   */\ntag_33:\n    /* \"#utility.yul\":2555:2675   */\ntag_68:\n    /* \"#utility.yul\":2572:2575   */\n  dup2\n    /* \"#utility.yul\":2565:2570   */\n  dup2\n    /* \"#utility.yul\":2562:2576   */\n  lt\n    /* \"#utility.yul\":2555:2675   */\n  iszero\n  tag_70\n  jumpi\n    /* \"#utility.yul\":2626:2665   */\n  tag_71\n    /* \"#utility.yul\":2663:2664   */\n  0x00\n    /* \"#utility.yul\":2656:2661   */\n  dup3\n    /* \"#utility.yul\":2626:2665   */\n  tag_32\n  jump\t// in\ntag_71:\n    /* \"#utility.yul\":2599:2600   */\n  0x01\n    /* \"#utility.yul\":2592:2597   */\n  dup2\n    /* \"#utility.yul\":2588:2601   */\n  add\n    /* \"#utility.yul\":2579:2601   */\n  swap1\n  pop\n    /* \"#utility.yul\":2555:2675   */\n  jump(tag_68)\ntag_70:\n    /* \"#utility.yul\":2495:2681   */\n  pop\n  pop\n  jump\t// out\n    /* \"#utility.yul\":2687:3230   */\ntag_34:\n    /* \"#utility.yul\":2788:2790   */\n  0x1f\n    /* \"#utility.yul\":2783:2786   */\n  dup3\n    /* \"#utility.yul\":2780:2791   */\n  gt\n    /* \"#utility.yul\":2777:3223   */\n  iszero\n  tag_73\n  jumpi\n    /* \"#utility.yul\":2822:2860   */\n  tag_74\n    /* \"#utility.yul\":2854:2859   */\n  dup2\n    /* \"#utility.yul\":2822:2860   */\n  tag_22\n  jump\t// in\ntag_74:\n    /* \"#utility.yul\":2906:2935   */\n  tag_75\n    /* \"#utility.yul\":2924:2934   */\n  dup5\n    /* \"#utility.yul\":2906:2935   */\n  tag_23\n  jump\t// in\ntag_75:\n    /* \"#utility.yul\":2896:2904   */\n  dup2\n    /* \"#utility.yul\":2892:2936   */\n  add\n    /* \"#utility.yul\":3089:3091   */\n  0x20\n    /* \"#utility.yul\":3077:3087   */\n  dup6\n    /* \"#utility.yul\":3074:3092   */\n  lt\n    /* \"#utility.yul\":3071:3120   */\n  iszero\n  tag_76\n  jumpi\n    /* \"#utility.yul\":3110:3118   */\n  dup2\n    /* \"#utility.yul\":3095:3118   */\n  swap1\n  pop\n    /* \"#utility.yul\":3071:3120   */\ntag_76:\n    /* \"#utility.yul\":3133:3213   */\n  tag_77\n    /* \"#utility.yul\":3189:3211   */\n  tag_78\n    /* \"#utility.yul\":3207:3210   */\n  dup6\n    /* \"#utility.yul\":3189:3211   */\n  tag_23\n  jump\t// in\ntag_78:\n    /* \"#utility.yul\":3179:3187   */\n  dup4\n    /* \"#utility.yul\":3175:3212   */\n  add\n    /* \"#utility.yul\":3162:3173   */\n  dup3\n    /* \"#utility.yul\":3133:3213   */\n  tag_33\n  jump\t// in\ntag_77:\n    /* \"#utility.yul\":2792:3223   */\n  pop\n  pop\n    /* \"#utility.yul\":2777:3223   */\ntag_73:\n    /* \"#utility.yul\":2687:3230   */\n  pop\n  pop\n  pop\n  jump\t// out\n    /* \"#utility.yul\":3236:3353   */\ntag_35:\n    /* \"#utility.yul\":3290:3298   */\n  0x00\n    /* \"#utility.yul\":3340:3345   */\n  dup3\n    /* \"#utility.yul\":3334:3338   */\n  dup3\n    /* \"#utility.yul\":3330:3346   */\n  shr\n    /* \"#utility.yul\":3309:3346   */\n  swap1\n  pop\n    /* \"#utility.yul\":3236:3353   */\n  swap3\n  swap2\n  pop\n  pop\n  jump\t// out\n    /* \"#utility.yul\":3359:3528   */\ntag_36:\n    /* \"#utility.yul\":3403:3409   */\n  0x00\n    /* \"#utility.yul\":3436:3487   */\n  tag_81\n    /* \"#utility.yul\":3484:3485   */\n  0x00\n    /* \"#utility.yul\":3480:3486   */\n  not\n    /* \"#utility.yul\":3472:3477   */\n  dup5\n    /* \"#utility.yul\":3469:3470   */\n  0x08\n    /* \"#utility.yul\":3465:3478   */\n  mul\n    /* \"#utility.yul\":3436:3487   */\n  tag_35\n  jump\t// in\ntag_81:\n    /* \"#utility.yul\":3432:3488   */\n  not\n    /* \"#utility.yul\":3517:3521   */\n  dup1\n    /* \"#utility.yul\":3511:3515   */\n  dup4\n    /* \"#utility.yul\":3507:3522   */\n  and\n    /* \"#utility.yul\":3497:3522   */\n  swap2\n  pop\n    /* \"#utility.yul\":3410:3528   */\n  pop\n    /* \"#utility.yul\":3359:3528   */\n  swap3\n  swap2\n  pop\n  pop\n  jump\t// out\n    /* \"#utility.yul\":3533:3828   */\ntag_37:\n    /* \"#utility.yul\":3609:3613   */\n  0x00\n    /* \"#utility.yul\":3755:3784   */\n  tag_83\n    /* \"#utility.yul\":3780:3783   */\n  dup4\n    /* \"#utility.yul\":3774:3778   */\n  dup4\n    /* \"#utility.yul\":3755:3784   */\n  tag_36\n  jump\t// in\ntag_83:\n    /* \"#utility.yul\":3747:3784   */\n  swap2\n  pop\n    /* \"#utility.yul\":3817:3820   */\n  dup3\n    /* \"#utility.yul\":3814:3815   */\n  0x02\n    /* \"#utility.yul\":3810:3821   */\n  mul\n    /* \"#utility.yul\":3804:3808   */\n  dup3\n    /* \"#utility.yul\":3801:3822   */\n  or\n    /* \"#utility.yul\":3793:3822   */\n  swap1\n  pop\n    /* \"#utility.yul\":3533:3828   */\n  swap3\n  swap2\n  pop\n  pop\n  jump\t// out\n    /* \"#utility.yul\":3833:5228   */\ntag_7:\n    /* \"#utility.yul\":3950:3987   */\n  tag_85\n    /* \"#utility.yul\":3983:3986   */\n  dup3\n    /* \"#utility.yul\":3950:3987   */\n  tag_18\n  jump\t// in\ntag_85:\n    /* \"#utility.yul\":4052:4070   */\n  0xffffffffffffffff\n    /* \"#utility.yul\":4044:4050   */\n  dup2\n    /* \"#utility.yul\":4041:4071   */\n  gt\n    /* \"#utility.yul\":4038:4094   */\n  iszero\n  tag_86\n  jumpi\n    /* \"#utility.yul\":4074:4092   */\n  tag_87\n  tag_19\n  jump\t// in\ntag_87:\n    /* \"#utility.yul\":4038:4094   */\ntag_86:\n    /* \"#utility.yul\":4118:4156   */\n  tag_88\n    /* \"#utility.yul\":4150:4154   */\n  dup3\n    /* \"#utility.yul\":4144:4155   */\n  sload\n    /* \"#utility.yul\":4118:4156   */\n  tag_21\n  jump\t// in\ntag_88:\n    /* \"#utility.yul\":4203:4270   */\n  tag_89\n    /* \"#utility.yul\":4263:4269   */\n  dup3\n    /* \"#utility.yul\":4255:4261   */\n  dup3\n    /* \"#utility.yul\":4249:4253   */\n  dup6\n    /* \"#utility.yul\":4203:4270   */\n  tag_34\n  jump\t// in\ntag_89:\n    /* \"#utility.yul\":4297:4298   */\n  0x00\n    /* \"#utility.yul\":4321:4325   */\n  0x20\n    /* \"#utility.yul\":4308:4325   */\n  swap1\n  pop\n    /* \"#utility.yul\":4353:4355   */\n  0x1f\n    /* \"#utility.yul\":4345:4351   */\n  dup4\n    /* \"#utility.yul\":4342:4356   */\n  gt\n    /* \"#utility.yul\":4370:4371   */\n  0x01\n    /* \"#utility.yul\":4365:4983   */\n  dup2\n  eq\n  tag_91\n  jumpi\n    /* \"#utility.yul\":5027:5028   */\n  0x00\n    /* \"#utility.yul\":5044:5050   */\n  dup5\n    /* \"#utility.yul\":5041:5118   */\n  iszero\n  tag_92\n  jumpi\n    /* \"#utility.yul\":5093:5102   */\n  dup3\n    /* \"#utility.yul\":5088:5091   */\n  dup8\n    /* \"#utility.yul\":5084:5103   */\n  add\n    /* \"#utility.yul\":5078:5104   */\n  mload\n    /* \"#utility.yul\":5069:5104   */\n  swap1\n  pop\n    /* \"#utility.yul\":5041:5118   */\ntag_92:\n    /* \"#utility.yul\":5144:5211   */\n  tag_93\n    /* \"#utility.yul\":5204:5210   */\n  dup6\n    /* \"#utility.yul\":5197:5202   */\n  dup3\n    /* \"#utility.yul\":5144:5211   */\n  tag_37\n  jump\t// in\ntag_93:\n    /* \"#utility.yul\":5138:5142   */\n  dup7\n    /* \"#utility.yul\":5131:5212   */\n  sstore\n    /* \"#utility.yul\":5000:5222   */\n  pop\n    /* \"#utility.yul\":4335:5222   */\n  jump(tag_90)\n    /* \"#utility.yul\":4365:4983   */\ntag_91:\n    /* \"#utility.yul\":4417:4421   */\n  0x1f\n    /* \"#utility.yul\":4413:4422   */\n  not\n    /* \"#utility.yul\":4405:4411   */\n  dup5\n    /* \"#utility.yul\":4401:4423   */\n  and\n    /* \"#utility.yul\":4451:4488   */\n  tag_94\n    /* \"#utility.yul\":4483:4487   */\n  dup7\n    /* \"#utility.yul\":4451:4488   */\n  tag_22\n  jump\t// in\ntag_94:\n    /* \"#utility.yul\":4510:4511   */\n  0x00\n    /* \"#utility.yul\":4524:4732   */\ntag_95:\n    /* \"#utility.yul\":4538:4545   */\n  dup3\n    /* \"#utility.yul\":4535:4536   */\n  dup2\n    /* \"#utility.yul\":4532:4546   */\n  lt\n    /* \"#utility.yul\":4524:4732   */\n  iszero\n  tag_97\n  jumpi\n    /* \"#utility.yul\":4617:4626   */\n  dup5\n    /* \"#utility.yul\":4612:4615   */\n  dup10\n    /* \"#utility.yul\":4608:4627   */\n  add\n    /* \"#utility.yul\":4602:4628   */\n  mload\n    /* \"#utility.yul\":4594:4600   */\n  dup3\n    /* \"#utility.yul\":4587:4629   */\n  sstore\n    /* \"#utility.yul\":4668:4669   */\n  0x01\n    /* \"#utility.yul\":4660:4666   */\n  dup3\n    /* \"#utility.yul\":4656:4670   */\n  add\n    /* \"#utility.yul\":4646:4670   */\n  swap2\n  pop\n    /* \"#utility.yul\":4715:4717   */\n  0x20\n    /* \"#utility.yul\":4704:4713   */\n  dup6\n    /* \"#utility.yul\":4700:4718   */\n  add\n    /* \"#utility.yul\":4687:4718   */\n  swap5\n  pop\n    /* \"#utility.yul\":4561:4565   */\n  0x20\n    /* \"#utility.yul\":4558:4559   */\n  dup2\n    /* \"#utility.yul\":4554:4566   */\n  add\n    /* \"#utility.yul\":4549:4566   */\n  swap1\n  pop\n    /* \"#utility.yul\":4524:4732   */\n  jump(tag_95)\ntag_97:\n    /* \"#utility.yul\":4760:4766   */\n  dup7\n    /* \"#utility.yul\":4751:4758   */\n  dup4\n    /* \"#utility.yul\":4748:4767   */\n  lt\n    /* \"#utility.yul\":4745:4924   */\n  iszero\n  tag_98\n  jumpi\n    /* \"#utility.yul\":4818:4827   */\n  dup5\n    /* \"#utility.yul\":4813:4816   */\n  dup10\n    /* \"#utility.yul\":4809:4828   */\n  add\n    /* \"#utility.yul\":4803:4829   */\n  mload\n    /* \"#utility.yul\":4861:4909   */\n  tag_99\n    /* \"#utility.yul\":4903:4907   */\n  0x1f\n    /* \"#utility.yul\":4895:4901   */\n  dup10\n    /* \"#utility.yul\":4891:4908   */\n  and\n    /* \"#utility.yul\":4880:4889   */\n  dup3\n    /* \"#utility.yul\":4861:4909   */\n  tag_36\n  jump\t// in\ntag_99:\n    /* \"#utility.yul\":4853:4859   */\n  dup4\n    /* \"#utility.yul\":4846:4910   */\n  sstore\n    /* \"#utility.yul\":4768:4924   */\n  pop\n    /* \"#utility.yul\":4745:4924   */\ntag_98:\n    /* \"#utility.yul\":4970:4971   */\n  0x01\n    /* \"#utility.yul\":4966:4967   */\n  0x02\n    /* \"#utility.yul\":4958:4964   */\n  dup9\n    /* \"#utility.yul\":4954:4968   */\n  mul\n    /* \"#utility.yul\":4950:4972   */\n  add\n    /* \"#utility.yul\":4944:4948   */\n  dup9\n    /* \"#utility.yul\":4937:4973   */\n  sstore\n    /* \"#utility.yul\":4372:4983   */\n  pop\n  pop\n  pop\n    /* \"#utility.yul\":4335:5222   */\ntag_90:\n  pop\n    /* \"#utility.yul\":3925:5228   */\n  pop\n  pop\n  pop\n    /* \"#utility.yul\":3833:5228   */\n  pop\n  pop\n  jump\t// out\n    /* \"staking1_test.sol\":247:4313  contract MyToken is ERC20, ERC20Burnable, Ownable { ... */\ntag_15:\n  dataSize(sub_0)\n  dup1\n  dataOffset(sub_0)\n  0x00\n  codecopy\n  0x00\n  return\nstop\n\nsub_0: assembly {\n        /* \"staking1_test.sol\":247:4313  contract MyToken is ERC20, ERC20Burnable, Ownable { ... */\n      mstore(0x40, 0x80)\n      jumpi(tag_1, lt(calldatasize, 0x04))\n      shr(0xe0, calldataload(0x00))\n      dup1\n      0x70a08231\n      gt\n      tag_28\n      jumpi\n      dup1\n      0x95d89b41\n      gt\n      tag_29\n      jumpi\n      dup1\n      0xa9059cbb\n      gt\n      tag_30\n      jumpi\n      dup1\n      0xa9059cbb\n      eq\n      tag_24\n      jumpi\n      dup1\n      0xc392f766\n      eq\n      tag_25\n      jumpi\n      dup1\n      0xdd62ed3e\n      eq\n      tag_26\n      jumpi\n      dup1\n      0xf2fde38b\n      eq\n      tag_27\n      jumpi\n      jump(tag_1)\n    tag_30:\n      dup1\n      0x95d89b41\n      eq\n      tag_21\n      jumpi\n      dup1\n      0xa457c2d7\n      eq\n      tag_22\n      jumpi\n      dup1\n      0xa694fc3a\n      eq\n      tag_23\n      jumpi\n      jump(tag_1)\n    tag_29:\n      dup1\n      0x70a08231\n      eq\n      tag_15\n      jumpi\n      dup1\n      0x715018a6\n      eq\n      tag_16\n      jumpi\n      dup1\n      0x79cc6790\n      eq\n      tag_17\n      jumpi\n      dup1\n      0x7ff9b596\n      eq\n      tag_18\n      jumpi\n      dup1\n      0x8da5cb5b\n      eq\n      tag_19\n      jumpi\n      dup1\n      0x94eecb50\n      eq\n      tag_20\n      jumpi\n      jump(tag_1)\n    tag_28:\n      dup1\n      0x3610724e\n      gt\n      tag_31\n      jumpi\n      dup1\n      0x42966c68\n      gt\n      tag_32\n      jumpi\n      dup1\n      0x42966c68\n      eq\n      tag_11\n      jumpi\n      dup1\n      0x47f07a8e\n      eq\n      tag_12\n      jumpi\n      dup1\n      0x6a61e5fc\n      eq\n      tag_13\n      jumpi\n      dup1\n      0x6c11bcd3\n      eq\n      tag_14\n      jumpi\n      jump(tag_1)\n    tag_32:\n      dup1\n      0x3610724e\n      eq\n      tag_8\n      jumpi\n      dup1\n      0x372500ab\n      eq\n      tag_9\n      jumpi\n      dup1\n      0x39509351\n      eq\n      tag_10\n      jumpi\n      jump(tag_1)\n    tag_31:\n      dup1\n      0x06fdde03\n      eq\n      tag_2\n      jumpi\n      dup1\n      0x095ea7b3\n      eq\n      tag_3\n      jumpi\n      dup1\n      0x18160ddd\n      eq\n      tag_4\n      jumpi\n      dup1\n      0x23b872dd\n      eq\n      tag_5\n      jumpi\n      dup1\n      0x2e17de78\n      eq\n      tag_6\n      jumpi\n      dup1\n      0x313ce567\n      eq\n      tag_7\n      jumpi\n    tag_1:\n      0x00\n      dup1\n      revert\n        /* \"@openzeppelin/contracts/token/ERC20/ERC20.sol\":2158:2256  function name() public view virtual override returns (string memory) {... */\n    tag_2:\n      callvalue\n      dup1\n      iszero\n      tag_33\n      jumpi\n      0x00\n      dup1\n      revert\n    tag_33:\n      pop\n      tag_34\n      tag_35\n      jump\t// in\n    tag_34:\n      mload(0x40)\n      tag_36\n      swap2\n      swap1\n      tag_37\n      jump\t// in\n    tag_36:\n      mload(0x40)\n      dup1\n      swap2\n      sub\n      swap1\n      return\n        /* \"@openzeppelin/contracts/token/ERC20/ERC20.sol\":4444:4641  function approve(address spender, uint256 amount) public virtual override returns (bool) {... */\n    tag_3:\n      callvalue\n      dup1\n      iszero\n      tag_38\n      jumpi\n      0x00\n      dup1\n      revert\n    tag_38:\n      pop\n      tag_39\n      0x04\n      dup1\n      calldatasize\n      sub\n      dup2\n      add\n      swap1\n      tag_40\n      swap2\n      swap1\n      tag_41\n      jump\t// in\n    tag_40:\n      tag_42\n      jump\t// in\n    tag_39:\n      mload(0x40)\n      tag_43\n      swap2\n      swap1\n      tag_44\n      jump\t// in\n    tag_43:\n      mload(0x40)\n      dup1\n      swap2\n      sub\n      swap1\n      return\n        /* \"@openzeppelin/contracts/token/ERC20/ERC20.sol\":3255:3361  function totalSupply() public view virtual override returns (uint256) {... */\n    tag_4:\n      callvalue\n      dup1\n      iszero\n      tag_45\n      jumpi\n      0x00\n      dup1\n      revert\n    tag_45:\n      pop\n      tag_46\n      tag_47\n      jump\t// in\n    tag_46:\n      mload(0x40)\n      tag_48\n      swap2\n      swap1\n      tag_49\n      jump\t// in\n    tag_48:\n      mload(0x40)\n      dup1\n      swap2\n      sub\n      swap1\n      return\n        /* \"@openzeppelin/contracts/token/ERC20/ERC20.sol\":5203:5459  function transferFrom(address from, address to, uint256 amount) public virtual override returns (bool) {... */\n    tag_5:\n      callvalue\n      dup1\n      iszero\n      tag_50\n      jumpi\n      0x00\n      dup1\n      revert\n    tag_50:\n      pop\n      tag_51\n      0x04\n      dup1\n      calldatasize\n      sub\n      dup2\n      add\n      swap1\n      tag_52\n      swap2\n      swap1\n      tag_53\n      jump\t// in\n    tag_52:\n      tag_54\n      jump\t// in\n    tag_51:\n      mload(0x40)\n      tag_55\n      swap2\n      swap1\n      tag_44\n      jump\t// in\n    tag_55:\n      mload(0x40)\n      dup1\n      swap2\n      sub\n      swap1\n      return\n        /* \"staking1_test.sol\":2195:3018  function unstake(uint256 _numTokens) external { ... */\n    tag_6:\n      callvalue\n      dup1\n      iszero\n      tag_56\n      jumpi\n      0x00\n      dup1\n      revert\n    tag_56:\n      pop\n      tag_57\n      0x04\n      dup1\n      calldatasize\n      sub\n      dup2\n      add\n      swap1\n      tag_58\n      swap2\n      swap1\n      tag_59\n      jump\t// in\n    tag_58:\n      tag_60\n      jump\t// in\n    tag_57:\n      stop\n        /* \"@openzeppelin/contracts/token/ERC20/ERC20.sol\":3104:3195  function decimals() public view virtual override returns (uint8) {... */\n    tag_7:\n      callvalue\n      dup1\n      iszero\n      tag_61\n      jumpi\n      0x00\n      dup1\n      revert\n    tag_61:\n      pop\n      tag_62\n      tag_63\n      jump\t// in\n    tag_62:\n      mload(0x40)\n      tag_64\n      swap2\n      swap1\n      tag_65\n      jump\t// in\n    tag_64:\n      mload(0x40)\n      dup1\n      swap2\n      sub\n      swap1\n      return\n        /* \"staking1_test.sol\":1212:1552  function buyTokens(uint256 _numTokens) external payable { ... */\n    tag_8:\n      tag_66\n      0x04\n      dup1\n      calldatasize\n      sub\n      dup2\n      add\n      swap1\n      tag_67\n      swap2\n      swap1\n      tag_59\n      jump\t// in\n    tag_67:\n      tag_68\n      jump\t// in\n    tag_66:\n      stop\n        /* \"staking1_test.sol\":3026:3295  function claimRewards() external{ ... */\n    tag_9:\n      callvalue\n      dup1\n      iszero\n      tag_69\n      jumpi\n      0x00\n      dup1\n      revert\n    tag_69:\n      pop\n      tag_70\n      tag_71\n      jump\t// in\n    tag_70:\n      stop\n        /* \"@openzeppelin/contracts/token/ERC20/ERC20.sol\":5854:6088  function increaseAllowance(address spender, uint256 addedValue) public virtual returns (bool) {... */\n    tag_10:\n      callvalue\n      dup1\n      iszero\n      tag_72\n      jumpi\n      0x00\n      dup1\n      revert\n    tag_72:\n      pop\n      tag_73\n      0x04\n      dup1\n      calldatasize\n      sub\n      dup2\n      add\n      swap1\n      tag_74\n      swap2\n      swap1\n      tag_41\n      jump\t// in\n    tag_74:\n      tag_75\n      jump\t// in\n    tag_73:\n      mload(0x40)\n      tag_76\n      swap2\n      swap1\n      tag_44\n      jump\t// in\n    tag_76:\n      mload(0x40)\n      dup1\n      swap2\n      sub\n      swap1\n      return\n        /* \"@openzeppelin/contracts/token/ERC20/extensions/ERC20Burnable.sol\":578:667  function burn(uint256 amount) public virtual {... */\n    tag_11:\n      callvalue\n      dup1\n      iszero\n      tag_77\n      jumpi\n      0x00\n      dup1\n      revert\n    tag_77:\n      pop\n      tag_78\n      0x04\n      dup1\n      calldatasize\n      sub\n      dup2\n      add\n      swap1\n      tag_79\n      swap2\n      swap1\n      tag_59\n      jump\t// in\n    tag_79:\n      tag_80\n      jump\t// in\n    tag_78:\n      stop\n        /* \"staking1_test.sol\":4122:4311  function transferBalanceToOwner() external {... */\n    tag_12:\n      callvalue\n      dup1\n      iszero\n      tag_81\n      jumpi\n      0x00\n      dup1\n      revert\n    tag_81:\n      pop\n      tag_82\n      tag_83\n      jump\t// in\n    tag_82:\n      stop\n        /* \"staking1_test.sol\":714:816  function setTokenPrice(uint256 _newPrice) external onlyOwner { ... */\n    tag_13:\n      callvalue\n      dup1\n      iszero\n      tag_84\n      jumpi\n      0x00\n      dup1\n      revert\n    tag_84:\n      pop\n      tag_85\n      0x04\n      dup1\n      calldatasize\n      sub\n      dup2\n      add\n      swap1\n      tag_86\n      swap2\n      swap1\n      tag_59\n      jump\t// in\n    tag_86:\n      tag_87\n      jump\t// in\n    tag_85:\n      stop\n        /* \"staking1_test.sol\":3721:4117  function sellTokens(uint256 _numTokens) external { ... */\n    tag_14:\n      callvalue\n      dup1\n      iszero\n      tag_88\n      jumpi\n      0x00\n      dup1\n      revert\n    tag_88:\n      pop\n      tag_89\n      0x04\n      dup1\n      calldatasize\n      sub\n      dup2\n      add\n      swap1\n      tag_90\n      swap2\n      swap1\n      tag_59\n      jump\t// in\n    tag_90:\n      tag_91\n      jump\t// in\n    tag_89:\n      stop\n        /* \"@openzeppelin/contracts/token/ERC20/ERC20.sol\":3419:3544  function balanceOf(address account) public view virtual override returns (uint256) {... */\n    tag_15:\n      callvalue\n      dup1\n      iszero\n      tag_92\n      jumpi\n      0x00\n      dup1\n      revert\n    tag_92:\n      pop\n      tag_93\n      0x04\n      dup1\n      calldatasize\n      sub\n      dup2\n      add\n      swap1\n      tag_94\n      swap2\n      swap1\n      tag_95\n      jump\t// in\n    tag_94:\n      tag_96\n      jump\t// in\n    tag_93:\n      mload(0x40)\n      tag_97\n      swap2\n      swap1\n      tag_49\n      jump\t// in\n    tag_97:\n      mload(0x40)\n      dup1\n      swap2\n      sub\n      swap1\n      return\n        /* \"@openzeppelin/contracts/access/Ownable.sol\":1824:1925  function renounceOwnership() public virtual onlyOwner {... */\n    tag_16:\n      callvalue\n      dup1\n      iszero\n      tag_98\n      jumpi\n      0x00\n      dup1\n      revert\n    tag_98:\n      pop\n      tag_99\n      tag_100\n      jump\t// in\n    tag_99:\n      stop\n        /* \"@openzeppelin/contracts/token/ERC20/extensions/ERC20Burnable.sol\":973:1134  function burnFrom(address account, uint256 amount) public virtual {... */\n    tag_17:\n      callvalue\n      dup1\n      iszero\n      tag_101\n      jumpi\n      0x00\n      dup1\n      revert\n    tag_101:\n      pop\n      tag_102\n      0x04\n      dup1\n      calldatasize\n      sub\n      dup2\n      add\n      swap1\n      tag_103\n      swap2\n      swap1\n      tag_41\n      jump\t// in\n    tag_103:\n      tag_104\n      jump\t// in\n    tag_102:\n      stop\n        /* \"staking1_test.sol\":304:329  uint256 public tokenPrice */\n    tag_18:\n      callvalue\n      dup1\n      iszero\n      tag_105\n      jumpi\n      0x00\n      dup1\n      revert\n    tag_105:\n      pop\n      tag_106\n      tag_107\n      jump\t// in\n    tag_106:\n      mload(0x40)\n      tag_108\n      swap2\n      swap1\n      tag_49\n      jump\t// in\n    tag_108:\n      mload(0x40)\n      dup1\n      swap2\n      sub\n      swap1\n      return\n        /* \"@openzeppelin/contracts/access/Ownable.sol\":1201:1286  function owner() public view virtual returns (address) {... */\n    tag_19:\n      callvalue\n      dup1\n      iszero\n      tag_109\n      jumpi\n      0x00\n      dup1\n      revert\n    tag_109:\n      pop\n      tag_110\n      tag_111\n      jump\t// in\n    tag_110:\n      mload(0x40)\n      tag_112\n      swap2\n      swap1\n      tag_113\n      jump\t// in\n    tag_112:\n      mload(0x40)\n      dup1\n      swap2\n      sub\n      swap1\n      return\n        /* \"staking1_test.sol\":552:602  mapping(address => StakingInfo) public stakingInfo */\n    tag_20:\n      callvalue\n      dup1\n      iszero\n      tag_114\n      jumpi\n      0x00\n      dup1\n      revert\n    tag_114:\n      pop\n      tag_115\n      0x04\n      dup1\n      calldatasize\n      sub\n      dup2\n      add\n      swap1\n      tag_116\n      swap2\n      swap1\n      tag_95\n      jump\t// in\n    tag_116:\n      tag_117\n      jump\t// in\n    tag_115:\n      mload(0x40)\n      tag_118\n      swap4\n      swap3\n      swap2\n      swap1\n      tag_119\n      jump\t// in\n    tag_118:\n      mload(0x40)\n      dup1\n      swap2\n      sub\n      swap1\n      return\n        /* \"@openzeppelin/contracts/token/ERC20/ERC20.sol\":2369:2471  function symbol() public view virtual override returns (string memory) {... */\n    tag_21:\n      callvalue\n      dup1\n      iszero\n      tag_120\n      jumpi\n      0x00\n      dup1\n      revert\n    tag_120:\n      pop\n      tag_121\n      tag_122\n      jump\t// in\n    tag_121:\n      mload(0x40)\n      tag_123\n      swap2\n      swap1\n      tag_37\n      jump\t// in\n    tag_123:\n      mload(0x40)\n      dup1\n      swap2\n      sub\n      swap1\n      return\n        /* \"@openzeppelin/contracts/token/ERC20/ERC20.sol\":6575:7002  function decreaseAllowance(address spender, uint256 subtractedValue) public virtual returns (bool) {... */\n    tag_22:\n      callvalue\n      dup1\n      iszero\n      tag_124\n      jumpi\n      0x00\n      dup1\n      revert\n    tag_124:\n      pop\n      tag_125\n      0x04\n      dup1\n      calldatasize\n      sub\n      dup2\n      add\n      swap1\n      tag_126\n      swap2\n      swap1\n      tag_41\n      jump\t// in\n    tag_126:\n      tag_127\n      jump\t// in\n    tag_125:\n      mload(0x40)\n      tag_128\n      swap2\n      swap1\n      tag_44\n      jump\t// in\n    tag_128:\n      mload(0x40)\n      dup1\n      swap2\n      sub\n      swap1\n      return\n        /* \"staking1_test.sol\":1560:2187  function stake(uint256 _numTokens) external { ... */\n    tag_23:\n      callvalue\n      dup1\n      iszero\n      tag_129\n      jumpi\n      0x00\n      dup1\n      revert\n    tag_129:\n      pop\n      tag_130\n      0x04\n      dup1\n      calldatasize\n      sub\n      dup2\n      add\n      swap1\n      tag_131\n      swap2\n      swap1\n      tag_59\n      jump\t// in\n    tag_131:\n      tag_132\n      jump\t// in\n    tag_130:\n      stop\n        /* \"@openzeppelin/contracts/token/ERC20/ERC20.sol\":3740:3929  function transfer(address to, uint256 amount) public virtual override returns (bool) {... */\n    tag_24:\n      callvalue\n      dup1\n      iszero\n      tag_133\n      jumpi\n      0x00\n      dup1\n      revert\n    tag_133:\n      pop\n      tag_134\n      0x04\n      dup1\n      calldatasize\n      sub\n      dup2\n      add\n      swap1\n      tag_135\n      swap2\n      swap1\n      tag_41\n      jump\t// in\n    tag_135:\n      tag_136\n      jump\t// in\n    tag_134:\n      mload(0x40)\n      tag_137\n      swap2\n      swap1\n      tag_44\n      jump\t// in\n    tag_137:\n      mload(0x40)\n      dup1\n      swap2\n      sub\n      swap1\n      return\n        /* \"staking1_test.sol\":336:365  uint256 public interest = 100 */\n    tag_25:\n      callvalue\n      dup1\n      iszero\n      tag_138\n      jumpi\n      0x00\n      dup1\n      revert\n    tag_138:\n      pop\n      tag_139\n      tag_140\n      jump\t// in\n    tag_139:\n      mload(0x40)\n      tag_141\n      swap2\n      swap1\n      tag_49\n      jump\t// in\n    tag_141:\n      mload(0x40)\n      dup1\n      swap2\n      sub\n      swap1\n      return\n        /* \"@openzeppelin/contracts/token/ERC20/ERC20.sol\":3987:4136  function allowance(address owner, address spender) public view virtual override returns (uint256) {... */\n    tag_26:\n      callvalue\n      dup1\n      iszero\n      tag_142\n      jumpi\n      0x00\n      dup1\n      revert\n    tag_142:\n      pop\n      tag_143\n      0x04\n      dup1\n      calldatasize\n      sub\n      dup2\n      add\n      swap1\n      tag_144\n      swap2\n      swap1\n      tag_145\n      jump\t// in\n    tag_144:\n      tag_146\n      jump\t// in\n    tag_143:\n      mload(0x40)\n      tag_147\n      swap2\n      swap1\n      tag_49\n      jump\t// in\n    tag_147:\n      mload(0x40)\n      dup1\n      swap2\n      sub\n      swap1\n      return\n        /* \"@openzeppelin/contracts/access/Ownable.sol\":2074:2272  function transferOwnership(address newOwner) public virtual onlyOwner {... */\n    tag_27:\n      callvalue\n      dup1\n      iszero\n      tag_148\n      jumpi\n      0x00\n      dup1\n      revert\n    tag_148:\n      pop\n      tag_149\n      0x04\n      dup1\n      calldatasize\n      sub\n      dup2\n      add\n      swap1\n      tag_150\n      swap2\n      swap1\n      tag_95\n      jump\t// in\n    tag_150:\n      tag_151\n      jump\t// in\n    tag_149:\n      stop\n        /* \"@openzeppelin/contracts/token/ERC20/ERC20.sol\":2158:2256  function name() public view virtual override returns (string memory) {... */\n    tag_35:\n        /* \"@openzeppelin/contracts/token/ERC20/ERC20.sol\":2212:2225  string memory */\n      0x60\n        /* \"@openzeppelin/contracts/token/ERC20/ERC20.sol\":2244:2249  _name */\n      0x03\n        /* \"@openzeppelin/contracts/token/ERC20/ERC20.sol\":2237:2249  return _name */\n      dup1\n      sload\n      tag_153\n      swap1\n      tag_154\n      jump\t// in\n    tag_153:\n      dup1\n      0x1f\n      add\n      0x20\n      dup1\n      swap2\n      div\n      mul\n      0x20\n      add\n      mload(0x40)\n      swap1\n      dup2\n      add\n      0x40\n      mstore\n      dup1\n      swap3\n      swap2\n      swap1\n      dup2\n      dup2\n      mstore\n      0x20\n      add\n      dup3\n      dup1\n      sload\n      tag_155\n      swap1\n      tag_154\n      jump\t// in\n    tag_155:\n      dup1\n      iszero\n      tag_156\n      jumpi\n      dup1\n      0x1f\n      lt\n      tag_157\n      jumpi\n      0x0100\n      dup1\n      dup4\n      sload\n      div\n      mul\n      dup4\n      mstore\n      swap2\n      0x20\n      add\n      swap2\n      jump(tag_156)\n    tag_157:\n      dup3\n      add\n      swap2\n      swap1\n      0x00\n      mstore\n      keccak256(0x00, 0x20)\n      swap1\n    tag_158:\n      dup2\n      sload\n      dup2\n      mstore\n      swap1\n      0x01\n      add\n      swap1\n      0x20\n      add\n      dup1\n      dup4\n      gt\n      tag_158\n      jumpi\n      dup3\n      swap1\n      sub\n      0x1f\n      and\n      dup3\n      add\n      swap2\n    tag_156:\n      pop\n      pop\n      pop\n      pop\n      pop\n      swap1\n      pop\n        /* \"@openzeppelin/contracts/token/ERC20/ERC20.sol\":2158:2256  function name() public view virtual override returns (string memory) {... */\n      swap1\n      jump\t// out\n        /* \"@openzeppelin/contracts/token/ERC20/ERC20.sol\":4444:4641  function approve(address spender, uint256 amount) public virtual override returns (bool) {... */\n    tag_42:\n        /* \"@openzeppelin/contracts/token/ERC20/ERC20.sol\":4527:4531  bool */\n      0x00\n        /* \"@openzeppelin/contracts/token/ERC20/ERC20.sol\":4543:4556  address owner */\n      dup1\n        /* \"@openzeppelin/contracts/token/ERC20/ERC20.sol\":4559:4571  _msgSender() */\n      tag_160\n        /* \"@openzeppelin/contracts/token/ERC20/ERC20.sol\":4559:4569  _msgSender */\n      tag_161\n        /* \"@openzeppelin/contracts/token/ERC20/ERC20.sol\":4559:4571  _msgSender() */\n      jump\t// in\n    tag_160:\n        /* \"@openzeppelin/contracts/token/ERC20/ERC20.sol\":4543:4571  address owner = _msgSender() */\n      swap1\n      pop\n        /* \"@openzeppelin/contracts/token/ERC20/ERC20.sol\":4581:4613  _approve(owner, spender, amount) */\n      tag_162\n        /* \"@openzeppelin/contracts/token/ERC20/ERC20.sol\":4590:4595  owner */\n      dup2\n        /* \"@openzeppelin/contracts/token/ERC20/ERC20.sol\":4597:4604  spender */\n      dup6\n        /* \"@openzeppelin/contracts/token/ERC20/ERC20.sol\":4606:4612  amount */\n      dup6\n        /* \"@openzeppelin/contracts/token/ERC20/ERC20.sol\":4581:4589  _approve */\n      tag_163\n        /* \"@openzeppelin/contracts/token/ERC20/ERC20.sol\":4581:4613  _approve(owner, spender, amount) */\n      jump\t// in\n    tag_162:\n        /* \"@openzeppelin/contracts/token/ERC20/ERC20.sol\":4630:4634  true */\n      0x01\n        /* \"@openzeppelin/contracts/token/ERC20/ERC20.sol\":4623:4634  return true */\n      swap2\n      pop\n      pop\n        /* \"@openzeppelin/contracts/token/ERC20/ERC20.sol\":4444:4641  function approve(address spender, uint256 amount) public virtual override returns (bool) {... */\n      swap3\n      swap2\n      pop\n      pop\n      jump\t// out\n        /* \"@openzeppelin/contracts/token/ERC20/ERC20.sol\":3255:3361  function totalSupply() public view virtual override returns (uint256) {... */\n    tag_47:\n        /* \"@openzeppelin/contracts/token/ERC20/ERC20.sol\":3316:3323  uint256 */\n      0x00\n        /* \"@openzeppelin/contracts/token/ERC20/ERC20.sol\":3342:3354  _totalSupply */\n      sload(0x02)\n        /* \"@openzeppelin/contracts/token/ERC20/ERC20.sol\":3335:3354  return _totalSupply */\n      swap1\n      pop\n        /* \"@openzeppelin/contracts/token/ERC20/ERC20.sol\":3255:3361  function totalSupply() public view virtual override returns (uint256) {... */\n      swap1\n      jump\t// out\n        /* \"@openzeppelin/contracts/token/ERC20/ERC20.sol\":5203:5459  function transferFrom(address from, address to, uint256 amount) public virtual override returns (bool) {... */\n    tag_54:\n        /* \"@openzeppelin/contracts/token/ERC20/ERC20.sol\":5300:5304  bool */\n      0x00\n        /* \"@openzeppelin/contracts/token/ERC20/ERC20.sol\":5316:5331  address spender */\n      dup1\n        /* \"@openzeppelin/contracts/token/ERC20/ERC20.sol\":5334:5346  _msgSender() */\n      tag_166\n        /* \"@openzeppelin/contracts/token/ERC20/ERC20.sol\":5334:5344  _msgSender */\n      tag_161\n        /* \"@openzeppelin/contracts/token/ERC20/ERC20.sol\":5334:5346  _msgSender() */\n      jump\t// in\n    tag_166:\n        /* \"@openzeppelin/contracts/token/ERC20/ERC20.sol\":5316:5346  address spender = _msgSender() */\n      swap1\n      pop\n        /* \"@openzeppelin/contracts/token/ERC20/ERC20.sol\":5356:5394  _spendAllowance(from, spender, amount) */\n      tag_167\n        /* \"@openzeppelin/contracts/token/ERC20/ERC20.sol\":5372:5376  from */\n      dup6\n        /* \"@openzeppelin/contracts/token/ERC20/ERC20.sol\":5378:5385  spender */\n      dup3\n        /* \"@openzeppelin/contracts/token/ERC20/ERC20.sol\":5387:5393  amount */\n      dup6\n        /* \"@openzeppelin/contracts/token/ERC20/ERC20.sol\":5356:5371  _spendAllowance */\n      tag_168\n        /* \"@openzeppelin/contracts/token/ERC20/ERC20.sol\":5356:5394  _spendAllowance(from, spender, amount) */\n      jump\t// in\n    tag_167:\n        /* \"@openzeppelin/contracts/token/ERC20/ERC20.sol\":5404:5431  _transfer(from, to, amount) */\n      tag_169\n        /* \"@openzeppelin/contracts/token/ERC20/ERC20.sol\":5414:5418  from */\n      dup6\n        /* \"@openzeppelin/contracts/token/ERC20/ERC20.sol\":5420:5422  to */\n      dup6\n        /* \"@openzeppelin/contracts/token/ERC20/ERC20.sol\":5424:5430  amount */\n      dup6\n        /* \"@openzeppelin/contracts/token/ERC20/ERC20.sol\":5404:5413  _transfer */\n      tag_170\n        /* \"@openzeppelin/contracts/token/ERC20/ERC20.sol\":5404:5431  _transfer(from, to, amount) */\n      jump\t// in\n    tag_169:\n        /* \"@openzeppelin/contracts/token/ERC20/ERC20.sol\":5448:5452  true */\n      0x01\n        /* \"@openzeppelin/contracts/token/ERC20/ERC20.sol\":5441:5452  return true */\n      swap2\n      pop\n      pop\n        /* \"@openzeppelin/contracts/token/ERC20/ERC20.sol\":5203:5459  function transferFrom(address from, address to, uint256 amount) public virtual override returns (bool) {... */\n      swap4\n      swap3\n      pop\n      pop\n      pop\n      jump\t// out\n        /* \"staking1_test.sol\":2195:3018  function unstake(uint256 _numTokens) external { ... */\n    tag_60:\n        /* \"staking1_test.sol\":2273:2274  0 */\n      0x00\n        /* \"staking1_test.sol\":2260:2270  _numTokens */\n      dup2\n        /* \"staking1_test.sol\":2260:2274  _numTokens > 0 */\n      gt\n        /* \"staking1_test.sol\":2252:2313  require(_numTokens > 0, \"Must unstake more than zero tokens\") */\n      tag_172\n      jumpi\n      mload(0x40)\n      0x08c379a000000000000000000000000000000000000000000000000000000000\n      dup2\n      mstore\n      0x04\n      add\n      tag_173\n      swap1\n      tag_174\n      jump\t// in\n    tag_173:\n      mload(0x40)\n      dup1\n      swap2\n      sub\n      swap1\n      revert\n    tag_172:\n        /* \"staking1_test.sol\":2372:2382  _numTokens */\n      dup1\n        /* \"staking1_test.sol\":2332:2343  stakingInfo */\n      0x08\n        /* \"staking1_test.sol\":2332:2355  stakingInfo[msg.sender] */\n      0x00\n        /* \"staking1_test.sol\":2344:2354  msg.sender */\n      caller\n        /* \"staking1_test.sol\":2332:2355  stakingInfo[msg.sender] */\n      0xffffffffffffffffffffffffffffffffffffffff\n      and\n      0xffffffffffffffffffffffffffffffffffffffff\n      and\n      dup2\n      mstore\n      0x20\n      add\n      swap1\n      dup2\n      mstore\n      0x20\n      add\n      0x00\n      keccak256\n        /* \"staking1_test.sol\":2332:2368  stakingInfo[msg.sender].stakedAmount */\n      0x00\n      add\n      sload\n        /* \"staking1_test.sol\":2332:2382  stakingInfo[msg.sender].stakedAmount >= _numTokens */\n      lt\n      iszero\n        /* \"staking1_test.sol\":2324:2415  require(stakingInfo[msg.sender].stakedAmount >= _numTokens, \"Not Enough Tokens To Unstake\") */\n      tag_175\n      jumpi\n      mload(0x40)\n      0x08c379a000000000000000000000000000000000000000000000000000000000\n      dup2\n      mstore\n      0x04\n      add\n      tag_176\n      swap1\n      tag_177\n      jump\t// in\n    tag_176:\n      mload(0x40)\n      dup1\n      swap2\n      sub\n      swap1\n      revert\n    tag_175:\n        /* \"staking1_test.sol\":2435:2459  UpdateReward(msg.sender) */\n      tag_178\n        /* \"staking1_test.sol\":2448:2458  msg.sender */\n      caller\n        /* \"staking1_test.sol\":2435:2447  UpdateReward */\n      tag_179\n        /* \"staking1_test.sol\":2435:2459  UpdateReward(msg.sender) */\n      jump\t// in\n    tag_178:\n        /* \"staking1_test.sol\":2507:2517  _numTokens */\n      dup1\n        /* \"staking1_test.sol\":2469:2480  stakingInfo */\n      0x08\n        /* \"staking1_test.sol\":2469:2492  stakingInfo[msg.sender] */\n      0x00\n        /* \"staking1_test.sol\":2481:2491  msg.sender */\n      caller\n        /* \"staking1_test.sol\":2469:2492  stakingInfo[msg.sender] */\n      0xffffffffffffffffffffffffffffffffffffffff\n      and\n      0xffffffffffffffffffffffffffffffffffffffff\n      and\n      dup2\n      mstore\n      0x20\n      add\n      swap1\n      dup2\n      mstore\n      0x20\n      add\n      0x00\n      keccak256\n        /* \"staking1_test.sol\":2469:2505  stakingInfo[msg.sender].stakedAmount */\n      0x00\n      add\n      0x00\n        /* \"staking1_test.sol\":2469:2517  stakingInfo[msg.sender].stakedAmount-=_numTokens */\n      dup3\n      dup3\n      sload\n      tag_180\n      swap2\n      swap1\n      tag_181\n      jump\t// in\n    tag_180:\n      swap3\n      pop\n      pop\n      dup2\n      swap1\n      sstore\n      pop\n        /* \"staking1_test.sol\":2569:2570  0 */\n      0x00\n        /* \"staking1_test.sol\":2531:2542  stakingInfo */\n      0x08\n        /* \"staking1_test.sol\":2531:2554  stakingInfo[msg.sender] */\n      0x00\n        /* \"staking1_test.sol\":2543:2553  msg.sender */\n      caller\n        /* \"staking1_test.sol\":2531:2554  stakingInfo[msg.sender] */\n      0xffffffffffffffffffffffffffffffffffffffff\n      and\n      0xffffffffffffffffffffffffffffffffffffffff\n      and\n      dup2\n      mstore\n      0x20\n      add\n      swap1\n      dup2\n      mstore\n      0x20\n      add\n      0x00\n      keccak256\n        /* \"staking1_test.sol\":2531:2567  stakingInfo[msg.sender].stakedAmount */\n      0x00\n      add\n      sload\n        /* \"staking1_test.sol\":2531:2570  stakingInfo[msg.sender].stakedAmount==0 */\n      sub\n        /* \"staking1_test.sol\":2527:2942  if (stakingInfo[msg.sender].stakedAmount==0) { ... */\n      tag_182\n      jumpi\n        /* \"staking1_test.sol\":2592:2601  uint256 i */\n      0x00\n        /* \"staking1_test.sol\":2587:2932  for (uint256 i = 0; i < users.length; i++) {... */\n    tag_183:\n        /* \"staking1_test.sol\":2611:2616  users */\n      0x09\n        /* \"staking1_test.sol\":2611:2623  users.length */\n      dup1\n      sload\n      swap1\n      pop\n        /* \"staking1_test.sol\":2607:2608  i */\n      dup2\n        /* \"staking1_test.sol\":2607:2623  i < users.length */\n      lt\n        /* \"staking1_test.sol\":2587:2932  for (uint256 i = 0; i < users.length; i++) {... */\n      iszero\n      tag_184\n      jumpi\n        /* \"staking1_test.sol\":2664:2674  msg.sender */\n      caller\n        /* \"staking1_test.sol\":2652:2674  users[i] == msg.sender */\n      0xffffffffffffffffffffffffffffffffffffffff\n      and\n        /* \"staking1_test.sol\":2652:2657  users */\n      0x09\n        /* \"staking1_test.sol\":2658:2659  i */\n      dup3\n        /* \"staking1_test.sol\":2652:2660  users[i] */\n      dup2\n      sload\n      dup2\n      lt\n      tag_186\n      jumpi\n      tag_187\n      tag_188\n      jump\t// in\n    tag_187:\n    tag_186:\n      swap1\n      0x00\n      mstore\n      keccak256(0x00, 0x20)\n      add\n      0x00\n      swap1\n      sload\n      swap1\n      0x0100\n      exp\n      swap1\n      div\n      0xffffffffffffffffffffffffffffffffffffffff\n      and\n        /* \"staking1_test.sol\":2652:2674  users[i] == msg.sender */\n      0xffffffffffffffffffffffffffffffffffffffff\n      and\n      sub\n        /* \"staking1_test.sol\":2648:2918  if (users[i] == msg.sender) {... */\n      tag_190\n      jumpi\n        /* \"staking1_test.sol\":2709:2714  users */\n      0x09\n        /* \"staking1_test.sol\":2730:2731  1 */\n      0x01\n        /* \"staking1_test.sol\":2715:2720  users */\n      0x09\n        /* \"staking1_test.sol\":2715:2727  users.length */\n      dup1\n      sload\n      swap1\n      pop\n        /* \"staking1_test.sol\":2715:2731  users.length - 1 */\n      tag_191\n      swap2\n      swap1\n      tag_181\n      jump\t// in\n    tag_191:\n        /* \"staking1_test.sol\":2709:2732  users[users.length - 1] */\n      dup2\n      sload\n      dup2\n      lt\n      tag_192\n      jumpi\n      tag_193\n      tag_188\n      jump\t// in\n    tag_193:\n    tag_192:\n      swap1\n      0x00\n      mstore\n      keccak256(0x00, 0x20)\n      add\n      0x00\n      swap1\n      sload\n      swap1\n      0x0100\n      exp\n      swap1\n      div\n      0xffffffffffffffffffffffffffffffffffffffff\n      and\n        /* \"staking1_test.sol\":2698:2703  users */\n      0x09\n        /* \"staking1_test.sol\":2704:2705  i */\n      dup3\n        /* \"staking1_test.sol\":2698:2706  users[i] */\n      dup2\n      sload\n      dup2\n      lt\n      tag_195\n      jumpi\n      tag_196\n      tag_188\n      jump\t// in\n    tag_196:\n    tag_195:\n      swap1\n      0x00\n      mstore\n      keccak256(0x00, 0x20)\n      add\n      0x00\n        /* \"staking1_test.sol\":2698:2732  users[i] = users[users.length - 1] */\n      0x0100\n      exp\n      dup2\n      sload\n      dup2\n      0xffffffffffffffffffffffffffffffffffffffff\n      mul\n      not\n      and\n      swap1\n      dup4\n      0xffffffffffffffffffffffffffffffffffffffff\n      and\n      mul\n      or\n      swap1\n      sstore\n      pop\n        /* \"staking1_test.sol\":2808:2813  users */\n      0x09\n        /* \"staking1_test.sol\":2808:2819  users.pop() */\n      dup1\n      sload\n      dup1\n      tag_198\n      jumpi\n      tag_199\n      tag_200\n      jump\t// in\n    tag_199:\n    tag_198:\n      0x01\n      swap1\n      sub\n      dup2\n      dup2\n      swap1\n      0x00\n      mstore\n      keccak256(0x00, 0x20)\n      add\n      exp(0x0100, 0x00)\n      dup2\n      sload\n      swap1\n      0xffffffffffffffffffffffffffffffffffffffff\n      mul\n      not\n      and\n      swap1\n      sstore\n      swap1\n      sstore\n        /* \"staking1_test.sol\":2894:2899  break */\n      jump(tag_184)\n        /* \"staking1_test.sol\":2648:2918  if (users[i] == msg.sender) {... */\n    tag_190:\n        /* \"staking1_test.sol\":2625:2628  i++ */\n      dup1\n      dup1\n      tag_202\n      swap1\n      tag_203\n      jump\t// in\n    tag_202:\n      swap2\n      pop\n      pop\n        /* \"staking1_test.sol\":2587:2932  for (uint256 i = 0; i < users.length; i++) {... */\n      jump(tag_183)\n    tag_184:\n      pop\n        /* \"staking1_test.sol\":2527:2942  if (stakingInfo[msg.sender].stakedAmount==0) { ... */\n    tag_182:\n        /* \"staking1_test.sol\":2960:3008  _transfer(address(this), msg.sender, _numTokens) */\n      tag_204\n        /* \"staking1_test.sol\":2978:2982  this */\n      address\n        /* \"staking1_test.sol\":2985:2995  msg.sender */\n      caller\n        /* \"staking1_test.sol\":2997:3007  _numTokens */\n      dup4\n        /* \"staking1_test.sol\":2960:2969  _transfer */\n      tag_170\n        /* \"staking1_test.sol\":2960:3008  _transfer(address(this), msg.sender, _numTokens) */\n      jump\t// in\n    tag_204:\n        /* \"staking1_test.sol\":2195:3018  function unstake(uint256 _numTokens) external { ... */\n      pop\n      jump\t// out\n        /* \"@openzeppelin/contracts/token/ERC20/ERC20.sol\":3104:3195  function decimals() public view virtual override returns (uint8) {... */\n    tag_63:\n        /* \"@openzeppelin/contracts/token/ERC20/ERC20.sol\":3162:3167  uint8 */\n      0x00\n        /* \"@openzeppelin/contracts/token/ERC20/ERC20.sol\":3186:3188  18 */\n      0x12\n        /* \"@openzeppelin/contracts/token/ERC20/ERC20.sol\":3179:3188  return 18 */\n      swap1\n      pop\n        /* \"@openzeppelin/contracts/token/ERC20/ERC20.sol\":3104:3195  function decimals() public view virtual override returns (uint8) {... */\n      swap1\n      jump\t// out\n        /* \"staking1_test.sol\":1212:1552  function buyTokens(uint256 _numTokens) external payable { ... */\n    tag_68:\n        /* \"staking1_test.sol\":1313:1323  tokenPrice */\n      sload(0x06)\n        /* \"staking1_test.sol\":1300:1310  _numTokens */\n      dup2\n        /* \"staking1_test.sol\":1300:1323  _numTokens * tokenPrice */\n      tag_207\n      swap2\n      swap1\n      tag_208\n      jump\t// in\n    tag_207:\n        /* \"staking1_test.sol\":1287:1296  msg.value */\n      callvalue\n        /* \"staking1_test.sol\":1287:1323  msg.value >= _numTokens * tokenPrice */\n      lt\n      iszero\n        /* \"staking1_test.sol\":1279:1352  require(msg.value >= _numTokens * tokenPrice, \"Insufficient ethers sent\") */\n      tag_209\n      jumpi\n      mload(0x40)\n      0x08c379a000000000000000000000000000000000000000000000000000000000\n      dup2\n      mstore\n      0x04\n      add\n      tag_210\n      swap1\n      tag_211\n      jump\t// in\n    tag_210:\n      mload(0x40)\n      dup1\n      swap2\n      sub\n      swap1\n      revert\n    tag_209:\n        /* \"staking1_test.sol\":1363:1392  _mint(msg.sender, _numTokens) */\n      tag_212\n        /* \"staking1_test.sol\":1369:1379  msg.sender */\n      caller\n        /* \"staking1_test.sol\":1381:1391  _numTokens */\n      dup3\n        /* \"staking1_test.sol\":1363:1368  _mint */\n      tag_213\n        /* \"staking1_test.sol\":1363:1392  _mint(msg.sender, _numTokens) */\n      jump\t// in\n    tag_212:\n        /* \"staking1_test.sol\":1432:1442  tokenPrice */\n      sload(0x06)\n        /* \"staking1_test.sol\":1419:1429  _numTokens */\n      dup2\n        /* \"staking1_test.sol\":1419:1442  _numTokens * tokenPrice */\n      tag_214\n      swap2\n      swap1\n      tag_208\n      jump\t// in\n    tag_214:\n        /* \"staking1_test.sol\":1406:1415  msg.value */\n      callvalue\n        /* \"staking1_test.sol\":1406:1443  msg.value > (_numTokens * tokenPrice) */\n      gt\n        /* \"staking1_test.sol\":1402:1545  if (msg.value > (_numTokens * tokenPrice))... */\n      iszero\n      tag_215\n      jumpi\n        /* \"staking1_test.sol\":1475:1485  msg.sender */\n      caller\n        /* \"staking1_test.sol\":1467:1495  payable(msg.sender).transfer */\n      0xffffffffffffffffffffffffffffffffffffffff\n      and\n        /* \"staking1_test.sol\":1467:1534  payable(msg.sender).transfer(msg.value - (_numTokens * tokenPrice)) */\n      0x08fc\n        /* \"staking1_test.sol\":1522:1532  tokenPrice */\n      sload(0x06)\n        /* \"staking1_test.sol\":1509:1519  _numTokens */\n      dup4\n        /* \"staking1_test.sol\":1509:1532  _numTokens * tokenPrice */\n      tag_216\n      swap2\n      swap1\n      tag_208\n      jump\t// in\n    tag_216:\n        /* \"staking1_test.sol\":1496:1505  msg.value */\n      callvalue\n        /* \"staking1_test.sol\":1496:1533  msg.value - (_numTokens * tokenPrice) */\n      tag_217\n      swap2\n      swap1\n      tag_181\n      jump\t// in\n    tag_217:\n        /* \"staking1_test.sol\":1467:1534  payable(msg.sender).transfer(msg.value - (_numTokens * tokenPrice)) */\n      swap1\n      dup2\n      iszero\n      mul\n      swap1\n      mload(0x40)\n      0x00\n      mload(0x40)\n      dup1\n      dup4\n      sub\n      dup2\n      dup6\n      dup9\n      dup9\n      call\n      swap4\n      pop\n      pop\n      pop\n      pop\n      iszero\n      dup1\n      iszero\n      tag_219\n      jumpi\n      returndatasize\n      0x00\n      dup1\n      returndatacopy\n      revert(0x00, returndatasize)\n    tag_219:\n      pop\n        /* \"staking1_test.sol\":1402:1545  if (msg.value > (_numTokens * tokenPrice))... */\n    tag_215:\n        /* \"staking1_test.sol\":1212:1552  function buyTokens(uint256 _numTokens) external payable { ... */\n      pop\n      jump\t// out\n        /* \"staking1_test.sol\":3026:3295  function claimRewards() external{ ... */\n    tag_71:\n        /* \"staking1_test.sol\":3069:3093  UpdateReward(msg.sender) */\n      tag_221\n        /* \"staking1_test.sol\":3082:3092  msg.sender */\n      caller\n        /* \"staking1_test.sol\":3069:3081  UpdateReward */\n      tag_179\n        /* \"staking1_test.sol\":3069:3093  UpdateReward(msg.sender) */\n      jump\t// in\n    tag_221:\n        /* \"staking1_test.sol\":3146:3147  0 */\n      0x00\n        /* \"staking1_test.sol\":3112:3123  stakingInfo */\n      0x08\n        /* \"staking1_test.sol\":3112:3135  stakingInfo[msg.sender] */\n      0x00\n        /* \"staking1_test.sol\":3124:3134  msg.sender */\n      caller\n        /* \"staking1_test.sol\":3112:3135  stakingInfo[msg.sender] */\n      0xffffffffffffffffffffffffffffffffffffffff\n      and\n      0xffffffffffffffffffffffffffffffffffffffff\n      and\n      dup2\n      mstore\n      0x20\n      add\n      swap1\n      dup2\n      mstore\n      0x20\n      add\n      0x00\n      keccak256\n        /* \"staking1_test.sol\":3112:3143  stakingInfo[msg.sender].rewards */\n      0x02\n      add\n      sload\n        /* \"staking1_test.sol\":3112:3147  stakingInfo[msg.sender].rewards > 0 */\n      gt\n        /* \"staking1_test.sol\":3104:3171  require(stakingInfo[msg.sender].rewards > 0, \"No rewards to claim\") */\n      tag_222\n      jumpi\n      mload(0x40)\n      0x08c379a000000000000000000000000000000000000000000000000000000000\n      dup2\n      mstore\n      0x04\n      add\n      tag_223\n      swap1\n      tag_224\n      jump\t// in\n    tag_223:\n      mload(0x40)\n      dup1\n      swap2\n      sub\n      swap1\n      revert\n    tag_222:\n        /* \"staking1_test.sol\":3190:3200  msg.sender */\n      caller\n        /* \"staking1_test.sol\":3182:3210  payable(msg.sender).transfer */\n      0xffffffffffffffffffffffffffffffffffffffff\n      and\n        /* \"staking1_test.sol\":3182:3243  payable(msg.sender).transfer(stakingInfo[msg.sender].rewards) */\n      0x08fc\n        /* \"staking1_test.sol\":3211:3222  stakingInfo */\n      0x08\n        /* \"staking1_test.sol\":3211:3234  stakingInfo[msg.sender] */\n      0x00\n        /* \"staking1_test.sol\":3223:3233  msg.sender */\n      caller\n        /* \"staking1_test.sol\":3211:3234  stakingInfo[msg.sender] */\n      0xffffffffffffffffffffffffffffffffffffffff\n      and\n      0xffffffffffffffffffffffffffffffffffffffff\n      and\n      dup2\n      mstore\n      0x20\n      add\n      swap1\n      dup2\n      mstore\n      0x20\n      add\n      0x00\n      keccak256\n        /* \"staking1_test.sol\":3211:3242  stakingInfo[msg.sender].rewards */\n      0x02\n      add\n      sload\n        /* \"staking1_test.sol\":3182:3243  payable(msg.sender).transfer(stakingInfo[msg.sender].rewards) */\n      swap1\n      dup2\n      iszero\n      mul\n      swap1\n      mload(0x40)\n      0x00\n      mload(0x40)\n      dup1\n      dup4\n      sub\n      dup2\n      dup6\n      dup9\n      dup9\n      call\n      swap4\n      pop\n      pop\n      pop\n      pop\n      iszero\n      dup1\n      iszero\n      tag_226\n      jumpi\n      returndatasize\n      0x00\n      dup1\n      returndatacopy\n      revert(0x00, returndatasize)\n    tag_226:\n      pop\n        /* \"staking1_test.sol\":3287:3288  0 */\n      0x00\n        /* \"staking1_test.sol\":3253:3264  stakingInfo */\n      0x08\n        /* \"staking1_test.sol\":3253:3276  stakingInfo[msg.sender] */\n      0x00\n        /* \"staking1_test.sol\":3265:3275  msg.sender */\n      caller\n        /* \"staking1_test.sol\":3253:3276  stakingInfo[msg.sender] */\n      0xffffffffffffffffffffffffffffffffffffffff\n      and\n      0xffffffffffffffffffffffffffffffffffffffff\n      and\n      dup2\n      mstore\n      0x20\n      add\n      swap1\n      dup2\n      mstore\n      0x20\n      add\n      0x00\n      keccak256\n        /* \"staking1_test.sol\":3253:3284  stakingInfo[msg.sender].rewards */\n      0x02\n      add\n        /* \"staking1_test.sol\":3253:3288  stakingInfo[msg.sender].rewards = 0 */\n      dup2\n      swap1\n      sstore\n      pop\n        /* \"staking1_test.sol\":3026:3295  function claimRewards() external{ ... */\n      jump\t// out\n        /* \"@openzeppelin/contracts/token/ERC20/ERC20.sol\":5854:6088  function increaseAllowance(address spender, uint256 addedValue) public virtual returns (bool) {... */\n    tag_75:\n        /* \"@openzeppelin/contracts/token/ERC20/ERC20.sol\":5942:5946  bool */\n      0x00\n        /* \"@openzeppelin/contracts/token/ERC20/ERC20.sol\":5958:5971  address owner */\n      dup1\n        /* \"@openzeppelin/contracts/token/ERC20/ERC20.sol\":5974:5986  _msgSender() */\n      tag_228\n        /* \"@openzeppelin/contracts/token/ERC20/ERC20.sol\":5974:5984  _msgSender */\n      tag_161\n        /* \"@openzeppelin/contracts/token/ERC20/ERC20.sol\":5974:5986  _msgSender() */\n      jump\t// in\n    tag_228:\n        /* \"@openzeppelin/contracts/token/ERC20/ERC20.sol\":5958:5986  address owner = _msgSender() */\n      swap1\n      pop\n        /* \"@openzeppelin/contracts/token/ERC20/ERC20.sol\":5996:6060  _approve(owner, spender, allowance(owner, spender) + addedValue) */\n      tag_229\n        /* \"@openzeppelin/contracts/token/ERC20/ERC20.sol\":6005:6010  owner */\n      dup2\n        /* \"@openzeppelin/contracts/token/ERC20/ERC20.sol\":6012:6019  spender */\n      dup6\n        /* \"@openzeppelin/contracts/token/ERC20/ERC20.sol\":6049:6059  addedValue */\n      dup6\n        /* \"@openzeppelin/contracts/token/ERC20/ERC20.sol\":6021:6046  allowance(owner, spender) */\n      tag_230\n        /* \"@openzeppelin/contracts/token/ERC20/ERC20.sol\":6031:6036  owner */\n      dup6\n        /* \"@openzeppelin/contracts/token/ERC20/ERC20.sol\":6038:6045  spender */\n      dup10\n        /* \"@openzeppelin/contracts/token/ERC20/ERC20.sol\":6021:6030  allowance */\n      tag_146\n        /* \"@openzeppelin/contracts/token/ERC20/ERC20.sol\":6021:6046  allowance(owner, spender) */\n      jump\t// in\n    tag_230:\n        /* \"@openzeppelin/contracts/token/ERC20/ERC20.sol\":6021:6059  allowance(owner, spender) + addedValue */\n      tag_231\n      swap2\n      swap1\n      tag_232\n      jump\t// in\n    tag_231:\n        /* \"@openzeppelin/contracts/token/ERC20/ERC20.sol\":5996:6004  _approve */\n      tag_163\n        /* \"@openzeppelin/contracts/token/ERC20/ERC20.sol\":5996:6060  _approve(owner, spender, allowance(owner, spender) + addedValue) */\n      jump\t// in\n    tag_229:\n        /* \"@openzeppelin/contracts/token/ERC20/ERC20.sol\":6077:6081  true */\n      0x01\n        /* \"@openzeppelin/contracts/token/ERC20/ERC20.sol\":6070:6081  return true */\n      swap2\n      pop\n      pop\n        /* \"@openzeppelin/contracts/token/ERC20/ERC20.sol\":5854:6088  function increaseAllowance(address spender, uint256 addedValue) public virtual returns (bool) {... */\n      swap3\n      swap2\n      pop\n      pop\n      jump\t// out\n        /* \"@openzeppelin/contracts/token/ERC20/extensions/ERC20Burnable.sol\":578:667  function burn(uint256 amount) public virtual {... */\n    tag_80:\n        /* \"@openzeppelin/contracts/token/ERC20/extensions/ERC20Burnable.sol\":633:660  _burn(_msgSender(), amount) */\n      tag_234\n        /* \"@openzeppelin/contracts/token/ERC20/extensions/ERC20Burnable.sol\":639:651  _msgSender() */\n      tag_235\n        /* \"@openzeppelin/contracts/token/ERC20/extensions/ERC20Burnable.sol\":639:649  _msgSender */\n      tag_161\n        /* \"@openzeppelin/contracts/token/ERC20/extensions/ERC20Burnable.sol\":639:651  _msgSender() */\n      jump\t// in\n    tag_235:\n        /* \"@openzeppelin/contracts/token/ERC20/extensions/ERC20Burnable.sol\":653:659  amount */\n      dup3\n        /* \"@openzeppelin/contracts/token/ERC20/extensions/ERC20Burnable.sol\":633:638  _burn */\n      tag_236\n        /* \"@openzeppelin/contracts/token/ERC20/extensions/ERC20Burnable.sol\":633:660  _burn(_msgSender(), amount) */\n      jump\t// in\n    tag_234:\n        /* \"@openzeppelin/contracts/token/ERC20/extensions/ERC20Burnable.sol\":578:667  function burn(uint256 amount) public virtual {... */\n      pop\n      jump\t// out\n        /* \"staking1_test.sol\":4122:4311  function transferBalanceToOwner() external {... */\n    tag_83:\n        /* \"staking1_test.sol\":4197:4204  owner() */\n      tag_238\n        /* \"staking1_test.sol\":4197:4202  owner */\n      tag_111\n        /* \"staking1_test.sol\":4197:4204  owner() */\n      jump\t// in\n    tag_238:\n        /* \"staking1_test.sol\":4183:4204  msg.sender == owner() */\n      0xffffffffffffffffffffffffffffffffffffffff\n      and\n        /* \"staking1_test.sol\":4183:4193  msg.sender */\n      caller\n        /* \"staking1_test.sol\":4183:4204  msg.sender == owner() */\n      0xffffffffffffffffffffffffffffffffffffffff\n      and\n      eq\n        /* \"staking1_test.sol\":4175:4246  require(msg.sender == owner(), \"Only the owner can call this function\") */\n      tag_239\n      jumpi\n      mload(0x40)\n      0x08c379a000000000000000000000000000000000000000000000000000000000\n      dup2\n      mstore\n      0x04\n      add\n      tag_240\n      swap1\n      tag_241\n      jump\t// in\n    tag_240:\n      mload(0x40)\n      dup1\n      swap2\n      sub\n      swap1\n      revert\n    tag_239:\n        /* \"staking1_test.sol\":4264:4271  owner() */\n      tag_242\n        /* \"staking1_test.sol\":4264:4269  owner */\n      tag_111\n        /* \"staking1_test.sol\":4264:4271  owner() */\n      jump\t// in\n    tag_242:\n        /* \"staking1_test.sol\":4256:4281  payable(owner()).transfer */\n      0xffffffffffffffffffffffffffffffffffffffff\n      and\n        /* \"staking1_test.sol\":4256:4304  payable(owner()).transfer(address(this).balance) */\n      0x08fc\n        /* \"staking1_test.sol\":4282:4303  address(this).balance */\n      selfbalance\n        /* \"staking1_test.sol\":4256:4304  payable(owner()).transfer(address(this).balance) */\n      swap1\n      dup2\n      iszero\n      mul\n      swap1\n      mload(0x40)\n      0x00\n      mload(0x40)\n      dup1\n      dup4\n      sub\n      dup2\n      dup6\n      dup9\n      dup9\n      call\n      swap4\n      pop\n      pop\n      pop\n      pop\n      iszero\n      dup1\n      iszero\n      tag_244\n      jumpi\n      returndatasize\n      0x00\n      dup1\n      returndatacopy\n      revert(0x00, returndatasize)\n    tag_244:\n      pop\n        /* \"staking1_test.sol\":4122:4311  function transferBalanceToOwner() external {... */\n      jump\t// out\n        /* \"staking1_test.sol\":714:816  function setTokenPrice(uint256 _newPrice) external onlyOwner { ... */\n    tag_87:\n        /* \"@openzeppelin/contracts/access/Ownable.sol\":1094:1107  _checkOwner() */\n      tag_246\n        /* \"@openzeppelin/contracts/access/Ownable.sol\":1094:1105  _checkOwner */\n      tag_247\n        /* \"@openzeppelin/contracts/access/Ownable.sol\":1094:1107  _checkOwner() */\n      jump\t// in\n    tag_246:\n        /* \"staking1_test.sol\":799:808  _newPrice */\n      dup1\n        /* \"staking1_test.sol\":786:796  tokenPrice */\n      0x06\n        /* \"staking1_test.sol\":786:808  tokenPrice = _newPrice */\n      dup2\n      swap1\n      sstore\n      pop\n        /* \"staking1_test.sol\":714:816  function setTokenPrice(uint256 _newPrice) external onlyOwner { ... */\n      pop\n      jump\t// out\n        /* \"staking1_test.sol\":3721:4117  function sellTokens(uint256 _numTokens) external { ... */\n    tag_91:\n        /* \"staking1_test.sol\":3814:3824  _numTokens */\n      dup1\n        /* \"staking1_test.sol\":3789:3810  balanceOf(msg.sender) */\n      tag_250\n        /* \"staking1_test.sol\":3799:3809  msg.sender */\n      caller\n        /* \"staking1_test.sol\":3789:3798  balanceOf */\n      tag_96\n        /* \"staking1_test.sol\":3789:3810  balanceOf(msg.sender) */\n      jump\t// in\n    tag_250:\n        /* \"staking1_test.sol\":3789:3824  balanceOf(msg.sender) >= _numTokens */\n      lt\n      iszero\n        /* \"staking1_test.sol\":3781:3848  require(balanceOf(msg.sender) >= _numTokens, \"Insufficient tokens\") */\n      tag_251\n      jumpi\n      mload(0x40)\n      0x08c379a000000000000000000000000000000000000000000000000000000000\n      dup2\n      mstore\n      0x04\n      add\n      tag_252\n      swap1\n      tag_253\n      jump\t// in\n    tag_252:\n      mload(0x40)\n      dup1\n      swap2\n      sub\n      swap1\n      revert\n    tag_251:\n        /* \"staking1_test.sol\":3859:3879  uint256 refundAmount */\n      0x00\n        /* \"staking1_test.sol\":3908:3919  stakingInfo */\n      0x08\n        /* \"staking1_test.sol\":3908:3931  stakingInfo[msg.sender] */\n      0x00\n        /* \"staking1_test.sol\":3920:3930  msg.sender */\n      caller\n        /* \"staking1_test.sol\":3908:3931  stakingInfo[msg.sender] */\n      0xffffffffffffffffffffffffffffffffffffffff\n      and\n      0xffffffffffffffffffffffffffffffffffffffff\n      and\n      dup2\n      mstore\n      0x20\n      add\n      swap1\n      dup2\n      mstore\n      0x20\n      add\n      0x00\n      keccak256\n        /* \"staking1_test.sol\":3908:3939  stakingInfo[msg.sender].rewards */\n      0x02\n      add\n      sload\n        /* \"staking1_test.sol\":3895:3905  tokenPrice */\n      sload(0x06)\n        /* \"staking1_test.sol\":3882:3892  _numTokens */\n      dup4\n        /* \"staking1_test.sol\":3882:3905  _numTokens * tokenPrice */\n      tag_254\n      swap2\n      swap1\n      tag_208\n      jump\t// in\n    tag_254:\n        /* \"staking1_test.sol\":3882:3939  _numTokens * tokenPrice + stakingInfo[msg.sender].rewards */\n      tag_255\n      swap2\n      swap1\n      tag_232\n      jump\t// in\n    tag_255:\n        /* \"staking1_test.sol\":3859:3939  uint256 refundAmount = _numTokens * tokenPrice + stakingInfo[msg.sender].rewards */\n      swap1\n      pop\n        /* \"staking1_test.sol\":3985:3996  stakingInfo */\n      0x08\n        /* \"staking1_test.sol\":3985:4008  stakingInfo[msg.sender] */\n      0x00\n        /* \"staking1_test.sol\":3997:4007  msg.sender */\n      caller\n        /* \"staking1_test.sol\":3985:4008  stakingInfo[msg.sender] */\n      0xffffffffffffffffffffffffffffffffffffffff\n      and\n      0xffffffffffffffffffffffffffffffffffffffff\n      and\n      dup2\n      mstore\n      0x20\n      add\n      swap1\n      dup2\n      mstore\n      0x20\n      add\n      0x00\n      keccak256\n        /* \"staking1_test.sol\":3985:4016  stakingInfo[msg.sender].rewards */\n      0x02\n      add\n      sload\n        /* \"staking1_test.sol\":3950:3961  stakingInfo */\n      0x08\n        /* \"staking1_test.sol\":3950:3973  stakingInfo[msg.sender] */\n      0x00\n        /* \"staking1_test.sol\":3962:3972  msg.sender */\n      caller\n        /* \"staking1_test.sol\":3950:3973  stakingInfo[msg.sender] */\n      0xffffffffffffffffffffffffffffffffffffffff\n      and\n      0xffffffffffffffffffffffffffffffffffffffff\n      and\n      dup2\n      mstore\n      0x20\n      add\n      swap1\n      dup2\n      mstore\n      0x20\n      add\n      0x00\n      keccak256\n        /* \"staking1_test.sol\":3950:3981  stakingInfo[msg.sender].rewards */\n      0x02\n      add\n      0x00\n        /* \"staking1_test.sol\":3950:4016  stakingInfo[msg.sender].rewards -= stakingInfo[msg.sender].rewards */\n      dup3\n      dup3\n      sload\n      tag_256\n      swap2\n      swap1\n      tag_181\n      jump\t// in\n    tag_256:\n      swap3\n      pop\n      pop\n      dup2\n      swap1\n      sstore\n      pop\n        /* \"staking1_test.sol\":4027:4056  _burn(msg.sender, _numTokens) */\n      tag_257\n        /* \"staking1_test.sol\":4033:4043  msg.sender */\n      caller\n        /* \"staking1_test.sol\":4045:4055  _numTokens */\n      dup4\n        /* \"staking1_test.sol\":4027:4032  _burn */\n      tag_236\n        /* \"staking1_test.sol\":4027:4056  _burn(msg.sender, _numTokens) */\n      jump\t// in\n    tag_257:\n        /* \"staking1_test.sol\":4075:4085  msg.sender */\n      caller\n        /* \"staking1_test.sol\":4067:4095  payable(msg.sender).transfer */\n      0xffffffffffffffffffffffffffffffffffffffff\n      and\n        /* \"staking1_test.sol\":4067:4109  payable(msg.sender).transfer(refundAmount) */\n      0x08fc\n        /* \"staking1_test.sol\":4096:4108  refundAmount */\n      dup3\n        /* \"staking1_test.sol\":4067:4109  payable(msg.sender).transfer(refundAmount) */\n      swap1\n      dup2\n      iszero\n      mul\n      swap1\n      mload(0x40)\n      0x00\n      mload(0x40)\n      dup1\n      dup4\n      sub\n      dup2\n      dup6\n      dup9\n      dup9\n      call\n      swap4\n      pop\n      pop\n      pop\n      pop\n      iszero\n      dup1\n      iszero\n      tag_259\n      jumpi\n      returndatasize\n      0x00\n      dup1\n      returndatacopy\n      revert(0x00, returndatasize)\n    tag_259:\n      pop\n        /* \"staking1_test.sol\":3770:4117  { ... */\n      pop\n        /* \"staking1_test.sol\":3721:4117  function sellTokens(uint256 _numTokens) external { ... */\n      pop\n      jump\t// out\n        /* \"@openzeppelin/contracts/token/ERC20/ERC20.sol\":3419:3544  function balanceOf(address account) public view virtual override returns (uint256) {... */\n    tag_96:\n        /* \"@openzeppelin/contracts/token/ERC20/ERC20.sol\":3493:3500  uint256 */\n      0x00\n        /* \"@openzeppelin/contracts/token/ERC20/ERC20.sol\":3519:3528  _balances */\n      dup1\n        /* \"@openzeppelin/contracts/token/ERC20/ERC20.sol\":3519:3537  _balances[account] */\n      0x00\n        /* \"@openzeppelin/contracts/token/ERC20/ERC20.sol\":3529:3536  account */\n      dup4\n        /* \"@openzeppelin/contracts/token/ERC20/ERC20.sol\":3519:3537  _balances[account] */\n      0xffffffffffffffffffffffffffffffffffffffff\n      and\n      0xffffffffffffffffffffffffffffffffffffffff\n      and\n      dup2\n      mstore\n      0x20\n      add\n      swap1\n      dup2\n      mstore\n      0x20\n      add\n      0x00\n      keccak256\n      sload\n        /* \"@openzeppelin/contracts/token/ERC20/ERC20.sol\":3512:3537  return _balances[account] */\n      swap1\n      pop\n        /* \"@openzeppelin/contracts/token/ERC20/ERC20.sol\":3419:3544  function balanceOf(address account) public view virtual override returns (uint256) {... */\n      swap2\n      swap1\n      pop\n      jump\t// out\n        /* \"@openzeppelin/contracts/access/Ownable.sol\":1824:1925  function renounceOwnership() public virtual onlyOwner {... */\n    tag_100:\n        /* \"@openzeppelin/contracts/access/Ownable.sol\":1094:1107  _checkOwner() */\n      tag_262\n        /* \"@openzeppelin/contracts/access/Ownable.sol\":1094:1105  _checkOwner */\n      tag_247\n        /* \"@openzeppelin/contracts/access/Ownable.sol\":1094:1107  _checkOwner() */\n      jump\t// in\n    tag_262:\n        /* \"@openzeppelin/contracts/access/Ownable.sol\":1888:1918  _transferOwnership(address(0)) */\n      tag_264\n        /* \"@openzeppelin/contracts/access/Ownable.sol\":1915:1916  0 */\n      0x00\n        /* \"@openzeppelin/contracts/access/Ownable.sol\":1888:1906  _transferOwnership */\n      tag_265\n        /* \"@openzeppelin/contracts/access/Ownable.sol\":1888:1918  _transferOwnership(address(0)) */\n      jump\t// in\n    tag_264:\n        /* \"@openzeppelin/contracts/access/Ownable.sol\":1824:1925  function renounceOwnership() public virtual onlyOwner {... */\n      jump\t// out\n        /* \"@openzeppelin/contracts/token/ERC20/extensions/ERC20Burnable.sol\":973:1134  function burnFrom(address account, uint256 amount) public virtual {... */\n    tag_104:\n        /* \"@openzeppelin/contracts/token/ERC20/extensions/ERC20Burnable.sol\":1049:1095  _spendAllowance(account, _msgSender(), amount) */\n      tag_267\n        /* \"@openzeppelin/contracts/token/ERC20/extensions/ERC20Burnable.sol\":1065:1072  account */\n      dup3\n        /* \"@openzeppelin/contracts/token/ERC20/extensions/ERC20Burnable.sol\":1074:1086  _msgSender() */\n      tag_268\n        /* \"@openzeppelin/contracts/token/ERC20/extensions/ERC20Burnable.sol\":1074:1084  _msgSender */\n      tag_161\n        /* \"@openzeppelin/contracts/token/ERC20/extensions/ERC20Burnable.sol\":1074:1086  _msgSender() */\n      jump\t// in\n    tag_268:\n        /* \"@openzeppelin/contracts/token/ERC20/extensions/ERC20Burnable.sol\":1088:1094  amount */\n      dup4\n        /* \"@openzeppelin/contracts/token/ERC20/extensions/ERC20Burnable.sol\":1049:1064  _spendAllowance */\n      tag_168\n        /* \"@openzeppelin/contracts/token/ERC20/extensions/ERC20Burnable.sol\":1049:1095  _spendAllowance(account, _msgSender(), amount) */\n      jump\t// in\n    tag_267:\n        /* \"@openzeppelin/contracts/token/ERC20/extensions/ERC20Burnable.sol\":1105:1127  _burn(account, amount) */\n      tag_269\n        /* \"@openzeppelin/contracts/token/ERC20/extensions/ERC20Burnable.sol\":1111:1118  account */\n      dup3\n        /* \"@openzeppelin/contracts/token/ERC20/extensions/ERC20Burnable.sol\":1120:1126  amount */\n      dup3\n        /* \"@openzeppelin/contracts/token/ERC20/extensions/ERC20Burnable.sol\":1105:1110  _burn */\n      tag_236\n        /* \"@openzeppelin/contracts/token/ERC20/extensions/ERC20Burnable.sol\":1105:1127  _burn(account, amount) */\n      jump\t// in\n    tag_269:\n        /* \"@openzeppelin/contracts/token/ERC20/extensions/ERC20Burnable.sol\":973:1134  function burnFrom(address account, uint256 amount) public virtual {... */\n      pop\n      pop\n      jump\t// out\n        /* \"staking1_test.sol\":304:329  uint256 public tokenPrice */\n    tag_107:\n      sload(0x06)\n      dup2\n      jump\t// out\n        /* \"@openzeppelin/contracts/access/Ownable.sol\":1201:1286  function owner() public view virtual returns (address) {... */\n    tag_111:\n        /* \"@openzeppelin/contracts/access/Ownable.sol\":1247:1254  address */\n      0x00\n        /* \"@openzeppelin/contracts/access/Ownable.sol\":1273:1279  _owner */\n      0x05\n      0x00\n      swap1\n      sload\n      swap1\n      0x0100\n      exp\n      swap1\n      div\n      0xffffffffffffffffffffffffffffffffffffffff\n      and\n        /* \"@openzeppelin/contracts/access/Ownable.sol\":1266:1279  return _owner */\n      swap1\n      pop\n        /* \"@openzeppelin/contracts/access/Ownable.sol\":1201:1286  function owner() public view virtual returns (address) {... */\n      swap1\n      jump\t// out\n        /* \"staking1_test.sol\":552:602  mapping(address => StakingInfo) public stakingInfo */\n    tag_117:\n      mstore(0x20, 0x08)\n      dup1\n      0x00\n      mstore\n      keccak256(0x00, 0x40)\n      0x00\n      swap2\n      pop\n      swap1\n      pop\n      dup1\n      0x00\n      add\n      sload\n      swap1\n      dup1\n      0x01\n      add\n      sload\n      swap1\n      dup1\n      0x02\n      add\n      sload\n      swap1\n      pop\n      dup4\n      jump\t// out\n        /* \"@openzeppelin/contracts/token/ERC20/ERC20.sol\":2369:2471  function symbol() public view virtual override returns (string memory) {... */\n    tag_122:\n        /* \"@openzeppelin/contracts/token/ERC20/ERC20.sol\":2425:2438  string memory */\n      0x60\n        /* \"@openzeppelin/contracts/token/ERC20/ERC20.sol\":2457:2464  _symbol */\n      0x04\n        /* \"@openzeppelin/contracts/token/ERC20/ERC20.sol\":2450:2464  return _symbol */\n      dup1\n      sload\n      tag_272\n      swap1\n      tag_154\n      jump\t// in\n    tag_272:\n      dup1\n      0x1f\n      add\n      0x20\n      dup1\n      swap2\n      div\n      mul\n      0x20\n      add\n      mload(0x40)\n      swap1\n      dup2\n      add\n      0x40\n      mstore\n      dup1\n      swap3\n      swap2\n      swap1\n      dup2\n      dup2\n      mstore\n      0x20\n      add\n      dup3\n      dup1\n      sload\n      tag_273\n      swap1\n      tag_154\n      jump\t// in\n    tag_273:\n      dup1\n      iszero\n      tag_274\n      jumpi\n      dup1\n      0x1f\n      lt\n      tag_275\n      jumpi\n      0x0100\n      dup1\n      dup4\n      sload\n      div\n      mul\n      dup4\n      mstore\n      swap2\n      0x20\n      add\n      swap2\n      jump(tag_274)\n    tag_275:\n      dup3\n      add\n      swap2\n      swap1\n      0x00\n      mstore\n      keccak256(0x00, 0x20)\n      swap1\n    tag_276:\n      dup2\n      sload\n      dup2\n      mstore\n      swap1\n      0x01\n      add\n      swap1\n      0x20\n      add\n      dup1\n      dup4\n      gt\n      tag_276\n      jumpi\n      dup3\n      swap1\n      sub\n      0x1f\n      and\n      dup3\n      add\n      swap2\n    tag_274:\n      pop\n      pop\n      pop\n      pop\n      pop\n      swap1\n      pop\n        /* \"@openzeppelin/contracts/token/ERC20/ERC20.sol\":2369:2471  function symbol() public view virtual override returns (string memory) {... */\n      swap1\n      jump\t// out\n        /* \"@openzeppelin/contracts/token/ERC20/ERC20.sol\":6575:7002  function decreaseAllowance(address spender, uint256 subtractedValue) public virtual returns (bool) {... */\n    tag_127:\n        /* \"@openzeppelin/contracts/token/ERC20/ERC20.sol\":6668:6672  bool */\n      0x00\n        /* \"@openzeppelin/contracts/token/ERC20/ERC20.sol\":6684:6697  address owner */\n      dup1\n        /* \"@openzeppelin/contracts/token/ERC20/ERC20.sol\":6700:6712  _msgSender() */\n      tag_278\n        /* \"@openzeppelin/contracts/token/ERC20/ERC20.sol\":6700:6710  _msgSender */\n      tag_161\n        /* \"@openzeppelin/contracts/token/ERC20/ERC20.sol\":6700:6712  _msgSender() */\n      jump\t// in\n    tag_278:\n        /* \"@openzeppelin/contracts/token/ERC20/ERC20.sol\":6684:6712  address owner = _msgSender() */\n      swap1\n      pop\n        /* \"@openzeppelin/contracts/token/ERC20/ERC20.sol\":6722:6746  uint256 currentAllowance */\n      0x00\n        /* \"@openzeppelin/contracts/token/ERC20/ERC20.sol\":6749:6774  allowance(owner, spender) */\n      tag_279\n        /* \"@openzeppelin/contracts/token/ERC20/ERC20.sol\":6759:6764  owner */\n      dup3\n        /* \"@openzeppelin/contracts/token/ERC20/ERC20.sol\":6766:6773  spender */\n      dup7\n        /* \"@openzeppelin/contracts/token/ERC20/ERC20.sol\":6749:6758  allowance */\n      tag_146\n        /* \"@openzeppelin/contracts/token/ERC20/ERC20.sol\":6749:6774  allowance(owner, spender) */\n      jump\t// in\n    tag_279:\n        /* \"@openzeppelin/contracts/token/ERC20/ERC20.sol\":6722:6774  uint256 currentAllowance = allowance(owner, spender) */\n      swap1\n      pop\n        /* \"@openzeppelin/contracts/token/ERC20/ERC20.sol\":6812:6827  subtractedValue */\n      dup4\n        /* \"@openzeppelin/contracts/token/ERC20/ERC20.sol\":6792:6808  currentAllowance */\n      dup2\n        /* \"@openzeppelin/contracts/token/ERC20/ERC20.sol\":6792:6827  currentAllowance >= subtractedValue */\n      lt\n      iszero\n        /* \"@openzeppelin/contracts/token/ERC20/ERC20.sol\":6784:6869  require(currentAllowance >= subtractedValue, \"ERC20: decreased allowance below zero\") */\n      tag_280\n      jumpi\n      mload(0x40)\n      0x08c379a000000000000000000000000000000000000000000000000000000000\n      dup2\n      mstore\n      0x04\n      add\n      tag_281\n      swap1\n      tag_282\n      jump\t// in\n    tag_281:\n      mload(0x40)\n      dup1\n      swap2\n      sub\n      swap1\n      revert\n    tag_280:\n        /* \"@openzeppelin/contracts/token/ERC20/ERC20.sol\":6903:6963  _approve(owner, spender, currentAllowance - subtractedValue) */\n      tag_283\n        /* \"@openzeppelin/contracts/token/ERC20/ERC20.sol\":6912:6917  owner */\n      dup3\n        /* \"@openzeppelin/contracts/token/ERC20/ERC20.sol\":6919:6926  spender */\n      dup7\n        /* \"@openzeppelin/contracts/token/ERC20/ERC20.sol\":6947:6962  subtractedValue */\n      dup7\n        /* \"@openzeppelin/contracts/token/ERC20/ERC20.sol\":6928:6944  currentAllowance */\n      dup5\n        /* \"@openzeppelin/contracts/token/ERC20/ERC20.sol\":6928:6962  currentAllowance - subtractedValue */\n      sub\n        /* \"@openzeppelin/contracts/token/ERC20/ERC20.sol\":6903:6911  _approve */\n      tag_163\n        /* \"@openzeppelin/contracts/token/ERC20/ERC20.sol\":6903:6963  _approve(owner, spender, currentAllowance - subtractedValue) */\n      jump\t// in\n    tag_283:\n        /* \"@openzeppelin/contracts/token/ERC20/ERC20.sol\":6991:6995  true */\n      0x01\n        /* \"@openzeppelin/contracts/token/ERC20/ERC20.sol\":6984:6995  return true */\n      swap3\n      pop\n      pop\n      pop\n        /* \"@openzeppelin/contracts/token/ERC20/ERC20.sol\":6575:7002  function decreaseAllowance(address spender, uint256 subtractedValue) public virtual returns (bool) {... */\n      swap3\n      swap2\n      pop\n      pop\n      jump\t// out\n        /* \"staking1_test.sol\":1560:2187  function stake(uint256 _numTokens) external { ... */\n    tag_132:\n        /* \"staking1_test.sol\":1636:1637  0 */\n      0x00\n        /* \"staking1_test.sol\":1623:1633  _numTokens */\n      dup2\n        /* \"staking1_test.sol\":1623:1637  _numTokens > 0 */\n      gt\n        /* \"staking1_test.sol\":1615:1674  require(_numTokens > 0, \"Must stake more than zero tokens\") */\n      tag_285\n      jumpi\n      mload(0x40)\n      0x08c379a000000000000000000000000000000000000000000000000000000000\n      dup2\n      mstore\n      0x04\n      add\n      tag_286\n      swap1\n      tag_287\n      jump\t// in\n    tag_286:\n      mload(0x40)\n      dup1\n      swap2\n      sub\n      swap1\n      revert\n    tag_285:\n        /* \"staking1_test.sol\":1718:1728  _numTokens */\n      dup1\n        /* \"staking1_test.sol\":1693:1714  balanceOf(msg.sender) */\n      tag_288\n        /* \"staking1_test.sol\":1703:1713  msg.sender */\n      caller\n        /* \"staking1_test.sol\":1693:1702  balanceOf */\n      tag_96\n        /* \"staking1_test.sol\":1693:1714  balanceOf(msg.sender) */\n      jump\t// in\n    tag_288:\n        /* \"staking1_test.sol\":1693:1728  balanceOf(msg.sender) >= _numTokens */\n      lt\n      iszero\n        /* \"staking1_test.sol\":1685:1767  require(balanceOf(msg.sender) >= _numTokens, \"Not Enough Balance Tokens To Stake\") */\n      tag_289\n      jumpi\n      mload(0x40)\n      0x08c379a000000000000000000000000000000000000000000000000000000000\n      dup2\n      mstore\n      0x04\n      add\n      tag_290\n      swap1\n      tag_291\n      jump\t// in\n    tag_290:\n      mload(0x40)\n      dup1\n      swap2\n      sub\n      swap1\n      revert\n    tag_289:\n        /* \"staking1_test.sol\":1788:1808  uint256 current_time */\n      0x00\n        /* \"staking1_test.sol\":1811:1826  block.timestamp */\n      timestamp\n        /* \"staking1_test.sol\":1788:1826  uint256 current_time = block.timestamp */\n      swap1\n      pop\n        /* \"staking1_test.sol\":1881:1882  0 */\n      0x00\n        /* \"staking1_test.sol\":1842:1853  stakingInfo */\n      0x08\n        /* \"staking1_test.sol\":1842:1865  stakingInfo[msg.sender] */\n      0x00\n        /* \"staking1_test.sol\":1854:1864  msg.sender */\n      caller\n        /* \"staking1_test.sol\":1842:1865  stakingInfo[msg.sender] */\n      0xffffffffffffffffffffffffffffffffffffffff\n      and\n      0xffffffffffffffffffffffffffffffffffffffff\n      and\n      dup2\n      mstore\n      0x20\n      add\n      swap1\n      dup2\n      mstore\n      0x20\n      add\n      0x00\n      keccak256\n        /* \"staking1_test.sol\":1842:1878  stakingInfo[msg.sender].stakedAmount */\n      0x00\n      add\n      sload\n        /* \"staking1_test.sol\":1842:1882  stakingInfo[msg.sender].stakedAmount > 0 */\n      gt\n        /* \"staking1_test.sol\":1838:1994  if (stakingInfo[msg.sender].stakedAmount > 0) { ... */\n      iszero\n      tag_292\n      jumpi\n        /* \"staking1_test.sol\":1899:1923  UpdateReward(msg.sender) */\n      tag_293\n        /* \"staking1_test.sol\":1912:1922  msg.sender */\n      caller\n        /* \"staking1_test.sol\":1899:1911  UpdateReward */\n      tag_179\n        /* \"staking1_test.sol\":1899:1923  UpdateReward(msg.sender) */\n      jump\t// in\n    tag_293:\n        /* \"staking1_test.sol\":1838:1994  if (stakingInfo[msg.sender].stakedAmount > 0) { ... */\n      jump(tag_294)\n    tag_292:\n        /* \"staking1_test.sol\":1961:1966  users */\n      0x09\n        /* \"staking1_test.sol\":1972:1982  msg.sender */\n      caller\n        /* \"staking1_test.sol\":1961:1983  users.push(msg.sender) */\n      swap1\n      dup1\n      0x01\n      dup2\n      sload\n      add\n      dup1\n      dup3\n      sstore\n      dup1\n      swap2\n      pop\n      pop\n      0x01\n      swap1\n      sub\n      swap1\n      0x00\n      mstore\n      keccak256(0x00, 0x20)\n      add\n      0x00\n      swap1\n      swap2\n      swap1\n      swap2\n      swap1\n      swap2\n      0x0100\n      exp\n      dup2\n      sload\n      dup2\n      0xffffffffffffffffffffffffffffffffffffffff\n      mul\n      not\n      and\n      swap1\n      dup4\n      0xffffffffffffffffffffffffffffffffffffffff\n      and\n      mul\n      or\n      swap1\n      sstore\n      pop\n        /* \"staking1_test.sol\":1838:1994  if (stakingInfo[msg.sender].stakedAmount > 0) { ... */\n    tag_294:\n        /* \"staking1_test.sol\":2006:2054  _transfer(msg.sender, address(this), _numTokens) */\n      tag_296\n        /* \"staking1_test.sol\":2016:2026  msg.sender */\n      caller\n        /* \"staking1_test.sol\":2036:2040  this */\n      address\n        /* \"staking1_test.sol\":2043:2053  _numTokens */\n      dup5\n        /* \"staking1_test.sol\":2006:2015  _transfer */\n      tag_170\n        /* \"staking1_test.sol\":2006:2054  _transfer(msg.sender, address(this), _numTokens) */\n      jump\t// in\n    tag_296:\n        /* \"staking1_test.sol\":2105:2115  _numTokens */\n      dup2\n        /* \"staking1_test.sol\":2065:2076  stakingInfo */\n      0x08\n        /* \"staking1_test.sol\":2065:2088  stakingInfo[msg.sender] */\n      0x00\n        /* \"staking1_test.sol\":2077:2087  msg.sender */\n      caller\n        /* \"staking1_test.sol\":2065:2088  stakingInfo[msg.sender] */\n      0xffffffffffffffffffffffffffffffffffffffff\n      and\n      0xffffffffffffffffffffffffffffffffffffffff\n      and\n      dup2\n      mstore\n      0x20\n      add\n      swap1\n      dup2\n      mstore\n      0x20\n      add\n      0x00\n      keccak256\n        /* \"staking1_test.sol\":2065:2101  stakingInfo[msg.sender].stakedAmount */\n      0x00\n      add\n      0x00\n        /* \"staking1_test.sol\":2065:2115  stakingInfo[msg.sender].stakedAmount += _numTokens */\n      dup3\n      dup3\n      sload\n      tag_297\n      swap2\n      swap1\n      tag_232\n      jump\t// in\n    tag_297:\n      swap3\n      pop\n      pop\n      dup2\n      swap1\n      sstore\n      pop\n        /* \"staking1_test.sol\":2167:2179  current_time */\n      dup1\n        /* \"staking1_test.sol\":2126:2137  stakingInfo */\n      0x08\n        /* \"staking1_test.sol\":2126:2149  stakingInfo[msg.sender] */\n      0x00\n        /* \"staking1_test.sol\":2138:2148  msg.sender */\n      caller\n        /* \"staking1_test.sol\":2126:2149  stakingInfo[msg.sender] */\n      0xffffffffffffffffffffffffffffffffffffffff\n      and\n      0xffffffffffffffffffffffffffffffffffffffff\n      and\n      dup2\n      mstore\n      0x20\n      add\n      swap1\n      dup2\n      mstore\n      0x20\n      add\n      0x00\n      keccak256\n        /* \"staking1_test.sol\":2126:2164  stakingInfo[msg.sender].lastStakedTime */\n      0x01\n      add\n        /* \"staking1_test.sol\":2126:2179  stakingInfo[msg.sender].lastStakedTime = current_time */\n      dup2\n      swap1\n      sstore\n      pop\n        /* \"staking1_test.sol\":1604:2187  { ... */\n      pop\n        /* \"staking1_test.sol\":1560:2187  function stake(uint256 _numTokens) external { ... */\n      pop\n      jump\t// out\n        /* \"@openzeppelin/contracts/token/ERC20/ERC20.sol\":3740:3929  function transfer(address to, uint256 amount) public virtual override returns (bool) {... */\n    tag_136:\n        /* \"@openzeppelin/contracts/token/ERC20/ERC20.sol\":3819:3823  bool */\n      0x00\n        /* \"@openzeppelin/contracts/token/ERC20/ERC20.sol\":3835:3848  address owner */\n      dup1\n        /* \"@openzeppelin/contracts/token/ERC20/ERC20.sol\":3851:3863  _msgSender() */\n      tag_299\n        /* \"@openzeppelin/contracts/token/ERC20/ERC20.sol\":3851:3861  _msgSender */\n      tag_161\n        /* \"@openzeppelin/contracts/token/ERC20/ERC20.sol\":3851:3863  _msgSender() */\n      jump\t// in\n    tag_299:\n        /* \"@openzeppelin/contracts/token/ERC20/ERC20.sol\":3835:3863  address owner = _msgSender() */\n      swap1\n      pop\n        /* \"@openzeppelin/contracts/token/ERC20/ERC20.sol\":3873:3901  _transfer(owner, to, amount) */\n      tag_300\n        /* \"@openzeppelin/contracts/token/ERC20/ERC20.sol\":3883:3888  owner */\n      dup2\n        /* \"@openzeppelin/contracts/token/ERC20/ERC20.sol\":3890:3892  to */\n      dup6\n        /* \"@openzeppelin/contracts/token/ERC20/ERC20.sol\":3894:3900  amount */\n      dup6\n        /* \"@openzeppelin/contracts/token/ERC20/ERC20.sol\":3873:3882  _transfer */\n      tag_170\n        /* \"@openzeppelin/contracts/token/ERC20/ERC20.sol\":3873:3901  _transfer(owner, to, amount) */\n      jump\t// in\n    tag_300:\n        /* \"@openzeppelin/contracts/token/ERC20/ERC20.sol\":3918:3922  true */\n      0x01\n        /* \"@openzeppelin/contracts/token/ERC20/ERC20.sol\":3911:3922  return true */\n      swap2\n      pop\n      pop\n        /* \"@openzeppelin/contracts/token/ERC20/ERC20.sol\":3740:3929  function transfer(address to, uint256 amount) public virtual override returns (bool) {... */\n      swap3\n      swap2\n      pop\n      pop\n      jump\t// out\n        /* \"staking1_test.sol\":336:365  uint256 public interest = 100 */\n    tag_140:\n      sload(0x07)\n      dup2\n      jump\t// out\n        /* \"@openzeppelin/contracts/token/ERC20/ERC20.sol\":3987:4136  function allowance(address owner, address spender) public view virtual override returns (uint256) {... */\n    tag_146:\n        /* \"@openzeppelin/contracts/token/ERC20/ERC20.sol\":4076:4083  uint256 */\n      0x00\n        /* \"@openzeppelin/contracts/token/ERC20/ERC20.sol\":4102:4113  _allowances */\n      0x01\n        /* \"@openzeppelin/contracts/token/ERC20/ERC20.sol\":4102:4120  _allowances[owner] */\n      0x00\n        /* \"@openzeppelin/contracts/token/ERC20/ERC20.sol\":4114:4119  owner */\n      dup5\n        /* \"@openzeppelin/contracts/token/ERC20/ERC20.sol\":4102:4120  _allowances[owner] */\n      0xffffffffffffffffffffffffffffffffffffffff\n      and\n      0xffffffffffffffffffffffffffffffffffffffff\n      and\n      dup2\n      mstore\n      0x20\n      add\n      swap1\n      dup2\n      mstore\n      0x20\n      add\n      0x00\n      keccak256\n        /* \"@openzeppelin/contracts/token/ERC20/ERC20.sol\":4102:4129  _allowances[owner][spender] */\n      0x00\n        /* \"@openzeppelin/contracts/token/ERC20/ERC20.sol\":4121:4128  spender */\n      dup4\n        /* \"@openzeppelin/contracts/token/ERC20/ERC20.sol\":4102:4129  _allowances[owner][spender] */\n      0xffffffffffffffffffffffffffffffffffffffff\n      and\n      0xffffffffffffffffffffffffffffffffffffffff\n      and\n      dup2\n      mstore\n      0x20\n      add\n      swap1\n      dup2\n      mstore\n      0x20\n      add\n      0x00\n      keccak256\n      sload\n        /* \"@openzeppelin/contracts/token/ERC20/ERC20.sol\":4095:4129  return _allowances[owner][spender] */\n      swap1\n      pop\n        /* \"@openzeppelin/contracts/token/ERC20/ERC20.sol\":3987:4136  function allowance(address owner, address spender) public view virtual override returns (uint256) {... */\n      swap3\n      swap2\n      pop\n      pop\n      jump\t// out\n        /* \"@openzeppelin/contracts/access/Ownable.sol\":2074:2272  function transferOwnership(address newOwner) public virtual onlyOwner {... */\n    tag_151:\n        /* \"@openzeppelin/contracts/access/Ownable.sol\":1094:1107  _checkOwner() */\n      tag_303\n        /* \"@openzeppelin/contracts/access/Ownable.sol\":1094:1105  _checkOwner */\n      tag_247\n        /* \"@openzeppelin/contracts/access/Ownable.sol\":1094:1107  _checkOwner() */\n      jump\t// in\n    tag_303:\n        /* \"@openzeppelin/contracts/access/Ownable.sol\":2182:2183  0 */\n      0x00\n        /* \"@openzeppelin/contracts/access/Ownable.sol\":2162:2184  newOwner != address(0) */\n      0xffffffffffffffffffffffffffffffffffffffff\n      and\n        /* \"@openzeppelin/contracts/access/Ownable.sol\":2162:2170  newOwner */\n      dup2\n        /* \"@openzeppelin/contracts/access/Ownable.sol\":2162:2184  newOwner != address(0) */\n      0xffffffffffffffffffffffffffffffffffffffff\n      and\n      sub\n        /* \"@openzeppelin/contracts/access/Ownable.sol\":2154:2227  require(newOwner != address(0), \"Ownable: new owner is the zero address\") */\n      tag_305\n      jumpi\n      mload(0x40)\n      0x08c379a000000000000000000000000000000000000000000000000000000000\n      dup2\n      mstore\n      0x04\n      add\n      tag_306\n      swap1\n      tag_307\n      jump\t// in\n    tag_306:\n      mload(0x40)\n      dup1\n      swap2\n      sub\n      swap1\n      revert\n    tag_305:\n        /* \"@openzeppelin/contracts/access/Ownable.sol\":2237:2265  _transferOwnership(newOwner) */\n      tag_308\n        /* \"@openzeppelin/contracts/access/Ownable.sol\":2256:2264  newOwner */\n      dup2\n        /* \"@openzeppelin/contracts/access/Ownable.sol\":2237:2255  _transferOwnership */\n      tag_265\n        /* \"@openzeppelin/contracts/access/Ownable.sol\":2237:2265  _transferOwnership(newOwner) */\n      jump\t// in\n    tag_308:\n        /* \"@openzeppelin/contracts/access/Ownable.sol\":2074:2272  function transferOwnership(address newOwner) public virtual onlyOwner {... */\n      pop\n      jump\t// out\n        /* \"@openzeppelin/contracts/utils/Context.sol\":640:736  function _msgSender() internal view virtual returns (address) {... */\n    tag_161:\n        /* \"@openzeppelin/contracts/utils/Context.sol\":693:700  address */\n      0x00\n        /* \"@openzeppelin/contracts/utils/Context.sol\":719:729  msg.sender */\n      caller\n        /* \"@openzeppelin/contracts/utils/Context.sol\":712:729  return msg.sender */\n      swap1\n      pop\n        /* \"@openzeppelin/contracts/utils/Context.sol\":640:736  function _msgSender() internal view virtual returns (address) {... */\n      swap1\n      jump\t// out\n        /* \"@openzeppelin/contracts/token/ERC20/ERC20.sol\":10457:10797  function _approve(address owner, address spender, uint256 amount) internal virtual {... */\n    tag_163:\n        /* \"@openzeppelin/contracts/token/ERC20/ERC20.sol\":10575:10576  0 */\n      0x00\n        /* \"@openzeppelin/contracts/token/ERC20/ERC20.sol\":10558:10577  owner != address(0) */\n      0xffffffffffffffffffffffffffffffffffffffff\n      and\n        /* \"@openzeppelin/contracts/token/ERC20/ERC20.sol\":10558:10563  owner */\n      dup4\n        /* \"@openzeppelin/contracts/token/ERC20/ERC20.sol\":10558:10577  owner != address(0) */\n      0xffffffffffffffffffffffffffffffffffffffff\n      and\n      sub\n        /* \"@openzeppelin/contracts/token/ERC20/ERC20.sol\":10550:10618  require(owner != address(0), \"ERC20: approve from the zero address\") */\n      tag_311\n      jumpi\n      mload(0x40)\n      0x08c379a000000000000000000000000000000000000000000000000000000000\n      dup2\n      mstore\n      0x04\n      add\n      tag_312\n      swap1\n      tag_313\n      jump\t// in\n    tag_312:\n      mload(0x40)\n      dup1\n      swap2\n      sub\n      swap1\n      revert\n    tag_311:\n        /* \"@openzeppelin/contracts/token/ERC20/ERC20.sol\":10655:10656  0 */\n      0x00\n        /* \"@openzeppelin/contracts/token/ERC20/ERC20.sol\":10636:10657  spender != address(0) */\n      0xffffffffffffffffffffffffffffffffffffffff\n      and\n        /* \"@openzeppelin/contracts/token/ERC20/ERC20.sol\":10636:10643  spender */\n      dup3\n        /* \"@openzeppelin/contracts/token/ERC20/ERC20.sol\":10636:10657  spender != address(0) */\n      0xffffffffffffffffffffffffffffffffffffffff\n      and\n      sub\n        /* \"@openzeppelin/contracts/token/ERC20/ERC20.sol\":10628:10696  require(spender != address(0), \"ERC20: approve to the zero address\") */\n      tag_314\n      jumpi\n      mload(0x40)\n      0x08c379a000000000000000000000000000000000000000000000000000000000\n      dup2\n      mstore\n      0x04\n      add\n      tag_315\n      swap1\n      tag_316\n      jump\t// in\n    tag_315:\n      mload(0x40)\n      dup1\n      swap2\n      sub\n      swap1\n      revert\n    tag_314:\n        /* \"@openzeppelin/contracts/token/ERC20/ERC20.sol\":10737:10743  amount */\n      dup1\n        /* \"@openzeppelin/contracts/token/ERC20/ERC20.sol\":10707:10718  _allowances */\n      0x01\n        /* \"@openzeppelin/contracts/token/ERC20/ERC20.sol\":10707:10725  _allowances[owner] */\n      0x00\n        /* \"@openzeppelin/contracts/token/ERC20/ERC20.sol\":10719:10724  owner */\n      dup6\n        /* \"@openzeppelin/contracts/token/ERC20/ERC20.sol\":10707:10725  _allowances[owner] */\n      0xffffffffffffffffffffffffffffffffffffffff\n      and\n      0xffffffffffffffffffffffffffffffffffffffff\n      and\n      dup2\n      mstore\n      0x20\n      add\n      swap1\n      dup2\n      mstore\n      0x20\n      add\n      0x00\n      keccak256\n        /* \"@openzeppelin/contracts/token/ERC20/ERC20.sol\":10707:10734  _allowances[owner][spender] */\n      0x00\n        /* \"@openzeppelin/contracts/token/ERC20/ERC20.sol\":10726:10733  spender */\n      dup5\n        /* \"@openzeppelin/contracts/token/ERC20/ERC20.sol\":10707:10734  _allowances[owner][spender] */\n      0xffffffffffffffffffffffffffffffffffffffff\n      and\n      0xffffffffffffffffffffffffffffffffffffffff\n      and\n      dup2\n      mstore\n      0x20\n      add\n      swap1\n      dup2\n      mstore\n      0x20\n      add\n      0x00\n      keccak256\n        /* \"@openzeppelin/contracts/token/ERC20/ERC20.sol\":10707:10743  _allowances[owner][spender] = amount */\n      dup2\n      swap1\n      sstore\n      pop\n        /* \"@openzeppelin/contracts/token/ERC20/ERC20.sol\":10774:10781  spender */\n      dup2\n        /* \"@openzeppelin/contracts/token/ERC20/ERC20.sol\":10758:10790  Approval(owner, spender, amount) */\n      0xffffffffffffffffffffffffffffffffffffffff\n      and\n        /* \"@openzeppelin/contracts/token/ERC20/ERC20.sol\":10767:10772  owner */\n      dup4\n        /* \"@openzeppelin/contracts/token/ERC20/ERC20.sol\":10758:10790  Approval(owner, spender, amount) */\n      0xffffffffffffffffffffffffffffffffffffffff\n      and\n      0x8c5be1e5ebec7d5bd14f71427d1e84f3dd0314c0f7b2291e5b200ac8c7c3b925\n        /* \"@openzeppelin/contracts/token/ERC20/ERC20.sol\":10783:10789  amount */\n      dup4\n        /* \"@openzeppelin/contracts/token/ERC20/ERC20.sol\":10758:10790  Approval(owner, spender, amount) */\n      mload(0x40)\n      tag_317\n      swap2\n      swap1\n      tag_49\n      jump\t// in\n    tag_317:\n      mload(0x40)\n      dup1\n      swap2\n      sub\n      swap1\n      log3\n        /* \"@openzeppelin/contracts/token/ERC20/ERC20.sol\":10457:10797  function _approve(address owner, address spender, uint256 amount) internal virtual {... */\n      pop\n      pop\n      pop\n      jump\t// out\n        /* \"@openzeppelin/contracts/token/ERC20/ERC20.sol\":11078:11489  function _spendAllowance(address owner, address spender, uint256 amount) internal virtual {... */\n    tag_168:\n        /* \"@openzeppelin/contracts/token/ERC20/ERC20.sol\":11178:11202  uint256 currentAllowance */\n      0x00\n        /* \"@openzeppelin/contracts/token/ERC20/ERC20.sol\":11205:11230  allowance(owner, spender) */\n      tag_319\n        /* \"@openzeppelin/contracts/token/ERC20/ERC20.sol\":11215:11220  owner */\n      dup5\n        /* \"@openzeppelin/contracts/token/ERC20/ERC20.sol\":11222:11229  spender */\n      dup5\n        /* \"@openzeppelin/contracts/token/ERC20/ERC20.sol\":11205:11214  allowance */\n      tag_146\n        /* \"@openzeppelin/contracts/token/ERC20/ERC20.sol\":11205:11230  allowance(owner, spender) */\n      jump\t// in\n    tag_319:\n        /* \"@openzeppelin/contracts/token/ERC20/ERC20.sol\":11178:11230  uint256 currentAllowance = allowance(owner, spender) */\n      swap1\n      pop\n        /* \"@openzeppelin/contracts/token/ERC20/ERC20.sol\":11264:11281  type(uint256).max */\n      0xffffffffffffffffffffffffffffffffffffffffffffffffffffffffffffffff\n        /* \"@openzeppelin/contracts/token/ERC20/ERC20.sol\":11244:11260  currentAllowance */\n      dup2\n        /* \"@openzeppelin/contracts/token/ERC20/ERC20.sol\":11244:11281  currentAllowance != type(uint256).max */\n      eq\n        /* \"@openzeppelin/contracts/token/ERC20/ERC20.sol\":11240:11483  if (currentAllowance != type(uint256).max) {... */\n      tag_320\n      jumpi\n        /* \"@openzeppelin/contracts/token/ERC20/ERC20.sol\":11325:11331  amount */\n      dup2\n        /* \"@openzeppelin/contracts/token/ERC20/ERC20.sol\":11305:11321  currentAllowance */\n      dup2\n        /* \"@openzeppelin/contracts/token/ERC20/ERC20.sol\":11305:11331  currentAllowance >= amount */\n      lt\n      iszero\n        /* \"@openzeppelin/contracts/token/ERC20/ERC20.sol\":11297:11365  require(currentAllowance >= amount, \"ERC20: insufficient allowance\") */\n      tag_321\n      jumpi\n      mload(0x40)\n      0x08c379a000000000000000000000000000000000000000000000000000000000\n      dup2\n      mstore\n      0x04\n      add\n      tag_322\n      swap1\n      tag_323\n      jump\t// in\n    tag_322:\n      mload(0x40)\n      dup1\n      swap2\n      sub\n      swap1\n      revert\n    tag_321:\n        /* \"@openzeppelin/contracts/token/ERC20/ERC20.sol\":11407:11458  _approve(owner, spender, currentAllowance - amount) */\n      tag_324\n        /* \"@openzeppelin/contracts/token/ERC20/ERC20.sol\":11416:11421  owner */\n      dup5\n        /* \"@openzeppelin/contracts/token/ERC20/ERC20.sol\":11423:11430  spender */\n      dup5\n        /* \"@openzeppelin/contracts/token/ERC20/ERC20.sol\":11451:11457  amount */\n      dup5\n        /* \"@openzeppelin/contracts/token/ERC20/ERC20.sol\":11432:11448  currentAllowance */\n      dup5\n        /* \"@openzeppelin/contracts/token/ERC20/ERC20.sol\":11432:11457  currentAllowance - amount */\n      sub\n        /* \"@openzeppelin/contracts/token/ERC20/ERC20.sol\":11407:11415  _approve */\n      tag_163\n        /* \"@openzeppelin/contracts/token/ERC20/ERC20.sol\":11407:11458  _approve(owner, spender, currentAllowance - amount) */\n      jump\t// in\n    tag_324:\n        /* \"@openzeppelin/contracts/token/ERC20/ERC20.sol\":11240:11483  if (currentAllowance != type(uint256).max) {... */\n    tag_320:\n        /* \"@openzeppelin/contracts/token/ERC20/ERC20.sol\":11168:11489  {... */\n      pop\n        /* \"@openzeppelin/contracts/token/ERC20/ERC20.sol\":11078:11489  function _spendAllowance(address owner, address spender, uint256 amount) internal virtual {... */\n      pop\n      pop\n      pop\n      jump\t// out\n        /* \"@openzeppelin/contracts/token/ERC20/ERC20.sol\":7456:8244  function _transfer(address from, address to, uint256 amount) internal virtual {... */\n    tag_170:\n        /* \"@openzeppelin/contracts/token/ERC20/ERC20.sol\":7568:7569  0 */\n      0x00\n        /* \"@openzeppelin/contracts/token/ERC20/ERC20.sol\":7552:7570  from != address(0) */\n      0xffffffffffffffffffffffffffffffffffffffff\n      and\n        /* \"@openzeppelin/contracts/token/ERC20/ERC20.sol\":7552:7556  from */\n      dup4\n        /* \"@openzeppelin/contracts/token/ERC20/ERC20.sol\":7552:7570  from != address(0) */\n      0xffffffffffffffffffffffffffffffffffffffff\n      and\n      sub\n        /* \"@openzeppelin/contracts/token/ERC20/ERC20.sol\":7544:7612  require(from != address(0), \"ERC20: transfer from the zero address\") */\n      tag_326\n      jumpi\n      mload(0x40)\n      0x08c379a000000000000000000000000000000000000000000000000000000000\n      dup2\n      mstore\n      0x04\n      add\n      tag_327\n      swap1\n      tag_328\n      jump\t// in\n    tag_327:\n      mload(0x40)\n      dup1\n      swap2\n      sub\n      swap1\n      revert\n    tag_326:\n        /* \"@openzeppelin/contracts/token/ERC20/ERC20.sol\":7644:7645  0 */\n      0x00\n        /* \"@openzeppelin/contracts/token/ERC20/ERC20.sol\":7630:7646  to != address(0) */\n      0xffffffffffffffffffffffffffffffffffffffff\n      and\n        /* \"@openzeppelin/contracts/token/ERC20/ERC20.sol\":7630:7632  to */\n      dup3\n        /* \"@openzeppelin/contracts/token/ERC20/ERC20.sol\":7630:7646  to != address(0) */\n      0xffffffffffffffffffffffffffffffffffffffff\n      and\n      sub\n        /* \"@openzeppelin/contracts/token/ERC20/ERC20.sol\":7622:7686  require(to != address(0), \"ERC20: transfer to the zero address\") */\n      tag_329\n      jumpi\n      mload(0x40)\n      0x08c379a000000000000000000000000000000000000000000000000000000000\n      dup2\n      mstore\n      0x04\n      add\n      tag_330\n      swap1\n      tag_331\n      jump\t// in\n    tag_330:\n      mload(0x40)\n      dup1\n      swap2\n      sub\n      swap1\n      revert\n    tag_329:\n        /* \"@openzeppelin/contracts/token/ERC20/ERC20.sol\":7697:7735  _beforeTokenTransfer(from, to, amount) */\n      tag_332\n        /* \"@openzeppelin/contracts/token/ERC20/ERC20.sol\":7718:7722  from */\n      dup4\n        /* \"@openzeppelin/contracts/token/ERC20/ERC20.sol\":7724:7726  to */\n      dup4\n        /* \"@openzeppelin/contracts/token/ERC20/ERC20.sol\":7728:7734  amount */\n      dup4\n        /* \"@openzeppelin/contracts/token/ERC20/ERC20.sol\":7697:7717  _beforeTokenTransfer */\n      tag_333\n        /* \"@openzeppelin/contracts/token/ERC20/ERC20.sol\":7697:7735  _beforeTokenTransfer(from, to, amount) */\n      jump\t// in\n    tag_332:\n        /* \"@openzeppelin/contracts/token/ERC20/ERC20.sol\":7746:7765  uint256 fromBalance */\n      0x00\n        /* \"@openzeppelin/contracts/token/ERC20/ERC20.sol\":7768:7777  _balances */\n      dup1\n        /* \"@openzeppelin/contracts/token/ERC20/ERC20.sol\":7768:7783  _balances[from] */\n      0x00\n        /* \"@openzeppelin/contracts/token/ERC20/ERC20.sol\":7778:7782  from */\n      dup6\n        /* \"@openzeppelin/contracts/token/ERC20/ERC20.sol\":7768:7783  _balances[from] */\n      0xffffffffffffffffffffffffffffffffffffffff\n      and\n      0xffffffffffffffffffffffffffffffffffffffff\n      and\n      dup2\n      mstore\n      0x20\n      add\n      swap1\n      dup2\n      mstore\n      0x20\n      add\n      0x00\n      keccak256\n      sload\n        /* \"@openzeppelin/contracts/token/ERC20/ERC20.sol\":7746:7783  uint256 fromBalance = _balances[from] */\n      swap1\n      pop\n        /* \"@openzeppelin/contracts/token/ERC20/ERC20.sol\":7816:7822  amount */\n      dup2\n        /* \"@openzeppelin/contracts/token/ERC20/ERC20.sol\":7801:7812  fromBalance */\n      dup2\n        /* \"@openzeppelin/contracts/token/ERC20/ERC20.sol\":7801:7822  fromBalance >= amount */\n      lt\n      iszero\n        /* \"@openzeppelin/contracts/token/ERC20/ERC20.sol\":7793:7865  require(fromBalance >= amount, \"ERC20: transfer amount exceeds balance\") */\n      tag_334\n      jumpi\n      mload(0x40)\n      0x08c379a000000000000000000000000000000000000000000000000000000000\n      dup2\n      mstore\n      0x04\n      add\n      tag_335\n      swap1\n      tag_336\n      jump\t// in\n    tag_335:\n      mload(0x40)\n      dup1\n      swap2\n      sub\n      swap1\n      revert\n    tag_334:\n        /* \"@openzeppelin/contracts/token/ERC20/ERC20.sol\":7931:7937  amount */\n      dup2\n        /* \"@openzeppelin/contracts/token/ERC20/ERC20.sol\":7917:7928  fromBalance */\n      dup2\n        /* \"@openzeppelin/contracts/token/ERC20/ERC20.sol\":7917:7937  fromBalance - amount */\n      sub\n        /* \"@openzeppelin/contracts/token/ERC20/ERC20.sol\":7899:7908  _balances */\n      0x00\n        /* \"@openzeppelin/contracts/token/ERC20/ERC20.sol\":7899:7914  _balances[from] */\n      dup1\n        /* \"@openzeppelin/contracts/token/ERC20/ERC20.sol\":7909:7913  from */\n      dup7\n        /* \"@openzeppelin/contracts/token/ERC20/ERC20.sol\":7899:7914  _balances[from] */\n      0xffffffffffffffffffffffffffffffffffffffff\n      and\n      0xffffffffffffffffffffffffffffffffffffffff\n      and\n      dup2\n      mstore\n      0x20\n      add\n      swap1\n      dup2\n      mstore\n      0x20\n      add\n      0x00\n      keccak256\n        /* \"@openzeppelin/contracts/token/ERC20/ERC20.sol\":7899:7937  _balances[from] = fromBalance - amount */\n      dup2\n      swap1\n      sstore\n      pop\n        /* \"@openzeppelin/contracts/token/ERC20/ERC20.sol\":8131:8137  amount */\n      dup2\n        /* \"@openzeppelin/contracts/token/ERC20/ERC20.sol\":8114:8123  _balances */\n      0x00\n        /* \"@openzeppelin/contracts/token/ERC20/ERC20.sol\":8114:8127  _balances[to] */\n      dup1\n        /* \"@openzeppelin/contracts/token/ERC20/ERC20.sol\":8124:8126  to */\n      dup6\n        /* \"@openzeppelin/contracts/token/ERC20/ERC20.sol\":8114:8127  _balances[to] */\n      0xffffffffffffffffffffffffffffffffffffffff\n      and\n      0xffffffffffffffffffffffffffffffffffffffff\n      and\n      dup2\n      mstore\n      0x20\n      add\n      swap1\n      dup2\n      mstore\n      0x20\n      add\n      0x00\n      keccak256\n      0x00\n        /* \"@openzeppelin/contracts/token/ERC20/ERC20.sol\":8114:8137  _balances[to] += amount */\n      dup3\n      dup3\n      sload\n      add\n      swap3\n      pop\n      pop\n      dup2\n      swap1\n      sstore\n      pop\n        /* \"@openzeppelin/contracts/token/ERC20/ERC20.sol\":8178:8180  to */\n      dup3\n        /* \"@openzeppelin/contracts/token/ERC20/ERC20.sol\":8163:8189  Transfer(from, to, amount) */\n      0xffffffffffffffffffffffffffffffffffffffff\n      and\n        /* \"@openzeppelin/contracts/token/ERC20/ERC20.sol\":8172:8176  from */\n      dup5\n        /* \"@openzeppelin/contracts/token/ERC20/ERC20.sol\":8163:8189  Transfer(from, to, amount) */\n      0xffffffffffffffffffffffffffffffffffffffff\n      and\n      0xddf252ad1be2c89b69c2b068fc378daa952ba7f163c4a11628f55a4df523b3ef\n        /* \"@openzeppelin/contracts/token/ERC20/ERC20.sol\":8182:8188  amount */\n      dup5\n        /* \"@openzeppelin/contracts/token/ERC20/ERC20.sol\":8163:8189  Transfer(from, to, amount) */\n      mload(0x40)\n      tag_337\n      swap2\n      swap1\n      tag_49\n      jump\t// in\n    tag_337:\n      mload(0x40)\n      dup1\n      swap2\n      sub\n      swap1\n      log3\n        /* \"@openzeppelin/contracts/token/ERC20/ERC20.sol\":8200:8237  _afterTokenTransfer(from, to, amount) */\n      tag_338\n        /* \"@openzeppelin/contracts/token/ERC20/ERC20.sol\":8220:8224  from */\n      dup5\n        /* \"@openzeppelin/contracts/token/ERC20/ERC20.sol\":8226:8228  to */\n      dup5\n        /* \"@openzeppelin/contracts/token/ERC20/ERC20.sol\":8230:8236  amount */\n      dup5\n        /* \"@openzeppelin/contracts/token/ERC20/ERC20.sol\":8200:8219  _afterTokenTransfer */\n      tag_339\n        /* \"@openzeppelin/contracts/token/ERC20/ERC20.sol\":8200:8237  _afterTokenTransfer(from, to, amount) */\n      jump\t// in\n    tag_338:\n        /* \"@openzeppelin/contracts/token/ERC20/ERC20.sol\":7534:8244  {... */\n      pop\n        /* \"@openzeppelin/contracts/token/ERC20/ERC20.sol\":7456:8244  function _transfer(address from, address to, uint256 amount) internal virtual {... */\n      pop\n      pop\n      pop\n      jump\t// out\n        /* \"staking1_test.sol\":3303:3714  function UpdateReward(address _user) internal {... */\n    tag_179:\n        /* \"staking1_test.sol\":3359:3376  uint current_time */\n      0x00\n        /* \"staking1_test.sol\":3379:3394  block.timestamp */\n      timestamp\n        /* \"staking1_test.sol\":3359:3394  uint current_time = block.timestamp */\n      swap1\n      pop\n        /* \"staking1_test.sol\":3404:3427  uint256 stakingDuration */\n      0x00\n        /* \"staking1_test.sol\":3483:3492  1 minutes */\n      0x3c\n        /* \"staking1_test.sol\":3446:3457  stakingInfo */\n      0x08\n        /* \"staking1_test.sol\":3446:3464  stakingInfo[_user] */\n      0x00\n        /* \"staking1_test.sol\":3458:3463  _user */\n      dup6\n        /* \"staking1_test.sol\":3446:3464  stakingInfo[_user] */\n      0xffffffffffffffffffffffffffffffffffffffff\n      and\n      0xffffffffffffffffffffffffffffffffffffffff\n      and\n      dup2\n      mstore\n      0x20\n      add\n      swap1\n      dup2\n      mstore\n      0x20\n      add\n      0x00\n      keccak256\n        /* \"staking1_test.sol\":3446:3479  stakingInfo[_user].lastStakedTime */\n      0x01\n      add\n      sload\n        /* \"staking1_test.sol\":3431:3443  current_time */\n      dup4\n        /* \"staking1_test.sol\":3431:3479  current_time - stakingInfo[_user].lastStakedTime */\n      tag_341\n      swap2\n      swap1\n      tag_181\n      jump\t// in\n    tag_341:\n        /* \"staking1_test.sol\":3430:3492  (current_time - stakingInfo[_user].lastStakedTime) / 1 minutes */\n      tag_342\n      swap2\n      swap1\n      tag_343\n      jump\t// in\n    tag_342:\n        /* \"staking1_test.sol\":3404:3492  uint256 stakingDuration = (current_time - stakingInfo[_user].lastStakedTime) / 1 minutes */\n      swap1\n      pop\n        /* \"staking1_test.sol\":3633:3648  100 * 1 minutes */\n      0x1770\n        /* \"staking1_test.sol\":3618:3628  tokenPrice */\n      sload(0x06)\n        /* \"staking1_test.sol\":3600:3615  stakingDuration */\n      dup3\n        /* \"staking1_test.sol\":3589:3597  interest */\n      sload(0x07)\n        /* \"staking1_test.sol\":3555:3566  stakingInfo */\n      0x08\n        /* \"staking1_test.sol\":3555:3573  stakingInfo[_user] */\n      0x00\n        /* \"staking1_test.sol\":3567:3572  _user */\n      dup9\n        /* \"staking1_test.sol\":3555:3573  stakingInfo[_user] */\n      0xffffffffffffffffffffffffffffffffffffffff\n      and\n      0xffffffffffffffffffffffffffffffffffffffff\n      and\n      dup2\n      mstore\n      0x20\n      add\n      swap1\n      dup2\n      mstore\n      0x20\n      add\n      0x00\n      keccak256\n        /* \"staking1_test.sol\":3555:3586  stakingInfo[_user].stakedAmount */\n      0x00\n      add\n      sload\n        /* \"staking1_test.sol\":3555:3597  stakingInfo[_user].stakedAmount * interest */\n      tag_344\n      swap2\n      swap1\n      tag_208\n      jump\t// in\n    tag_344:\n        /* \"staking1_test.sol\":3555:3615  stakingInfo[_user].stakedAmount * interest * stakingDuration */\n      tag_345\n      swap2\n      swap1\n      tag_208\n      jump\t// in\n    tag_345:\n        /* \"staking1_test.sol\":3555:3628  stakingInfo[_user].stakedAmount * interest * stakingDuration * tokenPrice */\n      tag_346\n      swap2\n      swap1\n      tag_208\n      jump\t// in\n    tag_346:\n        /* \"staking1_test.sol\":3554:3649  (stakingInfo[_user].stakedAmount * interest * stakingDuration * tokenPrice) / (100 * 1 minutes) */\n      tag_347\n      swap2\n      swap1\n      tag_343\n      jump\t// in\n    tag_347:\n        /* \"staking1_test.sol\":3524:3535  stakingInfo */\n      0x08\n        /* \"staking1_test.sol\":3524:3542  stakingInfo[_user] */\n      0x00\n        /* \"staking1_test.sol\":3536:3541  _user */\n      dup6\n        /* \"staking1_test.sol\":3524:3542  stakingInfo[_user] */\n      0xffffffffffffffffffffffffffffffffffffffff\n      and\n      0xffffffffffffffffffffffffffffffffffffffff\n      and\n      dup2\n      mstore\n      0x20\n      add\n      swap1\n      dup2\n      mstore\n      0x20\n      add\n      0x00\n      keccak256\n        /* \"staking1_test.sol\":3524:3550  stakingInfo[_user].rewards */\n      0x02\n      add\n      0x00\n        /* \"staking1_test.sol\":3524:3649  stakingInfo[_user].rewards += (stakingInfo[_user].stakedAmount * interest * stakingDuration * tokenPrice) / (100 * 1 minutes) */\n      dup3\n      dup3\n      sload\n      tag_348\n      swap2\n      swap1\n      tag_232\n      jump\t// in\n    tag_348:\n      swap3\n      pop\n      pop\n      dup2\n      swap1\n      sstore\n      pop\n        /* \"staking1_test.sol\":3695:3707  current_time */\n      dup2\n        /* \"staking1_test.sol\":3659:3670  stakingInfo */\n      0x08\n        /* \"staking1_test.sol\":3659:3677  stakingInfo[_user] */\n      0x00\n        /* \"staking1_test.sol\":3671:3676  _user */\n      dup6\n        /* \"staking1_test.sol\":3659:3677  stakingInfo[_user] */\n      0xffffffffffffffffffffffffffffffffffffffff\n      and\n      0xffffffffffffffffffffffffffffffffffffffff\n      and\n      dup2\n      mstore\n      0x20\n      add\n      swap1\n      dup2\n      mstore\n      0x20\n      add\n      0x00\n      keccak256\n        /* \"staking1_test.sol\":3659:3692  stakingInfo[_user].lastStakedTime */\n      0x01\n      add\n        /* \"staking1_test.sol\":3659:3707  stakingInfo[_user].lastStakedTime = current_time */\n      dup2\n      swap1\n      sstore\n      pop\n        /* \"staking1_test.sol\":3349:3714  {... */\n      pop\n      pop\n        /* \"staking1_test.sol\":3303:3714  function UpdateReward(address _user) internal {... */\n      pop\n      jump\t// out\n        /* \"@openzeppelin/contracts/token/ERC20/ERC20.sol\":8520:9055  function _mint(address account, uint256 amount) internal virtual {... */\n    tag_213:\n        /* \"@openzeppelin/contracts/token/ERC20/ERC20.sol\":8622:8623  0 */\n      0x00\n        /* \"@openzeppelin/contracts/token/ERC20/ERC20.sol\":8603:8624  account != address(0) */\n      0xffffffffffffffffffffffffffffffffffffffff\n      and\n        /* \"@openzeppelin/contracts/token/ERC20/ERC20.sol\":8603:8610  account */\n      dup3\n        /* \"@openzeppelin/contracts/token/ERC20/ERC20.sol\":8603:8624  account != address(0) */\n      0xffffffffffffffffffffffffffffffffffffffff\n      and\n      sub\n        /* \"@openzeppelin/contracts/token/ERC20/ERC20.sol\":8595:8660  require(account != address(0), \"ERC20: mint to the zero address\") */\n      tag_350\n      jumpi\n      mload(0x40)\n      0x08c379a000000000000000000000000000000000000000000000000000000000\n      dup2\n      mstore\n      0x04\n      add\n      tag_351\n      swap1\n      tag_352\n      jump\t// in\n    tag_351:\n      mload(0x40)\n      dup1\n      swap2\n      sub\n      swap1\n      revert\n    tag_350:\n        /* \"@openzeppelin/contracts/token/ERC20/ERC20.sol\":8671:8720  _beforeTokenTransfer(address(0), account, amount) */\n      tag_353\n        /* \"@openzeppelin/contracts/token/ERC20/ERC20.sol\":8700:8701  0 */\n      0x00\n        /* \"@openzeppelin/contracts/token/ERC20/ERC20.sol\":8704:8711  account */\n      dup4\n        /* \"@openzeppelin/contracts/token/ERC20/ERC20.sol\":8713:8719  amount */\n      dup4\n        /* \"@openzeppelin/contracts/token/ERC20/ERC20.sol\":8671:8691  _beforeTokenTransfer */\n      tag_333\n        /* \"@openzeppelin/contracts/token/ERC20/ERC20.sol\":8671:8720  _beforeTokenTransfer(address(0), account, amount) */\n      jump\t// in\n    tag_353:\n        /* \"@openzeppelin/contracts/token/ERC20/ERC20.sol\":8747:8753  amount */\n      dup1\n        /* \"@openzeppelin/contracts/token/ERC20/ERC20.sol\":8731:8743  _totalSupply */\n      0x02\n      0x00\n        /* \"@openzeppelin/contracts/token/ERC20/ERC20.sol\":8731:8753  _totalSupply += amount */\n      dup3\n      dup3\n      sload\n      tag_354\n      swap2\n      swap1\n      tag_232\n      jump\t// in\n    tag_354:\n      swap3\n      pop\n      pop\n      dup2\n      swap1\n      sstore\n      pop\n        /* \"@openzeppelin/contracts/token/ERC20/ERC20.sol\":8921:8927  amount */\n      dup1\n        /* \"@openzeppelin/contracts/token/ERC20/ERC20.sol\":8899:8908  _balances */\n      0x00\n        /* \"@openzeppelin/contracts/token/ERC20/ERC20.sol\":8899:8917  _balances[account] */\n      dup1\n        /* \"@openzeppelin/contracts/token/ERC20/ERC20.sol\":8909:8916  account */\n      dup5\n        /* \"@openzeppelin/contracts/token/ERC20/ERC20.sol\":8899:8917  _balances[account] */\n      0xffffffffffffffffffffffffffffffffffffffff\n      and\n      0xffffffffffffffffffffffffffffffffffffffff\n      and\n      dup2\n      mstore\n      0x20\n      add\n      swap1\n      dup2\n      mstore\n      0x20\n      add\n      0x00\n      keccak256\n      0x00\n        /* \"@openzeppelin/contracts/token/ERC20/ERC20.sol\":8899:8927  _balances[account] += amount */\n      dup3\n      dup3\n      sload\n      add\n      swap3\n      pop\n      pop\n      dup2\n      swap1\n      sstore\n      pop\n        /* \"@openzeppelin/contracts/token/ERC20/ERC20.sol\":8973:8980  account */\n      dup2\n        /* \"@openzeppelin/contracts/token/ERC20/ERC20.sol\":8952:8989  Transfer(address(0), account, amount) */\n      0xffffffffffffffffffffffffffffffffffffffff\n      and\n        /* \"@openzeppelin/contracts/token/ERC20/ERC20.sol\":8969:8970  0 */\n      0x00\n        /* \"@openzeppelin/contracts/token/ERC20/ERC20.sol\":8952:8989  Transfer(address(0), account, amount) */\n      0xffffffffffffffffffffffffffffffffffffffff\n      and\n      0xddf252ad1be2c89b69c2b068fc378daa952ba7f163c4a11628f55a4df523b3ef\n        /* \"@openzeppelin/contracts/token/ERC20/ERC20.sol\":8982:8988  amount */\n      dup4\n        /* \"@openzeppelin/contracts/token/ERC20/ERC20.sol\":8952:8989  Transfer(address(0), account, amount) */\n      mload(0x40)\n      tag_355\n      swap2\n      swap1\n      tag_49\n      jump\t// in\n    tag_355:\n      mload(0x40)\n      dup1\n      swap2\n      sub\n      swap1\n      log3\n        /* \"@openzeppelin/contracts/token/ERC20/ERC20.sol\":9000:9048  _afterTokenTransfer(address(0), account, amount) */\n      tag_356\n        /* \"@openzeppelin/contracts/token/ERC20/ERC20.sol\":9028:9029  0 */\n      0x00\n        /* \"@openzeppelin/contracts/token/ERC20/ERC20.sol\":9032:9039  account */\n      dup4\n        /* \"@openzeppelin/contracts/token/ERC20/ERC20.sol\":9041:9047  amount */\n      dup4\n        /* \"@openzeppelin/contracts/token/ERC20/ERC20.sol\":9000:9019  _afterTokenTransfer */\n      tag_339\n        /* \"@openzeppelin/contracts/token/ERC20/ERC20.sol\":9000:9048  _afterTokenTransfer(address(0), account, amount) */\n      jump\t// in\n    tag_356:\n        /* \"@openzeppelin/contracts/token/ERC20/ERC20.sol\":8520:9055  function _mint(address account, uint256 amount) internal virtual {... */\n      pop\n      pop\n      jump\t// out\n        /* \"@openzeppelin/contracts/token/ERC20/ERC20.sol\":9375:10034  function _burn(address account, uint256 amount) internal virtual {... */\n    tag_236:\n        /* \"@openzeppelin/contracts/token/ERC20/ERC20.sol\":9477:9478  0 */\n      0x00\n        /* \"@openzeppelin/contracts/token/ERC20/ERC20.sol\":9458:9479  account != address(0) */\n      0xffffffffffffffffffffffffffffffffffffffff\n      and\n        /* \"@openzeppelin/contracts/token/ERC20/ERC20.sol\":9458:9465  account */\n      dup3\n        /* \"@openzeppelin/contracts/token/ERC20/ERC20.sol\":9458:9479  account != address(0) */\n      0xffffffffffffffffffffffffffffffffffffffff\n      and\n      sub\n        /* \"@openzeppelin/contracts/token/ERC20/ERC20.sol\":9450:9517  require(account != address(0), \"ERC20: burn from the zero address\") */\n      tag_358\n      jumpi\n      mload(0x40)\n      0x08c379a000000000000000000000000000000000000000000000000000000000\n      dup2\n      mstore\n      0x04\n      add\n      tag_359\n      swap1\n      tag_360\n      jump\t// in\n    tag_359:\n      mload(0x40)\n      dup1\n      swap2\n      sub\n      swap1\n      revert\n    tag_358:\n        /* \"@openzeppelin/contracts/token/ERC20/ERC20.sol\":9528:9577  _beforeTokenTransfer(account, address(0), amount) */\n      tag_361\n        /* \"@openzeppelin/contracts/token/ERC20/ERC20.sol\":9549:9556  account */\n      dup3\n        /* \"@openzeppelin/contracts/token/ERC20/ERC20.sol\":9566:9567  0 */\n      0x00\n        /* \"@openzeppelin/contracts/token/ERC20/ERC20.sol\":9570:9576  amount */\n      dup4\n        /* \"@openzeppelin/contracts/token/ERC20/ERC20.sol\":9528:9548  _beforeTokenTransfer */\n      tag_333\n        /* \"@openzeppelin/contracts/token/ERC20/ERC20.sol\":9528:9577  _beforeTokenTransfer(account, address(0), amount) */\n      jump\t// in\n    tag_361:\n        /* \"@openzeppelin/contracts/token/ERC20/ERC20.sol\":9588:9610  uint256 accountBalance */\n      0x00\n        /* \"@openzeppelin/contracts/token/ERC20/ERC20.sol\":9613:9622  _balances */\n      dup1\n        /* \"@openzeppelin/contracts/token/ERC20/ERC20.sol\":9613:9631  _balances[account] */\n      0x00\n        /* \"@openzeppelin/contracts/token/ERC20/ERC20.sol\":9623:9630  account */\n      dup5\n        /* \"@openzeppelin/contracts/token/ERC20/ERC20.sol\":9613:9631  _balances[account] */\n      0xffffffffffffffffffffffffffffffffffffffff\n      and\n      0xffffffffffffffffffffffffffffffffffffffff\n      and\n      dup2\n      mstore\n      0x20\n      add\n      swap1\n      dup2\n      mstore\n      0x20\n      add\n      0x00\n      keccak256\n      sload\n        /* \"@openzeppelin/contracts/token/ERC20/ERC20.sol\":9588:9631  uint256 accountBalance = _balances[account] */\n      swap1\n      pop\n        /* \"@openzeppelin/contracts/token/ERC20/ERC20.sol\":9667:9673  amount */\n      dup2\n        /* \"@openzeppelin/contracts/token/ERC20/ERC20.sol\":9649:9663  accountBalance */\n      dup2\n        /* \"@openzeppelin/contracts/token/ERC20/ERC20.sol\":9649:9673  accountBalance >= amount */\n      lt\n      iszero\n        /* \"@openzeppelin/contracts/token/ERC20/ERC20.sol\":9641:9712  require(accountBalance >= amount, \"ERC20: burn amount exceeds balance\") */\n      tag_362\n      jumpi\n      mload(0x40)\n      0x08c379a000000000000000000000000000000000000000000000000000000000\n      dup2\n      mstore\n      0x04\n      add\n      tag_363\n      swap1\n      tag_364\n      jump\t// in\n    tag_363:\n      mload(0x40)\n      dup1\n      swap2\n      sub\n      swap1\n      revert\n    tag_362:\n        /* \"@openzeppelin/contracts/token/ERC20/ERC20.sol\":9784:9790  amount */\n      dup2\n        /* \"@openzeppelin/contracts/token/ERC20/ERC20.sol\":9767:9781  accountBalance */\n      dup2\n        /* \"@openzeppelin/contracts/token/ERC20/ERC20.sol\":9767:9790  accountBalance - amount */\n      sub\n        /* \"@openzeppelin/contracts/token/ERC20/ERC20.sol\":9746:9755  _balances */\n      0x00\n        /* \"@openzeppelin/contracts/token/ERC20/ERC20.sol\":9746:9764  _balances[account] */\n      dup1\n        /* \"@openzeppelin/contracts/token/ERC20/ERC20.sol\":9756:9763  account */\n      dup6\n        /* \"@openzeppelin/contracts/token/ERC20/ERC20.sol\":9746:9764  _balances[account] */\n      0xffffffffffffffffffffffffffffffffffffffff\n      and\n      0xffffffffffffffffffffffffffffffffffffffff\n      and\n      dup2\n      mstore\n      0x20\n      add\n      swap1\n      dup2\n      mstore\n      0x20\n      add\n      0x00\n      keccak256\n        /* \"@openzeppelin/contracts/token/ERC20/ERC20.sol\":9746:9790  _balances[account] = accountBalance - amount */\n      dup2\n      swap1\n      sstore\n      pop\n        /* \"@openzeppelin/contracts/token/ERC20/ERC20.sol\":9899:9905  amount */\n      dup2\n        /* \"@openzeppelin/contracts/token/ERC20/ERC20.sol\":9883:9895  _totalSupply */\n      0x02\n      0x00\n        /* \"@openzeppelin/contracts/token/ERC20/ERC20.sol\":9883:9905  _totalSupply -= amount */\n      dup3\n      dup3\n      sload\n      sub\n      swap3\n      pop\n      pop\n      dup2\n      swap1\n      sstore\n      pop\n        /* \"@openzeppelin/contracts/token/ERC20/ERC20.sol\":9957:9958  0 */\n      0x00\n        /* \"@openzeppelin/contracts/token/ERC20/ERC20.sol\":9931:9968  Transfer(account, address(0), amount) */\n      0xffffffffffffffffffffffffffffffffffffffff\n      and\n        /* \"@openzeppelin/contracts/token/ERC20/ERC20.sol\":9940:9947  account */\n      dup4\n        /* \"@openzeppelin/contracts/token/ERC20/ERC20.sol\":9931:9968  Transfer(account, address(0), amount) */\n      0xffffffffffffffffffffffffffffffffffffffff\n      and\n      0xddf252ad1be2c89b69c2b068fc378daa952ba7f163c4a11628f55a4df523b3ef\n        /* \"@openzeppelin/contracts/token/ERC20/ERC20.sol\":9961:9967  amount */\n      dup5\n        /* \"@openzeppelin/contracts/token/ERC20/ERC20.sol\":9931:9968  Transfer(account, address(0), amount) */\n      mload(0x40)\n      tag_365\n      swap2\n      swap1\n      tag_49\n      jump\t// in\n    tag_365:\n      mload(0x40)\n      dup1\n      swap2\n      sub\n      swap1\n      log3\n        /* \"@openzeppelin/contracts/token/ERC20/ERC20.sol\":9979:10027  _afterTokenTransfer(account, address(0), amount) */\n      tag_366\n        /* \"@openzeppelin/contracts/token/ERC20/ERC20.sol\":9999:10006  account */\n      dup4\n        /* \"@openzeppelin/contracts/token/ERC20/ERC20.sol\":10016:10017  0 */\n      0x00\n        /* \"@openzeppelin/contracts/token/ERC20/ERC20.sol\":10020:10026  amount */\n      dup5\n        /* \"@openzeppelin/contracts/token/ERC20/ERC20.sol\":9979:9998  _afterTokenTransfer */\n      tag_339\n        /* \"@openzeppelin/contracts/token/ERC20/ERC20.sol\":9979:10027  _afterTokenTransfer(account, address(0), amount) */\n      jump\t// in\n    tag_366:\n        /* \"@openzeppelin/contracts/token/ERC20/ERC20.sol\":9440:10034  {... */\n      pop\n        /* \"@openzeppelin/contracts/token/ERC20/ERC20.sol\":9375:10034  function _burn(address account, uint256 amount) internal virtual {... */\n      pop\n      pop\n      jump\t// out\n        /* \"@openzeppelin/contracts/access/Ownable.sol\":1359:1489  function _checkOwner() internal view virtual {... */\n    tag_247:\n        /* \"@openzeppelin/contracts/access/Ownable.sol\":1433:1445  _msgSender() */\n      tag_368\n        /* \"@openzeppelin/contracts/access/Ownable.sol\":1433:1443  _msgSender */\n      tag_161\n        /* \"@openzeppelin/contracts/access/Ownable.sol\":1433:1445  _msgSender() */\n      jump\t// in\n    tag_368:\n        /* \"@openzeppelin/contracts/access/Ownable.sol\":1422:1445  owner() == _msgSender() */\n      0xffffffffffffffffffffffffffffffffffffffff\n      and\n        /* \"@openzeppelin/contracts/access/Ownable.sol\":1422:1429  owner() */\n      tag_369\n        /* \"@openzeppelin/contracts/access/Ownable.sol\":1422:1427  owner */\n      tag_111\n        /* \"@openzeppelin/contracts/access/Ownable.sol\":1422:1429  owner() */\n      jump\t// in\n    tag_369:\n        /* \"@openzeppelin/contracts/access/Ownable.sol\":1422:1445  owner() == _msgSender() */\n      0xffffffffffffffffffffffffffffffffffffffff\n      and\n      eq\n        /* \"@openzeppelin/contracts/access/Ownable.sol\":1414:1482  require(owner() == _msgSender(), \"Ownable: caller is not the owner\") */\n      tag_370\n      jumpi\n      mload(0x40)\n      0x08c379a000000000000000000000000000000000000000000000000000000000\n      dup2\n      mstore\n      0x04\n      add\n      tag_371\n      swap1\n      tag_372\n      jump\t// in\n    tag_371:\n      mload(0x40)\n      dup1\n      swap2\n      sub\n      swap1\n      revert\n    tag_370:\n        /* \"@openzeppelin/contracts/access/Ownable.sol\":1359:1489  function _checkOwner() internal view virtual {... */\n      jump\t// out\n        /* \"@openzeppelin/contracts/access/Ownable.sol\":2426:2613  function _transferOwnership(address newOwner) internal virtual {... */\n    tag_265:\n        /* \"@openzeppelin/contracts/access/Ownable.sol\":2499:2515  address oldOwner */\n      0x00\n        /* \"@openzeppelin/contracts/access/Ownable.sol\":2518:2524  _owner */\n      0x05\n      0x00\n      swap1\n      sload\n      swap1\n      0x0100\n      exp\n      swap1\n      div\n      0xffffffffffffffffffffffffffffffffffffffff\n      and\n        /* \"@openzeppelin/contracts/access/Ownable.sol\":2499:2524  address oldOwner = _owner */\n      swap1\n      pop\n        /* \"@openzeppelin/contracts/access/Ownable.sol\":2543:2551  newOwner */\n      dup2\n        /* \"@openzeppelin/contracts/access/Ownable.sol\":2534:2540  _owner */\n      0x05\n      0x00\n        /* \"@openzeppelin/contracts/access/Ownable.sol\":2534:2551  _owner = newOwner */\n      0x0100\n      exp\n      dup2\n      sload\n      dup2\n      0xffffffffffffffffffffffffffffffffffffffff\n      mul\n      not\n      and\n      swap1\n      dup4\n      0xffffffffffffffffffffffffffffffffffffffff\n      and\n      mul\n      or\n      swap1\n      sstore\n      pop\n        /* \"@openzeppelin/contracts/access/Ownable.sol\":2597:2605  newOwner */\n      dup2\n        /* \"@openzeppelin/contracts/access/Ownable.sol\":2566:2606  OwnershipTransferred(oldOwner, newOwner) */\n      0xffffffffffffffffffffffffffffffffffffffff\n      and\n        /* \"@openzeppelin/contracts/access/Ownable.sol\":2587:2595  oldOwner */\n      dup2\n        /* \"@openzeppelin/contracts/access/Ownable.sol\":2566:2606  OwnershipTransferred(oldOwner, newOwner) */\n      0xffffffffffffffffffffffffffffffffffffffff\n      and\n      0x8be0079c531659141344cd1fd0a4f28419497f9722a3daafe3b4186f6b6457e0\n      mload(0x40)\n      mload(0x40)\n      dup1\n      swap2\n      sub\n      swap1\n      log3\n        /* \"@openzeppelin/contracts/access/Ownable.sol\":2489:2613  {... */\n      pop\n        /* \"@openzeppelin/contracts/access/Ownable.sol\":2426:2613  function _transferOwnership(address newOwner) internal virtual {... */\n      pop\n      jump\t// out\n        /* \"@openzeppelin/contracts/token/ERC20/ERC20.sol\":12073:12164  function _beforeTokenTransfer(address from, address to, uint256 amount) internal virtual {} */\n    tag_333:\n      pop\n      pop\n      pop\n      jump\t// out\n        /* \"@openzeppelin/contracts/token/ERC20/ERC20.sol\":12752:12842  function _afterTokenTransfer(address from, address to, uint256 amount) internal virtual {} */\n    tag_339:\n      pop\n      pop\n      pop\n      jump\t// out\n        /* \"#utility.yul\":7:106   */\n    tag_376:\n        /* \"#utility.yul\":59:65   */\n      0x00\n        /* \"#utility.yul\":93:98   */\n      dup2\n        /* \"#utility.yul\":87:99   */\n      mload\n        /* \"#utility.yul\":77:99   */\n      swap1\n      pop\n        /* \"#utility.yul\":7:106   */\n      swap2\n      swap1\n      pop\n      jump\t// out\n        /* \"#utility.yul\":112:281   */\n    tag_377:\n        /* \"#utility.yul\":196:207   */\n      0x00\n        /* \"#utility.yul\":230:236   */\n      dup3\n        /* \"#utility.yul\":225:228   */\n      dup3\n        /* \"#utility.yul\":218:237   */\n      mstore\n        /* \"#utility.yul\":270:274   */\n      0x20\n        /* \"#utility.yul\":265:268   */\n      dup3\n        /* \"#utility.yul\":261:275   */\n      add\n        /* \"#utility.yul\":246:275   */\n      swap1\n      pop\n        /* \"#utility.yul\":112:281   */\n      swap3\n      swap2\n      pop\n      pop\n      jump\t// out\n        /* \"#utility.yul\":287:533   */\n    tag_378:\n        /* \"#utility.yul\":368:369   */\n      0x00\n        /* \"#utility.yul\":378:491   */\n    tag_444:\n        /* \"#utility.yul\":392:398   */\n      dup4\n        /* \"#utility.yul\":389:390   */\n      dup2\n        /* \"#utility.yul\":386:399   */\n      lt\n        /* \"#utility.yul\":378:491   */\n      iszero\n      tag_446\n      jumpi\n        /* \"#utility.yul\":477:478   */\n      dup1\n        /* \"#utility.yul\":472:475   */\n      dup3\n        /* \"#utility.yul\":468:479   */\n      add\n        /* \"#utility.yul\":462:480   */\n      mload\n        /* \"#utility.yul\":458:459   */\n      dup2\n        /* \"#utility.yul\":453:456   */\n      dup5\n        /* \"#utility.yul\":449:460   */\n      add\n        /* \"#utility.yul\":442:481   */\n      mstore\n        /* \"#utility.yul\":414:416   */\n      0x20\n        /* \"#utility.yul\":411:412   */\n      dup2\n        /* \"#utility.yul\":407:417   */\n      add\n        /* \"#utility.yul\":402:417   */\n      swap1\n      pop\n        /* \"#utility.yul\":378:491   */\n      jump(tag_444)\n    tag_446:\n        /* \"#utility.yul\":525:526   */\n      0x00\n        /* \"#utility.yul\":516:522   */\n      dup5\n        /* \"#utility.yul\":511:514   */\n      dup5\n        /* \"#utility.yul\":507:523   */\n      add\n        /* \"#utility.yul\":500:527   */\n      mstore\n        /* \"#utility.yul\":349:533   */\n      pop\n        /* \"#utility.yul\":287:533   */\n      pop\n      pop\n      pop\n      jump\t// out\n        /* \"#utility.yul\":539:641   */\n    tag_379:\n        /* \"#utility.yul\":580:586   */\n      0x00\n        /* \"#utility.yul\":631:633   */\n      0x1f\n        /* \"#utility.yul\":627:634   */\n      not\n        /* \"#utility.yul\":622:624   */\n      0x1f\n        /* \"#utility.yul\":615:620   */\n      dup4\n        /* \"#utility.yul\":611:625   */\n      add\n        /* \"#utility.yul\":607:635   */\n      and\n        /* \"#utility.yul\":597:635   */\n      swap1\n      pop\n        /* \"#utility.yul\":539:641   */\n      swap2\n      swap1\n      pop\n      jump\t// out\n        /* \"#utility.yul\":647:1024   */\n    tag_380:\n        /* \"#utility.yul\":735:738   */\n      0x00\n        /* \"#utility.yul\":763:802   */\n      tag_449\n        /* \"#utility.yul\":796:801   */\n      dup3\n        /* \"#utility.yul\":763:802   */\n      tag_376\n      jump\t// in\n    tag_449:\n        /* \"#utility.yul\":818:889   */\n      tag_450\n        /* \"#utility.yul\":882:888   */\n      dup2\n        /* \"#utility.yul\":877:880   */\n      dup6\n        /* \"#utility.yul\":818:889   */\n      tag_377\n      jump\t// in\n    tag_450:\n        /* \"#utility.yul\":811:889   */\n      swap4\n      pop\n        /* \"#utility.yul\":898:963   */\n      tag_451\n        /* \"#utility.yul\":956:962   */\n      dup2\n        /* \"#utility.yul\":951:954   */\n      dup6\n        /* \"#utility.yul\":944:948   */\n      0x20\n        /* \"#utility.yul\":937:942   */\n      dup7\n        /* \"#utility.yul\":933:949   */\n      add\n        /* \"#utility.yul\":898:963   */\n      tag_378\n      jump\t// in\n    tag_451:\n        /* \"#utility.yul\":988:1017   */\n      tag_452\n        /* \"#utility.yul\":1010:1016   */\n      dup2\n        /* \"#utility.yul\":988:1017   */\n      tag_379\n      jump\t// in\n    tag_452:\n        /* \"#utility.yul\":983:986   */\n      dup5\n        /* \"#utility.yul\":979:1018   */\n      add\n        /* \"#utility.yul\":972:1018   */\n      swap2\n      pop\n        /* \"#utility.yul\":739:1024   */\n      pop\n        /* \"#utility.yul\":647:1024   */\n      swap3\n      swap2\n      pop\n      pop\n      jump\t// out\n        /* \"#utility.yul\":1030:1343   */\n    tag_37:\n        /* \"#utility.yul\":1143:1147   */\n      0x00\n        /* \"#utility.yul\":1181:1183   */\n      0x20\n        /* \"#utility.yul\":1170:1179   */\n      dup3\n        /* \"#utility.yul\":1166:1184   */\n      add\n        /* \"#utility.yul\":1158:1184   */\n      swap1\n      pop\n        /* \"#utility.yul\":1230:1239   */\n      dup2\n        /* \"#utility.yul\":1224:1228   */\n      dup2\n        /* \"#utility.yul\":1220:1240   */\n      sub\n        /* \"#utility.yul\":1216:1217   */\n      0x00\n        /* \"#utility.yul\":1205:1214   */\n      dup4\n        /* \"#utility.yul\":1201:1218   */\n      add\n        /* \"#utility.yul\":1194:1241   */\n      mstore\n        /* \"#utility.yul\":1258:1336   */\n      tag_454\n        /* \"#utility.yul\":1331:1335   */\n      dup2\n        /* \"#utility.yul\":1322:1328   */\n      dup5\n        /* \"#utility.yul\":1258:1336   */\n      tag_380\n      jump\t// in\n    tag_454:\n        /* \"#utility.yul\":1250:1336   */\n      swap1\n      pop\n        /* \"#utility.yul\":1030:1343   */\n      swap3\n      swap2\n      pop\n      pop\n      jump\t// out\n        /* \"#utility.yul\":1430:1547   */\n    tag_382:\n        /* \"#utility.yul\":1539:1540   */\n      0x00\n        /* \"#utility.yul\":1536:1537   */\n      dup1\n        /* \"#utility.yul\":1529:1541   */\n      revert\n        /* \"#utility.yul\":1676:1802   */\n    tag_384:\n        /* \"#utility.yul\":1713:1720   */\n      0x00\n        /* \"#utility.yul\":1753:1795   */\n      0xffffffffffffffffffffffffffffffffffffffff\n        /* \"#utility.yul\":1746:1751   */\n      dup3\n        /* \"#utility.yul\":1742:1796   */\n      and\n        /* \"#utility.yul\":1731:1796   */\n      swap1\n      pop\n        /* \"#utility.yul\":1676:1802   */\n      swap2\n      swap1\n      pop\n      jump\t// out\n        /* \"#utility.yul\":1808:1904   */\n    tag_385:\n        /* \"#utility.yul\":1845:1852   */\n      0x00\n        /* \"#utility.yul\":1874:1898   */\n      tag_460\n        /* \"#utility.yul\":1892:1897   */\n      dup3\n        /* \"#utility.yul\":1874:1898   */\n      tag_384\n      jump\t// in\n    tag_460:\n        /* \"#utility.yul\":1863:1898   */\n      swap1\n      pop\n        /* \"#utility.yul\":1808:1904   */\n      swap2\n      swap1\n      pop\n      jump\t// out\n        /* \"#utility.yul\":1910:2032   */\n    tag_386:\n        /* \"#utility.yul\":1983:2007   */\n      tag_462\n        /* \"#utility.yul\":2001:2006   */\n      dup2\n        /* \"#utility.yul\":1983:2007   */\n      tag_385\n      jump\t// in\n    tag_462:\n        /* \"#utility.yul\":1976:1981   */\n      dup2\n        /* \"#utility.yul\":1973:2008   */\n      eq\n        /* \"#utility.yul\":1963:2026   */\n      tag_463\n      jumpi\n        /* \"#utility.yul\":2022:2023   */\n      0x00\n        /* \"#utility.yul\":2019:2020   */\n      dup1\n        /* \"#utility.yul\":2012:2024   */\n      revert\n        /* \"#utility.yul\":1963:2026   */\n    tag_463:\n        /* \"#utility.yul\":1910:2032   */\n      pop\n      jump\t// out\n        /* \"#utility.yul\":2038:2177   */\n    tag_387:\n        /* \"#utility.yul\":2084:2089   */\n      0x00\n        /* \"#utility.yul\":2122:2128   */\n      dup2\n        /* \"#utility.yul\":2109:2129   */\n      calldataload\n        /* \"#utility.yul\":2100:2129   */\n      swap1\n      pop\n        /* \"#utility.yul\":2138:2171   */\n      tag_465\n        /* \"#utility.yul\":2165:2170   */\n      dup2\n        /* \"#utility.yul\":2138:2171   */\n      tag_386\n      jump\t// in\n    tag_465:\n        /* \"#utility.yul\":2038:2177   */\n      swap3\n      swap2\n      pop\n      pop\n      jump\t// out\n        /* \"#utility.yul\":2183:2260   */\n    tag_388:\n        /* \"#utility.yul\":2220:2227   */\n      0x00\n        /* \"#utility.yul\":2249:2254   */\n      dup2\n        /* \"#utility.yul\":2238:2254   */\n      swap1\n      pop\n        /* \"#utility.yul\":2183:2260   */\n      swap2\n      swap1\n      pop\n      jump\t// out\n        /* \"#utility.yul\":2266:2388   */\n    tag_389:\n        /* \"#utility.yul\":2339:2363   */\n      tag_468\n        /* \"#utility.yul\":2357:2362   */\n      dup2\n        /* \"#utility.yul\":2339:2363   */\n      tag_388\n      jump\t// in\n    tag_468:\n        /* \"#utility.yul\":2332:2337   */\n      dup2\n        /* \"#utility.yul\":2329:2364   */\n      eq\n        /* \"#utility.yul\":2319:2382   */\n      tag_469\n      jumpi\n        /* \"#utility.yul\":2378:2379   */\n      0x00\n        /* \"#utility.yul\":2375:2376   */\n      dup1\n        /* \"#utility.yul\":2368:2380   */\n      revert\n        /* \"#utility.yul\":2319:2382   */\n    tag_469:\n        /* \"#utility.yul\":2266:2388   */\n      pop\n      jump\t// out\n        /* \"#utility.yul\":2394:2533   */\n    tag_390:\n        /* \"#utility.yul\":2440:2445   */\n      0x00\n        /* \"#utility.yul\":2478:2484   */\n      dup2\n        /* \"#utility.yul\":2465:2485   */\n      calldataload\n        /* \"#utility.yul\":2456:2485   */\n      swap1\n      pop\n        /* \"#utility.yul\":2494:2527   */\n      tag_471\n        /* \"#utility.yul\":2521:2526   */\n      dup2\n        /* \"#utility.yul\":2494:2527   */\n      tag_389\n      jump\t// in\n    tag_471:\n        /* \"#utility.yul\":2394:2533   */\n      swap3\n      swap2\n      pop\n      pop\n      jump\t// out\n        /* \"#utility.yul\":2539:3013   */\n    tag_41:\n        /* \"#utility.yul\":2607:2613   */\n      0x00\n        /* \"#utility.yul\":2615:2621   */\n      dup1\n        /* \"#utility.yul\":2664:2666   */\n      0x40\n        /* \"#utility.yul\":2652:2661   */\n      dup4\n        /* \"#utility.yul\":2643:2650   */\n      dup6\n        /* \"#utility.yul\":2639:2662   */\n      sub\n        /* \"#utility.yul\":2635:2667   */\n      slt\n        /* \"#utility.yul\":2632:2751   */\n      iszero\n      tag_473\n      jumpi\n        /* \"#utility.yul\":2670:2749   */\n      tag_474\n      tag_382\n      jump\t// in\n    tag_474:\n        /* \"#utility.yul\":2632:2751   */\n    tag_473:\n        /* \"#utility.yul\":2790:2791   */\n      0x00\n        /* \"#utility.yul\":2815:2868   */\n      tag_475\n        /* \"#utility.yul\":2860:2867   */\n      dup6\n        /* \"#utility.yul\":2851:2857   */\n      dup3\n        /* \"#utility.yul\":2840:2849   */\n      dup7\n        /* \"#utility.yul\":2836:2858   */\n      add\n        /* \"#utility.yul\":2815:2868   */\n      tag_387\n      jump\t// in\n    tag_475:\n        /* \"#utility.yul\":2805:2868   */\n      swap3\n      pop\n        /* \"#utility.yul\":2761:2878   */\n      pop\n        /* \"#utility.yul\":2917:2919   */\n      0x20\n        /* \"#utility.yul\":2943:2996   */\n      tag_476\n        /* \"#utility.yul\":2988:2995   */\n      dup6\n        /* \"#utility.yul\":2979:2985   */\n      dup3\n        /* \"#utility.yul\":2968:2977   */\n      dup7\n        /* \"#utility.yul\":2964:2986   */\n      add\n        /* \"#utility.yul\":2943:2996   */\n      tag_390\n      jump\t// in\n    tag_476:\n        /* \"#utility.yul\":2933:2996   */\n      swap2\n      pop\n        /* \"#utility.yul\":2888:3006   */\n      pop\n        /* \"#utility.yul\":2539:3013   */\n      swap3\n      pop\n      swap3\n      swap1\n      pop\n      jump\t// out\n        /* \"#utility.yul\":3019:3109   */\n    tag_391:\n        /* \"#utility.yul\":3053:3060   */\n      0x00\n        /* \"#utility.yul\":3096:3101   */\n      dup2\n        /* \"#utility.yul\":3089:3102   */\n      iszero\n        /* \"#utility.yul\":3082:3103   */\n      iszero\n        /* \"#utility.yul\":3071:3103   */\n      swap1\n      pop\n        /* \"#utility.yul\":3019:3109   */\n      swap2\n      swap1\n      pop\n      jump\t// out\n        /* \"#utility.yul\":3115:3224   */\n    tag_392:\n        /* \"#utility.yul\":3196:3217   */\n      tag_479\n        /* \"#utility.yul\":3211:3216   */\n      dup2\n        /* \"#utility.yul\":3196:3217   */\n      tag_391\n      jump\t// in\n    tag_479:\n        /* \"#utility.yul\":3191:3194   */\n      dup3\n        /* \"#utility.yul\":3184:3218   */\n      mstore\n        /* \"#utility.yul\":3115:3224   */\n      pop\n      pop\n      jump\t// out\n        /* \"#utility.yul\":3230:3440   */\n    tag_44:\n        /* \"#utility.yul\":3317:3321   */\n      0x00\n        /* \"#utility.yul\":3355:3357   */\n      0x20\n        /* \"#utility.yul\":3344:3353   */\n      dup3\n        /* \"#utility.yul\":3340:3358   */\n      add\n        /* \"#utility.yul\":3332:3358   */\n      swap1\n      pop\n        /* \"#utility.yul\":3368:3433   */\n      tag_481\n        /* \"#utility.yul\":3430:3431   */\n      0x00\n        /* \"#utility.yul\":3419:3428   */\n      dup4\n        /* \"#utility.yul\":3415:3432   */\n      add\n        /* \"#utility.yul\":3406:3412   */\n      dup5\n        /* \"#utility.yul\":3368:3433   */\n      tag_392\n      jump\t// in\n    tag_481:\n        /* \"#utility.yul\":3230:3440   */\n      swap3\n      swap2\n      pop\n      pop\n      jump\t// out\n        /* \"#utility.yul\":3446:3564   */\n    tag_393:\n        /* \"#utility.yul\":3533:3557   */\n      tag_483\n        /* \"#utility.yul\":3551:3556   */\n      dup2\n        /* \"#utility.yul\":3533:3557   */\n      tag_388\n      jump\t// in\n    tag_483:\n        /* \"#utility.yul\":3528:3531   */\n      dup3\n        /* \"#utility.yul\":3521:3558   */\n      mstore\n        /* \"#utility.yul\":3446:3564   */\n      pop\n      pop\n      jump\t// out\n        /* \"#utility.yul\":3570:3792   */\n    tag_49:\n        /* \"#utility.yul\":3663:3667   */\n      0x00\n        /* \"#utility.yul\":3701:3703   */\n      0x20\n        /* \"#utility.yul\":3690:3699   */\n      dup3\n        /* \"#utility.yul\":3686:3704   */\n      add\n        /* \"#utility.yul\":3678:3704   */\n      swap1\n      pop\n        /* \"#utility.yul\":3714:3785   */\n      tag_485\n        /* \"#utility.yul\":3782:3783   */\n      0x00\n        /* \"#utility.yul\":3771:3780   */\n      dup4\n        /* \"#utility.yul\":3767:3784   */\n      add\n        /* \"#utility.yul\":3758:3764   */\n      dup5\n        /* \"#utility.yul\":3714:3785   */\n      tag_393\n      jump\t// in\n    tag_485:\n        /* \"#utility.yul\":3570:3792   */\n      swap3\n      swap2\n      pop\n      pop\n      jump\t// out\n        /* \"#utility.yul\":3798:4417   */\n    tag_53:\n        /* \"#utility.yul\":3875:3881   */\n      0x00\n        /* \"#utility.yul\":3883:3889   */\n      dup1\n        /* \"#utility.yul\":3891:3897   */\n      0x00\n        /* \"#utility.yul\":3940:3942   */\n      0x60\n        /* \"#utility.yul\":3928:3937   */\n      dup5\n        /* \"#utility.yul\":3919:3926   */\n      dup7\n        /* \"#utility.yul\":3915:3938   */\n      sub\n        /* \"#utility.yul\":3911:3943   */\n      slt\n        /* \"#utility.yul\":3908:4027   */\n      iszero\n      tag_487\n      jumpi\n        /* \"#utility.yul\":3946:4025   */\n      tag_488\n      tag_382\n      jump\t// in\n    tag_488:\n        /* \"#utility.yul\":3908:4027   */\n    tag_487:\n        /* \"#utility.yul\":4066:4067   */\n      0x00\n        /* \"#utility.yul\":4091:4144   */\n      tag_489\n        /* \"#utility.yul\":4136:4143   */\n      dup7\n        /* \"#utility.yul\":4127:4133   */\n      dup3\n        /* \"#utility.yul\":4116:4125   */\n      dup8\n        /* \"#utility.yul\":4112:4134   */\n      add\n        /* \"#utility.yul\":4091:4144   */\n      tag_387\n      jump\t// in\n    tag_489:\n        /* \"#utility.yul\":4081:4144   */\n      swap4\n      pop\n        /* \"#utility.yul\":4037:4154   */\n      pop\n        /* \"#utility.yul\":4193:4195   */\n      0x20\n        /* \"#utility.yul\":4219:4272   */\n      tag_490\n        /* \"#utility.yul\":4264:4271   */\n      dup7\n        /* \"#utility.yul\":4255:4261   */\n      dup3\n        /* \"#utility.yul\":4244:4253   */\n      dup8\n        /* \"#utility.yul\":4240:4262   */\n      add\n        /* \"#utility.yul\":4219:4272   */\n      tag_387\n      jump\t// in\n    tag_490:\n        /* \"#utility.yul\":4209:4272   */\n      swap3\n      pop\n        /* \"#utility.yul\":4164:4282   */\n      pop\n        /* \"#utility.yul\":4321:4323   */\n      0x40\n        /* \"#utility.yul\":4347:4400   */\n      tag_491\n        /* \"#utility.yul\":4392:4399   */\n      dup7\n        /* \"#utility.yul\":4383:4389   */\n      dup3\n        /* \"#utility.yul\":4372:4381   */\n      dup8\n        /* \"#utility.yul\":4368:4390   */\n      add\n        /* \"#utility.yul\":4347:4400   */\n      tag_390\n      jump\t// in\n    tag_491:\n        /* \"#utility.yul\":4337:4400   */\n      swap2\n      pop\n        /* \"#utility.yul\":4292:4410   */\n      pop\n        /* \"#utility.yul\":3798:4417   */\n      swap3\n      pop\n      swap3\n      pop\n      swap3\n      jump\t// out\n        /* \"#utility.yul\":4423:4752   */\n    tag_59:\n        /* \"#utility.yul\":4482:4488   */\n      0x00\n        /* \"#utility.yul\":4531:4533   */\n      0x20\n        /* \"#utility.yul\":4519:4528   */\n      dup3\n        /* \"#utility.yul\":4510:4517   */\n      dup5\n        /* \"#utility.yul\":4506:4529   */\n      sub\n        /* \"#utility.yul\":4502:4534   */\n      slt\n        /* \"#utility.yul\":4499:4618   */\n      iszero\n      tag_493\n      jumpi\n        /* \"#utility.yul\":4537:4616   */\n      tag_494\n      tag_382\n      jump\t// in\n    tag_494:\n        /* \"#utility.yul\":4499:4618   */\n    tag_493:\n        /* \"#utility.yul\":4657:4658   */\n      0x00\n        /* \"#utility.yul\":4682:4735   */\n      tag_495\n        /* \"#utility.yul\":4727:4734   */\n      dup5\n        /* \"#utility.yul\":4718:4724   */\n      dup3\n        /* \"#utility.yul\":4707:4716   */\n      dup6\n        /* \"#utility.yul\":4703:4725   */\n      add\n        /* \"#utility.yul\":4682:4735   */\n      tag_390\n      jump\t// in\n    tag_495:\n        /* \"#utility.yul\":4672:4735   */\n      swap2\n      pop\n        /* \"#utility.yul\":4628:4745   */\n      pop\n        /* \"#utility.yul\":4423:4752   */\n      swap3\n      swap2\n      pop\n      pop\n      jump\t// out\n        /* \"#utility.yul\":4758:4844   */\n    tag_394:\n        /* \"#utility.yul\":4793:4800   */\n      0x00\n        /* \"#utility.yul\":4833:4837   */\n      0xff\n        /* \"#utility.yul\":4826:4831   */\n      dup3\n        /* \"#utility.yul\":4822:4838   */\n      and\n        /* \"#utility.yul\":4811:4838   */\n      swap1\n      pop\n        /* \"#utility.yul\":4758:4844   */\n      swap2\n      swap1\n      pop\n      jump\t// out\n        /* \"#utility.yul\":4850:4962   */\n    tag_395:\n        /* \"#utility.yul\":4933:4955   */\n      tag_498\n        /* \"#utility.yul\":4949:4954   */\n      dup2\n        /* \"#utility.yul\":4933:4955   */\n      tag_394\n      jump\t// in\n    tag_498:\n        /* \"#utility.yul\":4928:4931   */\n      dup3\n        /* \"#utility.yul\":4921:4956   */\n      mstore\n        /* \"#utility.yul\":4850:4962   */\n      pop\n      pop\n      jump\t// out\n        /* \"#utility.yul\":4968:5182   */\n    tag_65:\n        /* \"#utility.yul\":5057:5061   */\n      0x00\n        /* \"#utility.yul\":5095:5097   */\n      0x20\n        /* \"#utility.yul\":5084:5093   */\n      dup3\n        /* \"#utility.yul\":5080:5098   */\n      add\n        /* \"#utility.yul\":5072:5098   */\n      swap1\n      pop\n        /* \"#utility.yul\":5108:5175   */\n      tag_500\n        /* \"#utility.yul\":5172:5173   */\n      0x00\n        /* \"#utility.yul\":5161:5170   */\n      dup4\n        /* \"#utility.yul\":5157:5174   */\n      add\n        /* \"#utility.yul\":5148:5154   */\n      dup5\n        /* \"#utility.yul\":5108:5175   */\n      tag_395\n      jump\t// in\n    tag_500:\n        /* \"#utility.yul\":4968:5182   */\n      swap3\n      swap2\n      pop\n      pop\n      jump\t// out\n        /* \"#utility.yul\":5188:5517   */\n    tag_95:\n        /* \"#utility.yul\":5247:5253   */\n      0x00\n        /* \"#utility.yul\":5296:5298   */\n      0x20\n        /* \"#utility.yul\":5284:5293   */\n      dup3\n        /* \"#utility.yul\":5275:5282   */\n      dup5\n        /* \"#utility.yul\":5271:5294   */\n      sub\n        /* \"#utility.yul\":5267:5299   */\n      slt\n        /* \"#utility.yul\":5264:5383   */\n      iszero\n      tag_502\n      jumpi\n        /* \"#utility.yul\":5302:5381   */\n      tag_503\n      tag_382\n      jump\t// in\n    tag_503:\n        /* \"#utility.yul\":5264:5383   */\n    tag_502:\n        /* \"#utility.yul\":5422:5423   */\n      0x00\n        /* \"#utility.yul\":5447:5500   */\n      tag_504\n        /* \"#utility.yul\":5492:5499   */\n      dup5\n        /* \"#utility.yul\":5483:5489   */\n      dup3\n        /* \"#utility.yul\":5472:5481   */\n      dup6\n        /* \"#utility.yul\":5468:5490   */\n      add\n        /* \"#utility.yul\":5447:5500   */\n      tag_387\n      jump\t// in\n    tag_504:\n        /* \"#utility.yul\":5437:5500   */\n      swap2\n      pop\n        /* \"#utility.yul\":5393:5510   */\n      pop\n        /* \"#utility.yul\":5188:5517   */\n      swap3\n      swap2\n      pop\n      pop\n      jump\t// out\n        /* \"#utility.yul\":5523:5641   */\n    tag_396:\n        /* \"#utility.yul\":5610:5634   */\n      tag_506\n        /* \"#utility.yul\":5628:5633   */\n      dup2\n        /* \"#utility.yul\":5610:5634   */\n      tag_385\n      jump\t// in\n    tag_506:\n        /* \"#utility.yul\":5605:5608   */\n      dup3\n        /* \"#utility.yul\":5598:5635   */\n      mstore\n        /* \"#utility.yul\":5523:5641   */\n      pop\n      pop\n      jump\t// out\n        /* \"#utility.yul\":5647:5869   */\n    tag_113:\n        /* \"#utility.yul\":5740:5744   */\n      0x00\n        /* \"#utility.yul\":5778:5780   */\n      0x20\n        /* \"#utility.yul\":5767:5776   */\n      dup3\n        /* \"#utility.yul\":5763:5781   */\n      add\n        /* \"#utility.yul\":5755:5781   */\n      swap1\n      pop\n        /* \"#utility.yul\":5791:5862   */\n      tag_508\n        /* \"#utility.yul\":5859:5860   */\n      0x00\n        /* \"#utility.yul\":5848:5857   */\n      dup4\n        /* \"#utility.yul\":5844:5861   */\n      add\n        /* \"#utility.yul\":5835:5841   */\n      dup5\n        /* \"#utility.yul\":5791:5862   */\n      tag_396\n      jump\t// in\n    tag_508:\n        /* \"#utility.yul\":5647:5869   */\n      swap3\n      swap2\n      pop\n      pop\n      jump\t// out\n        /* \"#utility.yul\":5875:6317   */\n    tag_119:\n        /* \"#utility.yul\":6024:6028   */\n      0x00\n        /* \"#utility.yul\":6062:6064   */\n      0x60\n        /* \"#utility.yul\":6051:6060   */\n      dup3\n        /* \"#utility.yul\":6047:6065   */\n      add\n        /* \"#utility.yul\":6039:6065   */\n      swap1\n      pop\n        /* \"#utility.yul\":6075:6146   */\n      tag_510\n        /* \"#utility.yul\":6143:6144   */\n      0x00\n        /* \"#utility.yul\":6132:6141   */\n      dup4\n        /* \"#utility.yul\":6128:6145   */\n      add\n        /* \"#utility.yul\":6119:6125   */\n      dup7\n        /* \"#utility.yul\":6075:6146   */\n      tag_393\n      jump\t// in\n    tag_510:\n        /* \"#utility.yul\":6156:6228   */\n      tag_511\n        /* \"#utility.yul\":6224:6226   */\n      0x20\n        /* \"#utility.yul\":6213:6222   */\n      dup4\n        /* \"#utility.yul\":6209:6227   */\n      add\n        /* \"#utility.yul\":6200:6206   */\n      dup6\n        /* \"#utility.yul\":6156:6228   */\n      tag_393\n      jump\t// in\n    tag_511:\n        /* \"#utility.yul\":6238:6310   */\n      tag_512\n        /* \"#utility.yul\":6306:6308   */\n      0x40\n        /* \"#utility.yul\":6295:6304   */\n      dup4\n        /* \"#utility.yul\":6291:6309   */\n      add\n        /* \"#utility.yul\":6282:6288   */\n      dup5\n        /* \"#utility.yul\":6238:6310   */\n      tag_393\n      jump\t// in\n    tag_512:\n        /* \"#utility.yul\":5875:6317   */\n      swap5\n      swap4\n      pop\n      pop\n      pop\n      pop\n      jump\t// out\n        /* \"#utility.yul\":6323:6797   */\n    tag_145:\n        /* \"#utility.yul\":6391:6397   */\n      0x00\n        /* \"#utility.yul\":6399:6405   */\n      dup1\n        /* \"#utility.yul\":6448:6450   */\n      0x40\n        /* \"#utility.yul\":6436:6445   */\n      dup4\n        /* \"#utility.yul\":6427:6434   */\n      dup6\n        /* \"#utility.yul\":6423:6446   */\n      sub\n        /* \"#utility.yul\":6419:6451   */\n      slt\n        /* \"#utility.yul\":6416:6535   */\n      iszero\n      tag_514\n      jumpi\n        /* \"#utility.yul\":6454:6533   */\n      tag_515\n      tag_382\n      jump\t// in\n    tag_515:\n        /* \"#utility.yul\":6416:6535   */\n    tag_514:\n        /* \"#utility.yul\":6574:6575   */\n      0x00\n        /* \"#utility.yul\":6599:6652   */\n      tag_516\n        /* \"#utility.yul\":6644:6651   */\n      dup6\n        /* \"#utility.yul\":6635:6641   */\n      dup3\n        /* \"#utility.yul\":6624:6633   */\n      dup7\n        /* \"#utility.yul\":6620:6642   */\n      add\n        /* \"#utility.yul\":6599:6652   */\n      tag_387\n      jump\t// in\n    tag_516:\n        /* \"#utility.yul\":6589:6652   */\n      swap3\n      pop\n        /* \"#utility.yul\":6545:6662   */\n      pop\n        /* \"#utility.yul\":6701:6703   */\n      0x20\n        /* \"#utility.yul\":6727:6780   */\n      tag_517\n        /* \"#utility.yul\":6772:6779   */\n      dup6\n        /* \"#utility.yul\":6763:6769   */\n      dup3\n        /* \"#utility.yul\":6752:6761   */\n      dup7\n        /* \"#utility.yul\":6748:6770   */\n      add\n        /* \"#utility.yul\":6727:6780   */\n      tag_387\n      jump\t// in\n    tag_517:\n        /* \"#utility.yul\":6717:6780   */\n      swap2\n      pop\n        /* \"#utility.yul\":6672:6790   */\n      pop\n        /* \"#utility.yul\":6323:6797   */\n      swap3\n      pop\n      swap3\n      swap1\n      pop\n      jump\t// out\n        /* \"#utility.yul\":6803:6983   */\n    tag_397:\n        /* \"#utility.yul\":6851:6928   */\n      0x4e487b7100000000000000000000000000000000000000000000000000000000\n        /* \"#utility.yul\":6848:6849   */\n      0x00\n        /* \"#utility.yul\":6841:6929   */\n      mstore\n        /* \"#utility.yul\":6948:6952   */\n      0x22\n        /* \"#utility.yul\":6945:6946   */\n      0x04\n        /* \"#utility.yul\":6938:6953   */\n      mstore\n        /* \"#utility.yul\":6972:6976   */\n      0x24\n        /* \"#utility.yul\":6969:6970   */\n      0x00\n        /* \"#utility.yul\":6962:6977   */\n      revert\n        /* \"#utility.yul\":6989:7309   */\n    tag_154:\n        /* \"#utility.yul\":7033:7039   */\n      0x00\n        /* \"#utility.yul\":7070:7071   */\n      0x02\n        /* \"#utility.yul\":7064:7068   */\n      dup3\n        /* \"#utility.yul\":7060:7072   */\n      div\n        /* \"#utility.yul\":7050:7072   */\n      swap1\n      pop\n        /* \"#utility.yul\":7117:7118   */\n      0x01\n        /* \"#utility.yul\":7111:7115   */\n      dup3\n        /* \"#utility.yul\":7107:7119   */\n      and\n        /* \"#utility.yul\":7138:7156   */\n      dup1\n        /* \"#utility.yul\":7128:7209   */\n      tag_520\n      jumpi\n        /* \"#utility.yul\":7194:7198   */\n      0x7f\n        /* \"#utility.yul\":7186:7192   */\n      dup3\n        /* \"#utility.yul\":7182:7199   */\n      and\n        /* \"#utility.yul\":7172:7199   */\n      swap2\n      pop\n        /* \"#utility.yul\":7128:7209   */\n    tag_520:\n        /* \"#utility.yul\":7256:7258   */\n      0x20\n        /* \"#utility.yul\":7248:7254   */\n      dup3\n        /* \"#utility.yul\":7245:7259   */\n      lt\n        /* \"#utility.yul\":7225:7243   */\n      dup2\n        /* \"#utility.yul\":7222:7260   */\n      sub\n        /* \"#utility.yul\":7219:7303   */\n      tag_521\n      jumpi\n        /* \"#utility.yul\":7275:7293   */\n      tag_522\n      tag_397\n      jump\t// in\n    tag_522:\n        /* \"#utility.yul\":7219:7303   */\n    tag_521:\n        /* \"#utility.yul\":7040:7309   */\n      pop\n        /* \"#utility.yul\":6989:7309   */\n      swap2\n      swap1\n      pop\n      jump\t// out\n        /* \"#utility.yul\":7315:7536   */\n    tag_398:\n        /* \"#utility.yul\":7455:7489   */\n      0x4d75737420756e7374616b65206d6f7265207468616e207a65726f20746f6b65\n        /* \"#utility.yul\":7451:7452   */\n      0x00\n        /* \"#utility.yul\":7443:7449   */\n      dup3\n        /* \"#utility.yul\":7439:7453   */\n      add\n        /* \"#utility.yul\":7432:7490   */\n      mstore\n        /* \"#utility.yul\":7524:7528   */\n      0x6e73000000000000000000000000000000000000000000000000000000000000\n        /* \"#utility.yul\":7519:7521   */\n      0x20\n        /* \"#utility.yul\":7511:7517   */\n      dup3\n        /* \"#utility.yul\":7507:7522   */\n      add\n        /* \"#utility.yul\":7500:7529   */\n      mstore\n        /* \"#utility.yul\":7315:7536   */\n      pop\n      jump\t// out\n        /* \"#utility.yul\":7542:7908   */\n    tag_399:\n        /* \"#utility.yul\":7684:7687   */\n      0x00\n        /* \"#utility.yul\":7705:7772   */\n      tag_525\n        /* \"#utility.yul\":7769:7771   */\n      0x22\n        /* \"#utility.yul\":7764:7767   */\n      dup4\n        /* \"#utility.yul\":7705:7772   */\n      tag_377\n      jump\t// in\n    tag_525:\n        /* \"#utility.yul\":7698:7772   */\n      swap2\n      pop\n        /* \"#utility.yul\":7781:7874   */\n      tag_526\n        /* \"#utility.yul\":7870:7873   */\n      dup3\n        /* \"#utility.yul\":7781:7874   */\n      tag_398\n      jump\t// in\n    tag_526:\n        /* \"#utility.yul\":7899:7901   */\n      0x40\n        /* \"#utility.yul\":7894:7897   */\n      dup3\n        /* \"#utility.yul\":7890:7902   */\n      add\n        /* \"#utility.yul\":7883:7902   */\n      swap1\n      pop\n        /* \"#utility.yul\":7542:7908   */\n      swap2\n      swap1\n      pop\n      jump\t// out\n        /* \"#utility.yul\":7914:8333   */\n    tag_174:\n        /* \"#utility.yul\":8080:8084   */\n      0x00\n        /* \"#utility.yul\":8118:8120   */\n      0x20\n        /* \"#utility.yul\":8107:8116   */\n      dup3\n        /* \"#utility.yul\":8103:8121   */\n      add\n        /* \"#utility.yul\":8095:8121   */\n      swap1\n      pop\n        /* \"#utility.yul\":8167:8176   */\n      dup2\n        /* \"#utility.yul\":8161:8165   */\n      dup2\n        /* \"#utility.yul\":8157:8177   */\n      sub\n        /* \"#utility.yul\":8153:8154   */\n      0x00\n        /* \"#utility.yul\":8142:8151   */\n      dup4\n        /* \"#utility.yul\":8138:8155   */\n      add\n        /* \"#utility.yul\":8131:8178   */\n      mstore\n        /* \"#utility.yul\":8195:8326   */\n      tag_528\n        /* \"#utility.yul\":8321:8325   */\n      dup2\n        /* \"#utility.yul\":8195:8326   */\n      tag_399\n      jump\t// in\n    tag_528:\n        /* \"#utility.yul\":8187:8326   */\n      swap1\n      pop\n        /* \"#utility.yul\":7914:8333   */\n      swap2\n      swap1\n      pop\n      jump\t// out\n        /* \"#utility.yul\":8339:8517   */\n    tag_400:\n        /* \"#utility.yul\":8479:8509   */\n      0x4e6f7420456e6f75676820546f6b656e7320546f20556e7374616b6500000000\n        /* \"#utility.yul\":8475:8476   */\n      0x00\n        /* \"#utility.yul\":8467:8473   */\n      dup3\n        /* \"#utility.yul\":8463:8477   */\n      add\n        /* \"#utility.yul\":8456:8510   */\n      mstore\n        /* \"#utility.yul\":8339:8517   */\n      pop\n      jump\t// out\n        /* \"#utility.yul\":8523:8889   */\n    tag_401:\n        /* \"#utility.yul\":8665:8668   */\n      0x00\n        /* \"#utility.yul\":8686:8753   */\n      tag_531\n        /* \"#utility.yul\":8750:8752   */\n      0x1c\n        /* \"#utility.yul\":8745:8748   */\n      dup4\n        /* \"#utility.yul\":8686:8753   */\n      tag_377\n      jump\t// in\n    tag_531:\n        /* \"#utility.yul\":8679:8753   */\n      swap2\n      pop\n        /* \"#utility.yul\":8762:8855   */\n      tag_532\n        /* \"#utility.yul\":8851:8854   */\n      dup3\n        /* \"#utility.yul\":8762:8855   */\n      tag_400\n      jump\t// in\n    tag_532:\n        /* \"#utility.yul\":8880:8882   */\n      0x20\n        /* \"#utility.yul\":8875:8878   */\n      dup3\n        /* \"#utility.yul\":8871:8883   */\n      add\n        /* \"#utility.yul\":8864:8883   */\n      swap1\n      pop\n        /* \"#utility.yul\":8523:8889   */\n      swap2\n      swap1\n      pop\n      jump\t// out\n        /* \"#utility.yul\":8895:9314   */\n    tag_177:\n        /* \"#utility.yul\":9061:9065   */\n      0x00\n        /* \"#utility.yul\":9099:9101   */\n      0x20\n        /* \"#utility.yul\":9088:9097   */\n      dup3\n        /* \"#utility.yul\":9084:9102   */\n      add\n        /* \"#utility.yul\":9076:9102   */\n      swap1\n      pop\n        /* \"#utility.yul\":9148:9157   */\n      dup2\n        /* \"#utility.yul\":9142:9146   */\n      dup2\n        /* \"#utility.yul\":9138:9158   */\n      sub\n        /* \"#utility.yul\":9134:9135   */\n      0x00\n        /* \"#utility.yul\":9123:9132   */\n      dup4\n        /* \"#utility.yul\":9119:9136   */\n      add\n        /* \"#utility.yul\":9112:9159   */\n      mstore\n        /* \"#utility.yul\":9176:9307   */\n      tag_534\n        /* \"#utility.yul\":9302:9306   */\n      dup2\n        /* \"#utility.yul\":9176:9307   */\n      tag_401\n      jump\t// in\n    tag_534:\n        /* \"#utility.yul\":9168:9307   */\n      swap1\n      pop\n        /* \"#utility.yul\":8895:9314   */\n      swap2\n      swap1\n      pop\n      jump\t// out\n        /* \"#utility.yul\":9320:9500   */\n    tag_402:\n        /* \"#utility.yul\":9368:9445   */\n      0x4e487b7100000000000000000000000000000000000000000000000000000000\n        /* \"#utility.yul\":9365:9366   */\n      0x00\n        /* \"#utility.yul\":9358:9446   */\n      mstore\n        /* \"#utility.yul\":9465:9469   */\n      0x11\n        /* \"#utility.yul\":9462:9463   */\n      0x04\n        /* \"#utility.yul\":9455:9470   */\n      mstore\n        /* \"#utility.yul\":9489:9493   */\n      0x24\n        /* \"#utility.yul\":9486:9487   */\n      0x00\n        /* \"#utility.yul\":9479:9494   */\n      revert\n        /* \"#utility.yul\":9506:9700   */\n    tag_181:\n        /* \"#utility.yul\":9546:9550   */\n      0x00\n        /* \"#utility.yul\":9566:9586   */\n      tag_537\n        /* \"#utility.yul\":9584:9585   */\n      dup3\n        /* \"#utility.yul\":9566:9586   */\n      tag_388\n      jump\t// in\n    tag_537:\n        /* \"#utility.yul\":9561:9586   */\n      swap2\n      pop\n        /* \"#utility.yul\":9600:9620   */\n      tag_538\n        /* \"#utility.yul\":9618:9619   */\n      dup4\n        /* \"#utility.yul\":9600:9620   */\n      tag_388\n      jump\t// in\n    tag_538:\n        /* \"#utility.yul\":9595:9620   */\n      swap3\n      pop\n        /* \"#utility.yul\":9644:9645   */\n      dup3\n        /* \"#utility.yul\":9641:9642   */\n      dup3\n        /* \"#utility.yul\":9637:9646   */\n      sub\n        /* \"#utility.yul\":9629:9646   */\n      swap1\n      pop\n        /* \"#utility.yul\":9668:9669   */\n      dup2\n        /* \"#utility.yul\":9662:9666   */\n      dup2\n        /* \"#utility.yul\":9659:9670   */\n      gt\n        /* \"#utility.yul\":9656:9693   */\n      iszero\n      tag_539\n      jumpi\n        /* \"#utility.yul\":9673:9691   */\n      tag_540\n      tag_402\n      jump\t// in\n    tag_540:\n        /* \"#utility.yul\":9656:9693   */\n    tag_539:\n        /* \"#utility.yul\":9506:9700   */\n      swap3\n      swap2\n      pop\n      pop\n      jump\t// out\n        /* \"#utility.yul\":9706:9886   */\n    tag_188:\n        /* \"#utility.yul\":9754:9831   */\n      0x4e487b7100000000000000000000000000000000000000000000000000000000\n        /* \"#utility.yul\":9751:9752   */\n      0x00\n        /* \"#utility.yul\":9744:9832   */\n      mstore\n        /* \"#utility.yul\":9851:9855   */\n      0x32\n        /* \"#utility.yul\":9848:9849   */\n      0x04\n        /* \"#utility.yul\":9841:9856   */\n      mstore\n        /* \"#utility.yul\":9875:9879   */\n      0x24\n        /* \"#utility.yul\":9872:9873   */\n      0x00\n        /* \"#utility.yul\":9865:9880   */\n      revert\n        /* \"#utility.yul\":9892:10072   */\n    tag_200:\n        /* \"#utility.yul\":9940:10017   */\n      0x4e487b7100000000000000000000000000000000000000000000000000000000\n        /* \"#utility.yul\":9937:9938   */\n      0x00\n        /* \"#utility.yul\":9930:10018   */\n      mstore\n        /* \"#utility.yul\":10037:10041   */\n      0x31\n        /* \"#utility.yul\":10034:10035   */\n      0x04\n        /* \"#utility.yul\":10027:10042   */\n      mstore\n        /* \"#utility.yul\":10061:10065   */\n      0x24\n        /* \"#utility.yul\":10058:10059   */\n      0x00\n        /* \"#utility.yul\":10051:10066   */\n      revert\n        /* \"#utility.yul\":10078:10311   */\n    tag_203:\n        /* \"#utility.yul\":10117:10120   */\n      0x00\n        /* \"#utility.yul\":10140:10164   */\n      tag_544\n        /* \"#utility.yul\":10158:10163   */\n      dup3\n        /* \"#utility.yul\":10140:10164   */\n      tag_388\n      jump\t// in\n    tag_544:\n        /* \"#utility.yul\":10131:10164   */\n      swap2\n      pop\n        /* \"#utility.yul\":10186:10252   */\n      0xffffffffffffffffffffffffffffffffffffffffffffffffffffffffffffffff\n        /* \"#utility.yul\":10179:10184   */\n      dup3\n        /* \"#utility.yul\":10176:10253   */\n      sub\n        /* \"#utility.yul\":10173:10276   */\n      tag_545\n      jumpi\n        /* \"#utility.yul\":10256:10274   */\n      tag_546\n      tag_402\n      jump\t// in\n    tag_546:\n        /* \"#utility.yul\":10173:10276   */\n    tag_545:\n        /* \"#utility.yul\":10303:10304   */\n      0x01\n        /* \"#utility.yul\":10296:10301   */\n      dup3\n        /* \"#utility.yul\":10292:10305   */\n      add\n        /* \"#utility.yul\":10285:10305   */\n      swap1\n      pop\n        /* \"#utility.yul\":10078:10311   */\n      swap2\n      swap1\n      pop\n      jump\t// out\n        /* \"#utility.yul\":10317:10727   */\n    tag_208:\n        /* \"#utility.yul\":10357:10364   */\n      0x00\n        /* \"#utility.yul\":10380:10400   */\n      tag_548\n        /* \"#utility.yul\":10398:10399   */\n      dup3\n        /* \"#utility.yul\":10380:10400   */\n      tag_388\n      jump\t// in\n    tag_548:\n        /* \"#utility.yul\":10375:10400   */\n      swap2\n      pop\n        /* \"#utility.yul\":10414:10434   */\n      tag_549\n        /* \"#utility.yul\":10432:10433   */\n      dup4\n        /* \"#utility.yul\":10414:10434   */\n      tag_388\n      jump\t// in\n    tag_549:\n        /* \"#utility.yul\":10409:10434   */\n      swap3\n      pop\n        /* \"#utility.yul\":10469:10470   */\n      dup3\n        /* \"#utility.yul\":10466:10467   */\n      dup3\n        /* \"#utility.yul\":10462:10471   */\n      mul\n        /* \"#utility.yul\":10491:10521   */\n      tag_550\n        /* \"#utility.yul\":10509:10520   */\n      dup2\n        /* \"#utility.yul\":10491:10521   */\n      tag_388\n      jump\t// in\n    tag_550:\n        /* \"#utility.yul\":10480:10521   */\n      swap2\n      pop\n        /* \"#utility.yul\":10670:10671   */\n      dup3\n        /* \"#utility.yul\":10661:10668   */\n      dup3\n        /* \"#utility.yul\":10657:10672   */\n      div\n        /* \"#utility.yul\":10654:10655   */\n      dup5\n        /* \"#utility.yul\":10651:10673   */\n      eq\n        /* \"#utility.yul\":10631:10632   */\n      dup4\n        /* \"#utility.yul\":10624:10633   */\n      iszero\n        /* \"#utility.yul\":10604:10687   */\n      or\n        /* \"#utility.yul\":10581:10720   */\n      tag_551\n      jumpi\n        /* \"#utility.yul\":10700:10718   */\n      tag_552\n      tag_402\n      jump\t// in\n    tag_552:\n        /* \"#utility.yul\":10581:10720   */\n    tag_551:\n        /* \"#utility.yul\":10365:10727   */\n      pop\n        /* \"#utility.yul\":10317:10727   */\n      swap3\n      swap2\n      pop\n      pop\n      jump\t// out\n        /* \"#utility.yul\":10733:10907   */\n    tag_403:\n        /* \"#utility.yul\":10873:10899   */\n      0x496e73756666696369656e74206574686572732073656e740000000000000000\n        /* \"#utility.yul\":10869:10870   */\n      0x00\n        /* \"#utility.yul\":10861:10867   */\n      dup3\n        /* \"#utility.yul\":10857:10871   */\n      add\n        /* \"#utility.yul\":10850:10900   */\n      mstore\n        /* \"#utility.yul\":10733:10907   */\n      pop\n      jump\t// out\n        /* \"#utility.yul\":10913:11279   */\n    tag_404:\n        /* \"#utility.yul\":11055:11058   */\n      0x00\n        /* \"#utility.yul\":11076:11143   */\n      tag_555\n        /* \"#utility.yul\":11140:11142   */\n      0x18\n        /* \"#utility.yul\":11135:11138   */\n      dup4\n        /* \"#utility.yul\":11076:11143   */\n      tag_377\n      jump\t// in\n    tag_555:\n        /* \"#utility.yul\":11069:11143   */\n      swap2\n      pop\n        /* \"#utility.yul\":11152:11245   */\n      tag_556\n        /* \"#utility.yul\":11241:11244   */\n      dup3\n        /* \"#utility.yul\":11152:11245   */\n      tag_403\n      jump\t// in\n    tag_556:\n        /* \"#utility.yul\":11270:11272   */\n      0x20\n        /* \"#utility.yul\":11265:11268   */\n      dup3\n        /* \"#utility.yul\":11261:11273   */\n      add\n        /* \"#utility.yul\":11254:11273   */\n      swap1\n      pop\n        /* \"#utility.yul\":10913:11279   */\n      swap2\n      swap1\n      pop\n      jump\t// out\n        /* \"#utility.yul\":11285:11704   */\n    tag_211:\n        /* \"#utility.yul\":11451:11455   */\n      0x00\n        /* \"#utility.yul\":11489:11491   */\n      0x20\n        /* \"#utility.yul\":11478:11487   */\n      dup3\n        /* \"#utility.yul\":11474:11492   */\n      add\n        /* \"#utility.yul\":11466:11492   */\n      swap1\n      pop\n        /* \"#utility.yul\":11538:11547   */\n      dup2\n        /* \"#utility.yul\":11532:11536   */\n      dup2\n        /* \"#utility.yul\":11528:11548   */\n      sub\n        /* \"#utility.yul\":11524:11525   */\n      0x00\n        /* \"#utility.yul\":11513:11522   */\n      dup4\n        /* \"#utility.yul\":11509:11526   */\n      add\n        /* \"#utility.yul\":11502:11549   */\n      mstore\n        /* \"#utility.yul\":11566:11697   */\n      tag_558\n        /* \"#utility.yul\":11692:11696   */\n      dup2\n        /* \"#utility.yul\":11566:11697   */\n      tag_404\n      jump\t// in\n    tag_558:\n        /* \"#utility.yul\":11558:11697   */\n      swap1\n      pop\n        /* \"#utility.yul\":11285:11704   */\n      swap2\n      swap1\n      pop\n      jump\t// out\n        /* \"#utility.yul\":11710:11879   */\n    tag_405:\n        /* \"#utility.yul\":11850:11871   */\n      0x4e6f207265776172647320746f20636c61696d00000000000000000000000000\n        /* \"#utility.yul\":11846:11847   */\n      0x00\n        /* \"#utility.yul\":11838:11844   */\n      dup3\n        /* \"#utility.yul\":11834:11848   */\n      add\n        /* \"#utility.yul\":11827:11872   */\n      mstore\n        /* \"#utility.yul\":11710:11879   */\n      pop\n      jump\t// out\n        /* \"#utility.yul\":11885:12251   */\n    tag_406:\n        /* \"#utility.yul\":12027:12030   */\n      0x00\n        /* \"#utility.yul\":12048:12115   */\n      tag_561\n        /* \"#utility.yul\":12112:12114   */\n      0x13\n        /* \"#utility.yul\":12107:12110   */\n      dup4\n        /* \"#utility.yul\":12048:12115   */\n      tag_377\n      jump\t// in\n    tag_561:\n        /* \"#utility.yul\":12041:12115   */\n      swap2\n      pop\n        /* \"#utility.yul\":12124:12217   */\n      tag_562\n        /* \"#utility.yul\":12213:12216   */\n      dup3\n        /* \"#utility.yul\":12124:12217   */\n      tag_405\n      jump\t// in\n    tag_562:\n        /* \"#utility.yul\":12242:12244   */\n      0x20\n        /* \"#utility.yul\":12237:12240   */\n      dup3\n        /* \"#utility.yul\":12233:12245   */\n      add\n        /* \"#utility.yul\":12226:12245   */\n      swap1\n      pop\n        /* \"#utility.yul\":11885:12251   */\n      swap2\n      swap1\n      pop\n      jump\t// out\n        /* \"#utility.yul\":12257:12676   */\n    tag_224:\n        /* \"#utility.yul\":12423:12427   */\n      0x00\n        /* \"#utility.yul\":12461:12463   */\n      0x20\n        /* \"#utility.yul\":12450:12459   */\n      dup3\n        /* \"#utility.yul\":12446:12464   */\n      add\n        /* \"#utility.yul\":12438:12464   */\n      swap1\n      pop\n        /* \"#utility.yul\":12510:12519   */\n      dup2\n        /* \"#utility.yul\":12504:12508   */\n      dup2\n        /* \"#utility.yul\":12500:12520   */\n      sub\n        /* \"#utility.yul\":12496:12497   */\n      0x00\n        /* \"#utility.yul\":12485:12494   */\n      dup4\n        /* \"#utility.yul\":12481:12498   */\n      add\n        /* \"#utility.yul\":12474:12521   */\n      mstore\n        /* \"#utility.yul\":12538:12669   */\n      tag_564\n        /* \"#utility.yul\":12664:12668   */\n      dup2\n        /* \"#utility.yul\":12538:12669   */\n      tag_406\n      jump\t// in\n    tag_564:\n        /* \"#utility.yul\":12530:12669   */\n      swap1\n      pop\n        /* \"#utility.yul\":12257:12676   */\n      swap2\n      swap1\n      pop\n      jump\t// out\n        /* \"#utility.yul\":12682:12873   */\n    tag_232:\n        /* \"#utility.yul\":12722:12725   */\n      0x00\n        /* \"#utility.yul\":12741:12761   */\n      tag_566\n        /* \"#utility.yul\":12759:12760   */\n      dup3\n        /* \"#utility.yul\":12741:12761   */\n      tag_388\n      jump\t// in\n    tag_566:\n        /* \"#utility.yul\":12736:12761   */\n      swap2\n      pop\n        /* \"#utility.yul\":12775:12795   */\n      tag_567\n        /* \"#utility.yul\":12793:12794   */\n      dup4\n        /* \"#utility.yul\":12775:12795   */\n      tag_388\n      jump\t// in\n    tag_567:\n        /* \"#utility.yul\":12770:12795   */\n      swap3\n      pop\n        /* \"#utility.yul\":12818:12819   */\n      dup3\n        /* \"#utility.yul\":12815:12816   */\n      dup3\n        /* \"#utility.yul\":12811:12820   */\n      add\n        /* \"#utility.yul\":12804:12820   */\n      swap1\n      pop\n        /* \"#utility.yul\":12839:12842   */\n      dup1\n        /* \"#utility.yul\":12836:12837   */\n      dup3\n        /* \"#utility.yul\":12833:12843   */\n      gt\n        /* \"#utility.yul\":12830:12866   */\n      iszero\n      tag_568\n      jumpi\n        /* \"#utility.yul\":12846:12864   */\n      tag_569\n      tag_402\n      jump\t// in\n    tag_569:\n        /* \"#utility.yul\":12830:12866   */\n    tag_568:\n        /* \"#utility.yul\":12682:12873   */\n      swap3\n      swap2\n      pop\n      pop\n      jump\t// out\n        /* \"#utility.yul\":12879:13103   */\n    tag_407:\n        /* \"#utility.yul\":13019:13053   */\n      0x4f6e6c7920746865206f776e65722063616e2063616c6c20746869732066756e\n        /* \"#utility.yul\":13015:13016   */\n      0x00\n        /* \"#utility.yul\":13007:13013   */\n      dup3\n        /* \"#utility.yul\":13003:13017   */\n      add\n        /* \"#utility.yul\":12996:13054   */\n      mstore\n        /* \"#utility.yul\":13088:13095   */\n      0x6374696f6e000000000000000000000000000000000000000000000000000000\n        /* \"#utility.yul\":13083:13085   */\n      0x20\n        /* \"#utility.yul\":13075:13081   */\n      dup3\n        /* \"#utility.yul\":13071:13086   */\n      add\n        /* \"#utility.yul\":13064:13096   */\n      mstore\n        /* \"#utility.yul\":12879:13103   */\n      pop\n      jump\t// out\n        /* \"#utility.yul\":13109:13475   */\n    tag_408:\n        /* \"#utility.yul\":13251:13254   */\n      0x00\n        /* \"#utility.yul\":13272:13339   */\n      tag_572\n        /* \"#utility.yul\":13336:13338   */\n      0x25\n        /* \"#utility.yul\":13331:13334   */\n      dup4\n        /* \"#utility.yul\":13272:13339   */\n      tag_377\n      jump\t// in\n    tag_572:\n        /* \"#utility.yul\":13265:13339   */\n      swap2\n      pop\n        /* \"#utility.yul\":13348:13441   */\n      tag_573\n        /* \"#utility.yul\":13437:13440   */\n      dup3\n        /* \"#utility.yul\":13348:13441   */\n      tag_407\n      jump\t// in\n    tag_573:\n        /* \"#utility.yul\":13466:13468   */\n      0x40\n        /* \"#utility.yul\":13461:13464   */\n      dup3\n        /* \"#utility.yul\":13457:13469   */\n      add\n        /* \"#utility.yul\":13450:13469   */\n      swap1\n      pop\n        /* \"#utility.yul\":13109:13475   */\n      swap2\n      swap1\n      pop\n      jump\t// out\n        /* \"#utility.yul\":13481:13900   */\n    tag_241:\n        /* \"#utility.yul\":13647:13651   */\n      0x00\n        /* \"#utility.yul\":13685:13687   */\n      0x20\n        /* \"#utility.yul\":13674:13683   */\n      dup3\n        /* \"#utility.yul\":13670:13688   */\n      add\n        /* \"#utility.yul\":13662:13688   */\n      swap1\n      pop\n        /* \"#utility.yul\":13734:13743   */\n      dup2\n        /* \"#utility.yul\":13728:13732   */\n      dup2\n        /* \"#utility.yul\":13724:13744   */\n      sub\n        /* \"#utility.yul\":13720:13721   */\n      0x00\n        /* \"#utility.yul\":13709:13718   */\n      dup4\n        /* \"#utility.yul\":13705:13722   */\n      add\n        /* \"#utility.yul\":13698:13745   */\n      mstore\n        /* \"#utility.yul\":13762:13893   */\n      tag_575\n        /* \"#utility.yul\":13888:13892   */\n      dup2\n        /* \"#utility.yul\":13762:13893   */\n      tag_408\n      jump\t// in\n    tag_575:\n        /* \"#utility.yul\":13754:13893   */\n      swap1\n      pop\n        /* \"#utility.yul\":13481:13900   */\n      swap2\n      swap1\n      pop\n      jump\t// out\n        /* \"#utility.yul\":13906:14075   */\n    tag_409:\n        /* \"#utility.yul\":14046:14067   */\n      0x496e73756666696369656e7420746f6b656e7300000000000000000000000000\n        /* \"#utility.yul\":14042:14043   */\n      0x00\n        /* \"#utility.yul\":14034:14040   */\n      dup3\n        /* \"#utility.yul\":14030:14044   */\n      add\n        /* \"#utility.yul\":14023:14068   */\n      mstore\n        /* \"#utility.yul\":13906:14075   */\n      pop\n      jump\t// out\n        /* \"#utility.yul\":14081:14447   */\n    tag_410:\n        /* \"#utility.yul\":14223:14226   */\n      0x00\n        /* \"#utility.yul\":14244:14311   */\n      tag_578\n        /* \"#utility.yul\":14308:14310   */\n      0x13\n        /* \"#utility.yul\":14303:14306   */\n      dup4\n        /* \"#utility.yul\":14244:14311   */\n      tag_377\n      jump\t// in\n    tag_578:\n        /* \"#utility.yul\":14237:14311   */\n      swap2\n      pop\n        /* \"#utility.yul\":14320:14413   */\n      tag_579\n        /* \"#utility.yul\":14409:14412   */\n      dup3\n        /* \"#utility.yul\":14320:14413   */\n      tag_409\n      jump\t// in\n    tag_579:\n        /* \"#utility.yul\":14438:14440   */\n      0x20\n        /* \"#utility.yul\":14433:14436   */\n      dup3\n        /* \"#utility.yul\":14429:14441   */\n      add\n        /* \"#utility.yul\":14422:14441   */\n      swap1\n      pop\n        /* \"#utility.yul\":14081:14447   */\n      swap2\n      swap1\n      pop\n      jump\t// out\n        /* \"#utility.yul\":14453:14872   */\n    tag_253:\n        /* \"#utility.yul\":14619:14623   */\n      0x00\n        /* \"#utility.yul\":14657:14659   */\n      0x20\n        /* \"#utility.yul\":14646:14655   */\n      dup3\n        /* \"#utility.yul\":14642:14660   */\n      add\n        /* \"#utility.yul\":14634:14660   */\n      swap1\n      pop\n        /* \"#utility.yul\":14706:14715   */\n      dup2\n        /* \"#utility.yul\":14700:14704   */\n      dup2\n        /* \"#utility.yul\":14696:14716   */\n      sub\n        /* \"#utility.yul\":14692:14693   */\n      0x00\n        /* \"#utility.yul\":14681:14690   */\n      dup4\n        /* \"#utility.yul\":14677:14694   */\n      add\n        /* \"#utility.yul\":14670:14717   */\n      mstore\n        /* \"#utility.yul\":14734:14865   */\n      tag_581\n        /* \"#utility.yul\":14860:14864   */\n      dup2\n        /* \"#utility.yul\":14734:14865   */\n      tag_410\n      jump\t// in\n    tag_581:\n        /* \"#utility.yul\":14726:14865   */\n      swap1\n      pop\n        /* \"#utility.yul\":14453:14872   */\n      swap2\n      swap1\n      pop\n      jump\t// out\n        /* \"#utility.yul\":14878:15102   */\n    tag_411:\n        /* \"#utility.yul\":15018:15052   */\n      0x45524332303a2064656372656173656420616c6c6f77616e63652062656c6f77\n        /* \"#utility.yul\":15014:15015   */\n      0x00\n        /* \"#utility.yul\":15006:15012   */\n      dup3\n        /* \"#utility.yul\":15002:15016   */\n      add\n        /* \"#utility.yul\":14995:15053   */\n      mstore\n        /* \"#utility.yul\":15087:15094   */\n      0x207a65726f000000000000000000000000000000000000000000000000000000\n        /* \"#utility.yul\":15082:15084   */\n      0x20\n        /* \"#utility.yul\":15074:15080   */\n      dup3\n        /* \"#utility.yul\":15070:15085   */\n      add\n        /* \"#utility.yul\":15063:15095   */\n      mstore\n        /* \"#utility.yul\":14878:15102   */\n      pop\n      jump\t// out\n        /* \"#utility.yul\":15108:15474   */\n    tag_412:\n        /* \"#utility.yul\":15250:15253   */\n      0x00\n        /* \"#utility.yul\":15271:15338   */\n      tag_584\n        /* \"#utility.yul\":15335:15337   */\n      0x25\n        /* \"#utility.yul\":15330:15333   */\n      dup4\n        /* \"#utility.yul\":15271:15338   */\n      tag_377\n      jump\t// in\n    tag_584:\n        /* \"#utility.yul\":15264:15338   */\n      swap2\n      pop\n        /* \"#utility.yul\":15347:15440   */\n      tag_585\n        /* \"#utility.yul\":15436:15439   */\n      dup3\n        /* \"#utility.yul\":15347:15440   */\n      tag_411\n      jump\t// in\n    tag_585:\n        /* \"#utility.yul\":15465:15467   */\n      0x40\n        /* \"#utility.yul\":15460:15463   */\n      dup3\n        /* \"#utility.yul\":15456:15468   */\n      add\n        /* \"#utility.yul\":15449:15468   */\n      swap1\n      pop\n        /* \"#utility.yul\":15108:15474   */\n      swap2\n      swap1\n      pop\n      jump\t// out\n        /* \"#utility.yul\":15480:15899   */\n    tag_282:\n        /* \"#utility.yul\":15646:15650   */\n      0x00\n        /* \"#utility.yul\":15684:15686   */\n      0x20\n        /* \"#utility.yul\":15673:15682   */\n      dup3\n        /* \"#utility.yul\":15669:15687   */\n      add\n        /* \"#utility.yul\":15661:15687   */\n      swap1\n      pop\n        /* \"#utility.yul\":15733:15742   */\n      dup2\n        /* \"#utility.yul\":15727:15731   */\n      dup2\n        /* \"#utility.yul\":15723:15743   */\n      sub\n        /* \"#utility.yul\":15719:15720   */\n      0x00\n        /* \"#utility.yul\":15708:15717   */\n      dup4\n        /* \"#utility.yul\":15704:15721   */\n      add\n        /* \"#utility.yul\":15697:15744   */\n      mstore\n        /* \"#utility.yul\":15761:15892   */\n      tag_587\n        /* \"#utility.yul\":15887:15891   */\n      dup2\n        /* \"#utility.yul\":15761:15892   */\n      tag_412\n      jump\t// in\n    tag_587:\n        /* \"#utility.yul\":15753:15892   */\n      swap1\n      pop\n        /* \"#utility.yul\":15480:15899   */\n      swap2\n      swap1\n      pop\n      jump\t// out\n        /* \"#utility.yul\":15905:16087   */\n    tag_413:\n        /* \"#utility.yul\":16045:16079   */\n      0x4d757374207374616b65206d6f7265207468616e207a65726f20746f6b656e73\n        /* \"#utility.yul\":16041:16042   */\n      0x00\n        /* \"#utility.yul\":16033:16039   */\n      dup3\n        /* \"#utility.yul\":16029:16043   */\n      add\n        /* \"#utility.yul\":16022:16080   */\n      mstore\n        /* \"#utility.yul\":15905:16087   */\n      pop\n      jump\t// out\n        /* \"#utility.yul\":16093:16459   */\n    tag_414:\n        /* \"#utility.yul\":16235:16238   */\n      0x00\n        /* \"#utility.yul\":16256:16323   */\n      tag_590\n        /* \"#utility.yul\":16320:16322   */\n      0x20\n        /* \"#utility.yul\":16315:16318   */\n      dup4\n        /* \"#utility.yul\":16256:16323   */\n      tag_377\n      jump\t// in\n    tag_590:\n        /* \"#utility.yul\":16249:16323   */\n      swap2\n      pop\n        /* \"#utility.yul\":16332:16425   */\n      tag_591\n        /* \"#utility.yul\":16421:16424   */\n      dup3\n        /* \"#utility.yul\":16332:16425   */\n      tag_413\n      jump\t// in\n    tag_591:\n        /* \"#utility.yul\":16450:16452   */\n      0x20\n        /* \"#utility.yul\":16445:16448   */\n      dup3\n        /* \"#utility.yul\":16441:16453   */\n      add\n        /* \"#utility.yul\":16434:16453   */\n      swap1\n      pop\n        /* \"#utility.yul\":16093:16459   */\n      swap2\n      swap1\n      pop\n      jump\t// out\n        /* \"#utility.yul\":16465:16884   */\n    tag_287:\n        /* \"#utility.yul\":16631:16635   */\n      0x00\n        /* \"#utility.yul\":16669:16671   */\n      0x20\n        /* \"#utility.yul\":16658:16667   */\n      dup3\n        /* \"#utility.yul\":16654:16672   */\n      add\n        /* \"#utility.yul\":16646:16672   */\n      swap1\n      pop\n        /* \"#utility.yul\":16718:16727   */\n      dup2\n        /* \"#utility.yul\":16712:16716   */\n      dup2\n        /* \"#utility.yul\":16708:16728   */\n      sub\n        /* \"#utility.yul\":16704:16705   */\n      0x00\n        /* \"#utility.yul\":16693:16702   */\n      dup4\n        /* \"#utility.yul\":16689:16706   */\n      add\n        /* \"#utility.yul\":16682:16729   */\n      mstore\n        /* \"#utility.yul\":16746:16877   */\n      tag_593\n        /* \"#utility.yul\":16872:16876   */\n      dup2\n        /* \"#utility.yul\":16746:16877   */\n      tag_414\n      jump\t// in\n    tag_593:\n        /* \"#utility.yul\":16738:16877   */\n      swap1\n      pop\n        /* \"#utility.yul\":16465:16884   */\n      swap2\n      swap1\n      pop\n      jump\t// out\n        /* \"#utility.yul\":16890:17111   */\n    tag_415:\n        /* \"#utility.yul\":17030:17064   */\n      0x4e6f7420456e6f7567682042616c616e636520546f6b656e7320546f20537461\n        /* \"#utility.yul\":17026:17027   */\n      0x00\n        /* \"#utility.yul\":17018:17024   */\n      dup3\n        /* \"#utility.yul\":17014:17028   */\n      add\n        /* \"#utility.yul\":17007:17065   */\n      mstore\n        /* \"#utility.yul\":17099:17103   */\n      0x6b65000000000000000000000000000000000000000000000000000000000000\n        /* \"#utility.yul\":17094:17096   */\n      0x20\n        /* \"#utility.yul\":17086:17092   */\n      dup3\n        /* \"#utility.yul\":17082:17097   */\n      add\n        /* \"#utility.yul\":17075:17104   */\n      mstore\n        /* \"#utility.yul\":16890:17111   */\n      pop\n      jump\t// out\n        /* \"#utility.yul\":17117:17483   */\n    tag_416:\n        /* \"#utility.yul\":17259:17262   */\n      0x00\n        /* \"#utility.yul\":17280:17347   */\n      tag_596\n        /* \"#utility.yul\":17344:17346   */\n      0x22\n        /* \"#utility.yul\":17339:17342   */\n      dup4\n        /* \"#utility.yul\":17280:17347   */\n      tag_377\n      jump\t// in\n    tag_596:\n        /* \"#utility.yul\":17273:17347   */\n      swap2\n      pop\n        /* \"#utility.yul\":17356:17449   */\n      tag_597\n        /* \"#utility.yul\":17445:17448   */\n      dup3\n        /* \"#utility.yul\":17356:17449   */\n      tag_415\n      jump\t// in\n    tag_597:\n        /* \"#utility.yul\":17474:17476   */\n      0x40\n        /* \"#utility.yul\":17469:17472   */\n      dup3\n        /* \"#utility.yul\":17465:17477   */\n      add\n        /* \"#utility.yul\":17458:17477   */\n      swap1\n      pop\n        /* \"#utility.yul\":17117:17483   */\n      swap2\n      swap1\n      pop\n      jump\t// out\n        /* \"#utility.yul\":17489:17908   */\n    tag_291:\n        /* \"#utility.yul\":17655:17659   */\n      0x00\n        /* \"#utility.yul\":17693:17695   */\n      0x20\n        /* \"#utility.yul\":17682:17691   */\n      dup3\n        /* \"#utility.yul\":17678:17696   */\n      add\n        /* \"#utility.yul\":17670:17696   */\n      swap1\n      pop\n        /* \"#utility.yul\":17742:17751   */\n      dup2\n        /* \"#utility.yul\":17736:17740   */\n      dup2\n        /* \"#utility.yul\":17732:17752   */\n      sub\n        /* \"#utility.yul\":17728:17729   */\n      0x00\n        /* \"#utility.yul\":17717:17726   */\n      dup4\n        /* \"#utility.yul\":17713:17730   */\n      add\n        /* \"#utility.yul\":17706:17753   */\n      mstore\n        /* \"#utility.yul\":17770:17901   */\n      tag_599\n        /* \"#utility.yul\":17896:17900   */\n      dup2\n        /* \"#utility.yul\":17770:17901   */\n      tag_416\n      jump\t// in\n    tag_599:\n        /* \"#utility.yul\":17762:17901   */\n      swap1\n      pop\n        /* \"#utility.yul\":17489:17908   */\n      swap2\n      swap1\n      pop\n      jump\t// out\n        /* \"#utility.yul\":17914:18139   */\n    tag_417:\n        /* \"#utility.yul\":18054:18088   */\n      0x4f776e61626c653a206e6577206f776e657220697320746865207a65726f2061\n        /* \"#utility.yul\":18050:18051   */\n      0x00\n        /* \"#utility.yul\":18042:18048   */\n      dup3\n        /* \"#utility.yul\":18038:18052   */\n      add\n        /* \"#utility.yul\":18031:18089   */\n      mstore\n        /* \"#utility.yul\":18123:18131   */\n      0x6464726573730000000000000000000000000000000000000000000000000000\n        /* \"#utility.yul\":18118:18120   */\n      0x20\n        /* \"#utility.yul\":18110:18116   */\n      dup3\n        /* \"#utility.yul\":18106:18121   */\n      add\n        /* \"#utility.yul\":18099:18132   */\n      mstore\n        /* \"#utility.yul\":17914:18139   */\n      pop\n      jump\t// out\n        /* \"#utility.yul\":18145:18511   */\n    tag_418:\n        /* \"#utility.yul\":18287:18290   */\n      0x00\n        /* \"#utility.yul\":18308:18375   */\n      tag_602\n        /* \"#utility.yul\":18372:18374   */\n      0x26\n        /* \"#utility.yul\":18367:18370   */\n      dup4\n        /* \"#utility.yul\":18308:18375   */\n      tag_377\n      jump\t// in\n    tag_602:\n        /* \"#utility.yul\":18301:18375   */\n      swap2\n      pop\n        /* \"#utility.yul\":18384:18477   */\n      tag_603\n        /* \"#utility.yul\":18473:18476   */\n      dup3\n        /* \"#utility.yul\":18384:18477   */\n      tag_417\n      jump\t// in\n    tag_603:\n        /* \"#utility.yul\":18502:18504   */\n      0x40\n        /* \"#utility.yul\":18497:18500   */\n      dup3\n        /* \"#utility.yul\":18493:18505   */\n      add\n        /* \"#utility.yul\":18486:18505   */\n      swap1\n      pop\n        /* \"#utility.yul\":18145:18511   */\n      swap2\n      swap1\n      pop\n      jump\t// out\n        /* \"#utility.yul\":18517:18936   */\n    tag_307:\n        /* \"#utility.yul\":18683:18687   */\n      0x00\n        /* \"#utility.yul\":18721:18723   */\n      0x20\n        /* \"#utility.yul\":18710:18719   */\n      dup3\n        /* \"#utility.yul\":18706:18724   */\n      add\n        /* \"#utility.yul\":18698:18724   */\n      swap1\n      pop\n        /* \"#utility.yul\":18770:18779   */\n      dup2\n        /* \"#utility.yul\":18764:18768   */\n      dup2\n        /* \"#utility.yul\":18760:18780   */\n      sub\n        /* \"#utility.yul\":18756:18757   */\n      0x00\n        /* \"#utility.yul\":18745:18754   */\n      dup4\n        /* \"#utility.yul\":18741:18758   */\n      add\n        /* \"#utility.yul\":18734:18781   */\n      mstore\n        /* \"#utility.yul\":18798:18929   */\n      tag_605\n        /* \"#utility.yul\":18924:18928   */\n      dup2\n        /* \"#utility.yul\":18798:18929   */\n      tag_418\n      jump\t// in\n    tag_605:\n        /* \"#utility.yul\":18790:18929   */\n      swap1\n      pop\n        /* \"#utility.yul\":18517:18936   */\n      swap2\n      swap1\n      pop\n      jump\t// out\n        /* \"#utility.yul\":18942:19165   */\n    tag_419:\n        /* \"#utility.yul\":19082:19116   */\n      0x45524332303a20617070726f76652066726f6d20746865207a65726f20616464\n        /* \"#utility.yul\":19078:19079   */\n      0x00\n        /* \"#utility.yul\":19070:19076   */\n      dup3\n        /* \"#utility.yul\":19066:19080   */\n      add\n        /* \"#utility.yul\":19059:19117   */\n      mstore\n        /* \"#utility.yul\":19151:19157   */\n      0x7265737300000000000000000000000000000000000000000000000000000000\n        /* \"#utility.yul\":19146:19148   */\n      0x20\n        /* \"#utility.yul\":19138:19144   */\n      dup3\n        /* \"#utility.yul\":19134:19149   */\n      add\n        /* \"#utility.yul\":19127:19158   */\n      mstore\n        /* \"#utility.yul\":18942:19165   */\n      pop\n      jump\t// out\n        /* \"#utility.yul\":19171:19537   */\n    tag_420:\n        /* \"#utility.yul\":19313:19316   */\n      0x00\n        /* \"#utility.yul\":19334:19401   */\n      tag_608\n        /* \"#utility.yul\":19398:19400   */\n      0x24\n        /* \"#utility.yul\":19393:19396   */\n      dup4\n        /* \"#utility.yul\":19334:19401   */\n      tag_377\n      jump\t// in\n    tag_608:\n        /* \"#utility.yul\":19327:19401   */\n      swap2\n      pop\n        /* \"#utility.yul\":19410:19503   */\n      tag_609\n        /* \"#utility.yul\":19499:19502   */\n      dup3\n        /* \"#utility.yul\":19410:19503   */\n      tag_419\n      jump\t// in\n    tag_609:\n        /* \"#utility.yul\":19528:19530   */\n      0x40\n        /* \"#utility.yul\":19523:19526   */\n      dup3\n        /* \"#utility.yul\":19519:19531   */\n      add\n        /* \"#utility.yul\":19512:19531   */\n      swap1\n      pop\n        /* \"#utility.yul\":19171:19537   */\n      swap2\n      swap1\n      pop\n      jump\t// out\n        /* \"#utility.yul\":19543:19962   */\n    tag_313:\n        /* \"#utility.yul\":19709:19713   */\n      0x00\n        /* \"#utility.yul\":19747:19749   */\n      0x20\n        /* \"#utility.yul\":19736:19745   */\n      dup3\n        /* \"#utility.yul\":19732:19750   */\n      add\n        /* \"#utility.yul\":19724:19750   */\n      swap1\n      pop\n        /* \"#utility.yul\":19796:19805   */\n      dup2\n        /* \"#utility.yul\":19790:19794   */\n      dup2\n        /* \"#utility.yul\":19786:19806   */\n      sub\n        /* \"#utility.yul\":19782:19783   */\n      0x00\n        /* \"#utility.yul\":19771:19780   */\n      dup4\n        /* \"#utility.yul\":19767:19784   */\n      add\n        /* \"#utility.yul\":19760:19807   */\n      mstore\n        /* \"#utility.yul\":19824:19955   */\n      tag_611\n        /* \"#utility.yul\":19950:19954   */\n      dup2\n        /* \"#utility.yul\":19824:19955   */\n      tag_420\n      jump\t// in\n    tag_611:\n        /* \"#utility.yul\":19816:19955   */\n      swap1\n      pop\n        /* \"#utility.yul\":19543:19962   */\n      swap2\n      swap1\n      pop\n      jump\t// out\n        /* \"#utility.yul\":19968:20189   */\n    tag_421:\n        /* \"#utility.yul\":20108:20142   */\n      0x45524332303a20617070726f766520746f20746865207a65726f206164647265\n        /* \"#utility.yul\":20104:20105   */\n      0x00\n        /* \"#utility.yul\":20096:20102   */\n      dup3\n        /* \"#utility.yul\":20092:20106   */\n      add\n        /* \"#utility.yul\":20085:20143   */\n      mstore\n        /* \"#utility.yul\":20177:20181   */\n      0x7373000000000000000000000000000000000000000000000000000000000000\n        /* \"#utility.yul\":20172:20174   */\n      0x20\n        /* \"#utility.yul\":20164:20170   */\n      dup3\n        /* \"#utility.yul\":20160:20175   */\n      add\n        /* \"#utility.yul\":20153:20182   */\n      mstore\n        /* \"#utility.yul\":19968:20189   */\n      pop\n      jump\t// out\n        /* \"#utility.yul\":20195:20561   */\n    tag_422:\n        /* \"#utility.yul\":20337:20340   */\n      0x00\n        /* \"#utility.yul\":20358:20425   */\n      tag_614\n        /* \"#utility.yul\":20422:20424   */\n      0x22\n        /* \"#utility.yul\":20417:20420   */\n      dup4\n        /* \"#utility.yul\":20358:20425   */\n      tag_377\n      jump\t// in\n    tag_614:\n        /* \"#utility.yul\":20351:20425   */\n      swap2\n      pop\n        /* \"#utility.yul\":20434:20527   */\n      tag_615\n        /* \"#utility.yul\":20523:20526   */\n      dup3\n        /* \"#utility.yul\":20434:20527   */\n      tag_421\n      jump\t// in\n    tag_615:\n        /* \"#utility.yul\":20552:20554   */\n      0x40\n        /* \"#utility.yul\":20547:20550   */\n      dup3\n        /* \"#utility.yul\":20543:20555   */\n      add\n        /* \"#utility.yul\":20536:20555   */\n      swap1\n      pop\n        /* \"#utility.yul\":20195:20561   */\n      swap2\n      swap1\n      pop\n      jump\t// out\n        /* \"#utility.yul\":20567:20986   */\n    tag_316:\n        /* \"#utility.yul\":20733:20737   */\n      0x00\n        /* \"#utility.yul\":20771:20773   */\n      0x20\n        /* \"#utility.yul\":20760:20769   */\n      dup3\n        /* \"#utility.yul\":20756:20774   */\n      add\n        /* \"#utility.yul\":20748:20774   */\n      swap1\n      pop\n        /* \"#utility.yul\":20820:20829   */\n      dup2\n        /* \"#utility.yul\":20814:20818   */\n      dup2\n        /* \"#utility.yul\":20810:20830   */\n      sub\n        /* \"#utility.yul\":20806:20807   */\n      0x00\n        /* \"#utility.yul\":20795:20804   */\n      dup4\n        /* \"#utility.yul\":20791:20808   */\n      add\n        /* \"#utility.yul\":20784:20831   */\n      mstore\n        /* \"#utility.yul\":20848:20979   */\n      tag_617\n        /* \"#utility.yul\":20974:20978   */\n      dup2\n        /* \"#utility.yul\":20848:20979   */\n      tag_422\n      jump\t// in\n    tag_617:\n        /* \"#utility.yul\":20840:20979   */\n      swap1\n      pop\n        /* \"#utility.yul\":20567:20986   */\n      swap2\n      swap1\n      pop\n      jump\t// out\n        /* \"#utility.yul\":20992:21171   */\n    tag_423:\n        /* \"#utility.yul\":21132:21163   */\n      0x45524332303a20696e73756666696369656e7420616c6c6f77616e6365000000\n        /* \"#utility.yul\":21128:21129   */\n      0x00\n        /* \"#utility.yul\":21120:21126   */\n      dup3\n        /* \"#utility.yul\":21116:21130   */\n      add\n        /* \"#utility.yul\":21109:21164   */\n      mstore\n        /* \"#utility.yul\":20992:21171   */\n      pop\n      jump\t// out\n        /* \"#utility.yul\":21177:21543   */\n    tag_424:\n        /* \"#utility.yul\":21319:21322   */\n      0x00\n        /* \"#utility.yul\":21340:21407   */\n      tag_620\n        /* \"#utility.yul\":21404:21406   */\n      0x1d\n        /* \"#utility.yul\":21399:21402   */\n      dup4\n        /* \"#utility.yul\":21340:21407   */\n      tag_377\n      jump\t// in\n    tag_620:\n        /* \"#utility.yul\":21333:21407   */\n      swap2\n      pop\n        /* \"#utility.yul\":21416:21509   */\n      tag_621\n        /* \"#utility.yul\":21505:21508   */\n      dup3\n        /* \"#utility.yul\":21416:21509   */\n      tag_423\n      jump\t// in\n    tag_621:\n        /* \"#utility.yul\":21534:21536   */\n      0x20\n        /* \"#utility.yul\":21529:21532   */\n      dup3\n        /* \"#utility.yul\":21525:21537   */\n      add\n        /* \"#utility.yul\":21518:21537   */\n      swap1\n      pop\n        /* \"#utility.yul\":21177:21543   */\n      swap2\n      swap1\n      pop\n      jump\t// out\n        /* \"#utility.yul\":21549:21968   */\n    tag_323:\n        /* \"#utility.yul\":21715:21719   */\n      0x00\n        /* \"#utility.yul\":21753:21755   */\n      0x20\n        /* \"#utility.yul\":21742:21751   */\n      dup3\n        /* \"#utility.yul\":21738:21756   */\n      add\n        /* \"#utility.yul\":21730:21756   */\n      swap1\n      pop\n        /* \"#utility.yul\":21802:21811   */\n      dup2\n        /* \"#utility.yul\":21796:21800   */\n      dup2\n        /* \"#utility.yul\":21792:21812   */\n      sub\n        /* \"#utility.yul\":21788:21789   */\n      0x00\n        /* \"#utility.yul\":21777:21786   */\n      dup4\n        /* \"#utility.yul\":21773:21790   */\n      add\n        /* \"#utility.yul\":21766:21813   */\n      mstore\n        /* \"#utility.yul\":21830:21961   */\n      tag_623\n        /* \"#utility.yul\":21956:21960   */\n      dup2\n        /* \"#utility.yul\":21830:21961   */\n      tag_424\n      jump\t// in\n    tag_623:\n        /* \"#utility.yul\":21822:21961   */\n      swap1\n      pop\n        /* \"#utility.yul\":21549:21968   */\n      swap2\n      swap1\n      pop\n      jump\t// out\n        /* \"#utility.yul\":21974:22198   */\n    tag_425:\n        /* \"#utility.yul\":22114:22148   */\n      0x45524332303a207472616e736665722066726f6d20746865207a65726f206164\n        /* \"#utility.yul\":22110:22111   */\n      0x00\n        /* \"#utility.yul\":22102:22108   */\n      dup3\n        /* \"#utility.yul\":22098:22112   */\n      add\n        /* \"#utility.yul\":22091:22149   */\n      mstore\n        /* \"#utility.yul\":22183:22190   */\n      0x6472657373000000000000000000000000000000000000000000000000000000\n        /* \"#utility.yul\":22178:22180   */\n      0x20\n        /* \"#utility.yul\":22170:22176   */\n      dup3\n        /* \"#utility.yul\":22166:22181   */\n      add\n        /* \"#utility.yul\":22159:22191   */\n      mstore\n        /* \"#utility.yul\":21974:22198   */\n      pop\n      jump\t// out\n        /* \"#utility.yul\":22204:22570   */\n    tag_426:\n        /* \"#utility.yul\":22346:22349   */\n      0x00\n        /* \"#utility.yul\":22367:22434   */\n      tag_626\n        /* \"#utility.yul\":22431:22433   */\n      0x25\n        /* \"#utility.yul\":22426:22429   */\n      dup4\n        /* \"#utility.yul\":22367:22434   */\n      tag_377\n      jump\t// in\n    tag_626:\n        /* \"#utility.yul\":22360:22434   */\n      swap2\n      pop\n        /* \"#utility.yul\":22443:22536   */\n      tag_627\n        /* \"#utility.yul\":22532:22535   */\n      dup3\n        /* \"#utility.yul\":22443:22536   */\n      tag_425\n      jump\t// in\n    tag_627:\n        /* \"#utility.yul\":22561:22563   */\n      0x40\n        /* \"#utility.yul\":22556:22559   */\n      dup3\n        /* \"#utility.yul\":22552:22564   */\n      add\n        /* \"#utility.yul\":22545:22564   */\n      swap1\n      pop\n        /* \"#utility.yul\":22204:22570   */\n      swap2\n      swap1\n      pop\n      jump\t// out\n        /* \"#utility.yul\":22576:22995   */\n    tag_328:\n        /* \"#utility.yul\":22742:22746   */\n      0x00\n        /* \"#utility.yul\":22780:22782   */\n      0x20\n        /* \"#utility.yul\":22769:22778   */\n      dup3\n        /* \"#utility.yul\":22765:22783   */\n      add\n        /* \"#utility.yul\":22757:22783   */\n      swap1\n      pop\n        /* \"#utility.yul\":22829:22838   */\n      dup2\n        /* \"#utility.yul\":22823:22827   */\n      dup2\n        /* \"#utility.yul\":22819:22839   */\n      sub\n        /* \"#utility.yul\":22815:22816   */\n      0x00\n        /* \"#utility.yul\":22804:22813   */\n      dup4\n        /* \"#utility.yul\":22800:22817   */\n      add\n        /* \"#utility.yul\":22793:22840   */\n      mstore\n        /* \"#utility.yul\":22857:22988   */\n      tag_629\n        /* \"#utility.yul\":22983:22987   */\n      dup2\n        /* \"#utility.yul\":22857:22988   */\n      tag_426\n      jump\t// in\n    tag_629:\n        /* \"#utility.yul\":22849:22988   */\n      swap1\n      pop\n        /* \"#utility.yul\":22576:22995   */\n      swap2\n      swap1\n      pop\n      jump\t// out\n        /* \"#utility.yul\":23001:23223   */\n    tag_427:\n        /* \"#utility.yul\":23141:23175   */\n      0x45524332303a207472616e7366657220746f20746865207a65726f2061646472\n        /* \"#utility.yul\":23137:23138   */\n      0x00\n        /* \"#utility.yul\":23129:23135   */\n      dup3\n        /* \"#utility.yul\":23125:23139   */\n      add\n        /* \"#utility.yul\":23118:23176   */\n      mstore\n        /* \"#utility.yul\":23210:23215   */\n      0x6573730000000000000000000000000000000000000000000000000000000000\n        /* \"#utility.yul\":23205:23207   */\n      0x20\n        /* \"#utility.yul\":23197:23203   */\n      dup3\n        /* \"#utility.yul\":23193:23208   */\n      add\n        /* \"#utility.yul\":23186:23216   */\n      mstore\n        /* \"#utility.yul\":23001:23223   */\n      pop\n      jump\t// out\n        /* \"#utility.yul\":23229:23595   */\n    tag_428:\n        /* \"#utility.yul\":23371:23374   */\n      0x00\n        /* \"#utility.yul\":23392:23459   */\n      tag_632\n        /* \"#utility.yul\":23456:23458   */\n      0x23\n        /* \"#utility.yul\":23451:23454   */\n      dup4\n        /* \"#utility.yul\":23392:23459   */\n      tag_377\n      jump\t// in\n    tag_632:\n        /* \"#utility.yul\":23385:23459   */\n      swap2\n      pop\n        /* \"#utility.yul\":23468:23561   */\n      tag_633\n        /* \"#utility.yul\":23557:23560   */\n      dup3\n        /* \"#utility.yul\":23468:23561   */\n      tag_427\n      jump\t// in\n    tag_633:\n        /* \"#utility.yul\":23586:23588   */\n      0x40\n        /* \"#utility.yul\":23581:23584   */\n      dup3\n        /* \"#utility.yul\":23577:23589   */\n      add\n        /* \"#utility.yul\":23570:23589   */\n      swap1\n      pop\n        /* \"#utility.yul\":23229:23595   */\n      swap2\n      swap1\n      pop\n      jump\t// out\n        /* \"#utility.yul\":23601:24020   */\n    tag_331:\n        /* \"#utility.yul\":23767:23771   */\n      0x00\n        /* \"#utility.yul\":23805:23807   */\n      0x20\n        /* \"#utility.yul\":23794:23803   */\n      dup3\n        /* \"#utility.yul\":23790:23808   */\n      add\n        /* \"#utility.yul\":23782:23808   */\n      swap1\n      pop\n        /* \"#utility.yul\":23854:23863   */\n      dup2\n        /* \"#utility.yul\":23848:23852   */\n      dup2\n        /* \"#utility.yul\":23844:23864   */\n      sub\n        /* \"#utility.yul\":23840:23841   */\n      0x00\n        /* \"#utility.yul\":23829:23838   */\n      dup4\n        /* \"#utility.yul\":23825:23842   */\n      add\n        /* \"#utility.yul\":23818:23865   */\n      mstore\n        /* \"#utility.yul\":23882:24013   */\n      tag_635\n        /* \"#utility.yul\":24008:24012   */\n      dup2\n        /* \"#utility.yul\":23882:24013   */\n      tag_428\n      jump\t// in\n    tag_635:\n        /* \"#utility.yul\":23874:24013   */\n      swap1\n      pop\n        /* \"#utility.yul\":23601:24020   */\n      swap2\n      swap1\n      pop\n      jump\t// out\n        /* \"#utility.yul\":24026:24251   */\n    tag_429:\n        /* \"#utility.yul\":24166:24200   */\n      0x45524332303a207472616e7366657220616d6f756e7420657863656564732062\n        /* \"#utility.yul\":24162:24163   */\n      0x00\n        /* \"#utility.yul\":24154:24160   */\n      dup3\n        /* \"#utility.yul\":24150:24164   */\n      add\n        /* \"#utility.yul\":24143:24201   */\n      mstore\n        /* \"#utility.yul\":24235:24243   */\n      0x616c616e63650000000000000000000000000000000000000000000000000000\n        /* \"#utility.yul\":24230:24232   */\n      0x20\n        /* \"#utility.yul\":24222:24228   */\n      dup3\n        /* \"#utility.yul\":24218:24233   */\n      add\n        /* \"#utility.yul\":24211:24244   */\n      mstore\n        /* \"#utility.yul\":24026:24251   */\n      pop\n      jump\t// out\n        /* \"#utility.yul\":24257:24623   */\n    tag_430:\n        /* \"#utility.yul\":24399:24402   */\n      0x00\n        /* \"#utility.yul\":24420:24487   */\n      tag_638\n        /* \"#utility.yul\":24484:24486   */\n      0x26\n        /* \"#utility.yul\":24479:24482   */\n      dup4\n        /* \"#utility.yul\":24420:24487   */\n      tag_377\n      jump\t// in\n    tag_638:\n        /* \"#utility.yul\":24413:24487   */\n      swap2\n      pop\n        /* \"#utility.yul\":24496:24589   */\n      tag_639\n        /* \"#utility.yul\":24585:24588   */\n      dup3\n        /* \"#utility.yul\":24496:24589   */\n      tag_429\n      jump\t// in\n    tag_639:\n        /* \"#utility.yul\":24614:24616   */\n      0x40\n        /* \"#utility.yul\":24609:24612   */\n      dup3\n        /* \"#utility.yul\":24605:24617   */\n      add\n        /* \"#utility.yul\":24598:24617   */\n      swap1\n      pop\n        /* \"#utility.yul\":24257:24623   */\n      swap2\n      swap1\n      pop\n      jump\t// out\n        /* \"#utility.yul\":24629:25048   */\n    tag_336:\n        /* \"#utility.yul\":24795:24799   */\n      0x00\n        /* \"#utility.yul\":24833:24835   */\n      0x20\n        /* \"#utility.yul\":24822:24831   */\n      dup3\n        /* \"#utility.yul\":24818:24836   */\n      add\n        /* \"#utility.yul\":24810:24836   */\n      swap1\n      pop\n        /* \"#utility.yul\":24882:24891   */\n      dup2\n        /* \"#utility.yul\":24876:24880   */\n      dup2\n        /* \"#utility.yul\":24872:24892   */\n      sub\n        /* \"#utility.yul\":24868:24869   */\n      0x00\n        /* \"#utility.yul\":24857:24866   */\n      dup4\n        /* \"#utility.yul\":24853:24870   */\n      add\n        /* \"#utility.yul\":24846:24893   */\n      mstore\n        /* \"#utility.yul\":24910:25041   */\n      tag_641\n        /* \"#utility.yul\":25036:25040   */\n      dup2\n        /* \"#utility.yul\":24910:25041   */\n      tag_430\n      jump\t// in\n    tag_641:\n        /* \"#utility.yul\":24902:25041   */\n      swap1\n      pop\n        /* \"#utility.yul\":24629:25048   */\n      swap2\n      swap1\n      pop\n      jump\t// out\n        /* \"#utility.yul\":25054:25234   */\n    tag_431:\n        /* \"#utility.yul\":25102:25179   */\n      0x4e487b7100000000000000000000000000000000000000000000000000000000\n        /* \"#utility.yul\":25099:25100   */\n      0x00\n        /* \"#utility.yul\":25092:25180   */\n      mstore\n        /* \"#utility.yul\":25199:25203   */\n      0x12\n        /* \"#utility.yul\":25196:25197   */\n      0x04\n        /* \"#utility.yul\":25189:25204   */\n      mstore\n        /* \"#utility.yul\":25223:25227   */\n      0x24\n        /* \"#utility.yul\":25220:25221   */\n      0x00\n        /* \"#utility.yul\":25213:25228   */\n      revert\n        /* \"#utility.yul\":25240:25425   */\n    tag_343:\n        /* \"#utility.yul\":25280:25281   */\n      0x00\n        /* \"#utility.yul\":25297:25317   */\n      tag_644\n        /* \"#utility.yul\":25315:25316   */\n      dup3\n        /* \"#utility.yul\":25297:25317   */\n      tag_388\n      jump\t// in\n    tag_644:\n        /* \"#utility.yul\":25292:25317   */\n      swap2\n      pop\n        /* \"#utility.yul\":25331:25351   */\n      tag_645\n        /* \"#utility.yul\":25349:25350   */\n      dup4\n        /* \"#utility.yul\":25331:25351   */\n      tag_388\n      jump\t// in\n    tag_645:\n        /* \"#utility.yul\":25326:25351   */\n      swap3\n      pop\n        /* \"#utility.yul\":25370:25371   */\n      dup3\n        /* \"#utility.yul\":25360:25395   */\n      tag_646\n      jumpi\n        /* \"#utility.yul\":25375:25393   */\n      tag_647\n      tag_431\n      jump\t// in\n    tag_647:\n        /* \"#utility.yul\":25360:25395   */\n    tag_646:\n        /* \"#utility.yul\":25417:25418   */\n      dup3\n        /* \"#utility.yul\":25414:25415   */\n      dup3\n        /* \"#utility.yul\":25410:25419   */\n      div\n        /* \"#utility.yul\":25405:25419   */\n      swap1\n      pop\n        /* \"#utility.yul\":25240:25425   */\n      swap3\n      swap2\n      pop\n      pop\n      jump\t// out\n        /* \"#utility.yul\":25431:25612   */\n    tag_432:\n        /* \"#utility.yul\":25571:25604   */\n      0x45524332303a206d696e7420746f20746865207a65726f206164647265737300\n        /* \"#utility.yul\":25567:25568   */\n      0x00\n        /* \"#utility.yul\":25559:25565   */\n      dup3\n        /* \"#utility.yul\":25555:25569   */\n      add\n        /* \"#utility.yul\":25548:25605   */\n      mstore\n        /* \"#utility.yul\":25431:25612   */\n      pop\n      jump\t// out\n        /* \"#utility.yul\":25618:25984   */\n    tag_433:\n        /* \"#utility.yul\":25760:25763   */\n      0x00\n        /* \"#utility.yul\":25781:25848   */\n      tag_650\n        /* \"#utility.yul\":25845:25847   */\n      0x1f\n        /* \"#utility.yul\":25840:25843   */\n      dup4\n        /* \"#utility.yul\":25781:25848   */\n      tag_377\n      jump\t// in\n    tag_650:\n        /* \"#utility.yul\":25774:25848   */\n      swap2\n      pop\n        /* \"#utility.yul\":25857:25950   */\n      tag_651\n        /* \"#utility.yul\":25946:25949   */\n      dup3\n        /* \"#utility.yul\":25857:25950   */\n      tag_432\n      jump\t// in\n    tag_651:\n        /* \"#utility.yul\":25975:25977   */\n      0x20\n        /* \"#utility.yul\":25970:25973   */\n      dup3\n        /* \"#utility.yul\":25966:25978   */\n      add\n        /* \"#utility.yul\":25959:25978   */\n      swap1\n      pop\n        /* \"#utility.yul\":25618:25984   */\n      swap2\n      swap1\n      pop\n      jump\t// out\n        /* \"#utility.yul\":25990:26409   */\n    tag_352:\n        /* \"#utility.yul\":26156:26160   */\n      0x00\n        /* \"#utility.yul\":26194:26196   */\n      0x20\n        /* \"#utility.yul\":26183:26192   */\n      dup3\n        /* \"#utility.yul\":26179:26197   */\n      add\n        /* \"#utility.yul\":26171:26197   */\n      swap1\n      pop\n        /* \"#utility.yul\":26243:26252   */\n      dup2\n        /* \"#utility.yul\":26237:26241   */\n      dup2\n        /* \"#utility.yul\":26233:26253   */\n      sub\n        /* \"#utility.yul\":26229:26230   */\n      0x00\n        /* \"#utility.yul\":26218:26227   */\n      dup4\n        /* \"#utility.yul\":26214:26231   */\n      add\n        /* \"#utility.yul\":26207:26254   */\n      mstore\n        /* \"#utility.yul\":26271:26402   */\n      tag_653\n        /* \"#utility.yul\":26397:26401   */\n      dup2\n        /* \"#utility.yul\":26271:26402   */\n      tag_433\n      jump\t// in\n    tag_653:\n        /* \"#utility.yul\":26263:26402   */\n      swap1\n      pop\n        /* \"#utility.yul\":25990:26409   */\n      swap2\n      swap1\n      pop\n      jump\t// out\n        /* \"#utility.yul\":26415:26635   */\n    tag_434:\n        /* \"#utility.yul\":26555:26589   */\n      0x45524332303a206275726e2066726f6d20746865207a65726f20616464726573\n        /* \"#utility.yul\":26551:26552   */\n      0x00\n        /* \"#utility.yul\":26543:26549   */\n      dup3\n        /* \"#utility.yul\":26539:26553   */\n      add\n        /* \"#utility.yul\":26532:26590   */\n      mstore\n        /* \"#utility.yul\":26624:26627   */\n      0x7300000000000000000000000000000000000000000000000000000000000000\n        /* \"#utility.yul\":26619:26621   */\n      0x20\n        /* \"#utility.yul\":26611:26617   */\n      dup3\n        /* \"#utility.yul\":26607:26622   */\n      add\n        /* \"#utility.yul\":26600:26628   */\n      mstore\n        /* \"#utility.yul\":26415:26635   */\n      pop\n      jump\t// out\n        /* \"#utility.yul\":26641:27007   */\n    tag_435:\n        /* \"#utility.yul\":26783:26786   */\n      0x00\n        /* \"#utility.yul\":26804:26871   */\n      tag_656\n        /* \"#utility.yul\":26868:26870   */\n      0x21\n        /* \"#utility.yul\":26863:26866   */\n      dup4\n        /* \"#utility.yul\":26804:26871   */\n      tag_377\n      jump\t// in\n    tag_656:\n        /* \"#utility.yul\":26797:26871   */\n      swap2\n      pop\n        /* \"#utility.yul\":26880:26973   */\n      tag_657\n        /* \"#utility.yul\":26969:26972   */\n      dup3\n        /* \"#utility.yul\":26880:26973   */\n      tag_434\n      jump\t// in\n    tag_657:\n        /* \"#utility.yul\":26998:27000   */\n      0x40\n        /* \"#utility.yul\":26993:26996   */\n      dup3\n        /* \"#utility.yul\":26989:27001   */\n      add\n        /* \"#utility.yul\":26982:27001   */\n      swap1\n      pop\n        /* \"#utility.yul\":26641:27007   */\n      swap2\n      swap1\n      pop\n      jump\t// out\n        /* \"#utility.yul\":27013:27432   */\n    tag_360:\n        /* \"#utility.yul\":27179:27183   */\n      0x00\n        /* \"#utility.yul\":27217:27219   */\n      0x20\n        /* \"#utility.yul\":27206:27215   */\n      dup3\n        /* \"#utility.yul\":27202:27220   */\n      add\n        /* \"#utility.yul\":27194:27220   */\n      swap1\n      pop\n        /* \"#utility.yul\":27266:27275   */\n      dup2\n        /* \"#utility.yul\":27260:27264   */\n      dup2\n        /* \"#utility.yul\":27256:27276   */\n      sub\n        /* \"#utility.yul\":27252:27253   */\n      0x00\n        /* \"#utility.yul\":27241:27250   */\n      dup4\n        /* \"#utility.yul\":27237:27254   */\n      add\n        /* \"#utility.yul\":27230:27277   */\n      mstore\n        /* \"#utility.yul\":27294:27425   */\n      tag_659\n        /* \"#utility.yul\":27420:27424   */\n      dup2\n        /* \"#utility.yul\":27294:27425   */\n      tag_435\n      jump\t// in\n    tag_659:\n        /* \"#utility.yul\":27286:27425   */\n      swap1\n      pop\n        /* \"#utility.yul\":27013:27432   */\n      swap2\n      swap1\n      pop\n      jump\t// out\n        /* \"#utility.yul\":27438:27659   */\n    tag_436:\n        /* \"#utility.yul\":27578:27612   */\n      0x45524332303a206275726e20616d6f756e7420657863656564732062616c616e\n        /* \"#utility.yul\":27574:27575   */\n      0x00\n        /* \"#utility.yul\":27566:27572   */\n      dup3\n        /* \"#utility.yul\":27562:27576   */\n      add\n        /* \"#utility.yul\":27555:27613   */\n      mstore\n        /* \"#utility.yul\":27647:27651   */\n      0x6365000000000000000000000000000000000000000000000000000000000000\n        /* \"#utility.yul\":27642:27644   */\n      0x20\n        /* \"#utility.yul\":27634:27640   */\n      dup3\n        /* \"#utility.yul\":27630:27645   */\n      add\n        /* \"#utility.yul\":27623:27652   */\n      mstore\n        /* \"#utility.yul\":27438:27659   */\n      pop\n      jump\t// out\n        /* \"#utility.yul\":27665:28031   */\n    tag_437:\n        /* \"#utility.yul\":27807:27810   */\n      0x00\n        /* \"#utility.yul\":27828:27895   */\n      tag_662\n        /* \"#utility.yul\":27892:27894   */\n      0x22\n        /* \"#utility.yul\":27887:27890   */\n      dup4\n        /* \"#utility.yul\":27828:27895   */\n      tag_377\n      jump\t// in\n    tag_662:\n        /* \"#utility.yul\":27821:27895   */\n      swap2\n      pop\n        /* \"#utility.yul\":27904:27997   */\n      tag_663\n        /* \"#utility.yul\":27993:27996   */\n      dup3\n        /* \"#utility.yul\":27904:27997   */\n      tag_436\n      jump\t// in\n    tag_663:\n        /* \"#utility.yul\":28022:28024   */\n      0x40\n        /* \"#utility.yul\":28017:28020   */\n      dup3\n        /* \"#utility.yul\":28013:28025   */\n      add\n        /* \"#utility.yul\":28006:28025   */\n      swap1\n      pop\n        /* \"#utility.yul\":27665:28031   */\n      swap2\n      swap1\n      pop\n      jump\t// out\n        /* \"#utility.yul\":28037:28456   */\n    tag_364:\n        /* \"#utility.yul\":28203:28207   */\n      0x00\n        /* \"#utility.yul\":28241:28243   */\n      0x20\n        /* \"#utility.yul\":28230:28239   */\n      dup3\n        /* \"#utility.yul\":28226:28244   */\n      add\n        /* \"#utility.yul\":28218:28244   */\n      swap1\n      pop\n        /* \"#utility.yul\":28290:28299   */\n      dup2\n        /* \"#utility.yul\":28284:28288   */\n      dup2\n        /* \"#utility.yul\":28280:28300   */\n      sub\n        /* \"#utility.yul\":28276:28277   */\n      0x00\n        /* \"#utility.yul\":28265:28274   */\n      dup4\n        /* \"#utility.yul\":28261:28278   */\n      add\n        /* \"#utility.yul\":28254:28301   */\n      mstore\n        /* \"#utility.yul\":28318:28449   */\n      tag_665\n        /* \"#utility.yul\":28444:28448   */\n      dup2\n        /* \"#utility.yul\":28318:28449   */\n      tag_437\n      jump\t// in\n    tag_665:\n        /* \"#utility.yul\":28310:28449   */\n      swap1\n      pop\n        /* \"#utility.yul\":28037:28456   */\n      swap2\n      swap1\n      pop\n      jump\t// out\n        /* \"#utility.yul\":28462:28644   */\n    tag_438:\n        /* \"#utility.yul\":28602:28636   */\n      0x4f776e61626c653a2063616c6c6572206973206e6f7420746865206f776e6572\n        /* \"#utility.yul\":28598:28599   */\n      0x00\n        /* \"#utility.yul\":28590:28596   */\n      dup3\n        /* \"#utility.yul\":28586:28600   */\n      add\n        /* \"#utility.yul\":28579:28637   */\n      mstore\n        /* \"#utility.yul\":28462:28644   */\n      pop\n      jump\t// out\n        /* \"#utility.yul\":28650:29016   */\n    tag_439:\n        /* \"#utility.yul\":28792:28795   */\n      0x00\n        /* \"#utility.yul\":28813:28880   */\n      tag_668\n        /* \"#utility.yul\":28877:28879   */\n      0x20\n        /* \"#utility.yul\":28872:28875   */\n      dup4\n        /* \"#utility.yul\":28813:28880   */\n      tag_377\n      jump\t// in\n    tag_668:\n        /* \"#utility.yul\":28806:28880   */\n      swap2\n      pop\n        /* \"#utility.yul\":28889:28982   */\n      tag_669\n        /* \"#utility.yul\":28978:28981   */\n      dup3\n        /* \"#utility.yul\":28889:28982   */\n      tag_438\n      jump\t// in\n    tag_669:\n        /* \"#utility.yul\":29007:29009   */\n      0x20\n        /* \"#utility.yul\":29002:29005   */\n      dup3\n        /* \"#utility.yul\":28998:29010   */\n      add\n        /* \"#utility.yul\":28991:29010   */\n      swap1\n      pop\n        /* \"#utility.yul\":28650:29016   */\n      swap2\n      swap1\n      pop\n      jump\t// out\n        /* \"#utility.yul\":29022:29441   */\n    tag_372:\n        /* \"#utility.yul\":29188:29192   */\n      0x00\n        /* \"#utility.yul\":29226:29228   */\n      0x20\n        /* \"#utility.yul\":29215:29224   */\n      dup3\n        /* \"#utility.yul\":29211:29229   */\n      add\n        /* \"#utility.yul\":29203:29229   */\n      swap1\n      pop\n        /* \"#utility.yul\":29275:29284   */\n      dup2\n        /* \"#utility.yul\":29269:29273   */\n      dup2\n        /* \"#utility.yul\":29265:29285   */\n      sub\n        /* \"#utility.yul\":29261:29262   */\n      0x00\n        /* \"#utility.yul\":29250:29259   */\n      dup4\n        /* \"#utility.yul\":29246:29263   */\n      add\n        /* \"#utility.yul\":29239:29286   */\n      mstore\n        /* \"#utility.yul\":29303:29434   */\n      tag_671\n        /* \"#utility.yul\":29429:29433   */\n      dup2\n        /* \"#utility.yul\":29303:29434   */\n      tag_439\n      jump\t// in\n    tag_671:\n        /* \"#utility.yul\":29295:29434   */\n      swap1\n      pop\n        /* \"#utility.yul\":29022:29441   */\n      swap2\n      swap1\n      pop\n      jump\t// out\n\n    auxdata: 0xa2646970667358221220874f3e0451e3f578ecfdc8b46bd9200c2a09d9f8899f3de68856d1349c18880564736f6c63430008120033\n}\n",
				"bytecode": {
					"linkReferences": {},
					"object": "608060405260646007553480156200001657600080fd5b506040518060400160405280600781526020017f4d79546f6b656e000000000000000000000000000000000000000000000000008152506040518060400160405280600381526020017f4d544b0000000000000000000000000000000000000000000000000000000000815250816003908162000094919062000426565b508060049081620000a6919062000426565b505050620000c9620000bd620000de60201b60201c565b620000e660201b60201c565b670de0b6b3a76400006006819055506200050d565b600033905090565b6000600560009054906101000a900473ffffffffffffffffffffffffffffffffffffffff16905081600560006101000a81548173ffffffffffffffffffffffffffffffffffffffff021916908373ffffffffffffffffffffffffffffffffffffffff1602179055508173ffffffffffffffffffffffffffffffffffffffff168173ffffffffffffffffffffffffffffffffffffffff167f8be0079c531659141344cd1fd0a4f28419497f9722a3daafe3b4186f6b6457e060405160405180910390a35050565b600081519050919050565b7f4e487b7100000000000000000000000000000000000000000000000000000000600052604160045260246000fd5b7f4e487b7100000000000000000000000000000000000000000000000000000000600052602260045260246000fd5b600060028204905060018216806200022e57607f821691505b602082108103620002445762000243620001e6565b5b50919050565b60008190508160005260206000209050919050565b60006020601f8301049050919050565b600082821b905092915050565b600060088302620002ae7fffffffffffffffffffffffffffffffffffffffffffffffffffffffffffffffff826200026f565b620002ba86836200026f565b95508019841693508086168417925050509392505050565b6000819050919050565b6000819050919050565b60006200030762000301620002fb84620002d2565b620002dc565b620002d2565b9050919050565b6000819050919050565b6200032383620002e6565b6200033b62000332826200030e565b8484546200027c565b825550505050565b600090565b6200035262000343565b6200035f81848462000318565b505050565b5b8181101562000387576200037b60008262000348565b60018101905062000365565b5050565b601f821115620003d657620003a0816200024a565b620003ab846200025f565b81016020851015620003bb578190505b620003d3620003ca856200025f565b83018262000364565b50505b505050565b600082821c905092915050565b6000620003fb60001984600802620003db565b1980831691505092915050565b6000620004168383620003e8565b9150826002028217905092915050565b6200043182620001ac565b67ffffffffffffffff8111156200044d576200044c620001b7565b5b62000459825462000215565b620004668282856200038b565b600060209050601f8311600181146200049e576000841562000489578287015190505b62000495858262000408565b86555062000505565b601f198416620004ae866200024a565b60005b82811015620004d857848901518255600182019150602085019450602081019050620004b1565b86831015620004f85784890151620004f4601f891682620003e8565b8355505b6001600288020188555050505b505050505050565b612f01806200051d6000396000f3fe6080604052600436106101815760003560e01c806370a08231116100d157806395d89b411161008a578063a9059cbb11610064578063a9059cbb1461054f578063c392f7661461058c578063dd62ed3e146105b7578063f2fde38b146105f457610181565b806395d89b41146104be578063a457c2d7146104e9578063a694fc3a1461052657610181565b806370a08231146103ac578063715018a6146103e957806379cc6790146104005780637ff9b596146104295780638da5cb5b1461045457806394eecb501461047f57610181565b80633610724e1161013e57806342966c681161011857806342966c681461031a57806347f07a8e146103435780636a61e5fc1461035a5780636c11bcd31461038357610181565b80633610724e146102aa578063372500ab146102c657806339509351146102dd57610181565b806306fdde0314610186578063095ea7b3146101b157806318160ddd146101ee57806323b872dd146102195780632e17de7814610256578063313ce5671461027f575b600080fd5b34801561019257600080fd5b5061019b61061d565b6040516101a89190611f74565b60405180910390f35b3480156101bd57600080fd5b506101d860048036038101906101d3919061202f565b6106af565b6040516101e5919061208a565b60405180910390f35b3480156101fa57600080fd5b506102036106d2565b60405161021091906120b4565b60405180910390f35b34801561022557600080fd5b50610240600480360381019061023b91906120cf565b6106dc565b60405161024d919061208a565b60405180910390f35b34801561026257600080fd5b5061027d60048036038101906102789190612122565b61070b565b005b34801561028b57600080fd5b50610294610a1b565b6040516102a1919061216b565b60405180910390f35b6102c460048036038101906102bf9190612122565b610a24565b005b3480156102d257600080fd5b506102db610af6565b005b3480156102e957600080fd5b5061030460048036038101906102ff919061202f565b610c57565b604051610311919061208a565b60405180910390f35b34801561032657600080fd5b50610341600480360381019061033c9190612122565b610c8e565b005b34801561034f57600080fd5b50610358610ca2565b005b34801561036657600080fd5b50610381600480360381019061037c9190612122565b610d67565b005b34801561038f57600080fd5b506103aa60048036038101906103a59190612122565b610d79565b005b3480156103b857600080fd5b506103d360048036038101906103ce9190612186565b610f13565b6040516103e091906120b4565b60405180910390f35b3480156103f557600080fd5b506103fe610f5b565b005b34801561040c57600080fd5b506104276004803603810190610422919061202f565b610f6f565b005b34801561043557600080fd5b5061043e610f8f565b60405161044b91906120b4565b60405180910390f35b34801561046057600080fd5b50610469610f95565b60405161047691906121c2565b60405180910390f35b34801561048b57600080fd5b506104a660048036038101906104a19190612186565b610fbf565b6040516104b5939291906121dd565b60405180910390f35b3480156104ca57600080fd5b506104d3610fe9565b6040516104e09190611f74565b60405180910390f35b3480156104f557600080fd5b50610510600480360381019061050b919061202f565b61107b565b60405161051d919061208a565b60405180910390f35b34801561053257600080fd5b5061054d60048036038101906105489190612122565b6110f2565b005b34801561055b57600080fd5b506105766004803603810190610571919061202f565b6112f1565b604051610583919061208a565b60405180910390f35b34801561059857600080fd5b506105a1611314565b6040516105ae91906120b4565b60405180910390f35b3480156105c357600080fd5b506105de60048036038101906105d99190612214565b61131a565b6040516105eb91906120b4565b60405180910390f35b34801561060057600080fd5b5061061b60048036038101906106169190612186565b6113a1565b005b60606003805461062c90612283565b80601f016020809104026020016040519081016040528092919081815260200182805461065890612283565b80156106a55780601f1061067a576101008083540402835291602001916106a5565b820191906000526020600020905b81548152906001019060200180831161068857829003601f168201915b5050505050905090565b6000806106ba611424565b90506106c781858561142c565b600191505092915050565b6000600254905090565b6000806106e7611424565b90506106f48582856115f5565b6106ff858585611681565b60019150509392505050565b6000811161074e576040517f08c379a000000000000000000000000000000000000000000000000000000000815260040161074590612326565b60405180910390fd5b80600860003373ffffffffffffffffffffffffffffffffffffffff1673ffffffffffffffffffffffffffffffffffffffff1681526020019081526020016000206000015410156107d3576040517f08c379a00000000000000000000000000000000000000000000000000000000081526004016107ca90612392565b60405180910390fd5b6107dc336118f7565b80600860003373ffffffffffffffffffffffffffffffffffffffff1673ffffffffffffffffffffffffffffffffffffffff168152602001908152602001600020600001600082825461082e91906123e1565b925050819055506000600860003373ffffffffffffffffffffffffffffffffffffffff1673ffffffffffffffffffffffffffffffffffffffff1681526020019081526020016000206000015403610a0d5760005b600980549050811015610a0b573373ffffffffffffffffffffffffffffffffffffffff16600982815481106108ba576108b9612415565b5b9060005260206000200160009054906101000a900473ffffffffffffffffffffffffffffffffffffffff1673ffffffffffffffffffffffffffffffffffffffff16036109f8576009600160098054905061091491906123e1565b8154811061092557610924612415565b5b9060005260206000200160009054906101000a900473ffffffffffffffffffffffffffffffffffffffff166009828154811061096457610963612415565b5b9060005260206000200160006101000a81548173ffffffffffffffffffffffffffffffffffffffff021916908373ffffffffffffffffffffffffffffffffffffffff16021790555060098054806109be576109bd612444565b5b6001900381819060005260206000200160006101000a81549073ffffffffffffffffffffffffffffffffffffffff02191690559055610a0b565b8080610a0390612473565b915050610882565b505b610a18303383611681565b50565b60006012905090565b60065481610a3291906124bb565b341015610a74576040517f08c379a0000000000000000000000000000000000000000000000000000000008152600401610a6b90612549565b60405180910390fd5b610a7e3382611a73565b60065481610a8c91906124bb565b341115610af3573373ffffffffffffffffffffffffffffffffffffffff166108fc60065483610abb91906124bb565b34610ac691906123e1565b9081150290604051600060405180830381858888f19350505050158015610af1573d6000803e3d6000fd5b505b50565b610aff336118f7565b6000600860003373ffffffffffffffffffffffffffffffffffffffff1673ffffffffffffffffffffffffffffffffffffffff1681526020019081526020016000206002015411610b84576040517f08c379a0000000000000000000000000000000000000000000000000000000008152600401610b7b906125b5565b60405180910390fd5b3373ffffffffffffffffffffffffffffffffffffffff166108fc600860003373ffffffffffffffffffffffffffffffffffffffff1673ffffffffffffffffffffffffffffffffffffffff168152602001908152602001600020600201549081150290604051600060405180830381858888f19350505050158015610c0c573d6000803e3d6000fd5b506000600860003373ffffffffffffffffffffffffffffffffffffffff1673ffffffffffffffffffffffffffffffffffffffff16815260200190815260200160002060020181905550565b600080610c62611424565b9050610c83818585610c74858961131a565b610c7e91906125d5565b61142c565b600191505092915050565b610c9f610c99611424565b82611bc9565b50565b610caa610f95565b73ffffffffffffffffffffffffffffffffffffffff163373ffffffffffffffffffffffffffffffffffffffff1614610d17576040517f08c379a0000000000000000000000000000000000000000000000000000000008152600401610d0e9061267b565b60405180910390fd5b610d1f610f95565b73ffffffffffffffffffffffffffffffffffffffff166108fc479081150290604051600060405180830381858888f19350505050158015610d64573d6000803e3d6000fd5b50565b610d6f611d96565b8060068190555050565b80610d8333610f13565b1015610dc4576040517f08c379a0000000000000000000000000000000000000000000000000000000008152600401610dbb906126e7565b60405180910390fd5b6000600860003373ffffffffffffffffffffffffffffffffffffffff1673ffffffffffffffffffffffffffffffffffffffff1681526020019081526020016000206002015460065483610e1791906124bb565b610e2191906125d5565b9050600860003373ffffffffffffffffffffffffffffffffffffffff1673ffffffffffffffffffffffffffffffffffffffff16815260200190815260200160002060020154600860003373ffffffffffffffffffffffffffffffffffffffff1673ffffffffffffffffffffffffffffffffffffffff1681526020019081526020016000206002016000828254610eb791906123e1565b92505081905550610ec83383611bc9565b3373ffffffffffffffffffffffffffffffffffffffff166108fc829081150290604051600060405180830381858888f19350505050158015610f0e573d6000803e3d6000fd5b505050565b60008060008373ffffffffffffffffffffffffffffffffffffffff1673ffffffffffffffffffffffffffffffffffffffff168152602001908152602001600020549050919050565b610f63611d96565b610f6d6000611e14565b565b610f8182610f7b611424565b836115f5565b610f8b8282611bc9565b5050565b60065481565b6000600560009054906101000a900473ffffffffffffffffffffffffffffffffffffffff16905090565b60086020528060005260406000206000915090508060000154908060010154908060020154905083565b606060048054610ff890612283565b80601f016020809104026020016040519081016040528092919081815260200182805461102490612283565b80156110715780601f1061104657610100808354040283529160200191611071565b820191906000526020600020905b81548152906001019060200180831161105457829003601f168201915b5050505050905090565b600080611086611424565b90506000611094828661131a565b9050838110156110d9576040517f08c379a00000000000000000000000000000000000000000000000000000000081526004016110d090612779565b60405180910390fd5b6110e6828686840361142c565b60019250505092915050565b60008111611135576040517f08c379a000000000000000000000000000000000000000000000000000000000815260040161112c906127e5565b60405180910390fd5b8061113f33610f13565b1015611180576040517f08c379a000000000000000000000000000000000000000000000000000000000815260040161117790612877565b60405180910390fd5b60004290506000600860003373ffffffffffffffffffffffffffffffffffffffff1673ffffffffffffffffffffffffffffffffffffffff1681526020019081526020016000206000015411156111de576111d9336118f7565b611242565b6009339080600181540180825580915050600190039060005260206000200160009091909190916101000a81548173ffffffffffffffffffffffffffffffffffffffff021916908373ffffffffffffffffffffffffffffffffffffffff1602179055505b61124d333084611681565b81600860003373ffffffffffffffffffffffffffffffffffffffff1673ffffffffffffffffffffffffffffffffffffffff168152602001908152602001600020600001600082825461129f91906125d5565b9250508190555080600860003373ffffffffffffffffffffffffffffffffffffffff1673ffffffffffffffffffffffffffffffffffffffff168152602001908152602001600020600101819055505050565b6000806112fc611424565b9050611309818585611681565b600191505092915050565b60075481565b6000600160008473ffffffffffffffffffffffffffffffffffffffff1673ffffffffffffffffffffffffffffffffffffffff16815260200190815260200160002060008373ffffffffffffffffffffffffffffffffffffffff1673ffffffffffffffffffffffffffffffffffffffff16815260200190815260200160002054905092915050565b6113a9611d96565b600073ffffffffffffffffffffffffffffffffffffffff168173ffffffffffffffffffffffffffffffffffffffff1603611418576040517f08c379a000000000000000000000000000000000000000000000000000000000815260040161140f90612909565b60405180910390fd5b61142181611e14565b50565b600033905090565b600073ffffffffffffffffffffffffffffffffffffffff168373ffffffffffffffffffffffffffffffffffffffff160361149b576040517f08c379a00000000000000000000000000000000000000000000000000000000081526004016114929061299b565b60405180910390fd5b600073ffffffffffffffffffffffffffffffffffffffff168273ffffffffffffffffffffffffffffffffffffffff160361150a576040517f08c379a000000000000000000000000000000000000000000000000000000000815260040161150190612a2d565b60405180910390fd5b80600160008573ffffffffffffffffffffffffffffffffffffffff1673ffffffffffffffffffffffffffffffffffffffff16815260200190815260200160002060008473ffffffffffffffffffffffffffffffffffffffff1673ffffffffffffffffffffffffffffffffffffffff168152602001908152602001600020819055508173ffffffffffffffffffffffffffffffffffffffff168373ffffffffffffffffffffffffffffffffffffffff167f8c5be1e5ebec7d5bd14f71427d1e84f3dd0314c0f7b2291e5b200ac8c7c3b925836040516115e891906120b4565b60405180910390a3505050565b6000611601848461131a565b90507fffffffffffffffffffffffffffffffffffffffffffffffffffffffffffffffff811461167b578181101561166d576040517f08c379a000000000000000000000000000000000000000000000000000000000815260040161166490612a99565b60405180910390fd5b61167a848484840361142c565b5b50505050565b600073ffffffffffffffffffffffffffffffffffffffff168373ffffffffffffffffffffffffffffffffffffffff16036116f0576040517f08c379a00000000000000000000000000000000000000000000000000000000081526004016116e790612b2b565b60405180910390fd5b600073ffffffffffffffffffffffffffffffffffffffff168273ffffffffffffffffffffffffffffffffffffffff160361175f576040517f08c379a000000000000000000000000000000000000000000000000000000000815260040161175690612bbd565b60405180910390fd5b61176a838383611eda565b60008060008573ffffffffffffffffffffffffffffffffffffffff1673ffffffffffffffffffffffffffffffffffffffff168152602001908152602001600020549050818110156117f0576040517f08c379a00000000000000000000000000000000000000000000000000000000081526004016117e790612c4f565b60405180910390fd5b8181036000808673ffffffffffffffffffffffffffffffffffffffff1673ffffffffffffffffffffffffffffffffffffffff16815260200190815260200160002081905550816000808573ffffffffffffffffffffffffffffffffffffffff1673ffffffffffffffffffffffffffffffffffffffff168152602001908152602001600020600082825401925050819055508273ffffffffffffffffffffffffffffffffffffffff168473ffffffffffffffffffffffffffffffffffffffff167fddf252ad1be2c89b69c2b068fc378daa952ba7f163c4a11628f55a4df523b3ef846040516118de91906120b4565b60405180910390a36118f1848484611edf565b50505050565b60004290506000603c600860008573ffffffffffffffffffffffffffffffffffffffff1673ffffffffffffffffffffffffffffffffffffffff168152602001908152602001600020600101548361194e91906123e1565b6119589190612c9e565b905061177060065482600754600860008873ffffffffffffffffffffffffffffffffffffffff1673ffffffffffffffffffffffffffffffffffffffff168152602001908152602001600020600001546119b191906124bb565b6119bb91906124bb565b6119c591906124bb565b6119cf9190612c9e565b600860008573ffffffffffffffffffffffffffffffffffffffff1673ffffffffffffffffffffffffffffffffffffffff1681526020019081526020016000206002016000828254611a2091906125d5565b9250508190555081600860008573ffffffffffffffffffffffffffffffffffffffff1673ffffffffffffffffffffffffffffffffffffffff16815260200190815260200160002060010181905550505050565b600073ffffffffffffffffffffffffffffffffffffffff168273ffffffffffffffffffffffffffffffffffffffff1603611ae2576040517f08c379a0000000000000000000000000000000000000000000000000000000008152600401611ad990612d1b565b60405180910390fd5b611aee60008383611eda565b8060026000828254611b0091906125d5565b92505081905550806000808473ffffffffffffffffffffffffffffffffffffffff1673ffffffffffffffffffffffffffffffffffffffff168152602001908152602001600020600082825401925050819055508173ffffffffffffffffffffffffffffffffffffffff16600073ffffffffffffffffffffffffffffffffffffffff167fddf252ad1be2c89b69c2b068fc378daa952ba7f163c4a11628f55a4df523b3ef83604051611bb191906120b4565b60405180910390a3611bc560008383611edf565b5050565b600073ffffffffffffffffffffffffffffffffffffffff168273ffffffffffffffffffffffffffffffffffffffff1603611c38576040517f08c379a0000000000000000000000000000000000000000000000000000000008152600401611c2f90612dad565b60405180910390fd5b611c4482600083611eda565b60008060008473ffffffffffffffffffffffffffffffffffffffff1673ffffffffffffffffffffffffffffffffffffffff16815260200190815260200160002054905081811015611cca576040517f08c379a0000000000000000000000000000000000000000000000000000000008152600401611cc190612e3f565b60405180910390fd5b8181036000808573ffffffffffffffffffffffffffffffffffffffff1673ffffffffffffffffffffffffffffffffffffffff1681526020019081526020016000208190555081600260008282540392505081905550600073ffffffffffffffffffffffffffffffffffffffff168373ffffffffffffffffffffffffffffffffffffffff167fddf252ad1be2c89b69c2b068fc378daa952ba7f163c4a11628f55a4df523b3ef84604051611d7d91906120b4565b60405180910390a3611d9183600084611edf565b505050565b611d9e611424565b73ffffffffffffffffffffffffffffffffffffffff16611dbc610f95565b73ffffffffffffffffffffffffffffffffffffffff1614611e12576040517f08c379a0000000000000000000000000000000000000000000000000000000008152600401611e0990612eab565b60405180910390fd5b565b6000600560009054906101000a900473ffffffffffffffffffffffffffffffffffffffff16905081600560006101000a81548173ffffffffffffffffffffffffffffffffffffffff021916908373ffffffffffffffffffffffffffffffffffffffff1602179055508173ffffffffffffffffffffffffffffffffffffffff168173ffffffffffffffffffffffffffffffffffffffff167f8be0079c531659141344cd1fd0a4f28419497f9722a3daafe3b4186f6b6457e060405160405180910390a35050565b505050565b505050565b600081519050919050565b600082825260208201905092915050565b60005b83811015611f1e578082015181840152602081019050611f03565b60008484015250505050565b6000601f19601f8301169050919050565b6000611f4682611ee4565b611f508185611eef565b9350611f60818560208601611f00565b611f6981611f2a565b840191505092915050565b60006020820190508181036000830152611f8e8184611f3b565b905092915050565b600080fd5b600073ffffffffffffffffffffffffffffffffffffffff82169050919050565b6000611fc682611f9b565b9050919050565b611fd681611fbb565b8114611fe157600080fd5b50565b600081359050611ff381611fcd565b92915050565b6000819050919050565b61200c81611ff9565b811461201757600080fd5b50565b60008135905061202981612003565b92915050565b6000806040838503121561204657612045611f96565b5b600061205485828601611fe4565b92505060206120658582860161201a565b9150509250929050565b60008115159050919050565b6120848161206f565b82525050565b600060208201905061209f600083018461207b565b92915050565b6120ae81611ff9565b82525050565b60006020820190506120c960008301846120a5565b92915050565b6000806000606084860312156120e8576120e7611f96565b5b60006120f686828701611fe4565b935050602061210786828701611fe4565b92505060406121188682870161201a565b9150509250925092565b60006020828403121561213857612137611f96565b5b60006121468482850161201a565b91505092915050565b600060ff82169050919050565b6121658161214f565b82525050565b6000602082019050612180600083018461215c565b92915050565b60006020828403121561219c5761219b611f96565b5b60006121aa84828501611fe4565b91505092915050565b6121bc81611fbb565b82525050565b60006020820190506121d760008301846121b3565b92915050565b60006060820190506121f260008301866120a5565b6121ff60208301856120a5565b61220c60408301846120a5565b949350505050565b6000806040838503121561222b5761222a611f96565b5b600061223985828601611fe4565b925050602061224a85828601611fe4565b9150509250929050565b7f4e487b7100000000000000000000000000000000000000000000000000000000600052602260045260246000fd5b6000600282049050600182168061229b57607f821691505b6020821081036122ae576122ad612254565b5b50919050565b7f4d75737420756e7374616b65206d6f7265207468616e207a65726f20746f6b6560008201527f6e73000000000000000000000000000000000000000000000000000000000000602082015250565b6000612310602283611eef565b915061231b826122b4565b604082019050919050565b6000602082019050818103600083015261233f81612303565b9050919050565b7f4e6f7420456e6f75676820546f6b656e7320546f20556e7374616b6500000000600082015250565b600061237c601c83611eef565b915061238782612346565b602082019050919050565b600060208201905081810360008301526123ab8161236f565b9050919050565b7f4e487b7100000000000000000000000000000000000000000000000000000000600052601160045260246000fd5b60006123ec82611ff9565b91506123f783611ff9565b925082820390508181111561240f5761240e6123b2565b5b92915050565b7f4e487b7100000000000000000000000000000000000000000000000000000000600052603260045260246000fd5b7f4e487b7100000000000000000000000000000000000000000000000000000000600052603160045260246000fd5b600061247e82611ff9565b91507fffffffffffffffffffffffffffffffffffffffffffffffffffffffffffffffff82036124b0576124af6123b2565b5b600182019050919050565b60006124c682611ff9565b91506124d183611ff9565b92508282026124df81611ff9565b915082820484148315176124f6576124f56123b2565b5b5092915050565b7f496e73756666696369656e74206574686572732073656e740000000000000000600082015250565b6000612533601883611eef565b915061253e826124fd565b602082019050919050565b6000602082019050818103600083015261256281612526565b9050919050565b7f4e6f207265776172647320746f20636c61696d00000000000000000000000000600082015250565b600061259f601383611eef565b91506125aa82612569565b602082019050919050565b600060208201905081810360008301526125ce81612592565b9050919050565b60006125e082611ff9565b91506125eb83611ff9565b9250828201905080821115612603576126026123b2565b5b92915050565b7f4f6e6c7920746865206f776e65722063616e2063616c6c20746869732066756e60008201527f6374696f6e000000000000000000000000000000000000000000000000000000602082015250565b6000612665602583611eef565b915061267082612609565b604082019050919050565b6000602082019050818103600083015261269481612658565b9050919050565b7f496e73756666696369656e7420746f6b656e7300000000000000000000000000600082015250565b60006126d1601383611eef565b91506126dc8261269b565b602082019050919050565b60006020820190508181036000830152612700816126c4565b9050919050565b7f45524332303a2064656372656173656420616c6c6f77616e63652062656c6f7760008201527f207a65726f000000000000000000000000000000000000000000000000000000602082015250565b6000612763602583611eef565b915061276e82612707565b604082019050919050565b6000602082019050818103600083015261279281612756565b9050919050565b7f4d757374207374616b65206d6f7265207468616e207a65726f20746f6b656e73600082015250565b60006127cf602083611eef565b91506127da82612799565b602082019050919050565b600060208201905081810360008301526127fe816127c2565b9050919050565b7f4e6f7420456e6f7567682042616c616e636520546f6b656e7320546f2053746160008201527f6b65000000000000000000000000000000000000000000000000000000000000602082015250565b6000612861602283611eef565b915061286c82612805565b604082019050919050565b6000602082019050818103600083015261289081612854565b9050919050565b7f4f776e61626c653a206e6577206f776e657220697320746865207a65726f206160008201527f6464726573730000000000000000000000000000000000000000000000000000602082015250565b60006128f3602683611eef565b91506128fe82612897565b604082019050919050565b60006020820190508181036000830152612922816128e6565b9050919050565b7f45524332303a20617070726f76652066726f6d20746865207a65726f2061646460008201527f7265737300000000000000000000000000000000000000000000000000000000602082015250565b6000612985602483611eef565b915061299082612929565b604082019050919050565b600060208201905081810360008301526129b481612978565b9050919050565b7f45524332303a20617070726f766520746f20746865207a65726f20616464726560008201527f7373000000000000000000000000000000000000000000000000000000000000602082015250565b6000612a17602283611eef565b9150612a22826129bb565b604082019050919050565b60006020820190508181036000830152612a4681612a0a565b9050919050565b7f45524332303a20696e73756666696369656e7420616c6c6f77616e6365000000600082015250565b6000612a83601d83611eef565b9150612a8e82612a4d565b602082019050919050565b60006020820190508181036000830152612ab281612a76565b9050919050565b7f45524332303a207472616e736665722066726f6d20746865207a65726f20616460008201527f6472657373000000000000000000000000000000000000000000000000000000602082015250565b6000612b15602583611eef565b9150612b2082612ab9565b604082019050919050565b60006020820190508181036000830152612b4481612b08565b9050919050565b7f45524332303a207472616e7366657220746f20746865207a65726f206164647260008201527f6573730000000000000000000000000000000000000000000000000000000000602082015250565b6000612ba7602383611eef565b9150612bb282612b4b565b604082019050919050565b60006020820190508181036000830152612bd681612b9a565b9050919050565b7f45524332303a207472616e7366657220616d6f756e742065786365656473206260008201527f616c616e63650000000000000000000000000000000000000000000000000000602082015250565b6000612c39602683611eef565b9150612c4482612bdd565b604082019050919050565b60006020820190508181036000830152612c6881612c2c565b9050919050565b7f4e487b7100000000000000000000000000000000000000000000000000000000600052601260045260246000fd5b6000612ca982611ff9565b9150612cb483611ff9565b925082612cc457612cc3612c6f565b5b828204905092915050565b7f45524332303a206d696e7420746f20746865207a65726f206164647265737300600082015250565b6000612d05601f83611eef565b9150612d1082612ccf565b602082019050919050565b60006020820190508181036000830152612d3481612cf8565b9050919050565b7f45524332303a206275726e2066726f6d20746865207a65726f2061646472657360008201527f7300000000000000000000000000000000000000000000000000000000000000602082015250565b6000612d97602183611eef565b9150612da282612d3b565b604082019050919050565b60006020820190508181036000830152612dc681612d8a565b9050919050565b7f45524332303a206275726e20616d6f756e7420657863656564732062616c616e60008201527f6365000000000000000000000000000000000000000000000000000000000000602082015250565b6000612e29602283611eef565b9150612e3482612dcd565b604082019050919050565b60006020820190508181036000830152612e5881612e1c565b9050919050565b7f4f776e61626c653a2063616c6c6572206973206e6f7420746865206f776e6572600082015250565b6000612e95602083611eef565b9150612ea082612e5f565b602082019050919050565b60006020820190508181036000830152612ec481612e88565b905091905056fea2646970667358221220874f3e0451e3f578ecfdc8b46bd9200c2a09d9f8899f3de68856d1349c18880564736f6c63430008120033",
					"opcodes": "PUSH1 0x80 PUSH1 0x40 MSTORE PUSH1 0x64 PUSH1 0x7 SSTORE CALLVALUE DUP1 ISZERO PUSH3 0x16 JUMPI PUSH1 0x0 DUP1 REVERT JUMPDEST POP PUSH1 0x40 MLOAD DUP1 PUSH1 0x40 ADD PUSH1 0x40 MSTORE DUP1 PUSH1 0x7 DUP2 MSTORE PUSH1 0x20 ADD PUSH32 0x4D79546F6B656E00000000000000000000000000000000000000000000000000 DUP2 MSTORE POP PUSH1 0x40 MLOAD DUP1 PUSH1 0x40 ADD PUSH1 0x40 MSTORE DUP1 PUSH1 0x3 DUP2 MSTORE PUSH1 0x20 ADD PUSH32 0x4D544B0000000000000000000000000000000000000000000000000000000000 DUP2 MSTORE POP DUP2 PUSH1 0x3 SWAP1 DUP2 PUSH3 0x94 SWAP2 SWAP1 PUSH3 0x426 JUMP JUMPDEST POP DUP1 PUSH1 0x4 SWAP1 DUP2 PUSH3 0xA6 SWAP2 SWAP1 PUSH3 0x426 JUMP JUMPDEST POP POP POP PUSH3 0xC9 PUSH3 0xBD PUSH3 0xDE PUSH1 0x20 SHL PUSH1 0x20 SHR JUMP JUMPDEST PUSH3 0xE6 PUSH1 0x20 SHL PUSH1 0x20 SHR JUMP JUMPDEST PUSH8 0xDE0B6B3A7640000 PUSH1 0x6 DUP2 SWAP1 SSTORE POP PUSH3 0x50D JUMP JUMPDEST PUSH1 0x0 CALLER SWAP1 POP SWAP1 JUMP JUMPDEST PUSH1 0x0 PUSH1 0x5 PUSH1 0x0 SWAP1 SLOAD SWAP1 PUSH2 0x100 EXP SWAP1 DIV PUSH20 0xFFFFFFFFFFFFFFFFFFFFFFFFFFFFFFFFFFFFFFFF AND SWAP1 POP DUP2 PUSH1 0x5 PUSH1 0x0 PUSH2 0x100 EXP DUP2 SLOAD DUP2 PUSH20 0xFFFFFFFFFFFFFFFFFFFFFFFFFFFFFFFFFFFFFFFF MUL NOT AND SWAP1 DUP4 PUSH20 0xFFFFFFFFFFFFFFFFFFFFFFFFFFFFFFFFFFFFFFFF AND MUL OR SWAP1 SSTORE POP DUP2 PUSH20 0xFFFFFFFFFFFFFFFFFFFFFFFFFFFFFFFFFFFFFFFF AND DUP2 PUSH20 0xFFFFFFFFFFFFFFFFFFFFFFFFFFFFFFFFFFFFFFFF AND PUSH32 0x8BE0079C531659141344CD1FD0A4F28419497F9722A3DAAFE3B4186F6B6457E0 PUSH1 0x40 MLOAD PUSH1 0x40 MLOAD DUP1 SWAP2 SUB SWAP1 LOG3 POP POP JUMP JUMPDEST PUSH1 0x0 DUP2 MLOAD SWAP1 POP SWAP2 SWAP1 POP JUMP JUMPDEST PUSH32 0x4E487B7100000000000000000000000000000000000000000000000000000000 PUSH1 0x0 MSTORE PUSH1 0x41 PUSH1 0x4 MSTORE PUSH1 0x24 PUSH1 0x0 REVERT JUMPDEST PUSH32 0x4E487B7100000000000000000000000000000000000000000000000000000000 PUSH1 0x0 MSTORE PUSH1 0x22 PUSH1 0x4 MSTORE PUSH1 0x24 PUSH1 0x0 REVERT JUMPDEST PUSH1 0x0 PUSH1 0x2 DUP3 DIV SWAP1 POP PUSH1 0x1 DUP3 AND DUP1 PUSH3 0x22E JUMPI PUSH1 0x7F DUP3 AND SWAP2 POP JUMPDEST PUSH1 0x20 DUP3 LT DUP2 SUB PUSH3 0x244 JUMPI PUSH3 0x243 PUSH3 0x1E6 JUMP JUMPDEST JUMPDEST POP SWAP2 SWAP1 POP JUMP JUMPDEST PUSH1 0x0 DUP2 SWAP1 POP DUP2 PUSH1 0x0 MSTORE PUSH1 0x20 PUSH1 0x0 KECCAK256 SWAP1 POP SWAP2 SWAP1 POP JUMP JUMPDEST PUSH1 0x0 PUSH1 0x20 PUSH1 0x1F DUP4 ADD DIV SWAP1 POP SWAP2 SWAP1 POP JUMP JUMPDEST PUSH1 0x0 DUP3 DUP3 SHL SWAP1 POP SWAP3 SWAP2 POP POP JUMP JUMPDEST PUSH1 0x0 PUSH1 0x8 DUP4 MUL PUSH3 0x2AE PUSH32 0xFFFFFFFFFFFFFFFFFFFFFFFFFFFFFFFFFFFFFFFFFFFFFFFFFFFFFFFFFFFFFFFF DUP3 PUSH3 0x26F JUMP JUMPDEST PUSH3 0x2BA DUP7 DUP4 PUSH3 0x26F JUMP JUMPDEST SWAP6 POP DUP1 NOT DUP5 AND SWAP4 POP DUP1 DUP7 AND DUP5 OR SWAP3 POP POP POP SWAP4 SWAP3 POP POP POP JUMP JUMPDEST PUSH1 0x0 DUP2 SWAP1 POP SWAP2 SWAP1 POP JUMP JUMPDEST PUSH1 0x0 DUP2 SWAP1 POP SWAP2 SWAP1 POP JUMP JUMPDEST PUSH1 0x0 PUSH3 0x307 PUSH3 0x301 PUSH3 0x2FB DUP5 PUSH3 0x2D2 JUMP JUMPDEST PUSH3 0x2DC JUMP JUMPDEST PUSH3 0x2D2 JUMP JUMPDEST SWAP1 POP SWAP2 SWAP1 POP JUMP JUMPDEST PUSH1 0x0 DUP2 SWAP1 POP SWAP2 SWAP1 POP JUMP JUMPDEST PUSH3 0x323 DUP4 PUSH3 0x2E6 JUMP JUMPDEST PUSH3 0x33B PUSH3 0x332 DUP3 PUSH3 0x30E JUMP JUMPDEST DUP5 DUP5 SLOAD PUSH3 0x27C JUMP JUMPDEST DUP3 SSTORE POP POP POP POP JUMP JUMPDEST PUSH1 0x0 SWAP1 JUMP JUMPDEST PUSH3 0x352 PUSH3 0x343 JUMP JUMPDEST PUSH3 0x35F DUP2 DUP5 DUP5 PUSH3 0x318 JUMP JUMPDEST POP POP POP JUMP JUMPDEST JUMPDEST DUP2 DUP2 LT ISZERO PUSH3 0x387 JUMPI PUSH3 0x37B PUSH1 0x0 DUP3 PUSH3 0x348 JUMP JUMPDEST PUSH1 0x1 DUP2 ADD SWAP1 POP PUSH3 0x365 JUMP JUMPDEST POP POP JUMP JUMPDEST PUSH1 0x1F DUP3 GT ISZERO PUSH3 0x3D6 JUMPI PUSH3 0x3A0 DUP2 PUSH3 0x24A JUMP JUMPDEST PUSH3 0x3AB DUP5 PUSH3 0x25F JUMP JUMPDEST DUP2 ADD PUSH1 0x20 DUP6 LT ISZERO PUSH3 0x3BB JUMPI DUP2 SWAP1 POP JUMPDEST PUSH3 0x3D3 PUSH3 0x3CA DUP6 PUSH3 0x25F JUMP JUMPDEST DUP4 ADD DUP3 PUSH3 0x364 JUMP JUMPDEST POP POP JUMPDEST POP POP POP JUMP JUMPDEST PUSH1 0x0 DUP3 DUP3 SHR SWAP1 POP SWAP3 SWAP2 POP POP JUMP JUMPDEST PUSH1 0x0 PUSH3 0x3FB PUSH1 0x0 NOT DUP5 PUSH1 0x8 MUL PUSH3 0x3DB JUMP JUMPDEST NOT DUP1 DUP4 AND SWAP2 POP POP SWAP3 SWAP2 POP POP JUMP JUMPDEST PUSH1 0x0 PUSH3 0x416 DUP4 DUP4 PUSH3 0x3E8 JUMP JUMPDEST SWAP2 POP DUP3 PUSH1 0x2 MUL DUP3 OR SWAP1 POP SWAP3 SWAP2 POP POP JUMP JUMPDEST PUSH3 0x431 DUP3 PUSH3 0x1AC JUMP JUMPDEST PUSH8 0xFFFFFFFFFFFFFFFF DUP2 GT ISZERO PUSH3 0x44D JUMPI PUSH3 0x44C PUSH3 0x1B7 JUMP JUMPDEST JUMPDEST PUSH3 0x459 DUP3 SLOAD PUSH3 0x215 JUMP JUMPDEST PUSH3 0x466 DUP3 DUP3 DUP6 PUSH3 0x38B JUMP JUMPDEST PUSH1 0x0 PUSH1 0x20 SWAP1 POP PUSH1 0x1F DUP4 GT PUSH1 0x1 DUP2 EQ PUSH3 0x49E JUMPI PUSH1 0x0 DUP5 ISZERO PUSH3 0x489 JUMPI DUP3 DUP8 ADD MLOAD SWAP1 POP JUMPDEST PUSH3 0x495 DUP6 DUP3 PUSH3 0x408 JUMP JUMPDEST DUP7 SSTORE POP PUSH3 0x505 JUMP JUMPDEST PUSH1 0x1F NOT DUP5 AND PUSH3 0x4AE DUP7 PUSH3 0x24A JUMP JUMPDEST PUSH1 0x0 JUMPDEST DUP3 DUP2 LT ISZERO PUSH3 0x4D8 JUMPI DUP5 DUP10 ADD MLOAD DUP3 SSTORE PUSH1 0x1 DUP3 ADD SWAP2 POP PUSH1 0x20 DUP6 ADD SWAP5 POP PUSH1 0x20 DUP2 ADD SWAP1 POP PUSH3 0x4B1 JUMP JUMPDEST DUP7 DUP4 LT ISZERO PUSH3 0x4F8 JUMPI DUP5 DUP10 ADD MLOAD PUSH3 0x4F4 PUSH1 0x1F DUP10 AND DUP3 PUSH3 0x3E8 JUMP JUMPDEST DUP4 SSTORE POP JUMPDEST PUSH1 0x1 PUSH1 0x2 DUP9 MUL ADD DUP9 SSTORE POP POP POP JUMPDEST POP POP POP POP POP POP JUMP JUMPDEST PUSH2 0x2F01 DUP1 PUSH3 0x51D PUSH1 0x0 CODECOPY PUSH1 0x0 RETURN INVALID PUSH1 0x80 PUSH1 0x40 MSTORE PUSH1 0x4 CALLDATASIZE LT PUSH2 0x181 JUMPI PUSH1 0x0 CALLDATALOAD PUSH1 0xE0 SHR DUP1 PUSH4 0x70A08231 GT PUSH2 0xD1 JUMPI DUP1 PUSH4 0x95D89B41 GT PUSH2 0x8A JUMPI DUP1 PUSH4 0xA9059CBB GT PUSH2 0x64 JUMPI DUP1 PUSH4 0xA9059CBB EQ PUSH2 0x54F JUMPI DUP1 PUSH4 0xC392F766 EQ PUSH2 0x58C JUMPI DUP1 PUSH4 0xDD62ED3E EQ PUSH2 0x5B7 JUMPI DUP1 PUSH4 0xF2FDE38B EQ PUSH2 0x5F4 JUMPI PUSH2 0x181 JUMP JUMPDEST DUP1 PUSH4 0x95D89B41 EQ PUSH2 0x4BE JUMPI DUP1 PUSH4 0xA457C2D7 EQ PUSH2 0x4E9 JUMPI DUP1 PUSH4 0xA694FC3A EQ PUSH2 0x526 JUMPI PUSH2 0x181 JUMP JUMPDEST DUP1 PUSH4 0x70A08231 EQ PUSH2 0x3AC JUMPI DUP1 PUSH4 0x715018A6 EQ PUSH2 0x3E9 JUMPI DUP1 PUSH4 0x79CC6790 EQ PUSH2 0x400 JUMPI DUP1 PUSH4 0x7FF9B596 EQ PUSH2 0x429 JUMPI DUP1 PUSH4 0x8DA5CB5B EQ PUSH2 0x454 JUMPI DUP1 PUSH4 0x94EECB50 EQ PUSH2 0x47F JUMPI PUSH2 0x181 JUMP JUMPDEST DUP1 PUSH4 0x3610724E GT PUSH2 0x13E JUMPI DUP1 PUSH4 0x42966C68 GT PUSH2 0x118 JUMPI DUP1 PUSH4 0x42966C68 EQ PUSH2 0x31A JUMPI DUP1 PUSH4 0x47F07A8E EQ PUSH2 0x343 JUMPI DUP1 PUSH4 0x6A61E5FC EQ PUSH2 0x35A JUMPI DUP1 PUSH4 0x6C11BCD3 EQ PUSH2 0x383 JUMPI PUSH2 0x181 JUMP JUMPDEST DUP1 PUSH4 0x3610724E EQ PUSH2 0x2AA JUMPI DUP1 PUSH4 0x372500AB EQ PUSH2 0x2C6 JUMPI DUP1 PUSH4 0x39509351 EQ PUSH2 0x2DD JUMPI PUSH2 0x181 JUMP JUMPDEST DUP1 PUSH4 0x6FDDE03 EQ PUSH2 0x186 JUMPI DUP1 PUSH4 0x95EA7B3 EQ PUSH2 0x1B1 JUMPI DUP1 PUSH4 0x18160DDD EQ PUSH2 0x1EE JUMPI DUP1 PUSH4 0x23B872DD EQ PUSH2 0x219 JUMPI DUP1 PUSH4 0x2E17DE78 EQ PUSH2 0x256 JUMPI DUP1 PUSH4 0x313CE567 EQ PUSH2 0x27F JUMPI JUMPDEST PUSH1 0x0 DUP1 REVERT JUMPDEST CALLVALUE DUP1 ISZERO PUSH2 0x192 JUMPI PUSH1 0x0 DUP1 REVERT JUMPDEST POP PUSH2 0x19B PUSH2 0x61D JUMP JUMPDEST PUSH1 0x40 MLOAD PUSH2 0x1A8 SWAP2 SWAP1 PUSH2 0x1F74 JUMP JUMPDEST PUSH1 0x40 MLOAD DUP1 SWAP2 SUB SWAP1 RETURN JUMPDEST CALLVALUE DUP1 ISZERO PUSH2 0x1BD JUMPI PUSH1 0x0 DUP1 REVERT JUMPDEST POP PUSH2 0x1D8 PUSH1 0x4 DUP1 CALLDATASIZE SUB DUP2 ADD SWAP1 PUSH2 0x1D3 SWAP2 SWAP1 PUSH2 0x202F JUMP JUMPDEST PUSH2 0x6AF JUMP JUMPDEST PUSH1 0x40 MLOAD PUSH2 0x1E5 SWAP2 SWAP1 PUSH2 0x208A JUMP JUMPDEST PUSH1 0x40 MLOAD DUP1 SWAP2 SUB SWAP1 RETURN JUMPDEST CALLVALUE DUP1 ISZERO PUSH2 0x1FA JUMPI PUSH1 0x0 DUP1 REVERT JUMPDEST POP PUSH2 0x203 PUSH2 0x6D2 JUMP JUMPDEST PUSH1 0x40 MLOAD PUSH2 0x210 SWAP2 SWAP1 PUSH2 0x20B4 JUMP JUMPDEST PUSH1 0x40 MLOAD DUP1 SWAP2 SUB SWAP1 RETURN JUMPDEST CALLVALUE DUP1 ISZERO PUSH2 0x225 JUMPI PUSH1 0x0 DUP1 REVERT JUMPDEST POP PUSH2 0x240 PUSH1 0x4 DUP1 CALLDATASIZE SUB DUP2 ADD SWAP1 PUSH2 0x23B SWAP2 SWAP1 PUSH2 0x20CF JUMP JUMPDEST PUSH2 0x6DC JUMP JUMPDEST PUSH1 0x40 MLOAD PUSH2 0x24D SWAP2 SWAP1 PUSH2 0x208A JUMP JUMPDEST PUSH1 0x40 MLOAD DUP1 SWAP2 SUB SWAP1 RETURN JUMPDEST CALLVALUE DUP1 ISZERO PUSH2 0x262 JUMPI PUSH1 0x0 DUP1 REVERT JUMPDEST POP PUSH2 0x27D PUSH1 0x4 DUP1 CALLDATASIZE SUB DUP2 ADD SWAP1 PUSH2 0x278 SWAP2 SWAP1 PUSH2 0x2122 JUMP JUMPDEST PUSH2 0x70B JUMP JUMPDEST STOP JUMPDEST CALLVALUE DUP1 ISZERO PUSH2 0x28B JUMPI PUSH1 0x0 DUP1 REVERT JUMPDEST POP PUSH2 0x294 PUSH2 0xA1B JUMP JUMPDEST PUSH1 0x40 MLOAD PUSH2 0x2A1 SWAP2 SWAP1 PUSH2 0x216B JUMP JUMPDEST PUSH1 0x40 MLOAD DUP1 SWAP2 SUB SWAP1 RETURN JUMPDEST PUSH2 0x2C4 PUSH1 0x4 DUP1 CALLDATASIZE SUB DUP2 ADD SWAP1 PUSH2 0x2BF SWAP2 SWAP1 PUSH2 0x2122 JUMP JUMPDEST PUSH2 0xA24 JUMP JUMPDEST STOP JUMPDEST CALLVALUE DUP1 ISZERO PUSH2 0x2D2 JUMPI PUSH1 0x0 DUP1 REVERT JUMPDEST POP PUSH2 0x2DB PUSH2 0xAF6 JUMP JUMPDEST STOP JUMPDEST CALLVALUE DUP1 ISZERO PUSH2 0x2E9 JUMPI PUSH1 0x0 DUP1 REVERT JUMPDEST POP PUSH2 0x304 PUSH1 0x4 DUP1 CALLDATASIZE SUB DUP2 ADD SWAP1 PUSH2 0x2FF SWAP2 SWAP1 PUSH2 0x202F JUMP JUMPDEST PUSH2 0xC57 JUMP JUMPDEST PUSH1 0x40 MLOAD PUSH2 0x311 SWAP2 SWAP1 PUSH2 0x208A JUMP JUMPDEST PUSH1 0x40 MLOAD DUP1 SWAP2 SUB SWAP1 RETURN JUMPDEST CALLVALUE DUP1 ISZERO PUSH2 0x326 JUMPI PUSH1 0x0 DUP1 REVERT JUMPDEST POP PUSH2 0x341 PUSH1 0x4 DUP1 CALLDATASIZE SUB DUP2 ADD SWAP1 PUSH2 0x33C SWAP2 SWAP1 PUSH2 0x2122 JUMP JUMPDEST PUSH2 0xC8E JUMP JUMPDEST STOP JUMPDEST CALLVALUE DUP1 ISZERO PUSH2 0x34F JUMPI PUSH1 0x0 DUP1 REVERT JUMPDEST POP PUSH2 0x358 PUSH2 0xCA2 JUMP JUMPDEST STOP JUMPDEST CALLVALUE DUP1 ISZERO PUSH2 0x366 JUMPI PUSH1 0x0 DUP1 REVERT JUMPDEST POP PUSH2 0x381 PUSH1 0x4 DUP1 CALLDATASIZE SUB DUP2 ADD SWAP1 PUSH2 0x37C SWAP2 SWAP1 PUSH2 0x2122 JUMP JUMPDEST PUSH2 0xD67 JUMP JUMPDEST STOP JUMPDEST CALLVALUE DUP1 ISZERO PUSH2 0x38F JUMPI PUSH1 0x0 DUP1 REVERT JUMPDEST POP PUSH2 0x3AA PUSH1 0x4 DUP1 CALLDATASIZE SUB DUP2 ADD SWAP1 PUSH2 0x3A5 SWAP2 SWAP1 PUSH2 0x2122 JUMP JUMPDEST PUSH2 0xD79 JUMP JUMPDEST STOP JUMPDEST CALLVALUE DUP1 ISZERO PUSH2 0x3B8 JUMPI PUSH1 0x0 DUP1 REVERT JUMPDEST POP PUSH2 0x3D3 PUSH1 0x4 DUP1 CALLDATASIZE SUB DUP2 ADD SWAP1 PUSH2 0x3CE SWAP2 SWAP1 PUSH2 0x2186 JUMP JUMPDEST PUSH2 0xF13 JUMP JUMPDEST PUSH1 0x40 MLOAD PUSH2 0x3E0 SWAP2 SWAP1 PUSH2 0x20B4 JUMP JUMPDEST PUSH1 0x40 MLOAD DUP1 SWAP2 SUB SWAP1 RETURN JUMPDEST CALLVALUE DUP1 ISZERO PUSH2 0x3F5 JUMPI PUSH1 0x0 DUP1 REVERT JUMPDEST POP PUSH2 0x3FE PUSH2 0xF5B JUMP JUMPDEST STOP JUMPDEST CALLVALUE DUP1 ISZERO PUSH2 0x40C JUMPI PUSH1 0x0 DUP1 REVERT JUMPDEST POP PUSH2 0x427 PUSH1 0x4 DUP1 CALLDATASIZE SUB DUP2 ADD SWAP1 PUSH2 0x422 SWAP2 SWAP1 PUSH2 0x202F JUMP JUMPDEST PUSH2 0xF6F JUMP JUMPDEST STOP JUMPDEST CALLVALUE DUP1 ISZERO PUSH2 0x435 JUMPI PUSH1 0x0 DUP1 REVERT JUMPDEST POP PUSH2 0x43E PUSH2 0xF8F JUMP JUMPDEST PUSH1 0x40 MLOAD PUSH2 0x44B SWAP2 SWAP1 PUSH2 0x20B4 JUMP JUMPDEST PUSH1 0x40 MLOAD DUP1 SWAP2 SUB SWAP1 RETURN JUMPDEST CALLVALUE DUP1 ISZERO PUSH2 0x460 JUMPI PUSH1 0x0 DUP1 REVERT JUMPDEST POP PUSH2 0x469 PUSH2 0xF95 JUMP JUMPDEST PUSH1 0x40 MLOAD PUSH2 0x476 SWAP2 SWAP1 PUSH2 0x21C2 JUMP JUMPDEST PUSH1 0x40 MLOAD DUP1 SWAP2 SUB SWAP1 RETURN JUMPDEST CALLVALUE DUP1 ISZERO PUSH2 0x48B JUMPI PUSH1 0x0 DUP1 REVERT JUMPDEST POP PUSH2 0x4A6 PUSH1 0x4 DUP1 CALLDATASIZE SUB DUP2 ADD SWAP1 PUSH2 0x4A1 SWAP2 SWAP1 PUSH2 0x2186 JUMP JUMPDEST PUSH2 0xFBF JUMP JUMPDEST PUSH1 0x40 MLOAD PUSH2 0x4B5 SWAP4 SWAP3 SWAP2 SWAP1 PUSH2 0x21DD JUMP JUMPDEST PUSH1 0x40 MLOAD DUP1 SWAP2 SUB SWAP1 RETURN JUMPDEST CALLVALUE DUP1 ISZERO PUSH2 0x4CA JUMPI PUSH1 0x0 DUP1 REVERT JUMPDEST POP PUSH2 0x4D3 PUSH2 0xFE9 JUMP JUMPDEST PUSH1 0x40 MLOAD PUSH2 0x4E0 SWAP2 SWAP1 PUSH2 0x1F74 JUMP JUMPDEST PUSH1 0x40 MLOAD DUP1 SWAP2 SUB SWAP1 RETURN JUMPDEST CALLVALUE DUP1 ISZERO PUSH2 0x4F5 JUMPI PUSH1 0x0 DUP1 REVERT JUMPDEST POP PUSH2 0x510 PUSH1 0x4 DUP1 CALLDATASIZE SUB DUP2 ADD SWAP1 PUSH2 0x50B SWAP2 SWAP1 PUSH2 0x202F JUMP JUMPDEST PUSH2 0x107B JUMP JUMPDEST PUSH1 0x40 MLOAD PUSH2 0x51D SWAP2 SWAP1 PUSH2 0x208A JUMP JUMPDEST PUSH1 0x40 MLOAD DUP1 SWAP2 SUB SWAP1 RETURN JUMPDEST CALLVALUE DUP1 ISZERO PUSH2 0x532 JUMPI PUSH1 0x0 DUP1 REVERT JUMPDEST POP PUSH2 0x54D PUSH1 0x4 DUP1 CALLDATASIZE SUB DUP2 ADD SWAP1 PUSH2 0x548 SWAP2 SWAP1 PUSH2 0x2122 JUMP JUMPDEST PUSH2 0x10F2 JUMP JUMPDEST STOP JUMPDEST CALLVALUE DUP1 ISZERO PUSH2 0x55B JUMPI PUSH1 0x0 DUP1 REVERT JUMPDEST POP PUSH2 0x576 PUSH1 0x4 DUP1 CALLDATASIZE SUB DUP2 ADD SWAP1 PUSH2 0x571 SWAP2 SWAP1 PUSH2 0x202F JUMP JUMPDEST PUSH2 0x12F1 JUMP JUMPDEST PUSH1 0x40 MLOAD PUSH2 0x583 SWAP2 SWAP1 PUSH2 0x208A JUMP JUMPDEST PUSH1 0x40 MLOAD DUP1 SWAP2 SUB SWAP1 RETURN JUMPDEST CALLVALUE DUP1 ISZERO PUSH2 0x598 JUMPI PUSH1 0x0 DUP1 REVERT JUMPDEST POP PUSH2 0x5A1 PUSH2 0x1314 JUMP JUMPDEST PUSH1 0x40 MLOAD PUSH2 0x5AE SWAP2 SWAP1 PUSH2 0x20B4 JUMP JUMPDEST PUSH1 0x40 MLOAD DUP1 SWAP2 SUB SWAP1 RETURN JUMPDEST CALLVALUE DUP1 ISZERO PUSH2 0x5C3 JUMPI PUSH1 0x0 DUP1 REVERT JUMPDEST POP PUSH2 0x5DE PUSH1 0x4 DUP1 CALLDATASIZE SUB DUP2 ADD SWAP1 PUSH2 0x5D9 SWAP2 SWAP1 PUSH2 0x2214 JUMP JUMPDEST PUSH2 0x131A JUMP JUMPDEST PUSH1 0x40 MLOAD PUSH2 0x5EB SWAP2 SWAP1 PUSH2 0x20B4 JUMP JUMPDEST PUSH1 0x40 MLOAD DUP1 SWAP2 SUB SWAP1 RETURN JUMPDEST CALLVALUE DUP1 ISZERO PUSH2 0x600 JUMPI PUSH1 0x0 DUP1 REVERT JUMPDEST POP PUSH2 0x61B PUSH1 0x4 DUP1 CALLDATASIZE SUB DUP2 ADD SWAP1 PUSH2 0x616 SWAP2 SWAP1 PUSH2 0x2186 JUMP JUMPDEST PUSH2 0x13A1 JUMP JUMPDEST STOP JUMPDEST PUSH1 0x60 PUSH1 0x3 DUP1 SLOAD PUSH2 0x62C SWAP1 PUSH2 0x2283 JUMP JUMPDEST DUP1 PUSH1 0x1F ADD PUSH1 0x20 DUP1 SWAP2 DIV MUL PUSH1 0x20 ADD PUSH1 0x40 MLOAD SWAP1 DUP2 ADD PUSH1 0x40 MSTORE DUP1 SWAP3 SWAP2 SWAP1 DUP2 DUP2 MSTORE PUSH1 0x20 ADD DUP3 DUP1 SLOAD PUSH2 0x658 SWAP1 PUSH2 0x2283 JUMP JUMPDEST DUP1 ISZERO PUSH2 0x6A5 JUMPI DUP1 PUSH1 0x1F LT PUSH2 0x67A JUMPI PUSH2 0x100 DUP1 DUP4 SLOAD DIV MUL DUP4 MSTORE SWAP2 PUSH1 0x20 ADD SWAP2 PUSH2 0x6A5 JUMP JUMPDEST DUP3 ADD SWAP2 SWAP1 PUSH1 0x0 MSTORE PUSH1 0x20 PUSH1 0x0 KECCAK256 SWAP1 JUMPDEST DUP2 SLOAD DUP2 MSTORE SWAP1 PUSH1 0x1 ADD SWAP1 PUSH1 0x20 ADD DUP1 DUP4 GT PUSH2 0x688 JUMPI DUP3 SWAP1 SUB PUSH1 0x1F AND DUP3 ADD SWAP2 JUMPDEST POP POP POP POP POP SWAP1 POP SWAP1 JUMP JUMPDEST PUSH1 0x0 DUP1 PUSH2 0x6BA PUSH2 0x1424 JUMP JUMPDEST SWAP1 POP PUSH2 0x6C7 DUP2 DUP6 DUP6 PUSH2 0x142C JUMP JUMPDEST PUSH1 0x1 SWAP2 POP POP SWAP3 SWAP2 POP POP JUMP JUMPDEST PUSH1 0x0 PUSH1 0x2 SLOAD SWAP1 POP SWAP1 JUMP JUMPDEST PUSH1 0x0 DUP1 PUSH2 0x6E7 PUSH2 0x1424 JUMP JUMPDEST SWAP1 POP PUSH2 0x6F4 DUP6 DUP3 DUP6 PUSH2 0x15F5 JUMP JUMPDEST PUSH2 0x6FF DUP6 DUP6 DUP6 PUSH2 0x1681 JUMP JUMPDEST PUSH1 0x1 SWAP2 POP POP SWAP4 SWAP3 POP POP POP JUMP JUMPDEST PUSH1 0x0 DUP2 GT PUSH2 0x74E JUMPI PUSH1 0x40 MLOAD PUSH32 0x8C379A000000000000000000000000000000000000000000000000000000000 DUP2 MSTORE PUSH1 0x4 ADD PUSH2 0x745 SWAP1 PUSH2 0x2326 JUMP JUMPDEST PUSH1 0x40 MLOAD DUP1 SWAP2 SUB SWAP1 REVERT JUMPDEST DUP1 PUSH1 0x8 PUSH1 0x0 CALLER PUSH20 0xFFFFFFFFFFFFFFFFFFFFFFFFFFFFFFFFFFFFFFFF AND PUSH20 0xFFFFFFFFFFFFFFFFFFFFFFFFFFFFFFFFFFFFFFFF AND DUP2 MSTORE PUSH1 0x20 ADD SWAP1 DUP2 MSTORE PUSH1 0x20 ADD PUSH1 0x0 KECCAK256 PUSH1 0x0 ADD SLOAD LT ISZERO PUSH2 0x7D3 JUMPI PUSH1 0x40 MLOAD PUSH32 0x8C379A000000000000000000000000000000000000000000000000000000000 DUP2 MSTORE PUSH1 0x4 ADD PUSH2 0x7CA SWAP1 PUSH2 0x2392 JUMP JUMPDEST PUSH1 0x40 MLOAD DUP1 SWAP2 SUB SWAP1 REVERT JUMPDEST PUSH2 0x7DC CALLER PUSH2 0x18F7 JUMP JUMPDEST DUP1 PUSH1 0x8 PUSH1 0x0 CALLER PUSH20 0xFFFFFFFFFFFFFFFFFFFFFFFFFFFFFFFFFFFFFFFF AND PUSH20 0xFFFFFFFFFFFFFFFFFFFFFFFFFFFFFFFFFFFFFFFF AND DUP2 MSTORE PUSH1 0x20 ADD SWAP1 DUP2 MSTORE PUSH1 0x20 ADD PUSH1 0x0 KECCAK256 PUSH1 0x0 ADD PUSH1 0x0 DUP3 DUP3 SLOAD PUSH2 0x82E SWAP2 SWAP1 PUSH2 0x23E1 JUMP JUMPDEST SWAP3 POP POP DUP2 SWAP1 SSTORE POP PUSH1 0x0 PUSH1 0x8 PUSH1 0x0 CALLER PUSH20 0xFFFFFFFFFFFFFFFFFFFFFFFFFFFFFFFFFFFFFFFF AND PUSH20 0xFFFFFFFFFFFFFFFFFFFFFFFFFFFFFFFFFFFFFFFF AND DUP2 MSTORE PUSH1 0x20 ADD SWAP1 DUP2 MSTORE PUSH1 0x20 ADD PUSH1 0x0 KECCAK256 PUSH1 0x0 ADD SLOAD SUB PUSH2 0xA0D JUMPI PUSH1 0x0 JUMPDEST PUSH1 0x9 DUP1 SLOAD SWAP1 POP DUP2 LT ISZERO PUSH2 0xA0B JUMPI CALLER PUSH20 0xFFFFFFFFFFFFFFFFFFFFFFFFFFFFFFFFFFFFFFFF AND PUSH1 0x9 DUP3 DUP2 SLOAD DUP2 LT PUSH2 0x8BA JUMPI PUSH2 0x8B9 PUSH2 0x2415 JUMP JUMPDEST JUMPDEST SWAP1 PUSH1 0x0 MSTORE PUSH1 0x20 PUSH1 0x0 KECCAK256 ADD PUSH1 0x0 SWAP1 SLOAD SWAP1 PUSH2 0x100 EXP SWAP1 DIV PUSH20 0xFFFFFFFFFFFFFFFFFFFFFFFFFFFFFFFFFFFFFFFF AND PUSH20 0xFFFFFFFFFFFFFFFFFFFFFFFFFFFFFFFFFFFFFFFF AND SUB PUSH2 0x9F8 JUMPI PUSH1 0x9 PUSH1 0x1 PUSH1 0x9 DUP1 SLOAD SWAP1 POP PUSH2 0x914 SWAP2 SWAP1 PUSH2 0x23E1 JUMP JUMPDEST DUP2 SLOAD DUP2 LT PUSH2 0x925 JUMPI PUSH2 0x924 PUSH2 0x2415 JUMP JUMPDEST JUMPDEST SWAP1 PUSH1 0x0 MSTORE PUSH1 0x20 PUSH1 0x0 KECCAK256 ADD PUSH1 0x0 SWAP1 SLOAD SWAP1 PUSH2 0x100 EXP SWAP1 DIV PUSH20 0xFFFFFFFFFFFFFFFFFFFFFFFFFFFFFFFFFFFFFFFF AND PUSH1 0x9 DUP3 DUP2 SLOAD DUP2 LT PUSH2 0x964 JUMPI PUSH2 0x963 PUSH2 0x2415 JUMP JUMPDEST JUMPDEST SWAP1 PUSH1 0x0 MSTORE PUSH1 0x20 PUSH1 0x0 KECCAK256 ADD PUSH1 0x0 PUSH2 0x100 EXP DUP2 SLOAD DUP2 PUSH20 0xFFFFFFFFFFFFFFFFFFFFFFFFFFFFFFFFFFFFFFFF MUL NOT AND SWAP1 DUP4 PUSH20 0xFFFFFFFFFFFFFFFFFFFFFFFFFFFFFFFFFFFFFFFF AND MUL OR SWAP1 SSTORE POP PUSH1 0x9 DUP1 SLOAD DUP1 PUSH2 0x9BE JUMPI PUSH2 0x9BD PUSH2 0x2444 JUMP JUMPDEST JUMPDEST PUSH1 0x1 SWAP1 SUB DUP2 DUP2 SWAP1 PUSH1 0x0 MSTORE PUSH1 0x20 PUSH1 0x0 KECCAK256 ADD PUSH1 0x0 PUSH2 0x100 EXP DUP2 SLOAD SWAP1 PUSH20 0xFFFFFFFFFFFFFFFFFFFFFFFFFFFFFFFFFFFFFFFF MUL NOT AND SWAP1 SSTORE SWAP1 SSTORE PUSH2 0xA0B JUMP JUMPDEST DUP1 DUP1 PUSH2 0xA03 SWAP1 PUSH2 0x2473 JUMP JUMPDEST SWAP2 POP POP PUSH2 0x882 JUMP JUMPDEST POP JUMPDEST PUSH2 0xA18 ADDRESS CALLER DUP4 PUSH2 0x1681 JUMP JUMPDEST POP JUMP JUMPDEST PUSH1 0x0 PUSH1 0x12 SWAP1 POP SWAP1 JUMP JUMPDEST PUSH1 0x6 SLOAD DUP2 PUSH2 0xA32 SWAP2 SWAP1 PUSH2 0x24BB JUMP JUMPDEST CALLVALUE LT ISZERO PUSH2 0xA74 JUMPI PUSH1 0x40 MLOAD PUSH32 0x8C379A000000000000000000000000000000000000000000000000000000000 DUP2 MSTORE PUSH1 0x4 ADD PUSH2 0xA6B SWAP1 PUSH2 0x2549 JUMP JUMPDEST PUSH1 0x40 MLOAD DUP1 SWAP2 SUB SWAP1 REVERT JUMPDEST PUSH2 0xA7E CALLER DUP3 PUSH2 0x1A73 JUMP JUMPDEST PUSH1 0x6 SLOAD DUP2 PUSH2 0xA8C SWAP2 SWAP1 PUSH2 0x24BB JUMP JUMPDEST CALLVALUE GT ISZERO PUSH2 0xAF3 JUMPI CALLER PUSH20 0xFFFFFFFFFFFFFFFFFFFFFFFFFFFFFFFFFFFFFFFF AND PUSH2 0x8FC PUSH1 0x6 SLOAD DUP4 PUSH2 0xABB SWAP2 SWAP1 PUSH2 0x24BB JUMP JUMPDEST CALLVALUE PUSH2 0xAC6 SWAP2 SWAP1 PUSH2 0x23E1 JUMP JUMPDEST SWAP1 DUP2 ISZERO MUL SWAP1 PUSH1 0x40 MLOAD PUSH1 0x0 PUSH1 0x40 MLOAD DUP1 DUP4 SUB DUP2 DUP6 DUP9 DUP9 CALL SWAP4 POP POP POP POP ISZERO DUP1 ISZERO PUSH2 0xAF1 JUMPI RETURNDATASIZE PUSH1 0x0 DUP1 RETURNDATACOPY RETURNDATASIZE PUSH1 0x0 REVERT JUMPDEST POP JUMPDEST POP JUMP JUMPDEST PUSH2 0xAFF CALLER PUSH2 0x18F7 JUMP JUMPDEST PUSH1 0x0 PUSH1 0x8 PUSH1 0x0 CALLER PUSH20 0xFFFFFFFFFFFFFFFFFFFFFFFFFFFFFFFFFFFFFFFF AND PUSH20 0xFFFFFFFFFFFFFFFFFFFFFFFFFFFFFFFFFFFFFFFF AND DUP2 MSTORE PUSH1 0x20 ADD SWAP1 DUP2 MSTORE PUSH1 0x20 ADD PUSH1 0x0 KECCAK256 PUSH1 0x2 ADD SLOAD GT PUSH2 0xB84 JUMPI PUSH1 0x40 MLOAD PUSH32 0x8C379A000000000000000000000000000000000000000000000000000000000 DUP2 MSTORE PUSH1 0x4 ADD PUSH2 0xB7B SWAP1 PUSH2 0x25B5 JUMP JUMPDEST PUSH1 0x40 MLOAD DUP1 SWAP2 SUB SWAP1 REVERT JUMPDEST CALLER PUSH20 0xFFFFFFFFFFFFFFFFFFFFFFFFFFFFFFFFFFFFFFFF AND PUSH2 0x8FC PUSH1 0x8 PUSH1 0x0 CALLER PUSH20 0xFFFFFFFFFFFFFFFFFFFFFFFFFFFFFFFFFFFFFFFF AND PUSH20 0xFFFFFFFFFFFFFFFFFFFFFFFFFFFFFFFFFFFFFFFF AND DUP2 MSTORE PUSH1 0x20 ADD SWAP1 DUP2 MSTORE PUSH1 0x20 ADD PUSH1 0x0 KECCAK256 PUSH1 0x2 ADD SLOAD SWAP1 DUP2 ISZERO MUL SWAP1 PUSH1 0x40 MLOAD PUSH1 0x0 PUSH1 0x40 MLOAD DUP1 DUP4 SUB DUP2 DUP6 DUP9 DUP9 CALL SWAP4 POP POP POP POP ISZERO DUP1 ISZERO PUSH2 0xC0C JUMPI RETURNDATASIZE PUSH1 0x0 DUP1 RETURNDATACOPY RETURNDATASIZE PUSH1 0x0 REVERT JUMPDEST POP PUSH1 0x0 PUSH1 0x8 PUSH1 0x0 CALLER PUSH20 0xFFFFFFFFFFFFFFFFFFFFFFFFFFFFFFFFFFFFFFFF AND PUSH20 0xFFFFFFFFFFFFFFFFFFFFFFFFFFFFFFFFFFFFFFFF AND DUP2 MSTORE PUSH1 0x20 ADD SWAP1 DUP2 MSTORE PUSH1 0x20 ADD PUSH1 0x0 KECCAK256 PUSH1 0x2 ADD DUP2 SWAP1 SSTORE POP JUMP JUMPDEST PUSH1 0x0 DUP1 PUSH2 0xC62 PUSH2 0x1424 JUMP JUMPDEST SWAP1 POP PUSH2 0xC83 DUP2 DUP6 DUP6 PUSH2 0xC74 DUP6 DUP10 PUSH2 0x131A JUMP JUMPDEST PUSH2 0xC7E SWAP2 SWAP1 PUSH2 0x25D5 JUMP JUMPDEST PUSH2 0x142C JUMP JUMPDEST PUSH1 0x1 SWAP2 POP POP SWAP3 SWAP2 POP POP JUMP JUMPDEST PUSH2 0xC9F PUSH2 0xC99 PUSH2 0x1424 JUMP JUMPDEST DUP3 PUSH2 0x1BC9 JUMP JUMPDEST POP JUMP JUMPDEST PUSH2 0xCAA PUSH2 0xF95 JUMP JUMPDEST PUSH20 0xFFFFFFFFFFFFFFFFFFFFFFFFFFFFFFFFFFFFFFFF AND CALLER PUSH20 0xFFFFFFFFFFFFFFFFFFFFFFFFFFFFFFFFFFFFFFFF AND EQ PUSH2 0xD17 JUMPI PUSH1 0x40 MLOAD PUSH32 0x8C379A000000000000000000000000000000000000000000000000000000000 DUP2 MSTORE PUSH1 0x4 ADD PUSH2 0xD0E SWAP1 PUSH2 0x267B JUMP JUMPDEST PUSH1 0x40 MLOAD DUP1 SWAP2 SUB SWAP1 REVERT JUMPDEST PUSH2 0xD1F PUSH2 0xF95 JUMP JUMPDEST PUSH20 0xFFFFFFFFFFFFFFFFFFFFFFFFFFFFFFFFFFFFFFFF AND PUSH2 0x8FC SELFBALANCE SWAP1 DUP2 ISZERO MUL SWAP1 PUSH1 0x40 MLOAD PUSH1 0x0 PUSH1 0x40 MLOAD DUP1 DUP4 SUB DUP2 DUP6 DUP9 DUP9 CALL SWAP4 POP POP POP POP ISZERO DUP1 ISZERO PUSH2 0xD64 JUMPI RETURNDATASIZE PUSH1 0x0 DUP1 RETURNDATACOPY RETURNDATASIZE PUSH1 0x0 REVERT JUMPDEST POP JUMP JUMPDEST PUSH2 0xD6F PUSH2 0x1D96 JUMP JUMPDEST DUP1 PUSH1 0x6 DUP2 SWAP1 SSTORE POP POP JUMP JUMPDEST DUP1 PUSH2 0xD83 CALLER PUSH2 0xF13 JUMP JUMPDEST LT ISZERO PUSH2 0xDC4 JUMPI PUSH1 0x40 MLOAD PUSH32 0x8C379A000000000000000000000000000000000000000000000000000000000 DUP2 MSTORE PUSH1 0x4 ADD PUSH2 0xDBB SWAP1 PUSH2 0x26E7 JUMP JUMPDEST PUSH1 0x40 MLOAD DUP1 SWAP2 SUB SWAP1 REVERT JUMPDEST PUSH1 0x0 PUSH1 0x8 PUSH1 0x0 CALLER PUSH20 0xFFFFFFFFFFFFFFFFFFFFFFFFFFFFFFFFFFFFFFFF AND PUSH20 0xFFFFFFFFFFFFFFFFFFFFFFFFFFFFFFFFFFFFFFFF AND DUP2 MSTORE PUSH1 0x20 ADD SWAP1 DUP2 MSTORE PUSH1 0x20 ADD PUSH1 0x0 KECCAK256 PUSH1 0x2 ADD SLOAD PUSH1 0x6 SLOAD DUP4 PUSH2 0xE17 SWAP2 SWAP1 PUSH2 0x24BB JUMP JUMPDEST PUSH2 0xE21 SWAP2 SWAP1 PUSH2 0x25D5 JUMP JUMPDEST SWAP1 POP PUSH1 0x8 PUSH1 0x0 CALLER PUSH20 0xFFFFFFFFFFFFFFFFFFFFFFFFFFFFFFFFFFFFFFFF AND PUSH20 0xFFFFFFFFFFFFFFFFFFFFFFFFFFFFFFFFFFFFFFFF AND DUP2 MSTORE PUSH1 0x20 ADD SWAP1 DUP2 MSTORE PUSH1 0x20 ADD PUSH1 0x0 KECCAK256 PUSH1 0x2 ADD SLOAD PUSH1 0x8 PUSH1 0x0 CALLER PUSH20 0xFFFFFFFFFFFFFFFFFFFFFFFFFFFFFFFFFFFFFFFF AND PUSH20 0xFFFFFFFFFFFFFFFFFFFFFFFFFFFFFFFFFFFFFFFF AND DUP2 MSTORE PUSH1 0x20 ADD SWAP1 DUP2 MSTORE PUSH1 0x20 ADD PUSH1 0x0 KECCAK256 PUSH1 0x2 ADD PUSH1 0x0 DUP3 DUP3 SLOAD PUSH2 0xEB7 SWAP2 SWAP1 PUSH2 0x23E1 JUMP JUMPDEST SWAP3 POP POP DUP2 SWAP1 SSTORE POP PUSH2 0xEC8 CALLER DUP4 PUSH2 0x1BC9 JUMP JUMPDEST CALLER PUSH20 0xFFFFFFFFFFFFFFFFFFFFFFFFFFFFFFFFFFFFFFFF AND PUSH2 0x8FC DUP3 SWAP1 DUP2 ISZERO MUL SWAP1 PUSH1 0x40 MLOAD PUSH1 0x0 PUSH1 0x40 MLOAD DUP1 DUP4 SUB DUP2 DUP6 DUP9 DUP9 CALL SWAP4 POP POP POP POP ISZERO DUP1 ISZERO PUSH2 0xF0E JUMPI RETURNDATASIZE PUSH1 0x0 DUP1 RETURNDATACOPY RETURNDATASIZE PUSH1 0x0 REVERT JUMPDEST POP POP POP JUMP JUMPDEST PUSH1 0x0 DUP1 PUSH1 0x0 DUP4 PUSH20 0xFFFFFFFFFFFFFFFFFFFFFFFFFFFFFFFFFFFFFFFF AND PUSH20 0xFFFFFFFFFFFFFFFFFFFFFFFFFFFFFFFFFFFFFFFF AND DUP2 MSTORE PUSH1 0x20 ADD SWAP1 DUP2 MSTORE PUSH1 0x20 ADD PUSH1 0x0 KECCAK256 SLOAD SWAP1 POP SWAP2 SWAP1 POP JUMP JUMPDEST PUSH2 0xF63 PUSH2 0x1D96 JUMP JUMPDEST PUSH2 0xF6D PUSH1 0x0 PUSH2 0x1E14 JUMP JUMPDEST JUMP JUMPDEST PUSH2 0xF81 DUP3 PUSH2 0xF7B PUSH2 0x1424 JUMP JUMPDEST DUP4 PUSH2 0x15F5 JUMP JUMPDEST PUSH2 0xF8B DUP3 DUP3 PUSH2 0x1BC9 JUMP JUMPDEST POP POP JUMP JUMPDEST PUSH1 0x6 SLOAD DUP2 JUMP JUMPDEST PUSH1 0x0 PUSH1 0x5 PUSH1 0x0 SWAP1 SLOAD SWAP1 PUSH2 0x100 EXP SWAP1 DIV PUSH20 0xFFFFFFFFFFFFFFFFFFFFFFFFFFFFFFFFFFFFFFFF AND SWAP1 POP SWAP1 JUMP JUMPDEST PUSH1 0x8 PUSH1 0x20 MSTORE DUP1 PUSH1 0x0 MSTORE PUSH1 0x40 PUSH1 0x0 KECCAK256 PUSH1 0x0 SWAP2 POP SWAP1 POP DUP1 PUSH1 0x0 ADD SLOAD SWAP1 DUP1 PUSH1 0x1 ADD SLOAD SWAP1 DUP1 PUSH1 0x2 ADD SLOAD SWAP1 POP DUP4 JUMP JUMPDEST PUSH1 0x60 PUSH1 0x4 DUP1 SLOAD PUSH2 0xFF8 SWAP1 PUSH2 0x2283 JUMP JUMPDEST DUP1 PUSH1 0x1F ADD PUSH1 0x20 DUP1 SWAP2 DIV MUL PUSH1 0x20 ADD PUSH1 0x40 MLOAD SWAP1 DUP2 ADD PUSH1 0x40 MSTORE DUP1 SWAP3 SWAP2 SWAP1 DUP2 DUP2 MSTORE PUSH1 0x20 ADD DUP3 DUP1 SLOAD PUSH2 0x1024 SWAP1 PUSH2 0x2283 JUMP JUMPDEST DUP1 ISZERO PUSH2 0x1071 JUMPI DUP1 PUSH1 0x1F LT PUSH2 0x1046 JUMPI PUSH2 0x100 DUP1 DUP4 SLOAD DIV MUL DUP4 MSTORE SWAP2 PUSH1 0x20 ADD SWAP2 PUSH2 0x1071 JUMP JUMPDEST DUP3 ADD SWAP2 SWAP1 PUSH1 0x0 MSTORE PUSH1 0x20 PUSH1 0x0 KECCAK256 SWAP1 JUMPDEST DUP2 SLOAD DUP2 MSTORE SWAP1 PUSH1 0x1 ADD SWAP1 PUSH1 0x20 ADD DUP1 DUP4 GT PUSH2 0x1054 JUMPI DUP3 SWAP1 SUB PUSH1 0x1F AND DUP3 ADD SWAP2 JUMPDEST POP POP POP POP POP SWAP1 POP SWAP1 JUMP JUMPDEST PUSH1 0x0 DUP1 PUSH2 0x1086 PUSH2 0x1424 JUMP JUMPDEST SWAP1 POP PUSH1 0x0 PUSH2 0x1094 DUP3 DUP7 PUSH2 0x131A JUMP JUMPDEST SWAP1 POP DUP4 DUP2 LT ISZERO PUSH2 0x10D9 JUMPI PUSH1 0x40 MLOAD PUSH32 0x8C379A000000000000000000000000000000000000000000000000000000000 DUP2 MSTORE PUSH1 0x4 ADD PUSH2 0x10D0 SWAP1 PUSH2 0x2779 JUMP JUMPDEST PUSH1 0x40 MLOAD DUP1 SWAP2 SUB SWAP1 REVERT JUMPDEST PUSH2 0x10E6 DUP3 DUP7 DUP7 DUP5 SUB PUSH2 0x142C JUMP JUMPDEST PUSH1 0x1 SWAP3 POP POP POP SWAP3 SWAP2 POP POP JUMP JUMPDEST PUSH1 0x0 DUP2 GT PUSH2 0x1135 JUMPI PUSH1 0x40 MLOAD PUSH32 0x8C379A000000000000000000000000000000000000000000000000000000000 DUP2 MSTORE PUSH1 0x4 ADD PUSH2 0x112C SWAP1 PUSH2 0x27E5 JUMP JUMPDEST PUSH1 0x40 MLOAD DUP1 SWAP2 SUB SWAP1 REVERT JUMPDEST DUP1 PUSH2 0x113F CALLER PUSH2 0xF13 JUMP JUMPDEST LT ISZERO PUSH2 0x1180 JUMPI PUSH1 0x40 MLOAD PUSH32 0x8C379A000000000000000000000000000000000000000000000000000000000 DUP2 MSTORE PUSH1 0x4 ADD PUSH2 0x1177 SWAP1 PUSH2 0x2877 JUMP JUMPDEST PUSH1 0x40 MLOAD DUP1 SWAP2 SUB SWAP1 REVERT JUMPDEST PUSH1 0x0 TIMESTAMP SWAP1 POP PUSH1 0x0 PUSH1 0x8 PUSH1 0x0 CALLER PUSH20 0xFFFFFFFFFFFFFFFFFFFFFFFFFFFFFFFFFFFFFFFF AND PUSH20 0xFFFFFFFFFFFFFFFFFFFFFFFFFFFFFFFFFFFFFFFF AND DUP2 MSTORE PUSH1 0x20 ADD SWAP1 DUP2 MSTORE PUSH1 0x20 ADD PUSH1 0x0 KECCAK256 PUSH1 0x0 ADD SLOAD GT ISZERO PUSH2 0x11DE JUMPI PUSH2 0x11D9 CALLER PUSH2 0x18F7 JUMP JUMPDEST PUSH2 0x1242 JUMP JUMPDEST PUSH1 0x9 CALLER SWAP1 DUP1 PUSH1 0x1 DUP2 SLOAD ADD DUP1 DUP3 SSTORE DUP1 SWAP2 POP POP PUSH1 0x1 SWAP1 SUB SWAP1 PUSH1 0x0 MSTORE PUSH1 0x20 PUSH1 0x0 KECCAK256 ADD PUSH1 0x0 SWAP1 SWAP2 SWAP1 SWAP2 SWAP1 SWAP2 PUSH2 0x100 EXP DUP2 SLOAD DUP2 PUSH20 0xFFFFFFFFFFFFFFFFFFFFFFFFFFFFFFFFFFFFFFFF MUL NOT AND SWAP1 DUP4 PUSH20 0xFFFFFFFFFFFFFFFFFFFFFFFFFFFFFFFFFFFFFFFF AND MUL OR SWAP1 SSTORE POP JUMPDEST PUSH2 0x124D CALLER ADDRESS DUP5 PUSH2 0x1681 JUMP JUMPDEST DUP2 PUSH1 0x8 PUSH1 0x0 CALLER PUSH20 0xFFFFFFFFFFFFFFFFFFFFFFFFFFFFFFFFFFFFFFFF AND PUSH20 0xFFFFFFFFFFFFFFFFFFFFFFFFFFFFFFFFFFFFFFFF AND DUP2 MSTORE PUSH1 0x20 ADD SWAP1 DUP2 MSTORE PUSH1 0x20 ADD PUSH1 0x0 KECCAK256 PUSH1 0x0 ADD PUSH1 0x0 DUP3 DUP3 SLOAD PUSH2 0x129F SWAP2 SWAP1 PUSH2 0x25D5 JUMP JUMPDEST SWAP3 POP POP DUP2 SWAP1 SSTORE POP DUP1 PUSH1 0x8 PUSH1 0x0 CALLER PUSH20 0xFFFFFFFFFFFFFFFFFFFFFFFFFFFFFFFFFFFFFFFF AND PUSH20 0xFFFFFFFFFFFFFFFFFFFFFFFFFFFFFFFFFFFFFFFF AND DUP2 MSTORE PUSH1 0x20 ADD SWAP1 DUP2 MSTORE PUSH1 0x20 ADD PUSH1 0x0 KECCAK256 PUSH1 0x1 ADD DUP2 SWAP1 SSTORE POP POP POP JUMP JUMPDEST PUSH1 0x0 DUP1 PUSH2 0x12FC PUSH2 0x1424 JUMP JUMPDEST SWAP1 POP PUSH2 0x1309 DUP2 DUP6 DUP6 PUSH2 0x1681 JUMP JUMPDEST PUSH1 0x1 SWAP2 POP POP SWAP3 SWAP2 POP POP JUMP JUMPDEST PUSH1 0x7 SLOAD DUP2 JUMP JUMPDEST PUSH1 0x0 PUSH1 0x1 PUSH1 0x0 DUP5 PUSH20 0xFFFFFFFFFFFFFFFFFFFFFFFFFFFFFFFFFFFFFFFF AND PUSH20 0xFFFFFFFFFFFFFFFFFFFFFFFFFFFFFFFFFFFFFFFF AND DUP2 MSTORE PUSH1 0x20 ADD SWAP1 DUP2 MSTORE PUSH1 0x20 ADD PUSH1 0x0 KECCAK256 PUSH1 0x0 DUP4 PUSH20 0xFFFFFFFFFFFFFFFFFFFFFFFFFFFFFFFFFFFFFFFF AND PUSH20 0xFFFFFFFFFFFFFFFFFFFFFFFFFFFFFFFFFFFFFFFF AND DUP2 MSTORE PUSH1 0x20 ADD SWAP1 DUP2 MSTORE PUSH1 0x20 ADD PUSH1 0x0 KECCAK256 SLOAD SWAP1 POP SWAP3 SWAP2 POP POP JUMP JUMPDEST PUSH2 0x13A9 PUSH2 0x1D96 JUMP JUMPDEST PUSH1 0x0 PUSH20 0xFFFFFFFFFFFFFFFFFFFFFFFFFFFFFFFFFFFFFFFF AND DUP2 PUSH20 0xFFFFFFFFFFFFFFFFFFFFFFFFFFFFFFFFFFFFFFFF AND SUB PUSH2 0x1418 JUMPI PUSH1 0x40 MLOAD PUSH32 0x8C379A000000000000000000000000000000000000000000000000000000000 DUP2 MSTORE PUSH1 0x4 ADD PUSH2 0x140F SWAP1 PUSH2 0x2909 JUMP JUMPDEST PUSH1 0x40 MLOAD DUP1 SWAP2 SUB SWAP1 REVERT JUMPDEST PUSH2 0x1421 DUP2 PUSH2 0x1E14 JUMP JUMPDEST POP JUMP JUMPDEST PUSH1 0x0 CALLER SWAP1 POP SWAP1 JUMP JUMPDEST PUSH1 0x0 PUSH20 0xFFFFFFFFFFFFFFFFFFFFFFFFFFFFFFFFFFFFFFFF AND DUP4 PUSH20 0xFFFFFFFFFFFFFFFFFFFFFFFFFFFFFFFFFFFFFFFF AND SUB PUSH2 0x149B JUMPI PUSH1 0x40 MLOAD PUSH32 0x8C379A000000000000000000000000000000000000000000000000000000000 DUP2 MSTORE PUSH1 0x4 ADD PUSH2 0x1492 SWAP1 PUSH2 0x299B JUMP JUMPDEST PUSH1 0x40 MLOAD DUP1 SWAP2 SUB SWAP1 REVERT JUMPDEST PUSH1 0x0 PUSH20 0xFFFFFFFFFFFFFFFFFFFFFFFFFFFFFFFFFFFFFFFF AND DUP3 PUSH20 0xFFFFFFFFFFFFFFFFFFFFFFFFFFFFFFFFFFFFFFFF AND SUB PUSH2 0x150A JUMPI PUSH1 0x40 MLOAD PUSH32 0x8C379A000000000000000000000000000000000000000000000000000000000 DUP2 MSTORE PUSH1 0x4 ADD PUSH2 0x1501 SWAP1 PUSH2 0x2A2D JUMP JUMPDEST PUSH1 0x40 MLOAD DUP1 SWAP2 SUB SWAP1 REVERT JUMPDEST DUP1 PUSH1 0x1 PUSH1 0x0 DUP6 PUSH20 0xFFFFFFFFFFFFFFFFFFFFFFFFFFFFFFFFFFFFFFFF AND PUSH20 0xFFFFFFFFFFFFFFFFFFFFFFFFFFFFFFFFFFFFFFFF AND DUP2 MSTORE PUSH1 0x20 ADD SWAP1 DUP2 MSTORE PUSH1 0x20 ADD PUSH1 0x0 KECCAK256 PUSH1 0x0 DUP5 PUSH20 0xFFFFFFFFFFFFFFFFFFFFFFFFFFFFFFFFFFFFFFFF AND PUSH20 0xFFFFFFFFFFFFFFFFFFFFFFFFFFFFFFFFFFFFFFFF AND DUP2 MSTORE PUSH1 0x20 ADD SWAP1 DUP2 MSTORE PUSH1 0x20 ADD PUSH1 0x0 KECCAK256 DUP2 SWAP1 SSTORE POP DUP2 PUSH20 0xFFFFFFFFFFFFFFFFFFFFFFFFFFFFFFFFFFFFFFFF AND DUP4 PUSH20 0xFFFFFFFFFFFFFFFFFFFFFFFFFFFFFFFFFFFFFFFF AND PUSH32 0x8C5BE1E5EBEC7D5BD14F71427D1E84F3DD0314C0F7B2291E5B200AC8C7C3B925 DUP4 PUSH1 0x40 MLOAD PUSH2 0x15E8 SWAP2 SWAP1 PUSH2 0x20B4 JUMP JUMPDEST PUSH1 0x40 MLOAD DUP1 SWAP2 SUB SWAP1 LOG3 POP POP POP JUMP JUMPDEST PUSH1 0x0 PUSH2 0x1601 DUP5 DUP5 PUSH2 0x131A JUMP JUMPDEST SWAP1 POP PUSH32 0xFFFFFFFFFFFFFFFFFFFFFFFFFFFFFFFFFFFFFFFFFFFFFFFFFFFFFFFFFFFFFFFF DUP2 EQ PUSH2 0x167B JUMPI DUP2 DUP2 LT ISZERO PUSH2 0x166D JUMPI PUSH1 0x40 MLOAD PUSH32 0x8C379A000000000000000000000000000000000000000000000000000000000 DUP2 MSTORE PUSH1 0x4 ADD PUSH2 0x1664 SWAP1 PUSH2 0x2A99 JUMP JUMPDEST PUSH1 0x40 MLOAD DUP1 SWAP2 SUB SWAP1 REVERT JUMPDEST PUSH2 0x167A DUP5 DUP5 DUP5 DUP5 SUB PUSH2 0x142C JUMP JUMPDEST JUMPDEST POP POP POP POP JUMP JUMPDEST PUSH1 0x0 PUSH20 0xFFFFFFFFFFFFFFFFFFFFFFFFFFFFFFFFFFFFFFFF AND DUP4 PUSH20 0xFFFFFFFFFFFFFFFFFFFFFFFFFFFFFFFFFFFFFFFF AND SUB PUSH2 0x16F0 JUMPI PUSH1 0x40 MLOAD PUSH32 0x8C379A000000000000000000000000000000000000000000000000000000000 DUP2 MSTORE PUSH1 0x4 ADD PUSH2 0x16E7 SWAP1 PUSH2 0x2B2B JUMP JUMPDEST PUSH1 0x40 MLOAD DUP1 SWAP2 SUB SWAP1 REVERT JUMPDEST PUSH1 0x0 PUSH20 0xFFFFFFFFFFFFFFFFFFFFFFFFFFFFFFFFFFFFFFFF AND DUP3 PUSH20 0xFFFFFFFFFFFFFFFFFFFFFFFFFFFFFFFFFFFFFFFF AND SUB PUSH2 0x175F JUMPI PUSH1 0x40 MLOAD PUSH32 0x8C379A000000000000000000000000000000000000000000000000000000000 DUP2 MSTORE PUSH1 0x4 ADD PUSH2 0x1756 SWAP1 PUSH2 0x2BBD JUMP JUMPDEST PUSH1 0x40 MLOAD DUP1 SWAP2 SUB SWAP1 REVERT JUMPDEST PUSH2 0x176A DUP4 DUP4 DUP4 PUSH2 0x1EDA JUMP JUMPDEST PUSH1 0x0 DUP1 PUSH1 0x0 DUP6 PUSH20 0xFFFFFFFFFFFFFFFFFFFFFFFFFFFFFFFFFFFFFFFF AND PUSH20 0xFFFFFFFFFFFFFFFFFFFFFFFFFFFFFFFFFFFFFFFF AND DUP2 MSTORE PUSH1 0x20 ADD SWAP1 DUP2 MSTORE PUSH1 0x20 ADD PUSH1 0x0 KECCAK256 SLOAD SWAP1 POP DUP2 DUP2 LT ISZERO PUSH2 0x17F0 JUMPI PUSH1 0x40 MLOAD PUSH32 0x8C379A000000000000000000000000000000000000000000000000000000000 DUP2 MSTORE PUSH1 0x4 ADD PUSH2 0x17E7 SWAP1 PUSH2 0x2C4F JUMP JUMPDEST PUSH1 0x40 MLOAD DUP1 SWAP2 SUB SWAP1 REVERT JUMPDEST DUP2 DUP2 SUB PUSH1 0x0 DUP1 DUP7 PUSH20 0xFFFFFFFFFFFFFFFFFFFFFFFFFFFFFFFFFFFFFFFF AND PUSH20 0xFFFFFFFFFFFFFFFFFFFFFFFFFFFFFFFFFFFFFFFF AND DUP2 MSTORE PUSH1 0x20 ADD SWAP1 DUP2 MSTORE PUSH1 0x20 ADD PUSH1 0x0 KECCAK256 DUP2 SWAP1 SSTORE POP DUP2 PUSH1 0x0 DUP1 DUP6 PUSH20 0xFFFFFFFFFFFFFFFFFFFFFFFFFFFFFFFFFFFFFFFF AND PUSH20 0xFFFFFFFFFFFFFFFFFFFFFFFFFFFFFFFFFFFFFFFF AND DUP2 MSTORE PUSH1 0x20 ADD SWAP1 DUP2 MSTORE PUSH1 0x20 ADD PUSH1 0x0 KECCAK256 PUSH1 0x0 DUP3 DUP3 SLOAD ADD SWAP3 POP POP DUP2 SWAP1 SSTORE POP DUP3 PUSH20 0xFFFFFFFFFFFFFFFFFFFFFFFFFFFFFFFFFFFFFFFF AND DUP5 PUSH20 0xFFFFFFFFFFFFFFFFFFFFFFFFFFFFFFFFFFFFFFFF AND PUSH32 0xDDF252AD1BE2C89B69C2B068FC378DAA952BA7F163C4A11628F55A4DF523B3EF DUP5 PUSH1 0x40 MLOAD PUSH2 0x18DE SWAP2 SWAP1 PUSH2 0x20B4 JUMP JUMPDEST PUSH1 0x40 MLOAD DUP1 SWAP2 SUB SWAP1 LOG3 PUSH2 0x18F1 DUP5 DUP5 DUP5 PUSH2 0x1EDF JUMP JUMPDEST POP POP POP POP JUMP JUMPDEST PUSH1 0x0 TIMESTAMP SWAP1 POP PUSH1 0x0 PUSH1 0x3C PUSH1 0x8 PUSH1 0x0 DUP6 PUSH20 0xFFFFFFFFFFFFFFFFFFFFFFFFFFFFFFFFFFFFFFFF AND PUSH20 0xFFFFFFFFFFFFFFFFFFFFFFFFFFFFFFFFFFFFFFFF AND DUP2 MSTORE PUSH1 0x20 ADD SWAP1 DUP2 MSTORE PUSH1 0x20 ADD PUSH1 0x0 KECCAK256 PUSH1 0x1 ADD SLOAD DUP4 PUSH2 0x194E SWAP2 SWAP1 PUSH2 0x23E1 JUMP JUMPDEST PUSH2 0x1958 SWAP2 SWAP1 PUSH2 0x2C9E JUMP JUMPDEST SWAP1 POP PUSH2 0x1770 PUSH1 0x6 SLOAD DUP3 PUSH1 0x7 SLOAD PUSH1 0x8 PUSH1 0x0 DUP9 PUSH20 0xFFFFFFFFFFFFFFFFFFFFFFFFFFFFFFFFFFFFFFFF AND PUSH20 0xFFFFFFFFFFFFFFFFFFFFFFFFFFFFFFFFFFFFFFFF AND DUP2 MSTORE PUSH1 0x20 ADD SWAP1 DUP2 MSTORE PUSH1 0x20 ADD PUSH1 0x0 KECCAK256 PUSH1 0x0 ADD SLOAD PUSH2 0x19B1 SWAP2 SWAP1 PUSH2 0x24BB JUMP JUMPDEST PUSH2 0x19BB SWAP2 SWAP1 PUSH2 0x24BB JUMP JUMPDEST PUSH2 0x19C5 SWAP2 SWAP1 PUSH2 0x24BB JUMP JUMPDEST PUSH2 0x19CF SWAP2 SWAP1 PUSH2 0x2C9E JUMP JUMPDEST PUSH1 0x8 PUSH1 0x0 DUP6 PUSH20 0xFFFFFFFFFFFFFFFFFFFFFFFFFFFFFFFFFFFFFFFF AND PUSH20 0xFFFFFFFFFFFFFFFFFFFFFFFFFFFFFFFFFFFFFFFF AND DUP2 MSTORE PUSH1 0x20 ADD SWAP1 DUP2 MSTORE PUSH1 0x20 ADD PUSH1 0x0 KECCAK256 PUSH1 0x2 ADD PUSH1 0x0 DUP3 DUP3 SLOAD PUSH2 0x1A20 SWAP2 SWAP1 PUSH2 0x25D5 JUMP JUMPDEST SWAP3 POP POP DUP2 SWAP1 SSTORE POP DUP2 PUSH1 0x8 PUSH1 0x0 DUP6 PUSH20 0xFFFFFFFFFFFFFFFFFFFFFFFFFFFFFFFFFFFFFFFF AND PUSH20 0xFFFFFFFFFFFFFFFFFFFFFFFFFFFFFFFFFFFFFFFF AND DUP2 MSTORE PUSH1 0x20 ADD SWAP1 DUP2 MSTORE PUSH1 0x20 ADD PUSH1 0x0 KECCAK256 PUSH1 0x1 ADD DUP2 SWAP1 SSTORE POP POP POP POP JUMP JUMPDEST PUSH1 0x0 PUSH20 0xFFFFFFFFFFFFFFFFFFFFFFFFFFFFFFFFFFFFFFFF AND DUP3 PUSH20 0xFFFFFFFFFFFFFFFFFFFFFFFFFFFFFFFFFFFFFFFF AND SUB PUSH2 0x1AE2 JUMPI PUSH1 0x40 MLOAD PUSH32 0x8C379A000000000000000000000000000000000000000000000000000000000 DUP2 MSTORE PUSH1 0x4 ADD PUSH2 0x1AD9 SWAP1 PUSH2 0x2D1B JUMP JUMPDEST PUSH1 0x40 MLOAD DUP1 SWAP2 SUB SWAP1 REVERT JUMPDEST PUSH2 0x1AEE PUSH1 0x0 DUP4 DUP4 PUSH2 0x1EDA JUMP JUMPDEST DUP1 PUSH1 0x2 PUSH1 0x0 DUP3 DUP3 SLOAD PUSH2 0x1B00 SWAP2 SWAP1 PUSH2 0x25D5 JUMP JUMPDEST SWAP3 POP POP DUP2 SWAP1 SSTORE POP DUP1 PUSH1 0x0 DUP1 DUP5 PUSH20 0xFFFFFFFFFFFFFFFFFFFFFFFFFFFFFFFFFFFFFFFF AND PUSH20 0xFFFFFFFFFFFFFFFFFFFFFFFFFFFFFFFFFFFFFFFF AND DUP2 MSTORE PUSH1 0x20 ADD SWAP1 DUP2 MSTORE PUSH1 0x20 ADD PUSH1 0x0 KECCAK256 PUSH1 0x0 DUP3 DUP3 SLOAD ADD SWAP3 POP POP DUP2 SWAP1 SSTORE POP DUP2 PUSH20 0xFFFFFFFFFFFFFFFFFFFFFFFFFFFFFFFFFFFFFFFF AND PUSH1 0x0 PUSH20 0xFFFFFFFFFFFFFFFFFFFFFFFFFFFFFFFFFFFFFFFF AND PUSH32 0xDDF252AD1BE2C89B69C2B068FC378DAA952BA7F163C4A11628F55A4DF523B3EF DUP4 PUSH1 0x40 MLOAD PUSH2 0x1BB1 SWAP2 SWAP1 PUSH2 0x20B4 JUMP JUMPDEST PUSH1 0x40 MLOAD DUP1 SWAP2 SUB SWAP1 LOG3 PUSH2 0x1BC5 PUSH1 0x0 DUP4 DUP4 PUSH2 0x1EDF JUMP JUMPDEST POP POP JUMP JUMPDEST PUSH1 0x0 PUSH20 0xFFFFFFFFFFFFFFFFFFFFFFFFFFFFFFFFFFFFFFFF AND DUP3 PUSH20 0xFFFFFFFFFFFFFFFFFFFFFFFFFFFFFFFFFFFFFFFF AND SUB PUSH2 0x1C38 JUMPI PUSH1 0x40 MLOAD PUSH32 0x8C379A000000000000000000000000000000000000000000000000000000000 DUP2 MSTORE PUSH1 0x4 ADD PUSH2 0x1C2F SWAP1 PUSH2 0x2DAD JUMP JUMPDEST PUSH1 0x40 MLOAD DUP1 SWAP2 SUB SWAP1 REVERT JUMPDEST PUSH2 0x1C44 DUP3 PUSH1 0x0 DUP4 PUSH2 0x1EDA JUMP JUMPDEST PUSH1 0x0 DUP1 PUSH1 0x0 DUP5 PUSH20 0xFFFFFFFFFFFFFFFFFFFFFFFFFFFFFFFFFFFFFFFF AND PUSH20 0xFFFFFFFFFFFFFFFFFFFFFFFFFFFFFFFFFFFFFFFF AND DUP2 MSTORE PUSH1 0x20 ADD SWAP1 DUP2 MSTORE PUSH1 0x20 ADD PUSH1 0x0 KECCAK256 SLOAD SWAP1 POP DUP2 DUP2 LT ISZERO PUSH2 0x1CCA JUMPI PUSH1 0x40 MLOAD PUSH32 0x8C379A000000000000000000000000000000000000000000000000000000000 DUP2 MSTORE PUSH1 0x4 ADD PUSH2 0x1CC1 SWAP1 PUSH2 0x2E3F JUMP JUMPDEST PUSH1 0x40 MLOAD DUP1 SWAP2 SUB SWAP1 REVERT JUMPDEST DUP2 DUP2 SUB PUSH1 0x0 DUP1 DUP6 PUSH20 0xFFFFFFFFFFFFFFFFFFFFFFFFFFFFFFFFFFFFFFFF AND PUSH20 0xFFFFFFFFFFFFFFFFFFFFFFFFFFFFFFFFFFFFFFFF AND DUP2 MSTORE PUSH1 0x20 ADD SWAP1 DUP2 MSTORE PUSH1 0x20 ADD PUSH1 0x0 KECCAK256 DUP2 SWAP1 SSTORE POP DUP2 PUSH1 0x2 PUSH1 0x0 DUP3 DUP3 SLOAD SUB SWAP3 POP POP DUP2 SWAP1 SSTORE POP PUSH1 0x0 PUSH20 0xFFFFFFFFFFFFFFFFFFFFFFFFFFFFFFFFFFFFFFFF AND DUP4 PUSH20 0xFFFFFFFFFFFFFFFFFFFFFFFFFFFFFFFFFFFFFFFF AND PUSH32 0xDDF252AD1BE2C89B69C2B068FC378DAA952BA7F163C4A11628F55A4DF523B3EF DUP5 PUSH1 0x40 MLOAD PUSH2 0x1D7D SWAP2 SWAP1 PUSH2 0x20B4 JUMP JUMPDEST PUSH1 0x40 MLOAD DUP1 SWAP2 SUB SWAP1 LOG3 PUSH2 0x1D91 DUP4 PUSH1 0x0 DUP5 PUSH2 0x1EDF JUMP JUMPDEST POP POP POP JUMP JUMPDEST PUSH2 0x1D9E PUSH2 0x1424 JUMP JUMPDEST PUSH20 0xFFFFFFFFFFFFFFFFFFFFFFFFFFFFFFFFFFFFFFFF AND PUSH2 0x1DBC PUSH2 0xF95 JUMP JUMPDEST PUSH20 0xFFFFFFFFFFFFFFFFFFFFFFFFFFFFFFFFFFFFFFFF AND EQ PUSH2 0x1E12 JUMPI PUSH1 0x40 MLOAD PUSH32 0x8C379A000000000000000000000000000000000000000000000000000000000 DUP2 MSTORE PUSH1 0x4 ADD PUSH2 0x1E09 SWAP1 PUSH2 0x2EAB JUMP JUMPDEST PUSH1 0x40 MLOAD DUP1 SWAP2 SUB SWAP1 REVERT JUMPDEST JUMP JUMPDEST PUSH1 0x0 PUSH1 0x5 PUSH1 0x0 SWAP1 SLOAD SWAP1 PUSH2 0x100 EXP SWAP1 DIV PUSH20 0xFFFFFFFFFFFFFFFFFFFFFFFFFFFFFFFFFFFFFFFF AND SWAP1 POP DUP2 PUSH1 0x5 PUSH1 0x0 PUSH2 0x100 EXP DUP2 SLOAD DUP2 PUSH20 0xFFFFFFFFFFFFFFFFFFFFFFFFFFFFFFFFFFFFFFFF MUL NOT AND SWAP1 DUP4 PUSH20 0xFFFFFFFFFFFFFFFFFFFFFFFFFFFFFFFFFFFFFFFF AND MUL OR SWAP1 SSTORE POP DUP2 PUSH20 0xFFFFFFFFFFFFFFFFFFFFFFFFFFFFFFFFFFFFFFFF AND DUP2 PUSH20 0xFFFFFFFFFFFFFFFFFFFFFFFFFFFFFFFFFFFFFFFF AND PUSH32 0x8BE0079C531659141344CD1FD0A4F28419497F9722A3DAAFE3B4186F6B6457E0 PUSH1 0x40 MLOAD PUSH1 0x40 MLOAD DUP1 SWAP2 SUB SWAP1 LOG3 POP POP JUMP JUMPDEST POP POP POP JUMP JUMPDEST POP POP POP JUMP JUMPDEST PUSH1 0x0 DUP2 MLOAD SWAP1 POP SWAP2 SWAP1 POP JUMP JUMPDEST PUSH1 0x0 DUP3 DUP3 MSTORE PUSH1 0x20 DUP3 ADD SWAP1 POP SWAP3 SWAP2 POP POP JUMP JUMPDEST PUSH1 0x0 JUMPDEST DUP4 DUP2 LT ISZERO PUSH2 0x1F1E JUMPI DUP1 DUP3 ADD MLOAD DUP2 DUP5 ADD MSTORE PUSH1 0x20 DUP2 ADD SWAP1 POP PUSH2 0x1F03 JUMP JUMPDEST PUSH1 0x0 DUP5 DUP5 ADD MSTORE POP POP POP POP JUMP JUMPDEST PUSH1 0x0 PUSH1 0x1F NOT PUSH1 0x1F DUP4 ADD AND SWAP1 POP SWAP2 SWAP1 POP JUMP JUMPDEST PUSH1 0x0 PUSH2 0x1F46 DUP3 PUSH2 0x1EE4 JUMP JUMPDEST PUSH2 0x1F50 DUP2 DUP6 PUSH2 0x1EEF JUMP JUMPDEST SWAP4 POP PUSH2 0x1F60 DUP2 DUP6 PUSH1 0x20 DUP7 ADD PUSH2 0x1F00 JUMP JUMPDEST PUSH2 0x1F69 DUP2 PUSH2 0x1F2A JUMP JUMPDEST DUP5 ADD SWAP2 POP POP SWAP3 SWAP2 POP POP JUMP JUMPDEST PUSH1 0x0 PUSH1 0x20 DUP3 ADD SWAP1 POP DUP2 DUP2 SUB PUSH1 0x0 DUP4 ADD MSTORE PUSH2 0x1F8E DUP2 DUP5 PUSH2 0x1F3B JUMP JUMPDEST SWAP1 POP SWAP3 SWAP2 POP POP JUMP JUMPDEST PUSH1 0x0 DUP1 REVERT JUMPDEST PUSH1 0x0 PUSH20 0xFFFFFFFFFFFFFFFFFFFFFFFFFFFFFFFFFFFFFFFF DUP3 AND SWAP1 POP SWAP2 SWAP1 POP JUMP JUMPDEST PUSH1 0x0 PUSH2 0x1FC6 DUP3 PUSH2 0x1F9B JUMP JUMPDEST SWAP1 POP SWAP2 SWAP1 POP JUMP JUMPDEST PUSH2 0x1FD6 DUP2 PUSH2 0x1FBB JUMP JUMPDEST DUP2 EQ PUSH2 0x1FE1 JUMPI PUSH1 0x0 DUP1 REVERT JUMPDEST POP JUMP JUMPDEST PUSH1 0x0 DUP2 CALLDATALOAD SWAP1 POP PUSH2 0x1FF3 DUP2 PUSH2 0x1FCD JUMP JUMPDEST SWAP3 SWAP2 POP POP JUMP JUMPDEST PUSH1 0x0 DUP2 SWAP1 POP SWAP2 SWAP1 POP JUMP JUMPDEST PUSH2 0x200C DUP2 PUSH2 0x1FF9 JUMP JUMPDEST DUP2 EQ PUSH2 0x2017 JUMPI PUSH1 0x0 DUP1 REVERT JUMPDEST POP JUMP JUMPDEST PUSH1 0x0 DUP2 CALLDATALOAD SWAP1 POP PUSH2 0x2029 DUP2 PUSH2 0x2003 JUMP JUMPDEST SWAP3 SWAP2 POP POP JUMP JUMPDEST PUSH1 0x0 DUP1 PUSH1 0x40 DUP4 DUP6 SUB SLT ISZERO PUSH2 0x2046 JUMPI PUSH2 0x2045 PUSH2 0x1F96 JUMP JUMPDEST JUMPDEST PUSH1 0x0 PUSH2 0x2054 DUP6 DUP3 DUP7 ADD PUSH2 0x1FE4 JUMP JUMPDEST SWAP3 POP POP PUSH1 0x20 PUSH2 0x2065 DUP6 DUP3 DUP7 ADD PUSH2 0x201A JUMP JUMPDEST SWAP2 POP POP SWAP3 POP SWAP3 SWAP1 POP JUMP JUMPDEST PUSH1 0x0 DUP2 ISZERO ISZERO SWAP1 POP SWAP2 SWAP1 POP JUMP JUMPDEST PUSH2 0x2084 DUP2 PUSH2 0x206F JUMP JUMPDEST DUP3 MSTORE POP POP JUMP JUMPDEST PUSH1 0x0 PUSH1 0x20 DUP3 ADD SWAP1 POP PUSH2 0x209F PUSH1 0x0 DUP4 ADD DUP5 PUSH2 0x207B JUMP JUMPDEST SWAP3 SWAP2 POP POP JUMP JUMPDEST PUSH2 0x20AE DUP2 PUSH2 0x1FF9 JUMP JUMPDEST DUP3 MSTORE POP POP JUMP JUMPDEST PUSH1 0x0 PUSH1 0x20 DUP3 ADD SWAP1 POP PUSH2 0x20C9 PUSH1 0x0 DUP4 ADD DUP5 PUSH2 0x20A5 JUMP JUMPDEST SWAP3 SWAP2 POP POP JUMP JUMPDEST PUSH1 0x0 DUP1 PUSH1 0x0 PUSH1 0x60 DUP5 DUP7 SUB SLT ISZERO PUSH2 0x20E8 JUMPI PUSH2 0x20E7 PUSH2 0x1F96 JUMP JUMPDEST JUMPDEST PUSH1 0x0 PUSH2 0x20F6 DUP7 DUP3 DUP8 ADD PUSH2 0x1FE4 JUMP JUMPDEST SWAP4 POP POP PUSH1 0x20 PUSH2 0x2107 DUP7 DUP3 DUP8 ADD PUSH2 0x1FE4 JUMP JUMPDEST SWAP3 POP POP PUSH1 0x40 PUSH2 0x2118 DUP7 DUP3 DUP8 ADD PUSH2 0x201A JUMP JUMPDEST SWAP2 POP POP SWAP3 POP SWAP3 POP SWAP3 JUMP JUMPDEST PUSH1 0x0 PUSH1 0x20 DUP3 DUP5 SUB SLT ISZERO PUSH2 0x2138 JUMPI PUSH2 0x2137 PUSH2 0x1F96 JUMP JUMPDEST JUMPDEST PUSH1 0x0 PUSH2 0x2146 DUP5 DUP3 DUP6 ADD PUSH2 0x201A JUMP JUMPDEST SWAP2 POP POP SWAP3 SWAP2 POP POP JUMP JUMPDEST PUSH1 0x0 PUSH1 0xFF DUP3 AND SWAP1 POP SWAP2 SWAP1 POP JUMP JUMPDEST PUSH2 0x2165 DUP2 PUSH2 0x214F JUMP JUMPDEST DUP3 MSTORE POP POP JUMP JUMPDEST PUSH1 0x0 PUSH1 0x20 DUP3 ADD SWAP1 POP PUSH2 0x2180 PUSH1 0x0 DUP4 ADD DUP5 PUSH2 0x215C JUMP JUMPDEST SWAP3 SWAP2 POP POP JUMP JUMPDEST PUSH1 0x0 PUSH1 0x20 DUP3 DUP5 SUB SLT ISZERO PUSH2 0x219C JUMPI PUSH2 0x219B PUSH2 0x1F96 JUMP JUMPDEST JUMPDEST PUSH1 0x0 PUSH2 0x21AA DUP5 DUP3 DUP6 ADD PUSH2 0x1FE4 JUMP JUMPDEST SWAP2 POP POP SWAP3 SWAP2 POP POP JUMP JUMPDEST PUSH2 0x21BC DUP2 PUSH2 0x1FBB JUMP JUMPDEST DUP3 MSTORE POP POP JUMP JUMPDEST PUSH1 0x0 PUSH1 0x20 DUP3 ADD SWAP1 POP PUSH2 0x21D7 PUSH1 0x0 DUP4 ADD DUP5 PUSH2 0x21B3 JUMP JUMPDEST SWAP3 SWAP2 POP POP JUMP JUMPDEST PUSH1 0x0 PUSH1 0x60 DUP3 ADD SWAP1 POP PUSH2 0x21F2 PUSH1 0x0 DUP4 ADD DUP7 PUSH2 0x20A5 JUMP JUMPDEST PUSH2 0x21FF PUSH1 0x20 DUP4 ADD DUP6 PUSH2 0x20A5 JUMP JUMPDEST PUSH2 0x220C PUSH1 0x40 DUP4 ADD DUP5 PUSH2 0x20A5 JUMP JUMPDEST SWAP5 SWAP4 POP POP POP POP JUMP JUMPDEST PUSH1 0x0 DUP1 PUSH1 0x40 DUP4 DUP6 SUB SLT ISZERO PUSH2 0x222B JUMPI PUSH2 0x222A PUSH2 0x1F96 JUMP JUMPDEST JUMPDEST PUSH1 0x0 PUSH2 0x2239 DUP6 DUP3 DUP7 ADD PUSH2 0x1FE4 JUMP JUMPDEST SWAP3 POP POP PUSH1 0x20 PUSH2 0x224A DUP6 DUP3 DUP7 ADD PUSH2 0x1FE4 JUMP JUMPDEST SWAP2 POP POP SWAP3 POP SWAP3 SWAP1 POP JUMP JUMPDEST PUSH32 0x4E487B7100000000000000000000000000000000000000000000000000000000 PUSH1 0x0 MSTORE PUSH1 0x22 PUSH1 0x4 MSTORE PUSH1 0x24 PUSH1 0x0 REVERT JUMPDEST PUSH1 0x0 PUSH1 0x2 DUP3 DIV SWAP1 POP PUSH1 0x1 DUP3 AND DUP1 PUSH2 0x229B JUMPI PUSH1 0x7F DUP3 AND SWAP2 POP JUMPDEST PUSH1 0x20 DUP3 LT DUP2 SUB PUSH2 0x22AE JUMPI PUSH2 0x22AD PUSH2 0x2254 JUMP JUMPDEST JUMPDEST POP SWAP2 SWAP1 POP JUMP JUMPDEST PUSH32 0x4D75737420756E7374616B65206D6F7265207468616E207A65726F20746F6B65 PUSH1 0x0 DUP3 ADD MSTORE PUSH32 0x6E73000000000000000000000000000000000000000000000000000000000000 PUSH1 0x20 DUP3 ADD MSTORE POP JUMP JUMPDEST PUSH1 0x0 PUSH2 0x2310 PUSH1 0x22 DUP4 PUSH2 0x1EEF JUMP JUMPDEST SWAP2 POP PUSH2 0x231B DUP3 PUSH2 0x22B4 JUMP JUMPDEST PUSH1 0x40 DUP3 ADD SWAP1 POP SWAP2 SWAP1 POP JUMP JUMPDEST PUSH1 0x0 PUSH1 0x20 DUP3 ADD SWAP1 POP DUP2 DUP2 SUB PUSH1 0x0 DUP4 ADD MSTORE PUSH2 0x233F DUP2 PUSH2 0x2303 JUMP JUMPDEST SWAP1 POP SWAP2 SWAP1 POP JUMP JUMPDEST PUSH32 0x4E6F7420456E6F75676820546F6B656E7320546F20556E7374616B6500000000 PUSH1 0x0 DUP3 ADD MSTORE POP JUMP JUMPDEST PUSH1 0x0 PUSH2 0x237C PUSH1 0x1C DUP4 PUSH2 0x1EEF JUMP JUMPDEST SWAP2 POP PUSH2 0x2387 DUP3 PUSH2 0x2346 JUMP JUMPDEST PUSH1 0x20 DUP3 ADD SWAP1 POP SWAP2 SWAP1 POP JUMP JUMPDEST PUSH1 0x0 PUSH1 0x20 DUP3 ADD SWAP1 POP DUP2 DUP2 SUB PUSH1 0x0 DUP4 ADD MSTORE PUSH2 0x23AB DUP2 PUSH2 0x236F JUMP JUMPDEST SWAP1 POP SWAP2 SWAP1 POP JUMP JUMPDEST PUSH32 0x4E487B7100000000000000000000000000000000000000000000000000000000 PUSH1 0x0 MSTORE PUSH1 0x11 PUSH1 0x4 MSTORE PUSH1 0x24 PUSH1 0x0 REVERT JUMPDEST PUSH1 0x0 PUSH2 0x23EC DUP3 PUSH2 0x1FF9 JUMP JUMPDEST SWAP2 POP PUSH2 0x23F7 DUP4 PUSH2 0x1FF9 JUMP JUMPDEST SWAP3 POP DUP3 DUP3 SUB SWAP1 POP DUP2 DUP2 GT ISZERO PUSH2 0x240F JUMPI PUSH2 0x240E PUSH2 0x23B2 JUMP JUMPDEST JUMPDEST SWAP3 SWAP2 POP POP JUMP JUMPDEST PUSH32 0x4E487B7100000000000000000000000000000000000000000000000000000000 PUSH1 0x0 MSTORE PUSH1 0x32 PUSH1 0x4 MSTORE PUSH1 0x24 PUSH1 0x0 REVERT JUMPDEST PUSH32 0x4E487B7100000000000000000000000000000000000000000000000000000000 PUSH1 0x0 MSTORE PUSH1 0x31 PUSH1 0x4 MSTORE PUSH1 0x24 PUSH1 0x0 REVERT JUMPDEST PUSH1 0x0 PUSH2 0x247E DUP3 PUSH2 0x1FF9 JUMP JUMPDEST SWAP2 POP PUSH32 0xFFFFFFFFFFFFFFFFFFFFFFFFFFFFFFFFFFFFFFFFFFFFFFFFFFFFFFFFFFFFFFFF DUP3 SUB PUSH2 0x24B0 JUMPI PUSH2 0x24AF PUSH2 0x23B2 JUMP JUMPDEST JUMPDEST PUSH1 0x1 DUP3 ADD SWAP1 POP SWAP2 SWAP1 POP JUMP JUMPDEST PUSH1 0x0 PUSH2 0x24C6 DUP3 PUSH2 0x1FF9 JUMP JUMPDEST SWAP2 POP PUSH2 0x24D1 DUP4 PUSH2 0x1FF9 JUMP JUMPDEST SWAP3 POP DUP3 DUP3 MUL PUSH2 0x24DF DUP2 PUSH2 0x1FF9 JUMP JUMPDEST SWAP2 POP DUP3 DUP3 DIV DUP5 EQ DUP4 ISZERO OR PUSH2 0x24F6 JUMPI PUSH2 0x24F5 PUSH2 0x23B2 JUMP JUMPDEST JUMPDEST POP SWAP3 SWAP2 POP POP JUMP JUMPDEST PUSH32 0x496E73756666696369656E74206574686572732073656E740000000000000000 PUSH1 0x0 DUP3 ADD MSTORE POP JUMP JUMPDEST PUSH1 0x0 PUSH2 0x2533 PUSH1 0x18 DUP4 PUSH2 0x1EEF JUMP JUMPDEST SWAP2 POP PUSH2 0x253E DUP3 PUSH2 0x24FD JUMP JUMPDEST PUSH1 0x20 DUP3 ADD SWAP1 POP SWAP2 SWAP1 POP JUMP JUMPDEST PUSH1 0x0 PUSH1 0x20 DUP3 ADD SWAP1 POP DUP2 DUP2 SUB PUSH1 0x0 DUP4 ADD MSTORE PUSH2 0x2562 DUP2 PUSH2 0x2526 JUMP JUMPDEST SWAP1 POP SWAP2 SWAP1 POP JUMP JUMPDEST PUSH32 0x4E6F207265776172647320746F20636C61696D00000000000000000000000000 PUSH1 0x0 DUP3 ADD MSTORE POP JUMP JUMPDEST PUSH1 0x0 PUSH2 0x259F PUSH1 0x13 DUP4 PUSH2 0x1EEF JUMP JUMPDEST SWAP2 POP PUSH2 0x25AA DUP3 PUSH2 0x2569 JUMP JUMPDEST PUSH1 0x20 DUP3 ADD SWAP1 POP SWAP2 SWAP1 POP JUMP JUMPDEST PUSH1 0x0 PUSH1 0x20 DUP3 ADD SWAP1 POP DUP2 DUP2 SUB PUSH1 0x0 DUP4 ADD MSTORE PUSH2 0x25CE DUP2 PUSH2 0x2592 JUMP JUMPDEST SWAP1 POP SWAP2 SWAP1 POP JUMP JUMPDEST PUSH1 0x0 PUSH2 0x25E0 DUP3 PUSH2 0x1FF9 JUMP JUMPDEST SWAP2 POP PUSH2 0x25EB DUP4 PUSH2 0x1FF9 JUMP JUMPDEST SWAP3 POP DUP3 DUP3 ADD SWAP1 POP DUP1 DUP3 GT ISZERO PUSH2 0x2603 JUMPI PUSH2 0x2602 PUSH2 0x23B2 JUMP JUMPDEST JUMPDEST SWAP3 SWAP2 POP POP JUMP JUMPDEST PUSH32 0x4F6E6C7920746865206F776E65722063616E2063616C6C20746869732066756E PUSH1 0x0 DUP3 ADD MSTORE PUSH32 0x6374696F6E000000000000000000000000000000000000000000000000000000 PUSH1 0x20 DUP3 ADD MSTORE POP JUMP JUMPDEST PUSH1 0x0 PUSH2 0x2665 PUSH1 0x25 DUP4 PUSH2 0x1EEF JUMP JUMPDEST SWAP2 POP PUSH2 0x2670 DUP3 PUSH2 0x2609 JUMP JUMPDEST PUSH1 0x40 DUP3 ADD SWAP1 POP SWAP2 SWAP1 POP JUMP JUMPDEST PUSH1 0x0 PUSH1 0x20 DUP3 ADD SWAP1 POP DUP2 DUP2 SUB PUSH1 0x0 DUP4 ADD MSTORE PUSH2 0x2694 DUP2 PUSH2 0x2658 JUMP JUMPDEST SWAP1 POP SWAP2 SWAP1 POP JUMP JUMPDEST PUSH32 0x496E73756666696369656E7420746F6B656E7300000000000000000000000000 PUSH1 0x0 DUP3 ADD MSTORE POP JUMP JUMPDEST PUSH1 0x0 PUSH2 0x26D1 PUSH1 0x13 DUP4 PUSH2 0x1EEF JUMP JUMPDEST SWAP2 POP PUSH2 0x26DC DUP3 PUSH2 0x269B JUMP JUMPDEST PUSH1 0x20 DUP3 ADD SWAP1 POP SWAP2 SWAP1 POP JUMP JUMPDEST PUSH1 0x0 PUSH1 0x20 DUP3 ADD SWAP1 POP DUP2 DUP2 SUB PUSH1 0x0 DUP4 ADD MSTORE PUSH2 0x2700 DUP2 PUSH2 0x26C4 JUMP JUMPDEST SWAP1 POP SWAP2 SWAP1 POP JUMP JUMPDEST PUSH32 0x45524332303A2064656372656173656420616C6C6F77616E63652062656C6F77 PUSH1 0x0 DUP3 ADD MSTORE PUSH32 0x207A65726F000000000000000000000000000000000000000000000000000000 PUSH1 0x20 DUP3 ADD MSTORE POP JUMP JUMPDEST PUSH1 0x0 PUSH2 0x2763 PUSH1 0x25 DUP4 PUSH2 0x1EEF JUMP JUMPDEST SWAP2 POP PUSH2 0x276E DUP3 PUSH2 0x2707 JUMP JUMPDEST PUSH1 0x40 DUP3 ADD SWAP1 POP SWAP2 SWAP1 POP JUMP JUMPDEST PUSH1 0x0 PUSH1 0x20 DUP3 ADD SWAP1 POP DUP2 DUP2 SUB PUSH1 0x0 DUP4 ADD MSTORE PUSH2 0x2792 DUP2 PUSH2 0x2756 JUMP JUMPDEST SWAP1 POP SWAP2 SWAP1 POP JUMP JUMPDEST PUSH32 0x4D757374207374616B65206D6F7265207468616E207A65726F20746F6B656E73 PUSH1 0x0 DUP3 ADD MSTORE POP JUMP JUMPDEST PUSH1 0x0 PUSH2 0x27CF PUSH1 0x20 DUP4 PUSH2 0x1EEF JUMP JUMPDEST SWAP2 POP PUSH2 0x27DA DUP3 PUSH2 0x2799 JUMP JUMPDEST PUSH1 0x20 DUP3 ADD SWAP1 POP SWAP2 SWAP1 POP JUMP JUMPDEST PUSH1 0x0 PUSH1 0x20 DUP3 ADD SWAP1 POP DUP2 DUP2 SUB PUSH1 0x0 DUP4 ADD MSTORE PUSH2 0x27FE DUP2 PUSH2 0x27C2 JUMP JUMPDEST SWAP1 POP SWAP2 SWAP1 POP JUMP JUMPDEST PUSH32 0x4E6F7420456E6F7567682042616C616E636520546F6B656E7320546F20537461 PUSH1 0x0 DUP3 ADD MSTORE PUSH32 0x6B65000000000000000000000000000000000000000000000000000000000000 PUSH1 0x20 DUP3 ADD MSTORE POP JUMP JUMPDEST PUSH1 0x0 PUSH2 0x2861 PUSH1 0x22 DUP4 PUSH2 0x1EEF JUMP JUMPDEST SWAP2 POP PUSH2 0x286C DUP3 PUSH2 0x2805 JUMP JUMPDEST PUSH1 0x40 DUP3 ADD SWAP1 POP SWAP2 SWAP1 POP JUMP JUMPDEST PUSH1 0x0 PUSH1 0x20 DUP3 ADD SWAP1 POP DUP2 DUP2 SUB PUSH1 0x0 DUP4 ADD MSTORE PUSH2 0x2890 DUP2 PUSH2 0x2854 JUMP JUMPDEST SWAP1 POP SWAP2 SWAP1 POP JUMP JUMPDEST PUSH32 0x4F776E61626C653A206E6577206F776E657220697320746865207A65726F2061 PUSH1 0x0 DUP3 ADD MSTORE PUSH32 0x6464726573730000000000000000000000000000000000000000000000000000 PUSH1 0x20 DUP3 ADD MSTORE POP JUMP JUMPDEST PUSH1 0x0 PUSH2 0x28F3 PUSH1 0x26 DUP4 PUSH2 0x1EEF JUMP JUMPDEST SWAP2 POP PUSH2 0x28FE DUP3 PUSH2 0x2897 JUMP JUMPDEST PUSH1 0x40 DUP3 ADD SWAP1 POP SWAP2 SWAP1 POP JUMP JUMPDEST PUSH1 0x0 PUSH1 0x20 DUP3 ADD SWAP1 POP DUP2 DUP2 SUB PUSH1 0x0 DUP4 ADD MSTORE PUSH2 0x2922 DUP2 PUSH2 0x28E6 JUMP JUMPDEST SWAP1 POP SWAP2 SWAP1 POP JUMP JUMPDEST PUSH32 0x45524332303A20617070726F76652066726F6D20746865207A65726F20616464 PUSH1 0x0 DUP3 ADD MSTORE PUSH32 0x7265737300000000000000000000000000000000000000000000000000000000 PUSH1 0x20 DUP3 ADD MSTORE POP JUMP JUMPDEST PUSH1 0x0 PUSH2 0x2985 PUSH1 0x24 DUP4 PUSH2 0x1EEF JUMP JUMPDEST SWAP2 POP PUSH2 0x2990 DUP3 PUSH2 0x2929 JUMP JUMPDEST PUSH1 0x40 DUP3 ADD SWAP1 POP SWAP2 SWAP1 POP JUMP JUMPDEST PUSH1 0x0 PUSH1 0x20 DUP3 ADD SWAP1 POP DUP2 DUP2 SUB PUSH1 0x0 DUP4 ADD MSTORE PUSH2 0x29B4 DUP2 PUSH2 0x2978 JUMP JUMPDEST SWAP1 POP SWAP2 SWAP1 POP JUMP JUMPDEST PUSH32 0x45524332303A20617070726F766520746F20746865207A65726F206164647265 PUSH1 0x0 DUP3 ADD MSTORE PUSH32 0x7373000000000000000000000000000000000000000000000000000000000000 PUSH1 0x20 DUP3 ADD MSTORE POP JUMP JUMPDEST PUSH1 0x0 PUSH2 0x2A17 PUSH1 0x22 DUP4 PUSH2 0x1EEF JUMP JUMPDEST SWAP2 POP PUSH2 0x2A22 DUP3 PUSH2 0x29BB JUMP JUMPDEST PUSH1 0x40 DUP3 ADD SWAP1 POP SWAP2 SWAP1 POP JUMP JUMPDEST PUSH1 0x0 PUSH1 0x20 DUP3 ADD SWAP1 POP DUP2 DUP2 SUB PUSH1 0x0 DUP4 ADD MSTORE PUSH2 0x2A46 DUP2 PUSH2 0x2A0A JUMP JUMPDEST SWAP1 POP SWAP2 SWAP1 POP JUMP JUMPDEST PUSH32 0x45524332303A20696E73756666696369656E7420616C6C6F77616E6365000000 PUSH1 0x0 DUP3 ADD MSTORE POP JUMP JUMPDEST PUSH1 0x0 PUSH2 0x2A83 PUSH1 0x1D DUP4 PUSH2 0x1EEF JUMP JUMPDEST SWAP2 POP PUSH2 0x2A8E DUP3 PUSH2 0x2A4D JUMP JUMPDEST PUSH1 0x20 DUP3 ADD SWAP1 POP SWAP2 SWAP1 POP JUMP JUMPDEST PUSH1 0x0 PUSH1 0x20 DUP3 ADD SWAP1 POP DUP2 DUP2 SUB PUSH1 0x0 DUP4 ADD MSTORE PUSH2 0x2AB2 DUP2 PUSH2 0x2A76 JUMP JUMPDEST SWAP1 POP SWAP2 SWAP1 POP JUMP JUMPDEST PUSH32 0x45524332303A207472616E736665722066726F6D20746865207A65726F206164 PUSH1 0x0 DUP3 ADD MSTORE PUSH32 0x6472657373000000000000000000000000000000000000000000000000000000 PUSH1 0x20 DUP3 ADD MSTORE POP JUMP JUMPDEST PUSH1 0x0 PUSH2 0x2B15 PUSH1 0x25 DUP4 PUSH2 0x1EEF JUMP JUMPDEST SWAP2 POP PUSH2 0x2B20 DUP3 PUSH2 0x2AB9 JUMP JUMPDEST PUSH1 0x40 DUP3 ADD SWAP1 POP SWAP2 SWAP1 POP JUMP JUMPDEST PUSH1 0x0 PUSH1 0x20 DUP3 ADD SWAP1 POP DUP2 DUP2 SUB PUSH1 0x0 DUP4 ADD MSTORE PUSH2 0x2B44 DUP2 PUSH2 0x2B08 JUMP JUMPDEST SWAP1 POP SWAP2 SWAP1 POP JUMP JUMPDEST PUSH32 0x45524332303A207472616E7366657220746F20746865207A65726F2061646472 PUSH1 0x0 DUP3 ADD MSTORE PUSH32 0x6573730000000000000000000000000000000000000000000000000000000000 PUSH1 0x20 DUP3 ADD MSTORE POP JUMP JUMPDEST PUSH1 0x0 PUSH2 0x2BA7 PUSH1 0x23 DUP4 PUSH2 0x1EEF JUMP JUMPDEST SWAP2 POP PUSH2 0x2BB2 DUP3 PUSH2 0x2B4B JUMP JUMPDEST PUSH1 0x40 DUP3 ADD SWAP1 POP SWAP2 SWAP1 POP JUMP JUMPDEST PUSH1 0x0 PUSH1 0x20 DUP3 ADD SWAP1 POP DUP2 DUP2 SUB PUSH1 0x0 DUP4 ADD MSTORE PUSH2 0x2BD6 DUP2 PUSH2 0x2B9A JUMP JUMPDEST SWAP1 POP SWAP2 SWAP1 POP JUMP JUMPDEST PUSH32 0x45524332303A207472616E7366657220616D6F756E7420657863656564732062 PUSH1 0x0 DUP3 ADD MSTORE PUSH32 0x616C616E63650000000000000000000000000000000000000000000000000000 PUSH1 0x20 DUP3 ADD MSTORE POP JUMP JUMPDEST PUSH1 0x0 PUSH2 0x2C39 PUSH1 0x26 DUP4 PUSH2 0x1EEF JUMP JUMPDEST SWAP2 POP PUSH2 0x2C44 DUP3 PUSH2 0x2BDD JUMP JUMPDEST PUSH1 0x40 DUP3 ADD SWAP1 POP SWAP2 SWAP1 POP JUMP JUMPDEST PUSH1 0x0 PUSH1 0x20 DUP3 ADD SWAP1 POP DUP2 DUP2 SUB PUSH1 0x0 DUP4 ADD MSTORE PUSH2 0x2C68 DUP2 PUSH2 0x2C2C JUMP JUMPDEST SWAP1 POP SWAP2 SWAP1 POP JUMP JUMPDEST PUSH32 0x4E487B7100000000000000000000000000000000000000000000000000000000 PUSH1 0x0 MSTORE PUSH1 0x12 PUSH1 0x4 MSTORE PUSH1 0x24 PUSH1 0x0 REVERT JUMPDEST PUSH1 0x0 PUSH2 0x2CA9 DUP3 PUSH2 0x1FF9 JUMP JUMPDEST SWAP2 POP PUSH2 0x2CB4 DUP4 PUSH2 0x1FF9 JUMP JUMPDEST SWAP3 POP DUP3 PUSH2 0x2CC4 JUMPI PUSH2 0x2CC3 PUSH2 0x2C6F JUMP JUMPDEST JUMPDEST DUP3 DUP3 DIV SWAP1 POP SWAP3 SWAP2 POP POP JUMP JUMPDEST PUSH32 0x45524332303A206D696E7420746F20746865207A65726F206164647265737300 PUSH1 0x0 DUP3 ADD MSTORE POP JUMP JUMPDEST PUSH1 0x0 PUSH2 0x2D05 PUSH1 0x1F DUP4 PUSH2 0x1EEF JUMP JUMPDEST SWAP2 POP PUSH2 0x2D10 DUP3 PUSH2 0x2CCF JUMP JUMPDEST PUSH1 0x20 DUP3 ADD SWAP1 POP SWAP2 SWAP1 POP JUMP JUMPDEST PUSH1 0x0 PUSH1 0x20 DUP3 ADD SWAP1 POP DUP2 DUP2 SUB PUSH1 0x0 DUP4 ADD MSTORE PUSH2 0x2D34 DUP2 PUSH2 0x2CF8 JUMP JUMPDEST SWAP1 POP SWAP2 SWAP1 POP JUMP JUMPDEST PUSH32 0x45524332303A206275726E2066726F6D20746865207A65726F20616464726573 PUSH1 0x0 DUP3 ADD MSTORE PUSH32 0x7300000000000000000000000000000000000000000000000000000000000000 PUSH1 0x20 DUP3 ADD MSTORE POP JUMP JUMPDEST PUSH1 0x0 PUSH2 0x2D97 PUSH1 0x21 DUP4 PUSH2 0x1EEF JUMP JUMPDEST SWAP2 POP PUSH2 0x2DA2 DUP3 PUSH2 0x2D3B JUMP JUMPDEST PUSH1 0x40 DUP3 ADD SWAP1 POP SWAP2 SWAP1 POP JUMP JUMPDEST PUSH1 0x0 PUSH1 0x20 DUP3 ADD SWAP1 POP DUP2 DUP2 SUB PUSH1 0x0 DUP4 ADD MSTORE PUSH2 0x2DC6 DUP2 PUSH2 0x2D8A JUMP JUMPDEST SWAP1 POP SWAP2 SWAP1 POP JUMP JUMPDEST PUSH32 0x45524332303A206275726E20616D6F756E7420657863656564732062616C616E PUSH1 0x0 DUP3 ADD MSTORE PUSH32 0x6365000000000000000000000000000000000000000000000000000000000000 PUSH1 0x20 DUP3 ADD MSTORE POP JUMP JUMPDEST PUSH1 0x0 PUSH2 0x2E29 PUSH1 0x22 DUP4 PUSH2 0x1EEF JUMP JUMPDEST SWAP2 POP PUSH2 0x2E34 DUP3 PUSH2 0x2DCD JUMP JUMPDEST PUSH1 0x40 DUP3 ADD SWAP1 POP SWAP2 SWAP1 POP JUMP JUMPDEST PUSH1 0x0 PUSH1 0x20 DUP3 ADD SWAP1 POP DUP2 DUP2 SUB PUSH1 0x0 DUP4 ADD MSTORE PUSH2 0x2E58 DUP2 PUSH2 0x2E1C JUMP JUMPDEST SWAP1 POP SWAP2 SWAP1 POP JUMP JUMPDEST PUSH32 0x4F776E61626C653A2063616C6C6572206973206E6F7420746865206F776E6572 PUSH1 0x0 DUP3 ADD MSTORE POP JUMP JUMPDEST PUSH1 0x0 PUSH2 0x2E95 PUSH1 0x20 DUP4 PUSH2 0x1EEF JUMP JUMPDEST SWAP2 POP PUSH2 0x2EA0 DUP3 PUSH2 0x2E5F JUMP JUMPDEST PUSH1 0x20 DUP3 ADD SWAP1 POP SWAP2 SWAP1 POP JUMP JUMPDEST PUSH1 0x0 PUSH1 0x20 DUP3 ADD SWAP1 POP DUP2 DUP2 SUB PUSH1 0x0 DUP4 ADD MSTORE PUSH2 0x2EC4 DUP2 PUSH2 0x2E88 JUMP JUMPDEST SWAP1 POP SWAP2 SWAP1 POP JUMP INVALID LOG2 PUSH5 0x6970667358 0x22 SLT KECCAK256 DUP8 0x4F RETURNDATACOPY DIV MLOAD 0xE3 CREATE2 PUSH25 0xECFDC8B46BD9200C2A09D9F8899F3DE68856D1349C18880564 PUSH20 0x6F6C634300081200330000000000000000000000 "
				},
				"gasEstimates": {
					"creation": {
						"codeDepositCost": "2406600",
						"executionCost": "infinite",
						"totalCost": "infinite"
					},
					"external": {
						"allowance(address,address)": "infinite",
						"approve(address,uint256)": "infinite",
						"balanceOf(address)": "2864",
						"burn(uint256)": "infinite",
						"burnFrom(address,uint256)": "infinite",
						"buyTokens(uint256)": "infinite",
						"claimRewards()": "infinite",
						"decimals()": "477",
						"decreaseAllowance(address,uint256)": "infinite",
						"increaseAllowance(address,uint256)": "infinite",
						"interest()": "2495",
						"name()": "infinite",
						"owner()": "2633",
						"renounceOwnership()": "30443",
						"sellTokens(uint256)": "infinite",
						"setTokenPrice(uint256)": "24873",
						"stake(uint256)": "infinite",
						"stakingInfo(address)": "infinite",
						"symbol()": "infinite",
						"tokenPrice()": "2518",
						"totalSupply()": "2505",
						"transfer(address,uint256)": "infinite",
						"transferBalanceToOwner()": "infinite",
						"transferFrom(address,address,uint256)": "infinite",
						"transferOwnership(address)": "30854",
						"unstake(uint256)": "infinite"
					},
					"internal": {
						"UpdateReward(address)": "infinite",
						"setInterest(uint256)": "infinite",
						"updateRewardsForAllUsers()": "infinite"
					}
				},
				"methodIdentifiers": {
					"allowance(address,address)": "dd62ed3e",
					"approve(address,uint256)": "095ea7b3",
					"balanceOf(address)": "70a08231",
					"burn(uint256)": "42966c68",
					"burnFrom(address,uint256)": "79cc6790",
					"buyTokens(uint256)": "3610724e",
					"claimRewards()": "372500ab",
					"decimals()": "313ce567",
					"decreaseAllowance(address,uint256)": "a457c2d7",
					"increaseAllowance(address,uint256)": "39509351",
					"interest()": "c392f766",
					"name()": "06fdde03",
					"owner()": "8da5cb5b",
					"renounceOwnership()": "715018a6",
					"sellTokens(uint256)": "6c11bcd3",
					"setTokenPrice(uint256)": "6a61e5fc",
					"stake(uint256)": "a694fc3a",
					"stakingInfo(address)": "94eecb50",
					"symbol()": "95d89b41",
					"tokenPrice()": "7ff9b596",
					"totalSupply()": "18160ddd",
					"transfer(address,uint256)": "a9059cbb",
					"transferBalanceToOwner()": "47f07a8e",
					"transferFrom(address,address,uint256)": "23b872dd",
					"transferOwnership(address)": "f2fde38b",
					"unstake(uint256)": "2e17de78"
				}
			},
			"storageLayout": {
				"storage": [
					{
						"astId": 128,
						"contract": "staking1_test.sol:MyToken",
						"label": "_balances",
						"offset": 0,
						"slot": "0",
						"type": "t_mapping(t_address,t_uint256)"
					},
					{
						"astId": 134,
						"contract": "staking1_test.sol:MyToken",
						"label": "_allowances",
						"offset": 0,
						"slot": "1",
						"type": "t_mapping(t_address,t_mapping(t_address,t_uint256))"
					},
					{
						"astId": 136,
						"contract": "staking1_test.sol:MyToken",
						"label": "_totalSupply",
						"offset": 0,
						"slot": "2",
						"type": "t_uint256"
					},
					{
						"astId": 138,
						"contract": "staking1_test.sol:MyToken",
						"label": "_name",
						"offset": 0,
						"slot": "3",
						"type": "t_string_storage"
					},
					{
						"astId": 140,
						"contract": "staking1_test.sol:MyToken",
						"label": "_symbol",
						"offset": 0,
						"slot": "4",
						"type": "t_string_storage"
					},
					{
						"astId": 7,
						"contract": "staking1_test.sol:MyToken",
						"label": "_owner",
						"offset": 0,
						"slot": "5",
						"type": "t_address"
					},
					{
						"astId": 881,
						"contract": "staking1_test.sol:MyToken",
						"label": "tokenPrice",
						"offset": 0,
						"slot": "6",
						"type": "t_uint256"
					},
					{
						"astId": 884,
						"contract": "staking1_test.sol:MyToken",
						"label": "interest",
						"offset": 0,
						"slot": "7",
						"type": "t_uint256"
					},
					{
						"astId": 896,
						"contract": "staking1_test.sol:MyToken",
						"label": "stakingInfo",
						"offset": 0,
						"slot": "8",
						"type": "t_mapping(t_address,t_struct(StakingInfo)891_storage)"
					},
					{
						"astId": 899,
						"contract": "staking1_test.sol:MyToken",
						"label": "users",
						"offset": 0,
						"slot": "9",
						"type": "t_array(t_address)dyn_storage"
					}
				],
				"types": {
					"t_address": {
						"encoding": "inplace",
						"label": "address",
						"numberOfBytes": "20"
					},
					"t_array(t_address)dyn_storage": {
						"base": "t_address",
						"encoding": "dynamic_array",
						"label": "address[]",
						"numberOfBytes": "32"
					},
					"t_mapping(t_address,t_mapping(t_address,t_uint256))": {
						"encoding": "mapping",
						"key": "t_address",
						"label": "mapping(address => mapping(address => uint256))",
						"numberOfBytes": "32",
						"value": "t_mapping(t_address,t_uint256)"
					},
					"t_mapping(t_address,t_struct(StakingInfo)891_storage)": {
						"encoding": "mapping",
						"key": "t_address",
						"label": "mapping(address => struct MyToken.StakingInfo)",
						"numberOfBytes": "32",
						"value": "t_struct(StakingInfo)891_storage"
					},
					"t_mapping(t_address,t_uint256)": {
						"encoding": "mapping",
						"key": "t_address",
						"label": "mapping(address => uint256)",
						"numberOfBytes": "32",
						"value": "t_uint256"
					},
					"t_string_storage": {
						"encoding": "bytes",
						"label": "string",
						"numberOfBytes": "32"
					},
					"t_struct(StakingInfo)891_storage": {
						"encoding": "inplace",
						"label": "struct MyToken.StakingInfo",
						"members": [
							{
								"astId": 886,
								"contract": "staking1_test.sol:MyToken",
								"label": "stakedAmount",
								"offset": 0,
								"slot": "0",
								"type": "t_uint256"
							},
							{
								"astId": 888,
								"contract": "staking1_test.sol:MyToken",
								"label": "lastStakedTime",
								"offset": 0,
								"slot": "1",
								"type": "t_uint256"
							},
							{
								"astId": 890,
								"contract": "staking1_test.sol:MyToken",
								"label": "rewards",
								"offset": 0,
								"slot": "2",
								"type": "t_uint256"
							}
						],
						"numberOfBytes": "96"
					},
					"t_uint256": {
						"encoding": "inplace",
						"label": "uint256",
						"numberOfBytes": "32"
					}
				}
			},
			"userdoc": {
				"kind": "user",
				"methods": {},
				"version": 1
			}
		}
	}
}