{
	"degree.sol": {
		"ApprovalContract": {
			"abi": [
				{
					"inputs": [
						{
							"internalType": "address",
							"name": "_registrar",
							"type": "address"
						},
						{
							"internalType": "address",
							"name": "_viceChancellor",
							"type": "address"
						},
						{
							"internalType": "address",
							"name": "_chancellor",
							"type": "address"
						}
					],
					"stateMutability": "nonpayable",
					"type": "constructor"
				},
				{
					"inputs": [
						{
							"internalType": "bool",
							"name": "_registrarApproval",
							"type": "bool"
						},
						{
							"internalType": "bool",
							"name": "_viceChancellorApproval",
							"type": "bool"
						},
						{
							"internalType": "bool",
							"name": "_chancellorApproval",
							"type": "bool"
						},
						{
							"internalType": "uint256",
							"name": "_rollNo",
							"type": "uint256"
						},
						{
							"internalType": "string",
							"name": "_studentName",
							"type": "string"
						}
					],
					"name": "approveEntry",
					"outputs": [],
					"stateMutability": "nonpayable",
					"type": "function"
				},
				{
					"inputs": [],
					"name": "chancellor",
					"outputs": [
						{
							"internalType": "address",
							"name": "",
							"type": "address"
						}
					],
					"stateMutability": "view",
					"type": "function"
				},
				{
					"inputs": [],
					"name": "dataEntryManager",
					"outputs": [
						{
							"internalType": "address",
							"name": "",
							"type": "address"
						}
					],
					"stateMutability": "view",
					"type": "function"
				},
				{
					"inputs": [
						{
							"internalType": "bytes32",
							"name": "",
							"type": "bytes32"
						}
					],
					"name": "entries",
					"outputs": [
						{
							"internalType": "bool",
							"name": "approved",
							"type": "bool"
						},
						{
							"internalType": "bytes32",
							"name": "hashcode",
							"type": "bytes32"
						},
						{
							"internalType": "uint256",
							"name": "rollNo",
							"type": "uint256"
						},
						{
							"internalType": "string",
							"name": "studentName",
							"type": "string"
						}
					],
					"stateMutability": "view",
					"type": "function"
				},
				{
					"inputs": [
						{
							"internalType": "address",
							"name": "",
							"type": "address"
						}
					],
					"name": "isApprover",
					"outputs": [
						{
							"internalType": "bool",
							"name": "",
							"type": "bool"
						}
					],
					"stateMutability": "view",
					"type": "function"
				},
				{
					"inputs": [],
					"name": "registrar",
					"outputs": [
						{
							"internalType": "address",
							"name": "",
							"type": "address"
						}
					],
					"stateMutability": "view",
					"type": "function"
				},
				{
					"inputs": [
						{
							"internalType": "address",
							"name": "_approver",
							"type": "address"
						},
						{
							"internalType": "bool",
							"name": "_status",
							"type": "bool"
						}
					],
					"name": "setApprover",
					"outputs": [],
					"stateMutability": "nonpayable",
					"type": "function"
				},
				{
					"inputs": [],
					"name": "viceChancellor",
					"outputs": [
						{
							"internalType": "address",
							"name": "",
							"type": "address"
						}
					],
					"stateMutability": "view",
					"type": "function"
				}
			],
			"devdoc": {
				"kind": "dev",
				"methods": {},
				"version": 1
			},
			"evm": {
				"assembly": "    /* \"degree.sol\":57:2007  contract ApprovalContract {... */\n  mstore(0x40, 0x80)\n    /* \"degree.sol\":745:1101  constructor(address _registrar, address _viceChancellor, address _chancellor) {... */\n  callvalue\n  dup1\n  iszero\n  tag_1\n  jumpi\n  0x00\n  dup1\n  revert\ntag_1:\n  pop\n  mload(0x40)\n  sub(codesize, bytecodeSize)\n  dup1\n  bytecodeSize\n  dup4\n  codecopy\n  dup2\n  dup2\n  add\n  0x40\n  mstore\n  dup2\n  add\n  swap1\n  tag_2\n  swap2\n  swap1\n  tag_3\n  jump\t// in\ntag_2:\n    /* \"degree.sol\":852:862  msg.sender */\n  caller\n    /* \"degree.sol\":833:849  dataEntryManager */\n  0x00\n  dup1\n    /* \"degree.sol\":833:862  dataEntryManager = msg.sender */\n  0x0100\n  exp\n  dup2\n  sload\n  dup2\n  0xffffffffffffffffffffffffffffffffffffffff\n  mul\n  not\n  and\n  swap1\n  dup4\n  0xffffffffffffffffffffffffffffffffffffffff\n  and\n  mul\n  or\n  swap1\n  sstore\n  pop\n    /* \"degree.sol\":884:894  _registrar */\n  dup3\n    /* \"degree.sol\":872:881  registrar */\n  0x01\n  0x00\n    /* \"degree.sol\":872:894  registrar = _registrar */\n  0x0100\n  exp\n  dup2\n  sload\n  dup2\n  0xffffffffffffffffffffffffffffffffffffffff\n  mul\n  not\n  and\n  swap1\n  dup4\n  0xffffffffffffffffffffffffffffffffffffffff\n  and\n  mul\n  or\n  swap1\n  sstore\n  pop\n    /* \"degree.sol\":921:936  _viceChancellor */\n  dup2\n    /* \"degree.sol\":904:918  viceChancellor */\n  0x02\n  0x00\n    /* \"degree.sol\":904:936  viceChancellor = _viceChancellor */\n  0x0100\n  exp\n  dup2\n  sload\n  dup2\n  0xffffffffffffffffffffffffffffffffffffffff\n  mul\n  not\n  and\n  swap1\n  dup4\n  0xffffffffffffffffffffffffffffffffffffffff\n  and\n  mul\n  or\n  swap1\n  sstore\n  pop\n    /* \"degree.sol\":959:970  _chancellor */\n  dup1\n    /* \"degree.sol\":946:956  chancellor */\n  0x03\n  0x00\n    /* \"degree.sol\":946:970  chancellor = _chancellor */\n  0x0100\n  exp\n  dup2\n  sload\n  dup2\n  0xffffffffffffffffffffffffffffffffffffffff\n  mul\n  not\n  and\n  swap1\n  dup4\n  0xffffffffffffffffffffffffffffffffffffffff\n  and\n  mul\n  or\n  swap1\n  sstore\n  pop\n    /* \"degree.sol\":1006:1010  true */\n  0x01\n    /* \"degree.sol\":981:991  isApprover */\n  0x04\n    /* \"degree.sol\":981:1003  isApprover[_registrar] */\n  0x00\n    /* \"degree.sol\":992:1002  _registrar */\n  dup6\n    /* \"degree.sol\":981:1003  isApprover[_registrar] */\n  0xffffffffffffffffffffffffffffffffffffffff\n  and\n  0xffffffffffffffffffffffffffffffffffffffff\n  and\n  dup2\n  mstore\n  0x20\n  add\n  swap1\n  dup2\n  mstore\n  0x20\n  add\n  0x00\n  keccak256\n  0x00\n    /* \"degree.sol\":981:1010  isApprover[_registrar] = true */\n  0x0100\n  exp\n  dup2\n  sload\n  dup2\n  0xff\n  mul\n  not\n  and\n  swap1\n  dup4\n  iszero\n  iszero\n  mul\n  or\n  swap1\n  sstore\n  pop\n    /* \"degree.sol\":1050:1054  true */\n  0x01\n    /* \"degree.sol\":1020:1030  isApprover */\n  0x04\n    /* \"degree.sol\":1020:1047  isApprover[_viceChancellor] */\n  0x00\n    /* \"degree.sol\":1031:1046  _viceChancellor */\n  dup5\n    /* \"degree.sol\":1020:1047  isApprover[_viceChancellor] */\n  0xffffffffffffffffffffffffffffffffffffffff\n  and\n  0xffffffffffffffffffffffffffffffffffffffff\n  and\n  dup2\n  mstore\n  0x20\n  add\n  swap1\n  dup2\n  mstore\n  0x20\n  add\n  0x00\n  keccak256\n  0x00\n    /* \"degree.sol\":1020:1054  isApprover[_viceChancellor] = true */\n  0x0100\n  exp\n  dup2\n  sload\n  dup2\n  0xff\n  mul\n  not\n  and\n  swap1\n  dup4\n  iszero\n  iszero\n  mul\n  or\n  swap1\n  sstore\n  pop\n    /* \"degree.sol\":1090:1094  true */\n  0x01\n    /* \"degree.sol\":1064:1074  isApprover */\n  0x04\n    /* \"degree.sol\":1064:1087  isApprover[_chancellor] */\n  0x00\n    /* \"degree.sol\":1075:1086  _chancellor */\n  dup4\n    /* \"degree.sol\":1064:1087  isApprover[_chancellor] */\n  0xffffffffffffffffffffffffffffffffffffffff\n  and\n  0xffffffffffffffffffffffffffffffffffffffff\n  and\n  dup2\n  mstore\n  0x20\n  add\n  swap1\n  dup2\n  mstore\n  0x20\n  add\n  0x00\n  keccak256\n  0x00\n    /* \"degree.sol\":1064:1094  isApprover[_chancellor] = true */\n  0x0100\n  exp\n  dup2\n  sload\n  dup2\n  0xff\n  mul\n  not\n  and\n  swap1\n  dup4\n  iszero\n  iszero\n  mul\n  or\n  swap1\n  sstore\n  pop\n    /* \"degree.sol\":745:1101  constructor(address _registrar, address _viceChancellor, address _chancellor) {... */\n  pop\n  pop\n  pop\n    /* \"degree.sol\":57:2007  contract ApprovalContract {... */\n  jump(tag_6)\n    /* \"#utility.yul\":88:205   */\ntag_8:\n    /* \"#utility.yul\":197:198   */\n  0x00\n    /* \"#utility.yul\":194:195   */\n  dup1\n    /* \"#utility.yul\":187:199   */\n  revert\n    /* \"#utility.yul\":334:460   */\ntag_10:\n    /* \"#utility.yul\":371:378   */\n  0x00\n    /* \"#utility.yul\":411:453   */\n  0xffffffffffffffffffffffffffffffffffffffff\n    /* \"#utility.yul\":404:409   */\n  dup3\n    /* \"#utility.yul\":400:454   */\n  and\n    /* \"#utility.yul\":389:454   */\n  swap1\n  pop\n    /* \"#utility.yul\":334:460   */\n  swap2\n  swap1\n  pop\n  jump\t// out\n    /* \"#utility.yul\":466:562   */\ntag_11:\n    /* \"#utility.yul\":503:510   */\n  0x00\n    /* \"#utility.yul\":532:556   */\n  tag_20\n    /* \"#utility.yul\":550:555   */\n  dup3\n    /* \"#utility.yul\":532:556   */\n  tag_10\n  jump\t// in\ntag_20:\n    /* \"#utility.yul\":521:556   */\n  swap1\n  pop\n    /* \"#utility.yul\":466:562   */\n  swap2\n  swap1\n  pop\n  jump\t// out\n    /* \"#utility.yul\":568:690   */\ntag_12:\n    /* \"#utility.yul\":641:665   */\n  tag_22\n    /* \"#utility.yul\":659:664   */\n  dup2\n    /* \"#utility.yul\":641:665   */\n  tag_11\n  jump\t// in\ntag_22:\n    /* \"#utility.yul\":634:639   */\n  dup2\n    /* \"#utility.yul\":631:666   */\n  eq\n    /* \"#utility.yul\":621:684   */\n  tag_23\n  jumpi\n    /* \"#utility.yul\":680:681   */\n  0x00\n    /* \"#utility.yul\":677:678   */\n  dup1\n    /* \"#utility.yul\":670:682   */\n  revert\n    /* \"#utility.yul\":621:684   */\ntag_23:\n    /* \"#utility.yul\":568:690   */\n  pop\n  jump\t// out\n    /* \"#utility.yul\":696:839   */\ntag_13:\n    /* \"#utility.yul\":753:758   */\n  0x00\n    /* \"#utility.yul\":784:790   */\n  dup2\n    /* \"#utility.yul\":778:791   */\n  mload\n    /* \"#utility.yul\":769:791   */\n  swap1\n  pop\n    /* \"#utility.yul\":800:833   */\n  tag_25\n    /* \"#utility.yul\":827:832   */\n  dup2\n    /* \"#utility.yul\":800:833   */\n  tag_12\n  jump\t// in\ntag_25:\n    /* \"#utility.yul\":696:839   */\n  swap3\n  swap2\n  pop\n  pop\n  jump\t// out\n    /* \"#utility.yul\":845:1508   */\ntag_3:\n    /* \"#utility.yul\":933:939   */\n  0x00\n    /* \"#utility.yul\":941:947   */\n  dup1\n    /* \"#utility.yul\":949:955   */\n  0x00\n    /* \"#utility.yul\":998:1000   */\n  0x60\n    /* \"#utility.yul\":986:995   */\n  dup5\n    /* \"#utility.yul\":977:984   */\n  dup7\n    /* \"#utility.yul\":973:996   */\n  sub\n    /* \"#utility.yul\":969:1001   */\n  slt\n    /* \"#utility.yul\":966:1085   */\n  iszero\n  tag_27\n  jumpi\n    /* \"#utility.yul\":1004:1083   */\n  tag_28\n  tag_8\n  jump\t// in\ntag_28:\n    /* \"#utility.yul\":966:1085   */\ntag_27:\n    /* \"#utility.yul\":1124:1125   */\n  0x00\n    /* \"#utility.yul\":1149:1213   */\n  tag_29\n    /* \"#utility.yul\":1205:1212   */\n  dup7\n    /* \"#utility.yul\":1196:1202   */\n  dup3\n    /* \"#utility.yul\":1185:1194   */\n  dup8\n    /* \"#utility.yul\":1181:1203   */\n  add\n    /* \"#utility.yul\":1149:1213   */\n  tag_13\n  jump\t// in\ntag_29:\n    /* \"#utility.yul\":1139:1213   */\n  swap4\n  pop\n    /* \"#utility.yul\":1095:1223   */\n  pop\n    /* \"#utility.yul\":1262:1264   */\n  0x20\n    /* \"#utility.yul\":1288:1352   */\n  tag_30\n    /* \"#utility.yul\":1344:1351   */\n  dup7\n    /* \"#utility.yul\":1335:1341   */\n  dup3\n    /* \"#utility.yul\":1324:1333   */\n  dup8\n    /* \"#utility.yul\":1320:1342   */\n  add\n    /* \"#utility.yul\":1288:1352   */\n  tag_13\n  jump\t// in\ntag_30:\n    /* \"#utility.yul\":1278:1352   */\n  swap3\n  pop\n    /* \"#utility.yul\":1233:1362   */\n  pop\n    /* \"#utility.yul\":1401:1403   */\n  0x40\n    /* \"#utility.yul\":1427:1491   */\n  tag_31\n    /* \"#utility.yul\":1483:1490   */\n  dup7\n    /* \"#utility.yul\":1474:1480   */\n  dup3\n    /* \"#utility.yul\":1463:1472   */\n  dup8\n    /* \"#utility.yul\":1459:1481   */\n  add\n    /* \"#utility.yul\":1427:1491   */\n  tag_13\n  jump\t// in\ntag_31:\n    /* \"#utility.yul\":1417:1491   */\n  swap2\n  pop\n    /* \"#utility.yul\":1372:1501   */\n  pop\n    /* \"#utility.yul\":845:1508   */\n  swap3\n  pop\n  swap3\n  pop\n  swap3\n  jump\t// out\n    /* \"degree.sol\":57:2007  contract ApprovalContract {... */\ntag_6:\n  dataSize(sub_0)\n  dup1\n  dataOffset(sub_0)\n  0x00\n  codecopy\n  0x00\n  return\nstop\n\nsub_0: assembly {\n        /* \"degree.sol\":57:2007  contract ApprovalContract {... */\n      mstore(0x40, 0x80)\n      callvalue\n      dup1\n      iszero\n      tag_1\n      jumpi\n      0x00\n      dup1\n      revert\n    tag_1:\n      pop\n      jumpi(tag_2, lt(calldatasize, 0x04))\n      shr(0xe0, calldataload(0x00))\n      dup1\n      0xd76fd2e7\n      gt\n      tag_11\n      jumpi\n      dup1\n      0xd76fd2e7\n      eq\n      tag_7\n      jumpi\n      dup1\n      0xe6b43609\n      eq\n      tag_8\n      jumpi\n      dup1\n      0xf63be0a1\n      eq\n      tag_9\n      jumpi\n      dup1\n      0xfe52fffa\n      eq\n      tag_10\n      jumpi\n      jump(tag_2)\n    tag_11:\n      dup1\n      0x267b6922\n      eq\n      tag_3\n      jumpi\n      dup1\n      0x2b20e397\n      eq\n      tag_4\n      jumpi\n      dup1\n      0x46252acf\n      eq\n      tag_5\n      jumpi\n      dup1\n      0x6d218e48\n      eq\n      tag_6\n      jumpi\n    tag_2:\n      0x00\n      dup1\n      revert\n        /* \"degree.sol\":402:442  mapping(bytes32 => Entry) public entries */\n    tag_3:\n      tag_12\n      0x04\n      dup1\n      calldatasize\n      sub\n      dup2\n      add\n      swap1\n      tag_13\n      swap2\n      swap1\n      tag_14\n      jump\t// in\n    tag_13:\n      tag_15\n      jump\t// in\n    tag_12:\n      mload(0x40)\n      tag_16\n      swap5\n      swap4\n      swap3\n      swap2\n      swap1\n      tag_17\n      jump\t// in\n    tag_16:\n      mload(0x40)\n      dup1\n      swap2\n      sub\n      swap1\n      return\n        /* \"degree.sol\":257:281  address public registrar */\n    tag_4:\n      tag_18\n      tag_19\n      jump\t// in\n    tag_18:\n      mload(0x40)\n      tag_20\n      swap2\n      swap1\n      tag_21\n      jump\t// in\n    tag_20:\n      mload(0x40)\n      dup1\n      swap2\n      sub\n      swap1\n      return\n        /* \"degree.sol\":220:251  address public dataEntryManager */\n    tag_5:\n      tag_22\n      tag_23\n      jump\t// in\n    tag_22:\n      mload(0x40)\n      tag_24\n      swap2\n      swap1\n      tag_21\n      jump\t// in\n    tag_24:\n      mload(0x40)\n      dup1\n      swap2\n      sub\n      swap1\n      return\n        /* \"degree.sol\":354:396  mapping(address => bool) public isApprover */\n    tag_6:\n      tag_25\n      0x04\n      dup1\n      calldatasize\n      sub\n      dup2\n      add\n      swap1\n      tag_26\n      swap2\n      swap1\n      tag_27\n      jump\t// in\n    tag_26:\n      tag_28\n      jump\t// in\n    tag_25:\n      mload(0x40)\n      tag_29\n      swap2\n      swap1\n      tag_30\n      jump\t// in\n    tag_29:\n      mload(0x40)\n      dup1\n      swap2\n      sub\n      swap1\n      return\n        /* \"degree.sol\":1107:1237  function setApprover(address _approver, bool _status) public onlyDataEntryManager {... */\n    tag_7:\n      tag_31\n      0x04\n      dup1\n      calldatasize\n      sub\n      dup2\n      add\n      swap1\n      tag_32\n      swap2\n      swap1\n      tag_33\n      jump\t// in\n    tag_32:\n      tag_34\n      jump\t// in\n    tag_31:\n      stop\n        /* \"degree.sol\":322:347  address public chancellor */\n    tag_8:\n      tag_35\n      tag_36\n      jump\t// in\n    tag_35:\n      mload(0x40)\n      tag_37\n      swap2\n      swap1\n      tag_21\n      jump\t// in\n    tag_37:\n      mload(0x40)\n      dup1\n      swap2\n      sub\n      swap1\n      return\n        /* \"degree.sol\":1365:2005  function approveEntry(... */\n    tag_9:\n      tag_38\n      0x04\n      dup1\n      calldatasize\n      sub\n      dup2\n      add\n      swap1\n      tag_39\n      swap2\n      swap1\n      tag_40\n      jump\t// in\n    tag_39:\n      tag_41\n      jump\t// in\n    tag_38:\n      stop\n        /* \"degree.sol\":287:316  address public viceChancellor */\n    tag_10:\n      tag_42\n      tag_43\n      jump\t// in\n    tag_42:\n      mload(0x40)\n      tag_44\n      swap2\n      swap1\n      tag_21\n      jump\t// in\n    tag_44:\n      mload(0x40)\n      dup1\n      swap2\n      sub\n      swap1\n      return\n        /* \"degree.sol\":402:442  mapping(bytes32 => Entry) public entries */\n    tag_15:\n      mstore(0x20, 0x05)\n      dup1\n      0x00\n      mstore\n      keccak256(0x00, 0x40)\n      0x00\n      swap2\n      pop\n      swap1\n      pop\n      dup1\n      0x00\n      add\n      0x00\n      swap1\n      sload\n      swap1\n      0x0100\n      exp\n      swap1\n      div\n      0xff\n      and\n      swap1\n      dup1\n      0x01\n      add\n      sload\n      swap1\n      dup1\n      0x02\n      add\n      sload\n      swap1\n      dup1\n      0x03\n      add\n      dup1\n      sload\n      tag_45\n      swap1\n      tag_46\n      jump\t// in\n    tag_45:\n      dup1\n      0x1f\n      add\n      0x20\n      dup1\n      swap2\n      div\n      mul\n      0x20\n      add\n      mload(0x40)\n      swap1\n      dup2\n      add\n      0x40\n      mstore\n      dup1\n      swap3\n      swap2\n      swap1\n      dup2\n      dup2\n      mstore\n      0x20\n      add\n      dup3\n      dup1\n      sload\n      tag_47\n      swap1\n      tag_46\n      jump\t// in\n    tag_47:\n      dup1\n      iszero\n      tag_48\n      jumpi\n      dup1\n      0x1f\n      lt\n      tag_49\n      jumpi\n      0x0100\n      dup1\n      dup4\n      sload\n      div\n      mul\n      dup4\n      mstore\n      swap2\n      0x20\n      add\n      swap2\n      jump(tag_48)\n    tag_49:\n      dup3\n      add\n      swap2\n      swap1\n      0x00\n      mstore\n      keccak256(0x00, 0x20)\n      swap1\n    tag_50:\n      dup2\n      sload\n      dup2\n      mstore\n      swap1\n      0x01\n      add\n      swap1\n      0x20\n      add\n      dup1\n      dup4\n      gt\n      tag_50\n      jumpi\n      dup3\n      swap1\n      sub\n      0x1f\n      and\n      dup3\n      add\n      swap2\n    tag_48:\n      pop\n      pop\n      pop\n      pop\n      pop\n      swap1\n      pop\n      dup5\n      jump\t// out\n        /* \"degree.sol\":257:281  address public registrar */\n    tag_19:\n      0x01\n      0x00\n      swap1\n      sload\n      swap1\n      0x0100\n      exp\n      swap1\n      div\n      0xffffffffffffffffffffffffffffffffffffffff\n      and\n      dup2\n      jump\t// out\n        /* \"degree.sol\":220:251  address public dataEntryManager */\n    tag_23:\n      0x00\n      dup1\n      sload\n      swap1\n      0x0100\n      exp\n      swap1\n      div\n      0xffffffffffffffffffffffffffffffffffffffff\n      and\n      dup2\n      jump\t// out\n        /* \"degree.sol\":354:396  mapping(address => bool) public isApprover */\n    tag_28:\n      mstore(0x20, 0x04)\n      dup1\n      0x00\n      mstore\n      keccak256(0x00, 0x40)\n      0x00\n      swap2\n      pop\n      sload\n      swap1\n      0x0100\n      exp\n      swap1\n      div\n      0xff\n      and\n      dup2\n      jump\t// out\n        /* \"degree.sol\":1107:1237  function setApprover(address _approver, bool _status) public onlyDataEntryManager {... */\n    tag_34:\n        /* \"degree.sol\":513:529  dataEntryManager */\n      0x00\n      dup1\n      sload\n      swap1\n      0x0100\n      exp\n      swap1\n      div\n      0xffffffffffffffffffffffffffffffffffffffff\n      and\n        /* \"degree.sol\":499:529  msg.sender == dataEntryManager */\n      0xffffffffffffffffffffffffffffffffffffffff\n      and\n        /* \"degree.sol\":499:509  msg.sender */\n      caller\n        /* \"degree.sol\":499:529  msg.sender == dataEntryManager */\n      0xffffffffffffffffffffffffffffffffffffffff\n      and\n      eq\n        /* \"degree.sol\":491:581  require(msg.sender == dataEntryManager, \"Only Data Entry Manager can perform this action\") */\n      tag_52\n      jumpi\n      mload(0x40)\n      0x08c379a000000000000000000000000000000000000000000000000000000000\n      dup2\n      mstore\n      0x04\n      add\n      tag_53\n      swap1\n      tag_54\n      jump\t// in\n    tag_53:\n      mload(0x40)\n      dup1\n      swap2\n      sub\n      swap1\n      revert\n    tag_52:\n        /* \"degree.sol\":1223:1230  _status */\n      dup1\n        /* \"degree.sol\":1199:1209  isApprover */\n      0x04\n        /* \"degree.sol\":1199:1220  isApprover[_approver] */\n      0x00\n        /* \"degree.sol\":1210:1219  _approver */\n      dup5\n        /* \"degree.sol\":1199:1220  isApprover[_approver] */\n      0xffffffffffffffffffffffffffffffffffffffff\n      and\n      0xffffffffffffffffffffffffffffffffffffffff\n      and\n      dup2\n      mstore\n      0x20\n      add\n      swap1\n      dup2\n      mstore\n      0x20\n      add\n      0x00\n      keccak256\n      0x00\n        /* \"degree.sol\":1199:1230  isApprover[_approver] = _status */\n      0x0100\n      exp\n      dup2\n      sload\n      dup2\n      0xff\n      mul\n      not\n      and\n      swap1\n      dup4\n      iszero\n      iszero\n      mul\n      or\n      swap1\n      sstore\n      pop\n        /* \"degree.sol\":1107:1237  function setApprover(address _approver, bool _status) public onlyDataEntryManager {... */\n      pop\n      pop\n      jump\t// out\n        /* \"degree.sol\":322:347  address public chancellor */\n    tag_36:\n      0x03\n      0x00\n      swap1\n      sload\n      swap1\n      0x0100\n      exp\n      swap1\n      div\n      0xffffffffffffffffffffffffffffffffffffffff\n      and\n      dup2\n      jump\t// out\n        /* \"degree.sol\":1365:2005  function approveEntry(... */\n    tag_41:\n        /* \"degree.sol\":513:529  dataEntryManager */\n      0x00\n      dup1\n      sload\n      swap1\n      0x0100\n      exp\n      swap1\n      div\n      0xffffffffffffffffffffffffffffffffffffffff\n      and\n        /* \"degree.sol\":499:529  msg.sender == dataEntryManager */\n      0xffffffffffffffffffffffffffffffffffffffff\n      and\n        /* \"degree.sol\":499:509  msg.sender */\n      caller\n        /* \"degree.sol\":499:529  msg.sender == dataEntryManager */\n      0xffffffffffffffffffffffffffffffffffffffff\n      and\n      eq\n        /* \"degree.sol\":491:581  require(msg.sender == dataEntryManager, \"Only Data Entry Manager can perform this action\") */\n      tag_57\n      jumpi\n      mload(0x40)\n      0x08c379a000000000000000000000000000000000000000000000000000000000\n      dup2\n      mstore\n      0x04\n      add\n      tag_58\n      swap1\n      tag_54\n      jump\t// in\n    tag_58:\n      mload(0x40)\n      dup1\n      swap2\n      sub\n      swap1\n      revert\n    tag_57:\n        /* \"degree.sol\":1597:1619  bytes memory entryData */\n      0x00\n        /* \"degree.sol\":1639:1654  block.timestamp */\n      timestamp\n        /* \"degree.sol\":1656:1663  _rollNo */\n      dup4\n        /* \"degree.sol\":1665:1677  _studentName */\n      dup4\n        /* \"degree.sol\":1622:1678  abi.encodePacked(block.timestamp, _rollNo, _studentName) */\n      add(0x20, mload(0x40))\n      tag_60\n      swap4\n      swap3\n      swap2\n      swap1\n      tag_61\n      jump\t// in\n    tag_60:\n      mload(0x40)\n      0x20\n      dup2\n      dup4\n      sub\n      sub\n      dup2\n      mstore\n      swap1\n      0x40\n      mstore\n        /* \"degree.sol\":1597:1678  bytes memory entryData = abi.encodePacked(block.timestamp, _rollNo, _studentName) */\n      swap1\n      pop\n        /* \"degree.sol\":1688:1704  bytes32 hashcode */\n      0x00\n        /* \"degree.sol\":1707:1724  sha256(entryData) */\n      0x02\n        /* \"degree.sol\":1714:1723  entryData */\n      dup3\n        /* \"degree.sol\":1707:1724  sha256(entryData) */\n      mload(0x40)\n      tag_62\n      swap2\n      swap1\n      tag_63\n      jump\t// in\n    tag_62:\n      0x20\n      mload(0x40)\n      dup1\n      dup4\n      sub\n      dup2\n      dup6\n      gas\n      staticcall\n      iszero\n      dup1\n      iszero\n      tag_65\n      jumpi\n      returndatasize\n      0x00\n      dup1\n      returndatacopy\n      revert(0x00, returndatasize)\n    tag_65:\n      pop\n      pop\n      pop\n      mload(0x40)\n      returndatasize\n      not(0x1f)\n      0x1f\n      dup3\n      add\n      and\n      dup3\n      add\n      dup1\n      0x40\n      mstore\n      pop\n      dup2\n      add\n      swap1\n      tag_66\n      swap2\n      swap1\n      tag_67\n      jump\t// in\n    tag_66:\n        /* \"degree.sol\":1688:1724  bytes32 hashcode = sha256(entryData) */\n      swap1\n      pop\n        /* \"degree.sol\":1734:1747  bool approved */\n      0x00\n        /* \"degree.sol\":1750:1768  _registrarApproval */\n      dup8\n        /* \"degree.sol\":1750:1795  _registrarApproval && _viceChancellorApproval */\n      dup1\n      iszero\n      tag_68\n      jumpi\n      pop\n        /* \"degree.sol\":1772:1795  _viceChancellorApproval */\n      dup7\n        /* \"degree.sol\":1750:1795  _registrarApproval && _viceChancellorApproval */\n    tag_68:\n        /* \"degree.sol\":1750:1818  _registrarApproval && _viceChancellorApproval && _chancellorApproval */\n      dup1\n      iszero\n      tag_69\n      jumpi\n      pop\n        /* \"degree.sol\":1799:1818  _chancellorApproval */\n      dup6\n        /* \"degree.sol\":1750:1818  _registrarApproval && _viceChancellorApproval && _chancellorApproval */\n    tag_69:\n        /* \"degree.sol\":1734:1818  bool approved = _registrarApproval && _viceChancellorApproval && _chancellorApproval */\n      swap1\n      pop\n        /* \"degree.sol\":1849:1998  Entry({... */\n      mload(0x40)\n      dup1\n      0x80\n      add\n      0x40\n      mstore\n      dup1\n        /* \"degree.sol\":1879:1887  approved */\n      dup3\n        /* \"degree.sol\":1849:1998  Entry({... */\n      iszero\n      iszero\n      dup2\n      mstore\n      0x20\n      add\n        /* \"degree.sol\":1911:1919  hashcode */\n      dup4\n        /* \"degree.sol\":1849:1998  Entry({... */\n      dup2\n      mstore\n      0x20\n      add\n        /* \"degree.sol\":1941:1948  _rollNo */\n      dup7\n        /* \"degree.sol\":1849:1998  Entry({... */\n      dup2\n      mstore\n      0x20\n      add\n        /* \"degree.sol\":1975:1987  _studentName */\n      dup6\n        /* \"degree.sol\":1849:1998  Entry({... */\n      dup2\n      mstore\n      pop\n        /* \"degree.sol\":1829:1836  entries */\n      0x05\n        /* \"degree.sol\":1829:1846  entries[hashcode] */\n      0x00\n        /* \"degree.sol\":1837:1845  hashcode */\n      dup5\n        /* \"degree.sol\":1829:1846  entries[hashcode] */\n      dup2\n      mstore\n      0x20\n      add\n      swap1\n      dup2\n      mstore\n      0x20\n      add\n      0x00\n      keccak256\n        /* \"degree.sol\":1829:1998  entries[hashcode] = Entry({... */\n      0x00\n      dup3\n      add\n      mload\n      dup2\n      0x00\n      add\n      exp(0x0100, 0x00)\n      dup2\n      sload\n      dup2\n      0xff\n      mul\n      not\n      and\n      swap1\n      dup4\n      iszero\n      iszero\n      mul\n      or\n      swap1\n      sstore\n      pop\n      0x20\n      dup3\n      add\n      mload\n      dup2\n      0x01\n      add\n      sstore\n      0x40\n      dup3\n      add\n      mload\n      dup2\n      0x02\n      add\n      sstore\n      0x60\n      dup3\n      add\n      mload\n      dup2\n      0x03\n      add\n      swap1\n      dup2\n      tag_70\n      swap2\n      swap1\n      tag_71\n      jump\t// in\n    tag_70:\n      pop\n      swap1\n      pop\n      pop\n        /* \"degree.sol\":1587:2005  {... */\n      pop\n      pop\n      pop\n        /* \"degree.sol\":1365:2005  function approveEntry(... */\n      pop\n      pop\n      pop\n      pop\n      pop\n      jump\t// out\n        /* \"degree.sol\":287:316  address public viceChancellor */\n    tag_43:\n      0x02\n      0x00\n      swap1\n      sload\n      swap1\n      0x0100\n      exp\n      swap1\n      div\n      0xffffffffffffffffffffffffffffffffffffffff\n      and\n      dup2\n      jump\t// out\n        /* \"#utility.yul\":7:82   */\n    tag_72:\n        /* \"#utility.yul\":40:46   */\n      0x00\n        /* \"#utility.yul\":73:75   */\n      0x40\n        /* \"#utility.yul\":67:76   */\n      mload\n        /* \"#utility.yul\":57:76   */\n      swap1\n      pop\n        /* \"#utility.yul\":7:82   */\n      swap1\n      jump\t// out\n        /* \"#utility.yul\":88:205   */\n    tag_73:\n        /* \"#utility.yul\":197:198   */\n      0x00\n        /* \"#utility.yul\":194:195   */\n      dup1\n        /* \"#utility.yul\":187:199   */\n      revert\n        /* \"#utility.yul\":211:328   */\n    tag_74:\n        /* \"#utility.yul\":320:321   */\n      0x00\n        /* \"#utility.yul\":317:318   */\n      dup1\n        /* \"#utility.yul\":310:322   */\n      revert\n        /* \"#utility.yul\":334:411   */\n    tag_75:\n        /* \"#utility.yul\":371:378   */\n      0x00\n        /* \"#utility.yul\":400:405   */\n      dup2\n        /* \"#utility.yul\":389:405   */\n      swap1\n      pop\n        /* \"#utility.yul\":334:411   */\n      swap2\n      swap1\n      pop\n      jump\t// out\n        /* \"#utility.yul\":417:539   */\n    tag_76:\n        /* \"#utility.yul\":490:514   */\n      tag_138\n        /* \"#utility.yul\":508:513   */\n      dup2\n        /* \"#utility.yul\":490:514   */\n      tag_75\n      jump\t// in\n    tag_138:\n        /* \"#utility.yul\":483:488   */\n      dup2\n        /* \"#utility.yul\":480:515   */\n      eq\n        /* \"#utility.yul\":470:533   */\n      tag_139\n      jumpi\n        /* \"#utility.yul\":529:530   */\n      0x00\n        /* \"#utility.yul\":526:527   */\n      dup1\n        /* \"#utility.yul\":519:531   */\n      revert\n        /* \"#utility.yul\":470:533   */\n    tag_139:\n        /* \"#utility.yul\":417:539   */\n      pop\n      jump\t// out\n        /* \"#utility.yul\":545:684   */\n    tag_77:\n        /* \"#utility.yul\":591:596   */\n      0x00\n        /* \"#utility.yul\":629:635   */\n      dup2\n        /* \"#utility.yul\":616:636   */\n      calldataload\n        /* \"#utility.yul\":607:636   */\n      swap1\n      pop\n        /* \"#utility.yul\":645:678   */\n      tag_141\n        /* \"#utility.yul\":672:677   */\n      dup2\n        /* \"#utility.yul\":645:678   */\n      tag_76\n      jump\t// in\n    tag_141:\n        /* \"#utility.yul\":545:684   */\n      swap3\n      swap2\n      pop\n      pop\n      jump\t// out\n        /* \"#utility.yul\":690:1019   */\n    tag_14:\n        /* \"#utility.yul\":749:755   */\n      0x00\n        /* \"#utility.yul\":798:800   */\n      0x20\n        /* \"#utility.yul\":786:795   */\n      dup3\n        /* \"#utility.yul\":777:784   */\n      dup5\n        /* \"#utility.yul\":773:796   */\n      sub\n        /* \"#utility.yul\":769:801   */\n      slt\n        /* \"#utility.yul\":766:885   */\n      iszero\n      tag_143\n      jumpi\n        /* \"#utility.yul\":804:883   */\n      tag_144\n      tag_73\n      jump\t// in\n    tag_144:\n        /* \"#utility.yul\":766:885   */\n    tag_143:\n        /* \"#utility.yul\":924:925   */\n      0x00\n        /* \"#utility.yul\":949:1002   */\n      tag_145\n        /* \"#utility.yul\":994:1001   */\n      dup5\n        /* \"#utility.yul\":985:991   */\n      dup3\n        /* \"#utility.yul\":974:983   */\n      dup6\n        /* \"#utility.yul\":970:992   */\n      add\n        /* \"#utility.yul\":949:1002   */\n      tag_77\n      jump\t// in\n    tag_145:\n        /* \"#utility.yul\":939:1002   */\n      swap2\n      pop\n        /* \"#utility.yul\":895:1012   */\n      pop\n        /* \"#utility.yul\":690:1019   */\n      swap3\n      swap2\n      pop\n      pop\n      jump\t// out\n        /* \"#utility.yul\":1025:1115   */\n    tag_78:\n        /* \"#utility.yul\":1059:1066   */\n      0x00\n        /* \"#utility.yul\":1102:1107   */\n      dup2\n        /* \"#utility.yul\":1095:1108   */\n      iszero\n        /* \"#utility.yul\":1088:1109   */\n      iszero\n        /* \"#utility.yul\":1077:1109   */\n      swap1\n      pop\n        /* \"#utility.yul\":1025:1115   */\n      swap2\n      swap1\n      pop\n      jump\t// out\n        /* \"#utility.yul\":1121:1230   */\n    tag_79:\n        /* \"#utility.yul\":1202:1223   */\n      tag_148\n        /* \"#utility.yul\":1217:1222   */\n      dup2\n        /* \"#utility.yul\":1202:1223   */\n      tag_78\n      jump\t// in\n    tag_148:\n        /* \"#utility.yul\":1197:1200   */\n      dup3\n        /* \"#utility.yul\":1190:1224   */\n      mstore\n        /* \"#utility.yul\":1121:1230   */\n      pop\n      pop\n      jump\t// out\n        /* \"#utility.yul\":1236:1354   */\n    tag_80:\n        /* \"#utility.yul\":1323:1347   */\n      tag_150\n        /* \"#utility.yul\":1341:1346   */\n      dup2\n        /* \"#utility.yul\":1323:1347   */\n      tag_75\n      jump\t// in\n    tag_150:\n        /* \"#utility.yul\":1318:1321   */\n      dup3\n        /* \"#utility.yul\":1311:1348   */\n      mstore\n        /* \"#utility.yul\":1236:1354   */\n      pop\n      pop\n      jump\t// out\n        /* \"#utility.yul\":1360:1437   */\n    tag_81:\n        /* \"#utility.yul\":1397:1404   */\n      0x00\n        /* \"#utility.yul\":1426:1431   */\n      dup2\n        /* \"#utility.yul\":1415:1431   */\n      swap1\n      pop\n        /* \"#utility.yul\":1360:1437   */\n      swap2\n      swap1\n      pop\n      jump\t// out\n        /* \"#utility.yul\":1443:1561   */\n    tag_82:\n        /* \"#utility.yul\":1530:1554   */\n      tag_153\n        /* \"#utility.yul\":1548:1553   */\n      dup2\n        /* \"#utility.yul\":1530:1554   */\n      tag_81\n      jump\t// in\n    tag_153:\n        /* \"#utility.yul\":1525:1528   */\n      dup3\n        /* \"#utility.yul\":1518:1555   */\n      mstore\n        /* \"#utility.yul\":1443:1561   */\n      pop\n      pop\n      jump\t// out\n        /* \"#utility.yul\":1567:1666   */\n    tag_83:\n        /* \"#utility.yul\":1619:1625   */\n      0x00\n        /* \"#utility.yul\":1653:1658   */\n      dup2\n        /* \"#utility.yul\":1647:1659   */\n      mload\n        /* \"#utility.yul\":1637:1659   */\n      swap1\n      pop\n        /* \"#utility.yul\":1567:1666   */\n      swap2\n      swap1\n      pop\n      jump\t// out\n        /* \"#utility.yul\":1672:1841   */\n    tag_84:\n        /* \"#utility.yul\":1756:1767   */\n      0x00\n        /* \"#utility.yul\":1790:1796   */\n      dup3\n        /* \"#utility.yul\":1785:1788   */\n      dup3\n        /* \"#utility.yul\":1778:1797   */\n      mstore\n        /* \"#utility.yul\":1830:1834   */\n      0x20\n        /* \"#utility.yul\":1825:1828   */\n      dup3\n        /* \"#utility.yul\":1821:1835   */\n      add\n        /* \"#utility.yul\":1806:1835   */\n      swap1\n      pop\n        /* \"#utility.yul\":1672:1841   */\n      swap3\n      swap2\n      pop\n      pop\n      jump\t// out\n        /* \"#utility.yul\":1847:2093   */\n    tag_85:\n        /* \"#utility.yul\":1928:1929   */\n      0x00\n        /* \"#utility.yul\":1938:2051   */\n    tag_157:\n        /* \"#utility.yul\":1952:1958   */\n      dup4\n        /* \"#utility.yul\":1949:1950   */\n      dup2\n        /* \"#utility.yul\":1946:1959   */\n      lt\n        /* \"#utility.yul\":1938:2051   */\n      iszero\n      tag_159\n      jumpi\n        /* \"#utility.yul\":2037:2038   */\n      dup1\n        /* \"#utility.yul\":2032:2035   */\n      dup3\n        /* \"#utility.yul\":2028:2039   */\n      add\n        /* \"#utility.yul\":2022:2040   */\n      mload\n        /* \"#utility.yul\":2018:2019   */\n      dup2\n        /* \"#utility.yul\":2013:2016   */\n      dup5\n        /* \"#utility.yul\":2009:2020   */\n      add\n        /* \"#utility.yul\":2002:2041   */\n      mstore\n        /* \"#utility.yul\":1974:1976   */\n      0x20\n        /* \"#utility.yul\":1971:1972   */\n      dup2\n        /* \"#utility.yul\":1967:1977   */\n      add\n        /* \"#utility.yul\":1962:1977   */\n      swap1\n      pop\n        /* \"#utility.yul\":1938:2051   */\n      jump(tag_157)\n    tag_159:\n        /* \"#utility.yul\":2085:2086   */\n      0x00\n        /* \"#utility.yul\":2076:2082   */\n      dup5\n        /* \"#utility.yul\":2071:2074   */\n      dup5\n        /* \"#utility.yul\":2067:2083   */\n      add\n        /* \"#utility.yul\":2060:2087   */\n      mstore\n        /* \"#utility.yul\":1909:2093   */\n      pop\n        /* \"#utility.yul\":1847:2093   */\n      pop\n      pop\n      pop\n      jump\t// out\n        /* \"#utility.yul\":2099:2201   */\n    tag_86:\n        /* \"#utility.yul\":2140:2146   */\n      0x00\n        /* \"#utility.yul\":2191:2193   */\n      0x1f\n        /* \"#utility.yul\":2187:2194   */\n      not\n        /* \"#utility.yul\":2182:2184   */\n      0x1f\n        /* \"#utility.yul\":2175:2180   */\n      dup4\n        /* \"#utility.yul\":2171:2185   */\n      add\n        /* \"#utility.yul\":2167:2195   */\n      and\n        /* \"#utility.yul\":2157:2195   */\n      swap1\n      pop\n        /* \"#utility.yul\":2099:2201   */\n      swap2\n      swap1\n      pop\n      jump\t// out\n        /* \"#utility.yul\":2207:2584   */\n    tag_87:\n        /* \"#utility.yul\":2295:2298   */\n      0x00\n        /* \"#utility.yul\":2323:2362   */\n      tag_162\n        /* \"#utility.yul\":2356:2361   */\n      dup3\n        /* \"#utility.yul\":2323:2362   */\n      tag_83\n      jump\t// in\n    tag_162:\n        /* \"#utility.yul\":2378:2449   */\n      tag_163\n        /* \"#utility.yul\":2442:2448   */\n      dup2\n        /* \"#utility.yul\":2437:2440   */\n      dup6\n        /* \"#utility.yul\":2378:2449   */\n      tag_84\n      jump\t// in\n    tag_163:\n        /* \"#utility.yul\":2371:2449   */\n      swap4\n      pop\n        /* \"#utility.yul\":2458:2523   */\n      tag_164\n        /* \"#utility.yul\":2516:2522   */\n      dup2\n        /* \"#utility.yul\":2511:2514   */\n      dup6\n        /* \"#utility.yul\":2504:2508   */\n      0x20\n        /* \"#utility.yul\":2497:2502   */\n      dup7\n        /* \"#utility.yul\":2493:2509   */\n      add\n        /* \"#utility.yul\":2458:2523   */\n      tag_85\n      jump\t// in\n    tag_164:\n        /* \"#utility.yul\":2548:2577   */\n      tag_165\n        /* \"#utility.yul\":2570:2576   */\n      dup2\n        /* \"#utility.yul\":2548:2577   */\n      tag_86\n      jump\t// in\n    tag_165:\n        /* \"#utility.yul\":2543:2546   */\n      dup5\n        /* \"#utility.yul\":2539:2578   */\n      add\n        /* \"#utility.yul\":2532:2578   */\n      swap2\n      pop\n        /* \"#utility.yul\":2299:2584   */\n      pop\n        /* \"#utility.yul\":2207:2584   */\n      swap3\n      swap2\n      pop\n      pop\n      jump\t// out\n        /* \"#utility.yul\":2590:3222   */\n    tag_17:\n        /* \"#utility.yul\":2781:2785   */\n      0x00\n        /* \"#utility.yul\":2819:2822   */\n      0x80\n        /* \"#utility.yul\":2808:2817   */\n      dup3\n        /* \"#utility.yul\":2804:2823   */\n      add\n        /* \"#utility.yul\":2796:2823   */\n      swap1\n      pop\n        /* \"#utility.yul\":2833:2898   */\n      tag_167\n        /* \"#utility.yul\":2895:2896   */\n      0x00\n        /* \"#utility.yul\":2884:2893   */\n      dup4\n        /* \"#utility.yul\":2880:2897   */\n      add\n        /* \"#utility.yul\":2871:2877   */\n      dup8\n        /* \"#utility.yul\":2833:2898   */\n      tag_79\n      jump\t// in\n    tag_167:\n        /* \"#utility.yul\":2908:2980   */\n      tag_168\n        /* \"#utility.yul\":2976:2978   */\n      0x20\n        /* \"#utility.yul\":2965:2974   */\n      dup4\n        /* \"#utility.yul\":2961:2979   */\n      add\n        /* \"#utility.yul\":2952:2958   */\n      dup7\n        /* \"#utility.yul\":2908:2980   */\n      tag_80\n      jump\t// in\n    tag_168:\n        /* \"#utility.yul\":2990:3062   */\n      tag_169\n        /* \"#utility.yul\":3058:3060   */\n      0x40\n        /* \"#utility.yul\":3047:3056   */\n      dup4\n        /* \"#utility.yul\":3043:3061   */\n      add\n        /* \"#utility.yul\":3034:3040   */\n      dup6\n        /* \"#utility.yul\":2990:3062   */\n      tag_82\n      jump\t// in\n    tag_169:\n        /* \"#utility.yul\":3109:3118   */\n      dup2\n        /* \"#utility.yul\":3103:3107   */\n      dup2\n        /* \"#utility.yul\":3099:3119   */\n      sub\n        /* \"#utility.yul\":3094:3096   */\n      0x60\n        /* \"#utility.yul\":3083:3092   */\n      dup4\n        /* \"#utility.yul\":3079:3097   */\n      add\n        /* \"#utility.yul\":3072:3120   */\n      mstore\n        /* \"#utility.yul\":3137:3215   */\n      tag_170\n        /* \"#utility.yul\":3210:3214   */\n      dup2\n        /* \"#utility.yul\":3201:3207   */\n      dup5\n        /* \"#utility.yul\":3137:3215   */\n      tag_87\n      jump\t// in\n    tag_170:\n        /* \"#utility.yul\":3129:3215   */\n      swap1\n      pop\n        /* \"#utility.yul\":2590:3222   */\n      swap6\n      swap5\n      pop\n      pop\n      pop\n      pop\n      pop\n      jump\t// out\n        /* \"#utility.yul\":3228:3354   */\n    tag_88:\n        /* \"#utility.yul\":3265:3272   */\n      0x00\n        /* \"#utility.yul\":3305:3347   */\n      0xffffffffffffffffffffffffffffffffffffffff\n        /* \"#utility.yul\":3298:3303   */\n      dup3\n        /* \"#utility.yul\":3294:3348   */\n      and\n        /* \"#utility.yul\":3283:3348   */\n      swap1\n      pop\n        /* \"#utility.yul\":3228:3354   */\n      swap2\n      swap1\n      pop\n      jump\t// out\n        /* \"#utility.yul\":3360:3456   */\n    tag_89:\n        /* \"#utility.yul\":3397:3404   */\n      0x00\n        /* \"#utility.yul\":3426:3450   */\n      tag_173\n        /* \"#utility.yul\":3444:3449   */\n      dup3\n        /* \"#utility.yul\":3426:3450   */\n      tag_88\n      jump\t// in\n    tag_173:\n        /* \"#utility.yul\":3415:3450   */\n      swap1\n      pop\n        /* \"#utility.yul\":3360:3456   */\n      swap2\n      swap1\n      pop\n      jump\t// out\n        /* \"#utility.yul\":3462:3580   */\n    tag_90:\n        /* \"#utility.yul\":3549:3573   */\n      tag_175\n        /* \"#utility.yul\":3567:3572   */\n      dup2\n        /* \"#utility.yul\":3549:3573   */\n      tag_89\n      jump\t// in\n    tag_175:\n        /* \"#utility.yul\":3544:3547   */\n      dup3\n        /* \"#utility.yul\":3537:3574   */\n      mstore\n        /* \"#utility.yul\":3462:3580   */\n      pop\n      pop\n      jump\t// out\n        /* \"#utility.yul\":3586:3808   */\n    tag_21:\n        /* \"#utility.yul\":3679:3683   */\n      0x00\n        /* \"#utility.yul\":3717:3719   */\n      0x20\n        /* \"#utility.yul\":3706:3715   */\n      dup3\n        /* \"#utility.yul\":3702:3720   */\n      add\n        /* \"#utility.yul\":3694:3720   */\n      swap1\n      pop\n        /* \"#utility.yul\":3730:3801   */\n      tag_177\n        /* \"#utility.yul\":3798:3799   */\n      0x00\n        /* \"#utility.yul\":3787:3796   */\n      dup4\n        /* \"#utility.yul\":3783:3800   */\n      add\n        /* \"#utility.yul\":3774:3780   */\n      dup5\n        /* \"#utility.yul\":3730:3801   */\n      tag_90\n      jump\t// in\n    tag_177:\n        /* \"#utility.yul\":3586:3808   */\n      swap3\n      swap2\n      pop\n      pop\n      jump\t// out\n        /* \"#utility.yul\":3814:3936   */\n    tag_91:\n        /* \"#utility.yul\":3887:3911   */\n      tag_179\n        /* \"#utility.yul\":3905:3910   */\n      dup2\n        /* \"#utility.yul\":3887:3911   */\n      tag_89\n      jump\t// in\n    tag_179:\n        /* \"#utility.yul\":3880:3885   */\n      dup2\n        /* \"#utility.yul\":3877:3912   */\n      eq\n        /* \"#utility.yul\":3867:3930   */\n      tag_180\n      jumpi\n        /* \"#utility.yul\":3926:3927   */\n      0x00\n        /* \"#utility.yul\":3923:3924   */\n      dup1\n        /* \"#utility.yul\":3916:3928   */\n      revert\n        /* \"#utility.yul\":3867:3930   */\n    tag_180:\n        /* \"#utility.yul\":3814:3936   */\n      pop\n      jump\t// out\n        /* \"#utility.yul\":3942:4081   */\n    tag_92:\n        /* \"#utility.yul\":3988:3993   */\n      0x00\n        /* \"#utility.yul\":4026:4032   */\n      dup2\n        /* \"#utility.yul\":4013:4033   */\n      calldataload\n        /* \"#utility.yul\":4004:4033   */\n      swap1\n      pop\n        /* \"#utility.yul\":4042:4075   */\n      tag_182\n        /* \"#utility.yul\":4069:4074   */\n      dup2\n        /* \"#utility.yul\":4042:4075   */\n      tag_91\n      jump\t// in\n    tag_182:\n        /* \"#utility.yul\":3942:4081   */\n      swap3\n      swap2\n      pop\n      pop\n      jump\t// out\n        /* \"#utility.yul\":4087:4416   */\n    tag_27:\n        /* \"#utility.yul\":4146:4152   */\n      0x00\n        /* \"#utility.yul\":4195:4197   */\n      0x20\n        /* \"#utility.yul\":4183:4192   */\n      dup3\n        /* \"#utility.yul\":4174:4181   */\n      dup5\n        /* \"#utility.yul\":4170:4193   */\n      sub\n        /* \"#utility.yul\":4166:4198   */\n      slt\n        /* \"#utility.yul\":4163:4282   */\n      iszero\n      tag_184\n      jumpi\n        /* \"#utility.yul\":4201:4280   */\n      tag_185\n      tag_73\n      jump\t// in\n    tag_185:\n        /* \"#utility.yul\":4163:4282   */\n    tag_184:\n        /* \"#utility.yul\":4321:4322   */\n      0x00\n        /* \"#utility.yul\":4346:4399   */\n      tag_186\n        /* \"#utility.yul\":4391:4398   */\n      dup5\n        /* \"#utility.yul\":4382:4388   */\n      dup3\n        /* \"#utility.yul\":4371:4380   */\n      dup6\n        /* \"#utility.yul\":4367:4389   */\n      add\n        /* \"#utility.yul\":4346:4399   */\n      tag_92\n      jump\t// in\n    tag_186:\n        /* \"#utility.yul\":4336:4399   */\n      swap2\n      pop\n        /* \"#utility.yul\":4292:4409   */\n      pop\n        /* \"#utility.yul\":4087:4416   */\n      swap3\n      swap2\n      pop\n      pop\n      jump\t// out\n        /* \"#utility.yul\":4422:4632   */\n    tag_30:\n        /* \"#utility.yul\":4509:4513   */\n      0x00\n        /* \"#utility.yul\":4547:4549   */\n      0x20\n        /* \"#utility.yul\":4536:4545   */\n      dup3\n        /* \"#utility.yul\":4532:4550   */\n      add\n        /* \"#utility.yul\":4524:4550   */\n      swap1\n      pop\n        /* \"#utility.yul\":4560:4625   */\n      tag_188\n        /* \"#utility.yul\":4622:4623   */\n      0x00\n        /* \"#utility.yul\":4611:4620   */\n      dup4\n        /* \"#utility.yul\":4607:4624   */\n      add\n        /* \"#utility.yul\":4598:4604   */\n      dup5\n        /* \"#utility.yul\":4560:4625   */\n      tag_79\n      jump\t// in\n    tag_188:\n        /* \"#utility.yul\":4422:4632   */\n      swap3\n      swap2\n      pop\n      pop\n      jump\t// out\n        /* \"#utility.yul\":4638:4754   */\n    tag_93:\n        /* \"#utility.yul\":4708:4729   */\n      tag_190\n        /* \"#utility.yul\":4723:4728   */\n      dup2\n        /* \"#utility.yul\":4708:4729   */\n      tag_78\n      jump\t// in\n    tag_190:\n        /* \"#utility.yul\":4701:4706   */\n      dup2\n        /* \"#utility.yul\":4698:4730   */\n      eq\n        /* \"#utility.yul\":4688:4748   */\n      tag_191\n      jumpi\n        /* \"#utility.yul\":4744:4745   */\n      0x00\n        /* \"#utility.yul\":4741:4742   */\n      dup1\n        /* \"#utility.yul\":4734:4746   */\n      revert\n        /* \"#utility.yul\":4688:4748   */\n    tag_191:\n        /* \"#utility.yul\":4638:4754   */\n      pop\n      jump\t// out\n        /* \"#utility.yul\":4760:4893   */\n    tag_94:\n        /* \"#utility.yul\":4803:4808   */\n      0x00\n        /* \"#utility.yul\":4841:4847   */\n      dup2\n        /* \"#utility.yul\":4828:4848   */\n      calldataload\n        /* \"#utility.yul\":4819:4848   */\n      swap1\n      pop\n        /* \"#utility.yul\":4857:4887   */\n      tag_193\n        /* \"#utility.yul\":4881:4886   */\n      dup2\n        /* \"#utility.yul\":4857:4887   */\n      tag_93\n      jump\t// in\n    tag_193:\n        /* \"#utility.yul\":4760:4893   */\n      swap3\n      swap2\n      pop\n      pop\n      jump\t// out\n        /* \"#utility.yul\":4899:5367   */\n    tag_33:\n        /* \"#utility.yul\":4964:4970   */\n      0x00\n        /* \"#utility.yul\":4972:4978   */\n      dup1\n        /* \"#utility.yul\":5021:5023   */\n      0x40\n        /* \"#utility.yul\":5009:5018   */\n      dup4\n        /* \"#utility.yul\":5000:5007   */\n      dup6\n        /* \"#utility.yul\":4996:5019   */\n      sub\n        /* \"#utility.yul\":4992:5024   */\n      slt\n        /* \"#utility.yul\":4989:5108   */\n      iszero\n      tag_195\n      jumpi\n        /* \"#utility.yul\":5027:5106   */\n      tag_196\n      tag_73\n      jump\t// in\n    tag_196:\n        /* \"#utility.yul\":4989:5108   */\n    tag_195:\n        /* \"#utility.yul\":5147:5148   */\n      0x00\n        /* \"#utility.yul\":5172:5225   */\n      tag_197\n        /* \"#utility.yul\":5217:5224   */\n      dup6\n        /* \"#utility.yul\":5208:5214   */\n      dup3\n        /* \"#utility.yul\":5197:5206   */\n      dup7\n        /* \"#utility.yul\":5193:5215   */\n      add\n        /* \"#utility.yul\":5172:5225   */\n      tag_92\n      jump\t// in\n    tag_197:\n        /* \"#utility.yul\":5162:5225   */\n      swap3\n      pop\n        /* \"#utility.yul\":5118:5235   */\n      pop\n        /* \"#utility.yul\":5274:5276   */\n      0x20\n        /* \"#utility.yul\":5300:5350   */\n      tag_198\n        /* \"#utility.yul\":5342:5349   */\n      dup6\n        /* \"#utility.yul\":5333:5339   */\n      dup3\n        /* \"#utility.yul\":5322:5331   */\n      dup7\n        /* \"#utility.yul\":5318:5340   */\n      add\n        /* \"#utility.yul\":5300:5350   */\n      tag_94\n      jump\t// in\n    tag_198:\n        /* \"#utility.yul\":5290:5350   */\n      swap2\n      pop\n        /* \"#utility.yul\":5245:5360   */\n      pop\n        /* \"#utility.yul\":4899:5367   */\n      swap3\n      pop\n      swap3\n      swap1\n      pop\n      jump\t// out\n        /* \"#utility.yul\":5373:5495   */\n    tag_95:\n        /* \"#utility.yul\":5446:5470   */\n      tag_200\n        /* \"#utility.yul\":5464:5469   */\n      dup2\n        /* \"#utility.yul\":5446:5470   */\n      tag_81\n      jump\t// in\n    tag_200:\n        /* \"#utility.yul\":5439:5444   */\n      dup2\n        /* \"#utility.yul\":5436:5471   */\n      eq\n        /* \"#utility.yul\":5426:5489   */\n      tag_201\n      jumpi\n        /* \"#utility.yul\":5485:5486   */\n      0x00\n        /* \"#utility.yul\":5482:5483   */\n      dup1\n        /* \"#utility.yul\":5475:5487   */\n      revert\n        /* \"#utility.yul\":5426:5489   */\n    tag_201:\n        /* \"#utility.yul\":5373:5495   */\n      pop\n      jump\t// out\n        /* \"#utility.yul\":5501:5640   */\n    tag_96:\n        /* \"#utility.yul\":5547:5552   */\n      0x00\n        /* \"#utility.yul\":5585:5591   */\n      dup2\n        /* \"#utility.yul\":5572:5592   */\n      calldataload\n        /* \"#utility.yul\":5563:5592   */\n      swap1\n      pop\n        /* \"#utility.yul\":5601:5634   */\n      tag_203\n        /* \"#utility.yul\":5628:5633   */\n      dup2\n        /* \"#utility.yul\":5601:5634   */\n      tag_95\n      jump\t// in\n    tag_203:\n        /* \"#utility.yul\":5501:5640   */\n      swap3\n      swap2\n      pop\n      pop\n      jump\t// out\n        /* \"#utility.yul\":5646:5763   */\n    tag_97:\n        /* \"#utility.yul\":5755:5756   */\n      0x00\n        /* \"#utility.yul\":5752:5753   */\n      dup1\n        /* \"#utility.yul\":5745:5757   */\n      revert\n        /* \"#utility.yul\":5769:5886   */\n    tag_98:\n        /* \"#utility.yul\":5878:5879   */\n      0x00\n        /* \"#utility.yul\":5875:5876   */\n      dup1\n        /* \"#utility.yul\":5868:5880   */\n      revert\n        /* \"#utility.yul\":5892:6072   */\n    tag_99:\n        /* \"#utility.yul\":5940:6017   */\n      0x4e487b7100000000000000000000000000000000000000000000000000000000\n        /* \"#utility.yul\":5937:5938   */\n      0x00\n        /* \"#utility.yul\":5930:6018   */\n      mstore\n        /* \"#utility.yul\":6037:6041   */\n      0x41\n        /* \"#utility.yul\":6034:6035   */\n      0x04\n        /* \"#utility.yul\":6027:6042   */\n      mstore\n        /* \"#utility.yul\":6061:6065   */\n      0x24\n        /* \"#utility.yul\":6058:6059   */\n      0x00\n        /* \"#utility.yul\":6051:6066   */\n      revert\n        /* \"#utility.yul\":6078:6359   */\n    tag_100:\n        /* \"#utility.yul\":6161:6188   */\n      tag_208\n        /* \"#utility.yul\":6183:6187   */\n      dup3\n        /* \"#utility.yul\":6161:6188   */\n      tag_86\n      jump\t// in\n    tag_208:\n        /* \"#utility.yul\":6153:6159   */\n      dup2\n        /* \"#utility.yul\":6149:6189   */\n      add\n        /* \"#utility.yul\":6291:6297   */\n      dup2\n        /* \"#utility.yul\":6279:6289   */\n      dup2\n        /* \"#utility.yul\":6276:6298   */\n      lt\n        /* \"#utility.yul\":6255:6273   */\n      0xffffffffffffffff\n        /* \"#utility.yul\":6243:6253   */\n      dup3\n        /* \"#utility.yul\":6240:6274   */\n      gt\n        /* \"#utility.yul\":6237:6299   */\n      or\n        /* \"#utility.yul\":6234:6322   */\n      iszero\n      tag_209\n      jumpi\n        /* \"#utility.yul\":6302:6320   */\n      tag_210\n      tag_99\n      jump\t// in\n    tag_210:\n        /* \"#utility.yul\":6234:6322   */\n    tag_209:\n        /* \"#utility.yul\":6342:6352   */\n      dup1\n        /* \"#utility.yul\":6338:6340   */\n      0x40\n        /* \"#utility.yul\":6331:6353   */\n      mstore\n        /* \"#utility.yul\":6121:6359   */\n      pop\n        /* \"#utility.yul\":6078:6359   */\n      pop\n      pop\n      jump\t// out\n        /* \"#utility.yul\":6365:6494   */\n    tag_101:\n        /* \"#utility.yul\":6399:6405   */\n      0x00\n        /* \"#utility.yul\":6426:6446   */\n      tag_212\n      tag_72\n      jump\t// in\n    tag_212:\n        /* \"#utility.yul\":6416:6446   */\n      swap1\n      pop\n        /* \"#utility.yul\":6455:6488   */\n      tag_213\n        /* \"#utility.yul\":6483:6487   */\n      dup3\n        /* \"#utility.yul\":6475:6481   */\n      dup3\n        /* \"#utility.yul\":6455:6488   */\n      tag_100\n      jump\t// in\n    tag_213:\n        /* \"#utility.yul\":6365:6494   */\n      swap2\n      swap1\n      pop\n      jump\t// out\n        /* \"#utility.yul\":6500:6808   */\n    tag_102:\n        /* \"#utility.yul\":6562:6566   */\n      0x00\n        /* \"#utility.yul\":6652:6670   */\n      0xffffffffffffffff\n        /* \"#utility.yul\":6644:6650   */\n      dup3\n        /* \"#utility.yul\":6641:6671   */\n      gt\n        /* \"#utility.yul\":6638:6694   */\n      iszero\n      tag_215\n      jumpi\n        /* \"#utility.yul\":6674:6692   */\n      tag_216\n      tag_99\n      jump\t// in\n    tag_216:\n        /* \"#utility.yul\":6638:6694   */\n    tag_215:\n        /* \"#utility.yul\":6712:6741   */\n      tag_217\n        /* \"#utility.yul\":6734:6740   */\n      dup3\n        /* \"#utility.yul\":6712:6741   */\n      tag_86\n      jump\t// in\n    tag_217:\n        /* \"#utility.yul\":6704:6741   */\n      swap1\n      pop\n        /* \"#utility.yul\":6796:6800   */\n      0x20\n        /* \"#utility.yul\":6790:6794   */\n      dup2\n        /* \"#utility.yul\":6786:6801   */\n      add\n        /* \"#utility.yul\":6778:6801   */\n      swap1\n      pop\n        /* \"#utility.yul\":6500:6808   */\n      swap2\n      swap1\n      pop\n      jump\t// out\n        /* \"#utility.yul\":6814:6960   */\n    tag_103:\n        /* \"#utility.yul\":6911:6917   */\n      dup3\n        /* \"#utility.yul\":6906:6909   */\n      dup2\n        /* \"#utility.yul\":6901:6904   */\n      dup4\n        /* \"#utility.yul\":6888:6918   */\n      calldatacopy\n        /* \"#utility.yul\":6952:6953   */\n      0x00\n        /* \"#utility.yul\":6943:6949   */\n      dup4\n        /* \"#utility.yul\":6938:6941   */\n      dup4\n        /* \"#utility.yul\":6934:6950   */\n      add\n        /* \"#utility.yul\":6927:6954   */\n      mstore\n        /* \"#utility.yul\":6814:6960   */\n      pop\n      pop\n      pop\n      jump\t// out\n        /* \"#utility.yul\":6966:7391   */\n    tag_104:\n        /* \"#utility.yul\":7044:7049   */\n      0x00\n        /* \"#utility.yul\":7069:7135   */\n      tag_220\n        /* \"#utility.yul\":7085:7134   */\n      tag_221\n        /* \"#utility.yul\":7127:7133   */\n      dup5\n        /* \"#utility.yul\":7085:7134   */\n      tag_102\n      jump\t// in\n    tag_221:\n        /* \"#utility.yul\":7069:7135   */\n      tag_101\n      jump\t// in\n    tag_220:\n        /* \"#utility.yul\":7060:7135   */\n      swap1\n      pop\n        /* \"#utility.yul\":7158:7164   */\n      dup3\n        /* \"#utility.yul\":7151:7156   */\n      dup2\n        /* \"#utility.yul\":7144:7165   */\n      mstore\n        /* \"#utility.yul\":7196:7200   */\n      0x20\n        /* \"#utility.yul\":7189:7194   */\n      dup2\n        /* \"#utility.yul\":7185:7201   */\n      add\n        /* \"#utility.yul\":7234:7237   */\n      dup5\n        /* \"#utility.yul\":7225:7231   */\n      dup5\n        /* \"#utility.yul\":7220:7223   */\n      dup5\n        /* \"#utility.yul\":7216:7232   */\n      add\n        /* \"#utility.yul\":7213:7238   */\n      gt\n        /* \"#utility.yul\":7210:7322   */\n      iszero\n      tag_222\n      jumpi\n        /* \"#utility.yul\":7241:7320   */\n      tag_223\n      tag_98\n      jump\t// in\n    tag_223:\n        /* \"#utility.yul\":7210:7322   */\n    tag_222:\n        /* \"#utility.yul\":7331:7385   */\n      tag_224\n        /* \"#utility.yul\":7378:7384   */\n      dup5\n        /* \"#utility.yul\":7373:7376   */\n      dup3\n        /* \"#utility.yul\":7368:7371   */\n      dup6\n        /* \"#utility.yul\":7331:7385   */\n      tag_103\n      jump\t// in\n    tag_224:\n        /* \"#utility.yul\":7050:7391   */\n      pop\n        /* \"#utility.yul\":6966:7391   */\n      swap4\n      swap3\n      pop\n      pop\n      pop\n      jump\t// out\n        /* \"#utility.yul\":7411:7751   */\n    tag_105:\n        /* \"#utility.yul\":7467:7472   */\n      0x00\n        /* \"#utility.yul\":7516:7519   */\n      dup3\n        /* \"#utility.yul\":7509:7513   */\n      0x1f\n        /* \"#utility.yul\":7501:7507   */\n      dup4\n        /* \"#utility.yul\":7497:7514   */\n      add\n        /* \"#utility.yul\":7493:7520   */\n      slt\n        /* \"#utility.yul\":7483:7605   */\n      tag_226\n      jumpi\n        /* \"#utility.yul\":7524:7603   */\n      tag_227\n      tag_97\n      jump\t// in\n    tag_227:\n        /* \"#utility.yul\":7483:7605   */\n    tag_226:\n        /* \"#utility.yul\":7641:7647   */\n      dup2\n        /* \"#utility.yul\":7628:7648   */\n      calldataload\n        /* \"#utility.yul\":7666:7745   */\n      tag_228\n        /* \"#utility.yul\":7741:7744   */\n      dup5\n        /* \"#utility.yul\":7733:7739   */\n      dup3\n        /* \"#utility.yul\":7726:7730   */\n      0x20\n        /* \"#utility.yul\":7718:7724   */\n      dup7\n        /* \"#utility.yul\":7714:7731   */\n      add\n        /* \"#utility.yul\":7666:7745   */\n      tag_104\n      jump\t// in\n    tag_228:\n        /* \"#utility.yul\":7657:7745   */\n      swap2\n      pop\n        /* \"#utility.yul\":7473:7751   */\n      pop\n        /* \"#utility.yul\":7411:7751   */\n      swap3\n      swap2\n      pop\n      pop\n      jump\t// out\n        /* \"#utility.yul\":7757:8830   */\n    tag_40:\n        /* \"#utility.yul\":7853:7859   */\n      0x00\n        /* \"#utility.yul\":7861:7867   */\n      dup1\n        /* \"#utility.yul\":7869:7875   */\n      0x00\n        /* \"#utility.yul\":7877:7883   */\n      dup1\n        /* \"#utility.yul\":7885:7891   */\n      0x00\n        /* \"#utility.yul\":7934:7937   */\n      0xa0\n        /* \"#utility.yul\":7922:7931   */\n      dup7\n        /* \"#utility.yul\":7913:7920   */\n      dup9\n        /* \"#utility.yul\":7909:7932   */\n      sub\n        /* \"#utility.yul\":7905:7938   */\n      slt\n        /* \"#utility.yul\":7902:8022   */\n      iszero\n      tag_230\n      jumpi\n        /* \"#utility.yul\":7941:8020   */\n      tag_231\n      tag_73\n      jump\t// in\n    tag_231:\n        /* \"#utility.yul\":7902:8022   */\n    tag_230:\n        /* \"#utility.yul\":8061:8062   */\n      0x00\n        /* \"#utility.yul\":8086:8136   */\n      tag_232\n        /* \"#utility.yul\":8128:8135   */\n      dup9\n        /* \"#utility.yul\":8119:8125   */\n      dup3\n        /* \"#utility.yul\":8108:8117   */\n      dup10\n        /* \"#utility.yul\":8104:8126   */\n      add\n        /* \"#utility.yul\":8086:8136   */\n      tag_94\n      jump\t// in\n    tag_232:\n        /* \"#utility.yul\":8076:8136   */\n      swap6\n      pop\n        /* \"#utility.yul\":8032:8146   */\n      pop\n        /* \"#utility.yul\":8185:8187   */\n      0x20\n        /* \"#utility.yul\":8211:8261   */\n      tag_233\n        /* \"#utility.yul\":8253:8260   */\n      dup9\n        /* \"#utility.yul\":8244:8250   */\n      dup3\n        /* \"#utility.yul\":8233:8242   */\n      dup10\n        /* \"#utility.yul\":8229:8251   */\n      add\n        /* \"#utility.yul\":8211:8261   */\n      tag_94\n      jump\t// in\n    tag_233:\n        /* \"#utility.yul\":8201:8261   */\n      swap5\n      pop\n        /* \"#utility.yul\":8156:8271   */\n      pop\n        /* \"#utility.yul\":8310:8312   */\n      0x40\n        /* \"#utility.yul\":8336:8386   */\n      tag_234\n        /* \"#utility.yul\":8378:8385   */\n      dup9\n        /* \"#utility.yul\":8369:8375   */\n      dup3\n        /* \"#utility.yul\":8358:8367   */\n      dup10\n        /* \"#utility.yul\":8354:8376   */\n      add\n        /* \"#utility.yul\":8336:8386   */\n      tag_94\n      jump\t// in\n    tag_234:\n        /* \"#utility.yul\":8326:8386   */\n      swap4\n      pop\n        /* \"#utility.yul\":8281:8396   */\n      pop\n        /* \"#utility.yul\":8435:8437   */\n      0x60\n        /* \"#utility.yul\":8461:8514   */\n      tag_235\n        /* \"#utility.yul\":8506:8513   */\n      dup9\n        /* \"#utility.yul\":8497:8503   */\n      dup3\n        /* \"#utility.yul\":8486:8495   */\n      dup10\n        /* \"#utility.yul\":8482:8504   */\n      add\n        /* \"#utility.yul\":8461:8514   */\n      tag_96\n      jump\t// in\n    tag_235:\n        /* \"#utility.yul\":8451:8514   */\n      swap3\n      pop\n        /* \"#utility.yul\":8406:8524   */\n      pop\n        /* \"#utility.yul\":8591:8594   */\n      0x80\n        /* \"#utility.yul\":8580:8589   */\n      dup7\n        /* \"#utility.yul\":8576:8595   */\n      add\n        /* \"#utility.yul\":8563:8596   */\n      calldataload\n        /* \"#utility.yul\":8623:8641   */\n      0xffffffffffffffff\n        /* \"#utility.yul\":8615:8621   */\n      dup2\n        /* \"#utility.yul\":8612:8642   */\n      gt\n        /* \"#utility.yul\":8609:8726   */\n      iszero\n      tag_236\n      jumpi\n        /* \"#utility.yul\":8645:8724   */\n      tag_237\n      tag_74\n      jump\t// in\n    tag_237:\n        /* \"#utility.yul\":8609:8726   */\n    tag_236:\n        /* \"#utility.yul\":8750:8813   */\n      tag_238\n        /* \"#utility.yul\":8805:8812   */\n      dup9\n        /* \"#utility.yul\":8796:8802   */\n      dup3\n        /* \"#utility.yul\":8785:8794   */\n      dup10\n        /* \"#utility.yul\":8781:8803   */\n      add\n        /* \"#utility.yul\":8750:8813   */\n      tag_105\n      jump\t// in\n    tag_238:\n        /* \"#utility.yul\":8740:8813   */\n      swap2\n      pop\n        /* \"#utility.yul\":8534:8823   */\n      pop\n        /* \"#utility.yul\":7757:8830   */\n      swap3\n      swap6\n      pop\n      swap3\n      swap6\n      swap1\n      swap4\n      pop\n      jump\t// out\n        /* \"#utility.yul\":8836:9016   */\n    tag_106:\n        /* \"#utility.yul\":8884:8961   */\n      0x4e487b7100000000000000000000000000000000000000000000000000000000\n        /* \"#utility.yul\":8881:8882   */\n      0x00\n        /* \"#utility.yul\":8874:8962   */\n      mstore\n        /* \"#utility.yul\":8981:8985   */\n      0x22\n        /* \"#utility.yul\":8978:8979   */\n      0x04\n        /* \"#utility.yul\":8971:8986   */\n      mstore\n        /* \"#utility.yul\":9005:9009   */\n      0x24\n        /* \"#utility.yul\":9002:9003   */\n      0x00\n        /* \"#utility.yul\":8995:9010   */\n      revert\n        /* \"#utility.yul\":9022:9342   */\n    tag_46:\n        /* \"#utility.yul\":9066:9072   */\n      0x00\n        /* \"#utility.yul\":9103:9104   */\n      0x02\n        /* \"#utility.yul\":9097:9101   */\n      dup3\n        /* \"#utility.yul\":9093:9105   */\n      div\n        /* \"#utility.yul\":9083:9105   */\n      swap1\n      pop\n        /* \"#utility.yul\":9150:9151   */\n      0x01\n        /* \"#utility.yul\":9144:9148   */\n      dup3\n        /* \"#utility.yul\":9140:9152   */\n      and\n        /* \"#utility.yul\":9171:9189   */\n      dup1\n        /* \"#utility.yul\":9161:9242   */\n      tag_241\n      jumpi\n        /* \"#utility.yul\":9227:9231   */\n      0x7f\n        /* \"#utility.yul\":9219:9225   */\n      dup3\n        /* \"#utility.yul\":9215:9232   */\n      and\n        /* \"#utility.yul\":9205:9232   */\n      swap2\n      pop\n        /* \"#utility.yul\":9161:9242   */\n    tag_241:\n        /* \"#utility.yul\":9289:9291   */\n      0x20\n        /* \"#utility.yul\":9281:9287   */\n      dup3\n        /* \"#utility.yul\":9278:9292   */\n      lt\n        /* \"#utility.yul\":9258:9276   */\n      dup2\n        /* \"#utility.yul\":9255:9293   */\n      sub\n        /* \"#utility.yul\":9252:9336   */\n      tag_242\n      jumpi\n        /* \"#utility.yul\":9308:9326   */\n      tag_243\n      tag_106\n      jump\t// in\n    tag_243:\n        /* \"#utility.yul\":9252:9336   */\n    tag_242:\n        /* \"#utility.yul\":9073:9342   */\n      pop\n        /* \"#utility.yul\":9022:9342   */\n      swap2\n      swap1\n      pop\n      jump\t// out\n        /* \"#utility.yul\":9348:9582   */\n    tag_107:\n        /* \"#utility.yul\":9488:9522   */\n      0x4f6e6c79204461746120456e747279204d616e616765722063616e2070657266\n        /* \"#utility.yul\":9484:9485   */\n      0x00\n        /* \"#utility.yul\":9476:9482   */\n      dup3\n        /* \"#utility.yul\":9472:9486   */\n      add\n        /* \"#utility.yul\":9465:9523   */\n      mstore\n        /* \"#utility.yul\":9557:9574   */\n      0x6f726d207468697320616374696f6e0000000000000000000000000000000000\n        /* \"#utility.yul\":9552:9554   */\n      0x20\n        /* \"#utility.yul\":9544:9550   */\n      dup3\n        /* \"#utility.yul\":9540:9555   */\n      add\n        /* \"#utility.yul\":9533:9575   */\n      mstore\n        /* \"#utility.yul\":9348:9582   */\n      pop\n      jump\t// out\n        /* \"#utility.yul\":9588:9954   */\n    tag_108:\n        /* \"#utility.yul\":9730:9733   */\n      0x00\n        /* \"#utility.yul\":9751:9818   */\n      tag_246\n        /* \"#utility.yul\":9815:9817   */\n      0x2f\n        /* \"#utility.yul\":9810:9813   */\n      dup4\n        /* \"#utility.yul\":9751:9818   */\n      tag_84\n      jump\t// in\n    tag_246:\n        /* \"#utility.yul\":9744:9818   */\n      swap2\n      pop\n        /* \"#utility.yul\":9827:9920   */\n      tag_247\n        /* \"#utility.yul\":9916:9919   */\n      dup3\n        /* \"#utility.yul\":9827:9920   */\n      tag_107\n      jump\t// in\n    tag_247:\n        /* \"#utility.yul\":9945:9947   */\n      0x40\n        /* \"#utility.yul\":9940:9943   */\n      dup3\n        /* \"#utility.yul\":9936:9948   */\n      add\n        /* \"#utility.yul\":9929:9948   */\n      swap1\n      pop\n        /* \"#utility.yul\":9588:9954   */\n      swap2\n      swap1\n      pop\n      jump\t// out\n        /* \"#utility.yul\":9960:10379   */\n    tag_54:\n        /* \"#utility.yul\":10126:10130   */\n      0x00\n        /* \"#utility.yul\":10164:10166   */\n      0x20\n        /* \"#utility.yul\":10153:10162   */\n      dup3\n        /* \"#utility.yul\":10149:10167   */\n      add\n        /* \"#utility.yul\":10141:10167   */\n      swap1\n      pop\n        /* \"#utility.yul\":10213:10222   */\n      dup2\n        /* \"#utility.yul\":10207:10211   */\n      dup2\n        /* \"#utility.yul\":10203:10223   */\n      sub\n        /* \"#utility.yul\":10199:10200   */\n      0x00\n        /* \"#utility.yul\":10188:10197   */\n      dup4\n        /* \"#utility.yul\":10184:10201   */\n      add\n        /* \"#utility.yul\":10177:10224   */\n      mstore\n        /* \"#utility.yul\":10241:10372   */\n      tag_249\n        /* \"#utility.yul\":10367:10371   */\n      dup2\n        /* \"#utility.yul\":10241:10372   */\n      tag_108\n      jump\t// in\n    tag_249:\n        /* \"#utility.yul\":10233:10372   */\n      swap1\n      pop\n        /* \"#utility.yul\":9960:10379   */\n      swap2\n      swap1\n      pop\n      jump\t// out\n        /* \"#utility.yul\":10385:10464   */\n    tag_109:\n        /* \"#utility.yul\":10424:10431   */\n      0x00\n        /* \"#utility.yul\":10453:10458   */\n      dup2\n        /* \"#utility.yul\":10442:10458   */\n      swap1\n      pop\n        /* \"#utility.yul\":10385:10464   */\n      swap2\n      swap1\n      pop\n      jump\t// out\n        /* \"#utility.yul\":10470:10627   */\n    tag_110:\n        /* \"#utility.yul\":10575:10620   */\n      tag_252\n        /* \"#utility.yul\":10595:10619   */\n      tag_253\n        /* \"#utility.yul\":10613:10618   */\n      dup3\n        /* \"#utility.yul\":10595:10619   */\n      tag_81\n      jump\t// in\n    tag_253:\n        /* \"#utility.yul\":10575:10620   */\n      tag_109\n      jump\t// in\n    tag_252:\n        /* \"#utility.yul\":10570:10573   */\n      dup3\n        /* \"#utility.yul\":10563:10621   */\n      mstore\n        /* \"#utility.yul\":10470:10627   */\n      pop\n      pop\n      jump\t// out\n        /* \"#utility.yul\":10633:10781   */\n    tag_111:\n        /* \"#utility.yul\":10735:10746   */\n      0x00\n        /* \"#utility.yul\":10772:10775   */\n      dup2\n        /* \"#utility.yul\":10757:10775   */\n      swap1\n      pop\n        /* \"#utility.yul\":10633:10781   */\n      swap3\n      swap2\n      pop\n      pop\n      jump\t// out\n        /* \"#utility.yul\":10787:11177   */\n    tag_112:\n        /* \"#utility.yul\":10893:10896   */\n      0x00\n        /* \"#utility.yul\":10921:10960   */\n      tag_256\n        /* \"#utility.yul\":10954:10959   */\n      dup3\n        /* \"#utility.yul\":10921:10960   */\n      tag_83\n      jump\t// in\n    tag_256:\n        /* \"#utility.yul\":10976:11065   */\n      tag_257\n        /* \"#utility.yul\":11058:11064   */\n      dup2\n        /* \"#utility.yul\":11053:11056   */\n      dup6\n        /* \"#utility.yul\":10976:11065   */\n      tag_111\n      jump\t// in\n    tag_257:\n        /* \"#utility.yul\":10969:11065   */\n      swap4\n      pop\n        /* \"#utility.yul\":11074:11139   */\n      tag_258\n        /* \"#utility.yul\":11132:11138   */\n      dup2\n        /* \"#utility.yul\":11127:11130   */\n      dup6\n        /* \"#utility.yul\":11120:11124   */\n      0x20\n        /* \"#utility.yul\":11113:11118   */\n      dup7\n        /* \"#utility.yul\":11109:11125   */\n      add\n        /* \"#utility.yul\":11074:11139   */\n      tag_85\n      jump\t// in\n    tag_258:\n        /* \"#utility.yul\":11164:11170   */\n      dup1\n        /* \"#utility.yul\":11159:11162   */\n      dup5\n        /* \"#utility.yul\":11155:11171   */\n      add\n        /* \"#utility.yul\":11148:11171   */\n      swap2\n      pop\n        /* \"#utility.yul\":10897:11177   */\n      pop\n        /* \"#utility.yul\":10787:11177   */\n      swap3\n      swap2\n      pop\n      pop\n      jump\t// out\n        /* \"#utility.yul\":11183:11740   */\n    tag_61:\n        /* \"#utility.yul\":11371:11374   */\n      0x00\n        /* \"#utility.yul\":11386:11461   */\n      tag_260\n        /* \"#utility.yul\":11457:11460   */\n      dup3\n        /* \"#utility.yul\":11448:11454   */\n      dup7\n        /* \"#utility.yul\":11386:11461   */\n      tag_110\n      jump\t// in\n    tag_260:\n        /* \"#utility.yul\":11486:11488   */\n      0x20\n        /* \"#utility.yul\":11481:11484   */\n      dup3\n        /* \"#utility.yul\":11477:11489   */\n      add\n        /* \"#utility.yul\":11470:11489   */\n      swap2\n      pop\n        /* \"#utility.yul\":11499:11574   */\n      tag_261\n        /* \"#utility.yul\":11570:11573   */\n      dup3\n        /* \"#utility.yul\":11561:11567   */\n      dup6\n        /* \"#utility.yul\":11499:11574   */\n      tag_110\n      jump\t// in\n    tag_261:\n        /* \"#utility.yul\":11599:11601   */\n      0x20\n        /* \"#utility.yul\":11594:11597   */\n      dup3\n        /* \"#utility.yul\":11590:11602   */\n      add\n        /* \"#utility.yul\":11583:11602   */\n      swap2\n      pop\n        /* \"#utility.yul\":11619:11714   */\n      tag_262\n        /* \"#utility.yul\":11710:11713   */\n      dup3\n        /* \"#utility.yul\":11701:11707   */\n      dup5\n        /* \"#utility.yul\":11619:11714   */\n      tag_112\n      jump\t// in\n    tag_262:\n        /* \"#utility.yul\":11612:11714   */\n      swap2\n      pop\n        /* \"#utility.yul\":11731:11734   */\n      dup2\n        /* \"#utility.yul\":11724:11734   */\n      swap1\n      pop\n        /* \"#utility.yul\":11183:11740   */\n      swap5\n      swap4\n      pop\n      pop\n      pop\n      pop\n      jump\t// out\n        /* \"#utility.yul\":11746:11844   */\n    tag_113:\n        /* \"#utility.yul\":11797:11803   */\n      0x00\n        /* \"#utility.yul\":11831:11836   */\n      dup2\n        /* \"#utility.yul\":11825:11837   */\n      mload\n        /* \"#utility.yul\":11815:11837   */\n      swap1\n      pop\n        /* \"#utility.yul\":11746:11844   */\n      swap2\n      swap1\n      pop\n      jump\t// out\n        /* \"#utility.yul\":11850:11997   */\n    tag_114:\n        /* \"#utility.yul\":11951:11962   */\n      0x00\n        /* \"#utility.yul\":11988:11991   */\n      dup2\n        /* \"#utility.yul\":11973:11991   */\n      swap1\n      pop\n        /* \"#utility.yul\":11850:11997   */\n      swap3\n      swap2\n      pop\n      pop\n      jump\t// out\n        /* \"#utility.yul\":12003:12389   */\n    tag_115:\n        /* \"#utility.yul\":12107:12110   */\n      0x00\n        /* \"#utility.yul\":12135:12173   */\n      tag_266\n        /* \"#utility.yul\":12167:12172   */\n      dup3\n        /* \"#utility.yul\":12135:12173   */\n      tag_113\n      jump\t// in\n    tag_266:\n        /* \"#utility.yul\":12189:12277   */\n      tag_267\n        /* \"#utility.yul\":12270:12276   */\n      dup2\n        /* \"#utility.yul\":12265:12268   */\n      dup6\n        /* \"#utility.yul\":12189:12277   */\n      tag_114\n      jump\t// in\n    tag_267:\n        /* \"#utility.yul\":12182:12277   */\n      swap4\n      pop\n        /* \"#utility.yul\":12286:12351   */\n      tag_268\n        /* \"#utility.yul\":12344:12350   */\n      dup2\n        /* \"#utility.yul\":12339:12342   */\n      dup6\n        /* \"#utility.yul\":12332:12336   */\n      0x20\n        /* \"#utility.yul\":12325:12330   */\n      dup7\n        /* \"#utility.yul\":12321:12337   */\n      add\n        /* \"#utility.yul\":12286:12351   */\n      tag_85\n      jump\t// in\n    tag_268:\n        /* \"#utility.yul\":12376:12382   */\n      dup1\n        /* \"#utility.yul\":12371:12374   */\n      dup5\n        /* \"#utility.yul\":12367:12383   */\n      add\n        /* \"#utility.yul\":12360:12383   */\n      swap2\n      pop\n        /* \"#utility.yul\":12111:12389   */\n      pop\n        /* \"#utility.yul\":12003:12389   */\n      swap3\n      swap2\n      pop\n      pop\n      jump\t// out\n        /* \"#utility.yul\":12395:12666   */\n    tag_63:\n        /* \"#utility.yul\":12525:12528   */\n      0x00\n        /* \"#utility.yul\":12547:12640   */\n      tag_270\n        /* \"#utility.yul\":12636:12639   */\n      dup3\n        /* \"#utility.yul\":12627:12633   */\n      dup5\n        /* \"#utility.yul\":12547:12640   */\n      tag_115\n      jump\t// in\n    tag_270:\n        /* \"#utility.yul\":12540:12640   */\n      swap2\n      pop\n        /* \"#utility.yul\":12657:12660   */\n      dup2\n        /* \"#utility.yul\":12650:12660   */\n      swap1\n      pop\n        /* \"#utility.yul\":12395:12666   */\n      swap3\n      swap2\n      pop\n      pop\n      jump\t// out\n        /* \"#utility.yul\":12672:12815   */\n    tag_116:\n        /* \"#utility.yul\":12729:12734   */\n      0x00\n        /* \"#utility.yul\":12760:12766   */\n      dup2\n        /* \"#utility.yul\":12754:12767   */\n      mload\n        /* \"#utility.yul\":12745:12767   */\n      swap1\n      pop\n        /* \"#utility.yul\":12776:12809   */\n      tag_272\n        /* \"#utility.yul\":12803:12808   */\n      dup2\n        /* \"#utility.yul\":12776:12809   */\n      tag_76\n      jump\t// in\n    tag_272:\n        /* \"#utility.yul\":12672:12815   */\n      swap3\n      swap2\n      pop\n      pop\n      jump\t// out\n        /* \"#utility.yul\":12821:13172   */\n    tag_67:\n        /* \"#utility.yul\":12891:12897   */\n      0x00\n        /* \"#utility.yul\":12940:12942   */\n      0x20\n        /* \"#utility.yul\":12928:12937   */\n      dup3\n        /* \"#utility.yul\":12919:12926   */\n      dup5\n        /* \"#utility.yul\":12915:12938   */\n      sub\n        /* \"#utility.yul\":12911:12943   */\n      slt\n        /* \"#utility.yul\":12908:13027   */\n      iszero\n      tag_274\n      jumpi\n        /* \"#utility.yul\":12946:13025   */\n      tag_275\n      tag_73\n      jump\t// in\n    tag_275:\n        /* \"#utility.yul\":12908:13027   */\n    tag_274:\n        /* \"#utility.yul\":13066:13067   */\n      0x00\n        /* \"#utility.yul\":13091:13155   */\n      tag_276\n        /* \"#utility.yul\":13147:13154   */\n      dup5\n        /* \"#utility.yul\":13138:13144   */\n      dup3\n        /* \"#utility.yul\":13127:13136   */\n      dup6\n        /* \"#utility.yul\":13123:13145   */\n      add\n        /* \"#utility.yul\":13091:13155   */\n      tag_116\n      jump\t// in\n    tag_276:\n        /* \"#utility.yul\":13081:13155   */\n      swap2\n      pop\n        /* \"#utility.yul\":13037:13165   */\n      pop\n        /* \"#utility.yul\":12821:13172   */\n      swap3\n      swap2\n      pop\n      pop\n      jump\t// out\n        /* \"#utility.yul\":13178:13319   */\n    tag_117:\n        /* \"#utility.yul\":13227:13231   */\n      0x00\n        /* \"#utility.yul\":13250:13253   */\n      dup2\n        /* \"#utility.yul\":13242:13253   */\n      swap1\n      pop\n        /* \"#utility.yul\":13273:13276   */\n      dup2\n        /* \"#utility.yul\":13270:13271   */\n      0x00\n        /* \"#utility.yul\":13263:13277   */\n      mstore\n        /* \"#utility.yul\":13307:13311   */\n      0x20\n        /* \"#utility.yul\":13304:13305   */\n      0x00\n        /* \"#utility.yul\":13294:13312   */\n      keccak256\n        /* \"#utility.yul\":13286:13312   */\n      swap1\n      pop\n        /* \"#utility.yul\":13178:13319   */\n      swap2\n      swap1\n      pop\n      jump\t// out\n        /* \"#utility.yul\":13325:13418   */\n    tag_118:\n        /* \"#utility.yul\":13362:13368   */\n      0x00\n        /* \"#utility.yul\":13409:13411   */\n      0x20\n        /* \"#utility.yul\":13404:13406   */\n      0x1f\n        /* \"#utility.yul\":13397:13402   */\n      dup4\n        /* \"#utility.yul\":13393:13407   */\n      add\n        /* \"#utility.yul\":13389:13412   */\n      div\n        /* \"#utility.yul\":13379:13412   */\n      swap1\n      pop\n        /* \"#utility.yul\":13325:13418   */\n      swap2\n      swap1\n      pop\n      jump\t// out\n        /* \"#utility.yul\":13424:13531   */\n    tag_119:\n        /* \"#utility.yul\":13468:13476   */\n      0x00\n        /* \"#utility.yul\":13518:13523   */\n      dup3\n        /* \"#utility.yul\":13512:13516   */\n      dup3\n        /* \"#utility.yul\":13508:13524   */\n      shl\n        /* \"#utility.yul\":13487:13524   */\n      swap1\n      pop\n        /* \"#utility.yul\":13424:13531   */\n      swap3\n      swap2\n      pop\n      pop\n      jump\t// out\n        /* \"#utility.yul\":13537:13930   */\n    tag_120:\n        /* \"#utility.yul\":13606:13612   */\n      0x00\n        /* \"#utility.yul\":13656:13657   */\n      0x08\n        /* \"#utility.yul\":13644:13654   */\n      dup4\n        /* \"#utility.yul\":13640:13658   */\n      mul\n        /* \"#utility.yul\":13679:13776   */\n      tag_281\n        /* \"#utility.yul\":13709:13775   */\n      0xffffffffffffffffffffffffffffffffffffffffffffffffffffffffffffffff\n        /* \"#utility.yul\":13698:13707   */\n      dup3\n        /* \"#utility.yul\":13679:13776   */\n      tag_119\n      jump\t// in\n    tag_281:\n        /* \"#utility.yul\":13797:13836   */\n      tag_282\n        /* \"#utility.yul\":13827:13835   */\n      dup7\n        /* \"#utility.yul\":13816:13825   */\n      dup4\n        /* \"#utility.yul\":13797:13836   */\n      tag_119\n      jump\t// in\n    tag_282:\n        /* \"#utility.yul\":13785:13836   */\n      swap6\n      pop\n        /* \"#utility.yul\":13869:13873   */\n      dup1\n        /* \"#utility.yul\":13865:13874   */\n      not\n        /* \"#utility.yul\":13858:13863   */\n      dup5\n        /* \"#utility.yul\":13854:13875   */\n      and\n        /* \"#utility.yul\":13845:13875   */\n      swap4\n      pop\n        /* \"#utility.yul\":13918:13922   */\n      dup1\n        /* \"#utility.yul\":13908:13916   */\n      dup7\n        /* \"#utility.yul\":13904:13923   */\n      and\n        /* \"#utility.yul\":13897:13902   */\n      dup5\n        /* \"#utility.yul\":13894:13924   */\n      or\n        /* \"#utility.yul\":13884:13924   */\n      swap3\n      pop\n        /* \"#utility.yul\":13613:13930   */\n      pop\n      pop\n        /* \"#utility.yul\":13537:13930   */\n      swap4\n      swap3\n      pop\n      pop\n      pop\n      jump\t// out\n        /* \"#utility.yul\":13936:13996   */\n    tag_121:\n        /* \"#utility.yul\":13964:13967   */\n      0x00\n        /* \"#utility.yul\":13985:13990   */\n      dup2\n        /* \"#utility.yul\":13978:13990   */\n      swap1\n      pop\n        /* \"#utility.yul\":13936:13996   */\n      swap2\n      swap1\n      pop\n      jump\t// out\n        /* \"#utility.yul\":14002:14144   */\n    tag_122:\n        /* \"#utility.yul\":14052:14061   */\n      0x00\n        /* \"#utility.yul\":14085:14138   */\n      tag_285\n        /* \"#utility.yul\":14103:14137   */\n      tag_286\n        /* \"#utility.yul\":14112:14136   */\n      tag_287\n        /* \"#utility.yul\":14130:14135   */\n      dup5\n        /* \"#utility.yul\":14112:14136   */\n      tag_81\n      jump\t// in\n    tag_287:\n        /* \"#utility.yul\":14103:14137   */\n      tag_121\n      jump\t// in\n    tag_286:\n        /* \"#utility.yul\":14085:14138   */\n      tag_81\n      jump\t// in\n    tag_285:\n        /* \"#utility.yul\":14072:14138   */\n      swap1\n      pop\n        /* \"#utility.yul\":14002:14144   */\n      swap2\n      swap1\n      pop\n      jump\t// out\n        /* \"#utility.yul\":14150:14225   */\n    tag_123:\n        /* \"#utility.yul\":14193:14196   */\n      0x00\n        /* \"#utility.yul\":14214:14219   */\n      dup2\n        /* \"#utility.yul\":14207:14219   */\n      swap1\n      pop\n        /* \"#utility.yul\":14150:14225   */\n      swap2\n      swap1\n      pop\n      jump\t// out\n        /* \"#utility.yul\":14231:14500   */\n    tag_124:\n        /* \"#utility.yul\":14341:14380   */\n      tag_290\n        /* \"#utility.yul\":14372:14379   */\n      dup4\n        /* \"#utility.yul\":14341:14380   */\n      tag_122\n      jump\t// in\n    tag_290:\n        /* \"#utility.yul\":14402:14493   */\n      tag_291\n        /* \"#utility.yul\":14451:14492   */\n      tag_292\n        /* \"#utility.yul\":14475:14491   */\n      dup3\n        /* \"#utility.yul\":14451:14492   */\n      tag_123\n      jump\t// in\n    tag_292:\n        /* \"#utility.yul\":14443:14449   */\n      dup5\n        /* \"#utility.yul\":14436:14440   */\n      dup5\n        /* \"#utility.yul\":14430:14441   */\n      sload\n        /* \"#utility.yul\":14402:14493   */\n      tag_120\n      jump\t// in\n    tag_291:\n        /* \"#utility.yul\":14396:14400   */\n      dup3\n        /* \"#utility.yul\":14389:14494   */\n      sstore\n        /* \"#utility.yul\":14307:14500   */\n      pop\n        /* \"#utility.yul\":14231:14500   */\n      pop\n      pop\n      pop\n      jump\t// out\n        /* \"#utility.yul\":14506:14579   */\n    tag_125:\n        /* \"#utility.yul\":14551:14554   */\n      0x00\n        /* \"#utility.yul\":14506:14579   */\n      swap1\n      jump\t// out\n        /* \"#utility.yul\":14585:14774   */\n    tag_126:\n        /* \"#utility.yul\":14662:14694   */\n      tag_295\n      tag_125\n      jump\t// in\n    tag_295:\n        /* \"#utility.yul\":14703:14768   */\n      tag_296\n        /* \"#utility.yul\":14761:14767   */\n      dup2\n        /* \"#utility.yul\":14753:14759   */\n      dup5\n        /* \"#utility.yul\":14747:14751   */\n      dup5\n        /* \"#utility.yul\":14703:14768   */\n      tag_124\n      jump\t// in\n    tag_296:\n        /* \"#utility.yul\":14638:14774   */\n      pop\n        /* \"#utility.yul\":14585:14774   */\n      pop\n      pop\n      jump\t// out\n        /* \"#utility.yul\":14780:14966   */\n    tag_127:\n        /* \"#utility.yul\":14840:14960   */\n    tag_298:\n        /* \"#utility.yul\":14857:14860   */\n      dup2\n        /* \"#utility.yul\":14850:14855   */\n      dup2\n        /* \"#utility.yul\":14847:14861   */\n      lt\n        /* \"#utility.yul\":14840:14960   */\n      iszero\n      tag_300\n      jumpi\n        /* \"#utility.yul\":14911:14950   */\n      tag_301\n        /* \"#utility.yul\":14948:14949   */\n      0x00\n        /* \"#utility.yul\":14941:14946   */\n      dup3\n        /* \"#utility.yul\":14911:14950   */\n      tag_126\n      jump\t// in\n    tag_301:\n        /* \"#utility.yul\":14884:14885   */\n      0x01\n        /* \"#utility.yul\":14877:14882   */\n      dup2\n        /* \"#utility.yul\":14873:14886   */\n      add\n        /* \"#utility.yul\":14864:14886   */\n      swap1\n      pop\n        /* \"#utility.yul\":14840:14960   */\n      jump(tag_298)\n    tag_300:\n        /* \"#utility.yul\":14780:14966   */\n      pop\n      pop\n      jump\t// out\n        /* \"#utility.yul\":14972:15515   */\n    tag_128:\n        /* \"#utility.yul\":15073:15075   */\n      0x1f\n        /* \"#utility.yul\":15068:15071   */\n      dup3\n        /* \"#utility.yul\":15065:15076   */\n      gt\n        /* \"#utility.yul\":15062:15508   */\n      iszero\n      tag_303\n      jumpi\n        /* \"#utility.yul\":15107:15145   */\n      tag_304\n        /* \"#utility.yul\":15139:15144   */\n      dup2\n        /* \"#utility.yul\":15107:15145   */\n      tag_117\n      jump\t// in\n    tag_304:\n        /* \"#utility.yul\":15191:15220   */\n      tag_305\n        /* \"#utility.yul\":15209:15219   */\n      dup5\n        /* \"#utility.yul\":15191:15220   */\n      tag_118\n      jump\t// in\n    tag_305:\n        /* \"#utility.yul\":15181:15189   */\n      dup2\n        /* \"#utility.yul\":15177:15221   */\n      add\n        /* \"#utility.yul\":15374:15376   */\n      0x20\n        /* \"#utility.yul\":15362:15372   */\n      dup6\n        /* \"#utility.yul\":15359:15377   */\n      lt\n        /* \"#utility.yul\":15356:15405   */\n      iszero\n      tag_306\n      jumpi\n        /* \"#utility.yul\":15395:15403   */\n      dup2\n        /* \"#utility.yul\":15380:15403   */\n      swap1\n      pop\n        /* \"#utility.yul\":15356:15405   */\n    tag_306:\n        /* \"#utility.yul\":15418:15498   */\n      tag_307\n        /* \"#utility.yul\":15474:15496   */\n      tag_308\n        /* \"#utility.yul\":15492:15495   */\n      dup6\n        /* \"#utility.yul\":15474:15496   */\n      tag_118\n      jump\t// in\n    tag_308:\n        /* \"#utility.yul\":15464:15472   */\n      dup4\n        /* \"#utility.yul\":15460:15497   */\n      add\n        /* \"#utility.yul\":15447:15458   */\n      dup3\n        /* \"#utility.yul\":15418:15498   */\n      tag_127\n      jump\t// in\n    tag_307:\n        /* \"#utility.yul\":15077:15508   */\n      pop\n      pop\n        /* \"#utility.yul\":15062:15508   */\n    tag_303:\n        /* \"#utility.yul\":14972:15515   */\n      pop\n      pop\n      pop\n      jump\t// out\n        /* \"#utility.yul\":15521:15638   */\n    tag_129:\n        /* \"#utility.yul\":15575:15583   */\n      0x00\n        /* \"#utility.yul\":15625:15630   */\n      dup3\n        /* \"#utility.yul\":15619:15623   */\n      dup3\n        /* \"#utility.yul\":15615:15631   */\n      shr\n        /* \"#utility.yul\":15594:15631   */\n      swap1\n      pop\n        /* \"#utility.yul\":15521:15638   */\n      swap3\n      swap2\n      pop\n      pop\n      jump\t// out\n        /* \"#utility.yul\":15644:15813   */\n    tag_130:\n        /* \"#utility.yul\":15688:15694   */\n      0x00\n        /* \"#utility.yul\":15721:15772   */\n      tag_311\n        /* \"#utility.yul\":15769:15770   */\n      0x00\n        /* \"#utility.yul\":15765:15771   */\n      not\n        /* \"#utility.yul\":15757:15762   */\n      dup5\n        /* \"#utility.yul\":15754:15755   */\n      0x08\n        /* \"#utility.yul\":15750:15763   */\n      mul\n        /* \"#utility.yul\":15721:15772   */\n      tag_129\n      jump\t// in\n    tag_311:\n        /* \"#utility.yul\":15717:15773   */\n      not\n        /* \"#utility.yul\":15802:15806   */\n      dup1\n        /* \"#utility.yul\":15796:15800   */\n      dup4\n        /* \"#utility.yul\":15792:15807   */\n      and\n        /* \"#utility.yul\":15782:15807   */\n      swap2\n      pop\n        /* \"#utility.yul\":15695:15813   */\n      pop\n        /* \"#utility.yul\":15644:15813   */\n      swap3\n      swap2\n      pop\n      pop\n      jump\t// out\n        /* \"#utility.yul\":15818:16113   */\n    tag_131:\n        /* \"#utility.yul\":15894:15898   */\n      0x00\n        /* \"#utility.yul\":16040:16069   */\n      tag_313\n        /* \"#utility.yul\":16065:16068   */\n      dup4\n        /* \"#utility.yul\":16059:16063   */\n      dup4\n        /* \"#utility.yul\":16040:16069   */\n      tag_130\n      jump\t// in\n    tag_313:\n        /* \"#utility.yul\":16032:16069   */\n      swap2\n      pop\n        /* \"#utility.yul\":16102:16105   */\n      dup3\n        /* \"#utility.yul\":16099:16100   */\n      0x02\n        /* \"#utility.yul\":16095:16106   */\n      mul\n        /* \"#utility.yul\":16089:16093   */\n      dup3\n        /* \"#utility.yul\":16086:16107   */\n      or\n        /* \"#utility.yul\":16078:16107   */\n      swap1\n      pop\n        /* \"#utility.yul\":15818:16113   */\n      swap3\n      swap2\n      pop\n      pop\n      jump\t// out\n        /* \"#utility.yul\":16118:17513   */\n    tag_71:\n        /* \"#utility.yul\":16235:16272   */\n      tag_315\n        /* \"#utility.yul\":16268:16271   */\n      dup3\n        /* \"#utility.yul\":16235:16272   */\n      tag_83\n      jump\t// in\n    tag_315:\n        /* \"#utility.yul\":16337:16355   */\n      0xffffffffffffffff\n        /* \"#utility.yul\":16329:16335   */\n      dup2\n        /* \"#utility.yul\":16326:16356   */\n      gt\n        /* \"#utility.yul\":16323:16379   */\n      iszero\n      tag_316\n      jumpi\n        /* \"#utility.yul\":16359:16377   */\n      tag_317\n      tag_99\n      jump\t// in\n    tag_317:\n        /* \"#utility.yul\":16323:16379   */\n    tag_316:\n        /* \"#utility.yul\":16403:16441   */\n      tag_318\n        /* \"#utility.yul\":16435:16439   */\n      dup3\n        /* \"#utility.yul\":16429:16440   */\n      sload\n        /* \"#utility.yul\":16403:16441   */\n      tag_46\n      jump\t// in\n    tag_318:\n        /* \"#utility.yul\":16488:16555   */\n      tag_319\n        /* \"#utility.yul\":16548:16554   */\n      dup3\n        /* \"#utility.yul\":16540:16546   */\n      dup3\n        /* \"#utility.yul\":16534:16538   */\n      dup6\n        /* \"#utility.yul\":16488:16555   */\n      tag_128\n      jump\t// in\n    tag_319:\n        /* \"#utility.yul\":16582:16583   */\n      0x00\n        /* \"#utility.yul\":16606:16610   */\n      0x20\n        /* \"#utility.yul\":16593:16610   */\n      swap1\n      pop\n        /* \"#utility.yul\":16638:16640   */\n      0x1f\n        /* \"#utility.yul\":16630:16636   */\n      dup4\n        /* \"#utility.yul\":16627:16641   */\n      gt\n        /* \"#utility.yul\":16655:16656   */\n      0x01\n        /* \"#utility.yul\":16650:17268   */\n      dup2\n      eq\n      tag_321\n      jumpi\n        /* \"#utility.yul\":17312:17313   */\n      0x00\n        /* \"#utility.yul\":17329:17335   */\n      dup5\n        /* \"#utility.yul\":17326:17403   */\n      iszero\n      tag_322\n      jumpi\n        /* \"#utility.yul\":17378:17387   */\n      dup3\n        /* \"#utility.yul\":17373:17376   */\n      dup8\n        /* \"#utility.yul\":17369:17388   */\n      add\n        /* \"#utility.yul\":17363:17389   */\n      mload\n        /* \"#utility.yul\":17354:17389   */\n      swap1\n      pop\n        /* \"#utility.yul\":17326:17403   */\n    tag_322:\n        /* \"#utility.yul\":17429:17496   */\n      tag_323\n        /* \"#utility.yul\":17489:17495   */\n      dup6\n        /* \"#utility.yul\":17482:17487   */\n      dup3\n        /* \"#utility.yul\":17429:17496   */\n      tag_131\n      jump\t// in\n    tag_323:\n        /* \"#utility.yul\":17423:17427   */\n      dup7\n        /* \"#utility.yul\":17416:17497   */\n      sstore\n        /* \"#utility.yul\":17285:17507   */\n      pop\n        /* \"#utility.yul\":16620:17507   */\n      jump(tag_320)\n        /* \"#utility.yul\":16650:17268   */\n    tag_321:\n        /* \"#utility.yul\":16702:16706   */\n      0x1f\n        /* \"#utility.yul\":16698:16707   */\n      not\n        /* \"#utility.yul\":16690:16696   */\n      dup5\n        /* \"#utility.yul\":16686:16708   */\n      and\n        /* \"#utility.yul\":16736:16773   */\n      tag_324\n        /* \"#utility.yul\":16768:16772   */\n      dup7\n        /* \"#utility.yul\":16736:16773   */\n      tag_117\n      jump\t// in\n    tag_324:\n        /* \"#utility.yul\":16795:16796   */\n      0x00\n        /* \"#utility.yul\":16809:17017   */\n    tag_325:\n        /* \"#utility.yul\":16823:16830   */\n      dup3\n        /* \"#utility.yul\":16820:16821   */\n      dup2\n        /* \"#utility.yul\":16817:16831   */\n      lt\n        /* \"#utility.yul\":16809:17017   */\n      iszero\n      tag_327\n      jumpi\n        /* \"#utility.yul\":16902:16911   */\n      dup5\n        /* \"#utility.yul\":16897:16900   */\n      dup10\n        /* \"#utility.yul\":16893:16912   */\n      add\n        /* \"#utility.yul\":16887:16913   */\n      mload\n        /* \"#utility.yul\":16879:16885   */\n      dup3\n        /* \"#utility.yul\":16872:16914   */\n      sstore\n        /* \"#utility.yul\":16953:16954   */\n      0x01\n        /* \"#utility.yul\":16945:16951   */\n      dup3\n        /* \"#utility.yul\":16941:16955   */\n      add\n        /* \"#utility.yul\":16931:16955   */\n      swap2\n      pop\n        /* \"#utility.yul\":17000:17002   */\n      0x20\n        /* \"#utility.yul\":16989:16998   */\n      dup6\n        /* \"#utility.yul\":16985:17003   */\n      add\n        /* \"#utility.yul\":16972:17003   */\n      swap5\n      pop\n        /* \"#utility.yul\":16846:16850   */\n      0x20\n        /* \"#utility.yul\":16843:16844   */\n      dup2\n        /* \"#utility.yul\":16839:16851   */\n      add\n        /* \"#utility.yul\":16834:16851   */\n      swap1\n      pop\n        /* \"#utility.yul\":16809:17017   */\n      jump(tag_325)\n    tag_327:\n        /* \"#utility.yul\":17045:17051   */\n      dup7\n        /* \"#utility.yul\":17036:17043   */\n      dup4\n        /* \"#utility.yul\":17033:17052   */\n      lt\n        /* \"#utility.yul\":17030:17209   */\n      iszero\n      tag_328\n      jumpi\n        /* \"#utility.yul\":17103:17112   */\n      dup5\n        /* \"#utility.yul\":17098:17101   */\n      dup10\n        /* \"#utility.yul\":17094:17113   */\n      add\n        /* \"#utility.yul\":17088:17114   */\n      mload\n        /* \"#utility.yul\":17146:17194   */\n      tag_329\n        /* \"#utility.yul\":17188:17192   */\n      0x1f\n        /* \"#utility.yul\":17180:17186   */\n      dup10\n        /* \"#utility.yul\":17176:17193   */\n      and\n        /* \"#utility.yul\":17165:17174   */\n      dup3\n        /* \"#utility.yul\":17146:17194   */\n      tag_130\n      jump\t// in\n    tag_329:\n        /* \"#utility.yul\":17138:17144   */\n      dup4\n        /* \"#utility.yul\":17131:17195   */\n      sstore\n        /* \"#utility.yul\":17053:17209   */\n      pop\n        /* \"#utility.yul\":17030:17209   */\n    tag_328:\n        /* \"#utility.yul\":17255:17256   */\n      0x01\n        /* \"#utility.yul\":17251:17252   */\n      0x02\n        /* \"#utility.yul\":17243:17249   */\n      dup9\n        /* \"#utility.yul\":17239:17253   */\n      mul\n        /* \"#utility.yul\":17235:17257   */\n      add\n        /* \"#utility.yul\":17229:17233   */\n      dup9\n        /* \"#utility.yul\":17222:17258   */\n      sstore\n        /* \"#utility.yul\":16657:17268   */\n      pop\n      pop\n      pop\n        /* \"#utility.yul\":16620:17507   */\n    tag_320:\n      pop\n        /* \"#utility.yul\":16210:17513   */\n      pop\n      pop\n      pop\n        /* \"#utility.yul\":16118:17513   */\n      pop\n      pop\n      jump\t// out\n\n    auxdata: 0xa2646970667358221220adeabcd406140cb8e35c4d83f57810e9e2b70091fad7f1ab06e4f187b5ca069d64736f6c63430008120033\n}\n",
				"bytecode": {
					"linkReferences": {},
					"object": "60806040523480156200001157600080fd5b5060405162001279380380620012798339818101604052810190620000379190620002b5565b336000806101000a81548173ffffffffffffffffffffffffffffffffffffffff021916908373ffffffffffffffffffffffffffffffffffffffff16021790555082600160006101000a81548173ffffffffffffffffffffffffffffffffffffffff021916908373ffffffffffffffffffffffffffffffffffffffff16021790555081600260006101000a81548173ffffffffffffffffffffffffffffffffffffffff021916908373ffffffffffffffffffffffffffffffffffffffff16021790555080600360006101000a81548173ffffffffffffffffffffffffffffffffffffffff021916908373ffffffffffffffffffffffffffffffffffffffff1602179055506001600460008573ffffffffffffffffffffffffffffffffffffffff1673ffffffffffffffffffffffffffffffffffffffff16815260200190815260200160002060006101000a81548160ff0219169083151502179055506001600460008473ffffffffffffffffffffffffffffffffffffffff1673ffffffffffffffffffffffffffffffffffffffff16815260200190815260200160002060006101000a81548160ff0219169083151502179055506001600460008373ffffffffffffffffffffffffffffffffffffffff1673ffffffffffffffffffffffffffffffffffffffff16815260200190815260200160002060006101000a81548160ff02191690831515021790555050505062000311565b600080fd5b600073ffffffffffffffffffffffffffffffffffffffff82169050919050565b60006200027d8262000250565b9050919050565b6200028f8162000270565b81146200029b57600080fd5b50565b600081519050620002af8162000284565b92915050565b600080600060608486031215620002d157620002d06200024b565b5b6000620002e1868287016200029e565b9350506020620002f4868287016200029e565b925050604062000307868287016200029e565b9150509250925092565b610f5880620003216000396000f3fe608060405234801561001057600080fd5b50600436106100885760003560e01c8063d76fd2e71161005b578063d76fd2e71461012c578063e6b4360914610148578063f63be0a114610166578063fe52fffa1461018257610088565b8063267b69221461008d5780632b20e397146100c057806346252acf146100de5780636d218e48146100fc575b600080fd5b6100a760048036038101906100a291906105fc565b6101a0565b6040516100b794939291906106fc565b60405180910390f35b6100c8610265565b6040516100d59190610789565b60405180910390f35b6100e661028b565b6040516100f39190610789565b60405180910390f35b610116600480360381019061011191906107d0565b6102af565b60405161012391906107fd565b60405180910390f35b61014660048036038101906101419190610844565b6102cf565b005b6101506103b8565b60405161015d9190610789565b60405180910390f35b610180600480360381019061017b91906109e5565b6103de565b005b61018a61058c565b6040516101979190610789565b60405180910390f35b60056020528060005260406000206000915090508060000160009054906101000a900460ff16908060010154908060020154908060030180546101e290610aab565b80601f016020809104026020016040519081016040528092919081815260200182805461020e90610aab565b801561025b5780601f106102305761010080835404028352916020019161025b565b820191906000526020600020905b81548152906001019060200180831161023e57829003601f168201915b5050505050905084565b600160009054906101000a900473ffffffffffffffffffffffffffffffffffffffff1681565b60008054906101000a900473ffffffffffffffffffffffffffffffffffffffff1681565b60046020528060005260406000206000915054906101000a900460ff1681565b60008054906101000a900473ffffffffffffffffffffffffffffffffffffffff1673ffffffffffffffffffffffffffffffffffffffff163373ffffffffffffffffffffffffffffffffffffffff161461035d576040517f08c379a000000000000000000000000000000000000000000000000000000000815260040161035490610b4e565b60405180910390fd5b80600460008473ffffffffffffffffffffffffffffffffffffffff1673ffffffffffffffffffffffffffffffffffffffff16815260200190815260200160002060006101000a81548160ff0219169083151502179055505050565b600360009054906101000a900473ffffffffffffffffffffffffffffffffffffffff1681565b60008054906101000a900473ffffffffffffffffffffffffffffffffffffffff1673ffffffffffffffffffffffffffffffffffffffff163373ffffffffffffffffffffffffffffffffffffffff161461046c576040517f08c379a000000000000000000000000000000000000000000000000000000000815260040161046390610b4e565b60405180910390fd5b600042838360405160200161048393929190610bcb565b604051602081830303815290604052905060006002826040516104a69190610c4b565b602060405180830381855afa1580156104c3573d6000803e3d6000fd5b5050506040513d601f19601f820116820180604052508101906104e69190610c77565b905060008780156104f45750865b80156104fd5750855b905060405180608001604052808215158152602001838152602001868152602001858152506005600084815260200190815260200160002060008201518160000160006101000a81548160ff0219169083151502179055506020820151816001015560408201518160020155606082015181600301908161057e9190610e50565b509050505050505050505050565b600260009054906101000a900473ffffffffffffffffffffffffffffffffffffffff1681565b6000604051905090565b600080fd5b600080fd5b6000819050919050565b6105d9816105c6565b81146105e457600080fd5b50565b6000813590506105f6816105d0565b92915050565b600060208284031215610612576106116105bc565b5b6000610620848285016105e7565b91505092915050565b60008115159050919050565b61063e81610629565b82525050565b61064d816105c6565b82525050565b6000819050919050565b61066681610653565b82525050565b600081519050919050565b600082825260208201905092915050565b60005b838110156106a657808201518184015260208101905061068b565b60008484015250505050565b6000601f19601f8301169050919050565b60006106ce8261066c565b6106d88185610677565b93506106e8818560208601610688565b6106f1816106b2565b840191505092915050565b60006080820190506107116000830187610635565b61071e6020830186610644565b61072b604083018561065d565b818103606083015261073d81846106c3565b905095945050505050565b600073ffffffffffffffffffffffffffffffffffffffff82169050919050565b600061077382610748565b9050919050565b61078381610768565b82525050565b600060208201905061079e600083018461077a565b92915050565b6107ad81610768565b81146107b857600080fd5b50565b6000813590506107ca816107a4565b92915050565b6000602082840312156107e6576107e56105bc565b5b60006107f4848285016107bb565b91505092915050565b60006020820190506108126000830184610635565b92915050565b61082181610629565b811461082c57600080fd5b50565b60008135905061083e81610818565b92915050565b6000806040838503121561085b5761085a6105bc565b5b6000610869858286016107bb565b925050602061087a8582860161082f565b9150509250929050565b61088d81610653565b811461089857600080fd5b50565b6000813590506108aa81610884565b92915050565b600080fd5b600080fd5b7f4e487b7100000000000000000000000000000000000000000000000000000000600052604160045260246000fd5b6108f2826106b2565b810181811067ffffffffffffffff82111715610911576109106108ba565b5b80604052505050565b60006109246105b2565b905061093082826108e9565b919050565b600067ffffffffffffffff8211156109505761094f6108ba565b5b610959826106b2565b9050602081019050919050565b82818337600083830152505050565b600061098861098384610935565b61091a565b9050828152602081018484840111156109a4576109a36108b5565b5b6109af848285610966565b509392505050565b600082601f8301126109cc576109cb6108b0565b5b81356109dc848260208601610975565b91505092915050565b600080600080600060a08688031215610a0157610a006105bc565b5b6000610a0f8882890161082f565b9550506020610a208882890161082f565b9450506040610a318882890161082f565b9350506060610a428882890161089b565b925050608086013567ffffffffffffffff811115610a6357610a626105c1565b5b610a6f888289016109b7565b9150509295509295909350565b7f4e487b7100000000000000000000000000000000000000000000000000000000600052602260045260246000fd5b60006002820490506001821680610ac357607f821691505b602082108103610ad657610ad5610a7c565b5b50919050565b7f4f6e6c79204461746120456e747279204d616e616765722063616e207065726660008201527f6f726d207468697320616374696f6e0000000000000000000000000000000000602082015250565b6000610b38602f83610677565b9150610b4382610adc565b604082019050919050565b60006020820190508181036000830152610b6781610b2b565b9050919050565b6000819050919050565b610b89610b8482610653565b610b6e565b82525050565b600081905092915050565b6000610ba58261066c565b610baf8185610b8f565b9350610bbf818560208601610688565b80840191505092915050565b6000610bd78286610b78565b602082019150610be78285610b78565b602082019150610bf78284610b9a565b9150819050949350505050565b600081519050919050565b600081905092915050565b6000610c2582610c04565b610c2f8185610c0f565b9350610c3f818560208601610688565b80840191505092915050565b6000610c578284610c1a565b915081905092915050565b600081519050610c71816105d0565b92915050565b600060208284031215610c8d57610c8c6105bc565b5b6000610c9b84828501610c62565b91505092915050565b60008190508160005260206000209050919050565b60006020601f8301049050919050565b600082821b905092915050565b600060088302610d067fffffffffffffffffffffffffffffffffffffffffffffffffffffffffffffffff82610cc9565b610d108683610cc9565b95508019841693508086168417925050509392505050565b6000819050919050565b6000610d4d610d48610d4384610653565b610d28565b610653565b9050919050565b6000819050919050565b610d6783610d32565b610d7b610d7382610d54565b848454610cd6565b825550505050565b600090565b610d90610d83565b610d9b818484610d5e565b505050565b5b81811015610dbf57610db4600082610d88565b600181019050610da1565b5050565b601f821115610e0457610dd581610ca4565b610dde84610cb9565b81016020851015610ded578190505b610e01610df985610cb9565b830182610da0565b50505b505050565b600082821c905092915050565b6000610e2760001984600802610e09565b1980831691505092915050565b6000610e408383610e16565b9150826002028217905092915050565b610e598261066c565b67ffffffffffffffff811115610e7257610e716108ba565b5b610e7c8254610aab565b610e87828285610dc3565b600060209050601f831160018114610eba5760008415610ea8578287015190505b610eb28582610e34565b865550610f1a565b601f198416610ec886610ca4565b60005b82811015610ef057848901518255600182019150602085019450602081019050610ecb565b86831015610f0d5784890151610f09601f891682610e16565b8355505b6001600288020188555050505b50505050505056fea2646970667358221220adeabcd406140cb8e35c4d83f57810e9e2b70091fad7f1ab06e4f187b5ca069d64736f6c63430008120033",
					"opcodes": "PUSH1 0x80 PUSH1 0x40 MSTORE CALLVALUE DUP1 ISZERO PUSH3 0x11 JUMPI PUSH1 0x0 DUP1 REVERT JUMPDEST POP PUSH1 0x40 MLOAD PUSH3 0x1279 CODESIZE SUB DUP1 PUSH3 0x1279 DUP4 CODECOPY DUP2 DUP2 ADD PUSH1 0x40 MSTORE DUP2 ADD SWAP1 PUSH3 0x37 SWAP2 SWAP1 PUSH3 0x2B5 JUMP JUMPDEST CALLER PUSH1 0x0 DUP1 PUSH2 0x100 EXP DUP2 SLOAD DUP2 PUSH20 0xFFFFFFFFFFFFFFFFFFFFFFFFFFFFFFFFFFFFFFFF MUL NOT AND SWAP1 DUP4 PUSH20 0xFFFFFFFFFFFFFFFFFFFFFFFFFFFFFFFFFFFFFFFF AND MUL OR SWAP1 SSTORE POP DUP3 PUSH1 0x1 PUSH1 0x0 PUSH2 0x100 EXP DUP2 SLOAD DUP2 PUSH20 0xFFFFFFFFFFFFFFFFFFFFFFFFFFFFFFFFFFFFFFFF MUL NOT AND SWAP1 DUP4 PUSH20 0xFFFFFFFFFFFFFFFFFFFFFFFFFFFFFFFFFFFFFFFF AND MUL OR SWAP1 SSTORE POP DUP2 PUSH1 0x2 PUSH1 0x0 PUSH2 0x100 EXP DUP2 SLOAD DUP2 PUSH20 0xFFFFFFFFFFFFFFFFFFFFFFFFFFFFFFFFFFFFFFFF MUL NOT AND SWAP1 DUP4 PUSH20 0xFFFFFFFFFFFFFFFFFFFFFFFFFFFFFFFFFFFFFFFF AND MUL OR SWAP1 SSTORE POP DUP1 PUSH1 0x3 PUSH1 0x0 PUSH2 0x100 EXP DUP2 SLOAD DUP2 PUSH20 0xFFFFFFFFFFFFFFFFFFFFFFFFFFFFFFFFFFFFFFFF MUL NOT AND SWAP1 DUP4 PUSH20 0xFFFFFFFFFFFFFFFFFFFFFFFFFFFFFFFFFFFFFFFF AND MUL OR SWAP1 SSTORE POP PUSH1 0x1 PUSH1 0x4 PUSH1 0x0 DUP6 PUSH20 0xFFFFFFFFFFFFFFFFFFFFFFFFFFFFFFFFFFFFFFFF AND PUSH20 0xFFFFFFFFFFFFFFFFFFFFFFFFFFFFFFFFFFFFFFFF AND DUP2 MSTORE PUSH1 0x20 ADD SWAP1 DUP2 MSTORE PUSH1 0x20 ADD PUSH1 0x0 KECCAK256 PUSH1 0x0 PUSH2 0x100 EXP DUP2 SLOAD DUP2 PUSH1 0xFF MUL NOT AND SWAP1 DUP4 ISZERO ISZERO MUL OR SWAP1 SSTORE POP PUSH1 0x1 PUSH1 0x4 PUSH1 0x0 DUP5 PUSH20 0xFFFFFFFFFFFFFFFFFFFFFFFFFFFFFFFFFFFFFFFF AND PUSH20 0xFFFFFFFFFFFFFFFFFFFFFFFFFFFFFFFFFFFFFFFF AND DUP2 MSTORE PUSH1 0x20 ADD SWAP1 DUP2 MSTORE PUSH1 0x20 ADD PUSH1 0x0 KECCAK256 PUSH1 0x0 PUSH2 0x100 EXP DUP2 SLOAD DUP2 PUSH1 0xFF MUL NOT AND SWAP1 DUP4 ISZERO ISZERO MUL OR SWAP1 SSTORE POP PUSH1 0x1 PUSH1 0x4 PUSH1 0x0 DUP4 PUSH20 0xFFFFFFFFFFFFFFFFFFFFFFFFFFFFFFFFFFFFFFFF AND PUSH20 0xFFFFFFFFFFFFFFFFFFFFFFFFFFFFFFFFFFFFFFFF AND DUP2 MSTORE PUSH1 0x20 ADD SWAP1 DUP2 MSTORE PUSH1 0x20 ADD PUSH1 0x0 KECCAK256 PUSH1 0x0 PUSH2 0x100 EXP DUP2 SLOAD DUP2 PUSH1 0xFF MUL NOT AND SWAP1 DUP4 ISZERO ISZERO MUL OR SWAP1 SSTORE POP POP POP POP PUSH3 0x311 JUMP JUMPDEST PUSH1 0x0 DUP1 REVERT JUMPDEST PUSH1 0x0 PUSH20 0xFFFFFFFFFFFFFFFFFFFFFFFFFFFFFFFFFFFFFFFF DUP3 AND SWAP1 POP SWAP2 SWAP1 POP JUMP JUMPDEST PUSH1 0x0 PUSH3 0x27D DUP3 PUSH3 0x250 JUMP JUMPDEST SWAP1 POP SWAP2 SWAP1 POP JUMP JUMPDEST PUSH3 0x28F DUP2 PUSH3 0x270 JUMP JUMPDEST DUP2 EQ PUSH3 0x29B JUMPI PUSH1 0x0 DUP1 REVERT JUMPDEST POP JUMP JUMPDEST PUSH1 0x0 DUP2 MLOAD SWAP1 POP PUSH3 0x2AF DUP2 PUSH3 0x284 JUMP JUMPDEST SWAP3 SWAP2 POP POP JUMP JUMPDEST PUSH1 0x0 DUP1 PUSH1 0x0 PUSH1 0x60 DUP5 DUP7 SUB SLT ISZERO PUSH3 0x2D1 JUMPI PUSH3 0x2D0 PUSH3 0x24B JUMP JUMPDEST JUMPDEST PUSH1 0x0 PUSH3 0x2E1 DUP7 DUP3 DUP8 ADD PUSH3 0x29E JUMP JUMPDEST SWAP4 POP POP PUSH1 0x20 PUSH3 0x2F4 DUP7 DUP3 DUP8 ADD PUSH3 0x29E JUMP JUMPDEST SWAP3 POP POP PUSH1 0x40 PUSH3 0x307 DUP7 DUP3 DUP8 ADD PUSH3 0x29E JUMP JUMPDEST SWAP2 POP POP SWAP3 POP SWAP3 POP SWAP3 JUMP JUMPDEST PUSH2 0xF58 DUP1 PUSH3 0x321 PUSH1 0x0 CODECOPY PUSH1 0x0 RETURN INVALID PUSH1 0x80 PUSH1 0x40 MSTORE CALLVALUE DUP1 ISZERO PUSH2 0x10 JUMPI PUSH1 0x0 DUP1 REVERT JUMPDEST POP PUSH1 0x4 CALLDATASIZE LT PUSH2 0x88 JUMPI PUSH1 0x0 CALLDATALOAD PUSH1 0xE0 SHR DUP1 PUSH4 0xD76FD2E7 GT PUSH2 0x5B JUMPI DUP1 PUSH4 0xD76FD2E7 EQ PUSH2 0x12C JUMPI DUP1 PUSH4 0xE6B43609 EQ PUSH2 0x148 JUMPI DUP1 PUSH4 0xF63BE0A1 EQ PUSH2 0x166 JUMPI DUP1 PUSH4 0xFE52FFFA EQ PUSH2 0x182 JUMPI PUSH2 0x88 JUMP JUMPDEST DUP1 PUSH4 0x267B6922 EQ PUSH2 0x8D JUMPI DUP1 PUSH4 0x2B20E397 EQ PUSH2 0xC0 JUMPI DUP1 PUSH4 0x46252ACF EQ PUSH2 0xDE JUMPI DUP1 PUSH4 0x6D218E48 EQ PUSH2 0xFC JUMPI JUMPDEST PUSH1 0x0 DUP1 REVERT JUMPDEST PUSH2 0xA7 PUSH1 0x4 DUP1 CALLDATASIZE SUB DUP2 ADD SWAP1 PUSH2 0xA2 SWAP2 SWAP1 PUSH2 0x5FC JUMP JUMPDEST PUSH2 0x1A0 JUMP JUMPDEST PUSH1 0x40 MLOAD PUSH2 0xB7 SWAP5 SWAP4 SWAP3 SWAP2 SWAP1 PUSH2 0x6FC JUMP JUMPDEST PUSH1 0x40 MLOAD DUP1 SWAP2 SUB SWAP1 RETURN JUMPDEST PUSH2 0xC8 PUSH2 0x265 JUMP JUMPDEST PUSH1 0x40 MLOAD PUSH2 0xD5 SWAP2 SWAP1 PUSH2 0x789 JUMP JUMPDEST PUSH1 0x40 MLOAD DUP1 SWAP2 SUB SWAP1 RETURN JUMPDEST PUSH2 0xE6 PUSH2 0x28B JUMP JUMPDEST PUSH1 0x40 MLOAD PUSH2 0xF3 SWAP2 SWAP1 PUSH2 0x789 JUMP JUMPDEST PUSH1 0x40 MLOAD DUP1 SWAP2 SUB SWAP1 RETURN JUMPDEST PUSH2 0x116 PUSH1 0x4 DUP1 CALLDATASIZE SUB DUP2 ADD SWAP1 PUSH2 0x111 SWAP2 SWAP1 PUSH2 0x7D0 JUMP JUMPDEST PUSH2 0x2AF JUMP JUMPDEST PUSH1 0x40 MLOAD PUSH2 0x123 SWAP2 SWAP1 PUSH2 0x7FD JUMP JUMPDEST PUSH1 0x40 MLOAD DUP1 SWAP2 SUB SWAP1 RETURN JUMPDEST PUSH2 0x146 PUSH1 0x4 DUP1 CALLDATASIZE SUB DUP2 ADD SWAP1 PUSH2 0x141 SWAP2 SWAP1 PUSH2 0x844 JUMP JUMPDEST PUSH2 0x2CF JUMP JUMPDEST STOP JUMPDEST PUSH2 0x150 PUSH2 0x3B8 JUMP JUMPDEST PUSH1 0x40 MLOAD PUSH2 0x15D SWAP2 SWAP1 PUSH2 0x789 JUMP JUMPDEST PUSH1 0x40 MLOAD DUP1 SWAP2 SUB SWAP1 RETURN JUMPDEST PUSH2 0x180 PUSH1 0x4 DUP1 CALLDATASIZE SUB DUP2 ADD SWAP1 PUSH2 0x17B SWAP2 SWAP1 PUSH2 0x9E5 JUMP JUMPDEST PUSH2 0x3DE JUMP JUMPDEST STOP JUMPDEST PUSH2 0x18A PUSH2 0x58C JUMP JUMPDEST PUSH1 0x40 MLOAD PUSH2 0x197 SWAP2 SWAP1 PUSH2 0x789 JUMP JUMPDEST PUSH1 0x40 MLOAD DUP1 SWAP2 SUB SWAP1 RETURN JUMPDEST PUSH1 0x5 PUSH1 0x20 MSTORE DUP1 PUSH1 0x0 MSTORE PUSH1 0x40 PUSH1 0x0 KECCAK256 PUSH1 0x0 SWAP2 POP SWAP1 POP DUP1 PUSH1 0x0 ADD PUSH1 0x0 SWAP1 SLOAD SWAP1 PUSH2 0x100 EXP SWAP1 DIV PUSH1 0xFF AND SWAP1 DUP1 PUSH1 0x1 ADD SLOAD SWAP1 DUP1 PUSH1 0x2 ADD SLOAD SWAP1 DUP1 PUSH1 0x3 ADD DUP1 SLOAD PUSH2 0x1E2 SWAP1 PUSH2 0xAAB JUMP JUMPDEST DUP1 PUSH1 0x1F ADD PUSH1 0x20 DUP1 SWAP2 DIV MUL PUSH1 0x20 ADD PUSH1 0x40 MLOAD SWAP1 DUP2 ADD PUSH1 0x40 MSTORE DUP1 SWAP3 SWAP2 SWAP1 DUP2 DUP2 MSTORE PUSH1 0x20 ADD DUP3 DUP1 SLOAD PUSH2 0x20E SWAP1 PUSH2 0xAAB JUMP JUMPDEST DUP1 ISZERO PUSH2 0x25B JUMPI DUP1 PUSH1 0x1F LT PUSH2 0x230 JUMPI PUSH2 0x100 DUP1 DUP4 SLOAD DIV MUL DUP4 MSTORE SWAP2 PUSH1 0x20 ADD SWAP2 PUSH2 0x25B JUMP JUMPDEST DUP3 ADD SWAP2 SWAP1 PUSH1 0x0 MSTORE PUSH1 0x20 PUSH1 0x0 KECCAK256 SWAP1 JUMPDEST DUP2 SLOAD DUP2 MSTORE SWAP1 PUSH1 0x1 ADD SWAP1 PUSH1 0x20 ADD DUP1 DUP4 GT PUSH2 0x23E JUMPI DUP3 SWAP1 SUB PUSH1 0x1F AND DUP3 ADD SWAP2 JUMPDEST POP POP POP POP POP SWAP1 POP DUP5 JUMP JUMPDEST PUSH1 0x1 PUSH1 0x0 SWAP1 SLOAD SWAP1 PUSH2 0x100 EXP SWAP1 DIV PUSH20 0xFFFFFFFFFFFFFFFFFFFFFFFFFFFFFFFFFFFFFFFF AND DUP2 JUMP JUMPDEST PUSH1 0x0 DUP1 SLOAD SWAP1 PUSH2 0x100 EXP SWAP1 DIV PUSH20 0xFFFFFFFFFFFFFFFFFFFFFFFFFFFFFFFFFFFFFFFF AND DUP2 JUMP JUMPDEST PUSH1 0x4 PUSH1 0x20 MSTORE DUP1 PUSH1 0x0 MSTORE PUSH1 0x40 PUSH1 0x0 KECCAK256 PUSH1 0x0 SWAP2 POP SLOAD SWAP1 PUSH2 0x100 EXP SWAP1 DIV PUSH1 0xFF AND DUP2 JUMP JUMPDEST PUSH1 0x0 DUP1 SLOAD SWAP1 PUSH2 0x100 EXP SWAP1 DIV PUSH20 0xFFFFFFFFFFFFFFFFFFFFFFFFFFFFFFFFFFFFFFFF AND PUSH20 0xFFFFFFFFFFFFFFFFFFFFFFFFFFFFFFFFFFFFFFFF AND CALLER PUSH20 0xFFFFFFFFFFFFFFFFFFFFFFFFFFFFFFFFFFFFFFFF AND EQ PUSH2 0x35D JUMPI PUSH1 0x40 MLOAD PUSH32 0x8C379A000000000000000000000000000000000000000000000000000000000 DUP2 MSTORE PUSH1 0x4 ADD PUSH2 0x354 SWAP1 PUSH2 0xB4E JUMP JUMPDEST PUSH1 0x40 MLOAD DUP1 SWAP2 SUB SWAP1 REVERT JUMPDEST DUP1 PUSH1 0x4 PUSH1 0x0 DUP5 PUSH20 0xFFFFFFFFFFFFFFFFFFFFFFFFFFFFFFFFFFFFFFFF AND PUSH20 0xFFFFFFFFFFFFFFFFFFFFFFFFFFFFFFFFFFFFFFFF AND DUP2 MSTORE PUSH1 0x20 ADD SWAP1 DUP2 MSTORE PUSH1 0x20 ADD PUSH1 0x0 KECCAK256 PUSH1 0x0 PUSH2 0x100 EXP DUP2 SLOAD DUP2 PUSH1 0xFF MUL NOT AND SWAP1 DUP4 ISZERO ISZERO MUL OR SWAP1 SSTORE POP POP POP JUMP JUMPDEST PUSH1 0x3 PUSH1 0x0 SWAP1 SLOAD SWAP1 PUSH2 0x100 EXP SWAP1 DIV PUSH20 0xFFFFFFFFFFFFFFFFFFFFFFFFFFFFFFFFFFFFFFFF AND DUP2 JUMP JUMPDEST PUSH1 0x0 DUP1 SLOAD SWAP1 PUSH2 0x100 EXP SWAP1 DIV PUSH20 0xFFFFFFFFFFFFFFFFFFFFFFFFFFFFFFFFFFFFFFFF AND PUSH20 0xFFFFFFFFFFFFFFFFFFFFFFFFFFFFFFFFFFFFFFFF AND CALLER PUSH20 0xFFFFFFFFFFFFFFFFFFFFFFFFFFFFFFFFFFFFFFFF AND EQ PUSH2 0x46C JUMPI PUSH1 0x40 MLOAD PUSH32 0x8C379A000000000000000000000000000000000000000000000000000000000 DUP2 MSTORE PUSH1 0x4 ADD PUSH2 0x463 SWAP1 PUSH2 0xB4E JUMP JUMPDEST PUSH1 0x40 MLOAD DUP1 SWAP2 SUB SWAP1 REVERT JUMPDEST PUSH1 0x0 TIMESTAMP DUP4 DUP4 PUSH1 0x40 MLOAD PUSH1 0x20 ADD PUSH2 0x483 SWAP4 SWAP3 SWAP2 SWAP1 PUSH2 0xBCB JUMP JUMPDEST PUSH1 0x40 MLOAD PUSH1 0x20 DUP2 DUP4 SUB SUB DUP2 MSTORE SWAP1 PUSH1 0x40 MSTORE SWAP1 POP PUSH1 0x0 PUSH1 0x2 DUP3 PUSH1 0x40 MLOAD PUSH2 0x4A6 SWAP2 SWAP1 PUSH2 0xC4B JUMP JUMPDEST PUSH1 0x20 PUSH1 0x40 MLOAD DUP1 DUP4 SUB DUP2 DUP6 GAS STATICCALL ISZERO DUP1 ISZERO PUSH2 0x4C3 JUMPI RETURNDATASIZE PUSH1 0x0 DUP1 RETURNDATACOPY RETURNDATASIZE PUSH1 0x0 REVERT JUMPDEST POP POP POP PUSH1 0x40 MLOAD RETURNDATASIZE PUSH1 0x1F NOT PUSH1 0x1F DUP3 ADD AND DUP3 ADD DUP1 PUSH1 0x40 MSTORE POP DUP2 ADD SWAP1 PUSH2 0x4E6 SWAP2 SWAP1 PUSH2 0xC77 JUMP JUMPDEST SWAP1 POP PUSH1 0x0 DUP8 DUP1 ISZERO PUSH2 0x4F4 JUMPI POP DUP7 JUMPDEST DUP1 ISZERO PUSH2 0x4FD JUMPI POP DUP6 JUMPDEST SWAP1 POP PUSH1 0x40 MLOAD DUP1 PUSH1 0x80 ADD PUSH1 0x40 MSTORE DUP1 DUP3 ISZERO ISZERO DUP2 MSTORE PUSH1 0x20 ADD DUP4 DUP2 MSTORE PUSH1 0x20 ADD DUP7 DUP2 MSTORE PUSH1 0x20 ADD DUP6 DUP2 MSTORE POP PUSH1 0x5 PUSH1 0x0 DUP5 DUP2 MSTORE PUSH1 0x20 ADD SWAP1 DUP2 MSTORE PUSH1 0x20 ADD PUSH1 0x0 KECCAK256 PUSH1 0x0 DUP3 ADD MLOAD DUP2 PUSH1 0x0 ADD PUSH1 0x0 PUSH2 0x100 EXP DUP2 SLOAD DUP2 PUSH1 0xFF MUL NOT AND SWAP1 DUP4 ISZERO ISZERO MUL OR SWAP1 SSTORE POP PUSH1 0x20 DUP3 ADD MLOAD DUP2 PUSH1 0x1 ADD SSTORE PUSH1 0x40 DUP3 ADD MLOAD DUP2 PUSH1 0x2 ADD SSTORE PUSH1 0x60 DUP3 ADD MLOAD DUP2 PUSH1 0x3 ADD SWAP1 DUP2 PUSH2 0x57E SWAP2 SWAP1 PUSH2 0xE50 JUMP JUMPDEST POP SWAP1 POP POP POP POP POP POP POP POP POP POP JUMP JUMPDEST PUSH1 0x2 PUSH1 0x0 SWAP1 SLOAD SWAP1 PUSH2 0x100 EXP SWAP1 DIV PUSH20 0xFFFFFFFFFFFFFFFFFFFFFFFFFFFFFFFFFFFFFFFF AND DUP2 JUMP JUMPDEST PUSH1 0x0 PUSH1 0x40 MLOAD SWAP1 POP SWAP1 JUMP JUMPDEST PUSH1 0x0 DUP1 REVERT JUMPDEST PUSH1 0x0 DUP1 REVERT JUMPDEST PUSH1 0x0 DUP2 SWAP1 POP SWAP2 SWAP1 POP JUMP JUMPDEST PUSH2 0x5D9 DUP2 PUSH2 0x5C6 JUMP JUMPDEST DUP2 EQ PUSH2 0x5E4 JUMPI PUSH1 0x0 DUP1 REVERT JUMPDEST POP JUMP JUMPDEST PUSH1 0x0 DUP2 CALLDATALOAD SWAP1 POP PUSH2 0x5F6 DUP2 PUSH2 0x5D0 JUMP JUMPDEST SWAP3 SWAP2 POP POP JUMP JUMPDEST PUSH1 0x0 PUSH1 0x20 DUP3 DUP5 SUB SLT ISZERO PUSH2 0x612 JUMPI PUSH2 0x611 PUSH2 0x5BC JUMP JUMPDEST JUMPDEST PUSH1 0x0 PUSH2 0x620 DUP5 DUP3 DUP6 ADD PUSH2 0x5E7 JUMP JUMPDEST SWAP2 POP POP SWAP3 SWAP2 POP POP JUMP JUMPDEST PUSH1 0x0 DUP2 ISZERO ISZERO SWAP1 POP SWAP2 SWAP1 POP JUMP JUMPDEST PUSH2 0x63E DUP2 PUSH2 0x629 JUMP JUMPDEST DUP3 MSTORE POP POP JUMP JUMPDEST PUSH2 0x64D DUP2 PUSH2 0x5C6 JUMP JUMPDEST DUP3 MSTORE POP POP JUMP JUMPDEST PUSH1 0x0 DUP2 SWAP1 POP SWAP2 SWAP1 POP JUMP JUMPDEST PUSH2 0x666 DUP2 PUSH2 0x653 JUMP JUMPDEST DUP3 MSTORE POP POP JUMP JUMPDEST PUSH1 0x0 DUP2 MLOAD SWAP1 POP SWAP2 SWAP1 POP JUMP JUMPDEST PUSH1 0x0 DUP3 DUP3 MSTORE PUSH1 0x20 DUP3 ADD SWAP1 POP SWAP3 SWAP2 POP POP JUMP JUMPDEST PUSH1 0x0 JUMPDEST DUP4 DUP2 LT ISZERO PUSH2 0x6A6 JUMPI DUP1 DUP3 ADD MLOAD DUP2 DUP5 ADD MSTORE PUSH1 0x20 DUP2 ADD SWAP1 POP PUSH2 0x68B JUMP JUMPDEST PUSH1 0x0 DUP5 DUP5 ADD MSTORE POP POP POP POP JUMP JUMPDEST PUSH1 0x0 PUSH1 0x1F NOT PUSH1 0x1F DUP4 ADD AND SWAP1 POP SWAP2 SWAP1 POP JUMP JUMPDEST PUSH1 0x0 PUSH2 0x6CE DUP3 PUSH2 0x66C JUMP JUMPDEST PUSH2 0x6D8 DUP2 DUP6 PUSH2 0x677 JUMP JUMPDEST SWAP4 POP PUSH2 0x6E8 DUP2 DUP6 PUSH1 0x20 DUP7 ADD PUSH2 0x688 JUMP JUMPDEST PUSH2 0x6F1 DUP2 PUSH2 0x6B2 JUMP JUMPDEST DUP5 ADD SWAP2 POP POP SWAP3 SWAP2 POP POP JUMP JUMPDEST PUSH1 0x0 PUSH1 0x80 DUP3 ADD SWAP1 POP PUSH2 0x711 PUSH1 0x0 DUP4 ADD DUP8 PUSH2 0x635 JUMP JUMPDEST PUSH2 0x71E PUSH1 0x20 DUP4 ADD DUP7 PUSH2 0x644 JUMP JUMPDEST PUSH2 0x72B PUSH1 0x40 DUP4 ADD DUP6 PUSH2 0x65D JUMP JUMPDEST DUP2 DUP2 SUB PUSH1 0x60 DUP4 ADD MSTORE PUSH2 0x73D DUP2 DUP5 PUSH2 0x6C3 JUMP JUMPDEST SWAP1 POP SWAP6 SWAP5 POP POP POP POP POP JUMP JUMPDEST PUSH1 0x0 PUSH20 0xFFFFFFFFFFFFFFFFFFFFFFFFFFFFFFFFFFFFFFFF DUP3 AND SWAP1 POP SWAP2 SWAP1 POP JUMP JUMPDEST PUSH1 0x0 PUSH2 0x773 DUP3 PUSH2 0x748 JUMP JUMPDEST SWAP1 POP SWAP2 SWAP1 POP JUMP JUMPDEST PUSH2 0x783 DUP2 PUSH2 0x768 JUMP JUMPDEST DUP3 MSTORE POP POP JUMP JUMPDEST PUSH1 0x0 PUSH1 0x20 DUP3 ADD SWAP1 POP PUSH2 0x79E PUSH1 0x0 DUP4 ADD DUP5 PUSH2 0x77A JUMP JUMPDEST SWAP3 SWAP2 POP POP JUMP JUMPDEST PUSH2 0x7AD DUP2 PUSH2 0x768 JUMP JUMPDEST DUP2 EQ PUSH2 0x7B8 JUMPI PUSH1 0x0 DUP1 REVERT JUMPDEST POP JUMP JUMPDEST PUSH1 0x0 DUP2 CALLDATALOAD SWAP1 POP PUSH2 0x7CA DUP2 PUSH2 0x7A4 JUMP JUMPDEST SWAP3 SWAP2 POP POP JUMP JUMPDEST PUSH1 0x0 PUSH1 0x20 DUP3 DUP5 SUB SLT ISZERO PUSH2 0x7E6 JUMPI PUSH2 0x7E5 PUSH2 0x5BC JUMP JUMPDEST JUMPDEST PUSH1 0x0 PUSH2 0x7F4 DUP5 DUP3 DUP6 ADD PUSH2 0x7BB JUMP JUMPDEST SWAP2 POP POP SWAP3 SWAP2 POP POP JUMP JUMPDEST PUSH1 0x0 PUSH1 0x20 DUP3 ADD SWAP1 POP PUSH2 0x812 PUSH1 0x0 DUP4 ADD DUP5 PUSH2 0x635 JUMP JUMPDEST SWAP3 SWAP2 POP POP JUMP JUMPDEST PUSH2 0x821 DUP2 PUSH2 0x629 JUMP JUMPDEST DUP2 EQ PUSH2 0x82C JUMPI PUSH1 0x0 DUP1 REVERT JUMPDEST POP JUMP JUMPDEST PUSH1 0x0 DUP2 CALLDATALOAD SWAP1 POP PUSH2 0x83E DUP2 PUSH2 0x818 JUMP JUMPDEST SWAP3 SWAP2 POP POP JUMP JUMPDEST PUSH1 0x0 DUP1 PUSH1 0x40 DUP4 DUP6 SUB SLT ISZERO PUSH2 0x85B JUMPI PUSH2 0x85A PUSH2 0x5BC JUMP JUMPDEST JUMPDEST PUSH1 0x0 PUSH2 0x869 DUP6 DUP3 DUP7 ADD PUSH2 0x7BB JUMP JUMPDEST SWAP3 POP POP PUSH1 0x20 PUSH2 0x87A DUP6 DUP3 DUP7 ADD PUSH2 0x82F JUMP JUMPDEST SWAP2 POP POP SWAP3 POP SWAP3 SWAP1 POP JUMP JUMPDEST PUSH2 0x88D DUP2 PUSH2 0x653 JUMP JUMPDEST DUP2 EQ PUSH2 0x898 JUMPI PUSH1 0x0 DUP1 REVERT JUMPDEST POP JUMP JUMPDEST PUSH1 0x0 DUP2 CALLDATALOAD SWAP1 POP PUSH2 0x8AA DUP2 PUSH2 0x884 JUMP JUMPDEST SWAP3 SWAP2 POP POP JUMP JUMPDEST PUSH1 0x0 DUP1 REVERT JUMPDEST PUSH1 0x0 DUP1 REVERT JUMPDEST PUSH32 0x4E487B7100000000000000000000000000000000000000000000000000000000 PUSH1 0x0 MSTORE PUSH1 0x41 PUSH1 0x4 MSTORE PUSH1 0x24 PUSH1 0x0 REVERT JUMPDEST PUSH2 0x8F2 DUP3 PUSH2 0x6B2 JUMP JUMPDEST DUP2 ADD DUP2 DUP2 LT PUSH8 0xFFFFFFFFFFFFFFFF DUP3 GT OR ISZERO PUSH2 0x911 JUMPI PUSH2 0x910 PUSH2 0x8BA JUMP JUMPDEST JUMPDEST DUP1 PUSH1 0x40 MSTORE POP POP POP JUMP JUMPDEST PUSH1 0x0 PUSH2 0x924 PUSH2 0x5B2 JUMP JUMPDEST SWAP1 POP PUSH2 0x930 DUP3 DUP3 PUSH2 0x8E9 JUMP JUMPDEST SWAP2 SWAP1 POP JUMP JUMPDEST PUSH1 0x0 PUSH8 0xFFFFFFFFFFFFFFFF DUP3 GT ISZERO PUSH2 0x950 JUMPI PUSH2 0x94F PUSH2 0x8BA JUMP JUMPDEST JUMPDEST PUSH2 0x959 DUP3 PUSH2 0x6B2 JUMP JUMPDEST SWAP1 POP PUSH1 0x20 DUP2 ADD SWAP1 POP SWAP2 SWAP1 POP JUMP JUMPDEST DUP3 DUP2 DUP4 CALLDATACOPY PUSH1 0x0 DUP4 DUP4 ADD MSTORE POP POP POP JUMP JUMPDEST PUSH1 0x0 PUSH2 0x988 PUSH2 0x983 DUP5 PUSH2 0x935 JUMP JUMPDEST PUSH2 0x91A JUMP JUMPDEST SWAP1 POP DUP3 DUP2 MSTORE PUSH1 0x20 DUP2 ADD DUP5 DUP5 DUP5 ADD GT ISZERO PUSH2 0x9A4 JUMPI PUSH2 0x9A3 PUSH2 0x8B5 JUMP JUMPDEST JUMPDEST PUSH2 0x9AF DUP5 DUP3 DUP6 PUSH2 0x966 JUMP JUMPDEST POP SWAP4 SWAP3 POP POP POP JUMP JUMPDEST PUSH1 0x0 DUP3 PUSH1 0x1F DUP4 ADD SLT PUSH2 0x9CC JUMPI PUSH2 0x9CB PUSH2 0x8B0 JUMP JUMPDEST JUMPDEST DUP2 CALLDATALOAD PUSH2 0x9DC DUP5 DUP3 PUSH1 0x20 DUP7 ADD PUSH2 0x975 JUMP JUMPDEST SWAP2 POP POP SWAP3 SWAP2 POP POP JUMP JUMPDEST PUSH1 0x0 DUP1 PUSH1 0x0 DUP1 PUSH1 0x0 PUSH1 0xA0 DUP7 DUP9 SUB SLT ISZERO PUSH2 0xA01 JUMPI PUSH2 0xA00 PUSH2 0x5BC JUMP JUMPDEST JUMPDEST PUSH1 0x0 PUSH2 0xA0F DUP9 DUP3 DUP10 ADD PUSH2 0x82F JUMP JUMPDEST SWAP6 POP POP PUSH1 0x20 PUSH2 0xA20 DUP9 DUP3 DUP10 ADD PUSH2 0x82F JUMP JUMPDEST SWAP5 POP POP PUSH1 0x40 PUSH2 0xA31 DUP9 DUP3 DUP10 ADD PUSH2 0x82F JUMP JUMPDEST SWAP4 POP POP PUSH1 0x60 PUSH2 0xA42 DUP9 DUP3 DUP10 ADD PUSH2 0x89B JUMP JUMPDEST SWAP3 POP POP PUSH1 0x80 DUP7 ADD CALLDATALOAD PUSH8 0xFFFFFFFFFFFFFFFF DUP2 GT ISZERO PUSH2 0xA63 JUMPI PUSH2 0xA62 PUSH2 0x5C1 JUMP JUMPDEST JUMPDEST PUSH2 0xA6F DUP9 DUP3 DUP10 ADD PUSH2 0x9B7 JUMP JUMPDEST SWAP2 POP POP SWAP3 SWAP6 POP SWAP3 SWAP6 SWAP1 SWAP4 POP JUMP JUMPDEST PUSH32 0x4E487B7100000000000000000000000000000000000000000000000000000000 PUSH1 0x0 MSTORE PUSH1 0x22 PUSH1 0x4 MSTORE PUSH1 0x24 PUSH1 0x0 REVERT JUMPDEST PUSH1 0x0 PUSH1 0x2 DUP3 DIV SWAP1 POP PUSH1 0x1 DUP3 AND DUP1 PUSH2 0xAC3 JUMPI PUSH1 0x7F DUP3 AND SWAP2 POP JUMPDEST PUSH1 0x20 DUP3 LT DUP2 SUB PUSH2 0xAD6 JUMPI PUSH2 0xAD5 PUSH2 0xA7C JUMP JUMPDEST JUMPDEST POP SWAP2 SWAP1 POP JUMP JUMPDEST PUSH32 0x4F6E6C79204461746120456E747279204D616E616765722063616E2070657266 PUSH1 0x0 DUP3 ADD MSTORE PUSH32 0x6F726D207468697320616374696F6E0000000000000000000000000000000000 PUSH1 0x20 DUP3 ADD MSTORE POP JUMP JUMPDEST PUSH1 0x0 PUSH2 0xB38 PUSH1 0x2F DUP4 PUSH2 0x677 JUMP JUMPDEST SWAP2 POP PUSH2 0xB43 DUP3 PUSH2 0xADC JUMP JUMPDEST PUSH1 0x40 DUP3 ADD SWAP1 POP SWAP2 SWAP1 POP JUMP JUMPDEST PUSH1 0x0 PUSH1 0x20 DUP3 ADD SWAP1 POP DUP2 DUP2 SUB PUSH1 0x0 DUP4 ADD MSTORE PUSH2 0xB67 DUP2 PUSH2 0xB2B JUMP JUMPDEST SWAP1 POP SWAP2 SWAP1 POP JUMP JUMPDEST PUSH1 0x0 DUP2 SWAP1 POP SWAP2 SWAP1 POP JUMP JUMPDEST PUSH2 0xB89 PUSH2 0xB84 DUP3 PUSH2 0x653 JUMP JUMPDEST PUSH2 0xB6E JUMP JUMPDEST DUP3 MSTORE POP POP JUMP JUMPDEST PUSH1 0x0 DUP2 SWAP1 POP SWAP3 SWAP2 POP POP JUMP JUMPDEST PUSH1 0x0 PUSH2 0xBA5 DUP3 PUSH2 0x66C JUMP JUMPDEST PUSH2 0xBAF DUP2 DUP6 PUSH2 0xB8F JUMP JUMPDEST SWAP4 POP PUSH2 0xBBF DUP2 DUP6 PUSH1 0x20 DUP7 ADD PUSH2 0x688 JUMP JUMPDEST DUP1 DUP5 ADD SWAP2 POP POP SWAP3 SWAP2 POP POP JUMP JUMPDEST PUSH1 0x0 PUSH2 0xBD7 DUP3 DUP7 PUSH2 0xB78 JUMP JUMPDEST PUSH1 0x20 DUP3 ADD SWAP2 POP PUSH2 0xBE7 DUP3 DUP6 PUSH2 0xB78 JUMP JUMPDEST PUSH1 0x20 DUP3 ADD SWAP2 POP PUSH2 0xBF7 DUP3 DUP5 PUSH2 0xB9A JUMP JUMPDEST SWAP2 POP DUP2 SWAP1 POP SWAP5 SWAP4 POP POP POP POP JUMP JUMPDEST PUSH1 0x0 DUP2 MLOAD SWAP1 POP SWAP2 SWAP1 POP JUMP JUMPDEST PUSH1 0x0 DUP2 SWAP1 POP SWAP3 SWAP2 POP POP JUMP JUMPDEST PUSH1 0x0 PUSH2 0xC25 DUP3 PUSH2 0xC04 JUMP JUMPDEST PUSH2 0xC2F DUP2 DUP6 PUSH2 0xC0F JUMP JUMPDEST SWAP4 POP PUSH2 0xC3F DUP2 DUP6 PUSH1 0x20 DUP7 ADD PUSH2 0x688 JUMP JUMPDEST DUP1 DUP5 ADD SWAP2 POP POP SWAP3 SWAP2 POP POP JUMP JUMPDEST PUSH1 0x0 PUSH2 0xC57 DUP3 DUP5 PUSH2 0xC1A JUMP JUMPDEST SWAP2 POP DUP2 SWAP1 POP SWAP3 SWAP2 POP POP JUMP JUMPDEST PUSH1 0x0 DUP2 MLOAD SWAP1 POP PUSH2 0xC71 DUP2 PUSH2 0x5D0 JUMP JUMPDEST SWAP3 SWAP2 POP POP JUMP JUMPDEST PUSH1 0x0 PUSH1 0x20 DUP3 DUP5 SUB SLT ISZERO PUSH2 0xC8D JUMPI PUSH2 0xC8C PUSH2 0x5BC JUMP JUMPDEST JUMPDEST PUSH1 0x0 PUSH2 0xC9B DUP5 DUP3 DUP6 ADD PUSH2 0xC62 JUMP JUMPDEST SWAP2 POP POP SWAP3 SWAP2 POP POP JUMP JUMPDEST PUSH1 0x0 DUP2 SWAP1 POP DUP2 PUSH1 0x0 MSTORE PUSH1 0x20 PUSH1 0x0 KECCAK256 SWAP1 POP SWAP2 SWAP1 POP JUMP JUMPDEST PUSH1 0x0 PUSH1 0x20 PUSH1 0x1F DUP4 ADD DIV SWAP1 POP SWAP2 SWAP1 POP JUMP JUMPDEST PUSH1 0x0 DUP3 DUP3 SHL SWAP1 POP SWAP3 SWAP2 POP POP JUMP JUMPDEST PUSH1 0x0 PUSH1 0x8 DUP4 MUL PUSH2 0xD06 PUSH32 0xFFFFFFFFFFFFFFFFFFFFFFFFFFFFFFFFFFFFFFFFFFFFFFFFFFFFFFFFFFFFFFFF DUP3 PUSH2 0xCC9 JUMP JUMPDEST PUSH2 0xD10 DUP7 DUP4 PUSH2 0xCC9 JUMP JUMPDEST SWAP6 POP DUP1 NOT DUP5 AND SWAP4 POP DUP1 DUP7 AND DUP5 OR SWAP3 POP POP POP SWAP4 SWAP3 POP POP POP JUMP JUMPDEST PUSH1 0x0 DUP2 SWAP1 POP SWAP2 SWAP1 POP JUMP JUMPDEST PUSH1 0x0 PUSH2 0xD4D PUSH2 0xD48 PUSH2 0xD43 DUP5 PUSH2 0x653 JUMP JUMPDEST PUSH2 0xD28 JUMP JUMPDEST PUSH2 0x653 JUMP JUMPDEST SWAP1 POP SWAP2 SWAP1 POP JUMP JUMPDEST PUSH1 0x0 DUP2 SWAP1 POP SWAP2 SWAP1 POP JUMP JUMPDEST PUSH2 0xD67 DUP4 PUSH2 0xD32 JUMP JUMPDEST PUSH2 0xD7B PUSH2 0xD73 DUP3 PUSH2 0xD54 JUMP JUMPDEST DUP5 DUP5 SLOAD PUSH2 0xCD6 JUMP JUMPDEST DUP3 SSTORE POP POP POP POP JUMP JUMPDEST PUSH1 0x0 SWAP1 JUMP JUMPDEST PUSH2 0xD90 PUSH2 0xD83 JUMP JUMPDEST PUSH2 0xD9B DUP2 DUP5 DUP5 PUSH2 0xD5E JUMP JUMPDEST POP POP POP JUMP JUMPDEST JUMPDEST DUP2 DUP2 LT ISZERO PUSH2 0xDBF JUMPI PUSH2 0xDB4 PUSH1 0x0 DUP3 PUSH2 0xD88 JUMP JUMPDEST PUSH1 0x1 DUP2 ADD SWAP1 POP PUSH2 0xDA1 JUMP JUMPDEST POP POP JUMP JUMPDEST PUSH1 0x1F DUP3 GT ISZERO PUSH2 0xE04 JUMPI PUSH2 0xDD5 DUP2 PUSH2 0xCA4 JUMP JUMPDEST PUSH2 0xDDE DUP5 PUSH2 0xCB9 JUMP JUMPDEST DUP2 ADD PUSH1 0x20 DUP6 LT ISZERO PUSH2 0xDED JUMPI DUP2 SWAP1 POP JUMPDEST PUSH2 0xE01 PUSH2 0xDF9 DUP6 PUSH2 0xCB9 JUMP JUMPDEST DUP4 ADD DUP3 PUSH2 0xDA0 JUMP JUMPDEST POP POP JUMPDEST POP POP POP JUMP JUMPDEST PUSH1 0x0 DUP3 DUP3 SHR SWAP1 POP SWAP3 SWAP2 POP POP JUMP JUMPDEST PUSH1 0x0 PUSH2 0xE27 PUSH1 0x0 NOT DUP5 PUSH1 0x8 MUL PUSH2 0xE09 JUMP JUMPDEST NOT DUP1 DUP4 AND SWAP2 POP POP SWAP3 SWAP2 POP POP JUMP JUMPDEST PUSH1 0x0 PUSH2 0xE40 DUP4 DUP4 PUSH2 0xE16 JUMP JUMPDEST SWAP2 POP DUP3 PUSH1 0x2 MUL DUP3 OR SWAP1 POP SWAP3 SWAP2 POP POP JUMP JUMPDEST PUSH2 0xE59 DUP3 PUSH2 0x66C JUMP JUMPDEST PUSH8 0xFFFFFFFFFFFFFFFF DUP2 GT ISZERO PUSH2 0xE72 JUMPI PUSH2 0xE71 PUSH2 0x8BA JUMP JUMPDEST JUMPDEST PUSH2 0xE7C DUP3 SLOAD PUSH2 0xAAB JUMP JUMPDEST PUSH2 0xE87 DUP3 DUP3 DUP6 PUSH2 0xDC3 JUMP JUMPDEST PUSH1 0x0 PUSH1 0x20 SWAP1 POP PUSH1 0x1F DUP4 GT PUSH1 0x1 DUP2 EQ PUSH2 0xEBA JUMPI PUSH1 0x0 DUP5 ISZERO PUSH2 0xEA8 JUMPI DUP3 DUP8 ADD MLOAD SWAP1 POP JUMPDEST PUSH2 0xEB2 DUP6 DUP3 PUSH2 0xE34 JUMP JUMPDEST DUP7 SSTORE POP PUSH2 0xF1A JUMP JUMPDEST PUSH1 0x1F NOT DUP5 AND PUSH2 0xEC8 DUP7 PUSH2 0xCA4 JUMP JUMPDEST PUSH1 0x0 JUMPDEST DUP3 DUP2 LT ISZERO PUSH2 0xEF0 JUMPI DUP5 DUP10 ADD MLOAD DUP3 SSTORE PUSH1 0x1 DUP3 ADD SWAP2 POP PUSH1 0x20 DUP6 ADD SWAP5 POP PUSH1 0x20 DUP2 ADD SWAP1 POP PUSH2 0xECB JUMP JUMPDEST DUP7 DUP4 LT ISZERO PUSH2 0xF0D JUMPI DUP5 DUP10 ADD MLOAD PUSH2 0xF09 PUSH1 0x1F DUP10 AND DUP3 PUSH2 0xE16 JUMP JUMPDEST DUP4 SSTORE POP JUMPDEST PUSH1 0x1 PUSH1 0x2 DUP9 MUL ADD DUP9 SSTORE POP POP POP JUMPDEST POP POP POP POP POP POP JUMP INVALID LOG2 PUSH5 0x6970667358 0x22 SLT KECCAK256 0xAD 0xEA 0xBC 0xD4 MOD EQ 0xC 0xB8 0xE3 0x5C 0x4D DUP4 CREATE2 PUSH25 0x10E9E2B70091FAD7F1AB06E4F187B5CA069D64736F6C634300 ADDMOD SLT STOP CALLER "
				},
				"gasEstimates": {
					"creation": {
						"codeDepositCost": "785600",
						"executionCost": "infinite",
						"totalCost": "infinite"
					},
					"external": {
						"approveEntry(bool,bool,bool,uint256,string)": "infinite",
						"chancellor()": "2536",
						"dataEntryManager()": "2556",
						"entries(bytes32)": "infinite",
						"isApprover(address)": "2912",
						"registrar()": "2537",
						"setApprover(address,bool)": "27158",
						"viceChancellor()": "2580"
					},
					"internal": {
						"shab256(bytes memory)": "infinite"
					}
				},
				"methodIdentifiers": {
					"approveEntry(bool,bool,bool,uint256,string)": "f63be0a1",
					"chancellor()": "e6b43609",
					"dataEntryManager()": "46252acf",
					"entries(bytes32)": "267b6922",
					"isApprover(address)": "6d218e48",
					"registrar()": "2b20e397",
					"setApprover(address,bool)": "d76fd2e7",
					"viceChancellor()": "fe52fffa"
				}
			},
			"storageLayout": {
				"storage": [
					{
						"astId": 12,
						"contract": "degree.sol:ApprovalContract",
						"label": "dataEntryManager",
						"offset": 0,
						"slot": "0",
						"type": "t_address"
					},
					{
						"astId": 14,
						"contract": "degree.sol:ApprovalContract",
						"label": "registrar",
						"offset": 0,
						"slot": "1",
						"type": "t_address"
					},
					{
						"astId": 16,
						"contract": "degree.sol:ApprovalContract",
						"label": "viceChancellor",
						"offset": 0,
						"slot": "2",
						"type": "t_address"
					},
					{
						"astId": 18,
						"contract": "degree.sol:ApprovalContract",
						"label": "chancellor",
						"offset": 0,
						"slot": "3",
						"type": "t_address"
					},
					{
						"astId": 22,
						"contract": "degree.sol:ApprovalContract",
						"label": "isApprover",
						"offset": 0,
						"slot": "4",
						"type": "t_mapping(t_address,t_bool)"
					},
					{
						"astId": 27,
						"contract": "degree.sol:ApprovalContract",
						"label": "entries",
						"offset": 0,
						"slot": "5",
						"type": "t_mapping(t_bytes32,t_struct(Entry)10_storage)"
					}
				],
				"types": {
					"t_address": {
						"encoding": "inplace",
						"label": "address",
						"numberOfBytes": "20"
					},
					"t_bool": {
						"encoding": "inplace",
						"label": "bool",
						"numberOfBytes": "1"
					},
					"t_bytes32": {
						"encoding": "inplace",
						"label": "bytes32",
						"numberOfBytes": "32"
					},
					"t_mapping(t_address,t_bool)": {
						"encoding": "mapping",
						"key": "t_address",
						"label": "mapping(address => bool)",
						"numberOfBytes": "32",
						"value": "t_bool"
					},
					"t_mapping(t_bytes32,t_struct(Entry)10_storage)": {
						"encoding": "mapping",
						"key": "t_bytes32",
						"label": "mapping(bytes32 => struct ApprovalContract.Entry)",
						"numberOfBytes": "32",
						"value": "t_struct(Entry)10_storage"
					},
					"t_string_storage": {
						"encoding": "bytes",
						"label": "string",
						"numberOfBytes": "32"
					},
					"t_struct(Entry)10_storage": {
						"encoding": "inplace",
						"label": "struct ApprovalContract.Entry",
						"members": [
							{
								"astId": 3,
								"contract": "degree.sol:ApprovalContract",
								"label": "approved",
								"offset": 0,
								"slot": "0",
								"type": "t_bool"
							},
							{
								"astId": 5,
								"contract": "degree.sol:ApprovalContract",
								"label": "hashcode",
								"offset": 0,
								"slot": "1",
								"type": "t_bytes32"
							},
							{
								"astId": 7,
								"contract": "degree.sol:ApprovalContract",
								"label": "rollNo",
								"offset": 0,
								"slot": "2",
								"type": "t_uint256"
							},
							{
								"astId": 9,
								"contract": "degree.sol:ApprovalContract",
								"label": "studentName",
								"offset": 0,
								"slot": "3",
								"type": "t_string_storage"
							}
						],
						"numberOfBytes": "128"
					},
					"t_uint256": {
						"encoding": "inplace",
						"label": "uint256",
						"numberOfBytes": "32"
					}
				}
			},
			"userdoc": {
				"kind": "user",
				"methods": {},
				"version": 1
			}
		}
	}
}