{
	"compound.sol": {
		"CompoundUSDT": {
			"abi": [
				{
					"inputs": [
						{
							"internalType": "address",
							"name": "_cTokenAddress",
							"type": "address"
						},
						{
							"internalType": "address",
							"name": "_usdtAddress",
							"type": "address"
						}
					],
					"stateMutability": "nonpayable",
					"type": "constructor"
				},
				{
					"inputs": [
						{
							"internalType": "uint256",
							"name": "borrowAmount",
							"type": "uint256"
						}
					],
					"name": "borrow",
					"outputs": [],
					"stateMutability": "nonpayable",
					"type": "function"
				},
				{
					"inputs": [],
					"name": "cToken",
					"outputs": [
						{
							"internalType": "contract CTokenInterface",
							"name": "",
							"type": "address"
						}
					],
					"stateMutability": "view",
					"type": "function"
				},
				{
					"inputs": [],
					"name": "getCTokenBalance",
					"outputs": [
						{
							"internalType": "uint256",
							"name": "",
							"type": "uint256"
						}
					],
					"stateMutability": "view",
					"type": "function"
				},
				{
					"inputs": [
						{
							"internalType": "uint256",
							"name": "cTokenAmount",
							"type": "uint256"
						}
					],
					"name": "redeem",
					"outputs": [],
					"stateMutability": "nonpayable",
					"type": "function"
				},
				{
					"inputs": [
						{
							"internalType": "uint256",
							"name": "repayAmount",
							"type": "uint256"
						}
					],
					"name": "repayBorrow",
					"outputs": [],
					"stateMutability": "nonpayable",
					"type": "function"
				},
				{
					"inputs": [
						{
							"internalType": "uint256",
							"name": "underlyingAmount",
							"type": "uint256"
						}
					],
					"name": "supply",
					"outputs": [],
					"stateMutability": "nonpayable",
					"type": "function"
				},
				{
					"inputs": [],
					"name": "usdt",
					"outputs": [
						{
							"internalType": "contract IERC20",
							"name": "",
							"type": "address"
						}
					],
					"stateMutability": "view",
					"type": "function"
				}
			],
			"devdoc": {
				"kind": "dev",
				"methods": {},
				"version": 1
			},
			"evm": {
				"assembly": "    /* \"compound.sol\":508:2035  contract CompoundUSDT {... */\n  mstore(0x40, 0x80)\n    /* \"compound.sol\":596:748  constructor(address _cTokenAddress, address _usdtAddress) {... */\n  callvalue\n  dup1\n  iszero\n  tag_1\n  jumpi\n  0x00\n  dup1\n  revert\ntag_1:\n  pop\n  mload(0x40)\n  sub(codesize, bytecodeSize)\n  dup1\n  bytecodeSize\n  dup4\n  codecopy\n  dup2\n  dup2\n  add\n  0x40\n  mstore\n  dup2\n  add\n  swap1\n  tag_2\n  swap2\n  swap1\n  tag_3\n  jump\t// in\ntag_2:\n    /* \"compound.sol\":689:703  _cTokenAddress */\n  dup2\n    /* \"compound.sol\":664:670  cToken */\n  0x00\n  dup1\n    /* \"compound.sol\":664:704  cToken = CTokenInterface(_cTokenAddress) */\n  0x0100\n  exp\n  dup2\n  sload\n  dup2\n  0xffffffffffffffffffffffffffffffffffffffff\n  mul\n  not\n  and\n  swap1\n  dup4\n  0xffffffffffffffffffffffffffffffffffffffff\n  and\n  mul\n  or\n  swap1\n  sstore\n  pop\n    /* \"compound.sol\":728:740  _usdtAddress */\n  dup1\n    /* \"compound.sol\":714:718  usdt */\n  0x01\n  0x00\n    /* \"compound.sol\":714:741  usdt = IERC20(_usdtAddress) */\n  0x0100\n  exp\n  dup2\n  sload\n  dup2\n  0xffffffffffffffffffffffffffffffffffffffff\n  mul\n  not\n  and\n  swap1\n  dup4\n  0xffffffffffffffffffffffffffffffffffffffff\n  and\n  mul\n  or\n  swap1\n  sstore\n  pop\n    /* \"compound.sol\":596:748  constructor(address _cTokenAddress, address _usdtAddress) {... */\n  pop\n  pop\n    /* \"compound.sol\":508:2035  contract CompoundUSDT {... */\n  jump(tag_6)\n    /* \"#utility.yul\":88:205   */\ntag_8:\n    /* \"#utility.yul\":197:198   */\n  0x00\n    /* \"#utility.yul\":194:195   */\n  dup1\n    /* \"#utility.yul\":187:199   */\n  revert\n    /* \"#utility.yul\":334:460   */\ntag_10:\n    /* \"#utility.yul\":371:378   */\n  0x00\n    /* \"#utility.yul\":411:453   */\n  0xffffffffffffffffffffffffffffffffffffffff\n    /* \"#utility.yul\":404:409   */\n  dup3\n    /* \"#utility.yul\":400:454   */\n  and\n    /* \"#utility.yul\":389:454   */\n  swap1\n  pop\n    /* \"#utility.yul\":334:460   */\n  swap2\n  swap1\n  pop\n  jump\t// out\n    /* \"#utility.yul\":466:562   */\ntag_11:\n    /* \"#utility.yul\":503:510   */\n  0x00\n    /* \"#utility.yul\":532:556   */\n  tag_20\n    /* \"#utility.yul\":550:555   */\n  dup3\n    /* \"#utility.yul\":532:556   */\n  tag_10\n  jump\t// in\ntag_20:\n    /* \"#utility.yul\":521:556   */\n  swap1\n  pop\n    /* \"#utility.yul\":466:562   */\n  swap2\n  swap1\n  pop\n  jump\t// out\n    /* \"#utility.yul\":568:690   */\ntag_12:\n    /* \"#utility.yul\":641:665   */\n  tag_22\n    /* \"#utility.yul\":659:664   */\n  dup2\n    /* \"#utility.yul\":641:665   */\n  tag_11\n  jump\t// in\ntag_22:\n    /* \"#utility.yul\":634:639   */\n  dup2\n    /* \"#utility.yul\":631:666   */\n  eq\n    /* \"#utility.yul\":621:684   */\n  tag_23\n  jumpi\n    /* \"#utility.yul\":680:681   */\n  0x00\n    /* \"#utility.yul\":677:678   */\n  dup1\n    /* \"#utility.yul\":670:682   */\n  revert\n    /* \"#utility.yul\":621:684   */\ntag_23:\n    /* \"#utility.yul\":568:690   */\n  pop\n  jump\t// out\n    /* \"#utility.yul\":696:839   */\ntag_13:\n    /* \"#utility.yul\":753:758   */\n  0x00\n    /* \"#utility.yul\":784:790   */\n  dup2\n    /* \"#utility.yul\":778:791   */\n  mload\n    /* \"#utility.yul\":769:791   */\n  swap1\n  pop\n    /* \"#utility.yul\":800:833   */\n  tag_25\n    /* \"#utility.yul\":827:832   */\n  dup2\n    /* \"#utility.yul\":800:833   */\n  tag_12\n  jump\t// in\ntag_25:\n    /* \"#utility.yul\":696:839   */\n  swap3\n  swap2\n  pop\n  pop\n  jump\t// out\n    /* \"#utility.yul\":845:1352   */\ntag_3:\n    /* \"#utility.yul\":924:930   */\n  0x00\n    /* \"#utility.yul\":932:938   */\n  dup1\n    /* \"#utility.yul\":981:983   */\n  0x40\n    /* \"#utility.yul\":969:978   */\n  dup4\n    /* \"#utility.yul\":960:967   */\n  dup6\n    /* \"#utility.yul\":956:979   */\n  sub\n    /* \"#utility.yul\":952:984   */\n  slt\n    /* \"#utility.yul\":949:1068   */\n  iszero\n  tag_27\n  jumpi\n    /* \"#utility.yul\":987:1066   */\n  tag_28\n  tag_8\n  jump\t// in\ntag_28:\n    /* \"#utility.yul\":949:1068   */\ntag_27:\n    /* \"#utility.yul\":1107:1108   */\n  0x00\n    /* \"#utility.yul\":1132:1196   */\n  tag_29\n    /* \"#utility.yul\":1188:1195   */\n  dup6\n    /* \"#utility.yul\":1179:1185   */\n  dup3\n    /* \"#utility.yul\":1168:1177   */\n  dup7\n    /* \"#utility.yul\":1164:1186   */\n  add\n    /* \"#utility.yul\":1132:1196   */\n  tag_13\n  jump\t// in\ntag_29:\n    /* \"#utility.yul\":1122:1196   */\n  swap3\n  pop\n    /* \"#utility.yul\":1078:1206   */\n  pop\n    /* \"#utility.yul\":1245:1247   */\n  0x20\n    /* \"#utility.yul\":1271:1335   */\n  tag_30\n    /* \"#utility.yul\":1327:1334   */\n  dup6\n    /* \"#utility.yul\":1318:1324   */\n  dup3\n    /* \"#utility.yul\":1307:1316   */\n  dup7\n    /* \"#utility.yul\":1303:1325   */\n  add\n    /* \"#utility.yul\":1271:1335   */\n  tag_13\n  jump\t// in\ntag_30:\n    /* \"#utility.yul\":1261:1335   */\n  swap2\n  pop\n    /* \"#utility.yul\":1216:1345   */\n  pop\n    /* \"#utility.yul\":845:1352   */\n  swap3\n  pop\n  swap3\n  swap1\n  pop\n  jump\t// out\n    /* \"compound.sol\":508:2035  contract CompoundUSDT {... */\ntag_6:\n  dataSize(sub_0)\n  dup1\n  dataOffset(sub_0)\n  0x00\n  codecopy\n  0x00\n  return\nstop\n\nsub_0: assembly {\n        /* \"compound.sol\":508:2035  contract CompoundUSDT {... */\n      mstore(0x40, 0x80)\n      callvalue\n      dup1\n      iszero\n      tag_1\n      jumpi\n      0x00\n      dup1\n      revert\n    tag_1:\n      pop\n      jumpi(tag_2, lt(calldatasize, 0x04))\n      shr(0xe0, calldataload(0x00))\n      dup1\n      0x69e527da\n      gt\n      tag_10\n      jumpi\n      dup1\n      0x69e527da\n      eq\n      tag_6\n      jumpi\n      dup1\n      0x8eae8854\n      eq\n      tag_7\n      jumpi\n      dup1\n      0xc5ebeaec\n      eq\n      tag_8\n      jumpi\n      dup1\n      0xdb006a75\n      eq\n      tag_9\n      jumpi\n      jump(tag_2)\n    tag_10:\n      dup1\n      0x0e752702\n      eq\n      tag_3\n      jumpi\n      dup1\n      0x2f48ab7d\n      eq\n      tag_4\n      jumpi\n      dup1\n      0x35403023\n      eq\n      tag_5\n      jumpi\n    tag_2:\n      0x00\n      dup1\n      revert\n        /* \"compound.sol\":1579:1915  function repayBorrow(uint repayAmount) external {... */\n    tag_3:\n      tag_11\n      0x04\n      dup1\n      calldatasize\n      sub\n      dup2\n      add\n      swap1\n      tag_12\n      swap2\n      swap1\n      tag_13\n      jump\t// in\n    tag_12:\n      tag_14\n      jump\t// in\n    tag_11:\n      stop\n        /* \"compound.sol\":571:589  IERC20 public usdt */\n    tag_4:\n      tag_15\n      tag_16\n      jump\t// in\n    tag_15:\n      mload(0x40)\n      tag_17\n      swap2\n      swap1\n      tag_18\n      jump\t// in\n    tag_17:\n      mload(0x40)\n      dup1\n      swap2\n      sub\n      swap1\n      return\n        /* \"compound.sol\":754:1099  function supply(uint underlyingAmount) external {... */\n    tag_5:\n      tag_19\n      0x04\n      dup1\n      calldatasize\n      sub\n      dup2\n      add\n      swap1\n      tag_20\n      swap2\n      swap1\n      tag_13\n      jump\t// in\n    tag_20:\n      tag_21\n      jump\t// in\n    tag_19:\n      stop\n        /* \"compound.sol\":536:565  CTokenInterface public cToken */\n    tag_6:\n      tag_22\n      tag_23\n      jump\t// in\n    tag_22:\n      mload(0x40)\n      tag_24\n      swap2\n      swap1\n      tag_25\n      jump\t// in\n    tag_24:\n      mload(0x40)\n      dup1\n      swap2\n      sub\n      swap1\n      return\n        /* \"compound.sol\":1921:2033  function getCTokenBalance() external view returns (uint) {... */\n    tag_7:\n      tag_26\n      tag_27\n      jump\t// in\n    tag_26:\n      mload(0x40)\n      tag_28\n      swap2\n      swap1\n      tag_29\n      jump\t// in\n    tag_28:\n      mload(0x40)\n      dup1\n      swap2\n      sub\n      swap1\n      return\n        /* \"compound.sol\":1342:1573  function borrow(uint borrowAmount) external {... */\n    tag_8:\n      tag_30\n      0x04\n      dup1\n      calldatasize\n      sub\n      dup2\n      add\n      swap1\n      tag_31\n      swap2\n      swap1\n      tag_13\n      jump\t// in\n    tag_31:\n      tag_32\n      jump\t// in\n    tag_30:\n      stop\n        /* \"compound.sol\":1105:1336  function redeem(uint cTokenAmount) external {... */\n    tag_9:\n      tag_33\n      0x04\n      dup1\n      calldatasize\n      sub\n      dup2\n      add\n      swap1\n      tag_34\n      swap2\n      swap1\n      tag_13\n      jump\t// in\n    tag_34:\n      tag_35\n      jump\t// in\n    tag_33:\n      stop\n        /* \"compound.sol\":1579:1915  function repayBorrow(uint repayAmount) external {... */\n    tag_14:\n        /* \"compound.sol\":1645:1649  usdt */\n      0x01\n      0x00\n      swap1\n      sload\n      swap1\n      0x0100\n      exp\n      swap1\n      div\n      0xffffffffffffffffffffffffffffffffffffffff\n      and\n        /* \"compound.sol\":1645:1662  usdt.transferFrom */\n      0xffffffffffffffffffffffffffffffffffffffff\n      and\n      0x23b872dd\n        /* \"compound.sol\":1663:1673  msg.sender */\n      caller\n        /* \"compound.sol\":1683:1687  this */\n      address\n        /* \"compound.sol\":1690:1701  repayAmount */\n      dup5\n        /* \"compound.sol\":1645:1702  usdt.transferFrom(msg.sender, address(this), repayAmount) */\n      mload(0x40)\n      dup5\n      0xffffffff\n      and\n      0xe0\n      shl\n      dup2\n      mstore\n      0x04\n      add\n      tag_37\n      swap4\n      swap3\n      swap2\n      swap1\n      tag_38\n      jump\t// in\n    tag_37:\n      0x20\n      mload(0x40)\n      dup1\n      dup4\n      sub\n      dup2\n      0x00\n      dup8\n      gas\n      call\n      iszero\n      dup1\n      iszero\n      tag_40\n      jumpi\n      returndatasize\n      0x00\n      dup1\n      returndatacopy\n      revert(0x00, returndatasize)\n    tag_40:\n      pop\n      pop\n      pop\n      pop\n      mload(0x40)\n      returndatasize\n      not(0x1f)\n      0x1f\n      dup3\n      add\n      and\n      dup3\n      add\n      dup1\n      0x40\n      mstore\n      pop\n      dup2\n      add\n      swap1\n      tag_41\n      swap2\n      swap1\n      tag_42\n      jump\t// in\n    tag_41:\n        /* \"compound.sol\":1637:1727  require(usdt.transferFrom(msg.sender, address(this), repayAmount), \"USDT transfer failed\") */\n      tag_43\n      jumpi\n      mload(0x40)\n      0x08c379a000000000000000000000000000000000000000000000000000000000\n      dup2\n      mstore\n      0x04\n      add\n      tag_44\n      swap1\n      tag_45\n      jump\t// in\n    tag_44:\n      mload(0x40)\n      dup1\n      swap2\n      sub\n      swap1\n      revert\n    tag_43:\n        /* \"compound.sol\":1745:1749  usdt */\n      0x01\n      0x00\n      swap1\n      sload\n      swap1\n      0x0100\n      exp\n      swap1\n      div\n      0xffffffffffffffffffffffffffffffffffffffff\n      and\n        /* \"compound.sol\":1745:1757  usdt.approve */\n      0xffffffffffffffffffffffffffffffffffffffff\n      and\n      0x095ea7b3\n        /* \"compound.sol\":1766:1772  cToken */\n      0x00\n      dup1\n      sload\n      swap1\n      0x0100\n      exp\n      swap1\n      div\n      0xffffffffffffffffffffffffffffffffffffffff\n      and\n        /* \"compound.sol\":1775:1786  repayAmount */\n      dup4\n        /* \"compound.sol\":1745:1787  usdt.approve(address(cToken), repayAmount) */\n      mload(0x40)\n      dup4\n      0xffffffff\n      and\n      0xe0\n      shl\n      dup2\n      mstore\n      0x04\n      add\n      tag_46\n      swap3\n      swap2\n      swap1\n      tag_47\n      jump\t// in\n    tag_46:\n      0x20\n      mload(0x40)\n      dup1\n      dup4\n      sub\n      dup2\n      0x00\n      dup8\n      gas\n      call\n      iszero\n      dup1\n      iszero\n      tag_49\n      jumpi\n      returndatasize\n      0x00\n      dup1\n      returndatacopy\n      revert(0x00, returndatasize)\n    tag_49:\n      pop\n      pop\n      pop\n      pop\n      mload(0x40)\n      returndatasize\n      not(0x1f)\n      0x1f\n      dup3\n      add\n      and\n      dup3\n      add\n      dup1\n      0x40\n      mstore\n      pop\n      dup2\n      add\n      swap1\n      tag_50\n      swap2\n      swap1\n      tag_42\n      jump\t// in\n    tag_50:\n        /* \"compound.sol\":1737:1807  require(usdt.approve(address(cToken), repayAmount), \"Approval failed\") */\n      tag_51\n      jumpi\n      mload(0x40)\n      0x08c379a000000000000000000000000000000000000000000000000000000000\n      dup2\n      mstore\n      0x04\n      add\n      tag_52\n      swap1\n      tag_53\n      jump\t// in\n    tag_52:\n      mload(0x40)\n      dup1\n      swap2\n      sub\n      swap1\n      revert\n    tag_51:\n        /* \"compound.sol\":1817:1828  uint result */\n      0x00\n        /* \"compound.sol\":1831:1837  cToken */\n      dup1\n      0x00\n      swap1\n      sload\n      swap1\n      0x0100\n      exp\n      swap1\n      div\n      0xffffffffffffffffffffffffffffffffffffffff\n      and\n        /* \"compound.sol\":1831:1849  cToken.repayBorrow */\n      0xffffffffffffffffffffffffffffffffffffffff\n      and\n      0x0e752702\n        /* \"compound.sol\":1850:1861  repayAmount */\n      dup4\n        /* \"compound.sol\":1831:1862  cToken.repayBorrow(repayAmount) */\n      mload(0x40)\n      dup3\n      0xffffffff\n      and\n      0xe0\n      shl\n      dup2\n      mstore\n      0x04\n      add\n      tag_54\n      swap2\n      swap1\n      tag_29\n      jump\t// in\n    tag_54:\n      0x20\n      mload(0x40)\n      dup1\n      dup4\n      sub\n      dup2\n      0x00\n      dup8\n      gas\n      call\n      iszero\n      dup1\n      iszero\n      tag_56\n      jumpi\n      returndatasize\n      0x00\n      dup1\n      returndatacopy\n      revert(0x00, returndatasize)\n    tag_56:\n      pop\n      pop\n      pop\n      pop\n      mload(0x40)\n      returndatasize\n      not(0x1f)\n      0x1f\n      dup3\n      add\n      and\n      dup3\n      add\n      dup1\n      0x40\n      mstore\n      pop\n      dup2\n      add\n      swap1\n      tag_57\n      swap2\n      swap1\n      tag_58\n      jump\t// in\n    tag_57:\n        /* \"compound.sol\":1817:1862  uint result = cToken.repayBorrow(repayAmount) */\n      swap1\n      pop\n        /* \"compound.sol\":1890:1891  0 */\n      0x00\n        /* \"compound.sol\":1880:1886  result */\n      dup2\n        /* \"compound.sol\":1880:1891  result == 0 */\n      eq\n        /* \"compound.sol\":1872:1908  require(result == 0, \"Repay failed\") */\n      tag_59\n      jumpi\n      mload(0x40)\n      0x08c379a000000000000000000000000000000000000000000000000000000000\n      dup2\n      mstore\n      0x04\n      add\n      tag_60\n      swap1\n      tag_61\n      jump\t// in\n    tag_60:\n      mload(0x40)\n      dup1\n      swap2\n      sub\n      swap1\n      revert\n    tag_59:\n        /* \"compound.sol\":1627:1915  {... */\n      pop\n        /* \"compound.sol\":1579:1915  function repayBorrow(uint repayAmount) external {... */\n      pop\n      jump\t// out\n        /* \"compound.sol\":571:589  IERC20 public usdt */\n    tag_16:\n      0x01\n      0x00\n      swap1\n      sload\n      swap1\n      0x0100\n      exp\n      swap1\n      div\n      0xffffffffffffffffffffffffffffffffffffffff\n      and\n      dup2\n      jump\t// out\n        /* \"compound.sol\":754:1099  function supply(uint underlyingAmount) external {... */\n    tag_21:\n        /* \"compound.sol\":820:824  usdt */\n      0x01\n      0x00\n      swap1\n      sload\n      swap1\n      0x0100\n      exp\n      swap1\n      div\n      0xffffffffffffffffffffffffffffffffffffffff\n      and\n        /* \"compound.sol\":820:832  usdt.approve */\n      0xffffffffffffffffffffffffffffffffffffffff\n      and\n      0x095ea7b3\n        /* \"compound.sol\":841:847  cToken */\n      0x00\n      dup1\n      sload\n      swap1\n      0x0100\n      exp\n      swap1\n      div\n      0xffffffffffffffffffffffffffffffffffffffff\n      and\n        /* \"compound.sol\":850:866  underlyingAmount */\n      dup4\n        /* \"compound.sol\":820:867  usdt.approve(address(cToken), underlyingAmount) */\n      mload(0x40)\n      dup4\n      0xffffffff\n      and\n      0xe0\n      shl\n      dup2\n      mstore\n      0x04\n      add\n      tag_63\n      swap3\n      swap2\n      swap1\n      tag_47\n      jump\t// in\n    tag_63:\n      0x20\n      mload(0x40)\n      dup1\n      dup4\n      sub\n      dup2\n      0x00\n      dup8\n      gas\n      call\n      iszero\n      dup1\n      iszero\n      tag_65\n      jumpi\n      returndatasize\n      0x00\n      dup1\n      returndatacopy\n      revert(0x00, returndatasize)\n    tag_65:\n      pop\n      pop\n      pop\n      pop\n      mload(0x40)\n      returndatasize\n      not(0x1f)\n      0x1f\n      dup3\n      add\n      and\n      dup3\n      add\n      dup1\n      0x40\n      mstore\n      pop\n      dup2\n      add\n      swap1\n      tag_66\n      swap2\n      swap1\n      tag_42\n      jump\t// in\n    tag_66:\n        /* \"compound.sol\":812:887  require(usdt.approve(address(cToken), underlyingAmount), \"Approval failed\") */\n      tag_67\n      jumpi\n      mload(0x40)\n      0x08c379a000000000000000000000000000000000000000000000000000000000\n      dup2\n      mstore\n      0x04\n      add\n      tag_68\n      swap1\n      tag_53\n      jump\t// in\n    tag_68:\n      mload(0x40)\n      dup1\n      swap2\n      sub\n      swap1\n      revert\n    tag_67:\n        /* \"compound.sol\":1004:1015  uint result */\n      0x00\n        /* \"compound.sol\":1018:1024  cToken */\n      dup1\n      0x00\n      swap1\n      sload\n      swap1\n      0x0100\n      exp\n      swap1\n      div\n      0xffffffffffffffffffffffffffffffffffffffff\n      and\n        /* \"compound.sol\":1018:1029  cToken.mint */\n      0xffffffffffffffffffffffffffffffffffffffff\n      and\n      0xa0712d68\n        /* \"compound.sol\":1030:1046  underlyingAmount */\n      dup4\n        /* \"compound.sol\":1018:1047  cToken.mint(underlyingAmount) */\n      mload(0x40)\n      dup3\n      0xffffffff\n      and\n      0xe0\n      shl\n      dup2\n      mstore\n      0x04\n      add\n      tag_69\n      swap2\n      swap1\n      tag_29\n      jump\t// in\n    tag_69:\n      0x20\n      mload(0x40)\n      dup1\n      dup4\n      sub\n      dup2\n      0x00\n      dup8\n      gas\n      call\n      iszero\n      dup1\n      iszero\n      tag_71\n      jumpi\n      returndatasize\n      0x00\n      dup1\n      returndatacopy\n      revert(0x00, returndatasize)\n    tag_71:\n      pop\n      pop\n      pop\n      pop\n      mload(0x40)\n      returndatasize\n      not(0x1f)\n      0x1f\n      dup3\n      add\n      and\n      dup3\n      add\n      dup1\n      0x40\n      mstore\n      pop\n      dup2\n      add\n      swap1\n      tag_72\n      swap2\n      swap1\n      tag_58\n      jump\t// in\n    tag_72:\n        /* \"compound.sol\":1004:1047  uint result = cToken.mint(underlyingAmount) */\n      swap1\n      pop\n        /* \"compound.sol\":1075:1076  0 */\n      0x00\n        /* \"compound.sol\":1065:1071  result */\n      dup2\n        /* \"compound.sol\":1065:1076  result == 0 */\n      eq\n        /* \"compound.sol\":1057:1092  require(result == 0, \"Mint failed\") */\n      tag_73\n      jumpi\n      mload(0x40)\n      0x08c379a000000000000000000000000000000000000000000000000000000000\n      dup2\n      mstore\n      0x04\n      add\n      tag_74\n      swap1\n      tag_75\n      jump\t// in\n    tag_74:\n      mload(0x40)\n      dup1\n      swap2\n      sub\n      swap1\n      revert\n    tag_73:\n        /* \"compound.sol\":802:1099  {... */\n      pop\n        /* \"compound.sol\":754:1099  function supply(uint underlyingAmount) external {... */\n      pop\n      jump\t// out\n        /* \"compound.sol\":536:565  CTokenInterface public cToken */\n    tag_23:\n      0x00\n      dup1\n      sload\n      swap1\n      0x0100\n      exp\n      swap1\n      div\n      0xffffffffffffffffffffffffffffffffffffffff\n      and\n      dup2\n      jump\t// out\n        /* \"compound.sol\":1921:2033  function getCTokenBalance() external view returns (uint) {... */\n    tag_27:\n        /* \"compound.sol\":1972:1976  uint */\n      0x00\n        /* \"compound.sol\":1995:2001  cToken */\n      dup1\n      0x00\n      swap1\n      sload\n      swap1\n      0x0100\n      exp\n      swap1\n      div\n      0xffffffffffffffffffffffffffffffffffffffff\n      and\n        /* \"compound.sol\":1995:2011  cToken.balanceOf */\n      0xffffffffffffffffffffffffffffffffffffffff\n      and\n      0x70a08231\n        /* \"compound.sol\":2020:2024  this */\n      address\n        /* \"compound.sol\":1995:2026  cToken.balanceOf(address(this)) */\n      mload(0x40)\n      dup3\n      0xffffffff\n      and\n      0xe0\n      shl\n      dup2\n      mstore\n      0x04\n      add\n      tag_77\n      swap2\n      swap1\n      tag_78\n      jump\t// in\n    tag_77:\n      0x20\n      mload(0x40)\n      dup1\n      dup4\n      sub\n      dup2\n      dup7\n      gas\n      staticcall\n      iszero\n      dup1\n      iszero\n      tag_80\n      jumpi\n      returndatasize\n      0x00\n      dup1\n      returndatacopy\n      revert(0x00, returndatasize)\n    tag_80:\n      pop\n      pop\n      pop\n      pop\n      mload(0x40)\n      returndatasize\n      not(0x1f)\n      0x1f\n      dup3\n      add\n      and\n      dup3\n      add\n      dup1\n      0x40\n      mstore\n      pop\n      dup2\n      add\n      swap1\n      tag_81\n      swap2\n      swap1\n      tag_58\n      jump\t// in\n    tag_81:\n        /* \"compound.sol\":1988:2026  return cToken.balanceOf(address(this)) */\n      swap1\n      pop\n        /* \"compound.sol\":1921:2033  function getCTokenBalance() external view returns (uint) {... */\n      swap1\n      jump\t// out\n        /* \"compound.sol\":1342:1573  function borrow(uint borrowAmount) external {... */\n    tag_32:\n        /* \"compound.sol\":1396:1407  uint result */\n      0x00\n        /* \"compound.sol\":1410:1416  cToken */\n      dup1\n      0x00\n      swap1\n      sload\n      swap1\n      0x0100\n      exp\n      swap1\n      div\n      0xffffffffffffffffffffffffffffffffffffffff\n      and\n        /* \"compound.sol\":1410:1423  cToken.borrow */\n      0xffffffffffffffffffffffffffffffffffffffff\n      and\n      0xc5ebeaec\n        /* \"compound.sol\":1424:1436  borrowAmount */\n      dup4\n        /* \"compound.sol\":1410:1437  cToken.borrow(borrowAmount) */\n      mload(0x40)\n      dup3\n      0xffffffff\n      and\n      0xe0\n      shl\n      dup2\n      mstore\n      0x04\n      add\n      tag_83\n      swap2\n      swap1\n      tag_29\n      jump\t// in\n    tag_83:\n      0x20\n      mload(0x40)\n      dup1\n      dup4\n      sub\n      dup2\n      0x00\n      dup8\n      gas\n      call\n      iszero\n      dup1\n      iszero\n      tag_85\n      jumpi\n      returndatasize\n      0x00\n      dup1\n      returndatacopy\n      revert(0x00, returndatasize)\n    tag_85:\n      pop\n      pop\n      pop\n      pop\n      mload(0x40)\n      returndatasize\n      not(0x1f)\n      0x1f\n      dup3\n      add\n      and\n      dup3\n      add\n      dup1\n      0x40\n      mstore\n      pop\n      dup2\n      add\n      swap1\n      tag_86\n      swap2\n      swap1\n      tag_58\n      jump\t// in\n    tag_86:\n        /* \"compound.sol\":1396:1437  uint result = cToken.borrow(borrowAmount) */\n      swap1\n      pop\n        /* \"compound.sol\":1465:1466  0 */\n      0x00\n        /* \"compound.sol\":1455:1461  result */\n      dup2\n        /* \"compound.sol\":1455:1466  result == 0 */\n      eq\n        /* \"compound.sol\":1447:1484  require(result == 0, \"Borrow failed\") */\n      tag_87\n      jumpi\n      mload(0x40)\n      0x08c379a000000000000000000000000000000000000000000000000000000000\n      dup2\n      mstore\n      0x04\n      add\n      tag_88\n      swap1\n      tag_89\n      jump\t// in\n    tag_88:\n      mload(0x40)\n      dup1\n      swap2\n      sub\n      swap1\n      revert\n    tag_87:\n        /* \"compound.sol\":1502:1506  usdt */\n      0x01\n      0x00\n      swap1\n      sload\n      swap1\n      0x0100\n      exp\n      swap1\n      div\n      0xffffffffffffffffffffffffffffffffffffffff\n      and\n        /* \"compound.sol\":1502:1515  usdt.transfer */\n      0xffffffffffffffffffffffffffffffffffffffff\n      and\n      0xa9059cbb\n        /* \"compound.sol\":1516:1526  msg.sender */\n      caller\n        /* \"compound.sol\":1528:1540  borrowAmount */\n      dup5\n        /* \"compound.sol\":1502:1541  usdt.transfer(msg.sender, borrowAmount) */\n      mload(0x40)\n      dup4\n      0xffffffff\n      and\n      0xe0\n      shl\n      dup2\n      mstore\n      0x04\n      add\n      tag_90\n      swap3\n      swap2\n      swap1\n      tag_47\n      jump\t// in\n    tag_90:\n      0x20\n      mload(0x40)\n      dup1\n      dup4\n      sub\n      dup2\n      0x00\n      dup8\n      gas\n      call\n      iszero\n      dup1\n      iszero\n      tag_92\n      jumpi\n      returndatasize\n      0x00\n      dup1\n      returndatacopy\n      revert(0x00, returndatasize)\n    tag_92:\n      pop\n      pop\n      pop\n      pop\n      mload(0x40)\n      returndatasize\n      not(0x1f)\n      0x1f\n      dup3\n      add\n      and\n      dup3\n      add\n      dup1\n      0x40\n      mstore\n      pop\n      dup2\n      add\n      swap1\n      tag_93\n      swap2\n      swap1\n      tag_42\n      jump\t// in\n    tag_93:\n        /* \"compound.sol\":1494:1566  require(usdt.transfer(msg.sender, borrowAmount), \"USDT transfer failed\") */\n      tag_94\n      jumpi\n      mload(0x40)\n      0x08c379a000000000000000000000000000000000000000000000000000000000\n      dup2\n      mstore\n      0x04\n      add\n      tag_95\n      swap1\n      tag_45\n      jump\t// in\n    tag_95:\n      mload(0x40)\n      dup1\n      swap2\n      sub\n      swap1\n      revert\n    tag_94:\n        /* \"compound.sol\":1386:1573  {... */\n      pop\n        /* \"compound.sol\":1342:1573  function borrow(uint borrowAmount) external {... */\n      pop\n      jump\t// out\n        /* \"compound.sol\":1105:1336  function redeem(uint cTokenAmount) external {... */\n    tag_35:\n        /* \"compound.sol\":1159:1170  uint result */\n      0x00\n        /* \"compound.sol\":1173:1179  cToken */\n      dup1\n      0x00\n      swap1\n      sload\n      swap1\n      0x0100\n      exp\n      swap1\n      div\n      0xffffffffffffffffffffffffffffffffffffffff\n      and\n        /* \"compound.sol\":1173:1186  cToken.redeem */\n      0xffffffffffffffffffffffffffffffffffffffff\n      and\n      0xdb006a75\n        /* \"compound.sol\":1187:1199  cTokenAmount */\n      dup4\n        /* \"compound.sol\":1173:1200  cToken.redeem(cTokenAmount) */\n      mload(0x40)\n      dup3\n      0xffffffff\n      and\n      0xe0\n      shl\n      dup2\n      mstore\n      0x04\n      add\n      tag_97\n      swap2\n      swap1\n      tag_29\n      jump\t// in\n    tag_97:\n      0x20\n      mload(0x40)\n      dup1\n      dup4\n      sub\n      dup2\n      0x00\n      dup8\n      gas\n      call\n      iszero\n      dup1\n      iszero\n      tag_99\n      jumpi\n      returndatasize\n      0x00\n      dup1\n      returndatacopy\n      revert(0x00, returndatasize)\n    tag_99:\n      pop\n      pop\n      pop\n      pop\n      mload(0x40)\n      returndatasize\n      not(0x1f)\n      0x1f\n      dup3\n      add\n      and\n      dup3\n      add\n      dup1\n      0x40\n      mstore\n      pop\n      dup2\n      add\n      swap1\n      tag_100\n      swap2\n      swap1\n      tag_58\n      jump\t// in\n    tag_100:\n        /* \"compound.sol\":1159:1200  uint result = cToken.redeem(cTokenAmount) */\n      swap1\n      pop\n        /* \"compound.sol\":1228:1229  0 */\n      0x00\n        /* \"compound.sol\":1218:1224  result */\n      dup2\n        /* \"compound.sol\":1218:1229  result == 0 */\n      eq\n        /* \"compound.sol\":1210:1247  require(result == 0, \"Redeem failed\") */\n      tag_101\n      jumpi\n      mload(0x40)\n      0x08c379a000000000000000000000000000000000000000000000000000000000\n      dup2\n      mstore\n      0x04\n      add\n      tag_102\n      swap1\n      tag_103\n      jump\t// in\n    tag_102:\n      mload(0x40)\n      dup1\n      swap2\n      sub\n      swap1\n      revert\n    tag_101:\n        /* \"compound.sol\":1265:1269  usdt */\n      0x01\n      0x00\n      swap1\n      sload\n      swap1\n      0x0100\n      exp\n      swap1\n      div\n      0xffffffffffffffffffffffffffffffffffffffff\n      and\n        /* \"compound.sol\":1265:1278  usdt.transfer */\n      0xffffffffffffffffffffffffffffffffffffffff\n      and\n      0xa9059cbb\n        /* \"compound.sol\":1279:1289  msg.sender */\n      caller\n        /* \"compound.sol\":1291:1303  cTokenAmount */\n      dup5\n        /* \"compound.sol\":1265:1304  usdt.transfer(msg.sender, cTokenAmount) */\n      mload(0x40)\n      dup4\n      0xffffffff\n      and\n      0xe0\n      shl\n      dup2\n      mstore\n      0x04\n      add\n      tag_104\n      swap3\n      swap2\n      swap1\n      tag_47\n      jump\t// in\n    tag_104:\n      0x20\n      mload(0x40)\n      dup1\n      dup4\n      sub\n      dup2\n      0x00\n      dup8\n      gas\n      call\n      iszero\n      dup1\n      iszero\n      tag_106\n      jumpi\n      returndatasize\n      0x00\n      dup1\n      returndatacopy\n      revert(0x00, returndatasize)\n    tag_106:\n      pop\n      pop\n      pop\n      pop\n      mload(0x40)\n      returndatasize\n      not(0x1f)\n      0x1f\n      dup3\n      add\n      and\n      dup3\n      add\n      dup1\n      0x40\n      mstore\n      pop\n      dup2\n      add\n      swap1\n      tag_107\n      swap2\n      swap1\n      tag_42\n      jump\t// in\n    tag_107:\n        /* \"compound.sol\":1257:1329  require(usdt.transfer(msg.sender, cTokenAmount), \"USDT transfer failed\") */\n      tag_108\n      jumpi\n      mload(0x40)\n      0x08c379a000000000000000000000000000000000000000000000000000000000\n      dup2\n      mstore\n      0x04\n      add\n      tag_109\n      swap1\n      tag_45\n      jump\t// in\n    tag_109:\n      mload(0x40)\n      dup1\n      swap2\n      sub\n      swap1\n      revert\n    tag_108:\n        /* \"compound.sol\":1149:1336  {... */\n      pop\n        /* \"compound.sol\":1105:1336  function redeem(uint cTokenAmount) external {... */\n      pop\n      jump\t// out\n        /* \"#utility.yul\":88:205   */\n    tag_111:\n        /* \"#utility.yul\":197:198   */\n      0x00\n        /* \"#utility.yul\":194:195   */\n      dup1\n        /* \"#utility.yul\":187:199   */\n      revert\n        /* \"#utility.yul\":334:411   */\n    tag_113:\n        /* \"#utility.yul\":371:378   */\n      0x00\n        /* \"#utility.yul\":400:405   */\n      dup2\n        /* \"#utility.yul\":389:405   */\n      swap1\n      pop\n        /* \"#utility.yul\":334:411   */\n      swap2\n      swap1\n      pop\n      jump\t// out\n        /* \"#utility.yul\":417:539   */\n    tag_114:\n        /* \"#utility.yul\":490:514   */\n      tag_150\n        /* \"#utility.yul\":508:513   */\n      dup2\n        /* \"#utility.yul\":490:514   */\n      tag_113\n      jump\t// in\n    tag_150:\n        /* \"#utility.yul\":483:488   */\n      dup2\n        /* \"#utility.yul\":480:515   */\n      eq\n        /* \"#utility.yul\":470:533   */\n      tag_151\n      jumpi\n        /* \"#utility.yul\":529:530   */\n      0x00\n        /* \"#utility.yul\":526:527   */\n      dup1\n        /* \"#utility.yul\":519:531   */\n      revert\n        /* \"#utility.yul\":470:533   */\n    tag_151:\n        /* \"#utility.yul\":417:539   */\n      pop\n      jump\t// out\n        /* \"#utility.yul\":545:684   */\n    tag_115:\n        /* \"#utility.yul\":591:596   */\n      0x00\n        /* \"#utility.yul\":629:635   */\n      dup2\n        /* \"#utility.yul\":616:636   */\n      calldataload\n        /* \"#utility.yul\":607:636   */\n      swap1\n      pop\n        /* \"#utility.yul\":645:678   */\n      tag_153\n        /* \"#utility.yul\":672:677   */\n      dup2\n        /* \"#utility.yul\":645:678   */\n      tag_114\n      jump\t// in\n    tag_153:\n        /* \"#utility.yul\":545:684   */\n      swap3\n      swap2\n      pop\n      pop\n      jump\t// out\n        /* \"#utility.yul\":690:1019   */\n    tag_13:\n        /* \"#utility.yul\":749:755   */\n      0x00\n        /* \"#utility.yul\":798:800   */\n      0x20\n        /* \"#utility.yul\":786:795   */\n      dup3\n        /* \"#utility.yul\":777:784   */\n      dup5\n        /* \"#utility.yul\":773:796   */\n      sub\n        /* \"#utility.yul\":769:801   */\n      slt\n        /* \"#utility.yul\":766:885   */\n      iszero\n      tag_155\n      jumpi\n        /* \"#utility.yul\":804:883   */\n      tag_156\n      tag_111\n      jump\t// in\n    tag_156:\n        /* \"#utility.yul\":766:885   */\n    tag_155:\n        /* \"#utility.yul\":924:925   */\n      0x00\n        /* \"#utility.yul\":949:1002   */\n      tag_157\n        /* \"#utility.yul\":994:1001   */\n      dup5\n        /* \"#utility.yul\":985:991   */\n      dup3\n        /* \"#utility.yul\":974:983   */\n      dup6\n        /* \"#utility.yul\":970:992   */\n      add\n        /* \"#utility.yul\":949:1002   */\n      tag_115\n      jump\t// in\n    tag_157:\n        /* \"#utility.yul\":939:1002   */\n      swap2\n      pop\n        /* \"#utility.yul\":895:1012   */\n      pop\n        /* \"#utility.yul\":690:1019   */\n      swap3\n      swap2\n      pop\n      pop\n      jump\t// out\n        /* \"#utility.yul\":1025:1151   */\n    tag_116:\n        /* \"#utility.yul\":1062:1069   */\n      0x00\n        /* \"#utility.yul\":1102:1144   */\n      0xffffffffffffffffffffffffffffffffffffffff\n        /* \"#utility.yul\":1095:1100   */\n      dup3\n        /* \"#utility.yul\":1091:1145   */\n      and\n        /* \"#utility.yul\":1080:1145   */\n      swap1\n      pop\n        /* \"#utility.yul\":1025:1151   */\n      swap2\n      swap1\n      pop\n      jump\t// out\n        /* \"#utility.yul\":1157:1217   */\n    tag_117:\n        /* \"#utility.yul\":1185:1188   */\n      0x00\n        /* \"#utility.yul\":1206:1211   */\n      dup2\n        /* \"#utility.yul\":1199:1211   */\n      swap1\n      pop\n        /* \"#utility.yul\":1157:1217   */\n      swap2\n      swap1\n      pop\n      jump\t// out\n        /* \"#utility.yul\":1223:1365   */\n    tag_118:\n        /* \"#utility.yul\":1273:1282   */\n      0x00\n        /* \"#utility.yul\":1306:1359   */\n      tag_161\n        /* \"#utility.yul\":1324:1358   */\n      tag_162\n        /* \"#utility.yul\":1333:1357   */\n      tag_163\n        /* \"#utility.yul\":1351:1356   */\n      dup5\n        /* \"#utility.yul\":1333:1357   */\n      tag_116\n      jump\t// in\n    tag_163:\n        /* \"#utility.yul\":1324:1358   */\n      tag_117\n      jump\t// in\n    tag_162:\n        /* \"#utility.yul\":1306:1359   */\n      tag_116\n      jump\t// in\n    tag_161:\n        /* \"#utility.yul\":1293:1359   */\n      swap1\n      pop\n        /* \"#utility.yul\":1223:1365   */\n      swap2\n      swap1\n      pop\n      jump\t// out\n        /* \"#utility.yul\":1371:1497   */\n    tag_119:\n        /* \"#utility.yul\":1421:1430   */\n      0x00\n        /* \"#utility.yul\":1454:1491   */\n      tag_165\n        /* \"#utility.yul\":1485:1490   */\n      dup3\n        /* \"#utility.yul\":1454:1491   */\n      tag_118\n      jump\t// in\n    tag_165:\n        /* \"#utility.yul\":1441:1491   */\n      swap1\n      pop\n        /* \"#utility.yul\":1371:1497   */\n      swap2\n      swap1\n      pop\n      jump\t// out\n        /* \"#utility.yul\":1503:1642   */\n    tag_120:\n        /* \"#utility.yul\":1566:1575   */\n      0x00\n        /* \"#utility.yul\":1599:1636   */\n      tag_167\n        /* \"#utility.yul\":1630:1635   */\n      dup3\n        /* \"#utility.yul\":1599:1636   */\n      tag_119\n      jump\t// in\n    tag_167:\n        /* \"#utility.yul\":1586:1636   */\n      swap1\n      pop\n        /* \"#utility.yul\":1503:1642   */\n      swap2\n      swap1\n      pop\n      jump\t// out\n        /* \"#utility.yul\":1648:1805   */\n    tag_121:\n        /* \"#utility.yul\":1748:1798   */\n      tag_169\n        /* \"#utility.yul\":1792:1797   */\n      dup2\n        /* \"#utility.yul\":1748:1798   */\n      tag_120\n      jump\t// in\n    tag_169:\n        /* \"#utility.yul\":1743:1746   */\n      dup3\n        /* \"#utility.yul\":1736:1799   */\n      mstore\n        /* \"#utility.yul\":1648:1805   */\n      pop\n      pop\n      jump\t// out\n        /* \"#utility.yul\":1811:2059   */\n    tag_18:\n        /* \"#utility.yul\":1917:1921   */\n      0x00\n        /* \"#utility.yul\":1955:1957   */\n      0x20\n        /* \"#utility.yul\":1944:1953   */\n      dup3\n        /* \"#utility.yul\":1940:1958   */\n      add\n        /* \"#utility.yul\":1932:1958   */\n      swap1\n      pop\n        /* \"#utility.yul\":1968:2052   */\n      tag_171\n        /* \"#utility.yul\":2049:2050   */\n      0x00\n        /* \"#utility.yul\":2038:2047   */\n      dup4\n        /* \"#utility.yul\":2034:2051   */\n      add\n        /* \"#utility.yul\":2025:2031   */\n      dup5\n        /* \"#utility.yul\":1968:2052   */\n      tag_121\n      jump\t// in\n    tag_171:\n        /* \"#utility.yul\":1811:2059   */\n      swap3\n      swap2\n      pop\n      pop\n      jump\t// out\n        /* \"#utility.yul\":2065:2214   */\n    tag_122:\n        /* \"#utility.yul\":2138:2147   */\n      0x00\n        /* \"#utility.yul\":2171:2208   */\n      tag_173\n        /* \"#utility.yul\":2202:2207   */\n      dup3\n        /* \"#utility.yul\":2171:2208   */\n      tag_119\n      jump\t// in\n    tag_173:\n        /* \"#utility.yul\":2158:2208   */\n      swap1\n      pop\n        /* \"#utility.yul\":2065:2214   */\n      swap2\n      swap1\n      pop\n      jump\t// out\n        /* \"#utility.yul\":2220:2397   */\n    tag_123:\n        /* \"#utility.yul\":2330:2390   */\n      tag_175\n        /* \"#utility.yul\":2384:2389   */\n      dup2\n        /* \"#utility.yul\":2330:2390   */\n      tag_122\n      jump\t// in\n    tag_175:\n        /* \"#utility.yul\":2325:2328   */\n      dup3\n        /* \"#utility.yul\":2318:2391   */\n      mstore\n        /* \"#utility.yul\":2220:2397   */\n      pop\n      pop\n      jump\t// out\n        /* \"#utility.yul\":2403:2671   */\n    tag_25:\n        /* \"#utility.yul\":2519:2523   */\n      0x00\n        /* \"#utility.yul\":2557:2559   */\n      0x20\n        /* \"#utility.yul\":2546:2555   */\n      dup3\n        /* \"#utility.yul\":2542:2560   */\n      add\n        /* \"#utility.yul\":2534:2560   */\n      swap1\n      pop\n        /* \"#utility.yul\":2570:2664   */\n      tag_177\n        /* \"#utility.yul\":2661:2662   */\n      0x00\n        /* \"#utility.yul\":2650:2659   */\n      dup4\n        /* \"#utility.yul\":2646:2663   */\n      add\n        /* \"#utility.yul\":2637:2643   */\n      dup5\n        /* \"#utility.yul\":2570:2664   */\n      tag_123\n      jump\t// in\n    tag_177:\n        /* \"#utility.yul\":2403:2671   */\n      swap3\n      swap2\n      pop\n      pop\n      jump\t// out\n        /* \"#utility.yul\":2677:2795   */\n    tag_124:\n        /* \"#utility.yul\":2764:2788   */\n      tag_179\n        /* \"#utility.yul\":2782:2787   */\n      dup2\n        /* \"#utility.yul\":2764:2788   */\n      tag_113\n      jump\t// in\n    tag_179:\n        /* \"#utility.yul\":2759:2762   */\n      dup3\n        /* \"#utility.yul\":2752:2789   */\n      mstore\n        /* \"#utility.yul\":2677:2795   */\n      pop\n      pop\n      jump\t// out\n        /* \"#utility.yul\":2801:3023   */\n    tag_29:\n        /* \"#utility.yul\":2894:2898   */\n      0x00\n        /* \"#utility.yul\":2932:2934   */\n      0x20\n        /* \"#utility.yul\":2921:2930   */\n      dup3\n        /* \"#utility.yul\":2917:2935   */\n      add\n        /* \"#utility.yul\":2909:2935   */\n      swap1\n      pop\n        /* \"#utility.yul\":2945:3016   */\n      tag_181\n        /* \"#utility.yul\":3013:3014   */\n      0x00\n        /* \"#utility.yul\":3002:3011   */\n      dup4\n        /* \"#utility.yul\":2998:3015   */\n      add\n        /* \"#utility.yul\":2989:2995   */\n      dup5\n        /* \"#utility.yul\":2945:3016   */\n      tag_124\n      jump\t// in\n    tag_181:\n        /* \"#utility.yul\":2801:3023   */\n      swap3\n      swap2\n      pop\n      pop\n      jump\t// out\n        /* \"#utility.yul\":3029:3125   */\n    tag_125:\n        /* \"#utility.yul\":3066:3073   */\n      0x00\n        /* \"#utility.yul\":3095:3119   */\n      tag_183\n        /* \"#utility.yul\":3113:3118   */\n      dup3\n        /* \"#utility.yul\":3095:3119   */\n      tag_116\n      jump\t// in\n    tag_183:\n        /* \"#utility.yul\":3084:3119   */\n      swap1\n      pop\n        /* \"#utility.yul\":3029:3125   */\n      swap2\n      swap1\n      pop\n      jump\t// out\n        /* \"#utility.yul\":3131:3249   */\n    tag_126:\n        /* \"#utility.yul\":3218:3242   */\n      tag_185\n        /* \"#utility.yul\":3236:3241   */\n      dup2\n        /* \"#utility.yul\":3218:3242   */\n      tag_125\n      jump\t// in\n    tag_185:\n        /* \"#utility.yul\":3213:3216   */\n      dup3\n        /* \"#utility.yul\":3206:3243   */\n      mstore\n        /* \"#utility.yul\":3131:3249   */\n      pop\n      pop\n      jump\t// out\n        /* \"#utility.yul\":3255:3697   */\n    tag_38:\n        /* \"#utility.yul\":3404:3408   */\n      0x00\n        /* \"#utility.yul\":3442:3444   */\n      0x60\n        /* \"#utility.yul\":3431:3440   */\n      dup3\n        /* \"#utility.yul\":3427:3445   */\n      add\n        /* \"#utility.yul\":3419:3445   */\n      swap1\n      pop\n        /* \"#utility.yul\":3455:3526   */\n      tag_187\n        /* \"#utility.yul\":3523:3524   */\n      0x00\n        /* \"#utility.yul\":3512:3521   */\n      dup4\n        /* \"#utility.yul\":3508:3525   */\n      add\n        /* \"#utility.yul\":3499:3505   */\n      dup7\n        /* \"#utility.yul\":3455:3526   */\n      tag_126\n      jump\t// in\n    tag_187:\n        /* \"#utility.yul\":3536:3608   */\n      tag_188\n        /* \"#utility.yul\":3604:3606   */\n      0x20\n        /* \"#utility.yul\":3593:3602   */\n      dup4\n        /* \"#utility.yul\":3589:3607   */\n      add\n        /* \"#utility.yul\":3580:3586   */\n      dup6\n        /* \"#utility.yul\":3536:3608   */\n      tag_126\n      jump\t// in\n    tag_188:\n        /* \"#utility.yul\":3618:3690   */\n      tag_189\n        /* \"#utility.yul\":3686:3688   */\n      0x40\n        /* \"#utility.yul\":3675:3684   */\n      dup4\n        /* \"#utility.yul\":3671:3689   */\n      add\n        /* \"#utility.yul\":3662:3668   */\n      dup5\n        /* \"#utility.yul\":3618:3690   */\n      tag_124\n      jump\t// in\n    tag_189:\n        /* \"#utility.yul\":3255:3697   */\n      swap5\n      swap4\n      pop\n      pop\n      pop\n      pop\n      jump\t// out\n        /* \"#utility.yul\":3703:3793   */\n    tag_127:\n        /* \"#utility.yul\":3737:3744   */\n      0x00\n        /* \"#utility.yul\":3780:3785   */\n      dup2\n        /* \"#utility.yul\":3773:3786   */\n      iszero\n        /* \"#utility.yul\":3766:3787   */\n      iszero\n        /* \"#utility.yul\":3755:3787   */\n      swap1\n      pop\n        /* \"#utility.yul\":3703:3793   */\n      swap2\n      swap1\n      pop\n      jump\t// out\n        /* \"#utility.yul\":3799:3915   */\n    tag_128:\n        /* \"#utility.yul\":3869:3890   */\n      tag_192\n        /* \"#utility.yul\":3884:3889   */\n      dup2\n        /* \"#utility.yul\":3869:3890   */\n      tag_127\n      jump\t// in\n    tag_192:\n        /* \"#utility.yul\":3862:3867   */\n      dup2\n        /* \"#utility.yul\":3859:3891   */\n      eq\n        /* \"#utility.yul\":3849:3909   */\n      tag_193\n      jumpi\n        /* \"#utility.yul\":3905:3906   */\n      0x00\n        /* \"#utility.yul\":3902:3903   */\n      dup1\n        /* \"#utility.yul\":3895:3907   */\n      revert\n        /* \"#utility.yul\":3849:3909   */\n    tag_193:\n        /* \"#utility.yul\":3799:3915   */\n      pop\n      jump\t// out\n        /* \"#utility.yul\":3921:4058   */\n    tag_129:\n        /* \"#utility.yul\":3975:3980   */\n      0x00\n        /* \"#utility.yul\":4006:4012   */\n      dup2\n        /* \"#utility.yul\":4000:4013   */\n      mload\n        /* \"#utility.yul\":3991:4013   */\n      swap1\n      pop\n        /* \"#utility.yul\":4022:4052   */\n      tag_195\n        /* \"#utility.yul\":4046:4051   */\n      dup2\n        /* \"#utility.yul\":4022:4052   */\n      tag_128\n      jump\t// in\n    tag_195:\n        /* \"#utility.yul\":3921:4058   */\n      swap3\n      swap2\n      pop\n      pop\n      jump\t// out\n        /* \"#utility.yul\":4064:4409   */\n    tag_42:\n        /* \"#utility.yul\":4131:4137   */\n      0x00\n        /* \"#utility.yul\":4180:4182   */\n      0x20\n        /* \"#utility.yul\":4168:4177   */\n      dup3\n        /* \"#utility.yul\":4159:4166   */\n      dup5\n        /* \"#utility.yul\":4155:4178   */\n      sub\n        /* \"#utility.yul\":4151:4183   */\n      slt\n        /* \"#utility.yul\":4148:4267   */\n      iszero\n      tag_197\n      jumpi\n        /* \"#utility.yul\":4186:4265   */\n      tag_198\n      tag_111\n      jump\t// in\n    tag_198:\n        /* \"#utility.yul\":4148:4267   */\n    tag_197:\n        /* \"#utility.yul\":4306:4307   */\n      0x00\n        /* \"#utility.yul\":4331:4392   */\n      tag_199\n        /* \"#utility.yul\":4384:4391   */\n      dup5\n        /* \"#utility.yul\":4375:4381   */\n      dup3\n        /* \"#utility.yul\":4364:4373   */\n      dup6\n        /* \"#utility.yul\":4360:4382   */\n      add\n        /* \"#utility.yul\":4331:4392   */\n      tag_129\n      jump\t// in\n    tag_199:\n        /* \"#utility.yul\":4321:4392   */\n      swap2\n      pop\n        /* \"#utility.yul\":4277:4402   */\n      pop\n        /* \"#utility.yul\":4064:4409   */\n      swap3\n      swap2\n      pop\n      pop\n      jump\t// out\n        /* \"#utility.yul\":4415:4584   */\n    tag_130:\n        /* \"#utility.yul\":4499:4510   */\n      0x00\n        /* \"#utility.yul\":4533:4539   */\n      dup3\n        /* \"#utility.yul\":4528:4531   */\n      dup3\n        /* \"#utility.yul\":4521:4540   */\n      mstore\n        /* \"#utility.yul\":4573:4577   */\n      0x20\n        /* \"#utility.yul\":4568:4571   */\n      dup3\n        /* \"#utility.yul\":4564:4578   */\n      add\n        /* \"#utility.yul\":4549:4578   */\n      swap1\n      pop\n        /* \"#utility.yul\":4415:4584   */\n      swap3\n      swap2\n      pop\n      pop\n      jump\t// out\n        /* \"#utility.yul\":4590:4760   */\n    tag_131:\n        /* \"#utility.yul\":4730:4752   */\n      0x55534454207472616e73666572206661696c6564000000000000000000000000\n        /* \"#utility.yul\":4726:4727   */\n      0x00\n        /* \"#utility.yul\":4718:4724   */\n      dup3\n        /* \"#utility.yul\":4714:4728   */\n      add\n        /* \"#utility.yul\":4707:4753   */\n      mstore\n        /* \"#utility.yul\":4590:4760   */\n      pop\n      jump\t// out\n        /* \"#utility.yul\":4766:5132   */\n    tag_132:\n        /* \"#utility.yul\":4908:4911   */\n      0x00\n        /* \"#utility.yul\":4929:4996   */\n      tag_203\n        /* \"#utility.yul\":4993:4995   */\n      0x14\n        /* \"#utility.yul\":4988:4991   */\n      dup4\n        /* \"#utility.yul\":4929:4996   */\n      tag_130\n      jump\t// in\n    tag_203:\n        /* \"#utility.yul\":4922:4996   */\n      swap2\n      pop\n        /* \"#utility.yul\":5005:5098   */\n      tag_204\n        /* \"#utility.yul\":5094:5097   */\n      dup3\n        /* \"#utility.yul\":5005:5098   */\n      tag_131\n      jump\t// in\n    tag_204:\n        /* \"#utility.yul\":5123:5125   */\n      0x20\n        /* \"#utility.yul\":5118:5121   */\n      dup3\n        /* \"#utility.yul\":5114:5126   */\n      add\n        /* \"#utility.yul\":5107:5126   */\n      swap1\n      pop\n        /* \"#utility.yul\":4766:5132   */\n      swap2\n      swap1\n      pop\n      jump\t// out\n        /* \"#utility.yul\":5138:5557   */\n    tag_45:\n        /* \"#utility.yul\":5304:5308   */\n      0x00\n        /* \"#utility.yul\":5342:5344   */\n      0x20\n        /* \"#utility.yul\":5331:5340   */\n      dup3\n        /* \"#utility.yul\":5327:5345   */\n      add\n        /* \"#utility.yul\":5319:5345   */\n      swap1\n      pop\n        /* \"#utility.yul\":5391:5400   */\n      dup2\n        /* \"#utility.yul\":5385:5389   */\n      dup2\n        /* \"#utility.yul\":5381:5401   */\n      sub\n        /* \"#utility.yul\":5377:5378   */\n      0x00\n        /* \"#utility.yul\":5366:5375   */\n      dup4\n        /* \"#utility.yul\":5362:5379   */\n      add\n        /* \"#utility.yul\":5355:5402   */\n      mstore\n        /* \"#utility.yul\":5419:5550   */\n      tag_206\n        /* \"#utility.yul\":5545:5549   */\n      dup2\n        /* \"#utility.yul\":5419:5550   */\n      tag_132\n      jump\t// in\n    tag_206:\n        /* \"#utility.yul\":5411:5550   */\n      swap1\n      pop\n        /* \"#utility.yul\":5138:5557   */\n      swap2\n      swap1\n      pop\n      jump\t// out\n        /* \"#utility.yul\":5563:5895   */\n    tag_47:\n        /* \"#utility.yul\":5684:5688   */\n      0x00\n        /* \"#utility.yul\":5722:5724   */\n      0x40\n        /* \"#utility.yul\":5711:5720   */\n      dup3\n        /* \"#utility.yul\":5707:5725   */\n      add\n        /* \"#utility.yul\":5699:5725   */\n      swap1\n      pop\n        /* \"#utility.yul\":5735:5806   */\n      tag_208\n        /* \"#utility.yul\":5803:5804   */\n      0x00\n        /* \"#utility.yul\":5792:5801   */\n      dup4\n        /* \"#utility.yul\":5788:5805   */\n      add\n        /* \"#utility.yul\":5779:5785   */\n      dup6\n        /* \"#utility.yul\":5735:5806   */\n      tag_126\n      jump\t// in\n    tag_208:\n        /* \"#utility.yul\":5816:5888   */\n      tag_209\n        /* \"#utility.yul\":5884:5886   */\n      0x20\n        /* \"#utility.yul\":5873:5882   */\n      dup4\n        /* \"#utility.yul\":5869:5887   */\n      add\n        /* \"#utility.yul\":5860:5866   */\n      dup5\n        /* \"#utility.yul\":5816:5888   */\n      tag_124\n      jump\t// in\n    tag_209:\n        /* \"#utility.yul\":5563:5895   */\n      swap4\n      swap3\n      pop\n      pop\n      pop\n      jump\t// out\n        /* \"#utility.yul\":5901:6066   */\n    tag_133:\n        /* \"#utility.yul\":6041:6058   */\n      0x417070726f76616c206661696c65640000000000000000000000000000000000\n        /* \"#utility.yul\":6037:6038   */\n      0x00\n        /* \"#utility.yul\":6029:6035   */\n      dup3\n        /* \"#utility.yul\":6025:6039   */\n      add\n        /* \"#utility.yul\":6018:6059   */\n      mstore\n        /* \"#utility.yul\":5901:6066   */\n      pop\n      jump\t// out\n        /* \"#utility.yul\":6072:6438   */\n    tag_134:\n        /* \"#utility.yul\":6214:6217   */\n      0x00\n        /* \"#utility.yul\":6235:6302   */\n      tag_212\n        /* \"#utility.yul\":6299:6301   */\n      0x0f\n        /* \"#utility.yul\":6294:6297   */\n      dup4\n        /* \"#utility.yul\":6235:6302   */\n      tag_130\n      jump\t// in\n    tag_212:\n        /* \"#utility.yul\":6228:6302   */\n      swap2\n      pop\n        /* \"#utility.yul\":6311:6404   */\n      tag_213\n        /* \"#utility.yul\":6400:6403   */\n      dup3\n        /* \"#utility.yul\":6311:6404   */\n      tag_133\n      jump\t// in\n    tag_213:\n        /* \"#utility.yul\":6429:6431   */\n      0x20\n        /* \"#utility.yul\":6424:6427   */\n      dup3\n        /* \"#utility.yul\":6420:6432   */\n      add\n        /* \"#utility.yul\":6413:6432   */\n      swap1\n      pop\n        /* \"#utility.yul\":6072:6438   */\n      swap2\n      swap1\n      pop\n      jump\t// out\n        /* \"#utility.yul\":6444:6863   */\n    tag_53:\n        /* \"#utility.yul\":6610:6614   */\n      0x00\n        /* \"#utility.yul\":6648:6650   */\n      0x20\n        /* \"#utility.yul\":6637:6646   */\n      dup3\n        /* \"#utility.yul\":6633:6651   */\n      add\n        /* \"#utility.yul\":6625:6651   */\n      swap1\n      pop\n        /* \"#utility.yul\":6697:6706   */\n      dup2\n        /* \"#utility.yul\":6691:6695   */\n      dup2\n        /* \"#utility.yul\":6687:6707   */\n      sub\n        /* \"#utility.yul\":6683:6684   */\n      0x00\n        /* \"#utility.yul\":6672:6681   */\n      dup4\n        /* \"#utility.yul\":6668:6685   */\n      add\n        /* \"#utility.yul\":6661:6708   */\n      mstore\n        /* \"#utility.yul\":6725:6856   */\n      tag_215\n        /* \"#utility.yul\":6851:6855   */\n      dup2\n        /* \"#utility.yul\":6725:6856   */\n      tag_134\n      jump\t// in\n    tag_215:\n        /* \"#utility.yul\":6717:6856   */\n      swap1\n      pop\n        /* \"#utility.yul\":6444:6863   */\n      swap2\n      swap1\n      pop\n      jump\t// out\n        /* \"#utility.yul\":6869:7012   */\n    tag_135:\n        /* \"#utility.yul\":6926:6931   */\n      0x00\n        /* \"#utility.yul\":6957:6963   */\n      dup2\n        /* \"#utility.yul\":6951:6964   */\n      mload\n        /* \"#utility.yul\":6942:6964   */\n      swap1\n      pop\n        /* \"#utility.yul\":6973:7006   */\n      tag_217\n        /* \"#utility.yul\":7000:7005   */\n      dup2\n        /* \"#utility.yul\":6973:7006   */\n      tag_114\n      jump\t// in\n    tag_217:\n        /* \"#utility.yul\":6869:7012   */\n      swap3\n      swap2\n      pop\n      pop\n      jump\t// out\n        /* \"#utility.yul\":7018:7369   */\n    tag_58:\n        /* \"#utility.yul\":7088:7094   */\n      0x00\n        /* \"#utility.yul\":7137:7139   */\n      0x20\n        /* \"#utility.yul\":7125:7134   */\n      dup3\n        /* \"#utility.yul\":7116:7123   */\n      dup5\n        /* \"#utility.yul\":7112:7135   */\n      sub\n        /* \"#utility.yul\":7108:7140   */\n      slt\n        /* \"#utility.yul\":7105:7224   */\n      iszero\n      tag_219\n      jumpi\n        /* \"#utility.yul\":7143:7222   */\n      tag_220\n      tag_111\n      jump\t// in\n    tag_220:\n        /* \"#utility.yul\":7105:7224   */\n    tag_219:\n        /* \"#utility.yul\":7263:7264   */\n      0x00\n        /* \"#utility.yul\":7288:7352   */\n      tag_221\n        /* \"#utility.yul\":7344:7351   */\n      dup5\n        /* \"#utility.yul\":7335:7341   */\n      dup3\n        /* \"#utility.yul\":7324:7333   */\n      dup6\n        /* \"#utility.yul\":7320:7342   */\n      add\n        /* \"#utility.yul\":7288:7352   */\n      tag_135\n      jump\t// in\n    tag_221:\n        /* \"#utility.yul\":7278:7352   */\n      swap2\n      pop\n        /* \"#utility.yul\":7234:7362   */\n      pop\n        /* \"#utility.yul\":7018:7369   */\n      swap3\n      swap2\n      pop\n      pop\n      jump\t// out\n        /* \"#utility.yul\":7375:7537   */\n    tag_136:\n        /* \"#utility.yul\":7515:7529   */\n      0x5265706179206661696c65640000000000000000000000000000000000000000\n        /* \"#utility.yul\":7511:7512   */\n      0x00\n        /* \"#utility.yul\":7503:7509   */\n      dup3\n        /* \"#utility.yul\":7499:7513   */\n      add\n        /* \"#utility.yul\":7492:7530   */\n      mstore\n        /* \"#utility.yul\":7375:7537   */\n      pop\n      jump\t// out\n        /* \"#utility.yul\":7543:7909   */\n    tag_137:\n        /* \"#utility.yul\":7685:7688   */\n      0x00\n        /* \"#utility.yul\":7706:7773   */\n      tag_224\n        /* \"#utility.yul\":7770:7772   */\n      0x0c\n        /* \"#utility.yul\":7765:7768   */\n      dup4\n        /* \"#utility.yul\":7706:7773   */\n      tag_130\n      jump\t// in\n    tag_224:\n        /* \"#utility.yul\":7699:7773   */\n      swap2\n      pop\n        /* \"#utility.yul\":7782:7875   */\n      tag_225\n        /* \"#utility.yul\":7871:7874   */\n      dup3\n        /* \"#utility.yul\":7782:7875   */\n      tag_136\n      jump\t// in\n    tag_225:\n        /* \"#utility.yul\":7900:7902   */\n      0x20\n        /* \"#utility.yul\":7895:7898   */\n      dup3\n        /* \"#utility.yul\":7891:7903   */\n      add\n        /* \"#utility.yul\":7884:7903   */\n      swap1\n      pop\n        /* \"#utility.yul\":7543:7909   */\n      swap2\n      swap1\n      pop\n      jump\t// out\n        /* \"#utility.yul\":7915:8334   */\n    tag_61:\n        /* \"#utility.yul\":8081:8085   */\n      0x00\n        /* \"#utility.yul\":8119:8121   */\n      0x20\n        /* \"#utility.yul\":8108:8117   */\n      dup3\n        /* \"#utility.yul\":8104:8122   */\n      add\n        /* \"#utility.yul\":8096:8122   */\n      swap1\n      pop\n        /* \"#utility.yul\":8168:8177   */\n      dup2\n        /* \"#utility.yul\":8162:8166   */\n      dup2\n        /* \"#utility.yul\":8158:8178   */\n      sub\n        /* \"#utility.yul\":8154:8155   */\n      0x00\n        /* \"#utility.yul\":8143:8152   */\n      dup4\n        /* \"#utility.yul\":8139:8156   */\n      add\n        /* \"#utility.yul\":8132:8179   */\n      mstore\n        /* \"#utility.yul\":8196:8327   */\n      tag_227\n        /* \"#utility.yul\":8322:8326   */\n      dup2\n        /* \"#utility.yul\":8196:8327   */\n      tag_137\n      jump\t// in\n    tag_227:\n        /* \"#utility.yul\":8188:8327   */\n      swap1\n      pop\n        /* \"#utility.yul\":7915:8334   */\n      swap2\n      swap1\n      pop\n      jump\t// out\n        /* \"#utility.yul\":8340:8501   */\n    tag_138:\n        /* \"#utility.yul\":8480:8493   */\n      0x4d696e74206661696c6564000000000000000000000000000000000000000000\n        /* \"#utility.yul\":8476:8477   */\n      0x00\n        /* \"#utility.yul\":8468:8474   */\n      dup3\n        /* \"#utility.yul\":8464:8478   */\n      add\n        /* \"#utility.yul\":8457:8494   */\n      mstore\n        /* \"#utility.yul\":8340:8501   */\n      pop\n      jump\t// out\n        /* \"#utility.yul\":8507:8873   */\n    tag_139:\n        /* \"#utility.yul\":8649:8652   */\n      0x00\n        /* \"#utility.yul\":8670:8737   */\n      tag_230\n        /* \"#utility.yul\":8734:8736   */\n      0x0b\n        /* \"#utility.yul\":8729:8732   */\n      dup4\n        /* \"#utility.yul\":8670:8737   */\n      tag_130\n      jump\t// in\n    tag_230:\n        /* \"#utility.yul\":8663:8737   */\n      swap2\n      pop\n        /* \"#utility.yul\":8746:8839   */\n      tag_231\n        /* \"#utility.yul\":8835:8838   */\n      dup3\n        /* \"#utility.yul\":8746:8839   */\n      tag_138\n      jump\t// in\n    tag_231:\n        /* \"#utility.yul\":8864:8866   */\n      0x20\n        /* \"#utility.yul\":8859:8862   */\n      dup3\n        /* \"#utility.yul\":8855:8867   */\n      add\n        /* \"#utility.yul\":8848:8867   */\n      swap1\n      pop\n        /* \"#utility.yul\":8507:8873   */\n      swap2\n      swap1\n      pop\n      jump\t// out\n        /* \"#utility.yul\":8879:9298   */\n    tag_75:\n        /* \"#utility.yul\":9045:9049   */\n      0x00\n        /* \"#utility.yul\":9083:9085   */\n      0x20\n        /* \"#utility.yul\":9072:9081   */\n      dup3\n        /* \"#utility.yul\":9068:9086   */\n      add\n        /* \"#utility.yul\":9060:9086   */\n      swap1\n      pop\n        /* \"#utility.yul\":9132:9141   */\n      dup2\n        /* \"#utility.yul\":9126:9130   */\n      dup2\n        /* \"#utility.yul\":9122:9142   */\n      sub\n        /* \"#utility.yul\":9118:9119   */\n      0x00\n        /* \"#utility.yul\":9107:9116   */\n      dup4\n        /* \"#utility.yul\":9103:9120   */\n      add\n        /* \"#utility.yul\":9096:9143   */\n      mstore\n        /* \"#utility.yul\":9160:9291   */\n      tag_233\n        /* \"#utility.yul\":9286:9290   */\n      dup2\n        /* \"#utility.yul\":9160:9291   */\n      tag_139\n      jump\t// in\n    tag_233:\n        /* \"#utility.yul\":9152:9291   */\n      swap1\n      pop\n        /* \"#utility.yul\":8879:9298   */\n      swap2\n      swap1\n      pop\n      jump\t// out\n        /* \"#utility.yul\":9304:9526   */\n    tag_78:\n        /* \"#utility.yul\":9397:9401   */\n      0x00\n        /* \"#utility.yul\":9435:9437   */\n      0x20\n        /* \"#utility.yul\":9424:9433   */\n      dup3\n        /* \"#utility.yul\":9420:9438   */\n      add\n        /* \"#utility.yul\":9412:9438   */\n      swap1\n      pop\n        /* \"#utility.yul\":9448:9519   */\n      tag_235\n        /* \"#utility.yul\":9516:9517   */\n      0x00\n        /* \"#utility.yul\":9505:9514   */\n      dup4\n        /* \"#utility.yul\":9501:9518   */\n      add\n        /* \"#utility.yul\":9492:9498   */\n      dup5\n        /* \"#utility.yul\":9448:9519   */\n      tag_126\n      jump\t// in\n    tag_235:\n        /* \"#utility.yul\":9304:9526   */\n      swap3\n      swap2\n      pop\n      pop\n      jump\t// out\n        /* \"#utility.yul\":9532:9695   */\n    tag_140:\n        /* \"#utility.yul\":9672:9687   */\n      0x426f72726f77206661696c656400000000000000000000000000000000000000\n        /* \"#utility.yul\":9668:9669   */\n      0x00\n        /* \"#utility.yul\":9660:9666   */\n      dup3\n        /* \"#utility.yul\":9656:9670   */\n      add\n        /* \"#utility.yul\":9649:9688   */\n      mstore\n        /* \"#utility.yul\":9532:9695   */\n      pop\n      jump\t// out\n        /* \"#utility.yul\":9701:10067   */\n    tag_141:\n        /* \"#utility.yul\":9843:9846   */\n      0x00\n        /* \"#utility.yul\":9864:9931   */\n      tag_238\n        /* \"#utility.yul\":9928:9930   */\n      0x0d\n        /* \"#utility.yul\":9923:9926   */\n      dup4\n        /* \"#utility.yul\":9864:9931   */\n      tag_130\n      jump\t// in\n    tag_238:\n        /* \"#utility.yul\":9857:9931   */\n      swap2\n      pop\n        /* \"#utility.yul\":9940:10033   */\n      tag_239\n        /* \"#utility.yul\":10029:10032   */\n      dup3\n        /* \"#utility.yul\":9940:10033   */\n      tag_140\n      jump\t// in\n    tag_239:\n        /* \"#utility.yul\":10058:10060   */\n      0x20\n        /* \"#utility.yul\":10053:10056   */\n      dup3\n        /* \"#utility.yul\":10049:10061   */\n      add\n        /* \"#utility.yul\":10042:10061   */\n      swap1\n      pop\n        /* \"#utility.yul\":9701:10067   */\n      swap2\n      swap1\n      pop\n      jump\t// out\n        /* \"#utility.yul\":10073:10492   */\n    tag_89:\n        /* \"#utility.yul\":10239:10243   */\n      0x00\n        /* \"#utility.yul\":10277:10279   */\n      0x20\n        /* \"#utility.yul\":10266:10275   */\n      dup3\n        /* \"#utility.yul\":10262:10280   */\n      add\n        /* \"#utility.yul\":10254:10280   */\n      swap1\n      pop\n        /* \"#utility.yul\":10326:10335   */\n      dup2\n        /* \"#utility.yul\":10320:10324   */\n      dup2\n        /* \"#utility.yul\":10316:10336   */\n      sub\n        /* \"#utility.yul\":10312:10313   */\n      0x00\n        /* \"#utility.yul\":10301:10310   */\n      dup4\n        /* \"#utility.yul\":10297:10314   */\n      add\n        /* \"#utility.yul\":10290:10337   */\n      mstore\n        /* \"#utility.yul\":10354:10485   */\n      tag_241\n        /* \"#utility.yul\":10480:10484   */\n      dup2\n        /* \"#utility.yul\":10354:10485   */\n      tag_141\n      jump\t// in\n    tag_241:\n        /* \"#utility.yul\":10346:10485   */\n      swap1\n      pop\n        /* \"#utility.yul\":10073:10492   */\n      swap2\n      swap1\n      pop\n      jump\t// out\n        /* \"#utility.yul\":10498:10661   */\n    tag_142:\n        /* \"#utility.yul\":10638:10653   */\n      0x52656465656d206661696c656400000000000000000000000000000000000000\n        /* \"#utility.yul\":10634:10635   */\n      0x00\n        /* \"#utility.yul\":10626:10632   */\n      dup3\n        /* \"#utility.yul\":10622:10636   */\n      add\n        /* \"#utility.yul\":10615:10654   */\n      mstore\n        /* \"#utility.yul\":10498:10661   */\n      pop\n      jump\t// out\n        /* \"#utility.yul\":10667:11033   */\n    tag_143:\n        /* \"#utility.yul\":10809:10812   */\n      0x00\n        /* \"#utility.yul\":10830:10897   */\n      tag_244\n        /* \"#utility.yul\":10894:10896   */\n      0x0d\n        /* \"#utility.yul\":10889:10892   */\n      dup4\n        /* \"#utility.yul\":10830:10897   */\n      tag_130\n      jump\t// in\n    tag_244:\n        /* \"#utility.yul\":10823:10897   */\n      swap2\n      pop\n        /* \"#utility.yul\":10906:10999   */\n      tag_245\n        /* \"#utility.yul\":10995:10998   */\n      dup3\n        /* \"#utility.yul\":10906:10999   */\n      tag_142\n      jump\t// in\n    tag_245:\n        /* \"#utility.yul\":11024:11026   */\n      0x20\n        /* \"#utility.yul\":11019:11022   */\n      dup3\n        /* \"#utility.yul\":11015:11027   */\n      add\n        /* \"#utility.yul\":11008:11027   */\n      swap1\n      pop\n        /* \"#utility.yul\":10667:11033   */\n      swap2\n      swap1\n      pop\n      jump\t// out\n        /* \"#utility.yul\":11039:11458   */\n    tag_103:\n        /* \"#utility.yul\":11205:11209   */\n      0x00\n        /* \"#utility.yul\":11243:11245   */\n      0x20\n        /* \"#utility.yul\":11232:11241   */\n      dup3\n        /* \"#utility.yul\":11228:11246   */\n      add\n        /* \"#utility.yul\":11220:11246   */\n      swap1\n      pop\n        /* \"#utility.yul\":11292:11301   */\n      dup2\n        /* \"#utility.yul\":11286:11290   */\n      dup2\n        /* \"#utility.yul\":11282:11302   */\n      sub\n        /* \"#utility.yul\":11278:11279   */\n      0x00\n        /* \"#utility.yul\":11267:11276   */\n      dup4\n        /* \"#utility.yul\":11263:11280   */\n      add\n        /* \"#utility.yul\":11256:11303   */\n      mstore\n        /* \"#utility.yul\":11320:11451   */\n      tag_247\n        /* \"#utility.yul\":11446:11450   */\n      dup2\n        /* \"#utility.yul\":11320:11451   */\n      tag_143\n      jump\t// in\n    tag_247:\n        /* \"#utility.yul\":11312:11451   */\n      swap1\n      pop\n        /* \"#utility.yul\":11039:11458   */\n      swap2\n      swap1\n      pop\n      jump\t// out\n\n    auxdata: 0xa2646970667358221220679e725dd788a1a3455f6fdb5ead80ade7c896e23eeae42a73f317252bebeacd64736f6c63430008120033\n}\n",
				"bytecode": {
					"linkReferences": {},
					"object": "60806040523480156200001157600080fd5b50604051620011703803806200117083398181016040528101906200003791906200012a565b816000806101000a81548173ffffffffffffffffffffffffffffffffffffffff021916908373ffffffffffffffffffffffffffffffffffffffff16021790555080600160006101000a81548173ffffffffffffffffffffffffffffffffffffffff021916908373ffffffffffffffffffffffffffffffffffffffff160217905550505062000171565b600080fd5b600073ffffffffffffffffffffffffffffffffffffffff82169050919050565b6000620000f282620000c5565b9050919050565b6200010481620000e5565b81146200011057600080fd5b50565b6000815190506200012481620000f9565b92915050565b60008060408385031215620001445762000143620000c0565b5b6000620001548582860162000113565b9250506020620001678582860162000113565b9150509250929050565b610fef80620001816000396000f3fe608060405234801561001057600080fd5b506004361061007d5760003560e01c806369e527da1161005b57806369e527da146100d85780638eae8854146100f6578063c5ebeaec14610114578063db006a75146101305761007d565b80630e752702146100825780632f48ab7d1461009e57806335403023146100bc575b600080fd5b61009c60048036038101906100979190610ab0565b61014c565b005b6100a6610414565b6040516100b39190610b5c565b60405180910390f35b6100d660048036038101906100d19190610ab0565b61043a565b005b6100e0610621565b6040516100ed9190610b98565b60405180910390f35b6100fe610645565b60405161010b9190610bc2565b60405180910390f35b61012e60048036038101906101299190610ab0565b6106e7565b005b61014a60048036038101906101459190610ab0565b6108ae565b005b600160009054906101000a900473ffffffffffffffffffffffffffffffffffffffff1673ffffffffffffffffffffffffffffffffffffffff166323b872dd3330846040518463ffffffff1660e01b81526004016101ab93929190610bfe565b6020604051808303816000875af11580156101ca573d6000803e3d6000fd5b505050506040513d601f19601f820116820180604052508101906101ee9190610c6d565b61022d576040517f08c379a000000000000000000000000000000000000000000000000000000000815260040161022490610cf7565b60405180910390fd5b600160009054906101000a900473ffffffffffffffffffffffffffffffffffffffff1673ffffffffffffffffffffffffffffffffffffffff1663095ea7b360008054906101000a900473ffffffffffffffffffffffffffffffffffffffff16836040518363ffffffff1660e01b81526004016102aa929190610d17565b6020604051808303816000875af11580156102c9573d6000803e3d6000fd5b505050506040513d601f19601f820116820180604052508101906102ed9190610c6d565b61032c576040517f08c379a000000000000000000000000000000000000000000000000000000000815260040161032390610d8c565b60405180910390fd5b60008060009054906101000a900473ffffffffffffffffffffffffffffffffffffffff1673ffffffffffffffffffffffffffffffffffffffff16630e752702836040518263ffffffff1660e01b81526004016103889190610bc2565b6020604051808303816000875af11580156103a7573d6000803e3d6000fd5b505050506040513d601f19601f820116820180604052508101906103cb9190610dc1565b905060008114610410576040517f08c379a000000000000000000000000000000000000000000000000000000000815260040161040790610e3a565b60405180910390fd5b5050565b600160009054906101000a900473ffffffffffffffffffffffffffffffffffffffff1681565b600160009054906101000a900473ffffffffffffffffffffffffffffffffffffffff1673ffffffffffffffffffffffffffffffffffffffff1663095ea7b360008054906101000a900473ffffffffffffffffffffffffffffffffffffffff16836040518363ffffffff1660e01b81526004016104b7929190610d17565b6020604051808303816000875af11580156104d6573d6000803e3d6000fd5b505050506040513d601f19601f820116820180604052508101906104fa9190610c6d565b610539576040517f08c379a000000000000000000000000000000000000000000000000000000000815260040161053090610d8c565b60405180910390fd5b60008060009054906101000a900473ffffffffffffffffffffffffffffffffffffffff1673ffffffffffffffffffffffffffffffffffffffff1663a0712d68836040518263ffffffff1660e01b81526004016105959190610bc2565b6020604051808303816000875af11580156105b4573d6000803e3d6000fd5b505050506040513d601f19601f820116820180604052508101906105d89190610dc1565b90506000811461061d576040517f08c379a000000000000000000000000000000000000000000000000000000000815260040161061490610ea6565b60405180910390fd5b5050565b60008054906101000a900473ffffffffffffffffffffffffffffffffffffffff1681565b60008060009054906101000a900473ffffffffffffffffffffffffffffffffffffffff1673ffffffffffffffffffffffffffffffffffffffff166370a08231306040518263ffffffff1660e01b81526004016106a19190610ec6565b602060405180830381865afa1580156106be573d6000803e3d6000fd5b505050506040513d601f19601f820116820180604052508101906106e29190610dc1565b905090565b60008060009054906101000a900473ffffffffffffffffffffffffffffffffffffffff1673ffffffffffffffffffffffffffffffffffffffff1663c5ebeaec836040518263ffffffff1660e01b81526004016107439190610bc2565b6020604051808303816000875af1158015610762573d6000803e3d6000fd5b505050506040513d601f19601f820116820180604052508101906107869190610dc1565b9050600081146107cb576040517f08c379a00000000000000000000000000000000000000000000000000000000081526004016107c290610f2d565b60405180910390fd5b600160009054906101000a900473ffffffffffffffffffffffffffffffffffffffff1673ffffffffffffffffffffffffffffffffffffffff1663a9059cbb33846040518363ffffffff1660e01b8152600401610828929190610d17565b6020604051808303816000875af1158015610847573d6000803e3d6000fd5b505050506040513d601f19601f8201168201806040525081019061086b9190610c6d565b6108aa576040517f08c379a00000000000000000000000000000000000000000000000000000000081526004016108a190610cf7565b60405180910390fd5b5050565b60008060009054906101000a900473ffffffffffffffffffffffffffffffffffffffff1673ffffffffffffffffffffffffffffffffffffffff1663db006a75836040518263ffffffff1660e01b815260040161090a9190610bc2565b6020604051808303816000875af1158015610929573d6000803e3d6000fd5b505050506040513d601f19601f8201168201806040525081019061094d9190610dc1565b905060008114610992576040517f08c379a000000000000000000000000000000000000000000000000000000000815260040161098990610f99565b60405180910390fd5b600160009054906101000a900473ffffffffffffffffffffffffffffffffffffffff1673ffffffffffffffffffffffffffffffffffffffff1663a9059cbb33846040518363ffffffff1660e01b81526004016109ef929190610d17565b6020604051808303816000875af1158015610a0e573d6000803e3d6000fd5b505050506040513d601f19601f82011682018060405250810190610a329190610c6d565b610a71576040517f08c379a0000000000000000000000000000000000000000000000000000000008152600401610a6890610cf7565b60405180910390fd5b5050565b600080fd5b6000819050919050565b610a8d81610a7a565b8114610a9857600080fd5b50565b600081359050610aaa81610a84565b92915050565b600060208284031215610ac657610ac5610a75565b5b6000610ad484828501610a9b565b91505092915050565b600073ffffffffffffffffffffffffffffffffffffffff82169050919050565b6000819050919050565b6000610b22610b1d610b1884610add565b610afd565b610add565b9050919050565b6000610b3482610b07565b9050919050565b6000610b4682610b29565b9050919050565b610b5681610b3b565b82525050565b6000602082019050610b716000830184610b4d565b92915050565b6000610b8282610b29565b9050919050565b610b9281610b77565b82525050565b6000602082019050610bad6000830184610b89565b92915050565b610bbc81610a7a565b82525050565b6000602082019050610bd76000830184610bb3565b92915050565b6000610be882610add565b9050919050565b610bf881610bdd565b82525050565b6000606082019050610c136000830186610bef565b610c206020830185610bef565b610c2d6040830184610bb3565b949350505050565b60008115159050919050565b610c4a81610c35565b8114610c5557600080fd5b50565b600081519050610c6781610c41565b92915050565b600060208284031215610c8357610c82610a75565b5b6000610c9184828501610c58565b91505092915050565b600082825260208201905092915050565b7f55534454207472616e73666572206661696c6564000000000000000000000000600082015250565b6000610ce1601483610c9a565b9150610cec82610cab565b602082019050919050565b60006020820190508181036000830152610d1081610cd4565b9050919050565b6000604082019050610d2c6000830185610bef565b610d396020830184610bb3565b9392505050565b7f417070726f76616c206661696c65640000000000000000000000000000000000600082015250565b6000610d76600f83610c9a565b9150610d8182610d40565b602082019050919050565b60006020820190508181036000830152610da581610d69565b9050919050565b600081519050610dbb81610a84565b92915050565b600060208284031215610dd757610dd6610a75565b5b6000610de584828501610dac565b91505092915050565b7f5265706179206661696c65640000000000000000000000000000000000000000600082015250565b6000610e24600c83610c9a565b9150610e2f82610dee565b602082019050919050565b60006020820190508181036000830152610e5381610e17565b9050919050565b7f4d696e74206661696c6564000000000000000000000000000000000000000000600082015250565b6000610e90600b83610c9a565b9150610e9b82610e5a565b602082019050919050565b60006020820190508181036000830152610ebf81610e83565b9050919050565b6000602082019050610edb6000830184610bef565b92915050565b7f426f72726f77206661696c656400000000000000000000000000000000000000600082015250565b6000610f17600d83610c9a565b9150610f2282610ee1565b602082019050919050565b60006020820190508181036000830152610f4681610f0a565b9050919050565b7f52656465656d206661696c656400000000000000000000000000000000000000600082015250565b6000610f83600d83610c9a565b9150610f8e82610f4d565b602082019050919050565b60006020820190508181036000830152610fb281610f76565b905091905056fea2646970667358221220679e725dd788a1a3455f6fdb5ead80ade7c896e23eeae42a73f317252bebeacd64736f6c63430008120033",
					"opcodes": "PUSH1 0x80 PUSH1 0x40 MSTORE CALLVALUE DUP1 ISZERO PUSH3 0x11 JUMPI PUSH1 0x0 DUP1 REVERT JUMPDEST POP PUSH1 0x40 MLOAD PUSH3 0x1170 CODESIZE SUB DUP1 PUSH3 0x1170 DUP4 CODECOPY DUP2 DUP2 ADD PUSH1 0x40 MSTORE DUP2 ADD SWAP1 PUSH3 0x37 SWAP2 SWAP1 PUSH3 0x12A JUMP JUMPDEST DUP2 PUSH1 0x0 DUP1 PUSH2 0x100 EXP DUP2 SLOAD DUP2 PUSH20 0xFFFFFFFFFFFFFFFFFFFFFFFFFFFFFFFFFFFFFFFF MUL NOT AND SWAP1 DUP4 PUSH20 0xFFFFFFFFFFFFFFFFFFFFFFFFFFFFFFFFFFFFFFFF AND MUL OR SWAP1 SSTORE POP DUP1 PUSH1 0x1 PUSH1 0x0 PUSH2 0x100 EXP DUP2 SLOAD DUP2 PUSH20 0xFFFFFFFFFFFFFFFFFFFFFFFFFFFFFFFFFFFFFFFF MUL NOT AND SWAP1 DUP4 PUSH20 0xFFFFFFFFFFFFFFFFFFFFFFFFFFFFFFFFFFFFFFFF AND MUL OR SWAP1 SSTORE POP POP POP PUSH3 0x171 JUMP JUMPDEST PUSH1 0x0 DUP1 REVERT JUMPDEST PUSH1 0x0 PUSH20 0xFFFFFFFFFFFFFFFFFFFFFFFFFFFFFFFFFFFFFFFF DUP3 AND SWAP1 POP SWAP2 SWAP1 POP JUMP JUMPDEST PUSH1 0x0 PUSH3 0xF2 DUP3 PUSH3 0xC5 JUMP JUMPDEST SWAP1 POP SWAP2 SWAP1 POP JUMP JUMPDEST PUSH3 0x104 DUP2 PUSH3 0xE5 JUMP JUMPDEST DUP2 EQ PUSH3 0x110 JUMPI PUSH1 0x0 DUP1 REVERT JUMPDEST POP JUMP JUMPDEST PUSH1 0x0 DUP2 MLOAD SWAP1 POP PUSH3 0x124 DUP2 PUSH3 0xF9 JUMP JUMPDEST SWAP3 SWAP2 POP POP JUMP JUMPDEST PUSH1 0x0 DUP1 PUSH1 0x40 DUP4 DUP6 SUB SLT ISZERO PUSH3 0x144 JUMPI PUSH3 0x143 PUSH3 0xC0 JUMP JUMPDEST JUMPDEST PUSH1 0x0 PUSH3 0x154 DUP6 DUP3 DUP7 ADD PUSH3 0x113 JUMP JUMPDEST SWAP3 POP POP PUSH1 0x20 PUSH3 0x167 DUP6 DUP3 DUP7 ADD PUSH3 0x113 JUMP JUMPDEST SWAP2 POP POP SWAP3 POP SWAP3 SWAP1 POP JUMP JUMPDEST PUSH2 0xFEF DUP1 PUSH3 0x181 PUSH1 0x0 CODECOPY PUSH1 0x0 RETURN INVALID PUSH1 0x80 PUSH1 0x40 MSTORE CALLVALUE DUP1 ISZERO PUSH2 0x10 JUMPI PUSH1 0x0 DUP1 REVERT JUMPDEST POP PUSH1 0x4 CALLDATASIZE LT PUSH2 0x7D JUMPI PUSH1 0x0 CALLDATALOAD PUSH1 0xE0 SHR DUP1 PUSH4 0x69E527DA GT PUSH2 0x5B JUMPI DUP1 PUSH4 0x69E527DA EQ PUSH2 0xD8 JUMPI DUP1 PUSH4 0x8EAE8854 EQ PUSH2 0xF6 JUMPI DUP1 PUSH4 0xC5EBEAEC EQ PUSH2 0x114 JUMPI DUP1 PUSH4 0xDB006A75 EQ PUSH2 0x130 JUMPI PUSH2 0x7D JUMP JUMPDEST DUP1 PUSH4 0xE752702 EQ PUSH2 0x82 JUMPI DUP1 PUSH4 0x2F48AB7D EQ PUSH2 0x9E JUMPI DUP1 PUSH4 0x35403023 EQ PUSH2 0xBC JUMPI JUMPDEST PUSH1 0x0 DUP1 REVERT JUMPDEST PUSH2 0x9C PUSH1 0x4 DUP1 CALLDATASIZE SUB DUP2 ADD SWAP1 PUSH2 0x97 SWAP2 SWAP1 PUSH2 0xAB0 JUMP JUMPDEST PUSH2 0x14C JUMP JUMPDEST STOP JUMPDEST PUSH2 0xA6 PUSH2 0x414 JUMP JUMPDEST PUSH1 0x40 MLOAD PUSH2 0xB3 SWAP2 SWAP1 PUSH2 0xB5C JUMP JUMPDEST PUSH1 0x40 MLOAD DUP1 SWAP2 SUB SWAP1 RETURN JUMPDEST PUSH2 0xD6 PUSH1 0x4 DUP1 CALLDATASIZE SUB DUP2 ADD SWAP1 PUSH2 0xD1 SWAP2 SWAP1 PUSH2 0xAB0 JUMP JUMPDEST PUSH2 0x43A JUMP JUMPDEST STOP JUMPDEST PUSH2 0xE0 PUSH2 0x621 JUMP JUMPDEST PUSH1 0x40 MLOAD PUSH2 0xED SWAP2 SWAP1 PUSH2 0xB98 JUMP JUMPDEST PUSH1 0x40 MLOAD DUP1 SWAP2 SUB SWAP1 RETURN JUMPDEST PUSH2 0xFE PUSH2 0x645 JUMP JUMPDEST PUSH1 0x40 MLOAD PUSH2 0x10B SWAP2 SWAP1 PUSH2 0xBC2 JUMP JUMPDEST PUSH1 0x40 MLOAD DUP1 SWAP2 SUB SWAP1 RETURN JUMPDEST PUSH2 0x12E PUSH1 0x4 DUP1 CALLDATASIZE SUB DUP2 ADD SWAP1 PUSH2 0x129 SWAP2 SWAP1 PUSH2 0xAB0 JUMP JUMPDEST PUSH2 0x6E7 JUMP JUMPDEST STOP JUMPDEST PUSH2 0x14A PUSH1 0x4 DUP1 CALLDATASIZE SUB DUP2 ADD SWAP1 PUSH2 0x145 SWAP2 SWAP1 PUSH2 0xAB0 JUMP JUMPDEST PUSH2 0x8AE JUMP JUMPDEST STOP JUMPDEST PUSH1 0x1 PUSH1 0x0 SWAP1 SLOAD SWAP1 PUSH2 0x100 EXP SWAP1 DIV PUSH20 0xFFFFFFFFFFFFFFFFFFFFFFFFFFFFFFFFFFFFFFFF AND PUSH20 0xFFFFFFFFFFFFFFFFFFFFFFFFFFFFFFFFFFFFFFFF AND PUSH4 0x23B872DD CALLER ADDRESS DUP5 PUSH1 0x40 MLOAD DUP5 PUSH4 0xFFFFFFFF AND PUSH1 0xE0 SHL DUP2 MSTORE PUSH1 0x4 ADD PUSH2 0x1AB SWAP4 SWAP3 SWAP2 SWAP1 PUSH2 0xBFE JUMP JUMPDEST PUSH1 0x20 PUSH1 0x40 MLOAD DUP1 DUP4 SUB DUP2 PUSH1 0x0 DUP8 GAS CALL ISZERO DUP1 ISZERO PUSH2 0x1CA JUMPI RETURNDATASIZE PUSH1 0x0 DUP1 RETURNDATACOPY RETURNDATASIZE PUSH1 0x0 REVERT JUMPDEST POP POP POP POP PUSH1 0x40 MLOAD RETURNDATASIZE PUSH1 0x1F NOT PUSH1 0x1F DUP3 ADD AND DUP3 ADD DUP1 PUSH1 0x40 MSTORE POP DUP2 ADD SWAP1 PUSH2 0x1EE SWAP2 SWAP1 PUSH2 0xC6D JUMP JUMPDEST PUSH2 0x22D JUMPI PUSH1 0x40 MLOAD PUSH32 0x8C379A000000000000000000000000000000000000000000000000000000000 DUP2 MSTORE PUSH1 0x4 ADD PUSH2 0x224 SWAP1 PUSH2 0xCF7 JUMP JUMPDEST PUSH1 0x40 MLOAD DUP1 SWAP2 SUB SWAP1 REVERT JUMPDEST PUSH1 0x1 PUSH1 0x0 SWAP1 SLOAD SWAP1 PUSH2 0x100 EXP SWAP1 DIV PUSH20 0xFFFFFFFFFFFFFFFFFFFFFFFFFFFFFFFFFFFFFFFF AND PUSH20 0xFFFFFFFFFFFFFFFFFFFFFFFFFFFFFFFFFFFFFFFF AND PUSH4 0x95EA7B3 PUSH1 0x0 DUP1 SLOAD SWAP1 PUSH2 0x100 EXP SWAP1 DIV PUSH20 0xFFFFFFFFFFFFFFFFFFFFFFFFFFFFFFFFFFFFFFFF AND DUP4 PUSH1 0x40 MLOAD DUP4 PUSH4 0xFFFFFFFF AND PUSH1 0xE0 SHL DUP2 MSTORE PUSH1 0x4 ADD PUSH2 0x2AA SWAP3 SWAP2 SWAP1 PUSH2 0xD17 JUMP JUMPDEST PUSH1 0x20 PUSH1 0x40 MLOAD DUP1 DUP4 SUB DUP2 PUSH1 0x0 DUP8 GAS CALL ISZERO DUP1 ISZERO PUSH2 0x2C9 JUMPI RETURNDATASIZE PUSH1 0x0 DUP1 RETURNDATACOPY RETURNDATASIZE PUSH1 0x0 REVERT JUMPDEST POP POP POP POP PUSH1 0x40 MLOAD RETURNDATASIZE PUSH1 0x1F NOT PUSH1 0x1F DUP3 ADD AND DUP3 ADD DUP1 PUSH1 0x40 MSTORE POP DUP2 ADD SWAP1 PUSH2 0x2ED SWAP2 SWAP1 PUSH2 0xC6D JUMP JUMPDEST PUSH2 0x32C JUMPI PUSH1 0x40 MLOAD PUSH32 0x8C379A000000000000000000000000000000000000000000000000000000000 DUP2 MSTORE PUSH1 0x4 ADD PUSH2 0x323 SWAP1 PUSH2 0xD8C JUMP JUMPDEST PUSH1 0x40 MLOAD DUP1 SWAP2 SUB SWAP1 REVERT JUMPDEST PUSH1 0x0 DUP1 PUSH1 0x0 SWAP1 SLOAD SWAP1 PUSH2 0x100 EXP SWAP1 DIV PUSH20 0xFFFFFFFFFFFFFFFFFFFFFFFFFFFFFFFFFFFFFFFF AND PUSH20 0xFFFFFFFFFFFFFFFFFFFFFFFFFFFFFFFFFFFFFFFF AND PUSH4 0xE752702 DUP4 PUSH1 0x40 MLOAD DUP3 PUSH4 0xFFFFFFFF AND PUSH1 0xE0 SHL DUP2 MSTORE PUSH1 0x4 ADD PUSH2 0x388 SWAP2 SWAP1 PUSH2 0xBC2 JUMP JUMPDEST PUSH1 0x20 PUSH1 0x40 MLOAD DUP1 DUP4 SUB DUP2 PUSH1 0x0 DUP8 GAS CALL ISZERO DUP1 ISZERO PUSH2 0x3A7 JUMPI RETURNDATASIZE PUSH1 0x0 DUP1 RETURNDATACOPY RETURNDATASIZE PUSH1 0x0 REVERT JUMPDEST POP POP POP POP PUSH1 0x40 MLOAD RETURNDATASIZE PUSH1 0x1F NOT PUSH1 0x1F DUP3 ADD AND DUP3 ADD DUP1 PUSH1 0x40 MSTORE POP DUP2 ADD SWAP1 PUSH2 0x3CB SWAP2 SWAP1 PUSH2 0xDC1 JUMP JUMPDEST SWAP1 POP PUSH1 0x0 DUP2 EQ PUSH2 0x410 JUMPI PUSH1 0x40 MLOAD PUSH32 0x8C379A000000000000000000000000000000000000000000000000000000000 DUP2 MSTORE PUSH1 0x4 ADD PUSH2 0x407 SWAP1 PUSH2 0xE3A JUMP JUMPDEST PUSH1 0x40 MLOAD DUP1 SWAP2 SUB SWAP1 REVERT JUMPDEST POP POP JUMP JUMPDEST PUSH1 0x1 PUSH1 0x0 SWAP1 SLOAD SWAP1 PUSH2 0x100 EXP SWAP1 DIV PUSH20 0xFFFFFFFFFFFFFFFFFFFFFFFFFFFFFFFFFFFFFFFF AND DUP2 JUMP JUMPDEST PUSH1 0x1 PUSH1 0x0 SWAP1 SLOAD SWAP1 PUSH2 0x100 EXP SWAP1 DIV PUSH20 0xFFFFFFFFFFFFFFFFFFFFFFFFFFFFFFFFFFFFFFFF AND PUSH20 0xFFFFFFFFFFFFFFFFFFFFFFFFFFFFFFFFFFFFFFFF AND PUSH4 0x95EA7B3 PUSH1 0x0 DUP1 SLOAD SWAP1 PUSH2 0x100 EXP SWAP1 DIV PUSH20 0xFFFFFFFFFFFFFFFFFFFFFFFFFFFFFFFFFFFFFFFF AND DUP4 PUSH1 0x40 MLOAD DUP4 PUSH4 0xFFFFFFFF AND PUSH1 0xE0 SHL DUP2 MSTORE PUSH1 0x4 ADD PUSH2 0x4B7 SWAP3 SWAP2 SWAP1 PUSH2 0xD17 JUMP JUMPDEST PUSH1 0x20 PUSH1 0x40 MLOAD DUP1 DUP4 SUB DUP2 PUSH1 0x0 DUP8 GAS CALL ISZERO DUP1 ISZERO PUSH2 0x4D6 JUMPI RETURNDATASIZE PUSH1 0x0 DUP1 RETURNDATACOPY RETURNDATASIZE PUSH1 0x0 REVERT JUMPDEST POP POP POP POP PUSH1 0x40 MLOAD RETURNDATASIZE PUSH1 0x1F NOT PUSH1 0x1F DUP3 ADD AND DUP3 ADD DUP1 PUSH1 0x40 MSTORE POP DUP2 ADD SWAP1 PUSH2 0x4FA SWAP2 SWAP1 PUSH2 0xC6D JUMP JUMPDEST PUSH2 0x539 JUMPI PUSH1 0x40 MLOAD PUSH32 0x8C379A000000000000000000000000000000000000000000000000000000000 DUP2 MSTORE PUSH1 0x4 ADD PUSH2 0x530 SWAP1 PUSH2 0xD8C JUMP JUMPDEST PUSH1 0x40 MLOAD DUP1 SWAP2 SUB SWAP1 REVERT JUMPDEST PUSH1 0x0 DUP1 PUSH1 0x0 SWAP1 SLOAD SWAP1 PUSH2 0x100 EXP SWAP1 DIV PUSH20 0xFFFFFFFFFFFFFFFFFFFFFFFFFFFFFFFFFFFFFFFF AND PUSH20 0xFFFFFFFFFFFFFFFFFFFFFFFFFFFFFFFFFFFFFFFF AND PUSH4 0xA0712D68 DUP4 PUSH1 0x40 MLOAD DUP3 PUSH4 0xFFFFFFFF AND PUSH1 0xE0 SHL DUP2 MSTORE PUSH1 0x4 ADD PUSH2 0x595 SWAP2 SWAP1 PUSH2 0xBC2 JUMP JUMPDEST PUSH1 0x20 PUSH1 0x40 MLOAD DUP1 DUP4 SUB DUP2 PUSH1 0x0 DUP8 GAS CALL ISZERO DUP1 ISZERO PUSH2 0x5B4 JUMPI RETURNDATASIZE PUSH1 0x0 DUP1 RETURNDATACOPY RETURNDATASIZE PUSH1 0x0 REVERT JUMPDEST POP POP POP POP PUSH1 0x40 MLOAD RETURNDATASIZE PUSH1 0x1F NOT PUSH1 0x1F DUP3 ADD AND DUP3 ADD DUP1 PUSH1 0x40 MSTORE POP DUP2 ADD SWAP1 PUSH2 0x5D8 SWAP2 SWAP1 PUSH2 0xDC1 JUMP JUMPDEST SWAP1 POP PUSH1 0x0 DUP2 EQ PUSH2 0x61D JUMPI PUSH1 0x40 MLOAD PUSH32 0x8C379A000000000000000000000000000000000000000000000000000000000 DUP2 MSTORE PUSH1 0x4 ADD PUSH2 0x614 SWAP1 PUSH2 0xEA6 JUMP JUMPDEST PUSH1 0x40 MLOAD DUP1 SWAP2 SUB SWAP1 REVERT JUMPDEST POP POP JUMP JUMPDEST PUSH1 0x0 DUP1 SLOAD SWAP1 PUSH2 0x100 EXP SWAP1 DIV PUSH20 0xFFFFFFFFFFFFFFFFFFFFFFFFFFFFFFFFFFFFFFFF AND DUP2 JUMP JUMPDEST PUSH1 0x0 DUP1 PUSH1 0x0 SWAP1 SLOAD SWAP1 PUSH2 0x100 EXP SWAP1 DIV PUSH20 0xFFFFFFFFFFFFFFFFFFFFFFFFFFFFFFFFFFFFFFFF AND PUSH20 0xFFFFFFFFFFFFFFFFFFFFFFFFFFFFFFFFFFFFFFFF AND PUSH4 0x70A08231 ADDRESS PUSH1 0x40 MLOAD DUP3 PUSH4 0xFFFFFFFF AND PUSH1 0xE0 SHL DUP2 MSTORE PUSH1 0x4 ADD PUSH2 0x6A1 SWAP2 SWAP1 PUSH2 0xEC6 JUMP JUMPDEST PUSH1 0x20 PUSH1 0x40 MLOAD DUP1 DUP4 SUB DUP2 DUP7 GAS STATICCALL ISZERO DUP1 ISZERO PUSH2 0x6BE JUMPI RETURNDATASIZE PUSH1 0x0 DUP1 RETURNDATACOPY RETURNDATASIZE PUSH1 0x0 REVERT JUMPDEST POP POP POP POP PUSH1 0x40 MLOAD RETURNDATASIZE PUSH1 0x1F NOT PUSH1 0x1F DUP3 ADD AND DUP3 ADD DUP1 PUSH1 0x40 MSTORE POP DUP2 ADD SWAP1 PUSH2 0x6E2 SWAP2 SWAP1 PUSH2 0xDC1 JUMP JUMPDEST SWAP1 POP SWAP1 JUMP JUMPDEST PUSH1 0x0 DUP1 PUSH1 0x0 SWAP1 SLOAD SWAP1 PUSH2 0x100 EXP SWAP1 DIV PUSH20 0xFFFFFFFFFFFFFFFFFFFFFFFFFFFFFFFFFFFFFFFF AND PUSH20 0xFFFFFFFFFFFFFFFFFFFFFFFFFFFFFFFFFFFFFFFF AND PUSH4 0xC5EBEAEC DUP4 PUSH1 0x40 MLOAD DUP3 PUSH4 0xFFFFFFFF AND PUSH1 0xE0 SHL DUP2 MSTORE PUSH1 0x4 ADD PUSH2 0x743 SWAP2 SWAP1 PUSH2 0xBC2 JUMP JUMPDEST PUSH1 0x20 PUSH1 0x40 MLOAD DUP1 DUP4 SUB DUP2 PUSH1 0x0 DUP8 GAS CALL ISZERO DUP1 ISZERO PUSH2 0x762 JUMPI RETURNDATASIZE PUSH1 0x0 DUP1 RETURNDATACOPY RETURNDATASIZE PUSH1 0x0 REVERT JUMPDEST POP POP POP POP PUSH1 0x40 MLOAD RETURNDATASIZE PUSH1 0x1F NOT PUSH1 0x1F DUP3 ADD AND DUP3 ADD DUP1 PUSH1 0x40 MSTORE POP DUP2 ADD SWAP1 PUSH2 0x786 SWAP2 SWAP1 PUSH2 0xDC1 JUMP JUMPDEST SWAP1 POP PUSH1 0x0 DUP2 EQ PUSH2 0x7CB JUMPI PUSH1 0x40 MLOAD PUSH32 0x8C379A000000000000000000000000000000000000000000000000000000000 DUP2 MSTORE PUSH1 0x4 ADD PUSH2 0x7C2 SWAP1 PUSH2 0xF2D JUMP JUMPDEST PUSH1 0x40 MLOAD DUP1 SWAP2 SUB SWAP1 REVERT JUMPDEST PUSH1 0x1 PUSH1 0x0 SWAP1 SLOAD SWAP1 PUSH2 0x100 EXP SWAP1 DIV PUSH20 0xFFFFFFFFFFFFFFFFFFFFFFFFFFFFFFFFFFFFFFFF AND PUSH20 0xFFFFFFFFFFFFFFFFFFFFFFFFFFFFFFFFFFFFFFFF AND PUSH4 0xA9059CBB CALLER DUP5 PUSH1 0x40 MLOAD DUP4 PUSH4 0xFFFFFFFF AND PUSH1 0xE0 SHL DUP2 MSTORE PUSH1 0x4 ADD PUSH2 0x828 SWAP3 SWAP2 SWAP1 PUSH2 0xD17 JUMP JUMPDEST PUSH1 0x20 PUSH1 0x40 MLOAD DUP1 DUP4 SUB DUP2 PUSH1 0x0 DUP8 GAS CALL ISZERO DUP1 ISZERO PUSH2 0x847 JUMPI RETURNDATASIZE PUSH1 0x0 DUP1 RETURNDATACOPY RETURNDATASIZE PUSH1 0x0 REVERT JUMPDEST POP POP POP POP PUSH1 0x40 MLOAD RETURNDATASIZE PUSH1 0x1F NOT PUSH1 0x1F DUP3 ADD AND DUP3 ADD DUP1 PUSH1 0x40 MSTORE POP DUP2 ADD SWAP1 PUSH2 0x86B SWAP2 SWAP1 PUSH2 0xC6D JUMP JUMPDEST PUSH2 0x8AA JUMPI PUSH1 0x40 MLOAD PUSH32 0x8C379A000000000000000000000000000000000000000000000000000000000 DUP2 MSTORE PUSH1 0x4 ADD PUSH2 0x8A1 SWAP1 PUSH2 0xCF7 JUMP JUMPDEST PUSH1 0x40 MLOAD DUP1 SWAP2 SUB SWAP1 REVERT JUMPDEST POP POP JUMP JUMPDEST PUSH1 0x0 DUP1 PUSH1 0x0 SWAP1 SLOAD SWAP1 PUSH2 0x100 EXP SWAP1 DIV PUSH20 0xFFFFFFFFFFFFFFFFFFFFFFFFFFFFFFFFFFFFFFFF AND PUSH20 0xFFFFFFFFFFFFFFFFFFFFFFFFFFFFFFFFFFFFFFFF AND PUSH4 0xDB006A75 DUP4 PUSH1 0x40 MLOAD DUP3 PUSH4 0xFFFFFFFF AND PUSH1 0xE0 SHL DUP2 MSTORE PUSH1 0x4 ADD PUSH2 0x90A SWAP2 SWAP1 PUSH2 0xBC2 JUMP JUMPDEST PUSH1 0x20 PUSH1 0x40 MLOAD DUP1 DUP4 SUB DUP2 PUSH1 0x0 DUP8 GAS CALL ISZERO DUP1 ISZERO PUSH2 0x929 JUMPI RETURNDATASIZE PUSH1 0x0 DUP1 RETURNDATACOPY RETURNDATASIZE PUSH1 0x0 REVERT JUMPDEST POP POP POP POP PUSH1 0x40 MLOAD RETURNDATASIZE PUSH1 0x1F NOT PUSH1 0x1F DUP3 ADD AND DUP3 ADD DUP1 PUSH1 0x40 MSTORE POP DUP2 ADD SWAP1 PUSH2 0x94D SWAP2 SWAP1 PUSH2 0xDC1 JUMP JUMPDEST SWAP1 POP PUSH1 0x0 DUP2 EQ PUSH2 0x992 JUMPI PUSH1 0x40 MLOAD PUSH32 0x8C379A000000000000000000000000000000000000000000000000000000000 DUP2 MSTORE PUSH1 0x4 ADD PUSH2 0x989 SWAP1 PUSH2 0xF99 JUMP JUMPDEST PUSH1 0x40 MLOAD DUP1 SWAP2 SUB SWAP1 REVERT JUMPDEST PUSH1 0x1 PUSH1 0x0 SWAP1 SLOAD SWAP1 PUSH2 0x100 EXP SWAP1 DIV PUSH20 0xFFFFFFFFFFFFFFFFFFFFFFFFFFFFFFFFFFFFFFFF AND PUSH20 0xFFFFFFFFFFFFFFFFFFFFFFFFFFFFFFFFFFFFFFFF AND PUSH4 0xA9059CBB CALLER DUP5 PUSH1 0x40 MLOAD DUP4 PUSH4 0xFFFFFFFF AND PUSH1 0xE0 SHL DUP2 MSTORE PUSH1 0x4 ADD PUSH2 0x9EF SWAP3 SWAP2 SWAP1 PUSH2 0xD17 JUMP JUMPDEST PUSH1 0x20 PUSH1 0x40 MLOAD DUP1 DUP4 SUB DUP2 PUSH1 0x0 DUP8 GAS CALL ISZERO DUP1 ISZERO PUSH2 0xA0E JUMPI RETURNDATASIZE PUSH1 0x0 DUP1 RETURNDATACOPY RETURNDATASIZE PUSH1 0x0 REVERT JUMPDEST POP POP POP POP PUSH1 0x40 MLOAD RETURNDATASIZE PUSH1 0x1F NOT PUSH1 0x1F DUP3 ADD AND DUP3 ADD DUP1 PUSH1 0x40 MSTORE POP DUP2 ADD SWAP1 PUSH2 0xA32 SWAP2 SWAP1 PUSH2 0xC6D JUMP JUMPDEST PUSH2 0xA71 JUMPI PUSH1 0x40 MLOAD PUSH32 0x8C379A000000000000000000000000000000000000000000000000000000000 DUP2 MSTORE PUSH1 0x4 ADD PUSH2 0xA68 SWAP1 PUSH2 0xCF7 JUMP JUMPDEST PUSH1 0x40 MLOAD DUP1 SWAP2 SUB SWAP1 REVERT JUMPDEST POP POP JUMP JUMPDEST PUSH1 0x0 DUP1 REVERT JUMPDEST PUSH1 0x0 DUP2 SWAP1 POP SWAP2 SWAP1 POP JUMP JUMPDEST PUSH2 0xA8D DUP2 PUSH2 0xA7A JUMP JUMPDEST DUP2 EQ PUSH2 0xA98 JUMPI PUSH1 0x0 DUP1 REVERT JUMPDEST POP JUMP JUMPDEST PUSH1 0x0 DUP2 CALLDATALOAD SWAP1 POP PUSH2 0xAAA DUP2 PUSH2 0xA84 JUMP JUMPDEST SWAP3 SWAP2 POP POP JUMP JUMPDEST PUSH1 0x0 PUSH1 0x20 DUP3 DUP5 SUB SLT ISZERO PUSH2 0xAC6 JUMPI PUSH2 0xAC5 PUSH2 0xA75 JUMP JUMPDEST JUMPDEST PUSH1 0x0 PUSH2 0xAD4 DUP5 DUP3 DUP6 ADD PUSH2 0xA9B JUMP JUMPDEST SWAP2 POP POP SWAP3 SWAP2 POP POP JUMP JUMPDEST PUSH1 0x0 PUSH20 0xFFFFFFFFFFFFFFFFFFFFFFFFFFFFFFFFFFFFFFFF DUP3 AND SWAP1 POP SWAP2 SWAP1 POP JUMP JUMPDEST PUSH1 0x0 DUP2 SWAP1 POP SWAP2 SWAP1 POP JUMP JUMPDEST PUSH1 0x0 PUSH2 0xB22 PUSH2 0xB1D PUSH2 0xB18 DUP5 PUSH2 0xADD JUMP JUMPDEST PUSH2 0xAFD JUMP JUMPDEST PUSH2 0xADD JUMP JUMPDEST SWAP1 POP SWAP2 SWAP1 POP JUMP JUMPDEST PUSH1 0x0 PUSH2 0xB34 DUP3 PUSH2 0xB07 JUMP JUMPDEST SWAP1 POP SWAP2 SWAP1 POP JUMP JUMPDEST PUSH1 0x0 PUSH2 0xB46 DUP3 PUSH2 0xB29 JUMP JUMPDEST SWAP1 POP SWAP2 SWAP1 POP JUMP JUMPDEST PUSH2 0xB56 DUP2 PUSH2 0xB3B JUMP JUMPDEST DUP3 MSTORE POP POP JUMP JUMPDEST PUSH1 0x0 PUSH1 0x20 DUP3 ADD SWAP1 POP PUSH2 0xB71 PUSH1 0x0 DUP4 ADD DUP5 PUSH2 0xB4D JUMP JUMPDEST SWAP3 SWAP2 POP POP JUMP JUMPDEST PUSH1 0x0 PUSH2 0xB82 DUP3 PUSH2 0xB29 JUMP JUMPDEST SWAP1 POP SWAP2 SWAP1 POP JUMP JUMPDEST PUSH2 0xB92 DUP2 PUSH2 0xB77 JUMP JUMPDEST DUP3 MSTORE POP POP JUMP JUMPDEST PUSH1 0x0 PUSH1 0x20 DUP3 ADD SWAP1 POP PUSH2 0xBAD PUSH1 0x0 DUP4 ADD DUP5 PUSH2 0xB89 JUMP JUMPDEST SWAP3 SWAP2 POP POP JUMP JUMPDEST PUSH2 0xBBC DUP2 PUSH2 0xA7A JUMP JUMPDEST DUP3 MSTORE POP POP JUMP JUMPDEST PUSH1 0x0 PUSH1 0x20 DUP3 ADD SWAP1 POP PUSH2 0xBD7 PUSH1 0x0 DUP4 ADD DUP5 PUSH2 0xBB3 JUMP JUMPDEST SWAP3 SWAP2 POP POP JUMP JUMPDEST PUSH1 0x0 PUSH2 0xBE8 DUP3 PUSH2 0xADD JUMP JUMPDEST SWAP1 POP SWAP2 SWAP1 POP JUMP JUMPDEST PUSH2 0xBF8 DUP2 PUSH2 0xBDD JUMP JUMPDEST DUP3 MSTORE POP POP JUMP JUMPDEST PUSH1 0x0 PUSH1 0x60 DUP3 ADD SWAP1 POP PUSH2 0xC13 PUSH1 0x0 DUP4 ADD DUP7 PUSH2 0xBEF JUMP JUMPDEST PUSH2 0xC20 PUSH1 0x20 DUP4 ADD DUP6 PUSH2 0xBEF JUMP JUMPDEST PUSH2 0xC2D PUSH1 0x40 DUP4 ADD DUP5 PUSH2 0xBB3 JUMP JUMPDEST SWAP5 SWAP4 POP POP POP POP JUMP JUMPDEST PUSH1 0x0 DUP2 ISZERO ISZERO SWAP1 POP SWAP2 SWAP1 POP JUMP JUMPDEST PUSH2 0xC4A DUP2 PUSH2 0xC35 JUMP JUMPDEST DUP2 EQ PUSH2 0xC55 JUMPI PUSH1 0x0 DUP1 REVERT JUMPDEST POP JUMP JUMPDEST PUSH1 0x0 DUP2 MLOAD SWAP1 POP PUSH2 0xC67 DUP2 PUSH2 0xC41 JUMP JUMPDEST SWAP3 SWAP2 POP POP JUMP JUMPDEST PUSH1 0x0 PUSH1 0x20 DUP3 DUP5 SUB SLT ISZERO PUSH2 0xC83 JUMPI PUSH2 0xC82 PUSH2 0xA75 JUMP JUMPDEST JUMPDEST PUSH1 0x0 PUSH2 0xC91 DUP5 DUP3 DUP6 ADD PUSH2 0xC58 JUMP JUMPDEST SWAP2 POP POP SWAP3 SWAP2 POP POP JUMP JUMPDEST PUSH1 0x0 DUP3 DUP3 MSTORE PUSH1 0x20 DUP3 ADD SWAP1 POP SWAP3 SWAP2 POP POP JUMP JUMPDEST PUSH32 0x55534454207472616E73666572206661696C6564000000000000000000000000 PUSH1 0x0 DUP3 ADD MSTORE POP JUMP JUMPDEST PUSH1 0x0 PUSH2 0xCE1 PUSH1 0x14 DUP4 PUSH2 0xC9A JUMP JUMPDEST SWAP2 POP PUSH2 0xCEC DUP3 PUSH2 0xCAB JUMP JUMPDEST PUSH1 0x20 DUP3 ADD SWAP1 POP SWAP2 SWAP1 POP JUMP JUMPDEST PUSH1 0x0 PUSH1 0x20 DUP3 ADD SWAP1 POP DUP2 DUP2 SUB PUSH1 0x0 DUP4 ADD MSTORE PUSH2 0xD10 DUP2 PUSH2 0xCD4 JUMP JUMPDEST SWAP1 POP SWAP2 SWAP1 POP JUMP JUMPDEST PUSH1 0x0 PUSH1 0x40 DUP3 ADD SWAP1 POP PUSH2 0xD2C PUSH1 0x0 DUP4 ADD DUP6 PUSH2 0xBEF JUMP JUMPDEST PUSH2 0xD39 PUSH1 0x20 DUP4 ADD DUP5 PUSH2 0xBB3 JUMP JUMPDEST SWAP4 SWAP3 POP POP POP JUMP JUMPDEST PUSH32 0x417070726F76616C206661696C65640000000000000000000000000000000000 PUSH1 0x0 DUP3 ADD MSTORE POP JUMP JUMPDEST PUSH1 0x0 PUSH2 0xD76 PUSH1 0xF DUP4 PUSH2 0xC9A JUMP JUMPDEST SWAP2 POP PUSH2 0xD81 DUP3 PUSH2 0xD40 JUMP JUMPDEST PUSH1 0x20 DUP3 ADD SWAP1 POP SWAP2 SWAP1 POP JUMP JUMPDEST PUSH1 0x0 PUSH1 0x20 DUP3 ADD SWAP1 POP DUP2 DUP2 SUB PUSH1 0x0 DUP4 ADD MSTORE PUSH2 0xDA5 DUP2 PUSH2 0xD69 JUMP JUMPDEST SWAP1 POP SWAP2 SWAP1 POP JUMP JUMPDEST PUSH1 0x0 DUP2 MLOAD SWAP1 POP PUSH2 0xDBB DUP2 PUSH2 0xA84 JUMP JUMPDEST SWAP3 SWAP2 POP POP JUMP JUMPDEST PUSH1 0x0 PUSH1 0x20 DUP3 DUP5 SUB SLT ISZERO PUSH2 0xDD7 JUMPI PUSH2 0xDD6 PUSH2 0xA75 JUMP JUMPDEST JUMPDEST PUSH1 0x0 PUSH2 0xDE5 DUP5 DUP3 DUP6 ADD PUSH2 0xDAC JUMP JUMPDEST SWAP2 POP POP SWAP3 SWAP2 POP POP JUMP JUMPDEST PUSH32 0x5265706179206661696C65640000000000000000000000000000000000000000 PUSH1 0x0 DUP3 ADD MSTORE POP JUMP JUMPDEST PUSH1 0x0 PUSH2 0xE24 PUSH1 0xC DUP4 PUSH2 0xC9A JUMP JUMPDEST SWAP2 POP PUSH2 0xE2F DUP3 PUSH2 0xDEE JUMP JUMPDEST PUSH1 0x20 DUP3 ADD SWAP1 POP SWAP2 SWAP1 POP JUMP JUMPDEST PUSH1 0x0 PUSH1 0x20 DUP3 ADD SWAP1 POP DUP2 DUP2 SUB PUSH1 0x0 DUP4 ADD MSTORE PUSH2 0xE53 DUP2 PUSH2 0xE17 JUMP JUMPDEST SWAP1 POP SWAP2 SWAP1 POP JUMP JUMPDEST PUSH32 0x4D696E74206661696C6564000000000000000000000000000000000000000000 PUSH1 0x0 DUP3 ADD MSTORE POP JUMP JUMPDEST PUSH1 0x0 PUSH2 0xE90 PUSH1 0xB DUP4 PUSH2 0xC9A JUMP JUMPDEST SWAP2 POP PUSH2 0xE9B DUP3 PUSH2 0xE5A JUMP JUMPDEST PUSH1 0x20 DUP3 ADD SWAP1 POP SWAP2 SWAP1 POP JUMP JUMPDEST PUSH1 0x0 PUSH1 0x20 DUP3 ADD SWAP1 POP DUP2 DUP2 SUB PUSH1 0x0 DUP4 ADD MSTORE PUSH2 0xEBF DUP2 PUSH2 0xE83 JUMP JUMPDEST SWAP1 POP SWAP2 SWAP1 POP JUMP JUMPDEST PUSH1 0x0 PUSH1 0x20 DUP3 ADD SWAP1 POP PUSH2 0xEDB PUSH1 0x0 DUP4 ADD DUP5 PUSH2 0xBEF JUMP JUMPDEST SWAP3 SWAP2 POP POP JUMP JUMPDEST PUSH32 0x426F72726F77206661696C656400000000000000000000000000000000000000 PUSH1 0x0 DUP3 ADD MSTORE POP JUMP JUMPDEST PUSH1 0x0 PUSH2 0xF17 PUSH1 0xD DUP4 PUSH2 0xC9A JUMP JUMPDEST SWAP2 POP PUSH2 0xF22 DUP3 PUSH2 0xEE1 JUMP JUMPDEST PUSH1 0x20 DUP3 ADD SWAP1 POP SWAP2 SWAP1 POP JUMP JUMPDEST PUSH1 0x0 PUSH1 0x20 DUP3 ADD SWAP1 POP DUP2 DUP2 SUB PUSH1 0x0 DUP4 ADD MSTORE PUSH2 0xF46 DUP2 PUSH2 0xF0A JUMP JUMPDEST SWAP1 POP SWAP2 SWAP1 POP JUMP JUMPDEST PUSH32 0x52656465656D206661696C656400000000000000000000000000000000000000 PUSH1 0x0 DUP3 ADD MSTORE POP JUMP JUMPDEST PUSH1 0x0 PUSH2 0xF83 PUSH1 0xD DUP4 PUSH2 0xC9A JUMP JUMPDEST SWAP2 POP PUSH2 0xF8E DUP3 PUSH2 0xF4D JUMP JUMPDEST PUSH1 0x20 DUP3 ADD SWAP1 POP SWAP2 SWAP1 POP JUMP JUMPDEST PUSH1 0x0 PUSH1 0x20 DUP3 ADD SWAP1 POP DUP2 DUP2 SUB PUSH1 0x0 DUP4 ADD MSTORE PUSH2 0xFB2 DUP2 PUSH2 0xF76 JUMP JUMPDEST SWAP1 POP SWAP2 SWAP1 POP JUMP INVALID LOG2 PUSH5 0x6970667358 0x22 SLT KECCAK256 PUSH8 0x9E725DD788A1A345 0x5F PUSH16 0xDB5EAD80ADE7C896E23EEAE42A73F317 0x25 0x2B 0xEB 0xEA 0xCD PUSH5 0x736F6C6343 STOP ADDMOD SLT STOP CALLER "
				},
				"gasEstimates": {
					"creation": {
						"codeDepositCost": "815800",
						"executionCost": "infinite",
						"totalCost": "infinite"
					},
					"external": {
						"borrow(uint256)": "infinite",
						"cToken()": "infinite",
						"getCTokenBalance()": "infinite",
						"redeem(uint256)": "infinite",
						"repayBorrow(uint256)": "infinite",
						"supply(uint256)": "infinite",
						"usdt()": "infinite"
					}
				},
				"methodIdentifiers": {
					"borrow(uint256)": "c5ebeaec",
					"cToken()": "69e527da",
					"getCTokenBalance()": "8eae8854",
					"redeem(uint256)": "db006a75",
					"repayBorrow(uint256)": "0e752702",
					"supply(uint256)": "35403023",
					"usdt()": "2f48ab7d"
				}
			},
			"storageLayout": {
				"storage": [
					{
						"astId": 119,
						"contract": "compound.sol:CompoundUSDT",
						"label": "cToken",
						"offset": 0,
						"slot": "0",
						"type": "t_contract(CTokenInterface)116"
					},
					{
						"astId": 122,
						"contract": "compound.sol:CompoundUSDT",
						"label": "usdt",
						"offset": 0,
						"slot": "1",
						"type": "t_contract(IERC20)77"
					}
				],
				"types": {
					"t_contract(CTokenInterface)116": {
						"encoding": "inplace",
						"label": "contract CTokenInterface",
						"numberOfBytes": "20"
					},
					"t_contract(IERC20)77": {
						"encoding": "inplace",
						"label": "contract IERC20",
						"numberOfBytes": "20"
					}
				}
			},
			"userdoc": {
				"kind": "user",
				"methods": {},
				"version": 1
			}
		}
	}
}