{
	"Staking.sol": {
		"MyToken": {
			"abi": [
				{
					"inputs": [
						{
							"internalType": "address",
							"name": "_nft",
							"type": "address"
						}
					],
					"stateMutability": "nonpayable",
					"type": "constructor"
				},
				{
					"anonymous": false,
					"inputs": [
						{
							"indexed": true,
							"internalType": "address",
							"name": "owner",
							"type": "address"
						},
						{
							"indexed": true,
							"internalType": "address",
							"name": "spender",
							"type": "address"
						},
						{
							"indexed": false,
							"internalType": "uint256",
							"name": "value",
							"type": "uint256"
						}
					],
					"name": "Approval",
					"type": "event"
				},
				{
					"anonymous": false,
					"inputs": [
						{
							"indexed": true,
							"internalType": "address",
							"name": "previousOwner",
							"type": "address"
						},
						{
							"indexed": true,
							"internalType": "address",
							"name": "newOwner",
							"type": "address"
						}
					],
					"name": "OwnershipTransferred",
					"type": "event"
				},
				{
					"anonymous": false,
					"inputs": [
						{
							"indexed": true,
							"internalType": "address",
							"name": "from",
							"type": "address"
						},
						{
							"indexed": true,
							"internalType": "address",
							"name": "to",
							"type": "address"
						},
						{
							"indexed": false,
							"internalType": "uint256",
							"name": "value",
							"type": "uint256"
						}
					],
					"name": "Transfer",
					"type": "event"
				},
				{
					"inputs": [],
					"name": "EMISSION_RATE",
					"outputs": [
						{
							"internalType": "uint256",
							"name": "",
							"type": "uint256"
						}
					],
					"stateMutability": "view",
					"type": "function"
				},
				{
					"inputs": [
						{
							"internalType": "address",
							"name": "owner",
							"type": "address"
						},
						{
							"internalType": "address",
							"name": "spender",
							"type": "address"
						}
					],
					"name": "allowance",
					"outputs": [
						{
							"internalType": "uint256",
							"name": "",
							"type": "uint256"
						}
					],
					"stateMutability": "view",
					"type": "function"
				},
				{
					"inputs": [
						{
							"internalType": "address",
							"name": "spender",
							"type": "address"
						},
						{
							"internalType": "uint256",
							"name": "amount",
							"type": "uint256"
						}
					],
					"name": "approve",
					"outputs": [
						{
							"internalType": "bool",
							"name": "",
							"type": "bool"
						}
					],
					"stateMutability": "nonpayable",
					"type": "function"
				},
				{
					"inputs": [
						{
							"internalType": "address",
							"name": "account",
							"type": "address"
						}
					],
					"name": "balanceOf",
					"outputs": [
						{
							"internalType": "uint256",
							"name": "",
							"type": "uint256"
						}
					],
					"stateMutability": "view",
					"type": "function"
				},
				{
					"inputs": [
						{
							"internalType": "uint256",
							"name": "tokenId",
							"type": "uint256"
						}
					],
					"name": "calculateTokens",
					"outputs": [
						{
							"internalType": "uint256",
							"name": "",
							"type": "uint256"
						}
					],
					"stateMutability": "view",
					"type": "function"
				},
				{
					"inputs": [],
					"name": "decimals",
					"outputs": [
						{
							"internalType": "uint8",
							"name": "",
							"type": "uint8"
						}
					],
					"stateMutability": "view",
					"type": "function"
				},
				{
					"inputs": [
						{
							"internalType": "address",
							"name": "spender",
							"type": "address"
						},
						{
							"internalType": "uint256",
							"name": "subtractedValue",
							"type": "uint256"
						}
					],
					"name": "decreaseAllowance",
					"outputs": [
						{
							"internalType": "bool",
							"name": "",
							"type": "bool"
						}
					],
					"stateMutability": "nonpayable",
					"type": "function"
				},
				{
					"inputs": [
						{
							"internalType": "address",
							"name": "spender",
							"type": "address"
						},
						{
							"internalType": "uint256",
							"name": "addedValue",
							"type": "uint256"
						}
					],
					"name": "increaseAllowance",
					"outputs": [
						{
							"internalType": "bool",
							"name": "",
							"type": "bool"
						}
					],
					"stateMutability": "nonpayable",
					"type": "function"
				},
				{
					"inputs": [],
					"name": "name",
					"outputs": [
						{
							"internalType": "string",
							"name": "",
							"type": "string"
						}
					],
					"stateMutability": "view",
					"type": "function"
				},
				{
					"inputs": [],
					"name": "nft",
					"outputs": [
						{
							"internalType": "contract IERC721",
							"name": "",
							"type": "address"
						}
					],
					"stateMutability": "view",
					"type": "function"
				},
				{
					"inputs": [
						{
							"internalType": "address",
							"name": "",
							"type": "address"
						},
						{
							"internalType": "address",
							"name": "",
							"type": "address"
						},
						{
							"internalType": "uint256",
							"name": "",
							"type": "uint256"
						},
						{
							"internalType": "bytes",
							"name": "",
							"type": "bytes"
						}
					],
					"name": "onERC721Received",
					"outputs": [
						{
							"internalType": "bytes4",
							"name": "",
							"type": "bytes4"
						}
					],
					"stateMutability": "nonpayable",
					"type": "function"
				},
				{
					"inputs": [],
					"name": "owner",
					"outputs": [
						{
							"internalType": "address",
							"name": "",
							"type": "address"
						}
					],
					"stateMutability": "view",
					"type": "function"
				},
				{
					"inputs": [],
					"name": "renounceOwnership",
					"outputs": [],
					"stateMutability": "nonpayable",
					"type": "function"
				},
				{
					"inputs": [
						{
							"internalType": "uint256",
							"name": "tokenId",
							"type": "uint256"
						}
					],
					"name": "stake",
					"outputs": [],
					"stateMutability": "nonpayable",
					"type": "function"
				},
				{
					"inputs": [],
					"name": "symbol",
					"outputs": [
						{
							"internalType": "string",
							"name": "",
							"type": "string"
						}
					],
					"stateMutability": "view",
					"type": "function"
				},
				{
					"inputs": [
						{
							"internalType": "uint256",
							"name": "",
							"type": "uint256"
						}
					],
					"name": "tokenOwnerOf",
					"outputs": [
						{
							"internalType": "address",
							"name": "",
							"type": "address"
						}
					],
					"stateMutability": "view",
					"type": "function"
				},
				{
					"inputs": [
						{
							"internalType": "uint256",
							"name": "",
							"type": "uint256"
						}
					],
					"name": "tokenStakedAt",
					"outputs": [
						{
							"internalType": "uint256",
							"name": "",
							"type": "uint256"
						}
					],
					"stateMutability": "view",
					"type": "function"
				},
				{
					"inputs": [],
					"name": "totalSupply",
					"outputs": [
						{
							"internalType": "uint256",
							"name": "",
							"type": "uint256"
						}
					],
					"stateMutability": "view",
					"type": "function"
				},
				{
					"inputs": [
						{
							"internalType": "address",
							"name": "to",
							"type": "address"
						},
						{
							"internalType": "uint256",
							"name": "amount",
							"type": "uint256"
						}
					],
					"name": "transfer",
					"outputs": [
						{
							"internalType": "bool",
							"name": "",
							"type": "bool"
						}
					],
					"stateMutability": "nonpayable",
					"type": "function"
				},
				{
					"inputs": [
						{
							"internalType": "address",
							"name": "from",
							"type": "address"
						},
						{
							"internalType": "address",
							"name": "to",
							"type": "address"
						},
						{
							"internalType": "uint256",
							"name": "amount",
							"type": "uint256"
						}
					],
					"name": "transferFrom",
					"outputs": [
						{
							"internalType": "bool",
							"name": "",
							"type": "bool"
						}
					],
					"stateMutability": "nonpayable",
					"type": "function"
				},
				{
					"inputs": [
						{
							"internalType": "address",
							"name": "newOwner",
							"type": "address"
						}
					],
					"name": "transferOwnership",
					"outputs": [],
					"stateMutability": "nonpayable",
					"type": "function"
				},
				{
					"inputs": [
						{
							"internalType": "uint256",
							"name": "tokenId",
							"type": "uint256"
						}
					],
					"name": "unstake",
					"outputs": [],
					"stateMutability": "nonpayable",
					"type": "function"
				}
			],
			"devdoc": {
				"events": {
					"Approval(address,address,uint256)": {
						"details": "Emitted when the allowance of a `spender` for an `owner` is set by a call to {approve}. `value` is the new allowance."
					},
					"Transfer(address,address,uint256)": {
						"details": "Emitted when `value` tokens are moved from one account (`from`) to another (`to`). Note that `value` may be zero."
					}
				},
				"kind": "dev",
				"methods": {
					"allowance(address,address)": {
						"details": "See {IERC20-allowance}."
					},
					"approve(address,uint256)": {
						"details": "See {IERC20-approve}. NOTE: If `amount` is the maximum `uint256`, the allowance is not updated on `transferFrom`. This is semantically equivalent to an infinite approval. Requirements: - `spender` cannot be the zero address."
					},
					"balanceOf(address)": {
						"details": "See {IERC20-balanceOf}."
					},
					"decimals()": {
						"details": "Returns the number of decimals used to get its user representation. For example, if `decimals` equals `2`, a balance of `505` tokens should be displayed to a user as `5.05` (`505 / 10 ** 2`). Tokens usually opt for a value of 18, imitating the relationship between Ether and Wei. This is the default value returned by this function, unless it's overridden. NOTE: This information is only used for _display_ purposes: it in no way affects any of the arithmetic of the contract, including {IERC20-balanceOf} and {IERC20-transfer}."
					},
					"decreaseAllowance(address,uint256)": {
						"details": "Atomically decreases the allowance granted to `spender` by the caller. This is an alternative to {approve} that can be used as a mitigation for problems described in {IERC20-approve}. Emits an {Approval} event indicating the updated allowance. Requirements: - `spender` cannot be the zero address. - `spender` must have allowance for the caller of at least `subtractedValue`."
					},
					"increaseAllowance(address,uint256)": {
						"details": "Atomically increases the allowance granted to `spender` by the caller. This is an alternative to {approve} that can be used as a mitigation for problems described in {IERC20-approve}. Emits an {Approval} event indicating the updated allowance. Requirements: - `spender` cannot be the zero address."
					},
					"name()": {
						"details": "Returns the name of the token."
					},
					"onERC721Received(address,address,uint256,bytes)": {
						"details": "See {IERC721Receiver-onERC721Received}. Always returns `IERC721Receiver.onERC721Received.selector`."
					},
					"owner()": {
						"details": "Returns the address of the current owner."
					},
					"renounceOwnership()": {
						"details": "Leaves the contract without owner. It will not be possible to call `onlyOwner` functions. Can only be called by the current owner. NOTE: Renouncing ownership will leave the contract without an owner, thereby disabling any functionality that is only available to the owner."
					},
					"symbol()": {
						"details": "Returns the symbol of the token, usually a shorter version of the name."
					},
					"totalSupply()": {
						"details": "See {IERC20-totalSupply}."
					},
					"transfer(address,uint256)": {
						"details": "See {IERC20-transfer}. Requirements: - `to` cannot be the zero address. - the caller must have a balance of at least `amount`."
					},
					"transferFrom(address,address,uint256)": {
						"details": "See {IERC20-transferFrom}. Emits an {Approval} event indicating the updated allowance. This is not required by the EIP. See the note at the beginning of {ERC20}. NOTE: Does not update the allowance if the current allowance is the maximum `uint256`. Requirements: - `from` and `to` cannot be the zero address. - `from` must have a balance of at least `amount`. - the caller must have allowance for ``from``'s tokens of at least `amount`."
					},
					"transferOwnership(address)": {
						"details": "Transfers ownership of the contract to a new account (`newOwner`). Can only be called by the current owner."
					}
				},
				"version": 1
			},
			"evm": {
				"assembly": "    /* \"Staking.sol\":296:1412  contract MyToken is ERC20, ERC721Holder, Ownable {... */\n  mstore(0x40, 0x80)\n    /* \"Staking.sol\":539:545  1 days */\n  0x015180\n    /* \"Staking.sol\":525:535  decimals() */\n  tag_1\n    /* \"Staking.sol\":525:533  decimals */\n  shl(0x20, tag_2)\n    /* \"Staking.sol\":525:535  decimals() */\n  0x20\n  shr\n  jump\t// in\ntag_1:\n    /* \"Staking.sol\":519:521  10 */\n  0x0a\n    /* \"Staking.sol\":519:535  10 ** decimals() */\n  tag_3\n  swap2\n  swap1\n  tag_4\n  jump\t// in\ntag_3:\n    /* \"Staking.sol\":514:516  50 */\n  0x32\n    /* \"Staking.sol\":514:535  50 * 10 ** decimals() */\n  tag_5\n  swap2\n  swap1\n  tag_6\n  jump\t// in\ntag_5:\n    /* \"Staking.sol\":513:545  (50 * 10 ** decimals()) / 1 days */\n  tag_7\n  swap2\n  swap1\n  tag_8\n  jump\t// in\ntag_7:\n    /* \"Staking.sol\":482:545  uint256 public EMISSION_RATE = (50 * 10 ** decimals()) / 1 days */\n  0x09\n  sstore\n    /* \"Staking.sol\":552:638  constructor(address _nft) ERC20(\"MyToken\", \"MTK\") {... */\n  callvalue\n  dup1\n  iszero\n  tag_9\n  jumpi\n  0x00\n  dup1\n  revert\ntag_9:\n  pop\n  mload(0x40)\n  sub(codesize, bytecodeSize)\n  dup1\n  bytecodeSize\n  dup4\n  codecopy\n  dup2\n  dup2\n  add\n  0x40\n  mstore\n  dup2\n  add\n  swap1\n  tag_10\n  swap2\n  swap1\n  tag_11\n  jump\t// in\ntag_10:\n    /* \"@openzeppelin/contracts/token/ERC20/ERC20.sol\":1980:2093  constructor(string memory name_, string memory symbol_) {... */\n  mload(0x40)\n  dup1\n  0x40\n  add\n  0x40\n  mstore\n  dup1\n  0x07\n  dup2\n  mstore\n  0x20\n  add\n  0x4d79546f6b656e00000000000000000000000000000000000000000000000000\n  dup2\n  mstore\n  pop\n  mload(0x40)\n  dup1\n  0x40\n  add\n  0x40\n  mstore\n  dup1\n  0x03\n  dup2\n  mstore\n  0x20\n  add\n  0x4d544b0000000000000000000000000000000000000000000000000000000000\n  dup2\n  mstore\n  pop\n    /* \"@openzeppelin/contracts/token/ERC20/ERC20.sol\":2054:2059  name_ */\n  dup2\n    /* \"@openzeppelin/contracts/token/ERC20/ERC20.sol\":2046:2051  _name */\n  0x03\n    /* \"@openzeppelin/contracts/token/ERC20/ERC20.sol\":2046:2059  _name = name_ */\n  swap1\n  dup2\n  tag_16\n  swap2\n  swap1\n  tag_17\n  jump\t// in\ntag_16:\n  pop\n    /* \"@openzeppelin/contracts/token/ERC20/ERC20.sol\":2079:2086  symbol_ */\n  dup1\n    /* \"@openzeppelin/contracts/token/ERC20/ERC20.sol\":2069:2076  _symbol */\n  0x04\n    /* \"@openzeppelin/contracts/token/ERC20/ERC20.sol\":2069:2086  _symbol = symbol_ */\n  swap1\n  dup2\n  tag_18\n  swap2\n  swap1\n  tag_17\n  jump\t// in\ntag_18:\n  pop\n    /* \"@openzeppelin/contracts/token/ERC20/ERC20.sol\":1980:2093  constructor(string memory name_, string memory symbol_) {... */\n  pop\n  pop\n    /* \"@openzeppelin/contracts/access/Ownable.sol\":936:968  _transferOwnership(_msgSender()) */\n  tag_20\n    /* \"@openzeppelin/contracts/access/Ownable.sol\":955:967  _msgSender() */\n  tag_21\n    /* \"@openzeppelin/contracts/access/Ownable.sol\":955:965  _msgSender */\n  shl(0x20, tag_22)\n    /* \"@openzeppelin/contracts/access/Ownable.sol\":955:967  _msgSender() */\n  0x20\n  shr\n  jump\t// in\ntag_21:\n    /* \"@openzeppelin/contracts/access/Ownable.sol\":936:954  _transferOwnership */\n  shl(0x20, tag_23)\n    /* \"@openzeppelin/contracts/access/Ownable.sol\":936:968  _transferOwnership(_msgSender()) */\n  0x20\n  shr\n  jump\t// in\ntag_20:\n    /* \"Staking.sol\":626:630  _nft */\n  dup1\n    /* \"Staking.sol\":612:615  nft */\n  0x06\n  0x00\n    /* \"Staking.sol\":612:631  nft = IERC721(_nft) */\n  0x0100\n  exp\n  dup2\n  sload\n  dup2\n  0xffffffffffffffffffffffffffffffffffffffff\n  mul\n  not\n  and\n  swap1\n  dup4\n  0xffffffffffffffffffffffffffffffffffffffff\n  and\n  mul\n  or\n  swap1\n  sstore\n  pop\n    /* \"Staking.sol\":552:638  constructor(address _nft) ERC20(\"MyToken\", \"MTK\") {... */\n  pop\n    /* \"Staking.sol\":296:1412  contract MyToken is ERC20, ERC721Holder, Ownable {... */\n  jump(tag_25)\n    /* \"@openzeppelin/contracts/token/ERC20/ERC20.sol\":3104:3195  function decimals() public view virtual override returns (uint8) {... */\ntag_2:\n    /* \"@openzeppelin/contracts/token/ERC20/ERC20.sol\":3162:3167  uint8 */\n  0x00\n    /* \"@openzeppelin/contracts/token/ERC20/ERC20.sol\":3186:3188  18 */\n  0x12\n    /* \"@openzeppelin/contracts/token/ERC20/ERC20.sol\":3179:3188  return 18 */\n  swap1\n  pop\n    /* \"@openzeppelin/contracts/token/ERC20/ERC20.sol\":3104:3195  function decimals() public view virtual override returns (uint8) {... */\n  swap1\n  jump\t// out\n    /* \"@openzeppelin/contracts/utils/Context.sol\":640:736  function _msgSender() internal view virtual returns (address) {... */\ntag_22:\n    /* \"@openzeppelin/contracts/utils/Context.sol\":693:700  address */\n  0x00\n    /* \"@openzeppelin/contracts/utils/Context.sol\":719:729  msg.sender */\n  caller\n    /* \"@openzeppelin/contracts/utils/Context.sol\":712:729  return msg.sender */\n  swap1\n  pop\n    /* \"@openzeppelin/contracts/utils/Context.sol\":640:736  function _msgSender() internal view virtual returns (address) {... */\n  swap1\n  jump\t// out\n    /* \"@openzeppelin/contracts/access/Ownable.sol\":2426:2613  function _transferOwnership(address newOwner) internal virtual {... */\ntag_23:\n    /* \"@openzeppelin/contracts/access/Ownable.sol\":2499:2515  address oldOwner */\n  0x00\n    /* \"@openzeppelin/contracts/access/Ownable.sol\":2518:2524  _owner */\n  0x05\n  0x00\n  swap1\n  sload\n  swap1\n  0x0100\n  exp\n  swap1\n  div\n  0xffffffffffffffffffffffffffffffffffffffff\n  and\n    /* \"@openzeppelin/contracts/access/Ownable.sol\":2499:2524  address oldOwner = _owner */\n  swap1\n  pop\n    /* \"@openzeppelin/contracts/access/Ownable.sol\":2543:2551  newOwner */\n  dup2\n    /* \"@openzeppelin/contracts/access/Ownable.sol\":2534:2540  _owner */\n  0x05\n  0x00\n    /* \"@openzeppelin/contracts/access/Ownable.sol\":2534:2551  _owner = newOwner */\n  0x0100\n  exp\n  dup2\n  sload\n  dup2\n  0xffffffffffffffffffffffffffffffffffffffff\n  mul\n  not\n  and\n  swap1\n  dup4\n  0xffffffffffffffffffffffffffffffffffffffff\n  and\n  mul\n  or\n  swap1\n  sstore\n  pop\n    /* \"@openzeppelin/contracts/access/Ownable.sol\":2597:2605  newOwner */\n  dup2\n    /* \"@openzeppelin/contracts/access/Ownable.sol\":2566:2606  OwnershipTransferred(oldOwner, newOwner) */\n  0xffffffffffffffffffffffffffffffffffffffff\n  and\n    /* \"@openzeppelin/contracts/access/Ownable.sol\":2587:2595  oldOwner */\n  dup2\n    /* \"@openzeppelin/contracts/access/Ownable.sol\":2566:2606  OwnershipTransferred(oldOwner, newOwner) */\n  0xffffffffffffffffffffffffffffffffffffffff\n  and\n  0x8be0079c531659141344cd1fd0a4f28419497f9722a3daafe3b4186f6b6457e0\n  mload(0x40)\n  mload(0x40)\n  dup1\n  swap2\n  sub\n  swap1\n  log3\n    /* \"@openzeppelin/contracts/access/Ownable.sol\":2489:2613  {... */\n  pop\n    /* \"@openzeppelin/contracts/access/Ownable.sol\":2426:2613  function _transferOwnership(address newOwner) internal virtual {... */\n  pop\n  jump\t// out\n    /* \"#utility.yul\":7:187   */\ntag_29:\n    /* \"#utility.yul\":55:132   */\n  0x4e487b7100000000000000000000000000000000000000000000000000000000\n    /* \"#utility.yul\":52:53   */\n  0x00\n    /* \"#utility.yul\":45:133   */\n  mstore\n    /* \"#utility.yul\":152:156   */\n  0x11\n    /* \"#utility.yul\":149:150   */\n  0x04\n    /* \"#utility.yul\":142:157   */\n  mstore\n    /* \"#utility.yul\":176:180   */\n  0x24\n    /* \"#utility.yul\":173:174   */\n  0x00\n    /* \"#utility.yul\":166:181   */\n  revert\n    /* \"#utility.yul\":193:295   */\ntag_30:\n    /* \"#utility.yul\":235:243   */\n  0x00\n    /* \"#utility.yul\":282:287   */\n  dup2\n    /* \"#utility.yul\":279:280   */\n  0x01\n    /* \"#utility.yul\":275:288   */\n  shr\n    /* \"#utility.yul\":254:288   */\n  swap1\n  pop\n    /* \"#utility.yul\":193:295   */\n  swap2\n  swap1\n  pop\n  jump\t// out\n    /* \"#utility.yul\":301:1149   */\ntag_31:\n    /* \"#utility.yul\":362:367   */\n  0x00\n    /* \"#utility.yul\":369:373   */\n  dup1\n    /* \"#utility.yul\":393:399   */\n  dup3\n    /* \"#utility.yul\":384:399   */\n  swap2\n  pop\n    /* \"#utility.yul\":417:422   */\n  dup4\n    /* \"#utility.yul\":408:422   */\n  swap1\n  pop\n    /* \"#utility.yul\":431:1143   */\ntag_66:\n    /* \"#utility.yul\":452:453   */\n  0x01\n    /* \"#utility.yul\":442:450   */\n  dup6\n    /* \"#utility.yul\":439:454   */\n  gt\n    /* \"#utility.yul\":431:1143   */\n  iszero\n  tag_68\n  jumpi\n    /* \"#utility.yul\":547:551   */\n  dup1\n    /* \"#utility.yul\":542:545   */\n  dup7\n    /* \"#utility.yul\":538:552   */\n  div\n    /* \"#utility.yul\":532:536   */\n  dup2\n    /* \"#utility.yul\":529:553   */\n  gt\n    /* \"#utility.yul\":526:576   */\n  iszero\n  tag_69\n  jumpi\n    /* \"#utility.yul\":556:574   */\n  tag_70\n  tag_29\n  jump\t// in\ntag_70:\n    /* \"#utility.yul\":526:576   */\ntag_69:\n    /* \"#utility.yul\":606:607   */\n  0x01\n    /* \"#utility.yul\":596:604   */\n  dup6\n    /* \"#utility.yul\":592:608   */\n  and\n    /* \"#utility.yul\":589:1040   */\n  iszero\n  tag_71\n  jumpi\n    /* \"#utility.yul\":1021:1025   */\n  dup1\n    /* \"#utility.yul\":1014:1019   */\n  dup3\n    /* \"#utility.yul\":1010:1026   */\n  mul\n    /* \"#utility.yul\":1001:1026   */\n  swap2\n  pop\n    /* \"#utility.yul\":589:1040   */\ntag_71:\n    /* \"#utility.yul\":1071:1075   */\n  dup1\n    /* \"#utility.yul\":1065:1069   */\n  dup2\n    /* \"#utility.yul\":1061:1076   */\n  mul\n    /* \"#utility.yul\":1053:1076   */\n  swap1\n  pop\n    /* \"#utility.yul\":1101:1133   */\n  tag_72\n    /* \"#utility.yul\":1124:1132   */\n  dup6\n    /* \"#utility.yul\":1101:1133   */\n  tag_30\n  jump\t// in\ntag_72:\n    /* \"#utility.yul\":1089:1133   */\n  swap5\n  pop\n    /* \"#utility.yul\":431:1143   */\n  jump(tag_66)\ntag_68:\n    /* \"#utility.yul\":301:1149   */\n  swap5\n  pop\n  swap5\n  swap3\n  pop\n  pop\n  pop\n  jump\t// out\n    /* \"#utility.yul\":1155:2228   */\ntag_32:\n    /* \"#utility.yul\":1209:1214   */\n  0x00\n    /* \"#utility.yul\":1400:1408   */\n  dup3\n    /* \"#utility.yul\":1390:1430   */\n  tag_74\n  jumpi\n    /* \"#utility.yul\":1421:1422   */\n  0x01\n    /* \"#utility.yul\":1412:1422   */\n  swap1\n  pop\n    /* \"#utility.yul\":1423:1428   */\n  jump(tag_73)\n    /* \"#utility.yul\":1390:1430   */\ntag_74:\n    /* \"#utility.yul\":1449:1453   */\n  dup2\n    /* \"#utility.yul\":1439:1475   */\n  tag_75\n  jumpi\n    /* \"#utility.yul\":1466:1467   */\n  0x00\n    /* \"#utility.yul\":1457:1467   */\n  swap1\n  pop\n    /* \"#utility.yul\":1468:1473   */\n  jump(tag_73)\n    /* \"#utility.yul\":1439:1475   */\ntag_75:\n    /* \"#utility.yul\":1535:1539   */\n  dup2\n    /* \"#utility.yul\":1583:1584   */\n  0x01\n    /* \"#utility.yul\":1578:1605   */\n  dup2\n  eq\n  tag_77\n  jumpi\n    /* \"#utility.yul\":1619:1620   */\n  0x02\n    /* \"#utility.yul\":1614:1805   */\n  dup2\n  eq\n  tag_78\n  jumpi\n    /* \"#utility.yul\":1528:1805   */\n  jump(tag_76)\n    /* \"#utility.yul\":1578:1605   */\ntag_77:\n    /* \"#utility.yul\":1596:1597   */\n  0x01\n    /* \"#utility.yul\":1587:1597   */\n  swap2\n  pop\n    /* \"#utility.yul\":1598:1603   */\n  pop\n  jump(tag_73)\n    /* \"#utility.yul\":1614:1805   */\ntag_78:\n    /* \"#utility.yul\":1659:1662   */\n  0xff\n    /* \"#utility.yul\":1649:1657   */\n  dup5\n    /* \"#utility.yul\":1646:1663   */\n  gt\n    /* \"#utility.yul\":1643:1686   */\n  iszero\n  tag_79\n  jumpi\n    /* \"#utility.yul\":1666:1684   */\n  tag_80\n  tag_29\n  jump\t// in\ntag_80:\n    /* \"#utility.yul\":1643:1686   */\ntag_79:\n    /* \"#utility.yul\":1715:1723   */\n  dup4\n    /* \"#utility.yul\":1712:1713   */\n  0x02\n    /* \"#utility.yul\":1708:1724   */\n  exp\n    /* \"#utility.yul\":1699:1724   */\n  swap2\n  pop\n    /* \"#utility.yul\":1750:1753   */\n  dup5\n    /* \"#utility.yul\":1743:1748   */\n  dup3\n    /* \"#utility.yul\":1740:1754   */\n  gt\n    /* \"#utility.yul\":1737:1777   */\n  iszero\n  tag_81\n  jumpi\n    /* \"#utility.yul\":1757:1775   */\n  tag_82\n  tag_29\n  jump\t// in\ntag_82:\n    /* \"#utility.yul\":1737:1777   */\ntag_81:\n    /* \"#utility.yul\":1790:1795   */\n  pop\n  jump(tag_73)\n    /* \"#utility.yul\":1528:1805   */\ntag_76:\n  pop\n    /* \"#utility.yul\":1914:1916   */\n  0x20\n    /* \"#utility.yul\":1904:1912   */\n  dup4\n    /* \"#utility.yul\":1901:1917   */\n  lt\n    /* \"#utility.yul\":1895:1898   */\n  0x0133\n    /* \"#utility.yul\":1889:1893   */\n  dup4\n    /* \"#utility.yul\":1886:1899   */\n  lt\n    /* \"#utility.yul\":1882:1918   */\n  and\n    /* \"#utility.yul\":1864:1866   */\n  0x4e\n    /* \"#utility.yul\":1854:1862   */\n  dup5\n    /* \"#utility.yul\":1851:1867   */\n  lt\n    /* \"#utility.yul\":1846:1848   */\n  0x0b\n    /* \"#utility.yul\":1840:1844   */\n  dup5\n    /* \"#utility.yul\":1837:1849   */\n  lt\n    /* \"#utility.yul\":1833:1868   */\n  and\n    /* \"#utility.yul\":1817:1928   */\n  or\n    /* \"#utility.yul\":1814:2060   */\n  iszero\n  tag_83\n  jumpi\n    /* \"#utility.yul\":1970:1978   */\n  dup3\n    /* \"#utility.yul\":1964:1968   */\n  dup3\n    /* \"#utility.yul\":1960:1979   */\n  exp\n    /* \"#utility.yul\":1951:1979   */\n  swap1\n  pop\n    /* \"#utility.yul\":2005:2008   */\n  dup4\n    /* \"#utility.yul\":1998:2003   */\n  dup2\n    /* \"#utility.yul\":1995:2009   */\n  gt\n    /* \"#utility.yul\":1992:2032   */\n  iszero\n  tag_84\n  jumpi\n    /* \"#utility.yul\":2012:2030   */\n  tag_85\n  tag_29\n  jump\t// in\ntag_85:\n    /* \"#utility.yul\":1992:2032   */\ntag_84:\n    /* \"#utility.yul\":2045:2050   */\n  jump(tag_73)\n    /* \"#utility.yul\":1814:2060   */\ntag_83:\n    /* \"#utility.yul\":2085:2127   */\n  tag_86\n    /* \"#utility.yul\":2123:2126   */\n  dup5\n    /* \"#utility.yul\":2113:2121   */\n  dup5\n    /* \"#utility.yul\":2107:2111   */\n  dup5\n    /* \"#utility.yul\":2104:2105   */\n  0x01\n    /* \"#utility.yul\":2085:2127   */\n  tag_31\n  jump\t// in\ntag_86:\n    /* \"#utility.yul\":2070:2127   */\n  swap3\n  pop\n  swap1\n  pop\n    /* \"#utility.yul\":2159:2163   */\n  dup2\n    /* \"#utility.yul\":2154:2157   */\n  dup5\n    /* \"#utility.yul\":2150:2164   */\n  div\n    /* \"#utility.yul\":2143:2148   */\n  dup2\n    /* \"#utility.yul\":2140:2165   */\n  gt\n    /* \"#utility.yul\":2137:2188   */\n  iszero\n  tag_87\n  jumpi\n    /* \"#utility.yul\":2168:2186   */\n  tag_88\n  tag_29\n  jump\t// in\ntag_88:\n    /* \"#utility.yul\":2137:2188   */\ntag_87:\n    /* \"#utility.yul\":2217:2221   */\n  dup2\n    /* \"#utility.yul\":2210:2215   */\n  dup2\n    /* \"#utility.yul\":2206:2222   */\n  mul\n    /* \"#utility.yul\":2197:2222   */\n  swap1\n  pop\n    /* \"#utility.yul\":1155:2228   */\ntag_73:\n  swap4\n  swap3\n  pop\n  pop\n  pop\n  jump\t// out\n    /* \"#utility.yul\":2234:2311   */\ntag_33:\n    /* \"#utility.yul\":2271:2278   */\n  0x00\n    /* \"#utility.yul\":2300:2305   */\n  dup2\n    /* \"#utility.yul\":2289:2305   */\n  swap1\n  pop\n    /* \"#utility.yul\":2234:2311   */\n  swap2\n  swap1\n  pop\n  jump\t// out\n    /* \"#utility.yul\":2317:2403   */\ntag_34:\n    /* \"#utility.yul\":2352:2359   */\n  0x00\n    /* \"#utility.yul\":2392:2396   */\n  0xff\n    /* \"#utility.yul\":2385:2390   */\n  dup3\n    /* \"#utility.yul\":2381:2397   */\n  and\n    /* \"#utility.yul\":2370:2397   */\n  swap1\n  pop\n    /* \"#utility.yul\":2317:2403   */\n  swap2\n  swap1\n  pop\n  jump\t// out\n    /* \"#utility.yul\":2409:2690   */\ntag_4:\n    /* \"#utility.yul\":2467:2472   */\n  0x00\n    /* \"#utility.yul\":2491:2514   */\n  tag_92\n    /* \"#utility.yul\":2509:2513   */\n  dup3\n    /* \"#utility.yul\":2491:2514   */\n  tag_33\n  jump\t// in\ntag_92:\n    /* \"#utility.yul\":2483:2514   */\n  swap2\n  pop\n    /* \"#utility.yul\":2535:2560   */\n  tag_93\n    /* \"#utility.yul\":2551:2559   */\n  dup4\n    /* \"#utility.yul\":2535:2560   */\n  tag_34\n  jump\t// in\ntag_93:\n    /* \"#utility.yul\":2523:2560   */\n  swap3\n  pop\n    /* \"#utility.yul\":2579:2683   */\n  tag_94\n    /* \"#utility.yul\":2616:2682   */\n  0xffffffffffffffffffffffffffffffffffffffffffffffffffffffffffffffff\n    /* \"#utility.yul\":2606:2614   */\n  dup5\n    /* \"#utility.yul\":2600:2604   */\n  dup5\n    /* \"#utility.yul\":2579:2683   */\n  tag_32\n  jump\t// in\ntag_94:\n    /* \"#utility.yul\":2570:2683   */\n  swap1\n  pop\n    /* \"#utility.yul\":2409:2690   */\n  swap3\n  swap2\n  pop\n  pop\n  jump\t// out\n    /* \"#utility.yul\":2696:3106   */\ntag_6:\n    /* \"#utility.yul\":2736:2743   */\n  0x00\n    /* \"#utility.yul\":2759:2779   */\n  tag_96\n    /* \"#utility.yul\":2777:2778   */\n  dup3\n    /* \"#utility.yul\":2759:2779   */\n  tag_33\n  jump\t// in\ntag_96:\n    /* \"#utility.yul\":2754:2779   */\n  swap2\n  pop\n    /* \"#utility.yul\":2793:2813   */\n  tag_97\n    /* \"#utility.yul\":2811:2812   */\n  dup4\n    /* \"#utility.yul\":2793:2813   */\n  tag_33\n  jump\t// in\ntag_97:\n    /* \"#utility.yul\":2788:2813   */\n  swap3\n  pop\n    /* \"#utility.yul\":2848:2849   */\n  dup3\n    /* \"#utility.yul\":2845:2846   */\n  dup3\n    /* \"#utility.yul\":2841:2850   */\n  mul\n    /* \"#utility.yul\":2870:2900   */\n  tag_98\n    /* \"#utility.yul\":2888:2899   */\n  dup2\n    /* \"#utility.yul\":2870:2900   */\n  tag_33\n  jump\t// in\ntag_98:\n    /* \"#utility.yul\":2859:2900   */\n  swap2\n  pop\n    /* \"#utility.yul\":3049:3050   */\n  dup3\n    /* \"#utility.yul\":3040:3047   */\n  dup3\n    /* \"#utility.yul\":3036:3051   */\n  div\n    /* \"#utility.yul\":3033:3034   */\n  dup5\n    /* \"#utility.yul\":3030:3052   */\n  eq\n    /* \"#utility.yul\":3010:3011   */\n  dup4\n    /* \"#utility.yul\":3003:3012   */\n  iszero\n    /* \"#utility.yul\":2983:3066   */\n  or\n    /* \"#utility.yul\":2960:3099   */\n  tag_99\n  jumpi\n    /* \"#utility.yul\":3079:3097   */\n  tag_100\n  tag_29\n  jump\t// in\ntag_100:\n    /* \"#utility.yul\":2960:3099   */\ntag_99:\n    /* \"#utility.yul\":2744:3106   */\n  pop\n    /* \"#utility.yul\":2696:3106   */\n  swap3\n  swap2\n  pop\n  pop\n  jump\t// out\n    /* \"#utility.yul\":3112:3292   */\ntag_35:\n    /* \"#utility.yul\":3160:3237   */\n  0x4e487b7100000000000000000000000000000000000000000000000000000000\n    /* \"#utility.yul\":3157:3158   */\n  0x00\n    /* \"#utility.yul\":3150:3238   */\n  mstore\n    /* \"#utility.yul\":3257:3261   */\n  0x12\n    /* \"#utility.yul\":3254:3255   */\n  0x04\n    /* \"#utility.yul\":3247:3262   */\n  mstore\n    /* \"#utility.yul\":3281:3285   */\n  0x24\n    /* \"#utility.yul\":3278:3279   */\n  0x00\n    /* \"#utility.yul\":3271:3286   */\n  revert\n    /* \"#utility.yul\":3298:3483   */\ntag_8:\n    /* \"#utility.yul\":3338:3339   */\n  0x00\n    /* \"#utility.yul\":3355:3375   */\n  tag_103\n    /* \"#utility.yul\":3373:3374   */\n  dup3\n    /* \"#utility.yul\":3355:3375   */\n  tag_33\n  jump\t// in\ntag_103:\n    /* \"#utility.yul\":3350:3375   */\n  swap2\n  pop\n    /* \"#utility.yul\":3389:3409   */\n  tag_104\n    /* \"#utility.yul\":3407:3408   */\n  dup4\n    /* \"#utility.yul\":3389:3409   */\n  tag_33\n  jump\t// in\ntag_104:\n    /* \"#utility.yul\":3384:3409   */\n  swap3\n  pop\n    /* \"#utility.yul\":3428:3429   */\n  dup3\n    /* \"#utility.yul\":3418:3453   */\n  tag_105\n  jumpi\n    /* \"#utility.yul\":3433:3451   */\n  tag_106\n  tag_35\n  jump\t// in\ntag_106:\n    /* \"#utility.yul\":3418:3453   */\ntag_105:\n    /* \"#utility.yul\":3475:3476   */\n  dup3\n    /* \"#utility.yul\":3472:3473   */\n  dup3\n    /* \"#utility.yul\":3468:3477   */\n  div\n    /* \"#utility.yul\":3463:3477   */\n  swap1\n  pop\n    /* \"#utility.yul\":3298:3483   */\n  swap3\n  swap2\n  pop\n  pop\n  jump\t// out\n    /* \"#utility.yul\":3570:3687   */\ntag_37:\n    /* \"#utility.yul\":3679:3680   */\n  0x00\n    /* \"#utility.yul\":3676:3677   */\n  dup1\n    /* \"#utility.yul\":3669:3681   */\n  revert\n    /* \"#utility.yul\":3816:3942   */\ntag_39:\n    /* \"#utility.yul\":3853:3860   */\n  0x00\n    /* \"#utility.yul\":3893:3935   */\n  0xffffffffffffffffffffffffffffffffffffffff\n    /* \"#utility.yul\":3886:3891   */\n  dup3\n    /* \"#utility.yul\":3882:3936   */\n  and\n    /* \"#utility.yul\":3871:3936   */\n  swap1\n  pop\n    /* \"#utility.yul\":3816:3942   */\n  swap2\n  swap1\n  pop\n  jump\t// out\n    /* \"#utility.yul\":3948:4044   */\ntag_40:\n    /* \"#utility.yul\":3985:3992   */\n  0x00\n    /* \"#utility.yul\":4014:4038   */\n  tag_112\n    /* \"#utility.yul\":4032:4037   */\n  dup3\n    /* \"#utility.yul\":4014:4038   */\n  tag_39\n  jump\t// in\ntag_112:\n    /* \"#utility.yul\":4003:4038   */\n  swap1\n  pop\n    /* \"#utility.yul\":3948:4044   */\n  swap2\n  swap1\n  pop\n  jump\t// out\n    /* \"#utility.yul\":4050:4172   */\ntag_41:\n    /* \"#utility.yul\":4123:4147   */\n  tag_114\n    /* \"#utility.yul\":4141:4146   */\n  dup2\n    /* \"#utility.yul\":4123:4147   */\n  tag_40\n  jump\t// in\ntag_114:\n    /* \"#utility.yul\":4116:4121   */\n  dup2\n    /* \"#utility.yul\":4113:4148   */\n  eq\n    /* \"#utility.yul\":4103:4166   */\n  tag_115\n  jumpi\n    /* \"#utility.yul\":4162:4163   */\n  0x00\n    /* \"#utility.yul\":4159:4160   */\n  dup1\n    /* \"#utility.yul\":4152:4164   */\n  revert\n    /* \"#utility.yul\":4103:4166   */\ntag_115:\n    /* \"#utility.yul\":4050:4172   */\n  pop\n  jump\t// out\n    /* \"#utility.yul\":4178:4321   */\ntag_42:\n    /* \"#utility.yul\":4235:4240   */\n  0x00\n    /* \"#utility.yul\":4266:4272   */\n  dup2\n    /* \"#utility.yul\":4260:4273   */\n  mload\n    /* \"#utility.yul\":4251:4273   */\n  swap1\n  pop\n    /* \"#utility.yul\":4282:4315   */\n  tag_117\n    /* \"#utility.yul\":4309:4314   */\n  dup2\n    /* \"#utility.yul\":4282:4315   */\n  tag_41\n  jump\t// in\ntag_117:\n    /* \"#utility.yul\":4178:4321   */\n  swap3\n  swap2\n  pop\n  pop\n  jump\t// out\n    /* \"#utility.yul\":4327:4678   */\ntag_11:\n    /* \"#utility.yul\":4397:4403   */\n  0x00\n    /* \"#utility.yul\":4446:4448   */\n  0x20\n    /* \"#utility.yul\":4434:4443   */\n  dup3\n    /* \"#utility.yul\":4425:4432   */\n  dup5\n    /* \"#utility.yul\":4421:4444   */\n  sub\n    /* \"#utility.yul\":4417:4449   */\n  slt\n    /* \"#utility.yul\":4414:4533   */\n  iszero\n  tag_119\n  jumpi\n    /* \"#utility.yul\":4452:4531   */\n  tag_120\n  tag_37\n  jump\t// in\ntag_120:\n    /* \"#utility.yul\":4414:4533   */\ntag_119:\n    /* \"#utility.yul\":4572:4573   */\n  0x00\n    /* \"#utility.yul\":4597:4661   */\n  tag_121\n    /* \"#utility.yul\":4653:4660   */\n  dup5\n    /* \"#utility.yul\":4644:4650   */\n  dup3\n    /* \"#utility.yul\":4633:4642   */\n  dup6\n    /* \"#utility.yul\":4629:4651   */\n  add\n    /* \"#utility.yul\":4597:4661   */\n  tag_42\n  jump\t// in\ntag_121:\n    /* \"#utility.yul\":4587:4661   */\n  swap2\n  pop\n    /* \"#utility.yul\":4543:4671   */\n  pop\n    /* \"#utility.yul\":4327:4678   */\n  swap3\n  swap2\n  pop\n  pop\n  jump\t// out\n    /* \"#utility.yul\":4684:4783   */\ntag_43:\n    /* \"#utility.yul\":4736:4742   */\n  0x00\n    /* \"#utility.yul\":4770:4775   */\n  dup2\n    /* \"#utility.yul\":4764:4776   */\n  mload\n    /* \"#utility.yul\":4754:4776   */\n  swap1\n  pop\n    /* \"#utility.yul\":4684:4783   */\n  swap2\n  swap1\n  pop\n  jump\t// out\n    /* \"#utility.yul\":4789:4969   */\ntag_44:\n    /* \"#utility.yul\":4837:4914   */\n  0x4e487b7100000000000000000000000000000000000000000000000000000000\n    /* \"#utility.yul\":4834:4835   */\n  0x00\n    /* \"#utility.yul\":4827:4915   */\n  mstore\n    /* \"#utility.yul\":4934:4938   */\n  0x41\n    /* \"#utility.yul\":4931:4932   */\n  0x04\n    /* \"#utility.yul\":4924:4939   */\n  mstore\n    /* \"#utility.yul\":4958:4962   */\n  0x24\n    /* \"#utility.yul\":4955:4956   */\n  0x00\n    /* \"#utility.yul\":4948:4963   */\n  revert\n    /* \"#utility.yul\":4975:5155   */\ntag_45:\n    /* \"#utility.yul\":5023:5100   */\n  0x4e487b7100000000000000000000000000000000000000000000000000000000\n    /* \"#utility.yul\":5020:5021   */\n  0x00\n    /* \"#utility.yul\":5013:5101   */\n  mstore\n    /* \"#utility.yul\":5120:5124   */\n  0x22\n    /* \"#utility.yul\":5117:5118   */\n  0x04\n    /* \"#utility.yul\":5110:5125   */\n  mstore\n    /* \"#utility.yul\":5144:5148   */\n  0x24\n    /* \"#utility.yul\":5141:5142   */\n  0x00\n    /* \"#utility.yul\":5134:5149   */\n  revert\n    /* \"#utility.yul\":5161:5481   */\ntag_46:\n    /* \"#utility.yul\":5205:5211   */\n  0x00\n    /* \"#utility.yul\":5242:5243   */\n  0x02\n    /* \"#utility.yul\":5236:5240   */\n  dup3\n    /* \"#utility.yul\":5232:5244   */\n  div\n    /* \"#utility.yul\":5222:5244   */\n  swap1\n  pop\n    /* \"#utility.yul\":5289:5290   */\n  0x01\n    /* \"#utility.yul\":5283:5287   */\n  dup3\n    /* \"#utility.yul\":5279:5291   */\n  and\n    /* \"#utility.yul\":5310:5328   */\n  dup1\n    /* \"#utility.yul\":5300:5381   */\n  tag_126\n  jumpi\n    /* \"#utility.yul\":5366:5370   */\n  0x7f\n    /* \"#utility.yul\":5358:5364   */\n  dup3\n    /* \"#utility.yul\":5354:5371   */\n  and\n    /* \"#utility.yul\":5344:5371   */\n  swap2\n  pop\n    /* \"#utility.yul\":5300:5381   */\ntag_126:\n    /* \"#utility.yul\":5428:5430   */\n  0x20\n    /* \"#utility.yul\":5420:5426   */\n  dup3\n    /* \"#utility.yul\":5417:5431   */\n  lt\n    /* \"#utility.yul\":5397:5415   */\n  dup2\n    /* \"#utility.yul\":5394:5432   */\n  sub\n    /* \"#utility.yul\":5391:5475   */\n  tag_127\n  jumpi\n    /* \"#utility.yul\":5447:5465   */\n  tag_128\n  tag_45\n  jump\t// in\ntag_128:\n    /* \"#utility.yul\":5391:5475   */\ntag_127:\n    /* \"#utility.yul\":5212:5481   */\n  pop\n    /* \"#utility.yul\":5161:5481   */\n  swap2\n  swap1\n  pop\n  jump\t// out\n    /* \"#utility.yul\":5487:5628   */\ntag_47:\n    /* \"#utility.yul\":5536:5540   */\n  0x00\n    /* \"#utility.yul\":5559:5562   */\n  dup2\n    /* \"#utility.yul\":5551:5562   */\n  swap1\n  pop\n    /* \"#utility.yul\":5582:5585   */\n  dup2\n    /* \"#utility.yul\":5579:5580   */\n  0x00\n    /* \"#utility.yul\":5572:5586   */\n  mstore\n    /* \"#utility.yul\":5616:5620   */\n  0x20\n    /* \"#utility.yul\":5613:5614   */\n  0x00\n    /* \"#utility.yul\":5603:5621   */\n  keccak256\n    /* \"#utility.yul\":5595:5621   */\n  swap1\n  pop\n    /* \"#utility.yul\":5487:5628   */\n  swap2\n  swap1\n  pop\n  jump\t// out\n    /* \"#utility.yul\":5634:5727   */\ntag_48:\n    /* \"#utility.yul\":5671:5677   */\n  0x00\n    /* \"#utility.yul\":5718:5720   */\n  0x20\n    /* \"#utility.yul\":5713:5715   */\n  0x1f\n    /* \"#utility.yul\":5706:5711   */\n  dup4\n    /* \"#utility.yul\":5702:5716   */\n  add\n    /* \"#utility.yul\":5698:5721   */\n  div\n    /* \"#utility.yul\":5688:5721   */\n  swap1\n  pop\n    /* \"#utility.yul\":5634:5727   */\n  swap2\n  swap1\n  pop\n  jump\t// out\n    /* \"#utility.yul\":5733:5840   */\ntag_49:\n    /* \"#utility.yul\":5777:5785   */\n  0x00\n    /* \"#utility.yul\":5827:5832   */\n  dup3\n    /* \"#utility.yul\":5821:5825   */\n  dup3\n    /* \"#utility.yul\":5817:5833   */\n  shl\n    /* \"#utility.yul\":5796:5833   */\n  swap1\n  pop\n    /* \"#utility.yul\":5733:5840   */\n  swap3\n  swap2\n  pop\n  pop\n  jump\t// out\n    /* \"#utility.yul\":5846:6239   */\ntag_50:\n    /* \"#utility.yul\":5915:5921   */\n  0x00\n    /* \"#utility.yul\":5965:5966   */\n  0x08\n    /* \"#utility.yul\":5953:5963   */\n  dup4\n    /* \"#utility.yul\":5949:5967   */\n  mul\n    /* \"#utility.yul\":5988:6085   */\n  tag_133\n    /* \"#utility.yul\":6018:6084   */\n  0xffffffffffffffffffffffffffffffffffffffffffffffffffffffffffffffff\n    /* \"#utility.yul\":6007:6016   */\n  dup3\n    /* \"#utility.yul\":5988:6085   */\n  tag_49\n  jump\t// in\ntag_133:\n    /* \"#utility.yul\":6106:6145   */\n  tag_134\n    /* \"#utility.yul\":6136:6144   */\n  dup7\n    /* \"#utility.yul\":6125:6134   */\n  dup4\n    /* \"#utility.yul\":6106:6145   */\n  tag_49\n  jump\t// in\ntag_134:\n    /* \"#utility.yul\":6094:6145   */\n  swap6\n  pop\n    /* \"#utility.yul\":6178:6182   */\n  dup1\n    /* \"#utility.yul\":6174:6183   */\n  not\n    /* \"#utility.yul\":6167:6172   */\n  dup5\n    /* \"#utility.yul\":6163:6184   */\n  and\n    /* \"#utility.yul\":6154:6184   */\n  swap4\n  pop\n    /* \"#utility.yul\":6227:6231   */\n  dup1\n    /* \"#utility.yul\":6217:6225   */\n  dup7\n    /* \"#utility.yul\":6213:6232   */\n  and\n    /* \"#utility.yul\":6206:6211   */\n  dup5\n    /* \"#utility.yul\":6203:6233   */\n  or\n    /* \"#utility.yul\":6193:6233   */\n  swap3\n  pop\n    /* \"#utility.yul\":5922:6239   */\n  pop\n  pop\n    /* \"#utility.yul\":5846:6239   */\n  swap4\n  swap3\n  pop\n  pop\n  pop\n  jump\t// out\n    /* \"#utility.yul\":6245:6305   */\ntag_51:\n    /* \"#utility.yul\":6273:6276   */\n  0x00\n    /* \"#utility.yul\":6294:6299   */\n  dup2\n    /* \"#utility.yul\":6287:6299   */\n  swap1\n  pop\n    /* \"#utility.yul\":6245:6305   */\n  swap2\n  swap1\n  pop\n  jump\t// out\n    /* \"#utility.yul\":6311:6453   */\ntag_52:\n    /* \"#utility.yul\":6361:6370   */\n  0x00\n    /* \"#utility.yul\":6394:6447   */\n  tag_137\n    /* \"#utility.yul\":6412:6446   */\n  tag_138\n    /* \"#utility.yul\":6421:6445   */\n  tag_139\n    /* \"#utility.yul\":6439:6444   */\n  dup5\n    /* \"#utility.yul\":6421:6445   */\n  tag_33\n  jump\t// in\ntag_139:\n    /* \"#utility.yul\":6412:6446   */\n  tag_51\n  jump\t// in\ntag_138:\n    /* \"#utility.yul\":6394:6447   */\n  tag_33\n  jump\t// in\ntag_137:\n    /* \"#utility.yul\":6381:6447   */\n  swap1\n  pop\n    /* \"#utility.yul\":6311:6453   */\n  swap2\n  swap1\n  pop\n  jump\t// out\n    /* \"#utility.yul\":6459:6534   */\ntag_53:\n    /* \"#utility.yul\":6502:6505   */\n  0x00\n    /* \"#utility.yul\":6523:6528   */\n  dup2\n    /* \"#utility.yul\":6516:6528   */\n  swap1\n  pop\n    /* \"#utility.yul\":6459:6534   */\n  swap2\n  swap1\n  pop\n  jump\t// out\n    /* \"#utility.yul\":6540:6809   */\ntag_54:\n    /* \"#utility.yul\":6650:6689   */\n  tag_142\n    /* \"#utility.yul\":6681:6688   */\n  dup4\n    /* \"#utility.yul\":6650:6689   */\n  tag_52\n  jump\t// in\ntag_142:\n    /* \"#utility.yul\":6711:6802   */\n  tag_143\n    /* \"#utility.yul\":6760:6801   */\n  tag_144\n    /* \"#utility.yul\":6784:6800   */\n  dup3\n    /* \"#utility.yul\":6760:6801   */\n  tag_53\n  jump\t// in\ntag_144:\n    /* \"#utility.yul\":6752:6758   */\n  dup5\n    /* \"#utility.yul\":6745:6749   */\n  dup5\n    /* \"#utility.yul\":6739:6750   */\n  sload\n    /* \"#utility.yul\":6711:6802   */\n  tag_50\n  jump\t// in\ntag_143:\n    /* \"#utility.yul\":6705:6709   */\n  dup3\n    /* \"#utility.yul\":6698:6803   */\n  sstore\n    /* \"#utility.yul\":6616:6809   */\n  pop\n    /* \"#utility.yul\":6540:6809   */\n  pop\n  pop\n  pop\n  jump\t// out\n    /* \"#utility.yul\":6815:6888   */\ntag_55:\n    /* \"#utility.yul\":6860:6863   */\n  0x00\n    /* \"#utility.yul\":6815:6888   */\n  swap1\n  jump\t// out\n    /* \"#utility.yul\":6894:7083   */\ntag_56:\n    /* \"#utility.yul\":6971:7003   */\n  tag_147\n  tag_55\n  jump\t// in\ntag_147:\n    /* \"#utility.yul\":7012:7077   */\n  tag_148\n    /* \"#utility.yul\":7070:7076   */\n  dup2\n    /* \"#utility.yul\":7062:7068   */\n  dup5\n    /* \"#utility.yul\":7056:7060   */\n  dup5\n    /* \"#utility.yul\":7012:7077   */\n  tag_54\n  jump\t// in\ntag_148:\n    /* \"#utility.yul\":6947:7083   */\n  pop\n    /* \"#utility.yul\":6894:7083   */\n  pop\n  pop\n  jump\t// out\n    /* \"#utility.yul\":7089:7275   */\ntag_57:\n    /* \"#utility.yul\":7149:7269   */\ntag_150:\n    /* \"#utility.yul\":7166:7169   */\n  dup2\n    /* \"#utility.yul\":7159:7164   */\n  dup2\n    /* \"#utility.yul\":7156:7170   */\n  lt\n    /* \"#utility.yul\":7149:7269   */\n  iszero\n  tag_152\n  jumpi\n    /* \"#utility.yul\":7220:7259   */\n  tag_153\n    /* \"#utility.yul\":7257:7258   */\n  0x00\n    /* \"#utility.yul\":7250:7255   */\n  dup3\n    /* \"#utility.yul\":7220:7259   */\n  tag_56\n  jump\t// in\ntag_153:\n    /* \"#utility.yul\":7193:7194   */\n  0x01\n    /* \"#utility.yul\":7186:7191   */\n  dup2\n    /* \"#utility.yul\":7182:7195   */\n  add\n    /* \"#utility.yul\":7173:7195   */\n  swap1\n  pop\n    /* \"#utility.yul\":7149:7269   */\n  jump(tag_150)\ntag_152:\n    /* \"#utility.yul\":7089:7275   */\n  pop\n  pop\n  jump\t// out\n    /* \"#utility.yul\":7281:7824   */\ntag_58:\n    /* \"#utility.yul\":7382:7384   */\n  0x1f\n    /* \"#utility.yul\":7377:7380   */\n  dup3\n    /* \"#utility.yul\":7374:7385   */\n  gt\n    /* \"#utility.yul\":7371:7817   */\n  iszero\n  tag_155\n  jumpi\n    /* \"#utility.yul\":7416:7454   */\n  tag_156\n    /* \"#utility.yul\":7448:7453   */\n  dup2\n    /* \"#utility.yul\":7416:7454   */\n  tag_47\n  jump\t// in\ntag_156:\n    /* \"#utility.yul\":7500:7529   */\n  tag_157\n    /* \"#utility.yul\":7518:7528   */\n  dup5\n    /* \"#utility.yul\":7500:7529   */\n  tag_48\n  jump\t// in\ntag_157:\n    /* \"#utility.yul\":7490:7498   */\n  dup2\n    /* \"#utility.yul\":7486:7530   */\n  add\n    /* \"#utility.yul\":7683:7685   */\n  0x20\n    /* \"#utility.yul\":7671:7681   */\n  dup6\n    /* \"#utility.yul\":7668:7686   */\n  lt\n    /* \"#utility.yul\":7665:7714   */\n  iszero\n  tag_158\n  jumpi\n    /* \"#utility.yul\":7704:7712   */\n  dup2\n    /* \"#utility.yul\":7689:7712   */\n  swap1\n  pop\n    /* \"#utility.yul\":7665:7714   */\ntag_158:\n    /* \"#utility.yul\":7727:7807   */\n  tag_159\n    /* \"#utility.yul\":7783:7805   */\n  tag_160\n    /* \"#utility.yul\":7801:7804   */\n  dup6\n    /* \"#utility.yul\":7783:7805   */\n  tag_48\n  jump\t// in\ntag_160:\n    /* \"#utility.yul\":7773:7781   */\n  dup4\n    /* \"#utility.yul\":7769:7806   */\n  add\n    /* \"#utility.yul\":7756:7767   */\n  dup3\n    /* \"#utility.yul\":7727:7807   */\n  tag_57\n  jump\t// in\ntag_159:\n    /* \"#utility.yul\":7386:7817   */\n  pop\n  pop\n    /* \"#utility.yul\":7371:7817   */\ntag_155:\n    /* \"#utility.yul\":7281:7824   */\n  pop\n  pop\n  pop\n  jump\t// out\n    /* \"#utility.yul\":7830:7947   */\ntag_59:\n    /* \"#utility.yul\":7884:7892   */\n  0x00\n    /* \"#utility.yul\":7934:7939   */\n  dup3\n    /* \"#utility.yul\":7928:7932   */\n  dup3\n    /* \"#utility.yul\":7924:7940   */\n  shr\n    /* \"#utility.yul\":7903:7940   */\n  swap1\n  pop\n    /* \"#utility.yul\":7830:7947   */\n  swap3\n  swap2\n  pop\n  pop\n  jump\t// out\n    /* \"#utility.yul\":7953:8122   */\ntag_60:\n    /* \"#utility.yul\":7997:8003   */\n  0x00\n    /* \"#utility.yul\":8030:8081   */\n  tag_163\n    /* \"#utility.yul\":8078:8079   */\n  0x00\n    /* \"#utility.yul\":8074:8080   */\n  not\n    /* \"#utility.yul\":8066:8071   */\n  dup5\n    /* \"#utility.yul\":8063:8064   */\n  0x08\n    /* \"#utility.yul\":8059:8072   */\n  mul\n    /* \"#utility.yul\":8030:8081   */\n  tag_59\n  jump\t// in\ntag_163:\n    /* \"#utility.yul\":8026:8082   */\n  not\n    /* \"#utility.yul\":8111:8115   */\n  dup1\n    /* \"#utility.yul\":8105:8109   */\n  dup4\n    /* \"#utility.yul\":8101:8116   */\n  and\n    /* \"#utility.yul\":8091:8116   */\n  swap2\n  pop\n    /* \"#utility.yul\":8004:8122   */\n  pop\n    /* \"#utility.yul\":7953:8122   */\n  swap3\n  swap2\n  pop\n  pop\n  jump\t// out\n    /* \"#utility.yul\":8127:8422   */\ntag_61:\n    /* \"#utility.yul\":8203:8207   */\n  0x00\n    /* \"#utility.yul\":8349:8378   */\n  tag_165\n    /* \"#utility.yul\":8374:8377   */\n  dup4\n    /* \"#utility.yul\":8368:8372   */\n  dup4\n    /* \"#utility.yul\":8349:8378   */\n  tag_60\n  jump\t// in\ntag_165:\n    /* \"#utility.yul\":8341:8378   */\n  swap2\n  pop\n    /* \"#utility.yul\":8411:8414   */\n  dup3\n    /* \"#utility.yul\":8408:8409   */\n  0x02\n    /* \"#utility.yul\":8404:8415   */\n  mul\n    /* \"#utility.yul\":8398:8402   */\n  dup3\n    /* \"#utility.yul\":8395:8416   */\n  or\n    /* \"#utility.yul\":8387:8416   */\n  swap1\n  pop\n    /* \"#utility.yul\":8127:8422   */\n  swap3\n  swap2\n  pop\n  pop\n  jump\t// out\n    /* \"#utility.yul\":8427:9822   */\ntag_17:\n    /* \"#utility.yul\":8544:8581   */\n  tag_167\n    /* \"#utility.yul\":8577:8580   */\n  dup3\n    /* \"#utility.yul\":8544:8581   */\n  tag_43\n  jump\t// in\ntag_167:\n    /* \"#utility.yul\":8646:8664   */\n  0xffffffffffffffff\n    /* \"#utility.yul\":8638:8644   */\n  dup2\n    /* \"#utility.yul\":8635:8665   */\n  gt\n    /* \"#utility.yul\":8632:8688   */\n  iszero\n  tag_168\n  jumpi\n    /* \"#utility.yul\":8668:8686   */\n  tag_169\n  tag_44\n  jump\t// in\ntag_169:\n    /* \"#utility.yul\":8632:8688   */\ntag_168:\n    /* \"#utility.yul\":8712:8750   */\n  tag_170\n    /* \"#utility.yul\":8744:8748   */\n  dup3\n    /* \"#utility.yul\":8738:8749   */\n  sload\n    /* \"#utility.yul\":8712:8750   */\n  tag_46\n  jump\t// in\ntag_170:\n    /* \"#utility.yul\":8797:8864   */\n  tag_171\n    /* \"#utility.yul\":8857:8863   */\n  dup3\n    /* \"#utility.yul\":8849:8855   */\n  dup3\n    /* \"#utility.yul\":8843:8847   */\n  dup6\n    /* \"#utility.yul\":8797:8864   */\n  tag_58\n  jump\t// in\ntag_171:\n    /* \"#utility.yul\":8891:8892   */\n  0x00\n    /* \"#utility.yul\":8915:8919   */\n  0x20\n    /* \"#utility.yul\":8902:8919   */\n  swap1\n  pop\n    /* \"#utility.yul\":8947:8949   */\n  0x1f\n    /* \"#utility.yul\":8939:8945   */\n  dup4\n    /* \"#utility.yul\":8936:8950   */\n  gt\n    /* \"#utility.yul\":8964:8965   */\n  0x01\n    /* \"#utility.yul\":8959:9577   */\n  dup2\n  eq\n  tag_173\n  jumpi\n    /* \"#utility.yul\":9621:9622   */\n  0x00\n    /* \"#utility.yul\":9638:9644   */\n  dup5\n    /* \"#utility.yul\":9635:9712   */\n  iszero\n  tag_174\n  jumpi\n    /* \"#utility.yul\":9687:9696   */\n  dup3\n    /* \"#utility.yul\":9682:9685   */\n  dup8\n    /* \"#utility.yul\":9678:9697   */\n  add\n    /* \"#utility.yul\":9672:9698   */\n  mload\n    /* \"#utility.yul\":9663:9698   */\n  swap1\n  pop\n    /* \"#utility.yul\":9635:9712   */\ntag_174:\n    /* \"#utility.yul\":9738:9805   */\n  tag_175\n    /* \"#utility.yul\":9798:9804   */\n  dup6\n    /* \"#utility.yul\":9791:9796   */\n  dup3\n    /* \"#utility.yul\":9738:9805   */\n  tag_61\n  jump\t// in\ntag_175:\n    /* \"#utility.yul\":9732:9736   */\n  dup7\n    /* \"#utility.yul\":9725:9806   */\n  sstore\n    /* \"#utility.yul\":9594:9816   */\n  pop\n    /* \"#utility.yul\":8929:9816   */\n  jump(tag_172)\n    /* \"#utility.yul\":8959:9577   */\ntag_173:\n    /* \"#utility.yul\":9011:9015   */\n  0x1f\n    /* \"#utility.yul\":9007:9016   */\n  not\n    /* \"#utility.yul\":8999:9005   */\n  dup5\n    /* \"#utility.yul\":8995:9017   */\n  and\n    /* \"#utility.yul\":9045:9082   */\n  tag_176\n    /* \"#utility.yul\":9077:9081   */\n  dup7\n    /* \"#utility.yul\":9045:9082   */\n  tag_47\n  jump\t// in\ntag_176:\n    /* \"#utility.yul\":9104:9105   */\n  0x00\n    /* \"#utility.yul\":9118:9326   */\ntag_177:\n    /* \"#utility.yul\":9132:9139   */\n  dup3\n    /* \"#utility.yul\":9129:9130   */\n  dup2\n    /* \"#utility.yul\":9126:9140   */\n  lt\n    /* \"#utility.yul\":9118:9326   */\n  iszero\n  tag_179\n  jumpi\n    /* \"#utility.yul\":9211:9220   */\n  dup5\n    /* \"#utility.yul\":9206:9209   */\n  dup10\n    /* \"#utility.yul\":9202:9221   */\n  add\n    /* \"#utility.yul\":9196:9222   */\n  mload\n    /* \"#utility.yul\":9188:9194   */\n  dup3\n    /* \"#utility.yul\":9181:9223   */\n  sstore\n    /* \"#utility.yul\":9262:9263   */\n  0x01\n    /* \"#utility.yul\":9254:9260   */\n  dup3\n    /* \"#utility.yul\":9250:9264   */\n  add\n    /* \"#utility.yul\":9240:9264   */\n  swap2\n  pop\n    /* \"#utility.yul\":9309:9311   */\n  0x20\n    /* \"#utility.yul\":9298:9307   */\n  dup6\n    /* \"#utility.yul\":9294:9312   */\n  add\n    /* \"#utility.yul\":9281:9312   */\n  swap5\n  pop\n    /* \"#utility.yul\":9155:9159   */\n  0x20\n    /* \"#utility.yul\":9152:9153   */\n  dup2\n    /* \"#utility.yul\":9148:9160   */\n  add\n    /* \"#utility.yul\":9143:9160   */\n  swap1\n  pop\n    /* \"#utility.yul\":9118:9326   */\n  jump(tag_177)\ntag_179:\n    /* \"#utility.yul\":9354:9360   */\n  dup7\n    /* \"#utility.yul\":9345:9352   */\n  dup4\n    /* \"#utility.yul\":9342:9361   */\n  lt\n    /* \"#utility.yul\":9339:9518   */\n  iszero\n  tag_180\n  jumpi\n    /* \"#utility.yul\":9412:9421   */\n  dup5\n    /* \"#utility.yul\":9407:9410   */\n  dup10\n    /* \"#utility.yul\":9403:9422   */\n  add\n    /* \"#utility.yul\":9397:9423   */\n  mload\n    /* \"#utility.yul\":9455:9503   */\n  tag_181\n    /* \"#utility.yul\":9497:9501   */\n  0x1f\n    /* \"#utility.yul\":9489:9495   */\n  dup10\n    /* \"#utility.yul\":9485:9502   */\n  and\n    /* \"#utility.yul\":9474:9483   */\n  dup3\n    /* \"#utility.yul\":9455:9503   */\n  tag_60\n  jump\t// in\ntag_181:\n    /* \"#utility.yul\":9447:9453   */\n  dup4\n    /* \"#utility.yul\":9440:9504   */\n  sstore\n    /* \"#utility.yul\":9362:9518   */\n  pop\n    /* \"#utility.yul\":9339:9518   */\ntag_180:\n    /* \"#utility.yul\":9564:9565   */\n  0x01\n    /* \"#utility.yul\":9560:9561   */\n  0x02\n    /* \"#utility.yul\":9552:9558   */\n  dup9\n    /* \"#utility.yul\":9548:9562   */\n  mul\n    /* \"#utility.yul\":9544:9566   */\n  add\n    /* \"#utility.yul\":9538:9542   */\n  dup9\n    /* \"#utility.yul\":9531:9567   */\n  sstore\n    /* \"#utility.yul\":8966:9577   */\n  pop\n  pop\n  pop\n    /* \"#utility.yul\":8929:9816   */\ntag_172:\n  pop\n    /* \"#utility.yul\":8519:9822   */\n  pop\n  pop\n  pop\n    /* \"#utility.yul\":8427:9822   */\n  pop\n  pop\n  jump\t// out\n    /* \"Staking.sol\":296:1412  contract MyToken is ERC20, ERC721Holder, Ownable {... */\ntag_25:\n  dataSize(sub_0)\n  dup1\n  dataOffset(sub_0)\n  0x00\n  codecopy\n  0x00\n  return\nstop\n\nsub_0: assembly {\n        /* \"Staking.sol\":296:1412  contract MyToken is ERC20, ERC721Holder, Ownable {... */\n      mstore(0x40, 0x80)\n      callvalue\n      dup1\n      iszero\n      tag_1\n      jumpi\n      0x00\n      dup1\n      revert\n    tag_1:\n      pop\n      jumpi(tag_2, lt(calldatasize, 0x04))\n      shr(0xe0, calldataload(0x00))\n      dup1\n      0x70a08231\n      gt\n      tag_25\n      jumpi\n      dup1\n      0x95d89b41\n      gt\n      tag_26\n      jumpi\n      dup1\n      0x95d89b41\n      eq\n      tag_19\n      jumpi\n      dup1\n      0xa457c2d7\n      eq\n      tag_20\n      jumpi\n      dup1\n      0xa694fc3a\n      eq\n      tag_21\n      jumpi\n      dup1\n      0xa9059cbb\n      eq\n      tag_22\n      jumpi\n      dup1\n      0xdd62ed3e\n      eq\n      tag_23\n      jumpi\n      dup1\n      0xf2fde38b\n      eq\n      tag_24\n      jumpi\n      jump(tag_2)\n    tag_26:\n      dup1\n      0x70a08231\n      eq\n      tag_14\n      jumpi\n      dup1\n      0x715018a6\n      eq\n      tag_15\n      jumpi\n      dup1\n      0x71aa60fd\n      eq\n      tag_16\n      jumpi\n      dup1\n      0x89885a59\n      eq\n      tag_17\n      jumpi\n      dup1\n      0x8da5cb5b\n      eq\n      tag_18\n      jumpi\n      jump(tag_2)\n    tag_25:\n      dup1\n      0x23b872dd\n      gt\n      tag_27\n      jumpi\n      dup1\n      0x23b872dd\n      eq\n      tag_8\n      jumpi\n      dup1\n      0x24bf238c\n      eq\n      tag_9\n      jumpi\n      dup1\n      0x2e17de78\n      eq\n      tag_10\n      jumpi\n      dup1\n      0x313ce567\n      eq\n      tag_11\n      jumpi\n      dup1\n      0x39509351\n      eq\n      tag_12\n      jumpi\n      dup1\n      0x47ccca02\n      eq\n      tag_13\n      jumpi\n      jump(tag_2)\n    tag_27:\n      dup1\n      0x01b8199a\n      eq\n      tag_3\n      jumpi\n      dup1\n      0x06fdde03\n      eq\n      tag_4\n      jumpi\n      dup1\n      0x095ea7b3\n      eq\n      tag_5\n      jumpi\n      dup1\n      0x150b7a02\n      eq\n      tag_6\n      jumpi\n      dup1\n      0x18160ddd\n      eq\n      tag_7\n      jumpi\n    tag_2:\n      0x00\n      dup1\n      revert\n        /* \"Staking.sol\":482:545  uint256 public EMISSION_RATE = (50 * 10 ** decimals()) / 1 days */\n    tag_3:\n      tag_28\n      tag_29\n      jump\t// in\n    tag_28:\n      mload(0x40)\n      tag_30\n      swap2\n      swap1\n      tag_31\n      jump\t// in\n    tag_30:\n      mload(0x40)\n      dup1\n      swap2\n      sub\n      swap1\n      return\n        /* \"@openzeppelin/contracts/token/ERC20/ERC20.sol\":2158:2256  function name() public view virtual override returns (string memory) {... */\n    tag_4:\n      tag_32\n      tag_33\n      jump\t// in\n    tag_32:\n      mload(0x40)\n      tag_34\n      swap2\n      swap1\n      tag_35\n      jump\t// in\n    tag_34:\n      mload(0x40)\n      dup1\n      swap2\n      sub\n      swap1\n      return\n        /* \"@openzeppelin/contracts/token/ERC20/ERC20.sol\":4444:4641  function approve(address spender, uint256 amount) public virtual override returns (bool) {... */\n    tag_5:\n      tag_36\n      0x04\n      dup1\n      calldatasize\n      sub\n      dup2\n      add\n      swap1\n      tag_37\n      swap2\n      swap1\n      tag_38\n      jump\t// in\n    tag_37:\n      tag_39\n      jump\t// in\n    tag_36:\n      mload(0x40)\n      tag_40\n      swap2\n      swap1\n      tag_41\n      jump\t// in\n    tag_40:\n      mload(0x40)\n      dup1\n      swap2\n      sub\n      swap1\n      return\n        /* \"@openzeppelin/contracts/token/ERC721/utils/ERC721Holder.sol\":603:765  function onERC721Received(address, address, uint256, bytes memory) public virtual override returns (bytes4) {... */\n    tag_6:\n      tag_42\n      0x04\n      dup1\n      calldatasize\n      sub\n      dup2\n      add\n      swap1\n      tag_43\n      swap2\n      swap1\n      tag_44\n      jump\t// in\n    tag_43:\n      tag_45\n      jump\t// in\n    tag_42:\n      mload(0x40)\n      tag_46\n      swap2\n      swap1\n      tag_47\n      jump\t// in\n    tag_46:\n      mload(0x40)\n      dup1\n      swap2\n      sub\n      swap1\n      return\n        /* \"@openzeppelin/contracts/token/ERC20/ERC20.sol\":3255:3361  function totalSupply() public view virtual override returns (uint256) {... */\n    tag_7:\n      tag_48\n      tag_49\n      jump\t// in\n    tag_48:\n      mload(0x40)\n      tag_50\n      swap2\n      swap1\n      tag_31\n      jump\t// in\n    tag_50:\n      mload(0x40)\n      dup1\n      swap2\n      sub\n      swap1\n      return\n        /* \"@openzeppelin/contracts/token/ERC20/ERC20.sol\":5203:5459  function transferFrom(address from, address to, uint256 amount) public virtual override returns (bool) {... */\n    tag_8:\n      tag_51\n      0x04\n      dup1\n      calldatasize\n      sub\n      dup2\n      add\n      swap1\n      tag_52\n      swap2\n      swap1\n      tag_53\n      jump\t// in\n    tag_52:\n      tag_54\n      jump\t// in\n    tag_51:\n      mload(0x40)\n      tag_55\n      swap2\n      swap1\n      tag_41\n      jump\t// in\n    tag_55:\n      mload(0x40)\n      dup1\n      swap2\n      sub\n      swap1\n      return\n        /* \"Staking.sol\":428:476  mapping(uint256 => uint256) public tokenStakedAt */\n    tag_9:\n      tag_56\n      0x04\n      dup1\n      calldatasize\n      sub\n      dup2\n      add\n      swap1\n      tag_57\n      swap2\n      swap1\n      tag_58\n      jump\t// in\n    tag_57:\n      tag_59\n      jump\t// in\n    tag_56:\n      mload(0x40)\n      tag_60\n      swap2\n      swap1\n      tag_31\n      jump\t// in\n    tag_60:\n      mload(0x40)\n      dup1\n      swap2\n      sub\n      swap1\n      return\n        /* \"Staking.sol\":1059:1410  function unstake(uint256 tokenId) external {... */\n    tag_10:\n      tag_61\n      0x04\n      dup1\n      calldatasize\n      sub\n      dup2\n      add\n      swap1\n      tag_62\n      swap2\n      swap1\n      tag_58\n      jump\t// in\n    tag_62:\n      tag_63\n      jump\t// in\n    tag_61:\n      stop\n        /* \"@openzeppelin/contracts/token/ERC20/ERC20.sol\":3104:3195  function decimals() public view virtual override returns (uint8) {... */\n    tag_11:\n      tag_64\n      tag_65\n      jump\t// in\n    tag_64:\n      mload(0x40)\n      tag_66\n      swap2\n      swap1\n      tag_67\n      jump\t// in\n    tag_66:\n      mload(0x40)\n      dup1\n      swap2\n      sub\n      swap1\n      return\n        /* \"@openzeppelin/contracts/token/ERC20/ERC20.sol\":5854:6088  function increaseAllowance(address spender, uint256 addedValue) public virtual returns (bool) {... */\n    tag_12:\n      tag_68\n      0x04\n      dup1\n      calldatasize\n      sub\n      dup2\n      add\n      swap1\n      tag_69\n      swap2\n      swap1\n      tag_38\n      jump\t// in\n    tag_69:\n      tag_70\n      jump\t// in\n    tag_68:\n      mload(0x40)\n      tag_71\n      swap2\n      swap1\n      tag_41\n      jump\t// in\n    tag_71:\n      mload(0x40)\n      dup1\n      swap2\n      sub\n      swap1\n      return\n        /* \"Staking.sol\":351:369  IERC721 public nft */\n    tag_13:\n      tag_72\n      tag_73\n      jump\t// in\n    tag_72:\n      mload(0x40)\n      tag_74\n      swap2\n      swap1\n      tag_75\n      jump\t// in\n    tag_74:\n      mload(0x40)\n      dup1\n      swap2\n      sub\n      swap1\n      return\n        /* \"@openzeppelin/contracts/token/ERC20/ERC20.sol\":3419:3544  function balanceOf(address account) public view virtual override returns (uint256) {... */\n    tag_14:\n      tag_76\n      0x04\n      dup1\n      calldatasize\n      sub\n      dup2\n      add\n      swap1\n      tag_77\n      swap2\n      swap1\n      tag_78\n      jump\t// in\n    tag_77:\n      tag_79\n      jump\t// in\n    tag_76:\n      mload(0x40)\n      tag_80\n      swap2\n      swap1\n      tag_31\n      jump\t// in\n    tag_80:\n      mload(0x40)\n      dup1\n      swap2\n      sub\n      swap1\n      return\n        /* \"@openzeppelin/contracts/access/Ownable.sol\":1824:1925  function renounceOwnership() public virtual onlyOwner {... */\n    tag_15:\n      tag_81\n      tag_82\n      jump\t// in\n    tag_81:\n      stop\n        /* \"Staking.sol\":858:1053  function calculateTokens(uint256 tokenId) public view returns (uint256) {... */\n    tag_16:\n      tag_83\n      0x04\n      dup1\n      calldatasize\n      sub\n      dup2\n      add\n      swap1\n      tag_84\n      swap2\n      swap1\n      tag_58\n      jump\t// in\n    tag_84:\n      tag_85\n      jump\t// in\n    tag_83:\n      mload(0x40)\n      tag_86\n      swap2\n      swap1\n      tag_31\n      jump\t// in\n    tag_86:\n      mload(0x40)\n      dup1\n      swap2\n      sub\n      swap1\n      return\n        /* \"Staking.sol\":375:422  mapping(uint256 => address) public tokenOwnerOf */\n    tag_17:\n      tag_87\n      0x04\n      dup1\n      calldatasize\n      sub\n      dup2\n      add\n      swap1\n      tag_88\n      swap2\n      swap1\n      tag_58\n      jump\t// in\n    tag_88:\n      tag_89\n      jump\t// in\n    tag_87:\n      mload(0x40)\n      tag_90\n      swap2\n      swap1\n      tag_91\n      jump\t// in\n    tag_90:\n      mload(0x40)\n      dup1\n      swap2\n      sub\n      swap1\n      return\n        /* \"@openzeppelin/contracts/access/Ownable.sol\":1201:1286  function owner() public view virtual returns (address) {... */\n    tag_18:\n      tag_92\n      tag_93\n      jump\t// in\n    tag_92:\n      mload(0x40)\n      tag_94\n      swap2\n      swap1\n      tag_91\n      jump\t// in\n    tag_94:\n      mload(0x40)\n      dup1\n      swap2\n      sub\n      swap1\n      return\n        /* \"@openzeppelin/contracts/token/ERC20/ERC20.sol\":2369:2471  function symbol() public view virtual override returns (string memory) {... */\n    tag_19:\n      tag_95\n      tag_96\n      jump\t// in\n    tag_95:\n      mload(0x40)\n      tag_97\n      swap2\n      swap1\n      tag_35\n      jump\t// in\n    tag_97:\n      mload(0x40)\n      dup1\n      swap2\n      sub\n      swap1\n      return\n        /* \"@openzeppelin/contracts/token/ERC20/ERC20.sol\":6575:7002  function decreaseAllowance(address spender, uint256 subtractedValue) public virtual returns (bool) {... */\n    tag_20:\n      tag_98\n      0x04\n      dup1\n      calldatasize\n      sub\n      dup2\n      add\n      swap1\n      tag_99\n      swap2\n      swap1\n      tag_38\n      jump\t// in\n    tag_99:\n      tag_100\n      jump\t// in\n    tag_98:\n      mload(0x40)\n      tag_101\n      swap2\n      swap1\n      tag_41\n      jump\t// in\n    tag_101:\n      mload(0x40)\n      dup1\n      swap2\n      sub\n      swap1\n      return\n        /* \"Staking.sol\":644:852  function stake(uint256 tokenId) external {... */\n    tag_21:\n      tag_102\n      0x04\n      dup1\n      calldatasize\n      sub\n      dup2\n      add\n      swap1\n      tag_103\n      swap2\n      swap1\n      tag_58\n      jump\t// in\n    tag_103:\n      tag_104\n      jump\t// in\n    tag_102:\n      stop\n        /* \"@openzeppelin/contracts/token/ERC20/ERC20.sol\":3740:3929  function transfer(address to, uint256 amount) public virtual override returns (bool) {... */\n    tag_22:\n      tag_105\n      0x04\n      dup1\n      calldatasize\n      sub\n      dup2\n      add\n      swap1\n      tag_106\n      swap2\n      swap1\n      tag_38\n      jump\t// in\n    tag_106:\n      tag_107\n      jump\t// in\n    tag_105:\n      mload(0x40)\n      tag_108\n      swap2\n      swap1\n      tag_41\n      jump\t// in\n    tag_108:\n      mload(0x40)\n      dup1\n      swap2\n      sub\n      swap1\n      return\n        /* \"@openzeppelin/contracts/token/ERC20/ERC20.sol\":3987:4136  function allowance(address owner, address spender) public view virtual override returns (uint256) {... */\n    tag_23:\n      tag_109\n      0x04\n      dup1\n      calldatasize\n      sub\n      dup2\n      add\n      swap1\n      tag_110\n      swap2\n      swap1\n      tag_111\n      jump\t// in\n    tag_110:\n      tag_112\n      jump\t// in\n    tag_109:\n      mload(0x40)\n      tag_113\n      swap2\n      swap1\n      tag_31\n      jump\t// in\n    tag_113:\n      mload(0x40)\n      dup1\n      swap2\n      sub\n      swap1\n      return\n        /* \"@openzeppelin/contracts/access/Ownable.sol\":2074:2272  function transferOwnership(address newOwner) public virtual onlyOwner {... */\n    tag_24:\n      tag_114\n      0x04\n      dup1\n      calldatasize\n      sub\n      dup2\n      add\n      swap1\n      tag_115\n      swap2\n      swap1\n      tag_78\n      jump\t// in\n    tag_115:\n      tag_116\n      jump\t// in\n    tag_114:\n      stop\n        /* \"Staking.sol\":482:545  uint256 public EMISSION_RATE = (50 * 10 ** decimals()) / 1 days */\n    tag_29:\n      sload(0x09)\n      dup2\n      jump\t// out\n        /* \"@openzeppelin/contracts/token/ERC20/ERC20.sol\":2158:2256  function name() public view virtual override returns (string memory) {... */\n    tag_33:\n        /* \"@openzeppelin/contracts/token/ERC20/ERC20.sol\":2212:2225  string memory */\n      0x60\n        /* \"@openzeppelin/contracts/token/ERC20/ERC20.sol\":2244:2249  _name */\n      0x03\n        /* \"@openzeppelin/contracts/token/ERC20/ERC20.sol\":2237:2249  return _name */\n      dup1\n      sload\n      tag_118\n      swap1\n      tag_119\n      jump\t// in\n    tag_118:\n      dup1\n      0x1f\n      add\n      0x20\n      dup1\n      swap2\n      div\n      mul\n      0x20\n      add\n      mload(0x40)\n      swap1\n      dup2\n      add\n      0x40\n      mstore\n      dup1\n      swap3\n      swap2\n      swap1\n      dup2\n      dup2\n      mstore\n      0x20\n      add\n      dup3\n      dup1\n      sload\n      tag_120\n      swap1\n      tag_119\n      jump\t// in\n    tag_120:\n      dup1\n      iszero\n      tag_121\n      jumpi\n      dup1\n      0x1f\n      lt\n      tag_122\n      jumpi\n      0x0100\n      dup1\n      dup4\n      sload\n      div\n      mul\n      dup4\n      mstore\n      swap2\n      0x20\n      add\n      swap2\n      jump(tag_121)\n    tag_122:\n      dup3\n      add\n      swap2\n      swap1\n      0x00\n      mstore\n      keccak256(0x00, 0x20)\n      swap1\n    tag_123:\n      dup2\n      sload\n      dup2\n      mstore\n      swap1\n      0x01\n      add\n      swap1\n      0x20\n      add\n      dup1\n      dup4\n      gt\n      tag_123\n      jumpi\n      dup3\n      swap1\n      sub\n      0x1f\n      and\n      dup3\n      add\n      swap2\n    tag_121:\n      pop\n      pop\n      pop\n      pop\n      pop\n      swap1\n      pop\n        /* \"@openzeppelin/contracts/token/ERC20/ERC20.sol\":2158:2256  function name() public view virtual override returns (string memory) {... */\n      swap1\n      jump\t// out\n        /* \"@openzeppelin/contracts/token/ERC20/ERC20.sol\":4444:4641  function approve(address spender, uint256 amount) public virtual override returns (bool) {... */\n    tag_39:\n        /* \"@openzeppelin/contracts/token/ERC20/ERC20.sol\":4527:4531  bool */\n      0x00\n        /* \"@openzeppelin/contracts/token/ERC20/ERC20.sol\":4543:4556  address owner */\n      dup1\n        /* \"@openzeppelin/contracts/token/ERC20/ERC20.sol\":4559:4571  _msgSender() */\n      tag_125\n        /* \"@openzeppelin/contracts/token/ERC20/ERC20.sol\":4559:4569  _msgSender */\n      tag_126\n        /* \"@openzeppelin/contracts/token/ERC20/ERC20.sol\":4559:4571  _msgSender() */\n      jump\t// in\n    tag_125:\n        /* \"@openzeppelin/contracts/token/ERC20/ERC20.sol\":4543:4571  address owner = _msgSender() */\n      swap1\n      pop\n        /* \"@openzeppelin/contracts/token/ERC20/ERC20.sol\":4581:4613  _approve(owner, spender, amount) */\n      tag_127\n        /* \"@openzeppelin/contracts/token/ERC20/ERC20.sol\":4590:4595  owner */\n      dup2\n        /* \"@openzeppelin/contracts/token/ERC20/ERC20.sol\":4597:4604  spender */\n      dup6\n        /* \"@openzeppelin/contracts/token/ERC20/ERC20.sol\":4606:4612  amount */\n      dup6\n        /* \"@openzeppelin/contracts/token/ERC20/ERC20.sol\":4581:4589  _approve */\n      tag_128\n        /* \"@openzeppelin/contracts/token/ERC20/ERC20.sol\":4581:4613  _approve(owner, spender, amount) */\n      jump\t// in\n    tag_127:\n        /* \"@openzeppelin/contracts/token/ERC20/ERC20.sol\":4630:4634  true */\n      0x01\n        /* \"@openzeppelin/contracts/token/ERC20/ERC20.sol\":4623:4634  return true */\n      swap2\n      pop\n      pop\n        /* \"@openzeppelin/contracts/token/ERC20/ERC20.sol\":4444:4641  function approve(address spender, uint256 amount) public virtual override returns (bool) {... */\n      swap3\n      swap2\n      pop\n      pop\n      jump\t// out\n        /* \"@openzeppelin/contracts/token/ERC721/utils/ERC721Holder.sol\":603:765  function onERC721Received(address, address, uint256, bytes memory) public virtual override returns (bytes4) {... */\n    tag_45:\n        /* \"@openzeppelin/contracts/token/ERC721/utils/ERC721Holder.sol\":703:709  bytes4 */\n      0x00\n        /* \"@openzeppelin/contracts/token/ERC721/utils/ERC721Holder.sol\":728:758  this.onERC721Received.selector */\n      shl(0xe0, 0x150b7a02)\n        /* \"@openzeppelin/contracts/token/ERC721/utils/ERC721Holder.sol\":721:758  return this.onERC721Received.selector */\n      swap1\n      pop\n        /* \"@openzeppelin/contracts/token/ERC721/utils/ERC721Holder.sol\":603:765  function onERC721Received(address, address, uint256, bytes memory) public virtual override returns (bytes4) {... */\n      swap5\n      swap4\n      pop\n      pop\n      pop\n      pop\n      jump\t// out\n        /* \"@openzeppelin/contracts/token/ERC20/ERC20.sol\":3255:3361  function totalSupply() public view virtual override returns (uint256) {... */\n    tag_49:\n        /* \"@openzeppelin/contracts/token/ERC20/ERC20.sol\":3316:3323  uint256 */\n      0x00\n        /* \"@openzeppelin/contracts/token/ERC20/ERC20.sol\":3342:3354  _totalSupply */\n      sload(0x02)\n        /* \"@openzeppelin/contracts/token/ERC20/ERC20.sol\":3335:3354  return _totalSupply */\n      swap1\n      pop\n        /* \"@openzeppelin/contracts/token/ERC20/ERC20.sol\":3255:3361  function totalSupply() public view virtual override returns (uint256) {... */\n      swap1\n      jump\t// out\n        /* \"@openzeppelin/contracts/token/ERC20/ERC20.sol\":5203:5459  function transferFrom(address from, address to, uint256 amount) public virtual override returns (bool) {... */\n    tag_54:\n        /* \"@openzeppelin/contracts/token/ERC20/ERC20.sol\":5300:5304  bool */\n      0x00\n        /* \"@openzeppelin/contracts/token/ERC20/ERC20.sol\":5316:5331  address spender */\n      dup1\n        /* \"@openzeppelin/contracts/token/ERC20/ERC20.sol\":5334:5346  _msgSender() */\n      tag_132\n        /* \"@openzeppelin/contracts/token/ERC20/ERC20.sol\":5334:5344  _msgSender */\n      tag_126\n        /* \"@openzeppelin/contracts/token/ERC20/ERC20.sol\":5334:5346  _msgSender() */\n      jump\t// in\n    tag_132:\n        /* \"@openzeppelin/contracts/token/ERC20/ERC20.sol\":5316:5346  address spender = _msgSender() */\n      swap1\n      pop\n        /* \"@openzeppelin/contracts/token/ERC20/ERC20.sol\":5356:5394  _spendAllowance(from, spender, amount) */\n      tag_133\n        /* \"@openzeppelin/contracts/token/ERC20/ERC20.sol\":5372:5376  from */\n      dup6\n        /* \"@openzeppelin/contracts/token/ERC20/ERC20.sol\":5378:5385  spender */\n      dup3\n        /* \"@openzeppelin/contracts/token/ERC20/ERC20.sol\":5387:5393  amount */\n      dup6\n        /* \"@openzeppelin/contracts/token/ERC20/ERC20.sol\":5356:5371  _spendAllowance */\n      tag_134\n        /* \"@openzeppelin/contracts/token/ERC20/ERC20.sol\":5356:5394  _spendAllowance(from, spender, amount) */\n      jump\t// in\n    tag_133:\n        /* \"@openzeppelin/contracts/token/ERC20/ERC20.sol\":5404:5431  _transfer(from, to, amount) */\n      tag_135\n        /* \"@openzeppelin/contracts/token/ERC20/ERC20.sol\":5414:5418  from */\n      dup6\n        /* \"@openzeppelin/contracts/token/ERC20/ERC20.sol\":5420:5422  to */\n      dup6\n        /* \"@openzeppelin/contracts/token/ERC20/ERC20.sol\":5424:5430  amount */\n      dup6\n        /* \"@openzeppelin/contracts/token/ERC20/ERC20.sol\":5404:5413  _transfer */\n      tag_136\n        /* \"@openzeppelin/contracts/token/ERC20/ERC20.sol\":5404:5431  _transfer(from, to, amount) */\n      jump\t// in\n    tag_135:\n        /* \"@openzeppelin/contracts/token/ERC20/ERC20.sol\":5448:5452  true */\n      0x01\n        /* \"@openzeppelin/contracts/token/ERC20/ERC20.sol\":5441:5452  return true */\n      swap2\n      pop\n      pop\n        /* \"@openzeppelin/contracts/token/ERC20/ERC20.sol\":5203:5459  function transferFrom(address from, address to, uint256 amount) public virtual override returns (bool) {... */\n      swap4\n      swap3\n      pop\n      pop\n      pop\n      jump\t// out\n        /* \"Staking.sol\":428:476  mapping(uint256 => uint256) public tokenStakedAt */\n    tag_59:\n      mstore(0x20, 0x08)\n      dup1\n      0x00\n      mstore\n      keccak256(0x00, 0x40)\n      0x00\n      swap2\n      pop\n      swap1\n      pop\n      sload\n      dup2\n      jump\t// out\n        /* \"Staking.sol\":1059:1410  function unstake(uint256 tokenId) external {... */\n    tag_63:\n        /* \"Staking.sol\":1145:1155  msg.sender */\n      caller\n        /* \"Staking.sol\":1120:1155  tokenOwnerOf[tokenId] == msg.sender */\n      0xffffffffffffffffffffffffffffffffffffffff\n      and\n        /* \"Staking.sol\":1120:1132  tokenOwnerOf */\n      0x07\n        /* \"Staking.sol\":1120:1141  tokenOwnerOf[tokenId] */\n      0x00\n        /* \"Staking.sol\":1133:1140  tokenId */\n      dup4\n        /* \"Staking.sol\":1120:1141  tokenOwnerOf[tokenId] */\n      dup2\n      mstore\n      0x20\n      add\n      swap1\n      dup2\n      mstore\n      0x20\n      add\n      0x00\n      keccak256\n      0x00\n      swap1\n      sload\n      swap1\n      0x0100\n      exp\n      swap1\n      div\n      0xffffffffffffffffffffffffffffffffffffffff\n      and\n        /* \"Staking.sol\":1120:1155  tokenOwnerOf[tokenId] == msg.sender */\n      0xffffffffffffffffffffffffffffffffffffffff\n      and\n      eq\n        /* \"Staking.sol\":1112:1177  require(tokenOwnerOf[tokenId] == msg.sender, \"You can't unstake\") */\n      tag_138\n      jumpi\n      mload(0x40)\n      0x08c379a000000000000000000000000000000000000000000000000000000000\n      dup2\n      mstore\n      0x04\n      add\n      tag_139\n      swap1\n      tag_140\n      jump\t// in\n    tag_139:\n      mload(0x40)\n      dup1\n      swap2\n      sub\n      swap1\n      revert\n    tag_138:\n        /* \"Staking.sol\":1187:1230  _mint(msg.sender, calculateTokens(tokenId)) */\n      tag_141\n        /* \"Staking.sol\":1193:1203  msg.sender */\n      caller\n        /* \"Staking.sol\":1205:1229  calculateTokens(tokenId) */\n      tag_142\n        /* \"Staking.sol\":1221:1228  tokenId */\n      dup4\n        /* \"Staking.sol\":1205:1220  calculateTokens */\n      tag_85\n        /* \"Staking.sol\":1205:1229  calculateTokens(tokenId) */\n      jump\t// in\n    tag_142:\n        /* \"Staking.sol\":1187:1192  _mint */\n      tag_143\n        /* \"Staking.sol\":1187:1230  _mint(msg.sender, calculateTokens(tokenId)) */\n      jump\t// in\n    tag_141:\n        /* \"Staking.sol\":1274:1277  nft */\n      0x06\n      0x00\n      swap1\n      sload\n      swap1\n      0x0100\n      exp\n      swap1\n      div\n      0xffffffffffffffffffffffffffffffffffffffff\n      and\n        /* \"Staking.sol\":1274:1290  nft.transferFrom */\n      0xffffffffffffffffffffffffffffffffffffffff\n      and\n      0x23b872dd\n        /* \"Staking.sol\":1299:1303  this */\n      address\n        /* \"Staking.sol\":1306:1316  msg.sender */\n      caller\n        /* \"Staking.sol\":1318:1325  tokenId */\n      dup5\n        /* \"Staking.sol\":1274:1326  nft.transferFrom(address(this), msg.sender, tokenId) */\n      mload(0x40)\n      dup5\n      0xffffffff\n      and\n      0xe0\n      shl\n      dup2\n      mstore\n      0x04\n      add\n      tag_144\n      swap4\n      swap3\n      swap2\n      swap1\n      tag_145\n      jump\t// in\n    tag_144:\n      0x00\n      mload(0x40)\n      dup1\n      dup4\n      sub\n      dup2\n      0x00\n      dup8\n      dup1\n      extcodesize\n      iszero\n      dup1\n      iszero\n      tag_146\n      jumpi\n      0x00\n      dup1\n      revert\n    tag_146:\n      pop\n      gas\n      call\n      iszero\n      dup1\n      iszero\n      tag_148\n      jumpi\n      returndatasize\n      0x00\n      dup1\n      returndatacopy\n      revert(0x00, returndatasize)\n    tag_148:\n      pop\n      pop\n      pop\n      pop\n        /* \"Staking.sol\":1343:1355  tokenOwnerOf */\n      0x07\n        /* \"Staking.sol\":1343:1364  tokenOwnerOf[tokenId] */\n      0x00\n        /* \"Staking.sol\":1356:1363  tokenId */\n      dup3\n        /* \"Staking.sol\":1343:1364  tokenOwnerOf[tokenId] */\n      dup2\n      mstore\n      0x20\n      add\n      swap1\n      dup2\n      mstore\n      0x20\n      add\n      0x00\n      keccak256\n      0x00\n        /* \"Staking.sol\":1336:1364  delete tokenOwnerOf[tokenId] */\n      0x0100\n      exp\n      dup2\n      sload\n      swap1\n      0xffffffffffffffffffffffffffffffffffffffff\n      mul\n      not\n      and\n      swap1\n      sstore\n        /* \"Staking.sol\":1381:1394  tokenStakedAt */\n      0x08\n        /* \"Staking.sol\":1381:1403  tokenStakedAt[tokenId] */\n      0x00\n        /* \"Staking.sol\":1395:1402  tokenId */\n      dup3\n        /* \"Staking.sol\":1381:1403  tokenStakedAt[tokenId] */\n      dup2\n      mstore\n      0x20\n      add\n      swap1\n      dup2\n      mstore\n      0x20\n      add\n      0x00\n      keccak256\n        /* \"Staking.sol\":1374:1403  delete tokenStakedAt[tokenId] */\n      0x00\n      swap1\n      sstore\n        /* \"Staking.sol\":1059:1410  function unstake(uint256 tokenId) external {... */\n      pop\n      jump\t// out\n        /* \"@openzeppelin/contracts/token/ERC20/ERC20.sol\":3104:3195  function decimals() public view virtual override returns (uint8) {... */\n    tag_65:\n        /* \"@openzeppelin/contracts/token/ERC20/ERC20.sol\":3162:3167  uint8 */\n      0x00\n        /* \"@openzeppelin/contracts/token/ERC20/ERC20.sol\":3186:3188  18 */\n      0x12\n        /* \"@openzeppelin/contracts/token/ERC20/ERC20.sol\":3179:3188  return 18 */\n      swap1\n      pop\n        /* \"@openzeppelin/contracts/token/ERC20/ERC20.sol\":3104:3195  function decimals() public view virtual override returns (uint8) {... */\n      swap1\n      jump\t// out\n        /* \"@openzeppelin/contracts/token/ERC20/ERC20.sol\":5854:6088  function increaseAllowance(address spender, uint256 addedValue) public virtual returns (bool) {... */\n    tag_70:\n        /* \"@openzeppelin/contracts/token/ERC20/ERC20.sol\":5942:5946  bool */\n      0x00\n        /* \"@openzeppelin/contracts/token/ERC20/ERC20.sol\":5958:5971  address owner */\n      dup1\n        /* \"@openzeppelin/contracts/token/ERC20/ERC20.sol\":5974:5986  _msgSender() */\n      tag_151\n        /* \"@openzeppelin/contracts/token/ERC20/ERC20.sol\":5974:5984  _msgSender */\n      tag_126\n        /* \"@openzeppelin/contracts/token/ERC20/ERC20.sol\":5974:5986  _msgSender() */\n      jump\t// in\n    tag_151:\n        /* \"@openzeppelin/contracts/token/ERC20/ERC20.sol\":5958:5986  address owner = _msgSender() */\n      swap1\n      pop\n        /* \"@openzeppelin/contracts/token/ERC20/ERC20.sol\":5996:6060  _approve(owner, spender, allowance(owner, spender) + addedValue) */\n      tag_152\n        /* \"@openzeppelin/contracts/token/ERC20/ERC20.sol\":6005:6010  owner */\n      dup2\n        /* \"@openzeppelin/contracts/token/ERC20/ERC20.sol\":6012:6019  spender */\n      dup6\n        /* \"@openzeppelin/contracts/token/ERC20/ERC20.sol\":6049:6059  addedValue */\n      dup6\n        /* \"@openzeppelin/contracts/token/ERC20/ERC20.sol\":6021:6046  allowance(owner, spender) */\n      tag_153\n        /* \"@openzeppelin/contracts/token/ERC20/ERC20.sol\":6031:6036  owner */\n      dup6\n        /* \"@openzeppelin/contracts/token/ERC20/ERC20.sol\":6038:6045  spender */\n      dup10\n        /* \"@openzeppelin/contracts/token/ERC20/ERC20.sol\":6021:6030  allowance */\n      tag_112\n        /* \"@openzeppelin/contracts/token/ERC20/ERC20.sol\":6021:6046  allowance(owner, spender) */\n      jump\t// in\n    tag_153:\n        /* \"@openzeppelin/contracts/token/ERC20/ERC20.sol\":6021:6059  allowance(owner, spender) + addedValue */\n      tag_154\n      swap2\n      swap1\n      tag_155\n      jump\t// in\n    tag_154:\n        /* \"@openzeppelin/contracts/token/ERC20/ERC20.sol\":5996:6004  _approve */\n      tag_128\n        /* \"@openzeppelin/contracts/token/ERC20/ERC20.sol\":5996:6060  _approve(owner, spender, allowance(owner, spender) + addedValue) */\n      jump\t// in\n    tag_152:\n        /* \"@openzeppelin/contracts/token/ERC20/ERC20.sol\":6077:6081  true */\n      0x01\n        /* \"@openzeppelin/contracts/token/ERC20/ERC20.sol\":6070:6081  return true */\n      swap2\n      pop\n      pop\n        /* \"@openzeppelin/contracts/token/ERC20/ERC20.sol\":5854:6088  function increaseAllowance(address spender, uint256 addedValue) public virtual returns (bool) {... */\n      swap3\n      swap2\n      pop\n      pop\n      jump\t// out\n        /* \"Staking.sol\":351:369  IERC721 public nft */\n    tag_73:\n      0x06\n      0x00\n      swap1\n      sload\n      swap1\n      0x0100\n      exp\n      swap1\n      div\n      0xffffffffffffffffffffffffffffffffffffffff\n      and\n      dup2\n      jump\t// out\n        /* \"@openzeppelin/contracts/token/ERC20/ERC20.sol\":3419:3544  function balanceOf(address account) public view virtual override returns (uint256) {... */\n    tag_79:\n        /* \"@openzeppelin/contracts/token/ERC20/ERC20.sol\":3493:3500  uint256 */\n      0x00\n        /* \"@openzeppelin/contracts/token/ERC20/ERC20.sol\":3519:3528  _balances */\n      dup1\n        /* \"@openzeppelin/contracts/token/ERC20/ERC20.sol\":3519:3537  _balances[account] */\n      0x00\n        /* \"@openzeppelin/contracts/token/ERC20/ERC20.sol\":3529:3536  account */\n      dup4\n        /* \"@openzeppelin/contracts/token/ERC20/ERC20.sol\":3519:3537  _balances[account] */\n      0xffffffffffffffffffffffffffffffffffffffff\n      and\n      0xffffffffffffffffffffffffffffffffffffffff\n      and\n      dup2\n      mstore\n      0x20\n      add\n      swap1\n      dup2\n      mstore\n      0x20\n      add\n      0x00\n      keccak256\n      sload\n        /* \"@openzeppelin/contracts/token/ERC20/ERC20.sol\":3512:3537  return _balances[account] */\n      swap1\n      pop\n        /* \"@openzeppelin/contracts/token/ERC20/ERC20.sol\":3419:3544  function balanceOf(address account) public view virtual override returns (uint256) {... */\n      swap2\n      swap1\n      pop\n      jump\t// out\n        /* \"@openzeppelin/contracts/access/Ownable.sol\":1824:1925  function renounceOwnership() public virtual onlyOwner {... */\n    tag_82:\n        /* \"@openzeppelin/contracts/access/Ownable.sol\":1094:1107  _checkOwner() */\n      tag_158\n        /* \"@openzeppelin/contracts/access/Ownable.sol\":1094:1105  _checkOwner */\n      tag_159\n        /* \"@openzeppelin/contracts/access/Ownable.sol\":1094:1107  _checkOwner() */\n      jump\t// in\n    tag_158:\n        /* \"@openzeppelin/contracts/access/Ownable.sol\":1888:1918  _transferOwnership(address(0)) */\n      tag_161\n        /* \"@openzeppelin/contracts/access/Ownable.sol\":1915:1916  0 */\n      0x00\n        /* \"@openzeppelin/contracts/access/Ownable.sol\":1888:1906  _transferOwnership */\n      tag_162\n        /* \"@openzeppelin/contracts/access/Ownable.sol\":1888:1918  _transferOwnership(address(0)) */\n      jump\t// in\n    tag_161:\n        /* \"@openzeppelin/contracts/access/Ownable.sol\":1824:1925  function renounceOwnership() public virtual onlyOwner {... */\n      jump\t// out\n        /* \"Staking.sol\":858:1053  function calculateTokens(uint256 tokenId) public view returns (uint256) {... */\n    tag_85:\n        /* \"Staking.sol\":921:928  uint256 */\n      0x00\n        /* \"Staking.sol\":940:959  uint256 timeElapsed */\n      dup1\n        /* \"Staking.sol\":980:993  tokenStakedAt */\n      0x08\n        /* \"Staking.sol\":980:1002  tokenStakedAt[tokenId] */\n      0x00\n        /* \"Staking.sol\":994:1001  tokenId */\n      dup5\n        /* \"Staking.sol\":980:1002  tokenStakedAt[tokenId] */\n      dup2\n      mstore\n      0x20\n      add\n      swap1\n      dup2\n      mstore\n      0x20\n      add\n      0x00\n      keccak256\n      sload\n        /* \"Staking.sol\":962:977  block.timestamp */\n      timestamp\n        /* \"Staking.sol\":962:1002  block.timestamp - tokenStakedAt[tokenId] */\n      tag_164\n      swap2\n      swap1\n      tag_165\n      jump\t// in\n    tag_164:\n        /* \"Staking.sol\":940:1002  uint256 timeElapsed = block.timestamp - tokenStakedAt[tokenId] */\n      swap1\n      pop\n        /* \"Staking.sol\":1033:1046  EMISSION_RATE */\n      sload(0x09)\n        /* \"Staking.sol\":1019:1030  timeElapsed */\n      dup2\n        /* \"Staking.sol\":1019:1046  timeElapsed * EMISSION_RATE */\n      tag_166\n      swap2\n      swap1\n      tag_167\n      jump\t// in\n    tag_166:\n        /* \"Staking.sol\":1012:1046  return timeElapsed * EMISSION_RATE */\n      swap2\n      pop\n      pop\n        /* \"Staking.sol\":858:1053  function calculateTokens(uint256 tokenId) public view returns (uint256) {... */\n      swap2\n      swap1\n      pop\n      jump\t// out\n        /* \"Staking.sol\":375:422  mapping(uint256 => address) public tokenOwnerOf */\n    tag_89:\n      mstore(0x20, 0x07)\n      dup1\n      0x00\n      mstore\n      keccak256(0x00, 0x40)\n      0x00\n      swap2\n      pop\n      sload\n      swap1\n      0x0100\n      exp\n      swap1\n      div\n      0xffffffffffffffffffffffffffffffffffffffff\n      and\n      dup2\n      jump\t// out\n        /* \"@openzeppelin/contracts/access/Ownable.sol\":1201:1286  function owner() public view virtual returns (address) {... */\n    tag_93:\n        /* \"@openzeppelin/contracts/access/Ownable.sol\":1247:1254  address */\n      0x00\n        /* \"@openzeppelin/contracts/access/Ownable.sol\":1273:1279  _owner */\n      0x05\n      0x00\n      swap1\n      sload\n      swap1\n      0x0100\n      exp\n      swap1\n      div\n      0xffffffffffffffffffffffffffffffffffffffff\n      and\n        /* \"@openzeppelin/contracts/access/Ownable.sol\":1266:1279  return _owner */\n      swap1\n      pop\n        /* \"@openzeppelin/contracts/access/Ownable.sol\":1201:1286  function owner() public view virtual returns (address) {... */\n      swap1\n      jump\t// out\n        /* \"@openzeppelin/contracts/token/ERC20/ERC20.sol\":2369:2471  function symbol() public view virtual override returns (string memory) {... */\n    tag_96:\n        /* \"@openzeppelin/contracts/token/ERC20/ERC20.sol\":2425:2438  string memory */\n      0x60\n        /* \"@openzeppelin/contracts/token/ERC20/ERC20.sol\":2457:2464  _symbol */\n      0x04\n        /* \"@openzeppelin/contracts/token/ERC20/ERC20.sol\":2450:2464  return _symbol */\n      dup1\n      sload\n      tag_170\n      swap1\n      tag_119\n      jump\t// in\n    tag_170:\n      dup1\n      0x1f\n      add\n      0x20\n      dup1\n      swap2\n      div\n      mul\n      0x20\n      add\n      mload(0x40)\n      swap1\n      dup2\n      add\n      0x40\n      mstore\n      dup1\n      swap3\n      swap2\n      swap1\n      dup2\n      dup2\n      mstore\n      0x20\n      add\n      dup3\n      dup1\n      sload\n      tag_171\n      swap1\n      tag_119\n      jump\t// in\n    tag_171:\n      dup1\n      iszero\n      tag_172\n      jumpi\n      dup1\n      0x1f\n      lt\n      tag_173\n      jumpi\n      0x0100\n      dup1\n      dup4\n      sload\n      div\n      mul\n      dup4\n      mstore\n      swap2\n      0x20\n      add\n      swap2\n      jump(tag_172)\n    tag_173:\n      dup3\n      add\n      swap2\n      swap1\n      0x00\n      mstore\n      keccak256(0x00, 0x20)\n      swap1\n    tag_174:\n      dup2\n      sload\n      dup2\n      mstore\n      swap1\n      0x01\n      add\n      swap1\n      0x20\n      add\n      dup1\n      dup4\n      gt\n      tag_174\n      jumpi\n      dup3\n      swap1\n      sub\n      0x1f\n      and\n      dup3\n      add\n      swap2\n    tag_172:\n      pop\n      pop\n      pop\n      pop\n      pop\n      swap1\n      pop\n        /* \"@openzeppelin/contracts/token/ERC20/ERC20.sol\":2369:2471  function symbol() public view virtual override returns (string memory) {... */\n      swap1\n      jump\t// out\n        /* \"@openzeppelin/contracts/token/ERC20/ERC20.sol\":6575:7002  function decreaseAllowance(address spender, uint256 subtractedValue) public virtual returns (bool) {... */\n    tag_100:\n        /* \"@openzeppelin/contracts/token/ERC20/ERC20.sol\":6668:6672  bool */\n      0x00\n        /* \"@openzeppelin/contracts/token/ERC20/ERC20.sol\":6684:6697  address owner */\n      dup1\n        /* \"@openzeppelin/contracts/token/ERC20/ERC20.sol\":6700:6712  _msgSender() */\n      tag_176\n        /* \"@openzeppelin/contracts/token/ERC20/ERC20.sol\":6700:6710  _msgSender */\n      tag_126\n        /* \"@openzeppelin/contracts/token/ERC20/ERC20.sol\":6700:6712  _msgSender() */\n      jump\t// in\n    tag_176:\n        /* \"@openzeppelin/contracts/token/ERC20/ERC20.sol\":6684:6712  address owner = _msgSender() */\n      swap1\n      pop\n        /* \"@openzeppelin/contracts/token/ERC20/ERC20.sol\":6722:6746  uint256 currentAllowance */\n      0x00\n        /* \"@openzeppelin/contracts/token/ERC20/ERC20.sol\":6749:6774  allowance(owner, spender) */\n      tag_177\n        /* \"@openzeppelin/contracts/token/ERC20/ERC20.sol\":6759:6764  owner */\n      dup3\n        /* \"@openzeppelin/contracts/token/ERC20/ERC20.sol\":6766:6773  spender */\n      dup7\n        /* \"@openzeppelin/contracts/token/ERC20/ERC20.sol\":6749:6758  allowance */\n      tag_112\n        /* \"@openzeppelin/contracts/token/ERC20/ERC20.sol\":6749:6774  allowance(owner, spender) */\n      jump\t// in\n    tag_177:\n        /* \"@openzeppelin/contracts/token/ERC20/ERC20.sol\":6722:6774  uint256 currentAllowance = allowance(owner, spender) */\n      swap1\n      pop\n        /* \"@openzeppelin/contracts/token/ERC20/ERC20.sol\":6812:6827  subtractedValue */\n      dup4\n        /* \"@openzeppelin/contracts/token/ERC20/ERC20.sol\":6792:6808  currentAllowance */\n      dup2\n        /* \"@openzeppelin/contracts/token/ERC20/ERC20.sol\":6792:6827  currentAllowance >= subtractedValue */\n      lt\n      iszero\n        /* \"@openzeppelin/contracts/token/ERC20/ERC20.sol\":6784:6869  require(currentAllowance >= subtractedValue, \"ERC20: decreased allowance below zero\") */\n      tag_178\n      jumpi\n      mload(0x40)\n      0x08c379a000000000000000000000000000000000000000000000000000000000\n      dup2\n      mstore\n      0x04\n      add\n      tag_179\n      swap1\n      tag_180\n      jump\t// in\n    tag_179:\n      mload(0x40)\n      dup1\n      swap2\n      sub\n      swap1\n      revert\n    tag_178:\n        /* \"@openzeppelin/contracts/token/ERC20/ERC20.sol\":6903:6963  _approve(owner, spender, currentAllowance - subtractedValue) */\n      tag_181\n        /* \"@openzeppelin/contracts/token/ERC20/ERC20.sol\":6912:6917  owner */\n      dup3\n        /* \"@openzeppelin/contracts/token/ERC20/ERC20.sol\":6919:6926  spender */\n      dup7\n        /* \"@openzeppelin/contracts/token/ERC20/ERC20.sol\":6947:6962  subtractedValue */\n      dup7\n        /* \"@openzeppelin/contracts/token/ERC20/ERC20.sol\":6928:6944  currentAllowance */\n      dup5\n        /* \"@openzeppelin/contracts/token/ERC20/ERC20.sol\":6928:6962  currentAllowance - subtractedValue */\n      sub\n        /* \"@openzeppelin/contracts/token/ERC20/ERC20.sol\":6903:6911  _approve */\n      tag_128\n        /* \"@openzeppelin/contracts/token/ERC20/ERC20.sol\":6903:6963  _approve(owner, spender, currentAllowance - subtractedValue) */\n      jump\t// in\n    tag_181:\n        /* \"@openzeppelin/contracts/token/ERC20/ERC20.sol\":6991:6995  true */\n      0x01\n        /* \"@openzeppelin/contracts/token/ERC20/ERC20.sol\":6984:6995  return true */\n      swap3\n      pop\n      pop\n      pop\n        /* \"@openzeppelin/contracts/token/ERC20/ERC20.sol\":6575:7002  function decreaseAllowance(address spender, uint256 subtractedValue) public virtual returns (bool) {... */\n      swap3\n      swap2\n      pop\n      pop\n      jump\t// out\n        /* \"Staking.sol\":644:852  function stake(uint256 tokenId) external {... */\n    tag_104:\n        /* \"Staking.sol\":695:698  nft */\n      0x06\n      0x00\n      swap1\n      sload\n      swap1\n      0x0100\n      exp\n      swap1\n      div\n      0xffffffffffffffffffffffffffffffffffffffff\n      and\n        /* \"Staking.sol\":695:715  nft.safeTransferFrom */\n      0xffffffffffffffffffffffffffffffffffffffff\n      and\n      0x42842e0e\n        /* \"Staking.sol\":716:726  msg.sender */\n      caller\n        /* \"Staking.sol\":736:740  this */\n      address\n        /* \"Staking.sol\":743:750  tokenId */\n      dup5\n        /* \"Staking.sol\":695:751  nft.safeTransferFrom(msg.sender, address(this), tokenId) */\n      mload(0x40)\n      dup5\n      0xffffffff\n      and\n      0xe0\n      shl\n      dup2\n      mstore\n      0x04\n      add\n      tag_183\n      swap4\n      swap3\n      swap2\n      swap1\n      tag_145\n      jump\t// in\n    tag_183:\n      0x00\n      mload(0x40)\n      dup1\n      dup4\n      sub\n      dup2\n      0x00\n      dup8\n      dup1\n      extcodesize\n      iszero\n      dup1\n      iszero\n      tag_184\n      jumpi\n      0x00\n      dup1\n      revert\n    tag_184:\n      pop\n      gas\n      call\n      iszero\n      dup1\n      iszero\n      tag_186\n      jumpi\n      returndatasize\n      0x00\n      dup1\n      returndatacopy\n      revert(0x00, returndatasize)\n    tag_186:\n      pop\n      pop\n      pop\n      pop\n        /* \"Staking.sol\":785:795  msg.sender */\n      caller\n        /* \"Staking.sol\":761:773  tokenOwnerOf */\n      0x07\n        /* \"Staking.sol\":761:782  tokenOwnerOf[tokenId] */\n      0x00\n        /* \"Staking.sol\":774:781  tokenId */\n      dup4\n        /* \"Staking.sol\":761:782  tokenOwnerOf[tokenId] */\n      dup2\n      mstore\n      0x20\n      add\n      swap1\n      dup2\n      mstore\n      0x20\n      add\n      0x00\n      keccak256\n      0x00\n        /* \"Staking.sol\":761:795  tokenOwnerOf[tokenId] = msg.sender */\n      0x0100\n      exp\n      dup2\n      sload\n      dup2\n      0xffffffffffffffffffffffffffffffffffffffff\n      mul\n      not\n      and\n      swap1\n      dup4\n      0xffffffffffffffffffffffffffffffffffffffff\n      and\n      mul\n      or\n      swap1\n      sstore\n      pop\n        /* \"Staking.sol\":830:845  block.timestamp */\n      timestamp\n        /* \"Staking.sol\":805:818  tokenStakedAt */\n      0x08\n        /* \"Staking.sol\":805:827  tokenStakedAt[tokenId] */\n      0x00\n        /* \"Staking.sol\":819:826  tokenId */\n      dup4\n        /* \"Staking.sol\":805:827  tokenStakedAt[tokenId] */\n      dup2\n      mstore\n      0x20\n      add\n      swap1\n      dup2\n      mstore\n      0x20\n      add\n      0x00\n      keccak256\n        /* \"Staking.sol\":805:845  tokenStakedAt[tokenId] = block.timestamp */\n      dup2\n      swap1\n      sstore\n      pop\n        /* \"Staking.sol\":644:852  function stake(uint256 tokenId) external {... */\n      pop\n      jump\t// out\n        /* \"@openzeppelin/contracts/token/ERC20/ERC20.sol\":3740:3929  function transfer(address to, uint256 amount) public virtual override returns (bool) {... */\n    tag_107:\n        /* \"@openzeppelin/contracts/token/ERC20/ERC20.sol\":3819:3823  bool */\n      0x00\n        /* \"@openzeppelin/contracts/token/ERC20/ERC20.sol\":3835:3848  address owner */\n      dup1\n        /* \"@openzeppelin/contracts/token/ERC20/ERC20.sol\":3851:3863  _msgSender() */\n      tag_188\n        /* \"@openzeppelin/contracts/token/ERC20/ERC20.sol\":3851:3861  _msgSender */\n      tag_126\n        /* \"@openzeppelin/contracts/token/ERC20/ERC20.sol\":3851:3863  _msgSender() */\n      jump\t// in\n    tag_188:\n        /* \"@openzeppelin/contracts/token/ERC20/ERC20.sol\":3835:3863  address owner = _msgSender() */\n      swap1\n      pop\n        /* \"@openzeppelin/contracts/token/ERC20/ERC20.sol\":3873:3901  _transfer(owner, to, amount) */\n      tag_189\n        /* \"@openzeppelin/contracts/token/ERC20/ERC20.sol\":3883:3888  owner */\n      dup2\n        /* \"@openzeppelin/contracts/token/ERC20/ERC20.sol\":3890:3892  to */\n      dup6\n        /* \"@openzeppelin/contracts/token/ERC20/ERC20.sol\":3894:3900  amount */\n      dup6\n        /* \"@openzeppelin/contracts/token/ERC20/ERC20.sol\":3873:3882  _transfer */\n      tag_136\n        /* \"@openzeppelin/contracts/token/ERC20/ERC20.sol\":3873:3901  _transfer(owner, to, amount) */\n      jump\t// in\n    tag_189:\n        /* \"@openzeppelin/contracts/token/ERC20/ERC20.sol\":3918:3922  true */\n      0x01\n        /* \"@openzeppelin/contracts/token/ERC20/ERC20.sol\":3911:3922  return true */\n      swap2\n      pop\n      pop\n        /* \"@openzeppelin/contracts/token/ERC20/ERC20.sol\":3740:3929  function transfer(address to, uint256 amount) public virtual override returns (bool) {... */\n      swap3\n      swap2\n      pop\n      pop\n      jump\t// out\n        /* \"@openzeppelin/contracts/token/ERC20/ERC20.sol\":3987:4136  function allowance(address owner, address spender) public view virtual override returns (uint256) {... */\n    tag_112:\n        /* \"@openzeppelin/contracts/token/ERC20/ERC20.sol\":4076:4083  uint256 */\n      0x00\n        /* \"@openzeppelin/contracts/token/ERC20/ERC20.sol\":4102:4113  _allowances */\n      0x01\n        /* \"@openzeppelin/contracts/token/ERC20/ERC20.sol\":4102:4120  _allowances[owner] */\n      0x00\n        /* \"@openzeppelin/contracts/token/ERC20/ERC20.sol\":4114:4119  owner */\n      dup5\n        /* \"@openzeppelin/contracts/token/ERC20/ERC20.sol\":4102:4120  _allowances[owner] */\n      0xffffffffffffffffffffffffffffffffffffffff\n      and\n      0xffffffffffffffffffffffffffffffffffffffff\n      and\n      dup2\n      mstore\n      0x20\n      add\n      swap1\n      dup2\n      mstore\n      0x20\n      add\n      0x00\n      keccak256\n        /* \"@openzeppelin/contracts/token/ERC20/ERC20.sol\":4102:4129  _allowances[owner][spender] */\n      0x00\n        /* \"@openzeppelin/contracts/token/ERC20/ERC20.sol\":4121:4128  spender */\n      dup4\n        /* \"@openzeppelin/contracts/token/ERC20/ERC20.sol\":4102:4129  _allowances[owner][spender] */\n      0xffffffffffffffffffffffffffffffffffffffff\n      and\n      0xffffffffffffffffffffffffffffffffffffffff\n      and\n      dup2\n      mstore\n      0x20\n      add\n      swap1\n      dup2\n      mstore\n      0x20\n      add\n      0x00\n      keccak256\n      sload\n        /* \"@openzeppelin/contracts/token/ERC20/ERC20.sol\":4095:4129  return _allowances[owner][spender] */\n      swap1\n      pop\n        /* \"@openzeppelin/contracts/token/ERC20/ERC20.sol\":3987:4136  function allowance(address owner, address spender) public view virtual override returns (uint256) {... */\n      swap3\n      swap2\n      pop\n      pop\n      jump\t// out\n        /* \"@openzeppelin/contracts/access/Ownable.sol\":2074:2272  function transferOwnership(address newOwner) public virtual onlyOwner {... */\n    tag_116:\n        /* \"@openzeppelin/contracts/access/Ownable.sol\":1094:1107  _checkOwner() */\n      tag_192\n        /* \"@openzeppelin/contracts/access/Ownable.sol\":1094:1105  _checkOwner */\n      tag_159\n        /* \"@openzeppelin/contracts/access/Ownable.sol\":1094:1107  _checkOwner() */\n      jump\t// in\n    tag_192:\n        /* \"@openzeppelin/contracts/access/Ownable.sol\":2182:2183  0 */\n      0x00\n        /* \"@openzeppelin/contracts/access/Ownable.sol\":2162:2184  newOwner != address(0) */\n      0xffffffffffffffffffffffffffffffffffffffff\n      and\n        /* \"@openzeppelin/contracts/access/Ownable.sol\":2162:2170  newOwner */\n      dup2\n        /* \"@openzeppelin/contracts/access/Ownable.sol\":2162:2184  newOwner != address(0) */\n      0xffffffffffffffffffffffffffffffffffffffff\n      and\n      sub\n        /* \"@openzeppelin/contracts/access/Ownable.sol\":2154:2227  require(newOwner != address(0), \"Ownable: new owner is the zero address\") */\n      tag_194\n      jumpi\n      mload(0x40)\n      0x08c379a000000000000000000000000000000000000000000000000000000000\n      dup2\n      mstore\n      0x04\n      add\n      tag_195\n      swap1\n      tag_196\n      jump\t// in\n    tag_195:\n      mload(0x40)\n      dup1\n      swap2\n      sub\n      swap1\n      revert\n    tag_194:\n        /* \"@openzeppelin/contracts/access/Ownable.sol\":2237:2265  _transferOwnership(newOwner) */\n      tag_197\n        /* \"@openzeppelin/contracts/access/Ownable.sol\":2256:2264  newOwner */\n      dup2\n        /* \"@openzeppelin/contracts/access/Ownable.sol\":2237:2255  _transferOwnership */\n      tag_162\n        /* \"@openzeppelin/contracts/access/Ownable.sol\":2237:2265  _transferOwnership(newOwner) */\n      jump\t// in\n    tag_197:\n        /* \"@openzeppelin/contracts/access/Ownable.sol\":2074:2272  function transferOwnership(address newOwner) public virtual onlyOwner {... */\n      pop\n      jump\t// out\n        /* \"@openzeppelin/contracts/utils/Context.sol\":640:736  function _msgSender() internal view virtual returns (address) {... */\n    tag_126:\n        /* \"@openzeppelin/contracts/utils/Context.sol\":693:700  address */\n      0x00\n        /* \"@openzeppelin/contracts/utils/Context.sol\":719:729  msg.sender */\n      caller\n        /* \"@openzeppelin/contracts/utils/Context.sol\":712:729  return msg.sender */\n      swap1\n      pop\n        /* \"@openzeppelin/contracts/utils/Context.sol\":640:736  function _msgSender() internal view virtual returns (address) {... */\n      swap1\n      jump\t// out\n        /* \"@openzeppelin/contracts/token/ERC20/ERC20.sol\":10457:10797  function _approve(address owner, address spender, uint256 amount) internal virtual {... */\n    tag_128:\n        /* \"@openzeppelin/contracts/token/ERC20/ERC20.sol\":10575:10576  0 */\n      0x00\n        /* \"@openzeppelin/contracts/token/ERC20/ERC20.sol\":10558:10577  owner != address(0) */\n      0xffffffffffffffffffffffffffffffffffffffff\n      and\n        /* \"@openzeppelin/contracts/token/ERC20/ERC20.sol\":10558:10563  owner */\n      dup4\n        /* \"@openzeppelin/contracts/token/ERC20/ERC20.sol\":10558:10577  owner != address(0) */\n      0xffffffffffffffffffffffffffffffffffffffff\n      and\n      sub\n        /* \"@openzeppelin/contracts/token/ERC20/ERC20.sol\":10550:10618  require(owner != address(0), \"ERC20: approve from the zero address\") */\n      tag_200\n      jumpi\n      mload(0x40)\n      0x08c379a000000000000000000000000000000000000000000000000000000000\n      dup2\n      mstore\n      0x04\n      add\n      tag_201\n      swap1\n      tag_202\n      jump\t// in\n    tag_201:\n      mload(0x40)\n      dup1\n      swap2\n      sub\n      swap1\n      revert\n    tag_200:\n        /* \"@openzeppelin/contracts/token/ERC20/ERC20.sol\":10655:10656  0 */\n      0x00\n        /* \"@openzeppelin/contracts/token/ERC20/ERC20.sol\":10636:10657  spender != address(0) */\n      0xffffffffffffffffffffffffffffffffffffffff\n      and\n        /* \"@openzeppelin/contracts/token/ERC20/ERC20.sol\":10636:10643  spender */\n      dup3\n        /* \"@openzeppelin/contracts/token/ERC20/ERC20.sol\":10636:10657  spender != address(0) */\n      0xffffffffffffffffffffffffffffffffffffffff\n      and\n      sub\n        /* \"@openzeppelin/contracts/token/ERC20/ERC20.sol\":10628:10696  require(spender != address(0), \"ERC20: approve to the zero address\") */\n      tag_203\n      jumpi\n      mload(0x40)\n      0x08c379a000000000000000000000000000000000000000000000000000000000\n      dup2\n      mstore\n      0x04\n      add\n      tag_204\n      swap1\n      tag_205\n      jump\t// in\n    tag_204:\n      mload(0x40)\n      dup1\n      swap2\n      sub\n      swap1\n      revert\n    tag_203:\n        /* \"@openzeppelin/contracts/token/ERC20/ERC20.sol\":10737:10743  amount */\n      dup1\n        /* \"@openzeppelin/contracts/token/ERC20/ERC20.sol\":10707:10718  _allowances */\n      0x01\n        /* \"@openzeppelin/contracts/token/ERC20/ERC20.sol\":10707:10725  _allowances[owner] */\n      0x00\n        /* \"@openzeppelin/contracts/token/ERC20/ERC20.sol\":10719:10724  owner */\n      dup6\n        /* \"@openzeppelin/contracts/token/ERC20/ERC20.sol\":10707:10725  _allowances[owner] */\n      0xffffffffffffffffffffffffffffffffffffffff\n      and\n      0xffffffffffffffffffffffffffffffffffffffff\n      and\n      dup2\n      mstore\n      0x20\n      add\n      swap1\n      dup2\n      mstore\n      0x20\n      add\n      0x00\n      keccak256\n        /* \"@openzeppelin/contracts/token/ERC20/ERC20.sol\":10707:10734  _allowances[owner][spender] */\n      0x00\n        /* \"@openzeppelin/contracts/token/ERC20/ERC20.sol\":10726:10733  spender */\n      dup5\n        /* \"@openzeppelin/contracts/token/ERC20/ERC20.sol\":10707:10734  _allowances[owner][spender] */\n      0xffffffffffffffffffffffffffffffffffffffff\n      and\n      0xffffffffffffffffffffffffffffffffffffffff\n      and\n      dup2\n      mstore\n      0x20\n      add\n      swap1\n      dup2\n      mstore\n      0x20\n      add\n      0x00\n      keccak256\n        /* \"@openzeppelin/contracts/token/ERC20/ERC20.sol\":10707:10743  _allowances[owner][spender] = amount */\n      dup2\n      swap1\n      sstore\n      pop\n        /* \"@openzeppelin/contracts/token/ERC20/ERC20.sol\":10774:10781  spender */\n      dup2\n        /* \"@openzeppelin/contracts/token/ERC20/ERC20.sol\":10758:10790  Approval(owner, spender, amount) */\n      0xffffffffffffffffffffffffffffffffffffffff\n      and\n        /* \"@openzeppelin/contracts/token/ERC20/ERC20.sol\":10767:10772  owner */\n      dup4\n        /* \"@openzeppelin/contracts/token/ERC20/ERC20.sol\":10758:10790  Approval(owner, spender, amount) */\n      0xffffffffffffffffffffffffffffffffffffffff\n      and\n      0x8c5be1e5ebec7d5bd14f71427d1e84f3dd0314c0f7b2291e5b200ac8c7c3b925\n        /* \"@openzeppelin/contracts/token/ERC20/ERC20.sol\":10783:10789  amount */\n      dup4\n        /* \"@openzeppelin/contracts/token/ERC20/ERC20.sol\":10758:10790  Approval(owner, spender, amount) */\n      mload(0x40)\n      tag_206\n      swap2\n      swap1\n      tag_31\n      jump\t// in\n    tag_206:\n      mload(0x40)\n      dup1\n      swap2\n      sub\n      swap1\n      log3\n        /* \"@openzeppelin/contracts/token/ERC20/ERC20.sol\":10457:10797  function _approve(address owner, address spender, uint256 amount) internal virtual {... */\n      pop\n      pop\n      pop\n      jump\t// out\n        /* \"@openzeppelin/contracts/token/ERC20/ERC20.sol\":11078:11489  function _spendAllowance(address owner, address spender, uint256 amount) internal virtual {... */\n    tag_134:\n        /* \"@openzeppelin/contracts/token/ERC20/ERC20.sol\":11178:11202  uint256 currentAllowance */\n      0x00\n        /* \"@openzeppelin/contracts/token/ERC20/ERC20.sol\":11205:11230  allowance(owner, spender) */\n      tag_208\n        /* \"@openzeppelin/contracts/token/ERC20/ERC20.sol\":11215:11220  owner */\n      dup5\n        /* \"@openzeppelin/contracts/token/ERC20/ERC20.sol\":11222:11229  spender */\n      dup5\n        /* \"@openzeppelin/contracts/token/ERC20/ERC20.sol\":11205:11214  allowance */\n      tag_112\n        /* \"@openzeppelin/contracts/token/ERC20/ERC20.sol\":11205:11230  allowance(owner, spender) */\n      jump\t// in\n    tag_208:\n        /* \"@openzeppelin/contracts/token/ERC20/ERC20.sol\":11178:11230  uint256 currentAllowance = allowance(owner, spender) */\n      swap1\n      pop\n        /* \"@openzeppelin/contracts/token/ERC20/ERC20.sol\":11264:11281  type(uint256).max */\n      0xffffffffffffffffffffffffffffffffffffffffffffffffffffffffffffffff\n        /* \"@openzeppelin/contracts/token/ERC20/ERC20.sol\":11244:11260  currentAllowance */\n      dup2\n        /* \"@openzeppelin/contracts/token/ERC20/ERC20.sol\":11244:11281  currentAllowance != type(uint256).max */\n      eq\n        /* \"@openzeppelin/contracts/token/ERC20/ERC20.sol\":11240:11483  if (currentAllowance != type(uint256).max) {... */\n      tag_209\n      jumpi\n        /* \"@openzeppelin/contracts/token/ERC20/ERC20.sol\":11325:11331  amount */\n      dup2\n        /* \"@openzeppelin/contracts/token/ERC20/ERC20.sol\":11305:11321  currentAllowance */\n      dup2\n        /* \"@openzeppelin/contracts/token/ERC20/ERC20.sol\":11305:11331  currentAllowance >= amount */\n      lt\n      iszero\n        /* \"@openzeppelin/contracts/token/ERC20/ERC20.sol\":11297:11365  require(currentAllowance >= amount, \"ERC20: insufficient allowance\") */\n      tag_210\n      jumpi\n      mload(0x40)\n      0x08c379a000000000000000000000000000000000000000000000000000000000\n      dup2\n      mstore\n      0x04\n      add\n      tag_211\n      swap1\n      tag_212\n      jump\t// in\n    tag_211:\n      mload(0x40)\n      dup1\n      swap2\n      sub\n      swap1\n      revert\n    tag_210:\n        /* \"@openzeppelin/contracts/token/ERC20/ERC20.sol\":11407:11458  _approve(owner, spender, currentAllowance - amount) */\n      tag_213\n        /* \"@openzeppelin/contracts/token/ERC20/ERC20.sol\":11416:11421  owner */\n      dup5\n        /* \"@openzeppelin/contracts/token/ERC20/ERC20.sol\":11423:11430  spender */\n      dup5\n        /* \"@openzeppelin/contracts/token/ERC20/ERC20.sol\":11451:11457  amount */\n      dup5\n        /* \"@openzeppelin/contracts/token/ERC20/ERC20.sol\":11432:11448  currentAllowance */\n      dup5\n        /* \"@openzeppelin/contracts/token/ERC20/ERC20.sol\":11432:11457  currentAllowance - amount */\n      sub\n        /* \"@openzeppelin/contracts/token/ERC20/ERC20.sol\":11407:11415  _approve */\n      tag_128\n        /* \"@openzeppelin/contracts/token/ERC20/ERC20.sol\":11407:11458  _approve(owner, spender, currentAllowance - amount) */\n      jump\t// in\n    tag_213:\n        /* \"@openzeppelin/contracts/token/ERC20/ERC20.sol\":11240:11483  if (currentAllowance != type(uint256).max) {... */\n    tag_209:\n        /* \"@openzeppelin/contracts/token/ERC20/ERC20.sol\":11168:11489  {... */\n      pop\n        /* \"@openzeppelin/contracts/token/ERC20/ERC20.sol\":11078:11489  function _spendAllowance(address owner, address spender, uint256 amount) internal virtual {... */\n      pop\n      pop\n      pop\n      jump\t// out\n        /* \"@openzeppelin/contracts/token/ERC20/ERC20.sol\":7456:8244  function _transfer(address from, address to, uint256 amount) internal virtual {... */\n    tag_136:\n        /* \"@openzeppelin/contracts/token/ERC20/ERC20.sol\":7568:7569  0 */\n      0x00\n        /* \"@openzeppelin/contracts/token/ERC20/ERC20.sol\":7552:7570  from != address(0) */\n      0xffffffffffffffffffffffffffffffffffffffff\n      and\n        /* \"@openzeppelin/contracts/token/ERC20/ERC20.sol\":7552:7556  from */\n      dup4\n        /* \"@openzeppelin/contracts/token/ERC20/ERC20.sol\":7552:7570  from != address(0) */\n      0xffffffffffffffffffffffffffffffffffffffff\n      and\n      sub\n        /* \"@openzeppelin/contracts/token/ERC20/ERC20.sol\":7544:7612  require(from != address(0), \"ERC20: transfer from the zero address\") */\n      tag_215\n      jumpi\n      mload(0x40)\n      0x08c379a000000000000000000000000000000000000000000000000000000000\n      dup2\n      mstore\n      0x04\n      add\n      tag_216\n      swap1\n      tag_217\n      jump\t// in\n    tag_216:\n      mload(0x40)\n      dup1\n      swap2\n      sub\n      swap1\n      revert\n    tag_215:\n        /* \"@openzeppelin/contracts/token/ERC20/ERC20.sol\":7644:7645  0 */\n      0x00\n        /* \"@openzeppelin/contracts/token/ERC20/ERC20.sol\":7630:7646  to != address(0) */\n      0xffffffffffffffffffffffffffffffffffffffff\n      and\n        /* \"@openzeppelin/contracts/token/ERC20/ERC20.sol\":7630:7632  to */\n      dup3\n        /* \"@openzeppelin/contracts/token/ERC20/ERC20.sol\":7630:7646  to != address(0) */\n      0xffffffffffffffffffffffffffffffffffffffff\n      and\n      sub\n        /* \"@openzeppelin/contracts/token/ERC20/ERC20.sol\":7622:7686  require(to != address(0), \"ERC20: transfer to the zero address\") */\n      tag_218\n      jumpi\n      mload(0x40)\n      0x08c379a000000000000000000000000000000000000000000000000000000000\n      dup2\n      mstore\n      0x04\n      add\n      tag_219\n      swap1\n      tag_220\n      jump\t// in\n    tag_219:\n      mload(0x40)\n      dup1\n      swap2\n      sub\n      swap1\n      revert\n    tag_218:\n        /* \"@openzeppelin/contracts/token/ERC20/ERC20.sol\":7697:7735  _beforeTokenTransfer(from, to, amount) */\n      tag_221\n        /* \"@openzeppelin/contracts/token/ERC20/ERC20.sol\":7718:7722  from */\n      dup4\n        /* \"@openzeppelin/contracts/token/ERC20/ERC20.sol\":7724:7726  to */\n      dup4\n        /* \"@openzeppelin/contracts/token/ERC20/ERC20.sol\":7728:7734  amount */\n      dup4\n        /* \"@openzeppelin/contracts/token/ERC20/ERC20.sol\":7697:7717  _beforeTokenTransfer */\n      tag_222\n        /* \"@openzeppelin/contracts/token/ERC20/ERC20.sol\":7697:7735  _beforeTokenTransfer(from, to, amount) */\n      jump\t// in\n    tag_221:\n        /* \"@openzeppelin/contracts/token/ERC20/ERC20.sol\":7746:7765  uint256 fromBalance */\n      0x00\n        /* \"@openzeppelin/contracts/token/ERC20/ERC20.sol\":7768:7777  _balances */\n      dup1\n        /* \"@openzeppelin/contracts/token/ERC20/ERC20.sol\":7768:7783  _balances[from] */\n      0x00\n        /* \"@openzeppelin/contracts/token/ERC20/ERC20.sol\":7778:7782  from */\n      dup6\n        /* \"@openzeppelin/contracts/token/ERC20/ERC20.sol\":7768:7783  _balances[from] */\n      0xffffffffffffffffffffffffffffffffffffffff\n      and\n      0xffffffffffffffffffffffffffffffffffffffff\n      and\n      dup2\n      mstore\n      0x20\n      add\n      swap1\n      dup2\n      mstore\n      0x20\n      add\n      0x00\n      keccak256\n      sload\n        /* \"@openzeppelin/contracts/token/ERC20/ERC20.sol\":7746:7783  uint256 fromBalance = _balances[from] */\n      swap1\n      pop\n        /* \"@openzeppelin/contracts/token/ERC20/ERC20.sol\":7816:7822  amount */\n      dup2\n        /* \"@openzeppelin/contracts/token/ERC20/ERC20.sol\":7801:7812  fromBalance */\n      dup2\n        /* \"@openzeppelin/contracts/token/ERC20/ERC20.sol\":7801:7822  fromBalance >= amount */\n      lt\n      iszero\n        /* \"@openzeppelin/contracts/token/ERC20/ERC20.sol\":7793:7865  require(fromBalance >= amount, \"ERC20: transfer amount exceeds balance\") */\n      tag_223\n      jumpi\n      mload(0x40)\n      0x08c379a000000000000000000000000000000000000000000000000000000000\n      dup2\n      mstore\n      0x04\n      add\n      tag_224\n      swap1\n      tag_225\n      jump\t// in\n    tag_224:\n      mload(0x40)\n      dup1\n      swap2\n      sub\n      swap1\n      revert\n    tag_223:\n        /* \"@openzeppelin/contracts/token/ERC20/ERC20.sol\":7931:7937  amount */\n      dup2\n        /* \"@openzeppelin/contracts/token/ERC20/ERC20.sol\":7917:7928  fromBalance */\n      dup2\n        /* \"@openzeppelin/contracts/token/ERC20/ERC20.sol\":7917:7937  fromBalance - amount */\n      sub\n        /* \"@openzeppelin/contracts/token/ERC20/ERC20.sol\":7899:7908  _balances */\n      0x00\n        /* \"@openzeppelin/contracts/token/ERC20/ERC20.sol\":7899:7914  _balances[from] */\n      dup1\n        /* \"@openzeppelin/contracts/token/ERC20/ERC20.sol\":7909:7913  from */\n      dup7\n        /* \"@openzeppelin/contracts/token/ERC20/ERC20.sol\":7899:7914  _balances[from] */\n      0xffffffffffffffffffffffffffffffffffffffff\n      and\n      0xffffffffffffffffffffffffffffffffffffffff\n      and\n      dup2\n      mstore\n      0x20\n      add\n      swap1\n      dup2\n      mstore\n      0x20\n      add\n      0x00\n      keccak256\n        /* \"@openzeppelin/contracts/token/ERC20/ERC20.sol\":7899:7937  _balances[from] = fromBalance - amount */\n      dup2\n      swap1\n      sstore\n      pop\n        /* \"@openzeppelin/contracts/token/ERC20/ERC20.sol\":8131:8137  amount */\n      dup2\n        /* \"@openzeppelin/contracts/token/ERC20/ERC20.sol\":8114:8123  _balances */\n      0x00\n        /* \"@openzeppelin/contracts/token/ERC20/ERC20.sol\":8114:8127  _balances[to] */\n      dup1\n        /* \"@openzeppelin/contracts/token/ERC20/ERC20.sol\":8124:8126  to */\n      dup6\n        /* \"@openzeppelin/contracts/token/ERC20/ERC20.sol\":8114:8127  _balances[to] */\n      0xffffffffffffffffffffffffffffffffffffffff\n      and\n      0xffffffffffffffffffffffffffffffffffffffff\n      and\n      dup2\n      mstore\n      0x20\n      add\n      swap1\n      dup2\n      mstore\n      0x20\n      add\n      0x00\n      keccak256\n      0x00\n        /* \"@openzeppelin/contracts/token/ERC20/ERC20.sol\":8114:8137  _balances[to] += amount */\n      dup3\n      dup3\n      sload\n      add\n      swap3\n      pop\n      pop\n      dup2\n      swap1\n      sstore\n      pop\n        /* \"@openzeppelin/contracts/token/ERC20/ERC20.sol\":8178:8180  to */\n      dup3\n        /* \"@openzeppelin/contracts/token/ERC20/ERC20.sol\":8163:8189  Transfer(from, to, amount) */\n      0xffffffffffffffffffffffffffffffffffffffff\n      and\n        /* \"@openzeppelin/contracts/token/ERC20/ERC20.sol\":8172:8176  from */\n      dup5\n        /* \"@openzeppelin/contracts/token/ERC20/ERC20.sol\":8163:8189  Transfer(from, to, amount) */\n      0xffffffffffffffffffffffffffffffffffffffff\n      and\n      0xddf252ad1be2c89b69c2b068fc378daa952ba7f163c4a11628f55a4df523b3ef\n        /* \"@openzeppelin/contracts/token/ERC20/ERC20.sol\":8182:8188  amount */\n      dup5\n        /* \"@openzeppelin/contracts/token/ERC20/ERC20.sol\":8163:8189  Transfer(from, to, amount) */\n      mload(0x40)\n      tag_226\n      swap2\n      swap1\n      tag_31\n      jump\t// in\n    tag_226:\n      mload(0x40)\n      dup1\n      swap2\n      sub\n      swap1\n      log3\n        /* \"@openzeppelin/contracts/token/ERC20/ERC20.sol\":8200:8237  _afterTokenTransfer(from, to, amount) */\n      tag_227\n        /* \"@openzeppelin/contracts/token/ERC20/ERC20.sol\":8220:8224  from */\n      dup5\n        /* \"@openzeppelin/contracts/token/ERC20/ERC20.sol\":8226:8228  to */\n      dup5\n        /* \"@openzeppelin/contracts/token/ERC20/ERC20.sol\":8230:8236  amount */\n      dup5\n        /* \"@openzeppelin/contracts/token/ERC20/ERC20.sol\":8200:8219  _afterTokenTransfer */\n      tag_228\n        /* \"@openzeppelin/contracts/token/ERC20/ERC20.sol\":8200:8237  _afterTokenTransfer(from, to, amount) */\n      jump\t// in\n    tag_227:\n        /* \"@openzeppelin/contracts/token/ERC20/ERC20.sol\":7534:8244  {... */\n      pop\n        /* \"@openzeppelin/contracts/token/ERC20/ERC20.sol\":7456:8244  function _transfer(address from, address to, uint256 amount) internal virtual {... */\n      pop\n      pop\n      pop\n      jump\t// out\n        /* \"@openzeppelin/contracts/token/ERC20/ERC20.sol\":8520:9055  function _mint(address account, uint256 amount) internal virtual {... */\n    tag_143:\n        /* \"@openzeppelin/contracts/token/ERC20/ERC20.sol\":8622:8623  0 */\n      0x00\n        /* \"@openzeppelin/contracts/token/ERC20/ERC20.sol\":8603:8624  account != address(0) */\n      0xffffffffffffffffffffffffffffffffffffffff\n      and\n        /* \"@openzeppelin/contracts/token/ERC20/ERC20.sol\":8603:8610  account */\n      dup3\n        /* \"@openzeppelin/contracts/token/ERC20/ERC20.sol\":8603:8624  account != address(0) */\n      0xffffffffffffffffffffffffffffffffffffffff\n      and\n      sub\n        /* \"@openzeppelin/contracts/token/ERC20/ERC20.sol\":8595:8660  require(account != address(0), \"ERC20: mint to the zero address\") */\n      tag_230\n      jumpi\n      mload(0x40)\n      0x08c379a000000000000000000000000000000000000000000000000000000000\n      dup2\n      mstore\n      0x04\n      add\n      tag_231\n      swap1\n      tag_232\n      jump\t// in\n    tag_231:\n      mload(0x40)\n      dup1\n      swap2\n      sub\n      swap1\n      revert\n    tag_230:\n        /* \"@openzeppelin/contracts/token/ERC20/ERC20.sol\":8671:8720  _beforeTokenTransfer(address(0), account, amount) */\n      tag_233\n        /* \"@openzeppelin/contracts/token/ERC20/ERC20.sol\":8700:8701  0 */\n      0x00\n        /* \"@openzeppelin/contracts/token/ERC20/ERC20.sol\":8704:8711  account */\n      dup4\n        /* \"@openzeppelin/contracts/token/ERC20/ERC20.sol\":8713:8719  amount */\n      dup4\n        /* \"@openzeppelin/contracts/token/ERC20/ERC20.sol\":8671:8691  _beforeTokenTransfer */\n      tag_222\n        /* \"@openzeppelin/contracts/token/ERC20/ERC20.sol\":8671:8720  _beforeTokenTransfer(address(0), account, amount) */\n      jump\t// in\n    tag_233:\n        /* \"@openzeppelin/contracts/token/ERC20/ERC20.sol\":8747:8753  amount */\n      dup1\n        /* \"@openzeppelin/contracts/token/ERC20/ERC20.sol\":8731:8743  _totalSupply */\n      0x02\n      0x00\n        /* \"@openzeppelin/contracts/token/ERC20/ERC20.sol\":8731:8753  _totalSupply += amount */\n      dup3\n      dup3\n      sload\n      tag_234\n      swap2\n      swap1\n      tag_155\n      jump\t// in\n    tag_234:\n      swap3\n      pop\n      pop\n      dup2\n      swap1\n      sstore\n      pop\n        /* \"@openzeppelin/contracts/token/ERC20/ERC20.sol\":8921:8927  amount */\n      dup1\n        /* \"@openzeppelin/contracts/token/ERC20/ERC20.sol\":8899:8908  _balances */\n      0x00\n        /* \"@openzeppelin/contracts/token/ERC20/ERC20.sol\":8899:8917  _balances[account] */\n      dup1\n        /* \"@openzeppelin/contracts/token/ERC20/ERC20.sol\":8909:8916  account */\n      dup5\n        /* \"@openzeppelin/contracts/token/ERC20/ERC20.sol\":8899:8917  _balances[account] */\n      0xffffffffffffffffffffffffffffffffffffffff\n      and\n      0xffffffffffffffffffffffffffffffffffffffff\n      and\n      dup2\n      mstore\n      0x20\n      add\n      swap1\n      dup2\n      mstore\n      0x20\n      add\n      0x00\n      keccak256\n      0x00\n        /* \"@openzeppelin/contracts/token/ERC20/ERC20.sol\":8899:8927  _balances[account] += amount */\n      dup3\n      dup3\n      sload\n      add\n      swap3\n      pop\n      pop\n      dup2\n      swap1\n      sstore\n      pop\n        /* \"@openzeppelin/contracts/token/ERC20/ERC20.sol\":8973:8980  account */\n      dup2\n        /* \"@openzeppelin/contracts/token/ERC20/ERC20.sol\":8952:8989  Transfer(address(0), account, amount) */\n      0xffffffffffffffffffffffffffffffffffffffff\n      and\n        /* \"@openzeppelin/contracts/token/ERC20/ERC20.sol\":8969:8970  0 */\n      0x00\n        /* \"@openzeppelin/contracts/token/ERC20/ERC20.sol\":8952:8989  Transfer(address(0), account, amount) */\n      0xffffffffffffffffffffffffffffffffffffffff\n      and\n      0xddf252ad1be2c89b69c2b068fc378daa952ba7f163c4a11628f55a4df523b3ef\n        /* \"@openzeppelin/contracts/token/ERC20/ERC20.sol\":8982:8988  amount */\n      dup4\n        /* \"@openzeppelin/contracts/token/ERC20/ERC20.sol\":8952:8989  Transfer(address(0), account, amount) */\n      mload(0x40)\n      tag_235\n      swap2\n      swap1\n      tag_31\n      jump\t// in\n    tag_235:\n      mload(0x40)\n      dup1\n      swap2\n      sub\n      swap1\n      log3\n        /* \"@openzeppelin/contracts/token/ERC20/ERC20.sol\":9000:9048  _afterTokenTransfer(address(0), account, amount) */\n      tag_236\n        /* \"@openzeppelin/contracts/token/ERC20/ERC20.sol\":9028:9029  0 */\n      0x00\n        /* \"@openzeppelin/contracts/token/ERC20/ERC20.sol\":9032:9039  account */\n      dup4\n        /* \"@openzeppelin/contracts/token/ERC20/ERC20.sol\":9041:9047  amount */\n      dup4\n        /* \"@openzeppelin/contracts/token/ERC20/ERC20.sol\":9000:9019  _afterTokenTransfer */\n      tag_228\n        /* \"@openzeppelin/contracts/token/ERC20/ERC20.sol\":9000:9048  _afterTokenTransfer(address(0), account, amount) */\n      jump\t// in\n    tag_236:\n        /* \"@openzeppelin/contracts/token/ERC20/ERC20.sol\":8520:9055  function _mint(address account, uint256 amount) internal virtual {... */\n      pop\n      pop\n      jump\t// out\n        /* \"@openzeppelin/contracts/access/Ownable.sol\":1359:1489  function _checkOwner() internal view virtual {... */\n    tag_159:\n        /* \"@openzeppelin/contracts/access/Ownable.sol\":1433:1445  _msgSender() */\n      tag_238\n        /* \"@openzeppelin/contracts/access/Ownable.sol\":1433:1443  _msgSender */\n      tag_126\n        /* \"@openzeppelin/contracts/access/Ownable.sol\":1433:1445  _msgSender() */\n      jump\t// in\n    tag_238:\n        /* \"@openzeppelin/contracts/access/Ownable.sol\":1422:1445  owner() == _msgSender() */\n      0xffffffffffffffffffffffffffffffffffffffff\n      and\n        /* \"@openzeppelin/contracts/access/Ownable.sol\":1422:1429  owner() */\n      tag_239\n        /* \"@openzeppelin/contracts/access/Ownable.sol\":1422:1427  owner */\n      tag_93\n        /* \"@openzeppelin/contracts/access/Ownable.sol\":1422:1429  owner() */\n      jump\t// in\n    tag_239:\n        /* \"@openzeppelin/contracts/access/Ownable.sol\":1422:1445  owner() == _msgSender() */\n      0xffffffffffffffffffffffffffffffffffffffff\n      and\n      eq\n        /* \"@openzeppelin/contracts/access/Ownable.sol\":1414:1482  require(owner() == _msgSender(), \"Ownable: caller is not the owner\") */\n      tag_240\n      jumpi\n      mload(0x40)\n      0x08c379a000000000000000000000000000000000000000000000000000000000\n      dup2\n      mstore\n      0x04\n      add\n      tag_241\n      swap1\n      tag_242\n      jump\t// in\n    tag_241:\n      mload(0x40)\n      dup1\n      swap2\n      sub\n      swap1\n      revert\n    tag_240:\n        /* \"@openzeppelin/contracts/access/Ownable.sol\":1359:1489  function _checkOwner() internal view virtual {... */\n      jump\t// out\n        /* \"@openzeppelin/contracts/access/Ownable.sol\":2426:2613  function _transferOwnership(address newOwner) internal virtual {... */\n    tag_162:\n        /* \"@openzeppelin/contracts/access/Ownable.sol\":2499:2515  address oldOwner */\n      0x00\n        /* \"@openzeppelin/contracts/access/Ownable.sol\":2518:2524  _owner */\n      0x05\n      0x00\n      swap1\n      sload\n      swap1\n      0x0100\n      exp\n      swap1\n      div\n      0xffffffffffffffffffffffffffffffffffffffff\n      and\n        /* \"@openzeppelin/contracts/access/Ownable.sol\":2499:2524  address oldOwner = _owner */\n      swap1\n      pop\n        /* \"@openzeppelin/contracts/access/Ownable.sol\":2543:2551  newOwner */\n      dup2\n        /* \"@openzeppelin/contracts/access/Ownable.sol\":2534:2540  _owner */\n      0x05\n      0x00\n        /* \"@openzeppelin/contracts/access/Ownable.sol\":2534:2551  _owner = newOwner */\n      0x0100\n      exp\n      dup2\n      sload\n      dup2\n      0xffffffffffffffffffffffffffffffffffffffff\n      mul\n      not\n      and\n      swap1\n      dup4\n      0xffffffffffffffffffffffffffffffffffffffff\n      and\n      mul\n      or\n      swap1\n      sstore\n      pop\n        /* \"@openzeppelin/contracts/access/Ownable.sol\":2597:2605  newOwner */\n      dup2\n        /* \"@openzeppelin/contracts/access/Ownable.sol\":2566:2606  OwnershipTransferred(oldOwner, newOwner) */\n      0xffffffffffffffffffffffffffffffffffffffff\n      and\n        /* \"@openzeppelin/contracts/access/Ownable.sol\":2587:2595  oldOwner */\n      dup2\n        /* \"@openzeppelin/contracts/access/Ownable.sol\":2566:2606  OwnershipTransferred(oldOwner, newOwner) */\n      0xffffffffffffffffffffffffffffffffffffffff\n      and\n      0x8be0079c531659141344cd1fd0a4f28419497f9722a3daafe3b4186f6b6457e0\n      mload(0x40)\n      mload(0x40)\n      dup1\n      swap2\n      sub\n      swap1\n      log3\n        /* \"@openzeppelin/contracts/access/Ownable.sol\":2489:2613  {... */\n      pop\n        /* \"@openzeppelin/contracts/access/Ownable.sol\":2426:2613  function _transferOwnership(address newOwner) internal virtual {... */\n      pop\n      jump\t// out\n        /* \"@openzeppelin/contracts/token/ERC20/ERC20.sol\":12073:12164  function _beforeTokenTransfer(address from, address to, uint256 amount) internal virtual {} */\n    tag_222:\n      pop\n      pop\n      pop\n      jump\t// out\n        /* \"@openzeppelin/contracts/token/ERC20/ERC20.sol\":12752:12842  function _afterTokenTransfer(address from, address to, uint256 amount) internal virtual {} */\n    tag_228:\n      pop\n      pop\n      pop\n      jump\t// out\n        /* \"#utility.yul\":7:84   */\n    tag_246:\n        /* \"#utility.yul\":44:51   */\n      0x00\n        /* \"#utility.yul\":73:78   */\n      dup2\n        /* \"#utility.yul\":62:78   */\n      swap1\n      pop\n        /* \"#utility.yul\":7:84   */\n      swap2\n      swap1\n      pop\n      jump\t// out\n        /* \"#utility.yul\":90:208   */\n    tag_247:\n        /* \"#utility.yul\":177:201   */\n      tag_310\n        /* \"#utility.yul\":195:200   */\n      dup2\n        /* \"#utility.yul\":177:201   */\n      tag_246\n      jump\t// in\n    tag_310:\n        /* \"#utility.yul\":172:175   */\n      dup3\n        /* \"#utility.yul\":165:202   */\n      mstore\n        /* \"#utility.yul\":90:208   */\n      pop\n      pop\n      jump\t// out\n        /* \"#utility.yul\":214:436   */\n    tag_31:\n        /* \"#utility.yul\":307:311   */\n      0x00\n        /* \"#utility.yul\":345:347   */\n      0x20\n        /* \"#utility.yul\":334:343   */\n      dup3\n        /* \"#utility.yul\":330:348   */\n      add\n        /* \"#utility.yul\":322:348   */\n      swap1\n      pop\n        /* \"#utility.yul\":358:429   */\n      tag_312\n        /* \"#utility.yul\":426:427   */\n      0x00\n        /* \"#utility.yul\":415:424   */\n      dup4\n        /* \"#utility.yul\":411:428   */\n      add\n        /* \"#utility.yul\":402:408   */\n      dup5\n        /* \"#utility.yul\":358:429   */\n      tag_247\n      jump\t// in\n    tag_312:\n        /* \"#utility.yul\":214:436   */\n      swap3\n      swap2\n      pop\n      pop\n      jump\t// out\n        /* \"#utility.yul\":442:541   */\n    tag_248:\n        /* \"#utility.yul\":494:500   */\n      0x00\n        /* \"#utility.yul\":528:533   */\n      dup2\n        /* \"#utility.yul\":522:534   */\n      mload\n        /* \"#utility.yul\":512:534   */\n      swap1\n      pop\n        /* \"#utility.yul\":442:541   */\n      swap2\n      swap1\n      pop\n      jump\t// out\n        /* \"#utility.yul\":547:716   */\n    tag_249:\n        /* \"#utility.yul\":631:642   */\n      0x00\n        /* \"#utility.yul\":665:671   */\n      dup3\n        /* \"#utility.yul\":660:663   */\n      dup3\n        /* \"#utility.yul\":653:672   */\n      mstore\n        /* \"#utility.yul\":705:709   */\n      0x20\n        /* \"#utility.yul\":700:703   */\n      dup3\n        /* \"#utility.yul\":696:710   */\n      add\n        /* \"#utility.yul\":681:710   */\n      swap1\n      pop\n        /* \"#utility.yul\":547:716   */\n      swap3\n      swap2\n      pop\n      pop\n      jump\t// out\n        /* \"#utility.yul\":722:968   */\n    tag_250:\n        /* \"#utility.yul\":803:804   */\n      0x00\n        /* \"#utility.yul\":813:926   */\n    tag_316:\n        /* \"#utility.yul\":827:833   */\n      dup4\n        /* \"#utility.yul\":824:825   */\n      dup2\n        /* \"#utility.yul\":821:834   */\n      lt\n        /* \"#utility.yul\":813:926   */\n      iszero\n      tag_318\n      jumpi\n        /* \"#utility.yul\":912:913   */\n      dup1\n        /* \"#utility.yul\":907:910   */\n      dup3\n        /* \"#utility.yul\":903:914   */\n      add\n        /* \"#utility.yul\":897:915   */\n      mload\n        /* \"#utility.yul\":893:894   */\n      dup2\n        /* \"#utility.yul\":888:891   */\n      dup5\n        /* \"#utility.yul\":884:895   */\n      add\n        /* \"#utility.yul\":877:916   */\n      mstore\n        /* \"#utility.yul\":849:851   */\n      0x20\n        /* \"#utility.yul\":846:847   */\n      dup2\n        /* \"#utility.yul\":842:852   */\n      add\n        /* \"#utility.yul\":837:852   */\n      swap1\n      pop\n        /* \"#utility.yul\":813:926   */\n      jump(tag_316)\n    tag_318:\n        /* \"#utility.yul\":960:961   */\n      0x00\n        /* \"#utility.yul\":951:957   */\n      dup5\n        /* \"#utility.yul\":946:949   */\n      dup5\n        /* \"#utility.yul\":942:958   */\n      add\n        /* \"#utility.yul\":935:962   */\n      mstore\n        /* \"#utility.yul\":784:968   */\n      pop\n        /* \"#utility.yul\":722:968   */\n      pop\n      pop\n      pop\n      jump\t// out\n        /* \"#utility.yul\":974:1076   */\n    tag_251:\n        /* \"#utility.yul\":1015:1021   */\n      0x00\n        /* \"#utility.yul\":1066:1068   */\n      0x1f\n        /* \"#utility.yul\":1062:1069   */\n      not\n        /* \"#utility.yul\":1057:1059   */\n      0x1f\n        /* \"#utility.yul\":1050:1055   */\n      dup4\n        /* \"#utility.yul\":1046:1060   */\n      add\n        /* \"#utility.yul\":1042:1070   */\n      and\n        /* \"#utility.yul\":1032:1070   */\n      swap1\n      pop\n        /* \"#utility.yul\":974:1076   */\n      swap2\n      swap1\n      pop\n      jump\t// out\n        /* \"#utility.yul\":1082:1459   */\n    tag_252:\n        /* \"#utility.yul\":1170:1173   */\n      0x00\n        /* \"#utility.yul\":1198:1237   */\n      tag_321\n        /* \"#utility.yul\":1231:1236   */\n      dup3\n        /* \"#utility.yul\":1198:1237   */\n      tag_248\n      jump\t// in\n    tag_321:\n        /* \"#utility.yul\":1253:1324   */\n      tag_322\n        /* \"#utility.yul\":1317:1323   */\n      dup2\n        /* \"#utility.yul\":1312:1315   */\n      dup6\n        /* \"#utility.yul\":1253:1324   */\n      tag_249\n      jump\t// in\n    tag_322:\n        /* \"#utility.yul\":1246:1324   */\n      swap4\n      pop\n        /* \"#utility.yul\":1333:1398   */\n      tag_323\n        /* \"#utility.yul\":1391:1397   */\n      dup2\n        /* \"#utility.yul\":1386:1389   */\n      dup6\n        /* \"#utility.yul\":1379:1383   */\n      0x20\n        /* \"#utility.yul\":1372:1377   */\n      dup7\n        /* \"#utility.yul\":1368:1384   */\n      add\n        /* \"#utility.yul\":1333:1398   */\n      tag_250\n      jump\t// in\n    tag_323:\n        /* \"#utility.yul\":1423:1452   */\n      tag_324\n        /* \"#utility.yul\":1445:1451   */\n      dup2\n        /* \"#utility.yul\":1423:1452   */\n      tag_251\n      jump\t// in\n    tag_324:\n        /* \"#utility.yul\":1418:1421   */\n      dup5\n        /* \"#utility.yul\":1414:1453   */\n      add\n        /* \"#utility.yul\":1407:1453   */\n      swap2\n      pop\n        /* \"#utility.yul\":1174:1459   */\n      pop\n        /* \"#utility.yul\":1082:1459   */\n      swap3\n      swap2\n      pop\n      pop\n      jump\t// out\n        /* \"#utility.yul\":1465:1778   */\n    tag_35:\n        /* \"#utility.yul\":1578:1582   */\n      0x00\n        /* \"#utility.yul\":1616:1618   */\n      0x20\n        /* \"#utility.yul\":1605:1614   */\n      dup3\n        /* \"#utility.yul\":1601:1619   */\n      add\n        /* \"#utility.yul\":1593:1619   */\n      swap1\n      pop\n        /* \"#utility.yul\":1665:1674   */\n      dup2\n        /* \"#utility.yul\":1659:1663   */\n      dup2\n        /* \"#utility.yul\":1655:1675   */\n      sub\n        /* \"#utility.yul\":1651:1652   */\n      0x00\n        /* \"#utility.yul\":1640:1649   */\n      dup4\n        /* \"#utility.yul\":1636:1653   */\n      add\n        /* \"#utility.yul\":1629:1676   */\n      mstore\n        /* \"#utility.yul\":1693:1771   */\n      tag_326\n        /* \"#utility.yul\":1766:1770   */\n      dup2\n        /* \"#utility.yul\":1757:1763   */\n      dup5\n        /* \"#utility.yul\":1693:1771   */\n      tag_252\n      jump\t// in\n    tag_326:\n        /* \"#utility.yul\":1685:1771   */\n      swap1\n      pop\n        /* \"#utility.yul\":1465:1778   */\n      swap3\n      swap2\n      pop\n      pop\n      jump\t// out\n        /* \"#utility.yul\":1784:1859   */\n    tag_253:\n        /* \"#utility.yul\":1817:1823   */\n      0x00\n        /* \"#utility.yul\":1850:1852   */\n      0x40\n        /* \"#utility.yul\":1844:1853   */\n      mload\n        /* \"#utility.yul\":1834:1853   */\n      swap1\n      pop\n        /* \"#utility.yul\":1784:1859   */\n      swap1\n      jump\t// out\n        /* \"#utility.yul\":1865:1982   */\n    tag_254:\n        /* \"#utility.yul\":1974:1975   */\n      0x00\n        /* \"#utility.yul\":1971:1972   */\n      dup1\n        /* \"#utility.yul\":1964:1976   */\n      revert\n        /* \"#utility.yul\":1988:2105   */\n    tag_255:\n        /* \"#utility.yul\":2097:2098   */\n      0x00\n        /* \"#utility.yul\":2094:2095   */\n      dup1\n        /* \"#utility.yul\":2087:2099   */\n      revert\n        /* \"#utility.yul\":2111:2237   */\n    tag_256:\n        /* \"#utility.yul\":2148:2155   */\n      0x00\n        /* \"#utility.yul\":2188:2230   */\n      0xffffffffffffffffffffffffffffffffffffffff\n        /* \"#utility.yul\":2181:2186   */\n      dup3\n        /* \"#utility.yul\":2177:2231   */\n      and\n        /* \"#utility.yul\":2166:2231   */\n      swap1\n      pop\n        /* \"#utility.yul\":2111:2237   */\n      swap2\n      swap1\n      pop\n      jump\t// out\n        /* \"#utility.yul\":2243:2339   */\n    tag_257:\n        /* \"#utility.yul\":2280:2287   */\n      0x00\n        /* \"#utility.yul\":2309:2333   */\n      tag_332\n        /* \"#utility.yul\":2327:2332   */\n      dup3\n        /* \"#utility.yul\":2309:2333   */\n      tag_256\n      jump\t// in\n    tag_332:\n        /* \"#utility.yul\":2298:2333   */\n      swap1\n      pop\n        /* \"#utility.yul\":2243:2339   */\n      swap2\n      swap1\n      pop\n      jump\t// out\n        /* \"#utility.yul\":2345:2467   */\n    tag_258:\n        /* \"#utility.yul\":2418:2442   */\n      tag_334\n        /* \"#utility.yul\":2436:2441   */\n      dup2\n        /* \"#utility.yul\":2418:2442   */\n      tag_257\n      jump\t// in\n    tag_334:\n        /* \"#utility.yul\":2411:2416   */\n      dup2\n        /* \"#utility.yul\":2408:2443   */\n      eq\n        /* \"#utility.yul\":2398:2461   */\n      tag_335\n      jumpi\n        /* \"#utility.yul\":2457:2458   */\n      0x00\n        /* \"#utility.yul\":2454:2455   */\n      dup1\n        /* \"#utility.yul\":2447:2459   */\n      revert\n        /* \"#utility.yul\":2398:2461   */\n    tag_335:\n        /* \"#utility.yul\":2345:2467   */\n      pop\n      jump\t// out\n        /* \"#utility.yul\":2473:2612   */\n    tag_259:\n        /* \"#utility.yul\":2519:2524   */\n      0x00\n        /* \"#utility.yul\":2557:2563   */\n      dup2\n        /* \"#utility.yul\":2544:2564   */\n      calldataload\n        /* \"#utility.yul\":2535:2564   */\n      swap1\n      pop\n        /* \"#utility.yul\":2573:2606   */\n      tag_337\n        /* \"#utility.yul\":2600:2605   */\n      dup2\n        /* \"#utility.yul\":2573:2606   */\n      tag_258\n      jump\t// in\n    tag_337:\n        /* \"#utility.yul\":2473:2612   */\n      swap3\n      swap2\n      pop\n      pop\n      jump\t// out\n        /* \"#utility.yul\":2618:2740   */\n    tag_260:\n        /* \"#utility.yul\":2691:2715   */\n      tag_339\n        /* \"#utility.yul\":2709:2714   */\n      dup2\n        /* \"#utility.yul\":2691:2715   */\n      tag_246\n      jump\t// in\n    tag_339:\n        /* \"#utility.yul\":2684:2689   */\n      dup2\n        /* \"#utility.yul\":2681:2716   */\n      eq\n        /* \"#utility.yul\":2671:2734   */\n      tag_340\n      jumpi\n        /* \"#utility.yul\":2730:2731   */\n      0x00\n        /* \"#utility.yul\":2727:2728   */\n      dup1\n        /* \"#utility.yul\":2720:2732   */\n      revert\n        /* \"#utility.yul\":2671:2734   */\n    tag_340:\n        /* \"#utility.yul\":2618:2740   */\n      pop\n      jump\t// out\n        /* \"#utility.yul\":2746:2885   */\n    tag_261:\n        /* \"#utility.yul\":2792:2797   */\n      0x00\n        /* \"#utility.yul\":2830:2836   */\n      dup2\n        /* \"#utility.yul\":2817:2837   */\n      calldataload\n        /* \"#utility.yul\":2808:2837   */\n      swap1\n      pop\n        /* \"#utility.yul\":2846:2879   */\n      tag_342\n        /* \"#utility.yul\":2873:2878   */\n      dup2\n        /* \"#utility.yul\":2846:2879   */\n      tag_260\n      jump\t// in\n    tag_342:\n        /* \"#utility.yul\":2746:2885   */\n      swap3\n      swap2\n      pop\n      pop\n      jump\t// out\n        /* \"#utility.yul\":2891:3365   */\n    tag_38:\n        /* \"#utility.yul\":2959:2965   */\n      0x00\n        /* \"#utility.yul\":2967:2973   */\n      dup1\n        /* \"#utility.yul\":3016:3018   */\n      0x40\n        /* \"#utility.yul\":3004:3013   */\n      dup4\n        /* \"#utility.yul\":2995:3002   */\n      dup6\n        /* \"#utility.yul\":2991:3014   */\n      sub\n        /* \"#utility.yul\":2987:3019   */\n      slt\n        /* \"#utility.yul\":2984:3103   */\n      iszero\n      tag_344\n      jumpi\n        /* \"#utility.yul\":3022:3101   */\n      tag_345\n      tag_254\n      jump\t// in\n    tag_345:\n        /* \"#utility.yul\":2984:3103   */\n    tag_344:\n        /* \"#utility.yul\":3142:3143   */\n      0x00\n        /* \"#utility.yul\":3167:3220   */\n      tag_346\n        /* \"#utility.yul\":3212:3219   */\n      dup6\n        /* \"#utility.yul\":3203:3209   */\n      dup3\n        /* \"#utility.yul\":3192:3201   */\n      dup7\n        /* \"#utility.yul\":3188:3210   */\n      add\n        /* \"#utility.yul\":3167:3220   */\n      tag_259\n      jump\t// in\n    tag_346:\n        /* \"#utility.yul\":3157:3220   */\n      swap3\n      pop\n        /* \"#utility.yul\":3113:3230   */\n      pop\n        /* \"#utility.yul\":3269:3271   */\n      0x20\n        /* \"#utility.yul\":3295:3348   */\n      tag_347\n        /* \"#utility.yul\":3340:3347   */\n      dup6\n        /* \"#utility.yul\":3331:3337   */\n      dup3\n        /* \"#utility.yul\":3320:3329   */\n      dup7\n        /* \"#utility.yul\":3316:3338   */\n      add\n        /* \"#utility.yul\":3295:3348   */\n      tag_261\n      jump\t// in\n    tag_347:\n        /* \"#utility.yul\":3285:3348   */\n      swap2\n      pop\n        /* \"#utility.yul\":3240:3358   */\n      pop\n        /* \"#utility.yul\":2891:3365   */\n      swap3\n      pop\n      swap3\n      swap1\n      pop\n      jump\t// out\n        /* \"#utility.yul\":3371:3461   */\n    tag_262:\n        /* \"#utility.yul\":3405:3412   */\n      0x00\n        /* \"#utility.yul\":3448:3453   */\n      dup2\n        /* \"#utility.yul\":3441:3454   */\n      iszero\n        /* \"#utility.yul\":3434:3455   */\n      iszero\n        /* \"#utility.yul\":3423:3455   */\n      swap1\n      pop\n        /* \"#utility.yul\":3371:3461   */\n      swap2\n      swap1\n      pop\n      jump\t// out\n        /* \"#utility.yul\":3467:3576   */\n    tag_263:\n        /* \"#utility.yul\":3548:3569   */\n      tag_350\n        /* \"#utility.yul\":3563:3568   */\n      dup2\n        /* \"#utility.yul\":3548:3569   */\n      tag_262\n      jump\t// in\n    tag_350:\n        /* \"#utility.yul\":3543:3546   */\n      dup3\n        /* \"#utility.yul\":3536:3570   */\n      mstore\n        /* \"#utility.yul\":3467:3576   */\n      pop\n      pop\n      jump\t// out\n        /* \"#utility.yul\":3582:3792   */\n    tag_41:\n        /* \"#utility.yul\":3669:3673   */\n      0x00\n        /* \"#utility.yul\":3707:3709   */\n      0x20\n        /* \"#utility.yul\":3696:3705   */\n      dup3\n        /* \"#utility.yul\":3692:3710   */\n      add\n        /* \"#utility.yul\":3684:3710   */\n      swap1\n      pop\n        /* \"#utility.yul\":3720:3785   */\n      tag_352\n        /* \"#utility.yul\":3782:3783   */\n      0x00\n        /* \"#utility.yul\":3771:3780   */\n      dup4\n        /* \"#utility.yul\":3767:3784   */\n      add\n        /* \"#utility.yul\":3758:3764   */\n      dup5\n        /* \"#utility.yul\":3720:3785   */\n      tag_263\n      jump\t// in\n    tag_352:\n        /* \"#utility.yul\":3582:3792   */\n      swap3\n      swap2\n      pop\n      pop\n      jump\t// out\n        /* \"#utility.yul\":3798:3915   */\n    tag_264:\n        /* \"#utility.yul\":3907:3908   */\n      0x00\n        /* \"#utility.yul\":3904:3905   */\n      dup1\n        /* \"#utility.yul\":3897:3909   */\n      revert\n        /* \"#utility.yul\":3921:4038   */\n    tag_265:\n        /* \"#utility.yul\":4030:4031   */\n      0x00\n        /* \"#utility.yul\":4027:4028   */\n      dup1\n        /* \"#utility.yul\":4020:4032   */\n      revert\n        /* \"#utility.yul\":4044:4224   */\n    tag_266:\n        /* \"#utility.yul\":4092:4169   */\n      0x4e487b7100000000000000000000000000000000000000000000000000000000\n        /* \"#utility.yul\":4089:4090   */\n      0x00\n        /* \"#utility.yul\":4082:4170   */\n      mstore\n        /* \"#utility.yul\":4189:4193   */\n      0x41\n        /* \"#utility.yul\":4186:4187   */\n      0x04\n        /* \"#utility.yul\":4179:4194   */\n      mstore\n        /* \"#utility.yul\":4213:4217   */\n      0x24\n        /* \"#utility.yul\":4210:4211   */\n      0x00\n        /* \"#utility.yul\":4203:4218   */\n      revert\n        /* \"#utility.yul\":4230:4511   */\n    tag_267:\n        /* \"#utility.yul\":4313:4340   */\n      tag_357\n        /* \"#utility.yul\":4335:4339   */\n      dup3\n        /* \"#utility.yul\":4313:4340   */\n      tag_251\n      jump\t// in\n    tag_357:\n        /* \"#utility.yul\":4305:4311   */\n      dup2\n        /* \"#utility.yul\":4301:4341   */\n      add\n        /* \"#utility.yul\":4443:4449   */\n      dup2\n        /* \"#utility.yul\":4431:4441   */\n      dup2\n        /* \"#utility.yul\":4428:4450   */\n      lt\n        /* \"#utility.yul\":4407:4425   */\n      0xffffffffffffffff\n        /* \"#utility.yul\":4395:4405   */\n      dup3\n        /* \"#utility.yul\":4392:4426   */\n      gt\n        /* \"#utility.yul\":4389:4451   */\n      or\n        /* \"#utility.yul\":4386:4474   */\n      iszero\n      tag_358\n      jumpi\n        /* \"#utility.yul\":4454:4472   */\n      tag_359\n      tag_266\n      jump\t// in\n    tag_359:\n        /* \"#utility.yul\":4386:4474   */\n    tag_358:\n        /* \"#utility.yul\":4494:4504   */\n      dup1\n        /* \"#utility.yul\":4490:4492   */\n      0x40\n        /* \"#utility.yul\":4483:4505   */\n      mstore\n        /* \"#utility.yul\":4273:4511   */\n      pop\n        /* \"#utility.yul\":4230:4511   */\n      pop\n      pop\n      jump\t// out\n        /* \"#utility.yul\":4517:4646   */\n    tag_268:\n        /* \"#utility.yul\":4551:4557   */\n      0x00\n        /* \"#utility.yul\":4578:4598   */\n      tag_361\n      tag_253\n      jump\t// in\n    tag_361:\n        /* \"#utility.yul\":4568:4598   */\n      swap1\n      pop\n        /* \"#utility.yul\":4607:4640   */\n      tag_362\n        /* \"#utility.yul\":4635:4639   */\n      dup3\n        /* \"#utility.yul\":4627:4633   */\n      dup3\n        /* \"#utility.yul\":4607:4640   */\n      tag_267\n      jump\t// in\n    tag_362:\n        /* \"#utility.yul\":4517:4646   */\n      swap2\n      swap1\n      pop\n      jump\t// out\n        /* \"#utility.yul\":4652:4959   */\n    tag_269:\n        /* \"#utility.yul\":4713:4717   */\n      0x00\n        /* \"#utility.yul\":4803:4821   */\n      0xffffffffffffffff\n        /* \"#utility.yul\":4795:4801   */\n      dup3\n        /* \"#utility.yul\":4792:4822   */\n      gt\n        /* \"#utility.yul\":4789:4845   */\n      iszero\n      tag_364\n      jumpi\n        /* \"#utility.yul\":4825:4843   */\n      tag_365\n      tag_266\n      jump\t// in\n    tag_365:\n        /* \"#utility.yul\":4789:4845   */\n    tag_364:\n        /* \"#utility.yul\":4863:4892   */\n      tag_366\n        /* \"#utility.yul\":4885:4891   */\n      dup3\n        /* \"#utility.yul\":4863:4892   */\n      tag_251\n      jump\t// in\n    tag_366:\n        /* \"#utility.yul\":4855:4892   */\n      swap1\n      pop\n        /* \"#utility.yul\":4947:4951   */\n      0x20\n        /* \"#utility.yul\":4941:4945   */\n      dup2\n        /* \"#utility.yul\":4937:4952   */\n      add\n        /* \"#utility.yul\":4929:4952   */\n      swap1\n      pop\n        /* \"#utility.yul\":4652:4959   */\n      swap2\n      swap1\n      pop\n      jump\t// out\n        /* \"#utility.yul\":4965:5111   */\n    tag_270:\n        /* \"#utility.yul\":5062:5068   */\n      dup3\n        /* \"#utility.yul\":5057:5060   */\n      dup2\n        /* \"#utility.yul\":5052:5055   */\n      dup4\n        /* \"#utility.yul\":5039:5069   */\n      calldatacopy\n        /* \"#utility.yul\":5103:5104   */\n      0x00\n        /* \"#utility.yul\":5094:5100   */\n      dup4\n        /* \"#utility.yul\":5089:5092   */\n      dup4\n        /* \"#utility.yul\":5085:5101   */\n      add\n        /* \"#utility.yul\":5078:5105   */\n      mstore\n        /* \"#utility.yul\":4965:5111   */\n      pop\n      pop\n      pop\n      jump\t// out\n        /* \"#utility.yul\":5117:5540   */\n    tag_271:\n        /* \"#utility.yul\":5194:5199   */\n      0x00\n        /* \"#utility.yul\":5219:5284   */\n      tag_369\n        /* \"#utility.yul\":5235:5283   */\n      tag_370\n        /* \"#utility.yul\":5276:5282   */\n      dup5\n        /* \"#utility.yul\":5235:5283   */\n      tag_269\n      jump\t// in\n    tag_370:\n        /* \"#utility.yul\":5219:5284   */\n      tag_268\n      jump\t// in\n    tag_369:\n        /* \"#utility.yul\":5210:5284   */\n      swap1\n      pop\n        /* \"#utility.yul\":5307:5313   */\n      dup3\n        /* \"#utility.yul\":5300:5305   */\n      dup2\n        /* \"#utility.yul\":5293:5314   */\n      mstore\n        /* \"#utility.yul\":5345:5349   */\n      0x20\n        /* \"#utility.yul\":5338:5343   */\n      dup2\n        /* \"#utility.yul\":5334:5350   */\n      add\n        /* \"#utility.yul\":5383:5386   */\n      dup5\n        /* \"#utility.yul\":5374:5380   */\n      dup5\n        /* \"#utility.yul\":5369:5372   */\n      dup5\n        /* \"#utility.yul\":5365:5381   */\n      add\n        /* \"#utility.yul\":5362:5387   */\n      gt\n        /* \"#utility.yul\":5359:5471   */\n      iszero\n      tag_371\n      jumpi\n        /* \"#utility.yul\":5390:5469   */\n      tag_372\n      tag_265\n      jump\t// in\n    tag_372:\n        /* \"#utility.yul\":5359:5471   */\n    tag_371:\n        /* \"#utility.yul\":5480:5534   */\n      tag_373\n        /* \"#utility.yul\":5527:5533   */\n      dup5\n        /* \"#utility.yul\":5522:5525   */\n      dup3\n        /* \"#utility.yul\":5517:5520   */\n      dup6\n        /* \"#utility.yul\":5480:5534   */\n      tag_270\n      jump\t// in\n    tag_373:\n        /* \"#utility.yul\":5200:5540   */\n      pop\n        /* \"#utility.yul\":5117:5540   */\n      swap4\n      swap3\n      pop\n      pop\n      pop\n      jump\t// out\n        /* \"#utility.yul\":5559:5897   */\n    tag_272:\n        /* \"#utility.yul\":5614:5619   */\n      0x00\n        /* \"#utility.yul\":5663:5666   */\n      dup3\n        /* \"#utility.yul\":5656:5660   */\n      0x1f\n        /* \"#utility.yul\":5648:5654   */\n      dup4\n        /* \"#utility.yul\":5644:5661   */\n      add\n        /* \"#utility.yul\":5640:5667   */\n      slt\n        /* \"#utility.yul\":5630:5752   */\n      tag_375\n      jumpi\n        /* \"#utility.yul\":5671:5750   */\n      tag_376\n      tag_264\n      jump\t// in\n    tag_376:\n        /* \"#utility.yul\":5630:5752   */\n    tag_375:\n        /* \"#utility.yul\":5788:5794   */\n      dup2\n        /* \"#utility.yul\":5775:5795   */\n      calldataload\n        /* \"#utility.yul\":5813:5891   */\n      tag_377\n        /* \"#utility.yul\":5887:5890   */\n      dup5\n        /* \"#utility.yul\":5879:5885   */\n      dup3\n        /* \"#utility.yul\":5872:5876   */\n      0x20\n        /* \"#utility.yul\":5864:5870   */\n      dup7\n        /* \"#utility.yul\":5860:5877   */\n      add\n        /* \"#utility.yul\":5813:5891   */\n      tag_271\n      jump\t// in\n    tag_377:\n        /* \"#utility.yul\":5804:5891   */\n      swap2\n      pop\n        /* \"#utility.yul\":5620:5897   */\n      pop\n        /* \"#utility.yul\":5559:5897   */\n      swap3\n      swap2\n      pop\n      pop\n      jump\t// out\n        /* \"#utility.yul\":5903:6846   */\n    tag_44:\n        /* \"#utility.yul\":5998:6004   */\n      0x00\n        /* \"#utility.yul\":6006:6012   */\n      dup1\n        /* \"#utility.yul\":6014:6020   */\n      0x00\n        /* \"#utility.yul\":6022:6028   */\n      dup1\n        /* \"#utility.yul\":6071:6074   */\n      0x80\n        /* \"#utility.yul\":6059:6068   */\n      dup6\n        /* \"#utility.yul\":6050:6057   */\n      dup8\n        /* \"#utility.yul\":6046:6069   */\n      sub\n        /* \"#utility.yul\":6042:6075   */\n      slt\n        /* \"#utility.yul\":6039:6159   */\n      iszero\n      tag_379\n      jumpi\n        /* \"#utility.yul\":6078:6157   */\n      tag_380\n      tag_254\n      jump\t// in\n    tag_380:\n        /* \"#utility.yul\":6039:6159   */\n    tag_379:\n        /* \"#utility.yul\":6198:6199   */\n      0x00\n        /* \"#utility.yul\":6223:6276   */\n      tag_381\n        /* \"#utility.yul\":6268:6275   */\n      dup8\n        /* \"#utility.yul\":6259:6265   */\n      dup3\n        /* \"#utility.yul\":6248:6257   */\n      dup9\n        /* \"#utility.yul\":6244:6266   */\n      add\n        /* \"#utility.yul\":6223:6276   */\n      tag_259\n      jump\t// in\n    tag_381:\n        /* \"#utility.yul\":6213:6276   */\n      swap5\n      pop\n        /* \"#utility.yul\":6169:6286   */\n      pop\n        /* \"#utility.yul\":6325:6327   */\n      0x20\n        /* \"#utility.yul\":6351:6404   */\n      tag_382\n        /* \"#utility.yul\":6396:6403   */\n      dup8\n        /* \"#utility.yul\":6387:6393   */\n      dup3\n        /* \"#utility.yul\":6376:6385   */\n      dup9\n        /* \"#utility.yul\":6372:6394   */\n      add\n        /* \"#utility.yul\":6351:6404   */\n      tag_259\n      jump\t// in\n    tag_382:\n        /* \"#utility.yul\":6341:6404   */\n      swap4\n      pop\n        /* \"#utility.yul\":6296:6414   */\n      pop\n        /* \"#utility.yul\":6453:6455   */\n      0x40\n        /* \"#utility.yul\":6479:6532   */\n      tag_383\n        /* \"#utility.yul\":6524:6531   */\n      dup8\n        /* \"#utility.yul\":6515:6521   */\n      dup3\n        /* \"#utility.yul\":6504:6513   */\n      dup9\n        /* \"#utility.yul\":6500:6522   */\n      add\n        /* \"#utility.yul\":6479:6532   */\n      tag_261\n      jump\t// in\n    tag_383:\n        /* \"#utility.yul\":6469:6532   */\n      swap3\n      pop\n        /* \"#utility.yul\":6424:6542   */\n      pop\n        /* \"#utility.yul\":6609:6611   */\n      0x60\n        /* \"#utility.yul\":6598:6607   */\n      dup6\n        /* \"#utility.yul\":6594:6612   */\n      add\n        /* \"#utility.yul\":6581:6613   */\n      calldataload\n        /* \"#utility.yul\":6640:6658   */\n      0xffffffffffffffff\n        /* \"#utility.yul\":6632:6638   */\n      dup2\n        /* \"#utility.yul\":6629:6659   */\n      gt\n        /* \"#utility.yul\":6626:6743   */\n      iszero\n      tag_384\n      jumpi\n        /* \"#utility.yul\":6662:6741   */\n      tag_385\n      tag_255\n      jump\t// in\n    tag_385:\n        /* \"#utility.yul\":6626:6743   */\n    tag_384:\n        /* \"#utility.yul\":6767:6829   */\n      tag_386\n        /* \"#utility.yul\":6821:6828   */\n      dup8\n        /* \"#utility.yul\":6812:6818   */\n      dup3\n        /* \"#utility.yul\":6801:6810   */\n      dup9\n        /* \"#utility.yul\":6797:6819   */\n      add\n        /* \"#utility.yul\":6767:6829   */\n      tag_272\n      jump\t// in\n    tag_386:\n        /* \"#utility.yul\":6757:6829   */\n      swap2\n      pop\n        /* \"#utility.yul\":6552:6839   */\n      pop\n        /* \"#utility.yul\":5903:6846   */\n      swap3\n      swap6\n      swap2\n      swap5\n      pop\n      swap3\n      pop\n      jump\t// out\n        /* \"#utility.yul\":6852:7001   */\n    tag_273:\n        /* \"#utility.yul\":6888:6895   */\n      0x00\n        /* \"#utility.yul\":6928:6994   */\n      0xffffffff00000000000000000000000000000000000000000000000000000000\n        /* \"#utility.yul\":6921:6926   */\n      dup3\n        /* \"#utility.yul\":6917:6995   */\n      and\n        /* \"#utility.yul\":6906:6995   */\n      swap1\n      pop\n        /* \"#utility.yul\":6852:7001   */\n      swap2\n      swap1\n      pop\n      jump\t// out\n        /* \"#utility.yul\":7007:7122   */\n    tag_274:\n        /* \"#utility.yul\":7092:7115   */\n      tag_389\n        /* \"#utility.yul\":7109:7114   */\n      dup2\n        /* \"#utility.yul\":7092:7115   */\n      tag_273\n      jump\t// in\n    tag_389:\n        /* \"#utility.yul\":7087:7090   */\n      dup3\n        /* \"#utility.yul\":7080:7116   */\n      mstore\n        /* \"#utility.yul\":7007:7122   */\n      pop\n      pop\n      jump\t// out\n        /* \"#utility.yul\":7128:7346   */\n    tag_47:\n        /* \"#utility.yul\":7219:7223   */\n      0x00\n        /* \"#utility.yul\":7257:7259   */\n      0x20\n        /* \"#utility.yul\":7246:7255   */\n      dup3\n        /* \"#utility.yul\":7242:7260   */\n      add\n        /* \"#utility.yul\":7234:7260   */\n      swap1\n      pop\n        /* \"#utility.yul\":7270:7339   */\n      tag_391\n        /* \"#utility.yul\":7336:7337   */\n      0x00\n        /* \"#utility.yul\":7325:7334   */\n      dup4\n        /* \"#utility.yul\":7321:7338   */\n      add\n        /* \"#utility.yul\":7312:7318   */\n      dup5\n        /* \"#utility.yul\":7270:7339   */\n      tag_274\n      jump\t// in\n    tag_391:\n        /* \"#utility.yul\":7128:7346   */\n      swap3\n      swap2\n      pop\n      pop\n      jump\t// out\n        /* \"#utility.yul\":7352:7971   */\n    tag_53:\n        /* \"#utility.yul\":7429:7435   */\n      0x00\n        /* \"#utility.yul\":7437:7443   */\n      dup1\n        /* \"#utility.yul\":7445:7451   */\n      0x00\n        /* \"#utility.yul\":7494:7496   */\n      0x60\n        /* \"#utility.yul\":7482:7491   */\n      dup5\n        /* \"#utility.yul\":7473:7480   */\n      dup7\n        /* \"#utility.yul\":7469:7492   */\n      sub\n        /* \"#utility.yul\":7465:7497   */\n      slt\n        /* \"#utility.yul\":7462:7581   */\n      iszero\n      tag_393\n      jumpi\n        /* \"#utility.yul\":7500:7579   */\n      tag_394\n      tag_254\n      jump\t// in\n    tag_394:\n        /* \"#utility.yul\":7462:7581   */\n    tag_393:\n        /* \"#utility.yul\":7620:7621   */\n      0x00\n        /* \"#utility.yul\":7645:7698   */\n      tag_395\n        /* \"#utility.yul\":7690:7697   */\n      dup7\n        /* \"#utility.yul\":7681:7687   */\n      dup3\n        /* \"#utility.yul\":7670:7679   */\n      dup8\n        /* \"#utility.yul\":7666:7688   */\n      add\n        /* \"#utility.yul\":7645:7698   */\n      tag_259\n      jump\t// in\n    tag_395:\n        /* \"#utility.yul\":7635:7698   */\n      swap4\n      pop\n        /* \"#utility.yul\":7591:7708   */\n      pop\n        /* \"#utility.yul\":7747:7749   */\n      0x20\n        /* \"#utility.yul\":7773:7826   */\n      tag_396\n        /* \"#utility.yul\":7818:7825   */\n      dup7\n        /* \"#utility.yul\":7809:7815   */\n      dup3\n        /* \"#utility.yul\":7798:7807   */\n      dup8\n        /* \"#utility.yul\":7794:7816   */\n      add\n        /* \"#utility.yul\":7773:7826   */\n      tag_259\n      jump\t// in\n    tag_396:\n        /* \"#utility.yul\":7763:7826   */\n      swap3\n      pop\n        /* \"#utility.yul\":7718:7836   */\n      pop\n        /* \"#utility.yul\":7875:7877   */\n      0x40\n        /* \"#utility.yul\":7901:7954   */\n      tag_397\n        /* \"#utility.yul\":7946:7953   */\n      dup7\n        /* \"#utility.yul\":7937:7943   */\n      dup3\n        /* \"#utility.yul\":7926:7935   */\n      dup8\n        /* \"#utility.yul\":7922:7944   */\n      add\n        /* \"#utility.yul\":7901:7954   */\n      tag_261\n      jump\t// in\n    tag_397:\n        /* \"#utility.yul\":7891:7954   */\n      swap2\n      pop\n        /* \"#utility.yul\":7846:7964   */\n      pop\n        /* \"#utility.yul\":7352:7971   */\n      swap3\n      pop\n      swap3\n      pop\n      swap3\n      jump\t// out\n        /* \"#utility.yul\":7977:8306   */\n    tag_58:\n        /* \"#utility.yul\":8036:8042   */\n      0x00\n        /* \"#utility.yul\":8085:8087   */\n      0x20\n        /* \"#utility.yul\":8073:8082   */\n      dup3\n        /* \"#utility.yul\":8064:8071   */\n      dup5\n        /* \"#utility.yul\":8060:8083   */\n      sub\n        /* \"#utility.yul\":8056:8088   */\n      slt\n        /* \"#utility.yul\":8053:8172   */\n      iszero\n      tag_399\n      jumpi\n        /* \"#utility.yul\":8091:8170   */\n      tag_400\n      tag_254\n      jump\t// in\n    tag_400:\n        /* \"#utility.yul\":8053:8172   */\n    tag_399:\n        /* \"#utility.yul\":8211:8212   */\n      0x00\n        /* \"#utility.yul\":8236:8289   */\n      tag_401\n        /* \"#utility.yul\":8281:8288   */\n      dup5\n        /* \"#utility.yul\":8272:8278   */\n      dup3\n        /* \"#utility.yul\":8261:8270   */\n      dup6\n        /* \"#utility.yul\":8257:8279   */\n      add\n        /* \"#utility.yul\":8236:8289   */\n      tag_261\n      jump\t// in\n    tag_401:\n        /* \"#utility.yul\":8226:8289   */\n      swap2\n      pop\n        /* \"#utility.yul\":8182:8299   */\n      pop\n        /* \"#utility.yul\":7977:8306   */\n      swap3\n      swap2\n      pop\n      pop\n      jump\t// out\n        /* \"#utility.yul\":8312:8398   */\n    tag_275:\n        /* \"#utility.yul\":8347:8354   */\n      0x00\n        /* \"#utility.yul\":8387:8391   */\n      0xff\n        /* \"#utility.yul\":8380:8385   */\n      dup3\n        /* \"#utility.yul\":8376:8392   */\n      and\n        /* \"#utility.yul\":8365:8392   */\n      swap1\n      pop\n        /* \"#utility.yul\":8312:8398   */\n      swap2\n      swap1\n      pop\n      jump\t// out\n        /* \"#utility.yul\":8404:8516   */\n    tag_276:\n        /* \"#utility.yul\":8487:8509   */\n      tag_404\n        /* \"#utility.yul\":8503:8508   */\n      dup2\n        /* \"#utility.yul\":8487:8509   */\n      tag_275\n      jump\t// in\n    tag_404:\n        /* \"#utility.yul\":8482:8485   */\n      dup3\n        /* \"#utility.yul\":8475:8510   */\n      mstore\n        /* \"#utility.yul\":8404:8516   */\n      pop\n      pop\n      jump\t// out\n        /* \"#utility.yul\":8522:8736   */\n    tag_67:\n        /* \"#utility.yul\":8611:8615   */\n      0x00\n        /* \"#utility.yul\":8649:8651   */\n      0x20\n        /* \"#utility.yul\":8638:8647   */\n      dup3\n        /* \"#utility.yul\":8634:8652   */\n      add\n        /* \"#utility.yul\":8626:8652   */\n      swap1\n      pop\n        /* \"#utility.yul\":8662:8729   */\n      tag_406\n        /* \"#utility.yul\":8726:8727   */\n      0x00\n        /* \"#utility.yul\":8715:8724   */\n      dup4\n        /* \"#utility.yul\":8711:8728   */\n      add\n        /* \"#utility.yul\":8702:8708   */\n      dup5\n        /* \"#utility.yul\":8662:8729   */\n      tag_276\n      jump\t// in\n    tag_406:\n        /* \"#utility.yul\":8522:8736   */\n      swap3\n      swap2\n      pop\n      pop\n      jump\t// out\n        /* \"#utility.yul\":8742:8802   */\n    tag_277:\n        /* \"#utility.yul\":8770:8773   */\n      0x00\n        /* \"#utility.yul\":8791:8796   */\n      dup2\n        /* \"#utility.yul\":8784:8796   */\n      swap1\n      pop\n        /* \"#utility.yul\":8742:8802   */\n      swap2\n      swap1\n      pop\n      jump\t// out\n        /* \"#utility.yul\":8808:8950   */\n    tag_278:\n        /* \"#utility.yul\":8858:8867   */\n      0x00\n        /* \"#utility.yul\":8891:8944   */\n      tag_409\n        /* \"#utility.yul\":8909:8943   */\n      tag_410\n        /* \"#utility.yul\":8918:8942   */\n      tag_411\n        /* \"#utility.yul\":8936:8941   */\n      dup5\n        /* \"#utility.yul\":8918:8942   */\n      tag_256\n      jump\t// in\n    tag_411:\n        /* \"#utility.yul\":8909:8943   */\n      tag_277\n      jump\t// in\n    tag_410:\n        /* \"#utility.yul\":8891:8944   */\n      tag_256\n      jump\t// in\n    tag_409:\n        /* \"#utility.yul\":8878:8944   */\n      swap1\n      pop\n        /* \"#utility.yul\":8808:8950   */\n      swap2\n      swap1\n      pop\n      jump\t// out\n        /* \"#utility.yul\":8956:9082   */\n    tag_279:\n        /* \"#utility.yul\":9006:9015   */\n      0x00\n        /* \"#utility.yul\":9039:9076   */\n      tag_413\n        /* \"#utility.yul\":9070:9075   */\n      dup3\n        /* \"#utility.yul\":9039:9076   */\n      tag_278\n      jump\t// in\n    tag_413:\n        /* \"#utility.yul\":9026:9076   */\n      swap1\n      pop\n        /* \"#utility.yul\":8956:9082   */\n      swap2\n      swap1\n      pop\n      jump\t// out\n        /* \"#utility.yul\":9088:9229   */\n    tag_280:\n        /* \"#utility.yul\":9153:9162   */\n      0x00\n        /* \"#utility.yul\":9186:9223   */\n      tag_415\n        /* \"#utility.yul\":9217:9222   */\n      dup3\n        /* \"#utility.yul\":9186:9223   */\n      tag_279\n      jump\t// in\n    tag_415:\n        /* \"#utility.yul\":9173:9223   */\n      swap1\n      pop\n        /* \"#utility.yul\":9088:9229   */\n      swap2\n      swap1\n      pop\n      jump\t// out\n        /* \"#utility.yul\":9235:9396   */\n    tag_281:\n        /* \"#utility.yul\":9337:9389   */\n      tag_417\n        /* \"#utility.yul\":9383:9388   */\n      dup2\n        /* \"#utility.yul\":9337:9389   */\n      tag_280\n      jump\t// in\n    tag_417:\n        /* \"#utility.yul\":9332:9335   */\n      dup3\n        /* \"#utility.yul\":9325:9390   */\n      mstore\n        /* \"#utility.yul\":9235:9396   */\n      pop\n      pop\n      jump\t// out\n        /* \"#utility.yul\":9402:9654   */\n    tag_75:\n        /* \"#utility.yul\":9510:9514   */\n      0x00\n        /* \"#utility.yul\":9548:9550   */\n      0x20\n        /* \"#utility.yul\":9537:9546   */\n      dup3\n        /* \"#utility.yul\":9533:9551   */\n      add\n        /* \"#utility.yul\":9525:9551   */\n      swap1\n      pop\n        /* \"#utility.yul\":9561:9647   */\n      tag_419\n        /* \"#utility.yul\":9644:9645   */\n      0x00\n        /* \"#utility.yul\":9633:9642   */\n      dup4\n        /* \"#utility.yul\":9629:9646   */\n      add\n        /* \"#utility.yul\":9620:9626   */\n      dup5\n        /* \"#utility.yul\":9561:9647   */\n      tag_281\n      jump\t// in\n    tag_419:\n        /* \"#utility.yul\":9402:9654   */\n      swap3\n      swap2\n      pop\n      pop\n      jump\t// out\n        /* \"#utility.yul\":9660:9989   */\n    tag_78:\n        /* \"#utility.yul\":9719:9725   */\n      0x00\n        /* \"#utility.yul\":9768:9770   */\n      0x20\n        /* \"#utility.yul\":9756:9765   */\n      dup3\n        /* \"#utility.yul\":9747:9754   */\n      dup5\n        /* \"#utility.yul\":9743:9766   */\n      sub\n        /* \"#utility.yul\":9739:9771   */\n      slt\n        /* \"#utility.yul\":9736:9855   */\n      iszero\n      tag_421\n      jumpi\n        /* \"#utility.yul\":9774:9853   */\n      tag_422\n      tag_254\n      jump\t// in\n    tag_422:\n        /* \"#utility.yul\":9736:9855   */\n    tag_421:\n        /* \"#utility.yul\":9894:9895   */\n      0x00\n        /* \"#utility.yul\":9919:9972   */\n      tag_423\n        /* \"#utility.yul\":9964:9971   */\n      dup5\n        /* \"#utility.yul\":9955:9961   */\n      dup3\n        /* \"#utility.yul\":9944:9953   */\n      dup6\n        /* \"#utility.yul\":9940:9962   */\n      add\n        /* \"#utility.yul\":9919:9972   */\n      tag_259\n      jump\t// in\n    tag_423:\n        /* \"#utility.yul\":9909:9972   */\n      swap2\n      pop\n        /* \"#utility.yul\":9865:9982   */\n      pop\n        /* \"#utility.yul\":9660:9989   */\n      swap3\n      swap2\n      pop\n      pop\n      jump\t// out\n        /* \"#utility.yul\":9995:10113   */\n    tag_282:\n        /* \"#utility.yul\":10082:10106   */\n      tag_425\n        /* \"#utility.yul\":10100:10105   */\n      dup2\n        /* \"#utility.yul\":10082:10106   */\n      tag_257\n      jump\t// in\n    tag_425:\n        /* \"#utility.yul\":10077:10080   */\n      dup3\n        /* \"#utility.yul\":10070:10107   */\n      mstore\n        /* \"#utility.yul\":9995:10113   */\n      pop\n      pop\n      jump\t// out\n        /* \"#utility.yul\":10119:10341   */\n    tag_91:\n        /* \"#utility.yul\":10212:10216   */\n      0x00\n        /* \"#utility.yul\":10250:10252   */\n      0x20\n        /* \"#utility.yul\":10239:10248   */\n      dup3\n        /* \"#utility.yul\":10235:10253   */\n      add\n        /* \"#utility.yul\":10227:10253   */\n      swap1\n      pop\n        /* \"#utility.yul\":10263:10334   */\n      tag_427\n        /* \"#utility.yul\":10331:10332   */\n      0x00\n        /* \"#utility.yul\":10320:10329   */\n      dup4\n        /* \"#utility.yul\":10316:10333   */\n      add\n        /* \"#utility.yul\":10307:10313   */\n      dup5\n        /* \"#utility.yul\":10263:10334   */\n      tag_282\n      jump\t// in\n    tag_427:\n        /* \"#utility.yul\":10119:10341   */\n      swap3\n      swap2\n      pop\n      pop\n      jump\t// out\n        /* \"#utility.yul\":10347:10821   */\n    tag_111:\n        /* \"#utility.yul\":10415:10421   */\n      0x00\n        /* \"#utility.yul\":10423:10429   */\n      dup1\n        /* \"#utility.yul\":10472:10474   */\n      0x40\n        /* \"#utility.yul\":10460:10469   */\n      dup4\n        /* \"#utility.yul\":10451:10458   */\n      dup6\n        /* \"#utility.yul\":10447:10470   */\n      sub\n        /* \"#utility.yul\":10443:10475   */\n      slt\n        /* \"#utility.yul\":10440:10559   */\n      iszero\n      tag_429\n      jumpi\n        /* \"#utility.yul\":10478:10557   */\n      tag_430\n      tag_254\n      jump\t// in\n    tag_430:\n        /* \"#utility.yul\":10440:10559   */\n    tag_429:\n        /* \"#utility.yul\":10598:10599   */\n      0x00\n        /* \"#utility.yul\":10623:10676   */\n      tag_431\n        /* \"#utility.yul\":10668:10675   */\n      dup6\n        /* \"#utility.yul\":10659:10665   */\n      dup3\n        /* \"#utility.yul\":10648:10657   */\n      dup7\n        /* \"#utility.yul\":10644:10666   */\n      add\n        /* \"#utility.yul\":10623:10676   */\n      tag_259\n      jump\t// in\n    tag_431:\n        /* \"#utility.yul\":10613:10676   */\n      swap3\n      pop\n        /* \"#utility.yul\":10569:10686   */\n      pop\n        /* \"#utility.yul\":10725:10727   */\n      0x20\n        /* \"#utility.yul\":10751:10804   */\n      tag_432\n        /* \"#utility.yul\":10796:10803   */\n      dup6\n        /* \"#utility.yul\":10787:10793   */\n      dup3\n        /* \"#utility.yul\":10776:10785   */\n      dup7\n        /* \"#utility.yul\":10772:10794   */\n      add\n        /* \"#utility.yul\":10751:10804   */\n      tag_259\n      jump\t// in\n    tag_432:\n        /* \"#utility.yul\":10741:10804   */\n      swap2\n      pop\n        /* \"#utility.yul\":10696:10814   */\n      pop\n        /* \"#utility.yul\":10347:10821   */\n      swap3\n      pop\n      swap3\n      swap1\n      pop\n      jump\t// out\n        /* \"#utility.yul\":10827:11007   */\n    tag_283:\n        /* \"#utility.yul\":10875:10952   */\n      0x4e487b7100000000000000000000000000000000000000000000000000000000\n        /* \"#utility.yul\":10872:10873   */\n      0x00\n        /* \"#utility.yul\":10865:10953   */\n      mstore\n        /* \"#utility.yul\":10972:10976   */\n      0x22\n        /* \"#utility.yul\":10969:10970   */\n      0x04\n        /* \"#utility.yul\":10962:10977   */\n      mstore\n        /* \"#utility.yul\":10996:11000   */\n      0x24\n        /* \"#utility.yul\":10993:10994   */\n      0x00\n        /* \"#utility.yul\":10986:11001   */\n      revert\n        /* \"#utility.yul\":11013:11333   */\n    tag_119:\n        /* \"#utility.yul\":11057:11063   */\n      0x00\n        /* \"#utility.yul\":11094:11095   */\n      0x02\n        /* \"#utility.yul\":11088:11092   */\n      dup3\n        /* \"#utility.yul\":11084:11096   */\n      div\n        /* \"#utility.yul\":11074:11096   */\n      swap1\n      pop\n        /* \"#utility.yul\":11141:11142   */\n      0x01\n        /* \"#utility.yul\":11135:11139   */\n      dup3\n        /* \"#utility.yul\":11131:11143   */\n      and\n        /* \"#utility.yul\":11162:11180   */\n      dup1\n        /* \"#utility.yul\":11152:11233   */\n      tag_435\n      jumpi\n        /* \"#utility.yul\":11218:11222   */\n      0x7f\n        /* \"#utility.yul\":11210:11216   */\n      dup3\n        /* \"#utility.yul\":11206:11223   */\n      and\n        /* \"#utility.yul\":11196:11223   */\n      swap2\n      pop\n        /* \"#utility.yul\":11152:11233   */\n    tag_435:\n        /* \"#utility.yul\":11280:11282   */\n      0x20\n        /* \"#utility.yul\":11272:11278   */\n      dup3\n        /* \"#utility.yul\":11269:11283   */\n      lt\n        /* \"#utility.yul\":11249:11267   */\n      dup2\n        /* \"#utility.yul\":11246:11284   */\n      sub\n        /* \"#utility.yul\":11243:11327   */\n      tag_436\n      jumpi\n        /* \"#utility.yul\":11299:11317   */\n      tag_437\n      tag_283\n      jump\t// in\n    tag_437:\n        /* \"#utility.yul\":11243:11327   */\n    tag_436:\n        /* \"#utility.yul\":11064:11333   */\n      pop\n        /* \"#utility.yul\":11013:11333   */\n      swap2\n      swap1\n      pop\n      jump\t// out\n        /* \"#utility.yul\":11339:11506   */\n    tag_284:\n        /* \"#utility.yul\":11479:11498   */\n      0x596f752063616e277420756e7374616b65000000000000000000000000000000\n        /* \"#utility.yul\":11475:11476   */\n      0x00\n        /* \"#utility.yul\":11467:11473   */\n      dup3\n        /* \"#utility.yul\":11463:11477   */\n      add\n        /* \"#utility.yul\":11456:11499   */\n      mstore\n        /* \"#utility.yul\":11339:11506   */\n      pop\n      jump\t// out\n        /* \"#utility.yul\":11512:11878   */\n    tag_285:\n        /* \"#utility.yul\":11654:11657   */\n      0x00\n        /* \"#utility.yul\":11675:11742   */\n      tag_440\n        /* \"#utility.yul\":11739:11741   */\n      0x11\n        /* \"#utility.yul\":11734:11737   */\n      dup4\n        /* \"#utility.yul\":11675:11742   */\n      tag_249\n      jump\t// in\n    tag_440:\n        /* \"#utility.yul\":11668:11742   */\n      swap2\n      pop\n        /* \"#utility.yul\":11751:11844   */\n      tag_441\n        /* \"#utility.yul\":11840:11843   */\n      dup3\n        /* \"#utility.yul\":11751:11844   */\n      tag_284\n      jump\t// in\n    tag_441:\n        /* \"#utility.yul\":11869:11871   */\n      0x20\n        /* \"#utility.yul\":11864:11867   */\n      dup3\n        /* \"#utility.yul\":11860:11872   */\n      add\n        /* \"#utility.yul\":11853:11872   */\n      swap1\n      pop\n        /* \"#utility.yul\":11512:11878   */\n      swap2\n      swap1\n      pop\n      jump\t// out\n        /* \"#utility.yul\":11884:12303   */\n    tag_140:\n        /* \"#utility.yul\":12050:12054   */\n      0x00\n        /* \"#utility.yul\":12088:12090   */\n      0x20\n        /* \"#utility.yul\":12077:12086   */\n      dup3\n        /* \"#utility.yul\":12073:12091   */\n      add\n        /* \"#utility.yul\":12065:12091   */\n      swap1\n      pop\n        /* \"#utility.yul\":12137:12146   */\n      dup2\n        /* \"#utility.yul\":12131:12135   */\n      dup2\n        /* \"#utility.yul\":12127:12147   */\n      sub\n        /* \"#utility.yul\":12123:12124   */\n      0x00\n        /* \"#utility.yul\":12112:12121   */\n      dup4\n        /* \"#utility.yul\":12108:12125   */\n      add\n        /* \"#utility.yul\":12101:12148   */\n      mstore\n        /* \"#utility.yul\":12165:12296   */\n      tag_443\n        /* \"#utility.yul\":12291:12295   */\n      dup2\n        /* \"#utility.yul\":12165:12296   */\n      tag_285\n      jump\t// in\n    tag_443:\n        /* \"#utility.yul\":12157:12296   */\n      swap1\n      pop\n        /* \"#utility.yul\":11884:12303   */\n      swap2\n      swap1\n      pop\n      jump\t// out\n        /* \"#utility.yul\":12309:12751   */\n    tag_145:\n        /* \"#utility.yul\":12458:12462   */\n      0x00\n        /* \"#utility.yul\":12496:12498   */\n      0x60\n        /* \"#utility.yul\":12485:12494   */\n      dup3\n        /* \"#utility.yul\":12481:12499   */\n      add\n        /* \"#utility.yul\":12473:12499   */\n      swap1\n      pop\n        /* \"#utility.yul\":12509:12580   */\n      tag_445\n        /* \"#utility.yul\":12577:12578   */\n      0x00\n        /* \"#utility.yul\":12566:12575   */\n      dup4\n        /* \"#utility.yul\":12562:12579   */\n      add\n        /* \"#utility.yul\":12553:12559   */\n      dup7\n        /* \"#utility.yul\":12509:12580   */\n      tag_282\n      jump\t// in\n    tag_445:\n        /* \"#utility.yul\":12590:12662   */\n      tag_446\n        /* \"#utility.yul\":12658:12660   */\n      0x20\n        /* \"#utility.yul\":12647:12656   */\n      dup4\n        /* \"#utility.yul\":12643:12661   */\n      add\n        /* \"#utility.yul\":12634:12640   */\n      dup6\n        /* \"#utility.yul\":12590:12662   */\n      tag_282\n      jump\t// in\n    tag_446:\n        /* \"#utility.yul\":12672:12744   */\n      tag_447\n        /* \"#utility.yul\":12740:12742   */\n      0x40\n        /* \"#utility.yul\":12729:12738   */\n      dup4\n        /* \"#utility.yul\":12725:12743   */\n      add\n        /* \"#utility.yul\":12716:12722   */\n      dup5\n        /* \"#utility.yul\":12672:12744   */\n      tag_247\n      jump\t// in\n    tag_447:\n        /* \"#utility.yul\":12309:12751   */\n      swap5\n      swap4\n      pop\n      pop\n      pop\n      pop\n      jump\t// out\n        /* \"#utility.yul\":12757:12937   */\n    tag_286:\n        /* \"#utility.yul\":12805:12882   */\n      0x4e487b7100000000000000000000000000000000000000000000000000000000\n        /* \"#utility.yul\":12802:12803   */\n      0x00\n        /* \"#utility.yul\":12795:12883   */\n      mstore\n        /* \"#utility.yul\":12902:12906   */\n      0x11\n        /* \"#utility.yul\":12899:12900   */\n      0x04\n        /* \"#utility.yul\":12892:12907   */\n      mstore\n        /* \"#utility.yul\":12926:12930   */\n      0x24\n        /* \"#utility.yul\":12923:12924   */\n      0x00\n        /* \"#utility.yul\":12916:12931   */\n      revert\n        /* \"#utility.yul\":12943:13134   */\n    tag_155:\n        /* \"#utility.yul\":12983:12986   */\n      0x00\n        /* \"#utility.yul\":13002:13022   */\n      tag_450\n        /* \"#utility.yul\":13020:13021   */\n      dup3\n        /* \"#utility.yul\":13002:13022   */\n      tag_246\n      jump\t// in\n    tag_450:\n        /* \"#utility.yul\":12997:13022   */\n      swap2\n      pop\n        /* \"#utility.yul\":13036:13056   */\n      tag_451\n        /* \"#utility.yul\":13054:13055   */\n      dup4\n        /* \"#utility.yul\":13036:13056   */\n      tag_246\n      jump\t// in\n    tag_451:\n        /* \"#utility.yul\":13031:13056   */\n      swap3\n      pop\n        /* \"#utility.yul\":13079:13080   */\n      dup3\n        /* \"#utility.yul\":13076:13077   */\n      dup3\n        /* \"#utility.yul\":13072:13081   */\n      add\n        /* \"#utility.yul\":13065:13081   */\n      swap1\n      pop\n        /* \"#utility.yul\":13100:13103   */\n      dup1\n        /* \"#utility.yul\":13097:13098   */\n      dup3\n        /* \"#utility.yul\":13094:13104   */\n      gt\n        /* \"#utility.yul\":13091:13127   */\n      iszero\n      tag_452\n      jumpi\n        /* \"#utility.yul\":13107:13125   */\n      tag_453\n      tag_286\n      jump\t// in\n    tag_453:\n        /* \"#utility.yul\":13091:13127   */\n    tag_452:\n        /* \"#utility.yul\":12943:13134   */\n      swap3\n      swap2\n      pop\n      pop\n      jump\t// out\n        /* \"#utility.yul\":13140:13334   */\n    tag_165:\n        /* \"#utility.yul\":13180:13184   */\n      0x00\n        /* \"#utility.yul\":13200:13220   */\n      tag_455\n        /* \"#utility.yul\":13218:13219   */\n      dup3\n        /* \"#utility.yul\":13200:13220   */\n      tag_246\n      jump\t// in\n    tag_455:\n        /* \"#utility.yul\":13195:13220   */\n      swap2\n      pop\n        /* \"#utility.yul\":13234:13254   */\n      tag_456\n        /* \"#utility.yul\":13252:13253   */\n      dup4\n        /* \"#utility.yul\":13234:13254   */\n      tag_246\n      jump\t// in\n    tag_456:\n        /* \"#utility.yul\":13229:13254   */\n      swap3\n      pop\n        /* \"#utility.yul\":13278:13279   */\n      dup3\n        /* \"#utility.yul\":13275:13276   */\n      dup3\n        /* \"#utility.yul\":13271:13280   */\n      sub\n        /* \"#utility.yul\":13263:13280   */\n      swap1\n      pop\n        /* \"#utility.yul\":13302:13303   */\n      dup2\n        /* \"#utility.yul\":13296:13300   */\n      dup2\n        /* \"#utility.yul\":13293:13304   */\n      gt\n        /* \"#utility.yul\":13290:13327   */\n      iszero\n      tag_457\n      jumpi\n        /* \"#utility.yul\":13307:13325   */\n      tag_458\n      tag_286\n      jump\t// in\n    tag_458:\n        /* \"#utility.yul\":13290:13327   */\n    tag_457:\n        /* \"#utility.yul\":13140:13334   */\n      swap3\n      swap2\n      pop\n      pop\n      jump\t// out\n        /* \"#utility.yul\":13340:13750   */\n    tag_167:\n        /* \"#utility.yul\":13380:13387   */\n      0x00\n        /* \"#utility.yul\":13403:13423   */\n      tag_460\n        /* \"#utility.yul\":13421:13422   */\n      dup3\n        /* \"#utility.yul\":13403:13423   */\n      tag_246\n      jump\t// in\n    tag_460:\n        /* \"#utility.yul\":13398:13423   */\n      swap2\n      pop\n        /* \"#utility.yul\":13437:13457   */\n      tag_461\n        /* \"#utility.yul\":13455:13456   */\n      dup4\n        /* \"#utility.yul\":13437:13457   */\n      tag_246\n      jump\t// in\n    tag_461:\n        /* \"#utility.yul\":13432:13457   */\n      swap3\n      pop\n        /* \"#utility.yul\":13492:13493   */\n      dup3\n        /* \"#utility.yul\":13489:13490   */\n      dup3\n        /* \"#utility.yul\":13485:13494   */\n      mul\n        /* \"#utility.yul\":13514:13544   */\n      tag_462\n        /* \"#utility.yul\":13532:13543   */\n      dup2\n        /* \"#utility.yul\":13514:13544   */\n      tag_246\n      jump\t// in\n    tag_462:\n        /* \"#utility.yul\":13503:13544   */\n      swap2\n      pop\n        /* \"#utility.yul\":13693:13694   */\n      dup3\n        /* \"#utility.yul\":13684:13691   */\n      dup3\n        /* \"#utility.yul\":13680:13695   */\n      div\n        /* \"#utility.yul\":13677:13678   */\n      dup5\n        /* \"#utility.yul\":13674:13696   */\n      eq\n        /* \"#utility.yul\":13654:13655   */\n      dup4\n        /* \"#utility.yul\":13647:13656   */\n      iszero\n        /* \"#utility.yul\":13627:13710   */\n      or\n        /* \"#utility.yul\":13604:13743   */\n      tag_463\n      jumpi\n        /* \"#utility.yul\":13723:13741   */\n      tag_464\n      tag_286\n      jump\t// in\n    tag_464:\n        /* \"#utility.yul\":13604:13743   */\n    tag_463:\n        /* \"#utility.yul\":13388:13750   */\n      pop\n        /* \"#utility.yul\":13340:13750   */\n      swap3\n      swap2\n      pop\n      pop\n      jump\t// out\n        /* \"#utility.yul\":13756:13980   */\n    tag_287:\n        /* \"#utility.yul\":13896:13930   */\n      0x45524332303a2064656372656173656420616c6c6f77616e63652062656c6f77\n        /* \"#utility.yul\":13892:13893   */\n      0x00\n        /* \"#utility.yul\":13884:13890   */\n      dup3\n        /* \"#utility.yul\":13880:13894   */\n      add\n        /* \"#utility.yul\":13873:13931   */\n      mstore\n        /* \"#utility.yul\":13965:13972   */\n      0x207a65726f000000000000000000000000000000000000000000000000000000\n        /* \"#utility.yul\":13960:13962   */\n      0x20\n        /* \"#utility.yul\":13952:13958   */\n      dup3\n        /* \"#utility.yul\":13948:13963   */\n      add\n        /* \"#utility.yul\":13941:13973   */\n      mstore\n        /* \"#utility.yul\":13756:13980   */\n      pop\n      jump\t// out\n        /* \"#utility.yul\":13986:14352   */\n    tag_288:\n        /* \"#utility.yul\":14128:14131   */\n      0x00\n        /* \"#utility.yul\":14149:14216   */\n      tag_467\n        /* \"#utility.yul\":14213:14215   */\n      0x25\n        /* \"#utility.yul\":14208:14211   */\n      dup4\n        /* \"#utility.yul\":14149:14216   */\n      tag_249\n      jump\t// in\n    tag_467:\n        /* \"#utility.yul\":14142:14216   */\n      swap2\n      pop\n        /* \"#utility.yul\":14225:14318   */\n      tag_468\n        /* \"#utility.yul\":14314:14317   */\n      dup3\n        /* \"#utility.yul\":14225:14318   */\n      tag_287\n      jump\t// in\n    tag_468:\n        /* \"#utility.yul\":14343:14345   */\n      0x40\n        /* \"#utility.yul\":14338:14341   */\n      dup3\n        /* \"#utility.yul\":14334:14346   */\n      add\n        /* \"#utility.yul\":14327:14346   */\n      swap1\n      pop\n        /* \"#utility.yul\":13986:14352   */\n      swap2\n      swap1\n      pop\n      jump\t// out\n        /* \"#utility.yul\":14358:14777   */\n    tag_180:\n        /* \"#utility.yul\":14524:14528   */\n      0x00\n        /* \"#utility.yul\":14562:14564   */\n      0x20\n        /* \"#utility.yul\":14551:14560   */\n      dup3\n        /* \"#utility.yul\":14547:14565   */\n      add\n        /* \"#utility.yul\":14539:14565   */\n      swap1\n      pop\n        /* \"#utility.yul\":14611:14620   */\n      dup2\n        /* \"#utility.yul\":14605:14609   */\n      dup2\n        /* \"#utility.yul\":14601:14621   */\n      sub\n        /* \"#utility.yul\":14597:14598   */\n      0x00\n        /* \"#utility.yul\":14586:14595   */\n      dup4\n        /* \"#utility.yul\":14582:14599   */\n      add\n        /* \"#utility.yul\":14575:14622   */\n      mstore\n        /* \"#utility.yul\":14639:14770   */\n      tag_470\n        /* \"#utility.yul\":14765:14769   */\n      dup2\n        /* \"#utility.yul\":14639:14770   */\n      tag_288\n      jump\t// in\n    tag_470:\n        /* \"#utility.yul\":14631:14770   */\n      swap1\n      pop\n        /* \"#utility.yul\":14358:14777   */\n      swap2\n      swap1\n      pop\n      jump\t// out\n        /* \"#utility.yul\":14783:15008   */\n    tag_289:\n        /* \"#utility.yul\":14923:14957   */\n      0x4f776e61626c653a206e6577206f776e657220697320746865207a65726f2061\n        /* \"#utility.yul\":14919:14920   */\n      0x00\n        /* \"#utility.yul\":14911:14917   */\n      dup3\n        /* \"#utility.yul\":14907:14921   */\n      add\n        /* \"#utility.yul\":14900:14958   */\n      mstore\n        /* \"#utility.yul\":14992:15000   */\n      0x6464726573730000000000000000000000000000000000000000000000000000\n        /* \"#utility.yul\":14987:14989   */\n      0x20\n        /* \"#utility.yul\":14979:14985   */\n      dup3\n        /* \"#utility.yul\":14975:14990   */\n      add\n        /* \"#utility.yul\":14968:15001   */\n      mstore\n        /* \"#utility.yul\":14783:15008   */\n      pop\n      jump\t// out\n        /* \"#utility.yul\":15014:15380   */\n    tag_290:\n        /* \"#utility.yul\":15156:15159   */\n      0x00\n        /* \"#utility.yul\":15177:15244   */\n      tag_473\n        /* \"#utility.yul\":15241:15243   */\n      0x26\n        /* \"#utility.yul\":15236:15239   */\n      dup4\n        /* \"#utility.yul\":15177:15244   */\n      tag_249\n      jump\t// in\n    tag_473:\n        /* \"#utility.yul\":15170:15244   */\n      swap2\n      pop\n        /* \"#utility.yul\":15253:15346   */\n      tag_474\n        /* \"#utility.yul\":15342:15345   */\n      dup3\n        /* \"#utility.yul\":15253:15346   */\n      tag_289\n      jump\t// in\n    tag_474:\n        /* \"#utility.yul\":15371:15373   */\n      0x40\n        /* \"#utility.yul\":15366:15369   */\n      dup3\n        /* \"#utility.yul\":15362:15374   */\n      add\n        /* \"#utility.yul\":15355:15374   */\n      swap1\n      pop\n        /* \"#utility.yul\":15014:15380   */\n      swap2\n      swap1\n      pop\n      jump\t// out\n        /* \"#utility.yul\":15386:15805   */\n    tag_196:\n        /* \"#utility.yul\":15552:15556   */\n      0x00\n        /* \"#utility.yul\":15590:15592   */\n      0x20\n        /* \"#utility.yul\":15579:15588   */\n      dup3\n        /* \"#utility.yul\":15575:15593   */\n      add\n        /* \"#utility.yul\":15567:15593   */\n      swap1\n      pop\n        /* \"#utility.yul\":15639:15648   */\n      dup2\n        /* \"#utility.yul\":15633:15637   */\n      dup2\n        /* \"#utility.yul\":15629:15649   */\n      sub\n        /* \"#utility.yul\":15625:15626   */\n      0x00\n        /* \"#utility.yul\":15614:15623   */\n      dup4\n        /* \"#utility.yul\":15610:15627   */\n      add\n        /* \"#utility.yul\":15603:15650   */\n      mstore\n        /* \"#utility.yul\":15667:15798   */\n      tag_476\n        /* \"#utility.yul\":15793:15797   */\n      dup2\n        /* \"#utility.yul\":15667:15798   */\n      tag_290\n      jump\t// in\n    tag_476:\n        /* \"#utility.yul\":15659:15798   */\n      swap1\n      pop\n        /* \"#utility.yul\":15386:15805   */\n      swap2\n      swap1\n      pop\n      jump\t// out\n        /* \"#utility.yul\":15811:16034   */\n    tag_291:\n        /* \"#utility.yul\":15951:15985   */\n      0x45524332303a20617070726f76652066726f6d20746865207a65726f20616464\n        /* \"#utility.yul\":15947:15948   */\n      0x00\n        /* \"#utility.yul\":15939:15945   */\n      dup3\n        /* \"#utility.yul\":15935:15949   */\n      add\n        /* \"#utility.yul\":15928:15986   */\n      mstore\n        /* \"#utility.yul\":16020:16026   */\n      0x7265737300000000000000000000000000000000000000000000000000000000\n        /* \"#utility.yul\":16015:16017   */\n      0x20\n        /* \"#utility.yul\":16007:16013   */\n      dup3\n        /* \"#utility.yul\":16003:16018   */\n      add\n        /* \"#utility.yul\":15996:16027   */\n      mstore\n        /* \"#utility.yul\":15811:16034   */\n      pop\n      jump\t// out\n        /* \"#utility.yul\":16040:16406   */\n    tag_292:\n        /* \"#utility.yul\":16182:16185   */\n      0x00\n        /* \"#utility.yul\":16203:16270   */\n      tag_479\n        /* \"#utility.yul\":16267:16269   */\n      0x24\n        /* \"#utility.yul\":16262:16265   */\n      dup4\n        /* \"#utility.yul\":16203:16270   */\n      tag_249\n      jump\t// in\n    tag_479:\n        /* \"#utility.yul\":16196:16270   */\n      swap2\n      pop\n        /* \"#utility.yul\":16279:16372   */\n      tag_480\n        /* \"#utility.yul\":16368:16371   */\n      dup3\n        /* \"#utility.yul\":16279:16372   */\n      tag_291\n      jump\t// in\n    tag_480:\n        /* \"#utility.yul\":16397:16399   */\n      0x40\n        /* \"#utility.yul\":16392:16395   */\n      dup3\n        /* \"#utility.yul\":16388:16400   */\n      add\n        /* \"#utility.yul\":16381:16400   */\n      swap1\n      pop\n        /* \"#utility.yul\":16040:16406   */\n      swap2\n      swap1\n      pop\n      jump\t// out\n        /* \"#utility.yul\":16412:16831   */\n    tag_202:\n        /* \"#utility.yul\":16578:16582   */\n      0x00\n        /* \"#utility.yul\":16616:16618   */\n      0x20\n        /* \"#utility.yul\":16605:16614   */\n      dup3\n        /* \"#utility.yul\":16601:16619   */\n      add\n        /* \"#utility.yul\":16593:16619   */\n      swap1\n      pop\n        /* \"#utility.yul\":16665:16674   */\n      dup2\n        /* \"#utility.yul\":16659:16663   */\n      dup2\n        /* \"#utility.yul\":16655:16675   */\n      sub\n        /* \"#utility.yul\":16651:16652   */\n      0x00\n        /* \"#utility.yul\":16640:16649   */\n      dup4\n        /* \"#utility.yul\":16636:16653   */\n      add\n        /* \"#utility.yul\":16629:16676   */\n      mstore\n        /* \"#utility.yul\":16693:16824   */\n      tag_482\n        /* \"#utility.yul\":16819:16823   */\n      dup2\n        /* \"#utility.yul\":16693:16824   */\n      tag_292\n      jump\t// in\n    tag_482:\n        /* \"#utility.yul\":16685:16824   */\n      swap1\n      pop\n        /* \"#utility.yul\":16412:16831   */\n      swap2\n      swap1\n      pop\n      jump\t// out\n        /* \"#utility.yul\":16837:17058   */\n    tag_293:\n        /* \"#utility.yul\":16977:17011   */\n      0x45524332303a20617070726f766520746f20746865207a65726f206164647265\n        /* \"#utility.yul\":16973:16974   */\n      0x00\n        /* \"#utility.yul\":16965:16971   */\n      dup3\n        /* \"#utility.yul\":16961:16975   */\n      add\n        /* \"#utility.yul\":16954:17012   */\n      mstore\n        /* \"#utility.yul\":17046:17050   */\n      0x7373000000000000000000000000000000000000000000000000000000000000\n        /* \"#utility.yul\":17041:17043   */\n      0x20\n        /* \"#utility.yul\":17033:17039   */\n      dup3\n        /* \"#utility.yul\":17029:17044   */\n      add\n        /* \"#utility.yul\":17022:17051   */\n      mstore\n        /* \"#utility.yul\":16837:17058   */\n      pop\n      jump\t// out\n        /* \"#utility.yul\":17064:17430   */\n    tag_294:\n        /* \"#utility.yul\":17206:17209   */\n      0x00\n        /* \"#utility.yul\":17227:17294   */\n      tag_485\n        /* \"#utility.yul\":17291:17293   */\n      0x22\n        /* \"#utility.yul\":17286:17289   */\n      dup4\n        /* \"#utility.yul\":17227:17294   */\n      tag_249\n      jump\t// in\n    tag_485:\n        /* \"#utility.yul\":17220:17294   */\n      swap2\n      pop\n        /* \"#utility.yul\":17303:17396   */\n      tag_486\n        /* \"#utility.yul\":17392:17395   */\n      dup3\n        /* \"#utility.yul\":17303:17396   */\n      tag_293\n      jump\t// in\n    tag_486:\n        /* \"#utility.yul\":17421:17423   */\n      0x40\n        /* \"#utility.yul\":17416:17419   */\n      dup3\n        /* \"#utility.yul\":17412:17424   */\n      add\n        /* \"#utility.yul\":17405:17424   */\n      swap1\n      pop\n        /* \"#utility.yul\":17064:17430   */\n      swap2\n      swap1\n      pop\n      jump\t// out\n        /* \"#utility.yul\":17436:17855   */\n    tag_205:\n        /* \"#utility.yul\":17602:17606   */\n      0x00\n        /* \"#utility.yul\":17640:17642   */\n      0x20\n        /* \"#utility.yul\":17629:17638   */\n      dup3\n        /* \"#utility.yul\":17625:17643   */\n      add\n        /* \"#utility.yul\":17617:17643   */\n      swap1\n      pop\n        /* \"#utility.yul\":17689:17698   */\n      dup2\n        /* \"#utility.yul\":17683:17687   */\n      dup2\n        /* \"#utility.yul\":17679:17699   */\n      sub\n        /* \"#utility.yul\":17675:17676   */\n      0x00\n        /* \"#utility.yul\":17664:17673   */\n      dup4\n        /* \"#utility.yul\":17660:17677   */\n      add\n        /* \"#utility.yul\":17653:17700   */\n      mstore\n        /* \"#utility.yul\":17717:17848   */\n      tag_488\n        /* \"#utility.yul\":17843:17847   */\n      dup2\n        /* \"#utility.yul\":17717:17848   */\n      tag_294\n      jump\t// in\n    tag_488:\n        /* \"#utility.yul\":17709:17848   */\n      swap1\n      pop\n        /* \"#utility.yul\":17436:17855   */\n      swap2\n      swap1\n      pop\n      jump\t// out\n        /* \"#utility.yul\":17861:18040   */\n    tag_295:\n        /* \"#utility.yul\":18001:18032   */\n      0x45524332303a20696e73756666696369656e7420616c6c6f77616e6365000000\n        /* \"#utility.yul\":17997:17998   */\n      0x00\n        /* \"#utility.yul\":17989:17995   */\n      dup3\n        /* \"#utility.yul\":17985:17999   */\n      add\n        /* \"#utility.yul\":17978:18033   */\n      mstore\n        /* \"#utility.yul\":17861:18040   */\n      pop\n      jump\t// out\n        /* \"#utility.yul\":18046:18412   */\n    tag_296:\n        /* \"#utility.yul\":18188:18191   */\n      0x00\n        /* \"#utility.yul\":18209:18276   */\n      tag_491\n        /* \"#utility.yul\":18273:18275   */\n      0x1d\n        /* \"#utility.yul\":18268:18271   */\n      dup4\n        /* \"#utility.yul\":18209:18276   */\n      tag_249\n      jump\t// in\n    tag_491:\n        /* \"#utility.yul\":18202:18276   */\n      swap2\n      pop\n        /* \"#utility.yul\":18285:18378   */\n      tag_492\n        /* \"#utility.yul\":18374:18377   */\n      dup3\n        /* \"#utility.yul\":18285:18378   */\n      tag_295\n      jump\t// in\n    tag_492:\n        /* \"#utility.yul\":18403:18405   */\n      0x20\n        /* \"#utility.yul\":18398:18401   */\n      dup3\n        /* \"#utility.yul\":18394:18406   */\n      add\n        /* \"#utility.yul\":18387:18406   */\n      swap1\n      pop\n        /* \"#utility.yul\":18046:18412   */\n      swap2\n      swap1\n      pop\n      jump\t// out\n        /* \"#utility.yul\":18418:18837   */\n    tag_212:\n        /* \"#utility.yul\":18584:18588   */\n      0x00\n        /* \"#utility.yul\":18622:18624   */\n      0x20\n        /* \"#utility.yul\":18611:18620   */\n      dup3\n        /* \"#utility.yul\":18607:18625   */\n      add\n        /* \"#utility.yul\":18599:18625   */\n      swap1\n      pop\n        /* \"#utility.yul\":18671:18680   */\n      dup2\n        /* \"#utility.yul\":18665:18669   */\n      dup2\n        /* \"#utility.yul\":18661:18681   */\n      sub\n        /* \"#utility.yul\":18657:18658   */\n      0x00\n        /* \"#utility.yul\":18646:18655   */\n      dup4\n        /* \"#utility.yul\":18642:18659   */\n      add\n        /* \"#utility.yul\":18635:18682   */\n      mstore\n        /* \"#utility.yul\":18699:18830   */\n      tag_494\n        /* \"#utility.yul\":18825:18829   */\n      dup2\n        /* \"#utility.yul\":18699:18830   */\n      tag_296\n      jump\t// in\n    tag_494:\n        /* \"#utility.yul\":18691:18830   */\n      swap1\n      pop\n        /* \"#utility.yul\":18418:18837   */\n      swap2\n      swap1\n      pop\n      jump\t// out\n        /* \"#utility.yul\":18843:19067   */\n    tag_297:\n        /* \"#utility.yul\":18983:19017   */\n      0x45524332303a207472616e736665722066726f6d20746865207a65726f206164\n        /* \"#utility.yul\":18979:18980   */\n      0x00\n        /* \"#utility.yul\":18971:18977   */\n      dup3\n        /* \"#utility.yul\":18967:18981   */\n      add\n        /* \"#utility.yul\":18960:19018   */\n      mstore\n        /* \"#utility.yul\":19052:19059   */\n      0x6472657373000000000000000000000000000000000000000000000000000000\n        /* \"#utility.yul\":19047:19049   */\n      0x20\n        /* \"#utility.yul\":19039:19045   */\n      dup3\n        /* \"#utility.yul\":19035:19050   */\n      add\n        /* \"#utility.yul\":19028:19060   */\n      mstore\n        /* \"#utility.yul\":18843:19067   */\n      pop\n      jump\t// out\n        /* \"#utility.yul\":19073:19439   */\n    tag_298:\n        /* \"#utility.yul\":19215:19218   */\n      0x00\n        /* \"#utility.yul\":19236:19303   */\n      tag_497\n        /* \"#utility.yul\":19300:19302   */\n      0x25\n        /* \"#utility.yul\":19295:19298   */\n      dup4\n        /* \"#utility.yul\":19236:19303   */\n      tag_249\n      jump\t// in\n    tag_497:\n        /* \"#utility.yul\":19229:19303   */\n      swap2\n      pop\n        /* \"#utility.yul\":19312:19405   */\n      tag_498\n        /* \"#utility.yul\":19401:19404   */\n      dup3\n        /* \"#utility.yul\":19312:19405   */\n      tag_297\n      jump\t// in\n    tag_498:\n        /* \"#utility.yul\":19430:19432   */\n      0x40\n        /* \"#utility.yul\":19425:19428   */\n      dup3\n        /* \"#utility.yul\":19421:19433   */\n      add\n        /* \"#utility.yul\":19414:19433   */\n      swap1\n      pop\n        /* \"#utility.yul\":19073:19439   */\n      swap2\n      swap1\n      pop\n      jump\t// out\n        /* \"#utility.yul\":19445:19864   */\n    tag_217:\n        /* \"#utility.yul\":19611:19615   */\n      0x00\n        /* \"#utility.yul\":19649:19651   */\n      0x20\n        /* \"#utility.yul\":19638:19647   */\n      dup3\n        /* \"#utility.yul\":19634:19652   */\n      add\n        /* \"#utility.yul\":19626:19652   */\n      swap1\n      pop\n        /* \"#utility.yul\":19698:19707   */\n      dup2\n        /* \"#utility.yul\":19692:19696   */\n      dup2\n        /* \"#utility.yul\":19688:19708   */\n      sub\n        /* \"#utility.yul\":19684:19685   */\n      0x00\n        /* \"#utility.yul\":19673:19682   */\n      dup4\n        /* \"#utility.yul\":19669:19686   */\n      add\n        /* \"#utility.yul\":19662:19709   */\n      mstore\n        /* \"#utility.yul\":19726:19857   */\n      tag_500\n        /* \"#utility.yul\":19852:19856   */\n      dup2\n        /* \"#utility.yul\":19726:19857   */\n      tag_298\n      jump\t// in\n    tag_500:\n        /* \"#utility.yul\":19718:19857   */\n      swap1\n      pop\n        /* \"#utility.yul\":19445:19864   */\n      swap2\n      swap1\n      pop\n      jump\t// out\n        /* \"#utility.yul\":19870:20092   */\n    tag_299:\n        /* \"#utility.yul\":20010:20044   */\n      0x45524332303a207472616e7366657220746f20746865207a65726f2061646472\n        /* \"#utility.yul\":20006:20007   */\n      0x00\n        /* \"#utility.yul\":19998:20004   */\n      dup3\n        /* \"#utility.yul\":19994:20008   */\n      add\n        /* \"#utility.yul\":19987:20045   */\n      mstore\n        /* \"#utility.yul\":20079:20084   */\n      0x6573730000000000000000000000000000000000000000000000000000000000\n        /* \"#utility.yul\":20074:20076   */\n      0x20\n        /* \"#utility.yul\":20066:20072   */\n      dup3\n        /* \"#utility.yul\":20062:20077   */\n      add\n        /* \"#utility.yul\":20055:20085   */\n      mstore\n        /* \"#utility.yul\":19870:20092   */\n      pop\n      jump\t// out\n        /* \"#utility.yul\":20098:20464   */\n    tag_300:\n        /* \"#utility.yul\":20240:20243   */\n      0x00\n        /* \"#utility.yul\":20261:20328   */\n      tag_503\n        /* \"#utility.yul\":20325:20327   */\n      0x23\n        /* \"#utility.yul\":20320:20323   */\n      dup4\n        /* \"#utility.yul\":20261:20328   */\n      tag_249\n      jump\t// in\n    tag_503:\n        /* \"#utility.yul\":20254:20328   */\n      swap2\n      pop\n        /* \"#utility.yul\":20337:20430   */\n      tag_504\n        /* \"#utility.yul\":20426:20429   */\n      dup3\n        /* \"#utility.yul\":20337:20430   */\n      tag_299\n      jump\t// in\n    tag_504:\n        /* \"#utility.yul\":20455:20457   */\n      0x40\n        /* \"#utility.yul\":20450:20453   */\n      dup3\n        /* \"#utility.yul\":20446:20458   */\n      add\n        /* \"#utility.yul\":20439:20458   */\n      swap1\n      pop\n        /* \"#utility.yul\":20098:20464   */\n      swap2\n      swap1\n      pop\n      jump\t// out\n        /* \"#utility.yul\":20470:20889   */\n    tag_220:\n        /* \"#utility.yul\":20636:20640   */\n      0x00\n        /* \"#utility.yul\":20674:20676   */\n      0x20\n        /* \"#utility.yul\":20663:20672   */\n      dup3\n        /* \"#utility.yul\":20659:20677   */\n      add\n        /* \"#utility.yul\":20651:20677   */\n      swap1\n      pop\n        /* \"#utility.yul\":20723:20732   */\n      dup2\n        /* \"#utility.yul\":20717:20721   */\n      dup2\n        /* \"#utility.yul\":20713:20733   */\n      sub\n        /* \"#utility.yul\":20709:20710   */\n      0x00\n        /* \"#utility.yul\":20698:20707   */\n      dup4\n        /* \"#utility.yul\":20694:20711   */\n      add\n        /* \"#utility.yul\":20687:20734   */\n      mstore\n        /* \"#utility.yul\":20751:20882   */\n      tag_506\n        /* \"#utility.yul\":20877:20881   */\n      dup2\n        /* \"#utility.yul\":20751:20882   */\n      tag_300\n      jump\t// in\n    tag_506:\n        /* \"#utility.yul\":20743:20882   */\n      swap1\n      pop\n        /* \"#utility.yul\":20470:20889   */\n      swap2\n      swap1\n      pop\n      jump\t// out\n        /* \"#utility.yul\":20895:21120   */\n    tag_301:\n        /* \"#utility.yul\":21035:21069   */\n      0x45524332303a207472616e7366657220616d6f756e7420657863656564732062\n        /* \"#utility.yul\":21031:21032   */\n      0x00\n        /* \"#utility.yul\":21023:21029   */\n      dup3\n        /* \"#utility.yul\":21019:21033   */\n      add\n        /* \"#utility.yul\":21012:21070   */\n      mstore\n        /* \"#utility.yul\":21104:21112   */\n      0x616c616e63650000000000000000000000000000000000000000000000000000\n        /* \"#utility.yul\":21099:21101   */\n      0x20\n        /* \"#utility.yul\":21091:21097   */\n      dup3\n        /* \"#utility.yul\":21087:21102   */\n      add\n        /* \"#utility.yul\":21080:21113   */\n      mstore\n        /* \"#utility.yul\":20895:21120   */\n      pop\n      jump\t// out\n        /* \"#utility.yul\":21126:21492   */\n    tag_302:\n        /* \"#utility.yul\":21268:21271   */\n      0x00\n        /* \"#utility.yul\":21289:21356   */\n      tag_509\n        /* \"#utility.yul\":21353:21355   */\n      0x26\n        /* \"#utility.yul\":21348:21351   */\n      dup4\n        /* \"#utility.yul\":21289:21356   */\n      tag_249\n      jump\t// in\n    tag_509:\n        /* \"#utility.yul\":21282:21356   */\n      swap2\n      pop\n        /* \"#utility.yul\":21365:21458   */\n      tag_510\n        /* \"#utility.yul\":21454:21457   */\n      dup3\n        /* \"#utility.yul\":21365:21458   */\n      tag_301\n      jump\t// in\n    tag_510:\n        /* \"#utility.yul\":21483:21485   */\n      0x40\n        /* \"#utility.yul\":21478:21481   */\n      dup3\n        /* \"#utility.yul\":21474:21486   */\n      add\n        /* \"#utility.yul\":21467:21486   */\n      swap1\n      pop\n        /* \"#utility.yul\":21126:21492   */\n      swap2\n      swap1\n      pop\n      jump\t// out\n        /* \"#utility.yul\":21498:21917   */\n    tag_225:\n        /* \"#utility.yul\":21664:21668   */\n      0x00\n        /* \"#utility.yul\":21702:21704   */\n      0x20\n        /* \"#utility.yul\":21691:21700   */\n      dup3\n        /* \"#utility.yul\":21687:21705   */\n      add\n        /* \"#utility.yul\":21679:21705   */\n      swap1\n      pop\n        /* \"#utility.yul\":21751:21760   */\n      dup2\n        /* \"#utility.yul\":21745:21749   */\n      dup2\n        /* \"#utility.yul\":21741:21761   */\n      sub\n        /* \"#utility.yul\":21737:21738   */\n      0x00\n        /* \"#utility.yul\":21726:21735   */\n      dup4\n        /* \"#utility.yul\":21722:21739   */\n      add\n        /* \"#utility.yul\":21715:21762   */\n      mstore\n        /* \"#utility.yul\":21779:21910   */\n      tag_512\n        /* \"#utility.yul\":21905:21909   */\n      dup2\n        /* \"#utility.yul\":21779:21910   */\n      tag_302\n      jump\t// in\n    tag_512:\n        /* \"#utility.yul\":21771:21910   */\n      swap1\n      pop\n        /* \"#utility.yul\":21498:21917   */\n      swap2\n      swap1\n      pop\n      jump\t// out\n        /* \"#utility.yul\":21923:22104   */\n    tag_303:\n        /* \"#utility.yul\":22063:22096   */\n      0x45524332303a206d696e7420746f20746865207a65726f206164647265737300\n        /* \"#utility.yul\":22059:22060   */\n      0x00\n        /* \"#utility.yul\":22051:22057   */\n      dup3\n        /* \"#utility.yul\":22047:22061   */\n      add\n        /* \"#utility.yul\":22040:22097   */\n      mstore\n        /* \"#utility.yul\":21923:22104   */\n      pop\n      jump\t// out\n        /* \"#utility.yul\":22110:22476   */\n    tag_304:\n        /* \"#utility.yul\":22252:22255   */\n      0x00\n        /* \"#utility.yul\":22273:22340   */\n      tag_515\n        /* \"#utility.yul\":22337:22339   */\n      0x1f\n        /* \"#utility.yul\":22332:22335   */\n      dup4\n        /* \"#utility.yul\":22273:22340   */\n      tag_249\n      jump\t// in\n    tag_515:\n        /* \"#utility.yul\":22266:22340   */\n      swap2\n      pop\n        /* \"#utility.yul\":22349:22442   */\n      tag_516\n        /* \"#utility.yul\":22438:22441   */\n      dup3\n        /* \"#utility.yul\":22349:22442   */\n      tag_303\n      jump\t// in\n    tag_516:\n        /* \"#utility.yul\":22467:22469   */\n      0x20\n        /* \"#utility.yul\":22462:22465   */\n      dup3\n        /* \"#utility.yul\":22458:22470   */\n      add\n        /* \"#utility.yul\":22451:22470   */\n      swap1\n      pop\n        /* \"#utility.yul\":22110:22476   */\n      swap2\n      swap1\n      pop\n      jump\t// out\n        /* \"#utility.yul\":22482:22901   */\n    tag_232:\n        /* \"#utility.yul\":22648:22652   */\n      0x00\n        /* \"#utility.yul\":22686:22688   */\n      0x20\n        /* \"#utility.yul\":22675:22684   */\n      dup3\n        /* \"#utility.yul\":22671:22689   */\n      add\n        /* \"#utility.yul\":22663:22689   */\n      swap1\n      pop\n        /* \"#utility.yul\":22735:22744   */\n      dup2\n        /* \"#utility.yul\":22729:22733   */\n      dup2\n        /* \"#utility.yul\":22725:22745   */\n      sub\n        /* \"#utility.yul\":22721:22722   */\n      0x00\n        /* \"#utility.yul\":22710:22719   */\n      dup4\n        /* \"#utility.yul\":22706:22723   */\n      add\n        /* \"#utility.yul\":22699:22746   */\n      mstore\n        /* \"#utility.yul\":22763:22894   */\n      tag_518\n        /* \"#utility.yul\":22889:22893   */\n      dup2\n        /* \"#utility.yul\":22763:22894   */\n      tag_304\n      jump\t// in\n    tag_518:\n        /* \"#utility.yul\":22755:22894   */\n      swap1\n      pop\n        /* \"#utility.yul\":22482:22901   */\n      swap2\n      swap1\n      pop\n      jump\t// out\n        /* \"#utility.yul\":22907:23089   */\n    tag_305:\n        /* \"#utility.yul\":23047:23081   */\n      0x4f776e61626c653a2063616c6c6572206973206e6f7420746865206f776e6572\n        /* \"#utility.yul\":23043:23044   */\n      0x00\n        /* \"#utility.yul\":23035:23041   */\n      dup3\n        /* \"#utility.yul\":23031:23045   */\n      add\n        /* \"#utility.yul\":23024:23082   */\n      mstore\n        /* \"#utility.yul\":22907:23089   */\n      pop\n      jump\t// out\n        /* \"#utility.yul\":23095:23461   */\n    tag_306:\n        /* \"#utility.yul\":23237:23240   */\n      0x00\n        /* \"#utility.yul\":23258:23325   */\n      tag_521\n        /* \"#utility.yul\":23322:23324   */\n      0x20\n        /* \"#utility.yul\":23317:23320   */\n      dup4\n        /* \"#utility.yul\":23258:23325   */\n      tag_249\n      jump\t// in\n    tag_521:\n        /* \"#utility.yul\":23251:23325   */\n      swap2\n      pop\n        /* \"#utility.yul\":23334:23427   */\n      tag_522\n        /* \"#utility.yul\":23423:23426   */\n      dup3\n        /* \"#utility.yul\":23334:23427   */\n      tag_305\n      jump\t// in\n    tag_522:\n        /* \"#utility.yul\":23452:23454   */\n      0x20\n        /* \"#utility.yul\":23447:23450   */\n      dup3\n        /* \"#utility.yul\":23443:23455   */\n      add\n        /* \"#utility.yul\":23436:23455   */\n      swap1\n      pop\n        /* \"#utility.yul\":23095:23461   */\n      swap2\n      swap1\n      pop\n      jump\t// out\n        /* \"#utility.yul\":23467:23886   */\n    tag_242:\n        /* \"#utility.yul\":23633:23637   */\n      0x00\n        /* \"#utility.yul\":23671:23673   */\n      0x20\n        /* \"#utility.yul\":23660:23669   */\n      dup3\n        /* \"#utility.yul\":23656:23674   */\n      add\n        /* \"#utility.yul\":23648:23674   */\n      swap1\n      pop\n        /* \"#utility.yul\":23720:23729   */\n      dup2\n        /* \"#utility.yul\":23714:23718   */\n      dup2\n        /* \"#utility.yul\":23710:23730   */\n      sub\n        /* \"#utility.yul\":23706:23707   */\n      0x00\n        /* \"#utility.yul\":23695:23704   */\n      dup4\n        /* \"#utility.yul\":23691:23708   */\n      add\n        /* \"#utility.yul\":23684:23731   */\n      mstore\n        /* \"#utility.yul\":23748:23879   */\n      tag_524\n        /* \"#utility.yul\":23874:23878   */\n      dup2\n        /* \"#utility.yul\":23748:23879   */\n      tag_306\n      jump\t// in\n    tag_524:\n        /* \"#utility.yul\":23740:23879   */\n      swap1\n      pop\n        /* \"#utility.yul\":23467:23886   */\n      swap2\n      swap1\n      pop\n      jump\t// out\n\n    auxdata: 0xa26469706673582212209b44538de3c3722e1d711d7e001865ada8efd1dff42726b6ea7bbdd61655198064736f6c63430008120033\n}\n",
				"bytecode": {
					"linkReferences": {},
					"object": "608060405262015180620000186200017060201b60201c565b600a620000269190620003e1565b603262000034919062000432565b620000409190620004ac565b6009553480156200005057600080fd5b506040516200294a3803806200294a83398181016040528101906200007691906200054e565b6040518060400160405280600781526020017f4d79546f6b656e000000000000000000000000000000000000000000000000008152506040518060400160405280600381526020017f4d544b00000000000000000000000000000000000000000000000000000000008152508160039081620000f39190620007f0565b508060049081620001059190620007f0565b505050620001286200011c6200017960201b60201c565b6200018160201b60201c565b80600660006101000a81548173ffffffffffffffffffffffffffffffffffffffff021916908373ffffffffffffffffffffffffffffffffffffffff16021790555050620008d7565b60006012905090565b600033905090565b6000600560009054906101000a900473ffffffffffffffffffffffffffffffffffffffff16905081600560006101000a81548173ffffffffffffffffffffffffffffffffffffffff021916908373ffffffffffffffffffffffffffffffffffffffff1602179055508173ffffffffffffffffffffffffffffffffffffffff168173ffffffffffffffffffffffffffffffffffffffff167f8be0079c531659141344cd1fd0a4f28419497f9722a3daafe3b4186f6b6457e060405160405180910390a35050565b7f4e487b7100000000000000000000000000000000000000000000000000000000600052601160045260246000fd5b60008160011c9050919050565b6000808291508390505b6001851115620002d557808604811115620002ad57620002ac62000247565b5b6001851615620002bd5780820291505b8081029050620002cd8562000276565b94506200028d565b94509492505050565b600082620002f05760019050620003c3565b81620003005760009050620003c3565b816001811462000319576002811462000324576200035a565b6001915050620003c3565b60ff84111562000339576200033862000247565b5b8360020a91508482111562000353576200035262000247565b5b50620003c3565b5060208310610133831016604e8410600b8410161715620003945782820a9050838111156200038e576200038d62000247565b5b620003c3565b620003a3848484600162000283565b92509050818404811115620003bd57620003bc62000247565b5b81810290505b9392505050565b6000819050919050565b600060ff82169050919050565b6000620003ee82620003ca565b9150620003fb83620003d4565b92506200042a7fffffffffffffffffffffffffffffffffffffffffffffffffffffffffffffffff8484620002de565b905092915050565b60006200043f82620003ca565b91506200044c83620003ca565b92508282026200045c81620003ca565b9150828204841483151762000476576200047562000247565b5b5092915050565b7f4e487b7100000000000000000000000000000000000000000000000000000000600052601260045260246000fd5b6000620004b982620003ca565b9150620004c683620003ca565b925082620004d957620004d86200047d565b5b828204905092915050565b600080fd5b600073ffffffffffffffffffffffffffffffffffffffff82169050919050565b60006200051682620004e9565b9050919050565b620005288162000509565b81146200053457600080fd5b50565b60008151905062000548816200051d565b92915050565b600060208284031215620005675762000566620004e4565b5b6000620005778482850162000537565b91505092915050565b600081519050919050565b7f4e487b7100000000000000000000000000000000000000000000000000000000600052604160045260246000fd5b7f4e487b7100000000000000000000000000000000000000000000000000000000600052602260045260246000fd5b600060028204905060018216806200060257607f821691505b602082108103620006185762000617620005ba565b5b50919050565b60008190508160005260206000209050919050565b60006020601f8301049050919050565b600082821b905092915050565b600060088302620006827fffffffffffffffffffffffffffffffffffffffffffffffffffffffffffffffff8262000643565b6200068e868362000643565b95508019841693508086168417925050509392505050565b6000819050919050565b6000620006d1620006cb620006c584620003ca565b620006a6565b620003ca565b9050919050565b6000819050919050565b620006ed83620006b0565b62000705620006fc82620006d8565b84845462000650565b825550505050565b600090565b6200071c6200070d565b62000729818484620006e2565b505050565b5b8181101562000751576200074560008262000712565b6001810190506200072f565b5050565b601f821115620007a0576200076a816200061e565b620007758462000633565b8101602085101562000785578190505b6200079d620007948562000633565b8301826200072e565b50505b505050565b600082821c905092915050565b6000620007c560001984600802620007a5565b1980831691505092915050565b6000620007e08383620007b2565b9150826002028217905092915050565b620007fb8262000580565b67ffffffffffffffff8111156200081757620008166200058b565b5b620008238254620005e9565b6200083082828562000755565b600060209050601f83116001811462000868576000841562000853578287015190505b6200085f8582620007d2565b865550620008cf565b601f19841662000878866200061e565b60005b82811015620008a2578489015182556001820191506020850194506020810190506200087b565b86831015620008c25784890151620008be601f891682620007b2565b8355505b6001600288020188555050505b505050505050565b61206380620008e76000396000f3fe608060405234801561001057600080fd5b50600436106101425760003560e01c806370a08231116100b857806395d89b411161007c57806395d89b41146103a1578063a457c2d7146103bf578063a694fc3a146103ef578063a9059cbb1461040b578063dd62ed3e1461043b578063f2fde38b1461046b57610142565b806370a08231146102e9578063715018a61461031957806371aa60fd1461032357806389885a59146103535780638da5cb5b1461038357610142565b806323b872dd1161010a57806323b872dd1461020157806324bf238c146102315780632e17de7814610261578063313ce5671461027d578063395093511461029b57806347ccca02146102cb57610142565b806301b8199a1461014757806306fdde0314610165578063095ea7b314610183578063150b7a02146101b357806318160ddd146101e3575b600080fd5b61014f610487565b60405161015c9190611358565b60405180910390f35b61016d61048d565b60405161017a9190611403565b60405180910390f35b61019d600480360381019061019891906114c3565b61051f565b6040516101aa919061151e565b60405180910390f35b6101cd60048036038101906101c8919061166e565b610542565b6040516101da919061172c565b60405180910390f35b6101eb610556565b6040516101f89190611358565b60405180910390f35b61021b60048036038101906102169190611747565b610560565b604051610228919061151e565b60405180910390f35b61024b6004803603810190610246919061179a565b61058f565b6040516102589190611358565b60405180910390f35b61027b6004803603810190610276919061179a565b6105a7565b005b61028561073b565b60405161029291906117e3565b60405180910390f35b6102b560048036038101906102b091906114c3565b610744565b6040516102c2919061151e565b60405180910390f35b6102d361077b565b6040516102e0919061185d565b60405180910390f35b61030360048036038101906102fe9190611878565b6107a1565b6040516103109190611358565b60405180910390f35b6103216107e9565b005b61033d6004803603810190610338919061179a565b6107fd565b60405161034a9190611358565b60405180910390f35b61036d6004803603810190610368919061179a565b610837565b60405161037a91906118b4565b60405180910390f35b61038b61086a565b60405161039891906118b4565b60405180910390f35b6103a9610894565b6040516103b69190611403565b60405180910390f35b6103d960048036038101906103d491906114c3565b610926565b6040516103e6919061151e565b60405180910390f35b6104096004803603810190610404919061179a565b61099d565b005b610425600480360381019061042091906114c3565b610a9b565b604051610432919061151e565b60405180910390f35b610455600480360381019061045091906118cf565b610abe565b6040516104629190611358565b60405180910390f35b61048560048036038101906104809190611878565b610b45565b005b60095481565b60606003805461049c9061193e565b80601f01602080910402602001604051908101604052809291908181526020018280546104c89061193e565b80156105155780601f106104ea57610100808354040283529160200191610515565b820191906000526020600020905b8154815290600101906020018083116104f857829003601f168201915b5050505050905090565b60008061052a610bc8565b9050610537818585610bd0565b600191505092915050565b600063150b7a0260e01b9050949350505050565b6000600254905090565b60008061056b610bc8565b9050610578858285610d99565b610583858585610e25565b60019150509392505050565b60086020528060005260406000206000915090505481565b3373ffffffffffffffffffffffffffffffffffffffff166007600083815260200190815260200160002060009054906101000a900473ffffffffffffffffffffffffffffffffffffffff1673ffffffffffffffffffffffffffffffffffffffff1614610648576040517f08c379a000000000000000000000000000000000000000000000000000000000815260040161063f906119bb565b60405180910390fd5b61065a33610655836107fd565b61109b565b600660009054906101000a900473ffffffffffffffffffffffffffffffffffffffff1673ffffffffffffffffffffffffffffffffffffffff166323b872dd3033846040518463ffffffff1660e01b81526004016106b9939291906119db565b600060405180830381600087803b1580156106d357600080fd5b505af11580156106e7573d6000803e3d6000fd5b505050506007600082815260200190815260200160002060006101000a81549073ffffffffffffffffffffffffffffffffffffffff0219169055600860008281526020019081526020016000206000905550565b60006012905090565b60008061074f610bc8565b90506107708185856107618589610abe565b61076b9190611a41565b610bd0565b600191505092915050565b600660009054906101000a900473ffffffffffffffffffffffffffffffffffffffff1681565b60008060008373ffffffffffffffffffffffffffffffffffffffff1673ffffffffffffffffffffffffffffffffffffffff168152602001908152602001600020549050919050565b6107f16111f1565b6107fb600061126f565b565b60008060086000848152602001908152602001600020544261081f9190611a75565b90506009548161082f9190611aa9565b915050919050565b60076020528060005260406000206000915054906101000a900473ffffffffffffffffffffffffffffffffffffffff1681565b6000600560009054906101000a900473ffffffffffffffffffffffffffffffffffffffff16905090565b6060600480546108a39061193e565b80601f01602080910402602001604051908101604052809291908181526020018280546108cf9061193e565b801561091c5780601f106108f15761010080835404028352916020019161091c565b820191906000526020600020905b8154815290600101906020018083116108ff57829003601f168201915b5050505050905090565b600080610931610bc8565b9050600061093f8286610abe565b905083811015610984576040517f08c379a000000000000000000000000000000000000000000000000000000000815260040161097b90611b5d565b60405180910390fd5b6109918286868403610bd0565b60019250505092915050565b600660009054906101000a900473ffffffffffffffffffffffffffffffffffffffff1673ffffffffffffffffffffffffffffffffffffffff166342842e0e3330846040518463ffffffff1660e01b81526004016109fc939291906119db565b600060405180830381600087803b158015610a1657600080fd5b505af1158015610a2a573d6000803e3d6000fd5b50505050336007600083815260200190815260200160002060006101000a81548173ffffffffffffffffffffffffffffffffffffffff021916908373ffffffffffffffffffffffffffffffffffffffff16021790555042600860008381526020019081526020016000208190555050565b600080610aa6610bc8565b9050610ab3818585610e25565b600191505092915050565b6000600160008473ffffffffffffffffffffffffffffffffffffffff1673ffffffffffffffffffffffffffffffffffffffff16815260200190815260200160002060008373ffffffffffffffffffffffffffffffffffffffff1673ffffffffffffffffffffffffffffffffffffffff16815260200190815260200160002054905092915050565b610b4d6111f1565b600073ffffffffffffffffffffffffffffffffffffffff168173ffffffffffffffffffffffffffffffffffffffff1603610bbc576040517f08c379a0000000000000000000000000000000000000000000000000000000008152600401610bb390611bef565b60405180910390fd5b610bc58161126f565b50565b600033905090565b600073ffffffffffffffffffffffffffffffffffffffff168373ffffffffffffffffffffffffffffffffffffffff1603610c3f576040517f08c379a0000000000000000000000000000000000000000000000000000000008152600401610c3690611c81565b60405180910390fd5b600073ffffffffffffffffffffffffffffffffffffffff168273ffffffffffffffffffffffffffffffffffffffff1603610cae576040517f08c379a0000000000000000000000000000000000000000000000000000000008152600401610ca590611d13565b60405180910390fd5b80600160008573ffffffffffffffffffffffffffffffffffffffff1673ffffffffffffffffffffffffffffffffffffffff16815260200190815260200160002060008473ffffffffffffffffffffffffffffffffffffffff1673ffffffffffffffffffffffffffffffffffffffff168152602001908152602001600020819055508173ffffffffffffffffffffffffffffffffffffffff168373ffffffffffffffffffffffffffffffffffffffff167f8c5be1e5ebec7d5bd14f71427d1e84f3dd0314c0f7b2291e5b200ac8c7c3b92583604051610d8c9190611358565b60405180910390a3505050565b6000610da58484610abe565b90507fffffffffffffffffffffffffffffffffffffffffffffffffffffffffffffffff8114610e1f5781811015610e11576040517f08c379a0000000000000000000000000000000000000000000000000000000008152600401610e0890611d7f565b60405180910390fd5b610e1e8484848403610bd0565b5b50505050565b600073ffffffffffffffffffffffffffffffffffffffff168373ffffffffffffffffffffffffffffffffffffffff1603610e94576040517f08c379a0000000000000000000000000000000000000000000000000000000008152600401610e8b90611e11565b60405180910390fd5b600073ffffffffffffffffffffffffffffffffffffffff168273ffffffffffffffffffffffffffffffffffffffff1603610f03576040517f08c379a0000000000000000000000000000000000000000000000000000000008152600401610efa90611ea3565b60405180910390fd5b610f0e838383611335565b60008060008573ffffffffffffffffffffffffffffffffffffffff1673ffffffffffffffffffffffffffffffffffffffff16815260200190815260200160002054905081811015610f94576040517f08c379a0000000000000000000000000000000000000000000000000000000008152600401610f8b90611f35565b60405180910390fd5b8181036000808673ffffffffffffffffffffffffffffffffffffffff1673ffffffffffffffffffffffffffffffffffffffff16815260200190815260200160002081905550816000808573ffffffffffffffffffffffffffffffffffffffff1673ffffffffffffffffffffffffffffffffffffffff168152602001908152602001600020600082825401925050819055508273ffffffffffffffffffffffffffffffffffffffff168473ffffffffffffffffffffffffffffffffffffffff167fddf252ad1be2c89b69c2b068fc378daa952ba7f163c4a11628f55a4df523b3ef846040516110829190611358565b60405180910390a361109584848461133a565b50505050565b600073ffffffffffffffffffffffffffffffffffffffff168273ffffffffffffffffffffffffffffffffffffffff160361110a576040517f08c379a000000000000000000000000000000000000000000000000000000000815260040161110190611fa1565b60405180910390fd5b61111660008383611335565b80600260008282546111289190611a41565b92505081905550806000808473ffffffffffffffffffffffffffffffffffffffff1673ffffffffffffffffffffffffffffffffffffffff168152602001908152602001600020600082825401925050819055508173ffffffffffffffffffffffffffffffffffffffff16600073ffffffffffffffffffffffffffffffffffffffff167fddf252ad1be2c89b69c2b068fc378daa952ba7f163c4a11628f55a4df523b3ef836040516111d99190611358565b60405180910390a36111ed6000838361133a565b5050565b6111f9610bc8565b73ffffffffffffffffffffffffffffffffffffffff1661121761086a565b73ffffffffffffffffffffffffffffffffffffffff161461126d576040517f08c379a00000000000000000000000000000000000000000000000000000000081526004016112649061200d565b60405180910390fd5b565b6000600560009054906101000a900473ffffffffffffffffffffffffffffffffffffffff16905081600560006101000a81548173ffffffffffffffffffffffffffffffffffffffff021916908373ffffffffffffffffffffffffffffffffffffffff1602179055508173ffffffffffffffffffffffffffffffffffffffff168173ffffffffffffffffffffffffffffffffffffffff167f8be0079c531659141344cd1fd0a4f28419497f9722a3daafe3b4186f6b6457e060405160405180910390a35050565b505050565b505050565b6000819050919050565b6113528161133f565b82525050565b600060208201905061136d6000830184611349565b92915050565b600081519050919050565b600082825260208201905092915050565b60005b838110156113ad578082015181840152602081019050611392565b60008484015250505050565b6000601f19601f8301169050919050565b60006113d582611373565b6113df818561137e565b93506113ef81856020860161138f565b6113f8816113b9565b840191505092915050565b6000602082019050818103600083015261141d81846113ca565b905092915050565b6000604051905090565b600080fd5b600080fd5b600073ffffffffffffffffffffffffffffffffffffffff82169050919050565b600061146482611439565b9050919050565b61147481611459565b811461147f57600080fd5b50565b6000813590506114918161146b565b92915050565b6114a08161133f565b81146114ab57600080fd5b50565b6000813590506114bd81611497565b92915050565b600080604083850312156114da576114d961142f565b5b60006114e885828601611482565b92505060206114f9858286016114ae565b9150509250929050565b60008115159050919050565b61151881611503565b82525050565b6000602082019050611533600083018461150f565b92915050565b600080fd5b600080fd5b7f4e487b7100000000000000000000000000000000000000000000000000000000600052604160045260246000fd5b61157b826113b9565b810181811067ffffffffffffffff8211171561159a57611599611543565b5b80604052505050565b60006115ad611425565b90506115b98282611572565b919050565b600067ffffffffffffffff8211156115d9576115d8611543565b5b6115e2826113b9565b9050602081019050919050565b82818337600083830152505050565b600061161161160c846115be565b6115a3565b90508281526020810184848401111561162d5761162c61153e565b5b6116388482856115ef565b509392505050565b600082601f83011261165557611654611539565b5b81356116658482602086016115fe565b91505092915050565b600080600080608085870312156116885761168761142f565b5b600061169687828801611482565b94505060206116a787828801611482565b93505060406116b8878288016114ae565b925050606085013567ffffffffffffffff8111156116d9576116d8611434565b5b6116e587828801611640565b91505092959194509250565b60007fffffffff0000000000000000000000000000000000000000000000000000000082169050919050565b611726816116f1565b82525050565b6000602082019050611741600083018461171d565b92915050565b6000806000606084860312156117605761175f61142f565b5b600061176e86828701611482565b935050602061177f86828701611482565b9250506040611790868287016114ae565b9150509250925092565b6000602082840312156117b0576117af61142f565b5b60006117be848285016114ae565b91505092915050565b600060ff82169050919050565b6117dd816117c7565b82525050565b60006020820190506117f860008301846117d4565b92915050565b6000819050919050565b600061182361181e61181984611439565b6117fe565b611439565b9050919050565b600061183582611808565b9050919050565b60006118478261182a565b9050919050565b6118578161183c565b82525050565b6000602082019050611872600083018461184e565b92915050565b60006020828403121561188e5761188d61142f565b5b600061189c84828501611482565b91505092915050565b6118ae81611459565b82525050565b60006020820190506118c960008301846118a5565b92915050565b600080604083850312156118e6576118e561142f565b5b60006118f485828601611482565b925050602061190585828601611482565b9150509250929050565b7f4e487b7100000000000000000000000000000000000000000000000000000000600052602260045260246000fd5b6000600282049050600182168061195657607f821691505b6020821081036119695761196861190f565b5b50919050565b7f596f752063616e277420756e7374616b65000000000000000000000000000000600082015250565b60006119a560118361137e565b91506119b08261196f565b602082019050919050565b600060208201905081810360008301526119d481611998565b9050919050565b60006060820190506119f060008301866118a5565b6119fd60208301856118a5565b611a0a6040830184611349565b949350505050565b7f4e487b7100000000000000000000000000000000000000000000000000000000600052601160045260246000fd5b6000611a4c8261133f565b9150611a578361133f565b9250828201905080821115611a6f57611a6e611a12565b5b92915050565b6000611a808261133f565b9150611a8b8361133f565b9250828203905081811115611aa357611aa2611a12565b5b92915050565b6000611ab48261133f565b9150611abf8361133f565b9250828202611acd8161133f565b91508282048414831517611ae457611ae3611a12565b5b5092915050565b7f45524332303a2064656372656173656420616c6c6f77616e63652062656c6f7760008201527f207a65726f000000000000000000000000000000000000000000000000000000602082015250565b6000611b4760258361137e565b9150611b5282611aeb565b604082019050919050565b60006020820190508181036000830152611b7681611b3a565b9050919050565b7f4f776e61626c653a206e6577206f776e657220697320746865207a65726f206160008201527f6464726573730000000000000000000000000000000000000000000000000000602082015250565b6000611bd960268361137e565b9150611be482611b7d565b604082019050919050565b60006020820190508181036000830152611c0881611bcc565b9050919050565b7f45524332303a20617070726f76652066726f6d20746865207a65726f2061646460008201527f7265737300000000000000000000000000000000000000000000000000000000602082015250565b6000611c6b60248361137e565b9150611c7682611c0f565b604082019050919050565b60006020820190508181036000830152611c9a81611c5e565b9050919050565b7f45524332303a20617070726f766520746f20746865207a65726f20616464726560008201527f7373000000000000000000000000000000000000000000000000000000000000602082015250565b6000611cfd60228361137e565b9150611d0882611ca1565b604082019050919050565b60006020820190508181036000830152611d2c81611cf0565b9050919050565b7f45524332303a20696e73756666696369656e7420616c6c6f77616e6365000000600082015250565b6000611d69601d8361137e565b9150611d7482611d33565b602082019050919050565b60006020820190508181036000830152611d9881611d5c565b9050919050565b7f45524332303a207472616e736665722066726f6d20746865207a65726f20616460008201527f6472657373000000000000000000000000000000000000000000000000000000602082015250565b6000611dfb60258361137e565b9150611e0682611d9f565b604082019050919050565b60006020820190508181036000830152611e2a81611dee565b9050919050565b7f45524332303a207472616e7366657220746f20746865207a65726f206164647260008201527f6573730000000000000000000000000000000000000000000000000000000000602082015250565b6000611e8d60238361137e565b9150611e9882611e31565b604082019050919050565b60006020820190508181036000830152611ebc81611e80565b9050919050565b7f45524332303a207472616e7366657220616d6f756e742065786365656473206260008201527f616c616e63650000000000000000000000000000000000000000000000000000602082015250565b6000611f1f60268361137e565b9150611f2a82611ec3565b604082019050919050565b60006020820190508181036000830152611f4e81611f12565b9050919050565b7f45524332303a206d696e7420746f20746865207a65726f206164647265737300600082015250565b6000611f8b601f8361137e565b9150611f9682611f55565b602082019050919050565b60006020820190508181036000830152611fba81611f7e565b9050919050565b7f4f776e61626c653a2063616c6c6572206973206e6f7420746865206f776e6572600082015250565b6000611ff760208361137e565b915061200282611fc1565b602082019050919050565b6000602082019050818103600083015261202681611fea565b905091905056fea26469706673582212209b44538de3c3722e1d711d7e001865ada8efd1dff42726b6ea7bbdd61655198064736f6c63430008120033",
					"opcodes": "PUSH1 0x80 PUSH1 0x40 MSTORE PUSH3 0x15180 PUSH3 0x18 PUSH3 0x170 PUSH1 0x20 SHL PUSH1 0x20 SHR JUMP JUMPDEST PUSH1 0xA PUSH3 0x26 SWAP2 SWAP1 PUSH3 0x3E1 JUMP JUMPDEST PUSH1 0x32 PUSH3 0x34 SWAP2 SWAP1 PUSH3 0x432 JUMP JUMPDEST PUSH3 0x40 SWAP2 SWAP1 PUSH3 0x4AC JUMP JUMPDEST PUSH1 0x9 SSTORE CALLVALUE DUP1 ISZERO PUSH3 0x50 JUMPI PUSH1 0x0 DUP1 REVERT JUMPDEST POP PUSH1 0x40 MLOAD PUSH3 0x294A CODESIZE SUB DUP1 PUSH3 0x294A DUP4 CODECOPY DUP2 DUP2 ADD PUSH1 0x40 MSTORE DUP2 ADD SWAP1 PUSH3 0x76 SWAP2 SWAP1 PUSH3 0x54E JUMP JUMPDEST PUSH1 0x40 MLOAD DUP1 PUSH1 0x40 ADD PUSH1 0x40 MSTORE DUP1 PUSH1 0x7 DUP2 MSTORE PUSH1 0x20 ADD PUSH32 0x4D79546F6B656E00000000000000000000000000000000000000000000000000 DUP2 MSTORE POP PUSH1 0x40 MLOAD DUP1 PUSH1 0x40 ADD PUSH1 0x40 MSTORE DUP1 PUSH1 0x3 DUP2 MSTORE PUSH1 0x20 ADD PUSH32 0x4D544B0000000000000000000000000000000000000000000000000000000000 DUP2 MSTORE POP DUP2 PUSH1 0x3 SWAP1 DUP2 PUSH3 0xF3 SWAP2 SWAP1 PUSH3 0x7F0 JUMP JUMPDEST POP DUP1 PUSH1 0x4 SWAP1 DUP2 PUSH3 0x105 SWAP2 SWAP1 PUSH3 0x7F0 JUMP JUMPDEST POP POP POP PUSH3 0x128 PUSH3 0x11C PUSH3 0x179 PUSH1 0x20 SHL PUSH1 0x20 SHR JUMP JUMPDEST PUSH3 0x181 PUSH1 0x20 SHL PUSH1 0x20 SHR JUMP JUMPDEST DUP1 PUSH1 0x6 PUSH1 0x0 PUSH2 0x100 EXP DUP2 SLOAD DUP2 PUSH20 0xFFFFFFFFFFFFFFFFFFFFFFFFFFFFFFFFFFFFFFFF MUL NOT AND SWAP1 DUP4 PUSH20 0xFFFFFFFFFFFFFFFFFFFFFFFFFFFFFFFFFFFFFFFF AND MUL OR SWAP1 SSTORE POP POP PUSH3 0x8D7 JUMP JUMPDEST PUSH1 0x0 PUSH1 0x12 SWAP1 POP SWAP1 JUMP JUMPDEST PUSH1 0x0 CALLER SWAP1 POP SWAP1 JUMP JUMPDEST PUSH1 0x0 PUSH1 0x5 PUSH1 0x0 SWAP1 SLOAD SWAP1 PUSH2 0x100 EXP SWAP1 DIV PUSH20 0xFFFFFFFFFFFFFFFFFFFFFFFFFFFFFFFFFFFFFFFF AND SWAP1 POP DUP2 PUSH1 0x5 PUSH1 0x0 PUSH2 0x100 EXP DUP2 SLOAD DUP2 PUSH20 0xFFFFFFFFFFFFFFFFFFFFFFFFFFFFFFFFFFFFFFFF MUL NOT AND SWAP1 DUP4 PUSH20 0xFFFFFFFFFFFFFFFFFFFFFFFFFFFFFFFFFFFFFFFF AND MUL OR SWAP1 SSTORE POP DUP2 PUSH20 0xFFFFFFFFFFFFFFFFFFFFFFFFFFFFFFFFFFFFFFFF AND DUP2 PUSH20 0xFFFFFFFFFFFFFFFFFFFFFFFFFFFFFFFFFFFFFFFF AND PUSH32 0x8BE0079C531659141344CD1FD0A4F28419497F9722A3DAAFE3B4186F6B6457E0 PUSH1 0x40 MLOAD PUSH1 0x40 MLOAD DUP1 SWAP2 SUB SWAP1 LOG3 POP POP JUMP JUMPDEST PUSH32 0x4E487B7100000000000000000000000000000000000000000000000000000000 PUSH1 0x0 MSTORE PUSH1 0x11 PUSH1 0x4 MSTORE PUSH1 0x24 PUSH1 0x0 REVERT JUMPDEST PUSH1 0x0 DUP2 PUSH1 0x1 SHR SWAP1 POP SWAP2 SWAP1 POP JUMP JUMPDEST PUSH1 0x0 DUP1 DUP3 SWAP2 POP DUP4 SWAP1 POP JUMPDEST PUSH1 0x1 DUP6 GT ISZERO PUSH3 0x2D5 JUMPI DUP1 DUP7 DIV DUP2 GT ISZERO PUSH3 0x2AD JUMPI PUSH3 0x2AC PUSH3 0x247 JUMP JUMPDEST JUMPDEST PUSH1 0x1 DUP6 AND ISZERO PUSH3 0x2BD JUMPI DUP1 DUP3 MUL SWAP2 POP JUMPDEST DUP1 DUP2 MUL SWAP1 POP PUSH3 0x2CD DUP6 PUSH3 0x276 JUMP JUMPDEST SWAP5 POP PUSH3 0x28D JUMP JUMPDEST SWAP5 POP SWAP5 SWAP3 POP POP POP JUMP JUMPDEST PUSH1 0x0 DUP3 PUSH3 0x2F0 JUMPI PUSH1 0x1 SWAP1 POP PUSH3 0x3C3 JUMP JUMPDEST DUP2 PUSH3 0x300 JUMPI PUSH1 0x0 SWAP1 POP PUSH3 0x3C3 JUMP JUMPDEST DUP2 PUSH1 0x1 DUP2 EQ PUSH3 0x319 JUMPI PUSH1 0x2 DUP2 EQ PUSH3 0x324 JUMPI PUSH3 0x35A JUMP JUMPDEST PUSH1 0x1 SWAP2 POP POP PUSH3 0x3C3 JUMP JUMPDEST PUSH1 0xFF DUP5 GT ISZERO PUSH3 0x339 JUMPI PUSH3 0x338 PUSH3 0x247 JUMP JUMPDEST JUMPDEST DUP4 PUSH1 0x2 EXP SWAP2 POP DUP5 DUP3 GT ISZERO PUSH3 0x353 JUMPI PUSH3 0x352 PUSH3 0x247 JUMP JUMPDEST JUMPDEST POP PUSH3 0x3C3 JUMP JUMPDEST POP PUSH1 0x20 DUP4 LT PUSH2 0x133 DUP4 LT AND PUSH1 0x4E DUP5 LT PUSH1 0xB DUP5 LT AND OR ISZERO PUSH3 0x394 JUMPI DUP3 DUP3 EXP SWAP1 POP DUP4 DUP2 GT ISZERO PUSH3 0x38E JUMPI PUSH3 0x38D PUSH3 0x247 JUMP JUMPDEST JUMPDEST PUSH3 0x3C3 JUMP JUMPDEST PUSH3 0x3A3 DUP5 DUP5 DUP5 PUSH1 0x1 PUSH3 0x283 JUMP JUMPDEST SWAP3 POP SWAP1 POP DUP2 DUP5 DIV DUP2 GT ISZERO PUSH3 0x3BD JUMPI PUSH3 0x3BC PUSH3 0x247 JUMP JUMPDEST JUMPDEST DUP2 DUP2 MUL SWAP1 POP JUMPDEST SWAP4 SWAP3 POP POP POP JUMP JUMPDEST PUSH1 0x0 DUP2 SWAP1 POP SWAP2 SWAP1 POP JUMP JUMPDEST PUSH1 0x0 PUSH1 0xFF DUP3 AND SWAP1 POP SWAP2 SWAP1 POP JUMP JUMPDEST PUSH1 0x0 PUSH3 0x3EE DUP3 PUSH3 0x3CA JUMP JUMPDEST SWAP2 POP PUSH3 0x3FB DUP4 PUSH3 0x3D4 JUMP JUMPDEST SWAP3 POP PUSH3 0x42A PUSH32 0xFFFFFFFFFFFFFFFFFFFFFFFFFFFFFFFFFFFFFFFFFFFFFFFFFFFFFFFFFFFFFFFF DUP5 DUP5 PUSH3 0x2DE JUMP JUMPDEST SWAP1 POP SWAP3 SWAP2 POP POP JUMP JUMPDEST PUSH1 0x0 PUSH3 0x43F DUP3 PUSH3 0x3CA JUMP JUMPDEST SWAP2 POP PUSH3 0x44C DUP4 PUSH3 0x3CA JUMP JUMPDEST SWAP3 POP DUP3 DUP3 MUL PUSH3 0x45C DUP2 PUSH3 0x3CA JUMP JUMPDEST SWAP2 POP DUP3 DUP3 DIV DUP5 EQ DUP4 ISZERO OR PUSH3 0x476 JUMPI PUSH3 0x475 PUSH3 0x247 JUMP JUMPDEST JUMPDEST POP SWAP3 SWAP2 POP POP JUMP JUMPDEST PUSH32 0x4E487B7100000000000000000000000000000000000000000000000000000000 PUSH1 0x0 MSTORE PUSH1 0x12 PUSH1 0x4 MSTORE PUSH1 0x24 PUSH1 0x0 REVERT JUMPDEST PUSH1 0x0 PUSH3 0x4B9 DUP3 PUSH3 0x3CA JUMP JUMPDEST SWAP2 POP PUSH3 0x4C6 DUP4 PUSH3 0x3CA JUMP JUMPDEST SWAP3 POP DUP3 PUSH3 0x4D9 JUMPI PUSH3 0x4D8 PUSH3 0x47D JUMP JUMPDEST JUMPDEST DUP3 DUP3 DIV SWAP1 POP SWAP3 SWAP2 POP POP JUMP JUMPDEST PUSH1 0x0 DUP1 REVERT JUMPDEST PUSH1 0x0 PUSH20 0xFFFFFFFFFFFFFFFFFFFFFFFFFFFFFFFFFFFFFFFF DUP3 AND SWAP1 POP SWAP2 SWAP1 POP JUMP JUMPDEST PUSH1 0x0 PUSH3 0x516 DUP3 PUSH3 0x4E9 JUMP JUMPDEST SWAP1 POP SWAP2 SWAP1 POP JUMP JUMPDEST PUSH3 0x528 DUP2 PUSH3 0x509 JUMP JUMPDEST DUP2 EQ PUSH3 0x534 JUMPI PUSH1 0x0 DUP1 REVERT JUMPDEST POP JUMP JUMPDEST PUSH1 0x0 DUP2 MLOAD SWAP1 POP PUSH3 0x548 DUP2 PUSH3 0x51D JUMP JUMPDEST SWAP3 SWAP2 POP POP JUMP JUMPDEST PUSH1 0x0 PUSH1 0x20 DUP3 DUP5 SUB SLT ISZERO PUSH3 0x567 JUMPI PUSH3 0x566 PUSH3 0x4E4 JUMP JUMPDEST JUMPDEST PUSH1 0x0 PUSH3 0x577 DUP5 DUP3 DUP6 ADD PUSH3 0x537 JUMP JUMPDEST SWAP2 POP POP SWAP3 SWAP2 POP POP JUMP JUMPDEST PUSH1 0x0 DUP2 MLOAD SWAP1 POP SWAP2 SWAP1 POP JUMP JUMPDEST PUSH32 0x4E487B7100000000000000000000000000000000000000000000000000000000 PUSH1 0x0 MSTORE PUSH1 0x41 PUSH1 0x4 MSTORE PUSH1 0x24 PUSH1 0x0 REVERT JUMPDEST PUSH32 0x4E487B7100000000000000000000000000000000000000000000000000000000 PUSH1 0x0 MSTORE PUSH1 0x22 PUSH1 0x4 MSTORE PUSH1 0x24 PUSH1 0x0 REVERT JUMPDEST PUSH1 0x0 PUSH1 0x2 DUP3 DIV SWAP1 POP PUSH1 0x1 DUP3 AND DUP1 PUSH3 0x602 JUMPI PUSH1 0x7F DUP3 AND SWAP2 POP JUMPDEST PUSH1 0x20 DUP3 LT DUP2 SUB PUSH3 0x618 JUMPI PUSH3 0x617 PUSH3 0x5BA JUMP JUMPDEST JUMPDEST POP SWAP2 SWAP1 POP JUMP JUMPDEST PUSH1 0x0 DUP2 SWAP1 POP DUP2 PUSH1 0x0 MSTORE PUSH1 0x20 PUSH1 0x0 KECCAK256 SWAP1 POP SWAP2 SWAP1 POP JUMP JUMPDEST PUSH1 0x0 PUSH1 0x20 PUSH1 0x1F DUP4 ADD DIV SWAP1 POP SWAP2 SWAP1 POP JUMP JUMPDEST PUSH1 0x0 DUP3 DUP3 SHL SWAP1 POP SWAP3 SWAP2 POP POP JUMP JUMPDEST PUSH1 0x0 PUSH1 0x8 DUP4 MUL PUSH3 0x682 PUSH32 0xFFFFFFFFFFFFFFFFFFFFFFFFFFFFFFFFFFFFFFFFFFFFFFFFFFFFFFFFFFFFFFFF DUP3 PUSH3 0x643 JUMP JUMPDEST PUSH3 0x68E DUP7 DUP4 PUSH3 0x643 JUMP JUMPDEST SWAP6 POP DUP1 NOT DUP5 AND SWAP4 POP DUP1 DUP7 AND DUP5 OR SWAP3 POP POP POP SWAP4 SWAP3 POP POP POP JUMP JUMPDEST PUSH1 0x0 DUP2 SWAP1 POP SWAP2 SWAP1 POP JUMP JUMPDEST PUSH1 0x0 PUSH3 0x6D1 PUSH3 0x6CB PUSH3 0x6C5 DUP5 PUSH3 0x3CA JUMP JUMPDEST PUSH3 0x6A6 JUMP JUMPDEST PUSH3 0x3CA JUMP JUMPDEST SWAP1 POP SWAP2 SWAP1 POP JUMP JUMPDEST PUSH1 0x0 DUP2 SWAP1 POP SWAP2 SWAP1 POP JUMP JUMPDEST PUSH3 0x6ED DUP4 PUSH3 0x6B0 JUMP JUMPDEST PUSH3 0x705 PUSH3 0x6FC DUP3 PUSH3 0x6D8 JUMP JUMPDEST DUP5 DUP5 SLOAD PUSH3 0x650 JUMP JUMPDEST DUP3 SSTORE POP POP POP POP JUMP JUMPDEST PUSH1 0x0 SWAP1 JUMP JUMPDEST PUSH3 0x71C PUSH3 0x70D JUMP JUMPDEST PUSH3 0x729 DUP2 DUP5 DUP5 PUSH3 0x6E2 JUMP JUMPDEST POP POP POP JUMP JUMPDEST JUMPDEST DUP2 DUP2 LT ISZERO PUSH3 0x751 JUMPI PUSH3 0x745 PUSH1 0x0 DUP3 PUSH3 0x712 JUMP JUMPDEST PUSH1 0x1 DUP2 ADD SWAP1 POP PUSH3 0x72F JUMP JUMPDEST POP POP JUMP JUMPDEST PUSH1 0x1F DUP3 GT ISZERO PUSH3 0x7A0 JUMPI PUSH3 0x76A DUP2 PUSH3 0x61E JUMP JUMPDEST PUSH3 0x775 DUP5 PUSH3 0x633 JUMP JUMPDEST DUP2 ADD PUSH1 0x20 DUP6 LT ISZERO PUSH3 0x785 JUMPI DUP2 SWAP1 POP JUMPDEST PUSH3 0x79D PUSH3 0x794 DUP6 PUSH3 0x633 JUMP JUMPDEST DUP4 ADD DUP3 PUSH3 0x72E JUMP JUMPDEST POP POP JUMPDEST POP POP POP JUMP JUMPDEST PUSH1 0x0 DUP3 DUP3 SHR SWAP1 POP SWAP3 SWAP2 POP POP JUMP JUMPDEST PUSH1 0x0 PUSH3 0x7C5 PUSH1 0x0 NOT DUP5 PUSH1 0x8 MUL PUSH3 0x7A5 JUMP JUMPDEST NOT DUP1 DUP4 AND SWAP2 POP POP SWAP3 SWAP2 POP POP JUMP JUMPDEST PUSH1 0x0 PUSH3 0x7E0 DUP4 DUP4 PUSH3 0x7B2 JUMP JUMPDEST SWAP2 POP DUP3 PUSH1 0x2 MUL DUP3 OR SWAP1 POP SWAP3 SWAP2 POP POP JUMP JUMPDEST PUSH3 0x7FB DUP3 PUSH3 0x580 JUMP JUMPDEST PUSH8 0xFFFFFFFFFFFFFFFF DUP2 GT ISZERO PUSH3 0x817 JUMPI PUSH3 0x816 PUSH3 0x58B JUMP JUMPDEST JUMPDEST PUSH3 0x823 DUP3 SLOAD PUSH3 0x5E9 JUMP JUMPDEST PUSH3 0x830 DUP3 DUP3 DUP6 PUSH3 0x755 JUMP JUMPDEST PUSH1 0x0 PUSH1 0x20 SWAP1 POP PUSH1 0x1F DUP4 GT PUSH1 0x1 DUP2 EQ PUSH3 0x868 JUMPI PUSH1 0x0 DUP5 ISZERO PUSH3 0x853 JUMPI DUP3 DUP8 ADD MLOAD SWAP1 POP JUMPDEST PUSH3 0x85F DUP6 DUP3 PUSH3 0x7D2 JUMP JUMPDEST DUP7 SSTORE POP PUSH3 0x8CF JUMP JUMPDEST PUSH1 0x1F NOT DUP5 AND PUSH3 0x878 DUP7 PUSH3 0x61E JUMP JUMPDEST PUSH1 0x0 JUMPDEST DUP3 DUP2 LT ISZERO PUSH3 0x8A2 JUMPI DUP5 DUP10 ADD MLOAD DUP3 SSTORE PUSH1 0x1 DUP3 ADD SWAP2 POP PUSH1 0x20 DUP6 ADD SWAP5 POP PUSH1 0x20 DUP2 ADD SWAP1 POP PUSH3 0x87B JUMP JUMPDEST DUP7 DUP4 LT ISZERO PUSH3 0x8C2 JUMPI DUP5 DUP10 ADD MLOAD PUSH3 0x8BE PUSH1 0x1F DUP10 AND DUP3 PUSH3 0x7B2 JUMP JUMPDEST DUP4 SSTORE POP JUMPDEST PUSH1 0x1 PUSH1 0x2 DUP9 MUL ADD DUP9 SSTORE POP POP POP JUMPDEST POP POP POP POP POP POP JUMP JUMPDEST PUSH2 0x2063 DUP1 PUSH3 0x8E7 PUSH1 0x0 CODECOPY PUSH1 0x0 RETURN INVALID PUSH1 0x80 PUSH1 0x40 MSTORE CALLVALUE DUP1 ISZERO PUSH2 0x10 JUMPI PUSH1 0x0 DUP1 REVERT JUMPDEST POP PUSH1 0x4 CALLDATASIZE LT PUSH2 0x142 JUMPI PUSH1 0x0 CALLDATALOAD PUSH1 0xE0 SHR DUP1 PUSH4 0x70A08231 GT PUSH2 0xB8 JUMPI DUP1 PUSH4 0x95D89B41 GT PUSH2 0x7C JUMPI DUP1 PUSH4 0x95D89B41 EQ PUSH2 0x3A1 JUMPI DUP1 PUSH4 0xA457C2D7 EQ PUSH2 0x3BF JUMPI DUP1 PUSH4 0xA694FC3A EQ PUSH2 0x3EF JUMPI DUP1 PUSH4 0xA9059CBB EQ PUSH2 0x40B JUMPI DUP1 PUSH4 0xDD62ED3E EQ PUSH2 0x43B JUMPI DUP1 PUSH4 0xF2FDE38B EQ PUSH2 0x46B JUMPI PUSH2 0x142 JUMP JUMPDEST DUP1 PUSH4 0x70A08231 EQ PUSH2 0x2E9 JUMPI DUP1 PUSH4 0x715018A6 EQ PUSH2 0x319 JUMPI DUP1 PUSH4 0x71AA60FD EQ PUSH2 0x323 JUMPI DUP1 PUSH4 0x89885A59 EQ PUSH2 0x353 JUMPI DUP1 PUSH4 0x8DA5CB5B EQ PUSH2 0x383 JUMPI PUSH2 0x142 JUMP JUMPDEST DUP1 PUSH4 0x23B872DD GT PUSH2 0x10A JUMPI DUP1 PUSH4 0x23B872DD EQ PUSH2 0x201 JUMPI DUP1 PUSH4 0x24BF238C EQ PUSH2 0x231 JUMPI DUP1 PUSH4 0x2E17DE78 EQ PUSH2 0x261 JUMPI DUP1 PUSH4 0x313CE567 EQ PUSH2 0x27D JUMPI DUP1 PUSH4 0x39509351 EQ PUSH2 0x29B JUMPI DUP1 PUSH4 0x47CCCA02 EQ PUSH2 0x2CB JUMPI PUSH2 0x142 JUMP JUMPDEST DUP1 PUSH4 0x1B8199A EQ PUSH2 0x147 JUMPI DUP1 PUSH4 0x6FDDE03 EQ PUSH2 0x165 JUMPI DUP1 PUSH4 0x95EA7B3 EQ PUSH2 0x183 JUMPI DUP1 PUSH4 0x150B7A02 EQ PUSH2 0x1B3 JUMPI DUP1 PUSH4 0x18160DDD EQ PUSH2 0x1E3 JUMPI JUMPDEST PUSH1 0x0 DUP1 REVERT JUMPDEST PUSH2 0x14F PUSH2 0x487 JUMP JUMPDEST PUSH1 0x40 MLOAD PUSH2 0x15C SWAP2 SWAP1 PUSH2 0x1358 JUMP JUMPDEST PUSH1 0x40 MLOAD DUP1 SWAP2 SUB SWAP1 RETURN JUMPDEST PUSH2 0x16D PUSH2 0x48D JUMP JUMPDEST PUSH1 0x40 MLOAD PUSH2 0x17A SWAP2 SWAP1 PUSH2 0x1403 JUMP JUMPDEST PUSH1 0x40 MLOAD DUP1 SWAP2 SUB SWAP1 RETURN JUMPDEST PUSH2 0x19D PUSH1 0x4 DUP1 CALLDATASIZE SUB DUP2 ADD SWAP1 PUSH2 0x198 SWAP2 SWAP1 PUSH2 0x14C3 JUMP JUMPDEST PUSH2 0x51F JUMP JUMPDEST PUSH1 0x40 MLOAD PUSH2 0x1AA SWAP2 SWAP1 PUSH2 0x151E JUMP JUMPDEST PUSH1 0x40 MLOAD DUP1 SWAP2 SUB SWAP1 RETURN JUMPDEST PUSH2 0x1CD PUSH1 0x4 DUP1 CALLDATASIZE SUB DUP2 ADD SWAP1 PUSH2 0x1C8 SWAP2 SWAP1 PUSH2 0x166E JUMP JUMPDEST PUSH2 0x542 JUMP JUMPDEST PUSH1 0x40 MLOAD PUSH2 0x1DA SWAP2 SWAP1 PUSH2 0x172C JUMP JUMPDEST PUSH1 0x40 MLOAD DUP1 SWAP2 SUB SWAP1 RETURN JUMPDEST PUSH2 0x1EB PUSH2 0x556 JUMP JUMPDEST PUSH1 0x40 MLOAD PUSH2 0x1F8 SWAP2 SWAP1 PUSH2 0x1358 JUMP JUMPDEST PUSH1 0x40 MLOAD DUP1 SWAP2 SUB SWAP1 RETURN JUMPDEST PUSH2 0x21B PUSH1 0x4 DUP1 CALLDATASIZE SUB DUP2 ADD SWAP1 PUSH2 0x216 SWAP2 SWAP1 PUSH2 0x1747 JUMP JUMPDEST PUSH2 0x560 JUMP JUMPDEST PUSH1 0x40 MLOAD PUSH2 0x228 SWAP2 SWAP1 PUSH2 0x151E JUMP JUMPDEST PUSH1 0x40 MLOAD DUP1 SWAP2 SUB SWAP1 RETURN JUMPDEST PUSH2 0x24B PUSH1 0x4 DUP1 CALLDATASIZE SUB DUP2 ADD SWAP1 PUSH2 0x246 SWAP2 SWAP1 PUSH2 0x179A JUMP JUMPDEST PUSH2 0x58F JUMP JUMPDEST PUSH1 0x40 MLOAD PUSH2 0x258 SWAP2 SWAP1 PUSH2 0x1358 JUMP JUMPDEST PUSH1 0x40 MLOAD DUP1 SWAP2 SUB SWAP1 RETURN JUMPDEST PUSH2 0x27B PUSH1 0x4 DUP1 CALLDATASIZE SUB DUP2 ADD SWAP1 PUSH2 0x276 SWAP2 SWAP1 PUSH2 0x179A JUMP JUMPDEST PUSH2 0x5A7 JUMP JUMPDEST STOP JUMPDEST PUSH2 0x285 PUSH2 0x73B JUMP JUMPDEST PUSH1 0x40 MLOAD PUSH2 0x292 SWAP2 SWAP1 PUSH2 0x17E3 JUMP JUMPDEST PUSH1 0x40 MLOAD DUP1 SWAP2 SUB SWAP1 RETURN JUMPDEST PUSH2 0x2B5 PUSH1 0x4 DUP1 CALLDATASIZE SUB DUP2 ADD SWAP1 PUSH2 0x2B0 SWAP2 SWAP1 PUSH2 0x14C3 JUMP JUMPDEST PUSH2 0x744 JUMP JUMPDEST PUSH1 0x40 MLOAD PUSH2 0x2C2 SWAP2 SWAP1 PUSH2 0x151E JUMP JUMPDEST PUSH1 0x40 MLOAD DUP1 SWAP2 SUB SWAP1 RETURN JUMPDEST PUSH2 0x2D3 PUSH2 0x77B JUMP JUMPDEST PUSH1 0x40 MLOAD PUSH2 0x2E0 SWAP2 SWAP1 PUSH2 0x185D JUMP JUMPDEST PUSH1 0x40 MLOAD DUP1 SWAP2 SUB SWAP1 RETURN JUMPDEST PUSH2 0x303 PUSH1 0x4 DUP1 CALLDATASIZE SUB DUP2 ADD SWAP1 PUSH2 0x2FE SWAP2 SWAP1 PUSH2 0x1878 JUMP JUMPDEST PUSH2 0x7A1 JUMP JUMPDEST PUSH1 0x40 MLOAD PUSH2 0x310 SWAP2 SWAP1 PUSH2 0x1358 JUMP JUMPDEST PUSH1 0x40 MLOAD DUP1 SWAP2 SUB SWAP1 RETURN JUMPDEST PUSH2 0x321 PUSH2 0x7E9 JUMP JUMPDEST STOP JUMPDEST PUSH2 0x33D PUSH1 0x4 DUP1 CALLDATASIZE SUB DUP2 ADD SWAP1 PUSH2 0x338 SWAP2 SWAP1 PUSH2 0x179A JUMP JUMPDEST PUSH2 0x7FD JUMP JUMPDEST PUSH1 0x40 MLOAD PUSH2 0x34A SWAP2 SWAP1 PUSH2 0x1358 JUMP JUMPDEST PUSH1 0x40 MLOAD DUP1 SWAP2 SUB SWAP1 RETURN JUMPDEST PUSH2 0x36D PUSH1 0x4 DUP1 CALLDATASIZE SUB DUP2 ADD SWAP1 PUSH2 0x368 SWAP2 SWAP1 PUSH2 0x179A JUMP JUMPDEST PUSH2 0x837 JUMP JUMPDEST PUSH1 0x40 MLOAD PUSH2 0x37A SWAP2 SWAP1 PUSH2 0x18B4 JUMP JUMPDEST PUSH1 0x40 MLOAD DUP1 SWAP2 SUB SWAP1 RETURN JUMPDEST PUSH2 0x38B PUSH2 0x86A JUMP JUMPDEST PUSH1 0x40 MLOAD PUSH2 0x398 SWAP2 SWAP1 PUSH2 0x18B4 JUMP JUMPDEST PUSH1 0x40 MLOAD DUP1 SWAP2 SUB SWAP1 RETURN JUMPDEST PUSH2 0x3A9 PUSH2 0x894 JUMP JUMPDEST PUSH1 0x40 MLOAD PUSH2 0x3B6 SWAP2 SWAP1 PUSH2 0x1403 JUMP JUMPDEST PUSH1 0x40 MLOAD DUP1 SWAP2 SUB SWAP1 RETURN JUMPDEST PUSH2 0x3D9 PUSH1 0x4 DUP1 CALLDATASIZE SUB DUP2 ADD SWAP1 PUSH2 0x3D4 SWAP2 SWAP1 PUSH2 0x14C3 JUMP JUMPDEST PUSH2 0x926 JUMP JUMPDEST PUSH1 0x40 MLOAD PUSH2 0x3E6 SWAP2 SWAP1 PUSH2 0x151E JUMP JUMPDEST PUSH1 0x40 MLOAD DUP1 SWAP2 SUB SWAP1 RETURN JUMPDEST PUSH2 0x409 PUSH1 0x4 DUP1 CALLDATASIZE SUB DUP2 ADD SWAP1 PUSH2 0x404 SWAP2 SWAP1 PUSH2 0x179A JUMP JUMPDEST PUSH2 0x99D JUMP JUMPDEST STOP JUMPDEST PUSH2 0x425 PUSH1 0x4 DUP1 CALLDATASIZE SUB DUP2 ADD SWAP1 PUSH2 0x420 SWAP2 SWAP1 PUSH2 0x14C3 JUMP JUMPDEST PUSH2 0xA9B JUMP JUMPDEST PUSH1 0x40 MLOAD PUSH2 0x432 SWAP2 SWAP1 PUSH2 0x151E JUMP JUMPDEST PUSH1 0x40 MLOAD DUP1 SWAP2 SUB SWAP1 RETURN JUMPDEST PUSH2 0x455 PUSH1 0x4 DUP1 CALLDATASIZE SUB DUP2 ADD SWAP1 PUSH2 0x450 SWAP2 SWAP1 PUSH2 0x18CF JUMP JUMPDEST PUSH2 0xABE JUMP JUMPDEST PUSH1 0x40 MLOAD PUSH2 0x462 SWAP2 SWAP1 PUSH2 0x1358 JUMP JUMPDEST PUSH1 0x40 MLOAD DUP1 SWAP2 SUB SWAP1 RETURN JUMPDEST PUSH2 0x485 PUSH1 0x4 DUP1 CALLDATASIZE SUB DUP2 ADD SWAP1 PUSH2 0x480 SWAP2 SWAP1 PUSH2 0x1878 JUMP JUMPDEST PUSH2 0xB45 JUMP JUMPDEST STOP JUMPDEST PUSH1 0x9 SLOAD DUP2 JUMP JUMPDEST PUSH1 0x60 PUSH1 0x3 DUP1 SLOAD PUSH2 0x49C SWAP1 PUSH2 0x193E JUMP JUMPDEST DUP1 PUSH1 0x1F ADD PUSH1 0x20 DUP1 SWAP2 DIV MUL PUSH1 0x20 ADD PUSH1 0x40 MLOAD SWAP1 DUP2 ADD PUSH1 0x40 MSTORE DUP1 SWAP3 SWAP2 SWAP1 DUP2 DUP2 MSTORE PUSH1 0x20 ADD DUP3 DUP1 SLOAD PUSH2 0x4C8 SWAP1 PUSH2 0x193E JUMP JUMPDEST DUP1 ISZERO PUSH2 0x515 JUMPI DUP1 PUSH1 0x1F LT PUSH2 0x4EA JUMPI PUSH2 0x100 DUP1 DUP4 SLOAD DIV MUL DUP4 MSTORE SWAP2 PUSH1 0x20 ADD SWAP2 PUSH2 0x515 JUMP JUMPDEST DUP3 ADD SWAP2 SWAP1 PUSH1 0x0 MSTORE PUSH1 0x20 PUSH1 0x0 KECCAK256 SWAP1 JUMPDEST DUP2 SLOAD DUP2 MSTORE SWAP1 PUSH1 0x1 ADD SWAP1 PUSH1 0x20 ADD DUP1 DUP4 GT PUSH2 0x4F8 JUMPI DUP3 SWAP1 SUB PUSH1 0x1F AND DUP3 ADD SWAP2 JUMPDEST POP POP POP POP POP SWAP1 POP SWAP1 JUMP JUMPDEST PUSH1 0x0 DUP1 PUSH2 0x52A PUSH2 0xBC8 JUMP JUMPDEST SWAP1 POP PUSH2 0x537 DUP2 DUP6 DUP6 PUSH2 0xBD0 JUMP JUMPDEST PUSH1 0x1 SWAP2 POP POP SWAP3 SWAP2 POP POP JUMP JUMPDEST PUSH1 0x0 PUSH4 0x150B7A02 PUSH1 0xE0 SHL SWAP1 POP SWAP5 SWAP4 POP POP POP POP JUMP JUMPDEST PUSH1 0x0 PUSH1 0x2 SLOAD SWAP1 POP SWAP1 JUMP JUMPDEST PUSH1 0x0 DUP1 PUSH2 0x56B PUSH2 0xBC8 JUMP JUMPDEST SWAP1 POP PUSH2 0x578 DUP6 DUP3 DUP6 PUSH2 0xD99 JUMP JUMPDEST PUSH2 0x583 DUP6 DUP6 DUP6 PUSH2 0xE25 JUMP JUMPDEST PUSH1 0x1 SWAP2 POP POP SWAP4 SWAP3 POP POP POP JUMP JUMPDEST PUSH1 0x8 PUSH1 0x20 MSTORE DUP1 PUSH1 0x0 MSTORE PUSH1 0x40 PUSH1 0x0 KECCAK256 PUSH1 0x0 SWAP2 POP SWAP1 POP SLOAD DUP2 JUMP JUMPDEST CALLER PUSH20 0xFFFFFFFFFFFFFFFFFFFFFFFFFFFFFFFFFFFFFFFF AND PUSH1 0x7 PUSH1 0x0 DUP4 DUP2 MSTORE PUSH1 0x20 ADD SWAP1 DUP2 MSTORE PUSH1 0x20 ADD PUSH1 0x0 KECCAK256 PUSH1 0x0 SWAP1 SLOAD SWAP1 PUSH2 0x100 EXP SWAP1 DIV PUSH20 0xFFFFFFFFFFFFFFFFFFFFFFFFFFFFFFFFFFFFFFFF AND PUSH20 0xFFFFFFFFFFFFFFFFFFFFFFFFFFFFFFFFFFFFFFFF AND EQ PUSH2 0x648 JUMPI PUSH1 0x40 MLOAD PUSH32 0x8C379A000000000000000000000000000000000000000000000000000000000 DUP2 MSTORE PUSH1 0x4 ADD PUSH2 0x63F SWAP1 PUSH2 0x19BB JUMP JUMPDEST PUSH1 0x40 MLOAD DUP1 SWAP2 SUB SWAP1 REVERT JUMPDEST PUSH2 0x65A CALLER PUSH2 0x655 DUP4 PUSH2 0x7FD JUMP JUMPDEST PUSH2 0x109B JUMP JUMPDEST PUSH1 0x6 PUSH1 0x0 SWAP1 SLOAD SWAP1 PUSH2 0x100 EXP SWAP1 DIV PUSH20 0xFFFFFFFFFFFFFFFFFFFFFFFFFFFFFFFFFFFFFFFF AND PUSH20 0xFFFFFFFFFFFFFFFFFFFFFFFFFFFFFFFFFFFFFFFF AND PUSH4 0x23B872DD ADDRESS CALLER DUP5 PUSH1 0x40 MLOAD DUP5 PUSH4 0xFFFFFFFF AND PUSH1 0xE0 SHL DUP2 MSTORE PUSH1 0x4 ADD PUSH2 0x6B9 SWAP4 SWAP3 SWAP2 SWAP1 PUSH2 0x19DB JUMP JUMPDEST PUSH1 0x0 PUSH1 0x40 MLOAD DUP1 DUP4 SUB DUP2 PUSH1 0x0 DUP8 DUP1 EXTCODESIZE ISZERO DUP1 ISZERO PUSH2 0x6D3 JUMPI PUSH1 0x0 DUP1 REVERT JUMPDEST POP GAS CALL ISZERO DUP1 ISZERO PUSH2 0x6E7 JUMPI RETURNDATASIZE PUSH1 0x0 DUP1 RETURNDATACOPY RETURNDATASIZE PUSH1 0x0 REVERT JUMPDEST POP POP POP POP PUSH1 0x7 PUSH1 0x0 DUP3 DUP2 MSTORE PUSH1 0x20 ADD SWAP1 DUP2 MSTORE PUSH1 0x20 ADD PUSH1 0x0 KECCAK256 PUSH1 0x0 PUSH2 0x100 EXP DUP2 SLOAD SWAP1 PUSH20 0xFFFFFFFFFFFFFFFFFFFFFFFFFFFFFFFFFFFFFFFF MUL NOT AND SWAP1 SSTORE PUSH1 0x8 PUSH1 0x0 DUP3 DUP2 MSTORE PUSH1 0x20 ADD SWAP1 DUP2 MSTORE PUSH1 0x20 ADD PUSH1 0x0 KECCAK256 PUSH1 0x0 SWAP1 SSTORE POP JUMP JUMPDEST PUSH1 0x0 PUSH1 0x12 SWAP1 POP SWAP1 JUMP JUMPDEST PUSH1 0x0 DUP1 PUSH2 0x74F PUSH2 0xBC8 JUMP JUMPDEST SWAP1 POP PUSH2 0x770 DUP2 DUP6 DUP6 PUSH2 0x761 DUP6 DUP10 PUSH2 0xABE JUMP JUMPDEST PUSH2 0x76B SWAP2 SWAP1 PUSH2 0x1A41 JUMP JUMPDEST PUSH2 0xBD0 JUMP JUMPDEST PUSH1 0x1 SWAP2 POP POP SWAP3 SWAP2 POP POP JUMP JUMPDEST PUSH1 0x6 PUSH1 0x0 SWAP1 SLOAD SWAP1 PUSH2 0x100 EXP SWAP1 DIV PUSH20 0xFFFFFFFFFFFFFFFFFFFFFFFFFFFFFFFFFFFFFFFF AND DUP2 JUMP JUMPDEST PUSH1 0x0 DUP1 PUSH1 0x0 DUP4 PUSH20 0xFFFFFFFFFFFFFFFFFFFFFFFFFFFFFFFFFFFFFFFF AND PUSH20 0xFFFFFFFFFFFFFFFFFFFFFFFFFFFFFFFFFFFFFFFF AND DUP2 MSTORE PUSH1 0x20 ADD SWAP1 DUP2 MSTORE PUSH1 0x20 ADD PUSH1 0x0 KECCAK256 SLOAD SWAP1 POP SWAP2 SWAP1 POP JUMP JUMPDEST PUSH2 0x7F1 PUSH2 0x11F1 JUMP JUMPDEST PUSH2 0x7FB PUSH1 0x0 PUSH2 0x126F JUMP JUMPDEST JUMP JUMPDEST PUSH1 0x0 DUP1 PUSH1 0x8 PUSH1 0x0 DUP5 DUP2 MSTORE PUSH1 0x20 ADD SWAP1 DUP2 MSTORE PUSH1 0x20 ADD PUSH1 0x0 KECCAK256 SLOAD TIMESTAMP PUSH2 0x81F SWAP2 SWAP1 PUSH2 0x1A75 JUMP JUMPDEST SWAP1 POP PUSH1 0x9 SLOAD DUP2 PUSH2 0x82F SWAP2 SWAP1 PUSH2 0x1AA9 JUMP JUMPDEST SWAP2 POP POP SWAP2 SWAP1 POP JUMP JUMPDEST PUSH1 0x7 PUSH1 0x20 MSTORE DUP1 PUSH1 0x0 MSTORE PUSH1 0x40 PUSH1 0x0 KECCAK256 PUSH1 0x0 SWAP2 POP SLOAD SWAP1 PUSH2 0x100 EXP SWAP1 DIV PUSH20 0xFFFFFFFFFFFFFFFFFFFFFFFFFFFFFFFFFFFFFFFF AND DUP2 JUMP JUMPDEST PUSH1 0x0 PUSH1 0x5 PUSH1 0x0 SWAP1 SLOAD SWAP1 PUSH2 0x100 EXP SWAP1 DIV PUSH20 0xFFFFFFFFFFFFFFFFFFFFFFFFFFFFFFFFFFFFFFFF AND SWAP1 POP SWAP1 JUMP JUMPDEST PUSH1 0x60 PUSH1 0x4 DUP1 SLOAD PUSH2 0x8A3 SWAP1 PUSH2 0x193E JUMP JUMPDEST DUP1 PUSH1 0x1F ADD PUSH1 0x20 DUP1 SWAP2 DIV MUL PUSH1 0x20 ADD PUSH1 0x40 MLOAD SWAP1 DUP2 ADD PUSH1 0x40 MSTORE DUP1 SWAP3 SWAP2 SWAP1 DUP2 DUP2 MSTORE PUSH1 0x20 ADD DUP3 DUP1 SLOAD PUSH2 0x8CF SWAP1 PUSH2 0x193E JUMP JUMPDEST DUP1 ISZERO PUSH2 0x91C JUMPI DUP1 PUSH1 0x1F LT PUSH2 0x8F1 JUMPI PUSH2 0x100 DUP1 DUP4 SLOAD DIV MUL DUP4 MSTORE SWAP2 PUSH1 0x20 ADD SWAP2 PUSH2 0x91C JUMP JUMPDEST DUP3 ADD SWAP2 SWAP1 PUSH1 0x0 MSTORE PUSH1 0x20 PUSH1 0x0 KECCAK256 SWAP1 JUMPDEST DUP2 SLOAD DUP2 MSTORE SWAP1 PUSH1 0x1 ADD SWAP1 PUSH1 0x20 ADD DUP1 DUP4 GT PUSH2 0x8FF JUMPI DUP3 SWAP1 SUB PUSH1 0x1F AND DUP3 ADD SWAP2 JUMPDEST POP POP POP POP POP SWAP1 POP SWAP1 JUMP JUMPDEST PUSH1 0x0 DUP1 PUSH2 0x931 PUSH2 0xBC8 JUMP JUMPDEST SWAP1 POP PUSH1 0x0 PUSH2 0x93F DUP3 DUP7 PUSH2 0xABE JUMP JUMPDEST SWAP1 POP DUP4 DUP2 LT ISZERO PUSH2 0x984 JUMPI PUSH1 0x40 MLOAD PUSH32 0x8C379A000000000000000000000000000000000000000000000000000000000 DUP2 MSTORE PUSH1 0x4 ADD PUSH2 0x97B SWAP1 PUSH2 0x1B5D JUMP JUMPDEST PUSH1 0x40 MLOAD DUP1 SWAP2 SUB SWAP1 REVERT JUMPDEST PUSH2 0x991 DUP3 DUP7 DUP7 DUP5 SUB PUSH2 0xBD0 JUMP JUMPDEST PUSH1 0x1 SWAP3 POP POP POP SWAP3 SWAP2 POP POP JUMP JUMPDEST PUSH1 0x6 PUSH1 0x0 SWAP1 SLOAD SWAP1 PUSH2 0x100 EXP SWAP1 DIV PUSH20 0xFFFFFFFFFFFFFFFFFFFFFFFFFFFFFFFFFFFFFFFF AND PUSH20 0xFFFFFFFFFFFFFFFFFFFFFFFFFFFFFFFFFFFFFFFF AND PUSH4 0x42842E0E CALLER ADDRESS DUP5 PUSH1 0x40 MLOAD DUP5 PUSH4 0xFFFFFFFF AND PUSH1 0xE0 SHL DUP2 MSTORE PUSH1 0x4 ADD PUSH2 0x9FC SWAP4 SWAP3 SWAP2 SWAP1 PUSH2 0x19DB JUMP JUMPDEST PUSH1 0x0 PUSH1 0x40 MLOAD DUP1 DUP4 SUB DUP2 PUSH1 0x0 DUP8 DUP1 EXTCODESIZE ISZERO DUP1 ISZERO PUSH2 0xA16 JUMPI PUSH1 0x0 DUP1 REVERT JUMPDEST POP GAS CALL ISZERO DUP1 ISZERO PUSH2 0xA2A JUMPI RETURNDATASIZE PUSH1 0x0 DUP1 RETURNDATACOPY RETURNDATASIZE PUSH1 0x0 REVERT JUMPDEST POP POP POP POP CALLER PUSH1 0x7 PUSH1 0x0 DUP4 DUP2 MSTORE PUSH1 0x20 ADD SWAP1 DUP2 MSTORE PUSH1 0x20 ADD PUSH1 0x0 KECCAK256 PUSH1 0x0 PUSH2 0x100 EXP DUP2 SLOAD DUP2 PUSH20 0xFFFFFFFFFFFFFFFFFFFFFFFFFFFFFFFFFFFFFFFF MUL NOT AND SWAP1 DUP4 PUSH20 0xFFFFFFFFFFFFFFFFFFFFFFFFFFFFFFFFFFFFFFFF AND MUL OR SWAP1 SSTORE POP TIMESTAMP PUSH1 0x8 PUSH1 0x0 DUP4 DUP2 MSTORE PUSH1 0x20 ADD SWAP1 DUP2 MSTORE PUSH1 0x20 ADD PUSH1 0x0 KECCAK256 DUP2 SWAP1 SSTORE POP POP JUMP JUMPDEST PUSH1 0x0 DUP1 PUSH2 0xAA6 PUSH2 0xBC8 JUMP JUMPDEST SWAP1 POP PUSH2 0xAB3 DUP2 DUP6 DUP6 PUSH2 0xE25 JUMP JUMPDEST PUSH1 0x1 SWAP2 POP POP SWAP3 SWAP2 POP POP JUMP JUMPDEST PUSH1 0x0 PUSH1 0x1 PUSH1 0x0 DUP5 PUSH20 0xFFFFFFFFFFFFFFFFFFFFFFFFFFFFFFFFFFFFFFFF AND PUSH20 0xFFFFFFFFFFFFFFFFFFFFFFFFFFFFFFFFFFFFFFFF AND DUP2 MSTORE PUSH1 0x20 ADD SWAP1 DUP2 MSTORE PUSH1 0x20 ADD PUSH1 0x0 KECCAK256 PUSH1 0x0 DUP4 PUSH20 0xFFFFFFFFFFFFFFFFFFFFFFFFFFFFFFFFFFFFFFFF AND PUSH20 0xFFFFFFFFFFFFFFFFFFFFFFFFFFFFFFFFFFFFFFFF AND DUP2 MSTORE PUSH1 0x20 ADD SWAP1 DUP2 MSTORE PUSH1 0x20 ADD PUSH1 0x0 KECCAK256 SLOAD SWAP1 POP SWAP3 SWAP2 POP POP JUMP JUMPDEST PUSH2 0xB4D PUSH2 0x11F1 JUMP JUMPDEST PUSH1 0x0 PUSH20 0xFFFFFFFFFFFFFFFFFFFFFFFFFFFFFFFFFFFFFFFF AND DUP2 PUSH20 0xFFFFFFFFFFFFFFFFFFFFFFFFFFFFFFFFFFFFFFFF AND SUB PUSH2 0xBBC JUMPI PUSH1 0x40 MLOAD PUSH32 0x8C379A000000000000000000000000000000000000000000000000000000000 DUP2 MSTORE PUSH1 0x4 ADD PUSH2 0xBB3 SWAP1 PUSH2 0x1BEF JUMP JUMPDEST PUSH1 0x40 MLOAD DUP1 SWAP2 SUB SWAP1 REVERT JUMPDEST PUSH2 0xBC5 DUP2 PUSH2 0x126F JUMP JUMPDEST POP JUMP JUMPDEST PUSH1 0x0 CALLER SWAP1 POP SWAP1 JUMP JUMPDEST PUSH1 0x0 PUSH20 0xFFFFFFFFFFFFFFFFFFFFFFFFFFFFFFFFFFFFFFFF AND DUP4 PUSH20 0xFFFFFFFFFFFFFFFFFFFFFFFFFFFFFFFFFFFFFFFF AND SUB PUSH2 0xC3F JUMPI PUSH1 0x40 MLOAD PUSH32 0x8C379A000000000000000000000000000000000000000000000000000000000 DUP2 MSTORE PUSH1 0x4 ADD PUSH2 0xC36 SWAP1 PUSH2 0x1C81 JUMP JUMPDEST PUSH1 0x40 MLOAD DUP1 SWAP2 SUB SWAP1 REVERT JUMPDEST PUSH1 0x0 PUSH20 0xFFFFFFFFFFFFFFFFFFFFFFFFFFFFFFFFFFFFFFFF AND DUP3 PUSH20 0xFFFFFFFFFFFFFFFFFFFFFFFFFFFFFFFFFFFFFFFF AND SUB PUSH2 0xCAE JUMPI PUSH1 0x40 MLOAD PUSH32 0x8C379A000000000000000000000000000000000000000000000000000000000 DUP2 MSTORE PUSH1 0x4 ADD PUSH2 0xCA5 SWAP1 PUSH2 0x1D13 JUMP JUMPDEST PUSH1 0x40 MLOAD DUP1 SWAP2 SUB SWAP1 REVERT JUMPDEST DUP1 PUSH1 0x1 PUSH1 0x0 DUP6 PUSH20 0xFFFFFFFFFFFFFFFFFFFFFFFFFFFFFFFFFFFFFFFF AND PUSH20 0xFFFFFFFFFFFFFFFFFFFFFFFFFFFFFFFFFFFFFFFF AND DUP2 MSTORE PUSH1 0x20 ADD SWAP1 DUP2 MSTORE PUSH1 0x20 ADD PUSH1 0x0 KECCAK256 PUSH1 0x0 DUP5 PUSH20 0xFFFFFFFFFFFFFFFFFFFFFFFFFFFFFFFFFFFFFFFF AND PUSH20 0xFFFFFFFFFFFFFFFFFFFFFFFFFFFFFFFFFFFFFFFF AND DUP2 MSTORE PUSH1 0x20 ADD SWAP1 DUP2 MSTORE PUSH1 0x20 ADD PUSH1 0x0 KECCAK256 DUP2 SWAP1 SSTORE POP DUP2 PUSH20 0xFFFFFFFFFFFFFFFFFFFFFFFFFFFFFFFFFFFFFFFF AND DUP4 PUSH20 0xFFFFFFFFFFFFFFFFFFFFFFFFFFFFFFFFFFFFFFFF AND PUSH32 0x8C5BE1E5EBEC7D5BD14F71427D1E84F3DD0314C0F7B2291E5B200AC8C7C3B925 DUP4 PUSH1 0x40 MLOAD PUSH2 0xD8C SWAP2 SWAP1 PUSH2 0x1358 JUMP JUMPDEST PUSH1 0x40 MLOAD DUP1 SWAP2 SUB SWAP1 LOG3 POP POP POP JUMP JUMPDEST PUSH1 0x0 PUSH2 0xDA5 DUP5 DUP5 PUSH2 0xABE JUMP JUMPDEST SWAP1 POP PUSH32 0xFFFFFFFFFFFFFFFFFFFFFFFFFFFFFFFFFFFFFFFFFFFFFFFFFFFFFFFFFFFFFFFF DUP2 EQ PUSH2 0xE1F JUMPI DUP2 DUP2 LT ISZERO PUSH2 0xE11 JUMPI PUSH1 0x40 MLOAD PUSH32 0x8C379A000000000000000000000000000000000000000000000000000000000 DUP2 MSTORE PUSH1 0x4 ADD PUSH2 0xE08 SWAP1 PUSH2 0x1D7F JUMP JUMPDEST PUSH1 0x40 MLOAD DUP1 SWAP2 SUB SWAP1 REVERT JUMPDEST PUSH2 0xE1E DUP5 DUP5 DUP5 DUP5 SUB PUSH2 0xBD0 JUMP JUMPDEST JUMPDEST POP POP POP POP JUMP JUMPDEST PUSH1 0x0 PUSH20 0xFFFFFFFFFFFFFFFFFFFFFFFFFFFFFFFFFFFFFFFF AND DUP4 PUSH20 0xFFFFFFFFFFFFFFFFFFFFFFFFFFFFFFFFFFFFFFFF AND SUB PUSH2 0xE94 JUMPI PUSH1 0x40 MLOAD PUSH32 0x8C379A000000000000000000000000000000000000000000000000000000000 DUP2 MSTORE PUSH1 0x4 ADD PUSH2 0xE8B SWAP1 PUSH2 0x1E11 JUMP JUMPDEST PUSH1 0x40 MLOAD DUP1 SWAP2 SUB SWAP1 REVERT JUMPDEST PUSH1 0x0 PUSH20 0xFFFFFFFFFFFFFFFFFFFFFFFFFFFFFFFFFFFFFFFF AND DUP3 PUSH20 0xFFFFFFFFFFFFFFFFFFFFFFFFFFFFFFFFFFFFFFFF AND SUB PUSH2 0xF03 JUMPI PUSH1 0x40 MLOAD PUSH32 0x8C379A000000000000000000000000000000000000000000000000000000000 DUP2 MSTORE PUSH1 0x4 ADD PUSH2 0xEFA SWAP1 PUSH2 0x1EA3 JUMP JUMPDEST PUSH1 0x40 MLOAD DUP1 SWAP2 SUB SWAP1 REVERT JUMPDEST PUSH2 0xF0E DUP4 DUP4 DUP4 PUSH2 0x1335 JUMP JUMPDEST PUSH1 0x0 DUP1 PUSH1 0x0 DUP6 PUSH20 0xFFFFFFFFFFFFFFFFFFFFFFFFFFFFFFFFFFFFFFFF AND PUSH20 0xFFFFFFFFFFFFFFFFFFFFFFFFFFFFFFFFFFFFFFFF AND DUP2 MSTORE PUSH1 0x20 ADD SWAP1 DUP2 MSTORE PUSH1 0x20 ADD PUSH1 0x0 KECCAK256 SLOAD SWAP1 POP DUP2 DUP2 LT ISZERO PUSH2 0xF94 JUMPI PUSH1 0x40 MLOAD PUSH32 0x8C379A000000000000000000000000000000000000000000000000000000000 DUP2 MSTORE PUSH1 0x4 ADD PUSH2 0xF8B SWAP1 PUSH2 0x1F35 JUMP JUMPDEST PUSH1 0x40 MLOAD DUP1 SWAP2 SUB SWAP1 REVERT JUMPDEST DUP2 DUP2 SUB PUSH1 0x0 DUP1 DUP7 PUSH20 0xFFFFFFFFFFFFFFFFFFFFFFFFFFFFFFFFFFFFFFFF AND PUSH20 0xFFFFFFFFFFFFFFFFFFFFFFFFFFFFFFFFFFFFFFFF AND DUP2 MSTORE PUSH1 0x20 ADD SWAP1 DUP2 MSTORE PUSH1 0x20 ADD PUSH1 0x0 KECCAK256 DUP2 SWAP1 SSTORE POP DUP2 PUSH1 0x0 DUP1 DUP6 PUSH20 0xFFFFFFFFFFFFFFFFFFFFFFFFFFFFFFFFFFFFFFFF AND PUSH20 0xFFFFFFFFFFFFFFFFFFFFFFFFFFFFFFFFFFFFFFFF AND DUP2 MSTORE PUSH1 0x20 ADD SWAP1 DUP2 MSTORE PUSH1 0x20 ADD PUSH1 0x0 KECCAK256 PUSH1 0x0 DUP3 DUP3 SLOAD ADD SWAP3 POP POP DUP2 SWAP1 SSTORE POP DUP3 PUSH20 0xFFFFFFFFFFFFFFFFFFFFFFFFFFFFFFFFFFFFFFFF AND DUP5 PUSH20 0xFFFFFFFFFFFFFFFFFFFFFFFFFFFFFFFFFFFFFFFF AND PUSH32 0xDDF252AD1BE2C89B69C2B068FC378DAA952BA7F163C4A11628F55A4DF523B3EF DUP5 PUSH1 0x40 MLOAD PUSH2 0x1082 SWAP2 SWAP1 PUSH2 0x1358 JUMP JUMPDEST PUSH1 0x40 MLOAD DUP1 SWAP2 SUB SWAP1 LOG3 PUSH2 0x1095 DUP5 DUP5 DUP5 PUSH2 0x133A JUMP JUMPDEST POP POP POP POP JUMP JUMPDEST PUSH1 0x0 PUSH20 0xFFFFFFFFFFFFFFFFFFFFFFFFFFFFFFFFFFFFFFFF AND DUP3 PUSH20 0xFFFFFFFFFFFFFFFFFFFFFFFFFFFFFFFFFFFFFFFF AND SUB PUSH2 0x110A JUMPI PUSH1 0x40 MLOAD PUSH32 0x8C379A000000000000000000000000000000000000000000000000000000000 DUP2 MSTORE PUSH1 0x4 ADD PUSH2 0x1101 SWAP1 PUSH2 0x1FA1 JUMP JUMPDEST PUSH1 0x40 MLOAD DUP1 SWAP2 SUB SWAP1 REVERT JUMPDEST PUSH2 0x1116 PUSH1 0x0 DUP4 DUP4 PUSH2 0x1335 JUMP JUMPDEST DUP1 PUSH1 0x2 PUSH1 0x0 DUP3 DUP3 SLOAD PUSH2 0x1128 SWAP2 SWAP1 PUSH2 0x1A41 JUMP JUMPDEST SWAP3 POP POP DUP2 SWAP1 SSTORE POP DUP1 PUSH1 0x0 DUP1 DUP5 PUSH20 0xFFFFFFFFFFFFFFFFFFFFFFFFFFFFFFFFFFFFFFFF AND PUSH20 0xFFFFFFFFFFFFFFFFFFFFFFFFFFFFFFFFFFFFFFFF AND DUP2 MSTORE PUSH1 0x20 ADD SWAP1 DUP2 MSTORE PUSH1 0x20 ADD PUSH1 0x0 KECCAK256 PUSH1 0x0 DUP3 DUP3 SLOAD ADD SWAP3 POP POP DUP2 SWAP1 SSTORE POP DUP2 PUSH20 0xFFFFFFFFFFFFFFFFFFFFFFFFFFFFFFFFFFFFFFFF AND PUSH1 0x0 PUSH20 0xFFFFFFFFFFFFFFFFFFFFFFFFFFFFFFFFFFFFFFFF AND PUSH32 0xDDF252AD1BE2C89B69C2B068FC378DAA952BA7F163C4A11628F55A4DF523B3EF DUP4 PUSH1 0x40 MLOAD PUSH2 0x11D9 SWAP2 SWAP1 PUSH2 0x1358 JUMP JUMPDEST PUSH1 0x40 MLOAD DUP1 SWAP2 SUB SWAP1 LOG3 PUSH2 0x11ED PUSH1 0x0 DUP4 DUP4 PUSH2 0x133A JUMP JUMPDEST POP POP JUMP JUMPDEST PUSH2 0x11F9 PUSH2 0xBC8 JUMP JUMPDEST PUSH20 0xFFFFFFFFFFFFFFFFFFFFFFFFFFFFFFFFFFFFFFFF AND PUSH2 0x1217 PUSH2 0x86A JUMP JUMPDEST PUSH20 0xFFFFFFFFFFFFFFFFFFFFFFFFFFFFFFFFFFFFFFFF AND EQ PUSH2 0x126D JUMPI PUSH1 0x40 MLOAD PUSH32 0x8C379A000000000000000000000000000000000000000000000000000000000 DUP2 MSTORE PUSH1 0x4 ADD PUSH2 0x1264 SWAP1 PUSH2 0x200D JUMP JUMPDEST PUSH1 0x40 MLOAD DUP1 SWAP2 SUB SWAP1 REVERT JUMPDEST JUMP JUMPDEST PUSH1 0x0 PUSH1 0x5 PUSH1 0x0 SWAP1 SLOAD SWAP1 PUSH2 0x100 EXP SWAP1 DIV PUSH20 0xFFFFFFFFFFFFFFFFFFFFFFFFFFFFFFFFFFFFFFFF AND SWAP1 POP DUP2 PUSH1 0x5 PUSH1 0x0 PUSH2 0x100 EXP DUP2 SLOAD DUP2 PUSH20 0xFFFFFFFFFFFFFFFFFFFFFFFFFFFFFFFFFFFFFFFF MUL NOT AND SWAP1 DUP4 PUSH20 0xFFFFFFFFFFFFFFFFFFFFFFFFFFFFFFFFFFFFFFFF AND MUL OR SWAP1 SSTORE POP DUP2 PUSH20 0xFFFFFFFFFFFFFFFFFFFFFFFFFFFFFFFFFFFFFFFF AND DUP2 PUSH20 0xFFFFFFFFFFFFFFFFFFFFFFFFFFFFFFFFFFFFFFFF AND PUSH32 0x8BE0079C531659141344CD1FD0A4F28419497F9722A3DAAFE3B4186F6B6457E0 PUSH1 0x40 MLOAD PUSH1 0x40 MLOAD DUP1 SWAP2 SUB SWAP1 LOG3 POP POP JUMP JUMPDEST POP POP POP JUMP JUMPDEST POP POP POP JUMP JUMPDEST PUSH1 0x0 DUP2 SWAP1 POP SWAP2 SWAP1 POP JUMP JUMPDEST PUSH2 0x1352 DUP2 PUSH2 0x133F JUMP JUMPDEST DUP3 MSTORE POP POP JUMP JUMPDEST PUSH1 0x0 PUSH1 0x20 DUP3 ADD SWAP1 POP PUSH2 0x136D PUSH1 0x0 DUP4 ADD DUP5 PUSH2 0x1349 JUMP JUMPDEST SWAP3 SWAP2 POP POP JUMP JUMPDEST PUSH1 0x0 DUP2 MLOAD SWAP1 POP SWAP2 SWAP1 POP JUMP JUMPDEST PUSH1 0x0 DUP3 DUP3 MSTORE PUSH1 0x20 DUP3 ADD SWAP1 POP SWAP3 SWAP2 POP POP JUMP JUMPDEST PUSH1 0x0 JUMPDEST DUP4 DUP2 LT ISZERO PUSH2 0x13AD JUMPI DUP1 DUP3 ADD MLOAD DUP2 DUP5 ADD MSTORE PUSH1 0x20 DUP2 ADD SWAP1 POP PUSH2 0x1392 JUMP JUMPDEST PUSH1 0x0 DUP5 DUP5 ADD MSTORE POP POP POP POP JUMP JUMPDEST PUSH1 0x0 PUSH1 0x1F NOT PUSH1 0x1F DUP4 ADD AND SWAP1 POP SWAP2 SWAP1 POP JUMP JUMPDEST PUSH1 0x0 PUSH2 0x13D5 DUP3 PUSH2 0x1373 JUMP JUMPDEST PUSH2 0x13DF DUP2 DUP6 PUSH2 0x137E JUMP JUMPDEST SWAP4 POP PUSH2 0x13EF DUP2 DUP6 PUSH1 0x20 DUP7 ADD PUSH2 0x138F JUMP JUMPDEST PUSH2 0x13F8 DUP2 PUSH2 0x13B9 JUMP JUMPDEST DUP5 ADD SWAP2 POP POP SWAP3 SWAP2 POP POP JUMP JUMPDEST PUSH1 0x0 PUSH1 0x20 DUP3 ADD SWAP1 POP DUP2 DUP2 SUB PUSH1 0x0 DUP4 ADD MSTORE PUSH2 0x141D DUP2 DUP5 PUSH2 0x13CA JUMP JUMPDEST SWAP1 POP SWAP3 SWAP2 POP POP JUMP JUMPDEST PUSH1 0x0 PUSH1 0x40 MLOAD SWAP1 POP SWAP1 JUMP JUMPDEST PUSH1 0x0 DUP1 REVERT JUMPDEST PUSH1 0x0 DUP1 REVERT JUMPDEST PUSH1 0x0 PUSH20 0xFFFFFFFFFFFFFFFFFFFFFFFFFFFFFFFFFFFFFFFF DUP3 AND SWAP1 POP SWAP2 SWAP1 POP JUMP JUMPDEST PUSH1 0x0 PUSH2 0x1464 DUP3 PUSH2 0x1439 JUMP JUMPDEST SWAP1 POP SWAP2 SWAP1 POP JUMP JUMPDEST PUSH2 0x1474 DUP2 PUSH2 0x1459 JUMP JUMPDEST DUP2 EQ PUSH2 0x147F JUMPI PUSH1 0x0 DUP1 REVERT JUMPDEST POP JUMP JUMPDEST PUSH1 0x0 DUP2 CALLDATALOAD SWAP1 POP PUSH2 0x1491 DUP2 PUSH2 0x146B JUMP JUMPDEST SWAP3 SWAP2 POP POP JUMP JUMPDEST PUSH2 0x14A0 DUP2 PUSH2 0x133F JUMP JUMPDEST DUP2 EQ PUSH2 0x14AB JUMPI PUSH1 0x0 DUP1 REVERT JUMPDEST POP JUMP JUMPDEST PUSH1 0x0 DUP2 CALLDATALOAD SWAP1 POP PUSH2 0x14BD DUP2 PUSH2 0x1497 JUMP JUMPDEST SWAP3 SWAP2 POP POP JUMP JUMPDEST PUSH1 0x0 DUP1 PUSH1 0x40 DUP4 DUP6 SUB SLT ISZERO PUSH2 0x14DA JUMPI PUSH2 0x14D9 PUSH2 0x142F JUMP JUMPDEST JUMPDEST PUSH1 0x0 PUSH2 0x14E8 DUP6 DUP3 DUP7 ADD PUSH2 0x1482 JUMP JUMPDEST SWAP3 POP POP PUSH1 0x20 PUSH2 0x14F9 DUP6 DUP3 DUP7 ADD PUSH2 0x14AE JUMP JUMPDEST SWAP2 POP POP SWAP3 POP SWAP3 SWAP1 POP JUMP JUMPDEST PUSH1 0x0 DUP2 ISZERO ISZERO SWAP1 POP SWAP2 SWAP1 POP JUMP JUMPDEST PUSH2 0x1518 DUP2 PUSH2 0x1503 JUMP JUMPDEST DUP3 MSTORE POP POP JUMP JUMPDEST PUSH1 0x0 PUSH1 0x20 DUP3 ADD SWAP1 POP PUSH2 0x1533 PUSH1 0x0 DUP4 ADD DUP5 PUSH2 0x150F JUMP JUMPDEST SWAP3 SWAP2 POP POP JUMP JUMPDEST PUSH1 0x0 DUP1 REVERT JUMPDEST PUSH1 0x0 DUP1 REVERT JUMPDEST PUSH32 0x4E487B7100000000000000000000000000000000000000000000000000000000 PUSH1 0x0 MSTORE PUSH1 0x41 PUSH1 0x4 MSTORE PUSH1 0x24 PUSH1 0x0 REVERT JUMPDEST PUSH2 0x157B DUP3 PUSH2 0x13B9 JUMP JUMPDEST DUP2 ADD DUP2 DUP2 LT PUSH8 0xFFFFFFFFFFFFFFFF DUP3 GT OR ISZERO PUSH2 0x159A JUMPI PUSH2 0x1599 PUSH2 0x1543 JUMP JUMPDEST JUMPDEST DUP1 PUSH1 0x40 MSTORE POP POP POP JUMP JUMPDEST PUSH1 0x0 PUSH2 0x15AD PUSH2 0x1425 JUMP JUMPDEST SWAP1 POP PUSH2 0x15B9 DUP3 DUP3 PUSH2 0x1572 JUMP JUMPDEST SWAP2 SWAP1 POP JUMP JUMPDEST PUSH1 0x0 PUSH8 0xFFFFFFFFFFFFFFFF DUP3 GT ISZERO PUSH2 0x15D9 JUMPI PUSH2 0x15D8 PUSH2 0x1543 JUMP JUMPDEST JUMPDEST PUSH2 0x15E2 DUP3 PUSH2 0x13B9 JUMP JUMPDEST SWAP1 POP PUSH1 0x20 DUP2 ADD SWAP1 POP SWAP2 SWAP1 POP JUMP JUMPDEST DUP3 DUP2 DUP4 CALLDATACOPY PUSH1 0x0 DUP4 DUP4 ADD MSTORE POP POP POP JUMP JUMPDEST PUSH1 0x0 PUSH2 0x1611 PUSH2 0x160C DUP5 PUSH2 0x15BE JUMP JUMPDEST PUSH2 0x15A3 JUMP JUMPDEST SWAP1 POP DUP3 DUP2 MSTORE PUSH1 0x20 DUP2 ADD DUP5 DUP5 DUP5 ADD GT ISZERO PUSH2 0x162D JUMPI PUSH2 0x162C PUSH2 0x153E JUMP JUMPDEST JUMPDEST PUSH2 0x1638 DUP5 DUP3 DUP6 PUSH2 0x15EF JUMP JUMPDEST POP SWAP4 SWAP3 POP POP POP JUMP JUMPDEST PUSH1 0x0 DUP3 PUSH1 0x1F DUP4 ADD SLT PUSH2 0x1655 JUMPI PUSH2 0x1654 PUSH2 0x1539 JUMP JUMPDEST JUMPDEST DUP2 CALLDATALOAD PUSH2 0x1665 DUP5 DUP3 PUSH1 0x20 DUP7 ADD PUSH2 0x15FE JUMP JUMPDEST SWAP2 POP POP SWAP3 SWAP2 POP POP JUMP JUMPDEST PUSH1 0x0 DUP1 PUSH1 0x0 DUP1 PUSH1 0x80 DUP6 DUP8 SUB SLT ISZERO PUSH2 0x1688 JUMPI PUSH2 0x1687 PUSH2 0x142F JUMP JUMPDEST JUMPDEST PUSH1 0x0 PUSH2 0x1696 DUP8 DUP3 DUP9 ADD PUSH2 0x1482 JUMP JUMPDEST SWAP5 POP POP PUSH1 0x20 PUSH2 0x16A7 DUP8 DUP3 DUP9 ADD PUSH2 0x1482 JUMP JUMPDEST SWAP4 POP POP PUSH1 0x40 PUSH2 0x16B8 DUP8 DUP3 DUP9 ADD PUSH2 0x14AE JUMP JUMPDEST SWAP3 POP POP PUSH1 0x60 DUP6 ADD CALLDATALOAD PUSH8 0xFFFFFFFFFFFFFFFF DUP2 GT ISZERO PUSH2 0x16D9 JUMPI PUSH2 0x16D8 PUSH2 0x1434 JUMP JUMPDEST JUMPDEST PUSH2 0x16E5 DUP8 DUP3 DUP9 ADD PUSH2 0x1640 JUMP JUMPDEST SWAP2 POP POP SWAP3 SWAP6 SWAP2 SWAP5 POP SWAP3 POP JUMP JUMPDEST PUSH1 0x0 PUSH32 0xFFFFFFFF00000000000000000000000000000000000000000000000000000000 DUP3 AND SWAP1 POP SWAP2 SWAP1 POP JUMP JUMPDEST PUSH2 0x1726 DUP2 PUSH2 0x16F1 JUMP JUMPDEST DUP3 MSTORE POP POP JUMP JUMPDEST PUSH1 0x0 PUSH1 0x20 DUP3 ADD SWAP1 POP PUSH2 0x1741 PUSH1 0x0 DUP4 ADD DUP5 PUSH2 0x171D JUMP JUMPDEST SWAP3 SWAP2 POP POP JUMP JUMPDEST PUSH1 0x0 DUP1 PUSH1 0x0 PUSH1 0x60 DUP5 DUP7 SUB SLT ISZERO PUSH2 0x1760 JUMPI PUSH2 0x175F PUSH2 0x142F JUMP JUMPDEST JUMPDEST PUSH1 0x0 PUSH2 0x176E DUP7 DUP3 DUP8 ADD PUSH2 0x1482 JUMP JUMPDEST SWAP4 POP POP PUSH1 0x20 PUSH2 0x177F DUP7 DUP3 DUP8 ADD PUSH2 0x1482 JUMP JUMPDEST SWAP3 POP POP PUSH1 0x40 PUSH2 0x1790 DUP7 DUP3 DUP8 ADD PUSH2 0x14AE JUMP JUMPDEST SWAP2 POP POP SWAP3 POP SWAP3 POP SWAP3 JUMP JUMPDEST PUSH1 0x0 PUSH1 0x20 DUP3 DUP5 SUB SLT ISZERO PUSH2 0x17B0 JUMPI PUSH2 0x17AF PUSH2 0x142F JUMP JUMPDEST JUMPDEST PUSH1 0x0 PUSH2 0x17BE DUP5 DUP3 DUP6 ADD PUSH2 0x14AE JUMP JUMPDEST SWAP2 POP POP SWAP3 SWAP2 POP POP JUMP JUMPDEST PUSH1 0x0 PUSH1 0xFF DUP3 AND SWAP1 POP SWAP2 SWAP1 POP JUMP JUMPDEST PUSH2 0x17DD DUP2 PUSH2 0x17C7 JUMP JUMPDEST DUP3 MSTORE POP POP JUMP JUMPDEST PUSH1 0x0 PUSH1 0x20 DUP3 ADD SWAP1 POP PUSH2 0x17F8 PUSH1 0x0 DUP4 ADD DUP5 PUSH2 0x17D4 JUMP JUMPDEST SWAP3 SWAP2 POP POP JUMP JUMPDEST PUSH1 0x0 DUP2 SWAP1 POP SWAP2 SWAP1 POP JUMP JUMPDEST PUSH1 0x0 PUSH2 0x1823 PUSH2 0x181E PUSH2 0x1819 DUP5 PUSH2 0x1439 JUMP JUMPDEST PUSH2 0x17FE JUMP JUMPDEST PUSH2 0x1439 JUMP JUMPDEST SWAP1 POP SWAP2 SWAP1 POP JUMP JUMPDEST PUSH1 0x0 PUSH2 0x1835 DUP3 PUSH2 0x1808 JUMP JUMPDEST SWAP1 POP SWAP2 SWAP1 POP JUMP JUMPDEST PUSH1 0x0 PUSH2 0x1847 DUP3 PUSH2 0x182A JUMP JUMPDEST SWAP1 POP SWAP2 SWAP1 POP JUMP JUMPDEST PUSH2 0x1857 DUP2 PUSH2 0x183C JUMP JUMPDEST DUP3 MSTORE POP POP JUMP JUMPDEST PUSH1 0x0 PUSH1 0x20 DUP3 ADD SWAP1 POP PUSH2 0x1872 PUSH1 0x0 DUP4 ADD DUP5 PUSH2 0x184E JUMP JUMPDEST SWAP3 SWAP2 POP POP JUMP JUMPDEST PUSH1 0x0 PUSH1 0x20 DUP3 DUP5 SUB SLT ISZERO PUSH2 0x188E JUMPI PUSH2 0x188D PUSH2 0x142F JUMP JUMPDEST JUMPDEST PUSH1 0x0 PUSH2 0x189C DUP5 DUP3 DUP6 ADD PUSH2 0x1482 JUMP JUMPDEST SWAP2 POP POP SWAP3 SWAP2 POP POP JUMP JUMPDEST PUSH2 0x18AE DUP2 PUSH2 0x1459 JUMP JUMPDEST DUP3 MSTORE POP POP JUMP JUMPDEST PUSH1 0x0 PUSH1 0x20 DUP3 ADD SWAP1 POP PUSH2 0x18C9 PUSH1 0x0 DUP4 ADD DUP5 PUSH2 0x18A5 JUMP JUMPDEST SWAP3 SWAP2 POP POP JUMP JUMPDEST PUSH1 0x0 DUP1 PUSH1 0x40 DUP4 DUP6 SUB SLT ISZERO PUSH2 0x18E6 JUMPI PUSH2 0x18E5 PUSH2 0x142F JUMP JUMPDEST JUMPDEST PUSH1 0x0 PUSH2 0x18F4 DUP6 DUP3 DUP7 ADD PUSH2 0x1482 JUMP JUMPDEST SWAP3 POP POP PUSH1 0x20 PUSH2 0x1905 DUP6 DUP3 DUP7 ADD PUSH2 0x1482 JUMP JUMPDEST SWAP2 POP POP SWAP3 POP SWAP3 SWAP1 POP JUMP JUMPDEST PUSH32 0x4E487B7100000000000000000000000000000000000000000000000000000000 PUSH1 0x0 MSTORE PUSH1 0x22 PUSH1 0x4 MSTORE PUSH1 0x24 PUSH1 0x0 REVERT JUMPDEST PUSH1 0x0 PUSH1 0x2 DUP3 DIV SWAP1 POP PUSH1 0x1 DUP3 AND DUP1 PUSH2 0x1956 JUMPI PUSH1 0x7F DUP3 AND SWAP2 POP JUMPDEST PUSH1 0x20 DUP3 LT DUP2 SUB PUSH2 0x1969 JUMPI PUSH2 0x1968 PUSH2 0x190F JUMP JUMPDEST JUMPDEST POP SWAP2 SWAP1 POP JUMP JUMPDEST PUSH32 0x596F752063616E277420756E7374616B65000000000000000000000000000000 PUSH1 0x0 DUP3 ADD MSTORE POP JUMP JUMPDEST PUSH1 0x0 PUSH2 0x19A5 PUSH1 0x11 DUP4 PUSH2 0x137E JUMP JUMPDEST SWAP2 POP PUSH2 0x19B0 DUP3 PUSH2 0x196F JUMP JUMPDEST PUSH1 0x20 DUP3 ADD SWAP1 POP SWAP2 SWAP1 POP JUMP JUMPDEST PUSH1 0x0 PUSH1 0x20 DUP3 ADD SWAP1 POP DUP2 DUP2 SUB PUSH1 0x0 DUP4 ADD MSTORE PUSH2 0x19D4 DUP2 PUSH2 0x1998 JUMP JUMPDEST SWAP1 POP SWAP2 SWAP1 POP JUMP JUMPDEST PUSH1 0x0 PUSH1 0x60 DUP3 ADD SWAP1 POP PUSH2 0x19F0 PUSH1 0x0 DUP4 ADD DUP7 PUSH2 0x18A5 JUMP JUMPDEST PUSH2 0x19FD PUSH1 0x20 DUP4 ADD DUP6 PUSH2 0x18A5 JUMP JUMPDEST PUSH2 0x1A0A PUSH1 0x40 DUP4 ADD DUP5 PUSH2 0x1349 JUMP JUMPDEST SWAP5 SWAP4 POP POP POP POP JUMP JUMPDEST PUSH32 0x4E487B7100000000000000000000000000000000000000000000000000000000 PUSH1 0x0 MSTORE PUSH1 0x11 PUSH1 0x4 MSTORE PUSH1 0x24 PUSH1 0x0 REVERT JUMPDEST PUSH1 0x0 PUSH2 0x1A4C DUP3 PUSH2 0x133F JUMP JUMPDEST SWAP2 POP PUSH2 0x1A57 DUP4 PUSH2 0x133F JUMP JUMPDEST SWAP3 POP DUP3 DUP3 ADD SWAP1 POP DUP1 DUP3 GT ISZERO PUSH2 0x1A6F JUMPI PUSH2 0x1A6E PUSH2 0x1A12 JUMP JUMPDEST JUMPDEST SWAP3 SWAP2 POP POP JUMP JUMPDEST PUSH1 0x0 PUSH2 0x1A80 DUP3 PUSH2 0x133F JUMP JUMPDEST SWAP2 POP PUSH2 0x1A8B DUP4 PUSH2 0x133F JUMP JUMPDEST SWAP3 POP DUP3 DUP3 SUB SWAP1 POP DUP2 DUP2 GT ISZERO PUSH2 0x1AA3 JUMPI PUSH2 0x1AA2 PUSH2 0x1A12 JUMP JUMPDEST JUMPDEST SWAP3 SWAP2 POP POP JUMP JUMPDEST PUSH1 0x0 PUSH2 0x1AB4 DUP3 PUSH2 0x133F JUMP JUMPDEST SWAP2 POP PUSH2 0x1ABF DUP4 PUSH2 0x133F JUMP JUMPDEST SWAP3 POP DUP3 DUP3 MUL PUSH2 0x1ACD DUP2 PUSH2 0x133F JUMP JUMPDEST SWAP2 POP DUP3 DUP3 DIV DUP5 EQ DUP4 ISZERO OR PUSH2 0x1AE4 JUMPI PUSH2 0x1AE3 PUSH2 0x1A12 JUMP JUMPDEST JUMPDEST POP SWAP3 SWAP2 POP POP JUMP JUMPDEST PUSH32 0x45524332303A2064656372656173656420616C6C6F77616E63652062656C6F77 PUSH1 0x0 DUP3 ADD MSTORE PUSH32 0x207A65726F000000000000000000000000000000000000000000000000000000 PUSH1 0x20 DUP3 ADD MSTORE POP JUMP JUMPDEST PUSH1 0x0 PUSH2 0x1B47 PUSH1 0x25 DUP4 PUSH2 0x137E JUMP JUMPDEST SWAP2 POP PUSH2 0x1B52 DUP3 PUSH2 0x1AEB JUMP JUMPDEST PUSH1 0x40 DUP3 ADD SWAP1 POP SWAP2 SWAP1 POP JUMP JUMPDEST PUSH1 0x0 PUSH1 0x20 DUP3 ADD SWAP1 POP DUP2 DUP2 SUB PUSH1 0x0 DUP4 ADD MSTORE PUSH2 0x1B76 DUP2 PUSH2 0x1B3A JUMP JUMPDEST SWAP1 POP SWAP2 SWAP1 POP JUMP JUMPDEST PUSH32 0x4F776E61626C653A206E6577206F776E657220697320746865207A65726F2061 PUSH1 0x0 DUP3 ADD MSTORE PUSH32 0x6464726573730000000000000000000000000000000000000000000000000000 PUSH1 0x20 DUP3 ADD MSTORE POP JUMP JUMPDEST PUSH1 0x0 PUSH2 0x1BD9 PUSH1 0x26 DUP4 PUSH2 0x137E JUMP JUMPDEST SWAP2 POP PUSH2 0x1BE4 DUP3 PUSH2 0x1B7D JUMP JUMPDEST PUSH1 0x40 DUP3 ADD SWAP1 POP SWAP2 SWAP1 POP JUMP JUMPDEST PUSH1 0x0 PUSH1 0x20 DUP3 ADD SWAP1 POP DUP2 DUP2 SUB PUSH1 0x0 DUP4 ADD MSTORE PUSH2 0x1C08 DUP2 PUSH2 0x1BCC JUMP JUMPDEST SWAP1 POP SWAP2 SWAP1 POP JUMP JUMPDEST PUSH32 0x45524332303A20617070726F76652066726F6D20746865207A65726F20616464 PUSH1 0x0 DUP3 ADD MSTORE PUSH32 0x7265737300000000000000000000000000000000000000000000000000000000 PUSH1 0x20 DUP3 ADD MSTORE POP JUMP JUMPDEST PUSH1 0x0 PUSH2 0x1C6B PUSH1 0x24 DUP4 PUSH2 0x137E JUMP JUMPDEST SWAP2 POP PUSH2 0x1C76 DUP3 PUSH2 0x1C0F JUMP JUMPDEST PUSH1 0x40 DUP3 ADD SWAP1 POP SWAP2 SWAP1 POP JUMP JUMPDEST PUSH1 0x0 PUSH1 0x20 DUP3 ADD SWAP1 POP DUP2 DUP2 SUB PUSH1 0x0 DUP4 ADD MSTORE PUSH2 0x1C9A DUP2 PUSH2 0x1C5E JUMP JUMPDEST SWAP1 POP SWAP2 SWAP1 POP JUMP JUMPDEST PUSH32 0x45524332303A20617070726F766520746F20746865207A65726F206164647265 PUSH1 0x0 DUP3 ADD MSTORE PUSH32 0x7373000000000000000000000000000000000000000000000000000000000000 PUSH1 0x20 DUP3 ADD MSTORE POP JUMP JUMPDEST PUSH1 0x0 PUSH2 0x1CFD PUSH1 0x22 DUP4 PUSH2 0x137E JUMP JUMPDEST SWAP2 POP PUSH2 0x1D08 DUP3 PUSH2 0x1CA1 JUMP JUMPDEST PUSH1 0x40 DUP3 ADD SWAP1 POP SWAP2 SWAP1 POP JUMP JUMPDEST PUSH1 0x0 PUSH1 0x20 DUP3 ADD SWAP1 POP DUP2 DUP2 SUB PUSH1 0x0 DUP4 ADD MSTORE PUSH2 0x1D2C DUP2 PUSH2 0x1CF0 JUMP JUMPDEST SWAP1 POP SWAP2 SWAP1 POP JUMP JUMPDEST PUSH32 0x45524332303A20696E73756666696369656E7420616C6C6F77616E6365000000 PUSH1 0x0 DUP3 ADD MSTORE POP JUMP JUMPDEST PUSH1 0x0 PUSH2 0x1D69 PUSH1 0x1D DUP4 PUSH2 0x137E JUMP JUMPDEST SWAP2 POP PUSH2 0x1D74 DUP3 PUSH2 0x1D33 JUMP JUMPDEST PUSH1 0x20 DUP3 ADD SWAP1 POP SWAP2 SWAP1 POP JUMP JUMPDEST PUSH1 0x0 PUSH1 0x20 DUP3 ADD SWAP1 POP DUP2 DUP2 SUB PUSH1 0x0 DUP4 ADD MSTORE PUSH2 0x1D98 DUP2 PUSH2 0x1D5C JUMP JUMPDEST SWAP1 POP SWAP2 SWAP1 POP JUMP JUMPDEST PUSH32 0x45524332303A207472616E736665722066726F6D20746865207A65726F206164 PUSH1 0x0 DUP3 ADD MSTORE PUSH32 0x6472657373000000000000000000000000000000000000000000000000000000 PUSH1 0x20 DUP3 ADD MSTORE POP JUMP JUMPDEST PUSH1 0x0 PUSH2 0x1DFB PUSH1 0x25 DUP4 PUSH2 0x137E JUMP JUMPDEST SWAP2 POP PUSH2 0x1E06 DUP3 PUSH2 0x1D9F JUMP JUMPDEST PUSH1 0x40 DUP3 ADD SWAP1 POP SWAP2 SWAP1 POP JUMP JUMPDEST PUSH1 0x0 PUSH1 0x20 DUP3 ADD SWAP1 POP DUP2 DUP2 SUB PUSH1 0x0 DUP4 ADD MSTORE PUSH2 0x1E2A DUP2 PUSH2 0x1DEE JUMP JUMPDEST SWAP1 POP SWAP2 SWAP1 POP JUMP JUMPDEST PUSH32 0x45524332303A207472616E7366657220746F20746865207A65726F2061646472 PUSH1 0x0 DUP3 ADD MSTORE PUSH32 0x6573730000000000000000000000000000000000000000000000000000000000 PUSH1 0x20 DUP3 ADD MSTORE POP JUMP JUMPDEST PUSH1 0x0 PUSH2 0x1E8D PUSH1 0x23 DUP4 PUSH2 0x137E JUMP JUMPDEST SWAP2 POP PUSH2 0x1E98 DUP3 PUSH2 0x1E31 JUMP JUMPDEST PUSH1 0x40 DUP3 ADD SWAP1 POP SWAP2 SWAP1 POP JUMP JUMPDEST PUSH1 0x0 PUSH1 0x20 DUP3 ADD SWAP1 POP DUP2 DUP2 SUB PUSH1 0x0 DUP4 ADD MSTORE PUSH2 0x1EBC DUP2 PUSH2 0x1E80 JUMP JUMPDEST SWAP1 POP SWAP2 SWAP1 POP JUMP JUMPDEST PUSH32 0x45524332303A207472616E7366657220616D6F756E7420657863656564732062 PUSH1 0x0 DUP3 ADD MSTORE PUSH32 0x616C616E63650000000000000000000000000000000000000000000000000000 PUSH1 0x20 DUP3 ADD MSTORE POP JUMP JUMPDEST PUSH1 0x0 PUSH2 0x1F1F PUSH1 0x26 DUP4 PUSH2 0x137E JUMP JUMPDEST SWAP2 POP PUSH2 0x1F2A DUP3 PUSH2 0x1EC3 JUMP JUMPDEST PUSH1 0x40 DUP3 ADD SWAP1 POP SWAP2 SWAP1 POP JUMP JUMPDEST PUSH1 0x0 PUSH1 0x20 DUP3 ADD SWAP1 POP DUP2 DUP2 SUB PUSH1 0x0 DUP4 ADD MSTORE PUSH2 0x1F4E DUP2 PUSH2 0x1F12 JUMP JUMPDEST SWAP1 POP SWAP2 SWAP1 POP JUMP JUMPDEST PUSH32 0x45524332303A206D696E7420746F20746865207A65726F206164647265737300 PUSH1 0x0 DUP3 ADD MSTORE POP JUMP JUMPDEST PUSH1 0x0 PUSH2 0x1F8B PUSH1 0x1F DUP4 PUSH2 0x137E JUMP JUMPDEST SWAP2 POP PUSH2 0x1F96 DUP3 PUSH2 0x1F55 JUMP JUMPDEST PUSH1 0x20 DUP3 ADD SWAP1 POP SWAP2 SWAP1 POP JUMP JUMPDEST PUSH1 0x0 PUSH1 0x20 DUP3 ADD SWAP1 POP DUP2 DUP2 SUB PUSH1 0x0 DUP4 ADD MSTORE PUSH2 0x1FBA DUP2 PUSH2 0x1F7E JUMP JUMPDEST SWAP1 POP SWAP2 SWAP1 POP JUMP JUMPDEST PUSH32 0x4F776E61626C653A2063616C6C6572206973206E6F7420746865206F776E6572 PUSH1 0x0 DUP3 ADD MSTORE POP JUMP JUMPDEST PUSH1 0x0 PUSH2 0x1FF7 PUSH1 0x20 DUP4 PUSH2 0x137E JUMP JUMPDEST SWAP2 POP PUSH2 0x2002 DUP3 PUSH2 0x1FC1 JUMP JUMPDEST PUSH1 0x20 DUP3 ADD SWAP1 POP SWAP2 SWAP1 POP JUMP JUMPDEST PUSH1 0x0 PUSH1 0x20 DUP3 ADD SWAP1 POP DUP2 DUP2 SUB PUSH1 0x0 DUP4 ADD MSTORE PUSH2 0x2026 DUP2 PUSH2 0x1FEA JUMP JUMPDEST SWAP1 POP SWAP2 SWAP1 POP JUMP INVALID LOG2 PUSH5 0x6970667358 0x22 SLT KECCAK256 SWAP12 PREVRANDAO MSTORE8 DUP14 0xE3 0xC3 PUSH19 0x2E1D711D7E001865ADA8EFD1DFF42726B6EA7B 0xBD 0xD6 AND SSTORE NOT DUP1 PUSH5 0x736F6C6343 STOP ADDMOD SLT STOP CALLER "
				},
				"gasEstimates": {
					"creation": {
						"codeDepositCost": "1658200",
						"executionCost": "infinite",
						"totalCost": "infinite"
					},
					"external": {
						"EMISSION_RATE()": "2453",
						"allowance(address,address)": "infinite",
						"approve(address,uint256)": "infinite",
						"balanceOf(address)": "2864",
						"calculateTokens(uint256)": "infinite",
						"decimals()": "432",
						"decreaseAllowance(address,uint256)": "infinite",
						"increaseAllowance(address,uint256)": "infinite",
						"name()": "infinite",
						"nft()": "infinite",
						"onERC721Received(address,address,uint256,bytes)": "infinite",
						"owner()": "2633",
						"renounceOwnership()": "30443",
						"stake(uint256)": "infinite",
						"symbol()": "infinite",
						"tokenOwnerOf(uint256)": "2928",
						"tokenStakedAt(uint256)": "infinite",
						"totalSupply()": "2549",
						"transfer(address,uint256)": "infinite",
						"transferFrom(address,address,uint256)": "infinite",
						"transferOwnership(address)": "30876",
						"unstake(uint256)": "infinite"
					}
				},
				"methodIdentifiers": {
					"EMISSION_RATE()": "01b8199a",
					"allowance(address,address)": "dd62ed3e",
					"approve(address,uint256)": "095ea7b3",
					"balanceOf(address)": "70a08231",
					"calculateTokens(uint256)": "71aa60fd",
					"decimals()": "313ce567",
					"decreaseAllowance(address,uint256)": "a457c2d7",
					"increaseAllowance(address,uint256)": "39509351",
					"name()": "06fdde03",
					"nft()": "47ccca02",
					"onERC721Received(address,address,uint256,bytes)": "150b7a02",
					"owner()": "8da5cb5b",
					"renounceOwnership()": "715018a6",
					"stake(uint256)": "a694fc3a",
					"symbol()": "95d89b41",
					"tokenOwnerOf(uint256)": "89885a59",
					"tokenStakedAt(uint256)": "24bf238c",
					"totalSupply()": "18160ddd",
					"transfer(address,uint256)": "a9059cbb",
					"transferFrom(address,address,uint256)": "23b872dd",
					"transferOwnership(address)": "f2fde38b",
					"unstake(uint256)": "2e17de78"
				}
			},
			"storageLayout": {
				"storage": [
					{
						"astId": 128,
						"contract": "Staking.sol:MyToken",
						"label": "_balances",
						"offset": 0,
						"slot": "0",
						"type": "t_mapping(t_address,t_uint256)"
					},
					{
						"astId": 134,
						"contract": "Staking.sol:MyToken",
						"label": "_allowances",
						"offset": 0,
						"slot": "1",
						"type": "t_mapping(t_address,t_mapping(t_address,t_uint256))"
					},
					{
						"astId": 136,
						"contract": "Staking.sol:MyToken",
						"label": "_totalSupply",
						"offset": 0,
						"slot": "2",
						"type": "t_uint256"
					},
					{
						"astId": 138,
						"contract": "Staking.sol:MyToken",
						"label": "_name",
						"offset": 0,
						"slot": "3",
						"type": "t_string_storage"
					},
					{
						"astId": 140,
						"contract": "Staking.sol:MyToken",
						"label": "_symbol",
						"offset": 0,
						"slot": "4",
						"type": "t_string_storage"
					},
					{
						"astId": 7,
						"contract": "Staking.sol:MyToken",
						"label": "_owner",
						"offset": 0,
						"slot": "5",
						"type": "t_address"
					},
					{
						"astId": 1012,
						"contract": "Staking.sol:MyToken",
						"label": "nft",
						"offset": 0,
						"slot": "6",
						"type": "t_contract(IERC721)918"
					},
					{
						"astId": 1016,
						"contract": "Staking.sol:MyToken",
						"label": "tokenOwnerOf",
						"offset": 0,
						"slot": "7",
						"type": "t_mapping(t_uint256,t_address)"
					},
					{
						"astId": 1020,
						"contract": "Staking.sol:MyToken",
						"label": "tokenStakedAt",
						"offset": 0,
						"slot": "8",
						"type": "t_mapping(t_uint256,t_uint256)"
					},
					{
						"astId": 1031,
						"contract": "Staking.sol:MyToken",
						"label": "EMISSION_RATE",
						"offset": 0,
						"slot": "9",
						"type": "t_uint256"
					}
				],
				"types": {
					"t_address": {
						"encoding": "inplace",
						"label": "address",
						"numberOfBytes": "20"
					},
					"t_contract(IERC721)918": {
						"encoding": "inplace",
						"label": "contract IERC721",
						"numberOfBytes": "20"
					},
					"t_mapping(t_address,t_mapping(t_address,t_uint256))": {
						"encoding": "mapping",
						"key": "t_address",
						"label": "mapping(address => mapping(address => uint256))",
						"numberOfBytes": "32",
						"value": "t_mapping(t_address,t_uint256)"
					},
					"t_mapping(t_address,t_uint256)": {
						"encoding": "mapping",
						"key": "t_address",
						"label": "mapping(address => uint256)",
						"numberOfBytes": "32",
						"value": "t_uint256"
					},
					"t_mapping(t_uint256,t_address)": {
						"encoding": "mapping",
						"key": "t_uint256",
						"label": "mapping(uint256 => address)",
						"numberOfBytes": "32",
						"value": "t_address"
					},
					"t_mapping(t_uint256,t_uint256)": {
						"encoding": "mapping",
						"key": "t_uint256",
						"label": "mapping(uint256 => uint256)",
						"numberOfBytes": "32",
						"value": "t_uint256"
					},
					"t_string_storage": {
						"encoding": "bytes",
						"label": "string",
						"numberOfBytes": "32"
					},
					"t_uint256": {
						"encoding": "inplace",
						"label": "uint256",
						"numberOfBytes": "32"
					}
				}
			},
			"userdoc": {
				"kind": "user",
				"methods": {},
				"version": 1
			}
		}
	}
}