{
	"erc721atest.sol": {
		"E721A": {
			"abi": [
				{
					"inputs": [],
					"stateMutability": "nonpayable",
					"type": "constructor"
				},
				{
					"inputs": [],
					"name": "ApprovalCallerNotOwnerNorApproved",
					"type": "error"
				},
				{
					"inputs": [],
					"name": "ApprovalQueryForNonexistentToken",
					"type": "error"
				},
				{
					"inputs": [],
					"name": "BalanceQueryForZeroAddress",
					"type": "error"
				},
				{
					"inputs": [],
					"name": "MintERC2309QuantityExceedsLimit",
					"type": "error"
				},
				{
					"inputs": [],
					"name": "MintToZeroAddress",
					"type": "error"
				},
				{
					"inputs": [],
					"name": "MintZeroQuantity",
					"type": "error"
				},
				{
					"inputs": [],
					"name": "OwnerQueryForNonexistentToken",
					"type": "error"
				},
				{
					"inputs": [],
					"name": "OwnershipNotInitializedForExtraData",
					"type": "error"
				},
				{
					"inputs": [],
					"name": "TransferCallerNotOwnerNorApproved",
					"type": "error"
				},
				{
					"inputs": [],
					"name": "TransferFromIncorrectOwner",
					"type": "error"
				},
				{
					"inputs": [],
					"name": "TransferToNonERC721ReceiverImplementer",
					"type": "error"
				},
				{
					"inputs": [],
					"name": "TransferToZeroAddress",
					"type": "error"
				},
				{
					"inputs": [],
					"name": "URIQueryForNonexistentToken",
					"type": "error"
				},
				{
					"anonymous": false,
					"inputs": [
						{
							"indexed": true,
							"internalType": "address",
							"name": "owner",
							"type": "address"
						},
						{
							"indexed": true,
							"internalType": "address",
							"name": "approved",
							"type": "address"
						},
						{
							"indexed": true,
							"internalType": "uint256",
							"name": "tokenId",
							"type": "uint256"
						}
					],
					"name": "Approval",
					"type": "event"
				},
				{
					"anonymous": false,
					"inputs": [
						{
							"indexed": true,
							"internalType": "address",
							"name": "owner",
							"type": "address"
						},
						{
							"indexed": true,
							"internalType": "address",
							"name": "operator",
							"type": "address"
						},
						{
							"indexed": false,
							"internalType": "bool",
							"name": "approved",
							"type": "bool"
						}
					],
					"name": "ApprovalForAll",
					"type": "event"
				},
				{
					"anonymous": false,
					"inputs": [
						{
							"indexed": true,
							"internalType": "uint256",
							"name": "fromTokenId",
							"type": "uint256"
						},
						{
							"indexed": false,
							"internalType": "uint256",
							"name": "toTokenId",
							"type": "uint256"
						},
						{
							"indexed": true,
							"internalType": "address",
							"name": "from",
							"type": "address"
						},
						{
							"indexed": true,
							"internalType": "address",
							"name": "to",
							"type": "address"
						}
					],
					"name": "ConsecutiveTransfer",
					"type": "event"
				},
				{
					"anonymous": false,
					"inputs": [
						{
							"indexed": true,
							"internalType": "address",
							"name": "previousOwner",
							"type": "address"
						},
						{
							"indexed": true,
							"internalType": "address",
							"name": "newOwner",
							"type": "address"
						}
					],
					"name": "OwnershipTransferred",
					"type": "event"
				},
				{
					"anonymous": false,
					"inputs": [
						{
							"indexed": true,
							"internalType": "address",
							"name": "from",
							"type": "address"
						},
						{
							"indexed": true,
							"internalType": "address",
							"name": "to",
							"type": "address"
						},
						{
							"indexed": true,
							"internalType": "uint256",
							"name": "tokenId",
							"type": "uint256"
						}
					],
					"name": "Transfer",
					"type": "event"
				},
				{
					"inputs": [
						{
							"internalType": "uint256",
							"name": "n",
							"type": "uint256"
						}
					],
					"name": "Mint",
					"outputs": [],
					"stateMutability": "nonpayable",
					"type": "function"
				},
				{
					"inputs": [
						{
							"internalType": "address",
							"name": "to",
							"type": "address"
						},
						{
							"internalType": "uint256",
							"name": "tokenId",
							"type": "uint256"
						}
					],
					"name": "approve",
					"outputs": [],
					"stateMutability": "payable",
					"type": "function"
				},
				{
					"inputs": [
						{
							"internalType": "address",
							"name": "owner",
							"type": "address"
						}
					],
					"name": "balanceOf",
					"outputs": [
						{
							"internalType": "uint256",
							"name": "",
							"type": "uint256"
						}
					],
					"stateMutability": "view",
					"type": "function"
				},
				{
					"inputs": [
						{
							"internalType": "uint256",
							"name": "tokenId",
							"type": "uint256"
						}
					],
					"name": "getApproved",
					"outputs": [
						{
							"internalType": "address",
							"name": "",
							"type": "address"
						}
					],
					"stateMutability": "view",
					"type": "function"
				},
				{
					"inputs": [
						{
							"internalType": "address",
							"name": "owner",
							"type": "address"
						},
						{
							"internalType": "address",
							"name": "operator",
							"type": "address"
						}
					],
					"name": "isApprovedForAll",
					"outputs": [
						{
							"internalType": "bool",
							"name": "",
							"type": "bool"
						}
					],
					"stateMutability": "view",
					"type": "function"
				},
				{
					"inputs": [],
					"name": "name",
					"outputs": [
						{
							"internalType": "string",
							"name": "",
							"type": "string"
						}
					],
					"stateMutability": "view",
					"type": "function"
				},
				{
					"inputs": [],
					"name": "owner",
					"outputs": [
						{
							"internalType": "address",
							"name": "",
							"type": "address"
						}
					],
					"stateMutability": "view",
					"type": "function"
				},
				{
					"inputs": [
						{
							"internalType": "uint256",
							"name": "tokenId",
							"type": "uint256"
						}
					],
					"name": "ownerOf",
					"outputs": [
						{
							"internalType": "address",
							"name": "",
							"type": "address"
						}
					],
					"stateMutability": "view",
					"type": "function"
				},
				{
					"inputs": [],
					"name": "renounceOwnership",
					"outputs": [],
					"stateMutability": "nonpayable",
					"type": "function"
				},
				{
					"inputs": [
						{
							"internalType": "address",
							"name": "from",
							"type": "address"
						},
						{
							"internalType": "address",
							"name": "to",
							"type": "address"
						},
						{
							"internalType": "uint256",
							"name": "tokenId",
							"type": "uint256"
						}
					],
					"name": "safeTransferFrom",
					"outputs": [],
					"stateMutability": "payable",
					"type": "function"
				},
				{
					"inputs": [
						{
							"internalType": "address",
							"name": "from",
							"type": "address"
						},
						{
							"internalType": "address",
							"name": "to",
							"type": "address"
						},
						{
							"internalType": "uint256",
							"name": "tokenId",
							"type": "uint256"
						},
						{
							"internalType": "bytes",
							"name": "_data",
							"type": "bytes"
						}
					],
					"name": "safeTransferFrom",
					"outputs": [],
					"stateMutability": "payable",
					"type": "function"
				},
				{
					"inputs": [
						{
							"internalType": "address",
							"name": "operator",
							"type": "address"
						},
						{
							"internalType": "bool",
							"name": "approved",
							"type": "bool"
						}
					],
					"name": "setApprovalForAll",
					"outputs": [],
					"stateMutability": "nonpayable",
					"type": "function"
				},
				{
					"inputs": [
						{
							"internalType": "bytes4",
							"name": "interfaceId",
							"type": "bytes4"
						}
					],
					"name": "supportsInterface",
					"outputs": [
						{
							"internalType": "bool",
							"name": "",
							"type": "bool"
						}
					],
					"stateMutability": "view",
					"type": "function"
				},
				{
					"inputs": [],
					"name": "symbol",
					"outputs": [
						{
							"internalType": "string",
							"name": "",
							"type": "string"
						}
					],
					"stateMutability": "view",
					"type": "function"
				},
				{
					"inputs": [
						{
							"internalType": "uint256",
							"name": "tokenId",
							"type": "uint256"
						}
					],
					"name": "tokenURI",
					"outputs": [
						{
							"internalType": "string",
							"name": "",
							"type": "string"
						}
					],
					"stateMutability": "view",
					"type": "function"
				},
				{
					"inputs": [],
					"name": "totalSupply",
					"outputs": [
						{
							"internalType": "uint256",
							"name": "",
							"type": "uint256"
						}
					],
					"stateMutability": "view",
					"type": "function"
				},
				{
					"inputs": [
						{
							"internalType": "address",
							"name": "from",
							"type": "address"
						},
						{
							"internalType": "address",
							"name": "to",
							"type": "address"
						},
						{
							"internalType": "uint256",
							"name": "tokenId",
							"type": "uint256"
						}
					],
					"name": "transferFrom",
					"outputs": [],
					"stateMutability": "payable",
					"type": "function"
				},
				{
					"inputs": [
						{
							"internalType": "address",
							"name": "newOwner",
							"type": "address"
						}
					],
					"name": "transferOwnership",
					"outputs": [],
					"stateMutability": "nonpayable",
					"type": "function"
				}
			],
			"devdoc": {
				"events": {
					"Approval(address,address,uint256)": {
						"details": "Emitted when `owner` enables `approved` to manage the `tokenId` token."
					},
					"ApprovalForAll(address,address,bool)": {
						"details": "Emitted when `owner` enables or disables (`approved`) `operator` to manage all of its assets."
					},
					"ConsecutiveTransfer(uint256,uint256,address,address)": {
						"details": "Emitted when tokens in `fromTokenId` to `toTokenId` (inclusive) is transferred from `from` to `to`, as defined in the [ERC2309](https://eips.ethereum.org/EIPS/eip-2309) standard. See {_mintERC2309} for more details."
					},
					"Transfer(address,address,uint256)": {
						"details": "Emitted when `tokenId` token is transferred from `from` to `to`."
					}
				},
				"kind": "dev",
				"methods": {
					"approve(address,uint256)": {
						"details": "Gives permission to `to` to transfer `tokenId` token to another account. See {ERC721A-_approve}. Requirements: - The caller must own the token or be an approved operator."
					},
					"balanceOf(address)": {
						"details": "Returns the number of tokens in `owner`'s account."
					},
					"getApproved(uint256)": {
						"details": "Returns the account approved for `tokenId` token. Requirements: - `tokenId` must exist."
					},
					"isApprovedForAll(address,address)": {
						"details": "Returns if the `operator` is allowed to manage all of the assets of `owner`. See {setApprovalForAll}."
					},
					"name()": {
						"details": "Returns the token collection name."
					},
					"owner()": {
						"details": "Returns the address of the current owner."
					},
					"ownerOf(uint256)": {
						"details": "Returns the owner of the `tokenId` token. Requirements: - `tokenId` must exist."
					},
					"renounceOwnership()": {
						"details": "Leaves the contract without owner. It will not be possible to call `onlyOwner` functions. Can only be called by the current owner. NOTE: Renouncing ownership will leave the contract without an owner, thereby disabling any functionality that is only available to the owner."
					},
					"safeTransferFrom(address,address,uint256)": {
						"details": "Equivalent to `safeTransferFrom(from, to, tokenId, '')`."
					},
					"safeTransferFrom(address,address,uint256,bytes)": {
						"details": "Safely transfers `tokenId` token from `from` to `to`. Requirements: - `from` cannot be the zero address. - `to` cannot be the zero address. - `tokenId` token must exist and be owned by `from`. - If the caller is not `from`, it must be approved to move this token by either {approve} or {setApprovalForAll}. - If `to` refers to a smart contract, it must implement {IERC721Receiver-onERC721Received}, which is called upon a safe transfer. Emits a {Transfer} event."
					},
					"setApprovalForAll(address,bool)": {
						"details": "Approve or remove `operator` as an operator for the caller. Operators can call {transferFrom} or {safeTransferFrom} for any token owned by the caller. Requirements: - The `operator` cannot be the caller. Emits an {ApprovalForAll} event."
					},
					"supportsInterface(bytes4)": {
						"details": "Returns true if this contract implements the interface defined by `interfaceId`. See the corresponding [EIP section](https://eips.ethereum.org/EIPS/eip-165#how-interfaces-are-identified) to learn more about how these ids are created. This function call must use less than 30000 gas."
					},
					"symbol()": {
						"details": "Returns the token collection symbol."
					},
					"tokenURI(uint256)": {
						"details": "Returns the Uniform Resource Identifier (URI) for `tokenId` token."
					},
					"totalSupply()": {
						"details": "Returns the total number of tokens in existence. Burned tokens will reduce the count. To get the total number of tokens minted, please see {_totalMinted}."
					},
					"transferFrom(address,address,uint256)": {
						"details": "Transfers `tokenId` from `from` to `to`. Requirements: - `from` cannot be the zero address. - `to` cannot be the zero address. - `tokenId` token must be owned by `from`. - If the caller is not `from`, it must be approved to move this token by either {approve} or {setApprovalForAll}. Emits a {Transfer} event."
					},
					"transferOwnership(address)": {
						"details": "Transfers ownership of the contract to a new account (`newOwner`). Can only be called by the current owner."
					}
				},
				"version": 1
			},
			"evm": {
				"assembly": "    /* \"erc721atest.sol\":191:858  contract E721A is ERC721A, Ownable {... */\n  mstore(0x40, 0x80)\n    /* \"erc721atest.sol\":233:274  constructor() ERC721A(\"e721a\", \"721a\") {} */\n  callvalue\n  dup1\n  iszero\n  tag_1\n  jumpi\n  0x00\n  dup1\n  revert\ntag_1:\n  pop\n    /* \"https://github.com/chiru-labs/ERC721A/blob/main/contracts/ERC721A.sol\":4946:5100  constructor(string memory name_, string memory symbol_) {... */\n  mload(0x40)\n  dup1\n  0x40\n  add\n  0x40\n  mstore\n  dup1\n  0x05\n  dup2\n  mstore\n  0x20\n  add\n  0x6537323161000000000000000000000000000000000000000000000000000000\n  dup2\n  mstore\n  pop\n  mload(0x40)\n  dup1\n  0x40\n  add\n  0x40\n  mstore\n  dup1\n  0x04\n  dup2\n  mstore\n  0x20\n  add\n  0x3732316100000000000000000000000000000000000000000000000000000000\n  dup2\n  mstore\n  pop\n    /* \"https://github.com/chiru-labs/ERC721A/blob/main/contracts/ERC721A.sol\":5020:5025  name_ */\n  dup2\n    /* \"https://github.com/chiru-labs/ERC721A/blob/main/contracts/ERC721A.sol\":5012:5017  _name */\n  0x02\n    /* \"https://github.com/chiru-labs/ERC721A/blob/main/contracts/ERC721A.sol\":5012:5025  _name = name_ */\n  swap1\n  dup2\n  tag_6\n  swap2\n  swap1\n  tag_7\n  jump\t// in\ntag_6:\n  pop\n    /* \"https://github.com/chiru-labs/ERC721A/blob/main/contracts/ERC721A.sol\":5045:5052  symbol_ */\n  dup1\n    /* \"https://github.com/chiru-labs/ERC721A/blob/main/contracts/ERC721A.sol\":5035:5042  _symbol */\n  0x03\n    /* \"https://github.com/chiru-labs/ERC721A/blob/main/contracts/ERC721A.sol\":5035:5052  _symbol = symbol_ */\n  swap1\n  dup2\n  tag_8\n  swap2\n  swap1\n  tag_7\n  jump\t// in\ntag_8:\n  pop\n    /* \"https://github.com/chiru-labs/ERC721A/blob/main/contracts/ERC721A.sol\":5078:5093  _startTokenId() */\n  tag_9\n    /* \"https://github.com/chiru-labs/ERC721A/blob/main/contracts/ERC721A.sol\":5078:5091  _startTokenId */\n  shl(0x20, tag_10)\n    /* \"https://github.com/chiru-labs/ERC721A/blob/main/contracts/ERC721A.sol\":5078:5093  _startTokenId() */\n  0x20\n  shr\n  jump\t// in\ntag_9:\n    /* \"https://github.com/chiru-labs/ERC721A/blob/main/contracts/ERC721A.sol\":5062:5075  _currentIndex */\n  0x00\n    /* \"https://github.com/chiru-labs/ERC721A/blob/main/contracts/ERC721A.sol\":5062:5093  _currentIndex = _startTokenId() */\n  dup2\n  swap1\n  sstore\n  pop\n    /* \"https://github.com/chiru-labs/ERC721A/blob/main/contracts/ERC721A.sol\":4946:5100  constructor(string memory name_, string memory symbol_) {... */\n  pop\n  pop\n    /* \"@openzeppelin/contracts/access/Ownable.sol\":936:968  _transferOwnership(_msgSender()) */\n  tag_12\n    /* \"@openzeppelin/contracts/access/Ownable.sol\":955:967  _msgSender() */\n  tag_13\n    /* \"@openzeppelin/contracts/access/Ownable.sol\":955:965  _msgSender */\n  shl(0x20, tag_14)\n    /* \"@openzeppelin/contracts/access/Ownable.sol\":955:967  _msgSender() */\n  0x20\n  shr\n  jump\t// in\ntag_13:\n    /* \"@openzeppelin/contracts/access/Ownable.sol\":936:954  _transferOwnership */\n  shl(0x20, tag_15)\n    /* \"@openzeppelin/contracts/access/Ownable.sol\":936:968  _transferOwnership(_msgSender()) */\n  0x20\n  shr\n  jump\t// in\ntag_12:\n    /* \"erc721atest.sol\":191:858  contract E721A is ERC721A, Ownable {... */\n  jump(tag_17)\n    /* \"https://github.com/chiru-labs/ERC721A/blob/main/contracts/ERC721A.sol\":5426:5516  function _startTokenId() internal view virtual returns (uint256) {... */\ntag_10:\n    /* \"https://github.com/chiru-labs/ERC721A/blob/main/contracts/ERC721A.sol\":5482:5489  uint256 */\n  0x00\n    /* \"https://github.com/chiru-labs/ERC721A/blob/main/contracts/ERC721A.sol\":5426:5516  function _startTokenId() internal view virtual returns (uint256) {... */\n  swap1\n  jump\t// out\n    /* \"@openzeppelin/contracts/utils/Context.sol\":640:736  function _msgSender() internal view virtual returns (address) {... */\ntag_14:\n    /* \"@openzeppelin/contracts/utils/Context.sol\":693:700  address */\n  0x00\n    /* \"@openzeppelin/contracts/utils/Context.sol\":719:729  msg.sender */\n  caller\n    /* \"@openzeppelin/contracts/utils/Context.sol\":712:729  return msg.sender */\n  swap1\n  pop\n    /* \"@openzeppelin/contracts/utils/Context.sol\":640:736  function _msgSender() internal view virtual returns (address) {... */\n  swap1\n  jump\t// out\n    /* \"@openzeppelin/contracts/access/Ownable.sol\":2426:2613  function _transferOwnership(address newOwner) internal virtual {... */\ntag_15:\n    /* \"@openzeppelin/contracts/access/Ownable.sol\":2499:2515  address oldOwner */\n  0x00\n    /* \"@openzeppelin/contracts/access/Ownable.sol\":2518:2524  _owner */\n  0x08\n  0x00\n  swap1\n  sload\n  swap1\n  0x0100\n  exp\n  swap1\n  div\n  0xffffffffffffffffffffffffffffffffffffffff\n  and\n    /* \"@openzeppelin/contracts/access/Ownable.sol\":2499:2524  address oldOwner = _owner */\n  swap1\n  pop\n    /* \"@openzeppelin/contracts/access/Ownable.sol\":2543:2551  newOwner */\n  dup2\n    /* \"@openzeppelin/contracts/access/Ownable.sol\":2534:2540  _owner */\n  0x08\n  0x00\n    /* \"@openzeppelin/contracts/access/Ownable.sol\":2534:2551  _owner = newOwner */\n  0x0100\n  exp\n  dup2\n  sload\n  dup2\n  0xffffffffffffffffffffffffffffffffffffffff\n  mul\n  not\n  and\n  swap1\n  dup4\n  0xffffffffffffffffffffffffffffffffffffffff\n  and\n  mul\n  or\n  swap1\n  sstore\n  pop\n    /* \"@openzeppelin/contracts/access/Ownable.sol\":2597:2605  newOwner */\n  dup2\n    /* \"@openzeppelin/contracts/access/Ownable.sol\":2566:2606  OwnershipTransferred(oldOwner, newOwner) */\n  0xffffffffffffffffffffffffffffffffffffffff\n  and\n    /* \"@openzeppelin/contracts/access/Ownable.sol\":2587:2595  oldOwner */\n  dup2\n    /* \"@openzeppelin/contracts/access/Ownable.sol\":2566:2606  OwnershipTransferred(oldOwner, newOwner) */\n  0xffffffffffffffffffffffffffffffffffffffff\n  and\n  0x8be0079c531659141344cd1fd0a4f28419497f9722a3daafe3b4186f6b6457e0\n  mload(0x40)\n  mload(0x40)\n  dup1\n  swap2\n  sub\n  swap1\n  log3\n    /* \"@openzeppelin/contracts/access/Ownable.sol\":2489:2613  {... */\n  pop\n    /* \"@openzeppelin/contracts/access/Ownable.sol\":2426:2613  function _transferOwnership(address newOwner) internal virtual {... */\n  pop\n  jump\t// out\n    /* \"#utility.yul\":7:106   */\ntag_21:\n    /* \"#utility.yul\":59:65   */\n  0x00\n    /* \"#utility.yul\":93:98   */\n  dup2\n    /* \"#utility.yul\":87:99   */\n  mload\n    /* \"#utility.yul\":77:99   */\n  swap1\n  pop\n    /* \"#utility.yul\":7:106   */\n  swap2\n  swap1\n  pop\n  jump\t// out\n    /* \"#utility.yul\":112:292   */\ntag_22:\n    /* \"#utility.yul\":160:237   */\n  0x4e487b7100000000000000000000000000000000000000000000000000000000\n    /* \"#utility.yul\":157:158   */\n  0x00\n    /* \"#utility.yul\":150:238   */\n  mstore\n    /* \"#utility.yul\":257:261   */\n  0x41\n    /* \"#utility.yul\":254:255   */\n  0x04\n    /* \"#utility.yul\":247:262   */\n  mstore\n    /* \"#utility.yul\":281:285   */\n  0x24\n    /* \"#utility.yul\":278:279   */\n  0x00\n    /* \"#utility.yul\":271:286   */\n  revert\n    /* \"#utility.yul\":298:478   */\ntag_23:\n    /* \"#utility.yul\":346:423   */\n  0x4e487b7100000000000000000000000000000000000000000000000000000000\n    /* \"#utility.yul\":343:344   */\n  0x00\n    /* \"#utility.yul\":336:424   */\n  mstore\n    /* \"#utility.yul\":443:447   */\n  0x22\n    /* \"#utility.yul\":440:441   */\n  0x04\n    /* \"#utility.yul\":433:448   */\n  mstore\n    /* \"#utility.yul\":467:471   */\n  0x24\n    /* \"#utility.yul\":464:465   */\n  0x00\n    /* \"#utility.yul\":457:472   */\n  revert\n    /* \"#utility.yul\":484:804   */\ntag_24:\n    /* \"#utility.yul\":528:534   */\n  0x00\n    /* \"#utility.yul\":565:566   */\n  0x02\n    /* \"#utility.yul\":559:563   */\n  dup3\n    /* \"#utility.yul\":555:567   */\n  div\n    /* \"#utility.yul\":545:567   */\n  swap1\n  pop\n    /* \"#utility.yul\":612:613   */\n  0x01\n    /* \"#utility.yul\":606:610   */\n  dup3\n    /* \"#utility.yul\":602:614   */\n  and\n    /* \"#utility.yul\":633:651   */\n  dup1\n    /* \"#utility.yul\":623:704   */\n  tag_46\n  jumpi\n    /* \"#utility.yul\":689:693   */\n  0x7f\n    /* \"#utility.yul\":681:687   */\n  dup3\n    /* \"#utility.yul\":677:694   */\n  and\n    /* \"#utility.yul\":667:694   */\n  swap2\n  pop\n    /* \"#utility.yul\":623:704   */\ntag_46:\n    /* \"#utility.yul\":751:753   */\n  0x20\n    /* \"#utility.yul\":743:749   */\n  dup3\n    /* \"#utility.yul\":740:754   */\n  lt\n    /* \"#utility.yul\":720:738   */\n  dup2\n    /* \"#utility.yul\":717:755   */\n  sub\n    /* \"#utility.yul\":714:798   */\n  tag_47\n  jumpi\n    /* \"#utility.yul\":770:788   */\n  tag_48\n  tag_23\n  jump\t// in\ntag_48:\n    /* \"#utility.yul\":714:798   */\ntag_47:\n    /* \"#utility.yul\":535:804   */\n  pop\n    /* \"#utility.yul\":484:804   */\n  swap2\n  swap1\n  pop\n  jump\t// out\n    /* \"#utility.yul\":810:951   */\ntag_25:\n    /* \"#utility.yul\":859:863   */\n  0x00\n    /* \"#utility.yul\":882:885   */\n  dup2\n    /* \"#utility.yul\":874:885   */\n  swap1\n  pop\n    /* \"#utility.yul\":905:908   */\n  dup2\n    /* \"#utility.yul\":902:903   */\n  0x00\n    /* \"#utility.yul\":895:909   */\n  mstore\n    /* \"#utility.yul\":939:943   */\n  0x20\n    /* \"#utility.yul\":936:937   */\n  0x00\n    /* \"#utility.yul\":926:944   */\n  keccak256\n    /* \"#utility.yul\":918:944   */\n  swap1\n  pop\n    /* \"#utility.yul\":810:951   */\n  swap2\n  swap1\n  pop\n  jump\t// out\n    /* \"#utility.yul\":957:1050   */\ntag_26:\n    /* \"#utility.yul\":994:1000   */\n  0x00\n    /* \"#utility.yul\":1041:1043   */\n  0x20\n    /* \"#utility.yul\":1036:1038   */\n  0x1f\n    /* \"#utility.yul\":1029:1034   */\n  dup4\n    /* \"#utility.yul\":1025:1039   */\n  add\n    /* \"#utility.yul\":1021:1044   */\n  div\n    /* \"#utility.yul\":1011:1044   */\n  swap1\n  pop\n    /* \"#utility.yul\":957:1050   */\n  swap2\n  swap1\n  pop\n  jump\t// out\n    /* \"#utility.yul\":1056:1163   */\ntag_27:\n    /* \"#utility.yul\":1100:1108   */\n  0x00\n    /* \"#utility.yul\":1150:1155   */\n  dup3\n    /* \"#utility.yul\":1144:1148   */\n  dup3\n    /* \"#utility.yul\":1140:1156   */\n  shl\n    /* \"#utility.yul\":1119:1156   */\n  swap1\n  pop\n    /* \"#utility.yul\":1056:1163   */\n  swap3\n  swap2\n  pop\n  pop\n  jump\t// out\n    /* \"#utility.yul\":1169:1562   */\ntag_28:\n    /* \"#utility.yul\":1238:1244   */\n  0x00\n    /* \"#utility.yul\":1288:1289   */\n  0x08\n    /* \"#utility.yul\":1276:1286   */\n  dup4\n    /* \"#utility.yul\":1272:1290   */\n  mul\n    /* \"#utility.yul\":1311:1408   */\n  tag_53\n    /* \"#utility.yul\":1341:1407   */\n  0xffffffffffffffffffffffffffffffffffffffffffffffffffffffffffffffff\n    /* \"#utility.yul\":1330:1339   */\n  dup3\n    /* \"#utility.yul\":1311:1408   */\n  tag_27\n  jump\t// in\ntag_53:\n    /* \"#utility.yul\":1429:1468   */\n  tag_54\n    /* \"#utility.yul\":1459:1467   */\n  dup7\n    /* \"#utility.yul\":1448:1457   */\n  dup4\n    /* \"#utility.yul\":1429:1468   */\n  tag_27\n  jump\t// in\ntag_54:\n    /* \"#utility.yul\":1417:1468   */\n  swap6\n  pop\n    /* \"#utility.yul\":1501:1505   */\n  dup1\n    /* \"#utility.yul\":1497:1506   */\n  not\n    /* \"#utility.yul\":1490:1495   */\n  dup5\n    /* \"#utility.yul\":1486:1507   */\n  and\n    /* \"#utility.yul\":1477:1507   */\n  swap4\n  pop\n    /* \"#utility.yul\":1550:1554   */\n  dup1\n    /* \"#utility.yul\":1540:1548   */\n  dup7\n    /* \"#utility.yul\":1536:1555   */\n  and\n    /* \"#utility.yul\":1529:1534   */\n  dup5\n    /* \"#utility.yul\":1526:1556   */\n  or\n    /* \"#utility.yul\":1516:1556   */\n  swap3\n  pop\n    /* \"#utility.yul\":1245:1562   */\n  pop\n  pop\n    /* \"#utility.yul\":1169:1562   */\n  swap4\n  swap3\n  pop\n  pop\n  pop\n  jump\t// out\n    /* \"#utility.yul\":1568:1645   */\ntag_29:\n    /* \"#utility.yul\":1605:1612   */\n  0x00\n    /* \"#utility.yul\":1634:1639   */\n  dup2\n    /* \"#utility.yul\":1623:1639   */\n  swap1\n  pop\n    /* \"#utility.yul\":1568:1645   */\n  swap2\n  swap1\n  pop\n  jump\t// out\n    /* \"#utility.yul\":1651:1711   */\ntag_30:\n    /* \"#utility.yul\":1679:1682   */\n  0x00\n    /* \"#utility.yul\":1700:1705   */\n  dup2\n    /* \"#utility.yul\":1693:1705   */\n  swap1\n  pop\n    /* \"#utility.yul\":1651:1711   */\n  swap2\n  swap1\n  pop\n  jump\t// out\n    /* \"#utility.yul\":1717:1859   */\ntag_31:\n    /* \"#utility.yul\":1767:1776   */\n  0x00\n    /* \"#utility.yul\":1800:1853   */\n  tag_58\n    /* \"#utility.yul\":1818:1852   */\n  tag_59\n    /* \"#utility.yul\":1827:1851   */\n  tag_60\n    /* \"#utility.yul\":1845:1850   */\n  dup5\n    /* \"#utility.yul\":1827:1851   */\n  tag_29\n  jump\t// in\ntag_60:\n    /* \"#utility.yul\":1818:1852   */\n  tag_30\n  jump\t// in\ntag_59:\n    /* \"#utility.yul\":1800:1853   */\n  tag_29\n  jump\t// in\ntag_58:\n    /* \"#utility.yul\":1787:1853   */\n  swap1\n  pop\n    /* \"#utility.yul\":1717:1859   */\n  swap2\n  swap1\n  pop\n  jump\t// out\n    /* \"#utility.yul\":1865:1940   */\ntag_32:\n    /* \"#utility.yul\":1908:1911   */\n  0x00\n    /* \"#utility.yul\":1929:1934   */\n  dup2\n    /* \"#utility.yul\":1922:1934   */\n  swap1\n  pop\n    /* \"#utility.yul\":1865:1940   */\n  swap2\n  swap1\n  pop\n  jump\t// out\n    /* \"#utility.yul\":1946:2215   */\ntag_33:\n    /* \"#utility.yul\":2056:2095   */\n  tag_63\n    /* \"#utility.yul\":2087:2094   */\n  dup4\n    /* \"#utility.yul\":2056:2095   */\n  tag_31\n  jump\t// in\ntag_63:\n    /* \"#utility.yul\":2117:2208   */\n  tag_64\n    /* \"#utility.yul\":2166:2207   */\n  tag_65\n    /* \"#utility.yul\":2190:2206   */\n  dup3\n    /* \"#utility.yul\":2166:2207   */\n  tag_32\n  jump\t// in\ntag_65:\n    /* \"#utility.yul\":2158:2164   */\n  dup5\n    /* \"#utility.yul\":2151:2155   */\n  dup5\n    /* \"#utility.yul\":2145:2156   */\n  sload\n    /* \"#utility.yul\":2117:2208   */\n  tag_28\n  jump\t// in\ntag_64:\n    /* \"#utility.yul\":2111:2115   */\n  dup3\n    /* \"#utility.yul\":2104:2209   */\n  sstore\n    /* \"#utility.yul\":2022:2215   */\n  pop\n    /* \"#utility.yul\":1946:2215   */\n  pop\n  pop\n  pop\n  jump\t// out\n    /* \"#utility.yul\":2221:2294   */\ntag_34:\n    /* \"#utility.yul\":2266:2269   */\n  0x00\n    /* \"#utility.yul\":2221:2294   */\n  swap1\n  jump\t// out\n    /* \"#utility.yul\":2300:2489   */\ntag_35:\n    /* \"#utility.yul\":2377:2409   */\n  tag_68\n  tag_34\n  jump\t// in\ntag_68:\n    /* \"#utility.yul\":2418:2483   */\n  tag_69\n    /* \"#utility.yul\":2476:2482   */\n  dup2\n    /* \"#utility.yul\":2468:2474   */\n  dup5\n    /* \"#utility.yul\":2462:2466   */\n  dup5\n    /* \"#utility.yul\":2418:2483   */\n  tag_33\n  jump\t// in\ntag_69:\n    /* \"#utility.yul\":2353:2489   */\n  pop\n    /* \"#utility.yul\":2300:2489   */\n  pop\n  pop\n  jump\t// out\n    /* \"#utility.yul\":2495:2681   */\ntag_36:\n    /* \"#utility.yul\":2555:2675   */\ntag_71:\n    /* \"#utility.yul\":2572:2575   */\n  dup2\n    /* \"#utility.yul\":2565:2570   */\n  dup2\n    /* \"#utility.yul\":2562:2576   */\n  lt\n    /* \"#utility.yul\":2555:2675   */\n  iszero\n  tag_73\n  jumpi\n    /* \"#utility.yul\":2626:2665   */\n  tag_74\n    /* \"#utility.yul\":2663:2664   */\n  0x00\n    /* \"#utility.yul\":2656:2661   */\n  dup3\n    /* \"#utility.yul\":2626:2665   */\n  tag_35\n  jump\t// in\ntag_74:\n    /* \"#utility.yul\":2599:2600   */\n  0x01\n    /* \"#utility.yul\":2592:2597   */\n  dup2\n    /* \"#utility.yul\":2588:2601   */\n  add\n    /* \"#utility.yul\":2579:2601   */\n  swap1\n  pop\n    /* \"#utility.yul\":2555:2675   */\n  jump(tag_71)\ntag_73:\n    /* \"#utility.yul\":2495:2681   */\n  pop\n  pop\n  jump\t// out\n    /* \"#utility.yul\":2687:3230   */\ntag_37:\n    /* \"#utility.yul\":2788:2790   */\n  0x1f\n    /* \"#utility.yul\":2783:2786   */\n  dup3\n    /* \"#utility.yul\":2780:2791   */\n  gt\n    /* \"#utility.yul\":2777:3223   */\n  iszero\n  tag_76\n  jumpi\n    /* \"#utility.yul\":2822:2860   */\n  tag_77\n    /* \"#utility.yul\":2854:2859   */\n  dup2\n    /* \"#utility.yul\":2822:2860   */\n  tag_25\n  jump\t// in\ntag_77:\n    /* \"#utility.yul\":2906:2935   */\n  tag_78\n    /* \"#utility.yul\":2924:2934   */\n  dup5\n    /* \"#utility.yul\":2906:2935   */\n  tag_26\n  jump\t// in\ntag_78:\n    /* \"#utility.yul\":2896:2904   */\n  dup2\n    /* \"#utility.yul\":2892:2936   */\n  add\n    /* \"#utility.yul\":3089:3091   */\n  0x20\n    /* \"#utility.yul\":3077:3087   */\n  dup6\n    /* \"#utility.yul\":3074:3092   */\n  lt\n    /* \"#utility.yul\":3071:3120   */\n  iszero\n  tag_79\n  jumpi\n    /* \"#utility.yul\":3110:3118   */\n  dup2\n    /* \"#utility.yul\":3095:3118   */\n  swap1\n  pop\n    /* \"#utility.yul\":3071:3120   */\ntag_79:\n    /* \"#utility.yul\":3133:3213   */\n  tag_80\n    /* \"#utility.yul\":3189:3211   */\n  tag_81\n    /* \"#utility.yul\":3207:3210   */\n  dup6\n    /* \"#utility.yul\":3189:3211   */\n  tag_26\n  jump\t// in\ntag_81:\n    /* \"#utility.yul\":3179:3187   */\n  dup4\n    /* \"#utility.yul\":3175:3212   */\n  add\n    /* \"#utility.yul\":3162:3173   */\n  dup3\n    /* \"#utility.yul\":3133:3213   */\n  tag_36\n  jump\t// in\ntag_80:\n    /* \"#utility.yul\":2792:3223   */\n  pop\n  pop\n    /* \"#utility.yul\":2777:3223   */\ntag_76:\n    /* \"#utility.yul\":2687:3230   */\n  pop\n  pop\n  pop\n  jump\t// out\n    /* \"#utility.yul\":3236:3353   */\ntag_38:\n    /* \"#utility.yul\":3290:3298   */\n  0x00\n    /* \"#utility.yul\":3340:3345   */\n  dup3\n    /* \"#utility.yul\":3334:3338   */\n  dup3\n    /* \"#utility.yul\":3330:3346   */\n  shr\n    /* \"#utility.yul\":3309:3346   */\n  swap1\n  pop\n    /* \"#utility.yul\":3236:3353   */\n  swap3\n  swap2\n  pop\n  pop\n  jump\t// out\n    /* \"#utility.yul\":3359:3528   */\ntag_39:\n    /* \"#utility.yul\":3403:3409   */\n  0x00\n    /* \"#utility.yul\":3436:3487   */\n  tag_84\n    /* \"#utility.yul\":3484:3485   */\n  0x00\n    /* \"#utility.yul\":3480:3486   */\n  not\n    /* \"#utility.yul\":3472:3477   */\n  dup5\n    /* \"#utility.yul\":3469:3470   */\n  0x08\n    /* \"#utility.yul\":3465:3478   */\n  mul\n    /* \"#utility.yul\":3436:3487   */\n  tag_38\n  jump\t// in\ntag_84:\n    /* \"#utility.yul\":3432:3488   */\n  not\n    /* \"#utility.yul\":3517:3521   */\n  dup1\n    /* \"#utility.yul\":3511:3515   */\n  dup4\n    /* \"#utility.yul\":3507:3522   */\n  and\n    /* \"#utility.yul\":3497:3522   */\n  swap2\n  pop\n    /* \"#utility.yul\":3410:3528   */\n  pop\n    /* \"#utility.yul\":3359:3528   */\n  swap3\n  swap2\n  pop\n  pop\n  jump\t// out\n    /* \"#utility.yul\":3533:3828   */\ntag_40:\n    /* \"#utility.yul\":3609:3613   */\n  0x00\n    /* \"#utility.yul\":3755:3784   */\n  tag_86\n    /* \"#utility.yul\":3780:3783   */\n  dup4\n    /* \"#utility.yul\":3774:3778   */\n  dup4\n    /* \"#utility.yul\":3755:3784   */\n  tag_39\n  jump\t// in\ntag_86:\n    /* \"#utility.yul\":3747:3784   */\n  swap2\n  pop\n    /* \"#utility.yul\":3817:3820   */\n  dup3\n    /* \"#utility.yul\":3814:3815   */\n  0x02\n    /* \"#utility.yul\":3810:3821   */\n  mul\n    /* \"#utility.yul\":3804:3808   */\n  dup3\n    /* \"#utility.yul\":3801:3822   */\n  or\n    /* \"#utility.yul\":3793:3822   */\n  swap1\n  pop\n    /* \"#utility.yul\":3533:3828   */\n  swap3\n  swap2\n  pop\n  pop\n  jump\t// out\n    /* \"#utility.yul\":3833:5228   */\ntag_7:\n    /* \"#utility.yul\":3950:3987   */\n  tag_88\n    /* \"#utility.yul\":3983:3986   */\n  dup3\n    /* \"#utility.yul\":3950:3987   */\n  tag_21\n  jump\t// in\ntag_88:\n    /* \"#utility.yul\":4052:4070   */\n  0xffffffffffffffff\n    /* \"#utility.yul\":4044:4050   */\n  dup2\n    /* \"#utility.yul\":4041:4071   */\n  gt\n    /* \"#utility.yul\":4038:4094   */\n  iszero\n  tag_89\n  jumpi\n    /* \"#utility.yul\":4074:4092   */\n  tag_90\n  tag_22\n  jump\t// in\ntag_90:\n    /* \"#utility.yul\":4038:4094   */\ntag_89:\n    /* \"#utility.yul\":4118:4156   */\n  tag_91\n    /* \"#utility.yul\":4150:4154   */\n  dup3\n    /* \"#utility.yul\":4144:4155   */\n  sload\n    /* \"#utility.yul\":4118:4156   */\n  tag_24\n  jump\t// in\ntag_91:\n    /* \"#utility.yul\":4203:4270   */\n  tag_92\n    /* \"#utility.yul\":4263:4269   */\n  dup3\n    /* \"#utility.yul\":4255:4261   */\n  dup3\n    /* \"#utility.yul\":4249:4253   */\n  dup6\n    /* \"#utility.yul\":4203:4270   */\n  tag_37\n  jump\t// in\ntag_92:\n    /* \"#utility.yul\":4297:4298   */\n  0x00\n    /* \"#utility.yul\":4321:4325   */\n  0x20\n    /* \"#utility.yul\":4308:4325   */\n  swap1\n  pop\n    /* \"#utility.yul\":4353:4355   */\n  0x1f\n    /* \"#utility.yul\":4345:4351   */\n  dup4\n    /* \"#utility.yul\":4342:4356   */\n  gt\n    /* \"#utility.yul\":4370:4371   */\n  0x01\n    /* \"#utility.yul\":4365:4983   */\n  dup2\n  eq\n  tag_94\n  jumpi\n    /* \"#utility.yul\":5027:5028   */\n  0x00\n    /* \"#utility.yul\":5044:5050   */\n  dup5\n    /* \"#utility.yul\":5041:5118   */\n  iszero\n  tag_95\n  jumpi\n    /* \"#utility.yul\":5093:5102   */\n  dup3\n    /* \"#utility.yul\":5088:5091   */\n  dup8\n    /* \"#utility.yul\":5084:5103   */\n  add\n    /* \"#utility.yul\":5078:5104   */\n  mload\n    /* \"#utility.yul\":5069:5104   */\n  swap1\n  pop\n    /* \"#utility.yul\":5041:5118   */\ntag_95:\n    /* \"#utility.yul\":5144:5211   */\n  tag_96\n    /* \"#utility.yul\":5204:5210   */\n  dup6\n    /* \"#utility.yul\":5197:5202   */\n  dup3\n    /* \"#utility.yul\":5144:5211   */\n  tag_40\n  jump\t// in\ntag_96:\n    /* \"#utility.yul\":5138:5142   */\n  dup7\n    /* \"#utility.yul\":5131:5212   */\n  sstore\n    /* \"#utility.yul\":5000:5222   */\n  pop\n    /* \"#utility.yul\":4335:5222   */\n  jump(tag_93)\n    /* \"#utility.yul\":4365:4983   */\ntag_94:\n    /* \"#utility.yul\":4417:4421   */\n  0x1f\n    /* \"#utility.yul\":4413:4422   */\n  not\n    /* \"#utility.yul\":4405:4411   */\n  dup5\n    /* \"#utility.yul\":4401:4423   */\n  and\n    /* \"#utility.yul\":4451:4488   */\n  tag_97\n    /* \"#utility.yul\":4483:4487   */\n  dup7\n    /* \"#utility.yul\":4451:4488   */\n  tag_25\n  jump\t// in\ntag_97:\n    /* \"#utility.yul\":4510:4511   */\n  0x00\n    /* \"#utility.yul\":4524:4732   */\ntag_98:\n    /* \"#utility.yul\":4538:4545   */\n  dup3\n    /* \"#utility.yul\":4535:4536   */\n  dup2\n    /* \"#utility.yul\":4532:4546   */\n  lt\n    /* \"#utility.yul\":4524:4732   */\n  iszero\n  tag_100\n  jumpi\n    /* \"#utility.yul\":4617:4626   */\n  dup5\n    /* \"#utility.yul\":4612:4615   */\n  dup10\n    /* \"#utility.yul\":4608:4627   */\n  add\n    /* \"#utility.yul\":4602:4628   */\n  mload\n    /* \"#utility.yul\":4594:4600   */\n  dup3\n    /* \"#utility.yul\":4587:4629   */\n  sstore\n    /* \"#utility.yul\":4668:4669   */\n  0x01\n    /* \"#utility.yul\":4660:4666   */\n  dup3\n    /* \"#utility.yul\":4656:4670   */\n  add\n    /* \"#utility.yul\":4646:4670   */\n  swap2\n  pop\n    /* \"#utility.yul\":4715:4717   */\n  0x20\n    /* \"#utility.yul\":4704:4713   */\n  dup6\n    /* \"#utility.yul\":4700:4718   */\n  add\n    /* \"#utility.yul\":4687:4718   */\n  swap5\n  pop\n    /* \"#utility.yul\":4561:4565   */\n  0x20\n    /* \"#utility.yul\":4558:4559   */\n  dup2\n    /* \"#utility.yul\":4554:4566   */\n  add\n    /* \"#utility.yul\":4549:4566   */\n  swap1\n  pop\n    /* \"#utility.yul\":4524:4732   */\n  jump(tag_98)\ntag_100:\n    /* \"#utility.yul\":4760:4766   */\n  dup7\n    /* \"#utility.yul\":4751:4758   */\n  dup4\n    /* \"#utility.yul\":4748:4767   */\n  lt\n    /* \"#utility.yul\":4745:4924   */\n  iszero\n  tag_101\n  jumpi\n    /* \"#utility.yul\":4818:4827   */\n  dup5\n    /* \"#utility.yul\":4813:4816   */\n  dup10\n    /* \"#utility.yul\":4809:4828   */\n  add\n    /* \"#utility.yul\":4803:4829   */\n  mload\n    /* \"#utility.yul\":4861:4909   */\n  tag_102\n    /* \"#utility.yul\":4903:4907   */\n  0x1f\n    /* \"#utility.yul\":4895:4901   */\n  dup10\n    /* \"#utility.yul\":4891:4908   */\n  and\n    /* \"#utility.yul\":4880:4889   */\n  dup3\n    /* \"#utility.yul\":4861:4909   */\n  tag_39\n  jump\t// in\ntag_102:\n    /* \"#utility.yul\":4853:4859   */\n  dup4\n    /* \"#utility.yul\":4846:4910   */\n  sstore\n    /* \"#utility.yul\":4768:4924   */\n  pop\n    /* \"#utility.yul\":4745:4924   */\ntag_101:\n    /* \"#utility.yul\":4970:4971   */\n  0x01\n    /* \"#utility.yul\":4966:4967   */\n  0x02\n    /* \"#utility.yul\":4958:4964   */\n  dup9\n    /* \"#utility.yul\":4954:4968   */\n  mul\n    /* \"#utility.yul\":4950:4972   */\n  add\n    /* \"#utility.yul\":4944:4948   */\n  dup9\n    /* \"#utility.yul\":4937:4973   */\n  sstore\n    /* \"#utility.yul\":4372:4983   */\n  pop\n  pop\n  pop\n    /* \"#utility.yul\":4335:5222   */\ntag_93:\n  pop\n    /* \"#utility.yul\":3925:5228   */\n  pop\n  pop\n  pop\n    /* \"#utility.yul\":3833:5228   */\n  pop\n  pop\n  jump\t// out\n    /* \"erc721atest.sol\":191:858  contract E721A is ERC721A, Ownable {... */\ntag_17:\n  dataSize(sub_0)\n  dup1\n  dataOffset(sub_0)\n  0x00\n  codecopy\n  0x00\n  return\nstop\n\nsub_0: assembly {\n        /* \"erc721atest.sol\":191:858  contract E721A is ERC721A, Ownable {... */\n      mstore(0x40, 0x80)\n      jumpi(tag_1, lt(calldatasize, 0x04))\n      shr(0xe0, calldataload(0x00))\n      dup1\n      0x70a08231\n      gt\n      tag_20\n      jumpi\n      dup1\n      0xa22cb465\n      gt\n      tag_21\n      jumpi\n      dup1\n      0xa22cb465\n      eq\n      tag_15\n      jumpi\n      dup1\n      0xb88d4fde\n      eq\n      tag_16\n      jumpi\n      dup1\n      0xc87b56dd\n      eq\n      tag_17\n      jumpi\n      dup1\n      0xe985e9c5\n      eq\n      tag_18\n      jumpi\n      dup1\n      0xf2fde38b\n      eq\n      tag_19\n      jumpi\n      jump(tag_1)\n    tag_21:\n      dup1\n      0x70a08231\n      eq\n      tag_11\n      jumpi\n      dup1\n      0x715018a6\n      eq\n      tag_12\n      jumpi\n      dup1\n      0x8da5cb5b\n      eq\n      tag_13\n      jumpi\n      dup1\n      0x95d89b41\n      eq\n      tag_14\n      jumpi\n      jump(tag_1)\n    tag_20:\n      dup1\n      0x095ea7b3\n      gt\n      tag_22\n      jumpi\n      dup1\n      0x095ea7b3\n      eq\n      tag_6\n      jumpi\n      dup1\n      0x18160ddd\n      eq\n      tag_7\n      jumpi\n      dup1\n      0x23b872dd\n      eq\n      tag_8\n      jumpi\n      dup1\n      0x42842e0e\n      eq\n      tag_9\n      jumpi\n      dup1\n      0x6352211e\n      eq\n      tag_10\n      jumpi\n      jump(tag_1)\n    tag_22:\n      dup1\n      0x01ffc9a7\n      eq\n      tag_2\n      jumpi\n      dup1\n      0x06fdde03\n      eq\n      tag_3\n      jumpi\n      dup1\n      0x07883703\n      eq\n      tag_4\n      jumpi\n      dup1\n      0x081812fc\n      eq\n      tag_5\n      jumpi\n    tag_1:\n      0x00\n      dup1\n      revert\n        /* \"https://github.com/chiru-labs/ERC721A/blob/main/contracts/ERC721A.sol\":9164:9794  function supportsInterface(bytes4 interfaceId) public view virtual override returns (bool) {... */\n    tag_2:\n      callvalue\n      dup1\n      iszero\n      tag_23\n      jumpi\n      0x00\n      dup1\n      revert\n    tag_23:\n      pop\n      tag_24\n      0x04\n      dup1\n      calldatasize\n      sub\n      dup2\n      add\n      swap1\n      tag_25\n      swap2\n      swap1\n      tag_26\n      jump\t// in\n    tag_25:\n      tag_27\n      jump\t// in\n    tag_24:\n      mload(0x40)\n      tag_28\n      swap2\n      swap1\n      tag_29\n      jump\t// in\n    tag_28:\n      mload(0x40)\n      dup1\n      swap2\n      sub\n      swap1\n      return\n        /* \"https://github.com/chiru-labs/ERC721A/blob/main/contracts/ERC721A.sol\":10048:10146  function name() public view virtual override returns (string memory) {... */\n    tag_3:\n      callvalue\n      dup1\n      iszero\n      tag_30\n      jumpi\n      0x00\n      dup1\n      revert\n    tag_30:\n      pop\n      tag_31\n      tag_32\n      jump\t// in\n    tag_31:\n      mload(0x40)\n      tag_33\n      swap2\n      swap1\n      tag_34\n      jump\t// in\n    tag_33:\n      mload(0x40)\n      dup1\n      swap2\n      sub\n      swap1\n      return\n        /* \"erc721atest.sol\":433:517  function Mint(uint n) public onlyOwner ... */\n    tag_4:\n      callvalue\n      dup1\n      iszero\n      tag_35\n      jumpi\n      0x00\n      dup1\n      revert\n    tag_35:\n      pop\n      tag_36\n      0x04\n      dup1\n      calldatasize\n      sub\n      dup2\n      add\n      swap1\n      tag_37\n      swap2\n      swap1\n      tag_38\n      jump\t// in\n    tag_37:\n      tag_39\n      jump\t// in\n    tag_36:\n      stop\n        /* \"https://github.com/chiru-labs/ERC721A/blob/main/contracts/ERC721A.sol\":16911:17134  function getApproved(uint256 tokenId) public view virtual override returns (address) {... */\n    tag_5:\n      callvalue\n      dup1\n      iszero\n      tag_40\n      jumpi\n      0x00\n      dup1\n      revert\n    tag_40:\n      pop\n      tag_41\n      0x04\n      dup1\n      calldatasize\n      sub\n      dup2\n      add\n      swap1\n      tag_42\n      swap2\n      swap1\n      tag_38\n      jump\t// in\n    tag_42:\n      tag_43\n      jump\t// in\n    tag_41:\n      mload(0x40)\n      tag_44\n      swap2\n      swap1\n      tag_45\n      jump\t// in\n    tag_44:\n      mload(0x40)\n      dup1\n      swap2\n      sub\n      swap1\n      return\n        /* \"https://github.com/chiru-labs/ERC721A/blob/main/contracts/ERC721A.sol\":16639:16761  function approve(address to, uint256 tokenId) public payable virtual override {... */\n    tag_6:\n      tag_46\n      0x04\n      dup1\n      calldatasize\n      sub\n      dup2\n      add\n      swap1\n      tag_47\n      swap2\n      swap1\n      tag_48\n      jump\t// in\n    tag_47:\n      tag_49\n      jump\t// in\n    tag_46:\n      stop\n        /* \"https://github.com/chiru-labs/ERC721A/blob/main/contracts/ERC721A.sol\":5894:6211  function totalSupply() public view virtual override returns (uint256) {... */\n    tag_7:\n      callvalue\n      dup1\n      iszero\n      tag_50\n      jumpi\n      0x00\n      dup1\n      revert\n    tag_50:\n      pop\n      tag_51\n      tag_52\n      jump\t// in\n    tag_51:\n      mload(0x40)\n      tag_53\n      swap2\n      swap1\n      tag_54\n      jump\t// in\n    tag_53:\n      mload(0x40)\n      dup1\n      swap2\n      sub\n      swap1\n      return\n        /* \"https://github.com/chiru-labs/ERC721A/blob/main/contracts/ERC721A.sol\":20546:23993  function transferFrom(... */\n    tag_8:\n      tag_55\n      0x04\n      dup1\n      calldatasize\n      sub\n      dup2\n      add\n      swap1\n      tag_56\n      swap2\n      swap1\n      tag_57\n      jump\t// in\n    tag_56:\n      tag_58\n      jump\t// in\n    tag_55:\n      stop\n        /* \"https://github.com/chiru-labs/ERC721A/blob/main/contracts/ERC721A.sol\":24084:24271  function safeTransferFrom(... */\n    tag_9:\n      tag_59\n      0x04\n      dup1\n      calldatasize\n      sub\n      dup2\n      add\n      swap1\n      tag_60\n      swap2\n      swap1\n      tag_57\n      jump\t// in\n    tag_60:\n      tag_61\n      jump\t// in\n    tag_59:\n      stop\n        /* \"https://github.com/chiru-labs/ERC721A/blob/main/contracts/ERC721A.sol\":11409:11559  function ownerOf(uint256 tokenId) public view virtual override returns (address) {... */\n    tag_10:\n      callvalue\n      dup1\n      iszero\n      tag_62\n      jumpi\n      0x00\n      dup1\n      revert\n    tag_62:\n      pop\n      tag_63\n      0x04\n      dup1\n      calldatasize\n      sub\n      dup2\n      add\n      swap1\n      tag_64\n      swap2\n      swap1\n      tag_38\n      jump\t// in\n    tag_64:\n      tag_65\n      jump\t// in\n    tag_63:\n      mload(0x40)\n      tag_66\n      swap2\n      swap1\n      tag_45\n      jump\t// in\n    tag_66:\n      mload(0x40)\n      dup1\n      swap2\n      sub\n      swap1\n      return\n        /* \"https://github.com/chiru-labs/ERC721A/blob/main/contracts/ERC721A.sol\":7045:7284  function balanceOf(address owner) public view virtual override returns (uint256) {... */\n    tag_11:\n      callvalue\n      dup1\n      iszero\n      tag_67\n      jumpi\n      0x00\n      dup1\n      revert\n    tag_67:\n      pop\n      tag_68\n      0x04\n      dup1\n      calldatasize\n      sub\n      dup2\n      add\n      swap1\n      tag_69\n      swap2\n      swap1\n      tag_70\n      jump\t// in\n    tag_69:\n      tag_71\n      jump\t// in\n    tag_68:\n      mload(0x40)\n      tag_72\n      swap2\n      swap1\n      tag_54\n      jump\t// in\n    tag_72:\n      mload(0x40)\n      dup1\n      swap2\n      sub\n      swap1\n      return\n        /* \"@openzeppelin/contracts/access/Ownable.sol\":1824:1925  function renounceOwnership() public virtual onlyOwner {... */\n    tag_12:\n      callvalue\n      dup1\n      iszero\n      tag_73\n      jumpi\n      0x00\n      dup1\n      revert\n    tag_73:\n      pop\n      tag_74\n      tag_75\n      jump\t// in\n    tag_74:\n      stop\n        /* \"@openzeppelin/contracts/access/Ownable.sol\":1201:1286  function owner() public view virtual returns (address) {... */\n    tag_13:\n      callvalue\n      dup1\n      iszero\n      tag_76\n      jumpi\n      0x00\n      dup1\n      revert\n    tag_76:\n      pop\n      tag_77\n      tag_78\n      jump\t// in\n    tag_77:\n      mload(0x40)\n      tag_79\n      swap2\n      swap1\n      tag_45\n      jump\t// in\n    tag_79:\n      mload(0x40)\n      dup1\n      swap2\n      sub\n      swap1\n      return\n        /* \"https://github.com/chiru-labs/ERC721A/blob/main/contracts/ERC721A.sol\":10217:10319  function symbol() public view virtual override returns (string memory) {... */\n    tag_14:\n      callvalue\n      dup1\n      iszero\n      tag_80\n      jumpi\n      0x00\n      dup1\n      revert\n    tag_80:\n      pop\n      tag_81\n      tag_82\n      jump\t// in\n    tag_81:\n      mload(0x40)\n      tag_83\n      swap2\n      swap1\n      tag_34\n      jump\t// in\n    tag_83:\n      mload(0x40)\n      dup1\n      swap2\n      sub\n      swap1\n      return\n        /* \"https://github.com/chiru-labs/ERC721A/blob/main/contracts/ERC721A.sol\":17461:17692  function setApprovalForAll(address operator, bool approved) public virtual override {... */\n    tag_15:\n      callvalue\n      dup1\n      iszero\n      tag_84\n      jumpi\n      0x00\n      dup1\n      revert\n    tag_84:\n      pop\n      tag_85\n      0x04\n      dup1\n      calldatasize\n      sub\n      dup2\n      add\n      swap1\n      tag_86\n      swap2\n      swap1\n      tag_87\n      jump\t// in\n    tag_86:\n      tag_88\n      jump\t// in\n    tag_85:\n      stop\n        /* \"https://github.com/chiru-labs/ERC721A/blob/main/contracts/ERC721A.sol\":24852:25257  function safeTransferFrom(... */\n    tag_16:\n      tag_89\n      0x04\n      dup1\n      calldatasize\n      sub\n      dup2\n      add\n      swap1\n      tag_90\n      swap2\n      swap1\n      tag_91\n      jump\t// in\n    tag_90:\n      tag_92\n      jump\t// in\n    tag_89:\n      stop\n        /* \"erc721atest.sol\":523:856  function tokenURI(uint256 tokenId) public view virtual override returns (string memory) {... */\n    tag_17:\n      callvalue\n      dup1\n      iszero\n      tag_93\n      jumpi\n      0x00\n      dup1\n      revert\n    tag_93:\n      pop\n      tag_94\n      0x04\n      dup1\n      calldatasize\n      sub\n      dup2\n      add\n      swap1\n      tag_95\n      swap2\n      swap1\n      tag_38\n      jump\t// in\n    tag_95:\n      tag_96\n      jump\t// in\n    tag_94:\n      mload(0x40)\n      tag_97\n      swap2\n      swap1\n      tag_34\n      jump\t// in\n    tag_97:\n      mload(0x40)\n      dup1\n      swap2\n      sub\n      swap1\n      return\n        /* \"https://github.com/chiru-labs/ERC721A/blob/main/contracts/ERC721A.sol\":17842:18004  function isApprovedForAll(address owner, address operator) public view virtual override returns (bool) {... */\n    tag_18:\n      callvalue\n      dup1\n      iszero\n      tag_98\n      jumpi\n      0x00\n      dup1\n      revert\n    tag_98:\n      pop\n      tag_99\n      0x04\n      dup1\n      calldatasize\n      sub\n      dup2\n      add\n      swap1\n      tag_100\n      swap2\n      swap1\n      tag_101\n      jump\t// in\n    tag_100:\n      tag_102\n      jump\t// in\n    tag_99:\n      mload(0x40)\n      tag_103\n      swap2\n      swap1\n      tag_29\n      jump\t// in\n    tag_103:\n      mload(0x40)\n      dup1\n      swap2\n      sub\n      swap1\n      return\n        /* \"@openzeppelin/contracts/access/Ownable.sol\":2074:2272  function transferOwnership(address newOwner) public virtual onlyOwner {... */\n    tag_19:\n      callvalue\n      dup1\n      iszero\n      tag_104\n      jumpi\n      0x00\n      dup1\n      revert\n    tag_104:\n      pop\n      tag_105\n      0x04\n      dup1\n      calldatasize\n      sub\n      dup2\n      add\n      swap1\n      tag_106\n      swap2\n      swap1\n      tag_70\n      jump\t// in\n    tag_106:\n      tag_107\n      jump\t// in\n    tag_105:\n      stop\n        /* \"https://github.com/chiru-labs/ERC721A/blob/main/contracts/ERC721A.sol\":9164:9794  function supportsInterface(bytes4 interfaceId) public view virtual override returns (bool) {... */\n    tag_27:\n        /* \"https://github.com/chiru-labs/ERC721A/blob/main/contracts/ERC721A.sol\":9249:9253  bool */\n      0x00\n        /* \"https://github.com/chiru-labs/ERC721A/blob/main/contracts/ERC721A.sol\":9582:9592  0x01ffc9a7 */\n      0x01ffc9a7\n        /* \"https://github.com/chiru-labs/ERC721A/blob/main/contracts/ERC721A.sol\":9567:9592  interfaceId == 0x01ffc9a7 */\n      0xe0\n      shl\n        /* \"https://github.com/chiru-labs/ERC721A/blob/main/contracts/ERC721A.sol\":9567:9578  interfaceId */\n      dup3\n        /* \"https://github.com/chiru-labs/ERC721A/blob/main/contracts/ERC721A.sol\":9567:9592  interfaceId == 0x01ffc9a7 */\n      not(0xffffffffffffffffffffffffffffffffffffffffffffffffffffffff)\n      and\n      eq\n        /* \"https://github.com/chiru-labs/ERC721A/blob/main/contracts/ERC721A.sol\":9567:9668  interfaceId == 0x01ffc9a7 || // ERC165 interface ID for ERC165.... */\n      dup1\n      tag_109\n      jumpi\n      pop\n        /* \"https://github.com/chiru-labs/ERC721A/blob/main/contracts/ERC721A.sol\":9658:9668  0x80ac58cd */\n      0x80ac58cd\n        /* \"https://github.com/chiru-labs/ERC721A/blob/main/contracts/ERC721A.sol\":9643:9668  interfaceId == 0x80ac58cd */\n      0xe0\n      shl\n        /* \"https://github.com/chiru-labs/ERC721A/blob/main/contracts/ERC721A.sol\":9643:9654  interfaceId */\n      dup3\n        /* \"https://github.com/chiru-labs/ERC721A/blob/main/contracts/ERC721A.sol\":9643:9668  interfaceId == 0x80ac58cd */\n      not(0xffffffffffffffffffffffffffffffffffffffffffffffffffffffff)\n      and\n      eq\n        /* \"https://github.com/chiru-labs/ERC721A/blob/main/contracts/ERC721A.sol\":9567:9668  interfaceId == 0x01ffc9a7 || // ERC165 interface ID for ERC165.... */\n    tag_109:\n        /* \"https://github.com/chiru-labs/ERC721A/blob/main/contracts/ERC721A.sol\":9567:9744  interfaceId == 0x01ffc9a7 || // ERC165 interface ID for ERC165.... */\n      dup1\n      tag_110\n      jumpi\n      pop\n        /* \"https://github.com/chiru-labs/ERC721A/blob/main/contracts/ERC721A.sol\":9734:9744  0x5b5e139f */\n      0x5b5e139f\n        /* \"https://github.com/chiru-labs/ERC721A/blob/main/contracts/ERC721A.sol\":9719:9744  interfaceId == 0x5b5e139f */\n      0xe0\n      shl\n        /* \"https://github.com/chiru-labs/ERC721A/blob/main/contracts/ERC721A.sol\":9719:9730  interfaceId */\n      dup3\n        /* \"https://github.com/chiru-labs/ERC721A/blob/main/contracts/ERC721A.sol\":9719:9744  interfaceId == 0x5b5e139f */\n      not(0xffffffffffffffffffffffffffffffffffffffffffffffffffffffff)\n      and\n      eq\n        /* \"https://github.com/chiru-labs/ERC721A/blob/main/contracts/ERC721A.sol\":9567:9744  interfaceId == 0x01ffc9a7 || // ERC165 interface ID for ERC165.... */\n    tag_110:\n        /* \"https://github.com/chiru-labs/ERC721A/blob/main/contracts/ERC721A.sol\":9548:9744  return... */\n      swap1\n      pop\n        /* \"https://github.com/chiru-labs/ERC721A/blob/main/contracts/ERC721A.sol\":9164:9794  function supportsInterface(bytes4 interfaceId) public view virtual override returns (bool) {... */\n      swap2\n      swap1\n      pop\n      jump\t// out\n        /* \"https://github.com/chiru-labs/ERC721A/blob/main/contracts/ERC721A.sol\":10048:10146  function name() public view virtual override returns (string memory) {... */\n    tag_32:\n        /* \"https://github.com/chiru-labs/ERC721A/blob/main/contracts/ERC721A.sol\":10102:10115  string memory */\n      0x60\n        /* \"https://github.com/chiru-labs/ERC721A/blob/main/contracts/ERC721A.sol\":10134:10139  _name */\n      0x02\n        /* \"https://github.com/chiru-labs/ERC721A/blob/main/contracts/ERC721A.sol\":10127:10139  return _name */\n      dup1\n      sload\n      tag_112\n      swap1\n      tag_113\n      jump\t// in\n    tag_112:\n      dup1\n      0x1f\n      add\n      0x20\n      dup1\n      swap2\n      div\n      mul\n      0x20\n      add\n      mload(0x40)\n      swap1\n      dup2\n      add\n      0x40\n      mstore\n      dup1\n      swap3\n      swap2\n      swap1\n      dup2\n      dup2\n      mstore\n      0x20\n      add\n      dup3\n      dup1\n      sload\n      tag_114\n      swap1\n      tag_113\n      jump\t// in\n    tag_114:\n      dup1\n      iszero\n      tag_115\n      jumpi\n      dup1\n      0x1f\n      lt\n      tag_116\n      jumpi\n      0x0100\n      dup1\n      dup4\n      sload\n      div\n      mul\n      dup4\n      mstore\n      swap2\n      0x20\n      add\n      swap2\n      jump(tag_115)\n    tag_116:\n      dup3\n      add\n      swap2\n      swap1\n      0x00\n      mstore\n      keccak256(0x00, 0x20)\n      swap1\n    tag_117:\n      dup2\n      sload\n      dup2\n      mstore\n      swap1\n      0x01\n      add\n      swap1\n      0x20\n      add\n      dup1\n      dup4\n      gt\n      tag_117\n      jumpi\n      dup3\n      swap1\n      sub\n      0x1f\n      and\n      dup3\n      add\n      swap2\n    tag_115:\n      pop\n      pop\n      pop\n      pop\n      pop\n      swap1\n      pop\n        /* \"https://github.com/chiru-labs/ERC721A/blob/main/contracts/ERC721A.sol\":10048:10146  function name() public view virtual override returns (string memory) {... */\n      swap1\n      jump\t// out\n        /* \"erc721atest.sol\":433:517  function Mint(uint n) public onlyOwner ... */\n    tag_39:\n        /* \"@openzeppelin/contracts/access/Ownable.sol\":1094:1107  _checkOwner() */\n      tag_119\n        /* \"@openzeppelin/contracts/access/Ownable.sol\":1094:1105  _checkOwner */\n      tag_120\n        /* \"@openzeppelin/contracts/access/Ownable.sol\":1094:1107  _checkOwner() */\n      jump\t// in\n    tag_119:\n        /* \"erc721atest.sol\":487:510  _safeMint(msg.sender,n) */\n      tag_122\n        /* \"erc721atest.sol\":497:507  msg.sender */\n      caller\n        /* \"erc721atest.sol\":508:509  n */\n      dup3\n        /* \"erc721atest.sol\":487:496  _safeMint */\n      tag_123\n        /* \"erc721atest.sol\":487:510  _safeMint(msg.sender,n) */\n      jump\t// in\n    tag_122:\n        /* \"erc721atest.sol\":433:517  function Mint(uint n) public onlyOwner ... */\n      pop\n      jump\t// out\n        /* \"https://github.com/chiru-labs/ERC721A/blob/main/contracts/ERC721A.sol\":16911:17134  function getApproved(uint256 tokenId) public view virtual override returns (address) {... */\n    tag_43:\n        /* \"https://github.com/chiru-labs/ERC721A/blob/main/contracts/ERC721A.sol\":16987:16994  address */\n      0x00\n        /* \"https://github.com/chiru-labs/ERC721A/blob/main/contracts/ERC721A.sol\":17011:17027  _exists(tokenId) */\n      tag_125\n        /* \"https://github.com/chiru-labs/ERC721A/blob/main/contracts/ERC721A.sol\":17019:17026  tokenId */\n      dup3\n        /* \"https://github.com/chiru-labs/ERC721A/blob/main/contracts/ERC721A.sol\":17011:17018  _exists */\n      tag_126\n        /* \"https://github.com/chiru-labs/ERC721A/blob/main/contracts/ERC721A.sol\":17011:17027  _exists(tokenId) */\n      jump\t// in\n    tag_125:\n        /* \"https://github.com/chiru-labs/ERC721A/blob/main/contracts/ERC721A.sol\":17006:17079  if (!_exists(tokenId)) _revert(ApprovalQueryForNonexistentToken.selector) */\n      tag_127\n      jumpi\n        /* \"https://github.com/chiru-labs/ERC721A/blob/main/contracts/ERC721A.sol\":17029:17079  _revert(ApprovalQueryForNonexistentToken.selector) */\n      tag_128\n        /* \"https://github.com/chiru-labs/ERC721A/blob/main/contracts/ERC721A.sol\":17037:17078  ApprovalQueryForNonexistentToken.selector */\n      shl(0xe0, 0xcf4700e4)\n        /* \"https://github.com/chiru-labs/ERC721A/blob/main/contracts/ERC721A.sol\":17029:17036  _revert */\n      tag_129\n        /* \"https://github.com/chiru-labs/ERC721A/blob/main/contracts/ERC721A.sol\":17029:17079  _revert(ApprovalQueryForNonexistentToken.selector) */\n      jump\t// in\n    tag_128:\n        /* \"https://github.com/chiru-labs/ERC721A/blob/main/contracts/ERC721A.sol\":17006:17079  if (!_exists(tokenId)) _revert(ApprovalQueryForNonexistentToken.selector) */\n    tag_127:\n        /* \"https://github.com/chiru-labs/ERC721A/blob/main/contracts/ERC721A.sol\":17097:17112  _tokenApprovals */\n      0x06\n        /* \"https://github.com/chiru-labs/ERC721A/blob/main/contracts/ERC721A.sol\":17097:17121  _tokenApprovals[tokenId] */\n      0x00\n        /* \"https://github.com/chiru-labs/ERC721A/blob/main/contracts/ERC721A.sol\":17113:17120  tokenId */\n      dup4\n        /* \"https://github.com/chiru-labs/ERC721A/blob/main/contracts/ERC721A.sol\":17097:17121  _tokenApprovals[tokenId] */\n      dup2\n      mstore\n      0x20\n      add\n      swap1\n      dup2\n      mstore\n      0x20\n      add\n      0x00\n      keccak256\n        /* \"https://github.com/chiru-labs/ERC721A/blob/main/contracts/ERC721A.sol\":17097:17127  _tokenApprovals[tokenId].value */\n      0x00\n      add\n      0x00\n      swap1\n      sload\n      swap1\n      0x0100\n      exp\n      swap1\n      div\n      0xffffffffffffffffffffffffffffffffffffffff\n      and\n        /* \"https://github.com/chiru-labs/ERC721A/blob/main/contracts/ERC721A.sol\":17090:17127  return _tokenApprovals[tokenId].value */\n      swap1\n      pop\n        /* \"https://github.com/chiru-labs/ERC721A/blob/main/contracts/ERC721A.sol\":16911:17134  function getApproved(uint256 tokenId) public view virtual override returns (address) {... */\n      swap2\n      swap1\n      pop\n      jump\t// out\n        /* \"https://github.com/chiru-labs/ERC721A/blob/main/contracts/ERC721A.sol\":16639:16761  function approve(address to, uint256 tokenId) public payable virtual override {... */\n    tag_49:\n        /* \"https://github.com/chiru-labs/ERC721A/blob/main/contracts/ERC721A.sol\":16727:16754  _approve(to, tokenId, true) */\n      tag_131\n        /* \"https://github.com/chiru-labs/ERC721A/blob/main/contracts/ERC721A.sol\":16736:16738  to */\n      dup3\n        /* \"https://github.com/chiru-labs/ERC721A/blob/main/contracts/ERC721A.sol\":16740:16747  tokenId */\n      dup3\n        /* \"https://github.com/chiru-labs/ERC721A/blob/main/contracts/ERC721A.sol\":16749:16753  true */\n      0x01\n        /* \"https://github.com/chiru-labs/ERC721A/blob/main/contracts/ERC721A.sol\":16727:16735  _approve */\n      tag_132\n        /* \"https://github.com/chiru-labs/ERC721A/blob/main/contracts/ERC721A.sol\":16727:16754  _approve(to, tokenId, true) */\n      jump\t// in\n    tag_131:\n        /* \"https://github.com/chiru-labs/ERC721A/blob/main/contracts/ERC721A.sol\":16639:16761  function approve(address to, uint256 tokenId) public payable virtual override {... */\n      pop\n      pop\n      jump\t// out\n        /* \"https://github.com/chiru-labs/ERC721A/blob/main/contracts/ERC721A.sol\":5894:6211  function totalSupply() public view virtual override returns (uint256) {... */\n    tag_52:\n        /* \"https://github.com/chiru-labs/ERC721A/blob/main/contracts/ERC721A.sol\":5955:5962  uint256 */\n      0x00\n        /* \"https://github.com/chiru-labs/ERC721A/blob/main/contracts/ERC721A.sol\":6179:6194  _startTokenId() */\n      tag_134\n        /* \"https://github.com/chiru-labs/ERC721A/blob/main/contracts/ERC721A.sol\":6179:6192  _startTokenId */\n      tag_135\n        /* \"https://github.com/chiru-labs/ERC721A/blob/main/contracts/ERC721A.sol\":6179:6194  _startTokenId() */\n      jump\t// in\n    tag_134:\n        /* \"https://github.com/chiru-labs/ERC721A/blob/main/contracts/ERC721A.sol\":6164:6176  _burnCounter */\n      sload(0x01)\n        /* \"https://github.com/chiru-labs/ERC721A/blob/main/contracts/ERC721A.sol\":6148:6161  _currentIndex */\n      sload(0x00)\n        /* \"https://github.com/chiru-labs/ERC721A/blob/main/contracts/ERC721A.sol\":6148:6176  _currentIndex - _burnCounter */\n      sub\n        /* \"https://github.com/chiru-labs/ERC721A/blob/main/contracts/ERC721A.sol\":6148:6194  _currentIndex - _burnCounter - _startTokenId() */\n      sub\n        /* \"https://github.com/chiru-labs/ERC721A/blob/main/contracts/ERC721A.sol\":6141:6194  return _currentIndex - _burnCounter - _startTokenId() */\n      swap1\n      pop\n        /* \"https://github.com/chiru-labs/ERC721A/blob/main/contracts/ERC721A.sol\":5894:6211  function totalSupply() public view virtual override returns (uint256) {... */\n      swap1\n      jump\t// out\n        /* \"https://github.com/chiru-labs/ERC721A/blob/main/contracts/ERC721A.sol\":20546:23993  function transferFrom(... */\n    tag_58:\n        /* \"https://github.com/chiru-labs/ERC721A/blob/main/contracts/ERC721A.sol\":20683:20710  uint256 prevOwnershipPacked */\n      0x00\n        /* \"https://github.com/chiru-labs/ERC721A/blob/main/contracts/ERC721A.sol\":20713:20740  _packedOwnershipOf(tokenId) */\n      tag_137\n        /* \"https://github.com/chiru-labs/ERC721A/blob/main/contracts/ERC721A.sol\":20732:20739  tokenId */\n      dup3\n        /* \"https://github.com/chiru-labs/ERC721A/blob/main/contracts/ERC721A.sol\":20713:20731  _packedOwnershipOf */\n      tag_138\n        /* \"https://github.com/chiru-labs/ERC721A/blob/main/contracts/ERC721A.sol\":20713:20740  _packedOwnershipOf(tokenId) */\n      jump\t// in\n    tag_137:\n        /* \"https://github.com/chiru-labs/ERC721A/blob/main/contracts/ERC721A.sol\":20683:20740  uint256 prevOwnershipPacked = _packedOwnershipOf(tokenId) */\n      swap1\n      pop\n        /* \"https://github.com/chiru-labs/ERC721A/blob/main/contracts/ERC721A.sol\":2785:2799  (1 << 160) - 1 */\n      0xffffffffffffffffffffffffffffffffffffffff\n        /* \"https://github.com/chiru-labs/ERC721A/blob/main/contracts/ERC721A.sol\":20881:20885  from */\n      dup5\n        /* \"https://github.com/chiru-labs/ERC721A/blob/main/contracts/ERC721A.sol\":20865:20887  uint256(uint160(from)) */\n      0xffffffffffffffffffffffffffffffffffffffff\n      and\n        /* \"https://github.com/chiru-labs/ERC721A/blob/main/contracts/ERC721A.sol\":20865:20906  uint256(uint160(from)) & _BITMASK_ADDRESS */\n      and\n        /* \"https://github.com/chiru-labs/ERC721A/blob/main/contracts/ERC721A.sol\":20842:20908  from = address(uint160(uint256(uint160(from)) & _BITMASK_ADDRESS)) */\n      swap4\n      pop\n        /* \"https://github.com/chiru-labs/ERC721A/blob/main/contracts/ERC721A.sol\":20964:20968  from */\n      dup4\n        /* \"https://github.com/chiru-labs/ERC721A/blob/main/contracts/ERC721A.sol\":20923:20968  address(uint160(prevOwnershipPacked)) != from */\n      0xffffffffffffffffffffffffffffffffffffffff\n      and\n        /* \"https://github.com/chiru-labs/ERC721A/blob/main/contracts/ERC721A.sol\":20939:20958  prevOwnershipPacked */\n      dup2\n        /* \"https://github.com/chiru-labs/ERC721A/blob/main/contracts/ERC721A.sol\":20923:20968  address(uint160(prevOwnershipPacked)) != from */\n      0xffffffffffffffffffffffffffffffffffffffff\n      and\n      eq\n        /* \"https://github.com/chiru-labs/ERC721A/blob/main/contracts/ERC721A.sol\":20919:21014  if (address(uint160(prevOwnershipPacked)) != from) _revert(TransferFromIncorrectOwner.selector) */\n      tag_139\n      jumpi\n        /* \"https://github.com/chiru-labs/ERC721A/blob/main/contracts/ERC721A.sol\":20970:21014  _revert(TransferFromIncorrectOwner.selector) */\n      tag_140\n        /* \"https://github.com/chiru-labs/ERC721A/blob/main/contracts/ERC721A.sol\":20978:21013  TransferFromIncorrectOwner.selector */\n      shl(0xe0, 0xa1148100)\n        /* \"https://github.com/chiru-labs/ERC721A/blob/main/contracts/ERC721A.sol\":20970:20977  _revert */\n      tag_129\n        /* \"https://github.com/chiru-labs/ERC721A/blob/main/contracts/ERC721A.sol\":20970:21014  _revert(TransferFromIncorrectOwner.selector) */\n      jump\t// in\n    tag_140:\n        /* \"https://github.com/chiru-labs/ERC721A/blob/main/contracts/ERC721A.sol\":20919:21014  if (address(uint160(prevOwnershipPacked)) != from) _revert(TransferFromIncorrectOwner.selector) */\n    tag_139:\n        /* \"https://github.com/chiru-labs/ERC721A/blob/main/contracts/ERC721A.sol\":21026:21053  uint256 approvedAddressSlot */\n      0x00\n        /* \"https://github.com/chiru-labs/ERC721A/blob/main/contracts/ERC721A.sol\":21055:21078  address approvedAddress */\n      dup1\n        /* \"https://github.com/chiru-labs/ERC721A/blob/main/contracts/ERC721A.sol\":21082:21117  _getApprovedSlotAndAddress(tokenId) */\n      tag_141\n        /* \"https://github.com/chiru-labs/ERC721A/blob/main/contracts/ERC721A.sol\":21109:21116  tokenId */\n      dup5\n        /* \"https://github.com/chiru-labs/ERC721A/blob/main/contracts/ERC721A.sol\":21082:21108  _getApprovedSlotAndAddress */\n      tag_142\n        /* \"https://github.com/chiru-labs/ERC721A/blob/main/contracts/ERC721A.sol\":21082:21117  _getApprovedSlotAndAddress(tokenId) */\n      jump\t// in\n    tag_141:\n        /* \"https://github.com/chiru-labs/ERC721A/blob/main/contracts/ERC721A.sol\":21025:21117  (uint256 approvedAddressSlot, address approvedAddress) = _getApprovedSlotAndAddress(tokenId) */\n      swap2\n      pop\n      swap2\n      pop\n        /* \"https://github.com/chiru-labs/ERC721A/blob/main/contracts/ERC721A.sol\":21214:21282  _isSenderApprovedOrOwner(approvedAddress, from, _msgSenderERC721A()) */\n      tag_143\n        /* \"https://github.com/chiru-labs/ERC721A/blob/main/contracts/ERC721A.sol\":21239:21254  approvedAddress */\n      dup2\n        /* \"https://github.com/chiru-labs/ERC721A/blob/main/contracts/ERC721A.sol\":21256:21260  from */\n      dup8\n        /* \"https://github.com/chiru-labs/ERC721A/blob/main/contracts/ERC721A.sol\":21262:21281  _msgSenderERC721A() */\n      tag_144\n        /* \"https://github.com/chiru-labs/ERC721A/blob/main/contracts/ERC721A.sol\":21262:21279  _msgSenderERC721A */\n      tag_145\n        /* \"https://github.com/chiru-labs/ERC721A/blob/main/contracts/ERC721A.sol\":21262:21281  _msgSenderERC721A() */\n      jump\t// in\n    tag_144:\n        /* \"https://github.com/chiru-labs/ERC721A/blob/main/contracts/ERC721A.sol\":21214:21238  _isSenderApprovedOrOwner */\n      tag_146\n        /* \"https://github.com/chiru-labs/ERC721A/blob/main/contracts/ERC721A.sol\":21214:21282  _isSenderApprovedOrOwner(approvedAddress, from, _msgSenderERC721A()) */\n      jump\t// in\n    tag_143:\n        /* \"https://github.com/chiru-labs/ERC721A/blob/main/contracts/ERC721A.sol\":21209:21397  if (!_isSenderApprovedOrOwner(approvedAddress, from, _msgSenderERC721A()))... */\n      tag_147\n      jumpi\n        /* \"https://github.com/chiru-labs/ERC721A/blob/main/contracts/ERC721A.sol\":21301:21344  isApprovedForAll(from, _msgSenderERC721A()) */\n      tag_148\n        /* \"https://github.com/chiru-labs/ERC721A/blob/main/contracts/ERC721A.sol\":21318:21322  from */\n      dup7\n        /* \"https://github.com/chiru-labs/ERC721A/blob/main/contracts/ERC721A.sol\":21324:21343  _msgSenderERC721A() */\n      tag_149\n        /* \"https://github.com/chiru-labs/ERC721A/blob/main/contracts/ERC721A.sol\":21324:21341  _msgSenderERC721A */\n      tag_145\n        /* \"https://github.com/chiru-labs/ERC721A/blob/main/contracts/ERC721A.sol\":21324:21343  _msgSenderERC721A() */\n      jump\t// in\n    tag_149:\n        /* \"https://github.com/chiru-labs/ERC721A/blob/main/contracts/ERC721A.sol\":21301:21317  isApprovedForAll */\n      tag_102\n        /* \"https://github.com/chiru-labs/ERC721A/blob/main/contracts/ERC721A.sol\":21301:21344  isApprovedForAll(from, _msgSenderERC721A()) */\n      jump\t// in\n    tag_148:\n        /* \"https://github.com/chiru-labs/ERC721A/blob/main/contracts/ERC721A.sol\":21296:21397  if (!isApprovedForAll(from, _msgSenderERC721A())) _revert(TransferCallerNotOwnerNorApproved.selector) */\n      tag_150\n      jumpi\n        /* \"https://github.com/chiru-labs/ERC721A/blob/main/contracts/ERC721A.sol\":21346:21397  _revert(TransferCallerNotOwnerNorApproved.selector) */\n      tag_151\n        /* \"https://github.com/chiru-labs/ERC721A/blob/main/contracts/ERC721A.sol\":21354:21396  TransferCallerNotOwnerNorApproved.selector */\n      shl(0xe0, 0x59c896be)\n        /* \"https://github.com/chiru-labs/ERC721A/blob/main/contracts/ERC721A.sol\":21346:21353  _revert */\n      tag_129\n        /* \"https://github.com/chiru-labs/ERC721A/blob/main/contracts/ERC721A.sol\":21346:21397  _revert(TransferCallerNotOwnerNorApproved.selector) */\n      jump\t// in\n    tag_151:\n        /* \"https://github.com/chiru-labs/ERC721A/blob/main/contracts/ERC721A.sol\":21296:21397  if (!isApprovedForAll(from, _msgSenderERC721A())) _revert(TransferCallerNotOwnerNorApproved.selector) */\n    tag_150:\n        /* \"https://github.com/chiru-labs/ERC721A/blob/main/contracts/ERC721A.sol\":21209:21397  if (!_isSenderApprovedOrOwner(approvedAddress, from, _msgSenderERC721A()))... */\n    tag_147:\n        /* \"https://github.com/chiru-labs/ERC721A/blob/main/contracts/ERC721A.sol\":21408:21451  _beforeTokenTransfers(from, to, tokenId, 1) */\n      tag_152\n        /* \"https://github.com/chiru-labs/ERC721A/blob/main/contracts/ERC721A.sol\":21430:21434  from */\n      dup7\n        /* \"https://github.com/chiru-labs/ERC721A/blob/main/contracts/ERC721A.sol\":21436:21438  to */\n      dup7\n        /* \"https://github.com/chiru-labs/ERC721A/blob/main/contracts/ERC721A.sol\":21440:21447  tokenId */\n      dup7\n        /* \"https://github.com/chiru-labs/ERC721A/blob/main/contracts/ERC721A.sol\":21449:21450  1 */\n      0x01\n        /* \"https://github.com/chiru-labs/ERC721A/blob/main/contracts/ERC721A.sol\":21408:21429  _beforeTokenTransfers */\n      tag_153\n        /* \"https://github.com/chiru-labs/ERC721A/blob/main/contracts/ERC721A.sol\":21408:21451  _beforeTokenTransfers(from, to, tokenId, 1) */\n      jump\t// in\n    tag_152:\n        /* \"https://github.com/chiru-labs/ERC721A/blob/main/contracts/ERC721A.sol\":21540:21555  approvedAddress */\n      dup1\n        /* \"https://github.com/chiru-labs/ERC721A/blob/main/contracts/ERC721A.sol\":21537:21694  if approvedAddress {... */\n      iszero\n      tag_154\n      jumpi\n        /* \"https://github.com/chiru-labs/ERC721A/blob/main/contracts/ERC721A.sol\":21678:21679  0 */\n      0x00\n        /* \"https://github.com/chiru-labs/ERC721A/blob/main/contracts/ERC721A.sol\":21657:21676  approvedAddressSlot */\n      dup3\n        /* \"https://github.com/chiru-labs/ERC721A/blob/main/contracts/ERC721A.sol\":21650:21680  sstore(approvedAddressSlot, 0) */\n      sstore\n        /* \"https://github.com/chiru-labs/ERC721A/blob/main/contracts/ERC721A.sol\":21537:21694  if approvedAddress {... */\n    tag_154:\n        /* \"https://github.com/chiru-labs/ERC721A/blob/main/contracts/ERC721A.sol\":22066:22084  _packedAddressData */\n      0x05\n        /* \"https://github.com/chiru-labs/ERC721A/blob/main/contracts/ERC721A.sol\":22066:22090  _packedAddressData[from] */\n      0x00\n        /* \"https://github.com/chiru-labs/ERC721A/blob/main/contracts/ERC721A.sol\":22085:22089  from */\n      dup8\n        /* \"https://github.com/chiru-labs/ERC721A/blob/main/contracts/ERC721A.sol\":22066:22090  _packedAddressData[from] */\n      0xffffffffffffffffffffffffffffffffffffffff\n      and\n      0xffffffffffffffffffffffffffffffffffffffff\n      and\n      dup2\n      mstore\n      0x20\n      add\n      swap1\n      dup2\n      mstore\n      0x20\n      add\n      0x00\n      keccak256\n      0x00\n        /* \"https://github.com/chiru-labs/ERC721A/blob/main/contracts/ERC721A.sol\":22064:22090  --_packedAddressData[from] */\n      dup2\n      sload\n      0x01\n      swap1\n      sub\n      swap2\n      swap1\n      pop\n      dup2\n      swap1\n      sstore\n      pop\n        /* \"https://github.com/chiru-labs/ERC721A/blob/main/contracts/ERC721A.sol\":22134:22152  _packedAddressData */\n      0x05\n        /* \"https://github.com/chiru-labs/ERC721A/blob/main/contracts/ERC721A.sol\":22134:22156  _packedAddressData[to] */\n      0x00\n        /* \"https://github.com/chiru-labs/ERC721A/blob/main/contracts/ERC721A.sol\":22153:22155  to */\n      dup7\n        /* \"https://github.com/chiru-labs/ERC721A/blob/main/contracts/ERC721A.sol\":22134:22156  _packedAddressData[to] */\n      0xffffffffffffffffffffffffffffffffffffffff\n      and\n      0xffffffffffffffffffffffffffffffffffffffff\n      and\n      dup2\n      mstore\n      0x20\n      add\n      swap1\n      dup2\n      mstore\n      0x20\n      add\n      0x00\n      keccak256\n      0x00\n        /* \"https://github.com/chiru-labs/ERC721A/blob/main/contracts/ERC721A.sol\":22132:22156  ++_packedAddressData[to] */\n      dup2\n      sload\n      0x01\n      add\n      swap2\n      swap1\n      pop\n      dup2\n      swap1\n      sstore\n      pop\n        /* \"https://github.com/chiru-labs/ERC721A/blob/main/contracts/ERC721A.sol\":22449:22592  _packOwnershipData(... */\n      tag_155\n        /* \"https://github.com/chiru-labs/ERC721A/blob/main/contracts/ERC721A.sol\":22485:22487  to */\n      dup6\n        /* \"https://github.com/chiru-labs/ERC721A/blob/main/contracts/ERC721A.sol\":22533:22578  _nextExtraData(from, to, prevOwnershipPacked) */\n      tag_156\n        /* \"https://github.com/chiru-labs/ERC721A/blob/main/contracts/ERC721A.sol\":22548:22552  from */\n      dup9\n        /* \"https://github.com/chiru-labs/ERC721A/blob/main/contracts/ERC721A.sol\":22554:22556  to */\n      dup9\n        /* \"https://github.com/chiru-labs/ERC721A/blob/main/contracts/ERC721A.sol\":22558:22577  prevOwnershipPacked */\n      dup8\n        /* \"https://github.com/chiru-labs/ERC721A/blob/main/contracts/ERC721A.sol\":22533:22547  _nextExtraData */\n      tag_157\n        /* \"https://github.com/chiru-labs/ERC721A/blob/main/contracts/ERC721A.sol\":22533:22578  _nextExtraData(from, to, prevOwnershipPacked) */\n      jump\t// in\n    tag_156:\n        /* \"https://github.com/chiru-labs/ERC721A/blob/main/contracts/ERC721A.sol\":2392:2400  1 << 225 */\n      0x0200000000000000000000000000000000000000000000000000000000\n        /* \"https://github.com/chiru-labs/ERC721A/blob/main/contracts/ERC721A.sol\":22505:22578  _BITMASK_NEXT_INITIALIZED | _nextExtraData(from, to, prevOwnershipPacked) */\n      or\n        /* \"https://github.com/chiru-labs/ERC721A/blob/main/contracts/ERC721A.sol\":22449:22467  _packOwnershipData */\n      tag_158\n        /* \"https://github.com/chiru-labs/ERC721A/blob/main/contracts/ERC721A.sol\":22449:22592  _packOwnershipData(... */\n      jump\t// in\n    tag_155:\n        /* \"https://github.com/chiru-labs/ERC721A/blob/main/contracts/ERC721A.sol\":22420:22437  _packedOwnerships */\n      0x04\n        /* \"https://github.com/chiru-labs/ERC721A/blob/main/contracts/ERC721A.sol\":22420:22446  _packedOwnerships[tokenId] */\n      0x00\n        /* \"https://github.com/chiru-labs/ERC721A/blob/main/contracts/ERC721A.sol\":22438:22445  tokenId */\n      dup7\n        /* \"https://github.com/chiru-labs/ERC721A/blob/main/contracts/ERC721A.sol\":22420:22446  _packedOwnerships[tokenId] */\n      dup2\n      mstore\n      0x20\n      add\n      swap1\n      dup2\n      mstore\n      0x20\n      add\n      0x00\n      keccak256\n        /* \"https://github.com/chiru-labs/ERC721A/blob/main/contracts/ERC721A.sol\":22420:22592  _packedOwnerships[tokenId] = _packOwnershipData(... */\n      dup2\n      swap1\n      sstore\n      pop\n        /* \"https://github.com/chiru-labs/ERC721A/blob/main/contracts/ERC721A.sol\":22760:22761  0 */\n      0x00\n        /* \"https://github.com/chiru-labs/ERC721A/blob/main/contracts/ERC721A.sol\":2392:2400  1 << 225 */\n      0x0200000000000000000000000000000000000000000000000000000000\n        /* \"https://github.com/chiru-labs/ERC721A/blob/main/contracts/ERC721A.sol\":22709:22728  prevOwnershipPacked */\n      dup5\n        /* \"https://github.com/chiru-labs/ERC721A/blob/main/contracts/ERC721A.sol\":22709:22756  prevOwnershipPacked & _BITMASK_NEXT_INITIALIZED */\n      and\n        /* \"https://github.com/chiru-labs/ERC721A/blob/main/contracts/ERC721A.sol\":22709:22761  prevOwnershipPacked & _BITMASK_NEXT_INITIALIZED == 0 */\n      sub\n        /* \"https://github.com/chiru-labs/ERC721A/blob/main/contracts/ERC721A.sol\":22705:23322  if (prevOwnershipPacked & _BITMASK_NEXT_INITIALIZED == 0) {... */\n      tag_159\n      jumpi\n        /* \"https://github.com/chiru-labs/ERC721A/blob/main/contracts/ERC721A.sol\":22781:22800  uint256 nextTokenId */\n      0x00\n        /* \"https://github.com/chiru-labs/ERC721A/blob/main/contracts/ERC721A.sol\":22813:22814  1 */\n      0x01\n        /* \"https://github.com/chiru-labs/ERC721A/blob/main/contracts/ERC721A.sol\":22803:22810  tokenId */\n      dup6\n        /* \"https://github.com/chiru-labs/ERC721A/blob/main/contracts/ERC721A.sol\":22803:22814  tokenId + 1 */\n      add\n        /* \"https://github.com/chiru-labs/ERC721A/blob/main/contracts/ERC721A.sol\":22781:22814  uint256 nextTokenId = tokenId + 1 */\n      swap1\n      pop\n        /* \"https://github.com/chiru-labs/ERC721A/blob/main/contracts/ERC721A.sol\":22968:22969  0 */\n      0x00\n        /* \"https://github.com/chiru-labs/ERC721A/blob/main/contracts/ERC721A.sol\":22934:22951  _packedOwnerships */\n      0x04\n        /* \"https://github.com/chiru-labs/ERC721A/blob/main/contracts/ERC721A.sol\":22934:22964  _packedOwnerships[nextTokenId] */\n      0x00\n        /* \"https://github.com/chiru-labs/ERC721A/blob/main/contracts/ERC721A.sol\":22952:22963  nextTokenId */\n      dup4\n        /* \"https://github.com/chiru-labs/ERC721A/blob/main/contracts/ERC721A.sol\":22934:22964  _packedOwnerships[nextTokenId] */\n      dup2\n      mstore\n      0x20\n      add\n      swap1\n      dup2\n      mstore\n      0x20\n      add\n      0x00\n      keccak256\n      sload\n        /* \"https://github.com/chiru-labs/ERC721A/blob/main/contracts/ERC721A.sol\":22934:22969  _packedOwnerships[nextTokenId] == 0 */\n      sub\n        /* \"https://github.com/chiru-labs/ERC721A/blob/main/contracts/ERC721A.sol\":22930:23308  if (_packedOwnerships[nextTokenId] == 0) {... */\n      tag_160\n      jumpi\n        /* \"https://github.com/chiru-labs/ERC721A/blob/main/contracts/ERC721A.sol\":23070:23083  _currentIndex */\n      sload(0x00)\n        /* \"https://github.com/chiru-labs/ERC721A/blob/main/contracts/ERC721A.sol\":23055:23066  nextTokenId */\n      dup2\n        /* \"https://github.com/chiru-labs/ERC721A/blob/main/contracts/ERC721A.sol\":23055:23083  nextTokenId != _currentIndex */\n      eq\n        /* \"https://github.com/chiru-labs/ERC721A/blob/main/contracts/ERC721A.sol\":23051:23290  if (nextTokenId != _currentIndex) {... */\n      tag_161\n      jumpi\n        /* \"https://github.com/chiru-labs/ERC721A/blob/main/contracts/ERC721A.sol\":23248:23267  prevOwnershipPacked */\n      dup4\n        /* \"https://github.com/chiru-labs/ERC721A/blob/main/contracts/ERC721A.sol\":23215:23232  _packedOwnerships */\n      0x04\n        /* \"https://github.com/chiru-labs/ERC721A/blob/main/contracts/ERC721A.sol\":23215:23245  _packedOwnerships[nextTokenId] */\n      0x00\n        /* \"https://github.com/chiru-labs/ERC721A/blob/main/contracts/ERC721A.sol\":23233:23244  nextTokenId */\n      dup4\n        /* \"https://github.com/chiru-labs/ERC721A/blob/main/contracts/ERC721A.sol\":23215:23245  _packedOwnerships[nextTokenId] */\n      dup2\n      mstore\n      0x20\n      add\n      swap1\n      dup2\n      mstore\n      0x20\n      add\n      0x00\n      keccak256\n        /* \"https://github.com/chiru-labs/ERC721A/blob/main/contracts/ERC721A.sol\":23215:23267  _packedOwnerships[nextTokenId] = prevOwnershipPacked */\n      dup2\n      swap1\n      sstore\n      pop\n        /* \"https://github.com/chiru-labs/ERC721A/blob/main/contracts/ERC721A.sol\":23051:23290  if (nextTokenId != _currentIndex) {... */\n    tag_161:\n        /* \"https://github.com/chiru-labs/ERC721A/blob/main/contracts/ERC721A.sol\":22930:23308  if (_packedOwnerships[nextTokenId] == 0) {... */\n    tag_160:\n        /* \"https://github.com/chiru-labs/ERC721A/blob/main/contracts/ERC721A.sol\":22763:23322  {... */\n      pop\n        /* \"https://github.com/chiru-labs/ERC721A/blob/main/contracts/ERC721A.sol\":22705:23322  if (prevOwnershipPacked & _BITMASK_NEXT_INITIALIZED == 0) {... */\n    tag_159:\n        /* \"https://github.com/chiru-labs/ERC721A/blob/main/contracts/ERC721A.sol\":23431:23447  uint256 toMasked */\n      0x00\n        /* \"https://github.com/chiru-labs/ERC721A/blob/main/contracts/ERC721A.sol\":2785:2799  (1 << 160) - 1 */\n      0xffffffffffffffffffffffffffffffffffffffff\n        /* \"https://github.com/chiru-labs/ERC721A/blob/main/contracts/ERC721A.sol\":23466:23468  to */\n      dup7\n        /* \"https://github.com/chiru-labs/ERC721A/blob/main/contracts/ERC721A.sol\":23450:23470  uint256(uint160(to)) */\n      0xffffffffffffffffffffffffffffffffffffffff\n      and\n        /* \"https://github.com/chiru-labs/ERC721A/blob/main/contracts/ERC721A.sol\":23450:23489  uint256(uint160(to)) & _BITMASK_ADDRESS */\n      and\n        /* \"https://github.com/chiru-labs/ERC721A/blob/main/contracts/ERC721A.sol\":23431:23489  uint256 toMasked = uint256(uint160(to)) & _BITMASK_ADDRESS */\n      swap1\n      pop\n        /* \"https://github.com/chiru-labs/ERC721A/blob/main/contracts/ERC721A.sol\":23821:23828  tokenId */\n      dup5\n        /* \"https://github.com/chiru-labs/ERC721A/blob/main/contracts/ERC721A.sol\":23786:23794  toMasked */\n      dup2\n        /* \"https://github.com/chiru-labs/ERC721A/blob/main/contracts/ERC721A.sol\":23753:23757  from */\n      dup9\n        /* \"https://github.com/chiru-labs/ERC721A/blob/main/contracts/ERC721A.sol\":23696:23721  _TRANSFER_EVENT_SIGNATURE */\n      0xddf252ad1be2c89b69c2b068fc378daa952ba7f163c4a11628f55a4df523b3ef\n        /* \"https://github.com/chiru-labs/ERC721A/blob/main/contracts/ERC721A.sol\":23642:23643  0 */\n      0x00\n        /* \"https://github.com/chiru-labs/ERC721A/blob/main/contracts/ERC721A.sol\":23586:23587  0 */\n      dup1\n        /* \"https://github.com/chiru-labs/ERC721A/blob/main/contracts/ERC721A.sol\":23564:23856  log4(... */\n      log4\n        /* \"https://github.com/chiru-labs/ERC721A/blob/main/contracts/ERC721A.sol\":23891:23892  0 */\n      0x00\n        /* \"https://github.com/chiru-labs/ERC721A/blob/main/contracts/ERC721A.sol\":23879:23887  toMasked */\n      dup2\n        /* \"https://github.com/chiru-labs/ERC721A/blob/main/contracts/ERC721A.sol\":23879:23892  toMasked == 0 */\n      sub\n        /* \"https://github.com/chiru-labs/ERC721A/blob/main/contracts/ERC721A.sol\":23875:23933  if (toMasked == 0) _revert(TransferToZeroAddress.selector) */\n      tag_162\n      jumpi\n        /* \"https://github.com/chiru-labs/ERC721A/blob/main/contracts/ERC721A.sol\":23894:23933  _revert(TransferToZeroAddress.selector) */\n      tag_163\n        /* \"https://github.com/chiru-labs/ERC721A/blob/main/contracts/ERC721A.sol\":23902:23932  TransferToZeroAddress.selector */\n      shl(0xe0, 0xea553b34)\n        /* \"https://github.com/chiru-labs/ERC721A/blob/main/contracts/ERC721A.sol\":23894:23901  _revert */\n      tag_129\n        /* \"https://github.com/chiru-labs/ERC721A/blob/main/contracts/ERC721A.sol\":23894:23933  _revert(TransferToZeroAddress.selector) */\n      jump\t// in\n    tag_163:\n        /* \"https://github.com/chiru-labs/ERC721A/blob/main/contracts/ERC721A.sol\":23875:23933  if (toMasked == 0) _revert(TransferToZeroAddress.selector) */\n    tag_162:\n        /* \"https://github.com/chiru-labs/ERC721A/blob/main/contracts/ERC721A.sol\":23944:23986  _afterTokenTransfers(from, to, tokenId, 1) */\n      tag_164\n        /* \"https://github.com/chiru-labs/ERC721A/blob/main/contracts/ERC721A.sol\":23965:23969  from */\n      dup8\n        /* \"https://github.com/chiru-labs/ERC721A/blob/main/contracts/ERC721A.sol\":23971:23973  to */\n      dup8\n        /* \"https://github.com/chiru-labs/ERC721A/blob/main/contracts/ERC721A.sol\":23975:23982  tokenId */\n      dup8\n        /* \"https://github.com/chiru-labs/ERC721A/blob/main/contracts/ERC721A.sol\":23984:23985  1 */\n      0x01\n        /* \"https://github.com/chiru-labs/ERC721A/blob/main/contracts/ERC721A.sol\":23944:23964  _afterTokenTransfers */\n      tag_165\n        /* \"https://github.com/chiru-labs/ERC721A/blob/main/contracts/ERC721A.sol\":23944:23986  _afterTokenTransfers(from, to, tokenId, 1) */\n      jump\t// in\n    tag_164:\n        /* \"https://github.com/chiru-labs/ERC721A/blob/main/contracts/ERC721A.sol\":20673:23993  {... */\n      pop\n      pop\n      pop\n      pop\n        /* \"https://github.com/chiru-labs/ERC721A/blob/main/contracts/ERC721A.sol\":20546:23993  function transferFrom(... */\n      pop\n      pop\n      pop\n      jump\t// out\n        /* \"https://github.com/chiru-labs/ERC721A/blob/main/contracts/ERC721A.sol\":24084:24271  function safeTransferFrom(... */\n    tag_61:\n        /* \"https://github.com/chiru-labs/ERC721A/blob/main/contracts/ERC721A.sol\":24225:24264  safeTransferFrom(from, to, tokenId, '') */\n      tag_167\n        /* \"https://github.com/chiru-labs/ERC721A/blob/main/contracts/ERC721A.sol\":24242:24246  from */\n      dup4\n        /* \"https://github.com/chiru-labs/ERC721A/blob/main/contracts/ERC721A.sol\":24248:24250  to */\n      dup4\n        /* \"https://github.com/chiru-labs/ERC721A/blob/main/contracts/ERC721A.sol\":24252:24259  tokenId */\n      dup4\n        /* \"https://github.com/chiru-labs/ERC721A/blob/main/contracts/ERC721A.sol\":24225:24264  safeTransferFrom(from, to, tokenId, '') */\n      mload(0x40)\n      dup1\n      0x20\n      add\n      0x40\n      mstore\n      dup1\n      0x00\n      dup2\n      mstore\n      pop\n        /* \"https://github.com/chiru-labs/ERC721A/blob/main/contracts/ERC721A.sol\":24225:24241  safeTransferFrom */\n      tag_92\n        /* \"https://github.com/chiru-labs/ERC721A/blob/main/contracts/ERC721A.sol\":24225:24264  safeTransferFrom(from, to, tokenId, '') */\n      jump\t// in\n    tag_167:\n        /* \"https://github.com/chiru-labs/ERC721A/blob/main/contracts/ERC721A.sol\":24084:24271  function safeTransferFrom(... */\n      pop\n      pop\n      pop\n      jump\t// out\n        /* \"https://github.com/chiru-labs/ERC721A/blob/main/contracts/ERC721A.sol\":11409:11559  function ownerOf(uint256 tokenId) public view virtual override returns (address) {... */\n    tag_65:\n        /* \"https://github.com/chiru-labs/ERC721A/blob/main/contracts/ERC721A.sol\":11481:11488  address */\n      0x00\n        /* \"https://github.com/chiru-labs/ERC721A/blob/main/contracts/ERC721A.sol\":11523:11550  _packedOwnershipOf(tokenId) */\n      tag_169\n        /* \"https://github.com/chiru-labs/ERC721A/blob/main/contracts/ERC721A.sol\":11542:11549  tokenId */\n      dup3\n        /* \"https://github.com/chiru-labs/ERC721A/blob/main/contracts/ERC721A.sol\":11523:11541  _packedOwnershipOf */\n      tag_138\n        /* \"https://github.com/chiru-labs/ERC721A/blob/main/contracts/ERC721A.sol\":11523:11550  _packedOwnershipOf(tokenId) */\n      jump\t// in\n    tag_169:\n        /* \"https://github.com/chiru-labs/ERC721A/blob/main/contracts/ERC721A.sol\":11500:11552  return address(uint160(_packedOwnershipOf(tokenId))) */\n      swap1\n      pop\n        /* \"https://github.com/chiru-labs/ERC721A/blob/main/contracts/ERC721A.sol\":11409:11559  function ownerOf(uint256 tokenId) public view virtual override returns (address) {... */\n      swap2\n      swap1\n      pop\n      jump\t// out\n        /* \"https://github.com/chiru-labs/ERC721A/blob/main/contracts/ERC721A.sol\":7045:7284  function balanceOf(address owner) public view virtual override returns (uint256) {... */\n    tag_71:\n        /* \"https://github.com/chiru-labs/ERC721A/blob/main/contracts/ERC721A.sol\":7117:7124  uint256 */\n      0x00\n        /* \"https://github.com/chiru-labs/ERC721A/blob/main/contracts/ERC721A.sol\":7157:7158  0 */\n      dup1\n        /* \"https://github.com/chiru-labs/ERC721A/blob/main/contracts/ERC721A.sol\":7140:7159  owner == address(0) */\n      0xffffffffffffffffffffffffffffffffffffffff\n      and\n        /* \"https://github.com/chiru-labs/ERC721A/blob/main/contracts/ERC721A.sol\":7140:7145  owner */\n      dup3\n        /* \"https://github.com/chiru-labs/ERC721A/blob/main/contracts/ERC721A.sol\":7140:7159  owner == address(0) */\n      0xffffffffffffffffffffffffffffffffffffffff\n      and\n      sub\n        /* \"https://github.com/chiru-labs/ERC721A/blob/main/contracts/ERC721A.sol\":7136:7205  if (owner == address(0)) _revert(BalanceQueryForZeroAddress.selector) */\n      tag_171\n      jumpi\n        /* \"https://github.com/chiru-labs/ERC721A/blob/main/contracts/ERC721A.sol\":7161:7205  _revert(BalanceQueryForZeroAddress.selector) */\n      tag_172\n        /* \"https://github.com/chiru-labs/ERC721A/blob/main/contracts/ERC721A.sol\":7169:7204  BalanceQueryForZeroAddress.selector */\n      shl(0xe0, 0x8f4eb604)\n        /* \"https://github.com/chiru-labs/ERC721A/blob/main/contracts/ERC721A.sol\":7161:7168  _revert */\n      tag_129\n        /* \"https://github.com/chiru-labs/ERC721A/blob/main/contracts/ERC721A.sol\":7161:7205  _revert(BalanceQueryForZeroAddress.selector) */\n      jump\t// in\n    tag_172:\n        /* \"https://github.com/chiru-labs/ERC721A/blob/main/contracts/ERC721A.sol\":7136:7205  if (owner == address(0)) _revert(BalanceQueryForZeroAddress.selector) */\n    tag_171:\n        /* \"https://github.com/chiru-labs/ERC721A/blob/main/contracts/ERC721A.sol\":1360:1373  (1 << 64) - 1 */\n      0xffffffffffffffff\n        /* \"https://github.com/chiru-labs/ERC721A/blob/main/contracts/ERC721A.sol\":7222:7240  _packedAddressData */\n      0x05\n        /* \"https://github.com/chiru-labs/ERC721A/blob/main/contracts/ERC721A.sol\":7222:7247  _packedAddressData[owner] */\n      0x00\n        /* \"https://github.com/chiru-labs/ERC721A/blob/main/contracts/ERC721A.sol\":7241:7246  owner */\n      dup5\n        /* \"https://github.com/chiru-labs/ERC721A/blob/main/contracts/ERC721A.sol\":7222:7247  _packedAddressData[owner] */\n      0xffffffffffffffffffffffffffffffffffffffff\n      and\n      0xffffffffffffffffffffffffffffffffffffffff\n      and\n      dup2\n      mstore\n      0x20\n      add\n      swap1\n      dup2\n      mstore\n      0x20\n      add\n      0x00\n      keccak256\n      sload\n        /* \"https://github.com/chiru-labs/ERC721A/blob/main/contracts/ERC721A.sol\":7222:7277  _packedAddressData[owner] & _BITMASK_ADDRESS_DATA_ENTRY */\n      and\n        /* \"https://github.com/chiru-labs/ERC721A/blob/main/contracts/ERC721A.sol\":7215:7277  return _packedAddressData[owner] & _BITMASK_ADDRESS_DATA_ENTRY */\n      swap1\n      pop\n        /* \"https://github.com/chiru-labs/ERC721A/blob/main/contracts/ERC721A.sol\":7045:7284  function balanceOf(address owner) public view virtual override returns (uint256) {... */\n      swap2\n      swap1\n      pop\n      jump\t// out\n        /* \"@openzeppelin/contracts/access/Ownable.sol\":1824:1925  function renounceOwnership() public virtual onlyOwner {... */\n    tag_75:\n        /* \"@openzeppelin/contracts/access/Ownable.sol\":1094:1107  _checkOwner() */\n      tag_174\n        /* \"@openzeppelin/contracts/access/Ownable.sol\":1094:1105  _checkOwner */\n      tag_120\n        /* \"@openzeppelin/contracts/access/Ownable.sol\":1094:1107  _checkOwner() */\n      jump\t// in\n    tag_174:\n        /* \"@openzeppelin/contracts/access/Ownable.sol\":1888:1918  _transferOwnership(address(0)) */\n      tag_176\n        /* \"@openzeppelin/contracts/access/Ownable.sol\":1915:1916  0 */\n      0x00\n        /* \"@openzeppelin/contracts/access/Ownable.sol\":1888:1906  _transferOwnership */\n      tag_177\n        /* \"@openzeppelin/contracts/access/Ownable.sol\":1888:1918  _transferOwnership(address(0)) */\n      jump\t// in\n    tag_176:\n        /* \"@openzeppelin/contracts/access/Ownable.sol\":1824:1925  function renounceOwnership() public virtual onlyOwner {... */\n      jump\t// out\n        /* \"@openzeppelin/contracts/access/Ownable.sol\":1201:1286  function owner() public view virtual returns (address) {... */\n    tag_78:\n        /* \"@openzeppelin/contracts/access/Ownable.sol\":1247:1254  address */\n      0x00\n        /* \"@openzeppelin/contracts/access/Ownable.sol\":1273:1279  _owner */\n      0x08\n      0x00\n      swap1\n      sload\n      swap1\n      0x0100\n      exp\n      swap1\n      div\n      0xffffffffffffffffffffffffffffffffffffffff\n      and\n        /* \"@openzeppelin/contracts/access/Ownable.sol\":1266:1279  return _owner */\n      swap1\n      pop\n        /* \"@openzeppelin/contracts/access/Ownable.sol\":1201:1286  function owner() public view virtual returns (address) {... */\n      swap1\n      jump\t// out\n        /* \"https://github.com/chiru-labs/ERC721A/blob/main/contracts/ERC721A.sol\":10217:10319  function symbol() public view virtual override returns (string memory) {... */\n    tag_82:\n        /* \"https://github.com/chiru-labs/ERC721A/blob/main/contracts/ERC721A.sol\":10273:10286  string memory */\n      0x60\n        /* \"https://github.com/chiru-labs/ERC721A/blob/main/contracts/ERC721A.sol\":10305:10312  _symbol */\n      0x03\n        /* \"https://github.com/chiru-labs/ERC721A/blob/main/contracts/ERC721A.sol\":10298:10312  return _symbol */\n      dup1\n      sload\n      tag_180\n      swap1\n      tag_113\n      jump\t// in\n    tag_180:\n      dup1\n      0x1f\n      add\n      0x20\n      dup1\n      swap2\n      div\n      mul\n      0x20\n      add\n      mload(0x40)\n      swap1\n      dup2\n      add\n      0x40\n      mstore\n      dup1\n      swap3\n      swap2\n      swap1\n      dup2\n      dup2\n      mstore\n      0x20\n      add\n      dup3\n      dup1\n      sload\n      tag_181\n      swap1\n      tag_113\n      jump\t// in\n    tag_181:\n      dup1\n      iszero\n      tag_182\n      jumpi\n      dup1\n      0x1f\n      lt\n      tag_183\n      jumpi\n      0x0100\n      dup1\n      dup4\n      sload\n      div\n      mul\n      dup4\n      mstore\n      swap2\n      0x20\n      add\n      swap2\n      jump(tag_182)\n    tag_183:\n      dup3\n      add\n      swap2\n      swap1\n      0x00\n      mstore\n      keccak256(0x00, 0x20)\n      swap1\n    tag_184:\n      dup2\n      sload\n      dup2\n      mstore\n      swap1\n      0x01\n      add\n      swap1\n      0x20\n      add\n      dup1\n      dup4\n      gt\n      tag_184\n      jumpi\n      dup3\n      swap1\n      sub\n      0x1f\n      and\n      dup3\n      add\n      swap2\n    tag_182:\n      pop\n      pop\n      pop\n      pop\n      pop\n      swap1\n      pop\n        /* \"https://github.com/chiru-labs/ERC721A/blob/main/contracts/ERC721A.sol\":10217:10319  function symbol() public view virtual override returns (string memory) {... */\n      swap1\n      jump\t// out\n        /* \"https://github.com/chiru-labs/ERC721A/blob/main/contracts/ERC721A.sol\":17461:17692  function setApprovalForAll(address operator, bool approved) public virtual override {... */\n    tag_88:\n        /* \"https://github.com/chiru-labs/ERC721A/blob/main/contracts/ERC721A.sol\":17607:17615  approved */\n      dup1\n        /* \"https://github.com/chiru-labs/ERC721A/blob/main/contracts/ERC721A.sol\":17555:17573  _operatorApprovals */\n      0x07\n        /* \"https://github.com/chiru-labs/ERC721A/blob/main/contracts/ERC721A.sol\":17555:17594  _operatorApprovals[_msgSenderERC721A()] */\n      0x00\n        /* \"https://github.com/chiru-labs/ERC721A/blob/main/contracts/ERC721A.sol\":17574:17593  _msgSenderERC721A() */\n      tag_186\n        /* \"https://github.com/chiru-labs/ERC721A/blob/main/contracts/ERC721A.sol\":17574:17591  _msgSenderERC721A */\n      tag_145\n        /* \"https://github.com/chiru-labs/ERC721A/blob/main/contracts/ERC721A.sol\":17574:17593  _msgSenderERC721A() */\n      jump\t// in\n    tag_186:\n        /* \"https://github.com/chiru-labs/ERC721A/blob/main/contracts/ERC721A.sol\":17555:17594  _operatorApprovals[_msgSenderERC721A()] */\n      0xffffffffffffffffffffffffffffffffffffffff\n      and\n      0xffffffffffffffffffffffffffffffffffffffff\n      and\n      dup2\n      mstore\n      0x20\n      add\n      swap1\n      dup2\n      mstore\n      0x20\n      add\n      0x00\n      keccak256\n        /* \"https://github.com/chiru-labs/ERC721A/blob/main/contracts/ERC721A.sol\":17555:17604  _operatorApprovals[_msgSenderERC721A()][operator] */\n      0x00\n        /* \"https://github.com/chiru-labs/ERC721A/blob/main/contracts/ERC721A.sol\":17595:17603  operator */\n      dup5\n        /* \"https://github.com/chiru-labs/ERC721A/blob/main/contracts/ERC721A.sol\":17555:17604  _operatorApprovals[_msgSenderERC721A()][operator] */\n      0xffffffffffffffffffffffffffffffffffffffff\n      and\n      0xffffffffffffffffffffffffffffffffffffffff\n      and\n      dup2\n      mstore\n      0x20\n      add\n      swap1\n      dup2\n      mstore\n      0x20\n      add\n      0x00\n      keccak256\n      0x00\n        /* \"https://github.com/chiru-labs/ERC721A/blob/main/contracts/ERC721A.sol\":17555:17615  _operatorApprovals[_msgSenderERC721A()][operator] = approved */\n      0x0100\n      exp\n      dup2\n      sload\n      dup2\n      0xff\n      mul\n      not\n      and\n      swap1\n      dup4\n      iszero\n      iszero\n      mul\n      or\n      swap1\n      sstore\n      pop\n        /* \"https://github.com/chiru-labs/ERC721A/blob/main/contracts/ERC721A.sol\":17666:17674  operator */\n      dup2\n        /* \"https://github.com/chiru-labs/ERC721A/blob/main/contracts/ERC721A.sol\":17630:17685  ApprovalForAll(_msgSenderERC721A(), operator, approved) */\n      0xffffffffffffffffffffffffffffffffffffffff\n      and\n        /* \"https://github.com/chiru-labs/ERC721A/blob/main/contracts/ERC721A.sol\":17645:17664  _msgSenderERC721A() */\n      tag_187\n        /* \"https://github.com/chiru-labs/ERC721A/blob/main/contracts/ERC721A.sol\":17645:17662  _msgSenderERC721A */\n      tag_145\n        /* \"https://github.com/chiru-labs/ERC721A/blob/main/contracts/ERC721A.sol\":17645:17664  _msgSenderERC721A() */\n      jump\t// in\n    tag_187:\n        /* \"https://github.com/chiru-labs/ERC721A/blob/main/contracts/ERC721A.sol\":17630:17685  ApprovalForAll(_msgSenderERC721A(), operator, approved) */\n      0xffffffffffffffffffffffffffffffffffffffff\n      and\n      0x17307eab39ab6107e8899845ad3d59bd9653f200f220920489ca2b5937696c31\n        /* \"https://github.com/chiru-labs/ERC721A/blob/main/contracts/ERC721A.sol\":17676:17684  approved */\n      dup4\n        /* \"https://github.com/chiru-labs/ERC721A/blob/main/contracts/ERC721A.sol\":17630:17685  ApprovalForAll(_msgSenderERC721A(), operator, approved) */\n      mload(0x40)\n      tag_188\n      swap2\n      swap1\n      tag_29\n      jump\t// in\n    tag_188:\n      mload(0x40)\n      dup1\n      swap2\n      sub\n      swap1\n      log3\n        /* \"https://github.com/chiru-labs/ERC721A/blob/main/contracts/ERC721A.sol\":17461:17692  function setApprovalForAll(address operator, bool approved) public virtual override {... */\n      pop\n      pop\n      jump\t// out\n        /* \"https://github.com/chiru-labs/ERC721A/blob/main/contracts/ERC721A.sol\":24852:25257  function safeTransferFrom(... */\n    tag_92:\n        /* \"https://github.com/chiru-labs/ERC721A/blob/main/contracts/ERC721A.sol\":25021:25052  transferFrom(from, to, tokenId) */\n      tag_190\n        /* \"https://github.com/chiru-labs/ERC721A/blob/main/contracts/ERC721A.sol\":25034:25038  from */\n      dup5\n        /* \"https://github.com/chiru-labs/ERC721A/blob/main/contracts/ERC721A.sol\":25040:25042  to */\n      dup5\n        /* \"https://github.com/chiru-labs/ERC721A/blob/main/contracts/ERC721A.sol\":25044:25051  tokenId */\n      dup5\n        /* \"https://github.com/chiru-labs/ERC721A/blob/main/contracts/ERC721A.sol\":25021:25033  transferFrom */\n      tag_58\n        /* \"https://github.com/chiru-labs/ERC721A/blob/main/contracts/ERC721A.sol\":25021:25052  transferFrom(from, to, tokenId) */\n      jump\t// in\n    tag_190:\n        /* \"https://github.com/chiru-labs/ERC721A/blob/main/contracts/ERC721A.sol\":25084:25085  0 */\n      0x00\n        /* \"https://github.com/chiru-labs/ERC721A/blob/main/contracts/ERC721A.sol\":25066:25068  to */\n      dup4\n        /* \"https://github.com/chiru-labs/ERC721A/blob/main/contracts/ERC721A.sol\":25066:25080  to.code.length */\n      0xffffffffffffffffffffffffffffffffffffffff\n      and\n      extcodesize\n        /* \"https://github.com/chiru-labs/ERC721A/blob/main/contracts/ERC721A.sol\":25066:25085  to.code.length != 0 */\n      eq\n        /* \"https://github.com/chiru-labs/ERC721A/blob/main/contracts/ERC721A.sol\":25062:25251  if (to.code.length != 0)... */\n      tag_191\n      jumpi\n        /* \"https://github.com/chiru-labs/ERC721A/blob/main/contracts/ERC721A.sol\":25104:25160  _checkContractOnERC721Received(from, to, tokenId, _data) */\n      tag_192\n        /* \"https://github.com/chiru-labs/ERC721A/blob/main/contracts/ERC721A.sol\":25135:25139  from */\n      dup5\n        /* \"https://github.com/chiru-labs/ERC721A/blob/main/contracts/ERC721A.sol\":25141:25143  to */\n      dup5\n        /* \"https://github.com/chiru-labs/ERC721A/blob/main/contracts/ERC721A.sol\":25145:25152  tokenId */\n      dup5\n        /* \"https://github.com/chiru-labs/ERC721A/blob/main/contracts/ERC721A.sol\":25154:25159  _data */\n      dup5\n        /* \"https://github.com/chiru-labs/ERC721A/blob/main/contracts/ERC721A.sol\":25104:25134  _checkContractOnERC721Received */\n      tag_193\n        /* \"https://github.com/chiru-labs/ERC721A/blob/main/contracts/ERC721A.sol\":25104:25160  _checkContractOnERC721Received(from, to, tokenId, _data) */\n      jump\t// in\n    tag_192:\n        /* \"https://github.com/chiru-labs/ERC721A/blob/main/contracts/ERC721A.sol\":25099:25251  if (!_checkContractOnERC721Received(from, to, tokenId, _data)) {... */\n      tag_194\n      jumpi\n        /* \"https://github.com/chiru-labs/ERC721A/blob/main/contracts/ERC721A.sol\":25180:25236  _revert(TransferToNonERC721ReceiverImplementer.selector) */\n      tag_195\n        /* \"https://github.com/chiru-labs/ERC721A/blob/main/contracts/ERC721A.sol\":25188:25235  TransferToNonERC721ReceiverImplementer.selector */\n      shl(0xe0, 0xd1a57ed6)\n        /* \"https://github.com/chiru-labs/ERC721A/blob/main/contracts/ERC721A.sol\":25180:25187  _revert */\n      tag_129\n        /* \"https://github.com/chiru-labs/ERC721A/blob/main/contracts/ERC721A.sol\":25180:25236  _revert(TransferToNonERC721ReceiverImplementer.selector) */\n      jump\t// in\n    tag_195:\n        /* \"https://github.com/chiru-labs/ERC721A/blob/main/contracts/ERC721A.sol\":25099:25251  if (!_checkContractOnERC721Received(from, to, tokenId, _data)) {... */\n    tag_194:\n        /* \"https://github.com/chiru-labs/ERC721A/blob/main/contracts/ERC721A.sol\":25062:25251  if (to.code.length != 0)... */\n    tag_191:\n        /* \"https://github.com/chiru-labs/ERC721A/blob/main/contracts/ERC721A.sol\":24852:25257  function safeTransferFrom(... */\n      pop\n      pop\n      pop\n      pop\n      jump\t// out\n        /* \"erc721atest.sol\":523:856  function tokenURI(uint256 tokenId) public view virtual override returns (string memory) {... */\n    tag_96:\n        /* \"erc721atest.sol\":596:609  string memory */\n      0x60\n        /* \"erc721atest.sol\":626:642  _exists(tokenId) */\n      tag_197\n        /* \"erc721atest.sol\":634:641  tokenId */\n      dup3\n        /* \"erc721atest.sol\":626:633  _exists */\n      tag_126\n        /* \"erc721atest.sol\":626:642  _exists(tokenId) */\n      jump\t// in\n    tag_197:\n        /* \"erc721atest.sol\":621:689  if (!_exists(tokenId)) _revert(URIQueryForNonexistentToken.selector) */\n      tag_198\n      jumpi\n        /* \"erc721atest.sol\":644:689  _revert(URIQueryForNonexistentToken.selector) */\n      tag_199\n        /* \"erc721atest.sol\":652:688  URIQueryForNonexistentToken.selector */\n      shl(0xe0, 0xa14c4b50)\n        /* \"erc721atest.sol\":644:651  _revert */\n      tag_129\n        /* \"erc721atest.sol\":644:689  _revert(URIQueryForNonexistentToken.selector) */\n      jump\t// in\n    tag_199:\n        /* \"erc721atest.sol\":621:689  if (!_exists(tokenId)) _revert(URIQueryForNonexistentToken.selector) */\n    tag_198:\n        /* \"erc721atest.sol\":700:721  string memory baseURI */\n      0x00\n        /* \"erc721atest.sol\":724:734  _baseURI() */\n      tag_200\n        /* \"erc721atest.sol\":724:732  _baseURI */\n      tag_201\n        /* \"erc721atest.sol\":724:734  _baseURI() */\n      jump\t// in\n    tag_200:\n        /* \"erc721atest.sol\":700:734  string memory baseURI = _baseURI() */\n      swap1\n      pop\n        /* \"erc721atest.sol\":776:777  0 */\n      0x00\n        /* \"erc721atest.sol\":757:764  baseURI */\n      dup2\n        /* \"erc721atest.sol\":751:772  bytes(baseURI).length */\n      mload\n        /* \"erc721atest.sol\":751:777  bytes(baseURI).length != 0 */\n      sub\n        /* \"erc721atest.sol\":751:849  bytes(baseURI).length != 0 ? string(abi.encodePacked(_baseURI(), _toString(tokenId),\".json\")) : '' */\n      tag_202\n      jumpi\n      mload(0x40)\n      dup1\n      0x20\n      add\n      0x40\n      mstore\n      dup1\n      0x00\n      dup2\n      mstore\n      pop\n      jump(tag_203)\n    tag_202:\n        /* \"erc721atest.sol\":804:814  _baseURI() */\n      tag_204\n        /* \"erc721atest.sol\":804:812  _baseURI */\n      tag_201\n        /* \"erc721atest.sol\":804:814  _baseURI() */\n      jump\t// in\n    tag_204:\n        /* \"erc721atest.sol\":816:834  _toString(tokenId) */\n      tag_205\n        /* \"erc721atest.sol\":826:833  tokenId */\n      dup5\n        /* \"erc721atest.sol\":816:825  _toString */\n      tag_206\n        /* \"erc721atest.sol\":816:834  _toString(tokenId) */\n      jump\t// in\n    tag_205:\n        /* \"erc721atest.sol\":787:843  abi.encodePacked(_baseURI(), _toString(tokenId),\".json\") */\n      add(0x20, mload(0x40))\n      tag_207\n      swap3\n      swap2\n      swap1\n      tag_208\n      jump\t// in\n    tag_207:\n      mload(0x40)\n      0x20\n      dup2\n      dup4\n      sub\n      sub\n      dup2\n      mstore\n      swap1\n      0x40\n      mstore\n        /* \"erc721atest.sol\":751:849  bytes(baseURI).length != 0 ? string(abi.encodePacked(_baseURI(), _toString(tokenId),\".json\")) : '' */\n    tag_203:\n        /* \"erc721atest.sol\":744:849  return bytes(baseURI).length != 0 ? string(abi.encodePacked(_baseURI(), _toString(tokenId),\".json\")) : '' */\n      swap2\n      pop\n      pop\n        /* \"erc721atest.sol\":523:856  function tokenURI(uint256 tokenId) public view virtual override returns (string memory) {... */\n      swap2\n      swap1\n      pop\n      jump\t// out\n        /* \"https://github.com/chiru-labs/ERC721A/blob/main/contracts/ERC721A.sol\":17842:18004  function isApprovedForAll(address owner, address operator) public view virtual override returns (bool) {... */\n    tag_102:\n        /* \"https://github.com/chiru-labs/ERC721A/blob/main/contracts/ERC721A.sol\":17939:17943  bool */\n      0x00\n        /* \"https://github.com/chiru-labs/ERC721A/blob/main/contracts/ERC721A.sol\":17962:17980  _operatorApprovals */\n      0x07\n        /* \"https://github.com/chiru-labs/ERC721A/blob/main/contracts/ERC721A.sol\":17962:17987  _operatorApprovals[owner] */\n      0x00\n        /* \"https://github.com/chiru-labs/ERC721A/blob/main/contracts/ERC721A.sol\":17981:17986  owner */\n      dup5\n        /* \"https://github.com/chiru-labs/ERC721A/blob/main/contracts/ERC721A.sol\":17962:17987  _operatorApprovals[owner] */\n      0xffffffffffffffffffffffffffffffffffffffff\n      and\n      0xffffffffffffffffffffffffffffffffffffffff\n      and\n      dup2\n      mstore\n      0x20\n      add\n      swap1\n      dup2\n      mstore\n      0x20\n      add\n      0x00\n      keccak256\n        /* \"https://github.com/chiru-labs/ERC721A/blob/main/contracts/ERC721A.sol\":17962:17997  _operatorApprovals[owner][operator] */\n      0x00\n        /* \"https://github.com/chiru-labs/ERC721A/blob/main/contracts/ERC721A.sol\":17988:17996  operator */\n      dup4\n        /* \"https://github.com/chiru-labs/ERC721A/blob/main/contracts/ERC721A.sol\":17962:17997  _operatorApprovals[owner][operator] */\n      0xffffffffffffffffffffffffffffffffffffffff\n      and\n      0xffffffffffffffffffffffffffffffffffffffff\n      and\n      dup2\n      mstore\n      0x20\n      add\n      swap1\n      dup2\n      mstore\n      0x20\n      add\n      0x00\n      keccak256\n      0x00\n      swap1\n      sload\n      swap1\n      0x0100\n      exp\n      swap1\n      div\n      0xff\n      and\n        /* \"https://github.com/chiru-labs/ERC721A/blob/main/contracts/ERC721A.sol\":17955:17997  return _operatorApprovals[owner][operator] */\n      swap1\n      pop\n        /* \"https://github.com/chiru-labs/ERC721A/blob/main/contracts/ERC721A.sol\":17842:18004  function isApprovedForAll(address owner, address operator) public view virtual override returns (bool) {... */\n      swap3\n      swap2\n      pop\n      pop\n      jump\t// out\n        /* \"@openzeppelin/contracts/access/Ownable.sol\":2074:2272  function transferOwnership(address newOwner) public virtual onlyOwner {... */\n    tag_107:\n        /* \"@openzeppelin/contracts/access/Ownable.sol\":1094:1107  _checkOwner() */\n      tag_211\n        /* \"@openzeppelin/contracts/access/Ownable.sol\":1094:1105  _checkOwner */\n      tag_120\n        /* \"@openzeppelin/contracts/access/Ownable.sol\":1094:1107  _checkOwner() */\n      jump\t// in\n    tag_211:\n        /* \"@openzeppelin/contracts/access/Ownable.sol\":2182:2183  0 */\n      0x00\n        /* \"@openzeppelin/contracts/access/Ownable.sol\":2162:2184  newOwner != address(0) */\n      0xffffffffffffffffffffffffffffffffffffffff\n      and\n        /* \"@openzeppelin/contracts/access/Ownable.sol\":2162:2170  newOwner */\n      dup2\n        /* \"@openzeppelin/contracts/access/Ownable.sol\":2162:2184  newOwner != address(0) */\n      0xffffffffffffffffffffffffffffffffffffffff\n      and\n      sub\n        /* \"@openzeppelin/contracts/access/Ownable.sol\":2154:2227  require(newOwner != address(0), \"Ownable: new owner is the zero address\") */\n      tag_213\n      jumpi\n      mload(0x40)\n      0x08c379a000000000000000000000000000000000000000000000000000000000\n      dup2\n      mstore\n      0x04\n      add\n      tag_214\n      swap1\n      tag_215\n      jump\t// in\n    tag_214:\n      mload(0x40)\n      dup1\n      swap2\n      sub\n      swap1\n      revert\n    tag_213:\n        /* \"@openzeppelin/contracts/access/Ownable.sol\":2237:2265  _transferOwnership(newOwner) */\n      tag_216\n        /* \"@openzeppelin/contracts/access/Ownable.sol\":2256:2264  newOwner */\n      dup2\n        /* \"@openzeppelin/contracts/access/Ownable.sol\":2237:2255  _transferOwnership */\n      tag_177\n        /* \"@openzeppelin/contracts/access/Ownable.sol\":2237:2265  _transferOwnership(newOwner) */\n      jump\t// in\n    tag_216:\n        /* \"@openzeppelin/contracts/access/Ownable.sol\":2074:2272  function transferOwnership(address newOwner) public virtual onlyOwner {... */\n      pop\n      jump\t// out\n        /* \"@openzeppelin/contracts/access/Ownable.sol\":1359:1489  function _checkOwner() internal view virtual {... */\n    tag_120:\n        /* \"@openzeppelin/contracts/access/Ownable.sol\":1433:1445  _msgSender() */\n      tag_218\n        /* \"@openzeppelin/contracts/access/Ownable.sol\":1433:1443  _msgSender */\n      tag_219\n        /* \"@openzeppelin/contracts/access/Ownable.sol\":1433:1445  _msgSender() */\n      jump\t// in\n    tag_218:\n        /* \"@openzeppelin/contracts/access/Ownable.sol\":1422:1445  owner() == _msgSender() */\n      0xffffffffffffffffffffffffffffffffffffffff\n      and\n        /* \"@openzeppelin/contracts/access/Ownable.sol\":1422:1429  owner() */\n      tag_220\n        /* \"@openzeppelin/contracts/access/Ownable.sol\":1422:1427  owner */\n      tag_78\n        /* \"@openzeppelin/contracts/access/Ownable.sol\":1422:1429  owner() */\n      jump\t// in\n    tag_220:\n        /* \"@openzeppelin/contracts/access/Ownable.sol\":1422:1445  owner() == _msgSender() */\n      0xffffffffffffffffffffffffffffffffffffffff\n      and\n      eq\n        /* \"@openzeppelin/contracts/access/Ownable.sol\":1414:1482  require(owner() == _msgSender(), \"Ownable: caller is not the owner\") */\n      tag_221\n      jumpi\n      mload(0x40)\n      0x08c379a000000000000000000000000000000000000000000000000000000000\n      dup2\n      mstore\n      0x04\n      add\n      tag_222\n      swap1\n      tag_223\n      jump\t// in\n    tag_222:\n      mload(0x40)\n      dup1\n      swap2\n      sub\n      swap1\n      revert\n    tag_221:\n        /* \"@openzeppelin/contracts/access/Ownable.sol\":1359:1489  function _checkOwner() internal view virtual {... */\n      jump\t// out\n        /* \"https://github.com/chiru-labs/ERC721A/blob/main/contracts/ERC721A.sol\":34129:34239  function _safeMint(address to, uint256 quantity) internal virtual {... */\n    tag_123:\n        /* \"https://github.com/chiru-labs/ERC721A/blob/main/contracts/ERC721A.sol\":34205:34232  _safeMint(to, quantity, '') */\n      tag_225\n        /* \"https://github.com/chiru-labs/ERC721A/blob/main/contracts/ERC721A.sol\":34215:34217  to */\n      dup3\n        /* \"https://github.com/chiru-labs/ERC721A/blob/main/contracts/ERC721A.sol\":34219:34227  quantity */\n      dup3\n        /* \"https://github.com/chiru-labs/ERC721A/blob/main/contracts/ERC721A.sol\":34205:34232  _safeMint(to, quantity, '') */\n      mload(0x40)\n      dup1\n      0x20\n      add\n      0x40\n      mstore\n      dup1\n      0x00\n      dup2\n      mstore\n      pop\n        /* \"https://github.com/chiru-labs/ERC721A/blob/main/contracts/ERC721A.sol\":34205:34214  _safeMint */\n      tag_226\n        /* \"https://github.com/chiru-labs/ERC721A/blob/main/contracts/ERC721A.sol\":34205:34232  _safeMint(to, quantity, '') */\n      jump\t// in\n    tag_225:\n        /* \"https://github.com/chiru-labs/ERC721A/blob/main/contracts/ERC721A.sol\":34129:34239  function _safeMint(address to, uint256 quantity) internal virtual {... */\n      pop\n      pop\n      jump\t// out\n        /* \"https://github.com/chiru-labs/ERC721A/blob/main/contracts/ERC721A.sol\":18253:18613  function _exists(uint256 tokenId) internal view virtual returns (bool result) {... */\n    tag_126:\n        /* \"https://github.com/chiru-labs/ERC721A/blob/main/contracts/ERC721A.sol\":18318:18329  bool result */\n      0x00\n        /* \"https://github.com/chiru-labs/ERC721A/blob/main/contracts/ERC721A.sol\":18364:18371  tokenId */\n      dup2\n        /* \"https://github.com/chiru-labs/ERC721A/blob/main/contracts/ERC721A.sol\":18345:18360  _startTokenId() */\n      tag_228\n        /* \"https://github.com/chiru-labs/ERC721A/blob/main/contracts/ERC721A.sol\":18345:18358  _startTokenId */\n      tag_135\n        /* \"https://github.com/chiru-labs/ERC721A/blob/main/contracts/ERC721A.sol\":18345:18360  _startTokenId() */\n      jump\t// in\n    tag_228:\n        /* \"https://github.com/chiru-labs/ERC721A/blob/main/contracts/ERC721A.sol\":18345:18371  _startTokenId() <= tokenId */\n      gt\n        /* \"https://github.com/chiru-labs/ERC721A/blob/main/contracts/ERC721A.sol\":18341:18607  if (_startTokenId() <= tokenId) {... */\n      tag_229\n      jumpi\n        /* \"https://github.com/chiru-labs/ERC721A/blob/main/contracts/ERC721A.sol\":18401:18414  _currentIndex */\n      sload(0x00)\n        /* \"https://github.com/chiru-labs/ERC721A/blob/main/contracts/ERC721A.sol\":18391:18398  tokenId */\n      dup3\n        /* \"https://github.com/chiru-labs/ERC721A/blob/main/contracts/ERC721A.sol\":18391:18414  tokenId < _currentIndex */\n      lt\n        /* \"https://github.com/chiru-labs/ERC721A/blob/main/contracts/ERC721A.sol\":18387:18597  if (tokenId < _currentIndex) {... */\n      iszero\n      tag_230\n      jumpi\n        /* \"https://github.com/chiru-labs/ERC721A/blob/main/contracts/ERC721A.sol\":18434:18448  uint256 packed */\n      0x00\n        /* \"https://github.com/chiru-labs/ERC721A/blob/main/contracts/ERC721A.sol\":18466:18526  while ((packed = _packedOwnerships[tokenId]) == 0) --tokenId */\n    tag_231:\n        /* \"https://github.com/chiru-labs/ERC721A/blob/main/contracts/ERC721A.sol\":18514:18515  0 */\n      0x00\n        /* \"https://github.com/chiru-labs/ERC721A/blob/main/contracts/ERC721A.sol\":18483:18500  _packedOwnerships */\n      0x04\n        /* \"https://github.com/chiru-labs/ERC721A/blob/main/contracts/ERC721A.sol\":18483:18509  _packedOwnerships[tokenId] */\n      0x00\n        /* \"https://github.com/chiru-labs/ERC721A/blob/main/contracts/ERC721A.sol\":18501:18508  tokenId */\n      dup6\n        /* \"https://github.com/chiru-labs/ERC721A/blob/main/contracts/ERC721A.sol\":18483:18509  _packedOwnerships[tokenId] */\n      dup2\n      mstore\n      0x20\n      add\n      swap1\n      dup2\n      mstore\n      0x20\n      add\n      0x00\n      keccak256\n      sload\n        /* \"https://github.com/chiru-labs/ERC721A/blob/main/contracts/ERC721A.sol\":18474:18509  packed = _packedOwnerships[tokenId] */\n      swap2\n      pop\n      dup2\n        /* \"https://github.com/chiru-labs/ERC721A/blob/main/contracts/ERC721A.sol\":18473:18515  (packed = _packedOwnerships[tokenId]) == 0 */\n      sub\n        /* \"https://github.com/chiru-labs/ERC721A/blob/main/contracts/ERC721A.sol\":18466:18526  while ((packed = _packedOwnerships[tokenId]) == 0) --tokenId */\n      tag_232\n      jumpi\n        /* \"https://github.com/chiru-labs/ERC721A/blob/main/contracts/ERC721A.sol\":18517:18526  --tokenId */\n      dup3\n      tag_233\n      swap1\n      tag_234\n      jump\t// in\n    tag_233:\n      swap3\n      pop\n        /* \"https://github.com/chiru-labs/ERC721A/blob/main/contracts/ERC721A.sol\":18466:18526  while ((packed = _packedOwnerships[tokenId]) == 0) --tokenId */\n      jump(tag_231)\n    tag_232:\n        /* \"https://github.com/chiru-labs/ERC721A/blob/main/contracts/ERC721A.sol\":18581:18582  0 */\n      0x00\n        /* \"https://github.com/chiru-labs/ERC721A/blob/main/contracts/ERC721A.sol\":2118:2126  1 << 224 */\n      0x0100000000000000000000000000000000000000000000000000000000\n        /* \"https://github.com/chiru-labs/ERC721A/blob/main/contracts/ERC721A.sol\":18553:18559  packed */\n      dup3\n        /* \"https://github.com/chiru-labs/ERC721A/blob/main/contracts/ERC721A.sol\":18553:18577  packed & _BITMASK_BURNED */\n      and\n        /* \"https://github.com/chiru-labs/ERC721A/blob/main/contracts/ERC721A.sol\":18553:18582  packed & _BITMASK_BURNED == 0 */\n      eq\n        /* \"https://github.com/chiru-labs/ERC721A/blob/main/contracts/ERC721A.sol\":18544:18582  result = packed & _BITMASK_BURNED == 0 */\n      swap2\n      pop\n        /* \"https://github.com/chiru-labs/ERC721A/blob/main/contracts/ERC721A.sol\":18416:18597  {... */\n      pop\n        /* \"https://github.com/chiru-labs/ERC721A/blob/main/contracts/ERC721A.sol\":18387:18597  if (tokenId < _currentIndex) {... */\n    tag_230:\n        /* \"https://github.com/chiru-labs/ERC721A/blob/main/contracts/ERC721A.sol\":18341:18607  if (_startTokenId() <= tokenId) {... */\n    tag_229:\n        /* \"https://github.com/chiru-labs/ERC721A/blob/main/contracts/ERC721A.sol\":18253:18613  function _exists(uint256 tokenId) internal view virtual returns (bool result) {... */\n      swap2\n      swap1\n      pop\n      jump\t// out\n        /* \"https://github.com/chiru-labs/ERC721A/blob/main/contracts/ERC721A.sol\":43371:43531  function _revert(bytes4 errorSelector) internal pure {... */\n    tag_129:\n        /* \"https://github.com/chiru-labs/ERC721A/blob/main/contracts/ERC721A.sol\":43470:43483  errorSelector */\n      dup1\n        /* \"https://github.com/chiru-labs/ERC721A/blob/main/contracts/ERC721A.sol\":43464:43468  0x00 */\n      0x00\n        /* \"https://github.com/chiru-labs/ERC721A/blob/main/contracts/ERC721A.sol\":43457:43484  mstore(0x00, errorSelector) */\n      mstore\n        /* \"https://github.com/chiru-labs/ERC721A/blob/main/contracts/ERC721A.sol\":43510:43514  0x04 */\n      0x04\n        /* \"https://github.com/chiru-labs/ERC721A/blob/main/contracts/ERC721A.sol\":43504:43508  0x00 */\n      0x00\n        /* \"https://github.com/chiru-labs/ERC721A/blob/main/contracts/ERC721A.sol\":43497:43515  revert(0x00, 0x04) */\n      revert\n        /* \"https://github.com/chiru-labs/ERC721A/blob/main/contracts/ERC721A.sol\":35019:35479  function _approve(... */\n    tag_132:\n        /* \"https://github.com/chiru-labs/ERC721A/blob/main/contracts/ERC721A.sol\":35143:35156  address owner */\n      0x00\n        /* \"https://github.com/chiru-labs/ERC721A/blob/main/contracts/ERC721A.sol\":35159:35175  ownerOf(tokenId) */\n      tag_237\n        /* \"https://github.com/chiru-labs/ERC721A/blob/main/contracts/ERC721A.sol\":35167:35174  tokenId */\n      dup4\n        /* \"https://github.com/chiru-labs/ERC721A/blob/main/contracts/ERC721A.sol\":35159:35166  ownerOf */\n      tag_65\n        /* \"https://github.com/chiru-labs/ERC721A/blob/main/contracts/ERC721A.sol\":35159:35175  ownerOf(tokenId) */\n      jump\t// in\n    tag_237:\n        /* \"https://github.com/chiru-labs/ERC721A/blob/main/contracts/ERC721A.sol\":35143:35175  address owner = ownerOf(tokenId) */\n      swap1\n      pop\n        /* \"https://github.com/chiru-labs/ERC721A/blob/main/contracts/ERC721A.sol\":35190:35203  approvalCheck */\n      dup2\n        /* \"https://github.com/chiru-labs/ERC721A/blob/main/contracts/ERC721A.sol\":35190:35235  approvalCheck && _msgSenderERC721A() != owner */\n      dup1\n      iszero\n      tag_238\n      jumpi\n      pop\n        /* \"https://github.com/chiru-labs/ERC721A/blob/main/contracts/ERC721A.sol\":35230:35235  owner */\n      dup1\n        /* \"https://github.com/chiru-labs/ERC721A/blob/main/contracts/ERC721A.sol\":35207:35235  _msgSenderERC721A() != owner */\n      0xffffffffffffffffffffffffffffffffffffffff\n      and\n        /* \"https://github.com/chiru-labs/ERC721A/blob/main/contracts/ERC721A.sol\":35207:35226  _msgSenderERC721A() */\n      tag_239\n        /* \"https://github.com/chiru-labs/ERC721A/blob/main/contracts/ERC721A.sol\":35207:35224  _msgSenderERC721A */\n      tag_145\n        /* \"https://github.com/chiru-labs/ERC721A/blob/main/contracts/ERC721A.sol\":35207:35226  _msgSenderERC721A() */\n      jump\t// in\n    tag_239:\n        /* \"https://github.com/chiru-labs/ERC721A/blob/main/contracts/ERC721A.sol\":35207:35235  _msgSenderERC721A() != owner */\n      0xffffffffffffffffffffffffffffffffffffffff\n      and\n      eq\n      iszero\n        /* \"https://github.com/chiru-labs/ERC721A/blob/main/contracts/ERC721A.sol\":35190:35235  approvalCheck && _msgSenderERC721A() != owner */\n    tag_238:\n        /* \"https://github.com/chiru-labs/ERC721A/blob/main/contracts/ERC721A.sol\":35186:35384  if (approvalCheck && _msgSenderERC721A() != owner)... */\n      iszero\n      tag_240\n      jumpi\n        /* \"https://github.com/chiru-labs/ERC721A/blob/main/contracts/ERC721A.sol\":35254:35298  isApprovedForAll(owner, _msgSenderERC721A()) */\n      tag_241\n        /* \"https://github.com/chiru-labs/ERC721A/blob/main/contracts/ERC721A.sol\":35271:35276  owner */\n      dup2\n        /* \"https://github.com/chiru-labs/ERC721A/blob/main/contracts/ERC721A.sol\":35278:35297  _msgSenderERC721A() */\n      tag_242\n        /* \"https://github.com/chiru-labs/ERC721A/blob/main/contracts/ERC721A.sol\":35278:35295  _msgSenderERC721A */\n      tag_145\n        /* \"https://github.com/chiru-labs/ERC721A/blob/main/contracts/ERC721A.sol\":35278:35297  _msgSenderERC721A() */\n      jump\t// in\n    tag_242:\n        /* \"https://github.com/chiru-labs/ERC721A/blob/main/contracts/ERC721A.sol\":35254:35270  isApprovedForAll */\n      tag_102\n        /* \"https://github.com/chiru-labs/ERC721A/blob/main/contracts/ERC721A.sol\":35254:35298  isApprovedForAll(owner, _msgSenderERC721A()) */\n      jump\t// in\n    tag_241:\n        /* \"https://github.com/chiru-labs/ERC721A/blob/main/contracts/ERC721A.sol\":35249:35384  if (!isApprovedForAll(owner, _msgSenderERC721A())) {... */\n      tag_243\n      jumpi\n        /* \"https://github.com/chiru-labs/ERC721A/blob/main/contracts/ERC721A.sol\":35318:35369  _revert(ApprovalCallerNotOwnerNorApproved.selector) */\n      tag_244\n        /* \"https://github.com/chiru-labs/ERC721A/blob/main/contracts/ERC721A.sol\":35326:35368  ApprovalCallerNotOwnerNorApproved.selector */\n      shl(0xe0, 0xcfb3b942)\n        /* \"https://github.com/chiru-labs/ERC721A/blob/main/contracts/ERC721A.sol\":35318:35325  _revert */\n      tag_129\n        /* \"https://github.com/chiru-labs/ERC721A/blob/main/contracts/ERC721A.sol\":35318:35369  _revert(ApprovalCallerNotOwnerNorApproved.selector) */\n      jump\t// in\n    tag_244:\n        /* \"https://github.com/chiru-labs/ERC721A/blob/main/contracts/ERC721A.sol\":35249:35384  if (!isApprovedForAll(owner, _msgSenderERC721A())) {... */\n    tag_243:\n        /* \"https://github.com/chiru-labs/ERC721A/blob/main/contracts/ERC721A.sol\":35186:35384  if (approvalCheck && _msgSenderERC721A() != owner)... */\n    tag_240:\n        /* \"https://github.com/chiru-labs/ERC721A/blob/main/contracts/ERC721A.sol\":35427:35429  to */\n      dup4\n        /* \"https://github.com/chiru-labs/ERC721A/blob/main/contracts/ERC721A.sol\":35394:35409  _tokenApprovals */\n      0x06\n        /* \"https://github.com/chiru-labs/ERC721A/blob/main/contracts/ERC721A.sol\":35394:35418  _tokenApprovals[tokenId] */\n      0x00\n        /* \"https://github.com/chiru-labs/ERC721A/blob/main/contracts/ERC721A.sol\":35410:35417  tokenId */\n      dup6\n        /* \"https://github.com/chiru-labs/ERC721A/blob/main/contracts/ERC721A.sol\":35394:35418  _tokenApprovals[tokenId] */\n      dup2\n      mstore\n      0x20\n      add\n      swap1\n      dup2\n      mstore\n      0x20\n      add\n      0x00\n      keccak256\n        /* \"https://github.com/chiru-labs/ERC721A/blob/main/contracts/ERC721A.sol\":35394:35424  _tokenApprovals[tokenId].value */\n      0x00\n      add\n      0x00\n        /* \"https://github.com/chiru-labs/ERC721A/blob/main/contracts/ERC721A.sol\":35394:35429  _tokenApprovals[tokenId].value = to */\n      0x0100\n      exp\n      dup2\n      sload\n      dup2\n      0xffffffffffffffffffffffffffffffffffffffff\n      mul\n      not\n      and\n      swap1\n      dup4\n      0xffffffffffffffffffffffffffffffffffffffff\n      and\n      mul\n      or\n      swap1\n      sstore\n      pop\n        /* \"https://github.com/chiru-labs/ERC721A/blob/main/contracts/ERC721A.sol\":35464:35471  tokenId */\n      dup3\n        /* \"https://github.com/chiru-labs/ERC721A/blob/main/contracts/ERC721A.sol\":35460:35462  to */\n      dup5\n        /* \"https://github.com/chiru-labs/ERC721A/blob/main/contracts/ERC721A.sol\":35444:35472  Approval(owner, to, tokenId) */\n      0xffffffffffffffffffffffffffffffffffffffff\n      and\n        /* \"https://github.com/chiru-labs/ERC721A/blob/main/contracts/ERC721A.sol\":35453:35458  owner */\n      dup3\n        /* \"https://github.com/chiru-labs/ERC721A/blob/main/contracts/ERC721A.sol\":35444:35472  Approval(owner, to, tokenId) */\n      0xffffffffffffffffffffffffffffffffffffffff\n      and\n      0x8c5be1e5ebec7d5bd14f71427d1e84f3dd0314c0f7b2291e5b200ac8c7c3b925\n      mload(0x40)\n      mload(0x40)\n      dup1\n      swap2\n      sub\n      swap1\n      log4\n        /* \"https://github.com/chiru-labs/ERC721A/blob/main/contracts/ERC721A.sol\":35133:35479  {... */\n      pop\n        /* \"https://github.com/chiru-labs/ERC721A/blob/main/contracts/ERC721A.sol\":35019:35479  function _approve(... */\n      pop\n      pop\n      pop\n      jump\t// out\n        /* \"https://github.com/chiru-labs/ERC721A/blob/main/contracts/ERC721A.sol\":5426:5516  function _startTokenId() internal view virtual returns (uint256) {... */\n    tag_135:\n        /* \"https://github.com/chiru-labs/ERC721A/blob/main/contracts/ERC721A.sol\":5482:5489  uint256 */\n      0x00\n        /* \"https://github.com/chiru-labs/ERC721A/blob/main/contracts/ERC721A.sol\":5426:5516  function _startTokenId() internal view virtual returns (uint256) {... */\n      swap1\n      jump\t// out\n        /* \"https://github.com/chiru-labs/ERC721A/blob/main/contracts/ERC721A.sol\":12850:14828  function _packedOwnershipOf(uint256 tokenId) private view returns (uint256 packed) {... */\n    tag_138:\n        /* \"https://github.com/chiru-labs/ERC721A/blob/main/contracts/ERC721A.sol\":12917:12931  uint256 packed */\n      0x00\n        /* \"https://github.com/chiru-labs/ERC721A/blob/main/contracts/ERC721A.sol\":12966:12973  tokenId */\n      dup2\n        /* \"https://github.com/chiru-labs/ERC721A/blob/main/contracts/ERC721A.sol\":12947:12962  _startTokenId() */\n      tag_247\n        /* \"https://github.com/chiru-labs/ERC721A/blob/main/contracts/ERC721A.sol\":12947:12960  _startTokenId */\n      tag_135\n        /* \"https://github.com/chiru-labs/ERC721A/blob/main/contracts/ERC721A.sol\":12947:12962  _startTokenId() */\n      jump\t// in\n    tag_247:\n        /* \"https://github.com/chiru-labs/ERC721A/blob/main/contracts/ERC721A.sol\":12947:12973  _startTokenId() <= tokenId */\n      gt\n        /* \"https://github.com/chiru-labs/ERC721A/blob/main/contracts/ERC721A.sol\":12943:14765  if (_startTokenId() <= tokenId) {... */\n      tag_248\n      jumpi\n        /* \"https://github.com/chiru-labs/ERC721A/blob/main/contracts/ERC721A.sol\":12998:13015  _packedOwnerships */\n      0x04\n        /* \"https://github.com/chiru-labs/ERC721A/blob/main/contracts/ERC721A.sol\":12998:13024  _packedOwnerships[tokenId] */\n      0x00\n        /* \"https://github.com/chiru-labs/ERC721A/blob/main/contracts/ERC721A.sol\":13016:13023  tokenId */\n      dup4\n        /* \"https://github.com/chiru-labs/ERC721A/blob/main/contracts/ERC721A.sol\":12998:13024  _packedOwnerships[tokenId] */\n      dup2\n      mstore\n      0x20\n      add\n      swap1\n      dup2\n      mstore\n      0x20\n      add\n      0x00\n      keccak256\n      sload\n        /* \"https://github.com/chiru-labs/ERC721A/blob/main/contracts/ERC721A.sol\":12989:13024  packed = _packedOwnerships[tokenId] */\n      swap1\n      pop\n        /* \"https://github.com/chiru-labs/ERC721A/blob/main/contracts/ERC721A.sol\":13132:13133  0 */\n      0x00\n        /* \"https://github.com/chiru-labs/ERC721A/blob/main/contracts/ERC721A.sol\":13122:13128  packed */\n      dup2\n        /* \"https://github.com/chiru-labs/ERC721A/blob/main/contracts/ERC721A.sol\":13122:13133  packed == 0 */\n      sub\n        /* \"https://github.com/chiru-labs/ERC721A/blob/main/contracts/ERC721A.sol\":13118:14388  if (packed == 0) {... */\n      tag_249\n      jumpi\n        /* \"https://github.com/chiru-labs/ERC721A/blob/main/contracts/ERC721A.sol\":13168:13181  _currentIndex */\n      sload(0x00)\n        /* \"https://github.com/chiru-labs/ERC721A/blob/main/contracts/ERC721A.sol\":13157:13164  tokenId */\n      dup3\n        /* \"https://github.com/chiru-labs/ERC721A/blob/main/contracts/ERC721A.sol\":13157:13181  tokenId >= _currentIndex */\n      lt\n        /* \"https://github.com/chiru-labs/ERC721A/blob/main/contracts/ERC721A.sol\":13153:13230  if (tokenId >= _currentIndex) _revert(OwnerQueryForNonexistentToken.selector) */\n      tag_250\n      jumpi\n        /* \"https://github.com/chiru-labs/ERC721A/blob/main/contracts/ERC721A.sol\":13183:13230  _revert(OwnerQueryForNonexistentToken.selector) */\n      tag_251\n        /* \"https://github.com/chiru-labs/ERC721A/blob/main/contracts/ERC721A.sol\":13191:13229  OwnerQueryForNonexistentToken.selector */\n      shl(0xe0, 0xdf2d9b42)\n        /* \"https://github.com/chiru-labs/ERC721A/blob/main/contracts/ERC721A.sol\":13183:13190  _revert */\n      tag_129\n        /* \"https://github.com/chiru-labs/ERC721A/blob/main/contracts/ERC721A.sol\":13183:13230  _revert(OwnerQueryForNonexistentToken.selector) */\n      jump\t// in\n    tag_251:\n        /* \"https://github.com/chiru-labs/ERC721A/blob/main/contracts/ERC721A.sol\":13153:13230  if (tokenId >= _currentIndex) _revert(OwnerQueryForNonexistentToken.selector) */\n    tag_250:\n        /* \"https://github.com/chiru-labs/ERC721A/blob/main/contracts/ERC721A.sol\":13777:14374  for (;;) {... */\n    tag_252:\n        /* \"https://github.com/chiru-labs/ERC721A/blob/main/contracts/ERC721A.sol\":13853:13870  _packedOwnerships */\n      0x04\n        /* \"https://github.com/chiru-labs/ERC721A/blob/main/contracts/ERC721A.sol\":13853:13881  _packedOwnerships[--tokenId] */\n      0x00\n        /* \"https://github.com/chiru-labs/ERC721A/blob/main/contracts/ERC721A.sol\":13871:13880  --tokenId */\n      dup4\n      0x01\n      swap1\n      sub\n      swap4\n      pop\n      dup4\n        /* \"https://github.com/chiru-labs/ERC721A/blob/main/contracts/ERC721A.sol\":13853:13881  _packedOwnerships[--tokenId] */\n      dup2\n      mstore\n      0x20\n      add\n      swap1\n      dup2\n      mstore\n      0x20\n      add\n      0x00\n      keccak256\n      sload\n        /* \"https://github.com/chiru-labs/ERC721A/blob/main/contracts/ERC721A.sol\":13844:13881  packed = _packedOwnerships[--tokenId] */\n      swap1\n      pop\n        /* \"https://github.com/chiru-labs/ERC721A/blob/main/contracts/ERC721A.sol\":13939:13940  0 */\n      0x00\n        /* \"https://github.com/chiru-labs/ERC721A/blob/main/contracts/ERC721A.sol\":13929:13935  packed */\n      dup2\n        /* \"https://github.com/chiru-labs/ERC721A/blob/main/contracts/ERC721A.sol\":13929:13940  packed == 0 */\n      sub\n        /* \"https://github.com/chiru-labs/ERC721A/blob/main/contracts/ERC721A.sol\":13925:13950  if (packed == 0) continue */\n      iszero\n        /* \"https://github.com/chiru-labs/ERC721A/blob/main/contracts/ERC721A.sol\":13942:13950  continue */\n      tag_254\n        /* \"https://github.com/chiru-labs/ERC721A/blob/main/contracts/ERC721A.sol\":13925:13950  if (packed == 0) continue */\n      jumpi\n        /* \"https://github.com/chiru-labs/ERC721A/blob/main/contracts/ERC721A.sol\":14004:14005  0 */\n      0x00\n        /* \"https://github.com/chiru-labs/ERC721A/blob/main/contracts/ERC721A.sol\":2118:2126  1 << 224 */\n      0x0100000000000000000000000000000000000000000000000000000000\n        /* \"https://github.com/chiru-labs/ERC721A/blob/main/contracts/ERC721A.sol\":13976:13982  packed */\n      dup3\n        /* \"https://github.com/chiru-labs/ERC721A/blob/main/contracts/ERC721A.sol\":13976:14000  packed & _BITMASK_BURNED */\n      and\n        /* \"https://github.com/chiru-labs/ERC721A/blob/main/contracts/ERC721A.sol\":13976:14005  packed & _BITMASK_BURNED == 0 */\n      sub\n        /* \"https://github.com/chiru-labs/ERC721A/blob/main/contracts/ERC721A.sol\":13972:14020  if (packed & _BITMASK_BURNED == 0) return packed */\n      iszero\n        /* \"https://github.com/chiru-labs/ERC721A/blob/main/contracts/ERC721A.sol\":14007:14020  return packed */\n      tag_246\n        /* \"https://github.com/chiru-labs/ERC721A/blob/main/contracts/ERC721A.sol\":13972:14020  if (packed & _BITMASK_BURNED == 0) return packed */\n      jumpi\n        /* \"https://github.com/chiru-labs/ERC721A/blob/main/contracts/ERC721A.sol\":14308:14355  _revert(OwnerQueryForNonexistentToken.selector) */\n      tag_257\n        /* \"https://github.com/chiru-labs/ERC721A/blob/main/contracts/ERC721A.sol\":14316:14354  OwnerQueryForNonexistentToken.selector */\n      shl(0xe0, 0xdf2d9b42)\n        /* \"https://github.com/chiru-labs/ERC721A/blob/main/contracts/ERC721A.sol\":14308:14315  _revert */\n      tag_129\n        /* \"https://github.com/chiru-labs/ERC721A/blob/main/contracts/ERC721A.sol\":14308:14355  _revert(OwnerQueryForNonexistentToken.selector) */\n      jump\t// in\n    tag_257:\n        /* \"https://github.com/chiru-labs/ERC721A/blob/main/contracts/ERC721A.sol\":13777:14374  for (;;) {... */\n    tag_254:\n      jump(tag_252)\n        /* \"https://github.com/chiru-labs/ERC721A/blob/main/contracts/ERC721A.sol\":13118:14388  if (packed == 0) {... */\n    tag_249:\n        /* \"https://github.com/chiru-labs/ERC721A/blob/main/contracts/ERC721A.sol\":14738:14739  0 */\n      0x00\n        /* \"https://github.com/chiru-labs/ERC721A/blob/main/contracts/ERC721A.sol\":2118:2126  1 << 224 */\n      0x0100000000000000000000000000000000000000000000000000000000\n        /* \"https://github.com/chiru-labs/ERC721A/blob/main/contracts/ERC721A.sol\":14710:14716  packed */\n      dup3\n        /* \"https://github.com/chiru-labs/ERC721A/blob/main/contracts/ERC721A.sol\":14710:14734  packed & _BITMASK_BURNED */\n      and\n        /* \"https://github.com/chiru-labs/ERC721A/blob/main/contracts/ERC721A.sol\":14710:14739  packed & _BITMASK_BURNED == 0 */\n      sub\n        /* \"https://github.com/chiru-labs/ERC721A/blob/main/contracts/ERC721A.sol\":14706:14754  if (packed & _BITMASK_BURNED == 0) return packed */\n      iszero\n        /* \"https://github.com/chiru-labs/ERC721A/blob/main/contracts/ERC721A.sol\":14741:14754  return packed */\n      tag_246\n        /* \"https://github.com/chiru-labs/ERC721A/blob/main/contracts/ERC721A.sol\":14706:14754  if (packed & _BITMASK_BURNED == 0) return packed */\n      jumpi\n        /* \"https://github.com/chiru-labs/ERC721A/blob/main/contracts/ERC721A.sol\":12943:14765  if (_startTokenId() <= tokenId) {... */\n    tag_248:\n        /* \"https://github.com/chiru-labs/ERC721A/blob/main/contracts/ERC721A.sol\":14774:14821  _revert(OwnerQueryForNonexistentToken.selector) */\n      tag_259\n        /* \"https://github.com/chiru-labs/ERC721A/blob/main/contracts/ERC721A.sol\":14782:14820  OwnerQueryForNonexistentToken.selector */\n      shl(0xe0, 0xdf2d9b42)\n        /* \"https://github.com/chiru-labs/ERC721A/blob/main/contracts/ERC721A.sol\":14774:14781  _revert */\n      tag_129\n        /* \"https://github.com/chiru-labs/ERC721A/blob/main/contracts/ERC721A.sol\":14774:14821  _revert(OwnerQueryForNonexistentToken.selector) */\n      jump\t// in\n    tag_259:\n        /* \"https://github.com/chiru-labs/ERC721A/blob/main/contracts/ERC721A.sol\":12850:14828  function _packedOwnershipOf(uint256 tokenId) private view returns (uint256 packed) {... */\n    tag_246:\n      swap2\n      swap1\n      pop\n      jump\t// out\n        /* \"https://github.com/chiru-labs/ERC721A/blob/main/contracts/ERC721A.sol\":19471:19945  function _getApprovedSlotAndAddress(uint256 tokenId)... */\n    tag_142:\n        /* \"https://github.com/chiru-labs/ERC721A/blob/main/contracts/ERC721A.sol\":19570:19597  uint256 approvedAddressSlot */\n      0x00\n        /* \"https://github.com/chiru-labs/ERC721A/blob/main/contracts/ERC721A.sol\":19599:19622  address approvedAddress */\n      dup1\n        /* \"https://github.com/chiru-labs/ERC721A/blob/main/contracts/ERC721A.sol\":19638:19676  TokenApprovalRef storage tokenApproval */\n      0x00\n        /* \"https://github.com/chiru-labs/ERC721A/blob/main/contracts/ERC721A.sol\":19679:19694  _tokenApprovals */\n      0x06\n        /* \"https://github.com/chiru-labs/ERC721A/blob/main/contracts/ERC721A.sol\":19679:19703  _tokenApprovals[tokenId] */\n      0x00\n        /* \"https://github.com/chiru-labs/ERC721A/blob/main/contracts/ERC721A.sol\":19695:19702  tokenId */\n      dup6\n        /* \"https://github.com/chiru-labs/ERC721A/blob/main/contracts/ERC721A.sol\":19679:19703  _tokenApprovals[tokenId] */\n      dup2\n      mstore\n      0x20\n      add\n      swap1\n      dup2\n      mstore\n      0x20\n      add\n      0x00\n      keccak256\n        /* \"https://github.com/chiru-labs/ERC721A/blob/main/contracts/ERC721A.sol\":19638:19703  TokenApprovalRef storage tokenApproval = _tokenApprovals[tokenId] */\n      swap1\n      pop\n        /* \"https://github.com/chiru-labs/ERC721A/blob/main/contracts/ERC721A.sol\":19853:19871  tokenApproval.slot */\n      dup1\n        /* \"https://github.com/chiru-labs/ERC721A/blob/main/contracts/ERC721A.sol\":19830:19871  approvedAddressSlot := tokenApproval.slot */\n      swap3\n      pop\n        /* \"https://github.com/chiru-labs/ERC721A/blob/main/contracts/ERC721A.sol\":19909:19928  approvedAddressSlot */\n      dup3\n        /* \"https://github.com/chiru-labs/ERC721A/blob/main/contracts/ERC721A.sol\":19903:19929  sload(approvedAddressSlot) */\n      sload\n        /* \"https://github.com/chiru-labs/ERC721A/blob/main/contracts/ERC721A.sol\":19884:19929  approvedAddress := sload(approvedAddressSlot) */\n      swap2\n      pop\n        /* \"https://github.com/chiru-labs/ERC721A/blob/main/contracts/ERC721A.sol\":19816:19939  {... */\n      pop\n        /* \"https://github.com/chiru-labs/ERC721A/blob/main/contracts/ERC721A.sol\":19471:19945  function _getApprovedSlotAndAddress(uint256 tokenId)... */\n      swap2\n      pop\n      swap2\n      jump\t// out\n        /* \"https://github.com/chiru-labs/ERC721A/blob/main/contracts/ERC721A.sol\":41401:41504  function _msgSenderERC721A() internal view virtual returns (address) {... */\n    tag_145:\n        /* \"https://github.com/chiru-labs/ERC721A/blob/main/contracts/ERC721A.sol\":41461:41468  address */\n      0x00\n        /* \"https://github.com/chiru-labs/ERC721A/blob/main/contracts/ERC721A.sol\":41487:41497  msg.sender */\n      caller\n        /* \"https://github.com/chiru-labs/ERC721A/blob/main/contracts/ERC721A.sol\":41480:41497  return msg.sender */\n      swap1\n      pop\n        /* \"https://github.com/chiru-labs/ERC721A/blob/main/contracts/ERC721A.sol\":41401:41504  function _msgSenderERC721A() internal view virtual returns (address) {... */\n      swap1\n      jump\t// out\n        /* \"https://github.com/chiru-labs/ERC721A/blob/main/contracts/ERC721A.sol\":18717:19363  function _isSenderApprovedOrOwner(... */\n    tag_146:\n        /* \"https://github.com/chiru-labs/ERC721A/blob/main/contracts/ERC721A.sol\":18862:18873  bool result */\n      0x00\n        /* \"https://github.com/chiru-labs/ERC721A/blob/main/contracts/ERC721A.sol\":19024:19040  _BITMASK_ADDRESS */\n      0xffffffffffffffffffffffffffffffffffffffff\n        /* \"https://github.com/chiru-labs/ERC721A/blob/main/contracts/ERC721A.sol\":19017:19022  owner */\n      dup4\n        /* \"https://github.com/chiru-labs/ERC721A/blob/main/contracts/ERC721A.sol\":19013:19041  and(owner, _BITMASK_ADDRESS) */\n      and\n        /* \"https://github.com/chiru-labs/ERC721A/blob/main/contracts/ERC721A.sol\":19004:19041  owner := and(owner, _BITMASK_ADDRESS) */\n      swap3\n      pop\n        /* \"https://github.com/chiru-labs/ERC721A/blob/main/contracts/ERC721A.sol\":19182:19198  _BITMASK_ADDRESS */\n      0xffffffffffffffffffffffffffffffffffffffff\n        /* \"https://github.com/chiru-labs/ERC721A/blob/main/contracts/ERC721A.sol\":19171:19180  msgSender */\n      dup3\n        /* \"https://github.com/chiru-labs/ERC721A/blob/main/contracts/ERC721A.sol\":19167:19199  and(msgSender, _BITMASK_ADDRESS) */\n      and\n        /* \"https://github.com/chiru-labs/ERC721A/blob/main/contracts/ERC721A.sol\":19154:19199  msgSender := and(msgSender, _BITMASK_ADDRESS) */\n      swap2\n      pop\n        /* \"https://github.com/chiru-labs/ERC721A/blob/main/contracts/ERC721A.sol\":19330:19345  approvedAddress */\n      dup4\n        /* \"https://github.com/chiru-labs/ERC721A/blob/main/contracts/ERC721A.sol\":19319:19328  msgSender */\n      dup3\n        /* \"https://github.com/chiru-labs/ERC721A/blob/main/contracts/ERC721A.sol\":19316:19346  eq(msgSender, approvedAddress) */\n      eq\n        /* \"https://github.com/chiru-labs/ERC721A/blob/main/contracts/ERC721A.sol\":19308:19313  owner */\n      dup4\n        /* \"https://github.com/chiru-labs/ERC721A/blob/main/contracts/ERC721A.sol\":19297:19306  msgSender */\n      dup4\n        /* \"https://github.com/chiru-labs/ERC721A/blob/main/contracts/ERC721A.sol\":19294:19314  eq(msgSender, owner) */\n      eq\n        /* \"https://github.com/chiru-labs/ERC721A/blob/main/contracts/ERC721A.sol\":19291:19347  or(eq(msgSender, owner), eq(msgSender, approvedAddress)) */\n      or\n        /* \"https://github.com/chiru-labs/ERC721A/blob/main/contracts/ERC721A.sol\":19281:19347  result := or(eq(msgSender, owner), eq(msgSender, approvedAddress)) */\n      swap1\n      pop\n        /* \"https://github.com/chiru-labs/ERC721A/blob/main/contracts/ERC721A.sol\":18717:19363  function _isSenderApprovedOrOwner(... */\n      swap4\n      swap3\n      pop\n      pop\n      pop\n      jump\t// out\n        /* \"https://github.com/chiru-labs/ERC721A/blob/main/contracts/ERC721A.sol\":25901:26055  function _beforeTokenTransfers(... */\n    tag_153:\n      pop\n      pop\n      pop\n      pop\n      jump\t// out\n        /* \"https://github.com/chiru-labs/ERC721A/blob/main/contracts/ERC721A.sol\":40728:41032  function _nextExtraData(... */\n    tag_157:\n        /* \"https://github.com/chiru-labs/ERC721A/blob/main/contracts/ERC721A.sol\":40859:40866  uint256 */\n      0x00\n        /* \"https://github.com/chiru-labs/ERC721A/blob/main/contracts/ERC721A.sol\":40878:40894  uint24 extraData */\n      dup1\n        /* \"https://github.com/chiru-labs/ERC721A/blob/main/contracts/ERC721A.sol\":2513:2516  232 */\n      0xe8\n        /* \"https://github.com/chiru-labs/ERC721A/blob/main/contracts/ERC721A.sol\":40904:40923  prevOwnershipPacked */\n      dup4\n        /* \"https://github.com/chiru-labs/ERC721A/blob/main/contracts/ERC721A.sol\":40904:40945  prevOwnershipPacked >> _BITPOS_EXTRA_DATA */\n      swap1\n      shr\n        /* \"https://github.com/chiru-labs/ERC721A/blob/main/contracts/ERC721A.sol\":40878:40946  uint24 extraData = uint24(prevOwnershipPacked >> _BITPOS_EXTRA_DATA) */\n      swap1\n      pop\n        /* \"https://github.com/chiru-labs/ERC721A/blob/main/contracts/ERC721A.sol\":2513:2516  232 */\n      0xe8\n        /* \"https://github.com/chiru-labs/ERC721A/blob/main/contracts/ERC721A.sol\":40971:41002  _extraData(from, to, extraData) */\n      tag_265\n        /* \"https://github.com/chiru-labs/ERC721A/blob/main/contracts/ERC721A.sol\":40982:40986  from */\n      dup7\n        /* \"https://github.com/chiru-labs/ERC721A/blob/main/contracts/ERC721A.sol\":40988:40990  to */\n      dup7\n        /* \"https://github.com/chiru-labs/ERC721A/blob/main/contracts/ERC721A.sol\":40992:41001  extraData */\n      dup5\n        /* \"https://github.com/chiru-labs/ERC721A/blob/main/contracts/ERC721A.sol\":40971:40981  _extraData */\n      tag_266\n        /* \"https://github.com/chiru-labs/ERC721A/blob/main/contracts/ERC721A.sol\":40971:41002  _extraData(from, to, extraData) */\n      jump\t// in\n    tag_265:\n        /* \"https://github.com/chiru-labs/ERC721A/blob/main/contracts/ERC721A.sol\":40963:41003  uint256(_extraData(from, to, extraData)) */\n      0xffffff\n      and\n        /* \"https://github.com/chiru-labs/ERC721A/blob/main/contracts/ERC721A.sol\":40963:41025  uint256(_extraData(from, to, extraData)) << _BITPOS_EXTRA_DATA */\n      swap1\n      shl\n        /* \"https://github.com/chiru-labs/ERC721A/blob/main/contracts/ERC721A.sol\":40956:41025  return uint256(_extraData(from, to, extraData)) << _BITPOS_EXTRA_DATA */\n      swap2\n      pop\n      pop\n        /* \"https://github.com/chiru-labs/ERC721A/blob/main/contracts/ERC721A.sol\":40728:41032  function _nextExtraData(... */\n      swap4\n      swap3\n      pop\n      pop\n      pop\n      jump\t// out\n        /* \"https://github.com/chiru-labs/ERC721A/blob/main/contracts/ERC721A.sol\":15361:15804  function _packOwnershipData(address owner, uint256 flags) private view returns (uint256 result) {... */\n    tag_158:\n        /* \"https://github.com/chiru-labs/ERC721A/blob/main/contracts/ERC721A.sol\":15441:15455  uint256 result */\n      0x00\n        /* \"https://github.com/chiru-labs/ERC721A/blob/main/contracts/ERC721A.sol\":15606:15622  _BITMASK_ADDRESS */\n      0xffffffffffffffffffffffffffffffffffffffff\n        /* \"https://github.com/chiru-labs/ERC721A/blob/main/contracts/ERC721A.sol\":15599:15604  owner */\n      dup4\n        /* \"https://github.com/chiru-labs/ERC721A/blob/main/contracts/ERC721A.sol\":15595:15623  and(owner, _BITMASK_ADDRESS) */\n      and\n        /* \"https://github.com/chiru-labs/ERC721A/blob/main/contracts/ERC721A.sol\":15586:15623  owner := and(owner, _BITMASK_ADDRESS) */\n      swap3\n      pop\n        /* \"https://github.com/chiru-labs/ERC721A/blob/main/contracts/ERC721A.sol\":15781:15786  flags */\n      dup2\n        /* \"https://github.com/chiru-labs/ERC721A/blob/main/contracts/ERC721A.sol\":15767:15778  timestamp() */\n      timestamp\n        /* \"https://github.com/chiru-labs/ERC721A/blob/main/contracts/ERC721A.sol\":15742:15765  _BITPOS_START_TIMESTAMP */\n      0xa0\n        /* \"https://github.com/chiru-labs/ERC721A/blob/main/contracts/ERC721A.sol\":15738:15779  shl(_BITPOS_START_TIMESTAMP, timestamp()) */\n      shl\n        /* \"https://github.com/chiru-labs/ERC721A/blob/main/contracts/ERC721A.sol\":15735:15787  or(shl(_BITPOS_START_TIMESTAMP, timestamp()), flags) */\n      or\n        /* \"https://github.com/chiru-labs/ERC721A/blob/main/contracts/ERC721A.sol\":15728:15733  owner */\n      dup4\n        /* \"https://github.com/chiru-labs/ERC721A/blob/main/contracts/ERC721A.sol\":15725:15788  or(owner, or(shl(_BITPOS_START_TIMESTAMP, timestamp()), flags)) */\n      or\n        /* \"https://github.com/chiru-labs/ERC721A/blob/main/contracts/ERC721A.sol\":15715:15788  result := or(owner, or(shl(_BITPOS_START_TIMESTAMP, timestamp()), flags)) */\n      swap1\n      pop\n        /* \"https://github.com/chiru-labs/ERC721A/blob/main/contracts/ERC721A.sol\":15361:15804  function _packOwnershipData(address owner, uint256 flags) private view returns (uint256 result) {... */\n      swap3\n      swap2\n      pop\n      pop\n      jump\t// out\n        /* \"https://github.com/chiru-labs/ERC721A/blob/main/contracts/ERC721A.sol\":26702:26855  function _afterTokenTransfers(... */\n    tag_165:\n      pop\n      pop\n      pop\n      pop\n      jump\t// out\n        /* \"@openzeppelin/contracts/access/Ownable.sol\":2426:2613  function _transferOwnership(address newOwner) internal virtual {... */\n    tag_177:\n        /* \"@openzeppelin/contracts/access/Ownable.sol\":2499:2515  address oldOwner */\n      0x00\n        /* \"@openzeppelin/contracts/access/Ownable.sol\":2518:2524  _owner */\n      0x08\n      0x00\n      swap1\n      sload\n      swap1\n      0x0100\n      exp\n      swap1\n      div\n      0xffffffffffffffffffffffffffffffffffffffff\n      and\n        /* \"@openzeppelin/contracts/access/Ownable.sol\":2499:2524  address oldOwner = _owner */\n      swap1\n      pop\n        /* \"@openzeppelin/contracts/access/Ownable.sol\":2543:2551  newOwner */\n      dup2\n        /* \"@openzeppelin/contracts/access/Ownable.sol\":2534:2540  _owner */\n      0x08\n      0x00\n        /* \"@openzeppelin/contracts/access/Ownable.sol\":2534:2551  _owner = newOwner */\n      0x0100\n      exp\n      dup2\n      sload\n      dup2\n      0xffffffffffffffffffffffffffffffffffffffff\n      mul\n      not\n      and\n      swap1\n      dup4\n      0xffffffffffffffffffffffffffffffffffffffff\n      and\n      mul\n      or\n      swap1\n      sstore\n      pop\n        /* \"@openzeppelin/contracts/access/Ownable.sol\":2597:2605  newOwner */\n      dup2\n        /* \"@openzeppelin/contracts/access/Ownable.sol\":2566:2606  OwnershipTransferred(oldOwner, newOwner) */\n      0xffffffffffffffffffffffffffffffffffffffff\n      and\n        /* \"@openzeppelin/contracts/access/Ownable.sol\":2587:2595  oldOwner */\n      dup2\n        /* \"@openzeppelin/contracts/access/Ownable.sol\":2566:2606  OwnershipTransferred(oldOwner, newOwner) */\n      0xffffffffffffffffffffffffffffffffffffffff\n      and\n      0x8be0079c531659141344cd1fd0a4f28419497f9722a3daafe3b4186f6b6457e0\n      mload(0x40)\n      mload(0x40)\n      dup1\n      swap2\n      sub\n      swap1\n      log3\n        /* \"@openzeppelin/contracts/access/Ownable.sol\":2489:2613  {... */\n      pop\n        /* \"@openzeppelin/contracts/access/Ownable.sol\":2426:2613  function _transferOwnership(address newOwner) internal virtual {... */\n      pop\n      jump\t// out\n        /* \"https://github.com/chiru-labs/ERC721A/blob/main/contracts/ERC721A.sol\":27283:27956  function _checkContractOnERC721Received(... */\n    tag_193:\n        /* \"https://github.com/chiru-labs/ERC721A/blob/main/contracts/ERC721A.sol\":27441:27445  bool */\n      0x00\n        /* \"https://github.com/chiru-labs/ERC721A/blob/main/contracts/ERC721A.sol\":27486:27488  to */\n      dup4\n        /* \"https://github.com/chiru-labs/ERC721A/blob/main/contracts/ERC721A.sol\":27461:27506  ERC721A__IERC721Receiver(to).onERC721Received */\n      0xffffffffffffffffffffffffffffffffffffffff\n      and\n      0x150b7a02\n        /* \"https://github.com/chiru-labs/ERC721A/blob/main/contracts/ERC721A.sol\":27507:27526  _msgSenderERC721A() */\n      tag_271\n        /* \"https://github.com/chiru-labs/ERC721A/blob/main/contracts/ERC721A.sol\":27507:27524  _msgSenderERC721A */\n      tag_145\n        /* \"https://github.com/chiru-labs/ERC721A/blob/main/contracts/ERC721A.sol\":27507:27526  _msgSenderERC721A() */\n      jump\t// in\n    tag_271:\n        /* \"https://github.com/chiru-labs/ERC721A/blob/main/contracts/ERC721A.sol\":27528:27532  from */\n      dup8\n        /* \"https://github.com/chiru-labs/ERC721A/blob/main/contracts/ERC721A.sol\":27534:27541  tokenId */\n      dup7\n        /* \"https://github.com/chiru-labs/ERC721A/blob/main/contracts/ERC721A.sol\":27543:27548  _data */\n      dup7\n        /* \"https://github.com/chiru-labs/ERC721A/blob/main/contracts/ERC721A.sol\":27461:27549  ERC721A__IERC721Receiver(to).onERC721Received(_msgSenderERC721A(), from, tokenId, _data) */\n      mload(0x40)\n      dup6\n      0xffffffff\n      and\n      0xe0\n      shl\n      dup2\n      mstore\n      0x04\n      add\n      tag_272\n      swap5\n      swap4\n      swap3\n      swap2\n      swap1\n      tag_273\n      jump\t// in\n    tag_272:\n      0x20\n      mload(0x40)\n      dup1\n      dup4\n      sub\n      dup2\n      0x00\n      dup8\n      gas\n      call\n      swap3\n      pop\n      pop\n      pop\n      dup1\n      iszero\n      tag_274\n      jumpi\n      pop\n      mload(0x40)\n      returndatasize\n      not(0x1f)\n      0x1f\n      dup3\n      add\n      and\n      dup3\n      add\n      dup1\n      0x40\n      mstore\n      pop\n      dup2\n      add\n      swap1\n      tag_275\n      swap2\n      swap1\n      tag_276\n      jump\t// in\n    tag_275:\n      0x01\n    tag_274:\n        /* \"https://github.com/chiru-labs/ERC721A/blob/main/contracts/ERC721A.sol\":27457:27950  try ERC721A__IERC721Receiver(to).onERC721Received(_msgSenderERC721A(), from, tokenId, _data) returns (... */\n      tag_277\n      jumpi\n      returndatasize\n      dup1\n      0x00\n      dup2\n      eq\n      tag_282\n      jumpi\n      mload(0x40)\n      swap2\n      pop\n      and(add(returndatasize, 0x3f), not(0x1f))\n      dup3\n      add\n      0x40\n      mstore\n      returndatasize\n      dup3\n      mstore\n      returndatasize\n      0x00\n      0x20\n      dup5\n      add\n      returndatacopy\n      jump(tag_281)\n    tag_282:\n      0x60\n      swap2\n      pop\n    tag_281:\n      pop\n        /* \"https://github.com/chiru-labs/ERC721A/blob/main/contracts/ERC721A.sol\":27756:27757  0 */\n      0x00\n        /* \"https://github.com/chiru-labs/ERC721A/blob/main/contracts/ERC721A.sol\":27739:27745  reason */\n      dup2\n        /* \"https://github.com/chiru-labs/ERC721A/blob/main/contracts/ERC721A.sol\":27739:27752  reason.length */\n      mload\n        /* \"https://github.com/chiru-labs/ERC721A/blob/main/contracts/ERC721A.sol\":27739:27757  reason.length == 0 */\n      sub\n        /* \"https://github.com/chiru-labs/ERC721A/blob/main/contracts/ERC721A.sol\":27735:27848  if (reason.length == 0) {... */\n      tag_283\n      jumpi\n        /* \"https://github.com/chiru-labs/ERC721A/blob/main/contracts/ERC721A.sol\":27777:27833  _revert(TransferToNonERC721ReceiverImplementer.selector) */\n      tag_284\n        /* \"https://github.com/chiru-labs/ERC721A/blob/main/contracts/ERC721A.sol\":27785:27832  TransferToNonERC721ReceiverImplementer.selector */\n      shl(0xe0, 0xd1a57ed6)\n        /* \"https://github.com/chiru-labs/ERC721A/blob/main/contracts/ERC721A.sol\":27777:27784  _revert */\n      tag_129\n        /* \"https://github.com/chiru-labs/ERC721A/blob/main/contracts/ERC721A.sol\":27777:27833  _revert(TransferToNonERC721ReceiverImplementer.selector) */\n      jump\t// in\n    tag_284:\n        /* \"https://github.com/chiru-labs/ERC721A/blob/main/contracts/ERC721A.sol\":27735:27848  if (reason.length == 0) {... */\n    tag_283:\n        /* \"https://github.com/chiru-labs/ERC721A/blob/main/contracts/ERC721A.sol\":27918:27924  reason */\n      dup1\n        /* \"https://github.com/chiru-labs/ERC721A/blob/main/contracts/ERC721A.sol\":27912:27925  mload(reason) */\n      mload\n        /* \"https://github.com/chiru-labs/ERC721A/blob/main/contracts/ERC721A.sol\":27903:27909  reason */\n      dup2\n        /* \"https://github.com/chiru-labs/ERC721A/blob/main/contracts/ERC721A.sol\":27899:27901  32 */\n      0x20\n        /* \"https://github.com/chiru-labs/ERC721A/blob/main/contracts/ERC721A.sol\":27895:27910  add(32, reason) */\n      add\n        /* \"https://github.com/chiru-labs/ERC721A/blob/main/contracts/ERC721A.sol\":27888:27926  revert(add(32, reason), mload(reason)) */\n      revert\n        /* \"https://github.com/chiru-labs/ERC721A/blob/main/contracts/ERC721A.sol\":27457:27950  try ERC721A__IERC721Receiver(to).onERC721Received(_msgSenderERC721A(), from, tokenId, _data) returns (... */\n    tag_277:\n        /* \"https://github.com/chiru-labs/ERC721A/blob/main/contracts/ERC721A.sol\":27627:27681  ERC721A__IERC721Receiver(to).onERC721Received.selector */\n      shl(0xe0, 0x150b7a02)\n        /* \"https://github.com/chiru-labs/ERC721A/blob/main/contracts/ERC721A.sol\":27617:27681  retval == ERC721A__IERC721Receiver(to).onERC721Received.selector */\n      not(0xffffffffffffffffffffffffffffffffffffffffffffffffffffffff)\n      and\n        /* \"https://github.com/chiru-labs/ERC721A/blob/main/contracts/ERC721A.sol\":27617:27623  retval */\n      dup2\n        /* \"https://github.com/chiru-labs/ERC721A/blob/main/contracts/ERC721A.sol\":27617:27681  retval == ERC721A__IERC721Receiver(to).onERC721Received.selector */\n      not(0xffffffffffffffffffffffffffffffffffffffffffffffffffffffff)\n      and\n      eq\n        /* \"https://github.com/chiru-labs/ERC721A/blob/main/contracts/ERC721A.sol\":27610:27681  return retval == ERC721A__IERC721Receiver(to).onERC721Received.selector */\n      swap2\n      pop\n      pop\n        /* \"https://github.com/chiru-labs/ERC721A/blob/main/contracts/ERC721A.sol\":27283:27956  function _checkContractOnERC721Received(... */\n      swap5\n      swap4\n      pop\n      pop\n      pop\n      pop\n      jump\t// out\n        /* \"erc721atest.sol\":280:427  function _baseURI() internal pure override returns (string memory) {... */\n    tag_201:\n        /* \"erc721atest.sol\":332:345  string memory */\n      0x60\n        /* \"erc721atest.sol\":357:420  return \"ipfs://Qmac89sZTSGvKkyYa2vrxdRakPREaGFJSNJRRWetzTLQTM/\" */\n      mload(0x40)\n      dup1\n      0x60\n      add\n      0x40\n      mstore\n      dup1\n      0x36\n      dup2\n      mstore\n      0x20\n      add\n      data_1250311f865916c0c48ec18be7711c5b67f23674d6e827435103b8b03cf0ba32\n      0x36\n      swap2\n      codecopy\n      swap1\n      pop\n        /* \"erc721atest.sol\":280:427  function _baseURI() internal pure override returns (string memory) {... */\n      swap1\n      jump\t// out\n        /* \"https://github.com/chiru-labs/ERC721A/blob/main/contracts/ERC721A.sol\":41601:43309  function _toString(uint256 value) internal pure virtual returns (string memory str) {... */\n    tag_206:\n        /* \"https://github.com/chiru-labs/ERC721A/blob/main/contracts/ERC721A.sol\":41666:41683  string memory str */\n      0x60\n        /* \"https://github.com/chiru-labs/ERC721A/blob/main/contracts/ERC721A.sol\":42094:42098  0xa0 */\n      0xa0\n        /* \"https://github.com/chiru-labs/ERC721A/blob/main/contracts/ERC721A.sol\":42087:42091  0x40 */\n      0x40\n        /* \"https://github.com/chiru-labs/ERC721A/blob/main/contracts/ERC721A.sol\":42081:42092  mload(0x40) */\n      mload\n        /* \"https://github.com/chiru-labs/ERC721A/blob/main/contracts/ERC721A.sol\":42077:42099  add(mload(0x40), 0xa0) */\n      add\n        /* \"https://github.com/chiru-labs/ERC721A/blob/main/contracts/ERC721A.sol\":42184:42185  m */\n      dup1\n        /* \"https://github.com/chiru-labs/ERC721A/blob/main/contracts/ERC721A.sol\":42178:42182  0x40 */\n      0x40\n        /* \"https://github.com/chiru-labs/ERC721A/blob/main/contracts/ERC721A.sol\":42171:42186  mstore(0x40, m) */\n      mstore\n        /* \"https://github.com/chiru-labs/ERC721A/blob/main/contracts/ERC721A.sol\":42257:42261  0x20 */\n      0x20\n        /* \"https://github.com/chiru-labs/ERC721A/blob/main/contracts/ERC721A.sol\":42254:42255  m */\n      dup2\n        /* \"https://github.com/chiru-labs/ERC721A/blob/main/contracts/ERC721A.sol\":42250:42262  sub(m, 0x20) */\n      sub\n        /* \"https://github.com/chiru-labs/ERC721A/blob/main/contracts/ERC721A.sol\":42243:42262  str := sub(m, 0x20) */\n      swap2\n      pop\n        /* \"https://github.com/chiru-labs/ERC721A/blob/main/contracts/ERC721A.sol\":42337:42338  0 */\n      0x00\n        /* \"https://github.com/chiru-labs/ERC721A/blob/main/contracts/ERC721A.sol\":42332:42335  str */\n      dup3\n        /* \"https://github.com/chiru-labs/ERC721A/blob/main/contracts/ERC721A.sol\":42325:42339  mstore(str, 0) */\n      mstore\n        /* \"https://github.com/chiru-labs/ERC721A/blob/main/contracts/ERC721A.sol\":42438:42441  str */\n      dup2\n        /* \"https://github.com/chiru-labs/ERC721A/blob/main/contracts/ERC721A.sol\":42672:42677  value */\n      dup4\n        /* \"https://github.com/chiru-labs/ERC721A/blob/main/contracts/ERC721A.sol\":42654:43073  for { let temp := value } 1 {} {... */\n    tag_288:\n        /* \"https://github.com/chiru-labs/ERC721A/blob/main/contracts/ERC721A.sol\":42680:42681  1 */\n      0x01\n        /* \"https://github.com/chiru-labs/ERC721A/blob/main/contracts/ERC721A.sol\":42654:43073  for { let temp := value } 1 {} {... */\n      iszero\n      tag_290\n      jumpi\n        /* \"https://github.com/chiru-labs/ERC721A/blob/main/contracts/ERC721A.sol\":42719:42720  1 */\n      0x01\n        /* \"https://github.com/chiru-labs/ERC721A/blob/main/contracts/ERC721A.sol\":42714:42717  str */\n      dup5\n        /* \"https://github.com/chiru-labs/ERC721A/blob/main/contracts/ERC721A.sol\":42710:42721  sub(str, 1) */\n      sub\n        /* \"https://github.com/chiru-labs/ERC721A/blob/main/contracts/ERC721A.sol\":42703:42721  str := sub(str, 1) */\n      swap4\n      pop\n        /* \"https://github.com/chiru-labs/ERC721A/blob/main/contracts/ERC721A.sol\":42887:42889  10 */\n      0x0a\n        /* \"https://github.com/chiru-labs/ERC721A/blob/main/contracts/ERC721A.sol\":42881:42885  temp */\n      dup2\n        /* \"https://github.com/chiru-labs/ERC721A/blob/main/contracts/ERC721A.sol\":42877:42890  mod(temp, 10) */\n      mod\n        /* \"https://github.com/chiru-labs/ERC721A/blob/main/contracts/ERC721A.sol\":42873:42875  48 */\n      0x30\n        /* \"https://github.com/chiru-labs/ERC721A/blob/main/contracts/ERC721A.sol\":42869:42891  add(48, mod(temp, 10)) */\n      add\n        /* \"https://github.com/chiru-labs/ERC721A/blob/main/contracts/ERC721A.sol\":42864:42867  str */\n      dup5\n        /* \"https://github.com/chiru-labs/ERC721A/blob/main/contracts/ERC721A.sol\":42856:42892  mstore8(str, add(48, mod(temp, 10))) */\n      mstore8\n        /* \"https://github.com/chiru-labs/ERC721A/blob/main/contracts/ERC721A.sol\":42979:42981  10 */\n      0x0a\n        /* \"https://github.com/chiru-labs/ERC721A/blob/main/contracts/ERC721A.sol\":42973:42977  temp */\n      dup2\n        /* \"https://github.com/chiru-labs/ERC721A/blob/main/contracts/ERC721A.sol\":42969:42982  div(temp, 10) */\n      div\n        /* \"https://github.com/chiru-labs/ERC721A/blob/main/contracts/ERC721A.sol\":42961:42982  temp := div(temp, 10) */\n      swap1\n      pop\n        /* \"https://github.com/chiru-labs/ERC721A/blob/main/contracts/ERC721A.sol\":43044:43048  temp */\n      dup1\n        /* \"https://github.com/chiru-labs/ERC721A/blob/main/contracts/ERC721A.sol\":42654:43073  for { let temp := value } 1 {} {... */\n      tag_288\n        /* \"https://github.com/chiru-labs/ERC721A/blob/main/contracts/ERC721A.sol\":43034:43059  if iszero(temp) { break } */\n      jumpi\n        /* \"https://github.com/chiru-labs/ERC721A/blob/main/contracts/ERC721A.sol\":42654:43073  for { let temp := value } 1 {} {... */\n    tag_290:\n        /* \"https://github.com/chiru-labs/ERC721A/blob/main/contracts/ERC721A.sol\":42658:42679  { let temp := value } */\n      pop\n        /* \"https://github.com/chiru-labs/ERC721A/blob/main/contracts/ERC721A.sol\":43110:43113  str */\n      dup3\n        /* \"https://github.com/chiru-labs/ERC721A/blob/main/contracts/ERC721A.sol\":43105:43108  end */\n      dup2\n        /* \"https://github.com/chiru-labs/ERC721A/blob/main/contracts/ERC721A.sol\":43101:43114  sub(end, str) */\n      sub\n        /* \"https://github.com/chiru-labs/ERC721A/blob/main/contracts/ERC721A.sol\":43223:43227  0x20 */\n      0x20\n        /* \"https://github.com/chiru-labs/ERC721A/blob/main/contracts/ERC721A.sol\":43218:43221  str */\n      dup5\n        /* \"https://github.com/chiru-labs/ERC721A/blob/main/contracts/ERC721A.sol\":43214:43228  sub(str, 0x20) */\n      sub\n        /* \"https://github.com/chiru-labs/ERC721A/blob/main/contracts/ERC721A.sol\":43207:43228  str := sub(str, 0x20) */\n      swap4\n      pop\n        /* \"https://github.com/chiru-labs/ERC721A/blob/main/contracts/ERC721A.sol\":43286:43292  length */\n      dup1\n        /* \"https://github.com/chiru-labs/ERC721A/blob/main/contracts/ERC721A.sol\":43281:43284  str */\n      dup5\n        /* \"https://github.com/chiru-labs/ERC721A/blob/main/contracts/ERC721A.sol\":43274:43293  mstore(str, length) */\n      mstore\n        /* \"https://github.com/chiru-labs/ERC721A/blob/main/contracts/ERC721A.sol\":41704:43303  {... */\n      pop\n      pop\n      pop\n        /* \"https://github.com/chiru-labs/ERC721A/blob/main/contracts/ERC721A.sol\":41601:43309  function _toString(uint256 value) internal pure virtual returns (string memory str) {... */\n      swap2\n      swap1\n      pop\n      jump\t// out\n        /* \"@openzeppelin/contracts/utils/Context.sol\":640:736  function _msgSender() internal view virtual returns (address) {... */\n    tag_219:\n        /* \"@openzeppelin/contracts/utils/Context.sol\":693:700  address */\n      0x00\n        /* \"@openzeppelin/contracts/utils/Context.sol\":719:729  msg.sender */\n      caller\n        /* \"@openzeppelin/contracts/utils/Context.sol\":712:729  return msg.sender */\n      swap1\n      pop\n        /* \"@openzeppelin/contracts/utils/Context.sol\":640:736  function _msgSender() internal view virtual returns (address) {... */\n      swap1\n      jump\t// out\n        /* \"https://github.com/chiru-labs/ERC721A/blob/main/contracts/ERC721A.sol\":33362:34050  function _safeMint(... */\n    tag_226:\n        /* \"https://github.com/chiru-labs/ERC721A/blob/main/contracts/ERC721A.sol\":33488:33507  _mint(to, quantity) */\n      tag_294\n        /* \"https://github.com/chiru-labs/ERC721A/blob/main/contracts/ERC721A.sol\":33494:33496  to */\n      dup4\n        /* \"https://github.com/chiru-labs/ERC721A/blob/main/contracts/ERC721A.sol\":33498:33506  quantity */\n      dup4\n        /* \"https://github.com/chiru-labs/ERC721A/blob/main/contracts/ERC721A.sol\":33488:33493  _mint */\n      tag_295\n        /* \"https://github.com/chiru-labs/ERC721A/blob/main/contracts/ERC721A.sol\":33488:33507  _mint(to, quantity) */\n      jump\t// in\n    tag_294:\n        /* \"https://github.com/chiru-labs/ERC721A/blob/main/contracts/ERC721A.sol\":33564:33565  0 */\n      0x00\n        /* \"https://github.com/chiru-labs/ERC721A/blob/main/contracts/ERC721A.sol\":33546:33548  to */\n      dup4\n        /* \"https://github.com/chiru-labs/ERC721A/blob/main/contracts/ERC721A.sol\":33546:33560  to.code.length */\n      0xffffffffffffffffffffffffffffffffffffffff\n      and\n      extcodesize\n        /* \"https://github.com/chiru-labs/ERC721A/blob/main/contracts/ERC721A.sol\":33546:33565  to.code.length != 0 */\n      eq\n        /* \"https://github.com/chiru-labs/ERC721A/blob/main/contracts/ERC721A.sol\":33542:34034  if (to.code.length != 0) {... */\n      tag_296\n      jumpi\n        /* \"https://github.com/chiru-labs/ERC721A/blob/main/contracts/ERC721A.sol\":33585:33596  uint256 end */\n      0x00\n        /* \"https://github.com/chiru-labs/ERC721A/blob/main/contracts/ERC721A.sol\":33599:33612  _currentIndex */\n      dup1\n      sload\n        /* \"https://github.com/chiru-labs/ERC721A/blob/main/contracts/ERC721A.sol\":33585:33612  uint256 end = _currentIndex */\n      swap1\n      pop\n        /* \"https://github.com/chiru-labs/ERC721A/blob/main/contracts/ERC721A.sol\":33630:33643  uint256 index */\n      0x00\n        /* \"https://github.com/chiru-labs/ERC721A/blob/main/contracts/ERC721A.sol\":33652:33660  quantity */\n      dup4\n        /* \"https://github.com/chiru-labs/ERC721A/blob/main/contracts/ERC721A.sol\":33646:33649  end */\n      dup3\n        /* \"https://github.com/chiru-labs/ERC721A/blob/main/contracts/ERC721A.sol\":33646:33660  end - quantity */\n      sub\n        /* \"https://github.com/chiru-labs/ERC721A/blob/main/contracts/ERC721A.sol\":33630:33660  uint256 index = end - quantity */\n      swap1\n      pop\n        /* \"https://github.com/chiru-labs/ERC721A/blob/main/contracts/ERC721A.sol\":33678:33916  do {... */\n    tag_297:\n        /* \"https://github.com/chiru-labs/ERC721A/blob/main/contracts/ERC721A.sol\":33708:33770  _checkContractOnERC721Received(address(0), to, index++, _data) */\n      tag_300\n        /* \"https://github.com/chiru-labs/ERC721A/blob/main/contracts/ERC721A.sol\":33747:33748  0 */\n      0x00\n        /* \"https://github.com/chiru-labs/ERC721A/blob/main/contracts/ERC721A.sol\":33751:33753  to */\n      dup7\n        /* \"https://github.com/chiru-labs/ERC721A/blob/main/contracts/ERC721A.sol\":33755:33762  index++ */\n      dup4\n      dup1\n      0x01\n      add\n      swap5\n      pop\n        /* \"https://github.com/chiru-labs/ERC721A/blob/main/contracts/ERC721A.sol\":33764:33769  _data */\n      dup7\n        /* \"https://github.com/chiru-labs/ERC721A/blob/main/contracts/ERC721A.sol\":33708:33738  _checkContractOnERC721Received */\n      tag_193\n        /* \"https://github.com/chiru-labs/ERC721A/blob/main/contracts/ERC721A.sol\":33708:33770  _checkContractOnERC721Received(address(0), to, index++, _data) */\n      jump\t// in\n    tag_300:\n        /* \"https://github.com/chiru-labs/ERC721A/blob/main/contracts/ERC721A.sol\":33703:33877  if (!_checkContractOnERC721Received(address(0), to, index++, _data)) {... */\n      tag_301\n      jumpi\n        /* \"https://github.com/chiru-labs/ERC721A/blob/main/contracts/ERC721A.sol\":33798:33854  _revert(TransferToNonERC721ReceiverImplementer.selector) */\n      tag_302\n        /* \"https://github.com/chiru-labs/ERC721A/blob/main/contracts/ERC721A.sol\":33806:33853  TransferToNonERC721ReceiverImplementer.selector */\n      shl(0xe0, 0xd1a57ed6)\n        /* \"https://github.com/chiru-labs/ERC721A/blob/main/contracts/ERC721A.sol\":33798:33805  _revert */\n      tag_129\n        /* \"https://github.com/chiru-labs/ERC721A/blob/main/contracts/ERC721A.sol\":33798:33854  _revert(TransferToNonERC721ReceiverImplementer.selector) */\n      jump\t// in\n    tag_302:\n        /* \"https://github.com/chiru-labs/ERC721A/blob/main/contracts/ERC721A.sol\":33703:33877  if (!_checkContractOnERC721Received(address(0), to, index++, _data)) {... */\n    tag_301:\n        /* \"https://github.com/chiru-labs/ERC721A/blob/main/contracts/ERC721A.sol\":33911:33914  end */\n      dup2\n        /* \"https://github.com/chiru-labs/ERC721A/blob/main/contracts/ERC721A.sol\":33903:33908  index */\n      dup2\n        /* \"https://github.com/chiru-labs/ERC721A/blob/main/contracts/ERC721A.sol\":33903:33914  index < end */\n      lt\n        /* \"https://github.com/chiru-labs/ERC721A/blob/main/contracts/ERC721A.sol\":33678:33916  do {... */\n      tag_297\n      jumpi\n        /* \"https://github.com/chiru-labs/ERC721A/blob/main/contracts/ERC721A.sol\":33996:33999  end */\n      dup2\n        /* \"https://github.com/chiru-labs/ERC721A/blob/main/contracts/ERC721A.sol\":33979:33992  _currentIndex */\n      sload(0x00)\n        /* \"https://github.com/chiru-labs/ERC721A/blob/main/contracts/ERC721A.sol\":33979:33999  _currentIndex != end */\n      eq\n        /* \"https://github.com/chiru-labs/ERC721A/blob/main/contracts/ERC721A.sol\":33975:34019  if (_currentIndex != end) _revert(bytes4(0)) */\n      tag_303\n      jumpi\n        /* \"https://github.com/chiru-labs/ERC721A/blob/main/contracts/ERC721A.sol\":34001:34019  _revert(bytes4(0)) */\n      tag_304\n        /* \"https://github.com/chiru-labs/ERC721A/blob/main/contracts/ERC721A.sol\":34016:34017  0 */\n      0x00\n        /* \"https://github.com/chiru-labs/ERC721A/blob/main/contracts/ERC721A.sol\":34009:34018  bytes4(0) */\n      0xe0\n      shl\n        /* \"https://github.com/chiru-labs/ERC721A/blob/main/contracts/ERC721A.sol\":34001:34008  _revert */\n      tag_129\n        /* \"https://github.com/chiru-labs/ERC721A/blob/main/contracts/ERC721A.sol\":34001:34019  _revert(bytes4(0)) */\n      jump\t// in\n    tag_304:\n        /* \"https://github.com/chiru-labs/ERC721A/blob/main/contracts/ERC721A.sol\":33975:34019  if (_currentIndex != end) _revert(bytes4(0)) */\n    tag_303:\n        /* \"https://github.com/chiru-labs/ERC721A/blob/main/contracts/ERC721A.sol\":33567:34034  {... */\n      pop\n      pop\n        /* \"https://github.com/chiru-labs/ERC721A/blob/main/contracts/ERC721A.sol\":33542:34034  if (to.code.length != 0) {... */\n    tag_296:\n        /* \"https://github.com/chiru-labs/ERC721A/blob/main/contracts/ERC721A.sol\":33362:34050  function _safeMint(... */\n      pop\n      pop\n      pop\n      jump\t// out\n        /* \"https://github.com/chiru-labs/ERC721A/blob/main/contracts/ERC721A.sol\":40439:40582  function _extraData(... */\n    tag_266:\n        /* \"https://github.com/chiru-labs/ERC721A/blob/main/contracts/ERC721A.sol\":40572:40578  uint24 */\n      0x00\n        /* \"https://github.com/chiru-labs/ERC721A/blob/main/contracts/ERC721A.sol\":40439:40582  function _extraData(... */\n      swap4\n      swap3\n      pop\n      pop\n      pop\n      jump\t// out\n        /* \"https://github.com/chiru-labs/ERC721A/blob/main/contracts/ERC721A.sol\":28402:30653  function _mint(address to, uint256 quantity) internal virtual {... */\n    tag_295:\n        /* \"https://github.com/chiru-labs/ERC721A/blob/main/contracts/ERC721A.sol\":28474:28494  uint256 startTokenId */\n      0x00\n        /* \"https://github.com/chiru-labs/ERC721A/blob/main/contracts/ERC721A.sol\":28497:28510  _currentIndex */\n      dup1\n      sload\n        /* \"https://github.com/chiru-labs/ERC721A/blob/main/contracts/ERC721A.sol\":28474:28510  uint256 startTokenId = _currentIndex */\n      swap1\n      pop\n        /* \"https://github.com/chiru-labs/ERC721A/blob/main/contracts/ERC721A.sol\":28536:28537  0 */\n      0x00\n        /* \"https://github.com/chiru-labs/ERC721A/blob/main/contracts/ERC721A.sol\":28524:28532  quantity */\n      dup3\n        /* \"https://github.com/chiru-labs/ERC721A/blob/main/contracts/ERC721A.sol\":28524:28537  quantity == 0 */\n      sub\n        /* \"https://github.com/chiru-labs/ERC721A/blob/main/contracts/ERC721A.sol\":28520:28573  if (quantity == 0) _revert(MintZeroQuantity.selector) */\n      tag_307\n      jumpi\n        /* \"https://github.com/chiru-labs/ERC721A/blob/main/contracts/ERC721A.sol\":28539:28573  _revert(MintZeroQuantity.selector) */\n      tag_308\n        /* \"https://github.com/chiru-labs/ERC721A/blob/main/contracts/ERC721A.sol\":28547:28572  MintZeroQuantity.selector */\n      shl(0xe0, 0xb562e8dd)\n        /* \"https://github.com/chiru-labs/ERC721A/blob/main/contracts/ERC721A.sol\":28539:28546  _revert */\n      tag_129\n        /* \"https://github.com/chiru-labs/ERC721A/blob/main/contracts/ERC721A.sol\":28539:28573  _revert(MintZeroQuantity.selector) */\n      jump\t// in\n    tag_308:\n        /* \"https://github.com/chiru-labs/ERC721A/blob/main/contracts/ERC721A.sol\":28520:28573  if (quantity == 0) _revert(MintZeroQuantity.selector) */\n    tag_307:\n        /* \"https://github.com/chiru-labs/ERC721A/blob/main/contracts/ERC721A.sol\":28584:28645  _beforeTokenTransfers(address(0), to, startTokenId, quantity) */\n      tag_309\n        /* \"https://github.com/chiru-labs/ERC721A/blob/main/contracts/ERC721A.sol\":28614:28615  0 */\n      0x00\n        /* \"https://github.com/chiru-labs/ERC721A/blob/main/contracts/ERC721A.sol\":28618:28620  to */\n      dup5\n        /* \"https://github.com/chiru-labs/ERC721A/blob/main/contracts/ERC721A.sol\":28622:28634  startTokenId */\n      dup4\n        /* \"https://github.com/chiru-labs/ERC721A/blob/main/contracts/ERC721A.sol\":28636:28644  quantity */\n      dup6\n        /* \"https://github.com/chiru-labs/ERC721A/blob/main/contracts/ERC721A.sol\":28584:28605  _beforeTokenTransfers */\n      tag_153\n        /* \"https://github.com/chiru-labs/ERC721A/blob/main/contracts/ERC721A.sol\":28584:28645  _beforeTokenTransfers(address(0), to, startTokenId, quantity) */\n      jump\t// in\n    tag_309:\n        /* \"https://github.com/chiru-labs/ERC721A/blob/main/contracts/ERC721A.sol\":29107:29243  _packOwnershipData(... */\n      tag_310\n        /* \"https://github.com/chiru-labs/ERC721A/blob/main/contracts/ERC721A.sol\":29143:29145  to */\n      dup4\n        /* \"https://github.com/chiru-labs/ERC721A/blob/main/contracts/ERC721A.sol\":29196:29229  _nextExtraData(address(0), to, 0) */\n      tag_311\n        /* \"https://github.com/chiru-labs/ERC721A/blob/main/contracts/ERC721A.sol\":29219:29220  0 */\n      0x00\n        /* \"https://github.com/chiru-labs/ERC721A/blob/main/contracts/ERC721A.sol\":29223:29225  to */\n      dup7\n        /* \"https://github.com/chiru-labs/ERC721A/blob/main/contracts/ERC721A.sol\":29227:29228  0 */\n      0x00\n        /* \"https://github.com/chiru-labs/ERC721A/blob/main/contracts/ERC721A.sol\":29196:29210  _nextExtraData */\n      tag_157\n        /* \"https://github.com/chiru-labs/ERC721A/blob/main/contracts/ERC721A.sol\":29196:29229  _nextExtraData(address(0), to, 0) */\n      jump\t// in\n    tag_311:\n        /* \"https://github.com/chiru-labs/ERC721A/blob/main/contracts/ERC721A.sol\":29163:29193  _nextInitializedFlag(quantity) */\n      tag_312\n        /* \"https://github.com/chiru-labs/ERC721A/blob/main/contracts/ERC721A.sol\":29184:29192  quantity */\n      dup6\n        /* \"https://github.com/chiru-labs/ERC721A/blob/main/contracts/ERC721A.sol\":29163:29183  _nextInitializedFlag */\n      tag_313\n        /* \"https://github.com/chiru-labs/ERC721A/blob/main/contracts/ERC721A.sol\":29163:29193  _nextInitializedFlag(quantity) */\n      jump\t// in\n    tag_312:\n        /* \"https://github.com/chiru-labs/ERC721A/blob/main/contracts/ERC721A.sol\":29163:29229  _nextInitializedFlag(quantity) | _nextExtraData(address(0), to, 0) */\n      or\n        /* \"https://github.com/chiru-labs/ERC721A/blob/main/contracts/ERC721A.sol\":29107:29125  _packOwnershipData */\n      tag_158\n        /* \"https://github.com/chiru-labs/ERC721A/blob/main/contracts/ERC721A.sol\":29107:29243  _packOwnershipData(... */\n      jump\t// in\n    tag_310:\n        /* \"https://github.com/chiru-labs/ERC721A/blob/main/contracts/ERC721A.sol\":29073:29090  _packedOwnerships */\n      0x04\n        /* \"https://github.com/chiru-labs/ERC721A/blob/main/contracts/ERC721A.sol\":29073:29104  _packedOwnerships[startTokenId] */\n      0x00\n        /* \"https://github.com/chiru-labs/ERC721A/blob/main/contracts/ERC721A.sol\":29091:29103  startTokenId */\n      dup4\n        /* \"https://github.com/chiru-labs/ERC721A/blob/main/contracts/ERC721A.sol\":29073:29104  _packedOwnerships[startTokenId] */\n      dup2\n      mstore\n      0x20\n      add\n      swap1\n      dup2\n      mstore\n      0x20\n      add\n      0x00\n      keccak256\n        /* \"https://github.com/chiru-labs/ERC721A/blob/main/contracts/ERC721A.sol\":29073:29243  _packedOwnerships[startTokenId] = _packOwnershipData(... */\n      dup2\n      swap1\n      sstore\n      pop\n        /* \"https://github.com/chiru-labs/ERC721A/blob/main/contracts/ERC721A.sol\":29523:29524  1 */\n      0x01\n        /* \"https://github.com/chiru-labs/ERC721A/blob/main/contracts/ERC721A.sol\":1495:1497  64 */\n      0x40\n        /* \"https://github.com/chiru-labs/ERC721A/blob/main/contracts/ERC721A.sol\":29493:29494  1 */\n      0x01\n        /* \"https://github.com/chiru-labs/ERC721A/blob/main/contracts/ERC721A.sol\":29493:29519  1 << _BITPOS_NUMBER_MINTED */\n      swap1\n      shl\n        /* \"https://github.com/chiru-labs/ERC721A/blob/main/contracts/ERC721A.sol\":29492:29524  (1 << _BITPOS_NUMBER_MINTED) | 1 */\n      or\n        /* \"https://github.com/chiru-labs/ERC721A/blob/main/contracts/ERC721A.sol\":29480:29488  quantity */\n      dup3\n        /* \"https://github.com/chiru-labs/ERC721A/blob/main/contracts/ERC721A.sol\":29480:29525  quantity * ((1 << _BITPOS_NUMBER_MINTED) | 1) */\n      mul\n        /* \"https://github.com/chiru-labs/ERC721A/blob/main/contracts/ERC721A.sol\":29454:29472  _packedAddressData */\n      0x05\n        /* \"https://github.com/chiru-labs/ERC721A/blob/main/contracts/ERC721A.sol\":29454:29476  _packedAddressData[to] */\n      0x00\n        /* \"https://github.com/chiru-labs/ERC721A/blob/main/contracts/ERC721A.sol\":29473:29475  to */\n      dup6\n        /* \"https://github.com/chiru-labs/ERC721A/blob/main/contracts/ERC721A.sol\":29454:29476  _packedAddressData[to] */\n      0xffffffffffffffffffffffffffffffffffffffff\n      and\n      0xffffffffffffffffffffffffffffffffffffffff\n      and\n      dup2\n      mstore\n      0x20\n      add\n      swap1\n      dup2\n      mstore\n      0x20\n      add\n      0x00\n      keccak256\n      0x00\n        /* \"https://github.com/chiru-labs/ERC721A/blob/main/contracts/ERC721A.sol\":29454:29525  _packedAddressData[to] += quantity * ((1 << _BITPOS_NUMBER_MINTED) | 1) */\n      dup3\n      dup3\n      sload\n      add\n      swap3\n      pop\n      pop\n      dup2\n      swap1\n      sstore\n      pop\n        /* \"https://github.com/chiru-labs/ERC721A/blob/main/contracts/ERC721A.sol\":29633:29649  uint256 toMasked */\n      0x00\n        /* \"https://github.com/chiru-labs/ERC721A/blob/main/contracts/ERC721A.sol\":2785:2799  (1 << 160) - 1 */\n      0xffffffffffffffffffffffffffffffffffffffff\n        /* \"https://github.com/chiru-labs/ERC721A/blob/main/contracts/ERC721A.sol\":29668:29670  to */\n      dup5\n        /* \"https://github.com/chiru-labs/ERC721A/blob/main/contracts/ERC721A.sol\":29652:29672  uint256(uint160(to)) */\n      0xffffffffffffffffffffffffffffffffffffffff\n      and\n        /* \"https://github.com/chiru-labs/ERC721A/blob/main/contracts/ERC721A.sol\":29652:29691  uint256(uint160(to)) & _BITMASK_ADDRESS */\n      and\n        /* \"https://github.com/chiru-labs/ERC721A/blob/main/contracts/ERC721A.sol\":29633:29691  uint256 toMasked = uint256(uint160(to)) & _BITMASK_ADDRESS */\n      swap1\n      pop\n        /* \"https://github.com/chiru-labs/ERC721A/blob/main/contracts/ERC721A.sol\":29722:29723  0 */\n      0x00\n        /* \"https://github.com/chiru-labs/ERC721A/blob/main/contracts/ERC721A.sol\":29710:29718  toMasked */\n      dup2\n        /* \"https://github.com/chiru-labs/ERC721A/blob/main/contracts/ERC721A.sol\":29710:29723  toMasked == 0 */\n      sub\n        /* \"https://github.com/chiru-labs/ERC721A/blob/main/contracts/ERC721A.sol\":29706:29760  if (toMasked == 0) _revert(MintToZeroAddress.selector) */\n      tag_314\n      jumpi\n        /* \"https://github.com/chiru-labs/ERC721A/blob/main/contracts/ERC721A.sol\":29725:29760  _revert(MintToZeroAddress.selector) */\n      tag_315\n        /* \"https://github.com/chiru-labs/ERC721A/blob/main/contracts/ERC721A.sol\":29733:29759  MintToZeroAddress.selector */\n      shl(0xe0, 0x2e076300)\n        /* \"https://github.com/chiru-labs/ERC721A/blob/main/contracts/ERC721A.sol\":29725:29732  _revert */\n      tag_129\n        /* \"https://github.com/chiru-labs/ERC721A/blob/main/contracts/ERC721A.sol\":29725:29760  _revert(MintToZeroAddress.selector) */\n      jump\t// in\n    tag_315:\n        /* \"https://github.com/chiru-labs/ERC721A/blob/main/contracts/ERC721A.sol\":29706:29760  if (toMasked == 0) _revert(MintToZeroAddress.selector) */\n    tag_314:\n        /* \"https://github.com/chiru-labs/ERC721A/blob/main/contracts/ERC721A.sol\":29775:29786  uint256 end */\n      0x00\n        /* \"https://github.com/chiru-labs/ERC721A/blob/main/contracts/ERC721A.sol\":29804:29812  quantity */\n      dup4\n        /* \"https://github.com/chiru-labs/ERC721A/blob/main/contracts/ERC721A.sol\":29789:29801  startTokenId */\n      dup4\n        /* \"https://github.com/chiru-labs/ERC721A/blob/main/contracts/ERC721A.sol\":29789:29812  startTokenId + quantity */\n      add\n        /* \"https://github.com/chiru-labs/ERC721A/blob/main/contracts/ERC721A.sol\":29775:29812  uint256 end = startTokenId + quantity */\n      swap1\n      pop\n        /* \"https://github.com/chiru-labs/ERC721A/blob/main/contracts/ERC721A.sol\":29826:29841  uint256 tokenId */\n      0x00\n        /* \"https://github.com/chiru-labs/ERC721A/blob/main/contracts/ERC721A.sol\":29844:29856  startTokenId */\n      dup4\n        /* \"https://github.com/chiru-labs/ERC721A/blob/main/contracts/ERC721A.sol\":29826:29856  uint256 tokenId = startTokenId */\n      swap1\n      pop\n        /* \"https://github.com/chiru-labs/ERC721A/blob/main/contracts/ERC721A.sol\":29871:30533  do {... */\n    tag_316:\n        /* \"https://github.com/chiru-labs/ERC721A/blob/main/contracts/ERC721A.sol\":30281:30288  tokenId */\n      dup1\n        /* \"https://github.com/chiru-labs/ERC721A/blob/main/contracts/ERC721A.sol\":30238:30246  toMasked */\n      dup4\n        /* \"https://github.com/chiru-labs/ERC721A/blob/main/contracts/ERC721A.sol\":30194:30195  0 */\n      0x00\n        /* \"https://github.com/chiru-labs/ERC721A/blob/main/contracts/ERC721A.sol\":30129:30154  _TRANSFER_EVENT_SIGNATURE */\n      0xddf252ad1be2c89b69c2b068fc378daa952ba7f163c4a11628f55a4df523b3ef\n        /* \"https://github.com/chiru-labs/ERC721A/blob/main/contracts/ERC721A.sol\":30067:30068  0 */\n      0x00\n        /* \"https://github.com/chiru-labs/ERC721A/blob/main/contracts/ERC721A.sol\":30003:30004  0 */\n      dup1\n        /* \"https://github.com/chiru-labs/ERC721A/blob/main/contracts/ERC721A.sol\":29973:30324  log4(... */\n      log4\n        /* \"https://github.com/chiru-labs/ERC721A/blob/main/contracts/ERC721A.sol\":30528:30531  end */\n      dup2\n        /* \"https://github.com/chiru-labs/ERC721A/blob/main/contracts/ERC721A.sol\":30515:30524  ++tokenId */\n      dup2\n      0x01\n      add\n      swap2\n      pop\n      dup2\n        /* \"https://github.com/chiru-labs/ERC721A/blob/main/contracts/ERC721A.sol\":30515:30531  ++tokenId != end */\n      sub\n        /* \"https://github.com/chiru-labs/ERC721A/blob/main/contracts/ERC721A.sol\":29871:30533  do {... */\n      tag_316\n      jumpi\n        /* \"https://github.com/chiru-labs/ERC721A/blob/main/contracts/ERC721A.sol\":30563:30566  end */\n      dup2\n        /* \"https://github.com/chiru-labs/ERC721A/blob/main/contracts/ERC721A.sol\":30547:30560  _currentIndex */\n      0x00\n        /* \"https://github.com/chiru-labs/ERC721A/blob/main/contracts/ERC721A.sol\":30547:30566  _currentIndex = end */\n      dup2\n      swap1\n      sstore\n      pop\n        /* \"https://github.com/chiru-labs/ERC721A/blob/main/contracts/ERC721A.sol\":28828:30577  unchecked {... */\n      pop\n      pop\n      pop\n        /* \"https://github.com/chiru-labs/ERC721A/blob/main/contracts/ERC721A.sol\":30586:30646  _afterTokenTransfers(address(0), to, startTokenId, quantity) */\n      tag_319\n        /* \"https://github.com/chiru-labs/ERC721A/blob/main/contracts/ERC721A.sol\":30615:30616  0 */\n      0x00\n        /* \"https://github.com/chiru-labs/ERC721A/blob/main/contracts/ERC721A.sol\":30619:30621  to */\n      dup5\n        /* \"https://github.com/chiru-labs/ERC721A/blob/main/contracts/ERC721A.sol\":30623:30635  startTokenId */\n      dup4\n        /* \"https://github.com/chiru-labs/ERC721A/blob/main/contracts/ERC721A.sol\":30637:30645  quantity */\n      dup6\n        /* \"https://github.com/chiru-labs/ERC721A/blob/main/contracts/ERC721A.sol\":30586:30606  _afterTokenTransfers */\n      tag_165\n        /* \"https://github.com/chiru-labs/ERC721A/blob/main/contracts/ERC721A.sol\":30586:30646  _afterTokenTransfers(address(0), to, startTokenId, quantity) */\n      jump\t// in\n    tag_319:\n        /* \"https://github.com/chiru-labs/ERC721A/blob/main/contracts/ERC721A.sol\":28464:30653  {... */\n      pop\n        /* \"https://github.com/chiru-labs/ERC721A/blob/main/contracts/ERC721A.sol\":28402:30653  function _mint(address to, uint256 quantity) internal virtual {... */\n      pop\n      pop\n      jump\t// out\n        /* \"https://github.com/chiru-labs/ERC721A/blob/main/contracts/ERC721A.sol\":15901:16219  function _nextInitializedFlag(uint256 quantity) private pure returns (uint256 result) {... */\n    tag_313:\n        /* \"https://github.com/chiru-labs/ERC721A/blob/main/contracts/ERC721A.sol\":15971:15985  uint256 result */\n      0x00\n        /* \"https://github.com/chiru-labs/ERC721A/blob/main/contracts/ERC721A.sol\":16200:16201  1 */\n      0x01\n        /* \"https://github.com/chiru-labs/ERC721A/blob/main/contracts/ERC721A.sol\":16190:16198  quantity */\n      dup3\n        /* \"https://github.com/chiru-labs/ERC721A/blob/main/contracts/ERC721A.sol\":16187:16202  eq(quantity, 1) */\n      eq\n        /* \"https://github.com/chiru-labs/ERC721A/blob/main/contracts/ERC721A.sol\":16161:16185  _BITPOS_NEXT_INITIALIZED */\n      0xe1\n        /* \"https://github.com/chiru-labs/ERC721A/blob/main/contracts/ERC721A.sol\":16157:16203  shl(_BITPOS_NEXT_INITIALIZED, eq(quantity, 1)) */\n      shl\n        /* \"https://github.com/chiru-labs/ERC721A/blob/main/contracts/ERC721A.sol\":16147:16203  result := shl(_BITPOS_NEXT_INITIALIZED, eq(quantity, 1)) */\n      swap1\n      pop\n        /* \"https://github.com/chiru-labs/ERC721A/blob/main/contracts/ERC721A.sol\":15901:16219  function _nextInitializedFlag(uint256 quantity) private pure returns (uint256 result) {... */\n      swap2\n      swap1\n      pop\n      jump\t// out\n        /* \"#utility.yul\":7:82   */\n    tag_321:\n        /* \"#utility.yul\":40:46   */\n      0x00\n        /* \"#utility.yul\":73:75   */\n      0x40\n        /* \"#utility.yul\":67:76   */\n      mload\n        /* \"#utility.yul\":57:76   */\n      swap1\n      pop\n        /* \"#utility.yul\":7:82   */\n      swap1\n      jump\t// out\n        /* \"#utility.yul\":88:205   */\n    tag_322:\n        /* \"#utility.yul\":197:198   */\n      0x00\n        /* \"#utility.yul\":194:195   */\n      dup1\n        /* \"#utility.yul\":187:199   */\n      revert\n        /* \"#utility.yul\":211:328   */\n    tag_323:\n        /* \"#utility.yul\":320:321   */\n      0x00\n        /* \"#utility.yul\":317:318   */\n      dup1\n        /* \"#utility.yul\":310:322   */\n      revert\n        /* \"#utility.yul\":334:483   */\n    tag_324:\n        /* \"#utility.yul\":370:377   */\n      0x00\n        /* \"#utility.yul\":410:476   */\n      0xffffffff00000000000000000000000000000000000000000000000000000000\n        /* \"#utility.yul\":403:408   */\n      dup3\n        /* \"#utility.yul\":399:477   */\n      and\n        /* \"#utility.yul\":388:477   */\n      swap1\n      pop\n        /* \"#utility.yul\":334:483   */\n      swap2\n      swap1\n      pop\n      jump\t// out\n        /* \"#utility.yul\":489:609   */\n    tag_325:\n        /* \"#utility.yul\":561:584   */\n      tag_374\n        /* \"#utility.yul\":578:583   */\n      dup2\n        /* \"#utility.yul\":561:584   */\n      tag_324\n      jump\t// in\n    tag_374:\n        /* \"#utility.yul\":554:559   */\n      dup2\n        /* \"#utility.yul\":551:585   */\n      eq\n        /* \"#utility.yul\":541:603   */\n      tag_375\n      jumpi\n        /* \"#utility.yul\":599:600   */\n      0x00\n        /* \"#utility.yul\":596:597   */\n      dup1\n        /* \"#utility.yul\":589:601   */\n      revert\n        /* \"#utility.yul\":541:603   */\n    tag_375:\n        /* \"#utility.yul\":489:609   */\n      pop\n      jump\t// out\n        /* \"#utility.yul\":615:752   */\n    tag_326:\n        /* \"#utility.yul\":660:665   */\n      0x00\n        /* \"#utility.yul\":698:704   */\n      dup2\n        /* \"#utility.yul\":685:705   */\n      calldataload\n        /* \"#utility.yul\":676:705   */\n      swap1\n      pop\n        /* \"#utility.yul\":714:746   */\n      tag_377\n        /* \"#utility.yul\":740:745   */\n      dup2\n        /* \"#utility.yul\":714:746   */\n      tag_325\n      jump\t// in\n    tag_377:\n        /* \"#utility.yul\":615:752   */\n      swap3\n      swap2\n      pop\n      pop\n      jump\t// out\n        /* \"#utility.yul\":758:1085   */\n    tag_26:\n        /* \"#utility.yul\":816:822   */\n      0x00\n        /* \"#utility.yul\":865:867   */\n      0x20\n        /* \"#utility.yul\":853:862   */\n      dup3\n        /* \"#utility.yul\":844:851   */\n      dup5\n        /* \"#utility.yul\":840:863   */\n      sub\n        /* \"#utility.yul\":836:868   */\n      slt\n        /* \"#utility.yul\":833:952   */\n      iszero\n      tag_379\n      jumpi\n        /* \"#utility.yul\":871:950   */\n      tag_380\n      tag_322\n      jump\t// in\n    tag_380:\n        /* \"#utility.yul\":833:952   */\n    tag_379:\n        /* \"#utility.yul\":991:992   */\n      0x00\n        /* \"#utility.yul\":1016:1068   */\n      tag_381\n        /* \"#utility.yul\":1060:1067   */\n      dup5\n        /* \"#utility.yul\":1051:1057   */\n      dup3\n        /* \"#utility.yul\":1040:1049   */\n      dup6\n        /* \"#utility.yul\":1036:1058   */\n      add\n        /* \"#utility.yul\":1016:1068   */\n      tag_326\n      jump\t// in\n    tag_381:\n        /* \"#utility.yul\":1006:1068   */\n      swap2\n      pop\n        /* \"#utility.yul\":962:1078   */\n      pop\n        /* \"#utility.yul\":758:1085   */\n      swap3\n      swap2\n      pop\n      pop\n      jump\t// out\n        /* \"#utility.yul\":1091:1181   */\n    tag_327:\n        /* \"#utility.yul\":1125:1132   */\n      0x00\n        /* \"#utility.yul\":1168:1173   */\n      dup2\n        /* \"#utility.yul\":1161:1174   */\n      iszero\n        /* \"#utility.yul\":1154:1175   */\n      iszero\n        /* \"#utility.yul\":1143:1175   */\n      swap1\n      pop\n        /* \"#utility.yul\":1091:1181   */\n      swap2\n      swap1\n      pop\n      jump\t// out\n        /* \"#utility.yul\":1187:1296   */\n    tag_328:\n        /* \"#utility.yul\":1268:1289   */\n      tag_384\n        /* \"#utility.yul\":1283:1288   */\n      dup2\n        /* \"#utility.yul\":1268:1289   */\n      tag_327\n      jump\t// in\n    tag_384:\n        /* \"#utility.yul\":1263:1266   */\n      dup3\n        /* \"#utility.yul\":1256:1290   */\n      mstore\n        /* \"#utility.yul\":1187:1296   */\n      pop\n      pop\n      jump\t// out\n        /* \"#utility.yul\":1302:1512   */\n    tag_29:\n        /* \"#utility.yul\":1389:1393   */\n      0x00\n        /* \"#utility.yul\":1427:1429   */\n      0x20\n        /* \"#utility.yul\":1416:1425   */\n      dup3\n        /* \"#utility.yul\":1412:1430   */\n      add\n        /* \"#utility.yul\":1404:1430   */\n      swap1\n      pop\n        /* \"#utility.yul\":1440:1505   */\n      tag_386\n        /* \"#utility.yul\":1502:1503   */\n      0x00\n        /* \"#utility.yul\":1491:1500   */\n      dup4\n        /* \"#utility.yul\":1487:1504   */\n      add\n        /* \"#utility.yul\":1478:1484   */\n      dup5\n        /* \"#utility.yul\":1440:1505   */\n      tag_328\n      jump\t// in\n    tag_386:\n        /* \"#utility.yul\":1302:1512   */\n      swap3\n      swap2\n      pop\n      pop\n      jump\t// out\n        /* \"#utility.yul\":1518:1617   */\n    tag_329:\n        /* \"#utility.yul\":1570:1576   */\n      0x00\n        /* \"#utility.yul\":1604:1609   */\n      dup2\n        /* \"#utility.yul\":1598:1610   */\n      mload\n        /* \"#utility.yul\":1588:1610   */\n      swap1\n      pop\n        /* \"#utility.yul\":1518:1617   */\n      swap2\n      swap1\n      pop\n      jump\t// out\n        /* \"#utility.yul\":1623:1792   */\n    tag_330:\n        /* \"#utility.yul\":1707:1718   */\n      0x00\n        /* \"#utility.yul\":1741:1747   */\n      dup3\n        /* \"#utility.yul\":1736:1739   */\n      dup3\n        /* \"#utility.yul\":1729:1748   */\n      mstore\n        /* \"#utility.yul\":1781:1785   */\n      0x20\n        /* \"#utility.yul\":1776:1779   */\n      dup3\n        /* \"#utility.yul\":1772:1786   */\n      add\n        /* \"#utility.yul\":1757:1786   */\n      swap1\n      pop\n        /* \"#utility.yul\":1623:1792   */\n      swap3\n      swap2\n      pop\n      pop\n      jump\t// out\n        /* \"#utility.yul\":1798:2044   */\n    tag_331:\n        /* \"#utility.yul\":1879:1880   */\n      0x00\n        /* \"#utility.yul\":1889:2002   */\n    tag_390:\n        /* \"#utility.yul\":1903:1909   */\n      dup4\n        /* \"#utility.yul\":1900:1901   */\n      dup2\n        /* \"#utility.yul\":1897:1910   */\n      lt\n        /* \"#utility.yul\":1889:2002   */\n      iszero\n      tag_392\n      jumpi\n        /* \"#utility.yul\":1988:1989   */\n      dup1\n        /* \"#utility.yul\":1983:1986   */\n      dup3\n        /* \"#utility.yul\":1979:1990   */\n      add\n        /* \"#utility.yul\":1973:1991   */\n      mload\n        /* \"#utility.yul\":1969:1970   */\n      dup2\n        /* \"#utility.yul\":1964:1967   */\n      dup5\n        /* \"#utility.yul\":1960:1971   */\n      add\n        /* \"#utility.yul\":1953:1992   */\n      mstore\n        /* \"#utility.yul\":1925:1927   */\n      0x20\n        /* \"#utility.yul\":1922:1923   */\n      dup2\n        /* \"#utility.yul\":1918:1928   */\n      add\n        /* \"#utility.yul\":1913:1928   */\n      swap1\n      pop\n        /* \"#utility.yul\":1889:2002   */\n      jump(tag_390)\n    tag_392:\n        /* \"#utility.yul\":2036:2037   */\n      0x00\n        /* \"#utility.yul\":2027:2033   */\n      dup5\n        /* \"#utility.yul\":2022:2025   */\n      dup5\n        /* \"#utility.yul\":2018:2034   */\n      add\n        /* \"#utility.yul\":2011:2038   */\n      mstore\n        /* \"#utility.yul\":1860:2044   */\n      pop\n        /* \"#utility.yul\":1798:2044   */\n      pop\n      pop\n      pop\n      jump\t// out\n        /* \"#utility.yul\":2050:2152   */\n    tag_332:\n        /* \"#utility.yul\":2091:2097   */\n      0x00\n        /* \"#utility.yul\":2142:2144   */\n      0x1f\n        /* \"#utility.yul\":2138:2145   */\n      not\n        /* \"#utility.yul\":2133:2135   */\n      0x1f\n        /* \"#utility.yul\":2126:2131   */\n      dup4\n        /* \"#utility.yul\":2122:2136   */\n      add\n        /* \"#utility.yul\":2118:2146   */\n      and\n        /* \"#utility.yul\":2108:2146   */\n      swap1\n      pop\n        /* \"#utility.yul\":2050:2152   */\n      swap2\n      swap1\n      pop\n      jump\t// out\n        /* \"#utility.yul\":2158:2535   */\n    tag_333:\n        /* \"#utility.yul\":2246:2249   */\n      0x00\n        /* \"#utility.yul\":2274:2313   */\n      tag_395\n        /* \"#utility.yul\":2307:2312   */\n      dup3\n        /* \"#utility.yul\":2274:2313   */\n      tag_329\n      jump\t// in\n    tag_395:\n        /* \"#utility.yul\":2329:2400   */\n      tag_396\n        /* \"#utility.yul\":2393:2399   */\n      dup2\n        /* \"#utility.yul\":2388:2391   */\n      dup6\n        /* \"#utility.yul\":2329:2400   */\n      tag_330\n      jump\t// in\n    tag_396:\n        /* \"#utility.yul\":2322:2400   */\n      swap4\n      pop\n        /* \"#utility.yul\":2409:2474   */\n      tag_397\n        /* \"#utility.yul\":2467:2473   */\n      dup2\n        /* \"#utility.yul\":2462:2465   */\n      dup6\n        /* \"#utility.yul\":2455:2459   */\n      0x20\n        /* \"#utility.yul\":2448:2453   */\n      dup7\n        /* \"#utility.yul\":2444:2460   */\n      add\n        /* \"#utility.yul\":2409:2474   */\n      tag_331\n      jump\t// in\n    tag_397:\n        /* \"#utility.yul\":2499:2528   */\n      tag_398\n        /* \"#utility.yul\":2521:2527   */\n      dup2\n        /* \"#utility.yul\":2499:2528   */\n      tag_332\n      jump\t// in\n    tag_398:\n        /* \"#utility.yul\":2494:2497   */\n      dup5\n        /* \"#utility.yul\":2490:2529   */\n      add\n        /* \"#utility.yul\":2483:2529   */\n      swap2\n      pop\n        /* \"#utility.yul\":2250:2535   */\n      pop\n        /* \"#utility.yul\":2158:2535   */\n      swap3\n      swap2\n      pop\n      pop\n      jump\t// out\n        /* \"#utility.yul\":2541:2854   */\n    tag_34:\n        /* \"#utility.yul\":2654:2658   */\n      0x00\n        /* \"#utility.yul\":2692:2694   */\n      0x20\n        /* \"#utility.yul\":2681:2690   */\n      dup3\n        /* \"#utility.yul\":2677:2695   */\n      add\n        /* \"#utility.yul\":2669:2695   */\n      swap1\n      pop\n        /* \"#utility.yul\":2741:2750   */\n      dup2\n        /* \"#utility.yul\":2735:2739   */\n      dup2\n        /* \"#utility.yul\":2731:2751   */\n      sub\n        /* \"#utility.yul\":2727:2728   */\n      0x00\n        /* \"#utility.yul\":2716:2725   */\n      dup4\n        /* \"#utility.yul\":2712:2729   */\n      add\n        /* \"#utility.yul\":2705:2752   */\n      mstore\n        /* \"#utility.yul\":2769:2847   */\n      tag_400\n        /* \"#utility.yul\":2842:2846   */\n      dup2\n        /* \"#utility.yul\":2833:2839   */\n      dup5\n        /* \"#utility.yul\":2769:2847   */\n      tag_333\n      jump\t// in\n    tag_400:\n        /* \"#utility.yul\":2761:2847   */\n      swap1\n      pop\n        /* \"#utility.yul\":2541:2854   */\n      swap3\n      swap2\n      pop\n      pop\n      jump\t// out\n        /* \"#utility.yul\":2860:2937   */\n    tag_334:\n        /* \"#utility.yul\":2897:2904   */\n      0x00\n        /* \"#utility.yul\":2926:2931   */\n      dup2\n        /* \"#utility.yul\":2915:2931   */\n      swap1\n      pop\n        /* \"#utility.yul\":2860:2937   */\n      swap2\n      swap1\n      pop\n      jump\t// out\n        /* \"#utility.yul\":2943:3065   */\n    tag_335:\n        /* \"#utility.yul\":3016:3040   */\n      tag_403\n        /* \"#utility.yul\":3034:3039   */\n      dup2\n        /* \"#utility.yul\":3016:3040   */\n      tag_334\n      jump\t// in\n    tag_403:\n        /* \"#utility.yul\":3009:3014   */\n      dup2\n        /* \"#utility.yul\":3006:3041   */\n      eq\n        /* \"#utility.yul\":2996:3059   */\n      tag_404\n      jumpi\n        /* \"#utility.yul\":3055:3056   */\n      0x00\n        /* \"#utility.yul\":3052:3053   */\n      dup1\n        /* \"#utility.yul\":3045:3057   */\n      revert\n        /* \"#utility.yul\":2996:3059   */\n    tag_404:\n        /* \"#utility.yul\":2943:3065   */\n      pop\n      jump\t// out\n        /* \"#utility.yul\":3071:3210   */\n    tag_336:\n        /* \"#utility.yul\":3117:3122   */\n      0x00\n        /* \"#utility.yul\":3155:3161   */\n      dup2\n        /* \"#utility.yul\":3142:3162   */\n      calldataload\n        /* \"#utility.yul\":3133:3162   */\n      swap1\n      pop\n        /* \"#utility.yul\":3171:3204   */\n      tag_406\n        /* \"#utility.yul\":3198:3203   */\n      dup2\n        /* \"#utility.yul\":3171:3204   */\n      tag_335\n      jump\t// in\n    tag_406:\n        /* \"#utility.yul\":3071:3210   */\n      swap3\n      swap2\n      pop\n      pop\n      jump\t// out\n        /* \"#utility.yul\":3216:3545   */\n    tag_38:\n        /* \"#utility.yul\":3275:3281   */\n      0x00\n        /* \"#utility.yul\":3324:3326   */\n      0x20\n        /* \"#utility.yul\":3312:3321   */\n      dup3\n        /* \"#utility.yul\":3303:3310   */\n      dup5\n        /* \"#utility.yul\":3299:3322   */\n      sub\n        /* \"#utility.yul\":3295:3327   */\n      slt\n        /* \"#utility.yul\":3292:3411   */\n      iszero\n      tag_408\n      jumpi\n        /* \"#utility.yul\":3330:3409   */\n      tag_409\n      tag_322\n      jump\t// in\n    tag_409:\n        /* \"#utility.yul\":3292:3411   */\n    tag_408:\n        /* \"#utility.yul\":3450:3451   */\n      0x00\n        /* \"#utility.yul\":3475:3528   */\n      tag_410\n        /* \"#utility.yul\":3520:3527   */\n      dup5\n        /* \"#utility.yul\":3511:3517   */\n      dup3\n        /* \"#utility.yul\":3500:3509   */\n      dup6\n        /* \"#utility.yul\":3496:3518   */\n      add\n        /* \"#utility.yul\":3475:3528   */\n      tag_336\n      jump\t// in\n    tag_410:\n        /* \"#utility.yul\":3465:3528   */\n      swap2\n      pop\n        /* \"#utility.yul\":3421:3538   */\n      pop\n        /* \"#utility.yul\":3216:3545   */\n      swap3\n      swap2\n      pop\n      pop\n      jump\t// out\n        /* \"#utility.yul\":3551:3677   */\n    tag_337:\n        /* \"#utility.yul\":3588:3595   */\n      0x00\n        /* \"#utility.yul\":3628:3670   */\n      0xffffffffffffffffffffffffffffffffffffffff\n        /* \"#utility.yul\":3621:3626   */\n      dup3\n        /* \"#utility.yul\":3617:3671   */\n      and\n        /* \"#utility.yul\":3606:3671   */\n      swap1\n      pop\n        /* \"#utility.yul\":3551:3677   */\n      swap2\n      swap1\n      pop\n      jump\t// out\n        /* \"#utility.yul\":3683:3779   */\n    tag_338:\n        /* \"#utility.yul\":3720:3727   */\n      0x00\n        /* \"#utility.yul\":3749:3773   */\n      tag_413\n        /* \"#utility.yul\":3767:3772   */\n      dup3\n        /* \"#utility.yul\":3749:3773   */\n      tag_337\n      jump\t// in\n    tag_413:\n        /* \"#utility.yul\":3738:3773   */\n      swap1\n      pop\n        /* \"#utility.yul\":3683:3779   */\n      swap2\n      swap1\n      pop\n      jump\t// out\n        /* \"#utility.yul\":3785:3903   */\n    tag_339:\n        /* \"#utility.yul\":3872:3896   */\n      tag_415\n        /* \"#utility.yul\":3890:3895   */\n      dup2\n        /* \"#utility.yul\":3872:3896   */\n      tag_338\n      jump\t// in\n    tag_415:\n        /* \"#utility.yul\":3867:3870   */\n      dup3\n        /* \"#utility.yul\":3860:3897   */\n      mstore\n        /* \"#utility.yul\":3785:3903   */\n      pop\n      pop\n      jump\t// out\n        /* \"#utility.yul\":3909:4131   */\n    tag_45:\n        /* \"#utility.yul\":4002:4006   */\n      0x00\n        /* \"#utility.yul\":4040:4042   */\n      0x20\n        /* \"#utility.yul\":4029:4038   */\n      dup3\n        /* \"#utility.yul\":4025:4043   */\n      add\n        /* \"#utility.yul\":4017:4043   */\n      swap1\n      pop\n        /* \"#utility.yul\":4053:4124   */\n      tag_417\n        /* \"#utility.yul\":4121:4122   */\n      0x00\n        /* \"#utility.yul\":4110:4119   */\n      dup4\n        /* \"#utility.yul\":4106:4123   */\n      add\n        /* \"#utility.yul\":4097:4103   */\n      dup5\n        /* \"#utility.yul\":4053:4124   */\n      tag_339\n      jump\t// in\n    tag_417:\n        /* \"#utility.yul\":3909:4131   */\n      swap3\n      swap2\n      pop\n      pop\n      jump\t// out\n        /* \"#utility.yul\":4137:4259   */\n    tag_340:\n        /* \"#utility.yul\":4210:4234   */\n      tag_419\n        /* \"#utility.yul\":4228:4233   */\n      dup2\n        /* \"#utility.yul\":4210:4234   */\n      tag_338\n      jump\t// in\n    tag_419:\n        /* \"#utility.yul\":4203:4208   */\n      dup2\n        /* \"#utility.yul\":4200:4235   */\n      eq\n        /* \"#utility.yul\":4190:4253   */\n      tag_420\n      jumpi\n        /* \"#utility.yul\":4249:4250   */\n      0x00\n        /* \"#utility.yul\":4246:4247   */\n      dup1\n        /* \"#utility.yul\":4239:4251   */\n      revert\n        /* \"#utility.yul\":4190:4253   */\n    tag_420:\n        /* \"#utility.yul\":4137:4259   */\n      pop\n      jump\t// out\n        /* \"#utility.yul\":4265:4404   */\n    tag_341:\n        /* \"#utility.yul\":4311:4316   */\n      0x00\n        /* \"#utility.yul\":4349:4355   */\n      dup2\n        /* \"#utility.yul\":4336:4356   */\n      calldataload\n        /* \"#utility.yul\":4327:4356   */\n      swap1\n      pop\n        /* \"#utility.yul\":4365:4398   */\n      tag_422\n        /* \"#utility.yul\":4392:4397   */\n      dup2\n        /* \"#utility.yul\":4365:4398   */\n      tag_340\n      jump\t// in\n    tag_422:\n        /* \"#utility.yul\":4265:4404   */\n      swap3\n      swap2\n      pop\n      pop\n      jump\t// out\n        /* \"#utility.yul\":4410:4884   */\n    tag_48:\n        /* \"#utility.yul\":4478:4484   */\n      0x00\n        /* \"#utility.yul\":4486:4492   */\n      dup1\n        /* \"#utility.yul\":4535:4537   */\n      0x40\n        /* \"#utility.yul\":4523:4532   */\n      dup4\n        /* \"#utility.yul\":4514:4521   */\n      dup6\n        /* \"#utility.yul\":4510:4533   */\n      sub\n        /* \"#utility.yul\":4506:4538   */\n      slt\n        /* \"#utility.yul\":4503:4622   */\n      iszero\n      tag_424\n      jumpi\n        /* \"#utility.yul\":4541:4620   */\n      tag_425\n      tag_322\n      jump\t// in\n    tag_425:\n        /* \"#utility.yul\":4503:4622   */\n    tag_424:\n        /* \"#utility.yul\":4661:4662   */\n      0x00\n        /* \"#utility.yul\":4686:4739   */\n      tag_426\n        /* \"#utility.yul\":4731:4738   */\n      dup6\n        /* \"#utility.yul\":4722:4728   */\n      dup3\n        /* \"#utility.yul\":4711:4720   */\n      dup7\n        /* \"#utility.yul\":4707:4729   */\n      add\n        /* \"#utility.yul\":4686:4739   */\n      tag_341\n      jump\t// in\n    tag_426:\n        /* \"#utility.yul\":4676:4739   */\n      swap3\n      pop\n        /* \"#utility.yul\":4632:4749   */\n      pop\n        /* \"#utility.yul\":4788:4790   */\n      0x20\n        /* \"#utility.yul\":4814:4867   */\n      tag_427\n        /* \"#utility.yul\":4859:4866   */\n      dup6\n        /* \"#utility.yul\":4850:4856   */\n      dup3\n        /* \"#utility.yul\":4839:4848   */\n      dup7\n        /* \"#utility.yul\":4835:4857   */\n      add\n        /* \"#utility.yul\":4814:4867   */\n      tag_336\n      jump\t// in\n    tag_427:\n        /* \"#utility.yul\":4804:4867   */\n      swap2\n      pop\n        /* \"#utility.yul\":4759:4877   */\n      pop\n        /* \"#utility.yul\":4410:4884   */\n      swap3\n      pop\n      swap3\n      swap1\n      pop\n      jump\t// out\n        /* \"#utility.yul\":4890:5008   */\n    tag_342:\n        /* \"#utility.yul\":4977:5001   */\n      tag_429\n        /* \"#utility.yul\":4995:5000   */\n      dup2\n        /* \"#utility.yul\":4977:5001   */\n      tag_334\n      jump\t// in\n    tag_429:\n        /* \"#utility.yul\":4972:4975   */\n      dup3\n        /* \"#utility.yul\":4965:5002   */\n      mstore\n        /* \"#utility.yul\":4890:5008   */\n      pop\n      pop\n      jump\t// out\n        /* \"#utility.yul\":5014:5236   */\n    tag_54:\n        /* \"#utility.yul\":5107:5111   */\n      0x00\n        /* \"#utility.yul\":5145:5147   */\n      0x20\n        /* \"#utility.yul\":5134:5143   */\n      dup3\n        /* \"#utility.yul\":5130:5148   */\n      add\n        /* \"#utility.yul\":5122:5148   */\n      swap1\n      pop\n        /* \"#utility.yul\":5158:5229   */\n      tag_431\n        /* \"#utility.yul\":5226:5227   */\n      0x00\n        /* \"#utility.yul\":5215:5224   */\n      dup4\n        /* \"#utility.yul\":5211:5228   */\n      add\n        /* \"#utility.yul\":5202:5208   */\n      dup5\n        /* \"#utility.yul\":5158:5229   */\n      tag_342\n      jump\t// in\n    tag_431:\n        /* \"#utility.yul\":5014:5236   */\n      swap3\n      swap2\n      pop\n      pop\n      jump\t// out\n        /* \"#utility.yul\":5242:5861   */\n    tag_57:\n        /* \"#utility.yul\":5319:5325   */\n      0x00\n        /* \"#utility.yul\":5327:5333   */\n      dup1\n        /* \"#utility.yul\":5335:5341   */\n      0x00\n        /* \"#utility.yul\":5384:5386   */\n      0x60\n        /* \"#utility.yul\":5372:5381   */\n      dup5\n        /* \"#utility.yul\":5363:5370   */\n      dup7\n        /* \"#utility.yul\":5359:5382   */\n      sub\n        /* \"#utility.yul\":5355:5387   */\n      slt\n        /* \"#utility.yul\":5352:5471   */\n      iszero\n      tag_433\n      jumpi\n        /* \"#utility.yul\":5390:5469   */\n      tag_434\n      tag_322\n      jump\t// in\n    tag_434:\n        /* \"#utility.yul\":5352:5471   */\n    tag_433:\n        /* \"#utility.yul\":5510:5511   */\n      0x00\n        /* \"#utility.yul\":5535:5588   */\n      tag_435\n        /* \"#utility.yul\":5580:5587   */\n      dup7\n        /* \"#utility.yul\":5571:5577   */\n      dup3\n        /* \"#utility.yul\":5560:5569   */\n      dup8\n        /* \"#utility.yul\":5556:5578   */\n      add\n        /* \"#utility.yul\":5535:5588   */\n      tag_341\n      jump\t// in\n    tag_435:\n        /* \"#utility.yul\":5525:5588   */\n      swap4\n      pop\n        /* \"#utility.yul\":5481:5598   */\n      pop\n        /* \"#utility.yul\":5637:5639   */\n      0x20\n        /* \"#utility.yul\":5663:5716   */\n      tag_436\n        /* \"#utility.yul\":5708:5715   */\n      dup7\n        /* \"#utility.yul\":5699:5705   */\n      dup3\n        /* \"#utility.yul\":5688:5697   */\n      dup8\n        /* \"#utility.yul\":5684:5706   */\n      add\n        /* \"#utility.yul\":5663:5716   */\n      tag_341\n      jump\t// in\n    tag_436:\n        /* \"#utility.yul\":5653:5716   */\n      swap3\n      pop\n        /* \"#utility.yul\":5608:5726   */\n      pop\n        /* \"#utility.yul\":5765:5767   */\n      0x40\n        /* \"#utility.yul\":5791:5844   */\n      tag_437\n        /* \"#utility.yul\":5836:5843   */\n      dup7\n        /* \"#utility.yul\":5827:5833   */\n      dup3\n        /* \"#utility.yul\":5816:5825   */\n      dup8\n        /* \"#utility.yul\":5812:5834   */\n      add\n        /* \"#utility.yul\":5791:5844   */\n      tag_336\n      jump\t// in\n    tag_437:\n        /* \"#utility.yul\":5781:5844   */\n      swap2\n      pop\n        /* \"#utility.yul\":5736:5854   */\n      pop\n        /* \"#utility.yul\":5242:5861   */\n      swap3\n      pop\n      swap3\n      pop\n      swap3\n      jump\t// out\n        /* \"#utility.yul\":5867:6196   */\n    tag_70:\n        /* \"#utility.yul\":5926:5932   */\n      0x00\n        /* \"#utility.yul\":5975:5977   */\n      0x20\n        /* \"#utility.yul\":5963:5972   */\n      dup3\n        /* \"#utility.yul\":5954:5961   */\n      dup5\n        /* \"#utility.yul\":5950:5973   */\n      sub\n        /* \"#utility.yul\":5946:5978   */\n      slt\n        /* \"#utility.yul\":5943:6062   */\n      iszero\n      tag_439\n      jumpi\n        /* \"#utility.yul\":5981:6060   */\n      tag_440\n      tag_322\n      jump\t// in\n    tag_440:\n        /* \"#utility.yul\":5943:6062   */\n    tag_439:\n        /* \"#utility.yul\":6101:6102   */\n      0x00\n        /* \"#utility.yul\":6126:6179   */\n      tag_441\n        /* \"#utility.yul\":6171:6178   */\n      dup5\n        /* \"#utility.yul\":6162:6168   */\n      dup3\n        /* \"#utility.yul\":6151:6160   */\n      dup6\n        /* \"#utility.yul\":6147:6169   */\n      add\n        /* \"#utility.yul\":6126:6179   */\n      tag_341\n      jump\t// in\n    tag_441:\n        /* \"#utility.yul\":6116:6179   */\n      swap2\n      pop\n        /* \"#utility.yul\":6072:6189   */\n      pop\n        /* \"#utility.yul\":5867:6196   */\n      swap3\n      swap2\n      pop\n      pop\n      jump\t// out\n        /* \"#utility.yul\":6202:6318   */\n    tag_343:\n        /* \"#utility.yul\":6272:6293   */\n      tag_443\n        /* \"#utility.yul\":6287:6292   */\n      dup2\n        /* \"#utility.yul\":6272:6293   */\n      tag_327\n      jump\t// in\n    tag_443:\n        /* \"#utility.yul\":6265:6270   */\n      dup2\n        /* \"#utility.yul\":6262:6294   */\n      eq\n        /* \"#utility.yul\":6252:6312   */\n      tag_444\n      jumpi\n        /* \"#utility.yul\":6308:6309   */\n      0x00\n        /* \"#utility.yul\":6305:6306   */\n      dup1\n        /* \"#utility.yul\":6298:6310   */\n      revert\n        /* \"#utility.yul\":6252:6312   */\n    tag_444:\n        /* \"#utility.yul\":6202:6318   */\n      pop\n      jump\t// out\n        /* \"#utility.yul\":6324:6457   */\n    tag_344:\n        /* \"#utility.yul\":6367:6372   */\n      0x00\n        /* \"#utility.yul\":6405:6411   */\n      dup2\n        /* \"#utility.yul\":6392:6412   */\n      calldataload\n        /* \"#utility.yul\":6383:6412   */\n      swap1\n      pop\n        /* \"#utility.yul\":6421:6451   */\n      tag_446\n        /* \"#utility.yul\":6445:6450   */\n      dup2\n        /* \"#utility.yul\":6421:6451   */\n      tag_343\n      jump\t// in\n    tag_446:\n        /* \"#utility.yul\":6324:6457   */\n      swap3\n      swap2\n      pop\n      pop\n      jump\t// out\n        /* \"#utility.yul\":6463:6931   */\n    tag_87:\n        /* \"#utility.yul\":6528:6534   */\n      0x00\n        /* \"#utility.yul\":6536:6542   */\n      dup1\n        /* \"#utility.yul\":6585:6587   */\n      0x40\n        /* \"#utility.yul\":6573:6582   */\n      dup4\n        /* \"#utility.yul\":6564:6571   */\n      dup6\n        /* \"#utility.yul\":6560:6583   */\n      sub\n        /* \"#utility.yul\":6556:6588   */\n      slt\n        /* \"#utility.yul\":6553:6672   */\n      iszero\n      tag_448\n      jumpi\n        /* \"#utility.yul\":6591:6670   */\n      tag_449\n      tag_322\n      jump\t// in\n    tag_449:\n        /* \"#utility.yul\":6553:6672   */\n    tag_448:\n        /* \"#utility.yul\":6711:6712   */\n      0x00\n        /* \"#utility.yul\":6736:6789   */\n      tag_450\n        /* \"#utility.yul\":6781:6788   */\n      dup6\n        /* \"#utility.yul\":6772:6778   */\n      dup3\n        /* \"#utility.yul\":6761:6770   */\n      dup7\n        /* \"#utility.yul\":6757:6779   */\n      add\n        /* \"#utility.yul\":6736:6789   */\n      tag_341\n      jump\t// in\n    tag_450:\n        /* \"#utility.yul\":6726:6789   */\n      swap3\n      pop\n        /* \"#utility.yul\":6682:6799   */\n      pop\n        /* \"#utility.yul\":6838:6840   */\n      0x20\n        /* \"#utility.yul\":6864:6914   */\n      tag_451\n        /* \"#utility.yul\":6906:6913   */\n      dup6\n        /* \"#utility.yul\":6897:6903   */\n      dup3\n        /* \"#utility.yul\":6886:6895   */\n      dup7\n        /* \"#utility.yul\":6882:6904   */\n      add\n        /* \"#utility.yul\":6864:6914   */\n      tag_344\n      jump\t// in\n    tag_451:\n        /* \"#utility.yul\":6854:6914   */\n      swap2\n      pop\n        /* \"#utility.yul\":6809:6924   */\n      pop\n        /* \"#utility.yul\":6463:6931   */\n      swap3\n      pop\n      swap3\n      swap1\n      pop\n      jump\t// out\n        /* \"#utility.yul\":6937:7054   */\n    tag_345:\n        /* \"#utility.yul\":7046:7047   */\n      0x00\n        /* \"#utility.yul\":7043:7044   */\n      dup1\n        /* \"#utility.yul\":7036:7048   */\n      revert\n        /* \"#utility.yul\":7060:7177   */\n    tag_346:\n        /* \"#utility.yul\":7169:7170   */\n      0x00\n        /* \"#utility.yul\":7166:7167   */\n      dup1\n        /* \"#utility.yul\":7159:7171   */\n      revert\n        /* \"#utility.yul\":7183:7363   */\n    tag_347:\n        /* \"#utility.yul\":7231:7308   */\n      0x4e487b7100000000000000000000000000000000000000000000000000000000\n        /* \"#utility.yul\":7228:7229   */\n      0x00\n        /* \"#utility.yul\":7221:7309   */\n      mstore\n        /* \"#utility.yul\":7328:7332   */\n      0x41\n        /* \"#utility.yul\":7325:7326   */\n      0x04\n        /* \"#utility.yul\":7318:7333   */\n      mstore\n        /* \"#utility.yul\":7352:7356   */\n      0x24\n        /* \"#utility.yul\":7349:7350   */\n      0x00\n        /* \"#utility.yul\":7342:7357   */\n      revert\n        /* \"#utility.yul\":7369:7650   */\n    tag_348:\n        /* \"#utility.yul\":7452:7479   */\n      tag_456\n        /* \"#utility.yul\":7474:7478   */\n      dup3\n        /* \"#utility.yul\":7452:7479   */\n      tag_332\n      jump\t// in\n    tag_456:\n        /* \"#utility.yul\":7444:7450   */\n      dup2\n        /* \"#utility.yul\":7440:7480   */\n      add\n        /* \"#utility.yul\":7582:7588   */\n      dup2\n        /* \"#utility.yul\":7570:7580   */\n      dup2\n        /* \"#utility.yul\":7567:7589   */\n      lt\n        /* \"#utility.yul\":7546:7564   */\n      0xffffffffffffffff\n        /* \"#utility.yul\":7534:7544   */\n      dup3\n        /* \"#utility.yul\":7531:7565   */\n      gt\n        /* \"#utility.yul\":7528:7590   */\n      or\n        /* \"#utility.yul\":7525:7613   */\n      iszero\n      tag_457\n      jumpi\n        /* \"#utility.yul\":7593:7611   */\n      tag_458\n      tag_347\n      jump\t// in\n    tag_458:\n        /* \"#utility.yul\":7525:7613   */\n    tag_457:\n        /* \"#utility.yul\":7633:7643   */\n      dup1\n        /* \"#utility.yul\":7629:7631   */\n      0x40\n        /* \"#utility.yul\":7622:7644   */\n      mstore\n        /* \"#utility.yul\":7412:7650   */\n      pop\n        /* \"#utility.yul\":7369:7650   */\n      pop\n      pop\n      jump\t// out\n        /* \"#utility.yul\":7656:7785   */\n    tag_349:\n        /* \"#utility.yul\":7690:7696   */\n      0x00\n        /* \"#utility.yul\":7717:7737   */\n      tag_460\n      tag_321\n      jump\t// in\n    tag_460:\n        /* \"#utility.yul\":7707:7737   */\n      swap1\n      pop\n        /* \"#utility.yul\":7746:7779   */\n      tag_461\n        /* \"#utility.yul\":7774:7778   */\n      dup3\n        /* \"#utility.yul\":7766:7772   */\n      dup3\n        /* \"#utility.yul\":7746:7779   */\n      tag_348\n      jump\t// in\n    tag_461:\n        /* \"#utility.yul\":7656:7785   */\n      swap2\n      swap1\n      pop\n      jump\t// out\n        /* \"#utility.yul\":7791:8098   */\n    tag_350:\n        /* \"#utility.yul\":7852:7856   */\n      0x00\n        /* \"#utility.yul\":7942:7960   */\n      0xffffffffffffffff\n        /* \"#utility.yul\":7934:7940   */\n      dup3\n        /* \"#utility.yul\":7931:7961   */\n      gt\n        /* \"#utility.yul\":7928:7984   */\n      iszero\n      tag_463\n      jumpi\n        /* \"#utility.yul\":7964:7982   */\n      tag_464\n      tag_347\n      jump\t// in\n    tag_464:\n        /* \"#utility.yul\":7928:7984   */\n    tag_463:\n        /* \"#utility.yul\":8002:8031   */\n      tag_465\n        /* \"#utility.yul\":8024:8030   */\n      dup3\n        /* \"#utility.yul\":8002:8031   */\n      tag_332\n      jump\t// in\n    tag_465:\n        /* \"#utility.yul\":7994:8031   */\n      swap1\n      pop\n        /* \"#utility.yul\":8086:8090   */\n      0x20\n        /* \"#utility.yul\":8080:8084   */\n      dup2\n        /* \"#utility.yul\":8076:8091   */\n      add\n        /* \"#utility.yul\":8068:8091   */\n      swap1\n      pop\n        /* \"#utility.yul\":7791:8098   */\n      swap2\n      swap1\n      pop\n      jump\t// out\n        /* \"#utility.yul\":8104:8250   */\n    tag_351:\n        /* \"#utility.yul\":8201:8207   */\n      dup3\n        /* \"#utility.yul\":8196:8199   */\n      dup2\n        /* \"#utility.yul\":8191:8194   */\n      dup4\n        /* \"#utility.yul\":8178:8208   */\n      calldatacopy\n        /* \"#utility.yul\":8242:8243   */\n      0x00\n        /* \"#utility.yul\":8233:8239   */\n      dup4\n        /* \"#utility.yul\":8228:8231   */\n      dup4\n        /* \"#utility.yul\":8224:8240   */\n      add\n        /* \"#utility.yul\":8217:8244   */\n      mstore\n        /* \"#utility.yul\":8104:8250   */\n      pop\n      pop\n      pop\n      jump\t// out\n        /* \"#utility.yul\":8256:8679   */\n    tag_352:\n        /* \"#utility.yul\":8333:8338   */\n      0x00\n        /* \"#utility.yul\":8358:8423   */\n      tag_468\n        /* \"#utility.yul\":8374:8422   */\n      tag_469\n        /* \"#utility.yul\":8415:8421   */\n      dup5\n        /* \"#utility.yul\":8374:8422   */\n      tag_350\n      jump\t// in\n    tag_469:\n        /* \"#utility.yul\":8358:8423   */\n      tag_349\n      jump\t// in\n    tag_468:\n        /* \"#utility.yul\":8349:8423   */\n      swap1\n      pop\n        /* \"#utility.yul\":8446:8452   */\n      dup3\n        /* \"#utility.yul\":8439:8444   */\n      dup2\n        /* \"#utility.yul\":8432:8453   */\n      mstore\n        /* \"#utility.yul\":8484:8488   */\n      0x20\n        /* \"#utility.yul\":8477:8482   */\n      dup2\n        /* \"#utility.yul\":8473:8489   */\n      add\n        /* \"#utility.yul\":8522:8525   */\n      dup5\n        /* \"#utility.yul\":8513:8519   */\n      dup5\n        /* \"#utility.yul\":8508:8511   */\n      dup5\n        /* \"#utility.yul\":8504:8520   */\n      add\n        /* \"#utility.yul\":8501:8526   */\n      gt\n        /* \"#utility.yul\":8498:8610   */\n      iszero\n      tag_470\n      jumpi\n        /* \"#utility.yul\":8529:8608   */\n      tag_471\n      tag_346\n      jump\t// in\n    tag_471:\n        /* \"#utility.yul\":8498:8610   */\n    tag_470:\n        /* \"#utility.yul\":8619:8673   */\n      tag_472\n        /* \"#utility.yul\":8666:8672   */\n      dup5\n        /* \"#utility.yul\":8661:8664   */\n      dup3\n        /* \"#utility.yul\":8656:8659   */\n      dup6\n        /* \"#utility.yul\":8619:8673   */\n      tag_351\n      jump\t// in\n    tag_472:\n        /* \"#utility.yul\":8339:8679   */\n      pop\n        /* \"#utility.yul\":8256:8679   */\n      swap4\n      swap3\n      pop\n      pop\n      pop\n      jump\t// out\n        /* \"#utility.yul\":8698:9036   */\n    tag_353:\n        /* \"#utility.yul\":8753:8758   */\n      0x00\n        /* \"#utility.yul\":8802:8805   */\n      dup3\n        /* \"#utility.yul\":8795:8799   */\n      0x1f\n        /* \"#utility.yul\":8787:8793   */\n      dup4\n        /* \"#utility.yul\":8783:8800   */\n      add\n        /* \"#utility.yul\":8779:8806   */\n      slt\n        /* \"#utility.yul\":8769:8891   */\n      tag_474\n      jumpi\n        /* \"#utility.yul\":8810:8889   */\n      tag_475\n      tag_345\n      jump\t// in\n    tag_475:\n        /* \"#utility.yul\":8769:8891   */\n    tag_474:\n        /* \"#utility.yul\":8927:8933   */\n      dup2\n        /* \"#utility.yul\":8914:8934   */\n      calldataload\n        /* \"#utility.yul\":8952:9030   */\n      tag_476\n        /* \"#utility.yul\":9026:9029   */\n      dup5\n        /* \"#utility.yul\":9018:9024   */\n      dup3\n        /* \"#utility.yul\":9011:9015   */\n      0x20\n        /* \"#utility.yul\":9003:9009   */\n      dup7\n        /* \"#utility.yul\":8999:9016   */\n      add\n        /* \"#utility.yul\":8952:9030   */\n      tag_352\n      jump\t// in\n    tag_476:\n        /* \"#utility.yul\":8943:9030   */\n      swap2\n      pop\n        /* \"#utility.yul\":8759:9036   */\n      pop\n        /* \"#utility.yul\":8698:9036   */\n      swap3\n      swap2\n      pop\n      pop\n      jump\t// out\n        /* \"#utility.yul\":9042:9985   */\n    tag_91:\n        /* \"#utility.yul\":9137:9143   */\n      0x00\n        /* \"#utility.yul\":9145:9151   */\n      dup1\n        /* \"#utility.yul\":9153:9159   */\n      0x00\n        /* \"#utility.yul\":9161:9167   */\n      dup1\n        /* \"#utility.yul\":9210:9213   */\n      0x80\n        /* \"#utility.yul\":9198:9207   */\n      dup6\n        /* \"#utility.yul\":9189:9196   */\n      dup8\n        /* \"#utility.yul\":9185:9208   */\n      sub\n        /* \"#utility.yul\":9181:9214   */\n      slt\n        /* \"#utility.yul\":9178:9298   */\n      iszero\n      tag_478\n      jumpi\n        /* \"#utility.yul\":9217:9296   */\n      tag_479\n      tag_322\n      jump\t// in\n    tag_479:\n        /* \"#utility.yul\":9178:9298   */\n    tag_478:\n        /* \"#utility.yul\":9337:9338   */\n      0x00\n        /* \"#utility.yul\":9362:9415   */\n      tag_480\n        /* \"#utility.yul\":9407:9414   */\n      dup8\n        /* \"#utility.yul\":9398:9404   */\n      dup3\n        /* \"#utility.yul\":9387:9396   */\n      dup9\n        /* \"#utility.yul\":9383:9405   */\n      add\n        /* \"#utility.yul\":9362:9415   */\n      tag_341\n      jump\t// in\n    tag_480:\n        /* \"#utility.yul\":9352:9415   */\n      swap5\n      pop\n        /* \"#utility.yul\":9308:9425   */\n      pop\n        /* \"#utility.yul\":9464:9466   */\n      0x20\n        /* \"#utility.yul\":9490:9543   */\n      tag_481\n        /* \"#utility.yul\":9535:9542   */\n      dup8\n        /* \"#utility.yul\":9526:9532   */\n      dup3\n        /* \"#utility.yul\":9515:9524   */\n      dup9\n        /* \"#utility.yul\":9511:9533   */\n      add\n        /* \"#utility.yul\":9490:9543   */\n      tag_341\n      jump\t// in\n    tag_481:\n        /* \"#utility.yul\":9480:9543   */\n      swap4\n      pop\n        /* \"#utility.yul\":9435:9553   */\n      pop\n        /* \"#utility.yul\":9592:9594   */\n      0x40\n        /* \"#utility.yul\":9618:9671   */\n      tag_482\n        /* \"#utility.yul\":9663:9670   */\n      dup8\n        /* \"#utility.yul\":9654:9660   */\n      dup3\n        /* \"#utility.yul\":9643:9652   */\n      dup9\n        /* \"#utility.yul\":9639:9661   */\n      add\n        /* \"#utility.yul\":9618:9671   */\n      tag_336\n      jump\t// in\n    tag_482:\n        /* \"#utility.yul\":9608:9671   */\n      swap3\n      pop\n        /* \"#utility.yul\":9563:9681   */\n      pop\n        /* \"#utility.yul\":9748:9750   */\n      0x60\n        /* \"#utility.yul\":9737:9746   */\n      dup6\n        /* \"#utility.yul\":9733:9751   */\n      add\n        /* \"#utility.yul\":9720:9752   */\n      calldataload\n        /* \"#utility.yul\":9779:9797   */\n      0xffffffffffffffff\n        /* \"#utility.yul\":9771:9777   */\n      dup2\n        /* \"#utility.yul\":9768:9798   */\n      gt\n        /* \"#utility.yul\":9765:9882   */\n      iszero\n      tag_483\n      jumpi\n        /* \"#utility.yul\":9801:9880   */\n      tag_484\n      tag_323\n      jump\t// in\n    tag_484:\n        /* \"#utility.yul\":9765:9882   */\n    tag_483:\n        /* \"#utility.yul\":9906:9968   */\n      tag_485\n        /* \"#utility.yul\":9960:9967   */\n      dup8\n        /* \"#utility.yul\":9951:9957   */\n      dup3\n        /* \"#utility.yul\":9940:9949   */\n      dup9\n        /* \"#utility.yul\":9936:9958   */\n      add\n        /* \"#utility.yul\":9906:9968   */\n      tag_353\n      jump\t// in\n    tag_485:\n        /* \"#utility.yul\":9896:9968   */\n      swap2\n      pop\n        /* \"#utility.yul\":9691:9978   */\n      pop\n        /* \"#utility.yul\":9042:9985   */\n      swap3\n      swap6\n      swap2\n      swap5\n      pop\n      swap3\n      pop\n      jump\t// out\n        /* \"#utility.yul\":9991:10465   */\n    tag_101:\n        /* \"#utility.yul\":10059:10065   */\n      0x00\n        /* \"#utility.yul\":10067:10073   */\n      dup1\n        /* \"#utility.yul\":10116:10118   */\n      0x40\n        /* \"#utility.yul\":10104:10113   */\n      dup4\n        /* \"#utility.yul\":10095:10102   */\n      dup6\n        /* \"#utility.yul\":10091:10114   */\n      sub\n        /* \"#utility.yul\":10087:10119   */\n      slt\n        /* \"#utility.yul\":10084:10203   */\n      iszero\n      tag_487\n      jumpi\n        /* \"#utility.yul\":10122:10201   */\n      tag_488\n      tag_322\n      jump\t// in\n    tag_488:\n        /* \"#utility.yul\":10084:10203   */\n    tag_487:\n        /* \"#utility.yul\":10242:10243   */\n      0x00\n        /* \"#utility.yul\":10267:10320   */\n      tag_489\n        /* \"#utility.yul\":10312:10319   */\n      dup6\n        /* \"#utility.yul\":10303:10309   */\n      dup3\n        /* \"#utility.yul\":10292:10301   */\n      dup7\n        /* \"#utility.yul\":10288:10310   */\n      add\n        /* \"#utility.yul\":10267:10320   */\n      tag_341\n      jump\t// in\n    tag_489:\n        /* \"#utility.yul\":10257:10320   */\n      swap3\n      pop\n        /* \"#utility.yul\":10213:10330   */\n      pop\n        /* \"#utility.yul\":10369:10371   */\n      0x20\n        /* \"#utility.yul\":10395:10448   */\n      tag_490\n        /* \"#utility.yul\":10440:10447   */\n      dup6\n        /* \"#utility.yul\":10431:10437   */\n      dup3\n        /* \"#utility.yul\":10420:10429   */\n      dup7\n        /* \"#utility.yul\":10416:10438   */\n      add\n        /* \"#utility.yul\":10395:10448   */\n      tag_341\n      jump\t// in\n    tag_490:\n        /* \"#utility.yul\":10385:10448   */\n      swap2\n      pop\n        /* \"#utility.yul\":10340:10458   */\n      pop\n        /* \"#utility.yul\":9991:10465   */\n      swap3\n      pop\n      swap3\n      swap1\n      pop\n      jump\t// out\n        /* \"#utility.yul\":10471:10651   */\n    tag_354:\n        /* \"#utility.yul\":10519:10596   */\n      0x4e487b7100000000000000000000000000000000000000000000000000000000\n        /* \"#utility.yul\":10516:10517   */\n      0x00\n        /* \"#utility.yul\":10509:10597   */\n      mstore\n        /* \"#utility.yul\":10616:10620   */\n      0x22\n        /* \"#utility.yul\":10613:10614   */\n      0x04\n        /* \"#utility.yul\":10606:10621   */\n      mstore\n        /* \"#utility.yul\":10640:10644   */\n      0x24\n        /* \"#utility.yul\":10637:10638   */\n      0x00\n        /* \"#utility.yul\":10630:10645   */\n      revert\n        /* \"#utility.yul\":10657:10977   */\n    tag_113:\n        /* \"#utility.yul\":10701:10707   */\n      0x00\n        /* \"#utility.yul\":10738:10739   */\n      0x02\n        /* \"#utility.yul\":10732:10736   */\n      dup3\n        /* \"#utility.yul\":10728:10740   */\n      div\n        /* \"#utility.yul\":10718:10740   */\n      swap1\n      pop\n        /* \"#utility.yul\":10785:10786   */\n      0x01\n        /* \"#utility.yul\":10779:10783   */\n      dup3\n        /* \"#utility.yul\":10775:10787   */\n      and\n        /* \"#utility.yul\":10806:10824   */\n      dup1\n        /* \"#utility.yul\":10796:10877   */\n      tag_493\n      jumpi\n        /* \"#utility.yul\":10862:10866   */\n      0x7f\n        /* \"#utility.yul\":10854:10860   */\n      dup3\n        /* \"#utility.yul\":10850:10867   */\n      and\n        /* \"#utility.yul\":10840:10867   */\n      swap2\n      pop\n        /* \"#utility.yul\":10796:10877   */\n    tag_493:\n        /* \"#utility.yul\":10924:10926   */\n      0x20\n        /* \"#utility.yul\":10916:10922   */\n      dup3\n        /* \"#utility.yul\":10913:10927   */\n      lt\n        /* \"#utility.yul\":10893:10911   */\n      dup2\n        /* \"#utility.yul\":10890:10928   */\n      sub\n        /* \"#utility.yul\":10887:10971   */\n      tag_494\n      jumpi\n        /* \"#utility.yul\":10943:10961   */\n      tag_495\n      tag_354\n      jump\t// in\n    tag_495:\n        /* \"#utility.yul\":10887:10971   */\n    tag_494:\n        /* \"#utility.yul\":10708:10977   */\n      pop\n        /* \"#utility.yul\":10657:10977   */\n      swap2\n      swap1\n      pop\n      jump\t// out\n        /* \"#utility.yul\":10983:11131   */\n    tag_355:\n        /* \"#utility.yul\":11085:11096   */\n      0x00\n        /* \"#utility.yul\":11122:11125   */\n      dup2\n        /* \"#utility.yul\":11107:11125   */\n      swap1\n      pop\n        /* \"#utility.yul\":10983:11131   */\n      swap3\n      swap2\n      pop\n      pop\n      jump\t// out\n        /* \"#utility.yul\":11137:11527   */\n    tag_356:\n        /* \"#utility.yul\":11243:11246   */\n      0x00\n        /* \"#utility.yul\":11271:11310   */\n      tag_498\n        /* \"#utility.yul\":11304:11309   */\n      dup3\n        /* \"#utility.yul\":11271:11310   */\n      tag_329\n      jump\t// in\n    tag_498:\n        /* \"#utility.yul\":11326:11415   */\n      tag_499\n        /* \"#utility.yul\":11408:11414   */\n      dup2\n        /* \"#utility.yul\":11403:11406   */\n      dup6\n        /* \"#utility.yul\":11326:11415   */\n      tag_355\n      jump\t// in\n    tag_499:\n        /* \"#utility.yul\":11319:11415   */\n      swap4\n      pop\n        /* \"#utility.yul\":11424:11489   */\n      tag_500\n        /* \"#utility.yul\":11482:11488   */\n      dup2\n        /* \"#utility.yul\":11477:11480   */\n      dup6\n        /* \"#utility.yul\":11470:11474   */\n      0x20\n        /* \"#utility.yul\":11463:11468   */\n      dup7\n        /* \"#utility.yul\":11459:11475   */\n      add\n        /* \"#utility.yul\":11424:11489   */\n      tag_331\n      jump\t// in\n    tag_500:\n        /* \"#utility.yul\":11514:11520   */\n      dup1\n        /* \"#utility.yul\":11509:11512   */\n      dup5\n        /* \"#utility.yul\":11505:11521   */\n      add\n        /* \"#utility.yul\":11498:11521   */\n      swap2\n      pop\n        /* \"#utility.yul\":11247:11527   */\n      pop\n        /* \"#utility.yul\":11137:11527   */\n      swap3\n      swap2\n      pop\n      pop\n      jump\t// out\n        /* \"#utility.yul\":11533:11688   */\n    tag_357:\n        /* \"#utility.yul\":11673:11680   */\n      0x2e6a736f6e000000000000000000000000000000000000000000000000000000\n        /* \"#utility.yul\":11669:11670   */\n      0x00\n        /* \"#utility.yul\":11661:11667   */\n      dup3\n        /* \"#utility.yul\":11657:11671   */\n      add\n        /* \"#utility.yul\":11650:11681   */\n      mstore\n        /* \"#utility.yul\":11533:11688   */\n      pop\n      jump\t// out\n        /* \"#utility.yul\":11694:12094   */\n    tag_358:\n        /* \"#utility.yul\":11854:11857   */\n      0x00\n        /* \"#utility.yul\":11875:11959   */\n      tag_503\n        /* \"#utility.yul\":11957:11958   */\n      0x05\n        /* \"#utility.yul\":11952:11955   */\n      dup4\n        /* \"#utility.yul\":11875:11959   */\n      tag_355\n      jump\t// in\n    tag_503:\n        /* \"#utility.yul\":11868:11959   */\n      swap2\n      pop\n        /* \"#utility.yul\":11968:12061   */\n      tag_504\n        /* \"#utility.yul\":12057:12060   */\n      dup3\n        /* \"#utility.yul\":11968:12061   */\n      tag_357\n      jump\t// in\n    tag_504:\n        /* \"#utility.yul\":12086:12087   */\n      0x05\n        /* \"#utility.yul\":12081:12084   */\n      dup3\n        /* \"#utility.yul\":12077:12088   */\n      add\n        /* \"#utility.yul\":12070:12088   */\n      swap1\n      pop\n        /* \"#utility.yul\":11694:12094   */\n      swap2\n      swap1\n      pop\n      jump\t// out\n        /* \"#utility.yul\":12100:12801   */\n    tag_208:\n        /* \"#utility.yul\":12381:12384   */\n      0x00\n        /* \"#utility.yul\":12403:12498   */\n      tag_506\n        /* \"#utility.yul\":12494:12497   */\n      dup3\n        /* \"#utility.yul\":12485:12491   */\n      dup6\n        /* \"#utility.yul\":12403:12498   */\n      tag_356\n      jump\t// in\n    tag_506:\n        /* \"#utility.yul\":12396:12498   */\n      swap2\n      pop\n        /* \"#utility.yul\":12515:12610   */\n      tag_507\n        /* \"#utility.yul\":12606:12609   */\n      dup3\n        /* \"#utility.yul\":12597:12603   */\n      dup5\n        /* \"#utility.yul\":12515:12610   */\n      tag_356\n      jump\t// in\n    tag_507:\n        /* \"#utility.yul\":12508:12610   */\n      swap2\n      pop\n        /* \"#utility.yul\":12627:12775   */\n      tag_508\n        /* \"#utility.yul\":12771:12774   */\n      dup3\n        /* \"#utility.yul\":12627:12775   */\n      tag_358\n      jump\t// in\n    tag_508:\n        /* \"#utility.yul\":12620:12775   */\n      swap2\n      pop\n        /* \"#utility.yul\":12792:12795   */\n      dup2\n        /* \"#utility.yul\":12785:12795   */\n      swap1\n      pop\n        /* \"#utility.yul\":12100:12801   */\n      swap4\n      swap3\n      pop\n      pop\n      pop\n      jump\t// out\n        /* \"#utility.yul\":12807:13032   */\n    tag_359:\n        /* \"#utility.yul\":12947:12981   */\n      0x4f776e61626c653a206e6577206f776e657220697320746865207a65726f2061\n        /* \"#utility.yul\":12943:12944   */\n      0x00\n        /* \"#utility.yul\":12935:12941   */\n      dup3\n        /* \"#utility.yul\":12931:12945   */\n      add\n        /* \"#utility.yul\":12924:12982   */\n      mstore\n        /* \"#utility.yul\":13016:13024   */\n      0x6464726573730000000000000000000000000000000000000000000000000000\n        /* \"#utility.yul\":13011:13013   */\n      0x20\n        /* \"#utility.yul\":13003:13009   */\n      dup3\n        /* \"#utility.yul\":12999:13014   */\n      add\n        /* \"#utility.yul\":12992:13025   */\n      mstore\n        /* \"#utility.yul\":12807:13032   */\n      pop\n      jump\t// out\n        /* \"#utility.yul\":13038:13404   */\n    tag_360:\n        /* \"#utility.yul\":13180:13183   */\n      0x00\n        /* \"#utility.yul\":13201:13268   */\n      tag_511\n        /* \"#utility.yul\":13265:13267   */\n      0x26\n        /* \"#utility.yul\":13260:13263   */\n      dup4\n        /* \"#utility.yul\":13201:13268   */\n      tag_330\n      jump\t// in\n    tag_511:\n        /* \"#utility.yul\":13194:13268   */\n      swap2\n      pop\n        /* \"#utility.yul\":13277:13370   */\n      tag_512\n        /* \"#utility.yul\":13366:13369   */\n      dup3\n        /* \"#utility.yul\":13277:13370   */\n      tag_359\n      jump\t// in\n    tag_512:\n        /* \"#utility.yul\":13395:13397   */\n      0x40\n        /* \"#utility.yul\":13390:13393   */\n      dup3\n        /* \"#utility.yul\":13386:13398   */\n      add\n        /* \"#utility.yul\":13379:13398   */\n      swap1\n      pop\n        /* \"#utility.yul\":13038:13404   */\n      swap2\n      swap1\n      pop\n      jump\t// out\n        /* \"#utility.yul\":13410:13829   */\n    tag_215:\n        /* \"#utility.yul\":13576:13580   */\n      0x00\n        /* \"#utility.yul\":13614:13616   */\n      0x20\n        /* \"#utility.yul\":13603:13612   */\n      dup3\n        /* \"#utility.yul\":13599:13617   */\n      add\n        /* \"#utility.yul\":13591:13617   */\n      swap1\n      pop\n        /* \"#utility.yul\":13663:13672   */\n      dup2\n        /* \"#utility.yul\":13657:13661   */\n      dup2\n        /* \"#utility.yul\":13653:13673   */\n      sub\n        /* \"#utility.yul\":13649:13650   */\n      0x00\n        /* \"#utility.yul\":13638:13647   */\n      dup4\n        /* \"#utility.yul\":13634:13651   */\n      add\n        /* \"#utility.yul\":13627:13674   */\n      mstore\n        /* \"#utility.yul\":13691:13822   */\n      tag_514\n        /* \"#utility.yul\":13817:13821   */\n      dup2\n        /* \"#utility.yul\":13691:13822   */\n      tag_360\n      jump\t// in\n    tag_514:\n        /* \"#utility.yul\":13683:13822   */\n      swap1\n      pop\n        /* \"#utility.yul\":13410:13829   */\n      swap2\n      swap1\n      pop\n      jump\t// out\n        /* \"#utility.yul\":13835:14017   */\n    tag_361:\n        /* \"#utility.yul\":13975:14009   */\n      0x4f776e61626c653a2063616c6c6572206973206e6f7420746865206f776e6572\n        /* \"#utility.yul\":13971:13972   */\n      0x00\n        /* \"#utility.yul\":13963:13969   */\n      dup3\n        /* \"#utility.yul\":13959:13973   */\n      add\n        /* \"#utility.yul\":13952:14010   */\n      mstore\n        /* \"#utility.yul\":13835:14017   */\n      pop\n      jump\t// out\n        /* \"#utility.yul\":14023:14389   */\n    tag_362:\n        /* \"#utility.yul\":14165:14168   */\n      0x00\n        /* \"#utility.yul\":14186:14253   */\n      tag_517\n        /* \"#utility.yul\":14250:14252   */\n      0x20\n        /* \"#utility.yul\":14245:14248   */\n      dup4\n        /* \"#utility.yul\":14186:14253   */\n      tag_330\n      jump\t// in\n    tag_517:\n        /* \"#utility.yul\":14179:14253   */\n      swap2\n      pop\n        /* \"#utility.yul\":14262:14355   */\n      tag_518\n        /* \"#utility.yul\":14351:14354   */\n      dup3\n        /* \"#utility.yul\":14262:14355   */\n      tag_361\n      jump\t// in\n    tag_518:\n        /* \"#utility.yul\":14380:14382   */\n      0x20\n        /* \"#utility.yul\":14375:14378   */\n      dup3\n        /* \"#utility.yul\":14371:14383   */\n      add\n        /* \"#utility.yul\":14364:14383   */\n      swap1\n      pop\n        /* \"#utility.yul\":14023:14389   */\n      swap2\n      swap1\n      pop\n      jump\t// out\n        /* \"#utility.yul\":14395:14814   */\n    tag_223:\n        /* \"#utility.yul\":14561:14565   */\n      0x00\n        /* \"#utility.yul\":14599:14601   */\n      0x20\n        /* \"#utility.yul\":14588:14597   */\n      dup3\n        /* \"#utility.yul\":14584:14602   */\n      add\n        /* \"#utility.yul\":14576:14602   */\n      swap1\n      pop\n        /* \"#utility.yul\":14648:14657   */\n      dup2\n        /* \"#utility.yul\":14642:14646   */\n      dup2\n        /* \"#utility.yul\":14638:14658   */\n      sub\n        /* \"#utility.yul\":14634:14635   */\n      0x00\n        /* \"#utility.yul\":14623:14632   */\n      dup4\n        /* \"#utility.yul\":14619:14636   */\n      add\n        /* \"#utility.yul\":14612:14659   */\n      mstore\n        /* \"#utility.yul\":14676:14807   */\n      tag_520\n        /* \"#utility.yul\":14802:14806   */\n      dup2\n        /* \"#utility.yul\":14676:14807   */\n      tag_362\n      jump\t// in\n    tag_520:\n        /* \"#utility.yul\":14668:14807   */\n      swap1\n      pop\n        /* \"#utility.yul\":14395:14814   */\n      swap2\n      swap1\n      pop\n      jump\t// out\n        /* \"#utility.yul\":14820:15000   */\n    tag_363:\n        /* \"#utility.yul\":14868:14945   */\n      0x4e487b7100000000000000000000000000000000000000000000000000000000\n        /* \"#utility.yul\":14865:14866   */\n      0x00\n        /* \"#utility.yul\":14858:14946   */\n      mstore\n        /* \"#utility.yul\":14965:14969   */\n      0x11\n        /* \"#utility.yul\":14962:14963   */\n      0x04\n        /* \"#utility.yul\":14955:14970   */\n      mstore\n        /* \"#utility.yul\":14989:14993   */\n      0x24\n        /* \"#utility.yul\":14986:14987   */\n      0x00\n        /* \"#utility.yul\":14979:14994   */\n      revert\n        /* \"#utility.yul\":15006:15177   */\n    tag_234:\n        /* \"#utility.yul\":15045:15048   */\n      0x00\n        /* \"#utility.yul\":15068:15092   */\n      tag_523\n        /* \"#utility.yul\":15086:15091   */\n      dup3\n        /* \"#utility.yul\":15068:15092   */\n      tag_334\n      jump\t// in\n    tag_523:\n        /* \"#utility.yul\":15059:15092   */\n      swap2\n      pop\n        /* \"#utility.yul\":15114:15118   */\n      0x00\n        /* \"#utility.yul\":15107:15112   */\n      dup3\n        /* \"#utility.yul\":15104:15119   */\n      sub\n        /* \"#utility.yul\":15101:15142   */\n      tag_524\n      jumpi\n        /* \"#utility.yul\":15122:15140   */\n      tag_525\n      tag_363\n      jump\t// in\n    tag_525:\n        /* \"#utility.yul\":15101:15142   */\n    tag_524:\n        /* \"#utility.yul\":15169:15170   */\n      0x01\n        /* \"#utility.yul\":15162:15167   */\n      dup3\n        /* \"#utility.yul\":15158:15171   */\n      sub\n        /* \"#utility.yul\":15151:15171   */\n      swap1\n      pop\n        /* \"#utility.yul\":15006:15177   */\n      swap2\n      swap1\n      pop\n      jump\t// out\n        /* \"#utility.yul\":15183:15281   */\n    tag_364:\n        /* \"#utility.yul\":15234:15240   */\n      0x00\n        /* \"#utility.yul\":15268:15273   */\n      dup2\n        /* \"#utility.yul\":15262:15274   */\n      mload\n        /* \"#utility.yul\":15252:15274   */\n      swap1\n      pop\n        /* \"#utility.yul\":15183:15281   */\n      swap2\n      swap1\n      pop\n      jump\t// out\n        /* \"#utility.yul\":15287:15455   */\n    tag_365:\n        /* \"#utility.yul\":15370:15381   */\n      0x00\n        /* \"#utility.yul\":15404:15410   */\n      dup3\n        /* \"#utility.yul\":15399:15402   */\n      dup3\n        /* \"#utility.yul\":15392:15411   */\n      mstore\n        /* \"#utility.yul\":15444:15448   */\n      0x20\n        /* \"#utility.yul\":15439:15442   */\n      dup3\n        /* \"#utility.yul\":15435:15449   */\n      add\n        /* \"#utility.yul\":15420:15449   */\n      swap1\n      pop\n        /* \"#utility.yul\":15287:15455   */\n      swap3\n      swap2\n      pop\n      pop\n      jump\t// out\n        /* \"#utility.yul\":15461:15834   */\n    tag_366:\n        /* \"#utility.yul\":15547:15550   */\n      0x00\n        /* \"#utility.yul\":15575:15613   */\n      tag_529\n        /* \"#utility.yul\":15607:15612   */\n      dup3\n        /* \"#utility.yul\":15575:15613   */\n      tag_364\n      jump\t// in\n    tag_529:\n        /* \"#utility.yul\":15629:15699   */\n      tag_530\n        /* \"#utility.yul\":15692:15698   */\n      dup2\n        /* \"#utility.yul\":15687:15690   */\n      dup6\n        /* \"#utility.yul\":15629:15699   */\n      tag_365\n      jump\t// in\n    tag_530:\n        /* \"#utility.yul\":15622:15699   */\n      swap4\n      pop\n        /* \"#utility.yul\":15708:15773   */\n      tag_531\n        /* \"#utility.yul\":15766:15772   */\n      dup2\n        /* \"#utility.yul\":15761:15764   */\n      dup6\n        /* \"#utility.yul\":15754:15758   */\n      0x20\n        /* \"#utility.yul\":15747:15752   */\n      dup7\n        /* \"#utility.yul\":15743:15759   */\n      add\n        /* \"#utility.yul\":15708:15773   */\n      tag_331\n      jump\t// in\n    tag_531:\n        /* \"#utility.yul\":15798:15827   */\n      tag_532\n        /* \"#utility.yul\":15820:15826   */\n      dup2\n        /* \"#utility.yul\":15798:15827   */\n      tag_332\n      jump\t// in\n    tag_532:\n        /* \"#utility.yul\":15793:15796   */\n      dup5\n        /* \"#utility.yul\":15789:15828   */\n      add\n        /* \"#utility.yul\":15782:15828   */\n      swap2\n      pop\n        /* \"#utility.yul\":15551:15834   */\n      pop\n        /* \"#utility.yul\":15461:15834   */\n      swap3\n      swap2\n      pop\n      pop\n      jump\t// out\n        /* \"#utility.yul\":15840:16480   */\n    tag_273:\n        /* \"#utility.yul\":16035:16039   */\n      0x00\n        /* \"#utility.yul\":16073:16076   */\n      0x80\n        /* \"#utility.yul\":16062:16071   */\n      dup3\n        /* \"#utility.yul\":16058:16077   */\n      add\n        /* \"#utility.yul\":16050:16077   */\n      swap1\n      pop\n        /* \"#utility.yul\":16087:16158   */\n      tag_534\n        /* \"#utility.yul\":16155:16156   */\n      0x00\n        /* \"#utility.yul\":16144:16153   */\n      dup4\n        /* \"#utility.yul\":16140:16157   */\n      add\n        /* \"#utility.yul\":16131:16137   */\n      dup8\n        /* \"#utility.yul\":16087:16158   */\n      tag_339\n      jump\t// in\n    tag_534:\n        /* \"#utility.yul\":16168:16240   */\n      tag_535\n        /* \"#utility.yul\":16236:16238   */\n      0x20\n        /* \"#utility.yul\":16225:16234   */\n      dup4\n        /* \"#utility.yul\":16221:16239   */\n      add\n        /* \"#utility.yul\":16212:16218   */\n      dup7\n        /* \"#utility.yul\":16168:16240   */\n      tag_339\n      jump\t// in\n    tag_535:\n        /* \"#utility.yul\":16250:16322   */\n      tag_536\n        /* \"#utility.yul\":16318:16320   */\n      0x40\n        /* \"#utility.yul\":16307:16316   */\n      dup4\n        /* \"#utility.yul\":16303:16321   */\n      add\n        /* \"#utility.yul\":16294:16300   */\n      dup6\n        /* \"#utility.yul\":16250:16322   */\n      tag_342\n      jump\t// in\n    tag_536:\n        /* \"#utility.yul\":16369:16378   */\n      dup2\n        /* \"#utility.yul\":16363:16367   */\n      dup2\n        /* \"#utility.yul\":16359:16379   */\n      sub\n        /* \"#utility.yul\":16354:16356   */\n      0x60\n        /* \"#utility.yul\":16343:16352   */\n      dup4\n        /* \"#utility.yul\":16339:16357   */\n      add\n        /* \"#utility.yul\":16332:16380   */\n      mstore\n        /* \"#utility.yul\":16397:16473   */\n      tag_537\n        /* \"#utility.yul\":16468:16472   */\n      dup2\n        /* \"#utility.yul\":16459:16465   */\n      dup5\n        /* \"#utility.yul\":16397:16473   */\n      tag_366\n      jump\t// in\n    tag_537:\n        /* \"#utility.yul\":16389:16473   */\n      swap1\n      pop\n        /* \"#utility.yul\":15840:16480   */\n      swap6\n      swap5\n      pop\n      pop\n      pop\n      pop\n      pop\n      jump\t// out\n        /* \"#utility.yul\":16486:16627   */\n    tag_367:\n        /* \"#utility.yul\":16542:16547   */\n      0x00\n        /* \"#utility.yul\":16573:16579   */\n      dup2\n        /* \"#utility.yul\":16567:16580   */\n      mload\n        /* \"#utility.yul\":16558:16580   */\n      swap1\n      pop\n        /* \"#utility.yul\":16589:16621   */\n      tag_539\n        /* \"#utility.yul\":16615:16620   */\n      dup2\n        /* \"#utility.yul\":16589:16621   */\n      tag_325\n      jump\t// in\n    tag_539:\n        /* \"#utility.yul\":16486:16627   */\n      swap3\n      swap2\n      pop\n      pop\n      jump\t// out\n        /* \"#utility.yul\":16633:16982   */\n    tag_276:\n        /* \"#utility.yul\":16702:16708   */\n      0x00\n        /* \"#utility.yul\":16751:16753   */\n      0x20\n        /* \"#utility.yul\":16739:16748   */\n      dup3\n        /* \"#utility.yul\":16730:16737   */\n      dup5\n        /* \"#utility.yul\":16726:16749   */\n      sub\n        /* \"#utility.yul\":16722:16754   */\n      slt\n        /* \"#utility.yul\":16719:16838   */\n      iszero\n      tag_541\n      jumpi\n        /* \"#utility.yul\":16757:16836   */\n      tag_542\n      tag_322\n      jump\t// in\n    tag_542:\n        /* \"#utility.yul\":16719:16838   */\n    tag_541:\n        /* \"#utility.yul\":16877:16878   */\n      0x00\n        /* \"#utility.yul\":16902:16965   */\n      tag_543\n        /* \"#utility.yul\":16957:16964   */\n      dup5\n        /* \"#utility.yul\":16948:16954   */\n      dup3\n        /* \"#utility.yul\":16937:16946   */\n      dup6\n        /* \"#utility.yul\":16933:16955   */\n      add\n        /* \"#utility.yul\":16902:16965   */\n      tag_367\n      jump\t// in\n    tag_543:\n        /* \"#utility.yul\":16892:16965   */\n      swap2\n      pop\n        /* \"#utility.yul\":16848:16975   */\n      pop\n        /* \"#utility.yul\":16633:16982   */\n      swap3\n      swap2\n      pop\n      pop\n      jump\t// out\n    stop\n    data_1250311f865916c0c48ec18be7711c5b67f23674d6e827435103b8b03cf0ba32 697066733a2f2f516d61633839735a545347764b6b795961327672786452616b5052456147464a534e4a52525765747a544c51544d2f\n\n    auxdata: 0xa26469706673582212201c3a507d07ef27e5b7d6872ccf0730eefc86a7d7aed8526c7cf27498d5ed035b64736f6c63430008120033\n}\n",
				"bytecode": {
					"linkReferences": {},
					"object": "60806040523480156200001157600080fd5b506040518060400160405280600581526020017f65373231610000000000000000000000000000000000000000000000000000008152506040518060400160405280600481526020017f373231610000000000000000000000000000000000000000000000000000000081525081600290816200008f91906200042d565b508060039081620000a191906200042d565b50620000b2620000e060201b60201c565b6000819055505050620000da620000ce620000e560201b60201c565b620000ed60201b60201c565b62000514565b600090565b600033905090565b6000600860009054906101000a900473ffffffffffffffffffffffffffffffffffffffff16905081600860006101000a81548173ffffffffffffffffffffffffffffffffffffffff021916908373ffffffffffffffffffffffffffffffffffffffff1602179055508173ffffffffffffffffffffffffffffffffffffffff168173ffffffffffffffffffffffffffffffffffffffff167f8be0079c531659141344cd1fd0a4f28419497f9722a3daafe3b4186f6b6457e060405160405180910390a35050565b600081519050919050565b7f4e487b7100000000000000000000000000000000000000000000000000000000600052604160045260246000fd5b7f4e487b7100000000000000000000000000000000000000000000000000000000600052602260045260246000fd5b600060028204905060018216806200023557607f821691505b6020821081036200024b576200024a620001ed565b5b50919050565b60008190508160005260206000209050919050565b60006020601f8301049050919050565b600082821b905092915050565b600060088302620002b57fffffffffffffffffffffffffffffffffffffffffffffffffffffffffffffffff8262000276565b620002c1868362000276565b95508019841693508086168417925050509392505050565b6000819050919050565b6000819050919050565b60006200030e620003086200030284620002d9565b620002e3565b620002d9565b9050919050565b6000819050919050565b6200032a83620002ed565b62000342620003398262000315565b84845462000283565b825550505050565b600090565b620003596200034a565b620003668184846200031f565b505050565b5b818110156200038e57620003826000826200034f565b6001810190506200036c565b5050565b601f821115620003dd57620003a78162000251565b620003b28462000266565b81016020851015620003c2578190505b620003da620003d18562000266565b8301826200036b565b50505b505050565b600082821c905092915050565b60006200040260001984600802620003e2565b1980831691505092915050565b60006200041d8383620003ef565b9150826002028217905092915050565b6200043882620001b3565b67ffffffffffffffff811115620004545762000453620001be565b5b6200046082546200021c565b6200046d82828562000392565b600060209050601f831160018114620004a5576000841562000490578287015190505b6200049c85826200040f565b8655506200050c565b601f198416620004b58662000251565b60005b82811015620004df57848901518255600182019150602085019450602081019050620004b8565b86831015620004ff5784890151620004fb601f891682620003ef565b8355505b6001600288020188555050505b505050505050565b611f2f80620005246000396000f3fe6080604052600436106101095760003560e01c806370a0823111610095578063a22cb46511610064578063a22cb46514610342578063b88d4fde1461036b578063c87b56dd14610387578063e985e9c5146103c4578063f2fde38b1461040157610109565b806370a0823114610298578063715018a6146102d55780638da5cb5b146102ec57806395d89b411461031757610109565b8063095ea7b3116100dc578063095ea7b3146101dc57806318160ddd146101f857806323b872dd1461022357806342842e0e1461023f5780636352211e1461025b57610109565b806301ffc9a71461010e57806306fdde031461014b5780630788370314610176578063081812fc1461019f575b600080fd5b34801561011a57600080fd5b5061013560048036038101906101309190611625565b61042a565b604051610142919061166d565b60405180910390f35b34801561015757600080fd5b506101606104bc565b60405161016d9190611718565b60405180910390f35b34801561018257600080fd5b5061019d60048036038101906101989190611770565b61054e565b005b3480156101ab57600080fd5b506101c660048036038101906101c19190611770565b610563565b6040516101d391906117de565b60405180910390f35b6101f660048036038101906101f19190611825565b6105c1565b005b34801561020457600080fd5b5061020d6105d1565b60405161021a9190611874565b60405180910390f35b61023d6004803603810190610238919061188f565b6105e8565b005b6102596004803603810190610254919061188f565b6108a9565b005b34801561026757600080fd5b50610282600480360381019061027d9190611770565b6108c9565b60405161028f91906117de565b60405180910390f35b3480156102a457600080fd5b506102bf60048036038101906102ba91906118e2565b6108db565b6040516102cc9190611874565b60405180910390f35b3480156102e157600080fd5b506102ea610972565b005b3480156102f857600080fd5b50610301610986565b60405161030e91906117de565b60405180910390f35b34801561032357600080fd5b5061032c6109b0565b6040516103399190611718565b60405180910390f35b34801561034e57600080fd5b506103696004803603810190610364919061193b565b610a42565b005b61038560048036038101906103809190611ab0565b610b4d565b005b34801561039357600080fd5b506103ae60048036038101906103a99190611770565b610b9f565b6040516103bb9190611718565b60405180910390f35b3480156103d057600080fd5b506103eb60048036038101906103e69190611b33565b610c23565b6040516103f8919061166d565b60405180910390f35b34801561040d57600080fd5b50610428600480360381019061042391906118e2565b610cb7565b005b60006301ffc9a760e01b827bffffffffffffffffffffffffffffffffffffffffffffffffffffffff1916148061048557506380ac58cd60e01b827bffffffffffffffffffffffffffffffffffffffffffffffffffffffff1916145b806104b55750635b5e139f60e01b827bffffffffffffffffffffffffffffffffffffffffffffffffffffffff1916145b9050919050565b6060600280546104cb90611ba2565b80601f01602080910402602001604051908101604052809291908181526020018280546104f790611ba2565b80156105445780601f1061051957610100808354040283529160200191610544565b820191906000526020600020905b81548152906001019060200180831161052757829003601f168201915b5050505050905090565b610556610d3a565b6105603382610db8565b50565b600061056e82610dd6565b6105835761058263cf4700e460e01b610e4f565b5b6006600083815260200190815260200160002060000160009054906101000a900473ffffffffffffffffffffffffffffffffffffffff169050919050565b6105cd82826001610e59565b5050565b60006105db610f88565b6001546000540303905090565b60006105f382610f8d565b905073ffffffffffffffffffffffffffffffffffffffff8473ffffffffffffffffffffffffffffffffffffffff161693508373ffffffffffffffffffffffffffffffffffffffff168173ffffffffffffffffffffffffffffffffffffffff16146106685761066763a114810060e01b610e4f565b5b60008061067484611079565b9150915061068a81876106856110a0565b6110a8565b6106b55761069f8661069a6110a0565b610c23565b6106b4576106b36359c896be60e01b610e4f565b5b5b6106c286868660016110ec565b80156106cd57600082555b600560008773ffffffffffffffffffffffffffffffffffffffff1673ffffffffffffffffffffffffffffffffffffffff168152602001908152602001600020600081546001900391905081905550600560008673ffffffffffffffffffffffffffffffffffffffff1673ffffffffffffffffffffffffffffffffffffffff168152602001908152602001600020600081546001019190508190555061079b856107778888876110f2565b7c02000000000000000000000000000000000000000000000000000000001761111a565b600460008681526020019081526020016000208190555060007c0200000000000000000000000000000000000000000000000000000000841603610821576000600185019050600060046000838152602001908152602001600020540361081f57600054811461081e578360046000838152602001908152602001600020819055505b5b505b600073ffffffffffffffffffffffffffffffffffffffff8673ffffffffffffffffffffffffffffffffffffffff161690508481887fddf252ad1be2c89b69c2b068fc378daa952ba7f163c4a11628f55a4df523b3ef600080a4600081036108935761089263ea553b3460e01b610e4f565b5b6108a08787876001611145565b50505050505050565b6108c483838360405180602001604052806000815250610b4d565b505050565b60006108d482610f8d565b9050919050565b60008073ffffffffffffffffffffffffffffffffffffffff168273ffffffffffffffffffffffffffffffffffffffff160361092157610920638f4eb60460e01b610e4f565b5b67ffffffffffffffff600560008473ffffffffffffffffffffffffffffffffffffffff1673ffffffffffffffffffffffffffffffffffffffff16815260200190815260200160002054169050919050565b61097a610d3a565b610984600061114b565b565b6000600860009054906101000a900473ffffffffffffffffffffffffffffffffffffffff16905090565b6060600380546109bf90611ba2565b80601f01602080910402602001604051908101604052809291908181526020018280546109eb90611ba2565b8015610a385780601f10610a0d57610100808354040283529160200191610a38565b820191906000526020600020905b815481529060010190602001808311610a1b57829003601f168201915b5050505050905090565b8060076000610a4f6110a0565b73ffffffffffffffffffffffffffffffffffffffff1673ffffffffffffffffffffffffffffffffffffffff16815260200190815260200160002060008473ffffffffffffffffffffffffffffffffffffffff1673ffffffffffffffffffffffffffffffffffffffff16815260200190815260200160002060006101000a81548160ff0219169083151502179055508173ffffffffffffffffffffffffffffffffffffffff16610afc6110a0565b73ffffffffffffffffffffffffffffffffffffffff167f17307eab39ab6107e8899845ad3d59bd9653f200f220920489ca2b5937696c3183604051610b41919061166d565b60405180910390a35050565b610b588484846105e8565b60008373ffffffffffffffffffffffffffffffffffffffff163b14610b9957610b8384848484611211565b610b9857610b9763d1a57ed660e01b610e4f565b5b5b50505050565b6060610baa82610dd6565b610bbf57610bbe63a14c4b5060e01b610e4f565b5b6000610bc9611340565b90506000815103610be95760405180602001604052806000815250610c1b565b610bf1611340565b610bfa84611360565b604051602001610c0b929190611c5b565b6040516020818303038152906040525b915050919050565b6000600760008473ffffffffffffffffffffffffffffffffffffffff1673ffffffffffffffffffffffffffffffffffffffff16815260200190815260200160002060008373ffffffffffffffffffffffffffffffffffffffff1673ffffffffffffffffffffffffffffffffffffffff16815260200190815260200160002060009054906101000a900460ff16905092915050565b610cbf610d3a565b600073ffffffffffffffffffffffffffffffffffffffff168173ffffffffffffffffffffffffffffffffffffffff1603610d2e576040517f08c379a0000000000000000000000000000000000000000000000000000000008152600401610d2590611cfc565b60405180910390fd5b610d378161114b565b50565b610d426113b0565b73ffffffffffffffffffffffffffffffffffffffff16610d60610986565b73ffffffffffffffffffffffffffffffffffffffff1614610db6576040517f08c379a0000000000000000000000000000000000000000000000000000000008152600401610dad90611d68565b60405180910390fd5b565b610dd28282604051806020016040528060008152506113b8565b5050565b600081610de1610f88565b11610e4a57600054821015610e495760005b6000600460008581526020019081526020016000205491508103610e225782610e1b90611db7565b9250610df3565b60007c01000000000000000000000000000000000000000000000000000000008216149150505b5b919050565b8060005260046000fd5b6000610e64836108c9565b9050818015610ea657508073ffffffffffffffffffffffffffffffffffffffff16610e8d6110a0565b73ffffffffffffffffffffffffffffffffffffffff1614155b15610ed257610ebc81610eb76110a0565b610c23565b610ed157610ed063cfb3b94260e01b610e4f565b5b5b836006600085815260200190815260200160002060000160006101000a81548173ffffffffffffffffffffffffffffffffffffffff021916908373ffffffffffffffffffffffffffffffffffffffff160217905550828473ffffffffffffffffffffffffffffffffffffffff168273ffffffffffffffffffffffffffffffffffffffff167f8c5be1e5ebec7d5bd14f71427d1e84f3dd0314c0f7b2291e5b200ac8c7c3b92560405160405180910390a450505050565b600090565b600081610f98610f88565b1161106357600460008381526020019081526020016000205490506000810361103a576000548210610fd557610fd463df2d9b4260e01b610e4f565b5b5b600460008360019003935083815260200190815260200160002054905060008103156110355760007c0100000000000000000000000000000000000000000000000000000000821603156110745761103463df2d9b4260e01b610e4f565b5b610fd6565b60007c010000000000000000000000000000000000000000000000000000000082160315611074575b61107363df2d9b4260e01b610e4f565b5b919050565b60008060006006600085815260200190815260200160002090508092508254915050915091565b600033905090565b600073ffffffffffffffffffffffffffffffffffffffff8316925073ffffffffffffffffffffffffffffffffffffffff821691508382148383141790509392505050565b50505050565b60008060e883901c905060e861110986868461143d565b62ffffff16901b9150509392505050565b600073ffffffffffffffffffffffffffffffffffffffff83169250814260a01b178317905092915050565b50505050565b6000600860009054906101000a900473ffffffffffffffffffffffffffffffffffffffff16905081600860006101000a81548173ffffffffffffffffffffffffffffffffffffffff021916908373ffffffffffffffffffffffffffffffffffffffff1602179055508173ffffffffffffffffffffffffffffffffffffffff168173ffffffffffffffffffffffffffffffffffffffff167f8be0079c531659141344cd1fd0a4f28419497f9722a3daafe3b4186f6b6457e060405160405180910390a35050565b60008373ffffffffffffffffffffffffffffffffffffffff1663150b7a026112376110a0565b8786866040518563ffffffff1660e01b81526004016112599493929190611e35565b6020604051808303816000875af192505050801561129557506040513d601f19601f820116820180604052508101906112929190611e96565b60015b6112ed573d80600081146112c5576040519150601f19603f3d011682016040523d82523d6000602084013e6112ca565b606091505b5060008151036112e5576112e463d1a57ed660e01b610e4f565b5b805181602001fd5b63150b7a0260e01b7bffffffffffffffffffffffffffffffffffffffffffffffffffffffff1916817bffffffffffffffffffffffffffffffffffffffffffffffffffffffff191614915050949350505050565b6060604051806060016040528060368152602001611ec460369139905090565b606060a060405101806040526020810391506000825281835b60011561139b57600184039350600a81066030018453600a8104905080611379575b50828103602084039350808452505050919050565b600033905090565b6113c28383611446565b60008373ffffffffffffffffffffffffffffffffffffffff163b1461143857600080549050600083820390505b6114026000868380600101945086611211565b6114175761141663d1a57ed660e01b610e4f565b5b8181106113ef57816000541461143557611434600060e01b610e4f565b5b50505b505050565b60009392505050565b600080549050600082036114655761146463b562e8dd60e01b610e4f565b5b61147260008483856110ec565b6114928361148360008660006110f2565b61148c856115a9565b1761111a565b6004600083815260200190815260200160002081905550600160406001901b178202600560008573ffffffffffffffffffffffffffffffffffffffff1673ffffffffffffffffffffffffffffffffffffffff16815260200190815260200160002060008282540192505081905550600073ffffffffffffffffffffffffffffffffffffffff8473ffffffffffffffffffffffffffffffffffffffff161690506000810361154a57611549632e07630060e01b610e4f565b5b6000838301905060008390505b808360007fddf252ad1be2c89b69c2b068fc378daa952ba7f163c4a11628f55a4df523b3ef600080a481816001019150810361155757816000819055505050506115a46000848385611145565b505050565b60006001821460e11b9050919050565b6000604051905090565b600080fd5b600080fd5b60007fffffffff0000000000000000000000000000000000000000000000000000000082169050919050565b611602816115cd565b811461160d57600080fd5b50565b60008135905061161f816115f9565b92915050565b60006020828403121561163b5761163a6115c3565b5b600061164984828501611610565b91505092915050565b60008115159050919050565b61166781611652565b82525050565b6000602082019050611682600083018461165e565b92915050565b600081519050919050565b600082825260208201905092915050565b60005b838110156116c25780820151818401526020810190506116a7565b60008484015250505050565b6000601f19601f8301169050919050565b60006116ea82611688565b6116f48185611693565b93506117048185602086016116a4565b61170d816116ce565b840191505092915050565b6000602082019050818103600083015261173281846116df565b905092915050565b6000819050919050565b61174d8161173a565b811461175857600080fd5b50565b60008135905061176a81611744565b92915050565b600060208284031215611786576117856115c3565b5b60006117948482850161175b565b91505092915050565b600073ffffffffffffffffffffffffffffffffffffffff82169050919050565b60006117c88261179d565b9050919050565b6117d8816117bd565b82525050565b60006020820190506117f360008301846117cf565b92915050565b611802816117bd565b811461180d57600080fd5b50565b60008135905061181f816117f9565b92915050565b6000806040838503121561183c5761183b6115c3565b5b600061184a85828601611810565b925050602061185b8582860161175b565b9150509250929050565b61186e8161173a565b82525050565b60006020820190506118896000830184611865565b92915050565b6000806000606084860312156118a8576118a76115c3565b5b60006118b686828701611810565b93505060206118c786828701611810565b92505060406118d88682870161175b565b9150509250925092565b6000602082840312156118f8576118f76115c3565b5b600061190684828501611810565b91505092915050565b61191881611652565b811461192357600080fd5b50565b6000813590506119358161190f565b92915050565b60008060408385031215611952576119516115c3565b5b600061196085828601611810565b925050602061197185828601611926565b9150509250929050565b600080fd5b600080fd5b7f4e487b7100000000000000000000000000000000000000000000000000000000600052604160045260246000fd5b6119bd826116ce565b810181811067ffffffffffffffff821117156119dc576119db611985565b5b80604052505050565b60006119ef6115b9565b90506119fb82826119b4565b919050565b600067ffffffffffffffff821115611a1b57611a1a611985565b5b611a24826116ce565b9050602081019050919050565b82818337600083830152505050565b6000611a53611a4e84611a00565b6119e5565b905082815260208101848484011115611a6f57611a6e611980565b5b611a7a848285611a31565b509392505050565b600082601f830112611a9757611a9661197b565b5b8135611aa7848260208601611a40565b91505092915050565b60008060008060808587031215611aca57611ac96115c3565b5b6000611ad887828801611810565b9450506020611ae987828801611810565b9350506040611afa8782880161175b565b925050606085013567ffffffffffffffff811115611b1b57611b1a6115c8565b5b611b2787828801611a82565b91505092959194509250565b60008060408385031215611b4a57611b496115c3565b5b6000611b5885828601611810565b9250506020611b6985828601611810565b9150509250929050565b7f4e487b7100000000000000000000000000000000000000000000000000000000600052602260045260246000fd5b60006002820490506001821680611bba57607f821691505b602082108103611bcd57611bcc611b73565b5b50919050565b600081905092915050565b6000611be982611688565b611bf38185611bd3565b9350611c038185602086016116a4565b80840191505092915050565b7f2e6a736f6e000000000000000000000000000000000000000000000000000000600082015250565b6000611c45600583611bd3565b9150611c5082611c0f565b600582019050919050565b6000611c678285611bde565b9150611c738284611bde565b9150611c7e82611c38565b91508190509392505050565b7f4f776e61626c653a206e6577206f776e657220697320746865207a65726f206160008201527f6464726573730000000000000000000000000000000000000000000000000000602082015250565b6000611ce6602683611693565b9150611cf182611c8a565b604082019050919050565b60006020820190508181036000830152611d1581611cd9565b9050919050565b7f4f776e61626c653a2063616c6c6572206973206e6f7420746865206f776e6572600082015250565b6000611d52602083611693565b9150611d5d82611d1c565b602082019050919050565b60006020820190508181036000830152611d8181611d45565b9050919050565b7f4e487b7100000000000000000000000000000000000000000000000000000000600052601160045260246000fd5b6000611dc28261173a565b915060008203611dd557611dd4611d88565b5b600182039050919050565b600081519050919050565b600082825260208201905092915050565b6000611e0782611de0565b611e118185611deb565b9350611e218185602086016116a4565b611e2a816116ce565b840191505092915050565b6000608082019050611e4a60008301876117cf565b611e5760208301866117cf565b611e646040830185611865565b8181036060830152611e768184611dfc565b905095945050505050565b600081519050611e90816115f9565b92915050565b600060208284031215611eac57611eab6115c3565b5b6000611eba84828501611e81565b9150509291505056fe697066733a2f2f516d61633839735a545347764b6b795961327672786452616b5052456147464a534e4a52525765747a544c51544d2fa26469706673582212201c3a507d07ef27e5b7d6872ccf0730eefc86a7d7aed8526c7cf27498d5ed035b64736f6c63430008120033",
					"opcodes": "PUSH1 0x80 PUSH1 0x40 MSTORE CALLVALUE DUP1 ISZERO PUSH3 0x11 JUMPI PUSH1 0x0 DUP1 REVERT JUMPDEST POP PUSH1 0x40 MLOAD DUP1 PUSH1 0x40 ADD PUSH1 0x40 MSTORE DUP1 PUSH1 0x5 DUP2 MSTORE PUSH1 0x20 ADD PUSH32 0x6537323161000000000000000000000000000000000000000000000000000000 DUP2 MSTORE POP PUSH1 0x40 MLOAD DUP1 PUSH1 0x40 ADD PUSH1 0x40 MSTORE DUP1 PUSH1 0x4 DUP2 MSTORE PUSH1 0x20 ADD PUSH32 0x3732316100000000000000000000000000000000000000000000000000000000 DUP2 MSTORE POP DUP2 PUSH1 0x2 SWAP1 DUP2 PUSH3 0x8F SWAP2 SWAP1 PUSH3 0x42D JUMP JUMPDEST POP DUP1 PUSH1 0x3 SWAP1 DUP2 PUSH3 0xA1 SWAP2 SWAP1 PUSH3 0x42D JUMP JUMPDEST POP PUSH3 0xB2 PUSH3 0xE0 PUSH1 0x20 SHL PUSH1 0x20 SHR JUMP JUMPDEST PUSH1 0x0 DUP2 SWAP1 SSTORE POP POP POP PUSH3 0xDA PUSH3 0xCE PUSH3 0xE5 PUSH1 0x20 SHL PUSH1 0x20 SHR JUMP JUMPDEST PUSH3 0xED PUSH1 0x20 SHL PUSH1 0x20 SHR JUMP JUMPDEST PUSH3 0x514 JUMP JUMPDEST PUSH1 0x0 SWAP1 JUMP JUMPDEST PUSH1 0x0 CALLER SWAP1 POP SWAP1 JUMP JUMPDEST PUSH1 0x0 PUSH1 0x8 PUSH1 0x0 SWAP1 SLOAD SWAP1 PUSH2 0x100 EXP SWAP1 DIV PUSH20 0xFFFFFFFFFFFFFFFFFFFFFFFFFFFFFFFFFFFFFFFF AND SWAP1 POP DUP2 PUSH1 0x8 PUSH1 0x0 PUSH2 0x100 EXP DUP2 SLOAD DUP2 PUSH20 0xFFFFFFFFFFFFFFFFFFFFFFFFFFFFFFFFFFFFFFFF MUL NOT AND SWAP1 DUP4 PUSH20 0xFFFFFFFFFFFFFFFFFFFFFFFFFFFFFFFFFFFFFFFF AND MUL OR SWAP1 SSTORE POP DUP2 PUSH20 0xFFFFFFFFFFFFFFFFFFFFFFFFFFFFFFFFFFFFFFFF AND DUP2 PUSH20 0xFFFFFFFFFFFFFFFFFFFFFFFFFFFFFFFFFFFFFFFF AND PUSH32 0x8BE0079C531659141344CD1FD0A4F28419497F9722A3DAAFE3B4186F6B6457E0 PUSH1 0x40 MLOAD PUSH1 0x40 MLOAD DUP1 SWAP2 SUB SWAP1 LOG3 POP POP JUMP JUMPDEST PUSH1 0x0 DUP2 MLOAD SWAP1 POP SWAP2 SWAP1 POP JUMP JUMPDEST PUSH32 0x4E487B7100000000000000000000000000000000000000000000000000000000 PUSH1 0x0 MSTORE PUSH1 0x41 PUSH1 0x4 MSTORE PUSH1 0x24 PUSH1 0x0 REVERT JUMPDEST PUSH32 0x4E487B7100000000000000000000000000000000000000000000000000000000 PUSH1 0x0 MSTORE PUSH1 0x22 PUSH1 0x4 MSTORE PUSH1 0x24 PUSH1 0x0 REVERT JUMPDEST PUSH1 0x0 PUSH1 0x2 DUP3 DIV SWAP1 POP PUSH1 0x1 DUP3 AND DUP1 PUSH3 0x235 JUMPI PUSH1 0x7F DUP3 AND SWAP2 POP JUMPDEST PUSH1 0x20 DUP3 LT DUP2 SUB PUSH3 0x24B JUMPI PUSH3 0x24A PUSH3 0x1ED JUMP JUMPDEST JUMPDEST POP SWAP2 SWAP1 POP JUMP JUMPDEST PUSH1 0x0 DUP2 SWAP1 POP DUP2 PUSH1 0x0 MSTORE PUSH1 0x20 PUSH1 0x0 KECCAK256 SWAP1 POP SWAP2 SWAP1 POP JUMP JUMPDEST PUSH1 0x0 PUSH1 0x20 PUSH1 0x1F DUP4 ADD DIV SWAP1 POP SWAP2 SWAP1 POP JUMP JUMPDEST PUSH1 0x0 DUP3 DUP3 SHL SWAP1 POP SWAP3 SWAP2 POP POP JUMP JUMPDEST PUSH1 0x0 PUSH1 0x8 DUP4 MUL PUSH3 0x2B5 PUSH32 0xFFFFFFFFFFFFFFFFFFFFFFFFFFFFFFFFFFFFFFFFFFFFFFFFFFFFFFFFFFFFFFFF DUP3 PUSH3 0x276 JUMP JUMPDEST PUSH3 0x2C1 DUP7 DUP4 PUSH3 0x276 JUMP JUMPDEST SWAP6 POP DUP1 NOT DUP5 AND SWAP4 POP DUP1 DUP7 AND DUP5 OR SWAP3 POP POP POP SWAP4 SWAP3 POP POP POP JUMP JUMPDEST PUSH1 0x0 DUP2 SWAP1 POP SWAP2 SWAP1 POP JUMP JUMPDEST PUSH1 0x0 DUP2 SWAP1 POP SWAP2 SWAP1 POP JUMP JUMPDEST PUSH1 0x0 PUSH3 0x30E PUSH3 0x308 PUSH3 0x302 DUP5 PUSH3 0x2D9 JUMP JUMPDEST PUSH3 0x2E3 JUMP JUMPDEST PUSH3 0x2D9 JUMP JUMPDEST SWAP1 POP SWAP2 SWAP1 POP JUMP JUMPDEST PUSH1 0x0 DUP2 SWAP1 POP SWAP2 SWAP1 POP JUMP JUMPDEST PUSH3 0x32A DUP4 PUSH3 0x2ED JUMP JUMPDEST PUSH3 0x342 PUSH3 0x339 DUP3 PUSH3 0x315 JUMP JUMPDEST DUP5 DUP5 SLOAD PUSH3 0x283 JUMP JUMPDEST DUP3 SSTORE POP POP POP POP JUMP JUMPDEST PUSH1 0x0 SWAP1 JUMP JUMPDEST PUSH3 0x359 PUSH3 0x34A JUMP JUMPDEST PUSH3 0x366 DUP2 DUP5 DUP5 PUSH3 0x31F JUMP JUMPDEST POP POP POP JUMP JUMPDEST JUMPDEST DUP2 DUP2 LT ISZERO PUSH3 0x38E JUMPI PUSH3 0x382 PUSH1 0x0 DUP3 PUSH3 0x34F JUMP JUMPDEST PUSH1 0x1 DUP2 ADD SWAP1 POP PUSH3 0x36C JUMP JUMPDEST POP POP JUMP JUMPDEST PUSH1 0x1F DUP3 GT ISZERO PUSH3 0x3DD JUMPI PUSH3 0x3A7 DUP2 PUSH3 0x251 JUMP JUMPDEST PUSH3 0x3B2 DUP5 PUSH3 0x266 JUMP JUMPDEST DUP2 ADD PUSH1 0x20 DUP6 LT ISZERO PUSH3 0x3C2 JUMPI DUP2 SWAP1 POP JUMPDEST PUSH3 0x3DA PUSH3 0x3D1 DUP6 PUSH3 0x266 JUMP JUMPDEST DUP4 ADD DUP3 PUSH3 0x36B JUMP JUMPDEST POP POP JUMPDEST POP POP POP JUMP JUMPDEST PUSH1 0x0 DUP3 DUP3 SHR SWAP1 POP SWAP3 SWAP2 POP POP JUMP JUMPDEST PUSH1 0x0 PUSH3 0x402 PUSH1 0x0 NOT DUP5 PUSH1 0x8 MUL PUSH3 0x3E2 JUMP JUMPDEST NOT DUP1 DUP4 AND SWAP2 POP POP SWAP3 SWAP2 POP POP JUMP JUMPDEST PUSH1 0x0 PUSH3 0x41D DUP4 DUP4 PUSH3 0x3EF JUMP JUMPDEST SWAP2 POP DUP3 PUSH1 0x2 MUL DUP3 OR SWAP1 POP SWAP3 SWAP2 POP POP JUMP JUMPDEST PUSH3 0x438 DUP3 PUSH3 0x1B3 JUMP JUMPDEST PUSH8 0xFFFFFFFFFFFFFFFF DUP2 GT ISZERO PUSH3 0x454 JUMPI PUSH3 0x453 PUSH3 0x1BE JUMP JUMPDEST JUMPDEST PUSH3 0x460 DUP3 SLOAD PUSH3 0x21C JUMP JUMPDEST PUSH3 0x46D DUP3 DUP3 DUP6 PUSH3 0x392 JUMP JUMPDEST PUSH1 0x0 PUSH1 0x20 SWAP1 POP PUSH1 0x1F DUP4 GT PUSH1 0x1 DUP2 EQ PUSH3 0x4A5 JUMPI PUSH1 0x0 DUP5 ISZERO PUSH3 0x490 JUMPI DUP3 DUP8 ADD MLOAD SWAP1 POP JUMPDEST PUSH3 0x49C DUP6 DUP3 PUSH3 0x40F JUMP JUMPDEST DUP7 SSTORE POP PUSH3 0x50C JUMP JUMPDEST PUSH1 0x1F NOT DUP5 AND PUSH3 0x4B5 DUP7 PUSH3 0x251 JUMP JUMPDEST PUSH1 0x0 JUMPDEST DUP3 DUP2 LT ISZERO PUSH3 0x4DF JUMPI DUP5 DUP10 ADD MLOAD DUP3 SSTORE PUSH1 0x1 DUP3 ADD SWAP2 POP PUSH1 0x20 DUP6 ADD SWAP5 POP PUSH1 0x20 DUP2 ADD SWAP1 POP PUSH3 0x4B8 JUMP JUMPDEST DUP7 DUP4 LT ISZERO PUSH3 0x4FF JUMPI DUP5 DUP10 ADD MLOAD PUSH3 0x4FB PUSH1 0x1F DUP10 AND DUP3 PUSH3 0x3EF JUMP JUMPDEST DUP4 SSTORE POP JUMPDEST PUSH1 0x1 PUSH1 0x2 DUP9 MUL ADD DUP9 SSTORE POP POP POP JUMPDEST POP POP POP POP POP POP JUMP JUMPDEST PUSH2 0x1F2F DUP1 PUSH3 0x524 PUSH1 0x0 CODECOPY PUSH1 0x0 RETURN INVALID PUSH1 0x80 PUSH1 0x40 MSTORE PUSH1 0x4 CALLDATASIZE LT PUSH2 0x109 JUMPI PUSH1 0x0 CALLDATALOAD PUSH1 0xE0 SHR DUP1 PUSH4 0x70A08231 GT PUSH2 0x95 JUMPI DUP1 PUSH4 0xA22CB465 GT PUSH2 0x64 JUMPI DUP1 PUSH4 0xA22CB465 EQ PUSH2 0x342 JUMPI DUP1 PUSH4 0xB88D4FDE EQ PUSH2 0x36B JUMPI DUP1 PUSH4 0xC87B56DD EQ PUSH2 0x387 JUMPI DUP1 PUSH4 0xE985E9C5 EQ PUSH2 0x3C4 JUMPI DUP1 PUSH4 0xF2FDE38B EQ PUSH2 0x401 JUMPI PUSH2 0x109 JUMP JUMPDEST DUP1 PUSH4 0x70A08231 EQ PUSH2 0x298 JUMPI DUP1 PUSH4 0x715018A6 EQ PUSH2 0x2D5 JUMPI DUP1 PUSH4 0x8DA5CB5B EQ PUSH2 0x2EC JUMPI DUP1 PUSH4 0x95D89B41 EQ PUSH2 0x317 JUMPI PUSH2 0x109 JUMP JUMPDEST DUP1 PUSH4 0x95EA7B3 GT PUSH2 0xDC JUMPI DUP1 PUSH4 0x95EA7B3 EQ PUSH2 0x1DC JUMPI DUP1 PUSH4 0x18160DDD EQ PUSH2 0x1F8 JUMPI DUP1 PUSH4 0x23B872DD EQ PUSH2 0x223 JUMPI DUP1 PUSH4 0x42842E0E EQ PUSH2 0x23F JUMPI DUP1 PUSH4 0x6352211E EQ PUSH2 0x25B JUMPI PUSH2 0x109 JUMP JUMPDEST DUP1 PUSH4 0x1FFC9A7 EQ PUSH2 0x10E JUMPI DUP1 PUSH4 0x6FDDE03 EQ PUSH2 0x14B JUMPI DUP1 PUSH4 0x7883703 EQ PUSH2 0x176 JUMPI DUP1 PUSH4 0x81812FC EQ PUSH2 0x19F JUMPI JUMPDEST PUSH1 0x0 DUP1 REVERT JUMPDEST CALLVALUE DUP1 ISZERO PUSH2 0x11A JUMPI PUSH1 0x0 DUP1 REVERT JUMPDEST POP PUSH2 0x135 PUSH1 0x4 DUP1 CALLDATASIZE SUB DUP2 ADD SWAP1 PUSH2 0x130 SWAP2 SWAP1 PUSH2 0x1625 JUMP JUMPDEST PUSH2 0x42A JUMP JUMPDEST PUSH1 0x40 MLOAD PUSH2 0x142 SWAP2 SWAP1 PUSH2 0x166D JUMP JUMPDEST PUSH1 0x40 MLOAD DUP1 SWAP2 SUB SWAP1 RETURN JUMPDEST CALLVALUE DUP1 ISZERO PUSH2 0x157 JUMPI PUSH1 0x0 DUP1 REVERT JUMPDEST POP PUSH2 0x160 PUSH2 0x4BC JUMP JUMPDEST PUSH1 0x40 MLOAD PUSH2 0x16D SWAP2 SWAP1 PUSH2 0x1718 JUMP JUMPDEST PUSH1 0x40 MLOAD DUP1 SWAP2 SUB SWAP1 RETURN JUMPDEST CALLVALUE DUP1 ISZERO PUSH2 0x182 JUMPI PUSH1 0x0 DUP1 REVERT JUMPDEST POP PUSH2 0x19D PUSH1 0x4 DUP1 CALLDATASIZE SUB DUP2 ADD SWAP1 PUSH2 0x198 SWAP2 SWAP1 PUSH2 0x1770 JUMP JUMPDEST PUSH2 0x54E JUMP JUMPDEST STOP JUMPDEST CALLVALUE DUP1 ISZERO PUSH2 0x1AB JUMPI PUSH1 0x0 DUP1 REVERT JUMPDEST POP PUSH2 0x1C6 PUSH1 0x4 DUP1 CALLDATASIZE SUB DUP2 ADD SWAP1 PUSH2 0x1C1 SWAP2 SWAP1 PUSH2 0x1770 JUMP JUMPDEST PUSH2 0x563 JUMP JUMPDEST PUSH1 0x40 MLOAD PUSH2 0x1D3 SWAP2 SWAP1 PUSH2 0x17DE JUMP JUMPDEST PUSH1 0x40 MLOAD DUP1 SWAP2 SUB SWAP1 RETURN JUMPDEST PUSH2 0x1F6 PUSH1 0x4 DUP1 CALLDATASIZE SUB DUP2 ADD SWAP1 PUSH2 0x1F1 SWAP2 SWAP1 PUSH2 0x1825 JUMP JUMPDEST PUSH2 0x5C1 JUMP JUMPDEST STOP JUMPDEST CALLVALUE DUP1 ISZERO PUSH2 0x204 JUMPI PUSH1 0x0 DUP1 REVERT JUMPDEST POP PUSH2 0x20D PUSH2 0x5D1 JUMP JUMPDEST PUSH1 0x40 MLOAD PUSH2 0x21A SWAP2 SWAP1 PUSH2 0x1874 JUMP JUMPDEST PUSH1 0x40 MLOAD DUP1 SWAP2 SUB SWAP1 RETURN JUMPDEST PUSH2 0x23D PUSH1 0x4 DUP1 CALLDATASIZE SUB DUP2 ADD SWAP1 PUSH2 0x238 SWAP2 SWAP1 PUSH2 0x188F JUMP JUMPDEST PUSH2 0x5E8 JUMP JUMPDEST STOP JUMPDEST PUSH2 0x259 PUSH1 0x4 DUP1 CALLDATASIZE SUB DUP2 ADD SWAP1 PUSH2 0x254 SWAP2 SWAP1 PUSH2 0x188F JUMP JUMPDEST PUSH2 0x8A9 JUMP JUMPDEST STOP JUMPDEST CALLVALUE DUP1 ISZERO PUSH2 0x267 JUMPI PUSH1 0x0 DUP1 REVERT JUMPDEST POP PUSH2 0x282 PUSH1 0x4 DUP1 CALLDATASIZE SUB DUP2 ADD SWAP1 PUSH2 0x27D SWAP2 SWAP1 PUSH2 0x1770 JUMP JUMPDEST PUSH2 0x8C9 JUMP JUMPDEST PUSH1 0x40 MLOAD PUSH2 0x28F SWAP2 SWAP1 PUSH2 0x17DE JUMP JUMPDEST PUSH1 0x40 MLOAD DUP1 SWAP2 SUB SWAP1 RETURN JUMPDEST CALLVALUE DUP1 ISZERO PUSH2 0x2A4 JUMPI PUSH1 0x0 DUP1 REVERT JUMPDEST POP PUSH2 0x2BF PUSH1 0x4 DUP1 CALLDATASIZE SUB DUP2 ADD SWAP1 PUSH2 0x2BA SWAP2 SWAP1 PUSH2 0x18E2 JUMP JUMPDEST PUSH2 0x8DB JUMP JUMPDEST PUSH1 0x40 MLOAD PUSH2 0x2CC SWAP2 SWAP1 PUSH2 0x1874 JUMP JUMPDEST PUSH1 0x40 MLOAD DUP1 SWAP2 SUB SWAP1 RETURN JUMPDEST CALLVALUE DUP1 ISZERO PUSH2 0x2E1 JUMPI PUSH1 0x0 DUP1 REVERT JUMPDEST POP PUSH2 0x2EA PUSH2 0x972 JUMP JUMPDEST STOP JUMPDEST CALLVALUE DUP1 ISZERO PUSH2 0x2F8 JUMPI PUSH1 0x0 DUP1 REVERT JUMPDEST POP PUSH2 0x301 PUSH2 0x986 JUMP JUMPDEST PUSH1 0x40 MLOAD PUSH2 0x30E SWAP2 SWAP1 PUSH2 0x17DE JUMP JUMPDEST PUSH1 0x40 MLOAD DUP1 SWAP2 SUB SWAP1 RETURN JUMPDEST CALLVALUE DUP1 ISZERO PUSH2 0x323 JUMPI PUSH1 0x0 DUP1 REVERT JUMPDEST POP PUSH2 0x32C PUSH2 0x9B0 JUMP JUMPDEST PUSH1 0x40 MLOAD PUSH2 0x339 SWAP2 SWAP1 PUSH2 0x1718 JUMP JUMPDEST PUSH1 0x40 MLOAD DUP1 SWAP2 SUB SWAP1 RETURN JUMPDEST CALLVALUE DUP1 ISZERO PUSH2 0x34E JUMPI PUSH1 0x0 DUP1 REVERT JUMPDEST POP PUSH2 0x369 PUSH1 0x4 DUP1 CALLDATASIZE SUB DUP2 ADD SWAP1 PUSH2 0x364 SWAP2 SWAP1 PUSH2 0x193B JUMP JUMPDEST PUSH2 0xA42 JUMP JUMPDEST STOP JUMPDEST PUSH2 0x385 PUSH1 0x4 DUP1 CALLDATASIZE SUB DUP2 ADD SWAP1 PUSH2 0x380 SWAP2 SWAP1 PUSH2 0x1AB0 JUMP JUMPDEST PUSH2 0xB4D JUMP JUMPDEST STOP JUMPDEST CALLVALUE DUP1 ISZERO PUSH2 0x393 JUMPI PUSH1 0x0 DUP1 REVERT JUMPDEST POP PUSH2 0x3AE PUSH1 0x4 DUP1 CALLDATASIZE SUB DUP2 ADD SWAP1 PUSH2 0x3A9 SWAP2 SWAP1 PUSH2 0x1770 JUMP JUMPDEST PUSH2 0xB9F JUMP JUMPDEST PUSH1 0x40 MLOAD PUSH2 0x3BB SWAP2 SWAP1 PUSH2 0x1718 JUMP JUMPDEST PUSH1 0x40 MLOAD DUP1 SWAP2 SUB SWAP1 RETURN JUMPDEST CALLVALUE DUP1 ISZERO PUSH2 0x3D0 JUMPI PUSH1 0x0 DUP1 REVERT JUMPDEST POP PUSH2 0x3EB PUSH1 0x4 DUP1 CALLDATASIZE SUB DUP2 ADD SWAP1 PUSH2 0x3E6 SWAP2 SWAP1 PUSH2 0x1B33 JUMP JUMPDEST PUSH2 0xC23 JUMP JUMPDEST PUSH1 0x40 MLOAD PUSH2 0x3F8 SWAP2 SWAP1 PUSH2 0x166D JUMP JUMPDEST PUSH1 0x40 MLOAD DUP1 SWAP2 SUB SWAP1 RETURN JUMPDEST CALLVALUE DUP1 ISZERO PUSH2 0x40D JUMPI PUSH1 0x0 DUP1 REVERT JUMPDEST POP PUSH2 0x428 PUSH1 0x4 DUP1 CALLDATASIZE SUB DUP2 ADD SWAP1 PUSH2 0x423 SWAP2 SWAP1 PUSH2 0x18E2 JUMP JUMPDEST PUSH2 0xCB7 JUMP JUMPDEST STOP JUMPDEST PUSH1 0x0 PUSH4 0x1FFC9A7 PUSH1 0xE0 SHL DUP3 PUSH28 0xFFFFFFFFFFFFFFFFFFFFFFFFFFFFFFFFFFFFFFFFFFFFFFFFFFFFFFFF NOT AND EQ DUP1 PUSH2 0x485 JUMPI POP PUSH4 0x80AC58CD PUSH1 0xE0 SHL DUP3 PUSH28 0xFFFFFFFFFFFFFFFFFFFFFFFFFFFFFFFFFFFFFFFFFFFFFFFFFFFFFFFF NOT AND EQ JUMPDEST DUP1 PUSH2 0x4B5 JUMPI POP PUSH4 0x5B5E139F PUSH1 0xE0 SHL DUP3 PUSH28 0xFFFFFFFFFFFFFFFFFFFFFFFFFFFFFFFFFFFFFFFFFFFFFFFFFFFFFFFF NOT AND EQ JUMPDEST SWAP1 POP SWAP2 SWAP1 POP JUMP JUMPDEST PUSH1 0x60 PUSH1 0x2 DUP1 SLOAD PUSH2 0x4CB SWAP1 PUSH2 0x1BA2 JUMP JUMPDEST DUP1 PUSH1 0x1F ADD PUSH1 0x20 DUP1 SWAP2 DIV MUL PUSH1 0x20 ADD PUSH1 0x40 MLOAD SWAP1 DUP2 ADD PUSH1 0x40 MSTORE DUP1 SWAP3 SWAP2 SWAP1 DUP2 DUP2 MSTORE PUSH1 0x20 ADD DUP3 DUP1 SLOAD PUSH2 0x4F7 SWAP1 PUSH2 0x1BA2 JUMP JUMPDEST DUP1 ISZERO PUSH2 0x544 JUMPI DUP1 PUSH1 0x1F LT PUSH2 0x519 JUMPI PUSH2 0x100 DUP1 DUP4 SLOAD DIV MUL DUP4 MSTORE SWAP2 PUSH1 0x20 ADD SWAP2 PUSH2 0x544 JUMP JUMPDEST DUP3 ADD SWAP2 SWAP1 PUSH1 0x0 MSTORE PUSH1 0x20 PUSH1 0x0 KECCAK256 SWAP1 JUMPDEST DUP2 SLOAD DUP2 MSTORE SWAP1 PUSH1 0x1 ADD SWAP1 PUSH1 0x20 ADD DUP1 DUP4 GT PUSH2 0x527 JUMPI DUP3 SWAP1 SUB PUSH1 0x1F AND DUP3 ADD SWAP2 JUMPDEST POP POP POP POP POP SWAP1 POP SWAP1 JUMP JUMPDEST PUSH2 0x556 PUSH2 0xD3A JUMP JUMPDEST PUSH2 0x560 CALLER DUP3 PUSH2 0xDB8 JUMP JUMPDEST POP JUMP JUMPDEST PUSH1 0x0 PUSH2 0x56E DUP3 PUSH2 0xDD6 JUMP JUMPDEST PUSH2 0x583 JUMPI PUSH2 0x582 PUSH4 0xCF4700E4 PUSH1 0xE0 SHL PUSH2 0xE4F JUMP JUMPDEST JUMPDEST PUSH1 0x6 PUSH1 0x0 DUP4 DUP2 MSTORE PUSH1 0x20 ADD SWAP1 DUP2 MSTORE PUSH1 0x20 ADD PUSH1 0x0 KECCAK256 PUSH1 0x0 ADD PUSH1 0x0 SWAP1 SLOAD SWAP1 PUSH2 0x100 EXP SWAP1 DIV PUSH20 0xFFFFFFFFFFFFFFFFFFFFFFFFFFFFFFFFFFFFFFFF AND SWAP1 POP SWAP2 SWAP1 POP JUMP JUMPDEST PUSH2 0x5CD DUP3 DUP3 PUSH1 0x1 PUSH2 0xE59 JUMP JUMPDEST POP POP JUMP JUMPDEST PUSH1 0x0 PUSH2 0x5DB PUSH2 0xF88 JUMP JUMPDEST PUSH1 0x1 SLOAD PUSH1 0x0 SLOAD SUB SUB SWAP1 POP SWAP1 JUMP JUMPDEST PUSH1 0x0 PUSH2 0x5F3 DUP3 PUSH2 0xF8D JUMP JUMPDEST SWAP1 POP PUSH20 0xFFFFFFFFFFFFFFFFFFFFFFFFFFFFFFFFFFFFFFFF DUP5 PUSH20 0xFFFFFFFFFFFFFFFFFFFFFFFFFFFFFFFFFFFFFFFF AND AND SWAP4 POP DUP4 PUSH20 0xFFFFFFFFFFFFFFFFFFFFFFFFFFFFFFFFFFFFFFFF AND DUP2 PUSH20 0xFFFFFFFFFFFFFFFFFFFFFFFFFFFFFFFFFFFFFFFF AND EQ PUSH2 0x668 JUMPI PUSH2 0x667 PUSH4 0xA1148100 PUSH1 0xE0 SHL PUSH2 0xE4F JUMP JUMPDEST JUMPDEST PUSH1 0x0 DUP1 PUSH2 0x674 DUP5 PUSH2 0x1079 JUMP JUMPDEST SWAP2 POP SWAP2 POP PUSH2 0x68A DUP2 DUP8 PUSH2 0x685 PUSH2 0x10A0 JUMP JUMPDEST PUSH2 0x10A8 JUMP JUMPDEST PUSH2 0x6B5 JUMPI PUSH2 0x69F DUP7 PUSH2 0x69A PUSH2 0x10A0 JUMP JUMPDEST PUSH2 0xC23 JUMP JUMPDEST PUSH2 0x6B4 JUMPI PUSH2 0x6B3 PUSH4 0x59C896BE PUSH1 0xE0 SHL PUSH2 0xE4F JUMP JUMPDEST JUMPDEST JUMPDEST PUSH2 0x6C2 DUP7 DUP7 DUP7 PUSH1 0x1 PUSH2 0x10EC JUMP JUMPDEST DUP1 ISZERO PUSH2 0x6CD JUMPI PUSH1 0x0 DUP3 SSTORE JUMPDEST PUSH1 0x5 PUSH1 0x0 DUP8 PUSH20 0xFFFFFFFFFFFFFFFFFFFFFFFFFFFFFFFFFFFFFFFF AND PUSH20 0xFFFFFFFFFFFFFFFFFFFFFFFFFFFFFFFFFFFFFFFF AND DUP2 MSTORE PUSH1 0x20 ADD SWAP1 DUP2 MSTORE PUSH1 0x20 ADD PUSH1 0x0 KECCAK256 PUSH1 0x0 DUP2 SLOAD PUSH1 0x1 SWAP1 SUB SWAP2 SWAP1 POP DUP2 SWAP1 SSTORE POP PUSH1 0x5 PUSH1 0x0 DUP7 PUSH20 0xFFFFFFFFFFFFFFFFFFFFFFFFFFFFFFFFFFFFFFFF AND PUSH20 0xFFFFFFFFFFFFFFFFFFFFFFFFFFFFFFFFFFFFFFFF AND DUP2 MSTORE PUSH1 0x20 ADD SWAP1 DUP2 MSTORE PUSH1 0x20 ADD PUSH1 0x0 KECCAK256 PUSH1 0x0 DUP2 SLOAD PUSH1 0x1 ADD SWAP2 SWAP1 POP DUP2 SWAP1 SSTORE POP PUSH2 0x79B DUP6 PUSH2 0x777 DUP9 DUP9 DUP8 PUSH2 0x10F2 JUMP JUMPDEST PUSH29 0x200000000000000000000000000000000000000000000000000000000 OR PUSH2 0x111A JUMP JUMPDEST PUSH1 0x4 PUSH1 0x0 DUP7 DUP2 MSTORE PUSH1 0x20 ADD SWAP1 DUP2 MSTORE PUSH1 0x20 ADD PUSH1 0x0 KECCAK256 DUP2 SWAP1 SSTORE POP PUSH1 0x0 PUSH29 0x200000000000000000000000000000000000000000000000000000000 DUP5 AND SUB PUSH2 0x821 JUMPI PUSH1 0x0 PUSH1 0x1 DUP6 ADD SWAP1 POP PUSH1 0x0 PUSH1 0x4 PUSH1 0x0 DUP4 DUP2 MSTORE PUSH1 0x20 ADD SWAP1 DUP2 MSTORE PUSH1 0x20 ADD PUSH1 0x0 KECCAK256 SLOAD SUB PUSH2 0x81F JUMPI PUSH1 0x0 SLOAD DUP2 EQ PUSH2 0x81E JUMPI DUP4 PUSH1 0x4 PUSH1 0x0 DUP4 DUP2 MSTORE PUSH1 0x20 ADD SWAP1 DUP2 MSTORE PUSH1 0x20 ADD PUSH1 0x0 KECCAK256 DUP2 SWAP1 SSTORE POP JUMPDEST JUMPDEST POP JUMPDEST PUSH1 0x0 PUSH20 0xFFFFFFFFFFFFFFFFFFFFFFFFFFFFFFFFFFFFFFFF DUP7 PUSH20 0xFFFFFFFFFFFFFFFFFFFFFFFFFFFFFFFFFFFFFFFF AND AND SWAP1 POP DUP5 DUP2 DUP9 PUSH32 0xDDF252AD1BE2C89B69C2B068FC378DAA952BA7F163C4A11628F55A4DF523B3EF PUSH1 0x0 DUP1 LOG4 PUSH1 0x0 DUP2 SUB PUSH2 0x893 JUMPI PUSH2 0x892 PUSH4 0xEA553B34 PUSH1 0xE0 SHL PUSH2 0xE4F JUMP JUMPDEST JUMPDEST PUSH2 0x8A0 DUP8 DUP8 DUP8 PUSH1 0x1 PUSH2 0x1145 JUMP JUMPDEST POP POP POP POP POP POP POP JUMP JUMPDEST PUSH2 0x8C4 DUP4 DUP4 DUP4 PUSH1 0x40 MLOAD DUP1 PUSH1 0x20 ADD PUSH1 0x40 MSTORE DUP1 PUSH1 0x0 DUP2 MSTORE POP PUSH2 0xB4D JUMP JUMPDEST POP POP POP JUMP JUMPDEST PUSH1 0x0 PUSH2 0x8D4 DUP3 PUSH2 0xF8D JUMP JUMPDEST SWAP1 POP SWAP2 SWAP1 POP JUMP JUMPDEST PUSH1 0x0 DUP1 PUSH20 0xFFFFFFFFFFFFFFFFFFFFFFFFFFFFFFFFFFFFFFFF AND DUP3 PUSH20 0xFFFFFFFFFFFFFFFFFFFFFFFFFFFFFFFFFFFFFFFF AND SUB PUSH2 0x921 JUMPI PUSH2 0x920 PUSH4 0x8F4EB604 PUSH1 0xE0 SHL PUSH2 0xE4F JUMP JUMPDEST JUMPDEST PUSH8 0xFFFFFFFFFFFFFFFF PUSH1 0x5 PUSH1 0x0 DUP5 PUSH20 0xFFFFFFFFFFFFFFFFFFFFFFFFFFFFFFFFFFFFFFFF AND PUSH20 0xFFFFFFFFFFFFFFFFFFFFFFFFFFFFFFFFFFFFFFFF AND DUP2 MSTORE PUSH1 0x20 ADD SWAP1 DUP2 MSTORE PUSH1 0x20 ADD PUSH1 0x0 KECCAK256 SLOAD AND SWAP1 POP SWAP2 SWAP1 POP JUMP JUMPDEST PUSH2 0x97A PUSH2 0xD3A JUMP JUMPDEST PUSH2 0x984 PUSH1 0x0 PUSH2 0x114B JUMP JUMPDEST JUMP JUMPDEST PUSH1 0x0 PUSH1 0x8 PUSH1 0x0 SWAP1 SLOAD SWAP1 PUSH2 0x100 EXP SWAP1 DIV PUSH20 0xFFFFFFFFFFFFFFFFFFFFFFFFFFFFFFFFFFFFFFFF AND SWAP1 POP SWAP1 JUMP JUMPDEST PUSH1 0x60 PUSH1 0x3 DUP1 SLOAD PUSH2 0x9BF SWAP1 PUSH2 0x1BA2 JUMP JUMPDEST DUP1 PUSH1 0x1F ADD PUSH1 0x20 DUP1 SWAP2 DIV MUL PUSH1 0x20 ADD PUSH1 0x40 MLOAD SWAP1 DUP2 ADD PUSH1 0x40 MSTORE DUP1 SWAP3 SWAP2 SWAP1 DUP2 DUP2 MSTORE PUSH1 0x20 ADD DUP3 DUP1 SLOAD PUSH2 0x9EB SWAP1 PUSH2 0x1BA2 JUMP JUMPDEST DUP1 ISZERO PUSH2 0xA38 JUMPI DUP1 PUSH1 0x1F LT PUSH2 0xA0D JUMPI PUSH2 0x100 DUP1 DUP4 SLOAD DIV MUL DUP4 MSTORE SWAP2 PUSH1 0x20 ADD SWAP2 PUSH2 0xA38 JUMP JUMPDEST DUP3 ADD SWAP2 SWAP1 PUSH1 0x0 MSTORE PUSH1 0x20 PUSH1 0x0 KECCAK256 SWAP1 JUMPDEST DUP2 SLOAD DUP2 MSTORE SWAP1 PUSH1 0x1 ADD SWAP1 PUSH1 0x20 ADD DUP1 DUP4 GT PUSH2 0xA1B JUMPI DUP3 SWAP1 SUB PUSH1 0x1F AND DUP3 ADD SWAP2 JUMPDEST POP POP POP POP POP SWAP1 POP SWAP1 JUMP JUMPDEST DUP1 PUSH1 0x7 PUSH1 0x0 PUSH2 0xA4F PUSH2 0x10A0 JUMP JUMPDEST PUSH20 0xFFFFFFFFFFFFFFFFFFFFFFFFFFFFFFFFFFFFFFFF AND PUSH20 0xFFFFFFFFFFFFFFFFFFFFFFFFFFFFFFFFFFFFFFFF AND DUP2 MSTORE PUSH1 0x20 ADD SWAP1 DUP2 MSTORE PUSH1 0x20 ADD PUSH1 0x0 KECCAK256 PUSH1 0x0 DUP5 PUSH20 0xFFFFFFFFFFFFFFFFFFFFFFFFFFFFFFFFFFFFFFFF AND PUSH20 0xFFFFFFFFFFFFFFFFFFFFFFFFFFFFFFFFFFFFFFFF AND DUP2 MSTORE PUSH1 0x20 ADD SWAP1 DUP2 MSTORE PUSH1 0x20 ADD PUSH1 0x0 KECCAK256 PUSH1 0x0 PUSH2 0x100 EXP DUP2 SLOAD DUP2 PUSH1 0xFF MUL NOT AND SWAP1 DUP4 ISZERO ISZERO MUL OR SWAP1 SSTORE POP DUP2 PUSH20 0xFFFFFFFFFFFFFFFFFFFFFFFFFFFFFFFFFFFFFFFF AND PUSH2 0xAFC PUSH2 0x10A0 JUMP JUMPDEST PUSH20 0xFFFFFFFFFFFFFFFFFFFFFFFFFFFFFFFFFFFFFFFF AND PUSH32 0x17307EAB39AB6107E8899845AD3D59BD9653F200F220920489CA2B5937696C31 DUP4 PUSH1 0x40 MLOAD PUSH2 0xB41 SWAP2 SWAP1 PUSH2 0x166D JUMP JUMPDEST PUSH1 0x40 MLOAD DUP1 SWAP2 SUB SWAP1 LOG3 POP POP JUMP JUMPDEST PUSH2 0xB58 DUP5 DUP5 DUP5 PUSH2 0x5E8 JUMP JUMPDEST PUSH1 0x0 DUP4 PUSH20 0xFFFFFFFFFFFFFFFFFFFFFFFFFFFFFFFFFFFFFFFF AND EXTCODESIZE EQ PUSH2 0xB99 JUMPI PUSH2 0xB83 DUP5 DUP5 DUP5 DUP5 PUSH2 0x1211 JUMP JUMPDEST PUSH2 0xB98 JUMPI PUSH2 0xB97 PUSH4 0xD1A57ED6 PUSH1 0xE0 SHL PUSH2 0xE4F JUMP JUMPDEST JUMPDEST JUMPDEST POP POP POP POP JUMP JUMPDEST PUSH1 0x60 PUSH2 0xBAA DUP3 PUSH2 0xDD6 JUMP JUMPDEST PUSH2 0xBBF JUMPI PUSH2 0xBBE PUSH4 0xA14C4B50 PUSH1 0xE0 SHL PUSH2 0xE4F JUMP JUMPDEST JUMPDEST PUSH1 0x0 PUSH2 0xBC9 PUSH2 0x1340 JUMP JUMPDEST SWAP1 POP PUSH1 0x0 DUP2 MLOAD SUB PUSH2 0xBE9 JUMPI PUSH1 0x40 MLOAD DUP1 PUSH1 0x20 ADD PUSH1 0x40 MSTORE DUP1 PUSH1 0x0 DUP2 MSTORE POP PUSH2 0xC1B JUMP JUMPDEST PUSH2 0xBF1 PUSH2 0x1340 JUMP JUMPDEST PUSH2 0xBFA DUP5 PUSH2 0x1360 JUMP JUMPDEST PUSH1 0x40 MLOAD PUSH1 0x20 ADD PUSH2 0xC0B SWAP3 SWAP2 SWAP1 PUSH2 0x1C5B JUMP JUMPDEST PUSH1 0x40 MLOAD PUSH1 0x20 DUP2 DUP4 SUB SUB DUP2 MSTORE SWAP1 PUSH1 0x40 MSTORE JUMPDEST SWAP2 POP POP SWAP2 SWAP1 POP JUMP JUMPDEST PUSH1 0x0 PUSH1 0x7 PUSH1 0x0 DUP5 PUSH20 0xFFFFFFFFFFFFFFFFFFFFFFFFFFFFFFFFFFFFFFFF AND PUSH20 0xFFFFFFFFFFFFFFFFFFFFFFFFFFFFFFFFFFFFFFFF AND DUP2 MSTORE PUSH1 0x20 ADD SWAP1 DUP2 MSTORE PUSH1 0x20 ADD PUSH1 0x0 KECCAK256 PUSH1 0x0 DUP4 PUSH20 0xFFFFFFFFFFFFFFFFFFFFFFFFFFFFFFFFFFFFFFFF AND PUSH20 0xFFFFFFFFFFFFFFFFFFFFFFFFFFFFFFFFFFFFFFFF AND DUP2 MSTORE PUSH1 0x20 ADD SWAP1 DUP2 MSTORE PUSH1 0x20 ADD PUSH1 0x0 KECCAK256 PUSH1 0x0 SWAP1 SLOAD SWAP1 PUSH2 0x100 EXP SWAP1 DIV PUSH1 0xFF AND SWAP1 POP SWAP3 SWAP2 POP POP JUMP JUMPDEST PUSH2 0xCBF PUSH2 0xD3A JUMP JUMPDEST PUSH1 0x0 PUSH20 0xFFFFFFFFFFFFFFFFFFFFFFFFFFFFFFFFFFFFFFFF AND DUP2 PUSH20 0xFFFFFFFFFFFFFFFFFFFFFFFFFFFFFFFFFFFFFFFF AND SUB PUSH2 0xD2E JUMPI PUSH1 0x40 MLOAD PUSH32 0x8C379A000000000000000000000000000000000000000000000000000000000 DUP2 MSTORE PUSH1 0x4 ADD PUSH2 0xD25 SWAP1 PUSH2 0x1CFC JUMP JUMPDEST PUSH1 0x40 MLOAD DUP1 SWAP2 SUB SWAP1 REVERT JUMPDEST PUSH2 0xD37 DUP2 PUSH2 0x114B JUMP JUMPDEST POP JUMP JUMPDEST PUSH2 0xD42 PUSH2 0x13B0 JUMP JUMPDEST PUSH20 0xFFFFFFFFFFFFFFFFFFFFFFFFFFFFFFFFFFFFFFFF AND PUSH2 0xD60 PUSH2 0x986 JUMP JUMPDEST PUSH20 0xFFFFFFFFFFFFFFFFFFFFFFFFFFFFFFFFFFFFFFFF AND EQ PUSH2 0xDB6 JUMPI PUSH1 0x40 MLOAD PUSH32 0x8C379A000000000000000000000000000000000000000000000000000000000 DUP2 MSTORE PUSH1 0x4 ADD PUSH2 0xDAD SWAP1 PUSH2 0x1D68 JUMP JUMPDEST PUSH1 0x40 MLOAD DUP1 SWAP2 SUB SWAP1 REVERT JUMPDEST JUMP JUMPDEST PUSH2 0xDD2 DUP3 DUP3 PUSH1 0x40 MLOAD DUP1 PUSH1 0x20 ADD PUSH1 0x40 MSTORE DUP1 PUSH1 0x0 DUP2 MSTORE POP PUSH2 0x13B8 JUMP JUMPDEST POP POP JUMP JUMPDEST PUSH1 0x0 DUP2 PUSH2 0xDE1 PUSH2 0xF88 JUMP JUMPDEST GT PUSH2 0xE4A JUMPI PUSH1 0x0 SLOAD DUP3 LT ISZERO PUSH2 0xE49 JUMPI PUSH1 0x0 JUMPDEST PUSH1 0x0 PUSH1 0x4 PUSH1 0x0 DUP6 DUP2 MSTORE PUSH1 0x20 ADD SWAP1 DUP2 MSTORE PUSH1 0x20 ADD PUSH1 0x0 KECCAK256 SLOAD SWAP2 POP DUP2 SUB PUSH2 0xE22 JUMPI DUP3 PUSH2 0xE1B SWAP1 PUSH2 0x1DB7 JUMP JUMPDEST SWAP3 POP PUSH2 0xDF3 JUMP JUMPDEST PUSH1 0x0 PUSH29 0x100000000000000000000000000000000000000000000000000000000 DUP3 AND EQ SWAP2 POP POP JUMPDEST JUMPDEST SWAP2 SWAP1 POP JUMP JUMPDEST DUP1 PUSH1 0x0 MSTORE PUSH1 0x4 PUSH1 0x0 REVERT JUMPDEST PUSH1 0x0 PUSH2 0xE64 DUP4 PUSH2 0x8C9 JUMP JUMPDEST SWAP1 POP DUP2 DUP1 ISZERO PUSH2 0xEA6 JUMPI POP DUP1 PUSH20 0xFFFFFFFFFFFFFFFFFFFFFFFFFFFFFFFFFFFFFFFF AND PUSH2 0xE8D PUSH2 0x10A0 JUMP JUMPDEST PUSH20 0xFFFFFFFFFFFFFFFFFFFFFFFFFFFFFFFFFFFFFFFF AND EQ ISZERO JUMPDEST ISZERO PUSH2 0xED2 JUMPI PUSH2 0xEBC DUP2 PUSH2 0xEB7 PUSH2 0x10A0 JUMP JUMPDEST PUSH2 0xC23 JUMP JUMPDEST PUSH2 0xED1 JUMPI PUSH2 0xED0 PUSH4 0xCFB3B942 PUSH1 0xE0 SHL PUSH2 0xE4F JUMP JUMPDEST JUMPDEST JUMPDEST DUP4 PUSH1 0x6 PUSH1 0x0 DUP6 DUP2 MSTORE PUSH1 0x20 ADD SWAP1 DUP2 MSTORE PUSH1 0x20 ADD PUSH1 0x0 KECCAK256 PUSH1 0x0 ADD PUSH1 0x0 PUSH2 0x100 EXP DUP2 SLOAD DUP2 PUSH20 0xFFFFFFFFFFFFFFFFFFFFFFFFFFFFFFFFFFFFFFFF MUL NOT AND SWAP1 DUP4 PUSH20 0xFFFFFFFFFFFFFFFFFFFFFFFFFFFFFFFFFFFFFFFF AND MUL OR SWAP1 SSTORE POP DUP3 DUP5 PUSH20 0xFFFFFFFFFFFFFFFFFFFFFFFFFFFFFFFFFFFFFFFF AND DUP3 PUSH20 0xFFFFFFFFFFFFFFFFFFFFFFFFFFFFFFFFFFFFFFFF AND PUSH32 0x8C5BE1E5EBEC7D5BD14F71427D1E84F3DD0314C0F7B2291E5B200AC8C7C3B925 PUSH1 0x40 MLOAD PUSH1 0x40 MLOAD DUP1 SWAP2 SUB SWAP1 LOG4 POP POP POP POP JUMP JUMPDEST PUSH1 0x0 SWAP1 JUMP JUMPDEST PUSH1 0x0 DUP2 PUSH2 0xF98 PUSH2 0xF88 JUMP JUMPDEST GT PUSH2 0x1063 JUMPI PUSH1 0x4 PUSH1 0x0 DUP4 DUP2 MSTORE PUSH1 0x20 ADD SWAP1 DUP2 MSTORE PUSH1 0x20 ADD PUSH1 0x0 KECCAK256 SLOAD SWAP1 POP PUSH1 0x0 DUP2 SUB PUSH2 0x103A JUMPI PUSH1 0x0 SLOAD DUP3 LT PUSH2 0xFD5 JUMPI PUSH2 0xFD4 PUSH4 0xDF2D9B42 PUSH1 0xE0 SHL PUSH2 0xE4F JUMP JUMPDEST JUMPDEST JUMPDEST PUSH1 0x4 PUSH1 0x0 DUP4 PUSH1 0x1 SWAP1 SUB SWAP4 POP DUP4 DUP2 MSTORE PUSH1 0x20 ADD SWAP1 DUP2 MSTORE PUSH1 0x20 ADD PUSH1 0x0 KECCAK256 SLOAD SWAP1 POP PUSH1 0x0 DUP2 SUB ISZERO PUSH2 0x1035 JUMPI PUSH1 0x0 PUSH29 0x100000000000000000000000000000000000000000000000000000000 DUP3 AND SUB ISZERO PUSH2 0x1074 JUMPI PUSH2 0x1034 PUSH4 0xDF2D9B42 PUSH1 0xE0 SHL PUSH2 0xE4F JUMP JUMPDEST JUMPDEST PUSH2 0xFD6 JUMP JUMPDEST PUSH1 0x0 PUSH29 0x100000000000000000000000000000000000000000000000000000000 DUP3 AND SUB ISZERO PUSH2 0x1074 JUMPI JUMPDEST PUSH2 0x1073 PUSH4 0xDF2D9B42 PUSH1 0xE0 SHL PUSH2 0xE4F JUMP JUMPDEST JUMPDEST SWAP2 SWAP1 POP JUMP JUMPDEST PUSH1 0x0 DUP1 PUSH1 0x0 PUSH1 0x6 PUSH1 0x0 DUP6 DUP2 MSTORE PUSH1 0x20 ADD SWAP1 DUP2 MSTORE PUSH1 0x20 ADD PUSH1 0x0 KECCAK256 SWAP1 POP DUP1 SWAP3 POP DUP3 SLOAD SWAP2 POP POP SWAP2 POP SWAP2 JUMP JUMPDEST PUSH1 0x0 CALLER SWAP1 POP SWAP1 JUMP JUMPDEST PUSH1 0x0 PUSH20 0xFFFFFFFFFFFFFFFFFFFFFFFFFFFFFFFFFFFFFFFF DUP4 AND SWAP3 POP PUSH20 0xFFFFFFFFFFFFFFFFFFFFFFFFFFFFFFFFFFFFFFFF DUP3 AND SWAP2 POP DUP4 DUP3 EQ DUP4 DUP4 EQ OR SWAP1 POP SWAP4 SWAP3 POP POP POP JUMP JUMPDEST POP POP POP POP JUMP JUMPDEST PUSH1 0x0 DUP1 PUSH1 0xE8 DUP4 SWAP1 SHR SWAP1 POP PUSH1 0xE8 PUSH2 0x1109 DUP7 DUP7 DUP5 PUSH2 0x143D JUMP JUMPDEST PUSH3 0xFFFFFF AND SWAP1 SHL SWAP2 POP POP SWAP4 SWAP3 POP POP POP JUMP JUMPDEST PUSH1 0x0 PUSH20 0xFFFFFFFFFFFFFFFFFFFFFFFFFFFFFFFFFFFFFFFF DUP4 AND SWAP3 POP DUP2 TIMESTAMP PUSH1 0xA0 SHL OR DUP4 OR SWAP1 POP SWAP3 SWAP2 POP POP JUMP JUMPDEST POP POP POP POP JUMP JUMPDEST PUSH1 0x0 PUSH1 0x8 PUSH1 0x0 SWAP1 SLOAD SWAP1 PUSH2 0x100 EXP SWAP1 DIV PUSH20 0xFFFFFFFFFFFFFFFFFFFFFFFFFFFFFFFFFFFFFFFF AND SWAP1 POP DUP2 PUSH1 0x8 PUSH1 0x0 PUSH2 0x100 EXP DUP2 SLOAD DUP2 PUSH20 0xFFFFFFFFFFFFFFFFFFFFFFFFFFFFFFFFFFFFFFFF MUL NOT AND SWAP1 DUP4 PUSH20 0xFFFFFFFFFFFFFFFFFFFFFFFFFFFFFFFFFFFFFFFF AND MUL OR SWAP1 SSTORE POP DUP2 PUSH20 0xFFFFFFFFFFFFFFFFFFFFFFFFFFFFFFFFFFFFFFFF AND DUP2 PUSH20 0xFFFFFFFFFFFFFFFFFFFFFFFFFFFFFFFFFFFFFFFF AND PUSH32 0x8BE0079C531659141344CD1FD0A4F28419497F9722A3DAAFE3B4186F6B6457E0 PUSH1 0x40 MLOAD PUSH1 0x40 MLOAD DUP1 SWAP2 SUB SWAP1 LOG3 POP POP JUMP JUMPDEST PUSH1 0x0 DUP4 PUSH20 0xFFFFFFFFFFFFFFFFFFFFFFFFFFFFFFFFFFFFFFFF AND PUSH4 0x150B7A02 PUSH2 0x1237 PUSH2 0x10A0 JUMP JUMPDEST DUP8 DUP7 DUP7 PUSH1 0x40 MLOAD DUP6 PUSH4 0xFFFFFFFF AND PUSH1 0xE0 SHL DUP2 MSTORE PUSH1 0x4 ADD PUSH2 0x1259 SWAP5 SWAP4 SWAP3 SWAP2 SWAP1 PUSH2 0x1E35 JUMP JUMPDEST PUSH1 0x20 PUSH1 0x40 MLOAD DUP1 DUP4 SUB DUP2 PUSH1 0x0 DUP8 GAS CALL SWAP3 POP POP POP DUP1 ISZERO PUSH2 0x1295 JUMPI POP PUSH1 0x40 MLOAD RETURNDATASIZE PUSH1 0x1F NOT PUSH1 0x1F DUP3 ADD AND DUP3 ADD DUP1 PUSH1 0x40 MSTORE POP DUP2 ADD SWAP1 PUSH2 0x1292 SWAP2 SWAP1 PUSH2 0x1E96 JUMP JUMPDEST PUSH1 0x1 JUMPDEST PUSH2 0x12ED JUMPI RETURNDATASIZE DUP1 PUSH1 0x0 DUP2 EQ PUSH2 0x12C5 JUMPI PUSH1 0x40 MLOAD SWAP2 POP PUSH1 0x1F NOT PUSH1 0x3F RETURNDATASIZE ADD AND DUP3 ADD PUSH1 0x40 MSTORE RETURNDATASIZE DUP3 MSTORE RETURNDATASIZE PUSH1 0x0 PUSH1 0x20 DUP5 ADD RETURNDATACOPY PUSH2 0x12CA JUMP JUMPDEST PUSH1 0x60 SWAP2 POP JUMPDEST POP PUSH1 0x0 DUP2 MLOAD SUB PUSH2 0x12E5 JUMPI PUSH2 0x12E4 PUSH4 0xD1A57ED6 PUSH1 0xE0 SHL PUSH2 0xE4F JUMP JUMPDEST JUMPDEST DUP1 MLOAD DUP2 PUSH1 0x20 ADD REVERT JUMPDEST PUSH4 0x150B7A02 PUSH1 0xE0 SHL PUSH28 0xFFFFFFFFFFFFFFFFFFFFFFFFFFFFFFFFFFFFFFFFFFFFFFFFFFFFFFFF NOT AND DUP2 PUSH28 0xFFFFFFFFFFFFFFFFFFFFFFFFFFFFFFFFFFFFFFFFFFFFFFFFFFFFFFFF NOT AND EQ SWAP2 POP POP SWAP5 SWAP4 POP POP POP POP JUMP JUMPDEST PUSH1 0x60 PUSH1 0x40 MLOAD DUP1 PUSH1 0x60 ADD PUSH1 0x40 MSTORE DUP1 PUSH1 0x36 DUP2 MSTORE PUSH1 0x20 ADD PUSH2 0x1EC4 PUSH1 0x36 SWAP2 CODECOPY SWAP1 POP SWAP1 JUMP JUMPDEST PUSH1 0x60 PUSH1 0xA0 PUSH1 0x40 MLOAD ADD DUP1 PUSH1 0x40 MSTORE PUSH1 0x20 DUP2 SUB SWAP2 POP PUSH1 0x0 DUP3 MSTORE DUP2 DUP4 JUMPDEST PUSH1 0x1 ISZERO PUSH2 0x139B JUMPI PUSH1 0x1 DUP5 SUB SWAP4 POP PUSH1 0xA DUP2 MOD PUSH1 0x30 ADD DUP5 MSTORE8 PUSH1 0xA DUP2 DIV SWAP1 POP DUP1 PUSH2 0x1379 JUMPI JUMPDEST POP DUP3 DUP2 SUB PUSH1 0x20 DUP5 SUB SWAP4 POP DUP1 DUP5 MSTORE POP POP POP SWAP2 SWAP1 POP JUMP JUMPDEST PUSH1 0x0 CALLER SWAP1 POP SWAP1 JUMP JUMPDEST PUSH2 0x13C2 DUP4 DUP4 PUSH2 0x1446 JUMP JUMPDEST PUSH1 0x0 DUP4 PUSH20 0xFFFFFFFFFFFFFFFFFFFFFFFFFFFFFFFFFFFFFFFF AND EXTCODESIZE EQ PUSH2 0x1438 JUMPI PUSH1 0x0 DUP1 SLOAD SWAP1 POP PUSH1 0x0 DUP4 DUP3 SUB SWAP1 POP JUMPDEST PUSH2 0x1402 PUSH1 0x0 DUP7 DUP4 DUP1 PUSH1 0x1 ADD SWAP5 POP DUP7 PUSH2 0x1211 JUMP JUMPDEST PUSH2 0x1417 JUMPI PUSH2 0x1416 PUSH4 0xD1A57ED6 PUSH1 0xE0 SHL PUSH2 0xE4F JUMP JUMPDEST JUMPDEST DUP2 DUP2 LT PUSH2 0x13EF JUMPI DUP2 PUSH1 0x0 SLOAD EQ PUSH2 0x1435 JUMPI PUSH2 0x1434 PUSH1 0x0 PUSH1 0xE0 SHL PUSH2 0xE4F JUMP JUMPDEST JUMPDEST POP POP JUMPDEST POP POP POP JUMP JUMPDEST PUSH1 0x0 SWAP4 SWAP3 POP POP POP JUMP JUMPDEST PUSH1 0x0 DUP1 SLOAD SWAP1 POP PUSH1 0x0 DUP3 SUB PUSH2 0x1465 JUMPI PUSH2 0x1464 PUSH4 0xB562E8DD PUSH1 0xE0 SHL PUSH2 0xE4F JUMP JUMPDEST JUMPDEST PUSH2 0x1472 PUSH1 0x0 DUP5 DUP4 DUP6 PUSH2 0x10EC JUMP JUMPDEST PUSH2 0x1492 DUP4 PUSH2 0x1483 PUSH1 0x0 DUP7 PUSH1 0x0 PUSH2 0x10F2 JUMP JUMPDEST PUSH2 0x148C DUP6 PUSH2 0x15A9 JUMP JUMPDEST OR PUSH2 0x111A JUMP JUMPDEST PUSH1 0x4 PUSH1 0x0 DUP4 DUP2 MSTORE PUSH1 0x20 ADD SWAP1 DUP2 MSTORE PUSH1 0x20 ADD PUSH1 0x0 KECCAK256 DUP2 SWAP1 SSTORE POP PUSH1 0x1 PUSH1 0x40 PUSH1 0x1 SWAP1 SHL OR DUP3 MUL PUSH1 0x5 PUSH1 0x0 DUP6 PUSH20 0xFFFFFFFFFFFFFFFFFFFFFFFFFFFFFFFFFFFFFFFF AND PUSH20 0xFFFFFFFFFFFFFFFFFFFFFFFFFFFFFFFFFFFFFFFF AND DUP2 MSTORE PUSH1 0x20 ADD SWAP1 DUP2 MSTORE PUSH1 0x20 ADD PUSH1 0x0 KECCAK256 PUSH1 0x0 DUP3 DUP3 SLOAD ADD SWAP3 POP POP DUP2 SWAP1 SSTORE POP PUSH1 0x0 PUSH20 0xFFFFFFFFFFFFFFFFFFFFFFFFFFFFFFFFFFFFFFFF DUP5 PUSH20 0xFFFFFFFFFFFFFFFFFFFFFFFFFFFFFFFFFFFFFFFF AND AND SWAP1 POP PUSH1 0x0 DUP2 SUB PUSH2 0x154A JUMPI PUSH2 0x1549 PUSH4 0x2E076300 PUSH1 0xE0 SHL PUSH2 0xE4F JUMP JUMPDEST JUMPDEST PUSH1 0x0 DUP4 DUP4 ADD SWAP1 POP PUSH1 0x0 DUP4 SWAP1 POP JUMPDEST DUP1 DUP4 PUSH1 0x0 PUSH32 0xDDF252AD1BE2C89B69C2B068FC378DAA952BA7F163C4A11628F55A4DF523B3EF PUSH1 0x0 DUP1 LOG4 DUP2 DUP2 PUSH1 0x1 ADD SWAP2 POP DUP2 SUB PUSH2 0x1557 JUMPI DUP2 PUSH1 0x0 DUP2 SWAP1 SSTORE POP POP POP POP PUSH2 0x15A4 PUSH1 0x0 DUP5 DUP4 DUP6 PUSH2 0x1145 JUMP JUMPDEST POP POP POP JUMP JUMPDEST PUSH1 0x0 PUSH1 0x1 DUP3 EQ PUSH1 0xE1 SHL SWAP1 POP SWAP2 SWAP1 POP JUMP JUMPDEST PUSH1 0x0 PUSH1 0x40 MLOAD SWAP1 POP SWAP1 JUMP JUMPDEST PUSH1 0x0 DUP1 REVERT JUMPDEST PUSH1 0x0 DUP1 REVERT JUMPDEST PUSH1 0x0 PUSH32 0xFFFFFFFF00000000000000000000000000000000000000000000000000000000 DUP3 AND SWAP1 POP SWAP2 SWAP1 POP JUMP JUMPDEST PUSH2 0x1602 DUP2 PUSH2 0x15CD JUMP JUMPDEST DUP2 EQ PUSH2 0x160D JUMPI PUSH1 0x0 DUP1 REVERT JUMPDEST POP JUMP JUMPDEST PUSH1 0x0 DUP2 CALLDATALOAD SWAP1 POP PUSH2 0x161F DUP2 PUSH2 0x15F9 JUMP JUMPDEST SWAP3 SWAP2 POP POP JUMP JUMPDEST PUSH1 0x0 PUSH1 0x20 DUP3 DUP5 SUB SLT ISZERO PUSH2 0x163B JUMPI PUSH2 0x163A PUSH2 0x15C3 JUMP JUMPDEST JUMPDEST PUSH1 0x0 PUSH2 0x1649 DUP5 DUP3 DUP6 ADD PUSH2 0x1610 JUMP JUMPDEST SWAP2 POP POP SWAP3 SWAP2 POP POP JUMP JUMPDEST PUSH1 0x0 DUP2 ISZERO ISZERO SWAP1 POP SWAP2 SWAP1 POP JUMP JUMPDEST PUSH2 0x1667 DUP2 PUSH2 0x1652 JUMP JUMPDEST DUP3 MSTORE POP POP JUMP JUMPDEST PUSH1 0x0 PUSH1 0x20 DUP3 ADD SWAP1 POP PUSH2 0x1682 PUSH1 0x0 DUP4 ADD DUP5 PUSH2 0x165E JUMP JUMPDEST SWAP3 SWAP2 POP POP JUMP JUMPDEST PUSH1 0x0 DUP2 MLOAD SWAP1 POP SWAP2 SWAP1 POP JUMP JUMPDEST PUSH1 0x0 DUP3 DUP3 MSTORE PUSH1 0x20 DUP3 ADD SWAP1 POP SWAP3 SWAP2 POP POP JUMP JUMPDEST PUSH1 0x0 JUMPDEST DUP4 DUP2 LT ISZERO PUSH2 0x16C2 JUMPI DUP1 DUP3 ADD MLOAD DUP2 DUP5 ADD MSTORE PUSH1 0x20 DUP2 ADD SWAP1 POP PUSH2 0x16A7 JUMP JUMPDEST PUSH1 0x0 DUP5 DUP5 ADD MSTORE POP POP POP POP JUMP JUMPDEST PUSH1 0x0 PUSH1 0x1F NOT PUSH1 0x1F DUP4 ADD AND SWAP1 POP SWAP2 SWAP1 POP JUMP JUMPDEST PUSH1 0x0 PUSH2 0x16EA DUP3 PUSH2 0x1688 JUMP JUMPDEST PUSH2 0x16F4 DUP2 DUP6 PUSH2 0x1693 JUMP JUMPDEST SWAP4 POP PUSH2 0x1704 DUP2 DUP6 PUSH1 0x20 DUP7 ADD PUSH2 0x16A4 JUMP JUMPDEST PUSH2 0x170D DUP2 PUSH2 0x16CE JUMP JUMPDEST DUP5 ADD SWAP2 POP POP SWAP3 SWAP2 POP POP JUMP JUMPDEST PUSH1 0x0 PUSH1 0x20 DUP3 ADD SWAP1 POP DUP2 DUP2 SUB PUSH1 0x0 DUP4 ADD MSTORE PUSH2 0x1732 DUP2 DUP5 PUSH2 0x16DF JUMP JUMPDEST SWAP1 POP SWAP3 SWAP2 POP POP JUMP JUMPDEST PUSH1 0x0 DUP2 SWAP1 POP SWAP2 SWAP1 POP JUMP JUMPDEST PUSH2 0x174D DUP2 PUSH2 0x173A JUMP JUMPDEST DUP2 EQ PUSH2 0x1758 JUMPI PUSH1 0x0 DUP1 REVERT JUMPDEST POP JUMP JUMPDEST PUSH1 0x0 DUP2 CALLDATALOAD SWAP1 POP PUSH2 0x176A DUP2 PUSH2 0x1744 JUMP JUMPDEST SWAP3 SWAP2 POP POP JUMP JUMPDEST PUSH1 0x0 PUSH1 0x20 DUP3 DUP5 SUB SLT ISZERO PUSH2 0x1786 JUMPI PUSH2 0x1785 PUSH2 0x15C3 JUMP JUMPDEST JUMPDEST PUSH1 0x0 PUSH2 0x1794 DUP5 DUP3 DUP6 ADD PUSH2 0x175B JUMP JUMPDEST SWAP2 POP POP SWAP3 SWAP2 POP POP JUMP JUMPDEST PUSH1 0x0 PUSH20 0xFFFFFFFFFFFFFFFFFFFFFFFFFFFFFFFFFFFFFFFF DUP3 AND SWAP1 POP SWAP2 SWAP1 POP JUMP JUMPDEST PUSH1 0x0 PUSH2 0x17C8 DUP3 PUSH2 0x179D JUMP JUMPDEST SWAP1 POP SWAP2 SWAP1 POP JUMP JUMPDEST PUSH2 0x17D8 DUP2 PUSH2 0x17BD JUMP JUMPDEST DUP3 MSTORE POP POP JUMP JUMPDEST PUSH1 0x0 PUSH1 0x20 DUP3 ADD SWAP1 POP PUSH2 0x17F3 PUSH1 0x0 DUP4 ADD DUP5 PUSH2 0x17CF JUMP JUMPDEST SWAP3 SWAP2 POP POP JUMP JUMPDEST PUSH2 0x1802 DUP2 PUSH2 0x17BD JUMP JUMPDEST DUP2 EQ PUSH2 0x180D JUMPI PUSH1 0x0 DUP1 REVERT JUMPDEST POP JUMP JUMPDEST PUSH1 0x0 DUP2 CALLDATALOAD SWAP1 POP PUSH2 0x181F DUP2 PUSH2 0x17F9 JUMP JUMPDEST SWAP3 SWAP2 POP POP JUMP JUMPDEST PUSH1 0x0 DUP1 PUSH1 0x40 DUP4 DUP6 SUB SLT ISZERO PUSH2 0x183C JUMPI PUSH2 0x183B PUSH2 0x15C3 JUMP JUMPDEST JUMPDEST PUSH1 0x0 PUSH2 0x184A DUP6 DUP3 DUP7 ADD PUSH2 0x1810 JUMP JUMPDEST SWAP3 POP POP PUSH1 0x20 PUSH2 0x185B DUP6 DUP3 DUP7 ADD PUSH2 0x175B JUMP JUMPDEST SWAP2 POP POP SWAP3 POP SWAP3 SWAP1 POP JUMP JUMPDEST PUSH2 0x186E DUP2 PUSH2 0x173A JUMP JUMPDEST DUP3 MSTORE POP POP JUMP JUMPDEST PUSH1 0x0 PUSH1 0x20 DUP3 ADD SWAP1 POP PUSH2 0x1889 PUSH1 0x0 DUP4 ADD DUP5 PUSH2 0x1865 JUMP JUMPDEST SWAP3 SWAP2 POP POP JUMP JUMPDEST PUSH1 0x0 DUP1 PUSH1 0x0 PUSH1 0x60 DUP5 DUP7 SUB SLT ISZERO PUSH2 0x18A8 JUMPI PUSH2 0x18A7 PUSH2 0x15C3 JUMP JUMPDEST JUMPDEST PUSH1 0x0 PUSH2 0x18B6 DUP7 DUP3 DUP8 ADD PUSH2 0x1810 JUMP JUMPDEST SWAP4 POP POP PUSH1 0x20 PUSH2 0x18C7 DUP7 DUP3 DUP8 ADD PUSH2 0x1810 JUMP JUMPDEST SWAP3 POP POP PUSH1 0x40 PUSH2 0x18D8 DUP7 DUP3 DUP8 ADD PUSH2 0x175B JUMP JUMPDEST SWAP2 POP POP SWAP3 POP SWAP3 POP SWAP3 JUMP JUMPDEST PUSH1 0x0 PUSH1 0x20 DUP3 DUP5 SUB SLT ISZERO PUSH2 0x18F8 JUMPI PUSH2 0x18F7 PUSH2 0x15C3 JUMP JUMPDEST JUMPDEST PUSH1 0x0 PUSH2 0x1906 DUP5 DUP3 DUP6 ADD PUSH2 0x1810 JUMP JUMPDEST SWAP2 POP POP SWAP3 SWAP2 POP POP JUMP JUMPDEST PUSH2 0x1918 DUP2 PUSH2 0x1652 JUMP JUMPDEST DUP2 EQ PUSH2 0x1923 JUMPI PUSH1 0x0 DUP1 REVERT JUMPDEST POP JUMP JUMPDEST PUSH1 0x0 DUP2 CALLDATALOAD SWAP1 POP PUSH2 0x1935 DUP2 PUSH2 0x190F JUMP JUMPDEST SWAP3 SWAP2 POP POP JUMP JUMPDEST PUSH1 0x0 DUP1 PUSH1 0x40 DUP4 DUP6 SUB SLT ISZERO PUSH2 0x1952 JUMPI PUSH2 0x1951 PUSH2 0x15C3 JUMP JUMPDEST JUMPDEST PUSH1 0x0 PUSH2 0x1960 DUP6 DUP3 DUP7 ADD PUSH2 0x1810 JUMP JUMPDEST SWAP3 POP POP PUSH1 0x20 PUSH2 0x1971 DUP6 DUP3 DUP7 ADD PUSH2 0x1926 JUMP JUMPDEST SWAP2 POP POP SWAP3 POP SWAP3 SWAP1 POP JUMP JUMPDEST PUSH1 0x0 DUP1 REVERT JUMPDEST PUSH1 0x0 DUP1 REVERT JUMPDEST PUSH32 0x4E487B7100000000000000000000000000000000000000000000000000000000 PUSH1 0x0 MSTORE PUSH1 0x41 PUSH1 0x4 MSTORE PUSH1 0x24 PUSH1 0x0 REVERT JUMPDEST PUSH2 0x19BD DUP3 PUSH2 0x16CE JUMP JUMPDEST DUP2 ADD DUP2 DUP2 LT PUSH8 0xFFFFFFFFFFFFFFFF DUP3 GT OR ISZERO PUSH2 0x19DC JUMPI PUSH2 0x19DB PUSH2 0x1985 JUMP JUMPDEST JUMPDEST DUP1 PUSH1 0x40 MSTORE POP POP POP JUMP JUMPDEST PUSH1 0x0 PUSH2 0x19EF PUSH2 0x15B9 JUMP JUMPDEST SWAP1 POP PUSH2 0x19FB DUP3 DUP3 PUSH2 0x19B4 JUMP JUMPDEST SWAP2 SWAP1 POP JUMP JUMPDEST PUSH1 0x0 PUSH8 0xFFFFFFFFFFFFFFFF DUP3 GT ISZERO PUSH2 0x1A1B JUMPI PUSH2 0x1A1A PUSH2 0x1985 JUMP JUMPDEST JUMPDEST PUSH2 0x1A24 DUP3 PUSH2 0x16CE JUMP JUMPDEST SWAP1 POP PUSH1 0x20 DUP2 ADD SWAP1 POP SWAP2 SWAP1 POP JUMP JUMPDEST DUP3 DUP2 DUP4 CALLDATACOPY PUSH1 0x0 DUP4 DUP4 ADD MSTORE POP POP POP JUMP JUMPDEST PUSH1 0x0 PUSH2 0x1A53 PUSH2 0x1A4E DUP5 PUSH2 0x1A00 JUMP JUMPDEST PUSH2 0x19E5 JUMP JUMPDEST SWAP1 POP DUP3 DUP2 MSTORE PUSH1 0x20 DUP2 ADD DUP5 DUP5 DUP5 ADD GT ISZERO PUSH2 0x1A6F JUMPI PUSH2 0x1A6E PUSH2 0x1980 JUMP JUMPDEST JUMPDEST PUSH2 0x1A7A DUP5 DUP3 DUP6 PUSH2 0x1A31 JUMP JUMPDEST POP SWAP4 SWAP3 POP POP POP JUMP JUMPDEST PUSH1 0x0 DUP3 PUSH1 0x1F DUP4 ADD SLT PUSH2 0x1A97 JUMPI PUSH2 0x1A96 PUSH2 0x197B JUMP JUMPDEST JUMPDEST DUP2 CALLDATALOAD PUSH2 0x1AA7 DUP5 DUP3 PUSH1 0x20 DUP7 ADD PUSH2 0x1A40 JUMP JUMPDEST SWAP2 POP POP SWAP3 SWAP2 POP POP JUMP JUMPDEST PUSH1 0x0 DUP1 PUSH1 0x0 DUP1 PUSH1 0x80 DUP6 DUP8 SUB SLT ISZERO PUSH2 0x1ACA JUMPI PUSH2 0x1AC9 PUSH2 0x15C3 JUMP JUMPDEST JUMPDEST PUSH1 0x0 PUSH2 0x1AD8 DUP8 DUP3 DUP9 ADD PUSH2 0x1810 JUMP JUMPDEST SWAP5 POP POP PUSH1 0x20 PUSH2 0x1AE9 DUP8 DUP3 DUP9 ADD PUSH2 0x1810 JUMP JUMPDEST SWAP4 POP POP PUSH1 0x40 PUSH2 0x1AFA DUP8 DUP3 DUP9 ADD PUSH2 0x175B JUMP JUMPDEST SWAP3 POP POP PUSH1 0x60 DUP6 ADD CALLDATALOAD PUSH8 0xFFFFFFFFFFFFFFFF DUP2 GT ISZERO PUSH2 0x1B1B JUMPI PUSH2 0x1B1A PUSH2 0x15C8 JUMP JUMPDEST JUMPDEST PUSH2 0x1B27 DUP8 DUP3 DUP9 ADD PUSH2 0x1A82 JUMP JUMPDEST SWAP2 POP POP SWAP3 SWAP6 SWAP2 SWAP5 POP SWAP3 POP JUMP JUMPDEST PUSH1 0x0 DUP1 PUSH1 0x40 DUP4 DUP6 SUB SLT ISZERO PUSH2 0x1B4A JUMPI PUSH2 0x1B49 PUSH2 0x15C3 JUMP JUMPDEST JUMPDEST PUSH1 0x0 PUSH2 0x1B58 DUP6 DUP3 DUP7 ADD PUSH2 0x1810 JUMP JUMPDEST SWAP3 POP POP PUSH1 0x20 PUSH2 0x1B69 DUP6 DUP3 DUP7 ADD PUSH2 0x1810 JUMP JUMPDEST SWAP2 POP POP SWAP3 POP SWAP3 SWAP1 POP JUMP JUMPDEST PUSH32 0x4E487B7100000000000000000000000000000000000000000000000000000000 PUSH1 0x0 MSTORE PUSH1 0x22 PUSH1 0x4 MSTORE PUSH1 0x24 PUSH1 0x0 REVERT JUMPDEST PUSH1 0x0 PUSH1 0x2 DUP3 DIV SWAP1 POP PUSH1 0x1 DUP3 AND DUP1 PUSH2 0x1BBA JUMPI PUSH1 0x7F DUP3 AND SWAP2 POP JUMPDEST PUSH1 0x20 DUP3 LT DUP2 SUB PUSH2 0x1BCD JUMPI PUSH2 0x1BCC PUSH2 0x1B73 JUMP JUMPDEST JUMPDEST POP SWAP2 SWAP1 POP JUMP JUMPDEST PUSH1 0x0 DUP2 SWAP1 POP SWAP3 SWAP2 POP POP JUMP JUMPDEST PUSH1 0x0 PUSH2 0x1BE9 DUP3 PUSH2 0x1688 JUMP JUMPDEST PUSH2 0x1BF3 DUP2 DUP6 PUSH2 0x1BD3 JUMP JUMPDEST SWAP4 POP PUSH2 0x1C03 DUP2 DUP6 PUSH1 0x20 DUP7 ADD PUSH2 0x16A4 JUMP JUMPDEST DUP1 DUP5 ADD SWAP2 POP POP SWAP3 SWAP2 POP POP JUMP JUMPDEST PUSH32 0x2E6A736F6E000000000000000000000000000000000000000000000000000000 PUSH1 0x0 DUP3 ADD MSTORE POP JUMP JUMPDEST PUSH1 0x0 PUSH2 0x1C45 PUSH1 0x5 DUP4 PUSH2 0x1BD3 JUMP JUMPDEST SWAP2 POP PUSH2 0x1C50 DUP3 PUSH2 0x1C0F JUMP JUMPDEST PUSH1 0x5 DUP3 ADD SWAP1 POP SWAP2 SWAP1 POP JUMP JUMPDEST PUSH1 0x0 PUSH2 0x1C67 DUP3 DUP6 PUSH2 0x1BDE JUMP JUMPDEST SWAP2 POP PUSH2 0x1C73 DUP3 DUP5 PUSH2 0x1BDE JUMP JUMPDEST SWAP2 POP PUSH2 0x1C7E DUP3 PUSH2 0x1C38 JUMP JUMPDEST SWAP2 POP DUP2 SWAP1 POP SWAP4 SWAP3 POP POP POP JUMP JUMPDEST PUSH32 0x4F776E61626C653A206E6577206F776E657220697320746865207A65726F2061 PUSH1 0x0 DUP3 ADD MSTORE PUSH32 0x6464726573730000000000000000000000000000000000000000000000000000 PUSH1 0x20 DUP3 ADD MSTORE POP JUMP JUMPDEST PUSH1 0x0 PUSH2 0x1CE6 PUSH1 0x26 DUP4 PUSH2 0x1693 JUMP JUMPDEST SWAP2 POP PUSH2 0x1CF1 DUP3 PUSH2 0x1C8A JUMP JUMPDEST PUSH1 0x40 DUP3 ADD SWAP1 POP SWAP2 SWAP1 POP JUMP JUMPDEST PUSH1 0x0 PUSH1 0x20 DUP3 ADD SWAP1 POP DUP2 DUP2 SUB PUSH1 0x0 DUP4 ADD MSTORE PUSH2 0x1D15 DUP2 PUSH2 0x1CD9 JUMP JUMPDEST SWAP1 POP SWAP2 SWAP1 POP JUMP JUMPDEST PUSH32 0x4F776E61626C653A2063616C6C6572206973206E6F7420746865206F776E6572 PUSH1 0x0 DUP3 ADD MSTORE POP JUMP JUMPDEST PUSH1 0x0 PUSH2 0x1D52 PUSH1 0x20 DUP4 PUSH2 0x1693 JUMP JUMPDEST SWAP2 POP PUSH2 0x1D5D DUP3 PUSH2 0x1D1C JUMP JUMPDEST PUSH1 0x20 DUP3 ADD SWAP1 POP SWAP2 SWAP1 POP JUMP JUMPDEST PUSH1 0x0 PUSH1 0x20 DUP3 ADD SWAP1 POP DUP2 DUP2 SUB PUSH1 0x0 DUP4 ADD MSTORE PUSH2 0x1D81 DUP2 PUSH2 0x1D45 JUMP JUMPDEST SWAP1 POP SWAP2 SWAP1 POP JUMP JUMPDEST PUSH32 0x4E487B7100000000000000000000000000000000000000000000000000000000 PUSH1 0x0 MSTORE PUSH1 0x11 PUSH1 0x4 MSTORE PUSH1 0x24 PUSH1 0x0 REVERT JUMPDEST PUSH1 0x0 PUSH2 0x1DC2 DUP3 PUSH2 0x173A JUMP JUMPDEST SWAP2 POP PUSH1 0x0 DUP3 SUB PUSH2 0x1DD5 JUMPI PUSH2 0x1DD4 PUSH2 0x1D88 JUMP JUMPDEST JUMPDEST PUSH1 0x1 DUP3 SUB SWAP1 POP SWAP2 SWAP1 POP JUMP JUMPDEST PUSH1 0x0 DUP2 MLOAD SWAP1 POP SWAP2 SWAP1 POP JUMP JUMPDEST PUSH1 0x0 DUP3 DUP3 MSTORE PUSH1 0x20 DUP3 ADD SWAP1 POP SWAP3 SWAP2 POP POP JUMP JUMPDEST PUSH1 0x0 PUSH2 0x1E07 DUP3 PUSH2 0x1DE0 JUMP JUMPDEST PUSH2 0x1E11 DUP2 DUP6 PUSH2 0x1DEB JUMP JUMPDEST SWAP4 POP PUSH2 0x1E21 DUP2 DUP6 PUSH1 0x20 DUP7 ADD PUSH2 0x16A4 JUMP JUMPDEST PUSH2 0x1E2A DUP2 PUSH2 0x16CE JUMP JUMPDEST DUP5 ADD SWAP2 POP POP SWAP3 SWAP2 POP POP JUMP JUMPDEST PUSH1 0x0 PUSH1 0x80 DUP3 ADD SWAP1 POP PUSH2 0x1E4A PUSH1 0x0 DUP4 ADD DUP8 PUSH2 0x17CF JUMP JUMPDEST PUSH2 0x1E57 PUSH1 0x20 DUP4 ADD DUP7 PUSH2 0x17CF JUMP JUMPDEST PUSH2 0x1E64 PUSH1 0x40 DUP4 ADD DUP6 PUSH2 0x1865 JUMP JUMPDEST DUP2 DUP2 SUB PUSH1 0x60 DUP4 ADD MSTORE PUSH2 0x1E76 DUP2 DUP5 PUSH2 0x1DFC JUMP JUMPDEST SWAP1 POP SWAP6 SWAP5 POP POP POP POP POP JUMP JUMPDEST PUSH1 0x0 DUP2 MLOAD SWAP1 POP PUSH2 0x1E90 DUP2 PUSH2 0x15F9 JUMP JUMPDEST SWAP3 SWAP2 POP POP JUMP JUMPDEST PUSH1 0x0 PUSH1 0x20 DUP3 DUP5 SUB SLT ISZERO PUSH2 0x1EAC JUMPI PUSH2 0x1EAB PUSH2 0x15C3 JUMP JUMPDEST JUMPDEST PUSH1 0x0 PUSH2 0x1EBA DUP5 DUP3 DUP6 ADD PUSH2 0x1E81 JUMP JUMPDEST SWAP2 POP POP SWAP3 SWAP2 POP POP JUMP INVALID PUSH10 0x7066733A2F2F516D6163 CODESIZE CODECOPY PUSH20 0x5A545347764B6B795961327672786452616B5052 GASLIMIT PUSH2 0x4746 0x4A MSTORE8 0x4E 0x4A MSTORE MSTORE JUMPI PUSH6 0x747A544C5154 0x4D 0x2F LOG2 PUSH5 0x6970667358 0x22 SLT KECCAK256 SHR GASPRICE POP PUSH30 0x7EF27E5B7D6872CCF0730EEFC86A7D7AED8526C7CF27498D5ED035B6473 PUSH16 0x6C634300081200330000000000000000 "
				},
				"gasEstimates": {
					"creation": {
						"codeDepositCost": "1596600",
						"executionCost": "infinite",
						"totalCost": "infinite"
					},
					"external": {
						"Mint(uint256)": "infinite",
						"approve(address,uint256)": "infinite",
						"balanceOf(address)": "2905",
						"getApproved(uint256)": "infinite",
						"isApprovedForAll(address,address)": "infinite",
						"name()": "infinite",
						"owner()": "2589",
						"ownerOf(uint256)": "infinite",
						"renounceOwnership()": "30443",
						"safeTransferFrom(address,address,uint256)": "infinite",
						"safeTransferFrom(address,address,uint256,bytes)": "infinite",
						"setApprovalForAll(address,bool)": "infinite",
						"supportsInterface(bytes4)": "745",
						"symbol()": "infinite",
						"tokenURI(uint256)": "infinite",
						"totalSupply()": "4621",
						"transferFrom(address,address,uint256)": "infinite",
						"transferOwnership(address)": "30854"
					},
					"internal": {
						"_baseURI()": "infinite"
					}
				},
				"methodIdentifiers": {
					"Mint(uint256)": "07883703",
					"approve(address,uint256)": "095ea7b3",
					"balanceOf(address)": "70a08231",
					"getApproved(uint256)": "081812fc",
					"isApprovedForAll(address,address)": "e985e9c5",
					"name()": "06fdde03",
					"owner()": "8da5cb5b",
					"ownerOf(uint256)": "6352211e",
					"renounceOwnership()": "715018a6",
					"safeTransferFrom(address,address,uint256)": "42842e0e",
					"safeTransferFrom(address,address,uint256,bytes)": "b88d4fde",
					"setApprovalForAll(address,bool)": "a22cb465",
					"supportsInterface(bytes4)": "01ffc9a7",
					"symbol()": "95d89b41",
					"tokenURI(uint256)": "c87b56dd",
					"totalSupply()": "18160ddd",
					"transferFrom(address,address,uint256)": "23b872dd",
					"transferOwnership(address)": "f2fde38b"
				}
			},
			"storageLayout": {
				"storage": [
					{
						"astId": 312,
						"contract": "erc721atest.sol:E721A",
						"label": "_currentIndex",
						"offset": 0,
						"slot": "0",
						"type": "t_uint256"
					},
					{
						"astId": 314,
						"contract": "erc721atest.sol:E721A",
						"label": "_burnCounter",
						"offset": 0,
						"slot": "1",
						"type": "t_uint256"
					},
					{
						"astId": 316,
						"contract": "erc721atest.sol:E721A",
						"label": "_name",
						"offset": 0,
						"slot": "2",
						"type": "t_string_storage"
					},
					{
						"astId": 318,
						"contract": "erc721atest.sol:E721A",
						"label": "_symbol",
						"offset": 0,
						"slot": "3",
						"type": "t_string_storage"
					},
					{
						"astId": 322,
						"contract": "erc721atest.sol:E721A",
						"label": "_packedOwnerships",
						"offset": 0,
						"slot": "4",
						"type": "t_mapping(t_uint256,t_uint256)"
					},
					{
						"astId": 326,
						"contract": "erc721atest.sol:E721A",
						"label": "_packedAddressData",
						"offset": 0,
						"slot": "5",
						"type": "t_mapping(t_address,t_uint256)"
					},
					{
						"astId": 331,
						"contract": "erc721atest.sol:E721A",
						"label": "_tokenApprovals",
						"offset": 0,
						"slot": "6",
						"type": "t_mapping(t_uint256,t_struct(TokenApprovalRef)244_storage)"
					},
					{
						"astId": 337,
						"contract": "erc721atest.sol:E721A",
						"label": "_operatorApprovals",
						"offset": 0,
						"slot": "7",
						"type": "t_mapping(t_address,t_mapping(t_address,t_bool))"
					},
					{
						"astId": 7,
						"contract": "erc721atest.sol:E721A",
						"label": "_owner",
						"offset": 0,
						"slot": "8",
						"type": "t_address"
					}
				],
				"types": {
					"t_address": {
						"encoding": "inplace",
						"label": "address",
						"numberOfBytes": "20"
					},
					"t_bool": {
						"encoding": "inplace",
						"label": "bool",
						"numberOfBytes": "1"
					},
					"t_mapping(t_address,t_bool)": {
						"encoding": "mapping",
						"key": "t_address",
						"label": "mapping(address => bool)",
						"numberOfBytes": "32",
						"value": "t_bool"
					},
					"t_mapping(t_address,t_mapping(t_address,t_bool))": {
						"encoding": "mapping",
						"key": "t_address",
						"label": "mapping(address => mapping(address => bool))",
						"numberOfBytes": "32",
						"value": "t_mapping(t_address,t_bool)"
					},
					"t_mapping(t_address,t_uint256)": {
						"encoding": "mapping",
						"key": "t_address",
						"label": "mapping(address => uint256)",
						"numberOfBytes": "32",
						"value": "t_uint256"
					},
					"t_mapping(t_uint256,t_struct(TokenApprovalRef)244_storage)": {
						"encoding": "mapping",
						"key": "t_uint256",
						"label": "mapping(uint256 => struct ERC721A.TokenApprovalRef)",
						"numberOfBytes": "32",
						"value": "t_struct(TokenApprovalRef)244_storage"
					},
					"t_mapping(t_uint256,t_uint256)": {
						"encoding": "mapping",
						"key": "t_uint256",
						"label": "mapping(uint256 => uint256)",
						"numberOfBytes": "32",
						"value": "t_uint256"
					},
					"t_string_storage": {
						"encoding": "bytes",
						"label": "string",
						"numberOfBytes": "32"
					},
					"t_struct(TokenApprovalRef)244_storage": {
						"encoding": "inplace",
						"label": "struct ERC721A.TokenApprovalRef",
						"members": [
							{
								"astId": 243,
								"contract": "erc721atest.sol:E721A",
								"label": "value",
								"offset": 0,
								"slot": "0",
								"type": "t_address"
							}
						],
						"numberOfBytes": "32"
					},
					"t_uint256": {
						"encoding": "inplace",
						"label": "uint256",
						"numberOfBytes": "32"
					}
				}
			},
			"userdoc": {
				"errors": {
					"ApprovalCallerNotOwnerNorApproved()": [
						{
							"notice": "The caller must own the token or be an approved operator."
						}
					],
					"ApprovalQueryForNonexistentToken()": [
						{
							"notice": "The token does not exist."
						}
					],
					"BalanceQueryForZeroAddress()": [
						{
							"notice": "Cannot query the balance for the zero address."
						}
					],
					"MintERC2309QuantityExceedsLimit()": [
						{
							"notice": "The `quantity` minted with ERC2309 exceeds the safety limit."
						}
					],
					"MintToZeroAddress()": [
						{
							"notice": "Cannot mint to the zero address."
						}
					],
					"MintZeroQuantity()": [
						{
							"notice": "The quantity of tokens minted must be more than zero."
						}
					],
					"OwnerQueryForNonexistentToken()": [
						{
							"notice": "The token does not exist."
						}
					],
					"OwnershipNotInitializedForExtraData()": [
						{
							"notice": "The `extraData` cannot be set on an unintialized ownership slot."
						}
					],
					"TransferCallerNotOwnerNorApproved()": [
						{
							"notice": "The caller must own the token or be an approved operator."
						}
					],
					"TransferFromIncorrectOwner()": [
						{
							"notice": "The token must be owned by `from`."
						}
					],
					"TransferToNonERC721ReceiverImplementer()": [
						{
							"notice": "Cannot safely transfer to a contract that does not implement the ERC721Receiver interface."
						}
					],
					"TransferToZeroAddress()": [
						{
							"notice": "Cannot transfer to the zero address."
						}
					],
					"URIQueryForNonexistentToken()": [
						{
							"notice": "The token does not exist."
						}
					]
				},
				"kind": "user",
				"methods": {},
				"version": 1
			}
		}
	}
}