{
	"Staking.sol": {
		"MyToken": {
			"abi": [
				{
					"inputs": [
						{
							"internalType": "address",
							"name": "_nft",
							"type": "address"
						}
					],
					"stateMutability": "nonpayable",
					"type": "constructor"
				},
				{
					"anonymous": false,
					"inputs": [
						{
							"indexed": true,
							"internalType": "address",
							"name": "owner",
							"type": "address"
						},
						{
							"indexed": true,
							"internalType": "address",
							"name": "spender",
							"type": "address"
						},
						{
							"indexed": false,
							"internalType": "uint256",
							"name": "value",
							"type": "uint256"
						}
					],
					"name": "Approval",
					"type": "event"
				},
				{
					"anonymous": false,
					"inputs": [
						{
							"indexed": true,
							"internalType": "address",
							"name": "previousOwner",
							"type": "address"
						},
						{
							"indexed": true,
							"internalType": "address",
							"name": "newOwner",
							"type": "address"
						}
					],
					"name": "OwnershipTransferred",
					"type": "event"
				},
				{
					"anonymous": false,
					"inputs": [
						{
							"indexed": true,
							"internalType": "address",
							"name": "from",
							"type": "address"
						},
						{
							"indexed": true,
							"internalType": "address",
							"name": "to",
							"type": "address"
						},
						{
							"indexed": false,
							"internalType": "uint256",
							"name": "value",
							"type": "uint256"
						}
					],
					"name": "Transfer",
					"type": "event"
				},
				{
					"inputs": [],
					"name": "EMISSION_RATE",
					"outputs": [
						{
							"internalType": "uint256",
							"name": "",
							"type": "uint256"
						}
					],
					"stateMutability": "view",
					"type": "function"
				},
				{
					"inputs": [
						{
							"internalType": "address",
							"name": "owner",
							"type": "address"
						},
						{
							"internalType": "address",
							"name": "spender",
							"type": "address"
						}
					],
					"name": "allowance",
					"outputs": [
						{
							"internalType": "uint256",
							"name": "",
							"type": "uint256"
						}
					],
					"stateMutability": "view",
					"type": "function"
				},
				{
					"inputs": [
						{
							"internalType": "address",
							"name": "spender",
							"type": "address"
						},
						{
							"internalType": "uint256",
							"name": "amount",
							"type": "uint256"
						}
					],
					"name": "approve",
					"outputs": [
						{
							"internalType": "bool",
							"name": "",
							"type": "bool"
						}
					],
					"stateMutability": "nonpayable",
					"type": "function"
				},
				{
					"inputs": [
						{
							"internalType": "address",
							"name": "account",
							"type": "address"
						}
					],
					"name": "balanceOf",
					"outputs": [
						{
							"internalType": "uint256",
							"name": "",
							"type": "uint256"
						}
					],
					"stateMutability": "view",
					"type": "function"
				},
				{
					"inputs": [
						{
							"internalType": "uint256",
							"name": "tokenId",
							"type": "uint256"
						}
					],
					"name": "calculateTokens",
					"outputs": [
						{
							"internalType": "uint256",
							"name": "",
							"type": "uint256"
						}
					],
					"stateMutability": "view",
					"type": "function"
				},
				{
					"inputs": [],
					"name": "decimals",
					"outputs": [
						{
							"internalType": "uint8",
							"name": "",
							"type": "uint8"
						}
					],
					"stateMutability": "view",
					"type": "function"
				},
				{
					"inputs": [
						{
							"internalType": "address",
							"name": "spender",
							"type": "address"
						},
						{
							"internalType": "uint256",
							"name": "subtractedValue",
							"type": "uint256"
						}
					],
					"name": "decreaseAllowance",
					"outputs": [
						{
							"internalType": "bool",
							"name": "",
							"type": "bool"
						}
					],
					"stateMutability": "nonpayable",
					"type": "function"
				},
				{
					"inputs": [
						{
							"internalType": "address",
							"name": "spender",
							"type": "address"
						},
						{
							"internalType": "uint256",
							"name": "addedValue",
							"type": "uint256"
						}
					],
					"name": "increaseAllowance",
					"outputs": [
						{
							"internalType": "bool",
							"name": "",
							"type": "bool"
						}
					],
					"stateMutability": "nonpayable",
					"type": "function"
				},
				{
					"inputs": [],
					"name": "name",
					"outputs": [
						{
							"internalType": "string",
							"name": "",
							"type": "string"
						}
					],
					"stateMutability": "view",
					"type": "function"
				},
				{
					"inputs": [],
					"name": "nft",
					"outputs": [
						{
							"internalType": "contract IERC721",
							"name": "",
							"type": "address"
						}
					],
					"stateMutability": "view",
					"type": "function"
				},
				{
					"inputs": [
						{
							"internalType": "address",
							"name": "",
							"type": "address"
						},
						{
							"internalType": "address",
							"name": "",
							"type": "address"
						},
						{
							"internalType": "uint256",
							"name": "",
							"type": "uint256"
						},
						{
							"internalType": "bytes",
							"name": "",
							"type": "bytes"
						}
					],
					"name": "onERC721Received",
					"outputs": [
						{
							"internalType": "bytes4",
							"name": "",
							"type": "bytes4"
						}
					],
					"stateMutability": "nonpayable",
					"type": "function"
				},
				{
					"inputs": [],
					"name": "owner",
					"outputs": [
						{
							"internalType": "address",
							"name": "",
							"type": "address"
						}
					],
					"stateMutability": "view",
					"type": "function"
				},
				{
					"inputs": [],
					"name": "renounceOwnership",
					"outputs": [],
					"stateMutability": "nonpayable",
					"type": "function"
				},
				{
					"inputs": [
						{
							"internalType": "uint256",
							"name": "tokenId",
							"type": "uint256"
						}
					],
					"name": "stake",
					"outputs": [],
					"stateMutability": "nonpayable",
					"type": "function"
				},
				{
					"inputs": [],
					"name": "symbol",
					"outputs": [
						{
							"internalType": "string",
							"name": "",
							"type": "string"
						}
					],
					"stateMutability": "view",
					"type": "function"
				},
				{
					"inputs": [
						{
							"internalType": "uint256",
							"name": "",
							"type": "uint256"
						}
					],
					"name": "tokenOwnerOf",
					"outputs": [
						{
							"internalType": "address",
							"name": "",
							"type": "address"
						}
					],
					"stateMutability": "view",
					"type": "function"
				},
				{
					"inputs": [
						{
							"internalType": "uint256",
							"name": "",
							"type": "uint256"
						}
					],
					"name": "tokenStakedAt",
					"outputs": [
						{
							"internalType": "uint256",
							"name": "",
							"type": "uint256"
						}
					],
					"stateMutability": "view",
					"type": "function"
				},
				{
					"inputs": [],
					"name": "totalSupply",
					"outputs": [
						{
							"internalType": "uint256",
							"name": "",
							"type": "uint256"
						}
					],
					"stateMutability": "view",
					"type": "function"
				},
				{
					"inputs": [
						{
							"internalType": "address",
							"name": "to",
							"type": "address"
						},
						{
							"internalType": "uint256",
							"name": "amount",
							"type": "uint256"
						}
					],
					"name": "transfer",
					"outputs": [
						{
							"internalType": "bool",
							"name": "",
							"type": "bool"
						}
					],
					"stateMutability": "nonpayable",
					"type": "function"
				},
				{
					"inputs": [],
					"name": "transferBalanceToOwner",
					"outputs": [],
					"stateMutability": "nonpayable",
					"type": "function"
				},
				{
					"inputs": [
						{
							"internalType": "address",
							"name": "from",
							"type": "address"
						},
						{
							"internalType": "address",
							"name": "to",
							"type": "address"
						},
						{
							"internalType": "uint256",
							"name": "amount",
							"type": "uint256"
						}
					],
					"name": "transferFrom",
					"outputs": [
						{
							"internalType": "bool",
							"name": "",
							"type": "bool"
						}
					],
					"stateMutability": "nonpayable",
					"type": "function"
				},
				{
					"inputs": [
						{
							"internalType": "address",
							"name": "newOwner",
							"type": "address"
						}
					],
					"name": "transferOwnership",
					"outputs": [],
					"stateMutability": "nonpayable",
					"type": "function"
				},
				{
					"inputs": [
						{
							"internalType": "uint256",
							"name": "tokenId",
							"type": "uint256"
						}
					],
					"name": "unstake",
					"outputs": [],
					"stateMutability": "nonpayable",
					"type": "function"
				}
			],
			"devdoc": {
				"events": {
					"Approval(address,address,uint256)": {
						"details": "Emitted when the allowance of a `spender` for an `owner` is set by a call to {approve}. `value` is the new allowance."
					},
					"Transfer(address,address,uint256)": {
						"details": "Emitted when `value` tokens are moved from one account (`from`) to another (`to`). Note that `value` may be zero."
					}
				},
				"kind": "dev",
				"methods": {
					"allowance(address,address)": {
						"details": "See {IERC20-allowance}."
					},
					"approve(address,uint256)": {
						"details": "See {IERC20-approve}. NOTE: If `amount` is the maximum `uint256`, the allowance is not updated on `transferFrom`. This is semantically equivalent to an infinite approval. Requirements: - `spender` cannot be the zero address."
					},
					"balanceOf(address)": {
						"details": "See {IERC20-balanceOf}."
					},
					"decimals()": {
						"details": "Returns the number of decimals used to get its user representation. For example, if `decimals` equals `2`, a balance of `505` tokens should be displayed to a user as `5.05` (`505 / 10 ** 2`). Tokens usually opt for a value of 18, imitating the relationship between Ether and Wei. This is the default value returned by this function, unless it's overridden. NOTE: This information is only used for _display_ purposes: it in no way affects any of the arithmetic of the contract, including {IERC20-balanceOf} and {IERC20-transfer}."
					},
					"decreaseAllowance(address,uint256)": {
						"details": "Atomically decreases the allowance granted to `spender` by the caller. This is an alternative to {approve} that can be used as a mitigation for problems described in {IERC20-approve}. Emits an {Approval} event indicating the updated allowance. Requirements: - `spender` cannot be the zero address. - `spender` must have allowance for the caller of at least `subtractedValue`."
					},
					"increaseAllowance(address,uint256)": {
						"details": "Atomically increases the allowance granted to `spender` by the caller. This is an alternative to {approve} that can be used as a mitigation for problems described in {IERC20-approve}. Emits an {Approval} event indicating the updated allowance. Requirements: - `spender` cannot be the zero address."
					},
					"name()": {
						"details": "Returns the name of the token."
					},
					"onERC721Received(address,address,uint256,bytes)": {
						"details": "See {IERC721Receiver-onERC721Received}. Always returns `IERC721Receiver.onERC721Received.selector`."
					},
					"owner()": {
						"details": "Returns the address of the current owner."
					},
					"renounceOwnership()": {
						"details": "Leaves the contract without owner. It will not be possible to call `onlyOwner` functions. Can only be called by the current owner. NOTE: Renouncing ownership will leave the contract without an owner, thereby disabling any functionality that is only available to the owner."
					},
					"symbol()": {
						"details": "Returns the symbol of the token, usually a shorter version of the name."
					},
					"totalSupply()": {
						"details": "See {IERC20-totalSupply}."
					},
					"transfer(address,uint256)": {
						"details": "See {IERC20-transfer}. Requirements: - `to` cannot be the zero address. - the caller must have a balance of at least `amount`."
					},
					"transferFrom(address,address,uint256)": {
						"details": "See {IERC20-transferFrom}. Emits an {Approval} event indicating the updated allowance. This is not required by the EIP. See the note at the beginning of {ERC20}. NOTE: Does not update the allowance if the current allowance is the maximum `uint256`. Requirements: - `from` and `to` cannot be the zero address. - `from` must have a balance of at least `amount`. - the caller must have allowance for ``from``'s tokens of at least `amount`."
					},
					"transferOwnership(address)": {
						"details": "Transfers ownership of the contract to a new account (`newOwner`). Can only be called by the current owner."
					}
				},
				"version": 1
			},
			"evm": {
				"assembly": "    /* \"Staking.sol\":296:1606  contract MyToken is ERC20, ERC721Holder, Ownable {... */\n  mstore(0x40, 0x80)\n    /* \"Staking.sol\":539:545  1 days */\n  0x015180\n    /* \"Staking.sol\":525:535  decimals() */\n  tag_1\n    /* \"Staking.sol\":525:533  decimals */\n  shl(0x20, tag_2)\n    /* \"Staking.sol\":525:535  decimals() */\n  0x20\n  shr\n  jump\t// in\ntag_1:\n    /* \"Staking.sol\":519:521  10 */\n  0x0a\n    /* \"Staking.sol\":519:535  10 ** decimals() */\n  tag_3\n  swap2\n  swap1\n  tag_4\n  jump\t// in\ntag_3:\n    /* \"Staking.sol\":514:516  50 */\n  0x32\n    /* \"Staking.sol\":514:535  50 * 10 ** decimals() */\n  tag_5\n  swap2\n  swap1\n  tag_6\n  jump\t// in\ntag_5:\n    /* \"Staking.sol\":513:545  (50 * 10 ** decimals()) / 1 days */\n  tag_7\n  swap2\n  swap1\n  tag_8\n  jump\t// in\ntag_7:\n    /* \"Staking.sol\":482:545  uint256 public EMISSION_RATE = (50 * 10 ** decimals()) / 1 days */\n  0x09\n  sstore\n    /* \"Staking.sol\":552:638  constructor(address _nft) ERC20(\"MyToken\", \"MTK\") {... */\n  callvalue\n  dup1\n  iszero\n  tag_9\n  jumpi\n  0x00\n  dup1\n  revert\ntag_9:\n  pop\n  mload(0x40)\n  sub(codesize, bytecodeSize)\n  dup1\n  bytecodeSize\n  dup4\n  codecopy\n  dup2\n  dup2\n  add\n  0x40\n  mstore\n  dup2\n  add\n  swap1\n  tag_10\n  swap2\n  swap1\n  tag_11\n  jump\t// in\ntag_10:\n    /* \"@openzeppelin/contracts/token/ERC20/ERC20.sol\":1980:2093  constructor(string memory name_, string memory symbol_) {... */\n  mload(0x40)\n  dup1\n  0x40\n  add\n  0x40\n  mstore\n  dup1\n  0x07\n  dup2\n  mstore\n  0x20\n  add\n  0x4d79546f6b656e00000000000000000000000000000000000000000000000000\n  dup2\n  mstore\n  pop\n  mload(0x40)\n  dup1\n  0x40\n  add\n  0x40\n  mstore\n  dup1\n  0x03\n  dup2\n  mstore\n  0x20\n  add\n  0x4d544b0000000000000000000000000000000000000000000000000000000000\n  dup2\n  mstore\n  pop\n    /* \"@openzeppelin/contracts/token/ERC20/ERC20.sol\":2054:2059  name_ */\n  dup2\n    /* \"@openzeppelin/contracts/token/ERC20/ERC20.sol\":2046:2051  _name */\n  0x03\n    /* \"@openzeppelin/contracts/token/ERC20/ERC20.sol\":2046:2059  _name = name_ */\n  swap1\n  dup2\n  tag_16\n  swap2\n  swap1\n  tag_17\n  jump\t// in\ntag_16:\n  pop\n    /* \"@openzeppelin/contracts/token/ERC20/ERC20.sol\":2079:2086  symbol_ */\n  dup1\n    /* \"@openzeppelin/contracts/token/ERC20/ERC20.sol\":2069:2076  _symbol */\n  0x04\n    /* \"@openzeppelin/contracts/token/ERC20/ERC20.sol\":2069:2086  _symbol = symbol_ */\n  swap1\n  dup2\n  tag_18\n  swap2\n  swap1\n  tag_17\n  jump\t// in\ntag_18:\n  pop\n    /* \"@openzeppelin/contracts/token/ERC20/ERC20.sol\":1980:2093  constructor(string memory name_, string memory symbol_) {... */\n  pop\n  pop\n    /* \"@openzeppelin/contracts/access/Ownable.sol\":936:968  _transferOwnership(_msgSender()) */\n  tag_20\n    /* \"@openzeppelin/contracts/access/Ownable.sol\":955:967  _msgSender() */\n  tag_21\n    /* \"@openzeppelin/contracts/access/Ownable.sol\":955:965  _msgSender */\n  shl(0x20, tag_22)\n    /* \"@openzeppelin/contracts/access/Ownable.sol\":955:967  _msgSender() */\n  0x20\n  shr\n  jump\t// in\ntag_21:\n    /* \"@openzeppelin/contracts/access/Ownable.sol\":936:954  _transferOwnership */\n  shl(0x20, tag_23)\n    /* \"@openzeppelin/contracts/access/Ownable.sol\":936:968  _transferOwnership(_msgSender()) */\n  0x20\n  shr\n  jump\t// in\ntag_20:\n    /* \"Staking.sol\":626:630  _nft */\n  dup1\n    /* \"Staking.sol\":612:615  nft */\n  0x06\n  0x00\n    /* \"Staking.sol\":612:631  nft = IERC721(_nft) */\n  0x0100\n  exp\n  dup2\n  sload\n  dup2\n  0xffffffffffffffffffffffffffffffffffffffff\n  mul\n  not\n  and\n  swap1\n  dup4\n  0xffffffffffffffffffffffffffffffffffffffff\n  and\n  mul\n  or\n  swap1\n  sstore\n  pop\n    /* \"Staking.sol\":552:638  constructor(address _nft) ERC20(\"MyToken\", \"MTK\") {... */\n  pop\n    /* \"Staking.sol\":296:1606  contract MyToken is ERC20, ERC721Holder, Ownable {... */\n  jump(tag_25)\n    /* \"@openzeppelin/contracts/token/ERC20/ERC20.sol\":3104:3195  function decimals() public view virtual override returns (uint8) {... */\ntag_2:\n    /* \"@openzeppelin/contracts/token/ERC20/ERC20.sol\":3162:3167  uint8 */\n  0x00\n    /* \"@openzeppelin/contracts/token/ERC20/ERC20.sol\":3186:3188  18 */\n  0x12\n    /* \"@openzeppelin/contracts/token/ERC20/ERC20.sol\":3179:3188  return 18 */\n  swap1\n  pop\n    /* \"@openzeppelin/contracts/token/ERC20/ERC20.sol\":3104:3195  function decimals() public view virtual override returns (uint8) {... */\n  swap1\n  jump\t// out\n    /* \"@openzeppelin/contracts/utils/Context.sol\":640:736  function _msgSender() internal view virtual returns (address) {... */\ntag_22:\n    /* \"@openzeppelin/contracts/utils/Context.sol\":693:700  address */\n  0x00\n    /* \"@openzeppelin/contracts/utils/Context.sol\":719:729  msg.sender */\n  caller\n    /* \"@openzeppelin/contracts/utils/Context.sol\":712:729  return msg.sender */\n  swap1\n  pop\n    /* \"@openzeppelin/contracts/utils/Context.sol\":640:736  function _msgSender() internal view virtual returns (address) {... */\n  swap1\n  jump\t// out\n    /* \"@openzeppelin/contracts/access/Ownable.sol\":2426:2613  function _transferOwnership(address newOwner) internal virtual {... */\ntag_23:\n    /* \"@openzeppelin/contracts/access/Ownable.sol\":2499:2515  address oldOwner */\n  0x00\n    /* \"@openzeppelin/contracts/access/Ownable.sol\":2518:2524  _owner */\n  0x05\n  0x00\n  swap1\n  sload\n  swap1\n  0x0100\n  exp\n  swap1\n  div\n  0xffffffffffffffffffffffffffffffffffffffff\n  and\n    /* \"@openzeppelin/contracts/access/Ownable.sol\":2499:2524  address oldOwner = _owner */\n  swap1\n  pop\n    /* \"@openzeppelin/contracts/access/Ownable.sol\":2543:2551  newOwner */\n  dup2\n    /* \"@openzeppelin/contracts/access/Ownable.sol\":2534:2540  _owner */\n  0x05\n  0x00\n    /* \"@openzeppelin/contracts/access/Ownable.sol\":2534:2551  _owner = newOwner */\n  0x0100\n  exp\n  dup2\n  sload\n  dup2\n  0xffffffffffffffffffffffffffffffffffffffff\n  mul\n  not\n  and\n  swap1\n  dup4\n  0xffffffffffffffffffffffffffffffffffffffff\n  and\n  mul\n  or\n  swap1\n  sstore\n  pop\n    /* \"@openzeppelin/contracts/access/Ownable.sol\":2597:2605  newOwner */\n  dup2\n    /* \"@openzeppelin/contracts/access/Ownable.sol\":2566:2606  OwnershipTransferred(oldOwner, newOwner) */\n  0xffffffffffffffffffffffffffffffffffffffff\n  and\n    /* \"@openzeppelin/contracts/access/Ownable.sol\":2587:2595  oldOwner */\n  dup2\n    /* \"@openzeppelin/contracts/access/Ownable.sol\":2566:2606  OwnershipTransferred(oldOwner, newOwner) */\n  0xffffffffffffffffffffffffffffffffffffffff\n  and\n  0x8be0079c531659141344cd1fd0a4f28419497f9722a3daafe3b4186f6b6457e0\n  mload(0x40)\n  mload(0x40)\n  dup1\n  swap2\n  sub\n  swap1\n  log3\n    /* \"@openzeppelin/contracts/access/Ownable.sol\":2489:2613  {... */\n  pop\n    /* \"@openzeppelin/contracts/access/Ownable.sol\":2426:2613  function _transferOwnership(address newOwner) internal virtual {... */\n  pop\n  jump\t// out\n    /* \"#utility.yul\":7:187   */\ntag_29:\n    /* \"#utility.yul\":55:132   */\n  0x4e487b7100000000000000000000000000000000000000000000000000000000\n    /* \"#utility.yul\":52:53   */\n  0x00\n    /* \"#utility.yul\":45:133   */\n  mstore\n    /* \"#utility.yul\":152:156   */\n  0x11\n    /* \"#utility.yul\":149:150   */\n  0x04\n    /* \"#utility.yul\":142:157   */\n  mstore\n    /* \"#utility.yul\":176:180   */\n  0x24\n    /* \"#utility.yul\":173:174   */\n  0x00\n    /* \"#utility.yul\":166:181   */\n  revert\n    /* \"#utility.yul\":193:295   */\ntag_30:\n    /* \"#utility.yul\":235:243   */\n  0x00\n    /* \"#utility.yul\":282:287   */\n  dup2\n    /* \"#utility.yul\":279:280   */\n  0x01\n    /* \"#utility.yul\":275:288   */\n  shr\n    /* \"#utility.yul\":254:288   */\n  swap1\n  pop\n    /* \"#utility.yul\":193:295   */\n  swap2\n  swap1\n  pop\n  jump\t// out\n    /* \"#utility.yul\":301:1149   */\ntag_31:\n    /* \"#utility.yul\":362:367   */\n  0x00\n    /* \"#utility.yul\":369:373   */\n  dup1\n    /* \"#utility.yul\":393:399   */\n  dup3\n    /* \"#utility.yul\":384:399   */\n  swap2\n  pop\n    /* \"#utility.yul\":417:422   */\n  dup4\n    /* \"#utility.yul\":408:422   */\n  swap1\n  pop\n    /* \"#utility.yul\":431:1143   */\ntag_66:\n    /* \"#utility.yul\":452:453   */\n  0x01\n    /* \"#utility.yul\":442:450   */\n  dup6\n    /* \"#utility.yul\":439:454   */\n  gt\n    /* \"#utility.yul\":431:1143   */\n  iszero\n  tag_68\n  jumpi\n    /* \"#utility.yul\":547:551   */\n  dup1\n    /* \"#utility.yul\":542:545   */\n  dup7\n    /* \"#utility.yul\":538:552   */\n  div\n    /* \"#utility.yul\":532:536   */\n  dup2\n    /* \"#utility.yul\":529:553   */\n  gt\n    /* \"#utility.yul\":526:576   */\n  iszero\n  tag_69\n  jumpi\n    /* \"#utility.yul\":556:574   */\n  tag_70\n  tag_29\n  jump\t// in\ntag_70:\n    /* \"#utility.yul\":526:576   */\ntag_69:\n    /* \"#utility.yul\":606:607   */\n  0x01\n    /* \"#utility.yul\":596:604   */\n  dup6\n    /* \"#utility.yul\":592:608   */\n  and\n    /* \"#utility.yul\":589:1040   */\n  iszero\n  tag_71\n  jumpi\n    /* \"#utility.yul\":1021:1025   */\n  dup1\n    /* \"#utility.yul\":1014:1019   */\n  dup3\n    /* \"#utility.yul\":1010:1026   */\n  mul\n    /* \"#utility.yul\":1001:1026   */\n  swap2\n  pop\n    /* \"#utility.yul\":589:1040   */\ntag_71:\n    /* \"#utility.yul\":1071:1075   */\n  dup1\n    /* \"#utility.yul\":1065:1069   */\n  dup2\n    /* \"#utility.yul\":1061:1076   */\n  mul\n    /* \"#utility.yul\":1053:1076   */\n  swap1\n  pop\n    /* \"#utility.yul\":1101:1133   */\n  tag_72\n    /* \"#utility.yul\":1124:1132   */\n  dup6\n    /* \"#utility.yul\":1101:1133   */\n  tag_30\n  jump\t// in\ntag_72:\n    /* \"#utility.yul\":1089:1133   */\n  swap5\n  pop\n    /* \"#utility.yul\":431:1143   */\n  jump(tag_66)\ntag_68:\n    /* \"#utility.yul\":301:1149   */\n  swap5\n  pop\n  swap5\n  swap3\n  pop\n  pop\n  pop\n  jump\t// out\n    /* \"#utility.yul\":1155:2228   */\ntag_32:\n    /* \"#utility.yul\":1209:1214   */\n  0x00\n    /* \"#utility.yul\":1400:1408   */\n  dup3\n    /* \"#utility.yul\":1390:1430   */\n  tag_74\n  jumpi\n    /* \"#utility.yul\":1421:1422   */\n  0x01\n    /* \"#utility.yul\":1412:1422   */\n  swap1\n  pop\n    /* \"#utility.yul\":1423:1428   */\n  jump(tag_73)\n    /* \"#utility.yul\":1390:1430   */\ntag_74:\n    /* \"#utility.yul\":1449:1453   */\n  dup2\n    /* \"#utility.yul\":1439:1475   */\n  tag_75\n  jumpi\n    /* \"#utility.yul\":1466:1467   */\n  0x00\n    /* \"#utility.yul\":1457:1467   */\n  swap1\n  pop\n    /* \"#utility.yul\":1468:1473   */\n  jump(tag_73)\n    /* \"#utility.yul\":1439:1475   */\ntag_75:\n    /* \"#utility.yul\":1535:1539   */\n  dup2\n    /* \"#utility.yul\":1583:1584   */\n  0x01\n    /* \"#utility.yul\":1578:1605   */\n  dup2\n  eq\n  tag_77\n  jumpi\n    /* \"#utility.yul\":1619:1620   */\n  0x02\n    /* \"#utility.yul\":1614:1805   */\n  dup2\n  eq\n  tag_78\n  jumpi\n    /* \"#utility.yul\":1528:1805   */\n  jump(tag_76)\n    /* \"#utility.yul\":1578:1605   */\ntag_77:\n    /* \"#utility.yul\":1596:1597   */\n  0x01\n    /* \"#utility.yul\":1587:1597   */\n  swap2\n  pop\n    /* \"#utility.yul\":1598:1603   */\n  pop\n  jump(tag_73)\n    /* \"#utility.yul\":1614:1805   */\ntag_78:\n    /* \"#utility.yul\":1659:1662   */\n  0xff\n    /* \"#utility.yul\":1649:1657   */\n  dup5\n    /* \"#utility.yul\":1646:1663   */\n  gt\n    /* \"#utility.yul\":1643:1686   */\n  iszero\n  tag_79\n  jumpi\n    /* \"#utility.yul\":1666:1684   */\n  tag_80\n  tag_29\n  jump\t// in\ntag_80:\n    /* \"#utility.yul\":1643:1686   */\ntag_79:\n    /* \"#utility.yul\":1715:1723   */\n  dup4\n    /* \"#utility.yul\":1712:1713   */\n  0x02\n    /* \"#utility.yul\":1708:1724   */\n  exp\n    /* \"#utility.yul\":1699:1724   */\n  swap2\n  pop\n    /* \"#utility.yul\":1750:1753   */\n  dup5\n    /* \"#utility.yul\":1743:1748   */\n  dup3\n    /* \"#utility.yul\":1740:1754   */\n  gt\n    /* \"#utility.yul\":1737:1777   */\n  iszero\n  tag_81\n  jumpi\n    /* \"#utility.yul\":1757:1775   */\n  tag_82\n  tag_29\n  jump\t// in\ntag_82:\n    /* \"#utility.yul\":1737:1777   */\ntag_81:\n    /* \"#utility.yul\":1790:1795   */\n  pop\n  jump(tag_73)\n    /* \"#utility.yul\":1528:1805   */\ntag_76:\n  pop\n    /* \"#utility.yul\":1914:1916   */\n  0x20\n    /* \"#utility.yul\":1904:1912   */\n  dup4\n    /* \"#utility.yul\":1901:1917   */\n  lt\n    /* \"#utility.yul\":1895:1898   */\n  0x0133\n    /* \"#utility.yul\":1889:1893   */\n  dup4\n    /* \"#utility.yul\":1886:1899   */\n  lt\n    /* \"#utility.yul\":1882:1918   */\n  and\n    /* \"#utility.yul\":1864:1866   */\n  0x4e\n    /* \"#utility.yul\":1854:1862   */\n  dup5\n    /* \"#utility.yul\":1851:1867   */\n  lt\n    /* \"#utility.yul\":1846:1848   */\n  0x0b\n    /* \"#utility.yul\":1840:1844   */\n  dup5\n    /* \"#utility.yul\":1837:1849   */\n  lt\n    /* \"#utility.yul\":1833:1868   */\n  and\n    /* \"#utility.yul\":1817:1928   */\n  or\n    /* \"#utility.yul\":1814:2060   */\n  iszero\n  tag_83\n  jumpi\n    /* \"#utility.yul\":1970:1978   */\n  dup3\n    /* \"#utility.yul\":1964:1968   */\n  dup3\n    /* \"#utility.yul\":1960:1979   */\n  exp\n    /* \"#utility.yul\":1951:1979   */\n  swap1\n  pop\n    /* \"#utility.yul\":2005:2008   */\n  dup4\n    /* \"#utility.yul\":1998:2003   */\n  dup2\n    /* \"#utility.yul\":1995:2009   */\n  gt\n    /* \"#utility.yul\":1992:2032   */\n  iszero\n  tag_84\n  jumpi\n    /* \"#utility.yul\":2012:2030   */\n  tag_85\n  tag_29\n  jump\t// in\ntag_85:\n    /* \"#utility.yul\":1992:2032   */\ntag_84:\n    /* \"#utility.yul\":2045:2050   */\n  jump(tag_73)\n    /* \"#utility.yul\":1814:2060   */\ntag_83:\n    /* \"#utility.yul\":2085:2127   */\n  tag_86\n    /* \"#utility.yul\":2123:2126   */\n  dup5\n    /* \"#utility.yul\":2113:2121   */\n  dup5\n    /* \"#utility.yul\":2107:2111   */\n  dup5\n    /* \"#utility.yul\":2104:2105   */\n  0x01\n    /* \"#utility.yul\":2085:2127   */\n  tag_31\n  jump\t// in\ntag_86:\n    /* \"#utility.yul\":2070:2127   */\n  swap3\n  pop\n  swap1\n  pop\n    /* \"#utility.yul\":2159:2163   */\n  dup2\n    /* \"#utility.yul\":2154:2157   */\n  dup5\n    /* \"#utility.yul\":2150:2164   */\n  div\n    /* \"#utility.yul\":2143:2148   */\n  dup2\n    /* \"#utility.yul\":2140:2165   */\n  gt\n    /* \"#utility.yul\":2137:2188   */\n  iszero\n  tag_87\n  jumpi\n    /* \"#utility.yul\":2168:2186   */\n  tag_88\n  tag_29\n  jump\t// in\ntag_88:\n    /* \"#utility.yul\":2137:2188   */\ntag_87:\n    /* \"#utility.yul\":2217:2221   */\n  dup2\n    /* \"#utility.yul\":2210:2215   */\n  dup2\n    /* \"#utility.yul\":2206:2222   */\n  mul\n    /* \"#utility.yul\":2197:2222   */\n  swap1\n  pop\n    /* \"#utility.yul\":1155:2228   */\ntag_73:\n  swap4\n  swap3\n  pop\n  pop\n  pop\n  jump\t// out\n    /* \"#utility.yul\":2234:2311   */\ntag_33:\n    /* \"#utility.yul\":2271:2278   */\n  0x00\n    /* \"#utility.yul\":2300:2305   */\n  dup2\n    /* \"#utility.yul\":2289:2305   */\n  swap1\n  pop\n    /* \"#utility.yul\":2234:2311   */\n  swap2\n  swap1\n  pop\n  jump\t// out\n    /* \"#utility.yul\":2317:2403   */\ntag_34:\n    /* \"#utility.yul\":2352:2359   */\n  0x00\n    /* \"#utility.yul\":2392:2396   */\n  0xff\n    /* \"#utility.yul\":2385:2390   */\n  dup3\n    /* \"#utility.yul\":2381:2397   */\n  and\n    /* \"#utility.yul\":2370:2397   */\n  swap1\n  pop\n    /* \"#utility.yul\":2317:2403   */\n  swap2\n  swap1\n  pop\n  jump\t// out\n    /* \"#utility.yul\":2409:2690   */\ntag_4:\n    /* \"#utility.yul\":2467:2472   */\n  0x00\n    /* \"#utility.yul\":2491:2514   */\n  tag_92\n    /* \"#utility.yul\":2509:2513   */\n  dup3\n    /* \"#utility.yul\":2491:2514   */\n  tag_33\n  jump\t// in\ntag_92:\n    /* \"#utility.yul\":2483:2514   */\n  swap2\n  pop\n    /* \"#utility.yul\":2535:2560   */\n  tag_93\n    /* \"#utility.yul\":2551:2559   */\n  dup4\n    /* \"#utility.yul\":2535:2560   */\n  tag_34\n  jump\t// in\ntag_93:\n    /* \"#utility.yul\":2523:2560   */\n  swap3\n  pop\n    /* \"#utility.yul\":2579:2683   */\n  tag_94\n    /* \"#utility.yul\":2616:2682   */\n  0xffffffffffffffffffffffffffffffffffffffffffffffffffffffffffffffff\n    /* \"#utility.yul\":2606:2614   */\n  dup5\n    /* \"#utility.yul\":2600:2604   */\n  dup5\n    /* \"#utility.yul\":2579:2683   */\n  tag_32\n  jump\t// in\ntag_94:\n    /* \"#utility.yul\":2570:2683   */\n  swap1\n  pop\n    /* \"#utility.yul\":2409:2690   */\n  swap3\n  swap2\n  pop\n  pop\n  jump\t// out\n    /* \"#utility.yul\":2696:3106   */\ntag_6:\n    /* \"#utility.yul\":2736:2743   */\n  0x00\n    /* \"#utility.yul\":2759:2779   */\n  tag_96\n    /* \"#utility.yul\":2777:2778   */\n  dup3\n    /* \"#utility.yul\":2759:2779   */\n  tag_33\n  jump\t// in\ntag_96:\n    /* \"#utility.yul\":2754:2779   */\n  swap2\n  pop\n    /* \"#utility.yul\":2793:2813   */\n  tag_97\n    /* \"#utility.yul\":2811:2812   */\n  dup4\n    /* \"#utility.yul\":2793:2813   */\n  tag_33\n  jump\t// in\ntag_97:\n    /* \"#utility.yul\":2788:2813   */\n  swap3\n  pop\n    /* \"#utility.yul\":2848:2849   */\n  dup3\n    /* \"#utility.yul\":2845:2846   */\n  dup3\n    /* \"#utility.yul\":2841:2850   */\n  mul\n    /* \"#utility.yul\":2870:2900   */\n  tag_98\n    /* \"#utility.yul\":2888:2899   */\n  dup2\n    /* \"#utility.yul\":2870:2900   */\n  tag_33\n  jump\t// in\ntag_98:\n    /* \"#utility.yul\":2859:2900   */\n  swap2\n  pop\n    /* \"#utility.yul\":3049:3050   */\n  dup3\n    /* \"#utility.yul\":3040:3047   */\n  dup3\n    /* \"#utility.yul\":3036:3051   */\n  div\n    /* \"#utility.yul\":3033:3034   */\n  dup5\n    /* \"#utility.yul\":3030:3052   */\n  eq\n    /* \"#utility.yul\":3010:3011   */\n  dup4\n    /* \"#utility.yul\":3003:3012   */\n  iszero\n    /* \"#utility.yul\":2983:3066   */\n  or\n    /* \"#utility.yul\":2960:3099   */\n  tag_99\n  jumpi\n    /* \"#utility.yul\":3079:3097   */\n  tag_100\n  tag_29\n  jump\t// in\ntag_100:\n    /* \"#utility.yul\":2960:3099   */\ntag_99:\n    /* \"#utility.yul\":2744:3106   */\n  pop\n    /* \"#utility.yul\":2696:3106   */\n  swap3\n  swap2\n  pop\n  pop\n  jump\t// out\n    /* \"#utility.yul\":3112:3292   */\ntag_35:\n    /* \"#utility.yul\":3160:3237   */\n  0x4e487b7100000000000000000000000000000000000000000000000000000000\n    /* \"#utility.yul\":3157:3158   */\n  0x00\n    /* \"#utility.yul\":3150:3238   */\n  mstore\n    /* \"#utility.yul\":3257:3261   */\n  0x12\n    /* \"#utility.yul\":3254:3255   */\n  0x04\n    /* \"#utility.yul\":3247:3262   */\n  mstore\n    /* \"#utility.yul\":3281:3285   */\n  0x24\n    /* \"#utility.yul\":3278:3279   */\n  0x00\n    /* \"#utility.yul\":3271:3286   */\n  revert\n    /* \"#utility.yul\":3298:3483   */\ntag_8:\n    /* \"#utility.yul\":3338:3339   */\n  0x00\n    /* \"#utility.yul\":3355:3375   */\n  tag_103\n    /* \"#utility.yul\":3373:3374   */\n  dup3\n    /* \"#utility.yul\":3355:3375   */\n  tag_33\n  jump\t// in\ntag_103:\n    /* \"#utility.yul\":3350:3375   */\n  swap2\n  pop\n    /* \"#utility.yul\":3389:3409   */\n  tag_104\n    /* \"#utility.yul\":3407:3408   */\n  dup4\n    /* \"#utility.yul\":3389:3409   */\n  tag_33\n  jump\t// in\ntag_104:\n    /* \"#utility.yul\":3384:3409   */\n  swap3\n  pop\n    /* \"#utility.yul\":3428:3429   */\n  dup3\n    /* \"#utility.yul\":3418:3453   */\n  tag_105\n  jumpi\n    /* \"#utility.yul\":3433:3451   */\n  tag_106\n  tag_35\n  jump\t// in\ntag_106:\n    /* \"#utility.yul\":3418:3453   */\ntag_105:\n    /* \"#utility.yul\":3475:3476   */\n  dup3\n    /* \"#utility.yul\":3472:3473   */\n  dup3\n    /* \"#utility.yul\":3468:3477   */\n  div\n    /* \"#utility.yul\":3463:3477   */\n  swap1\n  pop\n    /* \"#utility.yul\":3298:3483   */\n  swap3\n  swap2\n  pop\n  pop\n  jump\t// out\n    /* \"#utility.yul\":3570:3687   */\ntag_37:\n    /* \"#utility.yul\":3679:3680   */\n  0x00\n    /* \"#utility.yul\":3676:3677   */\n  dup1\n    /* \"#utility.yul\":3669:3681   */\n  revert\n    /* \"#utility.yul\":3816:3942   */\ntag_39:\n    /* \"#utility.yul\":3853:3860   */\n  0x00\n    /* \"#utility.yul\":3893:3935   */\n  0xffffffffffffffffffffffffffffffffffffffff\n    /* \"#utility.yul\":3886:3891   */\n  dup3\n    /* \"#utility.yul\":3882:3936   */\n  and\n    /* \"#utility.yul\":3871:3936   */\n  swap1\n  pop\n    /* \"#utility.yul\":3816:3942   */\n  swap2\n  swap1\n  pop\n  jump\t// out\n    /* \"#utility.yul\":3948:4044   */\ntag_40:\n    /* \"#utility.yul\":3985:3992   */\n  0x00\n    /* \"#utility.yul\":4014:4038   */\n  tag_112\n    /* \"#utility.yul\":4032:4037   */\n  dup3\n    /* \"#utility.yul\":4014:4038   */\n  tag_39\n  jump\t// in\ntag_112:\n    /* \"#utility.yul\":4003:4038   */\n  swap1\n  pop\n    /* \"#utility.yul\":3948:4044   */\n  swap2\n  swap1\n  pop\n  jump\t// out\n    /* \"#utility.yul\":4050:4172   */\ntag_41:\n    /* \"#utility.yul\":4123:4147   */\n  tag_114\n    /* \"#utility.yul\":4141:4146   */\n  dup2\n    /* \"#utility.yul\":4123:4147   */\n  tag_40\n  jump\t// in\ntag_114:\n    /* \"#utility.yul\":4116:4121   */\n  dup2\n    /* \"#utility.yul\":4113:4148   */\n  eq\n    /* \"#utility.yul\":4103:4166   */\n  tag_115\n  jumpi\n    /* \"#utility.yul\":4162:4163   */\n  0x00\n    /* \"#utility.yul\":4159:4160   */\n  dup1\n    /* \"#utility.yul\":4152:4164   */\n  revert\n    /* \"#utility.yul\":4103:4166   */\ntag_115:\n    /* \"#utility.yul\":4050:4172   */\n  pop\n  jump\t// out\n    /* \"#utility.yul\":4178:4321   */\ntag_42:\n    /* \"#utility.yul\":4235:4240   */\n  0x00\n    /* \"#utility.yul\":4266:4272   */\n  dup2\n    /* \"#utility.yul\":4260:4273   */\n  mload\n    /* \"#utility.yul\":4251:4273   */\n  swap1\n  pop\n    /* \"#utility.yul\":4282:4315   */\n  tag_117\n    /* \"#utility.yul\":4309:4314   */\n  dup2\n    /* \"#utility.yul\":4282:4315   */\n  tag_41\n  jump\t// in\ntag_117:\n    /* \"#utility.yul\":4178:4321   */\n  swap3\n  swap2\n  pop\n  pop\n  jump\t// out\n    /* \"#utility.yul\":4327:4678   */\ntag_11:\n    /* \"#utility.yul\":4397:4403   */\n  0x00\n    /* \"#utility.yul\":4446:4448   */\n  0x20\n    /* \"#utility.yul\":4434:4443   */\n  dup3\n    /* \"#utility.yul\":4425:4432   */\n  dup5\n    /* \"#utility.yul\":4421:4444   */\n  sub\n    /* \"#utility.yul\":4417:4449   */\n  slt\n    /* \"#utility.yul\":4414:4533   */\n  iszero\n  tag_119\n  jumpi\n    /* \"#utility.yul\":4452:4531   */\n  tag_120\n  tag_37\n  jump\t// in\ntag_120:\n    /* \"#utility.yul\":4414:4533   */\ntag_119:\n    /* \"#utility.yul\":4572:4573   */\n  0x00\n    /* \"#utility.yul\":4597:4661   */\n  tag_121\n    /* \"#utility.yul\":4653:4660   */\n  dup5\n    /* \"#utility.yul\":4644:4650   */\n  dup3\n    /* \"#utility.yul\":4633:4642   */\n  dup6\n    /* \"#utility.yul\":4629:4651   */\n  add\n    /* \"#utility.yul\":4597:4661   */\n  tag_42\n  jump\t// in\ntag_121:\n    /* \"#utility.yul\":4587:4661   */\n  swap2\n  pop\n    /* \"#utility.yul\":4543:4671   */\n  pop\n    /* \"#utility.yul\":4327:4678   */\n  swap3\n  swap2\n  pop\n  pop\n  jump\t// out\n    /* \"#utility.yul\":4684:4783   */\ntag_43:\n    /* \"#utility.yul\":4736:4742   */\n  0x00\n    /* \"#utility.yul\":4770:4775   */\n  dup2\n    /* \"#utility.yul\":4764:4776   */\n  mload\n    /* \"#utility.yul\":4754:4776   */\n  swap1\n  pop\n    /* \"#utility.yul\":4684:4783   */\n  swap2\n  swap1\n  pop\n  jump\t// out\n    /* \"#utility.yul\":4789:4969   */\ntag_44:\n    /* \"#utility.yul\":4837:4914   */\n  0x4e487b7100000000000000000000000000000000000000000000000000000000\n    /* \"#utility.yul\":4834:4835   */\n  0x00\n    /* \"#utility.yul\":4827:4915   */\n  mstore\n    /* \"#utility.yul\":4934:4938   */\n  0x41\n    /* \"#utility.yul\":4931:4932   */\n  0x04\n    /* \"#utility.yul\":4924:4939   */\n  mstore\n    /* \"#utility.yul\":4958:4962   */\n  0x24\n    /* \"#utility.yul\":4955:4956   */\n  0x00\n    /* \"#utility.yul\":4948:4963   */\n  revert\n    /* \"#utility.yul\":4975:5155   */\ntag_45:\n    /* \"#utility.yul\":5023:5100   */\n  0x4e487b7100000000000000000000000000000000000000000000000000000000\n    /* \"#utility.yul\":5020:5021   */\n  0x00\n    /* \"#utility.yul\":5013:5101   */\n  mstore\n    /* \"#utility.yul\":5120:5124   */\n  0x22\n    /* \"#utility.yul\":5117:5118   */\n  0x04\n    /* \"#utility.yul\":5110:5125   */\n  mstore\n    /* \"#utility.yul\":5144:5148   */\n  0x24\n    /* \"#utility.yul\":5141:5142   */\n  0x00\n    /* \"#utility.yul\":5134:5149   */\n  revert\n    /* \"#utility.yul\":5161:5481   */\ntag_46:\n    /* \"#utility.yul\":5205:5211   */\n  0x00\n    /* \"#utility.yul\":5242:5243   */\n  0x02\n    /* \"#utility.yul\":5236:5240   */\n  dup3\n    /* \"#utility.yul\":5232:5244   */\n  div\n    /* \"#utility.yul\":5222:5244   */\n  swap1\n  pop\n    /* \"#utility.yul\":5289:5290   */\n  0x01\n    /* \"#utility.yul\":5283:5287   */\n  dup3\n    /* \"#utility.yul\":5279:5291   */\n  and\n    /* \"#utility.yul\":5310:5328   */\n  dup1\n    /* \"#utility.yul\":5300:5381   */\n  tag_126\n  jumpi\n    /* \"#utility.yul\":5366:5370   */\n  0x7f\n    /* \"#utility.yul\":5358:5364   */\n  dup3\n    /* \"#utility.yul\":5354:5371   */\n  and\n    /* \"#utility.yul\":5344:5371   */\n  swap2\n  pop\n    /* \"#utility.yul\":5300:5381   */\ntag_126:\n    /* \"#utility.yul\":5428:5430   */\n  0x20\n    /* \"#utility.yul\":5420:5426   */\n  dup3\n    /* \"#utility.yul\":5417:5431   */\n  lt\n    /* \"#utility.yul\":5397:5415   */\n  dup2\n    /* \"#utility.yul\":5394:5432   */\n  sub\n    /* \"#utility.yul\":5391:5475   */\n  tag_127\n  jumpi\n    /* \"#utility.yul\":5447:5465   */\n  tag_128\n  tag_45\n  jump\t// in\ntag_128:\n    /* \"#utility.yul\":5391:5475   */\ntag_127:\n    /* \"#utility.yul\":5212:5481   */\n  pop\n    /* \"#utility.yul\":5161:5481   */\n  swap2\n  swap1\n  pop\n  jump\t// out\n    /* \"#utility.yul\":5487:5628   */\ntag_47:\n    /* \"#utility.yul\":5536:5540   */\n  0x00\n    /* \"#utility.yul\":5559:5562   */\n  dup2\n    /* \"#utility.yul\":5551:5562   */\n  swap1\n  pop\n    /* \"#utility.yul\":5582:5585   */\n  dup2\n    /* \"#utility.yul\":5579:5580   */\n  0x00\n    /* \"#utility.yul\":5572:5586   */\n  mstore\n    /* \"#utility.yul\":5616:5620   */\n  0x20\n    /* \"#utility.yul\":5613:5614   */\n  0x00\n    /* \"#utility.yul\":5603:5621   */\n  keccak256\n    /* \"#utility.yul\":5595:5621   */\n  swap1\n  pop\n    /* \"#utility.yul\":5487:5628   */\n  swap2\n  swap1\n  pop\n  jump\t// out\n    /* \"#utility.yul\":5634:5727   */\ntag_48:\n    /* \"#utility.yul\":5671:5677   */\n  0x00\n    /* \"#utility.yul\":5718:5720   */\n  0x20\n    /* \"#utility.yul\":5713:5715   */\n  0x1f\n    /* \"#utility.yul\":5706:5711   */\n  dup4\n    /* \"#utility.yul\":5702:5716   */\n  add\n    /* \"#utility.yul\":5698:5721   */\n  div\n    /* \"#utility.yul\":5688:5721   */\n  swap1\n  pop\n    /* \"#utility.yul\":5634:5727   */\n  swap2\n  swap1\n  pop\n  jump\t// out\n    /* \"#utility.yul\":5733:5840   */\ntag_49:\n    /* \"#utility.yul\":5777:5785   */\n  0x00\n    /* \"#utility.yul\":5827:5832   */\n  dup3\n    /* \"#utility.yul\":5821:5825   */\n  dup3\n    /* \"#utility.yul\":5817:5833   */\n  shl\n    /* \"#utility.yul\":5796:5833   */\n  swap1\n  pop\n    /* \"#utility.yul\":5733:5840   */\n  swap3\n  swap2\n  pop\n  pop\n  jump\t// out\n    /* \"#utility.yul\":5846:6239   */\ntag_50:\n    /* \"#utility.yul\":5915:5921   */\n  0x00\n    /* \"#utility.yul\":5965:5966   */\n  0x08\n    /* \"#utility.yul\":5953:5963   */\n  dup4\n    /* \"#utility.yul\":5949:5967   */\n  mul\n    /* \"#utility.yul\":5988:6085   */\n  tag_133\n    /* \"#utility.yul\":6018:6084   */\n  0xffffffffffffffffffffffffffffffffffffffffffffffffffffffffffffffff\n    /* \"#utility.yul\":6007:6016   */\n  dup3\n    /* \"#utility.yul\":5988:6085   */\n  tag_49\n  jump\t// in\ntag_133:\n    /* \"#utility.yul\":6106:6145   */\n  tag_134\n    /* \"#utility.yul\":6136:6144   */\n  dup7\n    /* \"#utility.yul\":6125:6134   */\n  dup4\n    /* \"#utility.yul\":6106:6145   */\n  tag_49\n  jump\t// in\ntag_134:\n    /* \"#utility.yul\":6094:6145   */\n  swap6\n  pop\n    /* \"#utility.yul\":6178:6182   */\n  dup1\n    /* \"#utility.yul\":6174:6183   */\n  not\n    /* \"#utility.yul\":6167:6172   */\n  dup5\n    /* \"#utility.yul\":6163:6184   */\n  and\n    /* \"#utility.yul\":6154:6184   */\n  swap4\n  pop\n    /* \"#utility.yul\":6227:6231   */\n  dup1\n    /* \"#utility.yul\":6217:6225   */\n  dup7\n    /* \"#utility.yul\":6213:6232   */\n  and\n    /* \"#utility.yul\":6206:6211   */\n  dup5\n    /* \"#utility.yul\":6203:6233   */\n  or\n    /* \"#utility.yul\":6193:6233   */\n  swap3\n  pop\n    /* \"#utility.yul\":5922:6239   */\n  pop\n  pop\n    /* \"#utility.yul\":5846:6239   */\n  swap4\n  swap3\n  pop\n  pop\n  pop\n  jump\t// out\n    /* \"#utility.yul\":6245:6305   */\ntag_51:\n    /* \"#utility.yul\":6273:6276   */\n  0x00\n    /* \"#utility.yul\":6294:6299   */\n  dup2\n    /* \"#utility.yul\":6287:6299   */\n  swap1\n  pop\n    /* \"#utility.yul\":6245:6305   */\n  swap2\n  swap1\n  pop\n  jump\t// out\n    /* \"#utility.yul\":6311:6453   */\ntag_52:\n    /* \"#utility.yul\":6361:6370   */\n  0x00\n    /* \"#utility.yul\":6394:6447   */\n  tag_137\n    /* \"#utility.yul\":6412:6446   */\n  tag_138\n    /* \"#utility.yul\":6421:6445   */\n  tag_139\n    /* \"#utility.yul\":6439:6444   */\n  dup5\n    /* \"#utility.yul\":6421:6445   */\n  tag_33\n  jump\t// in\ntag_139:\n    /* \"#utility.yul\":6412:6446   */\n  tag_51\n  jump\t// in\ntag_138:\n    /* \"#utility.yul\":6394:6447   */\n  tag_33\n  jump\t// in\ntag_137:\n    /* \"#utility.yul\":6381:6447   */\n  swap1\n  pop\n    /* \"#utility.yul\":6311:6453   */\n  swap2\n  swap1\n  pop\n  jump\t// out\n    /* \"#utility.yul\":6459:6534   */\ntag_53:\n    /* \"#utility.yul\":6502:6505   */\n  0x00\n    /* \"#utility.yul\":6523:6528   */\n  dup2\n    /* \"#utility.yul\":6516:6528   */\n  swap1\n  pop\n    /* \"#utility.yul\":6459:6534   */\n  swap2\n  swap1\n  pop\n  jump\t// out\n    /* \"#utility.yul\":6540:6809   */\ntag_54:\n    /* \"#utility.yul\":6650:6689   */\n  tag_142\n    /* \"#utility.yul\":6681:6688   */\n  dup4\n    /* \"#utility.yul\":6650:6689   */\n  tag_52\n  jump\t// in\ntag_142:\n    /* \"#utility.yul\":6711:6802   */\n  tag_143\n    /* \"#utility.yul\":6760:6801   */\n  tag_144\n    /* \"#utility.yul\":6784:6800   */\n  dup3\n    /* \"#utility.yul\":6760:6801   */\n  tag_53\n  jump\t// in\ntag_144:\n    /* \"#utility.yul\":6752:6758   */\n  dup5\n    /* \"#utility.yul\":6745:6749   */\n  dup5\n    /* \"#utility.yul\":6739:6750   */\n  sload\n    /* \"#utility.yul\":6711:6802   */\n  tag_50\n  jump\t// in\ntag_143:\n    /* \"#utility.yul\":6705:6709   */\n  dup3\n    /* \"#utility.yul\":6698:6803   */\n  sstore\n    /* \"#utility.yul\":6616:6809   */\n  pop\n    /* \"#utility.yul\":6540:6809   */\n  pop\n  pop\n  pop\n  jump\t// out\n    /* \"#utility.yul\":6815:6888   */\ntag_55:\n    /* \"#utility.yul\":6860:6863   */\n  0x00\n    /* \"#utility.yul\":6815:6888   */\n  swap1\n  jump\t// out\n    /* \"#utility.yul\":6894:7083   */\ntag_56:\n    /* \"#utility.yul\":6971:7003   */\n  tag_147\n  tag_55\n  jump\t// in\ntag_147:\n    /* \"#utility.yul\":7012:7077   */\n  tag_148\n    /* \"#utility.yul\":7070:7076   */\n  dup2\n    /* \"#utility.yul\":7062:7068   */\n  dup5\n    /* \"#utility.yul\":7056:7060   */\n  dup5\n    /* \"#utility.yul\":7012:7077   */\n  tag_54\n  jump\t// in\ntag_148:\n    /* \"#utility.yul\":6947:7083   */\n  pop\n    /* \"#utility.yul\":6894:7083   */\n  pop\n  pop\n  jump\t// out\n    /* \"#utility.yul\":7089:7275   */\ntag_57:\n    /* \"#utility.yul\":7149:7269   */\ntag_150:\n    /* \"#utility.yul\":7166:7169   */\n  dup2\n    /* \"#utility.yul\":7159:7164   */\n  dup2\n    /* \"#utility.yul\":7156:7170   */\n  lt\n    /* \"#utility.yul\":7149:7269   */\n  iszero\n  tag_152\n  jumpi\n    /* \"#utility.yul\":7220:7259   */\n  tag_153\n    /* \"#utility.yul\":7257:7258   */\n  0x00\n    /* \"#utility.yul\":7250:7255   */\n  dup3\n    /* \"#utility.yul\":7220:7259   */\n  tag_56\n  jump\t// in\ntag_153:\n    /* \"#utility.yul\":7193:7194   */\n  0x01\n    /* \"#utility.yul\":7186:7191   */\n  dup2\n    /* \"#utility.yul\":7182:7195   */\n  add\n    /* \"#utility.yul\":7173:7195   */\n  swap1\n  pop\n    /* \"#utility.yul\":7149:7269   */\n  jump(tag_150)\ntag_152:\n    /* \"#utility.yul\":7089:7275   */\n  pop\n  pop\n  jump\t// out\n    /* \"#utility.yul\":7281:7824   */\ntag_58:\n    /* \"#utility.yul\":7382:7384   */\n  0x1f\n    /* \"#utility.yul\":7377:7380   */\n  dup3\n    /* \"#utility.yul\":7374:7385   */\n  gt\n    /* \"#utility.yul\":7371:7817   */\n  iszero\n  tag_155\n  jumpi\n    /* \"#utility.yul\":7416:7454   */\n  tag_156\n    /* \"#utility.yul\":7448:7453   */\n  dup2\n    /* \"#utility.yul\":7416:7454   */\n  tag_47\n  jump\t// in\ntag_156:\n    /* \"#utility.yul\":7500:7529   */\n  tag_157\n    /* \"#utility.yul\":7518:7528   */\n  dup5\n    /* \"#utility.yul\":7500:7529   */\n  tag_48\n  jump\t// in\ntag_157:\n    /* \"#utility.yul\":7490:7498   */\n  dup2\n    /* \"#utility.yul\":7486:7530   */\n  add\n    /* \"#utility.yul\":7683:7685   */\n  0x20\n    /* \"#utility.yul\":7671:7681   */\n  dup6\n    /* \"#utility.yul\":7668:7686   */\n  lt\n    /* \"#utility.yul\":7665:7714   */\n  iszero\n  tag_158\n  jumpi\n    /* \"#utility.yul\":7704:7712   */\n  dup2\n    /* \"#utility.yul\":7689:7712   */\n  swap1\n  pop\n    /* \"#utility.yul\":7665:7714   */\ntag_158:\n    /* \"#utility.yul\":7727:7807   */\n  tag_159\n    /* \"#utility.yul\":7783:7805   */\n  tag_160\n    /* \"#utility.yul\":7801:7804   */\n  dup6\n    /* \"#utility.yul\":7783:7805   */\n  tag_48\n  jump\t// in\ntag_160:\n    /* \"#utility.yul\":7773:7781   */\n  dup4\n    /* \"#utility.yul\":7769:7806   */\n  add\n    /* \"#utility.yul\":7756:7767   */\n  dup3\n    /* \"#utility.yul\":7727:7807   */\n  tag_57\n  jump\t// in\ntag_159:\n    /* \"#utility.yul\":7386:7817   */\n  pop\n  pop\n    /* \"#utility.yul\":7371:7817   */\ntag_155:\n    /* \"#utility.yul\":7281:7824   */\n  pop\n  pop\n  pop\n  jump\t// out\n    /* \"#utility.yul\":7830:7947   */\ntag_59:\n    /* \"#utility.yul\":7884:7892   */\n  0x00\n    /* \"#utility.yul\":7934:7939   */\n  dup3\n    /* \"#utility.yul\":7928:7932   */\n  dup3\n    /* \"#utility.yul\":7924:7940   */\n  shr\n    /* \"#utility.yul\":7903:7940   */\n  swap1\n  pop\n    /* \"#utility.yul\":7830:7947   */\n  swap3\n  swap2\n  pop\n  pop\n  jump\t// out\n    /* \"#utility.yul\":7953:8122   */\ntag_60:\n    /* \"#utility.yul\":7997:8003   */\n  0x00\n    /* \"#utility.yul\":8030:8081   */\n  tag_163\n    /* \"#utility.yul\":8078:8079   */\n  0x00\n    /* \"#utility.yul\":8074:8080   */\n  not\n    /* \"#utility.yul\":8066:8071   */\n  dup5\n    /* \"#utility.yul\":8063:8064   */\n  0x08\n    /* \"#utility.yul\":8059:8072   */\n  mul\n    /* \"#utility.yul\":8030:8081   */\n  tag_59\n  jump\t// in\ntag_163:\n    /* \"#utility.yul\":8026:8082   */\n  not\n    /* \"#utility.yul\":8111:8115   */\n  dup1\n    /* \"#utility.yul\":8105:8109   */\n  dup4\n    /* \"#utility.yul\":8101:8116   */\n  and\n    /* \"#utility.yul\":8091:8116   */\n  swap2\n  pop\n    /* \"#utility.yul\":8004:8122   */\n  pop\n    /* \"#utility.yul\":7953:8122   */\n  swap3\n  swap2\n  pop\n  pop\n  jump\t// out\n    /* \"#utility.yul\":8127:8422   */\ntag_61:\n    /* \"#utility.yul\":8203:8207   */\n  0x00\n    /* \"#utility.yul\":8349:8378   */\n  tag_165\n    /* \"#utility.yul\":8374:8377   */\n  dup4\n    /* \"#utility.yul\":8368:8372   */\n  dup4\n    /* \"#utility.yul\":8349:8378   */\n  tag_60\n  jump\t// in\ntag_165:\n    /* \"#utility.yul\":8341:8378   */\n  swap2\n  pop\n    /* \"#utility.yul\":8411:8414   */\n  dup3\n    /* \"#utility.yul\":8408:8409   */\n  0x02\n    /* \"#utility.yul\":8404:8415   */\n  mul\n    /* \"#utility.yul\":8398:8402   */\n  dup3\n    /* \"#utility.yul\":8395:8416   */\n  or\n    /* \"#utility.yul\":8387:8416   */\n  swap1\n  pop\n    /* \"#utility.yul\":8127:8422   */\n  swap3\n  swap2\n  pop\n  pop\n  jump\t// out\n    /* \"#utility.yul\":8427:9822   */\ntag_17:\n    /* \"#utility.yul\":8544:8581   */\n  tag_167\n    /* \"#utility.yul\":8577:8580   */\n  dup3\n    /* \"#utility.yul\":8544:8581   */\n  tag_43\n  jump\t// in\ntag_167:\n    /* \"#utility.yul\":8646:8664   */\n  0xffffffffffffffff\n    /* \"#utility.yul\":8638:8644   */\n  dup2\n    /* \"#utility.yul\":8635:8665   */\n  gt\n    /* \"#utility.yul\":8632:8688   */\n  iszero\n  tag_168\n  jumpi\n    /* \"#utility.yul\":8668:8686   */\n  tag_169\n  tag_44\n  jump\t// in\ntag_169:\n    /* \"#utility.yul\":8632:8688   */\ntag_168:\n    /* \"#utility.yul\":8712:8750   */\n  tag_170\n    /* \"#utility.yul\":8744:8748   */\n  dup3\n    /* \"#utility.yul\":8738:8749   */\n  sload\n    /* \"#utility.yul\":8712:8750   */\n  tag_46\n  jump\t// in\ntag_170:\n    /* \"#utility.yul\":8797:8864   */\n  tag_171\n    /* \"#utility.yul\":8857:8863   */\n  dup3\n    /* \"#utility.yul\":8849:8855   */\n  dup3\n    /* \"#utility.yul\":8843:8847   */\n  dup6\n    /* \"#utility.yul\":8797:8864   */\n  tag_58\n  jump\t// in\ntag_171:\n    /* \"#utility.yul\":8891:8892   */\n  0x00\n    /* \"#utility.yul\":8915:8919   */\n  0x20\n    /* \"#utility.yul\":8902:8919   */\n  swap1\n  pop\n    /* \"#utility.yul\":8947:8949   */\n  0x1f\n    /* \"#utility.yul\":8939:8945   */\n  dup4\n    /* \"#utility.yul\":8936:8950   */\n  gt\n    /* \"#utility.yul\":8964:8965   */\n  0x01\n    /* \"#utility.yul\":8959:9577   */\n  dup2\n  eq\n  tag_173\n  jumpi\n    /* \"#utility.yul\":9621:9622   */\n  0x00\n    /* \"#utility.yul\":9638:9644   */\n  dup5\n    /* \"#utility.yul\":9635:9712   */\n  iszero\n  tag_174\n  jumpi\n    /* \"#utility.yul\":9687:9696   */\n  dup3\n    /* \"#utility.yul\":9682:9685   */\n  dup8\n    /* \"#utility.yul\":9678:9697   */\n  add\n    /* \"#utility.yul\":9672:9698   */\n  mload\n    /* \"#utility.yul\":9663:9698   */\n  swap1\n  pop\n    /* \"#utility.yul\":9635:9712   */\ntag_174:\n    /* \"#utility.yul\":9738:9805   */\n  tag_175\n    /* \"#utility.yul\":9798:9804   */\n  dup6\n    /* \"#utility.yul\":9791:9796   */\n  dup3\n    /* \"#utility.yul\":9738:9805   */\n  tag_61\n  jump\t// in\ntag_175:\n    /* \"#utility.yul\":9732:9736   */\n  dup7\n    /* \"#utility.yul\":9725:9806   */\n  sstore\n    /* \"#utility.yul\":9594:9816   */\n  pop\n    /* \"#utility.yul\":8929:9816   */\n  jump(tag_172)\n    /* \"#utility.yul\":8959:9577   */\ntag_173:\n    /* \"#utility.yul\":9011:9015   */\n  0x1f\n    /* \"#utility.yul\":9007:9016   */\n  not\n    /* \"#utility.yul\":8999:9005   */\n  dup5\n    /* \"#utility.yul\":8995:9017   */\n  and\n    /* \"#utility.yul\":9045:9082   */\n  tag_176\n    /* \"#utility.yul\":9077:9081   */\n  dup7\n    /* \"#utility.yul\":9045:9082   */\n  tag_47\n  jump\t// in\ntag_176:\n    /* \"#utility.yul\":9104:9105   */\n  0x00\n    /* \"#utility.yul\":9118:9326   */\ntag_177:\n    /* \"#utility.yul\":9132:9139   */\n  dup3\n    /* \"#utility.yul\":9129:9130   */\n  dup2\n    /* \"#utility.yul\":9126:9140   */\n  lt\n    /* \"#utility.yul\":9118:9326   */\n  iszero\n  tag_179\n  jumpi\n    /* \"#utility.yul\":9211:9220   */\n  dup5\n    /* \"#utility.yul\":9206:9209   */\n  dup10\n    /* \"#utility.yul\":9202:9221   */\n  add\n    /* \"#utility.yul\":9196:9222   */\n  mload\n    /* \"#utility.yul\":9188:9194   */\n  dup3\n    /* \"#utility.yul\":9181:9223   */\n  sstore\n    /* \"#utility.yul\":9262:9263   */\n  0x01\n    /* \"#utility.yul\":9254:9260   */\n  dup3\n    /* \"#utility.yul\":9250:9264   */\n  add\n    /* \"#utility.yul\":9240:9264   */\n  swap2\n  pop\n    /* \"#utility.yul\":9309:9311   */\n  0x20\n    /* \"#utility.yul\":9298:9307   */\n  dup6\n    /* \"#utility.yul\":9294:9312   */\n  add\n    /* \"#utility.yul\":9281:9312   */\n  swap5\n  pop\n    /* \"#utility.yul\":9155:9159   */\n  0x20\n    /* \"#utility.yul\":9152:9153   */\n  dup2\n    /* \"#utility.yul\":9148:9160   */\n  add\n    /* \"#utility.yul\":9143:9160   */\n  swap1\n  pop\n    /* \"#utility.yul\":9118:9326   */\n  jump(tag_177)\ntag_179:\n    /* \"#utility.yul\":9354:9360   */\n  dup7\n    /* \"#utility.yul\":9345:9352   */\n  dup4\n    /* \"#utility.yul\":9342:9361   */\n  lt\n    /* \"#utility.yul\":9339:9518   */\n  iszero\n  tag_180\n  jumpi\n    /* \"#utility.yul\":9412:9421   */\n  dup5\n    /* \"#utility.yul\":9407:9410   */\n  dup10\n    /* \"#utility.yul\":9403:9422   */\n  add\n    /* \"#utility.yul\":9397:9423   */\n  mload\n    /* \"#utility.yul\":9455:9503   */\n  tag_181\n    /* \"#utility.yul\":9497:9501   */\n  0x1f\n    /* \"#utility.yul\":9489:9495   */\n  dup10\n    /* \"#utility.yul\":9485:9502   */\n  and\n    /* \"#utility.yul\":9474:9483   */\n  dup3\n    /* \"#utility.yul\":9455:9503   */\n  tag_60\n  jump\t// in\ntag_181:\n    /* \"#utility.yul\":9447:9453   */\n  dup4\n    /* \"#utility.yul\":9440:9504   */\n  sstore\n    /* \"#utility.yul\":9362:9518   */\n  pop\n    /* \"#utility.yul\":9339:9518   */\ntag_180:\n    /* \"#utility.yul\":9564:9565   */\n  0x01\n    /* \"#utility.yul\":9560:9561   */\n  0x02\n    /* \"#utility.yul\":9552:9558   */\n  dup9\n    /* \"#utility.yul\":9548:9562   */\n  mul\n    /* \"#utility.yul\":9544:9566   */\n  add\n    /* \"#utility.yul\":9538:9542   */\n  dup9\n    /* \"#utility.yul\":9531:9567   */\n  sstore\n    /* \"#utility.yul\":8966:9577   */\n  pop\n  pop\n  pop\n    /* \"#utility.yul\":8929:9816   */\ntag_172:\n  pop\n    /* \"#utility.yul\":8519:9822   */\n  pop\n  pop\n  pop\n    /* \"#utility.yul\":8427:9822   */\n  pop\n  pop\n  jump\t// out\n    /* \"Staking.sol\":296:1606  contract MyToken is ERC20, ERC721Holder, Ownable {... */\ntag_25:\n  dataSize(sub_0)\n  dup1\n  dataOffset(sub_0)\n  0x00\n  codecopy\n  0x00\n  return\nstop\n\nsub_0: assembly {\n        /* \"Staking.sol\":296:1606  contract MyToken is ERC20, ERC721Holder, Ownable {... */\n      mstore(0x40, 0x80)\n      callvalue\n      dup1\n      iszero\n      tag_1\n      jumpi\n      0x00\n      dup1\n      revert\n    tag_1:\n      pop\n      jumpi(tag_2, lt(calldatasize, 0x04))\n      shr(0xe0, calldataload(0x00))\n      dup1\n      0x47f07a8e\n      gt\n      tag_26\n      jumpi\n      dup1\n      0x95d89b41\n      gt\n      tag_27\n      jumpi\n      dup1\n      0x95d89b41\n      eq\n      tag_20\n      jumpi\n      dup1\n      0xa457c2d7\n      eq\n      tag_21\n      jumpi\n      dup1\n      0xa694fc3a\n      eq\n      tag_22\n      jumpi\n      dup1\n      0xa9059cbb\n      eq\n      tag_23\n      jumpi\n      dup1\n      0xdd62ed3e\n      eq\n      tag_24\n      jumpi\n      dup1\n      0xf2fde38b\n      eq\n      tag_25\n      jumpi\n      jump(tag_2)\n    tag_27:\n      dup1\n      0x47f07a8e\n      eq\n      tag_14\n      jumpi\n      dup1\n      0x70a08231\n      eq\n      tag_15\n      jumpi\n      dup1\n      0x715018a6\n      eq\n      tag_16\n      jumpi\n      dup1\n      0x71aa60fd\n      eq\n      tag_17\n      jumpi\n      dup1\n      0x89885a59\n      eq\n      tag_18\n      jumpi\n      dup1\n      0x8da5cb5b\n      eq\n      tag_19\n      jumpi\n      jump(tag_2)\n    tag_26:\n      dup1\n      0x23b872dd\n      gt\n      tag_28\n      jumpi\n      dup1\n      0x23b872dd\n      eq\n      tag_8\n      jumpi\n      dup1\n      0x24bf238c\n      eq\n      tag_9\n      jumpi\n      dup1\n      0x2e17de78\n      eq\n      tag_10\n      jumpi\n      dup1\n      0x313ce567\n      eq\n      tag_11\n      jumpi\n      dup1\n      0x39509351\n      eq\n      tag_12\n      jumpi\n      dup1\n      0x47ccca02\n      eq\n      tag_13\n      jumpi\n      jump(tag_2)\n    tag_28:\n      dup1\n      0x01b8199a\n      eq\n      tag_3\n      jumpi\n      dup1\n      0x06fdde03\n      eq\n      tag_4\n      jumpi\n      dup1\n      0x095ea7b3\n      eq\n      tag_5\n      jumpi\n      dup1\n      0x150b7a02\n      eq\n      tag_6\n      jumpi\n      dup1\n      0x18160ddd\n      eq\n      tag_7\n      jumpi\n    tag_2:\n      0x00\n      dup1\n      revert\n        /* \"Staking.sol\":482:545  uint256 public EMISSION_RATE = (50 * 10 ** decimals()) / 1 days */\n    tag_3:\n      tag_29\n      tag_30\n      jump\t// in\n    tag_29:\n      mload(0x40)\n      tag_31\n      swap2\n      swap1\n      tag_32\n      jump\t// in\n    tag_31:\n      mload(0x40)\n      dup1\n      swap2\n      sub\n      swap1\n      return\n        /* \"@openzeppelin/contracts/token/ERC20/ERC20.sol\":2158:2256  function name() public view virtual override returns (string memory) {... */\n    tag_4:\n      tag_33\n      tag_34\n      jump\t// in\n    tag_33:\n      mload(0x40)\n      tag_35\n      swap2\n      swap1\n      tag_36\n      jump\t// in\n    tag_35:\n      mload(0x40)\n      dup1\n      swap2\n      sub\n      swap1\n      return\n        /* \"@openzeppelin/contracts/token/ERC20/ERC20.sol\":4444:4641  function approve(address spender, uint256 amount) public virtual override returns (bool) {... */\n    tag_5:\n      tag_37\n      0x04\n      dup1\n      calldatasize\n      sub\n      dup2\n      add\n      swap1\n      tag_38\n      swap2\n      swap1\n      tag_39\n      jump\t// in\n    tag_38:\n      tag_40\n      jump\t// in\n    tag_37:\n      mload(0x40)\n      tag_41\n      swap2\n      swap1\n      tag_42\n      jump\t// in\n    tag_41:\n      mload(0x40)\n      dup1\n      swap2\n      sub\n      swap1\n      return\n        /* \"@openzeppelin/contracts/token/ERC721/utils/ERC721Holder.sol\":603:765  function onERC721Received(address, address, uint256, bytes memory) public virtual override returns (bytes4) {... */\n    tag_6:\n      tag_43\n      0x04\n      dup1\n      calldatasize\n      sub\n      dup2\n      add\n      swap1\n      tag_44\n      swap2\n      swap1\n      tag_45\n      jump\t// in\n    tag_44:\n      tag_46\n      jump\t// in\n    tag_43:\n      mload(0x40)\n      tag_47\n      swap2\n      swap1\n      tag_48\n      jump\t// in\n    tag_47:\n      mload(0x40)\n      dup1\n      swap2\n      sub\n      swap1\n      return\n        /* \"@openzeppelin/contracts/token/ERC20/ERC20.sol\":3255:3361  function totalSupply() public view virtual override returns (uint256) {... */\n    tag_7:\n      tag_49\n      tag_50\n      jump\t// in\n    tag_49:\n      mload(0x40)\n      tag_51\n      swap2\n      swap1\n      tag_32\n      jump\t// in\n    tag_51:\n      mload(0x40)\n      dup1\n      swap2\n      sub\n      swap1\n      return\n        /* \"@openzeppelin/contracts/token/ERC20/ERC20.sol\":5203:5459  function transferFrom(address from, address to, uint256 amount) public virtual override returns (bool) {... */\n    tag_8:\n      tag_52\n      0x04\n      dup1\n      calldatasize\n      sub\n      dup2\n      add\n      swap1\n      tag_53\n      swap2\n      swap1\n      tag_54\n      jump\t// in\n    tag_53:\n      tag_55\n      jump\t// in\n    tag_52:\n      mload(0x40)\n      tag_56\n      swap2\n      swap1\n      tag_42\n      jump\t// in\n    tag_56:\n      mload(0x40)\n      dup1\n      swap2\n      sub\n      swap1\n      return\n        /* \"Staking.sol\":428:476  mapping(uint256 => uint256) public tokenStakedAt */\n    tag_9:\n      tag_57\n      0x04\n      dup1\n      calldatasize\n      sub\n      dup2\n      add\n      swap1\n      tag_58\n      swap2\n      swap1\n      tag_59\n      jump\t// in\n    tag_58:\n      tag_60\n      jump\t// in\n    tag_57:\n      mload(0x40)\n      tag_61\n      swap2\n      swap1\n      tag_32\n      jump\t// in\n    tag_61:\n      mload(0x40)\n      dup1\n      swap2\n      sub\n      swap1\n      return\n        /* \"Staking.sol\":1059:1410  function unstake(uint256 tokenId) external {... */\n    tag_10:\n      tag_62\n      0x04\n      dup1\n      calldatasize\n      sub\n      dup2\n      add\n      swap1\n      tag_63\n      swap2\n      swap1\n      tag_59\n      jump\t// in\n    tag_63:\n      tag_64\n      jump\t// in\n    tag_62:\n      stop\n        /* \"@openzeppelin/contracts/token/ERC20/ERC20.sol\":3104:3195  function decimals() public view virtual override returns (uint8) {... */\n    tag_11:\n      tag_65\n      tag_66\n      jump\t// in\n    tag_65:\n      mload(0x40)\n      tag_67\n      swap2\n      swap1\n      tag_68\n      jump\t// in\n    tag_67:\n      mload(0x40)\n      dup1\n      swap2\n      sub\n      swap1\n      return\n        /* \"@openzeppelin/contracts/token/ERC20/ERC20.sol\":5854:6088  function increaseAllowance(address spender, uint256 addedValue) public virtual returns (bool) {... */\n    tag_12:\n      tag_69\n      0x04\n      dup1\n      calldatasize\n      sub\n      dup2\n      add\n      swap1\n      tag_70\n      swap2\n      swap1\n      tag_39\n      jump\t// in\n    tag_70:\n      tag_71\n      jump\t// in\n    tag_69:\n      mload(0x40)\n      tag_72\n      swap2\n      swap1\n      tag_42\n      jump\t// in\n    tag_72:\n      mload(0x40)\n      dup1\n      swap2\n      sub\n      swap1\n      return\n        /* \"Staking.sol\":351:369  IERC721 public nft */\n    tag_13:\n      tag_73\n      tag_74\n      jump\t// in\n    tag_73:\n      mload(0x40)\n      tag_75\n      swap2\n      swap1\n      tag_76\n      jump\t// in\n    tag_75:\n      mload(0x40)\n      dup1\n      swap2\n      sub\n      swap1\n      return\n        /* \"Staking.sol\":1415:1604  function transferBalanceToOwner() external {... */\n    tag_14:\n      tag_77\n      tag_78\n      jump\t// in\n    tag_77:\n      stop\n        /* \"@openzeppelin/contracts/token/ERC20/ERC20.sol\":3419:3544  function balanceOf(address account) public view virtual override returns (uint256) {... */\n    tag_15:\n      tag_79\n      0x04\n      dup1\n      calldatasize\n      sub\n      dup2\n      add\n      swap1\n      tag_80\n      swap2\n      swap1\n      tag_81\n      jump\t// in\n    tag_80:\n      tag_82\n      jump\t// in\n    tag_79:\n      mload(0x40)\n      tag_83\n      swap2\n      swap1\n      tag_32\n      jump\t// in\n    tag_83:\n      mload(0x40)\n      dup1\n      swap2\n      sub\n      swap1\n      return\n        /* \"@openzeppelin/contracts/access/Ownable.sol\":1824:1925  function renounceOwnership() public virtual onlyOwner {... */\n    tag_16:\n      tag_84\n      tag_85\n      jump\t// in\n    tag_84:\n      stop\n        /* \"Staking.sol\":858:1053  function calculateTokens(uint256 tokenId) public view returns (uint256) {... */\n    tag_17:\n      tag_86\n      0x04\n      dup1\n      calldatasize\n      sub\n      dup2\n      add\n      swap1\n      tag_87\n      swap2\n      swap1\n      tag_59\n      jump\t// in\n    tag_87:\n      tag_88\n      jump\t// in\n    tag_86:\n      mload(0x40)\n      tag_89\n      swap2\n      swap1\n      tag_32\n      jump\t// in\n    tag_89:\n      mload(0x40)\n      dup1\n      swap2\n      sub\n      swap1\n      return\n        /* \"Staking.sol\":375:422  mapping(uint256 => address) public tokenOwnerOf */\n    tag_18:\n      tag_90\n      0x04\n      dup1\n      calldatasize\n      sub\n      dup2\n      add\n      swap1\n      tag_91\n      swap2\n      swap1\n      tag_59\n      jump\t// in\n    tag_91:\n      tag_92\n      jump\t// in\n    tag_90:\n      mload(0x40)\n      tag_93\n      swap2\n      swap1\n      tag_94\n      jump\t// in\n    tag_93:\n      mload(0x40)\n      dup1\n      swap2\n      sub\n      swap1\n      return\n        /* \"@openzeppelin/contracts/access/Ownable.sol\":1201:1286  function owner() public view virtual returns (address) {... */\n    tag_19:\n      tag_95\n      tag_96\n      jump\t// in\n    tag_95:\n      mload(0x40)\n      tag_97\n      swap2\n      swap1\n      tag_94\n      jump\t// in\n    tag_97:\n      mload(0x40)\n      dup1\n      swap2\n      sub\n      swap1\n      return\n        /* \"@openzeppelin/contracts/token/ERC20/ERC20.sol\":2369:2471  function symbol() public view virtual override returns (string memory) {... */\n    tag_20:\n      tag_98\n      tag_99\n      jump\t// in\n    tag_98:\n      mload(0x40)\n      tag_100\n      swap2\n      swap1\n      tag_36\n      jump\t// in\n    tag_100:\n      mload(0x40)\n      dup1\n      swap2\n      sub\n      swap1\n      return\n        /* \"@openzeppelin/contracts/token/ERC20/ERC20.sol\":6575:7002  function decreaseAllowance(address spender, uint256 subtractedValue) public virtual returns (bool) {... */\n    tag_21:\n      tag_101\n      0x04\n      dup1\n      calldatasize\n      sub\n      dup2\n      add\n      swap1\n      tag_102\n      swap2\n      swap1\n      tag_39\n      jump\t// in\n    tag_102:\n      tag_103\n      jump\t// in\n    tag_101:\n      mload(0x40)\n      tag_104\n      swap2\n      swap1\n      tag_42\n      jump\t// in\n    tag_104:\n      mload(0x40)\n      dup1\n      swap2\n      sub\n      swap1\n      return\n        /* \"Staking.sol\":644:852  function stake(uint256 tokenId) external {... */\n    tag_22:\n      tag_105\n      0x04\n      dup1\n      calldatasize\n      sub\n      dup2\n      add\n      swap1\n      tag_106\n      swap2\n      swap1\n      tag_59\n      jump\t// in\n    tag_106:\n      tag_107\n      jump\t// in\n    tag_105:\n      stop\n        /* \"@openzeppelin/contracts/token/ERC20/ERC20.sol\":3740:3929  function transfer(address to, uint256 amount) public virtual override returns (bool) {... */\n    tag_23:\n      tag_108\n      0x04\n      dup1\n      calldatasize\n      sub\n      dup2\n      add\n      swap1\n      tag_109\n      swap2\n      swap1\n      tag_39\n      jump\t// in\n    tag_109:\n      tag_110\n      jump\t// in\n    tag_108:\n      mload(0x40)\n      tag_111\n      swap2\n      swap1\n      tag_42\n      jump\t// in\n    tag_111:\n      mload(0x40)\n      dup1\n      swap2\n      sub\n      swap1\n      return\n        /* \"@openzeppelin/contracts/token/ERC20/ERC20.sol\":3987:4136  function allowance(address owner, address spender) public view virtual override returns (uint256) {... */\n    tag_24:\n      tag_112\n      0x04\n      dup1\n      calldatasize\n      sub\n      dup2\n      add\n      swap1\n      tag_113\n      swap2\n      swap1\n      tag_114\n      jump\t// in\n    tag_113:\n      tag_115\n      jump\t// in\n    tag_112:\n      mload(0x40)\n      tag_116\n      swap2\n      swap1\n      tag_32\n      jump\t// in\n    tag_116:\n      mload(0x40)\n      dup1\n      swap2\n      sub\n      swap1\n      return\n        /* \"@openzeppelin/contracts/access/Ownable.sol\":2074:2272  function transferOwnership(address newOwner) public virtual onlyOwner {... */\n    tag_25:\n      tag_117\n      0x04\n      dup1\n      calldatasize\n      sub\n      dup2\n      add\n      swap1\n      tag_118\n      swap2\n      swap1\n      tag_81\n      jump\t// in\n    tag_118:\n      tag_119\n      jump\t// in\n    tag_117:\n      stop\n        /* \"Staking.sol\":482:545  uint256 public EMISSION_RATE = (50 * 10 ** decimals()) / 1 days */\n    tag_30:\n      sload(0x09)\n      dup2\n      jump\t// out\n        /* \"@openzeppelin/contracts/token/ERC20/ERC20.sol\":2158:2256  function name() public view virtual override returns (string memory) {... */\n    tag_34:\n        /* \"@openzeppelin/contracts/token/ERC20/ERC20.sol\":2212:2225  string memory */\n      0x60\n        /* \"@openzeppelin/contracts/token/ERC20/ERC20.sol\":2244:2249  _name */\n      0x03\n        /* \"@openzeppelin/contracts/token/ERC20/ERC20.sol\":2237:2249  return _name */\n      dup1\n      sload\n      tag_121\n      swap1\n      tag_122\n      jump\t// in\n    tag_121:\n      dup1\n      0x1f\n      add\n      0x20\n      dup1\n      swap2\n      div\n      mul\n      0x20\n      add\n      mload(0x40)\n      swap1\n      dup2\n      add\n      0x40\n      mstore\n      dup1\n      swap3\n      swap2\n      swap1\n      dup2\n      dup2\n      mstore\n      0x20\n      add\n      dup3\n      dup1\n      sload\n      tag_123\n      swap1\n      tag_122\n      jump\t// in\n    tag_123:\n      dup1\n      iszero\n      tag_124\n      jumpi\n      dup1\n      0x1f\n      lt\n      tag_125\n      jumpi\n      0x0100\n      dup1\n      dup4\n      sload\n      div\n      mul\n      dup4\n      mstore\n      swap2\n      0x20\n      add\n      swap2\n      jump(tag_124)\n    tag_125:\n      dup3\n      add\n      swap2\n      swap1\n      0x00\n      mstore\n      keccak256(0x00, 0x20)\n      swap1\n    tag_126:\n      dup2\n      sload\n      dup2\n      mstore\n      swap1\n      0x01\n      add\n      swap1\n      0x20\n      add\n      dup1\n      dup4\n      gt\n      tag_126\n      jumpi\n      dup3\n      swap1\n      sub\n      0x1f\n      and\n      dup3\n      add\n      swap2\n    tag_124:\n      pop\n      pop\n      pop\n      pop\n      pop\n      swap1\n      pop\n        /* \"@openzeppelin/contracts/token/ERC20/ERC20.sol\":2158:2256  function name() public view virtual override returns (string memory) {... */\n      swap1\n      jump\t// out\n        /* \"@openzeppelin/contracts/token/ERC20/ERC20.sol\":4444:4641  function approve(address spender, uint256 amount) public virtual override returns (bool) {... */\n    tag_40:\n        /* \"@openzeppelin/contracts/token/ERC20/ERC20.sol\":4527:4531  bool */\n      0x00\n        /* \"@openzeppelin/contracts/token/ERC20/ERC20.sol\":4543:4556  address owner */\n      dup1\n        /* \"@openzeppelin/contracts/token/ERC20/ERC20.sol\":4559:4571  _msgSender() */\n      tag_128\n        /* \"@openzeppelin/contracts/token/ERC20/ERC20.sol\":4559:4569  _msgSender */\n      tag_129\n        /* \"@openzeppelin/contracts/token/ERC20/ERC20.sol\":4559:4571  _msgSender() */\n      jump\t// in\n    tag_128:\n        /* \"@openzeppelin/contracts/token/ERC20/ERC20.sol\":4543:4571  address owner = _msgSender() */\n      swap1\n      pop\n        /* \"@openzeppelin/contracts/token/ERC20/ERC20.sol\":4581:4613  _approve(owner, spender, amount) */\n      tag_130\n        /* \"@openzeppelin/contracts/token/ERC20/ERC20.sol\":4590:4595  owner */\n      dup2\n        /* \"@openzeppelin/contracts/token/ERC20/ERC20.sol\":4597:4604  spender */\n      dup6\n        /* \"@openzeppelin/contracts/token/ERC20/ERC20.sol\":4606:4612  amount */\n      dup6\n        /* \"@openzeppelin/contracts/token/ERC20/ERC20.sol\":4581:4589  _approve */\n      tag_131\n        /* \"@openzeppelin/contracts/token/ERC20/ERC20.sol\":4581:4613  _approve(owner, spender, amount) */\n      jump\t// in\n    tag_130:\n        /* \"@openzeppelin/contracts/token/ERC20/ERC20.sol\":4630:4634  true */\n      0x01\n        /* \"@openzeppelin/contracts/token/ERC20/ERC20.sol\":4623:4634  return true */\n      swap2\n      pop\n      pop\n        /* \"@openzeppelin/contracts/token/ERC20/ERC20.sol\":4444:4641  function approve(address spender, uint256 amount) public virtual override returns (bool) {... */\n      swap3\n      swap2\n      pop\n      pop\n      jump\t// out\n        /* \"@openzeppelin/contracts/token/ERC721/utils/ERC721Holder.sol\":603:765  function onERC721Received(address, address, uint256, bytes memory) public virtual override returns (bytes4) {... */\n    tag_46:\n        /* \"@openzeppelin/contracts/token/ERC721/utils/ERC721Holder.sol\":703:709  bytes4 */\n      0x00\n        /* \"@openzeppelin/contracts/token/ERC721/utils/ERC721Holder.sol\":728:758  this.onERC721Received.selector */\n      shl(0xe0, 0x150b7a02)\n        /* \"@openzeppelin/contracts/token/ERC721/utils/ERC721Holder.sol\":721:758  return this.onERC721Received.selector */\n      swap1\n      pop\n        /* \"@openzeppelin/contracts/token/ERC721/utils/ERC721Holder.sol\":603:765  function onERC721Received(address, address, uint256, bytes memory) public virtual override returns (bytes4) {... */\n      swap5\n      swap4\n      pop\n      pop\n      pop\n      pop\n      jump\t// out\n        /* \"@openzeppelin/contracts/token/ERC20/ERC20.sol\":3255:3361  function totalSupply() public view virtual override returns (uint256) {... */\n    tag_50:\n        /* \"@openzeppelin/contracts/token/ERC20/ERC20.sol\":3316:3323  uint256 */\n      0x00\n        /* \"@openzeppelin/contracts/token/ERC20/ERC20.sol\":3342:3354  _totalSupply */\n      sload(0x02)\n        /* \"@openzeppelin/contracts/token/ERC20/ERC20.sol\":3335:3354  return _totalSupply */\n      swap1\n      pop\n        /* \"@openzeppelin/contracts/token/ERC20/ERC20.sol\":3255:3361  function totalSupply() public view virtual override returns (uint256) {... */\n      swap1\n      jump\t// out\n        /* \"@openzeppelin/contracts/token/ERC20/ERC20.sol\":5203:5459  function transferFrom(address from, address to, uint256 amount) public virtual override returns (bool) {... */\n    tag_55:\n        /* \"@openzeppelin/contracts/token/ERC20/ERC20.sol\":5300:5304  bool */\n      0x00\n        /* \"@openzeppelin/contracts/token/ERC20/ERC20.sol\":5316:5331  address spender */\n      dup1\n        /* \"@openzeppelin/contracts/token/ERC20/ERC20.sol\":5334:5346  _msgSender() */\n      tag_135\n        /* \"@openzeppelin/contracts/token/ERC20/ERC20.sol\":5334:5344  _msgSender */\n      tag_129\n        /* \"@openzeppelin/contracts/token/ERC20/ERC20.sol\":5334:5346  _msgSender() */\n      jump\t// in\n    tag_135:\n        /* \"@openzeppelin/contracts/token/ERC20/ERC20.sol\":5316:5346  address spender = _msgSender() */\n      swap1\n      pop\n        /* \"@openzeppelin/contracts/token/ERC20/ERC20.sol\":5356:5394  _spendAllowance(from, spender, amount) */\n      tag_136\n        /* \"@openzeppelin/contracts/token/ERC20/ERC20.sol\":5372:5376  from */\n      dup6\n        /* \"@openzeppelin/contracts/token/ERC20/ERC20.sol\":5378:5385  spender */\n      dup3\n        /* \"@openzeppelin/contracts/token/ERC20/ERC20.sol\":5387:5393  amount */\n      dup6\n        /* \"@openzeppelin/contracts/token/ERC20/ERC20.sol\":5356:5371  _spendAllowance */\n      tag_137\n        /* \"@openzeppelin/contracts/token/ERC20/ERC20.sol\":5356:5394  _spendAllowance(from, spender, amount) */\n      jump\t// in\n    tag_136:\n        /* \"@openzeppelin/contracts/token/ERC20/ERC20.sol\":5404:5431  _transfer(from, to, amount) */\n      tag_138\n        /* \"@openzeppelin/contracts/token/ERC20/ERC20.sol\":5414:5418  from */\n      dup6\n        /* \"@openzeppelin/contracts/token/ERC20/ERC20.sol\":5420:5422  to */\n      dup6\n        /* \"@openzeppelin/contracts/token/ERC20/ERC20.sol\":5424:5430  amount */\n      dup6\n        /* \"@openzeppelin/contracts/token/ERC20/ERC20.sol\":5404:5413  _transfer */\n      tag_139\n        /* \"@openzeppelin/contracts/token/ERC20/ERC20.sol\":5404:5431  _transfer(from, to, amount) */\n      jump\t// in\n    tag_138:\n        /* \"@openzeppelin/contracts/token/ERC20/ERC20.sol\":5448:5452  true */\n      0x01\n        /* \"@openzeppelin/contracts/token/ERC20/ERC20.sol\":5441:5452  return true */\n      swap2\n      pop\n      pop\n        /* \"@openzeppelin/contracts/token/ERC20/ERC20.sol\":5203:5459  function transferFrom(address from, address to, uint256 amount) public virtual override returns (bool) {... */\n      swap4\n      swap3\n      pop\n      pop\n      pop\n      jump\t// out\n        /* \"Staking.sol\":428:476  mapping(uint256 => uint256) public tokenStakedAt */\n    tag_60:\n      mstore(0x20, 0x08)\n      dup1\n      0x00\n      mstore\n      keccak256(0x00, 0x40)\n      0x00\n      swap2\n      pop\n      swap1\n      pop\n      sload\n      dup2\n      jump\t// out\n        /* \"Staking.sol\":1059:1410  function unstake(uint256 tokenId) external {... */\n    tag_64:\n        /* \"Staking.sol\":1145:1155  msg.sender */\n      caller\n        /* \"Staking.sol\":1120:1155  tokenOwnerOf[tokenId] == msg.sender */\n      0xffffffffffffffffffffffffffffffffffffffff\n      and\n        /* \"Staking.sol\":1120:1132  tokenOwnerOf */\n      0x07\n        /* \"Staking.sol\":1120:1141  tokenOwnerOf[tokenId] */\n      0x00\n        /* \"Staking.sol\":1133:1140  tokenId */\n      dup4\n        /* \"Staking.sol\":1120:1141  tokenOwnerOf[tokenId] */\n      dup2\n      mstore\n      0x20\n      add\n      swap1\n      dup2\n      mstore\n      0x20\n      add\n      0x00\n      keccak256\n      0x00\n      swap1\n      sload\n      swap1\n      0x0100\n      exp\n      swap1\n      div\n      0xffffffffffffffffffffffffffffffffffffffff\n      and\n        /* \"Staking.sol\":1120:1155  tokenOwnerOf[tokenId] == msg.sender */\n      0xffffffffffffffffffffffffffffffffffffffff\n      and\n      eq\n        /* \"Staking.sol\":1112:1177  require(tokenOwnerOf[tokenId] == msg.sender, \"You can't unstake\") */\n      tag_141\n      jumpi\n      mload(0x40)\n      0x08c379a000000000000000000000000000000000000000000000000000000000\n      dup2\n      mstore\n      0x04\n      add\n      tag_142\n      swap1\n      tag_143\n      jump\t// in\n    tag_142:\n      mload(0x40)\n      dup1\n      swap2\n      sub\n      swap1\n      revert\n    tag_141:\n        /* \"Staking.sol\":1187:1230  _mint(msg.sender, calculateTokens(tokenId)) */\n      tag_144\n        /* \"Staking.sol\":1193:1203  msg.sender */\n      caller\n        /* \"Staking.sol\":1205:1229  calculateTokens(tokenId) */\n      tag_145\n        /* \"Staking.sol\":1221:1228  tokenId */\n      dup4\n        /* \"Staking.sol\":1205:1220  calculateTokens */\n      tag_88\n        /* \"Staking.sol\":1205:1229  calculateTokens(tokenId) */\n      jump\t// in\n    tag_145:\n        /* \"Staking.sol\":1187:1192  _mint */\n      tag_146\n        /* \"Staking.sol\":1187:1230  _mint(msg.sender, calculateTokens(tokenId)) */\n      jump\t// in\n    tag_144:\n        /* \"Staking.sol\":1274:1277  nft */\n      0x06\n      0x00\n      swap1\n      sload\n      swap1\n      0x0100\n      exp\n      swap1\n      div\n      0xffffffffffffffffffffffffffffffffffffffff\n      and\n        /* \"Staking.sol\":1274:1290  nft.transferFrom */\n      0xffffffffffffffffffffffffffffffffffffffff\n      and\n      0x23b872dd\n        /* \"Staking.sol\":1299:1303  this */\n      address\n        /* \"Staking.sol\":1306:1316  msg.sender */\n      caller\n        /* \"Staking.sol\":1318:1325  tokenId */\n      dup5\n        /* \"Staking.sol\":1274:1326  nft.transferFrom(address(this), msg.sender, tokenId) */\n      mload(0x40)\n      dup5\n      0xffffffff\n      and\n      0xe0\n      shl\n      dup2\n      mstore\n      0x04\n      add\n      tag_147\n      swap4\n      swap3\n      swap2\n      swap1\n      tag_148\n      jump\t// in\n    tag_147:\n      0x00\n      mload(0x40)\n      dup1\n      dup4\n      sub\n      dup2\n      0x00\n      dup8\n      dup1\n      extcodesize\n      iszero\n      dup1\n      iszero\n      tag_149\n      jumpi\n      0x00\n      dup1\n      revert\n    tag_149:\n      pop\n      gas\n      call\n      iszero\n      dup1\n      iszero\n      tag_151\n      jumpi\n      returndatasize\n      0x00\n      dup1\n      returndatacopy\n      revert(0x00, returndatasize)\n    tag_151:\n      pop\n      pop\n      pop\n      pop\n        /* \"Staking.sol\":1343:1355  tokenOwnerOf */\n      0x07\n        /* \"Staking.sol\":1343:1364  tokenOwnerOf[tokenId] */\n      0x00\n        /* \"Staking.sol\":1356:1363  tokenId */\n      dup3\n        /* \"Staking.sol\":1343:1364  tokenOwnerOf[tokenId] */\n      dup2\n      mstore\n      0x20\n      add\n      swap1\n      dup2\n      mstore\n      0x20\n      add\n      0x00\n      keccak256\n      0x00\n        /* \"Staking.sol\":1336:1364  delete tokenOwnerOf[tokenId] */\n      0x0100\n      exp\n      dup2\n      sload\n      swap1\n      0xffffffffffffffffffffffffffffffffffffffff\n      mul\n      not\n      and\n      swap1\n      sstore\n        /* \"Staking.sol\":1381:1394  tokenStakedAt */\n      0x08\n        /* \"Staking.sol\":1381:1403  tokenStakedAt[tokenId] */\n      0x00\n        /* \"Staking.sol\":1395:1402  tokenId */\n      dup3\n        /* \"Staking.sol\":1381:1403  tokenStakedAt[tokenId] */\n      dup2\n      mstore\n      0x20\n      add\n      swap1\n      dup2\n      mstore\n      0x20\n      add\n      0x00\n      keccak256\n        /* \"Staking.sol\":1374:1403  delete tokenStakedAt[tokenId] */\n      0x00\n      swap1\n      sstore\n        /* \"Staking.sol\":1059:1410  function unstake(uint256 tokenId) external {... */\n      pop\n      jump\t// out\n        /* \"@openzeppelin/contracts/token/ERC20/ERC20.sol\":3104:3195  function decimals() public view virtual override returns (uint8) {... */\n    tag_66:\n        /* \"@openzeppelin/contracts/token/ERC20/ERC20.sol\":3162:3167  uint8 */\n      0x00\n        /* \"@openzeppelin/contracts/token/ERC20/ERC20.sol\":3186:3188  18 */\n      0x12\n        /* \"@openzeppelin/contracts/token/ERC20/ERC20.sol\":3179:3188  return 18 */\n      swap1\n      pop\n        /* \"@openzeppelin/contracts/token/ERC20/ERC20.sol\":3104:3195  function decimals() public view virtual override returns (uint8) {... */\n      swap1\n      jump\t// out\n        /* \"@openzeppelin/contracts/token/ERC20/ERC20.sol\":5854:6088  function increaseAllowance(address spender, uint256 addedValue) public virtual returns (bool) {... */\n    tag_71:\n        /* \"@openzeppelin/contracts/token/ERC20/ERC20.sol\":5942:5946  bool */\n      0x00\n        /* \"@openzeppelin/contracts/token/ERC20/ERC20.sol\":5958:5971  address owner */\n      dup1\n        /* \"@openzeppelin/contracts/token/ERC20/ERC20.sol\":5974:5986  _msgSender() */\n      tag_154\n        /* \"@openzeppelin/contracts/token/ERC20/ERC20.sol\":5974:5984  _msgSender */\n      tag_129\n        /* \"@openzeppelin/contracts/token/ERC20/ERC20.sol\":5974:5986  _msgSender() */\n      jump\t// in\n    tag_154:\n        /* \"@openzeppelin/contracts/token/ERC20/ERC20.sol\":5958:5986  address owner = _msgSender() */\n      swap1\n      pop\n        /* \"@openzeppelin/contracts/token/ERC20/ERC20.sol\":5996:6060  _approve(owner, spender, allowance(owner, spender) + addedValue) */\n      tag_155\n        /* \"@openzeppelin/contracts/token/ERC20/ERC20.sol\":6005:6010  owner */\n      dup2\n        /* \"@openzeppelin/contracts/token/ERC20/ERC20.sol\":6012:6019  spender */\n      dup6\n        /* \"@openzeppelin/contracts/token/ERC20/ERC20.sol\":6049:6059  addedValue */\n      dup6\n        /* \"@openzeppelin/contracts/token/ERC20/ERC20.sol\":6021:6046  allowance(owner, spender) */\n      tag_156\n        /* \"@openzeppelin/contracts/token/ERC20/ERC20.sol\":6031:6036  owner */\n      dup6\n        /* \"@openzeppelin/contracts/token/ERC20/ERC20.sol\":6038:6045  spender */\n      dup10\n        /* \"@openzeppelin/contracts/token/ERC20/ERC20.sol\":6021:6030  allowance */\n      tag_115\n        /* \"@openzeppelin/contracts/token/ERC20/ERC20.sol\":6021:6046  allowance(owner, spender) */\n      jump\t// in\n    tag_156:\n        /* \"@openzeppelin/contracts/token/ERC20/ERC20.sol\":6021:6059  allowance(owner, spender) + addedValue */\n      tag_157\n      swap2\n      swap1\n      tag_158\n      jump\t// in\n    tag_157:\n        /* \"@openzeppelin/contracts/token/ERC20/ERC20.sol\":5996:6004  _approve */\n      tag_131\n        /* \"@openzeppelin/contracts/token/ERC20/ERC20.sol\":5996:6060  _approve(owner, spender, allowance(owner, spender) + addedValue) */\n      jump\t// in\n    tag_155:\n        /* \"@openzeppelin/contracts/token/ERC20/ERC20.sol\":6077:6081  true */\n      0x01\n        /* \"@openzeppelin/contracts/token/ERC20/ERC20.sol\":6070:6081  return true */\n      swap2\n      pop\n      pop\n        /* \"@openzeppelin/contracts/token/ERC20/ERC20.sol\":5854:6088  function increaseAllowance(address spender, uint256 addedValue) public virtual returns (bool) {... */\n      swap3\n      swap2\n      pop\n      pop\n      jump\t// out\n        /* \"Staking.sol\":351:369  IERC721 public nft */\n    tag_74:\n      0x06\n      0x00\n      swap1\n      sload\n      swap1\n      0x0100\n      exp\n      swap1\n      div\n      0xffffffffffffffffffffffffffffffffffffffff\n      and\n      dup2\n      jump\t// out\n        /* \"Staking.sol\":1415:1604  function transferBalanceToOwner() external {... */\n    tag_78:\n        /* \"Staking.sol\":1490:1497  owner() */\n      tag_160\n        /* \"Staking.sol\":1490:1495  owner */\n      tag_96\n        /* \"Staking.sol\":1490:1497  owner() */\n      jump\t// in\n    tag_160:\n        /* \"Staking.sol\":1476:1497  msg.sender == owner() */\n      0xffffffffffffffffffffffffffffffffffffffff\n      and\n        /* \"Staking.sol\":1476:1486  msg.sender */\n      caller\n        /* \"Staking.sol\":1476:1497  msg.sender == owner() */\n      0xffffffffffffffffffffffffffffffffffffffff\n      and\n      eq\n        /* \"Staking.sol\":1468:1539  require(msg.sender == owner(), \"Only the owner can call this function\") */\n      tag_161\n      jumpi\n      mload(0x40)\n      0x08c379a000000000000000000000000000000000000000000000000000000000\n      dup2\n      mstore\n      0x04\n      add\n      tag_162\n      swap1\n      tag_163\n      jump\t// in\n    tag_162:\n      mload(0x40)\n      dup1\n      swap2\n      sub\n      swap1\n      revert\n    tag_161:\n        /* \"Staking.sol\":1557:1564  owner() */\n      tag_164\n        /* \"Staking.sol\":1557:1562  owner */\n      tag_96\n        /* \"Staking.sol\":1557:1564  owner() */\n      jump\t// in\n    tag_164:\n        /* \"Staking.sol\":1549:1574  payable(owner()).transfer */\n      0xffffffffffffffffffffffffffffffffffffffff\n      and\n        /* \"Staking.sol\":1549:1597  payable(owner()).transfer(address(this).balance) */\n      0x08fc\n        /* \"Staking.sol\":1575:1596  address(this).balance */\n      selfbalance\n        /* \"Staking.sol\":1549:1597  payable(owner()).transfer(address(this).balance) */\n      swap1\n      dup2\n      iszero\n      mul\n      swap1\n      mload(0x40)\n      0x00\n      mload(0x40)\n      dup1\n      dup4\n      sub\n      dup2\n      dup6\n      dup9\n      dup9\n      call\n      swap4\n      pop\n      pop\n      pop\n      pop\n      iszero\n      dup1\n      iszero\n      tag_166\n      jumpi\n      returndatasize\n      0x00\n      dup1\n      returndatacopy\n      revert(0x00, returndatasize)\n    tag_166:\n      pop\n        /* \"Staking.sol\":1415:1604  function transferBalanceToOwner() external {... */\n      jump\t// out\n        /* \"@openzeppelin/contracts/token/ERC20/ERC20.sol\":3419:3544  function balanceOf(address account) public view virtual override returns (uint256) {... */\n    tag_82:\n        /* \"@openzeppelin/contracts/token/ERC20/ERC20.sol\":3493:3500  uint256 */\n      0x00\n        /* \"@openzeppelin/contracts/token/ERC20/ERC20.sol\":3519:3528  _balances */\n      dup1\n        /* \"@openzeppelin/contracts/token/ERC20/ERC20.sol\":3519:3537  _balances[account] */\n      0x00\n        /* \"@openzeppelin/contracts/token/ERC20/ERC20.sol\":3529:3536  account */\n      dup4\n        /* \"@openzeppelin/contracts/token/ERC20/ERC20.sol\":3519:3537  _balances[account] */\n      0xffffffffffffffffffffffffffffffffffffffff\n      and\n      0xffffffffffffffffffffffffffffffffffffffff\n      and\n      dup2\n      mstore\n      0x20\n      add\n      swap1\n      dup2\n      mstore\n      0x20\n      add\n      0x00\n      keccak256\n      sload\n        /* \"@openzeppelin/contracts/token/ERC20/ERC20.sol\":3512:3537  return _balances[account] */\n      swap1\n      pop\n        /* \"@openzeppelin/contracts/token/ERC20/ERC20.sol\":3419:3544  function balanceOf(address account) public view virtual override returns (uint256) {... */\n      swap2\n      swap1\n      pop\n      jump\t// out\n        /* \"@openzeppelin/contracts/access/Ownable.sol\":1824:1925  function renounceOwnership() public virtual onlyOwner {... */\n    tag_85:\n        /* \"@openzeppelin/contracts/access/Ownable.sol\":1094:1107  _checkOwner() */\n      tag_169\n        /* \"@openzeppelin/contracts/access/Ownable.sol\":1094:1105  _checkOwner */\n      tag_170\n        /* \"@openzeppelin/contracts/access/Ownable.sol\":1094:1107  _checkOwner() */\n      jump\t// in\n    tag_169:\n        /* \"@openzeppelin/contracts/access/Ownable.sol\":1888:1918  _transferOwnership(address(0)) */\n      tag_172\n        /* \"@openzeppelin/contracts/access/Ownable.sol\":1915:1916  0 */\n      0x00\n        /* \"@openzeppelin/contracts/access/Ownable.sol\":1888:1906  _transferOwnership */\n      tag_173\n        /* \"@openzeppelin/contracts/access/Ownable.sol\":1888:1918  _transferOwnership(address(0)) */\n      jump\t// in\n    tag_172:\n        /* \"@openzeppelin/contracts/access/Ownable.sol\":1824:1925  function renounceOwnership() public virtual onlyOwner {... */\n      jump\t// out\n        /* \"Staking.sol\":858:1053  function calculateTokens(uint256 tokenId) public view returns (uint256) {... */\n    tag_88:\n        /* \"Staking.sol\":921:928  uint256 */\n      0x00\n        /* \"Staking.sol\":940:959  uint256 timeElapsed */\n      dup1\n        /* \"Staking.sol\":980:993  tokenStakedAt */\n      0x08\n        /* \"Staking.sol\":980:1002  tokenStakedAt[tokenId] */\n      0x00\n        /* \"Staking.sol\":994:1001  tokenId */\n      dup5\n        /* \"Staking.sol\":980:1002  tokenStakedAt[tokenId] */\n      dup2\n      mstore\n      0x20\n      add\n      swap1\n      dup2\n      mstore\n      0x20\n      add\n      0x00\n      keccak256\n      sload\n        /* \"Staking.sol\":962:977  block.timestamp */\n      timestamp\n        /* \"Staking.sol\":962:1002  block.timestamp - tokenStakedAt[tokenId] */\n      tag_175\n      swap2\n      swap1\n      tag_176\n      jump\t// in\n    tag_175:\n        /* \"Staking.sol\":940:1002  uint256 timeElapsed = block.timestamp - tokenStakedAt[tokenId] */\n      swap1\n      pop\n        /* \"Staking.sol\":1033:1046  EMISSION_RATE */\n      sload(0x09)\n        /* \"Staking.sol\":1019:1030  timeElapsed */\n      dup2\n        /* \"Staking.sol\":1019:1046  timeElapsed * EMISSION_RATE */\n      tag_177\n      swap2\n      swap1\n      tag_178\n      jump\t// in\n    tag_177:\n        /* \"Staking.sol\":1012:1046  return timeElapsed * EMISSION_RATE */\n      swap2\n      pop\n      pop\n        /* \"Staking.sol\":858:1053  function calculateTokens(uint256 tokenId) public view returns (uint256) {... */\n      swap2\n      swap1\n      pop\n      jump\t// out\n        /* \"Staking.sol\":375:422  mapping(uint256 => address) public tokenOwnerOf */\n    tag_92:\n      mstore(0x20, 0x07)\n      dup1\n      0x00\n      mstore\n      keccak256(0x00, 0x40)\n      0x00\n      swap2\n      pop\n      sload\n      swap1\n      0x0100\n      exp\n      swap1\n      div\n      0xffffffffffffffffffffffffffffffffffffffff\n      and\n      dup2\n      jump\t// out\n        /* \"@openzeppelin/contracts/access/Ownable.sol\":1201:1286  function owner() public view virtual returns (address) {... */\n    tag_96:\n        /* \"@openzeppelin/contracts/access/Ownable.sol\":1247:1254  address */\n      0x00\n        /* \"@openzeppelin/contracts/access/Ownable.sol\":1273:1279  _owner */\n      0x05\n      0x00\n      swap1\n      sload\n      swap1\n      0x0100\n      exp\n      swap1\n      div\n      0xffffffffffffffffffffffffffffffffffffffff\n      and\n        /* \"@openzeppelin/contracts/access/Ownable.sol\":1266:1279  return _owner */\n      swap1\n      pop\n        /* \"@openzeppelin/contracts/access/Ownable.sol\":1201:1286  function owner() public view virtual returns (address) {... */\n      swap1\n      jump\t// out\n        /* \"@openzeppelin/contracts/token/ERC20/ERC20.sol\":2369:2471  function symbol() public view virtual override returns (string memory) {... */\n    tag_99:\n        /* \"@openzeppelin/contracts/token/ERC20/ERC20.sol\":2425:2438  string memory */\n      0x60\n        /* \"@openzeppelin/contracts/token/ERC20/ERC20.sol\":2457:2464  _symbol */\n      0x04\n        /* \"@openzeppelin/contracts/token/ERC20/ERC20.sol\":2450:2464  return _symbol */\n      dup1\n      sload\n      tag_181\n      swap1\n      tag_122\n      jump\t// in\n    tag_181:\n      dup1\n      0x1f\n      add\n      0x20\n      dup1\n      swap2\n      div\n      mul\n      0x20\n      add\n      mload(0x40)\n      swap1\n      dup2\n      add\n      0x40\n      mstore\n      dup1\n      swap3\n      swap2\n      swap1\n      dup2\n      dup2\n      mstore\n      0x20\n      add\n      dup3\n      dup1\n      sload\n      tag_182\n      swap1\n      tag_122\n      jump\t// in\n    tag_182:\n      dup1\n      iszero\n      tag_183\n      jumpi\n      dup1\n      0x1f\n      lt\n      tag_184\n      jumpi\n      0x0100\n      dup1\n      dup4\n      sload\n      div\n      mul\n      dup4\n      mstore\n      swap2\n      0x20\n      add\n      swap2\n      jump(tag_183)\n    tag_184:\n      dup3\n      add\n      swap2\n      swap1\n      0x00\n      mstore\n      keccak256(0x00, 0x20)\n      swap1\n    tag_185:\n      dup2\n      sload\n      dup2\n      mstore\n      swap1\n      0x01\n      add\n      swap1\n      0x20\n      add\n      dup1\n      dup4\n      gt\n      tag_185\n      jumpi\n      dup3\n      swap1\n      sub\n      0x1f\n      and\n      dup3\n      add\n      swap2\n    tag_183:\n      pop\n      pop\n      pop\n      pop\n      pop\n      swap1\n      pop\n        /* \"@openzeppelin/contracts/token/ERC20/ERC20.sol\":2369:2471  function symbol() public view virtual override returns (string memory) {... */\n      swap1\n      jump\t// out\n        /* \"@openzeppelin/contracts/token/ERC20/ERC20.sol\":6575:7002  function decreaseAllowance(address spender, uint256 subtractedValue) public virtual returns (bool) {... */\n    tag_103:\n        /* \"@openzeppelin/contracts/token/ERC20/ERC20.sol\":6668:6672  bool */\n      0x00\n        /* \"@openzeppelin/contracts/token/ERC20/ERC20.sol\":6684:6697  address owner */\n      dup1\n        /* \"@openzeppelin/contracts/token/ERC20/ERC20.sol\":6700:6712  _msgSender() */\n      tag_187\n        /* \"@openzeppelin/contracts/token/ERC20/ERC20.sol\":6700:6710  _msgSender */\n      tag_129\n        /* \"@openzeppelin/contracts/token/ERC20/ERC20.sol\":6700:6712  _msgSender() */\n      jump\t// in\n    tag_187:\n        /* \"@openzeppelin/contracts/token/ERC20/ERC20.sol\":6684:6712  address owner = _msgSender() */\n      swap1\n      pop\n        /* \"@openzeppelin/contracts/token/ERC20/ERC20.sol\":6722:6746  uint256 currentAllowance */\n      0x00\n        /* \"@openzeppelin/contracts/token/ERC20/ERC20.sol\":6749:6774  allowance(owner, spender) */\n      tag_188\n        /* \"@openzeppelin/contracts/token/ERC20/ERC20.sol\":6759:6764  owner */\n      dup3\n        /* \"@openzeppelin/contracts/token/ERC20/ERC20.sol\":6766:6773  spender */\n      dup7\n        /* \"@openzeppelin/contracts/token/ERC20/ERC20.sol\":6749:6758  allowance */\n      tag_115\n        /* \"@openzeppelin/contracts/token/ERC20/ERC20.sol\":6749:6774  allowance(owner, spender) */\n      jump\t// in\n    tag_188:\n        /* \"@openzeppelin/contracts/token/ERC20/ERC20.sol\":6722:6774  uint256 currentAllowance = allowance(owner, spender) */\n      swap1\n      pop\n        /* \"@openzeppelin/contracts/token/ERC20/ERC20.sol\":6812:6827  subtractedValue */\n      dup4\n        /* \"@openzeppelin/contracts/token/ERC20/ERC20.sol\":6792:6808  currentAllowance */\n      dup2\n        /* \"@openzeppelin/contracts/token/ERC20/ERC20.sol\":6792:6827  currentAllowance >= subtractedValue */\n      lt\n      iszero\n        /* \"@openzeppelin/contracts/token/ERC20/ERC20.sol\":6784:6869  require(currentAllowance >= subtractedValue, \"ERC20: decreased allowance below zero\") */\n      tag_189\n      jumpi\n      mload(0x40)\n      0x08c379a000000000000000000000000000000000000000000000000000000000\n      dup2\n      mstore\n      0x04\n      add\n      tag_190\n      swap1\n      tag_191\n      jump\t// in\n    tag_190:\n      mload(0x40)\n      dup1\n      swap2\n      sub\n      swap1\n      revert\n    tag_189:\n        /* \"@openzeppelin/contracts/token/ERC20/ERC20.sol\":6903:6963  _approve(owner, spender, currentAllowance - subtractedValue) */\n      tag_192\n        /* \"@openzeppelin/contracts/token/ERC20/ERC20.sol\":6912:6917  owner */\n      dup3\n        /* \"@openzeppelin/contracts/token/ERC20/ERC20.sol\":6919:6926  spender */\n      dup7\n        /* \"@openzeppelin/contracts/token/ERC20/ERC20.sol\":6947:6962  subtractedValue */\n      dup7\n        /* \"@openzeppelin/contracts/token/ERC20/ERC20.sol\":6928:6944  currentAllowance */\n      dup5\n        /* \"@openzeppelin/contracts/token/ERC20/ERC20.sol\":6928:6962  currentAllowance - subtractedValue */\n      sub\n        /* \"@openzeppelin/contracts/token/ERC20/ERC20.sol\":6903:6911  _approve */\n      tag_131\n        /* \"@openzeppelin/contracts/token/ERC20/ERC20.sol\":6903:6963  _approve(owner, spender, currentAllowance - subtractedValue) */\n      jump\t// in\n    tag_192:\n        /* \"@openzeppelin/contracts/token/ERC20/ERC20.sol\":6991:6995  true */\n      0x01\n        /* \"@openzeppelin/contracts/token/ERC20/ERC20.sol\":6984:6995  return true */\n      swap3\n      pop\n      pop\n      pop\n        /* \"@openzeppelin/contracts/token/ERC20/ERC20.sol\":6575:7002  function decreaseAllowance(address spender, uint256 subtractedValue) public virtual returns (bool) {... */\n      swap3\n      swap2\n      pop\n      pop\n      jump\t// out\n        /* \"Staking.sol\":644:852  function stake(uint256 tokenId) external {... */\n    tag_107:\n        /* \"Staking.sol\":695:698  nft */\n      0x06\n      0x00\n      swap1\n      sload\n      swap1\n      0x0100\n      exp\n      swap1\n      div\n      0xffffffffffffffffffffffffffffffffffffffff\n      and\n        /* \"Staking.sol\":695:715  nft.safeTransferFrom */\n      0xffffffffffffffffffffffffffffffffffffffff\n      and\n      0x42842e0e\n        /* \"Staking.sol\":716:726  msg.sender */\n      caller\n        /* \"Staking.sol\":736:740  this */\n      address\n        /* \"Staking.sol\":743:750  tokenId */\n      dup5\n        /* \"Staking.sol\":695:751  nft.safeTransferFrom(msg.sender, address(this), tokenId) */\n      mload(0x40)\n      dup5\n      0xffffffff\n      and\n      0xe0\n      shl\n      dup2\n      mstore\n      0x04\n      add\n      tag_194\n      swap4\n      swap3\n      swap2\n      swap1\n      tag_148\n      jump\t// in\n    tag_194:\n      0x00\n      mload(0x40)\n      dup1\n      dup4\n      sub\n      dup2\n      0x00\n      dup8\n      dup1\n      extcodesize\n      iszero\n      dup1\n      iszero\n      tag_195\n      jumpi\n      0x00\n      dup1\n      revert\n    tag_195:\n      pop\n      gas\n      call\n      iszero\n      dup1\n      iszero\n      tag_197\n      jumpi\n      returndatasize\n      0x00\n      dup1\n      returndatacopy\n      revert(0x00, returndatasize)\n    tag_197:\n      pop\n      pop\n      pop\n      pop\n        /* \"Staking.sol\":785:795  msg.sender */\n      caller\n        /* \"Staking.sol\":761:773  tokenOwnerOf */\n      0x07\n        /* \"Staking.sol\":761:782  tokenOwnerOf[tokenId] */\n      0x00\n        /* \"Staking.sol\":774:781  tokenId */\n      dup4\n        /* \"Staking.sol\":761:782  tokenOwnerOf[tokenId] */\n      dup2\n      mstore\n      0x20\n      add\n      swap1\n      dup2\n      mstore\n      0x20\n      add\n      0x00\n      keccak256\n      0x00\n        /* \"Staking.sol\":761:795  tokenOwnerOf[tokenId] = msg.sender */\n      0x0100\n      exp\n      dup2\n      sload\n      dup2\n      0xffffffffffffffffffffffffffffffffffffffff\n      mul\n      not\n      and\n      swap1\n      dup4\n      0xffffffffffffffffffffffffffffffffffffffff\n      and\n      mul\n      or\n      swap1\n      sstore\n      pop\n        /* \"Staking.sol\":830:845  block.timestamp */\n      timestamp\n        /* \"Staking.sol\":805:818  tokenStakedAt */\n      0x08\n        /* \"Staking.sol\":805:827  tokenStakedAt[tokenId] */\n      0x00\n        /* \"Staking.sol\":819:826  tokenId */\n      dup4\n        /* \"Staking.sol\":805:827  tokenStakedAt[tokenId] */\n      dup2\n      mstore\n      0x20\n      add\n      swap1\n      dup2\n      mstore\n      0x20\n      add\n      0x00\n      keccak256\n        /* \"Staking.sol\":805:845  tokenStakedAt[tokenId] = block.timestamp */\n      dup2\n      swap1\n      sstore\n      pop\n        /* \"Staking.sol\":644:852  function stake(uint256 tokenId) external {... */\n      pop\n      jump\t// out\n        /* \"@openzeppelin/contracts/token/ERC20/ERC20.sol\":3740:3929  function transfer(address to, uint256 amount) public virtual override returns (bool) {... */\n    tag_110:\n        /* \"@openzeppelin/contracts/token/ERC20/ERC20.sol\":3819:3823  bool */\n      0x00\n        /* \"@openzeppelin/contracts/token/ERC20/ERC20.sol\":3835:3848  address owner */\n      dup1\n        /* \"@openzeppelin/contracts/token/ERC20/ERC20.sol\":3851:3863  _msgSender() */\n      tag_199\n        /* \"@openzeppelin/contracts/token/ERC20/ERC20.sol\":3851:3861  _msgSender */\n      tag_129\n        /* \"@openzeppelin/contracts/token/ERC20/ERC20.sol\":3851:3863  _msgSender() */\n      jump\t// in\n    tag_199:\n        /* \"@openzeppelin/contracts/token/ERC20/ERC20.sol\":3835:3863  address owner = _msgSender() */\n      swap1\n      pop\n        /* \"@openzeppelin/contracts/token/ERC20/ERC20.sol\":3873:3901  _transfer(owner, to, amount) */\n      tag_200\n        /* \"@openzeppelin/contracts/token/ERC20/ERC20.sol\":3883:3888  owner */\n      dup2\n        /* \"@openzeppelin/contracts/token/ERC20/ERC20.sol\":3890:3892  to */\n      dup6\n        /* \"@openzeppelin/contracts/token/ERC20/ERC20.sol\":3894:3900  amount */\n      dup6\n        /* \"@openzeppelin/contracts/token/ERC20/ERC20.sol\":3873:3882  _transfer */\n      tag_139\n        /* \"@openzeppelin/contracts/token/ERC20/ERC20.sol\":3873:3901  _transfer(owner, to, amount) */\n      jump\t// in\n    tag_200:\n        /* \"@openzeppelin/contracts/token/ERC20/ERC20.sol\":3918:3922  true */\n      0x01\n        /* \"@openzeppelin/contracts/token/ERC20/ERC20.sol\":3911:3922  return true */\n      swap2\n      pop\n      pop\n        /* \"@openzeppelin/contracts/token/ERC20/ERC20.sol\":3740:3929  function transfer(address to, uint256 amount) public virtual override returns (bool) {... */\n      swap3\n      swap2\n      pop\n      pop\n      jump\t// out\n        /* \"@openzeppelin/contracts/token/ERC20/ERC20.sol\":3987:4136  function allowance(address owner, address spender) public view virtual override returns (uint256) {... */\n    tag_115:\n        /* \"@openzeppelin/contracts/token/ERC20/ERC20.sol\":4076:4083  uint256 */\n      0x00\n        /* \"@openzeppelin/contracts/token/ERC20/ERC20.sol\":4102:4113  _allowances */\n      0x01\n        /* \"@openzeppelin/contracts/token/ERC20/ERC20.sol\":4102:4120  _allowances[owner] */\n      0x00\n        /* \"@openzeppelin/contracts/token/ERC20/ERC20.sol\":4114:4119  owner */\n      dup5\n        /* \"@openzeppelin/contracts/token/ERC20/ERC20.sol\":4102:4120  _allowances[owner] */\n      0xffffffffffffffffffffffffffffffffffffffff\n      and\n      0xffffffffffffffffffffffffffffffffffffffff\n      and\n      dup2\n      mstore\n      0x20\n      add\n      swap1\n      dup2\n      mstore\n      0x20\n      add\n      0x00\n      keccak256\n        /* \"@openzeppelin/contracts/token/ERC20/ERC20.sol\":4102:4129  _allowances[owner][spender] */\n      0x00\n        /* \"@openzeppelin/contracts/token/ERC20/ERC20.sol\":4121:4128  spender */\n      dup4\n        /* \"@openzeppelin/contracts/token/ERC20/ERC20.sol\":4102:4129  _allowances[owner][spender] */\n      0xffffffffffffffffffffffffffffffffffffffff\n      and\n      0xffffffffffffffffffffffffffffffffffffffff\n      and\n      dup2\n      mstore\n      0x20\n      add\n      swap1\n      dup2\n      mstore\n      0x20\n      add\n      0x00\n      keccak256\n      sload\n        /* \"@openzeppelin/contracts/token/ERC20/ERC20.sol\":4095:4129  return _allowances[owner][spender] */\n      swap1\n      pop\n        /* \"@openzeppelin/contracts/token/ERC20/ERC20.sol\":3987:4136  function allowance(address owner, address spender) public view virtual override returns (uint256) {... */\n      swap3\n      swap2\n      pop\n      pop\n      jump\t// out\n        /* \"@openzeppelin/contracts/access/Ownable.sol\":2074:2272  function transferOwnership(address newOwner) public virtual onlyOwner {... */\n    tag_119:\n        /* \"@openzeppelin/contracts/access/Ownable.sol\":1094:1107  _checkOwner() */\n      tag_203\n        /* \"@openzeppelin/contracts/access/Ownable.sol\":1094:1105  _checkOwner */\n      tag_170\n        /* \"@openzeppelin/contracts/access/Ownable.sol\":1094:1107  _checkOwner() */\n      jump\t// in\n    tag_203:\n        /* \"@openzeppelin/contracts/access/Ownable.sol\":2182:2183  0 */\n      0x00\n        /* \"@openzeppelin/contracts/access/Ownable.sol\":2162:2184  newOwner != address(0) */\n      0xffffffffffffffffffffffffffffffffffffffff\n      and\n        /* \"@openzeppelin/contracts/access/Ownable.sol\":2162:2170  newOwner */\n      dup2\n        /* \"@openzeppelin/contracts/access/Ownable.sol\":2162:2184  newOwner != address(0) */\n      0xffffffffffffffffffffffffffffffffffffffff\n      and\n      sub\n        /* \"@openzeppelin/contracts/access/Ownable.sol\":2154:2227  require(newOwner != address(0), \"Ownable: new owner is the zero address\") */\n      tag_205\n      jumpi\n      mload(0x40)\n      0x08c379a000000000000000000000000000000000000000000000000000000000\n      dup2\n      mstore\n      0x04\n      add\n      tag_206\n      swap1\n      tag_207\n      jump\t// in\n    tag_206:\n      mload(0x40)\n      dup1\n      swap2\n      sub\n      swap1\n      revert\n    tag_205:\n        /* \"@openzeppelin/contracts/access/Ownable.sol\":2237:2265  _transferOwnership(newOwner) */\n      tag_208\n        /* \"@openzeppelin/contracts/access/Ownable.sol\":2256:2264  newOwner */\n      dup2\n        /* \"@openzeppelin/contracts/access/Ownable.sol\":2237:2255  _transferOwnership */\n      tag_173\n        /* \"@openzeppelin/contracts/access/Ownable.sol\":2237:2265  _transferOwnership(newOwner) */\n      jump\t// in\n    tag_208:\n        /* \"@openzeppelin/contracts/access/Ownable.sol\":2074:2272  function transferOwnership(address newOwner) public virtual onlyOwner {... */\n      pop\n      jump\t// out\n        /* \"@openzeppelin/contracts/utils/Context.sol\":640:736  function _msgSender() internal view virtual returns (address) {... */\n    tag_129:\n        /* \"@openzeppelin/contracts/utils/Context.sol\":693:700  address */\n      0x00\n        /* \"@openzeppelin/contracts/utils/Context.sol\":719:729  msg.sender */\n      caller\n        /* \"@openzeppelin/contracts/utils/Context.sol\":712:729  return msg.sender */\n      swap1\n      pop\n        /* \"@openzeppelin/contracts/utils/Context.sol\":640:736  function _msgSender() internal view virtual returns (address) {... */\n      swap1\n      jump\t// out\n        /* \"@openzeppelin/contracts/token/ERC20/ERC20.sol\":10457:10797  function _approve(address owner, address spender, uint256 amount) internal virtual {... */\n    tag_131:\n        /* \"@openzeppelin/contracts/token/ERC20/ERC20.sol\":10575:10576  0 */\n      0x00\n        /* \"@openzeppelin/contracts/token/ERC20/ERC20.sol\":10558:10577  owner != address(0) */\n      0xffffffffffffffffffffffffffffffffffffffff\n      and\n        /* \"@openzeppelin/contracts/token/ERC20/ERC20.sol\":10558:10563  owner */\n      dup4\n        /* \"@openzeppelin/contracts/token/ERC20/ERC20.sol\":10558:10577  owner != address(0) */\n      0xffffffffffffffffffffffffffffffffffffffff\n      and\n      sub\n        /* \"@openzeppelin/contracts/token/ERC20/ERC20.sol\":10550:10618  require(owner != address(0), \"ERC20: approve from the zero address\") */\n      tag_211\n      jumpi\n      mload(0x40)\n      0x08c379a000000000000000000000000000000000000000000000000000000000\n      dup2\n      mstore\n      0x04\n      add\n      tag_212\n      swap1\n      tag_213\n      jump\t// in\n    tag_212:\n      mload(0x40)\n      dup1\n      swap2\n      sub\n      swap1\n      revert\n    tag_211:\n        /* \"@openzeppelin/contracts/token/ERC20/ERC20.sol\":10655:10656  0 */\n      0x00\n        /* \"@openzeppelin/contracts/token/ERC20/ERC20.sol\":10636:10657  spender != address(0) */\n      0xffffffffffffffffffffffffffffffffffffffff\n      and\n        /* \"@openzeppelin/contracts/token/ERC20/ERC20.sol\":10636:10643  spender */\n      dup3\n        /* \"@openzeppelin/contracts/token/ERC20/ERC20.sol\":10636:10657  spender != address(0) */\n      0xffffffffffffffffffffffffffffffffffffffff\n      and\n      sub\n        /* \"@openzeppelin/contracts/token/ERC20/ERC20.sol\":10628:10696  require(spender != address(0), \"ERC20: approve to the zero address\") */\n      tag_214\n      jumpi\n      mload(0x40)\n      0x08c379a000000000000000000000000000000000000000000000000000000000\n      dup2\n      mstore\n      0x04\n      add\n      tag_215\n      swap1\n      tag_216\n      jump\t// in\n    tag_215:\n      mload(0x40)\n      dup1\n      swap2\n      sub\n      swap1\n      revert\n    tag_214:\n        /* \"@openzeppelin/contracts/token/ERC20/ERC20.sol\":10737:10743  amount */\n      dup1\n        /* \"@openzeppelin/contracts/token/ERC20/ERC20.sol\":10707:10718  _allowances */\n      0x01\n        /* \"@openzeppelin/contracts/token/ERC20/ERC20.sol\":10707:10725  _allowances[owner] */\n      0x00\n        /* \"@openzeppelin/contracts/token/ERC20/ERC20.sol\":10719:10724  owner */\n      dup6\n        /* \"@openzeppelin/contracts/token/ERC20/ERC20.sol\":10707:10725  _allowances[owner] */\n      0xffffffffffffffffffffffffffffffffffffffff\n      and\n      0xffffffffffffffffffffffffffffffffffffffff\n      and\n      dup2\n      mstore\n      0x20\n      add\n      swap1\n      dup2\n      mstore\n      0x20\n      add\n      0x00\n      keccak256\n        /* \"@openzeppelin/contracts/token/ERC20/ERC20.sol\":10707:10734  _allowances[owner][spender] */\n      0x00\n        /* \"@openzeppelin/contracts/token/ERC20/ERC20.sol\":10726:10733  spender */\n      dup5\n        /* \"@openzeppelin/contracts/token/ERC20/ERC20.sol\":10707:10734  _allowances[owner][spender] */\n      0xffffffffffffffffffffffffffffffffffffffff\n      and\n      0xffffffffffffffffffffffffffffffffffffffff\n      and\n      dup2\n      mstore\n      0x20\n      add\n      swap1\n      dup2\n      mstore\n      0x20\n      add\n      0x00\n      keccak256\n        /* \"@openzeppelin/contracts/token/ERC20/ERC20.sol\":10707:10743  _allowances[owner][spender] = amount */\n      dup2\n      swap1\n      sstore\n      pop\n        /* \"@openzeppelin/contracts/token/ERC20/ERC20.sol\":10774:10781  spender */\n      dup2\n        /* \"@openzeppelin/contracts/token/ERC20/ERC20.sol\":10758:10790  Approval(owner, spender, amount) */\n      0xffffffffffffffffffffffffffffffffffffffff\n      and\n        /* \"@openzeppelin/contracts/token/ERC20/ERC20.sol\":10767:10772  owner */\n      dup4\n        /* \"@openzeppelin/contracts/token/ERC20/ERC20.sol\":10758:10790  Approval(owner, spender, amount) */\n      0xffffffffffffffffffffffffffffffffffffffff\n      and\n      0x8c5be1e5ebec7d5bd14f71427d1e84f3dd0314c0f7b2291e5b200ac8c7c3b925\n        /* \"@openzeppelin/contracts/token/ERC20/ERC20.sol\":10783:10789  amount */\n      dup4\n        /* \"@openzeppelin/contracts/token/ERC20/ERC20.sol\":10758:10790  Approval(owner, spender, amount) */\n      mload(0x40)\n      tag_217\n      swap2\n      swap1\n      tag_32\n      jump\t// in\n    tag_217:\n      mload(0x40)\n      dup1\n      swap2\n      sub\n      swap1\n      log3\n        /* \"@openzeppelin/contracts/token/ERC20/ERC20.sol\":10457:10797  function _approve(address owner, address spender, uint256 amount) internal virtual {... */\n      pop\n      pop\n      pop\n      jump\t// out\n        /* \"@openzeppelin/contracts/token/ERC20/ERC20.sol\":11078:11489  function _spendAllowance(address owner, address spender, uint256 amount) internal virtual {... */\n    tag_137:\n        /* \"@openzeppelin/contracts/token/ERC20/ERC20.sol\":11178:11202  uint256 currentAllowance */\n      0x00\n        /* \"@openzeppelin/contracts/token/ERC20/ERC20.sol\":11205:11230  allowance(owner, spender) */\n      tag_219\n        /* \"@openzeppelin/contracts/token/ERC20/ERC20.sol\":11215:11220  owner */\n      dup5\n        /* \"@openzeppelin/contracts/token/ERC20/ERC20.sol\":11222:11229  spender */\n      dup5\n        /* \"@openzeppelin/contracts/token/ERC20/ERC20.sol\":11205:11214  allowance */\n      tag_115\n        /* \"@openzeppelin/contracts/token/ERC20/ERC20.sol\":11205:11230  allowance(owner, spender) */\n      jump\t// in\n    tag_219:\n        /* \"@openzeppelin/contracts/token/ERC20/ERC20.sol\":11178:11230  uint256 currentAllowance = allowance(owner, spender) */\n      swap1\n      pop\n        /* \"@openzeppelin/contracts/token/ERC20/ERC20.sol\":11264:11281  type(uint256).max */\n      0xffffffffffffffffffffffffffffffffffffffffffffffffffffffffffffffff\n        /* \"@openzeppelin/contracts/token/ERC20/ERC20.sol\":11244:11260  currentAllowance */\n      dup2\n        /* \"@openzeppelin/contracts/token/ERC20/ERC20.sol\":11244:11281  currentAllowance != type(uint256).max */\n      eq\n        /* \"@openzeppelin/contracts/token/ERC20/ERC20.sol\":11240:11483  if (currentAllowance != type(uint256).max) {... */\n      tag_220\n      jumpi\n        /* \"@openzeppelin/contracts/token/ERC20/ERC20.sol\":11325:11331  amount */\n      dup2\n        /* \"@openzeppelin/contracts/token/ERC20/ERC20.sol\":11305:11321  currentAllowance */\n      dup2\n        /* \"@openzeppelin/contracts/token/ERC20/ERC20.sol\":11305:11331  currentAllowance >= amount */\n      lt\n      iszero\n        /* \"@openzeppelin/contracts/token/ERC20/ERC20.sol\":11297:11365  require(currentAllowance >= amount, \"ERC20: insufficient allowance\") */\n      tag_221\n      jumpi\n      mload(0x40)\n      0x08c379a000000000000000000000000000000000000000000000000000000000\n      dup2\n      mstore\n      0x04\n      add\n      tag_222\n      swap1\n      tag_223\n      jump\t// in\n    tag_222:\n      mload(0x40)\n      dup1\n      swap2\n      sub\n      swap1\n      revert\n    tag_221:\n        /* \"@openzeppelin/contracts/token/ERC20/ERC20.sol\":11407:11458  _approve(owner, spender, currentAllowance - amount) */\n      tag_224\n        /* \"@openzeppelin/contracts/token/ERC20/ERC20.sol\":11416:11421  owner */\n      dup5\n        /* \"@openzeppelin/contracts/token/ERC20/ERC20.sol\":11423:11430  spender */\n      dup5\n        /* \"@openzeppelin/contracts/token/ERC20/ERC20.sol\":11451:11457  amount */\n      dup5\n        /* \"@openzeppelin/contracts/token/ERC20/ERC20.sol\":11432:11448  currentAllowance */\n      dup5\n        /* \"@openzeppelin/contracts/token/ERC20/ERC20.sol\":11432:11457  currentAllowance - amount */\n      sub\n        /* \"@openzeppelin/contracts/token/ERC20/ERC20.sol\":11407:11415  _approve */\n      tag_131\n        /* \"@openzeppelin/contracts/token/ERC20/ERC20.sol\":11407:11458  _approve(owner, spender, currentAllowance - amount) */\n      jump\t// in\n    tag_224:\n        /* \"@openzeppelin/contracts/token/ERC20/ERC20.sol\":11240:11483  if (currentAllowance != type(uint256).max) {... */\n    tag_220:\n        /* \"@openzeppelin/contracts/token/ERC20/ERC20.sol\":11168:11489  {... */\n      pop\n        /* \"@openzeppelin/contracts/token/ERC20/ERC20.sol\":11078:11489  function _spendAllowance(address owner, address spender, uint256 amount) internal virtual {... */\n      pop\n      pop\n      pop\n      jump\t// out\n        /* \"@openzeppelin/contracts/token/ERC20/ERC20.sol\":7456:8244  function _transfer(address from, address to, uint256 amount) internal virtual {... */\n    tag_139:\n        /* \"@openzeppelin/contracts/token/ERC20/ERC20.sol\":7568:7569  0 */\n      0x00\n        /* \"@openzeppelin/contracts/token/ERC20/ERC20.sol\":7552:7570  from != address(0) */\n      0xffffffffffffffffffffffffffffffffffffffff\n      and\n        /* \"@openzeppelin/contracts/token/ERC20/ERC20.sol\":7552:7556  from */\n      dup4\n        /* \"@openzeppelin/contracts/token/ERC20/ERC20.sol\":7552:7570  from != address(0) */\n      0xffffffffffffffffffffffffffffffffffffffff\n      and\n      sub\n        /* \"@openzeppelin/contracts/token/ERC20/ERC20.sol\":7544:7612  require(from != address(0), \"ERC20: transfer from the zero address\") */\n      tag_226\n      jumpi\n      mload(0x40)\n      0x08c379a000000000000000000000000000000000000000000000000000000000\n      dup2\n      mstore\n      0x04\n      add\n      tag_227\n      swap1\n      tag_228\n      jump\t// in\n    tag_227:\n      mload(0x40)\n      dup1\n      swap2\n      sub\n      swap1\n      revert\n    tag_226:\n        /* \"@openzeppelin/contracts/token/ERC20/ERC20.sol\":7644:7645  0 */\n      0x00\n        /* \"@openzeppelin/contracts/token/ERC20/ERC20.sol\":7630:7646  to != address(0) */\n      0xffffffffffffffffffffffffffffffffffffffff\n      and\n        /* \"@openzeppelin/contracts/token/ERC20/ERC20.sol\":7630:7632  to */\n      dup3\n        /* \"@openzeppelin/contracts/token/ERC20/ERC20.sol\":7630:7646  to != address(0) */\n      0xffffffffffffffffffffffffffffffffffffffff\n      and\n      sub\n        /* \"@openzeppelin/contracts/token/ERC20/ERC20.sol\":7622:7686  require(to != address(0), \"ERC20: transfer to the zero address\") */\n      tag_229\n      jumpi\n      mload(0x40)\n      0x08c379a000000000000000000000000000000000000000000000000000000000\n      dup2\n      mstore\n      0x04\n      add\n      tag_230\n      swap1\n      tag_231\n      jump\t// in\n    tag_230:\n      mload(0x40)\n      dup1\n      swap2\n      sub\n      swap1\n      revert\n    tag_229:\n        /* \"@openzeppelin/contracts/token/ERC20/ERC20.sol\":7697:7735  _beforeTokenTransfer(from, to, amount) */\n      tag_232\n        /* \"@openzeppelin/contracts/token/ERC20/ERC20.sol\":7718:7722  from */\n      dup4\n        /* \"@openzeppelin/contracts/token/ERC20/ERC20.sol\":7724:7726  to */\n      dup4\n        /* \"@openzeppelin/contracts/token/ERC20/ERC20.sol\":7728:7734  amount */\n      dup4\n        /* \"@openzeppelin/contracts/token/ERC20/ERC20.sol\":7697:7717  _beforeTokenTransfer */\n      tag_233\n        /* \"@openzeppelin/contracts/token/ERC20/ERC20.sol\":7697:7735  _beforeTokenTransfer(from, to, amount) */\n      jump\t// in\n    tag_232:\n        /* \"@openzeppelin/contracts/token/ERC20/ERC20.sol\":7746:7765  uint256 fromBalance */\n      0x00\n        /* \"@openzeppelin/contracts/token/ERC20/ERC20.sol\":7768:7777  _balances */\n      dup1\n        /* \"@openzeppelin/contracts/token/ERC20/ERC20.sol\":7768:7783  _balances[from] */\n      0x00\n        /* \"@openzeppelin/contracts/token/ERC20/ERC20.sol\":7778:7782  from */\n      dup6\n        /* \"@openzeppelin/contracts/token/ERC20/ERC20.sol\":7768:7783  _balances[from] */\n      0xffffffffffffffffffffffffffffffffffffffff\n      and\n      0xffffffffffffffffffffffffffffffffffffffff\n      and\n      dup2\n      mstore\n      0x20\n      add\n      swap1\n      dup2\n      mstore\n      0x20\n      add\n      0x00\n      keccak256\n      sload\n        /* \"@openzeppelin/contracts/token/ERC20/ERC20.sol\":7746:7783  uint256 fromBalance = _balances[from] */\n      swap1\n      pop\n        /* \"@openzeppelin/contracts/token/ERC20/ERC20.sol\":7816:7822  amount */\n      dup2\n        /* \"@openzeppelin/contracts/token/ERC20/ERC20.sol\":7801:7812  fromBalance */\n      dup2\n        /* \"@openzeppelin/contracts/token/ERC20/ERC20.sol\":7801:7822  fromBalance >= amount */\n      lt\n      iszero\n        /* \"@openzeppelin/contracts/token/ERC20/ERC20.sol\":7793:7865  require(fromBalance >= amount, \"ERC20: transfer amount exceeds balance\") */\n      tag_234\n      jumpi\n      mload(0x40)\n      0x08c379a000000000000000000000000000000000000000000000000000000000\n      dup2\n      mstore\n      0x04\n      add\n      tag_235\n      swap1\n      tag_236\n      jump\t// in\n    tag_235:\n      mload(0x40)\n      dup1\n      swap2\n      sub\n      swap1\n      revert\n    tag_234:\n        /* \"@openzeppelin/contracts/token/ERC20/ERC20.sol\":7931:7937  amount */\n      dup2\n        /* \"@openzeppelin/contracts/token/ERC20/ERC20.sol\":7917:7928  fromBalance */\n      dup2\n        /* \"@openzeppelin/contracts/token/ERC20/ERC20.sol\":7917:7937  fromBalance - amount */\n      sub\n        /* \"@openzeppelin/contracts/token/ERC20/ERC20.sol\":7899:7908  _balances */\n      0x00\n        /* \"@openzeppelin/contracts/token/ERC20/ERC20.sol\":7899:7914  _balances[from] */\n      dup1\n        /* \"@openzeppelin/contracts/token/ERC20/ERC20.sol\":7909:7913  from */\n      dup7\n        /* \"@openzeppelin/contracts/token/ERC20/ERC20.sol\":7899:7914  _balances[from] */\n      0xffffffffffffffffffffffffffffffffffffffff\n      and\n      0xffffffffffffffffffffffffffffffffffffffff\n      and\n      dup2\n      mstore\n      0x20\n      add\n      swap1\n      dup2\n      mstore\n      0x20\n      add\n      0x00\n      keccak256\n        /* \"@openzeppelin/contracts/token/ERC20/ERC20.sol\":7899:7937  _balances[from] = fromBalance - amount */\n      dup2\n      swap1\n      sstore\n      pop\n        /* \"@openzeppelin/contracts/token/ERC20/ERC20.sol\":8131:8137  amount */\n      dup2\n        /* \"@openzeppelin/contracts/token/ERC20/ERC20.sol\":8114:8123  _balances */\n      0x00\n        /* \"@openzeppelin/contracts/token/ERC20/ERC20.sol\":8114:8127  _balances[to] */\n      dup1\n        /* \"@openzeppelin/contracts/token/ERC20/ERC20.sol\":8124:8126  to */\n      dup6\n        /* \"@openzeppelin/contracts/token/ERC20/ERC20.sol\":8114:8127  _balances[to] */\n      0xffffffffffffffffffffffffffffffffffffffff\n      and\n      0xffffffffffffffffffffffffffffffffffffffff\n      and\n      dup2\n      mstore\n      0x20\n      add\n      swap1\n      dup2\n      mstore\n      0x20\n      add\n      0x00\n      keccak256\n      0x00\n        /* \"@openzeppelin/contracts/token/ERC20/ERC20.sol\":8114:8137  _balances[to] += amount */\n      dup3\n      dup3\n      sload\n      add\n      swap3\n      pop\n      pop\n      dup2\n      swap1\n      sstore\n      pop\n        /* \"@openzeppelin/contracts/token/ERC20/ERC20.sol\":8178:8180  to */\n      dup3\n        /* \"@openzeppelin/contracts/token/ERC20/ERC20.sol\":8163:8189  Transfer(from, to, amount) */\n      0xffffffffffffffffffffffffffffffffffffffff\n      and\n        /* \"@openzeppelin/contracts/token/ERC20/ERC20.sol\":8172:8176  from */\n      dup5\n        /* \"@openzeppelin/contracts/token/ERC20/ERC20.sol\":8163:8189  Transfer(from, to, amount) */\n      0xffffffffffffffffffffffffffffffffffffffff\n      and\n      0xddf252ad1be2c89b69c2b068fc378daa952ba7f163c4a11628f55a4df523b3ef\n        /* \"@openzeppelin/contracts/token/ERC20/ERC20.sol\":8182:8188  amount */\n      dup5\n        /* \"@openzeppelin/contracts/token/ERC20/ERC20.sol\":8163:8189  Transfer(from, to, amount) */\n      mload(0x40)\n      tag_237\n      swap2\n      swap1\n      tag_32\n      jump\t// in\n    tag_237:\n      mload(0x40)\n      dup1\n      swap2\n      sub\n      swap1\n      log3\n        /* \"@openzeppelin/contracts/token/ERC20/ERC20.sol\":8200:8237  _afterTokenTransfer(from, to, amount) */\n      tag_238\n        /* \"@openzeppelin/contracts/token/ERC20/ERC20.sol\":8220:8224  from */\n      dup5\n        /* \"@openzeppelin/contracts/token/ERC20/ERC20.sol\":8226:8228  to */\n      dup5\n        /* \"@openzeppelin/contracts/token/ERC20/ERC20.sol\":8230:8236  amount */\n      dup5\n        /* \"@openzeppelin/contracts/token/ERC20/ERC20.sol\":8200:8219  _afterTokenTransfer */\n      tag_239\n        /* \"@openzeppelin/contracts/token/ERC20/ERC20.sol\":8200:8237  _afterTokenTransfer(from, to, amount) */\n      jump\t// in\n    tag_238:\n        /* \"@openzeppelin/contracts/token/ERC20/ERC20.sol\":7534:8244  {... */\n      pop\n        /* \"@openzeppelin/contracts/token/ERC20/ERC20.sol\":7456:8244  function _transfer(address from, address to, uint256 amount) internal virtual {... */\n      pop\n      pop\n      pop\n      jump\t// out\n        /* \"@openzeppelin/contracts/token/ERC20/ERC20.sol\":8520:9055  function _mint(address account, uint256 amount) internal virtual {... */\n    tag_146:\n        /* \"@openzeppelin/contracts/token/ERC20/ERC20.sol\":8622:8623  0 */\n      0x00\n        /* \"@openzeppelin/contracts/token/ERC20/ERC20.sol\":8603:8624  account != address(0) */\n      0xffffffffffffffffffffffffffffffffffffffff\n      and\n        /* \"@openzeppelin/contracts/token/ERC20/ERC20.sol\":8603:8610  account */\n      dup3\n        /* \"@openzeppelin/contracts/token/ERC20/ERC20.sol\":8603:8624  account != address(0) */\n      0xffffffffffffffffffffffffffffffffffffffff\n      and\n      sub\n        /* \"@openzeppelin/contracts/token/ERC20/ERC20.sol\":8595:8660  require(account != address(0), \"ERC20: mint to the zero address\") */\n      tag_241\n      jumpi\n      mload(0x40)\n      0x08c379a000000000000000000000000000000000000000000000000000000000\n      dup2\n      mstore\n      0x04\n      add\n      tag_242\n      swap1\n      tag_243\n      jump\t// in\n    tag_242:\n      mload(0x40)\n      dup1\n      swap2\n      sub\n      swap1\n      revert\n    tag_241:\n        /* \"@openzeppelin/contracts/token/ERC20/ERC20.sol\":8671:8720  _beforeTokenTransfer(address(0), account, amount) */\n      tag_244\n        /* \"@openzeppelin/contracts/token/ERC20/ERC20.sol\":8700:8701  0 */\n      0x00\n        /* \"@openzeppelin/contracts/token/ERC20/ERC20.sol\":8704:8711  account */\n      dup4\n        /* \"@openzeppelin/contracts/token/ERC20/ERC20.sol\":8713:8719  amount */\n      dup4\n        /* \"@openzeppelin/contracts/token/ERC20/ERC20.sol\":8671:8691  _beforeTokenTransfer */\n      tag_233\n        /* \"@openzeppelin/contracts/token/ERC20/ERC20.sol\":8671:8720  _beforeTokenTransfer(address(0), account, amount) */\n      jump\t// in\n    tag_244:\n        /* \"@openzeppelin/contracts/token/ERC20/ERC20.sol\":8747:8753  amount */\n      dup1\n        /* \"@openzeppelin/contracts/token/ERC20/ERC20.sol\":8731:8743  _totalSupply */\n      0x02\n      0x00\n        /* \"@openzeppelin/contracts/token/ERC20/ERC20.sol\":8731:8753  _totalSupply += amount */\n      dup3\n      dup3\n      sload\n      tag_245\n      swap2\n      swap1\n      tag_158\n      jump\t// in\n    tag_245:\n      swap3\n      pop\n      pop\n      dup2\n      swap1\n      sstore\n      pop\n        /* \"@openzeppelin/contracts/token/ERC20/ERC20.sol\":8921:8927  amount */\n      dup1\n        /* \"@openzeppelin/contracts/token/ERC20/ERC20.sol\":8899:8908  _balances */\n      0x00\n        /* \"@openzeppelin/contracts/token/ERC20/ERC20.sol\":8899:8917  _balances[account] */\n      dup1\n        /* \"@openzeppelin/contracts/token/ERC20/ERC20.sol\":8909:8916  account */\n      dup5\n        /* \"@openzeppelin/contracts/token/ERC20/ERC20.sol\":8899:8917  _balances[account] */\n      0xffffffffffffffffffffffffffffffffffffffff\n      and\n      0xffffffffffffffffffffffffffffffffffffffff\n      and\n      dup2\n      mstore\n      0x20\n      add\n      swap1\n      dup2\n      mstore\n      0x20\n      add\n      0x00\n      keccak256\n      0x00\n        /* \"@openzeppelin/contracts/token/ERC20/ERC20.sol\":8899:8927  _balances[account] += amount */\n      dup3\n      dup3\n      sload\n      add\n      swap3\n      pop\n      pop\n      dup2\n      swap1\n      sstore\n      pop\n        /* \"@openzeppelin/contracts/token/ERC20/ERC20.sol\":8973:8980  account */\n      dup2\n        /* \"@openzeppelin/contracts/token/ERC20/ERC20.sol\":8952:8989  Transfer(address(0), account, amount) */\n      0xffffffffffffffffffffffffffffffffffffffff\n      and\n        /* \"@openzeppelin/contracts/token/ERC20/ERC20.sol\":8969:8970  0 */\n      0x00\n        /* \"@openzeppelin/contracts/token/ERC20/ERC20.sol\":8952:8989  Transfer(address(0), account, amount) */\n      0xffffffffffffffffffffffffffffffffffffffff\n      and\n      0xddf252ad1be2c89b69c2b068fc378daa952ba7f163c4a11628f55a4df523b3ef\n        /* \"@openzeppelin/contracts/token/ERC20/ERC20.sol\":8982:8988  amount */\n      dup4\n        /* \"@openzeppelin/contracts/token/ERC20/ERC20.sol\":8952:8989  Transfer(address(0), account, amount) */\n      mload(0x40)\n      tag_246\n      swap2\n      swap1\n      tag_32\n      jump\t// in\n    tag_246:\n      mload(0x40)\n      dup1\n      swap2\n      sub\n      swap1\n      log3\n        /* \"@openzeppelin/contracts/token/ERC20/ERC20.sol\":9000:9048  _afterTokenTransfer(address(0), account, amount) */\n      tag_247\n        /* \"@openzeppelin/contracts/token/ERC20/ERC20.sol\":9028:9029  0 */\n      0x00\n        /* \"@openzeppelin/contracts/token/ERC20/ERC20.sol\":9032:9039  account */\n      dup4\n        /* \"@openzeppelin/contracts/token/ERC20/ERC20.sol\":9041:9047  amount */\n      dup4\n        /* \"@openzeppelin/contracts/token/ERC20/ERC20.sol\":9000:9019  _afterTokenTransfer */\n      tag_239\n        /* \"@openzeppelin/contracts/token/ERC20/ERC20.sol\":9000:9048  _afterTokenTransfer(address(0), account, amount) */\n      jump\t// in\n    tag_247:\n        /* \"@openzeppelin/contracts/token/ERC20/ERC20.sol\":8520:9055  function _mint(address account, uint256 amount) internal virtual {... */\n      pop\n      pop\n      jump\t// out\n        /* \"@openzeppelin/contracts/access/Ownable.sol\":1359:1489  function _checkOwner() internal view virtual {... */\n    tag_170:\n        /* \"@openzeppelin/contracts/access/Ownable.sol\":1433:1445  _msgSender() */\n      tag_249\n        /* \"@openzeppelin/contracts/access/Ownable.sol\":1433:1443  _msgSender */\n      tag_129\n        /* \"@openzeppelin/contracts/access/Ownable.sol\":1433:1445  _msgSender() */\n      jump\t// in\n    tag_249:\n        /* \"@openzeppelin/contracts/access/Ownable.sol\":1422:1445  owner() == _msgSender() */\n      0xffffffffffffffffffffffffffffffffffffffff\n      and\n        /* \"@openzeppelin/contracts/access/Ownable.sol\":1422:1429  owner() */\n      tag_250\n        /* \"@openzeppelin/contracts/access/Ownable.sol\":1422:1427  owner */\n      tag_96\n        /* \"@openzeppelin/contracts/access/Ownable.sol\":1422:1429  owner() */\n      jump\t// in\n    tag_250:\n        /* \"@openzeppelin/contracts/access/Ownable.sol\":1422:1445  owner() == _msgSender() */\n      0xffffffffffffffffffffffffffffffffffffffff\n      and\n      eq\n        /* \"@openzeppelin/contracts/access/Ownable.sol\":1414:1482  require(owner() == _msgSender(), \"Ownable: caller is not the owner\") */\n      tag_251\n      jumpi\n      mload(0x40)\n      0x08c379a000000000000000000000000000000000000000000000000000000000\n      dup2\n      mstore\n      0x04\n      add\n      tag_252\n      swap1\n      tag_253\n      jump\t// in\n    tag_252:\n      mload(0x40)\n      dup1\n      swap2\n      sub\n      swap1\n      revert\n    tag_251:\n        /* \"@openzeppelin/contracts/access/Ownable.sol\":1359:1489  function _checkOwner() internal view virtual {... */\n      jump\t// out\n        /* \"@openzeppelin/contracts/access/Ownable.sol\":2426:2613  function _transferOwnership(address newOwner) internal virtual {... */\n    tag_173:\n        /* \"@openzeppelin/contracts/access/Ownable.sol\":2499:2515  address oldOwner */\n      0x00\n        /* \"@openzeppelin/contracts/access/Ownable.sol\":2518:2524  _owner */\n      0x05\n      0x00\n      swap1\n      sload\n      swap1\n      0x0100\n      exp\n      swap1\n      div\n      0xffffffffffffffffffffffffffffffffffffffff\n      and\n        /* \"@openzeppelin/contracts/access/Ownable.sol\":2499:2524  address oldOwner = _owner */\n      swap1\n      pop\n        /* \"@openzeppelin/contracts/access/Ownable.sol\":2543:2551  newOwner */\n      dup2\n        /* \"@openzeppelin/contracts/access/Ownable.sol\":2534:2540  _owner */\n      0x05\n      0x00\n        /* \"@openzeppelin/contracts/access/Ownable.sol\":2534:2551  _owner = newOwner */\n      0x0100\n      exp\n      dup2\n      sload\n      dup2\n      0xffffffffffffffffffffffffffffffffffffffff\n      mul\n      not\n      and\n      swap1\n      dup4\n      0xffffffffffffffffffffffffffffffffffffffff\n      and\n      mul\n      or\n      swap1\n      sstore\n      pop\n        /* \"@openzeppelin/contracts/access/Ownable.sol\":2597:2605  newOwner */\n      dup2\n        /* \"@openzeppelin/contracts/access/Ownable.sol\":2566:2606  OwnershipTransferred(oldOwner, newOwner) */\n      0xffffffffffffffffffffffffffffffffffffffff\n      and\n        /* \"@openzeppelin/contracts/access/Ownable.sol\":2587:2595  oldOwner */\n      dup2\n        /* \"@openzeppelin/contracts/access/Ownable.sol\":2566:2606  OwnershipTransferred(oldOwner, newOwner) */\n      0xffffffffffffffffffffffffffffffffffffffff\n      and\n      0x8be0079c531659141344cd1fd0a4f28419497f9722a3daafe3b4186f6b6457e0\n      mload(0x40)\n      mload(0x40)\n      dup1\n      swap2\n      sub\n      swap1\n      log3\n        /* \"@openzeppelin/contracts/access/Ownable.sol\":2489:2613  {... */\n      pop\n        /* \"@openzeppelin/contracts/access/Ownable.sol\":2426:2613  function _transferOwnership(address newOwner) internal virtual {... */\n      pop\n      jump\t// out\n        /* \"@openzeppelin/contracts/token/ERC20/ERC20.sol\":12073:12164  function _beforeTokenTransfer(address from, address to, uint256 amount) internal virtual {} */\n    tag_233:\n      pop\n      pop\n      pop\n      jump\t// out\n        /* \"@openzeppelin/contracts/token/ERC20/ERC20.sol\":12752:12842  function _afterTokenTransfer(address from, address to, uint256 amount) internal virtual {} */\n    tag_239:\n      pop\n      pop\n      pop\n      jump\t// out\n        /* \"#utility.yul\":7:84   */\n    tag_257:\n        /* \"#utility.yul\":44:51   */\n      0x00\n        /* \"#utility.yul\":73:78   */\n      dup2\n        /* \"#utility.yul\":62:78   */\n      swap1\n      pop\n        /* \"#utility.yul\":7:84   */\n      swap2\n      swap1\n      pop\n      jump\t// out\n        /* \"#utility.yul\":90:208   */\n    tag_258:\n        /* \"#utility.yul\":177:201   */\n      tag_323\n        /* \"#utility.yul\":195:200   */\n      dup2\n        /* \"#utility.yul\":177:201   */\n      tag_257\n      jump\t// in\n    tag_323:\n        /* \"#utility.yul\":172:175   */\n      dup3\n        /* \"#utility.yul\":165:202   */\n      mstore\n        /* \"#utility.yul\":90:208   */\n      pop\n      pop\n      jump\t// out\n        /* \"#utility.yul\":214:436   */\n    tag_32:\n        /* \"#utility.yul\":307:311   */\n      0x00\n        /* \"#utility.yul\":345:347   */\n      0x20\n        /* \"#utility.yul\":334:343   */\n      dup3\n        /* \"#utility.yul\":330:348   */\n      add\n        /* \"#utility.yul\":322:348   */\n      swap1\n      pop\n        /* \"#utility.yul\":358:429   */\n      tag_325\n        /* \"#utility.yul\":426:427   */\n      0x00\n        /* \"#utility.yul\":415:424   */\n      dup4\n        /* \"#utility.yul\":411:428   */\n      add\n        /* \"#utility.yul\":402:408   */\n      dup5\n        /* \"#utility.yul\":358:429   */\n      tag_258\n      jump\t// in\n    tag_325:\n        /* \"#utility.yul\":214:436   */\n      swap3\n      swap2\n      pop\n      pop\n      jump\t// out\n        /* \"#utility.yul\":442:541   */\n    tag_259:\n        /* \"#utility.yul\":494:500   */\n      0x00\n        /* \"#utility.yul\":528:533   */\n      dup2\n        /* \"#utility.yul\":522:534   */\n      mload\n        /* \"#utility.yul\":512:534   */\n      swap1\n      pop\n        /* \"#utility.yul\":442:541   */\n      swap2\n      swap1\n      pop\n      jump\t// out\n        /* \"#utility.yul\":547:716   */\n    tag_260:\n        /* \"#utility.yul\":631:642   */\n      0x00\n        /* \"#utility.yul\":665:671   */\n      dup3\n        /* \"#utility.yul\":660:663   */\n      dup3\n        /* \"#utility.yul\":653:672   */\n      mstore\n        /* \"#utility.yul\":705:709   */\n      0x20\n        /* \"#utility.yul\":700:703   */\n      dup3\n        /* \"#utility.yul\":696:710   */\n      add\n        /* \"#utility.yul\":681:710   */\n      swap1\n      pop\n        /* \"#utility.yul\":547:716   */\n      swap3\n      swap2\n      pop\n      pop\n      jump\t// out\n        /* \"#utility.yul\":722:968   */\n    tag_261:\n        /* \"#utility.yul\":803:804   */\n      0x00\n        /* \"#utility.yul\":813:926   */\n    tag_329:\n        /* \"#utility.yul\":827:833   */\n      dup4\n        /* \"#utility.yul\":824:825   */\n      dup2\n        /* \"#utility.yul\":821:834   */\n      lt\n        /* \"#utility.yul\":813:926   */\n      iszero\n      tag_331\n      jumpi\n        /* \"#utility.yul\":912:913   */\n      dup1\n        /* \"#utility.yul\":907:910   */\n      dup3\n        /* \"#utility.yul\":903:914   */\n      add\n        /* \"#utility.yul\":897:915   */\n      mload\n        /* \"#utility.yul\":893:894   */\n      dup2\n        /* \"#utility.yul\":888:891   */\n      dup5\n        /* \"#utility.yul\":884:895   */\n      add\n        /* \"#utility.yul\":877:916   */\n      mstore\n        /* \"#utility.yul\":849:851   */\n      0x20\n        /* \"#utility.yul\":846:847   */\n      dup2\n        /* \"#utility.yul\":842:852   */\n      add\n        /* \"#utility.yul\":837:852   */\n      swap1\n      pop\n        /* \"#utility.yul\":813:926   */\n      jump(tag_329)\n    tag_331:\n        /* \"#utility.yul\":960:961   */\n      0x00\n        /* \"#utility.yul\":951:957   */\n      dup5\n        /* \"#utility.yul\":946:949   */\n      dup5\n        /* \"#utility.yul\":942:958   */\n      add\n        /* \"#utility.yul\":935:962   */\n      mstore\n        /* \"#utility.yul\":784:968   */\n      pop\n        /* \"#utility.yul\":722:968   */\n      pop\n      pop\n      pop\n      jump\t// out\n        /* \"#utility.yul\":974:1076   */\n    tag_262:\n        /* \"#utility.yul\":1015:1021   */\n      0x00\n        /* \"#utility.yul\":1066:1068   */\n      0x1f\n        /* \"#utility.yul\":1062:1069   */\n      not\n        /* \"#utility.yul\":1057:1059   */\n      0x1f\n        /* \"#utility.yul\":1050:1055   */\n      dup4\n        /* \"#utility.yul\":1046:1060   */\n      add\n        /* \"#utility.yul\":1042:1070   */\n      and\n        /* \"#utility.yul\":1032:1070   */\n      swap1\n      pop\n        /* \"#utility.yul\":974:1076   */\n      swap2\n      swap1\n      pop\n      jump\t// out\n        /* \"#utility.yul\":1082:1459   */\n    tag_263:\n        /* \"#utility.yul\":1170:1173   */\n      0x00\n        /* \"#utility.yul\":1198:1237   */\n      tag_334\n        /* \"#utility.yul\":1231:1236   */\n      dup3\n        /* \"#utility.yul\":1198:1237   */\n      tag_259\n      jump\t// in\n    tag_334:\n        /* \"#utility.yul\":1253:1324   */\n      tag_335\n        /* \"#utility.yul\":1317:1323   */\n      dup2\n        /* \"#utility.yul\":1312:1315   */\n      dup6\n        /* \"#utility.yul\":1253:1324   */\n      tag_260\n      jump\t// in\n    tag_335:\n        /* \"#utility.yul\":1246:1324   */\n      swap4\n      pop\n        /* \"#utility.yul\":1333:1398   */\n      tag_336\n        /* \"#utility.yul\":1391:1397   */\n      dup2\n        /* \"#utility.yul\":1386:1389   */\n      dup6\n        /* \"#utility.yul\":1379:1383   */\n      0x20\n        /* \"#utility.yul\":1372:1377   */\n      dup7\n        /* \"#utility.yul\":1368:1384   */\n      add\n        /* \"#utility.yul\":1333:1398   */\n      tag_261\n      jump\t// in\n    tag_336:\n        /* \"#utility.yul\":1423:1452   */\n      tag_337\n        /* \"#utility.yul\":1445:1451   */\n      dup2\n        /* \"#utility.yul\":1423:1452   */\n      tag_262\n      jump\t// in\n    tag_337:\n        /* \"#utility.yul\":1418:1421   */\n      dup5\n        /* \"#utility.yul\":1414:1453   */\n      add\n        /* \"#utility.yul\":1407:1453   */\n      swap2\n      pop\n        /* \"#utility.yul\":1174:1459   */\n      pop\n        /* \"#utility.yul\":1082:1459   */\n      swap3\n      swap2\n      pop\n      pop\n      jump\t// out\n        /* \"#utility.yul\":1465:1778   */\n    tag_36:\n        /* \"#utility.yul\":1578:1582   */\n      0x00\n        /* \"#utility.yul\":1616:1618   */\n      0x20\n        /* \"#utility.yul\":1605:1614   */\n      dup3\n        /* \"#utility.yul\":1601:1619   */\n      add\n        /* \"#utility.yul\":1593:1619   */\n      swap1\n      pop\n        /* \"#utility.yul\":1665:1674   */\n      dup2\n        /* \"#utility.yul\":1659:1663   */\n      dup2\n        /* \"#utility.yul\":1655:1675   */\n      sub\n        /* \"#utility.yul\":1651:1652   */\n      0x00\n        /* \"#utility.yul\":1640:1649   */\n      dup4\n        /* \"#utility.yul\":1636:1653   */\n      add\n        /* \"#utility.yul\":1629:1676   */\n      mstore\n        /* \"#utility.yul\":1693:1771   */\n      tag_339\n        /* \"#utility.yul\":1766:1770   */\n      dup2\n        /* \"#utility.yul\":1757:1763   */\n      dup5\n        /* \"#utility.yul\":1693:1771   */\n      tag_263\n      jump\t// in\n    tag_339:\n        /* \"#utility.yul\":1685:1771   */\n      swap1\n      pop\n        /* \"#utility.yul\":1465:1778   */\n      swap3\n      swap2\n      pop\n      pop\n      jump\t// out\n        /* \"#utility.yul\":1784:1859   */\n    tag_264:\n        /* \"#utility.yul\":1817:1823   */\n      0x00\n        /* \"#utility.yul\":1850:1852   */\n      0x40\n        /* \"#utility.yul\":1844:1853   */\n      mload\n        /* \"#utility.yul\":1834:1853   */\n      swap1\n      pop\n        /* \"#utility.yul\":1784:1859   */\n      swap1\n      jump\t// out\n        /* \"#utility.yul\":1865:1982   */\n    tag_265:\n        /* \"#utility.yul\":1974:1975   */\n      0x00\n        /* \"#utility.yul\":1971:1972   */\n      dup1\n        /* \"#utility.yul\":1964:1976   */\n      revert\n        /* \"#utility.yul\":1988:2105   */\n    tag_266:\n        /* \"#utility.yul\":2097:2098   */\n      0x00\n        /* \"#utility.yul\":2094:2095   */\n      dup1\n        /* \"#utility.yul\":2087:2099   */\n      revert\n        /* \"#utility.yul\":2111:2237   */\n    tag_267:\n        /* \"#utility.yul\":2148:2155   */\n      0x00\n        /* \"#utility.yul\":2188:2230   */\n      0xffffffffffffffffffffffffffffffffffffffff\n        /* \"#utility.yul\":2181:2186   */\n      dup3\n        /* \"#utility.yul\":2177:2231   */\n      and\n        /* \"#utility.yul\":2166:2231   */\n      swap1\n      pop\n        /* \"#utility.yul\":2111:2237   */\n      swap2\n      swap1\n      pop\n      jump\t// out\n        /* \"#utility.yul\":2243:2339   */\n    tag_268:\n        /* \"#utility.yul\":2280:2287   */\n      0x00\n        /* \"#utility.yul\":2309:2333   */\n      tag_345\n        /* \"#utility.yul\":2327:2332   */\n      dup3\n        /* \"#utility.yul\":2309:2333   */\n      tag_267\n      jump\t// in\n    tag_345:\n        /* \"#utility.yul\":2298:2333   */\n      swap1\n      pop\n        /* \"#utility.yul\":2243:2339   */\n      swap2\n      swap1\n      pop\n      jump\t// out\n        /* \"#utility.yul\":2345:2467   */\n    tag_269:\n        /* \"#utility.yul\":2418:2442   */\n      tag_347\n        /* \"#utility.yul\":2436:2441   */\n      dup2\n        /* \"#utility.yul\":2418:2442   */\n      tag_268\n      jump\t// in\n    tag_347:\n        /* \"#utility.yul\":2411:2416   */\n      dup2\n        /* \"#utility.yul\":2408:2443   */\n      eq\n        /* \"#utility.yul\":2398:2461   */\n      tag_348\n      jumpi\n        /* \"#utility.yul\":2457:2458   */\n      0x00\n        /* \"#utility.yul\":2454:2455   */\n      dup1\n        /* \"#utility.yul\":2447:2459   */\n      revert\n        /* \"#utility.yul\":2398:2461   */\n    tag_348:\n        /* \"#utility.yul\":2345:2467   */\n      pop\n      jump\t// out\n        /* \"#utility.yul\":2473:2612   */\n    tag_270:\n        /* \"#utility.yul\":2519:2524   */\n      0x00\n        /* \"#utility.yul\":2557:2563   */\n      dup2\n        /* \"#utility.yul\":2544:2564   */\n      calldataload\n        /* \"#utility.yul\":2535:2564   */\n      swap1\n      pop\n        /* \"#utility.yul\":2573:2606   */\n      tag_350\n        /* \"#utility.yul\":2600:2605   */\n      dup2\n        /* \"#utility.yul\":2573:2606   */\n      tag_269\n      jump\t// in\n    tag_350:\n        /* \"#utility.yul\":2473:2612   */\n      swap3\n      swap2\n      pop\n      pop\n      jump\t// out\n        /* \"#utility.yul\":2618:2740   */\n    tag_271:\n        /* \"#utility.yul\":2691:2715   */\n      tag_352\n        /* \"#utility.yul\":2709:2714   */\n      dup2\n        /* \"#utility.yul\":2691:2715   */\n      tag_257\n      jump\t// in\n    tag_352:\n        /* \"#utility.yul\":2684:2689   */\n      dup2\n        /* \"#utility.yul\":2681:2716   */\n      eq\n        /* \"#utility.yul\":2671:2734   */\n      tag_353\n      jumpi\n        /* \"#utility.yul\":2730:2731   */\n      0x00\n        /* \"#utility.yul\":2727:2728   */\n      dup1\n        /* \"#utility.yul\":2720:2732   */\n      revert\n        /* \"#utility.yul\":2671:2734   */\n    tag_353:\n        /* \"#utility.yul\":2618:2740   */\n      pop\n      jump\t// out\n        /* \"#utility.yul\":2746:2885   */\n    tag_272:\n        /* \"#utility.yul\":2792:2797   */\n      0x00\n        /* \"#utility.yul\":2830:2836   */\n      dup2\n        /* \"#utility.yul\":2817:2837   */\n      calldataload\n        /* \"#utility.yul\":2808:2837   */\n      swap1\n      pop\n        /* \"#utility.yul\":2846:2879   */\n      tag_355\n        /* \"#utility.yul\":2873:2878   */\n      dup2\n        /* \"#utility.yul\":2846:2879   */\n      tag_271\n      jump\t// in\n    tag_355:\n        /* \"#utility.yul\":2746:2885   */\n      swap3\n      swap2\n      pop\n      pop\n      jump\t// out\n        /* \"#utility.yul\":2891:3365   */\n    tag_39:\n        /* \"#utility.yul\":2959:2965   */\n      0x00\n        /* \"#utility.yul\":2967:2973   */\n      dup1\n        /* \"#utility.yul\":3016:3018   */\n      0x40\n        /* \"#utility.yul\":3004:3013   */\n      dup4\n        /* \"#utility.yul\":2995:3002   */\n      dup6\n        /* \"#utility.yul\":2991:3014   */\n      sub\n        /* \"#utility.yul\":2987:3019   */\n      slt\n        /* \"#utility.yul\":2984:3103   */\n      iszero\n      tag_357\n      jumpi\n        /* \"#utility.yul\":3022:3101   */\n      tag_358\n      tag_265\n      jump\t// in\n    tag_358:\n        /* \"#utility.yul\":2984:3103   */\n    tag_357:\n        /* \"#utility.yul\":3142:3143   */\n      0x00\n        /* \"#utility.yul\":3167:3220   */\n      tag_359\n        /* \"#utility.yul\":3212:3219   */\n      dup6\n        /* \"#utility.yul\":3203:3209   */\n      dup3\n        /* \"#utility.yul\":3192:3201   */\n      dup7\n        /* \"#utility.yul\":3188:3210   */\n      add\n        /* \"#utility.yul\":3167:3220   */\n      tag_270\n      jump\t// in\n    tag_359:\n        /* \"#utility.yul\":3157:3220   */\n      swap3\n      pop\n        /* \"#utility.yul\":3113:3230   */\n      pop\n        /* \"#utility.yul\":3269:3271   */\n      0x20\n        /* \"#utility.yul\":3295:3348   */\n      tag_360\n        /* \"#utility.yul\":3340:3347   */\n      dup6\n        /* \"#utility.yul\":3331:3337   */\n      dup3\n        /* \"#utility.yul\":3320:3329   */\n      dup7\n        /* \"#utility.yul\":3316:3338   */\n      add\n        /* \"#utility.yul\":3295:3348   */\n      tag_272\n      jump\t// in\n    tag_360:\n        /* \"#utility.yul\":3285:3348   */\n      swap2\n      pop\n        /* \"#utility.yul\":3240:3358   */\n      pop\n        /* \"#utility.yul\":2891:3365   */\n      swap3\n      pop\n      swap3\n      swap1\n      pop\n      jump\t// out\n        /* \"#utility.yul\":3371:3461   */\n    tag_273:\n        /* \"#utility.yul\":3405:3412   */\n      0x00\n        /* \"#utility.yul\":3448:3453   */\n      dup2\n        /* \"#utility.yul\":3441:3454   */\n      iszero\n        /* \"#utility.yul\":3434:3455   */\n      iszero\n        /* \"#utility.yul\":3423:3455   */\n      swap1\n      pop\n        /* \"#utility.yul\":3371:3461   */\n      swap2\n      swap1\n      pop\n      jump\t// out\n        /* \"#utility.yul\":3467:3576   */\n    tag_274:\n        /* \"#utility.yul\":3548:3569   */\n      tag_363\n        /* \"#utility.yul\":3563:3568   */\n      dup2\n        /* \"#utility.yul\":3548:3569   */\n      tag_273\n      jump\t// in\n    tag_363:\n        /* \"#utility.yul\":3543:3546   */\n      dup3\n        /* \"#utility.yul\":3536:3570   */\n      mstore\n        /* \"#utility.yul\":3467:3576   */\n      pop\n      pop\n      jump\t// out\n        /* \"#utility.yul\":3582:3792   */\n    tag_42:\n        /* \"#utility.yul\":3669:3673   */\n      0x00\n        /* \"#utility.yul\":3707:3709   */\n      0x20\n        /* \"#utility.yul\":3696:3705   */\n      dup3\n        /* \"#utility.yul\":3692:3710   */\n      add\n        /* \"#utility.yul\":3684:3710   */\n      swap1\n      pop\n        /* \"#utility.yul\":3720:3785   */\n      tag_365\n        /* \"#utility.yul\":3782:3783   */\n      0x00\n        /* \"#utility.yul\":3771:3780   */\n      dup4\n        /* \"#utility.yul\":3767:3784   */\n      add\n        /* \"#utility.yul\":3758:3764   */\n      dup5\n        /* \"#utility.yul\":3720:3785   */\n      tag_274\n      jump\t// in\n    tag_365:\n        /* \"#utility.yul\":3582:3792   */\n      swap3\n      swap2\n      pop\n      pop\n      jump\t// out\n        /* \"#utility.yul\":3798:3915   */\n    tag_275:\n        /* \"#utility.yul\":3907:3908   */\n      0x00\n        /* \"#utility.yul\":3904:3905   */\n      dup1\n        /* \"#utility.yul\":3897:3909   */\n      revert\n        /* \"#utility.yul\":3921:4038   */\n    tag_276:\n        /* \"#utility.yul\":4030:4031   */\n      0x00\n        /* \"#utility.yul\":4027:4028   */\n      dup1\n        /* \"#utility.yul\":4020:4032   */\n      revert\n        /* \"#utility.yul\":4044:4224   */\n    tag_277:\n        /* \"#utility.yul\":4092:4169   */\n      0x4e487b7100000000000000000000000000000000000000000000000000000000\n        /* \"#utility.yul\":4089:4090   */\n      0x00\n        /* \"#utility.yul\":4082:4170   */\n      mstore\n        /* \"#utility.yul\":4189:4193   */\n      0x41\n        /* \"#utility.yul\":4186:4187   */\n      0x04\n        /* \"#utility.yul\":4179:4194   */\n      mstore\n        /* \"#utility.yul\":4213:4217   */\n      0x24\n        /* \"#utility.yul\":4210:4211   */\n      0x00\n        /* \"#utility.yul\":4203:4218   */\n      revert\n        /* \"#utility.yul\":4230:4511   */\n    tag_278:\n        /* \"#utility.yul\":4313:4340   */\n      tag_370\n        /* \"#utility.yul\":4335:4339   */\n      dup3\n        /* \"#utility.yul\":4313:4340   */\n      tag_262\n      jump\t// in\n    tag_370:\n        /* \"#utility.yul\":4305:4311   */\n      dup2\n        /* \"#utility.yul\":4301:4341   */\n      add\n        /* \"#utility.yul\":4443:4449   */\n      dup2\n        /* \"#utility.yul\":4431:4441   */\n      dup2\n        /* \"#utility.yul\":4428:4450   */\n      lt\n        /* \"#utility.yul\":4407:4425   */\n      0xffffffffffffffff\n        /* \"#utility.yul\":4395:4405   */\n      dup3\n        /* \"#utility.yul\":4392:4426   */\n      gt\n        /* \"#utility.yul\":4389:4451   */\n      or\n        /* \"#utility.yul\":4386:4474   */\n      iszero\n      tag_371\n      jumpi\n        /* \"#utility.yul\":4454:4472   */\n      tag_372\n      tag_277\n      jump\t// in\n    tag_372:\n        /* \"#utility.yul\":4386:4474   */\n    tag_371:\n        /* \"#utility.yul\":4494:4504   */\n      dup1\n        /* \"#utility.yul\":4490:4492   */\n      0x40\n        /* \"#utility.yul\":4483:4505   */\n      mstore\n        /* \"#utility.yul\":4273:4511   */\n      pop\n        /* \"#utility.yul\":4230:4511   */\n      pop\n      pop\n      jump\t// out\n        /* \"#utility.yul\":4517:4646   */\n    tag_279:\n        /* \"#utility.yul\":4551:4557   */\n      0x00\n        /* \"#utility.yul\":4578:4598   */\n      tag_374\n      tag_264\n      jump\t// in\n    tag_374:\n        /* \"#utility.yul\":4568:4598   */\n      swap1\n      pop\n        /* \"#utility.yul\":4607:4640   */\n      tag_375\n        /* \"#utility.yul\":4635:4639   */\n      dup3\n        /* \"#utility.yul\":4627:4633   */\n      dup3\n        /* \"#utility.yul\":4607:4640   */\n      tag_278\n      jump\t// in\n    tag_375:\n        /* \"#utility.yul\":4517:4646   */\n      swap2\n      swap1\n      pop\n      jump\t// out\n        /* \"#utility.yul\":4652:4959   */\n    tag_280:\n        /* \"#utility.yul\":4713:4717   */\n      0x00\n        /* \"#utility.yul\":4803:4821   */\n      0xffffffffffffffff\n        /* \"#utility.yul\":4795:4801   */\n      dup3\n        /* \"#utility.yul\":4792:4822   */\n      gt\n        /* \"#utility.yul\":4789:4845   */\n      iszero\n      tag_377\n      jumpi\n        /* \"#utility.yul\":4825:4843   */\n      tag_378\n      tag_277\n      jump\t// in\n    tag_378:\n        /* \"#utility.yul\":4789:4845   */\n    tag_377:\n        /* \"#utility.yul\":4863:4892   */\n      tag_379\n        /* \"#utility.yul\":4885:4891   */\n      dup3\n        /* \"#utility.yul\":4863:4892   */\n      tag_262\n      jump\t// in\n    tag_379:\n        /* \"#utility.yul\":4855:4892   */\n      swap1\n      pop\n        /* \"#utility.yul\":4947:4951   */\n      0x20\n        /* \"#utility.yul\":4941:4945   */\n      dup2\n        /* \"#utility.yul\":4937:4952   */\n      add\n        /* \"#utility.yul\":4929:4952   */\n      swap1\n      pop\n        /* \"#utility.yul\":4652:4959   */\n      swap2\n      swap1\n      pop\n      jump\t// out\n        /* \"#utility.yul\":4965:5111   */\n    tag_281:\n        /* \"#utility.yul\":5062:5068   */\n      dup3\n        /* \"#utility.yul\":5057:5060   */\n      dup2\n        /* \"#utility.yul\":5052:5055   */\n      dup4\n        /* \"#utility.yul\":5039:5069   */\n      calldatacopy\n        /* \"#utility.yul\":5103:5104   */\n      0x00\n        /* \"#utility.yul\":5094:5100   */\n      dup4\n        /* \"#utility.yul\":5089:5092   */\n      dup4\n        /* \"#utility.yul\":5085:5101   */\n      add\n        /* \"#utility.yul\":5078:5105   */\n      mstore\n        /* \"#utility.yul\":4965:5111   */\n      pop\n      pop\n      pop\n      jump\t// out\n        /* \"#utility.yul\":5117:5540   */\n    tag_282:\n        /* \"#utility.yul\":5194:5199   */\n      0x00\n        /* \"#utility.yul\":5219:5284   */\n      tag_382\n        /* \"#utility.yul\":5235:5283   */\n      tag_383\n        /* \"#utility.yul\":5276:5282   */\n      dup5\n        /* \"#utility.yul\":5235:5283   */\n      tag_280\n      jump\t// in\n    tag_383:\n        /* \"#utility.yul\":5219:5284   */\n      tag_279\n      jump\t// in\n    tag_382:\n        /* \"#utility.yul\":5210:5284   */\n      swap1\n      pop\n        /* \"#utility.yul\":5307:5313   */\n      dup3\n        /* \"#utility.yul\":5300:5305   */\n      dup2\n        /* \"#utility.yul\":5293:5314   */\n      mstore\n        /* \"#utility.yul\":5345:5349   */\n      0x20\n        /* \"#utility.yul\":5338:5343   */\n      dup2\n        /* \"#utility.yul\":5334:5350   */\n      add\n        /* \"#utility.yul\":5383:5386   */\n      dup5\n        /* \"#utility.yul\":5374:5380   */\n      dup5\n        /* \"#utility.yul\":5369:5372   */\n      dup5\n        /* \"#utility.yul\":5365:5381   */\n      add\n        /* \"#utility.yul\":5362:5387   */\n      gt\n        /* \"#utility.yul\":5359:5471   */\n      iszero\n      tag_384\n      jumpi\n        /* \"#utility.yul\":5390:5469   */\n      tag_385\n      tag_276\n      jump\t// in\n    tag_385:\n        /* \"#utility.yul\":5359:5471   */\n    tag_384:\n        /* \"#utility.yul\":5480:5534   */\n      tag_386\n        /* \"#utility.yul\":5527:5533   */\n      dup5\n        /* \"#utility.yul\":5522:5525   */\n      dup3\n        /* \"#utility.yul\":5517:5520   */\n      dup6\n        /* \"#utility.yul\":5480:5534   */\n      tag_281\n      jump\t// in\n    tag_386:\n        /* \"#utility.yul\":5200:5540   */\n      pop\n        /* \"#utility.yul\":5117:5540   */\n      swap4\n      swap3\n      pop\n      pop\n      pop\n      jump\t// out\n        /* \"#utility.yul\":5559:5897   */\n    tag_283:\n        /* \"#utility.yul\":5614:5619   */\n      0x00\n        /* \"#utility.yul\":5663:5666   */\n      dup3\n        /* \"#utility.yul\":5656:5660   */\n      0x1f\n        /* \"#utility.yul\":5648:5654   */\n      dup4\n        /* \"#utility.yul\":5644:5661   */\n      add\n        /* \"#utility.yul\":5640:5667   */\n      slt\n        /* \"#utility.yul\":5630:5752   */\n      tag_388\n      jumpi\n        /* \"#utility.yul\":5671:5750   */\n      tag_389\n      tag_275\n      jump\t// in\n    tag_389:\n        /* \"#utility.yul\":5630:5752   */\n    tag_388:\n        /* \"#utility.yul\":5788:5794   */\n      dup2\n        /* \"#utility.yul\":5775:5795   */\n      calldataload\n        /* \"#utility.yul\":5813:5891   */\n      tag_390\n        /* \"#utility.yul\":5887:5890   */\n      dup5\n        /* \"#utility.yul\":5879:5885   */\n      dup3\n        /* \"#utility.yul\":5872:5876   */\n      0x20\n        /* \"#utility.yul\":5864:5870   */\n      dup7\n        /* \"#utility.yul\":5860:5877   */\n      add\n        /* \"#utility.yul\":5813:5891   */\n      tag_282\n      jump\t// in\n    tag_390:\n        /* \"#utility.yul\":5804:5891   */\n      swap2\n      pop\n        /* \"#utility.yul\":5620:5897   */\n      pop\n        /* \"#utility.yul\":5559:5897   */\n      swap3\n      swap2\n      pop\n      pop\n      jump\t// out\n        /* \"#utility.yul\":5903:6846   */\n    tag_45:\n        /* \"#utility.yul\":5998:6004   */\n      0x00\n        /* \"#utility.yul\":6006:6012   */\n      dup1\n        /* \"#utility.yul\":6014:6020   */\n      0x00\n        /* \"#utility.yul\":6022:6028   */\n      dup1\n        /* \"#utility.yul\":6071:6074   */\n      0x80\n        /* \"#utility.yul\":6059:6068   */\n      dup6\n        /* \"#utility.yul\":6050:6057   */\n      dup8\n        /* \"#utility.yul\":6046:6069   */\n      sub\n        /* \"#utility.yul\":6042:6075   */\n      slt\n        /* \"#utility.yul\":6039:6159   */\n      iszero\n      tag_392\n      jumpi\n        /* \"#utility.yul\":6078:6157   */\n      tag_393\n      tag_265\n      jump\t// in\n    tag_393:\n        /* \"#utility.yul\":6039:6159   */\n    tag_392:\n        /* \"#utility.yul\":6198:6199   */\n      0x00\n        /* \"#utility.yul\":6223:6276   */\n      tag_394\n        /* \"#utility.yul\":6268:6275   */\n      dup8\n        /* \"#utility.yul\":6259:6265   */\n      dup3\n        /* \"#utility.yul\":6248:6257   */\n      dup9\n        /* \"#utility.yul\":6244:6266   */\n      add\n        /* \"#utility.yul\":6223:6276   */\n      tag_270\n      jump\t// in\n    tag_394:\n        /* \"#utility.yul\":6213:6276   */\n      swap5\n      pop\n        /* \"#utility.yul\":6169:6286   */\n      pop\n        /* \"#utility.yul\":6325:6327   */\n      0x20\n        /* \"#utility.yul\":6351:6404   */\n      tag_395\n        /* \"#utility.yul\":6396:6403   */\n      dup8\n        /* \"#utility.yul\":6387:6393   */\n      dup3\n        /* \"#utility.yul\":6376:6385   */\n      dup9\n        /* \"#utility.yul\":6372:6394   */\n      add\n        /* \"#utility.yul\":6351:6404   */\n      tag_270\n      jump\t// in\n    tag_395:\n        /* \"#utility.yul\":6341:6404   */\n      swap4\n      pop\n        /* \"#utility.yul\":6296:6414   */\n      pop\n        /* \"#utility.yul\":6453:6455   */\n      0x40\n        /* \"#utility.yul\":6479:6532   */\n      tag_396\n        /* \"#utility.yul\":6524:6531   */\n      dup8\n        /* \"#utility.yul\":6515:6521   */\n      dup3\n        /* \"#utility.yul\":6504:6513   */\n      dup9\n        /* \"#utility.yul\":6500:6522   */\n      add\n        /* \"#utility.yul\":6479:6532   */\n      tag_272\n      jump\t// in\n    tag_396:\n        /* \"#utility.yul\":6469:6532   */\n      swap3\n      pop\n        /* \"#utility.yul\":6424:6542   */\n      pop\n        /* \"#utility.yul\":6609:6611   */\n      0x60\n        /* \"#utility.yul\":6598:6607   */\n      dup6\n        /* \"#utility.yul\":6594:6612   */\n      add\n        /* \"#utility.yul\":6581:6613   */\n      calldataload\n        /* \"#utility.yul\":6640:6658   */\n      0xffffffffffffffff\n        /* \"#utility.yul\":6632:6638   */\n      dup2\n        /* \"#utility.yul\":6629:6659   */\n      gt\n        /* \"#utility.yul\":6626:6743   */\n      iszero\n      tag_397\n      jumpi\n        /* \"#utility.yul\":6662:6741   */\n      tag_398\n      tag_266\n      jump\t// in\n    tag_398:\n        /* \"#utility.yul\":6626:6743   */\n    tag_397:\n        /* \"#utility.yul\":6767:6829   */\n      tag_399\n        /* \"#utility.yul\":6821:6828   */\n      dup8\n        /* \"#utility.yul\":6812:6818   */\n      dup3\n        /* \"#utility.yul\":6801:6810   */\n      dup9\n        /* \"#utility.yul\":6797:6819   */\n      add\n        /* \"#utility.yul\":6767:6829   */\n      tag_283\n      jump\t// in\n    tag_399:\n        /* \"#utility.yul\":6757:6829   */\n      swap2\n      pop\n        /* \"#utility.yul\":6552:6839   */\n      pop\n        /* \"#utility.yul\":5903:6846   */\n      swap3\n      swap6\n      swap2\n      swap5\n      pop\n      swap3\n      pop\n      jump\t// out\n        /* \"#utility.yul\":6852:7001   */\n    tag_284:\n        /* \"#utility.yul\":6888:6895   */\n      0x00\n        /* \"#utility.yul\":6928:6994   */\n      0xffffffff00000000000000000000000000000000000000000000000000000000\n        /* \"#utility.yul\":6921:6926   */\n      dup3\n        /* \"#utility.yul\":6917:6995   */\n      and\n        /* \"#utility.yul\":6906:6995   */\n      swap1\n      pop\n        /* \"#utility.yul\":6852:7001   */\n      swap2\n      swap1\n      pop\n      jump\t// out\n        /* \"#utility.yul\":7007:7122   */\n    tag_285:\n        /* \"#utility.yul\":7092:7115   */\n      tag_402\n        /* \"#utility.yul\":7109:7114   */\n      dup2\n        /* \"#utility.yul\":7092:7115   */\n      tag_284\n      jump\t// in\n    tag_402:\n        /* \"#utility.yul\":7087:7090   */\n      dup3\n        /* \"#utility.yul\":7080:7116   */\n      mstore\n        /* \"#utility.yul\":7007:7122   */\n      pop\n      pop\n      jump\t// out\n        /* \"#utility.yul\":7128:7346   */\n    tag_48:\n        /* \"#utility.yul\":7219:7223   */\n      0x00\n        /* \"#utility.yul\":7257:7259   */\n      0x20\n        /* \"#utility.yul\":7246:7255   */\n      dup3\n        /* \"#utility.yul\":7242:7260   */\n      add\n        /* \"#utility.yul\":7234:7260   */\n      swap1\n      pop\n        /* \"#utility.yul\":7270:7339   */\n      tag_404\n        /* \"#utility.yul\":7336:7337   */\n      0x00\n        /* \"#utility.yul\":7325:7334   */\n      dup4\n        /* \"#utility.yul\":7321:7338   */\n      add\n        /* \"#utility.yul\":7312:7318   */\n      dup5\n        /* \"#utility.yul\":7270:7339   */\n      tag_285\n      jump\t// in\n    tag_404:\n        /* \"#utility.yul\":7128:7346   */\n      swap3\n      swap2\n      pop\n      pop\n      jump\t// out\n        /* \"#utility.yul\":7352:7971   */\n    tag_54:\n        /* \"#utility.yul\":7429:7435   */\n      0x00\n        /* \"#utility.yul\":7437:7443   */\n      dup1\n        /* \"#utility.yul\":7445:7451   */\n      0x00\n        /* \"#utility.yul\":7494:7496   */\n      0x60\n        /* \"#utility.yul\":7482:7491   */\n      dup5\n        /* \"#utility.yul\":7473:7480   */\n      dup7\n        /* \"#utility.yul\":7469:7492   */\n      sub\n        /* \"#utility.yul\":7465:7497   */\n      slt\n        /* \"#utility.yul\":7462:7581   */\n      iszero\n      tag_406\n      jumpi\n        /* \"#utility.yul\":7500:7579   */\n      tag_407\n      tag_265\n      jump\t// in\n    tag_407:\n        /* \"#utility.yul\":7462:7581   */\n    tag_406:\n        /* \"#utility.yul\":7620:7621   */\n      0x00\n        /* \"#utility.yul\":7645:7698   */\n      tag_408\n        /* \"#utility.yul\":7690:7697   */\n      dup7\n        /* \"#utility.yul\":7681:7687   */\n      dup3\n        /* \"#utility.yul\":7670:7679   */\n      dup8\n        /* \"#utility.yul\":7666:7688   */\n      add\n        /* \"#utility.yul\":7645:7698   */\n      tag_270\n      jump\t// in\n    tag_408:\n        /* \"#utility.yul\":7635:7698   */\n      swap4\n      pop\n        /* \"#utility.yul\":7591:7708   */\n      pop\n        /* \"#utility.yul\":7747:7749   */\n      0x20\n        /* \"#utility.yul\":7773:7826   */\n      tag_409\n        /* \"#utility.yul\":7818:7825   */\n      dup7\n        /* \"#utility.yul\":7809:7815   */\n      dup3\n        /* \"#utility.yul\":7798:7807   */\n      dup8\n        /* \"#utility.yul\":7794:7816   */\n      add\n        /* \"#utility.yul\":7773:7826   */\n      tag_270\n      jump\t// in\n    tag_409:\n        /* \"#utility.yul\":7763:7826   */\n      swap3\n      pop\n        /* \"#utility.yul\":7718:7836   */\n      pop\n        /* \"#utility.yul\":7875:7877   */\n      0x40\n        /* \"#utility.yul\":7901:7954   */\n      tag_410\n        /* \"#utility.yul\":7946:7953   */\n      dup7\n        /* \"#utility.yul\":7937:7943   */\n      dup3\n        /* \"#utility.yul\":7926:7935   */\n      dup8\n        /* \"#utility.yul\":7922:7944   */\n      add\n        /* \"#utility.yul\":7901:7954   */\n      tag_272\n      jump\t// in\n    tag_410:\n        /* \"#utility.yul\":7891:7954   */\n      swap2\n      pop\n        /* \"#utility.yul\":7846:7964   */\n      pop\n        /* \"#utility.yul\":7352:7971   */\n      swap3\n      pop\n      swap3\n      pop\n      swap3\n      jump\t// out\n        /* \"#utility.yul\":7977:8306   */\n    tag_59:\n        /* \"#utility.yul\":8036:8042   */\n      0x00\n        /* \"#utility.yul\":8085:8087   */\n      0x20\n        /* \"#utility.yul\":8073:8082   */\n      dup3\n        /* \"#utility.yul\":8064:8071   */\n      dup5\n        /* \"#utility.yul\":8060:8083   */\n      sub\n        /* \"#utility.yul\":8056:8088   */\n      slt\n        /* \"#utility.yul\":8053:8172   */\n      iszero\n      tag_412\n      jumpi\n        /* \"#utility.yul\":8091:8170   */\n      tag_413\n      tag_265\n      jump\t// in\n    tag_413:\n        /* \"#utility.yul\":8053:8172   */\n    tag_412:\n        /* \"#utility.yul\":8211:8212   */\n      0x00\n        /* \"#utility.yul\":8236:8289   */\n      tag_414\n        /* \"#utility.yul\":8281:8288   */\n      dup5\n        /* \"#utility.yul\":8272:8278   */\n      dup3\n        /* \"#utility.yul\":8261:8270   */\n      dup6\n        /* \"#utility.yul\":8257:8279   */\n      add\n        /* \"#utility.yul\":8236:8289   */\n      tag_272\n      jump\t// in\n    tag_414:\n        /* \"#utility.yul\":8226:8289   */\n      swap2\n      pop\n        /* \"#utility.yul\":8182:8299   */\n      pop\n        /* \"#utility.yul\":7977:8306   */\n      swap3\n      swap2\n      pop\n      pop\n      jump\t// out\n        /* \"#utility.yul\":8312:8398   */\n    tag_286:\n        /* \"#utility.yul\":8347:8354   */\n      0x00\n        /* \"#utility.yul\":8387:8391   */\n      0xff\n        /* \"#utility.yul\":8380:8385   */\n      dup3\n        /* \"#utility.yul\":8376:8392   */\n      and\n        /* \"#utility.yul\":8365:8392   */\n      swap1\n      pop\n        /* \"#utility.yul\":8312:8398   */\n      swap2\n      swap1\n      pop\n      jump\t// out\n        /* \"#utility.yul\":8404:8516   */\n    tag_287:\n        /* \"#utility.yul\":8487:8509   */\n      tag_417\n        /* \"#utility.yul\":8503:8508   */\n      dup2\n        /* \"#utility.yul\":8487:8509   */\n      tag_286\n      jump\t// in\n    tag_417:\n        /* \"#utility.yul\":8482:8485   */\n      dup3\n        /* \"#utility.yul\":8475:8510   */\n      mstore\n        /* \"#utility.yul\":8404:8516   */\n      pop\n      pop\n      jump\t// out\n        /* \"#utility.yul\":8522:8736   */\n    tag_68:\n        /* \"#utility.yul\":8611:8615   */\n      0x00\n        /* \"#utility.yul\":8649:8651   */\n      0x20\n        /* \"#utility.yul\":8638:8647   */\n      dup3\n        /* \"#utility.yul\":8634:8652   */\n      add\n        /* \"#utility.yul\":8626:8652   */\n      swap1\n      pop\n        /* \"#utility.yul\":8662:8729   */\n      tag_419\n        /* \"#utility.yul\":8726:8727   */\n      0x00\n        /* \"#utility.yul\":8715:8724   */\n      dup4\n        /* \"#utility.yul\":8711:8728   */\n      add\n        /* \"#utility.yul\":8702:8708   */\n      dup5\n        /* \"#utility.yul\":8662:8729   */\n      tag_287\n      jump\t// in\n    tag_419:\n        /* \"#utility.yul\":8522:8736   */\n      swap3\n      swap2\n      pop\n      pop\n      jump\t// out\n        /* \"#utility.yul\":8742:8802   */\n    tag_288:\n        /* \"#utility.yul\":8770:8773   */\n      0x00\n        /* \"#utility.yul\":8791:8796   */\n      dup2\n        /* \"#utility.yul\":8784:8796   */\n      swap1\n      pop\n        /* \"#utility.yul\":8742:8802   */\n      swap2\n      swap1\n      pop\n      jump\t// out\n        /* \"#utility.yul\":8808:8950   */\n    tag_289:\n        /* \"#utility.yul\":8858:8867   */\n      0x00\n        /* \"#utility.yul\":8891:8944   */\n      tag_422\n        /* \"#utility.yul\":8909:8943   */\n      tag_423\n        /* \"#utility.yul\":8918:8942   */\n      tag_424\n        /* \"#utility.yul\":8936:8941   */\n      dup5\n        /* \"#utility.yul\":8918:8942   */\n      tag_267\n      jump\t// in\n    tag_424:\n        /* \"#utility.yul\":8909:8943   */\n      tag_288\n      jump\t// in\n    tag_423:\n        /* \"#utility.yul\":8891:8944   */\n      tag_267\n      jump\t// in\n    tag_422:\n        /* \"#utility.yul\":8878:8944   */\n      swap1\n      pop\n        /* \"#utility.yul\":8808:8950   */\n      swap2\n      swap1\n      pop\n      jump\t// out\n        /* \"#utility.yul\":8956:9082   */\n    tag_290:\n        /* \"#utility.yul\":9006:9015   */\n      0x00\n        /* \"#utility.yul\":9039:9076   */\n      tag_426\n        /* \"#utility.yul\":9070:9075   */\n      dup3\n        /* \"#utility.yul\":9039:9076   */\n      tag_289\n      jump\t// in\n    tag_426:\n        /* \"#utility.yul\":9026:9076   */\n      swap1\n      pop\n        /* \"#utility.yul\":8956:9082   */\n      swap2\n      swap1\n      pop\n      jump\t// out\n        /* \"#utility.yul\":9088:9229   */\n    tag_291:\n        /* \"#utility.yul\":9153:9162   */\n      0x00\n        /* \"#utility.yul\":9186:9223   */\n      tag_428\n        /* \"#utility.yul\":9217:9222   */\n      dup3\n        /* \"#utility.yul\":9186:9223   */\n      tag_290\n      jump\t// in\n    tag_428:\n        /* \"#utility.yul\":9173:9223   */\n      swap1\n      pop\n        /* \"#utility.yul\":9088:9229   */\n      swap2\n      swap1\n      pop\n      jump\t// out\n        /* \"#utility.yul\":9235:9396   */\n    tag_292:\n        /* \"#utility.yul\":9337:9389   */\n      tag_430\n        /* \"#utility.yul\":9383:9388   */\n      dup2\n        /* \"#utility.yul\":9337:9389   */\n      tag_291\n      jump\t// in\n    tag_430:\n        /* \"#utility.yul\":9332:9335   */\n      dup3\n        /* \"#utility.yul\":9325:9390   */\n      mstore\n        /* \"#utility.yul\":9235:9396   */\n      pop\n      pop\n      jump\t// out\n        /* \"#utility.yul\":9402:9654   */\n    tag_76:\n        /* \"#utility.yul\":9510:9514   */\n      0x00\n        /* \"#utility.yul\":9548:9550   */\n      0x20\n        /* \"#utility.yul\":9537:9546   */\n      dup3\n        /* \"#utility.yul\":9533:9551   */\n      add\n        /* \"#utility.yul\":9525:9551   */\n      swap1\n      pop\n        /* \"#utility.yul\":9561:9647   */\n      tag_432\n        /* \"#utility.yul\":9644:9645   */\n      0x00\n        /* \"#utility.yul\":9633:9642   */\n      dup4\n        /* \"#utility.yul\":9629:9646   */\n      add\n        /* \"#utility.yul\":9620:9626   */\n      dup5\n        /* \"#utility.yul\":9561:9647   */\n      tag_292\n      jump\t// in\n    tag_432:\n        /* \"#utility.yul\":9402:9654   */\n      swap3\n      swap2\n      pop\n      pop\n      jump\t// out\n        /* \"#utility.yul\":9660:9989   */\n    tag_81:\n        /* \"#utility.yul\":9719:9725   */\n      0x00\n        /* \"#utility.yul\":9768:9770   */\n      0x20\n        /* \"#utility.yul\":9756:9765   */\n      dup3\n        /* \"#utility.yul\":9747:9754   */\n      dup5\n        /* \"#utility.yul\":9743:9766   */\n      sub\n        /* \"#utility.yul\":9739:9771   */\n      slt\n        /* \"#utility.yul\":9736:9855   */\n      iszero\n      tag_434\n      jumpi\n        /* \"#utility.yul\":9774:9853   */\n      tag_435\n      tag_265\n      jump\t// in\n    tag_435:\n        /* \"#utility.yul\":9736:9855   */\n    tag_434:\n        /* \"#utility.yul\":9894:9895   */\n      0x00\n        /* \"#utility.yul\":9919:9972   */\n      tag_436\n        /* \"#utility.yul\":9964:9971   */\n      dup5\n        /* \"#utility.yul\":9955:9961   */\n      dup3\n        /* \"#utility.yul\":9944:9953   */\n      dup6\n        /* \"#utility.yul\":9940:9962   */\n      add\n        /* \"#utility.yul\":9919:9972   */\n      tag_270\n      jump\t// in\n    tag_436:\n        /* \"#utility.yul\":9909:9972   */\n      swap2\n      pop\n        /* \"#utility.yul\":9865:9982   */\n      pop\n        /* \"#utility.yul\":9660:9989   */\n      swap3\n      swap2\n      pop\n      pop\n      jump\t// out\n        /* \"#utility.yul\":9995:10113   */\n    tag_293:\n        /* \"#utility.yul\":10082:10106   */\n      tag_438\n        /* \"#utility.yul\":10100:10105   */\n      dup2\n        /* \"#utility.yul\":10082:10106   */\n      tag_268\n      jump\t// in\n    tag_438:\n        /* \"#utility.yul\":10077:10080   */\n      dup3\n        /* \"#utility.yul\":10070:10107   */\n      mstore\n        /* \"#utility.yul\":9995:10113   */\n      pop\n      pop\n      jump\t// out\n        /* \"#utility.yul\":10119:10341   */\n    tag_94:\n        /* \"#utility.yul\":10212:10216   */\n      0x00\n        /* \"#utility.yul\":10250:10252   */\n      0x20\n        /* \"#utility.yul\":10239:10248   */\n      dup3\n        /* \"#utility.yul\":10235:10253   */\n      add\n        /* \"#utility.yul\":10227:10253   */\n      swap1\n      pop\n        /* \"#utility.yul\":10263:10334   */\n      tag_440\n        /* \"#utility.yul\":10331:10332   */\n      0x00\n        /* \"#utility.yul\":10320:10329   */\n      dup4\n        /* \"#utility.yul\":10316:10333   */\n      add\n        /* \"#utility.yul\":10307:10313   */\n      dup5\n        /* \"#utility.yul\":10263:10334   */\n      tag_293\n      jump\t// in\n    tag_440:\n        /* \"#utility.yul\":10119:10341   */\n      swap3\n      swap2\n      pop\n      pop\n      jump\t// out\n        /* \"#utility.yul\":10347:10821   */\n    tag_114:\n        /* \"#utility.yul\":10415:10421   */\n      0x00\n        /* \"#utility.yul\":10423:10429   */\n      dup1\n        /* \"#utility.yul\":10472:10474   */\n      0x40\n        /* \"#utility.yul\":10460:10469   */\n      dup4\n        /* \"#utility.yul\":10451:10458   */\n      dup6\n        /* \"#utility.yul\":10447:10470   */\n      sub\n        /* \"#utility.yul\":10443:10475   */\n      slt\n        /* \"#utility.yul\":10440:10559   */\n      iszero\n      tag_442\n      jumpi\n        /* \"#utility.yul\":10478:10557   */\n      tag_443\n      tag_265\n      jump\t// in\n    tag_443:\n        /* \"#utility.yul\":10440:10559   */\n    tag_442:\n        /* \"#utility.yul\":10598:10599   */\n      0x00\n        /* \"#utility.yul\":10623:10676   */\n      tag_444\n        /* \"#utility.yul\":10668:10675   */\n      dup6\n        /* \"#utility.yul\":10659:10665   */\n      dup3\n        /* \"#utility.yul\":10648:10657   */\n      dup7\n        /* \"#utility.yul\":10644:10666   */\n      add\n        /* \"#utility.yul\":10623:10676   */\n      tag_270\n      jump\t// in\n    tag_444:\n        /* \"#utility.yul\":10613:10676   */\n      swap3\n      pop\n        /* \"#utility.yul\":10569:10686   */\n      pop\n        /* \"#utility.yul\":10725:10727   */\n      0x20\n        /* \"#utility.yul\":10751:10804   */\n      tag_445\n        /* \"#utility.yul\":10796:10803   */\n      dup6\n        /* \"#utility.yul\":10787:10793   */\n      dup3\n        /* \"#utility.yul\":10776:10785   */\n      dup7\n        /* \"#utility.yul\":10772:10794   */\n      add\n        /* \"#utility.yul\":10751:10804   */\n      tag_270\n      jump\t// in\n    tag_445:\n        /* \"#utility.yul\":10741:10804   */\n      swap2\n      pop\n        /* \"#utility.yul\":10696:10814   */\n      pop\n        /* \"#utility.yul\":10347:10821   */\n      swap3\n      pop\n      swap3\n      swap1\n      pop\n      jump\t// out\n        /* \"#utility.yul\":10827:11007   */\n    tag_294:\n        /* \"#utility.yul\":10875:10952   */\n      0x4e487b7100000000000000000000000000000000000000000000000000000000\n        /* \"#utility.yul\":10872:10873   */\n      0x00\n        /* \"#utility.yul\":10865:10953   */\n      mstore\n        /* \"#utility.yul\":10972:10976   */\n      0x22\n        /* \"#utility.yul\":10969:10970   */\n      0x04\n        /* \"#utility.yul\":10962:10977   */\n      mstore\n        /* \"#utility.yul\":10996:11000   */\n      0x24\n        /* \"#utility.yul\":10993:10994   */\n      0x00\n        /* \"#utility.yul\":10986:11001   */\n      revert\n        /* \"#utility.yul\":11013:11333   */\n    tag_122:\n        /* \"#utility.yul\":11057:11063   */\n      0x00\n        /* \"#utility.yul\":11094:11095   */\n      0x02\n        /* \"#utility.yul\":11088:11092   */\n      dup3\n        /* \"#utility.yul\":11084:11096   */\n      div\n        /* \"#utility.yul\":11074:11096   */\n      swap1\n      pop\n        /* \"#utility.yul\":11141:11142   */\n      0x01\n        /* \"#utility.yul\":11135:11139   */\n      dup3\n        /* \"#utility.yul\":11131:11143   */\n      and\n        /* \"#utility.yul\":11162:11180   */\n      dup1\n        /* \"#utility.yul\":11152:11233   */\n      tag_448\n      jumpi\n        /* \"#utility.yul\":11218:11222   */\n      0x7f\n        /* \"#utility.yul\":11210:11216   */\n      dup3\n        /* \"#utility.yul\":11206:11223   */\n      and\n        /* \"#utility.yul\":11196:11223   */\n      swap2\n      pop\n        /* \"#utility.yul\":11152:11233   */\n    tag_448:\n        /* \"#utility.yul\":11280:11282   */\n      0x20\n        /* \"#utility.yul\":11272:11278   */\n      dup3\n        /* \"#utility.yul\":11269:11283   */\n      lt\n        /* \"#utility.yul\":11249:11267   */\n      dup2\n        /* \"#utility.yul\":11246:11284   */\n      sub\n        /* \"#utility.yul\":11243:11327   */\n      tag_449\n      jumpi\n        /* \"#utility.yul\":11299:11317   */\n      tag_450\n      tag_294\n      jump\t// in\n    tag_450:\n        /* \"#utility.yul\":11243:11327   */\n    tag_449:\n        /* \"#utility.yul\":11064:11333   */\n      pop\n        /* \"#utility.yul\":11013:11333   */\n      swap2\n      swap1\n      pop\n      jump\t// out\n        /* \"#utility.yul\":11339:11506   */\n    tag_295:\n        /* \"#utility.yul\":11479:11498   */\n      0x596f752063616e277420756e7374616b65000000000000000000000000000000\n        /* \"#utility.yul\":11475:11476   */\n      0x00\n        /* \"#utility.yul\":11467:11473   */\n      dup3\n        /* \"#utility.yul\":11463:11477   */\n      add\n        /* \"#utility.yul\":11456:11499   */\n      mstore\n        /* \"#utility.yul\":11339:11506   */\n      pop\n      jump\t// out\n        /* \"#utility.yul\":11512:11878   */\n    tag_296:\n        /* \"#utility.yul\":11654:11657   */\n      0x00\n        /* \"#utility.yul\":11675:11742   */\n      tag_453\n        /* \"#utility.yul\":11739:11741   */\n      0x11\n        /* \"#utility.yul\":11734:11737   */\n      dup4\n        /* \"#utility.yul\":11675:11742   */\n      tag_260\n      jump\t// in\n    tag_453:\n        /* \"#utility.yul\":11668:11742   */\n      swap2\n      pop\n        /* \"#utility.yul\":11751:11844   */\n      tag_454\n        /* \"#utility.yul\":11840:11843   */\n      dup3\n        /* \"#utility.yul\":11751:11844   */\n      tag_295\n      jump\t// in\n    tag_454:\n        /* \"#utility.yul\":11869:11871   */\n      0x20\n        /* \"#utility.yul\":11864:11867   */\n      dup3\n        /* \"#utility.yul\":11860:11872   */\n      add\n        /* \"#utility.yul\":11853:11872   */\n      swap1\n      pop\n        /* \"#utility.yul\":11512:11878   */\n      swap2\n      swap1\n      pop\n      jump\t// out\n        /* \"#utility.yul\":11884:12303   */\n    tag_143:\n        /* \"#utility.yul\":12050:12054   */\n      0x00\n        /* \"#utility.yul\":12088:12090   */\n      0x20\n        /* \"#utility.yul\":12077:12086   */\n      dup3\n        /* \"#utility.yul\":12073:12091   */\n      add\n        /* \"#utility.yul\":12065:12091   */\n      swap1\n      pop\n        /* \"#utility.yul\":12137:12146   */\n      dup2\n        /* \"#utility.yul\":12131:12135   */\n      dup2\n        /* \"#utility.yul\":12127:12147   */\n      sub\n        /* \"#utility.yul\":12123:12124   */\n      0x00\n        /* \"#utility.yul\":12112:12121   */\n      dup4\n        /* \"#utility.yul\":12108:12125   */\n      add\n        /* \"#utility.yul\":12101:12148   */\n      mstore\n        /* \"#utility.yul\":12165:12296   */\n      tag_456\n        /* \"#utility.yul\":12291:12295   */\n      dup2\n        /* \"#utility.yul\":12165:12296   */\n      tag_296\n      jump\t// in\n    tag_456:\n        /* \"#utility.yul\":12157:12296   */\n      swap1\n      pop\n        /* \"#utility.yul\":11884:12303   */\n      swap2\n      swap1\n      pop\n      jump\t// out\n        /* \"#utility.yul\":12309:12751   */\n    tag_148:\n        /* \"#utility.yul\":12458:12462   */\n      0x00\n        /* \"#utility.yul\":12496:12498   */\n      0x60\n        /* \"#utility.yul\":12485:12494   */\n      dup3\n        /* \"#utility.yul\":12481:12499   */\n      add\n        /* \"#utility.yul\":12473:12499   */\n      swap1\n      pop\n        /* \"#utility.yul\":12509:12580   */\n      tag_458\n        /* \"#utility.yul\":12577:12578   */\n      0x00\n        /* \"#utility.yul\":12566:12575   */\n      dup4\n        /* \"#utility.yul\":12562:12579   */\n      add\n        /* \"#utility.yul\":12553:12559   */\n      dup7\n        /* \"#utility.yul\":12509:12580   */\n      tag_293\n      jump\t// in\n    tag_458:\n        /* \"#utility.yul\":12590:12662   */\n      tag_459\n        /* \"#utility.yul\":12658:12660   */\n      0x20\n        /* \"#utility.yul\":12647:12656   */\n      dup4\n        /* \"#utility.yul\":12643:12661   */\n      add\n        /* \"#utility.yul\":12634:12640   */\n      dup6\n        /* \"#utility.yul\":12590:12662   */\n      tag_293\n      jump\t// in\n    tag_459:\n        /* \"#utility.yul\":12672:12744   */\n      tag_460\n        /* \"#utility.yul\":12740:12742   */\n      0x40\n        /* \"#utility.yul\":12729:12738   */\n      dup4\n        /* \"#utility.yul\":12725:12743   */\n      add\n        /* \"#utility.yul\":12716:12722   */\n      dup5\n        /* \"#utility.yul\":12672:12744   */\n      tag_258\n      jump\t// in\n    tag_460:\n        /* \"#utility.yul\":12309:12751   */\n      swap5\n      swap4\n      pop\n      pop\n      pop\n      pop\n      jump\t// out\n        /* \"#utility.yul\":12757:12937   */\n    tag_297:\n        /* \"#utility.yul\":12805:12882   */\n      0x4e487b7100000000000000000000000000000000000000000000000000000000\n        /* \"#utility.yul\":12802:12803   */\n      0x00\n        /* \"#utility.yul\":12795:12883   */\n      mstore\n        /* \"#utility.yul\":12902:12906   */\n      0x11\n        /* \"#utility.yul\":12899:12900   */\n      0x04\n        /* \"#utility.yul\":12892:12907   */\n      mstore\n        /* \"#utility.yul\":12926:12930   */\n      0x24\n        /* \"#utility.yul\":12923:12924   */\n      0x00\n        /* \"#utility.yul\":12916:12931   */\n      revert\n        /* \"#utility.yul\":12943:13134   */\n    tag_158:\n        /* \"#utility.yul\":12983:12986   */\n      0x00\n        /* \"#utility.yul\":13002:13022   */\n      tag_463\n        /* \"#utility.yul\":13020:13021   */\n      dup3\n        /* \"#utility.yul\":13002:13022   */\n      tag_257\n      jump\t// in\n    tag_463:\n        /* \"#utility.yul\":12997:13022   */\n      swap2\n      pop\n        /* \"#utility.yul\":13036:13056   */\n      tag_464\n        /* \"#utility.yul\":13054:13055   */\n      dup4\n        /* \"#utility.yul\":13036:13056   */\n      tag_257\n      jump\t// in\n    tag_464:\n        /* \"#utility.yul\":13031:13056   */\n      swap3\n      pop\n        /* \"#utility.yul\":13079:13080   */\n      dup3\n        /* \"#utility.yul\":13076:13077   */\n      dup3\n        /* \"#utility.yul\":13072:13081   */\n      add\n        /* \"#utility.yul\":13065:13081   */\n      swap1\n      pop\n        /* \"#utility.yul\":13100:13103   */\n      dup1\n        /* \"#utility.yul\":13097:13098   */\n      dup3\n        /* \"#utility.yul\":13094:13104   */\n      gt\n        /* \"#utility.yul\":13091:13127   */\n      iszero\n      tag_465\n      jumpi\n        /* \"#utility.yul\":13107:13125   */\n      tag_466\n      tag_297\n      jump\t// in\n    tag_466:\n        /* \"#utility.yul\":13091:13127   */\n    tag_465:\n        /* \"#utility.yul\":12943:13134   */\n      swap3\n      swap2\n      pop\n      pop\n      jump\t// out\n        /* \"#utility.yul\":13140:13364   */\n    tag_298:\n        /* \"#utility.yul\":13280:13314   */\n      0x4f6e6c7920746865206f776e65722063616e2063616c6c20746869732066756e\n        /* \"#utility.yul\":13276:13277   */\n      0x00\n        /* \"#utility.yul\":13268:13274   */\n      dup3\n        /* \"#utility.yul\":13264:13278   */\n      add\n        /* \"#utility.yul\":13257:13315   */\n      mstore\n        /* \"#utility.yul\":13349:13356   */\n      0x6374696f6e000000000000000000000000000000000000000000000000000000\n        /* \"#utility.yul\":13344:13346   */\n      0x20\n        /* \"#utility.yul\":13336:13342   */\n      dup3\n        /* \"#utility.yul\":13332:13347   */\n      add\n        /* \"#utility.yul\":13325:13357   */\n      mstore\n        /* \"#utility.yul\":13140:13364   */\n      pop\n      jump\t// out\n        /* \"#utility.yul\":13370:13736   */\n    tag_299:\n        /* \"#utility.yul\":13512:13515   */\n      0x00\n        /* \"#utility.yul\":13533:13600   */\n      tag_469\n        /* \"#utility.yul\":13597:13599   */\n      0x25\n        /* \"#utility.yul\":13592:13595   */\n      dup4\n        /* \"#utility.yul\":13533:13600   */\n      tag_260\n      jump\t// in\n    tag_469:\n        /* \"#utility.yul\":13526:13600   */\n      swap2\n      pop\n        /* \"#utility.yul\":13609:13702   */\n      tag_470\n        /* \"#utility.yul\":13698:13701   */\n      dup3\n        /* \"#utility.yul\":13609:13702   */\n      tag_298\n      jump\t// in\n    tag_470:\n        /* \"#utility.yul\":13727:13729   */\n      0x40\n        /* \"#utility.yul\":13722:13725   */\n      dup3\n        /* \"#utility.yul\":13718:13730   */\n      add\n        /* \"#utility.yul\":13711:13730   */\n      swap1\n      pop\n        /* \"#utility.yul\":13370:13736   */\n      swap2\n      swap1\n      pop\n      jump\t// out\n        /* \"#utility.yul\":13742:14161   */\n    tag_163:\n        /* \"#utility.yul\":13908:13912   */\n      0x00\n        /* \"#utility.yul\":13946:13948   */\n      0x20\n        /* \"#utility.yul\":13935:13944   */\n      dup3\n        /* \"#utility.yul\":13931:13949   */\n      add\n        /* \"#utility.yul\":13923:13949   */\n      swap1\n      pop\n        /* \"#utility.yul\":13995:14004   */\n      dup2\n        /* \"#utility.yul\":13989:13993   */\n      dup2\n        /* \"#utility.yul\":13985:14005   */\n      sub\n        /* \"#utility.yul\":13981:13982   */\n      0x00\n        /* \"#utility.yul\":13970:13979   */\n      dup4\n        /* \"#utility.yul\":13966:13983   */\n      add\n        /* \"#utility.yul\":13959:14006   */\n      mstore\n        /* \"#utility.yul\":14023:14154   */\n      tag_472\n        /* \"#utility.yul\":14149:14153   */\n      dup2\n        /* \"#utility.yul\":14023:14154   */\n      tag_299\n      jump\t// in\n    tag_472:\n        /* \"#utility.yul\":14015:14154   */\n      swap1\n      pop\n        /* \"#utility.yul\":13742:14161   */\n      swap2\n      swap1\n      pop\n      jump\t// out\n        /* \"#utility.yul\":14167:14361   */\n    tag_176:\n        /* \"#utility.yul\":14207:14211   */\n      0x00\n        /* \"#utility.yul\":14227:14247   */\n      tag_474\n        /* \"#utility.yul\":14245:14246   */\n      dup3\n        /* \"#utility.yul\":14227:14247   */\n      tag_257\n      jump\t// in\n    tag_474:\n        /* \"#utility.yul\":14222:14247   */\n      swap2\n      pop\n        /* \"#utility.yul\":14261:14281   */\n      tag_475\n        /* \"#utility.yul\":14279:14280   */\n      dup4\n        /* \"#utility.yul\":14261:14281   */\n      tag_257\n      jump\t// in\n    tag_475:\n        /* \"#utility.yul\":14256:14281   */\n      swap3\n      pop\n        /* \"#utility.yul\":14305:14306   */\n      dup3\n        /* \"#utility.yul\":14302:14303   */\n      dup3\n        /* \"#utility.yul\":14298:14307   */\n      sub\n        /* \"#utility.yul\":14290:14307   */\n      swap1\n      pop\n        /* \"#utility.yul\":14329:14330   */\n      dup2\n        /* \"#utility.yul\":14323:14327   */\n      dup2\n        /* \"#utility.yul\":14320:14331   */\n      gt\n        /* \"#utility.yul\":14317:14354   */\n      iszero\n      tag_476\n      jumpi\n        /* \"#utility.yul\":14334:14352   */\n      tag_477\n      tag_297\n      jump\t// in\n    tag_477:\n        /* \"#utility.yul\":14317:14354   */\n    tag_476:\n        /* \"#utility.yul\":14167:14361   */\n      swap3\n      swap2\n      pop\n      pop\n      jump\t// out\n        /* \"#utility.yul\":14367:14777   */\n    tag_178:\n        /* \"#utility.yul\":14407:14414   */\n      0x00\n        /* \"#utility.yul\":14430:14450   */\n      tag_479\n        /* \"#utility.yul\":14448:14449   */\n      dup3\n        /* \"#utility.yul\":14430:14450   */\n      tag_257\n      jump\t// in\n    tag_479:\n        /* \"#utility.yul\":14425:14450   */\n      swap2\n      pop\n        /* \"#utility.yul\":14464:14484   */\n      tag_480\n        /* \"#utility.yul\":14482:14483   */\n      dup4\n        /* \"#utility.yul\":14464:14484   */\n      tag_257\n      jump\t// in\n    tag_480:\n        /* \"#utility.yul\":14459:14484   */\n      swap3\n      pop\n        /* \"#utility.yul\":14519:14520   */\n      dup3\n        /* \"#utility.yul\":14516:14517   */\n      dup3\n        /* \"#utility.yul\":14512:14521   */\n      mul\n        /* \"#utility.yul\":14541:14571   */\n      tag_481\n        /* \"#utility.yul\":14559:14570   */\n      dup2\n        /* \"#utility.yul\":14541:14571   */\n      tag_257\n      jump\t// in\n    tag_481:\n        /* \"#utility.yul\":14530:14571   */\n      swap2\n      pop\n        /* \"#utility.yul\":14720:14721   */\n      dup3\n        /* \"#utility.yul\":14711:14718   */\n      dup3\n        /* \"#utility.yul\":14707:14722   */\n      div\n        /* \"#utility.yul\":14704:14705   */\n      dup5\n        /* \"#utility.yul\":14701:14723   */\n      eq\n        /* \"#utility.yul\":14681:14682   */\n      dup4\n        /* \"#utility.yul\":14674:14683   */\n      iszero\n        /* \"#utility.yul\":14654:14737   */\n      or\n        /* \"#utility.yul\":14631:14770   */\n      tag_482\n      jumpi\n        /* \"#utility.yul\":14750:14768   */\n      tag_483\n      tag_297\n      jump\t// in\n    tag_483:\n        /* \"#utility.yul\":14631:14770   */\n    tag_482:\n        /* \"#utility.yul\":14415:14777   */\n      pop\n        /* \"#utility.yul\":14367:14777   */\n      swap3\n      swap2\n      pop\n      pop\n      jump\t// out\n        /* \"#utility.yul\":14783:15007   */\n    tag_300:\n        /* \"#utility.yul\":14923:14957   */\n      0x45524332303a2064656372656173656420616c6c6f77616e63652062656c6f77\n        /* \"#utility.yul\":14919:14920   */\n      0x00\n        /* \"#utility.yul\":14911:14917   */\n      dup3\n        /* \"#utility.yul\":14907:14921   */\n      add\n        /* \"#utility.yul\":14900:14958   */\n      mstore\n        /* \"#utility.yul\":14992:14999   */\n      0x207a65726f000000000000000000000000000000000000000000000000000000\n        /* \"#utility.yul\":14987:14989   */\n      0x20\n        /* \"#utility.yul\":14979:14985   */\n      dup3\n        /* \"#utility.yul\":14975:14990   */\n      add\n        /* \"#utility.yul\":14968:15000   */\n      mstore\n        /* \"#utility.yul\":14783:15007   */\n      pop\n      jump\t// out\n        /* \"#utility.yul\":15013:15379   */\n    tag_301:\n        /* \"#utility.yul\":15155:15158   */\n      0x00\n        /* \"#utility.yul\":15176:15243   */\n      tag_486\n        /* \"#utility.yul\":15240:15242   */\n      0x25\n        /* \"#utility.yul\":15235:15238   */\n      dup4\n        /* \"#utility.yul\":15176:15243   */\n      tag_260\n      jump\t// in\n    tag_486:\n        /* \"#utility.yul\":15169:15243   */\n      swap2\n      pop\n        /* \"#utility.yul\":15252:15345   */\n      tag_487\n        /* \"#utility.yul\":15341:15344   */\n      dup3\n        /* \"#utility.yul\":15252:15345   */\n      tag_300\n      jump\t// in\n    tag_487:\n        /* \"#utility.yul\":15370:15372   */\n      0x40\n        /* \"#utility.yul\":15365:15368   */\n      dup3\n        /* \"#utility.yul\":15361:15373   */\n      add\n        /* \"#utility.yul\":15354:15373   */\n      swap1\n      pop\n        /* \"#utility.yul\":15013:15379   */\n      swap2\n      swap1\n      pop\n      jump\t// out\n        /* \"#utility.yul\":15385:15804   */\n    tag_191:\n        /* \"#utility.yul\":15551:15555   */\n      0x00\n        /* \"#utility.yul\":15589:15591   */\n      0x20\n        /* \"#utility.yul\":15578:15587   */\n      dup3\n        /* \"#utility.yul\":15574:15592   */\n      add\n        /* \"#utility.yul\":15566:15592   */\n      swap1\n      pop\n        /* \"#utility.yul\":15638:15647   */\n      dup2\n        /* \"#utility.yul\":15632:15636   */\n      dup2\n        /* \"#utility.yul\":15628:15648   */\n      sub\n        /* \"#utility.yul\":15624:15625   */\n      0x00\n        /* \"#utility.yul\":15613:15622   */\n      dup4\n        /* \"#utility.yul\":15609:15626   */\n      add\n        /* \"#utility.yul\":15602:15649   */\n      mstore\n        /* \"#utility.yul\":15666:15797   */\n      tag_489\n        /* \"#utility.yul\":15792:15796   */\n      dup2\n        /* \"#utility.yul\":15666:15797   */\n      tag_301\n      jump\t// in\n    tag_489:\n        /* \"#utility.yul\":15658:15797   */\n      swap1\n      pop\n        /* \"#utility.yul\":15385:15804   */\n      swap2\n      swap1\n      pop\n      jump\t// out\n        /* \"#utility.yul\":15810:16035   */\n    tag_302:\n        /* \"#utility.yul\":15950:15984   */\n      0x4f776e61626c653a206e6577206f776e657220697320746865207a65726f2061\n        /* \"#utility.yul\":15946:15947   */\n      0x00\n        /* \"#utility.yul\":15938:15944   */\n      dup3\n        /* \"#utility.yul\":15934:15948   */\n      add\n        /* \"#utility.yul\":15927:15985   */\n      mstore\n        /* \"#utility.yul\":16019:16027   */\n      0x6464726573730000000000000000000000000000000000000000000000000000\n        /* \"#utility.yul\":16014:16016   */\n      0x20\n        /* \"#utility.yul\":16006:16012   */\n      dup3\n        /* \"#utility.yul\":16002:16017   */\n      add\n        /* \"#utility.yul\":15995:16028   */\n      mstore\n        /* \"#utility.yul\":15810:16035   */\n      pop\n      jump\t// out\n        /* \"#utility.yul\":16041:16407   */\n    tag_303:\n        /* \"#utility.yul\":16183:16186   */\n      0x00\n        /* \"#utility.yul\":16204:16271   */\n      tag_492\n        /* \"#utility.yul\":16268:16270   */\n      0x26\n        /* \"#utility.yul\":16263:16266   */\n      dup4\n        /* \"#utility.yul\":16204:16271   */\n      tag_260\n      jump\t// in\n    tag_492:\n        /* \"#utility.yul\":16197:16271   */\n      swap2\n      pop\n        /* \"#utility.yul\":16280:16373   */\n      tag_493\n        /* \"#utility.yul\":16369:16372   */\n      dup3\n        /* \"#utility.yul\":16280:16373   */\n      tag_302\n      jump\t// in\n    tag_493:\n        /* \"#utility.yul\":16398:16400   */\n      0x40\n        /* \"#utility.yul\":16393:16396   */\n      dup3\n        /* \"#utility.yul\":16389:16401   */\n      add\n        /* \"#utility.yul\":16382:16401   */\n      swap1\n      pop\n        /* \"#utility.yul\":16041:16407   */\n      swap2\n      swap1\n      pop\n      jump\t// out\n        /* \"#utility.yul\":16413:16832   */\n    tag_207:\n        /* \"#utility.yul\":16579:16583   */\n      0x00\n        /* \"#utility.yul\":16617:16619   */\n      0x20\n        /* \"#utility.yul\":16606:16615   */\n      dup3\n        /* \"#utility.yul\":16602:16620   */\n      add\n        /* \"#utility.yul\":16594:16620   */\n      swap1\n      pop\n        /* \"#utility.yul\":16666:16675   */\n      dup2\n        /* \"#utility.yul\":16660:16664   */\n      dup2\n        /* \"#utility.yul\":16656:16676   */\n      sub\n        /* \"#utility.yul\":16652:16653   */\n      0x00\n        /* \"#utility.yul\":16641:16650   */\n      dup4\n        /* \"#utility.yul\":16637:16654   */\n      add\n        /* \"#utility.yul\":16630:16677   */\n      mstore\n        /* \"#utility.yul\":16694:16825   */\n      tag_495\n        /* \"#utility.yul\":16820:16824   */\n      dup2\n        /* \"#utility.yul\":16694:16825   */\n      tag_303\n      jump\t// in\n    tag_495:\n        /* \"#utility.yul\":16686:16825   */\n      swap1\n      pop\n        /* \"#utility.yul\":16413:16832   */\n      swap2\n      swap1\n      pop\n      jump\t// out\n        /* \"#utility.yul\":16838:17061   */\n    tag_304:\n        /* \"#utility.yul\":16978:17012   */\n      0x45524332303a20617070726f76652066726f6d20746865207a65726f20616464\n        /* \"#utility.yul\":16974:16975   */\n      0x00\n        /* \"#utility.yul\":16966:16972   */\n      dup3\n        /* \"#utility.yul\":16962:16976   */\n      add\n        /* \"#utility.yul\":16955:17013   */\n      mstore\n        /* \"#utility.yul\":17047:17053   */\n      0x7265737300000000000000000000000000000000000000000000000000000000\n        /* \"#utility.yul\":17042:17044   */\n      0x20\n        /* \"#utility.yul\":17034:17040   */\n      dup3\n        /* \"#utility.yul\":17030:17045   */\n      add\n        /* \"#utility.yul\":17023:17054   */\n      mstore\n        /* \"#utility.yul\":16838:17061   */\n      pop\n      jump\t// out\n        /* \"#utility.yul\":17067:17433   */\n    tag_305:\n        /* \"#utility.yul\":17209:17212   */\n      0x00\n        /* \"#utility.yul\":17230:17297   */\n      tag_498\n        /* \"#utility.yul\":17294:17296   */\n      0x24\n        /* \"#utility.yul\":17289:17292   */\n      dup4\n        /* \"#utility.yul\":17230:17297   */\n      tag_260\n      jump\t// in\n    tag_498:\n        /* \"#utility.yul\":17223:17297   */\n      swap2\n      pop\n        /* \"#utility.yul\":17306:17399   */\n      tag_499\n        /* \"#utility.yul\":17395:17398   */\n      dup3\n        /* \"#utility.yul\":17306:17399   */\n      tag_304\n      jump\t// in\n    tag_499:\n        /* \"#utility.yul\":17424:17426   */\n      0x40\n        /* \"#utility.yul\":17419:17422   */\n      dup3\n        /* \"#utility.yul\":17415:17427   */\n      add\n        /* \"#utility.yul\":17408:17427   */\n      swap1\n      pop\n        /* \"#utility.yul\":17067:17433   */\n      swap2\n      swap1\n      pop\n      jump\t// out\n        /* \"#utility.yul\":17439:17858   */\n    tag_213:\n        /* \"#utility.yul\":17605:17609   */\n      0x00\n        /* \"#utility.yul\":17643:17645   */\n      0x20\n        /* \"#utility.yul\":17632:17641   */\n      dup3\n        /* \"#utility.yul\":17628:17646   */\n      add\n        /* \"#utility.yul\":17620:17646   */\n      swap1\n      pop\n        /* \"#utility.yul\":17692:17701   */\n      dup2\n        /* \"#utility.yul\":17686:17690   */\n      dup2\n        /* \"#utility.yul\":17682:17702   */\n      sub\n        /* \"#utility.yul\":17678:17679   */\n      0x00\n        /* \"#utility.yul\":17667:17676   */\n      dup4\n        /* \"#utility.yul\":17663:17680   */\n      add\n        /* \"#utility.yul\":17656:17703   */\n      mstore\n        /* \"#utility.yul\":17720:17851   */\n      tag_501\n        /* \"#utility.yul\":17846:17850   */\n      dup2\n        /* \"#utility.yul\":17720:17851   */\n      tag_305\n      jump\t// in\n    tag_501:\n        /* \"#utility.yul\":17712:17851   */\n      swap1\n      pop\n        /* \"#utility.yul\":17439:17858   */\n      swap2\n      swap1\n      pop\n      jump\t// out\n        /* \"#utility.yul\":17864:18085   */\n    tag_306:\n        /* \"#utility.yul\":18004:18038   */\n      0x45524332303a20617070726f766520746f20746865207a65726f206164647265\n        /* \"#utility.yul\":18000:18001   */\n      0x00\n        /* \"#utility.yul\":17992:17998   */\n      dup3\n        /* \"#utility.yul\":17988:18002   */\n      add\n        /* \"#utility.yul\":17981:18039   */\n      mstore\n        /* \"#utility.yul\":18073:18077   */\n      0x7373000000000000000000000000000000000000000000000000000000000000\n        /* \"#utility.yul\":18068:18070   */\n      0x20\n        /* \"#utility.yul\":18060:18066   */\n      dup3\n        /* \"#utility.yul\":18056:18071   */\n      add\n        /* \"#utility.yul\":18049:18078   */\n      mstore\n        /* \"#utility.yul\":17864:18085   */\n      pop\n      jump\t// out\n        /* \"#utility.yul\":18091:18457   */\n    tag_307:\n        /* \"#utility.yul\":18233:18236   */\n      0x00\n        /* \"#utility.yul\":18254:18321   */\n      tag_504\n        /* \"#utility.yul\":18318:18320   */\n      0x22\n        /* \"#utility.yul\":18313:18316   */\n      dup4\n        /* \"#utility.yul\":18254:18321   */\n      tag_260\n      jump\t// in\n    tag_504:\n        /* \"#utility.yul\":18247:18321   */\n      swap2\n      pop\n        /* \"#utility.yul\":18330:18423   */\n      tag_505\n        /* \"#utility.yul\":18419:18422   */\n      dup3\n        /* \"#utility.yul\":18330:18423   */\n      tag_306\n      jump\t// in\n    tag_505:\n        /* \"#utility.yul\":18448:18450   */\n      0x40\n        /* \"#utility.yul\":18443:18446   */\n      dup3\n        /* \"#utility.yul\":18439:18451   */\n      add\n        /* \"#utility.yul\":18432:18451   */\n      swap1\n      pop\n        /* \"#utility.yul\":18091:18457   */\n      swap2\n      swap1\n      pop\n      jump\t// out\n        /* \"#utility.yul\":18463:18882   */\n    tag_216:\n        /* \"#utility.yul\":18629:18633   */\n      0x00\n        /* \"#utility.yul\":18667:18669   */\n      0x20\n        /* \"#utility.yul\":18656:18665   */\n      dup3\n        /* \"#utility.yul\":18652:18670   */\n      add\n        /* \"#utility.yul\":18644:18670   */\n      swap1\n      pop\n        /* \"#utility.yul\":18716:18725   */\n      dup2\n        /* \"#utility.yul\":18710:18714   */\n      dup2\n        /* \"#utility.yul\":18706:18726   */\n      sub\n        /* \"#utility.yul\":18702:18703   */\n      0x00\n        /* \"#utility.yul\":18691:18700   */\n      dup4\n        /* \"#utility.yul\":18687:18704   */\n      add\n        /* \"#utility.yul\":18680:18727   */\n      mstore\n        /* \"#utility.yul\":18744:18875   */\n      tag_507\n        /* \"#utility.yul\":18870:18874   */\n      dup2\n        /* \"#utility.yul\":18744:18875   */\n      tag_307\n      jump\t// in\n    tag_507:\n        /* \"#utility.yul\":18736:18875   */\n      swap1\n      pop\n        /* \"#utility.yul\":18463:18882   */\n      swap2\n      swap1\n      pop\n      jump\t// out\n        /* \"#utility.yul\":18888:19067   */\n    tag_308:\n        /* \"#utility.yul\":19028:19059   */\n      0x45524332303a20696e73756666696369656e7420616c6c6f77616e6365000000\n        /* \"#utility.yul\":19024:19025   */\n      0x00\n        /* \"#utility.yul\":19016:19022   */\n      dup3\n        /* \"#utility.yul\":19012:19026   */\n      add\n        /* \"#utility.yul\":19005:19060   */\n      mstore\n        /* \"#utility.yul\":18888:19067   */\n      pop\n      jump\t// out\n        /* \"#utility.yul\":19073:19439   */\n    tag_309:\n        /* \"#utility.yul\":19215:19218   */\n      0x00\n        /* \"#utility.yul\":19236:19303   */\n      tag_510\n        /* \"#utility.yul\":19300:19302   */\n      0x1d\n        /* \"#utility.yul\":19295:19298   */\n      dup4\n        /* \"#utility.yul\":19236:19303   */\n      tag_260\n      jump\t// in\n    tag_510:\n        /* \"#utility.yul\":19229:19303   */\n      swap2\n      pop\n        /* \"#utility.yul\":19312:19405   */\n      tag_511\n        /* \"#utility.yul\":19401:19404   */\n      dup3\n        /* \"#utility.yul\":19312:19405   */\n      tag_308\n      jump\t// in\n    tag_511:\n        /* \"#utility.yul\":19430:19432   */\n      0x20\n        /* \"#utility.yul\":19425:19428   */\n      dup3\n        /* \"#utility.yul\":19421:19433   */\n      add\n        /* \"#utility.yul\":19414:19433   */\n      swap1\n      pop\n        /* \"#utility.yul\":19073:19439   */\n      swap2\n      swap1\n      pop\n      jump\t// out\n        /* \"#utility.yul\":19445:19864   */\n    tag_223:\n        /* \"#utility.yul\":19611:19615   */\n      0x00\n        /* \"#utility.yul\":19649:19651   */\n      0x20\n        /* \"#utility.yul\":19638:19647   */\n      dup3\n        /* \"#utility.yul\":19634:19652   */\n      add\n        /* \"#utility.yul\":19626:19652   */\n      swap1\n      pop\n        /* \"#utility.yul\":19698:19707   */\n      dup2\n        /* \"#utility.yul\":19692:19696   */\n      dup2\n        /* \"#utility.yul\":19688:19708   */\n      sub\n        /* \"#utility.yul\":19684:19685   */\n      0x00\n        /* \"#utility.yul\":19673:19682   */\n      dup4\n        /* \"#utility.yul\":19669:19686   */\n      add\n        /* \"#utility.yul\":19662:19709   */\n      mstore\n        /* \"#utility.yul\":19726:19857   */\n      tag_513\n        /* \"#utility.yul\":19852:19856   */\n      dup2\n        /* \"#utility.yul\":19726:19857   */\n      tag_309\n      jump\t// in\n    tag_513:\n        /* \"#utility.yul\":19718:19857   */\n      swap1\n      pop\n        /* \"#utility.yul\":19445:19864   */\n      swap2\n      swap1\n      pop\n      jump\t// out\n        /* \"#utility.yul\":19870:20094   */\n    tag_310:\n        /* \"#utility.yul\":20010:20044   */\n      0x45524332303a207472616e736665722066726f6d20746865207a65726f206164\n        /* \"#utility.yul\":20006:20007   */\n      0x00\n        /* \"#utility.yul\":19998:20004   */\n      dup3\n        /* \"#utility.yul\":19994:20008   */\n      add\n        /* \"#utility.yul\":19987:20045   */\n      mstore\n        /* \"#utility.yul\":20079:20086   */\n      0x6472657373000000000000000000000000000000000000000000000000000000\n        /* \"#utility.yul\":20074:20076   */\n      0x20\n        /* \"#utility.yul\":20066:20072   */\n      dup3\n        /* \"#utility.yul\":20062:20077   */\n      add\n        /* \"#utility.yul\":20055:20087   */\n      mstore\n        /* \"#utility.yul\":19870:20094   */\n      pop\n      jump\t// out\n        /* \"#utility.yul\":20100:20466   */\n    tag_311:\n        /* \"#utility.yul\":20242:20245   */\n      0x00\n        /* \"#utility.yul\":20263:20330   */\n      tag_516\n        /* \"#utility.yul\":20327:20329   */\n      0x25\n        /* \"#utility.yul\":20322:20325   */\n      dup4\n        /* \"#utility.yul\":20263:20330   */\n      tag_260\n      jump\t// in\n    tag_516:\n        /* \"#utility.yul\":20256:20330   */\n      swap2\n      pop\n        /* \"#utility.yul\":20339:20432   */\n      tag_517\n        /* \"#utility.yul\":20428:20431   */\n      dup3\n        /* \"#utility.yul\":20339:20432   */\n      tag_310\n      jump\t// in\n    tag_517:\n        /* \"#utility.yul\":20457:20459   */\n      0x40\n        /* \"#utility.yul\":20452:20455   */\n      dup3\n        /* \"#utility.yul\":20448:20460   */\n      add\n        /* \"#utility.yul\":20441:20460   */\n      swap1\n      pop\n        /* \"#utility.yul\":20100:20466   */\n      swap2\n      swap1\n      pop\n      jump\t// out\n        /* \"#utility.yul\":20472:20891   */\n    tag_228:\n        /* \"#utility.yul\":20638:20642   */\n      0x00\n        /* \"#utility.yul\":20676:20678   */\n      0x20\n        /* \"#utility.yul\":20665:20674   */\n      dup3\n        /* \"#utility.yul\":20661:20679   */\n      add\n        /* \"#utility.yul\":20653:20679   */\n      swap1\n      pop\n        /* \"#utility.yul\":20725:20734   */\n      dup2\n        /* \"#utility.yul\":20719:20723   */\n      dup2\n        /* \"#utility.yul\":20715:20735   */\n      sub\n        /* \"#utility.yul\":20711:20712   */\n      0x00\n        /* \"#utility.yul\":20700:20709   */\n      dup4\n        /* \"#utility.yul\":20696:20713   */\n      add\n        /* \"#utility.yul\":20689:20736   */\n      mstore\n        /* \"#utility.yul\":20753:20884   */\n      tag_519\n        /* \"#utility.yul\":20879:20883   */\n      dup2\n        /* \"#utility.yul\":20753:20884   */\n      tag_311\n      jump\t// in\n    tag_519:\n        /* \"#utility.yul\":20745:20884   */\n      swap1\n      pop\n        /* \"#utility.yul\":20472:20891   */\n      swap2\n      swap1\n      pop\n      jump\t// out\n        /* \"#utility.yul\":20897:21119   */\n    tag_312:\n        /* \"#utility.yul\":21037:21071   */\n      0x45524332303a207472616e7366657220746f20746865207a65726f2061646472\n        /* \"#utility.yul\":21033:21034   */\n      0x00\n        /* \"#utility.yul\":21025:21031   */\n      dup3\n        /* \"#utility.yul\":21021:21035   */\n      add\n        /* \"#utility.yul\":21014:21072   */\n      mstore\n        /* \"#utility.yul\":21106:21111   */\n      0x6573730000000000000000000000000000000000000000000000000000000000\n        /* \"#utility.yul\":21101:21103   */\n      0x20\n        /* \"#utility.yul\":21093:21099   */\n      dup3\n        /* \"#utility.yul\":21089:21104   */\n      add\n        /* \"#utility.yul\":21082:21112   */\n      mstore\n        /* \"#utility.yul\":20897:21119   */\n      pop\n      jump\t// out\n        /* \"#utility.yul\":21125:21491   */\n    tag_313:\n        /* \"#utility.yul\":21267:21270   */\n      0x00\n        /* \"#utility.yul\":21288:21355   */\n      tag_522\n        /* \"#utility.yul\":21352:21354   */\n      0x23\n        /* \"#utility.yul\":21347:21350   */\n      dup4\n        /* \"#utility.yul\":21288:21355   */\n      tag_260\n      jump\t// in\n    tag_522:\n        /* \"#utility.yul\":21281:21355   */\n      swap2\n      pop\n        /* \"#utility.yul\":21364:21457   */\n      tag_523\n        /* \"#utility.yul\":21453:21456   */\n      dup3\n        /* \"#utility.yul\":21364:21457   */\n      tag_312\n      jump\t// in\n    tag_523:\n        /* \"#utility.yul\":21482:21484   */\n      0x40\n        /* \"#utility.yul\":21477:21480   */\n      dup3\n        /* \"#utility.yul\":21473:21485   */\n      add\n        /* \"#utility.yul\":21466:21485   */\n      swap1\n      pop\n        /* \"#utility.yul\":21125:21491   */\n      swap2\n      swap1\n      pop\n      jump\t// out\n        /* \"#utility.yul\":21497:21916   */\n    tag_231:\n        /* \"#utility.yul\":21663:21667   */\n      0x00\n        /* \"#utility.yul\":21701:21703   */\n      0x20\n        /* \"#utility.yul\":21690:21699   */\n      dup3\n        /* \"#utility.yul\":21686:21704   */\n      add\n        /* \"#utility.yul\":21678:21704   */\n      swap1\n      pop\n        /* \"#utility.yul\":21750:21759   */\n      dup2\n        /* \"#utility.yul\":21744:21748   */\n      dup2\n        /* \"#utility.yul\":21740:21760   */\n      sub\n        /* \"#utility.yul\":21736:21737   */\n      0x00\n        /* \"#utility.yul\":21725:21734   */\n      dup4\n        /* \"#utility.yul\":21721:21738   */\n      add\n        /* \"#utility.yul\":21714:21761   */\n      mstore\n        /* \"#utility.yul\":21778:21909   */\n      tag_525\n        /* \"#utility.yul\":21904:21908   */\n      dup2\n        /* \"#utility.yul\":21778:21909   */\n      tag_313\n      jump\t// in\n    tag_525:\n        /* \"#utility.yul\":21770:21909   */\n      swap1\n      pop\n        /* \"#utility.yul\":21497:21916   */\n      swap2\n      swap1\n      pop\n      jump\t// out\n        /* \"#utility.yul\":21922:22147   */\n    tag_314:\n        /* \"#utility.yul\":22062:22096   */\n      0x45524332303a207472616e7366657220616d6f756e7420657863656564732062\n        /* \"#utility.yul\":22058:22059   */\n      0x00\n        /* \"#utility.yul\":22050:22056   */\n      dup3\n        /* \"#utility.yul\":22046:22060   */\n      add\n        /* \"#utility.yul\":22039:22097   */\n      mstore\n        /* \"#utility.yul\":22131:22139   */\n      0x616c616e63650000000000000000000000000000000000000000000000000000\n        /* \"#utility.yul\":22126:22128   */\n      0x20\n        /* \"#utility.yul\":22118:22124   */\n      dup3\n        /* \"#utility.yul\":22114:22129   */\n      add\n        /* \"#utility.yul\":22107:22140   */\n      mstore\n        /* \"#utility.yul\":21922:22147   */\n      pop\n      jump\t// out\n        /* \"#utility.yul\":22153:22519   */\n    tag_315:\n        /* \"#utility.yul\":22295:22298   */\n      0x00\n        /* \"#utility.yul\":22316:22383   */\n      tag_528\n        /* \"#utility.yul\":22380:22382   */\n      0x26\n        /* \"#utility.yul\":22375:22378   */\n      dup4\n        /* \"#utility.yul\":22316:22383   */\n      tag_260\n      jump\t// in\n    tag_528:\n        /* \"#utility.yul\":22309:22383   */\n      swap2\n      pop\n        /* \"#utility.yul\":22392:22485   */\n      tag_529\n        /* \"#utility.yul\":22481:22484   */\n      dup3\n        /* \"#utility.yul\":22392:22485   */\n      tag_314\n      jump\t// in\n    tag_529:\n        /* \"#utility.yul\":22510:22512   */\n      0x40\n        /* \"#utility.yul\":22505:22508   */\n      dup3\n        /* \"#utility.yul\":22501:22513   */\n      add\n        /* \"#utility.yul\":22494:22513   */\n      swap1\n      pop\n        /* \"#utility.yul\":22153:22519   */\n      swap2\n      swap1\n      pop\n      jump\t// out\n        /* \"#utility.yul\":22525:22944   */\n    tag_236:\n        /* \"#utility.yul\":22691:22695   */\n      0x00\n        /* \"#utility.yul\":22729:22731   */\n      0x20\n        /* \"#utility.yul\":22718:22727   */\n      dup3\n        /* \"#utility.yul\":22714:22732   */\n      add\n        /* \"#utility.yul\":22706:22732   */\n      swap1\n      pop\n        /* \"#utility.yul\":22778:22787   */\n      dup2\n        /* \"#utility.yul\":22772:22776   */\n      dup2\n        /* \"#utility.yul\":22768:22788   */\n      sub\n        /* \"#utility.yul\":22764:22765   */\n      0x00\n        /* \"#utility.yul\":22753:22762   */\n      dup4\n        /* \"#utility.yul\":22749:22766   */\n      add\n        /* \"#utility.yul\":22742:22789   */\n      mstore\n        /* \"#utility.yul\":22806:22937   */\n      tag_531\n        /* \"#utility.yul\":22932:22936   */\n      dup2\n        /* \"#utility.yul\":22806:22937   */\n      tag_315\n      jump\t// in\n    tag_531:\n        /* \"#utility.yul\":22798:22937   */\n      swap1\n      pop\n        /* \"#utility.yul\":22525:22944   */\n      swap2\n      swap1\n      pop\n      jump\t// out\n        /* \"#utility.yul\":22950:23131   */\n    tag_316:\n        /* \"#utility.yul\":23090:23123   */\n      0x45524332303a206d696e7420746f20746865207a65726f206164647265737300\n        /* \"#utility.yul\":23086:23087   */\n      0x00\n        /* \"#utility.yul\":23078:23084   */\n      dup3\n        /* \"#utility.yul\":23074:23088   */\n      add\n        /* \"#utility.yul\":23067:23124   */\n      mstore\n        /* \"#utility.yul\":22950:23131   */\n      pop\n      jump\t// out\n        /* \"#utility.yul\":23137:23503   */\n    tag_317:\n        /* \"#utility.yul\":23279:23282   */\n      0x00\n        /* \"#utility.yul\":23300:23367   */\n      tag_534\n        /* \"#utility.yul\":23364:23366   */\n      0x1f\n        /* \"#utility.yul\":23359:23362   */\n      dup4\n        /* \"#utility.yul\":23300:23367   */\n      tag_260\n      jump\t// in\n    tag_534:\n        /* \"#utility.yul\":23293:23367   */\n      swap2\n      pop\n        /* \"#utility.yul\":23376:23469   */\n      tag_535\n        /* \"#utility.yul\":23465:23468   */\n      dup3\n        /* \"#utility.yul\":23376:23469   */\n      tag_316\n      jump\t// in\n    tag_535:\n        /* \"#utility.yul\":23494:23496   */\n      0x20\n        /* \"#utility.yul\":23489:23492   */\n      dup3\n        /* \"#utility.yul\":23485:23497   */\n      add\n        /* \"#utility.yul\":23478:23497   */\n      swap1\n      pop\n        /* \"#utility.yul\":23137:23503   */\n      swap2\n      swap1\n      pop\n      jump\t// out\n        /* \"#utility.yul\":23509:23928   */\n    tag_243:\n        /* \"#utility.yul\":23675:23679   */\n      0x00\n        /* \"#utility.yul\":23713:23715   */\n      0x20\n        /* \"#utility.yul\":23702:23711   */\n      dup3\n        /* \"#utility.yul\":23698:23716   */\n      add\n        /* \"#utility.yul\":23690:23716   */\n      swap1\n      pop\n        /* \"#utility.yul\":23762:23771   */\n      dup2\n        /* \"#utility.yul\":23756:23760   */\n      dup2\n        /* \"#utility.yul\":23752:23772   */\n      sub\n        /* \"#utility.yul\":23748:23749   */\n      0x00\n        /* \"#utility.yul\":23737:23746   */\n      dup4\n        /* \"#utility.yul\":23733:23750   */\n      add\n        /* \"#utility.yul\":23726:23773   */\n      mstore\n        /* \"#utility.yul\":23790:23921   */\n      tag_537\n        /* \"#utility.yul\":23916:23920   */\n      dup2\n        /* \"#utility.yul\":23790:23921   */\n      tag_317\n      jump\t// in\n    tag_537:\n        /* \"#utility.yul\":23782:23921   */\n      swap1\n      pop\n        /* \"#utility.yul\":23509:23928   */\n      swap2\n      swap1\n      pop\n      jump\t// out\n        /* \"#utility.yul\":23934:24116   */\n    tag_318:\n        /* \"#utility.yul\":24074:24108   */\n      0x4f776e61626c653a2063616c6c6572206973206e6f7420746865206f776e6572\n        /* \"#utility.yul\":24070:24071   */\n      0x00\n        /* \"#utility.yul\":24062:24068   */\n      dup3\n        /* \"#utility.yul\":24058:24072   */\n      add\n        /* \"#utility.yul\":24051:24109   */\n      mstore\n        /* \"#utility.yul\":23934:24116   */\n      pop\n      jump\t// out\n        /* \"#utility.yul\":24122:24488   */\n    tag_319:\n        /* \"#utility.yul\":24264:24267   */\n      0x00\n        /* \"#utility.yul\":24285:24352   */\n      tag_540\n        /* \"#utility.yul\":24349:24351   */\n      0x20\n        /* \"#utility.yul\":24344:24347   */\n      dup4\n        /* \"#utility.yul\":24285:24352   */\n      tag_260\n      jump\t// in\n    tag_540:\n        /* \"#utility.yul\":24278:24352   */\n      swap2\n      pop\n        /* \"#utility.yul\":24361:24454   */\n      tag_541\n        /* \"#utility.yul\":24450:24453   */\n      dup3\n        /* \"#utility.yul\":24361:24454   */\n      tag_318\n      jump\t// in\n    tag_541:\n        /* \"#utility.yul\":24479:24481   */\n      0x20\n        /* \"#utility.yul\":24474:24477   */\n      dup3\n        /* \"#utility.yul\":24470:24482   */\n      add\n        /* \"#utility.yul\":24463:24482   */\n      swap1\n      pop\n        /* \"#utility.yul\":24122:24488   */\n      swap2\n      swap1\n      pop\n      jump\t// out\n        /* \"#utility.yul\":24494:24913   */\n    tag_253:\n        /* \"#utility.yul\":24660:24664   */\n      0x00\n        /* \"#utility.yul\":24698:24700   */\n      0x20\n        /* \"#utility.yul\":24687:24696   */\n      dup3\n        /* \"#utility.yul\":24683:24701   */\n      add\n        /* \"#utility.yul\":24675:24701   */\n      swap1\n      pop\n        /* \"#utility.yul\":24747:24756   */\n      dup2\n        /* \"#utility.yul\":24741:24745   */\n      dup2\n        /* \"#utility.yul\":24737:24757   */\n      sub\n        /* \"#utility.yul\":24733:24734   */\n      0x00\n        /* \"#utility.yul\":24722:24731   */\n      dup4\n        /* \"#utility.yul\":24718:24735   */\n      add\n        /* \"#utility.yul\":24711:24758   */\n      mstore\n        /* \"#utility.yul\":24775:24906   */\n      tag_543\n        /* \"#utility.yul\":24901:24905   */\n      dup2\n        /* \"#utility.yul\":24775:24906   */\n      tag_319\n      jump\t// in\n    tag_543:\n        /* \"#utility.yul\":24767:24906   */\n      swap1\n      pop\n        /* \"#utility.yul\":24494:24913   */\n      swap2\n      swap1\n      pop\n      jump\t// out\n\n    auxdata: 0xa264697066735822122071f34bee4320a8a0288fa5e3aea1a8b4add9840bc9b268764f6119c1b193b8ae64736f6c63430008120033\n}\n",
				"bytecode": {
					"linkReferences": {},
					"object": "608060405262015180620000186200017060201b60201c565b600a620000269190620003e1565b603262000034919062000432565b620000409190620004ac565b6009553480156200005057600080fd5b5060405162002ab638038062002ab683398181016040528101906200007691906200054e565b6040518060400160405280600781526020017f4d79546f6b656e000000000000000000000000000000000000000000000000008152506040518060400160405280600381526020017f4d544b00000000000000000000000000000000000000000000000000000000008152508160039081620000f39190620007f0565b508060049081620001059190620007f0565b505050620001286200011c6200017960201b60201c565b6200018160201b60201c565b80600660006101000a81548173ffffffffffffffffffffffffffffffffffffffff021916908373ffffffffffffffffffffffffffffffffffffffff16021790555050620008d7565b60006012905090565b600033905090565b6000600560009054906101000a900473ffffffffffffffffffffffffffffffffffffffff16905081600560006101000a81548173ffffffffffffffffffffffffffffffffffffffff021916908373ffffffffffffffffffffffffffffffffffffffff1602179055508173ffffffffffffffffffffffffffffffffffffffff168173ffffffffffffffffffffffffffffffffffffffff167f8be0079c531659141344cd1fd0a4f28419497f9722a3daafe3b4186f6b6457e060405160405180910390a35050565b7f4e487b7100000000000000000000000000000000000000000000000000000000600052601160045260246000fd5b60008160011c9050919050565b6000808291508390505b6001851115620002d557808604811115620002ad57620002ac62000247565b5b6001851615620002bd5780820291505b8081029050620002cd8562000276565b94506200028d565b94509492505050565b600082620002f05760019050620003c3565b81620003005760009050620003c3565b816001811462000319576002811462000324576200035a565b6001915050620003c3565b60ff84111562000339576200033862000247565b5b8360020a91508482111562000353576200035262000247565b5b50620003c3565b5060208310610133831016604e8410600b8410161715620003945782820a9050838111156200038e576200038d62000247565b5b620003c3565b620003a3848484600162000283565b92509050818404811115620003bd57620003bc62000247565b5b81810290505b9392505050565b6000819050919050565b600060ff82169050919050565b6000620003ee82620003ca565b9150620003fb83620003d4565b92506200042a7fffffffffffffffffffffffffffffffffffffffffffffffffffffffffffffffff8484620002de565b905092915050565b60006200043f82620003ca565b91506200044c83620003ca565b92508282026200045c81620003ca565b9150828204841483151762000476576200047562000247565b5b5092915050565b7f4e487b7100000000000000000000000000000000000000000000000000000000600052601260045260246000fd5b6000620004b982620003ca565b9150620004c683620003ca565b925082620004d957620004d86200047d565b5b828204905092915050565b600080fd5b600073ffffffffffffffffffffffffffffffffffffffff82169050919050565b60006200051682620004e9565b9050919050565b620005288162000509565b81146200053457600080fd5b50565b60008151905062000548816200051d565b92915050565b600060208284031215620005675762000566620004e4565b5b6000620005778482850162000537565b91505092915050565b600081519050919050565b7f4e487b7100000000000000000000000000000000000000000000000000000000600052604160045260246000fd5b7f4e487b7100000000000000000000000000000000000000000000000000000000600052602260045260246000fd5b600060028204905060018216806200060257607f821691505b602082108103620006185762000617620005ba565b5b50919050565b60008190508160005260206000209050919050565b60006020601f8301049050919050565b600082821b905092915050565b600060088302620006827fffffffffffffffffffffffffffffffffffffffffffffffffffffffffffffffff8262000643565b6200068e868362000643565b95508019841693508086168417925050509392505050565b6000819050919050565b6000620006d1620006cb620006c584620003ca565b620006a6565b620003ca565b9050919050565b6000819050919050565b620006ed83620006b0565b62000705620006fc82620006d8565b84845462000650565b825550505050565b600090565b6200071c6200070d565b62000729818484620006e2565b505050565b5b8181101562000751576200074560008262000712565b6001810190506200072f565b5050565b601f821115620007a0576200076a816200061e565b620007758462000633565b8101602085101562000785578190505b6200079d620007948562000633565b8301826200072e565b50505b505050565b600082821c905092915050565b6000620007c560001984600802620007a5565b1980831691505092915050565b6000620007e08383620007b2565b9150826002028217905092915050565b620007fb8262000580565b67ffffffffffffffff8111156200081757620008166200058b565b5b620008238254620005e9565b6200083082828562000755565b600060209050601f83116001811462000868576000841562000853578287015190505b6200085f8582620007d2565b865550620008cf565b601f19841662000878866200061e565b60005b82811015620008a2578489015182556001820191506020850194506020810190506200087b565b86831015620008c25784890151620008be601f891682620007b2565b8355505b6001600288020188555050505b505050505050565b6121cf80620008e76000396000f3fe608060405234801561001057600080fd5b506004361061014d5760003560e01c806347f07a8e116100c357806395d89b411161007c57806395d89b41146103b6578063a457c2d7146103d4578063a694fc3a14610404578063a9059cbb14610420578063dd62ed3e14610450578063f2fde38b146104805761014d565b806347f07a8e146102f457806370a08231146102fe578063715018a61461032e57806371aa60fd1461033857806389885a59146103685780638da5cb5b146103985761014d565b806323b872dd1161011557806323b872dd1461020c57806324bf238c1461023c5780632e17de781461026c578063313ce5671461028857806339509351146102a657806347ccca02146102d65761014d565b806301b8199a1461015257806306fdde0314610170578063095ea7b31461018e578063150b7a02146101be57806318160ddd146101ee575b600080fd5b61015a61049c565b6040516101679190611432565b60405180910390f35b6101786104a2565b60405161018591906114dd565b60405180910390f35b6101a860048036038101906101a3919061159d565b610534565b6040516101b591906115f8565b60405180910390f35b6101d860048036038101906101d39190611748565b610557565b6040516101e59190611806565b60405180910390f35b6101f661056b565b6040516102039190611432565b60405180910390f35b61022660048036038101906102219190611821565b610575565b60405161023391906115f8565b60405180910390f35b61025660048036038101906102519190611874565b6105a4565b6040516102639190611432565b60405180910390f35b61028660048036038101906102819190611874565b6105bc565b005b610290610750565b60405161029d91906118bd565b60405180910390f35b6102c060048036038101906102bb919061159d565b610759565b6040516102cd91906115f8565b60405180910390f35b6102de610790565b6040516102eb9190611937565b60405180910390f35b6102fc6107b6565b005b61031860048036038101906103139190611952565b61087b565b6040516103259190611432565b60405180910390f35b6103366108c3565b005b610352600480360381019061034d9190611874565b6108d7565b60405161035f9190611432565b60405180910390f35b610382600480360381019061037d9190611874565b610911565b60405161038f919061198e565b60405180910390f35b6103a0610944565b6040516103ad919061198e565b60405180910390f35b6103be61096e565b6040516103cb91906114dd565b60405180910390f35b6103ee60048036038101906103e9919061159d565b610a00565b6040516103fb91906115f8565b60405180910390f35b61041e60048036038101906104199190611874565b610a77565b005b61043a6004803603810190610435919061159d565b610b75565b60405161044791906115f8565b60405180910390f35b61046a600480360381019061046591906119a9565b610b98565b6040516104779190611432565b60405180910390f35b61049a60048036038101906104959190611952565b610c1f565b005b60095481565b6060600380546104b190611a18565b80601f01602080910402602001604051908101604052809291908181526020018280546104dd90611a18565b801561052a5780601f106104ff5761010080835404028352916020019161052a565b820191906000526020600020905b81548152906001019060200180831161050d57829003601f168201915b5050505050905090565b60008061053f610ca2565b905061054c818585610caa565b600191505092915050565b600063150b7a0260e01b9050949350505050565b6000600254905090565b600080610580610ca2565b905061058d858285610e73565b610598858585610eff565b60019150509392505050565b60086020528060005260406000206000915090505481565b3373ffffffffffffffffffffffffffffffffffffffff166007600083815260200190815260200160002060009054906101000a900473ffffffffffffffffffffffffffffffffffffffff1673ffffffffffffffffffffffffffffffffffffffff161461065d576040517f08c379a000000000000000000000000000000000000000000000000000000000815260040161065490611a95565b60405180910390fd5b61066f3361066a836108d7565b611175565b600660009054906101000a900473ffffffffffffffffffffffffffffffffffffffff1673ffffffffffffffffffffffffffffffffffffffff166323b872dd3033846040518463ffffffff1660e01b81526004016106ce93929190611ab5565b600060405180830381600087803b1580156106e857600080fd5b505af11580156106fc573d6000803e3d6000fd5b505050506007600082815260200190815260200160002060006101000a81549073ffffffffffffffffffffffffffffffffffffffff0219169055600860008281526020019081526020016000206000905550565b60006012905090565b600080610764610ca2565b90506107858185856107768589610b98565b6107809190611b1b565b610caa565b600191505092915050565b600660009054906101000a900473ffffffffffffffffffffffffffffffffffffffff1681565b6107be610944565b73ffffffffffffffffffffffffffffffffffffffff163373ffffffffffffffffffffffffffffffffffffffff161461082b576040517f08c379a000000000000000000000000000000000000000000000000000000000815260040161082290611bc1565b60405180910390fd5b610833610944565b73ffffffffffffffffffffffffffffffffffffffff166108fc479081150290604051600060405180830381858888f19350505050158015610878573d6000803e3d6000fd5b50565b60008060008373ffffffffffffffffffffffffffffffffffffffff1673ffffffffffffffffffffffffffffffffffffffff168152602001908152602001600020549050919050565b6108cb6112cb565b6108d56000611349565b565b6000806008600084815260200190815260200160002054426108f99190611be1565b9050600954816109099190611c15565b915050919050565b60076020528060005260406000206000915054906101000a900473ffffffffffffffffffffffffffffffffffffffff1681565b6000600560009054906101000a900473ffffffffffffffffffffffffffffffffffffffff16905090565b60606004805461097d90611a18565b80601f01602080910402602001604051908101604052809291908181526020018280546109a990611a18565b80156109f65780601f106109cb576101008083540402835291602001916109f6565b820191906000526020600020905b8154815290600101906020018083116109d957829003601f168201915b5050505050905090565b600080610a0b610ca2565b90506000610a198286610b98565b905083811015610a5e576040517f08c379a0000000000000000000000000000000000000000000000000000000008152600401610a5590611cc9565b60405180910390fd5b610a6b8286868403610caa565b60019250505092915050565b600660009054906101000a900473ffffffffffffffffffffffffffffffffffffffff1673ffffffffffffffffffffffffffffffffffffffff166342842e0e3330846040518463ffffffff1660e01b8152600401610ad693929190611ab5565b600060405180830381600087803b158015610af057600080fd5b505af1158015610b04573d6000803e3d6000fd5b50505050336007600083815260200190815260200160002060006101000a81548173ffffffffffffffffffffffffffffffffffffffff021916908373ffffffffffffffffffffffffffffffffffffffff16021790555042600860008381526020019081526020016000208190555050565b600080610b80610ca2565b9050610b8d818585610eff565b600191505092915050565b6000600160008473ffffffffffffffffffffffffffffffffffffffff1673ffffffffffffffffffffffffffffffffffffffff16815260200190815260200160002060008373ffffffffffffffffffffffffffffffffffffffff1673ffffffffffffffffffffffffffffffffffffffff16815260200190815260200160002054905092915050565b610c276112cb565b600073ffffffffffffffffffffffffffffffffffffffff168173ffffffffffffffffffffffffffffffffffffffff1603610c96576040517f08c379a0000000000000000000000000000000000000000000000000000000008152600401610c8d90611d5b565b60405180910390fd5b610c9f81611349565b50565b600033905090565b600073ffffffffffffffffffffffffffffffffffffffff168373ffffffffffffffffffffffffffffffffffffffff1603610d19576040517f08c379a0000000000000000000000000000000000000000000000000000000008152600401610d1090611ded565b60405180910390fd5b600073ffffffffffffffffffffffffffffffffffffffff168273ffffffffffffffffffffffffffffffffffffffff1603610d88576040517f08c379a0000000000000000000000000000000000000000000000000000000008152600401610d7f90611e7f565b60405180910390fd5b80600160008573ffffffffffffffffffffffffffffffffffffffff1673ffffffffffffffffffffffffffffffffffffffff16815260200190815260200160002060008473ffffffffffffffffffffffffffffffffffffffff1673ffffffffffffffffffffffffffffffffffffffff168152602001908152602001600020819055508173ffffffffffffffffffffffffffffffffffffffff168373ffffffffffffffffffffffffffffffffffffffff167f8c5be1e5ebec7d5bd14f71427d1e84f3dd0314c0f7b2291e5b200ac8c7c3b92583604051610e669190611432565b60405180910390a3505050565b6000610e7f8484610b98565b90507fffffffffffffffffffffffffffffffffffffffffffffffffffffffffffffffff8114610ef95781811015610eeb576040517f08c379a0000000000000000000000000000000000000000000000000000000008152600401610ee290611eeb565b60405180910390fd5b610ef88484848403610caa565b5b50505050565b600073ffffffffffffffffffffffffffffffffffffffff168373ffffffffffffffffffffffffffffffffffffffff1603610f6e576040517f08c379a0000000000000000000000000000000000000000000000000000000008152600401610f6590611f7d565b60405180910390fd5b600073ffffffffffffffffffffffffffffffffffffffff168273ffffffffffffffffffffffffffffffffffffffff1603610fdd576040517f08c379a0000000000000000000000000000000000000000000000000000000008152600401610fd49061200f565b60405180910390fd5b610fe883838361140f565b60008060008573ffffffffffffffffffffffffffffffffffffffff1673ffffffffffffffffffffffffffffffffffffffff1681526020019081526020016000205490508181101561106e576040517f08c379a0000000000000000000000000000000000000000000000000000000008152600401611065906120a1565b60405180910390fd5b8181036000808673ffffffffffffffffffffffffffffffffffffffff1673ffffffffffffffffffffffffffffffffffffffff16815260200190815260200160002081905550816000808573ffffffffffffffffffffffffffffffffffffffff1673ffffffffffffffffffffffffffffffffffffffff168152602001908152602001600020600082825401925050819055508273ffffffffffffffffffffffffffffffffffffffff168473ffffffffffffffffffffffffffffffffffffffff167fddf252ad1be2c89b69c2b068fc378daa952ba7f163c4a11628f55a4df523b3ef8460405161115c9190611432565b60405180910390a361116f848484611414565b50505050565b600073ffffffffffffffffffffffffffffffffffffffff168273ffffffffffffffffffffffffffffffffffffffff16036111e4576040517f08c379a00000000000000000000000000000000000000000000000000000000081526004016111db9061210d565b60405180910390fd5b6111f06000838361140f565b80600260008282546112029190611b1b565b92505081905550806000808473ffffffffffffffffffffffffffffffffffffffff1673ffffffffffffffffffffffffffffffffffffffff168152602001908152602001600020600082825401925050819055508173ffffffffffffffffffffffffffffffffffffffff16600073ffffffffffffffffffffffffffffffffffffffff167fddf252ad1be2c89b69c2b068fc378daa952ba7f163c4a11628f55a4df523b3ef836040516112b39190611432565b60405180910390a36112c760008383611414565b5050565b6112d3610ca2565b73ffffffffffffffffffffffffffffffffffffffff166112f1610944565b73ffffffffffffffffffffffffffffffffffffffff1614611347576040517f08c379a000000000000000000000000000000000000000000000000000000000815260040161133e90612179565b60405180910390fd5b565b6000600560009054906101000a900473ffffffffffffffffffffffffffffffffffffffff16905081600560006101000a81548173ffffffffffffffffffffffffffffffffffffffff021916908373ffffffffffffffffffffffffffffffffffffffff1602179055508173ffffffffffffffffffffffffffffffffffffffff168173ffffffffffffffffffffffffffffffffffffffff167f8be0079c531659141344cd1fd0a4f28419497f9722a3daafe3b4186f6b6457e060405160405180910390a35050565b505050565b505050565b6000819050919050565b61142c81611419565b82525050565b60006020820190506114476000830184611423565b92915050565b600081519050919050565b600082825260208201905092915050565b60005b8381101561148757808201518184015260208101905061146c565b60008484015250505050565b6000601f19601f8301169050919050565b60006114af8261144d565b6114b98185611458565b93506114c9818560208601611469565b6114d281611493565b840191505092915050565b600060208201905081810360008301526114f781846114a4565b905092915050565b6000604051905090565b600080fd5b600080fd5b600073ffffffffffffffffffffffffffffffffffffffff82169050919050565b600061153e82611513565b9050919050565b61154e81611533565b811461155957600080fd5b50565b60008135905061156b81611545565b92915050565b61157a81611419565b811461158557600080fd5b50565b60008135905061159781611571565b92915050565b600080604083850312156115b4576115b3611509565b5b60006115c28582860161155c565b92505060206115d385828601611588565b9150509250929050565b60008115159050919050565b6115f2816115dd565b82525050565b600060208201905061160d60008301846115e9565b92915050565b600080fd5b600080fd5b7f4e487b7100000000000000000000000000000000000000000000000000000000600052604160045260246000fd5b61165582611493565b810181811067ffffffffffffffff821117156116745761167361161d565b5b80604052505050565b60006116876114ff565b9050611693828261164c565b919050565b600067ffffffffffffffff8211156116b3576116b261161d565b5b6116bc82611493565b9050602081019050919050565b82818337600083830152505050565b60006116eb6116e684611698565b61167d565b90508281526020810184848401111561170757611706611618565b5b6117128482856116c9565b509392505050565b600082601f83011261172f5761172e611613565b5b813561173f8482602086016116d8565b91505092915050565b6000806000806080858703121561176257611761611509565b5b60006117708782880161155c565b94505060206117818782880161155c565b935050604061179287828801611588565b925050606085013567ffffffffffffffff8111156117b3576117b261150e565b5b6117bf8782880161171a565b91505092959194509250565b60007fffffffff0000000000000000000000000000000000000000000000000000000082169050919050565b611800816117cb565b82525050565b600060208201905061181b60008301846117f7565b92915050565b60008060006060848603121561183a57611839611509565b5b60006118488682870161155c565b93505060206118598682870161155c565b925050604061186a86828701611588565b9150509250925092565b60006020828403121561188a57611889611509565b5b600061189884828501611588565b91505092915050565b600060ff82169050919050565b6118b7816118a1565b82525050565b60006020820190506118d260008301846118ae565b92915050565b6000819050919050565b60006118fd6118f86118f384611513565b6118d8565b611513565b9050919050565b600061190f826118e2565b9050919050565b600061192182611904565b9050919050565b61193181611916565b82525050565b600060208201905061194c6000830184611928565b92915050565b60006020828403121561196857611967611509565b5b60006119768482850161155c565b91505092915050565b61198881611533565b82525050565b60006020820190506119a3600083018461197f565b92915050565b600080604083850312156119c0576119bf611509565b5b60006119ce8582860161155c565b92505060206119df8582860161155c565b9150509250929050565b7f4e487b7100000000000000000000000000000000000000000000000000000000600052602260045260246000fd5b60006002820490506001821680611a3057607f821691505b602082108103611a4357611a426119e9565b5b50919050565b7f596f752063616e277420756e7374616b65000000000000000000000000000000600082015250565b6000611a7f601183611458565b9150611a8a82611a49565b602082019050919050565b60006020820190508181036000830152611aae81611a72565b9050919050565b6000606082019050611aca600083018661197f565b611ad7602083018561197f565b611ae46040830184611423565b949350505050565b7f4e487b7100000000000000000000000000000000000000000000000000000000600052601160045260246000fd5b6000611b2682611419565b9150611b3183611419565b9250828201905080821115611b4957611b48611aec565b5b92915050565b7f4f6e6c7920746865206f776e65722063616e2063616c6c20746869732066756e60008201527f6374696f6e000000000000000000000000000000000000000000000000000000602082015250565b6000611bab602583611458565b9150611bb682611b4f565b604082019050919050565b60006020820190508181036000830152611bda81611b9e565b9050919050565b6000611bec82611419565b9150611bf783611419565b9250828203905081811115611c0f57611c0e611aec565b5b92915050565b6000611c2082611419565b9150611c2b83611419565b9250828202611c3981611419565b91508282048414831517611c5057611c4f611aec565b5b5092915050565b7f45524332303a2064656372656173656420616c6c6f77616e63652062656c6f7760008201527f207a65726f000000000000000000000000000000000000000000000000000000602082015250565b6000611cb3602583611458565b9150611cbe82611c57565b604082019050919050565b60006020820190508181036000830152611ce281611ca6565b9050919050565b7f4f776e61626c653a206e6577206f776e657220697320746865207a65726f206160008201527f6464726573730000000000000000000000000000000000000000000000000000602082015250565b6000611d45602683611458565b9150611d5082611ce9565b604082019050919050565b60006020820190508181036000830152611d7481611d38565b9050919050565b7f45524332303a20617070726f76652066726f6d20746865207a65726f2061646460008201527f7265737300000000000000000000000000000000000000000000000000000000602082015250565b6000611dd7602483611458565b9150611de282611d7b565b604082019050919050565b60006020820190508181036000830152611e0681611dca565b9050919050565b7f45524332303a20617070726f766520746f20746865207a65726f20616464726560008201527f7373000000000000000000000000000000000000000000000000000000000000602082015250565b6000611e69602283611458565b9150611e7482611e0d565b604082019050919050565b60006020820190508181036000830152611e9881611e5c565b9050919050565b7f45524332303a20696e73756666696369656e7420616c6c6f77616e6365000000600082015250565b6000611ed5601d83611458565b9150611ee082611e9f565b602082019050919050565b60006020820190508181036000830152611f0481611ec8565b9050919050565b7f45524332303a207472616e736665722066726f6d20746865207a65726f20616460008201527f6472657373000000000000000000000000000000000000000000000000000000602082015250565b6000611f67602583611458565b9150611f7282611f0b565b604082019050919050565b60006020820190508181036000830152611f9681611f5a565b9050919050565b7f45524332303a207472616e7366657220746f20746865207a65726f206164647260008201527f6573730000000000000000000000000000000000000000000000000000000000602082015250565b6000611ff9602383611458565b915061200482611f9d565b604082019050919050565b6000602082019050818103600083015261202881611fec565b9050919050565b7f45524332303a207472616e7366657220616d6f756e742065786365656473206260008201527f616c616e63650000000000000000000000000000000000000000000000000000602082015250565b600061208b602683611458565b91506120968261202f565b604082019050919050565b600060208201905081810360008301526120ba8161207e565b9050919050565b7f45524332303a206d696e7420746f20746865207a65726f206164647265737300600082015250565b60006120f7601f83611458565b9150612102826120c1565b602082019050919050565b60006020820190508181036000830152612126816120ea565b9050919050565b7f4f776e61626c653a2063616c6c6572206973206e6f7420746865206f776e6572600082015250565b6000612163602083611458565b915061216e8261212d565b602082019050919050565b6000602082019050818103600083015261219281612156565b905091905056fea264697066735822122071f34bee4320a8a0288fa5e3aea1a8b4add9840bc9b268764f6119c1b193b8ae64736f6c63430008120033",
					"opcodes": "PUSH1 0x80 PUSH1 0x40 MSTORE PUSH3 0x15180 PUSH3 0x18 PUSH3 0x170 PUSH1 0x20 SHL PUSH1 0x20 SHR JUMP JUMPDEST PUSH1 0xA PUSH3 0x26 SWAP2 SWAP1 PUSH3 0x3E1 JUMP JUMPDEST PUSH1 0x32 PUSH3 0x34 SWAP2 SWAP1 PUSH3 0x432 JUMP JUMPDEST PUSH3 0x40 SWAP2 SWAP1 PUSH3 0x4AC JUMP JUMPDEST PUSH1 0x9 SSTORE CALLVALUE DUP1 ISZERO PUSH3 0x50 JUMPI PUSH1 0x0 DUP1 REVERT JUMPDEST POP PUSH1 0x40 MLOAD PUSH3 0x2AB6 CODESIZE SUB DUP1 PUSH3 0x2AB6 DUP4 CODECOPY DUP2 DUP2 ADD PUSH1 0x40 MSTORE DUP2 ADD SWAP1 PUSH3 0x76 SWAP2 SWAP1 PUSH3 0x54E JUMP JUMPDEST PUSH1 0x40 MLOAD DUP1 PUSH1 0x40 ADD PUSH1 0x40 MSTORE DUP1 PUSH1 0x7 DUP2 MSTORE PUSH1 0x20 ADD PUSH32 0x4D79546F6B656E00000000000000000000000000000000000000000000000000 DUP2 MSTORE POP PUSH1 0x40 MLOAD DUP1 PUSH1 0x40 ADD PUSH1 0x40 MSTORE DUP1 PUSH1 0x3 DUP2 MSTORE PUSH1 0x20 ADD PUSH32 0x4D544B0000000000000000000000000000000000000000000000000000000000 DUP2 MSTORE POP DUP2 PUSH1 0x3 SWAP1 DUP2 PUSH3 0xF3 SWAP2 SWAP1 PUSH3 0x7F0 JUMP JUMPDEST POP DUP1 PUSH1 0x4 SWAP1 DUP2 PUSH3 0x105 SWAP2 SWAP1 PUSH3 0x7F0 JUMP JUMPDEST POP POP POP PUSH3 0x128 PUSH3 0x11C PUSH3 0x179 PUSH1 0x20 SHL PUSH1 0x20 SHR JUMP JUMPDEST PUSH3 0x181 PUSH1 0x20 SHL PUSH1 0x20 SHR JUMP JUMPDEST DUP1 PUSH1 0x6 PUSH1 0x0 PUSH2 0x100 EXP DUP2 SLOAD DUP2 PUSH20 0xFFFFFFFFFFFFFFFFFFFFFFFFFFFFFFFFFFFFFFFF MUL NOT AND SWAP1 DUP4 PUSH20 0xFFFFFFFFFFFFFFFFFFFFFFFFFFFFFFFFFFFFFFFF AND MUL OR SWAP1 SSTORE POP POP PUSH3 0x8D7 JUMP JUMPDEST PUSH1 0x0 PUSH1 0x12 SWAP1 POP SWAP1 JUMP JUMPDEST PUSH1 0x0 CALLER SWAP1 POP SWAP1 JUMP JUMPDEST PUSH1 0x0 PUSH1 0x5 PUSH1 0x0 SWAP1 SLOAD SWAP1 PUSH2 0x100 EXP SWAP1 DIV PUSH20 0xFFFFFFFFFFFFFFFFFFFFFFFFFFFFFFFFFFFFFFFF AND SWAP1 POP DUP2 PUSH1 0x5 PUSH1 0x0 PUSH2 0x100 EXP DUP2 SLOAD DUP2 PUSH20 0xFFFFFFFFFFFFFFFFFFFFFFFFFFFFFFFFFFFFFFFF MUL NOT AND SWAP1 DUP4 PUSH20 0xFFFFFFFFFFFFFFFFFFFFFFFFFFFFFFFFFFFFFFFF AND MUL OR SWAP1 SSTORE POP DUP2 PUSH20 0xFFFFFFFFFFFFFFFFFFFFFFFFFFFFFFFFFFFFFFFF AND DUP2 PUSH20 0xFFFFFFFFFFFFFFFFFFFFFFFFFFFFFFFFFFFFFFFF AND PUSH32 0x8BE0079C531659141344CD1FD0A4F28419497F9722A3DAAFE3B4186F6B6457E0 PUSH1 0x40 MLOAD PUSH1 0x40 MLOAD DUP1 SWAP2 SUB SWAP1 LOG3 POP POP JUMP JUMPDEST PUSH32 0x4E487B7100000000000000000000000000000000000000000000000000000000 PUSH1 0x0 MSTORE PUSH1 0x11 PUSH1 0x4 MSTORE PUSH1 0x24 PUSH1 0x0 REVERT JUMPDEST PUSH1 0x0 DUP2 PUSH1 0x1 SHR SWAP1 POP SWAP2 SWAP1 POP JUMP JUMPDEST PUSH1 0x0 DUP1 DUP3 SWAP2 POP DUP4 SWAP1 POP JUMPDEST PUSH1 0x1 DUP6 GT ISZERO PUSH3 0x2D5 JUMPI DUP1 DUP7 DIV DUP2 GT ISZERO PUSH3 0x2AD JUMPI PUSH3 0x2AC PUSH3 0x247 JUMP JUMPDEST JUMPDEST PUSH1 0x1 DUP6 AND ISZERO PUSH3 0x2BD JUMPI DUP1 DUP3 MUL SWAP2 POP JUMPDEST DUP1 DUP2 MUL SWAP1 POP PUSH3 0x2CD DUP6 PUSH3 0x276 JUMP JUMPDEST SWAP5 POP PUSH3 0x28D JUMP JUMPDEST SWAP5 POP SWAP5 SWAP3 POP POP POP JUMP JUMPDEST PUSH1 0x0 DUP3 PUSH3 0x2F0 JUMPI PUSH1 0x1 SWAP1 POP PUSH3 0x3C3 JUMP JUMPDEST DUP2 PUSH3 0x300 JUMPI PUSH1 0x0 SWAP1 POP PUSH3 0x3C3 JUMP JUMPDEST DUP2 PUSH1 0x1 DUP2 EQ PUSH3 0x319 JUMPI PUSH1 0x2 DUP2 EQ PUSH3 0x324 JUMPI PUSH3 0x35A JUMP JUMPDEST PUSH1 0x1 SWAP2 POP POP PUSH3 0x3C3 JUMP JUMPDEST PUSH1 0xFF DUP5 GT ISZERO PUSH3 0x339 JUMPI PUSH3 0x338 PUSH3 0x247 JUMP JUMPDEST JUMPDEST DUP4 PUSH1 0x2 EXP SWAP2 POP DUP5 DUP3 GT ISZERO PUSH3 0x353 JUMPI PUSH3 0x352 PUSH3 0x247 JUMP JUMPDEST JUMPDEST POP PUSH3 0x3C3 JUMP JUMPDEST POP PUSH1 0x20 DUP4 LT PUSH2 0x133 DUP4 LT AND PUSH1 0x4E DUP5 LT PUSH1 0xB DUP5 LT AND OR ISZERO PUSH3 0x394 JUMPI DUP3 DUP3 EXP SWAP1 POP DUP4 DUP2 GT ISZERO PUSH3 0x38E JUMPI PUSH3 0x38D PUSH3 0x247 JUMP JUMPDEST JUMPDEST PUSH3 0x3C3 JUMP JUMPDEST PUSH3 0x3A3 DUP5 DUP5 DUP5 PUSH1 0x1 PUSH3 0x283 JUMP JUMPDEST SWAP3 POP SWAP1 POP DUP2 DUP5 DIV DUP2 GT ISZERO PUSH3 0x3BD JUMPI PUSH3 0x3BC PUSH3 0x247 JUMP JUMPDEST JUMPDEST DUP2 DUP2 MUL SWAP1 POP JUMPDEST SWAP4 SWAP3 POP POP POP JUMP JUMPDEST PUSH1 0x0 DUP2 SWAP1 POP SWAP2 SWAP1 POP JUMP JUMPDEST PUSH1 0x0 PUSH1 0xFF DUP3 AND SWAP1 POP SWAP2 SWAP1 POP JUMP JUMPDEST PUSH1 0x0 PUSH3 0x3EE DUP3 PUSH3 0x3CA JUMP JUMPDEST SWAP2 POP PUSH3 0x3FB DUP4 PUSH3 0x3D4 JUMP JUMPDEST SWAP3 POP PUSH3 0x42A PUSH32 0xFFFFFFFFFFFFFFFFFFFFFFFFFFFFFFFFFFFFFFFFFFFFFFFFFFFFFFFFFFFFFFFF DUP5 DUP5 PUSH3 0x2DE JUMP JUMPDEST SWAP1 POP SWAP3 SWAP2 POP POP JUMP JUMPDEST PUSH1 0x0 PUSH3 0x43F DUP3 PUSH3 0x3CA JUMP JUMPDEST SWAP2 POP PUSH3 0x44C DUP4 PUSH3 0x3CA JUMP JUMPDEST SWAP3 POP DUP3 DUP3 MUL PUSH3 0x45C DUP2 PUSH3 0x3CA JUMP JUMPDEST SWAP2 POP DUP3 DUP3 DIV DUP5 EQ DUP4 ISZERO OR PUSH3 0x476 JUMPI PUSH3 0x475 PUSH3 0x247 JUMP JUMPDEST JUMPDEST POP SWAP3 SWAP2 POP POP JUMP JUMPDEST PUSH32 0x4E487B7100000000000000000000000000000000000000000000000000000000 PUSH1 0x0 MSTORE PUSH1 0x12 PUSH1 0x4 MSTORE PUSH1 0x24 PUSH1 0x0 REVERT JUMPDEST PUSH1 0x0 PUSH3 0x4B9 DUP3 PUSH3 0x3CA JUMP JUMPDEST SWAP2 POP PUSH3 0x4C6 DUP4 PUSH3 0x3CA JUMP JUMPDEST SWAP3 POP DUP3 PUSH3 0x4D9 JUMPI PUSH3 0x4D8 PUSH3 0x47D JUMP JUMPDEST JUMPDEST DUP3 DUP3 DIV SWAP1 POP SWAP3 SWAP2 POP POP JUMP JUMPDEST PUSH1 0x0 DUP1 REVERT JUMPDEST PUSH1 0x0 PUSH20 0xFFFFFFFFFFFFFFFFFFFFFFFFFFFFFFFFFFFFFFFF DUP3 AND SWAP1 POP SWAP2 SWAP1 POP JUMP JUMPDEST PUSH1 0x0 PUSH3 0x516 DUP3 PUSH3 0x4E9 JUMP JUMPDEST SWAP1 POP SWAP2 SWAP1 POP JUMP JUMPDEST PUSH3 0x528 DUP2 PUSH3 0x509 JUMP JUMPDEST DUP2 EQ PUSH3 0x534 JUMPI PUSH1 0x0 DUP1 REVERT JUMPDEST POP JUMP JUMPDEST PUSH1 0x0 DUP2 MLOAD SWAP1 POP PUSH3 0x548 DUP2 PUSH3 0x51D JUMP JUMPDEST SWAP3 SWAP2 POP POP JUMP JUMPDEST PUSH1 0x0 PUSH1 0x20 DUP3 DUP5 SUB SLT ISZERO PUSH3 0x567 JUMPI PUSH3 0x566 PUSH3 0x4E4 JUMP JUMPDEST JUMPDEST PUSH1 0x0 PUSH3 0x577 DUP5 DUP3 DUP6 ADD PUSH3 0x537 JUMP JUMPDEST SWAP2 POP POP SWAP3 SWAP2 POP POP JUMP JUMPDEST PUSH1 0x0 DUP2 MLOAD SWAP1 POP SWAP2 SWAP1 POP JUMP JUMPDEST PUSH32 0x4E487B7100000000000000000000000000000000000000000000000000000000 PUSH1 0x0 MSTORE PUSH1 0x41 PUSH1 0x4 MSTORE PUSH1 0x24 PUSH1 0x0 REVERT JUMPDEST PUSH32 0x4E487B7100000000000000000000000000000000000000000000000000000000 PUSH1 0x0 MSTORE PUSH1 0x22 PUSH1 0x4 MSTORE PUSH1 0x24 PUSH1 0x0 REVERT JUMPDEST PUSH1 0x0 PUSH1 0x2 DUP3 DIV SWAP1 POP PUSH1 0x1 DUP3 AND DUP1 PUSH3 0x602 JUMPI PUSH1 0x7F DUP3 AND SWAP2 POP JUMPDEST PUSH1 0x20 DUP3 LT DUP2 SUB PUSH3 0x618 JUMPI PUSH3 0x617 PUSH3 0x5BA JUMP JUMPDEST JUMPDEST POP SWAP2 SWAP1 POP JUMP JUMPDEST PUSH1 0x0 DUP2 SWAP1 POP DUP2 PUSH1 0x0 MSTORE PUSH1 0x20 PUSH1 0x0 KECCAK256 SWAP1 POP SWAP2 SWAP1 POP JUMP JUMPDEST PUSH1 0x0 PUSH1 0x20 PUSH1 0x1F DUP4 ADD DIV SWAP1 POP SWAP2 SWAP1 POP JUMP JUMPDEST PUSH1 0x0 DUP3 DUP3 SHL SWAP1 POP SWAP3 SWAP2 POP POP JUMP JUMPDEST PUSH1 0x0 PUSH1 0x8 DUP4 MUL PUSH3 0x682 PUSH32 0xFFFFFFFFFFFFFFFFFFFFFFFFFFFFFFFFFFFFFFFFFFFFFFFFFFFFFFFFFFFFFFFF DUP3 PUSH3 0x643 JUMP JUMPDEST PUSH3 0x68E DUP7 DUP4 PUSH3 0x643 JUMP JUMPDEST SWAP6 POP DUP1 NOT DUP5 AND SWAP4 POP DUP1 DUP7 AND DUP5 OR SWAP3 POP POP POP SWAP4 SWAP3 POP POP POP JUMP JUMPDEST PUSH1 0x0 DUP2 SWAP1 POP SWAP2 SWAP1 POP JUMP JUMPDEST PUSH1 0x0 PUSH3 0x6D1 PUSH3 0x6CB PUSH3 0x6C5 DUP5 PUSH3 0x3CA JUMP JUMPDEST PUSH3 0x6A6 JUMP JUMPDEST PUSH3 0x3CA JUMP JUMPDEST SWAP1 POP SWAP2 SWAP1 POP JUMP JUMPDEST PUSH1 0x0 DUP2 SWAP1 POP SWAP2 SWAP1 POP JUMP JUMPDEST PUSH3 0x6ED DUP4 PUSH3 0x6B0 JUMP JUMPDEST PUSH3 0x705 PUSH3 0x6FC DUP3 PUSH3 0x6D8 JUMP JUMPDEST DUP5 DUP5 SLOAD PUSH3 0x650 JUMP JUMPDEST DUP3 SSTORE POP POP POP POP JUMP JUMPDEST PUSH1 0x0 SWAP1 JUMP JUMPDEST PUSH3 0x71C PUSH3 0x70D JUMP JUMPDEST PUSH3 0x729 DUP2 DUP5 DUP5 PUSH3 0x6E2 JUMP JUMPDEST POP POP POP JUMP JUMPDEST JUMPDEST DUP2 DUP2 LT ISZERO PUSH3 0x751 JUMPI PUSH3 0x745 PUSH1 0x0 DUP3 PUSH3 0x712 JUMP JUMPDEST PUSH1 0x1 DUP2 ADD SWAP1 POP PUSH3 0x72F JUMP JUMPDEST POP POP JUMP JUMPDEST PUSH1 0x1F DUP3 GT ISZERO PUSH3 0x7A0 JUMPI PUSH3 0x76A DUP2 PUSH3 0x61E JUMP JUMPDEST PUSH3 0x775 DUP5 PUSH3 0x633 JUMP JUMPDEST DUP2 ADD PUSH1 0x20 DUP6 LT ISZERO PUSH3 0x785 JUMPI DUP2 SWAP1 POP JUMPDEST PUSH3 0x79D PUSH3 0x794 DUP6 PUSH3 0x633 JUMP JUMPDEST DUP4 ADD DUP3 PUSH3 0x72E JUMP JUMPDEST POP POP JUMPDEST POP POP POP JUMP JUMPDEST PUSH1 0x0 DUP3 DUP3 SHR SWAP1 POP SWAP3 SWAP2 POP POP JUMP JUMPDEST PUSH1 0x0 PUSH3 0x7C5 PUSH1 0x0 NOT DUP5 PUSH1 0x8 MUL PUSH3 0x7A5 JUMP JUMPDEST NOT DUP1 DUP4 AND SWAP2 POP POP SWAP3 SWAP2 POP POP JUMP JUMPDEST PUSH1 0x0 PUSH3 0x7E0 DUP4 DUP4 PUSH3 0x7B2 JUMP JUMPDEST SWAP2 POP DUP3 PUSH1 0x2 MUL DUP3 OR SWAP1 POP SWAP3 SWAP2 POP POP JUMP JUMPDEST PUSH3 0x7FB DUP3 PUSH3 0x580 JUMP JUMPDEST PUSH8 0xFFFFFFFFFFFFFFFF DUP2 GT ISZERO PUSH3 0x817 JUMPI PUSH3 0x816 PUSH3 0x58B JUMP JUMPDEST JUMPDEST PUSH3 0x823 DUP3 SLOAD PUSH3 0x5E9 JUMP JUMPDEST PUSH3 0x830 DUP3 DUP3 DUP6 PUSH3 0x755 JUMP JUMPDEST PUSH1 0x0 PUSH1 0x20 SWAP1 POP PUSH1 0x1F DUP4 GT PUSH1 0x1 DUP2 EQ PUSH3 0x868 JUMPI PUSH1 0x0 DUP5 ISZERO PUSH3 0x853 JUMPI DUP3 DUP8 ADD MLOAD SWAP1 POP JUMPDEST PUSH3 0x85F DUP6 DUP3 PUSH3 0x7D2 JUMP JUMPDEST DUP7 SSTORE POP PUSH3 0x8CF JUMP JUMPDEST PUSH1 0x1F NOT DUP5 AND PUSH3 0x878 DUP7 PUSH3 0x61E JUMP JUMPDEST PUSH1 0x0 JUMPDEST DUP3 DUP2 LT ISZERO PUSH3 0x8A2 JUMPI DUP5 DUP10 ADD MLOAD DUP3 SSTORE PUSH1 0x1 DUP3 ADD SWAP2 POP PUSH1 0x20 DUP6 ADD SWAP5 POP PUSH1 0x20 DUP2 ADD SWAP1 POP PUSH3 0x87B JUMP JUMPDEST DUP7 DUP4 LT ISZERO PUSH3 0x8C2 JUMPI DUP5 DUP10 ADD MLOAD PUSH3 0x8BE PUSH1 0x1F DUP10 AND DUP3 PUSH3 0x7B2 JUMP JUMPDEST DUP4 SSTORE POP JUMPDEST PUSH1 0x1 PUSH1 0x2 DUP9 MUL ADD DUP9 SSTORE POP POP POP JUMPDEST POP POP POP POP POP POP JUMP JUMPDEST PUSH2 0x21CF DUP1 PUSH3 0x8E7 PUSH1 0x0 CODECOPY PUSH1 0x0 RETURN INVALID PUSH1 0x80 PUSH1 0x40 MSTORE CALLVALUE DUP1 ISZERO PUSH2 0x10 JUMPI PUSH1 0x0 DUP1 REVERT JUMPDEST POP PUSH1 0x4 CALLDATASIZE LT PUSH2 0x14D JUMPI PUSH1 0x0 CALLDATALOAD PUSH1 0xE0 SHR DUP1 PUSH4 0x47F07A8E GT PUSH2 0xC3 JUMPI DUP1 PUSH4 0x95D89B41 GT PUSH2 0x7C JUMPI DUP1 PUSH4 0x95D89B41 EQ PUSH2 0x3B6 JUMPI DUP1 PUSH4 0xA457C2D7 EQ PUSH2 0x3D4 JUMPI DUP1 PUSH4 0xA694FC3A EQ PUSH2 0x404 JUMPI DUP1 PUSH4 0xA9059CBB EQ PUSH2 0x420 JUMPI DUP1 PUSH4 0xDD62ED3E EQ PUSH2 0x450 JUMPI DUP1 PUSH4 0xF2FDE38B EQ PUSH2 0x480 JUMPI PUSH2 0x14D JUMP JUMPDEST DUP1 PUSH4 0x47F07A8E EQ PUSH2 0x2F4 JUMPI DUP1 PUSH4 0x70A08231 EQ PUSH2 0x2FE JUMPI DUP1 PUSH4 0x715018A6 EQ PUSH2 0x32E JUMPI DUP1 PUSH4 0x71AA60FD EQ PUSH2 0x338 JUMPI DUP1 PUSH4 0x89885A59 EQ PUSH2 0x368 JUMPI DUP1 PUSH4 0x8DA5CB5B EQ PUSH2 0x398 JUMPI PUSH2 0x14D JUMP JUMPDEST DUP1 PUSH4 0x23B872DD GT PUSH2 0x115 JUMPI DUP1 PUSH4 0x23B872DD EQ PUSH2 0x20C JUMPI DUP1 PUSH4 0x24BF238C EQ PUSH2 0x23C JUMPI DUP1 PUSH4 0x2E17DE78 EQ PUSH2 0x26C JUMPI DUP1 PUSH4 0x313CE567 EQ PUSH2 0x288 JUMPI DUP1 PUSH4 0x39509351 EQ PUSH2 0x2A6 JUMPI DUP1 PUSH4 0x47CCCA02 EQ PUSH2 0x2D6 JUMPI PUSH2 0x14D JUMP JUMPDEST DUP1 PUSH4 0x1B8199A EQ PUSH2 0x152 JUMPI DUP1 PUSH4 0x6FDDE03 EQ PUSH2 0x170 JUMPI DUP1 PUSH4 0x95EA7B3 EQ PUSH2 0x18E JUMPI DUP1 PUSH4 0x150B7A02 EQ PUSH2 0x1BE JUMPI DUP1 PUSH4 0x18160DDD EQ PUSH2 0x1EE JUMPI JUMPDEST PUSH1 0x0 DUP1 REVERT JUMPDEST PUSH2 0x15A PUSH2 0x49C JUMP JUMPDEST PUSH1 0x40 MLOAD PUSH2 0x167 SWAP2 SWAP1 PUSH2 0x1432 JUMP JUMPDEST PUSH1 0x40 MLOAD DUP1 SWAP2 SUB SWAP1 RETURN JUMPDEST PUSH2 0x178 PUSH2 0x4A2 JUMP JUMPDEST PUSH1 0x40 MLOAD PUSH2 0x185 SWAP2 SWAP1 PUSH2 0x14DD JUMP JUMPDEST PUSH1 0x40 MLOAD DUP1 SWAP2 SUB SWAP1 RETURN JUMPDEST PUSH2 0x1A8 PUSH1 0x4 DUP1 CALLDATASIZE SUB DUP2 ADD SWAP1 PUSH2 0x1A3 SWAP2 SWAP1 PUSH2 0x159D JUMP JUMPDEST PUSH2 0x534 JUMP JUMPDEST PUSH1 0x40 MLOAD PUSH2 0x1B5 SWAP2 SWAP1 PUSH2 0x15F8 JUMP JUMPDEST PUSH1 0x40 MLOAD DUP1 SWAP2 SUB SWAP1 RETURN JUMPDEST PUSH2 0x1D8 PUSH1 0x4 DUP1 CALLDATASIZE SUB DUP2 ADD SWAP1 PUSH2 0x1D3 SWAP2 SWAP1 PUSH2 0x1748 JUMP JUMPDEST PUSH2 0x557 JUMP JUMPDEST PUSH1 0x40 MLOAD PUSH2 0x1E5 SWAP2 SWAP1 PUSH2 0x1806 JUMP JUMPDEST PUSH1 0x40 MLOAD DUP1 SWAP2 SUB SWAP1 RETURN JUMPDEST PUSH2 0x1F6 PUSH2 0x56B JUMP JUMPDEST PUSH1 0x40 MLOAD PUSH2 0x203 SWAP2 SWAP1 PUSH2 0x1432 JUMP JUMPDEST PUSH1 0x40 MLOAD DUP1 SWAP2 SUB SWAP1 RETURN JUMPDEST PUSH2 0x226 PUSH1 0x4 DUP1 CALLDATASIZE SUB DUP2 ADD SWAP1 PUSH2 0x221 SWAP2 SWAP1 PUSH2 0x1821 JUMP JUMPDEST PUSH2 0x575 JUMP JUMPDEST PUSH1 0x40 MLOAD PUSH2 0x233 SWAP2 SWAP1 PUSH2 0x15F8 JUMP JUMPDEST PUSH1 0x40 MLOAD DUP1 SWAP2 SUB SWAP1 RETURN JUMPDEST PUSH2 0x256 PUSH1 0x4 DUP1 CALLDATASIZE SUB DUP2 ADD SWAP1 PUSH2 0x251 SWAP2 SWAP1 PUSH2 0x1874 JUMP JUMPDEST PUSH2 0x5A4 JUMP JUMPDEST PUSH1 0x40 MLOAD PUSH2 0x263 SWAP2 SWAP1 PUSH2 0x1432 JUMP JUMPDEST PUSH1 0x40 MLOAD DUP1 SWAP2 SUB SWAP1 RETURN JUMPDEST PUSH2 0x286 PUSH1 0x4 DUP1 CALLDATASIZE SUB DUP2 ADD SWAP1 PUSH2 0x281 SWAP2 SWAP1 PUSH2 0x1874 JUMP JUMPDEST PUSH2 0x5BC JUMP JUMPDEST STOP JUMPDEST PUSH2 0x290 PUSH2 0x750 JUMP JUMPDEST PUSH1 0x40 MLOAD PUSH2 0x29D SWAP2 SWAP1 PUSH2 0x18BD JUMP JUMPDEST PUSH1 0x40 MLOAD DUP1 SWAP2 SUB SWAP1 RETURN JUMPDEST PUSH2 0x2C0 PUSH1 0x4 DUP1 CALLDATASIZE SUB DUP2 ADD SWAP1 PUSH2 0x2BB SWAP2 SWAP1 PUSH2 0x159D JUMP JUMPDEST PUSH2 0x759 JUMP JUMPDEST PUSH1 0x40 MLOAD PUSH2 0x2CD SWAP2 SWAP1 PUSH2 0x15F8 JUMP JUMPDEST PUSH1 0x40 MLOAD DUP1 SWAP2 SUB SWAP1 RETURN JUMPDEST PUSH2 0x2DE PUSH2 0x790 JUMP JUMPDEST PUSH1 0x40 MLOAD PUSH2 0x2EB SWAP2 SWAP1 PUSH2 0x1937 JUMP JUMPDEST PUSH1 0x40 MLOAD DUP1 SWAP2 SUB SWAP1 RETURN JUMPDEST PUSH2 0x2FC PUSH2 0x7B6 JUMP JUMPDEST STOP JUMPDEST PUSH2 0x318 PUSH1 0x4 DUP1 CALLDATASIZE SUB DUP2 ADD SWAP1 PUSH2 0x313 SWAP2 SWAP1 PUSH2 0x1952 JUMP JUMPDEST PUSH2 0x87B JUMP JUMPDEST PUSH1 0x40 MLOAD PUSH2 0x325 SWAP2 SWAP1 PUSH2 0x1432 JUMP JUMPDEST PUSH1 0x40 MLOAD DUP1 SWAP2 SUB SWAP1 RETURN JUMPDEST PUSH2 0x336 PUSH2 0x8C3 JUMP JUMPDEST STOP JUMPDEST PUSH2 0x352 PUSH1 0x4 DUP1 CALLDATASIZE SUB DUP2 ADD SWAP1 PUSH2 0x34D SWAP2 SWAP1 PUSH2 0x1874 JUMP JUMPDEST PUSH2 0x8D7 JUMP JUMPDEST PUSH1 0x40 MLOAD PUSH2 0x35F SWAP2 SWAP1 PUSH2 0x1432 JUMP JUMPDEST PUSH1 0x40 MLOAD DUP1 SWAP2 SUB SWAP1 RETURN JUMPDEST PUSH2 0x382 PUSH1 0x4 DUP1 CALLDATASIZE SUB DUP2 ADD SWAP1 PUSH2 0x37D SWAP2 SWAP1 PUSH2 0x1874 JUMP JUMPDEST PUSH2 0x911 JUMP JUMPDEST PUSH1 0x40 MLOAD PUSH2 0x38F SWAP2 SWAP1 PUSH2 0x198E JUMP JUMPDEST PUSH1 0x40 MLOAD DUP1 SWAP2 SUB SWAP1 RETURN JUMPDEST PUSH2 0x3A0 PUSH2 0x944 JUMP JUMPDEST PUSH1 0x40 MLOAD PUSH2 0x3AD SWAP2 SWAP1 PUSH2 0x198E JUMP JUMPDEST PUSH1 0x40 MLOAD DUP1 SWAP2 SUB SWAP1 RETURN JUMPDEST PUSH2 0x3BE PUSH2 0x96E JUMP JUMPDEST PUSH1 0x40 MLOAD PUSH2 0x3CB SWAP2 SWAP1 PUSH2 0x14DD JUMP JUMPDEST PUSH1 0x40 MLOAD DUP1 SWAP2 SUB SWAP1 RETURN JUMPDEST PUSH2 0x3EE PUSH1 0x4 DUP1 CALLDATASIZE SUB DUP2 ADD SWAP1 PUSH2 0x3E9 SWAP2 SWAP1 PUSH2 0x159D JUMP JUMPDEST PUSH2 0xA00 JUMP JUMPDEST PUSH1 0x40 MLOAD PUSH2 0x3FB SWAP2 SWAP1 PUSH2 0x15F8 JUMP JUMPDEST PUSH1 0x40 MLOAD DUP1 SWAP2 SUB SWAP1 RETURN JUMPDEST PUSH2 0x41E PUSH1 0x4 DUP1 CALLDATASIZE SUB DUP2 ADD SWAP1 PUSH2 0x419 SWAP2 SWAP1 PUSH2 0x1874 JUMP JUMPDEST PUSH2 0xA77 JUMP JUMPDEST STOP JUMPDEST PUSH2 0x43A PUSH1 0x4 DUP1 CALLDATASIZE SUB DUP2 ADD SWAP1 PUSH2 0x435 SWAP2 SWAP1 PUSH2 0x159D JUMP JUMPDEST PUSH2 0xB75 JUMP JUMPDEST PUSH1 0x40 MLOAD PUSH2 0x447 SWAP2 SWAP1 PUSH2 0x15F8 JUMP JUMPDEST PUSH1 0x40 MLOAD DUP1 SWAP2 SUB SWAP1 RETURN JUMPDEST PUSH2 0x46A PUSH1 0x4 DUP1 CALLDATASIZE SUB DUP2 ADD SWAP1 PUSH2 0x465 SWAP2 SWAP1 PUSH2 0x19A9 JUMP JUMPDEST PUSH2 0xB98 JUMP JUMPDEST PUSH1 0x40 MLOAD PUSH2 0x477 SWAP2 SWAP1 PUSH2 0x1432 JUMP JUMPDEST PUSH1 0x40 MLOAD DUP1 SWAP2 SUB SWAP1 RETURN JUMPDEST PUSH2 0x49A PUSH1 0x4 DUP1 CALLDATASIZE SUB DUP2 ADD SWAP1 PUSH2 0x495 SWAP2 SWAP1 PUSH2 0x1952 JUMP JUMPDEST PUSH2 0xC1F JUMP JUMPDEST STOP JUMPDEST PUSH1 0x9 SLOAD DUP2 JUMP JUMPDEST PUSH1 0x60 PUSH1 0x3 DUP1 SLOAD PUSH2 0x4B1 SWAP1 PUSH2 0x1A18 JUMP JUMPDEST DUP1 PUSH1 0x1F ADD PUSH1 0x20 DUP1 SWAP2 DIV MUL PUSH1 0x20 ADD PUSH1 0x40 MLOAD SWAP1 DUP2 ADD PUSH1 0x40 MSTORE DUP1 SWAP3 SWAP2 SWAP1 DUP2 DUP2 MSTORE PUSH1 0x20 ADD DUP3 DUP1 SLOAD PUSH2 0x4DD SWAP1 PUSH2 0x1A18 JUMP JUMPDEST DUP1 ISZERO PUSH2 0x52A JUMPI DUP1 PUSH1 0x1F LT PUSH2 0x4FF JUMPI PUSH2 0x100 DUP1 DUP4 SLOAD DIV MUL DUP4 MSTORE SWAP2 PUSH1 0x20 ADD SWAP2 PUSH2 0x52A JUMP JUMPDEST DUP3 ADD SWAP2 SWAP1 PUSH1 0x0 MSTORE PUSH1 0x20 PUSH1 0x0 KECCAK256 SWAP1 JUMPDEST DUP2 SLOAD DUP2 MSTORE SWAP1 PUSH1 0x1 ADD SWAP1 PUSH1 0x20 ADD DUP1 DUP4 GT PUSH2 0x50D JUMPI DUP3 SWAP1 SUB PUSH1 0x1F AND DUP3 ADD SWAP2 JUMPDEST POP POP POP POP POP SWAP1 POP SWAP1 JUMP JUMPDEST PUSH1 0x0 DUP1 PUSH2 0x53F PUSH2 0xCA2 JUMP JUMPDEST SWAP1 POP PUSH2 0x54C DUP2 DUP6 DUP6 PUSH2 0xCAA JUMP JUMPDEST PUSH1 0x1 SWAP2 POP POP SWAP3 SWAP2 POP POP JUMP JUMPDEST PUSH1 0x0 PUSH4 0x150B7A02 PUSH1 0xE0 SHL SWAP1 POP SWAP5 SWAP4 POP POP POP POP JUMP JUMPDEST PUSH1 0x0 PUSH1 0x2 SLOAD SWAP1 POP SWAP1 JUMP JUMPDEST PUSH1 0x0 DUP1 PUSH2 0x580 PUSH2 0xCA2 JUMP JUMPDEST SWAP1 POP PUSH2 0x58D DUP6 DUP3 DUP6 PUSH2 0xE73 JUMP JUMPDEST PUSH2 0x598 DUP6 DUP6 DUP6 PUSH2 0xEFF JUMP JUMPDEST PUSH1 0x1 SWAP2 POP POP SWAP4 SWAP3 POP POP POP JUMP JUMPDEST PUSH1 0x8 PUSH1 0x20 MSTORE DUP1 PUSH1 0x0 MSTORE PUSH1 0x40 PUSH1 0x0 KECCAK256 PUSH1 0x0 SWAP2 POP SWAP1 POP SLOAD DUP2 JUMP JUMPDEST CALLER PUSH20 0xFFFFFFFFFFFFFFFFFFFFFFFFFFFFFFFFFFFFFFFF AND PUSH1 0x7 PUSH1 0x0 DUP4 DUP2 MSTORE PUSH1 0x20 ADD SWAP1 DUP2 MSTORE PUSH1 0x20 ADD PUSH1 0x0 KECCAK256 PUSH1 0x0 SWAP1 SLOAD SWAP1 PUSH2 0x100 EXP SWAP1 DIV PUSH20 0xFFFFFFFFFFFFFFFFFFFFFFFFFFFFFFFFFFFFFFFF AND PUSH20 0xFFFFFFFFFFFFFFFFFFFFFFFFFFFFFFFFFFFFFFFF AND EQ PUSH2 0x65D JUMPI PUSH1 0x40 MLOAD PUSH32 0x8C379A000000000000000000000000000000000000000000000000000000000 DUP2 MSTORE PUSH1 0x4 ADD PUSH2 0x654 SWAP1 PUSH2 0x1A95 JUMP JUMPDEST PUSH1 0x40 MLOAD DUP1 SWAP2 SUB SWAP1 REVERT JUMPDEST PUSH2 0x66F CALLER PUSH2 0x66A DUP4 PUSH2 0x8D7 JUMP JUMPDEST PUSH2 0x1175 JUMP JUMPDEST PUSH1 0x6 PUSH1 0x0 SWAP1 SLOAD SWAP1 PUSH2 0x100 EXP SWAP1 DIV PUSH20 0xFFFFFFFFFFFFFFFFFFFFFFFFFFFFFFFFFFFFFFFF AND PUSH20 0xFFFFFFFFFFFFFFFFFFFFFFFFFFFFFFFFFFFFFFFF AND PUSH4 0x23B872DD ADDRESS CALLER DUP5 PUSH1 0x40 MLOAD DUP5 PUSH4 0xFFFFFFFF AND PUSH1 0xE0 SHL DUP2 MSTORE PUSH1 0x4 ADD PUSH2 0x6CE SWAP4 SWAP3 SWAP2 SWAP1 PUSH2 0x1AB5 JUMP JUMPDEST PUSH1 0x0 PUSH1 0x40 MLOAD DUP1 DUP4 SUB DUP2 PUSH1 0x0 DUP8 DUP1 EXTCODESIZE ISZERO DUP1 ISZERO PUSH2 0x6E8 JUMPI PUSH1 0x0 DUP1 REVERT JUMPDEST POP GAS CALL ISZERO DUP1 ISZERO PUSH2 0x6FC JUMPI RETURNDATASIZE PUSH1 0x0 DUP1 RETURNDATACOPY RETURNDATASIZE PUSH1 0x0 REVERT JUMPDEST POP POP POP POP PUSH1 0x7 PUSH1 0x0 DUP3 DUP2 MSTORE PUSH1 0x20 ADD SWAP1 DUP2 MSTORE PUSH1 0x20 ADD PUSH1 0x0 KECCAK256 PUSH1 0x0 PUSH2 0x100 EXP DUP2 SLOAD SWAP1 PUSH20 0xFFFFFFFFFFFFFFFFFFFFFFFFFFFFFFFFFFFFFFFF MUL NOT AND SWAP1 SSTORE PUSH1 0x8 PUSH1 0x0 DUP3 DUP2 MSTORE PUSH1 0x20 ADD SWAP1 DUP2 MSTORE PUSH1 0x20 ADD PUSH1 0x0 KECCAK256 PUSH1 0x0 SWAP1 SSTORE POP JUMP JUMPDEST PUSH1 0x0 PUSH1 0x12 SWAP1 POP SWAP1 JUMP JUMPDEST PUSH1 0x0 DUP1 PUSH2 0x764 PUSH2 0xCA2 JUMP JUMPDEST SWAP1 POP PUSH2 0x785 DUP2 DUP6 DUP6 PUSH2 0x776 DUP6 DUP10 PUSH2 0xB98 JUMP JUMPDEST PUSH2 0x780 SWAP2 SWAP1 PUSH2 0x1B1B JUMP JUMPDEST PUSH2 0xCAA JUMP JUMPDEST PUSH1 0x1 SWAP2 POP POP SWAP3 SWAP2 POP POP JUMP JUMPDEST PUSH1 0x6 PUSH1 0x0 SWAP1 SLOAD SWAP1 PUSH2 0x100 EXP SWAP1 DIV PUSH20 0xFFFFFFFFFFFFFFFFFFFFFFFFFFFFFFFFFFFFFFFF AND DUP2 JUMP JUMPDEST PUSH2 0x7BE PUSH2 0x944 JUMP JUMPDEST PUSH20 0xFFFFFFFFFFFFFFFFFFFFFFFFFFFFFFFFFFFFFFFF AND CALLER PUSH20 0xFFFFFFFFFFFFFFFFFFFFFFFFFFFFFFFFFFFFFFFF AND EQ PUSH2 0x82B JUMPI PUSH1 0x40 MLOAD PUSH32 0x8C379A000000000000000000000000000000000000000000000000000000000 DUP2 MSTORE PUSH1 0x4 ADD PUSH2 0x822 SWAP1 PUSH2 0x1BC1 JUMP JUMPDEST PUSH1 0x40 MLOAD DUP1 SWAP2 SUB SWAP1 REVERT JUMPDEST PUSH2 0x833 PUSH2 0x944 JUMP JUMPDEST PUSH20 0xFFFFFFFFFFFFFFFFFFFFFFFFFFFFFFFFFFFFFFFF AND PUSH2 0x8FC SELFBALANCE SWAP1 DUP2 ISZERO MUL SWAP1 PUSH1 0x40 MLOAD PUSH1 0x0 PUSH1 0x40 MLOAD DUP1 DUP4 SUB DUP2 DUP6 DUP9 DUP9 CALL SWAP4 POP POP POP POP ISZERO DUP1 ISZERO PUSH2 0x878 JUMPI RETURNDATASIZE PUSH1 0x0 DUP1 RETURNDATACOPY RETURNDATASIZE PUSH1 0x0 REVERT JUMPDEST POP JUMP JUMPDEST PUSH1 0x0 DUP1 PUSH1 0x0 DUP4 PUSH20 0xFFFFFFFFFFFFFFFFFFFFFFFFFFFFFFFFFFFFFFFF AND PUSH20 0xFFFFFFFFFFFFFFFFFFFFFFFFFFFFFFFFFFFFFFFF AND DUP2 MSTORE PUSH1 0x20 ADD SWAP1 DUP2 MSTORE PUSH1 0x20 ADD PUSH1 0x0 KECCAK256 SLOAD SWAP1 POP SWAP2 SWAP1 POP JUMP JUMPDEST PUSH2 0x8CB PUSH2 0x12CB JUMP JUMPDEST PUSH2 0x8D5 PUSH1 0x0 PUSH2 0x1349 JUMP JUMPDEST JUMP JUMPDEST PUSH1 0x0 DUP1 PUSH1 0x8 PUSH1 0x0 DUP5 DUP2 MSTORE PUSH1 0x20 ADD SWAP1 DUP2 MSTORE PUSH1 0x20 ADD PUSH1 0x0 KECCAK256 SLOAD TIMESTAMP PUSH2 0x8F9 SWAP2 SWAP1 PUSH2 0x1BE1 JUMP JUMPDEST SWAP1 POP PUSH1 0x9 SLOAD DUP2 PUSH2 0x909 SWAP2 SWAP1 PUSH2 0x1C15 JUMP JUMPDEST SWAP2 POP POP SWAP2 SWAP1 POP JUMP JUMPDEST PUSH1 0x7 PUSH1 0x20 MSTORE DUP1 PUSH1 0x0 MSTORE PUSH1 0x40 PUSH1 0x0 KECCAK256 PUSH1 0x0 SWAP2 POP SLOAD SWAP1 PUSH2 0x100 EXP SWAP1 DIV PUSH20 0xFFFFFFFFFFFFFFFFFFFFFFFFFFFFFFFFFFFFFFFF AND DUP2 JUMP JUMPDEST PUSH1 0x0 PUSH1 0x5 PUSH1 0x0 SWAP1 SLOAD SWAP1 PUSH2 0x100 EXP SWAP1 DIV PUSH20 0xFFFFFFFFFFFFFFFFFFFFFFFFFFFFFFFFFFFFFFFF AND SWAP1 POP SWAP1 JUMP JUMPDEST PUSH1 0x60 PUSH1 0x4 DUP1 SLOAD PUSH2 0x97D SWAP1 PUSH2 0x1A18 JUMP JUMPDEST DUP1 PUSH1 0x1F ADD PUSH1 0x20 DUP1 SWAP2 DIV MUL PUSH1 0x20 ADD PUSH1 0x40 MLOAD SWAP1 DUP2 ADD PUSH1 0x40 MSTORE DUP1 SWAP3 SWAP2 SWAP1 DUP2 DUP2 MSTORE PUSH1 0x20 ADD DUP3 DUP1 SLOAD PUSH2 0x9A9 SWAP1 PUSH2 0x1A18 JUMP JUMPDEST DUP1 ISZERO PUSH2 0x9F6 JUMPI DUP1 PUSH1 0x1F LT PUSH2 0x9CB JUMPI PUSH2 0x100 DUP1 DUP4 SLOAD DIV MUL DUP4 MSTORE SWAP2 PUSH1 0x20 ADD SWAP2 PUSH2 0x9F6 JUMP JUMPDEST DUP3 ADD SWAP2 SWAP1 PUSH1 0x0 MSTORE PUSH1 0x20 PUSH1 0x0 KECCAK256 SWAP1 JUMPDEST DUP2 SLOAD DUP2 MSTORE SWAP1 PUSH1 0x1 ADD SWAP1 PUSH1 0x20 ADD DUP1 DUP4 GT PUSH2 0x9D9 JUMPI DUP3 SWAP1 SUB PUSH1 0x1F AND DUP3 ADD SWAP2 JUMPDEST POP POP POP POP POP SWAP1 POP SWAP1 JUMP JUMPDEST PUSH1 0x0 DUP1 PUSH2 0xA0B PUSH2 0xCA2 JUMP JUMPDEST SWAP1 POP PUSH1 0x0 PUSH2 0xA19 DUP3 DUP7 PUSH2 0xB98 JUMP JUMPDEST SWAP1 POP DUP4 DUP2 LT ISZERO PUSH2 0xA5E JUMPI PUSH1 0x40 MLOAD PUSH32 0x8C379A000000000000000000000000000000000000000000000000000000000 DUP2 MSTORE PUSH1 0x4 ADD PUSH2 0xA55 SWAP1 PUSH2 0x1CC9 JUMP JUMPDEST PUSH1 0x40 MLOAD DUP1 SWAP2 SUB SWAP1 REVERT JUMPDEST PUSH2 0xA6B DUP3 DUP7 DUP7 DUP5 SUB PUSH2 0xCAA JUMP JUMPDEST PUSH1 0x1 SWAP3 POP POP POP SWAP3 SWAP2 POP POP JUMP JUMPDEST PUSH1 0x6 PUSH1 0x0 SWAP1 SLOAD SWAP1 PUSH2 0x100 EXP SWAP1 DIV PUSH20 0xFFFFFFFFFFFFFFFFFFFFFFFFFFFFFFFFFFFFFFFF AND PUSH20 0xFFFFFFFFFFFFFFFFFFFFFFFFFFFFFFFFFFFFFFFF AND PUSH4 0x42842E0E CALLER ADDRESS DUP5 PUSH1 0x40 MLOAD DUP5 PUSH4 0xFFFFFFFF AND PUSH1 0xE0 SHL DUP2 MSTORE PUSH1 0x4 ADD PUSH2 0xAD6 SWAP4 SWAP3 SWAP2 SWAP1 PUSH2 0x1AB5 JUMP JUMPDEST PUSH1 0x0 PUSH1 0x40 MLOAD DUP1 DUP4 SUB DUP2 PUSH1 0x0 DUP8 DUP1 EXTCODESIZE ISZERO DUP1 ISZERO PUSH2 0xAF0 JUMPI PUSH1 0x0 DUP1 REVERT JUMPDEST POP GAS CALL ISZERO DUP1 ISZERO PUSH2 0xB04 JUMPI RETURNDATASIZE PUSH1 0x0 DUP1 RETURNDATACOPY RETURNDATASIZE PUSH1 0x0 REVERT JUMPDEST POP POP POP POP CALLER PUSH1 0x7 PUSH1 0x0 DUP4 DUP2 MSTORE PUSH1 0x20 ADD SWAP1 DUP2 MSTORE PUSH1 0x20 ADD PUSH1 0x0 KECCAK256 PUSH1 0x0 PUSH2 0x100 EXP DUP2 SLOAD DUP2 PUSH20 0xFFFFFFFFFFFFFFFFFFFFFFFFFFFFFFFFFFFFFFFF MUL NOT AND SWAP1 DUP4 PUSH20 0xFFFFFFFFFFFFFFFFFFFFFFFFFFFFFFFFFFFFFFFF AND MUL OR SWAP1 SSTORE POP TIMESTAMP PUSH1 0x8 PUSH1 0x0 DUP4 DUP2 MSTORE PUSH1 0x20 ADD SWAP1 DUP2 MSTORE PUSH1 0x20 ADD PUSH1 0x0 KECCAK256 DUP2 SWAP1 SSTORE POP POP JUMP JUMPDEST PUSH1 0x0 DUP1 PUSH2 0xB80 PUSH2 0xCA2 JUMP JUMPDEST SWAP1 POP PUSH2 0xB8D DUP2 DUP6 DUP6 PUSH2 0xEFF JUMP JUMPDEST PUSH1 0x1 SWAP2 POP POP SWAP3 SWAP2 POP POP JUMP JUMPDEST PUSH1 0x0 PUSH1 0x1 PUSH1 0x0 DUP5 PUSH20 0xFFFFFFFFFFFFFFFFFFFFFFFFFFFFFFFFFFFFFFFF AND PUSH20 0xFFFFFFFFFFFFFFFFFFFFFFFFFFFFFFFFFFFFFFFF AND DUP2 MSTORE PUSH1 0x20 ADD SWAP1 DUP2 MSTORE PUSH1 0x20 ADD PUSH1 0x0 KECCAK256 PUSH1 0x0 DUP4 PUSH20 0xFFFFFFFFFFFFFFFFFFFFFFFFFFFFFFFFFFFFFFFF AND PUSH20 0xFFFFFFFFFFFFFFFFFFFFFFFFFFFFFFFFFFFFFFFF AND DUP2 MSTORE PUSH1 0x20 ADD SWAP1 DUP2 MSTORE PUSH1 0x20 ADD PUSH1 0x0 KECCAK256 SLOAD SWAP1 POP SWAP3 SWAP2 POP POP JUMP JUMPDEST PUSH2 0xC27 PUSH2 0x12CB JUMP JUMPDEST PUSH1 0x0 PUSH20 0xFFFFFFFFFFFFFFFFFFFFFFFFFFFFFFFFFFFFFFFF AND DUP2 PUSH20 0xFFFFFFFFFFFFFFFFFFFFFFFFFFFFFFFFFFFFFFFF AND SUB PUSH2 0xC96 JUMPI PUSH1 0x40 MLOAD PUSH32 0x8C379A000000000000000000000000000000000000000000000000000000000 DUP2 MSTORE PUSH1 0x4 ADD PUSH2 0xC8D SWAP1 PUSH2 0x1D5B JUMP JUMPDEST PUSH1 0x40 MLOAD DUP1 SWAP2 SUB SWAP1 REVERT JUMPDEST PUSH2 0xC9F DUP2 PUSH2 0x1349 JUMP JUMPDEST POP JUMP JUMPDEST PUSH1 0x0 CALLER SWAP1 POP SWAP1 JUMP JUMPDEST PUSH1 0x0 PUSH20 0xFFFFFFFFFFFFFFFFFFFFFFFFFFFFFFFFFFFFFFFF AND DUP4 PUSH20 0xFFFFFFFFFFFFFFFFFFFFFFFFFFFFFFFFFFFFFFFF AND SUB PUSH2 0xD19 JUMPI PUSH1 0x40 MLOAD PUSH32 0x8C379A000000000000000000000000000000000000000000000000000000000 DUP2 MSTORE PUSH1 0x4 ADD PUSH2 0xD10 SWAP1 PUSH2 0x1DED JUMP JUMPDEST PUSH1 0x40 MLOAD DUP1 SWAP2 SUB SWAP1 REVERT JUMPDEST PUSH1 0x0 PUSH20 0xFFFFFFFFFFFFFFFFFFFFFFFFFFFFFFFFFFFFFFFF AND DUP3 PUSH20 0xFFFFFFFFFFFFFFFFFFFFFFFFFFFFFFFFFFFFFFFF AND SUB PUSH2 0xD88 JUMPI PUSH1 0x40 MLOAD PUSH32 0x8C379A000000000000000000000000000000000000000000000000000000000 DUP2 MSTORE PUSH1 0x4 ADD PUSH2 0xD7F SWAP1 PUSH2 0x1E7F JUMP JUMPDEST PUSH1 0x40 MLOAD DUP1 SWAP2 SUB SWAP1 REVERT JUMPDEST DUP1 PUSH1 0x1 PUSH1 0x0 DUP6 PUSH20 0xFFFFFFFFFFFFFFFFFFFFFFFFFFFFFFFFFFFFFFFF AND PUSH20 0xFFFFFFFFFFFFFFFFFFFFFFFFFFFFFFFFFFFFFFFF AND DUP2 MSTORE PUSH1 0x20 ADD SWAP1 DUP2 MSTORE PUSH1 0x20 ADD PUSH1 0x0 KECCAK256 PUSH1 0x0 DUP5 PUSH20 0xFFFFFFFFFFFFFFFFFFFFFFFFFFFFFFFFFFFFFFFF AND PUSH20 0xFFFFFFFFFFFFFFFFFFFFFFFFFFFFFFFFFFFFFFFF AND DUP2 MSTORE PUSH1 0x20 ADD SWAP1 DUP2 MSTORE PUSH1 0x20 ADD PUSH1 0x0 KECCAK256 DUP2 SWAP1 SSTORE POP DUP2 PUSH20 0xFFFFFFFFFFFFFFFFFFFFFFFFFFFFFFFFFFFFFFFF AND DUP4 PUSH20 0xFFFFFFFFFFFFFFFFFFFFFFFFFFFFFFFFFFFFFFFF AND PUSH32 0x8C5BE1E5EBEC7D5BD14F71427D1E84F3DD0314C0F7B2291E5B200AC8C7C3B925 DUP4 PUSH1 0x40 MLOAD PUSH2 0xE66 SWAP2 SWAP1 PUSH2 0x1432 JUMP JUMPDEST PUSH1 0x40 MLOAD DUP1 SWAP2 SUB SWAP1 LOG3 POP POP POP JUMP JUMPDEST PUSH1 0x0 PUSH2 0xE7F DUP5 DUP5 PUSH2 0xB98 JUMP JUMPDEST SWAP1 POP PUSH32 0xFFFFFFFFFFFFFFFFFFFFFFFFFFFFFFFFFFFFFFFFFFFFFFFFFFFFFFFFFFFFFFFF DUP2 EQ PUSH2 0xEF9 JUMPI DUP2 DUP2 LT ISZERO PUSH2 0xEEB JUMPI PUSH1 0x40 MLOAD PUSH32 0x8C379A000000000000000000000000000000000000000000000000000000000 DUP2 MSTORE PUSH1 0x4 ADD PUSH2 0xEE2 SWAP1 PUSH2 0x1EEB JUMP JUMPDEST PUSH1 0x40 MLOAD DUP1 SWAP2 SUB SWAP1 REVERT JUMPDEST PUSH2 0xEF8 DUP5 DUP5 DUP5 DUP5 SUB PUSH2 0xCAA JUMP JUMPDEST JUMPDEST POP POP POP POP JUMP JUMPDEST PUSH1 0x0 PUSH20 0xFFFFFFFFFFFFFFFFFFFFFFFFFFFFFFFFFFFFFFFF AND DUP4 PUSH20 0xFFFFFFFFFFFFFFFFFFFFFFFFFFFFFFFFFFFFFFFF AND SUB PUSH2 0xF6E JUMPI PUSH1 0x40 MLOAD PUSH32 0x8C379A000000000000000000000000000000000000000000000000000000000 DUP2 MSTORE PUSH1 0x4 ADD PUSH2 0xF65 SWAP1 PUSH2 0x1F7D JUMP JUMPDEST PUSH1 0x40 MLOAD DUP1 SWAP2 SUB SWAP1 REVERT JUMPDEST PUSH1 0x0 PUSH20 0xFFFFFFFFFFFFFFFFFFFFFFFFFFFFFFFFFFFFFFFF AND DUP3 PUSH20 0xFFFFFFFFFFFFFFFFFFFFFFFFFFFFFFFFFFFFFFFF AND SUB PUSH2 0xFDD JUMPI PUSH1 0x40 MLOAD PUSH32 0x8C379A000000000000000000000000000000000000000000000000000000000 DUP2 MSTORE PUSH1 0x4 ADD PUSH2 0xFD4 SWAP1 PUSH2 0x200F JUMP JUMPDEST PUSH1 0x40 MLOAD DUP1 SWAP2 SUB SWAP1 REVERT JUMPDEST PUSH2 0xFE8 DUP4 DUP4 DUP4 PUSH2 0x140F JUMP JUMPDEST PUSH1 0x0 DUP1 PUSH1 0x0 DUP6 PUSH20 0xFFFFFFFFFFFFFFFFFFFFFFFFFFFFFFFFFFFFFFFF AND PUSH20 0xFFFFFFFFFFFFFFFFFFFFFFFFFFFFFFFFFFFFFFFF AND DUP2 MSTORE PUSH1 0x20 ADD SWAP1 DUP2 MSTORE PUSH1 0x20 ADD PUSH1 0x0 KECCAK256 SLOAD SWAP1 POP DUP2 DUP2 LT ISZERO PUSH2 0x106E JUMPI PUSH1 0x40 MLOAD PUSH32 0x8C379A000000000000000000000000000000000000000000000000000000000 DUP2 MSTORE PUSH1 0x4 ADD PUSH2 0x1065 SWAP1 PUSH2 0x20A1 JUMP JUMPDEST PUSH1 0x40 MLOAD DUP1 SWAP2 SUB SWAP1 REVERT JUMPDEST DUP2 DUP2 SUB PUSH1 0x0 DUP1 DUP7 PUSH20 0xFFFFFFFFFFFFFFFFFFFFFFFFFFFFFFFFFFFFFFFF AND PUSH20 0xFFFFFFFFFFFFFFFFFFFFFFFFFFFFFFFFFFFFFFFF AND DUP2 MSTORE PUSH1 0x20 ADD SWAP1 DUP2 MSTORE PUSH1 0x20 ADD PUSH1 0x0 KECCAK256 DUP2 SWAP1 SSTORE POP DUP2 PUSH1 0x0 DUP1 DUP6 PUSH20 0xFFFFFFFFFFFFFFFFFFFFFFFFFFFFFFFFFFFFFFFF AND PUSH20 0xFFFFFFFFFFFFFFFFFFFFFFFFFFFFFFFFFFFFFFFF AND DUP2 MSTORE PUSH1 0x20 ADD SWAP1 DUP2 MSTORE PUSH1 0x20 ADD PUSH1 0x0 KECCAK256 PUSH1 0x0 DUP3 DUP3 SLOAD ADD SWAP3 POP POP DUP2 SWAP1 SSTORE POP DUP3 PUSH20 0xFFFFFFFFFFFFFFFFFFFFFFFFFFFFFFFFFFFFFFFF AND DUP5 PUSH20 0xFFFFFFFFFFFFFFFFFFFFFFFFFFFFFFFFFFFFFFFF AND PUSH32 0xDDF252AD1BE2C89B69C2B068FC378DAA952BA7F163C4A11628F55A4DF523B3EF DUP5 PUSH1 0x40 MLOAD PUSH2 0x115C SWAP2 SWAP1 PUSH2 0x1432 JUMP JUMPDEST PUSH1 0x40 MLOAD DUP1 SWAP2 SUB SWAP1 LOG3 PUSH2 0x116F DUP5 DUP5 DUP5 PUSH2 0x1414 JUMP JUMPDEST POP POP POP POP JUMP JUMPDEST PUSH1 0x0 PUSH20 0xFFFFFFFFFFFFFFFFFFFFFFFFFFFFFFFFFFFFFFFF AND DUP3 PUSH20 0xFFFFFFFFFFFFFFFFFFFFFFFFFFFFFFFFFFFFFFFF AND SUB PUSH2 0x11E4 JUMPI PUSH1 0x40 MLOAD PUSH32 0x8C379A000000000000000000000000000000000000000000000000000000000 DUP2 MSTORE PUSH1 0x4 ADD PUSH2 0x11DB SWAP1 PUSH2 0x210D JUMP JUMPDEST PUSH1 0x40 MLOAD DUP1 SWAP2 SUB SWAP1 REVERT JUMPDEST PUSH2 0x11F0 PUSH1 0x0 DUP4 DUP4 PUSH2 0x140F JUMP JUMPDEST DUP1 PUSH1 0x2 PUSH1 0x0 DUP3 DUP3 SLOAD PUSH2 0x1202 SWAP2 SWAP1 PUSH2 0x1B1B JUMP JUMPDEST SWAP3 POP POP DUP2 SWAP1 SSTORE POP DUP1 PUSH1 0x0 DUP1 DUP5 PUSH20 0xFFFFFFFFFFFFFFFFFFFFFFFFFFFFFFFFFFFFFFFF AND PUSH20 0xFFFFFFFFFFFFFFFFFFFFFFFFFFFFFFFFFFFFFFFF AND DUP2 MSTORE PUSH1 0x20 ADD SWAP1 DUP2 MSTORE PUSH1 0x20 ADD PUSH1 0x0 KECCAK256 PUSH1 0x0 DUP3 DUP3 SLOAD ADD SWAP3 POP POP DUP2 SWAP1 SSTORE POP DUP2 PUSH20 0xFFFFFFFFFFFFFFFFFFFFFFFFFFFFFFFFFFFFFFFF AND PUSH1 0x0 PUSH20 0xFFFFFFFFFFFFFFFFFFFFFFFFFFFFFFFFFFFFFFFF AND PUSH32 0xDDF252AD1BE2C89B69C2B068FC378DAA952BA7F163C4A11628F55A4DF523B3EF DUP4 PUSH1 0x40 MLOAD PUSH2 0x12B3 SWAP2 SWAP1 PUSH2 0x1432 JUMP JUMPDEST PUSH1 0x40 MLOAD DUP1 SWAP2 SUB SWAP1 LOG3 PUSH2 0x12C7 PUSH1 0x0 DUP4 DUP4 PUSH2 0x1414 JUMP JUMPDEST POP POP JUMP JUMPDEST PUSH2 0x12D3 PUSH2 0xCA2 JUMP JUMPDEST PUSH20 0xFFFFFFFFFFFFFFFFFFFFFFFFFFFFFFFFFFFFFFFF AND PUSH2 0x12F1 PUSH2 0x944 JUMP JUMPDEST PUSH20 0xFFFFFFFFFFFFFFFFFFFFFFFFFFFFFFFFFFFFFFFF AND EQ PUSH2 0x1347 JUMPI PUSH1 0x40 MLOAD PUSH32 0x8C379A000000000000000000000000000000000000000000000000000000000 DUP2 MSTORE PUSH1 0x4 ADD PUSH2 0x133E SWAP1 PUSH2 0x2179 JUMP JUMPDEST PUSH1 0x40 MLOAD DUP1 SWAP2 SUB SWAP1 REVERT JUMPDEST JUMP JUMPDEST PUSH1 0x0 PUSH1 0x5 PUSH1 0x0 SWAP1 SLOAD SWAP1 PUSH2 0x100 EXP SWAP1 DIV PUSH20 0xFFFFFFFFFFFFFFFFFFFFFFFFFFFFFFFFFFFFFFFF AND SWAP1 POP DUP2 PUSH1 0x5 PUSH1 0x0 PUSH2 0x100 EXP DUP2 SLOAD DUP2 PUSH20 0xFFFFFFFFFFFFFFFFFFFFFFFFFFFFFFFFFFFFFFFF MUL NOT AND SWAP1 DUP4 PUSH20 0xFFFFFFFFFFFFFFFFFFFFFFFFFFFFFFFFFFFFFFFF AND MUL OR SWAP1 SSTORE POP DUP2 PUSH20 0xFFFFFFFFFFFFFFFFFFFFFFFFFFFFFFFFFFFFFFFF AND DUP2 PUSH20 0xFFFFFFFFFFFFFFFFFFFFFFFFFFFFFFFFFFFFFFFF AND PUSH32 0x8BE0079C531659141344CD1FD0A4F28419497F9722A3DAAFE3B4186F6B6457E0 PUSH1 0x40 MLOAD PUSH1 0x40 MLOAD DUP1 SWAP2 SUB SWAP1 LOG3 POP POP JUMP JUMPDEST POP POP POP JUMP JUMPDEST POP POP POP JUMP JUMPDEST PUSH1 0x0 DUP2 SWAP1 POP SWAP2 SWAP1 POP JUMP JUMPDEST PUSH2 0x142C DUP2 PUSH2 0x1419 JUMP JUMPDEST DUP3 MSTORE POP POP JUMP JUMPDEST PUSH1 0x0 PUSH1 0x20 DUP3 ADD SWAP1 POP PUSH2 0x1447 PUSH1 0x0 DUP4 ADD DUP5 PUSH2 0x1423 JUMP JUMPDEST SWAP3 SWAP2 POP POP JUMP JUMPDEST PUSH1 0x0 DUP2 MLOAD SWAP1 POP SWAP2 SWAP1 POP JUMP JUMPDEST PUSH1 0x0 DUP3 DUP3 MSTORE PUSH1 0x20 DUP3 ADD SWAP1 POP SWAP3 SWAP2 POP POP JUMP JUMPDEST PUSH1 0x0 JUMPDEST DUP4 DUP2 LT ISZERO PUSH2 0x1487 JUMPI DUP1 DUP3 ADD MLOAD DUP2 DUP5 ADD MSTORE PUSH1 0x20 DUP2 ADD SWAP1 POP PUSH2 0x146C JUMP JUMPDEST PUSH1 0x0 DUP5 DUP5 ADD MSTORE POP POP POP POP JUMP JUMPDEST PUSH1 0x0 PUSH1 0x1F NOT PUSH1 0x1F DUP4 ADD AND SWAP1 POP SWAP2 SWAP1 POP JUMP JUMPDEST PUSH1 0x0 PUSH2 0x14AF DUP3 PUSH2 0x144D JUMP JUMPDEST PUSH2 0x14B9 DUP2 DUP6 PUSH2 0x1458 JUMP JUMPDEST SWAP4 POP PUSH2 0x14C9 DUP2 DUP6 PUSH1 0x20 DUP7 ADD PUSH2 0x1469 JUMP JUMPDEST PUSH2 0x14D2 DUP2 PUSH2 0x1493 JUMP JUMPDEST DUP5 ADD SWAP2 POP POP SWAP3 SWAP2 POP POP JUMP JUMPDEST PUSH1 0x0 PUSH1 0x20 DUP3 ADD SWAP1 POP DUP2 DUP2 SUB PUSH1 0x0 DUP4 ADD MSTORE PUSH2 0x14F7 DUP2 DUP5 PUSH2 0x14A4 JUMP JUMPDEST SWAP1 POP SWAP3 SWAP2 POP POP JUMP JUMPDEST PUSH1 0x0 PUSH1 0x40 MLOAD SWAP1 POP SWAP1 JUMP JUMPDEST PUSH1 0x0 DUP1 REVERT JUMPDEST PUSH1 0x0 DUP1 REVERT JUMPDEST PUSH1 0x0 PUSH20 0xFFFFFFFFFFFFFFFFFFFFFFFFFFFFFFFFFFFFFFFF DUP3 AND SWAP1 POP SWAP2 SWAP1 POP JUMP JUMPDEST PUSH1 0x0 PUSH2 0x153E DUP3 PUSH2 0x1513 JUMP JUMPDEST SWAP1 POP SWAP2 SWAP1 POP JUMP JUMPDEST PUSH2 0x154E DUP2 PUSH2 0x1533 JUMP JUMPDEST DUP2 EQ PUSH2 0x1559 JUMPI PUSH1 0x0 DUP1 REVERT JUMPDEST POP JUMP JUMPDEST PUSH1 0x0 DUP2 CALLDATALOAD SWAP1 POP PUSH2 0x156B DUP2 PUSH2 0x1545 JUMP JUMPDEST SWAP3 SWAP2 POP POP JUMP JUMPDEST PUSH2 0x157A DUP2 PUSH2 0x1419 JUMP JUMPDEST DUP2 EQ PUSH2 0x1585 JUMPI PUSH1 0x0 DUP1 REVERT JUMPDEST POP JUMP JUMPDEST PUSH1 0x0 DUP2 CALLDATALOAD SWAP1 POP PUSH2 0x1597 DUP2 PUSH2 0x1571 JUMP JUMPDEST SWAP3 SWAP2 POP POP JUMP JUMPDEST PUSH1 0x0 DUP1 PUSH1 0x40 DUP4 DUP6 SUB SLT ISZERO PUSH2 0x15B4 JUMPI PUSH2 0x15B3 PUSH2 0x1509 JUMP JUMPDEST JUMPDEST PUSH1 0x0 PUSH2 0x15C2 DUP6 DUP3 DUP7 ADD PUSH2 0x155C JUMP JUMPDEST SWAP3 POP POP PUSH1 0x20 PUSH2 0x15D3 DUP6 DUP3 DUP7 ADD PUSH2 0x1588 JUMP JUMPDEST SWAP2 POP POP SWAP3 POP SWAP3 SWAP1 POP JUMP JUMPDEST PUSH1 0x0 DUP2 ISZERO ISZERO SWAP1 POP SWAP2 SWAP1 POP JUMP JUMPDEST PUSH2 0x15F2 DUP2 PUSH2 0x15DD JUMP JUMPDEST DUP3 MSTORE POP POP JUMP JUMPDEST PUSH1 0x0 PUSH1 0x20 DUP3 ADD SWAP1 POP PUSH2 0x160D PUSH1 0x0 DUP4 ADD DUP5 PUSH2 0x15E9 JUMP JUMPDEST SWAP3 SWAP2 POP POP JUMP JUMPDEST PUSH1 0x0 DUP1 REVERT JUMPDEST PUSH1 0x0 DUP1 REVERT JUMPDEST PUSH32 0x4E487B7100000000000000000000000000000000000000000000000000000000 PUSH1 0x0 MSTORE PUSH1 0x41 PUSH1 0x4 MSTORE PUSH1 0x24 PUSH1 0x0 REVERT JUMPDEST PUSH2 0x1655 DUP3 PUSH2 0x1493 JUMP JUMPDEST DUP2 ADD DUP2 DUP2 LT PUSH8 0xFFFFFFFFFFFFFFFF DUP3 GT OR ISZERO PUSH2 0x1674 JUMPI PUSH2 0x1673 PUSH2 0x161D JUMP JUMPDEST JUMPDEST DUP1 PUSH1 0x40 MSTORE POP POP POP JUMP JUMPDEST PUSH1 0x0 PUSH2 0x1687 PUSH2 0x14FF JUMP JUMPDEST SWAP1 POP PUSH2 0x1693 DUP3 DUP3 PUSH2 0x164C JUMP JUMPDEST SWAP2 SWAP1 POP JUMP JUMPDEST PUSH1 0x0 PUSH8 0xFFFFFFFFFFFFFFFF DUP3 GT ISZERO PUSH2 0x16B3 JUMPI PUSH2 0x16B2 PUSH2 0x161D JUMP JUMPDEST JUMPDEST PUSH2 0x16BC DUP3 PUSH2 0x1493 JUMP JUMPDEST SWAP1 POP PUSH1 0x20 DUP2 ADD SWAP1 POP SWAP2 SWAP1 POP JUMP JUMPDEST DUP3 DUP2 DUP4 CALLDATACOPY PUSH1 0x0 DUP4 DUP4 ADD MSTORE POP POP POP JUMP JUMPDEST PUSH1 0x0 PUSH2 0x16EB PUSH2 0x16E6 DUP5 PUSH2 0x1698 JUMP JUMPDEST PUSH2 0x167D JUMP JUMPDEST SWAP1 POP DUP3 DUP2 MSTORE PUSH1 0x20 DUP2 ADD DUP5 DUP5 DUP5 ADD GT ISZERO PUSH2 0x1707 JUMPI PUSH2 0x1706 PUSH2 0x1618 JUMP JUMPDEST JUMPDEST PUSH2 0x1712 DUP5 DUP3 DUP6 PUSH2 0x16C9 JUMP JUMPDEST POP SWAP4 SWAP3 POP POP POP JUMP JUMPDEST PUSH1 0x0 DUP3 PUSH1 0x1F DUP4 ADD SLT PUSH2 0x172F JUMPI PUSH2 0x172E PUSH2 0x1613 JUMP JUMPDEST JUMPDEST DUP2 CALLDATALOAD PUSH2 0x173F DUP5 DUP3 PUSH1 0x20 DUP7 ADD PUSH2 0x16D8 JUMP JUMPDEST SWAP2 POP POP SWAP3 SWAP2 POP POP JUMP JUMPDEST PUSH1 0x0 DUP1 PUSH1 0x0 DUP1 PUSH1 0x80 DUP6 DUP8 SUB SLT ISZERO PUSH2 0x1762 JUMPI PUSH2 0x1761 PUSH2 0x1509 JUMP JUMPDEST JUMPDEST PUSH1 0x0 PUSH2 0x1770 DUP8 DUP3 DUP9 ADD PUSH2 0x155C JUMP JUMPDEST SWAP5 POP POP PUSH1 0x20 PUSH2 0x1781 DUP8 DUP3 DUP9 ADD PUSH2 0x155C JUMP JUMPDEST SWAP4 POP POP PUSH1 0x40 PUSH2 0x1792 DUP8 DUP3 DUP9 ADD PUSH2 0x1588 JUMP JUMPDEST SWAP3 POP POP PUSH1 0x60 DUP6 ADD CALLDATALOAD PUSH8 0xFFFFFFFFFFFFFFFF DUP2 GT ISZERO PUSH2 0x17B3 JUMPI PUSH2 0x17B2 PUSH2 0x150E JUMP JUMPDEST JUMPDEST PUSH2 0x17BF DUP8 DUP3 DUP9 ADD PUSH2 0x171A JUMP JUMPDEST SWAP2 POP POP SWAP3 SWAP6 SWAP2 SWAP5 POP SWAP3 POP JUMP JUMPDEST PUSH1 0x0 PUSH32 0xFFFFFFFF00000000000000000000000000000000000000000000000000000000 DUP3 AND SWAP1 POP SWAP2 SWAP1 POP JUMP JUMPDEST PUSH2 0x1800 DUP2 PUSH2 0x17CB JUMP JUMPDEST DUP3 MSTORE POP POP JUMP JUMPDEST PUSH1 0x0 PUSH1 0x20 DUP3 ADD SWAP1 POP PUSH2 0x181B PUSH1 0x0 DUP4 ADD DUP5 PUSH2 0x17F7 JUMP JUMPDEST SWAP3 SWAP2 POP POP JUMP JUMPDEST PUSH1 0x0 DUP1 PUSH1 0x0 PUSH1 0x60 DUP5 DUP7 SUB SLT ISZERO PUSH2 0x183A JUMPI PUSH2 0x1839 PUSH2 0x1509 JUMP JUMPDEST JUMPDEST PUSH1 0x0 PUSH2 0x1848 DUP7 DUP3 DUP8 ADD PUSH2 0x155C JUMP JUMPDEST SWAP4 POP POP PUSH1 0x20 PUSH2 0x1859 DUP7 DUP3 DUP8 ADD PUSH2 0x155C JUMP JUMPDEST SWAP3 POP POP PUSH1 0x40 PUSH2 0x186A DUP7 DUP3 DUP8 ADD PUSH2 0x1588 JUMP JUMPDEST SWAP2 POP POP SWAP3 POP SWAP3 POP SWAP3 JUMP JUMPDEST PUSH1 0x0 PUSH1 0x20 DUP3 DUP5 SUB SLT ISZERO PUSH2 0x188A JUMPI PUSH2 0x1889 PUSH2 0x1509 JUMP JUMPDEST JUMPDEST PUSH1 0x0 PUSH2 0x1898 DUP5 DUP3 DUP6 ADD PUSH2 0x1588 JUMP JUMPDEST SWAP2 POP POP SWAP3 SWAP2 POP POP JUMP JUMPDEST PUSH1 0x0 PUSH1 0xFF DUP3 AND SWAP1 POP SWAP2 SWAP1 POP JUMP JUMPDEST PUSH2 0x18B7 DUP2 PUSH2 0x18A1 JUMP JUMPDEST DUP3 MSTORE POP POP JUMP JUMPDEST PUSH1 0x0 PUSH1 0x20 DUP3 ADD SWAP1 POP PUSH2 0x18D2 PUSH1 0x0 DUP4 ADD DUP5 PUSH2 0x18AE JUMP JUMPDEST SWAP3 SWAP2 POP POP JUMP JUMPDEST PUSH1 0x0 DUP2 SWAP1 POP SWAP2 SWAP1 POP JUMP JUMPDEST PUSH1 0x0 PUSH2 0x18FD PUSH2 0x18F8 PUSH2 0x18F3 DUP5 PUSH2 0x1513 JUMP JUMPDEST PUSH2 0x18D8 JUMP JUMPDEST PUSH2 0x1513 JUMP JUMPDEST SWAP1 POP SWAP2 SWAP1 POP JUMP JUMPDEST PUSH1 0x0 PUSH2 0x190F DUP3 PUSH2 0x18E2 JUMP JUMPDEST SWAP1 POP SWAP2 SWAP1 POP JUMP JUMPDEST PUSH1 0x0 PUSH2 0x1921 DUP3 PUSH2 0x1904 JUMP JUMPDEST SWAP1 POP SWAP2 SWAP1 POP JUMP JUMPDEST PUSH2 0x1931 DUP2 PUSH2 0x1916 JUMP JUMPDEST DUP3 MSTORE POP POP JUMP JUMPDEST PUSH1 0x0 PUSH1 0x20 DUP3 ADD SWAP1 POP PUSH2 0x194C PUSH1 0x0 DUP4 ADD DUP5 PUSH2 0x1928 JUMP JUMPDEST SWAP3 SWAP2 POP POP JUMP JUMPDEST PUSH1 0x0 PUSH1 0x20 DUP3 DUP5 SUB SLT ISZERO PUSH2 0x1968 JUMPI PUSH2 0x1967 PUSH2 0x1509 JUMP JUMPDEST JUMPDEST PUSH1 0x0 PUSH2 0x1976 DUP5 DUP3 DUP6 ADD PUSH2 0x155C JUMP JUMPDEST SWAP2 POP POP SWAP3 SWAP2 POP POP JUMP JUMPDEST PUSH2 0x1988 DUP2 PUSH2 0x1533 JUMP JUMPDEST DUP3 MSTORE POP POP JUMP JUMPDEST PUSH1 0x0 PUSH1 0x20 DUP3 ADD SWAP1 POP PUSH2 0x19A3 PUSH1 0x0 DUP4 ADD DUP5 PUSH2 0x197F JUMP JUMPDEST SWAP3 SWAP2 POP POP JUMP JUMPDEST PUSH1 0x0 DUP1 PUSH1 0x40 DUP4 DUP6 SUB SLT ISZERO PUSH2 0x19C0 JUMPI PUSH2 0x19BF PUSH2 0x1509 JUMP JUMPDEST JUMPDEST PUSH1 0x0 PUSH2 0x19CE DUP6 DUP3 DUP7 ADD PUSH2 0x155C JUMP JUMPDEST SWAP3 POP POP PUSH1 0x20 PUSH2 0x19DF DUP6 DUP3 DUP7 ADD PUSH2 0x155C JUMP JUMPDEST SWAP2 POP POP SWAP3 POP SWAP3 SWAP1 POP JUMP JUMPDEST PUSH32 0x4E487B7100000000000000000000000000000000000000000000000000000000 PUSH1 0x0 MSTORE PUSH1 0x22 PUSH1 0x4 MSTORE PUSH1 0x24 PUSH1 0x0 REVERT JUMPDEST PUSH1 0x0 PUSH1 0x2 DUP3 DIV SWAP1 POP PUSH1 0x1 DUP3 AND DUP1 PUSH2 0x1A30 JUMPI PUSH1 0x7F DUP3 AND SWAP2 POP JUMPDEST PUSH1 0x20 DUP3 LT DUP2 SUB PUSH2 0x1A43 JUMPI PUSH2 0x1A42 PUSH2 0x19E9 JUMP JUMPDEST JUMPDEST POP SWAP2 SWAP1 POP JUMP JUMPDEST PUSH32 0x596F752063616E277420756E7374616B65000000000000000000000000000000 PUSH1 0x0 DUP3 ADD MSTORE POP JUMP JUMPDEST PUSH1 0x0 PUSH2 0x1A7F PUSH1 0x11 DUP4 PUSH2 0x1458 JUMP JUMPDEST SWAP2 POP PUSH2 0x1A8A DUP3 PUSH2 0x1A49 JUMP JUMPDEST PUSH1 0x20 DUP3 ADD SWAP1 POP SWAP2 SWAP1 POP JUMP JUMPDEST PUSH1 0x0 PUSH1 0x20 DUP3 ADD SWAP1 POP DUP2 DUP2 SUB PUSH1 0x0 DUP4 ADD MSTORE PUSH2 0x1AAE DUP2 PUSH2 0x1A72 JUMP JUMPDEST SWAP1 POP SWAP2 SWAP1 POP JUMP JUMPDEST PUSH1 0x0 PUSH1 0x60 DUP3 ADD SWAP1 POP PUSH2 0x1ACA PUSH1 0x0 DUP4 ADD DUP7 PUSH2 0x197F JUMP JUMPDEST PUSH2 0x1AD7 PUSH1 0x20 DUP4 ADD DUP6 PUSH2 0x197F JUMP JUMPDEST PUSH2 0x1AE4 PUSH1 0x40 DUP4 ADD DUP5 PUSH2 0x1423 JUMP JUMPDEST SWAP5 SWAP4 POP POP POP POP JUMP JUMPDEST PUSH32 0x4E487B7100000000000000000000000000000000000000000000000000000000 PUSH1 0x0 MSTORE PUSH1 0x11 PUSH1 0x4 MSTORE PUSH1 0x24 PUSH1 0x0 REVERT JUMPDEST PUSH1 0x0 PUSH2 0x1B26 DUP3 PUSH2 0x1419 JUMP JUMPDEST SWAP2 POP PUSH2 0x1B31 DUP4 PUSH2 0x1419 JUMP JUMPDEST SWAP3 POP DUP3 DUP3 ADD SWAP1 POP DUP1 DUP3 GT ISZERO PUSH2 0x1B49 JUMPI PUSH2 0x1B48 PUSH2 0x1AEC JUMP JUMPDEST JUMPDEST SWAP3 SWAP2 POP POP JUMP JUMPDEST PUSH32 0x4F6E6C7920746865206F776E65722063616E2063616C6C20746869732066756E PUSH1 0x0 DUP3 ADD MSTORE PUSH32 0x6374696F6E000000000000000000000000000000000000000000000000000000 PUSH1 0x20 DUP3 ADD MSTORE POP JUMP JUMPDEST PUSH1 0x0 PUSH2 0x1BAB PUSH1 0x25 DUP4 PUSH2 0x1458 JUMP JUMPDEST SWAP2 POP PUSH2 0x1BB6 DUP3 PUSH2 0x1B4F JUMP JUMPDEST PUSH1 0x40 DUP3 ADD SWAP1 POP SWAP2 SWAP1 POP JUMP JUMPDEST PUSH1 0x0 PUSH1 0x20 DUP3 ADD SWAP1 POP DUP2 DUP2 SUB PUSH1 0x0 DUP4 ADD MSTORE PUSH2 0x1BDA DUP2 PUSH2 0x1B9E JUMP JUMPDEST SWAP1 POP SWAP2 SWAP1 POP JUMP JUMPDEST PUSH1 0x0 PUSH2 0x1BEC DUP3 PUSH2 0x1419 JUMP JUMPDEST SWAP2 POP PUSH2 0x1BF7 DUP4 PUSH2 0x1419 JUMP JUMPDEST SWAP3 POP DUP3 DUP3 SUB SWAP1 POP DUP2 DUP2 GT ISZERO PUSH2 0x1C0F JUMPI PUSH2 0x1C0E PUSH2 0x1AEC JUMP JUMPDEST JUMPDEST SWAP3 SWAP2 POP POP JUMP JUMPDEST PUSH1 0x0 PUSH2 0x1C20 DUP3 PUSH2 0x1419 JUMP JUMPDEST SWAP2 POP PUSH2 0x1C2B DUP4 PUSH2 0x1419 JUMP JUMPDEST SWAP3 POP DUP3 DUP3 MUL PUSH2 0x1C39 DUP2 PUSH2 0x1419 JUMP JUMPDEST SWAP2 POP DUP3 DUP3 DIV DUP5 EQ DUP4 ISZERO OR PUSH2 0x1C50 JUMPI PUSH2 0x1C4F PUSH2 0x1AEC JUMP JUMPDEST JUMPDEST POP SWAP3 SWAP2 POP POP JUMP JUMPDEST PUSH32 0x45524332303A2064656372656173656420616C6C6F77616E63652062656C6F77 PUSH1 0x0 DUP3 ADD MSTORE PUSH32 0x207A65726F000000000000000000000000000000000000000000000000000000 PUSH1 0x20 DUP3 ADD MSTORE POP JUMP JUMPDEST PUSH1 0x0 PUSH2 0x1CB3 PUSH1 0x25 DUP4 PUSH2 0x1458 JUMP JUMPDEST SWAP2 POP PUSH2 0x1CBE DUP3 PUSH2 0x1C57 JUMP JUMPDEST PUSH1 0x40 DUP3 ADD SWAP1 POP SWAP2 SWAP1 POP JUMP JUMPDEST PUSH1 0x0 PUSH1 0x20 DUP3 ADD SWAP1 POP DUP2 DUP2 SUB PUSH1 0x0 DUP4 ADD MSTORE PUSH2 0x1CE2 DUP2 PUSH2 0x1CA6 JUMP JUMPDEST SWAP1 POP SWAP2 SWAP1 POP JUMP JUMPDEST PUSH32 0x4F776E61626C653A206E6577206F776E657220697320746865207A65726F2061 PUSH1 0x0 DUP3 ADD MSTORE PUSH32 0x6464726573730000000000000000000000000000000000000000000000000000 PUSH1 0x20 DUP3 ADD MSTORE POP JUMP JUMPDEST PUSH1 0x0 PUSH2 0x1D45 PUSH1 0x26 DUP4 PUSH2 0x1458 JUMP JUMPDEST SWAP2 POP PUSH2 0x1D50 DUP3 PUSH2 0x1CE9 JUMP JUMPDEST PUSH1 0x40 DUP3 ADD SWAP1 POP SWAP2 SWAP1 POP JUMP JUMPDEST PUSH1 0x0 PUSH1 0x20 DUP3 ADD SWAP1 POP DUP2 DUP2 SUB PUSH1 0x0 DUP4 ADD MSTORE PUSH2 0x1D74 DUP2 PUSH2 0x1D38 JUMP JUMPDEST SWAP1 POP SWAP2 SWAP1 POP JUMP JUMPDEST PUSH32 0x45524332303A20617070726F76652066726F6D20746865207A65726F20616464 PUSH1 0x0 DUP3 ADD MSTORE PUSH32 0x7265737300000000000000000000000000000000000000000000000000000000 PUSH1 0x20 DUP3 ADD MSTORE POP JUMP JUMPDEST PUSH1 0x0 PUSH2 0x1DD7 PUSH1 0x24 DUP4 PUSH2 0x1458 JUMP JUMPDEST SWAP2 POP PUSH2 0x1DE2 DUP3 PUSH2 0x1D7B JUMP JUMPDEST PUSH1 0x40 DUP3 ADD SWAP1 POP SWAP2 SWAP1 POP JUMP JUMPDEST PUSH1 0x0 PUSH1 0x20 DUP3 ADD SWAP1 POP DUP2 DUP2 SUB PUSH1 0x0 DUP4 ADD MSTORE PUSH2 0x1E06 DUP2 PUSH2 0x1DCA JUMP JUMPDEST SWAP1 POP SWAP2 SWAP1 POP JUMP JUMPDEST PUSH32 0x45524332303A20617070726F766520746F20746865207A65726F206164647265 PUSH1 0x0 DUP3 ADD MSTORE PUSH32 0x7373000000000000000000000000000000000000000000000000000000000000 PUSH1 0x20 DUP3 ADD MSTORE POP JUMP JUMPDEST PUSH1 0x0 PUSH2 0x1E69 PUSH1 0x22 DUP4 PUSH2 0x1458 JUMP JUMPDEST SWAP2 POP PUSH2 0x1E74 DUP3 PUSH2 0x1E0D JUMP JUMPDEST PUSH1 0x40 DUP3 ADD SWAP1 POP SWAP2 SWAP1 POP JUMP JUMPDEST PUSH1 0x0 PUSH1 0x20 DUP3 ADD SWAP1 POP DUP2 DUP2 SUB PUSH1 0x0 DUP4 ADD MSTORE PUSH2 0x1E98 DUP2 PUSH2 0x1E5C JUMP JUMPDEST SWAP1 POP SWAP2 SWAP1 POP JUMP JUMPDEST PUSH32 0x45524332303A20696E73756666696369656E7420616C6C6F77616E6365000000 PUSH1 0x0 DUP3 ADD MSTORE POP JUMP JUMPDEST PUSH1 0x0 PUSH2 0x1ED5 PUSH1 0x1D DUP4 PUSH2 0x1458 JUMP JUMPDEST SWAP2 POP PUSH2 0x1EE0 DUP3 PUSH2 0x1E9F JUMP JUMPDEST PUSH1 0x20 DUP3 ADD SWAP1 POP SWAP2 SWAP1 POP JUMP JUMPDEST PUSH1 0x0 PUSH1 0x20 DUP3 ADD SWAP1 POP DUP2 DUP2 SUB PUSH1 0x0 DUP4 ADD MSTORE PUSH2 0x1F04 DUP2 PUSH2 0x1EC8 JUMP JUMPDEST SWAP1 POP SWAP2 SWAP1 POP JUMP JUMPDEST PUSH32 0x45524332303A207472616E736665722066726F6D20746865207A65726F206164 PUSH1 0x0 DUP3 ADD MSTORE PUSH32 0x6472657373000000000000000000000000000000000000000000000000000000 PUSH1 0x20 DUP3 ADD MSTORE POP JUMP JUMPDEST PUSH1 0x0 PUSH2 0x1F67 PUSH1 0x25 DUP4 PUSH2 0x1458 JUMP JUMPDEST SWAP2 POP PUSH2 0x1F72 DUP3 PUSH2 0x1F0B JUMP JUMPDEST PUSH1 0x40 DUP3 ADD SWAP1 POP SWAP2 SWAP1 POP JUMP JUMPDEST PUSH1 0x0 PUSH1 0x20 DUP3 ADD SWAP1 POP DUP2 DUP2 SUB PUSH1 0x0 DUP4 ADD MSTORE PUSH2 0x1F96 DUP2 PUSH2 0x1F5A JUMP JUMPDEST SWAP1 POP SWAP2 SWAP1 POP JUMP JUMPDEST PUSH32 0x45524332303A207472616E7366657220746F20746865207A65726F2061646472 PUSH1 0x0 DUP3 ADD MSTORE PUSH32 0x6573730000000000000000000000000000000000000000000000000000000000 PUSH1 0x20 DUP3 ADD MSTORE POP JUMP JUMPDEST PUSH1 0x0 PUSH2 0x1FF9 PUSH1 0x23 DUP4 PUSH2 0x1458 JUMP JUMPDEST SWAP2 POP PUSH2 0x2004 DUP3 PUSH2 0x1F9D JUMP JUMPDEST PUSH1 0x40 DUP3 ADD SWAP1 POP SWAP2 SWAP1 POP JUMP JUMPDEST PUSH1 0x0 PUSH1 0x20 DUP3 ADD SWAP1 POP DUP2 DUP2 SUB PUSH1 0x0 DUP4 ADD MSTORE PUSH2 0x2028 DUP2 PUSH2 0x1FEC JUMP JUMPDEST SWAP1 POP SWAP2 SWAP1 POP JUMP JUMPDEST PUSH32 0x45524332303A207472616E7366657220616D6F756E7420657863656564732062 PUSH1 0x0 DUP3 ADD MSTORE PUSH32 0x616C616E63650000000000000000000000000000000000000000000000000000 PUSH1 0x20 DUP3 ADD MSTORE POP JUMP JUMPDEST PUSH1 0x0 PUSH2 0x208B PUSH1 0x26 DUP4 PUSH2 0x1458 JUMP JUMPDEST SWAP2 POP PUSH2 0x2096 DUP3 PUSH2 0x202F JUMP JUMPDEST PUSH1 0x40 DUP3 ADD SWAP1 POP SWAP2 SWAP1 POP JUMP JUMPDEST PUSH1 0x0 PUSH1 0x20 DUP3 ADD SWAP1 POP DUP2 DUP2 SUB PUSH1 0x0 DUP4 ADD MSTORE PUSH2 0x20BA DUP2 PUSH2 0x207E JUMP JUMPDEST SWAP1 POP SWAP2 SWAP1 POP JUMP JUMPDEST PUSH32 0x45524332303A206D696E7420746F20746865207A65726F206164647265737300 PUSH1 0x0 DUP3 ADD MSTORE POP JUMP JUMPDEST PUSH1 0x0 PUSH2 0x20F7 PUSH1 0x1F DUP4 PUSH2 0x1458 JUMP JUMPDEST SWAP2 POP PUSH2 0x2102 DUP3 PUSH2 0x20C1 JUMP JUMPDEST PUSH1 0x20 DUP3 ADD SWAP1 POP SWAP2 SWAP1 POP JUMP JUMPDEST PUSH1 0x0 PUSH1 0x20 DUP3 ADD SWAP1 POP DUP2 DUP2 SUB PUSH1 0x0 DUP4 ADD MSTORE PUSH2 0x2126 DUP2 PUSH2 0x20EA JUMP JUMPDEST SWAP1 POP SWAP2 SWAP1 POP JUMP JUMPDEST PUSH32 0x4F776E61626C653A2063616C6C6572206973206E6F7420746865206F776E6572 PUSH1 0x0 DUP3 ADD MSTORE POP JUMP JUMPDEST PUSH1 0x0 PUSH2 0x2163 PUSH1 0x20 DUP4 PUSH2 0x1458 JUMP JUMPDEST SWAP2 POP PUSH2 0x216E DUP3 PUSH2 0x212D JUMP JUMPDEST PUSH1 0x20 DUP3 ADD SWAP1 POP SWAP2 SWAP1 POP JUMP JUMPDEST PUSH1 0x0 PUSH1 0x20 DUP3 ADD SWAP1 POP DUP2 DUP2 SUB PUSH1 0x0 DUP4 ADD MSTORE PUSH2 0x2192 DUP2 PUSH2 0x2156 JUMP JUMPDEST SWAP1 POP SWAP2 SWAP1 POP JUMP INVALID LOG2 PUSH5 0x6970667358 0x22 SLT KECCAK256 PUSH18 0xF34BEE4320A8A0288FA5E3AEA1A8B4ADD984 SIGNEXTEND 0xC9 0xB2 PUSH9 0x764F6119C1B193B8AE PUSH5 0x736F6C6343 STOP ADDMOD SLT STOP CALLER "
				},
				"gasEstimates": {
					"creation": {
						"codeDepositCost": "1731000",
						"executionCost": "infinite",
						"totalCost": "infinite"
					},
					"external": {
						"EMISSION_RATE()": "2453",
						"allowance(address,address)": "infinite",
						"approve(address,uint256)": "infinite",
						"balanceOf(address)": "2886",
						"calculateTokens(uint256)": "infinite",
						"decimals()": "432",
						"decreaseAllowance(address,uint256)": "infinite",
						"increaseAllowance(address,uint256)": "infinite",
						"name()": "infinite",
						"nft()": "infinite",
						"onERC721Received(address,address,uint256,bytes)": "infinite",
						"owner()": "2655",
						"renounceOwnership()": "30465",
						"stake(uint256)": "infinite",
						"symbol()": "infinite",
						"tokenOwnerOf(uint256)": "2950",
						"tokenStakedAt(uint256)": "infinite",
						"totalSupply()": "2549",
						"transfer(address,uint256)": "infinite",
						"transferBalanceToOwner()": "infinite",
						"transferFrom(address,address,uint256)": "infinite",
						"transferOwnership(address)": "30876",
						"unstake(uint256)": "infinite"
					}
				},
				"methodIdentifiers": {
					"EMISSION_RATE()": "01b8199a",
					"allowance(address,address)": "dd62ed3e",
					"approve(address,uint256)": "095ea7b3",
					"balanceOf(address)": "70a08231",
					"calculateTokens(uint256)": "71aa60fd",
					"decimals()": "313ce567",
					"decreaseAllowance(address,uint256)": "a457c2d7",
					"increaseAllowance(address,uint256)": "39509351",
					"name()": "06fdde03",
					"nft()": "47ccca02",
					"onERC721Received(address,address,uint256,bytes)": "150b7a02",
					"owner()": "8da5cb5b",
					"renounceOwnership()": "715018a6",
					"stake(uint256)": "a694fc3a",
					"symbol()": "95d89b41",
					"tokenOwnerOf(uint256)": "89885a59",
					"tokenStakedAt(uint256)": "24bf238c",
					"totalSupply()": "18160ddd",
					"transfer(address,uint256)": "a9059cbb",
					"transferBalanceToOwner()": "47f07a8e",
					"transferFrom(address,address,uint256)": "23b872dd",
					"transferOwnership(address)": "f2fde38b",
					"unstake(uint256)": "2e17de78"
				}
			},
			"storageLayout": {
				"storage": [
					{
						"astId": 128,
						"contract": "Staking.sol:MyToken",
						"label": "_balances",
						"offset": 0,
						"slot": "0",
						"type": "t_mapping(t_address,t_uint256)"
					},
					{
						"astId": 134,
						"contract": "Staking.sol:MyToken",
						"label": "_allowances",
						"offset": 0,
						"slot": "1",
						"type": "t_mapping(t_address,t_mapping(t_address,t_uint256))"
					},
					{
						"astId": 136,
						"contract": "Staking.sol:MyToken",
						"label": "_totalSupply",
						"offset": 0,
						"slot": "2",
						"type": "t_uint256"
					},
					{
						"astId": 138,
						"contract": "Staking.sol:MyToken",
						"label": "_name",
						"offset": 0,
						"slot": "3",
						"type": "t_string_storage"
					},
					{
						"astId": 140,
						"contract": "Staking.sol:MyToken",
						"label": "_symbol",
						"offset": 0,
						"slot": "4",
						"type": "t_string_storage"
					},
					{
						"astId": 7,
						"contract": "Staking.sol:MyToken",
						"label": "_owner",
						"offset": 0,
						"slot": "5",
						"type": "t_address"
					},
					{
						"astId": 1012,
						"contract": "Staking.sol:MyToken",
						"label": "nft",
						"offset": 0,
						"slot": "6",
						"type": "t_contract(IERC721)918"
					},
					{
						"astId": 1016,
						"contract": "Staking.sol:MyToken",
						"label": "tokenOwnerOf",
						"offset": 0,
						"slot": "7",
						"type": "t_mapping(t_uint256,t_address)"
					},
					{
						"astId": 1020,
						"contract": "Staking.sol:MyToken",
						"label": "tokenStakedAt",
						"offset": 0,
						"slot": "8",
						"type": "t_mapping(t_uint256,t_uint256)"
					},
					{
						"astId": 1031,
						"contract": "Staking.sol:MyToken",
						"label": "EMISSION_RATE",
						"offset": 0,
						"slot": "9",
						"type": "t_uint256"
					}
				],
				"types": {
					"t_address": {
						"encoding": "inplace",
						"label": "address",
						"numberOfBytes": "20"
					},
					"t_contract(IERC721)918": {
						"encoding": "inplace",
						"label": "contract IERC721",
						"numberOfBytes": "20"
					},
					"t_mapping(t_address,t_mapping(t_address,t_uint256))": {
						"encoding": "mapping",
						"key": "t_address",
						"label": "mapping(address => mapping(address => uint256))",
						"numberOfBytes": "32",
						"value": "t_mapping(t_address,t_uint256)"
					},
					"t_mapping(t_address,t_uint256)": {
						"encoding": "mapping",
						"key": "t_address",
						"label": "mapping(address => uint256)",
						"numberOfBytes": "32",
						"value": "t_uint256"
					},
					"t_mapping(t_uint256,t_address)": {
						"encoding": "mapping",
						"key": "t_uint256",
						"label": "mapping(uint256 => address)",
						"numberOfBytes": "32",
						"value": "t_address"
					},
					"t_mapping(t_uint256,t_uint256)": {
						"encoding": "mapping",
						"key": "t_uint256",
						"label": "mapping(uint256 => uint256)",
						"numberOfBytes": "32",
						"value": "t_uint256"
					},
					"t_string_storage": {
						"encoding": "bytes",
						"label": "string",
						"numberOfBytes": "32"
					},
					"t_uint256": {
						"encoding": "inplace",
						"label": "uint256",
						"numberOfBytes": "32"
					}
				}
			},
			"userdoc": {
				"kind": "user",
				"methods": {},
				"version": 1
			}
		}
	}
}