{
	"staking_test.sol": {
		"MyToken": {
			"abi": [
				{
					"inputs": [],
					"stateMutability": "nonpayable",
					"type": "constructor"
				},
				{
					"anonymous": false,
					"inputs": [
						{
							"indexed": true,
							"internalType": "address",
							"name": "owner",
							"type": "address"
						},
						{
							"indexed": true,
							"internalType": "address",
							"name": "spender",
							"type": "address"
						},
						{
							"indexed": false,
							"internalType": "uint256",
							"name": "value",
							"type": "uint256"
						}
					],
					"name": "Approval",
					"type": "event"
				},
				{
					"anonymous": false,
					"inputs": [
						{
							"indexed": true,
							"internalType": "address",
							"name": "previousOwner",
							"type": "address"
						},
						{
							"indexed": true,
							"internalType": "address",
							"name": "newOwner",
							"type": "address"
						}
					],
					"name": "OwnershipTransferred",
					"type": "event"
				},
				{
					"anonymous": false,
					"inputs": [
						{
							"indexed": true,
							"internalType": "address",
							"name": "from",
							"type": "address"
						},
						{
							"indexed": true,
							"internalType": "address",
							"name": "to",
							"type": "address"
						},
						{
							"indexed": false,
							"internalType": "uint256",
							"name": "value",
							"type": "uint256"
						}
					],
					"name": "Transfer",
					"type": "event"
				},
				{
					"inputs": [
						{
							"internalType": "address",
							"name": "owner",
							"type": "address"
						},
						{
							"internalType": "address",
							"name": "spender",
							"type": "address"
						}
					],
					"name": "allowance",
					"outputs": [
						{
							"internalType": "uint256",
							"name": "",
							"type": "uint256"
						}
					],
					"stateMutability": "view",
					"type": "function"
				},
				{
					"inputs": [
						{
							"internalType": "address",
							"name": "spender",
							"type": "address"
						},
						{
							"internalType": "uint256",
							"name": "amount",
							"type": "uint256"
						}
					],
					"name": "approve",
					"outputs": [
						{
							"internalType": "bool",
							"name": "",
							"type": "bool"
						}
					],
					"stateMutability": "nonpayable",
					"type": "function"
				},
				{
					"inputs": [
						{
							"internalType": "address",
							"name": "account",
							"type": "address"
						}
					],
					"name": "balanceOf",
					"outputs": [
						{
							"internalType": "uint256",
							"name": "",
							"type": "uint256"
						}
					],
					"stateMutability": "view",
					"type": "function"
				},
				{
					"inputs": [
						{
							"internalType": "uint256",
							"name": "amount",
							"type": "uint256"
						}
					],
					"name": "burn",
					"outputs": [],
					"stateMutability": "nonpayable",
					"type": "function"
				},
				{
					"inputs": [
						{
							"internalType": "address",
							"name": "account",
							"type": "address"
						},
						{
							"internalType": "uint256",
							"name": "amount",
							"type": "uint256"
						}
					],
					"name": "burnFrom",
					"outputs": [],
					"stateMutability": "nonpayable",
					"type": "function"
				},
				{
					"inputs": [
						{
							"internalType": "uint256",
							"name": "_numTokens",
							"type": "uint256"
						}
					],
					"name": "buyTokens",
					"outputs": [],
					"stateMutability": "payable",
					"type": "function"
				},
				{
					"inputs": [],
					"name": "claimRewards",
					"outputs": [],
					"stateMutability": "nonpayable",
					"type": "function"
				},
				{
					"inputs": [],
					"name": "decimals",
					"outputs": [
						{
							"internalType": "uint8",
							"name": "",
							"type": "uint8"
						}
					],
					"stateMutability": "view",
					"type": "function"
				},
				{
					"inputs": [
						{
							"internalType": "address",
							"name": "spender",
							"type": "address"
						},
						{
							"internalType": "uint256",
							"name": "subtractedValue",
							"type": "uint256"
						}
					],
					"name": "decreaseAllowance",
					"outputs": [
						{
							"internalType": "bool",
							"name": "",
							"type": "bool"
						}
					],
					"stateMutability": "nonpayable",
					"type": "function"
				},
				{
					"inputs": [
						{
							"internalType": "address",
							"name": "spender",
							"type": "address"
						},
						{
							"internalType": "uint256",
							"name": "addedValue",
							"type": "uint256"
						}
					],
					"name": "increaseAllowance",
					"outputs": [
						{
							"internalType": "bool",
							"name": "",
							"type": "bool"
						}
					],
					"stateMutability": "nonpayable",
					"type": "function"
				},
				{
					"inputs": [],
					"name": "interest",
					"outputs": [
						{
							"internalType": "uint256",
							"name": "",
							"type": "uint256"
						}
					],
					"stateMutability": "view",
					"type": "function"
				},
				{
					"inputs": [],
					"name": "name",
					"outputs": [
						{
							"internalType": "string",
							"name": "",
							"type": "string"
						}
					],
					"stateMutability": "view",
					"type": "function"
				},
				{
					"inputs": [],
					"name": "owner",
					"outputs": [
						{
							"internalType": "address",
							"name": "",
							"type": "address"
						}
					],
					"stateMutability": "view",
					"type": "function"
				},
				{
					"inputs": [],
					"name": "renounceOwnership",
					"outputs": [],
					"stateMutability": "nonpayable",
					"type": "function"
				},
				{
					"inputs": [
						{
							"internalType": "uint256",
							"name": "_numTokens",
							"type": "uint256"
						}
					],
					"name": "sellTokens",
					"outputs": [],
					"stateMutability": "nonpayable",
					"type": "function"
				},
				{
					"inputs": [
						{
							"internalType": "uint256",
							"name": "_newPrice",
							"type": "uint256"
						}
					],
					"name": "setTokenPrice",
					"outputs": [],
					"stateMutability": "nonpayable",
					"type": "function"
				},
				{
					"inputs": [
						{
							"internalType": "uint256",
							"name": "_numTokens",
							"type": "uint256"
						}
					],
					"name": "stake",
					"outputs": [],
					"stateMutability": "nonpayable",
					"type": "function"
				},
				{
					"inputs": [
						{
							"internalType": "address",
							"name": "",
							"type": "address"
						}
					],
					"name": "stakingInfo",
					"outputs": [
						{
							"internalType": "uint256",
							"name": "stakedAmount",
							"type": "uint256"
						},
						{
							"internalType": "uint256",
							"name": "lastStakedTime",
							"type": "uint256"
						},
						{
							"internalType": "uint256",
							"name": "rewards",
							"type": "uint256"
						}
					],
					"stateMutability": "view",
					"type": "function"
				},
				{
					"inputs": [],
					"name": "symbol",
					"outputs": [
						{
							"internalType": "string",
							"name": "",
							"type": "string"
						}
					],
					"stateMutability": "view",
					"type": "function"
				},
				{
					"inputs": [],
					"name": "tokenPrice",
					"outputs": [
						{
							"internalType": "uint256",
							"name": "",
							"type": "uint256"
						}
					],
					"stateMutability": "view",
					"type": "function"
				},
				{
					"inputs": [],
					"name": "totalSupply",
					"outputs": [
						{
							"internalType": "uint256",
							"name": "",
							"type": "uint256"
						}
					],
					"stateMutability": "view",
					"type": "function"
				},
				{
					"inputs": [
						{
							"internalType": "address",
							"name": "to",
							"type": "address"
						},
						{
							"internalType": "uint256",
							"name": "amount",
							"type": "uint256"
						}
					],
					"name": "transfer",
					"outputs": [
						{
							"internalType": "bool",
							"name": "",
							"type": "bool"
						}
					],
					"stateMutability": "nonpayable",
					"type": "function"
				},
				{
					"inputs": [
						{
							"internalType": "address",
							"name": "from",
							"type": "address"
						},
						{
							"internalType": "address",
							"name": "to",
							"type": "address"
						},
						{
							"internalType": "uint256",
							"name": "amount",
							"type": "uint256"
						}
					],
					"name": "transferFrom",
					"outputs": [
						{
							"internalType": "bool",
							"name": "",
							"type": "bool"
						}
					],
					"stateMutability": "nonpayable",
					"type": "function"
				},
				{
					"inputs": [
						{
							"internalType": "address",
							"name": "newOwner",
							"type": "address"
						}
					],
					"name": "transferOwnership",
					"outputs": [],
					"stateMutability": "nonpayable",
					"type": "function"
				},
				{
					"inputs": [
						{
							"internalType": "uint256",
							"name": "_numTokens",
							"type": "uint256"
						}
					],
					"name": "unstake",
					"outputs": [],
					"stateMutability": "nonpayable",
					"type": "function"
				}
			],
			"devdoc": {
				"events": {
					"Approval(address,address,uint256)": {
						"details": "Emitted when the allowance of a `spender` for an `owner` is set by a call to {approve}. `value` is the new allowance."
					},
					"Transfer(address,address,uint256)": {
						"details": "Emitted when `value` tokens are moved from one account (`from`) to another (`to`). Note that `value` may be zero."
					}
				},
				"kind": "dev",
				"methods": {
					"allowance(address,address)": {
						"details": "See {IERC20-allowance}."
					},
					"approve(address,uint256)": {
						"details": "See {IERC20-approve}. NOTE: If `amount` is the maximum `uint256`, the allowance is not updated on `transferFrom`. This is semantically equivalent to an infinite approval. Requirements: - `spender` cannot be the zero address."
					},
					"balanceOf(address)": {
						"details": "See {IERC20-balanceOf}."
					},
					"burn(uint256)": {
						"details": "Destroys `amount` tokens from the caller. See {ERC20-_burn}."
					},
					"burnFrom(address,uint256)": {
						"details": "Destroys `amount` tokens from `account`, deducting from the caller's allowance. See {ERC20-_burn} and {ERC20-allowance}. Requirements: - the caller must have allowance for ``accounts``'s tokens of at least `amount`."
					},
					"decimals()": {
						"details": "Returns the number of decimals used to get its user representation. For example, if `decimals` equals `2`, a balance of `505` tokens should be displayed to a user as `5.05` (`505 / 10 ** 2`). Tokens usually opt for a value of 18, imitating the relationship between Ether and Wei. This is the default value returned by this function, unless it's overridden. NOTE: This information is only used for _display_ purposes: it in no way affects any of the arithmetic of the contract, including {IERC20-balanceOf} and {IERC20-transfer}."
					},
					"decreaseAllowance(address,uint256)": {
						"details": "Atomically decreases the allowance granted to `spender` by the caller. This is an alternative to {approve} that can be used as a mitigation for problems described in {IERC20-approve}. Emits an {Approval} event indicating the updated allowance. Requirements: - `spender` cannot be the zero address. - `spender` must have allowance for the caller of at least `subtractedValue`."
					},
					"increaseAllowance(address,uint256)": {
						"details": "Atomically increases the allowance granted to `spender` by the caller. This is an alternative to {approve} that can be used as a mitigation for problems described in {IERC20-approve}. Emits an {Approval} event indicating the updated allowance. Requirements: - `spender` cannot be the zero address."
					},
					"name()": {
						"details": "Returns the name of the token."
					},
					"owner()": {
						"details": "Returns the address of the current owner."
					},
					"renounceOwnership()": {
						"details": "Leaves the contract without owner. It will not be possible to call `onlyOwner` functions. Can only be called by the current owner. NOTE: Renouncing ownership will leave the contract without an owner, thereby disabling any functionality that is only available to the owner."
					},
					"symbol()": {
						"details": "Returns the symbol of the token, usually a shorter version of the name."
					},
					"totalSupply()": {
						"details": "See {IERC20-totalSupply}."
					},
					"transfer(address,uint256)": {
						"details": "See {IERC20-transfer}. Requirements: - `to` cannot be the zero address. - the caller must have a balance of at least `amount`."
					},
					"transferFrom(address,address,uint256)": {
						"details": "See {IERC20-transferFrom}. Emits an {Approval} event indicating the updated allowance. This is not required by the EIP. See the note at the beginning of {ERC20}. NOTE: Does not update the allowance if the current allowance is the maximum `uint256`. Requirements: - `from` and `to` cannot be the zero address. - `from` must have a balance of at least `amount`. - the caller must have allowance for ``from``'s tokens of at least `amount`."
					},
					"transferOwnership(address)": {
						"details": "Transfers ownership of the contract to a new account (`newOwner`). Can only be called by the current owner."
					}
				},
				"version": 1
			},
			"evm": {
				"assembly": "    /* \"staking_test.sol\":247:4119  contract MyToken is ERC20, ERC20Burnable, Ownable { ... */\n  mstore(0x40, 0x80)\n    /* \"staking_test.sol\":362:365  100 */\n  0x64\n    /* \"staking_test.sol\":336:365  uint256 public interest = 100 */\n  0x07\n  sstore\n    /* \"staking_test.sol\":629:706  constructor() ERC20(\"MyToken\", \"MTK\") { ... */\n  callvalue\n  dup1\n  iszero\n  tag_1\n  jumpi\n  0x00\n  dup1\n  revert\ntag_1:\n  pop\n    /* \"@openzeppelin/contracts/token/ERC20/ERC20.sol\":1980:2093  constructor(string memory name_, string memory symbol_) {... */\n  mload(0x40)\n  dup1\n  0x40\n  add\n  0x40\n  mstore\n  dup1\n  0x07\n  dup2\n  mstore\n  0x20\n  add\n  0x4d79546f6b656e00000000000000000000000000000000000000000000000000\n  dup2\n  mstore\n  pop\n  mload(0x40)\n  dup1\n  0x40\n  add\n  0x40\n  mstore\n  dup1\n  0x03\n  dup2\n  mstore\n  0x20\n  add\n  0x4d544b0000000000000000000000000000000000000000000000000000000000\n  dup2\n  mstore\n  pop\n    /* \"@openzeppelin/contracts/token/ERC20/ERC20.sol\":2054:2059  name_ */\n  dup2\n    /* \"@openzeppelin/contracts/token/ERC20/ERC20.sol\":2046:2051  _name */\n  0x03\n    /* \"@openzeppelin/contracts/token/ERC20/ERC20.sol\":2046:2059  _name = name_ */\n  swap1\n  dup2\n  tag_6\n  swap2\n  swap1\n  tag_7\n  jump\t// in\ntag_6:\n  pop\n    /* \"@openzeppelin/contracts/token/ERC20/ERC20.sol\":2079:2086  symbol_ */\n  dup1\n    /* \"@openzeppelin/contracts/token/ERC20/ERC20.sol\":2069:2076  _symbol */\n  0x04\n    /* \"@openzeppelin/contracts/token/ERC20/ERC20.sol\":2069:2086  _symbol = symbol_ */\n  swap1\n  dup2\n  tag_8\n  swap2\n  swap1\n  tag_7\n  jump\t// in\ntag_8:\n  pop\n    /* \"@openzeppelin/contracts/token/ERC20/ERC20.sol\":1980:2093  constructor(string memory name_, string memory symbol_) {... */\n  pop\n  pop\n    /* \"@openzeppelin/contracts/access/Ownable.sol\":936:968  _transferOwnership(_msgSender()) */\n  tag_10\n    /* \"@openzeppelin/contracts/access/Ownable.sol\":955:967  _msgSender() */\n  tag_11\n    /* \"@openzeppelin/contracts/access/Ownable.sol\":955:965  _msgSender */\n  shl(0x20, tag_12)\n    /* \"@openzeppelin/contracts/access/Ownable.sol\":955:967  _msgSender() */\n  0x20\n  shr\n  jump\t// in\ntag_11:\n    /* \"@openzeppelin/contracts/access/Ownable.sol\":936:954  _transferOwnership */\n  shl(0x20, tag_13)\n    /* \"@openzeppelin/contracts/access/Ownable.sol\":936:968  _transferOwnership(_msgSender()) */\n  0x20\n  shr\n  jump\t// in\ntag_10:\n    /* \"staking_test.sol\":691:698  1 ether */\n  0x0de0b6b3a7640000\n    /* \"staking_test.sol\":678:688  tokenPrice */\n  0x06\n    /* \"staking_test.sol\":678:698  tokenPrice = 1 ether */\n  dup2\n  swap1\n  sstore\n  pop\n    /* \"staking_test.sol\":247:4119  contract MyToken is ERC20, ERC20Burnable, Ownable { ... */\n  jump(tag_15)\n    /* \"@openzeppelin/contracts/utils/Context.sol\":640:736  function _msgSender() internal view virtual returns (address) {... */\ntag_12:\n    /* \"@openzeppelin/contracts/utils/Context.sol\":693:700  address */\n  0x00\n    /* \"@openzeppelin/contracts/utils/Context.sol\":719:729  msg.sender */\n  caller\n    /* \"@openzeppelin/contracts/utils/Context.sol\":712:729  return msg.sender */\n  swap1\n  pop\n    /* \"@openzeppelin/contracts/utils/Context.sol\":640:736  function _msgSender() internal view virtual returns (address) {... */\n  swap1\n  jump\t// out\n    /* \"@openzeppelin/contracts/access/Ownable.sol\":2426:2613  function _transferOwnership(address newOwner) internal virtual {... */\ntag_13:\n    /* \"@openzeppelin/contracts/access/Ownable.sol\":2499:2515  address oldOwner */\n  0x00\n    /* \"@openzeppelin/contracts/access/Ownable.sol\":2518:2524  _owner */\n  0x05\n  0x00\n  swap1\n  sload\n  swap1\n  0x0100\n  exp\n  swap1\n  div\n  0xffffffffffffffffffffffffffffffffffffffff\n  and\n    /* \"@openzeppelin/contracts/access/Ownable.sol\":2499:2524  address oldOwner = _owner */\n  swap1\n  pop\n    /* \"@openzeppelin/contracts/access/Ownable.sol\":2543:2551  newOwner */\n  dup2\n    /* \"@openzeppelin/contracts/access/Ownable.sol\":2534:2540  _owner */\n  0x05\n  0x00\n    /* \"@openzeppelin/contracts/access/Ownable.sol\":2534:2551  _owner = newOwner */\n  0x0100\n  exp\n  dup2\n  sload\n  dup2\n  0xffffffffffffffffffffffffffffffffffffffff\n  mul\n  not\n  and\n  swap1\n  dup4\n  0xffffffffffffffffffffffffffffffffffffffff\n  and\n  mul\n  or\n  swap1\n  sstore\n  pop\n    /* \"@openzeppelin/contracts/access/Ownable.sol\":2597:2605  newOwner */\n  dup2\n    /* \"@openzeppelin/contracts/access/Ownable.sol\":2566:2606  OwnershipTransferred(oldOwner, newOwner) */\n  0xffffffffffffffffffffffffffffffffffffffff\n  and\n    /* \"@openzeppelin/contracts/access/Ownable.sol\":2587:2595  oldOwner */\n  dup2\n    /* \"@openzeppelin/contracts/access/Ownable.sol\":2566:2606  OwnershipTransferred(oldOwner, newOwner) */\n  0xffffffffffffffffffffffffffffffffffffffff\n  and\n  0x8be0079c531659141344cd1fd0a4f28419497f9722a3daafe3b4186f6b6457e0\n  mload(0x40)\n  mload(0x40)\n  dup1\n  swap2\n  sub\n  swap1\n  log3\n    /* \"@openzeppelin/contracts/access/Ownable.sol\":2489:2613  {... */\n  pop\n    /* \"@openzeppelin/contracts/access/Ownable.sol\":2426:2613  function _transferOwnership(address newOwner) internal virtual {... */\n  pop\n  jump\t// out\n    /* \"#utility.yul\":7:106   */\ntag_18:\n    /* \"#utility.yul\":59:65   */\n  0x00\n    /* \"#utility.yul\":93:98   */\n  dup2\n    /* \"#utility.yul\":87:99   */\n  mload\n    /* \"#utility.yul\":77:99   */\n  swap1\n  pop\n    /* \"#utility.yul\":7:106   */\n  swap2\n  swap1\n  pop\n  jump\t// out\n    /* \"#utility.yul\":112:292   */\ntag_19:\n    /* \"#utility.yul\":160:237   */\n  0x4e487b7100000000000000000000000000000000000000000000000000000000\n    /* \"#utility.yul\":157:158   */\n  0x00\n    /* \"#utility.yul\":150:238   */\n  mstore\n    /* \"#utility.yul\":257:261   */\n  0x41\n    /* \"#utility.yul\":254:255   */\n  0x04\n    /* \"#utility.yul\":247:262   */\n  mstore\n    /* \"#utility.yul\":281:285   */\n  0x24\n    /* \"#utility.yul\":278:279   */\n  0x00\n    /* \"#utility.yul\":271:286   */\n  revert\n    /* \"#utility.yul\":298:478   */\ntag_20:\n    /* \"#utility.yul\":346:423   */\n  0x4e487b7100000000000000000000000000000000000000000000000000000000\n    /* \"#utility.yul\":343:344   */\n  0x00\n    /* \"#utility.yul\":336:424   */\n  mstore\n    /* \"#utility.yul\":443:447   */\n  0x22\n    /* \"#utility.yul\":440:441   */\n  0x04\n    /* \"#utility.yul\":433:448   */\n  mstore\n    /* \"#utility.yul\":467:471   */\n  0x24\n    /* \"#utility.yul\":464:465   */\n  0x00\n    /* \"#utility.yul\":457:472   */\n  revert\n    /* \"#utility.yul\":484:804   */\ntag_21:\n    /* \"#utility.yul\":528:534   */\n  0x00\n    /* \"#utility.yul\":565:566   */\n  0x02\n    /* \"#utility.yul\":559:563   */\n  dup3\n    /* \"#utility.yul\":555:567   */\n  div\n    /* \"#utility.yul\":545:567   */\n  swap1\n  pop\n    /* \"#utility.yul\":612:613   */\n  0x01\n    /* \"#utility.yul\":606:610   */\n  dup3\n    /* \"#utility.yul\":602:614   */\n  and\n    /* \"#utility.yul\":633:651   */\n  dup1\n    /* \"#utility.yul\":623:704   */\n  tag_43\n  jumpi\n    /* \"#utility.yul\":689:693   */\n  0x7f\n    /* \"#utility.yul\":681:687   */\n  dup3\n    /* \"#utility.yul\":677:694   */\n  and\n    /* \"#utility.yul\":667:694   */\n  swap2\n  pop\n    /* \"#utility.yul\":623:704   */\ntag_43:\n    /* \"#utility.yul\":751:753   */\n  0x20\n    /* \"#utility.yul\":743:749   */\n  dup3\n    /* \"#utility.yul\":740:754   */\n  lt\n    /* \"#utility.yul\":720:738   */\n  dup2\n    /* \"#utility.yul\":717:755   */\n  sub\n    /* \"#utility.yul\":714:798   */\n  tag_44\n  jumpi\n    /* \"#utility.yul\":770:788   */\n  tag_45\n  tag_20\n  jump\t// in\ntag_45:\n    /* \"#utility.yul\":714:798   */\ntag_44:\n    /* \"#utility.yul\":535:804   */\n  pop\n    /* \"#utility.yul\":484:804   */\n  swap2\n  swap1\n  pop\n  jump\t// out\n    /* \"#utility.yul\":810:951   */\ntag_22:\n    /* \"#utility.yul\":859:863   */\n  0x00\n    /* \"#utility.yul\":882:885   */\n  dup2\n    /* \"#utility.yul\":874:885   */\n  swap1\n  pop\n    /* \"#utility.yul\":905:908   */\n  dup2\n    /* \"#utility.yul\":902:903   */\n  0x00\n    /* \"#utility.yul\":895:909   */\n  mstore\n    /* \"#utility.yul\":939:943   */\n  0x20\n    /* \"#utility.yul\":936:937   */\n  0x00\n    /* \"#utility.yul\":926:944   */\n  keccak256\n    /* \"#utility.yul\":918:944   */\n  swap1\n  pop\n    /* \"#utility.yul\":810:951   */\n  swap2\n  swap1\n  pop\n  jump\t// out\n    /* \"#utility.yul\":957:1050   */\ntag_23:\n    /* \"#utility.yul\":994:1000   */\n  0x00\n    /* \"#utility.yul\":1041:1043   */\n  0x20\n    /* \"#utility.yul\":1036:1038   */\n  0x1f\n    /* \"#utility.yul\":1029:1034   */\n  dup4\n    /* \"#utility.yul\":1025:1039   */\n  add\n    /* \"#utility.yul\":1021:1044   */\n  div\n    /* \"#utility.yul\":1011:1044   */\n  swap1\n  pop\n    /* \"#utility.yul\":957:1050   */\n  swap2\n  swap1\n  pop\n  jump\t// out\n    /* \"#utility.yul\":1056:1163   */\ntag_24:\n    /* \"#utility.yul\":1100:1108   */\n  0x00\n    /* \"#utility.yul\":1150:1155   */\n  dup3\n    /* \"#utility.yul\":1144:1148   */\n  dup3\n    /* \"#utility.yul\":1140:1156   */\n  shl\n    /* \"#utility.yul\":1119:1156   */\n  swap1\n  pop\n    /* \"#utility.yul\":1056:1163   */\n  swap3\n  swap2\n  pop\n  pop\n  jump\t// out\n    /* \"#utility.yul\":1169:1562   */\ntag_25:\n    /* \"#utility.yul\":1238:1244   */\n  0x00\n    /* \"#utility.yul\":1288:1289   */\n  0x08\n    /* \"#utility.yul\":1276:1286   */\n  dup4\n    /* \"#utility.yul\":1272:1290   */\n  mul\n    /* \"#utility.yul\":1311:1408   */\n  tag_50\n    /* \"#utility.yul\":1341:1407   */\n  0xffffffffffffffffffffffffffffffffffffffffffffffffffffffffffffffff\n    /* \"#utility.yul\":1330:1339   */\n  dup3\n    /* \"#utility.yul\":1311:1408   */\n  tag_24\n  jump\t// in\ntag_50:\n    /* \"#utility.yul\":1429:1468   */\n  tag_51\n    /* \"#utility.yul\":1459:1467   */\n  dup7\n    /* \"#utility.yul\":1448:1457   */\n  dup4\n    /* \"#utility.yul\":1429:1468   */\n  tag_24\n  jump\t// in\ntag_51:\n    /* \"#utility.yul\":1417:1468   */\n  swap6\n  pop\n    /* \"#utility.yul\":1501:1505   */\n  dup1\n    /* \"#utility.yul\":1497:1506   */\n  not\n    /* \"#utility.yul\":1490:1495   */\n  dup5\n    /* \"#utility.yul\":1486:1507   */\n  and\n    /* \"#utility.yul\":1477:1507   */\n  swap4\n  pop\n    /* \"#utility.yul\":1550:1554   */\n  dup1\n    /* \"#utility.yul\":1540:1548   */\n  dup7\n    /* \"#utility.yul\":1536:1555   */\n  and\n    /* \"#utility.yul\":1529:1534   */\n  dup5\n    /* \"#utility.yul\":1526:1556   */\n  or\n    /* \"#utility.yul\":1516:1556   */\n  swap3\n  pop\n    /* \"#utility.yul\":1245:1562   */\n  pop\n  pop\n    /* \"#utility.yul\":1169:1562   */\n  swap4\n  swap3\n  pop\n  pop\n  pop\n  jump\t// out\n    /* \"#utility.yul\":1568:1645   */\ntag_26:\n    /* \"#utility.yul\":1605:1612   */\n  0x00\n    /* \"#utility.yul\":1634:1639   */\n  dup2\n    /* \"#utility.yul\":1623:1639   */\n  swap1\n  pop\n    /* \"#utility.yul\":1568:1645   */\n  swap2\n  swap1\n  pop\n  jump\t// out\n    /* \"#utility.yul\":1651:1711   */\ntag_27:\n    /* \"#utility.yul\":1679:1682   */\n  0x00\n    /* \"#utility.yul\":1700:1705   */\n  dup2\n    /* \"#utility.yul\":1693:1705   */\n  swap1\n  pop\n    /* \"#utility.yul\":1651:1711   */\n  swap2\n  swap1\n  pop\n  jump\t// out\n    /* \"#utility.yul\":1717:1859   */\ntag_28:\n    /* \"#utility.yul\":1767:1776   */\n  0x00\n    /* \"#utility.yul\":1800:1853   */\n  tag_55\n    /* \"#utility.yul\":1818:1852   */\n  tag_56\n    /* \"#utility.yul\":1827:1851   */\n  tag_57\n    /* \"#utility.yul\":1845:1850   */\n  dup5\n    /* \"#utility.yul\":1827:1851   */\n  tag_26\n  jump\t// in\ntag_57:\n    /* \"#utility.yul\":1818:1852   */\n  tag_27\n  jump\t// in\ntag_56:\n    /* \"#utility.yul\":1800:1853   */\n  tag_26\n  jump\t// in\ntag_55:\n    /* \"#utility.yul\":1787:1853   */\n  swap1\n  pop\n    /* \"#utility.yul\":1717:1859   */\n  swap2\n  swap1\n  pop\n  jump\t// out\n    /* \"#utility.yul\":1865:1940   */\ntag_29:\n    /* \"#utility.yul\":1908:1911   */\n  0x00\n    /* \"#utility.yul\":1929:1934   */\n  dup2\n    /* \"#utility.yul\":1922:1934   */\n  swap1\n  pop\n    /* \"#utility.yul\":1865:1940   */\n  swap2\n  swap1\n  pop\n  jump\t// out\n    /* \"#utility.yul\":1946:2215   */\ntag_30:\n    /* \"#utility.yul\":2056:2095   */\n  tag_60\n    /* \"#utility.yul\":2087:2094   */\n  dup4\n    /* \"#utility.yul\":2056:2095   */\n  tag_28\n  jump\t// in\ntag_60:\n    /* \"#utility.yul\":2117:2208   */\n  tag_61\n    /* \"#utility.yul\":2166:2207   */\n  tag_62\n    /* \"#utility.yul\":2190:2206   */\n  dup3\n    /* \"#utility.yul\":2166:2207   */\n  tag_29\n  jump\t// in\ntag_62:\n    /* \"#utility.yul\":2158:2164   */\n  dup5\n    /* \"#utility.yul\":2151:2155   */\n  dup5\n    /* \"#utility.yul\":2145:2156   */\n  sload\n    /* \"#utility.yul\":2117:2208   */\n  tag_25\n  jump\t// in\ntag_61:\n    /* \"#utility.yul\":2111:2115   */\n  dup3\n    /* \"#utility.yul\":2104:2209   */\n  sstore\n    /* \"#utility.yul\":2022:2215   */\n  pop\n    /* \"#utility.yul\":1946:2215   */\n  pop\n  pop\n  pop\n  jump\t// out\n    /* \"#utility.yul\":2221:2294   */\ntag_31:\n    /* \"#utility.yul\":2266:2269   */\n  0x00\n    /* \"#utility.yul\":2221:2294   */\n  swap1\n  jump\t// out\n    /* \"#utility.yul\":2300:2489   */\ntag_32:\n    /* \"#utility.yul\":2377:2409   */\n  tag_65\n  tag_31\n  jump\t// in\ntag_65:\n    /* \"#utility.yul\":2418:2483   */\n  tag_66\n    /* \"#utility.yul\":2476:2482   */\n  dup2\n    /* \"#utility.yul\":2468:2474   */\n  dup5\n    /* \"#utility.yul\":2462:2466   */\n  dup5\n    /* \"#utility.yul\":2418:2483   */\n  tag_30\n  jump\t// in\ntag_66:\n    /* \"#utility.yul\":2353:2489   */\n  pop\n    /* \"#utility.yul\":2300:2489   */\n  pop\n  pop\n  jump\t// out\n    /* \"#utility.yul\":2495:2681   */\ntag_33:\n    /* \"#utility.yul\":2555:2675   */\ntag_68:\n    /* \"#utility.yul\":2572:2575   */\n  dup2\n    /* \"#utility.yul\":2565:2570   */\n  dup2\n    /* \"#utility.yul\":2562:2576   */\n  lt\n    /* \"#utility.yul\":2555:2675   */\n  iszero\n  tag_70\n  jumpi\n    /* \"#utility.yul\":2626:2665   */\n  tag_71\n    /* \"#utility.yul\":2663:2664   */\n  0x00\n    /* \"#utility.yul\":2656:2661   */\n  dup3\n    /* \"#utility.yul\":2626:2665   */\n  tag_32\n  jump\t// in\ntag_71:\n    /* \"#utility.yul\":2599:2600   */\n  0x01\n    /* \"#utility.yul\":2592:2597   */\n  dup2\n    /* \"#utility.yul\":2588:2601   */\n  add\n    /* \"#utility.yul\":2579:2601   */\n  swap1\n  pop\n    /* \"#utility.yul\":2555:2675   */\n  jump(tag_68)\ntag_70:\n    /* \"#utility.yul\":2495:2681   */\n  pop\n  pop\n  jump\t// out\n    /* \"#utility.yul\":2687:3230   */\ntag_34:\n    /* \"#utility.yul\":2788:2790   */\n  0x1f\n    /* \"#utility.yul\":2783:2786   */\n  dup3\n    /* \"#utility.yul\":2780:2791   */\n  gt\n    /* \"#utility.yul\":2777:3223   */\n  iszero\n  tag_73\n  jumpi\n    /* \"#utility.yul\":2822:2860   */\n  tag_74\n    /* \"#utility.yul\":2854:2859   */\n  dup2\n    /* \"#utility.yul\":2822:2860   */\n  tag_22\n  jump\t// in\ntag_74:\n    /* \"#utility.yul\":2906:2935   */\n  tag_75\n    /* \"#utility.yul\":2924:2934   */\n  dup5\n    /* \"#utility.yul\":2906:2935   */\n  tag_23\n  jump\t// in\ntag_75:\n    /* \"#utility.yul\":2896:2904   */\n  dup2\n    /* \"#utility.yul\":2892:2936   */\n  add\n    /* \"#utility.yul\":3089:3091   */\n  0x20\n    /* \"#utility.yul\":3077:3087   */\n  dup6\n    /* \"#utility.yul\":3074:3092   */\n  lt\n    /* \"#utility.yul\":3071:3120   */\n  iszero\n  tag_76\n  jumpi\n    /* \"#utility.yul\":3110:3118   */\n  dup2\n    /* \"#utility.yul\":3095:3118   */\n  swap1\n  pop\n    /* \"#utility.yul\":3071:3120   */\ntag_76:\n    /* \"#utility.yul\":3133:3213   */\n  tag_77\n    /* \"#utility.yul\":3189:3211   */\n  tag_78\n    /* \"#utility.yul\":3207:3210   */\n  dup6\n    /* \"#utility.yul\":3189:3211   */\n  tag_23\n  jump\t// in\ntag_78:\n    /* \"#utility.yul\":3179:3187   */\n  dup4\n    /* \"#utility.yul\":3175:3212   */\n  add\n    /* \"#utility.yul\":3162:3173   */\n  dup3\n    /* \"#utility.yul\":3133:3213   */\n  tag_33\n  jump\t// in\ntag_77:\n    /* \"#utility.yul\":2792:3223   */\n  pop\n  pop\n    /* \"#utility.yul\":2777:3223   */\ntag_73:\n    /* \"#utility.yul\":2687:3230   */\n  pop\n  pop\n  pop\n  jump\t// out\n    /* \"#utility.yul\":3236:3353   */\ntag_35:\n    /* \"#utility.yul\":3290:3298   */\n  0x00\n    /* \"#utility.yul\":3340:3345   */\n  dup3\n    /* \"#utility.yul\":3334:3338   */\n  dup3\n    /* \"#utility.yul\":3330:3346   */\n  shr\n    /* \"#utility.yul\":3309:3346   */\n  swap1\n  pop\n    /* \"#utility.yul\":3236:3353   */\n  swap3\n  swap2\n  pop\n  pop\n  jump\t// out\n    /* \"#utility.yul\":3359:3528   */\ntag_36:\n    /* \"#utility.yul\":3403:3409   */\n  0x00\n    /* \"#utility.yul\":3436:3487   */\n  tag_81\n    /* \"#utility.yul\":3484:3485   */\n  0x00\n    /* \"#utility.yul\":3480:3486   */\n  not\n    /* \"#utility.yul\":3472:3477   */\n  dup5\n    /* \"#utility.yul\":3469:3470   */\n  0x08\n    /* \"#utility.yul\":3465:3478   */\n  mul\n    /* \"#utility.yul\":3436:3487   */\n  tag_35\n  jump\t// in\ntag_81:\n    /* \"#utility.yul\":3432:3488   */\n  not\n    /* \"#utility.yul\":3517:3521   */\n  dup1\n    /* \"#utility.yul\":3511:3515   */\n  dup4\n    /* \"#utility.yul\":3507:3522   */\n  and\n    /* \"#utility.yul\":3497:3522   */\n  swap2\n  pop\n    /* \"#utility.yul\":3410:3528   */\n  pop\n    /* \"#utility.yul\":3359:3528   */\n  swap3\n  swap2\n  pop\n  pop\n  jump\t// out\n    /* \"#utility.yul\":3533:3828   */\ntag_37:\n    /* \"#utility.yul\":3609:3613   */\n  0x00\n    /* \"#utility.yul\":3755:3784   */\n  tag_83\n    /* \"#utility.yul\":3780:3783   */\n  dup4\n    /* \"#utility.yul\":3774:3778   */\n  dup4\n    /* \"#utility.yul\":3755:3784   */\n  tag_36\n  jump\t// in\ntag_83:\n    /* \"#utility.yul\":3747:3784   */\n  swap2\n  pop\n    /* \"#utility.yul\":3817:3820   */\n  dup3\n    /* \"#utility.yul\":3814:3815   */\n  0x02\n    /* \"#utility.yul\":3810:3821   */\n  mul\n    /* \"#utility.yul\":3804:3808   */\n  dup3\n    /* \"#utility.yul\":3801:3822   */\n  or\n    /* \"#utility.yul\":3793:3822   */\n  swap1\n  pop\n    /* \"#utility.yul\":3533:3828   */\n  swap3\n  swap2\n  pop\n  pop\n  jump\t// out\n    /* \"#utility.yul\":3833:5228   */\ntag_7:\n    /* \"#utility.yul\":3950:3987   */\n  tag_85\n    /* \"#utility.yul\":3983:3986   */\n  dup3\n    /* \"#utility.yul\":3950:3987   */\n  tag_18\n  jump\t// in\ntag_85:\n    /* \"#utility.yul\":4052:4070   */\n  0xffffffffffffffff\n    /* \"#utility.yul\":4044:4050   */\n  dup2\n    /* \"#utility.yul\":4041:4071   */\n  gt\n    /* \"#utility.yul\":4038:4094   */\n  iszero\n  tag_86\n  jumpi\n    /* \"#utility.yul\":4074:4092   */\n  tag_87\n  tag_19\n  jump\t// in\ntag_87:\n    /* \"#utility.yul\":4038:4094   */\ntag_86:\n    /* \"#utility.yul\":4118:4156   */\n  tag_88\n    /* \"#utility.yul\":4150:4154   */\n  dup3\n    /* \"#utility.yul\":4144:4155   */\n  sload\n    /* \"#utility.yul\":4118:4156   */\n  tag_21\n  jump\t// in\ntag_88:\n    /* \"#utility.yul\":4203:4270   */\n  tag_89\n    /* \"#utility.yul\":4263:4269   */\n  dup3\n    /* \"#utility.yul\":4255:4261   */\n  dup3\n    /* \"#utility.yul\":4249:4253   */\n  dup6\n    /* \"#utility.yul\":4203:4270   */\n  tag_34\n  jump\t// in\ntag_89:\n    /* \"#utility.yul\":4297:4298   */\n  0x00\n    /* \"#utility.yul\":4321:4325   */\n  0x20\n    /* \"#utility.yul\":4308:4325   */\n  swap1\n  pop\n    /* \"#utility.yul\":4353:4355   */\n  0x1f\n    /* \"#utility.yul\":4345:4351   */\n  dup4\n    /* \"#utility.yul\":4342:4356   */\n  gt\n    /* \"#utility.yul\":4370:4371   */\n  0x01\n    /* \"#utility.yul\":4365:4983   */\n  dup2\n  eq\n  tag_91\n  jumpi\n    /* \"#utility.yul\":5027:5028   */\n  0x00\n    /* \"#utility.yul\":5044:5050   */\n  dup5\n    /* \"#utility.yul\":5041:5118   */\n  iszero\n  tag_92\n  jumpi\n    /* \"#utility.yul\":5093:5102   */\n  dup3\n    /* \"#utility.yul\":5088:5091   */\n  dup8\n    /* \"#utility.yul\":5084:5103   */\n  add\n    /* \"#utility.yul\":5078:5104   */\n  mload\n    /* \"#utility.yul\":5069:5104   */\n  swap1\n  pop\n    /* \"#utility.yul\":5041:5118   */\ntag_92:\n    /* \"#utility.yul\":5144:5211   */\n  tag_93\n    /* \"#utility.yul\":5204:5210   */\n  dup6\n    /* \"#utility.yul\":5197:5202   */\n  dup3\n    /* \"#utility.yul\":5144:5211   */\n  tag_37\n  jump\t// in\ntag_93:\n    /* \"#utility.yul\":5138:5142   */\n  dup7\n    /* \"#utility.yul\":5131:5212   */\n  sstore\n    /* \"#utility.yul\":5000:5222   */\n  pop\n    /* \"#utility.yul\":4335:5222   */\n  jump(tag_90)\n    /* \"#utility.yul\":4365:4983   */\ntag_91:\n    /* \"#utility.yul\":4417:4421   */\n  0x1f\n    /* \"#utility.yul\":4413:4422   */\n  not\n    /* \"#utility.yul\":4405:4411   */\n  dup5\n    /* \"#utility.yul\":4401:4423   */\n  and\n    /* \"#utility.yul\":4451:4488   */\n  tag_94\n    /* \"#utility.yul\":4483:4487   */\n  dup7\n    /* \"#utility.yul\":4451:4488   */\n  tag_22\n  jump\t// in\ntag_94:\n    /* \"#utility.yul\":4510:4511   */\n  0x00\n    /* \"#utility.yul\":4524:4732   */\ntag_95:\n    /* \"#utility.yul\":4538:4545   */\n  dup3\n    /* \"#utility.yul\":4535:4536   */\n  dup2\n    /* \"#utility.yul\":4532:4546   */\n  lt\n    /* \"#utility.yul\":4524:4732   */\n  iszero\n  tag_97\n  jumpi\n    /* \"#utility.yul\":4617:4626   */\n  dup5\n    /* \"#utility.yul\":4612:4615   */\n  dup10\n    /* \"#utility.yul\":4608:4627   */\n  add\n    /* \"#utility.yul\":4602:4628   */\n  mload\n    /* \"#utility.yul\":4594:4600   */\n  dup3\n    /* \"#utility.yul\":4587:4629   */\n  sstore\n    /* \"#utility.yul\":4668:4669   */\n  0x01\n    /* \"#utility.yul\":4660:4666   */\n  dup3\n    /* \"#utility.yul\":4656:4670   */\n  add\n    /* \"#utility.yul\":4646:4670   */\n  swap2\n  pop\n    /* \"#utility.yul\":4715:4717   */\n  0x20\n    /* \"#utility.yul\":4704:4713   */\n  dup6\n    /* \"#utility.yul\":4700:4718   */\n  add\n    /* \"#utility.yul\":4687:4718   */\n  swap5\n  pop\n    /* \"#utility.yul\":4561:4565   */\n  0x20\n    /* \"#utility.yul\":4558:4559   */\n  dup2\n    /* \"#utility.yul\":4554:4566   */\n  add\n    /* \"#utility.yul\":4549:4566   */\n  swap1\n  pop\n    /* \"#utility.yul\":4524:4732   */\n  jump(tag_95)\ntag_97:\n    /* \"#utility.yul\":4760:4766   */\n  dup7\n    /* \"#utility.yul\":4751:4758   */\n  dup4\n    /* \"#utility.yul\":4748:4767   */\n  lt\n    /* \"#utility.yul\":4745:4924   */\n  iszero\n  tag_98\n  jumpi\n    /* \"#utility.yul\":4818:4827   */\n  dup5\n    /* \"#utility.yul\":4813:4816   */\n  dup10\n    /* \"#utility.yul\":4809:4828   */\n  add\n    /* \"#utility.yul\":4803:4829   */\n  mload\n    /* \"#utility.yul\":4861:4909   */\n  tag_99\n    /* \"#utility.yul\":4903:4907   */\n  0x1f\n    /* \"#utility.yul\":4895:4901   */\n  dup10\n    /* \"#utility.yul\":4891:4908   */\n  and\n    /* \"#utility.yul\":4880:4889   */\n  dup3\n    /* \"#utility.yul\":4861:4909   */\n  tag_36\n  jump\t// in\ntag_99:\n    /* \"#utility.yul\":4853:4859   */\n  dup4\n    /* \"#utility.yul\":4846:4910   */\n  sstore\n    /* \"#utility.yul\":4768:4924   */\n  pop\n    /* \"#utility.yul\":4745:4924   */\ntag_98:\n    /* \"#utility.yul\":4970:4971   */\n  0x01\n    /* \"#utility.yul\":4966:4967   */\n  0x02\n    /* \"#utility.yul\":4958:4964   */\n  dup9\n    /* \"#utility.yul\":4954:4968   */\n  mul\n    /* \"#utility.yul\":4950:4972   */\n  add\n    /* \"#utility.yul\":4944:4948   */\n  dup9\n    /* \"#utility.yul\":4937:4973   */\n  sstore\n    /* \"#utility.yul\":4372:4983   */\n  pop\n  pop\n  pop\n    /* \"#utility.yul\":4335:5222   */\ntag_90:\n  pop\n    /* \"#utility.yul\":3925:5228   */\n  pop\n  pop\n  pop\n    /* \"#utility.yul\":3833:5228   */\n  pop\n  pop\n  jump\t// out\n    /* \"staking_test.sol\":247:4119  contract MyToken is ERC20, ERC20Burnable, Ownable { ... */\ntag_15:\n  dataSize(sub_0)\n  dup1\n  dataOffset(sub_0)\n  0x00\n  codecopy\n  0x00\n  return\nstop\n\nsub_0: assembly {\n        /* \"staking_test.sol\":247:4119  contract MyToken is ERC20, ERC20Burnable, Ownable { ... */\n      mstore(0x40, 0x80)\n      jumpi(tag_1, lt(calldatasize, 0x04))\n      shr(0xe0, calldataload(0x00))\n      dup1\n      0x70a08231\n      gt\n      tag_27\n      jumpi\n      dup1\n      0x95d89b41\n      gt\n      tag_28\n      jumpi\n      dup1\n      0xa9059cbb\n      gt\n      tag_29\n      jumpi\n      dup1\n      0xa9059cbb\n      eq\n      tag_23\n      jumpi\n      dup1\n      0xc392f766\n      eq\n      tag_24\n      jumpi\n      dup1\n      0xdd62ed3e\n      eq\n      tag_25\n      jumpi\n      dup1\n      0xf2fde38b\n      eq\n      tag_26\n      jumpi\n      jump(tag_1)\n    tag_29:\n      dup1\n      0x95d89b41\n      eq\n      tag_20\n      jumpi\n      dup1\n      0xa457c2d7\n      eq\n      tag_21\n      jumpi\n      dup1\n      0xa694fc3a\n      eq\n      tag_22\n      jumpi\n      jump(tag_1)\n    tag_28:\n      dup1\n      0x70a08231\n      eq\n      tag_14\n      jumpi\n      dup1\n      0x715018a6\n      eq\n      tag_15\n      jumpi\n      dup1\n      0x79cc6790\n      eq\n      tag_16\n      jumpi\n      dup1\n      0x7ff9b596\n      eq\n      tag_17\n      jumpi\n      dup1\n      0x8da5cb5b\n      eq\n      tag_18\n      jumpi\n      dup1\n      0x94eecb50\n      eq\n      tag_19\n      jumpi\n      jump(tag_1)\n    tag_27:\n      dup1\n      0x3610724e\n      gt\n      tag_30\n      jumpi\n      dup1\n      0x3610724e\n      eq\n      tag_8\n      jumpi\n      dup1\n      0x372500ab\n      eq\n      tag_9\n      jumpi\n      dup1\n      0x39509351\n      eq\n      tag_10\n      jumpi\n      dup1\n      0x42966c68\n      eq\n      tag_11\n      jumpi\n      dup1\n      0x6a61e5fc\n      eq\n      tag_12\n      jumpi\n      dup1\n      0x6c11bcd3\n      eq\n      tag_13\n      jumpi\n      jump(tag_1)\n    tag_30:\n      dup1\n      0x06fdde03\n      eq\n      tag_2\n      jumpi\n      dup1\n      0x095ea7b3\n      eq\n      tag_3\n      jumpi\n      dup1\n      0x18160ddd\n      eq\n      tag_4\n      jumpi\n      dup1\n      0x23b872dd\n      eq\n      tag_5\n      jumpi\n      dup1\n      0x2e17de78\n      eq\n      tag_6\n      jumpi\n      dup1\n      0x313ce567\n      eq\n      tag_7\n      jumpi\n    tag_1:\n      0x00\n      dup1\n      revert\n        /* \"@openzeppelin/contracts/token/ERC20/ERC20.sol\":2158:2256  function name() public view virtual override returns (string memory) {... */\n    tag_2:\n      callvalue\n      dup1\n      iszero\n      tag_31\n      jumpi\n      0x00\n      dup1\n      revert\n    tag_31:\n      pop\n      tag_32\n      tag_33\n      jump\t// in\n    tag_32:\n      mload(0x40)\n      tag_34\n      swap2\n      swap1\n      tag_35\n      jump\t// in\n    tag_34:\n      mload(0x40)\n      dup1\n      swap2\n      sub\n      swap1\n      return\n        /* \"@openzeppelin/contracts/token/ERC20/ERC20.sol\":4444:4641  function approve(address spender, uint256 amount) public virtual override returns (bool) {... */\n    tag_3:\n      callvalue\n      dup1\n      iszero\n      tag_36\n      jumpi\n      0x00\n      dup1\n      revert\n    tag_36:\n      pop\n      tag_37\n      0x04\n      dup1\n      calldatasize\n      sub\n      dup2\n      add\n      swap1\n      tag_38\n      swap2\n      swap1\n      tag_39\n      jump\t// in\n    tag_38:\n      tag_40\n      jump\t// in\n    tag_37:\n      mload(0x40)\n      tag_41\n      swap2\n      swap1\n      tag_42\n      jump\t// in\n    tag_41:\n      mload(0x40)\n      dup1\n      swap2\n      sub\n      swap1\n      return\n        /* \"@openzeppelin/contracts/token/ERC20/ERC20.sol\":3255:3361  function totalSupply() public view virtual override returns (uint256) {... */\n    tag_4:\n      callvalue\n      dup1\n      iszero\n      tag_43\n      jumpi\n      0x00\n      dup1\n      revert\n    tag_43:\n      pop\n      tag_44\n      tag_45\n      jump\t// in\n    tag_44:\n      mload(0x40)\n      tag_46\n      swap2\n      swap1\n      tag_47\n      jump\t// in\n    tag_46:\n      mload(0x40)\n      dup1\n      swap2\n      sub\n      swap1\n      return\n        /* \"@openzeppelin/contracts/token/ERC20/ERC20.sol\":5203:5459  function transferFrom(address from, address to, uint256 amount) public virtual override returns (bool) {... */\n    tag_5:\n      callvalue\n      dup1\n      iszero\n      tag_48\n      jumpi\n      0x00\n      dup1\n      revert\n    tag_48:\n      pop\n      tag_49\n      0x04\n      dup1\n      calldatasize\n      sub\n      dup2\n      add\n      swap1\n      tag_50\n      swap2\n      swap1\n      tag_51\n      jump\t// in\n    tag_50:\n      tag_52\n      jump\t// in\n    tag_49:\n      mload(0x40)\n      tag_53\n      swap2\n      swap1\n      tag_42\n      jump\t// in\n    tag_53:\n      mload(0x40)\n      dup1\n      swap2\n      sub\n      swap1\n      return\n        /* \"staking_test.sol\":2195:3018  function unstake(uint256 _numTokens) external { ... */\n    tag_6:\n      callvalue\n      dup1\n      iszero\n      tag_54\n      jumpi\n      0x00\n      dup1\n      revert\n    tag_54:\n      pop\n      tag_55\n      0x04\n      dup1\n      calldatasize\n      sub\n      dup2\n      add\n      swap1\n      tag_56\n      swap2\n      swap1\n      tag_57\n      jump\t// in\n    tag_56:\n      tag_58\n      jump\t// in\n    tag_55:\n      stop\n        /* \"@openzeppelin/contracts/token/ERC20/ERC20.sol\":3104:3195  function decimals() public view virtual override returns (uint8) {... */\n    tag_7:\n      callvalue\n      dup1\n      iszero\n      tag_59\n      jumpi\n      0x00\n      dup1\n      revert\n    tag_59:\n      pop\n      tag_60\n      tag_61\n      jump\t// in\n    tag_60:\n      mload(0x40)\n      tag_62\n      swap2\n      swap1\n      tag_63\n      jump\t// in\n    tag_62:\n      mload(0x40)\n      dup1\n      swap2\n      sub\n      swap1\n      return\n        /* \"staking_test.sol\":1212:1552  function buyTokens(uint256 _numTokens) external payable { ... */\n    tag_8:\n      tag_64\n      0x04\n      dup1\n      calldatasize\n      sub\n      dup2\n      add\n      swap1\n      tag_65\n      swap2\n      swap1\n      tag_57\n      jump\t// in\n    tag_65:\n      tag_66\n      jump\t// in\n    tag_64:\n      stop\n        /* \"staking_test.sol\":3026:3295  function claimRewards() external{ ... */\n    tag_9:\n      callvalue\n      dup1\n      iszero\n      tag_67\n      jumpi\n      0x00\n      dup1\n      revert\n    tag_67:\n      pop\n      tag_68\n      tag_69\n      jump\t// in\n    tag_68:\n      stop\n        /* \"@openzeppelin/contracts/token/ERC20/ERC20.sol\":5854:6088  function increaseAllowance(address spender, uint256 addedValue) public virtual returns (bool) {... */\n    tag_10:\n      callvalue\n      dup1\n      iszero\n      tag_70\n      jumpi\n      0x00\n      dup1\n      revert\n    tag_70:\n      pop\n      tag_71\n      0x04\n      dup1\n      calldatasize\n      sub\n      dup2\n      add\n      swap1\n      tag_72\n      swap2\n      swap1\n      tag_39\n      jump\t// in\n    tag_72:\n      tag_73\n      jump\t// in\n    tag_71:\n      mload(0x40)\n      tag_74\n      swap2\n      swap1\n      tag_42\n      jump\t// in\n    tag_74:\n      mload(0x40)\n      dup1\n      swap2\n      sub\n      swap1\n      return\n        /* \"@openzeppelin/contracts/token/ERC20/extensions/ERC20Burnable.sol\":578:667  function burn(uint256 amount) public virtual {... */\n    tag_11:\n      callvalue\n      dup1\n      iszero\n      tag_75\n      jumpi\n      0x00\n      dup1\n      revert\n    tag_75:\n      pop\n      tag_76\n      0x04\n      dup1\n      calldatasize\n      sub\n      dup2\n      add\n      swap1\n      tag_77\n      swap2\n      swap1\n      tag_57\n      jump\t// in\n    tag_77:\n      tag_78\n      jump\t// in\n    tag_76:\n      stop\n        /* \"staking_test.sol\":714:816  function setTokenPrice(uint256 _newPrice) external onlyOwner { ... */\n    tag_12:\n      callvalue\n      dup1\n      iszero\n      tag_79\n      jumpi\n      0x00\n      dup1\n      revert\n    tag_79:\n      pop\n      tag_80\n      0x04\n      dup1\n      calldatasize\n      sub\n      dup2\n      add\n      swap1\n      tag_81\n      swap2\n      swap1\n      tag_57\n      jump\t// in\n    tag_81:\n      tag_82\n      jump\t// in\n    tag_80:\n      stop\n        /* \"staking_test.sol\":3721:4117  function sellTokens(uint256 _numTokens) external { ... */\n    tag_13:\n      callvalue\n      dup1\n      iszero\n      tag_83\n      jumpi\n      0x00\n      dup1\n      revert\n    tag_83:\n      pop\n      tag_84\n      0x04\n      dup1\n      calldatasize\n      sub\n      dup2\n      add\n      swap1\n      tag_85\n      swap2\n      swap1\n      tag_57\n      jump\t// in\n    tag_85:\n      tag_86\n      jump\t// in\n    tag_84:\n      stop\n        /* \"@openzeppelin/contracts/token/ERC20/ERC20.sol\":3419:3544  function balanceOf(address account) public view virtual override returns (uint256) {... */\n    tag_14:\n      callvalue\n      dup1\n      iszero\n      tag_87\n      jumpi\n      0x00\n      dup1\n      revert\n    tag_87:\n      pop\n      tag_88\n      0x04\n      dup1\n      calldatasize\n      sub\n      dup2\n      add\n      swap1\n      tag_89\n      swap2\n      swap1\n      tag_90\n      jump\t// in\n    tag_89:\n      tag_91\n      jump\t// in\n    tag_88:\n      mload(0x40)\n      tag_92\n      swap2\n      swap1\n      tag_47\n      jump\t// in\n    tag_92:\n      mload(0x40)\n      dup1\n      swap2\n      sub\n      swap1\n      return\n        /* \"@openzeppelin/contracts/access/Ownable.sol\":1824:1925  function renounceOwnership() public virtual onlyOwner {... */\n    tag_15:\n      callvalue\n      dup1\n      iszero\n      tag_93\n      jumpi\n      0x00\n      dup1\n      revert\n    tag_93:\n      pop\n      tag_94\n      tag_95\n      jump\t// in\n    tag_94:\n      stop\n        /* \"@openzeppelin/contracts/token/ERC20/extensions/ERC20Burnable.sol\":973:1134  function burnFrom(address account, uint256 amount) public virtual {... */\n    tag_16:\n      callvalue\n      dup1\n      iszero\n      tag_96\n      jumpi\n      0x00\n      dup1\n      revert\n    tag_96:\n      pop\n      tag_97\n      0x04\n      dup1\n      calldatasize\n      sub\n      dup2\n      add\n      swap1\n      tag_98\n      swap2\n      swap1\n      tag_39\n      jump\t// in\n    tag_98:\n      tag_99\n      jump\t// in\n    tag_97:\n      stop\n        /* \"staking_test.sol\":304:329  uint256 public tokenPrice */\n    tag_17:\n      callvalue\n      dup1\n      iszero\n      tag_100\n      jumpi\n      0x00\n      dup1\n      revert\n    tag_100:\n      pop\n      tag_101\n      tag_102\n      jump\t// in\n    tag_101:\n      mload(0x40)\n      tag_103\n      swap2\n      swap1\n      tag_47\n      jump\t// in\n    tag_103:\n      mload(0x40)\n      dup1\n      swap2\n      sub\n      swap1\n      return\n        /* \"@openzeppelin/contracts/access/Ownable.sol\":1201:1286  function owner() public view virtual returns (address) {... */\n    tag_18:\n      callvalue\n      dup1\n      iszero\n      tag_104\n      jumpi\n      0x00\n      dup1\n      revert\n    tag_104:\n      pop\n      tag_105\n      tag_106\n      jump\t// in\n    tag_105:\n      mload(0x40)\n      tag_107\n      swap2\n      swap1\n      tag_108\n      jump\t// in\n    tag_107:\n      mload(0x40)\n      dup1\n      swap2\n      sub\n      swap1\n      return\n        /* \"staking_test.sol\":552:602  mapping(address => StakingInfo) public stakingInfo */\n    tag_19:\n      callvalue\n      dup1\n      iszero\n      tag_109\n      jumpi\n      0x00\n      dup1\n      revert\n    tag_109:\n      pop\n      tag_110\n      0x04\n      dup1\n      calldatasize\n      sub\n      dup2\n      add\n      swap1\n      tag_111\n      swap2\n      swap1\n      tag_90\n      jump\t// in\n    tag_111:\n      tag_112\n      jump\t// in\n    tag_110:\n      mload(0x40)\n      tag_113\n      swap4\n      swap3\n      swap2\n      swap1\n      tag_114\n      jump\t// in\n    tag_113:\n      mload(0x40)\n      dup1\n      swap2\n      sub\n      swap1\n      return\n        /* \"@openzeppelin/contracts/token/ERC20/ERC20.sol\":2369:2471  function symbol() public view virtual override returns (string memory) {... */\n    tag_20:\n      callvalue\n      dup1\n      iszero\n      tag_115\n      jumpi\n      0x00\n      dup1\n      revert\n    tag_115:\n      pop\n      tag_116\n      tag_117\n      jump\t// in\n    tag_116:\n      mload(0x40)\n      tag_118\n      swap2\n      swap1\n      tag_35\n      jump\t// in\n    tag_118:\n      mload(0x40)\n      dup1\n      swap2\n      sub\n      swap1\n      return\n        /* \"@openzeppelin/contracts/token/ERC20/ERC20.sol\":6575:7002  function decreaseAllowance(address spender, uint256 subtractedValue) public virtual returns (bool) {... */\n    tag_21:\n      callvalue\n      dup1\n      iszero\n      tag_119\n      jumpi\n      0x00\n      dup1\n      revert\n    tag_119:\n      pop\n      tag_120\n      0x04\n      dup1\n      calldatasize\n      sub\n      dup2\n      add\n      swap1\n      tag_121\n      swap2\n      swap1\n      tag_39\n      jump\t// in\n    tag_121:\n      tag_122\n      jump\t// in\n    tag_120:\n      mload(0x40)\n      tag_123\n      swap2\n      swap1\n      tag_42\n      jump\t// in\n    tag_123:\n      mload(0x40)\n      dup1\n      swap2\n      sub\n      swap1\n      return\n        /* \"staking_test.sol\":1560:2187  function stake(uint256 _numTokens) external { ... */\n    tag_22:\n      callvalue\n      dup1\n      iszero\n      tag_124\n      jumpi\n      0x00\n      dup1\n      revert\n    tag_124:\n      pop\n      tag_125\n      0x04\n      dup1\n      calldatasize\n      sub\n      dup2\n      add\n      swap1\n      tag_126\n      swap2\n      swap1\n      tag_57\n      jump\t// in\n    tag_126:\n      tag_127\n      jump\t// in\n    tag_125:\n      stop\n        /* \"@openzeppelin/contracts/token/ERC20/ERC20.sol\":3740:3929  function transfer(address to, uint256 amount) public virtual override returns (bool) {... */\n    tag_23:\n      callvalue\n      dup1\n      iszero\n      tag_128\n      jumpi\n      0x00\n      dup1\n      revert\n    tag_128:\n      pop\n      tag_129\n      0x04\n      dup1\n      calldatasize\n      sub\n      dup2\n      add\n      swap1\n      tag_130\n      swap2\n      swap1\n      tag_39\n      jump\t// in\n    tag_130:\n      tag_131\n      jump\t// in\n    tag_129:\n      mload(0x40)\n      tag_132\n      swap2\n      swap1\n      tag_42\n      jump\t// in\n    tag_132:\n      mload(0x40)\n      dup1\n      swap2\n      sub\n      swap1\n      return\n        /* \"staking_test.sol\":336:365  uint256 public interest = 100 */\n    tag_24:\n      callvalue\n      dup1\n      iszero\n      tag_133\n      jumpi\n      0x00\n      dup1\n      revert\n    tag_133:\n      pop\n      tag_134\n      tag_135\n      jump\t// in\n    tag_134:\n      mload(0x40)\n      tag_136\n      swap2\n      swap1\n      tag_47\n      jump\t// in\n    tag_136:\n      mload(0x40)\n      dup1\n      swap2\n      sub\n      swap1\n      return\n        /* \"@openzeppelin/contracts/token/ERC20/ERC20.sol\":3987:4136  function allowance(address owner, address spender) public view virtual override returns (uint256) {... */\n    tag_25:\n      callvalue\n      dup1\n      iszero\n      tag_137\n      jumpi\n      0x00\n      dup1\n      revert\n    tag_137:\n      pop\n      tag_138\n      0x04\n      dup1\n      calldatasize\n      sub\n      dup2\n      add\n      swap1\n      tag_139\n      swap2\n      swap1\n      tag_140\n      jump\t// in\n    tag_139:\n      tag_141\n      jump\t// in\n    tag_138:\n      mload(0x40)\n      tag_142\n      swap2\n      swap1\n      tag_47\n      jump\t// in\n    tag_142:\n      mload(0x40)\n      dup1\n      swap2\n      sub\n      swap1\n      return\n        /* \"@openzeppelin/contracts/access/Ownable.sol\":2074:2272  function transferOwnership(address newOwner) public virtual onlyOwner {... */\n    tag_26:\n      callvalue\n      dup1\n      iszero\n      tag_143\n      jumpi\n      0x00\n      dup1\n      revert\n    tag_143:\n      pop\n      tag_144\n      0x04\n      dup1\n      calldatasize\n      sub\n      dup2\n      add\n      swap1\n      tag_145\n      swap2\n      swap1\n      tag_90\n      jump\t// in\n    tag_145:\n      tag_146\n      jump\t// in\n    tag_144:\n      stop\n        /* \"@openzeppelin/contracts/token/ERC20/ERC20.sol\":2158:2256  function name() public view virtual override returns (string memory) {... */\n    tag_33:\n        /* \"@openzeppelin/contracts/token/ERC20/ERC20.sol\":2212:2225  string memory */\n      0x60\n        /* \"@openzeppelin/contracts/token/ERC20/ERC20.sol\":2244:2249  _name */\n      0x03\n        /* \"@openzeppelin/contracts/token/ERC20/ERC20.sol\":2237:2249  return _name */\n      dup1\n      sload\n      tag_148\n      swap1\n      tag_149\n      jump\t// in\n    tag_148:\n      dup1\n      0x1f\n      add\n      0x20\n      dup1\n      swap2\n      div\n      mul\n      0x20\n      add\n      mload(0x40)\n      swap1\n      dup2\n      add\n      0x40\n      mstore\n      dup1\n      swap3\n      swap2\n      swap1\n      dup2\n      dup2\n      mstore\n      0x20\n      add\n      dup3\n      dup1\n      sload\n      tag_150\n      swap1\n      tag_149\n      jump\t// in\n    tag_150:\n      dup1\n      iszero\n      tag_151\n      jumpi\n      dup1\n      0x1f\n      lt\n      tag_152\n      jumpi\n      0x0100\n      dup1\n      dup4\n      sload\n      div\n      mul\n      dup4\n      mstore\n      swap2\n      0x20\n      add\n      swap2\n      jump(tag_151)\n    tag_152:\n      dup3\n      add\n      swap2\n      swap1\n      0x00\n      mstore\n      keccak256(0x00, 0x20)\n      swap1\n    tag_153:\n      dup2\n      sload\n      dup2\n      mstore\n      swap1\n      0x01\n      add\n      swap1\n      0x20\n      add\n      dup1\n      dup4\n      gt\n      tag_153\n      jumpi\n      dup3\n      swap1\n      sub\n      0x1f\n      and\n      dup3\n      add\n      swap2\n    tag_151:\n      pop\n      pop\n      pop\n      pop\n      pop\n      swap1\n      pop\n        /* \"@openzeppelin/contracts/token/ERC20/ERC20.sol\":2158:2256  function name() public view virtual override returns (string memory) {... */\n      swap1\n      jump\t// out\n        /* \"@openzeppelin/contracts/token/ERC20/ERC20.sol\":4444:4641  function approve(address spender, uint256 amount) public virtual override returns (bool) {... */\n    tag_40:\n        /* \"@openzeppelin/contracts/token/ERC20/ERC20.sol\":4527:4531  bool */\n      0x00\n        /* \"@openzeppelin/contracts/token/ERC20/ERC20.sol\":4543:4556  address owner */\n      dup1\n        /* \"@openzeppelin/contracts/token/ERC20/ERC20.sol\":4559:4571  _msgSender() */\n      tag_155\n        /* \"@openzeppelin/contracts/token/ERC20/ERC20.sol\":4559:4569  _msgSender */\n      tag_156\n        /* \"@openzeppelin/contracts/token/ERC20/ERC20.sol\":4559:4571  _msgSender() */\n      jump\t// in\n    tag_155:\n        /* \"@openzeppelin/contracts/token/ERC20/ERC20.sol\":4543:4571  address owner = _msgSender() */\n      swap1\n      pop\n        /* \"@openzeppelin/contracts/token/ERC20/ERC20.sol\":4581:4613  _approve(owner, spender, amount) */\n      tag_157\n        /* \"@openzeppelin/contracts/token/ERC20/ERC20.sol\":4590:4595  owner */\n      dup2\n        /* \"@openzeppelin/contracts/token/ERC20/ERC20.sol\":4597:4604  spender */\n      dup6\n        /* \"@openzeppelin/contracts/token/ERC20/ERC20.sol\":4606:4612  amount */\n      dup6\n        /* \"@openzeppelin/contracts/token/ERC20/ERC20.sol\":4581:4589  _approve */\n      tag_158\n        /* \"@openzeppelin/contracts/token/ERC20/ERC20.sol\":4581:4613  _approve(owner, spender, amount) */\n      jump\t// in\n    tag_157:\n        /* \"@openzeppelin/contracts/token/ERC20/ERC20.sol\":4630:4634  true */\n      0x01\n        /* \"@openzeppelin/contracts/token/ERC20/ERC20.sol\":4623:4634  return true */\n      swap2\n      pop\n      pop\n        /* \"@openzeppelin/contracts/token/ERC20/ERC20.sol\":4444:4641  function approve(address spender, uint256 amount) public virtual override returns (bool) {... */\n      swap3\n      swap2\n      pop\n      pop\n      jump\t// out\n        /* \"@openzeppelin/contracts/token/ERC20/ERC20.sol\":3255:3361  function totalSupply() public view virtual override returns (uint256) {... */\n    tag_45:\n        /* \"@openzeppelin/contracts/token/ERC20/ERC20.sol\":3316:3323  uint256 */\n      0x00\n        /* \"@openzeppelin/contracts/token/ERC20/ERC20.sol\":3342:3354  _totalSupply */\n      sload(0x02)\n        /* \"@openzeppelin/contracts/token/ERC20/ERC20.sol\":3335:3354  return _totalSupply */\n      swap1\n      pop\n        /* \"@openzeppelin/contracts/token/ERC20/ERC20.sol\":3255:3361  function totalSupply() public view virtual override returns (uint256) {... */\n      swap1\n      jump\t// out\n        /* \"@openzeppelin/contracts/token/ERC20/ERC20.sol\":5203:5459  function transferFrom(address from, address to, uint256 amount) public virtual override returns (bool) {... */\n    tag_52:\n        /* \"@openzeppelin/contracts/token/ERC20/ERC20.sol\":5300:5304  bool */\n      0x00\n        /* \"@openzeppelin/contracts/token/ERC20/ERC20.sol\":5316:5331  address spender */\n      dup1\n        /* \"@openzeppelin/contracts/token/ERC20/ERC20.sol\":5334:5346  _msgSender() */\n      tag_161\n        /* \"@openzeppelin/contracts/token/ERC20/ERC20.sol\":5334:5344  _msgSender */\n      tag_156\n        /* \"@openzeppelin/contracts/token/ERC20/ERC20.sol\":5334:5346  _msgSender() */\n      jump\t// in\n    tag_161:\n        /* \"@openzeppelin/contracts/token/ERC20/ERC20.sol\":5316:5346  address spender = _msgSender() */\n      swap1\n      pop\n        /* \"@openzeppelin/contracts/token/ERC20/ERC20.sol\":5356:5394  _spendAllowance(from, spender, amount) */\n      tag_162\n        /* \"@openzeppelin/contracts/token/ERC20/ERC20.sol\":5372:5376  from */\n      dup6\n        /* \"@openzeppelin/contracts/token/ERC20/ERC20.sol\":5378:5385  spender */\n      dup3\n        /* \"@openzeppelin/contracts/token/ERC20/ERC20.sol\":5387:5393  amount */\n      dup6\n        /* \"@openzeppelin/contracts/token/ERC20/ERC20.sol\":5356:5371  _spendAllowance */\n      tag_163\n        /* \"@openzeppelin/contracts/token/ERC20/ERC20.sol\":5356:5394  _spendAllowance(from, spender, amount) */\n      jump\t// in\n    tag_162:\n        /* \"@openzeppelin/contracts/token/ERC20/ERC20.sol\":5404:5431  _transfer(from, to, amount) */\n      tag_164\n        /* \"@openzeppelin/contracts/token/ERC20/ERC20.sol\":5414:5418  from */\n      dup6\n        /* \"@openzeppelin/contracts/token/ERC20/ERC20.sol\":5420:5422  to */\n      dup6\n        /* \"@openzeppelin/contracts/token/ERC20/ERC20.sol\":5424:5430  amount */\n      dup6\n        /* \"@openzeppelin/contracts/token/ERC20/ERC20.sol\":5404:5413  _transfer */\n      tag_165\n        /* \"@openzeppelin/contracts/token/ERC20/ERC20.sol\":5404:5431  _transfer(from, to, amount) */\n      jump\t// in\n    tag_164:\n        /* \"@openzeppelin/contracts/token/ERC20/ERC20.sol\":5448:5452  true */\n      0x01\n        /* \"@openzeppelin/contracts/token/ERC20/ERC20.sol\":5441:5452  return true */\n      swap2\n      pop\n      pop\n        /* \"@openzeppelin/contracts/token/ERC20/ERC20.sol\":5203:5459  function transferFrom(address from, address to, uint256 amount) public virtual override returns (bool) {... */\n      swap4\n      swap3\n      pop\n      pop\n      pop\n      jump\t// out\n        /* \"staking_test.sol\":2195:3018  function unstake(uint256 _numTokens) external { ... */\n    tag_58:\n        /* \"staking_test.sol\":2273:2274  0 */\n      0x00\n        /* \"staking_test.sol\":2260:2270  _numTokens */\n      dup2\n        /* \"staking_test.sol\":2260:2274  _numTokens > 0 */\n      gt\n        /* \"staking_test.sol\":2252:2313  require(_numTokens > 0, \"Must unstake more than zero tokens\") */\n      tag_167\n      jumpi\n      mload(0x40)\n      0x08c379a000000000000000000000000000000000000000000000000000000000\n      dup2\n      mstore\n      0x04\n      add\n      tag_168\n      swap1\n      tag_169\n      jump\t// in\n    tag_168:\n      mload(0x40)\n      dup1\n      swap2\n      sub\n      swap1\n      revert\n    tag_167:\n        /* \"staking_test.sol\":2372:2382  _numTokens */\n      dup1\n        /* \"staking_test.sol\":2332:2343  stakingInfo */\n      0x08\n        /* \"staking_test.sol\":2332:2355  stakingInfo[msg.sender] */\n      0x00\n        /* \"staking_test.sol\":2344:2354  msg.sender */\n      caller\n        /* \"staking_test.sol\":2332:2355  stakingInfo[msg.sender] */\n      0xffffffffffffffffffffffffffffffffffffffff\n      and\n      0xffffffffffffffffffffffffffffffffffffffff\n      and\n      dup2\n      mstore\n      0x20\n      add\n      swap1\n      dup2\n      mstore\n      0x20\n      add\n      0x00\n      keccak256\n        /* \"staking_test.sol\":2332:2368  stakingInfo[msg.sender].stakedAmount */\n      0x00\n      add\n      sload\n        /* \"staking_test.sol\":2332:2382  stakingInfo[msg.sender].stakedAmount >= _numTokens */\n      lt\n      iszero\n        /* \"staking_test.sol\":2324:2415  require(stakingInfo[msg.sender].stakedAmount >= _numTokens, \"Not Enough Tokens To Unstake\") */\n      tag_170\n      jumpi\n      mload(0x40)\n      0x08c379a000000000000000000000000000000000000000000000000000000000\n      dup2\n      mstore\n      0x04\n      add\n      tag_171\n      swap1\n      tag_172\n      jump\t// in\n    tag_171:\n      mload(0x40)\n      dup1\n      swap2\n      sub\n      swap1\n      revert\n    tag_170:\n        /* \"staking_test.sol\":2435:2459  UpdateReward(msg.sender) */\n      tag_173\n        /* \"staking_test.sol\":2448:2458  msg.sender */\n      caller\n        /* \"staking_test.sol\":2435:2447  UpdateReward */\n      tag_174\n        /* \"staking_test.sol\":2435:2459  UpdateReward(msg.sender) */\n      jump\t// in\n    tag_173:\n        /* \"staking_test.sol\":2507:2517  _numTokens */\n      dup1\n        /* \"staking_test.sol\":2469:2480  stakingInfo */\n      0x08\n        /* \"staking_test.sol\":2469:2492  stakingInfo[msg.sender] */\n      0x00\n        /* \"staking_test.sol\":2481:2491  msg.sender */\n      caller\n        /* \"staking_test.sol\":2469:2492  stakingInfo[msg.sender] */\n      0xffffffffffffffffffffffffffffffffffffffff\n      and\n      0xffffffffffffffffffffffffffffffffffffffff\n      and\n      dup2\n      mstore\n      0x20\n      add\n      swap1\n      dup2\n      mstore\n      0x20\n      add\n      0x00\n      keccak256\n        /* \"staking_test.sol\":2469:2505  stakingInfo[msg.sender].stakedAmount */\n      0x00\n      add\n      0x00\n        /* \"staking_test.sol\":2469:2517  stakingInfo[msg.sender].stakedAmount-=_numTokens */\n      dup3\n      dup3\n      sload\n      tag_175\n      swap2\n      swap1\n      tag_176\n      jump\t// in\n    tag_175:\n      swap3\n      pop\n      pop\n      dup2\n      swap1\n      sstore\n      pop\n        /* \"staking_test.sol\":2569:2570  0 */\n      0x00\n        /* \"staking_test.sol\":2531:2542  stakingInfo */\n      0x08\n        /* \"staking_test.sol\":2531:2554  stakingInfo[msg.sender] */\n      0x00\n        /* \"staking_test.sol\":2543:2553  msg.sender */\n      caller\n        /* \"staking_test.sol\":2531:2554  stakingInfo[msg.sender] */\n      0xffffffffffffffffffffffffffffffffffffffff\n      and\n      0xffffffffffffffffffffffffffffffffffffffff\n      and\n      dup2\n      mstore\n      0x20\n      add\n      swap1\n      dup2\n      mstore\n      0x20\n      add\n      0x00\n      keccak256\n        /* \"staking_test.sol\":2531:2567  stakingInfo[msg.sender].stakedAmount */\n      0x00\n      add\n      sload\n        /* \"staking_test.sol\":2531:2570  stakingInfo[msg.sender].stakedAmount==0 */\n      sub\n        /* \"staking_test.sol\":2527:2942  if (stakingInfo[msg.sender].stakedAmount==0) { ... */\n      tag_177\n      jumpi\n        /* \"staking_test.sol\":2592:2601  uint256 i */\n      0x00\n        /* \"staking_test.sol\":2587:2932  for (uint256 i = 0; i < users.length; i++) {... */\n    tag_178:\n        /* \"staking_test.sol\":2611:2616  users */\n      0x09\n        /* \"staking_test.sol\":2611:2623  users.length */\n      dup1\n      sload\n      swap1\n      pop\n        /* \"staking_test.sol\":2607:2608  i */\n      dup2\n        /* \"staking_test.sol\":2607:2623  i < users.length */\n      lt\n        /* \"staking_test.sol\":2587:2932  for (uint256 i = 0; i < users.length; i++) {... */\n      iszero\n      tag_179\n      jumpi\n        /* \"staking_test.sol\":2664:2674  msg.sender */\n      caller\n        /* \"staking_test.sol\":2652:2674  users[i] == msg.sender */\n      0xffffffffffffffffffffffffffffffffffffffff\n      and\n        /* \"staking_test.sol\":2652:2657  users */\n      0x09\n        /* \"staking_test.sol\":2658:2659  i */\n      dup3\n        /* \"staking_test.sol\":2652:2660  users[i] */\n      dup2\n      sload\n      dup2\n      lt\n      tag_181\n      jumpi\n      tag_182\n      tag_183\n      jump\t// in\n    tag_182:\n    tag_181:\n      swap1\n      0x00\n      mstore\n      keccak256(0x00, 0x20)\n      add\n      0x00\n      swap1\n      sload\n      swap1\n      0x0100\n      exp\n      swap1\n      div\n      0xffffffffffffffffffffffffffffffffffffffff\n      and\n        /* \"staking_test.sol\":2652:2674  users[i] == msg.sender */\n      0xffffffffffffffffffffffffffffffffffffffff\n      and\n      sub\n        /* \"staking_test.sol\":2648:2918  if (users[i] == msg.sender) {... */\n      tag_185\n      jumpi\n        /* \"staking_test.sol\":2709:2714  users */\n      0x09\n        /* \"staking_test.sol\":2730:2731  1 */\n      0x01\n        /* \"staking_test.sol\":2715:2720  users */\n      0x09\n        /* \"staking_test.sol\":2715:2727  users.length */\n      dup1\n      sload\n      swap1\n      pop\n        /* \"staking_test.sol\":2715:2731  users.length - 1 */\n      tag_186\n      swap2\n      swap1\n      tag_176\n      jump\t// in\n    tag_186:\n        /* \"staking_test.sol\":2709:2732  users[users.length - 1] */\n      dup2\n      sload\n      dup2\n      lt\n      tag_187\n      jumpi\n      tag_188\n      tag_183\n      jump\t// in\n    tag_188:\n    tag_187:\n      swap1\n      0x00\n      mstore\n      keccak256(0x00, 0x20)\n      add\n      0x00\n      swap1\n      sload\n      swap1\n      0x0100\n      exp\n      swap1\n      div\n      0xffffffffffffffffffffffffffffffffffffffff\n      and\n        /* \"staking_test.sol\":2698:2703  users */\n      0x09\n        /* \"staking_test.sol\":2704:2705  i */\n      dup3\n        /* \"staking_test.sol\":2698:2706  users[i] */\n      dup2\n      sload\n      dup2\n      lt\n      tag_190\n      jumpi\n      tag_191\n      tag_183\n      jump\t// in\n    tag_191:\n    tag_190:\n      swap1\n      0x00\n      mstore\n      keccak256(0x00, 0x20)\n      add\n      0x00\n        /* \"staking_test.sol\":2698:2732  users[i] = users[users.length - 1] */\n      0x0100\n      exp\n      dup2\n      sload\n      dup2\n      0xffffffffffffffffffffffffffffffffffffffff\n      mul\n      not\n      and\n      swap1\n      dup4\n      0xffffffffffffffffffffffffffffffffffffffff\n      and\n      mul\n      or\n      swap1\n      sstore\n      pop\n        /* \"staking_test.sol\":2808:2813  users */\n      0x09\n        /* \"staking_test.sol\":2808:2819  users.pop() */\n      dup1\n      sload\n      dup1\n      tag_193\n      jumpi\n      tag_194\n      tag_195\n      jump\t// in\n    tag_194:\n    tag_193:\n      0x01\n      swap1\n      sub\n      dup2\n      dup2\n      swap1\n      0x00\n      mstore\n      keccak256(0x00, 0x20)\n      add\n      exp(0x0100, 0x00)\n      dup2\n      sload\n      swap1\n      0xffffffffffffffffffffffffffffffffffffffff\n      mul\n      not\n      and\n      swap1\n      sstore\n      swap1\n      sstore\n        /* \"staking_test.sol\":2894:2899  break */\n      jump(tag_179)\n        /* \"staking_test.sol\":2648:2918  if (users[i] == msg.sender) {... */\n    tag_185:\n        /* \"staking_test.sol\":2625:2628  i++ */\n      dup1\n      dup1\n      tag_197\n      swap1\n      tag_198\n      jump\t// in\n    tag_197:\n      swap2\n      pop\n      pop\n        /* \"staking_test.sol\":2587:2932  for (uint256 i = 0; i < users.length; i++) {... */\n      jump(tag_178)\n    tag_179:\n      pop\n        /* \"staking_test.sol\":2527:2942  if (stakingInfo[msg.sender].stakedAmount==0) { ... */\n    tag_177:\n        /* \"staking_test.sol\":2960:3008  _transfer(address(this), msg.sender, _numTokens) */\n      tag_199\n        /* \"staking_test.sol\":2978:2982  this */\n      address\n        /* \"staking_test.sol\":2985:2995  msg.sender */\n      caller\n        /* \"staking_test.sol\":2997:3007  _numTokens */\n      dup4\n        /* \"staking_test.sol\":2960:2969  _transfer */\n      tag_165\n        /* \"staking_test.sol\":2960:3008  _transfer(address(this), msg.sender, _numTokens) */\n      jump\t// in\n    tag_199:\n        /* \"staking_test.sol\":2195:3018  function unstake(uint256 _numTokens) external { ... */\n      pop\n      jump\t// out\n        /* \"@openzeppelin/contracts/token/ERC20/ERC20.sol\":3104:3195  function decimals() public view virtual override returns (uint8) {... */\n    tag_61:\n        /* \"@openzeppelin/contracts/token/ERC20/ERC20.sol\":3162:3167  uint8 */\n      0x00\n        /* \"@openzeppelin/contracts/token/ERC20/ERC20.sol\":3186:3188  18 */\n      0x12\n        /* \"@openzeppelin/contracts/token/ERC20/ERC20.sol\":3179:3188  return 18 */\n      swap1\n      pop\n        /* \"@openzeppelin/contracts/token/ERC20/ERC20.sol\":3104:3195  function decimals() public view virtual override returns (uint8) {... */\n      swap1\n      jump\t// out\n        /* \"staking_test.sol\":1212:1552  function buyTokens(uint256 _numTokens) external payable { ... */\n    tag_66:\n        /* \"staking_test.sol\":1313:1323  tokenPrice */\n      sload(0x06)\n        /* \"staking_test.sol\":1300:1310  _numTokens */\n      dup2\n        /* \"staking_test.sol\":1300:1323  _numTokens * tokenPrice */\n      tag_202\n      swap2\n      swap1\n      tag_203\n      jump\t// in\n    tag_202:\n        /* \"staking_test.sol\":1287:1296  msg.value */\n      callvalue\n        /* \"staking_test.sol\":1287:1323  msg.value >= _numTokens * tokenPrice */\n      lt\n      iszero\n        /* \"staking_test.sol\":1279:1352  require(msg.value >= _numTokens * tokenPrice, \"Insufficient ethers sent\") */\n      tag_204\n      jumpi\n      mload(0x40)\n      0x08c379a000000000000000000000000000000000000000000000000000000000\n      dup2\n      mstore\n      0x04\n      add\n      tag_205\n      swap1\n      tag_206\n      jump\t// in\n    tag_205:\n      mload(0x40)\n      dup1\n      swap2\n      sub\n      swap1\n      revert\n    tag_204:\n        /* \"staking_test.sol\":1363:1392  _mint(msg.sender, _numTokens) */\n      tag_207\n        /* \"staking_test.sol\":1369:1379  msg.sender */\n      caller\n        /* \"staking_test.sol\":1381:1391  _numTokens */\n      dup3\n        /* \"staking_test.sol\":1363:1368  _mint */\n      tag_208\n        /* \"staking_test.sol\":1363:1392  _mint(msg.sender, _numTokens) */\n      jump\t// in\n    tag_207:\n        /* \"staking_test.sol\":1432:1442  tokenPrice */\n      sload(0x06)\n        /* \"staking_test.sol\":1419:1429  _numTokens */\n      dup2\n        /* \"staking_test.sol\":1419:1442  _numTokens * tokenPrice */\n      tag_209\n      swap2\n      swap1\n      tag_203\n      jump\t// in\n    tag_209:\n        /* \"staking_test.sol\":1406:1415  msg.value */\n      callvalue\n        /* \"staking_test.sol\":1406:1443  msg.value > (_numTokens * tokenPrice) */\n      gt\n        /* \"staking_test.sol\":1402:1545  if (msg.value > (_numTokens * tokenPrice))... */\n      iszero\n      tag_210\n      jumpi\n        /* \"staking_test.sol\":1475:1485  msg.sender */\n      caller\n        /* \"staking_test.sol\":1467:1495  payable(msg.sender).transfer */\n      0xffffffffffffffffffffffffffffffffffffffff\n      and\n        /* \"staking_test.sol\":1467:1534  payable(msg.sender).transfer(msg.value - (_numTokens * tokenPrice)) */\n      0x08fc\n        /* \"staking_test.sol\":1522:1532  tokenPrice */\n      sload(0x06)\n        /* \"staking_test.sol\":1509:1519  _numTokens */\n      dup4\n        /* \"staking_test.sol\":1509:1532  _numTokens * tokenPrice */\n      tag_211\n      swap2\n      swap1\n      tag_203\n      jump\t// in\n    tag_211:\n        /* \"staking_test.sol\":1496:1505  msg.value */\n      callvalue\n        /* \"staking_test.sol\":1496:1533  msg.value - (_numTokens * tokenPrice) */\n      tag_212\n      swap2\n      swap1\n      tag_176\n      jump\t// in\n    tag_212:\n        /* \"staking_test.sol\":1467:1534  payable(msg.sender).transfer(msg.value - (_numTokens * tokenPrice)) */\n      swap1\n      dup2\n      iszero\n      mul\n      swap1\n      mload(0x40)\n      0x00\n      mload(0x40)\n      dup1\n      dup4\n      sub\n      dup2\n      dup6\n      dup9\n      dup9\n      call\n      swap4\n      pop\n      pop\n      pop\n      pop\n      iszero\n      dup1\n      iszero\n      tag_214\n      jumpi\n      returndatasize\n      0x00\n      dup1\n      returndatacopy\n      revert(0x00, returndatasize)\n    tag_214:\n      pop\n        /* \"staking_test.sol\":1402:1545  if (msg.value > (_numTokens * tokenPrice))... */\n    tag_210:\n        /* \"staking_test.sol\":1212:1552  function buyTokens(uint256 _numTokens) external payable { ... */\n      pop\n      jump\t// out\n        /* \"staking_test.sol\":3026:3295  function claimRewards() external{ ... */\n    tag_69:\n        /* \"staking_test.sol\":3069:3093  UpdateReward(msg.sender) */\n      tag_216\n        /* \"staking_test.sol\":3082:3092  msg.sender */\n      caller\n        /* \"staking_test.sol\":3069:3081  UpdateReward */\n      tag_174\n        /* \"staking_test.sol\":3069:3093  UpdateReward(msg.sender) */\n      jump\t// in\n    tag_216:\n        /* \"staking_test.sol\":3146:3147  0 */\n      0x00\n        /* \"staking_test.sol\":3112:3123  stakingInfo */\n      0x08\n        /* \"staking_test.sol\":3112:3135  stakingInfo[msg.sender] */\n      0x00\n        /* \"staking_test.sol\":3124:3134  msg.sender */\n      caller\n        /* \"staking_test.sol\":3112:3135  stakingInfo[msg.sender] */\n      0xffffffffffffffffffffffffffffffffffffffff\n      and\n      0xffffffffffffffffffffffffffffffffffffffff\n      and\n      dup2\n      mstore\n      0x20\n      add\n      swap1\n      dup2\n      mstore\n      0x20\n      add\n      0x00\n      keccak256\n        /* \"staking_test.sol\":3112:3143  stakingInfo[msg.sender].rewards */\n      0x02\n      add\n      sload\n        /* \"staking_test.sol\":3112:3147  stakingInfo[msg.sender].rewards > 0 */\n      gt\n        /* \"staking_test.sol\":3104:3171  require(stakingInfo[msg.sender].rewards > 0, \"No rewards to claim\") */\n      tag_217\n      jumpi\n      mload(0x40)\n      0x08c379a000000000000000000000000000000000000000000000000000000000\n      dup2\n      mstore\n      0x04\n      add\n      tag_218\n      swap1\n      tag_219\n      jump\t// in\n    tag_218:\n      mload(0x40)\n      dup1\n      swap2\n      sub\n      swap1\n      revert\n    tag_217:\n        /* \"staking_test.sol\":3190:3200  msg.sender */\n      caller\n        /* \"staking_test.sol\":3182:3210  payable(msg.sender).transfer */\n      0xffffffffffffffffffffffffffffffffffffffff\n      and\n        /* \"staking_test.sol\":3182:3243  payable(msg.sender).transfer(stakingInfo[msg.sender].rewards) */\n      0x08fc\n        /* \"staking_test.sol\":3211:3222  stakingInfo */\n      0x08\n        /* \"staking_test.sol\":3211:3234  stakingInfo[msg.sender] */\n      0x00\n        /* \"staking_test.sol\":3223:3233  msg.sender */\n      caller\n        /* \"staking_test.sol\":3211:3234  stakingInfo[msg.sender] */\n      0xffffffffffffffffffffffffffffffffffffffff\n      and\n      0xffffffffffffffffffffffffffffffffffffffff\n      and\n      dup2\n      mstore\n      0x20\n      add\n      swap1\n      dup2\n      mstore\n      0x20\n      add\n      0x00\n      keccak256\n        /* \"staking_test.sol\":3211:3242  stakingInfo[msg.sender].rewards */\n      0x02\n      add\n      sload\n        /* \"staking_test.sol\":3182:3243  payable(msg.sender).transfer(stakingInfo[msg.sender].rewards) */\n      swap1\n      dup2\n      iszero\n      mul\n      swap1\n      mload(0x40)\n      0x00\n      mload(0x40)\n      dup1\n      dup4\n      sub\n      dup2\n      dup6\n      dup9\n      dup9\n      call\n      swap4\n      pop\n      pop\n      pop\n      pop\n      iszero\n      dup1\n      iszero\n      tag_221\n      jumpi\n      returndatasize\n      0x00\n      dup1\n      returndatacopy\n      revert(0x00, returndatasize)\n    tag_221:\n      pop\n        /* \"staking_test.sol\":3287:3288  0 */\n      0x00\n        /* \"staking_test.sol\":3253:3264  stakingInfo */\n      0x08\n        /* \"staking_test.sol\":3253:3276  stakingInfo[msg.sender] */\n      0x00\n        /* \"staking_test.sol\":3265:3275  msg.sender */\n      caller\n        /* \"staking_test.sol\":3253:3276  stakingInfo[msg.sender] */\n      0xffffffffffffffffffffffffffffffffffffffff\n      and\n      0xffffffffffffffffffffffffffffffffffffffff\n      and\n      dup2\n      mstore\n      0x20\n      add\n      swap1\n      dup2\n      mstore\n      0x20\n      add\n      0x00\n      keccak256\n        /* \"staking_test.sol\":3253:3284  stakingInfo[msg.sender].rewards */\n      0x02\n      add\n        /* \"staking_test.sol\":3253:3288  stakingInfo[msg.sender].rewards = 0 */\n      dup2\n      swap1\n      sstore\n      pop\n        /* \"staking_test.sol\":3026:3295  function claimRewards() external{ ... */\n      jump\t// out\n        /* \"@openzeppelin/contracts/token/ERC20/ERC20.sol\":5854:6088  function increaseAllowance(address spender, uint256 addedValue) public virtual returns (bool) {... */\n    tag_73:\n        /* \"@openzeppelin/contracts/token/ERC20/ERC20.sol\":5942:5946  bool */\n      0x00\n        /* \"@openzeppelin/contracts/token/ERC20/ERC20.sol\":5958:5971  address owner */\n      dup1\n        /* \"@openzeppelin/contracts/token/ERC20/ERC20.sol\":5974:5986  _msgSender() */\n      tag_223\n        /* \"@openzeppelin/contracts/token/ERC20/ERC20.sol\":5974:5984  _msgSender */\n      tag_156\n        /* \"@openzeppelin/contracts/token/ERC20/ERC20.sol\":5974:5986  _msgSender() */\n      jump\t// in\n    tag_223:\n        /* \"@openzeppelin/contracts/token/ERC20/ERC20.sol\":5958:5986  address owner = _msgSender() */\n      swap1\n      pop\n        /* \"@openzeppelin/contracts/token/ERC20/ERC20.sol\":5996:6060  _approve(owner, spender, allowance(owner, spender) + addedValue) */\n      tag_224\n        /* \"@openzeppelin/contracts/token/ERC20/ERC20.sol\":6005:6010  owner */\n      dup2\n        /* \"@openzeppelin/contracts/token/ERC20/ERC20.sol\":6012:6019  spender */\n      dup6\n        /* \"@openzeppelin/contracts/token/ERC20/ERC20.sol\":6049:6059  addedValue */\n      dup6\n        /* \"@openzeppelin/contracts/token/ERC20/ERC20.sol\":6021:6046  allowance(owner, spender) */\n      tag_225\n        /* \"@openzeppelin/contracts/token/ERC20/ERC20.sol\":6031:6036  owner */\n      dup6\n        /* \"@openzeppelin/contracts/token/ERC20/ERC20.sol\":6038:6045  spender */\n      dup10\n        /* \"@openzeppelin/contracts/token/ERC20/ERC20.sol\":6021:6030  allowance */\n      tag_141\n        /* \"@openzeppelin/contracts/token/ERC20/ERC20.sol\":6021:6046  allowance(owner, spender) */\n      jump\t// in\n    tag_225:\n        /* \"@openzeppelin/contracts/token/ERC20/ERC20.sol\":6021:6059  allowance(owner, spender) + addedValue */\n      tag_226\n      swap2\n      swap1\n      tag_227\n      jump\t// in\n    tag_226:\n        /* \"@openzeppelin/contracts/token/ERC20/ERC20.sol\":5996:6004  _approve */\n      tag_158\n        /* \"@openzeppelin/contracts/token/ERC20/ERC20.sol\":5996:6060  _approve(owner, spender, allowance(owner, spender) + addedValue) */\n      jump\t// in\n    tag_224:\n        /* \"@openzeppelin/contracts/token/ERC20/ERC20.sol\":6077:6081  true */\n      0x01\n        /* \"@openzeppelin/contracts/token/ERC20/ERC20.sol\":6070:6081  return true */\n      swap2\n      pop\n      pop\n        /* \"@openzeppelin/contracts/token/ERC20/ERC20.sol\":5854:6088  function increaseAllowance(address spender, uint256 addedValue) public virtual returns (bool) {... */\n      swap3\n      swap2\n      pop\n      pop\n      jump\t// out\n        /* \"@openzeppelin/contracts/token/ERC20/extensions/ERC20Burnable.sol\":578:667  function burn(uint256 amount) public virtual {... */\n    tag_78:\n        /* \"@openzeppelin/contracts/token/ERC20/extensions/ERC20Burnable.sol\":633:660  _burn(_msgSender(), amount) */\n      tag_229\n        /* \"@openzeppelin/contracts/token/ERC20/extensions/ERC20Burnable.sol\":639:651  _msgSender() */\n      tag_230\n        /* \"@openzeppelin/contracts/token/ERC20/extensions/ERC20Burnable.sol\":639:649  _msgSender */\n      tag_156\n        /* \"@openzeppelin/contracts/token/ERC20/extensions/ERC20Burnable.sol\":639:651  _msgSender() */\n      jump\t// in\n    tag_230:\n        /* \"@openzeppelin/contracts/token/ERC20/extensions/ERC20Burnable.sol\":653:659  amount */\n      dup3\n        /* \"@openzeppelin/contracts/token/ERC20/extensions/ERC20Burnable.sol\":633:638  _burn */\n      tag_231\n        /* \"@openzeppelin/contracts/token/ERC20/extensions/ERC20Burnable.sol\":633:660  _burn(_msgSender(), amount) */\n      jump\t// in\n    tag_229:\n        /* \"@openzeppelin/contracts/token/ERC20/extensions/ERC20Burnable.sol\":578:667  function burn(uint256 amount) public virtual {... */\n      pop\n      jump\t// out\n        /* \"staking_test.sol\":714:816  function setTokenPrice(uint256 _newPrice) external onlyOwner { ... */\n    tag_82:\n        /* \"@openzeppelin/contracts/access/Ownable.sol\":1094:1107  _checkOwner() */\n      tag_233\n        /* \"@openzeppelin/contracts/access/Ownable.sol\":1094:1105  _checkOwner */\n      tag_234\n        /* \"@openzeppelin/contracts/access/Ownable.sol\":1094:1107  _checkOwner() */\n      jump\t// in\n    tag_233:\n        /* \"staking_test.sol\":799:808  _newPrice */\n      dup1\n        /* \"staking_test.sol\":786:796  tokenPrice */\n      0x06\n        /* \"staking_test.sol\":786:808  tokenPrice = _newPrice */\n      dup2\n      swap1\n      sstore\n      pop\n        /* \"staking_test.sol\":714:816  function setTokenPrice(uint256 _newPrice) external onlyOwner { ... */\n      pop\n      jump\t// out\n        /* \"staking_test.sol\":3721:4117  function sellTokens(uint256 _numTokens) external { ... */\n    tag_86:\n        /* \"staking_test.sol\":3814:3824  _numTokens */\n      dup1\n        /* \"staking_test.sol\":3789:3810  balanceOf(msg.sender) */\n      tag_237\n        /* \"staking_test.sol\":3799:3809  msg.sender */\n      caller\n        /* \"staking_test.sol\":3789:3798  balanceOf */\n      tag_91\n        /* \"staking_test.sol\":3789:3810  balanceOf(msg.sender) */\n      jump\t// in\n    tag_237:\n        /* \"staking_test.sol\":3789:3824  balanceOf(msg.sender) >= _numTokens */\n      lt\n      iszero\n        /* \"staking_test.sol\":3781:3848  require(balanceOf(msg.sender) >= _numTokens, \"Insufficient tokens\") */\n      tag_238\n      jumpi\n      mload(0x40)\n      0x08c379a000000000000000000000000000000000000000000000000000000000\n      dup2\n      mstore\n      0x04\n      add\n      tag_239\n      swap1\n      tag_240\n      jump\t// in\n    tag_239:\n      mload(0x40)\n      dup1\n      swap2\n      sub\n      swap1\n      revert\n    tag_238:\n        /* \"staking_test.sol\":3859:3879  uint256 refundAmount */\n      0x00\n        /* \"staking_test.sol\":3908:3919  stakingInfo */\n      0x08\n        /* \"staking_test.sol\":3908:3931  stakingInfo[msg.sender] */\n      0x00\n        /* \"staking_test.sol\":3920:3930  msg.sender */\n      caller\n        /* \"staking_test.sol\":3908:3931  stakingInfo[msg.sender] */\n      0xffffffffffffffffffffffffffffffffffffffff\n      and\n      0xffffffffffffffffffffffffffffffffffffffff\n      and\n      dup2\n      mstore\n      0x20\n      add\n      swap1\n      dup2\n      mstore\n      0x20\n      add\n      0x00\n      keccak256\n        /* \"staking_test.sol\":3908:3939  stakingInfo[msg.sender].rewards */\n      0x02\n      add\n      sload\n        /* \"staking_test.sol\":3895:3905  tokenPrice */\n      sload(0x06)\n        /* \"staking_test.sol\":3882:3892  _numTokens */\n      dup4\n        /* \"staking_test.sol\":3882:3905  _numTokens * tokenPrice */\n      tag_241\n      swap2\n      swap1\n      tag_203\n      jump\t// in\n    tag_241:\n        /* \"staking_test.sol\":3882:3939  _numTokens * tokenPrice + stakingInfo[msg.sender].rewards */\n      tag_242\n      swap2\n      swap1\n      tag_227\n      jump\t// in\n    tag_242:\n        /* \"staking_test.sol\":3859:3939  uint256 refundAmount = _numTokens * tokenPrice + stakingInfo[msg.sender].rewards */\n      swap1\n      pop\n        /* \"staking_test.sol\":3985:3996  stakingInfo */\n      0x08\n        /* \"staking_test.sol\":3985:4008  stakingInfo[msg.sender] */\n      0x00\n        /* \"staking_test.sol\":3997:4007  msg.sender */\n      caller\n        /* \"staking_test.sol\":3985:4008  stakingInfo[msg.sender] */\n      0xffffffffffffffffffffffffffffffffffffffff\n      and\n      0xffffffffffffffffffffffffffffffffffffffff\n      and\n      dup2\n      mstore\n      0x20\n      add\n      swap1\n      dup2\n      mstore\n      0x20\n      add\n      0x00\n      keccak256\n        /* \"staking_test.sol\":3985:4016  stakingInfo[msg.sender].rewards */\n      0x02\n      add\n      sload\n        /* \"staking_test.sol\":3950:3961  stakingInfo */\n      0x08\n        /* \"staking_test.sol\":3950:3973  stakingInfo[msg.sender] */\n      0x00\n        /* \"staking_test.sol\":3962:3972  msg.sender */\n      caller\n        /* \"staking_test.sol\":3950:3973  stakingInfo[msg.sender] */\n      0xffffffffffffffffffffffffffffffffffffffff\n      and\n      0xffffffffffffffffffffffffffffffffffffffff\n      and\n      dup2\n      mstore\n      0x20\n      add\n      swap1\n      dup2\n      mstore\n      0x20\n      add\n      0x00\n      keccak256\n        /* \"staking_test.sol\":3950:3981  stakingInfo[msg.sender].rewards */\n      0x02\n      add\n      0x00\n        /* \"staking_test.sol\":3950:4016  stakingInfo[msg.sender].rewards -= stakingInfo[msg.sender].rewards */\n      dup3\n      dup3\n      sload\n      tag_243\n      swap2\n      swap1\n      tag_176\n      jump\t// in\n    tag_243:\n      swap3\n      pop\n      pop\n      dup2\n      swap1\n      sstore\n      pop\n        /* \"staking_test.sol\":4027:4056  _burn(msg.sender, _numTokens) */\n      tag_244\n        /* \"staking_test.sol\":4033:4043  msg.sender */\n      caller\n        /* \"staking_test.sol\":4045:4055  _numTokens */\n      dup4\n        /* \"staking_test.sol\":4027:4032  _burn */\n      tag_231\n        /* \"staking_test.sol\":4027:4056  _burn(msg.sender, _numTokens) */\n      jump\t// in\n    tag_244:\n        /* \"staking_test.sol\":4075:4085  msg.sender */\n      caller\n        /* \"staking_test.sol\":4067:4095  payable(msg.sender).transfer */\n      0xffffffffffffffffffffffffffffffffffffffff\n      and\n        /* \"staking_test.sol\":4067:4109  payable(msg.sender).transfer(refundAmount) */\n      0x08fc\n        /* \"staking_test.sol\":4096:4108  refundAmount */\n      dup3\n        /* \"staking_test.sol\":4067:4109  payable(msg.sender).transfer(refundAmount) */\n      swap1\n      dup2\n      iszero\n      mul\n      swap1\n      mload(0x40)\n      0x00\n      mload(0x40)\n      dup1\n      dup4\n      sub\n      dup2\n      dup6\n      dup9\n      dup9\n      call\n      swap4\n      pop\n      pop\n      pop\n      pop\n      iszero\n      dup1\n      iszero\n      tag_246\n      jumpi\n      returndatasize\n      0x00\n      dup1\n      returndatacopy\n      revert(0x00, returndatasize)\n    tag_246:\n      pop\n        /* \"staking_test.sol\":3770:4117  { ... */\n      pop\n        /* \"staking_test.sol\":3721:4117  function sellTokens(uint256 _numTokens) external { ... */\n      pop\n      jump\t// out\n        /* \"@openzeppelin/contracts/token/ERC20/ERC20.sol\":3419:3544  function balanceOf(address account) public view virtual override returns (uint256) {... */\n    tag_91:\n        /* \"@openzeppelin/contracts/token/ERC20/ERC20.sol\":3493:3500  uint256 */\n      0x00\n        /* \"@openzeppelin/contracts/token/ERC20/ERC20.sol\":3519:3528  _balances */\n      dup1\n        /* \"@openzeppelin/contracts/token/ERC20/ERC20.sol\":3519:3537  _balances[account] */\n      0x00\n        /* \"@openzeppelin/contracts/token/ERC20/ERC20.sol\":3529:3536  account */\n      dup4\n        /* \"@openzeppelin/contracts/token/ERC20/ERC20.sol\":3519:3537  _balances[account] */\n      0xffffffffffffffffffffffffffffffffffffffff\n      and\n      0xffffffffffffffffffffffffffffffffffffffff\n      and\n      dup2\n      mstore\n      0x20\n      add\n      swap1\n      dup2\n      mstore\n      0x20\n      add\n      0x00\n      keccak256\n      sload\n        /* \"@openzeppelin/contracts/token/ERC20/ERC20.sol\":3512:3537  return _balances[account] */\n      swap1\n      pop\n        /* \"@openzeppelin/contracts/token/ERC20/ERC20.sol\":3419:3544  function balanceOf(address account) public view virtual override returns (uint256) {... */\n      swap2\n      swap1\n      pop\n      jump\t// out\n        /* \"@openzeppelin/contracts/access/Ownable.sol\":1824:1925  function renounceOwnership() public virtual onlyOwner {... */\n    tag_95:\n        /* \"@openzeppelin/contracts/access/Ownable.sol\":1094:1107  _checkOwner() */\n      tag_249\n        /* \"@openzeppelin/contracts/access/Ownable.sol\":1094:1105  _checkOwner */\n      tag_234\n        /* \"@openzeppelin/contracts/access/Ownable.sol\":1094:1107  _checkOwner() */\n      jump\t// in\n    tag_249:\n        /* \"@openzeppelin/contracts/access/Ownable.sol\":1888:1918  _transferOwnership(address(0)) */\n      tag_251\n        /* \"@openzeppelin/contracts/access/Ownable.sol\":1915:1916  0 */\n      0x00\n        /* \"@openzeppelin/contracts/access/Ownable.sol\":1888:1906  _transferOwnership */\n      tag_252\n        /* \"@openzeppelin/contracts/access/Ownable.sol\":1888:1918  _transferOwnership(address(0)) */\n      jump\t// in\n    tag_251:\n        /* \"@openzeppelin/contracts/access/Ownable.sol\":1824:1925  function renounceOwnership() public virtual onlyOwner {... */\n      jump\t// out\n        /* \"@openzeppelin/contracts/token/ERC20/extensions/ERC20Burnable.sol\":973:1134  function burnFrom(address account, uint256 amount) public virtual {... */\n    tag_99:\n        /* \"@openzeppelin/contracts/token/ERC20/extensions/ERC20Burnable.sol\":1049:1095  _spendAllowance(account, _msgSender(), amount) */\n      tag_254\n        /* \"@openzeppelin/contracts/token/ERC20/extensions/ERC20Burnable.sol\":1065:1072  account */\n      dup3\n        /* \"@openzeppelin/contracts/token/ERC20/extensions/ERC20Burnable.sol\":1074:1086  _msgSender() */\n      tag_255\n        /* \"@openzeppelin/contracts/token/ERC20/extensions/ERC20Burnable.sol\":1074:1084  _msgSender */\n      tag_156\n        /* \"@openzeppelin/contracts/token/ERC20/extensions/ERC20Burnable.sol\":1074:1086  _msgSender() */\n      jump\t// in\n    tag_255:\n        /* \"@openzeppelin/contracts/token/ERC20/extensions/ERC20Burnable.sol\":1088:1094  amount */\n      dup4\n        /* \"@openzeppelin/contracts/token/ERC20/extensions/ERC20Burnable.sol\":1049:1064  _spendAllowance */\n      tag_163\n        /* \"@openzeppelin/contracts/token/ERC20/extensions/ERC20Burnable.sol\":1049:1095  _spendAllowance(account, _msgSender(), amount) */\n      jump\t// in\n    tag_254:\n        /* \"@openzeppelin/contracts/token/ERC20/extensions/ERC20Burnable.sol\":1105:1127  _burn(account, amount) */\n      tag_256\n        /* \"@openzeppelin/contracts/token/ERC20/extensions/ERC20Burnable.sol\":1111:1118  account */\n      dup3\n        /* \"@openzeppelin/contracts/token/ERC20/extensions/ERC20Burnable.sol\":1120:1126  amount */\n      dup3\n        /* \"@openzeppelin/contracts/token/ERC20/extensions/ERC20Burnable.sol\":1105:1110  _burn */\n      tag_231\n        /* \"@openzeppelin/contracts/token/ERC20/extensions/ERC20Burnable.sol\":1105:1127  _burn(account, amount) */\n      jump\t// in\n    tag_256:\n        /* \"@openzeppelin/contracts/token/ERC20/extensions/ERC20Burnable.sol\":973:1134  function burnFrom(address account, uint256 amount) public virtual {... */\n      pop\n      pop\n      jump\t// out\n        /* \"staking_test.sol\":304:329  uint256 public tokenPrice */\n    tag_102:\n      sload(0x06)\n      dup2\n      jump\t// out\n        /* \"@openzeppelin/contracts/access/Ownable.sol\":1201:1286  function owner() public view virtual returns (address) {... */\n    tag_106:\n        /* \"@openzeppelin/contracts/access/Ownable.sol\":1247:1254  address */\n      0x00\n        /* \"@openzeppelin/contracts/access/Ownable.sol\":1273:1279  _owner */\n      0x05\n      0x00\n      swap1\n      sload\n      swap1\n      0x0100\n      exp\n      swap1\n      div\n      0xffffffffffffffffffffffffffffffffffffffff\n      and\n        /* \"@openzeppelin/contracts/access/Ownable.sol\":1266:1279  return _owner */\n      swap1\n      pop\n        /* \"@openzeppelin/contracts/access/Ownable.sol\":1201:1286  function owner() public view virtual returns (address) {... */\n      swap1\n      jump\t// out\n        /* \"staking_test.sol\":552:602  mapping(address => StakingInfo) public stakingInfo */\n    tag_112:\n      mstore(0x20, 0x08)\n      dup1\n      0x00\n      mstore\n      keccak256(0x00, 0x40)\n      0x00\n      swap2\n      pop\n      swap1\n      pop\n      dup1\n      0x00\n      add\n      sload\n      swap1\n      dup1\n      0x01\n      add\n      sload\n      swap1\n      dup1\n      0x02\n      add\n      sload\n      swap1\n      pop\n      dup4\n      jump\t// out\n        /* \"@openzeppelin/contracts/token/ERC20/ERC20.sol\":2369:2471  function symbol() public view virtual override returns (string memory) {... */\n    tag_117:\n        /* \"@openzeppelin/contracts/token/ERC20/ERC20.sol\":2425:2438  string memory */\n      0x60\n        /* \"@openzeppelin/contracts/token/ERC20/ERC20.sol\":2457:2464  _symbol */\n      0x04\n        /* \"@openzeppelin/contracts/token/ERC20/ERC20.sol\":2450:2464  return _symbol */\n      dup1\n      sload\n      tag_259\n      swap1\n      tag_149\n      jump\t// in\n    tag_259:\n      dup1\n      0x1f\n      add\n      0x20\n      dup1\n      swap2\n      div\n      mul\n      0x20\n      add\n      mload(0x40)\n      swap1\n      dup2\n      add\n      0x40\n      mstore\n      dup1\n      swap3\n      swap2\n      swap1\n      dup2\n      dup2\n      mstore\n      0x20\n      add\n      dup3\n      dup1\n      sload\n      tag_260\n      swap1\n      tag_149\n      jump\t// in\n    tag_260:\n      dup1\n      iszero\n      tag_261\n      jumpi\n      dup1\n      0x1f\n      lt\n      tag_262\n      jumpi\n      0x0100\n      dup1\n      dup4\n      sload\n      div\n      mul\n      dup4\n      mstore\n      swap2\n      0x20\n      add\n      swap2\n      jump(tag_261)\n    tag_262:\n      dup3\n      add\n      swap2\n      swap1\n      0x00\n      mstore\n      keccak256(0x00, 0x20)\n      swap1\n    tag_263:\n      dup2\n      sload\n      dup2\n      mstore\n      swap1\n      0x01\n      add\n      swap1\n      0x20\n      add\n      dup1\n      dup4\n      gt\n      tag_263\n      jumpi\n      dup3\n      swap1\n      sub\n      0x1f\n      and\n      dup3\n      add\n      swap2\n    tag_261:\n      pop\n      pop\n      pop\n      pop\n      pop\n      swap1\n      pop\n        /* \"@openzeppelin/contracts/token/ERC20/ERC20.sol\":2369:2471  function symbol() public view virtual override returns (string memory) {... */\n      swap1\n      jump\t// out\n        /* \"@openzeppelin/contracts/token/ERC20/ERC20.sol\":6575:7002  function decreaseAllowance(address spender, uint256 subtractedValue) public virtual returns (bool) {... */\n    tag_122:\n        /* \"@openzeppelin/contracts/token/ERC20/ERC20.sol\":6668:6672  bool */\n      0x00\n        /* \"@openzeppelin/contracts/token/ERC20/ERC20.sol\":6684:6697  address owner */\n      dup1\n        /* \"@openzeppelin/contracts/token/ERC20/ERC20.sol\":6700:6712  _msgSender() */\n      tag_265\n        /* \"@openzeppelin/contracts/token/ERC20/ERC20.sol\":6700:6710  _msgSender */\n      tag_156\n        /* \"@openzeppelin/contracts/token/ERC20/ERC20.sol\":6700:6712  _msgSender() */\n      jump\t// in\n    tag_265:\n        /* \"@openzeppelin/contracts/token/ERC20/ERC20.sol\":6684:6712  address owner = _msgSender() */\n      swap1\n      pop\n        /* \"@openzeppelin/contracts/token/ERC20/ERC20.sol\":6722:6746  uint256 currentAllowance */\n      0x00\n        /* \"@openzeppelin/contracts/token/ERC20/ERC20.sol\":6749:6774  allowance(owner, spender) */\n      tag_266\n        /* \"@openzeppelin/contracts/token/ERC20/ERC20.sol\":6759:6764  owner */\n      dup3\n        /* \"@openzeppelin/contracts/token/ERC20/ERC20.sol\":6766:6773  spender */\n      dup7\n        /* \"@openzeppelin/contracts/token/ERC20/ERC20.sol\":6749:6758  allowance */\n      tag_141\n        /* \"@openzeppelin/contracts/token/ERC20/ERC20.sol\":6749:6774  allowance(owner, spender) */\n      jump\t// in\n    tag_266:\n        /* \"@openzeppelin/contracts/token/ERC20/ERC20.sol\":6722:6774  uint256 currentAllowance = allowance(owner, spender) */\n      swap1\n      pop\n        /* \"@openzeppelin/contracts/token/ERC20/ERC20.sol\":6812:6827  subtractedValue */\n      dup4\n        /* \"@openzeppelin/contracts/token/ERC20/ERC20.sol\":6792:6808  currentAllowance */\n      dup2\n        /* \"@openzeppelin/contracts/token/ERC20/ERC20.sol\":6792:6827  currentAllowance >= subtractedValue */\n      lt\n      iszero\n        /* \"@openzeppelin/contracts/token/ERC20/ERC20.sol\":6784:6869  require(currentAllowance >= subtractedValue, \"ERC20: decreased allowance below zero\") */\n      tag_267\n      jumpi\n      mload(0x40)\n      0x08c379a000000000000000000000000000000000000000000000000000000000\n      dup2\n      mstore\n      0x04\n      add\n      tag_268\n      swap1\n      tag_269\n      jump\t// in\n    tag_268:\n      mload(0x40)\n      dup1\n      swap2\n      sub\n      swap1\n      revert\n    tag_267:\n        /* \"@openzeppelin/contracts/token/ERC20/ERC20.sol\":6903:6963  _approve(owner, spender, currentAllowance - subtractedValue) */\n      tag_270\n        /* \"@openzeppelin/contracts/token/ERC20/ERC20.sol\":6912:6917  owner */\n      dup3\n        /* \"@openzeppelin/contracts/token/ERC20/ERC20.sol\":6919:6926  spender */\n      dup7\n        /* \"@openzeppelin/contracts/token/ERC20/ERC20.sol\":6947:6962  subtractedValue */\n      dup7\n        /* \"@openzeppelin/contracts/token/ERC20/ERC20.sol\":6928:6944  currentAllowance */\n      dup5\n        /* \"@openzeppelin/contracts/token/ERC20/ERC20.sol\":6928:6962  currentAllowance - subtractedValue */\n      sub\n        /* \"@openzeppelin/contracts/token/ERC20/ERC20.sol\":6903:6911  _approve */\n      tag_158\n        /* \"@openzeppelin/contracts/token/ERC20/ERC20.sol\":6903:6963  _approve(owner, spender, currentAllowance - subtractedValue) */\n      jump\t// in\n    tag_270:\n        /* \"@openzeppelin/contracts/token/ERC20/ERC20.sol\":6991:6995  true */\n      0x01\n        /* \"@openzeppelin/contracts/token/ERC20/ERC20.sol\":6984:6995  return true */\n      swap3\n      pop\n      pop\n      pop\n        /* \"@openzeppelin/contracts/token/ERC20/ERC20.sol\":6575:7002  function decreaseAllowance(address spender, uint256 subtractedValue) public virtual returns (bool) {... */\n      swap3\n      swap2\n      pop\n      pop\n      jump\t// out\n        /* \"staking_test.sol\":1560:2187  function stake(uint256 _numTokens) external { ... */\n    tag_127:\n        /* \"staking_test.sol\":1636:1637  0 */\n      0x00\n        /* \"staking_test.sol\":1623:1633  _numTokens */\n      dup2\n        /* \"staking_test.sol\":1623:1637  _numTokens > 0 */\n      gt\n        /* \"staking_test.sol\":1615:1674  require(_numTokens > 0, \"Must stake more than zero tokens\") */\n      tag_272\n      jumpi\n      mload(0x40)\n      0x08c379a000000000000000000000000000000000000000000000000000000000\n      dup2\n      mstore\n      0x04\n      add\n      tag_273\n      swap1\n      tag_274\n      jump\t// in\n    tag_273:\n      mload(0x40)\n      dup1\n      swap2\n      sub\n      swap1\n      revert\n    tag_272:\n        /* \"staking_test.sol\":1718:1728  _numTokens */\n      dup1\n        /* \"staking_test.sol\":1693:1714  balanceOf(msg.sender) */\n      tag_275\n        /* \"staking_test.sol\":1703:1713  msg.sender */\n      caller\n        /* \"staking_test.sol\":1693:1702  balanceOf */\n      tag_91\n        /* \"staking_test.sol\":1693:1714  balanceOf(msg.sender) */\n      jump\t// in\n    tag_275:\n        /* \"staking_test.sol\":1693:1728  balanceOf(msg.sender) >= _numTokens */\n      lt\n      iszero\n        /* \"staking_test.sol\":1685:1767  require(balanceOf(msg.sender) >= _numTokens, \"Not Enough Balance Tokens To Stake\") */\n      tag_276\n      jumpi\n      mload(0x40)\n      0x08c379a000000000000000000000000000000000000000000000000000000000\n      dup2\n      mstore\n      0x04\n      add\n      tag_277\n      swap1\n      tag_278\n      jump\t// in\n    tag_277:\n      mload(0x40)\n      dup1\n      swap2\n      sub\n      swap1\n      revert\n    tag_276:\n        /* \"staking_test.sol\":1788:1808  uint256 current_time */\n      0x00\n        /* \"staking_test.sol\":1811:1826  block.timestamp */\n      timestamp\n        /* \"staking_test.sol\":1788:1826  uint256 current_time = block.timestamp */\n      swap1\n      pop\n        /* \"staking_test.sol\":1881:1882  0 */\n      0x00\n        /* \"staking_test.sol\":1842:1853  stakingInfo */\n      0x08\n        /* \"staking_test.sol\":1842:1865  stakingInfo[msg.sender] */\n      0x00\n        /* \"staking_test.sol\":1854:1864  msg.sender */\n      caller\n        /* \"staking_test.sol\":1842:1865  stakingInfo[msg.sender] */\n      0xffffffffffffffffffffffffffffffffffffffff\n      and\n      0xffffffffffffffffffffffffffffffffffffffff\n      and\n      dup2\n      mstore\n      0x20\n      add\n      swap1\n      dup2\n      mstore\n      0x20\n      add\n      0x00\n      keccak256\n        /* \"staking_test.sol\":1842:1878  stakingInfo[msg.sender].stakedAmount */\n      0x00\n      add\n      sload\n        /* \"staking_test.sol\":1842:1882  stakingInfo[msg.sender].stakedAmount > 0 */\n      gt\n        /* \"staking_test.sol\":1838:1994  if (stakingInfo[msg.sender].stakedAmount > 0) { ... */\n      iszero\n      tag_279\n      jumpi\n        /* \"staking_test.sol\":1899:1923  UpdateReward(msg.sender) */\n      tag_280\n        /* \"staking_test.sol\":1912:1922  msg.sender */\n      caller\n        /* \"staking_test.sol\":1899:1911  UpdateReward */\n      tag_174\n        /* \"staking_test.sol\":1899:1923  UpdateReward(msg.sender) */\n      jump\t// in\n    tag_280:\n        /* \"staking_test.sol\":1838:1994  if (stakingInfo[msg.sender].stakedAmount > 0) { ... */\n      jump(tag_281)\n    tag_279:\n        /* \"staking_test.sol\":1961:1966  users */\n      0x09\n        /* \"staking_test.sol\":1972:1982  msg.sender */\n      caller\n        /* \"staking_test.sol\":1961:1983  users.push(msg.sender) */\n      swap1\n      dup1\n      0x01\n      dup2\n      sload\n      add\n      dup1\n      dup3\n      sstore\n      dup1\n      swap2\n      pop\n      pop\n      0x01\n      swap1\n      sub\n      swap1\n      0x00\n      mstore\n      keccak256(0x00, 0x20)\n      add\n      0x00\n      swap1\n      swap2\n      swap1\n      swap2\n      swap1\n      swap2\n      0x0100\n      exp\n      dup2\n      sload\n      dup2\n      0xffffffffffffffffffffffffffffffffffffffff\n      mul\n      not\n      and\n      swap1\n      dup4\n      0xffffffffffffffffffffffffffffffffffffffff\n      and\n      mul\n      or\n      swap1\n      sstore\n      pop\n        /* \"staking_test.sol\":1838:1994  if (stakingInfo[msg.sender].stakedAmount > 0) { ... */\n    tag_281:\n        /* \"staking_test.sol\":2006:2054  _transfer(msg.sender, address(this), _numTokens) */\n      tag_283\n        /* \"staking_test.sol\":2016:2026  msg.sender */\n      caller\n        /* \"staking_test.sol\":2036:2040  this */\n      address\n        /* \"staking_test.sol\":2043:2053  _numTokens */\n      dup5\n        /* \"staking_test.sol\":2006:2015  _transfer */\n      tag_165\n        /* \"staking_test.sol\":2006:2054  _transfer(msg.sender, address(this), _numTokens) */\n      jump\t// in\n    tag_283:\n        /* \"staking_test.sol\":2105:2115  _numTokens */\n      dup2\n        /* \"staking_test.sol\":2065:2076  stakingInfo */\n      0x08\n        /* \"staking_test.sol\":2065:2088  stakingInfo[msg.sender] */\n      0x00\n        /* \"staking_test.sol\":2077:2087  msg.sender */\n      caller\n        /* \"staking_test.sol\":2065:2088  stakingInfo[msg.sender] */\n      0xffffffffffffffffffffffffffffffffffffffff\n      and\n      0xffffffffffffffffffffffffffffffffffffffff\n      and\n      dup2\n      mstore\n      0x20\n      add\n      swap1\n      dup2\n      mstore\n      0x20\n      add\n      0x00\n      keccak256\n        /* \"staking_test.sol\":2065:2101  stakingInfo[msg.sender].stakedAmount */\n      0x00\n      add\n      0x00\n        /* \"staking_test.sol\":2065:2115  stakingInfo[msg.sender].stakedAmount += _numTokens */\n      dup3\n      dup3\n      sload\n      tag_284\n      swap2\n      swap1\n      tag_227\n      jump\t// in\n    tag_284:\n      swap3\n      pop\n      pop\n      dup2\n      swap1\n      sstore\n      pop\n        /* \"staking_test.sol\":2167:2179  current_time */\n      dup1\n        /* \"staking_test.sol\":2126:2137  stakingInfo */\n      0x08\n        /* \"staking_test.sol\":2126:2149  stakingInfo[msg.sender] */\n      0x00\n        /* \"staking_test.sol\":2138:2148  msg.sender */\n      caller\n        /* \"staking_test.sol\":2126:2149  stakingInfo[msg.sender] */\n      0xffffffffffffffffffffffffffffffffffffffff\n      and\n      0xffffffffffffffffffffffffffffffffffffffff\n      and\n      dup2\n      mstore\n      0x20\n      add\n      swap1\n      dup2\n      mstore\n      0x20\n      add\n      0x00\n      keccak256\n        /* \"staking_test.sol\":2126:2164  stakingInfo[msg.sender].lastStakedTime */\n      0x01\n      add\n        /* \"staking_test.sol\":2126:2179  stakingInfo[msg.sender].lastStakedTime = current_time */\n      dup2\n      swap1\n      sstore\n      pop\n        /* \"staking_test.sol\":1604:2187  { ... */\n      pop\n        /* \"staking_test.sol\":1560:2187  function stake(uint256 _numTokens) external { ... */\n      pop\n      jump\t// out\n        /* \"@openzeppelin/contracts/token/ERC20/ERC20.sol\":3740:3929  function transfer(address to, uint256 amount) public virtual override returns (bool) {... */\n    tag_131:\n        /* \"@openzeppelin/contracts/token/ERC20/ERC20.sol\":3819:3823  bool */\n      0x00\n        /* \"@openzeppelin/contracts/token/ERC20/ERC20.sol\":3835:3848  address owner */\n      dup1\n        /* \"@openzeppelin/contracts/token/ERC20/ERC20.sol\":3851:3863  _msgSender() */\n      tag_286\n        /* \"@openzeppelin/contracts/token/ERC20/ERC20.sol\":3851:3861  _msgSender */\n      tag_156\n        /* \"@openzeppelin/contracts/token/ERC20/ERC20.sol\":3851:3863  _msgSender() */\n      jump\t// in\n    tag_286:\n        /* \"@openzeppelin/contracts/token/ERC20/ERC20.sol\":3835:3863  address owner = _msgSender() */\n      swap1\n      pop\n        /* \"@openzeppelin/contracts/token/ERC20/ERC20.sol\":3873:3901  _transfer(owner, to, amount) */\n      tag_287\n        /* \"@openzeppelin/contracts/token/ERC20/ERC20.sol\":3883:3888  owner */\n      dup2\n        /* \"@openzeppelin/contracts/token/ERC20/ERC20.sol\":3890:3892  to */\n      dup6\n        /* \"@openzeppelin/contracts/token/ERC20/ERC20.sol\":3894:3900  amount */\n      dup6\n        /* \"@openzeppelin/contracts/token/ERC20/ERC20.sol\":3873:3882  _transfer */\n      tag_165\n        /* \"@openzeppelin/contracts/token/ERC20/ERC20.sol\":3873:3901  _transfer(owner, to, amount) */\n      jump\t// in\n    tag_287:\n        /* \"@openzeppelin/contracts/token/ERC20/ERC20.sol\":3918:3922  true */\n      0x01\n        /* \"@openzeppelin/contracts/token/ERC20/ERC20.sol\":3911:3922  return true */\n      swap2\n      pop\n      pop\n        /* \"@openzeppelin/contracts/token/ERC20/ERC20.sol\":3740:3929  function transfer(address to, uint256 amount) public virtual override returns (bool) {... */\n      swap3\n      swap2\n      pop\n      pop\n      jump\t// out\n        /* \"staking_test.sol\":336:365  uint256 public interest = 100 */\n    tag_135:\n      sload(0x07)\n      dup2\n      jump\t// out\n        /* \"@openzeppelin/contracts/token/ERC20/ERC20.sol\":3987:4136  function allowance(address owner, address spender) public view virtual override returns (uint256) {... */\n    tag_141:\n        /* \"@openzeppelin/contracts/token/ERC20/ERC20.sol\":4076:4083  uint256 */\n      0x00\n        /* \"@openzeppelin/contracts/token/ERC20/ERC20.sol\":4102:4113  _allowances */\n      0x01\n        /* \"@openzeppelin/contracts/token/ERC20/ERC20.sol\":4102:4120  _allowances[owner] */\n      0x00\n        /* \"@openzeppelin/contracts/token/ERC20/ERC20.sol\":4114:4119  owner */\n      dup5\n        /* \"@openzeppelin/contracts/token/ERC20/ERC20.sol\":4102:4120  _allowances[owner] */\n      0xffffffffffffffffffffffffffffffffffffffff\n      and\n      0xffffffffffffffffffffffffffffffffffffffff\n      and\n      dup2\n      mstore\n      0x20\n      add\n      swap1\n      dup2\n      mstore\n      0x20\n      add\n      0x00\n      keccak256\n        /* \"@openzeppelin/contracts/token/ERC20/ERC20.sol\":4102:4129  _allowances[owner][spender] */\n      0x00\n        /* \"@openzeppelin/contracts/token/ERC20/ERC20.sol\":4121:4128  spender */\n      dup4\n        /* \"@openzeppelin/contracts/token/ERC20/ERC20.sol\":4102:4129  _allowances[owner][spender] */\n      0xffffffffffffffffffffffffffffffffffffffff\n      and\n      0xffffffffffffffffffffffffffffffffffffffff\n      and\n      dup2\n      mstore\n      0x20\n      add\n      swap1\n      dup2\n      mstore\n      0x20\n      add\n      0x00\n      keccak256\n      sload\n        /* \"@openzeppelin/contracts/token/ERC20/ERC20.sol\":4095:4129  return _allowances[owner][spender] */\n      swap1\n      pop\n        /* \"@openzeppelin/contracts/token/ERC20/ERC20.sol\":3987:4136  function allowance(address owner, address spender) public view virtual override returns (uint256) {... */\n      swap3\n      swap2\n      pop\n      pop\n      jump\t// out\n        /* \"@openzeppelin/contracts/access/Ownable.sol\":2074:2272  function transferOwnership(address newOwner) public virtual onlyOwner {... */\n    tag_146:\n        /* \"@openzeppelin/contracts/access/Ownable.sol\":1094:1107  _checkOwner() */\n      tag_290\n        /* \"@openzeppelin/contracts/access/Ownable.sol\":1094:1105  _checkOwner */\n      tag_234\n        /* \"@openzeppelin/contracts/access/Ownable.sol\":1094:1107  _checkOwner() */\n      jump\t// in\n    tag_290:\n        /* \"@openzeppelin/contracts/access/Ownable.sol\":2182:2183  0 */\n      0x00\n        /* \"@openzeppelin/contracts/access/Ownable.sol\":2162:2184  newOwner != address(0) */\n      0xffffffffffffffffffffffffffffffffffffffff\n      and\n        /* \"@openzeppelin/contracts/access/Ownable.sol\":2162:2170  newOwner */\n      dup2\n        /* \"@openzeppelin/contracts/access/Ownable.sol\":2162:2184  newOwner != address(0) */\n      0xffffffffffffffffffffffffffffffffffffffff\n      and\n      sub\n        /* \"@openzeppelin/contracts/access/Ownable.sol\":2154:2227  require(newOwner != address(0), \"Ownable: new owner is the zero address\") */\n      tag_292\n      jumpi\n      mload(0x40)\n      0x08c379a000000000000000000000000000000000000000000000000000000000\n      dup2\n      mstore\n      0x04\n      add\n      tag_293\n      swap1\n      tag_294\n      jump\t// in\n    tag_293:\n      mload(0x40)\n      dup1\n      swap2\n      sub\n      swap1\n      revert\n    tag_292:\n        /* \"@openzeppelin/contracts/access/Ownable.sol\":2237:2265  _transferOwnership(newOwner) */\n      tag_295\n        /* \"@openzeppelin/contracts/access/Ownable.sol\":2256:2264  newOwner */\n      dup2\n        /* \"@openzeppelin/contracts/access/Ownable.sol\":2237:2255  _transferOwnership */\n      tag_252\n        /* \"@openzeppelin/contracts/access/Ownable.sol\":2237:2265  _transferOwnership(newOwner) */\n      jump\t// in\n    tag_295:\n        /* \"@openzeppelin/contracts/access/Ownable.sol\":2074:2272  function transferOwnership(address newOwner) public virtual onlyOwner {... */\n      pop\n      jump\t// out\n        /* \"@openzeppelin/contracts/utils/Context.sol\":640:736  function _msgSender() internal view virtual returns (address) {... */\n    tag_156:\n        /* \"@openzeppelin/contracts/utils/Context.sol\":693:700  address */\n      0x00\n        /* \"@openzeppelin/contracts/utils/Context.sol\":719:729  msg.sender */\n      caller\n        /* \"@openzeppelin/contracts/utils/Context.sol\":712:729  return msg.sender */\n      swap1\n      pop\n        /* \"@openzeppelin/contracts/utils/Context.sol\":640:736  function _msgSender() internal view virtual returns (address) {... */\n      swap1\n      jump\t// out\n        /* \"@openzeppelin/contracts/token/ERC20/ERC20.sol\":10457:10797  function _approve(address owner, address spender, uint256 amount) internal virtual {... */\n    tag_158:\n        /* \"@openzeppelin/contracts/token/ERC20/ERC20.sol\":10575:10576  0 */\n      0x00\n        /* \"@openzeppelin/contracts/token/ERC20/ERC20.sol\":10558:10577  owner != address(0) */\n      0xffffffffffffffffffffffffffffffffffffffff\n      and\n        /* \"@openzeppelin/contracts/token/ERC20/ERC20.sol\":10558:10563  owner */\n      dup4\n        /* \"@openzeppelin/contracts/token/ERC20/ERC20.sol\":10558:10577  owner != address(0) */\n      0xffffffffffffffffffffffffffffffffffffffff\n      and\n      sub\n        /* \"@openzeppelin/contracts/token/ERC20/ERC20.sol\":10550:10618  require(owner != address(0), \"ERC20: approve from the zero address\") */\n      tag_298\n      jumpi\n      mload(0x40)\n      0x08c379a000000000000000000000000000000000000000000000000000000000\n      dup2\n      mstore\n      0x04\n      add\n      tag_299\n      swap1\n      tag_300\n      jump\t// in\n    tag_299:\n      mload(0x40)\n      dup1\n      swap2\n      sub\n      swap1\n      revert\n    tag_298:\n        /* \"@openzeppelin/contracts/token/ERC20/ERC20.sol\":10655:10656  0 */\n      0x00\n        /* \"@openzeppelin/contracts/token/ERC20/ERC20.sol\":10636:10657  spender != address(0) */\n      0xffffffffffffffffffffffffffffffffffffffff\n      and\n        /* \"@openzeppelin/contracts/token/ERC20/ERC20.sol\":10636:10643  spender */\n      dup3\n        /* \"@openzeppelin/contracts/token/ERC20/ERC20.sol\":10636:10657  spender != address(0) */\n      0xffffffffffffffffffffffffffffffffffffffff\n      and\n      sub\n        /* \"@openzeppelin/contracts/token/ERC20/ERC20.sol\":10628:10696  require(spender != address(0), \"ERC20: approve to the zero address\") */\n      tag_301\n      jumpi\n      mload(0x40)\n      0x08c379a000000000000000000000000000000000000000000000000000000000\n      dup2\n      mstore\n      0x04\n      add\n      tag_302\n      swap1\n      tag_303\n      jump\t// in\n    tag_302:\n      mload(0x40)\n      dup1\n      swap2\n      sub\n      swap1\n      revert\n    tag_301:\n        /* \"@openzeppelin/contracts/token/ERC20/ERC20.sol\":10737:10743  amount */\n      dup1\n        /* \"@openzeppelin/contracts/token/ERC20/ERC20.sol\":10707:10718  _allowances */\n      0x01\n        /* \"@openzeppelin/contracts/token/ERC20/ERC20.sol\":10707:10725  _allowances[owner] */\n      0x00\n        /* \"@openzeppelin/contracts/token/ERC20/ERC20.sol\":10719:10724  owner */\n      dup6\n        /* \"@openzeppelin/contracts/token/ERC20/ERC20.sol\":10707:10725  _allowances[owner] */\n      0xffffffffffffffffffffffffffffffffffffffff\n      and\n      0xffffffffffffffffffffffffffffffffffffffff\n      and\n      dup2\n      mstore\n      0x20\n      add\n      swap1\n      dup2\n      mstore\n      0x20\n      add\n      0x00\n      keccak256\n        /* \"@openzeppelin/contracts/token/ERC20/ERC20.sol\":10707:10734  _allowances[owner][spender] */\n      0x00\n        /* \"@openzeppelin/contracts/token/ERC20/ERC20.sol\":10726:10733  spender */\n      dup5\n        /* \"@openzeppelin/contracts/token/ERC20/ERC20.sol\":10707:10734  _allowances[owner][spender] */\n      0xffffffffffffffffffffffffffffffffffffffff\n      and\n      0xffffffffffffffffffffffffffffffffffffffff\n      and\n      dup2\n      mstore\n      0x20\n      add\n      swap1\n      dup2\n      mstore\n      0x20\n      add\n      0x00\n      keccak256\n        /* \"@openzeppelin/contracts/token/ERC20/ERC20.sol\":10707:10743  _allowances[owner][spender] = amount */\n      dup2\n      swap1\n      sstore\n      pop\n        /* \"@openzeppelin/contracts/token/ERC20/ERC20.sol\":10774:10781  spender */\n      dup2\n        /* \"@openzeppelin/contracts/token/ERC20/ERC20.sol\":10758:10790  Approval(owner, spender, amount) */\n      0xffffffffffffffffffffffffffffffffffffffff\n      and\n        /* \"@openzeppelin/contracts/token/ERC20/ERC20.sol\":10767:10772  owner */\n      dup4\n        /* \"@openzeppelin/contracts/token/ERC20/ERC20.sol\":10758:10790  Approval(owner, spender, amount) */\n      0xffffffffffffffffffffffffffffffffffffffff\n      and\n      0x8c5be1e5ebec7d5bd14f71427d1e84f3dd0314c0f7b2291e5b200ac8c7c3b925\n        /* \"@openzeppelin/contracts/token/ERC20/ERC20.sol\":10783:10789  amount */\n      dup4\n        /* \"@openzeppelin/contracts/token/ERC20/ERC20.sol\":10758:10790  Approval(owner, spender, amount) */\n      mload(0x40)\n      tag_304\n      swap2\n      swap1\n      tag_47\n      jump\t// in\n    tag_304:\n      mload(0x40)\n      dup1\n      swap2\n      sub\n      swap1\n      log3\n        /* \"@openzeppelin/contracts/token/ERC20/ERC20.sol\":10457:10797  function _approve(address owner, address spender, uint256 amount) internal virtual {... */\n      pop\n      pop\n      pop\n      jump\t// out\n        /* \"@openzeppelin/contracts/token/ERC20/ERC20.sol\":11078:11489  function _spendAllowance(address owner, address spender, uint256 amount) internal virtual {... */\n    tag_163:\n        /* \"@openzeppelin/contracts/token/ERC20/ERC20.sol\":11178:11202  uint256 currentAllowance */\n      0x00\n        /* \"@openzeppelin/contracts/token/ERC20/ERC20.sol\":11205:11230  allowance(owner, spender) */\n      tag_306\n        /* \"@openzeppelin/contracts/token/ERC20/ERC20.sol\":11215:11220  owner */\n      dup5\n        /* \"@openzeppelin/contracts/token/ERC20/ERC20.sol\":11222:11229  spender */\n      dup5\n        /* \"@openzeppelin/contracts/token/ERC20/ERC20.sol\":11205:11214  allowance */\n      tag_141\n        /* \"@openzeppelin/contracts/token/ERC20/ERC20.sol\":11205:11230  allowance(owner, spender) */\n      jump\t// in\n    tag_306:\n        /* \"@openzeppelin/contracts/token/ERC20/ERC20.sol\":11178:11230  uint256 currentAllowance = allowance(owner, spender) */\n      swap1\n      pop\n        /* \"@openzeppelin/contracts/token/ERC20/ERC20.sol\":11264:11281  type(uint256).max */\n      0xffffffffffffffffffffffffffffffffffffffffffffffffffffffffffffffff\n        /* \"@openzeppelin/contracts/token/ERC20/ERC20.sol\":11244:11260  currentAllowance */\n      dup2\n        /* \"@openzeppelin/contracts/token/ERC20/ERC20.sol\":11244:11281  currentAllowance != type(uint256).max */\n      eq\n        /* \"@openzeppelin/contracts/token/ERC20/ERC20.sol\":11240:11483  if (currentAllowance != type(uint256).max) {... */\n      tag_307\n      jumpi\n        /* \"@openzeppelin/contracts/token/ERC20/ERC20.sol\":11325:11331  amount */\n      dup2\n        /* \"@openzeppelin/contracts/token/ERC20/ERC20.sol\":11305:11321  currentAllowance */\n      dup2\n        /* \"@openzeppelin/contracts/token/ERC20/ERC20.sol\":11305:11331  currentAllowance >= amount */\n      lt\n      iszero\n        /* \"@openzeppelin/contracts/token/ERC20/ERC20.sol\":11297:11365  require(currentAllowance >= amount, \"ERC20: insufficient allowance\") */\n      tag_308\n      jumpi\n      mload(0x40)\n      0x08c379a000000000000000000000000000000000000000000000000000000000\n      dup2\n      mstore\n      0x04\n      add\n      tag_309\n      swap1\n      tag_310\n      jump\t// in\n    tag_309:\n      mload(0x40)\n      dup1\n      swap2\n      sub\n      swap1\n      revert\n    tag_308:\n        /* \"@openzeppelin/contracts/token/ERC20/ERC20.sol\":11407:11458  _approve(owner, spender, currentAllowance - amount) */\n      tag_311\n        /* \"@openzeppelin/contracts/token/ERC20/ERC20.sol\":11416:11421  owner */\n      dup5\n        /* \"@openzeppelin/contracts/token/ERC20/ERC20.sol\":11423:11430  spender */\n      dup5\n        /* \"@openzeppelin/contracts/token/ERC20/ERC20.sol\":11451:11457  amount */\n      dup5\n        /* \"@openzeppelin/contracts/token/ERC20/ERC20.sol\":11432:11448  currentAllowance */\n      dup5\n        /* \"@openzeppelin/contracts/token/ERC20/ERC20.sol\":11432:11457  currentAllowance - amount */\n      sub\n        /* \"@openzeppelin/contracts/token/ERC20/ERC20.sol\":11407:11415  _approve */\n      tag_158\n        /* \"@openzeppelin/contracts/token/ERC20/ERC20.sol\":11407:11458  _approve(owner, spender, currentAllowance - amount) */\n      jump\t// in\n    tag_311:\n        /* \"@openzeppelin/contracts/token/ERC20/ERC20.sol\":11240:11483  if (currentAllowance != type(uint256).max) {... */\n    tag_307:\n        /* \"@openzeppelin/contracts/token/ERC20/ERC20.sol\":11168:11489  {... */\n      pop\n        /* \"@openzeppelin/contracts/token/ERC20/ERC20.sol\":11078:11489  function _spendAllowance(address owner, address spender, uint256 amount) internal virtual {... */\n      pop\n      pop\n      pop\n      jump\t// out\n        /* \"@openzeppelin/contracts/token/ERC20/ERC20.sol\":7456:8244  function _transfer(address from, address to, uint256 amount) internal virtual {... */\n    tag_165:\n        /* \"@openzeppelin/contracts/token/ERC20/ERC20.sol\":7568:7569  0 */\n      0x00\n        /* \"@openzeppelin/contracts/token/ERC20/ERC20.sol\":7552:7570  from != address(0) */\n      0xffffffffffffffffffffffffffffffffffffffff\n      and\n        /* \"@openzeppelin/contracts/token/ERC20/ERC20.sol\":7552:7556  from */\n      dup4\n        /* \"@openzeppelin/contracts/token/ERC20/ERC20.sol\":7552:7570  from != address(0) */\n      0xffffffffffffffffffffffffffffffffffffffff\n      and\n      sub\n        /* \"@openzeppelin/contracts/token/ERC20/ERC20.sol\":7544:7612  require(from != address(0), \"ERC20: transfer from the zero address\") */\n      tag_313\n      jumpi\n      mload(0x40)\n      0x08c379a000000000000000000000000000000000000000000000000000000000\n      dup2\n      mstore\n      0x04\n      add\n      tag_314\n      swap1\n      tag_315\n      jump\t// in\n    tag_314:\n      mload(0x40)\n      dup1\n      swap2\n      sub\n      swap1\n      revert\n    tag_313:\n        /* \"@openzeppelin/contracts/token/ERC20/ERC20.sol\":7644:7645  0 */\n      0x00\n        /* \"@openzeppelin/contracts/token/ERC20/ERC20.sol\":7630:7646  to != address(0) */\n      0xffffffffffffffffffffffffffffffffffffffff\n      and\n        /* \"@openzeppelin/contracts/token/ERC20/ERC20.sol\":7630:7632  to */\n      dup3\n        /* \"@openzeppelin/contracts/token/ERC20/ERC20.sol\":7630:7646  to != address(0) */\n      0xffffffffffffffffffffffffffffffffffffffff\n      and\n      sub\n        /* \"@openzeppelin/contracts/token/ERC20/ERC20.sol\":7622:7686  require(to != address(0), \"ERC20: transfer to the zero address\") */\n      tag_316\n      jumpi\n      mload(0x40)\n      0x08c379a000000000000000000000000000000000000000000000000000000000\n      dup2\n      mstore\n      0x04\n      add\n      tag_317\n      swap1\n      tag_318\n      jump\t// in\n    tag_317:\n      mload(0x40)\n      dup1\n      swap2\n      sub\n      swap1\n      revert\n    tag_316:\n        /* \"@openzeppelin/contracts/token/ERC20/ERC20.sol\":7697:7735  _beforeTokenTransfer(from, to, amount) */\n      tag_319\n        /* \"@openzeppelin/contracts/token/ERC20/ERC20.sol\":7718:7722  from */\n      dup4\n        /* \"@openzeppelin/contracts/token/ERC20/ERC20.sol\":7724:7726  to */\n      dup4\n        /* \"@openzeppelin/contracts/token/ERC20/ERC20.sol\":7728:7734  amount */\n      dup4\n        /* \"@openzeppelin/contracts/token/ERC20/ERC20.sol\":7697:7717  _beforeTokenTransfer */\n      tag_320\n        /* \"@openzeppelin/contracts/token/ERC20/ERC20.sol\":7697:7735  _beforeTokenTransfer(from, to, amount) */\n      jump\t// in\n    tag_319:\n        /* \"@openzeppelin/contracts/token/ERC20/ERC20.sol\":7746:7765  uint256 fromBalance */\n      0x00\n        /* \"@openzeppelin/contracts/token/ERC20/ERC20.sol\":7768:7777  _balances */\n      dup1\n        /* \"@openzeppelin/contracts/token/ERC20/ERC20.sol\":7768:7783  _balances[from] */\n      0x00\n        /* \"@openzeppelin/contracts/token/ERC20/ERC20.sol\":7778:7782  from */\n      dup6\n        /* \"@openzeppelin/contracts/token/ERC20/ERC20.sol\":7768:7783  _balances[from] */\n      0xffffffffffffffffffffffffffffffffffffffff\n      and\n      0xffffffffffffffffffffffffffffffffffffffff\n      and\n      dup2\n      mstore\n      0x20\n      add\n      swap1\n      dup2\n      mstore\n      0x20\n      add\n      0x00\n      keccak256\n      sload\n        /* \"@openzeppelin/contracts/token/ERC20/ERC20.sol\":7746:7783  uint256 fromBalance = _balances[from] */\n      swap1\n      pop\n        /* \"@openzeppelin/contracts/token/ERC20/ERC20.sol\":7816:7822  amount */\n      dup2\n        /* \"@openzeppelin/contracts/token/ERC20/ERC20.sol\":7801:7812  fromBalance */\n      dup2\n        /* \"@openzeppelin/contracts/token/ERC20/ERC20.sol\":7801:7822  fromBalance >= amount */\n      lt\n      iszero\n        /* \"@openzeppelin/contracts/token/ERC20/ERC20.sol\":7793:7865  require(fromBalance >= amount, \"ERC20: transfer amount exceeds balance\") */\n      tag_321\n      jumpi\n      mload(0x40)\n      0x08c379a000000000000000000000000000000000000000000000000000000000\n      dup2\n      mstore\n      0x04\n      add\n      tag_322\n      swap1\n      tag_323\n      jump\t// in\n    tag_322:\n      mload(0x40)\n      dup1\n      swap2\n      sub\n      swap1\n      revert\n    tag_321:\n        /* \"@openzeppelin/contracts/token/ERC20/ERC20.sol\":7931:7937  amount */\n      dup2\n        /* \"@openzeppelin/contracts/token/ERC20/ERC20.sol\":7917:7928  fromBalance */\n      dup2\n        /* \"@openzeppelin/contracts/token/ERC20/ERC20.sol\":7917:7937  fromBalance - amount */\n      sub\n        /* \"@openzeppelin/contracts/token/ERC20/ERC20.sol\":7899:7908  _balances */\n      0x00\n        /* \"@openzeppelin/contracts/token/ERC20/ERC20.sol\":7899:7914  _balances[from] */\n      dup1\n        /* \"@openzeppelin/contracts/token/ERC20/ERC20.sol\":7909:7913  from */\n      dup7\n        /* \"@openzeppelin/contracts/token/ERC20/ERC20.sol\":7899:7914  _balances[from] */\n      0xffffffffffffffffffffffffffffffffffffffff\n      and\n      0xffffffffffffffffffffffffffffffffffffffff\n      and\n      dup2\n      mstore\n      0x20\n      add\n      swap1\n      dup2\n      mstore\n      0x20\n      add\n      0x00\n      keccak256\n        /* \"@openzeppelin/contracts/token/ERC20/ERC20.sol\":7899:7937  _balances[from] = fromBalance - amount */\n      dup2\n      swap1\n      sstore\n      pop\n        /* \"@openzeppelin/contracts/token/ERC20/ERC20.sol\":8131:8137  amount */\n      dup2\n        /* \"@openzeppelin/contracts/token/ERC20/ERC20.sol\":8114:8123  _balances */\n      0x00\n        /* \"@openzeppelin/contracts/token/ERC20/ERC20.sol\":8114:8127  _balances[to] */\n      dup1\n        /* \"@openzeppelin/contracts/token/ERC20/ERC20.sol\":8124:8126  to */\n      dup6\n        /* \"@openzeppelin/contracts/token/ERC20/ERC20.sol\":8114:8127  _balances[to] */\n      0xffffffffffffffffffffffffffffffffffffffff\n      and\n      0xffffffffffffffffffffffffffffffffffffffff\n      and\n      dup2\n      mstore\n      0x20\n      add\n      swap1\n      dup2\n      mstore\n      0x20\n      add\n      0x00\n      keccak256\n      0x00\n        /* \"@openzeppelin/contracts/token/ERC20/ERC20.sol\":8114:8137  _balances[to] += amount */\n      dup3\n      dup3\n      sload\n      add\n      swap3\n      pop\n      pop\n      dup2\n      swap1\n      sstore\n      pop\n        /* \"@openzeppelin/contracts/token/ERC20/ERC20.sol\":8178:8180  to */\n      dup3\n        /* \"@openzeppelin/contracts/token/ERC20/ERC20.sol\":8163:8189  Transfer(from, to, amount) */\n      0xffffffffffffffffffffffffffffffffffffffff\n      and\n        /* \"@openzeppelin/contracts/token/ERC20/ERC20.sol\":8172:8176  from */\n      dup5\n        /* \"@openzeppelin/contracts/token/ERC20/ERC20.sol\":8163:8189  Transfer(from, to, amount) */\n      0xffffffffffffffffffffffffffffffffffffffff\n      and\n      0xddf252ad1be2c89b69c2b068fc378daa952ba7f163c4a11628f55a4df523b3ef\n        /* \"@openzeppelin/contracts/token/ERC20/ERC20.sol\":8182:8188  amount */\n      dup5\n        /* \"@openzeppelin/contracts/token/ERC20/ERC20.sol\":8163:8189  Transfer(from, to, amount) */\n      mload(0x40)\n      tag_324\n      swap2\n      swap1\n      tag_47\n      jump\t// in\n    tag_324:\n      mload(0x40)\n      dup1\n      swap2\n      sub\n      swap1\n      log3\n        /* \"@openzeppelin/contracts/token/ERC20/ERC20.sol\":8200:8237  _afterTokenTransfer(from, to, amount) */\n      tag_325\n        /* \"@openzeppelin/contracts/token/ERC20/ERC20.sol\":8220:8224  from */\n      dup5\n        /* \"@openzeppelin/contracts/token/ERC20/ERC20.sol\":8226:8228  to */\n      dup5\n        /* \"@openzeppelin/contracts/token/ERC20/ERC20.sol\":8230:8236  amount */\n      dup5\n        /* \"@openzeppelin/contracts/token/ERC20/ERC20.sol\":8200:8219  _afterTokenTransfer */\n      tag_326\n        /* \"@openzeppelin/contracts/token/ERC20/ERC20.sol\":8200:8237  _afterTokenTransfer(from, to, amount) */\n      jump\t// in\n    tag_325:\n        /* \"@openzeppelin/contracts/token/ERC20/ERC20.sol\":7534:8244  {... */\n      pop\n        /* \"@openzeppelin/contracts/token/ERC20/ERC20.sol\":7456:8244  function _transfer(address from, address to, uint256 amount) internal virtual {... */\n      pop\n      pop\n      pop\n      jump\t// out\n        /* \"staking_test.sol\":3303:3714  function UpdateReward(address _user) internal {... */\n    tag_174:\n        /* \"staking_test.sol\":3359:3376  uint current_time */\n      0x00\n        /* \"staking_test.sol\":3379:3394  block.timestamp */\n      timestamp\n        /* \"staking_test.sol\":3359:3394  uint current_time = block.timestamp */\n      swap1\n      pop\n        /* \"staking_test.sol\":3404:3427  uint256 stakingDuration */\n      0x00\n        /* \"staking_test.sol\":3483:3492  1 minutes */\n      0x3c\n        /* \"staking_test.sol\":3446:3457  stakingInfo */\n      0x08\n        /* \"staking_test.sol\":3446:3464  stakingInfo[_user] */\n      0x00\n        /* \"staking_test.sol\":3458:3463  _user */\n      dup6\n        /* \"staking_test.sol\":3446:3464  stakingInfo[_user] */\n      0xffffffffffffffffffffffffffffffffffffffff\n      and\n      0xffffffffffffffffffffffffffffffffffffffff\n      and\n      dup2\n      mstore\n      0x20\n      add\n      swap1\n      dup2\n      mstore\n      0x20\n      add\n      0x00\n      keccak256\n        /* \"staking_test.sol\":3446:3479  stakingInfo[_user].lastStakedTime */\n      0x01\n      add\n      sload\n        /* \"staking_test.sol\":3431:3443  current_time */\n      dup4\n        /* \"staking_test.sol\":3431:3479  current_time - stakingInfo[_user].lastStakedTime */\n      tag_328\n      swap2\n      swap1\n      tag_176\n      jump\t// in\n    tag_328:\n        /* \"staking_test.sol\":3430:3492  (current_time - stakingInfo[_user].lastStakedTime) / 1 minutes */\n      tag_329\n      swap2\n      swap1\n      tag_330\n      jump\t// in\n    tag_329:\n        /* \"staking_test.sol\":3404:3492  uint256 stakingDuration = (current_time - stakingInfo[_user].lastStakedTime) / 1 minutes */\n      swap1\n      pop\n        /* \"staking_test.sol\":3633:3648  100 * 1 minutes */\n      0x1770\n        /* \"staking_test.sol\":3618:3628  tokenPrice */\n      sload(0x06)\n        /* \"staking_test.sol\":3600:3615  stakingDuration */\n      dup3\n        /* \"staking_test.sol\":3589:3597  interest */\n      sload(0x07)\n        /* \"staking_test.sol\":3555:3566  stakingInfo */\n      0x08\n        /* \"staking_test.sol\":3555:3573  stakingInfo[_user] */\n      0x00\n        /* \"staking_test.sol\":3567:3572  _user */\n      dup9\n        /* \"staking_test.sol\":3555:3573  stakingInfo[_user] */\n      0xffffffffffffffffffffffffffffffffffffffff\n      and\n      0xffffffffffffffffffffffffffffffffffffffff\n      and\n      dup2\n      mstore\n      0x20\n      add\n      swap1\n      dup2\n      mstore\n      0x20\n      add\n      0x00\n      keccak256\n        /* \"staking_test.sol\":3555:3586  stakingInfo[_user].stakedAmount */\n      0x00\n      add\n      sload\n        /* \"staking_test.sol\":3555:3597  stakingInfo[_user].stakedAmount * interest */\n      tag_331\n      swap2\n      swap1\n      tag_203\n      jump\t// in\n    tag_331:\n        /* \"staking_test.sol\":3555:3615  stakingInfo[_user].stakedAmount * interest * stakingDuration */\n      tag_332\n      swap2\n      swap1\n      tag_203\n      jump\t// in\n    tag_332:\n        /* \"staking_test.sol\":3555:3628  stakingInfo[_user].stakedAmount * interest * stakingDuration * tokenPrice */\n      tag_333\n      swap2\n      swap1\n      tag_203\n      jump\t// in\n    tag_333:\n        /* \"staking_test.sol\":3554:3649  (stakingInfo[_user].stakedAmount * interest * stakingDuration * tokenPrice) / (100 * 1 minutes) */\n      tag_334\n      swap2\n      swap1\n      tag_330\n      jump\t// in\n    tag_334:\n        /* \"staking_test.sol\":3524:3535  stakingInfo */\n      0x08\n        /* \"staking_test.sol\":3524:3542  stakingInfo[_user] */\n      0x00\n        /* \"staking_test.sol\":3536:3541  _user */\n      dup6\n        /* \"staking_test.sol\":3524:3542  stakingInfo[_user] */\n      0xffffffffffffffffffffffffffffffffffffffff\n      and\n      0xffffffffffffffffffffffffffffffffffffffff\n      and\n      dup2\n      mstore\n      0x20\n      add\n      swap1\n      dup2\n      mstore\n      0x20\n      add\n      0x00\n      keccak256\n        /* \"staking_test.sol\":3524:3550  stakingInfo[_user].rewards */\n      0x02\n      add\n      0x00\n        /* \"staking_test.sol\":3524:3649  stakingInfo[_user].rewards += (stakingInfo[_user].stakedAmount * interest * stakingDuration * tokenPrice) / (100 * 1 minutes) */\n      dup3\n      dup3\n      sload\n      tag_335\n      swap2\n      swap1\n      tag_227\n      jump\t// in\n    tag_335:\n      swap3\n      pop\n      pop\n      dup2\n      swap1\n      sstore\n      pop\n        /* \"staking_test.sol\":3695:3707  current_time */\n      dup2\n        /* \"staking_test.sol\":3659:3670  stakingInfo */\n      0x08\n        /* \"staking_test.sol\":3659:3677  stakingInfo[_user] */\n      0x00\n        /* \"staking_test.sol\":3671:3676  _user */\n      dup6\n        /* \"staking_test.sol\":3659:3677  stakingInfo[_user] */\n      0xffffffffffffffffffffffffffffffffffffffff\n      and\n      0xffffffffffffffffffffffffffffffffffffffff\n      and\n      dup2\n      mstore\n      0x20\n      add\n      swap1\n      dup2\n      mstore\n      0x20\n      add\n      0x00\n      keccak256\n        /* \"staking_test.sol\":3659:3692  stakingInfo[_user].lastStakedTime */\n      0x01\n      add\n        /* \"staking_test.sol\":3659:3707  stakingInfo[_user].lastStakedTime = current_time */\n      dup2\n      swap1\n      sstore\n      pop\n        /* \"staking_test.sol\":3349:3714  {... */\n      pop\n      pop\n        /* \"staking_test.sol\":3303:3714  function UpdateReward(address _user) internal {... */\n      pop\n      jump\t// out\n        /* \"@openzeppelin/contracts/token/ERC20/ERC20.sol\":8520:9055  function _mint(address account, uint256 amount) internal virtual {... */\n    tag_208:\n        /* \"@openzeppelin/contracts/token/ERC20/ERC20.sol\":8622:8623  0 */\n      0x00\n        /* \"@openzeppelin/contracts/token/ERC20/ERC20.sol\":8603:8624  account != address(0) */\n      0xffffffffffffffffffffffffffffffffffffffff\n      and\n        /* \"@openzeppelin/contracts/token/ERC20/ERC20.sol\":8603:8610  account */\n      dup3\n        /* \"@openzeppelin/contracts/token/ERC20/ERC20.sol\":8603:8624  account != address(0) */\n      0xffffffffffffffffffffffffffffffffffffffff\n      and\n      sub\n        /* \"@openzeppelin/contracts/token/ERC20/ERC20.sol\":8595:8660  require(account != address(0), \"ERC20: mint to the zero address\") */\n      tag_337\n      jumpi\n      mload(0x40)\n      0x08c379a000000000000000000000000000000000000000000000000000000000\n      dup2\n      mstore\n      0x04\n      add\n      tag_338\n      swap1\n      tag_339\n      jump\t// in\n    tag_338:\n      mload(0x40)\n      dup1\n      swap2\n      sub\n      swap1\n      revert\n    tag_337:\n        /* \"@openzeppelin/contracts/token/ERC20/ERC20.sol\":8671:8720  _beforeTokenTransfer(address(0), account, amount) */\n      tag_340\n        /* \"@openzeppelin/contracts/token/ERC20/ERC20.sol\":8700:8701  0 */\n      0x00\n        /* \"@openzeppelin/contracts/token/ERC20/ERC20.sol\":8704:8711  account */\n      dup4\n        /* \"@openzeppelin/contracts/token/ERC20/ERC20.sol\":8713:8719  amount */\n      dup4\n        /* \"@openzeppelin/contracts/token/ERC20/ERC20.sol\":8671:8691  _beforeTokenTransfer */\n      tag_320\n        /* \"@openzeppelin/contracts/token/ERC20/ERC20.sol\":8671:8720  _beforeTokenTransfer(address(0), account, amount) */\n      jump\t// in\n    tag_340:\n        /* \"@openzeppelin/contracts/token/ERC20/ERC20.sol\":8747:8753  amount */\n      dup1\n        /* \"@openzeppelin/contracts/token/ERC20/ERC20.sol\":8731:8743  _totalSupply */\n      0x02\n      0x00\n        /* \"@openzeppelin/contracts/token/ERC20/ERC20.sol\":8731:8753  _totalSupply += amount */\n      dup3\n      dup3\n      sload\n      tag_341\n      swap2\n      swap1\n      tag_227\n      jump\t// in\n    tag_341:\n      swap3\n      pop\n      pop\n      dup2\n      swap1\n      sstore\n      pop\n        /* \"@openzeppelin/contracts/token/ERC20/ERC20.sol\":8921:8927  amount */\n      dup1\n        /* \"@openzeppelin/contracts/token/ERC20/ERC20.sol\":8899:8908  _balances */\n      0x00\n        /* \"@openzeppelin/contracts/token/ERC20/ERC20.sol\":8899:8917  _balances[account] */\n      dup1\n        /* \"@openzeppelin/contracts/token/ERC20/ERC20.sol\":8909:8916  account */\n      dup5\n        /* \"@openzeppelin/contracts/token/ERC20/ERC20.sol\":8899:8917  _balances[account] */\n      0xffffffffffffffffffffffffffffffffffffffff\n      and\n      0xffffffffffffffffffffffffffffffffffffffff\n      and\n      dup2\n      mstore\n      0x20\n      add\n      swap1\n      dup2\n      mstore\n      0x20\n      add\n      0x00\n      keccak256\n      0x00\n        /* \"@openzeppelin/contracts/token/ERC20/ERC20.sol\":8899:8927  _balances[account] += amount */\n      dup3\n      dup3\n      sload\n      add\n      swap3\n      pop\n      pop\n      dup2\n      swap1\n      sstore\n      pop\n        /* \"@openzeppelin/contracts/token/ERC20/ERC20.sol\":8973:8980  account */\n      dup2\n        /* \"@openzeppelin/contracts/token/ERC20/ERC20.sol\":8952:8989  Transfer(address(0), account, amount) */\n      0xffffffffffffffffffffffffffffffffffffffff\n      and\n        /* \"@openzeppelin/contracts/token/ERC20/ERC20.sol\":8969:8970  0 */\n      0x00\n        /* \"@openzeppelin/contracts/token/ERC20/ERC20.sol\":8952:8989  Transfer(address(0), account, amount) */\n      0xffffffffffffffffffffffffffffffffffffffff\n      and\n      0xddf252ad1be2c89b69c2b068fc378daa952ba7f163c4a11628f55a4df523b3ef\n        /* \"@openzeppelin/contracts/token/ERC20/ERC20.sol\":8982:8988  amount */\n      dup4\n        /* \"@openzeppelin/contracts/token/ERC20/ERC20.sol\":8952:8989  Transfer(address(0), account, amount) */\n      mload(0x40)\n      tag_342\n      swap2\n      swap1\n      tag_47\n      jump\t// in\n    tag_342:\n      mload(0x40)\n      dup1\n      swap2\n      sub\n      swap1\n      log3\n        /* \"@openzeppelin/contracts/token/ERC20/ERC20.sol\":9000:9048  _afterTokenTransfer(address(0), account, amount) */\n      tag_343\n        /* \"@openzeppelin/contracts/token/ERC20/ERC20.sol\":9028:9029  0 */\n      0x00\n        /* \"@openzeppelin/contracts/token/ERC20/ERC20.sol\":9032:9039  account */\n      dup4\n        /* \"@openzeppelin/contracts/token/ERC20/ERC20.sol\":9041:9047  amount */\n      dup4\n        /* \"@openzeppelin/contracts/token/ERC20/ERC20.sol\":9000:9019  _afterTokenTransfer */\n      tag_326\n        /* \"@openzeppelin/contracts/token/ERC20/ERC20.sol\":9000:9048  _afterTokenTransfer(address(0), account, amount) */\n      jump\t// in\n    tag_343:\n        /* \"@openzeppelin/contracts/token/ERC20/ERC20.sol\":8520:9055  function _mint(address account, uint256 amount) internal virtual {... */\n      pop\n      pop\n      jump\t// out\n        /* \"@openzeppelin/contracts/token/ERC20/ERC20.sol\":9375:10034  function _burn(address account, uint256 amount) internal virtual {... */\n    tag_231:\n        /* \"@openzeppelin/contracts/token/ERC20/ERC20.sol\":9477:9478  0 */\n      0x00\n        /* \"@openzeppelin/contracts/token/ERC20/ERC20.sol\":9458:9479  account != address(0) */\n      0xffffffffffffffffffffffffffffffffffffffff\n      and\n        /* \"@openzeppelin/contracts/token/ERC20/ERC20.sol\":9458:9465  account */\n      dup3\n        /* \"@openzeppelin/contracts/token/ERC20/ERC20.sol\":9458:9479  account != address(0) */\n      0xffffffffffffffffffffffffffffffffffffffff\n      and\n      sub\n        /* \"@openzeppelin/contracts/token/ERC20/ERC20.sol\":9450:9517  require(account != address(0), \"ERC20: burn from the zero address\") */\n      tag_345\n      jumpi\n      mload(0x40)\n      0x08c379a000000000000000000000000000000000000000000000000000000000\n      dup2\n      mstore\n      0x04\n      add\n      tag_346\n      swap1\n      tag_347\n      jump\t// in\n    tag_346:\n      mload(0x40)\n      dup1\n      swap2\n      sub\n      swap1\n      revert\n    tag_345:\n        /* \"@openzeppelin/contracts/token/ERC20/ERC20.sol\":9528:9577  _beforeTokenTransfer(account, address(0), amount) */\n      tag_348\n        /* \"@openzeppelin/contracts/token/ERC20/ERC20.sol\":9549:9556  account */\n      dup3\n        /* \"@openzeppelin/contracts/token/ERC20/ERC20.sol\":9566:9567  0 */\n      0x00\n        /* \"@openzeppelin/contracts/token/ERC20/ERC20.sol\":9570:9576  amount */\n      dup4\n        /* \"@openzeppelin/contracts/token/ERC20/ERC20.sol\":9528:9548  _beforeTokenTransfer */\n      tag_320\n        /* \"@openzeppelin/contracts/token/ERC20/ERC20.sol\":9528:9577  _beforeTokenTransfer(account, address(0), amount) */\n      jump\t// in\n    tag_348:\n        /* \"@openzeppelin/contracts/token/ERC20/ERC20.sol\":9588:9610  uint256 accountBalance */\n      0x00\n        /* \"@openzeppelin/contracts/token/ERC20/ERC20.sol\":9613:9622  _balances */\n      dup1\n        /* \"@openzeppelin/contracts/token/ERC20/ERC20.sol\":9613:9631  _balances[account] */\n      0x00\n        /* \"@openzeppelin/contracts/token/ERC20/ERC20.sol\":9623:9630  account */\n      dup5\n        /* \"@openzeppelin/contracts/token/ERC20/ERC20.sol\":9613:9631  _balances[account] */\n      0xffffffffffffffffffffffffffffffffffffffff\n      and\n      0xffffffffffffffffffffffffffffffffffffffff\n      and\n      dup2\n      mstore\n      0x20\n      add\n      swap1\n      dup2\n      mstore\n      0x20\n      add\n      0x00\n      keccak256\n      sload\n        /* \"@openzeppelin/contracts/token/ERC20/ERC20.sol\":9588:9631  uint256 accountBalance = _balances[account] */\n      swap1\n      pop\n        /* \"@openzeppelin/contracts/token/ERC20/ERC20.sol\":9667:9673  amount */\n      dup2\n        /* \"@openzeppelin/contracts/token/ERC20/ERC20.sol\":9649:9663  accountBalance */\n      dup2\n        /* \"@openzeppelin/contracts/token/ERC20/ERC20.sol\":9649:9673  accountBalance >= amount */\n      lt\n      iszero\n        /* \"@openzeppelin/contracts/token/ERC20/ERC20.sol\":9641:9712  require(accountBalance >= amount, \"ERC20: burn amount exceeds balance\") */\n      tag_349\n      jumpi\n      mload(0x40)\n      0x08c379a000000000000000000000000000000000000000000000000000000000\n      dup2\n      mstore\n      0x04\n      add\n      tag_350\n      swap1\n      tag_351\n      jump\t// in\n    tag_350:\n      mload(0x40)\n      dup1\n      swap2\n      sub\n      swap1\n      revert\n    tag_349:\n        /* \"@openzeppelin/contracts/token/ERC20/ERC20.sol\":9784:9790  amount */\n      dup2\n        /* \"@openzeppelin/contracts/token/ERC20/ERC20.sol\":9767:9781  accountBalance */\n      dup2\n        /* \"@openzeppelin/contracts/token/ERC20/ERC20.sol\":9767:9790  accountBalance - amount */\n      sub\n        /* \"@openzeppelin/contracts/token/ERC20/ERC20.sol\":9746:9755  _balances */\n      0x00\n        /* \"@openzeppelin/contracts/token/ERC20/ERC20.sol\":9746:9764  _balances[account] */\n      dup1\n        /* \"@openzeppelin/contracts/token/ERC20/ERC20.sol\":9756:9763  account */\n      dup6\n        /* \"@openzeppelin/contracts/token/ERC20/ERC20.sol\":9746:9764  _balances[account] */\n      0xffffffffffffffffffffffffffffffffffffffff\n      and\n      0xffffffffffffffffffffffffffffffffffffffff\n      and\n      dup2\n      mstore\n      0x20\n      add\n      swap1\n      dup2\n      mstore\n      0x20\n      add\n      0x00\n      keccak256\n        /* \"@openzeppelin/contracts/token/ERC20/ERC20.sol\":9746:9790  _balances[account] = accountBalance - amount */\n      dup2\n      swap1\n      sstore\n      pop\n        /* \"@openzeppelin/contracts/token/ERC20/ERC20.sol\":9899:9905  amount */\n      dup2\n        /* \"@openzeppelin/contracts/token/ERC20/ERC20.sol\":9883:9895  _totalSupply */\n      0x02\n      0x00\n        /* \"@openzeppelin/contracts/token/ERC20/ERC20.sol\":9883:9905  _totalSupply -= amount */\n      dup3\n      dup3\n      sload\n      sub\n      swap3\n      pop\n      pop\n      dup2\n      swap1\n      sstore\n      pop\n        /* \"@openzeppelin/contracts/token/ERC20/ERC20.sol\":9957:9958  0 */\n      0x00\n        /* \"@openzeppelin/contracts/token/ERC20/ERC20.sol\":9931:9968  Transfer(account, address(0), amount) */\n      0xffffffffffffffffffffffffffffffffffffffff\n      and\n        /* \"@openzeppelin/contracts/token/ERC20/ERC20.sol\":9940:9947  account */\n      dup4\n        /* \"@openzeppelin/contracts/token/ERC20/ERC20.sol\":9931:9968  Transfer(account, address(0), amount) */\n      0xffffffffffffffffffffffffffffffffffffffff\n      and\n      0xddf252ad1be2c89b69c2b068fc378daa952ba7f163c4a11628f55a4df523b3ef\n        /* \"@openzeppelin/contracts/token/ERC20/ERC20.sol\":9961:9967  amount */\n      dup5\n        /* \"@openzeppelin/contracts/token/ERC20/ERC20.sol\":9931:9968  Transfer(account, address(0), amount) */\n      mload(0x40)\n      tag_352\n      swap2\n      swap1\n      tag_47\n      jump\t// in\n    tag_352:\n      mload(0x40)\n      dup1\n      swap2\n      sub\n      swap1\n      log3\n        /* \"@openzeppelin/contracts/token/ERC20/ERC20.sol\":9979:10027  _afterTokenTransfer(account, address(0), amount) */\n      tag_353\n        /* \"@openzeppelin/contracts/token/ERC20/ERC20.sol\":9999:10006  account */\n      dup4\n        /* \"@openzeppelin/contracts/token/ERC20/ERC20.sol\":10016:10017  0 */\n      0x00\n        /* \"@openzeppelin/contracts/token/ERC20/ERC20.sol\":10020:10026  amount */\n      dup5\n        /* \"@openzeppelin/contracts/token/ERC20/ERC20.sol\":9979:9998  _afterTokenTransfer */\n      tag_326\n        /* \"@openzeppelin/contracts/token/ERC20/ERC20.sol\":9979:10027  _afterTokenTransfer(account, address(0), amount) */\n      jump\t// in\n    tag_353:\n        /* \"@openzeppelin/contracts/token/ERC20/ERC20.sol\":9440:10034  {... */\n      pop\n        /* \"@openzeppelin/contracts/token/ERC20/ERC20.sol\":9375:10034  function _burn(address account, uint256 amount) internal virtual {... */\n      pop\n      pop\n      jump\t// out\n        /* \"@openzeppelin/contracts/access/Ownable.sol\":1359:1489  function _checkOwner() internal view virtual {... */\n    tag_234:\n        /* \"@openzeppelin/contracts/access/Ownable.sol\":1433:1445  _msgSender() */\n      tag_355\n        /* \"@openzeppelin/contracts/access/Ownable.sol\":1433:1443  _msgSender */\n      tag_156\n        /* \"@openzeppelin/contracts/access/Ownable.sol\":1433:1445  _msgSender() */\n      jump\t// in\n    tag_355:\n        /* \"@openzeppelin/contracts/access/Ownable.sol\":1422:1445  owner() == _msgSender() */\n      0xffffffffffffffffffffffffffffffffffffffff\n      and\n        /* \"@openzeppelin/contracts/access/Ownable.sol\":1422:1429  owner() */\n      tag_356\n        /* \"@openzeppelin/contracts/access/Ownable.sol\":1422:1427  owner */\n      tag_106\n        /* \"@openzeppelin/contracts/access/Ownable.sol\":1422:1429  owner() */\n      jump\t// in\n    tag_356:\n        /* \"@openzeppelin/contracts/access/Ownable.sol\":1422:1445  owner() == _msgSender() */\n      0xffffffffffffffffffffffffffffffffffffffff\n      and\n      eq\n        /* \"@openzeppelin/contracts/access/Ownable.sol\":1414:1482  require(owner() == _msgSender(), \"Ownable: caller is not the owner\") */\n      tag_357\n      jumpi\n      mload(0x40)\n      0x08c379a000000000000000000000000000000000000000000000000000000000\n      dup2\n      mstore\n      0x04\n      add\n      tag_358\n      swap1\n      tag_359\n      jump\t// in\n    tag_358:\n      mload(0x40)\n      dup1\n      swap2\n      sub\n      swap1\n      revert\n    tag_357:\n        /* \"@openzeppelin/contracts/access/Ownable.sol\":1359:1489  function _checkOwner() internal view virtual {... */\n      jump\t// out\n        /* \"@openzeppelin/contracts/access/Ownable.sol\":2426:2613  function _transferOwnership(address newOwner) internal virtual {... */\n    tag_252:\n        /* \"@openzeppelin/contracts/access/Ownable.sol\":2499:2515  address oldOwner */\n      0x00\n        /* \"@openzeppelin/contracts/access/Ownable.sol\":2518:2524  _owner */\n      0x05\n      0x00\n      swap1\n      sload\n      swap1\n      0x0100\n      exp\n      swap1\n      div\n      0xffffffffffffffffffffffffffffffffffffffff\n      and\n        /* \"@openzeppelin/contracts/access/Ownable.sol\":2499:2524  address oldOwner = _owner */\n      swap1\n      pop\n        /* \"@openzeppelin/contracts/access/Ownable.sol\":2543:2551  newOwner */\n      dup2\n        /* \"@openzeppelin/contracts/access/Ownable.sol\":2534:2540  _owner */\n      0x05\n      0x00\n        /* \"@openzeppelin/contracts/access/Ownable.sol\":2534:2551  _owner = newOwner */\n      0x0100\n      exp\n      dup2\n      sload\n      dup2\n      0xffffffffffffffffffffffffffffffffffffffff\n      mul\n      not\n      and\n      swap1\n      dup4\n      0xffffffffffffffffffffffffffffffffffffffff\n      and\n      mul\n      or\n      swap1\n      sstore\n      pop\n        /* \"@openzeppelin/contracts/access/Ownable.sol\":2597:2605  newOwner */\n      dup2\n        /* \"@openzeppelin/contracts/access/Ownable.sol\":2566:2606  OwnershipTransferred(oldOwner, newOwner) */\n      0xffffffffffffffffffffffffffffffffffffffff\n      and\n        /* \"@openzeppelin/contracts/access/Ownable.sol\":2587:2595  oldOwner */\n      dup2\n        /* \"@openzeppelin/contracts/access/Ownable.sol\":2566:2606  OwnershipTransferred(oldOwner, newOwner) */\n      0xffffffffffffffffffffffffffffffffffffffff\n      and\n      0x8be0079c531659141344cd1fd0a4f28419497f9722a3daafe3b4186f6b6457e0\n      mload(0x40)\n      mload(0x40)\n      dup1\n      swap2\n      sub\n      swap1\n      log3\n        /* \"@openzeppelin/contracts/access/Ownable.sol\":2489:2613  {... */\n      pop\n        /* \"@openzeppelin/contracts/access/Ownable.sol\":2426:2613  function _transferOwnership(address newOwner) internal virtual {... */\n      pop\n      jump\t// out\n        /* \"@openzeppelin/contracts/token/ERC20/ERC20.sol\":12073:12164  function _beforeTokenTransfer(address from, address to, uint256 amount) internal virtual {} */\n    tag_320:\n      pop\n      pop\n      pop\n      jump\t// out\n        /* \"@openzeppelin/contracts/token/ERC20/ERC20.sol\":12752:12842  function _afterTokenTransfer(address from, address to, uint256 amount) internal virtual {} */\n    tag_326:\n      pop\n      pop\n      pop\n      jump\t// out\n        /* \"#utility.yul\":7:106   */\n    tag_363:\n        /* \"#utility.yul\":59:65   */\n      0x00\n        /* \"#utility.yul\":93:98   */\n      dup2\n        /* \"#utility.yul\":87:99   */\n      mload\n        /* \"#utility.yul\":77:99   */\n      swap1\n      pop\n        /* \"#utility.yul\":7:106   */\n      swap2\n      swap1\n      pop\n      jump\t// out\n        /* \"#utility.yul\":112:281   */\n    tag_364:\n        /* \"#utility.yul\":196:207   */\n      0x00\n        /* \"#utility.yul\":230:236   */\n      dup3\n        /* \"#utility.yul\":225:228   */\n      dup3\n        /* \"#utility.yul\":218:237   */\n      mstore\n        /* \"#utility.yul\":270:274   */\n      0x20\n        /* \"#utility.yul\":265:268   */\n      dup3\n        /* \"#utility.yul\":261:275   */\n      add\n        /* \"#utility.yul\":246:275   */\n      swap1\n      pop\n        /* \"#utility.yul\":112:281   */\n      swap3\n      swap2\n      pop\n      pop\n      jump\t// out\n        /* \"#utility.yul\":287:533   */\n    tag_365:\n        /* \"#utility.yul\":368:369   */\n      0x00\n        /* \"#utility.yul\":378:491   */\n    tag_429:\n        /* \"#utility.yul\":392:398   */\n      dup4\n        /* \"#utility.yul\":389:390   */\n      dup2\n        /* \"#utility.yul\":386:399   */\n      lt\n        /* \"#utility.yul\":378:491   */\n      iszero\n      tag_431\n      jumpi\n        /* \"#utility.yul\":477:478   */\n      dup1\n        /* \"#utility.yul\":472:475   */\n      dup3\n        /* \"#utility.yul\":468:479   */\n      add\n        /* \"#utility.yul\":462:480   */\n      mload\n        /* \"#utility.yul\":458:459   */\n      dup2\n        /* \"#utility.yul\":453:456   */\n      dup5\n        /* \"#utility.yul\":449:460   */\n      add\n        /* \"#utility.yul\":442:481   */\n      mstore\n        /* \"#utility.yul\":414:416   */\n      0x20\n        /* \"#utility.yul\":411:412   */\n      dup2\n        /* \"#utility.yul\":407:417   */\n      add\n        /* \"#utility.yul\":402:417   */\n      swap1\n      pop\n        /* \"#utility.yul\":378:491   */\n      jump(tag_429)\n    tag_431:\n        /* \"#utility.yul\":525:526   */\n      0x00\n        /* \"#utility.yul\":516:522   */\n      dup5\n        /* \"#utility.yul\":511:514   */\n      dup5\n        /* \"#utility.yul\":507:523   */\n      add\n        /* \"#utility.yul\":500:527   */\n      mstore\n        /* \"#utility.yul\":349:533   */\n      pop\n        /* \"#utility.yul\":287:533   */\n      pop\n      pop\n      pop\n      jump\t// out\n        /* \"#utility.yul\":539:641   */\n    tag_366:\n        /* \"#utility.yul\":580:586   */\n      0x00\n        /* \"#utility.yul\":631:633   */\n      0x1f\n        /* \"#utility.yul\":627:634   */\n      not\n        /* \"#utility.yul\":622:624   */\n      0x1f\n        /* \"#utility.yul\":615:620   */\n      dup4\n        /* \"#utility.yul\":611:625   */\n      add\n        /* \"#utility.yul\":607:635   */\n      and\n        /* \"#utility.yul\":597:635   */\n      swap1\n      pop\n        /* \"#utility.yul\":539:641   */\n      swap2\n      swap1\n      pop\n      jump\t// out\n        /* \"#utility.yul\":647:1024   */\n    tag_367:\n        /* \"#utility.yul\":735:738   */\n      0x00\n        /* \"#utility.yul\":763:802   */\n      tag_434\n        /* \"#utility.yul\":796:801   */\n      dup3\n        /* \"#utility.yul\":763:802   */\n      tag_363\n      jump\t// in\n    tag_434:\n        /* \"#utility.yul\":818:889   */\n      tag_435\n        /* \"#utility.yul\":882:888   */\n      dup2\n        /* \"#utility.yul\":877:880   */\n      dup6\n        /* \"#utility.yul\":818:889   */\n      tag_364\n      jump\t// in\n    tag_435:\n        /* \"#utility.yul\":811:889   */\n      swap4\n      pop\n        /* \"#utility.yul\":898:963   */\n      tag_436\n        /* \"#utility.yul\":956:962   */\n      dup2\n        /* \"#utility.yul\":951:954   */\n      dup6\n        /* \"#utility.yul\":944:948   */\n      0x20\n        /* \"#utility.yul\":937:942   */\n      dup7\n        /* \"#utility.yul\":933:949   */\n      add\n        /* \"#utility.yul\":898:963   */\n      tag_365\n      jump\t// in\n    tag_436:\n        /* \"#utility.yul\":988:1017   */\n      tag_437\n        /* \"#utility.yul\":1010:1016   */\n      dup2\n        /* \"#utility.yul\":988:1017   */\n      tag_366\n      jump\t// in\n    tag_437:\n        /* \"#utility.yul\":983:986   */\n      dup5\n        /* \"#utility.yul\":979:1018   */\n      add\n        /* \"#utility.yul\":972:1018   */\n      swap2\n      pop\n        /* \"#utility.yul\":739:1024   */\n      pop\n        /* \"#utility.yul\":647:1024   */\n      swap3\n      swap2\n      pop\n      pop\n      jump\t// out\n        /* \"#utility.yul\":1030:1343   */\n    tag_35:\n        /* \"#utility.yul\":1143:1147   */\n      0x00\n        /* \"#utility.yul\":1181:1183   */\n      0x20\n        /* \"#utility.yul\":1170:1179   */\n      dup3\n        /* \"#utility.yul\":1166:1184   */\n      add\n        /* \"#utility.yul\":1158:1184   */\n      swap1\n      pop\n        /* \"#utility.yul\":1230:1239   */\n      dup2\n        /* \"#utility.yul\":1224:1228   */\n      dup2\n        /* \"#utility.yul\":1220:1240   */\n      sub\n        /* \"#utility.yul\":1216:1217   */\n      0x00\n        /* \"#utility.yul\":1205:1214   */\n      dup4\n        /* \"#utility.yul\":1201:1218   */\n      add\n        /* \"#utility.yul\":1194:1241   */\n      mstore\n        /* \"#utility.yul\":1258:1336   */\n      tag_439\n        /* \"#utility.yul\":1331:1335   */\n      dup2\n        /* \"#utility.yul\":1322:1328   */\n      dup5\n        /* \"#utility.yul\":1258:1336   */\n      tag_367\n      jump\t// in\n    tag_439:\n        /* \"#utility.yul\":1250:1336   */\n      swap1\n      pop\n        /* \"#utility.yul\":1030:1343   */\n      swap3\n      swap2\n      pop\n      pop\n      jump\t// out\n        /* \"#utility.yul\":1430:1547   */\n    tag_369:\n        /* \"#utility.yul\":1539:1540   */\n      0x00\n        /* \"#utility.yul\":1536:1537   */\n      dup1\n        /* \"#utility.yul\":1529:1541   */\n      revert\n        /* \"#utility.yul\":1676:1802   */\n    tag_371:\n        /* \"#utility.yul\":1713:1720   */\n      0x00\n        /* \"#utility.yul\":1753:1795   */\n      0xffffffffffffffffffffffffffffffffffffffff\n        /* \"#utility.yul\":1746:1751   */\n      dup3\n        /* \"#utility.yul\":1742:1796   */\n      and\n        /* \"#utility.yul\":1731:1796   */\n      swap1\n      pop\n        /* \"#utility.yul\":1676:1802   */\n      swap2\n      swap1\n      pop\n      jump\t// out\n        /* \"#utility.yul\":1808:1904   */\n    tag_372:\n        /* \"#utility.yul\":1845:1852   */\n      0x00\n        /* \"#utility.yul\":1874:1898   */\n      tag_445\n        /* \"#utility.yul\":1892:1897   */\n      dup3\n        /* \"#utility.yul\":1874:1898   */\n      tag_371\n      jump\t// in\n    tag_445:\n        /* \"#utility.yul\":1863:1898   */\n      swap1\n      pop\n        /* \"#utility.yul\":1808:1904   */\n      swap2\n      swap1\n      pop\n      jump\t// out\n        /* \"#utility.yul\":1910:2032   */\n    tag_373:\n        /* \"#utility.yul\":1983:2007   */\n      tag_447\n        /* \"#utility.yul\":2001:2006   */\n      dup2\n        /* \"#utility.yul\":1983:2007   */\n      tag_372\n      jump\t// in\n    tag_447:\n        /* \"#utility.yul\":1976:1981   */\n      dup2\n        /* \"#utility.yul\":1973:2008   */\n      eq\n        /* \"#utility.yul\":1963:2026   */\n      tag_448\n      jumpi\n        /* \"#utility.yul\":2022:2023   */\n      0x00\n        /* \"#utility.yul\":2019:2020   */\n      dup1\n        /* \"#utility.yul\":2012:2024   */\n      revert\n        /* \"#utility.yul\":1963:2026   */\n    tag_448:\n        /* \"#utility.yul\":1910:2032   */\n      pop\n      jump\t// out\n        /* \"#utility.yul\":2038:2177   */\n    tag_374:\n        /* \"#utility.yul\":2084:2089   */\n      0x00\n        /* \"#utility.yul\":2122:2128   */\n      dup2\n        /* \"#utility.yul\":2109:2129   */\n      calldataload\n        /* \"#utility.yul\":2100:2129   */\n      swap1\n      pop\n        /* \"#utility.yul\":2138:2171   */\n      tag_450\n        /* \"#utility.yul\":2165:2170   */\n      dup2\n        /* \"#utility.yul\":2138:2171   */\n      tag_373\n      jump\t// in\n    tag_450:\n        /* \"#utility.yul\":2038:2177   */\n      swap3\n      swap2\n      pop\n      pop\n      jump\t// out\n        /* \"#utility.yul\":2183:2260   */\n    tag_375:\n        /* \"#utility.yul\":2220:2227   */\n      0x00\n        /* \"#utility.yul\":2249:2254   */\n      dup2\n        /* \"#utility.yul\":2238:2254   */\n      swap1\n      pop\n        /* \"#utility.yul\":2183:2260   */\n      swap2\n      swap1\n      pop\n      jump\t// out\n        /* \"#utility.yul\":2266:2388   */\n    tag_376:\n        /* \"#utility.yul\":2339:2363   */\n      tag_453\n        /* \"#utility.yul\":2357:2362   */\n      dup2\n        /* \"#utility.yul\":2339:2363   */\n      tag_375\n      jump\t// in\n    tag_453:\n        /* \"#utility.yul\":2332:2337   */\n      dup2\n        /* \"#utility.yul\":2329:2364   */\n      eq\n        /* \"#utility.yul\":2319:2382   */\n      tag_454\n      jumpi\n        /* \"#utility.yul\":2378:2379   */\n      0x00\n        /* \"#utility.yul\":2375:2376   */\n      dup1\n        /* \"#utility.yul\":2368:2380   */\n      revert\n        /* \"#utility.yul\":2319:2382   */\n    tag_454:\n        /* \"#utility.yul\":2266:2388   */\n      pop\n      jump\t// out\n        /* \"#utility.yul\":2394:2533   */\n    tag_377:\n        /* \"#utility.yul\":2440:2445   */\n      0x00\n        /* \"#utility.yul\":2478:2484   */\n      dup2\n        /* \"#utility.yul\":2465:2485   */\n      calldataload\n        /* \"#utility.yul\":2456:2485   */\n      swap1\n      pop\n        /* \"#utility.yul\":2494:2527   */\n      tag_456\n        /* \"#utility.yul\":2521:2526   */\n      dup2\n        /* \"#utility.yul\":2494:2527   */\n      tag_376\n      jump\t// in\n    tag_456:\n        /* \"#utility.yul\":2394:2533   */\n      swap3\n      swap2\n      pop\n      pop\n      jump\t// out\n        /* \"#utility.yul\":2539:3013   */\n    tag_39:\n        /* \"#utility.yul\":2607:2613   */\n      0x00\n        /* \"#utility.yul\":2615:2621   */\n      dup1\n        /* \"#utility.yul\":2664:2666   */\n      0x40\n        /* \"#utility.yul\":2652:2661   */\n      dup4\n        /* \"#utility.yul\":2643:2650   */\n      dup6\n        /* \"#utility.yul\":2639:2662   */\n      sub\n        /* \"#utility.yul\":2635:2667   */\n      slt\n        /* \"#utility.yul\":2632:2751   */\n      iszero\n      tag_458\n      jumpi\n        /* \"#utility.yul\":2670:2749   */\n      tag_459\n      tag_369\n      jump\t// in\n    tag_459:\n        /* \"#utility.yul\":2632:2751   */\n    tag_458:\n        /* \"#utility.yul\":2790:2791   */\n      0x00\n        /* \"#utility.yul\":2815:2868   */\n      tag_460\n        /* \"#utility.yul\":2860:2867   */\n      dup6\n        /* \"#utility.yul\":2851:2857   */\n      dup3\n        /* \"#utility.yul\":2840:2849   */\n      dup7\n        /* \"#utility.yul\":2836:2858   */\n      add\n        /* \"#utility.yul\":2815:2868   */\n      tag_374\n      jump\t// in\n    tag_460:\n        /* \"#utility.yul\":2805:2868   */\n      swap3\n      pop\n        /* \"#utility.yul\":2761:2878   */\n      pop\n        /* \"#utility.yul\":2917:2919   */\n      0x20\n        /* \"#utility.yul\":2943:2996   */\n      tag_461\n        /* \"#utility.yul\":2988:2995   */\n      dup6\n        /* \"#utility.yul\":2979:2985   */\n      dup3\n        /* \"#utility.yul\":2968:2977   */\n      dup7\n        /* \"#utility.yul\":2964:2986   */\n      add\n        /* \"#utility.yul\":2943:2996   */\n      tag_377\n      jump\t// in\n    tag_461:\n        /* \"#utility.yul\":2933:2996   */\n      swap2\n      pop\n        /* \"#utility.yul\":2888:3006   */\n      pop\n        /* \"#utility.yul\":2539:3013   */\n      swap3\n      pop\n      swap3\n      swap1\n      pop\n      jump\t// out\n        /* \"#utility.yul\":3019:3109   */\n    tag_378:\n        /* \"#utility.yul\":3053:3060   */\n      0x00\n        /* \"#utility.yul\":3096:3101   */\n      dup2\n        /* \"#utility.yul\":3089:3102   */\n      iszero\n        /* \"#utility.yul\":3082:3103   */\n      iszero\n        /* \"#utility.yul\":3071:3103   */\n      swap1\n      pop\n        /* \"#utility.yul\":3019:3109   */\n      swap2\n      swap1\n      pop\n      jump\t// out\n        /* \"#utility.yul\":3115:3224   */\n    tag_379:\n        /* \"#utility.yul\":3196:3217   */\n      tag_464\n        /* \"#utility.yul\":3211:3216   */\n      dup2\n        /* \"#utility.yul\":3196:3217   */\n      tag_378\n      jump\t// in\n    tag_464:\n        /* \"#utility.yul\":3191:3194   */\n      dup3\n        /* \"#utility.yul\":3184:3218   */\n      mstore\n        /* \"#utility.yul\":3115:3224   */\n      pop\n      pop\n      jump\t// out\n        /* \"#utility.yul\":3230:3440   */\n    tag_42:\n        /* \"#utility.yul\":3317:3321   */\n      0x00\n        /* \"#utility.yul\":3355:3357   */\n      0x20\n        /* \"#utility.yul\":3344:3353   */\n      dup3\n        /* \"#utility.yul\":3340:3358   */\n      add\n        /* \"#utility.yul\":3332:3358   */\n      swap1\n      pop\n        /* \"#utility.yul\":3368:3433   */\n      tag_466\n        /* \"#utility.yul\":3430:3431   */\n      0x00\n        /* \"#utility.yul\":3419:3428   */\n      dup4\n        /* \"#utility.yul\":3415:3432   */\n      add\n        /* \"#utility.yul\":3406:3412   */\n      dup5\n        /* \"#utility.yul\":3368:3433   */\n      tag_379\n      jump\t// in\n    tag_466:\n        /* \"#utility.yul\":3230:3440   */\n      swap3\n      swap2\n      pop\n      pop\n      jump\t// out\n        /* \"#utility.yul\":3446:3564   */\n    tag_380:\n        /* \"#utility.yul\":3533:3557   */\n      tag_468\n        /* \"#utility.yul\":3551:3556   */\n      dup2\n        /* \"#utility.yul\":3533:3557   */\n      tag_375\n      jump\t// in\n    tag_468:\n        /* \"#utility.yul\":3528:3531   */\n      dup3\n        /* \"#utility.yul\":3521:3558   */\n      mstore\n        /* \"#utility.yul\":3446:3564   */\n      pop\n      pop\n      jump\t// out\n        /* \"#utility.yul\":3570:3792   */\n    tag_47:\n        /* \"#utility.yul\":3663:3667   */\n      0x00\n        /* \"#utility.yul\":3701:3703   */\n      0x20\n        /* \"#utility.yul\":3690:3699   */\n      dup3\n        /* \"#utility.yul\":3686:3704   */\n      add\n        /* \"#utility.yul\":3678:3704   */\n      swap1\n      pop\n        /* \"#utility.yul\":3714:3785   */\n      tag_470\n        /* \"#utility.yul\":3782:3783   */\n      0x00\n        /* \"#utility.yul\":3771:3780   */\n      dup4\n        /* \"#utility.yul\":3767:3784   */\n      add\n        /* \"#utility.yul\":3758:3764   */\n      dup5\n        /* \"#utility.yul\":3714:3785   */\n      tag_380\n      jump\t// in\n    tag_470:\n        /* \"#utility.yul\":3570:3792   */\n      swap3\n      swap2\n      pop\n      pop\n      jump\t// out\n        /* \"#utility.yul\":3798:4417   */\n    tag_51:\n        /* \"#utility.yul\":3875:3881   */\n      0x00\n        /* \"#utility.yul\":3883:3889   */\n      dup1\n        /* \"#utility.yul\":3891:3897   */\n      0x00\n        /* \"#utility.yul\":3940:3942   */\n      0x60\n        /* \"#utility.yul\":3928:3937   */\n      dup5\n        /* \"#utility.yul\":3919:3926   */\n      dup7\n        /* \"#utility.yul\":3915:3938   */\n      sub\n        /* \"#utility.yul\":3911:3943   */\n      slt\n        /* \"#utility.yul\":3908:4027   */\n      iszero\n      tag_472\n      jumpi\n        /* \"#utility.yul\":3946:4025   */\n      tag_473\n      tag_369\n      jump\t// in\n    tag_473:\n        /* \"#utility.yul\":3908:4027   */\n    tag_472:\n        /* \"#utility.yul\":4066:4067   */\n      0x00\n        /* \"#utility.yul\":4091:4144   */\n      tag_474\n        /* \"#utility.yul\":4136:4143   */\n      dup7\n        /* \"#utility.yul\":4127:4133   */\n      dup3\n        /* \"#utility.yul\":4116:4125   */\n      dup8\n        /* \"#utility.yul\":4112:4134   */\n      add\n        /* \"#utility.yul\":4091:4144   */\n      tag_374\n      jump\t// in\n    tag_474:\n        /* \"#utility.yul\":4081:4144   */\n      swap4\n      pop\n        /* \"#utility.yul\":4037:4154   */\n      pop\n        /* \"#utility.yul\":4193:4195   */\n      0x20\n        /* \"#utility.yul\":4219:4272   */\n      tag_475\n        /* \"#utility.yul\":4264:4271   */\n      dup7\n        /* \"#utility.yul\":4255:4261   */\n      dup3\n        /* \"#utility.yul\":4244:4253   */\n      dup8\n        /* \"#utility.yul\":4240:4262   */\n      add\n        /* \"#utility.yul\":4219:4272   */\n      tag_374\n      jump\t// in\n    tag_475:\n        /* \"#utility.yul\":4209:4272   */\n      swap3\n      pop\n        /* \"#utility.yul\":4164:4282   */\n      pop\n        /* \"#utility.yul\":4321:4323   */\n      0x40\n        /* \"#utility.yul\":4347:4400   */\n      tag_476\n        /* \"#utility.yul\":4392:4399   */\n      dup7\n        /* \"#utility.yul\":4383:4389   */\n      dup3\n        /* \"#utility.yul\":4372:4381   */\n      dup8\n        /* \"#utility.yul\":4368:4390   */\n      add\n        /* \"#utility.yul\":4347:4400   */\n      tag_377\n      jump\t// in\n    tag_476:\n        /* \"#utility.yul\":4337:4400   */\n      swap2\n      pop\n        /* \"#utility.yul\":4292:4410   */\n      pop\n        /* \"#utility.yul\":3798:4417   */\n      swap3\n      pop\n      swap3\n      pop\n      swap3\n      jump\t// out\n        /* \"#utility.yul\":4423:4752   */\n    tag_57:\n        /* \"#utility.yul\":4482:4488   */\n      0x00\n        /* \"#utility.yul\":4531:4533   */\n      0x20\n        /* \"#utility.yul\":4519:4528   */\n      dup3\n        /* \"#utility.yul\":4510:4517   */\n      dup5\n        /* \"#utility.yul\":4506:4529   */\n      sub\n        /* \"#utility.yul\":4502:4534   */\n      slt\n        /* \"#utility.yul\":4499:4618   */\n      iszero\n      tag_478\n      jumpi\n        /* \"#utility.yul\":4537:4616   */\n      tag_479\n      tag_369\n      jump\t// in\n    tag_479:\n        /* \"#utility.yul\":4499:4618   */\n    tag_478:\n        /* \"#utility.yul\":4657:4658   */\n      0x00\n        /* \"#utility.yul\":4682:4735   */\n      tag_480\n        /* \"#utility.yul\":4727:4734   */\n      dup5\n        /* \"#utility.yul\":4718:4724   */\n      dup3\n        /* \"#utility.yul\":4707:4716   */\n      dup6\n        /* \"#utility.yul\":4703:4725   */\n      add\n        /* \"#utility.yul\":4682:4735   */\n      tag_377\n      jump\t// in\n    tag_480:\n        /* \"#utility.yul\":4672:4735   */\n      swap2\n      pop\n        /* \"#utility.yul\":4628:4745   */\n      pop\n        /* \"#utility.yul\":4423:4752   */\n      swap3\n      swap2\n      pop\n      pop\n      jump\t// out\n        /* \"#utility.yul\":4758:4844   */\n    tag_381:\n        /* \"#utility.yul\":4793:4800   */\n      0x00\n        /* \"#utility.yul\":4833:4837   */\n      0xff\n        /* \"#utility.yul\":4826:4831   */\n      dup3\n        /* \"#utility.yul\":4822:4838   */\n      and\n        /* \"#utility.yul\":4811:4838   */\n      swap1\n      pop\n        /* \"#utility.yul\":4758:4844   */\n      swap2\n      swap1\n      pop\n      jump\t// out\n        /* \"#utility.yul\":4850:4962   */\n    tag_382:\n        /* \"#utility.yul\":4933:4955   */\n      tag_483\n        /* \"#utility.yul\":4949:4954   */\n      dup2\n        /* \"#utility.yul\":4933:4955   */\n      tag_381\n      jump\t// in\n    tag_483:\n        /* \"#utility.yul\":4928:4931   */\n      dup3\n        /* \"#utility.yul\":4921:4956   */\n      mstore\n        /* \"#utility.yul\":4850:4962   */\n      pop\n      pop\n      jump\t// out\n        /* \"#utility.yul\":4968:5182   */\n    tag_63:\n        /* \"#utility.yul\":5057:5061   */\n      0x00\n        /* \"#utility.yul\":5095:5097   */\n      0x20\n        /* \"#utility.yul\":5084:5093   */\n      dup3\n        /* \"#utility.yul\":5080:5098   */\n      add\n        /* \"#utility.yul\":5072:5098   */\n      swap1\n      pop\n        /* \"#utility.yul\":5108:5175   */\n      tag_485\n        /* \"#utility.yul\":5172:5173   */\n      0x00\n        /* \"#utility.yul\":5161:5170   */\n      dup4\n        /* \"#utility.yul\":5157:5174   */\n      add\n        /* \"#utility.yul\":5148:5154   */\n      dup5\n        /* \"#utility.yul\":5108:5175   */\n      tag_382\n      jump\t// in\n    tag_485:\n        /* \"#utility.yul\":4968:5182   */\n      swap3\n      swap2\n      pop\n      pop\n      jump\t// out\n        /* \"#utility.yul\":5188:5517   */\n    tag_90:\n        /* \"#utility.yul\":5247:5253   */\n      0x00\n        /* \"#utility.yul\":5296:5298   */\n      0x20\n        /* \"#utility.yul\":5284:5293   */\n      dup3\n        /* \"#utility.yul\":5275:5282   */\n      dup5\n        /* \"#utility.yul\":5271:5294   */\n      sub\n        /* \"#utility.yul\":5267:5299   */\n      slt\n        /* \"#utility.yul\":5264:5383   */\n      iszero\n      tag_487\n      jumpi\n        /* \"#utility.yul\":5302:5381   */\n      tag_488\n      tag_369\n      jump\t// in\n    tag_488:\n        /* \"#utility.yul\":5264:5383   */\n    tag_487:\n        /* \"#utility.yul\":5422:5423   */\n      0x00\n        /* \"#utility.yul\":5447:5500   */\n      tag_489\n        /* \"#utility.yul\":5492:5499   */\n      dup5\n        /* \"#utility.yul\":5483:5489   */\n      dup3\n        /* \"#utility.yul\":5472:5481   */\n      dup6\n        /* \"#utility.yul\":5468:5490   */\n      add\n        /* \"#utility.yul\":5447:5500   */\n      tag_374\n      jump\t// in\n    tag_489:\n        /* \"#utility.yul\":5437:5500   */\n      swap2\n      pop\n        /* \"#utility.yul\":5393:5510   */\n      pop\n        /* \"#utility.yul\":5188:5517   */\n      swap3\n      swap2\n      pop\n      pop\n      jump\t// out\n        /* \"#utility.yul\":5523:5641   */\n    tag_383:\n        /* \"#utility.yul\":5610:5634   */\n      tag_491\n        /* \"#utility.yul\":5628:5633   */\n      dup2\n        /* \"#utility.yul\":5610:5634   */\n      tag_372\n      jump\t// in\n    tag_491:\n        /* \"#utility.yul\":5605:5608   */\n      dup3\n        /* \"#utility.yul\":5598:5635   */\n      mstore\n        /* \"#utility.yul\":5523:5641   */\n      pop\n      pop\n      jump\t// out\n        /* \"#utility.yul\":5647:5869   */\n    tag_108:\n        /* \"#utility.yul\":5740:5744   */\n      0x00\n        /* \"#utility.yul\":5778:5780   */\n      0x20\n        /* \"#utility.yul\":5767:5776   */\n      dup3\n        /* \"#utility.yul\":5763:5781   */\n      add\n        /* \"#utility.yul\":5755:5781   */\n      swap1\n      pop\n        /* \"#utility.yul\":5791:5862   */\n      tag_493\n        /* \"#utility.yul\":5859:5860   */\n      0x00\n        /* \"#utility.yul\":5848:5857   */\n      dup4\n        /* \"#utility.yul\":5844:5861   */\n      add\n        /* \"#utility.yul\":5835:5841   */\n      dup5\n        /* \"#utility.yul\":5791:5862   */\n      tag_383\n      jump\t// in\n    tag_493:\n        /* \"#utility.yul\":5647:5869   */\n      swap3\n      swap2\n      pop\n      pop\n      jump\t// out\n        /* \"#utility.yul\":5875:6317   */\n    tag_114:\n        /* \"#utility.yul\":6024:6028   */\n      0x00\n        /* \"#utility.yul\":6062:6064   */\n      0x60\n        /* \"#utility.yul\":6051:6060   */\n      dup3\n        /* \"#utility.yul\":6047:6065   */\n      add\n        /* \"#utility.yul\":6039:6065   */\n      swap1\n      pop\n        /* \"#utility.yul\":6075:6146   */\n      tag_495\n        /* \"#utility.yul\":6143:6144   */\n      0x00\n        /* \"#utility.yul\":6132:6141   */\n      dup4\n        /* \"#utility.yul\":6128:6145   */\n      add\n        /* \"#utility.yul\":6119:6125   */\n      dup7\n        /* \"#utility.yul\":6075:6146   */\n      tag_380\n      jump\t// in\n    tag_495:\n        /* \"#utility.yul\":6156:6228   */\n      tag_496\n        /* \"#utility.yul\":6224:6226   */\n      0x20\n        /* \"#utility.yul\":6213:6222   */\n      dup4\n        /* \"#utility.yul\":6209:6227   */\n      add\n        /* \"#utility.yul\":6200:6206   */\n      dup6\n        /* \"#utility.yul\":6156:6228   */\n      tag_380\n      jump\t// in\n    tag_496:\n        /* \"#utility.yul\":6238:6310   */\n      tag_497\n        /* \"#utility.yul\":6306:6308   */\n      0x40\n        /* \"#utility.yul\":6295:6304   */\n      dup4\n        /* \"#utility.yul\":6291:6309   */\n      add\n        /* \"#utility.yul\":6282:6288   */\n      dup5\n        /* \"#utility.yul\":6238:6310   */\n      tag_380\n      jump\t// in\n    tag_497:\n        /* \"#utility.yul\":5875:6317   */\n      swap5\n      swap4\n      pop\n      pop\n      pop\n      pop\n      jump\t// out\n        /* \"#utility.yul\":6323:6797   */\n    tag_140:\n        /* \"#utility.yul\":6391:6397   */\n      0x00\n        /* \"#utility.yul\":6399:6405   */\n      dup1\n        /* \"#utility.yul\":6448:6450   */\n      0x40\n        /* \"#utility.yul\":6436:6445   */\n      dup4\n        /* \"#utility.yul\":6427:6434   */\n      dup6\n        /* \"#utility.yul\":6423:6446   */\n      sub\n        /* \"#utility.yul\":6419:6451   */\n      slt\n        /* \"#utility.yul\":6416:6535   */\n      iszero\n      tag_499\n      jumpi\n        /* \"#utility.yul\":6454:6533   */\n      tag_500\n      tag_369\n      jump\t// in\n    tag_500:\n        /* \"#utility.yul\":6416:6535   */\n    tag_499:\n        /* \"#utility.yul\":6574:6575   */\n      0x00\n        /* \"#utility.yul\":6599:6652   */\n      tag_501\n        /* \"#utility.yul\":6644:6651   */\n      dup6\n        /* \"#utility.yul\":6635:6641   */\n      dup3\n        /* \"#utility.yul\":6624:6633   */\n      dup7\n        /* \"#utility.yul\":6620:6642   */\n      add\n        /* \"#utility.yul\":6599:6652   */\n      tag_374\n      jump\t// in\n    tag_501:\n        /* \"#utility.yul\":6589:6652   */\n      swap3\n      pop\n        /* \"#utility.yul\":6545:6662   */\n      pop\n        /* \"#utility.yul\":6701:6703   */\n      0x20\n        /* \"#utility.yul\":6727:6780   */\n      tag_502\n        /* \"#utility.yul\":6772:6779   */\n      dup6\n        /* \"#utility.yul\":6763:6769   */\n      dup3\n        /* \"#utility.yul\":6752:6761   */\n      dup7\n        /* \"#utility.yul\":6748:6770   */\n      add\n        /* \"#utility.yul\":6727:6780   */\n      tag_374\n      jump\t// in\n    tag_502:\n        /* \"#utility.yul\":6717:6780   */\n      swap2\n      pop\n        /* \"#utility.yul\":6672:6790   */\n      pop\n        /* \"#utility.yul\":6323:6797   */\n      swap3\n      pop\n      swap3\n      swap1\n      pop\n      jump\t// out\n        /* \"#utility.yul\":6803:6983   */\n    tag_384:\n        /* \"#utility.yul\":6851:6928   */\n      0x4e487b7100000000000000000000000000000000000000000000000000000000\n        /* \"#utility.yul\":6848:6849   */\n      0x00\n        /* \"#utility.yul\":6841:6929   */\n      mstore\n        /* \"#utility.yul\":6948:6952   */\n      0x22\n        /* \"#utility.yul\":6945:6946   */\n      0x04\n        /* \"#utility.yul\":6938:6953   */\n      mstore\n        /* \"#utility.yul\":6972:6976   */\n      0x24\n        /* \"#utility.yul\":6969:6970   */\n      0x00\n        /* \"#utility.yul\":6962:6977   */\n      revert\n        /* \"#utility.yul\":6989:7309   */\n    tag_149:\n        /* \"#utility.yul\":7033:7039   */\n      0x00\n        /* \"#utility.yul\":7070:7071   */\n      0x02\n        /* \"#utility.yul\":7064:7068   */\n      dup3\n        /* \"#utility.yul\":7060:7072   */\n      div\n        /* \"#utility.yul\":7050:7072   */\n      swap1\n      pop\n        /* \"#utility.yul\":7117:7118   */\n      0x01\n        /* \"#utility.yul\":7111:7115   */\n      dup3\n        /* \"#utility.yul\":7107:7119   */\n      and\n        /* \"#utility.yul\":7138:7156   */\n      dup1\n        /* \"#utility.yul\":7128:7209   */\n      tag_505\n      jumpi\n        /* \"#utility.yul\":7194:7198   */\n      0x7f\n        /* \"#utility.yul\":7186:7192   */\n      dup3\n        /* \"#utility.yul\":7182:7199   */\n      and\n        /* \"#utility.yul\":7172:7199   */\n      swap2\n      pop\n        /* \"#utility.yul\":7128:7209   */\n    tag_505:\n        /* \"#utility.yul\":7256:7258   */\n      0x20\n        /* \"#utility.yul\":7248:7254   */\n      dup3\n        /* \"#utility.yul\":7245:7259   */\n      lt\n        /* \"#utility.yul\":7225:7243   */\n      dup2\n        /* \"#utility.yul\":7222:7260   */\n      sub\n        /* \"#utility.yul\":7219:7303   */\n      tag_506\n      jumpi\n        /* \"#utility.yul\":7275:7293   */\n      tag_507\n      tag_384\n      jump\t// in\n    tag_507:\n        /* \"#utility.yul\":7219:7303   */\n    tag_506:\n        /* \"#utility.yul\":7040:7309   */\n      pop\n        /* \"#utility.yul\":6989:7309   */\n      swap2\n      swap1\n      pop\n      jump\t// out\n        /* \"#utility.yul\":7315:7536   */\n    tag_385:\n        /* \"#utility.yul\":7455:7489   */\n      0x4d75737420756e7374616b65206d6f7265207468616e207a65726f20746f6b65\n        /* \"#utility.yul\":7451:7452   */\n      0x00\n        /* \"#utility.yul\":7443:7449   */\n      dup3\n        /* \"#utility.yul\":7439:7453   */\n      add\n        /* \"#utility.yul\":7432:7490   */\n      mstore\n        /* \"#utility.yul\":7524:7528   */\n      0x6e73000000000000000000000000000000000000000000000000000000000000\n        /* \"#utility.yul\":7519:7521   */\n      0x20\n        /* \"#utility.yul\":7511:7517   */\n      dup3\n        /* \"#utility.yul\":7507:7522   */\n      add\n        /* \"#utility.yul\":7500:7529   */\n      mstore\n        /* \"#utility.yul\":7315:7536   */\n      pop\n      jump\t// out\n        /* \"#utility.yul\":7542:7908   */\n    tag_386:\n        /* \"#utility.yul\":7684:7687   */\n      0x00\n        /* \"#utility.yul\":7705:7772   */\n      tag_510\n        /* \"#utility.yul\":7769:7771   */\n      0x22\n        /* \"#utility.yul\":7764:7767   */\n      dup4\n        /* \"#utility.yul\":7705:7772   */\n      tag_364\n      jump\t// in\n    tag_510:\n        /* \"#utility.yul\":7698:7772   */\n      swap2\n      pop\n        /* \"#utility.yul\":7781:7874   */\n      tag_511\n        /* \"#utility.yul\":7870:7873   */\n      dup3\n        /* \"#utility.yul\":7781:7874   */\n      tag_385\n      jump\t// in\n    tag_511:\n        /* \"#utility.yul\":7899:7901   */\n      0x40\n        /* \"#utility.yul\":7894:7897   */\n      dup3\n        /* \"#utility.yul\":7890:7902   */\n      add\n        /* \"#utility.yul\":7883:7902   */\n      swap1\n      pop\n        /* \"#utility.yul\":7542:7908   */\n      swap2\n      swap1\n      pop\n      jump\t// out\n        /* \"#utility.yul\":7914:8333   */\n    tag_169:\n        /* \"#utility.yul\":8080:8084   */\n      0x00\n        /* \"#utility.yul\":8118:8120   */\n      0x20\n        /* \"#utility.yul\":8107:8116   */\n      dup3\n        /* \"#utility.yul\":8103:8121   */\n      add\n        /* \"#utility.yul\":8095:8121   */\n      swap1\n      pop\n        /* \"#utility.yul\":8167:8176   */\n      dup2\n        /* \"#utility.yul\":8161:8165   */\n      dup2\n        /* \"#utility.yul\":8157:8177   */\n      sub\n        /* \"#utility.yul\":8153:8154   */\n      0x00\n        /* \"#utility.yul\":8142:8151   */\n      dup4\n        /* \"#utility.yul\":8138:8155   */\n      add\n        /* \"#utility.yul\":8131:8178   */\n      mstore\n        /* \"#utility.yul\":8195:8326   */\n      tag_513\n        /* \"#utility.yul\":8321:8325   */\n      dup2\n        /* \"#utility.yul\":8195:8326   */\n      tag_386\n      jump\t// in\n    tag_513:\n        /* \"#utility.yul\":8187:8326   */\n      swap1\n      pop\n        /* \"#utility.yul\":7914:8333   */\n      swap2\n      swap1\n      pop\n      jump\t// out\n        /* \"#utility.yul\":8339:8517   */\n    tag_387:\n        /* \"#utility.yul\":8479:8509   */\n      0x4e6f7420456e6f75676820546f6b656e7320546f20556e7374616b6500000000\n        /* \"#utility.yul\":8475:8476   */\n      0x00\n        /* \"#utility.yul\":8467:8473   */\n      dup3\n        /* \"#utility.yul\":8463:8477   */\n      add\n        /* \"#utility.yul\":8456:8510   */\n      mstore\n        /* \"#utility.yul\":8339:8517   */\n      pop\n      jump\t// out\n        /* \"#utility.yul\":8523:8889   */\n    tag_388:\n        /* \"#utility.yul\":8665:8668   */\n      0x00\n        /* \"#utility.yul\":8686:8753   */\n      tag_516\n        /* \"#utility.yul\":8750:8752   */\n      0x1c\n        /* \"#utility.yul\":8745:8748   */\n      dup4\n        /* \"#utility.yul\":8686:8753   */\n      tag_364\n      jump\t// in\n    tag_516:\n        /* \"#utility.yul\":8679:8753   */\n      swap2\n      pop\n        /* \"#utility.yul\":8762:8855   */\n      tag_517\n        /* \"#utility.yul\":8851:8854   */\n      dup3\n        /* \"#utility.yul\":8762:8855   */\n      tag_387\n      jump\t// in\n    tag_517:\n        /* \"#utility.yul\":8880:8882   */\n      0x20\n        /* \"#utility.yul\":8875:8878   */\n      dup3\n        /* \"#utility.yul\":8871:8883   */\n      add\n        /* \"#utility.yul\":8864:8883   */\n      swap1\n      pop\n        /* \"#utility.yul\":8523:8889   */\n      swap2\n      swap1\n      pop\n      jump\t// out\n        /* \"#utility.yul\":8895:9314   */\n    tag_172:\n        /* \"#utility.yul\":9061:9065   */\n      0x00\n        /* \"#utility.yul\":9099:9101   */\n      0x20\n        /* \"#utility.yul\":9088:9097   */\n      dup3\n        /* \"#utility.yul\":9084:9102   */\n      add\n        /* \"#utility.yul\":9076:9102   */\n      swap1\n      pop\n        /* \"#utility.yul\":9148:9157   */\n      dup2\n        /* \"#utility.yul\":9142:9146   */\n      dup2\n        /* \"#utility.yul\":9138:9158   */\n      sub\n        /* \"#utility.yul\":9134:9135   */\n      0x00\n        /* \"#utility.yul\":9123:9132   */\n      dup4\n        /* \"#utility.yul\":9119:9136   */\n      add\n        /* \"#utility.yul\":9112:9159   */\n      mstore\n        /* \"#utility.yul\":9176:9307   */\n      tag_519\n        /* \"#utility.yul\":9302:9306   */\n      dup2\n        /* \"#utility.yul\":9176:9307   */\n      tag_388\n      jump\t// in\n    tag_519:\n        /* \"#utility.yul\":9168:9307   */\n      swap1\n      pop\n        /* \"#utility.yul\":8895:9314   */\n      swap2\n      swap1\n      pop\n      jump\t// out\n        /* \"#utility.yul\":9320:9500   */\n    tag_389:\n        /* \"#utility.yul\":9368:9445   */\n      0x4e487b7100000000000000000000000000000000000000000000000000000000\n        /* \"#utility.yul\":9365:9366   */\n      0x00\n        /* \"#utility.yul\":9358:9446   */\n      mstore\n        /* \"#utility.yul\":9465:9469   */\n      0x11\n        /* \"#utility.yul\":9462:9463   */\n      0x04\n        /* \"#utility.yul\":9455:9470   */\n      mstore\n        /* \"#utility.yul\":9489:9493   */\n      0x24\n        /* \"#utility.yul\":9486:9487   */\n      0x00\n        /* \"#utility.yul\":9479:9494   */\n      revert\n        /* \"#utility.yul\":9506:9700   */\n    tag_176:\n        /* \"#utility.yul\":9546:9550   */\n      0x00\n        /* \"#utility.yul\":9566:9586   */\n      tag_522\n        /* \"#utility.yul\":9584:9585   */\n      dup3\n        /* \"#utility.yul\":9566:9586   */\n      tag_375\n      jump\t// in\n    tag_522:\n        /* \"#utility.yul\":9561:9586   */\n      swap2\n      pop\n        /* \"#utility.yul\":9600:9620   */\n      tag_523\n        /* \"#utility.yul\":9618:9619   */\n      dup4\n        /* \"#utility.yul\":9600:9620   */\n      tag_375\n      jump\t// in\n    tag_523:\n        /* \"#utility.yul\":9595:9620   */\n      swap3\n      pop\n        /* \"#utility.yul\":9644:9645   */\n      dup3\n        /* \"#utility.yul\":9641:9642   */\n      dup3\n        /* \"#utility.yul\":9637:9646   */\n      sub\n        /* \"#utility.yul\":9629:9646   */\n      swap1\n      pop\n        /* \"#utility.yul\":9668:9669   */\n      dup2\n        /* \"#utility.yul\":9662:9666   */\n      dup2\n        /* \"#utility.yul\":9659:9670   */\n      gt\n        /* \"#utility.yul\":9656:9693   */\n      iszero\n      tag_524\n      jumpi\n        /* \"#utility.yul\":9673:9691   */\n      tag_525\n      tag_389\n      jump\t// in\n    tag_525:\n        /* \"#utility.yul\":9656:9693   */\n    tag_524:\n        /* \"#utility.yul\":9506:9700   */\n      swap3\n      swap2\n      pop\n      pop\n      jump\t// out\n        /* \"#utility.yul\":9706:9886   */\n    tag_183:\n        /* \"#utility.yul\":9754:9831   */\n      0x4e487b7100000000000000000000000000000000000000000000000000000000\n        /* \"#utility.yul\":9751:9752   */\n      0x00\n        /* \"#utility.yul\":9744:9832   */\n      mstore\n        /* \"#utility.yul\":9851:9855   */\n      0x32\n        /* \"#utility.yul\":9848:9849   */\n      0x04\n        /* \"#utility.yul\":9841:9856   */\n      mstore\n        /* \"#utility.yul\":9875:9879   */\n      0x24\n        /* \"#utility.yul\":9872:9873   */\n      0x00\n        /* \"#utility.yul\":9865:9880   */\n      revert\n        /* \"#utility.yul\":9892:10072   */\n    tag_195:\n        /* \"#utility.yul\":9940:10017   */\n      0x4e487b7100000000000000000000000000000000000000000000000000000000\n        /* \"#utility.yul\":9937:9938   */\n      0x00\n        /* \"#utility.yul\":9930:10018   */\n      mstore\n        /* \"#utility.yul\":10037:10041   */\n      0x31\n        /* \"#utility.yul\":10034:10035   */\n      0x04\n        /* \"#utility.yul\":10027:10042   */\n      mstore\n        /* \"#utility.yul\":10061:10065   */\n      0x24\n        /* \"#utility.yul\":10058:10059   */\n      0x00\n        /* \"#utility.yul\":10051:10066   */\n      revert\n        /* \"#utility.yul\":10078:10311   */\n    tag_198:\n        /* \"#utility.yul\":10117:10120   */\n      0x00\n        /* \"#utility.yul\":10140:10164   */\n      tag_529\n        /* \"#utility.yul\":10158:10163   */\n      dup3\n        /* \"#utility.yul\":10140:10164   */\n      tag_375\n      jump\t// in\n    tag_529:\n        /* \"#utility.yul\":10131:10164   */\n      swap2\n      pop\n        /* \"#utility.yul\":10186:10252   */\n      0xffffffffffffffffffffffffffffffffffffffffffffffffffffffffffffffff\n        /* \"#utility.yul\":10179:10184   */\n      dup3\n        /* \"#utility.yul\":10176:10253   */\n      sub\n        /* \"#utility.yul\":10173:10276   */\n      tag_530\n      jumpi\n        /* \"#utility.yul\":10256:10274   */\n      tag_531\n      tag_389\n      jump\t// in\n    tag_531:\n        /* \"#utility.yul\":10173:10276   */\n    tag_530:\n        /* \"#utility.yul\":10303:10304   */\n      0x01\n        /* \"#utility.yul\":10296:10301   */\n      dup3\n        /* \"#utility.yul\":10292:10305   */\n      add\n        /* \"#utility.yul\":10285:10305   */\n      swap1\n      pop\n        /* \"#utility.yul\":10078:10311   */\n      swap2\n      swap1\n      pop\n      jump\t// out\n        /* \"#utility.yul\":10317:10727   */\n    tag_203:\n        /* \"#utility.yul\":10357:10364   */\n      0x00\n        /* \"#utility.yul\":10380:10400   */\n      tag_533\n        /* \"#utility.yul\":10398:10399   */\n      dup3\n        /* \"#utility.yul\":10380:10400   */\n      tag_375\n      jump\t// in\n    tag_533:\n        /* \"#utility.yul\":10375:10400   */\n      swap2\n      pop\n        /* \"#utility.yul\":10414:10434   */\n      tag_534\n        /* \"#utility.yul\":10432:10433   */\n      dup4\n        /* \"#utility.yul\":10414:10434   */\n      tag_375\n      jump\t// in\n    tag_534:\n        /* \"#utility.yul\":10409:10434   */\n      swap3\n      pop\n        /* \"#utility.yul\":10469:10470   */\n      dup3\n        /* \"#utility.yul\":10466:10467   */\n      dup3\n        /* \"#utility.yul\":10462:10471   */\n      mul\n        /* \"#utility.yul\":10491:10521   */\n      tag_535\n        /* \"#utility.yul\":10509:10520   */\n      dup2\n        /* \"#utility.yul\":10491:10521   */\n      tag_375\n      jump\t// in\n    tag_535:\n        /* \"#utility.yul\":10480:10521   */\n      swap2\n      pop\n        /* \"#utility.yul\":10670:10671   */\n      dup3\n        /* \"#utility.yul\":10661:10668   */\n      dup3\n        /* \"#utility.yul\":10657:10672   */\n      div\n        /* \"#utility.yul\":10654:10655   */\n      dup5\n        /* \"#utility.yul\":10651:10673   */\n      eq\n        /* \"#utility.yul\":10631:10632   */\n      dup4\n        /* \"#utility.yul\":10624:10633   */\n      iszero\n        /* \"#utility.yul\":10604:10687   */\n      or\n        /* \"#utility.yul\":10581:10720   */\n      tag_536\n      jumpi\n        /* \"#utility.yul\":10700:10718   */\n      tag_537\n      tag_389\n      jump\t// in\n    tag_537:\n        /* \"#utility.yul\":10581:10720   */\n    tag_536:\n        /* \"#utility.yul\":10365:10727   */\n      pop\n        /* \"#utility.yul\":10317:10727   */\n      swap3\n      swap2\n      pop\n      pop\n      jump\t// out\n        /* \"#utility.yul\":10733:10907   */\n    tag_390:\n        /* \"#utility.yul\":10873:10899   */\n      0x496e73756666696369656e74206574686572732073656e740000000000000000\n        /* \"#utility.yul\":10869:10870   */\n      0x00\n        /* \"#utility.yul\":10861:10867   */\n      dup3\n        /* \"#utility.yul\":10857:10871   */\n      add\n        /* \"#utility.yul\":10850:10900   */\n      mstore\n        /* \"#utility.yul\":10733:10907   */\n      pop\n      jump\t// out\n        /* \"#utility.yul\":10913:11279   */\n    tag_391:\n        /* \"#utility.yul\":11055:11058   */\n      0x00\n        /* \"#utility.yul\":11076:11143   */\n      tag_540\n        /* \"#utility.yul\":11140:11142   */\n      0x18\n        /* \"#utility.yul\":11135:11138   */\n      dup4\n        /* \"#utility.yul\":11076:11143   */\n      tag_364\n      jump\t// in\n    tag_540:\n        /* \"#utility.yul\":11069:11143   */\n      swap2\n      pop\n        /* \"#utility.yul\":11152:11245   */\n      tag_541\n        /* \"#utility.yul\":11241:11244   */\n      dup3\n        /* \"#utility.yul\":11152:11245   */\n      tag_390\n      jump\t// in\n    tag_541:\n        /* \"#utility.yul\":11270:11272   */\n      0x20\n        /* \"#utility.yul\":11265:11268   */\n      dup3\n        /* \"#utility.yul\":11261:11273   */\n      add\n        /* \"#utility.yul\":11254:11273   */\n      swap1\n      pop\n        /* \"#utility.yul\":10913:11279   */\n      swap2\n      swap1\n      pop\n      jump\t// out\n        /* \"#utility.yul\":11285:11704   */\n    tag_206:\n        /* \"#utility.yul\":11451:11455   */\n      0x00\n        /* \"#utility.yul\":11489:11491   */\n      0x20\n        /* \"#utility.yul\":11478:11487   */\n      dup3\n        /* \"#utility.yul\":11474:11492   */\n      add\n        /* \"#utility.yul\":11466:11492   */\n      swap1\n      pop\n        /* \"#utility.yul\":11538:11547   */\n      dup2\n        /* \"#utility.yul\":11532:11536   */\n      dup2\n        /* \"#utility.yul\":11528:11548   */\n      sub\n        /* \"#utility.yul\":11524:11525   */\n      0x00\n        /* \"#utility.yul\":11513:11522   */\n      dup4\n        /* \"#utility.yul\":11509:11526   */\n      add\n        /* \"#utility.yul\":11502:11549   */\n      mstore\n        /* \"#utility.yul\":11566:11697   */\n      tag_543\n        /* \"#utility.yul\":11692:11696   */\n      dup2\n        /* \"#utility.yul\":11566:11697   */\n      tag_391\n      jump\t// in\n    tag_543:\n        /* \"#utility.yul\":11558:11697   */\n      swap1\n      pop\n        /* \"#utility.yul\":11285:11704   */\n      swap2\n      swap1\n      pop\n      jump\t// out\n        /* \"#utility.yul\":11710:11879   */\n    tag_392:\n        /* \"#utility.yul\":11850:11871   */\n      0x4e6f207265776172647320746f20636c61696d00000000000000000000000000\n        /* \"#utility.yul\":11846:11847   */\n      0x00\n        /* \"#utility.yul\":11838:11844   */\n      dup3\n        /* \"#utility.yul\":11834:11848   */\n      add\n        /* \"#utility.yul\":11827:11872   */\n      mstore\n        /* \"#utility.yul\":11710:11879   */\n      pop\n      jump\t// out\n        /* \"#utility.yul\":11885:12251   */\n    tag_393:\n        /* \"#utility.yul\":12027:12030   */\n      0x00\n        /* \"#utility.yul\":12048:12115   */\n      tag_546\n        /* \"#utility.yul\":12112:12114   */\n      0x13\n        /* \"#utility.yul\":12107:12110   */\n      dup4\n        /* \"#utility.yul\":12048:12115   */\n      tag_364\n      jump\t// in\n    tag_546:\n        /* \"#utility.yul\":12041:12115   */\n      swap2\n      pop\n        /* \"#utility.yul\":12124:12217   */\n      tag_547\n        /* \"#utility.yul\":12213:12216   */\n      dup3\n        /* \"#utility.yul\":12124:12217   */\n      tag_392\n      jump\t// in\n    tag_547:\n        /* \"#utility.yul\":12242:12244   */\n      0x20\n        /* \"#utility.yul\":12237:12240   */\n      dup3\n        /* \"#utility.yul\":12233:12245   */\n      add\n        /* \"#utility.yul\":12226:12245   */\n      swap1\n      pop\n        /* \"#utility.yul\":11885:12251   */\n      swap2\n      swap1\n      pop\n      jump\t// out\n        /* \"#utility.yul\":12257:12676   */\n    tag_219:\n        /* \"#utility.yul\":12423:12427   */\n      0x00\n        /* \"#utility.yul\":12461:12463   */\n      0x20\n        /* \"#utility.yul\":12450:12459   */\n      dup3\n        /* \"#utility.yul\":12446:12464   */\n      add\n        /* \"#utility.yul\":12438:12464   */\n      swap1\n      pop\n        /* \"#utility.yul\":12510:12519   */\n      dup2\n        /* \"#utility.yul\":12504:12508   */\n      dup2\n        /* \"#utility.yul\":12500:12520   */\n      sub\n        /* \"#utility.yul\":12496:12497   */\n      0x00\n        /* \"#utility.yul\":12485:12494   */\n      dup4\n        /* \"#utility.yul\":12481:12498   */\n      add\n        /* \"#utility.yul\":12474:12521   */\n      mstore\n        /* \"#utility.yul\":12538:12669   */\n      tag_549\n        /* \"#utility.yul\":12664:12668   */\n      dup2\n        /* \"#utility.yul\":12538:12669   */\n      tag_393\n      jump\t// in\n    tag_549:\n        /* \"#utility.yul\":12530:12669   */\n      swap1\n      pop\n        /* \"#utility.yul\":12257:12676   */\n      swap2\n      swap1\n      pop\n      jump\t// out\n        /* \"#utility.yul\":12682:12873   */\n    tag_227:\n        /* \"#utility.yul\":12722:12725   */\n      0x00\n        /* \"#utility.yul\":12741:12761   */\n      tag_551\n        /* \"#utility.yul\":12759:12760   */\n      dup3\n        /* \"#utility.yul\":12741:12761   */\n      tag_375\n      jump\t// in\n    tag_551:\n        /* \"#utility.yul\":12736:12761   */\n      swap2\n      pop\n        /* \"#utility.yul\":12775:12795   */\n      tag_552\n        /* \"#utility.yul\":12793:12794   */\n      dup4\n        /* \"#utility.yul\":12775:12795   */\n      tag_375\n      jump\t// in\n    tag_552:\n        /* \"#utility.yul\":12770:12795   */\n      swap3\n      pop\n        /* \"#utility.yul\":12818:12819   */\n      dup3\n        /* \"#utility.yul\":12815:12816   */\n      dup3\n        /* \"#utility.yul\":12811:12820   */\n      add\n        /* \"#utility.yul\":12804:12820   */\n      swap1\n      pop\n        /* \"#utility.yul\":12839:12842   */\n      dup1\n        /* \"#utility.yul\":12836:12837   */\n      dup3\n        /* \"#utility.yul\":12833:12843   */\n      gt\n        /* \"#utility.yul\":12830:12866   */\n      iszero\n      tag_553\n      jumpi\n        /* \"#utility.yul\":12846:12864   */\n      tag_554\n      tag_389\n      jump\t// in\n    tag_554:\n        /* \"#utility.yul\":12830:12866   */\n    tag_553:\n        /* \"#utility.yul\":12682:12873   */\n      swap3\n      swap2\n      pop\n      pop\n      jump\t// out\n        /* \"#utility.yul\":12879:13048   */\n    tag_394:\n        /* \"#utility.yul\":13019:13040   */\n      0x496e73756666696369656e7420746f6b656e7300000000000000000000000000\n        /* \"#utility.yul\":13015:13016   */\n      0x00\n        /* \"#utility.yul\":13007:13013   */\n      dup3\n        /* \"#utility.yul\":13003:13017   */\n      add\n        /* \"#utility.yul\":12996:13041   */\n      mstore\n        /* \"#utility.yul\":12879:13048   */\n      pop\n      jump\t// out\n        /* \"#utility.yul\":13054:13420   */\n    tag_395:\n        /* \"#utility.yul\":13196:13199   */\n      0x00\n        /* \"#utility.yul\":13217:13284   */\n      tag_557\n        /* \"#utility.yul\":13281:13283   */\n      0x13\n        /* \"#utility.yul\":13276:13279   */\n      dup4\n        /* \"#utility.yul\":13217:13284   */\n      tag_364\n      jump\t// in\n    tag_557:\n        /* \"#utility.yul\":13210:13284   */\n      swap2\n      pop\n        /* \"#utility.yul\":13293:13386   */\n      tag_558\n        /* \"#utility.yul\":13382:13385   */\n      dup3\n        /* \"#utility.yul\":13293:13386   */\n      tag_394\n      jump\t// in\n    tag_558:\n        /* \"#utility.yul\":13411:13413   */\n      0x20\n        /* \"#utility.yul\":13406:13409   */\n      dup3\n        /* \"#utility.yul\":13402:13414   */\n      add\n        /* \"#utility.yul\":13395:13414   */\n      swap1\n      pop\n        /* \"#utility.yul\":13054:13420   */\n      swap2\n      swap1\n      pop\n      jump\t// out\n        /* \"#utility.yul\":13426:13845   */\n    tag_240:\n        /* \"#utility.yul\":13592:13596   */\n      0x00\n        /* \"#utility.yul\":13630:13632   */\n      0x20\n        /* \"#utility.yul\":13619:13628   */\n      dup3\n        /* \"#utility.yul\":13615:13633   */\n      add\n        /* \"#utility.yul\":13607:13633   */\n      swap1\n      pop\n        /* \"#utility.yul\":13679:13688   */\n      dup2\n        /* \"#utility.yul\":13673:13677   */\n      dup2\n        /* \"#utility.yul\":13669:13689   */\n      sub\n        /* \"#utility.yul\":13665:13666   */\n      0x00\n        /* \"#utility.yul\":13654:13663   */\n      dup4\n        /* \"#utility.yul\":13650:13667   */\n      add\n        /* \"#utility.yul\":13643:13690   */\n      mstore\n        /* \"#utility.yul\":13707:13838   */\n      tag_560\n        /* \"#utility.yul\":13833:13837   */\n      dup2\n        /* \"#utility.yul\":13707:13838   */\n      tag_395\n      jump\t// in\n    tag_560:\n        /* \"#utility.yul\":13699:13838   */\n      swap1\n      pop\n        /* \"#utility.yul\":13426:13845   */\n      swap2\n      swap1\n      pop\n      jump\t// out\n        /* \"#utility.yul\":13851:14075   */\n    tag_396:\n        /* \"#utility.yul\":13991:14025   */\n      0x45524332303a2064656372656173656420616c6c6f77616e63652062656c6f77\n        /* \"#utility.yul\":13987:13988   */\n      0x00\n        /* \"#utility.yul\":13979:13985   */\n      dup3\n        /* \"#utility.yul\":13975:13989   */\n      add\n        /* \"#utility.yul\":13968:14026   */\n      mstore\n        /* \"#utility.yul\":14060:14067   */\n      0x207a65726f000000000000000000000000000000000000000000000000000000\n        /* \"#utility.yul\":14055:14057   */\n      0x20\n        /* \"#utility.yul\":14047:14053   */\n      dup3\n        /* \"#utility.yul\":14043:14058   */\n      add\n        /* \"#utility.yul\":14036:14068   */\n      mstore\n        /* \"#utility.yul\":13851:14075   */\n      pop\n      jump\t// out\n        /* \"#utility.yul\":14081:14447   */\n    tag_397:\n        /* \"#utility.yul\":14223:14226   */\n      0x00\n        /* \"#utility.yul\":14244:14311   */\n      tag_563\n        /* \"#utility.yul\":14308:14310   */\n      0x25\n        /* \"#utility.yul\":14303:14306   */\n      dup4\n        /* \"#utility.yul\":14244:14311   */\n      tag_364\n      jump\t// in\n    tag_563:\n        /* \"#utility.yul\":14237:14311   */\n      swap2\n      pop\n        /* \"#utility.yul\":14320:14413   */\n      tag_564\n        /* \"#utility.yul\":14409:14412   */\n      dup3\n        /* \"#utility.yul\":14320:14413   */\n      tag_396\n      jump\t// in\n    tag_564:\n        /* \"#utility.yul\":14438:14440   */\n      0x40\n        /* \"#utility.yul\":14433:14436   */\n      dup3\n        /* \"#utility.yul\":14429:14441   */\n      add\n        /* \"#utility.yul\":14422:14441   */\n      swap1\n      pop\n        /* \"#utility.yul\":14081:14447   */\n      swap2\n      swap1\n      pop\n      jump\t// out\n        /* \"#utility.yul\":14453:14872   */\n    tag_269:\n        /* \"#utility.yul\":14619:14623   */\n      0x00\n        /* \"#utility.yul\":14657:14659   */\n      0x20\n        /* \"#utility.yul\":14646:14655   */\n      dup3\n        /* \"#utility.yul\":14642:14660   */\n      add\n        /* \"#utility.yul\":14634:14660   */\n      swap1\n      pop\n        /* \"#utility.yul\":14706:14715   */\n      dup2\n        /* \"#utility.yul\":14700:14704   */\n      dup2\n        /* \"#utility.yul\":14696:14716   */\n      sub\n        /* \"#utility.yul\":14692:14693   */\n      0x00\n        /* \"#utility.yul\":14681:14690   */\n      dup4\n        /* \"#utility.yul\":14677:14694   */\n      add\n        /* \"#utility.yul\":14670:14717   */\n      mstore\n        /* \"#utility.yul\":14734:14865   */\n      tag_566\n        /* \"#utility.yul\":14860:14864   */\n      dup2\n        /* \"#utility.yul\":14734:14865   */\n      tag_397\n      jump\t// in\n    tag_566:\n        /* \"#utility.yul\":14726:14865   */\n      swap1\n      pop\n        /* \"#utility.yul\":14453:14872   */\n      swap2\n      swap1\n      pop\n      jump\t// out\n        /* \"#utility.yul\":14878:15060   */\n    tag_398:\n        /* \"#utility.yul\":15018:15052   */\n      0x4d757374207374616b65206d6f7265207468616e207a65726f20746f6b656e73\n        /* \"#utility.yul\":15014:15015   */\n      0x00\n        /* \"#utility.yul\":15006:15012   */\n      dup3\n        /* \"#utility.yul\":15002:15016   */\n      add\n        /* \"#utility.yul\":14995:15053   */\n      mstore\n        /* \"#utility.yul\":14878:15060   */\n      pop\n      jump\t// out\n        /* \"#utility.yul\":15066:15432   */\n    tag_399:\n        /* \"#utility.yul\":15208:15211   */\n      0x00\n        /* \"#utility.yul\":15229:15296   */\n      tag_569\n        /* \"#utility.yul\":15293:15295   */\n      0x20\n        /* \"#utility.yul\":15288:15291   */\n      dup4\n        /* \"#utility.yul\":15229:15296   */\n      tag_364\n      jump\t// in\n    tag_569:\n        /* \"#utility.yul\":15222:15296   */\n      swap2\n      pop\n        /* \"#utility.yul\":15305:15398   */\n      tag_570\n        /* \"#utility.yul\":15394:15397   */\n      dup3\n        /* \"#utility.yul\":15305:15398   */\n      tag_398\n      jump\t// in\n    tag_570:\n        /* \"#utility.yul\":15423:15425   */\n      0x20\n        /* \"#utility.yul\":15418:15421   */\n      dup3\n        /* \"#utility.yul\":15414:15426   */\n      add\n        /* \"#utility.yul\":15407:15426   */\n      swap1\n      pop\n        /* \"#utility.yul\":15066:15432   */\n      swap2\n      swap1\n      pop\n      jump\t// out\n        /* \"#utility.yul\":15438:15857   */\n    tag_274:\n        /* \"#utility.yul\":15604:15608   */\n      0x00\n        /* \"#utility.yul\":15642:15644   */\n      0x20\n        /* \"#utility.yul\":15631:15640   */\n      dup3\n        /* \"#utility.yul\":15627:15645   */\n      add\n        /* \"#utility.yul\":15619:15645   */\n      swap1\n      pop\n        /* \"#utility.yul\":15691:15700   */\n      dup2\n        /* \"#utility.yul\":15685:15689   */\n      dup2\n        /* \"#utility.yul\":15681:15701   */\n      sub\n        /* \"#utility.yul\":15677:15678   */\n      0x00\n        /* \"#utility.yul\":15666:15675   */\n      dup4\n        /* \"#utility.yul\":15662:15679   */\n      add\n        /* \"#utility.yul\":15655:15702   */\n      mstore\n        /* \"#utility.yul\":15719:15850   */\n      tag_572\n        /* \"#utility.yul\":15845:15849   */\n      dup2\n        /* \"#utility.yul\":15719:15850   */\n      tag_399\n      jump\t// in\n    tag_572:\n        /* \"#utility.yul\":15711:15850   */\n      swap1\n      pop\n        /* \"#utility.yul\":15438:15857   */\n      swap2\n      swap1\n      pop\n      jump\t// out\n        /* \"#utility.yul\":15863:16084   */\n    tag_400:\n        /* \"#utility.yul\":16003:16037   */\n      0x4e6f7420456e6f7567682042616c616e636520546f6b656e7320546f20537461\n        /* \"#utility.yul\":15999:16000   */\n      0x00\n        /* \"#utility.yul\":15991:15997   */\n      dup3\n        /* \"#utility.yul\":15987:16001   */\n      add\n        /* \"#utility.yul\":15980:16038   */\n      mstore\n        /* \"#utility.yul\":16072:16076   */\n      0x6b65000000000000000000000000000000000000000000000000000000000000\n        /* \"#utility.yul\":16067:16069   */\n      0x20\n        /* \"#utility.yul\":16059:16065   */\n      dup3\n        /* \"#utility.yul\":16055:16070   */\n      add\n        /* \"#utility.yul\":16048:16077   */\n      mstore\n        /* \"#utility.yul\":15863:16084   */\n      pop\n      jump\t// out\n        /* \"#utility.yul\":16090:16456   */\n    tag_401:\n        /* \"#utility.yul\":16232:16235   */\n      0x00\n        /* \"#utility.yul\":16253:16320   */\n      tag_575\n        /* \"#utility.yul\":16317:16319   */\n      0x22\n        /* \"#utility.yul\":16312:16315   */\n      dup4\n        /* \"#utility.yul\":16253:16320   */\n      tag_364\n      jump\t// in\n    tag_575:\n        /* \"#utility.yul\":16246:16320   */\n      swap2\n      pop\n        /* \"#utility.yul\":16329:16422   */\n      tag_576\n        /* \"#utility.yul\":16418:16421   */\n      dup3\n        /* \"#utility.yul\":16329:16422   */\n      tag_400\n      jump\t// in\n    tag_576:\n        /* \"#utility.yul\":16447:16449   */\n      0x40\n        /* \"#utility.yul\":16442:16445   */\n      dup3\n        /* \"#utility.yul\":16438:16450   */\n      add\n        /* \"#utility.yul\":16431:16450   */\n      swap1\n      pop\n        /* \"#utility.yul\":16090:16456   */\n      swap2\n      swap1\n      pop\n      jump\t// out\n        /* \"#utility.yul\":16462:16881   */\n    tag_278:\n        /* \"#utility.yul\":16628:16632   */\n      0x00\n        /* \"#utility.yul\":16666:16668   */\n      0x20\n        /* \"#utility.yul\":16655:16664   */\n      dup3\n        /* \"#utility.yul\":16651:16669   */\n      add\n        /* \"#utility.yul\":16643:16669   */\n      swap1\n      pop\n        /* \"#utility.yul\":16715:16724   */\n      dup2\n        /* \"#utility.yul\":16709:16713   */\n      dup2\n        /* \"#utility.yul\":16705:16725   */\n      sub\n        /* \"#utility.yul\":16701:16702   */\n      0x00\n        /* \"#utility.yul\":16690:16699   */\n      dup4\n        /* \"#utility.yul\":16686:16703   */\n      add\n        /* \"#utility.yul\":16679:16726   */\n      mstore\n        /* \"#utility.yul\":16743:16874   */\n      tag_578\n        /* \"#utility.yul\":16869:16873   */\n      dup2\n        /* \"#utility.yul\":16743:16874   */\n      tag_401\n      jump\t// in\n    tag_578:\n        /* \"#utility.yul\":16735:16874   */\n      swap1\n      pop\n        /* \"#utility.yul\":16462:16881   */\n      swap2\n      swap1\n      pop\n      jump\t// out\n        /* \"#utility.yul\":16887:17112   */\n    tag_402:\n        /* \"#utility.yul\":17027:17061   */\n      0x4f776e61626c653a206e6577206f776e657220697320746865207a65726f2061\n        /* \"#utility.yul\":17023:17024   */\n      0x00\n        /* \"#utility.yul\":17015:17021   */\n      dup3\n        /* \"#utility.yul\":17011:17025   */\n      add\n        /* \"#utility.yul\":17004:17062   */\n      mstore\n        /* \"#utility.yul\":17096:17104   */\n      0x6464726573730000000000000000000000000000000000000000000000000000\n        /* \"#utility.yul\":17091:17093   */\n      0x20\n        /* \"#utility.yul\":17083:17089   */\n      dup3\n        /* \"#utility.yul\":17079:17094   */\n      add\n        /* \"#utility.yul\":17072:17105   */\n      mstore\n        /* \"#utility.yul\":16887:17112   */\n      pop\n      jump\t// out\n        /* \"#utility.yul\":17118:17484   */\n    tag_403:\n        /* \"#utility.yul\":17260:17263   */\n      0x00\n        /* \"#utility.yul\":17281:17348   */\n      tag_581\n        /* \"#utility.yul\":17345:17347   */\n      0x26\n        /* \"#utility.yul\":17340:17343   */\n      dup4\n        /* \"#utility.yul\":17281:17348   */\n      tag_364\n      jump\t// in\n    tag_581:\n        /* \"#utility.yul\":17274:17348   */\n      swap2\n      pop\n        /* \"#utility.yul\":17357:17450   */\n      tag_582\n        /* \"#utility.yul\":17446:17449   */\n      dup3\n        /* \"#utility.yul\":17357:17450   */\n      tag_402\n      jump\t// in\n    tag_582:\n        /* \"#utility.yul\":17475:17477   */\n      0x40\n        /* \"#utility.yul\":17470:17473   */\n      dup3\n        /* \"#utility.yul\":17466:17478   */\n      add\n        /* \"#utility.yul\":17459:17478   */\n      swap1\n      pop\n        /* \"#utility.yul\":17118:17484   */\n      swap2\n      swap1\n      pop\n      jump\t// out\n        /* \"#utility.yul\":17490:17909   */\n    tag_294:\n        /* \"#utility.yul\":17656:17660   */\n      0x00\n        /* \"#utility.yul\":17694:17696   */\n      0x20\n        /* \"#utility.yul\":17683:17692   */\n      dup3\n        /* \"#utility.yul\":17679:17697   */\n      add\n        /* \"#utility.yul\":17671:17697   */\n      swap1\n      pop\n        /* \"#utility.yul\":17743:17752   */\n      dup2\n        /* \"#utility.yul\":17737:17741   */\n      dup2\n        /* \"#utility.yul\":17733:17753   */\n      sub\n        /* \"#utility.yul\":17729:17730   */\n      0x00\n        /* \"#utility.yul\":17718:17727   */\n      dup4\n        /* \"#utility.yul\":17714:17731   */\n      add\n        /* \"#utility.yul\":17707:17754   */\n      mstore\n        /* \"#utility.yul\":17771:17902   */\n      tag_584\n        /* \"#utility.yul\":17897:17901   */\n      dup2\n        /* \"#utility.yul\":17771:17902   */\n      tag_403\n      jump\t// in\n    tag_584:\n        /* \"#utility.yul\":17763:17902   */\n      swap1\n      pop\n        /* \"#utility.yul\":17490:17909   */\n      swap2\n      swap1\n      pop\n      jump\t// out\n        /* \"#utility.yul\":17915:18138   */\n    tag_404:\n        /* \"#utility.yul\":18055:18089   */\n      0x45524332303a20617070726f76652066726f6d20746865207a65726f20616464\n        /* \"#utility.yul\":18051:18052   */\n      0x00\n        /* \"#utility.yul\":18043:18049   */\n      dup3\n        /* \"#utility.yul\":18039:18053   */\n      add\n        /* \"#utility.yul\":18032:18090   */\n      mstore\n        /* \"#utility.yul\":18124:18130   */\n      0x7265737300000000000000000000000000000000000000000000000000000000\n        /* \"#utility.yul\":18119:18121   */\n      0x20\n        /* \"#utility.yul\":18111:18117   */\n      dup3\n        /* \"#utility.yul\":18107:18122   */\n      add\n        /* \"#utility.yul\":18100:18131   */\n      mstore\n        /* \"#utility.yul\":17915:18138   */\n      pop\n      jump\t// out\n        /* \"#utility.yul\":18144:18510   */\n    tag_405:\n        /* \"#utility.yul\":18286:18289   */\n      0x00\n        /* \"#utility.yul\":18307:18374   */\n      tag_587\n        /* \"#utility.yul\":18371:18373   */\n      0x24\n        /* \"#utility.yul\":18366:18369   */\n      dup4\n        /* \"#utility.yul\":18307:18374   */\n      tag_364\n      jump\t// in\n    tag_587:\n        /* \"#utility.yul\":18300:18374   */\n      swap2\n      pop\n        /* \"#utility.yul\":18383:18476   */\n      tag_588\n        /* \"#utility.yul\":18472:18475   */\n      dup3\n        /* \"#utility.yul\":18383:18476   */\n      tag_404\n      jump\t// in\n    tag_588:\n        /* \"#utility.yul\":18501:18503   */\n      0x40\n        /* \"#utility.yul\":18496:18499   */\n      dup3\n        /* \"#utility.yul\":18492:18504   */\n      add\n        /* \"#utility.yul\":18485:18504   */\n      swap1\n      pop\n        /* \"#utility.yul\":18144:18510   */\n      swap2\n      swap1\n      pop\n      jump\t// out\n        /* \"#utility.yul\":18516:18935   */\n    tag_300:\n        /* \"#utility.yul\":18682:18686   */\n      0x00\n        /* \"#utility.yul\":18720:18722   */\n      0x20\n        /* \"#utility.yul\":18709:18718   */\n      dup3\n        /* \"#utility.yul\":18705:18723   */\n      add\n        /* \"#utility.yul\":18697:18723   */\n      swap1\n      pop\n        /* \"#utility.yul\":18769:18778   */\n      dup2\n        /* \"#utility.yul\":18763:18767   */\n      dup2\n        /* \"#utility.yul\":18759:18779   */\n      sub\n        /* \"#utility.yul\":18755:18756   */\n      0x00\n        /* \"#utility.yul\":18744:18753   */\n      dup4\n        /* \"#utility.yul\":18740:18757   */\n      add\n        /* \"#utility.yul\":18733:18780   */\n      mstore\n        /* \"#utility.yul\":18797:18928   */\n      tag_590\n        /* \"#utility.yul\":18923:18927   */\n      dup2\n        /* \"#utility.yul\":18797:18928   */\n      tag_405\n      jump\t// in\n    tag_590:\n        /* \"#utility.yul\":18789:18928   */\n      swap1\n      pop\n        /* \"#utility.yul\":18516:18935   */\n      swap2\n      swap1\n      pop\n      jump\t// out\n        /* \"#utility.yul\":18941:19162   */\n    tag_406:\n        /* \"#utility.yul\":19081:19115   */\n      0x45524332303a20617070726f766520746f20746865207a65726f206164647265\n        /* \"#utility.yul\":19077:19078   */\n      0x00\n        /* \"#utility.yul\":19069:19075   */\n      dup3\n        /* \"#utility.yul\":19065:19079   */\n      add\n        /* \"#utility.yul\":19058:19116   */\n      mstore\n        /* \"#utility.yul\":19150:19154   */\n      0x7373000000000000000000000000000000000000000000000000000000000000\n        /* \"#utility.yul\":19145:19147   */\n      0x20\n        /* \"#utility.yul\":19137:19143   */\n      dup3\n        /* \"#utility.yul\":19133:19148   */\n      add\n        /* \"#utility.yul\":19126:19155   */\n      mstore\n        /* \"#utility.yul\":18941:19162   */\n      pop\n      jump\t// out\n        /* \"#utility.yul\":19168:19534   */\n    tag_407:\n        /* \"#utility.yul\":19310:19313   */\n      0x00\n        /* \"#utility.yul\":19331:19398   */\n      tag_593\n        /* \"#utility.yul\":19395:19397   */\n      0x22\n        /* \"#utility.yul\":19390:19393   */\n      dup4\n        /* \"#utility.yul\":19331:19398   */\n      tag_364\n      jump\t// in\n    tag_593:\n        /* \"#utility.yul\":19324:19398   */\n      swap2\n      pop\n        /* \"#utility.yul\":19407:19500   */\n      tag_594\n        /* \"#utility.yul\":19496:19499   */\n      dup3\n        /* \"#utility.yul\":19407:19500   */\n      tag_406\n      jump\t// in\n    tag_594:\n        /* \"#utility.yul\":19525:19527   */\n      0x40\n        /* \"#utility.yul\":19520:19523   */\n      dup3\n        /* \"#utility.yul\":19516:19528   */\n      add\n        /* \"#utility.yul\":19509:19528   */\n      swap1\n      pop\n        /* \"#utility.yul\":19168:19534   */\n      swap2\n      swap1\n      pop\n      jump\t// out\n        /* \"#utility.yul\":19540:19959   */\n    tag_303:\n        /* \"#utility.yul\":19706:19710   */\n      0x00\n        /* \"#utility.yul\":19744:19746   */\n      0x20\n        /* \"#utility.yul\":19733:19742   */\n      dup3\n        /* \"#utility.yul\":19729:19747   */\n      add\n        /* \"#utility.yul\":19721:19747   */\n      swap1\n      pop\n        /* \"#utility.yul\":19793:19802   */\n      dup2\n        /* \"#utility.yul\":19787:19791   */\n      dup2\n        /* \"#utility.yul\":19783:19803   */\n      sub\n        /* \"#utility.yul\":19779:19780   */\n      0x00\n        /* \"#utility.yul\":19768:19777   */\n      dup4\n        /* \"#utility.yul\":19764:19781   */\n      add\n        /* \"#utility.yul\":19757:19804   */\n      mstore\n        /* \"#utility.yul\":19821:19952   */\n      tag_596\n        /* \"#utility.yul\":19947:19951   */\n      dup2\n        /* \"#utility.yul\":19821:19952   */\n      tag_407\n      jump\t// in\n    tag_596:\n        /* \"#utility.yul\":19813:19952   */\n      swap1\n      pop\n        /* \"#utility.yul\":19540:19959   */\n      swap2\n      swap1\n      pop\n      jump\t// out\n        /* \"#utility.yul\":19965:20144   */\n    tag_408:\n        /* \"#utility.yul\":20105:20136   */\n      0x45524332303a20696e73756666696369656e7420616c6c6f77616e6365000000\n        /* \"#utility.yul\":20101:20102   */\n      0x00\n        /* \"#utility.yul\":20093:20099   */\n      dup3\n        /* \"#utility.yul\":20089:20103   */\n      add\n        /* \"#utility.yul\":20082:20137   */\n      mstore\n        /* \"#utility.yul\":19965:20144   */\n      pop\n      jump\t// out\n        /* \"#utility.yul\":20150:20516   */\n    tag_409:\n        /* \"#utility.yul\":20292:20295   */\n      0x00\n        /* \"#utility.yul\":20313:20380   */\n      tag_599\n        /* \"#utility.yul\":20377:20379   */\n      0x1d\n        /* \"#utility.yul\":20372:20375   */\n      dup4\n        /* \"#utility.yul\":20313:20380   */\n      tag_364\n      jump\t// in\n    tag_599:\n        /* \"#utility.yul\":20306:20380   */\n      swap2\n      pop\n        /* \"#utility.yul\":20389:20482   */\n      tag_600\n        /* \"#utility.yul\":20478:20481   */\n      dup3\n        /* \"#utility.yul\":20389:20482   */\n      tag_408\n      jump\t// in\n    tag_600:\n        /* \"#utility.yul\":20507:20509   */\n      0x20\n        /* \"#utility.yul\":20502:20505   */\n      dup3\n        /* \"#utility.yul\":20498:20510   */\n      add\n        /* \"#utility.yul\":20491:20510   */\n      swap1\n      pop\n        /* \"#utility.yul\":20150:20516   */\n      swap2\n      swap1\n      pop\n      jump\t// out\n        /* \"#utility.yul\":20522:20941   */\n    tag_310:\n        /* \"#utility.yul\":20688:20692   */\n      0x00\n        /* \"#utility.yul\":20726:20728   */\n      0x20\n        /* \"#utility.yul\":20715:20724   */\n      dup3\n        /* \"#utility.yul\":20711:20729   */\n      add\n        /* \"#utility.yul\":20703:20729   */\n      swap1\n      pop\n        /* \"#utility.yul\":20775:20784   */\n      dup2\n        /* \"#utility.yul\":20769:20773   */\n      dup2\n        /* \"#utility.yul\":20765:20785   */\n      sub\n        /* \"#utility.yul\":20761:20762   */\n      0x00\n        /* \"#utility.yul\":20750:20759   */\n      dup4\n        /* \"#utility.yul\":20746:20763   */\n      add\n        /* \"#utility.yul\":20739:20786   */\n      mstore\n        /* \"#utility.yul\":20803:20934   */\n      tag_602\n        /* \"#utility.yul\":20929:20933   */\n      dup2\n        /* \"#utility.yul\":20803:20934   */\n      tag_409\n      jump\t// in\n    tag_602:\n        /* \"#utility.yul\":20795:20934   */\n      swap1\n      pop\n        /* \"#utility.yul\":20522:20941   */\n      swap2\n      swap1\n      pop\n      jump\t// out\n        /* \"#utility.yul\":20947:21171   */\n    tag_410:\n        /* \"#utility.yul\":21087:21121   */\n      0x45524332303a207472616e736665722066726f6d20746865207a65726f206164\n        /* \"#utility.yul\":21083:21084   */\n      0x00\n        /* \"#utility.yul\":21075:21081   */\n      dup3\n        /* \"#utility.yul\":21071:21085   */\n      add\n        /* \"#utility.yul\":21064:21122   */\n      mstore\n        /* \"#utility.yul\":21156:21163   */\n      0x6472657373000000000000000000000000000000000000000000000000000000\n        /* \"#utility.yul\":21151:21153   */\n      0x20\n        /* \"#utility.yul\":21143:21149   */\n      dup3\n        /* \"#utility.yul\":21139:21154   */\n      add\n        /* \"#utility.yul\":21132:21164   */\n      mstore\n        /* \"#utility.yul\":20947:21171   */\n      pop\n      jump\t// out\n        /* \"#utility.yul\":21177:21543   */\n    tag_411:\n        /* \"#utility.yul\":21319:21322   */\n      0x00\n        /* \"#utility.yul\":21340:21407   */\n      tag_605\n        /* \"#utility.yul\":21404:21406   */\n      0x25\n        /* \"#utility.yul\":21399:21402   */\n      dup4\n        /* \"#utility.yul\":21340:21407   */\n      tag_364\n      jump\t// in\n    tag_605:\n        /* \"#utility.yul\":21333:21407   */\n      swap2\n      pop\n        /* \"#utility.yul\":21416:21509   */\n      tag_606\n        /* \"#utility.yul\":21505:21508   */\n      dup3\n        /* \"#utility.yul\":21416:21509   */\n      tag_410\n      jump\t// in\n    tag_606:\n        /* \"#utility.yul\":21534:21536   */\n      0x40\n        /* \"#utility.yul\":21529:21532   */\n      dup3\n        /* \"#utility.yul\":21525:21537   */\n      add\n        /* \"#utility.yul\":21518:21537   */\n      swap1\n      pop\n        /* \"#utility.yul\":21177:21543   */\n      swap2\n      swap1\n      pop\n      jump\t// out\n        /* \"#utility.yul\":21549:21968   */\n    tag_315:\n        /* \"#utility.yul\":21715:21719   */\n      0x00\n        /* \"#utility.yul\":21753:21755   */\n      0x20\n        /* \"#utility.yul\":21742:21751   */\n      dup3\n        /* \"#utility.yul\":21738:21756   */\n      add\n        /* \"#utility.yul\":21730:21756   */\n      swap1\n      pop\n        /* \"#utility.yul\":21802:21811   */\n      dup2\n        /* \"#utility.yul\":21796:21800   */\n      dup2\n        /* \"#utility.yul\":21792:21812   */\n      sub\n        /* \"#utility.yul\":21788:21789   */\n      0x00\n        /* \"#utility.yul\":21777:21786   */\n      dup4\n        /* \"#utility.yul\":21773:21790   */\n      add\n        /* \"#utility.yul\":21766:21813   */\n      mstore\n        /* \"#utility.yul\":21830:21961   */\n      tag_608\n        /* \"#utility.yul\":21956:21960   */\n      dup2\n        /* \"#utility.yul\":21830:21961   */\n      tag_411\n      jump\t// in\n    tag_608:\n        /* \"#utility.yul\":21822:21961   */\n      swap1\n      pop\n        /* \"#utility.yul\":21549:21968   */\n      swap2\n      swap1\n      pop\n      jump\t// out\n        /* \"#utility.yul\":21974:22196   */\n    tag_412:\n        /* \"#utility.yul\":22114:22148   */\n      0x45524332303a207472616e7366657220746f20746865207a65726f2061646472\n        /* \"#utility.yul\":22110:22111   */\n      0x00\n        /* \"#utility.yul\":22102:22108   */\n      dup3\n        /* \"#utility.yul\":22098:22112   */\n      add\n        /* \"#utility.yul\":22091:22149   */\n      mstore\n        /* \"#utility.yul\":22183:22188   */\n      0x6573730000000000000000000000000000000000000000000000000000000000\n        /* \"#utility.yul\":22178:22180   */\n      0x20\n        /* \"#utility.yul\":22170:22176   */\n      dup3\n        /* \"#utility.yul\":22166:22181   */\n      add\n        /* \"#utility.yul\":22159:22189   */\n      mstore\n        /* \"#utility.yul\":21974:22196   */\n      pop\n      jump\t// out\n        /* \"#utility.yul\":22202:22568   */\n    tag_413:\n        /* \"#utility.yul\":22344:22347   */\n      0x00\n        /* \"#utility.yul\":22365:22432   */\n      tag_611\n        /* \"#utility.yul\":22429:22431   */\n      0x23\n        /* \"#utility.yul\":22424:22427   */\n      dup4\n        /* \"#utility.yul\":22365:22432   */\n      tag_364\n      jump\t// in\n    tag_611:\n        /* \"#utility.yul\":22358:22432   */\n      swap2\n      pop\n        /* \"#utility.yul\":22441:22534   */\n      tag_612\n        /* \"#utility.yul\":22530:22533   */\n      dup3\n        /* \"#utility.yul\":22441:22534   */\n      tag_412\n      jump\t// in\n    tag_612:\n        /* \"#utility.yul\":22559:22561   */\n      0x40\n        /* \"#utility.yul\":22554:22557   */\n      dup3\n        /* \"#utility.yul\":22550:22562   */\n      add\n        /* \"#utility.yul\":22543:22562   */\n      swap1\n      pop\n        /* \"#utility.yul\":22202:22568   */\n      swap2\n      swap1\n      pop\n      jump\t// out\n        /* \"#utility.yul\":22574:22993   */\n    tag_318:\n        /* \"#utility.yul\":22740:22744   */\n      0x00\n        /* \"#utility.yul\":22778:22780   */\n      0x20\n        /* \"#utility.yul\":22767:22776   */\n      dup3\n        /* \"#utility.yul\":22763:22781   */\n      add\n        /* \"#utility.yul\":22755:22781   */\n      swap1\n      pop\n        /* \"#utility.yul\":22827:22836   */\n      dup2\n        /* \"#utility.yul\":22821:22825   */\n      dup2\n        /* \"#utility.yul\":22817:22837   */\n      sub\n        /* \"#utility.yul\":22813:22814   */\n      0x00\n        /* \"#utility.yul\":22802:22811   */\n      dup4\n        /* \"#utility.yul\":22798:22815   */\n      add\n        /* \"#utility.yul\":22791:22838   */\n      mstore\n        /* \"#utility.yul\":22855:22986   */\n      tag_614\n        /* \"#utility.yul\":22981:22985   */\n      dup2\n        /* \"#utility.yul\":22855:22986   */\n      tag_413\n      jump\t// in\n    tag_614:\n        /* \"#utility.yul\":22847:22986   */\n      swap1\n      pop\n        /* \"#utility.yul\":22574:22993   */\n      swap2\n      swap1\n      pop\n      jump\t// out\n        /* \"#utility.yul\":22999:23224   */\n    tag_414:\n        /* \"#utility.yul\":23139:23173   */\n      0x45524332303a207472616e7366657220616d6f756e7420657863656564732062\n        /* \"#utility.yul\":23135:23136   */\n      0x00\n        /* \"#utility.yul\":23127:23133   */\n      dup3\n        /* \"#utility.yul\":23123:23137   */\n      add\n        /* \"#utility.yul\":23116:23174   */\n      mstore\n        /* \"#utility.yul\":23208:23216   */\n      0x616c616e63650000000000000000000000000000000000000000000000000000\n        /* \"#utility.yul\":23203:23205   */\n      0x20\n        /* \"#utility.yul\":23195:23201   */\n      dup3\n        /* \"#utility.yul\":23191:23206   */\n      add\n        /* \"#utility.yul\":23184:23217   */\n      mstore\n        /* \"#utility.yul\":22999:23224   */\n      pop\n      jump\t// out\n        /* \"#utility.yul\":23230:23596   */\n    tag_415:\n        /* \"#utility.yul\":23372:23375   */\n      0x00\n        /* \"#utility.yul\":23393:23460   */\n      tag_617\n        /* \"#utility.yul\":23457:23459   */\n      0x26\n        /* \"#utility.yul\":23452:23455   */\n      dup4\n        /* \"#utility.yul\":23393:23460   */\n      tag_364\n      jump\t// in\n    tag_617:\n        /* \"#utility.yul\":23386:23460   */\n      swap2\n      pop\n        /* \"#utility.yul\":23469:23562   */\n      tag_618\n        /* \"#utility.yul\":23558:23561   */\n      dup3\n        /* \"#utility.yul\":23469:23562   */\n      tag_414\n      jump\t// in\n    tag_618:\n        /* \"#utility.yul\":23587:23589   */\n      0x40\n        /* \"#utility.yul\":23582:23585   */\n      dup3\n        /* \"#utility.yul\":23578:23590   */\n      add\n        /* \"#utility.yul\":23571:23590   */\n      swap1\n      pop\n        /* \"#utility.yul\":23230:23596   */\n      swap2\n      swap1\n      pop\n      jump\t// out\n        /* \"#utility.yul\":23602:24021   */\n    tag_323:\n        /* \"#utility.yul\":23768:23772   */\n      0x00\n        /* \"#utility.yul\":23806:23808   */\n      0x20\n        /* \"#utility.yul\":23795:23804   */\n      dup3\n        /* \"#utility.yul\":23791:23809   */\n      add\n        /* \"#utility.yul\":23783:23809   */\n      swap1\n      pop\n        /* \"#utility.yul\":23855:23864   */\n      dup2\n        /* \"#utility.yul\":23849:23853   */\n      dup2\n        /* \"#utility.yul\":23845:23865   */\n      sub\n        /* \"#utility.yul\":23841:23842   */\n      0x00\n        /* \"#utility.yul\":23830:23839   */\n      dup4\n        /* \"#utility.yul\":23826:23843   */\n      add\n        /* \"#utility.yul\":23819:23866   */\n      mstore\n        /* \"#utility.yul\":23883:24014   */\n      tag_620\n        /* \"#utility.yul\":24009:24013   */\n      dup2\n        /* \"#utility.yul\":23883:24014   */\n      tag_415\n      jump\t// in\n    tag_620:\n        /* \"#utility.yul\":23875:24014   */\n      swap1\n      pop\n        /* \"#utility.yul\":23602:24021   */\n      swap2\n      swap1\n      pop\n      jump\t// out\n        /* \"#utility.yul\":24027:24207   */\n    tag_416:\n        /* \"#utility.yul\":24075:24152   */\n      0x4e487b7100000000000000000000000000000000000000000000000000000000\n        /* \"#utility.yul\":24072:24073   */\n      0x00\n        /* \"#utility.yul\":24065:24153   */\n      mstore\n        /* \"#utility.yul\":24172:24176   */\n      0x12\n        /* \"#utility.yul\":24169:24170   */\n      0x04\n        /* \"#utility.yul\":24162:24177   */\n      mstore\n        /* \"#utility.yul\":24196:24200   */\n      0x24\n        /* \"#utility.yul\":24193:24194   */\n      0x00\n        /* \"#utility.yul\":24186:24201   */\n      revert\n        /* \"#utility.yul\":24213:24398   */\n    tag_330:\n        /* \"#utility.yul\":24253:24254   */\n      0x00\n        /* \"#utility.yul\":24270:24290   */\n      tag_623\n        /* \"#utility.yul\":24288:24289   */\n      dup3\n        /* \"#utility.yul\":24270:24290   */\n      tag_375\n      jump\t// in\n    tag_623:\n        /* \"#utility.yul\":24265:24290   */\n      swap2\n      pop\n        /* \"#utility.yul\":24304:24324   */\n      tag_624\n        /* \"#utility.yul\":24322:24323   */\n      dup4\n        /* \"#utility.yul\":24304:24324   */\n      tag_375\n      jump\t// in\n    tag_624:\n        /* \"#utility.yul\":24299:24324   */\n      swap3\n      pop\n        /* \"#utility.yul\":24343:24344   */\n      dup3\n        /* \"#utility.yul\":24333:24368   */\n      tag_625\n      jumpi\n        /* \"#utility.yul\":24348:24366   */\n      tag_626\n      tag_416\n      jump\t// in\n    tag_626:\n        /* \"#utility.yul\":24333:24368   */\n    tag_625:\n        /* \"#utility.yul\":24390:24391   */\n      dup3\n        /* \"#utility.yul\":24387:24388   */\n      dup3\n        /* \"#utility.yul\":24383:24392   */\n      div\n        /* \"#utility.yul\":24378:24392   */\n      swap1\n      pop\n        /* \"#utility.yul\":24213:24398   */\n      swap3\n      swap2\n      pop\n      pop\n      jump\t// out\n        /* \"#utility.yul\":24404:24585   */\n    tag_417:\n        /* \"#utility.yul\":24544:24577   */\n      0x45524332303a206d696e7420746f20746865207a65726f206164647265737300\n        /* \"#utility.yul\":24540:24541   */\n      0x00\n        /* \"#utility.yul\":24532:24538   */\n      dup3\n        /* \"#utility.yul\":24528:24542   */\n      add\n        /* \"#utility.yul\":24521:24578   */\n      mstore\n        /* \"#utility.yul\":24404:24585   */\n      pop\n      jump\t// out\n        /* \"#utility.yul\":24591:24957   */\n    tag_418:\n        /* \"#utility.yul\":24733:24736   */\n      0x00\n        /* \"#utility.yul\":24754:24821   */\n      tag_629\n        /* \"#utility.yul\":24818:24820   */\n      0x1f\n        /* \"#utility.yul\":24813:24816   */\n      dup4\n        /* \"#utility.yul\":24754:24821   */\n      tag_364\n      jump\t// in\n    tag_629:\n        /* \"#utility.yul\":24747:24821   */\n      swap2\n      pop\n        /* \"#utility.yul\":24830:24923   */\n      tag_630\n        /* \"#utility.yul\":24919:24922   */\n      dup3\n        /* \"#utility.yul\":24830:24923   */\n      tag_417\n      jump\t// in\n    tag_630:\n        /* \"#utility.yul\":24948:24950   */\n      0x20\n        /* \"#utility.yul\":24943:24946   */\n      dup3\n        /* \"#utility.yul\":24939:24951   */\n      add\n        /* \"#utility.yul\":24932:24951   */\n      swap1\n      pop\n        /* \"#utility.yul\":24591:24957   */\n      swap2\n      swap1\n      pop\n      jump\t// out\n        /* \"#utility.yul\":24963:25382   */\n    tag_339:\n        /* \"#utility.yul\":25129:25133   */\n      0x00\n        /* \"#utility.yul\":25167:25169   */\n      0x20\n        /* \"#utility.yul\":25156:25165   */\n      dup3\n        /* \"#utility.yul\":25152:25170   */\n      add\n        /* \"#utility.yul\":25144:25170   */\n      swap1\n      pop\n        /* \"#utility.yul\":25216:25225   */\n      dup2\n        /* \"#utility.yul\":25210:25214   */\n      dup2\n        /* \"#utility.yul\":25206:25226   */\n      sub\n        /* \"#utility.yul\":25202:25203   */\n      0x00\n        /* \"#utility.yul\":25191:25200   */\n      dup4\n        /* \"#utility.yul\":25187:25204   */\n      add\n        /* \"#utility.yul\":25180:25227   */\n      mstore\n        /* \"#utility.yul\":25244:25375   */\n      tag_632\n        /* \"#utility.yul\":25370:25374   */\n      dup2\n        /* \"#utility.yul\":25244:25375   */\n      tag_418\n      jump\t// in\n    tag_632:\n        /* \"#utility.yul\":25236:25375   */\n      swap1\n      pop\n        /* \"#utility.yul\":24963:25382   */\n      swap2\n      swap1\n      pop\n      jump\t// out\n        /* \"#utility.yul\":25388:25608   */\n    tag_419:\n        /* \"#utility.yul\":25528:25562   */\n      0x45524332303a206275726e2066726f6d20746865207a65726f20616464726573\n        /* \"#utility.yul\":25524:25525   */\n      0x00\n        /* \"#utility.yul\":25516:25522   */\n      dup3\n        /* \"#utility.yul\":25512:25526   */\n      add\n        /* \"#utility.yul\":25505:25563   */\n      mstore\n        /* \"#utility.yul\":25597:25600   */\n      0x7300000000000000000000000000000000000000000000000000000000000000\n        /* \"#utility.yul\":25592:25594   */\n      0x20\n        /* \"#utility.yul\":25584:25590   */\n      dup3\n        /* \"#utility.yul\":25580:25595   */\n      add\n        /* \"#utility.yul\":25573:25601   */\n      mstore\n        /* \"#utility.yul\":25388:25608   */\n      pop\n      jump\t// out\n        /* \"#utility.yul\":25614:25980   */\n    tag_420:\n        /* \"#utility.yul\":25756:25759   */\n      0x00\n        /* \"#utility.yul\":25777:25844   */\n      tag_635\n        /* \"#utility.yul\":25841:25843   */\n      0x21\n        /* \"#utility.yul\":25836:25839   */\n      dup4\n        /* \"#utility.yul\":25777:25844   */\n      tag_364\n      jump\t// in\n    tag_635:\n        /* \"#utility.yul\":25770:25844   */\n      swap2\n      pop\n        /* \"#utility.yul\":25853:25946   */\n      tag_636\n        /* \"#utility.yul\":25942:25945   */\n      dup3\n        /* \"#utility.yul\":25853:25946   */\n      tag_419\n      jump\t// in\n    tag_636:\n        /* \"#utility.yul\":25971:25973   */\n      0x40\n        /* \"#utility.yul\":25966:25969   */\n      dup3\n        /* \"#utility.yul\":25962:25974   */\n      add\n        /* \"#utility.yul\":25955:25974   */\n      swap1\n      pop\n        /* \"#utility.yul\":25614:25980   */\n      swap2\n      swap1\n      pop\n      jump\t// out\n        /* \"#utility.yul\":25986:26405   */\n    tag_347:\n        /* \"#utility.yul\":26152:26156   */\n      0x00\n        /* \"#utility.yul\":26190:26192   */\n      0x20\n        /* \"#utility.yul\":26179:26188   */\n      dup3\n        /* \"#utility.yul\":26175:26193   */\n      add\n        /* \"#utility.yul\":26167:26193   */\n      swap1\n      pop\n        /* \"#utility.yul\":26239:26248   */\n      dup2\n        /* \"#utility.yul\":26233:26237   */\n      dup2\n        /* \"#utility.yul\":26229:26249   */\n      sub\n        /* \"#utility.yul\":26225:26226   */\n      0x00\n        /* \"#utility.yul\":26214:26223   */\n      dup4\n        /* \"#utility.yul\":26210:26227   */\n      add\n        /* \"#utility.yul\":26203:26250   */\n      mstore\n        /* \"#utility.yul\":26267:26398   */\n      tag_638\n        /* \"#utility.yul\":26393:26397   */\n      dup2\n        /* \"#utility.yul\":26267:26398   */\n      tag_420\n      jump\t// in\n    tag_638:\n        /* \"#utility.yul\":26259:26398   */\n      swap1\n      pop\n        /* \"#utility.yul\":25986:26405   */\n      swap2\n      swap1\n      pop\n      jump\t// out\n        /* \"#utility.yul\":26411:26632   */\n    tag_421:\n        /* \"#utility.yul\":26551:26585   */\n      0x45524332303a206275726e20616d6f756e7420657863656564732062616c616e\n        /* \"#utility.yul\":26547:26548   */\n      0x00\n        /* \"#utility.yul\":26539:26545   */\n      dup3\n        /* \"#utility.yul\":26535:26549   */\n      add\n        /* \"#utility.yul\":26528:26586   */\n      mstore\n        /* \"#utility.yul\":26620:26624   */\n      0x6365000000000000000000000000000000000000000000000000000000000000\n        /* \"#utility.yul\":26615:26617   */\n      0x20\n        /* \"#utility.yul\":26607:26613   */\n      dup3\n        /* \"#utility.yul\":26603:26618   */\n      add\n        /* \"#utility.yul\":26596:26625   */\n      mstore\n        /* \"#utility.yul\":26411:26632   */\n      pop\n      jump\t// out\n        /* \"#utility.yul\":26638:27004   */\n    tag_422:\n        /* \"#utility.yul\":26780:26783   */\n      0x00\n        /* \"#utility.yul\":26801:26868   */\n      tag_641\n        /* \"#utility.yul\":26865:26867   */\n      0x22\n        /* \"#utility.yul\":26860:26863   */\n      dup4\n        /* \"#utility.yul\":26801:26868   */\n      tag_364\n      jump\t// in\n    tag_641:\n        /* \"#utility.yul\":26794:26868   */\n      swap2\n      pop\n        /* \"#utility.yul\":26877:26970   */\n      tag_642\n        /* \"#utility.yul\":26966:26969   */\n      dup3\n        /* \"#utility.yul\":26877:26970   */\n      tag_421\n      jump\t// in\n    tag_642:\n        /* \"#utility.yul\":26995:26997   */\n      0x40\n        /* \"#utility.yul\":26990:26993   */\n      dup3\n        /* \"#utility.yul\":26986:26998   */\n      add\n        /* \"#utility.yul\":26979:26998   */\n      swap1\n      pop\n        /* \"#utility.yul\":26638:27004   */\n      swap2\n      swap1\n      pop\n      jump\t// out\n        /* \"#utility.yul\":27010:27429   */\n    tag_351:\n        /* \"#utility.yul\":27176:27180   */\n      0x00\n        /* \"#utility.yul\":27214:27216   */\n      0x20\n        /* \"#utility.yul\":27203:27212   */\n      dup3\n        /* \"#utility.yul\":27199:27217   */\n      add\n        /* \"#utility.yul\":27191:27217   */\n      swap1\n      pop\n        /* \"#utility.yul\":27263:27272   */\n      dup2\n        /* \"#utility.yul\":27257:27261   */\n      dup2\n        /* \"#utility.yul\":27253:27273   */\n      sub\n        /* \"#utility.yul\":27249:27250   */\n      0x00\n        /* \"#utility.yul\":27238:27247   */\n      dup4\n        /* \"#utility.yul\":27234:27251   */\n      add\n        /* \"#utility.yul\":27227:27274   */\n      mstore\n        /* \"#utility.yul\":27291:27422   */\n      tag_644\n        /* \"#utility.yul\":27417:27421   */\n      dup2\n        /* \"#utility.yul\":27291:27422   */\n      tag_422\n      jump\t// in\n    tag_644:\n        /* \"#utility.yul\":27283:27422   */\n      swap1\n      pop\n        /* \"#utility.yul\":27010:27429   */\n      swap2\n      swap1\n      pop\n      jump\t// out\n        /* \"#utility.yul\":27435:27617   */\n    tag_423:\n        /* \"#utility.yul\":27575:27609   */\n      0x4f776e61626c653a2063616c6c6572206973206e6f7420746865206f776e6572\n        /* \"#utility.yul\":27571:27572   */\n      0x00\n        /* \"#utility.yul\":27563:27569   */\n      dup3\n        /* \"#utility.yul\":27559:27573   */\n      add\n        /* \"#utility.yul\":27552:27610   */\n      mstore\n        /* \"#utility.yul\":27435:27617   */\n      pop\n      jump\t// out\n        /* \"#utility.yul\":27623:27989   */\n    tag_424:\n        /* \"#utility.yul\":27765:27768   */\n      0x00\n        /* \"#utility.yul\":27786:27853   */\n      tag_647\n        /* \"#utility.yul\":27850:27852   */\n      0x20\n        /* \"#utility.yul\":27845:27848   */\n      dup4\n        /* \"#utility.yul\":27786:27853   */\n      tag_364\n      jump\t// in\n    tag_647:\n        /* \"#utility.yul\":27779:27853   */\n      swap2\n      pop\n        /* \"#utility.yul\":27862:27955   */\n      tag_648\n        /* \"#utility.yul\":27951:27954   */\n      dup3\n        /* \"#utility.yul\":27862:27955   */\n      tag_423\n      jump\t// in\n    tag_648:\n        /* \"#utility.yul\":27980:27982   */\n      0x20\n        /* \"#utility.yul\":27975:27978   */\n      dup3\n        /* \"#utility.yul\":27971:27983   */\n      add\n        /* \"#utility.yul\":27964:27983   */\n      swap1\n      pop\n        /* \"#utility.yul\":27623:27989   */\n      swap2\n      swap1\n      pop\n      jump\t// out\n        /* \"#utility.yul\":27995:28414   */\n    tag_359:\n        /* \"#utility.yul\":28161:28165   */\n      0x00\n        /* \"#utility.yul\":28199:28201   */\n      0x20\n        /* \"#utility.yul\":28188:28197   */\n      dup3\n        /* \"#utility.yul\":28184:28202   */\n      add\n        /* \"#utility.yul\":28176:28202   */\n      swap1\n      pop\n        /* \"#utility.yul\":28248:28257   */\n      dup2\n        /* \"#utility.yul\":28242:28246   */\n      dup2\n        /* \"#utility.yul\":28238:28258   */\n      sub\n        /* \"#utility.yul\":28234:28235   */\n      0x00\n        /* \"#utility.yul\":28223:28232   */\n      dup4\n        /* \"#utility.yul\":28219:28236   */\n      add\n        /* \"#utility.yul\":28212:28259   */\n      mstore\n        /* \"#utility.yul\":28276:28407   */\n      tag_650\n        /* \"#utility.yul\":28402:28406   */\n      dup2\n        /* \"#utility.yul\":28276:28407   */\n      tag_424\n      jump\t// in\n    tag_650:\n        /* \"#utility.yul\":28268:28407   */\n      swap1\n      pop\n        /* \"#utility.yul\":27995:28414   */\n      swap2\n      swap1\n      pop\n      jump\t// out\n\n    auxdata: 0xa26469706673582212205fda07217cc30a9b1f9ff7dee339dedb697ba76ad9901a8746a38b4177a7397564736f6c63430008120033\n}\n",
				"bytecode": {
					"linkReferences": {},
					"object": "608060405260646007553480156200001657600080fd5b506040518060400160405280600781526020017f4d79546f6b656e000000000000000000000000000000000000000000000000008152506040518060400160405280600381526020017f4d544b0000000000000000000000000000000000000000000000000000000000815250816003908162000094919062000426565b508060049081620000a6919062000426565b505050620000c9620000bd620000de60201b60201c565b620000e660201b60201c565b670de0b6b3a76400006006819055506200050d565b600033905090565b6000600560009054906101000a900473ffffffffffffffffffffffffffffffffffffffff16905081600560006101000a81548173ffffffffffffffffffffffffffffffffffffffff021916908373ffffffffffffffffffffffffffffffffffffffff1602179055508173ffffffffffffffffffffffffffffffffffffffff168173ffffffffffffffffffffffffffffffffffffffff167f8be0079c531659141344cd1fd0a4f28419497f9722a3daafe3b4186f6b6457e060405160405180910390a35050565b600081519050919050565b7f4e487b7100000000000000000000000000000000000000000000000000000000600052604160045260246000fd5b7f4e487b7100000000000000000000000000000000000000000000000000000000600052602260045260246000fd5b600060028204905060018216806200022e57607f821691505b602082108103620002445762000243620001e6565b5b50919050565b60008190508160005260206000209050919050565b60006020601f8301049050919050565b600082821b905092915050565b600060088302620002ae7fffffffffffffffffffffffffffffffffffffffffffffffffffffffffffffffff826200026f565b620002ba86836200026f565b95508019841693508086168417925050509392505050565b6000819050919050565b6000819050919050565b60006200030762000301620002fb84620002d2565b620002dc565b620002d2565b9050919050565b6000819050919050565b6200032383620002e6565b6200033b62000332826200030e565b8484546200027c565b825550505050565b600090565b6200035262000343565b6200035f81848462000318565b505050565b5b8181101562000387576200037b60008262000348565b60018101905062000365565b5050565b601f821115620003d657620003a0816200024a565b620003ab846200025f565b81016020851015620003bb578190505b620003d3620003ca856200025f565b83018262000364565b50505b505050565b600082821c905092915050565b6000620003fb60001984600802620003db565b1980831691505092915050565b6000620004168383620003e8565b9150826002028217905092915050565b6200043182620001ac565b67ffffffffffffffff8111156200044d576200044c620001b7565b5b62000459825462000215565b620004668282856200038b565b600060209050601f8311600181146200049e576000841562000489578287015190505b62000495858262000408565b86555062000505565b601f198416620004ae866200024a565b60005b82811015620004d857848901518255600182019150602085019450602081019050620004b1565b86831015620004f85784890151620004f4601f891682620003e8565b8355505b6001600288020188555050505b505050505050565b612d78806200051d6000396000f3fe6080604052600436106101665760003560e01c806370a08231116100d157806395d89b411161008a578063a9059cbb11610064578063a9059cbb1461051d578063c392f7661461055a578063dd62ed3e14610585578063f2fde38b146105c257610166565b806395d89b411461048c578063a457c2d7146104b7578063a694fc3a146104f457610166565b806370a082311461037a578063715018a6146103b757806379cc6790146103ce5780637ff9b596146103f75780638da5cb5b1461042257806394eecb501461044d57610166565b80633610724e116101235780633610724e1461028f578063372500ab146102ab57806339509351146102c257806342966c68146102ff5780636a61e5fc146103285780636c11bcd31461035157610166565b806306fdde031461016b578063095ea7b31461019657806318160ddd146101d357806323b872dd146101fe5780632e17de781461023b578063313ce56714610264575b600080fd5b34801561017757600080fd5b506101806105eb565b60405161018d9190611e7d565b60405180910390f35b3480156101a257600080fd5b506101bd60048036038101906101b89190611f38565b61067d565b6040516101ca9190611f93565b60405180910390f35b3480156101df57600080fd5b506101e86106a0565b6040516101f59190611fbd565b60405180910390f35b34801561020a57600080fd5b5061022560048036038101906102209190611fd8565b6106aa565b6040516102329190611f93565b60405180910390f35b34801561024757600080fd5b50610262600480360381019061025d919061202b565b6106d9565b005b34801561027057600080fd5b506102796109e9565b6040516102869190612074565b60405180910390f35b6102a960048036038101906102a4919061202b565b6109f2565b005b3480156102b757600080fd5b506102c0610ac4565b005b3480156102ce57600080fd5b506102e960048036038101906102e49190611f38565b610c25565b6040516102f69190611f93565b60405180910390f35b34801561030b57600080fd5b506103266004803603810190610321919061202b565b610c5c565b005b34801561033457600080fd5b5061034f600480360381019061034a919061202b565b610c70565b005b34801561035d57600080fd5b506103786004803603810190610373919061202b565b610c82565b005b34801561038657600080fd5b506103a1600480360381019061039c919061208f565b610e1c565b6040516103ae9190611fbd565b60405180910390f35b3480156103c357600080fd5b506103cc610e64565b005b3480156103da57600080fd5b506103f560048036038101906103f09190611f38565b610e78565b005b34801561040357600080fd5b5061040c610e98565b6040516104199190611fbd565b60405180910390f35b34801561042e57600080fd5b50610437610e9e565b60405161044491906120cb565b60405180910390f35b34801561045957600080fd5b50610474600480360381019061046f919061208f565b610ec8565b604051610483939291906120e6565b60405180910390f35b34801561049857600080fd5b506104a1610ef2565b6040516104ae9190611e7d565b60405180910390f35b3480156104c357600080fd5b506104de60048036038101906104d99190611f38565b610f84565b6040516104eb9190611f93565b60405180910390f35b34801561050057600080fd5b5061051b6004803603810190610516919061202b565b610ffb565b005b34801561052957600080fd5b50610544600480360381019061053f9190611f38565b6111fa565b6040516105519190611f93565b60405180910390f35b34801561056657600080fd5b5061056f61121d565b60405161057c9190611fbd565b60405180910390f35b34801561059157600080fd5b506105ac60048036038101906105a7919061211d565b611223565b6040516105b99190611fbd565b60405180910390f35b3480156105ce57600080fd5b506105e960048036038101906105e4919061208f565b6112aa565b005b6060600380546105fa9061218c565b80601f01602080910402602001604051908101604052809291908181526020018280546106269061218c565b80156106735780601f1061064857610100808354040283529160200191610673565b820191906000526020600020905b81548152906001019060200180831161065657829003601f168201915b5050505050905090565b60008061068861132d565b9050610695818585611335565b600191505092915050565b6000600254905090565b6000806106b561132d565b90506106c28582856114fe565b6106cd85858561158a565b60019150509392505050565b6000811161071c576040517f08c379a00000000000000000000000000000000000000000000000000000000081526004016107139061222f565b60405180910390fd5b80600860003373ffffffffffffffffffffffffffffffffffffffff1673ffffffffffffffffffffffffffffffffffffffff1681526020019081526020016000206000015410156107a1576040517f08c379a00000000000000000000000000000000000000000000000000000000081526004016107989061229b565b60405180910390fd5b6107aa33611800565b80600860003373ffffffffffffffffffffffffffffffffffffffff1673ffffffffffffffffffffffffffffffffffffffff16815260200190815260200160002060000160008282546107fc91906122ea565b925050819055506000600860003373ffffffffffffffffffffffffffffffffffffffff1673ffffffffffffffffffffffffffffffffffffffff16815260200190815260200160002060000154036109db5760005b6009805490508110156109d9573373ffffffffffffffffffffffffffffffffffffffff16600982815481106108885761088761231e565b5b9060005260206000200160009054906101000a900473ffffffffffffffffffffffffffffffffffffffff1673ffffffffffffffffffffffffffffffffffffffff16036109c657600960016009805490506108e291906122ea565b815481106108f3576108f261231e565b5b9060005260206000200160009054906101000a900473ffffffffffffffffffffffffffffffffffffffff16600982815481106109325761093161231e565b5b9060005260206000200160006101000a81548173ffffffffffffffffffffffffffffffffffffffff021916908373ffffffffffffffffffffffffffffffffffffffff160217905550600980548061098c5761098b61234d565b5b6001900381819060005260206000200160006101000a81549073ffffffffffffffffffffffffffffffffffffffff021916905590556109d9565b80806109d19061237c565b915050610850565b505b6109e630338361158a565b50565b60006012905090565b60065481610a0091906123c4565b341015610a42576040517f08c379a0000000000000000000000000000000000000000000000000000000008152600401610a3990612452565b60405180910390fd5b610a4c338261197c565b60065481610a5a91906123c4565b341115610ac1573373ffffffffffffffffffffffffffffffffffffffff166108fc60065483610a8991906123c4565b34610a9491906122ea565b9081150290604051600060405180830381858888f19350505050158015610abf573d6000803e3d6000fd5b505b50565b610acd33611800565b6000600860003373ffffffffffffffffffffffffffffffffffffffff1673ffffffffffffffffffffffffffffffffffffffff1681526020019081526020016000206002015411610b52576040517f08c379a0000000000000000000000000000000000000000000000000000000008152600401610b49906124be565b60405180910390fd5b3373ffffffffffffffffffffffffffffffffffffffff166108fc600860003373ffffffffffffffffffffffffffffffffffffffff1673ffffffffffffffffffffffffffffffffffffffff168152602001908152602001600020600201549081150290604051600060405180830381858888f19350505050158015610bda573d6000803e3d6000fd5b506000600860003373ffffffffffffffffffffffffffffffffffffffff1673ffffffffffffffffffffffffffffffffffffffff16815260200190815260200160002060020181905550565b600080610c3061132d565b9050610c51818585610c428589611223565b610c4c91906124de565b611335565b600191505092915050565b610c6d610c6761132d565b82611ad2565b50565b610c78611c9f565b8060068190555050565b80610c8c33610e1c565b1015610ccd576040517f08c379a0000000000000000000000000000000000000000000000000000000008152600401610cc49061255e565b60405180910390fd5b6000600860003373ffffffffffffffffffffffffffffffffffffffff1673ffffffffffffffffffffffffffffffffffffffff1681526020019081526020016000206002015460065483610d2091906123c4565b610d2a91906124de565b9050600860003373ffffffffffffffffffffffffffffffffffffffff1673ffffffffffffffffffffffffffffffffffffffff16815260200190815260200160002060020154600860003373ffffffffffffffffffffffffffffffffffffffff1673ffffffffffffffffffffffffffffffffffffffff1681526020019081526020016000206002016000828254610dc091906122ea565b92505081905550610dd13383611ad2565b3373ffffffffffffffffffffffffffffffffffffffff166108fc829081150290604051600060405180830381858888f19350505050158015610e17573d6000803e3d6000fd5b505050565b60008060008373ffffffffffffffffffffffffffffffffffffffff1673ffffffffffffffffffffffffffffffffffffffff168152602001908152602001600020549050919050565b610e6c611c9f565b610e766000611d1d565b565b610e8a82610e8461132d565b836114fe565b610e948282611ad2565b5050565b60065481565b6000600560009054906101000a900473ffffffffffffffffffffffffffffffffffffffff16905090565b60086020528060005260406000206000915090508060000154908060010154908060020154905083565b606060048054610f019061218c565b80601f0160208091040260200160405190810160405280929190818152602001828054610f2d9061218c565b8015610f7a5780601f10610f4f57610100808354040283529160200191610f7a565b820191906000526020600020905b815481529060010190602001808311610f5d57829003601f168201915b5050505050905090565b600080610f8f61132d565b90506000610f9d8286611223565b905083811015610fe2576040517f08c379a0000000000000000000000000000000000000000000000000000000008152600401610fd9906125f0565b60405180910390fd5b610fef8286868403611335565b60019250505092915050565b6000811161103e576040517f08c379a00000000000000000000000000000000000000000000000000000000081526004016110359061265c565b60405180910390fd5b8061104833610e1c565b1015611089576040517f08c379a0000000000000000000000000000000000000000000000000000000008152600401611080906126ee565b60405180910390fd5b60004290506000600860003373ffffffffffffffffffffffffffffffffffffffff1673ffffffffffffffffffffffffffffffffffffffff1681526020019081526020016000206000015411156110e7576110e233611800565b61114b565b6009339080600181540180825580915050600190039060005260206000200160009091909190916101000a81548173ffffffffffffffffffffffffffffffffffffffff021916908373ffffffffffffffffffffffffffffffffffffffff1602179055505b61115633308461158a565b81600860003373ffffffffffffffffffffffffffffffffffffffff1673ffffffffffffffffffffffffffffffffffffffff16815260200190815260200160002060000160008282546111a891906124de565b9250508190555080600860003373ffffffffffffffffffffffffffffffffffffffff1673ffffffffffffffffffffffffffffffffffffffff168152602001908152602001600020600101819055505050565b60008061120561132d565b905061121281858561158a565b600191505092915050565b60075481565b6000600160008473ffffffffffffffffffffffffffffffffffffffff1673ffffffffffffffffffffffffffffffffffffffff16815260200190815260200160002060008373ffffffffffffffffffffffffffffffffffffffff1673ffffffffffffffffffffffffffffffffffffffff16815260200190815260200160002054905092915050565b6112b2611c9f565b600073ffffffffffffffffffffffffffffffffffffffff168173ffffffffffffffffffffffffffffffffffffffff1603611321576040517f08c379a000000000000000000000000000000000000000000000000000000000815260040161131890612780565b60405180910390fd5b61132a81611d1d565b50565b600033905090565b600073ffffffffffffffffffffffffffffffffffffffff168373ffffffffffffffffffffffffffffffffffffffff16036113a4576040517f08c379a000000000000000000000000000000000000000000000000000000000815260040161139b90612812565b60405180910390fd5b600073ffffffffffffffffffffffffffffffffffffffff168273ffffffffffffffffffffffffffffffffffffffff1603611413576040517f08c379a000000000000000000000000000000000000000000000000000000000815260040161140a906128a4565b60405180910390fd5b80600160008573ffffffffffffffffffffffffffffffffffffffff1673ffffffffffffffffffffffffffffffffffffffff16815260200190815260200160002060008473ffffffffffffffffffffffffffffffffffffffff1673ffffffffffffffffffffffffffffffffffffffff168152602001908152602001600020819055508173ffffffffffffffffffffffffffffffffffffffff168373ffffffffffffffffffffffffffffffffffffffff167f8c5be1e5ebec7d5bd14f71427d1e84f3dd0314c0f7b2291e5b200ac8c7c3b925836040516114f19190611fbd565b60405180910390a3505050565b600061150a8484611223565b90507fffffffffffffffffffffffffffffffffffffffffffffffffffffffffffffffff81146115845781811015611576576040517f08c379a000000000000000000000000000000000000000000000000000000000815260040161156d90612910565b60405180910390fd5b6115838484848403611335565b5b50505050565b600073ffffffffffffffffffffffffffffffffffffffff168373ffffffffffffffffffffffffffffffffffffffff16036115f9576040517f08c379a00000000000000000000000000000000000000000000000000000000081526004016115f0906129a2565b60405180910390fd5b600073ffffffffffffffffffffffffffffffffffffffff168273ffffffffffffffffffffffffffffffffffffffff1603611668576040517f08c379a000000000000000000000000000000000000000000000000000000000815260040161165f90612a34565b60405180910390fd5b611673838383611de3565b60008060008573ffffffffffffffffffffffffffffffffffffffff1673ffffffffffffffffffffffffffffffffffffffff168152602001908152602001600020549050818110156116f9576040517f08c379a00000000000000000000000000000000000000000000000000000000081526004016116f090612ac6565b60405180910390fd5b8181036000808673ffffffffffffffffffffffffffffffffffffffff1673ffffffffffffffffffffffffffffffffffffffff16815260200190815260200160002081905550816000808573ffffffffffffffffffffffffffffffffffffffff1673ffffffffffffffffffffffffffffffffffffffff168152602001908152602001600020600082825401925050819055508273ffffffffffffffffffffffffffffffffffffffff168473ffffffffffffffffffffffffffffffffffffffff167fddf252ad1be2c89b69c2b068fc378daa952ba7f163c4a11628f55a4df523b3ef846040516117e79190611fbd565b60405180910390a36117fa848484611de8565b50505050565b60004290506000603c600860008573ffffffffffffffffffffffffffffffffffffffff1673ffffffffffffffffffffffffffffffffffffffff168152602001908152602001600020600101548361185791906122ea565b6118619190612b15565b905061177060065482600754600860008873ffffffffffffffffffffffffffffffffffffffff1673ffffffffffffffffffffffffffffffffffffffff168152602001908152602001600020600001546118ba91906123c4565b6118c491906123c4565b6118ce91906123c4565b6118d89190612b15565b600860008573ffffffffffffffffffffffffffffffffffffffff1673ffffffffffffffffffffffffffffffffffffffff168152602001908152602001600020600201600082825461192991906124de565b9250508190555081600860008573ffffffffffffffffffffffffffffffffffffffff1673ffffffffffffffffffffffffffffffffffffffff16815260200190815260200160002060010181905550505050565b600073ffffffffffffffffffffffffffffffffffffffff168273ffffffffffffffffffffffffffffffffffffffff16036119eb576040517f08c379a00000000000000000000000000000000000000000000000000000000081526004016119e290612b92565b60405180910390fd5b6119f760008383611de3565b8060026000828254611a0991906124de565b92505081905550806000808473ffffffffffffffffffffffffffffffffffffffff1673ffffffffffffffffffffffffffffffffffffffff168152602001908152602001600020600082825401925050819055508173ffffffffffffffffffffffffffffffffffffffff16600073ffffffffffffffffffffffffffffffffffffffff167fddf252ad1be2c89b69c2b068fc378daa952ba7f163c4a11628f55a4df523b3ef83604051611aba9190611fbd565b60405180910390a3611ace60008383611de8565b5050565b600073ffffffffffffffffffffffffffffffffffffffff168273ffffffffffffffffffffffffffffffffffffffff1603611b41576040517f08c379a0000000000000000000000000000000000000000000000000000000008152600401611b3890612c24565b60405180910390fd5b611b4d82600083611de3565b60008060008473ffffffffffffffffffffffffffffffffffffffff1673ffffffffffffffffffffffffffffffffffffffff16815260200190815260200160002054905081811015611bd3576040517f08c379a0000000000000000000000000000000000000000000000000000000008152600401611bca90612cb6565b60405180910390fd5b8181036000808573ffffffffffffffffffffffffffffffffffffffff1673ffffffffffffffffffffffffffffffffffffffff1681526020019081526020016000208190555081600260008282540392505081905550600073ffffffffffffffffffffffffffffffffffffffff168373ffffffffffffffffffffffffffffffffffffffff167fddf252ad1be2c89b69c2b068fc378daa952ba7f163c4a11628f55a4df523b3ef84604051611c869190611fbd565b60405180910390a3611c9a83600084611de8565b505050565b611ca761132d565b73ffffffffffffffffffffffffffffffffffffffff16611cc5610e9e565b73ffffffffffffffffffffffffffffffffffffffff1614611d1b576040517f08c379a0000000000000000000000000000000000000000000000000000000008152600401611d1290612d22565b60405180910390fd5b565b6000600560009054906101000a900473ffffffffffffffffffffffffffffffffffffffff16905081600560006101000a81548173ffffffffffffffffffffffffffffffffffffffff021916908373ffffffffffffffffffffffffffffffffffffffff1602179055508173ffffffffffffffffffffffffffffffffffffffff168173ffffffffffffffffffffffffffffffffffffffff167f8be0079c531659141344cd1fd0a4f28419497f9722a3daafe3b4186f6b6457e060405160405180910390a35050565b505050565b505050565b600081519050919050565b600082825260208201905092915050565b60005b83811015611e27578082015181840152602081019050611e0c565b60008484015250505050565b6000601f19601f8301169050919050565b6000611e4f82611ded565b611e598185611df8565b9350611e69818560208601611e09565b611e7281611e33565b840191505092915050565b60006020820190508181036000830152611e978184611e44565b905092915050565b600080fd5b600073ffffffffffffffffffffffffffffffffffffffff82169050919050565b6000611ecf82611ea4565b9050919050565b611edf81611ec4565b8114611eea57600080fd5b50565b600081359050611efc81611ed6565b92915050565b6000819050919050565b611f1581611f02565b8114611f2057600080fd5b50565b600081359050611f3281611f0c565b92915050565b60008060408385031215611f4f57611f4e611e9f565b5b6000611f5d85828601611eed565b9250506020611f6e85828601611f23565b9150509250929050565b60008115159050919050565b611f8d81611f78565b82525050565b6000602082019050611fa86000830184611f84565b92915050565b611fb781611f02565b82525050565b6000602082019050611fd26000830184611fae565b92915050565b600080600060608486031215611ff157611ff0611e9f565b5b6000611fff86828701611eed565b935050602061201086828701611eed565b925050604061202186828701611f23565b9150509250925092565b60006020828403121561204157612040611e9f565b5b600061204f84828501611f23565b91505092915050565b600060ff82169050919050565b61206e81612058565b82525050565b60006020820190506120896000830184612065565b92915050565b6000602082840312156120a5576120a4611e9f565b5b60006120b384828501611eed565b91505092915050565b6120c581611ec4565b82525050565b60006020820190506120e060008301846120bc565b92915050565b60006060820190506120fb6000830186611fae565b6121086020830185611fae565b6121156040830184611fae565b949350505050565b6000806040838503121561213457612133611e9f565b5b600061214285828601611eed565b925050602061215385828601611eed565b9150509250929050565b7f4e487b7100000000000000000000000000000000000000000000000000000000600052602260045260246000fd5b600060028204905060018216806121a457607f821691505b6020821081036121b7576121b661215d565b5b50919050565b7f4d75737420756e7374616b65206d6f7265207468616e207a65726f20746f6b6560008201527f6e73000000000000000000000000000000000000000000000000000000000000602082015250565b6000612219602283611df8565b9150612224826121bd565b604082019050919050565b600060208201905081810360008301526122488161220c565b9050919050565b7f4e6f7420456e6f75676820546f6b656e7320546f20556e7374616b6500000000600082015250565b6000612285601c83611df8565b91506122908261224f565b602082019050919050565b600060208201905081810360008301526122b481612278565b9050919050565b7f4e487b7100000000000000000000000000000000000000000000000000000000600052601160045260246000fd5b60006122f582611f02565b915061230083611f02565b9250828203905081811115612318576123176122bb565b5b92915050565b7f4e487b7100000000000000000000000000000000000000000000000000000000600052603260045260246000fd5b7f4e487b7100000000000000000000000000000000000000000000000000000000600052603160045260246000fd5b600061238782611f02565b91507fffffffffffffffffffffffffffffffffffffffffffffffffffffffffffffffff82036123b9576123b86122bb565b5b600182019050919050565b60006123cf82611f02565b91506123da83611f02565b92508282026123e881611f02565b915082820484148315176123ff576123fe6122bb565b5b5092915050565b7f496e73756666696369656e74206574686572732073656e740000000000000000600082015250565b600061243c601883611df8565b915061244782612406565b602082019050919050565b6000602082019050818103600083015261246b8161242f565b9050919050565b7f4e6f207265776172647320746f20636c61696d00000000000000000000000000600082015250565b60006124a8601383611df8565b91506124b382612472565b602082019050919050565b600060208201905081810360008301526124d78161249b565b9050919050565b60006124e982611f02565b91506124f483611f02565b925082820190508082111561250c5761250b6122bb565b5b92915050565b7f496e73756666696369656e7420746f6b656e7300000000000000000000000000600082015250565b6000612548601383611df8565b915061255382612512565b602082019050919050565b600060208201905081810360008301526125778161253b565b9050919050565b7f45524332303a2064656372656173656420616c6c6f77616e63652062656c6f7760008201527f207a65726f000000000000000000000000000000000000000000000000000000602082015250565b60006125da602583611df8565b91506125e58261257e565b604082019050919050565b60006020820190508181036000830152612609816125cd565b9050919050565b7f4d757374207374616b65206d6f7265207468616e207a65726f20746f6b656e73600082015250565b6000612646602083611df8565b915061265182612610565b602082019050919050565b6000602082019050818103600083015261267581612639565b9050919050565b7f4e6f7420456e6f7567682042616c616e636520546f6b656e7320546f2053746160008201527f6b65000000000000000000000000000000000000000000000000000000000000602082015250565b60006126d8602283611df8565b91506126e38261267c565b604082019050919050565b60006020820190508181036000830152612707816126cb565b9050919050565b7f4f776e61626c653a206e6577206f776e657220697320746865207a65726f206160008201527f6464726573730000000000000000000000000000000000000000000000000000602082015250565b600061276a602683611df8565b91506127758261270e565b604082019050919050565b600060208201905081810360008301526127998161275d565b9050919050565b7f45524332303a20617070726f76652066726f6d20746865207a65726f2061646460008201527f7265737300000000000000000000000000000000000000000000000000000000602082015250565b60006127fc602483611df8565b9150612807826127a0565b604082019050919050565b6000602082019050818103600083015261282b816127ef565b9050919050565b7f45524332303a20617070726f766520746f20746865207a65726f20616464726560008201527f7373000000000000000000000000000000000000000000000000000000000000602082015250565b600061288e602283611df8565b915061289982612832565b604082019050919050565b600060208201905081810360008301526128bd81612881565b9050919050565b7f45524332303a20696e73756666696369656e7420616c6c6f77616e6365000000600082015250565b60006128fa601d83611df8565b9150612905826128c4565b602082019050919050565b60006020820190508181036000830152612929816128ed565b9050919050565b7f45524332303a207472616e736665722066726f6d20746865207a65726f20616460008201527f6472657373000000000000000000000000000000000000000000000000000000602082015250565b600061298c602583611df8565b915061299782612930565b604082019050919050565b600060208201905081810360008301526129bb8161297f565b9050919050565b7f45524332303a207472616e7366657220746f20746865207a65726f206164647260008201527f6573730000000000000000000000000000000000000000000000000000000000602082015250565b6000612a1e602383611df8565b9150612a29826129c2565b604082019050919050565b60006020820190508181036000830152612a4d81612a11565b9050919050565b7f45524332303a207472616e7366657220616d6f756e742065786365656473206260008201527f616c616e63650000000000000000000000000000000000000000000000000000602082015250565b6000612ab0602683611df8565b9150612abb82612a54565b604082019050919050565b60006020820190508181036000830152612adf81612aa3565b9050919050565b7f4e487b7100000000000000000000000000000000000000000000000000000000600052601260045260246000fd5b6000612b2082611f02565b9150612b2b83611f02565b925082612b3b57612b3a612ae6565b5b828204905092915050565b7f45524332303a206d696e7420746f20746865207a65726f206164647265737300600082015250565b6000612b7c601f83611df8565b9150612b8782612b46565b602082019050919050565b60006020820190508181036000830152612bab81612b6f565b9050919050565b7f45524332303a206275726e2066726f6d20746865207a65726f2061646472657360008201527f7300000000000000000000000000000000000000000000000000000000000000602082015250565b6000612c0e602183611df8565b9150612c1982612bb2565b604082019050919050565b60006020820190508181036000830152612c3d81612c01565b9050919050565b7f45524332303a206275726e20616d6f756e7420657863656564732062616c616e60008201527f6365000000000000000000000000000000000000000000000000000000000000602082015250565b6000612ca0602283611df8565b9150612cab82612c44565b604082019050919050565b60006020820190508181036000830152612ccf81612c93565b9050919050565b7f4f776e61626c653a2063616c6c6572206973206e6f7420746865206f776e6572600082015250565b6000612d0c602083611df8565b9150612d1782612cd6565b602082019050919050565b60006020820190508181036000830152612d3b81612cff565b905091905056fea26469706673582212205fda07217cc30a9b1f9ff7dee339dedb697ba76ad9901a8746a38b4177a7397564736f6c63430008120033",
					"opcodes": "PUSH1 0x80 PUSH1 0x40 MSTORE PUSH1 0x64 PUSH1 0x7 SSTORE CALLVALUE DUP1 ISZERO PUSH3 0x16 JUMPI PUSH1 0x0 DUP1 REVERT JUMPDEST POP PUSH1 0x40 MLOAD DUP1 PUSH1 0x40 ADD PUSH1 0x40 MSTORE DUP1 PUSH1 0x7 DUP2 MSTORE PUSH1 0x20 ADD PUSH32 0x4D79546F6B656E00000000000000000000000000000000000000000000000000 DUP2 MSTORE POP PUSH1 0x40 MLOAD DUP1 PUSH1 0x40 ADD PUSH1 0x40 MSTORE DUP1 PUSH1 0x3 DUP2 MSTORE PUSH1 0x20 ADD PUSH32 0x4D544B0000000000000000000000000000000000000000000000000000000000 DUP2 MSTORE POP DUP2 PUSH1 0x3 SWAP1 DUP2 PUSH3 0x94 SWAP2 SWAP1 PUSH3 0x426 JUMP JUMPDEST POP DUP1 PUSH1 0x4 SWAP1 DUP2 PUSH3 0xA6 SWAP2 SWAP1 PUSH3 0x426 JUMP JUMPDEST POP POP POP PUSH3 0xC9 PUSH3 0xBD PUSH3 0xDE PUSH1 0x20 SHL PUSH1 0x20 SHR JUMP JUMPDEST PUSH3 0xE6 PUSH1 0x20 SHL PUSH1 0x20 SHR JUMP JUMPDEST PUSH8 0xDE0B6B3A7640000 PUSH1 0x6 DUP2 SWAP1 SSTORE POP PUSH3 0x50D JUMP JUMPDEST PUSH1 0x0 CALLER SWAP1 POP SWAP1 JUMP JUMPDEST PUSH1 0x0 PUSH1 0x5 PUSH1 0x0 SWAP1 SLOAD SWAP1 PUSH2 0x100 EXP SWAP1 DIV PUSH20 0xFFFFFFFFFFFFFFFFFFFFFFFFFFFFFFFFFFFFFFFF AND SWAP1 POP DUP2 PUSH1 0x5 PUSH1 0x0 PUSH2 0x100 EXP DUP2 SLOAD DUP2 PUSH20 0xFFFFFFFFFFFFFFFFFFFFFFFFFFFFFFFFFFFFFFFF MUL NOT AND SWAP1 DUP4 PUSH20 0xFFFFFFFFFFFFFFFFFFFFFFFFFFFFFFFFFFFFFFFF AND MUL OR SWAP1 SSTORE POP DUP2 PUSH20 0xFFFFFFFFFFFFFFFFFFFFFFFFFFFFFFFFFFFFFFFF AND DUP2 PUSH20 0xFFFFFFFFFFFFFFFFFFFFFFFFFFFFFFFFFFFFFFFF AND PUSH32 0x8BE0079C531659141344CD1FD0A4F28419497F9722A3DAAFE3B4186F6B6457E0 PUSH1 0x40 MLOAD PUSH1 0x40 MLOAD DUP1 SWAP2 SUB SWAP1 LOG3 POP POP JUMP JUMPDEST PUSH1 0x0 DUP2 MLOAD SWAP1 POP SWAP2 SWAP1 POP JUMP JUMPDEST PUSH32 0x4E487B7100000000000000000000000000000000000000000000000000000000 PUSH1 0x0 MSTORE PUSH1 0x41 PUSH1 0x4 MSTORE PUSH1 0x24 PUSH1 0x0 REVERT JUMPDEST PUSH32 0x4E487B7100000000000000000000000000000000000000000000000000000000 PUSH1 0x0 MSTORE PUSH1 0x22 PUSH1 0x4 MSTORE PUSH1 0x24 PUSH1 0x0 REVERT JUMPDEST PUSH1 0x0 PUSH1 0x2 DUP3 DIV SWAP1 POP PUSH1 0x1 DUP3 AND DUP1 PUSH3 0x22E JUMPI PUSH1 0x7F DUP3 AND SWAP2 POP JUMPDEST PUSH1 0x20 DUP3 LT DUP2 SUB PUSH3 0x244 JUMPI PUSH3 0x243 PUSH3 0x1E6 JUMP JUMPDEST JUMPDEST POP SWAP2 SWAP1 POP JUMP JUMPDEST PUSH1 0x0 DUP2 SWAP1 POP DUP2 PUSH1 0x0 MSTORE PUSH1 0x20 PUSH1 0x0 KECCAK256 SWAP1 POP SWAP2 SWAP1 POP JUMP JUMPDEST PUSH1 0x0 PUSH1 0x20 PUSH1 0x1F DUP4 ADD DIV SWAP1 POP SWAP2 SWAP1 POP JUMP JUMPDEST PUSH1 0x0 DUP3 DUP3 SHL SWAP1 POP SWAP3 SWAP2 POP POP JUMP JUMPDEST PUSH1 0x0 PUSH1 0x8 DUP4 MUL PUSH3 0x2AE PUSH32 0xFFFFFFFFFFFFFFFFFFFFFFFFFFFFFFFFFFFFFFFFFFFFFFFFFFFFFFFFFFFFFFFF DUP3 PUSH3 0x26F JUMP JUMPDEST PUSH3 0x2BA DUP7 DUP4 PUSH3 0x26F JUMP JUMPDEST SWAP6 POP DUP1 NOT DUP5 AND SWAP4 POP DUP1 DUP7 AND DUP5 OR SWAP3 POP POP POP SWAP4 SWAP3 POP POP POP JUMP JUMPDEST PUSH1 0x0 DUP2 SWAP1 POP SWAP2 SWAP1 POP JUMP JUMPDEST PUSH1 0x0 DUP2 SWAP1 POP SWAP2 SWAP1 POP JUMP JUMPDEST PUSH1 0x0 PUSH3 0x307 PUSH3 0x301 PUSH3 0x2FB DUP5 PUSH3 0x2D2 JUMP JUMPDEST PUSH3 0x2DC JUMP JUMPDEST PUSH3 0x2D2 JUMP JUMPDEST SWAP1 POP SWAP2 SWAP1 POP JUMP JUMPDEST PUSH1 0x0 DUP2 SWAP1 POP SWAP2 SWAP1 POP JUMP JUMPDEST PUSH3 0x323 DUP4 PUSH3 0x2E6 JUMP JUMPDEST PUSH3 0x33B PUSH3 0x332 DUP3 PUSH3 0x30E JUMP JUMPDEST DUP5 DUP5 SLOAD PUSH3 0x27C JUMP JUMPDEST DUP3 SSTORE POP POP POP POP JUMP JUMPDEST PUSH1 0x0 SWAP1 JUMP JUMPDEST PUSH3 0x352 PUSH3 0x343 JUMP JUMPDEST PUSH3 0x35F DUP2 DUP5 DUP5 PUSH3 0x318 JUMP JUMPDEST POP POP POP JUMP JUMPDEST JUMPDEST DUP2 DUP2 LT ISZERO PUSH3 0x387 JUMPI PUSH3 0x37B PUSH1 0x0 DUP3 PUSH3 0x348 JUMP JUMPDEST PUSH1 0x1 DUP2 ADD SWAP1 POP PUSH3 0x365 JUMP JUMPDEST POP POP JUMP JUMPDEST PUSH1 0x1F DUP3 GT ISZERO PUSH3 0x3D6 JUMPI PUSH3 0x3A0 DUP2 PUSH3 0x24A JUMP JUMPDEST PUSH3 0x3AB DUP5 PUSH3 0x25F JUMP JUMPDEST DUP2 ADD PUSH1 0x20 DUP6 LT ISZERO PUSH3 0x3BB JUMPI DUP2 SWAP1 POP JUMPDEST PUSH3 0x3D3 PUSH3 0x3CA DUP6 PUSH3 0x25F JUMP JUMPDEST DUP4 ADD DUP3 PUSH3 0x364 JUMP JUMPDEST POP POP JUMPDEST POP POP POP JUMP JUMPDEST PUSH1 0x0 DUP3 DUP3 SHR SWAP1 POP SWAP3 SWAP2 POP POP JUMP JUMPDEST PUSH1 0x0 PUSH3 0x3FB PUSH1 0x0 NOT DUP5 PUSH1 0x8 MUL PUSH3 0x3DB JUMP JUMPDEST NOT DUP1 DUP4 AND SWAP2 POP POP SWAP3 SWAP2 POP POP JUMP JUMPDEST PUSH1 0x0 PUSH3 0x416 DUP4 DUP4 PUSH3 0x3E8 JUMP JUMPDEST SWAP2 POP DUP3 PUSH1 0x2 MUL DUP3 OR SWAP1 POP SWAP3 SWAP2 POP POP JUMP JUMPDEST PUSH3 0x431 DUP3 PUSH3 0x1AC JUMP JUMPDEST PUSH8 0xFFFFFFFFFFFFFFFF DUP2 GT ISZERO PUSH3 0x44D JUMPI PUSH3 0x44C PUSH3 0x1B7 JUMP JUMPDEST JUMPDEST PUSH3 0x459 DUP3 SLOAD PUSH3 0x215 JUMP JUMPDEST PUSH3 0x466 DUP3 DUP3 DUP6 PUSH3 0x38B JUMP JUMPDEST PUSH1 0x0 PUSH1 0x20 SWAP1 POP PUSH1 0x1F DUP4 GT PUSH1 0x1 DUP2 EQ PUSH3 0x49E JUMPI PUSH1 0x0 DUP5 ISZERO PUSH3 0x489 JUMPI DUP3 DUP8 ADD MLOAD SWAP1 POP JUMPDEST PUSH3 0x495 DUP6 DUP3 PUSH3 0x408 JUMP JUMPDEST DUP7 SSTORE POP PUSH3 0x505 JUMP JUMPDEST PUSH1 0x1F NOT DUP5 AND PUSH3 0x4AE DUP7 PUSH3 0x24A JUMP JUMPDEST PUSH1 0x0 JUMPDEST DUP3 DUP2 LT ISZERO PUSH3 0x4D8 JUMPI DUP5 DUP10 ADD MLOAD DUP3 SSTORE PUSH1 0x1 DUP3 ADD SWAP2 POP PUSH1 0x20 DUP6 ADD SWAP5 POP PUSH1 0x20 DUP2 ADD SWAP1 POP PUSH3 0x4B1 JUMP JUMPDEST DUP7 DUP4 LT ISZERO PUSH3 0x4F8 JUMPI DUP5 DUP10 ADD MLOAD PUSH3 0x4F4 PUSH1 0x1F DUP10 AND DUP3 PUSH3 0x3E8 JUMP JUMPDEST DUP4 SSTORE POP JUMPDEST PUSH1 0x1 PUSH1 0x2 DUP9 MUL ADD DUP9 SSTORE POP POP POP JUMPDEST POP POP POP POP POP POP JUMP JUMPDEST PUSH2 0x2D78 DUP1 PUSH3 0x51D PUSH1 0x0 CODECOPY PUSH1 0x0 RETURN INVALID PUSH1 0x80 PUSH1 0x40 MSTORE PUSH1 0x4 CALLDATASIZE LT PUSH2 0x166 JUMPI PUSH1 0x0 CALLDATALOAD PUSH1 0xE0 SHR DUP1 PUSH4 0x70A08231 GT PUSH2 0xD1 JUMPI DUP1 PUSH4 0x95D89B41 GT PUSH2 0x8A JUMPI DUP1 PUSH4 0xA9059CBB GT PUSH2 0x64 JUMPI DUP1 PUSH4 0xA9059CBB EQ PUSH2 0x51D JUMPI DUP1 PUSH4 0xC392F766 EQ PUSH2 0x55A JUMPI DUP1 PUSH4 0xDD62ED3E EQ PUSH2 0x585 JUMPI DUP1 PUSH4 0xF2FDE38B EQ PUSH2 0x5C2 JUMPI PUSH2 0x166 JUMP JUMPDEST DUP1 PUSH4 0x95D89B41 EQ PUSH2 0x48C JUMPI DUP1 PUSH4 0xA457C2D7 EQ PUSH2 0x4B7 JUMPI DUP1 PUSH4 0xA694FC3A EQ PUSH2 0x4F4 JUMPI PUSH2 0x166 JUMP JUMPDEST DUP1 PUSH4 0x70A08231 EQ PUSH2 0x37A JUMPI DUP1 PUSH4 0x715018A6 EQ PUSH2 0x3B7 JUMPI DUP1 PUSH4 0x79CC6790 EQ PUSH2 0x3CE JUMPI DUP1 PUSH4 0x7FF9B596 EQ PUSH2 0x3F7 JUMPI DUP1 PUSH4 0x8DA5CB5B EQ PUSH2 0x422 JUMPI DUP1 PUSH4 0x94EECB50 EQ PUSH2 0x44D JUMPI PUSH2 0x166 JUMP JUMPDEST DUP1 PUSH4 0x3610724E GT PUSH2 0x123 JUMPI DUP1 PUSH4 0x3610724E EQ PUSH2 0x28F JUMPI DUP1 PUSH4 0x372500AB EQ PUSH2 0x2AB JUMPI DUP1 PUSH4 0x39509351 EQ PUSH2 0x2C2 JUMPI DUP1 PUSH4 0x42966C68 EQ PUSH2 0x2FF JUMPI DUP1 PUSH4 0x6A61E5FC EQ PUSH2 0x328 JUMPI DUP1 PUSH4 0x6C11BCD3 EQ PUSH2 0x351 JUMPI PUSH2 0x166 JUMP JUMPDEST DUP1 PUSH4 0x6FDDE03 EQ PUSH2 0x16B JUMPI DUP1 PUSH4 0x95EA7B3 EQ PUSH2 0x196 JUMPI DUP1 PUSH4 0x18160DDD EQ PUSH2 0x1D3 JUMPI DUP1 PUSH4 0x23B872DD EQ PUSH2 0x1FE JUMPI DUP1 PUSH4 0x2E17DE78 EQ PUSH2 0x23B JUMPI DUP1 PUSH4 0x313CE567 EQ PUSH2 0x264 JUMPI JUMPDEST PUSH1 0x0 DUP1 REVERT JUMPDEST CALLVALUE DUP1 ISZERO PUSH2 0x177 JUMPI PUSH1 0x0 DUP1 REVERT JUMPDEST POP PUSH2 0x180 PUSH2 0x5EB JUMP JUMPDEST PUSH1 0x40 MLOAD PUSH2 0x18D SWAP2 SWAP1 PUSH2 0x1E7D JUMP JUMPDEST PUSH1 0x40 MLOAD DUP1 SWAP2 SUB SWAP1 RETURN JUMPDEST CALLVALUE DUP1 ISZERO PUSH2 0x1A2 JUMPI PUSH1 0x0 DUP1 REVERT JUMPDEST POP PUSH2 0x1BD PUSH1 0x4 DUP1 CALLDATASIZE SUB DUP2 ADD SWAP1 PUSH2 0x1B8 SWAP2 SWAP1 PUSH2 0x1F38 JUMP JUMPDEST PUSH2 0x67D JUMP JUMPDEST PUSH1 0x40 MLOAD PUSH2 0x1CA SWAP2 SWAP1 PUSH2 0x1F93 JUMP JUMPDEST PUSH1 0x40 MLOAD DUP1 SWAP2 SUB SWAP1 RETURN JUMPDEST CALLVALUE DUP1 ISZERO PUSH2 0x1DF JUMPI PUSH1 0x0 DUP1 REVERT JUMPDEST POP PUSH2 0x1E8 PUSH2 0x6A0 JUMP JUMPDEST PUSH1 0x40 MLOAD PUSH2 0x1F5 SWAP2 SWAP1 PUSH2 0x1FBD JUMP JUMPDEST PUSH1 0x40 MLOAD DUP1 SWAP2 SUB SWAP1 RETURN JUMPDEST CALLVALUE DUP1 ISZERO PUSH2 0x20A JUMPI PUSH1 0x0 DUP1 REVERT JUMPDEST POP PUSH2 0x225 PUSH1 0x4 DUP1 CALLDATASIZE SUB DUP2 ADD SWAP1 PUSH2 0x220 SWAP2 SWAP1 PUSH2 0x1FD8 JUMP JUMPDEST PUSH2 0x6AA JUMP JUMPDEST PUSH1 0x40 MLOAD PUSH2 0x232 SWAP2 SWAP1 PUSH2 0x1F93 JUMP JUMPDEST PUSH1 0x40 MLOAD DUP1 SWAP2 SUB SWAP1 RETURN JUMPDEST CALLVALUE DUP1 ISZERO PUSH2 0x247 JUMPI PUSH1 0x0 DUP1 REVERT JUMPDEST POP PUSH2 0x262 PUSH1 0x4 DUP1 CALLDATASIZE SUB DUP2 ADD SWAP1 PUSH2 0x25D SWAP2 SWAP1 PUSH2 0x202B JUMP JUMPDEST PUSH2 0x6D9 JUMP JUMPDEST STOP JUMPDEST CALLVALUE DUP1 ISZERO PUSH2 0x270 JUMPI PUSH1 0x0 DUP1 REVERT JUMPDEST POP PUSH2 0x279 PUSH2 0x9E9 JUMP JUMPDEST PUSH1 0x40 MLOAD PUSH2 0x286 SWAP2 SWAP1 PUSH2 0x2074 JUMP JUMPDEST PUSH1 0x40 MLOAD DUP1 SWAP2 SUB SWAP1 RETURN JUMPDEST PUSH2 0x2A9 PUSH1 0x4 DUP1 CALLDATASIZE SUB DUP2 ADD SWAP1 PUSH2 0x2A4 SWAP2 SWAP1 PUSH2 0x202B JUMP JUMPDEST PUSH2 0x9F2 JUMP JUMPDEST STOP JUMPDEST CALLVALUE DUP1 ISZERO PUSH2 0x2B7 JUMPI PUSH1 0x0 DUP1 REVERT JUMPDEST POP PUSH2 0x2C0 PUSH2 0xAC4 JUMP JUMPDEST STOP JUMPDEST CALLVALUE DUP1 ISZERO PUSH2 0x2CE JUMPI PUSH1 0x0 DUP1 REVERT JUMPDEST POP PUSH2 0x2E9 PUSH1 0x4 DUP1 CALLDATASIZE SUB DUP2 ADD SWAP1 PUSH2 0x2E4 SWAP2 SWAP1 PUSH2 0x1F38 JUMP JUMPDEST PUSH2 0xC25 JUMP JUMPDEST PUSH1 0x40 MLOAD PUSH2 0x2F6 SWAP2 SWAP1 PUSH2 0x1F93 JUMP JUMPDEST PUSH1 0x40 MLOAD DUP1 SWAP2 SUB SWAP1 RETURN JUMPDEST CALLVALUE DUP1 ISZERO PUSH2 0x30B JUMPI PUSH1 0x0 DUP1 REVERT JUMPDEST POP PUSH2 0x326 PUSH1 0x4 DUP1 CALLDATASIZE SUB DUP2 ADD SWAP1 PUSH2 0x321 SWAP2 SWAP1 PUSH2 0x202B JUMP JUMPDEST PUSH2 0xC5C JUMP JUMPDEST STOP JUMPDEST CALLVALUE DUP1 ISZERO PUSH2 0x334 JUMPI PUSH1 0x0 DUP1 REVERT JUMPDEST POP PUSH2 0x34F PUSH1 0x4 DUP1 CALLDATASIZE SUB DUP2 ADD SWAP1 PUSH2 0x34A SWAP2 SWAP1 PUSH2 0x202B JUMP JUMPDEST PUSH2 0xC70 JUMP JUMPDEST STOP JUMPDEST CALLVALUE DUP1 ISZERO PUSH2 0x35D JUMPI PUSH1 0x0 DUP1 REVERT JUMPDEST POP PUSH2 0x378 PUSH1 0x4 DUP1 CALLDATASIZE SUB DUP2 ADD SWAP1 PUSH2 0x373 SWAP2 SWAP1 PUSH2 0x202B JUMP JUMPDEST PUSH2 0xC82 JUMP JUMPDEST STOP JUMPDEST CALLVALUE DUP1 ISZERO PUSH2 0x386 JUMPI PUSH1 0x0 DUP1 REVERT JUMPDEST POP PUSH2 0x3A1 PUSH1 0x4 DUP1 CALLDATASIZE SUB DUP2 ADD SWAP1 PUSH2 0x39C SWAP2 SWAP1 PUSH2 0x208F JUMP JUMPDEST PUSH2 0xE1C JUMP JUMPDEST PUSH1 0x40 MLOAD PUSH2 0x3AE SWAP2 SWAP1 PUSH2 0x1FBD JUMP JUMPDEST PUSH1 0x40 MLOAD DUP1 SWAP2 SUB SWAP1 RETURN JUMPDEST CALLVALUE DUP1 ISZERO PUSH2 0x3C3 JUMPI PUSH1 0x0 DUP1 REVERT JUMPDEST POP PUSH2 0x3CC PUSH2 0xE64 JUMP JUMPDEST STOP JUMPDEST CALLVALUE DUP1 ISZERO PUSH2 0x3DA JUMPI PUSH1 0x0 DUP1 REVERT JUMPDEST POP PUSH2 0x3F5 PUSH1 0x4 DUP1 CALLDATASIZE SUB DUP2 ADD SWAP1 PUSH2 0x3F0 SWAP2 SWAP1 PUSH2 0x1F38 JUMP JUMPDEST PUSH2 0xE78 JUMP JUMPDEST STOP JUMPDEST CALLVALUE DUP1 ISZERO PUSH2 0x403 JUMPI PUSH1 0x0 DUP1 REVERT JUMPDEST POP PUSH2 0x40C PUSH2 0xE98 JUMP JUMPDEST PUSH1 0x40 MLOAD PUSH2 0x419 SWAP2 SWAP1 PUSH2 0x1FBD JUMP JUMPDEST PUSH1 0x40 MLOAD DUP1 SWAP2 SUB SWAP1 RETURN JUMPDEST CALLVALUE DUP1 ISZERO PUSH2 0x42E JUMPI PUSH1 0x0 DUP1 REVERT JUMPDEST POP PUSH2 0x437 PUSH2 0xE9E JUMP JUMPDEST PUSH1 0x40 MLOAD PUSH2 0x444 SWAP2 SWAP1 PUSH2 0x20CB JUMP JUMPDEST PUSH1 0x40 MLOAD DUP1 SWAP2 SUB SWAP1 RETURN JUMPDEST CALLVALUE DUP1 ISZERO PUSH2 0x459 JUMPI PUSH1 0x0 DUP1 REVERT JUMPDEST POP PUSH2 0x474 PUSH1 0x4 DUP1 CALLDATASIZE SUB DUP2 ADD SWAP1 PUSH2 0x46F SWAP2 SWAP1 PUSH2 0x208F JUMP JUMPDEST PUSH2 0xEC8 JUMP JUMPDEST PUSH1 0x40 MLOAD PUSH2 0x483 SWAP4 SWAP3 SWAP2 SWAP1 PUSH2 0x20E6 JUMP JUMPDEST PUSH1 0x40 MLOAD DUP1 SWAP2 SUB SWAP1 RETURN JUMPDEST CALLVALUE DUP1 ISZERO PUSH2 0x498 JUMPI PUSH1 0x0 DUP1 REVERT JUMPDEST POP PUSH2 0x4A1 PUSH2 0xEF2 JUMP JUMPDEST PUSH1 0x40 MLOAD PUSH2 0x4AE SWAP2 SWAP1 PUSH2 0x1E7D JUMP JUMPDEST PUSH1 0x40 MLOAD DUP1 SWAP2 SUB SWAP1 RETURN JUMPDEST CALLVALUE DUP1 ISZERO PUSH2 0x4C3 JUMPI PUSH1 0x0 DUP1 REVERT JUMPDEST POP PUSH2 0x4DE PUSH1 0x4 DUP1 CALLDATASIZE SUB DUP2 ADD SWAP1 PUSH2 0x4D9 SWAP2 SWAP1 PUSH2 0x1F38 JUMP JUMPDEST PUSH2 0xF84 JUMP JUMPDEST PUSH1 0x40 MLOAD PUSH2 0x4EB SWAP2 SWAP1 PUSH2 0x1F93 JUMP JUMPDEST PUSH1 0x40 MLOAD DUP1 SWAP2 SUB SWAP1 RETURN JUMPDEST CALLVALUE DUP1 ISZERO PUSH2 0x500 JUMPI PUSH1 0x0 DUP1 REVERT JUMPDEST POP PUSH2 0x51B PUSH1 0x4 DUP1 CALLDATASIZE SUB DUP2 ADD SWAP1 PUSH2 0x516 SWAP2 SWAP1 PUSH2 0x202B JUMP JUMPDEST PUSH2 0xFFB JUMP JUMPDEST STOP JUMPDEST CALLVALUE DUP1 ISZERO PUSH2 0x529 JUMPI PUSH1 0x0 DUP1 REVERT JUMPDEST POP PUSH2 0x544 PUSH1 0x4 DUP1 CALLDATASIZE SUB DUP2 ADD SWAP1 PUSH2 0x53F SWAP2 SWAP1 PUSH2 0x1F38 JUMP JUMPDEST PUSH2 0x11FA JUMP JUMPDEST PUSH1 0x40 MLOAD PUSH2 0x551 SWAP2 SWAP1 PUSH2 0x1F93 JUMP JUMPDEST PUSH1 0x40 MLOAD DUP1 SWAP2 SUB SWAP1 RETURN JUMPDEST CALLVALUE DUP1 ISZERO PUSH2 0x566 JUMPI PUSH1 0x0 DUP1 REVERT JUMPDEST POP PUSH2 0x56F PUSH2 0x121D JUMP JUMPDEST PUSH1 0x40 MLOAD PUSH2 0x57C SWAP2 SWAP1 PUSH2 0x1FBD JUMP JUMPDEST PUSH1 0x40 MLOAD DUP1 SWAP2 SUB SWAP1 RETURN JUMPDEST CALLVALUE DUP1 ISZERO PUSH2 0x591 JUMPI PUSH1 0x0 DUP1 REVERT JUMPDEST POP PUSH2 0x5AC PUSH1 0x4 DUP1 CALLDATASIZE SUB DUP2 ADD SWAP1 PUSH2 0x5A7 SWAP2 SWAP1 PUSH2 0x211D JUMP JUMPDEST PUSH2 0x1223 JUMP JUMPDEST PUSH1 0x40 MLOAD PUSH2 0x5B9 SWAP2 SWAP1 PUSH2 0x1FBD JUMP JUMPDEST PUSH1 0x40 MLOAD DUP1 SWAP2 SUB SWAP1 RETURN JUMPDEST CALLVALUE DUP1 ISZERO PUSH2 0x5CE JUMPI PUSH1 0x0 DUP1 REVERT JUMPDEST POP PUSH2 0x5E9 PUSH1 0x4 DUP1 CALLDATASIZE SUB DUP2 ADD SWAP1 PUSH2 0x5E4 SWAP2 SWAP1 PUSH2 0x208F JUMP JUMPDEST PUSH2 0x12AA JUMP JUMPDEST STOP JUMPDEST PUSH1 0x60 PUSH1 0x3 DUP1 SLOAD PUSH2 0x5FA SWAP1 PUSH2 0x218C JUMP JUMPDEST DUP1 PUSH1 0x1F ADD PUSH1 0x20 DUP1 SWAP2 DIV MUL PUSH1 0x20 ADD PUSH1 0x40 MLOAD SWAP1 DUP2 ADD PUSH1 0x40 MSTORE DUP1 SWAP3 SWAP2 SWAP1 DUP2 DUP2 MSTORE PUSH1 0x20 ADD DUP3 DUP1 SLOAD PUSH2 0x626 SWAP1 PUSH2 0x218C JUMP JUMPDEST DUP1 ISZERO PUSH2 0x673 JUMPI DUP1 PUSH1 0x1F LT PUSH2 0x648 JUMPI PUSH2 0x100 DUP1 DUP4 SLOAD DIV MUL DUP4 MSTORE SWAP2 PUSH1 0x20 ADD SWAP2 PUSH2 0x673 JUMP JUMPDEST DUP3 ADD SWAP2 SWAP1 PUSH1 0x0 MSTORE PUSH1 0x20 PUSH1 0x0 KECCAK256 SWAP1 JUMPDEST DUP2 SLOAD DUP2 MSTORE SWAP1 PUSH1 0x1 ADD SWAP1 PUSH1 0x20 ADD DUP1 DUP4 GT PUSH2 0x656 JUMPI DUP3 SWAP1 SUB PUSH1 0x1F AND DUP3 ADD SWAP2 JUMPDEST POP POP POP POP POP SWAP1 POP SWAP1 JUMP JUMPDEST PUSH1 0x0 DUP1 PUSH2 0x688 PUSH2 0x132D JUMP JUMPDEST SWAP1 POP PUSH2 0x695 DUP2 DUP6 DUP6 PUSH2 0x1335 JUMP JUMPDEST PUSH1 0x1 SWAP2 POP POP SWAP3 SWAP2 POP POP JUMP JUMPDEST PUSH1 0x0 PUSH1 0x2 SLOAD SWAP1 POP SWAP1 JUMP JUMPDEST PUSH1 0x0 DUP1 PUSH2 0x6B5 PUSH2 0x132D JUMP JUMPDEST SWAP1 POP PUSH2 0x6C2 DUP6 DUP3 DUP6 PUSH2 0x14FE JUMP JUMPDEST PUSH2 0x6CD DUP6 DUP6 DUP6 PUSH2 0x158A JUMP JUMPDEST PUSH1 0x1 SWAP2 POP POP SWAP4 SWAP3 POP POP POP JUMP JUMPDEST PUSH1 0x0 DUP2 GT PUSH2 0x71C JUMPI PUSH1 0x40 MLOAD PUSH32 0x8C379A000000000000000000000000000000000000000000000000000000000 DUP2 MSTORE PUSH1 0x4 ADD PUSH2 0x713 SWAP1 PUSH2 0x222F JUMP JUMPDEST PUSH1 0x40 MLOAD DUP1 SWAP2 SUB SWAP1 REVERT JUMPDEST DUP1 PUSH1 0x8 PUSH1 0x0 CALLER PUSH20 0xFFFFFFFFFFFFFFFFFFFFFFFFFFFFFFFFFFFFFFFF AND PUSH20 0xFFFFFFFFFFFFFFFFFFFFFFFFFFFFFFFFFFFFFFFF AND DUP2 MSTORE PUSH1 0x20 ADD SWAP1 DUP2 MSTORE PUSH1 0x20 ADD PUSH1 0x0 KECCAK256 PUSH1 0x0 ADD SLOAD LT ISZERO PUSH2 0x7A1 JUMPI PUSH1 0x40 MLOAD PUSH32 0x8C379A000000000000000000000000000000000000000000000000000000000 DUP2 MSTORE PUSH1 0x4 ADD PUSH2 0x798 SWAP1 PUSH2 0x229B JUMP JUMPDEST PUSH1 0x40 MLOAD DUP1 SWAP2 SUB SWAP1 REVERT JUMPDEST PUSH2 0x7AA CALLER PUSH2 0x1800 JUMP JUMPDEST DUP1 PUSH1 0x8 PUSH1 0x0 CALLER PUSH20 0xFFFFFFFFFFFFFFFFFFFFFFFFFFFFFFFFFFFFFFFF AND PUSH20 0xFFFFFFFFFFFFFFFFFFFFFFFFFFFFFFFFFFFFFFFF AND DUP2 MSTORE PUSH1 0x20 ADD SWAP1 DUP2 MSTORE PUSH1 0x20 ADD PUSH1 0x0 KECCAK256 PUSH1 0x0 ADD PUSH1 0x0 DUP3 DUP3 SLOAD PUSH2 0x7FC SWAP2 SWAP1 PUSH2 0x22EA JUMP JUMPDEST SWAP3 POP POP DUP2 SWAP1 SSTORE POP PUSH1 0x0 PUSH1 0x8 PUSH1 0x0 CALLER PUSH20 0xFFFFFFFFFFFFFFFFFFFFFFFFFFFFFFFFFFFFFFFF AND PUSH20 0xFFFFFFFFFFFFFFFFFFFFFFFFFFFFFFFFFFFFFFFF AND DUP2 MSTORE PUSH1 0x20 ADD SWAP1 DUP2 MSTORE PUSH1 0x20 ADD PUSH1 0x0 KECCAK256 PUSH1 0x0 ADD SLOAD SUB PUSH2 0x9DB JUMPI PUSH1 0x0 JUMPDEST PUSH1 0x9 DUP1 SLOAD SWAP1 POP DUP2 LT ISZERO PUSH2 0x9D9 JUMPI CALLER PUSH20 0xFFFFFFFFFFFFFFFFFFFFFFFFFFFFFFFFFFFFFFFF AND PUSH1 0x9 DUP3 DUP2 SLOAD DUP2 LT PUSH2 0x888 JUMPI PUSH2 0x887 PUSH2 0x231E JUMP JUMPDEST JUMPDEST SWAP1 PUSH1 0x0 MSTORE PUSH1 0x20 PUSH1 0x0 KECCAK256 ADD PUSH1 0x0 SWAP1 SLOAD SWAP1 PUSH2 0x100 EXP SWAP1 DIV PUSH20 0xFFFFFFFFFFFFFFFFFFFFFFFFFFFFFFFFFFFFFFFF AND PUSH20 0xFFFFFFFFFFFFFFFFFFFFFFFFFFFFFFFFFFFFFFFF AND SUB PUSH2 0x9C6 JUMPI PUSH1 0x9 PUSH1 0x1 PUSH1 0x9 DUP1 SLOAD SWAP1 POP PUSH2 0x8E2 SWAP2 SWAP1 PUSH2 0x22EA JUMP JUMPDEST DUP2 SLOAD DUP2 LT PUSH2 0x8F3 JUMPI PUSH2 0x8F2 PUSH2 0x231E JUMP JUMPDEST JUMPDEST SWAP1 PUSH1 0x0 MSTORE PUSH1 0x20 PUSH1 0x0 KECCAK256 ADD PUSH1 0x0 SWAP1 SLOAD SWAP1 PUSH2 0x100 EXP SWAP1 DIV PUSH20 0xFFFFFFFFFFFFFFFFFFFFFFFFFFFFFFFFFFFFFFFF AND PUSH1 0x9 DUP3 DUP2 SLOAD DUP2 LT PUSH2 0x932 JUMPI PUSH2 0x931 PUSH2 0x231E JUMP JUMPDEST JUMPDEST SWAP1 PUSH1 0x0 MSTORE PUSH1 0x20 PUSH1 0x0 KECCAK256 ADD PUSH1 0x0 PUSH2 0x100 EXP DUP2 SLOAD DUP2 PUSH20 0xFFFFFFFFFFFFFFFFFFFFFFFFFFFFFFFFFFFFFFFF MUL NOT AND SWAP1 DUP4 PUSH20 0xFFFFFFFFFFFFFFFFFFFFFFFFFFFFFFFFFFFFFFFF AND MUL OR SWAP1 SSTORE POP PUSH1 0x9 DUP1 SLOAD DUP1 PUSH2 0x98C JUMPI PUSH2 0x98B PUSH2 0x234D JUMP JUMPDEST JUMPDEST PUSH1 0x1 SWAP1 SUB DUP2 DUP2 SWAP1 PUSH1 0x0 MSTORE PUSH1 0x20 PUSH1 0x0 KECCAK256 ADD PUSH1 0x0 PUSH2 0x100 EXP DUP2 SLOAD SWAP1 PUSH20 0xFFFFFFFFFFFFFFFFFFFFFFFFFFFFFFFFFFFFFFFF MUL NOT AND SWAP1 SSTORE SWAP1 SSTORE PUSH2 0x9D9 JUMP JUMPDEST DUP1 DUP1 PUSH2 0x9D1 SWAP1 PUSH2 0x237C JUMP JUMPDEST SWAP2 POP POP PUSH2 0x850 JUMP JUMPDEST POP JUMPDEST PUSH2 0x9E6 ADDRESS CALLER DUP4 PUSH2 0x158A JUMP JUMPDEST POP JUMP JUMPDEST PUSH1 0x0 PUSH1 0x12 SWAP1 POP SWAP1 JUMP JUMPDEST PUSH1 0x6 SLOAD DUP2 PUSH2 0xA00 SWAP2 SWAP1 PUSH2 0x23C4 JUMP JUMPDEST CALLVALUE LT ISZERO PUSH2 0xA42 JUMPI PUSH1 0x40 MLOAD PUSH32 0x8C379A000000000000000000000000000000000000000000000000000000000 DUP2 MSTORE PUSH1 0x4 ADD PUSH2 0xA39 SWAP1 PUSH2 0x2452 JUMP JUMPDEST PUSH1 0x40 MLOAD DUP1 SWAP2 SUB SWAP1 REVERT JUMPDEST PUSH2 0xA4C CALLER DUP3 PUSH2 0x197C JUMP JUMPDEST PUSH1 0x6 SLOAD DUP2 PUSH2 0xA5A SWAP2 SWAP1 PUSH2 0x23C4 JUMP JUMPDEST CALLVALUE GT ISZERO PUSH2 0xAC1 JUMPI CALLER PUSH20 0xFFFFFFFFFFFFFFFFFFFFFFFFFFFFFFFFFFFFFFFF AND PUSH2 0x8FC PUSH1 0x6 SLOAD DUP4 PUSH2 0xA89 SWAP2 SWAP1 PUSH2 0x23C4 JUMP JUMPDEST CALLVALUE PUSH2 0xA94 SWAP2 SWAP1 PUSH2 0x22EA JUMP JUMPDEST SWAP1 DUP2 ISZERO MUL SWAP1 PUSH1 0x40 MLOAD PUSH1 0x0 PUSH1 0x40 MLOAD DUP1 DUP4 SUB DUP2 DUP6 DUP9 DUP9 CALL SWAP4 POP POP POP POP ISZERO DUP1 ISZERO PUSH2 0xABF JUMPI RETURNDATASIZE PUSH1 0x0 DUP1 RETURNDATACOPY RETURNDATASIZE PUSH1 0x0 REVERT JUMPDEST POP JUMPDEST POP JUMP JUMPDEST PUSH2 0xACD CALLER PUSH2 0x1800 JUMP JUMPDEST PUSH1 0x0 PUSH1 0x8 PUSH1 0x0 CALLER PUSH20 0xFFFFFFFFFFFFFFFFFFFFFFFFFFFFFFFFFFFFFFFF AND PUSH20 0xFFFFFFFFFFFFFFFFFFFFFFFFFFFFFFFFFFFFFFFF AND DUP2 MSTORE PUSH1 0x20 ADD SWAP1 DUP2 MSTORE PUSH1 0x20 ADD PUSH1 0x0 KECCAK256 PUSH1 0x2 ADD SLOAD GT PUSH2 0xB52 JUMPI PUSH1 0x40 MLOAD PUSH32 0x8C379A000000000000000000000000000000000000000000000000000000000 DUP2 MSTORE PUSH1 0x4 ADD PUSH2 0xB49 SWAP1 PUSH2 0x24BE JUMP JUMPDEST PUSH1 0x40 MLOAD DUP1 SWAP2 SUB SWAP1 REVERT JUMPDEST CALLER PUSH20 0xFFFFFFFFFFFFFFFFFFFFFFFFFFFFFFFFFFFFFFFF AND PUSH2 0x8FC PUSH1 0x8 PUSH1 0x0 CALLER PUSH20 0xFFFFFFFFFFFFFFFFFFFFFFFFFFFFFFFFFFFFFFFF AND PUSH20 0xFFFFFFFFFFFFFFFFFFFFFFFFFFFFFFFFFFFFFFFF AND DUP2 MSTORE PUSH1 0x20 ADD SWAP1 DUP2 MSTORE PUSH1 0x20 ADD PUSH1 0x0 KECCAK256 PUSH1 0x2 ADD SLOAD SWAP1 DUP2 ISZERO MUL SWAP1 PUSH1 0x40 MLOAD PUSH1 0x0 PUSH1 0x40 MLOAD DUP1 DUP4 SUB DUP2 DUP6 DUP9 DUP9 CALL SWAP4 POP POP POP POP ISZERO DUP1 ISZERO PUSH2 0xBDA JUMPI RETURNDATASIZE PUSH1 0x0 DUP1 RETURNDATACOPY RETURNDATASIZE PUSH1 0x0 REVERT JUMPDEST POP PUSH1 0x0 PUSH1 0x8 PUSH1 0x0 CALLER PUSH20 0xFFFFFFFFFFFFFFFFFFFFFFFFFFFFFFFFFFFFFFFF AND PUSH20 0xFFFFFFFFFFFFFFFFFFFFFFFFFFFFFFFFFFFFFFFF AND DUP2 MSTORE PUSH1 0x20 ADD SWAP1 DUP2 MSTORE PUSH1 0x20 ADD PUSH1 0x0 KECCAK256 PUSH1 0x2 ADD DUP2 SWAP1 SSTORE POP JUMP JUMPDEST PUSH1 0x0 DUP1 PUSH2 0xC30 PUSH2 0x132D JUMP JUMPDEST SWAP1 POP PUSH2 0xC51 DUP2 DUP6 DUP6 PUSH2 0xC42 DUP6 DUP10 PUSH2 0x1223 JUMP JUMPDEST PUSH2 0xC4C SWAP2 SWAP1 PUSH2 0x24DE JUMP JUMPDEST PUSH2 0x1335 JUMP JUMPDEST PUSH1 0x1 SWAP2 POP POP SWAP3 SWAP2 POP POP JUMP JUMPDEST PUSH2 0xC6D PUSH2 0xC67 PUSH2 0x132D JUMP JUMPDEST DUP3 PUSH2 0x1AD2 JUMP JUMPDEST POP JUMP JUMPDEST PUSH2 0xC78 PUSH2 0x1C9F JUMP JUMPDEST DUP1 PUSH1 0x6 DUP2 SWAP1 SSTORE POP POP JUMP JUMPDEST DUP1 PUSH2 0xC8C CALLER PUSH2 0xE1C JUMP JUMPDEST LT ISZERO PUSH2 0xCCD JUMPI PUSH1 0x40 MLOAD PUSH32 0x8C379A000000000000000000000000000000000000000000000000000000000 DUP2 MSTORE PUSH1 0x4 ADD PUSH2 0xCC4 SWAP1 PUSH2 0x255E JUMP JUMPDEST PUSH1 0x40 MLOAD DUP1 SWAP2 SUB SWAP1 REVERT JUMPDEST PUSH1 0x0 PUSH1 0x8 PUSH1 0x0 CALLER PUSH20 0xFFFFFFFFFFFFFFFFFFFFFFFFFFFFFFFFFFFFFFFF AND PUSH20 0xFFFFFFFFFFFFFFFFFFFFFFFFFFFFFFFFFFFFFFFF AND DUP2 MSTORE PUSH1 0x20 ADD SWAP1 DUP2 MSTORE PUSH1 0x20 ADD PUSH1 0x0 KECCAK256 PUSH1 0x2 ADD SLOAD PUSH1 0x6 SLOAD DUP4 PUSH2 0xD20 SWAP2 SWAP1 PUSH2 0x23C4 JUMP JUMPDEST PUSH2 0xD2A SWAP2 SWAP1 PUSH2 0x24DE JUMP JUMPDEST SWAP1 POP PUSH1 0x8 PUSH1 0x0 CALLER PUSH20 0xFFFFFFFFFFFFFFFFFFFFFFFFFFFFFFFFFFFFFFFF AND PUSH20 0xFFFFFFFFFFFFFFFFFFFFFFFFFFFFFFFFFFFFFFFF AND DUP2 MSTORE PUSH1 0x20 ADD SWAP1 DUP2 MSTORE PUSH1 0x20 ADD PUSH1 0x0 KECCAK256 PUSH1 0x2 ADD SLOAD PUSH1 0x8 PUSH1 0x0 CALLER PUSH20 0xFFFFFFFFFFFFFFFFFFFFFFFFFFFFFFFFFFFFFFFF AND PUSH20 0xFFFFFFFFFFFFFFFFFFFFFFFFFFFFFFFFFFFFFFFF AND DUP2 MSTORE PUSH1 0x20 ADD SWAP1 DUP2 MSTORE PUSH1 0x20 ADD PUSH1 0x0 KECCAK256 PUSH1 0x2 ADD PUSH1 0x0 DUP3 DUP3 SLOAD PUSH2 0xDC0 SWAP2 SWAP1 PUSH2 0x22EA JUMP JUMPDEST SWAP3 POP POP DUP2 SWAP1 SSTORE POP PUSH2 0xDD1 CALLER DUP4 PUSH2 0x1AD2 JUMP JUMPDEST CALLER PUSH20 0xFFFFFFFFFFFFFFFFFFFFFFFFFFFFFFFFFFFFFFFF AND PUSH2 0x8FC DUP3 SWAP1 DUP2 ISZERO MUL SWAP1 PUSH1 0x40 MLOAD PUSH1 0x0 PUSH1 0x40 MLOAD DUP1 DUP4 SUB DUP2 DUP6 DUP9 DUP9 CALL SWAP4 POP POP POP POP ISZERO DUP1 ISZERO PUSH2 0xE17 JUMPI RETURNDATASIZE PUSH1 0x0 DUP1 RETURNDATACOPY RETURNDATASIZE PUSH1 0x0 REVERT JUMPDEST POP POP POP JUMP JUMPDEST PUSH1 0x0 DUP1 PUSH1 0x0 DUP4 PUSH20 0xFFFFFFFFFFFFFFFFFFFFFFFFFFFFFFFFFFFFFFFF AND PUSH20 0xFFFFFFFFFFFFFFFFFFFFFFFFFFFFFFFFFFFFFFFF AND DUP2 MSTORE PUSH1 0x20 ADD SWAP1 DUP2 MSTORE PUSH1 0x20 ADD PUSH1 0x0 KECCAK256 SLOAD SWAP1 POP SWAP2 SWAP1 POP JUMP JUMPDEST PUSH2 0xE6C PUSH2 0x1C9F JUMP JUMPDEST PUSH2 0xE76 PUSH1 0x0 PUSH2 0x1D1D JUMP JUMPDEST JUMP JUMPDEST PUSH2 0xE8A DUP3 PUSH2 0xE84 PUSH2 0x132D JUMP JUMPDEST DUP4 PUSH2 0x14FE JUMP JUMPDEST PUSH2 0xE94 DUP3 DUP3 PUSH2 0x1AD2 JUMP JUMPDEST POP POP JUMP JUMPDEST PUSH1 0x6 SLOAD DUP2 JUMP JUMPDEST PUSH1 0x0 PUSH1 0x5 PUSH1 0x0 SWAP1 SLOAD SWAP1 PUSH2 0x100 EXP SWAP1 DIV PUSH20 0xFFFFFFFFFFFFFFFFFFFFFFFFFFFFFFFFFFFFFFFF AND SWAP1 POP SWAP1 JUMP JUMPDEST PUSH1 0x8 PUSH1 0x20 MSTORE DUP1 PUSH1 0x0 MSTORE PUSH1 0x40 PUSH1 0x0 KECCAK256 PUSH1 0x0 SWAP2 POP SWAP1 POP DUP1 PUSH1 0x0 ADD SLOAD SWAP1 DUP1 PUSH1 0x1 ADD SLOAD SWAP1 DUP1 PUSH1 0x2 ADD SLOAD SWAP1 POP DUP4 JUMP JUMPDEST PUSH1 0x60 PUSH1 0x4 DUP1 SLOAD PUSH2 0xF01 SWAP1 PUSH2 0x218C JUMP JUMPDEST DUP1 PUSH1 0x1F ADD PUSH1 0x20 DUP1 SWAP2 DIV MUL PUSH1 0x20 ADD PUSH1 0x40 MLOAD SWAP1 DUP2 ADD PUSH1 0x40 MSTORE DUP1 SWAP3 SWAP2 SWAP1 DUP2 DUP2 MSTORE PUSH1 0x20 ADD DUP3 DUP1 SLOAD PUSH2 0xF2D SWAP1 PUSH2 0x218C JUMP JUMPDEST DUP1 ISZERO PUSH2 0xF7A JUMPI DUP1 PUSH1 0x1F LT PUSH2 0xF4F JUMPI PUSH2 0x100 DUP1 DUP4 SLOAD DIV MUL DUP4 MSTORE SWAP2 PUSH1 0x20 ADD SWAP2 PUSH2 0xF7A JUMP JUMPDEST DUP3 ADD SWAP2 SWAP1 PUSH1 0x0 MSTORE PUSH1 0x20 PUSH1 0x0 KECCAK256 SWAP1 JUMPDEST DUP2 SLOAD DUP2 MSTORE SWAP1 PUSH1 0x1 ADD SWAP1 PUSH1 0x20 ADD DUP1 DUP4 GT PUSH2 0xF5D JUMPI DUP3 SWAP1 SUB PUSH1 0x1F AND DUP3 ADD SWAP2 JUMPDEST POP POP POP POP POP SWAP1 POP SWAP1 JUMP JUMPDEST PUSH1 0x0 DUP1 PUSH2 0xF8F PUSH2 0x132D JUMP JUMPDEST SWAP1 POP PUSH1 0x0 PUSH2 0xF9D DUP3 DUP7 PUSH2 0x1223 JUMP JUMPDEST SWAP1 POP DUP4 DUP2 LT ISZERO PUSH2 0xFE2 JUMPI PUSH1 0x40 MLOAD PUSH32 0x8C379A000000000000000000000000000000000000000000000000000000000 DUP2 MSTORE PUSH1 0x4 ADD PUSH2 0xFD9 SWAP1 PUSH2 0x25F0 JUMP JUMPDEST PUSH1 0x40 MLOAD DUP1 SWAP2 SUB SWAP1 REVERT JUMPDEST PUSH2 0xFEF DUP3 DUP7 DUP7 DUP5 SUB PUSH2 0x1335 JUMP JUMPDEST PUSH1 0x1 SWAP3 POP POP POP SWAP3 SWAP2 POP POP JUMP JUMPDEST PUSH1 0x0 DUP2 GT PUSH2 0x103E JUMPI PUSH1 0x40 MLOAD PUSH32 0x8C379A000000000000000000000000000000000000000000000000000000000 DUP2 MSTORE PUSH1 0x4 ADD PUSH2 0x1035 SWAP1 PUSH2 0x265C JUMP JUMPDEST PUSH1 0x40 MLOAD DUP1 SWAP2 SUB SWAP1 REVERT JUMPDEST DUP1 PUSH2 0x1048 CALLER PUSH2 0xE1C JUMP JUMPDEST LT ISZERO PUSH2 0x1089 JUMPI PUSH1 0x40 MLOAD PUSH32 0x8C379A000000000000000000000000000000000000000000000000000000000 DUP2 MSTORE PUSH1 0x4 ADD PUSH2 0x1080 SWAP1 PUSH2 0x26EE JUMP JUMPDEST PUSH1 0x40 MLOAD DUP1 SWAP2 SUB SWAP1 REVERT JUMPDEST PUSH1 0x0 TIMESTAMP SWAP1 POP PUSH1 0x0 PUSH1 0x8 PUSH1 0x0 CALLER PUSH20 0xFFFFFFFFFFFFFFFFFFFFFFFFFFFFFFFFFFFFFFFF AND PUSH20 0xFFFFFFFFFFFFFFFFFFFFFFFFFFFFFFFFFFFFFFFF AND DUP2 MSTORE PUSH1 0x20 ADD SWAP1 DUP2 MSTORE PUSH1 0x20 ADD PUSH1 0x0 KECCAK256 PUSH1 0x0 ADD SLOAD GT ISZERO PUSH2 0x10E7 JUMPI PUSH2 0x10E2 CALLER PUSH2 0x1800 JUMP JUMPDEST PUSH2 0x114B JUMP JUMPDEST PUSH1 0x9 CALLER SWAP1 DUP1 PUSH1 0x1 DUP2 SLOAD ADD DUP1 DUP3 SSTORE DUP1 SWAP2 POP POP PUSH1 0x1 SWAP1 SUB SWAP1 PUSH1 0x0 MSTORE PUSH1 0x20 PUSH1 0x0 KECCAK256 ADD PUSH1 0x0 SWAP1 SWAP2 SWAP1 SWAP2 SWAP1 SWAP2 PUSH2 0x100 EXP DUP2 SLOAD DUP2 PUSH20 0xFFFFFFFFFFFFFFFFFFFFFFFFFFFFFFFFFFFFFFFF MUL NOT AND SWAP1 DUP4 PUSH20 0xFFFFFFFFFFFFFFFFFFFFFFFFFFFFFFFFFFFFFFFF AND MUL OR SWAP1 SSTORE POP JUMPDEST PUSH2 0x1156 CALLER ADDRESS DUP5 PUSH2 0x158A JUMP JUMPDEST DUP2 PUSH1 0x8 PUSH1 0x0 CALLER PUSH20 0xFFFFFFFFFFFFFFFFFFFFFFFFFFFFFFFFFFFFFFFF AND PUSH20 0xFFFFFFFFFFFFFFFFFFFFFFFFFFFFFFFFFFFFFFFF AND DUP2 MSTORE PUSH1 0x20 ADD SWAP1 DUP2 MSTORE PUSH1 0x20 ADD PUSH1 0x0 KECCAK256 PUSH1 0x0 ADD PUSH1 0x0 DUP3 DUP3 SLOAD PUSH2 0x11A8 SWAP2 SWAP1 PUSH2 0x24DE JUMP JUMPDEST SWAP3 POP POP DUP2 SWAP1 SSTORE POP DUP1 PUSH1 0x8 PUSH1 0x0 CALLER PUSH20 0xFFFFFFFFFFFFFFFFFFFFFFFFFFFFFFFFFFFFFFFF AND PUSH20 0xFFFFFFFFFFFFFFFFFFFFFFFFFFFFFFFFFFFFFFFF AND DUP2 MSTORE PUSH1 0x20 ADD SWAP1 DUP2 MSTORE PUSH1 0x20 ADD PUSH1 0x0 KECCAK256 PUSH1 0x1 ADD DUP2 SWAP1 SSTORE POP POP POP JUMP JUMPDEST PUSH1 0x0 DUP1 PUSH2 0x1205 PUSH2 0x132D JUMP JUMPDEST SWAP1 POP PUSH2 0x1212 DUP2 DUP6 DUP6 PUSH2 0x158A JUMP JUMPDEST PUSH1 0x1 SWAP2 POP POP SWAP3 SWAP2 POP POP JUMP JUMPDEST PUSH1 0x7 SLOAD DUP2 JUMP JUMPDEST PUSH1 0x0 PUSH1 0x1 PUSH1 0x0 DUP5 PUSH20 0xFFFFFFFFFFFFFFFFFFFFFFFFFFFFFFFFFFFFFFFF AND PUSH20 0xFFFFFFFFFFFFFFFFFFFFFFFFFFFFFFFFFFFFFFFF AND DUP2 MSTORE PUSH1 0x20 ADD SWAP1 DUP2 MSTORE PUSH1 0x20 ADD PUSH1 0x0 KECCAK256 PUSH1 0x0 DUP4 PUSH20 0xFFFFFFFFFFFFFFFFFFFFFFFFFFFFFFFFFFFFFFFF AND PUSH20 0xFFFFFFFFFFFFFFFFFFFFFFFFFFFFFFFFFFFFFFFF AND DUP2 MSTORE PUSH1 0x20 ADD SWAP1 DUP2 MSTORE PUSH1 0x20 ADD PUSH1 0x0 KECCAK256 SLOAD SWAP1 POP SWAP3 SWAP2 POP POP JUMP JUMPDEST PUSH2 0x12B2 PUSH2 0x1C9F JUMP JUMPDEST PUSH1 0x0 PUSH20 0xFFFFFFFFFFFFFFFFFFFFFFFFFFFFFFFFFFFFFFFF AND DUP2 PUSH20 0xFFFFFFFFFFFFFFFFFFFFFFFFFFFFFFFFFFFFFFFF AND SUB PUSH2 0x1321 JUMPI PUSH1 0x40 MLOAD PUSH32 0x8C379A000000000000000000000000000000000000000000000000000000000 DUP2 MSTORE PUSH1 0x4 ADD PUSH2 0x1318 SWAP1 PUSH2 0x2780 JUMP JUMPDEST PUSH1 0x40 MLOAD DUP1 SWAP2 SUB SWAP1 REVERT JUMPDEST PUSH2 0x132A DUP2 PUSH2 0x1D1D JUMP JUMPDEST POP JUMP JUMPDEST PUSH1 0x0 CALLER SWAP1 POP SWAP1 JUMP JUMPDEST PUSH1 0x0 PUSH20 0xFFFFFFFFFFFFFFFFFFFFFFFFFFFFFFFFFFFFFFFF AND DUP4 PUSH20 0xFFFFFFFFFFFFFFFFFFFFFFFFFFFFFFFFFFFFFFFF AND SUB PUSH2 0x13A4 JUMPI PUSH1 0x40 MLOAD PUSH32 0x8C379A000000000000000000000000000000000000000000000000000000000 DUP2 MSTORE PUSH1 0x4 ADD PUSH2 0x139B SWAP1 PUSH2 0x2812 JUMP JUMPDEST PUSH1 0x40 MLOAD DUP1 SWAP2 SUB SWAP1 REVERT JUMPDEST PUSH1 0x0 PUSH20 0xFFFFFFFFFFFFFFFFFFFFFFFFFFFFFFFFFFFFFFFF AND DUP3 PUSH20 0xFFFFFFFFFFFFFFFFFFFFFFFFFFFFFFFFFFFFFFFF AND SUB PUSH2 0x1413 JUMPI PUSH1 0x40 MLOAD PUSH32 0x8C379A000000000000000000000000000000000000000000000000000000000 DUP2 MSTORE PUSH1 0x4 ADD PUSH2 0x140A SWAP1 PUSH2 0x28A4 JUMP JUMPDEST PUSH1 0x40 MLOAD DUP1 SWAP2 SUB SWAP1 REVERT JUMPDEST DUP1 PUSH1 0x1 PUSH1 0x0 DUP6 PUSH20 0xFFFFFFFFFFFFFFFFFFFFFFFFFFFFFFFFFFFFFFFF AND PUSH20 0xFFFFFFFFFFFFFFFFFFFFFFFFFFFFFFFFFFFFFFFF AND DUP2 MSTORE PUSH1 0x20 ADD SWAP1 DUP2 MSTORE PUSH1 0x20 ADD PUSH1 0x0 KECCAK256 PUSH1 0x0 DUP5 PUSH20 0xFFFFFFFFFFFFFFFFFFFFFFFFFFFFFFFFFFFFFFFF AND PUSH20 0xFFFFFFFFFFFFFFFFFFFFFFFFFFFFFFFFFFFFFFFF AND DUP2 MSTORE PUSH1 0x20 ADD SWAP1 DUP2 MSTORE PUSH1 0x20 ADD PUSH1 0x0 KECCAK256 DUP2 SWAP1 SSTORE POP DUP2 PUSH20 0xFFFFFFFFFFFFFFFFFFFFFFFFFFFFFFFFFFFFFFFF AND DUP4 PUSH20 0xFFFFFFFFFFFFFFFFFFFFFFFFFFFFFFFFFFFFFFFF AND PUSH32 0x8C5BE1E5EBEC7D5BD14F71427D1E84F3DD0314C0F7B2291E5B200AC8C7C3B925 DUP4 PUSH1 0x40 MLOAD PUSH2 0x14F1 SWAP2 SWAP1 PUSH2 0x1FBD JUMP JUMPDEST PUSH1 0x40 MLOAD DUP1 SWAP2 SUB SWAP1 LOG3 POP POP POP JUMP JUMPDEST PUSH1 0x0 PUSH2 0x150A DUP5 DUP5 PUSH2 0x1223 JUMP JUMPDEST SWAP1 POP PUSH32 0xFFFFFFFFFFFFFFFFFFFFFFFFFFFFFFFFFFFFFFFFFFFFFFFFFFFFFFFFFFFFFFFF DUP2 EQ PUSH2 0x1584 JUMPI DUP2 DUP2 LT ISZERO PUSH2 0x1576 JUMPI PUSH1 0x40 MLOAD PUSH32 0x8C379A000000000000000000000000000000000000000000000000000000000 DUP2 MSTORE PUSH1 0x4 ADD PUSH2 0x156D SWAP1 PUSH2 0x2910 JUMP JUMPDEST PUSH1 0x40 MLOAD DUP1 SWAP2 SUB SWAP1 REVERT JUMPDEST PUSH2 0x1583 DUP5 DUP5 DUP5 DUP5 SUB PUSH2 0x1335 JUMP JUMPDEST JUMPDEST POP POP POP POP JUMP JUMPDEST PUSH1 0x0 PUSH20 0xFFFFFFFFFFFFFFFFFFFFFFFFFFFFFFFFFFFFFFFF AND DUP4 PUSH20 0xFFFFFFFFFFFFFFFFFFFFFFFFFFFFFFFFFFFFFFFF AND SUB PUSH2 0x15F9 JUMPI PUSH1 0x40 MLOAD PUSH32 0x8C379A000000000000000000000000000000000000000000000000000000000 DUP2 MSTORE PUSH1 0x4 ADD PUSH2 0x15F0 SWAP1 PUSH2 0x29A2 JUMP JUMPDEST PUSH1 0x40 MLOAD DUP1 SWAP2 SUB SWAP1 REVERT JUMPDEST PUSH1 0x0 PUSH20 0xFFFFFFFFFFFFFFFFFFFFFFFFFFFFFFFFFFFFFFFF AND DUP3 PUSH20 0xFFFFFFFFFFFFFFFFFFFFFFFFFFFFFFFFFFFFFFFF AND SUB PUSH2 0x1668 JUMPI PUSH1 0x40 MLOAD PUSH32 0x8C379A000000000000000000000000000000000000000000000000000000000 DUP2 MSTORE PUSH1 0x4 ADD PUSH2 0x165F SWAP1 PUSH2 0x2A34 JUMP JUMPDEST PUSH1 0x40 MLOAD DUP1 SWAP2 SUB SWAP1 REVERT JUMPDEST PUSH2 0x1673 DUP4 DUP4 DUP4 PUSH2 0x1DE3 JUMP JUMPDEST PUSH1 0x0 DUP1 PUSH1 0x0 DUP6 PUSH20 0xFFFFFFFFFFFFFFFFFFFFFFFFFFFFFFFFFFFFFFFF AND PUSH20 0xFFFFFFFFFFFFFFFFFFFFFFFFFFFFFFFFFFFFFFFF AND DUP2 MSTORE PUSH1 0x20 ADD SWAP1 DUP2 MSTORE PUSH1 0x20 ADD PUSH1 0x0 KECCAK256 SLOAD SWAP1 POP DUP2 DUP2 LT ISZERO PUSH2 0x16F9 JUMPI PUSH1 0x40 MLOAD PUSH32 0x8C379A000000000000000000000000000000000000000000000000000000000 DUP2 MSTORE PUSH1 0x4 ADD PUSH2 0x16F0 SWAP1 PUSH2 0x2AC6 JUMP JUMPDEST PUSH1 0x40 MLOAD DUP1 SWAP2 SUB SWAP1 REVERT JUMPDEST DUP2 DUP2 SUB PUSH1 0x0 DUP1 DUP7 PUSH20 0xFFFFFFFFFFFFFFFFFFFFFFFFFFFFFFFFFFFFFFFF AND PUSH20 0xFFFFFFFFFFFFFFFFFFFFFFFFFFFFFFFFFFFFFFFF AND DUP2 MSTORE PUSH1 0x20 ADD SWAP1 DUP2 MSTORE PUSH1 0x20 ADD PUSH1 0x0 KECCAK256 DUP2 SWAP1 SSTORE POP DUP2 PUSH1 0x0 DUP1 DUP6 PUSH20 0xFFFFFFFFFFFFFFFFFFFFFFFFFFFFFFFFFFFFFFFF AND PUSH20 0xFFFFFFFFFFFFFFFFFFFFFFFFFFFFFFFFFFFFFFFF AND DUP2 MSTORE PUSH1 0x20 ADD SWAP1 DUP2 MSTORE PUSH1 0x20 ADD PUSH1 0x0 KECCAK256 PUSH1 0x0 DUP3 DUP3 SLOAD ADD SWAP3 POP POP DUP2 SWAP1 SSTORE POP DUP3 PUSH20 0xFFFFFFFFFFFFFFFFFFFFFFFFFFFFFFFFFFFFFFFF AND DUP5 PUSH20 0xFFFFFFFFFFFFFFFFFFFFFFFFFFFFFFFFFFFFFFFF AND PUSH32 0xDDF252AD1BE2C89B69C2B068FC378DAA952BA7F163C4A11628F55A4DF523B3EF DUP5 PUSH1 0x40 MLOAD PUSH2 0x17E7 SWAP2 SWAP1 PUSH2 0x1FBD JUMP JUMPDEST PUSH1 0x40 MLOAD DUP1 SWAP2 SUB SWAP1 LOG3 PUSH2 0x17FA DUP5 DUP5 DUP5 PUSH2 0x1DE8 JUMP JUMPDEST POP POP POP POP JUMP JUMPDEST PUSH1 0x0 TIMESTAMP SWAP1 POP PUSH1 0x0 PUSH1 0x3C PUSH1 0x8 PUSH1 0x0 DUP6 PUSH20 0xFFFFFFFFFFFFFFFFFFFFFFFFFFFFFFFFFFFFFFFF AND PUSH20 0xFFFFFFFFFFFFFFFFFFFFFFFFFFFFFFFFFFFFFFFF AND DUP2 MSTORE PUSH1 0x20 ADD SWAP1 DUP2 MSTORE PUSH1 0x20 ADD PUSH1 0x0 KECCAK256 PUSH1 0x1 ADD SLOAD DUP4 PUSH2 0x1857 SWAP2 SWAP1 PUSH2 0x22EA JUMP JUMPDEST PUSH2 0x1861 SWAP2 SWAP1 PUSH2 0x2B15 JUMP JUMPDEST SWAP1 POP PUSH2 0x1770 PUSH1 0x6 SLOAD DUP3 PUSH1 0x7 SLOAD PUSH1 0x8 PUSH1 0x0 DUP9 PUSH20 0xFFFFFFFFFFFFFFFFFFFFFFFFFFFFFFFFFFFFFFFF AND PUSH20 0xFFFFFFFFFFFFFFFFFFFFFFFFFFFFFFFFFFFFFFFF AND DUP2 MSTORE PUSH1 0x20 ADD SWAP1 DUP2 MSTORE PUSH1 0x20 ADD PUSH1 0x0 KECCAK256 PUSH1 0x0 ADD SLOAD PUSH2 0x18BA SWAP2 SWAP1 PUSH2 0x23C4 JUMP JUMPDEST PUSH2 0x18C4 SWAP2 SWAP1 PUSH2 0x23C4 JUMP JUMPDEST PUSH2 0x18CE SWAP2 SWAP1 PUSH2 0x23C4 JUMP JUMPDEST PUSH2 0x18D8 SWAP2 SWAP1 PUSH2 0x2B15 JUMP JUMPDEST PUSH1 0x8 PUSH1 0x0 DUP6 PUSH20 0xFFFFFFFFFFFFFFFFFFFFFFFFFFFFFFFFFFFFFFFF AND PUSH20 0xFFFFFFFFFFFFFFFFFFFFFFFFFFFFFFFFFFFFFFFF AND DUP2 MSTORE PUSH1 0x20 ADD SWAP1 DUP2 MSTORE PUSH1 0x20 ADD PUSH1 0x0 KECCAK256 PUSH1 0x2 ADD PUSH1 0x0 DUP3 DUP3 SLOAD PUSH2 0x1929 SWAP2 SWAP1 PUSH2 0x24DE JUMP JUMPDEST SWAP3 POP POP DUP2 SWAP1 SSTORE POP DUP2 PUSH1 0x8 PUSH1 0x0 DUP6 PUSH20 0xFFFFFFFFFFFFFFFFFFFFFFFFFFFFFFFFFFFFFFFF AND PUSH20 0xFFFFFFFFFFFFFFFFFFFFFFFFFFFFFFFFFFFFFFFF AND DUP2 MSTORE PUSH1 0x20 ADD SWAP1 DUP2 MSTORE PUSH1 0x20 ADD PUSH1 0x0 KECCAK256 PUSH1 0x1 ADD DUP2 SWAP1 SSTORE POP POP POP POP JUMP JUMPDEST PUSH1 0x0 PUSH20 0xFFFFFFFFFFFFFFFFFFFFFFFFFFFFFFFFFFFFFFFF AND DUP3 PUSH20 0xFFFFFFFFFFFFFFFFFFFFFFFFFFFFFFFFFFFFFFFF AND SUB PUSH2 0x19EB JUMPI PUSH1 0x40 MLOAD PUSH32 0x8C379A000000000000000000000000000000000000000000000000000000000 DUP2 MSTORE PUSH1 0x4 ADD PUSH2 0x19E2 SWAP1 PUSH2 0x2B92 JUMP JUMPDEST PUSH1 0x40 MLOAD DUP1 SWAP2 SUB SWAP1 REVERT JUMPDEST PUSH2 0x19F7 PUSH1 0x0 DUP4 DUP4 PUSH2 0x1DE3 JUMP JUMPDEST DUP1 PUSH1 0x2 PUSH1 0x0 DUP3 DUP3 SLOAD PUSH2 0x1A09 SWAP2 SWAP1 PUSH2 0x24DE JUMP JUMPDEST SWAP3 POP POP DUP2 SWAP1 SSTORE POP DUP1 PUSH1 0x0 DUP1 DUP5 PUSH20 0xFFFFFFFFFFFFFFFFFFFFFFFFFFFFFFFFFFFFFFFF AND PUSH20 0xFFFFFFFFFFFFFFFFFFFFFFFFFFFFFFFFFFFFFFFF AND DUP2 MSTORE PUSH1 0x20 ADD SWAP1 DUP2 MSTORE PUSH1 0x20 ADD PUSH1 0x0 KECCAK256 PUSH1 0x0 DUP3 DUP3 SLOAD ADD SWAP3 POP POP DUP2 SWAP1 SSTORE POP DUP2 PUSH20 0xFFFFFFFFFFFFFFFFFFFFFFFFFFFFFFFFFFFFFFFF AND PUSH1 0x0 PUSH20 0xFFFFFFFFFFFFFFFFFFFFFFFFFFFFFFFFFFFFFFFF AND PUSH32 0xDDF252AD1BE2C89B69C2B068FC378DAA952BA7F163C4A11628F55A4DF523B3EF DUP4 PUSH1 0x40 MLOAD PUSH2 0x1ABA SWAP2 SWAP1 PUSH2 0x1FBD JUMP JUMPDEST PUSH1 0x40 MLOAD DUP1 SWAP2 SUB SWAP1 LOG3 PUSH2 0x1ACE PUSH1 0x0 DUP4 DUP4 PUSH2 0x1DE8 JUMP JUMPDEST POP POP JUMP JUMPDEST PUSH1 0x0 PUSH20 0xFFFFFFFFFFFFFFFFFFFFFFFFFFFFFFFFFFFFFFFF AND DUP3 PUSH20 0xFFFFFFFFFFFFFFFFFFFFFFFFFFFFFFFFFFFFFFFF AND SUB PUSH2 0x1B41 JUMPI PUSH1 0x40 MLOAD PUSH32 0x8C379A000000000000000000000000000000000000000000000000000000000 DUP2 MSTORE PUSH1 0x4 ADD PUSH2 0x1B38 SWAP1 PUSH2 0x2C24 JUMP JUMPDEST PUSH1 0x40 MLOAD DUP1 SWAP2 SUB SWAP1 REVERT JUMPDEST PUSH2 0x1B4D DUP3 PUSH1 0x0 DUP4 PUSH2 0x1DE3 JUMP JUMPDEST PUSH1 0x0 DUP1 PUSH1 0x0 DUP5 PUSH20 0xFFFFFFFFFFFFFFFFFFFFFFFFFFFFFFFFFFFFFFFF AND PUSH20 0xFFFFFFFFFFFFFFFFFFFFFFFFFFFFFFFFFFFFFFFF AND DUP2 MSTORE PUSH1 0x20 ADD SWAP1 DUP2 MSTORE PUSH1 0x20 ADD PUSH1 0x0 KECCAK256 SLOAD SWAP1 POP DUP2 DUP2 LT ISZERO PUSH2 0x1BD3 JUMPI PUSH1 0x40 MLOAD PUSH32 0x8C379A000000000000000000000000000000000000000000000000000000000 DUP2 MSTORE PUSH1 0x4 ADD PUSH2 0x1BCA SWAP1 PUSH2 0x2CB6 JUMP JUMPDEST PUSH1 0x40 MLOAD DUP1 SWAP2 SUB SWAP1 REVERT JUMPDEST DUP2 DUP2 SUB PUSH1 0x0 DUP1 DUP6 PUSH20 0xFFFFFFFFFFFFFFFFFFFFFFFFFFFFFFFFFFFFFFFF AND PUSH20 0xFFFFFFFFFFFFFFFFFFFFFFFFFFFFFFFFFFFFFFFF AND DUP2 MSTORE PUSH1 0x20 ADD SWAP1 DUP2 MSTORE PUSH1 0x20 ADD PUSH1 0x0 KECCAK256 DUP2 SWAP1 SSTORE POP DUP2 PUSH1 0x2 PUSH1 0x0 DUP3 DUP3 SLOAD SUB SWAP3 POP POP DUP2 SWAP1 SSTORE POP PUSH1 0x0 PUSH20 0xFFFFFFFFFFFFFFFFFFFFFFFFFFFFFFFFFFFFFFFF AND DUP4 PUSH20 0xFFFFFFFFFFFFFFFFFFFFFFFFFFFFFFFFFFFFFFFF AND PUSH32 0xDDF252AD1BE2C89B69C2B068FC378DAA952BA7F163C4A11628F55A4DF523B3EF DUP5 PUSH1 0x40 MLOAD PUSH2 0x1C86 SWAP2 SWAP1 PUSH2 0x1FBD JUMP JUMPDEST PUSH1 0x40 MLOAD DUP1 SWAP2 SUB SWAP1 LOG3 PUSH2 0x1C9A DUP4 PUSH1 0x0 DUP5 PUSH2 0x1DE8 JUMP JUMPDEST POP POP POP JUMP JUMPDEST PUSH2 0x1CA7 PUSH2 0x132D JUMP JUMPDEST PUSH20 0xFFFFFFFFFFFFFFFFFFFFFFFFFFFFFFFFFFFFFFFF AND PUSH2 0x1CC5 PUSH2 0xE9E JUMP JUMPDEST PUSH20 0xFFFFFFFFFFFFFFFFFFFFFFFFFFFFFFFFFFFFFFFF AND EQ PUSH2 0x1D1B JUMPI PUSH1 0x40 MLOAD PUSH32 0x8C379A000000000000000000000000000000000000000000000000000000000 DUP2 MSTORE PUSH1 0x4 ADD PUSH2 0x1D12 SWAP1 PUSH2 0x2D22 JUMP JUMPDEST PUSH1 0x40 MLOAD DUP1 SWAP2 SUB SWAP1 REVERT JUMPDEST JUMP JUMPDEST PUSH1 0x0 PUSH1 0x5 PUSH1 0x0 SWAP1 SLOAD SWAP1 PUSH2 0x100 EXP SWAP1 DIV PUSH20 0xFFFFFFFFFFFFFFFFFFFFFFFFFFFFFFFFFFFFFFFF AND SWAP1 POP DUP2 PUSH1 0x5 PUSH1 0x0 PUSH2 0x100 EXP DUP2 SLOAD DUP2 PUSH20 0xFFFFFFFFFFFFFFFFFFFFFFFFFFFFFFFFFFFFFFFF MUL NOT AND SWAP1 DUP4 PUSH20 0xFFFFFFFFFFFFFFFFFFFFFFFFFFFFFFFFFFFFFFFF AND MUL OR SWAP1 SSTORE POP DUP2 PUSH20 0xFFFFFFFFFFFFFFFFFFFFFFFFFFFFFFFFFFFFFFFF AND DUP2 PUSH20 0xFFFFFFFFFFFFFFFFFFFFFFFFFFFFFFFFFFFFFFFF AND PUSH32 0x8BE0079C531659141344CD1FD0A4F28419497F9722A3DAAFE3B4186F6B6457E0 PUSH1 0x40 MLOAD PUSH1 0x40 MLOAD DUP1 SWAP2 SUB SWAP1 LOG3 POP POP JUMP JUMPDEST POP POP POP JUMP JUMPDEST POP POP POP JUMP JUMPDEST PUSH1 0x0 DUP2 MLOAD SWAP1 POP SWAP2 SWAP1 POP JUMP JUMPDEST PUSH1 0x0 DUP3 DUP3 MSTORE PUSH1 0x20 DUP3 ADD SWAP1 POP SWAP3 SWAP2 POP POP JUMP JUMPDEST PUSH1 0x0 JUMPDEST DUP4 DUP2 LT ISZERO PUSH2 0x1E27 JUMPI DUP1 DUP3 ADD MLOAD DUP2 DUP5 ADD MSTORE PUSH1 0x20 DUP2 ADD SWAP1 POP PUSH2 0x1E0C JUMP JUMPDEST PUSH1 0x0 DUP5 DUP5 ADD MSTORE POP POP POP POP JUMP JUMPDEST PUSH1 0x0 PUSH1 0x1F NOT PUSH1 0x1F DUP4 ADD AND SWAP1 POP SWAP2 SWAP1 POP JUMP JUMPDEST PUSH1 0x0 PUSH2 0x1E4F DUP3 PUSH2 0x1DED JUMP JUMPDEST PUSH2 0x1E59 DUP2 DUP6 PUSH2 0x1DF8 JUMP JUMPDEST SWAP4 POP PUSH2 0x1E69 DUP2 DUP6 PUSH1 0x20 DUP7 ADD PUSH2 0x1E09 JUMP JUMPDEST PUSH2 0x1E72 DUP2 PUSH2 0x1E33 JUMP JUMPDEST DUP5 ADD SWAP2 POP POP SWAP3 SWAP2 POP POP JUMP JUMPDEST PUSH1 0x0 PUSH1 0x20 DUP3 ADD SWAP1 POP DUP2 DUP2 SUB PUSH1 0x0 DUP4 ADD MSTORE PUSH2 0x1E97 DUP2 DUP5 PUSH2 0x1E44 JUMP JUMPDEST SWAP1 POP SWAP3 SWAP2 POP POP JUMP JUMPDEST PUSH1 0x0 DUP1 REVERT JUMPDEST PUSH1 0x0 PUSH20 0xFFFFFFFFFFFFFFFFFFFFFFFFFFFFFFFFFFFFFFFF DUP3 AND SWAP1 POP SWAP2 SWAP1 POP JUMP JUMPDEST PUSH1 0x0 PUSH2 0x1ECF DUP3 PUSH2 0x1EA4 JUMP JUMPDEST SWAP1 POP SWAP2 SWAP1 POP JUMP JUMPDEST PUSH2 0x1EDF DUP2 PUSH2 0x1EC4 JUMP JUMPDEST DUP2 EQ PUSH2 0x1EEA JUMPI PUSH1 0x0 DUP1 REVERT JUMPDEST POP JUMP JUMPDEST PUSH1 0x0 DUP2 CALLDATALOAD SWAP1 POP PUSH2 0x1EFC DUP2 PUSH2 0x1ED6 JUMP JUMPDEST SWAP3 SWAP2 POP POP JUMP JUMPDEST PUSH1 0x0 DUP2 SWAP1 POP SWAP2 SWAP1 POP JUMP JUMPDEST PUSH2 0x1F15 DUP2 PUSH2 0x1F02 JUMP JUMPDEST DUP2 EQ PUSH2 0x1F20 JUMPI PUSH1 0x0 DUP1 REVERT JUMPDEST POP JUMP JUMPDEST PUSH1 0x0 DUP2 CALLDATALOAD SWAP1 POP PUSH2 0x1F32 DUP2 PUSH2 0x1F0C JUMP JUMPDEST SWAP3 SWAP2 POP POP JUMP JUMPDEST PUSH1 0x0 DUP1 PUSH1 0x40 DUP4 DUP6 SUB SLT ISZERO PUSH2 0x1F4F JUMPI PUSH2 0x1F4E PUSH2 0x1E9F JUMP JUMPDEST JUMPDEST PUSH1 0x0 PUSH2 0x1F5D DUP6 DUP3 DUP7 ADD PUSH2 0x1EED JUMP JUMPDEST SWAP3 POP POP PUSH1 0x20 PUSH2 0x1F6E DUP6 DUP3 DUP7 ADD PUSH2 0x1F23 JUMP JUMPDEST SWAP2 POP POP SWAP3 POP SWAP3 SWAP1 POP JUMP JUMPDEST PUSH1 0x0 DUP2 ISZERO ISZERO SWAP1 POP SWAP2 SWAP1 POP JUMP JUMPDEST PUSH2 0x1F8D DUP2 PUSH2 0x1F78 JUMP JUMPDEST DUP3 MSTORE POP POP JUMP JUMPDEST PUSH1 0x0 PUSH1 0x20 DUP3 ADD SWAP1 POP PUSH2 0x1FA8 PUSH1 0x0 DUP4 ADD DUP5 PUSH2 0x1F84 JUMP JUMPDEST SWAP3 SWAP2 POP POP JUMP JUMPDEST PUSH2 0x1FB7 DUP2 PUSH2 0x1F02 JUMP JUMPDEST DUP3 MSTORE POP POP JUMP JUMPDEST PUSH1 0x0 PUSH1 0x20 DUP3 ADD SWAP1 POP PUSH2 0x1FD2 PUSH1 0x0 DUP4 ADD DUP5 PUSH2 0x1FAE JUMP JUMPDEST SWAP3 SWAP2 POP POP JUMP JUMPDEST PUSH1 0x0 DUP1 PUSH1 0x0 PUSH1 0x60 DUP5 DUP7 SUB SLT ISZERO PUSH2 0x1FF1 JUMPI PUSH2 0x1FF0 PUSH2 0x1E9F JUMP JUMPDEST JUMPDEST PUSH1 0x0 PUSH2 0x1FFF DUP7 DUP3 DUP8 ADD PUSH2 0x1EED JUMP JUMPDEST SWAP4 POP POP PUSH1 0x20 PUSH2 0x2010 DUP7 DUP3 DUP8 ADD PUSH2 0x1EED JUMP JUMPDEST SWAP3 POP POP PUSH1 0x40 PUSH2 0x2021 DUP7 DUP3 DUP8 ADD PUSH2 0x1F23 JUMP JUMPDEST SWAP2 POP POP SWAP3 POP SWAP3 POP SWAP3 JUMP JUMPDEST PUSH1 0x0 PUSH1 0x20 DUP3 DUP5 SUB SLT ISZERO PUSH2 0x2041 JUMPI PUSH2 0x2040 PUSH2 0x1E9F JUMP JUMPDEST JUMPDEST PUSH1 0x0 PUSH2 0x204F DUP5 DUP3 DUP6 ADD PUSH2 0x1F23 JUMP JUMPDEST SWAP2 POP POP SWAP3 SWAP2 POP POP JUMP JUMPDEST PUSH1 0x0 PUSH1 0xFF DUP3 AND SWAP1 POP SWAP2 SWAP1 POP JUMP JUMPDEST PUSH2 0x206E DUP2 PUSH2 0x2058 JUMP JUMPDEST DUP3 MSTORE POP POP JUMP JUMPDEST PUSH1 0x0 PUSH1 0x20 DUP3 ADD SWAP1 POP PUSH2 0x2089 PUSH1 0x0 DUP4 ADD DUP5 PUSH2 0x2065 JUMP JUMPDEST SWAP3 SWAP2 POP POP JUMP JUMPDEST PUSH1 0x0 PUSH1 0x20 DUP3 DUP5 SUB SLT ISZERO PUSH2 0x20A5 JUMPI PUSH2 0x20A4 PUSH2 0x1E9F JUMP JUMPDEST JUMPDEST PUSH1 0x0 PUSH2 0x20B3 DUP5 DUP3 DUP6 ADD PUSH2 0x1EED JUMP JUMPDEST SWAP2 POP POP SWAP3 SWAP2 POP POP JUMP JUMPDEST PUSH2 0x20C5 DUP2 PUSH2 0x1EC4 JUMP JUMPDEST DUP3 MSTORE POP POP JUMP JUMPDEST PUSH1 0x0 PUSH1 0x20 DUP3 ADD SWAP1 POP PUSH2 0x20E0 PUSH1 0x0 DUP4 ADD DUP5 PUSH2 0x20BC JUMP JUMPDEST SWAP3 SWAP2 POP POP JUMP JUMPDEST PUSH1 0x0 PUSH1 0x60 DUP3 ADD SWAP1 POP PUSH2 0x20FB PUSH1 0x0 DUP4 ADD DUP7 PUSH2 0x1FAE JUMP JUMPDEST PUSH2 0x2108 PUSH1 0x20 DUP4 ADD DUP6 PUSH2 0x1FAE JUMP JUMPDEST PUSH2 0x2115 PUSH1 0x40 DUP4 ADD DUP5 PUSH2 0x1FAE JUMP JUMPDEST SWAP5 SWAP4 POP POP POP POP JUMP JUMPDEST PUSH1 0x0 DUP1 PUSH1 0x40 DUP4 DUP6 SUB SLT ISZERO PUSH2 0x2134 JUMPI PUSH2 0x2133 PUSH2 0x1E9F JUMP JUMPDEST JUMPDEST PUSH1 0x0 PUSH2 0x2142 DUP6 DUP3 DUP7 ADD PUSH2 0x1EED JUMP JUMPDEST SWAP3 POP POP PUSH1 0x20 PUSH2 0x2153 DUP6 DUP3 DUP7 ADD PUSH2 0x1EED JUMP JUMPDEST SWAP2 POP POP SWAP3 POP SWAP3 SWAP1 POP JUMP JUMPDEST PUSH32 0x4E487B7100000000000000000000000000000000000000000000000000000000 PUSH1 0x0 MSTORE PUSH1 0x22 PUSH1 0x4 MSTORE PUSH1 0x24 PUSH1 0x0 REVERT JUMPDEST PUSH1 0x0 PUSH1 0x2 DUP3 DIV SWAP1 POP PUSH1 0x1 DUP3 AND DUP1 PUSH2 0x21A4 JUMPI PUSH1 0x7F DUP3 AND SWAP2 POP JUMPDEST PUSH1 0x20 DUP3 LT DUP2 SUB PUSH2 0x21B7 JUMPI PUSH2 0x21B6 PUSH2 0x215D JUMP JUMPDEST JUMPDEST POP SWAP2 SWAP1 POP JUMP JUMPDEST PUSH32 0x4D75737420756E7374616B65206D6F7265207468616E207A65726F20746F6B65 PUSH1 0x0 DUP3 ADD MSTORE PUSH32 0x6E73000000000000000000000000000000000000000000000000000000000000 PUSH1 0x20 DUP3 ADD MSTORE POP JUMP JUMPDEST PUSH1 0x0 PUSH2 0x2219 PUSH1 0x22 DUP4 PUSH2 0x1DF8 JUMP JUMPDEST SWAP2 POP PUSH2 0x2224 DUP3 PUSH2 0x21BD JUMP JUMPDEST PUSH1 0x40 DUP3 ADD SWAP1 POP SWAP2 SWAP1 POP JUMP JUMPDEST PUSH1 0x0 PUSH1 0x20 DUP3 ADD SWAP1 POP DUP2 DUP2 SUB PUSH1 0x0 DUP4 ADD MSTORE PUSH2 0x2248 DUP2 PUSH2 0x220C JUMP JUMPDEST SWAP1 POP SWAP2 SWAP1 POP JUMP JUMPDEST PUSH32 0x4E6F7420456E6F75676820546F6B656E7320546F20556E7374616B6500000000 PUSH1 0x0 DUP3 ADD MSTORE POP JUMP JUMPDEST PUSH1 0x0 PUSH2 0x2285 PUSH1 0x1C DUP4 PUSH2 0x1DF8 JUMP JUMPDEST SWAP2 POP PUSH2 0x2290 DUP3 PUSH2 0x224F JUMP JUMPDEST PUSH1 0x20 DUP3 ADD SWAP1 POP SWAP2 SWAP1 POP JUMP JUMPDEST PUSH1 0x0 PUSH1 0x20 DUP3 ADD SWAP1 POP DUP2 DUP2 SUB PUSH1 0x0 DUP4 ADD MSTORE PUSH2 0x22B4 DUP2 PUSH2 0x2278 JUMP JUMPDEST SWAP1 POP SWAP2 SWAP1 POP JUMP JUMPDEST PUSH32 0x4E487B7100000000000000000000000000000000000000000000000000000000 PUSH1 0x0 MSTORE PUSH1 0x11 PUSH1 0x4 MSTORE PUSH1 0x24 PUSH1 0x0 REVERT JUMPDEST PUSH1 0x0 PUSH2 0x22F5 DUP3 PUSH2 0x1F02 JUMP JUMPDEST SWAP2 POP PUSH2 0x2300 DUP4 PUSH2 0x1F02 JUMP JUMPDEST SWAP3 POP DUP3 DUP3 SUB SWAP1 POP DUP2 DUP2 GT ISZERO PUSH2 0x2318 JUMPI PUSH2 0x2317 PUSH2 0x22BB JUMP JUMPDEST JUMPDEST SWAP3 SWAP2 POP POP JUMP JUMPDEST PUSH32 0x4E487B7100000000000000000000000000000000000000000000000000000000 PUSH1 0x0 MSTORE PUSH1 0x32 PUSH1 0x4 MSTORE PUSH1 0x24 PUSH1 0x0 REVERT JUMPDEST PUSH32 0x4E487B7100000000000000000000000000000000000000000000000000000000 PUSH1 0x0 MSTORE PUSH1 0x31 PUSH1 0x4 MSTORE PUSH1 0x24 PUSH1 0x0 REVERT JUMPDEST PUSH1 0x0 PUSH2 0x2387 DUP3 PUSH2 0x1F02 JUMP JUMPDEST SWAP2 POP PUSH32 0xFFFFFFFFFFFFFFFFFFFFFFFFFFFFFFFFFFFFFFFFFFFFFFFFFFFFFFFFFFFFFFFF DUP3 SUB PUSH2 0x23B9 JUMPI PUSH2 0x23B8 PUSH2 0x22BB JUMP JUMPDEST JUMPDEST PUSH1 0x1 DUP3 ADD SWAP1 POP SWAP2 SWAP1 POP JUMP JUMPDEST PUSH1 0x0 PUSH2 0x23CF DUP3 PUSH2 0x1F02 JUMP JUMPDEST SWAP2 POP PUSH2 0x23DA DUP4 PUSH2 0x1F02 JUMP JUMPDEST SWAP3 POP DUP3 DUP3 MUL PUSH2 0x23E8 DUP2 PUSH2 0x1F02 JUMP JUMPDEST SWAP2 POP DUP3 DUP3 DIV DUP5 EQ DUP4 ISZERO OR PUSH2 0x23FF JUMPI PUSH2 0x23FE PUSH2 0x22BB JUMP JUMPDEST JUMPDEST POP SWAP3 SWAP2 POP POP JUMP JUMPDEST PUSH32 0x496E73756666696369656E74206574686572732073656E740000000000000000 PUSH1 0x0 DUP3 ADD MSTORE POP JUMP JUMPDEST PUSH1 0x0 PUSH2 0x243C PUSH1 0x18 DUP4 PUSH2 0x1DF8 JUMP JUMPDEST SWAP2 POP PUSH2 0x2447 DUP3 PUSH2 0x2406 JUMP JUMPDEST PUSH1 0x20 DUP3 ADD SWAP1 POP SWAP2 SWAP1 POP JUMP JUMPDEST PUSH1 0x0 PUSH1 0x20 DUP3 ADD SWAP1 POP DUP2 DUP2 SUB PUSH1 0x0 DUP4 ADD MSTORE PUSH2 0x246B DUP2 PUSH2 0x242F JUMP JUMPDEST SWAP1 POP SWAP2 SWAP1 POP JUMP JUMPDEST PUSH32 0x4E6F207265776172647320746F20636C61696D00000000000000000000000000 PUSH1 0x0 DUP3 ADD MSTORE POP JUMP JUMPDEST PUSH1 0x0 PUSH2 0x24A8 PUSH1 0x13 DUP4 PUSH2 0x1DF8 JUMP JUMPDEST SWAP2 POP PUSH2 0x24B3 DUP3 PUSH2 0x2472 JUMP JUMPDEST PUSH1 0x20 DUP3 ADD SWAP1 POP SWAP2 SWAP1 POP JUMP JUMPDEST PUSH1 0x0 PUSH1 0x20 DUP3 ADD SWAP1 POP DUP2 DUP2 SUB PUSH1 0x0 DUP4 ADD MSTORE PUSH2 0x24D7 DUP2 PUSH2 0x249B JUMP JUMPDEST SWAP1 POP SWAP2 SWAP1 POP JUMP JUMPDEST PUSH1 0x0 PUSH2 0x24E9 DUP3 PUSH2 0x1F02 JUMP JUMPDEST SWAP2 POP PUSH2 0x24F4 DUP4 PUSH2 0x1F02 JUMP JUMPDEST SWAP3 POP DUP3 DUP3 ADD SWAP1 POP DUP1 DUP3 GT ISZERO PUSH2 0x250C JUMPI PUSH2 0x250B PUSH2 0x22BB JUMP JUMPDEST JUMPDEST SWAP3 SWAP2 POP POP JUMP JUMPDEST PUSH32 0x496E73756666696369656E7420746F6B656E7300000000000000000000000000 PUSH1 0x0 DUP3 ADD MSTORE POP JUMP JUMPDEST PUSH1 0x0 PUSH2 0x2548 PUSH1 0x13 DUP4 PUSH2 0x1DF8 JUMP JUMPDEST SWAP2 POP PUSH2 0x2553 DUP3 PUSH2 0x2512 JUMP JUMPDEST PUSH1 0x20 DUP3 ADD SWAP1 POP SWAP2 SWAP1 POP JUMP JUMPDEST PUSH1 0x0 PUSH1 0x20 DUP3 ADD SWAP1 POP DUP2 DUP2 SUB PUSH1 0x0 DUP4 ADD MSTORE PUSH2 0x2577 DUP2 PUSH2 0x253B JUMP JUMPDEST SWAP1 POP SWAP2 SWAP1 POP JUMP JUMPDEST PUSH32 0x45524332303A2064656372656173656420616C6C6F77616E63652062656C6F77 PUSH1 0x0 DUP3 ADD MSTORE PUSH32 0x207A65726F000000000000000000000000000000000000000000000000000000 PUSH1 0x20 DUP3 ADD MSTORE POP JUMP JUMPDEST PUSH1 0x0 PUSH2 0x25DA PUSH1 0x25 DUP4 PUSH2 0x1DF8 JUMP JUMPDEST SWAP2 POP PUSH2 0x25E5 DUP3 PUSH2 0x257E JUMP JUMPDEST PUSH1 0x40 DUP3 ADD SWAP1 POP SWAP2 SWAP1 POP JUMP JUMPDEST PUSH1 0x0 PUSH1 0x20 DUP3 ADD SWAP1 POP DUP2 DUP2 SUB PUSH1 0x0 DUP4 ADD MSTORE PUSH2 0x2609 DUP2 PUSH2 0x25CD JUMP JUMPDEST SWAP1 POP SWAP2 SWAP1 POP JUMP JUMPDEST PUSH32 0x4D757374207374616B65206D6F7265207468616E207A65726F20746F6B656E73 PUSH1 0x0 DUP3 ADD MSTORE POP JUMP JUMPDEST PUSH1 0x0 PUSH2 0x2646 PUSH1 0x20 DUP4 PUSH2 0x1DF8 JUMP JUMPDEST SWAP2 POP PUSH2 0x2651 DUP3 PUSH2 0x2610 JUMP JUMPDEST PUSH1 0x20 DUP3 ADD SWAP1 POP SWAP2 SWAP1 POP JUMP JUMPDEST PUSH1 0x0 PUSH1 0x20 DUP3 ADD SWAP1 POP DUP2 DUP2 SUB PUSH1 0x0 DUP4 ADD MSTORE PUSH2 0x2675 DUP2 PUSH2 0x2639 JUMP JUMPDEST SWAP1 POP SWAP2 SWAP1 POP JUMP JUMPDEST PUSH32 0x4E6F7420456E6F7567682042616C616E636520546F6B656E7320546F20537461 PUSH1 0x0 DUP3 ADD MSTORE PUSH32 0x6B65000000000000000000000000000000000000000000000000000000000000 PUSH1 0x20 DUP3 ADD MSTORE POP JUMP JUMPDEST PUSH1 0x0 PUSH2 0x26D8 PUSH1 0x22 DUP4 PUSH2 0x1DF8 JUMP JUMPDEST SWAP2 POP PUSH2 0x26E3 DUP3 PUSH2 0x267C JUMP JUMPDEST PUSH1 0x40 DUP3 ADD SWAP1 POP SWAP2 SWAP1 POP JUMP JUMPDEST PUSH1 0x0 PUSH1 0x20 DUP3 ADD SWAP1 POP DUP2 DUP2 SUB PUSH1 0x0 DUP4 ADD MSTORE PUSH2 0x2707 DUP2 PUSH2 0x26CB JUMP JUMPDEST SWAP1 POP SWAP2 SWAP1 POP JUMP JUMPDEST PUSH32 0x4F776E61626C653A206E6577206F776E657220697320746865207A65726F2061 PUSH1 0x0 DUP3 ADD MSTORE PUSH32 0x6464726573730000000000000000000000000000000000000000000000000000 PUSH1 0x20 DUP3 ADD MSTORE POP JUMP JUMPDEST PUSH1 0x0 PUSH2 0x276A PUSH1 0x26 DUP4 PUSH2 0x1DF8 JUMP JUMPDEST SWAP2 POP PUSH2 0x2775 DUP3 PUSH2 0x270E JUMP JUMPDEST PUSH1 0x40 DUP3 ADD SWAP1 POP SWAP2 SWAP1 POP JUMP JUMPDEST PUSH1 0x0 PUSH1 0x20 DUP3 ADD SWAP1 POP DUP2 DUP2 SUB PUSH1 0x0 DUP4 ADD MSTORE PUSH2 0x2799 DUP2 PUSH2 0x275D JUMP JUMPDEST SWAP1 POP SWAP2 SWAP1 POP JUMP JUMPDEST PUSH32 0x45524332303A20617070726F76652066726F6D20746865207A65726F20616464 PUSH1 0x0 DUP3 ADD MSTORE PUSH32 0x7265737300000000000000000000000000000000000000000000000000000000 PUSH1 0x20 DUP3 ADD MSTORE POP JUMP JUMPDEST PUSH1 0x0 PUSH2 0x27FC PUSH1 0x24 DUP4 PUSH2 0x1DF8 JUMP JUMPDEST SWAP2 POP PUSH2 0x2807 DUP3 PUSH2 0x27A0 JUMP JUMPDEST PUSH1 0x40 DUP3 ADD SWAP1 POP SWAP2 SWAP1 POP JUMP JUMPDEST PUSH1 0x0 PUSH1 0x20 DUP3 ADD SWAP1 POP DUP2 DUP2 SUB PUSH1 0x0 DUP4 ADD MSTORE PUSH2 0x282B DUP2 PUSH2 0x27EF JUMP JUMPDEST SWAP1 POP SWAP2 SWAP1 POP JUMP JUMPDEST PUSH32 0x45524332303A20617070726F766520746F20746865207A65726F206164647265 PUSH1 0x0 DUP3 ADD MSTORE PUSH32 0x7373000000000000000000000000000000000000000000000000000000000000 PUSH1 0x20 DUP3 ADD MSTORE POP JUMP JUMPDEST PUSH1 0x0 PUSH2 0x288E PUSH1 0x22 DUP4 PUSH2 0x1DF8 JUMP JUMPDEST SWAP2 POP PUSH2 0x2899 DUP3 PUSH2 0x2832 JUMP JUMPDEST PUSH1 0x40 DUP3 ADD SWAP1 POP SWAP2 SWAP1 POP JUMP JUMPDEST PUSH1 0x0 PUSH1 0x20 DUP3 ADD SWAP1 POP DUP2 DUP2 SUB PUSH1 0x0 DUP4 ADD MSTORE PUSH2 0x28BD DUP2 PUSH2 0x2881 JUMP JUMPDEST SWAP1 POP SWAP2 SWAP1 POP JUMP JUMPDEST PUSH32 0x45524332303A20696E73756666696369656E7420616C6C6F77616E6365000000 PUSH1 0x0 DUP3 ADD MSTORE POP JUMP JUMPDEST PUSH1 0x0 PUSH2 0x28FA PUSH1 0x1D DUP4 PUSH2 0x1DF8 JUMP JUMPDEST SWAP2 POP PUSH2 0x2905 DUP3 PUSH2 0x28C4 JUMP JUMPDEST PUSH1 0x20 DUP3 ADD SWAP1 POP SWAP2 SWAP1 POP JUMP JUMPDEST PUSH1 0x0 PUSH1 0x20 DUP3 ADD SWAP1 POP DUP2 DUP2 SUB PUSH1 0x0 DUP4 ADD MSTORE PUSH2 0x2929 DUP2 PUSH2 0x28ED JUMP JUMPDEST SWAP1 POP SWAP2 SWAP1 POP JUMP JUMPDEST PUSH32 0x45524332303A207472616E736665722066726F6D20746865207A65726F206164 PUSH1 0x0 DUP3 ADD MSTORE PUSH32 0x6472657373000000000000000000000000000000000000000000000000000000 PUSH1 0x20 DUP3 ADD MSTORE POP JUMP JUMPDEST PUSH1 0x0 PUSH2 0x298C PUSH1 0x25 DUP4 PUSH2 0x1DF8 JUMP JUMPDEST SWAP2 POP PUSH2 0x2997 DUP3 PUSH2 0x2930 JUMP JUMPDEST PUSH1 0x40 DUP3 ADD SWAP1 POP SWAP2 SWAP1 POP JUMP JUMPDEST PUSH1 0x0 PUSH1 0x20 DUP3 ADD SWAP1 POP DUP2 DUP2 SUB PUSH1 0x0 DUP4 ADD MSTORE PUSH2 0x29BB DUP2 PUSH2 0x297F JUMP JUMPDEST SWAP1 POP SWAP2 SWAP1 POP JUMP JUMPDEST PUSH32 0x45524332303A207472616E7366657220746F20746865207A65726F2061646472 PUSH1 0x0 DUP3 ADD MSTORE PUSH32 0x6573730000000000000000000000000000000000000000000000000000000000 PUSH1 0x20 DUP3 ADD MSTORE POP JUMP JUMPDEST PUSH1 0x0 PUSH2 0x2A1E PUSH1 0x23 DUP4 PUSH2 0x1DF8 JUMP JUMPDEST SWAP2 POP PUSH2 0x2A29 DUP3 PUSH2 0x29C2 JUMP JUMPDEST PUSH1 0x40 DUP3 ADD SWAP1 POP SWAP2 SWAP1 POP JUMP JUMPDEST PUSH1 0x0 PUSH1 0x20 DUP3 ADD SWAP1 POP DUP2 DUP2 SUB PUSH1 0x0 DUP4 ADD MSTORE PUSH2 0x2A4D DUP2 PUSH2 0x2A11 JUMP JUMPDEST SWAP1 POP SWAP2 SWAP1 POP JUMP JUMPDEST PUSH32 0x45524332303A207472616E7366657220616D6F756E7420657863656564732062 PUSH1 0x0 DUP3 ADD MSTORE PUSH32 0x616C616E63650000000000000000000000000000000000000000000000000000 PUSH1 0x20 DUP3 ADD MSTORE POP JUMP JUMPDEST PUSH1 0x0 PUSH2 0x2AB0 PUSH1 0x26 DUP4 PUSH2 0x1DF8 JUMP JUMPDEST SWAP2 POP PUSH2 0x2ABB DUP3 PUSH2 0x2A54 JUMP JUMPDEST PUSH1 0x40 DUP3 ADD SWAP1 POP SWAP2 SWAP1 POP JUMP JUMPDEST PUSH1 0x0 PUSH1 0x20 DUP3 ADD SWAP1 POP DUP2 DUP2 SUB PUSH1 0x0 DUP4 ADD MSTORE PUSH2 0x2ADF DUP2 PUSH2 0x2AA3 JUMP JUMPDEST SWAP1 POP SWAP2 SWAP1 POP JUMP JUMPDEST PUSH32 0x4E487B7100000000000000000000000000000000000000000000000000000000 PUSH1 0x0 MSTORE PUSH1 0x12 PUSH1 0x4 MSTORE PUSH1 0x24 PUSH1 0x0 REVERT JUMPDEST PUSH1 0x0 PUSH2 0x2B20 DUP3 PUSH2 0x1F02 JUMP JUMPDEST SWAP2 POP PUSH2 0x2B2B DUP4 PUSH2 0x1F02 JUMP JUMPDEST SWAP3 POP DUP3 PUSH2 0x2B3B JUMPI PUSH2 0x2B3A PUSH2 0x2AE6 JUMP JUMPDEST JUMPDEST DUP3 DUP3 DIV SWAP1 POP SWAP3 SWAP2 POP POP JUMP JUMPDEST PUSH32 0x45524332303A206D696E7420746F20746865207A65726F206164647265737300 PUSH1 0x0 DUP3 ADD MSTORE POP JUMP JUMPDEST PUSH1 0x0 PUSH2 0x2B7C PUSH1 0x1F DUP4 PUSH2 0x1DF8 JUMP JUMPDEST SWAP2 POP PUSH2 0x2B87 DUP3 PUSH2 0x2B46 JUMP JUMPDEST PUSH1 0x20 DUP3 ADD SWAP1 POP SWAP2 SWAP1 POP JUMP JUMPDEST PUSH1 0x0 PUSH1 0x20 DUP3 ADD SWAP1 POP DUP2 DUP2 SUB PUSH1 0x0 DUP4 ADD MSTORE PUSH2 0x2BAB DUP2 PUSH2 0x2B6F JUMP JUMPDEST SWAP1 POP SWAP2 SWAP1 POP JUMP JUMPDEST PUSH32 0x45524332303A206275726E2066726F6D20746865207A65726F20616464726573 PUSH1 0x0 DUP3 ADD MSTORE PUSH32 0x7300000000000000000000000000000000000000000000000000000000000000 PUSH1 0x20 DUP3 ADD MSTORE POP JUMP JUMPDEST PUSH1 0x0 PUSH2 0x2C0E PUSH1 0x21 DUP4 PUSH2 0x1DF8 JUMP JUMPDEST SWAP2 POP PUSH2 0x2C19 DUP3 PUSH2 0x2BB2 JUMP JUMPDEST PUSH1 0x40 DUP3 ADD SWAP1 POP SWAP2 SWAP1 POP JUMP JUMPDEST PUSH1 0x0 PUSH1 0x20 DUP3 ADD SWAP1 POP DUP2 DUP2 SUB PUSH1 0x0 DUP4 ADD MSTORE PUSH2 0x2C3D DUP2 PUSH2 0x2C01 JUMP JUMPDEST SWAP1 POP SWAP2 SWAP1 POP JUMP JUMPDEST PUSH32 0x45524332303A206275726E20616D6F756E7420657863656564732062616C616E PUSH1 0x0 DUP3 ADD MSTORE PUSH32 0x6365000000000000000000000000000000000000000000000000000000000000 PUSH1 0x20 DUP3 ADD MSTORE POP JUMP JUMPDEST PUSH1 0x0 PUSH2 0x2CA0 PUSH1 0x22 DUP4 PUSH2 0x1DF8 JUMP JUMPDEST SWAP2 POP PUSH2 0x2CAB DUP3 PUSH2 0x2C44 JUMP JUMPDEST PUSH1 0x40 DUP3 ADD SWAP1 POP SWAP2 SWAP1 POP JUMP JUMPDEST PUSH1 0x0 PUSH1 0x20 DUP3 ADD SWAP1 POP DUP2 DUP2 SUB PUSH1 0x0 DUP4 ADD MSTORE PUSH2 0x2CCF DUP2 PUSH2 0x2C93 JUMP JUMPDEST SWAP1 POP SWAP2 SWAP1 POP JUMP JUMPDEST PUSH32 0x4F776E61626C653A2063616C6C6572206973206E6F7420746865206F776E6572 PUSH1 0x0 DUP3 ADD MSTORE POP JUMP JUMPDEST PUSH1 0x0 PUSH2 0x2D0C PUSH1 0x20 DUP4 PUSH2 0x1DF8 JUMP JUMPDEST SWAP2 POP PUSH2 0x2D17 DUP3 PUSH2 0x2CD6 JUMP JUMPDEST PUSH1 0x20 DUP3 ADD SWAP1 POP SWAP2 SWAP1 POP JUMP JUMPDEST PUSH1 0x0 PUSH1 0x20 DUP3 ADD SWAP1 POP DUP2 DUP2 SUB PUSH1 0x0 DUP4 ADD MSTORE PUSH2 0x2D3B DUP2 PUSH2 0x2CFF JUMP JUMPDEST SWAP1 POP SWAP2 SWAP1 POP JUMP INVALID LOG2 PUSH5 0x6970667358 0x22 SLT KECCAK256 0x5F 0xDA SMOD 0x21 PUSH29 0xC30A9B1F9FF7DEE339DEDB697BA76AD9901A8746A38B4177A739756473 PUSH16 0x6C634300081200330000000000000000 "
				},
				"gasEstimates": {
					"creation": {
						"codeDepositCost": "2328000",
						"executionCost": "infinite",
						"totalCost": "infinite"
					},
					"external": {
						"allowance(address,address)": "infinite",
						"approve(address,uint256)": "infinite",
						"balanceOf(address)": "2864",
						"burn(uint256)": "infinite",
						"burnFrom(address,uint256)": "infinite",
						"buyTokens(uint256)": "infinite",
						"claimRewards()": "infinite",
						"decimals()": "477",
						"decreaseAllowance(address,uint256)": "infinite",
						"increaseAllowance(address,uint256)": "infinite",
						"interest()": "2495",
						"name()": "infinite",
						"owner()": "2633",
						"renounceOwnership()": "30443",
						"sellTokens(uint256)": "infinite",
						"setTokenPrice(uint256)": "24895",
						"stake(uint256)": "infinite",
						"stakingInfo(address)": "infinite",
						"symbol()": "infinite",
						"tokenPrice()": "2518",
						"totalSupply()": "2505",
						"transfer(address,uint256)": "infinite",
						"transferFrom(address,address,uint256)": "infinite",
						"transferOwnership(address)": "30854",
						"unstake(uint256)": "infinite"
					},
					"internal": {
						"UpdateReward(address)": "infinite",
						"setInterest(uint256)": "infinite",
						"updateRewardsForAllUsers()": "infinite"
					}
				},
				"methodIdentifiers": {
					"allowance(address,address)": "dd62ed3e",
					"approve(address,uint256)": "095ea7b3",
					"balanceOf(address)": "70a08231",
					"burn(uint256)": "42966c68",
					"burnFrom(address,uint256)": "79cc6790",
					"buyTokens(uint256)": "3610724e",
					"claimRewards()": "372500ab",
					"decimals()": "313ce567",
					"decreaseAllowance(address,uint256)": "a457c2d7",
					"increaseAllowance(address,uint256)": "39509351",
					"interest()": "c392f766",
					"name()": "06fdde03",
					"owner()": "8da5cb5b",
					"renounceOwnership()": "715018a6",
					"sellTokens(uint256)": "6c11bcd3",
					"setTokenPrice(uint256)": "6a61e5fc",
					"stake(uint256)": "a694fc3a",
					"stakingInfo(address)": "94eecb50",
					"symbol()": "95d89b41",
					"tokenPrice()": "7ff9b596",
					"totalSupply()": "18160ddd",
					"transfer(address,uint256)": "a9059cbb",
					"transferFrom(address,address,uint256)": "23b872dd",
					"transferOwnership(address)": "f2fde38b",
					"unstake(uint256)": "2e17de78"
				}
			},
			"storageLayout": {
				"storage": [
					{
						"astId": 128,
						"contract": "staking_test.sol:MyToken",
						"label": "_balances",
						"offset": 0,
						"slot": "0",
						"type": "t_mapping(t_address,t_uint256)"
					},
					{
						"astId": 134,
						"contract": "staking_test.sol:MyToken",
						"label": "_allowances",
						"offset": 0,
						"slot": "1",
						"type": "t_mapping(t_address,t_mapping(t_address,t_uint256))"
					},
					{
						"astId": 136,
						"contract": "staking_test.sol:MyToken",
						"label": "_totalSupply",
						"offset": 0,
						"slot": "2",
						"type": "t_uint256"
					},
					{
						"astId": 138,
						"contract": "staking_test.sol:MyToken",
						"label": "_name",
						"offset": 0,
						"slot": "3",
						"type": "t_string_storage"
					},
					{
						"astId": 140,
						"contract": "staking_test.sol:MyToken",
						"label": "_symbol",
						"offset": 0,
						"slot": "4",
						"type": "t_string_storage"
					},
					{
						"astId": 7,
						"contract": "staking_test.sol:MyToken",
						"label": "_owner",
						"offset": 0,
						"slot": "5",
						"type": "t_address"
					},
					{
						"astId": 881,
						"contract": "staking_test.sol:MyToken",
						"label": "tokenPrice",
						"offset": 0,
						"slot": "6",
						"type": "t_uint256"
					},
					{
						"astId": 884,
						"contract": "staking_test.sol:MyToken",
						"label": "interest",
						"offset": 0,
						"slot": "7",
						"type": "t_uint256"
					},
					{
						"astId": 896,
						"contract": "staking_test.sol:MyToken",
						"label": "stakingInfo",
						"offset": 0,
						"slot": "8",
						"type": "t_mapping(t_address,t_struct(StakingInfo)891_storage)"
					},
					{
						"astId": 899,
						"contract": "staking_test.sol:MyToken",
						"label": "users",
						"offset": 0,
						"slot": "9",
						"type": "t_array(t_address)dyn_storage"
					}
				],
				"types": {
					"t_address": {
						"encoding": "inplace",
						"label": "address",
						"numberOfBytes": "20"
					},
					"t_array(t_address)dyn_storage": {
						"base": "t_address",
						"encoding": "dynamic_array",
						"label": "address[]",
						"numberOfBytes": "32"
					},
					"t_mapping(t_address,t_mapping(t_address,t_uint256))": {
						"encoding": "mapping",
						"key": "t_address",
						"label": "mapping(address => mapping(address => uint256))",
						"numberOfBytes": "32",
						"value": "t_mapping(t_address,t_uint256)"
					},
					"t_mapping(t_address,t_struct(StakingInfo)891_storage)": {
						"encoding": "mapping",
						"key": "t_address",
						"label": "mapping(address => struct MyToken.StakingInfo)",
						"numberOfBytes": "32",
						"value": "t_struct(StakingInfo)891_storage"
					},
					"t_mapping(t_address,t_uint256)": {
						"encoding": "mapping",
						"key": "t_address",
						"label": "mapping(address => uint256)",
						"numberOfBytes": "32",
						"value": "t_uint256"
					},
					"t_string_storage": {
						"encoding": "bytes",
						"label": "string",
						"numberOfBytes": "32"
					},
					"t_struct(StakingInfo)891_storage": {
						"encoding": "inplace",
						"label": "struct MyToken.StakingInfo",
						"members": [
							{
								"astId": 886,
								"contract": "staking_test.sol:MyToken",
								"label": "stakedAmount",
								"offset": 0,
								"slot": "0",
								"type": "t_uint256"
							},
							{
								"astId": 888,
								"contract": "staking_test.sol:MyToken",
								"label": "lastStakedTime",
								"offset": 0,
								"slot": "1",
								"type": "t_uint256"
							},
							{
								"astId": 890,
								"contract": "staking_test.sol:MyToken",
								"label": "rewards",
								"offset": 0,
								"slot": "2",
								"type": "t_uint256"
							}
						],
						"numberOfBytes": "96"
					},
					"t_uint256": {
						"encoding": "inplace",
						"label": "uint256",
						"numberOfBytes": "32"
					}
				}
			},
			"userdoc": {
				"kind": "user",
				"methods": {},
				"version": 1
			}
		}
	}
}