{
	"DeFy.sol": {
		"DeFy": {
			"abi": [
				{
					"inputs": [],
					"name": "deposit",
					"outputs": [],
					"stateMutability": "payable",
					"type": "function"
				},
				{
					"inputs": [],
					"name": "register",
					"outputs": [],
					"stateMutability": "nonpayable",
					"type": "function"
				},
				{
					"inputs": [
						{
							"internalType": "uint256",
							"name": "amount",
							"type": "uint256"
						}
					],
					"name": "submit",
					"outputs": [],
					"stateMutability": "payable",
					"type": "function"
				}
			],
			"devdoc": {
				"kind": "dev",
				"methods": {},
				"version": 1
			},
			"evm": {
				"assembly": "    /* \"DeFy.sol\":57:1000  contract DeFy{... */\n  mstore(0x40, 0x80)\n  callvalue\n  dup1\n  iszero\n  tag_1\n  jumpi\n  0x00\n  dup1\n  revert\ntag_1:\n  pop\n  dataSize(sub_0)\n  dup1\n  dataOffset(sub_0)\n  0x00\n  codecopy\n  0x00\n  return\nstop\n\nsub_0: assembly {\n        /* \"DeFy.sol\":57:1000  contract DeFy{... */\n      mstore(0x40, 0x80)\n      jumpi(tag_1, lt(calldatasize, 0x04))\n      shr(0xe0, calldataload(0x00))\n      dup1\n      0x1aa3a008\n      eq\n      tag_2\n      jumpi\n      dup1\n      0xd0e30db0\n      eq\n      tag_3\n      jumpi\n      dup1\n      0xea99c2a6\n      eq\n      tag_4\n      jumpi\n    tag_1:\n      0x00\n      dup1\n      revert\n        /* \"DeFy.sol\":258:335  function register() external{... */\n    tag_2:\n      callvalue\n      dup1\n      iszero\n      tag_5\n      jumpi\n      0x00\n      dup1\n      revert\n    tag_5:\n      pop\n      tag_6\n      tag_7\n      jump\t// in\n    tag_6:\n      stop\n        /* \"DeFy.sol\":340:575  function deposit() public payable {... */\n    tag_3:\n      tag_8\n      tag_9\n      jump\t// in\n    tag_8:\n      stop\n        /* \"DeFy.sol\":883:998  function submit(uint256 amount) external payable{... */\n    tag_4:\n      tag_10\n      0x04\n      dup1\n      calldatasize\n      sub\n      dup2\n      add\n      swap1\n      tag_11\n      swap2\n      swap1\n      tag_12\n      jump\t// in\n    tag_11:\n      tag_13\n      jump\t// in\n    tag_10:\n      stop\n        /* \"DeFy.sol\":258:335  function register() external{... */\n    tag_7:\n        /* \"DeFy.sol\":324:328  true */\n      0x01\n        /* \"DeFy.sol\":296:300  Info */\n      0x00\n        /* \"DeFy.sol\":296:312  Info[msg.sender] */\n      dup1\n        /* \"DeFy.sol\":301:311  msg.sender */\n      caller\n        /* \"DeFy.sol\":296:312  Info[msg.sender] */\n      0xffffffffffffffffffffffffffffffffffffffff\n      and\n      0xffffffffffffffffffffffffffffffffffffffff\n      and\n      dup2\n      mstore\n      0x20\n      add\n      swap1\n      dup2\n      mstore\n      0x20\n      add\n      0x00\n      keccak256\n        /* \"DeFy.sol\":296:323  Info[msg.sender].registered */\n      0x00\n      add\n      0x00\n        /* \"DeFy.sol\":296:328  Info[msg.sender].registered=true */\n      0x0100\n      exp\n      dup2\n      sload\n      dup2\n      0xff\n      mul\n      not\n      and\n      swap1\n      dup4\n      iszero\n      iszero\n      mul\n      or\n      swap1\n      sstore\n      pop\n        /* \"DeFy.sol\":258:335  function register() external{... */\n      jump\t// out\n        /* \"DeFy.sol\":340:575  function deposit() public payable {... */\n    tag_9:\n        /* \"DeFy.sol\":421:425  true */\n      0x01\n        /* \"DeFy.sol\":392:425  Info[msg.sender].registered==true */\n      iszero\n      iszero\n        /* \"DeFy.sol\":392:396  Info */\n      0x00\n        /* \"DeFy.sol\":392:408  Info[msg.sender] */\n      dup1\n        /* \"DeFy.sol\":397:407  msg.sender */\n      caller\n        /* \"DeFy.sol\":392:408  Info[msg.sender] */\n      0xffffffffffffffffffffffffffffffffffffffff\n      and\n      0xffffffffffffffffffffffffffffffffffffffff\n      and\n      dup2\n      mstore\n      0x20\n      add\n      swap1\n      dup2\n      mstore\n      0x20\n      add\n      0x00\n      keccak256\n        /* \"DeFy.sol\":392:419  Info[msg.sender].registered */\n      0x00\n      add\n      0x00\n      swap1\n      sload\n      swap1\n      0x0100\n      exp\n      swap1\n      div\n      0xff\n      and\n        /* \"DeFy.sol\":392:425  Info[msg.sender].registered==true */\n      iszero\n      iszero\n      eq\n        /* \"DeFy.sol\":384:448  require(Info[msg.sender].registered==true,\"User Not registered\") */\n      tag_16\n      jumpi\n      mload(0x40)\n      0x08c379a000000000000000000000000000000000000000000000000000000000\n      dup2\n      mstore\n      0x04\n      add\n      tag_17\n      swap1\n      tag_18\n      jump\t// in\n    tag_17:\n      mload(0x40)\n      dup1\n      swap2\n      sub\n      swap1\n      revert\n    tag_16:\n        /* \"DeFy.sol\":478:479  0 */\n      0x00\n        /* \"DeFy.sol\":466:475  msg.value */\n      callvalue\n        /* \"DeFy.sol\":466:479  msg.value > 0 */\n      gt\n        /* \"DeFy.sol\":458:521  require(msg.value > 0, \"Deposit amount must be greater than 0\") */\n      tag_19\n      jumpi\n      mload(0x40)\n      0x08c379a000000000000000000000000000000000000000000000000000000000\n      dup2\n      mstore\n      0x04\n      add\n      tag_20\n      swap1\n      tag_21\n      jump\t// in\n    tag_20:\n      mload(0x40)\n      dup1\n      swap2\n      sub\n      swap1\n      revert\n    tag_19:\n        /* \"DeFy.sol\":559:568  msg.value */\n      callvalue\n        /* \"DeFy.sol\":531:535  Info */\n      0x00\n        /* \"DeFy.sol\":531:547  Info[msg.sender] */\n      dup1\n        /* \"DeFy.sol\":536:546  msg.sender */\n      caller\n        /* \"DeFy.sol\":531:547  Info[msg.sender] */\n      0xffffffffffffffffffffffffffffffffffffffff\n      and\n      0xffffffffffffffffffffffffffffffffffffffff\n      and\n      dup2\n      mstore\n      0x20\n      add\n      swap1\n      dup2\n      mstore\n      0x20\n      add\n      0x00\n      keccak256\n        /* \"DeFy.sol\":531:556  Info[msg.sender].balances */\n      0x03\n      add\n      0x00\n        /* \"DeFy.sol\":531:568  Info[msg.sender].balances+= msg.value */\n      dup3\n      dup3\n      sload\n      tag_22\n      swap2\n      swap1\n      tag_23\n      jump\t// in\n    tag_22:\n      swap3\n      pop\n      pop\n      dup2\n      swap1\n      sstore\n      pop\n        /* \"DeFy.sol\":340:575  function deposit() public payable {... */\n      jump\t// out\n        /* \"DeFy.sol\":883:998  function submit(uint256 amount) external payable{... */\n    tag_13:\n        /* \"DeFy.sol\":949:970  loan_approval(amount) */\n      tag_25\n        /* \"DeFy.sol\":963:969  amount */\n      dup2\n        /* \"DeFy.sol\":949:962  loan_approval */\n      tag_26\n        /* \"DeFy.sol\":949:970  loan_approval(amount) */\n      jump\t// in\n    tag_25:\n        /* \"DeFy.sol\":941:991  require(loan_approval(amount),\"Loan not approved\") */\n      tag_27\n      jumpi\n      mload(0x40)\n      0x08c379a000000000000000000000000000000000000000000000000000000000\n      dup2\n      mstore\n      0x04\n      add\n      tag_28\n      swap1\n      tag_29\n      jump\t// in\n    tag_28:\n      mload(0x40)\n      dup1\n      swap2\n      sub\n      swap1\n      revert\n    tag_27:\n        /* \"DeFy.sol\":883:998  function submit(uint256 amount) external payable{... */\n      pop\n      jump\t// out\n        /* \"DeFy.sol\":580:878  function loan_approval(uint256 amount) internal view returns(bool){... */\n    tag_26:\n        /* \"DeFy.sol\":641:645  bool */\n      0x00\n        /* \"DeFy.sol\":693:697  true */\n      0x01\n        /* \"DeFy.sol\":664:697  Info[msg.sender].registered==true */\n      iszero\n      iszero\n        /* \"DeFy.sol\":664:668  Info */\n      0x00\n        /* \"DeFy.sol\":664:680  Info[msg.sender] */\n      dup1\n        /* \"DeFy.sol\":669:679  msg.sender */\n      caller\n        /* \"DeFy.sol\":664:680  Info[msg.sender] */\n      0xffffffffffffffffffffffffffffffffffffffff\n      and\n      0xffffffffffffffffffffffffffffffffffffffff\n      and\n      dup2\n      mstore\n      0x20\n      add\n      swap1\n      dup2\n      mstore\n      0x20\n      add\n      0x00\n      keccak256\n        /* \"DeFy.sol\":664:691  Info[msg.sender].registered */\n      0x00\n      add\n      0x00\n      swap1\n      sload\n      swap1\n      0x0100\n      exp\n      swap1\n      div\n      0xff\n      and\n        /* \"DeFy.sol\":664:697  Info[msg.sender].registered==true */\n      iszero\n      iszero\n      eq\n        /* \"DeFy.sol\":656:720  require(Info[msg.sender].registered==true,\"User Not registered\") */\n      tag_31\n      jumpi\n      mload(0x40)\n      0x08c379a000000000000000000000000000000000000000000000000000000000\n      dup2\n      mstore\n      0x04\n      add\n      tag_32\n      swap1\n      tag_18\n      jump\t// in\n    tag_32:\n      mload(0x40)\n      dup1\n      swap2\n      sub\n      swap1\n      revert\n    tag_31:\n        /* \"DeFy.sol\":789:798  6 minutes */\n      0x0168\n        /* \"DeFy.sol\":772:787  block.timestamp */\n      timestamp\n        /* \"DeFy.sol\":738:742  Info */\n      0x00\n        /* \"DeFy.sol\":738:754  Info[msg.sender] */\n      dup1\n        /* \"DeFy.sol\":743:753  msg.sender */\n      caller\n        /* \"DeFy.sol\":738:754  Info[msg.sender] */\n      0xffffffffffffffffffffffffffffffffffffffff\n      and\n      0xffffffffffffffffffffffffffffffffffffffff\n      and\n      dup2\n      mstore\n      0x20\n      add\n      swap1\n      dup2\n      mstore\n      0x20\n      add\n      0x00\n      keccak256\n        /* \"DeFy.sol\":738:771  Info[msg.sender].PreviousLoanTime */\n      0x01\n      add\n      sload\n        /* \"DeFy.sol\":738:787  Info[msg.sender].PreviousLoanTime-block.timestamp */\n      tag_33\n      swap2\n      swap1\n      tag_34\n      jump\t// in\n    tag_33:\n        /* \"DeFy.sol\":738:798  Info[msg.sender].PreviousLoanTime-block.timestamp<=6 minutes */\n      gt\n      iszero\n        /* \"DeFy.sol\":730:821  require(Info[msg.sender].PreviousLoanTime-block.timestamp<=6 minutes,\"User Not registered\") */\n      tag_35\n      jumpi\n      mload(0x40)\n      0x08c379a000000000000000000000000000000000000000000000000000000000\n      dup2\n      mstore\n      0x04\n      add\n      tag_36\n      swap1\n      tag_18\n      jump\t// in\n    tag_36:\n      mload(0x40)\n      dup1\n      swap2\n      sub\n      swap1\n      revert\n    tag_35:\n        /* \"DeFy.sol\":846:850  Info */\n      0x00\n        /* \"DeFy.sol\":846:862  Info[msg.sender] */\n      dup1\n        /* \"DeFy.sol\":851:861  msg.sender */\n      caller\n        /* \"DeFy.sol\":846:862  Info[msg.sender] */\n      0xffffffffffffffffffffffffffffffffffffffff\n      and\n      0xffffffffffffffffffffffffffffffffffffffff\n      and\n      dup2\n      mstore\n      0x20\n      add\n      swap1\n      dup2\n      mstore\n      0x20\n      add\n      0x00\n      keccak256\n        /* \"DeFy.sol\":846:871  Info[msg.sender].balances */\n      0x03\n      add\n      sload\n        /* \"DeFy.sol\":838:844  amount */\n      dup3\n        /* \"DeFy.sol\":838:871  amount<=Info[msg.sender].balances */\n      gt\n      iszero\n        /* \"DeFy.sol\":831:871  return amount<=Info[msg.sender].balances */\n      swap1\n      pop\n        /* \"DeFy.sol\":580:878  function loan_approval(uint256 amount) internal view returns(bool){... */\n      swap2\n      swap1\n      pop\n      jump\t// out\n        /* \"#utility.yul\":88:205   */\n    tag_38:\n        /* \"#utility.yul\":197:198   */\n      0x00\n        /* \"#utility.yul\":194:195   */\n      dup1\n        /* \"#utility.yul\":187:199   */\n      revert\n        /* \"#utility.yul\":334:411   */\n    tag_40:\n        /* \"#utility.yul\":371:378   */\n      0x00\n        /* \"#utility.yul\":400:405   */\n      dup2\n        /* \"#utility.yul\":389:405   */\n      swap1\n      pop\n        /* \"#utility.yul\":334:411   */\n      swap2\n      swap1\n      pop\n      jump\t// out\n        /* \"#utility.yul\":417:539   */\n    tag_41:\n        /* \"#utility.yul\":490:514   */\n      tag_57\n        /* \"#utility.yul\":508:513   */\n      dup2\n        /* \"#utility.yul\":490:514   */\n      tag_40\n      jump\t// in\n    tag_57:\n        /* \"#utility.yul\":483:488   */\n      dup2\n        /* \"#utility.yul\":480:515   */\n      eq\n        /* \"#utility.yul\":470:533   */\n      tag_58\n      jumpi\n        /* \"#utility.yul\":529:530   */\n      0x00\n        /* \"#utility.yul\":526:527   */\n      dup1\n        /* \"#utility.yul\":519:531   */\n      revert\n        /* \"#utility.yul\":470:533   */\n    tag_58:\n        /* \"#utility.yul\":417:539   */\n      pop\n      jump\t// out\n        /* \"#utility.yul\":545:684   */\n    tag_42:\n        /* \"#utility.yul\":591:596   */\n      0x00\n        /* \"#utility.yul\":629:635   */\n      dup2\n        /* \"#utility.yul\":616:636   */\n      calldataload\n        /* \"#utility.yul\":607:636   */\n      swap1\n      pop\n        /* \"#utility.yul\":645:678   */\n      tag_60\n        /* \"#utility.yul\":672:677   */\n      dup2\n        /* \"#utility.yul\":645:678   */\n      tag_41\n      jump\t// in\n    tag_60:\n        /* \"#utility.yul\":545:684   */\n      swap3\n      swap2\n      pop\n      pop\n      jump\t// out\n        /* \"#utility.yul\":690:1019   */\n    tag_12:\n        /* \"#utility.yul\":749:755   */\n      0x00\n        /* \"#utility.yul\":798:800   */\n      0x20\n        /* \"#utility.yul\":786:795   */\n      dup3\n        /* \"#utility.yul\":777:784   */\n      dup5\n        /* \"#utility.yul\":773:796   */\n      sub\n        /* \"#utility.yul\":769:801   */\n      slt\n        /* \"#utility.yul\":766:885   */\n      iszero\n      tag_62\n      jumpi\n        /* \"#utility.yul\":804:883   */\n      tag_63\n      tag_38\n      jump\t// in\n    tag_63:\n        /* \"#utility.yul\":766:885   */\n    tag_62:\n        /* \"#utility.yul\":924:925   */\n      0x00\n        /* \"#utility.yul\":949:1002   */\n      tag_64\n        /* \"#utility.yul\":994:1001   */\n      dup5\n        /* \"#utility.yul\":985:991   */\n      dup3\n        /* \"#utility.yul\":974:983   */\n      dup6\n        /* \"#utility.yul\":970:992   */\n      add\n        /* \"#utility.yul\":949:1002   */\n      tag_42\n      jump\t// in\n    tag_64:\n        /* \"#utility.yul\":939:1002   */\n      swap2\n      pop\n        /* \"#utility.yul\":895:1012   */\n      pop\n        /* \"#utility.yul\":690:1019   */\n      swap3\n      swap2\n      pop\n      pop\n      jump\t// out\n        /* \"#utility.yul\":1025:1194   */\n    tag_43:\n        /* \"#utility.yul\":1109:1120   */\n      0x00\n        /* \"#utility.yul\":1143:1149   */\n      dup3\n        /* \"#utility.yul\":1138:1141   */\n      dup3\n        /* \"#utility.yul\":1131:1150   */\n      mstore\n        /* \"#utility.yul\":1183:1187   */\n      0x20\n        /* \"#utility.yul\":1178:1181   */\n      dup3\n        /* \"#utility.yul\":1174:1188   */\n      add\n        /* \"#utility.yul\":1159:1188   */\n      swap1\n      pop\n        /* \"#utility.yul\":1025:1194   */\n      swap3\n      swap2\n      pop\n      pop\n      jump\t// out\n        /* \"#utility.yul\":1200:1369   */\n    tag_44:\n        /* \"#utility.yul\":1340:1361   */\n      0x55736572204e6f74207265676973746572656400000000000000000000000000\n        /* \"#utility.yul\":1336:1337   */\n      0x00\n        /* \"#utility.yul\":1328:1334   */\n      dup3\n        /* \"#utility.yul\":1324:1338   */\n      add\n        /* \"#utility.yul\":1317:1362   */\n      mstore\n        /* \"#utility.yul\":1200:1369   */\n      pop\n      jump\t// out\n        /* \"#utility.yul\":1375:1741   */\n    tag_45:\n        /* \"#utility.yul\":1517:1520   */\n      0x00\n        /* \"#utility.yul\":1538:1605   */\n      tag_68\n        /* \"#utility.yul\":1602:1604   */\n      0x13\n        /* \"#utility.yul\":1597:1600   */\n      dup4\n        /* \"#utility.yul\":1538:1605   */\n      tag_43\n      jump\t// in\n    tag_68:\n        /* \"#utility.yul\":1531:1605   */\n      swap2\n      pop\n        /* \"#utility.yul\":1614:1707   */\n      tag_69\n        /* \"#utility.yul\":1703:1706   */\n      dup3\n        /* \"#utility.yul\":1614:1707   */\n      tag_44\n      jump\t// in\n    tag_69:\n        /* \"#utility.yul\":1732:1734   */\n      0x20\n        /* \"#utility.yul\":1727:1730   */\n      dup3\n        /* \"#utility.yul\":1723:1735   */\n      add\n        /* \"#utility.yul\":1716:1735   */\n      swap1\n      pop\n        /* \"#utility.yul\":1375:1741   */\n      swap2\n      swap1\n      pop\n      jump\t// out\n        /* \"#utility.yul\":1747:2166   */\n    tag_18:\n        /* \"#utility.yul\":1913:1917   */\n      0x00\n        /* \"#utility.yul\":1951:1953   */\n      0x20\n        /* \"#utility.yul\":1940:1949   */\n      dup3\n        /* \"#utility.yul\":1936:1954   */\n      add\n        /* \"#utility.yul\":1928:1954   */\n      swap1\n      pop\n        /* \"#utility.yul\":2000:2009   */\n      dup2\n        /* \"#utility.yul\":1994:1998   */\n      dup2\n        /* \"#utility.yul\":1990:2010   */\n      sub\n        /* \"#utility.yul\":1986:1987   */\n      0x00\n        /* \"#utility.yul\":1975:1984   */\n      dup4\n        /* \"#utility.yul\":1971:1988   */\n      add\n        /* \"#utility.yul\":1964:2011   */\n      mstore\n        /* \"#utility.yul\":2028:2159   */\n      tag_71\n        /* \"#utility.yul\":2154:2158   */\n      dup2\n        /* \"#utility.yul\":2028:2159   */\n      tag_45\n      jump\t// in\n    tag_71:\n        /* \"#utility.yul\":2020:2159   */\n      swap1\n      pop\n        /* \"#utility.yul\":1747:2166   */\n      swap2\n      swap1\n      pop\n      jump\t// out\n        /* \"#utility.yul\":2172:2396   */\n    tag_46:\n        /* \"#utility.yul\":2312:2346   */\n      0x4465706f73697420616d6f756e74206d75737420626520677265617465722074\n        /* \"#utility.yul\":2308:2309   */\n      0x00\n        /* \"#utility.yul\":2300:2306   */\n      dup3\n        /* \"#utility.yul\":2296:2310   */\n      add\n        /* \"#utility.yul\":2289:2347   */\n      mstore\n        /* \"#utility.yul\":2381:2388   */\n      0x68616e2030000000000000000000000000000000000000000000000000000000\n        /* \"#utility.yul\":2376:2378   */\n      0x20\n        /* \"#utility.yul\":2368:2374   */\n      dup3\n        /* \"#utility.yul\":2364:2379   */\n      add\n        /* \"#utility.yul\":2357:2389   */\n      mstore\n        /* \"#utility.yul\":2172:2396   */\n      pop\n      jump\t// out\n        /* \"#utility.yul\":2402:2768   */\n    tag_47:\n        /* \"#utility.yul\":2544:2547   */\n      0x00\n        /* \"#utility.yul\":2565:2632   */\n      tag_74\n        /* \"#utility.yul\":2629:2631   */\n      0x25\n        /* \"#utility.yul\":2624:2627   */\n      dup4\n        /* \"#utility.yul\":2565:2632   */\n      tag_43\n      jump\t// in\n    tag_74:\n        /* \"#utility.yul\":2558:2632   */\n      swap2\n      pop\n        /* \"#utility.yul\":2641:2734   */\n      tag_75\n        /* \"#utility.yul\":2730:2733   */\n      dup3\n        /* \"#utility.yul\":2641:2734   */\n      tag_46\n      jump\t// in\n    tag_75:\n        /* \"#utility.yul\":2759:2761   */\n      0x40\n        /* \"#utility.yul\":2754:2757   */\n      dup3\n        /* \"#utility.yul\":2750:2762   */\n      add\n        /* \"#utility.yul\":2743:2762   */\n      swap1\n      pop\n        /* \"#utility.yul\":2402:2768   */\n      swap2\n      swap1\n      pop\n      jump\t// out\n        /* \"#utility.yul\":2774:3193   */\n    tag_21:\n        /* \"#utility.yul\":2940:2944   */\n      0x00\n        /* \"#utility.yul\":2978:2980   */\n      0x20\n        /* \"#utility.yul\":2967:2976   */\n      dup3\n        /* \"#utility.yul\":2963:2981   */\n      add\n        /* \"#utility.yul\":2955:2981   */\n      swap1\n      pop\n        /* \"#utility.yul\":3027:3036   */\n      dup2\n        /* \"#utility.yul\":3021:3025   */\n      dup2\n        /* \"#utility.yul\":3017:3037   */\n      sub\n        /* \"#utility.yul\":3013:3014   */\n      0x00\n        /* \"#utility.yul\":3002:3011   */\n      dup4\n        /* \"#utility.yul\":2998:3015   */\n      add\n        /* \"#utility.yul\":2991:3038   */\n      mstore\n        /* \"#utility.yul\":3055:3186   */\n      tag_77\n        /* \"#utility.yul\":3181:3185   */\n      dup2\n        /* \"#utility.yul\":3055:3186   */\n      tag_47\n      jump\t// in\n    tag_77:\n        /* \"#utility.yul\":3047:3186   */\n      swap1\n      pop\n        /* \"#utility.yul\":2774:3193   */\n      swap2\n      swap1\n      pop\n      jump\t// out\n        /* \"#utility.yul\":3199:3379   */\n    tag_48:\n        /* \"#utility.yul\":3247:3324   */\n      0x4e487b7100000000000000000000000000000000000000000000000000000000\n        /* \"#utility.yul\":3244:3245   */\n      0x00\n        /* \"#utility.yul\":3237:3325   */\n      mstore\n        /* \"#utility.yul\":3344:3348   */\n      0x11\n        /* \"#utility.yul\":3341:3342   */\n      0x04\n        /* \"#utility.yul\":3334:3349   */\n      mstore\n        /* \"#utility.yul\":3368:3372   */\n      0x24\n        /* \"#utility.yul\":3365:3366   */\n      0x00\n        /* \"#utility.yul\":3358:3373   */\n      revert\n        /* \"#utility.yul\":3385:3576   */\n    tag_23:\n        /* \"#utility.yul\":3425:3428   */\n      0x00\n        /* \"#utility.yul\":3444:3464   */\n      tag_80\n        /* \"#utility.yul\":3462:3463   */\n      dup3\n        /* \"#utility.yul\":3444:3464   */\n      tag_40\n      jump\t// in\n    tag_80:\n        /* \"#utility.yul\":3439:3464   */\n      swap2\n      pop\n        /* \"#utility.yul\":3478:3498   */\n      tag_81\n        /* \"#utility.yul\":3496:3497   */\n      dup4\n        /* \"#utility.yul\":3478:3498   */\n      tag_40\n      jump\t// in\n    tag_81:\n        /* \"#utility.yul\":3473:3498   */\n      swap3\n      pop\n        /* \"#utility.yul\":3521:3522   */\n      dup3\n        /* \"#utility.yul\":3518:3519   */\n      dup3\n        /* \"#utility.yul\":3514:3523   */\n      add\n        /* \"#utility.yul\":3507:3523   */\n      swap1\n      pop\n        /* \"#utility.yul\":3542:3545   */\n      dup1\n        /* \"#utility.yul\":3539:3540   */\n      dup3\n        /* \"#utility.yul\":3536:3546   */\n      gt\n        /* \"#utility.yul\":3533:3569   */\n      iszero\n      tag_82\n      jumpi\n        /* \"#utility.yul\":3549:3567   */\n      tag_83\n      tag_48\n      jump\t// in\n    tag_83:\n        /* \"#utility.yul\":3533:3569   */\n    tag_82:\n        /* \"#utility.yul\":3385:3576   */\n      swap3\n      swap2\n      pop\n      pop\n      jump\t// out\n        /* \"#utility.yul\":3582:3749   */\n    tag_49:\n        /* \"#utility.yul\":3722:3741   */\n      0x4c6f616e206e6f7420617070726f766564000000000000000000000000000000\n        /* \"#utility.yul\":3718:3719   */\n      0x00\n        /* \"#utility.yul\":3710:3716   */\n      dup3\n        /* \"#utility.yul\":3706:3720   */\n      add\n        /* \"#utility.yul\":3699:3742   */\n      mstore\n        /* \"#utility.yul\":3582:3749   */\n      pop\n      jump\t// out\n        /* \"#utility.yul\":3755:4121   */\n    tag_50:\n        /* \"#utility.yul\":3897:3900   */\n      0x00\n        /* \"#utility.yul\":3918:3985   */\n      tag_86\n        /* \"#utility.yul\":3982:3984   */\n      0x11\n        /* \"#utility.yul\":3977:3980   */\n      dup4\n        /* \"#utility.yul\":3918:3985   */\n      tag_43\n      jump\t// in\n    tag_86:\n        /* \"#utility.yul\":3911:3985   */\n      swap2\n      pop\n        /* \"#utility.yul\":3994:4087   */\n      tag_87\n        /* \"#utility.yul\":4083:4086   */\n      dup3\n        /* \"#utility.yul\":3994:4087   */\n      tag_49\n      jump\t// in\n    tag_87:\n        /* \"#utility.yul\":4112:4114   */\n      0x20\n        /* \"#utility.yul\":4107:4110   */\n      dup3\n        /* \"#utility.yul\":4103:4115   */\n      add\n        /* \"#utility.yul\":4096:4115   */\n      swap1\n      pop\n        /* \"#utility.yul\":3755:4121   */\n      swap2\n      swap1\n      pop\n      jump\t// out\n        /* \"#utility.yul\":4127:4546   */\n    tag_29:\n        /* \"#utility.yul\":4293:4297   */\n      0x00\n        /* \"#utility.yul\":4331:4333   */\n      0x20\n        /* \"#utility.yul\":4320:4329   */\n      dup3\n        /* \"#utility.yul\":4316:4334   */\n      add\n        /* \"#utility.yul\":4308:4334   */\n      swap1\n      pop\n        /* \"#utility.yul\":4380:4389   */\n      dup2\n        /* \"#utility.yul\":4374:4378   */\n      dup2\n        /* \"#utility.yul\":4370:4390   */\n      sub\n        /* \"#utility.yul\":4366:4367   */\n      0x00\n        /* \"#utility.yul\":4355:4364   */\n      dup4\n        /* \"#utility.yul\":4351:4368   */\n      add\n        /* \"#utility.yul\":4344:4391   */\n      mstore\n        /* \"#utility.yul\":4408:4539   */\n      tag_89\n        /* \"#utility.yul\":4534:4538   */\n      dup2\n        /* \"#utility.yul\":4408:4539   */\n      tag_50\n      jump\t// in\n    tag_89:\n        /* \"#utility.yul\":4400:4539   */\n      swap1\n      pop\n        /* \"#utility.yul\":4127:4546   */\n      swap2\n      swap1\n      pop\n      jump\t// out\n        /* \"#utility.yul\":4552:4746   */\n    tag_34:\n        /* \"#utility.yul\":4592:4596   */\n      0x00\n        /* \"#utility.yul\":4612:4632   */\n      tag_91\n        /* \"#utility.yul\":4630:4631   */\n      dup3\n        /* \"#utility.yul\":4612:4632   */\n      tag_40\n      jump\t// in\n    tag_91:\n        /* \"#utility.yul\":4607:4632   */\n      swap2\n      pop\n        /* \"#utility.yul\":4646:4666   */\n      tag_92\n        /* \"#utility.yul\":4664:4665   */\n      dup4\n        /* \"#utility.yul\":4646:4666   */\n      tag_40\n      jump\t// in\n    tag_92:\n        /* \"#utility.yul\":4641:4666   */\n      swap3\n      pop\n        /* \"#utility.yul\":4690:4691   */\n      dup3\n        /* \"#utility.yul\":4687:4688   */\n      dup3\n        /* \"#utility.yul\":4683:4692   */\n      sub\n        /* \"#utility.yul\":4675:4692   */\n      swap1\n      pop\n        /* \"#utility.yul\":4714:4715   */\n      dup2\n        /* \"#utility.yul\":4708:4712   */\n      dup2\n        /* \"#utility.yul\":4705:4716   */\n      gt\n        /* \"#utility.yul\":4702:4739   */\n      iszero\n      tag_93\n      jumpi\n        /* \"#utility.yul\":4719:4737   */\n      tag_94\n      tag_48\n      jump\t// in\n    tag_94:\n        /* \"#utility.yul\":4702:4739   */\n    tag_93:\n        /* \"#utility.yul\":4552:4746   */\n      swap3\n      swap2\n      pop\n      pop\n      jump\t// out\n\n    auxdata: 0xa26469706673582212203b28252cbb768aca236cc0688a3d284036e4555d4ddac4e588336ef704ff498964736f6c63430008120033\n}\n",
				"bytecode": {
					"linkReferences": {},
					"object": "608060405234801561001057600080fd5b50610673806100206000396000f3fe6080604052600436106100345760003560e01c80631aa3a00814610039578063d0e30db014610050578063ea99c2a61461005a575b600080fd5b34801561004557600080fd5b5061004e610076565b005b6100586100d2565b005b610074600480360381019061006f91906103fe565b610204565b005b60016000803373ffffffffffffffffffffffffffffffffffffffff1673ffffffffffffffffffffffffffffffffffffffff16815260200190815260200160002060000160006101000a81548160ff021916908315150217905550565b600115156000803373ffffffffffffffffffffffffffffffffffffffff1673ffffffffffffffffffffffffffffffffffffffff16815260200190815260200160002060000160009054906101000a900460ff16151514610167576040517f08c379a000000000000000000000000000000000000000000000000000000000815260040161015e90610488565b60405180910390fd5b600034116101aa576040517f08c379a00000000000000000000000000000000000000000000000000000000081526004016101a19061051a565b60405180910390fd5b346000803373ffffffffffffffffffffffffffffffffffffffff1673ffffffffffffffffffffffffffffffffffffffff16815260200190815260200160002060030160008282546101fb9190610569565b92505081905550565b61020d8161024f565b61024c576040517f08c379a0000000000000000000000000000000000000000000000000000000008152600401610243906105e9565b60405180910390fd5b50565b6000600115156000803373ffffffffffffffffffffffffffffffffffffffff1673ffffffffffffffffffffffffffffffffffffffff16815260200190815260200160002060000160009054906101000a900460ff161515146102e6576040517f08c379a00000000000000000000000000000000000000000000000000000000081526004016102dd90610488565b60405180910390fd5b610168426000803373ffffffffffffffffffffffffffffffffffffffff1673ffffffffffffffffffffffffffffffffffffffff168152602001908152602001600020600101546103369190610609565b1115610377576040517f08c379a000000000000000000000000000000000000000000000000000000000815260040161036e90610488565b60405180910390fd5b6000803373ffffffffffffffffffffffffffffffffffffffff1673ffffffffffffffffffffffffffffffffffffffff168152602001908152602001600020600301548211159050919050565b600080fd5b6000819050919050565b6103db816103c8565b81146103e657600080fd5b50565b6000813590506103f8816103d2565b92915050565b600060208284031215610414576104136103c3565b5b6000610422848285016103e9565b91505092915050565b600082825260208201905092915050565b7f55736572204e6f74207265676973746572656400000000000000000000000000600082015250565b600061047260138361042b565b915061047d8261043c565b602082019050919050565b600060208201905081810360008301526104a181610465565b9050919050565b7f4465706f73697420616d6f756e74206d7573742062652067726561746572207460008201527f68616e2030000000000000000000000000000000000000000000000000000000602082015250565b600061050460258361042b565b915061050f826104a8565b604082019050919050565b60006020820190508181036000830152610533816104f7565b9050919050565b7f4e487b7100000000000000000000000000000000000000000000000000000000600052601160045260246000fd5b6000610574826103c8565b915061057f836103c8565b92508282019050808211156105975761059661053a565b5b92915050565b7f4c6f616e206e6f7420617070726f766564000000000000000000000000000000600082015250565b60006105d360118361042b565b91506105de8261059d565b602082019050919050565b60006020820190508181036000830152610602816105c6565b9050919050565b6000610614826103c8565b915061061f836103c8565b92508282039050818111156106375761063661053a565b5b9291505056fea26469706673582212203b28252cbb768aca236cc0688a3d284036e4555d4ddac4e588336ef704ff498964736f6c63430008120033",
					"opcodes": "PUSH1 0x80 PUSH1 0x40 MSTORE CALLVALUE DUP1 ISZERO PUSH2 0x10 JUMPI PUSH1 0x0 DUP1 REVERT JUMPDEST POP PUSH2 0x673 DUP1 PUSH2 0x20 PUSH1 0x0 CODECOPY PUSH1 0x0 RETURN INVALID PUSH1 0x80 PUSH1 0x40 MSTORE PUSH1 0x4 CALLDATASIZE LT PUSH2 0x34 JUMPI PUSH1 0x0 CALLDATALOAD PUSH1 0xE0 SHR DUP1 PUSH4 0x1AA3A008 EQ PUSH2 0x39 JUMPI DUP1 PUSH4 0xD0E30DB0 EQ PUSH2 0x50 JUMPI DUP1 PUSH4 0xEA99C2A6 EQ PUSH2 0x5A JUMPI JUMPDEST PUSH1 0x0 DUP1 REVERT JUMPDEST CALLVALUE DUP1 ISZERO PUSH2 0x45 JUMPI PUSH1 0x0 DUP1 REVERT JUMPDEST POP PUSH2 0x4E PUSH2 0x76 JUMP JUMPDEST STOP JUMPDEST PUSH2 0x58 PUSH2 0xD2 JUMP JUMPDEST STOP JUMPDEST PUSH2 0x74 PUSH1 0x4 DUP1 CALLDATASIZE SUB DUP2 ADD SWAP1 PUSH2 0x6F SWAP2 SWAP1 PUSH2 0x3FE JUMP JUMPDEST PUSH2 0x204 JUMP JUMPDEST STOP JUMPDEST PUSH1 0x1 PUSH1 0x0 DUP1 CALLER PUSH20 0xFFFFFFFFFFFFFFFFFFFFFFFFFFFFFFFFFFFFFFFF AND PUSH20 0xFFFFFFFFFFFFFFFFFFFFFFFFFFFFFFFFFFFFFFFF AND DUP2 MSTORE PUSH1 0x20 ADD SWAP1 DUP2 MSTORE PUSH1 0x20 ADD PUSH1 0x0 KECCAK256 PUSH1 0x0 ADD PUSH1 0x0 PUSH2 0x100 EXP DUP2 SLOAD DUP2 PUSH1 0xFF MUL NOT AND SWAP1 DUP4 ISZERO ISZERO MUL OR SWAP1 SSTORE POP JUMP JUMPDEST PUSH1 0x1 ISZERO ISZERO PUSH1 0x0 DUP1 CALLER PUSH20 0xFFFFFFFFFFFFFFFFFFFFFFFFFFFFFFFFFFFFFFFF AND PUSH20 0xFFFFFFFFFFFFFFFFFFFFFFFFFFFFFFFFFFFFFFFF AND DUP2 MSTORE PUSH1 0x20 ADD SWAP1 DUP2 MSTORE PUSH1 0x20 ADD PUSH1 0x0 KECCAK256 PUSH1 0x0 ADD PUSH1 0x0 SWAP1 SLOAD SWAP1 PUSH2 0x100 EXP SWAP1 DIV PUSH1 0xFF AND ISZERO ISZERO EQ PUSH2 0x167 JUMPI PUSH1 0x40 MLOAD PUSH32 0x8C379A000000000000000000000000000000000000000000000000000000000 DUP2 MSTORE PUSH1 0x4 ADD PUSH2 0x15E SWAP1 PUSH2 0x488 JUMP JUMPDEST PUSH1 0x40 MLOAD DUP1 SWAP2 SUB SWAP1 REVERT JUMPDEST PUSH1 0x0 CALLVALUE GT PUSH2 0x1AA JUMPI PUSH1 0x40 MLOAD PUSH32 0x8C379A000000000000000000000000000000000000000000000000000000000 DUP2 MSTORE PUSH1 0x4 ADD PUSH2 0x1A1 SWAP1 PUSH2 0x51A JUMP JUMPDEST PUSH1 0x40 MLOAD DUP1 SWAP2 SUB SWAP1 REVERT JUMPDEST CALLVALUE PUSH1 0x0 DUP1 CALLER PUSH20 0xFFFFFFFFFFFFFFFFFFFFFFFFFFFFFFFFFFFFFFFF AND PUSH20 0xFFFFFFFFFFFFFFFFFFFFFFFFFFFFFFFFFFFFFFFF AND DUP2 MSTORE PUSH1 0x20 ADD SWAP1 DUP2 MSTORE PUSH1 0x20 ADD PUSH1 0x0 KECCAK256 PUSH1 0x3 ADD PUSH1 0x0 DUP3 DUP3 SLOAD PUSH2 0x1FB SWAP2 SWAP1 PUSH2 0x569 JUMP JUMPDEST SWAP3 POP POP DUP2 SWAP1 SSTORE POP JUMP JUMPDEST PUSH2 0x20D DUP2 PUSH2 0x24F JUMP JUMPDEST PUSH2 0x24C JUMPI PUSH1 0x40 MLOAD PUSH32 0x8C379A000000000000000000000000000000000000000000000000000000000 DUP2 MSTORE PUSH1 0x4 ADD PUSH2 0x243 SWAP1 PUSH2 0x5E9 JUMP JUMPDEST PUSH1 0x40 MLOAD DUP1 SWAP2 SUB SWAP1 REVERT JUMPDEST POP JUMP JUMPDEST PUSH1 0x0 PUSH1 0x1 ISZERO ISZERO PUSH1 0x0 DUP1 CALLER PUSH20 0xFFFFFFFFFFFFFFFFFFFFFFFFFFFFFFFFFFFFFFFF AND PUSH20 0xFFFFFFFFFFFFFFFFFFFFFFFFFFFFFFFFFFFFFFFF AND DUP2 MSTORE PUSH1 0x20 ADD SWAP1 DUP2 MSTORE PUSH1 0x20 ADD PUSH1 0x0 KECCAK256 PUSH1 0x0 ADD PUSH1 0x0 SWAP1 SLOAD SWAP1 PUSH2 0x100 EXP SWAP1 DIV PUSH1 0xFF AND ISZERO ISZERO EQ PUSH2 0x2E6 JUMPI PUSH1 0x40 MLOAD PUSH32 0x8C379A000000000000000000000000000000000000000000000000000000000 DUP2 MSTORE PUSH1 0x4 ADD PUSH2 0x2DD SWAP1 PUSH2 0x488 JUMP JUMPDEST PUSH1 0x40 MLOAD DUP1 SWAP2 SUB SWAP1 REVERT JUMPDEST PUSH2 0x168 TIMESTAMP PUSH1 0x0 DUP1 CALLER PUSH20 0xFFFFFFFFFFFFFFFFFFFFFFFFFFFFFFFFFFFFFFFF AND PUSH20 0xFFFFFFFFFFFFFFFFFFFFFFFFFFFFFFFFFFFFFFFF AND DUP2 MSTORE PUSH1 0x20 ADD SWAP1 DUP2 MSTORE PUSH1 0x20 ADD PUSH1 0x0 KECCAK256 PUSH1 0x1 ADD SLOAD PUSH2 0x336 SWAP2 SWAP1 PUSH2 0x609 JUMP JUMPDEST GT ISZERO PUSH2 0x377 JUMPI PUSH1 0x40 MLOAD PUSH32 0x8C379A000000000000000000000000000000000000000000000000000000000 DUP2 MSTORE PUSH1 0x4 ADD PUSH2 0x36E SWAP1 PUSH2 0x488 JUMP JUMPDEST PUSH1 0x40 MLOAD DUP1 SWAP2 SUB SWAP1 REVERT JUMPDEST PUSH1 0x0 DUP1 CALLER PUSH20 0xFFFFFFFFFFFFFFFFFFFFFFFFFFFFFFFFFFFFFFFF AND PUSH20 0xFFFFFFFFFFFFFFFFFFFFFFFFFFFFFFFFFFFFFFFF AND DUP2 MSTORE PUSH1 0x20 ADD SWAP1 DUP2 MSTORE PUSH1 0x20 ADD PUSH1 0x0 KECCAK256 PUSH1 0x3 ADD SLOAD DUP3 GT ISZERO SWAP1 POP SWAP2 SWAP1 POP JUMP JUMPDEST PUSH1 0x0 DUP1 REVERT JUMPDEST PUSH1 0x0 DUP2 SWAP1 POP SWAP2 SWAP1 POP JUMP JUMPDEST PUSH2 0x3DB DUP2 PUSH2 0x3C8 JUMP JUMPDEST DUP2 EQ PUSH2 0x3E6 JUMPI PUSH1 0x0 DUP1 REVERT JUMPDEST POP JUMP JUMPDEST PUSH1 0x0 DUP2 CALLDATALOAD SWAP1 POP PUSH2 0x3F8 DUP2 PUSH2 0x3D2 JUMP JUMPDEST SWAP3 SWAP2 POP POP JUMP JUMPDEST PUSH1 0x0 PUSH1 0x20 DUP3 DUP5 SUB SLT ISZERO PUSH2 0x414 JUMPI PUSH2 0x413 PUSH2 0x3C3 JUMP JUMPDEST JUMPDEST PUSH1 0x0 PUSH2 0x422 DUP5 DUP3 DUP6 ADD PUSH2 0x3E9 JUMP JUMPDEST SWAP2 POP POP SWAP3 SWAP2 POP POP JUMP JUMPDEST PUSH1 0x0 DUP3 DUP3 MSTORE PUSH1 0x20 DUP3 ADD SWAP1 POP SWAP3 SWAP2 POP POP JUMP JUMPDEST PUSH32 0x55736572204E6F74207265676973746572656400000000000000000000000000 PUSH1 0x0 DUP3 ADD MSTORE POP JUMP JUMPDEST PUSH1 0x0 PUSH2 0x472 PUSH1 0x13 DUP4 PUSH2 0x42B JUMP JUMPDEST SWAP2 POP PUSH2 0x47D DUP3 PUSH2 0x43C JUMP JUMPDEST PUSH1 0x20 DUP3 ADD SWAP1 POP SWAP2 SWAP1 POP JUMP JUMPDEST PUSH1 0x0 PUSH1 0x20 DUP3 ADD SWAP1 POP DUP2 DUP2 SUB PUSH1 0x0 DUP4 ADD MSTORE PUSH2 0x4A1 DUP2 PUSH2 0x465 JUMP JUMPDEST SWAP1 POP SWAP2 SWAP1 POP JUMP JUMPDEST PUSH32 0x4465706F73697420616D6F756E74206D75737420626520677265617465722074 PUSH1 0x0 DUP3 ADD MSTORE PUSH32 0x68616E2030000000000000000000000000000000000000000000000000000000 PUSH1 0x20 DUP3 ADD MSTORE POP JUMP JUMPDEST PUSH1 0x0 PUSH2 0x504 PUSH1 0x25 DUP4 PUSH2 0x42B JUMP JUMPDEST SWAP2 POP PUSH2 0x50F DUP3 PUSH2 0x4A8 JUMP JUMPDEST PUSH1 0x40 DUP3 ADD SWAP1 POP SWAP2 SWAP1 POP JUMP JUMPDEST PUSH1 0x0 PUSH1 0x20 DUP3 ADD SWAP1 POP DUP2 DUP2 SUB PUSH1 0x0 DUP4 ADD MSTORE PUSH2 0x533 DUP2 PUSH2 0x4F7 JUMP JUMPDEST SWAP1 POP SWAP2 SWAP1 POP JUMP JUMPDEST PUSH32 0x4E487B7100000000000000000000000000000000000000000000000000000000 PUSH1 0x0 MSTORE PUSH1 0x11 PUSH1 0x4 MSTORE PUSH1 0x24 PUSH1 0x0 REVERT JUMPDEST PUSH1 0x0 PUSH2 0x574 DUP3 PUSH2 0x3C8 JUMP JUMPDEST SWAP2 POP PUSH2 0x57F DUP4 PUSH2 0x3C8 JUMP JUMPDEST SWAP3 POP DUP3 DUP3 ADD SWAP1 POP DUP1 DUP3 GT ISZERO PUSH2 0x597 JUMPI PUSH2 0x596 PUSH2 0x53A JUMP JUMPDEST JUMPDEST SWAP3 SWAP2 POP POP JUMP JUMPDEST PUSH32 0x4C6F616E206E6F7420617070726F766564000000000000000000000000000000 PUSH1 0x0 DUP3 ADD MSTORE POP JUMP JUMPDEST PUSH1 0x0 PUSH2 0x5D3 PUSH1 0x11 DUP4 PUSH2 0x42B JUMP JUMPDEST SWAP2 POP PUSH2 0x5DE DUP3 PUSH2 0x59D JUMP JUMPDEST PUSH1 0x20 DUP3 ADD SWAP1 POP SWAP2 SWAP1 POP JUMP JUMPDEST PUSH1 0x0 PUSH1 0x20 DUP3 ADD SWAP1 POP DUP2 DUP2 SUB PUSH1 0x0 DUP4 ADD MSTORE PUSH2 0x602 DUP2 PUSH2 0x5C6 JUMP JUMPDEST SWAP1 POP SWAP2 SWAP1 POP JUMP JUMPDEST PUSH1 0x0 PUSH2 0x614 DUP3 PUSH2 0x3C8 JUMP JUMPDEST SWAP2 POP PUSH2 0x61F DUP4 PUSH2 0x3C8 JUMP JUMPDEST SWAP3 POP DUP3 DUP3 SUB SWAP1 POP DUP2 DUP2 GT ISZERO PUSH2 0x637 JUMPI PUSH2 0x636 PUSH2 0x53A JUMP JUMPDEST JUMPDEST SWAP3 SWAP2 POP POP JUMP INVALID LOG2 PUSH5 0x6970667358 0x22 SLT KECCAK256 EXTCODESIZE 0x28 0x25 0x2C 0xBB PUSH23 0x8ACA236CC0688A3D284036E4555D4DDAC4E588336EF704 SELFDESTRUCT 0x49 DUP10 PUSH5 0x736F6C6343 STOP ADDMOD SLT STOP CALLER "
				},
				"gasEstimates": {
					"creation": {
						"codeDepositCost": "330200",
						"executionCost": "368",
						"totalCost": "330568"
					},
					"external": {
						"deposit()": "infinite",
						"register()": "24484",
						"submit(uint256)": "infinite"
					},
					"internal": {
						"loan_approval(uint256)": "infinite"
					}
				},
				"methodIdentifiers": {
					"deposit()": "d0e30db0",
					"register()": "1aa3a008",
					"submit(uint256)": "ea99c2a6"
				}
			},
			"storageLayout": {
				"storage": [
					{
						"astId": 15,
						"contract": "DeFy.sol:DeFy",
						"label": "Info",
						"offset": 0,
						"slot": "0",
						"type": "t_mapping(t_address,t_struct(Users)10_storage)"
					}
				],
				"types": {
					"t_address": {
						"encoding": "inplace",
						"label": "address",
						"numberOfBytes": "20"
					},
					"t_bool": {
						"encoding": "inplace",
						"label": "bool",
						"numberOfBytes": "1"
					},
					"t_mapping(t_address,t_struct(Users)10_storage)": {
						"encoding": "mapping",
						"key": "t_address",
						"label": "mapping(address => struct DeFy.Users)",
						"numberOfBytes": "32",
						"value": "t_struct(Users)10_storage"
					},
					"t_struct(Users)10_storage": {
						"encoding": "inplace",
						"label": "struct DeFy.Users",
						"members": [
							{
								"astId": 3,
								"contract": "DeFy.sol:DeFy",
								"label": "registered",
								"offset": 0,
								"slot": "0",
								"type": "t_bool"
							},
							{
								"astId": 5,
								"contract": "DeFy.sol:DeFy",
								"label": "PreviousLoanTime",
								"offset": 0,
								"slot": "1",
								"type": "t_uint256"
							},
							{
								"astId": 7,
								"contract": "DeFy.sol:DeFy",
								"label": "InterestPayable",
								"offset": 0,
								"slot": "2",
								"type": "t_uint256"
							},
							{
								"astId": 9,
								"contract": "DeFy.sol:DeFy",
								"label": "balances",
								"offset": 0,
								"slot": "3",
								"type": "t_uint256"
							}
						],
						"numberOfBytes": "128"
					},
					"t_uint256": {
						"encoding": "inplace",
						"label": "uint256",
						"numberOfBytes": "32"
					}
				}
			},
			"userdoc": {
				"kind": "user",
				"methods": {},
				"version": 1
			}
		}
	}
}