{
	"data": {
		"bytecode": {
			"linkReferences": {},
			"object": "608060405260016003553480156200001657600080fd5b506040516200201e3803806200201e83398181016040528101906200003c91906200012f565b80600160006101000a81548173ffffffffffffffffffffffffffffffffffffffff021916908373ffffffffffffffffffffffffffffffffffffffff16021790555033600260006101000a81548173ffffffffffffffffffffffffffffffffffffffff021916908373ffffffffffffffffffffffffffffffffffffffff1602179055505062000161565b600080fd5b600073ffffffffffffffffffffffffffffffffffffffff82169050919050565b6000620000f782620000ca565b9050919050565b6200010981620000ea565b81146200011557600080fd5b50565b6000815190506200012981620000fe565b92915050565b600060208284031215620001485762000147620000c5565b5b6000620001588482850162000118565b91505092915050565b611ead80620001716000396000f3fe608060405234801561001057600080fd5b50600436106100f55760003560e01c806390eb298111610097578063d5a44f8611610066578063d5a44f86146102ad578063d80e8700146102e0578063f3a93e80146102fe578063fc0c546a1461031a576100f5565b806390eb298114610212578063c392f76614610242578063c935297114610260578063d279c19114610291576100f5565b806378317be7116100d357806378317be71461018a5780637b0472f0146101a65780638b7afe2e146101d65780638da5cb5b146101f4576100f5565b80630700037d146100fa5780630a42f0491461012a5780632671b0d81461015a575b600080fd5b610114600480360381019061010f91906113fe565b610338565b6040516101219190611444565b60405180910390f35b610144600480360381019061013f919061148b565b610350565b6040516101519190611444565b60405180910390f35b610174600480360381019061016f91906113fe565b610370565b6040516101819190611576565b60405180910390f35b6101a4600480360381019061019f91906113fe565b610524565b005b6101c060048036038101906101bb9190611598565b61072c565b6040516101cd9190611444565b60405180910390f35b6101de610ade565b6040516101eb9190611444565b60405180910390f35b6101fc610b81565b60405161020991906115e7565b60405180910390f35b61022c6004803603810190610227919061148b565b610ba7565b60405161023991906115e7565b60405180910390f35b61024a610bda565b6040516102579190611444565b60405180910390f35b61027a600480360381019061027591906113fe565b610be0565b604051610288929190611721565b60405180910390f35b6102ab60048036038101906102a691906113fe565b610e6d565b005b6102c760048036038101906102c2919061148b565b6110ef565b6040516102d79493929190611767565b60405180910390f35b6102e861112c565b6040516102f59190611444565b60405180910390f35b6103186004803603810190610313919061148b565b611134565b005b61032261130e565b60405161032f919061180b565b60405180910390f35b60066020528060005260406000206000915090505481565b600060056000838152602001908152602001600020600101549050919050565b60606000805b6103806000611334565b811161040e578373ffffffffffffffffffffffffffffffffffffffff166004600083815260200190815260200160002060009054906101000a900473ffffffffffffffffffffffffffffffffffffffff1673ffffffffffffffffffffffffffffffffffffffff16036103fb5781806103f790611855565b9250505b808061040690611855565b915050610376565b5060008167ffffffffffffffff81111561042b5761042a61189d565b5b6040519080825280602002602001820160405280156104595781602001602082028036833780820191505090505b5090506000805b61046a6000611334565b8111610518578573ffffffffffffffffffffffffffffffffffffffff166004600083815260200190815260200160002060009054906101000a900473ffffffffffffffffffffffffffffffffffffffff1673ffffffffffffffffffffffffffffffffffffffff160361050557808383815181106104ea576104e96118cc565b5b602002602001018181525050818061050190611855565b9250505b808061051090611855565b915050610460565b50819350505050919050565b600061052f82610370565b90506000815111610575576040517f08c379a000000000000000000000000000000000000000000000000000000000815260040161056c90611958565b60405180910390fd5b60005b81518110156107275760056000838381518110610598576105976118cc565b5b6020026020010151815260200190815260200160002060030160009054906101000a900460ff1661071457600160009054906101000a900473ffffffffffffffffffffffffffffffffffffffff1673ffffffffffffffffffffffffffffffffffffffff1663a9059cbb3360056000868681518110610619576106186118cc565b5b60200260200101518152602001908152602001600020600001546040518363ffffffff1660e01b8152600401610650929190611978565b6020604051808303816000875af115801561066f573d6000803e3d6000fd5b505050506040513d601f19601f8201168201806040525081019061069391906119cd565b506000600560008484815181106106ad576106ac6118cc565b5b60200260200101518152602001908152602001600020600001819055506001600560008484815181106106e3576106e26118cc565b5b6020026020010151815260200190815260200160002060030160006101000a81548160ff0219169083151502179055505b808061071f90611855565b915050610578565b505050565b60006107386000611342565b6000831161077b576040517f08c379a000000000000000000000000000000000000000000000000000000000815260040161077290611a46565b60405180910390fd5b82600160009054906101000a900473ffffffffffffffffffffffffffffffffffffffff1673ffffffffffffffffffffffffffffffffffffffff166370a08231336040518263ffffffff1660e01b81526004016107d791906115e7565b602060405180830381865afa1580156107f4573d6000803e3d6000fd5b505050506040513d601f19601f820116820180604052508101906108189190611a7b565b1015610859576040517f08c379a000000000000000000000000000000000000000000000000000000000815260040161085090611b1a565b60405180910390fd5b60028214806108685750600482145b806108735750600682145b8061087e5750600882145b806108895750600a82145b6108c8576040517f08c379a00000000000000000000000000000000000000000000000000000000081526004016108bf90611bac565b60405180910390fd5b600042905033600460006108dc6000611334565b815260200190815260200160002060006101000a81548173ffffffffffffffffffffffffffffffffffffffff021916908373ffffffffffffffffffffffffffffffffffffffff160217905550600160009054906101000a900473ffffffffffffffffffffffffffffffffffffffff1673ffffffffffffffffffffffffffffffffffffffff166323b872dd3330876040518463ffffffff1660e01b815260040161098793929190611bcc565b6020604051808303816000875af11580156109a6573d6000803e3d6000fd5b505050506040513d601f19601f820116820180604052508101906109ca91906119cd565b610a09576040517f08c379a0000000000000000000000000000000000000000000000000000000008152600401610a0090611c75565b60405180910390fd5b8360056000610a186000611334565b81526020019081526020016000206000016000828254610a389190611c95565b925050819055508060056000610a4e6000611334565b815260200190815260200160002060010181905550603c83610a709190611cc9565b60056000610a7e6000611334565b815260200190815260200160002060020181905550600060056000610aa36000611334565b815260200190815260200160002060030160006101000a81548160ff021916908315150217905550610ad56000611334565b91505092915050565b6000600160009054906101000a900473ffffffffffffffffffffffffffffffffffffffff1673ffffffffffffffffffffffffffffffffffffffff166370a08231306040518263ffffffff1660e01b8152600401610b3b91906115e7565b602060405180830381865afa158015610b58573d6000803e3d6000fd5b505050506040513d601f19601f82011682018060405250810190610b7c9190611a7b565b905090565b600260009054906101000a900473ffffffffffffffffffffffffffffffffffffffff1681565b60046020528060005260406000206000915054906101000a900473ffffffffffffffffffffffffffffffffffffffff1681565b60035481565b6060806000805b610bf16000611334565b8111610c7f578473ffffffffffffffffffffffffffffffffffffffff166004600083815260200190815260200160002060009054906101000a900473ffffffffffffffffffffffffffffffffffffffff1673ffffffffffffffffffffffffffffffffffffffff1603610c6c578180610c6890611855565b9250505b8080610c7790611855565b915050610be7565b5060008167ffffffffffffffff811115610c9c57610c9b61189d565b5b604051908082528060200260200182016040528015610cd557816020015b610cc2611371565b815260200190600190039081610cba5790505b50905060008267ffffffffffffffff811115610cf457610cf361189d565b5b604051908082528060200260200182016040528015610d225781602001602082028036833780820191505090505b5090506000805b610d336000611334565b8111610e5d578773ffffffffffffffffffffffffffffffffffffffff166004600083815260200190815260200160002060009054906101000a900473ffffffffffffffffffffffffffffffffffffffff1673ffffffffffffffffffffffffffffffffffffffff1603610e4357600560008281526020019081526020016000206040518060800160405290816000820154815260200160018201548152602001600282015481526020016003820160009054906101000a900460ff161515151581525050848381518110610e0957610e086118cc565b5b602002602001018190525080838381518110610e2857610e276118cc565b5b6020026020010181815250508180610e3f90611855565b9250505b848211610e5d578080610e5590611855565b915050610d29565b5081839550955050505050915091565b6000610e7882610370565b90506000815111610ebe576040517f08c379a0000000000000000000000000000000000000000000000000000000008152600401610eb590611d57565b60405180910390fd5b60005b8151811015610f435760056000838381518110610ee157610ee06118cc565b5b6020026020010151815260200190815260200160002060030160009054906101000a900460ff16610f3057610f2f828281518110610f2257610f216118cc565b5b6020026020010151611134565b5b8080610f3b90611855565b915050610ec1565b506000600660008473ffffffffffffffffffffffffffffffffffffffff1673ffffffffffffffffffffffffffffffffffffffff1681526020019081526020016000205411610fc6576040517f08c379a0000000000000000000000000000000000000000000000000000000008152600401610fbd90611dc3565b60405180910390fd5b600160009054906101000a900473ffffffffffffffffffffffffffffffffffffffff1673ffffffffffffffffffffffffffffffffffffffff1663a9059cbb33600660008673ffffffffffffffffffffffffffffffffffffffff1673ffffffffffffffffffffffffffffffffffffffff168152602001908152602001600020546040518363ffffffff1660e01b8152600401611062929190611978565b6020604051808303816000875af1158015611081573d6000803e3d6000fd5b505050506040513d601f19601f820116820180604052508101906110a591906119cd565b506000600660008473ffffffffffffffffffffffffffffffffffffffff1673ffffffffffffffffffffffffffffffffffffffff168152602001908152602001600020819055505050565b60056020528060005260406000206000915090508060000154908060010154908060020154908060030160009054906101000a900460ff16905084565b600042905090565b6000429050600060056000848152602001908152602001600020600101548261115d9190611de3565b90506000611181826005600087815260200190815260200160002060020154611358565b905060648160035460056000888152602001908152602001600020600001546111aa9190611cc9565b6111b49190611cc9565b6111be9190611e46565b600660006004600088815260200190815260200160002060009054906101000a900473ffffffffffffffffffffffffffffffffffffffff1673ffffffffffffffffffffffffffffffffffffffff1673ffffffffffffffffffffffffffffffffffffffff1681526020019081526020016000205461123b9190611c95565b600660006004600088815260200190815260200160002060009054906101000a900473ffffffffffffffffffffffffffffffffffffffff1673ffffffffffffffffffffffffffffffffffffffff1673ffffffffffffffffffffffffffffffffffffffff168152602001908152602001600020819055508260056000868152602001908152602001600020600101819055508060056000868152602001908152602001600020600201546112ee9190611de3565b600560008681526020019081526020016000206002018190555050505050565b600160009054906101000a900473ffffffffffffffffffffffffffffffffffffffff1681565b600081600001549050919050565b6001816000016000828254019250508190555050565b60008183106113675781611369565b825b905092915050565b60405180608001604052806000815260200160008152602001600081526020016000151581525090565b600080fd5b600073ffffffffffffffffffffffffffffffffffffffff82169050919050565b60006113cb826113a0565b9050919050565b6113db816113c0565b81146113e657600080fd5b50565b6000813590506113f8816113d2565b92915050565b6000602082840312156114145761141361139b565b5b6000611422848285016113e9565b91505092915050565b6000819050919050565b61143e8161142b565b82525050565b60006020820190506114596000830184611435565b92915050565b6114688161142b565b811461147357600080fd5b50565b6000813590506114858161145f565b92915050565b6000602082840312156114a1576114a061139b565b5b60006114af84828501611476565b91505092915050565b600081519050919050565b600082825260208201905092915050565b6000819050602082019050919050565b6114ed8161142b565b82525050565b60006114ff83836114e4565b60208301905092915050565b6000602082019050919050565b6000611523826114b8565b61152d81856114c3565b9350611538836114d4565b8060005b8381101561156957815161155088826114f3565b975061155b8361150b565b92505060018101905061153c565b5085935050505092915050565b600060208201905081810360008301526115908184611518565b905092915050565b600080604083850312156115af576115ae61139b565b5b60006115bd85828601611476565b92505060206115ce85828601611476565b9150509250929050565b6115e1816113c0565b82525050565b60006020820190506115fc60008301846115d8565b92915050565b600081519050919050565b600082825260208201905092915050565b6000819050602082019050919050565b60008115159050919050565b6116438161162e565b82525050565b60808201600082015161165f60008501826114e4565b50602082015161167260208501826114e4565b50604082015161168560408501826114e4565b506060820151611698606085018261163a565b50505050565b60006116aa8383611649565b60808301905092915050565b6000602082019050919050565b60006116ce82611602565b6116d8818561160d565b93506116e38361161e565b8060005b838110156117145781516116fb888261169e565b9750611706836116b6565b9250506001810190506116e7565b5085935050505092915050565b6000604082019050818103600083015261173b8185611518565b9050818103602083015261174f81846116c3565b90509392505050565b6117618161162e565b82525050565b600060808201905061177c6000830187611435565b6117896020830186611435565b6117966040830185611435565b6117a36060830184611758565b95945050505050565b6000819050919050565b60006117d16117cc6117c7846113a0565b6117ac565b6113a0565b9050919050565b60006117e3826117b6565b9050919050565b60006117f5826117d8565b9050919050565b611805816117ea565b82525050565b600060208201905061182060008301846117fc565b92915050565b7f4e487b7100000000000000000000000000000000000000000000000000000000600052601160045260246000fd5b60006118608261142b565b91507fffffffffffffffffffffffffffffffffffffffffffffffffffffffffffffffff820361189257611891611826565b5b600182019050919050565b7f4e487b7100000000000000000000000000000000000000000000000000000000600052604160045260246000fd5b7f4e487b7100000000000000000000000000000000000000000000000000000000600052603260045260246000fd5b600082825260208201905092915050565b7f4e6f20616d6f756e74207374616b656400000000000000000000000000000000600082015250565b60006119426010836118fb565b915061194d8261190c565b602082019050919050565b6000602082019050818103600083015261197181611935565b9050919050565b600060408201905061198d60008301856115d8565b61199a6020830184611435565b9392505050565b6119aa8161162e565b81146119b557600080fd5b50565b6000815190506119c7816119a1565b92915050565b6000602082840312156119e3576119e261139b565b5b60006119f1848285016119b8565b91505092915050565b7f4d757374207374616b65206d6f7265207468616e207a65726f20746f6b656e73600082015250565b6000611a306020836118fb565b9150611a3b826119fa565b602082019050919050565b60006020820190508181036000830152611a5f81611a23565b9050919050565b600081519050611a758161145f565b92915050565b600060208284031215611a9157611a9061139b565b5b6000611a9f84828501611a66565b91505092915050565b7f4e6f7420456e6f7567682042616c616e636520546f6b656e7320546f2053746160008201527f6b65000000000000000000000000000000000000000000000000000000000000602082015250565b6000611b046022836118fb565b9150611b0f82611aa8565b604082019050919050565b60006020820190508181036000830152611b3381611af7565b9050919050565b7f54696d652063616e204f6e6c79206265206f6620322c342c362c382c3130204d60008201527f696e757465730000000000000000000000000000000000000000000000000000602082015250565b6000611b966026836118fb565b9150611ba182611b3a565b604082019050919050565b60006020820190508181036000830152611bc581611b89565b9050919050565b6000606082019050611be160008301866115d8565b611bee60208301856115d8565b611bfb6040830184611435565b949350505050565b7f4769766520617070726f76616c2066726f6d20696e697469616c20746f20737460008201527f616b650000000000000000000000000000000000000000000000000000000000602082015250565b6000611c5f6023836118fb565b9150611c6a82611c03565b604082019050919050565b60006020820190508181036000830152611c8e81611c52565b9050919050565b6000611ca08261142b565b9150611cab8361142b565b9250828201905080821115611cc357611cc2611826565b5b92915050565b6000611cd48261142b565b9150611cdf8361142b565b9250828202611ced8161142b565b91508282048414831517611d0457611d03611826565b5b5092915050565b7f596f7520686176656e2774207374616b656420616e7920616d6f756e74000000600082015250565b6000611d41601d836118fb565b9150611d4c82611d0b565b602082019050919050565b60006020820190508181036000830152611d7081611d34565b9050919050565b7f4e6f2072657761726420746f20636c61696d0000000000000000000000000000600082015250565b6000611dad6012836118fb565b9150611db882611d77565b602082019050919050565b60006020820190508181036000830152611ddc81611da0565b9050919050565b6000611dee8261142b565b9150611df98361142b565b9250828203905081811115611e1157611e10611826565b5b92915050565b7f4e487b7100000000000000000000000000000000000000000000000000000000600052601260045260246000fd5b6000611e518261142b565b9150611e5c8361142b565b925082611e6c57611e6b611e17565b5b82820490509291505056fea26469706673582212209311e20f64dedf64c3dda104de03a3da73175c0f824924cce00ff1c9e3659e1264736f6c63430008120033",
			"opcodes": "PUSH1 0x80 PUSH1 0x40 MSTORE PUSH1 0x1 PUSH1 0x3 SSTORE CALLVALUE DUP1 ISZERO PUSH3 0x16 JUMPI PUSH1 0x0 DUP1 REVERT JUMPDEST POP PUSH1 0x40 MLOAD PUSH3 0x201E CODESIZE SUB DUP1 PUSH3 0x201E DUP4 CODECOPY DUP2 DUP2 ADD PUSH1 0x40 MSTORE DUP2 ADD SWAP1 PUSH3 0x3C SWAP2 SWAP1 PUSH3 0x12F JUMP JUMPDEST DUP1 PUSH1 0x1 PUSH1 0x0 PUSH2 0x100 EXP DUP2 SLOAD DUP2 PUSH20 0xFFFFFFFFFFFFFFFFFFFFFFFFFFFFFFFFFFFFFFFF MUL NOT AND SWAP1 DUP4 PUSH20 0xFFFFFFFFFFFFFFFFFFFFFFFFFFFFFFFFFFFFFFFF AND MUL OR SWAP1 SSTORE POP CALLER PUSH1 0x2 PUSH1 0x0 PUSH2 0x100 EXP DUP2 SLOAD DUP2 PUSH20 0xFFFFFFFFFFFFFFFFFFFFFFFFFFFFFFFFFFFFFFFF MUL NOT AND SWAP1 DUP4 PUSH20 0xFFFFFFFFFFFFFFFFFFFFFFFFFFFFFFFFFFFFFFFF AND MUL OR SWAP1 SSTORE POP POP PUSH3 0x161 JUMP JUMPDEST PUSH1 0x0 DUP1 REVERT JUMPDEST PUSH1 0x0 PUSH20 0xFFFFFFFFFFFFFFFFFFFFFFFFFFFFFFFFFFFFFFFF DUP3 AND SWAP1 POP SWAP2 SWAP1 POP JUMP JUMPDEST PUSH1 0x0 PUSH3 0xF7 DUP3 PUSH3 0xCA JUMP JUMPDEST SWAP1 POP SWAP2 SWAP1 POP JUMP JUMPDEST PUSH3 0x109 DUP2 PUSH3 0xEA JUMP JUMPDEST DUP2 EQ PUSH3 0x115 JUMPI PUSH1 0x0 DUP1 REVERT JUMPDEST POP JUMP JUMPDEST PUSH1 0x0 DUP2 MLOAD SWAP1 POP PUSH3 0x129 DUP2 PUSH3 0xFE JUMP JUMPDEST SWAP3 SWAP2 POP POP JUMP JUMPDEST PUSH1 0x0 PUSH1 0x20 DUP3 DUP5 SUB SLT ISZERO PUSH3 0x148 JUMPI PUSH3 0x147 PUSH3 0xC5 JUMP JUMPDEST JUMPDEST PUSH1 0x0 PUSH3 0x158 DUP5 DUP3 DUP6 ADD PUSH3 0x118 JUMP JUMPDEST SWAP2 POP POP SWAP3 SWAP2 POP POP JUMP JUMPDEST PUSH2 0x1EAD DUP1 PUSH3 0x171 PUSH1 0x0 CODECOPY PUSH1 0x0 RETURN INVALID PUSH1 0x80 PUSH1 0x40 MSTORE CALLVALUE DUP1 ISZERO PUSH2 0x10 JUMPI PUSH1 0x0 DUP1 REVERT JUMPDEST POP PUSH1 0x4 CALLDATASIZE LT PUSH2 0xF5 JUMPI PUSH1 0x0 CALLDATALOAD PUSH1 0xE0 SHR DUP1 PUSH4 0x90EB2981 GT PUSH2 0x97 JUMPI DUP1 PUSH4 0xD5A44F86 GT PUSH2 0x66 JUMPI DUP1 PUSH4 0xD5A44F86 EQ PUSH2 0x2AD JUMPI DUP1 PUSH4 0xD80E8700 EQ PUSH2 0x2E0 JUMPI DUP1 PUSH4 0xF3A93E80 EQ PUSH2 0x2FE JUMPI DUP1 PUSH4 0xFC0C546A EQ PUSH2 0x31A JUMPI PUSH2 0xF5 JUMP JUMPDEST DUP1 PUSH4 0x90EB2981 EQ PUSH2 0x212 JUMPI DUP1 PUSH4 0xC392F766 EQ PUSH2 0x242 JUMPI DUP1 PUSH4 0xC9352971 EQ PUSH2 0x260 JUMPI DUP1 PUSH4 0xD279C191 EQ PUSH2 0x291 JUMPI PUSH2 0xF5 JUMP JUMPDEST DUP1 PUSH4 0x78317BE7 GT PUSH2 0xD3 JUMPI DUP1 PUSH4 0x78317BE7 EQ PUSH2 0x18A JUMPI DUP1 PUSH4 0x7B0472F0 EQ PUSH2 0x1A6 JUMPI DUP1 PUSH4 0x8B7AFE2E EQ PUSH2 0x1D6 JUMPI DUP1 PUSH4 0x8DA5CB5B EQ PUSH2 0x1F4 JUMPI PUSH2 0xF5 JUMP JUMPDEST DUP1 PUSH4 0x700037D EQ PUSH2 0xFA JUMPI DUP1 PUSH4 0xA42F049 EQ PUSH2 0x12A JUMPI DUP1 PUSH4 0x2671B0D8 EQ PUSH2 0x15A JUMPI JUMPDEST PUSH1 0x0 DUP1 REVERT JUMPDEST PUSH2 0x114 PUSH1 0x4 DUP1 CALLDATASIZE SUB DUP2 ADD SWAP1 PUSH2 0x10F SWAP2 SWAP1 PUSH2 0x13FE JUMP JUMPDEST PUSH2 0x338 JUMP JUMPDEST PUSH1 0x40 MLOAD PUSH2 0x121 SWAP2 SWAP1 PUSH2 0x1444 JUMP JUMPDEST PUSH1 0x40 MLOAD DUP1 SWAP2 SUB SWAP1 RETURN JUMPDEST PUSH2 0x144 PUSH1 0x4 DUP1 CALLDATASIZE SUB DUP2 ADD SWAP1 PUSH2 0x13F SWAP2 SWAP1 PUSH2 0x148B JUMP JUMPDEST PUSH2 0x350 JUMP JUMPDEST PUSH1 0x40 MLOAD PUSH2 0x151 SWAP2 SWAP1 PUSH2 0x1444 JUMP JUMPDEST PUSH1 0x40 MLOAD DUP1 SWAP2 SUB SWAP1 RETURN JUMPDEST PUSH2 0x174 PUSH1 0x4 DUP1 CALLDATASIZE SUB DUP2 ADD SWAP1 PUSH2 0x16F SWAP2 SWAP1 PUSH2 0x13FE JUMP JUMPDEST PUSH2 0x370 JUMP JUMPDEST PUSH1 0x40 MLOAD PUSH2 0x181 SWAP2 SWAP1 PUSH2 0x1576 JUMP JUMPDEST PUSH1 0x40 MLOAD DUP1 SWAP2 SUB SWAP1 RETURN JUMPDEST PUSH2 0x1A4 PUSH1 0x4 DUP1 CALLDATASIZE SUB DUP2 ADD SWAP1 PUSH2 0x19F SWAP2 SWAP1 PUSH2 0x13FE JUMP JUMPDEST PUSH2 0x524 JUMP JUMPDEST STOP JUMPDEST PUSH2 0x1C0 PUSH1 0x4 DUP1 CALLDATASIZE SUB DUP2 ADD SWAP1 PUSH2 0x1BB SWAP2 SWAP1 PUSH2 0x1598 JUMP JUMPDEST PUSH2 0x72C JUMP JUMPDEST PUSH1 0x40 MLOAD PUSH2 0x1CD SWAP2 SWAP1 PUSH2 0x1444 JUMP JUMPDEST PUSH1 0x40 MLOAD DUP1 SWAP2 SUB SWAP1 RETURN JUMPDEST PUSH2 0x1DE PUSH2 0xADE JUMP JUMPDEST PUSH1 0x40 MLOAD PUSH2 0x1EB SWAP2 SWAP1 PUSH2 0x1444 JUMP JUMPDEST PUSH1 0x40 MLOAD DUP1 SWAP2 SUB SWAP1 RETURN JUMPDEST PUSH2 0x1FC PUSH2 0xB81 JUMP JUMPDEST PUSH1 0x40 MLOAD PUSH2 0x209 SWAP2 SWAP1 PUSH2 0x15E7 JUMP JUMPDEST PUSH1 0x40 MLOAD DUP1 SWAP2 SUB SWAP1 RETURN JUMPDEST PUSH2 0x22C PUSH1 0x4 DUP1 CALLDATASIZE SUB DUP2 ADD SWAP1 PUSH2 0x227 SWAP2 SWAP1 PUSH2 0x148B JUMP JUMPDEST PUSH2 0xBA7 JUMP JUMPDEST PUSH1 0x40 MLOAD PUSH2 0x239 SWAP2 SWAP1 PUSH2 0x15E7 JUMP JUMPDEST PUSH1 0x40 MLOAD DUP1 SWAP2 SUB SWAP1 RETURN JUMPDEST PUSH2 0x24A PUSH2 0xBDA JUMP JUMPDEST PUSH1 0x40 MLOAD PUSH2 0x257 SWAP2 SWAP1 PUSH2 0x1444 JUMP JUMPDEST PUSH1 0x40 MLOAD DUP1 SWAP2 SUB SWAP1 RETURN JUMPDEST PUSH2 0x27A PUSH1 0x4 DUP1 CALLDATASIZE SUB DUP2 ADD SWAP1 PUSH2 0x275 SWAP2 SWAP1 PUSH2 0x13FE JUMP JUMPDEST PUSH2 0xBE0 JUMP JUMPDEST PUSH1 0x40 MLOAD PUSH2 0x288 SWAP3 SWAP2 SWAP1 PUSH2 0x1721 JUMP JUMPDEST PUSH1 0x40 MLOAD DUP1 SWAP2 SUB SWAP1 RETURN JUMPDEST PUSH2 0x2AB PUSH1 0x4 DUP1 CALLDATASIZE SUB DUP2 ADD SWAP1 PUSH2 0x2A6 SWAP2 SWAP1 PUSH2 0x13FE JUMP JUMPDEST PUSH2 0xE6D JUMP JUMPDEST STOP JUMPDEST PUSH2 0x2C7 PUSH1 0x4 DUP1 CALLDATASIZE SUB DUP2 ADD SWAP1 PUSH2 0x2C2 SWAP2 SWAP1 PUSH2 0x148B JUMP JUMPDEST PUSH2 0x10EF JUMP JUMPDEST PUSH1 0x40 MLOAD PUSH2 0x2D7 SWAP5 SWAP4 SWAP3 SWAP2 SWAP1 PUSH2 0x1767 JUMP JUMPDEST PUSH1 0x40 MLOAD DUP1 SWAP2 SUB SWAP1 RETURN JUMPDEST PUSH2 0x2E8 PUSH2 0x112C JUMP JUMPDEST PUSH1 0x40 MLOAD PUSH2 0x2F5 SWAP2 SWAP1 PUSH2 0x1444 JUMP JUMPDEST PUSH1 0x40 MLOAD DUP1 SWAP2 SUB SWAP1 RETURN JUMPDEST PUSH2 0x318 PUSH1 0x4 DUP1 CALLDATASIZE SUB DUP2 ADD SWAP1 PUSH2 0x313 SWAP2 SWAP1 PUSH2 0x148B JUMP JUMPDEST PUSH2 0x1134 JUMP JUMPDEST STOP JUMPDEST PUSH2 0x322 PUSH2 0x130E JUMP JUMPDEST PUSH1 0x40 MLOAD PUSH2 0x32F SWAP2 SWAP1 PUSH2 0x180B JUMP JUMPDEST PUSH1 0x40 MLOAD DUP1 SWAP2 SUB SWAP1 RETURN JUMPDEST PUSH1 0x6 PUSH1 0x20 MSTORE DUP1 PUSH1 0x0 MSTORE PUSH1 0x40 PUSH1 0x0 KECCAK256 PUSH1 0x0 SWAP2 POP SWAP1 POP SLOAD DUP2 JUMP JUMPDEST PUSH1 0x0 PUSH1 0x5 PUSH1 0x0 DUP4 DUP2 MSTORE PUSH1 0x20 ADD SWAP1 DUP2 MSTORE PUSH1 0x20 ADD PUSH1 0x0 KECCAK256 PUSH1 0x1 ADD SLOAD SWAP1 POP SWAP2 SWAP1 POP JUMP JUMPDEST PUSH1 0x60 PUSH1 0x0 DUP1 JUMPDEST PUSH2 0x380 PUSH1 0x0 PUSH2 0x1334 JUMP JUMPDEST DUP2 GT PUSH2 0x40E JUMPI DUP4 PUSH20 0xFFFFFFFFFFFFFFFFFFFFFFFFFFFFFFFFFFFFFFFF AND PUSH1 0x4 PUSH1 0x0 DUP4 DUP2 MSTORE PUSH1 0x20 ADD SWAP1 DUP2 MSTORE PUSH1 0x20 ADD PUSH1 0x0 KECCAK256 PUSH1 0x0 SWAP1 SLOAD SWAP1 PUSH2 0x100 EXP SWAP1 DIV PUSH20 0xFFFFFFFFFFFFFFFFFFFFFFFFFFFFFFFFFFFFFFFF AND PUSH20 0xFFFFFFFFFFFFFFFFFFFFFFFFFFFFFFFFFFFFFFFF AND SUB PUSH2 0x3FB JUMPI DUP2 DUP1 PUSH2 0x3F7 SWAP1 PUSH2 0x1855 JUMP JUMPDEST SWAP3 POP POP JUMPDEST DUP1 DUP1 PUSH2 0x406 SWAP1 PUSH2 0x1855 JUMP JUMPDEST SWAP2 POP POP PUSH2 0x376 JUMP JUMPDEST POP PUSH1 0x0 DUP2 PUSH8 0xFFFFFFFFFFFFFFFF DUP2 GT ISZERO PUSH2 0x42B JUMPI PUSH2 0x42A PUSH2 0x189D JUMP JUMPDEST JUMPDEST PUSH1 0x40 MLOAD SWAP1 DUP1 DUP3 MSTORE DUP1 PUSH1 0x20 MUL PUSH1 0x20 ADD DUP3 ADD PUSH1 0x40 MSTORE DUP1 ISZERO PUSH2 0x459 JUMPI DUP2 PUSH1 0x20 ADD PUSH1 0x20 DUP3 MUL DUP1 CALLDATASIZE DUP4 CALLDATACOPY DUP1 DUP3 ADD SWAP2 POP POP SWAP1 POP JUMPDEST POP SWAP1 POP PUSH1 0x0 DUP1 JUMPDEST PUSH2 0x46A PUSH1 0x0 PUSH2 0x1334 JUMP JUMPDEST DUP2 GT PUSH2 0x518 JUMPI DUP6 PUSH20 0xFFFFFFFFFFFFFFFFFFFFFFFFFFFFFFFFFFFFFFFF AND PUSH1 0x4 PUSH1 0x0 DUP4 DUP2 MSTORE PUSH1 0x20 ADD SWAP1 DUP2 MSTORE PUSH1 0x20 ADD PUSH1 0x0 KECCAK256 PUSH1 0x0 SWAP1 SLOAD SWAP1 PUSH2 0x100 EXP SWAP1 DIV PUSH20 0xFFFFFFFFFFFFFFFFFFFFFFFFFFFFFFFFFFFFFFFF AND PUSH20 0xFFFFFFFFFFFFFFFFFFFFFFFFFFFFFFFFFFFFFFFF AND SUB PUSH2 0x505 JUMPI DUP1 DUP4 DUP4 DUP2 MLOAD DUP2 LT PUSH2 0x4EA JUMPI PUSH2 0x4E9 PUSH2 0x18CC JUMP JUMPDEST JUMPDEST PUSH1 0x20 MUL PUSH1 0x20 ADD ADD DUP2 DUP2 MSTORE POP POP DUP2 DUP1 PUSH2 0x501 SWAP1 PUSH2 0x1855 JUMP JUMPDEST SWAP3 POP POP JUMPDEST DUP1 DUP1 PUSH2 0x510 SWAP1 PUSH2 0x1855 JUMP JUMPDEST SWAP2 POP POP PUSH2 0x460 JUMP JUMPDEST POP DUP2 SWAP4 POP POP POP POP SWAP2 SWAP1 POP JUMP JUMPDEST PUSH1 0x0 PUSH2 0x52F DUP3 PUSH2 0x370 JUMP JUMPDEST SWAP1 POP PUSH1 0x0 DUP2 MLOAD GT PUSH2 0x575 JUMPI PUSH1 0x40 MLOAD PUSH32 0x8C379A000000000000000000000000000000000000000000000000000000000 DUP2 MSTORE PUSH1 0x4 ADD PUSH2 0x56C SWAP1 PUSH2 0x1958 JUMP JUMPDEST PUSH1 0x40 MLOAD DUP1 SWAP2 SUB SWAP1 REVERT JUMPDEST PUSH1 0x0 JUMPDEST DUP2 MLOAD DUP2 LT ISZERO PUSH2 0x727 JUMPI PUSH1 0x5 PUSH1 0x0 DUP4 DUP4 DUP2 MLOAD DUP2 LT PUSH2 0x598 JUMPI PUSH2 0x597 PUSH2 0x18CC JUMP JUMPDEST JUMPDEST PUSH1 0x20 MUL PUSH1 0x20 ADD ADD MLOAD DUP2 MSTORE PUSH1 0x20 ADD SWAP1 DUP2 MSTORE PUSH1 0x20 ADD PUSH1 0x0 KECCAK256 PUSH1 0x3 ADD PUSH1 0x0 SWAP1 SLOAD SWAP1 PUSH2 0x100 EXP SWAP1 DIV PUSH1 0xFF AND PUSH2 0x714 JUMPI PUSH1 0x1 PUSH1 0x0 SWAP1 SLOAD SWAP1 PUSH2 0x100 EXP SWAP1 DIV PUSH20 0xFFFFFFFFFFFFFFFFFFFFFFFFFFFFFFFFFFFFFFFF AND PUSH20 0xFFFFFFFFFFFFFFFFFFFFFFFFFFFFFFFFFFFFFFFF AND PUSH4 0xA9059CBB CALLER PUSH1 0x5 PUSH1 0x0 DUP7 DUP7 DUP2 MLOAD DUP2 LT PUSH2 0x619 JUMPI PUSH2 0x618 PUSH2 0x18CC JUMP JUMPDEST JUMPDEST PUSH1 0x20 MUL PUSH1 0x20 ADD ADD MLOAD DUP2 MSTORE PUSH1 0x20 ADD SWAP1 DUP2 MSTORE PUSH1 0x20 ADD PUSH1 0x0 KECCAK256 PUSH1 0x0 ADD SLOAD PUSH1 0x40 MLOAD DUP4 PUSH4 0xFFFFFFFF AND PUSH1 0xE0 SHL DUP2 MSTORE PUSH1 0x4 ADD PUSH2 0x650 SWAP3 SWAP2 SWAP1 PUSH2 0x1978 JUMP JUMPDEST PUSH1 0x20 PUSH1 0x40 MLOAD DUP1 DUP4 SUB DUP2 PUSH1 0x0 DUP8 GAS CALL ISZERO DUP1 ISZERO PUSH2 0x66F JUMPI RETURNDATASIZE PUSH1 0x0 DUP1 RETURNDATACOPY RETURNDATASIZE PUSH1 0x0 REVERT JUMPDEST POP POP POP POP PUSH1 0x40 MLOAD RETURNDATASIZE PUSH1 0x1F NOT PUSH1 0x1F DUP3 ADD AND DUP3 ADD DUP1 PUSH1 0x40 MSTORE POP DUP2 ADD SWAP1 PUSH2 0x693 SWAP2 SWAP1 PUSH2 0x19CD JUMP JUMPDEST POP PUSH1 0x0 PUSH1 0x5 PUSH1 0x0 DUP5 DUP5 DUP2 MLOAD DUP2 LT PUSH2 0x6AD JUMPI PUSH2 0x6AC PUSH2 0x18CC JUMP JUMPDEST JUMPDEST PUSH1 0x20 MUL PUSH1 0x20 ADD ADD MLOAD DUP2 MSTORE PUSH1 0x20 ADD SWAP1 DUP2 MSTORE PUSH1 0x20 ADD PUSH1 0x0 KECCAK256 PUSH1 0x0 ADD DUP2 SWAP1 SSTORE POP PUSH1 0x1 PUSH1 0x5 PUSH1 0x0 DUP5 DUP5 DUP2 MLOAD DUP2 LT PUSH2 0x6E3 JUMPI PUSH2 0x6E2 PUSH2 0x18CC JUMP JUMPDEST JUMPDEST PUSH1 0x20 MUL PUSH1 0x20 ADD ADD MLOAD DUP2 MSTORE PUSH1 0x20 ADD SWAP1 DUP2 MSTORE PUSH1 0x20 ADD PUSH1 0x0 KECCAK256 PUSH1 0x3 ADD PUSH1 0x0 PUSH2 0x100 EXP DUP2 SLOAD DUP2 PUSH1 0xFF MUL NOT AND SWAP1 DUP4 ISZERO ISZERO MUL OR SWAP1 SSTORE POP JUMPDEST DUP1 DUP1 PUSH2 0x71F SWAP1 PUSH2 0x1855 JUMP JUMPDEST SWAP2 POP POP PUSH2 0x578 JUMP JUMPDEST POP POP POP JUMP JUMPDEST PUSH1 0x0 PUSH2 0x738 PUSH1 0x0 PUSH2 0x1342 JUMP JUMPDEST PUSH1 0x0 DUP4 GT PUSH2 0x77B JUMPI PUSH1 0x40 MLOAD PUSH32 0x8C379A000000000000000000000000000000000000000000000000000000000 DUP2 MSTORE PUSH1 0x4 ADD PUSH2 0x772 SWAP1 PUSH2 0x1A46 JUMP JUMPDEST PUSH1 0x40 MLOAD DUP1 SWAP2 SUB SWAP1 REVERT JUMPDEST DUP3 PUSH1 0x1 PUSH1 0x0 SWAP1 SLOAD SWAP1 PUSH2 0x100 EXP SWAP1 DIV PUSH20 0xFFFFFFFFFFFFFFFFFFFFFFFFFFFFFFFFFFFFFFFF AND PUSH20 0xFFFFFFFFFFFFFFFFFFFFFFFFFFFFFFFFFFFFFFFF AND PUSH4 0x70A08231 CALLER PUSH1 0x40 MLOAD DUP3 PUSH4 0xFFFFFFFF AND PUSH1 0xE0 SHL DUP2 MSTORE PUSH1 0x4 ADD PUSH2 0x7D7 SWAP2 SWAP1 PUSH2 0x15E7 JUMP JUMPDEST PUSH1 0x20 PUSH1 0x40 MLOAD DUP1 DUP4 SUB DUP2 DUP7 GAS STATICCALL ISZERO DUP1 ISZERO PUSH2 0x7F4 JUMPI RETURNDATASIZE PUSH1 0x0 DUP1 RETURNDATACOPY RETURNDATASIZE PUSH1 0x0 REVERT JUMPDEST POP POP POP POP PUSH1 0x40 MLOAD RETURNDATASIZE PUSH1 0x1F NOT PUSH1 0x1F DUP3 ADD AND DUP3 ADD DUP1 PUSH1 0x40 MSTORE POP DUP2 ADD SWAP1 PUSH2 0x818 SWAP2 SWAP1 PUSH2 0x1A7B JUMP JUMPDEST LT ISZERO PUSH2 0x859 JUMPI PUSH1 0x40 MLOAD PUSH32 0x8C379A000000000000000000000000000000000000000000000000000000000 DUP2 MSTORE PUSH1 0x4 ADD PUSH2 0x850 SWAP1 PUSH2 0x1B1A JUMP JUMPDEST PUSH1 0x40 MLOAD DUP1 SWAP2 SUB SWAP1 REVERT JUMPDEST PUSH1 0x2 DUP3 EQ DUP1 PUSH2 0x868 JUMPI POP PUSH1 0x4 DUP3 EQ JUMPDEST DUP1 PUSH2 0x873 JUMPI POP PUSH1 0x6 DUP3 EQ JUMPDEST DUP1 PUSH2 0x87E JUMPI POP PUSH1 0x8 DUP3 EQ JUMPDEST DUP1 PUSH2 0x889 JUMPI POP PUSH1 0xA DUP3 EQ JUMPDEST PUSH2 0x8C8 JUMPI PUSH1 0x40 MLOAD PUSH32 0x8C379A000000000000000000000000000000000000000000000000000000000 DUP2 MSTORE PUSH1 0x4 ADD PUSH2 0x8BF SWAP1 PUSH2 0x1BAC JUMP JUMPDEST PUSH1 0x40 MLOAD DUP1 SWAP2 SUB SWAP1 REVERT JUMPDEST PUSH1 0x0 TIMESTAMP SWAP1 POP CALLER PUSH1 0x4 PUSH1 0x0 PUSH2 0x8DC PUSH1 0x0 PUSH2 0x1334 JUMP JUMPDEST DUP2 MSTORE PUSH1 0x20 ADD SWAP1 DUP2 MSTORE PUSH1 0x20 ADD PUSH1 0x0 KECCAK256 PUSH1 0x0 PUSH2 0x100 EXP DUP2 SLOAD DUP2 PUSH20 0xFFFFFFFFFFFFFFFFFFFFFFFFFFFFFFFFFFFFFFFF MUL NOT AND SWAP1 DUP4 PUSH20 0xFFFFFFFFFFFFFFFFFFFFFFFFFFFFFFFFFFFFFFFF AND MUL OR SWAP1 SSTORE POP PUSH1 0x1 PUSH1 0x0 SWAP1 SLOAD SWAP1 PUSH2 0x100 EXP SWAP1 DIV PUSH20 0xFFFFFFFFFFFFFFFFFFFFFFFFFFFFFFFFFFFFFFFF AND PUSH20 0xFFFFFFFFFFFFFFFFFFFFFFFFFFFFFFFFFFFFFFFF AND PUSH4 0x23B872DD CALLER ADDRESS DUP8 PUSH1 0x40 MLOAD DUP5 PUSH4 0xFFFFFFFF AND PUSH1 0xE0 SHL DUP2 MSTORE PUSH1 0x4 ADD PUSH2 0x987 SWAP4 SWAP3 SWAP2 SWAP1 PUSH2 0x1BCC JUMP JUMPDEST PUSH1 0x20 PUSH1 0x40 MLOAD DUP1 DUP4 SUB DUP2 PUSH1 0x0 DUP8 GAS CALL ISZERO DUP1 ISZERO PUSH2 0x9A6 JUMPI RETURNDATASIZE PUSH1 0x0 DUP1 RETURNDATACOPY RETURNDATASIZE PUSH1 0x0 REVERT JUMPDEST POP POP POP POP PUSH1 0x40 MLOAD RETURNDATASIZE PUSH1 0x1F NOT PUSH1 0x1F DUP3 ADD AND DUP3 ADD DUP1 PUSH1 0x40 MSTORE POP DUP2 ADD SWAP1 PUSH2 0x9CA SWAP2 SWAP1 PUSH2 0x19CD JUMP JUMPDEST PUSH2 0xA09 JUMPI PUSH1 0x40 MLOAD PUSH32 0x8C379A000000000000000000000000000000000000000000000000000000000 DUP2 MSTORE PUSH1 0x4 ADD PUSH2 0xA00 SWAP1 PUSH2 0x1C75 JUMP JUMPDEST PUSH1 0x40 MLOAD DUP1 SWAP2 SUB SWAP1 REVERT JUMPDEST DUP4 PUSH1 0x5 PUSH1 0x0 PUSH2 0xA18 PUSH1 0x0 PUSH2 0x1334 JUMP JUMPDEST DUP2 MSTORE PUSH1 0x20 ADD SWAP1 DUP2 MSTORE PUSH1 0x20 ADD PUSH1 0x0 KECCAK256 PUSH1 0x0 ADD PUSH1 0x0 DUP3 DUP3 SLOAD PUSH2 0xA38 SWAP2 SWAP1 PUSH2 0x1C95 JUMP JUMPDEST SWAP3 POP POP DUP2 SWAP1 SSTORE POP DUP1 PUSH1 0x5 PUSH1 0x0 PUSH2 0xA4E PUSH1 0x0 PUSH2 0x1334 JUMP JUMPDEST DUP2 MSTORE PUSH1 0x20 ADD SWAP1 DUP2 MSTORE PUSH1 0x20 ADD PUSH1 0x0 KECCAK256 PUSH1 0x1 ADD DUP2 SWAP1 SSTORE POP PUSH1 0x3C DUP4 PUSH2 0xA70 SWAP2 SWAP1 PUSH2 0x1CC9 JUMP JUMPDEST PUSH1 0x5 PUSH1 0x0 PUSH2 0xA7E PUSH1 0x0 PUSH2 0x1334 JUMP JUMPDEST DUP2 MSTORE PUSH1 0x20 ADD SWAP1 DUP2 MSTORE PUSH1 0x20 ADD PUSH1 0x0 KECCAK256 PUSH1 0x2 ADD DUP2 SWAP1 SSTORE POP PUSH1 0x0 PUSH1 0x5 PUSH1 0x0 PUSH2 0xAA3 PUSH1 0x0 PUSH2 0x1334 JUMP JUMPDEST DUP2 MSTORE PUSH1 0x20 ADD SWAP1 DUP2 MSTORE PUSH1 0x20 ADD PUSH1 0x0 KECCAK256 PUSH1 0x3 ADD PUSH1 0x0 PUSH2 0x100 EXP DUP2 SLOAD DUP2 PUSH1 0xFF MUL NOT AND SWAP1 DUP4 ISZERO ISZERO MUL OR SWAP1 SSTORE POP PUSH2 0xAD5 PUSH1 0x0 PUSH2 0x1334 JUMP JUMPDEST SWAP2 POP POP SWAP3 SWAP2 POP POP JUMP JUMPDEST PUSH1 0x0 PUSH1 0x1 PUSH1 0x0 SWAP1 SLOAD SWAP1 PUSH2 0x100 EXP SWAP1 DIV PUSH20 0xFFFFFFFFFFFFFFFFFFFFFFFFFFFFFFFFFFFFFFFF AND PUSH20 0xFFFFFFFFFFFFFFFFFFFFFFFFFFFFFFFFFFFFFFFF AND PUSH4 0x70A08231 ADDRESS PUSH1 0x40 MLOAD DUP3 PUSH4 0xFFFFFFFF AND PUSH1 0xE0 SHL DUP2 MSTORE PUSH1 0x4 ADD PUSH2 0xB3B SWAP2 SWAP1 PUSH2 0x15E7 JUMP JUMPDEST PUSH1 0x20 PUSH1 0x40 MLOAD DUP1 DUP4 SUB DUP2 DUP7 GAS STATICCALL ISZERO DUP1 ISZERO PUSH2 0xB58 JUMPI RETURNDATASIZE PUSH1 0x0 DUP1 RETURNDATACOPY RETURNDATASIZE PUSH1 0x0 REVERT JUMPDEST POP POP POP POP PUSH1 0x40 MLOAD RETURNDATASIZE PUSH1 0x1F NOT PUSH1 0x1F DUP3 ADD AND DUP3 ADD DUP1 PUSH1 0x40 MSTORE POP DUP2 ADD SWAP1 PUSH2 0xB7C SWAP2 SWAP1 PUSH2 0x1A7B JUMP JUMPDEST SWAP1 POP SWAP1 JUMP JUMPDEST PUSH1 0x2 PUSH1 0x0 SWAP1 SLOAD SWAP1 PUSH2 0x100 EXP SWAP1 DIV PUSH20 0xFFFFFFFFFFFFFFFFFFFFFFFFFFFFFFFFFFFFFFFF AND DUP2 JUMP JUMPDEST PUSH1 0x4 PUSH1 0x20 MSTORE DUP1 PUSH1 0x0 MSTORE PUSH1 0x40 PUSH1 0x0 KECCAK256 PUSH1 0x0 SWAP2 POP SLOAD SWAP1 PUSH2 0x100 EXP SWAP1 DIV PUSH20 0xFFFFFFFFFFFFFFFFFFFFFFFFFFFFFFFFFFFFFFFF AND DUP2 JUMP JUMPDEST PUSH1 0x3 SLOAD DUP2 JUMP JUMPDEST PUSH1 0x60 DUP1 PUSH1 0x0 DUP1 JUMPDEST PUSH2 0xBF1 PUSH1 0x0 PUSH2 0x1334 JUMP JUMPDEST DUP2 GT PUSH2 0xC7F JUMPI DUP5 PUSH20 0xFFFFFFFFFFFFFFFFFFFFFFFFFFFFFFFFFFFFFFFF AND PUSH1 0x4 PUSH1 0x0 DUP4 DUP2 MSTORE PUSH1 0x20 ADD SWAP1 DUP2 MSTORE PUSH1 0x20 ADD PUSH1 0x0 KECCAK256 PUSH1 0x0 SWAP1 SLOAD SWAP1 PUSH2 0x100 EXP SWAP1 DIV PUSH20 0xFFFFFFFFFFFFFFFFFFFFFFFFFFFFFFFFFFFFFFFF AND PUSH20 0xFFFFFFFFFFFFFFFFFFFFFFFFFFFFFFFFFFFFFFFF AND SUB PUSH2 0xC6C JUMPI DUP2 DUP1 PUSH2 0xC68 SWAP1 PUSH2 0x1855 JUMP JUMPDEST SWAP3 POP POP JUMPDEST DUP1 DUP1 PUSH2 0xC77 SWAP1 PUSH2 0x1855 JUMP JUMPDEST SWAP2 POP POP PUSH2 0xBE7 JUMP JUMPDEST POP PUSH1 0x0 DUP2 PUSH8 0xFFFFFFFFFFFFFFFF DUP2 GT ISZERO PUSH2 0xC9C JUMPI PUSH2 0xC9B PUSH2 0x189D JUMP JUMPDEST JUMPDEST PUSH1 0x40 MLOAD SWAP1 DUP1 DUP3 MSTORE DUP1 PUSH1 0x20 MUL PUSH1 0x20 ADD DUP3 ADD PUSH1 0x40 MSTORE DUP1 ISZERO PUSH2 0xCD5 JUMPI DUP2 PUSH1 0x20 ADD JUMPDEST PUSH2 0xCC2 PUSH2 0x1371 JUMP JUMPDEST DUP2 MSTORE PUSH1 0x20 ADD SWAP1 PUSH1 0x1 SWAP1 SUB SWAP1 DUP2 PUSH2 0xCBA JUMPI SWAP1 POP JUMPDEST POP SWAP1 POP PUSH1 0x0 DUP3 PUSH8 0xFFFFFFFFFFFFFFFF DUP2 GT ISZERO PUSH2 0xCF4 JUMPI PUSH2 0xCF3 PUSH2 0x189D JUMP JUMPDEST JUMPDEST PUSH1 0x40 MLOAD SWAP1 DUP1 DUP3 MSTORE DUP1 PUSH1 0x20 MUL PUSH1 0x20 ADD DUP3 ADD PUSH1 0x40 MSTORE DUP1 ISZERO PUSH2 0xD22 JUMPI DUP2 PUSH1 0x20 ADD PUSH1 0x20 DUP3 MUL DUP1 CALLDATASIZE DUP4 CALLDATACOPY DUP1 DUP3 ADD SWAP2 POP POP SWAP1 POP JUMPDEST POP SWAP1 POP PUSH1 0x0 DUP1 JUMPDEST PUSH2 0xD33 PUSH1 0x0 PUSH2 0x1334 JUMP JUMPDEST DUP2 GT PUSH2 0xE5D JUMPI DUP8 PUSH20 0xFFFFFFFFFFFFFFFFFFFFFFFFFFFFFFFFFFFFFFFF AND PUSH1 0x4 PUSH1 0x0 DUP4 DUP2 MSTORE PUSH1 0x20 ADD SWAP1 DUP2 MSTORE PUSH1 0x20 ADD PUSH1 0x0 KECCAK256 PUSH1 0x0 SWAP1 SLOAD SWAP1 PUSH2 0x100 EXP SWAP1 DIV PUSH20 0xFFFFFFFFFFFFFFFFFFFFFFFFFFFFFFFFFFFFFFFF AND PUSH20 0xFFFFFFFFFFFFFFFFFFFFFFFFFFFFFFFFFFFFFFFF AND SUB PUSH2 0xE43 JUMPI PUSH1 0x5 PUSH1 0x0 DUP3 DUP2 MSTORE PUSH1 0x20 ADD SWAP1 DUP2 MSTORE PUSH1 0x20 ADD PUSH1 0x0 KECCAK256 PUSH1 0x40 MLOAD DUP1 PUSH1 0x80 ADD PUSH1 0x40 MSTORE SWAP1 DUP2 PUSH1 0x0 DUP3 ADD SLOAD DUP2 MSTORE PUSH1 0x20 ADD PUSH1 0x1 DUP3 ADD SLOAD DUP2 MSTORE PUSH1 0x20 ADD PUSH1 0x2 DUP3 ADD SLOAD DUP2 MSTORE PUSH1 0x20 ADD PUSH1 0x3 DUP3 ADD PUSH1 0x0 SWAP1 SLOAD SWAP1 PUSH2 0x100 EXP SWAP1 DIV PUSH1 0xFF AND ISZERO ISZERO ISZERO ISZERO DUP2 MSTORE POP POP DUP5 DUP4 DUP2 MLOAD DUP2 LT PUSH2 0xE09 JUMPI PUSH2 0xE08 PUSH2 0x18CC JUMP JUMPDEST JUMPDEST PUSH1 0x20 MUL PUSH1 0x20 ADD ADD DUP2 SWAP1 MSTORE POP DUP1 DUP4 DUP4 DUP2 MLOAD DUP2 LT PUSH2 0xE28 JUMPI PUSH2 0xE27 PUSH2 0x18CC JUMP JUMPDEST JUMPDEST PUSH1 0x20 MUL PUSH1 0x20 ADD ADD DUP2 DUP2 MSTORE POP POP DUP2 DUP1 PUSH2 0xE3F SWAP1 PUSH2 0x1855 JUMP JUMPDEST SWAP3 POP POP JUMPDEST DUP5 DUP3 GT PUSH2 0xE5D JUMPI DUP1 DUP1 PUSH2 0xE55 SWAP1 PUSH2 0x1855 JUMP JUMPDEST SWAP2 POP POP PUSH2 0xD29 JUMP JUMPDEST POP DUP2 DUP4 SWAP6 POP SWAP6 POP POP POP POP POP SWAP2 POP SWAP2 JUMP JUMPDEST PUSH1 0x0 PUSH2 0xE78 DUP3 PUSH2 0x370 JUMP JUMPDEST SWAP1 POP PUSH1 0x0 DUP2 MLOAD GT PUSH2 0xEBE JUMPI PUSH1 0x40 MLOAD PUSH32 0x8C379A000000000000000000000000000000000000000000000000000000000 DUP2 MSTORE PUSH1 0x4 ADD PUSH2 0xEB5 SWAP1 PUSH2 0x1D57 JUMP JUMPDEST PUSH1 0x40 MLOAD DUP1 SWAP2 SUB SWAP1 REVERT JUMPDEST PUSH1 0x0 JUMPDEST DUP2 MLOAD DUP2 LT ISZERO PUSH2 0xF43 JUMPI PUSH1 0x5 PUSH1 0x0 DUP4 DUP4 DUP2 MLOAD DUP2 LT PUSH2 0xEE1 JUMPI PUSH2 0xEE0 PUSH2 0x18CC JUMP JUMPDEST JUMPDEST PUSH1 0x20 MUL PUSH1 0x20 ADD ADD MLOAD DUP2 MSTORE PUSH1 0x20 ADD SWAP1 DUP2 MSTORE PUSH1 0x20 ADD PUSH1 0x0 KECCAK256 PUSH1 0x3 ADD PUSH1 0x0 SWAP1 SLOAD SWAP1 PUSH2 0x100 EXP SWAP1 DIV PUSH1 0xFF AND PUSH2 0xF30 JUMPI PUSH2 0xF2F DUP3 DUP3 DUP2 MLOAD DUP2 LT PUSH2 0xF22 JUMPI PUSH2 0xF21 PUSH2 0x18CC JUMP JUMPDEST JUMPDEST PUSH1 0x20 MUL PUSH1 0x20 ADD ADD MLOAD PUSH2 0x1134 JUMP JUMPDEST JUMPDEST DUP1 DUP1 PUSH2 0xF3B SWAP1 PUSH2 0x1855 JUMP JUMPDEST SWAP2 POP POP PUSH2 0xEC1 JUMP JUMPDEST POP PUSH1 0x0 PUSH1 0x6 PUSH1 0x0 DUP5 PUSH20 0xFFFFFFFFFFFFFFFFFFFFFFFFFFFFFFFFFFFFFFFF AND PUSH20 0xFFFFFFFFFFFFFFFFFFFFFFFFFFFFFFFFFFFFFFFF AND DUP2 MSTORE PUSH1 0x20 ADD SWAP1 DUP2 MSTORE PUSH1 0x20 ADD PUSH1 0x0 KECCAK256 SLOAD GT PUSH2 0xFC6 JUMPI PUSH1 0x40 MLOAD PUSH32 0x8C379A000000000000000000000000000000000000000000000000000000000 DUP2 MSTORE PUSH1 0x4 ADD PUSH2 0xFBD SWAP1 PUSH2 0x1DC3 JUMP JUMPDEST PUSH1 0x40 MLOAD DUP1 SWAP2 SUB SWAP1 REVERT JUMPDEST PUSH1 0x1 PUSH1 0x0 SWAP1 SLOAD SWAP1 PUSH2 0x100 EXP SWAP1 DIV PUSH20 0xFFFFFFFFFFFFFFFFFFFFFFFFFFFFFFFFFFFFFFFF AND PUSH20 0xFFFFFFFFFFFFFFFFFFFFFFFFFFFFFFFFFFFFFFFF AND PUSH4 0xA9059CBB CALLER PUSH1 0x6 PUSH1 0x0 DUP7 PUSH20 0xFFFFFFFFFFFFFFFFFFFFFFFFFFFFFFFFFFFFFFFF AND PUSH20 0xFFFFFFFFFFFFFFFFFFFFFFFFFFFFFFFFFFFFFFFF AND DUP2 MSTORE PUSH1 0x20 ADD SWAP1 DUP2 MSTORE PUSH1 0x20 ADD PUSH1 0x0 KECCAK256 SLOAD PUSH1 0x40 MLOAD DUP4 PUSH4 0xFFFFFFFF AND PUSH1 0xE0 SHL DUP2 MSTORE PUSH1 0x4 ADD PUSH2 0x1062 SWAP3 SWAP2 SWAP1 PUSH2 0x1978 JUMP JUMPDEST PUSH1 0x20 PUSH1 0x40 MLOAD DUP1 DUP4 SUB DUP2 PUSH1 0x0 DUP8 GAS CALL ISZERO DUP1 ISZERO PUSH2 0x1081 JUMPI RETURNDATASIZE PUSH1 0x0 DUP1 RETURNDATACOPY RETURNDATASIZE PUSH1 0x0 REVERT JUMPDEST POP POP POP POP PUSH1 0x40 MLOAD RETURNDATASIZE PUSH1 0x1F NOT PUSH1 0x1F DUP3 ADD AND DUP3 ADD DUP1 PUSH1 0x40 MSTORE POP DUP2 ADD SWAP1 PUSH2 0x10A5 SWAP2 SWAP1 PUSH2 0x19CD JUMP JUMPDEST POP PUSH1 0x0 PUSH1 0x6 PUSH1 0x0 DUP5 PUSH20 0xFFFFFFFFFFFFFFFFFFFFFFFFFFFFFFFFFFFFFFFF AND PUSH20 0xFFFFFFFFFFFFFFFFFFFFFFFFFFFFFFFFFFFFFFFF AND DUP2 MSTORE PUSH1 0x20 ADD SWAP1 DUP2 MSTORE PUSH1 0x20 ADD PUSH1 0x0 KECCAK256 DUP2 SWAP1 SSTORE POP POP POP JUMP JUMPDEST PUSH1 0x5 PUSH1 0x20 MSTORE DUP1 PUSH1 0x0 MSTORE PUSH1 0x40 PUSH1 0x0 KECCAK256 PUSH1 0x0 SWAP2 POP SWAP1 POP DUP1 PUSH1 0x0 ADD SLOAD SWAP1 DUP1 PUSH1 0x1 ADD SLOAD SWAP1 DUP1 PUSH1 0x2 ADD SLOAD SWAP1 DUP1 PUSH1 0x3 ADD PUSH1 0x0 SWAP1 SLOAD SWAP1 PUSH2 0x100 EXP SWAP1 DIV PUSH1 0xFF AND SWAP1 POP DUP5 JUMP JUMPDEST PUSH1 0x0 TIMESTAMP SWAP1 POP SWAP1 JUMP JUMPDEST PUSH1 0x0 TIMESTAMP SWAP1 POP PUSH1 0x0 PUSH1 0x5 PUSH1 0x0 DUP5 DUP2 MSTORE PUSH1 0x20 ADD SWAP1 DUP2 MSTORE PUSH1 0x20 ADD PUSH1 0x0 KECCAK256 PUSH1 0x1 ADD SLOAD DUP3 PUSH2 0x115D SWAP2 SWAP1 PUSH2 0x1DE3 JUMP JUMPDEST SWAP1 POP PUSH1 0x0 PUSH2 0x1181 DUP3 PUSH1 0x5 PUSH1 0x0 DUP8 DUP2 MSTORE PUSH1 0x20 ADD SWAP1 DUP2 MSTORE PUSH1 0x20 ADD PUSH1 0x0 KECCAK256 PUSH1 0x2 ADD SLOAD PUSH2 0x1358 JUMP JUMPDEST SWAP1 POP PUSH1 0x64 DUP2 PUSH1 0x3 SLOAD PUSH1 0x5 PUSH1 0x0 DUP9 DUP2 MSTORE PUSH1 0x20 ADD SWAP1 DUP2 MSTORE PUSH1 0x20 ADD PUSH1 0x0 KECCAK256 PUSH1 0x0 ADD SLOAD PUSH2 0x11AA SWAP2 SWAP1 PUSH2 0x1CC9 JUMP JUMPDEST PUSH2 0x11B4 SWAP2 SWAP1 PUSH2 0x1CC9 JUMP JUMPDEST PUSH2 0x11BE SWAP2 SWAP1 PUSH2 0x1E46 JUMP JUMPDEST PUSH1 0x6 PUSH1 0x0 PUSH1 0x4 PUSH1 0x0 DUP9 DUP2 MSTORE PUSH1 0x20 ADD SWAP1 DUP2 MSTORE PUSH1 0x20 ADD PUSH1 0x0 KECCAK256 PUSH1 0x0 SWAP1 SLOAD SWAP1 PUSH2 0x100 EXP SWAP1 DIV PUSH20 0xFFFFFFFFFFFFFFFFFFFFFFFFFFFFFFFFFFFFFFFF AND PUSH20 0xFFFFFFFFFFFFFFFFFFFFFFFFFFFFFFFFFFFFFFFF AND PUSH20 0xFFFFFFFFFFFFFFFFFFFFFFFFFFFFFFFFFFFFFFFF AND DUP2 MSTORE PUSH1 0x20 ADD SWAP1 DUP2 MSTORE PUSH1 0x20 ADD PUSH1 0x0 KECCAK256 SLOAD PUSH2 0x123B SWAP2 SWAP1 PUSH2 0x1C95 JUMP JUMPDEST PUSH1 0x6 PUSH1 0x0 PUSH1 0x4 PUSH1 0x0 DUP9 DUP2 MSTORE PUSH1 0x20 ADD SWAP1 DUP2 MSTORE PUSH1 0x20 ADD PUSH1 0x0 KECCAK256 PUSH1 0x0 SWAP1 SLOAD SWAP1 PUSH2 0x100 EXP SWAP1 DIV PUSH20 0xFFFFFFFFFFFFFFFFFFFFFFFFFFFFFFFFFFFFFFFF AND PUSH20 0xFFFFFFFFFFFFFFFFFFFFFFFFFFFFFFFFFFFFFFFF AND PUSH20 0xFFFFFFFFFFFFFFFFFFFFFFFFFFFFFFFFFFFFFFFF AND DUP2 MSTORE PUSH1 0x20 ADD SWAP1 DUP2 MSTORE PUSH1 0x20 ADD PUSH1 0x0 KECCAK256 DUP2 SWAP1 SSTORE POP DUP3 PUSH1 0x5 PUSH1 0x0 DUP7 DUP2 MSTORE PUSH1 0x20 ADD SWAP1 DUP2 MSTORE PUSH1 0x20 ADD PUSH1 0x0 KECCAK256 PUSH1 0x1 ADD DUP2 SWAP1 SSTORE POP DUP1 PUSH1 0x5 PUSH1 0x0 DUP7 DUP2 MSTORE PUSH1 0x20 ADD SWAP1 DUP2 MSTORE PUSH1 0x20 ADD PUSH1 0x0 KECCAK256 PUSH1 0x2 ADD SLOAD PUSH2 0x12EE SWAP2 SWAP1 PUSH2 0x1DE3 JUMP JUMPDEST PUSH1 0x5 PUSH1 0x0 DUP7 DUP2 MSTORE PUSH1 0x20 ADD SWAP1 DUP2 MSTORE PUSH1 0x20 ADD PUSH1 0x0 KECCAK256 PUSH1 0x2 ADD DUP2 SWAP1 SSTORE POP POP POP POP POP JUMP JUMPDEST PUSH1 0x1 PUSH1 0x0 SWAP1 SLOAD SWAP1 PUSH2 0x100 EXP SWAP1 DIV PUSH20 0xFFFFFFFFFFFFFFFFFFFFFFFFFFFFFFFFFFFFFFFF AND DUP2 JUMP JUMPDEST PUSH1 0x0 DUP2 PUSH1 0x0 ADD SLOAD SWAP1 POP SWAP2 SWAP1 POP JUMP JUMPDEST PUSH1 0x1 DUP2 PUSH1 0x0 ADD PUSH1 0x0 DUP3 DUP3 SLOAD ADD SWAP3 POP POP DUP2 SWAP1 SSTORE POP POP JUMP JUMPDEST PUSH1 0x0 DUP2 DUP4 LT PUSH2 0x1367 JUMPI DUP2 PUSH2 0x1369 JUMP JUMPDEST DUP3 JUMPDEST SWAP1 POP SWAP3 SWAP2 POP POP JUMP JUMPDEST PUSH1 0x40 MLOAD DUP1 PUSH1 0x80 ADD PUSH1 0x40 MSTORE DUP1 PUSH1 0x0 DUP2 MSTORE PUSH1 0x20 ADD PUSH1 0x0 DUP2 MSTORE PUSH1 0x20 ADD PUSH1 0x0 DUP2 MSTORE PUSH1 0x20 ADD PUSH1 0x0 ISZERO ISZERO DUP2 MSTORE POP SWAP1 JUMP JUMPDEST PUSH1 0x0 DUP1 REVERT JUMPDEST PUSH1 0x0 PUSH20 0xFFFFFFFFFFFFFFFFFFFFFFFFFFFFFFFFFFFFFFFF DUP3 AND SWAP1 POP SWAP2 SWAP1 POP JUMP JUMPDEST PUSH1 0x0 PUSH2 0x13CB DUP3 PUSH2 0x13A0 JUMP JUMPDEST SWAP1 POP SWAP2 SWAP1 POP JUMP JUMPDEST PUSH2 0x13DB DUP2 PUSH2 0x13C0 JUMP JUMPDEST DUP2 EQ PUSH2 0x13E6 JUMPI PUSH1 0x0 DUP1 REVERT JUMPDEST POP JUMP JUMPDEST PUSH1 0x0 DUP2 CALLDATALOAD SWAP1 POP PUSH2 0x13F8 DUP2 PUSH2 0x13D2 JUMP JUMPDEST SWAP3 SWAP2 POP POP JUMP JUMPDEST PUSH1 0x0 PUSH1 0x20 DUP3 DUP5 SUB SLT ISZERO PUSH2 0x1414 JUMPI PUSH2 0x1413 PUSH2 0x139B JUMP JUMPDEST JUMPDEST PUSH1 0x0 PUSH2 0x1422 DUP5 DUP3 DUP6 ADD PUSH2 0x13E9 JUMP JUMPDEST SWAP2 POP POP SWAP3 SWAP2 POP POP JUMP JUMPDEST PUSH1 0x0 DUP2 SWAP1 POP SWAP2 SWAP1 POP JUMP JUMPDEST PUSH2 0x143E DUP2 PUSH2 0x142B JUMP JUMPDEST DUP3 MSTORE POP POP JUMP JUMPDEST PUSH1 0x0 PUSH1 0x20 DUP3 ADD SWAP1 POP PUSH2 0x1459 PUSH1 0x0 DUP4 ADD DUP5 PUSH2 0x1435 JUMP JUMPDEST SWAP3 SWAP2 POP POP JUMP JUMPDEST PUSH2 0x1468 DUP2 PUSH2 0x142B JUMP JUMPDEST DUP2 EQ PUSH2 0x1473 JUMPI PUSH1 0x0 DUP1 REVERT JUMPDEST POP JUMP JUMPDEST PUSH1 0x0 DUP2 CALLDATALOAD SWAP1 POP PUSH2 0x1485 DUP2 PUSH2 0x145F JUMP JUMPDEST SWAP3 SWAP2 POP POP JUMP JUMPDEST PUSH1 0x0 PUSH1 0x20 DUP3 DUP5 SUB SLT ISZERO PUSH2 0x14A1 JUMPI PUSH2 0x14A0 PUSH2 0x139B JUMP JUMPDEST JUMPDEST PUSH1 0x0 PUSH2 0x14AF DUP5 DUP3 DUP6 ADD PUSH2 0x1476 JUMP JUMPDEST SWAP2 POP POP SWAP3 SWAP2 POP POP JUMP JUMPDEST PUSH1 0x0 DUP2 MLOAD SWAP1 POP SWAP2 SWAP1 POP JUMP JUMPDEST PUSH1 0x0 DUP3 DUP3 MSTORE PUSH1 0x20 DUP3 ADD SWAP1 POP SWAP3 SWAP2 POP POP JUMP JUMPDEST PUSH1 0x0 DUP2 SWAP1 POP PUSH1 0x20 DUP3 ADD SWAP1 POP SWAP2 SWAP1 POP JUMP JUMPDEST PUSH2 0x14ED DUP2 PUSH2 0x142B JUMP JUMPDEST DUP3 MSTORE POP POP JUMP JUMPDEST PUSH1 0x0 PUSH2 0x14FF DUP4 DUP4 PUSH2 0x14E4 JUMP JUMPDEST PUSH1 0x20 DUP4 ADD SWAP1 POP SWAP3 SWAP2 POP POP JUMP JUMPDEST PUSH1 0x0 PUSH1 0x20 DUP3 ADD SWAP1 POP SWAP2 SWAP1 POP JUMP JUMPDEST PUSH1 0x0 PUSH2 0x1523 DUP3 PUSH2 0x14B8 JUMP JUMPDEST PUSH2 0x152D DUP2 DUP6 PUSH2 0x14C3 JUMP JUMPDEST SWAP4 POP PUSH2 0x1538 DUP4 PUSH2 0x14D4 JUMP JUMPDEST DUP1 PUSH1 0x0 JUMPDEST DUP4 DUP2 LT ISZERO PUSH2 0x1569 JUMPI DUP2 MLOAD PUSH2 0x1550 DUP9 DUP3 PUSH2 0x14F3 JUMP JUMPDEST SWAP8 POP PUSH2 0x155B DUP4 PUSH2 0x150B JUMP JUMPDEST SWAP3 POP POP PUSH1 0x1 DUP2 ADD SWAP1 POP PUSH2 0x153C JUMP JUMPDEST POP DUP6 SWAP4 POP POP POP POP SWAP3 SWAP2 POP POP JUMP JUMPDEST PUSH1 0x0 PUSH1 0x20 DUP3 ADD SWAP1 POP DUP2 DUP2 SUB PUSH1 0x0 DUP4 ADD MSTORE PUSH2 0x1590 DUP2 DUP5 PUSH2 0x1518 JUMP JUMPDEST SWAP1 POP SWAP3 SWAP2 POP POP JUMP JUMPDEST PUSH1 0x0 DUP1 PUSH1 0x40 DUP4 DUP6 SUB SLT ISZERO PUSH2 0x15AF JUMPI PUSH2 0x15AE PUSH2 0x139B JUMP JUMPDEST JUMPDEST PUSH1 0x0 PUSH2 0x15BD DUP6 DUP3 DUP7 ADD PUSH2 0x1476 JUMP JUMPDEST SWAP3 POP POP PUSH1 0x20 PUSH2 0x15CE DUP6 DUP3 DUP7 ADD PUSH2 0x1476 JUMP JUMPDEST SWAP2 POP POP SWAP3 POP SWAP3 SWAP1 POP JUMP JUMPDEST PUSH2 0x15E1 DUP2 PUSH2 0x13C0 JUMP JUMPDEST DUP3 MSTORE POP POP JUMP JUMPDEST PUSH1 0x0 PUSH1 0x20 DUP3 ADD SWAP1 POP PUSH2 0x15FC PUSH1 0x0 DUP4 ADD DUP5 PUSH2 0x15D8 JUMP JUMPDEST SWAP3 SWAP2 POP POP JUMP JUMPDEST PUSH1 0x0 DUP2 MLOAD SWAP1 POP SWAP2 SWAP1 POP JUMP JUMPDEST PUSH1 0x0 DUP3 DUP3 MSTORE PUSH1 0x20 DUP3 ADD SWAP1 POP SWAP3 SWAP2 POP POP JUMP JUMPDEST PUSH1 0x0 DUP2 SWAP1 POP PUSH1 0x20 DUP3 ADD SWAP1 POP SWAP2 SWAP1 POP JUMP JUMPDEST PUSH1 0x0 DUP2 ISZERO ISZERO SWAP1 POP SWAP2 SWAP1 POP JUMP JUMPDEST PUSH2 0x1643 DUP2 PUSH2 0x162E JUMP JUMPDEST DUP3 MSTORE POP POP JUMP JUMPDEST PUSH1 0x80 DUP3 ADD PUSH1 0x0 DUP3 ADD MLOAD PUSH2 0x165F PUSH1 0x0 DUP6 ADD DUP3 PUSH2 0x14E4 JUMP JUMPDEST POP PUSH1 0x20 DUP3 ADD MLOAD PUSH2 0x1672 PUSH1 0x20 DUP6 ADD DUP3 PUSH2 0x14E4 JUMP JUMPDEST POP PUSH1 0x40 DUP3 ADD MLOAD PUSH2 0x1685 PUSH1 0x40 DUP6 ADD DUP3 PUSH2 0x14E4 JUMP JUMPDEST POP PUSH1 0x60 DUP3 ADD MLOAD PUSH2 0x1698 PUSH1 0x60 DUP6 ADD DUP3 PUSH2 0x163A JUMP JUMPDEST POP POP POP POP JUMP JUMPDEST PUSH1 0x0 PUSH2 0x16AA DUP4 DUP4 PUSH2 0x1649 JUMP JUMPDEST PUSH1 0x80 DUP4 ADD SWAP1 POP SWAP3 SWAP2 POP POP JUMP JUMPDEST PUSH1 0x0 PUSH1 0x20 DUP3 ADD SWAP1 POP SWAP2 SWAP1 POP JUMP JUMPDEST PUSH1 0x0 PUSH2 0x16CE DUP3 PUSH2 0x1602 JUMP JUMPDEST PUSH2 0x16D8 DUP2 DUP6 PUSH2 0x160D JUMP JUMPDEST SWAP4 POP PUSH2 0x16E3 DUP4 PUSH2 0x161E JUMP JUMPDEST DUP1 PUSH1 0x0 JUMPDEST DUP4 DUP2 LT ISZERO PUSH2 0x1714 JUMPI DUP2 MLOAD PUSH2 0x16FB DUP9 DUP3 PUSH2 0x169E JUMP JUMPDEST SWAP8 POP PUSH2 0x1706 DUP4 PUSH2 0x16B6 JUMP JUMPDEST SWAP3 POP POP PUSH1 0x1 DUP2 ADD SWAP1 POP PUSH2 0x16E7 JUMP JUMPDEST POP DUP6 SWAP4 POP POP POP POP SWAP3 SWAP2 POP POP JUMP JUMPDEST PUSH1 0x0 PUSH1 0x40 DUP3 ADD SWAP1 POP DUP2 DUP2 SUB PUSH1 0x0 DUP4 ADD MSTORE PUSH2 0x173B DUP2 DUP6 PUSH2 0x1518 JUMP JUMPDEST SWAP1 POP DUP2 DUP2 SUB PUSH1 0x20 DUP4 ADD MSTORE PUSH2 0x174F DUP2 DUP5 PUSH2 0x16C3 JUMP JUMPDEST SWAP1 POP SWAP4 SWAP3 POP POP POP JUMP JUMPDEST PUSH2 0x1761 DUP2 PUSH2 0x162E JUMP JUMPDEST DUP3 MSTORE POP POP JUMP JUMPDEST PUSH1 0x0 PUSH1 0x80 DUP3 ADD SWAP1 POP PUSH2 0x177C PUSH1 0x0 DUP4 ADD DUP8 PUSH2 0x1435 JUMP JUMPDEST PUSH2 0x1789 PUSH1 0x20 DUP4 ADD DUP7 PUSH2 0x1435 JUMP JUMPDEST PUSH2 0x1796 PUSH1 0x40 DUP4 ADD DUP6 PUSH2 0x1435 JUMP JUMPDEST PUSH2 0x17A3 PUSH1 0x60 DUP4 ADD DUP5 PUSH2 0x1758 JUMP JUMPDEST SWAP6 SWAP5 POP POP POP POP POP JUMP JUMPDEST PUSH1 0x0 DUP2 SWAP1 POP SWAP2 SWAP1 POP JUMP JUMPDEST PUSH1 0x0 PUSH2 0x17D1 PUSH2 0x17CC PUSH2 0x17C7 DUP5 PUSH2 0x13A0 JUMP JUMPDEST PUSH2 0x17AC JUMP JUMPDEST PUSH2 0x13A0 JUMP JUMPDEST SWAP1 POP SWAP2 SWAP1 POP JUMP JUMPDEST PUSH1 0x0 PUSH2 0x17E3 DUP3 PUSH2 0x17B6 JUMP JUMPDEST SWAP1 POP SWAP2 SWAP1 POP JUMP JUMPDEST PUSH1 0x0 PUSH2 0x17F5 DUP3 PUSH2 0x17D8 JUMP JUMPDEST SWAP1 POP SWAP2 SWAP1 POP JUMP JUMPDEST PUSH2 0x1805 DUP2 PUSH2 0x17EA JUMP JUMPDEST DUP3 MSTORE POP POP JUMP JUMPDEST PUSH1 0x0 PUSH1 0x20 DUP3 ADD SWAP1 POP PUSH2 0x1820 PUSH1 0x0 DUP4 ADD DUP5 PUSH2 0x17FC JUMP JUMPDEST SWAP3 SWAP2 POP POP JUMP JUMPDEST PUSH32 0x4E487B7100000000000000000000000000000000000000000000000000000000 PUSH1 0x0 MSTORE PUSH1 0x11 PUSH1 0x4 MSTORE PUSH1 0x24 PUSH1 0x0 REVERT JUMPDEST PUSH1 0x0 PUSH2 0x1860 DUP3 PUSH2 0x142B JUMP JUMPDEST SWAP2 POP PUSH32 0xFFFFFFFFFFFFFFFFFFFFFFFFFFFFFFFFFFFFFFFFFFFFFFFFFFFFFFFFFFFFFFFF DUP3 SUB PUSH2 0x1892 JUMPI PUSH2 0x1891 PUSH2 0x1826 JUMP JUMPDEST JUMPDEST PUSH1 0x1 DUP3 ADD SWAP1 POP SWAP2 SWAP1 POP JUMP JUMPDEST PUSH32 0x4E487B7100000000000000000000000000000000000000000000000000000000 PUSH1 0x0 MSTORE PUSH1 0x41 PUSH1 0x4 MSTORE PUSH1 0x24 PUSH1 0x0 REVERT JUMPDEST PUSH32 0x4E487B7100000000000000000000000000000000000000000000000000000000 PUSH1 0x0 MSTORE PUSH1 0x32 PUSH1 0x4 MSTORE PUSH1 0x24 PUSH1 0x0 REVERT JUMPDEST PUSH1 0x0 DUP3 DUP3 MSTORE PUSH1 0x20 DUP3 ADD SWAP1 POP SWAP3 SWAP2 POP POP JUMP JUMPDEST PUSH32 0x4E6F20616D6F756E74207374616B656400000000000000000000000000000000 PUSH1 0x0 DUP3 ADD MSTORE POP JUMP JUMPDEST PUSH1 0x0 PUSH2 0x1942 PUSH1 0x10 DUP4 PUSH2 0x18FB JUMP JUMPDEST SWAP2 POP PUSH2 0x194D DUP3 PUSH2 0x190C JUMP JUMPDEST PUSH1 0x20 DUP3 ADD SWAP1 POP SWAP2 SWAP1 POP JUMP JUMPDEST PUSH1 0x0 PUSH1 0x20 DUP3 ADD SWAP1 POP DUP2 DUP2 SUB PUSH1 0x0 DUP4 ADD MSTORE PUSH2 0x1971 DUP2 PUSH2 0x1935 JUMP JUMPDEST SWAP1 POP SWAP2 SWAP1 POP JUMP JUMPDEST PUSH1 0x0 PUSH1 0x40 DUP3 ADD SWAP1 POP PUSH2 0x198D PUSH1 0x0 DUP4 ADD DUP6 PUSH2 0x15D8 JUMP JUMPDEST PUSH2 0x199A PUSH1 0x20 DUP4 ADD DUP5 PUSH2 0x1435 JUMP JUMPDEST SWAP4 SWAP3 POP POP POP JUMP JUMPDEST PUSH2 0x19AA DUP2 PUSH2 0x162E JUMP JUMPDEST DUP2 EQ PUSH2 0x19B5 JUMPI PUSH1 0x0 DUP1 REVERT JUMPDEST POP JUMP JUMPDEST PUSH1 0x0 DUP2 MLOAD SWAP1 POP PUSH2 0x19C7 DUP2 PUSH2 0x19A1 JUMP JUMPDEST SWAP3 SWAP2 POP POP JUMP JUMPDEST PUSH1 0x0 PUSH1 0x20 DUP3 DUP5 SUB SLT ISZERO PUSH2 0x19E3 JUMPI PUSH2 0x19E2 PUSH2 0x139B JUMP JUMPDEST JUMPDEST PUSH1 0x0 PUSH2 0x19F1 DUP5 DUP3 DUP6 ADD PUSH2 0x19B8 JUMP JUMPDEST SWAP2 POP POP SWAP3 SWAP2 POP POP JUMP JUMPDEST PUSH32 0x4D757374207374616B65206D6F7265207468616E207A65726F20746F6B656E73 PUSH1 0x0 DUP3 ADD MSTORE POP JUMP JUMPDEST PUSH1 0x0 PUSH2 0x1A30 PUSH1 0x20 DUP4 PUSH2 0x18FB JUMP JUMPDEST SWAP2 POP PUSH2 0x1A3B DUP3 PUSH2 0x19FA JUMP JUMPDEST PUSH1 0x20 DUP3 ADD SWAP1 POP SWAP2 SWAP1 POP JUMP JUMPDEST PUSH1 0x0 PUSH1 0x20 DUP3 ADD SWAP1 POP DUP2 DUP2 SUB PUSH1 0x0 DUP4 ADD MSTORE PUSH2 0x1A5F DUP2 PUSH2 0x1A23 JUMP JUMPDEST SWAP1 POP SWAP2 SWAP1 POP JUMP JUMPDEST PUSH1 0x0 DUP2 MLOAD SWAP1 POP PUSH2 0x1A75 DUP2 PUSH2 0x145F JUMP JUMPDEST SWAP3 SWAP2 POP POP JUMP JUMPDEST PUSH1 0x0 PUSH1 0x20 DUP3 DUP5 SUB SLT ISZERO PUSH2 0x1A91 JUMPI PUSH2 0x1A90 PUSH2 0x139B JUMP JUMPDEST JUMPDEST PUSH1 0x0 PUSH2 0x1A9F DUP5 DUP3 DUP6 ADD PUSH2 0x1A66 JUMP JUMPDEST SWAP2 POP POP SWAP3 SWAP2 POP POP JUMP JUMPDEST PUSH32 0x4E6F7420456E6F7567682042616C616E636520546F6B656E7320546F20537461 PUSH1 0x0 DUP3 ADD MSTORE PUSH32 0x6B65000000000000000000000000000000000000000000000000000000000000 PUSH1 0x20 DUP3 ADD MSTORE POP JUMP JUMPDEST PUSH1 0x0 PUSH2 0x1B04 PUSH1 0x22 DUP4 PUSH2 0x18FB JUMP JUMPDEST SWAP2 POP PUSH2 0x1B0F DUP3 PUSH2 0x1AA8 JUMP JUMPDEST PUSH1 0x40 DUP3 ADD SWAP1 POP SWAP2 SWAP1 POP JUMP JUMPDEST PUSH1 0x0 PUSH1 0x20 DUP3 ADD SWAP1 POP DUP2 DUP2 SUB PUSH1 0x0 DUP4 ADD MSTORE PUSH2 0x1B33 DUP2 PUSH2 0x1AF7 JUMP JUMPDEST SWAP1 POP SWAP2 SWAP1 POP JUMP JUMPDEST PUSH32 0x54696D652063616E204F6E6C79206265206F6620322C342C362C382C3130204D PUSH1 0x0 DUP3 ADD MSTORE PUSH32 0x696E757465730000000000000000000000000000000000000000000000000000 PUSH1 0x20 DUP3 ADD MSTORE POP JUMP JUMPDEST PUSH1 0x0 PUSH2 0x1B96 PUSH1 0x26 DUP4 PUSH2 0x18FB JUMP JUMPDEST SWAP2 POP PUSH2 0x1BA1 DUP3 PUSH2 0x1B3A JUMP JUMPDEST PUSH1 0x40 DUP3 ADD SWAP1 POP SWAP2 SWAP1 POP JUMP JUMPDEST PUSH1 0x0 PUSH1 0x20 DUP3 ADD SWAP1 POP DUP2 DUP2 SUB PUSH1 0x0 DUP4 ADD MSTORE PUSH2 0x1BC5 DUP2 PUSH2 0x1B89 JUMP JUMPDEST SWAP1 POP SWAP2 SWAP1 POP JUMP JUMPDEST PUSH1 0x0 PUSH1 0x60 DUP3 ADD SWAP1 POP PUSH2 0x1BE1 PUSH1 0x0 DUP4 ADD DUP7 PUSH2 0x15D8 JUMP JUMPDEST PUSH2 0x1BEE PUSH1 0x20 DUP4 ADD DUP6 PUSH2 0x15D8 JUMP JUMPDEST PUSH2 0x1BFB PUSH1 0x40 DUP4 ADD DUP5 PUSH2 0x1435 JUMP JUMPDEST SWAP5 SWAP4 POP POP POP POP JUMP JUMPDEST PUSH32 0x4769766520617070726F76616C2066726F6D20696E697469616C20746F207374 PUSH1 0x0 DUP3 ADD MSTORE PUSH32 0x616B650000000000000000000000000000000000000000000000000000000000 PUSH1 0x20 DUP3 ADD MSTORE POP JUMP JUMPDEST PUSH1 0x0 PUSH2 0x1C5F PUSH1 0x23 DUP4 PUSH2 0x18FB JUMP JUMPDEST SWAP2 POP PUSH2 0x1C6A DUP3 PUSH2 0x1C03 JUMP JUMPDEST PUSH1 0x40 DUP3 ADD SWAP1 POP SWAP2 SWAP1 POP JUMP JUMPDEST PUSH1 0x0 PUSH1 0x20 DUP3 ADD SWAP1 POP DUP2 DUP2 SUB PUSH1 0x0 DUP4 ADD MSTORE PUSH2 0x1C8E DUP2 PUSH2 0x1C52 JUMP JUMPDEST SWAP1 POP SWAP2 SWAP1 POP JUMP JUMPDEST PUSH1 0x0 PUSH2 0x1CA0 DUP3 PUSH2 0x142B JUMP JUMPDEST SWAP2 POP PUSH2 0x1CAB DUP4 PUSH2 0x142B JUMP JUMPDEST SWAP3 POP DUP3 DUP3 ADD SWAP1 POP DUP1 DUP3 GT ISZERO PUSH2 0x1CC3 JUMPI PUSH2 0x1CC2 PUSH2 0x1826 JUMP JUMPDEST JUMPDEST SWAP3 SWAP2 POP POP JUMP JUMPDEST PUSH1 0x0 PUSH2 0x1CD4 DUP3 PUSH2 0x142B JUMP JUMPDEST SWAP2 POP PUSH2 0x1CDF DUP4 PUSH2 0x142B JUMP JUMPDEST SWAP3 POP DUP3 DUP3 MUL PUSH2 0x1CED DUP2 PUSH2 0x142B JUMP JUMPDEST SWAP2 POP DUP3 DUP3 DIV DUP5 EQ DUP4 ISZERO OR PUSH2 0x1D04 JUMPI PUSH2 0x1D03 PUSH2 0x1826 JUMP JUMPDEST JUMPDEST POP SWAP3 SWAP2 POP POP JUMP JUMPDEST PUSH32 0x596F7520686176656E2774207374616B656420616E7920616D6F756E74000000 PUSH1 0x0 DUP3 ADD MSTORE POP JUMP JUMPDEST PUSH1 0x0 PUSH2 0x1D41 PUSH1 0x1D DUP4 PUSH2 0x18FB JUMP JUMPDEST SWAP2 POP PUSH2 0x1D4C DUP3 PUSH2 0x1D0B JUMP JUMPDEST PUSH1 0x20 DUP3 ADD SWAP1 POP SWAP2 SWAP1 POP JUMP JUMPDEST PUSH1 0x0 PUSH1 0x20 DUP3 ADD SWAP1 POP DUP2 DUP2 SUB PUSH1 0x0 DUP4 ADD MSTORE PUSH2 0x1D70 DUP2 PUSH2 0x1D34 JUMP JUMPDEST SWAP1 POP SWAP2 SWAP1 POP JUMP JUMPDEST PUSH32 0x4E6F2072657761726420746F20636C61696D0000000000000000000000000000 PUSH1 0x0 DUP3 ADD MSTORE POP JUMP JUMPDEST PUSH1 0x0 PUSH2 0x1DAD PUSH1 0x12 DUP4 PUSH2 0x18FB JUMP JUMPDEST SWAP2 POP PUSH2 0x1DB8 DUP3 PUSH2 0x1D77 JUMP JUMPDEST PUSH1 0x20 DUP3 ADD SWAP1 POP SWAP2 SWAP1 POP JUMP JUMPDEST PUSH1 0x0 PUSH1 0x20 DUP3 ADD SWAP1 POP DUP2 DUP2 SUB PUSH1 0x0 DUP4 ADD MSTORE PUSH2 0x1DDC DUP2 PUSH2 0x1DA0 JUMP JUMPDEST SWAP1 POP SWAP2 SWAP1 POP JUMP JUMPDEST PUSH1 0x0 PUSH2 0x1DEE DUP3 PUSH2 0x142B JUMP JUMPDEST SWAP2 POP PUSH2 0x1DF9 DUP4 PUSH2 0x142B JUMP JUMPDEST SWAP3 POP DUP3 DUP3 SUB SWAP1 POP DUP2 DUP2 GT ISZERO PUSH2 0x1E11 JUMPI PUSH2 0x1E10 PUSH2 0x1826 JUMP JUMPDEST JUMPDEST SWAP3 SWAP2 POP POP JUMP JUMPDEST PUSH32 0x4E487B7100000000000000000000000000000000000000000000000000000000 PUSH1 0x0 MSTORE PUSH1 0x12 PUSH1 0x4 MSTORE PUSH1 0x24 PUSH1 0x0 REVERT JUMPDEST PUSH1 0x0 PUSH2 0x1E51 DUP3 PUSH2 0x142B JUMP JUMPDEST SWAP2 POP PUSH2 0x1E5C DUP4 PUSH2 0x142B JUMP JUMPDEST SWAP3 POP DUP3 PUSH2 0x1E6C JUMPI PUSH2 0x1E6B PUSH2 0x1E17 JUMP JUMPDEST JUMPDEST DUP3 DUP3 DIV SWAP1 POP SWAP3 SWAP2 POP POP JUMP INVALID LOG2 PUSH5 0x6970667358 0x22 SLT KECCAK256 SWAP4 GT 0xE2 0xF PUSH5 0xDEDF64C3DD LOG1 DIV 0xDE SUB LOG3 0xDA PUSH20 0x175C0F824924CCE00FF1C9E3659E1264736F6C63 NUMBER STOP ADDMOD SLT STOP CALLER "
		},
		"gasEstimates": {
			"creation": {
				"codeDepositCost": "1570600",
				"executionCost": "infinite",
				"totalCost": "infinite"
			},
			"external": {
				"CurrentTime()": "380",
				"IdsAndDetails(address)": "infinite",
				"claimAmount(address)": "infinite",
				"claimReward(address)": "infinite",
				"contractBalance()": "infinite",
				"genrateReward(uint256)": "infinite",
				"getIds(address)": "infinite",
				"interest()": "2474",
				"owner()": "2603",
				"rewards(address)": "2838",
				"stake(uint256,uint256)": "infinite",
				"stakeTime(uint256)": "infinite",
				"stakes(uint256)": "infinite",
				"stakingOwner(uint256)": "2862",
				"token()": "infinite"
			},
			"internal": {
				"min(uint256,uint256)": "64"
			}
		},
		"methodIdentifiers": {
			"CurrentTime()": "d80e8700",
			"IdsAndDetails(address)": "c9352971",
			"claimAmount(address)": "78317be7",
			"claimReward(address)": "d279c191",
			"contractBalance()": "8b7afe2e",
			"genrateReward(uint256)": "f3a93e80",
			"getIds(address)": "2671b0d8",
			"interest()": "c392f766",
			"owner()": "8da5cb5b",
			"rewards(address)": "0700037d",
			"stake(uint256,uint256)": "7b0472f0",
			"stakeTime(uint256)": "0a42f049",
			"stakes(uint256)": "d5a44f86",
			"stakingOwner(uint256)": "90eb2981",
			"token()": "fc0c546a"
		}
	},
	"abi": [
		{
			"inputs": [
				{
					"internalType": "address",
					"name": "_token",
					"type": "address"
				}
			],
			"stateMutability": "nonpayable",
			"type": "constructor"
		},
		{
			"inputs": [],
			"name": "CurrentTime",
			"outputs": [
				{
					"internalType": "uint256",
					"name": "",
					"type": "uint256"
				}
			],
			"stateMutability": "view",
			"type": "function"
		},
		{
			"inputs": [
				{
					"internalType": "address",
					"name": "ad",
					"type": "address"
				}
			],
			"name": "IdsAndDetails",
			"outputs": [
				{
					"internalType": "uint256[]",
					"name": "",
					"type": "uint256[]"
				},
				{
					"components": [
						{
							"internalType": "uint256",
							"name": "StakedAmount",
							"type": "uint256"
						},
						{
							"internalType": "uint256",
							"name": "StakedTime",
							"type": "uint256"
						},
						{
							"internalType": "uint256",
							"name": "duration",
							"type": "uint256"
						},
						{
							"internalType": "bool",
							"name": "expired",
							"type": "bool"
						}
					],
					"internalType": "struct staking.StakingInfo[]",
					"name": "",
					"type": "tuple[]"
				}
			],
			"stateMutability": "view",
			"type": "function"
		},
		{
			"inputs": [
				{
					"internalType": "address",
					"name": "ad",
					"type": "address"
				}
			],
			"name": "claimAmount",
			"outputs": [],
			"stateMutability": "nonpayable",
			"type": "function"
		},
		{
			"inputs": [
				{
					"internalType": "address",
					"name": "ad",
					"type": "address"
				}
			],
			"name": "claimReward",
			"outputs": [],
			"stateMutability": "nonpayable",
			"type": "function"
		},
		{
			"inputs": [],
			"name": "contractBalance",
			"outputs": [
				{
					"internalType": "uint256",
					"name": "",
					"type": "uint256"
				}
			],
			"stateMutability": "view",
			"type": "function"
		},
		{
			"inputs": [
				{
					"internalType": "uint256",
					"name": "id",
					"type": "uint256"
				}
			],
			"name": "genrateReward",
			"outputs": [],
			"stateMutability": "nonpayable",
			"type": "function"
		},
		{
			"inputs": [
				{
					"internalType": "address",
					"name": "ad",
					"type": "address"
				}
			],
			"name": "getIds",
			"outputs": [
				{
					"internalType": "uint256[]",
					"name": "",
					"type": "uint256[]"
				}
			],
			"stateMutability": "view",
			"type": "function"
		},
		{
			"inputs": [],
			"name": "interest",
			"outputs": [
				{
					"internalType": "uint256",
					"name": "",
					"type": "uint256"
				}
			],
			"stateMutability": "view",
			"type": "function"
		},
		{
			"inputs": [],
			"name": "owner",
			"outputs": [
				{
					"internalType": "address",
					"name": "",
					"type": "address"
				}
			],
			"stateMutability": "view",
			"type": "function"
		},
		{
			"inputs": [
				{
					"internalType": "address",
					"name": "",
					"type": "address"
				}
			],
			"name": "rewards",
			"outputs": [
				{
					"internalType": "uint256",
					"name": "",
					"type": "uint256"
				}
			],
			"stateMutability": "view",
			"type": "function"
		},
		{
			"inputs": [
				{
					"internalType": "uint256",
					"name": "_numTokens",
					"type": "uint256"
				},
				{
					"internalType": "uint256",
					"name": "time",
					"type": "uint256"
				}
			],
			"name": "stake",
			"outputs": [
				{
					"internalType": "uint256",
					"name": "",
					"type": "uint256"
				}
			],
			"stateMutability": "nonpayable",
			"type": "function"
		},
		{
			"inputs": [
				{
					"internalType": "uint256",
					"name": "id",
					"type": "uint256"
				}
			],
			"name": "stakeTime",
			"outputs": [
				{
					"internalType": "uint256",
					"name": "",
					"type": "uint256"
				}
			],
			"stateMutability": "view",
			"type": "function"
		},
		{
			"inputs": [
				{
					"internalType": "uint256",
					"name": "",
					"type": "uint256"
				}
			],
			"name": "stakes",
			"outputs": [
				{
					"internalType": "uint256",
					"name": "StakedAmount",
					"type": "uint256"
				},
				{
					"internalType": "uint256",
					"name": "StakedTime",
					"type": "uint256"
				},
				{
					"internalType": "uint256",
					"name": "duration",
					"type": "uint256"
				},
				{
					"internalType": "bool",
					"name": "expired",
					"type": "bool"
				}
			],
			"stateMutability": "view",
			"type": "function"
		},
		{
			"inputs": [
				{
					"internalType": "uint256",
					"name": "",
					"type": "uint256"
				}
			],
			"name": "stakingOwner",
			"outputs": [
				{
					"internalType": "address",
					"name": "",
					"type": "address"
				}
			],
			"stateMutability": "view",
			"type": "function"
		},
		{
			"inputs": [],
			"name": "token",
			"outputs": [
				{
					"internalType": "contract IERC20",
					"name": "",
					"type": "address"
				}
			],
			"stateMutability": "view",
			"type": "function"
		}
	]
}