{
	"data": {
		"bytecode": {
			"linkReferences": {},
			"object": "608060405234801562000010575f80fd5b5060405162004851380380620048518339818101604052810190620000369190620002df565b6040518060400160405280600481526020017f4c6f616e000000000000000000000000000000000000000000000000000000008152506040518060400160405280600281526020017f4c4f000000000000000000000000000000000000000000000000000000000000815250815f9081620000b291906200059c565b508060019081620000c491906200059c565b505050620000e7620000db620001b060201b60201c565b620001b760201b60201c565b8260085f6101000a81548173ffffffffffffffffffffffffffffffffffffffff021916908373ffffffffffffffffffffffffffffffffffffffff16021790555080600a5f6101000a81548173ffffffffffffffffffffffffffffffffffffffff021916908373ffffffffffffffffffffffffffffffffffffffff1602179055508160095f6101000a81548173ffffffffffffffffffffffffffffffffffffffff021916908373ffffffffffffffffffffffffffffffffffffffff16021790555050505062000680565b5f33905090565b5f60065f9054906101000a900473ffffffffffffffffffffffffffffffffffffffff1690508160065f6101000a81548173ffffffffffffffffffffffffffffffffffffffff021916908373ffffffffffffffffffffffffffffffffffffffff1602179055508173ffffffffffffffffffffffffffffffffffffffff168173ffffffffffffffffffffffffffffffffffffffff167f8be0079c531659141344cd1fd0a4f28419497f9722a3daafe3b4186f6b6457e060405160405180910390a35050565b5f80fd5b5f73ffffffffffffffffffffffffffffffffffffffff82169050919050565b5f620002a9826200027e565b9050919050565b620002bb816200029d565b8114620002c6575f80fd5b50565b5f81519050620002d981620002b0565b92915050565b5f805f60608486031215620002f957620002f86200027a565b5b5f6200030886828701620002c9565b93505060206200031b86828701620002c9565b92505060406200032e86828701620002c9565b9150509250925092565b5f81519050919050565b7f4e487b71000000000000000000000000000000000000000000000000000000005f52604160045260245ffd5b7f4e487b71000000000000000000000000000000000000000000000000000000005f52602260045260245ffd5b5f6002820490506001821680620003b457607f821691505b602082108103620003ca57620003c96200036f565b5b50919050565b5f819050815f5260205f209050919050565b5f6020601f8301049050919050565b5f82821b905092915050565b5f600883026200042e7fffffffffffffffffffffffffffffffffffffffffffffffffffffffffffffffff82620003f1565b6200043a8683620003f1565b95508019841693508086168417925050509392505050565b5f819050919050565b5f819050919050565b5f620004846200047e620004788462000452565b6200045b565b62000452565b9050919050565b5f819050919050565b6200049f8362000464565b620004b7620004ae826200048b565b848454620003fd565b825550505050565b5f90565b620004cd620004bf565b620004da81848462000494565b505050565b5b818110156200050157620004f55f82620004c3565b600181019050620004e0565b5050565b601f82111562000550576200051a81620003d0565b6200052584620003e2565b8101602085101562000535578190505b6200054d6200054485620003e2565b830182620004df565b50505b505050565b5f82821c905092915050565b5f620005725f198460080262000555565b1980831691505092915050565b5f6200058c838362000561565b9150826002028217905092915050565b620005a78262000338565b67ffffffffffffffff811115620005c357620005c262000342565b5b620005cf82546200039c565b620005dc82828562000505565b5f60209050601f83116001811462000612575f8415620005fd578287015190505b6200060985826200057f565b86555062000678565b601f1984166200062286620003d0565b5f5b828110156200064b5784890151825560018201915060208501945060208101905062000624565b868310156200066b578489015162000667601f89168262000561565b8355505b6001600288020188555050505b505050505050565b6141c3806200068e5f395ff3fe6080604052600436106101e2575f3560e01c806370a0823111610101578063c5ebeaec11610094578063e985e9c511610063578063e985e9c5146106ac578063f2fde38b146106e8578063fc0c546a14610710578063fd5bfb541461073a576101e2565b8063c5ebeaec146105e4578063c87b56dd1461060c578063db006a7514610648578063e3d670d714610670576101e2565b8063961974ba116100d0578063961974ba146105425780639d76ea581461056a578063a22cb46514610594578063b88d4fde146105bc576101e2565b806370a082311461049c578063715018a6146104d85780638da5cb5b146104ee57806395d89b4114610518576101e2565b806342842e0e1161017957806368cdafe61161014857806368cdafe61461040657806369e527da1461042e5780636b55e991146104585780636c6f31f214610474576101e2565b806342842e0e1461035057806342966c68146103785780635fe3b567146103a05780636352211e146103ca576101e2565b80630e752702116101b55780630e752702146102b057806323b872dd146102d85780632afcf4801461030057806340d097c314610328576101e2565b806301ffc9a7146101e657806306fdde0314610222578063081812fc1461024c578063095ea7b314610288575b5f80fd5b3480156101f1575f80fd5b5061020c60048036038101906102079190612c59565b610750565b6040516102199190612c9e565b60405180910390f35b34801561022d575f80fd5b50610236610831565b6040516102439190612d41565b60405180910390f35b348015610257575f80fd5b50610272600480360381019061026d9190612d94565b6108c0565b60405161027f9190612dfe565b60405180910390f35b348015610293575f80fd5b506102ae60048036038101906102a99190612e41565b610902565b005b3480156102bb575f80fd5b506102d660048036038101906102d19190612d94565b610a18565b005b3480156102e3575f80fd5b506102fe60048036038101906102f99190612e7f565b610c42565b005b34801561030b575f80fd5b5061032660048036038101906103219190612d94565b610ca2565b005b348015610333575f80fd5b5061034e60048036038101906103499190612ecf565b610e4f565b005b34801561035b575f80fd5b5061037660048036038101906103719190612e7f565b610e74565b005b348015610383575f80fd5b5061039e60048036038101906103999190612d94565b610e93565b005b3480156103ab575f80fd5b506103b4610eef565b6040516103c19190612f55565b60405180910390f35b3480156103d5575f80fd5b506103f060048036038101906103eb9190612d94565b610f14565b6040516103fd9190612dfe565b60405180910390f35b348015610411575f80fd5b5061042c60048036038101906104279190612e41565b610f98565b005b348015610439575f80fd5b50610442611039565b60405161044f9190612f8e565b60405180910390f35b610472600480360381019061046d9190612fe2565b61105e565b005b34801561047f575f80fd5b5061049a60048036038101906104959190612e41565b6110e7565b005b3480156104a7575f80fd5b506104c260048036038101906104bd9190612ecf565b611188565b6040516104cf919061301c565b60405180910390f35b3480156104e3575f80fd5b506104ec61123c565b005b3480156104f9575f80fd5b5061050261124f565b60405161050f9190612dfe565b60405180910390f35b348015610523575f80fd5b5061052c611277565b6040516105399190612d41565b60405180910390f35b34801561054d575f80fd5b5061056860048036038101906105639190612e7f565b611307565b005b348015610575575f80fd5b5061057e6113ab565b60405161058b9190612dfe565b60405180910390f35b34801561059f575f80fd5b506105ba60048036038101906105b5919061305f565b61143f565b005b3480156105c7575f80fd5b506105e260048036038101906105dd91906131c9565b611455565b005b3480156105ef575f80fd5b5061060a60048036038101906106059190612d94565b6114b7565b005b348015610617575f80fd5b50610632600480360381019061062d9190612d94565b6115b2565b60405161063f9190612d41565b60405180910390f35b348015610653575f80fd5b5061066e60048036038101906106699190612d94565b611617565b005b34801561067b575f80fd5b5061069660048036038101906106919190612ecf565b611714565b6040516106a3919061301c565b60405180910390f35b3480156106b7575f80fd5b506106d260048036038101906106cd9190613249565b6117b5565b6040516106df9190612c9e565b60405180910390f35b3480156106f3575f80fd5b5061070e60048036038101906107099190612ecf565b611843565b005b34801561071b575f80fd5b506107246118c5565b60405161073191906132a7565b60405180910390f35b348015610745575f80fd5b5061074e6118ea565b005b5f7f80ac58cd000000000000000000000000000000000000000000000000000000007bffffffffffffffffffffffffffffffffffffffffffffffffffffffff1916827bffffffffffffffffffffffffffffffffffffffffffffffffffffffff1916148061081a57507f5b5e139f000000000000000000000000000000000000000000000000000000007bffffffffffffffffffffffffffffffffffffffffffffffffffffffff1916827bffffffffffffffffffffffffffffffffffffffffffffffffffffffff1916145b8061082a575061082982611aa6565b5b9050919050565b60605f805461083f906132ed565b80601f016020809104026020016040519081016040528092919081815260200182805461086b906132ed565b80156108b65780601f1061088d576101008083540402835291602001916108b6565b820191905f5260205f20905b81548152906001019060200180831161089957829003601f168201915b5050505050905090565b5f6108ca82611b0f565b60045f8381526020019081526020015f205f9054906101000a900473ffffffffffffffffffffffffffffffffffffffff169050919050565b5f61090c82610f14565b90508073ffffffffffffffffffffffffffffffffffffffff168373ffffffffffffffffffffffffffffffffffffffff160361097c576040517f08c379a00000000000000000000000000000000000000000000000000000000081526004016109739061338d565b60405180910390fd5b8073ffffffffffffffffffffffffffffffffffffffff1661099b611b5a565b73ffffffffffffffffffffffffffffffffffffffff1614806109ca57506109c9816109c4611b5a565b6117b5565b5b610a09576040517f08c379a0000000000000000000000000000000000000000000000000000000008152600401610a009061341b565b60405180910390fd5b610a138383611b61565b505050565b80600c5f828254610a299190613466565b925050819055505f600a5f9054906101000a900473ffffffffffffffffffffffffffffffffffffffff1673ffffffffffffffffffffffffffffffffffffffff16636f307dc36040518163ffffffff1660e01b8152600401602060405180830381865afa158015610a9b573d5f803e3d5ffd5b505050506040513d601f19601f82011682018060405250810190610abf91906134ad565b90508073ffffffffffffffffffffffffffffffffffffffff1663095ea7b3600a5f9054906101000a900473ffffffffffffffffffffffffffffffffffffffff16846040518363ffffffff1660e01b8152600401610b1d9291906134d8565b6020604051808303815f875af1158015610b39573d5f803e3d5ffd5b505050506040513d601f19601f82011682018060405250810190610b5d9190613513565b505f600a5f9054906101000a900473ffffffffffffffffffffffffffffffffffffffff1673ffffffffffffffffffffffffffffffffffffffff16630e752702846040518263ffffffff1660e01b8152600401610bb9919061301c565b6020604051808303815f875af1158015610bd5573d5f803e3d5ffd5b505050506040513d601f19601f82011682018060405250810190610bf99190613552565b90505f8114610c3d576040517f08c379a0000000000000000000000000000000000000000000000000000000008152600401610c34906135c7565b60405180910390fd5b505050565b610c53610c4d611b5a565b82611c17565b610c92576040517f08c379a0000000000000000000000000000000000000000000000000000000008152600401610c8990613655565b60405180910390fd5b610c9d838383611cab565b505050565b5f600a5f9054906101000a900473ffffffffffffffffffffffffffffffffffffffff1673ffffffffffffffffffffffffffffffffffffffff1663a0712d68836040518263ffffffff1660e01b8152600401610cfd919061301c565b6020604051808303815f875af1158015610d19573d5f803e3d5ffd5b505050506040513d601f19601f82011682018060405250810190610d3d9190613552565b90505f8114610d81576040517f08c379a0000000000000000000000000000000000000000000000000000000008152600401610d78906136bd565b60405180910390fd5b610d8a33610e4f565b600a5f9054906101000a900473ffffffffffffffffffffffffffffffffffffffff1673ffffffffffffffffffffffffffffffffffffffff166370a08231306040518263ffffffff1660e01b8152600401610de49190612dfe565b602060405180830381865afa158015610dff573d5f803e3d5ffd5b505050506040513d601f19601f82011682018060405250810190610e239190613552565b600b5f6001610e30611dae565b610e3a9190613466565b81526020019081526020015f20819055505050565b5f610e5a6007611dbe565b9050610e666007611dca565b610e708282611dde565b5050565b610e8e83838360405180602001604052805f815250611455565b505050565b610ea4610e9e611b5a565b82611c17565b610ee3576040517f08c379a0000000000000000000000000000000000000000000000000000000008152600401610eda90613655565b60405180910390fd5b610eec81611dfb565b50565b60085f9054906101000a900473ffffffffffffffffffffffffffffffffffffffff1681565b5f80610f1f83611f3c565b90505f73ffffffffffffffffffffffffffffffffffffffff168173ffffffffffffffffffffffffffffffffffffffff1603610f8f576040517f08c379a0000000000000000000000000000000000000000000000000000000008152600401610f8690613725565b60405180910390fd5b80915050919050565b60095f9054906101000a900473ffffffffffffffffffffffffffffffffffffffff1673ffffffffffffffffffffffffffffffffffffffff1663a9059cbb83836040518363ffffffff1660e01b8152600401610ff49291906134d8565b6020604051808303815f875af1158015611010573d5f803e3d5ffd5b505050506040513d601f19601f820116820180604052508101906110349190613513565b505050565b600a5f9054906101000a900473ffffffffffffffffffffffffffffffffffffffff1681565b5f34116110a0576040517f08c379a00000000000000000000000000000000000000000000000000000000081526004016110979061378d565b60405180910390fd5b8073ffffffffffffffffffffffffffffffffffffffff166108fc3490811502906040515f60405180830381858888f193505050501580156110e3573d5f803e3d5ffd5b5050565b60095f9054906101000a900473ffffffffffffffffffffffffffffffffffffffff1673ffffffffffffffffffffffffffffffffffffffff1663095ea7b383836040518363ffffffff1660e01b81526004016111439291906134d8565b6020604051808303815f875af115801561115f573d5f803e3d5ffd5b505050506040513d601f19601f820116820180604052508101906111839190613513565b505050565b5f8073ffffffffffffffffffffffffffffffffffffffff168273ffffffffffffffffffffffffffffffffffffffff16036111f7576040517f08c379a00000000000000000000000000000000000000000000000000000000081526004016111ee9061381b565b60405180910390fd5b60035f8373ffffffffffffffffffffffffffffffffffffffff1673ffffffffffffffffffffffffffffffffffffffff1681526020019081526020015f20549050919050565b611244611f75565b61124d5f611ff3565b565b5f60065f9054906101000a900473ffffffffffffffffffffffffffffffffffffffff16905090565b606060018054611286906132ed565b80601f01602080910402602001604051908101604052809291908181526020018280546112b2906132ed565b80156112fd5780601f106112d4576101008083540402835291602001916112fd565b820191905f5260205f20905b8154815290600101906020018083116112e057829003601f168201915b5050505050905090565b60095f9054906101000a900473ffffffffffffffffffffffffffffffffffffffff1673ffffffffffffffffffffffffffffffffffffffff166323b872dd8484846040518463ffffffff1660e01b815260040161136593929190613839565b6020604051808303815f875af1158015611381573d5f803e3d5ffd5b505050506040513d601f19601f820116820180604052508101906113a59190613513565b50505050565b5f600a5f9054906101000a900473ffffffffffffffffffffffffffffffffffffffff1673ffffffffffffffffffffffffffffffffffffffff16636f307dc36040518163ffffffff1660e01b8152600401602060405180830381865afa158015611416573d5f803e3d5ffd5b505050506040513d601f19601f8201168201806040525081019061143a91906134ad565b905090565b61145161144a611b5a565b83836120b6565b5050565b611466611460611b5a565b83611c17565b6114a5576040517f08c379a000000000000000000000000000000000000000000000000000000000815260040161149c90613655565b60405180910390fd5b6114b18484848461221d565b50505050565b80600c5f8282546114c8919061386e565b925050819055505f600a5f9054906101000a900473ffffffffffffffffffffffffffffffffffffffff1673ffffffffffffffffffffffffffffffffffffffff1663c5ebeaec836040518263ffffffff1660e01b815260040161152a919061301c565b6020604051808303815f875af1158015611546573d5f803e3d5ffd5b505050506040513d601f19601f8201168201806040525081019061156a9190613552565b90505f81146115ae576040517f08c379a00000000000000000000000000000000000000000000000000000000081526004016115a5906138eb565b60405180910390fd5b5050565b60606115bd82611b0f565b5f6115c6612279565b90505f8151116115e45760405180602001604052805f81525061160f565b806115ee8461228f565b6040516020016115ff929190613943565b6040516020818303038152906040525b915050919050565b5f600a5f9054906101000a900473ffffffffffffffffffffffffffffffffffffffff1673ffffffffffffffffffffffffffffffffffffffff1663db006a75600b5f8581526020019081526020015f20546040518263ffffffff1660e01b8152600401611683919061301c565b6020604051808303815f875af115801561169f573d5f803e3d5ffd5b505050506040513d601f19601f820116820180604052508101906116c39190613552565b90505f8114611707576040517f08c379a00000000000000000000000000000000000000000000000000000000081526004016116fe906139b0565b60405180910390fd5b61171082611dfb565b5050565b5f60095f9054906101000a900473ffffffffffffffffffffffffffffffffffffffff1673ffffffffffffffffffffffffffffffffffffffff166370a08231836040518263ffffffff1660e01b815260040161176f9190612dfe565b602060405180830381865afa15801561178a573d5f803e3d5ffd5b505050506040513d601f19601f820116820180604052508101906117ae9190613552565b9050919050565b5f60055f8473ffffffffffffffffffffffffffffffffffffffff1673ffffffffffffffffffffffffffffffffffffffff1681526020019081526020015f205f8373ffffffffffffffffffffffffffffffffffffffff1673ffffffffffffffffffffffffffffffffffffffff1681526020019081526020015f205f9054906101000a900460ff16905092915050565b61184b611f75565b5f73ffffffffffffffffffffffffffffffffffffffff168173ffffffffffffffffffffffffffffffffffffffff16036118b9576040517f08c379a00000000000000000000000000000000000000000000000000000000081526004016118b090613a3e565b60405180910390fd5b6118c281611ff3565b50565b60095f9054906101000a900473ffffffffffffffffffffffffffffffffffffffff1681565b5f600167ffffffffffffffff811115611906576119056130a5565b5b6040519080825280602002602001820160405280156119345781602001602082028036833780820191505090505b509050600a5f9054906101000a900473ffffffffffffffffffffffffffffffffffffffff16815f8151811061196c5761196b613a5c565b5b602002602001019073ffffffffffffffffffffffffffffffffffffffff16908173ffffffffffffffffffffffffffffffffffffffff16815250505f60085f9054906101000a900473ffffffffffffffffffffffffffffffffffffffff1673ffffffffffffffffffffffffffffffffffffffff1663c2998238836040518263ffffffff1660e01b8152600401611a019190613b40565b5f604051808303815f875af1158015611a1c573d5f803e3d5ffd5b505050506040513d5f823e3d601f19601f82011682018060405250810190611a449190613c24565b90505f815f81518110611a5a57611a59613a5c565b5b602002602001015114611aa2576040517f08c379a0000000000000000000000000000000000000000000000000000000008152600401611a9990613cb5565b60405180910390fd5b5050565b5f7f01ffc9a7000000000000000000000000000000000000000000000000000000007bffffffffffffffffffffffffffffffffffffffffffffffffffffffff1916827bffffffffffffffffffffffffffffffffffffffffffffffffffffffff1916149050919050565b611b1881612359565b611b57576040517f08c379a0000000000000000000000000000000000000000000000000000000008152600401611b4e90613725565b60405180910390fd5b50565b5f33905090565b8160045f8381526020019081526020015f205f6101000a81548173ffffffffffffffffffffffffffffffffffffffff021916908373ffffffffffffffffffffffffffffffffffffffff160217905550808273ffffffffffffffffffffffffffffffffffffffff16611bd183610f14565b73ffffffffffffffffffffffffffffffffffffffff167f8c5be1e5ebec7d5bd14f71427d1e84f3dd0314c0f7b2291e5b200ac8c7c3b92560405160405180910390a45050565b5f80611c2283610f14565b90508073ffffffffffffffffffffffffffffffffffffffff168473ffffffffffffffffffffffffffffffffffffffff161480611c645750611c6381856117b5565b5b80611ca257508373ffffffffffffffffffffffffffffffffffffffff16611c8a846108c0565b73ffffffffffffffffffffffffffffffffffffffff16145b91505092915050565b5f600a5f9054906101000a900473ffffffffffffffffffffffffffffffffffffffff1673ffffffffffffffffffffffffffffffffffffffff166323b872dd8585600b5f8781526020019081526020015f20546040518463ffffffff1660e01b8152600401611d1b93929190613839565b6020604051808303815f875af1158015611d37573d5f803e3d5ffd5b505050506040513d601f19601f82011682018060405250810190611d5b9190613513565b905080611d9d576040517f08c379a0000000000000000000000000000000000000000000000000000000008152600401611d9490613d1d565b60405180910390fd5b611da8848484612399565b50505050565b5f611db96007611dbe565b905090565b5f815f01549050919050565b6001815f015f828254019250508190555050565b611df7828260405180602001604052805f815250612685565b5050565b5f611e0582610f14565b9050611e14815f8460016126df565b611e1d82610f14565b905060045f8381526020019081526020015f205f6101000a81549073ffffffffffffffffffffffffffffffffffffffff0219169055600160035f8373ffffffffffffffffffffffffffffffffffffffff1673ffffffffffffffffffffffffffffffffffffffff1681526020019081526020015f205f828254039250508190555060025f8381526020019081526020015f205f6101000a81549073ffffffffffffffffffffffffffffffffffffffff0219169055815f73ffffffffffffffffffffffffffffffffffffffff168273ffffffffffffffffffffffffffffffffffffffff167fddf252ad1be2c89b69c2b068fc378daa952ba7f163c4a11628f55a4df523b3ef60405160405180910390a4611f38815f8460016126e5565b5050565b5f60025f8381526020019081526020015f205f9054906101000a900473ffffffffffffffffffffffffffffffffffffffff169050919050565b611f7d611b5a565b73ffffffffffffffffffffffffffffffffffffffff16611f9b61124f565b73ffffffffffffffffffffffffffffffffffffffff1614611ff1576040517f08c379a0000000000000000000000000000000000000000000000000000000008152600401611fe890613d85565b60405180910390fd5b565b5f60065f9054906101000a900473ffffffffffffffffffffffffffffffffffffffff1690508160065f6101000a81548173ffffffffffffffffffffffffffffffffffffffff021916908373ffffffffffffffffffffffffffffffffffffffff1602179055508173ffffffffffffffffffffffffffffffffffffffff168173ffffffffffffffffffffffffffffffffffffffff167f8be0079c531659141344cd1fd0a4f28419497f9722a3daafe3b4186f6b6457e060405160405180910390a35050565b8173ffffffffffffffffffffffffffffffffffffffff168373ffffffffffffffffffffffffffffffffffffffff1603612124576040517f08c379a000000000000000000000000000000000000000000000000000000000815260040161211b90613ded565b60405180910390fd5b8060055f8573ffffffffffffffffffffffffffffffffffffffff1673ffffffffffffffffffffffffffffffffffffffff1681526020019081526020015f205f8473ffffffffffffffffffffffffffffffffffffffff1673ffffffffffffffffffffffffffffffffffffffff1681526020019081526020015f205f6101000a81548160ff0219169083151502179055508173ffffffffffffffffffffffffffffffffffffffff168373ffffffffffffffffffffffffffffffffffffffff167f17307eab39ab6107e8899845ad3d59bd9653f200f220920489ca2b5937696c31836040516122109190612c9e565b60405180910390a3505050565b612228848484611cab565b612234848484846126eb565b612273576040517f08c379a000000000000000000000000000000000000000000000000000000000815260040161226a90613e7b565b60405180910390fd5b50505050565b606060405180602001604052805f815250905090565b60605f600161229d8461286d565b0190505f8167ffffffffffffffff8111156122bb576122ba6130a5565b5b6040519080825280601f01601f1916602001820160405280156122ed5781602001600182028036833780820191505090505b5090505f82602001820190505b60011561234e578080600190039150507f3031323334353637383961626364656600000000000000000000000000000000600a86061a8153600a858161234357612342613e99565b5b0494505f85036122fa575b819350505050919050565b5f8073ffffffffffffffffffffffffffffffffffffffff1661237a83611f3c565b73ffffffffffffffffffffffffffffffffffffffff1614159050919050565b8273ffffffffffffffffffffffffffffffffffffffff166123b982610f14565b73ffffffffffffffffffffffffffffffffffffffff161461240f576040517f08c379a000000000000000000000000000000000000000000000000000000000815260040161240690613f36565b60405180910390fd5b5f73ffffffffffffffffffffffffffffffffffffffff168273ffffffffffffffffffffffffffffffffffffffff160361247d576040517f08c379a000000000000000000000000000000000000000000000000000000000815260040161247490613fc4565b60405180910390fd5b61248a83838360016126df565b8273ffffffffffffffffffffffffffffffffffffffff166124aa82610f14565b73ffffffffffffffffffffffffffffffffffffffff1614612500576040517f08c379a00000000000000000000000000000000000000000000000000000000081526004016124f790613f36565b60405180910390fd5b60045f8281526020019081526020015f205f6101000a81549073ffffffffffffffffffffffffffffffffffffffff0219169055600160035f8573ffffffffffffffffffffffffffffffffffffffff1673ffffffffffffffffffffffffffffffffffffffff1681526020019081526020015f205f8282540392505081905550600160035f8473ffffffffffffffffffffffffffffffffffffffff1673ffffffffffffffffffffffffffffffffffffffff1681526020019081526020015f205f82825401925050819055508160025f8381526020019081526020015f205f6101000a81548173ffffffffffffffffffffffffffffffffffffffff021916908373ffffffffffffffffffffffffffffffffffffffff160217905550808273ffffffffffffffffffffffffffffffffffffffff168473ffffffffffffffffffffffffffffffffffffffff167fddf252ad1be2c89b69c2b068fc378daa952ba7f163c4a11628f55a4df523b3ef60405160405180910390a461268083838360016126e5565b505050565b61268f83836129be565b61269b5f8484846126eb565b6126da576040517f08c379a00000000000000000000000000000000000000000000000000000000081526004016126d190613e7b565b60405180910390fd5b505050565b50505050565b50505050565b5f61270b8473ffffffffffffffffffffffffffffffffffffffff16612bd1565b15612860578373ffffffffffffffffffffffffffffffffffffffff1663150b7a02612734611b5a565b8786866040518563ffffffff1660e01b81526004016127569493929190614034565b6020604051808303815f875af192505050801561279157506040513d601f19601f8201168201806040525081019061278e9190614092565b60015b612810573d805f81146127bf576040519150601f19603f3d011682016040523d82523d5f602084013e6127c4565b606091505b505f815103612808576040517f08c379a00000000000000000000000000000000000000000000000000000000081526004016127ff90613e7b565b60405180910390fd5b805181602001fd5b63150b7a0260e01b7bffffffffffffffffffffffffffffffffffffffffffffffffffffffff1916817bffffffffffffffffffffffffffffffffffffffffffffffffffffffff191614915050612865565b600190505b949350505050565b5f805f90507a184f03e93ff9f4daa797ed6e38ed64bf6a1f01000000000000000083106128c9577a184f03e93ff9f4daa797ed6e38ed64bf6a1f01000000000000000083816128bf576128be613e99565b5b0492506040810190505b6d04ee2d6d415b85acef81000000008310612906576d04ee2d6d415b85acef810000000083816128fc576128fb613e99565b5b0492506020810190505b662386f26fc10000831061293557662386f26fc10000838161292b5761292a613e99565b5b0492506010810190505b6305f5e100831061295e576305f5e100838161295457612953613e99565b5b0492506008810190505b612710831061298357612710838161297957612978613e99565b5b0492506004810190505b606483106129a6576064838161299c5761299b613e99565b5b0492506002810190505b600a83106129b5576001810190505b80915050919050565b5f73ffffffffffffffffffffffffffffffffffffffff168273ffffffffffffffffffffffffffffffffffffffff1603612a2c576040517f08c379a0000000000000000000000000000000000000000000000000000000008152600401612a2390614107565b60405180910390fd5b612a3581612359565b15612a75576040517f08c379a0000000000000000000000000000000000000000000000000000000008152600401612a6c9061416f565b60405180910390fd5b612a825f838360016126df565b612a8b81612359565b15612acb576040517f08c379a0000000000000000000000000000000000000000000000000000000008152600401612ac29061416f565b60405180910390fd5b600160035f8473ffffffffffffffffffffffffffffffffffffffff1673ffffffffffffffffffffffffffffffffffffffff1681526020019081526020015f205f82825401925050819055508160025f8381526020019081526020015f205f6101000a81548173ffffffffffffffffffffffffffffffffffffffff021916908373ffffffffffffffffffffffffffffffffffffffff160217905550808273ffffffffffffffffffffffffffffffffffffffff165f73ffffffffffffffffffffffffffffffffffffffff167fddf252ad1be2c89b69c2b068fc378daa952ba7f163c4a11628f55a4df523b3ef60405160405180910390a4612bcd5f838360016126e5565b5050565b5f808273ffffffffffffffffffffffffffffffffffffffff163b119050919050565b5f604051905090565b5f80fd5b5f80fd5b5f7fffffffff0000000000000000000000000000000000000000000000000000000082169050919050565b612c3881612c04565b8114612c42575f80fd5b50565b5f81359050612c5381612c2f565b92915050565b5f60208284031215612c6e57612c6d612bfc565b5b5f612c7b84828501612c45565b91505092915050565b5f8115159050919050565b612c9881612c84565b82525050565b5f602082019050612cb15f830184612c8f565b92915050565b5f81519050919050565b5f82825260208201905092915050565b5f5b83811015612cee578082015181840152602081019050612cd3565b5f8484015250505050565b5f601f19601f8301169050919050565b5f612d1382612cb7565b612d1d8185612cc1565b9350612d2d818560208601612cd1565b612d3681612cf9565b840191505092915050565b5f6020820190508181035f830152612d598184612d09565b905092915050565b5f819050919050565b612d7381612d61565b8114612d7d575f80fd5b50565b5f81359050612d8e81612d6a565b92915050565b5f60208284031215612da957612da8612bfc565b5b5f612db684828501612d80565b91505092915050565b5f73ffffffffffffffffffffffffffffffffffffffff82169050919050565b5f612de882612dbf565b9050919050565b612df881612dde565b82525050565b5f602082019050612e115f830184612def565b92915050565b612e2081612dde565b8114612e2a575f80fd5b50565b5f81359050612e3b81612e17565b92915050565b5f8060408385031215612e5757612e56612bfc565b5b5f612e6485828601612e2d565b9250506020612e7585828601612d80565b9150509250929050565b5f805f60608486031215612e9657612e95612bfc565b5b5f612ea386828701612e2d565b9350506020612eb486828701612e2d565b9250506040612ec586828701612d80565b9150509250925092565b5f60208284031215612ee457612ee3612bfc565b5b5f612ef184828501612e2d565b91505092915050565b5f819050919050565b5f612f1d612f18612f1384612dbf565b612efa565b612dbf565b9050919050565b5f612f2e82612f03565b9050919050565b5f612f3f82612f24565b9050919050565b612f4f81612f35565b82525050565b5f602082019050612f685f830184612f46565b92915050565b5f612f7882612f24565b9050919050565b612f8881612f6e565b82525050565b5f602082019050612fa15f830184612f7f565b92915050565b5f612fb182612dbf565b9050919050565b612fc181612fa7565b8114612fcb575f80fd5b50565b5f81359050612fdc81612fb8565b92915050565b5f60208284031215612ff757612ff6612bfc565b5b5f61300484828501612fce565b91505092915050565b61301681612d61565b82525050565b5f60208201905061302f5f83018461300d565b92915050565b61303e81612c84565b8114613048575f80fd5b50565b5f8135905061305981613035565b92915050565b5f806040838503121561307557613074612bfc565b5b5f61308285828601612e2d565b92505060206130938582860161304b565b9150509250929050565b5f80fd5b5f80fd5b7f4e487b71000000000000000000000000000000000000000000000000000000005f52604160045260245ffd5b6130db82612cf9565b810181811067ffffffffffffffff821117156130fa576130f96130a5565b5b80604052505050565b5f61310c612bf3565b905061311882826130d2565b919050565b5f67ffffffffffffffff821115613137576131366130a5565b5b61314082612cf9565b9050602081019050919050565b828183375f83830152505050565b5f61316d6131688461311d565b613103565b905082815260208101848484011115613189576131886130a1565b5b61319484828561314d565b509392505050565b5f82601f8301126131b0576131af61309d565b5b81356131c084826020860161315b565b91505092915050565b5f805f80608085870312156131e1576131e0612bfc565b5b5f6131ee87828801612e2d565b94505060206131ff87828801612e2d565b935050604061321087828801612d80565b925050606085013567ffffffffffffffff81111561323157613230612c00565b5b61323d8782880161319c565b91505092959194509250565b5f806040838503121561325f5761325e612bfc565b5b5f61326c85828601612e2d565b925050602061327d85828601612e2d565b9150509250929050565b5f61329182612f24565b9050919050565b6132a181613287565b82525050565b5f6020820190506132ba5f830184613298565b92915050565b7f4e487b71000000000000000000000000000000000000000000000000000000005f52602260045260245ffd5b5f600282049050600182168061330457607f821691505b602082108103613317576133166132c0565b5b50919050565b7f4552433732313a20617070726f76616c20746f2063757272656e74206f776e655f8201527f7200000000000000000000000000000000000000000000000000000000000000602082015250565b5f613377602183612cc1565b91506133828261331d565b604082019050919050565b5f6020820190508181035f8301526133a48161336b565b9050919050565b7f4552433732313a20617070726f76652063616c6c6572206973206e6f7420746f5f8201527f6b656e206f776e6572206f7220617070726f76656420666f7220616c6c000000602082015250565b5f613405603d83612cc1565b9150613410826133ab565b604082019050919050565b5f6020820190508181035f830152613432816133f9565b9050919050565b7f4e487b71000000000000000000000000000000000000000000000000000000005f52601160045260245ffd5b5f61347082612d61565b915061347b83612d61565b925082820390508181111561349357613492613439565b5b92915050565b5f815190506134a781612e17565b92915050565b5f602082840312156134c2576134c1612bfc565b5b5f6134cf84828501613499565b91505092915050565b5f6040820190506134eb5f830185612def565b6134f8602083018461300d565b9392505050565b5f8151905061350d81613035565b92915050565b5f6020828403121561352857613527612bfc565b5b5f613535848285016134ff565b91505092915050565b5f8151905061354c81612d6a565b92915050565b5f6020828403121561356757613566612bfc565b5b5f6135748482850161353e565b91505092915050565b7f7265706179426f72726f772829206661696c65640000000000000000000000005f82015250565b5f6135b1601483612cc1565b91506135bc8261357d565b602082019050919050565b5f6020820190508181035f8301526135de816135a5565b9050919050565b7f4552433732313a2063616c6c6572206973206e6f7420746f6b656e206f776e655f8201527f72206f7220617070726f76656400000000000000000000000000000000000000602082015250565b5f61363f602d83612cc1565b915061364a826135e5565b604082019050919050565b5f6020820190508181035f83015261366c81613633565b9050919050565b7f6d696e742829206661696c6564000000000000000000000000000000000000005f82015250565b5f6136a7600d83612cc1565b91506136b282613673565b602082019050919050565b5f6020820190508181035f8301526136d48161369b565b9050919050565b7f4552433732313a20696e76616c696420746f6b656e20494400000000000000005f82015250565b5f61370f601883612cc1565b915061371a826136db565b602082019050919050565b5f6020820190508181035f83015261373c81613703565b9050919050565b7f506c656173652073656e6420736f6d65204574686572000000000000000000005f82015250565b5f613777601683612cc1565b915061378282613743565b602082019050919050565b5f6020820190508181035f8301526137a48161376b565b9050919050565b7f4552433732313a2061646472657373207a65726f206973206e6f7420612076615f8201527f6c6964206f776e65720000000000000000000000000000000000000000000000602082015250565b5f613805602983612cc1565b9150613810826137ab565b604082019050919050565b5f6020820190508181035f830152613832816137f9565b9050919050565b5f60608201905061384c5f830186612def565b6138596020830185612def565b613866604083018461300d565b949350505050565b5f61387882612d61565b915061388383612d61565b925082820190508082111561389b5761389a613439565b5b92915050565b7f626f72726f772829206661696c656400000000000000000000000000000000005f82015250565b5f6138d5600f83612cc1565b91506138e0826138a1565b602082019050919050565b5f6020820190508181035f830152613902816138c9565b9050919050565b5f81905092915050565b5f61391d82612cb7565b6139278185613909565b9350613937818560208601612cd1565b80840191505092915050565b5f61394e8285613913565b915061395a8284613913565b91508190509392505050565b7f72656465656d2829206661696c656400000000000000000000000000000000005f82015250565b5f61399a600f83612cc1565b91506139a582613966565b602082019050919050565b5f6020820190508181035f8301526139c78161398e565b9050919050565b7f4f776e61626c653a206e6577206f776e657220697320746865207a65726f20615f8201527f6464726573730000000000000000000000000000000000000000000000000000602082015250565b5f613a28602683612cc1565b9150613a33826139ce565b604082019050919050565b5f6020820190508181035f830152613a5581613a1c565b9050919050565b7f4e487b71000000000000000000000000000000000000000000000000000000005f52603260045260245ffd5b5f81519050919050565b5f82825260208201905092915050565b5f819050602082019050919050565b613abb81612dde565b82525050565b5f613acc8383613ab2565b60208301905092915050565b5f602082019050919050565b5f613aee82613a89565b613af88185613a93565b9350613b0383613aa3565b805f5b83811015613b33578151613b1a8882613ac1565b9750613b2583613ad8565b925050600181019050613b06565b5085935050505092915050565b5f6020820190508181035f830152613b588184613ae4565b905092915050565b5f67ffffffffffffffff821115613b7a57613b796130a5565b5b602082029050602081019050919050565b5f80fd5b5f613ba1613b9c84613b60565b613103565b90508083825260208201905060208402830185811115613bc457613bc3613b8b565b5b835b81811015613bed5780613bd9888261353e565b845260208401935050602081019050613bc6565b5050509392505050565b5f82601f830112613c0b57613c0a61309d565b5b8151613c1b848260208601613b8f565b91505092915050565b5f60208284031215613c3957613c38612bfc565b5b5f82015167ffffffffffffffff811115613c5657613c55612c00565b5b613c6284828501613bf7565b91505092915050565b7f656e7465724d61726b65742829206661696c65640000000000000000000000005f82015250565b5f613c9f601483612cc1565b9150613caa82613c6b565b602082019050919050565b5f6020820190508181035f830152613ccc81613c93565b9050919050565b7f7472616e736665722829206661696c65640000000000000000000000000000005f82015250565b5f613d07601183612cc1565b9150613d1282613cd3565b602082019050919050565b5f6020820190508181035f830152613d3481613cfb565b9050919050565b7f4f776e61626c653a2063616c6c6572206973206e6f7420746865206f776e65725f82015250565b5f613d6f602083612cc1565b9150613d7a82613d3b565b602082019050919050565b5f6020820190508181035f830152613d9c81613d63565b9050919050565b7f4552433732313a20617070726f766520746f2063616c6c6572000000000000005f82015250565b5f613dd7601983612cc1565b9150613de282613da3565b602082019050919050565b5f6020820190508181035f830152613e0481613dcb565b9050919050565b7f4552433732313a207472616e7366657220746f206e6f6e2045524337323152655f8201527f63656976657220696d706c656d656e7465720000000000000000000000000000602082015250565b5f613e65603283612cc1565b9150613e7082613e0b565b604082019050919050565b5f6020820190508181035f830152613e9281613e59565b9050919050565b7f4e487b71000000000000000000000000000000000000000000000000000000005f52601260045260245ffd5b7f4552433732313a207472616e736665722066726f6d20696e636f7272656374205f8201527f6f776e6572000000000000000000000000000000000000000000000000000000602082015250565b5f613f20602583612cc1565b9150613f2b82613ec6565b604082019050919050565b5f6020820190508181035f830152613f4d81613f14565b9050919050565b7f4552433732313a207472616e7366657220746f20746865207a65726f206164645f8201527f7265737300000000000000000000000000000000000000000000000000000000602082015250565b5f613fae602483612cc1565b9150613fb982613f54565b604082019050919050565b5f6020820190508181035f830152613fdb81613fa2565b9050919050565b5f81519050919050565b5f82825260208201905092915050565b5f61400682613fe2565b6140108185613fec565b9350614020818560208601612cd1565b61402981612cf9565b840191505092915050565b5f6080820190506140475f830187612def565b6140546020830186612def565b614061604083018561300d565b81810360608301526140738184613ffc565b905095945050505050565b5f8151905061408c81612c2f565b92915050565b5f602082840312156140a7576140a6612bfc565b5b5f6140b48482850161407e565b91505092915050565b7f4552433732313a206d696e7420746f20746865207a65726f20616464726573735f82015250565b5f6140f1602083612cc1565b91506140fc826140bd565b602082019050919050565b5f6020820190508181035f83015261411e816140e5565b9050919050565b7f4552433732313a20746f6b656e20616c7265616479206d696e746564000000005f82015250565b5f614159601c83612cc1565b915061416482614125565b602082019050919050565b5f6020820190508181035f8301526141868161414d565b905091905056fea264697066735822122082474d2f18bd50259cff4747ba93e7a0134fb8d9442a42ef56e82431e51d7a9f64736f6c63430008150033",
			"opcodes": "PUSH1 0x80 PUSH1 0x40 MSTORE CALLVALUE DUP1 ISZERO PUSH3 0x10 JUMPI PUSH0 DUP1 REVERT JUMPDEST POP PUSH1 0x40 MLOAD PUSH3 0x4851 CODESIZE SUB DUP1 PUSH3 0x4851 DUP4 CODECOPY DUP2 DUP2 ADD PUSH1 0x40 MSTORE DUP2 ADD SWAP1 PUSH3 0x36 SWAP2 SWAP1 PUSH3 0x2DF JUMP JUMPDEST PUSH1 0x40 MLOAD DUP1 PUSH1 0x40 ADD PUSH1 0x40 MSTORE DUP1 PUSH1 0x4 DUP2 MSTORE PUSH1 0x20 ADD PUSH32 0x4C6F616E00000000000000000000000000000000000000000000000000000000 DUP2 MSTORE POP PUSH1 0x40 MLOAD DUP1 PUSH1 0x40 ADD PUSH1 0x40 MSTORE DUP1 PUSH1 0x2 DUP2 MSTORE PUSH1 0x20 ADD PUSH32 0x4C4F000000000000000000000000000000000000000000000000000000000000 DUP2 MSTORE POP DUP2 PUSH0 SWAP1 DUP2 PUSH3 0xB2 SWAP2 SWAP1 PUSH3 0x59C JUMP JUMPDEST POP DUP1 PUSH1 0x1 SWAP1 DUP2 PUSH3 0xC4 SWAP2 SWAP1 PUSH3 0x59C JUMP JUMPDEST POP POP POP PUSH3 0xE7 PUSH3 0xDB PUSH3 0x1B0 PUSH1 0x20 SHL PUSH1 0x20 SHR JUMP JUMPDEST PUSH3 0x1B7 PUSH1 0x20 SHL PUSH1 0x20 SHR JUMP JUMPDEST DUP3 PUSH1 0x8 PUSH0 PUSH2 0x100 EXP DUP2 SLOAD DUP2 PUSH20 0xFFFFFFFFFFFFFFFFFFFFFFFFFFFFFFFFFFFFFFFF MUL NOT AND SWAP1 DUP4 PUSH20 0xFFFFFFFFFFFFFFFFFFFFFFFFFFFFFFFFFFFFFFFF AND MUL OR SWAP1 SSTORE POP DUP1 PUSH1 0xA PUSH0 PUSH2 0x100 EXP DUP2 SLOAD DUP2 PUSH20 0xFFFFFFFFFFFFFFFFFFFFFFFFFFFFFFFFFFFFFFFF MUL NOT AND SWAP1 DUP4 PUSH20 0xFFFFFFFFFFFFFFFFFFFFFFFFFFFFFFFFFFFFFFFF AND MUL OR SWAP1 SSTORE POP DUP2 PUSH1 0x9 PUSH0 PUSH2 0x100 EXP DUP2 SLOAD DUP2 PUSH20 0xFFFFFFFFFFFFFFFFFFFFFFFFFFFFFFFFFFFFFFFF MUL NOT AND SWAP1 DUP4 PUSH20 0xFFFFFFFFFFFFFFFFFFFFFFFFFFFFFFFFFFFFFFFF AND MUL OR SWAP1 SSTORE POP POP POP POP PUSH3 0x680 JUMP JUMPDEST PUSH0 CALLER SWAP1 POP SWAP1 JUMP JUMPDEST PUSH0 PUSH1 0x6 PUSH0 SWAP1 SLOAD SWAP1 PUSH2 0x100 EXP SWAP1 DIV PUSH20 0xFFFFFFFFFFFFFFFFFFFFFFFFFFFFFFFFFFFFFFFF AND SWAP1 POP DUP2 PUSH1 0x6 PUSH0 PUSH2 0x100 EXP DUP2 SLOAD DUP2 PUSH20 0xFFFFFFFFFFFFFFFFFFFFFFFFFFFFFFFFFFFFFFFF MUL NOT AND SWAP1 DUP4 PUSH20 0xFFFFFFFFFFFFFFFFFFFFFFFFFFFFFFFFFFFFFFFF AND MUL OR SWAP1 SSTORE POP DUP2 PUSH20 0xFFFFFFFFFFFFFFFFFFFFFFFFFFFFFFFFFFFFFFFF AND DUP2 PUSH20 0xFFFFFFFFFFFFFFFFFFFFFFFFFFFFFFFFFFFFFFFF AND PUSH32 0x8BE0079C531659141344CD1FD0A4F28419497F9722A3DAAFE3B4186F6B6457E0 PUSH1 0x40 MLOAD PUSH1 0x40 MLOAD DUP1 SWAP2 SUB SWAP1 LOG3 POP POP JUMP JUMPDEST PUSH0 DUP1 REVERT JUMPDEST PUSH0 PUSH20 0xFFFFFFFFFFFFFFFFFFFFFFFFFFFFFFFFFFFFFFFF DUP3 AND SWAP1 POP SWAP2 SWAP1 POP JUMP JUMPDEST PUSH0 PUSH3 0x2A9 DUP3 PUSH3 0x27E JUMP JUMPDEST SWAP1 POP SWAP2 SWAP1 POP JUMP JUMPDEST PUSH3 0x2BB DUP2 PUSH3 0x29D JUMP JUMPDEST DUP2 EQ PUSH3 0x2C6 JUMPI PUSH0 DUP1 REVERT JUMPDEST POP JUMP JUMPDEST PUSH0 DUP2 MLOAD SWAP1 POP PUSH3 0x2D9 DUP2 PUSH3 0x2B0 JUMP JUMPDEST SWAP3 SWAP2 POP POP JUMP JUMPDEST PUSH0 DUP1 PUSH0 PUSH1 0x60 DUP5 DUP7 SUB SLT ISZERO PUSH3 0x2F9 JUMPI PUSH3 0x2F8 PUSH3 0x27A JUMP JUMPDEST JUMPDEST PUSH0 PUSH3 0x308 DUP7 DUP3 DUP8 ADD PUSH3 0x2C9 JUMP JUMPDEST SWAP4 POP POP PUSH1 0x20 PUSH3 0x31B DUP7 DUP3 DUP8 ADD PUSH3 0x2C9 JUMP JUMPDEST SWAP3 POP POP PUSH1 0x40 PUSH3 0x32E DUP7 DUP3 DUP8 ADD PUSH3 0x2C9 JUMP JUMPDEST SWAP2 POP POP SWAP3 POP SWAP3 POP SWAP3 JUMP JUMPDEST PUSH0 DUP2 MLOAD SWAP1 POP SWAP2 SWAP1 POP JUMP JUMPDEST PUSH32 0x4E487B7100000000000000000000000000000000000000000000000000000000 PUSH0 MSTORE PUSH1 0x41 PUSH1 0x4 MSTORE PUSH1 0x24 PUSH0 REVERT JUMPDEST PUSH32 0x4E487B7100000000000000000000000000000000000000000000000000000000 PUSH0 MSTORE PUSH1 0x22 PUSH1 0x4 MSTORE PUSH1 0x24 PUSH0 REVERT JUMPDEST PUSH0 PUSH1 0x2 DUP3 DIV SWAP1 POP PUSH1 0x1 DUP3 AND DUP1 PUSH3 0x3B4 JUMPI PUSH1 0x7F DUP3 AND SWAP2 POP JUMPDEST PUSH1 0x20 DUP3 LT DUP2 SUB PUSH3 0x3CA JUMPI PUSH3 0x3C9 PUSH3 0x36F JUMP JUMPDEST JUMPDEST POP SWAP2 SWAP1 POP JUMP JUMPDEST PUSH0 DUP2 SWAP1 POP DUP2 PUSH0 MSTORE PUSH1 0x20 PUSH0 KECCAK256 SWAP1 POP SWAP2 SWAP1 POP JUMP JUMPDEST PUSH0 PUSH1 0x20 PUSH1 0x1F DUP4 ADD DIV SWAP1 POP SWAP2 SWAP1 POP JUMP JUMPDEST PUSH0 DUP3 DUP3 SHL SWAP1 POP SWAP3 SWAP2 POP POP JUMP JUMPDEST PUSH0 PUSH1 0x8 DUP4 MUL PUSH3 0x42E PUSH32 0xFFFFFFFFFFFFFFFFFFFFFFFFFFFFFFFFFFFFFFFFFFFFFFFFFFFFFFFFFFFFFFFF DUP3 PUSH3 0x3F1 JUMP JUMPDEST PUSH3 0x43A DUP7 DUP4 PUSH3 0x3F1 JUMP JUMPDEST SWAP6 POP DUP1 NOT DUP5 AND SWAP4 POP DUP1 DUP7 AND DUP5 OR SWAP3 POP POP POP SWAP4 SWAP3 POP POP POP JUMP JUMPDEST PUSH0 DUP2 SWAP1 POP SWAP2 SWAP1 POP JUMP JUMPDEST PUSH0 DUP2 SWAP1 POP SWAP2 SWAP1 POP JUMP JUMPDEST PUSH0 PUSH3 0x484 PUSH3 0x47E PUSH3 0x478 DUP5 PUSH3 0x452 JUMP JUMPDEST PUSH3 0x45B JUMP JUMPDEST PUSH3 0x452 JUMP JUMPDEST SWAP1 POP SWAP2 SWAP1 POP JUMP JUMPDEST PUSH0 DUP2 SWAP1 POP SWAP2 SWAP1 POP JUMP JUMPDEST PUSH3 0x49F DUP4 PUSH3 0x464 JUMP JUMPDEST PUSH3 0x4B7 PUSH3 0x4AE DUP3 PUSH3 0x48B JUMP JUMPDEST DUP5 DUP5 SLOAD PUSH3 0x3FD JUMP JUMPDEST DUP3 SSTORE POP POP POP POP JUMP JUMPDEST PUSH0 SWAP1 JUMP JUMPDEST PUSH3 0x4CD PUSH3 0x4BF JUMP JUMPDEST PUSH3 0x4DA DUP2 DUP5 DUP5 PUSH3 0x494 JUMP JUMPDEST POP POP POP JUMP JUMPDEST JUMPDEST DUP2 DUP2 LT ISZERO PUSH3 0x501 JUMPI PUSH3 0x4F5 PUSH0 DUP3 PUSH3 0x4C3 JUMP JUMPDEST PUSH1 0x1 DUP2 ADD SWAP1 POP PUSH3 0x4E0 JUMP JUMPDEST POP POP JUMP JUMPDEST PUSH1 0x1F DUP3 GT ISZERO PUSH3 0x550 JUMPI PUSH3 0x51A DUP2 PUSH3 0x3D0 JUMP JUMPDEST PUSH3 0x525 DUP5 PUSH3 0x3E2 JUMP JUMPDEST DUP2 ADD PUSH1 0x20 DUP6 LT ISZERO PUSH3 0x535 JUMPI DUP2 SWAP1 POP JUMPDEST PUSH3 0x54D PUSH3 0x544 DUP6 PUSH3 0x3E2 JUMP JUMPDEST DUP4 ADD DUP3 PUSH3 0x4DF JUMP JUMPDEST POP POP JUMPDEST POP POP POP JUMP JUMPDEST PUSH0 DUP3 DUP3 SHR SWAP1 POP SWAP3 SWAP2 POP POP JUMP JUMPDEST PUSH0 PUSH3 0x572 PUSH0 NOT DUP5 PUSH1 0x8 MUL PUSH3 0x555 JUMP JUMPDEST NOT DUP1 DUP4 AND SWAP2 POP POP SWAP3 SWAP2 POP POP JUMP JUMPDEST PUSH0 PUSH3 0x58C DUP4 DUP4 PUSH3 0x561 JUMP JUMPDEST SWAP2 POP DUP3 PUSH1 0x2 MUL DUP3 OR SWAP1 POP SWAP3 SWAP2 POP POP JUMP JUMPDEST PUSH3 0x5A7 DUP3 PUSH3 0x338 JUMP JUMPDEST PUSH8 0xFFFFFFFFFFFFFFFF DUP2 GT ISZERO PUSH3 0x5C3 JUMPI PUSH3 0x5C2 PUSH3 0x342 JUMP JUMPDEST JUMPDEST PUSH3 0x5CF DUP3 SLOAD PUSH3 0x39C JUMP JUMPDEST PUSH3 0x5DC DUP3 DUP3 DUP6 PUSH3 0x505 JUMP JUMPDEST PUSH0 PUSH1 0x20 SWAP1 POP PUSH1 0x1F DUP4 GT PUSH1 0x1 DUP2 EQ PUSH3 0x612 JUMPI PUSH0 DUP5 ISZERO PUSH3 0x5FD JUMPI DUP3 DUP8 ADD MLOAD SWAP1 POP JUMPDEST PUSH3 0x609 DUP6 DUP3 PUSH3 0x57F JUMP JUMPDEST DUP7 SSTORE POP PUSH3 0x678 JUMP JUMPDEST PUSH1 0x1F NOT DUP5 AND PUSH3 0x622 DUP7 PUSH3 0x3D0 JUMP JUMPDEST PUSH0 JUMPDEST DUP3 DUP2 LT ISZERO PUSH3 0x64B JUMPI DUP5 DUP10 ADD MLOAD DUP3 SSTORE PUSH1 0x1 DUP3 ADD SWAP2 POP PUSH1 0x20 DUP6 ADD SWAP5 POP PUSH1 0x20 DUP2 ADD SWAP1 POP PUSH3 0x624 JUMP JUMPDEST DUP7 DUP4 LT ISZERO PUSH3 0x66B JUMPI DUP5 DUP10 ADD MLOAD PUSH3 0x667 PUSH1 0x1F DUP10 AND DUP3 PUSH3 0x561 JUMP JUMPDEST DUP4 SSTORE POP JUMPDEST PUSH1 0x1 PUSH1 0x2 DUP9 MUL ADD DUP9 SSTORE POP POP POP JUMPDEST POP POP POP POP POP POP JUMP JUMPDEST PUSH2 0x41C3 DUP1 PUSH3 0x68E PUSH0 CODECOPY PUSH0 RETURN INVALID PUSH1 0x80 PUSH1 0x40 MSTORE PUSH1 0x4 CALLDATASIZE LT PUSH2 0x1E2 JUMPI PUSH0 CALLDATALOAD PUSH1 0xE0 SHR DUP1 PUSH4 0x70A08231 GT PUSH2 0x101 JUMPI DUP1 PUSH4 0xC5EBEAEC GT PUSH2 0x94 JUMPI DUP1 PUSH4 0xE985E9C5 GT PUSH2 0x63 JUMPI DUP1 PUSH4 0xE985E9C5 EQ PUSH2 0x6AC JUMPI DUP1 PUSH4 0xF2FDE38B EQ PUSH2 0x6E8 JUMPI DUP1 PUSH4 0xFC0C546A EQ PUSH2 0x710 JUMPI DUP1 PUSH4 0xFD5BFB54 EQ PUSH2 0x73A JUMPI PUSH2 0x1E2 JUMP JUMPDEST DUP1 PUSH4 0xC5EBEAEC EQ PUSH2 0x5E4 JUMPI DUP1 PUSH4 0xC87B56DD EQ PUSH2 0x60C JUMPI DUP1 PUSH4 0xDB006A75 EQ PUSH2 0x648 JUMPI DUP1 PUSH4 0xE3D670D7 EQ PUSH2 0x670 JUMPI PUSH2 0x1E2 JUMP JUMPDEST DUP1 PUSH4 0x961974BA GT PUSH2 0xD0 JUMPI DUP1 PUSH4 0x961974BA EQ PUSH2 0x542 JUMPI DUP1 PUSH4 0x9D76EA58 EQ PUSH2 0x56A JUMPI DUP1 PUSH4 0xA22CB465 EQ PUSH2 0x594 JUMPI DUP1 PUSH4 0xB88D4FDE EQ PUSH2 0x5BC JUMPI PUSH2 0x1E2 JUMP JUMPDEST DUP1 PUSH4 0x70A08231 EQ PUSH2 0x49C JUMPI DUP1 PUSH4 0x715018A6 EQ PUSH2 0x4D8 JUMPI DUP1 PUSH4 0x8DA5CB5B EQ PUSH2 0x4EE JUMPI DUP1 PUSH4 0x95D89B41 EQ PUSH2 0x518 JUMPI PUSH2 0x1E2 JUMP JUMPDEST DUP1 PUSH4 0x42842E0E GT PUSH2 0x179 JUMPI DUP1 PUSH4 0x68CDAFE6 GT PUSH2 0x148 JUMPI DUP1 PUSH4 0x68CDAFE6 EQ PUSH2 0x406 JUMPI DUP1 PUSH4 0x69E527DA EQ PUSH2 0x42E JUMPI DUP1 PUSH4 0x6B55E991 EQ PUSH2 0x458 JUMPI DUP1 PUSH4 0x6C6F31F2 EQ PUSH2 0x474 JUMPI PUSH2 0x1E2 JUMP JUMPDEST DUP1 PUSH4 0x42842E0E EQ PUSH2 0x350 JUMPI DUP1 PUSH4 0x42966C68 EQ PUSH2 0x378 JUMPI DUP1 PUSH4 0x5FE3B567 EQ PUSH2 0x3A0 JUMPI DUP1 PUSH4 0x6352211E EQ PUSH2 0x3CA JUMPI PUSH2 0x1E2 JUMP JUMPDEST DUP1 PUSH4 0xE752702 GT PUSH2 0x1B5 JUMPI DUP1 PUSH4 0xE752702 EQ PUSH2 0x2B0 JUMPI DUP1 PUSH4 0x23B872DD EQ PUSH2 0x2D8 JUMPI DUP1 PUSH4 0x2AFCF480 EQ PUSH2 0x300 JUMPI DUP1 PUSH4 0x40D097C3 EQ PUSH2 0x328 JUMPI PUSH2 0x1E2 JUMP JUMPDEST DUP1 PUSH4 0x1FFC9A7 EQ PUSH2 0x1E6 JUMPI DUP1 PUSH4 0x6FDDE03 EQ PUSH2 0x222 JUMPI DUP1 PUSH4 0x81812FC EQ PUSH2 0x24C JUMPI DUP1 PUSH4 0x95EA7B3 EQ PUSH2 0x288 JUMPI JUMPDEST PUSH0 DUP1 REVERT JUMPDEST CALLVALUE DUP1 ISZERO PUSH2 0x1F1 JUMPI PUSH0 DUP1 REVERT JUMPDEST POP PUSH2 0x20C PUSH1 0x4 DUP1 CALLDATASIZE SUB DUP2 ADD SWAP1 PUSH2 0x207 SWAP2 SWAP1 PUSH2 0x2C59 JUMP JUMPDEST PUSH2 0x750 JUMP JUMPDEST PUSH1 0x40 MLOAD PUSH2 0x219 SWAP2 SWAP1 PUSH2 0x2C9E JUMP JUMPDEST PUSH1 0x40 MLOAD DUP1 SWAP2 SUB SWAP1 RETURN JUMPDEST CALLVALUE DUP1 ISZERO PUSH2 0x22D JUMPI PUSH0 DUP1 REVERT JUMPDEST POP PUSH2 0x236 PUSH2 0x831 JUMP JUMPDEST PUSH1 0x40 MLOAD PUSH2 0x243 SWAP2 SWAP1 PUSH2 0x2D41 JUMP JUMPDEST PUSH1 0x40 MLOAD DUP1 SWAP2 SUB SWAP1 RETURN JUMPDEST CALLVALUE DUP1 ISZERO PUSH2 0x257 JUMPI PUSH0 DUP1 REVERT JUMPDEST POP PUSH2 0x272 PUSH1 0x4 DUP1 CALLDATASIZE SUB DUP2 ADD SWAP1 PUSH2 0x26D SWAP2 SWAP1 PUSH2 0x2D94 JUMP JUMPDEST PUSH2 0x8C0 JUMP JUMPDEST PUSH1 0x40 MLOAD PUSH2 0x27F SWAP2 SWAP1 PUSH2 0x2DFE JUMP JUMPDEST PUSH1 0x40 MLOAD DUP1 SWAP2 SUB SWAP1 RETURN JUMPDEST CALLVALUE DUP1 ISZERO PUSH2 0x293 JUMPI PUSH0 DUP1 REVERT JUMPDEST POP PUSH2 0x2AE PUSH1 0x4 DUP1 CALLDATASIZE SUB DUP2 ADD SWAP1 PUSH2 0x2A9 SWAP2 SWAP1 PUSH2 0x2E41 JUMP JUMPDEST PUSH2 0x902 JUMP JUMPDEST STOP JUMPDEST CALLVALUE DUP1 ISZERO PUSH2 0x2BB JUMPI PUSH0 DUP1 REVERT JUMPDEST POP PUSH2 0x2D6 PUSH1 0x4 DUP1 CALLDATASIZE SUB DUP2 ADD SWAP1 PUSH2 0x2D1 SWAP2 SWAP1 PUSH2 0x2D94 JUMP JUMPDEST PUSH2 0xA18 JUMP JUMPDEST STOP JUMPDEST CALLVALUE DUP1 ISZERO PUSH2 0x2E3 JUMPI PUSH0 DUP1 REVERT JUMPDEST POP PUSH2 0x2FE PUSH1 0x4 DUP1 CALLDATASIZE SUB DUP2 ADD SWAP1 PUSH2 0x2F9 SWAP2 SWAP1 PUSH2 0x2E7F JUMP JUMPDEST PUSH2 0xC42 JUMP JUMPDEST STOP JUMPDEST CALLVALUE DUP1 ISZERO PUSH2 0x30B JUMPI PUSH0 DUP1 REVERT JUMPDEST POP PUSH2 0x326 PUSH1 0x4 DUP1 CALLDATASIZE SUB DUP2 ADD SWAP1 PUSH2 0x321 SWAP2 SWAP1 PUSH2 0x2D94 JUMP JUMPDEST PUSH2 0xCA2 JUMP JUMPDEST STOP JUMPDEST CALLVALUE DUP1 ISZERO PUSH2 0x333 JUMPI PUSH0 DUP1 REVERT JUMPDEST POP PUSH2 0x34E PUSH1 0x4 DUP1 CALLDATASIZE SUB DUP2 ADD SWAP1 PUSH2 0x349 SWAP2 SWAP1 PUSH2 0x2ECF JUMP JUMPDEST PUSH2 0xE4F JUMP JUMPDEST STOP JUMPDEST CALLVALUE DUP1 ISZERO PUSH2 0x35B JUMPI PUSH0 DUP1 REVERT JUMPDEST POP PUSH2 0x376 PUSH1 0x4 DUP1 CALLDATASIZE SUB DUP2 ADD SWAP1 PUSH2 0x371 SWAP2 SWAP1 PUSH2 0x2E7F JUMP JUMPDEST PUSH2 0xE74 JUMP JUMPDEST STOP JUMPDEST CALLVALUE DUP1 ISZERO PUSH2 0x383 JUMPI PUSH0 DUP1 REVERT JUMPDEST POP PUSH2 0x39E PUSH1 0x4 DUP1 CALLDATASIZE SUB DUP2 ADD SWAP1 PUSH2 0x399 SWAP2 SWAP1 PUSH2 0x2D94 JUMP JUMPDEST PUSH2 0xE93 JUMP JUMPDEST STOP JUMPDEST CALLVALUE DUP1 ISZERO PUSH2 0x3AB JUMPI PUSH0 DUP1 REVERT JUMPDEST POP PUSH2 0x3B4 PUSH2 0xEEF JUMP JUMPDEST PUSH1 0x40 MLOAD PUSH2 0x3C1 SWAP2 SWAP1 PUSH2 0x2F55 JUMP JUMPDEST PUSH1 0x40 MLOAD DUP1 SWAP2 SUB SWAP1 RETURN JUMPDEST CALLVALUE DUP1 ISZERO PUSH2 0x3D5 JUMPI PUSH0 DUP1 REVERT JUMPDEST POP PUSH2 0x3F0 PUSH1 0x4 DUP1 CALLDATASIZE SUB DUP2 ADD SWAP1 PUSH2 0x3EB SWAP2 SWAP1 PUSH2 0x2D94 JUMP JUMPDEST PUSH2 0xF14 JUMP JUMPDEST PUSH1 0x40 MLOAD PUSH2 0x3FD SWAP2 SWAP1 PUSH2 0x2DFE JUMP JUMPDEST PUSH1 0x40 MLOAD DUP1 SWAP2 SUB SWAP1 RETURN JUMPDEST CALLVALUE DUP1 ISZERO PUSH2 0x411 JUMPI PUSH0 DUP1 REVERT JUMPDEST POP PUSH2 0x42C PUSH1 0x4 DUP1 CALLDATASIZE SUB DUP2 ADD SWAP1 PUSH2 0x427 SWAP2 SWAP1 PUSH2 0x2E41 JUMP JUMPDEST PUSH2 0xF98 JUMP JUMPDEST STOP JUMPDEST CALLVALUE DUP1 ISZERO PUSH2 0x439 JUMPI PUSH0 DUP1 REVERT JUMPDEST POP PUSH2 0x442 PUSH2 0x1039 JUMP JUMPDEST PUSH1 0x40 MLOAD PUSH2 0x44F SWAP2 SWAP1 PUSH2 0x2F8E JUMP JUMPDEST PUSH1 0x40 MLOAD DUP1 SWAP2 SUB SWAP1 RETURN JUMPDEST PUSH2 0x472 PUSH1 0x4 DUP1 CALLDATASIZE SUB DUP2 ADD SWAP1 PUSH2 0x46D SWAP2 SWAP1 PUSH2 0x2FE2 JUMP JUMPDEST PUSH2 0x105E JUMP JUMPDEST STOP JUMPDEST CALLVALUE DUP1 ISZERO PUSH2 0x47F JUMPI PUSH0 DUP1 REVERT JUMPDEST POP PUSH2 0x49A PUSH1 0x4 DUP1 CALLDATASIZE SUB DUP2 ADD SWAP1 PUSH2 0x495 SWAP2 SWAP1 PUSH2 0x2E41 JUMP JUMPDEST PUSH2 0x10E7 JUMP JUMPDEST STOP JUMPDEST CALLVALUE DUP1 ISZERO PUSH2 0x4A7 JUMPI PUSH0 DUP1 REVERT JUMPDEST POP PUSH2 0x4C2 PUSH1 0x4 DUP1 CALLDATASIZE SUB DUP2 ADD SWAP1 PUSH2 0x4BD SWAP2 SWAP1 PUSH2 0x2ECF JUMP JUMPDEST PUSH2 0x1188 JUMP JUMPDEST PUSH1 0x40 MLOAD PUSH2 0x4CF SWAP2 SWAP1 PUSH2 0x301C JUMP JUMPDEST PUSH1 0x40 MLOAD DUP1 SWAP2 SUB SWAP1 RETURN JUMPDEST CALLVALUE DUP1 ISZERO PUSH2 0x4E3 JUMPI PUSH0 DUP1 REVERT JUMPDEST POP PUSH2 0x4EC PUSH2 0x123C JUMP JUMPDEST STOP JUMPDEST CALLVALUE DUP1 ISZERO PUSH2 0x4F9 JUMPI PUSH0 DUP1 REVERT JUMPDEST POP PUSH2 0x502 PUSH2 0x124F JUMP JUMPDEST PUSH1 0x40 MLOAD PUSH2 0x50F SWAP2 SWAP1 PUSH2 0x2DFE JUMP JUMPDEST PUSH1 0x40 MLOAD DUP1 SWAP2 SUB SWAP1 RETURN JUMPDEST CALLVALUE DUP1 ISZERO PUSH2 0x523 JUMPI PUSH0 DUP1 REVERT JUMPDEST POP PUSH2 0x52C PUSH2 0x1277 JUMP JUMPDEST PUSH1 0x40 MLOAD PUSH2 0x539 SWAP2 SWAP1 PUSH2 0x2D41 JUMP JUMPDEST PUSH1 0x40 MLOAD DUP1 SWAP2 SUB SWAP1 RETURN JUMPDEST CALLVALUE DUP1 ISZERO PUSH2 0x54D JUMPI PUSH0 DUP1 REVERT JUMPDEST POP PUSH2 0x568 PUSH1 0x4 DUP1 CALLDATASIZE SUB DUP2 ADD SWAP1 PUSH2 0x563 SWAP2 SWAP1 PUSH2 0x2E7F JUMP JUMPDEST PUSH2 0x1307 JUMP JUMPDEST STOP JUMPDEST CALLVALUE DUP1 ISZERO PUSH2 0x575 JUMPI PUSH0 DUP1 REVERT JUMPDEST POP PUSH2 0x57E PUSH2 0x13AB JUMP JUMPDEST PUSH1 0x40 MLOAD PUSH2 0x58B SWAP2 SWAP1 PUSH2 0x2DFE JUMP JUMPDEST PUSH1 0x40 MLOAD DUP1 SWAP2 SUB SWAP1 RETURN JUMPDEST CALLVALUE DUP1 ISZERO PUSH2 0x59F JUMPI PUSH0 DUP1 REVERT JUMPDEST POP PUSH2 0x5BA PUSH1 0x4 DUP1 CALLDATASIZE SUB DUP2 ADD SWAP1 PUSH2 0x5B5 SWAP2 SWAP1 PUSH2 0x305F JUMP JUMPDEST PUSH2 0x143F JUMP JUMPDEST STOP JUMPDEST CALLVALUE DUP1 ISZERO PUSH2 0x5C7 JUMPI PUSH0 DUP1 REVERT JUMPDEST POP PUSH2 0x5E2 PUSH1 0x4 DUP1 CALLDATASIZE SUB DUP2 ADD SWAP1 PUSH2 0x5DD SWAP2 SWAP1 PUSH2 0x31C9 JUMP JUMPDEST PUSH2 0x1455 JUMP JUMPDEST STOP JUMPDEST CALLVALUE DUP1 ISZERO PUSH2 0x5EF JUMPI PUSH0 DUP1 REVERT JUMPDEST POP PUSH2 0x60A PUSH1 0x4 DUP1 CALLDATASIZE SUB DUP2 ADD SWAP1 PUSH2 0x605 SWAP2 SWAP1 PUSH2 0x2D94 JUMP JUMPDEST PUSH2 0x14B7 JUMP JUMPDEST STOP JUMPDEST CALLVALUE DUP1 ISZERO PUSH2 0x617 JUMPI PUSH0 DUP1 REVERT JUMPDEST POP PUSH2 0x632 PUSH1 0x4 DUP1 CALLDATASIZE SUB DUP2 ADD SWAP1 PUSH2 0x62D SWAP2 SWAP1 PUSH2 0x2D94 JUMP JUMPDEST PUSH2 0x15B2 JUMP JUMPDEST PUSH1 0x40 MLOAD PUSH2 0x63F SWAP2 SWAP1 PUSH2 0x2D41 JUMP JUMPDEST PUSH1 0x40 MLOAD DUP1 SWAP2 SUB SWAP1 RETURN JUMPDEST CALLVALUE DUP1 ISZERO PUSH2 0x653 JUMPI PUSH0 DUP1 REVERT JUMPDEST POP PUSH2 0x66E PUSH1 0x4 DUP1 CALLDATASIZE SUB DUP2 ADD SWAP1 PUSH2 0x669 SWAP2 SWAP1 PUSH2 0x2D94 JUMP JUMPDEST PUSH2 0x1617 JUMP JUMPDEST STOP JUMPDEST CALLVALUE DUP1 ISZERO PUSH2 0x67B JUMPI PUSH0 DUP1 REVERT JUMPDEST POP PUSH2 0x696 PUSH1 0x4 DUP1 CALLDATASIZE SUB DUP2 ADD SWAP1 PUSH2 0x691 SWAP2 SWAP1 PUSH2 0x2ECF JUMP JUMPDEST PUSH2 0x1714 JUMP JUMPDEST PUSH1 0x40 MLOAD PUSH2 0x6A3 SWAP2 SWAP1 PUSH2 0x301C JUMP JUMPDEST PUSH1 0x40 MLOAD DUP1 SWAP2 SUB SWAP1 RETURN JUMPDEST CALLVALUE DUP1 ISZERO PUSH2 0x6B7 JUMPI PUSH0 DUP1 REVERT JUMPDEST POP PUSH2 0x6D2 PUSH1 0x4 DUP1 CALLDATASIZE SUB DUP2 ADD SWAP1 PUSH2 0x6CD SWAP2 SWAP1 PUSH2 0x3249 JUMP JUMPDEST PUSH2 0x17B5 JUMP JUMPDEST PUSH1 0x40 MLOAD PUSH2 0x6DF SWAP2 SWAP1 PUSH2 0x2C9E JUMP JUMPDEST PUSH1 0x40 MLOAD DUP1 SWAP2 SUB SWAP1 RETURN JUMPDEST CALLVALUE DUP1 ISZERO PUSH2 0x6F3 JUMPI PUSH0 DUP1 REVERT JUMPDEST POP PUSH2 0x70E PUSH1 0x4 DUP1 CALLDATASIZE SUB DUP2 ADD SWAP1 PUSH2 0x709 SWAP2 SWAP1 PUSH2 0x2ECF JUMP JUMPDEST PUSH2 0x1843 JUMP JUMPDEST STOP JUMPDEST CALLVALUE DUP1 ISZERO PUSH2 0x71B JUMPI PUSH0 DUP1 REVERT JUMPDEST POP PUSH2 0x724 PUSH2 0x18C5 JUMP JUMPDEST PUSH1 0x40 MLOAD PUSH2 0x731 SWAP2 SWAP1 PUSH2 0x32A7 JUMP JUMPDEST PUSH1 0x40 MLOAD DUP1 SWAP2 SUB SWAP1 RETURN JUMPDEST CALLVALUE DUP1 ISZERO PUSH2 0x745 JUMPI PUSH0 DUP1 REVERT JUMPDEST POP PUSH2 0x74E PUSH2 0x18EA JUMP JUMPDEST STOP JUMPDEST PUSH0 PUSH32 0x80AC58CD00000000000000000000000000000000000000000000000000000000 PUSH28 0xFFFFFFFFFFFFFFFFFFFFFFFFFFFFFFFFFFFFFFFFFFFFFFFFFFFFFFFF NOT AND DUP3 PUSH28 0xFFFFFFFFFFFFFFFFFFFFFFFFFFFFFFFFFFFFFFFFFFFFFFFFFFFFFFFF NOT AND EQ DUP1 PUSH2 0x81A JUMPI POP PUSH32 0x5B5E139F00000000000000000000000000000000000000000000000000000000 PUSH28 0xFFFFFFFFFFFFFFFFFFFFFFFFFFFFFFFFFFFFFFFFFFFFFFFFFFFFFFFF NOT AND DUP3 PUSH28 0xFFFFFFFFFFFFFFFFFFFFFFFFFFFFFFFFFFFFFFFFFFFFFFFFFFFFFFFF NOT AND EQ JUMPDEST DUP1 PUSH2 0x82A JUMPI POP PUSH2 0x829 DUP3 PUSH2 0x1AA6 JUMP JUMPDEST JUMPDEST SWAP1 POP SWAP2 SWAP1 POP JUMP JUMPDEST PUSH1 0x60 PUSH0 DUP1 SLOAD PUSH2 0x83F SWAP1 PUSH2 0x32ED JUMP JUMPDEST DUP1 PUSH1 0x1F ADD PUSH1 0x20 DUP1 SWAP2 DIV MUL PUSH1 0x20 ADD PUSH1 0x40 MLOAD SWAP1 DUP2 ADD PUSH1 0x40 MSTORE DUP1 SWAP3 SWAP2 SWAP1 DUP2 DUP2 MSTORE PUSH1 0x20 ADD DUP3 DUP1 SLOAD PUSH2 0x86B SWAP1 PUSH2 0x32ED JUMP JUMPDEST DUP1 ISZERO PUSH2 0x8B6 JUMPI DUP1 PUSH1 0x1F LT PUSH2 0x88D JUMPI PUSH2 0x100 DUP1 DUP4 SLOAD DIV MUL DUP4 MSTORE SWAP2 PUSH1 0x20 ADD SWAP2 PUSH2 0x8B6 JUMP JUMPDEST DUP3 ADD SWAP2 SWAP1 PUSH0 MSTORE PUSH1 0x20 PUSH0 KECCAK256 SWAP1 JUMPDEST DUP2 SLOAD DUP2 MSTORE SWAP1 PUSH1 0x1 ADD SWAP1 PUSH1 0x20 ADD DUP1 DUP4 GT PUSH2 0x899 JUMPI DUP3 SWAP1 SUB PUSH1 0x1F AND DUP3 ADD SWAP2 JUMPDEST POP POP POP POP POP SWAP1 POP SWAP1 JUMP JUMPDEST PUSH0 PUSH2 0x8CA DUP3 PUSH2 0x1B0F JUMP JUMPDEST PUSH1 0x4 PUSH0 DUP4 DUP2 MSTORE PUSH1 0x20 ADD SWAP1 DUP2 MSTORE PUSH1 0x20 ADD PUSH0 KECCAK256 PUSH0 SWAP1 SLOAD SWAP1 PUSH2 0x100 EXP SWAP1 DIV PUSH20 0xFFFFFFFFFFFFFFFFFFFFFFFFFFFFFFFFFFFFFFFF AND SWAP1 POP SWAP2 SWAP1 POP JUMP JUMPDEST PUSH0 PUSH2 0x90C DUP3 PUSH2 0xF14 JUMP JUMPDEST SWAP1 POP DUP1 PUSH20 0xFFFFFFFFFFFFFFFFFFFFFFFFFFFFFFFFFFFFFFFF AND DUP4 PUSH20 0xFFFFFFFFFFFFFFFFFFFFFFFFFFFFFFFFFFFFFFFF AND SUB PUSH2 0x97C JUMPI PUSH1 0x40 MLOAD PUSH32 0x8C379A000000000000000000000000000000000000000000000000000000000 DUP2 MSTORE PUSH1 0x4 ADD PUSH2 0x973 SWAP1 PUSH2 0x338D JUMP JUMPDEST PUSH1 0x40 MLOAD DUP1 SWAP2 SUB SWAP1 REVERT JUMPDEST DUP1 PUSH20 0xFFFFFFFFFFFFFFFFFFFFFFFFFFFFFFFFFFFFFFFF AND PUSH2 0x99B PUSH2 0x1B5A JUMP JUMPDEST PUSH20 0xFFFFFFFFFFFFFFFFFFFFFFFFFFFFFFFFFFFFFFFF AND EQ DUP1 PUSH2 0x9CA JUMPI POP PUSH2 0x9C9 DUP2 PUSH2 0x9C4 PUSH2 0x1B5A JUMP JUMPDEST PUSH2 0x17B5 JUMP JUMPDEST JUMPDEST PUSH2 0xA09 JUMPI PUSH1 0x40 MLOAD PUSH32 0x8C379A000000000000000000000000000000000000000000000000000000000 DUP2 MSTORE PUSH1 0x4 ADD PUSH2 0xA00 SWAP1 PUSH2 0x341B JUMP JUMPDEST PUSH1 0x40 MLOAD DUP1 SWAP2 SUB SWAP1 REVERT JUMPDEST PUSH2 0xA13 DUP4 DUP4 PUSH2 0x1B61 JUMP JUMPDEST POP POP POP JUMP JUMPDEST DUP1 PUSH1 0xC PUSH0 DUP3 DUP3 SLOAD PUSH2 0xA29 SWAP2 SWAP1 PUSH2 0x3466 JUMP JUMPDEST SWAP3 POP POP DUP2 SWAP1 SSTORE POP PUSH0 PUSH1 0xA PUSH0 SWAP1 SLOAD SWAP1 PUSH2 0x100 EXP SWAP1 DIV PUSH20 0xFFFFFFFFFFFFFFFFFFFFFFFFFFFFFFFFFFFFFFFF AND PUSH20 0xFFFFFFFFFFFFFFFFFFFFFFFFFFFFFFFFFFFFFFFF AND PUSH4 0x6F307DC3 PUSH1 0x40 MLOAD DUP2 PUSH4 0xFFFFFFFF AND PUSH1 0xE0 SHL DUP2 MSTORE PUSH1 0x4 ADD PUSH1 0x20 PUSH1 0x40 MLOAD DUP1 DUP4 SUB DUP2 DUP7 GAS STATICCALL ISZERO DUP1 ISZERO PUSH2 0xA9B JUMPI RETURNDATASIZE PUSH0 DUP1 RETURNDATACOPY RETURNDATASIZE PUSH0 REVERT JUMPDEST POP POP POP POP PUSH1 0x40 MLOAD RETURNDATASIZE PUSH1 0x1F NOT PUSH1 0x1F DUP3 ADD AND DUP3 ADD DUP1 PUSH1 0x40 MSTORE POP DUP2 ADD SWAP1 PUSH2 0xABF SWAP2 SWAP1 PUSH2 0x34AD JUMP JUMPDEST SWAP1 POP DUP1 PUSH20 0xFFFFFFFFFFFFFFFFFFFFFFFFFFFFFFFFFFFFFFFF AND PUSH4 0x95EA7B3 PUSH1 0xA PUSH0 SWAP1 SLOAD SWAP1 PUSH2 0x100 EXP SWAP1 DIV PUSH20 0xFFFFFFFFFFFFFFFFFFFFFFFFFFFFFFFFFFFFFFFF AND DUP5 PUSH1 0x40 MLOAD DUP4 PUSH4 0xFFFFFFFF AND PUSH1 0xE0 SHL DUP2 MSTORE PUSH1 0x4 ADD PUSH2 0xB1D SWAP3 SWAP2 SWAP1 PUSH2 0x34D8 JUMP JUMPDEST PUSH1 0x20 PUSH1 0x40 MLOAD DUP1 DUP4 SUB DUP2 PUSH0 DUP8 GAS CALL ISZERO DUP1 ISZERO PUSH2 0xB39 JUMPI RETURNDATASIZE PUSH0 DUP1 RETURNDATACOPY RETURNDATASIZE PUSH0 REVERT JUMPDEST POP POP POP POP PUSH1 0x40 MLOAD RETURNDATASIZE PUSH1 0x1F NOT PUSH1 0x1F DUP3 ADD AND DUP3 ADD DUP1 PUSH1 0x40 MSTORE POP DUP2 ADD SWAP1 PUSH2 0xB5D SWAP2 SWAP1 PUSH2 0x3513 JUMP JUMPDEST POP PUSH0 PUSH1 0xA PUSH0 SWAP1 SLOAD SWAP1 PUSH2 0x100 EXP SWAP1 DIV PUSH20 0xFFFFFFFFFFFFFFFFFFFFFFFFFFFFFFFFFFFFFFFF AND PUSH20 0xFFFFFFFFFFFFFFFFFFFFFFFFFFFFFFFFFFFFFFFF AND PUSH4 0xE752702 DUP5 PUSH1 0x40 MLOAD DUP3 PUSH4 0xFFFFFFFF AND PUSH1 0xE0 SHL DUP2 MSTORE PUSH1 0x4 ADD PUSH2 0xBB9 SWAP2 SWAP1 PUSH2 0x301C JUMP JUMPDEST PUSH1 0x20 PUSH1 0x40 MLOAD DUP1 DUP4 SUB DUP2 PUSH0 DUP8 GAS CALL ISZERO DUP1 ISZERO PUSH2 0xBD5 JUMPI RETURNDATASIZE PUSH0 DUP1 RETURNDATACOPY RETURNDATASIZE PUSH0 REVERT JUMPDEST POP POP POP POP PUSH1 0x40 MLOAD RETURNDATASIZE PUSH1 0x1F NOT PUSH1 0x1F DUP3 ADD AND DUP3 ADD DUP1 PUSH1 0x40 MSTORE POP DUP2 ADD SWAP1 PUSH2 0xBF9 SWAP2 SWAP1 PUSH2 0x3552 JUMP JUMPDEST SWAP1 POP PUSH0 DUP2 EQ PUSH2 0xC3D JUMPI PUSH1 0x40 MLOAD PUSH32 0x8C379A000000000000000000000000000000000000000000000000000000000 DUP2 MSTORE PUSH1 0x4 ADD PUSH2 0xC34 SWAP1 PUSH2 0x35C7 JUMP JUMPDEST PUSH1 0x40 MLOAD DUP1 SWAP2 SUB SWAP1 REVERT JUMPDEST POP POP POP JUMP JUMPDEST PUSH2 0xC53 PUSH2 0xC4D PUSH2 0x1B5A JUMP JUMPDEST DUP3 PUSH2 0x1C17 JUMP JUMPDEST PUSH2 0xC92 JUMPI PUSH1 0x40 MLOAD PUSH32 0x8C379A000000000000000000000000000000000000000000000000000000000 DUP2 MSTORE PUSH1 0x4 ADD PUSH2 0xC89 SWAP1 PUSH2 0x3655 JUMP JUMPDEST PUSH1 0x40 MLOAD DUP1 SWAP2 SUB SWAP1 REVERT JUMPDEST PUSH2 0xC9D DUP4 DUP4 DUP4 PUSH2 0x1CAB JUMP JUMPDEST POP POP POP JUMP JUMPDEST PUSH0 PUSH1 0xA PUSH0 SWAP1 SLOAD SWAP1 PUSH2 0x100 EXP SWAP1 DIV PUSH20 0xFFFFFFFFFFFFFFFFFFFFFFFFFFFFFFFFFFFFFFFF AND PUSH20 0xFFFFFFFFFFFFFFFFFFFFFFFFFFFFFFFFFFFFFFFF AND PUSH4 0xA0712D68 DUP4 PUSH1 0x40 MLOAD DUP3 PUSH4 0xFFFFFFFF AND PUSH1 0xE0 SHL DUP2 MSTORE PUSH1 0x4 ADD PUSH2 0xCFD SWAP2 SWAP1 PUSH2 0x301C JUMP JUMPDEST PUSH1 0x20 PUSH1 0x40 MLOAD DUP1 DUP4 SUB DUP2 PUSH0 DUP8 GAS CALL ISZERO DUP1 ISZERO PUSH2 0xD19 JUMPI RETURNDATASIZE PUSH0 DUP1 RETURNDATACOPY RETURNDATASIZE PUSH0 REVERT JUMPDEST POP POP POP POP PUSH1 0x40 MLOAD RETURNDATASIZE PUSH1 0x1F NOT PUSH1 0x1F DUP3 ADD AND DUP3 ADD DUP1 PUSH1 0x40 MSTORE POP DUP2 ADD SWAP1 PUSH2 0xD3D SWAP2 SWAP1 PUSH2 0x3552 JUMP JUMPDEST SWAP1 POP PUSH0 DUP2 EQ PUSH2 0xD81 JUMPI PUSH1 0x40 MLOAD PUSH32 0x8C379A000000000000000000000000000000000000000000000000000000000 DUP2 MSTORE PUSH1 0x4 ADD PUSH2 0xD78 SWAP1 PUSH2 0x36BD JUMP JUMPDEST PUSH1 0x40 MLOAD DUP1 SWAP2 SUB SWAP1 REVERT JUMPDEST PUSH2 0xD8A CALLER PUSH2 0xE4F JUMP JUMPDEST PUSH1 0xA PUSH0 SWAP1 SLOAD SWAP1 PUSH2 0x100 EXP SWAP1 DIV PUSH20 0xFFFFFFFFFFFFFFFFFFFFFFFFFFFFFFFFFFFFFFFF AND PUSH20 0xFFFFFFFFFFFFFFFFFFFFFFFFFFFFFFFFFFFFFFFF AND PUSH4 0x70A08231 ADDRESS PUSH1 0x40 MLOAD DUP3 PUSH4 0xFFFFFFFF AND PUSH1 0xE0 SHL DUP2 MSTORE PUSH1 0x4 ADD PUSH2 0xDE4 SWAP2 SWAP1 PUSH2 0x2DFE JUMP JUMPDEST PUSH1 0x20 PUSH1 0x40 MLOAD DUP1 DUP4 SUB DUP2 DUP7 GAS STATICCALL ISZERO DUP1 ISZERO PUSH2 0xDFF JUMPI RETURNDATASIZE PUSH0 DUP1 RETURNDATACOPY RETURNDATASIZE PUSH0 REVERT JUMPDEST POP POP POP POP PUSH1 0x40 MLOAD RETURNDATASIZE PUSH1 0x1F NOT PUSH1 0x1F DUP3 ADD AND DUP3 ADD DUP1 PUSH1 0x40 MSTORE POP DUP2 ADD SWAP1 PUSH2 0xE23 SWAP2 SWAP1 PUSH2 0x3552 JUMP JUMPDEST PUSH1 0xB PUSH0 PUSH1 0x1 PUSH2 0xE30 PUSH2 0x1DAE JUMP JUMPDEST PUSH2 0xE3A SWAP2 SWAP1 PUSH2 0x3466 JUMP JUMPDEST DUP2 MSTORE PUSH1 0x20 ADD SWAP1 DUP2 MSTORE PUSH1 0x20 ADD PUSH0 KECCAK256 DUP2 SWAP1 SSTORE POP POP POP JUMP JUMPDEST PUSH0 PUSH2 0xE5A PUSH1 0x7 PUSH2 0x1DBE JUMP JUMPDEST SWAP1 POP PUSH2 0xE66 PUSH1 0x7 PUSH2 0x1DCA JUMP JUMPDEST PUSH2 0xE70 DUP3 DUP3 PUSH2 0x1DDE JUMP JUMPDEST POP POP JUMP JUMPDEST PUSH2 0xE8E DUP4 DUP4 DUP4 PUSH1 0x40 MLOAD DUP1 PUSH1 0x20 ADD PUSH1 0x40 MSTORE DUP1 PUSH0 DUP2 MSTORE POP PUSH2 0x1455 JUMP JUMPDEST POP POP POP JUMP JUMPDEST PUSH2 0xEA4 PUSH2 0xE9E PUSH2 0x1B5A JUMP JUMPDEST DUP3 PUSH2 0x1C17 JUMP JUMPDEST PUSH2 0xEE3 JUMPI PUSH1 0x40 MLOAD PUSH32 0x8C379A000000000000000000000000000000000000000000000000000000000 DUP2 MSTORE PUSH1 0x4 ADD PUSH2 0xEDA SWAP1 PUSH2 0x3655 JUMP JUMPDEST PUSH1 0x40 MLOAD DUP1 SWAP2 SUB SWAP1 REVERT JUMPDEST PUSH2 0xEEC DUP2 PUSH2 0x1DFB JUMP JUMPDEST POP JUMP JUMPDEST PUSH1 0x8 PUSH0 SWAP1 SLOAD SWAP1 PUSH2 0x100 EXP SWAP1 DIV PUSH20 0xFFFFFFFFFFFFFFFFFFFFFFFFFFFFFFFFFFFFFFFF AND DUP2 JUMP JUMPDEST PUSH0 DUP1 PUSH2 0xF1F DUP4 PUSH2 0x1F3C JUMP JUMPDEST SWAP1 POP PUSH0 PUSH20 0xFFFFFFFFFFFFFFFFFFFFFFFFFFFFFFFFFFFFFFFF AND DUP2 PUSH20 0xFFFFFFFFFFFFFFFFFFFFFFFFFFFFFFFFFFFFFFFF AND SUB PUSH2 0xF8F JUMPI PUSH1 0x40 MLOAD PUSH32 0x8C379A000000000000000000000000000000000000000000000000000000000 DUP2 MSTORE PUSH1 0x4 ADD PUSH2 0xF86 SWAP1 PUSH2 0x3725 JUMP JUMPDEST PUSH1 0x40 MLOAD DUP1 SWAP2 SUB SWAP1 REVERT JUMPDEST DUP1 SWAP2 POP POP SWAP2 SWAP1 POP JUMP JUMPDEST PUSH1 0x9 PUSH0 SWAP1 SLOAD SWAP1 PUSH2 0x100 EXP SWAP1 DIV PUSH20 0xFFFFFFFFFFFFFFFFFFFFFFFFFFFFFFFFFFFFFFFF AND PUSH20 0xFFFFFFFFFFFFFFFFFFFFFFFFFFFFFFFFFFFFFFFF AND PUSH4 0xA9059CBB DUP4 DUP4 PUSH1 0x40 MLOAD DUP4 PUSH4 0xFFFFFFFF AND PUSH1 0xE0 SHL DUP2 MSTORE PUSH1 0x4 ADD PUSH2 0xFF4 SWAP3 SWAP2 SWAP1 PUSH2 0x34D8 JUMP JUMPDEST PUSH1 0x20 PUSH1 0x40 MLOAD DUP1 DUP4 SUB DUP2 PUSH0 DUP8 GAS CALL ISZERO DUP1 ISZERO PUSH2 0x1010 JUMPI RETURNDATASIZE PUSH0 DUP1 RETURNDATACOPY RETURNDATASIZE PUSH0 REVERT JUMPDEST POP POP POP POP PUSH1 0x40 MLOAD RETURNDATASIZE PUSH1 0x1F NOT PUSH1 0x1F DUP3 ADD AND DUP3 ADD DUP1 PUSH1 0x40 MSTORE POP DUP2 ADD SWAP1 PUSH2 0x1034 SWAP2 SWAP1 PUSH2 0x3513 JUMP JUMPDEST POP POP POP JUMP JUMPDEST PUSH1 0xA PUSH0 SWAP1 SLOAD SWAP1 PUSH2 0x100 EXP SWAP1 DIV PUSH20 0xFFFFFFFFFFFFFFFFFFFFFFFFFFFFFFFFFFFFFFFF AND DUP2 JUMP JUMPDEST PUSH0 CALLVALUE GT PUSH2 0x10A0 JUMPI PUSH1 0x40 MLOAD PUSH32 0x8C379A000000000000000000000000000000000000000000000000000000000 DUP2 MSTORE PUSH1 0x4 ADD PUSH2 0x1097 SWAP1 PUSH2 0x378D JUMP JUMPDEST PUSH1 0x40 MLOAD DUP1 SWAP2 SUB SWAP1 REVERT JUMPDEST DUP1 PUSH20 0xFFFFFFFFFFFFFFFFFFFFFFFFFFFFFFFFFFFFFFFF AND PUSH2 0x8FC CALLVALUE SWAP1 DUP2 ISZERO MUL SWAP1 PUSH1 0x40 MLOAD PUSH0 PUSH1 0x40 MLOAD DUP1 DUP4 SUB DUP2 DUP6 DUP9 DUP9 CALL SWAP4 POP POP POP POP ISZERO DUP1 ISZERO PUSH2 0x10E3 JUMPI RETURNDATASIZE PUSH0 DUP1 RETURNDATACOPY RETURNDATASIZE PUSH0 REVERT JUMPDEST POP POP JUMP JUMPDEST PUSH1 0x9 PUSH0 SWAP1 SLOAD SWAP1 PUSH2 0x100 EXP SWAP1 DIV PUSH20 0xFFFFFFFFFFFFFFFFFFFFFFFFFFFFFFFFFFFFFFFF AND PUSH20 0xFFFFFFFFFFFFFFFFFFFFFFFFFFFFFFFFFFFFFFFF AND PUSH4 0x95EA7B3 DUP4 DUP4 PUSH1 0x40 MLOAD DUP4 PUSH4 0xFFFFFFFF AND PUSH1 0xE0 SHL DUP2 MSTORE PUSH1 0x4 ADD PUSH2 0x1143 SWAP3 SWAP2 SWAP1 PUSH2 0x34D8 JUMP JUMPDEST PUSH1 0x20 PUSH1 0x40 MLOAD DUP1 DUP4 SUB DUP2 PUSH0 DUP8 GAS CALL ISZERO DUP1 ISZERO PUSH2 0x115F JUMPI RETURNDATASIZE PUSH0 DUP1 RETURNDATACOPY RETURNDATASIZE PUSH0 REVERT JUMPDEST POP POP POP POP PUSH1 0x40 MLOAD RETURNDATASIZE PUSH1 0x1F NOT PUSH1 0x1F DUP3 ADD AND DUP3 ADD DUP1 PUSH1 0x40 MSTORE POP DUP2 ADD SWAP1 PUSH2 0x1183 SWAP2 SWAP1 PUSH2 0x3513 JUMP JUMPDEST POP POP POP JUMP JUMPDEST PUSH0 DUP1 PUSH20 0xFFFFFFFFFFFFFFFFFFFFFFFFFFFFFFFFFFFFFFFF AND DUP3 PUSH20 0xFFFFFFFFFFFFFFFFFFFFFFFFFFFFFFFFFFFFFFFF AND SUB PUSH2 0x11F7 JUMPI PUSH1 0x40 MLOAD PUSH32 0x8C379A000000000000000000000000000000000000000000000000000000000 DUP2 MSTORE PUSH1 0x4 ADD PUSH2 0x11EE SWAP1 PUSH2 0x381B JUMP JUMPDEST PUSH1 0x40 MLOAD DUP1 SWAP2 SUB SWAP1 REVERT JUMPDEST PUSH1 0x3 PUSH0 DUP4 PUSH20 0xFFFFFFFFFFFFFFFFFFFFFFFFFFFFFFFFFFFFFFFF AND PUSH20 0xFFFFFFFFFFFFFFFFFFFFFFFFFFFFFFFFFFFFFFFF AND DUP2 MSTORE PUSH1 0x20 ADD SWAP1 DUP2 MSTORE PUSH1 0x20 ADD PUSH0 KECCAK256 SLOAD SWAP1 POP SWAP2 SWAP1 POP JUMP JUMPDEST PUSH2 0x1244 PUSH2 0x1F75 JUMP JUMPDEST PUSH2 0x124D PUSH0 PUSH2 0x1FF3 JUMP JUMPDEST JUMP JUMPDEST PUSH0 PUSH1 0x6 PUSH0 SWAP1 SLOAD SWAP1 PUSH2 0x100 EXP SWAP1 DIV PUSH20 0xFFFFFFFFFFFFFFFFFFFFFFFFFFFFFFFFFFFFFFFF AND SWAP1 POP SWAP1 JUMP JUMPDEST PUSH1 0x60 PUSH1 0x1 DUP1 SLOAD PUSH2 0x1286 SWAP1 PUSH2 0x32ED JUMP JUMPDEST DUP1 PUSH1 0x1F ADD PUSH1 0x20 DUP1 SWAP2 DIV MUL PUSH1 0x20 ADD PUSH1 0x40 MLOAD SWAP1 DUP2 ADD PUSH1 0x40 MSTORE DUP1 SWAP3 SWAP2 SWAP1 DUP2 DUP2 MSTORE PUSH1 0x20 ADD DUP3 DUP1 SLOAD PUSH2 0x12B2 SWAP1 PUSH2 0x32ED JUMP JUMPDEST DUP1 ISZERO PUSH2 0x12FD JUMPI DUP1 PUSH1 0x1F LT PUSH2 0x12D4 JUMPI PUSH2 0x100 DUP1 DUP4 SLOAD DIV MUL DUP4 MSTORE SWAP2 PUSH1 0x20 ADD SWAP2 PUSH2 0x12FD JUMP JUMPDEST DUP3 ADD SWAP2 SWAP1 PUSH0 MSTORE PUSH1 0x20 PUSH0 KECCAK256 SWAP1 JUMPDEST DUP2 SLOAD DUP2 MSTORE SWAP1 PUSH1 0x1 ADD SWAP1 PUSH1 0x20 ADD DUP1 DUP4 GT PUSH2 0x12E0 JUMPI DUP3 SWAP1 SUB PUSH1 0x1F AND DUP3 ADD SWAP2 JUMPDEST POP POP POP POP POP SWAP1 POP SWAP1 JUMP JUMPDEST PUSH1 0x9 PUSH0 SWAP1 SLOAD SWAP1 PUSH2 0x100 EXP SWAP1 DIV PUSH20 0xFFFFFFFFFFFFFFFFFFFFFFFFFFFFFFFFFFFFFFFF AND PUSH20 0xFFFFFFFFFFFFFFFFFFFFFFFFFFFFFFFFFFFFFFFF AND PUSH4 0x23B872DD DUP5 DUP5 DUP5 PUSH1 0x40 MLOAD DUP5 PUSH4 0xFFFFFFFF AND PUSH1 0xE0 SHL DUP2 MSTORE PUSH1 0x4 ADD PUSH2 0x1365 SWAP4 SWAP3 SWAP2 SWAP1 PUSH2 0x3839 JUMP JUMPDEST PUSH1 0x20 PUSH1 0x40 MLOAD DUP1 DUP4 SUB DUP2 PUSH0 DUP8 GAS CALL ISZERO DUP1 ISZERO PUSH2 0x1381 JUMPI RETURNDATASIZE PUSH0 DUP1 RETURNDATACOPY RETURNDATASIZE PUSH0 REVERT JUMPDEST POP POP POP POP PUSH1 0x40 MLOAD RETURNDATASIZE PUSH1 0x1F NOT PUSH1 0x1F DUP3 ADD AND DUP3 ADD DUP1 PUSH1 0x40 MSTORE POP DUP2 ADD SWAP1 PUSH2 0x13A5 SWAP2 SWAP1 PUSH2 0x3513 JUMP JUMPDEST POP POP POP POP JUMP JUMPDEST PUSH0 PUSH1 0xA PUSH0 SWAP1 SLOAD SWAP1 PUSH2 0x100 EXP SWAP1 DIV PUSH20 0xFFFFFFFFFFFFFFFFFFFFFFFFFFFFFFFFFFFFFFFF AND PUSH20 0xFFFFFFFFFFFFFFFFFFFFFFFFFFFFFFFFFFFFFFFF AND PUSH4 0x6F307DC3 PUSH1 0x40 MLOAD DUP2 PUSH4 0xFFFFFFFF AND PUSH1 0xE0 SHL DUP2 MSTORE PUSH1 0x4 ADD PUSH1 0x20 PUSH1 0x40 MLOAD DUP1 DUP4 SUB DUP2 DUP7 GAS STATICCALL ISZERO DUP1 ISZERO PUSH2 0x1416 JUMPI RETURNDATASIZE PUSH0 DUP1 RETURNDATACOPY RETURNDATASIZE PUSH0 REVERT JUMPDEST POP POP POP POP PUSH1 0x40 MLOAD RETURNDATASIZE PUSH1 0x1F NOT PUSH1 0x1F DUP3 ADD AND DUP3 ADD DUP1 PUSH1 0x40 MSTORE POP DUP2 ADD SWAP1 PUSH2 0x143A SWAP2 SWAP1 PUSH2 0x34AD JUMP JUMPDEST SWAP1 POP SWAP1 JUMP JUMPDEST PUSH2 0x1451 PUSH2 0x144A PUSH2 0x1B5A JUMP JUMPDEST DUP4 DUP4 PUSH2 0x20B6 JUMP JUMPDEST POP POP JUMP JUMPDEST PUSH2 0x1466 PUSH2 0x1460 PUSH2 0x1B5A JUMP JUMPDEST DUP4 PUSH2 0x1C17 JUMP JUMPDEST PUSH2 0x14A5 JUMPI PUSH1 0x40 MLOAD PUSH32 0x8C379A000000000000000000000000000000000000000000000000000000000 DUP2 MSTORE PUSH1 0x4 ADD PUSH2 0x149C SWAP1 PUSH2 0x3655 JUMP JUMPDEST PUSH1 0x40 MLOAD DUP1 SWAP2 SUB SWAP1 REVERT JUMPDEST PUSH2 0x14B1 DUP5 DUP5 DUP5 DUP5 PUSH2 0x221D JUMP JUMPDEST POP POP POP POP JUMP JUMPDEST DUP1 PUSH1 0xC PUSH0 DUP3 DUP3 SLOAD PUSH2 0x14C8 SWAP2 SWAP1 PUSH2 0x386E JUMP JUMPDEST SWAP3 POP POP DUP2 SWAP1 SSTORE POP PUSH0 PUSH1 0xA PUSH0 SWAP1 SLOAD SWAP1 PUSH2 0x100 EXP SWAP1 DIV PUSH20 0xFFFFFFFFFFFFFFFFFFFFFFFFFFFFFFFFFFFFFFFF AND PUSH20 0xFFFFFFFFFFFFFFFFFFFFFFFFFFFFFFFFFFFFFFFF AND PUSH4 0xC5EBEAEC DUP4 PUSH1 0x40 MLOAD DUP3 PUSH4 0xFFFFFFFF AND PUSH1 0xE0 SHL DUP2 MSTORE PUSH1 0x4 ADD PUSH2 0x152A SWAP2 SWAP1 PUSH2 0x301C JUMP JUMPDEST PUSH1 0x20 PUSH1 0x40 MLOAD DUP1 DUP4 SUB DUP2 PUSH0 DUP8 GAS CALL ISZERO DUP1 ISZERO PUSH2 0x1546 JUMPI RETURNDATASIZE PUSH0 DUP1 RETURNDATACOPY RETURNDATASIZE PUSH0 REVERT JUMPDEST POP POP POP POP PUSH1 0x40 MLOAD RETURNDATASIZE PUSH1 0x1F NOT PUSH1 0x1F DUP3 ADD AND DUP3 ADD DUP1 PUSH1 0x40 MSTORE POP DUP2 ADD SWAP1 PUSH2 0x156A SWAP2 SWAP1 PUSH2 0x3552 JUMP JUMPDEST SWAP1 POP PUSH0 DUP2 EQ PUSH2 0x15AE JUMPI PUSH1 0x40 MLOAD PUSH32 0x8C379A000000000000000000000000000000000000000000000000000000000 DUP2 MSTORE PUSH1 0x4 ADD PUSH2 0x15A5 SWAP1 PUSH2 0x38EB JUMP JUMPDEST PUSH1 0x40 MLOAD DUP1 SWAP2 SUB SWAP1 REVERT JUMPDEST POP POP JUMP JUMPDEST PUSH1 0x60 PUSH2 0x15BD DUP3 PUSH2 0x1B0F JUMP JUMPDEST PUSH0 PUSH2 0x15C6 PUSH2 0x2279 JUMP JUMPDEST SWAP1 POP PUSH0 DUP2 MLOAD GT PUSH2 0x15E4 JUMPI PUSH1 0x40 MLOAD DUP1 PUSH1 0x20 ADD PUSH1 0x40 MSTORE DUP1 PUSH0 DUP2 MSTORE POP PUSH2 0x160F JUMP JUMPDEST DUP1 PUSH2 0x15EE DUP5 PUSH2 0x228F JUMP JUMPDEST PUSH1 0x40 MLOAD PUSH1 0x20 ADD PUSH2 0x15FF SWAP3 SWAP2 SWAP1 PUSH2 0x3943 JUMP JUMPDEST PUSH1 0x40 MLOAD PUSH1 0x20 DUP2 DUP4 SUB SUB DUP2 MSTORE SWAP1 PUSH1 0x40 MSTORE JUMPDEST SWAP2 POP POP SWAP2 SWAP1 POP JUMP JUMPDEST PUSH0 PUSH1 0xA PUSH0 SWAP1 SLOAD SWAP1 PUSH2 0x100 EXP SWAP1 DIV PUSH20 0xFFFFFFFFFFFFFFFFFFFFFFFFFFFFFFFFFFFFFFFF AND PUSH20 0xFFFFFFFFFFFFFFFFFFFFFFFFFFFFFFFFFFFFFFFF AND PUSH4 0xDB006A75 PUSH1 0xB PUSH0 DUP6 DUP2 MSTORE PUSH1 0x20 ADD SWAP1 DUP2 MSTORE PUSH1 0x20 ADD PUSH0 KECCAK256 SLOAD PUSH1 0x40 MLOAD DUP3 PUSH4 0xFFFFFFFF AND PUSH1 0xE0 SHL DUP2 MSTORE PUSH1 0x4 ADD PUSH2 0x1683 SWAP2 SWAP1 PUSH2 0x301C JUMP JUMPDEST PUSH1 0x20 PUSH1 0x40 MLOAD DUP1 DUP4 SUB DUP2 PUSH0 DUP8 GAS CALL ISZERO DUP1 ISZERO PUSH2 0x169F JUMPI RETURNDATASIZE PUSH0 DUP1 RETURNDATACOPY RETURNDATASIZE PUSH0 REVERT JUMPDEST POP POP POP POP PUSH1 0x40 MLOAD RETURNDATASIZE PUSH1 0x1F NOT PUSH1 0x1F DUP3 ADD AND DUP3 ADD DUP1 PUSH1 0x40 MSTORE POP DUP2 ADD SWAP1 PUSH2 0x16C3 SWAP2 SWAP1 PUSH2 0x3552 JUMP JUMPDEST SWAP1 POP PUSH0 DUP2 EQ PUSH2 0x1707 JUMPI PUSH1 0x40 MLOAD PUSH32 0x8C379A000000000000000000000000000000000000000000000000000000000 DUP2 MSTORE PUSH1 0x4 ADD PUSH2 0x16FE SWAP1 PUSH2 0x39B0 JUMP JUMPDEST PUSH1 0x40 MLOAD DUP1 SWAP2 SUB SWAP1 REVERT JUMPDEST PUSH2 0x1710 DUP3 PUSH2 0x1DFB JUMP JUMPDEST POP POP JUMP JUMPDEST PUSH0 PUSH1 0x9 PUSH0 SWAP1 SLOAD SWAP1 PUSH2 0x100 EXP SWAP1 DIV PUSH20 0xFFFFFFFFFFFFFFFFFFFFFFFFFFFFFFFFFFFFFFFF AND PUSH20 0xFFFFFFFFFFFFFFFFFFFFFFFFFFFFFFFFFFFFFFFF AND PUSH4 0x70A08231 DUP4 PUSH1 0x40 MLOAD DUP3 PUSH4 0xFFFFFFFF AND PUSH1 0xE0 SHL DUP2 MSTORE PUSH1 0x4 ADD PUSH2 0x176F SWAP2 SWAP1 PUSH2 0x2DFE JUMP JUMPDEST PUSH1 0x20 PUSH1 0x40 MLOAD DUP1 DUP4 SUB DUP2 DUP7 GAS STATICCALL ISZERO DUP1 ISZERO PUSH2 0x178A JUMPI RETURNDATASIZE PUSH0 DUP1 RETURNDATACOPY RETURNDATASIZE PUSH0 REVERT JUMPDEST POP POP POP POP PUSH1 0x40 MLOAD RETURNDATASIZE PUSH1 0x1F NOT PUSH1 0x1F DUP3 ADD AND DUP3 ADD DUP1 PUSH1 0x40 MSTORE POP DUP2 ADD SWAP1 PUSH2 0x17AE SWAP2 SWAP1 PUSH2 0x3552 JUMP JUMPDEST SWAP1 POP SWAP2 SWAP1 POP JUMP JUMPDEST PUSH0 PUSH1 0x5 PUSH0 DUP5 PUSH20 0xFFFFFFFFFFFFFFFFFFFFFFFFFFFFFFFFFFFFFFFF AND PUSH20 0xFFFFFFFFFFFFFFFFFFFFFFFFFFFFFFFFFFFFFFFF AND DUP2 MSTORE PUSH1 0x20 ADD SWAP1 DUP2 MSTORE PUSH1 0x20 ADD PUSH0 KECCAK256 PUSH0 DUP4 PUSH20 0xFFFFFFFFFFFFFFFFFFFFFFFFFFFFFFFFFFFFFFFF AND PUSH20 0xFFFFFFFFFFFFFFFFFFFFFFFFFFFFFFFFFFFFFFFF AND DUP2 MSTORE PUSH1 0x20 ADD SWAP1 DUP2 MSTORE PUSH1 0x20 ADD PUSH0 KECCAK256 PUSH0 SWAP1 SLOAD SWAP1 PUSH2 0x100 EXP SWAP1 DIV PUSH1 0xFF AND SWAP1 POP SWAP3 SWAP2 POP POP JUMP JUMPDEST PUSH2 0x184B PUSH2 0x1F75 JUMP JUMPDEST PUSH0 PUSH20 0xFFFFFFFFFFFFFFFFFFFFFFFFFFFFFFFFFFFFFFFF AND DUP2 PUSH20 0xFFFFFFFFFFFFFFFFFFFFFFFFFFFFFFFFFFFFFFFF AND SUB PUSH2 0x18B9 JUMPI PUSH1 0x40 MLOAD PUSH32 0x8C379A000000000000000000000000000000000000000000000000000000000 DUP2 MSTORE PUSH1 0x4 ADD PUSH2 0x18B0 SWAP1 PUSH2 0x3A3E JUMP JUMPDEST PUSH1 0x40 MLOAD DUP1 SWAP2 SUB SWAP1 REVERT JUMPDEST PUSH2 0x18C2 DUP2 PUSH2 0x1FF3 JUMP JUMPDEST POP JUMP JUMPDEST PUSH1 0x9 PUSH0 SWAP1 SLOAD SWAP1 PUSH2 0x100 EXP SWAP1 DIV PUSH20 0xFFFFFFFFFFFFFFFFFFFFFFFFFFFFFFFFFFFFFFFF AND DUP2 JUMP JUMPDEST PUSH0 PUSH1 0x1 PUSH8 0xFFFFFFFFFFFFFFFF DUP2 GT ISZERO PUSH2 0x1906 JUMPI PUSH2 0x1905 PUSH2 0x30A5 JUMP JUMPDEST JUMPDEST PUSH1 0x40 MLOAD SWAP1 DUP1 DUP3 MSTORE DUP1 PUSH1 0x20 MUL PUSH1 0x20 ADD DUP3 ADD PUSH1 0x40 MSTORE DUP1 ISZERO PUSH2 0x1934 JUMPI DUP2 PUSH1 0x20 ADD PUSH1 0x20 DUP3 MUL DUP1 CALLDATASIZE DUP4 CALLDATACOPY DUP1 DUP3 ADD SWAP2 POP POP SWAP1 POP JUMPDEST POP SWAP1 POP PUSH1 0xA PUSH0 SWAP1 SLOAD SWAP1 PUSH2 0x100 EXP SWAP1 DIV PUSH20 0xFFFFFFFFFFFFFFFFFFFFFFFFFFFFFFFFFFFFFFFF AND DUP2 PUSH0 DUP2 MLOAD DUP2 LT PUSH2 0x196C JUMPI PUSH2 0x196B PUSH2 0x3A5C JUMP JUMPDEST JUMPDEST PUSH1 0x20 MUL PUSH1 0x20 ADD ADD SWAP1 PUSH20 0xFFFFFFFFFFFFFFFFFFFFFFFFFFFFFFFFFFFFFFFF AND SWAP1 DUP2 PUSH20 0xFFFFFFFFFFFFFFFFFFFFFFFFFFFFFFFFFFFFFFFF AND DUP2 MSTORE POP POP PUSH0 PUSH1 0x8 PUSH0 SWAP1 SLOAD SWAP1 PUSH2 0x100 EXP SWAP1 DIV PUSH20 0xFFFFFFFFFFFFFFFFFFFFFFFFFFFFFFFFFFFFFFFF AND PUSH20 0xFFFFFFFFFFFFFFFFFFFFFFFFFFFFFFFFFFFFFFFF AND PUSH4 0xC2998238 DUP4 PUSH1 0x40 MLOAD DUP3 PUSH4 0xFFFFFFFF AND PUSH1 0xE0 SHL DUP2 MSTORE PUSH1 0x4 ADD PUSH2 0x1A01 SWAP2 SWAP1 PUSH2 0x3B40 JUMP JUMPDEST PUSH0 PUSH1 0x40 MLOAD DUP1 DUP4 SUB DUP2 PUSH0 DUP8 GAS CALL ISZERO DUP1 ISZERO PUSH2 0x1A1C JUMPI RETURNDATASIZE PUSH0 DUP1 RETURNDATACOPY RETURNDATASIZE PUSH0 REVERT JUMPDEST POP POP POP POP PUSH1 0x40 MLOAD RETURNDATASIZE PUSH0 DUP3 RETURNDATACOPY RETURNDATASIZE PUSH1 0x1F NOT PUSH1 0x1F DUP3 ADD AND DUP3 ADD DUP1 PUSH1 0x40 MSTORE POP DUP2 ADD SWAP1 PUSH2 0x1A44 SWAP2 SWAP1 PUSH2 0x3C24 JUMP JUMPDEST SWAP1 POP PUSH0 DUP2 PUSH0 DUP2 MLOAD DUP2 LT PUSH2 0x1A5A JUMPI PUSH2 0x1A59 PUSH2 0x3A5C JUMP JUMPDEST JUMPDEST PUSH1 0x20 MUL PUSH1 0x20 ADD ADD MLOAD EQ PUSH2 0x1AA2 JUMPI PUSH1 0x40 MLOAD PUSH32 0x8C379A000000000000000000000000000000000000000000000000000000000 DUP2 MSTORE PUSH1 0x4 ADD PUSH2 0x1A99 SWAP1 PUSH2 0x3CB5 JUMP JUMPDEST PUSH1 0x40 MLOAD DUP1 SWAP2 SUB SWAP1 REVERT JUMPDEST POP POP JUMP JUMPDEST PUSH0 PUSH32 0x1FFC9A700000000000000000000000000000000000000000000000000000000 PUSH28 0xFFFFFFFFFFFFFFFFFFFFFFFFFFFFFFFFFFFFFFFFFFFFFFFFFFFFFFFF NOT AND DUP3 PUSH28 0xFFFFFFFFFFFFFFFFFFFFFFFFFFFFFFFFFFFFFFFFFFFFFFFFFFFFFFFF NOT AND EQ SWAP1 POP SWAP2 SWAP1 POP JUMP JUMPDEST PUSH2 0x1B18 DUP2 PUSH2 0x2359 JUMP JUMPDEST PUSH2 0x1B57 JUMPI PUSH1 0x40 MLOAD PUSH32 0x8C379A000000000000000000000000000000000000000000000000000000000 DUP2 MSTORE PUSH1 0x4 ADD PUSH2 0x1B4E SWAP1 PUSH2 0x3725 JUMP JUMPDEST PUSH1 0x40 MLOAD DUP1 SWAP2 SUB SWAP1 REVERT JUMPDEST POP JUMP JUMPDEST PUSH0 CALLER SWAP1 POP SWAP1 JUMP JUMPDEST DUP2 PUSH1 0x4 PUSH0 DUP4 DUP2 MSTORE PUSH1 0x20 ADD SWAP1 DUP2 MSTORE PUSH1 0x20 ADD PUSH0 KECCAK256 PUSH0 PUSH2 0x100 EXP DUP2 SLOAD DUP2 PUSH20 0xFFFFFFFFFFFFFFFFFFFFFFFFFFFFFFFFFFFFFFFF MUL NOT AND SWAP1 DUP4 PUSH20 0xFFFFFFFFFFFFFFFFFFFFFFFFFFFFFFFFFFFFFFFF AND MUL OR SWAP1 SSTORE POP DUP1 DUP3 PUSH20 0xFFFFFFFFFFFFFFFFFFFFFFFFFFFFFFFFFFFFFFFF AND PUSH2 0x1BD1 DUP4 PUSH2 0xF14 JUMP JUMPDEST PUSH20 0xFFFFFFFFFFFFFFFFFFFFFFFFFFFFFFFFFFFFFFFF AND PUSH32 0x8C5BE1E5EBEC7D5BD14F71427D1E84F3DD0314C0F7B2291E5B200AC8C7C3B925 PUSH1 0x40 MLOAD PUSH1 0x40 MLOAD DUP1 SWAP2 SUB SWAP1 LOG4 POP POP JUMP JUMPDEST PUSH0 DUP1 PUSH2 0x1C22 DUP4 PUSH2 0xF14 JUMP JUMPDEST SWAP1 POP DUP1 PUSH20 0xFFFFFFFFFFFFFFFFFFFFFFFFFFFFFFFFFFFFFFFF AND DUP5 PUSH20 0xFFFFFFFFFFFFFFFFFFFFFFFFFFFFFFFFFFFFFFFF AND EQ DUP1 PUSH2 0x1C64 JUMPI POP PUSH2 0x1C63 DUP2 DUP6 PUSH2 0x17B5 JUMP JUMPDEST JUMPDEST DUP1 PUSH2 0x1CA2 JUMPI POP DUP4 PUSH20 0xFFFFFFFFFFFFFFFFFFFFFFFFFFFFFFFFFFFFFFFF AND PUSH2 0x1C8A DUP5 PUSH2 0x8C0 JUMP JUMPDEST PUSH20 0xFFFFFFFFFFFFFFFFFFFFFFFFFFFFFFFFFFFFFFFF AND EQ JUMPDEST SWAP2 POP POP SWAP3 SWAP2 POP POP JUMP JUMPDEST PUSH0 PUSH1 0xA PUSH0 SWAP1 SLOAD SWAP1 PUSH2 0x100 EXP SWAP1 DIV PUSH20 0xFFFFFFFFFFFFFFFFFFFFFFFFFFFFFFFFFFFFFFFF AND PUSH20 0xFFFFFFFFFFFFFFFFFFFFFFFFFFFFFFFFFFFFFFFF AND PUSH4 0x23B872DD DUP6 DUP6 PUSH1 0xB PUSH0 DUP8 DUP2 MSTORE PUSH1 0x20 ADD SWAP1 DUP2 MSTORE PUSH1 0x20 ADD PUSH0 KECCAK256 SLOAD PUSH1 0x40 MLOAD DUP5 PUSH4 0xFFFFFFFF AND PUSH1 0xE0 SHL DUP2 MSTORE PUSH1 0x4 ADD PUSH2 0x1D1B SWAP4 SWAP3 SWAP2 SWAP1 PUSH2 0x3839 JUMP JUMPDEST PUSH1 0x20 PUSH1 0x40 MLOAD DUP1 DUP4 SUB DUP2 PUSH0 DUP8 GAS CALL ISZERO DUP1 ISZERO PUSH2 0x1D37 JUMPI RETURNDATASIZE PUSH0 DUP1 RETURNDATACOPY RETURNDATASIZE PUSH0 REVERT JUMPDEST POP POP POP POP PUSH1 0x40 MLOAD RETURNDATASIZE PUSH1 0x1F NOT PUSH1 0x1F DUP3 ADD AND DUP3 ADD DUP1 PUSH1 0x40 MSTORE POP DUP2 ADD SWAP1 PUSH2 0x1D5B SWAP2 SWAP1 PUSH2 0x3513 JUMP JUMPDEST SWAP1 POP DUP1 PUSH2 0x1D9D JUMPI PUSH1 0x40 MLOAD PUSH32 0x8C379A000000000000000000000000000000000000000000000000000000000 DUP2 MSTORE PUSH1 0x4 ADD PUSH2 0x1D94 SWAP1 PUSH2 0x3D1D JUMP JUMPDEST PUSH1 0x40 MLOAD DUP1 SWAP2 SUB SWAP1 REVERT JUMPDEST PUSH2 0x1DA8 DUP5 DUP5 DUP5 PUSH2 0x2399 JUMP JUMPDEST POP POP POP POP JUMP JUMPDEST PUSH0 PUSH2 0x1DB9 PUSH1 0x7 PUSH2 0x1DBE JUMP JUMPDEST SWAP1 POP SWAP1 JUMP JUMPDEST PUSH0 DUP2 PUSH0 ADD SLOAD SWAP1 POP SWAP2 SWAP1 POP JUMP JUMPDEST PUSH1 0x1 DUP2 PUSH0 ADD PUSH0 DUP3 DUP3 SLOAD ADD SWAP3 POP POP DUP2 SWAP1 SSTORE POP POP JUMP JUMPDEST PUSH2 0x1DF7 DUP3 DUP3 PUSH1 0x40 MLOAD DUP1 PUSH1 0x20 ADD PUSH1 0x40 MSTORE DUP1 PUSH0 DUP2 MSTORE POP PUSH2 0x2685 JUMP JUMPDEST POP POP JUMP JUMPDEST PUSH0 PUSH2 0x1E05 DUP3 PUSH2 0xF14 JUMP JUMPDEST SWAP1 POP PUSH2 0x1E14 DUP2 PUSH0 DUP5 PUSH1 0x1 PUSH2 0x26DF JUMP JUMPDEST PUSH2 0x1E1D DUP3 PUSH2 0xF14 JUMP JUMPDEST SWAP1 POP PUSH1 0x4 PUSH0 DUP4 DUP2 MSTORE PUSH1 0x20 ADD SWAP1 DUP2 MSTORE PUSH1 0x20 ADD PUSH0 KECCAK256 PUSH0 PUSH2 0x100 EXP DUP2 SLOAD SWAP1 PUSH20 0xFFFFFFFFFFFFFFFFFFFFFFFFFFFFFFFFFFFFFFFF MUL NOT AND SWAP1 SSTORE PUSH1 0x1 PUSH1 0x3 PUSH0 DUP4 PUSH20 0xFFFFFFFFFFFFFFFFFFFFFFFFFFFFFFFFFFFFFFFF AND PUSH20 0xFFFFFFFFFFFFFFFFFFFFFFFFFFFFFFFFFFFFFFFF AND DUP2 MSTORE PUSH1 0x20 ADD SWAP1 DUP2 MSTORE PUSH1 0x20 ADD PUSH0 KECCAK256 PUSH0 DUP3 DUP3 SLOAD SUB SWAP3 POP POP DUP2 SWAP1 SSTORE POP PUSH1 0x2 PUSH0 DUP4 DUP2 MSTORE PUSH1 0x20 ADD SWAP1 DUP2 MSTORE PUSH1 0x20 ADD PUSH0 KECCAK256 PUSH0 PUSH2 0x100 EXP DUP2 SLOAD SWAP1 PUSH20 0xFFFFFFFFFFFFFFFFFFFFFFFFFFFFFFFFFFFFFFFF MUL NOT AND SWAP1 SSTORE DUP2 PUSH0 PUSH20 0xFFFFFFFFFFFFFFFFFFFFFFFFFFFFFFFFFFFFFFFF AND DUP3 PUSH20 0xFFFFFFFFFFFFFFFFFFFFFFFFFFFFFFFFFFFFFFFF AND PUSH32 0xDDF252AD1BE2C89B69C2B068FC378DAA952BA7F163C4A11628F55A4DF523B3EF PUSH1 0x40 MLOAD PUSH1 0x40 MLOAD DUP1 SWAP2 SUB SWAP1 LOG4 PUSH2 0x1F38 DUP2 PUSH0 DUP5 PUSH1 0x1 PUSH2 0x26E5 JUMP JUMPDEST POP POP JUMP JUMPDEST PUSH0 PUSH1 0x2 PUSH0 DUP4 DUP2 MSTORE PUSH1 0x20 ADD SWAP1 DUP2 MSTORE PUSH1 0x20 ADD PUSH0 KECCAK256 PUSH0 SWAP1 SLOAD SWAP1 PUSH2 0x100 EXP SWAP1 DIV PUSH20 0xFFFFFFFFFFFFFFFFFFFFFFFFFFFFFFFFFFFFFFFF AND SWAP1 POP SWAP2 SWAP1 POP JUMP JUMPDEST PUSH2 0x1F7D PUSH2 0x1B5A JUMP JUMPDEST PUSH20 0xFFFFFFFFFFFFFFFFFFFFFFFFFFFFFFFFFFFFFFFF AND PUSH2 0x1F9B PUSH2 0x124F JUMP JUMPDEST PUSH20 0xFFFFFFFFFFFFFFFFFFFFFFFFFFFFFFFFFFFFFFFF AND EQ PUSH2 0x1FF1 JUMPI PUSH1 0x40 MLOAD PUSH32 0x8C379A000000000000000000000000000000000000000000000000000000000 DUP2 MSTORE PUSH1 0x4 ADD PUSH2 0x1FE8 SWAP1 PUSH2 0x3D85 JUMP JUMPDEST PUSH1 0x40 MLOAD DUP1 SWAP2 SUB SWAP1 REVERT JUMPDEST JUMP JUMPDEST PUSH0 PUSH1 0x6 PUSH0 SWAP1 SLOAD SWAP1 PUSH2 0x100 EXP SWAP1 DIV PUSH20 0xFFFFFFFFFFFFFFFFFFFFFFFFFFFFFFFFFFFFFFFF AND SWAP1 POP DUP2 PUSH1 0x6 PUSH0 PUSH2 0x100 EXP DUP2 SLOAD DUP2 PUSH20 0xFFFFFFFFFFFFFFFFFFFFFFFFFFFFFFFFFFFFFFFF MUL NOT AND SWAP1 DUP4 PUSH20 0xFFFFFFFFFFFFFFFFFFFFFFFFFFFFFFFFFFFFFFFF AND MUL OR SWAP1 SSTORE POP DUP2 PUSH20 0xFFFFFFFFFFFFFFFFFFFFFFFFFFFFFFFFFFFFFFFF AND DUP2 PUSH20 0xFFFFFFFFFFFFFFFFFFFFFFFFFFFFFFFFFFFFFFFF AND PUSH32 0x8BE0079C531659141344CD1FD0A4F28419497F9722A3DAAFE3B4186F6B6457E0 PUSH1 0x40 MLOAD PUSH1 0x40 MLOAD DUP1 SWAP2 SUB SWAP1 LOG3 POP POP JUMP JUMPDEST DUP2 PUSH20 0xFFFFFFFFFFFFFFFFFFFFFFFFFFFFFFFFFFFFFFFF AND DUP4 PUSH20 0xFFFFFFFFFFFFFFFFFFFFFFFFFFFFFFFFFFFFFFFF AND SUB PUSH2 0x2124 JUMPI PUSH1 0x40 MLOAD PUSH32 0x8C379A000000000000000000000000000000000000000000000000000000000 DUP2 MSTORE PUSH1 0x4 ADD PUSH2 0x211B SWAP1 PUSH2 0x3DED JUMP JUMPDEST PUSH1 0x40 MLOAD DUP1 SWAP2 SUB SWAP1 REVERT JUMPDEST DUP1 PUSH1 0x5 PUSH0 DUP6 PUSH20 0xFFFFFFFFFFFFFFFFFFFFFFFFFFFFFFFFFFFFFFFF AND PUSH20 0xFFFFFFFFFFFFFFFFFFFFFFFFFFFFFFFFFFFFFFFF AND DUP2 MSTORE PUSH1 0x20 ADD SWAP1 DUP2 MSTORE PUSH1 0x20 ADD PUSH0 KECCAK256 PUSH0 DUP5 PUSH20 0xFFFFFFFFFFFFFFFFFFFFFFFFFFFFFFFFFFFFFFFF AND PUSH20 0xFFFFFFFFFFFFFFFFFFFFFFFFFFFFFFFFFFFFFFFF AND DUP2 MSTORE PUSH1 0x20 ADD SWAP1 DUP2 MSTORE PUSH1 0x20 ADD PUSH0 KECCAK256 PUSH0 PUSH2 0x100 EXP DUP2 SLOAD DUP2 PUSH1 0xFF MUL NOT AND SWAP1 DUP4 ISZERO ISZERO MUL OR SWAP1 SSTORE POP DUP2 PUSH20 0xFFFFFFFFFFFFFFFFFFFFFFFFFFFFFFFFFFFFFFFF AND DUP4 PUSH20 0xFFFFFFFFFFFFFFFFFFFFFFFFFFFFFFFFFFFFFFFF AND PUSH32 0x17307EAB39AB6107E8899845AD3D59BD9653F200F220920489CA2B5937696C31 DUP4 PUSH1 0x40 MLOAD PUSH2 0x2210 SWAP2 SWAP1 PUSH2 0x2C9E JUMP JUMPDEST PUSH1 0x40 MLOAD DUP1 SWAP2 SUB SWAP1 LOG3 POP POP POP JUMP JUMPDEST PUSH2 0x2228 DUP5 DUP5 DUP5 PUSH2 0x1CAB JUMP JUMPDEST PUSH2 0x2234 DUP5 DUP5 DUP5 DUP5 PUSH2 0x26EB JUMP JUMPDEST PUSH2 0x2273 JUMPI PUSH1 0x40 MLOAD PUSH32 0x8C379A000000000000000000000000000000000000000000000000000000000 DUP2 MSTORE PUSH1 0x4 ADD PUSH2 0x226A SWAP1 PUSH2 0x3E7B JUMP JUMPDEST PUSH1 0x40 MLOAD DUP1 SWAP2 SUB SWAP1 REVERT JUMPDEST POP POP POP POP JUMP JUMPDEST PUSH1 0x60 PUSH1 0x40 MLOAD DUP1 PUSH1 0x20 ADD PUSH1 0x40 MSTORE DUP1 PUSH0 DUP2 MSTORE POP SWAP1 POP SWAP1 JUMP JUMPDEST PUSH1 0x60 PUSH0 PUSH1 0x1 PUSH2 0x229D DUP5 PUSH2 0x286D JUMP JUMPDEST ADD SWAP1 POP PUSH0 DUP2 PUSH8 0xFFFFFFFFFFFFFFFF DUP2 GT ISZERO PUSH2 0x22BB JUMPI PUSH2 0x22BA PUSH2 0x30A5 JUMP JUMPDEST JUMPDEST PUSH1 0x40 MLOAD SWAP1 DUP1 DUP3 MSTORE DUP1 PUSH1 0x1F ADD PUSH1 0x1F NOT AND PUSH1 0x20 ADD DUP3 ADD PUSH1 0x40 MSTORE DUP1 ISZERO PUSH2 0x22ED JUMPI DUP2 PUSH1 0x20 ADD PUSH1 0x1 DUP3 MUL DUP1 CALLDATASIZE DUP4 CALLDATACOPY DUP1 DUP3 ADD SWAP2 POP POP SWAP1 POP JUMPDEST POP SWAP1 POP PUSH0 DUP3 PUSH1 0x20 ADD DUP3 ADD SWAP1 POP JUMPDEST PUSH1 0x1 ISZERO PUSH2 0x234E JUMPI DUP1 DUP1 PUSH1 0x1 SWAP1 SUB SWAP2 POP POP PUSH32 0x3031323334353637383961626364656600000000000000000000000000000000 PUSH1 0xA DUP7 MOD BYTE DUP2 MSTORE8 PUSH1 0xA DUP6 DUP2 PUSH2 0x2343 JUMPI PUSH2 0x2342 PUSH2 0x3E99 JUMP JUMPDEST JUMPDEST DIV SWAP5 POP PUSH0 DUP6 SUB PUSH2 0x22FA JUMPI JUMPDEST DUP2 SWAP4 POP POP POP POP SWAP2 SWAP1 POP JUMP JUMPDEST PUSH0 DUP1 PUSH20 0xFFFFFFFFFFFFFFFFFFFFFFFFFFFFFFFFFFFFFFFF AND PUSH2 0x237A DUP4 PUSH2 0x1F3C JUMP JUMPDEST PUSH20 0xFFFFFFFFFFFFFFFFFFFFFFFFFFFFFFFFFFFFFFFF AND EQ ISZERO SWAP1 POP SWAP2 SWAP1 POP JUMP JUMPDEST DUP3 PUSH20 0xFFFFFFFFFFFFFFFFFFFFFFFFFFFFFFFFFFFFFFFF AND PUSH2 0x23B9 DUP3 PUSH2 0xF14 JUMP JUMPDEST PUSH20 0xFFFFFFFFFFFFFFFFFFFFFFFFFFFFFFFFFFFFFFFF AND EQ PUSH2 0x240F JUMPI PUSH1 0x40 MLOAD PUSH32 0x8C379A000000000000000000000000000000000000000000000000000000000 DUP2 MSTORE PUSH1 0x4 ADD PUSH2 0x2406 SWAP1 PUSH2 0x3F36 JUMP JUMPDEST PUSH1 0x40 MLOAD DUP1 SWAP2 SUB SWAP1 REVERT JUMPDEST PUSH0 PUSH20 0xFFFFFFFFFFFFFFFFFFFFFFFFFFFFFFFFFFFFFFFF AND DUP3 PUSH20 0xFFFFFFFFFFFFFFFFFFFFFFFFFFFFFFFFFFFFFFFF AND SUB PUSH2 0x247D JUMPI PUSH1 0x40 MLOAD PUSH32 0x8C379A000000000000000000000000000000000000000000000000000000000 DUP2 MSTORE PUSH1 0x4 ADD PUSH2 0x2474 SWAP1 PUSH2 0x3FC4 JUMP JUMPDEST PUSH1 0x40 MLOAD DUP1 SWAP2 SUB SWAP1 REVERT JUMPDEST PUSH2 0x248A DUP4 DUP4 DUP4 PUSH1 0x1 PUSH2 0x26DF JUMP JUMPDEST DUP3 PUSH20 0xFFFFFFFFFFFFFFFFFFFFFFFFFFFFFFFFFFFFFFFF AND PUSH2 0x24AA DUP3 PUSH2 0xF14 JUMP JUMPDEST PUSH20 0xFFFFFFFFFFFFFFFFFFFFFFFFFFFFFFFFFFFFFFFF AND EQ PUSH2 0x2500 JUMPI PUSH1 0x40 MLOAD PUSH32 0x8C379A000000000000000000000000000000000000000000000000000000000 DUP2 MSTORE PUSH1 0x4 ADD PUSH2 0x24F7 SWAP1 PUSH2 0x3F36 JUMP JUMPDEST PUSH1 0x40 MLOAD DUP1 SWAP2 SUB SWAP1 REVERT JUMPDEST PUSH1 0x4 PUSH0 DUP3 DUP2 MSTORE PUSH1 0x20 ADD SWAP1 DUP2 MSTORE PUSH1 0x20 ADD PUSH0 KECCAK256 PUSH0 PUSH2 0x100 EXP DUP2 SLOAD SWAP1 PUSH20 0xFFFFFFFFFFFFFFFFFFFFFFFFFFFFFFFFFFFFFFFF MUL NOT AND SWAP1 SSTORE PUSH1 0x1 PUSH1 0x3 PUSH0 DUP6 PUSH20 0xFFFFFFFFFFFFFFFFFFFFFFFFFFFFFFFFFFFFFFFF AND PUSH20 0xFFFFFFFFFFFFFFFFFFFFFFFFFFFFFFFFFFFFFFFF AND DUP2 MSTORE PUSH1 0x20 ADD SWAP1 DUP2 MSTORE PUSH1 0x20 ADD PUSH0 KECCAK256 PUSH0 DUP3 DUP3 SLOAD SUB SWAP3 POP POP DUP2 SWAP1 SSTORE POP PUSH1 0x1 PUSH1 0x3 PUSH0 DUP5 PUSH20 0xFFFFFFFFFFFFFFFFFFFFFFFFFFFFFFFFFFFFFFFF AND PUSH20 0xFFFFFFFFFFFFFFFFFFFFFFFFFFFFFFFFFFFFFFFF AND DUP2 MSTORE PUSH1 0x20 ADD SWAP1 DUP2 MSTORE PUSH1 0x20 ADD PUSH0 KECCAK256 PUSH0 DUP3 DUP3 SLOAD ADD SWAP3 POP POP DUP2 SWAP1 SSTORE POP DUP2 PUSH1 0x2 PUSH0 DUP4 DUP2 MSTORE PUSH1 0x20 ADD SWAP1 DUP2 MSTORE PUSH1 0x20 ADD PUSH0 KECCAK256 PUSH0 PUSH2 0x100 EXP DUP2 SLOAD DUP2 PUSH20 0xFFFFFFFFFFFFFFFFFFFFFFFFFFFFFFFFFFFFFFFF MUL NOT AND SWAP1 DUP4 PUSH20 0xFFFFFFFFFFFFFFFFFFFFFFFFFFFFFFFFFFFFFFFF AND MUL OR SWAP1 SSTORE POP DUP1 DUP3 PUSH20 0xFFFFFFFFFFFFFFFFFFFFFFFFFFFFFFFFFFFFFFFF AND DUP5 PUSH20 0xFFFFFFFFFFFFFFFFFFFFFFFFFFFFFFFFFFFFFFFF AND PUSH32 0xDDF252AD1BE2C89B69C2B068FC378DAA952BA7F163C4A11628F55A4DF523B3EF PUSH1 0x40 MLOAD PUSH1 0x40 MLOAD DUP1 SWAP2 SUB SWAP1 LOG4 PUSH2 0x2680 DUP4 DUP4 DUP4 PUSH1 0x1 PUSH2 0x26E5 JUMP JUMPDEST POP POP POP JUMP JUMPDEST PUSH2 0x268F DUP4 DUP4 PUSH2 0x29BE JUMP JUMPDEST PUSH2 0x269B PUSH0 DUP5 DUP5 DUP5 PUSH2 0x26EB JUMP JUMPDEST PUSH2 0x26DA JUMPI PUSH1 0x40 MLOAD PUSH32 0x8C379A000000000000000000000000000000000000000000000000000000000 DUP2 MSTORE PUSH1 0x4 ADD PUSH2 0x26D1 SWAP1 PUSH2 0x3E7B JUMP JUMPDEST PUSH1 0x40 MLOAD DUP1 SWAP2 SUB SWAP1 REVERT JUMPDEST POP POP POP JUMP JUMPDEST POP POP POP POP JUMP JUMPDEST POP POP POP POP JUMP JUMPDEST PUSH0 PUSH2 0x270B DUP5 PUSH20 0xFFFFFFFFFFFFFFFFFFFFFFFFFFFFFFFFFFFFFFFF AND PUSH2 0x2BD1 JUMP JUMPDEST ISZERO PUSH2 0x2860 JUMPI DUP4 PUSH20 0xFFFFFFFFFFFFFFFFFFFFFFFFFFFFFFFFFFFFFFFF AND PUSH4 0x150B7A02 PUSH2 0x2734 PUSH2 0x1B5A JUMP JUMPDEST DUP8 DUP7 DUP7 PUSH1 0x40 MLOAD DUP6 PUSH4 0xFFFFFFFF AND PUSH1 0xE0 SHL DUP2 MSTORE PUSH1 0x4 ADD PUSH2 0x2756 SWAP5 SWAP4 SWAP3 SWAP2 SWAP1 PUSH2 0x4034 JUMP JUMPDEST PUSH1 0x20 PUSH1 0x40 MLOAD DUP1 DUP4 SUB DUP2 PUSH0 DUP8 GAS CALL SWAP3 POP POP POP DUP1 ISZERO PUSH2 0x2791 JUMPI POP PUSH1 0x40 MLOAD RETURNDATASIZE PUSH1 0x1F NOT PUSH1 0x1F DUP3 ADD AND DUP3 ADD DUP1 PUSH1 0x40 MSTORE POP DUP2 ADD SWAP1 PUSH2 0x278E SWAP2 SWAP1 PUSH2 0x4092 JUMP JUMPDEST PUSH1 0x1 JUMPDEST PUSH2 0x2810 JUMPI RETURNDATASIZE DUP1 PUSH0 DUP2 EQ PUSH2 0x27BF JUMPI PUSH1 0x40 MLOAD SWAP2 POP PUSH1 0x1F NOT PUSH1 0x3F RETURNDATASIZE ADD AND DUP3 ADD PUSH1 0x40 MSTORE RETURNDATASIZE DUP3 MSTORE RETURNDATASIZE PUSH0 PUSH1 0x20 DUP5 ADD RETURNDATACOPY PUSH2 0x27C4 JUMP JUMPDEST PUSH1 0x60 SWAP2 POP JUMPDEST POP PUSH0 DUP2 MLOAD SUB PUSH2 0x2808 JUMPI PUSH1 0x40 MLOAD PUSH32 0x8C379A000000000000000000000000000000000000000000000000000000000 DUP2 MSTORE PUSH1 0x4 ADD PUSH2 0x27FF SWAP1 PUSH2 0x3E7B JUMP JUMPDEST PUSH1 0x40 MLOAD DUP1 SWAP2 SUB SWAP1 REVERT JUMPDEST DUP1 MLOAD DUP2 PUSH1 0x20 ADD REVERT JUMPDEST PUSH4 0x150B7A02 PUSH1 0xE0 SHL PUSH28 0xFFFFFFFFFFFFFFFFFFFFFFFFFFFFFFFFFFFFFFFFFFFFFFFFFFFFFFFF NOT AND DUP2 PUSH28 0xFFFFFFFFFFFFFFFFFFFFFFFFFFFFFFFFFFFFFFFFFFFFFFFFFFFFFFFF NOT AND EQ SWAP2 POP POP PUSH2 0x2865 JUMP JUMPDEST PUSH1 0x1 SWAP1 POP JUMPDEST SWAP5 SWAP4 POP POP POP POP JUMP JUMPDEST PUSH0 DUP1 PUSH0 SWAP1 POP PUSH27 0x184F03E93FF9F4DAA797ED6E38ED64BF6A1F010000000000000000 DUP4 LT PUSH2 0x28C9 JUMPI PUSH27 0x184F03E93FF9F4DAA797ED6E38ED64BF6A1F010000000000000000 DUP4 DUP2 PUSH2 0x28BF JUMPI PUSH2 0x28BE PUSH2 0x3E99 JUMP JUMPDEST JUMPDEST DIV SWAP3 POP PUSH1 0x40 DUP2 ADD SWAP1 POP JUMPDEST PUSH14 0x4EE2D6D415B85ACEF8100000000 DUP4 LT PUSH2 0x2906 JUMPI PUSH14 0x4EE2D6D415B85ACEF8100000000 DUP4 DUP2 PUSH2 0x28FC JUMPI PUSH2 0x28FB PUSH2 0x3E99 JUMP JUMPDEST JUMPDEST DIV SWAP3 POP PUSH1 0x20 DUP2 ADD SWAP1 POP JUMPDEST PUSH7 0x2386F26FC10000 DUP4 LT PUSH2 0x2935 JUMPI PUSH7 0x2386F26FC10000 DUP4 DUP2 PUSH2 0x292B JUMPI PUSH2 0x292A PUSH2 0x3E99 JUMP JUMPDEST JUMPDEST DIV SWAP3 POP PUSH1 0x10 DUP2 ADD SWAP1 POP JUMPDEST PUSH4 0x5F5E100 DUP4 LT PUSH2 0x295E JUMPI PUSH4 0x5F5E100 DUP4 DUP2 PUSH2 0x2954 JUMPI PUSH2 0x2953 PUSH2 0x3E99 JUMP JUMPDEST JUMPDEST DIV SWAP3 POP PUSH1 0x8 DUP2 ADD SWAP1 POP JUMPDEST PUSH2 0x2710 DUP4 LT PUSH2 0x2983 JUMPI PUSH2 0x2710 DUP4 DUP2 PUSH2 0x2979 JUMPI PUSH2 0x2978 PUSH2 0x3E99 JUMP JUMPDEST JUMPDEST DIV SWAP3 POP PUSH1 0x4 DUP2 ADD SWAP1 POP JUMPDEST PUSH1 0x64 DUP4 LT PUSH2 0x29A6 JUMPI PUSH1 0x64 DUP4 DUP2 PUSH2 0x299C JUMPI PUSH2 0x299B PUSH2 0x3E99 JUMP JUMPDEST JUMPDEST DIV SWAP3 POP PUSH1 0x2 DUP2 ADD SWAP1 POP JUMPDEST PUSH1 0xA DUP4 LT PUSH2 0x29B5 JUMPI PUSH1 0x1 DUP2 ADD SWAP1 POP JUMPDEST DUP1 SWAP2 POP POP SWAP2 SWAP1 POP JUMP JUMPDEST PUSH0 PUSH20 0xFFFFFFFFFFFFFFFFFFFFFFFFFFFFFFFFFFFFFFFF AND DUP3 PUSH20 0xFFFFFFFFFFFFFFFFFFFFFFFFFFFFFFFFFFFFFFFF AND SUB PUSH2 0x2A2C JUMPI PUSH1 0x40 MLOAD PUSH32 0x8C379A000000000000000000000000000000000000000000000000000000000 DUP2 MSTORE PUSH1 0x4 ADD PUSH2 0x2A23 SWAP1 PUSH2 0x4107 JUMP JUMPDEST PUSH1 0x40 MLOAD DUP1 SWAP2 SUB SWAP1 REVERT JUMPDEST PUSH2 0x2A35 DUP2 PUSH2 0x2359 JUMP JUMPDEST ISZERO PUSH2 0x2A75 JUMPI PUSH1 0x40 MLOAD PUSH32 0x8C379A000000000000000000000000000000000000000000000000000000000 DUP2 MSTORE PUSH1 0x4 ADD PUSH2 0x2A6C SWAP1 PUSH2 0x416F JUMP JUMPDEST PUSH1 0x40 MLOAD DUP1 SWAP2 SUB SWAP1 REVERT JUMPDEST PUSH2 0x2A82 PUSH0 DUP4 DUP4 PUSH1 0x1 PUSH2 0x26DF JUMP JUMPDEST PUSH2 0x2A8B DUP2 PUSH2 0x2359 JUMP JUMPDEST ISZERO PUSH2 0x2ACB JUMPI PUSH1 0x40 MLOAD PUSH32 0x8C379A000000000000000000000000000000000000000000000000000000000 DUP2 MSTORE PUSH1 0x4 ADD PUSH2 0x2AC2 SWAP1 PUSH2 0x416F JUMP JUMPDEST PUSH1 0x40 MLOAD DUP1 SWAP2 SUB SWAP1 REVERT JUMPDEST PUSH1 0x1 PUSH1 0x3 PUSH0 DUP5 PUSH20 0xFFFFFFFFFFFFFFFFFFFFFFFFFFFFFFFFFFFFFFFF AND PUSH20 0xFFFFFFFFFFFFFFFFFFFFFFFFFFFFFFFFFFFFFFFF AND DUP2 MSTORE PUSH1 0x20 ADD SWAP1 DUP2 MSTORE PUSH1 0x20 ADD PUSH0 KECCAK256 PUSH0 DUP3 DUP3 SLOAD ADD SWAP3 POP POP DUP2 SWAP1 SSTORE POP DUP2 PUSH1 0x2 PUSH0 DUP4 DUP2 MSTORE PUSH1 0x20 ADD SWAP1 DUP2 MSTORE PUSH1 0x20 ADD PUSH0 KECCAK256 PUSH0 PUSH2 0x100 EXP DUP2 SLOAD DUP2 PUSH20 0xFFFFFFFFFFFFFFFFFFFFFFFFFFFFFFFFFFFFFFFF MUL NOT AND SWAP1 DUP4 PUSH20 0xFFFFFFFFFFFFFFFFFFFFFFFFFFFFFFFFFFFFFFFF AND MUL OR SWAP1 SSTORE POP DUP1 DUP3 PUSH20 0xFFFFFFFFFFFFFFFFFFFFFFFFFFFFFFFFFFFFFFFF AND PUSH0 PUSH20 0xFFFFFFFFFFFFFFFFFFFFFFFFFFFFFFFFFFFFFFFF AND PUSH32 0xDDF252AD1BE2C89B69C2B068FC378DAA952BA7F163C4A11628F55A4DF523B3EF PUSH1 0x40 MLOAD PUSH1 0x40 MLOAD DUP1 SWAP2 SUB SWAP1 LOG4 PUSH2 0x2BCD PUSH0 DUP4 DUP4 PUSH1 0x1 PUSH2 0x26E5 JUMP JUMPDEST POP POP JUMP JUMPDEST PUSH0 DUP1 DUP3 PUSH20 0xFFFFFFFFFFFFFFFFFFFFFFFFFFFFFFFFFFFFFFFF AND EXTCODESIZE GT SWAP1 POP SWAP2 SWAP1 POP JUMP JUMPDEST PUSH0 PUSH1 0x40 MLOAD SWAP1 POP SWAP1 JUMP JUMPDEST PUSH0 DUP1 REVERT JUMPDEST PUSH0 DUP1 REVERT JUMPDEST PUSH0 PUSH32 0xFFFFFFFF00000000000000000000000000000000000000000000000000000000 DUP3 AND SWAP1 POP SWAP2 SWAP1 POP JUMP JUMPDEST PUSH2 0x2C38 DUP2 PUSH2 0x2C04 JUMP JUMPDEST DUP2 EQ PUSH2 0x2C42 JUMPI PUSH0 DUP1 REVERT JUMPDEST POP JUMP JUMPDEST PUSH0 DUP2 CALLDATALOAD SWAP1 POP PUSH2 0x2C53 DUP2 PUSH2 0x2C2F JUMP JUMPDEST SWAP3 SWAP2 POP POP JUMP JUMPDEST PUSH0 PUSH1 0x20 DUP3 DUP5 SUB SLT ISZERO PUSH2 0x2C6E JUMPI PUSH2 0x2C6D PUSH2 0x2BFC JUMP JUMPDEST JUMPDEST PUSH0 PUSH2 0x2C7B DUP5 DUP3 DUP6 ADD PUSH2 0x2C45 JUMP JUMPDEST SWAP2 POP POP SWAP3 SWAP2 POP POP JUMP JUMPDEST PUSH0 DUP2 ISZERO ISZERO SWAP1 POP SWAP2 SWAP1 POP JUMP JUMPDEST PUSH2 0x2C98 DUP2 PUSH2 0x2C84 JUMP JUMPDEST DUP3 MSTORE POP POP JUMP JUMPDEST PUSH0 PUSH1 0x20 DUP3 ADD SWAP1 POP PUSH2 0x2CB1 PUSH0 DUP4 ADD DUP5 PUSH2 0x2C8F JUMP JUMPDEST SWAP3 SWAP2 POP POP JUMP JUMPDEST PUSH0 DUP2 MLOAD SWAP1 POP SWAP2 SWAP1 POP JUMP JUMPDEST PUSH0 DUP3 DUP3 MSTORE PUSH1 0x20 DUP3 ADD SWAP1 POP SWAP3 SWAP2 POP POP JUMP JUMPDEST PUSH0 JUMPDEST DUP4 DUP2 LT ISZERO PUSH2 0x2CEE JUMPI DUP1 DUP3 ADD MLOAD DUP2 DUP5 ADD MSTORE PUSH1 0x20 DUP2 ADD SWAP1 POP PUSH2 0x2CD3 JUMP JUMPDEST PUSH0 DUP5 DUP5 ADD MSTORE POP POP POP POP JUMP JUMPDEST PUSH0 PUSH1 0x1F NOT PUSH1 0x1F DUP4 ADD AND SWAP1 POP SWAP2 SWAP1 POP JUMP JUMPDEST PUSH0 PUSH2 0x2D13 DUP3 PUSH2 0x2CB7 JUMP JUMPDEST PUSH2 0x2D1D DUP2 DUP6 PUSH2 0x2CC1 JUMP JUMPDEST SWAP4 POP PUSH2 0x2D2D DUP2 DUP6 PUSH1 0x20 DUP7 ADD PUSH2 0x2CD1 JUMP JUMPDEST PUSH2 0x2D36 DUP2 PUSH2 0x2CF9 JUMP JUMPDEST DUP5 ADD SWAP2 POP POP SWAP3 SWAP2 POP POP JUMP JUMPDEST PUSH0 PUSH1 0x20 DUP3 ADD SWAP1 POP DUP2 DUP2 SUB PUSH0 DUP4 ADD MSTORE PUSH2 0x2D59 DUP2 DUP5 PUSH2 0x2D09 JUMP JUMPDEST SWAP1 POP SWAP3 SWAP2 POP POP JUMP JUMPDEST PUSH0 DUP2 SWAP1 POP SWAP2 SWAP1 POP JUMP JUMPDEST PUSH2 0x2D73 DUP2 PUSH2 0x2D61 JUMP JUMPDEST DUP2 EQ PUSH2 0x2D7D JUMPI PUSH0 DUP1 REVERT JUMPDEST POP JUMP JUMPDEST PUSH0 DUP2 CALLDATALOAD SWAP1 POP PUSH2 0x2D8E DUP2 PUSH2 0x2D6A JUMP JUMPDEST SWAP3 SWAP2 POP POP JUMP JUMPDEST PUSH0 PUSH1 0x20 DUP3 DUP5 SUB SLT ISZERO PUSH2 0x2DA9 JUMPI PUSH2 0x2DA8 PUSH2 0x2BFC JUMP JUMPDEST JUMPDEST PUSH0 PUSH2 0x2DB6 DUP5 DUP3 DUP6 ADD PUSH2 0x2D80 JUMP JUMPDEST SWAP2 POP POP SWAP3 SWAP2 POP POP JUMP JUMPDEST PUSH0 PUSH20 0xFFFFFFFFFFFFFFFFFFFFFFFFFFFFFFFFFFFFFFFF DUP3 AND SWAP1 POP SWAP2 SWAP1 POP JUMP JUMPDEST PUSH0 PUSH2 0x2DE8 DUP3 PUSH2 0x2DBF JUMP JUMPDEST SWAP1 POP SWAP2 SWAP1 POP JUMP JUMPDEST PUSH2 0x2DF8 DUP2 PUSH2 0x2DDE JUMP JUMPDEST DUP3 MSTORE POP POP JUMP JUMPDEST PUSH0 PUSH1 0x20 DUP3 ADD SWAP1 POP PUSH2 0x2E11 PUSH0 DUP4 ADD DUP5 PUSH2 0x2DEF JUMP JUMPDEST SWAP3 SWAP2 POP POP JUMP JUMPDEST PUSH2 0x2E20 DUP2 PUSH2 0x2DDE JUMP JUMPDEST DUP2 EQ PUSH2 0x2E2A JUMPI PUSH0 DUP1 REVERT JUMPDEST POP JUMP JUMPDEST PUSH0 DUP2 CALLDATALOAD SWAP1 POP PUSH2 0x2E3B DUP2 PUSH2 0x2E17 JUMP JUMPDEST SWAP3 SWAP2 POP POP JUMP JUMPDEST PUSH0 DUP1 PUSH1 0x40 DUP4 DUP6 SUB SLT ISZERO PUSH2 0x2E57 JUMPI PUSH2 0x2E56 PUSH2 0x2BFC JUMP JUMPDEST JUMPDEST PUSH0 PUSH2 0x2E64 DUP6 DUP3 DUP7 ADD PUSH2 0x2E2D JUMP JUMPDEST SWAP3 POP POP PUSH1 0x20 PUSH2 0x2E75 DUP6 DUP3 DUP7 ADD PUSH2 0x2D80 JUMP JUMPDEST SWAP2 POP POP SWAP3 POP SWAP3 SWAP1 POP JUMP JUMPDEST PUSH0 DUP1 PUSH0 PUSH1 0x60 DUP5 DUP7 SUB SLT ISZERO PUSH2 0x2E96 JUMPI PUSH2 0x2E95 PUSH2 0x2BFC JUMP JUMPDEST JUMPDEST PUSH0 PUSH2 0x2EA3 DUP7 DUP3 DUP8 ADD PUSH2 0x2E2D JUMP JUMPDEST SWAP4 POP POP PUSH1 0x20 PUSH2 0x2EB4 DUP7 DUP3 DUP8 ADD PUSH2 0x2E2D JUMP JUMPDEST SWAP3 POP POP PUSH1 0x40 PUSH2 0x2EC5 DUP7 DUP3 DUP8 ADD PUSH2 0x2D80 JUMP JUMPDEST SWAP2 POP POP SWAP3 POP SWAP3 POP SWAP3 JUMP JUMPDEST PUSH0 PUSH1 0x20 DUP3 DUP5 SUB SLT ISZERO PUSH2 0x2EE4 JUMPI PUSH2 0x2EE3 PUSH2 0x2BFC JUMP JUMPDEST JUMPDEST PUSH0 PUSH2 0x2EF1 DUP5 DUP3 DUP6 ADD PUSH2 0x2E2D JUMP JUMPDEST SWAP2 POP POP SWAP3 SWAP2 POP POP JUMP JUMPDEST PUSH0 DUP2 SWAP1 POP SWAP2 SWAP1 POP JUMP JUMPDEST PUSH0 PUSH2 0x2F1D PUSH2 0x2F18 PUSH2 0x2F13 DUP5 PUSH2 0x2DBF JUMP JUMPDEST PUSH2 0x2EFA JUMP JUMPDEST PUSH2 0x2DBF JUMP JUMPDEST SWAP1 POP SWAP2 SWAP1 POP JUMP JUMPDEST PUSH0 PUSH2 0x2F2E DUP3 PUSH2 0x2F03 JUMP JUMPDEST SWAP1 POP SWAP2 SWAP1 POP JUMP JUMPDEST PUSH0 PUSH2 0x2F3F DUP3 PUSH2 0x2F24 JUMP JUMPDEST SWAP1 POP SWAP2 SWAP1 POP JUMP JUMPDEST PUSH2 0x2F4F DUP2 PUSH2 0x2F35 JUMP JUMPDEST DUP3 MSTORE POP POP JUMP JUMPDEST PUSH0 PUSH1 0x20 DUP3 ADD SWAP1 POP PUSH2 0x2F68 PUSH0 DUP4 ADD DUP5 PUSH2 0x2F46 JUMP JUMPDEST SWAP3 SWAP2 POP POP JUMP JUMPDEST PUSH0 PUSH2 0x2F78 DUP3 PUSH2 0x2F24 JUMP JUMPDEST SWAP1 POP SWAP2 SWAP1 POP JUMP JUMPDEST PUSH2 0x2F88 DUP2 PUSH2 0x2F6E JUMP JUMPDEST DUP3 MSTORE POP POP JUMP JUMPDEST PUSH0 PUSH1 0x20 DUP3 ADD SWAP1 POP PUSH2 0x2FA1 PUSH0 DUP4 ADD DUP5 PUSH2 0x2F7F JUMP JUMPDEST SWAP3 SWAP2 POP POP JUMP JUMPDEST PUSH0 PUSH2 0x2FB1 DUP3 PUSH2 0x2DBF JUMP JUMPDEST SWAP1 POP SWAP2 SWAP1 POP JUMP JUMPDEST PUSH2 0x2FC1 DUP2 PUSH2 0x2FA7 JUMP JUMPDEST DUP2 EQ PUSH2 0x2FCB JUMPI PUSH0 DUP1 REVERT JUMPDEST POP JUMP JUMPDEST PUSH0 DUP2 CALLDATALOAD SWAP1 POP PUSH2 0x2FDC DUP2 PUSH2 0x2FB8 JUMP JUMPDEST SWAP3 SWAP2 POP POP JUMP JUMPDEST PUSH0 PUSH1 0x20 DUP3 DUP5 SUB SLT ISZERO PUSH2 0x2FF7 JUMPI PUSH2 0x2FF6 PUSH2 0x2BFC JUMP JUMPDEST JUMPDEST PUSH0 PUSH2 0x3004 DUP5 DUP3 DUP6 ADD PUSH2 0x2FCE JUMP JUMPDEST SWAP2 POP POP SWAP3 SWAP2 POP POP JUMP JUMPDEST PUSH2 0x3016 DUP2 PUSH2 0x2D61 JUMP JUMPDEST DUP3 MSTORE POP POP JUMP JUMPDEST PUSH0 PUSH1 0x20 DUP3 ADD SWAP1 POP PUSH2 0x302F PUSH0 DUP4 ADD DUP5 PUSH2 0x300D JUMP JUMPDEST SWAP3 SWAP2 POP POP JUMP JUMPDEST PUSH2 0x303E DUP2 PUSH2 0x2C84 JUMP JUMPDEST DUP2 EQ PUSH2 0x3048 JUMPI PUSH0 DUP1 REVERT JUMPDEST POP JUMP JUMPDEST PUSH0 DUP2 CALLDATALOAD SWAP1 POP PUSH2 0x3059 DUP2 PUSH2 0x3035 JUMP JUMPDEST SWAP3 SWAP2 POP POP JUMP JUMPDEST PUSH0 DUP1 PUSH1 0x40 DUP4 DUP6 SUB SLT ISZERO PUSH2 0x3075 JUMPI PUSH2 0x3074 PUSH2 0x2BFC JUMP JUMPDEST JUMPDEST PUSH0 PUSH2 0x3082 DUP6 DUP3 DUP7 ADD PUSH2 0x2E2D JUMP JUMPDEST SWAP3 POP POP PUSH1 0x20 PUSH2 0x3093 DUP6 DUP3 DUP7 ADD PUSH2 0x304B JUMP JUMPDEST SWAP2 POP POP SWAP3 POP SWAP3 SWAP1 POP JUMP JUMPDEST PUSH0 DUP1 REVERT JUMPDEST PUSH0 DUP1 REVERT JUMPDEST PUSH32 0x4E487B7100000000000000000000000000000000000000000000000000000000 PUSH0 MSTORE PUSH1 0x41 PUSH1 0x4 MSTORE PUSH1 0x24 PUSH0 REVERT JUMPDEST PUSH2 0x30DB DUP3 PUSH2 0x2CF9 JUMP JUMPDEST DUP2 ADD DUP2 DUP2 LT PUSH8 0xFFFFFFFFFFFFFFFF DUP3 GT OR ISZERO PUSH2 0x30FA JUMPI PUSH2 0x30F9 PUSH2 0x30A5 JUMP JUMPDEST JUMPDEST DUP1 PUSH1 0x40 MSTORE POP POP POP JUMP JUMPDEST PUSH0 PUSH2 0x310C PUSH2 0x2BF3 JUMP JUMPDEST SWAP1 POP PUSH2 0x3118 DUP3 DUP3 PUSH2 0x30D2 JUMP JUMPDEST SWAP2 SWAP1 POP JUMP JUMPDEST PUSH0 PUSH8 0xFFFFFFFFFFFFFFFF DUP3 GT ISZERO PUSH2 0x3137 JUMPI PUSH2 0x3136 PUSH2 0x30A5 JUMP JUMPDEST JUMPDEST PUSH2 0x3140 DUP3 PUSH2 0x2CF9 JUMP JUMPDEST SWAP1 POP PUSH1 0x20 DUP2 ADD SWAP1 POP SWAP2 SWAP1 POP JUMP JUMPDEST DUP3 DUP2 DUP4 CALLDATACOPY PUSH0 DUP4 DUP4 ADD MSTORE POP POP POP JUMP JUMPDEST PUSH0 PUSH2 0x316D PUSH2 0x3168 DUP5 PUSH2 0x311D JUMP JUMPDEST PUSH2 0x3103 JUMP JUMPDEST SWAP1 POP DUP3 DUP2 MSTORE PUSH1 0x20 DUP2 ADD DUP5 DUP5 DUP5 ADD GT ISZERO PUSH2 0x3189 JUMPI PUSH2 0x3188 PUSH2 0x30A1 JUMP JUMPDEST JUMPDEST PUSH2 0x3194 DUP5 DUP3 DUP6 PUSH2 0x314D JUMP JUMPDEST POP SWAP4 SWAP3 POP POP POP JUMP JUMPDEST PUSH0 DUP3 PUSH1 0x1F DUP4 ADD SLT PUSH2 0x31B0 JUMPI PUSH2 0x31AF PUSH2 0x309D JUMP JUMPDEST JUMPDEST DUP2 CALLDATALOAD PUSH2 0x31C0 DUP5 DUP3 PUSH1 0x20 DUP7 ADD PUSH2 0x315B JUMP JUMPDEST SWAP2 POP POP SWAP3 SWAP2 POP POP JUMP JUMPDEST PUSH0 DUP1 PUSH0 DUP1 PUSH1 0x80 DUP6 DUP8 SUB SLT ISZERO PUSH2 0x31E1 JUMPI PUSH2 0x31E0 PUSH2 0x2BFC JUMP JUMPDEST JUMPDEST PUSH0 PUSH2 0x31EE DUP8 DUP3 DUP9 ADD PUSH2 0x2E2D JUMP JUMPDEST SWAP5 POP POP PUSH1 0x20 PUSH2 0x31FF DUP8 DUP3 DUP9 ADD PUSH2 0x2E2D JUMP JUMPDEST SWAP4 POP POP PUSH1 0x40 PUSH2 0x3210 DUP8 DUP3 DUP9 ADD PUSH2 0x2D80 JUMP JUMPDEST SWAP3 POP POP PUSH1 0x60 DUP6 ADD CALLDATALOAD PUSH8 0xFFFFFFFFFFFFFFFF DUP2 GT ISZERO PUSH2 0x3231 JUMPI PUSH2 0x3230 PUSH2 0x2C00 JUMP JUMPDEST JUMPDEST PUSH2 0x323D DUP8 DUP3 DUP9 ADD PUSH2 0x319C JUMP JUMPDEST SWAP2 POP POP SWAP3 SWAP6 SWAP2 SWAP5 POP SWAP3 POP JUMP JUMPDEST PUSH0 DUP1 PUSH1 0x40 DUP4 DUP6 SUB SLT ISZERO PUSH2 0x325F JUMPI PUSH2 0x325E PUSH2 0x2BFC JUMP JUMPDEST JUMPDEST PUSH0 PUSH2 0x326C DUP6 DUP3 DUP7 ADD PUSH2 0x2E2D JUMP JUMPDEST SWAP3 POP POP PUSH1 0x20 PUSH2 0x327D DUP6 DUP3 DUP7 ADD PUSH2 0x2E2D JUMP JUMPDEST SWAP2 POP POP SWAP3 POP SWAP3 SWAP1 POP JUMP JUMPDEST PUSH0 PUSH2 0x3291 DUP3 PUSH2 0x2F24 JUMP JUMPDEST SWAP1 POP SWAP2 SWAP1 POP JUMP JUMPDEST PUSH2 0x32A1 DUP2 PUSH2 0x3287 JUMP JUMPDEST DUP3 MSTORE POP POP JUMP JUMPDEST PUSH0 PUSH1 0x20 DUP3 ADD SWAP1 POP PUSH2 0x32BA PUSH0 DUP4 ADD DUP5 PUSH2 0x3298 JUMP JUMPDEST SWAP3 SWAP2 POP POP JUMP JUMPDEST PUSH32 0x4E487B7100000000000000000000000000000000000000000000000000000000 PUSH0 MSTORE PUSH1 0x22 PUSH1 0x4 MSTORE PUSH1 0x24 PUSH0 REVERT JUMPDEST PUSH0 PUSH1 0x2 DUP3 DIV SWAP1 POP PUSH1 0x1 DUP3 AND DUP1 PUSH2 0x3304 JUMPI PUSH1 0x7F DUP3 AND SWAP2 POP JUMPDEST PUSH1 0x20 DUP3 LT DUP2 SUB PUSH2 0x3317 JUMPI PUSH2 0x3316 PUSH2 0x32C0 JUMP JUMPDEST JUMPDEST POP SWAP2 SWAP1 POP JUMP JUMPDEST PUSH32 0x4552433732313A20617070726F76616C20746F2063757272656E74206F776E65 PUSH0 DUP3 ADD MSTORE PUSH32 0x7200000000000000000000000000000000000000000000000000000000000000 PUSH1 0x20 DUP3 ADD MSTORE POP JUMP JUMPDEST PUSH0 PUSH2 0x3377 PUSH1 0x21 DUP4 PUSH2 0x2CC1 JUMP JUMPDEST SWAP2 POP PUSH2 0x3382 DUP3 PUSH2 0x331D JUMP JUMPDEST PUSH1 0x40 DUP3 ADD SWAP1 POP SWAP2 SWAP1 POP JUMP JUMPDEST PUSH0 PUSH1 0x20 DUP3 ADD SWAP1 POP DUP2 DUP2 SUB PUSH0 DUP4 ADD MSTORE PUSH2 0x33A4 DUP2 PUSH2 0x336B JUMP JUMPDEST SWAP1 POP SWAP2 SWAP1 POP JUMP JUMPDEST PUSH32 0x4552433732313A20617070726F76652063616C6C6572206973206E6F7420746F PUSH0 DUP3 ADD MSTORE PUSH32 0x6B656E206F776E6572206F7220617070726F76656420666F7220616C6C000000 PUSH1 0x20 DUP3 ADD MSTORE POP JUMP JUMPDEST PUSH0 PUSH2 0x3405 PUSH1 0x3D DUP4 PUSH2 0x2CC1 JUMP JUMPDEST SWAP2 POP PUSH2 0x3410 DUP3 PUSH2 0x33AB JUMP JUMPDEST PUSH1 0x40 DUP3 ADD SWAP1 POP SWAP2 SWAP1 POP JUMP JUMPDEST PUSH0 PUSH1 0x20 DUP3 ADD SWAP1 POP DUP2 DUP2 SUB PUSH0 DUP4 ADD MSTORE PUSH2 0x3432 DUP2 PUSH2 0x33F9 JUMP JUMPDEST SWAP1 POP SWAP2 SWAP1 POP JUMP JUMPDEST PUSH32 0x4E487B7100000000000000000000000000000000000000000000000000000000 PUSH0 MSTORE PUSH1 0x11 PUSH1 0x4 MSTORE PUSH1 0x24 PUSH0 REVERT JUMPDEST PUSH0 PUSH2 0x3470 DUP3 PUSH2 0x2D61 JUMP JUMPDEST SWAP2 POP PUSH2 0x347B DUP4 PUSH2 0x2D61 JUMP JUMPDEST SWAP3 POP DUP3 DUP3 SUB SWAP1 POP DUP2 DUP2 GT ISZERO PUSH2 0x3493 JUMPI PUSH2 0x3492 PUSH2 0x3439 JUMP JUMPDEST JUMPDEST SWAP3 SWAP2 POP POP JUMP JUMPDEST PUSH0 DUP2 MLOAD SWAP1 POP PUSH2 0x34A7 DUP2 PUSH2 0x2E17 JUMP JUMPDEST SWAP3 SWAP2 POP POP JUMP JUMPDEST PUSH0 PUSH1 0x20 DUP3 DUP5 SUB SLT ISZERO PUSH2 0x34C2 JUMPI PUSH2 0x34C1 PUSH2 0x2BFC JUMP JUMPDEST JUMPDEST PUSH0 PUSH2 0x34CF DUP5 DUP3 DUP6 ADD PUSH2 0x3499 JUMP JUMPDEST SWAP2 POP POP SWAP3 SWAP2 POP POP JUMP JUMPDEST PUSH0 PUSH1 0x40 DUP3 ADD SWAP1 POP PUSH2 0x34EB PUSH0 DUP4 ADD DUP6 PUSH2 0x2DEF JUMP JUMPDEST PUSH2 0x34F8 PUSH1 0x20 DUP4 ADD DUP5 PUSH2 0x300D JUMP JUMPDEST SWAP4 SWAP3 POP POP POP JUMP JUMPDEST PUSH0 DUP2 MLOAD SWAP1 POP PUSH2 0x350D DUP2 PUSH2 0x3035 JUMP JUMPDEST SWAP3 SWAP2 POP POP JUMP JUMPDEST PUSH0 PUSH1 0x20 DUP3 DUP5 SUB SLT ISZERO PUSH2 0x3528 JUMPI PUSH2 0x3527 PUSH2 0x2BFC JUMP JUMPDEST JUMPDEST PUSH0 PUSH2 0x3535 DUP5 DUP3 DUP6 ADD PUSH2 0x34FF JUMP JUMPDEST SWAP2 POP POP SWAP3 SWAP2 POP POP JUMP JUMPDEST PUSH0 DUP2 MLOAD SWAP1 POP PUSH2 0x354C DUP2 PUSH2 0x2D6A JUMP JUMPDEST SWAP3 SWAP2 POP POP JUMP JUMPDEST PUSH0 PUSH1 0x20 DUP3 DUP5 SUB SLT ISZERO PUSH2 0x3567 JUMPI PUSH2 0x3566 PUSH2 0x2BFC JUMP JUMPDEST JUMPDEST PUSH0 PUSH2 0x3574 DUP5 DUP3 DUP6 ADD PUSH2 0x353E JUMP JUMPDEST SWAP2 POP POP SWAP3 SWAP2 POP POP JUMP JUMPDEST PUSH32 0x7265706179426F72726F772829206661696C6564000000000000000000000000 PUSH0 DUP3 ADD MSTORE POP JUMP JUMPDEST PUSH0 PUSH2 0x35B1 PUSH1 0x14 DUP4 PUSH2 0x2CC1 JUMP JUMPDEST SWAP2 POP PUSH2 0x35BC DUP3 PUSH2 0x357D JUMP JUMPDEST PUSH1 0x20 DUP3 ADD SWAP1 POP SWAP2 SWAP1 POP JUMP JUMPDEST PUSH0 PUSH1 0x20 DUP3 ADD SWAP1 POP DUP2 DUP2 SUB PUSH0 DUP4 ADD MSTORE PUSH2 0x35DE DUP2 PUSH2 0x35A5 JUMP JUMPDEST SWAP1 POP SWAP2 SWAP1 POP JUMP JUMPDEST PUSH32 0x4552433732313A2063616C6C6572206973206E6F7420746F6B656E206F776E65 PUSH0 DUP3 ADD MSTORE PUSH32 0x72206F7220617070726F76656400000000000000000000000000000000000000 PUSH1 0x20 DUP3 ADD MSTORE POP JUMP JUMPDEST PUSH0 PUSH2 0x363F PUSH1 0x2D DUP4 PUSH2 0x2CC1 JUMP JUMPDEST SWAP2 POP PUSH2 0x364A DUP3 PUSH2 0x35E5 JUMP JUMPDEST PUSH1 0x40 DUP3 ADD SWAP1 POP SWAP2 SWAP1 POP JUMP JUMPDEST PUSH0 PUSH1 0x20 DUP3 ADD SWAP1 POP DUP2 DUP2 SUB PUSH0 DUP4 ADD MSTORE PUSH2 0x366C DUP2 PUSH2 0x3633 JUMP JUMPDEST SWAP1 POP SWAP2 SWAP1 POP JUMP JUMPDEST PUSH32 0x6D696E742829206661696C656400000000000000000000000000000000000000 PUSH0 DUP3 ADD MSTORE POP JUMP JUMPDEST PUSH0 PUSH2 0x36A7 PUSH1 0xD DUP4 PUSH2 0x2CC1 JUMP JUMPDEST SWAP2 POP PUSH2 0x36B2 DUP3 PUSH2 0x3673 JUMP JUMPDEST PUSH1 0x20 DUP3 ADD SWAP1 POP SWAP2 SWAP1 POP JUMP JUMPDEST PUSH0 PUSH1 0x20 DUP3 ADD SWAP1 POP DUP2 DUP2 SUB PUSH0 DUP4 ADD MSTORE PUSH2 0x36D4 DUP2 PUSH2 0x369B JUMP JUMPDEST SWAP1 POP SWAP2 SWAP1 POP JUMP JUMPDEST PUSH32 0x4552433732313A20696E76616C696420746F6B656E2049440000000000000000 PUSH0 DUP3 ADD MSTORE POP JUMP JUMPDEST PUSH0 PUSH2 0x370F PUSH1 0x18 DUP4 PUSH2 0x2CC1 JUMP JUMPDEST SWAP2 POP PUSH2 0x371A DUP3 PUSH2 0x36DB JUMP JUMPDEST PUSH1 0x20 DUP3 ADD SWAP1 POP SWAP2 SWAP1 POP JUMP JUMPDEST PUSH0 PUSH1 0x20 DUP3 ADD SWAP1 POP DUP2 DUP2 SUB PUSH0 DUP4 ADD MSTORE PUSH2 0x373C DUP2 PUSH2 0x3703 JUMP JUMPDEST SWAP1 POP SWAP2 SWAP1 POP JUMP JUMPDEST PUSH32 0x506C656173652073656E6420736F6D6520457468657200000000000000000000 PUSH0 DUP3 ADD MSTORE POP JUMP JUMPDEST PUSH0 PUSH2 0x3777 PUSH1 0x16 DUP4 PUSH2 0x2CC1 JUMP JUMPDEST SWAP2 POP PUSH2 0x3782 DUP3 PUSH2 0x3743 JUMP JUMPDEST PUSH1 0x20 DUP3 ADD SWAP1 POP SWAP2 SWAP1 POP JUMP JUMPDEST PUSH0 PUSH1 0x20 DUP3 ADD SWAP1 POP DUP2 DUP2 SUB PUSH0 DUP4 ADD MSTORE PUSH2 0x37A4 DUP2 PUSH2 0x376B JUMP JUMPDEST SWAP1 POP SWAP2 SWAP1 POP JUMP JUMPDEST PUSH32 0x4552433732313A2061646472657373207A65726F206973206E6F742061207661 PUSH0 DUP3 ADD MSTORE PUSH32 0x6C6964206F776E65720000000000000000000000000000000000000000000000 PUSH1 0x20 DUP3 ADD MSTORE POP JUMP JUMPDEST PUSH0 PUSH2 0x3805 PUSH1 0x29 DUP4 PUSH2 0x2CC1 JUMP JUMPDEST SWAP2 POP PUSH2 0x3810 DUP3 PUSH2 0x37AB JUMP JUMPDEST PUSH1 0x40 DUP3 ADD SWAP1 POP SWAP2 SWAP1 POP JUMP JUMPDEST PUSH0 PUSH1 0x20 DUP3 ADD SWAP1 POP DUP2 DUP2 SUB PUSH0 DUP4 ADD MSTORE PUSH2 0x3832 DUP2 PUSH2 0x37F9 JUMP JUMPDEST SWAP1 POP SWAP2 SWAP1 POP JUMP JUMPDEST PUSH0 PUSH1 0x60 DUP3 ADD SWAP1 POP PUSH2 0x384C PUSH0 DUP4 ADD DUP7 PUSH2 0x2DEF JUMP JUMPDEST PUSH2 0x3859 PUSH1 0x20 DUP4 ADD DUP6 PUSH2 0x2DEF JUMP JUMPDEST PUSH2 0x3866 PUSH1 0x40 DUP4 ADD DUP5 PUSH2 0x300D JUMP JUMPDEST SWAP5 SWAP4 POP POP POP POP JUMP JUMPDEST PUSH0 PUSH2 0x3878 DUP3 PUSH2 0x2D61 JUMP JUMPDEST SWAP2 POP PUSH2 0x3883 DUP4 PUSH2 0x2D61 JUMP JUMPDEST SWAP3 POP DUP3 DUP3 ADD SWAP1 POP DUP1 DUP3 GT ISZERO PUSH2 0x389B JUMPI PUSH2 0x389A PUSH2 0x3439 JUMP JUMPDEST JUMPDEST SWAP3 SWAP2 POP POP JUMP JUMPDEST PUSH32 0x626F72726F772829206661696C65640000000000000000000000000000000000 PUSH0 DUP3 ADD MSTORE POP JUMP JUMPDEST PUSH0 PUSH2 0x38D5 PUSH1 0xF DUP4 PUSH2 0x2CC1 JUMP JUMPDEST SWAP2 POP PUSH2 0x38E0 DUP3 PUSH2 0x38A1 JUMP JUMPDEST PUSH1 0x20 DUP3 ADD SWAP1 POP SWAP2 SWAP1 POP JUMP JUMPDEST PUSH0 PUSH1 0x20 DUP3 ADD SWAP1 POP DUP2 DUP2 SUB PUSH0 DUP4 ADD MSTORE PUSH2 0x3902 DUP2 PUSH2 0x38C9 JUMP JUMPDEST SWAP1 POP SWAP2 SWAP1 POP JUMP JUMPDEST PUSH0 DUP2 SWAP1 POP SWAP3 SWAP2 POP POP JUMP JUMPDEST PUSH0 PUSH2 0x391D DUP3 PUSH2 0x2CB7 JUMP JUMPDEST PUSH2 0x3927 DUP2 DUP6 PUSH2 0x3909 JUMP JUMPDEST SWAP4 POP PUSH2 0x3937 DUP2 DUP6 PUSH1 0x20 DUP7 ADD PUSH2 0x2CD1 JUMP JUMPDEST DUP1 DUP5 ADD SWAP2 POP POP SWAP3 SWAP2 POP POP JUMP JUMPDEST PUSH0 PUSH2 0x394E DUP3 DUP6 PUSH2 0x3913 JUMP JUMPDEST SWAP2 POP PUSH2 0x395A DUP3 DUP5 PUSH2 0x3913 JUMP JUMPDEST SWAP2 POP DUP2 SWAP1 POP SWAP4 SWAP3 POP POP POP JUMP JUMPDEST PUSH32 0x72656465656D2829206661696C65640000000000000000000000000000000000 PUSH0 DUP3 ADD MSTORE POP JUMP JUMPDEST PUSH0 PUSH2 0x399A PUSH1 0xF DUP4 PUSH2 0x2CC1 JUMP JUMPDEST SWAP2 POP PUSH2 0x39A5 DUP3 PUSH2 0x3966 JUMP JUMPDEST PUSH1 0x20 DUP3 ADD SWAP1 POP SWAP2 SWAP1 POP JUMP JUMPDEST PUSH0 PUSH1 0x20 DUP3 ADD SWAP1 POP DUP2 DUP2 SUB PUSH0 DUP4 ADD MSTORE PUSH2 0x39C7 DUP2 PUSH2 0x398E JUMP JUMPDEST SWAP1 POP SWAP2 SWAP1 POP JUMP JUMPDEST PUSH32 0x4F776E61626C653A206E6577206F776E657220697320746865207A65726F2061 PUSH0 DUP3 ADD MSTORE PUSH32 0x6464726573730000000000000000000000000000000000000000000000000000 PUSH1 0x20 DUP3 ADD MSTORE POP JUMP JUMPDEST PUSH0 PUSH2 0x3A28 PUSH1 0x26 DUP4 PUSH2 0x2CC1 JUMP JUMPDEST SWAP2 POP PUSH2 0x3A33 DUP3 PUSH2 0x39CE JUMP JUMPDEST PUSH1 0x40 DUP3 ADD SWAP1 POP SWAP2 SWAP1 POP JUMP JUMPDEST PUSH0 PUSH1 0x20 DUP3 ADD SWAP1 POP DUP2 DUP2 SUB PUSH0 DUP4 ADD MSTORE PUSH2 0x3A55 DUP2 PUSH2 0x3A1C JUMP JUMPDEST SWAP1 POP SWAP2 SWAP1 POP JUMP JUMPDEST PUSH32 0x4E487B7100000000000000000000000000000000000000000000000000000000 PUSH0 MSTORE PUSH1 0x32 PUSH1 0x4 MSTORE PUSH1 0x24 PUSH0 REVERT JUMPDEST PUSH0 DUP2 MLOAD SWAP1 POP SWAP2 SWAP1 POP JUMP JUMPDEST PUSH0 DUP3 DUP3 MSTORE PUSH1 0x20 DUP3 ADD SWAP1 POP SWAP3 SWAP2 POP POP JUMP JUMPDEST PUSH0 DUP2 SWAP1 POP PUSH1 0x20 DUP3 ADD SWAP1 POP SWAP2 SWAP1 POP JUMP JUMPDEST PUSH2 0x3ABB DUP2 PUSH2 0x2DDE JUMP JUMPDEST DUP3 MSTORE POP POP JUMP JUMPDEST PUSH0 PUSH2 0x3ACC DUP4 DUP4 PUSH2 0x3AB2 JUMP JUMPDEST PUSH1 0x20 DUP4 ADD SWAP1 POP SWAP3 SWAP2 POP POP JUMP JUMPDEST PUSH0 PUSH1 0x20 DUP3 ADD SWAP1 POP SWAP2 SWAP1 POP JUMP JUMPDEST PUSH0 PUSH2 0x3AEE DUP3 PUSH2 0x3A89 JUMP JUMPDEST PUSH2 0x3AF8 DUP2 DUP6 PUSH2 0x3A93 JUMP JUMPDEST SWAP4 POP PUSH2 0x3B03 DUP4 PUSH2 0x3AA3 JUMP JUMPDEST DUP1 PUSH0 JUMPDEST DUP4 DUP2 LT ISZERO PUSH2 0x3B33 JUMPI DUP2 MLOAD PUSH2 0x3B1A DUP9 DUP3 PUSH2 0x3AC1 JUMP JUMPDEST SWAP8 POP PUSH2 0x3B25 DUP4 PUSH2 0x3AD8 JUMP JUMPDEST SWAP3 POP POP PUSH1 0x1 DUP2 ADD SWAP1 POP PUSH2 0x3B06 JUMP JUMPDEST POP DUP6 SWAP4 POP POP POP POP SWAP3 SWAP2 POP POP JUMP JUMPDEST PUSH0 PUSH1 0x20 DUP3 ADD SWAP1 POP DUP2 DUP2 SUB PUSH0 DUP4 ADD MSTORE PUSH2 0x3B58 DUP2 DUP5 PUSH2 0x3AE4 JUMP JUMPDEST SWAP1 POP SWAP3 SWAP2 POP POP JUMP JUMPDEST PUSH0 PUSH8 0xFFFFFFFFFFFFFFFF DUP3 GT ISZERO PUSH2 0x3B7A JUMPI PUSH2 0x3B79 PUSH2 0x30A5 JUMP JUMPDEST JUMPDEST PUSH1 0x20 DUP3 MUL SWAP1 POP PUSH1 0x20 DUP2 ADD SWAP1 POP SWAP2 SWAP1 POP JUMP JUMPDEST PUSH0 DUP1 REVERT JUMPDEST PUSH0 PUSH2 0x3BA1 PUSH2 0x3B9C DUP5 PUSH2 0x3B60 JUMP JUMPDEST PUSH2 0x3103 JUMP JUMPDEST SWAP1 POP DUP1 DUP4 DUP3 MSTORE PUSH1 0x20 DUP3 ADD SWAP1 POP PUSH1 0x20 DUP5 MUL DUP4 ADD DUP6 DUP2 GT ISZERO PUSH2 0x3BC4 JUMPI PUSH2 0x3BC3 PUSH2 0x3B8B JUMP JUMPDEST JUMPDEST DUP4 JUMPDEST DUP2 DUP2 LT ISZERO PUSH2 0x3BED JUMPI DUP1 PUSH2 0x3BD9 DUP9 DUP3 PUSH2 0x353E JUMP JUMPDEST DUP5 MSTORE PUSH1 0x20 DUP5 ADD SWAP4 POP POP PUSH1 0x20 DUP2 ADD SWAP1 POP PUSH2 0x3BC6 JUMP JUMPDEST POP POP POP SWAP4 SWAP3 POP POP POP JUMP JUMPDEST PUSH0 DUP3 PUSH1 0x1F DUP4 ADD SLT PUSH2 0x3C0B JUMPI PUSH2 0x3C0A PUSH2 0x309D JUMP JUMPDEST JUMPDEST DUP2 MLOAD PUSH2 0x3C1B DUP5 DUP3 PUSH1 0x20 DUP7 ADD PUSH2 0x3B8F JUMP JUMPDEST SWAP2 POP POP SWAP3 SWAP2 POP POP JUMP JUMPDEST PUSH0 PUSH1 0x20 DUP3 DUP5 SUB SLT ISZERO PUSH2 0x3C39 JUMPI PUSH2 0x3C38 PUSH2 0x2BFC JUMP JUMPDEST JUMPDEST PUSH0 DUP3 ADD MLOAD PUSH8 0xFFFFFFFFFFFFFFFF DUP2 GT ISZERO PUSH2 0x3C56 JUMPI PUSH2 0x3C55 PUSH2 0x2C00 JUMP JUMPDEST JUMPDEST PUSH2 0x3C62 DUP5 DUP3 DUP6 ADD PUSH2 0x3BF7 JUMP JUMPDEST SWAP2 POP POP SWAP3 SWAP2 POP POP JUMP JUMPDEST PUSH32 0x656E7465724D61726B65742829206661696C6564000000000000000000000000 PUSH0 DUP3 ADD MSTORE POP JUMP JUMPDEST PUSH0 PUSH2 0x3C9F PUSH1 0x14 DUP4 PUSH2 0x2CC1 JUMP JUMPDEST SWAP2 POP PUSH2 0x3CAA DUP3 PUSH2 0x3C6B JUMP JUMPDEST PUSH1 0x20 DUP3 ADD SWAP1 POP SWAP2 SWAP1 POP JUMP JUMPDEST PUSH0 PUSH1 0x20 DUP3 ADD SWAP1 POP DUP2 DUP2 SUB PUSH0 DUP4 ADD MSTORE PUSH2 0x3CCC DUP2 PUSH2 0x3C93 JUMP JUMPDEST SWAP1 POP SWAP2 SWAP1 POP JUMP JUMPDEST PUSH32 0x7472616E736665722829206661696C6564000000000000000000000000000000 PUSH0 DUP3 ADD MSTORE POP JUMP JUMPDEST PUSH0 PUSH2 0x3D07 PUSH1 0x11 DUP4 PUSH2 0x2CC1 JUMP JUMPDEST SWAP2 POP PUSH2 0x3D12 DUP3 PUSH2 0x3CD3 JUMP JUMPDEST PUSH1 0x20 DUP3 ADD SWAP1 POP SWAP2 SWAP1 POP JUMP JUMPDEST PUSH0 PUSH1 0x20 DUP3 ADD SWAP1 POP DUP2 DUP2 SUB PUSH0 DUP4 ADD MSTORE PUSH2 0x3D34 DUP2 PUSH2 0x3CFB JUMP JUMPDEST SWAP1 POP SWAP2 SWAP1 POP JUMP JUMPDEST PUSH32 0x4F776E61626C653A2063616C6C6572206973206E6F7420746865206F776E6572 PUSH0 DUP3 ADD MSTORE POP JUMP JUMPDEST PUSH0 PUSH2 0x3D6F PUSH1 0x20 DUP4 PUSH2 0x2CC1 JUMP JUMPDEST SWAP2 POP PUSH2 0x3D7A DUP3 PUSH2 0x3D3B JUMP JUMPDEST PUSH1 0x20 DUP3 ADD SWAP1 POP SWAP2 SWAP1 POP JUMP JUMPDEST PUSH0 PUSH1 0x20 DUP3 ADD SWAP1 POP DUP2 DUP2 SUB PUSH0 DUP4 ADD MSTORE PUSH2 0x3D9C DUP2 PUSH2 0x3D63 JUMP JUMPDEST SWAP1 POP SWAP2 SWAP1 POP JUMP JUMPDEST PUSH32 0x4552433732313A20617070726F766520746F2063616C6C657200000000000000 PUSH0 DUP3 ADD MSTORE POP JUMP JUMPDEST PUSH0 PUSH2 0x3DD7 PUSH1 0x19 DUP4 PUSH2 0x2CC1 JUMP JUMPDEST SWAP2 POP PUSH2 0x3DE2 DUP3 PUSH2 0x3DA3 JUMP JUMPDEST PUSH1 0x20 DUP3 ADD SWAP1 POP SWAP2 SWAP1 POP JUMP JUMPDEST PUSH0 PUSH1 0x20 DUP3 ADD SWAP1 POP DUP2 DUP2 SUB PUSH0 DUP4 ADD MSTORE PUSH2 0x3E04 DUP2 PUSH2 0x3DCB JUMP JUMPDEST SWAP1 POP SWAP2 SWAP1 POP JUMP JUMPDEST PUSH32 0x4552433732313A207472616E7366657220746F206E6F6E204552433732315265 PUSH0 DUP3 ADD MSTORE PUSH32 0x63656976657220696D706C656D656E7465720000000000000000000000000000 PUSH1 0x20 DUP3 ADD MSTORE POP JUMP JUMPDEST PUSH0 PUSH2 0x3E65 PUSH1 0x32 DUP4 PUSH2 0x2CC1 JUMP JUMPDEST SWAP2 POP PUSH2 0x3E70 DUP3 PUSH2 0x3E0B JUMP JUMPDEST PUSH1 0x40 DUP3 ADD SWAP1 POP SWAP2 SWAP1 POP JUMP JUMPDEST PUSH0 PUSH1 0x20 DUP3 ADD SWAP1 POP DUP2 DUP2 SUB PUSH0 DUP4 ADD MSTORE PUSH2 0x3E92 DUP2 PUSH2 0x3E59 JUMP JUMPDEST SWAP1 POP SWAP2 SWAP1 POP JUMP JUMPDEST PUSH32 0x4E487B7100000000000000000000000000000000000000000000000000000000 PUSH0 MSTORE PUSH1 0x12 PUSH1 0x4 MSTORE PUSH1 0x24 PUSH0 REVERT JUMPDEST PUSH32 0x4552433732313A207472616E736665722066726F6D20696E636F727265637420 PUSH0 DUP3 ADD MSTORE PUSH32 0x6F776E6572000000000000000000000000000000000000000000000000000000 PUSH1 0x20 DUP3 ADD MSTORE POP JUMP JUMPDEST PUSH0 PUSH2 0x3F20 PUSH1 0x25 DUP4 PUSH2 0x2CC1 JUMP JUMPDEST SWAP2 POP PUSH2 0x3F2B DUP3 PUSH2 0x3EC6 JUMP JUMPDEST PUSH1 0x40 DUP3 ADD SWAP1 POP SWAP2 SWAP1 POP JUMP JUMPDEST PUSH0 PUSH1 0x20 DUP3 ADD SWAP1 POP DUP2 DUP2 SUB PUSH0 DUP4 ADD MSTORE PUSH2 0x3F4D DUP2 PUSH2 0x3F14 JUMP JUMPDEST SWAP1 POP SWAP2 SWAP1 POP JUMP JUMPDEST PUSH32 0x4552433732313A207472616E7366657220746F20746865207A65726F20616464 PUSH0 DUP3 ADD MSTORE PUSH32 0x7265737300000000000000000000000000000000000000000000000000000000 PUSH1 0x20 DUP3 ADD MSTORE POP JUMP JUMPDEST PUSH0 PUSH2 0x3FAE PUSH1 0x24 DUP4 PUSH2 0x2CC1 JUMP JUMPDEST SWAP2 POP PUSH2 0x3FB9 DUP3 PUSH2 0x3F54 JUMP JUMPDEST PUSH1 0x40 DUP3 ADD SWAP1 POP SWAP2 SWAP1 POP JUMP JUMPDEST PUSH0 PUSH1 0x20 DUP3 ADD SWAP1 POP DUP2 DUP2 SUB PUSH0 DUP4 ADD MSTORE PUSH2 0x3FDB DUP2 PUSH2 0x3FA2 JUMP JUMPDEST SWAP1 POP SWAP2 SWAP1 POP JUMP JUMPDEST PUSH0 DUP2 MLOAD SWAP1 POP SWAP2 SWAP1 POP JUMP JUMPDEST PUSH0 DUP3 DUP3 MSTORE PUSH1 0x20 DUP3 ADD SWAP1 POP SWAP3 SWAP2 POP POP JUMP JUMPDEST PUSH0 PUSH2 0x4006 DUP3 PUSH2 0x3FE2 JUMP JUMPDEST PUSH2 0x4010 DUP2 DUP6 PUSH2 0x3FEC JUMP JUMPDEST SWAP4 POP PUSH2 0x4020 DUP2 DUP6 PUSH1 0x20 DUP7 ADD PUSH2 0x2CD1 JUMP JUMPDEST PUSH2 0x4029 DUP2 PUSH2 0x2CF9 JUMP JUMPDEST DUP5 ADD SWAP2 POP POP SWAP3 SWAP2 POP POP JUMP JUMPDEST PUSH0 PUSH1 0x80 DUP3 ADD SWAP1 POP PUSH2 0x4047 PUSH0 DUP4 ADD DUP8 PUSH2 0x2DEF JUMP JUMPDEST PUSH2 0x4054 PUSH1 0x20 DUP4 ADD DUP7 PUSH2 0x2DEF JUMP JUMPDEST PUSH2 0x4061 PUSH1 0x40 DUP4 ADD DUP6 PUSH2 0x300D JUMP JUMPDEST DUP2 DUP2 SUB PUSH1 0x60 DUP4 ADD MSTORE PUSH2 0x4073 DUP2 DUP5 PUSH2 0x3FFC JUMP JUMPDEST SWAP1 POP SWAP6 SWAP5 POP POP POP POP POP JUMP JUMPDEST PUSH0 DUP2 MLOAD SWAP1 POP PUSH2 0x408C DUP2 PUSH2 0x2C2F JUMP JUMPDEST SWAP3 SWAP2 POP POP JUMP JUMPDEST PUSH0 PUSH1 0x20 DUP3 DUP5 SUB SLT ISZERO PUSH2 0x40A7 JUMPI PUSH2 0x40A6 PUSH2 0x2BFC JUMP JUMPDEST JUMPDEST PUSH0 PUSH2 0x40B4 DUP5 DUP3 DUP6 ADD PUSH2 0x407E JUMP JUMPDEST SWAP2 POP POP SWAP3 SWAP2 POP POP JUMP JUMPDEST PUSH32 0x4552433732313A206D696E7420746F20746865207A65726F2061646472657373 PUSH0 DUP3 ADD MSTORE POP JUMP JUMPDEST PUSH0 PUSH2 0x40F1 PUSH1 0x20 DUP4 PUSH2 0x2CC1 JUMP JUMPDEST SWAP2 POP PUSH2 0x40FC DUP3 PUSH2 0x40BD JUMP JUMPDEST PUSH1 0x20 DUP3 ADD SWAP1 POP SWAP2 SWAP1 POP JUMP JUMPDEST PUSH0 PUSH1 0x20 DUP3 ADD SWAP1 POP DUP2 DUP2 SUB PUSH0 DUP4 ADD MSTORE PUSH2 0x411E DUP2 PUSH2 0x40E5 JUMP JUMPDEST SWAP1 POP SWAP2 SWAP1 POP JUMP JUMPDEST PUSH32 0x4552433732313A20746F6B656E20616C7265616479206D696E74656400000000 PUSH0 DUP3 ADD MSTORE POP JUMP JUMPDEST PUSH0 PUSH2 0x4159 PUSH1 0x1C DUP4 PUSH2 0x2CC1 JUMP JUMPDEST SWAP2 POP PUSH2 0x4164 DUP3 PUSH2 0x4125 JUMP JUMPDEST PUSH1 0x20 DUP3 ADD SWAP1 POP SWAP2 SWAP1 POP JUMP JUMPDEST PUSH0 PUSH1 0x20 DUP3 ADD SWAP1 POP DUP2 DUP2 SUB PUSH0 DUP4 ADD MSTORE PUSH2 0x4186 DUP2 PUSH2 0x414D JUMP JUMPDEST SWAP1 POP SWAP2 SWAP1 POP JUMP INVALID LOG2 PUSH5 0x6970667358 0x22 SLT KECCAK256 DUP3 SELFBALANCE 0x4D 0x2F XOR 0xBD POP 0x25 SWAP13 SELFDESTRUCT SELFBALANCE SELFBALANCE 0xBA SWAP4 0xE7 LOG0 SGT 0x4F 0xB8 0xD9 PREVRANDAO 0x2A TIMESTAMP 0xEF JUMP 0xE8 0x24 BALANCE 0xE5 SAR PUSH27 0x9F64736F6C63430008150033000000000000000000000000000000 "
		},
		"gasEstimates": {
			"creation": {
				"codeDepositCost": "3367000",
				"executionCost": "infinite",
				"totalCost": "infinite"
			},
			"external": {
				"allow(address,uint256)": "infinite",
				"approve(address,uint256)": "infinite",
				"balance(address)": "infinite",
				"balanceOf(address)": "2910",
				"borrow(uint256)": "infinite",
				"burn(uint256)": "infinite",
				"cToken()": "infinite",
				"comptroller()": "infinite",
				"enterMarket()": "infinite",
				"getApproved(uint256)": "5305",
				"invest(uint256)": "infinite",
				"isApprovedForAll(address,address)": "infinite",
				"name()": "infinite",
				"owner()": "2605",
				"ownerOf(uint256)": "3095",
				"redeem(uint256)": "infinite",
				"renounceOwnership()": "30458",
				"repayBorrow(uint256)": "infinite",
				"safeMint(address)": "infinite",
				"safeTransferFrom(address,address,uint256)": "infinite",
				"safeTransferFrom(address,address,uint256,bytes)": "infinite",
				"setApprovalForAll(address,bool)": "infinite",
				"supportsInterface(bytes4)": "810",
				"symbol()": "infinite",
				"token()": "infinite",
				"tokenAddress()": "infinite",
				"tokenTransfer(address,uint256)": "infinite",
				"tokenTransferFrom(address,address,uint256)": "infinite",
				"tokenURI(uint256)": "3438",
				"transferEther(address)": "infinite",
				"transferFrom(address,address,uint256)": "infinite",
				"transferOwnership(address)": "30797"
			},
			"internal": {
				"_transfer(address,address,uint256)": "infinite"
			}
		},
		"methodIdentifiers": {
			"allow(address,uint256)": "6c6f31f2",
			"approve(address,uint256)": "095ea7b3",
			"balance(address)": "e3d670d7",
			"balanceOf(address)": "70a08231",
			"borrow(uint256)": "c5ebeaec",
			"burn(uint256)": "42966c68",
			"cToken()": "69e527da",
			"comptroller()": "5fe3b567",
			"enterMarket()": "fd5bfb54",
			"getApproved(uint256)": "081812fc",
			"invest(uint256)": "2afcf480",
			"isApprovedForAll(address,address)": "e985e9c5",
			"name()": "06fdde03",
			"owner()": "8da5cb5b",
			"ownerOf(uint256)": "6352211e",
			"redeem(uint256)": "db006a75",
			"renounceOwnership()": "715018a6",
			"repayBorrow(uint256)": "0e752702",
			"safeMint(address)": "40d097c3",
			"safeTransferFrom(address,address,uint256)": "42842e0e",
			"safeTransferFrom(address,address,uint256,bytes)": "b88d4fde",
			"setApprovalForAll(address,bool)": "a22cb465",
			"supportsInterface(bytes4)": "01ffc9a7",
			"symbol()": "95d89b41",
			"token()": "fc0c546a",
			"tokenAddress()": "9d76ea58",
			"tokenTransfer(address,uint256)": "68cdafe6",
			"tokenTransferFrom(address,address,uint256)": "961974ba",
			"tokenURI(uint256)": "c87b56dd",
			"transferEther(address)": "6b55e991",
			"transferFrom(address,address,uint256)": "23b872dd",
			"transferOwnership(address)": "f2fde38b"
		}
	},
	"abi": [
		{
			"inputs": [
				{
					"internalType": "address",
					"name": "_comptroller",
					"type": "address"
				},
				{
					"internalType": "address",
					"name": "_token",
					"type": "address"
				},
				{
					"internalType": "address",
					"name": "_cToken",
					"type": "address"
				}
			],
			"stateMutability": "nonpayable",
			"type": "constructor"
		},
		{
			"anonymous": false,
			"inputs": [
				{
					"indexed": true,
					"internalType": "address",
					"name": "owner",
					"type": "address"
				},
				{
					"indexed": true,
					"internalType": "address",
					"name": "approved",
					"type": "address"
				},
				{
					"indexed": true,
					"internalType": "uint256",
					"name": "tokenId",
					"type": "uint256"
				}
			],
			"name": "Approval",
			"type": "event"
		},
		{
			"anonymous": false,
			"inputs": [
				{
					"indexed": true,
					"internalType": "address",
					"name": "owner",
					"type": "address"
				},
				{
					"indexed": true,
					"internalType": "address",
					"name": "operator",
					"type": "address"
				},
				{
					"indexed": false,
					"internalType": "bool",
					"name": "approved",
					"type": "bool"
				}
			],
			"name": "ApprovalForAll",
			"type": "event"
		},
		{
			"anonymous": false,
			"inputs": [
				{
					"indexed": true,
					"internalType": "address",
					"name": "previousOwner",
					"type": "address"
				},
				{
					"indexed": true,
					"internalType": "address",
					"name": "newOwner",
					"type": "address"
				}
			],
			"name": "OwnershipTransferred",
			"type": "event"
		},
		{
			"anonymous": false,
			"inputs": [
				{
					"indexed": true,
					"internalType": "address",
					"name": "from",
					"type": "address"
				},
				{
					"indexed": true,
					"internalType": "address",
					"name": "to",
					"type": "address"
				},
				{
					"indexed": true,
					"internalType": "uint256",
					"name": "tokenId",
					"type": "uint256"
				}
			],
			"name": "Transfer",
			"type": "event"
		},
		{
			"inputs": [
				{
					"internalType": "address",
					"name": "spender",
					"type": "address"
				},
				{
					"internalType": "uint256",
					"name": "amount",
					"type": "uint256"
				}
			],
			"name": "allow",
			"outputs": [],
			"stateMutability": "nonpayable",
			"type": "function"
		},
		{
			"inputs": [
				{
					"internalType": "address",
					"name": "to",
					"type": "address"
				},
				{
					"internalType": "uint256",
					"name": "tokenId",
					"type": "uint256"
				}
			],
			"name": "approve",
			"outputs": [],
			"stateMutability": "nonpayable",
			"type": "function"
		},
		{
			"inputs": [
				{
					"internalType": "address",
					"name": "ad",
					"type": "address"
				}
			],
			"name": "balance",
			"outputs": [
				{
					"internalType": "uint256",
					"name": "",
					"type": "uint256"
				}
			],
			"stateMutability": "view",
			"type": "function"
		},
		{
			"inputs": [
				{
					"internalType": "address",
					"name": "owner",
					"type": "address"
				}
			],
			"name": "balanceOf",
			"outputs": [
				{
					"internalType": "uint256",
					"name": "",
					"type": "uint256"
				}
			],
			"stateMutability": "view",
			"type": "function"
		},
		{
			"inputs": [
				{
					"internalType": "uint256",
					"name": "borrowAmount",
					"type": "uint256"
				}
			],
			"name": "borrow",
			"outputs": [],
			"stateMutability": "nonpayable",
			"type": "function"
		},
		{
			"inputs": [
				{
					"internalType": "uint256",
					"name": "tokenId",
					"type": "uint256"
				}
			],
			"name": "burn",
			"outputs": [],
			"stateMutability": "nonpayable",
			"type": "function"
		},
		{
			"inputs": [],
			"name": "cToken",
			"outputs": [
				{
					"internalType": "contract CTokenInterface",
					"name": "",
					"type": "address"
				}
			],
			"stateMutability": "view",
			"type": "function"
		},
		{
			"inputs": [],
			"name": "comptroller",
			"outputs": [
				{
					"internalType": "contract ComptrollerInterface",
					"name": "",
					"type": "address"
				}
			],
			"stateMutability": "view",
			"type": "function"
		},
		{
			"inputs": [],
			"name": "enterMarket",
			"outputs": [],
			"stateMutability": "nonpayable",
			"type": "function"
		},
		{
			"inputs": [
				{
					"internalType": "uint256",
					"name": "tokenId",
					"type": "uint256"
				}
			],
			"name": "getApproved",
			"outputs": [
				{
					"internalType": "address",
					"name": "",
					"type": "address"
				}
			],
			"stateMutability": "view",
			"type": "function"
		},
		{
			"inputs": [
				{
					"internalType": "uint256",
					"name": "underlyingAmount",
					"type": "uint256"
				}
			],
			"name": "invest",
			"outputs": [],
			"stateMutability": "nonpayable",
			"type": "function"
		},
		{
			"inputs": [
				{
					"internalType": "address",
					"name": "owner",
					"type": "address"
				},
				{
					"internalType": "address",
					"name": "operator",
					"type": "address"
				}
			],
			"name": "isApprovedForAll",
			"outputs": [
				{
					"internalType": "bool",
					"name": "",
					"type": "bool"
				}
			],
			"stateMutability": "view",
			"type": "function"
		},
		{
			"inputs": [],
			"name": "name",
			"outputs": [
				{
					"internalType": "string",
					"name": "",
					"type": "string"
				}
			],
			"stateMutability": "view",
			"type": "function"
		},
		{
			"inputs": [],
			"name": "owner",
			"outputs": [
				{
					"internalType": "address",
					"name": "",
					"type": "address"
				}
			],
			"stateMutability": "view",
			"type": "function"
		},
		{
			"inputs": [
				{
					"internalType": "uint256",
					"name": "tokenId",
					"type": "uint256"
				}
			],
			"name": "ownerOf",
			"outputs": [
				{
					"internalType": "address",
					"name": "",
					"type": "address"
				}
			],
			"stateMutability": "view",
			"type": "function"
		},
		{
			"inputs": [
				{
					"internalType": "uint256",
					"name": "id",
					"type": "uint256"
				}
			],
			"name": "redeem",
			"outputs": [],
			"stateMutability": "nonpayable",
			"type": "function"
		},
		{
			"inputs": [],
			"name": "renounceOwnership",
			"outputs": [],
			"stateMutability": "nonpayable",
			"type": "function"
		},
		{
			"inputs": [
				{
					"internalType": "uint256",
					"name": "underlyingAmount",
					"type": "uint256"
				}
			],
			"name": "repayBorrow",
			"outputs": [],
			"stateMutability": "nonpayable",
			"type": "function"
		},
		{
			"inputs": [
				{
					"internalType": "address",
					"name": "to",
					"type": "address"
				}
			],
			"name": "safeMint",
			"outputs": [],
			"stateMutability": "nonpayable",
			"type": "function"
		},
		{
			"inputs": [
				{
					"internalType": "address",
					"name": "from",
					"type": "address"
				},
				{
					"internalType": "address",
					"name": "to",
					"type": "address"
				},
				{
					"internalType": "uint256",
					"name": "tokenId",
					"type": "uint256"
				}
			],
			"name": "safeTransferFrom",
			"outputs": [],
			"stateMutability": "nonpayable",
			"type": "function"
		},
		{
			"inputs": [
				{
					"internalType": "address",
					"name": "from",
					"type": "address"
				},
				{
					"internalType": "address",
					"name": "to",
					"type": "address"
				},
				{
					"internalType": "uint256",
					"name": "tokenId",
					"type": "uint256"
				},
				{
					"internalType": "bytes",
					"name": "data",
					"type": "bytes"
				}
			],
			"name": "safeTransferFrom",
			"outputs": [],
			"stateMutability": "nonpayable",
			"type": "function"
		},
		{
			"inputs": [
				{
					"internalType": "address",
					"name": "operator",
					"type": "address"
				},
				{
					"internalType": "bool",
					"name": "approved",
					"type": "bool"
				}
			],
			"name": "setApprovalForAll",
			"outputs": [],
			"stateMutability": "nonpayable",
			"type": "function"
		},
		{
			"inputs": [
				{
					"internalType": "bytes4",
					"name": "interfaceId",
					"type": "bytes4"
				}
			],
			"name": "supportsInterface",
			"outputs": [
				{
					"internalType": "bool",
					"name": "",
					"type": "bool"
				}
			],
			"stateMutability": "view",
			"type": "function"
		},
		{
			"inputs": [],
			"name": "symbol",
			"outputs": [
				{
					"internalType": "string",
					"name": "",
					"type": "string"
				}
			],
			"stateMutability": "view",
			"type": "function"
		},
		{
			"inputs": [],
			"name": "token",
			"outputs": [
				{
					"internalType": "contract IERC20",
					"name": "",
					"type": "address"
				}
			],
			"stateMutability": "view",
			"type": "function"
		},
		{
			"inputs": [],
			"name": "tokenAddress",
			"outputs": [
				{
					"internalType": "address",
					"name": "",
					"type": "address"
				}
			],
			"stateMutability": "view",
			"type": "function"
		},
		{
			"inputs": [
				{
					"internalType": "address",
					"name": "to",
					"type": "address"
				},
				{
					"internalType": "uint256",
					"name": "amount",
					"type": "uint256"
				}
			],
			"name": "tokenTransfer",
			"outputs": [],
			"stateMutability": "nonpayable",
			"type": "function"
		},
		{
			"inputs": [
				{
					"internalType": "address",
					"name": "from",
					"type": "address"
				},
				{
					"internalType": "address",
					"name": "to",
					"type": "address"
				},
				{
					"internalType": "uint256",
					"name": "amount",
					"type": "uint256"
				}
			],
			"name": "tokenTransferFrom",
			"outputs": [],
			"stateMutability": "nonpayable",
			"type": "function"
		},
		{
			"inputs": [
				{
					"internalType": "uint256",
					"name": "tokenId",
					"type": "uint256"
				}
			],
			"name": "tokenURI",
			"outputs": [
				{
					"internalType": "string",
					"name": "",
					"type": "string"
				}
			],
			"stateMutability": "view",
			"type": "function"
		},
		{
			"inputs": [
				{
					"internalType": "address payable",
					"name": "receiver",
					"type": "address"
				}
			],
			"name": "transferEther",
			"outputs": [],
			"stateMutability": "payable",
			"type": "function"
		},
		{
			"inputs": [
				{
					"internalType": "address",
					"name": "from",
					"type": "address"
				},
				{
					"internalType": "address",
					"name": "to",
					"type": "address"
				},
				{
					"internalType": "uint256",
					"name": "tokenId",
					"type": "uint256"
				}
			],
			"name": "transferFrom",
			"outputs": [],
			"stateMutability": "nonpayable",
			"type": "function"
		},
		{
			"inputs": [
				{
					"internalType": "address",
					"name": "newOwner",
					"type": "address"
				}
			],
			"name": "transferOwnership",
			"outputs": [],
			"stateMutability": "nonpayable",
			"type": "function"
		}
	]
}