{
	"data": {
		"bytecode": {
			"linkReferences": {},
			"object": "608060405234801561000f575f80fd5b5061030e8061001d5f395ff3fe608060405234801561000f575f80fd5b506004361061003f575f3560e01c8063c77cf9e214610043578063d60afd581461005f578063fe575a871461007b575b5f80fd5b61005d6004803603810190610058919061024d565b6100ab565b005b6100796004803603810190610074919061024d565b610112565b005b6100956004803603810190610090919061024d565b610178565b6040516100a29190610292565b60405180910390f35b60015f808373ffffffffffffffffffffffffffffffffffffffff1673ffffffffffffffffffffffffffffffffffffffff1681526020019081526020015f205f6101000a81548160ff0219169083600181111561010a576101096102ab565b5b021790555050565b5f805f8373ffffffffffffffffffffffffffffffffffffffff1673ffffffffffffffffffffffffffffffffffffffff1681526020019081526020015f205f6101000a81548160ff021916908360018111156101705761016f6102ab565b5b021790555050565b5f60018081111561018c5761018b6102ab565b5b5f808473ffffffffffffffffffffffffffffffffffffffff1673ffffffffffffffffffffffffffffffffffffffff1681526020019081526020015f205f9054906101000a900460ff1660018111156101e7576101e66102ab565b5b149050919050565b5f80fd5b5f73ffffffffffffffffffffffffffffffffffffffff82169050919050565b5f61021c826101f3565b9050919050565b61022c81610212565b8114610236575f80fd5b50565b5f8135905061024781610223565b92915050565b5f60208284031215610262576102616101ef565b5b5f61026f84828501610239565b91505092915050565b5f8115159050919050565b61028c81610278565b82525050565b5f6020820190506102a55f830184610283565b92915050565b7f4e487b71000000000000000000000000000000000000000000000000000000005f52602160045260245ffdfea2646970667358221220b8cb898bd7689d77ed5edc29def66834efbbbedc9c56794703efd57d5de9762464736f6c63430008140033",
			"opcodes": "PUSH1 0x80 PUSH1 0x40 MSTORE CALLVALUE DUP1 ISZERO PUSH2 0xF JUMPI PUSH0 DUP1 REVERT JUMPDEST POP PUSH2 0x30E DUP1 PUSH2 0x1D PUSH0 CODECOPY PUSH0 RETURN INVALID PUSH1 0x80 PUSH1 0x40 MSTORE CALLVALUE DUP1 ISZERO PUSH2 0xF JUMPI PUSH0 DUP1 REVERT JUMPDEST POP PUSH1 0x4 CALLDATASIZE LT PUSH2 0x3F JUMPI PUSH0 CALLDATALOAD PUSH1 0xE0 SHR DUP1 PUSH4 0xC77CF9E2 EQ PUSH2 0x43 JUMPI DUP1 PUSH4 0xD60AFD58 EQ PUSH2 0x5F JUMPI DUP1 PUSH4 0xFE575A87 EQ PUSH2 0x7B JUMPI JUMPDEST PUSH0 DUP1 REVERT JUMPDEST PUSH2 0x5D PUSH1 0x4 DUP1 CALLDATASIZE SUB DUP2 ADD SWAP1 PUSH2 0x58 SWAP2 SWAP1 PUSH2 0x24D JUMP JUMPDEST PUSH2 0xAB JUMP JUMPDEST STOP JUMPDEST PUSH2 0x79 PUSH1 0x4 DUP1 CALLDATASIZE SUB DUP2 ADD SWAP1 PUSH2 0x74 SWAP2 SWAP1 PUSH2 0x24D JUMP JUMPDEST PUSH2 0x112 JUMP JUMPDEST STOP JUMPDEST PUSH2 0x95 PUSH1 0x4 DUP1 CALLDATASIZE SUB DUP2 ADD SWAP1 PUSH2 0x90 SWAP2 SWAP1 PUSH2 0x24D JUMP JUMPDEST PUSH2 0x178 JUMP JUMPDEST PUSH1 0x40 MLOAD PUSH2 0xA2 SWAP2 SWAP1 PUSH2 0x292 JUMP JUMPDEST PUSH1 0x40 MLOAD DUP1 SWAP2 SUB SWAP1 RETURN JUMPDEST PUSH1 0x1 PUSH0 DUP1 DUP4 PUSH20 0xFFFFFFFFFFFFFFFFFFFFFFFFFFFFFFFFFFFFFFFF AND PUSH20 0xFFFFFFFFFFFFFFFFFFFFFFFFFFFFFFFFFFFFFFFF AND DUP2 MSTORE PUSH1 0x20 ADD SWAP1 DUP2 MSTORE PUSH1 0x20 ADD PUSH0 KECCAK256 PUSH0 PUSH2 0x100 EXP DUP2 SLOAD DUP2 PUSH1 0xFF MUL NOT AND SWAP1 DUP4 PUSH1 0x1 DUP2 GT ISZERO PUSH2 0x10A JUMPI PUSH2 0x109 PUSH2 0x2AB JUMP JUMPDEST JUMPDEST MUL OR SWAP1 SSTORE POP POP JUMP JUMPDEST PUSH0 DUP1 PUSH0 DUP4 PUSH20 0xFFFFFFFFFFFFFFFFFFFFFFFFFFFFFFFFFFFFFFFF AND PUSH20 0xFFFFFFFFFFFFFFFFFFFFFFFFFFFFFFFFFFFFFFFF AND DUP2 MSTORE PUSH1 0x20 ADD SWAP1 DUP2 MSTORE PUSH1 0x20 ADD PUSH0 KECCAK256 PUSH0 PUSH2 0x100 EXP DUP2 SLOAD DUP2 PUSH1 0xFF MUL NOT AND SWAP1 DUP4 PUSH1 0x1 DUP2 GT ISZERO PUSH2 0x170 JUMPI PUSH2 0x16F PUSH2 0x2AB JUMP JUMPDEST JUMPDEST MUL OR SWAP1 SSTORE POP POP JUMP JUMPDEST PUSH0 PUSH1 0x1 DUP1 DUP2 GT ISZERO PUSH2 0x18C JUMPI PUSH2 0x18B PUSH2 0x2AB JUMP JUMPDEST JUMPDEST PUSH0 DUP1 DUP5 PUSH20 0xFFFFFFFFFFFFFFFFFFFFFFFFFFFFFFFFFFFFFFFF AND PUSH20 0xFFFFFFFFFFFFFFFFFFFFFFFFFFFFFFFFFFFFFFFF AND DUP2 MSTORE PUSH1 0x20 ADD SWAP1 DUP2 MSTORE PUSH1 0x20 ADD PUSH0 KECCAK256 PUSH0 SWAP1 SLOAD SWAP1 PUSH2 0x100 EXP SWAP1 DIV PUSH1 0xFF AND PUSH1 0x1 DUP2 GT ISZERO PUSH2 0x1E7 JUMPI PUSH2 0x1E6 PUSH2 0x2AB JUMP JUMPDEST JUMPDEST EQ SWAP1 POP SWAP2 SWAP1 POP JUMP JUMPDEST PUSH0 DUP1 REVERT JUMPDEST PUSH0 PUSH20 0xFFFFFFFFFFFFFFFFFFFFFFFFFFFFFFFFFFFFFFFF DUP3 AND SWAP1 POP SWAP2 SWAP1 POP JUMP JUMPDEST PUSH0 PUSH2 0x21C DUP3 PUSH2 0x1F3 JUMP JUMPDEST SWAP1 POP SWAP2 SWAP1 POP JUMP JUMPDEST PUSH2 0x22C DUP2 PUSH2 0x212 JUMP JUMPDEST DUP2 EQ PUSH2 0x236 JUMPI PUSH0 DUP1 REVERT JUMPDEST POP JUMP JUMPDEST PUSH0 DUP2 CALLDATALOAD SWAP1 POP PUSH2 0x247 DUP2 PUSH2 0x223 JUMP JUMPDEST SWAP3 SWAP2 POP POP JUMP JUMPDEST PUSH0 PUSH1 0x20 DUP3 DUP5 SUB SLT ISZERO PUSH2 0x262 JUMPI PUSH2 0x261 PUSH2 0x1EF JUMP JUMPDEST JUMPDEST PUSH0 PUSH2 0x26F DUP5 DUP3 DUP6 ADD PUSH2 0x239 JUMP JUMPDEST SWAP2 POP POP SWAP3 SWAP2 POP POP JUMP JUMPDEST PUSH0 DUP2 ISZERO ISZERO SWAP1 POP SWAP2 SWAP1 POP JUMP JUMPDEST PUSH2 0x28C DUP2 PUSH2 0x278 JUMP JUMPDEST DUP3 MSTORE POP POP JUMP JUMPDEST PUSH0 PUSH1 0x20 DUP3 ADD SWAP1 POP PUSH2 0x2A5 PUSH0 DUP4 ADD DUP5 PUSH2 0x283 JUMP JUMPDEST SWAP3 SWAP2 POP POP JUMP JUMPDEST PUSH32 0x4E487B7100000000000000000000000000000000000000000000000000000000 PUSH0 MSTORE PUSH1 0x21 PUSH1 0x4 MSTORE PUSH1 0x24 PUSH0 REVERT INVALID LOG2 PUSH5 0x6970667358 0x22 SLT KECCAK256 0xB8 0xCB DUP10 DUP12 0xD7 PUSH9 0x9D77ED5EDC29DEF668 CALLVALUE 0xEF 0xBB 0xBE 0xDC SWAP13 JUMP PUSH26 0x4703EFD57D5DE9762464736F6C63430008140033000000000000 "
		},
		"gasEstimates": {
			"creation": {
				"codeDepositCost": "156400",
				"executionCost": "200",
				"totalCost": "156600"
			},
			"external": {
				"AddBlacklisted(address)": "24801",
				"RemoveBlacklisted(address)": "24822",
				"isBlacklisted(address)": "2950"
			}
		},
		"methodIdentifiers": {
			"AddBlacklisted(address)": "c77cf9e2",
			"RemoveBlacklisted(address)": "d60afd58",
			"isBlacklisted(address)": "fe575a87"
		}
	},
	"abi": [
		{
			"inputs": [
				{
					"internalType": "address",
					"name": "a",
					"type": "address"
				}
			],
			"name": "AddBlacklisted",
			"outputs": [],
			"stateMutability": "nonpayable",
			"type": "function"
		},
		{
			"inputs": [
				{
					"internalType": "address",
					"name": "a",
					"type": "address"
				}
			],
			"name": "RemoveBlacklisted",
			"outputs": [],
			"stateMutability": "nonpayable",
			"type": "function"
		},
		{
			"inputs": [
				{
					"internalType": "address",
					"name": "a",
					"type": "address"
				}
			],
			"name": "isBlacklisted",
			"outputs": [
				{
					"internalType": "bool",
					"name": "",
					"type": "bool"
				}
			],
			"stateMutability": "view",
			"type": "function"
		}
	]
}