{
	"data": {
		"bytecode": {
			"linkReferences": {},
			"object": "608060405262061a8060085560016009553480156200001c575f80fd5b5060405162002d9138038062002d9183398181016040528101906200004291906200037e565b6040518060400160405280600881526020017f676574536d6172740000000000000000000000000000000000000000000000008152506040518060400160405280600481526020017f47455453000000000000000000000000000000000000000000000000000000008152508160039081620000bf919062000638565b508060049081620000d1919062000638565b505050620000f4620000e86200012f60201b60201c565b6200013660201b60201c565b67016345785d8a000060068190555081600b908162000114919062000638565b5080600c908162000126919062000638565b5050506200071c565b5f33905090565b5f60055f9054906101000a900473ffffffffffffffffffffffffffffffffffffffff1690508160055f6101000a81548173ffffffffffffffffffffffffffffffffffffffff021916908373ffffffffffffffffffffffffffffffffffffffff1602179055508173ffffffffffffffffffffffffffffffffffffffff168173ffffffffffffffffffffffffffffffffffffffff167f8be0079c531659141344cd1fd0a4f28419497f9722a3daafe3b4186f6b6457e060405160405180910390a35050565b5f604051905090565b5f80fd5b5f80fd5b5f80fd5b5f80fd5b5f601f19601f8301169050919050565b7f4e487b71000000000000000000000000000000000000000000000000000000005f52604160045260245ffd5b6200025a8262000212565b810181811067ffffffffffffffff821117156200027c576200027b62000222565b5b80604052505050565b5f62000290620001f9565b90506200029e82826200024f565b919050565b5f67ffffffffffffffff821115620002c057620002bf62000222565b5b620002cb8262000212565b9050602081019050919050565b5f5b83811015620002f7578082015181840152602081019050620002da565b5f8484015250505050565b5f620003186200031284620002a3565b62000285565b9050828152602081018484840111156200033757620003366200020e565b5b62000344848285620002d8565b509392505050565b5f82601f8301126200036357620003626200020a565b5b81516200037584826020860162000302565b91505092915050565b5f806040838503121562000397576200039662000202565b5b5f83015167ffffffffffffffff811115620003b757620003b662000206565b5b620003c5858286016200034c565b925050602083015167ffffffffffffffff811115620003e957620003e862000206565b5b620003f7858286016200034c565b9150509250929050565b5f81519050919050565b7f4e487b71000000000000000000000000000000000000000000000000000000005f52602260045260245ffd5b5f60028204905060018216806200045057607f821691505b6020821081036200046657620004656200040b565b5b50919050565b5f819050815f5260205f209050919050565b5f6020601f8301049050919050565b5f82821b905092915050565b5f60088302620004ca7fffffffffffffffffffffffffffffffffffffffffffffffffffffffffffffffff826200048d565b620004d686836200048d565b95508019841693508086168417925050509392505050565b5f819050919050565b5f819050919050565b5f620005206200051a6200051484620004ee565b620004f7565b620004ee565b9050919050565b5f819050919050565b6200053b8362000500565b620005536200054a8262000527565b84845462000499565b825550505050565b5f90565b620005696200055b565b6200057681848462000530565b505050565b5b818110156200059d57620005915f826200055f565b6001810190506200057c565b5050565b601f821115620005ec57620005b6816200046c565b620005c1846200047e565b81016020851015620005d1578190505b620005e9620005e0856200047e565b8301826200057b565b50505b505050565b5f82821c905092915050565b5f6200060e5f1984600802620005f1565b1980831691505092915050565b5f620006288383620005fd565b9150826002028217905092915050565b620006438262000401565b67ffffffffffffffff8111156200065f576200065e62000222565b5b6200066b825462000438565b62000678828285620005a1565b5f60209050601f831160018114620006ae575f841562000699578287015190505b620006a585826200061b565b86555062000714565b601f198416620006be866200046c565b5f5b82811015620006e757848901518255600182019150602085019450602081019050620006c0565b8683101562000707578489015162000703601f891682620005fd565b8355505b6001600288020188555050505b505050505050565b612667806200072a5f395ff3fe608060405234801561000f575f80fd5b5060043610610156575f3560e01c806370a08231116100c1578063a457c2d71161007a578063a457c2d7146103a2578063a9059cbb146103d2578063cca0580314610402578063d7e612d114610420578063dd62ed3e1461043c578063f2fde38b1461046c57610156565b806370a08231146102f0578063715018a6146103205780637ff9b5961461032a578063873138f3146103485780638da5cb5b1461036657806395d89b411461038457610156565b8063313ce56711610113578063313ce56714610230578063395093511461024e578063407eeff71461027e57806340b2d3af146102ae57806347f07a8e146102ca5780636a61e5fc146102d457610156565b806306fdde031461015a578063095ea7b3146101785780631249c58b146101a8578063163f7522146101b257806318160ddd146101e257806323b872dd14610200575b5f80fd5b610162610488565b60405161016f9190611661565b60405180910390f35b610192600480360381019061018d919061171f565b610518565b60405161019f9190611777565b60405180910390f35b6101b061053a565b005b6101cc60048036038101906101c79190611790565b61061c565b6040516101d99190611777565b60405180910390f35b6101ea61066e565b6040516101f791906117ca565b60405180910390f35b61021a600480360381019061021591906117e3565b610677565b6040516102279190611777565b60405180910390f35b6102386106a5565b604051610245919061184e565b60405180910390f35b6102686004803603810190610263919061171f565b6106ad565b6040516102759190611777565b60405180910390f35b61029860048036038101906102939190611790565b6106e3565b6040516102a59190611661565b60405180910390f35b6102c860048036038101906102c39190611993565b6107b0565b005b6102d26109c3565b005b6102ee60048036038101906102e991906119da565b610a85565b005b61030a60048036038101906103059190611790565b610a97565b60405161031791906117ca565b60405180910390f35b610328610adc565b005b610332610aef565b60405161033f91906117ca565b60405180910390f35b610350610af5565b60405161035d9190611777565b60405180910390f35b61036e610b45565b60405161037b9190611a14565b60405180910390f35b61038c610b6d565b6040516103999190611661565b60405180910390f35b6103bc60048036038101906103b7919061171f565b610bfd565b6040516103c99190611777565b60405180910390f35b6103ec60048036038101906103e7919061171f565b610c72565b6040516103f99190611777565b60405180910390f35b61040a610c94565b6040516104179190611661565b60405180910390f35b61043a600480360381019061043591906119da565b610d5f565b005b61045660048036038101906104519190611a2d565b610d79565b60405161046391906117ca565b60405180910390f35b61048660048036038101906104819190611790565b610dfb565b005b60606003805461049790611a98565b80601f01602080910402602001604051908101604052809291908181526020018280546104c390611a98565b801561050e5780601f106104e55761010080835404028352916020019161050e565b820191905f5260205f20905b8154815290600101906020018083116104f157829003601f168201915b5050505050905090565b5f80610522610e7d565b905061052f818585610e84565b600191505092915050565b610542611047565b5f429050610384600754826105579190611af5565b1015610598576040517f08c379a000000000000000000000000000000000000000000000000000000000815260040161058f90611b72565b60405180910390fd5b5f60085410156105dd576040517f08c379a00000000000000000000000000000000000000000000000000000000081526004016105d490611bda565b60405180910390fd5b60095f8154809291906105ef90611bf8565b9190505550610600336008546110c5565b600260085f8282546106129190611c6c565b9250508190555050565b5f600d5f8373ffffffffffffffffffffffffffffffffffffffff1673ffffffffffffffffffffffffffffffffffffffff1681526020019081526020015f205f9054906101000a900460ff169050919050565b5f600254905090565b5f80610681610e7d565b905061068e858285611213565b61069985858561129e565b60019150509392505050565b5f6012905090565b5f806106b7610e7d565b90506106d88185856106c98589610d79565b6106d39190611c9c565b610e84565b600191505092915050565b6060600a5f8373ffffffffffffffffffffffffffffffffffffffff1673ffffffffffffffffffffffffffffffffffffffff1681526020019081526020015f20805461072d90611a98565b80601f016020809104026020016040519081016040528092919081815260200182805461075990611a98565b80156107a45780601f1061077b576101008083540402835291602001916107a4565b820191905f5260205f20905b81548152906001019060200180831161078757829003601f168201915b50505050509050919050565b600d5f3373ffffffffffffffffffffffffffffffffffffffff1673ffffffffffffffffffffffffffffffffffffffff1681526020019081526020015f205f9054906101000a900460ff161561083a576040517f08c379a000000000000000000000000000000000000000000000000000000000815260040161083190611d19565b60405180910390fd5b600b60405160200161084c9190611dd3565b60405160208183030381529060405280519060200120816040516020016108739190611e19565b6040516020818303038152906040528051906020012014806108e15750600c6040516020016108a29190611dd3565b60405160208183030381529060405280519060200120816040516020016108c99190611e19565b60405160208183030381529060405280519060200120145b610920576040517f08c379a000000000000000000000000000000000000000000000000000000000815260040161091790611d19565b60405180910390fd5b6001600d5f3373ffffffffffffffffffffffffffffffffffffffff1673ffffffffffffffffffffffffffffffffffffffff1681526020019081526020015f205f6101000a81548160ff02191690831515021790555080600a5f3373ffffffffffffffffffffffffffffffffffffffff1673ffffffffffffffffffffffffffffffffffffffff1681526020019081526020015f2090816109bf9190611fba565b5050565b6109cb610b45565b73ffffffffffffffffffffffffffffffffffffffff163373ffffffffffffffffffffffffffffffffffffffff1614610a38576040517f08c379a0000000000000000000000000000000000000000000000000000000008152600401610a2f906120f9565b60405180910390fd5b610a40610b45565b73ffffffffffffffffffffffffffffffffffffffff166108fc4790811502906040515f60405180830381858888f19350505050158015610a82573d5f803e3d5ffd5b50565b610a8d611047565b8060068190555050565b5f805f8373ffffffffffffffffffffffffffffffffffffffff1673ffffffffffffffffffffffffffffffffffffffff1681526020019081526020015f20549050919050565b610ae4611047565b610aed5f61150a565b565b60065481565b5f600d5f3373ffffffffffffffffffffffffffffffffffffffff1673ffffffffffffffffffffffffffffffffffffffff1681526020019081526020015f205f9054906101000a900460ff16905090565b5f60055f9054906101000a900473ffffffffffffffffffffffffffffffffffffffff16905090565b606060048054610b7c90611a98565b80601f0160208091040260200160405190810160405280929190818152602001828054610ba890611a98565b8015610bf35780601f10610bca57610100808354040283529160200191610bf3565b820191905f5260205f20905b815481529060010190602001808311610bd657829003601f168201915b5050505050905090565b5f80610c07610e7d565b90505f610c148286610d79565b905083811015610c59576040517f08c379a0000000000000000000000000000000000000000000000000000000008152600401610c5090612187565b60405180910390fd5b610c668286868403610e84565b60019250505092915050565b5f80610c7c610e7d565b9050610c8981858561129e565b600191505092915050565b6060600a5f3373ffffffffffffffffffffffffffffffffffffffff1673ffffffffffffffffffffffffffffffffffffffff1681526020019081526020015f208054610cde90611a98565b80601f0160208091040260200160405190810160405280929190818152602001828054610d0a90611a98565b8015610d555780601f10610d2c57610100808354040283529160200191610d55565b820191905f5260205f20905b815481529060010190602001808311610d3857829003601f168201915b5050505050905090565b610d67611047565b60016009819055508060088190555050565b5f60015f8473ffffffffffffffffffffffffffffffffffffffff1673ffffffffffffffffffffffffffffffffffffffff1681526020019081526020015f205f8373ffffffffffffffffffffffffffffffffffffffff1673ffffffffffffffffffffffffffffffffffffffff1681526020019081526020015f2054905092915050565b610e03611047565b5f73ffffffffffffffffffffffffffffffffffffffff168173ffffffffffffffffffffffffffffffffffffffff1603610e71576040517f08c379a0000000000000000000000000000000000000000000000000000000008152600401610e6890612215565b60405180910390fd5b610e7a8161150a565b50565b5f33905090565b5f73ffffffffffffffffffffffffffffffffffffffff168373ffffffffffffffffffffffffffffffffffffffff1603610ef2576040517f08c379a0000000000000000000000000000000000000000000000000000000008152600401610ee9906122a3565b60405180910390fd5b5f73ffffffffffffffffffffffffffffffffffffffff168273ffffffffffffffffffffffffffffffffffffffff1603610f60576040517f08c379a0000000000000000000000000000000000000000000000000000000008152600401610f5790612331565b60405180910390fd5b8060015f8573ffffffffffffffffffffffffffffffffffffffff1673ffffffffffffffffffffffffffffffffffffffff1681526020019081526020015f205f8473ffffffffffffffffffffffffffffffffffffffff1673ffffffffffffffffffffffffffffffffffffffff1681526020019081526020015f20819055508173ffffffffffffffffffffffffffffffffffffffff168373ffffffffffffffffffffffffffffffffffffffff167f8c5be1e5ebec7d5bd14f71427d1e84f3dd0314c0f7b2291e5b200ac8c7c3b9258360405161103a91906117ca565b60405180910390a3505050565b61104f610e7d565b73ffffffffffffffffffffffffffffffffffffffff1661106d610b45565b73ffffffffffffffffffffffffffffffffffffffff16146110c3576040517f08c379a00000000000000000000000000000000000000000000000000000000081526004016110ba90612399565b60405180910390fd5b565b5f73ffffffffffffffffffffffffffffffffffffffff168273ffffffffffffffffffffffffffffffffffffffff1603611133576040517f08c379a000000000000000000000000000000000000000000000000000000000815260040161112a90612401565b60405180910390fd5b61113e5f83836115cd565b8060025f82825461114f9190611c9c565b92505081905550805f808473ffffffffffffffffffffffffffffffffffffffff1673ffffffffffffffffffffffffffffffffffffffff1681526020019081526020015f205f82825401925050819055508173ffffffffffffffffffffffffffffffffffffffff165f73ffffffffffffffffffffffffffffffffffffffff167fddf252ad1be2c89b69c2b068fc378daa952ba7f163c4a11628f55a4df523b3ef836040516111fc91906117ca565b60405180910390a361120f5f83836115d2565b5050565b5f61121e8484610d79565b90507fffffffffffffffffffffffffffffffffffffffffffffffffffffffffffffffff8114611298578181101561128a576040517f08c379a000000000000000000000000000000000000000000000000000000000815260040161128190612469565b60405180910390fd5b6112978484848403610e84565b5b50505050565b5f73ffffffffffffffffffffffffffffffffffffffff168373ffffffffffffffffffffffffffffffffffffffff160361130c576040517f08c379a0000000000000000000000000000000000000000000000000000000008152600401611303906124f7565b60405180910390fd5b5f73ffffffffffffffffffffffffffffffffffffffff168273ffffffffffffffffffffffffffffffffffffffff160361137a576040517f08c379a000000000000000000000000000000000000000000000000000000000815260040161137190612585565b60405180910390fd5b6113858383836115cd565b5f805f8573ffffffffffffffffffffffffffffffffffffffff1673ffffffffffffffffffffffffffffffffffffffff1681526020019081526020015f2054905081811015611408576040517f08c379a00000000000000000000000000000000000000000000000000000000081526004016113ff90612613565b60405180910390fd5b8181035f808673ffffffffffffffffffffffffffffffffffffffff1673ffffffffffffffffffffffffffffffffffffffff1681526020019081526020015f2081905550815f808573ffffffffffffffffffffffffffffffffffffffff1673ffffffffffffffffffffffffffffffffffffffff1681526020019081526020015f205f82825401925050819055508273ffffffffffffffffffffffffffffffffffffffff168473ffffffffffffffffffffffffffffffffffffffff167fddf252ad1be2c89b69c2b068fc378daa952ba7f163c4a11628f55a4df523b3ef846040516114f191906117ca565b60405180910390a36115048484846115d2565b50505050565b5f60055f9054906101000a900473ffffffffffffffffffffffffffffffffffffffff1690508160055f6101000a81548173ffffffffffffffffffffffffffffffffffffffff021916908373ffffffffffffffffffffffffffffffffffffffff1602179055508173ffffffffffffffffffffffffffffffffffffffff168173ffffffffffffffffffffffffffffffffffffffff167f8be0079c531659141344cd1fd0a4f28419497f9722a3daafe3b4186f6b6457e060405160405180910390a35050565b505050565b505050565b5f81519050919050565b5f82825260208201905092915050565b5f5b8381101561160e5780820151818401526020810190506115f3565b5f8484015250505050565b5f601f19601f8301169050919050565b5f611633826115d7565b61163d81856115e1565b935061164d8185602086016115f1565b61165681611619565b840191505092915050565b5f6020820190508181035f8301526116798184611629565b905092915050565b5f604051905090565b5f80fd5b5f80fd5b5f73ffffffffffffffffffffffffffffffffffffffff82169050919050565b5f6116bb82611692565b9050919050565b6116cb816116b1565b81146116d5575f80fd5b50565b5f813590506116e6816116c2565b92915050565b5f819050919050565b6116fe816116ec565b8114611708575f80fd5b50565b5f81359050611719816116f5565b92915050565b5f80604083850312156117355761173461168a565b5b5f611742858286016116d8565b92505060206117538582860161170b565b9150509250929050565b5f8115159050919050565b6117718161175d565b82525050565b5f60208201905061178a5f830184611768565b92915050565b5f602082840312156117a5576117a461168a565b5b5f6117b2848285016116d8565b91505092915050565b6117c4816116ec565b82525050565b5f6020820190506117dd5f8301846117bb565b92915050565b5f805f606084860312156117fa576117f961168a565b5b5f611807868287016116d8565b9350506020611818868287016116d8565b92505060406118298682870161170b565b9150509250925092565b5f60ff82169050919050565b61184881611833565b82525050565b5f6020820190506118615f83018461183f565b92915050565b5f80fd5b5f80fd5b7f4e487b71000000000000000000000000000000000000000000000000000000005f52604160045260245ffd5b6118a582611619565b810181811067ffffffffffffffff821117156118c4576118c361186f565b5b80604052505050565b5f6118d6611681565b90506118e2828261189c565b919050565b5f67ffffffffffffffff8211156119015761190061186f565b5b61190a82611619565b9050602081019050919050565b828183375f83830152505050565b5f611937611932846118e7565b6118cd565b9050828152602081018484840111156119535761195261186b565b5b61195e848285611917565b509392505050565b5f82601f83011261197a57611979611867565b5b813561198a848260208601611925565b91505092915050565b5f602082840312156119a8576119a761168a565b5b5f82013567ffffffffffffffff8111156119c5576119c461168e565b5b6119d184828501611966565b91505092915050565b5f602082840312156119ef576119ee61168a565b5b5f6119fc8482850161170b565b91505092915050565b611a0e816116b1565b82525050565b5f602082019050611a275f830184611a05565b92915050565b5f8060408385031215611a4357611a4261168a565b5b5f611a50858286016116d8565b9250506020611a61858286016116d8565b9150509250929050565b7f4e487b71000000000000000000000000000000000000000000000000000000005f52602260045260245ffd5b5f6002820490506001821680611aaf57607f821691505b602082108103611ac257611ac1611a6b565b5b50919050565b7f4e487b71000000000000000000000000000000000000000000000000000000005f52601160045260245ffd5b5f611aff826116ec565b9150611b0a836116ec565b9250828203905081811115611b2257611b21611ac8565b5b92915050565b7f50726576696f7573207068617365206e6f74206f7665722079657400000000005f82015250565b5f611b5c601b836115e1565b9150611b6782611b28565b602082019050919050565b5f6020820190508181035f830152611b8981611b50565b9050919050565b7f4c696d69742045786175737465640000000000000000000000000000000000005f82015250565b5f611bc4600e836115e1565b9150611bcf82611b90565b602082019050919050565b5f6020820190508181035f830152611bf181611bb8565b9050919050565b5f611c02826116ec565b91507fffffffffffffffffffffffffffffffffffffffffffffffffffffffffffffffff8203611c3457611c33611ac8565b5b600182019050919050565b7f4e487b71000000000000000000000000000000000000000000000000000000005f52601260045260245ffd5b5f611c76826116ec565b9150611c81836116ec565b925082611c9157611c90611c3f565b5b828204905092915050565b5f611ca6826116ec565b9150611cb1836116ec565b9250828201905080821115611cc957611cc8611ac8565b5b92915050565b7f5573657220616c726561647920526567697374657265640000000000000000005f82015250565b5f611d036017836115e1565b9150611d0e82611ccf565b602082019050919050565b5f6020820190508181035f830152611d3081611cf7565b9050919050565b5f81905092915050565b5f819050815f5260205f209050919050565b5f8154611d5f81611a98565b611d698186611d37565b9450600182165f8114611d835760018114611d9857611dca565b60ff1983168652811515820286019350611dca565b611da185611d41565b5f5b83811015611dc257815481890152600182019150602081019050611da3565b838801955050505b50505092915050565b5f611dde8284611d53565b915081905092915050565b5f611df3826115d7565b611dfd8185611d37565b9350611e0d8185602086016115f1565b80840191505092915050565b5f611e248284611de9565b915081905092915050565b5f6020601f8301049050919050565b5f82821b905092915050565b5f60088302611e797fffffffffffffffffffffffffffffffffffffffffffffffffffffffffffffffff82611e3e565b611e838683611e3e565b95508019841693508086168417925050509392505050565b5f819050919050565b5f611ebe611eb9611eb4846116ec565b611e9b565b6116ec565b9050919050565b5f819050919050565b611ed783611ea4565b611eeb611ee382611ec5565b848454611e4a565b825550505050565b5f90565b611eff611ef3565b611f0a818484611ece565b505050565b5b81811015611f2d57611f225f82611ef7565b600181019050611f10565b5050565b601f821115611f7257611f4381611d41565b611f4c84611e2f565b81016020851015611f5b578190505b611f6f611f6785611e2f565b830182611f0f565b50505b505050565b5f82821c905092915050565b5f611f925f1984600802611f77565b1980831691505092915050565b5f611faa8383611f83565b9150826002028217905092915050565b611fc3826115d7565b67ffffffffffffffff811115611fdc57611fdb61186f565b5b611fe68254611a98565b611ff1828285611f31565b5f60209050601f831160018114612022575f8415612010578287015190505b61201a8582611f9f565b865550612081565b601f19841661203086611d41565b5f5b8281101561205757848901518255600182019150602085019450602081019050612032565b868310156120745784890151612070601f891682611f83565b8355505b6001600288020188555050505b505050505050565b7f4f6e6c7920746865206f776e65722063616e2063616c6c20746869732066756e5f8201527f6374696f6e000000000000000000000000000000000000000000000000000000602082015250565b5f6120e36025836115e1565b91506120ee82612089565b604082019050919050565b5f6020820190508181035f830152612110816120d7565b9050919050565b7f45524332303a2064656372656173656420616c6c6f77616e63652062656c6f775f8201527f207a65726f000000000000000000000000000000000000000000000000000000602082015250565b5f6121716025836115e1565b915061217c82612117565b604082019050919050565b5f6020820190508181035f83015261219e81612165565b9050919050565b7f4f776e61626c653a206e6577206f776e657220697320746865207a65726f20615f8201527f6464726573730000000000000000000000000000000000000000000000000000602082015250565b5f6121ff6026836115e1565b915061220a826121a5565b604082019050919050565b5f6020820190508181035f83015261222c816121f3565b9050919050565b7f45524332303a20617070726f76652066726f6d20746865207a65726f206164645f8201527f7265737300000000000000000000000000000000000000000000000000000000602082015250565b5f61228d6024836115e1565b915061229882612233565b604082019050919050565b5f6020820190508181035f8301526122ba81612281565b9050919050565b7f45524332303a20617070726f766520746f20746865207a65726f2061646472655f8201527f7373000000000000000000000000000000000000000000000000000000000000602082015250565b5f61231b6022836115e1565b9150612326826122c1565b604082019050919050565b5f6020820190508181035f8301526123488161230f565b9050919050565b7f4f776e61626c653a2063616c6c6572206973206e6f7420746865206f776e65725f82015250565b5f6123836020836115e1565b915061238e8261234f565b602082019050919050565b5f6020820190508181035f8301526123b081612377565b9050919050565b7f45524332303a206d696e7420746f20746865207a65726f2061646472657373005f82015250565b5f6123eb601f836115e1565b91506123f6826123b7565b602082019050919050565b5f6020820190508181035f830152612418816123df565b9050919050565b7f45524332303a20696e73756666696369656e7420616c6c6f77616e63650000005f82015250565b5f612453601d836115e1565b915061245e8261241f565b602082019050919050565b5f6020820190508181035f83015261248081612447565b9050919050565b7f45524332303a207472616e736665722066726f6d20746865207a65726f2061645f8201527f6472657373000000000000000000000000000000000000000000000000000000602082015250565b5f6124e16025836115e1565b91506124ec82612487565b604082019050919050565b5f6020820190508181035f83015261250e816124d5565b9050919050565b7f45524332303a207472616e7366657220746f20746865207a65726f20616464725f8201527f6573730000000000000000000000000000000000000000000000000000000000602082015250565b5f61256f6023836115e1565b915061257a82612515565b604082019050919050565b5f6020820190508181035f83015261259c81612563565b9050919050565b7f45524332303a207472616e7366657220616d6f756e74206578636565647320625f8201527f616c616e63650000000000000000000000000000000000000000000000000000602082015250565b5f6125fd6026836115e1565b9150612608826125a3565b604082019050919050565b5f6020820190508181035f83015261262a816125f1565b905091905056fea264697066735822122060cd2995a350fea9b9c1db6ed816a60fbf99a53f4708c311d58f2ed60e1121dc64736f6c63430008150033",
			"opcodes": "PUSH1 0x80 PUSH1 0x40 MSTORE PUSH3 0x61A80 PUSH1 0x8 SSTORE PUSH1 0x1 PUSH1 0x9 SSTORE CALLVALUE DUP1 ISZERO PUSH3 0x1C JUMPI PUSH0 DUP1 REVERT JUMPDEST POP PUSH1 0x40 MLOAD PUSH3 0x2D91 CODESIZE SUB DUP1 PUSH3 0x2D91 DUP4 CODECOPY DUP2 DUP2 ADD PUSH1 0x40 MSTORE DUP2 ADD SWAP1 PUSH3 0x42 SWAP2 SWAP1 PUSH3 0x37E JUMP JUMPDEST PUSH1 0x40 MLOAD DUP1 PUSH1 0x40 ADD PUSH1 0x40 MSTORE DUP1 PUSH1 0x8 DUP2 MSTORE PUSH1 0x20 ADD PUSH32 0x676574536D617274000000000000000000000000000000000000000000000000 DUP2 MSTORE POP PUSH1 0x40 MLOAD DUP1 PUSH1 0x40 ADD PUSH1 0x40 MSTORE DUP1 PUSH1 0x4 DUP2 MSTORE PUSH1 0x20 ADD PUSH32 0x4745545300000000000000000000000000000000000000000000000000000000 DUP2 MSTORE POP DUP2 PUSH1 0x3 SWAP1 DUP2 PUSH3 0xBF SWAP2 SWAP1 PUSH3 0x638 JUMP JUMPDEST POP DUP1 PUSH1 0x4 SWAP1 DUP2 PUSH3 0xD1 SWAP2 SWAP1 PUSH3 0x638 JUMP JUMPDEST POP POP POP PUSH3 0xF4 PUSH3 0xE8 PUSH3 0x12F PUSH1 0x20 SHL PUSH1 0x20 SHR JUMP JUMPDEST PUSH3 0x136 PUSH1 0x20 SHL PUSH1 0x20 SHR JUMP JUMPDEST PUSH8 0x16345785D8A0000 PUSH1 0x6 DUP2 SWAP1 SSTORE POP DUP2 PUSH1 0xB SWAP1 DUP2 PUSH3 0x114 SWAP2 SWAP1 PUSH3 0x638 JUMP JUMPDEST POP DUP1 PUSH1 0xC SWAP1 DUP2 PUSH3 0x126 SWAP2 SWAP1 PUSH3 0x638 JUMP JUMPDEST POP POP POP PUSH3 0x71C JUMP JUMPDEST PUSH0 CALLER SWAP1 POP SWAP1 JUMP JUMPDEST PUSH0 PUSH1 0x5 PUSH0 SWAP1 SLOAD SWAP1 PUSH2 0x100 EXP SWAP1 DIV PUSH20 0xFFFFFFFFFFFFFFFFFFFFFFFFFFFFFFFFFFFFFFFF AND SWAP1 POP DUP2 PUSH1 0x5 PUSH0 PUSH2 0x100 EXP DUP2 SLOAD DUP2 PUSH20 0xFFFFFFFFFFFFFFFFFFFFFFFFFFFFFFFFFFFFFFFF MUL NOT AND SWAP1 DUP4 PUSH20 0xFFFFFFFFFFFFFFFFFFFFFFFFFFFFFFFFFFFFFFFF AND MUL OR SWAP1 SSTORE POP DUP2 PUSH20 0xFFFFFFFFFFFFFFFFFFFFFFFFFFFFFFFFFFFFFFFF AND DUP2 PUSH20 0xFFFFFFFFFFFFFFFFFFFFFFFFFFFFFFFFFFFFFFFF AND PUSH32 0x8BE0079C531659141344CD1FD0A4F28419497F9722A3DAAFE3B4186F6B6457E0 PUSH1 0x40 MLOAD PUSH1 0x40 MLOAD DUP1 SWAP2 SUB SWAP1 LOG3 POP POP JUMP JUMPDEST PUSH0 PUSH1 0x40 MLOAD SWAP1 POP SWAP1 JUMP JUMPDEST PUSH0 DUP1 REVERT JUMPDEST PUSH0 DUP1 REVERT JUMPDEST PUSH0 DUP1 REVERT JUMPDEST PUSH0 DUP1 REVERT JUMPDEST PUSH0 PUSH1 0x1F NOT PUSH1 0x1F DUP4 ADD AND SWAP1 POP SWAP2 SWAP1 POP JUMP JUMPDEST PUSH32 0x4E487B7100000000000000000000000000000000000000000000000000000000 PUSH0 MSTORE PUSH1 0x41 PUSH1 0x4 MSTORE PUSH1 0x24 PUSH0 REVERT JUMPDEST PUSH3 0x25A DUP3 PUSH3 0x212 JUMP JUMPDEST DUP2 ADD DUP2 DUP2 LT PUSH8 0xFFFFFFFFFFFFFFFF DUP3 GT OR ISZERO PUSH3 0x27C JUMPI PUSH3 0x27B PUSH3 0x222 JUMP JUMPDEST JUMPDEST DUP1 PUSH1 0x40 MSTORE POP POP POP JUMP JUMPDEST PUSH0 PUSH3 0x290 PUSH3 0x1F9 JUMP JUMPDEST SWAP1 POP PUSH3 0x29E DUP3 DUP3 PUSH3 0x24F JUMP JUMPDEST SWAP2 SWAP1 POP JUMP JUMPDEST PUSH0 PUSH8 0xFFFFFFFFFFFFFFFF DUP3 GT ISZERO PUSH3 0x2C0 JUMPI PUSH3 0x2BF PUSH3 0x222 JUMP JUMPDEST JUMPDEST PUSH3 0x2CB DUP3 PUSH3 0x212 JUMP JUMPDEST SWAP1 POP PUSH1 0x20 DUP2 ADD SWAP1 POP SWAP2 SWAP1 POP JUMP JUMPDEST PUSH0 JUMPDEST DUP4 DUP2 LT ISZERO PUSH3 0x2F7 JUMPI DUP1 DUP3 ADD MLOAD DUP2 DUP5 ADD MSTORE PUSH1 0x20 DUP2 ADD SWAP1 POP PUSH3 0x2DA JUMP JUMPDEST PUSH0 DUP5 DUP5 ADD MSTORE POP POP POP POP JUMP JUMPDEST PUSH0 PUSH3 0x318 PUSH3 0x312 DUP5 PUSH3 0x2A3 JUMP JUMPDEST PUSH3 0x285 JUMP JUMPDEST SWAP1 POP DUP3 DUP2 MSTORE PUSH1 0x20 DUP2 ADD DUP5 DUP5 DUP5 ADD GT ISZERO PUSH3 0x337 JUMPI PUSH3 0x336 PUSH3 0x20E JUMP JUMPDEST JUMPDEST PUSH3 0x344 DUP5 DUP3 DUP6 PUSH3 0x2D8 JUMP JUMPDEST POP SWAP4 SWAP3 POP POP POP JUMP JUMPDEST PUSH0 DUP3 PUSH1 0x1F DUP4 ADD SLT PUSH3 0x363 JUMPI PUSH3 0x362 PUSH3 0x20A JUMP JUMPDEST JUMPDEST DUP2 MLOAD PUSH3 0x375 DUP5 DUP3 PUSH1 0x20 DUP7 ADD PUSH3 0x302 JUMP JUMPDEST SWAP2 POP POP SWAP3 SWAP2 POP POP JUMP JUMPDEST PUSH0 DUP1 PUSH1 0x40 DUP4 DUP6 SUB SLT ISZERO PUSH3 0x397 JUMPI PUSH3 0x396 PUSH3 0x202 JUMP JUMPDEST JUMPDEST PUSH0 DUP4 ADD MLOAD PUSH8 0xFFFFFFFFFFFFFFFF DUP2 GT ISZERO PUSH3 0x3B7 JUMPI PUSH3 0x3B6 PUSH3 0x206 JUMP JUMPDEST JUMPDEST PUSH3 0x3C5 DUP6 DUP3 DUP7 ADD PUSH3 0x34C JUMP JUMPDEST SWAP3 POP POP PUSH1 0x20 DUP4 ADD MLOAD PUSH8 0xFFFFFFFFFFFFFFFF DUP2 GT ISZERO PUSH3 0x3E9 JUMPI PUSH3 0x3E8 PUSH3 0x206 JUMP JUMPDEST JUMPDEST PUSH3 0x3F7 DUP6 DUP3 DUP7 ADD PUSH3 0x34C JUMP JUMPDEST SWAP2 POP POP SWAP3 POP SWAP3 SWAP1 POP JUMP JUMPDEST PUSH0 DUP2 MLOAD SWAP1 POP SWAP2 SWAP1 POP JUMP JUMPDEST PUSH32 0x4E487B7100000000000000000000000000000000000000000000000000000000 PUSH0 MSTORE PUSH1 0x22 PUSH1 0x4 MSTORE PUSH1 0x24 PUSH0 REVERT JUMPDEST PUSH0 PUSH1 0x2 DUP3 DIV SWAP1 POP PUSH1 0x1 DUP3 AND DUP1 PUSH3 0x450 JUMPI PUSH1 0x7F DUP3 AND SWAP2 POP JUMPDEST PUSH1 0x20 DUP3 LT DUP2 SUB PUSH3 0x466 JUMPI PUSH3 0x465 PUSH3 0x40B JUMP JUMPDEST JUMPDEST POP SWAP2 SWAP1 POP JUMP JUMPDEST PUSH0 DUP2 SWAP1 POP DUP2 PUSH0 MSTORE PUSH1 0x20 PUSH0 KECCAK256 SWAP1 POP SWAP2 SWAP1 POP JUMP JUMPDEST PUSH0 PUSH1 0x20 PUSH1 0x1F DUP4 ADD DIV SWAP1 POP SWAP2 SWAP1 POP JUMP JUMPDEST PUSH0 DUP3 DUP3 SHL SWAP1 POP SWAP3 SWAP2 POP POP JUMP JUMPDEST PUSH0 PUSH1 0x8 DUP4 MUL PUSH3 0x4CA PUSH32 0xFFFFFFFFFFFFFFFFFFFFFFFFFFFFFFFFFFFFFFFFFFFFFFFFFFFFFFFFFFFFFFFF DUP3 PUSH3 0x48D JUMP JUMPDEST PUSH3 0x4D6 DUP7 DUP4 PUSH3 0x48D JUMP JUMPDEST SWAP6 POP DUP1 NOT DUP5 AND SWAP4 POP DUP1 DUP7 AND DUP5 OR SWAP3 POP POP POP SWAP4 SWAP3 POP POP POP JUMP JUMPDEST PUSH0 DUP2 SWAP1 POP SWAP2 SWAP1 POP JUMP JUMPDEST PUSH0 DUP2 SWAP1 POP SWAP2 SWAP1 POP JUMP JUMPDEST PUSH0 PUSH3 0x520 PUSH3 0x51A PUSH3 0x514 DUP5 PUSH3 0x4EE JUMP JUMPDEST PUSH3 0x4F7 JUMP JUMPDEST PUSH3 0x4EE JUMP JUMPDEST SWAP1 POP SWAP2 SWAP1 POP JUMP JUMPDEST PUSH0 DUP2 SWAP1 POP SWAP2 SWAP1 POP JUMP JUMPDEST PUSH3 0x53B DUP4 PUSH3 0x500 JUMP JUMPDEST PUSH3 0x553 PUSH3 0x54A DUP3 PUSH3 0x527 JUMP JUMPDEST DUP5 DUP5 SLOAD PUSH3 0x499 JUMP JUMPDEST DUP3 SSTORE POP POP POP POP JUMP JUMPDEST PUSH0 SWAP1 JUMP JUMPDEST PUSH3 0x569 PUSH3 0x55B JUMP JUMPDEST PUSH3 0x576 DUP2 DUP5 DUP5 PUSH3 0x530 JUMP JUMPDEST POP POP POP JUMP JUMPDEST JUMPDEST DUP2 DUP2 LT ISZERO PUSH3 0x59D JUMPI PUSH3 0x591 PUSH0 DUP3 PUSH3 0x55F JUMP JUMPDEST PUSH1 0x1 DUP2 ADD SWAP1 POP PUSH3 0x57C JUMP JUMPDEST POP POP JUMP JUMPDEST PUSH1 0x1F DUP3 GT ISZERO PUSH3 0x5EC JUMPI PUSH3 0x5B6 DUP2 PUSH3 0x46C JUMP JUMPDEST PUSH3 0x5C1 DUP5 PUSH3 0x47E JUMP JUMPDEST DUP2 ADD PUSH1 0x20 DUP6 LT ISZERO PUSH3 0x5D1 JUMPI DUP2 SWAP1 POP JUMPDEST PUSH3 0x5E9 PUSH3 0x5E0 DUP6 PUSH3 0x47E JUMP JUMPDEST DUP4 ADD DUP3 PUSH3 0x57B JUMP JUMPDEST POP POP JUMPDEST POP POP POP JUMP JUMPDEST PUSH0 DUP3 DUP3 SHR SWAP1 POP SWAP3 SWAP2 POP POP JUMP JUMPDEST PUSH0 PUSH3 0x60E PUSH0 NOT DUP5 PUSH1 0x8 MUL PUSH3 0x5F1 JUMP JUMPDEST NOT DUP1 DUP4 AND SWAP2 POP POP SWAP3 SWAP2 POP POP JUMP JUMPDEST PUSH0 PUSH3 0x628 DUP4 DUP4 PUSH3 0x5FD JUMP JUMPDEST SWAP2 POP DUP3 PUSH1 0x2 MUL DUP3 OR SWAP1 POP SWAP3 SWAP2 POP POP JUMP JUMPDEST PUSH3 0x643 DUP3 PUSH3 0x401 JUMP JUMPDEST PUSH8 0xFFFFFFFFFFFFFFFF DUP2 GT ISZERO PUSH3 0x65F JUMPI PUSH3 0x65E PUSH3 0x222 JUMP JUMPDEST JUMPDEST PUSH3 0x66B DUP3 SLOAD PUSH3 0x438 JUMP JUMPDEST PUSH3 0x678 DUP3 DUP3 DUP6 PUSH3 0x5A1 JUMP JUMPDEST PUSH0 PUSH1 0x20 SWAP1 POP PUSH1 0x1F DUP4 GT PUSH1 0x1 DUP2 EQ PUSH3 0x6AE JUMPI PUSH0 DUP5 ISZERO PUSH3 0x699 JUMPI DUP3 DUP8 ADD MLOAD SWAP1 POP JUMPDEST PUSH3 0x6A5 DUP6 DUP3 PUSH3 0x61B JUMP JUMPDEST DUP7 SSTORE POP PUSH3 0x714 JUMP JUMPDEST PUSH1 0x1F NOT DUP5 AND PUSH3 0x6BE DUP7 PUSH3 0x46C JUMP JUMPDEST PUSH0 JUMPDEST DUP3 DUP2 LT ISZERO PUSH3 0x6E7 JUMPI DUP5 DUP10 ADD MLOAD DUP3 SSTORE PUSH1 0x1 DUP3 ADD SWAP2 POP PUSH1 0x20 DUP6 ADD SWAP5 POP PUSH1 0x20 DUP2 ADD SWAP1 POP PUSH3 0x6C0 JUMP JUMPDEST DUP7 DUP4 LT ISZERO PUSH3 0x707 JUMPI DUP5 DUP10 ADD MLOAD PUSH3 0x703 PUSH1 0x1F DUP10 AND DUP3 PUSH3 0x5FD JUMP JUMPDEST DUP4 SSTORE POP JUMPDEST PUSH1 0x1 PUSH1 0x2 DUP9 MUL ADD DUP9 SSTORE POP POP POP JUMPDEST POP POP POP POP POP POP JUMP JUMPDEST PUSH2 0x2667 DUP1 PUSH3 0x72A PUSH0 CODECOPY PUSH0 RETURN INVALID PUSH1 0x80 PUSH1 0x40 MSTORE CALLVALUE DUP1 ISZERO PUSH2 0xF JUMPI PUSH0 DUP1 REVERT JUMPDEST POP PUSH1 0x4 CALLDATASIZE LT PUSH2 0x156 JUMPI PUSH0 CALLDATALOAD PUSH1 0xE0 SHR DUP1 PUSH4 0x70A08231 GT PUSH2 0xC1 JUMPI DUP1 PUSH4 0xA457C2D7 GT PUSH2 0x7A JUMPI DUP1 PUSH4 0xA457C2D7 EQ PUSH2 0x3A2 JUMPI DUP1 PUSH4 0xA9059CBB EQ PUSH2 0x3D2 JUMPI DUP1 PUSH4 0xCCA05803 EQ PUSH2 0x402 JUMPI DUP1 PUSH4 0xD7E612D1 EQ PUSH2 0x420 JUMPI DUP1 PUSH4 0xDD62ED3E EQ PUSH2 0x43C JUMPI DUP1 PUSH4 0xF2FDE38B EQ PUSH2 0x46C JUMPI PUSH2 0x156 JUMP JUMPDEST DUP1 PUSH4 0x70A08231 EQ PUSH2 0x2F0 JUMPI DUP1 PUSH4 0x715018A6 EQ PUSH2 0x320 JUMPI DUP1 PUSH4 0x7FF9B596 EQ PUSH2 0x32A JUMPI DUP1 PUSH4 0x873138F3 EQ PUSH2 0x348 JUMPI DUP1 PUSH4 0x8DA5CB5B EQ PUSH2 0x366 JUMPI DUP1 PUSH4 0x95D89B41 EQ PUSH2 0x384 JUMPI PUSH2 0x156 JUMP JUMPDEST DUP1 PUSH4 0x313CE567 GT PUSH2 0x113 JUMPI DUP1 PUSH4 0x313CE567 EQ PUSH2 0x230 JUMPI DUP1 PUSH4 0x39509351 EQ PUSH2 0x24E JUMPI DUP1 PUSH4 0x407EEFF7 EQ PUSH2 0x27E JUMPI DUP1 PUSH4 0x40B2D3AF EQ PUSH2 0x2AE JUMPI DUP1 PUSH4 0x47F07A8E EQ PUSH2 0x2CA JUMPI DUP1 PUSH4 0x6A61E5FC EQ PUSH2 0x2D4 JUMPI PUSH2 0x156 JUMP JUMPDEST DUP1 PUSH4 0x6FDDE03 EQ PUSH2 0x15A JUMPI DUP1 PUSH4 0x95EA7B3 EQ PUSH2 0x178 JUMPI DUP1 PUSH4 0x1249C58B EQ PUSH2 0x1A8 JUMPI DUP1 PUSH4 0x163F7522 EQ PUSH2 0x1B2 JUMPI DUP1 PUSH4 0x18160DDD EQ PUSH2 0x1E2 JUMPI DUP1 PUSH4 0x23B872DD EQ PUSH2 0x200 JUMPI JUMPDEST PUSH0 DUP1 REVERT JUMPDEST PUSH2 0x162 PUSH2 0x488 JUMP JUMPDEST PUSH1 0x40 MLOAD PUSH2 0x16F SWAP2 SWAP1 PUSH2 0x1661 JUMP JUMPDEST PUSH1 0x40 MLOAD DUP1 SWAP2 SUB SWAP1 RETURN JUMPDEST PUSH2 0x192 PUSH1 0x4 DUP1 CALLDATASIZE SUB DUP2 ADD SWAP1 PUSH2 0x18D SWAP2 SWAP1 PUSH2 0x171F JUMP JUMPDEST PUSH2 0x518 JUMP JUMPDEST PUSH1 0x40 MLOAD PUSH2 0x19F SWAP2 SWAP1 PUSH2 0x1777 JUMP JUMPDEST PUSH1 0x40 MLOAD DUP1 SWAP2 SUB SWAP1 RETURN JUMPDEST PUSH2 0x1B0 PUSH2 0x53A JUMP JUMPDEST STOP JUMPDEST PUSH2 0x1CC PUSH1 0x4 DUP1 CALLDATASIZE SUB DUP2 ADD SWAP1 PUSH2 0x1C7 SWAP2 SWAP1 PUSH2 0x1790 JUMP JUMPDEST PUSH2 0x61C JUMP JUMPDEST PUSH1 0x40 MLOAD PUSH2 0x1D9 SWAP2 SWAP1 PUSH2 0x1777 JUMP JUMPDEST PUSH1 0x40 MLOAD DUP1 SWAP2 SUB SWAP1 RETURN JUMPDEST PUSH2 0x1EA PUSH2 0x66E JUMP JUMPDEST PUSH1 0x40 MLOAD PUSH2 0x1F7 SWAP2 SWAP1 PUSH2 0x17CA JUMP JUMPDEST PUSH1 0x40 MLOAD DUP1 SWAP2 SUB SWAP1 RETURN JUMPDEST PUSH2 0x21A PUSH1 0x4 DUP1 CALLDATASIZE SUB DUP2 ADD SWAP1 PUSH2 0x215 SWAP2 SWAP1 PUSH2 0x17E3 JUMP JUMPDEST PUSH2 0x677 JUMP JUMPDEST PUSH1 0x40 MLOAD PUSH2 0x227 SWAP2 SWAP1 PUSH2 0x1777 JUMP JUMPDEST PUSH1 0x40 MLOAD DUP1 SWAP2 SUB SWAP1 RETURN JUMPDEST PUSH2 0x238 PUSH2 0x6A5 JUMP JUMPDEST PUSH1 0x40 MLOAD PUSH2 0x245 SWAP2 SWAP1 PUSH2 0x184E JUMP JUMPDEST PUSH1 0x40 MLOAD DUP1 SWAP2 SUB SWAP1 RETURN JUMPDEST PUSH2 0x268 PUSH1 0x4 DUP1 CALLDATASIZE SUB DUP2 ADD SWAP1 PUSH2 0x263 SWAP2 SWAP1 PUSH2 0x171F JUMP JUMPDEST PUSH2 0x6AD JUMP JUMPDEST PUSH1 0x40 MLOAD PUSH2 0x275 SWAP2 SWAP1 PUSH2 0x1777 JUMP JUMPDEST PUSH1 0x40 MLOAD DUP1 SWAP2 SUB SWAP1 RETURN JUMPDEST PUSH2 0x298 PUSH1 0x4 DUP1 CALLDATASIZE SUB DUP2 ADD SWAP1 PUSH2 0x293 SWAP2 SWAP1 PUSH2 0x1790 JUMP JUMPDEST PUSH2 0x6E3 JUMP JUMPDEST PUSH1 0x40 MLOAD PUSH2 0x2A5 SWAP2 SWAP1 PUSH2 0x1661 JUMP JUMPDEST PUSH1 0x40 MLOAD DUP1 SWAP2 SUB SWAP1 RETURN JUMPDEST PUSH2 0x2C8 PUSH1 0x4 DUP1 CALLDATASIZE SUB DUP2 ADD SWAP1 PUSH2 0x2C3 SWAP2 SWAP1 PUSH2 0x1993 JUMP JUMPDEST PUSH2 0x7B0 JUMP JUMPDEST STOP JUMPDEST PUSH2 0x2D2 PUSH2 0x9C3 JUMP JUMPDEST STOP JUMPDEST PUSH2 0x2EE PUSH1 0x4 DUP1 CALLDATASIZE SUB DUP2 ADD SWAP1 PUSH2 0x2E9 SWAP2 SWAP1 PUSH2 0x19DA JUMP JUMPDEST PUSH2 0xA85 JUMP JUMPDEST STOP JUMPDEST PUSH2 0x30A PUSH1 0x4 DUP1 CALLDATASIZE SUB DUP2 ADD SWAP1 PUSH2 0x305 SWAP2 SWAP1 PUSH2 0x1790 JUMP JUMPDEST PUSH2 0xA97 JUMP JUMPDEST PUSH1 0x40 MLOAD PUSH2 0x317 SWAP2 SWAP1 PUSH2 0x17CA JUMP JUMPDEST PUSH1 0x40 MLOAD DUP1 SWAP2 SUB SWAP1 RETURN JUMPDEST PUSH2 0x328 PUSH2 0xADC JUMP JUMPDEST STOP JUMPDEST PUSH2 0x332 PUSH2 0xAEF JUMP JUMPDEST PUSH1 0x40 MLOAD PUSH2 0x33F SWAP2 SWAP1 PUSH2 0x17CA JUMP JUMPDEST PUSH1 0x40 MLOAD DUP1 SWAP2 SUB SWAP1 RETURN JUMPDEST PUSH2 0x350 PUSH2 0xAF5 JUMP JUMPDEST PUSH1 0x40 MLOAD PUSH2 0x35D SWAP2 SWAP1 PUSH2 0x1777 JUMP JUMPDEST PUSH1 0x40 MLOAD DUP1 SWAP2 SUB SWAP1 RETURN JUMPDEST PUSH2 0x36E PUSH2 0xB45 JUMP JUMPDEST PUSH1 0x40 MLOAD PUSH2 0x37B SWAP2 SWAP1 PUSH2 0x1A14 JUMP JUMPDEST PUSH1 0x40 MLOAD DUP1 SWAP2 SUB SWAP1 RETURN JUMPDEST PUSH2 0x38C PUSH2 0xB6D JUMP JUMPDEST PUSH1 0x40 MLOAD PUSH2 0x399 SWAP2 SWAP1 PUSH2 0x1661 JUMP JUMPDEST PUSH1 0x40 MLOAD DUP1 SWAP2 SUB SWAP1 RETURN JUMPDEST PUSH2 0x3BC PUSH1 0x4 DUP1 CALLDATASIZE SUB DUP2 ADD SWAP1 PUSH2 0x3B7 SWAP2 SWAP1 PUSH2 0x171F JUMP JUMPDEST PUSH2 0xBFD JUMP JUMPDEST PUSH1 0x40 MLOAD PUSH2 0x3C9 SWAP2 SWAP1 PUSH2 0x1777 JUMP JUMPDEST PUSH1 0x40 MLOAD DUP1 SWAP2 SUB SWAP1 RETURN JUMPDEST PUSH2 0x3EC PUSH1 0x4 DUP1 CALLDATASIZE SUB DUP2 ADD SWAP1 PUSH2 0x3E7 SWAP2 SWAP1 PUSH2 0x171F JUMP JUMPDEST PUSH2 0xC72 JUMP JUMPDEST PUSH1 0x40 MLOAD PUSH2 0x3F9 SWAP2 SWAP1 PUSH2 0x1777 JUMP JUMPDEST PUSH1 0x40 MLOAD DUP1 SWAP2 SUB SWAP1 RETURN JUMPDEST PUSH2 0x40A PUSH2 0xC94 JUMP JUMPDEST PUSH1 0x40 MLOAD PUSH2 0x417 SWAP2 SWAP1 PUSH2 0x1661 JUMP JUMPDEST PUSH1 0x40 MLOAD DUP1 SWAP2 SUB SWAP1 RETURN JUMPDEST PUSH2 0x43A PUSH1 0x4 DUP1 CALLDATASIZE SUB DUP2 ADD SWAP1 PUSH2 0x435 SWAP2 SWAP1 PUSH2 0x19DA JUMP JUMPDEST PUSH2 0xD5F JUMP JUMPDEST STOP JUMPDEST PUSH2 0x456 PUSH1 0x4 DUP1 CALLDATASIZE SUB DUP2 ADD SWAP1 PUSH2 0x451 SWAP2 SWAP1 PUSH2 0x1A2D JUMP JUMPDEST PUSH2 0xD79 JUMP JUMPDEST PUSH1 0x40 MLOAD PUSH2 0x463 SWAP2 SWAP1 PUSH2 0x17CA JUMP JUMPDEST PUSH1 0x40 MLOAD DUP1 SWAP2 SUB SWAP1 RETURN JUMPDEST PUSH2 0x486 PUSH1 0x4 DUP1 CALLDATASIZE SUB DUP2 ADD SWAP1 PUSH2 0x481 SWAP2 SWAP1 PUSH2 0x1790 JUMP JUMPDEST PUSH2 0xDFB JUMP JUMPDEST STOP JUMPDEST PUSH1 0x60 PUSH1 0x3 DUP1 SLOAD PUSH2 0x497 SWAP1 PUSH2 0x1A98 JUMP JUMPDEST DUP1 PUSH1 0x1F ADD PUSH1 0x20 DUP1 SWAP2 DIV MUL PUSH1 0x20 ADD PUSH1 0x40 MLOAD SWAP1 DUP2 ADD PUSH1 0x40 MSTORE DUP1 SWAP3 SWAP2 SWAP1 DUP2 DUP2 MSTORE PUSH1 0x20 ADD DUP3 DUP1 SLOAD PUSH2 0x4C3 SWAP1 PUSH2 0x1A98 JUMP JUMPDEST DUP1 ISZERO PUSH2 0x50E JUMPI DUP1 PUSH1 0x1F LT PUSH2 0x4E5 JUMPI PUSH2 0x100 DUP1 DUP4 SLOAD DIV MUL DUP4 MSTORE SWAP2 PUSH1 0x20 ADD SWAP2 PUSH2 0x50E JUMP JUMPDEST DUP3 ADD SWAP2 SWAP1 PUSH0 MSTORE PUSH1 0x20 PUSH0 KECCAK256 SWAP1 JUMPDEST DUP2 SLOAD DUP2 MSTORE SWAP1 PUSH1 0x1 ADD SWAP1 PUSH1 0x20 ADD DUP1 DUP4 GT PUSH2 0x4F1 JUMPI DUP3 SWAP1 SUB PUSH1 0x1F AND DUP3 ADD SWAP2 JUMPDEST POP POP POP POP POP SWAP1 POP SWAP1 JUMP JUMPDEST PUSH0 DUP1 PUSH2 0x522 PUSH2 0xE7D JUMP JUMPDEST SWAP1 POP PUSH2 0x52F DUP2 DUP6 DUP6 PUSH2 0xE84 JUMP JUMPDEST PUSH1 0x1 SWAP2 POP POP SWAP3 SWAP2 POP POP JUMP JUMPDEST PUSH2 0x542 PUSH2 0x1047 JUMP JUMPDEST PUSH0 TIMESTAMP SWAP1 POP PUSH2 0x384 PUSH1 0x7 SLOAD DUP3 PUSH2 0x557 SWAP2 SWAP1 PUSH2 0x1AF5 JUMP JUMPDEST LT ISZERO PUSH2 0x598 JUMPI PUSH1 0x40 MLOAD PUSH32 0x8C379A000000000000000000000000000000000000000000000000000000000 DUP2 MSTORE PUSH1 0x4 ADD PUSH2 0x58F SWAP1 PUSH2 0x1B72 JUMP JUMPDEST PUSH1 0x40 MLOAD DUP1 SWAP2 SUB SWAP1 REVERT JUMPDEST PUSH0 PUSH1 0x8 SLOAD LT ISZERO PUSH2 0x5DD JUMPI PUSH1 0x40 MLOAD PUSH32 0x8C379A000000000000000000000000000000000000000000000000000000000 DUP2 MSTORE PUSH1 0x4 ADD PUSH2 0x5D4 SWAP1 PUSH2 0x1BDA JUMP JUMPDEST PUSH1 0x40 MLOAD DUP1 SWAP2 SUB SWAP1 REVERT JUMPDEST PUSH1 0x9 PUSH0 DUP2 SLOAD DUP1 SWAP3 SWAP2 SWAP1 PUSH2 0x5EF SWAP1 PUSH2 0x1BF8 JUMP JUMPDEST SWAP2 SWAP1 POP SSTORE POP PUSH2 0x600 CALLER PUSH1 0x8 SLOAD PUSH2 0x10C5 JUMP JUMPDEST PUSH1 0x2 PUSH1 0x8 PUSH0 DUP3 DUP3 SLOAD PUSH2 0x612 SWAP2 SWAP1 PUSH2 0x1C6C JUMP JUMPDEST SWAP3 POP POP DUP2 SWAP1 SSTORE POP POP JUMP JUMPDEST PUSH0 PUSH1 0xD PUSH0 DUP4 PUSH20 0xFFFFFFFFFFFFFFFFFFFFFFFFFFFFFFFFFFFFFFFF AND PUSH20 0xFFFFFFFFFFFFFFFFFFFFFFFFFFFFFFFFFFFFFFFF AND DUP2 MSTORE PUSH1 0x20 ADD SWAP1 DUP2 MSTORE PUSH1 0x20 ADD PUSH0 KECCAK256 PUSH0 SWAP1 SLOAD SWAP1 PUSH2 0x100 EXP SWAP1 DIV PUSH1 0xFF AND SWAP1 POP SWAP2 SWAP1 POP JUMP JUMPDEST PUSH0 PUSH1 0x2 SLOAD SWAP1 POP SWAP1 JUMP JUMPDEST PUSH0 DUP1 PUSH2 0x681 PUSH2 0xE7D JUMP JUMPDEST SWAP1 POP PUSH2 0x68E DUP6 DUP3 DUP6 PUSH2 0x1213 JUMP JUMPDEST PUSH2 0x699 DUP6 DUP6 DUP6 PUSH2 0x129E JUMP JUMPDEST PUSH1 0x1 SWAP2 POP POP SWAP4 SWAP3 POP POP POP JUMP JUMPDEST PUSH0 PUSH1 0x12 SWAP1 POP SWAP1 JUMP JUMPDEST PUSH0 DUP1 PUSH2 0x6B7 PUSH2 0xE7D JUMP JUMPDEST SWAP1 POP PUSH2 0x6D8 DUP2 DUP6 DUP6 PUSH2 0x6C9 DUP6 DUP10 PUSH2 0xD79 JUMP JUMPDEST PUSH2 0x6D3 SWAP2 SWAP1 PUSH2 0x1C9C JUMP JUMPDEST PUSH2 0xE84 JUMP JUMPDEST PUSH1 0x1 SWAP2 POP POP SWAP3 SWAP2 POP POP JUMP JUMPDEST PUSH1 0x60 PUSH1 0xA PUSH0 DUP4 PUSH20 0xFFFFFFFFFFFFFFFFFFFFFFFFFFFFFFFFFFFFFFFF AND PUSH20 0xFFFFFFFFFFFFFFFFFFFFFFFFFFFFFFFFFFFFFFFF AND DUP2 MSTORE PUSH1 0x20 ADD SWAP1 DUP2 MSTORE PUSH1 0x20 ADD PUSH0 KECCAK256 DUP1 SLOAD PUSH2 0x72D SWAP1 PUSH2 0x1A98 JUMP JUMPDEST DUP1 PUSH1 0x1F ADD PUSH1 0x20 DUP1 SWAP2 DIV MUL PUSH1 0x20 ADD PUSH1 0x40 MLOAD SWAP1 DUP2 ADD PUSH1 0x40 MSTORE DUP1 SWAP3 SWAP2 SWAP1 DUP2 DUP2 MSTORE PUSH1 0x20 ADD DUP3 DUP1 SLOAD PUSH2 0x759 SWAP1 PUSH2 0x1A98 JUMP JUMPDEST DUP1 ISZERO PUSH2 0x7A4 JUMPI DUP1 PUSH1 0x1F LT PUSH2 0x77B JUMPI PUSH2 0x100 DUP1 DUP4 SLOAD DIV MUL DUP4 MSTORE SWAP2 PUSH1 0x20 ADD SWAP2 PUSH2 0x7A4 JUMP JUMPDEST DUP3 ADD SWAP2 SWAP1 PUSH0 MSTORE PUSH1 0x20 PUSH0 KECCAK256 SWAP1 JUMPDEST DUP2 SLOAD DUP2 MSTORE SWAP1 PUSH1 0x1 ADD SWAP1 PUSH1 0x20 ADD DUP1 DUP4 GT PUSH2 0x787 JUMPI DUP3 SWAP1 SUB PUSH1 0x1F AND DUP3 ADD SWAP2 JUMPDEST POP POP POP POP POP SWAP1 POP SWAP2 SWAP1 POP JUMP JUMPDEST PUSH1 0xD PUSH0 CALLER PUSH20 0xFFFFFFFFFFFFFFFFFFFFFFFFFFFFFFFFFFFFFFFF AND PUSH20 0xFFFFFFFFFFFFFFFFFFFFFFFFFFFFFFFFFFFFFFFF AND DUP2 MSTORE PUSH1 0x20 ADD SWAP1 DUP2 MSTORE PUSH1 0x20 ADD PUSH0 KECCAK256 PUSH0 SWAP1 SLOAD SWAP1 PUSH2 0x100 EXP SWAP1 DIV PUSH1 0xFF AND ISZERO PUSH2 0x83A JUMPI PUSH1 0x40 MLOAD PUSH32 0x8C379A000000000000000000000000000000000000000000000000000000000 DUP2 MSTORE PUSH1 0x4 ADD PUSH2 0x831 SWAP1 PUSH2 0x1D19 JUMP JUMPDEST PUSH1 0x40 MLOAD DUP1 SWAP2 SUB SWAP1 REVERT JUMPDEST PUSH1 0xB PUSH1 0x40 MLOAD PUSH1 0x20 ADD PUSH2 0x84C SWAP2 SWAP1 PUSH2 0x1DD3 JUMP JUMPDEST PUSH1 0x40 MLOAD PUSH1 0x20 DUP2 DUP4 SUB SUB DUP2 MSTORE SWAP1 PUSH1 0x40 MSTORE DUP1 MLOAD SWAP1 PUSH1 0x20 ADD KECCAK256 DUP2 PUSH1 0x40 MLOAD PUSH1 0x20 ADD PUSH2 0x873 SWAP2 SWAP1 PUSH2 0x1E19 JUMP JUMPDEST PUSH1 0x40 MLOAD PUSH1 0x20 DUP2 DUP4 SUB SUB DUP2 MSTORE SWAP1 PUSH1 0x40 MSTORE DUP1 MLOAD SWAP1 PUSH1 0x20 ADD KECCAK256 EQ DUP1 PUSH2 0x8E1 JUMPI POP PUSH1 0xC PUSH1 0x40 MLOAD PUSH1 0x20 ADD PUSH2 0x8A2 SWAP2 SWAP1 PUSH2 0x1DD3 JUMP JUMPDEST PUSH1 0x40 MLOAD PUSH1 0x20 DUP2 DUP4 SUB SUB DUP2 MSTORE SWAP1 PUSH1 0x40 MSTORE DUP1 MLOAD SWAP1 PUSH1 0x20 ADD KECCAK256 DUP2 PUSH1 0x40 MLOAD PUSH1 0x20 ADD PUSH2 0x8C9 SWAP2 SWAP1 PUSH2 0x1E19 JUMP JUMPDEST PUSH1 0x40 MLOAD PUSH1 0x20 DUP2 DUP4 SUB SUB DUP2 MSTORE SWAP1 PUSH1 0x40 MSTORE DUP1 MLOAD SWAP1 PUSH1 0x20 ADD KECCAK256 EQ JUMPDEST PUSH2 0x920 JUMPI PUSH1 0x40 MLOAD PUSH32 0x8C379A000000000000000000000000000000000000000000000000000000000 DUP2 MSTORE PUSH1 0x4 ADD PUSH2 0x917 SWAP1 PUSH2 0x1D19 JUMP JUMPDEST PUSH1 0x40 MLOAD DUP1 SWAP2 SUB SWAP1 REVERT JUMPDEST PUSH1 0x1 PUSH1 0xD PUSH0 CALLER PUSH20 0xFFFFFFFFFFFFFFFFFFFFFFFFFFFFFFFFFFFFFFFF AND PUSH20 0xFFFFFFFFFFFFFFFFFFFFFFFFFFFFFFFFFFFFFFFF AND DUP2 MSTORE PUSH1 0x20 ADD SWAP1 DUP2 MSTORE PUSH1 0x20 ADD PUSH0 KECCAK256 PUSH0 PUSH2 0x100 EXP DUP2 SLOAD DUP2 PUSH1 0xFF MUL NOT AND SWAP1 DUP4 ISZERO ISZERO MUL OR SWAP1 SSTORE POP DUP1 PUSH1 0xA PUSH0 CALLER PUSH20 0xFFFFFFFFFFFFFFFFFFFFFFFFFFFFFFFFFFFFFFFF AND PUSH20 0xFFFFFFFFFFFFFFFFFFFFFFFFFFFFFFFFFFFFFFFF AND DUP2 MSTORE PUSH1 0x20 ADD SWAP1 DUP2 MSTORE PUSH1 0x20 ADD PUSH0 KECCAK256 SWAP1 DUP2 PUSH2 0x9BF SWAP2 SWAP1 PUSH2 0x1FBA JUMP JUMPDEST POP POP JUMP JUMPDEST PUSH2 0x9CB PUSH2 0xB45 JUMP JUMPDEST PUSH20 0xFFFFFFFFFFFFFFFFFFFFFFFFFFFFFFFFFFFFFFFF AND CALLER PUSH20 0xFFFFFFFFFFFFFFFFFFFFFFFFFFFFFFFFFFFFFFFF AND EQ PUSH2 0xA38 JUMPI PUSH1 0x40 MLOAD PUSH32 0x8C379A000000000000000000000000000000000000000000000000000000000 DUP2 MSTORE PUSH1 0x4 ADD PUSH2 0xA2F SWAP1 PUSH2 0x20F9 JUMP JUMPDEST PUSH1 0x40 MLOAD DUP1 SWAP2 SUB SWAP1 REVERT JUMPDEST PUSH2 0xA40 PUSH2 0xB45 JUMP JUMPDEST PUSH20 0xFFFFFFFFFFFFFFFFFFFFFFFFFFFFFFFFFFFFFFFF AND PUSH2 0x8FC SELFBALANCE SWAP1 DUP2 ISZERO MUL SWAP1 PUSH1 0x40 MLOAD PUSH0 PUSH1 0x40 MLOAD DUP1 DUP4 SUB DUP2 DUP6 DUP9 DUP9 CALL SWAP4 POP POP POP POP ISZERO DUP1 ISZERO PUSH2 0xA82 JUMPI RETURNDATASIZE PUSH0 DUP1 RETURNDATACOPY RETURNDATASIZE PUSH0 REVERT JUMPDEST POP JUMP JUMPDEST PUSH2 0xA8D PUSH2 0x1047 JUMP JUMPDEST DUP1 PUSH1 0x6 DUP2 SWAP1 SSTORE POP POP JUMP JUMPDEST PUSH0 DUP1 PUSH0 DUP4 PUSH20 0xFFFFFFFFFFFFFFFFFFFFFFFFFFFFFFFFFFFFFFFF AND PUSH20 0xFFFFFFFFFFFFFFFFFFFFFFFFFFFFFFFFFFFFFFFF AND DUP2 MSTORE PUSH1 0x20 ADD SWAP1 DUP2 MSTORE PUSH1 0x20 ADD PUSH0 KECCAK256 SLOAD SWAP1 POP SWAP2 SWAP1 POP JUMP JUMPDEST PUSH2 0xAE4 PUSH2 0x1047 JUMP JUMPDEST PUSH2 0xAED PUSH0 PUSH2 0x150A JUMP JUMPDEST JUMP JUMPDEST PUSH1 0x6 SLOAD DUP2 JUMP JUMPDEST PUSH0 PUSH1 0xD PUSH0 CALLER PUSH20 0xFFFFFFFFFFFFFFFFFFFFFFFFFFFFFFFFFFFFFFFF AND PUSH20 0xFFFFFFFFFFFFFFFFFFFFFFFFFFFFFFFFFFFFFFFF AND DUP2 MSTORE PUSH1 0x20 ADD SWAP1 DUP2 MSTORE PUSH1 0x20 ADD PUSH0 KECCAK256 PUSH0 SWAP1 SLOAD SWAP1 PUSH2 0x100 EXP SWAP1 DIV PUSH1 0xFF AND SWAP1 POP SWAP1 JUMP JUMPDEST PUSH0 PUSH1 0x5 PUSH0 SWAP1 SLOAD SWAP1 PUSH2 0x100 EXP SWAP1 DIV PUSH20 0xFFFFFFFFFFFFFFFFFFFFFFFFFFFFFFFFFFFFFFFF AND SWAP1 POP SWAP1 JUMP JUMPDEST PUSH1 0x60 PUSH1 0x4 DUP1 SLOAD PUSH2 0xB7C SWAP1 PUSH2 0x1A98 JUMP JUMPDEST DUP1 PUSH1 0x1F ADD PUSH1 0x20 DUP1 SWAP2 DIV MUL PUSH1 0x20 ADD PUSH1 0x40 MLOAD SWAP1 DUP2 ADD PUSH1 0x40 MSTORE DUP1 SWAP3 SWAP2 SWAP1 DUP2 DUP2 MSTORE PUSH1 0x20 ADD DUP3 DUP1 SLOAD PUSH2 0xBA8 SWAP1 PUSH2 0x1A98 JUMP JUMPDEST DUP1 ISZERO PUSH2 0xBF3 JUMPI DUP1 PUSH1 0x1F LT PUSH2 0xBCA JUMPI PUSH2 0x100 DUP1 DUP4 SLOAD DIV MUL DUP4 MSTORE SWAP2 PUSH1 0x20 ADD SWAP2 PUSH2 0xBF3 JUMP JUMPDEST DUP3 ADD SWAP2 SWAP1 PUSH0 MSTORE PUSH1 0x20 PUSH0 KECCAK256 SWAP1 JUMPDEST DUP2 SLOAD DUP2 MSTORE SWAP1 PUSH1 0x1 ADD SWAP1 PUSH1 0x20 ADD DUP1 DUP4 GT PUSH2 0xBD6 JUMPI DUP3 SWAP1 SUB PUSH1 0x1F AND DUP3 ADD SWAP2 JUMPDEST POP POP POP POP POP SWAP1 POP SWAP1 JUMP JUMPDEST PUSH0 DUP1 PUSH2 0xC07 PUSH2 0xE7D JUMP JUMPDEST SWAP1 POP PUSH0 PUSH2 0xC14 DUP3 DUP7 PUSH2 0xD79 JUMP JUMPDEST SWAP1 POP DUP4 DUP2 LT ISZERO PUSH2 0xC59 JUMPI PUSH1 0x40 MLOAD PUSH32 0x8C379A000000000000000000000000000000000000000000000000000000000 DUP2 MSTORE PUSH1 0x4 ADD PUSH2 0xC50 SWAP1 PUSH2 0x2187 JUMP JUMPDEST PUSH1 0x40 MLOAD DUP1 SWAP2 SUB SWAP1 REVERT JUMPDEST PUSH2 0xC66 DUP3 DUP7 DUP7 DUP5 SUB PUSH2 0xE84 JUMP JUMPDEST PUSH1 0x1 SWAP3 POP POP POP SWAP3 SWAP2 POP POP JUMP JUMPDEST PUSH0 DUP1 PUSH2 0xC7C PUSH2 0xE7D JUMP JUMPDEST SWAP1 POP PUSH2 0xC89 DUP2 DUP6 DUP6 PUSH2 0x129E JUMP JUMPDEST PUSH1 0x1 SWAP2 POP POP SWAP3 SWAP2 POP POP JUMP JUMPDEST PUSH1 0x60 PUSH1 0xA PUSH0 CALLER PUSH20 0xFFFFFFFFFFFFFFFFFFFFFFFFFFFFFFFFFFFFFFFF AND PUSH20 0xFFFFFFFFFFFFFFFFFFFFFFFFFFFFFFFFFFFFFFFF AND DUP2 MSTORE PUSH1 0x20 ADD SWAP1 DUP2 MSTORE PUSH1 0x20 ADD PUSH0 KECCAK256 DUP1 SLOAD PUSH2 0xCDE SWAP1 PUSH2 0x1A98 JUMP JUMPDEST DUP1 PUSH1 0x1F ADD PUSH1 0x20 DUP1 SWAP2 DIV MUL PUSH1 0x20 ADD PUSH1 0x40 MLOAD SWAP1 DUP2 ADD PUSH1 0x40 MSTORE DUP1 SWAP3 SWAP2 SWAP1 DUP2 DUP2 MSTORE PUSH1 0x20 ADD DUP3 DUP1 SLOAD PUSH2 0xD0A SWAP1 PUSH2 0x1A98 JUMP JUMPDEST DUP1 ISZERO PUSH2 0xD55 JUMPI DUP1 PUSH1 0x1F LT PUSH2 0xD2C JUMPI PUSH2 0x100 DUP1 DUP4 SLOAD DIV MUL DUP4 MSTORE SWAP2 PUSH1 0x20 ADD SWAP2 PUSH2 0xD55 JUMP JUMPDEST DUP3 ADD SWAP2 SWAP1 PUSH0 MSTORE PUSH1 0x20 PUSH0 KECCAK256 SWAP1 JUMPDEST DUP2 SLOAD DUP2 MSTORE SWAP1 PUSH1 0x1 ADD SWAP1 PUSH1 0x20 ADD DUP1 DUP4 GT PUSH2 0xD38 JUMPI DUP3 SWAP1 SUB PUSH1 0x1F AND DUP3 ADD SWAP2 JUMPDEST POP POP POP POP POP SWAP1 POP SWAP1 JUMP JUMPDEST PUSH2 0xD67 PUSH2 0x1047 JUMP JUMPDEST PUSH1 0x1 PUSH1 0x9 DUP2 SWAP1 SSTORE POP DUP1 PUSH1 0x8 DUP2 SWAP1 SSTORE POP POP JUMP JUMPDEST PUSH0 PUSH1 0x1 PUSH0 DUP5 PUSH20 0xFFFFFFFFFFFFFFFFFFFFFFFFFFFFFFFFFFFFFFFF AND PUSH20 0xFFFFFFFFFFFFFFFFFFFFFFFFFFFFFFFFFFFFFFFF AND DUP2 MSTORE PUSH1 0x20 ADD SWAP1 DUP2 MSTORE PUSH1 0x20 ADD PUSH0 KECCAK256 PUSH0 DUP4 PUSH20 0xFFFFFFFFFFFFFFFFFFFFFFFFFFFFFFFFFFFFFFFF AND PUSH20 0xFFFFFFFFFFFFFFFFFFFFFFFFFFFFFFFFFFFFFFFF AND DUP2 MSTORE PUSH1 0x20 ADD SWAP1 DUP2 MSTORE PUSH1 0x20 ADD PUSH0 KECCAK256 SLOAD SWAP1 POP SWAP3 SWAP2 POP POP JUMP JUMPDEST PUSH2 0xE03 PUSH2 0x1047 JUMP JUMPDEST PUSH0 PUSH20 0xFFFFFFFFFFFFFFFFFFFFFFFFFFFFFFFFFFFFFFFF AND DUP2 PUSH20 0xFFFFFFFFFFFFFFFFFFFFFFFFFFFFFFFFFFFFFFFF AND SUB PUSH2 0xE71 JUMPI PUSH1 0x40 MLOAD PUSH32 0x8C379A000000000000000000000000000000000000000000000000000000000 DUP2 MSTORE PUSH1 0x4 ADD PUSH2 0xE68 SWAP1 PUSH2 0x2215 JUMP JUMPDEST PUSH1 0x40 MLOAD DUP1 SWAP2 SUB SWAP1 REVERT JUMPDEST PUSH2 0xE7A DUP2 PUSH2 0x150A JUMP JUMPDEST POP JUMP JUMPDEST PUSH0 CALLER SWAP1 POP SWAP1 JUMP JUMPDEST PUSH0 PUSH20 0xFFFFFFFFFFFFFFFFFFFFFFFFFFFFFFFFFFFFFFFF AND DUP4 PUSH20 0xFFFFFFFFFFFFFFFFFFFFFFFFFFFFFFFFFFFFFFFF AND SUB PUSH2 0xEF2 JUMPI PUSH1 0x40 MLOAD PUSH32 0x8C379A000000000000000000000000000000000000000000000000000000000 DUP2 MSTORE PUSH1 0x4 ADD PUSH2 0xEE9 SWAP1 PUSH2 0x22A3 JUMP JUMPDEST PUSH1 0x40 MLOAD DUP1 SWAP2 SUB SWAP1 REVERT JUMPDEST PUSH0 PUSH20 0xFFFFFFFFFFFFFFFFFFFFFFFFFFFFFFFFFFFFFFFF AND DUP3 PUSH20 0xFFFFFFFFFFFFFFFFFFFFFFFFFFFFFFFFFFFFFFFF AND SUB PUSH2 0xF60 JUMPI PUSH1 0x40 MLOAD PUSH32 0x8C379A000000000000000000000000000000000000000000000000000000000 DUP2 MSTORE PUSH1 0x4 ADD PUSH2 0xF57 SWAP1 PUSH2 0x2331 JUMP JUMPDEST PUSH1 0x40 MLOAD DUP1 SWAP2 SUB SWAP1 REVERT JUMPDEST DUP1 PUSH1 0x1 PUSH0 DUP6 PUSH20 0xFFFFFFFFFFFFFFFFFFFFFFFFFFFFFFFFFFFFFFFF AND PUSH20 0xFFFFFFFFFFFFFFFFFFFFFFFFFFFFFFFFFFFFFFFF AND DUP2 MSTORE PUSH1 0x20 ADD SWAP1 DUP2 MSTORE PUSH1 0x20 ADD PUSH0 KECCAK256 PUSH0 DUP5 PUSH20 0xFFFFFFFFFFFFFFFFFFFFFFFFFFFFFFFFFFFFFFFF AND PUSH20 0xFFFFFFFFFFFFFFFFFFFFFFFFFFFFFFFFFFFFFFFF AND DUP2 MSTORE PUSH1 0x20 ADD SWAP1 DUP2 MSTORE PUSH1 0x20 ADD PUSH0 KECCAK256 DUP2 SWAP1 SSTORE POP DUP2 PUSH20 0xFFFFFFFFFFFFFFFFFFFFFFFFFFFFFFFFFFFFFFFF AND DUP4 PUSH20 0xFFFFFFFFFFFFFFFFFFFFFFFFFFFFFFFFFFFFFFFF AND PUSH32 0x8C5BE1E5EBEC7D5BD14F71427D1E84F3DD0314C0F7B2291E5B200AC8C7C3B925 DUP4 PUSH1 0x40 MLOAD PUSH2 0x103A SWAP2 SWAP1 PUSH2 0x17CA JUMP JUMPDEST PUSH1 0x40 MLOAD DUP1 SWAP2 SUB SWAP1 LOG3 POP POP POP JUMP JUMPDEST PUSH2 0x104F PUSH2 0xE7D JUMP JUMPDEST PUSH20 0xFFFFFFFFFFFFFFFFFFFFFFFFFFFFFFFFFFFFFFFF AND PUSH2 0x106D PUSH2 0xB45 JUMP JUMPDEST PUSH20 0xFFFFFFFFFFFFFFFFFFFFFFFFFFFFFFFFFFFFFFFF AND EQ PUSH2 0x10C3 JUMPI PUSH1 0x40 MLOAD PUSH32 0x8C379A000000000000000000000000000000000000000000000000000000000 DUP2 MSTORE PUSH1 0x4 ADD PUSH2 0x10BA SWAP1 PUSH2 0x2399 JUMP JUMPDEST PUSH1 0x40 MLOAD DUP1 SWAP2 SUB SWAP1 REVERT JUMPDEST JUMP JUMPDEST PUSH0 PUSH20 0xFFFFFFFFFFFFFFFFFFFFFFFFFFFFFFFFFFFFFFFF AND DUP3 PUSH20 0xFFFFFFFFFFFFFFFFFFFFFFFFFFFFFFFFFFFFFFFF AND SUB PUSH2 0x1133 JUMPI PUSH1 0x40 MLOAD PUSH32 0x8C379A000000000000000000000000000000000000000000000000000000000 DUP2 MSTORE PUSH1 0x4 ADD PUSH2 0x112A SWAP1 PUSH2 0x2401 JUMP JUMPDEST PUSH1 0x40 MLOAD DUP1 SWAP2 SUB SWAP1 REVERT JUMPDEST PUSH2 0x113E PUSH0 DUP4 DUP4 PUSH2 0x15CD JUMP JUMPDEST DUP1 PUSH1 0x2 PUSH0 DUP3 DUP3 SLOAD PUSH2 0x114F SWAP2 SWAP1 PUSH2 0x1C9C JUMP JUMPDEST SWAP3 POP POP DUP2 SWAP1 SSTORE POP DUP1 PUSH0 DUP1 DUP5 PUSH20 0xFFFFFFFFFFFFFFFFFFFFFFFFFFFFFFFFFFFFFFFF AND PUSH20 0xFFFFFFFFFFFFFFFFFFFFFFFFFFFFFFFFFFFFFFFF AND DUP2 MSTORE PUSH1 0x20 ADD SWAP1 DUP2 MSTORE PUSH1 0x20 ADD PUSH0 KECCAK256 PUSH0 DUP3 DUP3 SLOAD ADD SWAP3 POP POP DUP2 SWAP1 SSTORE POP DUP2 PUSH20 0xFFFFFFFFFFFFFFFFFFFFFFFFFFFFFFFFFFFFFFFF AND PUSH0 PUSH20 0xFFFFFFFFFFFFFFFFFFFFFFFFFFFFFFFFFFFFFFFF AND PUSH32 0xDDF252AD1BE2C89B69C2B068FC378DAA952BA7F163C4A11628F55A4DF523B3EF DUP4 PUSH1 0x40 MLOAD PUSH2 0x11FC SWAP2 SWAP1 PUSH2 0x17CA JUMP JUMPDEST PUSH1 0x40 MLOAD DUP1 SWAP2 SUB SWAP1 LOG3 PUSH2 0x120F PUSH0 DUP4 DUP4 PUSH2 0x15D2 JUMP JUMPDEST POP POP JUMP JUMPDEST PUSH0 PUSH2 0x121E DUP5 DUP5 PUSH2 0xD79 JUMP JUMPDEST SWAP1 POP PUSH32 0xFFFFFFFFFFFFFFFFFFFFFFFFFFFFFFFFFFFFFFFFFFFFFFFFFFFFFFFFFFFFFFFF DUP2 EQ PUSH2 0x1298 JUMPI DUP2 DUP2 LT ISZERO PUSH2 0x128A JUMPI PUSH1 0x40 MLOAD PUSH32 0x8C379A000000000000000000000000000000000000000000000000000000000 DUP2 MSTORE PUSH1 0x4 ADD PUSH2 0x1281 SWAP1 PUSH2 0x2469 JUMP JUMPDEST PUSH1 0x40 MLOAD DUP1 SWAP2 SUB SWAP1 REVERT JUMPDEST PUSH2 0x1297 DUP5 DUP5 DUP5 DUP5 SUB PUSH2 0xE84 JUMP JUMPDEST JUMPDEST POP POP POP POP JUMP JUMPDEST PUSH0 PUSH20 0xFFFFFFFFFFFFFFFFFFFFFFFFFFFFFFFFFFFFFFFF AND DUP4 PUSH20 0xFFFFFFFFFFFFFFFFFFFFFFFFFFFFFFFFFFFFFFFF AND SUB PUSH2 0x130C JUMPI PUSH1 0x40 MLOAD PUSH32 0x8C379A000000000000000000000000000000000000000000000000000000000 DUP2 MSTORE PUSH1 0x4 ADD PUSH2 0x1303 SWAP1 PUSH2 0x24F7 JUMP JUMPDEST PUSH1 0x40 MLOAD DUP1 SWAP2 SUB SWAP1 REVERT JUMPDEST PUSH0 PUSH20 0xFFFFFFFFFFFFFFFFFFFFFFFFFFFFFFFFFFFFFFFF AND DUP3 PUSH20 0xFFFFFFFFFFFFFFFFFFFFFFFFFFFFFFFFFFFFFFFF AND SUB PUSH2 0x137A JUMPI PUSH1 0x40 MLOAD PUSH32 0x8C379A000000000000000000000000000000000000000000000000000000000 DUP2 MSTORE PUSH1 0x4 ADD PUSH2 0x1371 SWAP1 PUSH2 0x2585 JUMP JUMPDEST PUSH1 0x40 MLOAD DUP1 SWAP2 SUB SWAP1 REVERT JUMPDEST PUSH2 0x1385 DUP4 DUP4 DUP4 PUSH2 0x15CD JUMP JUMPDEST PUSH0 DUP1 PUSH0 DUP6 PUSH20 0xFFFFFFFFFFFFFFFFFFFFFFFFFFFFFFFFFFFFFFFF AND PUSH20 0xFFFFFFFFFFFFFFFFFFFFFFFFFFFFFFFFFFFFFFFF AND DUP2 MSTORE PUSH1 0x20 ADD SWAP1 DUP2 MSTORE PUSH1 0x20 ADD PUSH0 KECCAK256 SLOAD SWAP1 POP DUP2 DUP2 LT ISZERO PUSH2 0x1408 JUMPI PUSH1 0x40 MLOAD PUSH32 0x8C379A000000000000000000000000000000000000000000000000000000000 DUP2 MSTORE PUSH1 0x4 ADD PUSH2 0x13FF SWAP1 PUSH2 0x2613 JUMP JUMPDEST PUSH1 0x40 MLOAD DUP1 SWAP2 SUB SWAP1 REVERT JUMPDEST DUP2 DUP2 SUB PUSH0 DUP1 DUP7 PUSH20 0xFFFFFFFFFFFFFFFFFFFFFFFFFFFFFFFFFFFFFFFF AND PUSH20 0xFFFFFFFFFFFFFFFFFFFFFFFFFFFFFFFFFFFFFFFF AND DUP2 MSTORE PUSH1 0x20 ADD SWAP1 DUP2 MSTORE PUSH1 0x20 ADD PUSH0 KECCAK256 DUP2 SWAP1 SSTORE POP DUP2 PUSH0 DUP1 DUP6 PUSH20 0xFFFFFFFFFFFFFFFFFFFFFFFFFFFFFFFFFFFFFFFF AND PUSH20 0xFFFFFFFFFFFFFFFFFFFFFFFFFFFFFFFFFFFFFFFF AND DUP2 MSTORE PUSH1 0x20 ADD SWAP1 DUP2 MSTORE PUSH1 0x20 ADD PUSH0 KECCAK256 PUSH0 DUP3 DUP3 SLOAD ADD SWAP3 POP POP DUP2 SWAP1 SSTORE POP DUP3 PUSH20 0xFFFFFFFFFFFFFFFFFFFFFFFFFFFFFFFFFFFFFFFF AND DUP5 PUSH20 0xFFFFFFFFFFFFFFFFFFFFFFFFFFFFFFFFFFFFFFFF AND PUSH32 0xDDF252AD1BE2C89B69C2B068FC378DAA952BA7F163C4A11628F55A4DF523B3EF DUP5 PUSH1 0x40 MLOAD PUSH2 0x14F1 SWAP2 SWAP1 PUSH2 0x17CA JUMP JUMPDEST PUSH1 0x40 MLOAD DUP1 SWAP2 SUB SWAP1 LOG3 PUSH2 0x1504 DUP5 DUP5 DUP5 PUSH2 0x15D2 JUMP JUMPDEST POP POP POP POP JUMP JUMPDEST PUSH0 PUSH1 0x5 PUSH0 SWAP1 SLOAD SWAP1 PUSH2 0x100 EXP SWAP1 DIV PUSH20 0xFFFFFFFFFFFFFFFFFFFFFFFFFFFFFFFFFFFFFFFF AND SWAP1 POP DUP2 PUSH1 0x5 PUSH0 PUSH2 0x100 EXP DUP2 SLOAD DUP2 PUSH20 0xFFFFFFFFFFFFFFFFFFFFFFFFFFFFFFFFFFFFFFFF MUL NOT AND SWAP1 DUP4 PUSH20 0xFFFFFFFFFFFFFFFFFFFFFFFFFFFFFFFFFFFFFFFF AND MUL OR SWAP1 SSTORE POP DUP2 PUSH20 0xFFFFFFFFFFFFFFFFFFFFFFFFFFFFFFFFFFFFFFFF AND DUP2 PUSH20 0xFFFFFFFFFFFFFFFFFFFFFFFFFFFFFFFFFFFFFFFF AND PUSH32 0x8BE0079C531659141344CD1FD0A4F28419497F9722A3DAAFE3B4186F6B6457E0 PUSH1 0x40 MLOAD PUSH1 0x40 MLOAD DUP1 SWAP2 SUB SWAP1 LOG3 POP POP JUMP JUMPDEST POP POP POP JUMP JUMPDEST POP POP POP JUMP JUMPDEST PUSH0 DUP2 MLOAD SWAP1 POP SWAP2 SWAP1 POP JUMP JUMPDEST PUSH0 DUP3 DUP3 MSTORE PUSH1 0x20 DUP3 ADD SWAP1 POP SWAP3 SWAP2 POP POP JUMP JUMPDEST PUSH0 JUMPDEST DUP4 DUP2 LT ISZERO PUSH2 0x160E JUMPI DUP1 DUP3 ADD MLOAD DUP2 DUP5 ADD MSTORE PUSH1 0x20 DUP2 ADD SWAP1 POP PUSH2 0x15F3 JUMP JUMPDEST PUSH0 DUP5 DUP5 ADD MSTORE POP POP POP POP JUMP JUMPDEST PUSH0 PUSH1 0x1F NOT PUSH1 0x1F DUP4 ADD AND SWAP1 POP SWAP2 SWAP1 POP JUMP JUMPDEST PUSH0 PUSH2 0x1633 DUP3 PUSH2 0x15D7 JUMP JUMPDEST PUSH2 0x163D DUP2 DUP6 PUSH2 0x15E1 JUMP JUMPDEST SWAP4 POP PUSH2 0x164D DUP2 DUP6 PUSH1 0x20 DUP7 ADD PUSH2 0x15F1 JUMP JUMPDEST PUSH2 0x1656 DUP2 PUSH2 0x1619 JUMP JUMPDEST DUP5 ADD SWAP2 POP POP SWAP3 SWAP2 POP POP JUMP JUMPDEST PUSH0 PUSH1 0x20 DUP3 ADD SWAP1 POP DUP2 DUP2 SUB PUSH0 DUP4 ADD MSTORE PUSH2 0x1679 DUP2 DUP5 PUSH2 0x1629 JUMP JUMPDEST SWAP1 POP SWAP3 SWAP2 POP POP JUMP JUMPDEST PUSH0 PUSH1 0x40 MLOAD SWAP1 POP SWAP1 JUMP JUMPDEST PUSH0 DUP1 REVERT JUMPDEST PUSH0 DUP1 REVERT JUMPDEST PUSH0 PUSH20 0xFFFFFFFFFFFFFFFFFFFFFFFFFFFFFFFFFFFFFFFF DUP3 AND SWAP1 POP SWAP2 SWAP1 POP JUMP JUMPDEST PUSH0 PUSH2 0x16BB DUP3 PUSH2 0x1692 JUMP JUMPDEST SWAP1 POP SWAP2 SWAP1 POP JUMP JUMPDEST PUSH2 0x16CB DUP2 PUSH2 0x16B1 JUMP JUMPDEST DUP2 EQ PUSH2 0x16D5 JUMPI PUSH0 DUP1 REVERT JUMPDEST POP JUMP JUMPDEST PUSH0 DUP2 CALLDATALOAD SWAP1 POP PUSH2 0x16E6 DUP2 PUSH2 0x16C2 JUMP JUMPDEST SWAP3 SWAP2 POP POP JUMP JUMPDEST PUSH0 DUP2 SWAP1 POP SWAP2 SWAP1 POP JUMP JUMPDEST PUSH2 0x16FE DUP2 PUSH2 0x16EC JUMP JUMPDEST DUP2 EQ PUSH2 0x1708 JUMPI PUSH0 DUP1 REVERT JUMPDEST POP JUMP JUMPDEST PUSH0 DUP2 CALLDATALOAD SWAP1 POP PUSH2 0x1719 DUP2 PUSH2 0x16F5 JUMP JUMPDEST SWAP3 SWAP2 POP POP JUMP JUMPDEST PUSH0 DUP1 PUSH1 0x40 DUP4 DUP6 SUB SLT ISZERO PUSH2 0x1735 JUMPI PUSH2 0x1734 PUSH2 0x168A JUMP JUMPDEST JUMPDEST PUSH0 PUSH2 0x1742 DUP6 DUP3 DUP7 ADD PUSH2 0x16D8 JUMP JUMPDEST SWAP3 POP POP PUSH1 0x20 PUSH2 0x1753 DUP6 DUP3 DUP7 ADD PUSH2 0x170B JUMP JUMPDEST SWAP2 POP POP SWAP3 POP SWAP3 SWAP1 POP JUMP JUMPDEST PUSH0 DUP2 ISZERO ISZERO SWAP1 POP SWAP2 SWAP1 POP JUMP JUMPDEST PUSH2 0x1771 DUP2 PUSH2 0x175D JUMP JUMPDEST DUP3 MSTORE POP POP JUMP JUMPDEST PUSH0 PUSH1 0x20 DUP3 ADD SWAP1 POP PUSH2 0x178A PUSH0 DUP4 ADD DUP5 PUSH2 0x1768 JUMP JUMPDEST SWAP3 SWAP2 POP POP JUMP JUMPDEST PUSH0 PUSH1 0x20 DUP3 DUP5 SUB SLT ISZERO PUSH2 0x17A5 JUMPI PUSH2 0x17A4 PUSH2 0x168A JUMP JUMPDEST JUMPDEST PUSH0 PUSH2 0x17B2 DUP5 DUP3 DUP6 ADD PUSH2 0x16D8 JUMP JUMPDEST SWAP2 POP POP SWAP3 SWAP2 POP POP JUMP JUMPDEST PUSH2 0x17C4 DUP2 PUSH2 0x16EC JUMP JUMPDEST DUP3 MSTORE POP POP JUMP JUMPDEST PUSH0 PUSH1 0x20 DUP3 ADD SWAP1 POP PUSH2 0x17DD PUSH0 DUP4 ADD DUP5 PUSH2 0x17BB JUMP JUMPDEST SWAP3 SWAP2 POP POP JUMP JUMPDEST PUSH0 DUP1 PUSH0 PUSH1 0x60 DUP5 DUP7 SUB SLT ISZERO PUSH2 0x17FA JUMPI PUSH2 0x17F9 PUSH2 0x168A JUMP JUMPDEST JUMPDEST PUSH0 PUSH2 0x1807 DUP7 DUP3 DUP8 ADD PUSH2 0x16D8 JUMP JUMPDEST SWAP4 POP POP PUSH1 0x20 PUSH2 0x1818 DUP7 DUP3 DUP8 ADD PUSH2 0x16D8 JUMP JUMPDEST SWAP3 POP POP PUSH1 0x40 PUSH2 0x1829 DUP7 DUP3 DUP8 ADD PUSH2 0x170B JUMP JUMPDEST SWAP2 POP POP SWAP3 POP SWAP3 POP SWAP3 JUMP JUMPDEST PUSH0 PUSH1 0xFF DUP3 AND SWAP1 POP SWAP2 SWAP1 POP JUMP JUMPDEST PUSH2 0x1848 DUP2 PUSH2 0x1833 JUMP JUMPDEST DUP3 MSTORE POP POP JUMP JUMPDEST PUSH0 PUSH1 0x20 DUP3 ADD SWAP1 POP PUSH2 0x1861 PUSH0 DUP4 ADD DUP5 PUSH2 0x183F JUMP JUMPDEST SWAP3 SWAP2 POP POP JUMP JUMPDEST PUSH0 DUP1 REVERT JUMPDEST PUSH0 DUP1 REVERT JUMPDEST PUSH32 0x4E487B7100000000000000000000000000000000000000000000000000000000 PUSH0 MSTORE PUSH1 0x41 PUSH1 0x4 MSTORE PUSH1 0x24 PUSH0 REVERT JUMPDEST PUSH2 0x18A5 DUP3 PUSH2 0x1619 JUMP JUMPDEST DUP2 ADD DUP2 DUP2 LT PUSH8 0xFFFFFFFFFFFFFFFF DUP3 GT OR ISZERO PUSH2 0x18C4 JUMPI PUSH2 0x18C3 PUSH2 0x186F JUMP JUMPDEST JUMPDEST DUP1 PUSH1 0x40 MSTORE POP POP POP JUMP JUMPDEST PUSH0 PUSH2 0x18D6 PUSH2 0x1681 JUMP JUMPDEST SWAP1 POP PUSH2 0x18E2 DUP3 DUP3 PUSH2 0x189C JUMP JUMPDEST SWAP2 SWAP1 POP JUMP JUMPDEST PUSH0 PUSH8 0xFFFFFFFFFFFFFFFF DUP3 GT ISZERO PUSH2 0x1901 JUMPI PUSH2 0x1900 PUSH2 0x186F JUMP JUMPDEST JUMPDEST PUSH2 0x190A DUP3 PUSH2 0x1619 JUMP JUMPDEST SWAP1 POP PUSH1 0x20 DUP2 ADD SWAP1 POP SWAP2 SWAP1 POP JUMP JUMPDEST DUP3 DUP2 DUP4 CALLDATACOPY PUSH0 DUP4 DUP4 ADD MSTORE POP POP POP JUMP JUMPDEST PUSH0 PUSH2 0x1937 PUSH2 0x1932 DUP5 PUSH2 0x18E7 JUMP JUMPDEST PUSH2 0x18CD JUMP JUMPDEST SWAP1 POP DUP3 DUP2 MSTORE PUSH1 0x20 DUP2 ADD DUP5 DUP5 DUP5 ADD GT ISZERO PUSH2 0x1953 JUMPI PUSH2 0x1952 PUSH2 0x186B JUMP JUMPDEST JUMPDEST PUSH2 0x195E DUP5 DUP3 DUP6 PUSH2 0x1917 JUMP JUMPDEST POP SWAP4 SWAP3 POP POP POP JUMP JUMPDEST PUSH0 DUP3 PUSH1 0x1F DUP4 ADD SLT PUSH2 0x197A JUMPI PUSH2 0x1979 PUSH2 0x1867 JUMP JUMPDEST JUMPDEST DUP2 CALLDATALOAD PUSH2 0x198A DUP5 DUP3 PUSH1 0x20 DUP7 ADD PUSH2 0x1925 JUMP JUMPDEST SWAP2 POP POP SWAP3 SWAP2 POP POP JUMP JUMPDEST PUSH0 PUSH1 0x20 DUP3 DUP5 SUB SLT ISZERO PUSH2 0x19A8 JUMPI PUSH2 0x19A7 PUSH2 0x168A JUMP JUMPDEST JUMPDEST PUSH0 DUP3 ADD CALLDATALOAD PUSH8 0xFFFFFFFFFFFFFFFF DUP2 GT ISZERO PUSH2 0x19C5 JUMPI PUSH2 0x19C4 PUSH2 0x168E JUMP JUMPDEST JUMPDEST PUSH2 0x19D1 DUP5 DUP3 DUP6 ADD PUSH2 0x1966 JUMP JUMPDEST SWAP2 POP POP SWAP3 SWAP2 POP POP JUMP JUMPDEST PUSH0 PUSH1 0x20 DUP3 DUP5 SUB SLT ISZERO PUSH2 0x19EF JUMPI PUSH2 0x19EE PUSH2 0x168A JUMP JUMPDEST JUMPDEST PUSH0 PUSH2 0x19FC DUP5 DUP3 DUP6 ADD PUSH2 0x170B JUMP JUMPDEST SWAP2 POP POP SWAP3 SWAP2 POP POP JUMP JUMPDEST PUSH2 0x1A0E DUP2 PUSH2 0x16B1 JUMP JUMPDEST DUP3 MSTORE POP POP JUMP JUMPDEST PUSH0 PUSH1 0x20 DUP3 ADD SWAP1 POP PUSH2 0x1A27 PUSH0 DUP4 ADD DUP5 PUSH2 0x1A05 JUMP JUMPDEST SWAP3 SWAP2 POP POP JUMP JUMPDEST PUSH0 DUP1 PUSH1 0x40 DUP4 DUP6 SUB SLT ISZERO PUSH2 0x1A43 JUMPI PUSH2 0x1A42 PUSH2 0x168A JUMP JUMPDEST JUMPDEST PUSH0 PUSH2 0x1A50 DUP6 DUP3 DUP7 ADD PUSH2 0x16D8 JUMP JUMPDEST SWAP3 POP POP PUSH1 0x20 PUSH2 0x1A61 DUP6 DUP3 DUP7 ADD PUSH2 0x16D8 JUMP JUMPDEST SWAP2 POP POP SWAP3 POP SWAP3 SWAP1 POP JUMP JUMPDEST PUSH32 0x4E487B7100000000000000000000000000000000000000000000000000000000 PUSH0 MSTORE PUSH1 0x22 PUSH1 0x4 MSTORE PUSH1 0x24 PUSH0 REVERT JUMPDEST PUSH0 PUSH1 0x2 DUP3 DIV SWAP1 POP PUSH1 0x1 DUP3 AND DUP1 PUSH2 0x1AAF JUMPI PUSH1 0x7F DUP3 AND SWAP2 POP JUMPDEST PUSH1 0x20 DUP3 LT DUP2 SUB PUSH2 0x1AC2 JUMPI PUSH2 0x1AC1 PUSH2 0x1A6B JUMP JUMPDEST JUMPDEST POP SWAP2 SWAP1 POP JUMP JUMPDEST PUSH32 0x4E487B7100000000000000000000000000000000000000000000000000000000 PUSH0 MSTORE PUSH1 0x11 PUSH1 0x4 MSTORE PUSH1 0x24 PUSH0 REVERT JUMPDEST PUSH0 PUSH2 0x1AFF DUP3 PUSH2 0x16EC JUMP JUMPDEST SWAP2 POP PUSH2 0x1B0A DUP4 PUSH2 0x16EC JUMP JUMPDEST SWAP3 POP DUP3 DUP3 SUB SWAP1 POP DUP2 DUP2 GT ISZERO PUSH2 0x1B22 JUMPI PUSH2 0x1B21 PUSH2 0x1AC8 JUMP JUMPDEST JUMPDEST SWAP3 SWAP2 POP POP JUMP JUMPDEST PUSH32 0x50726576696F7573207068617365206E6F74206F766572207965740000000000 PUSH0 DUP3 ADD MSTORE POP JUMP JUMPDEST PUSH0 PUSH2 0x1B5C PUSH1 0x1B DUP4 PUSH2 0x15E1 JUMP JUMPDEST SWAP2 POP PUSH2 0x1B67 DUP3 PUSH2 0x1B28 JUMP JUMPDEST PUSH1 0x20 DUP3 ADD SWAP1 POP SWAP2 SWAP1 POP JUMP JUMPDEST PUSH0 PUSH1 0x20 DUP3 ADD SWAP1 POP DUP2 DUP2 SUB PUSH0 DUP4 ADD MSTORE PUSH2 0x1B89 DUP2 PUSH2 0x1B50 JUMP JUMPDEST SWAP1 POP SWAP2 SWAP1 POP JUMP JUMPDEST PUSH32 0x4C696D6974204578617573746564000000000000000000000000000000000000 PUSH0 DUP3 ADD MSTORE POP JUMP JUMPDEST PUSH0 PUSH2 0x1BC4 PUSH1 0xE DUP4 PUSH2 0x15E1 JUMP JUMPDEST SWAP2 POP PUSH2 0x1BCF DUP3 PUSH2 0x1B90 JUMP JUMPDEST PUSH1 0x20 DUP3 ADD SWAP1 POP SWAP2 SWAP1 POP JUMP JUMPDEST PUSH0 PUSH1 0x20 DUP3 ADD SWAP1 POP DUP2 DUP2 SUB PUSH0 DUP4 ADD MSTORE PUSH2 0x1BF1 DUP2 PUSH2 0x1BB8 JUMP JUMPDEST SWAP1 POP SWAP2 SWAP1 POP JUMP JUMPDEST PUSH0 PUSH2 0x1C02 DUP3 PUSH2 0x16EC JUMP JUMPDEST SWAP2 POP PUSH32 0xFFFFFFFFFFFFFFFFFFFFFFFFFFFFFFFFFFFFFFFFFFFFFFFFFFFFFFFFFFFFFFFF DUP3 SUB PUSH2 0x1C34 JUMPI PUSH2 0x1C33 PUSH2 0x1AC8 JUMP JUMPDEST JUMPDEST PUSH1 0x1 DUP3 ADD SWAP1 POP SWAP2 SWAP1 POP JUMP JUMPDEST PUSH32 0x4E487B7100000000000000000000000000000000000000000000000000000000 PUSH0 MSTORE PUSH1 0x12 PUSH1 0x4 MSTORE PUSH1 0x24 PUSH0 REVERT JUMPDEST PUSH0 PUSH2 0x1C76 DUP3 PUSH2 0x16EC JUMP JUMPDEST SWAP2 POP PUSH2 0x1C81 DUP4 PUSH2 0x16EC JUMP JUMPDEST SWAP3 POP DUP3 PUSH2 0x1C91 JUMPI PUSH2 0x1C90 PUSH2 0x1C3F JUMP JUMPDEST JUMPDEST DUP3 DUP3 DIV SWAP1 POP SWAP3 SWAP2 POP POP JUMP JUMPDEST PUSH0 PUSH2 0x1CA6 DUP3 PUSH2 0x16EC JUMP JUMPDEST SWAP2 POP PUSH2 0x1CB1 DUP4 PUSH2 0x16EC JUMP JUMPDEST SWAP3 POP DUP3 DUP3 ADD SWAP1 POP DUP1 DUP3 GT ISZERO PUSH2 0x1CC9 JUMPI PUSH2 0x1CC8 PUSH2 0x1AC8 JUMP JUMPDEST JUMPDEST SWAP3 SWAP2 POP POP JUMP JUMPDEST PUSH32 0x5573657220616C72656164792052656769737465726564000000000000000000 PUSH0 DUP3 ADD MSTORE POP JUMP JUMPDEST PUSH0 PUSH2 0x1D03 PUSH1 0x17 DUP4 PUSH2 0x15E1 JUMP JUMPDEST SWAP2 POP PUSH2 0x1D0E DUP3 PUSH2 0x1CCF JUMP JUMPDEST PUSH1 0x20 DUP3 ADD SWAP1 POP SWAP2 SWAP1 POP JUMP JUMPDEST PUSH0 PUSH1 0x20 DUP3 ADD SWAP1 POP DUP2 DUP2 SUB PUSH0 DUP4 ADD MSTORE PUSH2 0x1D30 DUP2 PUSH2 0x1CF7 JUMP JUMPDEST SWAP1 POP SWAP2 SWAP1 POP JUMP JUMPDEST PUSH0 DUP2 SWAP1 POP SWAP3 SWAP2 POP POP JUMP JUMPDEST PUSH0 DUP2 SWAP1 POP DUP2 PUSH0 MSTORE PUSH1 0x20 PUSH0 KECCAK256 SWAP1 POP SWAP2 SWAP1 POP JUMP JUMPDEST PUSH0 DUP2 SLOAD PUSH2 0x1D5F DUP2 PUSH2 0x1A98 JUMP JUMPDEST PUSH2 0x1D69 DUP2 DUP7 PUSH2 0x1D37 JUMP JUMPDEST SWAP5 POP PUSH1 0x1 DUP3 AND PUSH0 DUP2 EQ PUSH2 0x1D83 JUMPI PUSH1 0x1 DUP2 EQ PUSH2 0x1D98 JUMPI PUSH2 0x1DCA JUMP JUMPDEST PUSH1 0xFF NOT DUP4 AND DUP7 MSTORE DUP2 ISZERO ISZERO DUP3 MUL DUP7 ADD SWAP4 POP PUSH2 0x1DCA JUMP JUMPDEST PUSH2 0x1DA1 DUP6 PUSH2 0x1D41 JUMP JUMPDEST PUSH0 JUMPDEST DUP4 DUP2 LT ISZERO PUSH2 0x1DC2 JUMPI DUP2 SLOAD DUP2 DUP10 ADD MSTORE PUSH1 0x1 DUP3 ADD SWAP2 POP PUSH1 0x20 DUP2 ADD SWAP1 POP PUSH2 0x1DA3 JUMP JUMPDEST DUP4 DUP9 ADD SWAP6 POP POP POP JUMPDEST POP POP POP SWAP3 SWAP2 POP POP JUMP JUMPDEST PUSH0 PUSH2 0x1DDE DUP3 DUP5 PUSH2 0x1D53 JUMP JUMPDEST SWAP2 POP DUP2 SWAP1 POP SWAP3 SWAP2 POP POP JUMP JUMPDEST PUSH0 PUSH2 0x1DF3 DUP3 PUSH2 0x15D7 JUMP JUMPDEST PUSH2 0x1DFD DUP2 DUP6 PUSH2 0x1D37 JUMP JUMPDEST SWAP4 POP PUSH2 0x1E0D DUP2 DUP6 PUSH1 0x20 DUP7 ADD PUSH2 0x15F1 JUMP JUMPDEST DUP1 DUP5 ADD SWAP2 POP POP SWAP3 SWAP2 POP POP JUMP JUMPDEST PUSH0 PUSH2 0x1E24 DUP3 DUP5 PUSH2 0x1DE9 JUMP JUMPDEST SWAP2 POP DUP2 SWAP1 POP SWAP3 SWAP2 POP POP JUMP JUMPDEST PUSH0 PUSH1 0x20 PUSH1 0x1F DUP4 ADD DIV SWAP1 POP SWAP2 SWAP1 POP JUMP JUMPDEST PUSH0 DUP3 DUP3 SHL SWAP1 POP SWAP3 SWAP2 POP POP JUMP JUMPDEST PUSH0 PUSH1 0x8 DUP4 MUL PUSH2 0x1E79 PUSH32 0xFFFFFFFFFFFFFFFFFFFFFFFFFFFFFFFFFFFFFFFFFFFFFFFFFFFFFFFFFFFFFFFF DUP3 PUSH2 0x1E3E JUMP JUMPDEST PUSH2 0x1E83 DUP7 DUP4 PUSH2 0x1E3E JUMP JUMPDEST SWAP6 POP DUP1 NOT DUP5 AND SWAP4 POP DUP1 DUP7 AND DUP5 OR SWAP3 POP POP POP SWAP4 SWAP3 POP POP POP JUMP JUMPDEST PUSH0 DUP2 SWAP1 POP SWAP2 SWAP1 POP JUMP JUMPDEST PUSH0 PUSH2 0x1EBE PUSH2 0x1EB9 PUSH2 0x1EB4 DUP5 PUSH2 0x16EC JUMP JUMPDEST PUSH2 0x1E9B JUMP JUMPDEST PUSH2 0x16EC JUMP JUMPDEST SWAP1 POP SWAP2 SWAP1 POP JUMP JUMPDEST PUSH0 DUP2 SWAP1 POP SWAP2 SWAP1 POP JUMP JUMPDEST PUSH2 0x1ED7 DUP4 PUSH2 0x1EA4 JUMP JUMPDEST PUSH2 0x1EEB PUSH2 0x1EE3 DUP3 PUSH2 0x1EC5 JUMP JUMPDEST DUP5 DUP5 SLOAD PUSH2 0x1E4A JUMP JUMPDEST DUP3 SSTORE POP POP POP POP JUMP JUMPDEST PUSH0 SWAP1 JUMP JUMPDEST PUSH2 0x1EFF PUSH2 0x1EF3 JUMP JUMPDEST PUSH2 0x1F0A DUP2 DUP5 DUP5 PUSH2 0x1ECE JUMP JUMPDEST POP POP POP JUMP JUMPDEST JUMPDEST DUP2 DUP2 LT ISZERO PUSH2 0x1F2D JUMPI PUSH2 0x1F22 PUSH0 DUP3 PUSH2 0x1EF7 JUMP JUMPDEST PUSH1 0x1 DUP2 ADD SWAP1 POP PUSH2 0x1F10 JUMP JUMPDEST POP POP JUMP JUMPDEST PUSH1 0x1F DUP3 GT ISZERO PUSH2 0x1F72 JUMPI PUSH2 0x1F43 DUP2 PUSH2 0x1D41 JUMP JUMPDEST PUSH2 0x1F4C DUP5 PUSH2 0x1E2F JUMP JUMPDEST DUP2 ADD PUSH1 0x20 DUP6 LT ISZERO PUSH2 0x1F5B JUMPI DUP2 SWAP1 POP JUMPDEST PUSH2 0x1F6F PUSH2 0x1F67 DUP6 PUSH2 0x1E2F JUMP JUMPDEST DUP4 ADD DUP3 PUSH2 0x1F0F JUMP JUMPDEST POP POP JUMPDEST POP POP POP JUMP JUMPDEST PUSH0 DUP3 DUP3 SHR SWAP1 POP SWAP3 SWAP2 POP POP JUMP JUMPDEST PUSH0 PUSH2 0x1F92 PUSH0 NOT DUP5 PUSH1 0x8 MUL PUSH2 0x1F77 JUMP JUMPDEST NOT DUP1 DUP4 AND SWAP2 POP POP SWAP3 SWAP2 POP POP JUMP JUMPDEST PUSH0 PUSH2 0x1FAA DUP4 DUP4 PUSH2 0x1F83 JUMP JUMPDEST SWAP2 POP DUP3 PUSH1 0x2 MUL DUP3 OR SWAP1 POP SWAP3 SWAP2 POP POP JUMP JUMPDEST PUSH2 0x1FC3 DUP3 PUSH2 0x15D7 JUMP JUMPDEST PUSH8 0xFFFFFFFFFFFFFFFF DUP2 GT ISZERO PUSH2 0x1FDC JUMPI PUSH2 0x1FDB PUSH2 0x186F JUMP JUMPDEST JUMPDEST PUSH2 0x1FE6 DUP3 SLOAD PUSH2 0x1A98 JUMP JUMPDEST PUSH2 0x1FF1 DUP3 DUP3 DUP6 PUSH2 0x1F31 JUMP JUMPDEST PUSH0 PUSH1 0x20 SWAP1 POP PUSH1 0x1F DUP4 GT PUSH1 0x1 DUP2 EQ PUSH2 0x2022 JUMPI PUSH0 DUP5 ISZERO PUSH2 0x2010 JUMPI DUP3 DUP8 ADD MLOAD SWAP1 POP JUMPDEST PUSH2 0x201A DUP6 DUP3 PUSH2 0x1F9F JUMP JUMPDEST DUP7 SSTORE POP PUSH2 0x2081 JUMP JUMPDEST PUSH1 0x1F NOT DUP5 AND PUSH2 0x2030 DUP7 PUSH2 0x1D41 JUMP JUMPDEST PUSH0 JUMPDEST DUP3 DUP2 LT ISZERO PUSH2 0x2057 JUMPI DUP5 DUP10 ADD MLOAD DUP3 SSTORE PUSH1 0x1 DUP3 ADD SWAP2 POP PUSH1 0x20 DUP6 ADD SWAP5 POP PUSH1 0x20 DUP2 ADD SWAP1 POP PUSH2 0x2032 JUMP JUMPDEST DUP7 DUP4 LT ISZERO PUSH2 0x2074 JUMPI DUP5 DUP10 ADD MLOAD PUSH2 0x2070 PUSH1 0x1F DUP10 AND DUP3 PUSH2 0x1F83 JUMP JUMPDEST DUP4 SSTORE POP JUMPDEST PUSH1 0x1 PUSH1 0x2 DUP9 MUL ADD DUP9 SSTORE POP POP POP JUMPDEST POP POP POP POP POP POP JUMP JUMPDEST PUSH32 0x4F6E6C7920746865206F776E65722063616E2063616C6C20746869732066756E PUSH0 DUP3 ADD MSTORE PUSH32 0x6374696F6E000000000000000000000000000000000000000000000000000000 PUSH1 0x20 DUP3 ADD MSTORE POP JUMP JUMPDEST PUSH0 PUSH2 0x20E3 PUSH1 0x25 DUP4 PUSH2 0x15E1 JUMP JUMPDEST SWAP2 POP PUSH2 0x20EE DUP3 PUSH2 0x2089 JUMP JUMPDEST PUSH1 0x40 DUP3 ADD SWAP1 POP SWAP2 SWAP1 POP JUMP JUMPDEST PUSH0 PUSH1 0x20 DUP3 ADD SWAP1 POP DUP2 DUP2 SUB PUSH0 DUP4 ADD MSTORE PUSH2 0x2110 DUP2 PUSH2 0x20D7 JUMP JUMPDEST SWAP1 POP SWAP2 SWAP1 POP JUMP JUMPDEST PUSH32 0x45524332303A2064656372656173656420616C6C6F77616E63652062656C6F77 PUSH0 DUP3 ADD MSTORE PUSH32 0x207A65726F000000000000000000000000000000000000000000000000000000 PUSH1 0x20 DUP3 ADD MSTORE POP JUMP JUMPDEST PUSH0 PUSH2 0x2171 PUSH1 0x25 DUP4 PUSH2 0x15E1 JUMP JUMPDEST SWAP2 POP PUSH2 0x217C DUP3 PUSH2 0x2117 JUMP JUMPDEST PUSH1 0x40 DUP3 ADD SWAP1 POP SWAP2 SWAP1 POP JUMP JUMPDEST PUSH0 PUSH1 0x20 DUP3 ADD SWAP1 POP DUP2 DUP2 SUB PUSH0 DUP4 ADD MSTORE PUSH2 0x219E DUP2 PUSH2 0x2165 JUMP JUMPDEST SWAP1 POP SWAP2 SWAP1 POP JUMP JUMPDEST PUSH32 0x4F776E61626C653A206E6577206F776E657220697320746865207A65726F2061 PUSH0 DUP3 ADD MSTORE PUSH32 0x6464726573730000000000000000000000000000000000000000000000000000 PUSH1 0x20 DUP3 ADD MSTORE POP JUMP JUMPDEST PUSH0 PUSH2 0x21FF PUSH1 0x26 DUP4 PUSH2 0x15E1 JUMP JUMPDEST SWAP2 POP PUSH2 0x220A DUP3 PUSH2 0x21A5 JUMP JUMPDEST PUSH1 0x40 DUP3 ADD SWAP1 POP SWAP2 SWAP1 POP JUMP JUMPDEST PUSH0 PUSH1 0x20 DUP3 ADD SWAP1 POP DUP2 DUP2 SUB PUSH0 DUP4 ADD MSTORE PUSH2 0x222C DUP2 PUSH2 0x21F3 JUMP JUMPDEST SWAP1 POP SWAP2 SWAP1 POP JUMP JUMPDEST PUSH32 0x45524332303A20617070726F76652066726F6D20746865207A65726F20616464 PUSH0 DUP3 ADD MSTORE PUSH32 0x7265737300000000000000000000000000000000000000000000000000000000 PUSH1 0x20 DUP3 ADD MSTORE POP JUMP JUMPDEST PUSH0 PUSH2 0x228D PUSH1 0x24 DUP4 PUSH2 0x15E1 JUMP JUMPDEST SWAP2 POP PUSH2 0x2298 DUP3 PUSH2 0x2233 JUMP JUMPDEST PUSH1 0x40 DUP3 ADD SWAP1 POP SWAP2 SWAP1 POP JUMP JUMPDEST PUSH0 PUSH1 0x20 DUP3 ADD SWAP1 POP DUP2 DUP2 SUB PUSH0 DUP4 ADD MSTORE PUSH2 0x22BA DUP2 PUSH2 0x2281 JUMP JUMPDEST SWAP1 POP SWAP2 SWAP1 POP JUMP JUMPDEST PUSH32 0x45524332303A20617070726F766520746F20746865207A65726F206164647265 PUSH0 DUP3 ADD MSTORE PUSH32 0x7373000000000000000000000000000000000000000000000000000000000000 PUSH1 0x20 DUP3 ADD MSTORE POP JUMP JUMPDEST PUSH0 PUSH2 0x231B PUSH1 0x22 DUP4 PUSH2 0x15E1 JUMP JUMPDEST SWAP2 POP PUSH2 0x2326 DUP3 PUSH2 0x22C1 JUMP JUMPDEST PUSH1 0x40 DUP3 ADD SWAP1 POP SWAP2 SWAP1 POP JUMP JUMPDEST PUSH0 PUSH1 0x20 DUP3 ADD SWAP1 POP DUP2 DUP2 SUB PUSH0 DUP4 ADD MSTORE PUSH2 0x2348 DUP2 PUSH2 0x230F JUMP JUMPDEST SWAP1 POP SWAP2 SWAP1 POP JUMP JUMPDEST PUSH32 0x4F776E61626C653A2063616C6C6572206973206E6F7420746865206F776E6572 PUSH0 DUP3 ADD MSTORE POP JUMP JUMPDEST PUSH0 PUSH2 0x2383 PUSH1 0x20 DUP4 PUSH2 0x15E1 JUMP JUMPDEST SWAP2 POP PUSH2 0x238E DUP3 PUSH2 0x234F JUMP JUMPDEST PUSH1 0x20 DUP3 ADD SWAP1 POP SWAP2 SWAP1 POP JUMP JUMPDEST PUSH0 PUSH1 0x20 DUP3 ADD SWAP1 POP DUP2 DUP2 SUB PUSH0 DUP4 ADD MSTORE PUSH2 0x23B0 DUP2 PUSH2 0x2377 JUMP JUMPDEST SWAP1 POP SWAP2 SWAP1 POP JUMP JUMPDEST PUSH32 0x45524332303A206D696E7420746F20746865207A65726F206164647265737300 PUSH0 DUP3 ADD MSTORE POP JUMP JUMPDEST PUSH0 PUSH2 0x23EB PUSH1 0x1F DUP4 PUSH2 0x15E1 JUMP JUMPDEST SWAP2 POP PUSH2 0x23F6 DUP3 PUSH2 0x23B7 JUMP JUMPDEST PUSH1 0x20 DUP3 ADD SWAP1 POP SWAP2 SWAP1 POP JUMP JUMPDEST PUSH0 PUSH1 0x20 DUP3 ADD SWAP1 POP DUP2 DUP2 SUB PUSH0 DUP4 ADD MSTORE PUSH2 0x2418 DUP2 PUSH2 0x23DF JUMP JUMPDEST SWAP1 POP SWAP2 SWAP1 POP JUMP JUMPDEST PUSH32 0x45524332303A20696E73756666696369656E7420616C6C6F77616E6365000000 PUSH0 DUP3 ADD MSTORE POP JUMP JUMPDEST PUSH0 PUSH2 0x2453 PUSH1 0x1D DUP4 PUSH2 0x15E1 JUMP JUMPDEST SWAP2 POP PUSH2 0x245E DUP3 PUSH2 0x241F JUMP JUMPDEST PUSH1 0x20 DUP3 ADD SWAP1 POP SWAP2 SWAP1 POP JUMP JUMPDEST PUSH0 PUSH1 0x20 DUP3 ADD SWAP1 POP DUP2 DUP2 SUB PUSH0 DUP4 ADD MSTORE PUSH2 0x2480 DUP2 PUSH2 0x2447 JUMP JUMPDEST SWAP1 POP SWAP2 SWAP1 POP JUMP JUMPDEST PUSH32 0x45524332303A207472616E736665722066726F6D20746865207A65726F206164 PUSH0 DUP3 ADD MSTORE PUSH32 0x6472657373000000000000000000000000000000000000000000000000000000 PUSH1 0x20 DUP3 ADD MSTORE POP JUMP JUMPDEST PUSH0 PUSH2 0x24E1 PUSH1 0x25 DUP4 PUSH2 0x15E1 JUMP JUMPDEST SWAP2 POP PUSH2 0x24EC DUP3 PUSH2 0x2487 JUMP JUMPDEST PUSH1 0x40 DUP3 ADD SWAP1 POP SWAP2 SWAP1 POP JUMP JUMPDEST PUSH0 PUSH1 0x20 DUP3 ADD SWAP1 POP DUP2 DUP2 SUB PUSH0 DUP4 ADD MSTORE PUSH2 0x250E DUP2 PUSH2 0x24D5 JUMP JUMPDEST SWAP1 POP SWAP2 SWAP1 POP JUMP JUMPDEST PUSH32 0x45524332303A207472616E7366657220746F20746865207A65726F2061646472 PUSH0 DUP3 ADD MSTORE PUSH32 0x6573730000000000000000000000000000000000000000000000000000000000 PUSH1 0x20 DUP3 ADD MSTORE POP JUMP JUMPDEST PUSH0 PUSH2 0x256F PUSH1 0x23 DUP4 PUSH2 0x15E1 JUMP JUMPDEST SWAP2 POP PUSH2 0x257A DUP3 PUSH2 0x2515 JUMP JUMPDEST PUSH1 0x40 DUP3 ADD SWAP1 POP SWAP2 SWAP1 POP JUMP JUMPDEST PUSH0 PUSH1 0x20 DUP3 ADD SWAP1 POP DUP2 DUP2 SUB PUSH0 DUP4 ADD MSTORE PUSH2 0x259C DUP2 PUSH2 0x2563 JUMP JUMPDEST SWAP1 POP SWAP2 SWAP1 POP JUMP JUMPDEST PUSH32 0x45524332303A207472616E7366657220616D6F756E7420657863656564732062 PUSH0 DUP3 ADD MSTORE PUSH32 0x616C616E63650000000000000000000000000000000000000000000000000000 PUSH1 0x20 DUP3 ADD MSTORE POP JUMP JUMPDEST PUSH0 PUSH2 0x25FD PUSH1 0x26 DUP4 PUSH2 0x15E1 JUMP JUMPDEST SWAP2 POP PUSH2 0x2608 DUP3 PUSH2 0x25A3 JUMP JUMPDEST PUSH1 0x40 DUP3 ADD SWAP1 POP SWAP2 SWAP1 POP JUMP JUMPDEST PUSH0 PUSH1 0x20 DUP3 ADD SWAP1 POP DUP2 DUP2 SUB PUSH0 DUP4 ADD MSTORE PUSH2 0x262A DUP2 PUSH2 0x25F1 JUMP JUMPDEST SWAP1 POP SWAP2 SWAP1 POP JUMP INVALID LOG2 PUSH5 0x6970667358 0x22 SLT KECCAK256 PUSH1 0xCD 0x29 SWAP6 LOG3 POP INVALID 0xA9 0xB9 0xC1 0xDB PUSH15 0xD816A60FBF99A53F4708C311D58F2E 0xD6 0xE GT 0x21 0xDC PUSH5 0x736F6C6343 STOP ADDMOD ISZERO STOP CALLER "
		},
		"gasEstimates": {
			"creation": {
				"codeDepositCost": "1966200",
				"executionCost": "infinite",
				"totalCost": "infinite"
			},
			"external": {
				"Register(string)": "infinite",
				"UserType()": "infinite",
				"UserType(address)": "infinite",
				"allowance(address,address)": "infinite",
				"approve(address,uint256)": "infinite",
				"balanceOf(address)": "2852",
				"decimals()": "361",
				"decreaseAllowance(address,uint256)": "infinite",
				"increaseAllowance(address,uint256)": "infinite",
				"isUserRegistered()": "2649",
				"isUserRegistered(address)": "2960",
				"mint()": "infinite",
				"name()": "infinite",
				"owner()": "2626",
				"renounceOwnership()": "30435",
				"setNewLimit(uint256)": "46978",
				"setTokenPrice(uint256)": "24909",
				"symbol()": "infinite",
				"tokenPrice()": "2492",
				"totalSupply()": "2544",
				"transfer(address,uint256)": "infinite",
				"transferBalanceToOwner()": "infinite",
				"transferFrom(address,address,uint256)": "infinite",
				"transferOwnership(address)": "30863"
			}
		},
		"methodIdentifiers": {
			"Register(string)": "40b2d3af",
			"UserType()": "cca05803",
			"UserType(address)": "407eeff7",
			"allowance(address,address)": "dd62ed3e",
			"approve(address,uint256)": "095ea7b3",
			"balanceOf(address)": "70a08231",
			"decimals()": "313ce567",
			"decreaseAllowance(address,uint256)": "a457c2d7",
			"increaseAllowance(address,uint256)": "39509351",
			"isUserRegistered()": "873138f3",
			"isUserRegistered(address)": "163f7522",
			"mint()": "1249c58b",
			"name()": "06fdde03",
			"owner()": "8da5cb5b",
			"renounceOwnership()": "715018a6",
			"setNewLimit(uint256)": "d7e612d1",
			"setTokenPrice(uint256)": "6a61e5fc",
			"symbol()": "95d89b41",
			"tokenPrice()": "7ff9b596",
			"totalSupply()": "18160ddd",
			"transfer(address,uint256)": "a9059cbb",
			"transferBalanceToOwner()": "47f07a8e",
			"transferFrom(address,address,uint256)": "23b872dd",
			"transferOwnership(address)": "f2fde38b"
		}
	},
	"abi": [
		{
			"inputs": [
				{
					"internalType": "string",
					"name": "_type1",
					"type": "string"
				},
				{
					"internalType": "string",
					"name": "_type2",
					"type": "string"
				}
			],
			"stateMutability": "nonpayable",
			"type": "constructor"
		},
		{
			"anonymous": false,
			"inputs": [
				{
					"indexed": true,
					"internalType": "address",
					"name": "owner",
					"type": "address"
				},
				{
					"indexed": true,
					"internalType": "address",
					"name": "spender",
					"type": "address"
				},
				{
					"indexed": false,
					"internalType": "uint256",
					"name": "value",
					"type": "uint256"
				}
			],
			"name": "Approval",
			"type": "event"
		},
		{
			"anonymous": false,
			"inputs": [
				{
					"indexed": true,
					"internalType": "address",
					"name": "previousOwner",
					"type": "address"
				},
				{
					"indexed": true,
					"internalType": "address",
					"name": "newOwner",
					"type": "address"
				}
			],
			"name": "OwnershipTransferred",
			"type": "event"
		},
		{
			"anonymous": false,
			"inputs": [
				{
					"indexed": true,
					"internalType": "address",
					"name": "from",
					"type": "address"
				},
				{
					"indexed": true,
					"internalType": "address",
					"name": "to",
					"type": "address"
				},
				{
					"indexed": false,
					"internalType": "uint256",
					"name": "value",
					"type": "uint256"
				}
			],
			"name": "Transfer",
			"type": "event"
		},
		{
			"inputs": [
				{
					"internalType": "string",
					"name": "t",
					"type": "string"
				}
			],
			"name": "Register",
			"outputs": [],
			"stateMutability": "nonpayable",
			"type": "function"
		},
		{
			"inputs": [
				{
					"internalType": "address",
					"name": "a",
					"type": "address"
				}
			],
			"name": "UserType",
			"outputs": [
				{
					"internalType": "string",
					"name": "",
					"type": "string"
				}
			],
			"stateMutability": "view",
			"type": "function"
		},
		{
			"inputs": [],
			"name": "UserType",
			"outputs": [
				{
					"internalType": "string",
					"name": "",
					"type": "string"
				}
			],
			"stateMutability": "view",
			"type": "function"
		},
		{
			"inputs": [
				{
					"internalType": "address",
					"name": "owner",
					"type": "address"
				},
				{
					"internalType": "address",
					"name": "spender",
					"type": "address"
				}
			],
			"name": "allowance",
			"outputs": [
				{
					"internalType": "uint256",
					"name": "",
					"type": "uint256"
				}
			],
			"stateMutability": "view",
			"type": "function"
		},
		{
			"inputs": [
				{
					"internalType": "address",
					"name": "spender",
					"type": "address"
				},
				{
					"internalType": "uint256",
					"name": "amount",
					"type": "uint256"
				}
			],
			"name": "approve",
			"outputs": [
				{
					"internalType": "bool",
					"name": "",
					"type": "bool"
				}
			],
			"stateMutability": "nonpayable",
			"type": "function"
		},
		{
			"inputs": [
				{
					"internalType": "address",
					"name": "account",
					"type": "address"
				}
			],
			"name": "balanceOf",
			"outputs": [
				{
					"internalType": "uint256",
					"name": "",
					"type": "uint256"
				}
			],
			"stateMutability": "view",
			"type": "function"
		},
		{
			"inputs": [],
			"name": "decimals",
			"outputs": [
				{
					"internalType": "uint8",
					"name": "",
					"type": "uint8"
				}
			],
			"stateMutability": "view",
			"type": "function"
		},
		{
			"inputs": [
				{
					"internalType": "address",
					"name": "spender",
					"type": "address"
				},
				{
					"internalType": "uint256",
					"name": "subtractedValue",
					"type": "uint256"
				}
			],
			"name": "decreaseAllowance",
			"outputs": [
				{
					"internalType": "bool",
					"name": "",
					"type": "bool"
				}
			],
			"stateMutability": "nonpayable",
			"type": "function"
		},
		{
			"inputs": [
				{
					"internalType": "address",
					"name": "spender",
					"type": "address"
				},
				{
					"internalType": "uint256",
					"name": "addedValue",
					"type": "uint256"
				}
			],
			"name": "increaseAllowance",
			"outputs": [
				{
					"internalType": "bool",
					"name": "",
					"type": "bool"
				}
			],
			"stateMutability": "nonpayable",
			"type": "function"
		},
		{
			"inputs": [
				{
					"internalType": "address",
					"name": "a",
					"type": "address"
				}
			],
			"name": "isUserRegistered",
			"outputs": [
				{
					"internalType": "bool",
					"name": "",
					"type": "bool"
				}
			],
			"stateMutability": "view",
			"type": "function"
		},
		{
			"inputs": [],
			"name": "isUserRegistered",
			"outputs": [
				{
					"internalType": "bool",
					"name": "",
					"type": "bool"
				}
			],
			"stateMutability": "view",
			"type": "function"
		},
		{
			"inputs": [],
			"name": "mint",
			"outputs": [],
			"stateMutability": "nonpayable",
			"type": "function"
		},
		{
			"inputs": [],
			"name": "name",
			"outputs": [
				{
					"internalType": "string",
					"name": "",
					"type": "string"
				}
			],
			"stateMutability": "view",
			"type": "function"
		},
		{
			"inputs": [],
			"name": "owner",
			"outputs": [
				{
					"internalType": "address",
					"name": "",
					"type": "address"
				}
			],
			"stateMutability": "view",
			"type": "function"
		},
		{
			"inputs": [],
			"name": "renounceOwnership",
			"outputs": [],
			"stateMutability": "nonpayable",
			"type": "function"
		},
		{
			"inputs": [
				{
					"internalType": "uint256",
					"name": "_newLimit",
					"type": "uint256"
				}
			],
			"name": "setNewLimit",
			"outputs": [],
			"stateMutability": "nonpayable",
			"type": "function"
		},
		{
			"inputs": [
				{
					"internalType": "uint256",
					"name": "_newPrice",
					"type": "uint256"
				}
			],
			"name": "setTokenPrice",
			"outputs": [],
			"stateMutability": "nonpayable",
			"type": "function"
		},
		{
			"inputs": [],
			"name": "symbol",
			"outputs": [
				{
					"internalType": "string",
					"name": "",
					"type": "string"
				}
			],
			"stateMutability": "view",
			"type": "function"
		},
		{
			"inputs": [],
			"name": "tokenPrice",
			"outputs": [
				{
					"internalType": "uint256",
					"name": "",
					"type": "uint256"
				}
			],
			"stateMutability": "view",
			"type": "function"
		},
		{
			"inputs": [],
			"name": "totalSupply",
			"outputs": [
				{
					"internalType": "uint256",
					"name": "",
					"type": "uint256"
				}
			],
			"stateMutability": "view",
			"type": "function"
		},
		{
			"inputs": [
				{
					"internalType": "address",
					"name": "to",
					"type": "address"
				},
				{
					"internalType": "uint256",
					"name": "amount",
					"type": "uint256"
				}
			],
			"name": "transfer",
			"outputs": [
				{
					"internalType": "bool",
					"name": "",
					"type": "bool"
				}
			],
			"stateMutability": "nonpayable",
			"type": "function"
		},
		{
			"inputs": [],
			"name": "transferBalanceToOwner",
			"outputs": [],
			"stateMutability": "nonpayable",
			"type": "function"
		},
		{
			"inputs": [
				{
					"internalType": "address",
					"name": "from",
					"type": "address"
				},
				{
					"internalType": "address",
					"name": "to",
					"type": "address"
				},
				{
					"internalType": "uint256",
					"name": "amount",
					"type": "uint256"
				}
			],
			"name": "transferFrom",
			"outputs": [
				{
					"internalType": "bool",
					"name": "",
					"type": "bool"
				}
			],
			"stateMutability": "nonpayable",
			"type": "function"
		},
		{
			"inputs": [
				{
					"internalType": "address",
					"name": "newOwner",
					"type": "address"
				}
			],
			"name": "transferOwnership",
			"outputs": [],
			"stateMutability": "nonpayable",
			"type": "function"
		}
	]
}