{
	"data": {
		"bytecode": {
			"linkReferences": {},
			"object": "608060405234801562000010575f80fd5b5060405162004756380380620047568339818101604052810190620000369190620002df565b6040518060400160405280600481526020017f4c6f616e000000000000000000000000000000000000000000000000000000008152506040518060400160405280600281526020017f4c4f000000000000000000000000000000000000000000000000000000000000815250815f9081620000b291906200059c565b508060019081620000c491906200059c565b505050620000e7620000db620001b060201b60201c565b620001b760201b60201c565b8260085f6101000a81548173ffffffffffffffffffffffffffffffffffffffff021916908373ffffffffffffffffffffffffffffffffffffffff16021790555080600a5f6101000a81548173ffffffffffffffffffffffffffffffffffffffff021916908373ffffffffffffffffffffffffffffffffffffffff1602179055508160095f6101000a81548173ffffffffffffffffffffffffffffffffffffffff021916908373ffffffffffffffffffffffffffffffffffffffff16021790555050505062000680565b5f33905090565b5f60065f9054906101000a900473ffffffffffffffffffffffffffffffffffffffff1690508160065f6101000a81548173ffffffffffffffffffffffffffffffffffffffff021916908373ffffffffffffffffffffffffffffffffffffffff1602179055508173ffffffffffffffffffffffffffffffffffffffff168173ffffffffffffffffffffffffffffffffffffffff167f8be0079c531659141344cd1fd0a4f28419497f9722a3daafe3b4186f6b6457e060405160405180910390a35050565b5f80fd5b5f73ffffffffffffffffffffffffffffffffffffffff82169050919050565b5f620002a9826200027e565b9050919050565b620002bb816200029d565b8114620002c6575f80fd5b50565b5f81519050620002d981620002b0565b92915050565b5f805f60608486031215620002f957620002f86200027a565b5b5f6200030886828701620002c9565b93505060206200031b86828701620002c9565b92505060406200032e86828701620002c9565b9150509250925092565b5f81519050919050565b7f4e487b71000000000000000000000000000000000000000000000000000000005f52604160045260245ffd5b7f4e487b71000000000000000000000000000000000000000000000000000000005f52602260045260245ffd5b5f6002820490506001821680620003b457607f821691505b602082108103620003ca57620003c96200036f565b5b50919050565b5f819050815f5260205f209050919050565b5f6020601f8301049050919050565b5f82821b905092915050565b5f600883026200042e7fffffffffffffffffffffffffffffffffffffffffffffffffffffffffffffffff82620003f1565b6200043a8683620003f1565b95508019841693508086168417925050509392505050565b5f819050919050565b5f819050919050565b5f620004846200047e620004788462000452565b6200045b565b62000452565b9050919050565b5f819050919050565b6200049f8362000464565b620004b7620004ae826200048b565b848454620003fd565b825550505050565b5f90565b620004cd620004bf565b620004da81848462000494565b505050565b5b818110156200050157620004f55f82620004c3565b600181019050620004e0565b5050565b601f82111562000550576200051a81620003d0565b6200052584620003e2565b8101602085101562000535578190505b6200054d6200054485620003e2565b830182620004df565b50505b505050565b5f82821c905092915050565b5f620005725f198460080262000555565b1980831691505092915050565b5f6200058c838362000561565b9150826002028217905092915050565b620005a78262000338565b67ffffffffffffffff811115620005c357620005c262000342565b5b620005cf82546200039c565b620005dc82828562000505565b5f60209050601f83116001811462000612575f8415620005fd578287015190505b6200060985826200057f565b86555062000678565b601f1984166200062286620003d0565b5f5b828110156200064b5784890151825560018201915060208501945060208101905062000624565b868310156200066b578489015162000667601f89168262000561565b8355505b6001600288020188555050505b505050505050565b6140c8806200068e5f395ff3fe6080604052600436106101e2575f3560e01c806370a0823111610101578063c5ebeaec11610094578063e985e9c511610063578063e985e9c5146106ac578063f2fde38b146106e8578063fc0c546a14610710578063fd5bfb541461073a576101e2565b8063c5ebeaec146105e4578063c87b56dd1461060c578063db006a7514610648578063e3d670d714610670576101e2565b8063961974ba116100d0578063961974ba146105425780639d76ea581461056a578063a22cb46514610594578063b88d4fde146105bc576101e2565b806370a082311461049c578063715018a6146104d85780638da5cb5b146104ee57806395d89b4114610518576101e2565b806342842e0e1161017957806368cdafe61161014857806368cdafe61461040657806369e527da1461042e5780636b55e991146104585780636c6f31f214610474576101e2565b806342842e0e1461035057806342966c68146103785780635fe3b567146103a05780636352211e146103ca576101e2565b80630e752702116101b55780630e752702146102b057806323b872dd146102d85780632afcf4801461030057806340d097c314610328576101e2565b806301ffc9a7146101e657806306fdde0314610222578063081812fc1461024c578063095ea7b314610288575b5f80fd5b3480156101f1575f80fd5b5061020c60048036038101906102079190612b91565b610750565b6040516102199190612bd6565b60405180910390f35b34801561022d575f80fd5b50610236610831565b6040516102439190612c79565b60405180910390f35b348015610257575f80fd5b50610272600480360381019061026d9190612ccc565b6108c0565b60405161027f9190612d36565b60405180910390f35b348015610293575f80fd5b506102ae60048036038101906102a99190612d79565b610902565b005b3480156102bb575f80fd5b506102d660048036038101906102d19190612ccc565b610a18565b005b3480156102e3575f80fd5b506102fe60048036038101906102f99190612db7565b610c2a565b005b34801561030b575f80fd5b5061032660048036038101906103219190612ccc565b610c8a565b005b348015610333575f80fd5b5061034e60048036038101906103499190612e07565b610d9f565b005b34801561035b575f80fd5b5061037660048036038101906103719190612db7565b610dc4565b005b348015610383575f80fd5b5061039e60048036038101906103999190612ccc565b610de3565b005b3480156103ab575f80fd5b506103b4610e3f565b6040516103c19190612e8d565b60405180910390f35b3480156103d5575f80fd5b506103f060048036038101906103eb9190612ccc565b610e64565b6040516103fd9190612d36565b60405180910390f35b348015610411575f80fd5b5061042c60048036038101906104279190612d79565b610ee8565b005b348015610439575f80fd5b50610442610f89565b60405161044f9190612ec6565b60405180910390f35b610472600480360381019061046d9190612f1a565b610fae565b005b34801561047f575f80fd5b5061049a60048036038101906104959190612d79565b611037565b005b3480156104a7575f80fd5b506104c260048036038101906104bd9190612e07565b6110d8565b6040516104cf9190612f54565b60405180910390f35b3480156104e3575f80fd5b506104ec61118c565b005b3480156104f9575f80fd5b5061050261119f565b60405161050f9190612d36565b60405180910390f35b348015610523575f80fd5b5061052c6111c7565b6040516105399190612c79565b60405180910390f35b34801561054d575f80fd5b5061056860048036038101906105639190612db7565b611257565b005b348015610575575f80fd5b5061057e6112fb565b60405161058b9190612d36565b60405180910390f35b34801561059f575f80fd5b506105ba60048036038101906105b59190612f97565b61138f565b005b3480156105c7575f80fd5b506105e260048036038101906105dd9190613101565b6113a5565b005b3480156105ef575f80fd5b5061060a60048036038101906106059190612ccc565b611407565b005b348015610617575f80fd5b50610632600480360381019061062d9190612ccc565b6114ea565b60405161063f9190612c79565b60405180910390f35b348015610653575f80fd5b5061066e60048036038101906106699190612ccc565b61154f565b005b34801561067b575f80fd5b5061069660048036038101906106919190612e07565b61164c565b6040516106a39190612f54565b60405180910390f35b3480156106b7575f80fd5b506106d260048036038101906106cd9190613181565b6116ed565b6040516106df9190612bd6565b60405180910390f35b3480156106f3575f80fd5b5061070e60048036038101906107099190612e07565b61177b565b005b34801561071b575f80fd5b506107246117fd565b60405161073191906131df565b60405180910390f35b348015610745575f80fd5b5061074e611822565b005b5f7f80ac58cd000000000000000000000000000000000000000000000000000000007bffffffffffffffffffffffffffffffffffffffffffffffffffffffff1916827bffffffffffffffffffffffffffffffffffffffffffffffffffffffff1916148061081a57507f5b5e139f000000000000000000000000000000000000000000000000000000007bffffffffffffffffffffffffffffffffffffffffffffffffffffffff1916827bffffffffffffffffffffffffffffffffffffffffffffffffffffffff1916145b8061082a5750610829826119de565b5b9050919050565b60605f805461083f90613225565b80601f016020809104026020016040519081016040528092919081815260200182805461086b90613225565b80156108b65780601f1061088d576101008083540402835291602001916108b6565b820191905f5260205f20905b81548152906001019060200180831161089957829003601f168201915b5050505050905090565b5f6108ca82611a47565b60045f8381526020019081526020015f205f9054906101000a900473ffffffffffffffffffffffffffffffffffffffff169050919050565b5f61090c82610e64565b90508073ffffffffffffffffffffffffffffffffffffffff168373ffffffffffffffffffffffffffffffffffffffff160361097c576040517f08c379a0000000000000000000000000000000000000000000000000000000008152600401610973906132c5565b60405180910390fd5b8073ffffffffffffffffffffffffffffffffffffffff1661099b611a92565b73ffffffffffffffffffffffffffffffffffffffff1614806109ca57506109c9816109c4611a92565b6116ed565b5b610a09576040517f08c379a0000000000000000000000000000000000000000000000000000000008152600401610a0090613353565b60405180910390fd5b610a138383611a99565b505050565b5f600a5f9054906101000a900473ffffffffffffffffffffffffffffffffffffffff1673ffffffffffffffffffffffffffffffffffffffff16636f307dc36040518163ffffffff1660e01b8152600401602060405180830381865afa158015610a83573d5f803e3d5ffd5b505050506040513d601f19601f82011682018060405250810190610aa79190613385565b90508073ffffffffffffffffffffffffffffffffffffffff1663095ea7b3600a5f9054906101000a900473ffffffffffffffffffffffffffffffffffffffff16846040518363ffffffff1660e01b8152600401610b059291906133b0565b6020604051808303815f875af1158015610b21573d5f803e3d5ffd5b505050506040513d601f19601f82011682018060405250810190610b4591906133eb565b505f600a5f9054906101000a900473ffffffffffffffffffffffffffffffffffffffff1673ffffffffffffffffffffffffffffffffffffffff16630e752702846040518263ffffffff1660e01b8152600401610ba19190612f54565b6020604051808303815f875af1158015610bbd573d5f803e3d5ffd5b505050506040513d601f19601f82011682018060405250810190610be1919061342a565b90505f8114610c25576040517f08c379a0000000000000000000000000000000000000000000000000000000008152600401610c1c9061349f565b60405180910390fd5b505050565b610c3b610c35611a92565b82611b4f565b610c7a576040517f08c379a0000000000000000000000000000000000000000000000000000000008152600401610c719061352d565b60405180910390fd5b610c85838383611be3565b505050565b5f600a5f9054906101000a900473ffffffffffffffffffffffffffffffffffffffff1673ffffffffffffffffffffffffffffffffffffffff1663a0712d68836040518263ffffffff1660e01b8152600401610ce59190612f54565b6020604051808303815f875af1158015610d01573d5f803e3d5ffd5b505050506040513d601f19601f82011682018060405250810190610d25919061342a565b90505f8114610d69576040517f08c379a0000000000000000000000000000000000000000000000000000000008152600401610d6090613595565b60405180910390fd5b81600b5f6001610d77611ce6565b610d8191906135e0565b81526020019081526020015f2081905550610d9b33610d9f565b5050565b5f610daa6007611cf6565b9050610db66007611d02565b610dc08282611d16565b5050565b610dde83838360405180602001604052805f8152506113a5565b505050565b610df4610dee611a92565b82611b4f565b610e33576040517f08c379a0000000000000000000000000000000000000000000000000000000008152600401610e2a9061352d565b60405180910390fd5b610e3c81611d33565b50565b60085f9054906101000a900473ffffffffffffffffffffffffffffffffffffffff1681565b5f80610e6f83611e74565b90505f73ffffffffffffffffffffffffffffffffffffffff168173ffffffffffffffffffffffffffffffffffffffff1603610edf576040517f08c379a0000000000000000000000000000000000000000000000000000000008152600401610ed69061365d565b60405180910390fd5b80915050919050565b60095f9054906101000a900473ffffffffffffffffffffffffffffffffffffffff1673ffffffffffffffffffffffffffffffffffffffff1663a9059cbb83836040518363ffffffff1660e01b8152600401610f449291906133b0565b6020604051808303815f875af1158015610f60573d5f803e3d5ffd5b505050506040513d601f19601f82011682018060405250810190610f8491906133eb565b505050565b600a5f9054906101000a900473ffffffffffffffffffffffffffffffffffffffff1681565b5f3411610ff0576040517f08c379a0000000000000000000000000000000000000000000000000000000008152600401610fe7906136c5565b60405180910390fd5b8073ffffffffffffffffffffffffffffffffffffffff166108fc3490811502906040515f60405180830381858888f19350505050158015611033573d5f803e3d5ffd5b5050565b60095f9054906101000a900473ffffffffffffffffffffffffffffffffffffffff1673ffffffffffffffffffffffffffffffffffffffff1663095ea7b383836040518363ffffffff1660e01b81526004016110939291906133b0565b6020604051808303815f875af11580156110af573d5f803e3d5ffd5b505050506040513d601f19601f820116820180604052508101906110d391906133eb565b505050565b5f8073ffffffffffffffffffffffffffffffffffffffff168273ffffffffffffffffffffffffffffffffffffffff1603611147576040517f08c379a000000000000000000000000000000000000000000000000000000000815260040161113e90613753565b60405180910390fd5b60035f8373ffffffffffffffffffffffffffffffffffffffff1673ffffffffffffffffffffffffffffffffffffffff1681526020019081526020015f20549050919050565b611194611ead565b61119d5f611f2b565b565b5f60065f9054906101000a900473ffffffffffffffffffffffffffffffffffffffff16905090565b6060600180546111d690613225565b80601f016020809104026020016040519081016040528092919081815260200182805461120290613225565b801561124d5780601f106112245761010080835404028352916020019161124d565b820191905f5260205f20905b81548152906001019060200180831161123057829003601f168201915b5050505050905090565b60095f9054906101000a900473ffffffffffffffffffffffffffffffffffffffff1673ffffffffffffffffffffffffffffffffffffffff166323b872dd8484846040518463ffffffff1660e01b81526004016112b593929190613771565b6020604051808303815f875af11580156112d1573d5f803e3d5ffd5b505050506040513d601f19601f820116820180604052508101906112f591906133eb565b50505050565b5f600a5f9054906101000a900473ffffffffffffffffffffffffffffffffffffffff1673ffffffffffffffffffffffffffffffffffffffff16636f307dc36040518163ffffffff1660e01b8152600401602060405180830381865afa158015611366573d5f803e3d5ffd5b505050506040513d601f19601f8201168201806040525081019061138a9190613385565b905090565b6113a161139a611a92565b8383611fee565b5050565b6113b66113b0611a92565b83611b4f565b6113f5576040517f08c379a00000000000000000000000000000000000000000000000000000000081526004016113ec9061352d565b60405180910390fd5b61140184848484612155565b50505050565b5f600a5f9054906101000a900473ffffffffffffffffffffffffffffffffffffffff1673ffffffffffffffffffffffffffffffffffffffff1663c5ebeaec836040518263ffffffff1660e01b81526004016114629190612f54565b6020604051808303815f875af115801561147e573d5f803e3d5ffd5b505050506040513d601f19601f820116820180604052508101906114a2919061342a565b90505f81146114e6576040517f08c379a00000000000000000000000000000000000000000000000000000000081526004016114dd906137f0565b60405180910390fd5b5050565b60606114f582611a47565b5f6114fe6121b1565b90505f81511161151c5760405180602001604052805f815250611547565b80611526846121c7565b604051602001611537929190613848565b6040516020818303038152906040525b915050919050565b5f600a5f9054906101000a900473ffffffffffffffffffffffffffffffffffffffff1673ffffffffffffffffffffffffffffffffffffffff1663db006a75600b5f8581526020019081526020015f20546040518263ffffffff1660e01b81526004016115bb9190612f54565b6020604051808303815f875af11580156115d7573d5f803e3d5ffd5b505050506040513d601f19601f820116820180604052508101906115fb919061342a565b90505f811461163f576040517f08c379a0000000000000000000000000000000000000000000000000000000008152600401611636906138b5565b60405180910390fd5b61164882611d33565b5050565b5f60095f9054906101000a900473ffffffffffffffffffffffffffffffffffffffff1673ffffffffffffffffffffffffffffffffffffffff166370a08231836040518263ffffffff1660e01b81526004016116a79190612d36565b602060405180830381865afa1580156116c2573d5f803e3d5ffd5b505050506040513d601f19601f820116820180604052508101906116e6919061342a565b9050919050565b5f60055f8473ffffffffffffffffffffffffffffffffffffffff1673ffffffffffffffffffffffffffffffffffffffff1681526020019081526020015f205f8373ffffffffffffffffffffffffffffffffffffffff1673ffffffffffffffffffffffffffffffffffffffff1681526020019081526020015f205f9054906101000a900460ff16905092915050565b611783611ead565b5f73ffffffffffffffffffffffffffffffffffffffff168173ffffffffffffffffffffffffffffffffffffffff16036117f1576040517f08c379a00000000000000000000000000000000000000000000000000000000081526004016117e890613943565b60405180910390fd5b6117fa81611f2b565b50565b60095f9054906101000a900473ffffffffffffffffffffffffffffffffffffffff1681565b5f600167ffffffffffffffff81111561183e5761183d612fdd565b5b60405190808252806020026020018201604052801561186c5781602001602082028036833780820191505090505b509050600a5f9054906101000a900473ffffffffffffffffffffffffffffffffffffffff16815f815181106118a4576118a3613961565b5b602002602001019073ffffffffffffffffffffffffffffffffffffffff16908173ffffffffffffffffffffffffffffffffffffffff16815250505f60085f9054906101000a900473ffffffffffffffffffffffffffffffffffffffff1673ffffffffffffffffffffffffffffffffffffffff1663c2998238836040518263ffffffff1660e01b81526004016119399190613a45565b5f604051808303815f875af1158015611954573d5f803e3d5ffd5b505050506040513d5f823e3d601f19601f8201168201806040525081019061197c9190613b29565b90505f815f8151811061199257611991613961565b5b6020026020010151146119da576040517f08c379a00000000000000000000000000000000000000000000000000000000081526004016119d190613bba565b60405180910390fd5b5050565b5f7f01ffc9a7000000000000000000000000000000000000000000000000000000007bffffffffffffffffffffffffffffffffffffffffffffffffffffffff1916827bffffffffffffffffffffffffffffffffffffffffffffffffffffffff1916149050919050565b611a5081612291565b611a8f576040517f08c379a0000000000000000000000000000000000000000000000000000000008152600401611a869061365d565b60405180910390fd5b50565b5f33905090565b8160045f8381526020019081526020015f205f6101000a81548173ffffffffffffffffffffffffffffffffffffffff021916908373ffffffffffffffffffffffffffffffffffffffff160217905550808273ffffffffffffffffffffffffffffffffffffffff16611b0983610e64565b73ffffffffffffffffffffffffffffffffffffffff167f8c5be1e5ebec7d5bd14f71427d1e84f3dd0314c0f7b2291e5b200ac8c7c3b92560405160405180910390a45050565b5f80611b5a83610e64565b90508073ffffffffffffffffffffffffffffffffffffffff168473ffffffffffffffffffffffffffffffffffffffff161480611b9c5750611b9b81856116ed565b5b80611bda57508373ffffffffffffffffffffffffffffffffffffffff16611bc2846108c0565b73ffffffffffffffffffffffffffffffffffffffff16145b91505092915050565b5f600a5f9054906101000a900473ffffffffffffffffffffffffffffffffffffffff1673ffffffffffffffffffffffffffffffffffffffff166323b872dd8585600b5f8781526020019081526020015f20546040518463ffffffff1660e01b8152600401611c5393929190613771565b6020604051808303815f875af1158015611c6f573d5f803e3d5ffd5b505050506040513d601f19601f82011682018060405250810190611c9391906133eb565b905080611cd5576040517f08c379a0000000000000000000000000000000000000000000000000000000008152600401611ccc90613c22565b60405180910390fd5b611ce08484846122d1565b50505050565b5f611cf16007611cf6565b905090565b5f815f01549050919050565b6001815f015f828254019250508190555050565b611d2f828260405180602001604052805f8152506125bd565b5050565b5f611d3d82610e64565b9050611d4c815f846001612617565b611d5582610e64565b905060045f8381526020019081526020015f205f6101000a81549073ffffffffffffffffffffffffffffffffffffffff0219169055600160035f8373ffffffffffffffffffffffffffffffffffffffff1673ffffffffffffffffffffffffffffffffffffffff1681526020019081526020015f205f828254039250508190555060025f8381526020019081526020015f205f6101000a81549073ffffffffffffffffffffffffffffffffffffffff0219169055815f73ffffffffffffffffffffffffffffffffffffffff168273ffffffffffffffffffffffffffffffffffffffff167fddf252ad1be2c89b69c2b068fc378daa952ba7f163c4a11628f55a4df523b3ef60405160405180910390a4611e70815f84600161261d565b5050565b5f60025f8381526020019081526020015f205f9054906101000a900473ffffffffffffffffffffffffffffffffffffffff169050919050565b611eb5611a92565b73ffffffffffffffffffffffffffffffffffffffff16611ed361119f565b73ffffffffffffffffffffffffffffffffffffffff1614611f29576040517f08c379a0000000000000000000000000000000000000000000000000000000008152600401611f2090613c8a565b60405180910390fd5b565b5f60065f9054906101000a900473ffffffffffffffffffffffffffffffffffffffff1690508160065f6101000a81548173ffffffffffffffffffffffffffffffffffffffff021916908373ffffffffffffffffffffffffffffffffffffffff1602179055508173ffffffffffffffffffffffffffffffffffffffff168173ffffffffffffffffffffffffffffffffffffffff167f8be0079c531659141344cd1fd0a4f28419497f9722a3daafe3b4186f6b6457e060405160405180910390a35050565b8173ffffffffffffffffffffffffffffffffffffffff168373ffffffffffffffffffffffffffffffffffffffff160361205c576040517f08c379a000000000000000000000000000000000000000000000000000000000815260040161205390613cf2565b60405180910390fd5b8060055f8573ffffffffffffffffffffffffffffffffffffffff1673ffffffffffffffffffffffffffffffffffffffff1681526020019081526020015f205f8473ffffffffffffffffffffffffffffffffffffffff1673ffffffffffffffffffffffffffffffffffffffff1681526020019081526020015f205f6101000a81548160ff0219169083151502179055508173ffffffffffffffffffffffffffffffffffffffff168373ffffffffffffffffffffffffffffffffffffffff167f17307eab39ab6107e8899845ad3d59bd9653f200f220920489ca2b5937696c31836040516121489190612bd6565b60405180910390a3505050565b612160848484611be3565b61216c84848484612623565b6121ab576040517f08c379a00000000000000000000000000000000000000000000000000000000081526004016121a290613d80565b60405180910390fd5b50505050565b606060405180602001604052805f815250905090565b60605f60016121d5846127a5565b0190505f8167ffffffffffffffff8111156121f3576121f2612fdd565b5b6040519080825280601f01601f1916602001820160405280156122255781602001600182028036833780820191505090505b5090505f82602001820190505b600115612286578080600190039150507f3031323334353637383961626364656600000000000000000000000000000000600a86061a8153600a858161227b5761227a613d9e565b5b0494505f8503612232575b819350505050919050565b5f8073ffffffffffffffffffffffffffffffffffffffff166122b283611e74565b73ffffffffffffffffffffffffffffffffffffffff1614159050919050565b8273ffffffffffffffffffffffffffffffffffffffff166122f182610e64565b73ffffffffffffffffffffffffffffffffffffffff1614612347576040517f08c379a000000000000000000000000000000000000000000000000000000000815260040161233e90613e3b565b60405180910390fd5b5f73ffffffffffffffffffffffffffffffffffffffff168273ffffffffffffffffffffffffffffffffffffffff16036123b5576040517f08c379a00000000000000000000000000000000000000000000000000000000081526004016123ac90613ec9565b60405180910390fd5b6123c28383836001612617565b8273ffffffffffffffffffffffffffffffffffffffff166123e282610e64565b73ffffffffffffffffffffffffffffffffffffffff1614612438576040517f08c379a000000000000000000000000000000000000000000000000000000000815260040161242f90613e3b565b60405180910390fd5b60045f8281526020019081526020015f205f6101000a81549073ffffffffffffffffffffffffffffffffffffffff0219169055600160035f8573ffffffffffffffffffffffffffffffffffffffff1673ffffffffffffffffffffffffffffffffffffffff1681526020019081526020015f205f8282540392505081905550600160035f8473ffffffffffffffffffffffffffffffffffffffff1673ffffffffffffffffffffffffffffffffffffffff1681526020019081526020015f205f82825401925050819055508160025f8381526020019081526020015f205f6101000a81548173ffffffffffffffffffffffffffffffffffffffff021916908373ffffffffffffffffffffffffffffffffffffffff160217905550808273ffffffffffffffffffffffffffffffffffffffff168473ffffffffffffffffffffffffffffffffffffffff167fddf252ad1be2c89b69c2b068fc378daa952ba7f163c4a11628f55a4df523b3ef60405160405180910390a46125b8838383600161261d565b505050565b6125c783836128f6565b6125d35f848484612623565b612612576040517f08c379a000000000000000000000000000000000000000000000000000000000815260040161260990613d80565b60405180910390fd5b505050565b50505050565b50505050565b5f6126438473ffffffffffffffffffffffffffffffffffffffff16612b09565b15612798578373ffffffffffffffffffffffffffffffffffffffff1663150b7a0261266c611a92565b8786866040518563ffffffff1660e01b815260040161268e9493929190613f39565b6020604051808303815f875af19250505080156126c957506040513d601f19601f820116820180604052508101906126c69190613f97565b60015b612748573d805f81146126f7576040519150601f19603f3d011682016040523d82523d5f602084013e6126fc565b606091505b505f815103612740576040517f08c379a000000000000000000000000000000000000000000000000000000000815260040161273790613d80565b60405180910390fd5b805181602001fd5b63150b7a0260e01b7bffffffffffffffffffffffffffffffffffffffffffffffffffffffff1916817bffffffffffffffffffffffffffffffffffffffffffffffffffffffff19161491505061279d565b600190505b949350505050565b5f805f90507a184f03e93ff9f4daa797ed6e38ed64bf6a1f0100000000000000008310612801577a184f03e93ff9f4daa797ed6e38ed64bf6a1f01000000000000000083816127f7576127f6613d9e565b5b0492506040810190505b6d04ee2d6d415b85acef8100000000831061283e576d04ee2d6d415b85acef8100000000838161283457612833613d9e565b5b0492506020810190505b662386f26fc10000831061286d57662386f26fc10000838161286357612862613d9e565b5b0492506010810190505b6305f5e1008310612896576305f5e100838161288c5761288b613d9e565b5b0492506008810190505b61271083106128bb5761271083816128b1576128b0613d9e565b5b0492506004810190505b606483106128de57606483816128d4576128d3613d9e565b5b0492506002810190505b600a83106128ed576001810190505b80915050919050565b5f73ffffffffffffffffffffffffffffffffffffffff168273ffffffffffffffffffffffffffffffffffffffff1603612964576040517f08c379a000000000000000000000000000000000000000000000000000000000815260040161295b9061400c565b60405180910390fd5b61296d81612291565b156129ad576040517f08c379a00000000000000000000000000000000000000000000000000000000081526004016129a490614074565b60405180910390fd5b6129ba5f83836001612617565b6129c381612291565b15612a03576040517f08c379a00000000000000000000000000000000000000000000000000000000081526004016129fa90614074565b60405180910390fd5b600160035f8473ffffffffffffffffffffffffffffffffffffffff1673ffffffffffffffffffffffffffffffffffffffff1681526020019081526020015f205f82825401925050819055508160025f8381526020019081526020015f205f6101000a81548173ffffffffffffffffffffffffffffffffffffffff021916908373ffffffffffffffffffffffffffffffffffffffff160217905550808273ffffffffffffffffffffffffffffffffffffffff165f73ffffffffffffffffffffffffffffffffffffffff167fddf252ad1be2c89b69c2b068fc378daa952ba7f163c4a11628f55a4df523b3ef60405160405180910390a4612b055f8383600161261d565b5050565b5f808273ffffffffffffffffffffffffffffffffffffffff163b119050919050565b5f604051905090565b5f80fd5b5f80fd5b5f7fffffffff0000000000000000000000000000000000000000000000000000000082169050919050565b612b7081612b3c565b8114612b7a575f80fd5b50565b5f81359050612b8b81612b67565b92915050565b5f60208284031215612ba657612ba5612b34565b5b5f612bb384828501612b7d565b91505092915050565b5f8115159050919050565b612bd081612bbc565b82525050565b5f602082019050612be95f830184612bc7565b92915050565b5f81519050919050565b5f82825260208201905092915050565b5f5b83811015612c26578082015181840152602081019050612c0b565b5f8484015250505050565b5f601f19601f8301169050919050565b5f612c4b82612bef565b612c558185612bf9565b9350612c65818560208601612c09565b612c6e81612c31565b840191505092915050565b5f6020820190508181035f830152612c918184612c41565b905092915050565b5f819050919050565b612cab81612c99565b8114612cb5575f80fd5b50565b5f81359050612cc681612ca2565b92915050565b5f60208284031215612ce157612ce0612b34565b5b5f612cee84828501612cb8565b91505092915050565b5f73ffffffffffffffffffffffffffffffffffffffff82169050919050565b5f612d2082612cf7565b9050919050565b612d3081612d16565b82525050565b5f602082019050612d495f830184612d27565b92915050565b612d5881612d16565b8114612d62575f80fd5b50565b5f81359050612d7381612d4f565b92915050565b5f8060408385031215612d8f57612d8e612b34565b5b5f612d9c85828601612d65565b9250506020612dad85828601612cb8565b9150509250929050565b5f805f60608486031215612dce57612dcd612b34565b5b5f612ddb86828701612d65565b9350506020612dec86828701612d65565b9250506040612dfd86828701612cb8565b9150509250925092565b5f60208284031215612e1c57612e1b612b34565b5b5f612e2984828501612d65565b91505092915050565b5f819050919050565b5f612e55612e50612e4b84612cf7565b612e32565b612cf7565b9050919050565b5f612e6682612e3b565b9050919050565b5f612e7782612e5c565b9050919050565b612e8781612e6d565b82525050565b5f602082019050612ea05f830184612e7e565b92915050565b5f612eb082612e5c565b9050919050565b612ec081612ea6565b82525050565b5f602082019050612ed95f830184612eb7565b92915050565b5f612ee982612cf7565b9050919050565b612ef981612edf565b8114612f03575f80fd5b50565b5f81359050612f1481612ef0565b92915050565b5f60208284031215612f2f57612f2e612b34565b5b5f612f3c84828501612f06565b91505092915050565b612f4e81612c99565b82525050565b5f602082019050612f675f830184612f45565b92915050565b612f7681612bbc565b8114612f80575f80fd5b50565b5f81359050612f9181612f6d565b92915050565b5f8060408385031215612fad57612fac612b34565b5b5f612fba85828601612d65565b9250506020612fcb85828601612f83565b9150509250929050565b5f80fd5b5f80fd5b7f4e487b71000000000000000000000000000000000000000000000000000000005f52604160045260245ffd5b61301382612c31565b810181811067ffffffffffffffff8211171561303257613031612fdd565b5b80604052505050565b5f613044612b2b565b9050613050828261300a565b919050565b5f67ffffffffffffffff82111561306f5761306e612fdd565b5b61307882612c31565b9050602081019050919050565b828183375f83830152505050565b5f6130a56130a084613055565b61303b565b9050828152602081018484840111156130c1576130c0612fd9565b5b6130cc848285613085565b509392505050565b5f82601f8301126130e8576130e7612fd5565b5b81356130f8848260208601613093565b91505092915050565b5f805f806080858703121561311957613118612b34565b5b5f61312687828801612d65565b945050602061313787828801612d65565b935050604061314887828801612cb8565b925050606085013567ffffffffffffffff81111561316957613168612b38565b5b613175878288016130d4565b91505092959194509250565b5f806040838503121561319757613196612b34565b5b5f6131a485828601612d65565b92505060206131b585828601612d65565b9150509250929050565b5f6131c982612e5c565b9050919050565b6131d9816131bf565b82525050565b5f6020820190506131f25f8301846131d0565b92915050565b7f4e487b71000000000000000000000000000000000000000000000000000000005f52602260045260245ffd5b5f600282049050600182168061323c57607f821691505b60208210810361324f5761324e6131f8565b5b50919050565b7f4552433732313a20617070726f76616c20746f2063757272656e74206f776e655f8201527f7200000000000000000000000000000000000000000000000000000000000000602082015250565b5f6132af602183612bf9565b91506132ba82613255565b604082019050919050565b5f6020820190508181035f8301526132dc816132a3565b9050919050565b7f4552433732313a20617070726f76652063616c6c6572206973206e6f7420746f5f8201527f6b656e206f776e6572206f7220617070726f76656420666f7220616c6c000000602082015250565b5f61333d603d83612bf9565b9150613348826132e3565b604082019050919050565b5f6020820190508181035f83015261336a81613331565b9050919050565b5f8151905061337f81612d4f565b92915050565b5f6020828403121561339a57613399612b34565b5b5f6133a784828501613371565b91505092915050565b5f6040820190506133c35f830185612d27565b6133d06020830184612f45565b9392505050565b5f815190506133e581612f6d565b92915050565b5f60208284031215613400576133ff612b34565b5b5f61340d848285016133d7565b91505092915050565b5f8151905061342481612ca2565b92915050565b5f6020828403121561343f5761343e612b34565b5b5f61344c84828501613416565b91505092915050565b7f7265706179426f72726f772829206661696c65640000000000000000000000005f82015250565b5f613489601483612bf9565b915061349482613455565b602082019050919050565b5f6020820190508181035f8301526134b68161347d565b9050919050565b7f4552433732313a2063616c6c6572206973206e6f7420746f6b656e206f776e655f8201527f72206f7220617070726f76656400000000000000000000000000000000000000602082015250565b5f613517602d83612bf9565b9150613522826134bd565b604082019050919050565b5f6020820190508181035f8301526135448161350b565b9050919050565b7f6d696e742829206661696c6564000000000000000000000000000000000000005f82015250565b5f61357f600d83612bf9565b915061358a8261354b565b602082019050919050565b5f6020820190508181035f8301526135ac81613573565b9050919050565b7f4e487b71000000000000000000000000000000000000000000000000000000005f52601160045260245ffd5b5f6135ea82612c99565b91506135f583612c99565b925082820390508181111561360d5761360c6135b3565b5b92915050565b7f4552433732313a20696e76616c696420746f6b656e20494400000000000000005f82015250565b5f613647601883612bf9565b915061365282613613565b602082019050919050565b5f6020820190508181035f8301526136748161363b565b9050919050565b7f506c656173652073656e6420736f6d65204574686572000000000000000000005f82015250565b5f6136af601683612bf9565b91506136ba8261367b565b602082019050919050565b5f6020820190508181035f8301526136dc816136a3565b9050919050565b7f4552433732313a2061646472657373207a65726f206973206e6f7420612076615f8201527f6c6964206f776e65720000000000000000000000000000000000000000000000602082015250565b5f61373d602983612bf9565b9150613748826136e3565b604082019050919050565b5f6020820190508181035f83015261376a81613731565b9050919050565b5f6060820190506137845f830186612d27565b6137916020830185612d27565b61379e6040830184612f45565b949350505050565b7f626f72726f772829206661696c656400000000000000000000000000000000005f82015250565b5f6137da600f83612bf9565b91506137e5826137a6565b602082019050919050565b5f6020820190508181035f830152613807816137ce565b9050919050565b5f81905092915050565b5f61382282612bef565b61382c818561380e565b935061383c818560208601612c09565b80840191505092915050565b5f6138538285613818565b915061385f8284613818565b91508190509392505050565b7f72656465656d2829206661696c656400000000000000000000000000000000005f82015250565b5f61389f600f83612bf9565b91506138aa8261386b565b602082019050919050565b5f6020820190508181035f8301526138cc81613893565b9050919050565b7f4f776e61626c653a206e6577206f776e657220697320746865207a65726f20615f8201527f6464726573730000000000000000000000000000000000000000000000000000602082015250565b5f61392d602683612bf9565b9150613938826138d3565b604082019050919050565b5f6020820190508181035f83015261395a81613921565b9050919050565b7f4e487b71000000000000000000000000000000000000000000000000000000005f52603260045260245ffd5b5f81519050919050565b5f82825260208201905092915050565b5f819050602082019050919050565b6139c081612d16565b82525050565b5f6139d183836139b7565b60208301905092915050565b5f602082019050919050565b5f6139f38261398e565b6139fd8185613998565b9350613a08836139a8565b805f5b83811015613a38578151613a1f88826139c6565b9750613a2a836139dd565b925050600181019050613a0b565b5085935050505092915050565b5f6020820190508181035f830152613a5d81846139e9565b905092915050565b5f67ffffffffffffffff821115613a7f57613a7e612fdd565b5b602082029050602081019050919050565b5f80fd5b5f613aa6613aa184613a65565b61303b565b90508083825260208201905060208402830185811115613ac957613ac8613a90565b5b835b81811015613af25780613ade8882613416565b845260208401935050602081019050613acb565b5050509392505050565b5f82601f830112613b1057613b0f612fd5565b5b8151613b20848260208601613a94565b91505092915050565b5f60208284031215613b3e57613b3d612b34565b5b5f82015167ffffffffffffffff811115613b5b57613b5a612b38565b5b613b6784828501613afc565b91505092915050565b7f656e7465724d61726b65742829206661696c65640000000000000000000000005f82015250565b5f613ba4601483612bf9565b9150613baf82613b70565b602082019050919050565b5f6020820190508181035f830152613bd181613b98565b9050919050565b7f7472616e736665722829206661696c65640000000000000000000000000000005f82015250565b5f613c0c601183612bf9565b9150613c1782613bd8565b602082019050919050565b5f6020820190508181035f830152613c3981613c00565b9050919050565b7f4f776e61626c653a2063616c6c6572206973206e6f7420746865206f776e65725f82015250565b5f613c74602083612bf9565b9150613c7f82613c40565b602082019050919050565b5f6020820190508181035f830152613ca181613c68565b9050919050565b7f4552433732313a20617070726f766520746f2063616c6c6572000000000000005f82015250565b5f613cdc601983612bf9565b9150613ce782613ca8565b602082019050919050565b5f6020820190508181035f830152613d0981613cd0565b9050919050565b7f4552433732313a207472616e7366657220746f206e6f6e2045524337323152655f8201527f63656976657220696d706c656d656e7465720000000000000000000000000000602082015250565b5f613d6a603283612bf9565b9150613d7582613d10565b604082019050919050565b5f6020820190508181035f830152613d9781613d5e565b9050919050565b7f4e487b71000000000000000000000000000000000000000000000000000000005f52601260045260245ffd5b7f4552433732313a207472616e736665722066726f6d20696e636f7272656374205f8201527f6f776e6572000000000000000000000000000000000000000000000000000000602082015250565b5f613e25602583612bf9565b9150613e3082613dcb565b604082019050919050565b5f6020820190508181035f830152613e5281613e19565b9050919050565b7f4552433732313a207472616e7366657220746f20746865207a65726f206164645f8201527f7265737300000000000000000000000000000000000000000000000000000000602082015250565b5f613eb3602483612bf9565b9150613ebe82613e59565b604082019050919050565b5f6020820190508181035f830152613ee081613ea7565b9050919050565b5f81519050919050565b5f82825260208201905092915050565b5f613f0b82613ee7565b613f158185613ef1565b9350613f25818560208601612c09565b613f2e81612c31565b840191505092915050565b5f608082019050613f4c5f830187612d27565b613f596020830186612d27565b613f666040830185612f45565b8181036060830152613f788184613f01565b905095945050505050565b5f81519050613f9181612b67565b92915050565b5f60208284031215613fac57613fab612b34565b5b5f613fb984828501613f83565b91505092915050565b7f4552433732313a206d696e7420746f20746865207a65726f20616464726573735f82015250565b5f613ff6602083612bf9565b915061400182613fc2565b602082019050919050565b5f6020820190508181035f83015261402381613fea565b9050919050565b7f4552433732313a20746f6b656e20616c7265616479206d696e746564000000005f82015250565b5f61405e601c83612bf9565b91506140698261402a565b602082019050919050565b5f6020820190508181035f83015261408b81614052565b905091905056fea26469706673582212203bb18978445212e919324af7b04450bb0719fef25ad22ee29e92bab2e82f869664736f6c63430008150033",
			"opcodes": "PUSH1 0x80 PUSH1 0x40 MSTORE CALLVALUE DUP1 ISZERO PUSH3 0x10 JUMPI PUSH0 DUP1 REVERT JUMPDEST POP PUSH1 0x40 MLOAD PUSH3 0x4756 CODESIZE SUB DUP1 PUSH3 0x4756 DUP4 CODECOPY DUP2 DUP2 ADD PUSH1 0x40 MSTORE DUP2 ADD SWAP1 PUSH3 0x36 SWAP2 SWAP1 PUSH3 0x2DF JUMP JUMPDEST PUSH1 0x40 MLOAD DUP1 PUSH1 0x40 ADD PUSH1 0x40 MSTORE DUP1 PUSH1 0x4 DUP2 MSTORE PUSH1 0x20 ADD PUSH32 0x4C6F616E00000000000000000000000000000000000000000000000000000000 DUP2 MSTORE POP PUSH1 0x40 MLOAD DUP1 PUSH1 0x40 ADD PUSH1 0x40 MSTORE DUP1 PUSH1 0x2 DUP2 MSTORE PUSH1 0x20 ADD PUSH32 0x4C4F000000000000000000000000000000000000000000000000000000000000 DUP2 MSTORE POP DUP2 PUSH0 SWAP1 DUP2 PUSH3 0xB2 SWAP2 SWAP1 PUSH3 0x59C JUMP JUMPDEST POP DUP1 PUSH1 0x1 SWAP1 DUP2 PUSH3 0xC4 SWAP2 SWAP1 PUSH3 0x59C JUMP JUMPDEST POP POP POP PUSH3 0xE7 PUSH3 0xDB PUSH3 0x1B0 PUSH1 0x20 SHL PUSH1 0x20 SHR JUMP JUMPDEST PUSH3 0x1B7 PUSH1 0x20 SHL PUSH1 0x20 SHR JUMP JUMPDEST DUP3 PUSH1 0x8 PUSH0 PUSH2 0x100 EXP DUP2 SLOAD DUP2 PUSH20 0xFFFFFFFFFFFFFFFFFFFFFFFFFFFFFFFFFFFFFFFF MUL NOT AND SWAP1 DUP4 PUSH20 0xFFFFFFFFFFFFFFFFFFFFFFFFFFFFFFFFFFFFFFFF AND MUL OR SWAP1 SSTORE POP DUP1 PUSH1 0xA PUSH0 PUSH2 0x100 EXP DUP2 SLOAD DUP2 PUSH20 0xFFFFFFFFFFFFFFFFFFFFFFFFFFFFFFFFFFFFFFFF MUL NOT AND SWAP1 DUP4 PUSH20 0xFFFFFFFFFFFFFFFFFFFFFFFFFFFFFFFFFFFFFFFF AND MUL OR SWAP1 SSTORE POP DUP2 PUSH1 0x9 PUSH0 PUSH2 0x100 EXP DUP2 SLOAD DUP2 PUSH20 0xFFFFFFFFFFFFFFFFFFFFFFFFFFFFFFFFFFFFFFFF MUL NOT AND SWAP1 DUP4 PUSH20 0xFFFFFFFFFFFFFFFFFFFFFFFFFFFFFFFFFFFFFFFF AND MUL OR SWAP1 SSTORE POP POP POP POP PUSH3 0x680 JUMP JUMPDEST PUSH0 CALLER SWAP1 POP SWAP1 JUMP JUMPDEST PUSH0 PUSH1 0x6 PUSH0 SWAP1 SLOAD SWAP1 PUSH2 0x100 EXP SWAP1 DIV PUSH20 0xFFFFFFFFFFFFFFFFFFFFFFFFFFFFFFFFFFFFFFFF AND SWAP1 POP DUP2 PUSH1 0x6 PUSH0 PUSH2 0x100 EXP DUP2 SLOAD DUP2 PUSH20 0xFFFFFFFFFFFFFFFFFFFFFFFFFFFFFFFFFFFFFFFF MUL NOT AND SWAP1 DUP4 PUSH20 0xFFFFFFFFFFFFFFFFFFFFFFFFFFFFFFFFFFFFFFFF AND MUL OR SWAP1 SSTORE POP DUP2 PUSH20 0xFFFFFFFFFFFFFFFFFFFFFFFFFFFFFFFFFFFFFFFF AND DUP2 PUSH20 0xFFFFFFFFFFFFFFFFFFFFFFFFFFFFFFFFFFFFFFFF AND PUSH32 0x8BE0079C531659141344CD1FD0A4F28419497F9722A3DAAFE3B4186F6B6457E0 PUSH1 0x40 MLOAD PUSH1 0x40 MLOAD DUP1 SWAP2 SUB SWAP1 LOG3 POP POP JUMP JUMPDEST PUSH0 DUP1 REVERT JUMPDEST PUSH0 PUSH20 0xFFFFFFFFFFFFFFFFFFFFFFFFFFFFFFFFFFFFFFFF DUP3 AND SWAP1 POP SWAP2 SWAP1 POP JUMP JUMPDEST PUSH0 PUSH3 0x2A9 DUP3 PUSH3 0x27E JUMP JUMPDEST SWAP1 POP SWAP2 SWAP1 POP JUMP JUMPDEST PUSH3 0x2BB DUP2 PUSH3 0x29D JUMP JUMPDEST DUP2 EQ PUSH3 0x2C6 JUMPI PUSH0 DUP1 REVERT JUMPDEST POP JUMP JUMPDEST PUSH0 DUP2 MLOAD SWAP1 POP PUSH3 0x2D9 DUP2 PUSH3 0x2B0 JUMP JUMPDEST SWAP3 SWAP2 POP POP JUMP JUMPDEST PUSH0 DUP1 PUSH0 PUSH1 0x60 DUP5 DUP7 SUB SLT ISZERO PUSH3 0x2F9 JUMPI PUSH3 0x2F8 PUSH3 0x27A JUMP JUMPDEST JUMPDEST PUSH0 PUSH3 0x308 DUP7 DUP3 DUP8 ADD PUSH3 0x2C9 JUMP JUMPDEST SWAP4 POP POP PUSH1 0x20 PUSH3 0x31B DUP7 DUP3 DUP8 ADD PUSH3 0x2C9 JUMP JUMPDEST SWAP3 POP POP PUSH1 0x40 PUSH3 0x32E DUP7 DUP3 DUP8 ADD PUSH3 0x2C9 JUMP JUMPDEST SWAP2 POP POP SWAP3 POP SWAP3 POP SWAP3 JUMP JUMPDEST PUSH0 DUP2 MLOAD SWAP1 POP SWAP2 SWAP1 POP JUMP JUMPDEST PUSH32 0x4E487B7100000000000000000000000000000000000000000000000000000000 PUSH0 MSTORE PUSH1 0x41 PUSH1 0x4 MSTORE PUSH1 0x24 PUSH0 REVERT JUMPDEST PUSH32 0x4E487B7100000000000000000000000000000000000000000000000000000000 PUSH0 MSTORE PUSH1 0x22 PUSH1 0x4 MSTORE PUSH1 0x24 PUSH0 REVERT JUMPDEST PUSH0 PUSH1 0x2 DUP3 DIV SWAP1 POP PUSH1 0x1 DUP3 AND DUP1 PUSH3 0x3B4 JUMPI PUSH1 0x7F DUP3 AND SWAP2 POP JUMPDEST PUSH1 0x20 DUP3 LT DUP2 SUB PUSH3 0x3CA JUMPI PUSH3 0x3C9 PUSH3 0x36F JUMP JUMPDEST JUMPDEST POP SWAP2 SWAP1 POP JUMP JUMPDEST PUSH0 DUP2 SWAP1 POP DUP2 PUSH0 MSTORE PUSH1 0x20 PUSH0 KECCAK256 SWAP1 POP SWAP2 SWAP1 POP JUMP JUMPDEST PUSH0 PUSH1 0x20 PUSH1 0x1F DUP4 ADD DIV SWAP1 POP SWAP2 SWAP1 POP JUMP JUMPDEST PUSH0 DUP3 DUP3 SHL SWAP1 POP SWAP3 SWAP2 POP POP JUMP JUMPDEST PUSH0 PUSH1 0x8 DUP4 MUL PUSH3 0x42E PUSH32 0xFFFFFFFFFFFFFFFFFFFFFFFFFFFFFFFFFFFFFFFFFFFFFFFFFFFFFFFFFFFFFFFF DUP3 PUSH3 0x3F1 JUMP JUMPDEST PUSH3 0x43A DUP7 DUP4 PUSH3 0x3F1 JUMP JUMPDEST SWAP6 POP DUP1 NOT DUP5 AND SWAP4 POP DUP1 DUP7 AND DUP5 OR SWAP3 POP POP POP SWAP4 SWAP3 POP POP POP JUMP JUMPDEST PUSH0 DUP2 SWAP1 POP SWAP2 SWAP1 POP JUMP JUMPDEST PUSH0 DUP2 SWAP1 POP SWAP2 SWAP1 POP JUMP JUMPDEST PUSH0 PUSH3 0x484 PUSH3 0x47E PUSH3 0x478 DUP5 PUSH3 0x452 JUMP JUMPDEST PUSH3 0x45B JUMP JUMPDEST PUSH3 0x452 JUMP JUMPDEST SWAP1 POP SWAP2 SWAP1 POP JUMP JUMPDEST PUSH0 DUP2 SWAP1 POP SWAP2 SWAP1 POP JUMP JUMPDEST PUSH3 0x49F DUP4 PUSH3 0x464 JUMP JUMPDEST PUSH3 0x4B7 PUSH3 0x4AE DUP3 PUSH3 0x48B JUMP JUMPDEST DUP5 DUP5 SLOAD PUSH3 0x3FD JUMP JUMPDEST DUP3 SSTORE POP POP POP POP JUMP JUMPDEST PUSH0 SWAP1 JUMP JUMPDEST PUSH3 0x4CD PUSH3 0x4BF JUMP JUMPDEST PUSH3 0x4DA DUP2 DUP5 DUP5 PUSH3 0x494 JUMP JUMPDEST POP POP POP JUMP JUMPDEST JUMPDEST DUP2 DUP2 LT ISZERO PUSH3 0x501 JUMPI PUSH3 0x4F5 PUSH0 DUP3 PUSH3 0x4C3 JUMP JUMPDEST PUSH1 0x1 DUP2 ADD SWAP1 POP PUSH3 0x4E0 JUMP JUMPDEST POP POP JUMP JUMPDEST PUSH1 0x1F DUP3 GT ISZERO PUSH3 0x550 JUMPI PUSH3 0x51A DUP2 PUSH3 0x3D0 JUMP JUMPDEST PUSH3 0x525 DUP5 PUSH3 0x3E2 JUMP JUMPDEST DUP2 ADD PUSH1 0x20 DUP6 LT ISZERO PUSH3 0x535 JUMPI DUP2 SWAP1 POP JUMPDEST PUSH3 0x54D PUSH3 0x544 DUP6 PUSH3 0x3E2 JUMP JUMPDEST DUP4 ADD DUP3 PUSH3 0x4DF JUMP JUMPDEST POP POP JUMPDEST POP POP POP JUMP JUMPDEST PUSH0 DUP3 DUP3 SHR SWAP1 POP SWAP3 SWAP2 POP POP JUMP JUMPDEST PUSH0 PUSH3 0x572 PUSH0 NOT DUP5 PUSH1 0x8 MUL PUSH3 0x555 JUMP JUMPDEST NOT DUP1 DUP4 AND SWAP2 POP POP SWAP3 SWAP2 POP POP JUMP JUMPDEST PUSH0 PUSH3 0x58C DUP4 DUP4 PUSH3 0x561 JUMP JUMPDEST SWAP2 POP DUP3 PUSH1 0x2 MUL DUP3 OR SWAP1 POP SWAP3 SWAP2 POP POP JUMP JUMPDEST PUSH3 0x5A7 DUP3 PUSH3 0x338 JUMP JUMPDEST PUSH8 0xFFFFFFFFFFFFFFFF DUP2 GT ISZERO PUSH3 0x5C3 JUMPI PUSH3 0x5C2 PUSH3 0x342 JUMP JUMPDEST JUMPDEST PUSH3 0x5CF DUP3 SLOAD PUSH3 0x39C JUMP JUMPDEST PUSH3 0x5DC DUP3 DUP3 DUP6 PUSH3 0x505 JUMP JUMPDEST PUSH0 PUSH1 0x20 SWAP1 POP PUSH1 0x1F DUP4 GT PUSH1 0x1 DUP2 EQ PUSH3 0x612 JUMPI PUSH0 DUP5 ISZERO PUSH3 0x5FD JUMPI DUP3 DUP8 ADD MLOAD SWAP1 POP JUMPDEST PUSH3 0x609 DUP6 DUP3 PUSH3 0x57F JUMP JUMPDEST DUP7 SSTORE POP PUSH3 0x678 JUMP JUMPDEST PUSH1 0x1F NOT DUP5 AND PUSH3 0x622 DUP7 PUSH3 0x3D0 JUMP JUMPDEST PUSH0 JUMPDEST DUP3 DUP2 LT ISZERO PUSH3 0x64B JUMPI DUP5 DUP10 ADD MLOAD DUP3 SSTORE PUSH1 0x1 DUP3 ADD SWAP2 POP PUSH1 0x20 DUP6 ADD SWAP5 POP PUSH1 0x20 DUP2 ADD SWAP1 POP PUSH3 0x624 JUMP JUMPDEST DUP7 DUP4 LT ISZERO PUSH3 0x66B JUMPI DUP5 DUP10 ADD MLOAD PUSH3 0x667 PUSH1 0x1F DUP10 AND DUP3 PUSH3 0x561 JUMP JUMPDEST DUP4 SSTORE POP JUMPDEST PUSH1 0x1 PUSH1 0x2 DUP9 MUL ADD DUP9 SSTORE POP POP POP JUMPDEST POP POP POP POP POP POP JUMP JUMPDEST PUSH2 0x40C8 DUP1 PUSH3 0x68E PUSH0 CODECOPY PUSH0 RETURN INVALID PUSH1 0x80 PUSH1 0x40 MSTORE PUSH1 0x4 CALLDATASIZE LT PUSH2 0x1E2 JUMPI PUSH0 CALLDATALOAD PUSH1 0xE0 SHR DUP1 PUSH4 0x70A08231 GT PUSH2 0x101 JUMPI DUP1 PUSH4 0xC5EBEAEC GT PUSH2 0x94 JUMPI DUP1 PUSH4 0xE985E9C5 GT PUSH2 0x63 JUMPI DUP1 PUSH4 0xE985E9C5 EQ PUSH2 0x6AC JUMPI DUP1 PUSH4 0xF2FDE38B EQ PUSH2 0x6E8 JUMPI DUP1 PUSH4 0xFC0C546A EQ PUSH2 0x710 JUMPI DUP1 PUSH4 0xFD5BFB54 EQ PUSH2 0x73A JUMPI PUSH2 0x1E2 JUMP JUMPDEST DUP1 PUSH4 0xC5EBEAEC EQ PUSH2 0x5E4 JUMPI DUP1 PUSH4 0xC87B56DD EQ PUSH2 0x60C JUMPI DUP1 PUSH4 0xDB006A75 EQ PUSH2 0x648 JUMPI DUP1 PUSH4 0xE3D670D7 EQ PUSH2 0x670 JUMPI PUSH2 0x1E2 JUMP JUMPDEST DUP1 PUSH4 0x961974BA GT PUSH2 0xD0 JUMPI DUP1 PUSH4 0x961974BA EQ PUSH2 0x542 JUMPI DUP1 PUSH4 0x9D76EA58 EQ PUSH2 0x56A JUMPI DUP1 PUSH4 0xA22CB465 EQ PUSH2 0x594 JUMPI DUP1 PUSH4 0xB88D4FDE EQ PUSH2 0x5BC JUMPI PUSH2 0x1E2 JUMP JUMPDEST DUP1 PUSH4 0x70A08231 EQ PUSH2 0x49C JUMPI DUP1 PUSH4 0x715018A6 EQ PUSH2 0x4D8 JUMPI DUP1 PUSH4 0x8DA5CB5B EQ PUSH2 0x4EE JUMPI DUP1 PUSH4 0x95D89B41 EQ PUSH2 0x518 JUMPI PUSH2 0x1E2 JUMP JUMPDEST DUP1 PUSH4 0x42842E0E GT PUSH2 0x179 JUMPI DUP1 PUSH4 0x68CDAFE6 GT PUSH2 0x148 JUMPI DUP1 PUSH4 0x68CDAFE6 EQ PUSH2 0x406 JUMPI DUP1 PUSH4 0x69E527DA EQ PUSH2 0x42E JUMPI DUP1 PUSH4 0x6B55E991 EQ PUSH2 0x458 JUMPI DUP1 PUSH4 0x6C6F31F2 EQ PUSH2 0x474 JUMPI PUSH2 0x1E2 JUMP JUMPDEST DUP1 PUSH4 0x42842E0E EQ PUSH2 0x350 JUMPI DUP1 PUSH4 0x42966C68 EQ PUSH2 0x378 JUMPI DUP1 PUSH4 0x5FE3B567 EQ PUSH2 0x3A0 JUMPI DUP1 PUSH4 0x6352211E EQ PUSH2 0x3CA JUMPI PUSH2 0x1E2 JUMP JUMPDEST DUP1 PUSH4 0xE752702 GT PUSH2 0x1B5 JUMPI DUP1 PUSH4 0xE752702 EQ PUSH2 0x2B0 JUMPI DUP1 PUSH4 0x23B872DD EQ PUSH2 0x2D8 JUMPI DUP1 PUSH4 0x2AFCF480 EQ PUSH2 0x300 JUMPI DUP1 PUSH4 0x40D097C3 EQ PUSH2 0x328 JUMPI PUSH2 0x1E2 JUMP JUMPDEST DUP1 PUSH4 0x1FFC9A7 EQ PUSH2 0x1E6 JUMPI DUP1 PUSH4 0x6FDDE03 EQ PUSH2 0x222 JUMPI DUP1 PUSH4 0x81812FC EQ PUSH2 0x24C JUMPI DUP1 PUSH4 0x95EA7B3 EQ PUSH2 0x288 JUMPI JUMPDEST PUSH0 DUP1 REVERT JUMPDEST CALLVALUE DUP1 ISZERO PUSH2 0x1F1 JUMPI PUSH0 DUP1 REVERT JUMPDEST POP PUSH2 0x20C PUSH1 0x4 DUP1 CALLDATASIZE SUB DUP2 ADD SWAP1 PUSH2 0x207 SWAP2 SWAP1 PUSH2 0x2B91 JUMP JUMPDEST PUSH2 0x750 JUMP JUMPDEST PUSH1 0x40 MLOAD PUSH2 0x219 SWAP2 SWAP1 PUSH2 0x2BD6 JUMP JUMPDEST PUSH1 0x40 MLOAD DUP1 SWAP2 SUB SWAP1 RETURN JUMPDEST CALLVALUE DUP1 ISZERO PUSH2 0x22D JUMPI PUSH0 DUP1 REVERT JUMPDEST POP PUSH2 0x236 PUSH2 0x831 JUMP JUMPDEST PUSH1 0x40 MLOAD PUSH2 0x243 SWAP2 SWAP1 PUSH2 0x2C79 JUMP JUMPDEST PUSH1 0x40 MLOAD DUP1 SWAP2 SUB SWAP1 RETURN JUMPDEST CALLVALUE DUP1 ISZERO PUSH2 0x257 JUMPI PUSH0 DUP1 REVERT JUMPDEST POP PUSH2 0x272 PUSH1 0x4 DUP1 CALLDATASIZE SUB DUP2 ADD SWAP1 PUSH2 0x26D SWAP2 SWAP1 PUSH2 0x2CCC JUMP JUMPDEST PUSH2 0x8C0 JUMP JUMPDEST PUSH1 0x40 MLOAD PUSH2 0x27F SWAP2 SWAP1 PUSH2 0x2D36 JUMP JUMPDEST PUSH1 0x40 MLOAD DUP1 SWAP2 SUB SWAP1 RETURN JUMPDEST CALLVALUE DUP1 ISZERO PUSH2 0x293 JUMPI PUSH0 DUP1 REVERT JUMPDEST POP PUSH2 0x2AE PUSH1 0x4 DUP1 CALLDATASIZE SUB DUP2 ADD SWAP1 PUSH2 0x2A9 SWAP2 SWAP1 PUSH2 0x2D79 JUMP JUMPDEST PUSH2 0x902 JUMP JUMPDEST STOP JUMPDEST CALLVALUE DUP1 ISZERO PUSH2 0x2BB JUMPI PUSH0 DUP1 REVERT JUMPDEST POP PUSH2 0x2D6 PUSH1 0x4 DUP1 CALLDATASIZE SUB DUP2 ADD SWAP1 PUSH2 0x2D1 SWAP2 SWAP1 PUSH2 0x2CCC JUMP JUMPDEST PUSH2 0xA18 JUMP JUMPDEST STOP JUMPDEST CALLVALUE DUP1 ISZERO PUSH2 0x2E3 JUMPI PUSH0 DUP1 REVERT JUMPDEST POP PUSH2 0x2FE PUSH1 0x4 DUP1 CALLDATASIZE SUB DUP2 ADD SWAP1 PUSH2 0x2F9 SWAP2 SWAP1 PUSH2 0x2DB7 JUMP JUMPDEST PUSH2 0xC2A JUMP JUMPDEST STOP JUMPDEST CALLVALUE DUP1 ISZERO PUSH2 0x30B JUMPI PUSH0 DUP1 REVERT JUMPDEST POP PUSH2 0x326 PUSH1 0x4 DUP1 CALLDATASIZE SUB DUP2 ADD SWAP1 PUSH2 0x321 SWAP2 SWAP1 PUSH2 0x2CCC JUMP JUMPDEST PUSH2 0xC8A JUMP JUMPDEST STOP JUMPDEST CALLVALUE DUP1 ISZERO PUSH2 0x333 JUMPI PUSH0 DUP1 REVERT JUMPDEST POP PUSH2 0x34E PUSH1 0x4 DUP1 CALLDATASIZE SUB DUP2 ADD SWAP1 PUSH2 0x349 SWAP2 SWAP1 PUSH2 0x2E07 JUMP JUMPDEST PUSH2 0xD9F JUMP JUMPDEST STOP JUMPDEST CALLVALUE DUP1 ISZERO PUSH2 0x35B JUMPI PUSH0 DUP1 REVERT JUMPDEST POP PUSH2 0x376 PUSH1 0x4 DUP1 CALLDATASIZE SUB DUP2 ADD SWAP1 PUSH2 0x371 SWAP2 SWAP1 PUSH2 0x2DB7 JUMP JUMPDEST PUSH2 0xDC4 JUMP JUMPDEST STOP JUMPDEST CALLVALUE DUP1 ISZERO PUSH2 0x383 JUMPI PUSH0 DUP1 REVERT JUMPDEST POP PUSH2 0x39E PUSH1 0x4 DUP1 CALLDATASIZE SUB DUP2 ADD SWAP1 PUSH2 0x399 SWAP2 SWAP1 PUSH2 0x2CCC JUMP JUMPDEST PUSH2 0xDE3 JUMP JUMPDEST STOP JUMPDEST CALLVALUE DUP1 ISZERO PUSH2 0x3AB JUMPI PUSH0 DUP1 REVERT JUMPDEST POP PUSH2 0x3B4 PUSH2 0xE3F JUMP JUMPDEST PUSH1 0x40 MLOAD PUSH2 0x3C1 SWAP2 SWAP1 PUSH2 0x2E8D JUMP JUMPDEST PUSH1 0x40 MLOAD DUP1 SWAP2 SUB SWAP1 RETURN JUMPDEST CALLVALUE DUP1 ISZERO PUSH2 0x3D5 JUMPI PUSH0 DUP1 REVERT JUMPDEST POP PUSH2 0x3F0 PUSH1 0x4 DUP1 CALLDATASIZE SUB DUP2 ADD SWAP1 PUSH2 0x3EB SWAP2 SWAP1 PUSH2 0x2CCC JUMP JUMPDEST PUSH2 0xE64 JUMP JUMPDEST PUSH1 0x40 MLOAD PUSH2 0x3FD SWAP2 SWAP1 PUSH2 0x2D36 JUMP JUMPDEST PUSH1 0x40 MLOAD DUP1 SWAP2 SUB SWAP1 RETURN JUMPDEST CALLVALUE DUP1 ISZERO PUSH2 0x411 JUMPI PUSH0 DUP1 REVERT JUMPDEST POP PUSH2 0x42C PUSH1 0x4 DUP1 CALLDATASIZE SUB DUP2 ADD SWAP1 PUSH2 0x427 SWAP2 SWAP1 PUSH2 0x2D79 JUMP JUMPDEST PUSH2 0xEE8 JUMP JUMPDEST STOP JUMPDEST CALLVALUE DUP1 ISZERO PUSH2 0x439 JUMPI PUSH0 DUP1 REVERT JUMPDEST POP PUSH2 0x442 PUSH2 0xF89 JUMP JUMPDEST PUSH1 0x40 MLOAD PUSH2 0x44F SWAP2 SWAP1 PUSH2 0x2EC6 JUMP JUMPDEST PUSH1 0x40 MLOAD DUP1 SWAP2 SUB SWAP1 RETURN JUMPDEST PUSH2 0x472 PUSH1 0x4 DUP1 CALLDATASIZE SUB DUP2 ADD SWAP1 PUSH2 0x46D SWAP2 SWAP1 PUSH2 0x2F1A JUMP JUMPDEST PUSH2 0xFAE JUMP JUMPDEST STOP JUMPDEST CALLVALUE DUP1 ISZERO PUSH2 0x47F JUMPI PUSH0 DUP1 REVERT JUMPDEST POP PUSH2 0x49A PUSH1 0x4 DUP1 CALLDATASIZE SUB DUP2 ADD SWAP1 PUSH2 0x495 SWAP2 SWAP1 PUSH2 0x2D79 JUMP JUMPDEST PUSH2 0x1037 JUMP JUMPDEST STOP JUMPDEST CALLVALUE DUP1 ISZERO PUSH2 0x4A7 JUMPI PUSH0 DUP1 REVERT JUMPDEST POP PUSH2 0x4C2 PUSH1 0x4 DUP1 CALLDATASIZE SUB DUP2 ADD SWAP1 PUSH2 0x4BD SWAP2 SWAP1 PUSH2 0x2E07 JUMP JUMPDEST PUSH2 0x10D8 JUMP JUMPDEST PUSH1 0x40 MLOAD PUSH2 0x4CF SWAP2 SWAP1 PUSH2 0x2F54 JUMP JUMPDEST PUSH1 0x40 MLOAD DUP1 SWAP2 SUB SWAP1 RETURN JUMPDEST CALLVALUE DUP1 ISZERO PUSH2 0x4E3 JUMPI PUSH0 DUP1 REVERT JUMPDEST POP PUSH2 0x4EC PUSH2 0x118C JUMP JUMPDEST STOP JUMPDEST CALLVALUE DUP1 ISZERO PUSH2 0x4F9 JUMPI PUSH0 DUP1 REVERT JUMPDEST POP PUSH2 0x502 PUSH2 0x119F JUMP JUMPDEST PUSH1 0x40 MLOAD PUSH2 0x50F SWAP2 SWAP1 PUSH2 0x2D36 JUMP JUMPDEST PUSH1 0x40 MLOAD DUP1 SWAP2 SUB SWAP1 RETURN JUMPDEST CALLVALUE DUP1 ISZERO PUSH2 0x523 JUMPI PUSH0 DUP1 REVERT JUMPDEST POP PUSH2 0x52C PUSH2 0x11C7 JUMP JUMPDEST PUSH1 0x40 MLOAD PUSH2 0x539 SWAP2 SWAP1 PUSH2 0x2C79 JUMP JUMPDEST PUSH1 0x40 MLOAD DUP1 SWAP2 SUB SWAP1 RETURN JUMPDEST CALLVALUE DUP1 ISZERO PUSH2 0x54D JUMPI PUSH0 DUP1 REVERT JUMPDEST POP PUSH2 0x568 PUSH1 0x4 DUP1 CALLDATASIZE SUB DUP2 ADD SWAP1 PUSH2 0x563 SWAP2 SWAP1 PUSH2 0x2DB7 JUMP JUMPDEST PUSH2 0x1257 JUMP JUMPDEST STOP JUMPDEST CALLVALUE DUP1 ISZERO PUSH2 0x575 JUMPI PUSH0 DUP1 REVERT JUMPDEST POP PUSH2 0x57E PUSH2 0x12FB JUMP JUMPDEST PUSH1 0x40 MLOAD PUSH2 0x58B SWAP2 SWAP1 PUSH2 0x2D36 JUMP JUMPDEST PUSH1 0x40 MLOAD DUP1 SWAP2 SUB SWAP1 RETURN JUMPDEST CALLVALUE DUP1 ISZERO PUSH2 0x59F JUMPI PUSH0 DUP1 REVERT JUMPDEST POP PUSH2 0x5BA PUSH1 0x4 DUP1 CALLDATASIZE SUB DUP2 ADD SWAP1 PUSH2 0x5B5 SWAP2 SWAP1 PUSH2 0x2F97 JUMP JUMPDEST PUSH2 0x138F JUMP JUMPDEST STOP JUMPDEST CALLVALUE DUP1 ISZERO PUSH2 0x5C7 JUMPI PUSH0 DUP1 REVERT JUMPDEST POP PUSH2 0x5E2 PUSH1 0x4 DUP1 CALLDATASIZE SUB DUP2 ADD SWAP1 PUSH2 0x5DD SWAP2 SWAP1 PUSH2 0x3101 JUMP JUMPDEST PUSH2 0x13A5 JUMP JUMPDEST STOP JUMPDEST CALLVALUE DUP1 ISZERO PUSH2 0x5EF JUMPI PUSH0 DUP1 REVERT JUMPDEST POP PUSH2 0x60A PUSH1 0x4 DUP1 CALLDATASIZE SUB DUP2 ADD SWAP1 PUSH2 0x605 SWAP2 SWAP1 PUSH2 0x2CCC JUMP JUMPDEST PUSH2 0x1407 JUMP JUMPDEST STOP JUMPDEST CALLVALUE DUP1 ISZERO PUSH2 0x617 JUMPI PUSH0 DUP1 REVERT JUMPDEST POP PUSH2 0x632 PUSH1 0x4 DUP1 CALLDATASIZE SUB DUP2 ADD SWAP1 PUSH2 0x62D SWAP2 SWAP1 PUSH2 0x2CCC JUMP JUMPDEST PUSH2 0x14EA JUMP JUMPDEST PUSH1 0x40 MLOAD PUSH2 0x63F SWAP2 SWAP1 PUSH2 0x2C79 JUMP JUMPDEST PUSH1 0x40 MLOAD DUP1 SWAP2 SUB SWAP1 RETURN JUMPDEST CALLVALUE DUP1 ISZERO PUSH2 0x653 JUMPI PUSH0 DUP1 REVERT JUMPDEST POP PUSH2 0x66E PUSH1 0x4 DUP1 CALLDATASIZE SUB DUP2 ADD SWAP1 PUSH2 0x669 SWAP2 SWAP1 PUSH2 0x2CCC JUMP JUMPDEST PUSH2 0x154F JUMP JUMPDEST STOP JUMPDEST CALLVALUE DUP1 ISZERO PUSH2 0x67B JUMPI PUSH0 DUP1 REVERT JUMPDEST POP PUSH2 0x696 PUSH1 0x4 DUP1 CALLDATASIZE SUB DUP2 ADD SWAP1 PUSH2 0x691 SWAP2 SWAP1 PUSH2 0x2E07 JUMP JUMPDEST PUSH2 0x164C JUMP JUMPDEST PUSH1 0x40 MLOAD PUSH2 0x6A3 SWAP2 SWAP1 PUSH2 0x2F54 JUMP JUMPDEST PUSH1 0x40 MLOAD DUP1 SWAP2 SUB SWAP1 RETURN JUMPDEST CALLVALUE DUP1 ISZERO PUSH2 0x6B7 JUMPI PUSH0 DUP1 REVERT JUMPDEST POP PUSH2 0x6D2 PUSH1 0x4 DUP1 CALLDATASIZE SUB DUP2 ADD SWAP1 PUSH2 0x6CD SWAP2 SWAP1 PUSH2 0x3181 JUMP JUMPDEST PUSH2 0x16ED JUMP JUMPDEST PUSH1 0x40 MLOAD PUSH2 0x6DF SWAP2 SWAP1 PUSH2 0x2BD6 JUMP JUMPDEST PUSH1 0x40 MLOAD DUP1 SWAP2 SUB SWAP1 RETURN JUMPDEST CALLVALUE DUP1 ISZERO PUSH2 0x6F3 JUMPI PUSH0 DUP1 REVERT JUMPDEST POP PUSH2 0x70E PUSH1 0x4 DUP1 CALLDATASIZE SUB DUP2 ADD SWAP1 PUSH2 0x709 SWAP2 SWAP1 PUSH2 0x2E07 JUMP JUMPDEST PUSH2 0x177B JUMP JUMPDEST STOP JUMPDEST CALLVALUE DUP1 ISZERO PUSH2 0x71B JUMPI PUSH0 DUP1 REVERT JUMPDEST POP PUSH2 0x724 PUSH2 0x17FD JUMP JUMPDEST PUSH1 0x40 MLOAD PUSH2 0x731 SWAP2 SWAP1 PUSH2 0x31DF JUMP JUMPDEST PUSH1 0x40 MLOAD DUP1 SWAP2 SUB SWAP1 RETURN JUMPDEST CALLVALUE DUP1 ISZERO PUSH2 0x745 JUMPI PUSH0 DUP1 REVERT JUMPDEST POP PUSH2 0x74E PUSH2 0x1822 JUMP JUMPDEST STOP JUMPDEST PUSH0 PUSH32 0x80AC58CD00000000000000000000000000000000000000000000000000000000 PUSH28 0xFFFFFFFFFFFFFFFFFFFFFFFFFFFFFFFFFFFFFFFFFFFFFFFFFFFFFFFF NOT AND DUP3 PUSH28 0xFFFFFFFFFFFFFFFFFFFFFFFFFFFFFFFFFFFFFFFFFFFFFFFFFFFFFFFF NOT AND EQ DUP1 PUSH2 0x81A JUMPI POP PUSH32 0x5B5E139F00000000000000000000000000000000000000000000000000000000 PUSH28 0xFFFFFFFFFFFFFFFFFFFFFFFFFFFFFFFFFFFFFFFFFFFFFFFFFFFFFFFF NOT AND DUP3 PUSH28 0xFFFFFFFFFFFFFFFFFFFFFFFFFFFFFFFFFFFFFFFFFFFFFFFFFFFFFFFF NOT AND EQ JUMPDEST DUP1 PUSH2 0x82A JUMPI POP PUSH2 0x829 DUP3 PUSH2 0x19DE JUMP JUMPDEST JUMPDEST SWAP1 POP SWAP2 SWAP1 POP JUMP JUMPDEST PUSH1 0x60 PUSH0 DUP1 SLOAD PUSH2 0x83F SWAP1 PUSH2 0x3225 JUMP JUMPDEST DUP1 PUSH1 0x1F ADD PUSH1 0x20 DUP1 SWAP2 DIV MUL PUSH1 0x20 ADD PUSH1 0x40 MLOAD SWAP1 DUP2 ADD PUSH1 0x40 MSTORE DUP1 SWAP3 SWAP2 SWAP1 DUP2 DUP2 MSTORE PUSH1 0x20 ADD DUP3 DUP1 SLOAD PUSH2 0x86B SWAP1 PUSH2 0x3225 JUMP JUMPDEST DUP1 ISZERO PUSH2 0x8B6 JUMPI DUP1 PUSH1 0x1F LT PUSH2 0x88D JUMPI PUSH2 0x100 DUP1 DUP4 SLOAD DIV MUL DUP4 MSTORE SWAP2 PUSH1 0x20 ADD SWAP2 PUSH2 0x8B6 JUMP JUMPDEST DUP3 ADD SWAP2 SWAP1 PUSH0 MSTORE PUSH1 0x20 PUSH0 KECCAK256 SWAP1 JUMPDEST DUP2 SLOAD DUP2 MSTORE SWAP1 PUSH1 0x1 ADD SWAP1 PUSH1 0x20 ADD DUP1 DUP4 GT PUSH2 0x899 JUMPI DUP3 SWAP1 SUB PUSH1 0x1F AND DUP3 ADD SWAP2 JUMPDEST POP POP POP POP POP SWAP1 POP SWAP1 JUMP JUMPDEST PUSH0 PUSH2 0x8CA DUP3 PUSH2 0x1A47 JUMP JUMPDEST PUSH1 0x4 PUSH0 DUP4 DUP2 MSTORE PUSH1 0x20 ADD SWAP1 DUP2 MSTORE PUSH1 0x20 ADD PUSH0 KECCAK256 PUSH0 SWAP1 SLOAD SWAP1 PUSH2 0x100 EXP SWAP1 DIV PUSH20 0xFFFFFFFFFFFFFFFFFFFFFFFFFFFFFFFFFFFFFFFF AND SWAP1 POP SWAP2 SWAP1 POP JUMP JUMPDEST PUSH0 PUSH2 0x90C DUP3 PUSH2 0xE64 JUMP JUMPDEST SWAP1 POP DUP1 PUSH20 0xFFFFFFFFFFFFFFFFFFFFFFFFFFFFFFFFFFFFFFFF AND DUP4 PUSH20 0xFFFFFFFFFFFFFFFFFFFFFFFFFFFFFFFFFFFFFFFF AND SUB PUSH2 0x97C JUMPI PUSH1 0x40 MLOAD PUSH32 0x8C379A000000000000000000000000000000000000000000000000000000000 DUP2 MSTORE PUSH1 0x4 ADD PUSH2 0x973 SWAP1 PUSH2 0x32C5 JUMP JUMPDEST PUSH1 0x40 MLOAD DUP1 SWAP2 SUB SWAP1 REVERT JUMPDEST DUP1 PUSH20 0xFFFFFFFFFFFFFFFFFFFFFFFFFFFFFFFFFFFFFFFF AND PUSH2 0x99B PUSH2 0x1A92 JUMP JUMPDEST PUSH20 0xFFFFFFFFFFFFFFFFFFFFFFFFFFFFFFFFFFFFFFFF AND EQ DUP1 PUSH2 0x9CA JUMPI POP PUSH2 0x9C9 DUP2 PUSH2 0x9C4 PUSH2 0x1A92 JUMP JUMPDEST PUSH2 0x16ED JUMP JUMPDEST JUMPDEST PUSH2 0xA09 JUMPI PUSH1 0x40 MLOAD PUSH32 0x8C379A000000000000000000000000000000000000000000000000000000000 DUP2 MSTORE PUSH1 0x4 ADD PUSH2 0xA00 SWAP1 PUSH2 0x3353 JUMP JUMPDEST PUSH1 0x40 MLOAD DUP1 SWAP2 SUB SWAP1 REVERT JUMPDEST PUSH2 0xA13 DUP4 DUP4 PUSH2 0x1A99 JUMP JUMPDEST POP POP POP JUMP JUMPDEST PUSH0 PUSH1 0xA PUSH0 SWAP1 SLOAD SWAP1 PUSH2 0x100 EXP SWAP1 DIV PUSH20 0xFFFFFFFFFFFFFFFFFFFFFFFFFFFFFFFFFFFFFFFF AND PUSH20 0xFFFFFFFFFFFFFFFFFFFFFFFFFFFFFFFFFFFFFFFF AND PUSH4 0x6F307DC3 PUSH1 0x40 MLOAD DUP2 PUSH4 0xFFFFFFFF AND PUSH1 0xE0 SHL DUP2 MSTORE PUSH1 0x4 ADD PUSH1 0x20 PUSH1 0x40 MLOAD DUP1 DUP4 SUB DUP2 DUP7 GAS STATICCALL ISZERO DUP1 ISZERO PUSH2 0xA83 JUMPI RETURNDATASIZE PUSH0 DUP1 RETURNDATACOPY RETURNDATASIZE PUSH0 REVERT JUMPDEST POP POP POP POP PUSH1 0x40 MLOAD RETURNDATASIZE PUSH1 0x1F NOT PUSH1 0x1F DUP3 ADD AND DUP3 ADD DUP1 PUSH1 0x40 MSTORE POP DUP2 ADD SWAP1 PUSH2 0xAA7 SWAP2 SWAP1 PUSH2 0x3385 JUMP JUMPDEST SWAP1 POP DUP1 PUSH20 0xFFFFFFFFFFFFFFFFFFFFFFFFFFFFFFFFFFFFFFFF AND PUSH4 0x95EA7B3 PUSH1 0xA PUSH0 SWAP1 SLOAD SWAP1 PUSH2 0x100 EXP SWAP1 DIV PUSH20 0xFFFFFFFFFFFFFFFFFFFFFFFFFFFFFFFFFFFFFFFF AND DUP5 PUSH1 0x40 MLOAD DUP4 PUSH4 0xFFFFFFFF AND PUSH1 0xE0 SHL DUP2 MSTORE PUSH1 0x4 ADD PUSH2 0xB05 SWAP3 SWAP2 SWAP1 PUSH2 0x33B0 JUMP JUMPDEST PUSH1 0x20 PUSH1 0x40 MLOAD DUP1 DUP4 SUB DUP2 PUSH0 DUP8 GAS CALL ISZERO DUP1 ISZERO PUSH2 0xB21 JUMPI RETURNDATASIZE PUSH0 DUP1 RETURNDATACOPY RETURNDATASIZE PUSH0 REVERT JUMPDEST POP POP POP POP PUSH1 0x40 MLOAD RETURNDATASIZE PUSH1 0x1F NOT PUSH1 0x1F DUP3 ADD AND DUP3 ADD DUP1 PUSH1 0x40 MSTORE POP DUP2 ADD SWAP1 PUSH2 0xB45 SWAP2 SWAP1 PUSH2 0x33EB JUMP JUMPDEST POP PUSH0 PUSH1 0xA PUSH0 SWAP1 SLOAD SWAP1 PUSH2 0x100 EXP SWAP1 DIV PUSH20 0xFFFFFFFFFFFFFFFFFFFFFFFFFFFFFFFFFFFFFFFF AND PUSH20 0xFFFFFFFFFFFFFFFFFFFFFFFFFFFFFFFFFFFFFFFF AND PUSH4 0xE752702 DUP5 PUSH1 0x40 MLOAD DUP3 PUSH4 0xFFFFFFFF AND PUSH1 0xE0 SHL DUP2 MSTORE PUSH1 0x4 ADD PUSH2 0xBA1 SWAP2 SWAP1 PUSH2 0x2F54 JUMP JUMPDEST PUSH1 0x20 PUSH1 0x40 MLOAD DUP1 DUP4 SUB DUP2 PUSH0 DUP8 GAS CALL ISZERO DUP1 ISZERO PUSH2 0xBBD JUMPI RETURNDATASIZE PUSH0 DUP1 RETURNDATACOPY RETURNDATASIZE PUSH0 REVERT JUMPDEST POP POP POP POP PUSH1 0x40 MLOAD RETURNDATASIZE PUSH1 0x1F NOT PUSH1 0x1F DUP3 ADD AND DUP3 ADD DUP1 PUSH1 0x40 MSTORE POP DUP2 ADD SWAP1 PUSH2 0xBE1 SWAP2 SWAP1 PUSH2 0x342A JUMP JUMPDEST SWAP1 POP PUSH0 DUP2 EQ PUSH2 0xC25 JUMPI PUSH1 0x40 MLOAD PUSH32 0x8C379A000000000000000000000000000000000000000000000000000000000 DUP2 MSTORE PUSH1 0x4 ADD PUSH2 0xC1C SWAP1 PUSH2 0x349F JUMP JUMPDEST PUSH1 0x40 MLOAD DUP1 SWAP2 SUB SWAP1 REVERT JUMPDEST POP POP POP JUMP JUMPDEST PUSH2 0xC3B PUSH2 0xC35 PUSH2 0x1A92 JUMP JUMPDEST DUP3 PUSH2 0x1B4F JUMP JUMPDEST PUSH2 0xC7A JUMPI PUSH1 0x40 MLOAD PUSH32 0x8C379A000000000000000000000000000000000000000000000000000000000 DUP2 MSTORE PUSH1 0x4 ADD PUSH2 0xC71 SWAP1 PUSH2 0x352D JUMP JUMPDEST PUSH1 0x40 MLOAD DUP1 SWAP2 SUB SWAP1 REVERT JUMPDEST PUSH2 0xC85 DUP4 DUP4 DUP4 PUSH2 0x1BE3 JUMP JUMPDEST POP POP POP JUMP JUMPDEST PUSH0 PUSH1 0xA PUSH0 SWAP1 SLOAD SWAP1 PUSH2 0x100 EXP SWAP1 DIV PUSH20 0xFFFFFFFFFFFFFFFFFFFFFFFFFFFFFFFFFFFFFFFF AND PUSH20 0xFFFFFFFFFFFFFFFFFFFFFFFFFFFFFFFFFFFFFFFF AND PUSH4 0xA0712D68 DUP4 PUSH1 0x40 MLOAD DUP3 PUSH4 0xFFFFFFFF AND PUSH1 0xE0 SHL DUP2 MSTORE PUSH1 0x4 ADD PUSH2 0xCE5 SWAP2 SWAP1 PUSH2 0x2F54 JUMP JUMPDEST PUSH1 0x20 PUSH1 0x40 MLOAD DUP1 DUP4 SUB DUP2 PUSH0 DUP8 GAS CALL ISZERO DUP1 ISZERO PUSH2 0xD01 JUMPI RETURNDATASIZE PUSH0 DUP1 RETURNDATACOPY RETURNDATASIZE PUSH0 REVERT JUMPDEST POP POP POP POP PUSH1 0x40 MLOAD RETURNDATASIZE PUSH1 0x1F NOT PUSH1 0x1F DUP3 ADD AND DUP3 ADD DUP1 PUSH1 0x40 MSTORE POP DUP2 ADD SWAP1 PUSH2 0xD25 SWAP2 SWAP1 PUSH2 0x342A JUMP JUMPDEST SWAP1 POP PUSH0 DUP2 EQ PUSH2 0xD69 JUMPI PUSH1 0x40 MLOAD PUSH32 0x8C379A000000000000000000000000000000000000000000000000000000000 DUP2 MSTORE PUSH1 0x4 ADD PUSH2 0xD60 SWAP1 PUSH2 0x3595 JUMP JUMPDEST PUSH1 0x40 MLOAD DUP1 SWAP2 SUB SWAP1 REVERT JUMPDEST DUP2 PUSH1 0xB PUSH0 PUSH1 0x1 PUSH2 0xD77 PUSH2 0x1CE6 JUMP JUMPDEST PUSH2 0xD81 SWAP2 SWAP1 PUSH2 0x35E0 JUMP JUMPDEST DUP2 MSTORE PUSH1 0x20 ADD SWAP1 DUP2 MSTORE PUSH1 0x20 ADD PUSH0 KECCAK256 DUP2 SWAP1 SSTORE POP PUSH2 0xD9B CALLER PUSH2 0xD9F JUMP JUMPDEST POP POP JUMP JUMPDEST PUSH0 PUSH2 0xDAA PUSH1 0x7 PUSH2 0x1CF6 JUMP JUMPDEST SWAP1 POP PUSH2 0xDB6 PUSH1 0x7 PUSH2 0x1D02 JUMP JUMPDEST PUSH2 0xDC0 DUP3 DUP3 PUSH2 0x1D16 JUMP JUMPDEST POP POP JUMP JUMPDEST PUSH2 0xDDE DUP4 DUP4 DUP4 PUSH1 0x40 MLOAD DUP1 PUSH1 0x20 ADD PUSH1 0x40 MSTORE DUP1 PUSH0 DUP2 MSTORE POP PUSH2 0x13A5 JUMP JUMPDEST POP POP POP JUMP JUMPDEST PUSH2 0xDF4 PUSH2 0xDEE PUSH2 0x1A92 JUMP JUMPDEST DUP3 PUSH2 0x1B4F JUMP JUMPDEST PUSH2 0xE33 JUMPI PUSH1 0x40 MLOAD PUSH32 0x8C379A000000000000000000000000000000000000000000000000000000000 DUP2 MSTORE PUSH1 0x4 ADD PUSH2 0xE2A SWAP1 PUSH2 0x352D JUMP JUMPDEST PUSH1 0x40 MLOAD DUP1 SWAP2 SUB SWAP1 REVERT JUMPDEST PUSH2 0xE3C DUP2 PUSH2 0x1D33 JUMP JUMPDEST POP JUMP JUMPDEST PUSH1 0x8 PUSH0 SWAP1 SLOAD SWAP1 PUSH2 0x100 EXP SWAP1 DIV PUSH20 0xFFFFFFFFFFFFFFFFFFFFFFFFFFFFFFFFFFFFFFFF AND DUP2 JUMP JUMPDEST PUSH0 DUP1 PUSH2 0xE6F DUP4 PUSH2 0x1E74 JUMP JUMPDEST SWAP1 POP PUSH0 PUSH20 0xFFFFFFFFFFFFFFFFFFFFFFFFFFFFFFFFFFFFFFFF AND DUP2 PUSH20 0xFFFFFFFFFFFFFFFFFFFFFFFFFFFFFFFFFFFFFFFF AND SUB PUSH2 0xEDF JUMPI PUSH1 0x40 MLOAD PUSH32 0x8C379A000000000000000000000000000000000000000000000000000000000 DUP2 MSTORE PUSH1 0x4 ADD PUSH2 0xED6 SWAP1 PUSH2 0x365D JUMP JUMPDEST PUSH1 0x40 MLOAD DUP1 SWAP2 SUB SWAP1 REVERT JUMPDEST DUP1 SWAP2 POP POP SWAP2 SWAP1 POP JUMP JUMPDEST PUSH1 0x9 PUSH0 SWAP1 SLOAD SWAP1 PUSH2 0x100 EXP SWAP1 DIV PUSH20 0xFFFFFFFFFFFFFFFFFFFFFFFFFFFFFFFFFFFFFFFF AND PUSH20 0xFFFFFFFFFFFFFFFFFFFFFFFFFFFFFFFFFFFFFFFF AND PUSH4 0xA9059CBB DUP4 DUP4 PUSH1 0x40 MLOAD DUP4 PUSH4 0xFFFFFFFF AND PUSH1 0xE0 SHL DUP2 MSTORE PUSH1 0x4 ADD PUSH2 0xF44 SWAP3 SWAP2 SWAP1 PUSH2 0x33B0 JUMP JUMPDEST PUSH1 0x20 PUSH1 0x40 MLOAD DUP1 DUP4 SUB DUP2 PUSH0 DUP8 GAS CALL ISZERO DUP1 ISZERO PUSH2 0xF60 JUMPI RETURNDATASIZE PUSH0 DUP1 RETURNDATACOPY RETURNDATASIZE PUSH0 REVERT JUMPDEST POP POP POP POP PUSH1 0x40 MLOAD RETURNDATASIZE PUSH1 0x1F NOT PUSH1 0x1F DUP3 ADD AND DUP3 ADD DUP1 PUSH1 0x40 MSTORE POP DUP2 ADD SWAP1 PUSH2 0xF84 SWAP2 SWAP1 PUSH2 0x33EB JUMP JUMPDEST POP POP POP JUMP JUMPDEST PUSH1 0xA PUSH0 SWAP1 SLOAD SWAP1 PUSH2 0x100 EXP SWAP1 DIV PUSH20 0xFFFFFFFFFFFFFFFFFFFFFFFFFFFFFFFFFFFFFFFF AND DUP2 JUMP JUMPDEST PUSH0 CALLVALUE GT PUSH2 0xFF0 JUMPI PUSH1 0x40 MLOAD PUSH32 0x8C379A000000000000000000000000000000000000000000000000000000000 DUP2 MSTORE PUSH1 0x4 ADD PUSH2 0xFE7 SWAP1 PUSH2 0x36C5 JUMP JUMPDEST PUSH1 0x40 MLOAD DUP1 SWAP2 SUB SWAP1 REVERT JUMPDEST DUP1 PUSH20 0xFFFFFFFFFFFFFFFFFFFFFFFFFFFFFFFFFFFFFFFF AND PUSH2 0x8FC CALLVALUE SWAP1 DUP2 ISZERO MUL SWAP1 PUSH1 0x40 MLOAD PUSH0 PUSH1 0x40 MLOAD DUP1 DUP4 SUB DUP2 DUP6 DUP9 DUP9 CALL SWAP4 POP POP POP POP ISZERO DUP1 ISZERO PUSH2 0x1033 JUMPI RETURNDATASIZE PUSH0 DUP1 RETURNDATACOPY RETURNDATASIZE PUSH0 REVERT JUMPDEST POP POP JUMP JUMPDEST PUSH1 0x9 PUSH0 SWAP1 SLOAD SWAP1 PUSH2 0x100 EXP SWAP1 DIV PUSH20 0xFFFFFFFFFFFFFFFFFFFFFFFFFFFFFFFFFFFFFFFF AND PUSH20 0xFFFFFFFFFFFFFFFFFFFFFFFFFFFFFFFFFFFFFFFF AND PUSH4 0x95EA7B3 DUP4 DUP4 PUSH1 0x40 MLOAD DUP4 PUSH4 0xFFFFFFFF AND PUSH1 0xE0 SHL DUP2 MSTORE PUSH1 0x4 ADD PUSH2 0x1093 SWAP3 SWAP2 SWAP1 PUSH2 0x33B0 JUMP JUMPDEST PUSH1 0x20 PUSH1 0x40 MLOAD DUP1 DUP4 SUB DUP2 PUSH0 DUP8 GAS CALL ISZERO DUP1 ISZERO PUSH2 0x10AF JUMPI RETURNDATASIZE PUSH0 DUP1 RETURNDATACOPY RETURNDATASIZE PUSH0 REVERT JUMPDEST POP POP POP POP PUSH1 0x40 MLOAD RETURNDATASIZE PUSH1 0x1F NOT PUSH1 0x1F DUP3 ADD AND DUP3 ADD DUP1 PUSH1 0x40 MSTORE POP DUP2 ADD SWAP1 PUSH2 0x10D3 SWAP2 SWAP1 PUSH2 0x33EB JUMP JUMPDEST POP POP POP JUMP JUMPDEST PUSH0 DUP1 PUSH20 0xFFFFFFFFFFFFFFFFFFFFFFFFFFFFFFFFFFFFFFFF AND DUP3 PUSH20 0xFFFFFFFFFFFFFFFFFFFFFFFFFFFFFFFFFFFFFFFF AND SUB PUSH2 0x1147 JUMPI PUSH1 0x40 MLOAD PUSH32 0x8C379A000000000000000000000000000000000000000000000000000000000 DUP2 MSTORE PUSH1 0x4 ADD PUSH2 0x113E SWAP1 PUSH2 0x3753 JUMP JUMPDEST PUSH1 0x40 MLOAD DUP1 SWAP2 SUB SWAP1 REVERT JUMPDEST PUSH1 0x3 PUSH0 DUP4 PUSH20 0xFFFFFFFFFFFFFFFFFFFFFFFFFFFFFFFFFFFFFFFF AND PUSH20 0xFFFFFFFFFFFFFFFFFFFFFFFFFFFFFFFFFFFFFFFF AND DUP2 MSTORE PUSH1 0x20 ADD SWAP1 DUP2 MSTORE PUSH1 0x20 ADD PUSH0 KECCAK256 SLOAD SWAP1 POP SWAP2 SWAP1 POP JUMP JUMPDEST PUSH2 0x1194 PUSH2 0x1EAD JUMP JUMPDEST PUSH2 0x119D PUSH0 PUSH2 0x1F2B JUMP JUMPDEST JUMP JUMPDEST PUSH0 PUSH1 0x6 PUSH0 SWAP1 SLOAD SWAP1 PUSH2 0x100 EXP SWAP1 DIV PUSH20 0xFFFFFFFFFFFFFFFFFFFFFFFFFFFFFFFFFFFFFFFF AND SWAP1 POP SWAP1 JUMP JUMPDEST PUSH1 0x60 PUSH1 0x1 DUP1 SLOAD PUSH2 0x11D6 SWAP1 PUSH2 0x3225 JUMP JUMPDEST DUP1 PUSH1 0x1F ADD PUSH1 0x20 DUP1 SWAP2 DIV MUL PUSH1 0x20 ADD PUSH1 0x40 MLOAD SWAP1 DUP2 ADD PUSH1 0x40 MSTORE DUP1 SWAP3 SWAP2 SWAP1 DUP2 DUP2 MSTORE PUSH1 0x20 ADD DUP3 DUP1 SLOAD PUSH2 0x1202 SWAP1 PUSH2 0x3225 JUMP JUMPDEST DUP1 ISZERO PUSH2 0x124D JUMPI DUP1 PUSH1 0x1F LT PUSH2 0x1224 JUMPI PUSH2 0x100 DUP1 DUP4 SLOAD DIV MUL DUP4 MSTORE SWAP2 PUSH1 0x20 ADD SWAP2 PUSH2 0x124D JUMP JUMPDEST DUP3 ADD SWAP2 SWAP1 PUSH0 MSTORE PUSH1 0x20 PUSH0 KECCAK256 SWAP1 JUMPDEST DUP2 SLOAD DUP2 MSTORE SWAP1 PUSH1 0x1 ADD SWAP1 PUSH1 0x20 ADD DUP1 DUP4 GT PUSH2 0x1230 JUMPI DUP3 SWAP1 SUB PUSH1 0x1F AND DUP3 ADD SWAP2 JUMPDEST POP POP POP POP POP SWAP1 POP SWAP1 JUMP JUMPDEST PUSH1 0x9 PUSH0 SWAP1 SLOAD SWAP1 PUSH2 0x100 EXP SWAP1 DIV PUSH20 0xFFFFFFFFFFFFFFFFFFFFFFFFFFFFFFFFFFFFFFFF AND PUSH20 0xFFFFFFFFFFFFFFFFFFFFFFFFFFFFFFFFFFFFFFFF AND PUSH4 0x23B872DD DUP5 DUP5 DUP5 PUSH1 0x40 MLOAD DUP5 PUSH4 0xFFFFFFFF AND PUSH1 0xE0 SHL DUP2 MSTORE PUSH1 0x4 ADD PUSH2 0x12B5 SWAP4 SWAP3 SWAP2 SWAP1 PUSH2 0x3771 JUMP JUMPDEST PUSH1 0x20 PUSH1 0x40 MLOAD DUP1 DUP4 SUB DUP2 PUSH0 DUP8 GAS CALL ISZERO DUP1 ISZERO PUSH2 0x12D1 JUMPI RETURNDATASIZE PUSH0 DUP1 RETURNDATACOPY RETURNDATASIZE PUSH0 REVERT JUMPDEST POP POP POP POP PUSH1 0x40 MLOAD RETURNDATASIZE PUSH1 0x1F NOT PUSH1 0x1F DUP3 ADD AND DUP3 ADD DUP1 PUSH1 0x40 MSTORE POP DUP2 ADD SWAP1 PUSH2 0x12F5 SWAP2 SWAP1 PUSH2 0x33EB JUMP JUMPDEST POP POP POP POP JUMP JUMPDEST PUSH0 PUSH1 0xA PUSH0 SWAP1 SLOAD SWAP1 PUSH2 0x100 EXP SWAP1 DIV PUSH20 0xFFFFFFFFFFFFFFFFFFFFFFFFFFFFFFFFFFFFFFFF AND PUSH20 0xFFFFFFFFFFFFFFFFFFFFFFFFFFFFFFFFFFFFFFFF AND PUSH4 0x6F307DC3 PUSH1 0x40 MLOAD DUP2 PUSH4 0xFFFFFFFF AND PUSH1 0xE0 SHL DUP2 MSTORE PUSH1 0x4 ADD PUSH1 0x20 PUSH1 0x40 MLOAD DUP1 DUP4 SUB DUP2 DUP7 GAS STATICCALL ISZERO DUP1 ISZERO PUSH2 0x1366 JUMPI RETURNDATASIZE PUSH0 DUP1 RETURNDATACOPY RETURNDATASIZE PUSH0 REVERT JUMPDEST POP POP POP POP PUSH1 0x40 MLOAD RETURNDATASIZE PUSH1 0x1F NOT PUSH1 0x1F DUP3 ADD AND DUP3 ADD DUP1 PUSH1 0x40 MSTORE POP DUP2 ADD SWAP1 PUSH2 0x138A SWAP2 SWAP1 PUSH2 0x3385 JUMP JUMPDEST SWAP1 POP SWAP1 JUMP JUMPDEST PUSH2 0x13A1 PUSH2 0x139A PUSH2 0x1A92 JUMP JUMPDEST DUP4 DUP4 PUSH2 0x1FEE JUMP JUMPDEST POP POP JUMP JUMPDEST PUSH2 0x13B6 PUSH2 0x13B0 PUSH2 0x1A92 JUMP JUMPDEST DUP4 PUSH2 0x1B4F JUMP JUMPDEST PUSH2 0x13F5 JUMPI PUSH1 0x40 MLOAD PUSH32 0x8C379A000000000000000000000000000000000000000000000000000000000 DUP2 MSTORE PUSH1 0x4 ADD PUSH2 0x13EC SWAP1 PUSH2 0x352D JUMP JUMPDEST PUSH1 0x40 MLOAD DUP1 SWAP2 SUB SWAP1 REVERT JUMPDEST PUSH2 0x1401 DUP5 DUP5 DUP5 DUP5 PUSH2 0x2155 JUMP JUMPDEST POP POP POP POP JUMP JUMPDEST PUSH0 PUSH1 0xA PUSH0 SWAP1 SLOAD SWAP1 PUSH2 0x100 EXP SWAP1 DIV PUSH20 0xFFFFFFFFFFFFFFFFFFFFFFFFFFFFFFFFFFFFFFFF AND PUSH20 0xFFFFFFFFFFFFFFFFFFFFFFFFFFFFFFFFFFFFFFFF AND PUSH4 0xC5EBEAEC DUP4 PUSH1 0x40 MLOAD DUP3 PUSH4 0xFFFFFFFF AND PUSH1 0xE0 SHL DUP2 MSTORE PUSH1 0x4 ADD PUSH2 0x1462 SWAP2 SWAP1 PUSH2 0x2F54 JUMP JUMPDEST PUSH1 0x20 PUSH1 0x40 MLOAD DUP1 DUP4 SUB DUP2 PUSH0 DUP8 GAS CALL ISZERO DUP1 ISZERO PUSH2 0x147E JUMPI RETURNDATASIZE PUSH0 DUP1 RETURNDATACOPY RETURNDATASIZE PUSH0 REVERT JUMPDEST POP POP POP POP PUSH1 0x40 MLOAD RETURNDATASIZE PUSH1 0x1F NOT PUSH1 0x1F DUP3 ADD AND DUP3 ADD DUP1 PUSH1 0x40 MSTORE POP DUP2 ADD SWAP1 PUSH2 0x14A2 SWAP2 SWAP1 PUSH2 0x342A JUMP JUMPDEST SWAP1 POP PUSH0 DUP2 EQ PUSH2 0x14E6 JUMPI PUSH1 0x40 MLOAD PUSH32 0x8C379A000000000000000000000000000000000000000000000000000000000 DUP2 MSTORE PUSH1 0x4 ADD PUSH2 0x14DD SWAP1 PUSH2 0x37F0 JUMP JUMPDEST PUSH1 0x40 MLOAD DUP1 SWAP2 SUB SWAP1 REVERT JUMPDEST POP POP JUMP JUMPDEST PUSH1 0x60 PUSH2 0x14F5 DUP3 PUSH2 0x1A47 JUMP JUMPDEST PUSH0 PUSH2 0x14FE PUSH2 0x21B1 JUMP JUMPDEST SWAP1 POP PUSH0 DUP2 MLOAD GT PUSH2 0x151C JUMPI PUSH1 0x40 MLOAD DUP1 PUSH1 0x20 ADD PUSH1 0x40 MSTORE DUP1 PUSH0 DUP2 MSTORE POP PUSH2 0x1547 JUMP JUMPDEST DUP1 PUSH2 0x1526 DUP5 PUSH2 0x21C7 JUMP JUMPDEST PUSH1 0x40 MLOAD PUSH1 0x20 ADD PUSH2 0x1537 SWAP3 SWAP2 SWAP1 PUSH2 0x3848 JUMP JUMPDEST PUSH1 0x40 MLOAD PUSH1 0x20 DUP2 DUP4 SUB SUB DUP2 MSTORE SWAP1 PUSH1 0x40 MSTORE JUMPDEST SWAP2 POP POP SWAP2 SWAP1 POP JUMP JUMPDEST PUSH0 PUSH1 0xA PUSH0 SWAP1 SLOAD SWAP1 PUSH2 0x100 EXP SWAP1 DIV PUSH20 0xFFFFFFFFFFFFFFFFFFFFFFFFFFFFFFFFFFFFFFFF AND PUSH20 0xFFFFFFFFFFFFFFFFFFFFFFFFFFFFFFFFFFFFFFFF AND PUSH4 0xDB006A75 PUSH1 0xB PUSH0 DUP6 DUP2 MSTORE PUSH1 0x20 ADD SWAP1 DUP2 MSTORE PUSH1 0x20 ADD PUSH0 KECCAK256 SLOAD PUSH1 0x40 MLOAD DUP3 PUSH4 0xFFFFFFFF AND PUSH1 0xE0 SHL DUP2 MSTORE PUSH1 0x4 ADD PUSH2 0x15BB SWAP2 SWAP1 PUSH2 0x2F54 JUMP JUMPDEST PUSH1 0x20 PUSH1 0x40 MLOAD DUP1 DUP4 SUB DUP2 PUSH0 DUP8 GAS CALL ISZERO DUP1 ISZERO PUSH2 0x15D7 JUMPI RETURNDATASIZE PUSH0 DUP1 RETURNDATACOPY RETURNDATASIZE PUSH0 REVERT JUMPDEST POP POP POP POP PUSH1 0x40 MLOAD RETURNDATASIZE PUSH1 0x1F NOT PUSH1 0x1F DUP3 ADD AND DUP3 ADD DUP1 PUSH1 0x40 MSTORE POP DUP2 ADD SWAP1 PUSH2 0x15FB SWAP2 SWAP1 PUSH2 0x342A JUMP JUMPDEST SWAP1 POP PUSH0 DUP2 EQ PUSH2 0x163F JUMPI PUSH1 0x40 MLOAD PUSH32 0x8C379A000000000000000000000000000000000000000000000000000000000 DUP2 MSTORE PUSH1 0x4 ADD PUSH2 0x1636 SWAP1 PUSH2 0x38B5 JUMP JUMPDEST PUSH1 0x40 MLOAD DUP1 SWAP2 SUB SWAP1 REVERT JUMPDEST PUSH2 0x1648 DUP3 PUSH2 0x1D33 JUMP JUMPDEST POP POP JUMP JUMPDEST PUSH0 PUSH1 0x9 PUSH0 SWAP1 SLOAD SWAP1 PUSH2 0x100 EXP SWAP1 DIV PUSH20 0xFFFFFFFFFFFFFFFFFFFFFFFFFFFFFFFFFFFFFFFF AND PUSH20 0xFFFFFFFFFFFFFFFFFFFFFFFFFFFFFFFFFFFFFFFF AND PUSH4 0x70A08231 DUP4 PUSH1 0x40 MLOAD DUP3 PUSH4 0xFFFFFFFF AND PUSH1 0xE0 SHL DUP2 MSTORE PUSH1 0x4 ADD PUSH2 0x16A7 SWAP2 SWAP1 PUSH2 0x2D36 JUMP JUMPDEST PUSH1 0x20 PUSH1 0x40 MLOAD DUP1 DUP4 SUB DUP2 DUP7 GAS STATICCALL ISZERO DUP1 ISZERO PUSH2 0x16C2 JUMPI RETURNDATASIZE PUSH0 DUP1 RETURNDATACOPY RETURNDATASIZE PUSH0 REVERT JUMPDEST POP POP POP POP PUSH1 0x40 MLOAD RETURNDATASIZE PUSH1 0x1F NOT PUSH1 0x1F DUP3 ADD AND DUP3 ADD DUP1 PUSH1 0x40 MSTORE POP DUP2 ADD SWAP1 PUSH2 0x16E6 SWAP2 SWAP1 PUSH2 0x342A JUMP JUMPDEST SWAP1 POP SWAP2 SWAP1 POP JUMP JUMPDEST PUSH0 PUSH1 0x5 PUSH0 DUP5 PUSH20 0xFFFFFFFFFFFFFFFFFFFFFFFFFFFFFFFFFFFFFFFF AND PUSH20 0xFFFFFFFFFFFFFFFFFFFFFFFFFFFFFFFFFFFFFFFF AND DUP2 MSTORE PUSH1 0x20 ADD SWAP1 DUP2 MSTORE PUSH1 0x20 ADD PUSH0 KECCAK256 PUSH0 DUP4 PUSH20 0xFFFFFFFFFFFFFFFFFFFFFFFFFFFFFFFFFFFFFFFF AND PUSH20 0xFFFFFFFFFFFFFFFFFFFFFFFFFFFFFFFFFFFFFFFF AND DUP2 MSTORE PUSH1 0x20 ADD SWAP1 DUP2 MSTORE PUSH1 0x20 ADD PUSH0 KECCAK256 PUSH0 SWAP1 SLOAD SWAP1 PUSH2 0x100 EXP SWAP1 DIV PUSH1 0xFF AND SWAP1 POP SWAP3 SWAP2 POP POP JUMP JUMPDEST PUSH2 0x1783 PUSH2 0x1EAD JUMP JUMPDEST PUSH0 PUSH20 0xFFFFFFFFFFFFFFFFFFFFFFFFFFFFFFFFFFFFFFFF AND DUP2 PUSH20 0xFFFFFFFFFFFFFFFFFFFFFFFFFFFFFFFFFFFFFFFF AND SUB PUSH2 0x17F1 JUMPI PUSH1 0x40 MLOAD PUSH32 0x8C379A000000000000000000000000000000000000000000000000000000000 DUP2 MSTORE PUSH1 0x4 ADD PUSH2 0x17E8 SWAP1 PUSH2 0x3943 JUMP JUMPDEST PUSH1 0x40 MLOAD DUP1 SWAP2 SUB SWAP1 REVERT JUMPDEST PUSH2 0x17FA DUP2 PUSH2 0x1F2B JUMP JUMPDEST POP JUMP JUMPDEST PUSH1 0x9 PUSH0 SWAP1 SLOAD SWAP1 PUSH2 0x100 EXP SWAP1 DIV PUSH20 0xFFFFFFFFFFFFFFFFFFFFFFFFFFFFFFFFFFFFFFFF AND DUP2 JUMP JUMPDEST PUSH0 PUSH1 0x1 PUSH8 0xFFFFFFFFFFFFFFFF DUP2 GT ISZERO PUSH2 0x183E JUMPI PUSH2 0x183D PUSH2 0x2FDD JUMP JUMPDEST JUMPDEST PUSH1 0x40 MLOAD SWAP1 DUP1 DUP3 MSTORE DUP1 PUSH1 0x20 MUL PUSH1 0x20 ADD DUP3 ADD PUSH1 0x40 MSTORE DUP1 ISZERO PUSH2 0x186C JUMPI DUP2 PUSH1 0x20 ADD PUSH1 0x20 DUP3 MUL DUP1 CALLDATASIZE DUP4 CALLDATACOPY DUP1 DUP3 ADD SWAP2 POP POP SWAP1 POP JUMPDEST POP SWAP1 POP PUSH1 0xA PUSH0 SWAP1 SLOAD SWAP1 PUSH2 0x100 EXP SWAP1 DIV PUSH20 0xFFFFFFFFFFFFFFFFFFFFFFFFFFFFFFFFFFFFFFFF AND DUP2 PUSH0 DUP2 MLOAD DUP2 LT PUSH2 0x18A4 JUMPI PUSH2 0x18A3 PUSH2 0x3961 JUMP JUMPDEST JUMPDEST PUSH1 0x20 MUL PUSH1 0x20 ADD ADD SWAP1 PUSH20 0xFFFFFFFFFFFFFFFFFFFFFFFFFFFFFFFFFFFFFFFF AND SWAP1 DUP2 PUSH20 0xFFFFFFFFFFFFFFFFFFFFFFFFFFFFFFFFFFFFFFFF AND DUP2 MSTORE POP POP PUSH0 PUSH1 0x8 PUSH0 SWAP1 SLOAD SWAP1 PUSH2 0x100 EXP SWAP1 DIV PUSH20 0xFFFFFFFFFFFFFFFFFFFFFFFFFFFFFFFFFFFFFFFF AND PUSH20 0xFFFFFFFFFFFFFFFFFFFFFFFFFFFFFFFFFFFFFFFF AND PUSH4 0xC2998238 DUP4 PUSH1 0x40 MLOAD DUP3 PUSH4 0xFFFFFFFF AND PUSH1 0xE0 SHL DUP2 MSTORE PUSH1 0x4 ADD PUSH2 0x1939 SWAP2 SWAP1 PUSH2 0x3A45 JUMP JUMPDEST PUSH0 PUSH1 0x40 MLOAD DUP1 DUP4 SUB DUP2 PUSH0 DUP8 GAS CALL ISZERO DUP1 ISZERO PUSH2 0x1954 JUMPI RETURNDATASIZE PUSH0 DUP1 RETURNDATACOPY RETURNDATASIZE PUSH0 REVERT JUMPDEST POP POP POP POP PUSH1 0x40 MLOAD RETURNDATASIZE PUSH0 DUP3 RETURNDATACOPY RETURNDATASIZE PUSH1 0x1F NOT PUSH1 0x1F DUP3 ADD AND DUP3 ADD DUP1 PUSH1 0x40 MSTORE POP DUP2 ADD SWAP1 PUSH2 0x197C SWAP2 SWAP1 PUSH2 0x3B29 JUMP JUMPDEST SWAP1 POP PUSH0 DUP2 PUSH0 DUP2 MLOAD DUP2 LT PUSH2 0x1992 JUMPI PUSH2 0x1991 PUSH2 0x3961 JUMP JUMPDEST JUMPDEST PUSH1 0x20 MUL PUSH1 0x20 ADD ADD MLOAD EQ PUSH2 0x19DA JUMPI PUSH1 0x40 MLOAD PUSH32 0x8C379A000000000000000000000000000000000000000000000000000000000 DUP2 MSTORE PUSH1 0x4 ADD PUSH2 0x19D1 SWAP1 PUSH2 0x3BBA JUMP JUMPDEST PUSH1 0x40 MLOAD DUP1 SWAP2 SUB SWAP1 REVERT JUMPDEST POP POP JUMP JUMPDEST PUSH0 PUSH32 0x1FFC9A700000000000000000000000000000000000000000000000000000000 PUSH28 0xFFFFFFFFFFFFFFFFFFFFFFFFFFFFFFFFFFFFFFFFFFFFFFFFFFFFFFFF NOT AND DUP3 PUSH28 0xFFFFFFFFFFFFFFFFFFFFFFFFFFFFFFFFFFFFFFFFFFFFFFFFFFFFFFFF NOT AND EQ SWAP1 POP SWAP2 SWAP1 POP JUMP JUMPDEST PUSH2 0x1A50 DUP2 PUSH2 0x2291 JUMP JUMPDEST PUSH2 0x1A8F JUMPI PUSH1 0x40 MLOAD PUSH32 0x8C379A000000000000000000000000000000000000000000000000000000000 DUP2 MSTORE PUSH1 0x4 ADD PUSH2 0x1A86 SWAP1 PUSH2 0x365D JUMP JUMPDEST PUSH1 0x40 MLOAD DUP1 SWAP2 SUB SWAP1 REVERT JUMPDEST POP JUMP JUMPDEST PUSH0 CALLER SWAP1 POP SWAP1 JUMP JUMPDEST DUP2 PUSH1 0x4 PUSH0 DUP4 DUP2 MSTORE PUSH1 0x20 ADD SWAP1 DUP2 MSTORE PUSH1 0x20 ADD PUSH0 KECCAK256 PUSH0 PUSH2 0x100 EXP DUP2 SLOAD DUP2 PUSH20 0xFFFFFFFFFFFFFFFFFFFFFFFFFFFFFFFFFFFFFFFF MUL NOT AND SWAP1 DUP4 PUSH20 0xFFFFFFFFFFFFFFFFFFFFFFFFFFFFFFFFFFFFFFFF AND MUL OR SWAP1 SSTORE POP DUP1 DUP3 PUSH20 0xFFFFFFFFFFFFFFFFFFFFFFFFFFFFFFFFFFFFFFFF AND PUSH2 0x1B09 DUP4 PUSH2 0xE64 JUMP JUMPDEST PUSH20 0xFFFFFFFFFFFFFFFFFFFFFFFFFFFFFFFFFFFFFFFF AND PUSH32 0x8C5BE1E5EBEC7D5BD14F71427D1E84F3DD0314C0F7B2291E5B200AC8C7C3B925 PUSH1 0x40 MLOAD PUSH1 0x40 MLOAD DUP1 SWAP2 SUB SWAP1 LOG4 POP POP JUMP JUMPDEST PUSH0 DUP1 PUSH2 0x1B5A DUP4 PUSH2 0xE64 JUMP JUMPDEST SWAP1 POP DUP1 PUSH20 0xFFFFFFFFFFFFFFFFFFFFFFFFFFFFFFFFFFFFFFFF AND DUP5 PUSH20 0xFFFFFFFFFFFFFFFFFFFFFFFFFFFFFFFFFFFFFFFF AND EQ DUP1 PUSH2 0x1B9C JUMPI POP PUSH2 0x1B9B DUP2 DUP6 PUSH2 0x16ED JUMP JUMPDEST JUMPDEST DUP1 PUSH2 0x1BDA JUMPI POP DUP4 PUSH20 0xFFFFFFFFFFFFFFFFFFFFFFFFFFFFFFFFFFFFFFFF AND PUSH2 0x1BC2 DUP5 PUSH2 0x8C0 JUMP JUMPDEST PUSH20 0xFFFFFFFFFFFFFFFFFFFFFFFFFFFFFFFFFFFFFFFF AND EQ JUMPDEST SWAP2 POP POP SWAP3 SWAP2 POP POP JUMP JUMPDEST PUSH0 PUSH1 0xA PUSH0 SWAP1 SLOAD SWAP1 PUSH2 0x100 EXP SWAP1 DIV PUSH20 0xFFFFFFFFFFFFFFFFFFFFFFFFFFFFFFFFFFFFFFFF AND PUSH20 0xFFFFFFFFFFFFFFFFFFFFFFFFFFFFFFFFFFFFFFFF AND PUSH4 0x23B872DD DUP6 DUP6 PUSH1 0xB PUSH0 DUP8 DUP2 MSTORE PUSH1 0x20 ADD SWAP1 DUP2 MSTORE PUSH1 0x20 ADD PUSH0 KECCAK256 SLOAD PUSH1 0x40 MLOAD DUP5 PUSH4 0xFFFFFFFF AND PUSH1 0xE0 SHL DUP2 MSTORE PUSH1 0x4 ADD PUSH2 0x1C53 SWAP4 SWAP3 SWAP2 SWAP1 PUSH2 0x3771 JUMP JUMPDEST PUSH1 0x20 PUSH1 0x40 MLOAD DUP1 DUP4 SUB DUP2 PUSH0 DUP8 GAS CALL ISZERO DUP1 ISZERO PUSH2 0x1C6F JUMPI RETURNDATASIZE PUSH0 DUP1 RETURNDATACOPY RETURNDATASIZE PUSH0 REVERT JUMPDEST POP POP POP POP PUSH1 0x40 MLOAD RETURNDATASIZE PUSH1 0x1F NOT PUSH1 0x1F DUP3 ADD AND DUP3 ADD DUP1 PUSH1 0x40 MSTORE POP DUP2 ADD SWAP1 PUSH2 0x1C93 SWAP2 SWAP1 PUSH2 0x33EB JUMP JUMPDEST SWAP1 POP DUP1 PUSH2 0x1CD5 JUMPI PUSH1 0x40 MLOAD PUSH32 0x8C379A000000000000000000000000000000000000000000000000000000000 DUP2 MSTORE PUSH1 0x4 ADD PUSH2 0x1CCC SWAP1 PUSH2 0x3C22 JUMP JUMPDEST PUSH1 0x40 MLOAD DUP1 SWAP2 SUB SWAP1 REVERT JUMPDEST PUSH2 0x1CE0 DUP5 DUP5 DUP5 PUSH2 0x22D1 JUMP JUMPDEST POP POP POP POP JUMP JUMPDEST PUSH0 PUSH2 0x1CF1 PUSH1 0x7 PUSH2 0x1CF6 JUMP JUMPDEST SWAP1 POP SWAP1 JUMP JUMPDEST PUSH0 DUP2 PUSH0 ADD SLOAD SWAP1 POP SWAP2 SWAP1 POP JUMP JUMPDEST PUSH1 0x1 DUP2 PUSH0 ADD PUSH0 DUP3 DUP3 SLOAD ADD SWAP3 POP POP DUP2 SWAP1 SSTORE POP POP JUMP JUMPDEST PUSH2 0x1D2F DUP3 DUP3 PUSH1 0x40 MLOAD DUP1 PUSH1 0x20 ADD PUSH1 0x40 MSTORE DUP1 PUSH0 DUP2 MSTORE POP PUSH2 0x25BD JUMP JUMPDEST POP POP JUMP JUMPDEST PUSH0 PUSH2 0x1D3D DUP3 PUSH2 0xE64 JUMP JUMPDEST SWAP1 POP PUSH2 0x1D4C DUP2 PUSH0 DUP5 PUSH1 0x1 PUSH2 0x2617 JUMP JUMPDEST PUSH2 0x1D55 DUP3 PUSH2 0xE64 JUMP JUMPDEST SWAP1 POP PUSH1 0x4 PUSH0 DUP4 DUP2 MSTORE PUSH1 0x20 ADD SWAP1 DUP2 MSTORE PUSH1 0x20 ADD PUSH0 KECCAK256 PUSH0 PUSH2 0x100 EXP DUP2 SLOAD SWAP1 PUSH20 0xFFFFFFFFFFFFFFFFFFFFFFFFFFFFFFFFFFFFFFFF MUL NOT AND SWAP1 SSTORE PUSH1 0x1 PUSH1 0x3 PUSH0 DUP4 PUSH20 0xFFFFFFFFFFFFFFFFFFFFFFFFFFFFFFFFFFFFFFFF AND PUSH20 0xFFFFFFFFFFFFFFFFFFFFFFFFFFFFFFFFFFFFFFFF AND DUP2 MSTORE PUSH1 0x20 ADD SWAP1 DUP2 MSTORE PUSH1 0x20 ADD PUSH0 KECCAK256 PUSH0 DUP3 DUP3 SLOAD SUB SWAP3 POP POP DUP2 SWAP1 SSTORE POP PUSH1 0x2 PUSH0 DUP4 DUP2 MSTORE PUSH1 0x20 ADD SWAP1 DUP2 MSTORE PUSH1 0x20 ADD PUSH0 KECCAK256 PUSH0 PUSH2 0x100 EXP DUP2 SLOAD SWAP1 PUSH20 0xFFFFFFFFFFFFFFFFFFFFFFFFFFFFFFFFFFFFFFFF MUL NOT AND SWAP1 SSTORE DUP2 PUSH0 PUSH20 0xFFFFFFFFFFFFFFFFFFFFFFFFFFFFFFFFFFFFFFFF AND DUP3 PUSH20 0xFFFFFFFFFFFFFFFFFFFFFFFFFFFFFFFFFFFFFFFF AND PUSH32 0xDDF252AD1BE2C89B69C2B068FC378DAA952BA7F163C4A11628F55A4DF523B3EF PUSH1 0x40 MLOAD PUSH1 0x40 MLOAD DUP1 SWAP2 SUB SWAP1 LOG4 PUSH2 0x1E70 DUP2 PUSH0 DUP5 PUSH1 0x1 PUSH2 0x261D JUMP JUMPDEST POP POP JUMP JUMPDEST PUSH0 PUSH1 0x2 PUSH0 DUP4 DUP2 MSTORE PUSH1 0x20 ADD SWAP1 DUP2 MSTORE PUSH1 0x20 ADD PUSH0 KECCAK256 PUSH0 SWAP1 SLOAD SWAP1 PUSH2 0x100 EXP SWAP1 DIV PUSH20 0xFFFFFFFFFFFFFFFFFFFFFFFFFFFFFFFFFFFFFFFF AND SWAP1 POP SWAP2 SWAP1 POP JUMP JUMPDEST PUSH2 0x1EB5 PUSH2 0x1A92 JUMP JUMPDEST PUSH20 0xFFFFFFFFFFFFFFFFFFFFFFFFFFFFFFFFFFFFFFFF AND PUSH2 0x1ED3 PUSH2 0x119F JUMP JUMPDEST PUSH20 0xFFFFFFFFFFFFFFFFFFFFFFFFFFFFFFFFFFFFFFFF AND EQ PUSH2 0x1F29 JUMPI PUSH1 0x40 MLOAD PUSH32 0x8C379A000000000000000000000000000000000000000000000000000000000 DUP2 MSTORE PUSH1 0x4 ADD PUSH2 0x1F20 SWAP1 PUSH2 0x3C8A JUMP JUMPDEST PUSH1 0x40 MLOAD DUP1 SWAP2 SUB SWAP1 REVERT JUMPDEST JUMP JUMPDEST PUSH0 PUSH1 0x6 PUSH0 SWAP1 SLOAD SWAP1 PUSH2 0x100 EXP SWAP1 DIV PUSH20 0xFFFFFFFFFFFFFFFFFFFFFFFFFFFFFFFFFFFFFFFF AND SWAP1 POP DUP2 PUSH1 0x6 PUSH0 PUSH2 0x100 EXP DUP2 SLOAD DUP2 PUSH20 0xFFFFFFFFFFFFFFFFFFFFFFFFFFFFFFFFFFFFFFFF MUL NOT AND SWAP1 DUP4 PUSH20 0xFFFFFFFFFFFFFFFFFFFFFFFFFFFFFFFFFFFFFFFF AND MUL OR SWAP1 SSTORE POP DUP2 PUSH20 0xFFFFFFFFFFFFFFFFFFFFFFFFFFFFFFFFFFFFFFFF AND DUP2 PUSH20 0xFFFFFFFFFFFFFFFFFFFFFFFFFFFFFFFFFFFFFFFF AND PUSH32 0x8BE0079C531659141344CD1FD0A4F28419497F9722A3DAAFE3B4186F6B6457E0 PUSH1 0x40 MLOAD PUSH1 0x40 MLOAD DUP1 SWAP2 SUB SWAP1 LOG3 POP POP JUMP JUMPDEST DUP2 PUSH20 0xFFFFFFFFFFFFFFFFFFFFFFFFFFFFFFFFFFFFFFFF AND DUP4 PUSH20 0xFFFFFFFFFFFFFFFFFFFFFFFFFFFFFFFFFFFFFFFF AND SUB PUSH2 0x205C JUMPI PUSH1 0x40 MLOAD PUSH32 0x8C379A000000000000000000000000000000000000000000000000000000000 DUP2 MSTORE PUSH1 0x4 ADD PUSH2 0x2053 SWAP1 PUSH2 0x3CF2 JUMP JUMPDEST PUSH1 0x40 MLOAD DUP1 SWAP2 SUB SWAP1 REVERT JUMPDEST DUP1 PUSH1 0x5 PUSH0 DUP6 PUSH20 0xFFFFFFFFFFFFFFFFFFFFFFFFFFFFFFFFFFFFFFFF AND PUSH20 0xFFFFFFFFFFFFFFFFFFFFFFFFFFFFFFFFFFFFFFFF AND DUP2 MSTORE PUSH1 0x20 ADD SWAP1 DUP2 MSTORE PUSH1 0x20 ADD PUSH0 KECCAK256 PUSH0 DUP5 PUSH20 0xFFFFFFFFFFFFFFFFFFFFFFFFFFFFFFFFFFFFFFFF AND PUSH20 0xFFFFFFFFFFFFFFFFFFFFFFFFFFFFFFFFFFFFFFFF AND DUP2 MSTORE PUSH1 0x20 ADD SWAP1 DUP2 MSTORE PUSH1 0x20 ADD PUSH0 KECCAK256 PUSH0 PUSH2 0x100 EXP DUP2 SLOAD DUP2 PUSH1 0xFF MUL NOT AND SWAP1 DUP4 ISZERO ISZERO MUL OR SWAP1 SSTORE POP DUP2 PUSH20 0xFFFFFFFFFFFFFFFFFFFFFFFFFFFFFFFFFFFFFFFF AND DUP4 PUSH20 0xFFFFFFFFFFFFFFFFFFFFFFFFFFFFFFFFFFFFFFFF AND PUSH32 0x17307EAB39AB6107E8899845AD3D59BD9653F200F220920489CA2B5937696C31 DUP4 PUSH1 0x40 MLOAD PUSH2 0x2148 SWAP2 SWAP1 PUSH2 0x2BD6 JUMP JUMPDEST PUSH1 0x40 MLOAD DUP1 SWAP2 SUB SWAP1 LOG3 POP POP POP JUMP JUMPDEST PUSH2 0x2160 DUP5 DUP5 DUP5 PUSH2 0x1BE3 JUMP JUMPDEST PUSH2 0x216C DUP5 DUP5 DUP5 DUP5 PUSH2 0x2623 JUMP JUMPDEST PUSH2 0x21AB JUMPI PUSH1 0x40 MLOAD PUSH32 0x8C379A000000000000000000000000000000000000000000000000000000000 DUP2 MSTORE PUSH1 0x4 ADD PUSH2 0x21A2 SWAP1 PUSH2 0x3D80 JUMP JUMPDEST PUSH1 0x40 MLOAD DUP1 SWAP2 SUB SWAP1 REVERT JUMPDEST POP POP POP POP JUMP JUMPDEST PUSH1 0x60 PUSH1 0x40 MLOAD DUP1 PUSH1 0x20 ADD PUSH1 0x40 MSTORE DUP1 PUSH0 DUP2 MSTORE POP SWAP1 POP SWAP1 JUMP JUMPDEST PUSH1 0x60 PUSH0 PUSH1 0x1 PUSH2 0x21D5 DUP5 PUSH2 0x27A5 JUMP JUMPDEST ADD SWAP1 POP PUSH0 DUP2 PUSH8 0xFFFFFFFFFFFFFFFF DUP2 GT ISZERO PUSH2 0x21F3 JUMPI PUSH2 0x21F2 PUSH2 0x2FDD JUMP JUMPDEST JUMPDEST PUSH1 0x40 MLOAD SWAP1 DUP1 DUP3 MSTORE DUP1 PUSH1 0x1F ADD PUSH1 0x1F NOT AND PUSH1 0x20 ADD DUP3 ADD PUSH1 0x40 MSTORE DUP1 ISZERO PUSH2 0x2225 JUMPI DUP2 PUSH1 0x20 ADD PUSH1 0x1 DUP3 MUL DUP1 CALLDATASIZE DUP4 CALLDATACOPY DUP1 DUP3 ADD SWAP2 POP POP SWAP1 POP JUMPDEST POP SWAP1 POP PUSH0 DUP3 PUSH1 0x20 ADD DUP3 ADD SWAP1 POP JUMPDEST PUSH1 0x1 ISZERO PUSH2 0x2286 JUMPI DUP1 DUP1 PUSH1 0x1 SWAP1 SUB SWAP2 POP POP PUSH32 0x3031323334353637383961626364656600000000000000000000000000000000 PUSH1 0xA DUP7 MOD BYTE DUP2 MSTORE8 PUSH1 0xA DUP6 DUP2 PUSH2 0x227B JUMPI PUSH2 0x227A PUSH2 0x3D9E JUMP JUMPDEST JUMPDEST DIV SWAP5 POP PUSH0 DUP6 SUB PUSH2 0x2232 JUMPI JUMPDEST DUP2 SWAP4 POP POP POP POP SWAP2 SWAP1 POP JUMP JUMPDEST PUSH0 DUP1 PUSH20 0xFFFFFFFFFFFFFFFFFFFFFFFFFFFFFFFFFFFFFFFF AND PUSH2 0x22B2 DUP4 PUSH2 0x1E74 JUMP JUMPDEST PUSH20 0xFFFFFFFFFFFFFFFFFFFFFFFFFFFFFFFFFFFFFFFF AND EQ ISZERO SWAP1 POP SWAP2 SWAP1 POP JUMP JUMPDEST DUP3 PUSH20 0xFFFFFFFFFFFFFFFFFFFFFFFFFFFFFFFFFFFFFFFF AND PUSH2 0x22F1 DUP3 PUSH2 0xE64 JUMP JUMPDEST PUSH20 0xFFFFFFFFFFFFFFFFFFFFFFFFFFFFFFFFFFFFFFFF AND EQ PUSH2 0x2347 JUMPI PUSH1 0x40 MLOAD PUSH32 0x8C379A000000000000000000000000000000000000000000000000000000000 DUP2 MSTORE PUSH1 0x4 ADD PUSH2 0x233E SWAP1 PUSH2 0x3E3B JUMP JUMPDEST PUSH1 0x40 MLOAD DUP1 SWAP2 SUB SWAP1 REVERT JUMPDEST PUSH0 PUSH20 0xFFFFFFFFFFFFFFFFFFFFFFFFFFFFFFFFFFFFFFFF AND DUP3 PUSH20 0xFFFFFFFFFFFFFFFFFFFFFFFFFFFFFFFFFFFFFFFF AND SUB PUSH2 0x23B5 JUMPI PUSH1 0x40 MLOAD PUSH32 0x8C379A000000000000000000000000000000000000000000000000000000000 DUP2 MSTORE PUSH1 0x4 ADD PUSH2 0x23AC SWAP1 PUSH2 0x3EC9 JUMP JUMPDEST PUSH1 0x40 MLOAD DUP1 SWAP2 SUB SWAP1 REVERT JUMPDEST PUSH2 0x23C2 DUP4 DUP4 DUP4 PUSH1 0x1 PUSH2 0x2617 JUMP JUMPDEST DUP3 PUSH20 0xFFFFFFFFFFFFFFFFFFFFFFFFFFFFFFFFFFFFFFFF AND PUSH2 0x23E2 DUP3 PUSH2 0xE64 JUMP JUMPDEST PUSH20 0xFFFFFFFFFFFFFFFFFFFFFFFFFFFFFFFFFFFFFFFF AND EQ PUSH2 0x2438 JUMPI PUSH1 0x40 MLOAD PUSH32 0x8C379A000000000000000000000000000000000000000000000000000000000 DUP2 MSTORE PUSH1 0x4 ADD PUSH2 0x242F SWAP1 PUSH2 0x3E3B JUMP JUMPDEST PUSH1 0x40 MLOAD DUP1 SWAP2 SUB SWAP1 REVERT JUMPDEST PUSH1 0x4 PUSH0 DUP3 DUP2 MSTORE PUSH1 0x20 ADD SWAP1 DUP2 MSTORE PUSH1 0x20 ADD PUSH0 KECCAK256 PUSH0 PUSH2 0x100 EXP DUP2 SLOAD SWAP1 PUSH20 0xFFFFFFFFFFFFFFFFFFFFFFFFFFFFFFFFFFFFFFFF MUL NOT AND SWAP1 SSTORE PUSH1 0x1 PUSH1 0x3 PUSH0 DUP6 PUSH20 0xFFFFFFFFFFFFFFFFFFFFFFFFFFFFFFFFFFFFFFFF AND PUSH20 0xFFFFFFFFFFFFFFFFFFFFFFFFFFFFFFFFFFFFFFFF AND DUP2 MSTORE PUSH1 0x20 ADD SWAP1 DUP2 MSTORE PUSH1 0x20 ADD PUSH0 KECCAK256 PUSH0 DUP3 DUP3 SLOAD SUB SWAP3 POP POP DUP2 SWAP1 SSTORE POP PUSH1 0x1 PUSH1 0x3 PUSH0 DUP5 PUSH20 0xFFFFFFFFFFFFFFFFFFFFFFFFFFFFFFFFFFFFFFFF AND PUSH20 0xFFFFFFFFFFFFFFFFFFFFFFFFFFFFFFFFFFFFFFFF AND DUP2 MSTORE PUSH1 0x20 ADD SWAP1 DUP2 MSTORE PUSH1 0x20 ADD PUSH0 KECCAK256 PUSH0 DUP3 DUP3 SLOAD ADD SWAP3 POP POP DUP2 SWAP1 SSTORE POP DUP2 PUSH1 0x2 PUSH0 DUP4 DUP2 MSTORE PUSH1 0x20 ADD SWAP1 DUP2 MSTORE PUSH1 0x20 ADD PUSH0 KECCAK256 PUSH0 PUSH2 0x100 EXP DUP2 SLOAD DUP2 PUSH20 0xFFFFFFFFFFFFFFFFFFFFFFFFFFFFFFFFFFFFFFFF MUL NOT AND SWAP1 DUP4 PUSH20 0xFFFFFFFFFFFFFFFFFFFFFFFFFFFFFFFFFFFFFFFF AND MUL OR SWAP1 SSTORE POP DUP1 DUP3 PUSH20 0xFFFFFFFFFFFFFFFFFFFFFFFFFFFFFFFFFFFFFFFF AND DUP5 PUSH20 0xFFFFFFFFFFFFFFFFFFFFFFFFFFFFFFFFFFFFFFFF AND PUSH32 0xDDF252AD1BE2C89B69C2B068FC378DAA952BA7F163C4A11628F55A4DF523B3EF PUSH1 0x40 MLOAD PUSH1 0x40 MLOAD DUP1 SWAP2 SUB SWAP1 LOG4 PUSH2 0x25B8 DUP4 DUP4 DUP4 PUSH1 0x1 PUSH2 0x261D JUMP JUMPDEST POP POP POP JUMP JUMPDEST PUSH2 0x25C7 DUP4 DUP4 PUSH2 0x28F6 JUMP JUMPDEST PUSH2 0x25D3 PUSH0 DUP5 DUP5 DUP5 PUSH2 0x2623 JUMP JUMPDEST PUSH2 0x2612 JUMPI PUSH1 0x40 MLOAD PUSH32 0x8C379A000000000000000000000000000000000000000000000000000000000 DUP2 MSTORE PUSH1 0x4 ADD PUSH2 0x2609 SWAP1 PUSH2 0x3D80 JUMP JUMPDEST PUSH1 0x40 MLOAD DUP1 SWAP2 SUB SWAP1 REVERT JUMPDEST POP POP POP JUMP JUMPDEST POP POP POP POP JUMP JUMPDEST POP POP POP POP JUMP JUMPDEST PUSH0 PUSH2 0x2643 DUP5 PUSH20 0xFFFFFFFFFFFFFFFFFFFFFFFFFFFFFFFFFFFFFFFF AND PUSH2 0x2B09 JUMP JUMPDEST ISZERO PUSH2 0x2798 JUMPI DUP4 PUSH20 0xFFFFFFFFFFFFFFFFFFFFFFFFFFFFFFFFFFFFFFFF AND PUSH4 0x150B7A02 PUSH2 0x266C PUSH2 0x1A92 JUMP JUMPDEST DUP8 DUP7 DUP7 PUSH1 0x40 MLOAD DUP6 PUSH4 0xFFFFFFFF AND PUSH1 0xE0 SHL DUP2 MSTORE PUSH1 0x4 ADD PUSH2 0x268E SWAP5 SWAP4 SWAP3 SWAP2 SWAP1 PUSH2 0x3F39 JUMP JUMPDEST PUSH1 0x20 PUSH1 0x40 MLOAD DUP1 DUP4 SUB DUP2 PUSH0 DUP8 GAS CALL SWAP3 POP POP POP DUP1 ISZERO PUSH2 0x26C9 JUMPI POP PUSH1 0x40 MLOAD RETURNDATASIZE PUSH1 0x1F NOT PUSH1 0x1F DUP3 ADD AND DUP3 ADD DUP1 PUSH1 0x40 MSTORE POP DUP2 ADD SWAP1 PUSH2 0x26C6 SWAP2 SWAP1 PUSH2 0x3F97 JUMP JUMPDEST PUSH1 0x1 JUMPDEST PUSH2 0x2748 JUMPI RETURNDATASIZE DUP1 PUSH0 DUP2 EQ PUSH2 0x26F7 JUMPI PUSH1 0x40 MLOAD SWAP2 POP PUSH1 0x1F NOT PUSH1 0x3F RETURNDATASIZE ADD AND DUP3 ADD PUSH1 0x40 MSTORE RETURNDATASIZE DUP3 MSTORE RETURNDATASIZE PUSH0 PUSH1 0x20 DUP5 ADD RETURNDATACOPY PUSH2 0x26FC JUMP JUMPDEST PUSH1 0x60 SWAP2 POP JUMPDEST POP PUSH0 DUP2 MLOAD SUB PUSH2 0x2740 JUMPI PUSH1 0x40 MLOAD PUSH32 0x8C379A000000000000000000000000000000000000000000000000000000000 DUP2 MSTORE PUSH1 0x4 ADD PUSH2 0x2737 SWAP1 PUSH2 0x3D80 JUMP JUMPDEST PUSH1 0x40 MLOAD DUP1 SWAP2 SUB SWAP1 REVERT JUMPDEST DUP1 MLOAD DUP2 PUSH1 0x20 ADD REVERT JUMPDEST PUSH4 0x150B7A02 PUSH1 0xE0 SHL PUSH28 0xFFFFFFFFFFFFFFFFFFFFFFFFFFFFFFFFFFFFFFFFFFFFFFFFFFFFFFFF NOT AND DUP2 PUSH28 0xFFFFFFFFFFFFFFFFFFFFFFFFFFFFFFFFFFFFFFFFFFFFFFFFFFFFFFFF NOT AND EQ SWAP2 POP POP PUSH2 0x279D JUMP JUMPDEST PUSH1 0x1 SWAP1 POP JUMPDEST SWAP5 SWAP4 POP POP POP POP JUMP JUMPDEST PUSH0 DUP1 PUSH0 SWAP1 POP PUSH27 0x184F03E93FF9F4DAA797ED6E38ED64BF6A1F010000000000000000 DUP4 LT PUSH2 0x2801 JUMPI PUSH27 0x184F03E93FF9F4DAA797ED6E38ED64BF6A1F010000000000000000 DUP4 DUP2 PUSH2 0x27F7 JUMPI PUSH2 0x27F6 PUSH2 0x3D9E JUMP JUMPDEST JUMPDEST DIV SWAP3 POP PUSH1 0x40 DUP2 ADD SWAP1 POP JUMPDEST PUSH14 0x4EE2D6D415B85ACEF8100000000 DUP4 LT PUSH2 0x283E JUMPI PUSH14 0x4EE2D6D415B85ACEF8100000000 DUP4 DUP2 PUSH2 0x2834 JUMPI PUSH2 0x2833 PUSH2 0x3D9E JUMP JUMPDEST JUMPDEST DIV SWAP3 POP PUSH1 0x20 DUP2 ADD SWAP1 POP JUMPDEST PUSH7 0x2386F26FC10000 DUP4 LT PUSH2 0x286D JUMPI PUSH7 0x2386F26FC10000 DUP4 DUP2 PUSH2 0x2863 JUMPI PUSH2 0x2862 PUSH2 0x3D9E JUMP JUMPDEST JUMPDEST DIV SWAP3 POP PUSH1 0x10 DUP2 ADD SWAP1 POP JUMPDEST PUSH4 0x5F5E100 DUP4 LT PUSH2 0x2896 JUMPI PUSH4 0x5F5E100 DUP4 DUP2 PUSH2 0x288C JUMPI PUSH2 0x288B PUSH2 0x3D9E JUMP JUMPDEST JUMPDEST DIV SWAP3 POP PUSH1 0x8 DUP2 ADD SWAP1 POP JUMPDEST PUSH2 0x2710 DUP4 LT PUSH2 0x28BB JUMPI PUSH2 0x2710 DUP4 DUP2 PUSH2 0x28B1 JUMPI PUSH2 0x28B0 PUSH2 0x3D9E JUMP JUMPDEST JUMPDEST DIV SWAP3 POP PUSH1 0x4 DUP2 ADD SWAP1 POP JUMPDEST PUSH1 0x64 DUP4 LT PUSH2 0x28DE JUMPI PUSH1 0x64 DUP4 DUP2 PUSH2 0x28D4 JUMPI PUSH2 0x28D3 PUSH2 0x3D9E JUMP JUMPDEST JUMPDEST DIV SWAP3 POP PUSH1 0x2 DUP2 ADD SWAP1 POP JUMPDEST PUSH1 0xA DUP4 LT PUSH2 0x28ED JUMPI PUSH1 0x1 DUP2 ADD SWAP1 POP JUMPDEST DUP1 SWAP2 POP POP SWAP2 SWAP1 POP JUMP JUMPDEST PUSH0 PUSH20 0xFFFFFFFFFFFFFFFFFFFFFFFFFFFFFFFFFFFFFFFF AND DUP3 PUSH20 0xFFFFFFFFFFFFFFFFFFFFFFFFFFFFFFFFFFFFFFFF AND SUB PUSH2 0x2964 JUMPI PUSH1 0x40 MLOAD PUSH32 0x8C379A000000000000000000000000000000000000000000000000000000000 DUP2 MSTORE PUSH1 0x4 ADD PUSH2 0x295B SWAP1 PUSH2 0x400C JUMP JUMPDEST PUSH1 0x40 MLOAD DUP1 SWAP2 SUB SWAP1 REVERT JUMPDEST PUSH2 0x296D DUP2 PUSH2 0x2291 JUMP JUMPDEST ISZERO PUSH2 0x29AD JUMPI PUSH1 0x40 MLOAD PUSH32 0x8C379A000000000000000000000000000000000000000000000000000000000 DUP2 MSTORE PUSH1 0x4 ADD PUSH2 0x29A4 SWAP1 PUSH2 0x4074 JUMP JUMPDEST PUSH1 0x40 MLOAD DUP1 SWAP2 SUB SWAP1 REVERT JUMPDEST PUSH2 0x29BA PUSH0 DUP4 DUP4 PUSH1 0x1 PUSH2 0x2617 JUMP JUMPDEST PUSH2 0x29C3 DUP2 PUSH2 0x2291 JUMP JUMPDEST ISZERO PUSH2 0x2A03 JUMPI PUSH1 0x40 MLOAD PUSH32 0x8C379A000000000000000000000000000000000000000000000000000000000 DUP2 MSTORE PUSH1 0x4 ADD PUSH2 0x29FA SWAP1 PUSH2 0x4074 JUMP JUMPDEST PUSH1 0x40 MLOAD DUP1 SWAP2 SUB SWAP1 REVERT JUMPDEST PUSH1 0x1 PUSH1 0x3 PUSH0 DUP5 PUSH20 0xFFFFFFFFFFFFFFFFFFFFFFFFFFFFFFFFFFFFFFFF AND PUSH20 0xFFFFFFFFFFFFFFFFFFFFFFFFFFFFFFFFFFFFFFFF AND DUP2 MSTORE PUSH1 0x20 ADD SWAP1 DUP2 MSTORE PUSH1 0x20 ADD PUSH0 KECCAK256 PUSH0 DUP3 DUP3 SLOAD ADD SWAP3 POP POP DUP2 SWAP1 SSTORE POP DUP2 PUSH1 0x2 PUSH0 DUP4 DUP2 MSTORE PUSH1 0x20 ADD SWAP1 DUP2 MSTORE PUSH1 0x20 ADD PUSH0 KECCAK256 PUSH0 PUSH2 0x100 EXP DUP2 SLOAD DUP2 PUSH20 0xFFFFFFFFFFFFFFFFFFFFFFFFFFFFFFFFFFFFFFFF MUL NOT AND SWAP1 DUP4 PUSH20 0xFFFFFFFFFFFFFFFFFFFFFFFFFFFFFFFFFFFFFFFF AND MUL OR SWAP1 SSTORE POP DUP1 DUP3 PUSH20 0xFFFFFFFFFFFFFFFFFFFFFFFFFFFFFFFFFFFFFFFF AND PUSH0 PUSH20 0xFFFFFFFFFFFFFFFFFFFFFFFFFFFFFFFFFFFFFFFF AND PUSH32 0xDDF252AD1BE2C89B69C2B068FC378DAA952BA7F163C4A11628F55A4DF523B3EF PUSH1 0x40 MLOAD PUSH1 0x40 MLOAD DUP1 SWAP2 SUB SWAP1 LOG4 PUSH2 0x2B05 PUSH0 DUP4 DUP4 PUSH1 0x1 PUSH2 0x261D JUMP JUMPDEST POP POP JUMP JUMPDEST PUSH0 DUP1 DUP3 PUSH20 0xFFFFFFFFFFFFFFFFFFFFFFFFFFFFFFFFFFFFFFFF AND EXTCODESIZE GT SWAP1 POP SWAP2 SWAP1 POP JUMP JUMPDEST PUSH0 PUSH1 0x40 MLOAD SWAP1 POP SWAP1 JUMP JUMPDEST PUSH0 DUP1 REVERT JUMPDEST PUSH0 DUP1 REVERT JUMPDEST PUSH0 PUSH32 0xFFFFFFFF00000000000000000000000000000000000000000000000000000000 DUP3 AND SWAP1 POP SWAP2 SWAP1 POP JUMP JUMPDEST PUSH2 0x2B70 DUP2 PUSH2 0x2B3C JUMP JUMPDEST DUP2 EQ PUSH2 0x2B7A JUMPI PUSH0 DUP1 REVERT JUMPDEST POP JUMP JUMPDEST PUSH0 DUP2 CALLDATALOAD SWAP1 POP PUSH2 0x2B8B DUP2 PUSH2 0x2B67 JUMP JUMPDEST SWAP3 SWAP2 POP POP JUMP JUMPDEST PUSH0 PUSH1 0x20 DUP3 DUP5 SUB SLT ISZERO PUSH2 0x2BA6 JUMPI PUSH2 0x2BA5 PUSH2 0x2B34 JUMP JUMPDEST JUMPDEST PUSH0 PUSH2 0x2BB3 DUP5 DUP3 DUP6 ADD PUSH2 0x2B7D JUMP JUMPDEST SWAP2 POP POP SWAP3 SWAP2 POP POP JUMP JUMPDEST PUSH0 DUP2 ISZERO ISZERO SWAP1 POP SWAP2 SWAP1 POP JUMP JUMPDEST PUSH2 0x2BD0 DUP2 PUSH2 0x2BBC JUMP JUMPDEST DUP3 MSTORE POP POP JUMP JUMPDEST PUSH0 PUSH1 0x20 DUP3 ADD SWAP1 POP PUSH2 0x2BE9 PUSH0 DUP4 ADD DUP5 PUSH2 0x2BC7 JUMP JUMPDEST SWAP3 SWAP2 POP POP JUMP JUMPDEST PUSH0 DUP2 MLOAD SWAP1 POP SWAP2 SWAP1 POP JUMP JUMPDEST PUSH0 DUP3 DUP3 MSTORE PUSH1 0x20 DUP3 ADD SWAP1 POP SWAP3 SWAP2 POP POP JUMP JUMPDEST PUSH0 JUMPDEST DUP4 DUP2 LT ISZERO PUSH2 0x2C26 JUMPI DUP1 DUP3 ADD MLOAD DUP2 DUP5 ADD MSTORE PUSH1 0x20 DUP2 ADD SWAP1 POP PUSH2 0x2C0B JUMP JUMPDEST PUSH0 DUP5 DUP5 ADD MSTORE POP POP POP POP JUMP JUMPDEST PUSH0 PUSH1 0x1F NOT PUSH1 0x1F DUP4 ADD AND SWAP1 POP SWAP2 SWAP1 POP JUMP JUMPDEST PUSH0 PUSH2 0x2C4B DUP3 PUSH2 0x2BEF JUMP JUMPDEST PUSH2 0x2C55 DUP2 DUP6 PUSH2 0x2BF9 JUMP JUMPDEST SWAP4 POP PUSH2 0x2C65 DUP2 DUP6 PUSH1 0x20 DUP7 ADD PUSH2 0x2C09 JUMP JUMPDEST PUSH2 0x2C6E DUP2 PUSH2 0x2C31 JUMP JUMPDEST DUP5 ADD SWAP2 POP POP SWAP3 SWAP2 POP POP JUMP JUMPDEST PUSH0 PUSH1 0x20 DUP3 ADD SWAP1 POP DUP2 DUP2 SUB PUSH0 DUP4 ADD MSTORE PUSH2 0x2C91 DUP2 DUP5 PUSH2 0x2C41 JUMP JUMPDEST SWAP1 POP SWAP3 SWAP2 POP POP JUMP JUMPDEST PUSH0 DUP2 SWAP1 POP SWAP2 SWAP1 POP JUMP JUMPDEST PUSH2 0x2CAB DUP2 PUSH2 0x2C99 JUMP JUMPDEST DUP2 EQ PUSH2 0x2CB5 JUMPI PUSH0 DUP1 REVERT JUMPDEST POP JUMP JUMPDEST PUSH0 DUP2 CALLDATALOAD SWAP1 POP PUSH2 0x2CC6 DUP2 PUSH2 0x2CA2 JUMP JUMPDEST SWAP3 SWAP2 POP POP JUMP JUMPDEST PUSH0 PUSH1 0x20 DUP3 DUP5 SUB SLT ISZERO PUSH2 0x2CE1 JUMPI PUSH2 0x2CE0 PUSH2 0x2B34 JUMP JUMPDEST JUMPDEST PUSH0 PUSH2 0x2CEE DUP5 DUP3 DUP6 ADD PUSH2 0x2CB8 JUMP JUMPDEST SWAP2 POP POP SWAP3 SWAP2 POP POP JUMP JUMPDEST PUSH0 PUSH20 0xFFFFFFFFFFFFFFFFFFFFFFFFFFFFFFFFFFFFFFFF DUP3 AND SWAP1 POP SWAP2 SWAP1 POP JUMP JUMPDEST PUSH0 PUSH2 0x2D20 DUP3 PUSH2 0x2CF7 JUMP JUMPDEST SWAP1 POP SWAP2 SWAP1 POP JUMP JUMPDEST PUSH2 0x2D30 DUP2 PUSH2 0x2D16 JUMP JUMPDEST DUP3 MSTORE POP POP JUMP JUMPDEST PUSH0 PUSH1 0x20 DUP3 ADD SWAP1 POP PUSH2 0x2D49 PUSH0 DUP4 ADD DUP5 PUSH2 0x2D27 JUMP JUMPDEST SWAP3 SWAP2 POP POP JUMP JUMPDEST PUSH2 0x2D58 DUP2 PUSH2 0x2D16 JUMP JUMPDEST DUP2 EQ PUSH2 0x2D62 JUMPI PUSH0 DUP1 REVERT JUMPDEST POP JUMP JUMPDEST PUSH0 DUP2 CALLDATALOAD SWAP1 POP PUSH2 0x2D73 DUP2 PUSH2 0x2D4F JUMP JUMPDEST SWAP3 SWAP2 POP POP JUMP JUMPDEST PUSH0 DUP1 PUSH1 0x40 DUP4 DUP6 SUB SLT ISZERO PUSH2 0x2D8F JUMPI PUSH2 0x2D8E PUSH2 0x2B34 JUMP JUMPDEST JUMPDEST PUSH0 PUSH2 0x2D9C DUP6 DUP3 DUP7 ADD PUSH2 0x2D65 JUMP JUMPDEST SWAP3 POP POP PUSH1 0x20 PUSH2 0x2DAD DUP6 DUP3 DUP7 ADD PUSH2 0x2CB8 JUMP JUMPDEST SWAP2 POP POP SWAP3 POP SWAP3 SWAP1 POP JUMP JUMPDEST PUSH0 DUP1 PUSH0 PUSH1 0x60 DUP5 DUP7 SUB SLT ISZERO PUSH2 0x2DCE JUMPI PUSH2 0x2DCD PUSH2 0x2B34 JUMP JUMPDEST JUMPDEST PUSH0 PUSH2 0x2DDB DUP7 DUP3 DUP8 ADD PUSH2 0x2D65 JUMP JUMPDEST SWAP4 POP POP PUSH1 0x20 PUSH2 0x2DEC DUP7 DUP3 DUP8 ADD PUSH2 0x2D65 JUMP JUMPDEST SWAP3 POP POP PUSH1 0x40 PUSH2 0x2DFD DUP7 DUP3 DUP8 ADD PUSH2 0x2CB8 JUMP JUMPDEST SWAP2 POP POP SWAP3 POP SWAP3 POP SWAP3 JUMP JUMPDEST PUSH0 PUSH1 0x20 DUP3 DUP5 SUB SLT ISZERO PUSH2 0x2E1C JUMPI PUSH2 0x2E1B PUSH2 0x2B34 JUMP JUMPDEST JUMPDEST PUSH0 PUSH2 0x2E29 DUP5 DUP3 DUP6 ADD PUSH2 0x2D65 JUMP JUMPDEST SWAP2 POP POP SWAP3 SWAP2 POP POP JUMP JUMPDEST PUSH0 DUP2 SWAP1 POP SWAP2 SWAP1 POP JUMP JUMPDEST PUSH0 PUSH2 0x2E55 PUSH2 0x2E50 PUSH2 0x2E4B DUP5 PUSH2 0x2CF7 JUMP JUMPDEST PUSH2 0x2E32 JUMP JUMPDEST PUSH2 0x2CF7 JUMP JUMPDEST SWAP1 POP SWAP2 SWAP1 POP JUMP JUMPDEST PUSH0 PUSH2 0x2E66 DUP3 PUSH2 0x2E3B JUMP JUMPDEST SWAP1 POP SWAP2 SWAP1 POP JUMP JUMPDEST PUSH0 PUSH2 0x2E77 DUP3 PUSH2 0x2E5C JUMP JUMPDEST SWAP1 POP SWAP2 SWAP1 POP JUMP JUMPDEST PUSH2 0x2E87 DUP2 PUSH2 0x2E6D JUMP JUMPDEST DUP3 MSTORE POP POP JUMP JUMPDEST PUSH0 PUSH1 0x20 DUP3 ADD SWAP1 POP PUSH2 0x2EA0 PUSH0 DUP4 ADD DUP5 PUSH2 0x2E7E JUMP JUMPDEST SWAP3 SWAP2 POP POP JUMP JUMPDEST PUSH0 PUSH2 0x2EB0 DUP3 PUSH2 0x2E5C JUMP JUMPDEST SWAP1 POP SWAP2 SWAP1 POP JUMP JUMPDEST PUSH2 0x2EC0 DUP2 PUSH2 0x2EA6 JUMP JUMPDEST DUP3 MSTORE POP POP JUMP JUMPDEST PUSH0 PUSH1 0x20 DUP3 ADD SWAP1 POP PUSH2 0x2ED9 PUSH0 DUP4 ADD DUP5 PUSH2 0x2EB7 JUMP JUMPDEST SWAP3 SWAP2 POP POP JUMP JUMPDEST PUSH0 PUSH2 0x2EE9 DUP3 PUSH2 0x2CF7 JUMP JUMPDEST SWAP1 POP SWAP2 SWAP1 POP JUMP JUMPDEST PUSH2 0x2EF9 DUP2 PUSH2 0x2EDF JUMP JUMPDEST DUP2 EQ PUSH2 0x2F03 JUMPI PUSH0 DUP1 REVERT JUMPDEST POP JUMP JUMPDEST PUSH0 DUP2 CALLDATALOAD SWAP1 POP PUSH2 0x2F14 DUP2 PUSH2 0x2EF0 JUMP JUMPDEST SWAP3 SWAP2 POP POP JUMP JUMPDEST PUSH0 PUSH1 0x20 DUP3 DUP5 SUB SLT ISZERO PUSH2 0x2F2F JUMPI PUSH2 0x2F2E PUSH2 0x2B34 JUMP JUMPDEST JUMPDEST PUSH0 PUSH2 0x2F3C DUP5 DUP3 DUP6 ADD PUSH2 0x2F06 JUMP JUMPDEST SWAP2 POP POP SWAP3 SWAP2 POP POP JUMP JUMPDEST PUSH2 0x2F4E DUP2 PUSH2 0x2C99 JUMP JUMPDEST DUP3 MSTORE POP POP JUMP JUMPDEST PUSH0 PUSH1 0x20 DUP3 ADD SWAP1 POP PUSH2 0x2F67 PUSH0 DUP4 ADD DUP5 PUSH2 0x2F45 JUMP JUMPDEST SWAP3 SWAP2 POP POP JUMP JUMPDEST PUSH2 0x2F76 DUP2 PUSH2 0x2BBC JUMP JUMPDEST DUP2 EQ PUSH2 0x2F80 JUMPI PUSH0 DUP1 REVERT JUMPDEST POP JUMP JUMPDEST PUSH0 DUP2 CALLDATALOAD SWAP1 POP PUSH2 0x2F91 DUP2 PUSH2 0x2F6D JUMP JUMPDEST SWAP3 SWAP2 POP POP JUMP JUMPDEST PUSH0 DUP1 PUSH1 0x40 DUP4 DUP6 SUB SLT ISZERO PUSH2 0x2FAD JUMPI PUSH2 0x2FAC PUSH2 0x2B34 JUMP JUMPDEST JUMPDEST PUSH0 PUSH2 0x2FBA DUP6 DUP3 DUP7 ADD PUSH2 0x2D65 JUMP JUMPDEST SWAP3 POP POP PUSH1 0x20 PUSH2 0x2FCB DUP6 DUP3 DUP7 ADD PUSH2 0x2F83 JUMP JUMPDEST SWAP2 POP POP SWAP3 POP SWAP3 SWAP1 POP JUMP JUMPDEST PUSH0 DUP1 REVERT JUMPDEST PUSH0 DUP1 REVERT JUMPDEST PUSH32 0x4E487B7100000000000000000000000000000000000000000000000000000000 PUSH0 MSTORE PUSH1 0x41 PUSH1 0x4 MSTORE PUSH1 0x24 PUSH0 REVERT JUMPDEST PUSH2 0x3013 DUP3 PUSH2 0x2C31 JUMP JUMPDEST DUP2 ADD DUP2 DUP2 LT PUSH8 0xFFFFFFFFFFFFFFFF DUP3 GT OR ISZERO PUSH2 0x3032 JUMPI PUSH2 0x3031 PUSH2 0x2FDD JUMP JUMPDEST JUMPDEST DUP1 PUSH1 0x40 MSTORE POP POP POP JUMP JUMPDEST PUSH0 PUSH2 0x3044 PUSH2 0x2B2B JUMP JUMPDEST SWAP1 POP PUSH2 0x3050 DUP3 DUP3 PUSH2 0x300A JUMP JUMPDEST SWAP2 SWAP1 POP JUMP JUMPDEST PUSH0 PUSH8 0xFFFFFFFFFFFFFFFF DUP3 GT ISZERO PUSH2 0x306F JUMPI PUSH2 0x306E PUSH2 0x2FDD JUMP JUMPDEST JUMPDEST PUSH2 0x3078 DUP3 PUSH2 0x2C31 JUMP JUMPDEST SWAP1 POP PUSH1 0x20 DUP2 ADD SWAP1 POP SWAP2 SWAP1 POP JUMP JUMPDEST DUP3 DUP2 DUP4 CALLDATACOPY PUSH0 DUP4 DUP4 ADD MSTORE POP POP POP JUMP JUMPDEST PUSH0 PUSH2 0x30A5 PUSH2 0x30A0 DUP5 PUSH2 0x3055 JUMP JUMPDEST PUSH2 0x303B JUMP JUMPDEST SWAP1 POP DUP3 DUP2 MSTORE PUSH1 0x20 DUP2 ADD DUP5 DUP5 DUP5 ADD GT ISZERO PUSH2 0x30C1 JUMPI PUSH2 0x30C0 PUSH2 0x2FD9 JUMP JUMPDEST JUMPDEST PUSH2 0x30CC DUP5 DUP3 DUP6 PUSH2 0x3085 JUMP JUMPDEST POP SWAP4 SWAP3 POP POP POP JUMP JUMPDEST PUSH0 DUP3 PUSH1 0x1F DUP4 ADD SLT PUSH2 0x30E8 JUMPI PUSH2 0x30E7 PUSH2 0x2FD5 JUMP JUMPDEST JUMPDEST DUP2 CALLDATALOAD PUSH2 0x30F8 DUP5 DUP3 PUSH1 0x20 DUP7 ADD PUSH2 0x3093 JUMP JUMPDEST SWAP2 POP POP SWAP3 SWAP2 POP POP JUMP JUMPDEST PUSH0 DUP1 PUSH0 DUP1 PUSH1 0x80 DUP6 DUP8 SUB SLT ISZERO PUSH2 0x3119 JUMPI PUSH2 0x3118 PUSH2 0x2B34 JUMP JUMPDEST JUMPDEST PUSH0 PUSH2 0x3126 DUP8 DUP3 DUP9 ADD PUSH2 0x2D65 JUMP JUMPDEST SWAP5 POP POP PUSH1 0x20 PUSH2 0x3137 DUP8 DUP3 DUP9 ADD PUSH2 0x2D65 JUMP JUMPDEST SWAP4 POP POP PUSH1 0x40 PUSH2 0x3148 DUP8 DUP3 DUP9 ADD PUSH2 0x2CB8 JUMP JUMPDEST SWAP3 POP POP PUSH1 0x60 DUP6 ADD CALLDATALOAD PUSH8 0xFFFFFFFFFFFFFFFF DUP2 GT ISZERO PUSH2 0x3169 JUMPI PUSH2 0x3168 PUSH2 0x2B38 JUMP JUMPDEST JUMPDEST PUSH2 0x3175 DUP8 DUP3 DUP9 ADD PUSH2 0x30D4 JUMP JUMPDEST SWAP2 POP POP SWAP3 SWAP6 SWAP2 SWAP5 POP SWAP3 POP JUMP JUMPDEST PUSH0 DUP1 PUSH1 0x40 DUP4 DUP6 SUB SLT ISZERO PUSH2 0x3197 JUMPI PUSH2 0x3196 PUSH2 0x2B34 JUMP JUMPDEST JUMPDEST PUSH0 PUSH2 0x31A4 DUP6 DUP3 DUP7 ADD PUSH2 0x2D65 JUMP JUMPDEST SWAP3 POP POP PUSH1 0x20 PUSH2 0x31B5 DUP6 DUP3 DUP7 ADD PUSH2 0x2D65 JUMP JUMPDEST SWAP2 POP POP SWAP3 POP SWAP3 SWAP1 POP JUMP JUMPDEST PUSH0 PUSH2 0x31C9 DUP3 PUSH2 0x2E5C JUMP JUMPDEST SWAP1 POP SWAP2 SWAP1 POP JUMP JUMPDEST PUSH2 0x31D9 DUP2 PUSH2 0x31BF JUMP JUMPDEST DUP3 MSTORE POP POP JUMP JUMPDEST PUSH0 PUSH1 0x20 DUP3 ADD SWAP1 POP PUSH2 0x31F2 PUSH0 DUP4 ADD DUP5 PUSH2 0x31D0 JUMP JUMPDEST SWAP3 SWAP2 POP POP JUMP JUMPDEST PUSH32 0x4E487B7100000000000000000000000000000000000000000000000000000000 PUSH0 MSTORE PUSH1 0x22 PUSH1 0x4 MSTORE PUSH1 0x24 PUSH0 REVERT JUMPDEST PUSH0 PUSH1 0x2 DUP3 DIV SWAP1 POP PUSH1 0x1 DUP3 AND DUP1 PUSH2 0x323C JUMPI PUSH1 0x7F DUP3 AND SWAP2 POP JUMPDEST PUSH1 0x20 DUP3 LT DUP2 SUB PUSH2 0x324F JUMPI PUSH2 0x324E PUSH2 0x31F8 JUMP JUMPDEST JUMPDEST POP SWAP2 SWAP1 POP JUMP JUMPDEST PUSH32 0x4552433732313A20617070726F76616C20746F2063757272656E74206F776E65 PUSH0 DUP3 ADD MSTORE PUSH32 0x7200000000000000000000000000000000000000000000000000000000000000 PUSH1 0x20 DUP3 ADD MSTORE POP JUMP JUMPDEST PUSH0 PUSH2 0x32AF PUSH1 0x21 DUP4 PUSH2 0x2BF9 JUMP JUMPDEST SWAP2 POP PUSH2 0x32BA DUP3 PUSH2 0x3255 JUMP JUMPDEST PUSH1 0x40 DUP3 ADD SWAP1 POP SWAP2 SWAP1 POP JUMP JUMPDEST PUSH0 PUSH1 0x20 DUP3 ADD SWAP1 POP DUP2 DUP2 SUB PUSH0 DUP4 ADD MSTORE PUSH2 0x32DC DUP2 PUSH2 0x32A3 JUMP JUMPDEST SWAP1 POP SWAP2 SWAP1 POP JUMP JUMPDEST PUSH32 0x4552433732313A20617070726F76652063616C6C6572206973206E6F7420746F PUSH0 DUP3 ADD MSTORE PUSH32 0x6B656E206F776E6572206F7220617070726F76656420666F7220616C6C000000 PUSH1 0x20 DUP3 ADD MSTORE POP JUMP JUMPDEST PUSH0 PUSH2 0x333D PUSH1 0x3D DUP4 PUSH2 0x2BF9 JUMP JUMPDEST SWAP2 POP PUSH2 0x3348 DUP3 PUSH2 0x32E3 JUMP JUMPDEST PUSH1 0x40 DUP3 ADD SWAP1 POP SWAP2 SWAP1 POP JUMP JUMPDEST PUSH0 PUSH1 0x20 DUP3 ADD SWAP1 POP DUP2 DUP2 SUB PUSH0 DUP4 ADD MSTORE PUSH2 0x336A DUP2 PUSH2 0x3331 JUMP JUMPDEST SWAP1 POP SWAP2 SWAP1 POP JUMP JUMPDEST PUSH0 DUP2 MLOAD SWAP1 POP PUSH2 0x337F DUP2 PUSH2 0x2D4F JUMP JUMPDEST SWAP3 SWAP2 POP POP JUMP JUMPDEST PUSH0 PUSH1 0x20 DUP3 DUP5 SUB SLT ISZERO PUSH2 0x339A JUMPI PUSH2 0x3399 PUSH2 0x2B34 JUMP JUMPDEST JUMPDEST PUSH0 PUSH2 0x33A7 DUP5 DUP3 DUP6 ADD PUSH2 0x3371 JUMP JUMPDEST SWAP2 POP POP SWAP3 SWAP2 POP POP JUMP JUMPDEST PUSH0 PUSH1 0x40 DUP3 ADD SWAP1 POP PUSH2 0x33C3 PUSH0 DUP4 ADD DUP6 PUSH2 0x2D27 JUMP JUMPDEST PUSH2 0x33D0 PUSH1 0x20 DUP4 ADD DUP5 PUSH2 0x2F45 JUMP JUMPDEST SWAP4 SWAP3 POP POP POP JUMP JUMPDEST PUSH0 DUP2 MLOAD SWAP1 POP PUSH2 0x33E5 DUP2 PUSH2 0x2F6D JUMP JUMPDEST SWAP3 SWAP2 POP POP JUMP JUMPDEST PUSH0 PUSH1 0x20 DUP3 DUP5 SUB SLT ISZERO PUSH2 0x3400 JUMPI PUSH2 0x33FF PUSH2 0x2B34 JUMP JUMPDEST JUMPDEST PUSH0 PUSH2 0x340D DUP5 DUP3 DUP6 ADD PUSH2 0x33D7 JUMP JUMPDEST SWAP2 POP POP SWAP3 SWAP2 POP POP JUMP JUMPDEST PUSH0 DUP2 MLOAD SWAP1 POP PUSH2 0x3424 DUP2 PUSH2 0x2CA2 JUMP JUMPDEST SWAP3 SWAP2 POP POP JUMP JUMPDEST PUSH0 PUSH1 0x20 DUP3 DUP5 SUB SLT ISZERO PUSH2 0x343F JUMPI PUSH2 0x343E PUSH2 0x2B34 JUMP JUMPDEST JUMPDEST PUSH0 PUSH2 0x344C DUP5 DUP3 DUP6 ADD PUSH2 0x3416 JUMP JUMPDEST SWAP2 POP POP SWAP3 SWAP2 POP POP JUMP JUMPDEST PUSH32 0x7265706179426F72726F772829206661696C6564000000000000000000000000 PUSH0 DUP3 ADD MSTORE POP JUMP JUMPDEST PUSH0 PUSH2 0x3489 PUSH1 0x14 DUP4 PUSH2 0x2BF9 JUMP JUMPDEST SWAP2 POP PUSH2 0x3494 DUP3 PUSH2 0x3455 JUMP JUMPDEST PUSH1 0x20 DUP3 ADD SWAP1 POP SWAP2 SWAP1 POP JUMP JUMPDEST PUSH0 PUSH1 0x20 DUP3 ADD SWAP1 POP DUP2 DUP2 SUB PUSH0 DUP4 ADD MSTORE PUSH2 0x34B6 DUP2 PUSH2 0x347D JUMP JUMPDEST SWAP1 POP SWAP2 SWAP1 POP JUMP JUMPDEST PUSH32 0x4552433732313A2063616C6C6572206973206E6F7420746F6B656E206F776E65 PUSH0 DUP3 ADD MSTORE PUSH32 0x72206F7220617070726F76656400000000000000000000000000000000000000 PUSH1 0x20 DUP3 ADD MSTORE POP JUMP JUMPDEST PUSH0 PUSH2 0x3517 PUSH1 0x2D DUP4 PUSH2 0x2BF9 JUMP JUMPDEST SWAP2 POP PUSH2 0x3522 DUP3 PUSH2 0x34BD JUMP JUMPDEST PUSH1 0x40 DUP3 ADD SWAP1 POP SWAP2 SWAP1 POP JUMP JUMPDEST PUSH0 PUSH1 0x20 DUP3 ADD SWAP1 POP DUP2 DUP2 SUB PUSH0 DUP4 ADD MSTORE PUSH2 0x3544 DUP2 PUSH2 0x350B JUMP JUMPDEST SWAP1 POP SWAP2 SWAP1 POP JUMP JUMPDEST PUSH32 0x6D696E742829206661696C656400000000000000000000000000000000000000 PUSH0 DUP3 ADD MSTORE POP JUMP JUMPDEST PUSH0 PUSH2 0x357F PUSH1 0xD DUP4 PUSH2 0x2BF9 JUMP JUMPDEST SWAP2 POP PUSH2 0x358A DUP3 PUSH2 0x354B JUMP JUMPDEST PUSH1 0x20 DUP3 ADD SWAP1 POP SWAP2 SWAP1 POP JUMP JUMPDEST PUSH0 PUSH1 0x20 DUP3 ADD SWAP1 POP DUP2 DUP2 SUB PUSH0 DUP4 ADD MSTORE PUSH2 0x35AC DUP2 PUSH2 0x3573 JUMP JUMPDEST SWAP1 POP SWAP2 SWAP1 POP JUMP JUMPDEST PUSH32 0x4E487B7100000000000000000000000000000000000000000000000000000000 PUSH0 MSTORE PUSH1 0x11 PUSH1 0x4 MSTORE PUSH1 0x24 PUSH0 REVERT JUMPDEST PUSH0 PUSH2 0x35EA DUP3 PUSH2 0x2C99 JUMP JUMPDEST SWAP2 POP PUSH2 0x35F5 DUP4 PUSH2 0x2C99 JUMP JUMPDEST SWAP3 POP DUP3 DUP3 SUB SWAP1 POP DUP2 DUP2 GT ISZERO PUSH2 0x360D JUMPI PUSH2 0x360C PUSH2 0x35B3 JUMP JUMPDEST JUMPDEST SWAP3 SWAP2 POP POP JUMP JUMPDEST PUSH32 0x4552433732313A20696E76616C696420746F6B656E2049440000000000000000 PUSH0 DUP3 ADD MSTORE POP JUMP JUMPDEST PUSH0 PUSH2 0x3647 PUSH1 0x18 DUP4 PUSH2 0x2BF9 JUMP JUMPDEST SWAP2 POP PUSH2 0x3652 DUP3 PUSH2 0x3613 JUMP JUMPDEST PUSH1 0x20 DUP3 ADD SWAP1 POP SWAP2 SWAP1 POP JUMP JUMPDEST PUSH0 PUSH1 0x20 DUP3 ADD SWAP1 POP DUP2 DUP2 SUB PUSH0 DUP4 ADD MSTORE PUSH2 0x3674 DUP2 PUSH2 0x363B JUMP JUMPDEST SWAP1 POP SWAP2 SWAP1 POP JUMP JUMPDEST PUSH32 0x506C656173652073656E6420736F6D6520457468657200000000000000000000 PUSH0 DUP3 ADD MSTORE POP JUMP JUMPDEST PUSH0 PUSH2 0x36AF PUSH1 0x16 DUP4 PUSH2 0x2BF9 JUMP JUMPDEST SWAP2 POP PUSH2 0x36BA DUP3 PUSH2 0x367B JUMP JUMPDEST PUSH1 0x20 DUP3 ADD SWAP1 POP SWAP2 SWAP1 POP JUMP JUMPDEST PUSH0 PUSH1 0x20 DUP3 ADD SWAP1 POP DUP2 DUP2 SUB PUSH0 DUP4 ADD MSTORE PUSH2 0x36DC DUP2 PUSH2 0x36A3 JUMP JUMPDEST SWAP1 POP SWAP2 SWAP1 POP JUMP JUMPDEST PUSH32 0x4552433732313A2061646472657373207A65726F206973206E6F742061207661 PUSH0 DUP3 ADD MSTORE PUSH32 0x6C6964206F776E65720000000000000000000000000000000000000000000000 PUSH1 0x20 DUP3 ADD MSTORE POP JUMP JUMPDEST PUSH0 PUSH2 0x373D PUSH1 0x29 DUP4 PUSH2 0x2BF9 JUMP JUMPDEST SWAP2 POP PUSH2 0x3748 DUP3 PUSH2 0x36E3 JUMP JUMPDEST PUSH1 0x40 DUP3 ADD SWAP1 POP SWAP2 SWAP1 POP JUMP JUMPDEST PUSH0 PUSH1 0x20 DUP3 ADD SWAP1 POP DUP2 DUP2 SUB PUSH0 DUP4 ADD MSTORE PUSH2 0x376A DUP2 PUSH2 0x3731 JUMP JUMPDEST SWAP1 POP SWAP2 SWAP1 POP JUMP JUMPDEST PUSH0 PUSH1 0x60 DUP3 ADD SWAP1 POP PUSH2 0x3784 PUSH0 DUP4 ADD DUP7 PUSH2 0x2D27 JUMP JUMPDEST PUSH2 0x3791 PUSH1 0x20 DUP4 ADD DUP6 PUSH2 0x2D27 JUMP JUMPDEST PUSH2 0x379E PUSH1 0x40 DUP4 ADD DUP5 PUSH2 0x2F45 JUMP JUMPDEST SWAP5 SWAP4 POP POP POP POP JUMP JUMPDEST PUSH32 0x626F72726F772829206661696C65640000000000000000000000000000000000 PUSH0 DUP3 ADD MSTORE POP JUMP JUMPDEST PUSH0 PUSH2 0x37DA PUSH1 0xF DUP4 PUSH2 0x2BF9 JUMP JUMPDEST SWAP2 POP PUSH2 0x37E5 DUP3 PUSH2 0x37A6 JUMP JUMPDEST PUSH1 0x20 DUP3 ADD SWAP1 POP SWAP2 SWAP1 POP JUMP JUMPDEST PUSH0 PUSH1 0x20 DUP3 ADD SWAP1 POP DUP2 DUP2 SUB PUSH0 DUP4 ADD MSTORE PUSH2 0x3807 DUP2 PUSH2 0x37CE JUMP JUMPDEST SWAP1 POP SWAP2 SWAP1 POP JUMP JUMPDEST PUSH0 DUP2 SWAP1 POP SWAP3 SWAP2 POP POP JUMP JUMPDEST PUSH0 PUSH2 0x3822 DUP3 PUSH2 0x2BEF JUMP JUMPDEST PUSH2 0x382C DUP2 DUP6 PUSH2 0x380E JUMP JUMPDEST SWAP4 POP PUSH2 0x383C DUP2 DUP6 PUSH1 0x20 DUP7 ADD PUSH2 0x2C09 JUMP JUMPDEST DUP1 DUP5 ADD SWAP2 POP POP SWAP3 SWAP2 POP POP JUMP JUMPDEST PUSH0 PUSH2 0x3853 DUP3 DUP6 PUSH2 0x3818 JUMP JUMPDEST SWAP2 POP PUSH2 0x385F DUP3 DUP5 PUSH2 0x3818 JUMP JUMPDEST SWAP2 POP DUP2 SWAP1 POP SWAP4 SWAP3 POP POP POP JUMP JUMPDEST PUSH32 0x72656465656D2829206661696C65640000000000000000000000000000000000 PUSH0 DUP3 ADD MSTORE POP JUMP JUMPDEST PUSH0 PUSH2 0x389F PUSH1 0xF DUP4 PUSH2 0x2BF9 JUMP JUMPDEST SWAP2 POP PUSH2 0x38AA DUP3 PUSH2 0x386B JUMP JUMPDEST PUSH1 0x20 DUP3 ADD SWAP1 POP SWAP2 SWAP1 POP JUMP JUMPDEST PUSH0 PUSH1 0x20 DUP3 ADD SWAP1 POP DUP2 DUP2 SUB PUSH0 DUP4 ADD MSTORE PUSH2 0x38CC DUP2 PUSH2 0x3893 JUMP JUMPDEST SWAP1 POP SWAP2 SWAP1 POP JUMP JUMPDEST PUSH32 0x4F776E61626C653A206E6577206F776E657220697320746865207A65726F2061 PUSH0 DUP3 ADD MSTORE PUSH32 0x6464726573730000000000000000000000000000000000000000000000000000 PUSH1 0x20 DUP3 ADD MSTORE POP JUMP JUMPDEST PUSH0 PUSH2 0x392D PUSH1 0x26 DUP4 PUSH2 0x2BF9 JUMP JUMPDEST SWAP2 POP PUSH2 0x3938 DUP3 PUSH2 0x38D3 JUMP JUMPDEST PUSH1 0x40 DUP3 ADD SWAP1 POP SWAP2 SWAP1 POP JUMP JUMPDEST PUSH0 PUSH1 0x20 DUP3 ADD SWAP1 POP DUP2 DUP2 SUB PUSH0 DUP4 ADD MSTORE PUSH2 0x395A DUP2 PUSH2 0x3921 JUMP JUMPDEST SWAP1 POP SWAP2 SWAP1 POP JUMP JUMPDEST PUSH32 0x4E487B7100000000000000000000000000000000000000000000000000000000 PUSH0 MSTORE PUSH1 0x32 PUSH1 0x4 MSTORE PUSH1 0x24 PUSH0 REVERT JUMPDEST PUSH0 DUP2 MLOAD SWAP1 POP SWAP2 SWAP1 POP JUMP JUMPDEST PUSH0 DUP3 DUP3 MSTORE PUSH1 0x20 DUP3 ADD SWAP1 POP SWAP3 SWAP2 POP POP JUMP JUMPDEST PUSH0 DUP2 SWAP1 POP PUSH1 0x20 DUP3 ADD SWAP1 POP SWAP2 SWAP1 POP JUMP JUMPDEST PUSH2 0x39C0 DUP2 PUSH2 0x2D16 JUMP JUMPDEST DUP3 MSTORE POP POP JUMP JUMPDEST PUSH0 PUSH2 0x39D1 DUP4 DUP4 PUSH2 0x39B7 JUMP JUMPDEST PUSH1 0x20 DUP4 ADD SWAP1 POP SWAP3 SWAP2 POP POP JUMP JUMPDEST PUSH0 PUSH1 0x20 DUP3 ADD SWAP1 POP SWAP2 SWAP1 POP JUMP JUMPDEST PUSH0 PUSH2 0x39F3 DUP3 PUSH2 0x398E JUMP JUMPDEST PUSH2 0x39FD DUP2 DUP6 PUSH2 0x3998 JUMP JUMPDEST SWAP4 POP PUSH2 0x3A08 DUP4 PUSH2 0x39A8 JUMP JUMPDEST DUP1 PUSH0 JUMPDEST DUP4 DUP2 LT ISZERO PUSH2 0x3A38 JUMPI DUP2 MLOAD PUSH2 0x3A1F DUP9 DUP3 PUSH2 0x39C6 JUMP JUMPDEST SWAP8 POP PUSH2 0x3A2A DUP4 PUSH2 0x39DD JUMP JUMPDEST SWAP3 POP POP PUSH1 0x1 DUP2 ADD SWAP1 POP PUSH2 0x3A0B JUMP JUMPDEST POP DUP6 SWAP4 POP POP POP POP SWAP3 SWAP2 POP POP JUMP JUMPDEST PUSH0 PUSH1 0x20 DUP3 ADD SWAP1 POP DUP2 DUP2 SUB PUSH0 DUP4 ADD MSTORE PUSH2 0x3A5D DUP2 DUP5 PUSH2 0x39E9 JUMP JUMPDEST SWAP1 POP SWAP3 SWAP2 POP POP JUMP JUMPDEST PUSH0 PUSH8 0xFFFFFFFFFFFFFFFF DUP3 GT ISZERO PUSH2 0x3A7F JUMPI PUSH2 0x3A7E PUSH2 0x2FDD JUMP JUMPDEST JUMPDEST PUSH1 0x20 DUP3 MUL SWAP1 POP PUSH1 0x20 DUP2 ADD SWAP1 POP SWAP2 SWAP1 POP JUMP JUMPDEST PUSH0 DUP1 REVERT JUMPDEST PUSH0 PUSH2 0x3AA6 PUSH2 0x3AA1 DUP5 PUSH2 0x3A65 JUMP JUMPDEST PUSH2 0x303B JUMP JUMPDEST SWAP1 POP DUP1 DUP4 DUP3 MSTORE PUSH1 0x20 DUP3 ADD SWAP1 POP PUSH1 0x20 DUP5 MUL DUP4 ADD DUP6 DUP2 GT ISZERO PUSH2 0x3AC9 JUMPI PUSH2 0x3AC8 PUSH2 0x3A90 JUMP JUMPDEST JUMPDEST DUP4 JUMPDEST DUP2 DUP2 LT ISZERO PUSH2 0x3AF2 JUMPI DUP1 PUSH2 0x3ADE DUP9 DUP3 PUSH2 0x3416 JUMP JUMPDEST DUP5 MSTORE PUSH1 0x20 DUP5 ADD SWAP4 POP POP PUSH1 0x20 DUP2 ADD SWAP1 POP PUSH2 0x3ACB JUMP JUMPDEST POP POP POP SWAP4 SWAP3 POP POP POP JUMP JUMPDEST PUSH0 DUP3 PUSH1 0x1F DUP4 ADD SLT PUSH2 0x3B10 JUMPI PUSH2 0x3B0F PUSH2 0x2FD5 JUMP JUMPDEST JUMPDEST DUP2 MLOAD PUSH2 0x3B20 DUP5 DUP3 PUSH1 0x20 DUP7 ADD PUSH2 0x3A94 JUMP JUMPDEST SWAP2 POP POP SWAP3 SWAP2 POP POP JUMP JUMPDEST PUSH0 PUSH1 0x20 DUP3 DUP5 SUB SLT ISZERO PUSH2 0x3B3E JUMPI PUSH2 0x3B3D PUSH2 0x2B34 JUMP JUMPDEST JUMPDEST PUSH0 DUP3 ADD MLOAD PUSH8 0xFFFFFFFFFFFFFFFF DUP2 GT ISZERO PUSH2 0x3B5B JUMPI PUSH2 0x3B5A PUSH2 0x2B38 JUMP JUMPDEST JUMPDEST PUSH2 0x3B67 DUP5 DUP3 DUP6 ADD PUSH2 0x3AFC JUMP JUMPDEST SWAP2 POP POP SWAP3 SWAP2 POP POP JUMP JUMPDEST PUSH32 0x656E7465724D61726B65742829206661696C6564000000000000000000000000 PUSH0 DUP3 ADD MSTORE POP JUMP JUMPDEST PUSH0 PUSH2 0x3BA4 PUSH1 0x14 DUP4 PUSH2 0x2BF9 JUMP JUMPDEST SWAP2 POP PUSH2 0x3BAF DUP3 PUSH2 0x3B70 JUMP JUMPDEST PUSH1 0x20 DUP3 ADD SWAP1 POP SWAP2 SWAP1 POP JUMP JUMPDEST PUSH0 PUSH1 0x20 DUP3 ADD SWAP1 POP DUP2 DUP2 SUB PUSH0 DUP4 ADD MSTORE PUSH2 0x3BD1 DUP2 PUSH2 0x3B98 JUMP JUMPDEST SWAP1 POP SWAP2 SWAP1 POP JUMP JUMPDEST PUSH32 0x7472616E736665722829206661696C6564000000000000000000000000000000 PUSH0 DUP3 ADD MSTORE POP JUMP JUMPDEST PUSH0 PUSH2 0x3C0C PUSH1 0x11 DUP4 PUSH2 0x2BF9 JUMP JUMPDEST SWAP2 POP PUSH2 0x3C17 DUP3 PUSH2 0x3BD8 JUMP JUMPDEST PUSH1 0x20 DUP3 ADD SWAP1 POP SWAP2 SWAP1 POP JUMP JUMPDEST PUSH0 PUSH1 0x20 DUP3 ADD SWAP1 POP DUP2 DUP2 SUB PUSH0 DUP4 ADD MSTORE PUSH2 0x3C39 DUP2 PUSH2 0x3C00 JUMP JUMPDEST SWAP1 POP SWAP2 SWAP1 POP JUMP JUMPDEST PUSH32 0x4F776E61626C653A2063616C6C6572206973206E6F7420746865206F776E6572 PUSH0 DUP3 ADD MSTORE POP JUMP JUMPDEST PUSH0 PUSH2 0x3C74 PUSH1 0x20 DUP4 PUSH2 0x2BF9 JUMP JUMPDEST SWAP2 POP PUSH2 0x3C7F DUP3 PUSH2 0x3C40 JUMP JUMPDEST PUSH1 0x20 DUP3 ADD SWAP1 POP SWAP2 SWAP1 POP JUMP JUMPDEST PUSH0 PUSH1 0x20 DUP3 ADD SWAP1 POP DUP2 DUP2 SUB PUSH0 DUP4 ADD MSTORE PUSH2 0x3CA1 DUP2 PUSH2 0x3C68 JUMP JUMPDEST SWAP1 POP SWAP2 SWAP1 POP JUMP JUMPDEST PUSH32 0x4552433732313A20617070726F766520746F2063616C6C657200000000000000 PUSH0 DUP3 ADD MSTORE POP JUMP JUMPDEST PUSH0 PUSH2 0x3CDC PUSH1 0x19 DUP4 PUSH2 0x2BF9 JUMP JUMPDEST SWAP2 POP PUSH2 0x3CE7 DUP3 PUSH2 0x3CA8 JUMP JUMPDEST PUSH1 0x20 DUP3 ADD SWAP1 POP SWAP2 SWAP1 POP JUMP JUMPDEST PUSH0 PUSH1 0x20 DUP3 ADD SWAP1 POP DUP2 DUP2 SUB PUSH0 DUP4 ADD MSTORE PUSH2 0x3D09 DUP2 PUSH2 0x3CD0 JUMP JUMPDEST SWAP1 POP SWAP2 SWAP1 POP JUMP JUMPDEST PUSH32 0x4552433732313A207472616E7366657220746F206E6F6E204552433732315265 PUSH0 DUP3 ADD MSTORE PUSH32 0x63656976657220696D706C656D656E7465720000000000000000000000000000 PUSH1 0x20 DUP3 ADD MSTORE POP JUMP JUMPDEST PUSH0 PUSH2 0x3D6A PUSH1 0x32 DUP4 PUSH2 0x2BF9 JUMP JUMPDEST SWAP2 POP PUSH2 0x3D75 DUP3 PUSH2 0x3D10 JUMP JUMPDEST PUSH1 0x40 DUP3 ADD SWAP1 POP SWAP2 SWAP1 POP JUMP JUMPDEST PUSH0 PUSH1 0x20 DUP3 ADD SWAP1 POP DUP2 DUP2 SUB PUSH0 DUP4 ADD MSTORE PUSH2 0x3D97 DUP2 PUSH2 0x3D5E JUMP JUMPDEST SWAP1 POP SWAP2 SWAP1 POP JUMP JUMPDEST PUSH32 0x4E487B7100000000000000000000000000000000000000000000000000000000 PUSH0 MSTORE PUSH1 0x12 PUSH1 0x4 MSTORE PUSH1 0x24 PUSH0 REVERT JUMPDEST PUSH32 0x4552433732313A207472616E736665722066726F6D20696E636F727265637420 PUSH0 DUP3 ADD MSTORE PUSH32 0x6F776E6572000000000000000000000000000000000000000000000000000000 PUSH1 0x20 DUP3 ADD MSTORE POP JUMP JUMPDEST PUSH0 PUSH2 0x3E25 PUSH1 0x25 DUP4 PUSH2 0x2BF9 JUMP JUMPDEST SWAP2 POP PUSH2 0x3E30 DUP3 PUSH2 0x3DCB JUMP JUMPDEST PUSH1 0x40 DUP3 ADD SWAP1 POP SWAP2 SWAP1 POP JUMP JUMPDEST PUSH0 PUSH1 0x20 DUP3 ADD SWAP1 POP DUP2 DUP2 SUB PUSH0 DUP4 ADD MSTORE PUSH2 0x3E52 DUP2 PUSH2 0x3E19 JUMP JUMPDEST SWAP1 POP SWAP2 SWAP1 POP JUMP JUMPDEST PUSH32 0x4552433732313A207472616E7366657220746F20746865207A65726F20616464 PUSH0 DUP3 ADD MSTORE PUSH32 0x7265737300000000000000000000000000000000000000000000000000000000 PUSH1 0x20 DUP3 ADD MSTORE POP JUMP JUMPDEST PUSH0 PUSH2 0x3EB3 PUSH1 0x24 DUP4 PUSH2 0x2BF9 JUMP JUMPDEST SWAP2 POP PUSH2 0x3EBE DUP3 PUSH2 0x3E59 JUMP JUMPDEST PUSH1 0x40 DUP3 ADD SWAP1 POP SWAP2 SWAP1 POP JUMP JUMPDEST PUSH0 PUSH1 0x20 DUP3 ADD SWAP1 POP DUP2 DUP2 SUB PUSH0 DUP4 ADD MSTORE PUSH2 0x3EE0 DUP2 PUSH2 0x3EA7 JUMP JUMPDEST SWAP1 POP SWAP2 SWAP1 POP JUMP JUMPDEST PUSH0 DUP2 MLOAD SWAP1 POP SWAP2 SWAP1 POP JUMP JUMPDEST PUSH0 DUP3 DUP3 MSTORE PUSH1 0x20 DUP3 ADD SWAP1 POP SWAP3 SWAP2 POP POP JUMP JUMPDEST PUSH0 PUSH2 0x3F0B DUP3 PUSH2 0x3EE7 JUMP JUMPDEST PUSH2 0x3F15 DUP2 DUP6 PUSH2 0x3EF1 JUMP JUMPDEST SWAP4 POP PUSH2 0x3F25 DUP2 DUP6 PUSH1 0x20 DUP7 ADD PUSH2 0x2C09 JUMP JUMPDEST PUSH2 0x3F2E DUP2 PUSH2 0x2C31 JUMP JUMPDEST DUP5 ADD SWAP2 POP POP SWAP3 SWAP2 POP POP JUMP JUMPDEST PUSH0 PUSH1 0x80 DUP3 ADD SWAP1 POP PUSH2 0x3F4C PUSH0 DUP4 ADD DUP8 PUSH2 0x2D27 JUMP JUMPDEST PUSH2 0x3F59 PUSH1 0x20 DUP4 ADD DUP7 PUSH2 0x2D27 JUMP JUMPDEST PUSH2 0x3F66 PUSH1 0x40 DUP4 ADD DUP6 PUSH2 0x2F45 JUMP JUMPDEST DUP2 DUP2 SUB PUSH1 0x60 DUP4 ADD MSTORE PUSH2 0x3F78 DUP2 DUP5 PUSH2 0x3F01 JUMP JUMPDEST SWAP1 POP SWAP6 SWAP5 POP POP POP POP POP JUMP JUMPDEST PUSH0 DUP2 MLOAD SWAP1 POP PUSH2 0x3F91 DUP2 PUSH2 0x2B67 JUMP JUMPDEST SWAP3 SWAP2 POP POP JUMP JUMPDEST PUSH0 PUSH1 0x20 DUP3 DUP5 SUB SLT ISZERO PUSH2 0x3FAC JUMPI PUSH2 0x3FAB PUSH2 0x2B34 JUMP JUMPDEST JUMPDEST PUSH0 PUSH2 0x3FB9 DUP5 DUP3 DUP6 ADD PUSH2 0x3F83 JUMP JUMPDEST SWAP2 POP POP SWAP3 SWAP2 POP POP JUMP JUMPDEST PUSH32 0x4552433732313A206D696E7420746F20746865207A65726F2061646472657373 PUSH0 DUP3 ADD MSTORE POP JUMP JUMPDEST PUSH0 PUSH2 0x3FF6 PUSH1 0x20 DUP4 PUSH2 0x2BF9 JUMP JUMPDEST SWAP2 POP PUSH2 0x4001 DUP3 PUSH2 0x3FC2 JUMP JUMPDEST PUSH1 0x20 DUP3 ADD SWAP1 POP SWAP2 SWAP1 POP JUMP JUMPDEST PUSH0 PUSH1 0x20 DUP3 ADD SWAP1 POP DUP2 DUP2 SUB PUSH0 DUP4 ADD MSTORE PUSH2 0x4023 DUP2 PUSH2 0x3FEA JUMP JUMPDEST SWAP1 POP SWAP2 SWAP1 POP JUMP JUMPDEST PUSH32 0x4552433732313A20746F6B656E20616C7265616479206D696E74656400000000 PUSH0 DUP3 ADD MSTORE POP JUMP JUMPDEST PUSH0 PUSH2 0x405E PUSH1 0x1C DUP4 PUSH2 0x2BF9 JUMP JUMPDEST SWAP2 POP PUSH2 0x4069 DUP3 PUSH2 0x402A JUMP JUMPDEST PUSH1 0x20 DUP3 ADD SWAP1 POP SWAP2 SWAP1 POP JUMP JUMPDEST PUSH0 PUSH1 0x20 DUP3 ADD SWAP1 POP DUP2 DUP2 SUB PUSH0 DUP4 ADD MSTORE PUSH2 0x408B DUP2 PUSH2 0x4052 JUMP JUMPDEST SWAP1 POP SWAP2 SWAP1 POP JUMP INVALID LOG2 PUSH5 0x6970667358 0x22 SLT KECCAK256 EXTCODESIZE 0xB1 DUP10 PUSH25 0x445212E919324AF7B04450BB0719FEF25AD22EE29E92BAB2E8 0x2F DUP7 SWAP7 PUSH5 0x736F6C6343 STOP ADDMOD ISZERO STOP CALLER "
		},
		"gasEstimates": {
			"creation": {
				"codeDepositCost": "3316800",
				"executionCost": "infinite",
				"totalCost": "infinite"
			},
			"external": {
				"allow(address,uint256)": "infinite",
				"approve(address,uint256)": "infinite",
				"balance(address)": "infinite",
				"balanceOf(address)": "2910",
				"borrow(uint256)": "infinite",
				"burn(uint256)": "infinite",
				"cToken()": "infinite",
				"comptroller()": "infinite",
				"enterMarket()": "infinite",
				"getApproved(uint256)": "5305",
				"invest(uint256)": "infinite",
				"isApprovedForAll(address,address)": "infinite",
				"name()": "infinite",
				"owner()": "2605",
				"ownerOf(uint256)": "3095",
				"redeem(uint256)": "infinite",
				"renounceOwnership()": "30458",
				"repayBorrow(uint256)": "infinite",
				"safeMint(address)": "infinite",
				"safeTransferFrom(address,address,uint256)": "infinite",
				"safeTransferFrom(address,address,uint256,bytes)": "infinite",
				"setApprovalForAll(address,bool)": "infinite",
				"supportsInterface(bytes4)": "810",
				"symbol()": "infinite",
				"token()": "infinite",
				"tokenAddress()": "infinite",
				"tokenTransfer(address,uint256)": "infinite",
				"tokenTransferFrom(address,address,uint256)": "infinite",
				"tokenURI(uint256)": "3438",
				"transferEther(address)": "infinite",
				"transferFrom(address,address,uint256)": "infinite",
				"transferOwnership(address)": "30797"
			},
			"internal": {
				"_transfer(address,address,uint256)": "infinite"
			}
		},
		"methodIdentifiers": {
			"allow(address,uint256)": "6c6f31f2",
			"approve(address,uint256)": "095ea7b3",
			"balance(address)": "e3d670d7",
			"balanceOf(address)": "70a08231",
			"borrow(uint256)": "c5ebeaec",
			"burn(uint256)": "42966c68",
			"cToken()": "69e527da",
			"comptroller()": "5fe3b567",
			"enterMarket()": "fd5bfb54",
			"getApproved(uint256)": "081812fc",
			"invest(uint256)": "2afcf480",
			"isApprovedForAll(address,address)": "e985e9c5",
			"name()": "06fdde03",
			"owner()": "8da5cb5b",
			"ownerOf(uint256)": "6352211e",
			"redeem(uint256)": "db006a75",
			"renounceOwnership()": "715018a6",
			"repayBorrow(uint256)": "0e752702",
			"safeMint(address)": "40d097c3",
			"safeTransferFrom(address,address,uint256)": "42842e0e",
			"safeTransferFrom(address,address,uint256,bytes)": "b88d4fde",
			"setApprovalForAll(address,bool)": "a22cb465",
			"supportsInterface(bytes4)": "01ffc9a7",
			"symbol()": "95d89b41",
			"token()": "fc0c546a",
			"tokenAddress()": "9d76ea58",
			"tokenTransfer(address,uint256)": "68cdafe6",
			"tokenTransferFrom(address,address,uint256)": "961974ba",
			"tokenURI(uint256)": "c87b56dd",
			"transferEther(address)": "6b55e991",
			"transferFrom(address,address,uint256)": "23b872dd",
			"transferOwnership(address)": "f2fde38b"
		}
	},
	"abi": [
		{
			"inputs": [
				{
					"internalType": "address",
					"name": "_comptroller",
					"type": "address"
				},
				{
					"internalType": "address",
					"name": "_token",
					"type": "address"
				},
				{
					"internalType": "address",
					"name": "_cToken",
					"type": "address"
				}
			],
			"stateMutability": "nonpayable",
			"type": "constructor"
		},
		{
			"anonymous": false,
			"inputs": [
				{
					"indexed": true,
					"internalType": "address",
					"name": "owner",
					"type": "address"
				},
				{
					"indexed": true,
					"internalType": "address",
					"name": "approved",
					"type": "address"
				},
				{
					"indexed": true,
					"internalType": "uint256",
					"name": "tokenId",
					"type": "uint256"
				}
			],
			"name": "Approval",
			"type": "event"
		},
		{
			"anonymous": false,
			"inputs": [
				{
					"indexed": true,
					"internalType": "address",
					"name": "owner",
					"type": "address"
				},
				{
					"indexed": true,
					"internalType": "address",
					"name": "operator",
					"type": "address"
				},
				{
					"indexed": false,
					"internalType": "bool",
					"name": "approved",
					"type": "bool"
				}
			],
			"name": "ApprovalForAll",
			"type": "event"
		},
		{
			"anonymous": false,
			"inputs": [
				{
					"indexed": true,
					"internalType": "address",
					"name": "previousOwner",
					"type": "address"
				},
				{
					"indexed": true,
					"internalType": "address",
					"name": "newOwner",
					"type": "address"
				}
			],
			"name": "OwnershipTransferred",
			"type": "event"
		},
		{
			"anonymous": false,
			"inputs": [
				{
					"indexed": true,
					"internalType": "address",
					"name": "from",
					"type": "address"
				},
				{
					"indexed": true,
					"internalType": "address",
					"name": "to",
					"type": "address"
				},
				{
					"indexed": true,
					"internalType": "uint256",
					"name": "tokenId",
					"type": "uint256"
				}
			],
			"name": "Transfer",
			"type": "event"
		},
		{
			"inputs": [
				{
					"internalType": "address",
					"name": "spender",
					"type": "address"
				},
				{
					"internalType": "uint256",
					"name": "amount",
					"type": "uint256"
				}
			],
			"name": "allow",
			"outputs": [],
			"stateMutability": "nonpayable",
			"type": "function"
		},
		{
			"inputs": [
				{
					"internalType": "address",
					"name": "to",
					"type": "address"
				},
				{
					"internalType": "uint256",
					"name": "tokenId",
					"type": "uint256"
				}
			],
			"name": "approve",
			"outputs": [],
			"stateMutability": "nonpayable",
			"type": "function"
		},
		{
			"inputs": [
				{
					"internalType": "address",
					"name": "ad",
					"type": "address"
				}
			],
			"name": "balance",
			"outputs": [
				{
					"internalType": "uint256",
					"name": "",
					"type": "uint256"
				}
			],
			"stateMutability": "view",
			"type": "function"
		},
		{
			"inputs": [
				{
					"internalType": "address",
					"name": "owner",
					"type": "address"
				}
			],
			"name": "balanceOf",
			"outputs": [
				{
					"internalType": "uint256",
					"name": "",
					"type": "uint256"
				}
			],
			"stateMutability": "view",
			"type": "function"
		},
		{
			"inputs": [
				{
					"internalType": "uint256",
					"name": "borrowAmount",
					"type": "uint256"
				}
			],
			"name": "borrow",
			"outputs": [],
			"stateMutability": "nonpayable",
			"type": "function"
		},
		{
			"inputs": [
				{
					"internalType": "uint256",
					"name": "tokenId",
					"type": "uint256"
				}
			],
			"name": "burn",
			"outputs": [],
			"stateMutability": "nonpayable",
			"type": "function"
		},
		{
			"inputs": [],
			"name": "cToken",
			"outputs": [
				{
					"internalType": "contract CTokenInterface",
					"name": "",
					"type": "address"
				}
			],
			"stateMutability": "view",
			"type": "function"
		},
		{
			"inputs": [],
			"name": "comptroller",
			"outputs": [
				{
					"internalType": "contract ComptrollerInterface",
					"name": "",
					"type": "address"
				}
			],
			"stateMutability": "view",
			"type": "function"
		},
		{
			"inputs": [],
			"name": "enterMarket",
			"outputs": [],
			"stateMutability": "nonpayable",
			"type": "function"
		},
		{
			"inputs": [
				{
					"internalType": "uint256",
					"name": "tokenId",
					"type": "uint256"
				}
			],
			"name": "getApproved",
			"outputs": [
				{
					"internalType": "address",
					"name": "",
					"type": "address"
				}
			],
			"stateMutability": "view",
			"type": "function"
		},
		{
			"inputs": [
				{
					"internalType": "uint256",
					"name": "underlyingAmount",
					"type": "uint256"
				}
			],
			"name": "invest",
			"outputs": [],
			"stateMutability": "nonpayable",
			"type": "function"
		},
		{
			"inputs": [
				{
					"internalType": "address",
					"name": "owner",
					"type": "address"
				},
				{
					"internalType": "address",
					"name": "operator",
					"type": "address"
				}
			],
			"name": "isApprovedForAll",
			"outputs": [
				{
					"internalType": "bool",
					"name": "",
					"type": "bool"
				}
			],
			"stateMutability": "view",
			"type": "function"
		},
		{
			"inputs": [],
			"name": "name",
			"outputs": [
				{
					"internalType": "string",
					"name": "",
					"type": "string"
				}
			],
			"stateMutability": "view",
			"type": "function"
		},
		{
			"inputs": [],
			"name": "owner",
			"outputs": [
				{
					"internalType": "address",
					"name": "",
					"type": "address"
				}
			],
			"stateMutability": "view",
			"type": "function"
		},
		{
			"inputs": [
				{
					"internalType": "uint256",
					"name": "tokenId",
					"type": "uint256"
				}
			],
			"name": "ownerOf",
			"outputs": [
				{
					"internalType": "address",
					"name": "",
					"type": "address"
				}
			],
			"stateMutability": "view",
			"type": "function"
		},
		{
			"inputs": [
				{
					"internalType": "uint256",
					"name": "id",
					"type": "uint256"
				}
			],
			"name": "redeem",
			"outputs": [],
			"stateMutability": "nonpayable",
			"type": "function"
		},
		{
			"inputs": [],
			"name": "renounceOwnership",
			"outputs": [],
			"stateMutability": "nonpayable",
			"type": "function"
		},
		{
			"inputs": [
				{
					"internalType": "uint256",
					"name": "underlyingAmount",
					"type": "uint256"
				}
			],
			"name": "repayBorrow",
			"outputs": [],
			"stateMutability": "nonpayable",
			"type": "function"
		},
		{
			"inputs": [
				{
					"internalType": "address",
					"name": "to",
					"type": "address"
				}
			],
			"name": "safeMint",
			"outputs": [],
			"stateMutability": "nonpayable",
			"type": "function"
		},
		{
			"inputs": [
				{
					"internalType": "address",
					"name": "from",
					"type": "address"
				},
				{
					"internalType": "address",
					"name": "to",
					"type": "address"
				},
				{
					"internalType": "uint256",
					"name": "tokenId",
					"type": "uint256"
				}
			],
			"name": "safeTransferFrom",
			"outputs": [],
			"stateMutability": "nonpayable",
			"type": "function"
		},
		{
			"inputs": [
				{
					"internalType": "address",
					"name": "from",
					"type": "address"
				},
				{
					"internalType": "address",
					"name": "to",
					"type": "address"
				},
				{
					"internalType": "uint256",
					"name": "tokenId",
					"type": "uint256"
				},
				{
					"internalType": "bytes",
					"name": "data",
					"type": "bytes"
				}
			],
			"name": "safeTransferFrom",
			"outputs": [],
			"stateMutability": "nonpayable",
			"type": "function"
		},
		{
			"inputs": [
				{
					"internalType": "address",
					"name": "operator",
					"type": "address"
				},
				{
					"internalType": "bool",
					"name": "approved",
					"type": "bool"
				}
			],
			"name": "setApprovalForAll",
			"outputs": [],
			"stateMutability": "nonpayable",
			"type": "function"
		},
		{
			"inputs": [
				{
					"internalType": "bytes4",
					"name": "interfaceId",
					"type": "bytes4"
				}
			],
			"name": "supportsInterface",
			"outputs": [
				{
					"internalType": "bool",
					"name": "",
					"type": "bool"
				}
			],
			"stateMutability": "view",
			"type": "function"
		},
		{
			"inputs": [],
			"name": "symbol",
			"outputs": [
				{
					"internalType": "string",
					"name": "",
					"type": "string"
				}
			],
			"stateMutability": "view",
			"type": "function"
		},
		{
			"inputs": [],
			"name": "token",
			"outputs": [
				{
					"internalType": "contract IERC20",
					"name": "",
					"type": "address"
				}
			],
			"stateMutability": "view",
			"type": "function"
		},
		{
			"inputs": [],
			"name": "tokenAddress",
			"outputs": [
				{
					"internalType": "address",
					"name": "",
					"type": "address"
				}
			],
			"stateMutability": "view",
			"type": "function"
		},
		{
			"inputs": [
				{
					"internalType": "address",
					"name": "to",
					"type": "address"
				},
				{
					"internalType": "uint256",
					"name": "tokenId",
					"type": "uint256"
				}
			],
			"name": "tokenTransfer",
			"outputs": [],
			"stateMutability": "nonpayable",
			"type": "function"
		},
		{
			"inputs": [
				{
					"internalType": "address",
					"name": "from",
					"type": "address"
				},
				{
					"internalType": "address",
					"name": "to",
					"type": "address"
				},
				{
					"internalType": "uint256",
					"name": "tokenId",
					"type": "uint256"
				}
			],
			"name": "tokenTransferFrom",
			"outputs": [],
			"stateMutability": "nonpayable",
			"type": "function"
		},
		{
			"inputs": [
				{
					"internalType": "uint256",
					"name": "tokenId",
					"type": "uint256"
				}
			],
			"name": "tokenURI",
			"outputs": [
				{
					"internalType": "string",
					"name": "",
					"type": "string"
				}
			],
			"stateMutability": "view",
			"type": "function"
		},
		{
			"inputs": [
				{
					"internalType": "address payable",
					"name": "receiver",
					"type": "address"
				}
			],
			"name": "transferEther",
			"outputs": [],
			"stateMutability": "payable",
			"type": "function"
		},
		{
			"inputs": [
				{
					"internalType": "address",
					"name": "from",
					"type": "address"
				},
				{
					"internalType": "address",
					"name": "to",
					"type": "address"
				},
				{
					"internalType": "uint256",
					"name": "tokenId",
					"type": "uint256"
				}
			],
			"name": "transferFrom",
			"outputs": [],
			"stateMutability": "nonpayable",
			"type": "function"
		},
		{
			"inputs": [
				{
					"internalType": "address",
					"name": "newOwner",
					"type": "address"
				}
			],
			"name": "transferOwnership",
			"outputs": [],
			"stateMutability": "nonpayable",
			"type": "function"
		}
	]
}