{
	"data": {
		"bytecode": {
			"linkReferences": {},
			"object": "6080604052348015600e575f80fd5b5060ab8061001b5f395ff3fe6080604052348015600e575f80fd5b50600436106026575f3560e01c806369ab325014602a575b5f80fd5b60306044565b604051603b9190605e565b60405180910390f35b5f81565b5f819050919050565b6058816048565b82525050565b5f602082019050606f5f8301846051565b9291505056fea2646970667358221220ef82c06d4c1a8528a73b673bb77a20301427c72eb76013730b3412f800a2c02f64736f6c63430008150033",
			"opcodes": "PUSH1 0x80 PUSH1 0x40 MSTORE CALLVALUE DUP1 ISZERO PUSH1 0xE JUMPI PUSH0 DUP1 REVERT JUMPDEST POP PUSH1 0xAB DUP1 PUSH2 0x1B PUSH0 CODECOPY PUSH0 RETURN INVALID PUSH1 0x80 PUSH1 0x40 MSTORE CALLVALUE DUP1 ISZERO PUSH1 0xE JUMPI PUSH0 DUP1 REVERT JUMPDEST POP PUSH1 0x4 CALLDATASIZE LT PUSH1 0x26 JUMPI PUSH0 CALLDATALOAD PUSH1 0xE0 SHR DUP1 PUSH4 0x69AB3250 EQ PUSH1 0x2A JUMPI JUMPDEST PUSH0 DUP1 REVERT JUMPDEST PUSH1 0x30 PUSH1 0x44 JUMP JUMPDEST PUSH1 0x40 MLOAD PUSH1 0x3B SWAP2 SWAP1 PUSH1 0x5E JUMP JUMPDEST PUSH1 0x40 MLOAD DUP1 SWAP2 SUB SWAP1 RETURN JUMPDEST PUSH0 DUP2 JUMP JUMPDEST PUSH0 DUP2 SWAP1 POP SWAP2 SWAP1 POP JUMP JUMPDEST PUSH1 0x58 DUP2 PUSH1 0x48 JUMP JUMPDEST DUP3 MSTORE POP POP JUMP JUMPDEST PUSH0 PUSH1 0x20 DUP3 ADD SWAP1 POP PUSH1 0x6F PUSH0 DUP4 ADD DUP5 PUSH1 0x51 JUMP JUMPDEST SWAP3 SWAP2 POP POP JUMP INVALID LOG2 PUSH5 0x6970667358 0x22 SLT KECCAK256 0xEF DUP3 0xC0 PUSH14 0x4C1A8528A73B673BB77A20301427 0xC7 0x2E 0xB7 PUSH1 0x13 PUSH20 0xB3412F800A2C02F64736F6C6343000815003300 "
		},
		"gasEstimates": {
			"creation": {
				"codeDepositCost": "34200",
				"executionCost": "85",
				"totalCost": "34285"
			},
			"external": {
				"NO_ERROR()": "302"
			}
		},
		"methodIdentifiers": {
			"NO_ERROR()": "69ab3250"
		}
	},
	"abi": [
		{
			"inputs": [],
			"name": "AcceptAdminPendingAdminCheck",
			"type": "error"
		},
		{
			"inputs": [
				{
					"internalType": "uint256",
					"name": "actualAddAmount",
					"type": "uint256"
				}
			],
			"name": "AddReservesFactorFreshCheck",
			"type": "error"
		},
		{
			"inputs": [],
			"name": "BorrowCashNotAvailable",
			"type": "error"
		},
		{
			"inputs": [
				{
					"internalType": "uint256",
					"name": "errorCode",
					"type": "uint256"
				}
			],
			"name": "BorrowComptrollerRejection",
			"type": "error"
		},
		{
			"inputs": [],
			"name": "BorrowFreshnessCheck",
			"type": "error"
		},
		{
			"inputs": [
				{
					"internalType": "uint256",
					"name": "errorCode",
					"type": "uint256"
				}
			],
			"name": "LiquidateAccrueBorrowInterestFailed",
			"type": "error"
		},
		{
			"inputs": [
				{
					"internalType": "uint256",
					"name": "errorCode",
					"type": "uint256"
				}
			],
			"name": "LiquidateAccrueCollateralInterestFailed",
			"type": "error"
		},
		{
			"inputs": [],
			"name": "LiquidateCloseAmountIsUintMax",
			"type": "error"
		},
		{
			"inputs": [],
			"name": "LiquidateCloseAmountIsZero",
			"type": "error"
		},
		{
			"inputs": [],
			"name": "LiquidateCollateralFreshnessCheck",
			"type": "error"
		},
		{
			"inputs": [
				{
					"internalType": "uint256",
					"name": "errorCode",
					"type": "uint256"
				}
			],
			"name": "LiquidateComptrollerRejection",
			"type": "error"
		},
		{
			"inputs": [],
			"name": "LiquidateFreshnessCheck",
			"type": "error"
		},
		{
			"inputs": [],
			"name": "LiquidateLiquidatorIsBorrower",
			"type": "error"
		},
		{
			"inputs": [
				{
					"internalType": "uint256",
					"name": "errorCode",
					"type": "uint256"
				}
			],
			"name": "LiquidateRepayBorrowFreshFailed",
			"type": "error"
		},
		{
			"inputs": [
				{
					"internalType": "uint256",
					"name": "errorCode",
					"type": "uint256"
				}
			],
			"name": "LiquidateSeizeComptrollerRejection",
			"type": "error"
		},
		{
			"inputs": [],
			"name": "LiquidateSeizeLiquidatorIsBorrower",
			"type": "error"
		},
		{
			"inputs": [
				{
					"internalType": "uint256",
					"name": "errorCode",
					"type": "uint256"
				}
			],
			"name": "MintComptrollerRejection",
			"type": "error"
		},
		{
			"inputs": [],
			"name": "MintFreshnessCheck",
			"type": "error"
		},
		{
			"inputs": [
				{
					"internalType": "uint256",
					"name": "errorCode",
					"type": "uint256"
				}
			],
			"name": "RedeemComptrollerRejection",
			"type": "error"
		},
		{
			"inputs": [],
			"name": "RedeemFreshnessCheck",
			"type": "error"
		},
		{
			"inputs": [],
			"name": "RedeemTransferOutNotPossible",
			"type": "error"
		},
		{
			"inputs": [],
			"name": "ReduceReservesAdminCheck",
			"type": "error"
		},
		{
			"inputs": [],
			"name": "ReduceReservesCashNotAvailable",
			"type": "error"
		},
		{
			"inputs": [],
			"name": "ReduceReservesCashValidation",
			"type": "error"
		},
		{
			"inputs": [],
			"name": "ReduceReservesFreshCheck",
			"type": "error"
		},
		{
			"inputs": [
				{
					"internalType": "uint256",
					"name": "errorCode",
					"type": "uint256"
				}
			],
			"name": "RepayBorrowComptrollerRejection",
			"type": "error"
		},
		{
			"inputs": [],
			"name": "RepayBorrowFreshnessCheck",
			"type": "error"
		},
		{
			"inputs": [],
			"name": "SetComptrollerOwnerCheck",
			"type": "error"
		},
		{
			"inputs": [],
			"name": "SetInterestRateModelFreshCheck",
			"type": "error"
		},
		{
			"inputs": [],
			"name": "SetInterestRateModelOwnerCheck",
			"type": "error"
		},
		{
			"inputs": [],
			"name": "SetPendingAdminOwnerCheck",
			"type": "error"
		},
		{
			"inputs": [],
			"name": "SetReserveFactorAdminCheck",
			"type": "error"
		},
		{
			"inputs": [],
			"name": "SetReserveFactorBoundsCheck",
			"type": "error"
		},
		{
			"inputs": [],
			"name": "SetReserveFactorFreshCheck",
			"type": "error"
		},
		{
			"inputs": [
				{
					"internalType": "uint256",
					"name": "errorCode",
					"type": "uint256"
				}
			],
			"name": "TransferComptrollerRejection",
			"type": "error"
		},
		{
			"inputs": [],
			"name": "TransferNotAllowed",
			"type": "error"
		},
		{
			"inputs": [],
			"name": "TransferNotEnough",
			"type": "error"
		},
		{
			"inputs": [],
			"name": "TransferTooMuch",
			"type": "error"
		},
		{
			"inputs": [],
			"name": "NO_ERROR",
			"outputs": [
				{
					"internalType": "uint256",
					"name": "",
					"type": "uint256"
				}
			],
			"stateMutability": "view",
			"type": "function"
		}
	]
}