{
	"compound_2/CTokenInterfaces.sol": {
		"CTokenStorage": {
			"abi": [
				{
					"inputs": [],
					"name": "accrualBlockNumber",
					"outputs": [
						{
							"internalType": "uint256",
							"name": "",
							"type": "uint256"
						}
					],
					"stateMutability": "view",
					"type": "function"
				},
				{
					"inputs": [],
					"name": "admin",
					"outputs": [
						{
							"internalType": "address payable",
							"name": "",
							"type": "address"
						}
					],
					"stateMutability": "view",
					"type": "function"
				},
				{
					"inputs": [],
					"name": "borrowIndex",
					"outputs": [
						{
							"internalType": "uint256",
							"name": "",
							"type": "uint256"
						}
					],
					"stateMutability": "view",
					"type": "function"
				},
				{
					"inputs": [],
					"name": "comptroller",
					"outputs": [
						{
							"internalType": "contract ComptrollerInterface",
							"name": "",
							"type": "address"
						}
					],
					"stateMutability": "view",
					"type": "function"
				},
				{
					"inputs": [],
					"name": "decimals",
					"outputs": [
						{
							"internalType": "uint8",
							"name": "",
							"type": "uint8"
						}
					],
					"stateMutability": "view",
					"type": "function"
				},
				{
					"inputs": [],
					"name": "interestRateModel",
					"outputs": [
						{
							"internalType": "contract InterestRateModel",
							"name": "",
							"type": "address"
						}
					],
					"stateMutability": "view",
					"type": "function"
				},
				{
					"inputs": [],
					"name": "name",
					"outputs": [
						{
							"internalType": "string",
							"name": "",
							"type": "string"
						}
					],
					"stateMutability": "view",
					"type": "function"
				},
				{
					"inputs": [],
					"name": "pendingAdmin",
					"outputs": [
						{
							"internalType": "address payable",
							"name": "",
							"type": "address"
						}
					],
					"stateMutability": "view",
					"type": "function"
				},
				{
					"inputs": [],
					"name": "protocolSeizeShareMantissa",
					"outputs": [
						{
							"internalType": "uint256",
							"name": "",
							"type": "uint256"
						}
					],
					"stateMutability": "view",
					"type": "function"
				},
				{
					"inputs": [],
					"name": "reserveFactorMantissa",
					"outputs": [
						{
							"internalType": "uint256",
							"name": "",
							"type": "uint256"
						}
					],
					"stateMutability": "view",
					"type": "function"
				},
				{
					"inputs": [],
					"name": "symbol",
					"outputs": [
						{
							"internalType": "string",
							"name": "",
							"type": "string"
						}
					],
					"stateMutability": "view",
					"type": "function"
				},
				{
					"inputs": [],
					"name": "totalBorrows",
					"outputs": [
						{
							"internalType": "uint256",
							"name": "",
							"type": "uint256"
						}
					],
					"stateMutability": "view",
					"type": "function"
				},
				{
					"inputs": [],
					"name": "totalReserves",
					"outputs": [
						{
							"internalType": "uint256",
							"name": "",
							"type": "uint256"
						}
					],
					"stateMutability": "view",
					"type": "function"
				},
				{
					"inputs": [],
					"name": "totalSupply",
					"outputs": [
						{
							"internalType": "uint256",
							"name": "",
							"type": "uint256"
						}
					],
					"stateMutability": "view",
					"type": "function"
				}
			],
			"devdoc": {
				"kind": "dev",
				"methods": {},
				"stateVariables": {
					"_notEntered": {
						"details": "Guard variable for re-entrancy checks"
					}
				},
				"version": 1
			},
			"evm": {
				"assembly": "    /* \"compound_2/CTokenInterfaces.sol\":211:3138  contract CTokenStorage {... */\n  mstore(0x40, 0x80)\n  callvalue\n  dup1\n  iszero\n  tag_1\n  jumpi\n  0x00\n  dup1\n  revert\ntag_1:\n  pop\n  dataSize(sub_0)\n  dup1\n  dataOffset(sub_0)\n  0x00\n  codecopy\n  0x00\n  return\nstop\n\nsub_0: assembly {\n        /* \"compound_2/CTokenInterfaces.sol\":211:3138  contract CTokenStorage {... */\n      mstore(0x40, 0x80)\n      callvalue\n      dup1\n      iszero\n      tag_1\n      jumpi\n      0x00\n      dup1\n      revert\n    tag_1:\n      pop\n      jumpi(tag_2, lt(calldatasize, 0x04))\n      shr(0xe0, calldataload(0x00))\n      dup1\n      0x6752e702\n      gt\n      tag_17\n      jumpi\n      dup1\n      0x95d89b41\n      gt\n      tag_18\n      jumpi\n      dup1\n      0x95d89b41\n      eq\n      tag_13\n      jumpi\n      dup1\n      0xaa5af0fd\n      eq\n      tag_14\n      jumpi\n      dup1\n      0xf3fdb15a\n      eq\n      tag_15\n      jumpi\n      dup1\n      0xf851a440\n      eq\n      tag_16\n      jumpi\n      jump(tag_2)\n    tag_18:\n      dup1\n      0x6752e702\n      eq\n      tag_10\n      jumpi\n      dup1\n      0x6c540baf\n      eq\n      tag_11\n      jumpi\n      dup1\n      0x8f840ddd\n      eq\n      tag_12\n      jumpi\n      jump(tag_2)\n    tag_17:\n      dup1\n      0x26782247\n      gt\n      tag_19\n      jumpi\n      dup1\n      0x26782247\n      eq\n      tag_6\n      jumpi\n      dup1\n      0x313ce567\n      eq\n      tag_7\n      jumpi\n      dup1\n      0x47bd3718\n      eq\n      tag_8\n      jumpi\n      dup1\n      0x5fe3b567\n      eq\n      tag_9\n      jumpi\n      jump(tag_2)\n    tag_19:\n      dup1\n      0x06fdde03\n      eq\n      tag_3\n      jumpi\n      dup1\n      0x173b9904\n      eq\n      tag_4\n      jumpi\n      dup1\n      0x18160ddd\n      eq\n      tag_5\n      jumpi\n    tag_2:\n      0x00\n      dup1\n      revert\n        /* \"compound_2/CTokenInterfaces.sol\":402:420  string public name */\n    tag_3:\n      tag_20\n      tag_21\n      jump\t// in\n    tag_20:\n      mload(0x40)\n      tag_22\n      swap2\n      swap1\n      tag_23\n      jump\t// in\n    tag_22:\n      mload(0x40)\n      dup1\n      swap2\n      sub\n      swap1\n      return\n        /* \"compound_2/CTokenInterfaces.sol\":1581:1614  uint public reserveFactorMantissa */\n    tag_4:\n      tag_24\n      tag_25\n      jump\t// in\n    tag_24:\n      mload(0x40)\n      tag_26\n      swap2\n      swap1\n      tag_27\n      jump\t// in\n    tag_26:\n      mload(0x40)\n      dup1\n      swap2\n      sub\n      swap1\n      return\n        /* \"compound_2/CTokenInterfaces.sol\":2201:2224  uint public totalSupply */\n    tag_5:\n      tag_28\n      tag_29\n      jump\t// in\n    tag_28:\n      mload(0x40)\n      tag_30\n      swap2\n      swap1\n      tag_27\n      jump\t// in\n    tag_30:\n      mload(0x40)\n      dup1\n      swap2\n      sub\n      swap1\n      return\n        /* \"compound_2/CTokenInterfaces.sol\":1049:1084  address payable public pendingAdmin */\n    tag_6:\n      tag_31\n      tag_32\n      jump\t// in\n    tag_31:\n      mload(0x40)\n      tag_33\n      swap2\n      swap1\n      tag_34\n      jump\t// in\n    tag_33:\n      mload(0x40)\n      dup1\n      swap2\n      sub\n      swap1\n      return\n        /* \"compound_2/CTokenInterfaces.sol\":588:609  uint8 public decimals */\n    tag_7:\n      tag_35\n      tag_36\n      jump\t// in\n    tag_35:\n      mload(0x40)\n      tag_37\n      swap2\n      swap1\n      tag_38\n      jump\t// in\n    tag_37:\n      mload(0x40)\n      dup1\n      swap2\n      sub\n      swap1\n      return\n        /* \"compound_2/CTokenInterfaces.sol\":1975:1999  uint public totalBorrows */\n    tag_8:\n      tag_39\n      tag_40\n      jump\t// in\n    tag_39:\n      mload(0x40)\n      tag_41\n      swap2\n      swap1\n      tag_27\n      jump\t// in\n    tag_41:\n      mload(0x40)\n      dup1\n      swap2\n      sub\n      swap1\n      return\n        /* \"compound_2/CTokenInterfaces.sol\":1170:1209  ComptrollerInterface public comptroller */\n    tag_9:\n      tag_42\n      tag_43\n      jump\t// in\n    tag_42:\n      mload(0x40)\n      tag_44\n      swap2\n      swap1\n      tag_45\n      jump\t// in\n    tag_44:\n      mload(0x40)\n      dup1\n      swap2\n      sub\n      swap1\n      return\n        /* \"compound_2/CTokenInterfaces.sol\":3072:3128  uint public constant protocolSeizeShareMantissa = 2.8e16 */\n    tag_10:\n      tag_46\n      tag_47\n      jump\t// in\n    tag_46:\n      mload(0x40)\n      tag_48\n      swap2\n      swap1\n      tag_27\n      jump\t// in\n    tag_48:\n      mload(0x40)\n      dup1\n      swap2\n      sub\n      swap1\n      return\n        /* \"compound_2/CTokenInterfaces.sol\":1699:1729  uint public accrualBlockNumber */\n    tag_11:\n      tag_49\n      tag_50\n      jump\t// in\n    tag_49:\n      mload(0x40)\n      tag_51\n      swap2\n      swap1\n      tag_27\n      jump\t// in\n    tag_51:\n      mload(0x40)\n      dup1\n      swap2\n      sub\n      swap1\n      return\n        /* \"compound_2/CTokenInterfaces.sol\":2100:2125  uint public totalReserves */\n    tag_12:\n      tag_52\n      tag_53\n      jump\t// in\n    tag_52:\n      mload(0x40)\n      tag_54\n      swap2\n      swap1\n      tag_27\n      jump\t// in\n    tag_54:\n      mload(0x40)\n      dup1\n      swap2\n      sub\n      swap1\n      return\n        /* \"compound_2/CTokenInterfaces.sol\":493:513  string public symbol */\n    tag_13:\n      tag_55\n      tag_56\n      jump\t// in\n    tag_55:\n      mload(0x40)\n      tag_57\n      swap2\n      swap1\n      tag_23\n      jump\t// in\n    tag_57:\n      mload(0x40)\n      dup1\n      swap2\n      sub\n      swap1\n      return\n        /* \"compound_2/CTokenInterfaces.sol\":1845:1868  uint public borrowIndex */\n    tag_14:\n      tag_58\n      tag_59\n      jump\t// in\n    tag_58:\n      mload(0x40)\n      tag_60\n      swap2\n      swap1\n      tag_27\n      jump\t// in\n    tag_60:\n      mload(0x40)\n      dup1\n      swap2\n      sub\n      swap1\n      return\n        /* \"compound_2/CTokenInterfaces.sol\":1306:1348  InterestRateModel public interestRateModel */\n    tag_15:\n      tag_61\n      tag_62\n      jump\t// in\n    tag_61:\n      mload(0x40)\n      tag_63\n      swap2\n      swap1\n      tag_64\n      jump\t// in\n    tag_63:\n      mload(0x40)\n      dup1\n      swap2\n      sub\n      swap1\n      return\n        /* \"compound_2/CTokenInterfaces.sol\":943:971  address payable public admin */\n    tag_16:\n      tag_65\n      tag_66\n      jump\t// in\n    tag_65:\n      mload(0x40)\n      tag_67\n      swap2\n      swap1\n      tag_34\n      jump\t// in\n    tag_67:\n      mload(0x40)\n      dup1\n      swap2\n      sub\n      swap1\n      return\n        /* \"compound_2/CTokenInterfaces.sol\":402:420  string public name */\n    tag_21:\n      0x01\n      dup1\n      sload\n      tag_68\n      swap1\n      tag_69\n      jump\t// in\n    tag_68:\n      dup1\n      0x1f\n      add\n      0x20\n      dup1\n      swap2\n      div\n      mul\n      0x20\n      add\n      mload(0x40)\n      swap1\n      dup2\n      add\n      0x40\n      mstore\n      dup1\n      swap3\n      swap2\n      swap1\n      dup2\n      dup2\n      mstore\n      0x20\n      add\n      dup3\n      dup1\n      sload\n      tag_70\n      swap1\n      tag_69\n      jump\t// in\n    tag_70:\n      dup1\n      iszero\n      tag_71\n      jumpi\n      dup1\n      0x1f\n      lt\n      tag_72\n      jumpi\n      0x0100\n      dup1\n      dup4\n      sload\n      div\n      mul\n      dup4\n      mstore\n      swap2\n      0x20\n      add\n      swap2\n      jump(tag_71)\n    tag_72:\n      dup3\n      add\n      swap2\n      swap1\n      0x00\n      mstore\n      keccak256(0x00, 0x20)\n      swap1\n    tag_73:\n      dup2\n      sload\n      dup2\n      mstore\n      swap1\n      0x01\n      add\n      swap1\n      0x20\n      add\n      dup1\n      dup4\n      gt\n      tag_73\n      jumpi\n      dup3\n      swap1\n      sub\n      0x1f\n      and\n      dup3\n      add\n      swap2\n    tag_71:\n      pop\n      pop\n      pop\n      pop\n      pop\n      dup2\n      jump\t// out\n        /* \"compound_2/CTokenInterfaces.sol\":1581:1614  uint public reserveFactorMantissa */\n    tag_25:\n      sload(0x08)\n      dup2\n      jump\t// out\n        /* \"compound_2/CTokenInterfaces.sol\":2201:2224  uint public totalSupply */\n    tag_29:\n      sload(0x0d)\n      dup2\n      jump\t// out\n        /* \"compound_2/CTokenInterfaces.sol\":1049:1084  address payable public pendingAdmin */\n    tag_32:\n      0x04\n      0x00\n      swap1\n      sload\n      swap1\n      0x0100\n      exp\n      swap1\n      div\n      0xffffffffffffffffffffffffffffffffffffffff\n      and\n      dup2\n      jump\t// out\n        /* \"compound_2/CTokenInterfaces.sol\":588:609  uint8 public decimals */\n    tag_36:\n      0x03\n      0x00\n      swap1\n      sload\n      swap1\n      0x0100\n      exp\n      swap1\n      div\n      0xff\n      and\n      dup2\n      jump\t// out\n        /* \"compound_2/CTokenInterfaces.sol\":1975:1999  uint public totalBorrows */\n    tag_40:\n      sload(0x0b)\n      dup2\n      jump\t// out\n        /* \"compound_2/CTokenInterfaces.sol\":1170:1209  ComptrollerInterface public comptroller */\n    tag_43:\n      0x05\n      0x00\n      swap1\n      sload\n      swap1\n      0x0100\n      exp\n      swap1\n      div\n      0xffffffffffffffffffffffffffffffffffffffff\n      and\n      dup2\n      jump\t// out\n        /* \"compound_2/CTokenInterfaces.sol\":3072:3128  uint public constant protocolSeizeShareMantissa = 2.8e16 */\n    tag_47:\n        /* \"compound_2/CTokenInterfaces.sol\":3122:3128  2.8e16 */\n      0x6379da05b60000\n        /* \"compound_2/CTokenInterfaces.sol\":3072:3128  uint public constant protocolSeizeShareMantissa = 2.8e16 */\n      dup2\n      jump\t// out\n        /* \"compound_2/CTokenInterfaces.sol\":1699:1729  uint public accrualBlockNumber */\n    tag_50:\n      sload(0x09)\n      dup2\n      jump\t// out\n        /* \"compound_2/CTokenInterfaces.sol\":2100:2125  uint public totalReserves */\n    tag_53:\n      sload(0x0c)\n      dup2\n      jump\t// out\n        /* \"compound_2/CTokenInterfaces.sol\":493:513  string public symbol */\n    tag_56:\n      0x02\n      dup1\n      sload\n      tag_74\n      swap1\n      tag_69\n      jump\t// in\n    tag_74:\n      dup1\n      0x1f\n      add\n      0x20\n      dup1\n      swap2\n      div\n      mul\n      0x20\n      add\n      mload(0x40)\n      swap1\n      dup2\n      add\n      0x40\n      mstore\n      dup1\n      swap3\n      swap2\n      swap1\n      dup2\n      dup2\n      mstore\n      0x20\n      add\n      dup3\n      dup1\n      sload\n      tag_75\n      swap1\n      tag_69\n      jump\t// in\n    tag_75:\n      dup1\n      iszero\n      tag_76\n      jumpi\n      dup1\n      0x1f\n      lt\n      tag_77\n      jumpi\n      0x0100\n      dup1\n      dup4\n      sload\n      div\n      mul\n      dup4\n      mstore\n      swap2\n      0x20\n      add\n      swap2\n      jump(tag_76)\n    tag_77:\n      dup3\n      add\n      swap2\n      swap1\n      0x00\n      mstore\n      keccak256(0x00, 0x20)\n      swap1\n    tag_78:\n      dup2\n      sload\n      dup2\n      mstore\n      swap1\n      0x01\n      add\n      swap1\n      0x20\n      add\n      dup1\n      dup4\n      gt\n      tag_78\n      jumpi\n      dup3\n      swap1\n      sub\n      0x1f\n      and\n      dup3\n      add\n      swap2\n    tag_76:\n      pop\n      pop\n      pop\n      pop\n      pop\n      dup2\n      jump\t// out\n        /* \"compound_2/CTokenInterfaces.sol\":1845:1868  uint public borrowIndex */\n    tag_59:\n      sload(0x0a)\n      dup2\n      jump\t// out\n        /* \"compound_2/CTokenInterfaces.sol\":1306:1348  InterestRateModel public interestRateModel */\n    tag_62:\n      0x06\n      0x00\n      swap1\n      sload\n      swap1\n      0x0100\n      exp\n      swap1\n      div\n      0xffffffffffffffffffffffffffffffffffffffff\n      and\n      dup2\n      jump\t// out\n        /* \"compound_2/CTokenInterfaces.sol\":943:971  address payable public admin */\n    tag_66:\n      0x03\n      0x01\n      swap1\n      sload\n      swap1\n      0x0100\n      exp\n      swap1\n      div\n      0xffffffffffffffffffffffffffffffffffffffff\n      and\n      dup2\n      jump\t// out\n        /* \"#utility.yul\":7:106   */\n    tag_79:\n        /* \"#utility.yul\":59:65   */\n      0x00\n        /* \"#utility.yul\":93:98   */\n      dup2\n        /* \"#utility.yul\":87:99   */\n      mload\n        /* \"#utility.yul\":77:99   */\n      swap1\n      pop\n        /* \"#utility.yul\":7:106   */\n      swap2\n      swap1\n      pop\n      jump\t// out\n        /* \"#utility.yul\":112:281   */\n    tag_80:\n        /* \"#utility.yul\":196:207   */\n      0x00\n        /* \"#utility.yul\":230:236   */\n      dup3\n        /* \"#utility.yul\":225:228   */\n      dup3\n        /* \"#utility.yul\":218:237   */\n      mstore\n        /* \"#utility.yul\":270:274   */\n      0x20\n        /* \"#utility.yul\":265:268   */\n      dup3\n        /* \"#utility.yul\":261:275   */\n      add\n        /* \"#utility.yul\":246:275   */\n      swap1\n      pop\n        /* \"#utility.yul\":112:281   */\n      swap3\n      swap2\n      pop\n      pop\n      jump\t// out\n        /* \"#utility.yul\":287:533   */\n    tag_81:\n        /* \"#utility.yul\":368:369   */\n      0x00\n        /* \"#utility.yul\":378:491   */\n    tag_103:\n        /* \"#utility.yul\":392:398   */\n      dup4\n        /* \"#utility.yul\":389:390   */\n      dup2\n        /* \"#utility.yul\":386:399   */\n      lt\n        /* \"#utility.yul\":378:491   */\n      iszero\n      tag_105\n      jumpi\n        /* \"#utility.yul\":477:478   */\n      dup1\n        /* \"#utility.yul\":472:475   */\n      dup3\n        /* \"#utility.yul\":468:479   */\n      add\n        /* \"#utility.yul\":462:480   */\n      mload\n        /* \"#utility.yul\":458:459   */\n      dup2\n        /* \"#utility.yul\":453:456   */\n      dup5\n        /* \"#utility.yul\":449:460   */\n      add\n        /* \"#utility.yul\":442:481   */\n      mstore\n        /* \"#utility.yul\":414:416   */\n      0x20\n        /* \"#utility.yul\":411:412   */\n      dup2\n        /* \"#utility.yul\":407:417   */\n      add\n        /* \"#utility.yul\":402:417   */\n      swap1\n      pop\n        /* \"#utility.yul\":378:491   */\n      jump(tag_103)\n    tag_105:\n        /* \"#utility.yul\":525:526   */\n      0x00\n        /* \"#utility.yul\":516:522   */\n      dup5\n        /* \"#utility.yul\":511:514   */\n      dup5\n        /* \"#utility.yul\":507:523   */\n      add\n        /* \"#utility.yul\":500:527   */\n      mstore\n        /* \"#utility.yul\":349:533   */\n      pop\n        /* \"#utility.yul\":287:533   */\n      pop\n      pop\n      pop\n      jump\t// out\n        /* \"#utility.yul\":539:641   */\n    tag_82:\n        /* \"#utility.yul\":580:586   */\n      0x00\n        /* \"#utility.yul\":631:633   */\n      0x1f\n        /* \"#utility.yul\":627:634   */\n      not\n        /* \"#utility.yul\":622:624   */\n      0x1f\n        /* \"#utility.yul\":615:620   */\n      dup4\n        /* \"#utility.yul\":611:625   */\n      add\n        /* \"#utility.yul\":607:635   */\n      and\n        /* \"#utility.yul\":597:635   */\n      swap1\n      pop\n        /* \"#utility.yul\":539:641   */\n      swap2\n      swap1\n      pop\n      jump\t// out\n        /* \"#utility.yul\":647:1024   */\n    tag_83:\n        /* \"#utility.yul\":735:738   */\n      0x00\n        /* \"#utility.yul\":763:802   */\n      tag_108\n        /* \"#utility.yul\":796:801   */\n      dup3\n        /* \"#utility.yul\":763:802   */\n      tag_79\n      jump\t// in\n    tag_108:\n        /* \"#utility.yul\":818:889   */\n      tag_109\n        /* \"#utility.yul\":882:888   */\n      dup2\n        /* \"#utility.yul\":877:880   */\n      dup6\n        /* \"#utility.yul\":818:889   */\n      tag_80\n      jump\t// in\n    tag_109:\n        /* \"#utility.yul\":811:889   */\n      swap4\n      pop\n        /* \"#utility.yul\":898:963   */\n      tag_110\n        /* \"#utility.yul\":956:962   */\n      dup2\n        /* \"#utility.yul\":951:954   */\n      dup6\n        /* \"#utility.yul\":944:948   */\n      0x20\n        /* \"#utility.yul\":937:942   */\n      dup7\n        /* \"#utility.yul\":933:949   */\n      add\n        /* \"#utility.yul\":898:963   */\n      tag_81\n      jump\t// in\n    tag_110:\n        /* \"#utility.yul\":988:1017   */\n      tag_111\n        /* \"#utility.yul\":1010:1016   */\n      dup2\n        /* \"#utility.yul\":988:1017   */\n      tag_82\n      jump\t// in\n    tag_111:\n        /* \"#utility.yul\":983:986   */\n      dup5\n        /* \"#utility.yul\":979:1018   */\n      add\n        /* \"#utility.yul\":972:1018   */\n      swap2\n      pop\n        /* \"#utility.yul\":739:1024   */\n      pop\n        /* \"#utility.yul\":647:1024   */\n      swap3\n      swap2\n      pop\n      pop\n      jump\t// out\n        /* \"#utility.yul\":1030:1343   */\n    tag_23:\n        /* \"#utility.yul\":1143:1147   */\n      0x00\n        /* \"#utility.yul\":1181:1183   */\n      0x20\n        /* \"#utility.yul\":1170:1179   */\n      dup3\n        /* \"#utility.yul\":1166:1184   */\n      add\n        /* \"#utility.yul\":1158:1184   */\n      swap1\n      pop\n        /* \"#utility.yul\":1230:1239   */\n      dup2\n        /* \"#utility.yul\":1224:1228   */\n      dup2\n        /* \"#utility.yul\":1220:1240   */\n      sub\n        /* \"#utility.yul\":1216:1217   */\n      0x00\n        /* \"#utility.yul\":1205:1214   */\n      dup4\n        /* \"#utility.yul\":1201:1218   */\n      add\n        /* \"#utility.yul\":1194:1241   */\n      mstore\n        /* \"#utility.yul\":1258:1336   */\n      tag_113\n        /* \"#utility.yul\":1331:1335   */\n      dup2\n        /* \"#utility.yul\":1322:1328   */\n      dup5\n        /* \"#utility.yul\":1258:1336   */\n      tag_83\n      jump\t// in\n    tag_113:\n        /* \"#utility.yul\":1250:1336   */\n      swap1\n      pop\n        /* \"#utility.yul\":1030:1343   */\n      swap3\n      swap2\n      pop\n      pop\n      jump\t// out\n        /* \"#utility.yul\":1349:1426   */\n    tag_84:\n        /* \"#utility.yul\":1386:1393   */\n      0x00\n        /* \"#utility.yul\":1415:1420   */\n      dup2\n        /* \"#utility.yul\":1404:1420   */\n      swap1\n      pop\n        /* \"#utility.yul\":1349:1426   */\n      swap2\n      swap1\n      pop\n      jump\t// out\n        /* \"#utility.yul\":1432:1550   */\n    tag_85:\n        /* \"#utility.yul\":1519:1543   */\n      tag_116\n        /* \"#utility.yul\":1537:1542   */\n      dup2\n        /* \"#utility.yul\":1519:1543   */\n      tag_84\n      jump\t// in\n    tag_116:\n        /* \"#utility.yul\":1514:1517   */\n      dup3\n        /* \"#utility.yul\":1507:1544   */\n      mstore\n        /* \"#utility.yul\":1432:1550   */\n      pop\n      pop\n      jump\t// out\n        /* \"#utility.yul\":1556:1778   */\n    tag_27:\n        /* \"#utility.yul\":1649:1653   */\n      0x00\n        /* \"#utility.yul\":1687:1689   */\n      0x20\n        /* \"#utility.yul\":1676:1685   */\n      dup3\n        /* \"#utility.yul\":1672:1690   */\n      add\n        /* \"#utility.yul\":1664:1690   */\n      swap1\n      pop\n        /* \"#utility.yul\":1700:1771   */\n      tag_118\n        /* \"#utility.yul\":1768:1769   */\n      0x00\n        /* \"#utility.yul\":1757:1766   */\n      dup4\n        /* \"#utility.yul\":1753:1770   */\n      add\n        /* \"#utility.yul\":1744:1750   */\n      dup5\n        /* \"#utility.yul\":1700:1771   */\n      tag_85\n      jump\t// in\n    tag_118:\n        /* \"#utility.yul\":1556:1778   */\n      swap3\n      swap2\n      pop\n      pop\n      jump\t// out\n        /* \"#utility.yul\":1784:1910   */\n    tag_86:\n        /* \"#utility.yul\":1821:1828   */\n      0x00\n        /* \"#utility.yul\":1861:1903   */\n      0xffffffffffffffffffffffffffffffffffffffff\n        /* \"#utility.yul\":1854:1859   */\n      dup3\n        /* \"#utility.yul\":1850:1904   */\n      and\n        /* \"#utility.yul\":1839:1904   */\n      swap1\n      pop\n        /* \"#utility.yul\":1784:1910   */\n      swap2\n      swap1\n      pop\n      jump\t// out\n        /* \"#utility.yul\":1916:2020   */\n    tag_87:\n        /* \"#utility.yul\":1961:1968   */\n      0x00\n        /* \"#utility.yul\":1990:2014   */\n      tag_121\n        /* \"#utility.yul\":2008:2013   */\n      dup3\n        /* \"#utility.yul\":1990:2014   */\n      tag_86\n      jump\t// in\n    tag_121:\n        /* \"#utility.yul\":1979:2014   */\n      swap1\n      pop\n        /* \"#utility.yul\":1916:2020   */\n      swap2\n      swap1\n      pop\n      jump\t// out\n        /* \"#utility.yul\":2026:2168   */\n    tag_88:\n        /* \"#utility.yul\":2129:2161   */\n      tag_123\n        /* \"#utility.yul\":2155:2160   */\n      dup2\n        /* \"#utility.yul\":2129:2161   */\n      tag_87\n      jump\t// in\n    tag_123:\n        /* \"#utility.yul\":2124:2127   */\n      dup3\n        /* \"#utility.yul\":2117:2162   */\n      mstore\n        /* \"#utility.yul\":2026:2168   */\n      pop\n      pop\n      jump\t// out\n        /* \"#utility.yul\":2174:2428   */\n    tag_34:\n        /* \"#utility.yul\":2283:2287   */\n      0x00\n        /* \"#utility.yul\":2321:2323   */\n      0x20\n        /* \"#utility.yul\":2310:2319   */\n      dup3\n        /* \"#utility.yul\":2306:2324   */\n      add\n        /* \"#utility.yul\":2298:2324   */\n      swap1\n      pop\n        /* \"#utility.yul\":2334:2421   */\n      tag_125\n        /* \"#utility.yul\":2418:2419   */\n      0x00\n        /* \"#utility.yul\":2407:2416   */\n      dup4\n        /* \"#utility.yul\":2403:2420   */\n      add\n        /* \"#utility.yul\":2394:2400   */\n      dup5\n        /* \"#utility.yul\":2334:2421   */\n      tag_88\n      jump\t// in\n    tag_125:\n        /* \"#utility.yul\":2174:2428   */\n      swap3\n      swap2\n      pop\n      pop\n      jump\t// out\n        /* \"#utility.yul\":2434:2520   */\n    tag_89:\n        /* \"#utility.yul\":2469:2476   */\n      0x00\n        /* \"#utility.yul\":2509:2513   */\n      0xff\n        /* \"#utility.yul\":2502:2507   */\n      dup3\n        /* \"#utility.yul\":2498:2514   */\n      and\n        /* \"#utility.yul\":2487:2514   */\n      swap1\n      pop\n        /* \"#utility.yul\":2434:2520   */\n      swap2\n      swap1\n      pop\n      jump\t// out\n        /* \"#utility.yul\":2526:2638   */\n    tag_90:\n        /* \"#utility.yul\":2609:2631   */\n      tag_128\n        /* \"#utility.yul\":2625:2630   */\n      dup2\n        /* \"#utility.yul\":2609:2631   */\n      tag_89\n      jump\t// in\n    tag_128:\n        /* \"#utility.yul\":2604:2607   */\n      dup3\n        /* \"#utility.yul\":2597:2632   */\n      mstore\n        /* \"#utility.yul\":2526:2638   */\n      pop\n      pop\n      jump\t// out\n        /* \"#utility.yul\":2644:2858   */\n    tag_38:\n        /* \"#utility.yul\":2733:2737   */\n      0x00\n        /* \"#utility.yul\":2771:2773   */\n      0x20\n        /* \"#utility.yul\":2760:2769   */\n      dup3\n        /* \"#utility.yul\":2756:2774   */\n      add\n        /* \"#utility.yul\":2748:2774   */\n      swap1\n      pop\n        /* \"#utility.yul\":2784:2851   */\n      tag_130\n        /* \"#utility.yul\":2848:2849   */\n      0x00\n        /* \"#utility.yul\":2837:2846   */\n      dup4\n        /* \"#utility.yul\":2833:2850   */\n      add\n        /* \"#utility.yul\":2824:2830   */\n      dup5\n        /* \"#utility.yul\":2784:2851   */\n      tag_90\n      jump\t// in\n    tag_130:\n        /* \"#utility.yul\":2644:2858   */\n      swap3\n      swap2\n      pop\n      pop\n      jump\t// out\n        /* \"#utility.yul\":2864:2924   */\n    tag_91:\n        /* \"#utility.yul\":2892:2895   */\n      0x00\n        /* \"#utility.yul\":2913:2918   */\n      dup2\n        /* \"#utility.yul\":2906:2918   */\n      swap1\n      pop\n        /* \"#utility.yul\":2864:2924   */\n      swap2\n      swap1\n      pop\n      jump\t// out\n        /* \"#utility.yul\":2930:3072   */\n    tag_92:\n        /* \"#utility.yul\":2980:2989   */\n      0x00\n        /* \"#utility.yul\":3013:3066   */\n      tag_133\n        /* \"#utility.yul\":3031:3065   */\n      tag_134\n        /* \"#utility.yul\":3040:3064   */\n      tag_135\n        /* \"#utility.yul\":3058:3063   */\n      dup5\n        /* \"#utility.yul\":3040:3064   */\n      tag_86\n      jump\t// in\n    tag_135:\n        /* \"#utility.yul\":3031:3065   */\n      tag_91\n      jump\t// in\n    tag_134:\n        /* \"#utility.yul\":3013:3066   */\n      tag_86\n      jump\t// in\n    tag_133:\n        /* \"#utility.yul\":3000:3066   */\n      swap1\n      pop\n        /* \"#utility.yul\":2930:3072   */\n      swap2\n      swap1\n      pop\n      jump\t// out\n        /* \"#utility.yul\":3078:3204   */\n    tag_93:\n        /* \"#utility.yul\":3128:3137   */\n      0x00\n        /* \"#utility.yul\":3161:3198   */\n      tag_137\n        /* \"#utility.yul\":3192:3197   */\n      dup3\n        /* \"#utility.yul\":3161:3198   */\n      tag_92\n      jump\t// in\n    tag_137:\n        /* \"#utility.yul\":3148:3198   */\n      swap1\n      pop\n        /* \"#utility.yul\":3078:3204   */\n      swap2\n      swap1\n      pop\n      jump\t// out\n        /* \"#utility.yul\":3210:3364   */\n    tag_94:\n        /* \"#utility.yul\":3288:3297   */\n      0x00\n        /* \"#utility.yul\":3321:3358   */\n      tag_139\n        /* \"#utility.yul\":3352:3357   */\n      dup3\n        /* \"#utility.yul\":3321:3358   */\n      tag_93\n      jump\t// in\n    tag_139:\n        /* \"#utility.yul\":3308:3358   */\n      swap1\n      pop\n        /* \"#utility.yul\":3210:3364   */\n      swap2\n      swap1\n      pop\n      jump\t// out\n        /* \"#utility.yul\":3370:3557   */\n    tag_95:\n        /* \"#utility.yul\":3485:3550   */\n      tag_141\n        /* \"#utility.yul\":3544:3549   */\n      dup2\n        /* \"#utility.yul\":3485:3550   */\n      tag_94\n      jump\t// in\n    tag_141:\n        /* \"#utility.yul\":3480:3483   */\n      dup3\n        /* \"#utility.yul\":3473:3551   */\n      mstore\n        /* \"#utility.yul\":3370:3557   */\n      pop\n      pop\n      jump\t// out\n        /* \"#utility.yul\":3563:3841   */\n    tag_45:\n        /* \"#utility.yul\":3684:3688   */\n      0x00\n        /* \"#utility.yul\":3722:3724   */\n      0x20\n        /* \"#utility.yul\":3711:3720   */\n      dup3\n        /* \"#utility.yul\":3707:3725   */\n      add\n        /* \"#utility.yul\":3699:3725   */\n      swap1\n      pop\n        /* \"#utility.yul\":3735:3834   */\n      tag_143\n        /* \"#utility.yul\":3831:3832   */\n      0x00\n        /* \"#utility.yul\":3820:3829   */\n      dup4\n        /* \"#utility.yul\":3816:3833   */\n      add\n        /* \"#utility.yul\":3807:3813   */\n      dup5\n        /* \"#utility.yul\":3735:3834   */\n      tag_95\n      jump\t// in\n    tag_143:\n        /* \"#utility.yul\":3563:3841   */\n      swap3\n      swap2\n      pop\n      pop\n      jump\t// out\n        /* \"#utility.yul\":3847:3999   */\n    tag_96:\n        /* \"#utility.yul\":3923:3932   */\n      0x00\n        /* \"#utility.yul\":3956:3993   */\n      tag_145\n        /* \"#utility.yul\":3987:3992   */\n      dup3\n        /* \"#utility.yul\":3956:3993   */\n      tag_93\n      jump\t// in\n    tag_145:\n        /* \"#utility.yul\":3943:3993   */\n      swap1\n      pop\n        /* \"#utility.yul\":3847:3999   */\n      swap2\n      swap1\n      pop\n      jump\t// out\n        /* \"#utility.yul\":4005:4188   */\n    tag_97:\n        /* \"#utility.yul\":4118:4181   */\n      tag_147\n        /* \"#utility.yul\":4175:4180   */\n      dup2\n        /* \"#utility.yul\":4118:4181   */\n      tag_96\n      jump\t// in\n    tag_147:\n        /* \"#utility.yul\":4113:4116   */\n      dup3\n        /* \"#utility.yul\":4106:4182   */\n      mstore\n        /* \"#utility.yul\":4005:4188   */\n      pop\n      pop\n      jump\t// out\n        /* \"#utility.yul\":4194:4468   */\n    tag_64:\n        /* \"#utility.yul\":4313:4317   */\n      0x00\n        /* \"#utility.yul\":4351:4353   */\n      0x20\n        /* \"#utility.yul\":4340:4349   */\n      dup3\n        /* \"#utility.yul\":4336:4354   */\n      add\n        /* \"#utility.yul\":4328:4354   */\n      swap1\n      pop\n        /* \"#utility.yul\":4364:4461   */\n      tag_149\n        /* \"#utility.yul\":4458:4459   */\n      0x00\n        /* \"#utility.yul\":4447:4456   */\n      dup4\n        /* \"#utility.yul\":4443:4460   */\n      add\n        /* \"#utility.yul\":4434:4440   */\n      dup5\n        /* \"#utility.yul\":4364:4461   */\n      tag_97\n      jump\t// in\n    tag_149:\n        /* \"#utility.yul\":4194:4468   */\n      swap3\n      swap2\n      pop\n      pop\n      jump\t// out\n        /* \"#utility.yul\":4474:4654   */\n    tag_98:\n        /* \"#utility.yul\":4522:4599   */\n      0x4e487b7100000000000000000000000000000000000000000000000000000000\n        /* \"#utility.yul\":4519:4520   */\n      0x00\n        /* \"#utility.yul\":4512:4600   */\n      mstore\n        /* \"#utility.yul\":4619:4623   */\n      0x22\n        /* \"#utility.yul\":4616:4617   */\n      0x04\n        /* \"#utility.yul\":4609:4624   */\n      mstore\n        /* \"#utility.yul\":4643:4647   */\n      0x24\n        /* \"#utility.yul\":4640:4641   */\n      0x00\n        /* \"#utility.yul\":4633:4648   */\n      revert\n        /* \"#utility.yul\":4660:4980   */\n    tag_69:\n        /* \"#utility.yul\":4704:4710   */\n      0x00\n        /* \"#utility.yul\":4741:4742   */\n      0x02\n        /* \"#utility.yul\":4735:4739   */\n      dup3\n        /* \"#utility.yul\":4731:4743   */\n      div\n        /* \"#utility.yul\":4721:4743   */\n      swap1\n      pop\n        /* \"#utility.yul\":4788:4789   */\n      0x01\n        /* \"#utility.yul\":4782:4786   */\n      dup3\n        /* \"#utility.yul\":4778:4790   */\n      and\n        /* \"#utility.yul\":4809:4827   */\n      dup1\n        /* \"#utility.yul\":4799:4880   */\n      tag_152\n      jumpi\n        /* \"#utility.yul\":4865:4869   */\n      0x7f\n        /* \"#utility.yul\":4857:4863   */\n      dup3\n        /* \"#utility.yul\":4853:4870   */\n      and\n        /* \"#utility.yul\":4843:4870   */\n      swap2\n      pop\n        /* \"#utility.yul\":4799:4880   */\n    tag_152:\n        /* \"#utility.yul\":4927:4929   */\n      0x20\n        /* \"#utility.yul\":4919:4925   */\n      dup3\n        /* \"#utility.yul\":4916:4930   */\n      lt\n        /* \"#utility.yul\":4896:4914   */\n      dup2\n        /* \"#utility.yul\":4893:4931   */\n      sub\n        /* \"#utility.yul\":4890:4974   */\n      tag_153\n      jumpi\n        /* \"#utility.yul\":4946:4964   */\n      tag_154\n      tag_98\n      jump\t// in\n    tag_154:\n        /* \"#utility.yul\":4890:4974   */\n    tag_153:\n        /* \"#utility.yul\":4711:4980   */\n      pop\n        /* \"#utility.yul\":4660:4980   */\n      swap2\n      swap1\n      pop\n      jump\t// out\n\n    auxdata: 0xa2646970667358221220fcf3ca6a9bdb98c49c30f57d9111d62a459a8b417756db3dd80c413537d1849164736f6c63430008150033\n}\n",
				"bytecode": {
					"linkReferences": {},
					"object": "608060405234801561000f575f80fd5b506107258061001d5f395ff3fe608060405234801561000f575f80fd5b50600436106100e8575f3560e01c80636752e7021161008a57806395d89b411161006457806395d89b4114610218578063aa5af0fd14610236578063f3fdb15a14610254578063f851a44014610272576100e8565b80636752e702146101be5780636c540baf146101dc5780638f840ddd146101fa576100e8565b806326782247116100c65780632678224714610146578063313ce5671461016457806347bd3718146101825780635fe3b567146101a0576100e8565b806306fdde03146100ec578063173b99041461010a57806318160ddd14610128575b5f80fd5b6100f4610290565b6040516101019190610508565b60405180910390f35b61011261031c565b60405161011f9190610540565b60405180910390f35b610130610322565b60405161013d9190610540565b60405180910390f35b61014e610328565b60405161015b9190610598565b60405180910390f35b61016c61034d565b60405161017991906105cc565b60405180910390f35b61018a61035f565b6040516101979190610540565b60405180910390f35b6101a8610365565b6040516101b59190610640565b60405180910390f35b6101c661038a565b6040516101d39190610540565b60405180910390f35b6101e4610395565b6040516101f19190610540565b60405180910390f35b61020261039b565b60405161020f9190610540565b60405180910390f35b6102206103a1565b60405161022d9190610508565b60405180910390f35b61023e61042d565b60405161024b9190610540565b60405180910390f35b61025c610433565b6040516102699190610679565b60405180910390f35b61027a610458565b6040516102879190610598565b60405180910390f35b6001805461029d906106bf565b80601f01602080910402602001604051908101604052809291908181526020018280546102c9906106bf565b80156103145780601f106102eb57610100808354040283529160200191610314565b820191905f5260205f20905b8154815290600101906020018083116102f757829003601f168201915b505050505081565b60085481565b600d5481565b60045f9054906101000a900473ffffffffffffffffffffffffffffffffffffffff1681565b60035f9054906101000a900460ff1681565b600b5481565b60055f9054906101000a900473ffffffffffffffffffffffffffffffffffffffff1681565b666379da05b6000081565b60095481565b600c5481565b600280546103ae906106bf565b80601f01602080910402602001604051908101604052809291908181526020018280546103da906106bf565b80156104255780601f106103fc57610100808354040283529160200191610425565b820191905f5260205f20905b81548152906001019060200180831161040857829003601f168201915b505050505081565b600a5481565b60065f9054906101000a900473ffffffffffffffffffffffffffffffffffffffff1681565b600360019054906101000a900473ffffffffffffffffffffffffffffffffffffffff1681565b5f81519050919050565b5f82825260208201905092915050565b5f5b838110156104b557808201518184015260208101905061049a565b5f8484015250505050565b5f601f19601f8301169050919050565b5f6104da8261047e565b6104e48185610488565b93506104f4818560208601610498565b6104fd816104c0565b840191505092915050565b5f6020820190508181035f83015261052081846104d0565b905092915050565b5f819050919050565b61053a81610528565b82525050565b5f6020820190506105535f830184610531565b92915050565b5f73ffffffffffffffffffffffffffffffffffffffff82169050919050565b5f61058282610559565b9050919050565b61059281610578565b82525050565b5f6020820190506105ab5f830184610589565b92915050565b5f60ff82169050919050565b6105c6816105b1565b82525050565b5f6020820190506105df5f8301846105bd565b92915050565b5f819050919050565b5f6106086106036105fe84610559565b6105e5565b610559565b9050919050565b5f610619826105ee565b9050919050565b5f61062a8261060f565b9050919050565b61063a81610620565b82525050565b5f6020820190506106535f830184610631565b92915050565b5f6106638261060f565b9050919050565b61067381610659565b82525050565b5f60208201905061068c5f83018461066a565b92915050565b7f4e487b71000000000000000000000000000000000000000000000000000000005f52602260045260245ffd5b5f60028204905060018216806106d657607f821691505b6020821081036106e9576106e8610692565b5b5091905056fea2646970667358221220fcf3ca6a9bdb98c49c30f57d9111d62a459a8b417756db3dd80c413537d1849164736f6c63430008150033",
					"opcodes": "PUSH1 0x80 PUSH1 0x40 MSTORE CALLVALUE DUP1 ISZERO PUSH2 0xF JUMPI PUSH0 DUP1 REVERT JUMPDEST POP PUSH2 0x725 DUP1 PUSH2 0x1D PUSH0 CODECOPY PUSH0 RETURN INVALID PUSH1 0x80 PUSH1 0x40 MSTORE CALLVALUE DUP1 ISZERO PUSH2 0xF JUMPI PUSH0 DUP1 REVERT JUMPDEST POP PUSH1 0x4 CALLDATASIZE LT PUSH2 0xE8 JUMPI PUSH0 CALLDATALOAD PUSH1 0xE0 SHR DUP1 PUSH4 0x6752E702 GT PUSH2 0x8A JUMPI DUP1 PUSH4 0x95D89B41 GT PUSH2 0x64 JUMPI DUP1 PUSH4 0x95D89B41 EQ PUSH2 0x218 JUMPI DUP1 PUSH4 0xAA5AF0FD EQ PUSH2 0x236 JUMPI DUP1 PUSH4 0xF3FDB15A EQ PUSH2 0x254 JUMPI DUP1 PUSH4 0xF851A440 EQ PUSH2 0x272 JUMPI PUSH2 0xE8 JUMP JUMPDEST DUP1 PUSH4 0x6752E702 EQ PUSH2 0x1BE JUMPI DUP1 PUSH4 0x6C540BAF EQ PUSH2 0x1DC JUMPI DUP1 PUSH4 0x8F840DDD EQ PUSH2 0x1FA JUMPI PUSH2 0xE8 JUMP JUMPDEST DUP1 PUSH4 0x26782247 GT PUSH2 0xC6 JUMPI DUP1 PUSH4 0x26782247 EQ PUSH2 0x146 JUMPI DUP1 PUSH4 0x313CE567 EQ PUSH2 0x164 JUMPI DUP1 PUSH4 0x47BD3718 EQ PUSH2 0x182 JUMPI DUP1 PUSH4 0x5FE3B567 EQ PUSH2 0x1A0 JUMPI PUSH2 0xE8 JUMP JUMPDEST DUP1 PUSH4 0x6FDDE03 EQ PUSH2 0xEC JUMPI DUP1 PUSH4 0x173B9904 EQ PUSH2 0x10A JUMPI DUP1 PUSH4 0x18160DDD EQ PUSH2 0x128 JUMPI JUMPDEST PUSH0 DUP1 REVERT JUMPDEST PUSH2 0xF4 PUSH2 0x290 JUMP JUMPDEST PUSH1 0x40 MLOAD PUSH2 0x101 SWAP2 SWAP1 PUSH2 0x508 JUMP JUMPDEST PUSH1 0x40 MLOAD DUP1 SWAP2 SUB SWAP1 RETURN JUMPDEST PUSH2 0x112 PUSH2 0x31C JUMP JUMPDEST PUSH1 0x40 MLOAD PUSH2 0x11F SWAP2 SWAP1 PUSH2 0x540 JUMP JUMPDEST PUSH1 0x40 MLOAD DUP1 SWAP2 SUB SWAP1 RETURN JUMPDEST PUSH2 0x130 PUSH2 0x322 JUMP JUMPDEST PUSH1 0x40 MLOAD PUSH2 0x13D SWAP2 SWAP1 PUSH2 0x540 JUMP JUMPDEST PUSH1 0x40 MLOAD DUP1 SWAP2 SUB SWAP1 RETURN JUMPDEST PUSH2 0x14E PUSH2 0x328 JUMP JUMPDEST PUSH1 0x40 MLOAD PUSH2 0x15B SWAP2 SWAP1 PUSH2 0x598 JUMP JUMPDEST PUSH1 0x40 MLOAD DUP1 SWAP2 SUB SWAP1 RETURN JUMPDEST PUSH2 0x16C PUSH2 0x34D JUMP JUMPDEST PUSH1 0x40 MLOAD PUSH2 0x179 SWAP2 SWAP1 PUSH2 0x5CC JUMP JUMPDEST PUSH1 0x40 MLOAD DUP1 SWAP2 SUB SWAP1 RETURN JUMPDEST PUSH2 0x18A PUSH2 0x35F JUMP JUMPDEST PUSH1 0x40 MLOAD PUSH2 0x197 SWAP2 SWAP1 PUSH2 0x540 JUMP JUMPDEST PUSH1 0x40 MLOAD DUP1 SWAP2 SUB SWAP1 RETURN JUMPDEST PUSH2 0x1A8 PUSH2 0x365 JUMP JUMPDEST PUSH1 0x40 MLOAD PUSH2 0x1B5 SWAP2 SWAP1 PUSH2 0x640 JUMP JUMPDEST PUSH1 0x40 MLOAD DUP1 SWAP2 SUB SWAP1 RETURN JUMPDEST PUSH2 0x1C6 PUSH2 0x38A JUMP JUMPDEST PUSH1 0x40 MLOAD PUSH2 0x1D3 SWAP2 SWAP1 PUSH2 0x540 JUMP JUMPDEST PUSH1 0x40 MLOAD DUP1 SWAP2 SUB SWAP1 RETURN JUMPDEST PUSH2 0x1E4 PUSH2 0x395 JUMP JUMPDEST PUSH1 0x40 MLOAD PUSH2 0x1F1 SWAP2 SWAP1 PUSH2 0x540 JUMP JUMPDEST PUSH1 0x40 MLOAD DUP1 SWAP2 SUB SWAP1 RETURN JUMPDEST PUSH2 0x202 PUSH2 0x39B JUMP JUMPDEST PUSH1 0x40 MLOAD PUSH2 0x20F SWAP2 SWAP1 PUSH2 0x540 JUMP JUMPDEST PUSH1 0x40 MLOAD DUP1 SWAP2 SUB SWAP1 RETURN JUMPDEST PUSH2 0x220 PUSH2 0x3A1 JUMP JUMPDEST PUSH1 0x40 MLOAD PUSH2 0x22D SWAP2 SWAP1 PUSH2 0x508 JUMP JUMPDEST PUSH1 0x40 MLOAD DUP1 SWAP2 SUB SWAP1 RETURN JUMPDEST PUSH2 0x23E PUSH2 0x42D JUMP JUMPDEST PUSH1 0x40 MLOAD PUSH2 0x24B SWAP2 SWAP1 PUSH2 0x540 JUMP JUMPDEST PUSH1 0x40 MLOAD DUP1 SWAP2 SUB SWAP1 RETURN JUMPDEST PUSH2 0x25C PUSH2 0x433 JUMP JUMPDEST PUSH1 0x40 MLOAD PUSH2 0x269 SWAP2 SWAP1 PUSH2 0x679 JUMP JUMPDEST PUSH1 0x40 MLOAD DUP1 SWAP2 SUB SWAP1 RETURN JUMPDEST PUSH2 0x27A PUSH2 0x458 JUMP JUMPDEST PUSH1 0x40 MLOAD PUSH2 0x287 SWAP2 SWAP1 PUSH2 0x598 JUMP JUMPDEST PUSH1 0x40 MLOAD DUP1 SWAP2 SUB SWAP1 RETURN JUMPDEST PUSH1 0x1 DUP1 SLOAD PUSH2 0x29D SWAP1 PUSH2 0x6BF JUMP JUMPDEST DUP1 PUSH1 0x1F ADD PUSH1 0x20 DUP1 SWAP2 DIV MUL PUSH1 0x20 ADD PUSH1 0x40 MLOAD SWAP1 DUP2 ADD PUSH1 0x40 MSTORE DUP1 SWAP3 SWAP2 SWAP1 DUP2 DUP2 MSTORE PUSH1 0x20 ADD DUP3 DUP1 SLOAD PUSH2 0x2C9 SWAP1 PUSH2 0x6BF JUMP JUMPDEST DUP1 ISZERO PUSH2 0x314 JUMPI DUP1 PUSH1 0x1F LT PUSH2 0x2EB JUMPI PUSH2 0x100 DUP1 DUP4 SLOAD DIV MUL DUP4 MSTORE SWAP2 PUSH1 0x20 ADD SWAP2 PUSH2 0x314 JUMP JUMPDEST DUP3 ADD SWAP2 SWAP1 PUSH0 MSTORE PUSH1 0x20 PUSH0 KECCAK256 SWAP1 JUMPDEST DUP2 SLOAD DUP2 MSTORE SWAP1 PUSH1 0x1 ADD SWAP1 PUSH1 0x20 ADD DUP1 DUP4 GT PUSH2 0x2F7 JUMPI DUP3 SWAP1 SUB PUSH1 0x1F AND DUP3 ADD SWAP2 JUMPDEST POP POP POP POP POP DUP2 JUMP JUMPDEST PUSH1 0x8 SLOAD DUP2 JUMP JUMPDEST PUSH1 0xD SLOAD DUP2 JUMP JUMPDEST PUSH1 0x4 PUSH0 SWAP1 SLOAD SWAP1 PUSH2 0x100 EXP SWAP1 DIV PUSH20 0xFFFFFFFFFFFFFFFFFFFFFFFFFFFFFFFFFFFFFFFF AND DUP2 JUMP JUMPDEST PUSH1 0x3 PUSH0 SWAP1 SLOAD SWAP1 PUSH2 0x100 EXP SWAP1 DIV PUSH1 0xFF AND DUP2 JUMP JUMPDEST PUSH1 0xB SLOAD DUP2 JUMP JUMPDEST PUSH1 0x5 PUSH0 SWAP1 SLOAD SWAP1 PUSH2 0x100 EXP SWAP1 DIV PUSH20 0xFFFFFFFFFFFFFFFFFFFFFFFFFFFFFFFFFFFFFFFF AND DUP2 JUMP JUMPDEST PUSH7 0x6379DA05B60000 DUP2 JUMP JUMPDEST PUSH1 0x9 SLOAD DUP2 JUMP JUMPDEST PUSH1 0xC SLOAD DUP2 JUMP JUMPDEST PUSH1 0x2 DUP1 SLOAD PUSH2 0x3AE SWAP1 PUSH2 0x6BF JUMP JUMPDEST DUP1 PUSH1 0x1F ADD PUSH1 0x20 DUP1 SWAP2 DIV MUL PUSH1 0x20 ADD PUSH1 0x40 MLOAD SWAP1 DUP2 ADD PUSH1 0x40 MSTORE DUP1 SWAP3 SWAP2 SWAP1 DUP2 DUP2 MSTORE PUSH1 0x20 ADD DUP3 DUP1 SLOAD PUSH2 0x3DA SWAP1 PUSH2 0x6BF JUMP JUMPDEST DUP1 ISZERO PUSH2 0x425 JUMPI DUP1 PUSH1 0x1F LT PUSH2 0x3FC JUMPI PUSH2 0x100 DUP1 DUP4 SLOAD DIV MUL DUP4 MSTORE SWAP2 PUSH1 0x20 ADD SWAP2 PUSH2 0x425 JUMP JUMPDEST DUP3 ADD SWAP2 SWAP1 PUSH0 MSTORE PUSH1 0x20 PUSH0 KECCAK256 SWAP1 JUMPDEST DUP2 SLOAD DUP2 MSTORE SWAP1 PUSH1 0x1 ADD SWAP1 PUSH1 0x20 ADD DUP1 DUP4 GT PUSH2 0x408 JUMPI DUP3 SWAP1 SUB PUSH1 0x1F AND DUP3 ADD SWAP2 JUMPDEST POP POP POP POP POP DUP2 JUMP JUMPDEST PUSH1 0xA SLOAD DUP2 JUMP JUMPDEST PUSH1 0x6 PUSH0 SWAP1 SLOAD SWAP1 PUSH2 0x100 EXP SWAP1 DIV PUSH20 0xFFFFFFFFFFFFFFFFFFFFFFFFFFFFFFFFFFFFFFFF AND DUP2 JUMP JUMPDEST PUSH1 0x3 PUSH1 0x1 SWAP1 SLOAD SWAP1 PUSH2 0x100 EXP SWAP1 DIV PUSH20 0xFFFFFFFFFFFFFFFFFFFFFFFFFFFFFFFFFFFFFFFF AND DUP2 JUMP JUMPDEST PUSH0 DUP2 MLOAD SWAP1 POP SWAP2 SWAP1 POP JUMP JUMPDEST PUSH0 DUP3 DUP3 MSTORE PUSH1 0x20 DUP3 ADD SWAP1 POP SWAP3 SWAP2 POP POP JUMP JUMPDEST PUSH0 JUMPDEST DUP4 DUP2 LT ISZERO PUSH2 0x4B5 JUMPI DUP1 DUP3 ADD MLOAD DUP2 DUP5 ADD MSTORE PUSH1 0x20 DUP2 ADD SWAP1 POP PUSH2 0x49A JUMP JUMPDEST PUSH0 DUP5 DUP5 ADD MSTORE POP POP POP POP JUMP JUMPDEST PUSH0 PUSH1 0x1F NOT PUSH1 0x1F DUP4 ADD AND SWAP1 POP SWAP2 SWAP1 POP JUMP JUMPDEST PUSH0 PUSH2 0x4DA DUP3 PUSH2 0x47E JUMP JUMPDEST PUSH2 0x4E4 DUP2 DUP6 PUSH2 0x488 JUMP JUMPDEST SWAP4 POP PUSH2 0x4F4 DUP2 DUP6 PUSH1 0x20 DUP7 ADD PUSH2 0x498 JUMP JUMPDEST PUSH2 0x4FD DUP2 PUSH2 0x4C0 JUMP JUMPDEST DUP5 ADD SWAP2 POP POP SWAP3 SWAP2 POP POP JUMP JUMPDEST PUSH0 PUSH1 0x20 DUP3 ADD SWAP1 POP DUP2 DUP2 SUB PUSH0 DUP4 ADD MSTORE PUSH2 0x520 DUP2 DUP5 PUSH2 0x4D0 JUMP JUMPDEST SWAP1 POP SWAP3 SWAP2 POP POP JUMP JUMPDEST PUSH0 DUP2 SWAP1 POP SWAP2 SWAP1 POP JUMP JUMPDEST PUSH2 0x53A DUP2 PUSH2 0x528 JUMP JUMPDEST DUP3 MSTORE POP POP JUMP JUMPDEST PUSH0 PUSH1 0x20 DUP3 ADD SWAP1 POP PUSH2 0x553 PUSH0 DUP4 ADD DUP5 PUSH2 0x531 JUMP JUMPDEST SWAP3 SWAP2 POP POP JUMP JUMPDEST PUSH0 PUSH20 0xFFFFFFFFFFFFFFFFFFFFFFFFFFFFFFFFFFFFFFFF DUP3 AND SWAP1 POP SWAP2 SWAP1 POP JUMP JUMPDEST PUSH0 PUSH2 0x582 DUP3 PUSH2 0x559 JUMP JUMPDEST SWAP1 POP SWAP2 SWAP1 POP JUMP JUMPDEST PUSH2 0x592 DUP2 PUSH2 0x578 JUMP JUMPDEST DUP3 MSTORE POP POP JUMP JUMPDEST PUSH0 PUSH1 0x20 DUP3 ADD SWAP1 POP PUSH2 0x5AB PUSH0 DUP4 ADD DUP5 PUSH2 0x589 JUMP JUMPDEST SWAP3 SWAP2 POP POP JUMP JUMPDEST PUSH0 PUSH1 0xFF DUP3 AND SWAP1 POP SWAP2 SWAP1 POP JUMP JUMPDEST PUSH2 0x5C6 DUP2 PUSH2 0x5B1 JUMP JUMPDEST DUP3 MSTORE POP POP JUMP JUMPDEST PUSH0 PUSH1 0x20 DUP3 ADD SWAP1 POP PUSH2 0x5DF PUSH0 DUP4 ADD DUP5 PUSH2 0x5BD JUMP JUMPDEST SWAP3 SWAP2 POP POP JUMP JUMPDEST PUSH0 DUP2 SWAP1 POP SWAP2 SWAP1 POP JUMP JUMPDEST PUSH0 PUSH2 0x608 PUSH2 0x603 PUSH2 0x5FE DUP5 PUSH2 0x559 JUMP JUMPDEST PUSH2 0x5E5 JUMP JUMPDEST PUSH2 0x559 JUMP JUMPDEST SWAP1 POP SWAP2 SWAP1 POP JUMP JUMPDEST PUSH0 PUSH2 0x619 DUP3 PUSH2 0x5EE JUMP JUMPDEST SWAP1 POP SWAP2 SWAP1 POP JUMP JUMPDEST PUSH0 PUSH2 0x62A DUP3 PUSH2 0x60F JUMP JUMPDEST SWAP1 POP SWAP2 SWAP1 POP JUMP JUMPDEST PUSH2 0x63A DUP2 PUSH2 0x620 JUMP JUMPDEST DUP3 MSTORE POP POP JUMP JUMPDEST PUSH0 PUSH1 0x20 DUP3 ADD SWAP1 POP PUSH2 0x653 PUSH0 DUP4 ADD DUP5 PUSH2 0x631 JUMP JUMPDEST SWAP3 SWAP2 POP POP JUMP JUMPDEST PUSH0 PUSH2 0x663 DUP3 PUSH2 0x60F JUMP JUMPDEST SWAP1 POP SWAP2 SWAP1 POP JUMP JUMPDEST PUSH2 0x673 DUP2 PUSH2 0x659 JUMP JUMPDEST DUP3 MSTORE POP POP JUMP JUMPDEST PUSH0 PUSH1 0x20 DUP3 ADD SWAP1 POP PUSH2 0x68C PUSH0 DUP4 ADD DUP5 PUSH2 0x66A JUMP JUMPDEST SWAP3 SWAP2 POP POP JUMP JUMPDEST PUSH32 0x4E487B7100000000000000000000000000000000000000000000000000000000 PUSH0 MSTORE PUSH1 0x22 PUSH1 0x4 MSTORE PUSH1 0x24 PUSH0 REVERT JUMPDEST PUSH0 PUSH1 0x2 DUP3 DIV SWAP1 POP PUSH1 0x1 DUP3 AND DUP1 PUSH2 0x6D6 JUMPI PUSH1 0x7F DUP3 AND SWAP2 POP JUMPDEST PUSH1 0x20 DUP3 LT DUP2 SUB PUSH2 0x6E9 JUMPI PUSH2 0x6E8 PUSH2 0x692 JUMP JUMPDEST JUMPDEST POP SWAP2 SWAP1 POP JUMP INVALID LOG2 PUSH5 0x6970667358 0x22 SLT KECCAK256 0xFC RETURN 0xCA PUSH11 0x9BDB98C49C30F57D9111D6 0x2A GASLIMIT SWAP11 DUP12 COINBASE PUSH24 0x56DB3DD80C413537D1849164736F6C634300081500330000 "
				},
				"gasEstimates": {
					"creation": {
						"codeDepositCost": "365800",
						"executionCost": "403",
						"totalCost": "366203"
					},
					"external": {
						"accrualBlockNumber()": "2470",
						"admin()": "2647",
						"borrowIndex()": "2469",
						"comptroller()": "infinite",
						"decimals()": "2511",
						"interestRateModel()": "infinite",
						"name()": "infinite",
						"pendingAdmin()": "2531",
						"protocolSeizeShareMantissa()": "348",
						"reserveFactorMantissa()": "2471",
						"symbol()": "infinite",
						"totalBorrows()": "2492",
						"totalReserves()": "2492",
						"totalSupply()": "2493"
					}
				},
				"methodIdentifiers": {
					"accrualBlockNumber()": "6c540baf",
					"admin()": "f851a440",
					"borrowIndex()": "aa5af0fd",
					"comptroller()": "5fe3b567",
					"decimals()": "313ce567",
					"interestRateModel()": "f3fdb15a",
					"name()": "06fdde03",
					"pendingAdmin()": "26782247",
					"protocolSeizeShareMantissa()": "6752e702",
					"reserveFactorMantissa()": "173b9904",
					"symbol()": "95d89b41",
					"totalBorrows()": "47bd3718",
					"totalReserves()": "8f840ddd",
					"totalSupply()": "18160ddd"
				}
			},
			"storageLayout": {
				"storage": [
					{
						"astId": 8,
						"contract": "compound_2/CTokenInterfaces.sol:CTokenStorage",
						"label": "_notEntered",
						"offset": 0,
						"slot": "0",
						"type": "t_bool"
					},
					{
						"astId": 11,
						"contract": "compound_2/CTokenInterfaces.sol:CTokenStorage",
						"label": "name",
						"offset": 0,
						"slot": "1",
						"type": "t_string_storage"
					},
					{
						"astId": 14,
						"contract": "compound_2/CTokenInterfaces.sol:CTokenStorage",
						"label": "symbol",
						"offset": 0,
						"slot": "2",
						"type": "t_string_storage"
					},
					{
						"astId": 17,
						"contract": "compound_2/CTokenInterfaces.sol:CTokenStorage",
						"label": "decimals",
						"offset": 0,
						"slot": "3",
						"type": "t_uint8"
					},
					{
						"astId": 26,
						"contract": "compound_2/CTokenInterfaces.sol:CTokenStorage",
						"label": "admin",
						"offset": 1,
						"slot": "3",
						"type": "t_address_payable"
					},
					{
						"astId": 29,
						"contract": "compound_2/CTokenInterfaces.sol:CTokenStorage",
						"label": "pendingAdmin",
						"offset": 0,
						"slot": "4",
						"type": "t_address_payable"
					},
					{
						"astId": 33,
						"contract": "compound_2/CTokenInterfaces.sol:CTokenStorage",
						"label": "comptroller",
						"offset": 0,
						"slot": "5",
						"type": "t_contract(ComptrollerInterface)719"
					},
					{
						"astId": 37,
						"contract": "compound_2/CTokenInterfaces.sol:CTokenStorage",
						"label": "interestRateModel",
						"offset": 0,
						"slot": "6",
						"type": "t_contract(InterestRateModel)1041"
					},
					{
						"astId": 39,
						"contract": "compound_2/CTokenInterfaces.sol:CTokenStorage",
						"label": "initialExchangeRateMantissa",
						"offset": 0,
						"slot": "7",
						"type": "t_uint256"
					},
					{
						"astId": 42,
						"contract": "compound_2/CTokenInterfaces.sol:CTokenStorage",
						"label": "reserveFactorMantissa",
						"offset": 0,
						"slot": "8",
						"type": "t_uint256"
					},
					{
						"astId": 45,
						"contract": "compound_2/CTokenInterfaces.sol:CTokenStorage",
						"label": "accrualBlockNumber",
						"offset": 0,
						"slot": "9",
						"type": "t_uint256"
					},
					{
						"astId": 48,
						"contract": "compound_2/CTokenInterfaces.sol:CTokenStorage",
						"label": "borrowIndex",
						"offset": 0,
						"slot": "10",
						"type": "t_uint256"
					},
					{
						"astId": 51,
						"contract": "compound_2/CTokenInterfaces.sol:CTokenStorage",
						"label": "totalBorrows",
						"offset": 0,
						"slot": "11",
						"type": "t_uint256"
					},
					{
						"astId": 54,
						"contract": "compound_2/CTokenInterfaces.sol:CTokenStorage",
						"label": "totalReserves",
						"offset": 0,
						"slot": "12",
						"type": "t_uint256"
					},
					{
						"astId": 57,
						"contract": "compound_2/CTokenInterfaces.sol:CTokenStorage",
						"label": "totalSupply",
						"offset": 0,
						"slot": "13",
						"type": "t_uint256"
					},
					{
						"astId": 61,
						"contract": "compound_2/CTokenInterfaces.sol:CTokenStorage",
						"label": "accountTokens",
						"offset": 0,
						"slot": "14",
						"type": "t_mapping(t_address,t_uint256)"
					},
					{
						"astId": 67,
						"contract": "compound_2/CTokenInterfaces.sol:CTokenStorage",
						"label": "transferAllowances",
						"offset": 0,
						"slot": "15",
						"type": "t_mapping(t_address,t_mapping(t_address,t_uint256))"
					},
					{
						"astId": 78,
						"contract": "compound_2/CTokenInterfaces.sol:CTokenStorage",
						"label": "accountBorrows",
						"offset": 0,
						"slot": "16",
						"type": "t_mapping(t_address,t_struct(BorrowSnapshot)73_storage)"
					}
				],
				"types": {
					"t_address": {
						"encoding": "inplace",
						"label": "address",
						"numberOfBytes": "20"
					},
					"t_address_payable": {
						"encoding": "inplace",
						"label": "address payable",
						"numberOfBytes": "20"
					},
					"t_bool": {
						"encoding": "inplace",
						"label": "bool",
						"numberOfBytes": "1"
					},
					"t_contract(ComptrollerInterface)719": {
						"encoding": "inplace",
						"label": "contract ComptrollerInterface",
						"numberOfBytes": "20"
					},
					"t_contract(InterestRateModel)1041": {
						"encoding": "inplace",
						"label": "contract InterestRateModel",
						"numberOfBytes": "20"
					},
					"t_mapping(t_address,t_mapping(t_address,t_uint256))": {
						"encoding": "mapping",
						"key": "t_address",
						"label": "mapping(address => mapping(address => uint256))",
						"numberOfBytes": "32",
						"value": "t_mapping(t_address,t_uint256)"
					},
					"t_mapping(t_address,t_struct(BorrowSnapshot)73_storage)": {
						"encoding": "mapping",
						"key": "t_address",
						"label": "mapping(address => struct CTokenStorage.BorrowSnapshot)",
						"numberOfBytes": "32",
						"value": "t_struct(BorrowSnapshot)73_storage"
					},
					"t_mapping(t_address,t_uint256)": {
						"encoding": "mapping",
						"key": "t_address",
						"label": "mapping(address => uint256)",
						"numberOfBytes": "32",
						"value": "t_uint256"
					},
					"t_string_storage": {
						"encoding": "bytes",
						"label": "string",
						"numberOfBytes": "32"
					},
					"t_struct(BorrowSnapshot)73_storage": {
						"encoding": "inplace",
						"label": "struct CTokenStorage.BorrowSnapshot",
						"members": [
							{
								"astId": 70,
								"contract": "compound_2/CTokenInterfaces.sol:CTokenStorage",
								"label": "principal",
								"offset": 0,
								"slot": "0",
								"type": "t_uint256"
							},
							{
								"astId": 72,
								"contract": "compound_2/CTokenInterfaces.sol:CTokenStorage",
								"label": "interestIndex",
								"offset": 0,
								"slot": "1",
								"type": "t_uint256"
							}
						],
						"numberOfBytes": "64"
					},
					"t_uint256": {
						"encoding": "inplace",
						"label": "uint256",
						"numberOfBytes": "32"
					},
					"t_uint8": {
						"encoding": "inplace",
						"label": "uint8",
						"numberOfBytes": "1"
					}
				}
			},
			"userdoc": {
				"kind": "user",
				"methods": {
					"accrualBlockNumber()": {
						"notice": "Block number that interest was last accrued at"
					},
					"admin()": {
						"notice": "Administrator for this contract"
					},
					"borrowIndex()": {
						"notice": "Accumulator of the total earned interest rate since the opening of the market"
					},
					"comptroller()": {
						"notice": "Contract which oversees inter-cToken operations"
					},
					"decimals()": {
						"notice": "EIP-20 token decimals for this token"
					},
					"interestRateModel()": {
						"notice": "Model which tells what the current interest rate should be"
					},
					"name()": {
						"notice": "EIP-20 token name for this token"
					},
					"pendingAdmin()": {
						"notice": "Pending administrator for this contract"
					},
					"protocolSeizeShareMantissa()": {
						"notice": "Share of seized collateral that is added to reserves"
					},
					"reserveFactorMantissa()": {
						"notice": "Fraction of interest currently set aside for reserves"
					},
					"symbol()": {
						"notice": "EIP-20 token symbol for this token"
					},
					"totalBorrows()": {
						"notice": "Total amount of outstanding borrows of the underlying in this market"
					},
					"totalReserves()": {
						"notice": "Total amount of reserves of the underlying held in this market"
					},
					"totalSupply()": {
						"notice": "Total number of tokens in circulation"
					}
				},
				"version": 1
			}
		}
	}
}