{
	"data": {
		"bytecode": {
			"linkReferences": {},
			"object": "60806040523480156200001157600080fd5b50604051620011a4380380620011a48339818101604052810190620000379190620002b5565b336000806101000a81548173ffffffffffffffffffffffffffffffffffffffff021916908373ffffffffffffffffffffffffffffffffffffffff16021790555082600160006101000a81548173ffffffffffffffffffffffffffffffffffffffff021916908373ffffffffffffffffffffffffffffffffffffffff16021790555081600260006101000a81548173ffffffffffffffffffffffffffffffffffffffff021916908373ffffffffffffffffffffffffffffffffffffffff16021790555080600360006101000a81548173ffffffffffffffffffffffffffffffffffffffff021916908373ffffffffffffffffffffffffffffffffffffffff1602179055506001600460008573ffffffffffffffffffffffffffffffffffffffff1673ffffffffffffffffffffffffffffffffffffffff16815260200190815260200160002060006101000a81548160ff0219169083151502179055506001600460008473ffffffffffffffffffffffffffffffffffffffff1673ffffffffffffffffffffffffffffffffffffffff16815260200190815260200160002060006101000a81548160ff0219169083151502179055506001600460008373ffffffffffffffffffffffffffffffffffffffff1673ffffffffffffffffffffffffffffffffffffffff16815260200190815260200160002060006101000a81548160ff02191690831515021790555050505062000311565b600080fd5b600073ffffffffffffffffffffffffffffffffffffffff82169050919050565b60006200027d8262000250565b9050919050565b6200028f8162000270565b81146200029b57600080fd5b50565b600081519050620002af8162000284565b92915050565b600080600060608486031215620002d157620002d06200024b565b5b6000620002e1868287016200029e565b9350506020620002f4868287016200029e565b925050604062000307868287016200029e565b9150509250925092565b610e8380620003216000396000f3fe608060405234801561001057600080fd5b50600436106100885760003560e01c8063d76fd2e71161005b578063d76fd2e71461012c578063e6b4360914610148578063f63be0a114610166578063fe52fffa1461018257610088565b8063267b69221461008d5780632b20e397146100c057806346252acf146100de5780636d218e48146100fc575b600080fd5b6100a760048036038101906100a291906105c7565b6101a0565b6040516100b794939291906106c7565b60405180910390f35b6100c8610265565b6040516100d59190610754565b60405180910390f35b6100e661028b565b6040516100f39190610754565b60405180910390f35b6101166004803603810190610111919061079b565b6102af565b60405161012391906107c8565b60405180910390f35b6101466004803603810190610141919061080f565b6102cf565b005b6101506103b8565b60405161015d9190610754565b60405180910390f35b610180600480360381019061017b91906109b0565b6103de565b005b61018a610545565b6040516101979190610754565b60405180910390f35b60056020528060005260406000206000915090508060000160009054906101000a900460ff16908060010154908060020154908060030180546101e290610a76565b80601f016020809104026020016040519081016040528092919081815260200182805461020e90610a76565b801561025b5780601f106102305761010080835404028352916020019161025b565b820191906000526020600020905b81548152906001019060200180831161023e57829003601f168201915b5050505050905084565b600160009054906101000a900473ffffffffffffffffffffffffffffffffffffffff1681565b60008054906101000a900473ffffffffffffffffffffffffffffffffffffffff1681565b60046020528060005260406000206000915054906101000a900460ff1681565b60008054906101000a900473ffffffffffffffffffffffffffffffffffffffff1673ffffffffffffffffffffffffffffffffffffffff163373ffffffffffffffffffffffffffffffffffffffff161461035d576040517f08c379a000000000000000000000000000000000000000000000000000000000815260040161035490610b19565b60405180910390fd5b80600460008473ffffffffffffffffffffffffffffffffffffffff1673ffffffffffffffffffffffffffffffffffffffff16815260200190815260200160002060006101000a81548160ff0219169083151502179055505050565b600360009054906101000a900473ffffffffffffffffffffffffffffffffffffffff1681565b60008054906101000a900473ffffffffffffffffffffffffffffffffffffffff1673ffffffffffffffffffffffffffffffffffffffff163373ffffffffffffffffffffffffffffffffffffffff161461046c576040517f08c379a000000000000000000000000000000000000000000000000000000000815260040161046390610b19565b60405180910390fd5b600042838360405160200161048393929190610b96565b6040516020818303038152906040529050600061049f8261056b565b905060008780156104ad5750865b80156104b65750855b905060405180608001604052808215158152602001838152602001868152602001858152506005600084815260200190815260200160002060008201518160000160006101000a81548160ff021916908315150217905550602082015181600101556040820151816002015560608201518160030190816105379190610d7b565b509050505050505050505050565b600260009054906101000a900473ffffffffffffffffffffffffffffffffffffffff1681565b60006105768261056b565b9050919050565b6000604051905090565b600080fd5b600080fd5b6000819050919050565b6105a481610591565b81146105af57600080fd5b50565b6000813590506105c18161059b565b92915050565b6000602082840312156105dd576105dc610587565b5b60006105eb848285016105b2565b91505092915050565b60008115159050919050565b610609816105f4565b82525050565b61061881610591565b82525050565b6000819050919050565b6106318161061e565b82525050565b600081519050919050565b600082825260208201905092915050565b60005b83811015610671578082015181840152602081019050610656565b60008484015250505050565b6000601f19601f8301169050919050565b600061069982610637565b6106a38185610642565b93506106b3818560208601610653565b6106bc8161067d565b840191505092915050565b60006080820190506106dc6000830187610600565b6106e9602083018661060f565b6106f66040830185610628565b8181036060830152610708818461068e565b905095945050505050565b600073ffffffffffffffffffffffffffffffffffffffff82169050919050565b600061073e82610713565b9050919050565b61074e81610733565b82525050565b60006020820190506107696000830184610745565b92915050565b61077881610733565b811461078357600080fd5b50565b6000813590506107958161076f565b92915050565b6000602082840312156107b1576107b0610587565b5b60006107bf84828501610786565b91505092915050565b60006020820190506107dd6000830184610600565b92915050565b6107ec816105f4565b81146107f757600080fd5b50565b600081359050610809816107e3565b92915050565b6000806040838503121561082657610825610587565b5b600061083485828601610786565b9250506020610845858286016107fa565b9150509250929050565b6108588161061e565b811461086357600080fd5b50565b6000813590506108758161084f565b92915050565b600080fd5b600080fd5b7f4e487b7100000000000000000000000000000000000000000000000000000000600052604160045260246000fd5b6108bd8261067d565b810181811067ffffffffffffffff821117156108dc576108db610885565b5b80604052505050565b60006108ef61057d565b90506108fb82826108b4565b919050565b600067ffffffffffffffff82111561091b5761091a610885565b5b6109248261067d565b9050602081019050919050565b82818337600083830152505050565b600061095361094e84610900565b6108e5565b90508281526020810184848401111561096f5761096e610880565b5b61097a848285610931565b509392505050565b600082601f8301126109975761099661087b565b5b81356109a7848260208601610940565b91505092915050565b600080600080600060a086880312156109cc576109cb610587565b5b60006109da888289016107fa565b95505060206109eb888289016107fa565b94505060406109fc888289016107fa565b9350506060610a0d88828901610866565b925050608086013567ffffffffffffffff811115610a2e57610a2d61058c565b5b610a3a88828901610982565b9150509295509295909350565b7f4e487b7100000000000000000000000000000000000000000000000000000000600052602260045260246000fd5b60006002820490506001821680610a8e57607f821691505b602082108103610aa157610aa0610a47565b5b50919050565b7f4f6e6c79204461746120456e747279204d616e616765722063616e207065726660008201527f6f726d207468697320616374696f6e0000000000000000000000000000000000602082015250565b6000610b03602f83610642565b9150610b0e82610aa7565b604082019050919050565b60006020820190508181036000830152610b3281610af6565b9050919050565b6000819050919050565b610b54610b4f8261061e565b610b39565b82525050565b600081905092915050565b6000610b7082610637565b610b7a8185610b5a565b9350610b8a818560208601610653565b80840191505092915050565b6000610ba28286610b43565b602082019150610bb28285610b43565b602082019150610bc28284610b65565b9150819050949350505050565b60008190508160005260206000209050919050565b60006020601f8301049050919050565b600082821b905092915050565b600060088302610c317fffffffffffffffffffffffffffffffffffffffffffffffffffffffffffffffff82610bf4565b610c3b8683610bf4565b95508019841693508086168417925050509392505050565b6000819050919050565b6000610c78610c73610c6e8461061e565b610c53565b61061e565b9050919050565b6000819050919050565b610c9283610c5d565b610ca6610c9e82610c7f565b848454610c01565b825550505050565b600090565b610cbb610cae565b610cc6818484610c89565b505050565b5b81811015610cea57610cdf600082610cb3565b600181019050610ccc565b5050565b601f821115610d2f57610d0081610bcf565b610d0984610be4565b81016020851015610d18578190505b610d2c610d2485610be4565b830182610ccb565b50505b505050565b600082821c905092915050565b6000610d5260001984600802610d34565b1980831691505092915050565b6000610d6b8383610d41565b9150826002028217905092915050565b610d8482610637565b67ffffffffffffffff811115610d9d57610d9c610885565b5b610da78254610a76565b610db2828285610cee565b600060209050601f831160018114610de55760008415610dd3578287015190505b610ddd8582610d5f565b865550610e45565b601f198416610df386610bcf565b60005b82811015610e1b57848901518255600182019150602085019450602081019050610df6565b86831015610e385784890151610e34601f891682610d41565b8355505b6001600288020188555050505b50505050505056fea26469706673582212200235a8806978b464094db69e3f8bb7eb8590f9688c5715849b0b62b2812d36a264736f6c63430008120033",
			"opcodes": "PUSH1 0x80 PUSH1 0x40 MSTORE CALLVALUE DUP1 ISZERO PUSH3 0x11 JUMPI PUSH1 0x0 DUP1 REVERT JUMPDEST POP PUSH1 0x40 MLOAD PUSH3 0x11A4 CODESIZE SUB DUP1 PUSH3 0x11A4 DUP4 CODECOPY DUP2 DUP2 ADD PUSH1 0x40 MSTORE DUP2 ADD SWAP1 PUSH3 0x37 SWAP2 SWAP1 PUSH3 0x2B5 JUMP JUMPDEST CALLER PUSH1 0x0 DUP1 PUSH2 0x100 EXP DUP2 SLOAD DUP2 PUSH20 0xFFFFFFFFFFFFFFFFFFFFFFFFFFFFFFFFFFFFFFFF MUL NOT AND SWAP1 DUP4 PUSH20 0xFFFFFFFFFFFFFFFFFFFFFFFFFFFFFFFFFFFFFFFF AND MUL OR SWAP1 SSTORE POP DUP3 PUSH1 0x1 PUSH1 0x0 PUSH2 0x100 EXP DUP2 SLOAD DUP2 PUSH20 0xFFFFFFFFFFFFFFFFFFFFFFFFFFFFFFFFFFFFFFFF MUL NOT AND SWAP1 DUP4 PUSH20 0xFFFFFFFFFFFFFFFFFFFFFFFFFFFFFFFFFFFFFFFF AND MUL OR SWAP1 SSTORE POP DUP2 PUSH1 0x2 PUSH1 0x0 PUSH2 0x100 EXP DUP2 SLOAD DUP2 PUSH20 0xFFFFFFFFFFFFFFFFFFFFFFFFFFFFFFFFFFFFFFFF MUL NOT AND SWAP1 DUP4 PUSH20 0xFFFFFFFFFFFFFFFFFFFFFFFFFFFFFFFFFFFFFFFF AND MUL OR SWAP1 SSTORE POP DUP1 PUSH1 0x3 PUSH1 0x0 PUSH2 0x100 EXP DUP2 SLOAD DUP2 PUSH20 0xFFFFFFFFFFFFFFFFFFFFFFFFFFFFFFFFFFFFFFFF MUL NOT AND SWAP1 DUP4 PUSH20 0xFFFFFFFFFFFFFFFFFFFFFFFFFFFFFFFFFFFFFFFF AND MUL OR SWAP1 SSTORE POP PUSH1 0x1 PUSH1 0x4 PUSH1 0x0 DUP6 PUSH20 0xFFFFFFFFFFFFFFFFFFFFFFFFFFFFFFFFFFFFFFFF AND PUSH20 0xFFFFFFFFFFFFFFFFFFFFFFFFFFFFFFFFFFFFFFFF AND DUP2 MSTORE PUSH1 0x20 ADD SWAP1 DUP2 MSTORE PUSH1 0x20 ADD PUSH1 0x0 KECCAK256 PUSH1 0x0 PUSH2 0x100 EXP DUP2 SLOAD DUP2 PUSH1 0xFF MUL NOT AND SWAP1 DUP4 ISZERO ISZERO MUL OR SWAP1 SSTORE POP PUSH1 0x1 PUSH1 0x4 PUSH1 0x0 DUP5 PUSH20 0xFFFFFFFFFFFFFFFFFFFFFFFFFFFFFFFFFFFFFFFF AND PUSH20 0xFFFFFFFFFFFFFFFFFFFFFFFFFFFFFFFFFFFFFFFF AND DUP2 MSTORE PUSH1 0x20 ADD SWAP1 DUP2 MSTORE PUSH1 0x20 ADD PUSH1 0x0 KECCAK256 PUSH1 0x0 PUSH2 0x100 EXP DUP2 SLOAD DUP2 PUSH1 0xFF MUL NOT AND SWAP1 DUP4 ISZERO ISZERO MUL OR SWAP1 SSTORE POP PUSH1 0x1 PUSH1 0x4 PUSH1 0x0 DUP4 PUSH20 0xFFFFFFFFFFFFFFFFFFFFFFFFFFFFFFFFFFFFFFFF AND PUSH20 0xFFFFFFFFFFFFFFFFFFFFFFFFFFFFFFFFFFFFFFFF AND DUP2 MSTORE PUSH1 0x20 ADD SWAP1 DUP2 MSTORE PUSH1 0x20 ADD PUSH1 0x0 KECCAK256 PUSH1 0x0 PUSH2 0x100 EXP DUP2 SLOAD DUP2 PUSH1 0xFF MUL NOT AND SWAP1 DUP4 ISZERO ISZERO MUL OR SWAP1 SSTORE POP POP POP POP PUSH3 0x311 JUMP JUMPDEST PUSH1 0x0 DUP1 REVERT JUMPDEST PUSH1 0x0 PUSH20 0xFFFFFFFFFFFFFFFFFFFFFFFFFFFFFFFFFFFFFFFF DUP3 AND SWAP1 POP SWAP2 SWAP1 POP JUMP JUMPDEST PUSH1 0x0 PUSH3 0x27D DUP3 PUSH3 0x250 JUMP JUMPDEST SWAP1 POP SWAP2 SWAP1 POP JUMP JUMPDEST PUSH3 0x28F DUP2 PUSH3 0x270 JUMP JUMPDEST DUP2 EQ PUSH3 0x29B JUMPI PUSH1 0x0 DUP1 REVERT JUMPDEST POP JUMP JUMPDEST PUSH1 0x0 DUP2 MLOAD SWAP1 POP PUSH3 0x2AF DUP2 PUSH3 0x284 JUMP JUMPDEST SWAP3 SWAP2 POP POP JUMP JUMPDEST PUSH1 0x0 DUP1 PUSH1 0x0 PUSH1 0x60 DUP5 DUP7 SUB SLT ISZERO PUSH3 0x2D1 JUMPI PUSH3 0x2D0 PUSH3 0x24B JUMP JUMPDEST JUMPDEST PUSH1 0x0 PUSH3 0x2E1 DUP7 DUP3 DUP8 ADD PUSH3 0x29E JUMP JUMPDEST SWAP4 POP POP PUSH1 0x20 PUSH3 0x2F4 DUP7 DUP3 DUP8 ADD PUSH3 0x29E JUMP JUMPDEST SWAP3 POP POP PUSH1 0x40 PUSH3 0x307 DUP7 DUP3 DUP8 ADD PUSH3 0x29E JUMP JUMPDEST SWAP2 POP POP SWAP3 POP SWAP3 POP SWAP3 JUMP JUMPDEST PUSH2 0xE83 DUP1 PUSH3 0x321 PUSH1 0x0 CODECOPY PUSH1 0x0 RETURN INVALID PUSH1 0x80 PUSH1 0x40 MSTORE CALLVALUE DUP1 ISZERO PUSH2 0x10 JUMPI PUSH1 0x0 DUP1 REVERT JUMPDEST POP PUSH1 0x4 CALLDATASIZE LT PUSH2 0x88 JUMPI PUSH1 0x0 CALLDATALOAD PUSH1 0xE0 SHR DUP1 PUSH4 0xD76FD2E7 GT PUSH2 0x5B JUMPI DUP1 PUSH4 0xD76FD2E7 EQ PUSH2 0x12C JUMPI DUP1 PUSH4 0xE6B43609 EQ PUSH2 0x148 JUMPI DUP1 PUSH4 0xF63BE0A1 EQ PUSH2 0x166 JUMPI DUP1 PUSH4 0xFE52FFFA EQ PUSH2 0x182 JUMPI PUSH2 0x88 JUMP JUMPDEST DUP1 PUSH4 0x267B6922 EQ PUSH2 0x8D JUMPI DUP1 PUSH4 0x2B20E397 EQ PUSH2 0xC0 JUMPI DUP1 PUSH4 0x46252ACF EQ PUSH2 0xDE JUMPI DUP1 PUSH4 0x6D218E48 EQ PUSH2 0xFC JUMPI JUMPDEST PUSH1 0x0 DUP1 REVERT JUMPDEST PUSH2 0xA7 PUSH1 0x4 DUP1 CALLDATASIZE SUB DUP2 ADD SWAP1 PUSH2 0xA2 SWAP2 SWAP1 PUSH2 0x5C7 JUMP JUMPDEST PUSH2 0x1A0 JUMP JUMPDEST PUSH1 0x40 MLOAD PUSH2 0xB7 SWAP5 SWAP4 SWAP3 SWAP2 SWAP1 PUSH2 0x6C7 JUMP JUMPDEST PUSH1 0x40 MLOAD DUP1 SWAP2 SUB SWAP1 RETURN JUMPDEST PUSH2 0xC8 PUSH2 0x265 JUMP JUMPDEST PUSH1 0x40 MLOAD PUSH2 0xD5 SWAP2 SWAP1 PUSH2 0x754 JUMP JUMPDEST PUSH1 0x40 MLOAD DUP1 SWAP2 SUB SWAP1 RETURN JUMPDEST PUSH2 0xE6 PUSH2 0x28B JUMP JUMPDEST PUSH1 0x40 MLOAD PUSH2 0xF3 SWAP2 SWAP1 PUSH2 0x754 JUMP JUMPDEST PUSH1 0x40 MLOAD DUP1 SWAP2 SUB SWAP1 RETURN JUMPDEST PUSH2 0x116 PUSH1 0x4 DUP1 CALLDATASIZE SUB DUP2 ADD SWAP1 PUSH2 0x111 SWAP2 SWAP1 PUSH2 0x79B JUMP JUMPDEST PUSH2 0x2AF JUMP JUMPDEST PUSH1 0x40 MLOAD PUSH2 0x123 SWAP2 SWAP1 PUSH2 0x7C8 JUMP JUMPDEST PUSH1 0x40 MLOAD DUP1 SWAP2 SUB SWAP1 RETURN JUMPDEST PUSH2 0x146 PUSH1 0x4 DUP1 CALLDATASIZE SUB DUP2 ADD SWAP1 PUSH2 0x141 SWAP2 SWAP1 PUSH2 0x80F JUMP JUMPDEST PUSH2 0x2CF JUMP JUMPDEST STOP JUMPDEST PUSH2 0x150 PUSH2 0x3B8 JUMP JUMPDEST PUSH1 0x40 MLOAD PUSH2 0x15D SWAP2 SWAP1 PUSH2 0x754 JUMP JUMPDEST PUSH1 0x40 MLOAD DUP1 SWAP2 SUB SWAP1 RETURN JUMPDEST PUSH2 0x180 PUSH1 0x4 DUP1 CALLDATASIZE SUB DUP2 ADD SWAP1 PUSH2 0x17B SWAP2 SWAP1 PUSH2 0x9B0 JUMP JUMPDEST PUSH2 0x3DE JUMP JUMPDEST STOP JUMPDEST PUSH2 0x18A PUSH2 0x545 JUMP JUMPDEST PUSH1 0x40 MLOAD PUSH2 0x197 SWAP2 SWAP1 PUSH2 0x754 JUMP JUMPDEST PUSH1 0x40 MLOAD DUP1 SWAP2 SUB SWAP1 RETURN JUMPDEST PUSH1 0x5 PUSH1 0x20 MSTORE DUP1 PUSH1 0x0 MSTORE PUSH1 0x40 PUSH1 0x0 KECCAK256 PUSH1 0x0 SWAP2 POP SWAP1 POP DUP1 PUSH1 0x0 ADD PUSH1 0x0 SWAP1 SLOAD SWAP1 PUSH2 0x100 EXP SWAP1 DIV PUSH1 0xFF AND SWAP1 DUP1 PUSH1 0x1 ADD SLOAD SWAP1 DUP1 PUSH1 0x2 ADD SLOAD SWAP1 DUP1 PUSH1 0x3 ADD DUP1 SLOAD PUSH2 0x1E2 SWAP1 PUSH2 0xA76 JUMP JUMPDEST DUP1 PUSH1 0x1F ADD PUSH1 0x20 DUP1 SWAP2 DIV MUL PUSH1 0x20 ADD PUSH1 0x40 MLOAD SWAP1 DUP2 ADD PUSH1 0x40 MSTORE DUP1 SWAP3 SWAP2 SWAP1 DUP2 DUP2 MSTORE PUSH1 0x20 ADD DUP3 DUP1 SLOAD PUSH2 0x20E SWAP1 PUSH2 0xA76 JUMP JUMPDEST DUP1 ISZERO PUSH2 0x25B JUMPI DUP1 PUSH1 0x1F LT PUSH2 0x230 JUMPI PUSH2 0x100 DUP1 DUP4 SLOAD DIV MUL DUP4 MSTORE SWAP2 PUSH1 0x20 ADD SWAP2 PUSH2 0x25B JUMP JUMPDEST DUP3 ADD SWAP2 SWAP1 PUSH1 0x0 MSTORE PUSH1 0x20 PUSH1 0x0 KECCAK256 SWAP1 JUMPDEST DUP2 SLOAD DUP2 MSTORE SWAP1 PUSH1 0x1 ADD SWAP1 PUSH1 0x20 ADD DUP1 DUP4 GT PUSH2 0x23E JUMPI DUP3 SWAP1 SUB PUSH1 0x1F AND DUP3 ADD SWAP2 JUMPDEST POP POP POP POP POP SWAP1 POP DUP5 JUMP JUMPDEST PUSH1 0x1 PUSH1 0x0 SWAP1 SLOAD SWAP1 PUSH2 0x100 EXP SWAP1 DIV PUSH20 0xFFFFFFFFFFFFFFFFFFFFFFFFFFFFFFFFFFFFFFFF AND DUP2 JUMP JUMPDEST PUSH1 0x0 DUP1 SLOAD SWAP1 PUSH2 0x100 EXP SWAP1 DIV PUSH20 0xFFFFFFFFFFFFFFFFFFFFFFFFFFFFFFFFFFFFFFFF AND DUP2 JUMP JUMPDEST PUSH1 0x4 PUSH1 0x20 MSTORE DUP1 PUSH1 0x0 MSTORE PUSH1 0x40 PUSH1 0x0 KECCAK256 PUSH1 0x0 SWAP2 POP SLOAD SWAP1 PUSH2 0x100 EXP SWAP1 DIV PUSH1 0xFF AND DUP2 JUMP JUMPDEST PUSH1 0x0 DUP1 SLOAD SWAP1 PUSH2 0x100 EXP SWAP1 DIV PUSH20 0xFFFFFFFFFFFFFFFFFFFFFFFFFFFFFFFFFFFFFFFF AND PUSH20 0xFFFFFFFFFFFFFFFFFFFFFFFFFFFFFFFFFFFFFFFF AND CALLER PUSH20 0xFFFFFFFFFFFFFFFFFFFFFFFFFFFFFFFFFFFFFFFF AND EQ PUSH2 0x35D JUMPI PUSH1 0x40 MLOAD PUSH32 0x8C379A000000000000000000000000000000000000000000000000000000000 DUP2 MSTORE PUSH1 0x4 ADD PUSH2 0x354 SWAP1 PUSH2 0xB19 JUMP JUMPDEST PUSH1 0x40 MLOAD DUP1 SWAP2 SUB SWAP1 REVERT JUMPDEST DUP1 PUSH1 0x4 PUSH1 0x0 DUP5 PUSH20 0xFFFFFFFFFFFFFFFFFFFFFFFFFFFFFFFFFFFFFFFF AND PUSH20 0xFFFFFFFFFFFFFFFFFFFFFFFFFFFFFFFFFFFFFFFF AND DUP2 MSTORE PUSH1 0x20 ADD SWAP1 DUP2 MSTORE PUSH1 0x20 ADD PUSH1 0x0 KECCAK256 PUSH1 0x0 PUSH2 0x100 EXP DUP2 SLOAD DUP2 PUSH1 0xFF MUL NOT AND SWAP1 DUP4 ISZERO ISZERO MUL OR SWAP1 SSTORE POP POP POP JUMP JUMPDEST PUSH1 0x3 PUSH1 0x0 SWAP1 SLOAD SWAP1 PUSH2 0x100 EXP SWAP1 DIV PUSH20 0xFFFFFFFFFFFFFFFFFFFFFFFFFFFFFFFFFFFFFFFF AND DUP2 JUMP JUMPDEST PUSH1 0x0 DUP1 SLOAD SWAP1 PUSH2 0x100 EXP SWAP1 DIV PUSH20 0xFFFFFFFFFFFFFFFFFFFFFFFFFFFFFFFFFFFFFFFF AND PUSH20 0xFFFFFFFFFFFFFFFFFFFFFFFFFFFFFFFFFFFFFFFF AND CALLER PUSH20 0xFFFFFFFFFFFFFFFFFFFFFFFFFFFFFFFFFFFFFFFF AND EQ PUSH2 0x46C JUMPI PUSH1 0x40 MLOAD PUSH32 0x8C379A000000000000000000000000000000000000000000000000000000000 DUP2 MSTORE PUSH1 0x4 ADD PUSH2 0x463 SWAP1 PUSH2 0xB19 JUMP JUMPDEST PUSH1 0x40 MLOAD DUP1 SWAP2 SUB SWAP1 REVERT JUMPDEST PUSH1 0x0 TIMESTAMP DUP4 DUP4 PUSH1 0x40 MLOAD PUSH1 0x20 ADD PUSH2 0x483 SWAP4 SWAP3 SWAP2 SWAP1 PUSH2 0xB96 JUMP JUMPDEST PUSH1 0x40 MLOAD PUSH1 0x20 DUP2 DUP4 SUB SUB DUP2 MSTORE SWAP1 PUSH1 0x40 MSTORE SWAP1 POP PUSH1 0x0 PUSH2 0x49F DUP3 PUSH2 0x56B JUMP JUMPDEST SWAP1 POP PUSH1 0x0 DUP8 DUP1 ISZERO PUSH2 0x4AD JUMPI POP DUP7 JUMPDEST DUP1 ISZERO PUSH2 0x4B6 JUMPI POP DUP6 JUMPDEST SWAP1 POP PUSH1 0x40 MLOAD DUP1 PUSH1 0x80 ADD PUSH1 0x40 MSTORE DUP1 DUP3 ISZERO ISZERO DUP2 MSTORE PUSH1 0x20 ADD DUP4 DUP2 MSTORE PUSH1 0x20 ADD DUP7 DUP2 MSTORE PUSH1 0x20 ADD DUP6 DUP2 MSTORE POP PUSH1 0x5 PUSH1 0x0 DUP5 DUP2 MSTORE PUSH1 0x20 ADD SWAP1 DUP2 MSTORE PUSH1 0x20 ADD PUSH1 0x0 KECCAK256 PUSH1 0x0 DUP3 ADD MLOAD DUP2 PUSH1 0x0 ADD PUSH1 0x0 PUSH2 0x100 EXP DUP2 SLOAD DUP2 PUSH1 0xFF MUL NOT AND SWAP1 DUP4 ISZERO ISZERO MUL OR SWAP1 SSTORE POP PUSH1 0x20 DUP3 ADD MLOAD DUP2 PUSH1 0x1 ADD SSTORE PUSH1 0x40 DUP3 ADD MLOAD DUP2 PUSH1 0x2 ADD SSTORE PUSH1 0x60 DUP3 ADD MLOAD DUP2 PUSH1 0x3 ADD SWAP1 DUP2 PUSH2 0x537 SWAP2 SWAP1 PUSH2 0xD7B JUMP JUMPDEST POP SWAP1 POP POP POP POP POP POP POP POP POP POP JUMP JUMPDEST PUSH1 0x2 PUSH1 0x0 SWAP1 SLOAD SWAP1 PUSH2 0x100 EXP SWAP1 DIV PUSH20 0xFFFFFFFFFFFFFFFFFFFFFFFFFFFFFFFFFFFFFFFF AND DUP2 JUMP JUMPDEST PUSH1 0x0 PUSH2 0x576 DUP3 PUSH2 0x56B JUMP JUMPDEST SWAP1 POP SWAP2 SWAP1 POP JUMP JUMPDEST PUSH1 0x0 PUSH1 0x40 MLOAD SWAP1 POP SWAP1 JUMP JUMPDEST PUSH1 0x0 DUP1 REVERT JUMPDEST PUSH1 0x0 DUP1 REVERT JUMPDEST PUSH1 0x0 DUP2 SWAP1 POP SWAP2 SWAP1 POP JUMP JUMPDEST PUSH2 0x5A4 DUP2 PUSH2 0x591 JUMP JUMPDEST DUP2 EQ PUSH2 0x5AF JUMPI PUSH1 0x0 DUP1 REVERT JUMPDEST POP JUMP JUMPDEST PUSH1 0x0 DUP2 CALLDATALOAD SWAP1 POP PUSH2 0x5C1 DUP2 PUSH2 0x59B JUMP JUMPDEST SWAP3 SWAP2 POP POP JUMP JUMPDEST PUSH1 0x0 PUSH1 0x20 DUP3 DUP5 SUB SLT ISZERO PUSH2 0x5DD JUMPI PUSH2 0x5DC PUSH2 0x587 JUMP JUMPDEST JUMPDEST PUSH1 0x0 PUSH2 0x5EB DUP5 DUP3 DUP6 ADD PUSH2 0x5B2 JUMP JUMPDEST SWAP2 POP POP SWAP3 SWAP2 POP POP JUMP JUMPDEST PUSH1 0x0 DUP2 ISZERO ISZERO SWAP1 POP SWAP2 SWAP1 POP JUMP JUMPDEST PUSH2 0x609 DUP2 PUSH2 0x5F4 JUMP JUMPDEST DUP3 MSTORE POP POP JUMP JUMPDEST PUSH2 0x618 DUP2 PUSH2 0x591 JUMP JUMPDEST DUP3 MSTORE POP POP JUMP JUMPDEST PUSH1 0x0 DUP2 SWAP1 POP SWAP2 SWAP1 POP JUMP JUMPDEST PUSH2 0x631 DUP2 PUSH2 0x61E JUMP JUMPDEST DUP3 MSTORE POP POP JUMP JUMPDEST PUSH1 0x0 DUP2 MLOAD SWAP1 POP SWAP2 SWAP1 POP JUMP JUMPDEST PUSH1 0x0 DUP3 DUP3 MSTORE PUSH1 0x20 DUP3 ADD SWAP1 POP SWAP3 SWAP2 POP POP JUMP JUMPDEST PUSH1 0x0 JUMPDEST DUP4 DUP2 LT ISZERO PUSH2 0x671 JUMPI DUP1 DUP3 ADD MLOAD DUP2 DUP5 ADD MSTORE PUSH1 0x20 DUP2 ADD SWAP1 POP PUSH2 0x656 JUMP JUMPDEST PUSH1 0x0 DUP5 DUP5 ADD MSTORE POP POP POP POP JUMP JUMPDEST PUSH1 0x0 PUSH1 0x1F NOT PUSH1 0x1F DUP4 ADD AND SWAP1 POP SWAP2 SWAP1 POP JUMP JUMPDEST PUSH1 0x0 PUSH2 0x699 DUP3 PUSH2 0x637 JUMP JUMPDEST PUSH2 0x6A3 DUP2 DUP6 PUSH2 0x642 JUMP JUMPDEST SWAP4 POP PUSH2 0x6B3 DUP2 DUP6 PUSH1 0x20 DUP7 ADD PUSH2 0x653 JUMP JUMPDEST PUSH2 0x6BC DUP2 PUSH2 0x67D JUMP JUMPDEST DUP5 ADD SWAP2 POP POP SWAP3 SWAP2 POP POP JUMP JUMPDEST PUSH1 0x0 PUSH1 0x80 DUP3 ADD SWAP1 POP PUSH2 0x6DC PUSH1 0x0 DUP4 ADD DUP8 PUSH2 0x600 JUMP JUMPDEST PUSH2 0x6E9 PUSH1 0x20 DUP4 ADD DUP7 PUSH2 0x60F JUMP JUMPDEST PUSH2 0x6F6 PUSH1 0x40 DUP4 ADD DUP6 PUSH2 0x628 JUMP JUMPDEST DUP2 DUP2 SUB PUSH1 0x60 DUP4 ADD MSTORE PUSH2 0x708 DUP2 DUP5 PUSH2 0x68E JUMP JUMPDEST SWAP1 POP SWAP6 SWAP5 POP POP POP POP POP JUMP JUMPDEST PUSH1 0x0 PUSH20 0xFFFFFFFFFFFFFFFFFFFFFFFFFFFFFFFFFFFFFFFF DUP3 AND SWAP1 POP SWAP2 SWAP1 POP JUMP JUMPDEST PUSH1 0x0 PUSH2 0x73E DUP3 PUSH2 0x713 JUMP JUMPDEST SWAP1 POP SWAP2 SWAP1 POP JUMP JUMPDEST PUSH2 0x74E DUP2 PUSH2 0x733 JUMP JUMPDEST DUP3 MSTORE POP POP JUMP JUMPDEST PUSH1 0x0 PUSH1 0x20 DUP3 ADD SWAP1 POP PUSH2 0x769 PUSH1 0x0 DUP4 ADD DUP5 PUSH2 0x745 JUMP JUMPDEST SWAP3 SWAP2 POP POP JUMP JUMPDEST PUSH2 0x778 DUP2 PUSH2 0x733 JUMP JUMPDEST DUP2 EQ PUSH2 0x783 JUMPI PUSH1 0x0 DUP1 REVERT JUMPDEST POP JUMP JUMPDEST PUSH1 0x0 DUP2 CALLDATALOAD SWAP1 POP PUSH2 0x795 DUP2 PUSH2 0x76F JUMP JUMPDEST SWAP3 SWAP2 POP POP JUMP JUMPDEST PUSH1 0x0 PUSH1 0x20 DUP3 DUP5 SUB SLT ISZERO PUSH2 0x7B1 JUMPI PUSH2 0x7B0 PUSH2 0x587 JUMP JUMPDEST JUMPDEST PUSH1 0x0 PUSH2 0x7BF DUP5 DUP3 DUP6 ADD PUSH2 0x786 JUMP JUMPDEST SWAP2 POP POP SWAP3 SWAP2 POP POP JUMP JUMPDEST PUSH1 0x0 PUSH1 0x20 DUP3 ADD SWAP1 POP PUSH2 0x7DD PUSH1 0x0 DUP4 ADD DUP5 PUSH2 0x600 JUMP JUMPDEST SWAP3 SWAP2 POP POP JUMP JUMPDEST PUSH2 0x7EC DUP2 PUSH2 0x5F4 JUMP JUMPDEST DUP2 EQ PUSH2 0x7F7 JUMPI PUSH1 0x0 DUP1 REVERT JUMPDEST POP JUMP JUMPDEST PUSH1 0x0 DUP2 CALLDATALOAD SWAP1 POP PUSH2 0x809 DUP2 PUSH2 0x7E3 JUMP JUMPDEST SWAP3 SWAP2 POP POP JUMP JUMPDEST PUSH1 0x0 DUP1 PUSH1 0x40 DUP4 DUP6 SUB SLT ISZERO PUSH2 0x826 JUMPI PUSH2 0x825 PUSH2 0x587 JUMP JUMPDEST JUMPDEST PUSH1 0x0 PUSH2 0x834 DUP6 DUP3 DUP7 ADD PUSH2 0x786 JUMP JUMPDEST SWAP3 POP POP PUSH1 0x20 PUSH2 0x845 DUP6 DUP3 DUP7 ADD PUSH2 0x7FA JUMP JUMPDEST SWAP2 POP POP SWAP3 POP SWAP3 SWAP1 POP JUMP JUMPDEST PUSH2 0x858 DUP2 PUSH2 0x61E JUMP JUMPDEST DUP2 EQ PUSH2 0x863 JUMPI PUSH1 0x0 DUP1 REVERT JUMPDEST POP JUMP JUMPDEST PUSH1 0x0 DUP2 CALLDATALOAD SWAP1 POP PUSH2 0x875 DUP2 PUSH2 0x84F JUMP JUMPDEST SWAP3 SWAP2 POP POP JUMP JUMPDEST PUSH1 0x0 DUP1 REVERT JUMPDEST PUSH1 0x0 DUP1 REVERT JUMPDEST PUSH32 0x4E487B7100000000000000000000000000000000000000000000000000000000 PUSH1 0x0 MSTORE PUSH1 0x41 PUSH1 0x4 MSTORE PUSH1 0x24 PUSH1 0x0 REVERT JUMPDEST PUSH2 0x8BD DUP3 PUSH2 0x67D JUMP JUMPDEST DUP2 ADD DUP2 DUP2 LT PUSH8 0xFFFFFFFFFFFFFFFF DUP3 GT OR ISZERO PUSH2 0x8DC JUMPI PUSH2 0x8DB PUSH2 0x885 JUMP JUMPDEST JUMPDEST DUP1 PUSH1 0x40 MSTORE POP POP POP JUMP JUMPDEST PUSH1 0x0 PUSH2 0x8EF PUSH2 0x57D JUMP JUMPDEST SWAP1 POP PUSH2 0x8FB DUP3 DUP3 PUSH2 0x8B4 JUMP JUMPDEST SWAP2 SWAP1 POP JUMP JUMPDEST PUSH1 0x0 PUSH8 0xFFFFFFFFFFFFFFFF DUP3 GT ISZERO PUSH2 0x91B JUMPI PUSH2 0x91A PUSH2 0x885 JUMP JUMPDEST JUMPDEST PUSH2 0x924 DUP3 PUSH2 0x67D JUMP JUMPDEST SWAP1 POP PUSH1 0x20 DUP2 ADD SWAP1 POP SWAP2 SWAP1 POP JUMP JUMPDEST DUP3 DUP2 DUP4 CALLDATACOPY PUSH1 0x0 DUP4 DUP4 ADD MSTORE POP POP POP JUMP JUMPDEST PUSH1 0x0 PUSH2 0x953 PUSH2 0x94E DUP5 PUSH2 0x900 JUMP JUMPDEST PUSH2 0x8E5 JUMP JUMPDEST SWAP1 POP DUP3 DUP2 MSTORE PUSH1 0x20 DUP2 ADD DUP5 DUP5 DUP5 ADD GT ISZERO PUSH2 0x96F JUMPI PUSH2 0x96E PUSH2 0x880 JUMP JUMPDEST JUMPDEST PUSH2 0x97A DUP5 DUP3 DUP6 PUSH2 0x931 JUMP JUMPDEST POP SWAP4 SWAP3 POP POP POP JUMP JUMPDEST PUSH1 0x0 DUP3 PUSH1 0x1F DUP4 ADD SLT PUSH2 0x997 JUMPI PUSH2 0x996 PUSH2 0x87B JUMP JUMPDEST JUMPDEST DUP2 CALLDATALOAD PUSH2 0x9A7 DUP5 DUP3 PUSH1 0x20 DUP7 ADD PUSH2 0x940 JUMP JUMPDEST SWAP2 POP POP SWAP3 SWAP2 POP POP JUMP JUMPDEST PUSH1 0x0 DUP1 PUSH1 0x0 DUP1 PUSH1 0x0 PUSH1 0xA0 DUP7 DUP9 SUB SLT ISZERO PUSH2 0x9CC JUMPI PUSH2 0x9CB PUSH2 0x587 JUMP JUMPDEST JUMPDEST PUSH1 0x0 PUSH2 0x9DA DUP9 DUP3 DUP10 ADD PUSH2 0x7FA JUMP JUMPDEST SWAP6 POP POP PUSH1 0x20 PUSH2 0x9EB DUP9 DUP3 DUP10 ADD PUSH2 0x7FA JUMP JUMPDEST SWAP5 POP POP PUSH1 0x40 PUSH2 0x9FC DUP9 DUP3 DUP10 ADD PUSH2 0x7FA JUMP JUMPDEST SWAP4 POP POP PUSH1 0x60 PUSH2 0xA0D DUP9 DUP3 DUP10 ADD PUSH2 0x866 JUMP JUMPDEST SWAP3 POP POP PUSH1 0x80 DUP7 ADD CALLDATALOAD PUSH8 0xFFFFFFFFFFFFFFFF DUP2 GT ISZERO PUSH2 0xA2E JUMPI PUSH2 0xA2D PUSH2 0x58C JUMP JUMPDEST JUMPDEST PUSH2 0xA3A DUP9 DUP3 DUP10 ADD PUSH2 0x982 JUMP JUMPDEST SWAP2 POP POP SWAP3 SWAP6 POP SWAP3 SWAP6 SWAP1 SWAP4 POP JUMP JUMPDEST PUSH32 0x4E487B7100000000000000000000000000000000000000000000000000000000 PUSH1 0x0 MSTORE PUSH1 0x22 PUSH1 0x4 MSTORE PUSH1 0x24 PUSH1 0x0 REVERT JUMPDEST PUSH1 0x0 PUSH1 0x2 DUP3 DIV SWAP1 POP PUSH1 0x1 DUP3 AND DUP1 PUSH2 0xA8E JUMPI PUSH1 0x7F DUP3 AND SWAP2 POP JUMPDEST PUSH1 0x20 DUP3 LT DUP2 SUB PUSH2 0xAA1 JUMPI PUSH2 0xAA0 PUSH2 0xA47 JUMP JUMPDEST JUMPDEST POP SWAP2 SWAP1 POP JUMP JUMPDEST PUSH32 0x4F6E6C79204461746120456E747279204D616E616765722063616E2070657266 PUSH1 0x0 DUP3 ADD MSTORE PUSH32 0x6F726D207468697320616374696F6E0000000000000000000000000000000000 PUSH1 0x20 DUP3 ADD MSTORE POP JUMP JUMPDEST PUSH1 0x0 PUSH2 0xB03 PUSH1 0x2F DUP4 PUSH2 0x642 JUMP JUMPDEST SWAP2 POP PUSH2 0xB0E DUP3 PUSH2 0xAA7 JUMP JUMPDEST PUSH1 0x40 DUP3 ADD SWAP1 POP SWAP2 SWAP1 POP JUMP JUMPDEST PUSH1 0x0 PUSH1 0x20 DUP3 ADD SWAP1 POP DUP2 DUP2 SUB PUSH1 0x0 DUP4 ADD MSTORE PUSH2 0xB32 DUP2 PUSH2 0xAF6 JUMP JUMPDEST SWAP1 POP SWAP2 SWAP1 POP JUMP JUMPDEST PUSH1 0x0 DUP2 SWAP1 POP SWAP2 SWAP1 POP JUMP JUMPDEST PUSH2 0xB54 PUSH2 0xB4F DUP3 PUSH2 0x61E JUMP JUMPDEST PUSH2 0xB39 JUMP JUMPDEST DUP3 MSTORE POP POP JUMP JUMPDEST PUSH1 0x0 DUP2 SWAP1 POP SWAP3 SWAP2 POP POP JUMP JUMPDEST PUSH1 0x0 PUSH2 0xB70 DUP3 PUSH2 0x637 JUMP JUMPDEST PUSH2 0xB7A DUP2 DUP6 PUSH2 0xB5A JUMP JUMPDEST SWAP4 POP PUSH2 0xB8A DUP2 DUP6 PUSH1 0x20 DUP7 ADD PUSH2 0x653 JUMP JUMPDEST DUP1 DUP5 ADD SWAP2 POP POP SWAP3 SWAP2 POP POP JUMP JUMPDEST PUSH1 0x0 PUSH2 0xBA2 DUP3 DUP7 PUSH2 0xB43 JUMP JUMPDEST PUSH1 0x20 DUP3 ADD SWAP2 POP PUSH2 0xBB2 DUP3 DUP6 PUSH2 0xB43 JUMP JUMPDEST PUSH1 0x20 DUP3 ADD SWAP2 POP PUSH2 0xBC2 DUP3 DUP5 PUSH2 0xB65 JUMP JUMPDEST SWAP2 POP DUP2 SWAP1 POP SWAP5 SWAP4 POP POP POP POP JUMP JUMPDEST PUSH1 0x0 DUP2 SWAP1 POP DUP2 PUSH1 0x0 MSTORE PUSH1 0x20 PUSH1 0x0 KECCAK256 SWAP1 POP SWAP2 SWAP1 POP JUMP JUMPDEST PUSH1 0x0 PUSH1 0x20 PUSH1 0x1F DUP4 ADD DIV SWAP1 POP SWAP2 SWAP1 POP JUMP JUMPDEST PUSH1 0x0 DUP3 DUP3 SHL SWAP1 POP SWAP3 SWAP2 POP POP JUMP JUMPDEST PUSH1 0x0 PUSH1 0x8 DUP4 MUL PUSH2 0xC31 PUSH32 0xFFFFFFFFFFFFFFFFFFFFFFFFFFFFFFFFFFFFFFFFFFFFFFFFFFFFFFFFFFFFFFFF DUP3 PUSH2 0xBF4 JUMP JUMPDEST PUSH2 0xC3B DUP7 DUP4 PUSH2 0xBF4 JUMP JUMPDEST SWAP6 POP DUP1 NOT DUP5 AND SWAP4 POP DUP1 DUP7 AND DUP5 OR SWAP3 POP POP POP SWAP4 SWAP3 POP POP POP JUMP JUMPDEST PUSH1 0x0 DUP2 SWAP1 POP SWAP2 SWAP1 POP JUMP JUMPDEST PUSH1 0x0 PUSH2 0xC78 PUSH2 0xC73 PUSH2 0xC6E DUP5 PUSH2 0x61E JUMP JUMPDEST PUSH2 0xC53 JUMP JUMPDEST PUSH2 0x61E JUMP JUMPDEST SWAP1 POP SWAP2 SWAP1 POP JUMP JUMPDEST PUSH1 0x0 DUP2 SWAP1 POP SWAP2 SWAP1 POP JUMP JUMPDEST PUSH2 0xC92 DUP4 PUSH2 0xC5D JUMP JUMPDEST PUSH2 0xCA6 PUSH2 0xC9E DUP3 PUSH2 0xC7F JUMP JUMPDEST DUP5 DUP5 SLOAD PUSH2 0xC01 JUMP JUMPDEST DUP3 SSTORE POP POP POP POP JUMP JUMPDEST PUSH1 0x0 SWAP1 JUMP JUMPDEST PUSH2 0xCBB PUSH2 0xCAE JUMP JUMPDEST PUSH2 0xCC6 DUP2 DUP5 DUP5 PUSH2 0xC89 JUMP JUMPDEST POP POP POP JUMP JUMPDEST JUMPDEST DUP2 DUP2 LT ISZERO PUSH2 0xCEA JUMPI PUSH2 0xCDF PUSH1 0x0 DUP3 PUSH2 0xCB3 JUMP JUMPDEST PUSH1 0x1 DUP2 ADD SWAP1 POP PUSH2 0xCCC JUMP JUMPDEST POP POP JUMP JUMPDEST PUSH1 0x1F DUP3 GT ISZERO PUSH2 0xD2F JUMPI PUSH2 0xD00 DUP2 PUSH2 0xBCF JUMP JUMPDEST PUSH2 0xD09 DUP5 PUSH2 0xBE4 JUMP JUMPDEST DUP2 ADD PUSH1 0x20 DUP6 LT ISZERO PUSH2 0xD18 JUMPI DUP2 SWAP1 POP JUMPDEST PUSH2 0xD2C PUSH2 0xD24 DUP6 PUSH2 0xBE4 JUMP JUMPDEST DUP4 ADD DUP3 PUSH2 0xCCB JUMP JUMPDEST POP POP JUMPDEST POP POP POP JUMP JUMPDEST PUSH1 0x0 DUP3 DUP3 SHR SWAP1 POP SWAP3 SWAP2 POP POP JUMP JUMPDEST PUSH1 0x0 PUSH2 0xD52 PUSH1 0x0 NOT DUP5 PUSH1 0x8 MUL PUSH2 0xD34 JUMP JUMPDEST NOT DUP1 DUP4 AND SWAP2 POP POP SWAP3 SWAP2 POP POP JUMP JUMPDEST PUSH1 0x0 PUSH2 0xD6B DUP4 DUP4 PUSH2 0xD41 JUMP JUMPDEST SWAP2 POP DUP3 PUSH1 0x2 MUL DUP3 OR SWAP1 POP SWAP3 SWAP2 POP POP JUMP JUMPDEST PUSH2 0xD84 DUP3 PUSH2 0x637 JUMP JUMPDEST PUSH8 0xFFFFFFFFFFFFFFFF DUP2 GT ISZERO PUSH2 0xD9D JUMPI PUSH2 0xD9C PUSH2 0x885 JUMP JUMPDEST JUMPDEST PUSH2 0xDA7 DUP3 SLOAD PUSH2 0xA76 JUMP JUMPDEST PUSH2 0xDB2 DUP3 DUP3 DUP6 PUSH2 0xCEE JUMP JUMPDEST PUSH1 0x0 PUSH1 0x20 SWAP1 POP PUSH1 0x1F DUP4 GT PUSH1 0x1 DUP2 EQ PUSH2 0xDE5 JUMPI PUSH1 0x0 DUP5 ISZERO PUSH2 0xDD3 JUMPI DUP3 DUP8 ADD MLOAD SWAP1 POP JUMPDEST PUSH2 0xDDD DUP6 DUP3 PUSH2 0xD5F JUMP JUMPDEST DUP7 SSTORE POP PUSH2 0xE45 JUMP JUMPDEST PUSH1 0x1F NOT DUP5 AND PUSH2 0xDF3 DUP7 PUSH2 0xBCF JUMP JUMPDEST PUSH1 0x0 JUMPDEST DUP3 DUP2 LT ISZERO PUSH2 0xE1B JUMPI DUP5 DUP10 ADD MLOAD DUP3 SSTORE PUSH1 0x1 DUP3 ADD SWAP2 POP PUSH1 0x20 DUP6 ADD SWAP5 POP PUSH1 0x20 DUP2 ADD SWAP1 POP PUSH2 0xDF6 JUMP JUMPDEST DUP7 DUP4 LT ISZERO PUSH2 0xE38 JUMPI DUP5 DUP10 ADD MLOAD PUSH2 0xE34 PUSH1 0x1F DUP10 AND DUP3 PUSH2 0xD41 JUMP JUMPDEST DUP4 SSTORE POP JUMPDEST PUSH1 0x1 PUSH1 0x2 DUP9 MUL ADD DUP9 SSTORE POP POP POP JUMPDEST POP POP POP POP POP POP JUMP INVALID LOG2 PUSH5 0x6970667358 0x22 SLT KECCAK256 MUL CALLDATALOAD 0xA8 DUP1 PUSH10 0x78B464094DB69E3F8BB7 0xEB DUP6 SWAP1 0xF9 PUSH9 0x8C5715849B0B62B281 0x2D CALLDATASIZE LOG2 PUSH5 0x736F6C6343 STOP ADDMOD SLT STOP CALLER "
		},
		"gasEstimates": {
			"creation": {
				"codeDepositCost": "743000",
				"executionCost": "infinite",
				"totalCost": "infinite"
			},
			"external": {
				"approveEntry(bool,bool,bool,uint256,string)": "infinite",
				"chancellor()": "2536",
				"dataEntryManager()": "2556",
				"entries(bytes32)": "infinite",
				"isApprover(address)": "2912",
				"registrar()": "2537",
				"setApprover(address,bool)": "27158",
				"viceChancellor()": "2580"
			},
			"internal": {
				"sha256(bytes memory)": "infinite"
			}
		},
		"methodIdentifiers": {
			"approveEntry(bool,bool,bool,uint256,string)": "f63be0a1",
			"chancellor()": "e6b43609",
			"dataEntryManager()": "46252acf",
			"entries(bytes32)": "267b6922",
			"isApprover(address)": "6d218e48",
			"registrar()": "2b20e397",
			"setApprover(address,bool)": "d76fd2e7",
			"viceChancellor()": "fe52fffa"
		}
	},
	"abi": [
		{
			"inputs": [
				{
					"internalType": "address",
					"name": "_registrar",
					"type": "address"
				},
				{
					"internalType": "address",
					"name": "_viceChancellor",
					"type": "address"
				},
				{
					"internalType": "address",
					"name": "_chancellor",
					"type": "address"
				}
			],
			"stateMutability": "nonpayable",
			"type": "constructor"
		},
		{
			"inputs": [
				{
					"internalType": "bool",
					"name": "_registrarApproval",
					"type": "bool"
				},
				{
					"internalType": "bool",
					"name": "_viceChancellorApproval",
					"type": "bool"
				},
				{
					"internalType": "bool",
					"name": "_chancellorApproval",
					"type": "bool"
				},
				{
					"internalType": "uint256",
					"name": "_rollNo",
					"type": "uint256"
				},
				{
					"internalType": "string",
					"name": "_studentName",
					"type": "string"
				}
			],
			"name": "approveEntry",
			"outputs": [],
			"stateMutability": "nonpayable",
			"type": "function"
		},
		{
			"inputs": [],
			"name": "chancellor",
			"outputs": [
				{
					"internalType": "address",
					"name": "",
					"type": "address"
				}
			],
			"stateMutability": "view",
			"type": "function"
		},
		{
			"inputs": [],
			"name": "dataEntryManager",
			"outputs": [
				{
					"internalType": "address",
					"name": "",
					"type": "address"
				}
			],
			"stateMutability": "view",
			"type": "function"
		},
		{
			"inputs": [
				{
					"internalType": "bytes32",
					"name": "",
					"type": "bytes32"
				}
			],
			"name": "entries",
			"outputs": [
				{
					"internalType": "bool",
					"name": "approved",
					"type": "bool"
				},
				{
					"internalType": "bytes32",
					"name": "hashcode",
					"type": "bytes32"
				},
				{
					"internalType": "uint256",
					"name": "rollNo",
					"type": "uint256"
				},
				{
					"internalType": "string",
					"name": "studentName",
					"type": "string"
				}
			],
			"stateMutability": "view",
			"type": "function"
		},
		{
			"inputs": [
				{
					"internalType": "address",
					"name": "",
					"type": "address"
				}
			],
			"name": "isApprover",
			"outputs": [
				{
					"internalType": "bool",
					"name": "",
					"type": "bool"
				}
			],
			"stateMutability": "view",
			"type": "function"
		},
		{
			"inputs": [],
			"name": "registrar",
			"outputs": [
				{
					"internalType": "address",
					"name": "",
					"type": "address"
				}
			],
			"stateMutability": "view",
			"type": "function"
		},
		{
			"inputs": [
				{
					"internalType": "address",
					"name": "_approver",
					"type": "address"
				},
				{
					"internalType": "bool",
					"name": "_status",
					"type": "bool"
				}
			],
			"name": "setApprover",
			"outputs": [],
			"stateMutability": "nonpayable",
			"type": "function"
		},
		{
			"inputs": [],
			"name": "viceChancellor",
			"outputs": [
				{
					"internalType": "address",
					"name": "",
					"type": "address"
				}
			],
			"stateMutability": "view",
			"type": "function"
		}
	]
}