{
	"data": {
		"bytecode": {
			"linkReferences": {},
			"object": "60806040526000600455600160055560026006553480156200002057600080fd5b5060405180608001604052806044815260200162004443604491396200004c816200007360201b60201c565b506200006d620000616200008860201b60201c565b6200009060201b60201c565b620004b7565b8060029081620000849190620003d0565b5050565b600033905090565b6000600360009054906101000a900473ffffffffffffffffffffffffffffffffffffffff16905081600360006101000a81548173ffffffffffffffffffffffffffffffffffffffff021916908373ffffffffffffffffffffffffffffffffffffffff1602179055508173ffffffffffffffffffffffffffffffffffffffff168173ffffffffffffffffffffffffffffffffffffffff167f8be0079c531659141344cd1fd0a4f28419497f9722a3daafe3b4186f6b6457e060405160405180910390a35050565b600081519050919050565b7f4e487b7100000000000000000000000000000000000000000000000000000000600052604160045260246000fd5b7f4e487b7100000000000000000000000000000000000000000000000000000000600052602260045260246000fd5b60006002820490506001821680620001d857607f821691505b602082108103620001ee57620001ed62000190565b5b50919050565b60008190508160005260206000209050919050565b60006020601f8301049050919050565b600082821b905092915050565b600060088302620002587fffffffffffffffffffffffffffffffffffffffffffffffffffffffffffffffff8262000219565b62000264868362000219565b95508019841693508086168417925050509392505050565b6000819050919050565b6000819050919050565b6000620002b1620002ab620002a5846200027c565b62000286565b6200027c565b9050919050565b6000819050919050565b620002cd8362000290565b620002e5620002dc82620002b8565b84845462000226565b825550505050565b600090565b620002fc620002ed565b62000309818484620002c2565b505050565b5b81811015620003315762000325600082620002f2565b6001810190506200030f565b5050565b601f82111562000380576200034a81620001f4565b620003558462000209565b8101602085101562000365578190505b6200037d620003748562000209565b8301826200030e565b50505b505050565b600082821c905092915050565b6000620003a56000198460080262000385565b1980831691505092915050565b6000620003c0838362000392565b9150826002028217905092915050565b620003db8262000156565b67ffffffffffffffff811115620003f757620003f662000161565b5b620004038254620001bf565b6200041082828562000335565b600060209050601f83116001811462000448576000841562000433578287015190505b6200043f8582620003b2565b865550620004af565b601f1984166200045886620001f4565b60005b8281101562000482578489015182556001820191506020850194506020810190506200045b565b86831015620004a257848901516200049e601f89168262000392565b8355505b6001600288020188555050505b505050505050565b613f7c80620004c76000396000f3fe608060405234801561001057600080fd5b506004361061012b5760003560e01c8063731133e9116100ad578063e8a3d48511610071578063e8a3d4851461031a578063e985e9c514610338578063f242432a14610368578063f2fde38b14610384578063f5298aca146103a05761012b565b8063731133e9146102885780638da5cb5b146102a4578063a22cb465146102c2578063b2b98ed2146102de578063d82f8403146102fc5761012b565b80631f7fdffa116100f45780631f7fdffa146101fa5780632eb2c2d6146102165780634e1273f4146102325780636b20c45414610262578063715018a61461027e5761012b565b8062fdd58e14610130578063014c660d1461016057806301ffc9a71461017e57806302fe5305146101ae5780630e89341c146101ca575b600080fd5b61014a6004803603810190610145919061235b565b6103bc565b60405161015791906123aa565b60405180910390f35b610168610484565b60405161017591906123aa565b60405180910390f35b6101986004803603810190610193919061241d565b61048a565b6040516101a59190612465565b60405180910390f35b6101c860048036038101906101c391906125c6565b61056c565b005b6101e460048036038101906101df919061260f565b610580565b6040516101f191906126bb565b60405180910390f35b610214600480360381019061020f9190612846565b6105b1565b005b610230600480360381019061022b9190612901565b6105cb565b005b61024c60048036038101906102479190612a93565b61066c565b6040516102599190612bc9565b60405180910390f35b61027c60048036038101906102779190612beb565b610785565b005b610286610822565b005b6102a2600480360381019061029d9190612c76565b610836565b005b6102ac610850565b6040516102b99190612d08565b60405180910390f35b6102dc60048036038101906102d79190612d4f565b61087a565b005b6102e6610890565b6040516102f391906123aa565b60405180910390f35b610304610896565b60405161031191906123aa565b60405180910390f35b61032261089c565b60405161032f91906126bb565b60405180910390f35b610352600480360381019061034d9190612d8f565b6108bc565b60405161035f9190612465565b60405180910390f35b610382600480360381019061037d9190612dcf565b610950565b005b61039e60048036038101906103999190612e66565b6109f1565b005b6103ba60048036038101906103b59190612e93565b610a74565b005b60008073ffffffffffffffffffffffffffffffffffffffff168373ffffffffffffffffffffffffffffffffffffffff160361042c576040517f08c379a000000000000000000000000000000000000000000000000000000000815260040161042390612f58565b60405180910390fd5b60008083815260200190815260200160002060008473ffffffffffffffffffffffffffffffffffffffff1673ffffffffffffffffffffffffffffffffffffffff16815260200190815260200160002054905092915050565b60045481565b60007fd9b67a26000000000000000000000000000000000000000000000000000000007bffffffffffffffffffffffffffffffffffffffffffffffffffffffff1916827bffffffffffffffffffffffffffffffffffffffffffffffffffffffff1916148061055557507f0e89341c000000000000000000000000000000000000000000000000000000007bffffffffffffffffffffffffffffffffffffffffffffffffffffffff1916827bffffffffffffffffffffffffffffffffffffffffffffffffffffffff1916145b80610565575061056482610b11565b5b9050919050565b610574610b7b565b61057d81610bf9565b50565b606061058b82610c0c565b60405160200161059b9190613098565b6040516020818303038152906040529050919050565b6105b9610b7b565b6105c584848484610d72565b50505050565b6105d3610f9e565b73ffffffffffffffffffffffffffffffffffffffff168573ffffffffffffffffffffffffffffffffffffffff161480610619575061061885610613610f9e565b6108bc565b5b610658576040517f08c379a000000000000000000000000000000000000000000000000000000000815260040161064f90613137565b60405180910390fd5b6106658585858585610fa6565b5050505050565b606081518351146106b2576040517f08c379a00000000000000000000000000000000000000000000000000000000081526004016106a9906131c9565b60405180910390fd5b6000835167ffffffffffffffff8111156106cf576106ce61249b565b5b6040519080825280602002602001820160405280156106fd5781602001602082028036833780820191505090505b50905060005b845181101561077a5761074a858281518110610722576107216131e9565b5b602002602001015185838151811061073d5761073c6131e9565b5b60200260200101516103bc565b82828151811061075d5761075c6131e9565b5b6020026020010181815250508061077390613247565b9050610703565b508091505092915050565b61078d610f9e565b73ffffffffffffffffffffffffffffffffffffffff168373ffffffffffffffffffffffffffffffffffffffff1614806107d357506107d2836107cd610f9e565b6108bc565b5b610812576040517f08c379a000000000000000000000000000000000000000000000000000000000815260040161080990613137565b60405180910390fd5b61081d8383836112c7565b505050565b61082a610b7b565b6108346000611595565b565b61083e610b7b565b61084a8484848461165b565b50505050565b6000600360009054906101000a900473ffffffffffffffffffffffffffffffffffffffff16905090565b61088c610885610f9e565b838361180b565b5050565b60055481565b60065481565b6060604051806080016040528060538152602001613ef460539139905090565b6000600160008473ffffffffffffffffffffffffffffffffffffffff1673ffffffffffffffffffffffffffffffffffffffff16815260200190815260200160002060008373ffffffffffffffffffffffffffffffffffffffff1673ffffffffffffffffffffffffffffffffffffffff16815260200190815260200160002060009054906101000a900460ff16905092915050565b610958610f9e565b73ffffffffffffffffffffffffffffffffffffffff168573ffffffffffffffffffffffffffffffffffffffff16148061099e575061099d85610998610f9e565b6108bc565b5b6109dd576040517f08c379a00000000000000000000000000000000000000000000000000000000081526004016109d490613137565b60405180910390fd5b6109ea8585858585611977565b5050505050565b6109f9610b7b565b600073ffffffffffffffffffffffffffffffffffffffff168173ffffffffffffffffffffffffffffffffffffffff1603610a68576040517f08c379a0000000000000000000000000000000000000000000000000000000008152600401610a5f90613301565b60405180910390fd5b610a7181611595565b50565b610a7c610f9e565b73ffffffffffffffffffffffffffffffffffffffff168373ffffffffffffffffffffffffffffffffffffffff161480610ac25750610ac183610abc610f9e565b6108bc565b5b610b01576040517f08c379a0000000000000000000000000000000000000000000000000000000008152600401610af890613137565b60405180910390fd5b610b0c838383611c12565b505050565b60007f01ffc9a7000000000000000000000000000000000000000000000000000000007bffffffffffffffffffffffffffffffffffffffffffffffffffffffff1916827bffffffffffffffffffffffffffffffffffffffffffffffffffffffff1916149050919050565b610b83610f9e565b73ffffffffffffffffffffffffffffffffffffffff16610ba1610850565b73ffffffffffffffffffffffffffffffffffffffff1614610bf7576040517f08c379a0000000000000000000000000000000000000000000000000000000008152600401610bee9061336d565b60405180910390fd5b565b8060029081610c089190613599565b5050565b606060008203610c53576040518060400160405280600181526020017f30000000000000000000000000000000000000000000000000000000000000008152509050610d6d565b600082905060005b60008214610c85578080610c6e90613247565b915050600a82610c7e919061369a565b9150610c5b565b60008167ffffffffffffffff811115610ca157610ca061249b565b5b6040519080825280601f01601f191660200182016040528015610cd35781602001600182028036833780820191505090505b50905060008290508593505b60008414610d6557600a84610cf491906136cb565b6030610d0091906136fc565b60f81b8282610d0e90613730565b92508281518110610d2257610d216131e9565b5b60200101907effffffffffffffffffffffffffffffffffffffffffffffffffffffffffffff1916908160001a905350600a84610d5e919061369a565b9350610cdf565b819450505050505b919050565b600073ffffffffffffffffffffffffffffffffffffffff168473ffffffffffffffffffffffffffffffffffffffff1603610de1576040517f08c379a0000000000000000000000000000000000000000000000000000000008152600401610dd8906137cb565b60405180910390fd5b8151835114610e25576040517f08c379a0000000000000000000000000000000000000000000000000000000008152600401610e1c9061385d565b60405180910390fd5b6000610e2f610f9e565b9050610e4081600087878787611e58565b60005b8451811015610ef957838181518110610e5f57610e5e6131e9565b5b6020026020010151600080878481518110610e7d57610e7c6131e9565b5b6020026020010151815260200190815260200160002060008873ffffffffffffffffffffffffffffffffffffffff1673ffffffffffffffffffffffffffffffffffffffff1681526020019081526020016000206000828254610edf91906136fc565b925050819055508080610ef190613247565b915050610e43565b508473ffffffffffffffffffffffffffffffffffffffff16600073ffffffffffffffffffffffffffffffffffffffff168273ffffffffffffffffffffffffffffffffffffffff167f4a39dc06d4c0dbc64b70af90fd698a233a518aa5d07e595d983b8c0526c8f7fb8787604051610f7192919061387d565b60405180910390a4610f8881600087878787611e60565b610f9781600087878787611e68565b5050505050565b600033905090565b8151835114610fea576040517f08c379a0000000000000000000000000000000000000000000000000000000008152600401610fe19061385d565b60405180910390fd5b600073ffffffffffffffffffffffffffffffffffffffff168473ffffffffffffffffffffffffffffffffffffffff1603611059576040517f08c379a000000000000000000000000000000000000000000000000000000000815260040161105090613926565b60405180910390fd5b6000611063610f9e565b9050611073818787878787611e58565b60005b8451811015611224576000858281518110611094576110936131e9565b5b6020026020010151905060008583815181106110b3576110b26131e9565b5b60200260200101519050600080600084815260200190815260200160002060008b73ffffffffffffffffffffffffffffffffffffffff1673ffffffffffffffffffffffffffffffffffffffff16815260200190815260200160002054905081811015611154576040517f08c379a000000000000000000000000000000000000000000000000000000000815260040161114b906139b8565b60405180910390fd5b81810360008085815260200190815260200160002060008c73ffffffffffffffffffffffffffffffffffffffff1673ffffffffffffffffffffffffffffffffffffffff168152602001908152602001600020819055508160008085815260200190815260200160002060008b73ffffffffffffffffffffffffffffffffffffffff1673ffffffffffffffffffffffffffffffffffffffff168152602001908152602001600020600082825461120991906136fc565b925050819055505050508061121d90613247565b9050611076565b508473ffffffffffffffffffffffffffffffffffffffff168673ffffffffffffffffffffffffffffffffffffffff168273ffffffffffffffffffffffffffffffffffffffff167f4a39dc06d4c0dbc64b70af90fd698a233a518aa5d07e595d983b8c0526c8f7fb878760405161129b92919061387d565b60405180910390a46112b1818787878787611e60565b6112bf818787878787611e68565b505050505050565b600073ffffffffffffffffffffffffffffffffffffffff168373ffffffffffffffffffffffffffffffffffffffff1603611336576040517f08c379a000000000000000000000000000000000000000000000000000000000815260040161132d90613a4a565b60405180910390fd5b805182511461137a576040517f08c379a00000000000000000000000000000000000000000000000000000000081526004016113719061385d565b60405180910390fd5b6000611384610f9e565b90506113a481856000868660405180602001604052806000815250611e58565b60005b83518110156114f15760008482815181106113c5576113c46131e9565b5b6020026020010151905060008483815181106113e4576113e36131e9565b5b60200260200101519050600080600084815260200190815260200160002060008973ffffffffffffffffffffffffffffffffffffffff1673ffffffffffffffffffffffffffffffffffffffff16815260200190815260200160002054905081811015611485576040517f08c379a000000000000000000000000000000000000000000000000000000000815260040161147c90613adc565b60405180910390fd5b81810360008085815260200190815260200160002060008a73ffffffffffffffffffffffffffffffffffffffff1673ffffffffffffffffffffffffffffffffffffffff1681526020019081526020016000208190555050505080806114e990613247565b9150506113a7565b50600073ffffffffffffffffffffffffffffffffffffffff168473ffffffffffffffffffffffffffffffffffffffff168273ffffffffffffffffffffffffffffffffffffffff167f4a39dc06d4c0dbc64b70af90fd698a233a518aa5d07e595d983b8c0526c8f7fb868660405161156992919061387d565b60405180910390a461158f81856000868660405180602001604052806000815250611e60565b50505050565b6000600360009054906101000a900473ffffffffffffffffffffffffffffffffffffffff16905081600360006101000a81548173ffffffffffffffffffffffffffffffffffffffff021916908373ffffffffffffffffffffffffffffffffffffffff1602179055508173ffffffffffffffffffffffffffffffffffffffff168173ffffffffffffffffffffffffffffffffffffffff167f8be0079c531659141344cd1fd0a4f28419497f9722a3daafe3b4186f6b6457e060405160405180910390a35050565b600073ffffffffffffffffffffffffffffffffffffffff168473ffffffffffffffffffffffffffffffffffffffff16036116ca576040517f08c379a00000000000000000000000000000000000000000000000000000000081526004016116c1906137cb565b60405180910390fd5b60006116d4610f9e565b905060006116e18561203f565b905060006116ee8561203f565b90506116ff83600089858589611e58565b8460008088815260200190815260200160002060008973ffffffffffffffffffffffffffffffffffffffff1673ffffffffffffffffffffffffffffffffffffffff168152602001908152602001600020600082825461175e91906136fc565b925050819055508673ffffffffffffffffffffffffffffffffffffffff16600073ffffffffffffffffffffffffffffffffffffffff168473ffffffffffffffffffffffffffffffffffffffff167fc3d58168c5ae7397731d063d5bbf3d657854427343f4c083240f7aacaa2d0f6289896040516117dc929190613afc565b60405180910390a46117f383600089858589611e60565b611802836000898989896120b9565b50505050505050565b8173ffffffffffffffffffffffffffffffffffffffff168373ffffffffffffffffffffffffffffffffffffffff1603611879576040517f08c379a000000000000000000000000000000000000000000000000000000000815260040161187090613b97565b60405180910390fd5b80600160008573ffffffffffffffffffffffffffffffffffffffff1673ffffffffffffffffffffffffffffffffffffffff16815260200190815260200160002060008473ffffffffffffffffffffffffffffffffffffffff1673ffffffffffffffffffffffffffffffffffffffff16815260200190815260200160002060006101000a81548160ff0219169083151502179055508173ffffffffffffffffffffffffffffffffffffffff168373ffffffffffffffffffffffffffffffffffffffff167f17307eab39ab6107e8899845ad3d59bd9653f200f220920489ca2b5937696c318360405161196a9190612465565b60405180910390a3505050565b600073ffffffffffffffffffffffffffffffffffffffff168473ffffffffffffffffffffffffffffffffffffffff16036119e6576040517f08c379a00000000000000000000000000000000000000000000000000000000081526004016119dd90613926565b60405180910390fd5b60006119f0610f9e565b905060006119fd8561203f565b90506000611a0a8561203f565b9050611a1a838989858589611e58565b600080600088815260200190815260200160002060008a73ffffffffffffffffffffffffffffffffffffffff1673ffffffffffffffffffffffffffffffffffffffff16815260200190815260200160002054905085811015611ab1576040517f08c379a0000000000000000000000000000000000000000000000000000000008152600401611aa8906139b8565b60405180910390fd5b85810360008089815260200190815260200160002060008b73ffffffffffffffffffffffffffffffffffffffff1673ffffffffffffffffffffffffffffffffffffffff168152602001908152602001600020819055508560008089815260200190815260200160002060008a73ffffffffffffffffffffffffffffffffffffffff1673ffffffffffffffffffffffffffffffffffffffff1681526020019081526020016000206000828254611b6691906136fc565b925050819055508773ffffffffffffffffffffffffffffffffffffffff168973ffffffffffffffffffffffffffffffffffffffff168573ffffffffffffffffffffffffffffffffffffffff167fc3d58168c5ae7397731d063d5bbf3d657854427343f4c083240f7aacaa2d0f628a8a604051611be3929190613afc565b60405180910390a4611bf9848a8a86868a611e60565b611c07848a8a8a8a8a6120b9565b505050505050505050565b600073ffffffffffffffffffffffffffffffffffffffff168373ffffffffffffffffffffffffffffffffffffffff1603611c81576040517f08c379a0000000000000000000000000000000000000000000000000000000008152600401611c7890613a4a565b60405180910390fd5b6000611c8b610f9e565b90506000611c988461203f565b90506000611ca58461203f565b9050611cc583876000858560405180602001604052806000815250611e58565b600080600087815260200190815260200160002060008873ffffffffffffffffffffffffffffffffffffffff1673ffffffffffffffffffffffffffffffffffffffff16815260200190815260200160002054905084811015611d5c576040517f08c379a0000000000000000000000000000000000000000000000000000000008152600401611d5390613adc565b60405180910390fd5b84810360008088815260200190815260200160002060008973ffffffffffffffffffffffffffffffffffffffff1673ffffffffffffffffffffffffffffffffffffffff16815260200190815260200160002081905550600073ffffffffffffffffffffffffffffffffffffffff168773ffffffffffffffffffffffffffffffffffffffff168573ffffffffffffffffffffffffffffffffffffffff167fc3d58168c5ae7397731d063d5bbf3d657854427343f4c083240f7aacaa2d0f628989604051611e29929190613afc565b60405180910390a4611e4f84886000868660405180602001604052806000815250611e60565b50505050505050565b505050505050565b505050505050565b611e878473ffffffffffffffffffffffffffffffffffffffff16612290565b15612037578373ffffffffffffffffffffffffffffffffffffffff1663bc197c8187878686866040518663ffffffff1660e01b8152600401611ecd959493929190613c0c565b6020604051808303816000875af1925050508015611f0957506040513d601f19601f82011682018060405250810190611f069190613c89565b60015b611fae57611f15613cc3565b806308c379a003611f715750611f29613ce5565b80611f345750611f73565b806040517f08c379a0000000000000000000000000000000000000000000000000000000008152600401611f6891906126bb565b60405180910390fd5b505b6040517f08c379a0000000000000000000000000000000000000000000000000000000008152600401611fa590613de7565b60405180910390fd5b63bc197c8160e01b7bffffffffffffffffffffffffffffffffffffffffffffffffffffffff1916817bffffffffffffffffffffffffffffffffffffffffffffffffffffffff191614612035576040517f08c379a000000000000000000000000000000000000000000000000000000000815260040161202c90613e79565b60405180910390fd5b505b505050505050565b60606000600167ffffffffffffffff81111561205e5761205d61249b565b5b60405190808252806020026020018201604052801561208c5781602001602082028036833780820191505090505b50905082816000815181106120a4576120a36131e9565b5b60200260200101818152505080915050919050565b6120d88473ffffffffffffffffffffffffffffffffffffffff16612290565b15612288578373ffffffffffffffffffffffffffffffffffffffff1663f23a6e6187878686866040518663ffffffff1660e01b815260040161211e959493929190613e99565b6020604051808303816000875af192505050801561215a57506040513d601f19601f820116820180604052508101906121579190613c89565b60015b6121ff57612166613cc3565b806308c379a0036121c2575061217a613ce5565b8061218557506121c4565b806040517f08c379a00000000000000000000000000000000000000000000000000000000081526004016121b991906126bb565b60405180910390fd5b505b6040517f08c379a00000000000000000000000000000000000000000000000000000000081526004016121f690613de7565b60405180910390fd5b63f23a6e6160e01b7bffffffffffffffffffffffffffffffffffffffffffffffffffffffff1916817bffffffffffffffffffffffffffffffffffffffffffffffffffffffff191614612286576040517f08c379a000000000000000000000000000000000000000000000000000000000815260040161227d90613e79565b60405180910390fd5b505b505050505050565b6000808273ffffffffffffffffffffffffffffffffffffffff163b119050919050565b6000604051905090565b600080fd5b600080fd5b600073ffffffffffffffffffffffffffffffffffffffff82169050919050565b60006122f2826122c7565b9050919050565b612302816122e7565b811461230d57600080fd5b50565b60008135905061231f816122f9565b92915050565b6000819050919050565b61233881612325565b811461234357600080fd5b50565b6000813590506123558161232f565b92915050565b60008060408385031215612372576123716122bd565b5b600061238085828601612310565b925050602061239185828601612346565b9150509250929050565b6123a481612325565b82525050565b60006020820190506123bf600083018461239b565b92915050565b60007fffffffff0000000000000000000000000000000000000000000000000000000082169050919050565b6123fa816123c5565b811461240557600080fd5b50565b600081359050612417816123f1565b92915050565b600060208284031215612433576124326122bd565b5b600061244184828501612408565b91505092915050565b60008115159050919050565b61245f8161244a565b82525050565b600060208201905061247a6000830184612456565b92915050565b600080fd5b600080fd5b6000601f19601f8301169050919050565b7f4e487b7100000000000000000000000000000000000000000000000000000000600052604160045260246000fd5b6124d38261248a565b810181811067ffffffffffffffff821117156124f2576124f161249b565b5b80604052505050565b60006125056122b3565b905061251182826124ca565b919050565b600067ffffffffffffffff8211156125315761253061249b565b5b61253a8261248a565b9050602081019050919050565b82818337600083830152505050565b600061256961256484612516565b6124fb565b90508281526020810184848401111561258557612584612485565b5b612590848285612547565b509392505050565b600082601f8301126125ad576125ac612480565b5b81356125bd848260208601612556565b91505092915050565b6000602082840312156125dc576125db6122bd565b5b600082013567ffffffffffffffff8111156125fa576125f96122c2565b5b61260684828501612598565b91505092915050565b600060208284031215612625576126246122bd565b5b600061263384828501612346565b91505092915050565b600081519050919050565b600082825260208201905092915050565b60005b8381101561267657808201518184015260208101905061265b565b60008484015250505050565b600061268d8261263c565b6126978185612647565b93506126a7818560208601612658565b6126b08161248a565b840191505092915050565b600060208201905081810360008301526126d58184612682565b905092915050565b600067ffffffffffffffff8211156126f8576126f761249b565b5b602082029050602081019050919050565b600080fd5b600061272161271c846126dd565b6124fb565b9050808382526020820190506020840283018581111561274457612743612709565b5b835b8181101561276d57806127598882612346565b845260208401935050602081019050612746565b5050509392505050565b600082601f83011261278c5761278b612480565b5b813561279c84826020860161270e565b91505092915050565b600067ffffffffffffffff8211156127c0576127bf61249b565b5b6127c98261248a565b9050602081019050919050565b60006127e96127e4846127a5565b6124fb565b90508281526020810184848401111561280557612804612485565b5b612810848285612547565b509392505050565b600082601f83011261282d5761282c612480565b5b813561283d8482602086016127d6565b91505092915050565b600080600080608085870312156128605761285f6122bd565b5b600061286e87828801612310565b945050602085013567ffffffffffffffff81111561288f5761288e6122c2565b5b61289b87828801612777565b935050604085013567ffffffffffffffff8111156128bc576128bb6122c2565b5b6128c887828801612777565b925050606085013567ffffffffffffffff8111156128e9576128e86122c2565b5b6128f587828801612818565b91505092959194509250565b600080600080600060a0868803121561291d5761291c6122bd565b5b600061292b88828901612310565b955050602061293c88828901612310565b945050604086013567ffffffffffffffff81111561295d5761295c6122c2565b5b61296988828901612777565b935050606086013567ffffffffffffffff81111561298a576129896122c2565b5b61299688828901612777565b925050608086013567ffffffffffffffff8111156129b7576129b66122c2565b5b6129c388828901612818565b9150509295509295909350565b600067ffffffffffffffff8211156129eb576129ea61249b565b5b602082029050602081019050919050565b6000612a0f612a0a846129d0565b6124fb565b90508083825260208201905060208402830185811115612a3257612a31612709565b5b835b81811015612a5b5780612a478882612310565b845260208401935050602081019050612a34565b5050509392505050565b600082601f830112612a7a57612a79612480565b5b8135612a8a8482602086016129fc565b91505092915050565b60008060408385031215612aaa57612aa96122bd565b5b600083013567ffffffffffffffff811115612ac857612ac76122c2565b5b612ad485828601612a65565b925050602083013567ffffffffffffffff811115612af557612af46122c2565b5b612b0185828601612777565b9150509250929050565b600081519050919050565b600082825260208201905092915050565b6000819050602082019050919050565b612b4081612325565b82525050565b6000612b528383612b37565b60208301905092915050565b6000602082019050919050565b6000612b7682612b0b565b612b808185612b16565b9350612b8b83612b27565b8060005b83811015612bbc578151612ba38882612b46565b9750612bae83612b5e565b925050600181019050612b8f565b5085935050505092915050565b60006020820190508181036000830152612be38184612b6b565b905092915050565b600080600060608486031215612c0457612c036122bd565b5b6000612c1286828701612310565b935050602084013567ffffffffffffffff811115612c3357612c326122c2565b5b612c3f86828701612777565b925050604084013567ffffffffffffffff811115612c6057612c5f6122c2565b5b612c6c86828701612777565b9150509250925092565b60008060008060808587031215612c9057612c8f6122bd565b5b6000612c9e87828801612310565b9450506020612caf87828801612346565b9350506040612cc087828801612346565b925050606085013567ffffffffffffffff811115612ce157612ce06122c2565b5b612ced87828801612818565b91505092959194509250565b612d02816122e7565b82525050565b6000602082019050612d1d6000830184612cf9565b92915050565b612d2c8161244a565b8114612d3757600080fd5b50565b600081359050612d4981612d23565b92915050565b60008060408385031215612d6657612d656122bd565b5b6000612d7485828601612310565b9250506020612d8585828601612d3a565b9150509250929050565b60008060408385031215612da657612da56122bd565b5b6000612db485828601612310565b9250506020612dc585828601612310565b9150509250929050565b600080600080600060a08688031215612deb57612dea6122bd565b5b6000612df988828901612310565b9550506020612e0a88828901612310565b9450506040612e1b88828901612346565b9350506060612e2c88828901612346565b925050608086013567ffffffffffffffff811115612e4d57612e4c6122c2565b5b612e5988828901612818565b9150509295509295909350565b600060208284031215612e7c57612e7b6122bd565b5b6000612e8a84828501612310565b91505092915050565b600080600060608486031215612eac57612eab6122bd565b5b6000612eba86828701612310565b9350506020612ecb86828701612346565b9250506040612edc86828701612346565b9150509250925092565b7f455243313135353a2061646472657373207a65726f206973206e6f742061207660008201527f616c6964206f776e657200000000000000000000000000000000000000000000602082015250565b6000612f42602a83612647565b9150612f4d82612ee6565b604082019050919050565b60006020820190508181036000830152612f7181612f35565b9050919050565b600081905092915050565b7f68747470733a2f2f697066732e696f2f697066732f516d51584475595064553460008201527f6538576437515866796279655857756a7932736d70776e4575314e626151326a60208201527f3145712f00000000000000000000000000000000000000000000000000000000604082015250565b6000613005604483612f78565b915061301082612f83565b604482019050919050565b60006130268261263c565b6130308185612f78565b9350613040818560208601612658565b80840191505092915050565b7f2e6a736f6e000000000000000000000000000000000000000000000000000000600082015250565b6000613082600583612f78565b915061308d8261304c565b600582019050919050565b60006130a382612ff8565b91506130af828461301b565b91506130ba82613075565b915081905092915050565b7f455243313135353a2063616c6c6572206973206e6f7420746f6b656e206f776e60008201527f6572206f7220617070726f766564000000000000000000000000000000000000602082015250565b6000613121602e83612647565b915061312c826130c5565b604082019050919050565b6000602082019050818103600083015261315081613114565b9050919050565b7f455243313135353a206163636f756e747320616e6420696473206c656e67746860008201527f206d69736d617463680000000000000000000000000000000000000000000000602082015250565b60006131b3602983612647565b91506131be82613157565b604082019050919050565b600060208201905081810360008301526131e2816131a6565b9050919050565b7f4e487b7100000000000000000000000000000000000000000000000000000000600052603260045260246000fd5b7f4e487b7100000000000000000000000000000000000000000000000000000000600052601160045260246000fd5b600061325282612325565b91507fffffffffffffffffffffffffffffffffffffffffffffffffffffffffffffffff820361328457613283613218565b5b600182019050919050565b7f4f776e61626c653a206e6577206f776e657220697320746865207a65726f206160008201527f6464726573730000000000000000000000000000000000000000000000000000602082015250565b60006132eb602683612647565b91506132f68261328f565b604082019050919050565b6000602082019050818103600083015261331a816132de565b9050919050565b7f4f776e61626c653a2063616c6c6572206973206e6f7420746865206f776e6572600082015250565b6000613357602083612647565b915061336282613321565b602082019050919050565b600060208201905081810360008301526133868161334a565b9050919050565b7f4e487b7100000000000000000000000000000000000000000000000000000000600052602260045260246000fd5b600060028204905060018216806133d457607f821691505b6020821081036133e7576133e661338d565b5b50919050565b60008190508160005260206000209050919050565b60006020601f8301049050919050565b600082821b905092915050565b60006008830261344f7fffffffffffffffffffffffffffffffffffffffffffffffffffffffffffffffff82613412565b6134598683613412565b95508019841693508086168417925050509392505050565b6000819050919050565b600061349661349161348c84612325565b613471565b612325565b9050919050565b6000819050919050565b6134b08361347b565b6134c46134bc8261349d565b84845461341f565b825550505050565b600090565b6134d96134cc565b6134e48184846134a7565b505050565b5b81811015613508576134fd6000826134d1565b6001810190506134ea565b5050565b601f82111561354d5761351e816133ed565b61352784613402565b81016020851015613536578190505b61354a61354285613402565b8301826134e9565b50505b505050565b600082821c905092915050565b600061357060001984600802613552565b1980831691505092915050565b6000613589838361355f565b9150826002028217905092915050565b6135a28261263c565b67ffffffffffffffff8111156135bb576135ba61249b565b5b6135c582546133bc565b6135d082828561350c565b600060209050601f83116001811461360357600084156135f1578287015190505b6135fb858261357d565b865550613663565b601f198416613611866133ed565b60005b8281101561363957848901518255600182019150602085019450602081019050613614565b868310156136565784890151613652601f89168261355f565b8355505b6001600288020188555050505b505050505050565b7f4e487b7100000000000000000000000000000000000000000000000000000000600052601260045260246000fd5b60006136a582612325565b91506136b083612325565b9250826136c0576136bf61366b565b5b828204905092915050565b60006136d682612325565b91506136e183612325565b9250826136f1576136f061366b565b5b828206905092915050565b600061370782612325565b915061371283612325565b925082820190508082111561372a57613729613218565b5b92915050565b600061373b82612325565b91506000820361374e5761374d613218565b5b600182039050919050565b7f455243313135353a206d696e7420746f20746865207a65726f2061646472657360008201527f7300000000000000000000000000000000000000000000000000000000000000602082015250565b60006137b5602183612647565b91506137c082613759565b604082019050919050565b600060208201905081810360008301526137e4816137a8565b9050919050565b7f455243313135353a2069647320616e6420616d6f756e7473206c656e6774682060008201527f6d69736d61746368000000000000000000000000000000000000000000000000602082015250565b6000613847602883612647565b9150613852826137eb565b604082019050919050565b600060208201905081810360008301526138768161383a565b9050919050565b600060408201905081810360008301526138978185612b6b565b905081810360208301526138ab8184612b6b565b90509392505050565b7f455243313135353a207472616e7366657220746f20746865207a65726f20616460008201527f6472657373000000000000000000000000000000000000000000000000000000602082015250565b6000613910602583612647565b915061391b826138b4565b604082019050919050565b6000602082019050818103600083015261393f81613903565b9050919050565b7f455243313135353a20696e73756666696369656e742062616c616e636520666f60008201527f72207472616e7366657200000000000000000000000000000000000000000000602082015250565b60006139a2602a83612647565b91506139ad82613946565b604082019050919050565b600060208201905081810360008301526139d181613995565b9050919050565b7f455243313135353a206275726e2066726f6d20746865207a65726f206164647260008201527f6573730000000000000000000000000000000000000000000000000000000000602082015250565b6000613a34602383612647565b9150613a3f826139d8565b604082019050919050565b60006020820190508181036000830152613a6381613a27565b9050919050565b7f455243313135353a206275726e20616d6f756e7420657863656564732062616c60008201527f616e636500000000000000000000000000000000000000000000000000000000602082015250565b6000613ac6602483612647565b9150613ad182613a6a565b604082019050919050565b60006020820190508181036000830152613af581613ab9565b9050919050565b6000604082019050613b11600083018561239b565b613b1e602083018461239b565b9392505050565b7f455243313135353a2073657474696e6720617070726f76616c2073746174757360008201527f20666f722073656c660000000000000000000000000000000000000000000000602082015250565b6000613b81602983612647565b9150613b8c82613b25565b604082019050919050565b60006020820190508181036000830152613bb081613b74565b9050919050565b600081519050919050565b600082825260208201905092915050565b6000613bde82613bb7565b613be88185613bc2565b9350613bf8818560208601612658565b613c018161248a565b840191505092915050565b600060a082019050613c216000830188612cf9565b613c2e6020830187612cf9565b8181036040830152613c408186612b6b565b90508181036060830152613c548185612b6b565b90508181036080830152613c688184613bd3565b90509695505050505050565b600081519050613c83816123f1565b92915050565b600060208284031215613c9f57613c9e6122bd565b5b6000613cad84828501613c74565b91505092915050565b60008160e01c9050919050565b600060033d1115613ce25760046000803e613cdf600051613cb6565b90505b90565b600060443d10613d7257613cf76122b3565b60043d036004823e80513d602482011167ffffffffffffffff82111715613d1f575050613d72565b808201805167ffffffffffffffff811115613d3d5750505050613d72565b80602083010160043d038501811115613d5a575050505050613d72565b613d69826020018501866124ca565b82955050505050505b90565b7f455243313135353a207472616e7366657220746f206e6f6e2d4552433131353560008201527f526563656976657220696d706c656d656e746572000000000000000000000000602082015250565b6000613dd1603483612647565b9150613ddc82613d75565b604082019050919050565b60006020820190508181036000830152613e0081613dc4565b9050919050565b7f455243313135353a204552433131353552656365697665722072656a6563746560008201527f6420746f6b656e73000000000000000000000000000000000000000000000000602082015250565b6000613e63602883612647565b9150613e6e82613e07565b604082019050919050565b60006020820190508181036000830152613e9281613e56565b9050919050565b600060a082019050613eae6000830188612cf9565b613ebb6020830187612cf9565b613ec8604083018661239b565b613ed5606083018561239b565b8181036080830152613ee78184613bd3565b9050969550505050505056fe68747470733a2f2f697066732e696f2f697066732f516d5158447559506455346538576437515866796279655857756a7932736d70776e4575314e626151326a3145712f636f6c6c656374696f6e2e6a736f6ea26469706673582212204151098c9281d4fb9d028aa45e7bdc9aceb189dcde51e5ca1ffae0f8b4c2174364736f6c6343000812003368747470733a2f2f697066732e696f2f697066732f516d5158447559506455346538576437515866796279655857756a7932736d70776e4575314e626151326a3145712f",
			"opcodes": "PUSH1 0x80 PUSH1 0x40 MSTORE PUSH1 0x0 PUSH1 0x4 SSTORE PUSH1 0x1 PUSH1 0x5 SSTORE PUSH1 0x2 PUSH1 0x6 SSTORE CALLVALUE DUP1 ISZERO PUSH3 0x20 JUMPI PUSH1 0x0 DUP1 REVERT JUMPDEST POP PUSH1 0x40 MLOAD DUP1 PUSH1 0x80 ADD PUSH1 0x40 MSTORE DUP1 PUSH1 0x44 DUP2 MSTORE PUSH1 0x20 ADD PUSH3 0x4443 PUSH1 0x44 SWAP2 CODECOPY PUSH3 0x4C DUP2 PUSH3 0x73 PUSH1 0x20 SHL PUSH1 0x20 SHR JUMP JUMPDEST POP PUSH3 0x6D PUSH3 0x61 PUSH3 0x88 PUSH1 0x20 SHL PUSH1 0x20 SHR JUMP JUMPDEST PUSH3 0x90 PUSH1 0x20 SHL PUSH1 0x20 SHR JUMP JUMPDEST PUSH3 0x4B7 JUMP JUMPDEST DUP1 PUSH1 0x2 SWAP1 DUP2 PUSH3 0x84 SWAP2 SWAP1 PUSH3 0x3D0 JUMP JUMPDEST POP POP JUMP JUMPDEST PUSH1 0x0 CALLER SWAP1 POP SWAP1 JUMP JUMPDEST PUSH1 0x0 PUSH1 0x3 PUSH1 0x0 SWAP1 SLOAD SWAP1 PUSH2 0x100 EXP SWAP1 DIV PUSH20 0xFFFFFFFFFFFFFFFFFFFFFFFFFFFFFFFFFFFFFFFF AND SWAP1 POP DUP2 PUSH1 0x3 PUSH1 0x0 PUSH2 0x100 EXP DUP2 SLOAD DUP2 PUSH20 0xFFFFFFFFFFFFFFFFFFFFFFFFFFFFFFFFFFFFFFFF MUL NOT AND SWAP1 DUP4 PUSH20 0xFFFFFFFFFFFFFFFFFFFFFFFFFFFFFFFFFFFFFFFF AND MUL OR SWAP1 SSTORE POP DUP2 PUSH20 0xFFFFFFFFFFFFFFFFFFFFFFFFFFFFFFFFFFFFFFFF AND DUP2 PUSH20 0xFFFFFFFFFFFFFFFFFFFFFFFFFFFFFFFFFFFFFFFF AND PUSH32 0x8BE0079C531659141344CD1FD0A4F28419497F9722A3DAAFE3B4186F6B6457E0 PUSH1 0x40 MLOAD PUSH1 0x40 MLOAD DUP1 SWAP2 SUB SWAP1 LOG3 POP POP JUMP JUMPDEST PUSH1 0x0 DUP2 MLOAD SWAP1 POP SWAP2 SWAP1 POP JUMP JUMPDEST PUSH32 0x4E487B7100000000000000000000000000000000000000000000000000000000 PUSH1 0x0 MSTORE PUSH1 0x41 PUSH1 0x4 MSTORE PUSH1 0x24 PUSH1 0x0 REVERT JUMPDEST PUSH32 0x4E487B7100000000000000000000000000000000000000000000000000000000 PUSH1 0x0 MSTORE PUSH1 0x22 PUSH1 0x4 MSTORE PUSH1 0x24 PUSH1 0x0 REVERT JUMPDEST PUSH1 0x0 PUSH1 0x2 DUP3 DIV SWAP1 POP PUSH1 0x1 DUP3 AND DUP1 PUSH3 0x1D8 JUMPI PUSH1 0x7F DUP3 AND SWAP2 POP JUMPDEST PUSH1 0x20 DUP3 LT DUP2 SUB PUSH3 0x1EE JUMPI PUSH3 0x1ED PUSH3 0x190 JUMP JUMPDEST JUMPDEST POP SWAP2 SWAP1 POP JUMP JUMPDEST PUSH1 0x0 DUP2 SWAP1 POP DUP2 PUSH1 0x0 MSTORE PUSH1 0x20 PUSH1 0x0 KECCAK256 SWAP1 POP SWAP2 SWAP1 POP JUMP JUMPDEST PUSH1 0x0 PUSH1 0x20 PUSH1 0x1F DUP4 ADD DIV SWAP1 POP SWAP2 SWAP1 POP JUMP JUMPDEST PUSH1 0x0 DUP3 DUP3 SHL SWAP1 POP SWAP3 SWAP2 POP POP JUMP JUMPDEST PUSH1 0x0 PUSH1 0x8 DUP4 MUL PUSH3 0x258 PUSH32 0xFFFFFFFFFFFFFFFFFFFFFFFFFFFFFFFFFFFFFFFFFFFFFFFFFFFFFFFFFFFFFFFF DUP3 PUSH3 0x219 JUMP JUMPDEST PUSH3 0x264 DUP7 DUP4 PUSH3 0x219 JUMP JUMPDEST SWAP6 POP DUP1 NOT DUP5 AND SWAP4 POP DUP1 DUP7 AND DUP5 OR SWAP3 POP POP POP SWAP4 SWAP3 POP POP POP JUMP JUMPDEST PUSH1 0x0 DUP2 SWAP1 POP SWAP2 SWAP1 POP JUMP JUMPDEST PUSH1 0x0 DUP2 SWAP1 POP SWAP2 SWAP1 POP JUMP JUMPDEST PUSH1 0x0 PUSH3 0x2B1 PUSH3 0x2AB PUSH3 0x2A5 DUP5 PUSH3 0x27C JUMP JUMPDEST PUSH3 0x286 JUMP JUMPDEST PUSH3 0x27C JUMP JUMPDEST SWAP1 POP SWAP2 SWAP1 POP JUMP JUMPDEST PUSH1 0x0 DUP2 SWAP1 POP SWAP2 SWAP1 POP JUMP JUMPDEST PUSH3 0x2CD DUP4 PUSH3 0x290 JUMP JUMPDEST PUSH3 0x2E5 PUSH3 0x2DC DUP3 PUSH3 0x2B8 JUMP JUMPDEST DUP5 DUP5 SLOAD PUSH3 0x226 JUMP JUMPDEST DUP3 SSTORE POP POP POP POP JUMP JUMPDEST PUSH1 0x0 SWAP1 JUMP JUMPDEST PUSH3 0x2FC PUSH3 0x2ED JUMP JUMPDEST PUSH3 0x309 DUP2 DUP5 DUP5 PUSH3 0x2C2 JUMP JUMPDEST POP POP POP JUMP JUMPDEST JUMPDEST DUP2 DUP2 LT ISZERO PUSH3 0x331 JUMPI PUSH3 0x325 PUSH1 0x0 DUP3 PUSH3 0x2F2 JUMP JUMPDEST PUSH1 0x1 DUP2 ADD SWAP1 POP PUSH3 0x30F JUMP JUMPDEST POP POP JUMP JUMPDEST PUSH1 0x1F DUP3 GT ISZERO PUSH3 0x380 JUMPI PUSH3 0x34A DUP2 PUSH3 0x1F4 JUMP JUMPDEST PUSH3 0x355 DUP5 PUSH3 0x209 JUMP JUMPDEST DUP2 ADD PUSH1 0x20 DUP6 LT ISZERO PUSH3 0x365 JUMPI DUP2 SWAP1 POP JUMPDEST PUSH3 0x37D PUSH3 0x374 DUP6 PUSH3 0x209 JUMP JUMPDEST DUP4 ADD DUP3 PUSH3 0x30E JUMP JUMPDEST POP POP JUMPDEST POP POP POP JUMP JUMPDEST PUSH1 0x0 DUP3 DUP3 SHR SWAP1 POP SWAP3 SWAP2 POP POP JUMP JUMPDEST PUSH1 0x0 PUSH3 0x3A5 PUSH1 0x0 NOT DUP5 PUSH1 0x8 MUL PUSH3 0x385 JUMP JUMPDEST NOT DUP1 DUP4 AND SWAP2 POP POP SWAP3 SWAP2 POP POP JUMP JUMPDEST PUSH1 0x0 PUSH3 0x3C0 DUP4 DUP4 PUSH3 0x392 JUMP JUMPDEST SWAP2 POP DUP3 PUSH1 0x2 MUL DUP3 OR SWAP1 POP SWAP3 SWAP2 POP POP JUMP JUMPDEST PUSH3 0x3DB DUP3 PUSH3 0x156 JUMP JUMPDEST PUSH8 0xFFFFFFFFFFFFFFFF DUP2 GT ISZERO PUSH3 0x3F7 JUMPI PUSH3 0x3F6 PUSH3 0x161 JUMP JUMPDEST JUMPDEST PUSH3 0x403 DUP3 SLOAD PUSH3 0x1BF JUMP JUMPDEST PUSH3 0x410 DUP3 DUP3 DUP6 PUSH3 0x335 JUMP JUMPDEST PUSH1 0x0 PUSH1 0x20 SWAP1 POP PUSH1 0x1F DUP4 GT PUSH1 0x1 DUP2 EQ PUSH3 0x448 JUMPI PUSH1 0x0 DUP5 ISZERO PUSH3 0x433 JUMPI DUP3 DUP8 ADD MLOAD SWAP1 POP JUMPDEST PUSH3 0x43F DUP6 DUP3 PUSH3 0x3B2 JUMP JUMPDEST DUP7 SSTORE POP PUSH3 0x4AF JUMP JUMPDEST PUSH1 0x1F NOT DUP5 AND PUSH3 0x458 DUP7 PUSH3 0x1F4 JUMP JUMPDEST PUSH1 0x0 JUMPDEST DUP3 DUP2 LT ISZERO PUSH3 0x482 JUMPI DUP5 DUP10 ADD MLOAD DUP3 SSTORE PUSH1 0x1 DUP3 ADD SWAP2 POP PUSH1 0x20 DUP6 ADD SWAP5 POP PUSH1 0x20 DUP2 ADD SWAP1 POP PUSH3 0x45B JUMP JUMPDEST DUP7 DUP4 LT ISZERO PUSH3 0x4A2 JUMPI DUP5 DUP10 ADD MLOAD PUSH3 0x49E PUSH1 0x1F DUP10 AND DUP3 PUSH3 0x392 JUMP JUMPDEST DUP4 SSTORE POP JUMPDEST PUSH1 0x1 PUSH1 0x2 DUP9 MUL ADD DUP9 SSTORE POP POP POP JUMPDEST POP POP POP POP POP POP JUMP JUMPDEST PUSH2 0x3F7C DUP1 PUSH3 0x4C7 PUSH1 0x0 CODECOPY PUSH1 0x0 RETURN INVALID PUSH1 0x80 PUSH1 0x40 MSTORE CALLVALUE DUP1 ISZERO PUSH2 0x10 JUMPI PUSH1 0x0 DUP1 REVERT JUMPDEST POP PUSH1 0x4 CALLDATASIZE LT PUSH2 0x12B JUMPI PUSH1 0x0 CALLDATALOAD PUSH1 0xE0 SHR DUP1 PUSH4 0x731133E9 GT PUSH2 0xAD JUMPI DUP1 PUSH4 0xE8A3D485 GT PUSH2 0x71 JUMPI DUP1 PUSH4 0xE8A3D485 EQ PUSH2 0x31A JUMPI DUP1 PUSH4 0xE985E9C5 EQ PUSH2 0x338 JUMPI DUP1 PUSH4 0xF242432A EQ PUSH2 0x368 JUMPI DUP1 PUSH4 0xF2FDE38B EQ PUSH2 0x384 JUMPI DUP1 PUSH4 0xF5298ACA EQ PUSH2 0x3A0 JUMPI PUSH2 0x12B JUMP JUMPDEST DUP1 PUSH4 0x731133E9 EQ PUSH2 0x288 JUMPI DUP1 PUSH4 0x8DA5CB5B EQ PUSH2 0x2A4 JUMPI DUP1 PUSH4 0xA22CB465 EQ PUSH2 0x2C2 JUMPI DUP1 PUSH4 0xB2B98ED2 EQ PUSH2 0x2DE JUMPI DUP1 PUSH4 0xD82F8403 EQ PUSH2 0x2FC JUMPI PUSH2 0x12B JUMP JUMPDEST DUP1 PUSH4 0x1F7FDFFA GT PUSH2 0xF4 JUMPI DUP1 PUSH4 0x1F7FDFFA EQ PUSH2 0x1FA JUMPI DUP1 PUSH4 0x2EB2C2D6 EQ PUSH2 0x216 JUMPI DUP1 PUSH4 0x4E1273F4 EQ PUSH2 0x232 JUMPI DUP1 PUSH4 0x6B20C454 EQ PUSH2 0x262 JUMPI DUP1 PUSH4 0x715018A6 EQ PUSH2 0x27E JUMPI PUSH2 0x12B JUMP JUMPDEST DUP1 PUSH3 0xFDD58E EQ PUSH2 0x130 JUMPI DUP1 PUSH4 0x14C660D EQ PUSH2 0x160 JUMPI DUP1 PUSH4 0x1FFC9A7 EQ PUSH2 0x17E JUMPI DUP1 PUSH4 0x2FE5305 EQ PUSH2 0x1AE JUMPI DUP1 PUSH4 0xE89341C EQ PUSH2 0x1CA JUMPI JUMPDEST PUSH1 0x0 DUP1 REVERT JUMPDEST PUSH2 0x14A PUSH1 0x4 DUP1 CALLDATASIZE SUB DUP2 ADD SWAP1 PUSH2 0x145 SWAP2 SWAP1 PUSH2 0x235B JUMP JUMPDEST PUSH2 0x3BC JUMP JUMPDEST PUSH1 0x40 MLOAD PUSH2 0x157 SWAP2 SWAP1 PUSH2 0x23AA JUMP JUMPDEST PUSH1 0x40 MLOAD DUP1 SWAP2 SUB SWAP1 RETURN JUMPDEST PUSH2 0x168 PUSH2 0x484 JUMP JUMPDEST PUSH1 0x40 MLOAD PUSH2 0x175 SWAP2 SWAP1 PUSH2 0x23AA JUMP JUMPDEST PUSH1 0x40 MLOAD DUP1 SWAP2 SUB SWAP1 RETURN JUMPDEST PUSH2 0x198 PUSH1 0x4 DUP1 CALLDATASIZE SUB DUP2 ADD SWAP1 PUSH2 0x193 SWAP2 SWAP1 PUSH2 0x241D JUMP JUMPDEST PUSH2 0x48A JUMP JUMPDEST PUSH1 0x40 MLOAD PUSH2 0x1A5 SWAP2 SWAP1 PUSH2 0x2465 JUMP JUMPDEST PUSH1 0x40 MLOAD DUP1 SWAP2 SUB SWAP1 RETURN JUMPDEST PUSH2 0x1C8 PUSH1 0x4 DUP1 CALLDATASIZE SUB DUP2 ADD SWAP1 PUSH2 0x1C3 SWAP2 SWAP1 PUSH2 0x25C6 JUMP JUMPDEST PUSH2 0x56C JUMP JUMPDEST STOP JUMPDEST PUSH2 0x1E4 PUSH1 0x4 DUP1 CALLDATASIZE SUB DUP2 ADD SWAP1 PUSH2 0x1DF SWAP2 SWAP1 PUSH2 0x260F JUMP JUMPDEST PUSH2 0x580 JUMP JUMPDEST PUSH1 0x40 MLOAD PUSH2 0x1F1 SWAP2 SWAP1 PUSH2 0x26BB JUMP JUMPDEST PUSH1 0x40 MLOAD DUP1 SWAP2 SUB SWAP1 RETURN JUMPDEST PUSH2 0x214 PUSH1 0x4 DUP1 CALLDATASIZE SUB DUP2 ADD SWAP1 PUSH2 0x20F SWAP2 SWAP1 PUSH2 0x2846 JUMP JUMPDEST PUSH2 0x5B1 JUMP JUMPDEST STOP JUMPDEST PUSH2 0x230 PUSH1 0x4 DUP1 CALLDATASIZE SUB DUP2 ADD SWAP1 PUSH2 0x22B SWAP2 SWAP1 PUSH2 0x2901 JUMP JUMPDEST PUSH2 0x5CB JUMP JUMPDEST STOP JUMPDEST PUSH2 0x24C PUSH1 0x4 DUP1 CALLDATASIZE SUB DUP2 ADD SWAP1 PUSH2 0x247 SWAP2 SWAP1 PUSH2 0x2A93 JUMP JUMPDEST PUSH2 0x66C JUMP JUMPDEST PUSH1 0x40 MLOAD PUSH2 0x259 SWAP2 SWAP1 PUSH2 0x2BC9 JUMP JUMPDEST PUSH1 0x40 MLOAD DUP1 SWAP2 SUB SWAP1 RETURN JUMPDEST PUSH2 0x27C PUSH1 0x4 DUP1 CALLDATASIZE SUB DUP2 ADD SWAP1 PUSH2 0x277 SWAP2 SWAP1 PUSH2 0x2BEB JUMP JUMPDEST PUSH2 0x785 JUMP JUMPDEST STOP JUMPDEST PUSH2 0x286 PUSH2 0x822 JUMP JUMPDEST STOP JUMPDEST PUSH2 0x2A2 PUSH1 0x4 DUP1 CALLDATASIZE SUB DUP2 ADD SWAP1 PUSH2 0x29D SWAP2 SWAP1 PUSH2 0x2C76 JUMP JUMPDEST PUSH2 0x836 JUMP JUMPDEST STOP JUMPDEST PUSH2 0x2AC PUSH2 0x850 JUMP JUMPDEST PUSH1 0x40 MLOAD PUSH2 0x2B9 SWAP2 SWAP1 PUSH2 0x2D08 JUMP JUMPDEST PUSH1 0x40 MLOAD DUP1 SWAP2 SUB SWAP1 RETURN JUMPDEST PUSH2 0x2DC PUSH1 0x4 DUP1 CALLDATASIZE SUB DUP2 ADD SWAP1 PUSH2 0x2D7 SWAP2 SWAP1 PUSH2 0x2D4F JUMP JUMPDEST PUSH2 0x87A JUMP JUMPDEST STOP JUMPDEST PUSH2 0x2E6 PUSH2 0x890 JUMP JUMPDEST PUSH1 0x40 MLOAD PUSH2 0x2F3 SWAP2 SWAP1 PUSH2 0x23AA JUMP JUMPDEST PUSH1 0x40 MLOAD DUP1 SWAP2 SUB SWAP1 RETURN JUMPDEST PUSH2 0x304 PUSH2 0x896 JUMP JUMPDEST PUSH1 0x40 MLOAD PUSH2 0x311 SWAP2 SWAP1 PUSH2 0x23AA JUMP JUMPDEST PUSH1 0x40 MLOAD DUP1 SWAP2 SUB SWAP1 RETURN JUMPDEST PUSH2 0x322 PUSH2 0x89C JUMP JUMPDEST PUSH1 0x40 MLOAD PUSH2 0x32F SWAP2 SWAP1 PUSH2 0x26BB JUMP JUMPDEST PUSH1 0x40 MLOAD DUP1 SWAP2 SUB SWAP1 RETURN JUMPDEST PUSH2 0x352 PUSH1 0x4 DUP1 CALLDATASIZE SUB DUP2 ADD SWAP1 PUSH2 0x34D SWAP2 SWAP1 PUSH2 0x2D8F JUMP JUMPDEST PUSH2 0x8BC JUMP JUMPDEST PUSH1 0x40 MLOAD PUSH2 0x35F SWAP2 SWAP1 PUSH2 0x2465 JUMP JUMPDEST PUSH1 0x40 MLOAD DUP1 SWAP2 SUB SWAP1 RETURN JUMPDEST PUSH2 0x382 PUSH1 0x4 DUP1 CALLDATASIZE SUB DUP2 ADD SWAP1 PUSH2 0x37D SWAP2 SWAP1 PUSH2 0x2DCF JUMP JUMPDEST PUSH2 0x950 JUMP JUMPDEST STOP JUMPDEST PUSH2 0x39E PUSH1 0x4 DUP1 CALLDATASIZE SUB DUP2 ADD SWAP1 PUSH2 0x399 SWAP2 SWAP1 PUSH2 0x2E66 JUMP JUMPDEST PUSH2 0x9F1 JUMP JUMPDEST STOP JUMPDEST PUSH2 0x3BA PUSH1 0x4 DUP1 CALLDATASIZE SUB DUP2 ADD SWAP1 PUSH2 0x3B5 SWAP2 SWAP1 PUSH2 0x2E93 JUMP JUMPDEST PUSH2 0xA74 JUMP JUMPDEST STOP JUMPDEST PUSH1 0x0 DUP1 PUSH20 0xFFFFFFFFFFFFFFFFFFFFFFFFFFFFFFFFFFFFFFFF AND DUP4 PUSH20 0xFFFFFFFFFFFFFFFFFFFFFFFFFFFFFFFFFFFFFFFF AND SUB PUSH2 0x42C JUMPI PUSH1 0x40 MLOAD PUSH32 0x8C379A000000000000000000000000000000000000000000000000000000000 DUP2 MSTORE PUSH1 0x4 ADD PUSH2 0x423 SWAP1 PUSH2 0x2F58 JUMP JUMPDEST PUSH1 0x40 MLOAD DUP1 SWAP2 SUB SWAP1 REVERT JUMPDEST PUSH1 0x0 DUP1 DUP4 DUP2 MSTORE PUSH1 0x20 ADD SWAP1 DUP2 MSTORE PUSH1 0x20 ADD PUSH1 0x0 KECCAK256 PUSH1 0x0 DUP5 PUSH20 0xFFFFFFFFFFFFFFFFFFFFFFFFFFFFFFFFFFFFFFFF AND PUSH20 0xFFFFFFFFFFFFFFFFFFFFFFFFFFFFFFFFFFFFFFFF AND DUP2 MSTORE PUSH1 0x20 ADD SWAP1 DUP2 MSTORE PUSH1 0x20 ADD PUSH1 0x0 KECCAK256 SLOAD SWAP1 POP SWAP3 SWAP2 POP POP JUMP JUMPDEST PUSH1 0x4 SLOAD DUP2 JUMP JUMPDEST PUSH1 0x0 PUSH32 0xD9B67A2600000000000000000000000000000000000000000000000000000000 PUSH28 0xFFFFFFFFFFFFFFFFFFFFFFFFFFFFFFFFFFFFFFFFFFFFFFFFFFFFFFFF NOT AND DUP3 PUSH28 0xFFFFFFFFFFFFFFFFFFFFFFFFFFFFFFFFFFFFFFFFFFFFFFFFFFFFFFFF NOT AND EQ DUP1 PUSH2 0x555 JUMPI POP PUSH32 0xE89341C00000000000000000000000000000000000000000000000000000000 PUSH28 0xFFFFFFFFFFFFFFFFFFFFFFFFFFFFFFFFFFFFFFFFFFFFFFFFFFFFFFFF NOT AND DUP3 PUSH28 0xFFFFFFFFFFFFFFFFFFFFFFFFFFFFFFFFFFFFFFFFFFFFFFFFFFFFFFFF NOT AND EQ JUMPDEST DUP1 PUSH2 0x565 JUMPI POP PUSH2 0x564 DUP3 PUSH2 0xB11 JUMP JUMPDEST JUMPDEST SWAP1 POP SWAP2 SWAP1 POP JUMP JUMPDEST PUSH2 0x574 PUSH2 0xB7B JUMP JUMPDEST PUSH2 0x57D DUP2 PUSH2 0xBF9 JUMP JUMPDEST POP JUMP JUMPDEST PUSH1 0x60 PUSH2 0x58B DUP3 PUSH2 0xC0C JUMP JUMPDEST PUSH1 0x40 MLOAD PUSH1 0x20 ADD PUSH2 0x59B SWAP2 SWAP1 PUSH2 0x3098 JUMP JUMPDEST PUSH1 0x40 MLOAD PUSH1 0x20 DUP2 DUP4 SUB SUB DUP2 MSTORE SWAP1 PUSH1 0x40 MSTORE SWAP1 POP SWAP2 SWAP1 POP JUMP JUMPDEST PUSH2 0x5B9 PUSH2 0xB7B JUMP JUMPDEST PUSH2 0x5C5 DUP5 DUP5 DUP5 DUP5 PUSH2 0xD72 JUMP JUMPDEST POP POP POP POP JUMP JUMPDEST PUSH2 0x5D3 PUSH2 0xF9E JUMP JUMPDEST PUSH20 0xFFFFFFFFFFFFFFFFFFFFFFFFFFFFFFFFFFFFFFFF AND DUP6 PUSH20 0xFFFFFFFFFFFFFFFFFFFFFFFFFFFFFFFFFFFFFFFF AND EQ DUP1 PUSH2 0x619 JUMPI POP PUSH2 0x618 DUP6 PUSH2 0x613 PUSH2 0xF9E JUMP JUMPDEST PUSH2 0x8BC JUMP JUMPDEST JUMPDEST PUSH2 0x658 JUMPI PUSH1 0x40 MLOAD PUSH32 0x8C379A000000000000000000000000000000000000000000000000000000000 DUP2 MSTORE PUSH1 0x4 ADD PUSH2 0x64F SWAP1 PUSH2 0x3137 JUMP JUMPDEST PUSH1 0x40 MLOAD DUP1 SWAP2 SUB SWAP1 REVERT JUMPDEST PUSH2 0x665 DUP6 DUP6 DUP6 DUP6 DUP6 PUSH2 0xFA6 JUMP JUMPDEST POP POP POP POP POP JUMP JUMPDEST PUSH1 0x60 DUP2 MLOAD DUP4 MLOAD EQ PUSH2 0x6B2 JUMPI PUSH1 0x40 MLOAD PUSH32 0x8C379A000000000000000000000000000000000000000000000000000000000 DUP2 MSTORE PUSH1 0x4 ADD PUSH2 0x6A9 SWAP1 PUSH2 0x31C9 JUMP JUMPDEST PUSH1 0x40 MLOAD DUP1 SWAP2 SUB SWAP1 REVERT JUMPDEST PUSH1 0x0 DUP4 MLOAD PUSH8 0xFFFFFFFFFFFFFFFF DUP2 GT ISZERO PUSH2 0x6CF JUMPI PUSH2 0x6CE PUSH2 0x249B JUMP JUMPDEST JUMPDEST PUSH1 0x40 MLOAD SWAP1 DUP1 DUP3 MSTORE DUP1 PUSH1 0x20 MUL PUSH1 0x20 ADD DUP3 ADD PUSH1 0x40 MSTORE DUP1 ISZERO PUSH2 0x6FD JUMPI DUP2 PUSH1 0x20 ADD PUSH1 0x20 DUP3 MUL DUP1 CALLDATASIZE DUP4 CALLDATACOPY DUP1 DUP3 ADD SWAP2 POP POP SWAP1 POP JUMPDEST POP SWAP1 POP PUSH1 0x0 JUMPDEST DUP5 MLOAD DUP2 LT ISZERO PUSH2 0x77A JUMPI PUSH2 0x74A DUP6 DUP3 DUP2 MLOAD DUP2 LT PUSH2 0x722 JUMPI PUSH2 0x721 PUSH2 0x31E9 JUMP JUMPDEST JUMPDEST PUSH1 0x20 MUL PUSH1 0x20 ADD ADD MLOAD DUP6 DUP4 DUP2 MLOAD DUP2 LT PUSH2 0x73D JUMPI PUSH2 0x73C PUSH2 0x31E9 JUMP JUMPDEST JUMPDEST PUSH1 0x20 MUL PUSH1 0x20 ADD ADD MLOAD PUSH2 0x3BC JUMP JUMPDEST DUP3 DUP3 DUP2 MLOAD DUP2 LT PUSH2 0x75D JUMPI PUSH2 0x75C PUSH2 0x31E9 JUMP JUMPDEST JUMPDEST PUSH1 0x20 MUL PUSH1 0x20 ADD ADD DUP2 DUP2 MSTORE POP POP DUP1 PUSH2 0x773 SWAP1 PUSH2 0x3247 JUMP JUMPDEST SWAP1 POP PUSH2 0x703 JUMP JUMPDEST POP DUP1 SWAP2 POP POP SWAP3 SWAP2 POP POP JUMP JUMPDEST PUSH2 0x78D PUSH2 0xF9E JUMP JUMPDEST PUSH20 0xFFFFFFFFFFFFFFFFFFFFFFFFFFFFFFFFFFFFFFFF AND DUP4 PUSH20 0xFFFFFFFFFFFFFFFFFFFFFFFFFFFFFFFFFFFFFFFF AND EQ DUP1 PUSH2 0x7D3 JUMPI POP PUSH2 0x7D2 DUP4 PUSH2 0x7CD PUSH2 0xF9E JUMP JUMPDEST PUSH2 0x8BC JUMP JUMPDEST JUMPDEST PUSH2 0x812 JUMPI PUSH1 0x40 MLOAD PUSH32 0x8C379A000000000000000000000000000000000000000000000000000000000 DUP2 MSTORE PUSH1 0x4 ADD PUSH2 0x809 SWAP1 PUSH2 0x3137 JUMP JUMPDEST PUSH1 0x40 MLOAD DUP1 SWAP2 SUB SWAP1 REVERT JUMPDEST PUSH2 0x81D DUP4 DUP4 DUP4 PUSH2 0x12C7 JUMP JUMPDEST POP POP POP JUMP JUMPDEST PUSH2 0x82A PUSH2 0xB7B JUMP JUMPDEST PUSH2 0x834 PUSH1 0x0 PUSH2 0x1595 JUMP JUMPDEST JUMP JUMPDEST PUSH2 0x83E PUSH2 0xB7B JUMP JUMPDEST PUSH2 0x84A DUP5 DUP5 DUP5 DUP5 PUSH2 0x165B JUMP JUMPDEST POP POP POP POP JUMP JUMPDEST PUSH1 0x0 PUSH1 0x3 PUSH1 0x0 SWAP1 SLOAD SWAP1 PUSH2 0x100 EXP SWAP1 DIV PUSH20 0xFFFFFFFFFFFFFFFFFFFFFFFFFFFFFFFFFFFFFFFF AND SWAP1 POP SWAP1 JUMP JUMPDEST PUSH2 0x88C PUSH2 0x885 PUSH2 0xF9E JUMP JUMPDEST DUP4 DUP4 PUSH2 0x180B JUMP JUMPDEST POP POP JUMP JUMPDEST PUSH1 0x5 SLOAD DUP2 JUMP JUMPDEST PUSH1 0x6 SLOAD DUP2 JUMP JUMPDEST PUSH1 0x60 PUSH1 0x40 MLOAD DUP1 PUSH1 0x80 ADD PUSH1 0x40 MSTORE DUP1 PUSH1 0x53 DUP2 MSTORE PUSH1 0x20 ADD PUSH2 0x3EF4 PUSH1 0x53 SWAP2 CODECOPY SWAP1 POP SWAP1 JUMP JUMPDEST PUSH1 0x0 PUSH1 0x1 PUSH1 0x0 DUP5 PUSH20 0xFFFFFFFFFFFFFFFFFFFFFFFFFFFFFFFFFFFFFFFF AND PUSH20 0xFFFFFFFFFFFFFFFFFFFFFFFFFFFFFFFFFFFFFFFF AND DUP2 MSTORE PUSH1 0x20 ADD SWAP1 DUP2 MSTORE PUSH1 0x20 ADD PUSH1 0x0 KECCAK256 PUSH1 0x0 DUP4 PUSH20 0xFFFFFFFFFFFFFFFFFFFFFFFFFFFFFFFFFFFFFFFF AND PUSH20 0xFFFFFFFFFFFFFFFFFFFFFFFFFFFFFFFFFFFFFFFF AND DUP2 MSTORE PUSH1 0x20 ADD SWAP1 DUP2 MSTORE PUSH1 0x20 ADD PUSH1 0x0 KECCAK256 PUSH1 0x0 SWAP1 SLOAD SWAP1 PUSH2 0x100 EXP SWAP1 DIV PUSH1 0xFF AND SWAP1 POP SWAP3 SWAP2 POP POP JUMP JUMPDEST PUSH2 0x958 PUSH2 0xF9E JUMP JUMPDEST PUSH20 0xFFFFFFFFFFFFFFFFFFFFFFFFFFFFFFFFFFFFFFFF AND DUP6 PUSH20 0xFFFFFFFFFFFFFFFFFFFFFFFFFFFFFFFFFFFFFFFF AND EQ DUP1 PUSH2 0x99E JUMPI POP PUSH2 0x99D DUP6 PUSH2 0x998 PUSH2 0xF9E JUMP JUMPDEST PUSH2 0x8BC JUMP JUMPDEST JUMPDEST PUSH2 0x9DD JUMPI PUSH1 0x40 MLOAD PUSH32 0x8C379A000000000000000000000000000000000000000000000000000000000 DUP2 MSTORE PUSH1 0x4 ADD PUSH2 0x9D4 SWAP1 PUSH2 0x3137 JUMP JUMPDEST PUSH1 0x40 MLOAD DUP1 SWAP2 SUB SWAP1 REVERT JUMPDEST PUSH2 0x9EA DUP6 DUP6 DUP6 DUP6 DUP6 PUSH2 0x1977 JUMP JUMPDEST POP POP POP POP POP JUMP JUMPDEST PUSH2 0x9F9 PUSH2 0xB7B JUMP JUMPDEST PUSH1 0x0 PUSH20 0xFFFFFFFFFFFFFFFFFFFFFFFFFFFFFFFFFFFFFFFF AND DUP2 PUSH20 0xFFFFFFFFFFFFFFFFFFFFFFFFFFFFFFFFFFFFFFFF AND SUB PUSH2 0xA68 JUMPI PUSH1 0x40 MLOAD PUSH32 0x8C379A000000000000000000000000000000000000000000000000000000000 DUP2 MSTORE PUSH1 0x4 ADD PUSH2 0xA5F SWAP1 PUSH2 0x3301 JUMP JUMPDEST PUSH1 0x40 MLOAD DUP1 SWAP2 SUB SWAP1 REVERT JUMPDEST PUSH2 0xA71 DUP2 PUSH2 0x1595 JUMP JUMPDEST POP JUMP JUMPDEST PUSH2 0xA7C PUSH2 0xF9E JUMP JUMPDEST PUSH20 0xFFFFFFFFFFFFFFFFFFFFFFFFFFFFFFFFFFFFFFFF AND DUP4 PUSH20 0xFFFFFFFFFFFFFFFFFFFFFFFFFFFFFFFFFFFFFFFF AND EQ DUP1 PUSH2 0xAC2 JUMPI POP PUSH2 0xAC1 DUP4 PUSH2 0xABC PUSH2 0xF9E JUMP JUMPDEST PUSH2 0x8BC JUMP JUMPDEST JUMPDEST PUSH2 0xB01 JUMPI PUSH1 0x40 MLOAD PUSH32 0x8C379A000000000000000000000000000000000000000000000000000000000 DUP2 MSTORE PUSH1 0x4 ADD PUSH2 0xAF8 SWAP1 PUSH2 0x3137 JUMP JUMPDEST PUSH1 0x40 MLOAD DUP1 SWAP2 SUB SWAP1 REVERT JUMPDEST PUSH2 0xB0C DUP4 DUP4 DUP4 PUSH2 0x1C12 JUMP JUMPDEST POP POP POP JUMP JUMPDEST PUSH1 0x0 PUSH32 0x1FFC9A700000000000000000000000000000000000000000000000000000000 PUSH28 0xFFFFFFFFFFFFFFFFFFFFFFFFFFFFFFFFFFFFFFFFFFFFFFFFFFFFFFFF NOT AND DUP3 PUSH28 0xFFFFFFFFFFFFFFFFFFFFFFFFFFFFFFFFFFFFFFFFFFFFFFFFFFFFFFFF NOT AND EQ SWAP1 POP SWAP2 SWAP1 POP JUMP JUMPDEST PUSH2 0xB83 PUSH2 0xF9E JUMP JUMPDEST PUSH20 0xFFFFFFFFFFFFFFFFFFFFFFFFFFFFFFFFFFFFFFFF AND PUSH2 0xBA1 PUSH2 0x850 JUMP JUMPDEST PUSH20 0xFFFFFFFFFFFFFFFFFFFFFFFFFFFFFFFFFFFFFFFF AND EQ PUSH2 0xBF7 JUMPI PUSH1 0x40 MLOAD PUSH32 0x8C379A000000000000000000000000000000000000000000000000000000000 DUP2 MSTORE PUSH1 0x4 ADD PUSH2 0xBEE SWAP1 PUSH2 0x336D JUMP JUMPDEST PUSH1 0x40 MLOAD DUP1 SWAP2 SUB SWAP1 REVERT JUMPDEST JUMP JUMPDEST DUP1 PUSH1 0x2 SWAP1 DUP2 PUSH2 0xC08 SWAP2 SWAP1 PUSH2 0x3599 JUMP JUMPDEST POP POP JUMP JUMPDEST PUSH1 0x60 PUSH1 0x0 DUP3 SUB PUSH2 0xC53 JUMPI PUSH1 0x40 MLOAD DUP1 PUSH1 0x40 ADD PUSH1 0x40 MSTORE DUP1 PUSH1 0x1 DUP2 MSTORE PUSH1 0x20 ADD PUSH32 0x3000000000000000000000000000000000000000000000000000000000000000 DUP2 MSTORE POP SWAP1 POP PUSH2 0xD6D JUMP JUMPDEST PUSH1 0x0 DUP3 SWAP1 POP PUSH1 0x0 JUMPDEST PUSH1 0x0 DUP3 EQ PUSH2 0xC85 JUMPI DUP1 DUP1 PUSH2 0xC6E SWAP1 PUSH2 0x3247 JUMP JUMPDEST SWAP2 POP POP PUSH1 0xA DUP3 PUSH2 0xC7E SWAP2 SWAP1 PUSH2 0x369A JUMP JUMPDEST SWAP2 POP PUSH2 0xC5B JUMP JUMPDEST PUSH1 0x0 DUP2 PUSH8 0xFFFFFFFFFFFFFFFF DUP2 GT ISZERO PUSH2 0xCA1 JUMPI PUSH2 0xCA0 PUSH2 0x249B JUMP JUMPDEST JUMPDEST PUSH1 0x40 MLOAD SWAP1 DUP1 DUP3 MSTORE DUP1 PUSH1 0x1F ADD PUSH1 0x1F NOT AND PUSH1 0x20 ADD DUP3 ADD PUSH1 0x40 MSTORE DUP1 ISZERO PUSH2 0xCD3 JUMPI DUP2 PUSH1 0x20 ADD PUSH1 0x1 DUP3 MUL DUP1 CALLDATASIZE DUP4 CALLDATACOPY DUP1 DUP3 ADD SWAP2 POP POP SWAP1 POP JUMPDEST POP SWAP1 POP PUSH1 0x0 DUP3 SWAP1 POP DUP6 SWAP4 POP JUMPDEST PUSH1 0x0 DUP5 EQ PUSH2 0xD65 JUMPI PUSH1 0xA DUP5 PUSH2 0xCF4 SWAP2 SWAP1 PUSH2 0x36CB JUMP JUMPDEST PUSH1 0x30 PUSH2 0xD00 SWAP2 SWAP1 PUSH2 0x36FC JUMP JUMPDEST PUSH1 0xF8 SHL DUP3 DUP3 PUSH2 0xD0E SWAP1 PUSH2 0x3730 JUMP JUMPDEST SWAP3 POP DUP3 DUP2 MLOAD DUP2 LT PUSH2 0xD22 JUMPI PUSH2 0xD21 PUSH2 0x31E9 JUMP JUMPDEST JUMPDEST PUSH1 0x20 ADD ADD SWAP1 PUSH31 0xFFFFFFFFFFFFFFFFFFFFFFFFFFFFFFFFFFFFFFFFFFFFFFFFFFFFFFFFFFFFFF NOT AND SWAP1 DUP2 PUSH1 0x0 BYTE SWAP1 MSTORE8 POP PUSH1 0xA DUP5 PUSH2 0xD5E SWAP2 SWAP1 PUSH2 0x369A JUMP JUMPDEST SWAP4 POP PUSH2 0xCDF JUMP JUMPDEST DUP2 SWAP5 POP POP POP POP POP JUMPDEST SWAP2 SWAP1 POP JUMP JUMPDEST PUSH1 0x0 PUSH20 0xFFFFFFFFFFFFFFFFFFFFFFFFFFFFFFFFFFFFFFFF AND DUP5 PUSH20 0xFFFFFFFFFFFFFFFFFFFFFFFFFFFFFFFFFFFFFFFF AND SUB PUSH2 0xDE1 JUMPI PUSH1 0x40 MLOAD PUSH32 0x8C379A000000000000000000000000000000000000000000000000000000000 DUP2 MSTORE PUSH1 0x4 ADD PUSH2 0xDD8 SWAP1 PUSH2 0x37CB JUMP JUMPDEST PUSH1 0x40 MLOAD DUP1 SWAP2 SUB SWAP1 REVERT JUMPDEST DUP2 MLOAD DUP4 MLOAD EQ PUSH2 0xE25 JUMPI PUSH1 0x40 MLOAD PUSH32 0x8C379A000000000000000000000000000000000000000000000000000000000 DUP2 MSTORE PUSH1 0x4 ADD PUSH2 0xE1C SWAP1 PUSH2 0x385D JUMP JUMPDEST PUSH1 0x40 MLOAD DUP1 SWAP2 SUB SWAP1 REVERT JUMPDEST PUSH1 0x0 PUSH2 0xE2F PUSH2 0xF9E JUMP JUMPDEST SWAP1 POP PUSH2 0xE40 DUP2 PUSH1 0x0 DUP8 DUP8 DUP8 DUP8 PUSH2 0x1E58 JUMP JUMPDEST PUSH1 0x0 JUMPDEST DUP5 MLOAD DUP2 LT ISZERO PUSH2 0xEF9 JUMPI DUP4 DUP2 DUP2 MLOAD DUP2 LT PUSH2 0xE5F JUMPI PUSH2 0xE5E PUSH2 0x31E9 JUMP JUMPDEST JUMPDEST PUSH1 0x20 MUL PUSH1 0x20 ADD ADD MLOAD PUSH1 0x0 DUP1 DUP8 DUP5 DUP2 MLOAD DUP2 LT PUSH2 0xE7D JUMPI PUSH2 0xE7C PUSH2 0x31E9 JUMP JUMPDEST JUMPDEST PUSH1 0x20 MUL PUSH1 0x20 ADD ADD MLOAD DUP2 MSTORE PUSH1 0x20 ADD SWAP1 DUP2 MSTORE PUSH1 0x20 ADD PUSH1 0x0 KECCAK256 PUSH1 0x0 DUP9 PUSH20 0xFFFFFFFFFFFFFFFFFFFFFFFFFFFFFFFFFFFFFFFF AND PUSH20 0xFFFFFFFFFFFFFFFFFFFFFFFFFFFFFFFFFFFFFFFF AND DUP2 MSTORE PUSH1 0x20 ADD SWAP1 DUP2 MSTORE PUSH1 0x20 ADD PUSH1 0x0 KECCAK256 PUSH1 0x0 DUP3 DUP3 SLOAD PUSH2 0xEDF SWAP2 SWAP1 PUSH2 0x36FC JUMP JUMPDEST SWAP3 POP POP DUP2 SWAP1 SSTORE POP DUP1 DUP1 PUSH2 0xEF1 SWAP1 PUSH2 0x3247 JUMP JUMPDEST SWAP2 POP POP PUSH2 0xE43 JUMP JUMPDEST POP DUP5 PUSH20 0xFFFFFFFFFFFFFFFFFFFFFFFFFFFFFFFFFFFFFFFF AND PUSH1 0x0 PUSH20 0xFFFFFFFFFFFFFFFFFFFFFFFFFFFFFFFFFFFFFFFF AND DUP3 PUSH20 0xFFFFFFFFFFFFFFFFFFFFFFFFFFFFFFFFFFFFFFFF AND PUSH32 0x4A39DC06D4C0DBC64B70AF90FD698A233A518AA5D07E595D983B8C0526C8F7FB DUP8 DUP8 PUSH1 0x40 MLOAD PUSH2 0xF71 SWAP3 SWAP2 SWAP1 PUSH2 0x387D JUMP JUMPDEST PUSH1 0x40 MLOAD DUP1 SWAP2 SUB SWAP1 LOG4 PUSH2 0xF88 DUP2 PUSH1 0x0 DUP8 DUP8 DUP8 DUP8 PUSH2 0x1E60 JUMP JUMPDEST PUSH2 0xF97 DUP2 PUSH1 0x0 DUP8 DUP8 DUP8 DUP8 PUSH2 0x1E68 JUMP JUMPDEST POP POP POP POP POP JUMP JUMPDEST PUSH1 0x0 CALLER SWAP1 POP SWAP1 JUMP JUMPDEST DUP2 MLOAD DUP4 MLOAD EQ PUSH2 0xFEA JUMPI PUSH1 0x40 MLOAD PUSH32 0x8C379A000000000000000000000000000000000000000000000000000000000 DUP2 MSTORE PUSH1 0x4 ADD PUSH2 0xFE1 SWAP1 PUSH2 0x385D JUMP JUMPDEST PUSH1 0x40 MLOAD DUP1 SWAP2 SUB SWAP1 REVERT JUMPDEST PUSH1 0x0 PUSH20 0xFFFFFFFFFFFFFFFFFFFFFFFFFFFFFFFFFFFFFFFF AND DUP5 PUSH20 0xFFFFFFFFFFFFFFFFFFFFFFFFFFFFFFFFFFFFFFFF AND SUB PUSH2 0x1059 JUMPI PUSH1 0x40 MLOAD PUSH32 0x8C379A000000000000000000000000000000000000000000000000000000000 DUP2 MSTORE PUSH1 0x4 ADD PUSH2 0x1050 SWAP1 PUSH2 0x3926 JUMP JUMPDEST PUSH1 0x40 MLOAD DUP1 SWAP2 SUB SWAP1 REVERT JUMPDEST PUSH1 0x0 PUSH2 0x1063 PUSH2 0xF9E JUMP JUMPDEST SWAP1 POP PUSH2 0x1073 DUP2 DUP8 DUP8 DUP8 DUP8 DUP8 PUSH2 0x1E58 JUMP JUMPDEST PUSH1 0x0 JUMPDEST DUP5 MLOAD DUP2 LT ISZERO PUSH2 0x1224 JUMPI PUSH1 0x0 DUP6 DUP3 DUP2 MLOAD DUP2 LT PUSH2 0x1094 JUMPI PUSH2 0x1093 PUSH2 0x31E9 JUMP JUMPDEST JUMPDEST PUSH1 0x20 MUL PUSH1 0x20 ADD ADD MLOAD SWAP1 POP PUSH1 0x0 DUP6 DUP4 DUP2 MLOAD DUP2 LT PUSH2 0x10B3 JUMPI PUSH2 0x10B2 PUSH2 0x31E9 JUMP JUMPDEST JUMPDEST PUSH1 0x20 MUL PUSH1 0x20 ADD ADD MLOAD SWAP1 POP PUSH1 0x0 DUP1 PUSH1 0x0 DUP5 DUP2 MSTORE PUSH1 0x20 ADD SWAP1 DUP2 MSTORE PUSH1 0x20 ADD PUSH1 0x0 KECCAK256 PUSH1 0x0 DUP12 PUSH20 0xFFFFFFFFFFFFFFFFFFFFFFFFFFFFFFFFFFFFFFFF AND PUSH20 0xFFFFFFFFFFFFFFFFFFFFFFFFFFFFFFFFFFFFFFFF AND DUP2 MSTORE PUSH1 0x20 ADD SWAP1 DUP2 MSTORE PUSH1 0x20 ADD PUSH1 0x0 KECCAK256 SLOAD SWAP1 POP DUP2 DUP2 LT ISZERO PUSH2 0x1154 JUMPI PUSH1 0x40 MLOAD PUSH32 0x8C379A000000000000000000000000000000000000000000000000000000000 DUP2 MSTORE PUSH1 0x4 ADD PUSH2 0x114B SWAP1 PUSH2 0x39B8 JUMP JUMPDEST PUSH1 0x40 MLOAD DUP1 SWAP2 SUB SWAP1 REVERT JUMPDEST DUP2 DUP2 SUB PUSH1 0x0 DUP1 DUP6 DUP2 MSTORE PUSH1 0x20 ADD SWAP1 DUP2 MSTORE PUSH1 0x20 ADD PUSH1 0x0 KECCAK256 PUSH1 0x0 DUP13 PUSH20 0xFFFFFFFFFFFFFFFFFFFFFFFFFFFFFFFFFFFFFFFF AND PUSH20 0xFFFFFFFFFFFFFFFFFFFFFFFFFFFFFFFFFFFFFFFF AND DUP2 MSTORE PUSH1 0x20 ADD SWAP1 DUP2 MSTORE PUSH1 0x20 ADD PUSH1 0x0 KECCAK256 DUP2 SWAP1 SSTORE POP DUP2 PUSH1 0x0 DUP1 DUP6 DUP2 MSTORE PUSH1 0x20 ADD SWAP1 DUP2 MSTORE PUSH1 0x20 ADD PUSH1 0x0 KECCAK256 PUSH1 0x0 DUP12 PUSH20 0xFFFFFFFFFFFFFFFFFFFFFFFFFFFFFFFFFFFFFFFF AND PUSH20 0xFFFFFFFFFFFFFFFFFFFFFFFFFFFFFFFFFFFFFFFF AND DUP2 MSTORE PUSH1 0x20 ADD SWAP1 DUP2 MSTORE PUSH1 0x20 ADD PUSH1 0x0 KECCAK256 PUSH1 0x0 DUP3 DUP3 SLOAD PUSH2 0x1209 SWAP2 SWAP1 PUSH2 0x36FC JUMP JUMPDEST SWAP3 POP POP DUP2 SWAP1 SSTORE POP POP POP POP DUP1 PUSH2 0x121D SWAP1 PUSH2 0x3247 JUMP JUMPDEST SWAP1 POP PUSH2 0x1076 JUMP JUMPDEST POP DUP5 PUSH20 0xFFFFFFFFFFFFFFFFFFFFFFFFFFFFFFFFFFFFFFFF AND DUP7 PUSH20 0xFFFFFFFFFFFFFFFFFFFFFFFFFFFFFFFFFFFFFFFF AND DUP3 PUSH20 0xFFFFFFFFFFFFFFFFFFFFFFFFFFFFFFFFFFFFFFFF AND PUSH32 0x4A39DC06D4C0DBC64B70AF90FD698A233A518AA5D07E595D983B8C0526C8F7FB DUP8 DUP8 PUSH1 0x40 MLOAD PUSH2 0x129B SWAP3 SWAP2 SWAP1 PUSH2 0x387D JUMP JUMPDEST PUSH1 0x40 MLOAD DUP1 SWAP2 SUB SWAP1 LOG4 PUSH2 0x12B1 DUP2 DUP8 DUP8 DUP8 DUP8 DUP8 PUSH2 0x1E60 JUMP JUMPDEST PUSH2 0x12BF DUP2 DUP8 DUP8 DUP8 DUP8 DUP8 PUSH2 0x1E68 JUMP JUMPDEST POP POP POP POP POP POP JUMP JUMPDEST PUSH1 0x0 PUSH20 0xFFFFFFFFFFFFFFFFFFFFFFFFFFFFFFFFFFFFFFFF AND DUP4 PUSH20 0xFFFFFFFFFFFFFFFFFFFFFFFFFFFFFFFFFFFFFFFF AND SUB PUSH2 0x1336 JUMPI PUSH1 0x40 MLOAD PUSH32 0x8C379A000000000000000000000000000000000000000000000000000000000 DUP2 MSTORE PUSH1 0x4 ADD PUSH2 0x132D SWAP1 PUSH2 0x3A4A JUMP JUMPDEST PUSH1 0x40 MLOAD DUP1 SWAP2 SUB SWAP1 REVERT JUMPDEST DUP1 MLOAD DUP3 MLOAD EQ PUSH2 0x137A JUMPI PUSH1 0x40 MLOAD PUSH32 0x8C379A000000000000000000000000000000000000000000000000000000000 DUP2 MSTORE PUSH1 0x4 ADD PUSH2 0x1371 SWAP1 PUSH2 0x385D JUMP JUMPDEST PUSH1 0x40 MLOAD DUP1 SWAP2 SUB SWAP1 REVERT JUMPDEST PUSH1 0x0 PUSH2 0x1384 PUSH2 0xF9E JUMP JUMPDEST SWAP1 POP PUSH2 0x13A4 DUP2 DUP6 PUSH1 0x0 DUP7 DUP7 PUSH1 0x40 MLOAD DUP1 PUSH1 0x20 ADD PUSH1 0x40 MSTORE DUP1 PUSH1 0x0 DUP2 MSTORE POP PUSH2 0x1E58 JUMP JUMPDEST PUSH1 0x0 JUMPDEST DUP4 MLOAD DUP2 LT ISZERO PUSH2 0x14F1 JUMPI PUSH1 0x0 DUP5 DUP3 DUP2 MLOAD DUP2 LT PUSH2 0x13C5 JUMPI PUSH2 0x13C4 PUSH2 0x31E9 JUMP JUMPDEST JUMPDEST PUSH1 0x20 MUL PUSH1 0x20 ADD ADD MLOAD SWAP1 POP PUSH1 0x0 DUP5 DUP4 DUP2 MLOAD DUP2 LT PUSH2 0x13E4 JUMPI PUSH2 0x13E3 PUSH2 0x31E9 JUMP JUMPDEST JUMPDEST PUSH1 0x20 MUL PUSH1 0x20 ADD ADD MLOAD SWAP1 POP PUSH1 0x0 DUP1 PUSH1 0x0 DUP5 DUP2 MSTORE PUSH1 0x20 ADD SWAP1 DUP2 MSTORE PUSH1 0x20 ADD PUSH1 0x0 KECCAK256 PUSH1 0x0 DUP10 PUSH20 0xFFFFFFFFFFFFFFFFFFFFFFFFFFFFFFFFFFFFFFFF AND PUSH20 0xFFFFFFFFFFFFFFFFFFFFFFFFFFFFFFFFFFFFFFFF AND DUP2 MSTORE PUSH1 0x20 ADD SWAP1 DUP2 MSTORE PUSH1 0x20 ADD PUSH1 0x0 KECCAK256 SLOAD SWAP1 POP DUP2 DUP2 LT ISZERO PUSH2 0x1485 JUMPI PUSH1 0x40 MLOAD PUSH32 0x8C379A000000000000000000000000000000000000000000000000000000000 DUP2 MSTORE PUSH1 0x4 ADD PUSH2 0x147C SWAP1 PUSH2 0x3ADC JUMP JUMPDEST PUSH1 0x40 MLOAD DUP1 SWAP2 SUB SWAP1 REVERT JUMPDEST DUP2 DUP2 SUB PUSH1 0x0 DUP1 DUP6 DUP2 MSTORE PUSH1 0x20 ADD SWAP1 DUP2 MSTORE PUSH1 0x20 ADD PUSH1 0x0 KECCAK256 PUSH1 0x0 DUP11 PUSH20 0xFFFFFFFFFFFFFFFFFFFFFFFFFFFFFFFFFFFFFFFF AND PUSH20 0xFFFFFFFFFFFFFFFFFFFFFFFFFFFFFFFFFFFFFFFF AND DUP2 MSTORE PUSH1 0x20 ADD SWAP1 DUP2 MSTORE PUSH1 0x20 ADD PUSH1 0x0 KECCAK256 DUP2 SWAP1 SSTORE POP POP POP POP DUP1 DUP1 PUSH2 0x14E9 SWAP1 PUSH2 0x3247 JUMP JUMPDEST SWAP2 POP POP PUSH2 0x13A7 JUMP JUMPDEST POP PUSH1 0x0 PUSH20 0xFFFFFFFFFFFFFFFFFFFFFFFFFFFFFFFFFFFFFFFF AND DUP5 PUSH20 0xFFFFFFFFFFFFFFFFFFFFFFFFFFFFFFFFFFFFFFFF AND DUP3 PUSH20 0xFFFFFFFFFFFFFFFFFFFFFFFFFFFFFFFFFFFFFFFF AND PUSH32 0x4A39DC06D4C0DBC64B70AF90FD698A233A518AA5D07E595D983B8C0526C8F7FB DUP7 DUP7 PUSH1 0x40 MLOAD PUSH2 0x1569 SWAP3 SWAP2 SWAP1 PUSH2 0x387D JUMP JUMPDEST PUSH1 0x40 MLOAD DUP1 SWAP2 SUB SWAP1 LOG4 PUSH2 0x158F DUP2 DUP6 PUSH1 0x0 DUP7 DUP7 PUSH1 0x40 MLOAD DUP1 PUSH1 0x20 ADD PUSH1 0x40 MSTORE DUP1 PUSH1 0x0 DUP2 MSTORE POP PUSH2 0x1E60 JUMP JUMPDEST POP POP POP POP JUMP JUMPDEST PUSH1 0x0 PUSH1 0x3 PUSH1 0x0 SWAP1 SLOAD SWAP1 PUSH2 0x100 EXP SWAP1 DIV PUSH20 0xFFFFFFFFFFFFFFFFFFFFFFFFFFFFFFFFFFFFFFFF AND SWAP1 POP DUP2 PUSH1 0x3 PUSH1 0x0 PUSH2 0x100 EXP DUP2 SLOAD DUP2 PUSH20 0xFFFFFFFFFFFFFFFFFFFFFFFFFFFFFFFFFFFFFFFF MUL NOT AND SWAP1 DUP4 PUSH20 0xFFFFFFFFFFFFFFFFFFFFFFFFFFFFFFFFFFFFFFFF AND MUL OR SWAP1 SSTORE POP DUP2 PUSH20 0xFFFFFFFFFFFFFFFFFFFFFFFFFFFFFFFFFFFFFFFF AND DUP2 PUSH20 0xFFFFFFFFFFFFFFFFFFFFFFFFFFFFFFFFFFFFFFFF AND PUSH32 0x8BE0079C531659141344CD1FD0A4F28419497F9722A3DAAFE3B4186F6B6457E0 PUSH1 0x40 MLOAD PUSH1 0x40 MLOAD DUP1 SWAP2 SUB SWAP1 LOG3 POP POP JUMP JUMPDEST PUSH1 0x0 PUSH20 0xFFFFFFFFFFFFFFFFFFFFFFFFFFFFFFFFFFFFFFFF AND DUP5 PUSH20 0xFFFFFFFFFFFFFFFFFFFFFFFFFFFFFFFFFFFFFFFF AND SUB PUSH2 0x16CA JUMPI PUSH1 0x40 MLOAD PUSH32 0x8C379A000000000000000000000000000000000000000000000000000000000 DUP2 MSTORE PUSH1 0x4 ADD PUSH2 0x16C1 SWAP1 PUSH2 0x37CB JUMP JUMPDEST PUSH1 0x40 MLOAD DUP1 SWAP2 SUB SWAP1 REVERT JUMPDEST PUSH1 0x0 PUSH2 0x16D4 PUSH2 0xF9E JUMP JUMPDEST SWAP1 POP PUSH1 0x0 PUSH2 0x16E1 DUP6 PUSH2 0x203F JUMP JUMPDEST SWAP1 POP PUSH1 0x0 PUSH2 0x16EE DUP6 PUSH2 0x203F JUMP JUMPDEST SWAP1 POP PUSH2 0x16FF DUP4 PUSH1 0x0 DUP10 DUP6 DUP6 DUP10 PUSH2 0x1E58 JUMP JUMPDEST DUP5 PUSH1 0x0 DUP1 DUP9 DUP2 MSTORE PUSH1 0x20 ADD SWAP1 DUP2 MSTORE PUSH1 0x20 ADD PUSH1 0x0 KECCAK256 PUSH1 0x0 DUP10 PUSH20 0xFFFFFFFFFFFFFFFFFFFFFFFFFFFFFFFFFFFFFFFF AND PUSH20 0xFFFFFFFFFFFFFFFFFFFFFFFFFFFFFFFFFFFFFFFF AND DUP2 MSTORE PUSH1 0x20 ADD SWAP1 DUP2 MSTORE PUSH1 0x20 ADD PUSH1 0x0 KECCAK256 PUSH1 0x0 DUP3 DUP3 SLOAD PUSH2 0x175E SWAP2 SWAP1 PUSH2 0x36FC JUMP JUMPDEST SWAP3 POP POP DUP2 SWAP1 SSTORE POP DUP7 PUSH20 0xFFFFFFFFFFFFFFFFFFFFFFFFFFFFFFFFFFFFFFFF AND PUSH1 0x0 PUSH20 0xFFFFFFFFFFFFFFFFFFFFFFFFFFFFFFFFFFFFFFFF AND DUP5 PUSH20 0xFFFFFFFFFFFFFFFFFFFFFFFFFFFFFFFFFFFFFFFF AND PUSH32 0xC3D58168C5AE7397731D063D5BBF3D657854427343F4C083240F7AACAA2D0F62 DUP10 DUP10 PUSH1 0x40 MLOAD PUSH2 0x17DC SWAP3 SWAP2 SWAP1 PUSH2 0x3AFC JUMP JUMPDEST PUSH1 0x40 MLOAD DUP1 SWAP2 SUB SWAP1 LOG4 PUSH2 0x17F3 DUP4 PUSH1 0x0 DUP10 DUP6 DUP6 DUP10 PUSH2 0x1E60 JUMP JUMPDEST PUSH2 0x1802 DUP4 PUSH1 0x0 DUP10 DUP10 DUP10 DUP10 PUSH2 0x20B9 JUMP JUMPDEST POP POP POP POP POP POP POP JUMP JUMPDEST DUP2 PUSH20 0xFFFFFFFFFFFFFFFFFFFFFFFFFFFFFFFFFFFFFFFF AND DUP4 PUSH20 0xFFFFFFFFFFFFFFFFFFFFFFFFFFFFFFFFFFFFFFFF AND SUB PUSH2 0x1879 JUMPI PUSH1 0x40 MLOAD PUSH32 0x8C379A000000000000000000000000000000000000000000000000000000000 DUP2 MSTORE PUSH1 0x4 ADD PUSH2 0x1870 SWAP1 PUSH2 0x3B97 JUMP JUMPDEST PUSH1 0x40 MLOAD DUP1 SWAP2 SUB SWAP1 REVERT JUMPDEST DUP1 PUSH1 0x1 PUSH1 0x0 DUP6 PUSH20 0xFFFFFFFFFFFFFFFFFFFFFFFFFFFFFFFFFFFFFFFF AND PUSH20 0xFFFFFFFFFFFFFFFFFFFFFFFFFFFFFFFFFFFFFFFF AND DUP2 MSTORE PUSH1 0x20 ADD SWAP1 DUP2 MSTORE PUSH1 0x20 ADD PUSH1 0x0 KECCAK256 PUSH1 0x0 DUP5 PUSH20 0xFFFFFFFFFFFFFFFFFFFFFFFFFFFFFFFFFFFFFFFF AND PUSH20 0xFFFFFFFFFFFFFFFFFFFFFFFFFFFFFFFFFFFFFFFF AND DUP2 MSTORE PUSH1 0x20 ADD SWAP1 DUP2 MSTORE PUSH1 0x20 ADD PUSH1 0x0 KECCAK256 PUSH1 0x0 PUSH2 0x100 EXP DUP2 SLOAD DUP2 PUSH1 0xFF MUL NOT AND SWAP1 DUP4 ISZERO ISZERO MUL OR SWAP1 SSTORE POP DUP2 PUSH20 0xFFFFFFFFFFFFFFFFFFFFFFFFFFFFFFFFFFFFFFFF AND DUP4 PUSH20 0xFFFFFFFFFFFFFFFFFFFFFFFFFFFFFFFFFFFFFFFF AND PUSH32 0x17307EAB39AB6107E8899845AD3D59BD9653F200F220920489CA2B5937696C31 DUP4 PUSH1 0x40 MLOAD PUSH2 0x196A SWAP2 SWAP1 PUSH2 0x2465 JUMP JUMPDEST PUSH1 0x40 MLOAD DUP1 SWAP2 SUB SWAP1 LOG3 POP POP POP JUMP JUMPDEST PUSH1 0x0 PUSH20 0xFFFFFFFFFFFFFFFFFFFFFFFFFFFFFFFFFFFFFFFF AND DUP5 PUSH20 0xFFFFFFFFFFFFFFFFFFFFFFFFFFFFFFFFFFFFFFFF AND SUB PUSH2 0x19E6 JUMPI PUSH1 0x40 MLOAD PUSH32 0x8C379A000000000000000000000000000000000000000000000000000000000 DUP2 MSTORE PUSH1 0x4 ADD PUSH2 0x19DD SWAP1 PUSH2 0x3926 JUMP JUMPDEST PUSH1 0x40 MLOAD DUP1 SWAP2 SUB SWAP1 REVERT JUMPDEST PUSH1 0x0 PUSH2 0x19F0 PUSH2 0xF9E JUMP JUMPDEST SWAP1 POP PUSH1 0x0 PUSH2 0x19FD DUP6 PUSH2 0x203F JUMP JUMPDEST SWAP1 POP PUSH1 0x0 PUSH2 0x1A0A DUP6 PUSH2 0x203F JUMP JUMPDEST SWAP1 POP PUSH2 0x1A1A DUP4 DUP10 DUP10 DUP6 DUP6 DUP10 PUSH2 0x1E58 JUMP JUMPDEST PUSH1 0x0 DUP1 PUSH1 0x0 DUP9 DUP2 MSTORE PUSH1 0x20 ADD SWAP1 DUP2 MSTORE PUSH1 0x20 ADD PUSH1 0x0 KECCAK256 PUSH1 0x0 DUP11 PUSH20 0xFFFFFFFFFFFFFFFFFFFFFFFFFFFFFFFFFFFFFFFF AND PUSH20 0xFFFFFFFFFFFFFFFFFFFFFFFFFFFFFFFFFFFFFFFF AND DUP2 MSTORE PUSH1 0x20 ADD SWAP1 DUP2 MSTORE PUSH1 0x20 ADD PUSH1 0x0 KECCAK256 SLOAD SWAP1 POP DUP6 DUP2 LT ISZERO PUSH2 0x1AB1 JUMPI PUSH1 0x40 MLOAD PUSH32 0x8C379A000000000000000000000000000000000000000000000000000000000 DUP2 MSTORE PUSH1 0x4 ADD PUSH2 0x1AA8 SWAP1 PUSH2 0x39B8 JUMP JUMPDEST PUSH1 0x40 MLOAD DUP1 SWAP2 SUB SWAP1 REVERT JUMPDEST DUP6 DUP2 SUB PUSH1 0x0 DUP1 DUP10 DUP2 MSTORE PUSH1 0x20 ADD SWAP1 DUP2 MSTORE PUSH1 0x20 ADD PUSH1 0x0 KECCAK256 PUSH1 0x0 DUP12 PUSH20 0xFFFFFFFFFFFFFFFFFFFFFFFFFFFFFFFFFFFFFFFF AND PUSH20 0xFFFFFFFFFFFFFFFFFFFFFFFFFFFFFFFFFFFFFFFF AND DUP2 MSTORE PUSH1 0x20 ADD SWAP1 DUP2 MSTORE PUSH1 0x20 ADD PUSH1 0x0 KECCAK256 DUP2 SWAP1 SSTORE POP DUP6 PUSH1 0x0 DUP1 DUP10 DUP2 MSTORE PUSH1 0x20 ADD SWAP1 DUP2 MSTORE PUSH1 0x20 ADD PUSH1 0x0 KECCAK256 PUSH1 0x0 DUP11 PUSH20 0xFFFFFFFFFFFFFFFFFFFFFFFFFFFFFFFFFFFFFFFF AND PUSH20 0xFFFFFFFFFFFFFFFFFFFFFFFFFFFFFFFFFFFFFFFF AND DUP2 MSTORE PUSH1 0x20 ADD SWAP1 DUP2 MSTORE PUSH1 0x20 ADD PUSH1 0x0 KECCAK256 PUSH1 0x0 DUP3 DUP3 SLOAD PUSH2 0x1B66 SWAP2 SWAP1 PUSH2 0x36FC JUMP JUMPDEST SWAP3 POP POP DUP2 SWAP1 SSTORE POP DUP8 PUSH20 0xFFFFFFFFFFFFFFFFFFFFFFFFFFFFFFFFFFFFFFFF AND DUP10 PUSH20 0xFFFFFFFFFFFFFFFFFFFFFFFFFFFFFFFFFFFFFFFF AND DUP6 PUSH20 0xFFFFFFFFFFFFFFFFFFFFFFFFFFFFFFFFFFFFFFFF AND PUSH32 0xC3D58168C5AE7397731D063D5BBF3D657854427343F4C083240F7AACAA2D0F62 DUP11 DUP11 PUSH1 0x40 MLOAD PUSH2 0x1BE3 SWAP3 SWAP2 SWAP1 PUSH2 0x3AFC JUMP JUMPDEST PUSH1 0x40 MLOAD DUP1 SWAP2 SUB SWAP1 LOG4 PUSH2 0x1BF9 DUP5 DUP11 DUP11 DUP7 DUP7 DUP11 PUSH2 0x1E60 JUMP JUMPDEST PUSH2 0x1C07 DUP5 DUP11 DUP11 DUP11 DUP11 DUP11 PUSH2 0x20B9 JUMP JUMPDEST POP POP POP POP POP POP POP POP POP JUMP JUMPDEST PUSH1 0x0 PUSH20 0xFFFFFFFFFFFFFFFFFFFFFFFFFFFFFFFFFFFFFFFF AND DUP4 PUSH20 0xFFFFFFFFFFFFFFFFFFFFFFFFFFFFFFFFFFFFFFFF AND SUB PUSH2 0x1C81 JUMPI PUSH1 0x40 MLOAD PUSH32 0x8C379A000000000000000000000000000000000000000000000000000000000 DUP2 MSTORE PUSH1 0x4 ADD PUSH2 0x1C78 SWAP1 PUSH2 0x3A4A JUMP JUMPDEST PUSH1 0x40 MLOAD DUP1 SWAP2 SUB SWAP1 REVERT JUMPDEST PUSH1 0x0 PUSH2 0x1C8B PUSH2 0xF9E JUMP JUMPDEST SWAP1 POP PUSH1 0x0 PUSH2 0x1C98 DUP5 PUSH2 0x203F JUMP JUMPDEST SWAP1 POP PUSH1 0x0 PUSH2 0x1CA5 DUP5 PUSH2 0x203F JUMP JUMPDEST SWAP1 POP PUSH2 0x1CC5 DUP4 DUP8 PUSH1 0x0 DUP6 DUP6 PUSH1 0x40 MLOAD DUP1 PUSH1 0x20 ADD PUSH1 0x40 MSTORE DUP1 PUSH1 0x0 DUP2 MSTORE POP PUSH2 0x1E58 JUMP JUMPDEST PUSH1 0x0 DUP1 PUSH1 0x0 DUP8 DUP2 MSTORE PUSH1 0x20 ADD SWAP1 DUP2 MSTORE PUSH1 0x20 ADD PUSH1 0x0 KECCAK256 PUSH1 0x0 DUP9 PUSH20 0xFFFFFFFFFFFFFFFFFFFFFFFFFFFFFFFFFFFFFFFF AND PUSH20 0xFFFFFFFFFFFFFFFFFFFFFFFFFFFFFFFFFFFFFFFF AND DUP2 MSTORE PUSH1 0x20 ADD SWAP1 DUP2 MSTORE PUSH1 0x20 ADD PUSH1 0x0 KECCAK256 SLOAD SWAP1 POP DUP5 DUP2 LT ISZERO PUSH2 0x1D5C JUMPI PUSH1 0x40 MLOAD PUSH32 0x8C379A000000000000000000000000000000000000000000000000000000000 DUP2 MSTORE PUSH1 0x4 ADD PUSH2 0x1D53 SWAP1 PUSH2 0x3ADC JUMP JUMPDEST PUSH1 0x40 MLOAD DUP1 SWAP2 SUB SWAP1 REVERT JUMPDEST DUP5 DUP2 SUB PUSH1 0x0 DUP1 DUP9 DUP2 MSTORE PUSH1 0x20 ADD SWAP1 DUP2 MSTORE PUSH1 0x20 ADD PUSH1 0x0 KECCAK256 PUSH1 0x0 DUP10 PUSH20 0xFFFFFFFFFFFFFFFFFFFFFFFFFFFFFFFFFFFFFFFF AND PUSH20 0xFFFFFFFFFFFFFFFFFFFFFFFFFFFFFFFFFFFFFFFF AND DUP2 MSTORE PUSH1 0x20 ADD SWAP1 DUP2 MSTORE PUSH1 0x20 ADD PUSH1 0x0 KECCAK256 DUP2 SWAP1 SSTORE POP PUSH1 0x0 PUSH20 0xFFFFFFFFFFFFFFFFFFFFFFFFFFFFFFFFFFFFFFFF AND DUP8 PUSH20 0xFFFFFFFFFFFFFFFFFFFFFFFFFFFFFFFFFFFFFFFF AND DUP6 PUSH20 0xFFFFFFFFFFFFFFFFFFFFFFFFFFFFFFFFFFFFFFFF AND PUSH32 0xC3D58168C5AE7397731D063D5BBF3D657854427343F4C083240F7AACAA2D0F62 DUP10 DUP10 PUSH1 0x40 MLOAD PUSH2 0x1E29 SWAP3 SWAP2 SWAP1 PUSH2 0x3AFC JUMP JUMPDEST PUSH1 0x40 MLOAD DUP1 SWAP2 SUB SWAP1 LOG4 PUSH2 0x1E4F DUP5 DUP9 PUSH1 0x0 DUP7 DUP7 PUSH1 0x40 MLOAD DUP1 PUSH1 0x20 ADD PUSH1 0x40 MSTORE DUP1 PUSH1 0x0 DUP2 MSTORE POP PUSH2 0x1E60 JUMP JUMPDEST POP POP POP POP POP POP POP JUMP JUMPDEST POP POP POP POP POP POP JUMP JUMPDEST POP POP POP POP POP POP JUMP JUMPDEST PUSH2 0x1E87 DUP5 PUSH20 0xFFFFFFFFFFFFFFFFFFFFFFFFFFFFFFFFFFFFFFFF AND PUSH2 0x2290 JUMP JUMPDEST ISZERO PUSH2 0x2037 JUMPI DUP4 PUSH20 0xFFFFFFFFFFFFFFFFFFFFFFFFFFFFFFFFFFFFFFFF AND PUSH4 0xBC197C81 DUP8 DUP8 DUP7 DUP7 DUP7 PUSH1 0x40 MLOAD DUP7 PUSH4 0xFFFFFFFF AND PUSH1 0xE0 SHL DUP2 MSTORE PUSH1 0x4 ADD PUSH2 0x1ECD SWAP6 SWAP5 SWAP4 SWAP3 SWAP2 SWAP1 PUSH2 0x3C0C JUMP JUMPDEST PUSH1 0x20 PUSH1 0x40 MLOAD DUP1 DUP4 SUB DUP2 PUSH1 0x0 DUP8 GAS CALL SWAP3 POP POP POP DUP1 ISZERO PUSH2 0x1F09 JUMPI POP PUSH1 0x40 MLOAD RETURNDATASIZE PUSH1 0x1F NOT PUSH1 0x1F DUP3 ADD AND DUP3 ADD DUP1 PUSH1 0x40 MSTORE POP DUP2 ADD SWAP1 PUSH2 0x1F06 SWAP2 SWAP1 PUSH2 0x3C89 JUMP JUMPDEST PUSH1 0x1 JUMPDEST PUSH2 0x1FAE JUMPI PUSH2 0x1F15 PUSH2 0x3CC3 JUMP JUMPDEST DUP1 PUSH4 0x8C379A0 SUB PUSH2 0x1F71 JUMPI POP PUSH2 0x1F29 PUSH2 0x3CE5 JUMP JUMPDEST DUP1 PUSH2 0x1F34 JUMPI POP PUSH2 0x1F73 JUMP JUMPDEST DUP1 PUSH1 0x40 MLOAD PUSH32 0x8C379A000000000000000000000000000000000000000000000000000000000 DUP2 MSTORE PUSH1 0x4 ADD PUSH2 0x1F68 SWAP2 SWAP1 PUSH2 0x26BB JUMP JUMPDEST PUSH1 0x40 MLOAD DUP1 SWAP2 SUB SWAP1 REVERT JUMPDEST POP JUMPDEST PUSH1 0x40 MLOAD PUSH32 0x8C379A000000000000000000000000000000000000000000000000000000000 DUP2 MSTORE PUSH1 0x4 ADD PUSH2 0x1FA5 SWAP1 PUSH2 0x3DE7 JUMP JUMPDEST PUSH1 0x40 MLOAD DUP1 SWAP2 SUB SWAP1 REVERT JUMPDEST PUSH4 0xBC197C81 PUSH1 0xE0 SHL PUSH28 0xFFFFFFFFFFFFFFFFFFFFFFFFFFFFFFFFFFFFFFFFFFFFFFFFFFFFFFFF NOT AND DUP2 PUSH28 0xFFFFFFFFFFFFFFFFFFFFFFFFFFFFFFFFFFFFFFFFFFFFFFFFFFFFFFFF NOT AND EQ PUSH2 0x2035 JUMPI PUSH1 0x40 MLOAD PUSH32 0x8C379A000000000000000000000000000000000000000000000000000000000 DUP2 MSTORE PUSH1 0x4 ADD PUSH2 0x202C SWAP1 PUSH2 0x3E79 JUMP JUMPDEST PUSH1 0x40 MLOAD DUP1 SWAP2 SUB SWAP1 REVERT JUMPDEST POP JUMPDEST POP POP POP POP POP POP JUMP JUMPDEST PUSH1 0x60 PUSH1 0x0 PUSH1 0x1 PUSH8 0xFFFFFFFFFFFFFFFF DUP2 GT ISZERO PUSH2 0x205E JUMPI PUSH2 0x205D PUSH2 0x249B JUMP JUMPDEST JUMPDEST PUSH1 0x40 MLOAD SWAP1 DUP1 DUP3 MSTORE DUP1 PUSH1 0x20 MUL PUSH1 0x20 ADD DUP3 ADD PUSH1 0x40 MSTORE DUP1 ISZERO PUSH2 0x208C JUMPI DUP2 PUSH1 0x20 ADD PUSH1 0x20 DUP3 MUL DUP1 CALLDATASIZE DUP4 CALLDATACOPY DUP1 DUP3 ADD SWAP2 POP POP SWAP1 POP JUMPDEST POP SWAP1 POP DUP3 DUP2 PUSH1 0x0 DUP2 MLOAD DUP2 LT PUSH2 0x20A4 JUMPI PUSH2 0x20A3 PUSH2 0x31E9 JUMP JUMPDEST JUMPDEST PUSH1 0x20 MUL PUSH1 0x20 ADD ADD DUP2 DUP2 MSTORE POP POP DUP1 SWAP2 POP POP SWAP2 SWAP1 POP JUMP JUMPDEST PUSH2 0x20D8 DUP5 PUSH20 0xFFFFFFFFFFFFFFFFFFFFFFFFFFFFFFFFFFFFFFFF AND PUSH2 0x2290 JUMP JUMPDEST ISZERO PUSH2 0x2288 JUMPI DUP4 PUSH20 0xFFFFFFFFFFFFFFFFFFFFFFFFFFFFFFFFFFFFFFFF AND PUSH4 0xF23A6E61 DUP8 DUP8 DUP7 DUP7 DUP7 PUSH1 0x40 MLOAD DUP7 PUSH4 0xFFFFFFFF AND PUSH1 0xE0 SHL DUP2 MSTORE PUSH1 0x4 ADD PUSH2 0x211E SWAP6 SWAP5 SWAP4 SWAP3 SWAP2 SWAP1 PUSH2 0x3E99 JUMP JUMPDEST PUSH1 0x20 PUSH1 0x40 MLOAD DUP1 DUP4 SUB DUP2 PUSH1 0x0 DUP8 GAS CALL SWAP3 POP POP POP DUP1 ISZERO PUSH2 0x215A JUMPI POP PUSH1 0x40 MLOAD RETURNDATASIZE PUSH1 0x1F NOT PUSH1 0x1F DUP3 ADD AND DUP3 ADD DUP1 PUSH1 0x40 MSTORE POP DUP2 ADD SWAP1 PUSH2 0x2157 SWAP2 SWAP1 PUSH2 0x3C89 JUMP JUMPDEST PUSH1 0x1 JUMPDEST PUSH2 0x21FF JUMPI PUSH2 0x2166 PUSH2 0x3CC3 JUMP JUMPDEST DUP1 PUSH4 0x8C379A0 SUB PUSH2 0x21C2 JUMPI POP PUSH2 0x217A PUSH2 0x3CE5 JUMP JUMPDEST DUP1 PUSH2 0x2185 JUMPI POP PUSH2 0x21C4 JUMP JUMPDEST DUP1 PUSH1 0x40 MLOAD PUSH32 0x8C379A000000000000000000000000000000000000000000000000000000000 DUP2 MSTORE PUSH1 0x4 ADD PUSH2 0x21B9 SWAP2 SWAP1 PUSH2 0x26BB JUMP JUMPDEST PUSH1 0x40 MLOAD DUP1 SWAP2 SUB SWAP1 REVERT JUMPDEST POP JUMPDEST PUSH1 0x40 MLOAD PUSH32 0x8C379A000000000000000000000000000000000000000000000000000000000 DUP2 MSTORE PUSH1 0x4 ADD PUSH2 0x21F6 SWAP1 PUSH2 0x3DE7 JUMP JUMPDEST PUSH1 0x40 MLOAD DUP1 SWAP2 SUB SWAP1 REVERT JUMPDEST PUSH4 0xF23A6E61 PUSH1 0xE0 SHL PUSH28 0xFFFFFFFFFFFFFFFFFFFFFFFFFFFFFFFFFFFFFFFFFFFFFFFFFFFFFFFF NOT AND DUP2 PUSH28 0xFFFFFFFFFFFFFFFFFFFFFFFFFFFFFFFFFFFFFFFFFFFFFFFFFFFFFFFF NOT AND EQ PUSH2 0x2286 JUMPI PUSH1 0x40 MLOAD PUSH32 0x8C379A000000000000000000000000000000000000000000000000000000000 DUP2 MSTORE PUSH1 0x4 ADD PUSH2 0x227D SWAP1 PUSH2 0x3E79 JUMP JUMPDEST PUSH1 0x40 MLOAD DUP1 SWAP2 SUB SWAP1 REVERT JUMPDEST POP JUMPDEST POP POP POP POP POP POP JUMP JUMPDEST PUSH1 0x0 DUP1 DUP3 PUSH20 0xFFFFFFFFFFFFFFFFFFFFFFFFFFFFFFFFFFFFFFFF AND EXTCODESIZE GT SWAP1 POP SWAP2 SWAP1 POP JUMP JUMPDEST PUSH1 0x0 PUSH1 0x40 MLOAD SWAP1 POP SWAP1 JUMP JUMPDEST PUSH1 0x0 DUP1 REVERT JUMPDEST PUSH1 0x0 DUP1 REVERT JUMPDEST PUSH1 0x0 PUSH20 0xFFFFFFFFFFFFFFFFFFFFFFFFFFFFFFFFFFFFFFFF DUP3 AND SWAP1 POP SWAP2 SWAP1 POP JUMP JUMPDEST PUSH1 0x0 PUSH2 0x22F2 DUP3 PUSH2 0x22C7 JUMP JUMPDEST SWAP1 POP SWAP2 SWAP1 POP JUMP JUMPDEST PUSH2 0x2302 DUP2 PUSH2 0x22E7 JUMP JUMPDEST DUP2 EQ PUSH2 0x230D JUMPI PUSH1 0x0 DUP1 REVERT JUMPDEST POP JUMP JUMPDEST PUSH1 0x0 DUP2 CALLDATALOAD SWAP1 POP PUSH2 0x231F DUP2 PUSH2 0x22F9 JUMP JUMPDEST SWAP3 SWAP2 POP POP JUMP JUMPDEST PUSH1 0x0 DUP2 SWAP1 POP SWAP2 SWAP1 POP JUMP JUMPDEST PUSH2 0x2338 DUP2 PUSH2 0x2325 JUMP JUMPDEST DUP2 EQ PUSH2 0x2343 JUMPI PUSH1 0x0 DUP1 REVERT JUMPDEST POP JUMP JUMPDEST PUSH1 0x0 DUP2 CALLDATALOAD SWAP1 POP PUSH2 0x2355 DUP2 PUSH2 0x232F JUMP JUMPDEST SWAP3 SWAP2 POP POP JUMP JUMPDEST PUSH1 0x0 DUP1 PUSH1 0x40 DUP4 DUP6 SUB SLT ISZERO PUSH2 0x2372 JUMPI PUSH2 0x2371 PUSH2 0x22BD JUMP JUMPDEST JUMPDEST PUSH1 0x0 PUSH2 0x2380 DUP6 DUP3 DUP7 ADD PUSH2 0x2310 JUMP JUMPDEST SWAP3 POP POP PUSH1 0x20 PUSH2 0x2391 DUP6 DUP3 DUP7 ADD PUSH2 0x2346 JUMP JUMPDEST SWAP2 POP POP SWAP3 POP SWAP3 SWAP1 POP JUMP JUMPDEST PUSH2 0x23A4 DUP2 PUSH2 0x2325 JUMP JUMPDEST DUP3 MSTORE POP POP JUMP JUMPDEST PUSH1 0x0 PUSH1 0x20 DUP3 ADD SWAP1 POP PUSH2 0x23BF PUSH1 0x0 DUP4 ADD DUP5 PUSH2 0x239B JUMP JUMPDEST SWAP3 SWAP2 POP POP JUMP JUMPDEST PUSH1 0x0 PUSH32 0xFFFFFFFF00000000000000000000000000000000000000000000000000000000 DUP3 AND SWAP1 POP SWAP2 SWAP1 POP JUMP JUMPDEST PUSH2 0x23FA DUP2 PUSH2 0x23C5 JUMP JUMPDEST DUP2 EQ PUSH2 0x2405 JUMPI PUSH1 0x0 DUP1 REVERT JUMPDEST POP JUMP JUMPDEST PUSH1 0x0 DUP2 CALLDATALOAD SWAP1 POP PUSH2 0x2417 DUP2 PUSH2 0x23F1 JUMP JUMPDEST SWAP3 SWAP2 POP POP JUMP JUMPDEST PUSH1 0x0 PUSH1 0x20 DUP3 DUP5 SUB SLT ISZERO PUSH2 0x2433 JUMPI PUSH2 0x2432 PUSH2 0x22BD JUMP JUMPDEST JUMPDEST PUSH1 0x0 PUSH2 0x2441 DUP5 DUP3 DUP6 ADD PUSH2 0x2408 JUMP JUMPDEST SWAP2 POP POP SWAP3 SWAP2 POP POP JUMP JUMPDEST PUSH1 0x0 DUP2 ISZERO ISZERO SWAP1 POP SWAP2 SWAP1 POP JUMP JUMPDEST PUSH2 0x245F DUP2 PUSH2 0x244A JUMP JUMPDEST DUP3 MSTORE POP POP JUMP JUMPDEST PUSH1 0x0 PUSH1 0x20 DUP3 ADD SWAP1 POP PUSH2 0x247A PUSH1 0x0 DUP4 ADD DUP5 PUSH2 0x2456 JUMP JUMPDEST SWAP3 SWAP2 POP POP JUMP JUMPDEST PUSH1 0x0 DUP1 REVERT JUMPDEST PUSH1 0x0 DUP1 REVERT JUMPDEST PUSH1 0x0 PUSH1 0x1F NOT PUSH1 0x1F DUP4 ADD AND SWAP1 POP SWAP2 SWAP1 POP JUMP JUMPDEST PUSH32 0x4E487B7100000000000000000000000000000000000000000000000000000000 PUSH1 0x0 MSTORE PUSH1 0x41 PUSH1 0x4 MSTORE PUSH1 0x24 PUSH1 0x0 REVERT JUMPDEST PUSH2 0x24D3 DUP3 PUSH2 0x248A JUMP JUMPDEST DUP2 ADD DUP2 DUP2 LT PUSH8 0xFFFFFFFFFFFFFFFF DUP3 GT OR ISZERO PUSH2 0x24F2 JUMPI PUSH2 0x24F1 PUSH2 0x249B JUMP JUMPDEST JUMPDEST DUP1 PUSH1 0x40 MSTORE POP POP POP JUMP JUMPDEST PUSH1 0x0 PUSH2 0x2505 PUSH2 0x22B3 JUMP JUMPDEST SWAP1 POP PUSH2 0x2511 DUP3 DUP3 PUSH2 0x24CA JUMP JUMPDEST SWAP2 SWAP1 POP JUMP JUMPDEST PUSH1 0x0 PUSH8 0xFFFFFFFFFFFFFFFF DUP3 GT ISZERO PUSH2 0x2531 JUMPI PUSH2 0x2530 PUSH2 0x249B JUMP JUMPDEST JUMPDEST PUSH2 0x253A DUP3 PUSH2 0x248A JUMP JUMPDEST SWAP1 POP PUSH1 0x20 DUP2 ADD SWAP1 POP SWAP2 SWAP1 POP JUMP JUMPDEST DUP3 DUP2 DUP4 CALLDATACOPY PUSH1 0x0 DUP4 DUP4 ADD MSTORE POP POP POP JUMP JUMPDEST PUSH1 0x0 PUSH2 0x2569 PUSH2 0x2564 DUP5 PUSH2 0x2516 JUMP JUMPDEST PUSH2 0x24FB JUMP JUMPDEST SWAP1 POP DUP3 DUP2 MSTORE PUSH1 0x20 DUP2 ADD DUP5 DUP5 DUP5 ADD GT ISZERO PUSH2 0x2585 JUMPI PUSH2 0x2584 PUSH2 0x2485 JUMP JUMPDEST JUMPDEST PUSH2 0x2590 DUP5 DUP3 DUP6 PUSH2 0x2547 JUMP JUMPDEST POP SWAP4 SWAP3 POP POP POP JUMP JUMPDEST PUSH1 0x0 DUP3 PUSH1 0x1F DUP4 ADD SLT PUSH2 0x25AD JUMPI PUSH2 0x25AC PUSH2 0x2480 JUMP JUMPDEST JUMPDEST DUP2 CALLDATALOAD PUSH2 0x25BD DUP5 DUP3 PUSH1 0x20 DUP7 ADD PUSH2 0x2556 JUMP JUMPDEST SWAP2 POP POP SWAP3 SWAP2 POP POP JUMP JUMPDEST PUSH1 0x0 PUSH1 0x20 DUP3 DUP5 SUB SLT ISZERO PUSH2 0x25DC JUMPI PUSH2 0x25DB PUSH2 0x22BD JUMP JUMPDEST JUMPDEST PUSH1 0x0 DUP3 ADD CALLDATALOAD PUSH8 0xFFFFFFFFFFFFFFFF DUP2 GT ISZERO PUSH2 0x25FA JUMPI PUSH2 0x25F9 PUSH2 0x22C2 JUMP JUMPDEST JUMPDEST PUSH2 0x2606 DUP5 DUP3 DUP6 ADD PUSH2 0x2598 JUMP JUMPDEST SWAP2 POP POP SWAP3 SWAP2 POP POP JUMP JUMPDEST PUSH1 0x0 PUSH1 0x20 DUP3 DUP5 SUB SLT ISZERO PUSH2 0x2625 JUMPI PUSH2 0x2624 PUSH2 0x22BD JUMP JUMPDEST JUMPDEST PUSH1 0x0 PUSH2 0x2633 DUP5 DUP3 DUP6 ADD PUSH2 0x2346 JUMP JUMPDEST SWAP2 POP POP SWAP3 SWAP2 POP POP JUMP JUMPDEST PUSH1 0x0 DUP2 MLOAD SWAP1 POP SWAP2 SWAP1 POP JUMP JUMPDEST PUSH1 0x0 DUP3 DUP3 MSTORE PUSH1 0x20 DUP3 ADD SWAP1 POP SWAP3 SWAP2 POP POP JUMP JUMPDEST PUSH1 0x0 JUMPDEST DUP4 DUP2 LT ISZERO PUSH2 0x2676 JUMPI DUP1 DUP3 ADD MLOAD DUP2 DUP5 ADD MSTORE PUSH1 0x20 DUP2 ADD SWAP1 POP PUSH2 0x265B JUMP JUMPDEST PUSH1 0x0 DUP5 DUP5 ADD MSTORE POP POP POP POP JUMP JUMPDEST PUSH1 0x0 PUSH2 0x268D DUP3 PUSH2 0x263C JUMP JUMPDEST PUSH2 0x2697 DUP2 DUP6 PUSH2 0x2647 JUMP JUMPDEST SWAP4 POP PUSH2 0x26A7 DUP2 DUP6 PUSH1 0x20 DUP7 ADD PUSH2 0x2658 JUMP JUMPDEST PUSH2 0x26B0 DUP2 PUSH2 0x248A JUMP JUMPDEST DUP5 ADD SWAP2 POP POP SWAP3 SWAP2 POP POP JUMP JUMPDEST PUSH1 0x0 PUSH1 0x20 DUP3 ADD SWAP1 POP DUP2 DUP2 SUB PUSH1 0x0 DUP4 ADD MSTORE PUSH2 0x26D5 DUP2 DUP5 PUSH2 0x2682 JUMP JUMPDEST SWAP1 POP SWAP3 SWAP2 POP POP JUMP JUMPDEST PUSH1 0x0 PUSH8 0xFFFFFFFFFFFFFFFF DUP3 GT ISZERO PUSH2 0x26F8 JUMPI PUSH2 0x26F7 PUSH2 0x249B JUMP JUMPDEST JUMPDEST PUSH1 0x20 DUP3 MUL SWAP1 POP PUSH1 0x20 DUP2 ADD SWAP1 POP SWAP2 SWAP1 POP JUMP JUMPDEST PUSH1 0x0 DUP1 REVERT JUMPDEST PUSH1 0x0 PUSH2 0x2721 PUSH2 0x271C DUP5 PUSH2 0x26DD JUMP JUMPDEST PUSH2 0x24FB JUMP JUMPDEST SWAP1 POP DUP1 DUP4 DUP3 MSTORE PUSH1 0x20 DUP3 ADD SWAP1 POP PUSH1 0x20 DUP5 MUL DUP4 ADD DUP6 DUP2 GT ISZERO PUSH2 0x2744 JUMPI PUSH2 0x2743 PUSH2 0x2709 JUMP JUMPDEST JUMPDEST DUP4 JUMPDEST DUP2 DUP2 LT ISZERO PUSH2 0x276D JUMPI DUP1 PUSH2 0x2759 DUP9 DUP3 PUSH2 0x2346 JUMP JUMPDEST DUP5 MSTORE PUSH1 0x20 DUP5 ADD SWAP4 POP POP PUSH1 0x20 DUP2 ADD SWAP1 POP PUSH2 0x2746 JUMP JUMPDEST POP POP POP SWAP4 SWAP3 POP POP POP JUMP JUMPDEST PUSH1 0x0 DUP3 PUSH1 0x1F DUP4 ADD SLT PUSH2 0x278C JUMPI PUSH2 0x278B PUSH2 0x2480 JUMP JUMPDEST JUMPDEST DUP2 CALLDATALOAD PUSH2 0x279C DUP5 DUP3 PUSH1 0x20 DUP7 ADD PUSH2 0x270E JUMP JUMPDEST SWAP2 POP POP SWAP3 SWAP2 POP POP JUMP JUMPDEST PUSH1 0x0 PUSH8 0xFFFFFFFFFFFFFFFF DUP3 GT ISZERO PUSH2 0x27C0 JUMPI PUSH2 0x27BF PUSH2 0x249B JUMP JUMPDEST JUMPDEST PUSH2 0x27C9 DUP3 PUSH2 0x248A JUMP JUMPDEST SWAP1 POP PUSH1 0x20 DUP2 ADD SWAP1 POP SWAP2 SWAP1 POP JUMP JUMPDEST PUSH1 0x0 PUSH2 0x27E9 PUSH2 0x27E4 DUP5 PUSH2 0x27A5 JUMP JUMPDEST PUSH2 0x24FB JUMP JUMPDEST SWAP1 POP DUP3 DUP2 MSTORE PUSH1 0x20 DUP2 ADD DUP5 DUP5 DUP5 ADD GT ISZERO PUSH2 0x2805 JUMPI PUSH2 0x2804 PUSH2 0x2485 JUMP JUMPDEST JUMPDEST PUSH2 0x2810 DUP5 DUP3 DUP6 PUSH2 0x2547 JUMP JUMPDEST POP SWAP4 SWAP3 POP POP POP JUMP JUMPDEST PUSH1 0x0 DUP3 PUSH1 0x1F DUP4 ADD SLT PUSH2 0x282D JUMPI PUSH2 0x282C PUSH2 0x2480 JUMP JUMPDEST JUMPDEST DUP2 CALLDATALOAD PUSH2 0x283D DUP5 DUP3 PUSH1 0x20 DUP7 ADD PUSH2 0x27D6 JUMP JUMPDEST SWAP2 POP POP SWAP3 SWAP2 POP POP JUMP JUMPDEST PUSH1 0x0 DUP1 PUSH1 0x0 DUP1 PUSH1 0x80 DUP6 DUP8 SUB SLT ISZERO PUSH2 0x2860 JUMPI PUSH2 0x285F PUSH2 0x22BD JUMP JUMPDEST JUMPDEST PUSH1 0x0 PUSH2 0x286E DUP8 DUP3 DUP9 ADD PUSH2 0x2310 JUMP JUMPDEST SWAP5 POP POP PUSH1 0x20 DUP6 ADD CALLDATALOAD PUSH8 0xFFFFFFFFFFFFFFFF DUP2 GT ISZERO PUSH2 0x288F JUMPI PUSH2 0x288E PUSH2 0x22C2 JUMP JUMPDEST JUMPDEST PUSH2 0x289B DUP8 DUP3 DUP9 ADD PUSH2 0x2777 JUMP JUMPDEST SWAP4 POP POP PUSH1 0x40 DUP6 ADD CALLDATALOAD PUSH8 0xFFFFFFFFFFFFFFFF DUP2 GT ISZERO PUSH2 0x28BC JUMPI PUSH2 0x28BB PUSH2 0x22C2 JUMP JUMPDEST JUMPDEST PUSH2 0x28C8 DUP8 DUP3 DUP9 ADD PUSH2 0x2777 JUMP JUMPDEST SWAP3 POP POP PUSH1 0x60 DUP6 ADD CALLDATALOAD PUSH8 0xFFFFFFFFFFFFFFFF DUP2 GT ISZERO PUSH2 0x28E9 JUMPI PUSH2 0x28E8 PUSH2 0x22C2 JUMP JUMPDEST JUMPDEST PUSH2 0x28F5 DUP8 DUP3 DUP9 ADD PUSH2 0x2818 JUMP JUMPDEST SWAP2 POP POP SWAP3 SWAP6 SWAP2 SWAP5 POP SWAP3 POP JUMP JUMPDEST PUSH1 0x0 DUP1 PUSH1 0x0 DUP1 PUSH1 0x0 PUSH1 0xA0 DUP7 DUP9 SUB SLT ISZERO PUSH2 0x291D JUMPI PUSH2 0x291C PUSH2 0x22BD JUMP JUMPDEST JUMPDEST PUSH1 0x0 PUSH2 0x292B DUP9 DUP3 DUP10 ADD PUSH2 0x2310 JUMP JUMPDEST SWAP6 POP POP PUSH1 0x20 PUSH2 0x293C DUP9 DUP3 DUP10 ADD PUSH2 0x2310 JUMP JUMPDEST SWAP5 POP POP PUSH1 0x40 DUP7 ADD CALLDATALOAD PUSH8 0xFFFFFFFFFFFFFFFF DUP2 GT ISZERO PUSH2 0x295D JUMPI PUSH2 0x295C PUSH2 0x22C2 JUMP JUMPDEST JUMPDEST PUSH2 0x2969 DUP9 DUP3 DUP10 ADD PUSH2 0x2777 JUMP JUMPDEST SWAP4 POP POP PUSH1 0x60 DUP7 ADD CALLDATALOAD PUSH8 0xFFFFFFFFFFFFFFFF DUP2 GT ISZERO PUSH2 0x298A JUMPI PUSH2 0x2989 PUSH2 0x22C2 JUMP JUMPDEST JUMPDEST PUSH2 0x2996 DUP9 DUP3 DUP10 ADD PUSH2 0x2777 JUMP JUMPDEST SWAP3 POP POP PUSH1 0x80 DUP7 ADD CALLDATALOAD PUSH8 0xFFFFFFFFFFFFFFFF DUP2 GT ISZERO PUSH2 0x29B7 JUMPI PUSH2 0x29B6 PUSH2 0x22C2 JUMP JUMPDEST JUMPDEST PUSH2 0x29C3 DUP9 DUP3 DUP10 ADD PUSH2 0x2818 JUMP JUMPDEST SWAP2 POP POP SWAP3 SWAP6 POP SWAP3 SWAP6 SWAP1 SWAP4 POP JUMP JUMPDEST PUSH1 0x0 PUSH8 0xFFFFFFFFFFFFFFFF DUP3 GT ISZERO PUSH2 0x29EB JUMPI PUSH2 0x29EA PUSH2 0x249B JUMP JUMPDEST JUMPDEST PUSH1 0x20 DUP3 MUL SWAP1 POP PUSH1 0x20 DUP2 ADD SWAP1 POP SWAP2 SWAP1 POP JUMP JUMPDEST PUSH1 0x0 PUSH2 0x2A0F PUSH2 0x2A0A DUP5 PUSH2 0x29D0 JUMP JUMPDEST PUSH2 0x24FB JUMP JUMPDEST SWAP1 POP DUP1 DUP4 DUP3 MSTORE PUSH1 0x20 DUP3 ADD SWAP1 POP PUSH1 0x20 DUP5 MUL DUP4 ADD DUP6 DUP2 GT ISZERO PUSH2 0x2A32 JUMPI PUSH2 0x2A31 PUSH2 0x2709 JUMP JUMPDEST JUMPDEST DUP4 JUMPDEST DUP2 DUP2 LT ISZERO PUSH2 0x2A5B JUMPI DUP1 PUSH2 0x2A47 DUP9 DUP3 PUSH2 0x2310 JUMP JUMPDEST DUP5 MSTORE PUSH1 0x20 DUP5 ADD SWAP4 POP POP PUSH1 0x20 DUP2 ADD SWAP1 POP PUSH2 0x2A34 JUMP JUMPDEST POP POP POP SWAP4 SWAP3 POP POP POP JUMP JUMPDEST PUSH1 0x0 DUP3 PUSH1 0x1F DUP4 ADD SLT PUSH2 0x2A7A JUMPI PUSH2 0x2A79 PUSH2 0x2480 JUMP JUMPDEST JUMPDEST DUP2 CALLDATALOAD PUSH2 0x2A8A DUP5 DUP3 PUSH1 0x20 DUP7 ADD PUSH2 0x29FC JUMP JUMPDEST SWAP2 POP POP SWAP3 SWAP2 POP POP JUMP JUMPDEST PUSH1 0x0 DUP1 PUSH1 0x40 DUP4 DUP6 SUB SLT ISZERO PUSH2 0x2AAA JUMPI PUSH2 0x2AA9 PUSH2 0x22BD JUMP JUMPDEST JUMPDEST PUSH1 0x0 DUP4 ADD CALLDATALOAD PUSH8 0xFFFFFFFFFFFFFFFF DUP2 GT ISZERO PUSH2 0x2AC8 JUMPI PUSH2 0x2AC7 PUSH2 0x22C2 JUMP JUMPDEST JUMPDEST PUSH2 0x2AD4 DUP6 DUP3 DUP7 ADD PUSH2 0x2A65 JUMP JUMPDEST SWAP3 POP POP PUSH1 0x20 DUP4 ADD CALLDATALOAD PUSH8 0xFFFFFFFFFFFFFFFF DUP2 GT ISZERO PUSH2 0x2AF5 JUMPI PUSH2 0x2AF4 PUSH2 0x22C2 JUMP JUMPDEST JUMPDEST PUSH2 0x2B01 DUP6 DUP3 DUP7 ADD PUSH2 0x2777 JUMP JUMPDEST SWAP2 POP POP SWAP3 POP SWAP3 SWAP1 POP JUMP JUMPDEST PUSH1 0x0 DUP2 MLOAD SWAP1 POP SWAP2 SWAP1 POP JUMP JUMPDEST PUSH1 0x0 DUP3 DUP3 MSTORE PUSH1 0x20 DUP3 ADD SWAP1 POP SWAP3 SWAP2 POP POP JUMP JUMPDEST PUSH1 0x0 DUP2 SWAP1 POP PUSH1 0x20 DUP3 ADD SWAP1 POP SWAP2 SWAP1 POP JUMP JUMPDEST PUSH2 0x2B40 DUP2 PUSH2 0x2325 JUMP JUMPDEST DUP3 MSTORE POP POP JUMP JUMPDEST PUSH1 0x0 PUSH2 0x2B52 DUP4 DUP4 PUSH2 0x2B37 JUMP JUMPDEST PUSH1 0x20 DUP4 ADD SWAP1 POP SWAP3 SWAP2 POP POP JUMP JUMPDEST PUSH1 0x0 PUSH1 0x20 DUP3 ADD SWAP1 POP SWAP2 SWAP1 POP JUMP JUMPDEST PUSH1 0x0 PUSH2 0x2B76 DUP3 PUSH2 0x2B0B JUMP JUMPDEST PUSH2 0x2B80 DUP2 DUP6 PUSH2 0x2B16 JUMP JUMPDEST SWAP4 POP PUSH2 0x2B8B DUP4 PUSH2 0x2B27 JUMP JUMPDEST DUP1 PUSH1 0x0 JUMPDEST DUP4 DUP2 LT ISZERO PUSH2 0x2BBC JUMPI DUP2 MLOAD PUSH2 0x2BA3 DUP9 DUP3 PUSH2 0x2B46 JUMP JUMPDEST SWAP8 POP PUSH2 0x2BAE DUP4 PUSH2 0x2B5E JUMP JUMPDEST SWAP3 POP POP PUSH1 0x1 DUP2 ADD SWAP1 POP PUSH2 0x2B8F JUMP JUMPDEST POP DUP6 SWAP4 POP POP POP POP SWAP3 SWAP2 POP POP JUMP JUMPDEST PUSH1 0x0 PUSH1 0x20 DUP3 ADD SWAP1 POP DUP2 DUP2 SUB PUSH1 0x0 DUP4 ADD MSTORE PUSH2 0x2BE3 DUP2 DUP5 PUSH2 0x2B6B JUMP JUMPDEST SWAP1 POP SWAP3 SWAP2 POP POP JUMP JUMPDEST PUSH1 0x0 DUP1 PUSH1 0x0 PUSH1 0x60 DUP5 DUP7 SUB SLT ISZERO PUSH2 0x2C04 JUMPI PUSH2 0x2C03 PUSH2 0x22BD JUMP JUMPDEST JUMPDEST PUSH1 0x0 PUSH2 0x2C12 DUP7 DUP3 DUP8 ADD PUSH2 0x2310 JUMP JUMPDEST SWAP4 POP POP PUSH1 0x20 DUP5 ADD CALLDATALOAD PUSH8 0xFFFFFFFFFFFFFFFF DUP2 GT ISZERO PUSH2 0x2C33 JUMPI PUSH2 0x2C32 PUSH2 0x22C2 JUMP JUMPDEST JUMPDEST PUSH2 0x2C3F DUP7 DUP3 DUP8 ADD PUSH2 0x2777 JUMP JUMPDEST SWAP3 POP POP PUSH1 0x40 DUP5 ADD CALLDATALOAD PUSH8 0xFFFFFFFFFFFFFFFF DUP2 GT ISZERO PUSH2 0x2C60 JUMPI PUSH2 0x2C5F PUSH2 0x22C2 JUMP JUMPDEST JUMPDEST PUSH2 0x2C6C DUP7 DUP3 DUP8 ADD PUSH2 0x2777 JUMP JUMPDEST SWAP2 POP POP SWAP3 POP SWAP3 POP SWAP3 JUMP JUMPDEST PUSH1 0x0 DUP1 PUSH1 0x0 DUP1 PUSH1 0x80 DUP6 DUP8 SUB SLT ISZERO PUSH2 0x2C90 JUMPI PUSH2 0x2C8F PUSH2 0x22BD JUMP JUMPDEST JUMPDEST PUSH1 0x0 PUSH2 0x2C9E DUP8 DUP3 DUP9 ADD PUSH2 0x2310 JUMP JUMPDEST SWAP5 POP POP PUSH1 0x20 PUSH2 0x2CAF DUP8 DUP3 DUP9 ADD PUSH2 0x2346 JUMP JUMPDEST SWAP4 POP POP PUSH1 0x40 PUSH2 0x2CC0 DUP8 DUP3 DUP9 ADD PUSH2 0x2346 JUMP JUMPDEST SWAP3 POP POP PUSH1 0x60 DUP6 ADD CALLDATALOAD PUSH8 0xFFFFFFFFFFFFFFFF DUP2 GT ISZERO PUSH2 0x2CE1 JUMPI PUSH2 0x2CE0 PUSH2 0x22C2 JUMP JUMPDEST JUMPDEST PUSH2 0x2CED DUP8 DUP3 DUP9 ADD PUSH2 0x2818 JUMP JUMPDEST SWAP2 POP POP SWAP3 SWAP6 SWAP2 SWAP5 POP SWAP3 POP JUMP JUMPDEST PUSH2 0x2D02 DUP2 PUSH2 0x22E7 JUMP JUMPDEST DUP3 MSTORE POP POP JUMP JUMPDEST PUSH1 0x0 PUSH1 0x20 DUP3 ADD SWAP1 POP PUSH2 0x2D1D PUSH1 0x0 DUP4 ADD DUP5 PUSH2 0x2CF9 JUMP JUMPDEST SWAP3 SWAP2 POP POP JUMP JUMPDEST PUSH2 0x2D2C DUP2 PUSH2 0x244A JUMP JUMPDEST DUP2 EQ PUSH2 0x2D37 JUMPI PUSH1 0x0 DUP1 REVERT JUMPDEST POP JUMP JUMPDEST PUSH1 0x0 DUP2 CALLDATALOAD SWAP1 POP PUSH2 0x2D49 DUP2 PUSH2 0x2D23 JUMP JUMPDEST SWAP3 SWAP2 POP POP JUMP JUMPDEST PUSH1 0x0 DUP1 PUSH1 0x40 DUP4 DUP6 SUB SLT ISZERO PUSH2 0x2D66 JUMPI PUSH2 0x2D65 PUSH2 0x22BD JUMP JUMPDEST JUMPDEST PUSH1 0x0 PUSH2 0x2D74 DUP6 DUP3 DUP7 ADD PUSH2 0x2310 JUMP JUMPDEST SWAP3 POP POP PUSH1 0x20 PUSH2 0x2D85 DUP6 DUP3 DUP7 ADD PUSH2 0x2D3A JUMP JUMPDEST SWAP2 POP POP SWAP3 POP SWAP3 SWAP1 POP JUMP JUMPDEST PUSH1 0x0 DUP1 PUSH1 0x40 DUP4 DUP6 SUB SLT ISZERO PUSH2 0x2DA6 JUMPI PUSH2 0x2DA5 PUSH2 0x22BD JUMP JUMPDEST JUMPDEST PUSH1 0x0 PUSH2 0x2DB4 DUP6 DUP3 DUP7 ADD PUSH2 0x2310 JUMP JUMPDEST SWAP3 POP POP PUSH1 0x20 PUSH2 0x2DC5 DUP6 DUP3 DUP7 ADD PUSH2 0x2310 JUMP JUMPDEST SWAP2 POP POP SWAP3 POP SWAP3 SWAP1 POP JUMP JUMPDEST PUSH1 0x0 DUP1 PUSH1 0x0 DUP1 PUSH1 0x0 PUSH1 0xA0 DUP7 DUP9 SUB SLT ISZERO PUSH2 0x2DEB JUMPI PUSH2 0x2DEA PUSH2 0x22BD JUMP JUMPDEST JUMPDEST PUSH1 0x0 PUSH2 0x2DF9 DUP9 DUP3 DUP10 ADD PUSH2 0x2310 JUMP JUMPDEST SWAP6 POP POP PUSH1 0x20 PUSH2 0x2E0A DUP9 DUP3 DUP10 ADD PUSH2 0x2310 JUMP JUMPDEST SWAP5 POP POP PUSH1 0x40 PUSH2 0x2E1B DUP9 DUP3 DUP10 ADD PUSH2 0x2346 JUMP JUMPDEST SWAP4 POP POP PUSH1 0x60 PUSH2 0x2E2C DUP9 DUP3 DUP10 ADD PUSH2 0x2346 JUMP JUMPDEST SWAP3 POP POP PUSH1 0x80 DUP7 ADD CALLDATALOAD PUSH8 0xFFFFFFFFFFFFFFFF DUP2 GT ISZERO PUSH2 0x2E4D JUMPI PUSH2 0x2E4C PUSH2 0x22C2 JUMP JUMPDEST JUMPDEST PUSH2 0x2E59 DUP9 DUP3 DUP10 ADD PUSH2 0x2818 JUMP JUMPDEST SWAP2 POP POP SWAP3 SWAP6 POP SWAP3 SWAP6 SWAP1 SWAP4 POP JUMP JUMPDEST PUSH1 0x0 PUSH1 0x20 DUP3 DUP5 SUB SLT ISZERO PUSH2 0x2E7C JUMPI PUSH2 0x2E7B PUSH2 0x22BD JUMP JUMPDEST JUMPDEST PUSH1 0x0 PUSH2 0x2E8A DUP5 DUP3 DUP6 ADD PUSH2 0x2310 JUMP JUMPDEST SWAP2 POP POP SWAP3 SWAP2 POP POP JUMP JUMPDEST PUSH1 0x0 DUP1 PUSH1 0x0 PUSH1 0x60 DUP5 DUP7 SUB SLT ISZERO PUSH2 0x2EAC JUMPI PUSH2 0x2EAB PUSH2 0x22BD JUMP JUMPDEST JUMPDEST PUSH1 0x0 PUSH2 0x2EBA DUP7 DUP3 DUP8 ADD PUSH2 0x2310 JUMP JUMPDEST SWAP4 POP POP PUSH1 0x20 PUSH2 0x2ECB DUP7 DUP3 DUP8 ADD PUSH2 0x2346 JUMP JUMPDEST SWAP3 POP POP PUSH1 0x40 PUSH2 0x2EDC DUP7 DUP3 DUP8 ADD PUSH2 0x2346 JUMP JUMPDEST SWAP2 POP POP SWAP3 POP SWAP3 POP SWAP3 JUMP JUMPDEST PUSH32 0x455243313135353A2061646472657373207A65726F206973206E6F7420612076 PUSH1 0x0 DUP3 ADD MSTORE PUSH32 0x616C6964206F776E657200000000000000000000000000000000000000000000 PUSH1 0x20 DUP3 ADD MSTORE POP JUMP JUMPDEST PUSH1 0x0 PUSH2 0x2F42 PUSH1 0x2A DUP4 PUSH2 0x2647 JUMP JUMPDEST SWAP2 POP PUSH2 0x2F4D DUP3 PUSH2 0x2EE6 JUMP JUMPDEST PUSH1 0x40 DUP3 ADD SWAP1 POP SWAP2 SWAP1 POP JUMP JUMPDEST PUSH1 0x0 PUSH1 0x20 DUP3 ADD SWAP1 POP DUP2 DUP2 SUB PUSH1 0x0 DUP4 ADD MSTORE PUSH2 0x2F71 DUP2 PUSH2 0x2F35 JUMP JUMPDEST SWAP1 POP SWAP2 SWAP1 POP JUMP JUMPDEST PUSH1 0x0 DUP2 SWAP1 POP SWAP3 SWAP2 POP POP JUMP JUMPDEST PUSH32 0x68747470733A2F2F697066732E696F2F697066732F516D515844755950645534 PUSH1 0x0 DUP3 ADD MSTORE PUSH32 0x6538576437515866796279655857756A7932736D70776E4575314E626151326A PUSH1 0x20 DUP3 ADD MSTORE PUSH32 0x3145712F00000000000000000000000000000000000000000000000000000000 PUSH1 0x40 DUP3 ADD MSTORE POP JUMP JUMPDEST PUSH1 0x0 PUSH2 0x3005 PUSH1 0x44 DUP4 PUSH2 0x2F78 JUMP JUMPDEST SWAP2 POP PUSH2 0x3010 DUP3 PUSH2 0x2F83 JUMP JUMPDEST PUSH1 0x44 DUP3 ADD SWAP1 POP SWAP2 SWAP1 POP JUMP JUMPDEST PUSH1 0x0 PUSH2 0x3026 DUP3 PUSH2 0x263C JUMP JUMPDEST PUSH2 0x3030 DUP2 DUP6 PUSH2 0x2F78 JUMP JUMPDEST SWAP4 POP PUSH2 0x3040 DUP2 DUP6 PUSH1 0x20 DUP7 ADD PUSH2 0x2658 JUMP JUMPDEST DUP1 DUP5 ADD SWAP2 POP POP SWAP3 SWAP2 POP POP JUMP JUMPDEST PUSH32 0x2E6A736F6E000000000000000000000000000000000000000000000000000000 PUSH1 0x0 DUP3 ADD MSTORE POP JUMP JUMPDEST PUSH1 0x0 PUSH2 0x3082 PUSH1 0x5 DUP4 PUSH2 0x2F78 JUMP JUMPDEST SWAP2 POP PUSH2 0x308D DUP3 PUSH2 0x304C JUMP JUMPDEST PUSH1 0x5 DUP3 ADD SWAP1 POP SWAP2 SWAP1 POP JUMP JUMPDEST PUSH1 0x0 PUSH2 0x30A3 DUP3 PUSH2 0x2FF8 JUMP JUMPDEST SWAP2 POP PUSH2 0x30AF DUP3 DUP5 PUSH2 0x301B JUMP JUMPDEST SWAP2 POP PUSH2 0x30BA DUP3 PUSH2 0x3075 JUMP JUMPDEST SWAP2 POP DUP2 SWAP1 POP SWAP3 SWAP2 POP POP JUMP JUMPDEST PUSH32 0x455243313135353A2063616C6C6572206973206E6F7420746F6B656E206F776E PUSH1 0x0 DUP3 ADD MSTORE PUSH32 0x6572206F7220617070726F766564000000000000000000000000000000000000 PUSH1 0x20 DUP3 ADD MSTORE POP JUMP JUMPDEST PUSH1 0x0 PUSH2 0x3121 PUSH1 0x2E DUP4 PUSH2 0x2647 JUMP JUMPDEST SWAP2 POP PUSH2 0x312C DUP3 PUSH2 0x30C5 JUMP JUMPDEST PUSH1 0x40 DUP3 ADD SWAP1 POP SWAP2 SWAP1 POP JUMP JUMPDEST PUSH1 0x0 PUSH1 0x20 DUP3 ADD SWAP1 POP DUP2 DUP2 SUB PUSH1 0x0 DUP4 ADD MSTORE PUSH2 0x3150 DUP2 PUSH2 0x3114 JUMP JUMPDEST SWAP1 POP SWAP2 SWAP1 POP JUMP JUMPDEST PUSH32 0x455243313135353A206163636F756E747320616E6420696473206C656E677468 PUSH1 0x0 DUP3 ADD MSTORE PUSH32 0x206D69736D617463680000000000000000000000000000000000000000000000 PUSH1 0x20 DUP3 ADD MSTORE POP JUMP JUMPDEST PUSH1 0x0 PUSH2 0x31B3 PUSH1 0x29 DUP4 PUSH2 0x2647 JUMP JUMPDEST SWAP2 POP PUSH2 0x31BE DUP3 PUSH2 0x3157 JUMP JUMPDEST PUSH1 0x40 DUP3 ADD SWAP1 POP SWAP2 SWAP1 POP JUMP JUMPDEST PUSH1 0x0 PUSH1 0x20 DUP3 ADD SWAP1 POP DUP2 DUP2 SUB PUSH1 0x0 DUP4 ADD MSTORE PUSH2 0x31E2 DUP2 PUSH2 0x31A6 JUMP JUMPDEST SWAP1 POP SWAP2 SWAP1 POP JUMP JUMPDEST PUSH32 0x4E487B7100000000000000000000000000000000000000000000000000000000 PUSH1 0x0 MSTORE PUSH1 0x32 PUSH1 0x4 MSTORE PUSH1 0x24 PUSH1 0x0 REVERT JUMPDEST PUSH32 0x4E487B7100000000000000000000000000000000000000000000000000000000 PUSH1 0x0 MSTORE PUSH1 0x11 PUSH1 0x4 MSTORE PUSH1 0x24 PUSH1 0x0 REVERT JUMPDEST PUSH1 0x0 PUSH2 0x3252 DUP3 PUSH2 0x2325 JUMP JUMPDEST SWAP2 POP PUSH32 0xFFFFFFFFFFFFFFFFFFFFFFFFFFFFFFFFFFFFFFFFFFFFFFFFFFFFFFFFFFFFFFFF DUP3 SUB PUSH2 0x3284 JUMPI PUSH2 0x3283 PUSH2 0x3218 JUMP JUMPDEST JUMPDEST PUSH1 0x1 DUP3 ADD SWAP1 POP SWAP2 SWAP1 POP JUMP JUMPDEST PUSH32 0x4F776E61626C653A206E6577206F776E657220697320746865207A65726F2061 PUSH1 0x0 DUP3 ADD MSTORE PUSH32 0x6464726573730000000000000000000000000000000000000000000000000000 PUSH1 0x20 DUP3 ADD MSTORE POP JUMP JUMPDEST PUSH1 0x0 PUSH2 0x32EB PUSH1 0x26 DUP4 PUSH2 0x2647 JUMP JUMPDEST SWAP2 POP PUSH2 0x32F6 DUP3 PUSH2 0x328F JUMP JUMPDEST PUSH1 0x40 DUP3 ADD SWAP1 POP SWAP2 SWAP1 POP JUMP JUMPDEST PUSH1 0x0 PUSH1 0x20 DUP3 ADD SWAP1 POP DUP2 DUP2 SUB PUSH1 0x0 DUP4 ADD MSTORE PUSH2 0x331A DUP2 PUSH2 0x32DE JUMP JUMPDEST SWAP1 POP SWAP2 SWAP1 POP JUMP JUMPDEST PUSH32 0x4F776E61626C653A2063616C6C6572206973206E6F7420746865206F776E6572 PUSH1 0x0 DUP3 ADD MSTORE POP JUMP JUMPDEST PUSH1 0x0 PUSH2 0x3357 PUSH1 0x20 DUP4 PUSH2 0x2647 JUMP JUMPDEST SWAP2 POP PUSH2 0x3362 DUP3 PUSH2 0x3321 JUMP JUMPDEST PUSH1 0x20 DUP3 ADD SWAP1 POP SWAP2 SWAP1 POP JUMP JUMPDEST PUSH1 0x0 PUSH1 0x20 DUP3 ADD SWAP1 POP DUP2 DUP2 SUB PUSH1 0x0 DUP4 ADD MSTORE PUSH2 0x3386 DUP2 PUSH2 0x334A JUMP JUMPDEST SWAP1 POP SWAP2 SWAP1 POP JUMP JUMPDEST PUSH32 0x4E487B7100000000000000000000000000000000000000000000000000000000 PUSH1 0x0 MSTORE PUSH1 0x22 PUSH1 0x4 MSTORE PUSH1 0x24 PUSH1 0x0 REVERT JUMPDEST PUSH1 0x0 PUSH1 0x2 DUP3 DIV SWAP1 POP PUSH1 0x1 DUP3 AND DUP1 PUSH2 0x33D4 JUMPI PUSH1 0x7F DUP3 AND SWAP2 POP JUMPDEST PUSH1 0x20 DUP3 LT DUP2 SUB PUSH2 0x33E7 JUMPI PUSH2 0x33E6 PUSH2 0x338D JUMP JUMPDEST JUMPDEST POP SWAP2 SWAP1 POP JUMP JUMPDEST PUSH1 0x0 DUP2 SWAP1 POP DUP2 PUSH1 0x0 MSTORE PUSH1 0x20 PUSH1 0x0 KECCAK256 SWAP1 POP SWAP2 SWAP1 POP JUMP JUMPDEST PUSH1 0x0 PUSH1 0x20 PUSH1 0x1F DUP4 ADD DIV SWAP1 POP SWAP2 SWAP1 POP JUMP JUMPDEST PUSH1 0x0 DUP3 DUP3 SHL SWAP1 POP SWAP3 SWAP2 POP POP JUMP JUMPDEST PUSH1 0x0 PUSH1 0x8 DUP4 MUL PUSH2 0x344F PUSH32 0xFFFFFFFFFFFFFFFFFFFFFFFFFFFFFFFFFFFFFFFFFFFFFFFFFFFFFFFFFFFFFFFF DUP3 PUSH2 0x3412 JUMP JUMPDEST PUSH2 0x3459 DUP7 DUP4 PUSH2 0x3412 JUMP JUMPDEST SWAP6 POP DUP1 NOT DUP5 AND SWAP4 POP DUP1 DUP7 AND DUP5 OR SWAP3 POP POP POP SWAP4 SWAP3 POP POP POP JUMP JUMPDEST PUSH1 0x0 DUP2 SWAP1 POP SWAP2 SWAP1 POP JUMP JUMPDEST PUSH1 0x0 PUSH2 0x3496 PUSH2 0x3491 PUSH2 0x348C DUP5 PUSH2 0x2325 JUMP JUMPDEST PUSH2 0x3471 JUMP JUMPDEST PUSH2 0x2325 JUMP JUMPDEST SWAP1 POP SWAP2 SWAP1 POP JUMP JUMPDEST PUSH1 0x0 DUP2 SWAP1 POP SWAP2 SWAP1 POP JUMP JUMPDEST PUSH2 0x34B0 DUP4 PUSH2 0x347B JUMP JUMPDEST PUSH2 0x34C4 PUSH2 0x34BC DUP3 PUSH2 0x349D JUMP JUMPDEST DUP5 DUP5 SLOAD PUSH2 0x341F JUMP JUMPDEST DUP3 SSTORE POP POP POP POP JUMP JUMPDEST PUSH1 0x0 SWAP1 JUMP JUMPDEST PUSH2 0x34D9 PUSH2 0x34CC JUMP JUMPDEST PUSH2 0x34E4 DUP2 DUP5 DUP5 PUSH2 0x34A7 JUMP JUMPDEST POP POP POP JUMP JUMPDEST JUMPDEST DUP2 DUP2 LT ISZERO PUSH2 0x3508 JUMPI PUSH2 0x34FD PUSH1 0x0 DUP3 PUSH2 0x34D1 JUMP JUMPDEST PUSH1 0x1 DUP2 ADD SWAP1 POP PUSH2 0x34EA JUMP JUMPDEST POP POP JUMP JUMPDEST PUSH1 0x1F DUP3 GT ISZERO PUSH2 0x354D JUMPI PUSH2 0x351E DUP2 PUSH2 0x33ED JUMP JUMPDEST PUSH2 0x3527 DUP5 PUSH2 0x3402 JUMP JUMPDEST DUP2 ADD PUSH1 0x20 DUP6 LT ISZERO PUSH2 0x3536 JUMPI DUP2 SWAP1 POP JUMPDEST PUSH2 0x354A PUSH2 0x3542 DUP6 PUSH2 0x3402 JUMP JUMPDEST DUP4 ADD DUP3 PUSH2 0x34E9 JUMP JUMPDEST POP POP JUMPDEST POP POP POP JUMP JUMPDEST PUSH1 0x0 DUP3 DUP3 SHR SWAP1 POP SWAP3 SWAP2 POP POP JUMP JUMPDEST PUSH1 0x0 PUSH2 0x3570 PUSH1 0x0 NOT DUP5 PUSH1 0x8 MUL PUSH2 0x3552 JUMP JUMPDEST NOT DUP1 DUP4 AND SWAP2 POP POP SWAP3 SWAP2 POP POP JUMP JUMPDEST PUSH1 0x0 PUSH2 0x3589 DUP4 DUP4 PUSH2 0x355F JUMP JUMPDEST SWAP2 POP DUP3 PUSH1 0x2 MUL DUP3 OR SWAP1 POP SWAP3 SWAP2 POP POP JUMP JUMPDEST PUSH2 0x35A2 DUP3 PUSH2 0x263C JUMP JUMPDEST PUSH8 0xFFFFFFFFFFFFFFFF DUP2 GT ISZERO PUSH2 0x35BB JUMPI PUSH2 0x35BA PUSH2 0x249B JUMP JUMPDEST JUMPDEST PUSH2 0x35C5 DUP3 SLOAD PUSH2 0x33BC JUMP JUMPDEST PUSH2 0x35D0 DUP3 DUP3 DUP6 PUSH2 0x350C JUMP JUMPDEST PUSH1 0x0 PUSH1 0x20 SWAP1 POP PUSH1 0x1F DUP4 GT PUSH1 0x1 DUP2 EQ PUSH2 0x3603 JUMPI PUSH1 0x0 DUP5 ISZERO PUSH2 0x35F1 JUMPI DUP3 DUP8 ADD MLOAD SWAP1 POP JUMPDEST PUSH2 0x35FB DUP6 DUP3 PUSH2 0x357D JUMP JUMPDEST DUP7 SSTORE POP PUSH2 0x3663 JUMP JUMPDEST PUSH1 0x1F NOT DUP5 AND PUSH2 0x3611 DUP7 PUSH2 0x33ED JUMP JUMPDEST PUSH1 0x0 JUMPDEST DUP3 DUP2 LT ISZERO PUSH2 0x3639 JUMPI DUP5 DUP10 ADD MLOAD DUP3 SSTORE PUSH1 0x1 DUP3 ADD SWAP2 POP PUSH1 0x20 DUP6 ADD SWAP5 POP PUSH1 0x20 DUP2 ADD SWAP1 POP PUSH2 0x3614 JUMP JUMPDEST DUP7 DUP4 LT ISZERO PUSH2 0x3656 JUMPI DUP5 DUP10 ADD MLOAD PUSH2 0x3652 PUSH1 0x1F DUP10 AND DUP3 PUSH2 0x355F JUMP JUMPDEST DUP4 SSTORE POP JUMPDEST PUSH1 0x1 PUSH1 0x2 DUP9 MUL ADD DUP9 SSTORE POP POP POP JUMPDEST POP POP POP POP POP POP JUMP JUMPDEST PUSH32 0x4E487B7100000000000000000000000000000000000000000000000000000000 PUSH1 0x0 MSTORE PUSH1 0x12 PUSH1 0x4 MSTORE PUSH1 0x24 PUSH1 0x0 REVERT JUMPDEST PUSH1 0x0 PUSH2 0x36A5 DUP3 PUSH2 0x2325 JUMP JUMPDEST SWAP2 POP PUSH2 0x36B0 DUP4 PUSH2 0x2325 JUMP JUMPDEST SWAP3 POP DUP3 PUSH2 0x36C0 JUMPI PUSH2 0x36BF PUSH2 0x366B JUMP JUMPDEST JUMPDEST DUP3 DUP3 DIV SWAP1 POP SWAP3 SWAP2 POP POP JUMP JUMPDEST PUSH1 0x0 PUSH2 0x36D6 DUP3 PUSH2 0x2325 JUMP JUMPDEST SWAP2 POP PUSH2 0x36E1 DUP4 PUSH2 0x2325 JUMP JUMPDEST SWAP3 POP DUP3 PUSH2 0x36F1 JUMPI PUSH2 0x36F0 PUSH2 0x366B JUMP JUMPDEST JUMPDEST DUP3 DUP3 MOD SWAP1 POP SWAP3 SWAP2 POP POP JUMP JUMPDEST PUSH1 0x0 PUSH2 0x3707 DUP3 PUSH2 0x2325 JUMP JUMPDEST SWAP2 POP PUSH2 0x3712 DUP4 PUSH2 0x2325 JUMP JUMPDEST SWAP3 POP DUP3 DUP3 ADD SWAP1 POP DUP1 DUP3 GT ISZERO PUSH2 0x372A JUMPI PUSH2 0x3729 PUSH2 0x3218 JUMP JUMPDEST JUMPDEST SWAP3 SWAP2 POP POP JUMP JUMPDEST PUSH1 0x0 PUSH2 0x373B DUP3 PUSH2 0x2325 JUMP JUMPDEST SWAP2 POP PUSH1 0x0 DUP3 SUB PUSH2 0x374E JUMPI PUSH2 0x374D PUSH2 0x3218 JUMP JUMPDEST JUMPDEST PUSH1 0x1 DUP3 SUB SWAP1 POP SWAP2 SWAP1 POP JUMP JUMPDEST PUSH32 0x455243313135353A206D696E7420746F20746865207A65726F20616464726573 PUSH1 0x0 DUP3 ADD MSTORE PUSH32 0x7300000000000000000000000000000000000000000000000000000000000000 PUSH1 0x20 DUP3 ADD MSTORE POP JUMP JUMPDEST PUSH1 0x0 PUSH2 0x37B5 PUSH1 0x21 DUP4 PUSH2 0x2647 JUMP JUMPDEST SWAP2 POP PUSH2 0x37C0 DUP3 PUSH2 0x3759 JUMP JUMPDEST PUSH1 0x40 DUP3 ADD SWAP1 POP SWAP2 SWAP1 POP JUMP JUMPDEST PUSH1 0x0 PUSH1 0x20 DUP3 ADD SWAP1 POP DUP2 DUP2 SUB PUSH1 0x0 DUP4 ADD MSTORE PUSH2 0x37E4 DUP2 PUSH2 0x37A8 JUMP JUMPDEST SWAP1 POP SWAP2 SWAP1 POP JUMP JUMPDEST PUSH32 0x455243313135353A2069647320616E6420616D6F756E7473206C656E67746820 PUSH1 0x0 DUP3 ADD MSTORE PUSH32 0x6D69736D61746368000000000000000000000000000000000000000000000000 PUSH1 0x20 DUP3 ADD MSTORE POP JUMP JUMPDEST PUSH1 0x0 PUSH2 0x3847 PUSH1 0x28 DUP4 PUSH2 0x2647 JUMP JUMPDEST SWAP2 POP PUSH2 0x3852 DUP3 PUSH2 0x37EB JUMP JUMPDEST PUSH1 0x40 DUP3 ADD SWAP1 POP SWAP2 SWAP1 POP JUMP JUMPDEST PUSH1 0x0 PUSH1 0x20 DUP3 ADD SWAP1 POP DUP2 DUP2 SUB PUSH1 0x0 DUP4 ADD MSTORE PUSH2 0x3876 DUP2 PUSH2 0x383A JUMP JUMPDEST SWAP1 POP SWAP2 SWAP1 POP JUMP JUMPDEST PUSH1 0x0 PUSH1 0x40 DUP3 ADD SWAP1 POP DUP2 DUP2 SUB PUSH1 0x0 DUP4 ADD MSTORE PUSH2 0x3897 DUP2 DUP6 PUSH2 0x2B6B JUMP JUMPDEST SWAP1 POP DUP2 DUP2 SUB PUSH1 0x20 DUP4 ADD MSTORE PUSH2 0x38AB DUP2 DUP5 PUSH2 0x2B6B JUMP JUMPDEST SWAP1 POP SWAP4 SWAP3 POP POP POP JUMP JUMPDEST PUSH32 0x455243313135353A207472616E7366657220746F20746865207A65726F206164 PUSH1 0x0 DUP3 ADD MSTORE PUSH32 0x6472657373000000000000000000000000000000000000000000000000000000 PUSH1 0x20 DUP3 ADD MSTORE POP JUMP JUMPDEST PUSH1 0x0 PUSH2 0x3910 PUSH1 0x25 DUP4 PUSH2 0x2647 JUMP JUMPDEST SWAP2 POP PUSH2 0x391B DUP3 PUSH2 0x38B4 JUMP JUMPDEST PUSH1 0x40 DUP3 ADD SWAP1 POP SWAP2 SWAP1 POP JUMP JUMPDEST PUSH1 0x0 PUSH1 0x20 DUP3 ADD SWAP1 POP DUP2 DUP2 SUB PUSH1 0x0 DUP4 ADD MSTORE PUSH2 0x393F DUP2 PUSH2 0x3903 JUMP JUMPDEST SWAP1 POP SWAP2 SWAP1 POP JUMP JUMPDEST PUSH32 0x455243313135353A20696E73756666696369656E742062616C616E636520666F PUSH1 0x0 DUP3 ADD MSTORE PUSH32 0x72207472616E7366657200000000000000000000000000000000000000000000 PUSH1 0x20 DUP3 ADD MSTORE POP JUMP JUMPDEST PUSH1 0x0 PUSH2 0x39A2 PUSH1 0x2A DUP4 PUSH2 0x2647 JUMP JUMPDEST SWAP2 POP PUSH2 0x39AD DUP3 PUSH2 0x3946 JUMP JUMPDEST PUSH1 0x40 DUP3 ADD SWAP1 POP SWAP2 SWAP1 POP JUMP JUMPDEST PUSH1 0x0 PUSH1 0x20 DUP3 ADD SWAP1 POP DUP2 DUP2 SUB PUSH1 0x0 DUP4 ADD MSTORE PUSH2 0x39D1 DUP2 PUSH2 0x3995 JUMP JUMPDEST SWAP1 POP SWAP2 SWAP1 POP JUMP JUMPDEST PUSH32 0x455243313135353A206275726E2066726F6D20746865207A65726F2061646472 PUSH1 0x0 DUP3 ADD MSTORE PUSH32 0x6573730000000000000000000000000000000000000000000000000000000000 PUSH1 0x20 DUP3 ADD MSTORE POP JUMP JUMPDEST PUSH1 0x0 PUSH2 0x3A34 PUSH1 0x23 DUP4 PUSH2 0x2647 JUMP JUMPDEST SWAP2 POP PUSH2 0x3A3F DUP3 PUSH2 0x39D8 JUMP JUMPDEST PUSH1 0x40 DUP3 ADD SWAP1 POP SWAP2 SWAP1 POP JUMP JUMPDEST PUSH1 0x0 PUSH1 0x20 DUP3 ADD SWAP1 POP DUP2 DUP2 SUB PUSH1 0x0 DUP4 ADD MSTORE PUSH2 0x3A63 DUP2 PUSH2 0x3A27 JUMP JUMPDEST SWAP1 POP SWAP2 SWAP1 POP JUMP JUMPDEST PUSH32 0x455243313135353A206275726E20616D6F756E7420657863656564732062616C PUSH1 0x0 DUP3 ADD MSTORE PUSH32 0x616E636500000000000000000000000000000000000000000000000000000000 PUSH1 0x20 DUP3 ADD MSTORE POP JUMP JUMPDEST PUSH1 0x0 PUSH2 0x3AC6 PUSH1 0x24 DUP4 PUSH2 0x2647 JUMP JUMPDEST SWAP2 POP PUSH2 0x3AD1 DUP3 PUSH2 0x3A6A JUMP JUMPDEST PUSH1 0x40 DUP3 ADD SWAP1 POP SWAP2 SWAP1 POP JUMP JUMPDEST PUSH1 0x0 PUSH1 0x20 DUP3 ADD SWAP1 POP DUP2 DUP2 SUB PUSH1 0x0 DUP4 ADD MSTORE PUSH2 0x3AF5 DUP2 PUSH2 0x3AB9 JUMP JUMPDEST SWAP1 POP SWAP2 SWAP1 POP JUMP JUMPDEST PUSH1 0x0 PUSH1 0x40 DUP3 ADD SWAP1 POP PUSH2 0x3B11 PUSH1 0x0 DUP4 ADD DUP6 PUSH2 0x239B JUMP JUMPDEST PUSH2 0x3B1E PUSH1 0x20 DUP4 ADD DUP5 PUSH2 0x239B JUMP JUMPDEST SWAP4 SWAP3 POP POP POP JUMP JUMPDEST PUSH32 0x455243313135353A2073657474696E6720617070726F76616C20737461747573 PUSH1 0x0 DUP3 ADD MSTORE PUSH32 0x20666F722073656C660000000000000000000000000000000000000000000000 PUSH1 0x20 DUP3 ADD MSTORE POP JUMP JUMPDEST PUSH1 0x0 PUSH2 0x3B81 PUSH1 0x29 DUP4 PUSH2 0x2647 JUMP JUMPDEST SWAP2 POP PUSH2 0x3B8C DUP3 PUSH2 0x3B25 JUMP JUMPDEST PUSH1 0x40 DUP3 ADD SWAP1 POP SWAP2 SWAP1 POP JUMP JUMPDEST PUSH1 0x0 PUSH1 0x20 DUP3 ADD SWAP1 POP DUP2 DUP2 SUB PUSH1 0x0 DUP4 ADD MSTORE PUSH2 0x3BB0 DUP2 PUSH2 0x3B74 JUMP JUMPDEST SWAP1 POP SWAP2 SWAP1 POP JUMP JUMPDEST PUSH1 0x0 DUP2 MLOAD SWAP1 POP SWAP2 SWAP1 POP JUMP JUMPDEST PUSH1 0x0 DUP3 DUP3 MSTORE PUSH1 0x20 DUP3 ADD SWAP1 POP SWAP3 SWAP2 POP POP JUMP JUMPDEST PUSH1 0x0 PUSH2 0x3BDE DUP3 PUSH2 0x3BB7 JUMP JUMPDEST PUSH2 0x3BE8 DUP2 DUP6 PUSH2 0x3BC2 JUMP JUMPDEST SWAP4 POP PUSH2 0x3BF8 DUP2 DUP6 PUSH1 0x20 DUP7 ADD PUSH2 0x2658 JUMP JUMPDEST PUSH2 0x3C01 DUP2 PUSH2 0x248A JUMP JUMPDEST DUP5 ADD SWAP2 POP POP SWAP3 SWAP2 POP POP JUMP JUMPDEST PUSH1 0x0 PUSH1 0xA0 DUP3 ADD SWAP1 POP PUSH2 0x3C21 PUSH1 0x0 DUP4 ADD DUP9 PUSH2 0x2CF9 JUMP JUMPDEST PUSH2 0x3C2E PUSH1 0x20 DUP4 ADD DUP8 PUSH2 0x2CF9 JUMP JUMPDEST DUP2 DUP2 SUB PUSH1 0x40 DUP4 ADD MSTORE PUSH2 0x3C40 DUP2 DUP7 PUSH2 0x2B6B JUMP JUMPDEST SWAP1 POP DUP2 DUP2 SUB PUSH1 0x60 DUP4 ADD MSTORE PUSH2 0x3C54 DUP2 DUP6 PUSH2 0x2B6B JUMP JUMPDEST SWAP1 POP DUP2 DUP2 SUB PUSH1 0x80 DUP4 ADD MSTORE PUSH2 0x3C68 DUP2 DUP5 PUSH2 0x3BD3 JUMP JUMPDEST SWAP1 POP SWAP7 SWAP6 POP POP POP POP POP POP JUMP JUMPDEST PUSH1 0x0 DUP2 MLOAD SWAP1 POP PUSH2 0x3C83 DUP2 PUSH2 0x23F1 JUMP JUMPDEST SWAP3 SWAP2 POP POP JUMP JUMPDEST PUSH1 0x0 PUSH1 0x20 DUP3 DUP5 SUB SLT ISZERO PUSH2 0x3C9F JUMPI PUSH2 0x3C9E PUSH2 0x22BD JUMP JUMPDEST JUMPDEST PUSH1 0x0 PUSH2 0x3CAD DUP5 DUP3 DUP6 ADD PUSH2 0x3C74 JUMP JUMPDEST SWAP2 POP POP SWAP3 SWAP2 POP POP JUMP JUMPDEST PUSH1 0x0 DUP2 PUSH1 0xE0 SHR SWAP1 POP SWAP2 SWAP1 POP JUMP JUMPDEST PUSH1 0x0 PUSH1 0x3 RETURNDATASIZE GT ISZERO PUSH2 0x3CE2 JUMPI PUSH1 0x4 PUSH1 0x0 DUP1 RETURNDATACOPY PUSH2 0x3CDF PUSH1 0x0 MLOAD PUSH2 0x3CB6 JUMP JUMPDEST SWAP1 POP JUMPDEST SWAP1 JUMP JUMPDEST PUSH1 0x0 PUSH1 0x44 RETURNDATASIZE LT PUSH2 0x3D72 JUMPI PUSH2 0x3CF7 PUSH2 0x22B3 JUMP JUMPDEST PUSH1 0x4 RETURNDATASIZE SUB PUSH1 0x4 DUP3 RETURNDATACOPY DUP1 MLOAD RETURNDATASIZE PUSH1 0x24 DUP3 ADD GT PUSH8 0xFFFFFFFFFFFFFFFF DUP3 GT OR ISZERO PUSH2 0x3D1F JUMPI POP POP PUSH2 0x3D72 JUMP JUMPDEST DUP1 DUP3 ADD DUP1 MLOAD PUSH8 0xFFFFFFFFFFFFFFFF DUP2 GT ISZERO PUSH2 0x3D3D JUMPI POP POP POP POP PUSH2 0x3D72 JUMP JUMPDEST DUP1 PUSH1 0x20 DUP4 ADD ADD PUSH1 0x4 RETURNDATASIZE SUB DUP6 ADD DUP2 GT ISZERO PUSH2 0x3D5A JUMPI POP POP POP POP POP PUSH2 0x3D72 JUMP JUMPDEST PUSH2 0x3D69 DUP3 PUSH1 0x20 ADD DUP6 ADD DUP7 PUSH2 0x24CA JUMP JUMPDEST DUP3 SWAP6 POP POP POP POP POP POP JUMPDEST SWAP1 JUMP JUMPDEST PUSH32 0x455243313135353A207472616E7366657220746F206E6F6E2D45524331313535 PUSH1 0x0 DUP3 ADD MSTORE PUSH32 0x526563656976657220696D706C656D656E746572000000000000000000000000 PUSH1 0x20 DUP3 ADD MSTORE POP JUMP JUMPDEST PUSH1 0x0 PUSH2 0x3DD1 PUSH1 0x34 DUP4 PUSH2 0x2647 JUMP JUMPDEST SWAP2 POP PUSH2 0x3DDC DUP3 PUSH2 0x3D75 JUMP JUMPDEST PUSH1 0x40 DUP3 ADD SWAP1 POP SWAP2 SWAP1 POP JUMP JUMPDEST PUSH1 0x0 PUSH1 0x20 DUP3 ADD SWAP1 POP DUP2 DUP2 SUB PUSH1 0x0 DUP4 ADD MSTORE PUSH2 0x3E00 DUP2 PUSH2 0x3DC4 JUMP JUMPDEST SWAP1 POP SWAP2 SWAP1 POP JUMP JUMPDEST PUSH32 0x455243313135353A204552433131353552656365697665722072656A65637465 PUSH1 0x0 DUP3 ADD MSTORE PUSH32 0x6420746F6B656E73000000000000000000000000000000000000000000000000 PUSH1 0x20 DUP3 ADD MSTORE POP JUMP JUMPDEST PUSH1 0x0 PUSH2 0x3E63 PUSH1 0x28 DUP4 PUSH2 0x2647 JUMP JUMPDEST SWAP2 POP PUSH2 0x3E6E DUP3 PUSH2 0x3E07 JUMP JUMPDEST PUSH1 0x40 DUP3 ADD SWAP1 POP SWAP2 SWAP1 POP JUMP JUMPDEST PUSH1 0x0 PUSH1 0x20 DUP3 ADD SWAP1 POP DUP2 DUP2 SUB PUSH1 0x0 DUP4 ADD MSTORE PUSH2 0x3E92 DUP2 PUSH2 0x3E56 JUMP JUMPDEST SWAP1 POP SWAP2 SWAP1 POP JUMP JUMPDEST PUSH1 0x0 PUSH1 0xA0 DUP3 ADD SWAP1 POP PUSH2 0x3EAE PUSH1 0x0 DUP4 ADD DUP9 PUSH2 0x2CF9 JUMP JUMPDEST PUSH2 0x3EBB PUSH1 0x20 DUP4 ADD DUP8 PUSH2 0x2CF9 JUMP JUMPDEST PUSH2 0x3EC8 PUSH1 0x40 DUP4 ADD DUP7 PUSH2 0x239B JUMP JUMPDEST PUSH2 0x3ED5 PUSH1 0x60 DUP4 ADD DUP6 PUSH2 0x239B JUMP JUMPDEST DUP2 DUP2 SUB PUSH1 0x80 DUP4 ADD MSTORE PUSH2 0x3EE7 DUP2 DUP5 PUSH2 0x3BD3 JUMP JUMPDEST SWAP1 POP SWAP7 SWAP6 POP POP POP POP POP POP JUMP INVALID PUSH9 0x747470733A2F2F6970 PUSH7 0x732E696F2F6970 PUSH7 0x732F516D515844 PUSH22 0x59506455346538576437515866796279655857756A79 ORIGIN PUSH20 0x6D70776E4575314E626151326A3145712F636F6C PUSH13 0x656374696F6E2E6A736F6EA264 PUSH10 0x70667358221220415109 DUP13 SWAP3 DUP2 0xD4 0xFB SWAP14 MUL DUP11 LOG4 0x5E PUSH28 0xDC9ACEB189DCDE51E5CA1FFAE0F8B4C2174364736F6C634300081200 CALLER PUSH9 0x747470733A2F2F6970 PUSH7 0x732E696F2F6970 PUSH7 0x732F516D515844 PUSH22 0x59506455346538576437515866796279655857756A79 ORIGIN PUSH20 0x6D70776E4575314E626151326A3145712F000000 "
		},
		"gasEstimates": {
			"creation": {
				"codeDepositCost": "3250400",
				"executionCost": "infinite",
				"totalCost": "infinite"
			},
			"external": {
				"Acknowledgement()": "2540",
				"RunnerUp()": "2475",
				"Winner()": "2518",
				"balanceOf(address,uint256)": "infinite",
				"balanceOfBatch(address[],uint256[])": "infinite",
				"burn(address,uint256,uint256)": "infinite",
				"burnBatch(address,uint256[],uint256[])": "infinite",
				"contractURI()": "infinite",
				"isApprovedForAll(address,address)": "infinite",
				"mint(address,uint256,uint256,bytes)": "infinite",
				"mintBatch(address,uint256[],uint256[],bytes)": "infinite",
				"owner()": "2567",
				"renounceOwnership()": "30509",
				"safeBatchTransferFrom(address,address,uint256[],uint256[],bytes)": "infinite",
				"safeTransferFrom(address,address,uint256,uint256,bytes)": "infinite",
				"setApprovalForAll(address,bool)": "infinite",
				"setURI(string)": "infinite",
				"supportsInterface(bytes4)": "841",
				"transferOwnership(address)": "30832",
				"uri(uint256)": "infinite"
			},
			"internal": {
				"uint2str(uint256)": "infinite"
			}
		},
		"methodIdentifiers": {
			"Acknowledgement()": "d82f8403",
			"RunnerUp()": "014c660d",
			"Winner()": "b2b98ed2",
			"balanceOf(address,uint256)": "00fdd58e",
			"balanceOfBatch(address[],uint256[])": "4e1273f4",
			"burn(address,uint256,uint256)": "f5298aca",
			"burnBatch(address,uint256[],uint256[])": "6b20c454",
			"contractURI()": "e8a3d485",
			"isApprovedForAll(address,address)": "e985e9c5",
			"mint(address,uint256,uint256,bytes)": "731133e9",
			"mintBatch(address,uint256[],uint256[],bytes)": "1f7fdffa",
			"owner()": "8da5cb5b",
			"renounceOwnership()": "715018a6",
			"safeBatchTransferFrom(address,address,uint256[],uint256[],bytes)": "2eb2c2d6",
			"safeTransferFrom(address,address,uint256,uint256,bytes)": "f242432a",
			"setApprovalForAll(address,bool)": "a22cb465",
			"setURI(string)": "02fe5305",
			"supportsInterface(bytes4)": "01ffc9a7",
			"transferOwnership(address)": "f2fde38b",
			"uri(uint256)": "0e89341c"
		}
	},
	"abi": [
		{
			"inputs": [],
			"stateMutability": "nonpayable",
			"type": "constructor"
		},
		{
			"anonymous": false,
			"inputs": [
				{
					"indexed": true,
					"internalType": "address",
					"name": "account",
					"type": "address"
				},
				{
					"indexed": true,
					"internalType": "address",
					"name": "operator",
					"type": "address"
				},
				{
					"indexed": false,
					"internalType": "bool",
					"name": "approved",
					"type": "bool"
				}
			],
			"name": "ApprovalForAll",
			"type": "event"
		},
		{
			"anonymous": false,
			"inputs": [
				{
					"indexed": true,
					"internalType": "address",
					"name": "previousOwner",
					"type": "address"
				},
				{
					"indexed": true,
					"internalType": "address",
					"name": "newOwner",
					"type": "address"
				}
			],
			"name": "OwnershipTransferred",
			"type": "event"
		},
		{
			"anonymous": false,
			"inputs": [
				{
					"indexed": true,
					"internalType": "address",
					"name": "operator",
					"type": "address"
				},
				{
					"indexed": true,
					"internalType": "address",
					"name": "from",
					"type": "address"
				},
				{
					"indexed": true,
					"internalType": "address",
					"name": "to",
					"type": "address"
				},
				{
					"indexed": false,
					"internalType": "uint256[]",
					"name": "ids",
					"type": "uint256[]"
				},
				{
					"indexed": false,
					"internalType": "uint256[]",
					"name": "values",
					"type": "uint256[]"
				}
			],
			"name": "TransferBatch",
			"type": "event"
		},
		{
			"anonymous": false,
			"inputs": [
				{
					"indexed": true,
					"internalType": "address",
					"name": "operator",
					"type": "address"
				},
				{
					"indexed": true,
					"internalType": "address",
					"name": "from",
					"type": "address"
				},
				{
					"indexed": true,
					"internalType": "address",
					"name": "to",
					"type": "address"
				},
				{
					"indexed": false,
					"internalType": "uint256",
					"name": "id",
					"type": "uint256"
				},
				{
					"indexed": false,
					"internalType": "uint256",
					"name": "value",
					"type": "uint256"
				}
			],
			"name": "TransferSingle",
			"type": "event"
		},
		{
			"anonymous": false,
			"inputs": [
				{
					"indexed": false,
					"internalType": "string",
					"name": "value",
					"type": "string"
				},
				{
					"indexed": true,
					"internalType": "uint256",
					"name": "id",
					"type": "uint256"
				}
			],
			"name": "URI",
			"type": "event"
		},
		{
			"inputs": [],
			"name": "Acknowledgement",
			"outputs": [
				{
					"internalType": "uint256",
					"name": "",
					"type": "uint256"
				}
			],
			"stateMutability": "view",
			"type": "function"
		},
		{
			"inputs": [],
			"name": "RunnerUp",
			"outputs": [
				{
					"internalType": "uint256",
					"name": "",
					"type": "uint256"
				}
			],
			"stateMutability": "view",
			"type": "function"
		},
		{
			"inputs": [],
			"name": "Winner",
			"outputs": [
				{
					"internalType": "uint256",
					"name": "",
					"type": "uint256"
				}
			],
			"stateMutability": "view",
			"type": "function"
		},
		{
			"inputs": [
				{
					"internalType": "address",
					"name": "account",
					"type": "address"
				},
				{
					"internalType": "uint256",
					"name": "id",
					"type": "uint256"
				}
			],
			"name": "balanceOf",
			"outputs": [
				{
					"internalType": "uint256",
					"name": "",
					"type": "uint256"
				}
			],
			"stateMutability": "view",
			"type": "function"
		},
		{
			"inputs": [
				{
					"internalType": "address[]",
					"name": "accounts",
					"type": "address[]"
				},
				{
					"internalType": "uint256[]",
					"name": "ids",
					"type": "uint256[]"
				}
			],
			"name": "balanceOfBatch",
			"outputs": [
				{
					"internalType": "uint256[]",
					"name": "",
					"type": "uint256[]"
				}
			],
			"stateMutability": "view",
			"type": "function"
		},
		{
			"inputs": [
				{
					"internalType": "address",
					"name": "account",
					"type": "address"
				},
				{
					"internalType": "uint256",
					"name": "id",
					"type": "uint256"
				},
				{
					"internalType": "uint256",
					"name": "value",
					"type": "uint256"
				}
			],
			"name": "burn",
			"outputs": [],
			"stateMutability": "nonpayable",
			"type": "function"
		},
		{
			"inputs": [
				{
					"internalType": "address",
					"name": "account",
					"type": "address"
				},
				{
					"internalType": "uint256[]",
					"name": "ids",
					"type": "uint256[]"
				},
				{
					"internalType": "uint256[]",
					"name": "values",
					"type": "uint256[]"
				}
			],
			"name": "burnBatch",
			"outputs": [],
			"stateMutability": "nonpayable",
			"type": "function"
		},
		{
			"inputs": [],
			"name": "contractURI",
			"outputs": [
				{
					"internalType": "string",
					"name": "",
					"type": "string"
				}
			],
			"stateMutability": "pure",
			"type": "function"
		},
		{
			"inputs": [
				{
					"internalType": "address",
					"name": "account",
					"type": "address"
				},
				{
					"internalType": "address",
					"name": "operator",
					"type": "address"
				}
			],
			"name": "isApprovedForAll",
			"outputs": [
				{
					"internalType": "bool",
					"name": "",
					"type": "bool"
				}
			],
			"stateMutability": "view",
			"type": "function"
		},
		{
			"inputs": [
				{
					"internalType": "address",
					"name": "account",
					"type": "address"
				},
				{
					"internalType": "uint256",
					"name": "id",
					"type": "uint256"
				},
				{
					"internalType": "uint256",
					"name": "amount",
					"type": "uint256"
				},
				{
					"internalType": "bytes",
					"name": "data",
					"type": "bytes"
				}
			],
			"name": "mint",
			"outputs": [],
			"stateMutability": "nonpayable",
			"type": "function"
		},
		{
			"inputs": [
				{
					"internalType": "address",
					"name": "to",
					"type": "address"
				},
				{
					"internalType": "uint256[]",
					"name": "ids",
					"type": "uint256[]"
				},
				{
					"internalType": "uint256[]",
					"name": "amounts",
					"type": "uint256[]"
				},
				{
					"internalType": "bytes",
					"name": "data",
					"type": "bytes"
				}
			],
			"name": "mintBatch",
			"outputs": [],
			"stateMutability": "nonpayable",
			"type": "function"
		},
		{
			"inputs": [],
			"name": "owner",
			"outputs": [
				{
					"internalType": "address",
					"name": "",
					"type": "address"
				}
			],
			"stateMutability": "view",
			"type": "function"
		},
		{
			"inputs": [],
			"name": "renounceOwnership",
			"outputs": [],
			"stateMutability": "nonpayable",
			"type": "function"
		},
		{
			"inputs": [
				{
					"internalType": "address",
					"name": "from",
					"type": "address"
				},
				{
					"internalType": "address",
					"name": "to",
					"type": "address"
				},
				{
					"internalType": "uint256[]",
					"name": "ids",
					"type": "uint256[]"
				},
				{
					"internalType": "uint256[]",
					"name": "amounts",
					"type": "uint256[]"
				},
				{
					"internalType": "bytes",
					"name": "data",
					"type": "bytes"
				}
			],
			"name": "safeBatchTransferFrom",
			"outputs": [],
			"stateMutability": "nonpayable",
			"type": "function"
		},
		{
			"inputs": [
				{
					"internalType": "address",
					"name": "from",
					"type": "address"
				},
				{
					"internalType": "address",
					"name": "to",
					"type": "address"
				},
				{
					"internalType": "uint256",
					"name": "id",
					"type": "uint256"
				},
				{
					"internalType": "uint256",
					"name": "amount",
					"type": "uint256"
				},
				{
					"internalType": "bytes",
					"name": "data",
					"type": "bytes"
				}
			],
			"name": "safeTransferFrom",
			"outputs": [],
			"stateMutability": "nonpayable",
			"type": "function"
		},
		{
			"inputs": [
				{
					"internalType": "address",
					"name": "operator",
					"type": "address"
				},
				{
					"internalType": "bool",
					"name": "approved",
					"type": "bool"
				}
			],
			"name": "setApprovalForAll",
			"outputs": [],
			"stateMutability": "nonpayable",
			"type": "function"
		},
		{
			"inputs": [
				{
					"internalType": "string",
					"name": "newuri",
					"type": "string"
				}
			],
			"name": "setURI",
			"outputs": [],
			"stateMutability": "nonpayable",
			"type": "function"
		},
		{
			"inputs": [
				{
					"internalType": "bytes4",
					"name": "interfaceId",
					"type": "bytes4"
				}
			],
			"name": "supportsInterface",
			"outputs": [
				{
					"internalType": "bool",
					"name": "",
					"type": "bool"
				}
			],
			"stateMutability": "view",
			"type": "function"
		},
		{
			"inputs": [
				{
					"internalType": "address",
					"name": "newOwner",
					"type": "address"
				}
			],
			"name": "transferOwnership",
			"outputs": [],
			"stateMutability": "nonpayable",
			"type": "function"
		},
		{
			"inputs": [
				{
					"internalType": "uint256",
					"name": "_tokenid",
					"type": "uint256"
				}
			],
			"name": "uri",
			"outputs": [
				{
					"internalType": "string",
					"name": "",
					"type": "string"
				}
			],
			"stateMutability": "pure",
			"type": "function"
		}
	]
}