{
	"data": {
		"bytecode": {
			"linkReferences": {},
			"object": "60806040523480156200001157600080fd5b506040518060600160405280603f815260200162004046603f91396200003d816200006460201b60201c565b506200005e620000526200007960201b60201c565b6200008160201b60201c565b620004a8565b8060029081620000759190620003c1565b5050565b600033905090565b6000600360009054906101000a900473ffffffffffffffffffffffffffffffffffffffff16905081600360006101000a81548173ffffffffffffffffffffffffffffffffffffffff021916908373ffffffffffffffffffffffffffffffffffffffff1602179055508173ffffffffffffffffffffffffffffffffffffffff168173ffffffffffffffffffffffffffffffffffffffff167f8be0079c531659141344cd1fd0a4f28419497f9722a3daafe3b4186f6b6457e060405160405180910390a35050565b600081519050919050565b7f4e487b7100000000000000000000000000000000000000000000000000000000600052604160045260246000fd5b7f4e487b7100000000000000000000000000000000000000000000000000000000600052602260045260246000fd5b60006002820490506001821680620001c957607f821691505b602082108103620001df57620001de62000181565b5b50919050565b60008190508160005260206000209050919050565b60006020601f8301049050919050565b600082821b905092915050565b600060088302620002497fffffffffffffffffffffffffffffffffffffffffffffffffffffffffffffffff826200020a565b6200025586836200020a565b95508019841693508086168417925050509392505050565b6000819050919050565b6000819050919050565b6000620002a26200029c62000296846200026d565b62000277565b6200026d565b9050919050565b6000819050919050565b620002be8362000281565b620002d6620002cd82620002a9565b84845462000217565b825550505050565b600090565b620002ed620002de565b620002fa818484620002b3565b505050565b5b81811015620003225762000316600082620002e3565b60018101905062000300565b5050565b601f82111562000371576200033b81620001e5565b6200034684620001fa565b8101602085101562000356578190505b6200036e6200036585620001fa565b830182620002ff565b50505b505050565b600082821c905092915050565b6000620003966000198460080262000376565b1980831691505092915050565b6000620003b1838362000383565b9150826002028217905092915050565b620003cc8262000147565b67ffffffffffffffff811115620003e857620003e762000152565b5b620003f48254620001b0565b6200040182828562000326565b600060209050601f83116001811462000439576000841562000424578287015190505b620004308582620003a3565b865550620004a0565b601f1984166200044986620001e5565b60005b8281101562000473578489015182556001820191506020850194506020810190506200044c565b868310156200049357848901516200048f601f89168262000383565b8355505b6001600288020188555050505b505050505050565b613b8e80620004b86000396000f3fe608060405234801561001057600080fd5b506004361061010a5760003560e01c8063715018a6116100a2578063e8a3d48511610071578063e8a3d485146102c7578063e985e9c5146102e5578063f242432a14610315578063f2fde38b14610331578063f5298aca1461034d5761010a565b8063715018a6146102535780638da5cb5b1461025d578063a22cb4651461027b578063bd85b039146102975761010a565b80632eb2c2d6116100de5780632eb2c2d6146101bb5780634e1273f4146101d75780634f558e79146102075780636b20c454146102375761010a565b8062fdd58e1461010f57806301ffc9a71461013f5780630e89341c1461016f5780631f7fdffa1461019f575b600080fd5b610129600480360381019061012491906123d7565b610369565b6040516101369190612426565b60405180910390f35b61015960048036038101906101549190612499565b610431565b60405161016691906124e1565b60405180910390f35b610189600480360381019061018491906124fc565b610513565b60405161019691906125b9565b60405180910390f35b6101b960048036038101906101b491906127d8565b610544565b005b6101d560048036038101906101d09190612893565b61055e565b005b6101f160048036038101906101ec9190612a25565b6105ff565b6040516101fe9190612b5b565b60405180910390f35b610221600480360381019061021c91906124fc565b610718565b60405161022e91906124e1565b60405180910390f35b610251600480360381019061024c9190612b7d565b61072c565b005b61025b6107c9565b005b6102656107dd565b6040516102729190612c17565b60405180910390f35b61029560048036038101906102909190612c5e565b610807565b005b6102b160048036038101906102ac91906124fc565b61081d565b6040516102be9190612426565b60405180910390f35b6102cf61083a565b6040516102dc91906125b9565b60405180910390f35b6102ff60048036038101906102fa9190612c9e565b61085a565b60405161030c91906124e1565b60405180910390f35b61032f600480360381019061032a9190612cde565b6108ee565b005b61034b60048036038101906103469190612d75565b61098f565b005b61036760048036038101906103629190612da2565b610a12565b005b60008073ffffffffffffffffffffffffffffffffffffffff168373ffffffffffffffffffffffffffffffffffffffff16036103d9576040517f08c379a00000000000000000000000000000000000000000000000000000000081526004016103d090612e67565b60405180910390fd5b60008083815260200190815260200160002060008473ffffffffffffffffffffffffffffffffffffffff1673ffffffffffffffffffffffffffffffffffffffff16815260200190815260200160002054905092915050565b60007fd9b67a26000000000000000000000000000000000000000000000000000000007bffffffffffffffffffffffffffffffffffffffffffffffffffffffff1916827bffffffffffffffffffffffffffffffffffffffffffffffffffffffff191614806104fc57507f0e89341c000000000000000000000000000000000000000000000000000000007bffffffffffffffffffffffffffffffffffffffffffffffffffffffff1916827bffffffffffffffffffffffffffffffffffffffffffffffffffffffff1916145b8061050c575061050b82610aaf565b5b9050919050565b606061051e82610b19565b60405160200161052e9190612f81565b6040516020818303038152906040529050919050565b61054c610be7565b61055884848484610c65565b50505050565b610566610e91565b73ffffffffffffffffffffffffffffffffffffffff168573ffffffffffffffffffffffffffffffffffffffff1614806105ac57506105ab856105a6610e91565b61085a565b5b6105eb576040517f08c379a00000000000000000000000000000000000000000000000000000000081526004016105e290613020565b60405180910390fd5b6105f88585858585610e99565b5050505050565b60608151835114610645576040517f08c379a000000000000000000000000000000000000000000000000000000000815260040161063c906130b2565b60405180910390fd5b6000835167ffffffffffffffff811115610662576106616125e0565b5b6040519080825280602002602001820160405280156106905781602001602082028036833780820191505090505b50905060005b845181101561070d576106dd8582815181106106b5576106b46130d2565b5b60200260200101518583815181106106d0576106cf6130d2565b5b6020026020010151610369565b8282815181106106f0576106ef6130d2565b5b6020026020010181815250508061070690613130565b9050610696565b508091505092915050565b6000806107248361081d565b119050919050565b610734610e91565b73ffffffffffffffffffffffffffffffffffffffff168373ffffffffffffffffffffffffffffffffffffffff16148061077a575061077983610774610e91565b61085a565b5b6107b9576040517f08c379a00000000000000000000000000000000000000000000000000000000081526004016107b090613020565b60405180910390fd5b6107c48383836111ba565b505050565b6107d1610be7565b6107db6000611488565b565b6000600360009054906101000a900473ffffffffffffffffffffffffffffffffffffffff16905090565b610819610812610e91565b838361154e565b5050565b600060046000838152602001908152602001600020549050919050565b6060604051806080016040528060538152602001613b0660539139905090565b6000600160008473ffffffffffffffffffffffffffffffffffffffff1673ffffffffffffffffffffffffffffffffffffffff16815260200190815260200160002060008373ffffffffffffffffffffffffffffffffffffffff1673ffffffffffffffffffffffffffffffffffffffff16815260200190815260200160002060009054906101000a900460ff16905092915050565b6108f6610e91565b73ffffffffffffffffffffffffffffffffffffffff168573ffffffffffffffffffffffffffffffffffffffff16148061093c575061093b85610936610e91565b61085a565b5b61097b576040517f08c379a000000000000000000000000000000000000000000000000000000000815260040161097290613020565b60405180910390fd5b61098885858585856116ba565b5050505050565b610997610be7565b600073ffffffffffffffffffffffffffffffffffffffff168173ffffffffffffffffffffffffffffffffffffffff1603610a06576040517f08c379a00000000000000000000000000000000000000000000000000000000081526004016109fd906131ea565b60405180910390fd5b610a0f81611488565b50565b610a1a610e91565b73ffffffffffffffffffffffffffffffffffffffff168373ffffffffffffffffffffffffffffffffffffffff161480610a605750610a5f83610a5a610e91565b61085a565b5b610a9f576040517f08c379a0000000000000000000000000000000000000000000000000000000008152600401610a9690613020565b60405180910390fd5b610aaa838383611955565b505050565b60007f01ffc9a7000000000000000000000000000000000000000000000000000000007bffffffffffffffffffffffffffffffffffffffffffffffffffffffff1916827bffffffffffffffffffffffffffffffffffffffffffffffffffffffff1916149050919050565b606060006001610b2884611b9b565b01905060008167ffffffffffffffff811115610b4757610b466125e0565b5b6040519080825280601f01601f191660200182016040528015610b795781602001600182028036833780820191505090505b509050600082602001820190505b600115610bdc578080600190039150507f3031323334353637383961626364656600000000000000000000000000000000600a86061a8153600a8581610bd057610bcf61320a565b5b04945060008503610b87575b819350505050919050565b610bef610e91565b73ffffffffffffffffffffffffffffffffffffffff16610c0d6107dd565b73ffffffffffffffffffffffffffffffffffffffff1614610c63576040517f08c379a0000000000000000000000000000000000000000000000000000000008152600401610c5a90613285565b60405180910390fd5b565b600073ffffffffffffffffffffffffffffffffffffffff168473ffffffffffffffffffffffffffffffffffffffff1603610cd4576040517f08c379a0000000000000000000000000000000000000000000000000000000008152600401610ccb90613317565b60405180910390fd5b8151835114610d18576040517f08c379a0000000000000000000000000000000000000000000000000000000008152600401610d0f906133a9565b60405180910390fd5b6000610d22610e91565b9050610d3381600087878787611cee565b60005b8451811015610dec57838181518110610d5257610d516130d2565b5b6020026020010151600080878481518110610d7057610d6f6130d2565b5b6020026020010151815260200190815260200160002060008873ffffffffffffffffffffffffffffffffffffffff1673ffffffffffffffffffffffffffffffffffffffff1681526020019081526020016000206000828254610dd291906133c9565b925050819055508080610de490613130565b915050610d36565b508473ffffffffffffffffffffffffffffffffffffffff16600073ffffffffffffffffffffffffffffffffffffffff168273ffffffffffffffffffffffffffffffffffffffff167f4a39dc06d4c0dbc64b70af90fd698a233a518aa5d07e595d983b8c0526c8f7fb8787604051610e649291906133fd565b60405180910390a4610e7b81600087878787611d04565b610e8a81600087878787611d0c565b5050505050565b600033905090565b8151835114610edd576040517f08c379a0000000000000000000000000000000000000000000000000000000008152600401610ed4906133a9565b60405180910390fd5b600073ffffffffffffffffffffffffffffffffffffffff168473ffffffffffffffffffffffffffffffffffffffff1603610f4c576040517f08c379a0000000000000000000000000000000000000000000000000000000008152600401610f43906134a6565b60405180910390fd5b6000610f56610e91565b9050610f66818787878787611cee565b60005b8451811015611117576000858281518110610f8757610f866130d2565b5b602002602001015190506000858381518110610fa657610fa56130d2565b5b60200260200101519050600080600084815260200190815260200160002060008b73ffffffffffffffffffffffffffffffffffffffff1673ffffffffffffffffffffffffffffffffffffffff16815260200190815260200160002054905081811015611047576040517f08c379a000000000000000000000000000000000000000000000000000000000815260040161103e90613538565b60405180910390fd5b81810360008085815260200190815260200160002060008c73ffffffffffffffffffffffffffffffffffffffff1673ffffffffffffffffffffffffffffffffffffffff168152602001908152602001600020819055508160008085815260200190815260200160002060008b73ffffffffffffffffffffffffffffffffffffffff1673ffffffffffffffffffffffffffffffffffffffff16815260200190815260200160002060008282546110fc91906133c9565b925050819055505050508061111090613130565b9050610f69565b508473ffffffffffffffffffffffffffffffffffffffff168673ffffffffffffffffffffffffffffffffffffffff168273ffffffffffffffffffffffffffffffffffffffff167f4a39dc06d4c0dbc64b70af90fd698a233a518aa5d07e595d983b8c0526c8f7fb878760405161118e9291906133fd565b60405180910390a46111a4818787878787611d04565b6111b2818787878787611d0c565b505050505050565b600073ffffffffffffffffffffffffffffffffffffffff168373ffffffffffffffffffffffffffffffffffffffff1603611229576040517f08c379a0000000000000000000000000000000000000000000000000000000008152600401611220906135ca565b60405180910390fd5b805182511461126d576040517f08c379a0000000000000000000000000000000000000000000000000000000008152600401611264906133a9565b60405180910390fd5b6000611277610e91565b905061129781856000868660405180602001604052806000815250611cee565b60005b83518110156113e45760008482815181106112b8576112b76130d2565b5b6020026020010151905060008483815181106112d7576112d66130d2565b5b60200260200101519050600080600084815260200190815260200160002060008973ffffffffffffffffffffffffffffffffffffffff1673ffffffffffffffffffffffffffffffffffffffff16815260200190815260200160002054905081811015611378576040517f08c379a000000000000000000000000000000000000000000000000000000000815260040161136f9061365c565b60405180910390fd5b81810360008085815260200190815260200160002060008a73ffffffffffffffffffffffffffffffffffffffff1673ffffffffffffffffffffffffffffffffffffffff1681526020019081526020016000208190555050505080806113dc90613130565b91505061129a565b50600073ffffffffffffffffffffffffffffffffffffffff168473ffffffffffffffffffffffffffffffffffffffff168273ffffffffffffffffffffffffffffffffffffffff167f4a39dc06d4c0dbc64b70af90fd698a233a518aa5d07e595d983b8c0526c8f7fb868660405161145c9291906133fd565b60405180910390a461148281856000868660405180602001604052806000815250611d04565b50505050565b6000600360009054906101000a900473ffffffffffffffffffffffffffffffffffffffff16905081600360006101000a81548173ffffffffffffffffffffffffffffffffffffffff021916908373ffffffffffffffffffffffffffffffffffffffff1602179055508173ffffffffffffffffffffffffffffffffffffffff168173ffffffffffffffffffffffffffffffffffffffff167f8be0079c531659141344cd1fd0a4f28419497f9722a3daafe3b4186f6b6457e060405160405180910390a35050565b8173ffffffffffffffffffffffffffffffffffffffff168373ffffffffffffffffffffffffffffffffffffffff16036115bc576040517f08c379a00000000000000000000000000000000000000000000000000000000081526004016115b3906136ee565b60405180910390fd5b80600160008573ffffffffffffffffffffffffffffffffffffffff1673ffffffffffffffffffffffffffffffffffffffff16815260200190815260200160002060008473ffffffffffffffffffffffffffffffffffffffff1673ffffffffffffffffffffffffffffffffffffffff16815260200190815260200160002060006101000a81548160ff0219169083151502179055508173ffffffffffffffffffffffffffffffffffffffff168373ffffffffffffffffffffffffffffffffffffffff167f17307eab39ab6107e8899845ad3d59bd9653f200f220920489ca2b5937696c31836040516116ad91906124e1565b60405180910390a3505050565b600073ffffffffffffffffffffffffffffffffffffffff168473ffffffffffffffffffffffffffffffffffffffff1603611729576040517f08c379a0000000000000000000000000000000000000000000000000000000008152600401611720906134a6565b60405180910390fd5b6000611733610e91565b9050600061174085611ee3565b9050600061174d85611ee3565b905061175d838989858589611cee565b600080600088815260200190815260200160002060008a73ffffffffffffffffffffffffffffffffffffffff1673ffffffffffffffffffffffffffffffffffffffff168152602001908152602001600020549050858110156117f4576040517f08c379a00000000000000000000000000000000000000000000000000000000081526004016117eb90613538565b60405180910390fd5b85810360008089815260200190815260200160002060008b73ffffffffffffffffffffffffffffffffffffffff1673ffffffffffffffffffffffffffffffffffffffff168152602001908152602001600020819055508560008089815260200190815260200160002060008a73ffffffffffffffffffffffffffffffffffffffff1673ffffffffffffffffffffffffffffffffffffffff16815260200190815260200160002060008282546118a991906133c9565b925050819055508773ffffffffffffffffffffffffffffffffffffffff168973ffffffffffffffffffffffffffffffffffffffff168573ffffffffffffffffffffffffffffffffffffffff167fc3d58168c5ae7397731d063d5bbf3d657854427343f4c083240f7aacaa2d0f628a8a60405161192692919061370e565b60405180910390a461193c848a8a86868a611d04565b61194a848a8a8a8a8a611f5d565b505050505050505050565b600073ffffffffffffffffffffffffffffffffffffffff168373ffffffffffffffffffffffffffffffffffffffff16036119c4576040517f08c379a00000000000000000000000000000000000000000000000000000000081526004016119bb906135ca565b60405180910390fd5b60006119ce610e91565b905060006119db84611ee3565b905060006119e884611ee3565b9050611a0883876000858560405180602001604052806000815250611cee565b600080600087815260200190815260200160002060008873ffffffffffffffffffffffffffffffffffffffff1673ffffffffffffffffffffffffffffffffffffffff16815260200190815260200160002054905084811015611a9f576040517f08c379a0000000000000000000000000000000000000000000000000000000008152600401611a969061365c565b60405180910390fd5b84810360008088815260200190815260200160002060008973ffffffffffffffffffffffffffffffffffffffff1673ffffffffffffffffffffffffffffffffffffffff16815260200190815260200160002081905550600073ffffffffffffffffffffffffffffffffffffffff168773ffffffffffffffffffffffffffffffffffffffff168573ffffffffffffffffffffffffffffffffffffffff167fc3d58168c5ae7397731d063d5bbf3d657854427343f4c083240f7aacaa2d0f628989604051611b6c92919061370e565b60405180910390a4611b9284886000868660405180602001604052806000815250611d04565b50505050505050565b600080600090507a184f03e93ff9f4daa797ed6e38ed64bf6a1f0100000000000000008310611bf9577a184f03e93ff9f4daa797ed6e38ed64bf6a1f0100000000000000008381611bef57611bee61320a565b5b0492506040810190505b6d04ee2d6d415b85acef81000000008310611c36576d04ee2d6d415b85acef81000000008381611c2c57611c2b61320a565b5b0492506020810190505b662386f26fc100008310611c6557662386f26fc100008381611c5b57611c5a61320a565b5b0492506010810190505b6305f5e1008310611c8e576305f5e1008381611c8457611c8361320a565b5b0492506008810190505b6127108310611cb3576127108381611ca957611ca861320a565b5b0492506004810190505b60648310611cd65760648381611ccc57611ccb61320a565b5b0492506002810190505b600a8310611ce5576001810190505b80915050919050565b611cfc868686868686612134565b505050505050565b505050505050565b611d2b8473ffffffffffffffffffffffffffffffffffffffff16612304565b15611edb578373ffffffffffffffffffffffffffffffffffffffff1663bc197c8187878686866040518663ffffffff1660e01b8152600401611d7195949392919061378c565b6020604051808303816000875af1925050508015611dad57506040513d601f19601f82011682018060405250810190611daa9190613809565b60015b611e5257611db9613843565b806308c379a003611e155750611dcd613865565b80611dd85750611e17565b806040517f08c379a0000000000000000000000000000000000000000000000000000000008152600401611e0c91906125b9565b60405180910390fd5b505b6040517f08c379a0000000000000000000000000000000000000000000000000000000008152600401611e4990613967565b60405180910390fd5b63bc197c8160e01b7bffffffffffffffffffffffffffffffffffffffffffffffffffffffff1916817bffffffffffffffffffffffffffffffffffffffffffffffffffffffff191614611ed9576040517f08c379a0000000000000000000000000000000000000000000000000000000008152600401611ed0906139f9565b60405180910390fd5b505b505050505050565b60606000600167ffffffffffffffff811115611f0257611f016125e0565b5b604051908082528060200260200182016040528015611f305781602001602082028036833780820191505090505b5090508281600081518110611f4857611f476130d2565b5b60200260200101818152505080915050919050565b611f7c8473ffffffffffffffffffffffffffffffffffffffff16612304565b1561212c578373ffffffffffffffffffffffffffffffffffffffff1663f23a6e6187878686866040518663ffffffff1660e01b8152600401611fc2959493929190613a19565b6020604051808303816000875af1925050508015611ffe57506040513d601f19601f82011682018060405250810190611ffb9190613809565b60015b6120a35761200a613843565b806308c379a003612066575061201e613865565b806120295750612068565b806040517f08c379a000000000000000000000000000000000000000000000000000000000815260040161205d91906125b9565b60405180910390fd5b505b6040517f08c379a000000000000000000000000000000000000000000000000000000000815260040161209a90613967565b60405180910390fd5b63f23a6e6160e01b7bffffffffffffffffffffffffffffffffffffffffffffffffffffffff1916817bffffffffffffffffffffffffffffffffffffffffffffffffffffffff19161461212a576040517f08c379a0000000000000000000000000000000000000000000000000000000008152600401612121906139f9565b60405180910390fd5b505b505050505050565b612142868686868686612327565b600073ffffffffffffffffffffffffffffffffffffffff168573ffffffffffffffffffffffffffffffffffffffff16036121f35760005b83518110156121f157828181518110612195576121946130d2565b5b6020026020010151600460008684815181106121b4576121b36130d2565b5b6020026020010151815260200190815260200160002060008282546121d991906133c9565b92505081905550806121ea90613130565b9050612179565b505b600073ffffffffffffffffffffffffffffffffffffffff168473ffffffffffffffffffffffffffffffffffffffff16036122fc5760005b83518110156122fa576000848281518110612248576122476130d2565b5b602002602001015190506000848381518110612267576122666130d2565b5b60200260200101519050600060046000848152602001908152602001600020549050818110156122cc576040517f08c379a00000000000000000000000000000000000000000000000000000000081526004016122c390613ae5565b60405180910390fd5b8181036004600085815260200190815260200160002081905550505050806122f390613130565b905061222a565b505b505050505050565b6000808273ffffffffffffffffffffffffffffffffffffffff163b119050919050565b505050505050565b6000604051905090565b600080fd5b600080fd5b600073ffffffffffffffffffffffffffffffffffffffff82169050919050565b600061236e82612343565b9050919050565b61237e81612363565b811461238957600080fd5b50565b60008135905061239b81612375565b92915050565b6000819050919050565b6123b4816123a1565b81146123bf57600080fd5b50565b6000813590506123d1816123ab565b92915050565b600080604083850312156123ee576123ed612339565b5b60006123fc8582860161238c565b925050602061240d858286016123c2565b9150509250929050565b612420816123a1565b82525050565b600060208201905061243b6000830184612417565b92915050565b60007fffffffff0000000000000000000000000000000000000000000000000000000082169050919050565b61247681612441565b811461248157600080fd5b50565b6000813590506124938161246d565b92915050565b6000602082840312156124af576124ae612339565b5b60006124bd84828501612484565b91505092915050565b60008115159050919050565b6124db816124c6565b82525050565b60006020820190506124f660008301846124d2565b92915050565b60006020828403121561251257612511612339565b5b6000612520848285016123c2565b91505092915050565b600081519050919050565b600082825260208201905092915050565b60005b83811015612563578082015181840152602081019050612548565b60008484015250505050565b6000601f19601f8301169050919050565b600061258b82612529565b6125958185612534565b93506125a5818560208601612545565b6125ae8161256f565b840191505092915050565b600060208201905081810360008301526125d38184612580565b905092915050565b600080fd5b7f4e487b7100000000000000000000000000000000000000000000000000000000600052604160045260246000fd5b6126188261256f565b810181811067ffffffffffffffff82111715612637576126366125e0565b5b80604052505050565b600061264a61232f565b9050612656828261260f565b919050565b600067ffffffffffffffff821115612676576126756125e0565b5b602082029050602081019050919050565b600080fd5b600061269f61269a8461265b565b612640565b905080838252602082019050602084028301858111156126c2576126c1612687565b5b835b818110156126eb57806126d788826123c2565b8452602084019350506020810190506126c4565b5050509392505050565b600082601f83011261270a576127096125db565b5b813561271a84826020860161268c565b91505092915050565b600080fd5b600067ffffffffffffffff821115612743576127426125e0565b5b61274c8261256f565b9050602081019050919050565b82818337600083830152505050565b600061277b61277684612728565b612640565b90508281526020810184848401111561279757612796612723565b5b6127a2848285612759565b509392505050565b600082601f8301126127bf576127be6125db565b5b81356127cf848260208601612768565b91505092915050565b600080600080608085870312156127f2576127f1612339565b5b60006128008782880161238c565b945050602085013567ffffffffffffffff8111156128215761282061233e565b5b61282d878288016126f5565b935050604085013567ffffffffffffffff81111561284e5761284d61233e565b5b61285a878288016126f5565b925050606085013567ffffffffffffffff81111561287b5761287a61233e565b5b612887878288016127aa565b91505092959194509250565b600080600080600060a086880312156128af576128ae612339565b5b60006128bd8882890161238c565b95505060206128ce8882890161238c565b945050604086013567ffffffffffffffff8111156128ef576128ee61233e565b5b6128fb888289016126f5565b935050606086013567ffffffffffffffff81111561291c5761291b61233e565b5b612928888289016126f5565b925050608086013567ffffffffffffffff8111156129495761294861233e565b5b612955888289016127aa565b9150509295509295909350565b600067ffffffffffffffff82111561297d5761297c6125e0565b5b602082029050602081019050919050565b60006129a161299c84612962565b612640565b905080838252602082019050602084028301858111156129c4576129c3612687565b5b835b818110156129ed57806129d9888261238c565b8452602084019350506020810190506129c6565b5050509392505050565b600082601f830112612a0c57612a0b6125db565b5b8135612a1c84826020860161298e565b91505092915050565b60008060408385031215612a3c57612a3b612339565b5b600083013567ffffffffffffffff811115612a5a57612a5961233e565b5b612a66858286016129f7565b925050602083013567ffffffffffffffff811115612a8757612a8661233e565b5b612a93858286016126f5565b9150509250929050565b600081519050919050565b600082825260208201905092915050565b6000819050602082019050919050565b612ad2816123a1565b82525050565b6000612ae48383612ac9565b60208301905092915050565b6000602082019050919050565b6000612b0882612a9d565b612b128185612aa8565b9350612b1d83612ab9565b8060005b83811015612b4e578151612b358882612ad8565b9750612b4083612af0565b925050600181019050612b21565b5085935050505092915050565b60006020820190508181036000830152612b758184612afd565b905092915050565b600080600060608486031215612b9657612b95612339565b5b6000612ba48682870161238c565b935050602084013567ffffffffffffffff811115612bc557612bc461233e565b5b612bd1868287016126f5565b925050604084013567ffffffffffffffff811115612bf257612bf161233e565b5b612bfe868287016126f5565b9150509250925092565b612c1181612363565b82525050565b6000602082019050612c2c6000830184612c08565b92915050565b612c3b816124c6565b8114612c4657600080fd5b50565b600081359050612c5881612c32565b92915050565b60008060408385031215612c7557612c74612339565b5b6000612c838582860161238c565b9250506020612c9485828601612c49565b9150509250929050565b60008060408385031215612cb557612cb4612339565b5b6000612cc38582860161238c565b9250506020612cd48582860161238c565b9150509250929050565b600080600080600060a08688031215612cfa57612cf9612339565b5b6000612d088882890161238c565b9550506020612d198882890161238c565b9450506040612d2a888289016123c2565b9350506060612d3b888289016123c2565b925050608086013567ffffffffffffffff811115612d5c57612d5b61233e565b5b612d68888289016127aa565b9150509295509295909350565b600060208284031215612d8b57612d8a612339565b5b6000612d998482850161238c565b91505092915050565b600080600060608486031215612dbb57612dba612339565b5b6000612dc98682870161238c565b9350506020612dda868287016123c2565b9250506040612deb868287016123c2565b9150509250925092565b7f455243313135353a2061646472657373207a65726f206973206e6f742061207660008201527f616c6964206f776e657200000000000000000000000000000000000000000000602082015250565b6000612e51602a83612534565b9150612e5c82612df5565b604082019050919050565b60006020820190508181036000830152612e8081612e44565b9050919050565b600081905092915050565b7f697066733a2f2f516d61633839735a545347764b6b795961327672786452616b60008201527f5052456147464a534e4a52525765747a544c51544d2f00000000000000000000602082015250565b6000612eee603683612e87565b9150612ef982612e92565b603682019050919050565b6000612f0f82612529565b612f198185612e87565b9350612f29818560208601612545565b80840191505092915050565b7f2e6a736f6e000000000000000000000000000000000000000000000000000000600082015250565b6000612f6b600583612e87565b9150612f7682612f35565b600582019050919050565b6000612f8c82612ee1565b9150612f988284612f04565b9150612fa382612f5e565b915081905092915050565b7f455243313135353a2063616c6c6572206973206e6f7420746f6b656e206f776e60008201527f6572206f7220617070726f766564000000000000000000000000000000000000602082015250565b600061300a602e83612534565b915061301582612fae565b604082019050919050565b6000602082019050818103600083015261303981612ffd565b9050919050565b7f455243313135353a206163636f756e747320616e6420696473206c656e67746860008201527f206d69736d617463680000000000000000000000000000000000000000000000602082015250565b600061309c602983612534565b91506130a782613040565b604082019050919050565b600060208201905081810360008301526130cb8161308f565b9050919050565b7f4e487b7100000000000000000000000000000000000000000000000000000000600052603260045260246000fd5b7f4e487b7100000000000000000000000000000000000000000000000000000000600052601160045260246000fd5b600061313b826123a1565b91507fffffffffffffffffffffffffffffffffffffffffffffffffffffffffffffffff820361316d5761316c613101565b5b600182019050919050565b7f4f776e61626c653a206e6577206f776e657220697320746865207a65726f206160008201527f6464726573730000000000000000000000000000000000000000000000000000602082015250565b60006131d4602683612534565b91506131df82613178565b604082019050919050565b60006020820190508181036000830152613203816131c7565b9050919050565b7f4e487b7100000000000000000000000000000000000000000000000000000000600052601260045260246000fd5b7f4f776e61626c653a2063616c6c6572206973206e6f7420746865206f776e6572600082015250565b600061326f602083612534565b915061327a82613239565b602082019050919050565b6000602082019050818103600083015261329e81613262565b9050919050565b7f455243313135353a206d696e7420746f20746865207a65726f2061646472657360008201527f7300000000000000000000000000000000000000000000000000000000000000602082015250565b6000613301602183612534565b915061330c826132a5565b604082019050919050565b60006020820190508181036000830152613330816132f4565b9050919050565b7f455243313135353a2069647320616e6420616d6f756e7473206c656e6774682060008201527f6d69736d61746368000000000000000000000000000000000000000000000000602082015250565b6000613393602883612534565b915061339e82613337565b604082019050919050565b600060208201905081810360008301526133c281613386565b9050919050565b60006133d4826123a1565b91506133df836123a1565b92508282019050808211156133f7576133f6613101565b5b92915050565b600060408201905081810360008301526134178185612afd565b9050818103602083015261342b8184612afd565b90509392505050565b7f455243313135353a207472616e7366657220746f20746865207a65726f20616460008201527f6472657373000000000000000000000000000000000000000000000000000000602082015250565b6000613490602583612534565b915061349b82613434565b604082019050919050565b600060208201905081810360008301526134bf81613483565b9050919050565b7f455243313135353a20696e73756666696369656e742062616c616e636520666f60008201527f72207472616e7366657200000000000000000000000000000000000000000000602082015250565b6000613522602a83612534565b915061352d826134c6565b604082019050919050565b6000602082019050818103600083015261355181613515565b9050919050565b7f455243313135353a206275726e2066726f6d20746865207a65726f206164647260008201527f6573730000000000000000000000000000000000000000000000000000000000602082015250565b60006135b4602383612534565b91506135bf82613558565b604082019050919050565b600060208201905081810360008301526135e3816135a7565b9050919050565b7f455243313135353a206275726e20616d6f756e7420657863656564732062616c60008201527f616e636500000000000000000000000000000000000000000000000000000000602082015250565b6000613646602483612534565b9150613651826135ea565b604082019050919050565b6000602082019050818103600083015261367581613639565b9050919050565b7f455243313135353a2073657474696e6720617070726f76616c2073746174757360008201527f20666f722073656c660000000000000000000000000000000000000000000000602082015250565b60006136d8602983612534565b91506136e38261367c565b604082019050919050565b60006020820190508181036000830152613707816136cb565b9050919050565b60006040820190506137236000830185612417565b6137306020830184612417565b9392505050565b600081519050919050565b600082825260208201905092915050565b600061375e82613737565b6137688185613742565b9350613778818560208601612545565b6137818161256f565b840191505092915050565b600060a0820190506137a16000830188612c08565b6137ae6020830187612c08565b81810360408301526137c08186612afd565b905081810360608301526137d48185612afd565b905081810360808301526137e88184613753565b90509695505050505050565b6000815190506138038161246d565b92915050565b60006020828403121561381f5761381e612339565b5b600061382d848285016137f4565b91505092915050565b60008160e01c9050919050565b600060033d11156138625760046000803e61385f600051613836565b90505b90565b600060443d106138f25761387761232f565b60043d036004823e80513d602482011167ffffffffffffffff8211171561389f5750506138f2565b808201805167ffffffffffffffff8111156138bd57505050506138f2565b80602083010160043d0385018111156138da5750505050506138f2565b6138e98260200185018661260f565b82955050505050505b90565b7f455243313135353a207472616e7366657220746f206e6f6e2d4552433131353560008201527f526563656976657220696d706c656d656e746572000000000000000000000000602082015250565b6000613951603483612534565b915061395c826138f5565b604082019050919050565b6000602082019050818103600083015261398081613944565b9050919050565b7f455243313135353a204552433131353552656365697665722072656a6563746560008201527f6420746f6b656e73000000000000000000000000000000000000000000000000602082015250565b60006139e3602883612534565b91506139ee82613987565b604082019050919050565b60006020820190508181036000830152613a12816139d6565b9050919050565b600060a082019050613a2e6000830188612c08565b613a3b6020830187612c08565b613a486040830186612417565b613a556060830185612417565b8181036080830152613a678184613753565b90509695505050505050565b7f455243313135353a206275726e20616d6f756e74206578636565647320746f7460008201527f616c537570706c79000000000000000000000000000000000000000000000000602082015250565b6000613acf602883612534565b9150613ada82613a73565b604082019050919050565b60006020820190508181036000830152613afe81613ac2565b905091905056fe68747470733a2f2f697066732e696f2f697066732f516d5158447559506455346538576437515866796279655857756a7932736d70776e4575314e626151326a3145712f636f6c6c656374696f6e2e6a736f6ea264697066735822122036345b341e0bc95a4bbfd0d2fb27eacb21e8b2d3189cf8a4a55a5dcd8ba4fe0864736f6c63430008120033697066733a2f2f516d61633839735a545347764b6b795961327672786452616b5052456147464a534e4a52525765747a544c51544d2f7b69647d2e6a736f6e",
			"opcodes": "PUSH1 0x80 PUSH1 0x40 MSTORE CALLVALUE DUP1 ISZERO PUSH3 0x11 JUMPI PUSH1 0x0 DUP1 REVERT JUMPDEST POP PUSH1 0x40 MLOAD DUP1 PUSH1 0x60 ADD PUSH1 0x40 MSTORE DUP1 PUSH1 0x3F DUP2 MSTORE PUSH1 0x20 ADD PUSH3 0x4046 PUSH1 0x3F SWAP2 CODECOPY PUSH3 0x3D DUP2 PUSH3 0x64 PUSH1 0x20 SHL PUSH1 0x20 SHR JUMP JUMPDEST POP PUSH3 0x5E PUSH3 0x52 PUSH3 0x79 PUSH1 0x20 SHL PUSH1 0x20 SHR JUMP JUMPDEST PUSH3 0x81 PUSH1 0x20 SHL PUSH1 0x20 SHR JUMP JUMPDEST PUSH3 0x4A8 JUMP JUMPDEST DUP1 PUSH1 0x2 SWAP1 DUP2 PUSH3 0x75 SWAP2 SWAP1 PUSH3 0x3C1 JUMP JUMPDEST POP POP JUMP JUMPDEST PUSH1 0x0 CALLER SWAP1 POP SWAP1 JUMP JUMPDEST PUSH1 0x0 PUSH1 0x3 PUSH1 0x0 SWAP1 SLOAD SWAP1 PUSH2 0x100 EXP SWAP1 DIV PUSH20 0xFFFFFFFFFFFFFFFFFFFFFFFFFFFFFFFFFFFFFFFF AND SWAP1 POP DUP2 PUSH1 0x3 PUSH1 0x0 PUSH2 0x100 EXP DUP2 SLOAD DUP2 PUSH20 0xFFFFFFFFFFFFFFFFFFFFFFFFFFFFFFFFFFFFFFFF MUL NOT AND SWAP1 DUP4 PUSH20 0xFFFFFFFFFFFFFFFFFFFFFFFFFFFFFFFFFFFFFFFF AND MUL OR SWAP1 SSTORE POP DUP2 PUSH20 0xFFFFFFFFFFFFFFFFFFFFFFFFFFFFFFFFFFFFFFFF AND DUP2 PUSH20 0xFFFFFFFFFFFFFFFFFFFFFFFFFFFFFFFFFFFFFFFF AND PUSH32 0x8BE0079C531659141344CD1FD0A4F28419497F9722A3DAAFE3B4186F6B6457E0 PUSH1 0x40 MLOAD PUSH1 0x40 MLOAD DUP1 SWAP2 SUB SWAP1 LOG3 POP POP JUMP JUMPDEST PUSH1 0x0 DUP2 MLOAD SWAP1 POP SWAP2 SWAP1 POP JUMP JUMPDEST PUSH32 0x4E487B7100000000000000000000000000000000000000000000000000000000 PUSH1 0x0 MSTORE PUSH1 0x41 PUSH1 0x4 MSTORE PUSH1 0x24 PUSH1 0x0 REVERT JUMPDEST PUSH32 0x4E487B7100000000000000000000000000000000000000000000000000000000 PUSH1 0x0 MSTORE PUSH1 0x22 PUSH1 0x4 MSTORE PUSH1 0x24 PUSH1 0x0 REVERT JUMPDEST PUSH1 0x0 PUSH1 0x2 DUP3 DIV SWAP1 POP PUSH1 0x1 DUP3 AND DUP1 PUSH3 0x1C9 JUMPI PUSH1 0x7F DUP3 AND SWAP2 POP JUMPDEST PUSH1 0x20 DUP3 LT DUP2 SUB PUSH3 0x1DF JUMPI PUSH3 0x1DE PUSH3 0x181 JUMP JUMPDEST JUMPDEST POP SWAP2 SWAP1 POP JUMP JUMPDEST PUSH1 0x0 DUP2 SWAP1 POP DUP2 PUSH1 0x0 MSTORE PUSH1 0x20 PUSH1 0x0 KECCAK256 SWAP1 POP SWAP2 SWAP1 POP JUMP JUMPDEST PUSH1 0x0 PUSH1 0x20 PUSH1 0x1F DUP4 ADD DIV SWAP1 POP SWAP2 SWAP1 POP JUMP JUMPDEST PUSH1 0x0 DUP3 DUP3 SHL SWAP1 POP SWAP3 SWAP2 POP POP JUMP JUMPDEST PUSH1 0x0 PUSH1 0x8 DUP4 MUL PUSH3 0x249 PUSH32 0xFFFFFFFFFFFFFFFFFFFFFFFFFFFFFFFFFFFFFFFFFFFFFFFFFFFFFFFFFFFFFFFF DUP3 PUSH3 0x20A JUMP JUMPDEST PUSH3 0x255 DUP7 DUP4 PUSH3 0x20A JUMP JUMPDEST SWAP6 POP DUP1 NOT DUP5 AND SWAP4 POP DUP1 DUP7 AND DUP5 OR SWAP3 POP POP POP SWAP4 SWAP3 POP POP POP JUMP JUMPDEST PUSH1 0x0 DUP2 SWAP1 POP SWAP2 SWAP1 POP JUMP JUMPDEST PUSH1 0x0 DUP2 SWAP1 POP SWAP2 SWAP1 POP JUMP JUMPDEST PUSH1 0x0 PUSH3 0x2A2 PUSH3 0x29C PUSH3 0x296 DUP5 PUSH3 0x26D JUMP JUMPDEST PUSH3 0x277 JUMP JUMPDEST PUSH3 0x26D JUMP JUMPDEST SWAP1 POP SWAP2 SWAP1 POP JUMP JUMPDEST PUSH1 0x0 DUP2 SWAP1 POP SWAP2 SWAP1 POP JUMP JUMPDEST PUSH3 0x2BE DUP4 PUSH3 0x281 JUMP JUMPDEST PUSH3 0x2D6 PUSH3 0x2CD DUP3 PUSH3 0x2A9 JUMP JUMPDEST DUP5 DUP5 SLOAD PUSH3 0x217 JUMP JUMPDEST DUP3 SSTORE POP POP POP POP JUMP JUMPDEST PUSH1 0x0 SWAP1 JUMP JUMPDEST PUSH3 0x2ED PUSH3 0x2DE JUMP JUMPDEST PUSH3 0x2FA DUP2 DUP5 DUP5 PUSH3 0x2B3 JUMP JUMPDEST POP POP POP JUMP JUMPDEST JUMPDEST DUP2 DUP2 LT ISZERO PUSH3 0x322 JUMPI PUSH3 0x316 PUSH1 0x0 DUP3 PUSH3 0x2E3 JUMP JUMPDEST PUSH1 0x1 DUP2 ADD SWAP1 POP PUSH3 0x300 JUMP JUMPDEST POP POP JUMP JUMPDEST PUSH1 0x1F DUP3 GT ISZERO PUSH3 0x371 JUMPI PUSH3 0x33B DUP2 PUSH3 0x1E5 JUMP JUMPDEST PUSH3 0x346 DUP5 PUSH3 0x1FA JUMP JUMPDEST DUP2 ADD PUSH1 0x20 DUP6 LT ISZERO PUSH3 0x356 JUMPI DUP2 SWAP1 POP JUMPDEST PUSH3 0x36E PUSH3 0x365 DUP6 PUSH3 0x1FA JUMP JUMPDEST DUP4 ADD DUP3 PUSH3 0x2FF JUMP JUMPDEST POP POP JUMPDEST POP POP POP JUMP JUMPDEST PUSH1 0x0 DUP3 DUP3 SHR SWAP1 POP SWAP3 SWAP2 POP POP JUMP JUMPDEST PUSH1 0x0 PUSH3 0x396 PUSH1 0x0 NOT DUP5 PUSH1 0x8 MUL PUSH3 0x376 JUMP JUMPDEST NOT DUP1 DUP4 AND SWAP2 POP POP SWAP3 SWAP2 POP POP JUMP JUMPDEST PUSH1 0x0 PUSH3 0x3B1 DUP4 DUP4 PUSH3 0x383 JUMP JUMPDEST SWAP2 POP DUP3 PUSH1 0x2 MUL DUP3 OR SWAP1 POP SWAP3 SWAP2 POP POP JUMP JUMPDEST PUSH3 0x3CC DUP3 PUSH3 0x147 JUMP JUMPDEST PUSH8 0xFFFFFFFFFFFFFFFF DUP2 GT ISZERO PUSH3 0x3E8 JUMPI PUSH3 0x3E7 PUSH3 0x152 JUMP JUMPDEST JUMPDEST PUSH3 0x3F4 DUP3 SLOAD PUSH3 0x1B0 JUMP JUMPDEST PUSH3 0x401 DUP3 DUP3 DUP6 PUSH3 0x326 JUMP JUMPDEST PUSH1 0x0 PUSH1 0x20 SWAP1 POP PUSH1 0x1F DUP4 GT PUSH1 0x1 DUP2 EQ PUSH3 0x439 JUMPI PUSH1 0x0 DUP5 ISZERO PUSH3 0x424 JUMPI DUP3 DUP8 ADD MLOAD SWAP1 POP JUMPDEST PUSH3 0x430 DUP6 DUP3 PUSH3 0x3A3 JUMP JUMPDEST DUP7 SSTORE POP PUSH3 0x4A0 JUMP JUMPDEST PUSH1 0x1F NOT DUP5 AND PUSH3 0x449 DUP7 PUSH3 0x1E5 JUMP JUMPDEST PUSH1 0x0 JUMPDEST DUP3 DUP2 LT ISZERO PUSH3 0x473 JUMPI DUP5 DUP10 ADD MLOAD DUP3 SSTORE PUSH1 0x1 DUP3 ADD SWAP2 POP PUSH1 0x20 DUP6 ADD SWAP5 POP PUSH1 0x20 DUP2 ADD SWAP1 POP PUSH3 0x44C JUMP JUMPDEST DUP7 DUP4 LT ISZERO PUSH3 0x493 JUMPI DUP5 DUP10 ADD MLOAD PUSH3 0x48F PUSH1 0x1F DUP10 AND DUP3 PUSH3 0x383 JUMP JUMPDEST DUP4 SSTORE POP JUMPDEST PUSH1 0x1 PUSH1 0x2 DUP9 MUL ADD DUP9 SSTORE POP POP POP JUMPDEST POP POP POP POP POP POP JUMP JUMPDEST PUSH2 0x3B8E DUP1 PUSH3 0x4B8 PUSH1 0x0 CODECOPY PUSH1 0x0 RETURN INVALID PUSH1 0x80 PUSH1 0x40 MSTORE CALLVALUE DUP1 ISZERO PUSH2 0x10 JUMPI PUSH1 0x0 DUP1 REVERT JUMPDEST POP PUSH1 0x4 CALLDATASIZE LT PUSH2 0x10A JUMPI PUSH1 0x0 CALLDATALOAD PUSH1 0xE0 SHR DUP1 PUSH4 0x715018A6 GT PUSH2 0xA2 JUMPI DUP1 PUSH4 0xE8A3D485 GT PUSH2 0x71 JUMPI DUP1 PUSH4 0xE8A3D485 EQ PUSH2 0x2C7 JUMPI DUP1 PUSH4 0xE985E9C5 EQ PUSH2 0x2E5 JUMPI DUP1 PUSH4 0xF242432A EQ PUSH2 0x315 JUMPI DUP1 PUSH4 0xF2FDE38B EQ PUSH2 0x331 JUMPI DUP1 PUSH4 0xF5298ACA EQ PUSH2 0x34D JUMPI PUSH2 0x10A JUMP JUMPDEST DUP1 PUSH4 0x715018A6 EQ PUSH2 0x253 JUMPI DUP1 PUSH4 0x8DA5CB5B EQ PUSH2 0x25D JUMPI DUP1 PUSH4 0xA22CB465 EQ PUSH2 0x27B JUMPI DUP1 PUSH4 0xBD85B039 EQ PUSH2 0x297 JUMPI PUSH2 0x10A JUMP JUMPDEST DUP1 PUSH4 0x2EB2C2D6 GT PUSH2 0xDE JUMPI DUP1 PUSH4 0x2EB2C2D6 EQ PUSH2 0x1BB JUMPI DUP1 PUSH4 0x4E1273F4 EQ PUSH2 0x1D7 JUMPI DUP1 PUSH4 0x4F558E79 EQ PUSH2 0x207 JUMPI DUP1 PUSH4 0x6B20C454 EQ PUSH2 0x237 JUMPI PUSH2 0x10A JUMP JUMPDEST DUP1 PUSH3 0xFDD58E EQ PUSH2 0x10F JUMPI DUP1 PUSH4 0x1FFC9A7 EQ PUSH2 0x13F JUMPI DUP1 PUSH4 0xE89341C EQ PUSH2 0x16F JUMPI DUP1 PUSH4 0x1F7FDFFA EQ PUSH2 0x19F JUMPI JUMPDEST PUSH1 0x0 DUP1 REVERT JUMPDEST PUSH2 0x129 PUSH1 0x4 DUP1 CALLDATASIZE SUB DUP2 ADD SWAP1 PUSH2 0x124 SWAP2 SWAP1 PUSH2 0x23D7 JUMP JUMPDEST PUSH2 0x369 JUMP JUMPDEST PUSH1 0x40 MLOAD PUSH2 0x136 SWAP2 SWAP1 PUSH2 0x2426 JUMP JUMPDEST PUSH1 0x40 MLOAD DUP1 SWAP2 SUB SWAP1 RETURN JUMPDEST PUSH2 0x159 PUSH1 0x4 DUP1 CALLDATASIZE SUB DUP2 ADD SWAP1 PUSH2 0x154 SWAP2 SWAP1 PUSH2 0x2499 JUMP JUMPDEST PUSH2 0x431 JUMP JUMPDEST PUSH1 0x40 MLOAD PUSH2 0x166 SWAP2 SWAP1 PUSH2 0x24E1 JUMP JUMPDEST PUSH1 0x40 MLOAD DUP1 SWAP2 SUB SWAP1 RETURN JUMPDEST PUSH2 0x189 PUSH1 0x4 DUP1 CALLDATASIZE SUB DUP2 ADD SWAP1 PUSH2 0x184 SWAP2 SWAP1 PUSH2 0x24FC JUMP JUMPDEST PUSH2 0x513 JUMP JUMPDEST PUSH1 0x40 MLOAD PUSH2 0x196 SWAP2 SWAP1 PUSH2 0x25B9 JUMP JUMPDEST PUSH1 0x40 MLOAD DUP1 SWAP2 SUB SWAP1 RETURN JUMPDEST PUSH2 0x1B9 PUSH1 0x4 DUP1 CALLDATASIZE SUB DUP2 ADD SWAP1 PUSH2 0x1B4 SWAP2 SWAP1 PUSH2 0x27D8 JUMP JUMPDEST PUSH2 0x544 JUMP JUMPDEST STOP JUMPDEST PUSH2 0x1D5 PUSH1 0x4 DUP1 CALLDATASIZE SUB DUP2 ADD SWAP1 PUSH2 0x1D0 SWAP2 SWAP1 PUSH2 0x2893 JUMP JUMPDEST PUSH2 0x55E JUMP JUMPDEST STOP JUMPDEST PUSH2 0x1F1 PUSH1 0x4 DUP1 CALLDATASIZE SUB DUP2 ADD SWAP1 PUSH2 0x1EC SWAP2 SWAP1 PUSH2 0x2A25 JUMP JUMPDEST PUSH2 0x5FF JUMP JUMPDEST PUSH1 0x40 MLOAD PUSH2 0x1FE SWAP2 SWAP1 PUSH2 0x2B5B JUMP JUMPDEST PUSH1 0x40 MLOAD DUP1 SWAP2 SUB SWAP1 RETURN JUMPDEST PUSH2 0x221 PUSH1 0x4 DUP1 CALLDATASIZE SUB DUP2 ADD SWAP1 PUSH2 0x21C SWAP2 SWAP1 PUSH2 0x24FC JUMP JUMPDEST PUSH2 0x718 JUMP JUMPDEST PUSH1 0x40 MLOAD PUSH2 0x22E SWAP2 SWAP1 PUSH2 0x24E1 JUMP JUMPDEST PUSH1 0x40 MLOAD DUP1 SWAP2 SUB SWAP1 RETURN JUMPDEST PUSH2 0x251 PUSH1 0x4 DUP1 CALLDATASIZE SUB DUP2 ADD SWAP1 PUSH2 0x24C SWAP2 SWAP1 PUSH2 0x2B7D JUMP JUMPDEST PUSH2 0x72C JUMP JUMPDEST STOP JUMPDEST PUSH2 0x25B PUSH2 0x7C9 JUMP JUMPDEST STOP JUMPDEST PUSH2 0x265 PUSH2 0x7DD JUMP JUMPDEST PUSH1 0x40 MLOAD PUSH2 0x272 SWAP2 SWAP1 PUSH2 0x2C17 JUMP JUMPDEST PUSH1 0x40 MLOAD DUP1 SWAP2 SUB SWAP1 RETURN JUMPDEST PUSH2 0x295 PUSH1 0x4 DUP1 CALLDATASIZE SUB DUP2 ADD SWAP1 PUSH2 0x290 SWAP2 SWAP1 PUSH2 0x2C5E JUMP JUMPDEST PUSH2 0x807 JUMP JUMPDEST STOP JUMPDEST PUSH2 0x2B1 PUSH1 0x4 DUP1 CALLDATASIZE SUB DUP2 ADD SWAP1 PUSH2 0x2AC SWAP2 SWAP1 PUSH2 0x24FC JUMP JUMPDEST PUSH2 0x81D JUMP JUMPDEST PUSH1 0x40 MLOAD PUSH2 0x2BE SWAP2 SWAP1 PUSH2 0x2426 JUMP JUMPDEST PUSH1 0x40 MLOAD DUP1 SWAP2 SUB SWAP1 RETURN JUMPDEST PUSH2 0x2CF PUSH2 0x83A JUMP JUMPDEST PUSH1 0x40 MLOAD PUSH2 0x2DC SWAP2 SWAP1 PUSH2 0x25B9 JUMP JUMPDEST PUSH1 0x40 MLOAD DUP1 SWAP2 SUB SWAP1 RETURN JUMPDEST PUSH2 0x2FF PUSH1 0x4 DUP1 CALLDATASIZE SUB DUP2 ADD SWAP1 PUSH2 0x2FA SWAP2 SWAP1 PUSH2 0x2C9E JUMP JUMPDEST PUSH2 0x85A JUMP JUMPDEST PUSH1 0x40 MLOAD PUSH2 0x30C SWAP2 SWAP1 PUSH2 0x24E1 JUMP JUMPDEST PUSH1 0x40 MLOAD DUP1 SWAP2 SUB SWAP1 RETURN JUMPDEST PUSH2 0x32F PUSH1 0x4 DUP1 CALLDATASIZE SUB DUP2 ADD SWAP1 PUSH2 0x32A SWAP2 SWAP1 PUSH2 0x2CDE JUMP JUMPDEST PUSH2 0x8EE JUMP JUMPDEST STOP JUMPDEST PUSH2 0x34B PUSH1 0x4 DUP1 CALLDATASIZE SUB DUP2 ADD SWAP1 PUSH2 0x346 SWAP2 SWAP1 PUSH2 0x2D75 JUMP JUMPDEST PUSH2 0x98F JUMP JUMPDEST STOP JUMPDEST PUSH2 0x367 PUSH1 0x4 DUP1 CALLDATASIZE SUB DUP2 ADD SWAP1 PUSH2 0x362 SWAP2 SWAP1 PUSH2 0x2DA2 JUMP JUMPDEST PUSH2 0xA12 JUMP JUMPDEST STOP JUMPDEST PUSH1 0x0 DUP1 PUSH20 0xFFFFFFFFFFFFFFFFFFFFFFFFFFFFFFFFFFFFFFFF AND DUP4 PUSH20 0xFFFFFFFFFFFFFFFFFFFFFFFFFFFFFFFFFFFFFFFF AND SUB PUSH2 0x3D9 JUMPI PUSH1 0x40 MLOAD PUSH32 0x8C379A000000000000000000000000000000000000000000000000000000000 DUP2 MSTORE PUSH1 0x4 ADD PUSH2 0x3D0 SWAP1 PUSH2 0x2E67 JUMP JUMPDEST PUSH1 0x40 MLOAD DUP1 SWAP2 SUB SWAP1 REVERT JUMPDEST PUSH1 0x0 DUP1 DUP4 DUP2 MSTORE PUSH1 0x20 ADD SWAP1 DUP2 MSTORE PUSH1 0x20 ADD PUSH1 0x0 KECCAK256 PUSH1 0x0 DUP5 PUSH20 0xFFFFFFFFFFFFFFFFFFFFFFFFFFFFFFFFFFFFFFFF AND PUSH20 0xFFFFFFFFFFFFFFFFFFFFFFFFFFFFFFFFFFFFFFFF AND DUP2 MSTORE PUSH1 0x20 ADD SWAP1 DUP2 MSTORE PUSH1 0x20 ADD PUSH1 0x0 KECCAK256 SLOAD SWAP1 POP SWAP3 SWAP2 POP POP JUMP JUMPDEST PUSH1 0x0 PUSH32 0xD9B67A2600000000000000000000000000000000000000000000000000000000 PUSH28 0xFFFFFFFFFFFFFFFFFFFFFFFFFFFFFFFFFFFFFFFFFFFFFFFFFFFFFFFF NOT AND DUP3 PUSH28 0xFFFFFFFFFFFFFFFFFFFFFFFFFFFFFFFFFFFFFFFFFFFFFFFFFFFFFFFF NOT AND EQ DUP1 PUSH2 0x4FC JUMPI POP PUSH32 0xE89341C00000000000000000000000000000000000000000000000000000000 PUSH28 0xFFFFFFFFFFFFFFFFFFFFFFFFFFFFFFFFFFFFFFFFFFFFFFFFFFFFFFFF NOT AND DUP3 PUSH28 0xFFFFFFFFFFFFFFFFFFFFFFFFFFFFFFFFFFFFFFFFFFFFFFFFFFFFFFFF NOT AND EQ JUMPDEST DUP1 PUSH2 0x50C JUMPI POP PUSH2 0x50B DUP3 PUSH2 0xAAF JUMP JUMPDEST JUMPDEST SWAP1 POP SWAP2 SWAP1 POP JUMP JUMPDEST PUSH1 0x60 PUSH2 0x51E DUP3 PUSH2 0xB19 JUMP JUMPDEST PUSH1 0x40 MLOAD PUSH1 0x20 ADD PUSH2 0x52E SWAP2 SWAP1 PUSH2 0x2F81 JUMP JUMPDEST PUSH1 0x40 MLOAD PUSH1 0x20 DUP2 DUP4 SUB SUB DUP2 MSTORE SWAP1 PUSH1 0x40 MSTORE SWAP1 POP SWAP2 SWAP1 POP JUMP JUMPDEST PUSH2 0x54C PUSH2 0xBE7 JUMP JUMPDEST PUSH2 0x558 DUP5 DUP5 DUP5 DUP5 PUSH2 0xC65 JUMP JUMPDEST POP POP POP POP JUMP JUMPDEST PUSH2 0x566 PUSH2 0xE91 JUMP JUMPDEST PUSH20 0xFFFFFFFFFFFFFFFFFFFFFFFFFFFFFFFFFFFFFFFF AND DUP6 PUSH20 0xFFFFFFFFFFFFFFFFFFFFFFFFFFFFFFFFFFFFFFFF AND EQ DUP1 PUSH2 0x5AC JUMPI POP PUSH2 0x5AB DUP6 PUSH2 0x5A6 PUSH2 0xE91 JUMP JUMPDEST PUSH2 0x85A JUMP JUMPDEST JUMPDEST PUSH2 0x5EB JUMPI PUSH1 0x40 MLOAD PUSH32 0x8C379A000000000000000000000000000000000000000000000000000000000 DUP2 MSTORE PUSH1 0x4 ADD PUSH2 0x5E2 SWAP1 PUSH2 0x3020 JUMP JUMPDEST PUSH1 0x40 MLOAD DUP1 SWAP2 SUB SWAP1 REVERT JUMPDEST PUSH2 0x5F8 DUP6 DUP6 DUP6 DUP6 DUP6 PUSH2 0xE99 JUMP JUMPDEST POP POP POP POP POP JUMP JUMPDEST PUSH1 0x60 DUP2 MLOAD DUP4 MLOAD EQ PUSH2 0x645 JUMPI PUSH1 0x40 MLOAD PUSH32 0x8C379A000000000000000000000000000000000000000000000000000000000 DUP2 MSTORE PUSH1 0x4 ADD PUSH2 0x63C SWAP1 PUSH2 0x30B2 JUMP JUMPDEST PUSH1 0x40 MLOAD DUP1 SWAP2 SUB SWAP1 REVERT JUMPDEST PUSH1 0x0 DUP4 MLOAD PUSH8 0xFFFFFFFFFFFFFFFF DUP2 GT ISZERO PUSH2 0x662 JUMPI PUSH2 0x661 PUSH2 0x25E0 JUMP JUMPDEST JUMPDEST PUSH1 0x40 MLOAD SWAP1 DUP1 DUP3 MSTORE DUP1 PUSH1 0x20 MUL PUSH1 0x20 ADD DUP3 ADD PUSH1 0x40 MSTORE DUP1 ISZERO PUSH2 0x690 JUMPI DUP2 PUSH1 0x20 ADD PUSH1 0x20 DUP3 MUL DUP1 CALLDATASIZE DUP4 CALLDATACOPY DUP1 DUP3 ADD SWAP2 POP POP SWAP1 POP JUMPDEST POP SWAP1 POP PUSH1 0x0 JUMPDEST DUP5 MLOAD DUP2 LT ISZERO PUSH2 0x70D JUMPI PUSH2 0x6DD DUP6 DUP3 DUP2 MLOAD DUP2 LT PUSH2 0x6B5 JUMPI PUSH2 0x6B4 PUSH2 0x30D2 JUMP JUMPDEST JUMPDEST PUSH1 0x20 MUL PUSH1 0x20 ADD ADD MLOAD DUP6 DUP4 DUP2 MLOAD DUP2 LT PUSH2 0x6D0 JUMPI PUSH2 0x6CF PUSH2 0x30D2 JUMP JUMPDEST JUMPDEST PUSH1 0x20 MUL PUSH1 0x20 ADD ADD MLOAD PUSH2 0x369 JUMP JUMPDEST DUP3 DUP3 DUP2 MLOAD DUP2 LT PUSH2 0x6F0 JUMPI PUSH2 0x6EF PUSH2 0x30D2 JUMP JUMPDEST JUMPDEST PUSH1 0x20 MUL PUSH1 0x20 ADD ADD DUP2 DUP2 MSTORE POP POP DUP1 PUSH2 0x706 SWAP1 PUSH2 0x3130 JUMP JUMPDEST SWAP1 POP PUSH2 0x696 JUMP JUMPDEST POP DUP1 SWAP2 POP POP SWAP3 SWAP2 POP POP JUMP JUMPDEST PUSH1 0x0 DUP1 PUSH2 0x724 DUP4 PUSH2 0x81D JUMP JUMPDEST GT SWAP1 POP SWAP2 SWAP1 POP JUMP JUMPDEST PUSH2 0x734 PUSH2 0xE91 JUMP JUMPDEST PUSH20 0xFFFFFFFFFFFFFFFFFFFFFFFFFFFFFFFFFFFFFFFF AND DUP4 PUSH20 0xFFFFFFFFFFFFFFFFFFFFFFFFFFFFFFFFFFFFFFFF AND EQ DUP1 PUSH2 0x77A JUMPI POP PUSH2 0x779 DUP4 PUSH2 0x774 PUSH2 0xE91 JUMP JUMPDEST PUSH2 0x85A JUMP JUMPDEST JUMPDEST PUSH2 0x7B9 JUMPI PUSH1 0x40 MLOAD PUSH32 0x8C379A000000000000000000000000000000000000000000000000000000000 DUP2 MSTORE PUSH1 0x4 ADD PUSH2 0x7B0 SWAP1 PUSH2 0x3020 JUMP JUMPDEST PUSH1 0x40 MLOAD DUP1 SWAP2 SUB SWAP1 REVERT JUMPDEST PUSH2 0x7C4 DUP4 DUP4 DUP4 PUSH2 0x11BA JUMP JUMPDEST POP POP POP JUMP JUMPDEST PUSH2 0x7D1 PUSH2 0xBE7 JUMP JUMPDEST PUSH2 0x7DB PUSH1 0x0 PUSH2 0x1488 JUMP JUMPDEST JUMP JUMPDEST PUSH1 0x0 PUSH1 0x3 PUSH1 0x0 SWAP1 SLOAD SWAP1 PUSH2 0x100 EXP SWAP1 DIV PUSH20 0xFFFFFFFFFFFFFFFFFFFFFFFFFFFFFFFFFFFFFFFF AND SWAP1 POP SWAP1 JUMP JUMPDEST PUSH2 0x819 PUSH2 0x812 PUSH2 0xE91 JUMP JUMPDEST DUP4 DUP4 PUSH2 0x154E JUMP JUMPDEST POP POP JUMP JUMPDEST PUSH1 0x0 PUSH1 0x4 PUSH1 0x0 DUP4 DUP2 MSTORE PUSH1 0x20 ADD SWAP1 DUP2 MSTORE PUSH1 0x20 ADD PUSH1 0x0 KECCAK256 SLOAD SWAP1 POP SWAP2 SWAP1 POP JUMP JUMPDEST PUSH1 0x60 PUSH1 0x40 MLOAD DUP1 PUSH1 0x80 ADD PUSH1 0x40 MSTORE DUP1 PUSH1 0x53 DUP2 MSTORE PUSH1 0x20 ADD PUSH2 0x3B06 PUSH1 0x53 SWAP2 CODECOPY SWAP1 POP SWAP1 JUMP JUMPDEST PUSH1 0x0 PUSH1 0x1 PUSH1 0x0 DUP5 PUSH20 0xFFFFFFFFFFFFFFFFFFFFFFFFFFFFFFFFFFFFFFFF AND PUSH20 0xFFFFFFFFFFFFFFFFFFFFFFFFFFFFFFFFFFFFFFFF AND DUP2 MSTORE PUSH1 0x20 ADD SWAP1 DUP2 MSTORE PUSH1 0x20 ADD PUSH1 0x0 KECCAK256 PUSH1 0x0 DUP4 PUSH20 0xFFFFFFFFFFFFFFFFFFFFFFFFFFFFFFFFFFFFFFFF AND PUSH20 0xFFFFFFFFFFFFFFFFFFFFFFFFFFFFFFFFFFFFFFFF AND DUP2 MSTORE PUSH1 0x20 ADD SWAP1 DUP2 MSTORE PUSH1 0x20 ADD PUSH1 0x0 KECCAK256 PUSH1 0x0 SWAP1 SLOAD SWAP1 PUSH2 0x100 EXP SWAP1 DIV PUSH1 0xFF AND SWAP1 POP SWAP3 SWAP2 POP POP JUMP JUMPDEST PUSH2 0x8F6 PUSH2 0xE91 JUMP JUMPDEST PUSH20 0xFFFFFFFFFFFFFFFFFFFFFFFFFFFFFFFFFFFFFFFF AND DUP6 PUSH20 0xFFFFFFFFFFFFFFFFFFFFFFFFFFFFFFFFFFFFFFFF AND EQ DUP1 PUSH2 0x93C JUMPI POP PUSH2 0x93B DUP6 PUSH2 0x936 PUSH2 0xE91 JUMP JUMPDEST PUSH2 0x85A JUMP JUMPDEST JUMPDEST PUSH2 0x97B JUMPI PUSH1 0x40 MLOAD PUSH32 0x8C379A000000000000000000000000000000000000000000000000000000000 DUP2 MSTORE PUSH1 0x4 ADD PUSH2 0x972 SWAP1 PUSH2 0x3020 JUMP JUMPDEST PUSH1 0x40 MLOAD DUP1 SWAP2 SUB SWAP1 REVERT JUMPDEST PUSH2 0x988 DUP6 DUP6 DUP6 DUP6 DUP6 PUSH2 0x16BA JUMP JUMPDEST POP POP POP POP POP JUMP JUMPDEST PUSH2 0x997 PUSH2 0xBE7 JUMP JUMPDEST PUSH1 0x0 PUSH20 0xFFFFFFFFFFFFFFFFFFFFFFFFFFFFFFFFFFFFFFFF AND DUP2 PUSH20 0xFFFFFFFFFFFFFFFFFFFFFFFFFFFFFFFFFFFFFFFF AND SUB PUSH2 0xA06 JUMPI PUSH1 0x40 MLOAD PUSH32 0x8C379A000000000000000000000000000000000000000000000000000000000 DUP2 MSTORE PUSH1 0x4 ADD PUSH2 0x9FD SWAP1 PUSH2 0x31EA JUMP JUMPDEST PUSH1 0x40 MLOAD DUP1 SWAP2 SUB SWAP1 REVERT JUMPDEST PUSH2 0xA0F DUP2 PUSH2 0x1488 JUMP JUMPDEST POP JUMP JUMPDEST PUSH2 0xA1A PUSH2 0xE91 JUMP JUMPDEST PUSH20 0xFFFFFFFFFFFFFFFFFFFFFFFFFFFFFFFFFFFFFFFF AND DUP4 PUSH20 0xFFFFFFFFFFFFFFFFFFFFFFFFFFFFFFFFFFFFFFFF AND EQ DUP1 PUSH2 0xA60 JUMPI POP PUSH2 0xA5F DUP4 PUSH2 0xA5A PUSH2 0xE91 JUMP JUMPDEST PUSH2 0x85A JUMP JUMPDEST JUMPDEST PUSH2 0xA9F JUMPI PUSH1 0x40 MLOAD PUSH32 0x8C379A000000000000000000000000000000000000000000000000000000000 DUP2 MSTORE PUSH1 0x4 ADD PUSH2 0xA96 SWAP1 PUSH2 0x3020 JUMP JUMPDEST PUSH1 0x40 MLOAD DUP1 SWAP2 SUB SWAP1 REVERT JUMPDEST PUSH2 0xAAA DUP4 DUP4 DUP4 PUSH2 0x1955 JUMP JUMPDEST POP POP POP JUMP JUMPDEST PUSH1 0x0 PUSH32 0x1FFC9A700000000000000000000000000000000000000000000000000000000 PUSH28 0xFFFFFFFFFFFFFFFFFFFFFFFFFFFFFFFFFFFFFFFFFFFFFFFFFFFFFFFF NOT AND DUP3 PUSH28 0xFFFFFFFFFFFFFFFFFFFFFFFFFFFFFFFFFFFFFFFFFFFFFFFFFFFFFFFF NOT AND EQ SWAP1 POP SWAP2 SWAP1 POP JUMP JUMPDEST PUSH1 0x60 PUSH1 0x0 PUSH1 0x1 PUSH2 0xB28 DUP5 PUSH2 0x1B9B JUMP JUMPDEST ADD SWAP1 POP PUSH1 0x0 DUP2 PUSH8 0xFFFFFFFFFFFFFFFF DUP2 GT ISZERO PUSH2 0xB47 JUMPI PUSH2 0xB46 PUSH2 0x25E0 JUMP JUMPDEST JUMPDEST PUSH1 0x40 MLOAD SWAP1 DUP1 DUP3 MSTORE DUP1 PUSH1 0x1F ADD PUSH1 0x1F NOT AND PUSH1 0x20 ADD DUP3 ADD PUSH1 0x40 MSTORE DUP1 ISZERO PUSH2 0xB79 JUMPI DUP2 PUSH1 0x20 ADD PUSH1 0x1 DUP3 MUL DUP1 CALLDATASIZE DUP4 CALLDATACOPY DUP1 DUP3 ADD SWAP2 POP POP SWAP1 POP JUMPDEST POP SWAP1 POP PUSH1 0x0 DUP3 PUSH1 0x20 ADD DUP3 ADD SWAP1 POP JUMPDEST PUSH1 0x1 ISZERO PUSH2 0xBDC JUMPI DUP1 DUP1 PUSH1 0x1 SWAP1 SUB SWAP2 POP POP PUSH32 0x3031323334353637383961626364656600000000000000000000000000000000 PUSH1 0xA DUP7 MOD BYTE DUP2 MSTORE8 PUSH1 0xA DUP6 DUP2 PUSH2 0xBD0 JUMPI PUSH2 0xBCF PUSH2 0x320A JUMP JUMPDEST JUMPDEST DIV SWAP5 POP PUSH1 0x0 DUP6 SUB PUSH2 0xB87 JUMPI JUMPDEST DUP2 SWAP4 POP POP POP POP SWAP2 SWAP1 POP JUMP JUMPDEST PUSH2 0xBEF PUSH2 0xE91 JUMP JUMPDEST PUSH20 0xFFFFFFFFFFFFFFFFFFFFFFFFFFFFFFFFFFFFFFFF AND PUSH2 0xC0D PUSH2 0x7DD JUMP JUMPDEST PUSH20 0xFFFFFFFFFFFFFFFFFFFFFFFFFFFFFFFFFFFFFFFF AND EQ PUSH2 0xC63 JUMPI PUSH1 0x40 MLOAD PUSH32 0x8C379A000000000000000000000000000000000000000000000000000000000 DUP2 MSTORE PUSH1 0x4 ADD PUSH2 0xC5A SWAP1 PUSH2 0x3285 JUMP JUMPDEST PUSH1 0x40 MLOAD DUP1 SWAP2 SUB SWAP1 REVERT JUMPDEST JUMP JUMPDEST PUSH1 0x0 PUSH20 0xFFFFFFFFFFFFFFFFFFFFFFFFFFFFFFFFFFFFFFFF AND DUP5 PUSH20 0xFFFFFFFFFFFFFFFFFFFFFFFFFFFFFFFFFFFFFFFF AND SUB PUSH2 0xCD4 JUMPI PUSH1 0x40 MLOAD PUSH32 0x8C379A000000000000000000000000000000000000000000000000000000000 DUP2 MSTORE PUSH1 0x4 ADD PUSH2 0xCCB SWAP1 PUSH2 0x3317 JUMP JUMPDEST PUSH1 0x40 MLOAD DUP1 SWAP2 SUB SWAP1 REVERT JUMPDEST DUP2 MLOAD DUP4 MLOAD EQ PUSH2 0xD18 JUMPI PUSH1 0x40 MLOAD PUSH32 0x8C379A000000000000000000000000000000000000000000000000000000000 DUP2 MSTORE PUSH1 0x4 ADD PUSH2 0xD0F SWAP1 PUSH2 0x33A9 JUMP JUMPDEST PUSH1 0x40 MLOAD DUP1 SWAP2 SUB SWAP1 REVERT JUMPDEST PUSH1 0x0 PUSH2 0xD22 PUSH2 0xE91 JUMP JUMPDEST SWAP1 POP PUSH2 0xD33 DUP2 PUSH1 0x0 DUP8 DUP8 DUP8 DUP8 PUSH2 0x1CEE JUMP JUMPDEST PUSH1 0x0 JUMPDEST DUP5 MLOAD DUP2 LT ISZERO PUSH2 0xDEC JUMPI DUP4 DUP2 DUP2 MLOAD DUP2 LT PUSH2 0xD52 JUMPI PUSH2 0xD51 PUSH2 0x30D2 JUMP JUMPDEST JUMPDEST PUSH1 0x20 MUL PUSH1 0x20 ADD ADD MLOAD PUSH1 0x0 DUP1 DUP8 DUP5 DUP2 MLOAD DUP2 LT PUSH2 0xD70 JUMPI PUSH2 0xD6F PUSH2 0x30D2 JUMP JUMPDEST JUMPDEST PUSH1 0x20 MUL PUSH1 0x20 ADD ADD MLOAD DUP2 MSTORE PUSH1 0x20 ADD SWAP1 DUP2 MSTORE PUSH1 0x20 ADD PUSH1 0x0 KECCAK256 PUSH1 0x0 DUP9 PUSH20 0xFFFFFFFFFFFFFFFFFFFFFFFFFFFFFFFFFFFFFFFF AND PUSH20 0xFFFFFFFFFFFFFFFFFFFFFFFFFFFFFFFFFFFFFFFF AND DUP2 MSTORE PUSH1 0x20 ADD SWAP1 DUP2 MSTORE PUSH1 0x20 ADD PUSH1 0x0 KECCAK256 PUSH1 0x0 DUP3 DUP3 SLOAD PUSH2 0xDD2 SWAP2 SWAP1 PUSH2 0x33C9 JUMP JUMPDEST SWAP3 POP POP DUP2 SWAP1 SSTORE POP DUP1 DUP1 PUSH2 0xDE4 SWAP1 PUSH2 0x3130 JUMP JUMPDEST SWAP2 POP POP PUSH2 0xD36 JUMP JUMPDEST POP DUP5 PUSH20 0xFFFFFFFFFFFFFFFFFFFFFFFFFFFFFFFFFFFFFFFF AND PUSH1 0x0 PUSH20 0xFFFFFFFFFFFFFFFFFFFFFFFFFFFFFFFFFFFFFFFF AND DUP3 PUSH20 0xFFFFFFFFFFFFFFFFFFFFFFFFFFFFFFFFFFFFFFFF AND PUSH32 0x4A39DC06D4C0DBC64B70AF90FD698A233A518AA5D07E595D983B8C0526C8F7FB DUP8 DUP8 PUSH1 0x40 MLOAD PUSH2 0xE64 SWAP3 SWAP2 SWAP1 PUSH2 0x33FD JUMP JUMPDEST PUSH1 0x40 MLOAD DUP1 SWAP2 SUB SWAP1 LOG4 PUSH2 0xE7B DUP2 PUSH1 0x0 DUP8 DUP8 DUP8 DUP8 PUSH2 0x1D04 JUMP JUMPDEST PUSH2 0xE8A DUP2 PUSH1 0x0 DUP8 DUP8 DUP8 DUP8 PUSH2 0x1D0C JUMP JUMPDEST POP POP POP POP POP JUMP JUMPDEST PUSH1 0x0 CALLER SWAP1 POP SWAP1 JUMP JUMPDEST DUP2 MLOAD DUP4 MLOAD EQ PUSH2 0xEDD JUMPI PUSH1 0x40 MLOAD PUSH32 0x8C379A000000000000000000000000000000000000000000000000000000000 DUP2 MSTORE PUSH1 0x4 ADD PUSH2 0xED4 SWAP1 PUSH2 0x33A9 JUMP JUMPDEST PUSH1 0x40 MLOAD DUP1 SWAP2 SUB SWAP1 REVERT JUMPDEST PUSH1 0x0 PUSH20 0xFFFFFFFFFFFFFFFFFFFFFFFFFFFFFFFFFFFFFFFF AND DUP5 PUSH20 0xFFFFFFFFFFFFFFFFFFFFFFFFFFFFFFFFFFFFFFFF AND SUB PUSH2 0xF4C JUMPI PUSH1 0x40 MLOAD PUSH32 0x8C379A000000000000000000000000000000000000000000000000000000000 DUP2 MSTORE PUSH1 0x4 ADD PUSH2 0xF43 SWAP1 PUSH2 0x34A6 JUMP JUMPDEST PUSH1 0x40 MLOAD DUP1 SWAP2 SUB SWAP1 REVERT JUMPDEST PUSH1 0x0 PUSH2 0xF56 PUSH2 0xE91 JUMP JUMPDEST SWAP1 POP PUSH2 0xF66 DUP2 DUP8 DUP8 DUP8 DUP8 DUP8 PUSH2 0x1CEE JUMP JUMPDEST PUSH1 0x0 JUMPDEST DUP5 MLOAD DUP2 LT ISZERO PUSH2 0x1117 JUMPI PUSH1 0x0 DUP6 DUP3 DUP2 MLOAD DUP2 LT PUSH2 0xF87 JUMPI PUSH2 0xF86 PUSH2 0x30D2 JUMP JUMPDEST JUMPDEST PUSH1 0x20 MUL PUSH1 0x20 ADD ADD MLOAD SWAP1 POP PUSH1 0x0 DUP6 DUP4 DUP2 MLOAD DUP2 LT PUSH2 0xFA6 JUMPI PUSH2 0xFA5 PUSH2 0x30D2 JUMP JUMPDEST JUMPDEST PUSH1 0x20 MUL PUSH1 0x20 ADD ADD MLOAD SWAP1 POP PUSH1 0x0 DUP1 PUSH1 0x0 DUP5 DUP2 MSTORE PUSH1 0x20 ADD SWAP1 DUP2 MSTORE PUSH1 0x20 ADD PUSH1 0x0 KECCAK256 PUSH1 0x0 DUP12 PUSH20 0xFFFFFFFFFFFFFFFFFFFFFFFFFFFFFFFFFFFFFFFF AND PUSH20 0xFFFFFFFFFFFFFFFFFFFFFFFFFFFFFFFFFFFFFFFF AND DUP2 MSTORE PUSH1 0x20 ADD SWAP1 DUP2 MSTORE PUSH1 0x20 ADD PUSH1 0x0 KECCAK256 SLOAD SWAP1 POP DUP2 DUP2 LT ISZERO PUSH2 0x1047 JUMPI PUSH1 0x40 MLOAD PUSH32 0x8C379A000000000000000000000000000000000000000000000000000000000 DUP2 MSTORE PUSH1 0x4 ADD PUSH2 0x103E SWAP1 PUSH2 0x3538 JUMP JUMPDEST PUSH1 0x40 MLOAD DUP1 SWAP2 SUB SWAP1 REVERT JUMPDEST DUP2 DUP2 SUB PUSH1 0x0 DUP1 DUP6 DUP2 MSTORE PUSH1 0x20 ADD SWAP1 DUP2 MSTORE PUSH1 0x20 ADD PUSH1 0x0 KECCAK256 PUSH1 0x0 DUP13 PUSH20 0xFFFFFFFFFFFFFFFFFFFFFFFFFFFFFFFFFFFFFFFF AND PUSH20 0xFFFFFFFFFFFFFFFFFFFFFFFFFFFFFFFFFFFFFFFF AND DUP2 MSTORE PUSH1 0x20 ADD SWAP1 DUP2 MSTORE PUSH1 0x20 ADD PUSH1 0x0 KECCAK256 DUP2 SWAP1 SSTORE POP DUP2 PUSH1 0x0 DUP1 DUP6 DUP2 MSTORE PUSH1 0x20 ADD SWAP1 DUP2 MSTORE PUSH1 0x20 ADD PUSH1 0x0 KECCAK256 PUSH1 0x0 DUP12 PUSH20 0xFFFFFFFFFFFFFFFFFFFFFFFFFFFFFFFFFFFFFFFF AND PUSH20 0xFFFFFFFFFFFFFFFFFFFFFFFFFFFFFFFFFFFFFFFF AND DUP2 MSTORE PUSH1 0x20 ADD SWAP1 DUP2 MSTORE PUSH1 0x20 ADD PUSH1 0x0 KECCAK256 PUSH1 0x0 DUP3 DUP3 SLOAD PUSH2 0x10FC SWAP2 SWAP1 PUSH2 0x33C9 JUMP JUMPDEST SWAP3 POP POP DUP2 SWAP1 SSTORE POP POP POP POP DUP1 PUSH2 0x1110 SWAP1 PUSH2 0x3130 JUMP JUMPDEST SWAP1 POP PUSH2 0xF69 JUMP JUMPDEST POP DUP5 PUSH20 0xFFFFFFFFFFFFFFFFFFFFFFFFFFFFFFFFFFFFFFFF AND DUP7 PUSH20 0xFFFFFFFFFFFFFFFFFFFFFFFFFFFFFFFFFFFFFFFF AND DUP3 PUSH20 0xFFFFFFFFFFFFFFFFFFFFFFFFFFFFFFFFFFFFFFFF AND PUSH32 0x4A39DC06D4C0DBC64B70AF90FD698A233A518AA5D07E595D983B8C0526C8F7FB DUP8 DUP8 PUSH1 0x40 MLOAD PUSH2 0x118E SWAP3 SWAP2 SWAP1 PUSH2 0x33FD JUMP JUMPDEST PUSH1 0x40 MLOAD DUP1 SWAP2 SUB SWAP1 LOG4 PUSH2 0x11A4 DUP2 DUP8 DUP8 DUP8 DUP8 DUP8 PUSH2 0x1D04 JUMP JUMPDEST PUSH2 0x11B2 DUP2 DUP8 DUP8 DUP8 DUP8 DUP8 PUSH2 0x1D0C JUMP JUMPDEST POP POP POP POP POP POP JUMP JUMPDEST PUSH1 0x0 PUSH20 0xFFFFFFFFFFFFFFFFFFFFFFFFFFFFFFFFFFFFFFFF AND DUP4 PUSH20 0xFFFFFFFFFFFFFFFFFFFFFFFFFFFFFFFFFFFFFFFF AND SUB PUSH2 0x1229 JUMPI PUSH1 0x40 MLOAD PUSH32 0x8C379A000000000000000000000000000000000000000000000000000000000 DUP2 MSTORE PUSH1 0x4 ADD PUSH2 0x1220 SWAP1 PUSH2 0x35CA JUMP JUMPDEST PUSH1 0x40 MLOAD DUP1 SWAP2 SUB SWAP1 REVERT JUMPDEST DUP1 MLOAD DUP3 MLOAD EQ PUSH2 0x126D JUMPI PUSH1 0x40 MLOAD PUSH32 0x8C379A000000000000000000000000000000000000000000000000000000000 DUP2 MSTORE PUSH1 0x4 ADD PUSH2 0x1264 SWAP1 PUSH2 0x33A9 JUMP JUMPDEST PUSH1 0x40 MLOAD DUP1 SWAP2 SUB SWAP1 REVERT JUMPDEST PUSH1 0x0 PUSH2 0x1277 PUSH2 0xE91 JUMP JUMPDEST SWAP1 POP PUSH2 0x1297 DUP2 DUP6 PUSH1 0x0 DUP7 DUP7 PUSH1 0x40 MLOAD DUP1 PUSH1 0x20 ADD PUSH1 0x40 MSTORE DUP1 PUSH1 0x0 DUP2 MSTORE POP PUSH2 0x1CEE JUMP JUMPDEST PUSH1 0x0 JUMPDEST DUP4 MLOAD DUP2 LT ISZERO PUSH2 0x13E4 JUMPI PUSH1 0x0 DUP5 DUP3 DUP2 MLOAD DUP2 LT PUSH2 0x12B8 JUMPI PUSH2 0x12B7 PUSH2 0x30D2 JUMP JUMPDEST JUMPDEST PUSH1 0x20 MUL PUSH1 0x20 ADD ADD MLOAD SWAP1 POP PUSH1 0x0 DUP5 DUP4 DUP2 MLOAD DUP2 LT PUSH2 0x12D7 JUMPI PUSH2 0x12D6 PUSH2 0x30D2 JUMP JUMPDEST JUMPDEST PUSH1 0x20 MUL PUSH1 0x20 ADD ADD MLOAD SWAP1 POP PUSH1 0x0 DUP1 PUSH1 0x0 DUP5 DUP2 MSTORE PUSH1 0x20 ADD SWAP1 DUP2 MSTORE PUSH1 0x20 ADD PUSH1 0x0 KECCAK256 PUSH1 0x0 DUP10 PUSH20 0xFFFFFFFFFFFFFFFFFFFFFFFFFFFFFFFFFFFFFFFF AND PUSH20 0xFFFFFFFFFFFFFFFFFFFFFFFFFFFFFFFFFFFFFFFF AND DUP2 MSTORE PUSH1 0x20 ADD SWAP1 DUP2 MSTORE PUSH1 0x20 ADD PUSH1 0x0 KECCAK256 SLOAD SWAP1 POP DUP2 DUP2 LT ISZERO PUSH2 0x1378 JUMPI PUSH1 0x40 MLOAD PUSH32 0x8C379A000000000000000000000000000000000000000000000000000000000 DUP2 MSTORE PUSH1 0x4 ADD PUSH2 0x136F SWAP1 PUSH2 0x365C JUMP JUMPDEST PUSH1 0x40 MLOAD DUP1 SWAP2 SUB SWAP1 REVERT JUMPDEST DUP2 DUP2 SUB PUSH1 0x0 DUP1 DUP6 DUP2 MSTORE PUSH1 0x20 ADD SWAP1 DUP2 MSTORE PUSH1 0x20 ADD PUSH1 0x0 KECCAK256 PUSH1 0x0 DUP11 PUSH20 0xFFFFFFFFFFFFFFFFFFFFFFFFFFFFFFFFFFFFFFFF AND PUSH20 0xFFFFFFFFFFFFFFFFFFFFFFFFFFFFFFFFFFFFFFFF AND DUP2 MSTORE PUSH1 0x20 ADD SWAP1 DUP2 MSTORE PUSH1 0x20 ADD PUSH1 0x0 KECCAK256 DUP2 SWAP1 SSTORE POP POP POP POP DUP1 DUP1 PUSH2 0x13DC SWAP1 PUSH2 0x3130 JUMP JUMPDEST SWAP2 POP POP PUSH2 0x129A JUMP JUMPDEST POP PUSH1 0x0 PUSH20 0xFFFFFFFFFFFFFFFFFFFFFFFFFFFFFFFFFFFFFFFF AND DUP5 PUSH20 0xFFFFFFFFFFFFFFFFFFFFFFFFFFFFFFFFFFFFFFFF AND DUP3 PUSH20 0xFFFFFFFFFFFFFFFFFFFFFFFFFFFFFFFFFFFFFFFF AND PUSH32 0x4A39DC06D4C0DBC64B70AF90FD698A233A518AA5D07E595D983B8C0526C8F7FB DUP7 DUP7 PUSH1 0x40 MLOAD PUSH2 0x145C SWAP3 SWAP2 SWAP1 PUSH2 0x33FD JUMP JUMPDEST PUSH1 0x40 MLOAD DUP1 SWAP2 SUB SWAP1 LOG4 PUSH2 0x1482 DUP2 DUP6 PUSH1 0x0 DUP7 DUP7 PUSH1 0x40 MLOAD DUP1 PUSH1 0x20 ADD PUSH1 0x40 MSTORE DUP1 PUSH1 0x0 DUP2 MSTORE POP PUSH2 0x1D04 JUMP JUMPDEST POP POP POP POP JUMP JUMPDEST PUSH1 0x0 PUSH1 0x3 PUSH1 0x0 SWAP1 SLOAD SWAP1 PUSH2 0x100 EXP SWAP1 DIV PUSH20 0xFFFFFFFFFFFFFFFFFFFFFFFFFFFFFFFFFFFFFFFF AND SWAP1 POP DUP2 PUSH1 0x3 PUSH1 0x0 PUSH2 0x100 EXP DUP2 SLOAD DUP2 PUSH20 0xFFFFFFFFFFFFFFFFFFFFFFFFFFFFFFFFFFFFFFFF MUL NOT AND SWAP1 DUP4 PUSH20 0xFFFFFFFFFFFFFFFFFFFFFFFFFFFFFFFFFFFFFFFF AND MUL OR SWAP1 SSTORE POP DUP2 PUSH20 0xFFFFFFFFFFFFFFFFFFFFFFFFFFFFFFFFFFFFFFFF AND DUP2 PUSH20 0xFFFFFFFFFFFFFFFFFFFFFFFFFFFFFFFFFFFFFFFF AND PUSH32 0x8BE0079C531659141344CD1FD0A4F28419497F9722A3DAAFE3B4186F6B6457E0 PUSH1 0x40 MLOAD PUSH1 0x40 MLOAD DUP1 SWAP2 SUB SWAP1 LOG3 POP POP JUMP JUMPDEST DUP2 PUSH20 0xFFFFFFFFFFFFFFFFFFFFFFFFFFFFFFFFFFFFFFFF AND DUP4 PUSH20 0xFFFFFFFFFFFFFFFFFFFFFFFFFFFFFFFFFFFFFFFF AND SUB PUSH2 0x15BC JUMPI PUSH1 0x40 MLOAD PUSH32 0x8C379A000000000000000000000000000000000000000000000000000000000 DUP2 MSTORE PUSH1 0x4 ADD PUSH2 0x15B3 SWAP1 PUSH2 0x36EE JUMP JUMPDEST PUSH1 0x40 MLOAD DUP1 SWAP2 SUB SWAP1 REVERT JUMPDEST DUP1 PUSH1 0x1 PUSH1 0x0 DUP6 PUSH20 0xFFFFFFFFFFFFFFFFFFFFFFFFFFFFFFFFFFFFFFFF AND PUSH20 0xFFFFFFFFFFFFFFFFFFFFFFFFFFFFFFFFFFFFFFFF AND DUP2 MSTORE PUSH1 0x20 ADD SWAP1 DUP2 MSTORE PUSH1 0x20 ADD PUSH1 0x0 KECCAK256 PUSH1 0x0 DUP5 PUSH20 0xFFFFFFFFFFFFFFFFFFFFFFFFFFFFFFFFFFFFFFFF AND PUSH20 0xFFFFFFFFFFFFFFFFFFFFFFFFFFFFFFFFFFFFFFFF AND DUP2 MSTORE PUSH1 0x20 ADD SWAP1 DUP2 MSTORE PUSH1 0x20 ADD PUSH1 0x0 KECCAK256 PUSH1 0x0 PUSH2 0x100 EXP DUP2 SLOAD DUP2 PUSH1 0xFF MUL NOT AND SWAP1 DUP4 ISZERO ISZERO MUL OR SWAP1 SSTORE POP DUP2 PUSH20 0xFFFFFFFFFFFFFFFFFFFFFFFFFFFFFFFFFFFFFFFF AND DUP4 PUSH20 0xFFFFFFFFFFFFFFFFFFFFFFFFFFFFFFFFFFFFFFFF AND PUSH32 0x17307EAB39AB6107E8899845AD3D59BD9653F200F220920489CA2B5937696C31 DUP4 PUSH1 0x40 MLOAD PUSH2 0x16AD SWAP2 SWAP1 PUSH2 0x24E1 JUMP JUMPDEST PUSH1 0x40 MLOAD DUP1 SWAP2 SUB SWAP1 LOG3 POP POP POP JUMP JUMPDEST PUSH1 0x0 PUSH20 0xFFFFFFFFFFFFFFFFFFFFFFFFFFFFFFFFFFFFFFFF AND DUP5 PUSH20 0xFFFFFFFFFFFFFFFFFFFFFFFFFFFFFFFFFFFFFFFF AND SUB PUSH2 0x1729 JUMPI PUSH1 0x40 MLOAD PUSH32 0x8C379A000000000000000000000000000000000000000000000000000000000 DUP2 MSTORE PUSH1 0x4 ADD PUSH2 0x1720 SWAP1 PUSH2 0x34A6 JUMP JUMPDEST PUSH1 0x40 MLOAD DUP1 SWAP2 SUB SWAP1 REVERT JUMPDEST PUSH1 0x0 PUSH2 0x1733 PUSH2 0xE91 JUMP JUMPDEST SWAP1 POP PUSH1 0x0 PUSH2 0x1740 DUP6 PUSH2 0x1EE3 JUMP JUMPDEST SWAP1 POP PUSH1 0x0 PUSH2 0x174D DUP6 PUSH2 0x1EE3 JUMP JUMPDEST SWAP1 POP PUSH2 0x175D DUP4 DUP10 DUP10 DUP6 DUP6 DUP10 PUSH2 0x1CEE JUMP JUMPDEST PUSH1 0x0 DUP1 PUSH1 0x0 DUP9 DUP2 MSTORE PUSH1 0x20 ADD SWAP1 DUP2 MSTORE PUSH1 0x20 ADD PUSH1 0x0 KECCAK256 PUSH1 0x0 DUP11 PUSH20 0xFFFFFFFFFFFFFFFFFFFFFFFFFFFFFFFFFFFFFFFF AND PUSH20 0xFFFFFFFFFFFFFFFFFFFFFFFFFFFFFFFFFFFFFFFF AND DUP2 MSTORE PUSH1 0x20 ADD SWAP1 DUP2 MSTORE PUSH1 0x20 ADD PUSH1 0x0 KECCAK256 SLOAD SWAP1 POP DUP6 DUP2 LT ISZERO PUSH2 0x17F4 JUMPI PUSH1 0x40 MLOAD PUSH32 0x8C379A000000000000000000000000000000000000000000000000000000000 DUP2 MSTORE PUSH1 0x4 ADD PUSH2 0x17EB SWAP1 PUSH2 0x3538 JUMP JUMPDEST PUSH1 0x40 MLOAD DUP1 SWAP2 SUB SWAP1 REVERT JUMPDEST DUP6 DUP2 SUB PUSH1 0x0 DUP1 DUP10 DUP2 MSTORE PUSH1 0x20 ADD SWAP1 DUP2 MSTORE PUSH1 0x20 ADD PUSH1 0x0 KECCAK256 PUSH1 0x0 DUP12 PUSH20 0xFFFFFFFFFFFFFFFFFFFFFFFFFFFFFFFFFFFFFFFF AND PUSH20 0xFFFFFFFFFFFFFFFFFFFFFFFFFFFFFFFFFFFFFFFF AND DUP2 MSTORE PUSH1 0x20 ADD SWAP1 DUP2 MSTORE PUSH1 0x20 ADD PUSH1 0x0 KECCAK256 DUP2 SWAP1 SSTORE POP DUP6 PUSH1 0x0 DUP1 DUP10 DUP2 MSTORE PUSH1 0x20 ADD SWAP1 DUP2 MSTORE PUSH1 0x20 ADD PUSH1 0x0 KECCAK256 PUSH1 0x0 DUP11 PUSH20 0xFFFFFFFFFFFFFFFFFFFFFFFFFFFFFFFFFFFFFFFF AND PUSH20 0xFFFFFFFFFFFFFFFFFFFFFFFFFFFFFFFFFFFFFFFF AND DUP2 MSTORE PUSH1 0x20 ADD SWAP1 DUP2 MSTORE PUSH1 0x20 ADD PUSH1 0x0 KECCAK256 PUSH1 0x0 DUP3 DUP3 SLOAD PUSH2 0x18A9 SWAP2 SWAP1 PUSH2 0x33C9 JUMP JUMPDEST SWAP3 POP POP DUP2 SWAP1 SSTORE POP DUP8 PUSH20 0xFFFFFFFFFFFFFFFFFFFFFFFFFFFFFFFFFFFFFFFF AND DUP10 PUSH20 0xFFFFFFFFFFFFFFFFFFFFFFFFFFFFFFFFFFFFFFFF AND DUP6 PUSH20 0xFFFFFFFFFFFFFFFFFFFFFFFFFFFFFFFFFFFFFFFF AND PUSH32 0xC3D58168C5AE7397731D063D5BBF3D657854427343F4C083240F7AACAA2D0F62 DUP11 DUP11 PUSH1 0x40 MLOAD PUSH2 0x1926 SWAP3 SWAP2 SWAP1 PUSH2 0x370E JUMP JUMPDEST PUSH1 0x40 MLOAD DUP1 SWAP2 SUB SWAP1 LOG4 PUSH2 0x193C DUP5 DUP11 DUP11 DUP7 DUP7 DUP11 PUSH2 0x1D04 JUMP JUMPDEST PUSH2 0x194A DUP5 DUP11 DUP11 DUP11 DUP11 DUP11 PUSH2 0x1F5D JUMP JUMPDEST POP POP POP POP POP POP POP POP POP JUMP JUMPDEST PUSH1 0x0 PUSH20 0xFFFFFFFFFFFFFFFFFFFFFFFFFFFFFFFFFFFFFFFF AND DUP4 PUSH20 0xFFFFFFFFFFFFFFFFFFFFFFFFFFFFFFFFFFFFFFFF AND SUB PUSH2 0x19C4 JUMPI PUSH1 0x40 MLOAD PUSH32 0x8C379A000000000000000000000000000000000000000000000000000000000 DUP2 MSTORE PUSH1 0x4 ADD PUSH2 0x19BB SWAP1 PUSH2 0x35CA JUMP JUMPDEST PUSH1 0x40 MLOAD DUP1 SWAP2 SUB SWAP1 REVERT JUMPDEST PUSH1 0x0 PUSH2 0x19CE PUSH2 0xE91 JUMP JUMPDEST SWAP1 POP PUSH1 0x0 PUSH2 0x19DB DUP5 PUSH2 0x1EE3 JUMP JUMPDEST SWAP1 POP PUSH1 0x0 PUSH2 0x19E8 DUP5 PUSH2 0x1EE3 JUMP JUMPDEST SWAP1 POP PUSH2 0x1A08 DUP4 DUP8 PUSH1 0x0 DUP6 DUP6 PUSH1 0x40 MLOAD DUP1 PUSH1 0x20 ADD PUSH1 0x40 MSTORE DUP1 PUSH1 0x0 DUP2 MSTORE POP PUSH2 0x1CEE JUMP JUMPDEST PUSH1 0x0 DUP1 PUSH1 0x0 DUP8 DUP2 MSTORE PUSH1 0x20 ADD SWAP1 DUP2 MSTORE PUSH1 0x20 ADD PUSH1 0x0 KECCAK256 PUSH1 0x0 DUP9 PUSH20 0xFFFFFFFFFFFFFFFFFFFFFFFFFFFFFFFFFFFFFFFF AND PUSH20 0xFFFFFFFFFFFFFFFFFFFFFFFFFFFFFFFFFFFFFFFF AND DUP2 MSTORE PUSH1 0x20 ADD SWAP1 DUP2 MSTORE PUSH1 0x20 ADD PUSH1 0x0 KECCAK256 SLOAD SWAP1 POP DUP5 DUP2 LT ISZERO PUSH2 0x1A9F JUMPI PUSH1 0x40 MLOAD PUSH32 0x8C379A000000000000000000000000000000000000000000000000000000000 DUP2 MSTORE PUSH1 0x4 ADD PUSH2 0x1A96 SWAP1 PUSH2 0x365C JUMP JUMPDEST PUSH1 0x40 MLOAD DUP1 SWAP2 SUB SWAP1 REVERT JUMPDEST DUP5 DUP2 SUB PUSH1 0x0 DUP1 DUP9 DUP2 MSTORE PUSH1 0x20 ADD SWAP1 DUP2 MSTORE PUSH1 0x20 ADD PUSH1 0x0 KECCAK256 PUSH1 0x0 DUP10 PUSH20 0xFFFFFFFFFFFFFFFFFFFFFFFFFFFFFFFFFFFFFFFF AND PUSH20 0xFFFFFFFFFFFFFFFFFFFFFFFFFFFFFFFFFFFFFFFF AND DUP2 MSTORE PUSH1 0x20 ADD SWAP1 DUP2 MSTORE PUSH1 0x20 ADD PUSH1 0x0 KECCAK256 DUP2 SWAP1 SSTORE POP PUSH1 0x0 PUSH20 0xFFFFFFFFFFFFFFFFFFFFFFFFFFFFFFFFFFFFFFFF AND DUP8 PUSH20 0xFFFFFFFFFFFFFFFFFFFFFFFFFFFFFFFFFFFFFFFF AND DUP6 PUSH20 0xFFFFFFFFFFFFFFFFFFFFFFFFFFFFFFFFFFFFFFFF AND PUSH32 0xC3D58168C5AE7397731D063D5BBF3D657854427343F4C083240F7AACAA2D0F62 DUP10 DUP10 PUSH1 0x40 MLOAD PUSH2 0x1B6C SWAP3 SWAP2 SWAP1 PUSH2 0x370E JUMP JUMPDEST PUSH1 0x40 MLOAD DUP1 SWAP2 SUB SWAP1 LOG4 PUSH2 0x1B92 DUP5 DUP9 PUSH1 0x0 DUP7 DUP7 PUSH1 0x40 MLOAD DUP1 PUSH1 0x20 ADD PUSH1 0x40 MSTORE DUP1 PUSH1 0x0 DUP2 MSTORE POP PUSH2 0x1D04 JUMP JUMPDEST POP POP POP POP POP POP POP JUMP JUMPDEST PUSH1 0x0 DUP1 PUSH1 0x0 SWAP1 POP PUSH27 0x184F03E93FF9F4DAA797ED6E38ED64BF6A1F010000000000000000 DUP4 LT PUSH2 0x1BF9 JUMPI PUSH27 0x184F03E93FF9F4DAA797ED6E38ED64BF6A1F010000000000000000 DUP4 DUP2 PUSH2 0x1BEF JUMPI PUSH2 0x1BEE PUSH2 0x320A JUMP JUMPDEST JUMPDEST DIV SWAP3 POP PUSH1 0x40 DUP2 ADD SWAP1 POP JUMPDEST PUSH14 0x4EE2D6D415B85ACEF8100000000 DUP4 LT PUSH2 0x1C36 JUMPI PUSH14 0x4EE2D6D415B85ACEF8100000000 DUP4 DUP2 PUSH2 0x1C2C JUMPI PUSH2 0x1C2B PUSH2 0x320A JUMP JUMPDEST JUMPDEST DIV SWAP3 POP PUSH1 0x20 DUP2 ADD SWAP1 POP JUMPDEST PUSH7 0x2386F26FC10000 DUP4 LT PUSH2 0x1C65 JUMPI PUSH7 0x2386F26FC10000 DUP4 DUP2 PUSH2 0x1C5B JUMPI PUSH2 0x1C5A PUSH2 0x320A JUMP JUMPDEST JUMPDEST DIV SWAP3 POP PUSH1 0x10 DUP2 ADD SWAP1 POP JUMPDEST PUSH4 0x5F5E100 DUP4 LT PUSH2 0x1C8E JUMPI PUSH4 0x5F5E100 DUP4 DUP2 PUSH2 0x1C84 JUMPI PUSH2 0x1C83 PUSH2 0x320A JUMP JUMPDEST JUMPDEST DIV SWAP3 POP PUSH1 0x8 DUP2 ADD SWAP1 POP JUMPDEST PUSH2 0x2710 DUP4 LT PUSH2 0x1CB3 JUMPI PUSH2 0x2710 DUP4 DUP2 PUSH2 0x1CA9 JUMPI PUSH2 0x1CA8 PUSH2 0x320A JUMP JUMPDEST JUMPDEST DIV SWAP3 POP PUSH1 0x4 DUP2 ADD SWAP1 POP JUMPDEST PUSH1 0x64 DUP4 LT PUSH2 0x1CD6 JUMPI PUSH1 0x64 DUP4 DUP2 PUSH2 0x1CCC JUMPI PUSH2 0x1CCB PUSH2 0x320A JUMP JUMPDEST JUMPDEST DIV SWAP3 POP PUSH1 0x2 DUP2 ADD SWAP1 POP JUMPDEST PUSH1 0xA DUP4 LT PUSH2 0x1CE5 JUMPI PUSH1 0x1 DUP2 ADD SWAP1 POP JUMPDEST DUP1 SWAP2 POP POP SWAP2 SWAP1 POP JUMP JUMPDEST PUSH2 0x1CFC DUP7 DUP7 DUP7 DUP7 DUP7 DUP7 PUSH2 0x2134 JUMP JUMPDEST POP POP POP POP POP POP JUMP JUMPDEST POP POP POP POP POP POP JUMP JUMPDEST PUSH2 0x1D2B DUP5 PUSH20 0xFFFFFFFFFFFFFFFFFFFFFFFFFFFFFFFFFFFFFFFF AND PUSH2 0x2304 JUMP JUMPDEST ISZERO PUSH2 0x1EDB JUMPI DUP4 PUSH20 0xFFFFFFFFFFFFFFFFFFFFFFFFFFFFFFFFFFFFFFFF AND PUSH4 0xBC197C81 DUP8 DUP8 DUP7 DUP7 DUP7 PUSH1 0x40 MLOAD DUP7 PUSH4 0xFFFFFFFF AND PUSH1 0xE0 SHL DUP2 MSTORE PUSH1 0x4 ADD PUSH2 0x1D71 SWAP6 SWAP5 SWAP4 SWAP3 SWAP2 SWAP1 PUSH2 0x378C JUMP JUMPDEST PUSH1 0x20 PUSH1 0x40 MLOAD DUP1 DUP4 SUB DUP2 PUSH1 0x0 DUP8 GAS CALL SWAP3 POP POP POP DUP1 ISZERO PUSH2 0x1DAD JUMPI POP PUSH1 0x40 MLOAD RETURNDATASIZE PUSH1 0x1F NOT PUSH1 0x1F DUP3 ADD AND DUP3 ADD DUP1 PUSH1 0x40 MSTORE POP DUP2 ADD SWAP1 PUSH2 0x1DAA SWAP2 SWAP1 PUSH2 0x3809 JUMP JUMPDEST PUSH1 0x1 JUMPDEST PUSH2 0x1E52 JUMPI PUSH2 0x1DB9 PUSH2 0x3843 JUMP JUMPDEST DUP1 PUSH4 0x8C379A0 SUB PUSH2 0x1E15 JUMPI POP PUSH2 0x1DCD PUSH2 0x3865 JUMP JUMPDEST DUP1 PUSH2 0x1DD8 JUMPI POP PUSH2 0x1E17 JUMP JUMPDEST DUP1 PUSH1 0x40 MLOAD PUSH32 0x8C379A000000000000000000000000000000000000000000000000000000000 DUP2 MSTORE PUSH1 0x4 ADD PUSH2 0x1E0C SWAP2 SWAP1 PUSH2 0x25B9 JUMP JUMPDEST PUSH1 0x40 MLOAD DUP1 SWAP2 SUB SWAP1 REVERT JUMPDEST POP JUMPDEST PUSH1 0x40 MLOAD PUSH32 0x8C379A000000000000000000000000000000000000000000000000000000000 DUP2 MSTORE PUSH1 0x4 ADD PUSH2 0x1E49 SWAP1 PUSH2 0x3967 JUMP JUMPDEST PUSH1 0x40 MLOAD DUP1 SWAP2 SUB SWAP1 REVERT JUMPDEST PUSH4 0xBC197C81 PUSH1 0xE0 SHL PUSH28 0xFFFFFFFFFFFFFFFFFFFFFFFFFFFFFFFFFFFFFFFFFFFFFFFFFFFFFFFF NOT AND DUP2 PUSH28 0xFFFFFFFFFFFFFFFFFFFFFFFFFFFFFFFFFFFFFFFFFFFFFFFFFFFFFFFF NOT AND EQ PUSH2 0x1ED9 JUMPI PUSH1 0x40 MLOAD PUSH32 0x8C379A000000000000000000000000000000000000000000000000000000000 DUP2 MSTORE PUSH1 0x4 ADD PUSH2 0x1ED0 SWAP1 PUSH2 0x39F9 JUMP JUMPDEST PUSH1 0x40 MLOAD DUP1 SWAP2 SUB SWAP1 REVERT JUMPDEST POP JUMPDEST POP POP POP POP POP POP JUMP JUMPDEST PUSH1 0x60 PUSH1 0x0 PUSH1 0x1 PUSH8 0xFFFFFFFFFFFFFFFF DUP2 GT ISZERO PUSH2 0x1F02 JUMPI PUSH2 0x1F01 PUSH2 0x25E0 JUMP JUMPDEST JUMPDEST PUSH1 0x40 MLOAD SWAP1 DUP1 DUP3 MSTORE DUP1 PUSH1 0x20 MUL PUSH1 0x20 ADD DUP3 ADD PUSH1 0x40 MSTORE DUP1 ISZERO PUSH2 0x1F30 JUMPI DUP2 PUSH1 0x20 ADD PUSH1 0x20 DUP3 MUL DUP1 CALLDATASIZE DUP4 CALLDATACOPY DUP1 DUP3 ADD SWAP2 POP POP SWAP1 POP JUMPDEST POP SWAP1 POP DUP3 DUP2 PUSH1 0x0 DUP2 MLOAD DUP2 LT PUSH2 0x1F48 JUMPI PUSH2 0x1F47 PUSH2 0x30D2 JUMP JUMPDEST JUMPDEST PUSH1 0x20 MUL PUSH1 0x20 ADD ADD DUP2 DUP2 MSTORE POP POP DUP1 SWAP2 POP POP SWAP2 SWAP1 POP JUMP JUMPDEST PUSH2 0x1F7C DUP5 PUSH20 0xFFFFFFFFFFFFFFFFFFFFFFFFFFFFFFFFFFFFFFFF AND PUSH2 0x2304 JUMP JUMPDEST ISZERO PUSH2 0x212C JUMPI DUP4 PUSH20 0xFFFFFFFFFFFFFFFFFFFFFFFFFFFFFFFFFFFFFFFF AND PUSH4 0xF23A6E61 DUP8 DUP8 DUP7 DUP7 DUP7 PUSH1 0x40 MLOAD DUP7 PUSH4 0xFFFFFFFF AND PUSH1 0xE0 SHL DUP2 MSTORE PUSH1 0x4 ADD PUSH2 0x1FC2 SWAP6 SWAP5 SWAP4 SWAP3 SWAP2 SWAP1 PUSH2 0x3A19 JUMP JUMPDEST PUSH1 0x20 PUSH1 0x40 MLOAD DUP1 DUP4 SUB DUP2 PUSH1 0x0 DUP8 GAS CALL SWAP3 POP POP POP DUP1 ISZERO PUSH2 0x1FFE JUMPI POP PUSH1 0x40 MLOAD RETURNDATASIZE PUSH1 0x1F NOT PUSH1 0x1F DUP3 ADD AND DUP3 ADD DUP1 PUSH1 0x40 MSTORE POP DUP2 ADD SWAP1 PUSH2 0x1FFB SWAP2 SWAP1 PUSH2 0x3809 JUMP JUMPDEST PUSH1 0x1 JUMPDEST PUSH2 0x20A3 JUMPI PUSH2 0x200A PUSH2 0x3843 JUMP JUMPDEST DUP1 PUSH4 0x8C379A0 SUB PUSH2 0x2066 JUMPI POP PUSH2 0x201E PUSH2 0x3865 JUMP JUMPDEST DUP1 PUSH2 0x2029 JUMPI POP PUSH2 0x2068 JUMP JUMPDEST DUP1 PUSH1 0x40 MLOAD PUSH32 0x8C379A000000000000000000000000000000000000000000000000000000000 DUP2 MSTORE PUSH1 0x4 ADD PUSH2 0x205D SWAP2 SWAP1 PUSH2 0x25B9 JUMP JUMPDEST PUSH1 0x40 MLOAD DUP1 SWAP2 SUB SWAP1 REVERT JUMPDEST POP JUMPDEST PUSH1 0x40 MLOAD PUSH32 0x8C379A000000000000000000000000000000000000000000000000000000000 DUP2 MSTORE PUSH1 0x4 ADD PUSH2 0x209A SWAP1 PUSH2 0x3967 JUMP JUMPDEST PUSH1 0x40 MLOAD DUP1 SWAP2 SUB SWAP1 REVERT JUMPDEST PUSH4 0xF23A6E61 PUSH1 0xE0 SHL PUSH28 0xFFFFFFFFFFFFFFFFFFFFFFFFFFFFFFFFFFFFFFFFFFFFFFFFFFFFFFFF NOT AND DUP2 PUSH28 0xFFFFFFFFFFFFFFFFFFFFFFFFFFFFFFFFFFFFFFFFFFFFFFFFFFFFFFFF NOT AND EQ PUSH2 0x212A JUMPI PUSH1 0x40 MLOAD PUSH32 0x8C379A000000000000000000000000000000000000000000000000000000000 DUP2 MSTORE PUSH1 0x4 ADD PUSH2 0x2121 SWAP1 PUSH2 0x39F9 JUMP JUMPDEST PUSH1 0x40 MLOAD DUP1 SWAP2 SUB SWAP1 REVERT JUMPDEST POP JUMPDEST POP POP POP POP POP POP JUMP JUMPDEST PUSH2 0x2142 DUP7 DUP7 DUP7 DUP7 DUP7 DUP7 PUSH2 0x2327 JUMP JUMPDEST PUSH1 0x0 PUSH20 0xFFFFFFFFFFFFFFFFFFFFFFFFFFFFFFFFFFFFFFFF AND DUP6 PUSH20 0xFFFFFFFFFFFFFFFFFFFFFFFFFFFFFFFFFFFFFFFF AND SUB PUSH2 0x21F3 JUMPI PUSH1 0x0 JUMPDEST DUP4 MLOAD DUP2 LT ISZERO PUSH2 0x21F1 JUMPI DUP3 DUP2 DUP2 MLOAD DUP2 LT PUSH2 0x2195 JUMPI PUSH2 0x2194 PUSH2 0x30D2 JUMP JUMPDEST JUMPDEST PUSH1 0x20 MUL PUSH1 0x20 ADD ADD MLOAD PUSH1 0x4 PUSH1 0x0 DUP7 DUP5 DUP2 MLOAD DUP2 LT PUSH2 0x21B4 JUMPI PUSH2 0x21B3 PUSH2 0x30D2 JUMP JUMPDEST JUMPDEST PUSH1 0x20 MUL PUSH1 0x20 ADD ADD MLOAD DUP2 MSTORE PUSH1 0x20 ADD SWAP1 DUP2 MSTORE PUSH1 0x20 ADD PUSH1 0x0 KECCAK256 PUSH1 0x0 DUP3 DUP3 SLOAD PUSH2 0x21D9 SWAP2 SWAP1 PUSH2 0x33C9 JUMP JUMPDEST SWAP3 POP POP DUP2 SWAP1 SSTORE POP DUP1 PUSH2 0x21EA SWAP1 PUSH2 0x3130 JUMP JUMPDEST SWAP1 POP PUSH2 0x2179 JUMP JUMPDEST POP JUMPDEST PUSH1 0x0 PUSH20 0xFFFFFFFFFFFFFFFFFFFFFFFFFFFFFFFFFFFFFFFF AND DUP5 PUSH20 0xFFFFFFFFFFFFFFFFFFFFFFFFFFFFFFFFFFFFFFFF AND SUB PUSH2 0x22FC JUMPI PUSH1 0x0 JUMPDEST DUP4 MLOAD DUP2 LT ISZERO PUSH2 0x22FA JUMPI PUSH1 0x0 DUP5 DUP3 DUP2 MLOAD DUP2 LT PUSH2 0x2248 JUMPI PUSH2 0x2247 PUSH2 0x30D2 JUMP JUMPDEST JUMPDEST PUSH1 0x20 MUL PUSH1 0x20 ADD ADD MLOAD SWAP1 POP PUSH1 0x0 DUP5 DUP4 DUP2 MLOAD DUP2 LT PUSH2 0x2267 JUMPI PUSH2 0x2266 PUSH2 0x30D2 JUMP JUMPDEST JUMPDEST PUSH1 0x20 MUL PUSH1 0x20 ADD ADD MLOAD SWAP1 POP PUSH1 0x0 PUSH1 0x4 PUSH1 0x0 DUP5 DUP2 MSTORE PUSH1 0x20 ADD SWAP1 DUP2 MSTORE PUSH1 0x20 ADD PUSH1 0x0 KECCAK256 SLOAD SWAP1 POP DUP2 DUP2 LT ISZERO PUSH2 0x22CC JUMPI PUSH1 0x40 MLOAD PUSH32 0x8C379A000000000000000000000000000000000000000000000000000000000 DUP2 MSTORE PUSH1 0x4 ADD PUSH2 0x22C3 SWAP1 PUSH2 0x3AE5 JUMP JUMPDEST PUSH1 0x40 MLOAD DUP1 SWAP2 SUB SWAP1 REVERT JUMPDEST DUP2 DUP2 SUB PUSH1 0x4 PUSH1 0x0 DUP6 DUP2 MSTORE PUSH1 0x20 ADD SWAP1 DUP2 MSTORE PUSH1 0x20 ADD PUSH1 0x0 KECCAK256 DUP2 SWAP1 SSTORE POP POP POP POP DUP1 PUSH2 0x22F3 SWAP1 PUSH2 0x3130 JUMP JUMPDEST SWAP1 POP PUSH2 0x222A JUMP JUMPDEST POP JUMPDEST POP POP POP POP POP POP JUMP JUMPDEST PUSH1 0x0 DUP1 DUP3 PUSH20 0xFFFFFFFFFFFFFFFFFFFFFFFFFFFFFFFFFFFFFFFF AND EXTCODESIZE GT SWAP1 POP SWAP2 SWAP1 POP JUMP JUMPDEST POP POP POP POP POP POP JUMP JUMPDEST PUSH1 0x0 PUSH1 0x40 MLOAD SWAP1 POP SWAP1 JUMP JUMPDEST PUSH1 0x0 DUP1 REVERT JUMPDEST PUSH1 0x0 DUP1 REVERT JUMPDEST PUSH1 0x0 PUSH20 0xFFFFFFFFFFFFFFFFFFFFFFFFFFFFFFFFFFFFFFFF DUP3 AND SWAP1 POP SWAP2 SWAP1 POP JUMP JUMPDEST PUSH1 0x0 PUSH2 0x236E DUP3 PUSH2 0x2343 JUMP JUMPDEST SWAP1 POP SWAP2 SWAP1 POP JUMP JUMPDEST PUSH2 0x237E DUP2 PUSH2 0x2363 JUMP JUMPDEST DUP2 EQ PUSH2 0x2389 JUMPI PUSH1 0x0 DUP1 REVERT JUMPDEST POP JUMP JUMPDEST PUSH1 0x0 DUP2 CALLDATALOAD SWAP1 POP PUSH2 0x239B DUP2 PUSH2 0x2375 JUMP JUMPDEST SWAP3 SWAP2 POP POP JUMP JUMPDEST PUSH1 0x0 DUP2 SWAP1 POP SWAP2 SWAP1 POP JUMP JUMPDEST PUSH2 0x23B4 DUP2 PUSH2 0x23A1 JUMP JUMPDEST DUP2 EQ PUSH2 0x23BF JUMPI PUSH1 0x0 DUP1 REVERT JUMPDEST POP JUMP JUMPDEST PUSH1 0x0 DUP2 CALLDATALOAD SWAP1 POP PUSH2 0x23D1 DUP2 PUSH2 0x23AB JUMP JUMPDEST SWAP3 SWAP2 POP POP JUMP JUMPDEST PUSH1 0x0 DUP1 PUSH1 0x40 DUP4 DUP6 SUB SLT ISZERO PUSH2 0x23EE JUMPI PUSH2 0x23ED PUSH2 0x2339 JUMP JUMPDEST JUMPDEST PUSH1 0x0 PUSH2 0x23FC DUP6 DUP3 DUP7 ADD PUSH2 0x238C JUMP JUMPDEST SWAP3 POP POP PUSH1 0x20 PUSH2 0x240D DUP6 DUP3 DUP7 ADD PUSH2 0x23C2 JUMP JUMPDEST SWAP2 POP POP SWAP3 POP SWAP3 SWAP1 POP JUMP JUMPDEST PUSH2 0x2420 DUP2 PUSH2 0x23A1 JUMP JUMPDEST DUP3 MSTORE POP POP JUMP JUMPDEST PUSH1 0x0 PUSH1 0x20 DUP3 ADD SWAP1 POP PUSH2 0x243B PUSH1 0x0 DUP4 ADD DUP5 PUSH2 0x2417 JUMP JUMPDEST SWAP3 SWAP2 POP POP JUMP JUMPDEST PUSH1 0x0 PUSH32 0xFFFFFFFF00000000000000000000000000000000000000000000000000000000 DUP3 AND SWAP1 POP SWAP2 SWAP1 POP JUMP JUMPDEST PUSH2 0x2476 DUP2 PUSH2 0x2441 JUMP JUMPDEST DUP2 EQ PUSH2 0x2481 JUMPI PUSH1 0x0 DUP1 REVERT JUMPDEST POP JUMP JUMPDEST PUSH1 0x0 DUP2 CALLDATALOAD SWAP1 POP PUSH2 0x2493 DUP2 PUSH2 0x246D JUMP JUMPDEST SWAP3 SWAP2 POP POP JUMP JUMPDEST PUSH1 0x0 PUSH1 0x20 DUP3 DUP5 SUB SLT ISZERO PUSH2 0x24AF JUMPI PUSH2 0x24AE PUSH2 0x2339 JUMP JUMPDEST JUMPDEST PUSH1 0x0 PUSH2 0x24BD DUP5 DUP3 DUP6 ADD PUSH2 0x2484 JUMP JUMPDEST SWAP2 POP POP SWAP3 SWAP2 POP POP JUMP JUMPDEST PUSH1 0x0 DUP2 ISZERO ISZERO SWAP1 POP SWAP2 SWAP1 POP JUMP JUMPDEST PUSH2 0x24DB DUP2 PUSH2 0x24C6 JUMP JUMPDEST DUP3 MSTORE POP POP JUMP JUMPDEST PUSH1 0x0 PUSH1 0x20 DUP3 ADD SWAP1 POP PUSH2 0x24F6 PUSH1 0x0 DUP4 ADD DUP5 PUSH2 0x24D2 JUMP JUMPDEST SWAP3 SWAP2 POP POP JUMP JUMPDEST PUSH1 0x0 PUSH1 0x20 DUP3 DUP5 SUB SLT ISZERO PUSH2 0x2512 JUMPI PUSH2 0x2511 PUSH2 0x2339 JUMP JUMPDEST JUMPDEST PUSH1 0x0 PUSH2 0x2520 DUP5 DUP3 DUP6 ADD PUSH2 0x23C2 JUMP JUMPDEST SWAP2 POP POP SWAP3 SWAP2 POP POP JUMP JUMPDEST PUSH1 0x0 DUP2 MLOAD SWAP1 POP SWAP2 SWAP1 POP JUMP JUMPDEST PUSH1 0x0 DUP3 DUP3 MSTORE PUSH1 0x20 DUP3 ADD SWAP1 POP SWAP3 SWAP2 POP POP JUMP JUMPDEST PUSH1 0x0 JUMPDEST DUP4 DUP2 LT ISZERO PUSH2 0x2563 JUMPI DUP1 DUP3 ADD MLOAD DUP2 DUP5 ADD MSTORE PUSH1 0x20 DUP2 ADD SWAP1 POP PUSH2 0x2548 JUMP JUMPDEST PUSH1 0x0 DUP5 DUP5 ADD MSTORE POP POP POP POP JUMP JUMPDEST PUSH1 0x0 PUSH1 0x1F NOT PUSH1 0x1F DUP4 ADD AND SWAP1 POP SWAP2 SWAP1 POP JUMP JUMPDEST PUSH1 0x0 PUSH2 0x258B DUP3 PUSH2 0x2529 JUMP JUMPDEST PUSH2 0x2595 DUP2 DUP6 PUSH2 0x2534 JUMP JUMPDEST SWAP4 POP PUSH2 0x25A5 DUP2 DUP6 PUSH1 0x20 DUP7 ADD PUSH2 0x2545 JUMP JUMPDEST PUSH2 0x25AE DUP2 PUSH2 0x256F JUMP JUMPDEST DUP5 ADD SWAP2 POP POP SWAP3 SWAP2 POP POP JUMP JUMPDEST PUSH1 0x0 PUSH1 0x20 DUP3 ADD SWAP1 POP DUP2 DUP2 SUB PUSH1 0x0 DUP4 ADD MSTORE PUSH2 0x25D3 DUP2 DUP5 PUSH2 0x2580 JUMP JUMPDEST SWAP1 POP SWAP3 SWAP2 POP POP JUMP JUMPDEST PUSH1 0x0 DUP1 REVERT JUMPDEST PUSH32 0x4E487B7100000000000000000000000000000000000000000000000000000000 PUSH1 0x0 MSTORE PUSH1 0x41 PUSH1 0x4 MSTORE PUSH1 0x24 PUSH1 0x0 REVERT JUMPDEST PUSH2 0x2618 DUP3 PUSH2 0x256F JUMP JUMPDEST DUP2 ADD DUP2 DUP2 LT PUSH8 0xFFFFFFFFFFFFFFFF DUP3 GT OR ISZERO PUSH2 0x2637 JUMPI PUSH2 0x2636 PUSH2 0x25E0 JUMP JUMPDEST JUMPDEST DUP1 PUSH1 0x40 MSTORE POP POP POP JUMP JUMPDEST PUSH1 0x0 PUSH2 0x264A PUSH2 0x232F JUMP JUMPDEST SWAP1 POP PUSH2 0x2656 DUP3 DUP3 PUSH2 0x260F JUMP JUMPDEST SWAP2 SWAP1 POP JUMP JUMPDEST PUSH1 0x0 PUSH8 0xFFFFFFFFFFFFFFFF DUP3 GT ISZERO PUSH2 0x2676 JUMPI PUSH2 0x2675 PUSH2 0x25E0 JUMP JUMPDEST JUMPDEST PUSH1 0x20 DUP3 MUL SWAP1 POP PUSH1 0x20 DUP2 ADD SWAP1 POP SWAP2 SWAP1 POP JUMP JUMPDEST PUSH1 0x0 DUP1 REVERT JUMPDEST PUSH1 0x0 PUSH2 0x269F PUSH2 0x269A DUP5 PUSH2 0x265B JUMP JUMPDEST PUSH2 0x2640 JUMP JUMPDEST SWAP1 POP DUP1 DUP4 DUP3 MSTORE PUSH1 0x20 DUP3 ADD SWAP1 POP PUSH1 0x20 DUP5 MUL DUP4 ADD DUP6 DUP2 GT ISZERO PUSH2 0x26C2 JUMPI PUSH2 0x26C1 PUSH2 0x2687 JUMP JUMPDEST JUMPDEST DUP4 JUMPDEST DUP2 DUP2 LT ISZERO PUSH2 0x26EB JUMPI DUP1 PUSH2 0x26D7 DUP9 DUP3 PUSH2 0x23C2 JUMP JUMPDEST DUP5 MSTORE PUSH1 0x20 DUP5 ADD SWAP4 POP POP PUSH1 0x20 DUP2 ADD SWAP1 POP PUSH2 0x26C4 JUMP JUMPDEST POP POP POP SWAP4 SWAP3 POP POP POP JUMP JUMPDEST PUSH1 0x0 DUP3 PUSH1 0x1F DUP4 ADD SLT PUSH2 0x270A JUMPI PUSH2 0x2709 PUSH2 0x25DB JUMP JUMPDEST JUMPDEST DUP2 CALLDATALOAD PUSH2 0x271A DUP5 DUP3 PUSH1 0x20 DUP7 ADD PUSH2 0x268C JUMP JUMPDEST SWAP2 POP POP SWAP3 SWAP2 POP POP JUMP JUMPDEST PUSH1 0x0 DUP1 REVERT JUMPDEST PUSH1 0x0 PUSH8 0xFFFFFFFFFFFFFFFF DUP3 GT ISZERO PUSH2 0x2743 JUMPI PUSH2 0x2742 PUSH2 0x25E0 JUMP JUMPDEST JUMPDEST PUSH2 0x274C DUP3 PUSH2 0x256F JUMP JUMPDEST SWAP1 POP PUSH1 0x20 DUP2 ADD SWAP1 POP SWAP2 SWAP1 POP JUMP JUMPDEST DUP3 DUP2 DUP4 CALLDATACOPY PUSH1 0x0 DUP4 DUP4 ADD MSTORE POP POP POP JUMP JUMPDEST PUSH1 0x0 PUSH2 0x277B PUSH2 0x2776 DUP5 PUSH2 0x2728 JUMP JUMPDEST PUSH2 0x2640 JUMP JUMPDEST SWAP1 POP DUP3 DUP2 MSTORE PUSH1 0x20 DUP2 ADD DUP5 DUP5 DUP5 ADD GT ISZERO PUSH2 0x2797 JUMPI PUSH2 0x2796 PUSH2 0x2723 JUMP JUMPDEST JUMPDEST PUSH2 0x27A2 DUP5 DUP3 DUP6 PUSH2 0x2759 JUMP JUMPDEST POP SWAP4 SWAP3 POP POP POP JUMP JUMPDEST PUSH1 0x0 DUP3 PUSH1 0x1F DUP4 ADD SLT PUSH2 0x27BF JUMPI PUSH2 0x27BE PUSH2 0x25DB JUMP JUMPDEST JUMPDEST DUP2 CALLDATALOAD PUSH2 0x27CF DUP5 DUP3 PUSH1 0x20 DUP7 ADD PUSH2 0x2768 JUMP JUMPDEST SWAP2 POP POP SWAP3 SWAP2 POP POP JUMP JUMPDEST PUSH1 0x0 DUP1 PUSH1 0x0 DUP1 PUSH1 0x80 DUP6 DUP8 SUB SLT ISZERO PUSH2 0x27F2 JUMPI PUSH2 0x27F1 PUSH2 0x2339 JUMP JUMPDEST JUMPDEST PUSH1 0x0 PUSH2 0x2800 DUP8 DUP3 DUP9 ADD PUSH2 0x238C JUMP JUMPDEST SWAP5 POP POP PUSH1 0x20 DUP6 ADD CALLDATALOAD PUSH8 0xFFFFFFFFFFFFFFFF DUP2 GT ISZERO PUSH2 0x2821 JUMPI PUSH2 0x2820 PUSH2 0x233E JUMP JUMPDEST JUMPDEST PUSH2 0x282D DUP8 DUP3 DUP9 ADD PUSH2 0x26F5 JUMP JUMPDEST SWAP4 POP POP PUSH1 0x40 DUP6 ADD CALLDATALOAD PUSH8 0xFFFFFFFFFFFFFFFF DUP2 GT ISZERO PUSH2 0x284E JUMPI PUSH2 0x284D PUSH2 0x233E JUMP JUMPDEST JUMPDEST PUSH2 0x285A DUP8 DUP3 DUP9 ADD PUSH2 0x26F5 JUMP JUMPDEST SWAP3 POP POP PUSH1 0x60 DUP6 ADD CALLDATALOAD PUSH8 0xFFFFFFFFFFFFFFFF DUP2 GT ISZERO PUSH2 0x287B JUMPI PUSH2 0x287A PUSH2 0x233E JUMP JUMPDEST JUMPDEST PUSH2 0x2887 DUP8 DUP3 DUP9 ADD PUSH2 0x27AA JUMP JUMPDEST SWAP2 POP POP SWAP3 SWAP6 SWAP2 SWAP5 POP SWAP3 POP JUMP JUMPDEST PUSH1 0x0 DUP1 PUSH1 0x0 DUP1 PUSH1 0x0 PUSH1 0xA0 DUP7 DUP9 SUB SLT ISZERO PUSH2 0x28AF JUMPI PUSH2 0x28AE PUSH2 0x2339 JUMP JUMPDEST JUMPDEST PUSH1 0x0 PUSH2 0x28BD DUP9 DUP3 DUP10 ADD PUSH2 0x238C JUMP JUMPDEST SWAP6 POP POP PUSH1 0x20 PUSH2 0x28CE DUP9 DUP3 DUP10 ADD PUSH2 0x238C JUMP JUMPDEST SWAP5 POP POP PUSH1 0x40 DUP7 ADD CALLDATALOAD PUSH8 0xFFFFFFFFFFFFFFFF DUP2 GT ISZERO PUSH2 0x28EF JUMPI PUSH2 0x28EE PUSH2 0x233E JUMP JUMPDEST JUMPDEST PUSH2 0x28FB DUP9 DUP3 DUP10 ADD PUSH2 0x26F5 JUMP JUMPDEST SWAP4 POP POP PUSH1 0x60 DUP7 ADD CALLDATALOAD PUSH8 0xFFFFFFFFFFFFFFFF DUP2 GT ISZERO PUSH2 0x291C JUMPI PUSH2 0x291B PUSH2 0x233E JUMP JUMPDEST JUMPDEST PUSH2 0x2928 DUP9 DUP3 DUP10 ADD PUSH2 0x26F5 JUMP JUMPDEST SWAP3 POP POP PUSH1 0x80 DUP7 ADD CALLDATALOAD PUSH8 0xFFFFFFFFFFFFFFFF DUP2 GT ISZERO PUSH2 0x2949 JUMPI PUSH2 0x2948 PUSH2 0x233E JUMP JUMPDEST JUMPDEST PUSH2 0x2955 DUP9 DUP3 DUP10 ADD PUSH2 0x27AA JUMP JUMPDEST SWAP2 POP POP SWAP3 SWAP6 POP SWAP3 SWAP6 SWAP1 SWAP4 POP JUMP JUMPDEST PUSH1 0x0 PUSH8 0xFFFFFFFFFFFFFFFF DUP3 GT ISZERO PUSH2 0x297D JUMPI PUSH2 0x297C PUSH2 0x25E0 JUMP JUMPDEST JUMPDEST PUSH1 0x20 DUP3 MUL SWAP1 POP PUSH1 0x20 DUP2 ADD SWAP1 POP SWAP2 SWAP1 POP JUMP JUMPDEST PUSH1 0x0 PUSH2 0x29A1 PUSH2 0x299C DUP5 PUSH2 0x2962 JUMP JUMPDEST PUSH2 0x2640 JUMP JUMPDEST SWAP1 POP DUP1 DUP4 DUP3 MSTORE PUSH1 0x20 DUP3 ADD SWAP1 POP PUSH1 0x20 DUP5 MUL DUP4 ADD DUP6 DUP2 GT ISZERO PUSH2 0x29C4 JUMPI PUSH2 0x29C3 PUSH2 0x2687 JUMP JUMPDEST JUMPDEST DUP4 JUMPDEST DUP2 DUP2 LT ISZERO PUSH2 0x29ED JUMPI DUP1 PUSH2 0x29D9 DUP9 DUP3 PUSH2 0x238C JUMP JUMPDEST DUP5 MSTORE PUSH1 0x20 DUP5 ADD SWAP4 POP POP PUSH1 0x20 DUP2 ADD SWAP1 POP PUSH2 0x29C6 JUMP JUMPDEST POP POP POP SWAP4 SWAP3 POP POP POP JUMP JUMPDEST PUSH1 0x0 DUP3 PUSH1 0x1F DUP4 ADD SLT PUSH2 0x2A0C JUMPI PUSH2 0x2A0B PUSH2 0x25DB JUMP JUMPDEST JUMPDEST DUP2 CALLDATALOAD PUSH2 0x2A1C DUP5 DUP3 PUSH1 0x20 DUP7 ADD PUSH2 0x298E JUMP JUMPDEST SWAP2 POP POP SWAP3 SWAP2 POP POP JUMP JUMPDEST PUSH1 0x0 DUP1 PUSH1 0x40 DUP4 DUP6 SUB SLT ISZERO PUSH2 0x2A3C JUMPI PUSH2 0x2A3B PUSH2 0x2339 JUMP JUMPDEST JUMPDEST PUSH1 0x0 DUP4 ADD CALLDATALOAD PUSH8 0xFFFFFFFFFFFFFFFF DUP2 GT ISZERO PUSH2 0x2A5A JUMPI PUSH2 0x2A59 PUSH2 0x233E JUMP JUMPDEST JUMPDEST PUSH2 0x2A66 DUP6 DUP3 DUP7 ADD PUSH2 0x29F7 JUMP JUMPDEST SWAP3 POP POP PUSH1 0x20 DUP4 ADD CALLDATALOAD PUSH8 0xFFFFFFFFFFFFFFFF DUP2 GT ISZERO PUSH2 0x2A87 JUMPI PUSH2 0x2A86 PUSH2 0x233E JUMP JUMPDEST JUMPDEST PUSH2 0x2A93 DUP6 DUP3 DUP7 ADD PUSH2 0x26F5 JUMP JUMPDEST SWAP2 POP POP SWAP3 POP SWAP3 SWAP1 POP JUMP JUMPDEST PUSH1 0x0 DUP2 MLOAD SWAP1 POP SWAP2 SWAP1 POP JUMP JUMPDEST PUSH1 0x0 DUP3 DUP3 MSTORE PUSH1 0x20 DUP3 ADD SWAP1 POP SWAP3 SWAP2 POP POP JUMP JUMPDEST PUSH1 0x0 DUP2 SWAP1 POP PUSH1 0x20 DUP3 ADD SWAP1 POP SWAP2 SWAP1 POP JUMP JUMPDEST PUSH2 0x2AD2 DUP2 PUSH2 0x23A1 JUMP JUMPDEST DUP3 MSTORE POP POP JUMP JUMPDEST PUSH1 0x0 PUSH2 0x2AE4 DUP4 DUP4 PUSH2 0x2AC9 JUMP JUMPDEST PUSH1 0x20 DUP4 ADD SWAP1 POP SWAP3 SWAP2 POP POP JUMP JUMPDEST PUSH1 0x0 PUSH1 0x20 DUP3 ADD SWAP1 POP SWAP2 SWAP1 POP JUMP JUMPDEST PUSH1 0x0 PUSH2 0x2B08 DUP3 PUSH2 0x2A9D JUMP JUMPDEST PUSH2 0x2B12 DUP2 DUP6 PUSH2 0x2AA8 JUMP JUMPDEST SWAP4 POP PUSH2 0x2B1D DUP4 PUSH2 0x2AB9 JUMP JUMPDEST DUP1 PUSH1 0x0 JUMPDEST DUP4 DUP2 LT ISZERO PUSH2 0x2B4E JUMPI DUP2 MLOAD PUSH2 0x2B35 DUP9 DUP3 PUSH2 0x2AD8 JUMP JUMPDEST SWAP8 POP PUSH2 0x2B40 DUP4 PUSH2 0x2AF0 JUMP JUMPDEST SWAP3 POP POP PUSH1 0x1 DUP2 ADD SWAP1 POP PUSH2 0x2B21 JUMP JUMPDEST POP DUP6 SWAP4 POP POP POP POP SWAP3 SWAP2 POP POP JUMP JUMPDEST PUSH1 0x0 PUSH1 0x20 DUP3 ADD SWAP1 POP DUP2 DUP2 SUB PUSH1 0x0 DUP4 ADD MSTORE PUSH2 0x2B75 DUP2 DUP5 PUSH2 0x2AFD JUMP JUMPDEST SWAP1 POP SWAP3 SWAP2 POP POP JUMP JUMPDEST PUSH1 0x0 DUP1 PUSH1 0x0 PUSH1 0x60 DUP5 DUP7 SUB SLT ISZERO PUSH2 0x2B96 JUMPI PUSH2 0x2B95 PUSH2 0x2339 JUMP JUMPDEST JUMPDEST PUSH1 0x0 PUSH2 0x2BA4 DUP7 DUP3 DUP8 ADD PUSH2 0x238C JUMP JUMPDEST SWAP4 POP POP PUSH1 0x20 DUP5 ADD CALLDATALOAD PUSH8 0xFFFFFFFFFFFFFFFF DUP2 GT ISZERO PUSH2 0x2BC5 JUMPI PUSH2 0x2BC4 PUSH2 0x233E JUMP JUMPDEST JUMPDEST PUSH2 0x2BD1 DUP7 DUP3 DUP8 ADD PUSH2 0x26F5 JUMP JUMPDEST SWAP3 POP POP PUSH1 0x40 DUP5 ADD CALLDATALOAD PUSH8 0xFFFFFFFFFFFFFFFF DUP2 GT ISZERO PUSH2 0x2BF2 JUMPI PUSH2 0x2BF1 PUSH2 0x233E JUMP JUMPDEST JUMPDEST PUSH2 0x2BFE DUP7 DUP3 DUP8 ADD PUSH2 0x26F5 JUMP JUMPDEST SWAP2 POP POP SWAP3 POP SWAP3 POP SWAP3 JUMP JUMPDEST PUSH2 0x2C11 DUP2 PUSH2 0x2363 JUMP JUMPDEST DUP3 MSTORE POP POP JUMP JUMPDEST PUSH1 0x0 PUSH1 0x20 DUP3 ADD SWAP1 POP PUSH2 0x2C2C PUSH1 0x0 DUP4 ADD DUP5 PUSH2 0x2C08 JUMP JUMPDEST SWAP3 SWAP2 POP POP JUMP JUMPDEST PUSH2 0x2C3B DUP2 PUSH2 0x24C6 JUMP JUMPDEST DUP2 EQ PUSH2 0x2C46 JUMPI PUSH1 0x0 DUP1 REVERT JUMPDEST POP JUMP JUMPDEST PUSH1 0x0 DUP2 CALLDATALOAD SWAP1 POP PUSH2 0x2C58 DUP2 PUSH2 0x2C32 JUMP JUMPDEST SWAP3 SWAP2 POP POP JUMP JUMPDEST PUSH1 0x0 DUP1 PUSH1 0x40 DUP4 DUP6 SUB SLT ISZERO PUSH2 0x2C75 JUMPI PUSH2 0x2C74 PUSH2 0x2339 JUMP JUMPDEST JUMPDEST PUSH1 0x0 PUSH2 0x2C83 DUP6 DUP3 DUP7 ADD PUSH2 0x238C JUMP JUMPDEST SWAP3 POP POP PUSH1 0x20 PUSH2 0x2C94 DUP6 DUP3 DUP7 ADD PUSH2 0x2C49 JUMP JUMPDEST SWAP2 POP POP SWAP3 POP SWAP3 SWAP1 POP JUMP JUMPDEST PUSH1 0x0 DUP1 PUSH1 0x40 DUP4 DUP6 SUB SLT ISZERO PUSH2 0x2CB5 JUMPI PUSH2 0x2CB4 PUSH2 0x2339 JUMP JUMPDEST JUMPDEST PUSH1 0x0 PUSH2 0x2CC3 DUP6 DUP3 DUP7 ADD PUSH2 0x238C JUMP JUMPDEST SWAP3 POP POP PUSH1 0x20 PUSH2 0x2CD4 DUP6 DUP3 DUP7 ADD PUSH2 0x238C JUMP JUMPDEST SWAP2 POP POP SWAP3 POP SWAP3 SWAP1 POP JUMP JUMPDEST PUSH1 0x0 DUP1 PUSH1 0x0 DUP1 PUSH1 0x0 PUSH1 0xA0 DUP7 DUP9 SUB SLT ISZERO PUSH2 0x2CFA JUMPI PUSH2 0x2CF9 PUSH2 0x2339 JUMP JUMPDEST JUMPDEST PUSH1 0x0 PUSH2 0x2D08 DUP9 DUP3 DUP10 ADD PUSH2 0x238C JUMP JUMPDEST SWAP6 POP POP PUSH1 0x20 PUSH2 0x2D19 DUP9 DUP3 DUP10 ADD PUSH2 0x238C JUMP JUMPDEST SWAP5 POP POP PUSH1 0x40 PUSH2 0x2D2A DUP9 DUP3 DUP10 ADD PUSH2 0x23C2 JUMP JUMPDEST SWAP4 POP POP PUSH1 0x60 PUSH2 0x2D3B DUP9 DUP3 DUP10 ADD PUSH2 0x23C2 JUMP JUMPDEST SWAP3 POP POP PUSH1 0x80 DUP7 ADD CALLDATALOAD PUSH8 0xFFFFFFFFFFFFFFFF DUP2 GT ISZERO PUSH2 0x2D5C JUMPI PUSH2 0x2D5B PUSH2 0x233E JUMP JUMPDEST JUMPDEST PUSH2 0x2D68 DUP9 DUP3 DUP10 ADD PUSH2 0x27AA JUMP JUMPDEST SWAP2 POP POP SWAP3 SWAP6 POP SWAP3 SWAP6 SWAP1 SWAP4 POP JUMP JUMPDEST PUSH1 0x0 PUSH1 0x20 DUP3 DUP5 SUB SLT ISZERO PUSH2 0x2D8B JUMPI PUSH2 0x2D8A PUSH2 0x2339 JUMP JUMPDEST JUMPDEST PUSH1 0x0 PUSH2 0x2D99 DUP5 DUP3 DUP6 ADD PUSH2 0x238C JUMP JUMPDEST SWAP2 POP POP SWAP3 SWAP2 POP POP JUMP JUMPDEST PUSH1 0x0 DUP1 PUSH1 0x0 PUSH1 0x60 DUP5 DUP7 SUB SLT ISZERO PUSH2 0x2DBB JUMPI PUSH2 0x2DBA PUSH2 0x2339 JUMP JUMPDEST JUMPDEST PUSH1 0x0 PUSH2 0x2DC9 DUP7 DUP3 DUP8 ADD PUSH2 0x238C JUMP JUMPDEST SWAP4 POP POP PUSH1 0x20 PUSH2 0x2DDA DUP7 DUP3 DUP8 ADD PUSH2 0x23C2 JUMP JUMPDEST SWAP3 POP POP PUSH1 0x40 PUSH2 0x2DEB DUP7 DUP3 DUP8 ADD PUSH2 0x23C2 JUMP JUMPDEST SWAP2 POP POP SWAP3 POP SWAP3 POP SWAP3 JUMP JUMPDEST PUSH32 0x455243313135353A2061646472657373207A65726F206973206E6F7420612076 PUSH1 0x0 DUP3 ADD MSTORE PUSH32 0x616C6964206F776E657200000000000000000000000000000000000000000000 PUSH1 0x20 DUP3 ADD MSTORE POP JUMP JUMPDEST PUSH1 0x0 PUSH2 0x2E51 PUSH1 0x2A DUP4 PUSH2 0x2534 JUMP JUMPDEST SWAP2 POP PUSH2 0x2E5C DUP3 PUSH2 0x2DF5 JUMP JUMPDEST PUSH1 0x40 DUP3 ADD SWAP1 POP SWAP2 SWAP1 POP JUMP JUMPDEST PUSH1 0x0 PUSH1 0x20 DUP3 ADD SWAP1 POP DUP2 DUP2 SUB PUSH1 0x0 DUP4 ADD MSTORE PUSH2 0x2E80 DUP2 PUSH2 0x2E44 JUMP JUMPDEST SWAP1 POP SWAP2 SWAP1 POP JUMP JUMPDEST PUSH1 0x0 DUP2 SWAP1 POP SWAP3 SWAP2 POP POP JUMP JUMPDEST PUSH32 0x697066733A2F2F516D61633839735A545347764B6B795961327672786452616B PUSH1 0x0 DUP3 ADD MSTORE PUSH32 0x5052456147464A534E4A52525765747A544C51544D2F00000000000000000000 PUSH1 0x20 DUP3 ADD MSTORE POP JUMP JUMPDEST PUSH1 0x0 PUSH2 0x2EEE PUSH1 0x36 DUP4 PUSH2 0x2E87 JUMP JUMPDEST SWAP2 POP PUSH2 0x2EF9 DUP3 PUSH2 0x2E92 JUMP JUMPDEST PUSH1 0x36 DUP3 ADD SWAP1 POP SWAP2 SWAP1 POP JUMP JUMPDEST PUSH1 0x0 PUSH2 0x2F0F DUP3 PUSH2 0x2529 JUMP JUMPDEST PUSH2 0x2F19 DUP2 DUP6 PUSH2 0x2E87 JUMP JUMPDEST SWAP4 POP PUSH2 0x2F29 DUP2 DUP6 PUSH1 0x20 DUP7 ADD PUSH2 0x2545 JUMP JUMPDEST DUP1 DUP5 ADD SWAP2 POP POP SWAP3 SWAP2 POP POP JUMP JUMPDEST PUSH32 0x2E6A736F6E000000000000000000000000000000000000000000000000000000 PUSH1 0x0 DUP3 ADD MSTORE POP JUMP JUMPDEST PUSH1 0x0 PUSH2 0x2F6B PUSH1 0x5 DUP4 PUSH2 0x2E87 JUMP JUMPDEST SWAP2 POP PUSH2 0x2F76 DUP3 PUSH2 0x2F35 JUMP JUMPDEST PUSH1 0x5 DUP3 ADD SWAP1 POP SWAP2 SWAP1 POP JUMP JUMPDEST PUSH1 0x0 PUSH2 0x2F8C DUP3 PUSH2 0x2EE1 JUMP JUMPDEST SWAP2 POP PUSH2 0x2F98 DUP3 DUP5 PUSH2 0x2F04 JUMP JUMPDEST SWAP2 POP PUSH2 0x2FA3 DUP3 PUSH2 0x2F5E JUMP JUMPDEST SWAP2 POP DUP2 SWAP1 POP SWAP3 SWAP2 POP POP JUMP JUMPDEST PUSH32 0x455243313135353A2063616C6C6572206973206E6F7420746F6B656E206F776E PUSH1 0x0 DUP3 ADD MSTORE PUSH32 0x6572206F7220617070726F766564000000000000000000000000000000000000 PUSH1 0x20 DUP3 ADD MSTORE POP JUMP JUMPDEST PUSH1 0x0 PUSH2 0x300A PUSH1 0x2E DUP4 PUSH2 0x2534 JUMP JUMPDEST SWAP2 POP PUSH2 0x3015 DUP3 PUSH2 0x2FAE JUMP JUMPDEST PUSH1 0x40 DUP3 ADD SWAP1 POP SWAP2 SWAP1 POP JUMP JUMPDEST PUSH1 0x0 PUSH1 0x20 DUP3 ADD SWAP1 POP DUP2 DUP2 SUB PUSH1 0x0 DUP4 ADD MSTORE PUSH2 0x3039 DUP2 PUSH2 0x2FFD JUMP JUMPDEST SWAP1 POP SWAP2 SWAP1 POP JUMP JUMPDEST PUSH32 0x455243313135353A206163636F756E747320616E6420696473206C656E677468 PUSH1 0x0 DUP3 ADD MSTORE PUSH32 0x206D69736D617463680000000000000000000000000000000000000000000000 PUSH1 0x20 DUP3 ADD MSTORE POP JUMP JUMPDEST PUSH1 0x0 PUSH2 0x309C PUSH1 0x29 DUP4 PUSH2 0x2534 JUMP JUMPDEST SWAP2 POP PUSH2 0x30A7 DUP3 PUSH2 0x3040 JUMP JUMPDEST PUSH1 0x40 DUP3 ADD SWAP1 POP SWAP2 SWAP1 POP JUMP JUMPDEST PUSH1 0x0 PUSH1 0x20 DUP3 ADD SWAP1 POP DUP2 DUP2 SUB PUSH1 0x0 DUP4 ADD MSTORE PUSH2 0x30CB DUP2 PUSH2 0x308F JUMP JUMPDEST SWAP1 POP SWAP2 SWAP1 POP JUMP JUMPDEST PUSH32 0x4E487B7100000000000000000000000000000000000000000000000000000000 PUSH1 0x0 MSTORE PUSH1 0x32 PUSH1 0x4 MSTORE PUSH1 0x24 PUSH1 0x0 REVERT JUMPDEST PUSH32 0x4E487B7100000000000000000000000000000000000000000000000000000000 PUSH1 0x0 MSTORE PUSH1 0x11 PUSH1 0x4 MSTORE PUSH1 0x24 PUSH1 0x0 REVERT JUMPDEST PUSH1 0x0 PUSH2 0x313B DUP3 PUSH2 0x23A1 JUMP JUMPDEST SWAP2 POP PUSH32 0xFFFFFFFFFFFFFFFFFFFFFFFFFFFFFFFFFFFFFFFFFFFFFFFFFFFFFFFFFFFFFFFF DUP3 SUB PUSH2 0x316D JUMPI PUSH2 0x316C PUSH2 0x3101 JUMP JUMPDEST JUMPDEST PUSH1 0x1 DUP3 ADD SWAP1 POP SWAP2 SWAP1 POP JUMP JUMPDEST PUSH32 0x4F776E61626C653A206E6577206F776E657220697320746865207A65726F2061 PUSH1 0x0 DUP3 ADD MSTORE PUSH32 0x6464726573730000000000000000000000000000000000000000000000000000 PUSH1 0x20 DUP3 ADD MSTORE POP JUMP JUMPDEST PUSH1 0x0 PUSH2 0x31D4 PUSH1 0x26 DUP4 PUSH2 0x2534 JUMP JUMPDEST SWAP2 POP PUSH2 0x31DF DUP3 PUSH2 0x3178 JUMP JUMPDEST PUSH1 0x40 DUP3 ADD SWAP1 POP SWAP2 SWAP1 POP JUMP JUMPDEST PUSH1 0x0 PUSH1 0x20 DUP3 ADD SWAP1 POP DUP2 DUP2 SUB PUSH1 0x0 DUP4 ADD MSTORE PUSH2 0x3203 DUP2 PUSH2 0x31C7 JUMP JUMPDEST SWAP1 POP SWAP2 SWAP1 POP JUMP JUMPDEST PUSH32 0x4E487B7100000000000000000000000000000000000000000000000000000000 PUSH1 0x0 MSTORE PUSH1 0x12 PUSH1 0x4 MSTORE PUSH1 0x24 PUSH1 0x0 REVERT JUMPDEST PUSH32 0x4F776E61626C653A2063616C6C6572206973206E6F7420746865206F776E6572 PUSH1 0x0 DUP3 ADD MSTORE POP JUMP JUMPDEST PUSH1 0x0 PUSH2 0x326F PUSH1 0x20 DUP4 PUSH2 0x2534 JUMP JUMPDEST SWAP2 POP PUSH2 0x327A DUP3 PUSH2 0x3239 JUMP JUMPDEST PUSH1 0x20 DUP3 ADD SWAP1 POP SWAP2 SWAP1 POP JUMP JUMPDEST PUSH1 0x0 PUSH1 0x20 DUP3 ADD SWAP1 POP DUP2 DUP2 SUB PUSH1 0x0 DUP4 ADD MSTORE PUSH2 0x329E DUP2 PUSH2 0x3262 JUMP JUMPDEST SWAP1 POP SWAP2 SWAP1 POP JUMP JUMPDEST PUSH32 0x455243313135353A206D696E7420746F20746865207A65726F20616464726573 PUSH1 0x0 DUP3 ADD MSTORE PUSH32 0x7300000000000000000000000000000000000000000000000000000000000000 PUSH1 0x20 DUP3 ADD MSTORE POP JUMP JUMPDEST PUSH1 0x0 PUSH2 0x3301 PUSH1 0x21 DUP4 PUSH2 0x2534 JUMP JUMPDEST SWAP2 POP PUSH2 0x330C DUP3 PUSH2 0x32A5 JUMP JUMPDEST PUSH1 0x40 DUP3 ADD SWAP1 POP SWAP2 SWAP1 POP JUMP JUMPDEST PUSH1 0x0 PUSH1 0x20 DUP3 ADD SWAP1 POP DUP2 DUP2 SUB PUSH1 0x0 DUP4 ADD MSTORE PUSH2 0x3330 DUP2 PUSH2 0x32F4 JUMP JUMPDEST SWAP1 POP SWAP2 SWAP1 POP JUMP JUMPDEST PUSH32 0x455243313135353A2069647320616E6420616D6F756E7473206C656E67746820 PUSH1 0x0 DUP3 ADD MSTORE PUSH32 0x6D69736D61746368000000000000000000000000000000000000000000000000 PUSH1 0x20 DUP3 ADD MSTORE POP JUMP JUMPDEST PUSH1 0x0 PUSH2 0x3393 PUSH1 0x28 DUP4 PUSH2 0x2534 JUMP JUMPDEST SWAP2 POP PUSH2 0x339E DUP3 PUSH2 0x3337 JUMP JUMPDEST PUSH1 0x40 DUP3 ADD SWAP1 POP SWAP2 SWAP1 POP JUMP JUMPDEST PUSH1 0x0 PUSH1 0x20 DUP3 ADD SWAP1 POP DUP2 DUP2 SUB PUSH1 0x0 DUP4 ADD MSTORE PUSH2 0x33C2 DUP2 PUSH2 0x3386 JUMP JUMPDEST SWAP1 POP SWAP2 SWAP1 POP JUMP JUMPDEST PUSH1 0x0 PUSH2 0x33D4 DUP3 PUSH2 0x23A1 JUMP JUMPDEST SWAP2 POP PUSH2 0x33DF DUP4 PUSH2 0x23A1 JUMP JUMPDEST SWAP3 POP DUP3 DUP3 ADD SWAP1 POP DUP1 DUP3 GT ISZERO PUSH2 0x33F7 JUMPI PUSH2 0x33F6 PUSH2 0x3101 JUMP JUMPDEST JUMPDEST SWAP3 SWAP2 POP POP JUMP JUMPDEST PUSH1 0x0 PUSH1 0x40 DUP3 ADD SWAP1 POP DUP2 DUP2 SUB PUSH1 0x0 DUP4 ADD MSTORE PUSH2 0x3417 DUP2 DUP6 PUSH2 0x2AFD JUMP JUMPDEST SWAP1 POP DUP2 DUP2 SUB PUSH1 0x20 DUP4 ADD MSTORE PUSH2 0x342B DUP2 DUP5 PUSH2 0x2AFD JUMP JUMPDEST SWAP1 POP SWAP4 SWAP3 POP POP POP JUMP JUMPDEST PUSH32 0x455243313135353A207472616E7366657220746F20746865207A65726F206164 PUSH1 0x0 DUP3 ADD MSTORE PUSH32 0x6472657373000000000000000000000000000000000000000000000000000000 PUSH1 0x20 DUP3 ADD MSTORE POP JUMP JUMPDEST PUSH1 0x0 PUSH2 0x3490 PUSH1 0x25 DUP4 PUSH2 0x2534 JUMP JUMPDEST SWAP2 POP PUSH2 0x349B DUP3 PUSH2 0x3434 JUMP JUMPDEST PUSH1 0x40 DUP3 ADD SWAP1 POP SWAP2 SWAP1 POP JUMP JUMPDEST PUSH1 0x0 PUSH1 0x20 DUP3 ADD SWAP1 POP DUP2 DUP2 SUB PUSH1 0x0 DUP4 ADD MSTORE PUSH2 0x34BF DUP2 PUSH2 0x3483 JUMP JUMPDEST SWAP1 POP SWAP2 SWAP1 POP JUMP JUMPDEST PUSH32 0x455243313135353A20696E73756666696369656E742062616C616E636520666F PUSH1 0x0 DUP3 ADD MSTORE PUSH32 0x72207472616E7366657200000000000000000000000000000000000000000000 PUSH1 0x20 DUP3 ADD MSTORE POP JUMP JUMPDEST PUSH1 0x0 PUSH2 0x3522 PUSH1 0x2A DUP4 PUSH2 0x2534 JUMP JUMPDEST SWAP2 POP PUSH2 0x352D DUP3 PUSH2 0x34C6 JUMP JUMPDEST PUSH1 0x40 DUP3 ADD SWAP1 POP SWAP2 SWAP1 POP JUMP JUMPDEST PUSH1 0x0 PUSH1 0x20 DUP3 ADD SWAP1 POP DUP2 DUP2 SUB PUSH1 0x0 DUP4 ADD MSTORE PUSH2 0x3551 DUP2 PUSH2 0x3515 JUMP JUMPDEST SWAP1 POP SWAP2 SWAP1 POP JUMP JUMPDEST PUSH32 0x455243313135353A206275726E2066726F6D20746865207A65726F2061646472 PUSH1 0x0 DUP3 ADD MSTORE PUSH32 0x6573730000000000000000000000000000000000000000000000000000000000 PUSH1 0x20 DUP3 ADD MSTORE POP JUMP JUMPDEST PUSH1 0x0 PUSH2 0x35B4 PUSH1 0x23 DUP4 PUSH2 0x2534 JUMP JUMPDEST SWAP2 POP PUSH2 0x35BF DUP3 PUSH2 0x3558 JUMP JUMPDEST PUSH1 0x40 DUP3 ADD SWAP1 POP SWAP2 SWAP1 POP JUMP JUMPDEST PUSH1 0x0 PUSH1 0x20 DUP3 ADD SWAP1 POP DUP2 DUP2 SUB PUSH1 0x0 DUP4 ADD MSTORE PUSH2 0x35E3 DUP2 PUSH2 0x35A7 JUMP JUMPDEST SWAP1 POP SWAP2 SWAP1 POP JUMP JUMPDEST PUSH32 0x455243313135353A206275726E20616D6F756E7420657863656564732062616C PUSH1 0x0 DUP3 ADD MSTORE PUSH32 0x616E636500000000000000000000000000000000000000000000000000000000 PUSH1 0x20 DUP3 ADD MSTORE POP JUMP JUMPDEST PUSH1 0x0 PUSH2 0x3646 PUSH1 0x24 DUP4 PUSH2 0x2534 JUMP JUMPDEST SWAP2 POP PUSH2 0x3651 DUP3 PUSH2 0x35EA JUMP JUMPDEST PUSH1 0x40 DUP3 ADD SWAP1 POP SWAP2 SWAP1 POP JUMP JUMPDEST PUSH1 0x0 PUSH1 0x20 DUP3 ADD SWAP1 POP DUP2 DUP2 SUB PUSH1 0x0 DUP4 ADD MSTORE PUSH2 0x3675 DUP2 PUSH2 0x3639 JUMP JUMPDEST SWAP1 POP SWAP2 SWAP1 POP JUMP JUMPDEST PUSH32 0x455243313135353A2073657474696E6720617070726F76616C20737461747573 PUSH1 0x0 DUP3 ADD MSTORE PUSH32 0x20666F722073656C660000000000000000000000000000000000000000000000 PUSH1 0x20 DUP3 ADD MSTORE POP JUMP JUMPDEST PUSH1 0x0 PUSH2 0x36D8 PUSH1 0x29 DUP4 PUSH2 0x2534 JUMP JUMPDEST SWAP2 POP PUSH2 0x36E3 DUP3 PUSH2 0x367C JUMP JUMPDEST PUSH1 0x40 DUP3 ADD SWAP1 POP SWAP2 SWAP1 POP JUMP JUMPDEST PUSH1 0x0 PUSH1 0x20 DUP3 ADD SWAP1 POP DUP2 DUP2 SUB PUSH1 0x0 DUP4 ADD MSTORE PUSH2 0x3707 DUP2 PUSH2 0x36CB JUMP JUMPDEST SWAP1 POP SWAP2 SWAP1 POP JUMP JUMPDEST PUSH1 0x0 PUSH1 0x40 DUP3 ADD SWAP1 POP PUSH2 0x3723 PUSH1 0x0 DUP4 ADD DUP6 PUSH2 0x2417 JUMP JUMPDEST PUSH2 0x3730 PUSH1 0x20 DUP4 ADD DUP5 PUSH2 0x2417 JUMP JUMPDEST SWAP4 SWAP3 POP POP POP JUMP JUMPDEST PUSH1 0x0 DUP2 MLOAD SWAP1 POP SWAP2 SWAP1 POP JUMP JUMPDEST PUSH1 0x0 DUP3 DUP3 MSTORE PUSH1 0x20 DUP3 ADD SWAP1 POP SWAP3 SWAP2 POP POP JUMP JUMPDEST PUSH1 0x0 PUSH2 0x375E DUP3 PUSH2 0x3737 JUMP JUMPDEST PUSH2 0x3768 DUP2 DUP6 PUSH2 0x3742 JUMP JUMPDEST SWAP4 POP PUSH2 0x3778 DUP2 DUP6 PUSH1 0x20 DUP7 ADD PUSH2 0x2545 JUMP JUMPDEST PUSH2 0x3781 DUP2 PUSH2 0x256F JUMP JUMPDEST DUP5 ADD SWAP2 POP POP SWAP3 SWAP2 POP POP JUMP JUMPDEST PUSH1 0x0 PUSH1 0xA0 DUP3 ADD SWAP1 POP PUSH2 0x37A1 PUSH1 0x0 DUP4 ADD DUP9 PUSH2 0x2C08 JUMP JUMPDEST PUSH2 0x37AE PUSH1 0x20 DUP4 ADD DUP8 PUSH2 0x2C08 JUMP JUMPDEST DUP2 DUP2 SUB PUSH1 0x40 DUP4 ADD MSTORE PUSH2 0x37C0 DUP2 DUP7 PUSH2 0x2AFD JUMP JUMPDEST SWAP1 POP DUP2 DUP2 SUB PUSH1 0x60 DUP4 ADD MSTORE PUSH2 0x37D4 DUP2 DUP6 PUSH2 0x2AFD JUMP JUMPDEST SWAP1 POP DUP2 DUP2 SUB PUSH1 0x80 DUP4 ADD MSTORE PUSH2 0x37E8 DUP2 DUP5 PUSH2 0x3753 JUMP JUMPDEST SWAP1 POP SWAP7 SWAP6 POP POP POP POP POP POP JUMP JUMPDEST PUSH1 0x0 DUP2 MLOAD SWAP1 POP PUSH2 0x3803 DUP2 PUSH2 0x246D JUMP JUMPDEST SWAP3 SWAP2 POP POP JUMP JUMPDEST PUSH1 0x0 PUSH1 0x20 DUP3 DUP5 SUB SLT ISZERO PUSH2 0x381F JUMPI PUSH2 0x381E PUSH2 0x2339 JUMP JUMPDEST JUMPDEST PUSH1 0x0 PUSH2 0x382D DUP5 DUP3 DUP6 ADD PUSH2 0x37F4 JUMP JUMPDEST SWAP2 POP POP SWAP3 SWAP2 POP POP JUMP JUMPDEST PUSH1 0x0 DUP2 PUSH1 0xE0 SHR SWAP1 POP SWAP2 SWAP1 POP JUMP JUMPDEST PUSH1 0x0 PUSH1 0x3 RETURNDATASIZE GT ISZERO PUSH2 0x3862 JUMPI PUSH1 0x4 PUSH1 0x0 DUP1 RETURNDATACOPY PUSH2 0x385F PUSH1 0x0 MLOAD PUSH2 0x3836 JUMP JUMPDEST SWAP1 POP JUMPDEST SWAP1 JUMP JUMPDEST PUSH1 0x0 PUSH1 0x44 RETURNDATASIZE LT PUSH2 0x38F2 JUMPI PUSH2 0x3877 PUSH2 0x232F JUMP JUMPDEST PUSH1 0x4 RETURNDATASIZE SUB PUSH1 0x4 DUP3 RETURNDATACOPY DUP1 MLOAD RETURNDATASIZE PUSH1 0x24 DUP3 ADD GT PUSH8 0xFFFFFFFFFFFFFFFF DUP3 GT OR ISZERO PUSH2 0x389F JUMPI POP POP PUSH2 0x38F2 JUMP JUMPDEST DUP1 DUP3 ADD DUP1 MLOAD PUSH8 0xFFFFFFFFFFFFFFFF DUP2 GT ISZERO PUSH2 0x38BD JUMPI POP POP POP POP PUSH2 0x38F2 JUMP JUMPDEST DUP1 PUSH1 0x20 DUP4 ADD ADD PUSH1 0x4 RETURNDATASIZE SUB DUP6 ADD DUP2 GT ISZERO PUSH2 0x38DA JUMPI POP POP POP POP POP PUSH2 0x38F2 JUMP JUMPDEST PUSH2 0x38E9 DUP3 PUSH1 0x20 ADD DUP6 ADD DUP7 PUSH2 0x260F JUMP JUMPDEST DUP3 SWAP6 POP POP POP POP POP POP JUMPDEST SWAP1 JUMP JUMPDEST PUSH32 0x455243313135353A207472616E7366657220746F206E6F6E2D45524331313535 PUSH1 0x0 DUP3 ADD MSTORE PUSH32 0x526563656976657220696D706C656D656E746572000000000000000000000000 PUSH1 0x20 DUP3 ADD MSTORE POP JUMP JUMPDEST PUSH1 0x0 PUSH2 0x3951 PUSH1 0x34 DUP4 PUSH2 0x2534 JUMP JUMPDEST SWAP2 POP PUSH2 0x395C DUP3 PUSH2 0x38F5 JUMP JUMPDEST PUSH1 0x40 DUP3 ADD SWAP1 POP SWAP2 SWAP1 POP JUMP JUMPDEST PUSH1 0x0 PUSH1 0x20 DUP3 ADD SWAP1 POP DUP2 DUP2 SUB PUSH1 0x0 DUP4 ADD MSTORE PUSH2 0x3980 DUP2 PUSH2 0x3944 JUMP JUMPDEST SWAP1 POP SWAP2 SWAP1 POP JUMP JUMPDEST PUSH32 0x455243313135353A204552433131353552656365697665722072656A65637465 PUSH1 0x0 DUP3 ADD MSTORE PUSH32 0x6420746F6B656E73000000000000000000000000000000000000000000000000 PUSH1 0x20 DUP3 ADD MSTORE POP JUMP JUMPDEST PUSH1 0x0 PUSH2 0x39E3 PUSH1 0x28 DUP4 PUSH2 0x2534 JUMP JUMPDEST SWAP2 POP PUSH2 0x39EE DUP3 PUSH2 0x3987 JUMP JUMPDEST PUSH1 0x40 DUP3 ADD SWAP1 POP SWAP2 SWAP1 POP JUMP JUMPDEST PUSH1 0x0 PUSH1 0x20 DUP3 ADD SWAP1 POP DUP2 DUP2 SUB PUSH1 0x0 DUP4 ADD MSTORE PUSH2 0x3A12 DUP2 PUSH2 0x39D6 JUMP JUMPDEST SWAP1 POP SWAP2 SWAP1 POP JUMP JUMPDEST PUSH1 0x0 PUSH1 0xA0 DUP3 ADD SWAP1 POP PUSH2 0x3A2E PUSH1 0x0 DUP4 ADD DUP9 PUSH2 0x2C08 JUMP JUMPDEST PUSH2 0x3A3B PUSH1 0x20 DUP4 ADD DUP8 PUSH2 0x2C08 JUMP JUMPDEST PUSH2 0x3A48 PUSH1 0x40 DUP4 ADD DUP7 PUSH2 0x2417 JUMP JUMPDEST PUSH2 0x3A55 PUSH1 0x60 DUP4 ADD DUP6 PUSH2 0x2417 JUMP JUMPDEST DUP2 DUP2 SUB PUSH1 0x80 DUP4 ADD MSTORE PUSH2 0x3A67 DUP2 DUP5 PUSH2 0x3753 JUMP JUMPDEST SWAP1 POP SWAP7 SWAP6 POP POP POP POP POP POP JUMP JUMPDEST PUSH32 0x455243313135353A206275726E20616D6F756E74206578636565647320746F74 PUSH1 0x0 DUP3 ADD MSTORE PUSH32 0x616C537570706C79000000000000000000000000000000000000000000000000 PUSH1 0x20 DUP3 ADD MSTORE POP JUMP JUMPDEST PUSH1 0x0 PUSH2 0x3ACF PUSH1 0x28 DUP4 PUSH2 0x2534 JUMP JUMPDEST SWAP2 POP PUSH2 0x3ADA DUP3 PUSH2 0x3A73 JUMP JUMPDEST PUSH1 0x40 DUP3 ADD SWAP1 POP SWAP2 SWAP1 POP JUMP JUMPDEST PUSH1 0x0 PUSH1 0x20 DUP3 ADD SWAP1 POP DUP2 DUP2 SUB PUSH1 0x0 DUP4 ADD MSTORE PUSH2 0x3AFE DUP2 PUSH2 0x3AC2 JUMP JUMPDEST SWAP1 POP SWAP2 SWAP1 POP JUMP INVALID PUSH9 0x747470733A2F2F6970 PUSH7 0x732E696F2F6970 PUSH7 0x732F516D515844 PUSH22 0x59506455346538576437515866796279655857756A79 ORIGIN PUSH20 0x6D70776E4575314E626151326A3145712F636F6C PUSH13 0x656374696F6E2E6A736F6EA264 PUSH10 0x7066735822122036345B CALLVALUE 0x1E SIGNEXTEND 0xC9 GAS 0x4B 0xBF 0xD0 0xD2 0xFB 0x27 0xEA 0xCB 0x21 0xE8 0xB2 0xD3 XOR SWAP13 0xF8 LOG4 0xA5 GAS 0x5D 0xCD DUP12 LOG4 INVALID ADDMOD PUSH5 0x736F6C6343 STOP ADDMOD SLT STOP CALLER PUSH10 0x7066733A2F2F516D6163 CODESIZE CODECOPY PUSH20 0x5A545347764B6B795961327672786452616B5052 GASLIMIT PUSH2 0x4746 0x4A MSTORE8 0x4E 0x4A MSTORE MSTORE JUMPI PUSH6 0x747A544C5154 0x4D 0x2F PUSH28 0x69647D2E6A736F6E0000000000000000000000000000000000000000 "
		},
		"gasEstimates": {
			"creation": {
				"codeDepositCost": "3049200",
				"executionCost": "infinite",
				"totalCost": "infinite"
			},
			"external": {
				"balanceOf(address,uint256)": "infinite",
				"balanceOfBatch(address[],uint256[])": "infinite",
				"burn(address,uint256,uint256)": "infinite",
				"burnBatch(address,uint256[],uint256[])": "infinite",
				"contractURI()": "infinite",
				"exists(uint256)": "2902",
				"isApprovedForAll(address,address)": "infinite",
				"mintBatch(address,uint256[],uint256[],bytes)": "infinite",
				"owner()": "2567",
				"renounceOwnership()": "30421",
				"safeBatchTransferFrom(address,address,uint256[],uint256[],bytes)": "infinite",
				"safeTransferFrom(address,address,uint256,uint256,bytes)": "infinite",
				"setApprovalForAll(address,bool)": "infinite",
				"supportsInterface(bytes4)": "819",
				"totalSupply(uint256)": "infinite",
				"transferOwnership(address)": "30832",
				"uri(uint256)": "infinite"
			},
			"internal": {
				"_beforeTokenTransfer(address,address,address,uint256[] memory,uint256[] memory,bytes memory)": "infinite"
			}
		},
		"methodIdentifiers": {
			"balanceOf(address,uint256)": "00fdd58e",
			"balanceOfBatch(address[],uint256[])": "4e1273f4",
			"burn(address,uint256,uint256)": "f5298aca",
			"burnBatch(address,uint256[],uint256[])": "6b20c454",
			"contractURI()": "e8a3d485",
			"exists(uint256)": "4f558e79",
			"isApprovedForAll(address,address)": "e985e9c5",
			"mintBatch(address,uint256[],uint256[],bytes)": "1f7fdffa",
			"owner()": "8da5cb5b",
			"renounceOwnership()": "715018a6",
			"safeBatchTransferFrom(address,address,uint256[],uint256[],bytes)": "2eb2c2d6",
			"safeTransferFrom(address,address,uint256,uint256,bytes)": "f242432a",
			"setApprovalForAll(address,bool)": "a22cb465",
			"supportsInterface(bytes4)": "01ffc9a7",
			"totalSupply(uint256)": "bd85b039",
			"transferOwnership(address)": "f2fde38b",
			"uri(uint256)": "0e89341c"
		}
	},
	"abi": [
		{
			"inputs": [],
			"stateMutability": "nonpayable",
			"type": "constructor"
		},
		{
			"anonymous": false,
			"inputs": [
				{
					"indexed": true,
					"internalType": "address",
					"name": "account",
					"type": "address"
				},
				{
					"indexed": true,
					"internalType": "address",
					"name": "operator",
					"type": "address"
				},
				{
					"indexed": false,
					"internalType": "bool",
					"name": "approved",
					"type": "bool"
				}
			],
			"name": "ApprovalForAll",
			"type": "event"
		},
		{
			"anonymous": false,
			"inputs": [
				{
					"indexed": true,
					"internalType": "address",
					"name": "previousOwner",
					"type": "address"
				},
				{
					"indexed": true,
					"internalType": "address",
					"name": "newOwner",
					"type": "address"
				}
			],
			"name": "OwnershipTransferred",
			"type": "event"
		},
		{
			"anonymous": false,
			"inputs": [
				{
					"indexed": true,
					"internalType": "address",
					"name": "operator",
					"type": "address"
				},
				{
					"indexed": true,
					"internalType": "address",
					"name": "from",
					"type": "address"
				},
				{
					"indexed": true,
					"internalType": "address",
					"name": "to",
					"type": "address"
				},
				{
					"indexed": false,
					"internalType": "uint256[]",
					"name": "ids",
					"type": "uint256[]"
				},
				{
					"indexed": false,
					"internalType": "uint256[]",
					"name": "values",
					"type": "uint256[]"
				}
			],
			"name": "TransferBatch",
			"type": "event"
		},
		{
			"anonymous": false,
			"inputs": [
				{
					"indexed": true,
					"internalType": "address",
					"name": "operator",
					"type": "address"
				},
				{
					"indexed": true,
					"internalType": "address",
					"name": "from",
					"type": "address"
				},
				{
					"indexed": true,
					"internalType": "address",
					"name": "to",
					"type": "address"
				},
				{
					"indexed": false,
					"internalType": "uint256",
					"name": "id",
					"type": "uint256"
				},
				{
					"indexed": false,
					"internalType": "uint256",
					"name": "value",
					"type": "uint256"
				}
			],
			"name": "TransferSingle",
			"type": "event"
		},
		{
			"anonymous": false,
			"inputs": [
				{
					"indexed": false,
					"internalType": "string",
					"name": "value",
					"type": "string"
				},
				{
					"indexed": true,
					"internalType": "uint256",
					"name": "id",
					"type": "uint256"
				}
			],
			"name": "URI",
			"type": "event"
		},
		{
			"inputs": [
				{
					"internalType": "address",
					"name": "account",
					"type": "address"
				},
				{
					"internalType": "uint256",
					"name": "id",
					"type": "uint256"
				}
			],
			"name": "balanceOf",
			"outputs": [
				{
					"internalType": "uint256",
					"name": "",
					"type": "uint256"
				}
			],
			"stateMutability": "view",
			"type": "function"
		},
		{
			"inputs": [
				{
					"internalType": "address[]",
					"name": "accounts",
					"type": "address[]"
				},
				{
					"internalType": "uint256[]",
					"name": "ids",
					"type": "uint256[]"
				}
			],
			"name": "balanceOfBatch",
			"outputs": [
				{
					"internalType": "uint256[]",
					"name": "",
					"type": "uint256[]"
				}
			],
			"stateMutability": "view",
			"type": "function"
		},
		{
			"inputs": [
				{
					"internalType": "address",
					"name": "account",
					"type": "address"
				},
				{
					"internalType": "uint256",
					"name": "id",
					"type": "uint256"
				},
				{
					"internalType": "uint256",
					"name": "value",
					"type": "uint256"
				}
			],
			"name": "burn",
			"outputs": [],
			"stateMutability": "nonpayable",
			"type": "function"
		},
		{
			"inputs": [
				{
					"internalType": "address",
					"name": "account",
					"type": "address"
				},
				{
					"internalType": "uint256[]",
					"name": "ids",
					"type": "uint256[]"
				},
				{
					"internalType": "uint256[]",
					"name": "values",
					"type": "uint256[]"
				}
			],
			"name": "burnBatch",
			"outputs": [],
			"stateMutability": "nonpayable",
			"type": "function"
		},
		{
			"inputs": [],
			"name": "contractURI",
			"outputs": [
				{
					"internalType": "string",
					"name": "",
					"type": "string"
				}
			],
			"stateMutability": "pure",
			"type": "function"
		},
		{
			"inputs": [
				{
					"internalType": "uint256",
					"name": "id",
					"type": "uint256"
				}
			],
			"name": "exists",
			"outputs": [
				{
					"internalType": "bool",
					"name": "",
					"type": "bool"
				}
			],
			"stateMutability": "view",
			"type": "function"
		},
		{
			"inputs": [
				{
					"internalType": "address",
					"name": "account",
					"type": "address"
				},
				{
					"internalType": "address",
					"name": "operator",
					"type": "address"
				}
			],
			"name": "isApprovedForAll",
			"outputs": [
				{
					"internalType": "bool",
					"name": "",
					"type": "bool"
				}
			],
			"stateMutability": "view",
			"type": "function"
		},
		{
			"inputs": [
				{
					"internalType": "address",
					"name": "to",
					"type": "address"
				},
				{
					"internalType": "uint256[]",
					"name": "ids",
					"type": "uint256[]"
				},
				{
					"internalType": "uint256[]",
					"name": "amounts",
					"type": "uint256[]"
				},
				{
					"internalType": "bytes",
					"name": "data",
					"type": "bytes"
				}
			],
			"name": "mintBatch",
			"outputs": [],
			"stateMutability": "nonpayable",
			"type": "function"
		},
		{
			"inputs": [],
			"name": "owner",
			"outputs": [
				{
					"internalType": "address",
					"name": "",
					"type": "address"
				}
			],
			"stateMutability": "view",
			"type": "function"
		},
		{
			"inputs": [],
			"name": "renounceOwnership",
			"outputs": [],
			"stateMutability": "nonpayable",
			"type": "function"
		},
		{
			"inputs": [
				{
					"internalType": "address",
					"name": "from",
					"type": "address"
				},
				{
					"internalType": "address",
					"name": "to",
					"type": "address"
				},
				{
					"internalType": "uint256[]",
					"name": "ids",
					"type": "uint256[]"
				},
				{
					"internalType": "uint256[]",
					"name": "amounts",
					"type": "uint256[]"
				},
				{
					"internalType": "bytes",
					"name": "data",
					"type": "bytes"
				}
			],
			"name": "safeBatchTransferFrom",
			"outputs": [],
			"stateMutability": "nonpayable",
			"type": "function"
		},
		{
			"inputs": [
				{
					"internalType": "address",
					"name": "from",
					"type": "address"
				},
				{
					"internalType": "address",
					"name": "to",
					"type": "address"
				},
				{
					"internalType": "uint256",
					"name": "id",
					"type": "uint256"
				},
				{
					"internalType": "uint256",
					"name": "amount",
					"type": "uint256"
				},
				{
					"internalType": "bytes",
					"name": "data",
					"type": "bytes"
				}
			],
			"name": "safeTransferFrom",
			"outputs": [],
			"stateMutability": "nonpayable",
			"type": "function"
		},
		{
			"inputs": [
				{
					"internalType": "address",
					"name": "operator",
					"type": "address"
				},
				{
					"internalType": "bool",
					"name": "approved",
					"type": "bool"
				}
			],
			"name": "setApprovalForAll",
			"outputs": [],
			"stateMutability": "nonpayable",
			"type": "function"
		},
		{
			"inputs": [
				{
					"internalType": "bytes4",
					"name": "interfaceId",
					"type": "bytes4"
				}
			],
			"name": "supportsInterface",
			"outputs": [
				{
					"internalType": "bool",
					"name": "",
					"type": "bool"
				}
			],
			"stateMutability": "view",
			"type": "function"
		},
		{
			"inputs": [
				{
					"internalType": "uint256",
					"name": "id",
					"type": "uint256"
				}
			],
			"name": "totalSupply",
			"outputs": [
				{
					"internalType": "uint256",
					"name": "",
					"type": "uint256"
				}
			],
			"stateMutability": "view",
			"type": "function"
		},
		{
			"inputs": [
				{
					"internalType": "address",
					"name": "newOwner",
					"type": "address"
				}
			],
			"name": "transferOwnership",
			"outputs": [],
			"stateMutability": "nonpayable",
			"type": "function"
		},
		{
			"inputs": [
				{
					"internalType": "uint256",
					"name": "_tokenid",
					"type": "uint256"
				}
			],
			"name": "uri",
			"outputs": [
				{
					"internalType": "string",
					"name": "",
					"type": "string"
				}
			],
			"stateMutability": "pure",
			"type": "function"
		}
	]
}