{
	"data": {
		"bytecode": {
			"linkReferences": {},
			"object": "60806040523480156200001157600080fd5b50604051806060016040528060368152602001620046e0603691396200003d816200006460201b60201c565b506200005e620000526200007960201b60201c565b6200008160201b60201c565b620004a8565b8060029081620000759190620003c1565b5050565b600033905090565b6000600360009054906101000a900473ffffffffffffffffffffffffffffffffffffffff16905081600360006101000a81548173ffffffffffffffffffffffffffffffffffffffff021916908373ffffffffffffffffffffffffffffffffffffffff1602179055508173ffffffffffffffffffffffffffffffffffffffff168173ffffffffffffffffffffffffffffffffffffffff167f8be0079c531659141344cd1fd0a4f28419497f9722a3daafe3b4186f6b6457e060405160405180910390a35050565b600081519050919050565b7f4e487b7100000000000000000000000000000000000000000000000000000000600052604160045260246000fd5b7f4e487b7100000000000000000000000000000000000000000000000000000000600052602260045260246000fd5b60006002820490506001821680620001c957607f821691505b602082108103620001df57620001de62000181565b5b50919050565b60008190508160005260206000209050919050565b60006020601f8301049050919050565b600082821b905092915050565b600060088302620002497fffffffffffffffffffffffffffffffffffffffffffffffffffffffffffffffff826200020a565b6200025586836200020a565b95508019841693508086168417925050509392505050565b6000819050919050565b6000819050919050565b6000620002a26200029c62000296846200026d565b62000277565b6200026d565b9050919050565b6000819050919050565b620002be8362000281565b620002d6620002cd82620002a9565b84845462000217565b825550505050565b600090565b620002ed620002de565b620002fa818484620002b3565b505050565b5b81811015620003225762000316600082620002e3565b60018101905062000300565b5050565b601f82111562000371576200033b81620001e5565b6200034684620001fa565b8101602085101562000356578190505b6200036e6200036585620001fa565b830182620002ff565b50505b505050565b600082821c905092915050565b6000620003966000198460080262000376565b1980831691505092915050565b6000620003b1838362000383565b9150826002028217905092915050565b620003cc8262000147565b67ffffffffffffffff811115620003e857620003e762000152565b5b620003f48254620001b0565b6200040182828562000326565b600060209050601f83116001811462000439576000841562000424578287015190505b620004308582620003a3565b865550620004a0565b601f1984166200044986620001e5565b60005b8281101562000473578489015182556001820191506020850194506020810190506200044c565b868310156200049357848901516200048f601f89168262000383565b8355505b6001600288020188555050505b505050505050565b61422880620004b86000396000f3fe608060405234801561001057600080fd5b50600436106101205760003560e01c8063715018a6116100ad578063e8a3d48511610071578063e8a3d48514610315578063e985e9c514610333578063f242432a14610363578063f2fde38b1461037f578063f5298aca1461039b57610120565b8063715018a614610285578063731133e91461028f5780638da5cb5b146102ab578063a22cb465146102c9578063bd85b039146102e557610120565b80631f7fdffa116100f45780631f7fdffa146101d15780632eb2c2d6146101ed5780634e1273f4146102095780634f558e79146102395780636b20c4541461026957610120565b8062fdd58e1461012557806301ffc9a71461015557806302fe5305146101855780630e89341c146101a1575b600080fd5b61013f600480360381019061013a91906126b4565b6103b7565b60405161014c9190612703565b60405180910390f35b61016f600480360381019061016a9190612776565b61047f565b60405161017c91906127be565b60405180910390f35b61019f600480360381019061019a919061291f565b610561565b005b6101bb60048036038101906101b69190612968565b610575565b6040516101c89190612a14565b60405180910390f35b6101eb60048036038101906101e69190612b9f565b6105b0565b005b61020760048036038101906102029190612c5a565b6105ca565b005b610223600480360381019061021e9190612dec565b61066b565b6040516102309190612f22565b60405180910390f35b610253600480360381019061024e9190612968565b610784565b60405161026091906127be565b60405180910390f35b610283600480360381019061027e9190612f44565b610798565b005b61028d610835565b005b6102a960048036038101906102a49190612fcf565b610849565b005b6102b3610863565b6040516102c09190613061565b60405180910390f35b6102e360048036038101906102de91906130a8565b61088d565b005b6102ff60048036038101906102fa9190612968565b6108a3565b60405161030c9190612703565b60405180910390f35b61031d6108c0565b60405161032a9190612a14565b60405180910390f35b61034d600480360381019061034891906130e8565b6108e0565b60405161035a91906127be565b60405180910390f35b61037d60048036038101906103789190613128565b610974565b005b610399600480360381019061039491906131bf565b610a15565b005b6103b560048036038101906103b091906131ec565b610a98565b005b60008073ffffffffffffffffffffffffffffffffffffffff168373ffffffffffffffffffffffffffffffffffffffff1603610427576040517f08c379a000000000000000000000000000000000000000000000000000000000815260040161041e906132b1565b60405180910390fd5b60008083815260200190815260200160002060008473ffffffffffffffffffffffffffffffffffffffff1673ffffffffffffffffffffffffffffffffffffffff16815260200190815260200160002054905092915050565b60007fd9b67a26000000000000000000000000000000000000000000000000000000007bffffffffffffffffffffffffffffffffffffffffffffffffffffffff1916827bffffffffffffffffffffffffffffffffffffffffffffffffffffffff1916148061054a57507f0e89341c000000000000000000000000000000000000000000000000000000007bffffffffffffffffffffffffffffffffffffffffffffffffffffffff1916827bffffffffffffffffffffffffffffffffffffffffffffffffffffffff1916145b8061055a575061055982610b35565b5b9050919050565b610569610b9f565b61057281610c1d565b50565b606061058082610c30565b61058983610cc4565b60405160200161059a929190613359565b6040516020818303038152906040529050919050565b6105b8610b9f565b6105c484848484610d92565b50505050565b6105d2610fbe565b73ffffffffffffffffffffffffffffffffffffffff168573ffffffffffffffffffffffffffffffffffffffff161480610618575061061785610612610fbe565b6108e0565b5b610657576040517f08c379a000000000000000000000000000000000000000000000000000000000815260040161064e906133fa565b60405180910390fd5b6106648585858585610fc6565b5050505050565b606081518351146106b1576040517f08c379a00000000000000000000000000000000000000000000000000000000081526004016106a89061348c565b60405180910390fd5b6000835167ffffffffffffffff8111156106ce576106cd6127f4565b5b6040519080825280602002602001820160405280156106fc5781602001602082028036833780820191505090505b50905060005b845181101561077957610749858281518110610721576107206134ac565b5b602002602001015185838151811061073c5761073b6134ac565b5b60200260200101516103b7565b82828151811061075c5761075b6134ac565b5b602002602001018181525050806107729061350a565b9050610702565b508091505092915050565b600080610790836108a3565b119050919050565b6107a0610fbe565b73ffffffffffffffffffffffffffffffffffffffff168373ffffffffffffffffffffffffffffffffffffffff1614806107e657506107e5836107e0610fbe565b6108e0565b5b610825576040517f08c379a000000000000000000000000000000000000000000000000000000000815260040161081c906133fa565b60405180910390fd5b6108308383836112e7565b505050565b61083d610b9f565b61084760006115b5565b565b610851610b9f565b61085d8484848461167b565b50505050565b6000600360009054906101000a900473ffffffffffffffffffffffffffffffffffffffff16905090565b61089f610898610fbe565b838361182b565b5050565b600060046000838152602001908152602001600020549050919050565b60606040518060600160405280603581526020016141be60359139905090565b6000600160008473ffffffffffffffffffffffffffffffffffffffff1673ffffffffffffffffffffffffffffffffffffffff16815260200190815260200160002060008373ffffffffffffffffffffffffffffffffffffffff1673ffffffffffffffffffffffffffffffffffffffff16815260200190815260200160002060009054906101000a900460ff16905092915050565b61097c610fbe565b73ffffffffffffffffffffffffffffffffffffffff168573ffffffffffffffffffffffffffffffffffffffff1614806109c257506109c1856109bc610fbe565b6108e0565b5b610a01576040517f08c379a00000000000000000000000000000000000000000000000000000000081526004016109f8906133fa565b60405180910390fd5b610a0e8585858585611997565b5050505050565b610a1d610b9f565b600073ffffffffffffffffffffffffffffffffffffffff168173ffffffffffffffffffffffffffffffffffffffff1603610a8c576040517f08c379a0000000000000000000000000000000000000000000000000000000008152600401610a83906135c4565b60405180910390fd5b610a95816115b5565b50565b610aa0610fbe565b73ffffffffffffffffffffffffffffffffffffffff168373ffffffffffffffffffffffffffffffffffffffff161480610ae65750610ae583610ae0610fbe565b6108e0565b5b610b25576040517f08c379a0000000000000000000000000000000000000000000000000000000008152600401610b1c906133fa565b60405180910390fd5b610b30838383611c32565b505050565b60007f01ffc9a7000000000000000000000000000000000000000000000000000000007bffffffffffffffffffffffffffffffffffffffffffffffffffffffff1916827bffffffffffffffffffffffffffffffffffffffffffffffffffffffff1916149050919050565b610ba7610fbe565b73ffffffffffffffffffffffffffffffffffffffff16610bc5610863565b73ffffffffffffffffffffffffffffffffffffffff1614610c1b576040517f08c379a0000000000000000000000000000000000000000000000000000000008152600401610c1290613630565b60405180910390fd5b565b8060029081610c2c919061385c565b5050565b606060028054610c3f9061367f565b80601f0160208091040260200160405190810160405280929190818152602001828054610c6b9061367f565b8015610cb85780601f10610c8d57610100808354040283529160200191610cb8565b820191906000526020600020905b815481529060010190602001808311610c9b57829003601f168201915b50505050509050919050565b606060006001610cd384611e78565b01905060008167ffffffffffffffff811115610cf257610cf16127f4565b5b6040519080825280601f01601f191660200182016040528015610d245781602001600182028036833780820191505090505b509050600082602001820190505b600115610d87578080600190039150507f3031323334353637383961626364656600000000000000000000000000000000600a86061a8153600a8581610d7b57610d7a61392e565b5b04945060008503610d32575b819350505050919050565b600073ffffffffffffffffffffffffffffffffffffffff168473ffffffffffffffffffffffffffffffffffffffff1603610e01576040517f08c379a0000000000000000000000000000000000000000000000000000000008152600401610df8906139cf565b60405180910390fd5b8151835114610e45576040517f08c379a0000000000000000000000000000000000000000000000000000000008152600401610e3c90613a61565b60405180910390fd5b6000610e4f610fbe565b9050610e6081600087878787611fcb565b60005b8451811015610f1957838181518110610e7f57610e7e6134ac565b5b6020026020010151600080878481518110610e9d57610e9c6134ac565b5b6020026020010151815260200190815260200160002060008873ffffffffffffffffffffffffffffffffffffffff1673ffffffffffffffffffffffffffffffffffffffff1681526020019081526020016000206000828254610eff9190613a81565b925050819055508080610f119061350a565b915050610e63565b508473ffffffffffffffffffffffffffffffffffffffff16600073ffffffffffffffffffffffffffffffffffffffff168273ffffffffffffffffffffffffffffffffffffffff167f4a39dc06d4c0dbc64b70af90fd698a233a518aa5d07e595d983b8c0526c8f7fb8787604051610f91929190613ab5565b60405180910390a4610fa881600087878787611fe1565b610fb781600087878787611fe9565b5050505050565b600033905090565b815183511461100a576040517f08c379a000000000000000000000000000000000000000000000000000000000815260040161100190613a61565b60405180910390fd5b600073ffffffffffffffffffffffffffffffffffffffff168473ffffffffffffffffffffffffffffffffffffffff1603611079576040517f08c379a000000000000000000000000000000000000000000000000000000000815260040161107090613b5e565b60405180910390fd5b6000611083610fbe565b9050611093818787878787611fcb565b60005b84518110156112445760008582815181106110b4576110b36134ac565b5b6020026020010151905060008583815181106110d3576110d26134ac565b5b60200260200101519050600080600084815260200190815260200160002060008b73ffffffffffffffffffffffffffffffffffffffff1673ffffffffffffffffffffffffffffffffffffffff16815260200190815260200160002054905081811015611174576040517f08c379a000000000000000000000000000000000000000000000000000000000815260040161116b90613bf0565b60405180910390fd5b81810360008085815260200190815260200160002060008c73ffffffffffffffffffffffffffffffffffffffff1673ffffffffffffffffffffffffffffffffffffffff168152602001908152602001600020819055508160008085815260200190815260200160002060008b73ffffffffffffffffffffffffffffffffffffffff1673ffffffffffffffffffffffffffffffffffffffff16815260200190815260200160002060008282546112299190613a81565b925050819055505050508061123d9061350a565b9050611096565b508473ffffffffffffffffffffffffffffffffffffffff168673ffffffffffffffffffffffffffffffffffffffff168273ffffffffffffffffffffffffffffffffffffffff167f4a39dc06d4c0dbc64b70af90fd698a233a518aa5d07e595d983b8c0526c8f7fb87876040516112bb929190613ab5565b60405180910390a46112d1818787878787611fe1565b6112df818787878787611fe9565b505050505050565b600073ffffffffffffffffffffffffffffffffffffffff168373ffffffffffffffffffffffffffffffffffffffff1603611356576040517f08c379a000000000000000000000000000000000000000000000000000000000815260040161134d90613c82565b60405180910390fd5b805182511461139a576040517f08c379a000000000000000000000000000000000000000000000000000000000815260040161139190613a61565b60405180910390fd5b60006113a4610fbe565b90506113c481856000868660405180602001604052806000815250611fcb565b60005b83518110156115115760008482815181106113e5576113e46134ac565b5b602002602001015190506000848381518110611404576114036134ac565b5b60200260200101519050600080600084815260200190815260200160002060008973ffffffffffffffffffffffffffffffffffffffff1673ffffffffffffffffffffffffffffffffffffffff168152602001908152602001600020549050818110156114a5576040517f08c379a000000000000000000000000000000000000000000000000000000000815260040161149c90613d14565b60405180910390fd5b81810360008085815260200190815260200160002060008a73ffffffffffffffffffffffffffffffffffffffff1673ffffffffffffffffffffffffffffffffffffffff1681526020019081526020016000208190555050505080806115099061350a565b9150506113c7565b50600073ffffffffffffffffffffffffffffffffffffffff168473ffffffffffffffffffffffffffffffffffffffff168273ffffffffffffffffffffffffffffffffffffffff167f4a39dc06d4c0dbc64b70af90fd698a233a518aa5d07e595d983b8c0526c8f7fb8686604051611589929190613ab5565b60405180910390a46115af81856000868660405180602001604052806000815250611fe1565b50505050565b6000600360009054906101000a900473ffffffffffffffffffffffffffffffffffffffff16905081600360006101000a81548173ffffffffffffffffffffffffffffffffffffffff021916908373ffffffffffffffffffffffffffffffffffffffff1602179055508173ffffffffffffffffffffffffffffffffffffffff168173ffffffffffffffffffffffffffffffffffffffff167f8be0079c531659141344cd1fd0a4f28419497f9722a3daafe3b4186f6b6457e060405160405180910390a35050565b600073ffffffffffffffffffffffffffffffffffffffff168473ffffffffffffffffffffffffffffffffffffffff16036116ea576040517f08c379a00000000000000000000000000000000000000000000000000000000081526004016116e1906139cf565b60405180910390fd5b60006116f4610fbe565b90506000611701856121c0565b9050600061170e856121c0565b905061171f83600089858589611fcb565b8460008088815260200190815260200160002060008973ffffffffffffffffffffffffffffffffffffffff1673ffffffffffffffffffffffffffffffffffffffff168152602001908152602001600020600082825461177e9190613a81565b925050819055508673ffffffffffffffffffffffffffffffffffffffff16600073ffffffffffffffffffffffffffffffffffffffff168473ffffffffffffffffffffffffffffffffffffffff167fc3d58168c5ae7397731d063d5bbf3d657854427343f4c083240f7aacaa2d0f6289896040516117fc929190613d34565b60405180910390a461181383600089858589611fe1565b6118228360008989898961223a565b50505050505050565b8173ffffffffffffffffffffffffffffffffffffffff168373ffffffffffffffffffffffffffffffffffffffff1603611899576040517f08c379a000000000000000000000000000000000000000000000000000000000815260040161189090613dcf565b60405180910390fd5b80600160008573ffffffffffffffffffffffffffffffffffffffff1673ffffffffffffffffffffffffffffffffffffffff16815260200190815260200160002060008473ffffffffffffffffffffffffffffffffffffffff1673ffffffffffffffffffffffffffffffffffffffff16815260200190815260200160002060006101000a81548160ff0219169083151502179055508173ffffffffffffffffffffffffffffffffffffffff168373ffffffffffffffffffffffffffffffffffffffff167f17307eab39ab6107e8899845ad3d59bd9653f200f220920489ca2b5937696c318360405161198a91906127be565b60405180910390a3505050565b600073ffffffffffffffffffffffffffffffffffffffff168473ffffffffffffffffffffffffffffffffffffffff1603611a06576040517f08c379a00000000000000000000000000000000000000000000000000000000081526004016119fd90613b5e565b60405180910390fd5b6000611a10610fbe565b90506000611a1d856121c0565b90506000611a2a856121c0565b9050611a3a838989858589611fcb565b600080600088815260200190815260200160002060008a73ffffffffffffffffffffffffffffffffffffffff1673ffffffffffffffffffffffffffffffffffffffff16815260200190815260200160002054905085811015611ad1576040517f08c379a0000000000000000000000000000000000000000000000000000000008152600401611ac890613bf0565b60405180910390fd5b85810360008089815260200190815260200160002060008b73ffffffffffffffffffffffffffffffffffffffff1673ffffffffffffffffffffffffffffffffffffffff168152602001908152602001600020819055508560008089815260200190815260200160002060008a73ffffffffffffffffffffffffffffffffffffffff1673ffffffffffffffffffffffffffffffffffffffff1681526020019081526020016000206000828254611b869190613a81565b925050819055508773ffffffffffffffffffffffffffffffffffffffff168973ffffffffffffffffffffffffffffffffffffffff168573ffffffffffffffffffffffffffffffffffffffff167fc3d58168c5ae7397731d063d5bbf3d657854427343f4c083240f7aacaa2d0f628a8a604051611c03929190613d34565b60405180910390a4611c19848a8a86868a611fe1565b611c27848a8a8a8a8a61223a565b505050505050505050565b600073ffffffffffffffffffffffffffffffffffffffff168373ffffffffffffffffffffffffffffffffffffffff1603611ca1576040517f08c379a0000000000000000000000000000000000000000000000000000000008152600401611c9890613c82565b60405180910390fd5b6000611cab610fbe565b90506000611cb8846121c0565b90506000611cc5846121c0565b9050611ce583876000858560405180602001604052806000815250611fcb565b600080600087815260200190815260200160002060008873ffffffffffffffffffffffffffffffffffffffff1673ffffffffffffffffffffffffffffffffffffffff16815260200190815260200160002054905084811015611d7c576040517f08c379a0000000000000000000000000000000000000000000000000000000008152600401611d7390613d14565b60405180910390fd5b84810360008088815260200190815260200160002060008973ffffffffffffffffffffffffffffffffffffffff1673ffffffffffffffffffffffffffffffffffffffff16815260200190815260200160002081905550600073ffffffffffffffffffffffffffffffffffffffff168773ffffffffffffffffffffffffffffffffffffffff168573ffffffffffffffffffffffffffffffffffffffff167fc3d58168c5ae7397731d063d5bbf3d657854427343f4c083240f7aacaa2d0f628989604051611e49929190613d34565b60405180910390a4611e6f84886000868660405180602001604052806000815250611fe1565b50505050505050565b600080600090507a184f03e93ff9f4daa797ed6e38ed64bf6a1f0100000000000000008310611ed6577a184f03e93ff9f4daa797ed6e38ed64bf6a1f0100000000000000008381611ecc57611ecb61392e565b5b0492506040810190505b6d04ee2d6d415b85acef81000000008310611f13576d04ee2d6d415b85acef81000000008381611f0957611f0861392e565b5b0492506020810190505b662386f26fc100008310611f4257662386f26fc100008381611f3857611f3761392e565b5b0492506010810190505b6305f5e1008310611f6b576305f5e1008381611f6157611f6061392e565b5b0492506008810190505b6127108310611f90576127108381611f8657611f8561392e565b5b0492506004810190505b60648310611fb35760648381611fa957611fa861392e565b5b0492506002810190505b600a8310611fc2576001810190505b80915050919050565b611fd9868686868686612411565b505050505050565b505050505050565b6120088473ffffffffffffffffffffffffffffffffffffffff166125e1565b156121b8578373ffffffffffffffffffffffffffffffffffffffff1663bc197c8187878686866040518663ffffffff1660e01b815260040161204e959493929190613e44565b6020604051808303816000875af192505050801561208a57506040513d601f19601f820116820180604052508101906120879190613ec1565b60015b61212f57612096613efb565b806308c379a0036120f257506120aa613f1d565b806120b557506120f4565b806040517f08c379a00000000000000000000000000000000000000000000000000000000081526004016120e99190612a14565b60405180910390fd5b505b6040517f08c379a00000000000000000000000000000000000000000000000000000000081526004016121269061401f565b60405180910390fd5b63bc197c8160e01b7bffffffffffffffffffffffffffffffffffffffffffffffffffffffff1916817bffffffffffffffffffffffffffffffffffffffffffffffffffffffff1916146121b6576040517f08c379a00000000000000000000000000000000000000000000000000000000081526004016121ad906140b1565b60405180910390fd5b505b505050505050565b60606000600167ffffffffffffffff8111156121df576121de6127f4565b5b60405190808252806020026020018201604052801561220d5781602001602082028036833780820191505090505b5090508281600081518110612225576122246134ac565b5b60200260200101818152505080915050919050565b6122598473ffffffffffffffffffffffffffffffffffffffff166125e1565b15612409578373ffffffffffffffffffffffffffffffffffffffff1663f23a6e6187878686866040518663ffffffff1660e01b815260040161229f9594939291906140d1565b6020604051808303816000875af19250505080156122db57506040513d601f19601f820116820180604052508101906122d89190613ec1565b60015b612380576122e7613efb565b806308c379a00361234357506122fb613f1d565b806123065750612345565b806040517f08c379a000000000000000000000000000000000000000000000000000000000815260040161233a9190612a14565b60405180910390fd5b505b6040517f08c379a00000000000000000000000000000000000000000000000000000000081526004016123779061401f565b60405180910390fd5b63f23a6e6160e01b7bffffffffffffffffffffffffffffffffffffffffffffffffffffffff1916817bffffffffffffffffffffffffffffffffffffffffffffffffffffffff191614612407576040517f08c379a00000000000000000000000000000000000000000000000000000000081526004016123fe906140b1565b60405180910390fd5b505b505050505050565b61241f868686868686612604565b600073ffffffffffffffffffffffffffffffffffffffff168573ffffffffffffffffffffffffffffffffffffffff16036124d05760005b83518110156124ce57828181518110612472576124716134ac565b5b602002602001015160046000868481518110612491576124906134ac565b5b6020026020010151815260200190815260200160002060008282546124b69190613a81565b92505081905550806124c79061350a565b9050612456565b505b600073ffffffffffffffffffffffffffffffffffffffff168473ffffffffffffffffffffffffffffffffffffffff16036125d95760005b83518110156125d7576000848281518110612525576125246134ac565b5b602002602001015190506000848381518110612544576125436134ac565b5b60200260200101519050600060046000848152602001908152602001600020549050818110156125a9576040517f08c379a00000000000000000000000000000000000000000000000000000000081526004016125a09061419d565b60405180910390fd5b8181036004600085815260200190815260200160002081905550505050806125d09061350a565b9050612507565b505b505050505050565b6000808273ffffffffffffffffffffffffffffffffffffffff163b119050919050565b505050505050565b6000604051905090565b600080fd5b600080fd5b600073ffffffffffffffffffffffffffffffffffffffff82169050919050565b600061264b82612620565b9050919050565b61265b81612640565b811461266657600080fd5b50565b60008135905061267881612652565b92915050565b6000819050919050565b6126918161267e565b811461269c57600080fd5b50565b6000813590506126ae81612688565b92915050565b600080604083850312156126cb576126ca612616565b5b60006126d985828601612669565b92505060206126ea8582860161269f565b9150509250929050565b6126fd8161267e565b82525050565b600060208201905061271860008301846126f4565b92915050565b60007fffffffff0000000000000000000000000000000000000000000000000000000082169050919050565b6127538161271e565b811461275e57600080fd5b50565b6000813590506127708161274a565b92915050565b60006020828403121561278c5761278b612616565b5b600061279a84828501612761565b91505092915050565b60008115159050919050565b6127b8816127a3565b82525050565b60006020820190506127d360008301846127af565b92915050565b600080fd5b600080fd5b6000601f19601f8301169050919050565b7f4e487b7100000000000000000000000000000000000000000000000000000000600052604160045260246000fd5b61282c826127e3565b810181811067ffffffffffffffff8211171561284b5761284a6127f4565b5b80604052505050565b600061285e61260c565b905061286a8282612823565b919050565b600067ffffffffffffffff82111561288a576128896127f4565b5b612893826127e3565b9050602081019050919050565b82818337600083830152505050565b60006128c26128bd8461286f565b612854565b9050828152602081018484840111156128de576128dd6127de565b5b6128e98482856128a0565b509392505050565b600082601f830112612906576129056127d9565b5b81356129168482602086016128af565b91505092915050565b60006020828403121561293557612934612616565b5b600082013567ffffffffffffffff8111156129535761295261261b565b5b61295f848285016128f1565b91505092915050565b60006020828403121561297e5761297d612616565b5b600061298c8482850161269f565b91505092915050565b600081519050919050565b600082825260208201905092915050565b60005b838110156129cf5780820151818401526020810190506129b4565b60008484015250505050565b60006129e682612995565b6129f081856129a0565b9350612a008185602086016129b1565b612a09816127e3565b840191505092915050565b60006020820190508181036000830152612a2e81846129db565b905092915050565b600067ffffffffffffffff821115612a5157612a506127f4565b5b602082029050602081019050919050565b600080fd5b6000612a7a612a7584612a36565b612854565b90508083825260208201905060208402830185811115612a9d57612a9c612a62565b5b835b81811015612ac65780612ab2888261269f565b845260208401935050602081019050612a9f565b5050509392505050565b600082601f830112612ae557612ae46127d9565b5b8135612af5848260208601612a67565b91505092915050565b600067ffffffffffffffff821115612b1957612b186127f4565b5b612b22826127e3565b9050602081019050919050565b6000612b42612b3d84612afe565b612854565b905082815260208101848484011115612b5e57612b5d6127de565b5b612b698482856128a0565b509392505050565b600082601f830112612b8657612b856127d9565b5b8135612b96848260208601612b2f565b91505092915050565b60008060008060808587031215612bb957612bb8612616565b5b6000612bc787828801612669565b945050602085013567ffffffffffffffff811115612be857612be761261b565b5b612bf487828801612ad0565b935050604085013567ffffffffffffffff811115612c1557612c1461261b565b5b612c2187828801612ad0565b925050606085013567ffffffffffffffff811115612c4257612c4161261b565b5b612c4e87828801612b71565b91505092959194509250565b600080600080600060a08688031215612c7657612c75612616565b5b6000612c8488828901612669565b9550506020612c9588828901612669565b945050604086013567ffffffffffffffff811115612cb657612cb561261b565b5b612cc288828901612ad0565b935050606086013567ffffffffffffffff811115612ce357612ce261261b565b5b612cef88828901612ad0565b925050608086013567ffffffffffffffff811115612d1057612d0f61261b565b5b612d1c88828901612b71565b9150509295509295909350565b600067ffffffffffffffff821115612d4457612d436127f4565b5b602082029050602081019050919050565b6000612d68612d6384612d29565b612854565b90508083825260208201905060208402830185811115612d8b57612d8a612a62565b5b835b81811015612db45780612da08882612669565b845260208401935050602081019050612d8d565b5050509392505050565b600082601f830112612dd357612dd26127d9565b5b8135612de3848260208601612d55565b91505092915050565b60008060408385031215612e0357612e02612616565b5b600083013567ffffffffffffffff811115612e2157612e2061261b565b5b612e2d85828601612dbe565b925050602083013567ffffffffffffffff811115612e4e57612e4d61261b565b5b612e5a85828601612ad0565b9150509250929050565b600081519050919050565b600082825260208201905092915050565b6000819050602082019050919050565b612e998161267e565b82525050565b6000612eab8383612e90565b60208301905092915050565b6000602082019050919050565b6000612ecf82612e64565b612ed98185612e6f565b9350612ee483612e80565b8060005b83811015612f15578151612efc8882612e9f565b9750612f0783612eb7565b925050600181019050612ee8565b5085935050505092915050565b60006020820190508181036000830152612f3c8184612ec4565b905092915050565b600080600060608486031215612f5d57612f5c612616565b5b6000612f6b86828701612669565b935050602084013567ffffffffffffffff811115612f8c57612f8b61261b565b5b612f9886828701612ad0565b925050604084013567ffffffffffffffff811115612fb957612fb861261b565b5b612fc586828701612ad0565b9150509250925092565b60008060008060808587031215612fe957612fe8612616565b5b6000612ff787828801612669565b94505060206130088782880161269f565b93505060406130198782880161269f565b925050606085013567ffffffffffffffff81111561303a5761303961261b565b5b61304687828801612b71565b91505092959194509250565b61305b81612640565b82525050565b60006020820190506130766000830184613052565b92915050565b613085816127a3565b811461309057600080fd5b50565b6000813590506130a28161307c565b92915050565b600080604083850312156130bf576130be612616565b5b60006130cd85828601612669565b92505060206130de85828601613093565b9150509250929050565b600080604083850312156130ff576130fe612616565b5b600061310d85828601612669565b925050602061311e85828601612669565b9150509250929050565b600080600080600060a0868803121561314457613143612616565b5b600061315288828901612669565b955050602061316388828901612669565b94505060406131748882890161269f565b93505060606131858882890161269f565b925050608086013567ffffffffffffffff8111156131a6576131a561261b565b5b6131b288828901612b71565b9150509295509295909350565b6000602082840312156131d5576131d4612616565b5b60006131e384828501612669565b91505092915050565b60008060006060848603121561320557613204612616565b5b600061321386828701612669565b93505060206132248682870161269f565b92505060406132358682870161269f565b9150509250925092565b7f455243313135353a2061646472657373207a65726f206973206e6f742061207660008201527f616c6964206f776e657200000000000000000000000000000000000000000000602082015250565b600061329b602a836129a0565b91506132a68261323f565b604082019050919050565b600060208201905081810360008301526132ca8161328e565b9050919050565b600081905092915050565b60006132e782612995565b6132f181856132d1565b93506133018185602086016129b1565b80840191505092915050565b7f2e6a736f6e000000000000000000000000000000000000000000000000000000600082015250565b60006133436005836132d1565b915061334e8261330d565b600582019050919050565b600061336582856132dc565b915061337182846132dc565b915061337c82613336565b91508190509392505050565b7f455243313135353a2063616c6c6572206973206e6f7420746f6b656e206f776e60008201527f6572206f7220617070726f766564000000000000000000000000000000000000602082015250565b60006133e4602e836129a0565b91506133ef82613388565b604082019050919050565b60006020820190508181036000830152613413816133d7565b9050919050565b7f455243313135353a206163636f756e747320616e6420696473206c656e67746860008201527f206d69736d617463680000000000000000000000000000000000000000000000602082015250565b60006134766029836129a0565b91506134818261341a565b604082019050919050565b600060208201905081810360008301526134a581613469565b9050919050565b7f4e487b7100000000000000000000000000000000000000000000000000000000600052603260045260246000fd5b7f4e487b7100000000000000000000000000000000000000000000000000000000600052601160045260246000fd5b60006135158261267e565b91507fffffffffffffffffffffffffffffffffffffffffffffffffffffffffffffffff8203613547576135466134db565b5b600182019050919050565b7f4f776e61626c653a206e6577206f776e657220697320746865207a65726f206160008201527f6464726573730000000000000000000000000000000000000000000000000000602082015250565b60006135ae6026836129a0565b91506135b982613552565b604082019050919050565b600060208201905081810360008301526135dd816135a1565b9050919050565b7f4f776e61626c653a2063616c6c6572206973206e6f7420746865206f776e6572600082015250565b600061361a6020836129a0565b9150613625826135e4565b602082019050919050565b600060208201905081810360008301526136498161360d565b9050919050565b7f4e487b7100000000000000000000000000000000000000000000000000000000600052602260045260246000fd5b6000600282049050600182168061369757607f821691505b6020821081036136aa576136a9613650565b5b50919050565b60008190508160005260206000209050919050565b60006020601f8301049050919050565b600082821b905092915050565b6000600883026137127fffffffffffffffffffffffffffffffffffffffffffffffffffffffffffffffff826136d5565b61371c86836136d5565b95508019841693508086168417925050509392505050565b6000819050919050565b600061375961375461374f8461267e565b613734565b61267e565b9050919050565b6000819050919050565b6137738361373e565b61378761377f82613760565b8484546136e2565b825550505050565b600090565b61379c61378f565b6137a781848461376a565b505050565b5b818110156137cb576137c0600082613794565b6001810190506137ad565b5050565b601f821115613810576137e1816136b0565b6137ea846136c5565b810160208510156137f9578190505b61380d613805856136c5565b8301826137ac565b50505b505050565b600082821c905092915050565b600061383360001984600802613815565b1980831691505092915050565b600061384c8383613822565b9150826002028217905092915050565b61386582612995565b67ffffffffffffffff81111561387e5761387d6127f4565b5b613888825461367f565b6138938282856137cf565b600060209050601f8311600181146138c657600084156138b4578287015190505b6138be8582613840565b865550613926565b601f1984166138d4866136b0565b60005b828110156138fc578489015182556001820191506020850194506020810190506138d7565b868310156139195784890151613915601f891682613822565b8355505b6001600288020188555050505b505050505050565b7f4e487b7100000000000000000000000000000000000000000000000000000000600052601260045260246000fd5b7f455243313135353a206d696e7420746f20746865207a65726f2061646472657360008201527f7300000000000000000000000000000000000000000000000000000000000000602082015250565b60006139b96021836129a0565b91506139c48261395d565b604082019050919050565b600060208201905081810360008301526139e8816139ac565b9050919050565b7f455243313135353a2069647320616e6420616d6f756e7473206c656e6774682060008201527f6d69736d61746368000000000000000000000000000000000000000000000000602082015250565b6000613a4b6028836129a0565b9150613a56826139ef565b604082019050919050565b60006020820190508181036000830152613a7a81613a3e565b9050919050565b6000613a8c8261267e565b9150613a978361267e565b9250828201905080821115613aaf57613aae6134db565b5b92915050565b60006040820190508181036000830152613acf8185612ec4565b90508181036020830152613ae38184612ec4565b90509392505050565b7f455243313135353a207472616e7366657220746f20746865207a65726f20616460008201527f6472657373000000000000000000000000000000000000000000000000000000602082015250565b6000613b486025836129a0565b9150613b5382613aec565b604082019050919050565b60006020820190508181036000830152613b7781613b3b565b9050919050565b7f455243313135353a20696e73756666696369656e742062616c616e636520666f60008201527f72207472616e7366657200000000000000000000000000000000000000000000602082015250565b6000613bda602a836129a0565b9150613be582613b7e565b604082019050919050565b60006020820190508181036000830152613c0981613bcd565b9050919050565b7f455243313135353a206275726e2066726f6d20746865207a65726f206164647260008201527f6573730000000000000000000000000000000000000000000000000000000000602082015250565b6000613c6c6023836129a0565b9150613c7782613c10565b604082019050919050565b60006020820190508181036000830152613c9b81613c5f565b9050919050565b7f455243313135353a206275726e20616d6f756e7420657863656564732062616c60008201527f616e636500000000000000000000000000000000000000000000000000000000602082015250565b6000613cfe6024836129a0565b9150613d0982613ca2565b604082019050919050565b60006020820190508181036000830152613d2d81613cf1565b9050919050565b6000604082019050613d4960008301856126f4565b613d5660208301846126f4565b9392505050565b7f455243313135353a2073657474696e6720617070726f76616c2073746174757360008201527f20666f722073656c660000000000000000000000000000000000000000000000602082015250565b6000613db96029836129a0565b9150613dc482613d5d565b604082019050919050565b60006020820190508181036000830152613de881613dac565b9050919050565b600081519050919050565b600082825260208201905092915050565b6000613e1682613def565b613e208185613dfa565b9350613e308185602086016129b1565b613e39816127e3565b840191505092915050565b600060a082019050613e596000830188613052565b613e666020830187613052565b8181036040830152613e788186612ec4565b90508181036060830152613e8c8185612ec4565b90508181036080830152613ea08184613e0b565b90509695505050505050565b600081519050613ebb8161274a565b92915050565b600060208284031215613ed757613ed6612616565b5b6000613ee584828501613eac565b91505092915050565b60008160e01c9050919050565b600060033d1115613f1a5760046000803e613f17600051613eee565b90505b90565b600060443d10613faa57613f2f61260c565b60043d036004823e80513d602482011167ffffffffffffffff82111715613f57575050613faa565b808201805167ffffffffffffffff811115613f755750505050613faa565b80602083010160043d038501811115613f92575050505050613faa565b613fa182602001850186612823565b82955050505050505b90565b7f455243313135353a207472616e7366657220746f206e6f6e2d4552433131353560008201527f526563656976657220696d706c656d656e746572000000000000000000000000602082015250565b60006140096034836129a0565b915061401482613fad565b604082019050919050565b6000602082019050818103600083015261403881613ffc565b9050919050565b7f455243313135353a204552433131353552656365697665722072656a6563746560008201527f6420746f6b656e73000000000000000000000000000000000000000000000000602082015250565b600061409b6028836129a0565b91506140a68261403f565b604082019050919050565b600060208201905081810360008301526140ca8161408e565b9050919050565b600060a0820190506140e66000830188613052565b6140f36020830187613052565b61410060408301866126f4565b61410d60608301856126f4565b818103608083015261411f8184613e0b565b90509695505050505050565b7f455243313135353a206275726e20616d6f756e74206578636565647320746f7460008201527f616c537570706c79000000000000000000000000000000000000000000000000602082015250565b60006141876028836129a0565b91506141928261412b565b604082019050919050565b600060208201905081810360008301526141b68161417a565b905091905056fe697066733a2f2f516d566161794551464b6a4274746d5a58695636424372673538354c503554487047684542316e45626938534134a26469706673582212205253d12f8b73d9c4b011fd8909f1f8ce947d152ce80243600e241eab36e4574f64736f6c63430008120033697066733a2f2f516d61633839735a545347764b6b795961327672786452616b5052456147464a534e4a52525765747a544c51544d2f",
			"opcodes": "PUSH1 0x80 PUSH1 0x40 MSTORE CALLVALUE DUP1 ISZERO PUSH3 0x11 JUMPI PUSH1 0x0 DUP1 REVERT JUMPDEST POP PUSH1 0x40 MLOAD DUP1 PUSH1 0x60 ADD PUSH1 0x40 MSTORE DUP1 PUSH1 0x36 DUP2 MSTORE PUSH1 0x20 ADD PUSH3 0x46E0 PUSH1 0x36 SWAP2 CODECOPY PUSH3 0x3D DUP2 PUSH3 0x64 PUSH1 0x20 SHL PUSH1 0x20 SHR JUMP JUMPDEST POP PUSH3 0x5E PUSH3 0x52 PUSH3 0x79 PUSH1 0x20 SHL PUSH1 0x20 SHR JUMP JUMPDEST PUSH3 0x81 PUSH1 0x20 SHL PUSH1 0x20 SHR JUMP JUMPDEST PUSH3 0x4A8 JUMP JUMPDEST DUP1 PUSH1 0x2 SWAP1 DUP2 PUSH3 0x75 SWAP2 SWAP1 PUSH3 0x3C1 JUMP JUMPDEST POP POP JUMP JUMPDEST PUSH1 0x0 CALLER SWAP1 POP SWAP1 JUMP JUMPDEST PUSH1 0x0 PUSH1 0x3 PUSH1 0x0 SWAP1 SLOAD SWAP1 PUSH2 0x100 EXP SWAP1 DIV PUSH20 0xFFFFFFFFFFFFFFFFFFFFFFFFFFFFFFFFFFFFFFFF AND SWAP1 POP DUP2 PUSH1 0x3 PUSH1 0x0 PUSH2 0x100 EXP DUP2 SLOAD DUP2 PUSH20 0xFFFFFFFFFFFFFFFFFFFFFFFFFFFFFFFFFFFFFFFF MUL NOT AND SWAP1 DUP4 PUSH20 0xFFFFFFFFFFFFFFFFFFFFFFFFFFFFFFFFFFFFFFFF AND MUL OR SWAP1 SSTORE POP DUP2 PUSH20 0xFFFFFFFFFFFFFFFFFFFFFFFFFFFFFFFFFFFFFFFF AND DUP2 PUSH20 0xFFFFFFFFFFFFFFFFFFFFFFFFFFFFFFFFFFFFFFFF AND PUSH32 0x8BE0079C531659141344CD1FD0A4F28419497F9722A3DAAFE3B4186F6B6457E0 PUSH1 0x40 MLOAD PUSH1 0x40 MLOAD DUP1 SWAP2 SUB SWAP1 LOG3 POP POP JUMP JUMPDEST PUSH1 0x0 DUP2 MLOAD SWAP1 POP SWAP2 SWAP1 POP JUMP JUMPDEST PUSH32 0x4E487B7100000000000000000000000000000000000000000000000000000000 PUSH1 0x0 MSTORE PUSH1 0x41 PUSH1 0x4 MSTORE PUSH1 0x24 PUSH1 0x0 REVERT JUMPDEST PUSH32 0x4E487B7100000000000000000000000000000000000000000000000000000000 PUSH1 0x0 MSTORE PUSH1 0x22 PUSH1 0x4 MSTORE PUSH1 0x24 PUSH1 0x0 REVERT JUMPDEST PUSH1 0x0 PUSH1 0x2 DUP3 DIV SWAP1 POP PUSH1 0x1 DUP3 AND DUP1 PUSH3 0x1C9 JUMPI PUSH1 0x7F DUP3 AND SWAP2 POP JUMPDEST PUSH1 0x20 DUP3 LT DUP2 SUB PUSH3 0x1DF JUMPI PUSH3 0x1DE PUSH3 0x181 JUMP JUMPDEST JUMPDEST POP SWAP2 SWAP1 POP JUMP JUMPDEST PUSH1 0x0 DUP2 SWAP1 POP DUP2 PUSH1 0x0 MSTORE PUSH1 0x20 PUSH1 0x0 KECCAK256 SWAP1 POP SWAP2 SWAP1 POP JUMP JUMPDEST PUSH1 0x0 PUSH1 0x20 PUSH1 0x1F DUP4 ADD DIV SWAP1 POP SWAP2 SWAP1 POP JUMP JUMPDEST PUSH1 0x0 DUP3 DUP3 SHL SWAP1 POP SWAP3 SWAP2 POP POP JUMP JUMPDEST PUSH1 0x0 PUSH1 0x8 DUP4 MUL PUSH3 0x249 PUSH32 0xFFFFFFFFFFFFFFFFFFFFFFFFFFFFFFFFFFFFFFFFFFFFFFFFFFFFFFFFFFFFFFFF DUP3 PUSH3 0x20A JUMP JUMPDEST PUSH3 0x255 DUP7 DUP4 PUSH3 0x20A JUMP JUMPDEST SWAP6 POP DUP1 NOT DUP5 AND SWAP4 POP DUP1 DUP7 AND DUP5 OR SWAP3 POP POP POP SWAP4 SWAP3 POP POP POP JUMP JUMPDEST PUSH1 0x0 DUP2 SWAP1 POP SWAP2 SWAP1 POP JUMP JUMPDEST PUSH1 0x0 DUP2 SWAP1 POP SWAP2 SWAP1 POP JUMP JUMPDEST PUSH1 0x0 PUSH3 0x2A2 PUSH3 0x29C PUSH3 0x296 DUP5 PUSH3 0x26D JUMP JUMPDEST PUSH3 0x277 JUMP JUMPDEST PUSH3 0x26D JUMP JUMPDEST SWAP1 POP SWAP2 SWAP1 POP JUMP JUMPDEST PUSH1 0x0 DUP2 SWAP1 POP SWAP2 SWAP1 POP JUMP JUMPDEST PUSH3 0x2BE DUP4 PUSH3 0x281 JUMP JUMPDEST PUSH3 0x2D6 PUSH3 0x2CD DUP3 PUSH3 0x2A9 JUMP JUMPDEST DUP5 DUP5 SLOAD PUSH3 0x217 JUMP JUMPDEST DUP3 SSTORE POP POP POP POP JUMP JUMPDEST PUSH1 0x0 SWAP1 JUMP JUMPDEST PUSH3 0x2ED PUSH3 0x2DE JUMP JUMPDEST PUSH3 0x2FA DUP2 DUP5 DUP5 PUSH3 0x2B3 JUMP JUMPDEST POP POP POP JUMP JUMPDEST JUMPDEST DUP2 DUP2 LT ISZERO PUSH3 0x322 JUMPI PUSH3 0x316 PUSH1 0x0 DUP3 PUSH3 0x2E3 JUMP JUMPDEST PUSH1 0x1 DUP2 ADD SWAP1 POP PUSH3 0x300 JUMP JUMPDEST POP POP JUMP JUMPDEST PUSH1 0x1F DUP3 GT ISZERO PUSH3 0x371 JUMPI PUSH3 0x33B DUP2 PUSH3 0x1E5 JUMP JUMPDEST PUSH3 0x346 DUP5 PUSH3 0x1FA JUMP JUMPDEST DUP2 ADD PUSH1 0x20 DUP6 LT ISZERO PUSH3 0x356 JUMPI DUP2 SWAP1 POP JUMPDEST PUSH3 0x36E PUSH3 0x365 DUP6 PUSH3 0x1FA JUMP JUMPDEST DUP4 ADD DUP3 PUSH3 0x2FF JUMP JUMPDEST POP POP JUMPDEST POP POP POP JUMP JUMPDEST PUSH1 0x0 DUP3 DUP3 SHR SWAP1 POP SWAP3 SWAP2 POP POP JUMP JUMPDEST PUSH1 0x0 PUSH3 0x396 PUSH1 0x0 NOT DUP5 PUSH1 0x8 MUL PUSH3 0x376 JUMP JUMPDEST NOT DUP1 DUP4 AND SWAP2 POP POP SWAP3 SWAP2 POP POP JUMP JUMPDEST PUSH1 0x0 PUSH3 0x3B1 DUP4 DUP4 PUSH3 0x383 JUMP JUMPDEST SWAP2 POP DUP3 PUSH1 0x2 MUL DUP3 OR SWAP1 POP SWAP3 SWAP2 POP POP JUMP JUMPDEST PUSH3 0x3CC DUP3 PUSH3 0x147 JUMP JUMPDEST PUSH8 0xFFFFFFFFFFFFFFFF DUP2 GT ISZERO PUSH3 0x3E8 JUMPI PUSH3 0x3E7 PUSH3 0x152 JUMP JUMPDEST JUMPDEST PUSH3 0x3F4 DUP3 SLOAD PUSH3 0x1B0 JUMP JUMPDEST PUSH3 0x401 DUP3 DUP3 DUP6 PUSH3 0x326 JUMP JUMPDEST PUSH1 0x0 PUSH1 0x20 SWAP1 POP PUSH1 0x1F DUP4 GT PUSH1 0x1 DUP2 EQ PUSH3 0x439 JUMPI PUSH1 0x0 DUP5 ISZERO PUSH3 0x424 JUMPI DUP3 DUP8 ADD MLOAD SWAP1 POP JUMPDEST PUSH3 0x430 DUP6 DUP3 PUSH3 0x3A3 JUMP JUMPDEST DUP7 SSTORE POP PUSH3 0x4A0 JUMP JUMPDEST PUSH1 0x1F NOT DUP5 AND PUSH3 0x449 DUP7 PUSH3 0x1E5 JUMP JUMPDEST PUSH1 0x0 JUMPDEST DUP3 DUP2 LT ISZERO PUSH3 0x473 JUMPI DUP5 DUP10 ADD MLOAD DUP3 SSTORE PUSH1 0x1 DUP3 ADD SWAP2 POP PUSH1 0x20 DUP6 ADD SWAP5 POP PUSH1 0x20 DUP2 ADD SWAP1 POP PUSH3 0x44C JUMP JUMPDEST DUP7 DUP4 LT ISZERO PUSH3 0x493 JUMPI DUP5 DUP10 ADD MLOAD PUSH3 0x48F PUSH1 0x1F DUP10 AND DUP3 PUSH3 0x383 JUMP JUMPDEST DUP4 SSTORE POP JUMPDEST PUSH1 0x1 PUSH1 0x2 DUP9 MUL ADD DUP9 SSTORE POP POP POP JUMPDEST POP POP POP POP POP POP JUMP JUMPDEST PUSH2 0x4228 DUP1 PUSH3 0x4B8 PUSH1 0x0 CODECOPY PUSH1 0x0 RETURN INVALID PUSH1 0x80 PUSH1 0x40 MSTORE CALLVALUE DUP1 ISZERO PUSH2 0x10 JUMPI PUSH1 0x0 DUP1 REVERT JUMPDEST POP PUSH1 0x4 CALLDATASIZE LT PUSH2 0x120 JUMPI PUSH1 0x0 CALLDATALOAD PUSH1 0xE0 SHR DUP1 PUSH4 0x715018A6 GT PUSH2 0xAD JUMPI DUP1 PUSH4 0xE8A3D485 GT PUSH2 0x71 JUMPI DUP1 PUSH4 0xE8A3D485 EQ PUSH2 0x315 JUMPI DUP1 PUSH4 0xE985E9C5 EQ PUSH2 0x333 JUMPI DUP1 PUSH4 0xF242432A EQ PUSH2 0x363 JUMPI DUP1 PUSH4 0xF2FDE38B EQ PUSH2 0x37F JUMPI DUP1 PUSH4 0xF5298ACA EQ PUSH2 0x39B JUMPI PUSH2 0x120 JUMP JUMPDEST DUP1 PUSH4 0x715018A6 EQ PUSH2 0x285 JUMPI DUP1 PUSH4 0x731133E9 EQ PUSH2 0x28F JUMPI DUP1 PUSH4 0x8DA5CB5B EQ PUSH2 0x2AB JUMPI DUP1 PUSH4 0xA22CB465 EQ PUSH2 0x2C9 JUMPI DUP1 PUSH4 0xBD85B039 EQ PUSH2 0x2E5 JUMPI PUSH2 0x120 JUMP JUMPDEST DUP1 PUSH4 0x1F7FDFFA GT PUSH2 0xF4 JUMPI DUP1 PUSH4 0x1F7FDFFA EQ PUSH2 0x1D1 JUMPI DUP1 PUSH4 0x2EB2C2D6 EQ PUSH2 0x1ED JUMPI DUP1 PUSH4 0x4E1273F4 EQ PUSH2 0x209 JUMPI DUP1 PUSH4 0x4F558E79 EQ PUSH2 0x239 JUMPI DUP1 PUSH4 0x6B20C454 EQ PUSH2 0x269 JUMPI PUSH2 0x120 JUMP JUMPDEST DUP1 PUSH3 0xFDD58E EQ PUSH2 0x125 JUMPI DUP1 PUSH4 0x1FFC9A7 EQ PUSH2 0x155 JUMPI DUP1 PUSH4 0x2FE5305 EQ PUSH2 0x185 JUMPI DUP1 PUSH4 0xE89341C EQ PUSH2 0x1A1 JUMPI JUMPDEST PUSH1 0x0 DUP1 REVERT JUMPDEST PUSH2 0x13F PUSH1 0x4 DUP1 CALLDATASIZE SUB DUP2 ADD SWAP1 PUSH2 0x13A SWAP2 SWAP1 PUSH2 0x26B4 JUMP JUMPDEST PUSH2 0x3B7 JUMP JUMPDEST PUSH1 0x40 MLOAD PUSH2 0x14C SWAP2 SWAP1 PUSH2 0x2703 JUMP JUMPDEST PUSH1 0x40 MLOAD DUP1 SWAP2 SUB SWAP1 RETURN JUMPDEST PUSH2 0x16F PUSH1 0x4 DUP1 CALLDATASIZE SUB DUP2 ADD SWAP1 PUSH2 0x16A SWAP2 SWAP1 PUSH2 0x2776 JUMP JUMPDEST PUSH2 0x47F JUMP JUMPDEST PUSH1 0x40 MLOAD PUSH2 0x17C SWAP2 SWAP1 PUSH2 0x27BE JUMP JUMPDEST PUSH1 0x40 MLOAD DUP1 SWAP2 SUB SWAP1 RETURN JUMPDEST PUSH2 0x19F PUSH1 0x4 DUP1 CALLDATASIZE SUB DUP2 ADD SWAP1 PUSH2 0x19A SWAP2 SWAP1 PUSH2 0x291F JUMP JUMPDEST PUSH2 0x561 JUMP JUMPDEST STOP JUMPDEST PUSH2 0x1BB PUSH1 0x4 DUP1 CALLDATASIZE SUB DUP2 ADD SWAP1 PUSH2 0x1B6 SWAP2 SWAP1 PUSH2 0x2968 JUMP JUMPDEST PUSH2 0x575 JUMP JUMPDEST PUSH1 0x40 MLOAD PUSH2 0x1C8 SWAP2 SWAP1 PUSH2 0x2A14 JUMP JUMPDEST PUSH1 0x40 MLOAD DUP1 SWAP2 SUB SWAP1 RETURN JUMPDEST PUSH2 0x1EB PUSH1 0x4 DUP1 CALLDATASIZE SUB DUP2 ADD SWAP1 PUSH2 0x1E6 SWAP2 SWAP1 PUSH2 0x2B9F JUMP JUMPDEST PUSH2 0x5B0 JUMP JUMPDEST STOP JUMPDEST PUSH2 0x207 PUSH1 0x4 DUP1 CALLDATASIZE SUB DUP2 ADD SWAP1 PUSH2 0x202 SWAP2 SWAP1 PUSH2 0x2C5A JUMP JUMPDEST PUSH2 0x5CA JUMP JUMPDEST STOP JUMPDEST PUSH2 0x223 PUSH1 0x4 DUP1 CALLDATASIZE SUB DUP2 ADD SWAP1 PUSH2 0x21E SWAP2 SWAP1 PUSH2 0x2DEC JUMP JUMPDEST PUSH2 0x66B JUMP JUMPDEST PUSH1 0x40 MLOAD PUSH2 0x230 SWAP2 SWAP1 PUSH2 0x2F22 JUMP JUMPDEST PUSH1 0x40 MLOAD DUP1 SWAP2 SUB SWAP1 RETURN JUMPDEST PUSH2 0x253 PUSH1 0x4 DUP1 CALLDATASIZE SUB DUP2 ADD SWAP1 PUSH2 0x24E SWAP2 SWAP1 PUSH2 0x2968 JUMP JUMPDEST PUSH2 0x784 JUMP JUMPDEST PUSH1 0x40 MLOAD PUSH2 0x260 SWAP2 SWAP1 PUSH2 0x27BE JUMP JUMPDEST PUSH1 0x40 MLOAD DUP1 SWAP2 SUB SWAP1 RETURN JUMPDEST PUSH2 0x283 PUSH1 0x4 DUP1 CALLDATASIZE SUB DUP2 ADD SWAP1 PUSH2 0x27E SWAP2 SWAP1 PUSH2 0x2F44 JUMP JUMPDEST PUSH2 0x798 JUMP JUMPDEST STOP JUMPDEST PUSH2 0x28D PUSH2 0x835 JUMP JUMPDEST STOP JUMPDEST PUSH2 0x2A9 PUSH1 0x4 DUP1 CALLDATASIZE SUB DUP2 ADD SWAP1 PUSH2 0x2A4 SWAP2 SWAP1 PUSH2 0x2FCF JUMP JUMPDEST PUSH2 0x849 JUMP JUMPDEST STOP JUMPDEST PUSH2 0x2B3 PUSH2 0x863 JUMP JUMPDEST PUSH1 0x40 MLOAD PUSH2 0x2C0 SWAP2 SWAP1 PUSH2 0x3061 JUMP JUMPDEST PUSH1 0x40 MLOAD DUP1 SWAP2 SUB SWAP1 RETURN JUMPDEST PUSH2 0x2E3 PUSH1 0x4 DUP1 CALLDATASIZE SUB DUP2 ADD SWAP1 PUSH2 0x2DE SWAP2 SWAP1 PUSH2 0x30A8 JUMP JUMPDEST PUSH2 0x88D JUMP JUMPDEST STOP JUMPDEST PUSH2 0x2FF PUSH1 0x4 DUP1 CALLDATASIZE SUB DUP2 ADD SWAP1 PUSH2 0x2FA SWAP2 SWAP1 PUSH2 0x2968 JUMP JUMPDEST PUSH2 0x8A3 JUMP JUMPDEST PUSH1 0x40 MLOAD PUSH2 0x30C SWAP2 SWAP1 PUSH2 0x2703 JUMP JUMPDEST PUSH1 0x40 MLOAD DUP1 SWAP2 SUB SWAP1 RETURN JUMPDEST PUSH2 0x31D PUSH2 0x8C0 JUMP JUMPDEST PUSH1 0x40 MLOAD PUSH2 0x32A SWAP2 SWAP1 PUSH2 0x2A14 JUMP JUMPDEST PUSH1 0x40 MLOAD DUP1 SWAP2 SUB SWAP1 RETURN JUMPDEST PUSH2 0x34D PUSH1 0x4 DUP1 CALLDATASIZE SUB DUP2 ADD SWAP1 PUSH2 0x348 SWAP2 SWAP1 PUSH2 0x30E8 JUMP JUMPDEST PUSH2 0x8E0 JUMP JUMPDEST PUSH1 0x40 MLOAD PUSH2 0x35A SWAP2 SWAP1 PUSH2 0x27BE JUMP JUMPDEST PUSH1 0x40 MLOAD DUP1 SWAP2 SUB SWAP1 RETURN JUMPDEST PUSH2 0x37D PUSH1 0x4 DUP1 CALLDATASIZE SUB DUP2 ADD SWAP1 PUSH2 0x378 SWAP2 SWAP1 PUSH2 0x3128 JUMP JUMPDEST PUSH2 0x974 JUMP JUMPDEST STOP JUMPDEST PUSH2 0x399 PUSH1 0x4 DUP1 CALLDATASIZE SUB DUP2 ADD SWAP1 PUSH2 0x394 SWAP2 SWAP1 PUSH2 0x31BF JUMP JUMPDEST PUSH2 0xA15 JUMP JUMPDEST STOP JUMPDEST PUSH2 0x3B5 PUSH1 0x4 DUP1 CALLDATASIZE SUB DUP2 ADD SWAP1 PUSH2 0x3B0 SWAP2 SWAP1 PUSH2 0x31EC JUMP JUMPDEST PUSH2 0xA98 JUMP JUMPDEST STOP JUMPDEST PUSH1 0x0 DUP1 PUSH20 0xFFFFFFFFFFFFFFFFFFFFFFFFFFFFFFFFFFFFFFFF AND DUP4 PUSH20 0xFFFFFFFFFFFFFFFFFFFFFFFFFFFFFFFFFFFFFFFF AND SUB PUSH2 0x427 JUMPI PUSH1 0x40 MLOAD PUSH32 0x8C379A000000000000000000000000000000000000000000000000000000000 DUP2 MSTORE PUSH1 0x4 ADD PUSH2 0x41E SWAP1 PUSH2 0x32B1 JUMP JUMPDEST PUSH1 0x40 MLOAD DUP1 SWAP2 SUB SWAP1 REVERT JUMPDEST PUSH1 0x0 DUP1 DUP4 DUP2 MSTORE PUSH1 0x20 ADD SWAP1 DUP2 MSTORE PUSH1 0x20 ADD PUSH1 0x0 KECCAK256 PUSH1 0x0 DUP5 PUSH20 0xFFFFFFFFFFFFFFFFFFFFFFFFFFFFFFFFFFFFFFFF AND PUSH20 0xFFFFFFFFFFFFFFFFFFFFFFFFFFFFFFFFFFFFFFFF AND DUP2 MSTORE PUSH1 0x20 ADD SWAP1 DUP2 MSTORE PUSH1 0x20 ADD PUSH1 0x0 KECCAK256 SLOAD SWAP1 POP SWAP3 SWAP2 POP POP JUMP JUMPDEST PUSH1 0x0 PUSH32 0xD9B67A2600000000000000000000000000000000000000000000000000000000 PUSH28 0xFFFFFFFFFFFFFFFFFFFFFFFFFFFFFFFFFFFFFFFFFFFFFFFFFFFFFFFF NOT AND DUP3 PUSH28 0xFFFFFFFFFFFFFFFFFFFFFFFFFFFFFFFFFFFFFFFFFFFFFFFFFFFFFFFF NOT AND EQ DUP1 PUSH2 0x54A JUMPI POP PUSH32 0xE89341C00000000000000000000000000000000000000000000000000000000 PUSH28 0xFFFFFFFFFFFFFFFFFFFFFFFFFFFFFFFFFFFFFFFFFFFFFFFFFFFFFFFF NOT AND DUP3 PUSH28 0xFFFFFFFFFFFFFFFFFFFFFFFFFFFFFFFFFFFFFFFFFFFFFFFFFFFFFFFF NOT AND EQ JUMPDEST DUP1 PUSH2 0x55A JUMPI POP PUSH2 0x559 DUP3 PUSH2 0xB35 JUMP JUMPDEST JUMPDEST SWAP1 POP SWAP2 SWAP1 POP JUMP JUMPDEST PUSH2 0x569 PUSH2 0xB9F JUMP JUMPDEST PUSH2 0x572 DUP2 PUSH2 0xC1D JUMP JUMPDEST POP JUMP JUMPDEST PUSH1 0x60 PUSH2 0x580 DUP3 PUSH2 0xC30 JUMP JUMPDEST PUSH2 0x589 DUP4 PUSH2 0xCC4 JUMP JUMPDEST PUSH1 0x40 MLOAD PUSH1 0x20 ADD PUSH2 0x59A SWAP3 SWAP2 SWAP1 PUSH2 0x3359 JUMP JUMPDEST PUSH1 0x40 MLOAD PUSH1 0x20 DUP2 DUP4 SUB SUB DUP2 MSTORE SWAP1 PUSH1 0x40 MSTORE SWAP1 POP SWAP2 SWAP1 POP JUMP JUMPDEST PUSH2 0x5B8 PUSH2 0xB9F JUMP JUMPDEST PUSH2 0x5C4 DUP5 DUP5 DUP5 DUP5 PUSH2 0xD92 JUMP JUMPDEST POP POP POP POP JUMP JUMPDEST PUSH2 0x5D2 PUSH2 0xFBE JUMP JUMPDEST PUSH20 0xFFFFFFFFFFFFFFFFFFFFFFFFFFFFFFFFFFFFFFFF AND DUP6 PUSH20 0xFFFFFFFFFFFFFFFFFFFFFFFFFFFFFFFFFFFFFFFF AND EQ DUP1 PUSH2 0x618 JUMPI POP PUSH2 0x617 DUP6 PUSH2 0x612 PUSH2 0xFBE JUMP JUMPDEST PUSH2 0x8E0 JUMP JUMPDEST JUMPDEST PUSH2 0x657 JUMPI PUSH1 0x40 MLOAD PUSH32 0x8C379A000000000000000000000000000000000000000000000000000000000 DUP2 MSTORE PUSH1 0x4 ADD PUSH2 0x64E SWAP1 PUSH2 0x33FA JUMP JUMPDEST PUSH1 0x40 MLOAD DUP1 SWAP2 SUB SWAP1 REVERT JUMPDEST PUSH2 0x664 DUP6 DUP6 DUP6 DUP6 DUP6 PUSH2 0xFC6 JUMP JUMPDEST POP POP POP POP POP JUMP JUMPDEST PUSH1 0x60 DUP2 MLOAD DUP4 MLOAD EQ PUSH2 0x6B1 JUMPI PUSH1 0x40 MLOAD PUSH32 0x8C379A000000000000000000000000000000000000000000000000000000000 DUP2 MSTORE PUSH1 0x4 ADD PUSH2 0x6A8 SWAP1 PUSH2 0x348C JUMP JUMPDEST PUSH1 0x40 MLOAD DUP1 SWAP2 SUB SWAP1 REVERT JUMPDEST PUSH1 0x0 DUP4 MLOAD PUSH8 0xFFFFFFFFFFFFFFFF DUP2 GT ISZERO PUSH2 0x6CE JUMPI PUSH2 0x6CD PUSH2 0x27F4 JUMP JUMPDEST JUMPDEST PUSH1 0x40 MLOAD SWAP1 DUP1 DUP3 MSTORE DUP1 PUSH1 0x20 MUL PUSH1 0x20 ADD DUP3 ADD PUSH1 0x40 MSTORE DUP1 ISZERO PUSH2 0x6FC JUMPI DUP2 PUSH1 0x20 ADD PUSH1 0x20 DUP3 MUL DUP1 CALLDATASIZE DUP4 CALLDATACOPY DUP1 DUP3 ADD SWAP2 POP POP SWAP1 POP JUMPDEST POP SWAP1 POP PUSH1 0x0 JUMPDEST DUP5 MLOAD DUP2 LT ISZERO PUSH2 0x779 JUMPI PUSH2 0x749 DUP6 DUP3 DUP2 MLOAD DUP2 LT PUSH2 0x721 JUMPI PUSH2 0x720 PUSH2 0x34AC JUMP JUMPDEST JUMPDEST PUSH1 0x20 MUL PUSH1 0x20 ADD ADD MLOAD DUP6 DUP4 DUP2 MLOAD DUP2 LT PUSH2 0x73C JUMPI PUSH2 0x73B PUSH2 0x34AC JUMP JUMPDEST JUMPDEST PUSH1 0x20 MUL PUSH1 0x20 ADD ADD MLOAD PUSH2 0x3B7 JUMP JUMPDEST DUP3 DUP3 DUP2 MLOAD DUP2 LT PUSH2 0x75C JUMPI PUSH2 0x75B PUSH2 0x34AC JUMP JUMPDEST JUMPDEST PUSH1 0x20 MUL PUSH1 0x20 ADD ADD DUP2 DUP2 MSTORE POP POP DUP1 PUSH2 0x772 SWAP1 PUSH2 0x350A JUMP JUMPDEST SWAP1 POP PUSH2 0x702 JUMP JUMPDEST POP DUP1 SWAP2 POP POP SWAP3 SWAP2 POP POP JUMP JUMPDEST PUSH1 0x0 DUP1 PUSH2 0x790 DUP4 PUSH2 0x8A3 JUMP JUMPDEST GT SWAP1 POP SWAP2 SWAP1 POP JUMP JUMPDEST PUSH2 0x7A0 PUSH2 0xFBE JUMP JUMPDEST PUSH20 0xFFFFFFFFFFFFFFFFFFFFFFFFFFFFFFFFFFFFFFFF AND DUP4 PUSH20 0xFFFFFFFFFFFFFFFFFFFFFFFFFFFFFFFFFFFFFFFF AND EQ DUP1 PUSH2 0x7E6 JUMPI POP PUSH2 0x7E5 DUP4 PUSH2 0x7E0 PUSH2 0xFBE JUMP JUMPDEST PUSH2 0x8E0 JUMP JUMPDEST JUMPDEST PUSH2 0x825 JUMPI PUSH1 0x40 MLOAD PUSH32 0x8C379A000000000000000000000000000000000000000000000000000000000 DUP2 MSTORE PUSH1 0x4 ADD PUSH2 0x81C SWAP1 PUSH2 0x33FA JUMP JUMPDEST PUSH1 0x40 MLOAD DUP1 SWAP2 SUB SWAP1 REVERT JUMPDEST PUSH2 0x830 DUP4 DUP4 DUP4 PUSH2 0x12E7 JUMP JUMPDEST POP POP POP JUMP JUMPDEST PUSH2 0x83D PUSH2 0xB9F JUMP JUMPDEST PUSH2 0x847 PUSH1 0x0 PUSH2 0x15B5 JUMP JUMPDEST JUMP JUMPDEST PUSH2 0x851 PUSH2 0xB9F JUMP JUMPDEST PUSH2 0x85D DUP5 DUP5 DUP5 DUP5 PUSH2 0x167B JUMP JUMPDEST POP POP POP POP JUMP JUMPDEST PUSH1 0x0 PUSH1 0x3 PUSH1 0x0 SWAP1 SLOAD SWAP1 PUSH2 0x100 EXP SWAP1 DIV PUSH20 0xFFFFFFFFFFFFFFFFFFFFFFFFFFFFFFFFFFFFFFFF AND SWAP1 POP SWAP1 JUMP JUMPDEST PUSH2 0x89F PUSH2 0x898 PUSH2 0xFBE JUMP JUMPDEST DUP4 DUP4 PUSH2 0x182B JUMP JUMPDEST POP POP JUMP JUMPDEST PUSH1 0x0 PUSH1 0x4 PUSH1 0x0 DUP4 DUP2 MSTORE PUSH1 0x20 ADD SWAP1 DUP2 MSTORE PUSH1 0x20 ADD PUSH1 0x0 KECCAK256 SLOAD SWAP1 POP SWAP2 SWAP1 POP JUMP JUMPDEST PUSH1 0x60 PUSH1 0x40 MLOAD DUP1 PUSH1 0x60 ADD PUSH1 0x40 MSTORE DUP1 PUSH1 0x35 DUP2 MSTORE PUSH1 0x20 ADD PUSH2 0x41BE PUSH1 0x35 SWAP2 CODECOPY SWAP1 POP SWAP1 JUMP JUMPDEST PUSH1 0x0 PUSH1 0x1 PUSH1 0x0 DUP5 PUSH20 0xFFFFFFFFFFFFFFFFFFFFFFFFFFFFFFFFFFFFFFFF AND PUSH20 0xFFFFFFFFFFFFFFFFFFFFFFFFFFFFFFFFFFFFFFFF AND DUP2 MSTORE PUSH1 0x20 ADD SWAP1 DUP2 MSTORE PUSH1 0x20 ADD PUSH1 0x0 KECCAK256 PUSH1 0x0 DUP4 PUSH20 0xFFFFFFFFFFFFFFFFFFFFFFFFFFFFFFFFFFFFFFFF AND PUSH20 0xFFFFFFFFFFFFFFFFFFFFFFFFFFFFFFFFFFFFFFFF AND DUP2 MSTORE PUSH1 0x20 ADD SWAP1 DUP2 MSTORE PUSH1 0x20 ADD PUSH1 0x0 KECCAK256 PUSH1 0x0 SWAP1 SLOAD SWAP1 PUSH2 0x100 EXP SWAP1 DIV PUSH1 0xFF AND SWAP1 POP SWAP3 SWAP2 POP POP JUMP JUMPDEST PUSH2 0x97C PUSH2 0xFBE JUMP JUMPDEST PUSH20 0xFFFFFFFFFFFFFFFFFFFFFFFFFFFFFFFFFFFFFFFF AND DUP6 PUSH20 0xFFFFFFFFFFFFFFFFFFFFFFFFFFFFFFFFFFFFFFFF AND EQ DUP1 PUSH2 0x9C2 JUMPI POP PUSH2 0x9C1 DUP6 PUSH2 0x9BC PUSH2 0xFBE JUMP JUMPDEST PUSH2 0x8E0 JUMP JUMPDEST JUMPDEST PUSH2 0xA01 JUMPI PUSH1 0x40 MLOAD PUSH32 0x8C379A000000000000000000000000000000000000000000000000000000000 DUP2 MSTORE PUSH1 0x4 ADD PUSH2 0x9F8 SWAP1 PUSH2 0x33FA JUMP JUMPDEST PUSH1 0x40 MLOAD DUP1 SWAP2 SUB SWAP1 REVERT JUMPDEST PUSH2 0xA0E DUP6 DUP6 DUP6 DUP6 DUP6 PUSH2 0x1997 JUMP JUMPDEST POP POP POP POP POP JUMP JUMPDEST PUSH2 0xA1D PUSH2 0xB9F JUMP JUMPDEST PUSH1 0x0 PUSH20 0xFFFFFFFFFFFFFFFFFFFFFFFFFFFFFFFFFFFFFFFF AND DUP2 PUSH20 0xFFFFFFFFFFFFFFFFFFFFFFFFFFFFFFFFFFFFFFFF AND SUB PUSH2 0xA8C JUMPI PUSH1 0x40 MLOAD PUSH32 0x8C379A000000000000000000000000000000000000000000000000000000000 DUP2 MSTORE PUSH1 0x4 ADD PUSH2 0xA83 SWAP1 PUSH2 0x35C4 JUMP JUMPDEST PUSH1 0x40 MLOAD DUP1 SWAP2 SUB SWAP1 REVERT JUMPDEST PUSH2 0xA95 DUP2 PUSH2 0x15B5 JUMP JUMPDEST POP JUMP JUMPDEST PUSH2 0xAA0 PUSH2 0xFBE JUMP JUMPDEST PUSH20 0xFFFFFFFFFFFFFFFFFFFFFFFFFFFFFFFFFFFFFFFF AND DUP4 PUSH20 0xFFFFFFFFFFFFFFFFFFFFFFFFFFFFFFFFFFFFFFFF AND EQ DUP1 PUSH2 0xAE6 JUMPI POP PUSH2 0xAE5 DUP4 PUSH2 0xAE0 PUSH2 0xFBE JUMP JUMPDEST PUSH2 0x8E0 JUMP JUMPDEST JUMPDEST PUSH2 0xB25 JUMPI PUSH1 0x40 MLOAD PUSH32 0x8C379A000000000000000000000000000000000000000000000000000000000 DUP2 MSTORE PUSH1 0x4 ADD PUSH2 0xB1C SWAP1 PUSH2 0x33FA JUMP JUMPDEST PUSH1 0x40 MLOAD DUP1 SWAP2 SUB SWAP1 REVERT JUMPDEST PUSH2 0xB30 DUP4 DUP4 DUP4 PUSH2 0x1C32 JUMP JUMPDEST POP POP POP JUMP JUMPDEST PUSH1 0x0 PUSH32 0x1FFC9A700000000000000000000000000000000000000000000000000000000 PUSH28 0xFFFFFFFFFFFFFFFFFFFFFFFFFFFFFFFFFFFFFFFFFFFFFFFFFFFFFFFF NOT AND DUP3 PUSH28 0xFFFFFFFFFFFFFFFFFFFFFFFFFFFFFFFFFFFFFFFFFFFFFFFFFFFFFFFF NOT AND EQ SWAP1 POP SWAP2 SWAP1 POP JUMP JUMPDEST PUSH2 0xBA7 PUSH2 0xFBE JUMP JUMPDEST PUSH20 0xFFFFFFFFFFFFFFFFFFFFFFFFFFFFFFFFFFFFFFFF AND PUSH2 0xBC5 PUSH2 0x863 JUMP JUMPDEST PUSH20 0xFFFFFFFFFFFFFFFFFFFFFFFFFFFFFFFFFFFFFFFF AND EQ PUSH2 0xC1B JUMPI PUSH1 0x40 MLOAD PUSH32 0x8C379A000000000000000000000000000000000000000000000000000000000 DUP2 MSTORE PUSH1 0x4 ADD PUSH2 0xC12 SWAP1 PUSH2 0x3630 JUMP JUMPDEST PUSH1 0x40 MLOAD DUP1 SWAP2 SUB SWAP1 REVERT JUMPDEST JUMP JUMPDEST DUP1 PUSH1 0x2 SWAP1 DUP2 PUSH2 0xC2C SWAP2 SWAP1 PUSH2 0x385C JUMP JUMPDEST POP POP JUMP JUMPDEST PUSH1 0x60 PUSH1 0x2 DUP1 SLOAD PUSH2 0xC3F SWAP1 PUSH2 0x367F JUMP JUMPDEST DUP1 PUSH1 0x1F ADD PUSH1 0x20 DUP1 SWAP2 DIV MUL PUSH1 0x20 ADD PUSH1 0x40 MLOAD SWAP1 DUP2 ADD PUSH1 0x40 MSTORE DUP1 SWAP3 SWAP2 SWAP1 DUP2 DUP2 MSTORE PUSH1 0x20 ADD DUP3 DUP1 SLOAD PUSH2 0xC6B SWAP1 PUSH2 0x367F JUMP JUMPDEST DUP1 ISZERO PUSH2 0xCB8 JUMPI DUP1 PUSH1 0x1F LT PUSH2 0xC8D JUMPI PUSH2 0x100 DUP1 DUP4 SLOAD DIV MUL DUP4 MSTORE SWAP2 PUSH1 0x20 ADD SWAP2 PUSH2 0xCB8 JUMP JUMPDEST DUP3 ADD SWAP2 SWAP1 PUSH1 0x0 MSTORE PUSH1 0x20 PUSH1 0x0 KECCAK256 SWAP1 JUMPDEST DUP2 SLOAD DUP2 MSTORE SWAP1 PUSH1 0x1 ADD SWAP1 PUSH1 0x20 ADD DUP1 DUP4 GT PUSH2 0xC9B JUMPI DUP3 SWAP1 SUB PUSH1 0x1F AND DUP3 ADD SWAP2 JUMPDEST POP POP POP POP POP SWAP1 POP SWAP2 SWAP1 POP JUMP JUMPDEST PUSH1 0x60 PUSH1 0x0 PUSH1 0x1 PUSH2 0xCD3 DUP5 PUSH2 0x1E78 JUMP JUMPDEST ADD SWAP1 POP PUSH1 0x0 DUP2 PUSH8 0xFFFFFFFFFFFFFFFF DUP2 GT ISZERO PUSH2 0xCF2 JUMPI PUSH2 0xCF1 PUSH2 0x27F4 JUMP JUMPDEST JUMPDEST PUSH1 0x40 MLOAD SWAP1 DUP1 DUP3 MSTORE DUP1 PUSH1 0x1F ADD PUSH1 0x1F NOT AND PUSH1 0x20 ADD DUP3 ADD PUSH1 0x40 MSTORE DUP1 ISZERO PUSH2 0xD24 JUMPI DUP2 PUSH1 0x20 ADD PUSH1 0x1 DUP3 MUL DUP1 CALLDATASIZE DUP4 CALLDATACOPY DUP1 DUP3 ADD SWAP2 POP POP SWAP1 POP JUMPDEST POP SWAP1 POP PUSH1 0x0 DUP3 PUSH1 0x20 ADD DUP3 ADD SWAP1 POP JUMPDEST PUSH1 0x1 ISZERO PUSH2 0xD87 JUMPI DUP1 DUP1 PUSH1 0x1 SWAP1 SUB SWAP2 POP POP PUSH32 0x3031323334353637383961626364656600000000000000000000000000000000 PUSH1 0xA DUP7 MOD BYTE DUP2 MSTORE8 PUSH1 0xA DUP6 DUP2 PUSH2 0xD7B JUMPI PUSH2 0xD7A PUSH2 0x392E JUMP JUMPDEST JUMPDEST DIV SWAP5 POP PUSH1 0x0 DUP6 SUB PUSH2 0xD32 JUMPI JUMPDEST DUP2 SWAP4 POP POP POP POP SWAP2 SWAP1 POP JUMP JUMPDEST PUSH1 0x0 PUSH20 0xFFFFFFFFFFFFFFFFFFFFFFFFFFFFFFFFFFFFFFFF AND DUP5 PUSH20 0xFFFFFFFFFFFFFFFFFFFFFFFFFFFFFFFFFFFFFFFF AND SUB PUSH2 0xE01 JUMPI PUSH1 0x40 MLOAD PUSH32 0x8C379A000000000000000000000000000000000000000000000000000000000 DUP2 MSTORE PUSH1 0x4 ADD PUSH2 0xDF8 SWAP1 PUSH2 0x39CF JUMP JUMPDEST PUSH1 0x40 MLOAD DUP1 SWAP2 SUB SWAP1 REVERT JUMPDEST DUP2 MLOAD DUP4 MLOAD EQ PUSH2 0xE45 JUMPI PUSH1 0x40 MLOAD PUSH32 0x8C379A000000000000000000000000000000000000000000000000000000000 DUP2 MSTORE PUSH1 0x4 ADD PUSH2 0xE3C SWAP1 PUSH2 0x3A61 JUMP JUMPDEST PUSH1 0x40 MLOAD DUP1 SWAP2 SUB SWAP1 REVERT JUMPDEST PUSH1 0x0 PUSH2 0xE4F PUSH2 0xFBE JUMP JUMPDEST SWAP1 POP PUSH2 0xE60 DUP2 PUSH1 0x0 DUP8 DUP8 DUP8 DUP8 PUSH2 0x1FCB JUMP JUMPDEST PUSH1 0x0 JUMPDEST DUP5 MLOAD DUP2 LT ISZERO PUSH2 0xF19 JUMPI DUP4 DUP2 DUP2 MLOAD DUP2 LT PUSH2 0xE7F JUMPI PUSH2 0xE7E PUSH2 0x34AC JUMP JUMPDEST JUMPDEST PUSH1 0x20 MUL PUSH1 0x20 ADD ADD MLOAD PUSH1 0x0 DUP1 DUP8 DUP5 DUP2 MLOAD DUP2 LT PUSH2 0xE9D JUMPI PUSH2 0xE9C PUSH2 0x34AC JUMP JUMPDEST JUMPDEST PUSH1 0x20 MUL PUSH1 0x20 ADD ADD MLOAD DUP2 MSTORE PUSH1 0x20 ADD SWAP1 DUP2 MSTORE PUSH1 0x20 ADD PUSH1 0x0 KECCAK256 PUSH1 0x0 DUP9 PUSH20 0xFFFFFFFFFFFFFFFFFFFFFFFFFFFFFFFFFFFFFFFF AND PUSH20 0xFFFFFFFFFFFFFFFFFFFFFFFFFFFFFFFFFFFFFFFF AND DUP2 MSTORE PUSH1 0x20 ADD SWAP1 DUP2 MSTORE PUSH1 0x20 ADD PUSH1 0x0 KECCAK256 PUSH1 0x0 DUP3 DUP3 SLOAD PUSH2 0xEFF SWAP2 SWAP1 PUSH2 0x3A81 JUMP JUMPDEST SWAP3 POP POP DUP2 SWAP1 SSTORE POP DUP1 DUP1 PUSH2 0xF11 SWAP1 PUSH2 0x350A JUMP JUMPDEST SWAP2 POP POP PUSH2 0xE63 JUMP JUMPDEST POP DUP5 PUSH20 0xFFFFFFFFFFFFFFFFFFFFFFFFFFFFFFFFFFFFFFFF AND PUSH1 0x0 PUSH20 0xFFFFFFFFFFFFFFFFFFFFFFFFFFFFFFFFFFFFFFFF AND DUP3 PUSH20 0xFFFFFFFFFFFFFFFFFFFFFFFFFFFFFFFFFFFFFFFF AND PUSH32 0x4A39DC06D4C0DBC64B70AF90FD698A233A518AA5D07E595D983B8C0526C8F7FB DUP8 DUP8 PUSH1 0x40 MLOAD PUSH2 0xF91 SWAP3 SWAP2 SWAP1 PUSH2 0x3AB5 JUMP JUMPDEST PUSH1 0x40 MLOAD DUP1 SWAP2 SUB SWAP1 LOG4 PUSH2 0xFA8 DUP2 PUSH1 0x0 DUP8 DUP8 DUP8 DUP8 PUSH2 0x1FE1 JUMP JUMPDEST PUSH2 0xFB7 DUP2 PUSH1 0x0 DUP8 DUP8 DUP8 DUP8 PUSH2 0x1FE9 JUMP JUMPDEST POP POP POP POP POP JUMP JUMPDEST PUSH1 0x0 CALLER SWAP1 POP SWAP1 JUMP JUMPDEST DUP2 MLOAD DUP4 MLOAD EQ PUSH2 0x100A JUMPI PUSH1 0x40 MLOAD PUSH32 0x8C379A000000000000000000000000000000000000000000000000000000000 DUP2 MSTORE PUSH1 0x4 ADD PUSH2 0x1001 SWAP1 PUSH2 0x3A61 JUMP JUMPDEST PUSH1 0x40 MLOAD DUP1 SWAP2 SUB SWAP1 REVERT JUMPDEST PUSH1 0x0 PUSH20 0xFFFFFFFFFFFFFFFFFFFFFFFFFFFFFFFFFFFFFFFF AND DUP5 PUSH20 0xFFFFFFFFFFFFFFFFFFFFFFFFFFFFFFFFFFFFFFFF AND SUB PUSH2 0x1079 JUMPI PUSH1 0x40 MLOAD PUSH32 0x8C379A000000000000000000000000000000000000000000000000000000000 DUP2 MSTORE PUSH1 0x4 ADD PUSH2 0x1070 SWAP1 PUSH2 0x3B5E JUMP JUMPDEST PUSH1 0x40 MLOAD DUP1 SWAP2 SUB SWAP1 REVERT JUMPDEST PUSH1 0x0 PUSH2 0x1083 PUSH2 0xFBE JUMP JUMPDEST SWAP1 POP PUSH2 0x1093 DUP2 DUP8 DUP8 DUP8 DUP8 DUP8 PUSH2 0x1FCB JUMP JUMPDEST PUSH1 0x0 JUMPDEST DUP5 MLOAD DUP2 LT ISZERO PUSH2 0x1244 JUMPI PUSH1 0x0 DUP6 DUP3 DUP2 MLOAD DUP2 LT PUSH2 0x10B4 JUMPI PUSH2 0x10B3 PUSH2 0x34AC JUMP JUMPDEST JUMPDEST PUSH1 0x20 MUL PUSH1 0x20 ADD ADD MLOAD SWAP1 POP PUSH1 0x0 DUP6 DUP4 DUP2 MLOAD DUP2 LT PUSH2 0x10D3 JUMPI PUSH2 0x10D2 PUSH2 0x34AC JUMP JUMPDEST JUMPDEST PUSH1 0x20 MUL PUSH1 0x20 ADD ADD MLOAD SWAP1 POP PUSH1 0x0 DUP1 PUSH1 0x0 DUP5 DUP2 MSTORE PUSH1 0x20 ADD SWAP1 DUP2 MSTORE PUSH1 0x20 ADD PUSH1 0x0 KECCAK256 PUSH1 0x0 DUP12 PUSH20 0xFFFFFFFFFFFFFFFFFFFFFFFFFFFFFFFFFFFFFFFF AND PUSH20 0xFFFFFFFFFFFFFFFFFFFFFFFFFFFFFFFFFFFFFFFF AND DUP2 MSTORE PUSH1 0x20 ADD SWAP1 DUP2 MSTORE PUSH1 0x20 ADD PUSH1 0x0 KECCAK256 SLOAD SWAP1 POP DUP2 DUP2 LT ISZERO PUSH2 0x1174 JUMPI PUSH1 0x40 MLOAD PUSH32 0x8C379A000000000000000000000000000000000000000000000000000000000 DUP2 MSTORE PUSH1 0x4 ADD PUSH2 0x116B SWAP1 PUSH2 0x3BF0 JUMP JUMPDEST PUSH1 0x40 MLOAD DUP1 SWAP2 SUB SWAP1 REVERT JUMPDEST DUP2 DUP2 SUB PUSH1 0x0 DUP1 DUP6 DUP2 MSTORE PUSH1 0x20 ADD SWAP1 DUP2 MSTORE PUSH1 0x20 ADD PUSH1 0x0 KECCAK256 PUSH1 0x0 DUP13 PUSH20 0xFFFFFFFFFFFFFFFFFFFFFFFFFFFFFFFFFFFFFFFF AND PUSH20 0xFFFFFFFFFFFFFFFFFFFFFFFFFFFFFFFFFFFFFFFF AND DUP2 MSTORE PUSH1 0x20 ADD SWAP1 DUP2 MSTORE PUSH1 0x20 ADD PUSH1 0x0 KECCAK256 DUP2 SWAP1 SSTORE POP DUP2 PUSH1 0x0 DUP1 DUP6 DUP2 MSTORE PUSH1 0x20 ADD SWAP1 DUP2 MSTORE PUSH1 0x20 ADD PUSH1 0x0 KECCAK256 PUSH1 0x0 DUP12 PUSH20 0xFFFFFFFFFFFFFFFFFFFFFFFFFFFFFFFFFFFFFFFF AND PUSH20 0xFFFFFFFFFFFFFFFFFFFFFFFFFFFFFFFFFFFFFFFF AND DUP2 MSTORE PUSH1 0x20 ADD SWAP1 DUP2 MSTORE PUSH1 0x20 ADD PUSH1 0x0 KECCAK256 PUSH1 0x0 DUP3 DUP3 SLOAD PUSH2 0x1229 SWAP2 SWAP1 PUSH2 0x3A81 JUMP JUMPDEST SWAP3 POP POP DUP2 SWAP1 SSTORE POP POP POP POP DUP1 PUSH2 0x123D SWAP1 PUSH2 0x350A JUMP JUMPDEST SWAP1 POP PUSH2 0x1096 JUMP JUMPDEST POP DUP5 PUSH20 0xFFFFFFFFFFFFFFFFFFFFFFFFFFFFFFFFFFFFFFFF AND DUP7 PUSH20 0xFFFFFFFFFFFFFFFFFFFFFFFFFFFFFFFFFFFFFFFF AND DUP3 PUSH20 0xFFFFFFFFFFFFFFFFFFFFFFFFFFFFFFFFFFFFFFFF AND PUSH32 0x4A39DC06D4C0DBC64B70AF90FD698A233A518AA5D07E595D983B8C0526C8F7FB DUP8 DUP8 PUSH1 0x40 MLOAD PUSH2 0x12BB SWAP3 SWAP2 SWAP1 PUSH2 0x3AB5 JUMP JUMPDEST PUSH1 0x40 MLOAD DUP1 SWAP2 SUB SWAP1 LOG4 PUSH2 0x12D1 DUP2 DUP8 DUP8 DUP8 DUP8 DUP8 PUSH2 0x1FE1 JUMP JUMPDEST PUSH2 0x12DF DUP2 DUP8 DUP8 DUP8 DUP8 DUP8 PUSH2 0x1FE9 JUMP JUMPDEST POP POP POP POP POP POP JUMP JUMPDEST PUSH1 0x0 PUSH20 0xFFFFFFFFFFFFFFFFFFFFFFFFFFFFFFFFFFFFFFFF AND DUP4 PUSH20 0xFFFFFFFFFFFFFFFFFFFFFFFFFFFFFFFFFFFFFFFF AND SUB PUSH2 0x1356 JUMPI PUSH1 0x40 MLOAD PUSH32 0x8C379A000000000000000000000000000000000000000000000000000000000 DUP2 MSTORE PUSH1 0x4 ADD PUSH2 0x134D SWAP1 PUSH2 0x3C82 JUMP JUMPDEST PUSH1 0x40 MLOAD DUP1 SWAP2 SUB SWAP1 REVERT JUMPDEST DUP1 MLOAD DUP3 MLOAD EQ PUSH2 0x139A JUMPI PUSH1 0x40 MLOAD PUSH32 0x8C379A000000000000000000000000000000000000000000000000000000000 DUP2 MSTORE PUSH1 0x4 ADD PUSH2 0x1391 SWAP1 PUSH2 0x3A61 JUMP JUMPDEST PUSH1 0x40 MLOAD DUP1 SWAP2 SUB SWAP1 REVERT JUMPDEST PUSH1 0x0 PUSH2 0x13A4 PUSH2 0xFBE JUMP JUMPDEST SWAP1 POP PUSH2 0x13C4 DUP2 DUP6 PUSH1 0x0 DUP7 DUP7 PUSH1 0x40 MLOAD DUP1 PUSH1 0x20 ADD PUSH1 0x40 MSTORE DUP1 PUSH1 0x0 DUP2 MSTORE POP PUSH2 0x1FCB JUMP JUMPDEST PUSH1 0x0 JUMPDEST DUP4 MLOAD DUP2 LT ISZERO PUSH2 0x1511 JUMPI PUSH1 0x0 DUP5 DUP3 DUP2 MLOAD DUP2 LT PUSH2 0x13E5 JUMPI PUSH2 0x13E4 PUSH2 0x34AC JUMP JUMPDEST JUMPDEST PUSH1 0x20 MUL PUSH1 0x20 ADD ADD MLOAD SWAP1 POP PUSH1 0x0 DUP5 DUP4 DUP2 MLOAD DUP2 LT PUSH2 0x1404 JUMPI PUSH2 0x1403 PUSH2 0x34AC JUMP JUMPDEST JUMPDEST PUSH1 0x20 MUL PUSH1 0x20 ADD ADD MLOAD SWAP1 POP PUSH1 0x0 DUP1 PUSH1 0x0 DUP5 DUP2 MSTORE PUSH1 0x20 ADD SWAP1 DUP2 MSTORE PUSH1 0x20 ADD PUSH1 0x0 KECCAK256 PUSH1 0x0 DUP10 PUSH20 0xFFFFFFFFFFFFFFFFFFFFFFFFFFFFFFFFFFFFFFFF AND PUSH20 0xFFFFFFFFFFFFFFFFFFFFFFFFFFFFFFFFFFFFFFFF AND DUP2 MSTORE PUSH1 0x20 ADD SWAP1 DUP2 MSTORE PUSH1 0x20 ADD PUSH1 0x0 KECCAK256 SLOAD SWAP1 POP DUP2 DUP2 LT ISZERO PUSH2 0x14A5 JUMPI PUSH1 0x40 MLOAD PUSH32 0x8C379A000000000000000000000000000000000000000000000000000000000 DUP2 MSTORE PUSH1 0x4 ADD PUSH2 0x149C SWAP1 PUSH2 0x3D14 JUMP JUMPDEST PUSH1 0x40 MLOAD DUP1 SWAP2 SUB SWAP1 REVERT JUMPDEST DUP2 DUP2 SUB PUSH1 0x0 DUP1 DUP6 DUP2 MSTORE PUSH1 0x20 ADD SWAP1 DUP2 MSTORE PUSH1 0x20 ADD PUSH1 0x0 KECCAK256 PUSH1 0x0 DUP11 PUSH20 0xFFFFFFFFFFFFFFFFFFFFFFFFFFFFFFFFFFFFFFFF AND PUSH20 0xFFFFFFFFFFFFFFFFFFFFFFFFFFFFFFFFFFFFFFFF AND DUP2 MSTORE PUSH1 0x20 ADD SWAP1 DUP2 MSTORE PUSH1 0x20 ADD PUSH1 0x0 KECCAK256 DUP2 SWAP1 SSTORE POP POP POP POP DUP1 DUP1 PUSH2 0x1509 SWAP1 PUSH2 0x350A JUMP JUMPDEST SWAP2 POP POP PUSH2 0x13C7 JUMP JUMPDEST POP PUSH1 0x0 PUSH20 0xFFFFFFFFFFFFFFFFFFFFFFFFFFFFFFFFFFFFFFFF AND DUP5 PUSH20 0xFFFFFFFFFFFFFFFFFFFFFFFFFFFFFFFFFFFFFFFF AND DUP3 PUSH20 0xFFFFFFFFFFFFFFFFFFFFFFFFFFFFFFFFFFFFFFFF AND PUSH32 0x4A39DC06D4C0DBC64B70AF90FD698A233A518AA5D07E595D983B8C0526C8F7FB DUP7 DUP7 PUSH1 0x40 MLOAD PUSH2 0x1589 SWAP3 SWAP2 SWAP1 PUSH2 0x3AB5 JUMP JUMPDEST PUSH1 0x40 MLOAD DUP1 SWAP2 SUB SWAP1 LOG4 PUSH2 0x15AF DUP2 DUP6 PUSH1 0x0 DUP7 DUP7 PUSH1 0x40 MLOAD DUP1 PUSH1 0x20 ADD PUSH1 0x40 MSTORE DUP1 PUSH1 0x0 DUP2 MSTORE POP PUSH2 0x1FE1 JUMP JUMPDEST POP POP POP POP JUMP JUMPDEST PUSH1 0x0 PUSH1 0x3 PUSH1 0x0 SWAP1 SLOAD SWAP1 PUSH2 0x100 EXP SWAP1 DIV PUSH20 0xFFFFFFFFFFFFFFFFFFFFFFFFFFFFFFFFFFFFFFFF AND SWAP1 POP DUP2 PUSH1 0x3 PUSH1 0x0 PUSH2 0x100 EXP DUP2 SLOAD DUP2 PUSH20 0xFFFFFFFFFFFFFFFFFFFFFFFFFFFFFFFFFFFFFFFF MUL NOT AND SWAP1 DUP4 PUSH20 0xFFFFFFFFFFFFFFFFFFFFFFFFFFFFFFFFFFFFFFFF AND MUL OR SWAP1 SSTORE POP DUP2 PUSH20 0xFFFFFFFFFFFFFFFFFFFFFFFFFFFFFFFFFFFFFFFF AND DUP2 PUSH20 0xFFFFFFFFFFFFFFFFFFFFFFFFFFFFFFFFFFFFFFFF AND PUSH32 0x8BE0079C531659141344CD1FD0A4F28419497F9722A3DAAFE3B4186F6B6457E0 PUSH1 0x40 MLOAD PUSH1 0x40 MLOAD DUP1 SWAP2 SUB SWAP1 LOG3 POP POP JUMP JUMPDEST PUSH1 0x0 PUSH20 0xFFFFFFFFFFFFFFFFFFFFFFFFFFFFFFFFFFFFFFFF AND DUP5 PUSH20 0xFFFFFFFFFFFFFFFFFFFFFFFFFFFFFFFFFFFFFFFF AND SUB PUSH2 0x16EA JUMPI PUSH1 0x40 MLOAD PUSH32 0x8C379A000000000000000000000000000000000000000000000000000000000 DUP2 MSTORE PUSH1 0x4 ADD PUSH2 0x16E1 SWAP1 PUSH2 0x39CF JUMP JUMPDEST PUSH1 0x40 MLOAD DUP1 SWAP2 SUB SWAP1 REVERT JUMPDEST PUSH1 0x0 PUSH2 0x16F4 PUSH2 0xFBE JUMP JUMPDEST SWAP1 POP PUSH1 0x0 PUSH2 0x1701 DUP6 PUSH2 0x21C0 JUMP JUMPDEST SWAP1 POP PUSH1 0x0 PUSH2 0x170E DUP6 PUSH2 0x21C0 JUMP JUMPDEST SWAP1 POP PUSH2 0x171F DUP4 PUSH1 0x0 DUP10 DUP6 DUP6 DUP10 PUSH2 0x1FCB JUMP JUMPDEST DUP5 PUSH1 0x0 DUP1 DUP9 DUP2 MSTORE PUSH1 0x20 ADD SWAP1 DUP2 MSTORE PUSH1 0x20 ADD PUSH1 0x0 KECCAK256 PUSH1 0x0 DUP10 PUSH20 0xFFFFFFFFFFFFFFFFFFFFFFFFFFFFFFFFFFFFFFFF AND PUSH20 0xFFFFFFFFFFFFFFFFFFFFFFFFFFFFFFFFFFFFFFFF AND DUP2 MSTORE PUSH1 0x20 ADD SWAP1 DUP2 MSTORE PUSH1 0x20 ADD PUSH1 0x0 KECCAK256 PUSH1 0x0 DUP3 DUP3 SLOAD PUSH2 0x177E SWAP2 SWAP1 PUSH2 0x3A81 JUMP JUMPDEST SWAP3 POP POP DUP2 SWAP1 SSTORE POP DUP7 PUSH20 0xFFFFFFFFFFFFFFFFFFFFFFFFFFFFFFFFFFFFFFFF AND PUSH1 0x0 PUSH20 0xFFFFFFFFFFFFFFFFFFFFFFFFFFFFFFFFFFFFFFFF AND DUP5 PUSH20 0xFFFFFFFFFFFFFFFFFFFFFFFFFFFFFFFFFFFFFFFF AND PUSH32 0xC3D58168C5AE7397731D063D5BBF3D657854427343F4C083240F7AACAA2D0F62 DUP10 DUP10 PUSH1 0x40 MLOAD PUSH2 0x17FC SWAP3 SWAP2 SWAP1 PUSH2 0x3D34 JUMP JUMPDEST PUSH1 0x40 MLOAD DUP1 SWAP2 SUB SWAP1 LOG4 PUSH2 0x1813 DUP4 PUSH1 0x0 DUP10 DUP6 DUP6 DUP10 PUSH2 0x1FE1 JUMP JUMPDEST PUSH2 0x1822 DUP4 PUSH1 0x0 DUP10 DUP10 DUP10 DUP10 PUSH2 0x223A JUMP JUMPDEST POP POP POP POP POP POP POP JUMP JUMPDEST DUP2 PUSH20 0xFFFFFFFFFFFFFFFFFFFFFFFFFFFFFFFFFFFFFFFF AND DUP4 PUSH20 0xFFFFFFFFFFFFFFFFFFFFFFFFFFFFFFFFFFFFFFFF AND SUB PUSH2 0x1899 JUMPI PUSH1 0x40 MLOAD PUSH32 0x8C379A000000000000000000000000000000000000000000000000000000000 DUP2 MSTORE PUSH1 0x4 ADD PUSH2 0x1890 SWAP1 PUSH2 0x3DCF JUMP JUMPDEST PUSH1 0x40 MLOAD DUP1 SWAP2 SUB SWAP1 REVERT JUMPDEST DUP1 PUSH1 0x1 PUSH1 0x0 DUP6 PUSH20 0xFFFFFFFFFFFFFFFFFFFFFFFFFFFFFFFFFFFFFFFF AND PUSH20 0xFFFFFFFFFFFFFFFFFFFFFFFFFFFFFFFFFFFFFFFF AND DUP2 MSTORE PUSH1 0x20 ADD SWAP1 DUP2 MSTORE PUSH1 0x20 ADD PUSH1 0x0 KECCAK256 PUSH1 0x0 DUP5 PUSH20 0xFFFFFFFFFFFFFFFFFFFFFFFFFFFFFFFFFFFFFFFF AND PUSH20 0xFFFFFFFFFFFFFFFFFFFFFFFFFFFFFFFFFFFFFFFF AND DUP2 MSTORE PUSH1 0x20 ADD SWAP1 DUP2 MSTORE PUSH1 0x20 ADD PUSH1 0x0 KECCAK256 PUSH1 0x0 PUSH2 0x100 EXP DUP2 SLOAD DUP2 PUSH1 0xFF MUL NOT AND SWAP1 DUP4 ISZERO ISZERO MUL OR SWAP1 SSTORE POP DUP2 PUSH20 0xFFFFFFFFFFFFFFFFFFFFFFFFFFFFFFFFFFFFFFFF AND DUP4 PUSH20 0xFFFFFFFFFFFFFFFFFFFFFFFFFFFFFFFFFFFFFFFF AND PUSH32 0x17307EAB39AB6107E8899845AD3D59BD9653F200F220920489CA2B5937696C31 DUP4 PUSH1 0x40 MLOAD PUSH2 0x198A SWAP2 SWAP1 PUSH2 0x27BE JUMP JUMPDEST PUSH1 0x40 MLOAD DUP1 SWAP2 SUB SWAP1 LOG3 POP POP POP JUMP JUMPDEST PUSH1 0x0 PUSH20 0xFFFFFFFFFFFFFFFFFFFFFFFFFFFFFFFFFFFFFFFF AND DUP5 PUSH20 0xFFFFFFFFFFFFFFFFFFFFFFFFFFFFFFFFFFFFFFFF AND SUB PUSH2 0x1A06 JUMPI PUSH1 0x40 MLOAD PUSH32 0x8C379A000000000000000000000000000000000000000000000000000000000 DUP2 MSTORE PUSH1 0x4 ADD PUSH2 0x19FD SWAP1 PUSH2 0x3B5E JUMP JUMPDEST PUSH1 0x40 MLOAD DUP1 SWAP2 SUB SWAP1 REVERT JUMPDEST PUSH1 0x0 PUSH2 0x1A10 PUSH2 0xFBE JUMP JUMPDEST SWAP1 POP PUSH1 0x0 PUSH2 0x1A1D DUP6 PUSH2 0x21C0 JUMP JUMPDEST SWAP1 POP PUSH1 0x0 PUSH2 0x1A2A DUP6 PUSH2 0x21C0 JUMP JUMPDEST SWAP1 POP PUSH2 0x1A3A DUP4 DUP10 DUP10 DUP6 DUP6 DUP10 PUSH2 0x1FCB JUMP JUMPDEST PUSH1 0x0 DUP1 PUSH1 0x0 DUP9 DUP2 MSTORE PUSH1 0x20 ADD SWAP1 DUP2 MSTORE PUSH1 0x20 ADD PUSH1 0x0 KECCAK256 PUSH1 0x0 DUP11 PUSH20 0xFFFFFFFFFFFFFFFFFFFFFFFFFFFFFFFFFFFFFFFF AND PUSH20 0xFFFFFFFFFFFFFFFFFFFFFFFFFFFFFFFFFFFFFFFF AND DUP2 MSTORE PUSH1 0x20 ADD SWAP1 DUP2 MSTORE PUSH1 0x20 ADD PUSH1 0x0 KECCAK256 SLOAD SWAP1 POP DUP6 DUP2 LT ISZERO PUSH2 0x1AD1 JUMPI PUSH1 0x40 MLOAD PUSH32 0x8C379A000000000000000000000000000000000000000000000000000000000 DUP2 MSTORE PUSH1 0x4 ADD PUSH2 0x1AC8 SWAP1 PUSH2 0x3BF0 JUMP JUMPDEST PUSH1 0x40 MLOAD DUP1 SWAP2 SUB SWAP1 REVERT JUMPDEST DUP6 DUP2 SUB PUSH1 0x0 DUP1 DUP10 DUP2 MSTORE PUSH1 0x20 ADD SWAP1 DUP2 MSTORE PUSH1 0x20 ADD PUSH1 0x0 KECCAK256 PUSH1 0x0 DUP12 PUSH20 0xFFFFFFFFFFFFFFFFFFFFFFFFFFFFFFFFFFFFFFFF AND PUSH20 0xFFFFFFFFFFFFFFFFFFFFFFFFFFFFFFFFFFFFFFFF AND DUP2 MSTORE PUSH1 0x20 ADD SWAP1 DUP2 MSTORE PUSH1 0x20 ADD PUSH1 0x0 KECCAK256 DUP2 SWAP1 SSTORE POP DUP6 PUSH1 0x0 DUP1 DUP10 DUP2 MSTORE PUSH1 0x20 ADD SWAP1 DUP2 MSTORE PUSH1 0x20 ADD PUSH1 0x0 KECCAK256 PUSH1 0x0 DUP11 PUSH20 0xFFFFFFFFFFFFFFFFFFFFFFFFFFFFFFFFFFFFFFFF AND PUSH20 0xFFFFFFFFFFFFFFFFFFFFFFFFFFFFFFFFFFFFFFFF AND DUP2 MSTORE PUSH1 0x20 ADD SWAP1 DUP2 MSTORE PUSH1 0x20 ADD PUSH1 0x0 KECCAK256 PUSH1 0x0 DUP3 DUP3 SLOAD PUSH2 0x1B86 SWAP2 SWAP1 PUSH2 0x3A81 JUMP JUMPDEST SWAP3 POP POP DUP2 SWAP1 SSTORE POP DUP8 PUSH20 0xFFFFFFFFFFFFFFFFFFFFFFFFFFFFFFFFFFFFFFFF AND DUP10 PUSH20 0xFFFFFFFFFFFFFFFFFFFFFFFFFFFFFFFFFFFFFFFF AND DUP6 PUSH20 0xFFFFFFFFFFFFFFFFFFFFFFFFFFFFFFFFFFFFFFFF AND PUSH32 0xC3D58168C5AE7397731D063D5BBF3D657854427343F4C083240F7AACAA2D0F62 DUP11 DUP11 PUSH1 0x40 MLOAD PUSH2 0x1C03 SWAP3 SWAP2 SWAP1 PUSH2 0x3D34 JUMP JUMPDEST PUSH1 0x40 MLOAD DUP1 SWAP2 SUB SWAP1 LOG4 PUSH2 0x1C19 DUP5 DUP11 DUP11 DUP7 DUP7 DUP11 PUSH2 0x1FE1 JUMP JUMPDEST PUSH2 0x1C27 DUP5 DUP11 DUP11 DUP11 DUP11 DUP11 PUSH2 0x223A JUMP JUMPDEST POP POP POP POP POP POP POP POP POP JUMP JUMPDEST PUSH1 0x0 PUSH20 0xFFFFFFFFFFFFFFFFFFFFFFFFFFFFFFFFFFFFFFFF AND DUP4 PUSH20 0xFFFFFFFFFFFFFFFFFFFFFFFFFFFFFFFFFFFFFFFF AND SUB PUSH2 0x1CA1 JUMPI PUSH1 0x40 MLOAD PUSH32 0x8C379A000000000000000000000000000000000000000000000000000000000 DUP2 MSTORE PUSH1 0x4 ADD PUSH2 0x1C98 SWAP1 PUSH2 0x3C82 JUMP JUMPDEST PUSH1 0x40 MLOAD DUP1 SWAP2 SUB SWAP1 REVERT JUMPDEST PUSH1 0x0 PUSH2 0x1CAB PUSH2 0xFBE JUMP JUMPDEST SWAP1 POP PUSH1 0x0 PUSH2 0x1CB8 DUP5 PUSH2 0x21C0 JUMP JUMPDEST SWAP1 POP PUSH1 0x0 PUSH2 0x1CC5 DUP5 PUSH2 0x21C0 JUMP JUMPDEST SWAP1 POP PUSH2 0x1CE5 DUP4 DUP8 PUSH1 0x0 DUP6 DUP6 PUSH1 0x40 MLOAD DUP1 PUSH1 0x20 ADD PUSH1 0x40 MSTORE DUP1 PUSH1 0x0 DUP2 MSTORE POP PUSH2 0x1FCB JUMP JUMPDEST PUSH1 0x0 DUP1 PUSH1 0x0 DUP8 DUP2 MSTORE PUSH1 0x20 ADD SWAP1 DUP2 MSTORE PUSH1 0x20 ADD PUSH1 0x0 KECCAK256 PUSH1 0x0 DUP9 PUSH20 0xFFFFFFFFFFFFFFFFFFFFFFFFFFFFFFFFFFFFFFFF AND PUSH20 0xFFFFFFFFFFFFFFFFFFFFFFFFFFFFFFFFFFFFFFFF AND DUP2 MSTORE PUSH1 0x20 ADD SWAP1 DUP2 MSTORE PUSH1 0x20 ADD PUSH1 0x0 KECCAK256 SLOAD SWAP1 POP DUP5 DUP2 LT ISZERO PUSH2 0x1D7C JUMPI PUSH1 0x40 MLOAD PUSH32 0x8C379A000000000000000000000000000000000000000000000000000000000 DUP2 MSTORE PUSH1 0x4 ADD PUSH2 0x1D73 SWAP1 PUSH2 0x3D14 JUMP JUMPDEST PUSH1 0x40 MLOAD DUP1 SWAP2 SUB SWAP1 REVERT JUMPDEST DUP5 DUP2 SUB PUSH1 0x0 DUP1 DUP9 DUP2 MSTORE PUSH1 0x20 ADD SWAP1 DUP2 MSTORE PUSH1 0x20 ADD PUSH1 0x0 KECCAK256 PUSH1 0x0 DUP10 PUSH20 0xFFFFFFFFFFFFFFFFFFFFFFFFFFFFFFFFFFFFFFFF AND PUSH20 0xFFFFFFFFFFFFFFFFFFFFFFFFFFFFFFFFFFFFFFFF AND DUP2 MSTORE PUSH1 0x20 ADD SWAP1 DUP2 MSTORE PUSH1 0x20 ADD PUSH1 0x0 KECCAK256 DUP2 SWAP1 SSTORE POP PUSH1 0x0 PUSH20 0xFFFFFFFFFFFFFFFFFFFFFFFFFFFFFFFFFFFFFFFF AND DUP8 PUSH20 0xFFFFFFFFFFFFFFFFFFFFFFFFFFFFFFFFFFFFFFFF AND DUP6 PUSH20 0xFFFFFFFFFFFFFFFFFFFFFFFFFFFFFFFFFFFFFFFF AND PUSH32 0xC3D58168C5AE7397731D063D5BBF3D657854427343F4C083240F7AACAA2D0F62 DUP10 DUP10 PUSH1 0x40 MLOAD PUSH2 0x1E49 SWAP3 SWAP2 SWAP1 PUSH2 0x3D34 JUMP JUMPDEST PUSH1 0x40 MLOAD DUP1 SWAP2 SUB SWAP1 LOG4 PUSH2 0x1E6F DUP5 DUP9 PUSH1 0x0 DUP7 DUP7 PUSH1 0x40 MLOAD DUP1 PUSH1 0x20 ADD PUSH1 0x40 MSTORE DUP1 PUSH1 0x0 DUP2 MSTORE POP PUSH2 0x1FE1 JUMP JUMPDEST POP POP POP POP POP POP POP JUMP JUMPDEST PUSH1 0x0 DUP1 PUSH1 0x0 SWAP1 POP PUSH27 0x184F03E93FF9F4DAA797ED6E38ED64BF6A1F010000000000000000 DUP4 LT PUSH2 0x1ED6 JUMPI PUSH27 0x184F03E93FF9F4DAA797ED6E38ED64BF6A1F010000000000000000 DUP4 DUP2 PUSH2 0x1ECC JUMPI PUSH2 0x1ECB PUSH2 0x392E JUMP JUMPDEST JUMPDEST DIV SWAP3 POP PUSH1 0x40 DUP2 ADD SWAP1 POP JUMPDEST PUSH14 0x4EE2D6D415B85ACEF8100000000 DUP4 LT PUSH2 0x1F13 JUMPI PUSH14 0x4EE2D6D415B85ACEF8100000000 DUP4 DUP2 PUSH2 0x1F09 JUMPI PUSH2 0x1F08 PUSH2 0x392E JUMP JUMPDEST JUMPDEST DIV SWAP3 POP PUSH1 0x20 DUP2 ADD SWAP1 POP JUMPDEST PUSH7 0x2386F26FC10000 DUP4 LT PUSH2 0x1F42 JUMPI PUSH7 0x2386F26FC10000 DUP4 DUP2 PUSH2 0x1F38 JUMPI PUSH2 0x1F37 PUSH2 0x392E JUMP JUMPDEST JUMPDEST DIV SWAP3 POP PUSH1 0x10 DUP2 ADD SWAP1 POP JUMPDEST PUSH4 0x5F5E100 DUP4 LT PUSH2 0x1F6B JUMPI PUSH4 0x5F5E100 DUP4 DUP2 PUSH2 0x1F61 JUMPI PUSH2 0x1F60 PUSH2 0x392E JUMP JUMPDEST JUMPDEST DIV SWAP3 POP PUSH1 0x8 DUP2 ADD SWAP1 POP JUMPDEST PUSH2 0x2710 DUP4 LT PUSH2 0x1F90 JUMPI PUSH2 0x2710 DUP4 DUP2 PUSH2 0x1F86 JUMPI PUSH2 0x1F85 PUSH2 0x392E JUMP JUMPDEST JUMPDEST DIV SWAP3 POP PUSH1 0x4 DUP2 ADD SWAP1 POP JUMPDEST PUSH1 0x64 DUP4 LT PUSH2 0x1FB3 JUMPI PUSH1 0x64 DUP4 DUP2 PUSH2 0x1FA9 JUMPI PUSH2 0x1FA8 PUSH2 0x392E JUMP JUMPDEST JUMPDEST DIV SWAP3 POP PUSH1 0x2 DUP2 ADD SWAP1 POP JUMPDEST PUSH1 0xA DUP4 LT PUSH2 0x1FC2 JUMPI PUSH1 0x1 DUP2 ADD SWAP1 POP JUMPDEST DUP1 SWAP2 POP POP SWAP2 SWAP1 POP JUMP JUMPDEST PUSH2 0x1FD9 DUP7 DUP7 DUP7 DUP7 DUP7 DUP7 PUSH2 0x2411 JUMP JUMPDEST POP POP POP POP POP POP JUMP JUMPDEST POP POP POP POP POP POP JUMP JUMPDEST PUSH2 0x2008 DUP5 PUSH20 0xFFFFFFFFFFFFFFFFFFFFFFFFFFFFFFFFFFFFFFFF AND PUSH2 0x25E1 JUMP JUMPDEST ISZERO PUSH2 0x21B8 JUMPI DUP4 PUSH20 0xFFFFFFFFFFFFFFFFFFFFFFFFFFFFFFFFFFFFFFFF AND PUSH4 0xBC197C81 DUP8 DUP8 DUP7 DUP7 DUP7 PUSH1 0x40 MLOAD DUP7 PUSH4 0xFFFFFFFF AND PUSH1 0xE0 SHL DUP2 MSTORE PUSH1 0x4 ADD PUSH2 0x204E SWAP6 SWAP5 SWAP4 SWAP3 SWAP2 SWAP1 PUSH2 0x3E44 JUMP JUMPDEST PUSH1 0x20 PUSH1 0x40 MLOAD DUP1 DUP4 SUB DUP2 PUSH1 0x0 DUP8 GAS CALL SWAP3 POP POP POP DUP1 ISZERO PUSH2 0x208A JUMPI POP PUSH1 0x40 MLOAD RETURNDATASIZE PUSH1 0x1F NOT PUSH1 0x1F DUP3 ADD AND DUP3 ADD DUP1 PUSH1 0x40 MSTORE POP DUP2 ADD SWAP1 PUSH2 0x2087 SWAP2 SWAP1 PUSH2 0x3EC1 JUMP JUMPDEST PUSH1 0x1 JUMPDEST PUSH2 0x212F JUMPI PUSH2 0x2096 PUSH2 0x3EFB JUMP JUMPDEST DUP1 PUSH4 0x8C379A0 SUB PUSH2 0x20F2 JUMPI POP PUSH2 0x20AA PUSH2 0x3F1D JUMP JUMPDEST DUP1 PUSH2 0x20B5 JUMPI POP PUSH2 0x20F4 JUMP JUMPDEST DUP1 PUSH1 0x40 MLOAD PUSH32 0x8C379A000000000000000000000000000000000000000000000000000000000 DUP2 MSTORE PUSH1 0x4 ADD PUSH2 0x20E9 SWAP2 SWAP1 PUSH2 0x2A14 JUMP JUMPDEST PUSH1 0x40 MLOAD DUP1 SWAP2 SUB SWAP1 REVERT JUMPDEST POP JUMPDEST PUSH1 0x40 MLOAD PUSH32 0x8C379A000000000000000000000000000000000000000000000000000000000 DUP2 MSTORE PUSH1 0x4 ADD PUSH2 0x2126 SWAP1 PUSH2 0x401F JUMP JUMPDEST PUSH1 0x40 MLOAD DUP1 SWAP2 SUB SWAP1 REVERT JUMPDEST PUSH4 0xBC197C81 PUSH1 0xE0 SHL PUSH28 0xFFFFFFFFFFFFFFFFFFFFFFFFFFFFFFFFFFFFFFFFFFFFFFFFFFFFFFFF NOT AND DUP2 PUSH28 0xFFFFFFFFFFFFFFFFFFFFFFFFFFFFFFFFFFFFFFFFFFFFFFFFFFFFFFFF NOT AND EQ PUSH2 0x21B6 JUMPI PUSH1 0x40 MLOAD PUSH32 0x8C379A000000000000000000000000000000000000000000000000000000000 DUP2 MSTORE PUSH1 0x4 ADD PUSH2 0x21AD SWAP1 PUSH2 0x40B1 JUMP JUMPDEST PUSH1 0x40 MLOAD DUP1 SWAP2 SUB SWAP1 REVERT JUMPDEST POP JUMPDEST POP POP POP POP POP POP JUMP JUMPDEST PUSH1 0x60 PUSH1 0x0 PUSH1 0x1 PUSH8 0xFFFFFFFFFFFFFFFF DUP2 GT ISZERO PUSH2 0x21DF JUMPI PUSH2 0x21DE PUSH2 0x27F4 JUMP JUMPDEST JUMPDEST PUSH1 0x40 MLOAD SWAP1 DUP1 DUP3 MSTORE DUP1 PUSH1 0x20 MUL PUSH1 0x20 ADD DUP3 ADD PUSH1 0x40 MSTORE DUP1 ISZERO PUSH2 0x220D JUMPI DUP2 PUSH1 0x20 ADD PUSH1 0x20 DUP3 MUL DUP1 CALLDATASIZE DUP4 CALLDATACOPY DUP1 DUP3 ADD SWAP2 POP POP SWAP1 POP JUMPDEST POP SWAP1 POP DUP3 DUP2 PUSH1 0x0 DUP2 MLOAD DUP2 LT PUSH2 0x2225 JUMPI PUSH2 0x2224 PUSH2 0x34AC JUMP JUMPDEST JUMPDEST PUSH1 0x20 MUL PUSH1 0x20 ADD ADD DUP2 DUP2 MSTORE POP POP DUP1 SWAP2 POP POP SWAP2 SWAP1 POP JUMP JUMPDEST PUSH2 0x2259 DUP5 PUSH20 0xFFFFFFFFFFFFFFFFFFFFFFFFFFFFFFFFFFFFFFFF AND PUSH2 0x25E1 JUMP JUMPDEST ISZERO PUSH2 0x2409 JUMPI DUP4 PUSH20 0xFFFFFFFFFFFFFFFFFFFFFFFFFFFFFFFFFFFFFFFF AND PUSH4 0xF23A6E61 DUP8 DUP8 DUP7 DUP7 DUP7 PUSH1 0x40 MLOAD DUP7 PUSH4 0xFFFFFFFF AND PUSH1 0xE0 SHL DUP2 MSTORE PUSH1 0x4 ADD PUSH2 0x229F SWAP6 SWAP5 SWAP4 SWAP3 SWAP2 SWAP1 PUSH2 0x40D1 JUMP JUMPDEST PUSH1 0x20 PUSH1 0x40 MLOAD DUP1 DUP4 SUB DUP2 PUSH1 0x0 DUP8 GAS CALL SWAP3 POP POP POP DUP1 ISZERO PUSH2 0x22DB JUMPI POP PUSH1 0x40 MLOAD RETURNDATASIZE PUSH1 0x1F NOT PUSH1 0x1F DUP3 ADD AND DUP3 ADD DUP1 PUSH1 0x40 MSTORE POP DUP2 ADD SWAP1 PUSH2 0x22D8 SWAP2 SWAP1 PUSH2 0x3EC1 JUMP JUMPDEST PUSH1 0x1 JUMPDEST PUSH2 0x2380 JUMPI PUSH2 0x22E7 PUSH2 0x3EFB JUMP JUMPDEST DUP1 PUSH4 0x8C379A0 SUB PUSH2 0x2343 JUMPI POP PUSH2 0x22FB PUSH2 0x3F1D JUMP JUMPDEST DUP1 PUSH2 0x2306 JUMPI POP PUSH2 0x2345 JUMP JUMPDEST DUP1 PUSH1 0x40 MLOAD PUSH32 0x8C379A000000000000000000000000000000000000000000000000000000000 DUP2 MSTORE PUSH1 0x4 ADD PUSH2 0x233A SWAP2 SWAP1 PUSH2 0x2A14 JUMP JUMPDEST PUSH1 0x40 MLOAD DUP1 SWAP2 SUB SWAP1 REVERT JUMPDEST POP JUMPDEST PUSH1 0x40 MLOAD PUSH32 0x8C379A000000000000000000000000000000000000000000000000000000000 DUP2 MSTORE PUSH1 0x4 ADD PUSH2 0x2377 SWAP1 PUSH2 0x401F JUMP JUMPDEST PUSH1 0x40 MLOAD DUP1 SWAP2 SUB SWAP1 REVERT JUMPDEST PUSH4 0xF23A6E61 PUSH1 0xE0 SHL PUSH28 0xFFFFFFFFFFFFFFFFFFFFFFFFFFFFFFFFFFFFFFFFFFFFFFFFFFFFFFFF NOT AND DUP2 PUSH28 0xFFFFFFFFFFFFFFFFFFFFFFFFFFFFFFFFFFFFFFFFFFFFFFFFFFFFFFFF NOT AND EQ PUSH2 0x2407 JUMPI PUSH1 0x40 MLOAD PUSH32 0x8C379A000000000000000000000000000000000000000000000000000000000 DUP2 MSTORE PUSH1 0x4 ADD PUSH2 0x23FE SWAP1 PUSH2 0x40B1 JUMP JUMPDEST PUSH1 0x40 MLOAD DUP1 SWAP2 SUB SWAP1 REVERT JUMPDEST POP JUMPDEST POP POP POP POP POP POP JUMP JUMPDEST PUSH2 0x241F DUP7 DUP7 DUP7 DUP7 DUP7 DUP7 PUSH2 0x2604 JUMP JUMPDEST PUSH1 0x0 PUSH20 0xFFFFFFFFFFFFFFFFFFFFFFFFFFFFFFFFFFFFFFFF AND DUP6 PUSH20 0xFFFFFFFFFFFFFFFFFFFFFFFFFFFFFFFFFFFFFFFF AND SUB PUSH2 0x24D0 JUMPI PUSH1 0x0 JUMPDEST DUP4 MLOAD DUP2 LT ISZERO PUSH2 0x24CE JUMPI DUP3 DUP2 DUP2 MLOAD DUP2 LT PUSH2 0x2472 JUMPI PUSH2 0x2471 PUSH2 0x34AC JUMP JUMPDEST JUMPDEST PUSH1 0x20 MUL PUSH1 0x20 ADD ADD MLOAD PUSH1 0x4 PUSH1 0x0 DUP7 DUP5 DUP2 MLOAD DUP2 LT PUSH2 0x2491 JUMPI PUSH2 0x2490 PUSH2 0x34AC JUMP JUMPDEST JUMPDEST PUSH1 0x20 MUL PUSH1 0x20 ADD ADD MLOAD DUP2 MSTORE PUSH1 0x20 ADD SWAP1 DUP2 MSTORE PUSH1 0x20 ADD PUSH1 0x0 KECCAK256 PUSH1 0x0 DUP3 DUP3 SLOAD PUSH2 0x24B6 SWAP2 SWAP1 PUSH2 0x3A81 JUMP JUMPDEST SWAP3 POP POP DUP2 SWAP1 SSTORE POP DUP1 PUSH2 0x24C7 SWAP1 PUSH2 0x350A JUMP JUMPDEST SWAP1 POP PUSH2 0x2456 JUMP JUMPDEST POP JUMPDEST PUSH1 0x0 PUSH20 0xFFFFFFFFFFFFFFFFFFFFFFFFFFFFFFFFFFFFFFFF AND DUP5 PUSH20 0xFFFFFFFFFFFFFFFFFFFFFFFFFFFFFFFFFFFFFFFF AND SUB PUSH2 0x25D9 JUMPI PUSH1 0x0 JUMPDEST DUP4 MLOAD DUP2 LT ISZERO PUSH2 0x25D7 JUMPI PUSH1 0x0 DUP5 DUP3 DUP2 MLOAD DUP2 LT PUSH2 0x2525 JUMPI PUSH2 0x2524 PUSH2 0x34AC JUMP JUMPDEST JUMPDEST PUSH1 0x20 MUL PUSH1 0x20 ADD ADD MLOAD SWAP1 POP PUSH1 0x0 DUP5 DUP4 DUP2 MLOAD DUP2 LT PUSH2 0x2544 JUMPI PUSH2 0x2543 PUSH2 0x34AC JUMP JUMPDEST JUMPDEST PUSH1 0x20 MUL PUSH1 0x20 ADD ADD MLOAD SWAP1 POP PUSH1 0x0 PUSH1 0x4 PUSH1 0x0 DUP5 DUP2 MSTORE PUSH1 0x20 ADD SWAP1 DUP2 MSTORE PUSH1 0x20 ADD PUSH1 0x0 KECCAK256 SLOAD SWAP1 POP DUP2 DUP2 LT ISZERO PUSH2 0x25A9 JUMPI PUSH1 0x40 MLOAD PUSH32 0x8C379A000000000000000000000000000000000000000000000000000000000 DUP2 MSTORE PUSH1 0x4 ADD PUSH2 0x25A0 SWAP1 PUSH2 0x419D JUMP JUMPDEST PUSH1 0x40 MLOAD DUP1 SWAP2 SUB SWAP1 REVERT JUMPDEST DUP2 DUP2 SUB PUSH1 0x4 PUSH1 0x0 DUP6 DUP2 MSTORE PUSH1 0x20 ADD SWAP1 DUP2 MSTORE PUSH1 0x20 ADD PUSH1 0x0 KECCAK256 DUP2 SWAP1 SSTORE POP POP POP POP DUP1 PUSH2 0x25D0 SWAP1 PUSH2 0x350A JUMP JUMPDEST SWAP1 POP PUSH2 0x2507 JUMP JUMPDEST POP JUMPDEST POP POP POP POP POP POP JUMP JUMPDEST PUSH1 0x0 DUP1 DUP3 PUSH20 0xFFFFFFFFFFFFFFFFFFFFFFFFFFFFFFFFFFFFFFFF AND EXTCODESIZE GT SWAP1 POP SWAP2 SWAP1 POP JUMP JUMPDEST POP POP POP POP POP POP JUMP JUMPDEST PUSH1 0x0 PUSH1 0x40 MLOAD SWAP1 POP SWAP1 JUMP JUMPDEST PUSH1 0x0 DUP1 REVERT JUMPDEST PUSH1 0x0 DUP1 REVERT JUMPDEST PUSH1 0x0 PUSH20 0xFFFFFFFFFFFFFFFFFFFFFFFFFFFFFFFFFFFFFFFF DUP3 AND SWAP1 POP SWAP2 SWAP1 POP JUMP JUMPDEST PUSH1 0x0 PUSH2 0x264B DUP3 PUSH2 0x2620 JUMP JUMPDEST SWAP1 POP SWAP2 SWAP1 POP JUMP JUMPDEST PUSH2 0x265B DUP2 PUSH2 0x2640 JUMP JUMPDEST DUP2 EQ PUSH2 0x2666 JUMPI PUSH1 0x0 DUP1 REVERT JUMPDEST POP JUMP JUMPDEST PUSH1 0x0 DUP2 CALLDATALOAD SWAP1 POP PUSH2 0x2678 DUP2 PUSH2 0x2652 JUMP JUMPDEST SWAP3 SWAP2 POP POP JUMP JUMPDEST PUSH1 0x0 DUP2 SWAP1 POP SWAP2 SWAP1 POP JUMP JUMPDEST PUSH2 0x2691 DUP2 PUSH2 0x267E JUMP JUMPDEST DUP2 EQ PUSH2 0x269C JUMPI PUSH1 0x0 DUP1 REVERT JUMPDEST POP JUMP JUMPDEST PUSH1 0x0 DUP2 CALLDATALOAD SWAP1 POP PUSH2 0x26AE DUP2 PUSH2 0x2688 JUMP JUMPDEST SWAP3 SWAP2 POP POP JUMP JUMPDEST PUSH1 0x0 DUP1 PUSH1 0x40 DUP4 DUP6 SUB SLT ISZERO PUSH2 0x26CB JUMPI PUSH2 0x26CA PUSH2 0x2616 JUMP JUMPDEST JUMPDEST PUSH1 0x0 PUSH2 0x26D9 DUP6 DUP3 DUP7 ADD PUSH2 0x2669 JUMP JUMPDEST SWAP3 POP POP PUSH1 0x20 PUSH2 0x26EA DUP6 DUP3 DUP7 ADD PUSH2 0x269F JUMP JUMPDEST SWAP2 POP POP SWAP3 POP SWAP3 SWAP1 POP JUMP JUMPDEST PUSH2 0x26FD DUP2 PUSH2 0x267E JUMP JUMPDEST DUP3 MSTORE POP POP JUMP JUMPDEST PUSH1 0x0 PUSH1 0x20 DUP3 ADD SWAP1 POP PUSH2 0x2718 PUSH1 0x0 DUP4 ADD DUP5 PUSH2 0x26F4 JUMP JUMPDEST SWAP3 SWAP2 POP POP JUMP JUMPDEST PUSH1 0x0 PUSH32 0xFFFFFFFF00000000000000000000000000000000000000000000000000000000 DUP3 AND SWAP1 POP SWAP2 SWAP1 POP JUMP JUMPDEST PUSH2 0x2753 DUP2 PUSH2 0x271E JUMP JUMPDEST DUP2 EQ PUSH2 0x275E JUMPI PUSH1 0x0 DUP1 REVERT JUMPDEST POP JUMP JUMPDEST PUSH1 0x0 DUP2 CALLDATALOAD SWAP1 POP PUSH2 0x2770 DUP2 PUSH2 0x274A JUMP JUMPDEST SWAP3 SWAP2 POP POP JUMP JUMPDEST PUSH1 0x0 PUSH1 0x20 DUP3 DUP5 SUB SLT ISZERO PUSH2 0x278C JUMPI PUSH2 0x278B PUSH2 0x2616 JUMP JUMPDEST JUMPDEST PUSH1 0x0 PUSH2 0x279A DUP5 DUP3 DUP6 ADD PUSH2 0x2761 JUMP JUMPDEST SWAP2 POP POP SWAP3 SWAP2 POP POP JUMP JUMPDEST PUSH1 0x0 DUP2 ISZERO ISZERO SWAP1 POP SWAP2 SWAP1 POP JUMP JUMPDEST PUSH2 0x27B8 DUP2 PUSH2 0x27A3 JUMP JUMPDEST DUP3 MSTORE POP POP JUMP JUMPDEST PUSH1 0x0 PUSH1 0x20 DUP3 ADD SWAP1 POP PUSH2 0x27D3 PUSH1 0x0 DUP4 ADD DUP5 PUSH2 0x27AF JUMP JUMPDEST SWAP3 SWAP2 POP POP JUMP JUMPDEST PUSH1 0x0 DUP1 REVERT JUMPDEST PUSH1 0x0 DUP1 REVERT JUMPDEST PUSH1 0x0 PUSH1 0x1F NOT PUSH1 0x1F DUP4 ADD AND SWAP1 POP SWAP2 SWAP1 POP JUMP JUMPDEST PUSH32 0x4E487B7100000000000000000000000000000000000000000000000000000000 PUSH1 0x0 MSTORE PUSH1 0x41 PUSH1 0x4 MSTORE PUSH1 0x24 PUSH1 0x0 REVERT JUMPDEST PUSH2 0x282C DUP3 PUSH2 0x27E3 JUMP JUMPDEST DUP2 ADD DUP2 DUP2 LT PUSH8 0xFFFFFFFFFFFFFFFF DUP3 GT OR ISZERO PUSH2 0x284B JUMPI PUSH2 0x284A PUSH2 0x27F4 JUMP JUMPDEST JUMPDEST DUP1 PUSH1 0x40 MSTORE POP POP POP JUMP JUMPDEST PUSH1 0x0 PUSH2 0x285E PUSH2 0x260C JUMP JUMPDEST SWAP1 POP PUSH2 0x286A DUP3 DUP3 PUSH2 0x2823 JUMP JUMPDEST SWAP2 SWAP1 POP JUMP JUMPDEST PUSH1 0x0 PUSH8 0xFFFFFFFFFFFFFFFF DUP3 GT ISZERO PUSH2 0x288A JUMPI PUSH2 0x2889 PUSH2 0x27F4 JUMP JUMPDEST JUMPDEST PUSH2 0x2893 DUP3 PUSH2 0x27E3 JUMP JUMPDEST SWAP1 POP PUSH1 0x20 DUP2 ADD SWAP1 POP SWAP2 SWAP1 POP JUMP JUMPDEST DUP3 DUP2 DUP4 CALLDATACOPY PUSH1 0x0 DUP4 DUP4 ADD MSTORE POP POP POP JUMP JUMPDEST PUSH1 0x0 PUSH2 0x28C2 PUSH2 0x28BD DUP5 PUSH2 0x286F JUMP JUMPDEST PUSH2 0x2854 JUMP JUMPDEST SWAP1 POP DUP3 DUP2 MSTORE PUSH1 0x20 DUP2 ADD DUP5 DUP5 DUP5 ADD GT ISZERO PUSH2 0x28DE JUMPI PUSH2 0x28DD PUSH2 0x27DE JUMP JUMPDEST JUMPDEST PUSH2 0x28E9 DUP5 DUP3 DUP6 PUSH2 0x28A0 JUMP JUMPDEST POP SWAP4 SWAP3 POP POP POP JUMP JUMPDEST PUSH1 0x0 DUP3 PUSH1 0x1F DUP4 ADD SLT PUSH2 0x2906 JUMPI PUSH2 0x2905 PUSH2 0x27D9 JUMP JUMPDEST JUMPDEST DUP2 CALLDATALOAD PUSH2 0x2916 DUP5 DUP3 PUSH1 0x20 DUP7 ADD PUSH2 0x28AF JUMP JUMPDEST SWAP2 POP POP SWAP3 SWAP2 POP POP JUMP JUMPDEST PUSH1 0x0 PUSH1 0x20 DUP3 DUP5 SUB SLT ISZERO PUSH2 0x2935 JUMPI PUSH2 0x2934 PUSH2 0x2616 JUMP JUMPDEST JUMPDEST PUSH1 0x0 DUP3 ADD CALLDATALOAD PUSH8 0xFFFFFFFFFFFFFFFF DUP2 GT ISZERO PUSH2 0x2953 JUMPI PUSH2 0x2952 PUSH2 0x261B JUMP JUMPDEST JUMPDEST PUSH2 0x295F DUP5 DUP3 DUP6 ADD PUSH2 0x28F1 JUMP JUMPDEST SWAP2 POP POP SWAP3 SWAP2 POP POP JUMP JUMPDEST PUSH1 0x0 PUSH1 0x20 DUP3 DUP5 SUB SLT ISZERO PUSH2 0x297E JUMPI PUSH2 0x297D PUSH2 0x2616 JUMP JUMPDEST JUMPDEST PUSH1 0x0 PUSH2 0x298C DUP5 DUP3 DUP6 ADD PUSH2 0x269F JUMP JUMPDEST SWAP2 POP POP SWAP3 SWAP2 POP POP JUMP JUMPDEST PUSH1 0x0 DUP2 MLOAD SWAP1 POP SWAP2 SWAP1 POP JUMP JUMPDEST PUSH1 0x0 DUP3 DUP3 MSTORE PUSH1 0x20 DUP3 ADD SWAP1 POP SWAP3 SWAP2 POP POP JUMP JUMPDEST PUSH1 0x0 JUMPDEST DUP4 DUP2 LT ISZERO PUSH2 0x29CF JUMPI DUP1 DUP3 ADD MLOAD DUP2 DUP5 ADD MSTORE PUSH1 0x20 DUP2 ADD SWAP1 POP PUSH2 0x29B4 JUMP JUMPDEST PUSH1 0x0 DUP5 DUP5 ADD MSTORE POP POP POP POP JUMP JUMPDEST PUSH1 0x0 PUSH2 0x29E6 DUP3 PUSH2 0x2995 JUMP JUMPDEST PUSH2 0x29F0 DUP2 DUP6 PUSH2 0x29A0 JUMP JUMPDEST SWAP4 POP PUSH2 0x2A00 DUP2 DUP6 PUSH1 0x20 DUP7 ADD PUSH2 0x29B1 JUMP JUMPDEST PUSH2 0x2A09 DUP2 PUSH2 0x27E3 JUMP JUMPDEST DUP5 ADD SWAP2 POP POP SWAP3 SWAP2 POP POP JUMP JUMPDEST PUSH1 0x0 PUSH1 0x20 DUP3 ADD SWAP1 POP DUP2 DUP2 SUB PUSH1 0x0 DUP4 ADD MSTORE PUSH2 0x2A2E DUP2 DUP5 PUSH2 0x29DB JUMP JUMPDEST SWAP1 POP SWAP3 SWAP2 POP POP JUMP JUMPDEST PUSH1 0x0 PUSH8 0xFFFFFFFFFFFFFFFF DUP3 GT ISZERO PUSH2 0x2A51 JUMPI PUSH2 0x2A50 PUSH2 0x27F4 JUMP JUMPDEST JUMPDEST PUSH1 0x20 DUP3 MUL SWAP1 POP PUSH1 0x20 DUP2 ADD SWAP1 POP SWAP2 SWAP1 POP JUMP JUMPDEST PUSH1 0x0 DUP1 REVERT JUMPDEST PUSH1 0x0 PUSH2 0x2A7A PUSH2 0x2A75 DUP5 PUSH2 0x2A36 JUMP JUMPDEST PUSH2 0x2854 JUMP JUMPDEST SWAP1 POP DUP1 DUP4 DUP3 MSTORE PUSH1 0x20 DUP3 ADD SWAP1 POP PUSH1 0x20 DUP5 MUL DUP4 ADD DUP6 DUP2 GT ISZERO PUSH2 0x2A9D JUMPI PUSH2 0x2A9C PUSH2 0x2A62 JUMP JUMPDEST JUMPDEST DUP4 JUMPDEST DUP2 DUP2 LT ISZERO PUSH2 0x2AC6 JUMPI DUP1 PUSH2 0x2AB2 DUP9 DUP3 PUSH2 0x269F JUMP JUMPDEST DUP5 MSTORE PUSH1 0x20 DUP5 ADD SWAP4 POP POP PUSH1 0x20 DUP2 ADD SWAP1 POP PUSH2 0x2A9F JUMP JUMPDEST POP POP POP SWAP4 SWAP3 POP POP POP JUMP JUMPDEST PUSH1 0x0 DUP3 PUSH1 0x1F DUP4 ADD SLT PUSH2 0x2AE5 JUMPI PUSH2 0x2AE4 PUSH2 0x27D9 JUMP JUMPDEST JUMPDEST DUP2 CALLDATALOAD PUSH2 0x2AF5 DUP5 DUP3 PUSH1 0x20 DUP7 ADD PUSH2 0x2A67 JUMP JUMPDEST SWAP2 POP POP SWAP3 SWAP2 POP POP JUMP JUMPDEST PUSH1 0x0 PUSH8 0xFFFFFFFFFFFFFFFF DUP3 GT ISZERO PUSH2 0x2B19 JUMPI PUSH2 0x2B18 PUSH2 0x27F4 JUMP JUMPDEST JUMPDEST PUSH2 0x2B22 DUP3 PUSH2 0x27E3 JUMP JUMPDEST SWAP1 POP PUSH1 0x20 DUP2 ADD SWAP1 POP SWAP2 SWAP1 POP JUMP JUMPDEST PUSH1 0x0 PUSH2 0x2B42 PUSH2 0x2B3D DUP5 PUSH2 0x2AFE JUMP JUMPDEST PUSH2 0x2854 JUMP JUMPDEST SWAP1 POP DUP3 DUP2 MSTORE PUSH1 0x20 DUP2 ADD DUP5 DUP5 DUP5 ADD GT ISZERO PUSH2 0x2B5E JUMPI PUSH2 0x2B5D PUSH2 0x27DE JUMP JUMPDEST JUMPDEST PUSH2 0x2B69 DUP5 DUP3 DUP6 PUSH2 0x28A0 JUMP JUMPDEST POP SWAP4 SWAP3 POP POP POP JUMP JUMPDEST PUSH1 0x0 DUP3 PUSH1 0x1F DUP4 ADD SLT PUSH2 0x2B86 JUMPI PUSH2 0x2B85 PUSH2 0x27D9 JUMP JUMPDEST JUMPDEST DUP2 CALLDATALOAD PUSH2 0x2B96 DUP5 DUP3 PUSH1 0x20 DUP7 ADD PUSH2 0x2B2F JUMP JUMPDEST SWAP2 POP POP SWAP3 SWAP2 POP POP JUMP JUMPDEST PUSH1 0x0 DUP1 PUSH1 0x0 DUP1 PUSH1 0x80 DUP6 DUP8 SUB SLT ISZERO PUSH2 0x2BB9 JUMPI PUSH2 0x2BB8 PUSH2 0x2616 JUMP JUMPDEST JUMPDEST PUSH1 0x0 PUSH2 0x2BC7 DUP8 DUP3 DUP9 ADD PUSH2 0x2669 JUMP JUMPDEST SWAP5 POP POP PUSH1 0x20 DUP6 ADD CALLDATALOAD PUSH8 0xFFFFFFFFFFFFFFFF DUP2 GT ISZERO PUSH2 0x2BE8 JUMPI PUSH2 0x2BE7 PUSH2 0x261B JUMP JUMPDEST JUMPDEST PUSH2 0x2BF4 DUP8 DUP3 DUP9 ADD PUSH2 0x2AD0 JUMP JUMPDEST SWAP4 POP POP PUSH1 0x40 DUP6 ADD CALLDATALOAD PUSH8 0xFFFFFFFFFFFFFFFF DUP2 GT ISZERO PUSH2 0x2C15 JUMPI PUSH2 0x2C14 PUSH2 0x261B JUMP JUMPDEST JUMPDEST PUSH2 0x2C21 DUP8 DUP3 DUP9 ADD PUSH2 0x2AD0 JUMP JUMPDEST SWAP3 POP POP PUSH1 0x60 DUP6 ADD CALLDATALOAD PUSH8 0xFFFFFFFFFFFFFFFF DUP2 GT ISZERO PUSH2 0x2C42 JUMPI PUSH2 0x2C41 PUSH2 0x261B JUMP JUMPDEST JUMPDEST PUSH2 0x2C4E DUP8 DUP3 DUP9 ADD PUSH2 0x2B71 JUMP JUMPDEST SWAP2 POP POP SWAP3 SWAP6 SWAP2 SWAP5 POP SWAP3 POP JUMP JUMPDEST PUSH1 0x0 DUP1 PUSH1 0x0 DUP1 PUSH1 0x0 PUSH1 0xA0 DUP7 DUP9 SUB SLT ISZERO PUSH2 0x2C76 JUMPI PUSH2 0x2C75 PUSH2 0x2616 JUMP JUMPDEST JUMPDEST PUSH1 0x0 PUSH2 0x2C84 DUP9 DUP3 DUP10 ADD PUSH2 0x2669 JUMP JUMPDEST SWAP6 POP POP PUSH1 0x20 PUSH2 0x2C95 DUP9 DUP3 DUP10 ADD PUSH2 0x2669 JUMP JUMPDEST SWAP5 POP POP PUSH1 0x40 DUP7 ADD CALLDATALOAD PUSH8 0xFFFFFFFFFFFFFFFF DUP2 GT ISZERO PUSH2 0x2CB6 JUMPI PUSH2 0x2CB5 PUSH2 0x261B JUMP JUMPDEST JUMPDEST PUSH2 0x2CC2 DUP9 DUP3 DUP10 ADD PUSH2 0x2AD0 JUMP JUMPDEST SWAP4 POP POP PUSH1 0x60 DUP7 ADD CALLDATALOAD PUSH8 0xFFFFFFFFFFFFFFFF DUP2 GT ISZERO PUSH2 0x2CE3 JUMPI PUSH2 0x2CE2 PUSH2 0x261B JUMP JUMPDEST JUMPDEST PUSH2 0x2CEF DUP9 DUP3 DUP10 ADD PUSH2 0x2AD0 JUMP JUMPDEST SWAP3 POP POP PUSH1 0x80 DUP7 ADD CALLDATALOAD PUSH8 0xFFFFFFFFFFFFFFFF DUP2 GT ISZERO PUSH2 0x2D10 JUMPI PUSH2 0x2D0F PUSH2 0x261B JUMP JUMPDEST JUMPDEST PUSH2 0x2D1C DUP9 DUP3 DUP10 ADD PUSH2 0x2B71 JUMP JUMPDEST SWAP2 POP POP SWAP3 SWAP6 POP SWAP3 SWAP6 SWAP1 SWAP4 POP JUMP JUMPDEST PUSH1 0x0 PUSH8 0xFFFFFFFFFFFFFFFF DUP3 GT ISZERO PUSH2 0x2D44 JUMPI PUSH2 0x2D43 PUSH2 0x27F4 JUMP JUMPDEST JUMPDEST PUSH1 0x20 DUP3 MUL SWAP1 POP PUSH1 0x20 DUP2 ADD SWAP1 POP SWAP2 SWAP1 POP JUMP JUMPDEST PUSH1 0x0 PUSH2 0x2D68 PUSH2 0x2D63 DUP5 PUSH2 0x2D29 JUMP JUMPDEST PUSH2 0x2854 JUMP JUMPDEST SWAP1 POP DUP1 DUP4 DUP3 MSTORE PUSH1 0x20 DUP3 ADD SWAP1 POP PUSH1 0x20 DUP5 MUL DUP4 ADD DUP6 DUP2 GT ISZERO PUSH2 0x2D8B JUMPI PUSH2 0x2D8A PUSH2 0x2A62 JUMP JUMPDEST JUMPDEST DUP4 JUMPDEST DUP2 DUP2 LT ISZERO PUSH2 0x2DB4 JUMPI DUP1 PUSH2 0x2DA0 DUP9 DUP3 PUSH2 0x2669 JUMP JUMPDEST DUP5 MSTORE PUSH1 0x20 DUP5 ADD SWAP4 POP POP PUSH1 0x20 DUP2 ADD SWAP1 POP PUSH2 0x2D8D JUMP JUMPDEST POP POP POP SWAP4 SWAP3 POP POP POP JUMP JUMPDEST PUSH1 0x0 DUP3 PUSH1 0x1F DUP4 ADD SLT PUSH2 0x2DD3 JUMPI PUSH2 0x2DD2 PUSH2 0x27D9 JUMP JUMPDEST JUMPDEST DUP2 CALLDATALOAD PUSH2 0x2DE3 DUP5 DUP3 PUSH1 0x20 DUP7 ADD PUSH2 0x2D55 JUMP JUMPDEST SWAP2 POP POP SWAP3 SWAP2 POP POP JUMP JUMPDEST PUSH1 0x0 DUP1 PUSH1 0x40 DUP4 DUP6 SUB SLT ISZERO PUSH2 0x2E03 JUMPI PUSH2 0x2E02 PUSH2 0x2616 JUMP JUMPDEST JUMPDEST PUSH1 0x0 DUP4 ADD CALLDATALOAD PUSH8 0xFFFFFFFFFFFFFFFF DUP2 GT ISZERO PUSH2 0x2E21 JUMPI PUSH2 0x2E20 PUSH2 0x261B JUMP JUMPDEST JUMPDEST PUSH2 0x2E2D DUP6 DUP3 DUP7 ADD PUSH2 0x2DBE JUMP JUMPDEST SWAP3 POP POP PUSH1 0x20 DUP4 ADD CALLDATALOAD PUSH8 0xFFFFFFFFFFFFFFFF DUP2 GT ISZERO PUSH2 0x2E4E JUMPI PUSH2 0x2E4D PUSH2 0x261B JUMP JUMPDEST JUMPDEST PUSH2 0x2E5A DUP6 DUP3 DUP7 ADD PUSH2 0x2AD0 JUMP JUMPDEST SWAP2 POP POP SWAP3 POP SWAP3 SWAP1 POP JUMP JUMPDEST PUSH1 0x0 DUP2 MLOAD SWAP1 POP SWAP2 SWAP1 POP JUMP JUMPDEST PUSH1 0x0 DUP3 DUP3 MSTORE PUSH1 0x20 DUP3 ADD SWAP1 POP SWAP3 SWAP2 POP POP JUMP JUMPDEST PUSH1 0x0 DUP2 SWAP1 POP PUSH1 0x20 DUP3 ADD SWAP1 POP SWAP2 SWAP1 POP JUMP JUMPDEST PUSH2 0x2E99 DUP2 PUSH2 0x267E JUMP JUMPDEST DUP3 MSTORE POP POP JUMP JUMPDEST PUSH1 0x0 PUSH2 0x2EAB DUP4 DUP4 PUSH2 0x2E90 JUMP JUMPDEST PUSH1 0x20 DUP4 ADD SWAP1 POP SWAP3 SWAP2 POP POP JUMP JUMPDEST PUSH1 0x0 PUSH1 0x20 DUP3 ADD SWAP1 POP SWAP2 SWAP1 POP JUMP JUMPDEST PUSH1 0x0 PUSH2 0x2ECF DUP3 PUSH2 0x2E64 JUMP JUMPDEST PUSH2 0x2ED9 DUP2 DUP6 PUSH2 0x2E6F JUMP JUMPDEST SWAP4 POP PUSH2 0x2EE4 DUP4 PUSH2 0x2E80 JUMP JUMPDEST DUP1 PUSH1 0x0 JUMPDEST DUP4 DUP2 LT ISZERO PUSH2 0x2F15 JUMPI DUP2 MLOAD PUSH2 0x2EFC DUP9 DUP3 PUSH2 0x2E9F JUMP JUMPDEST SWAP8 POP PUSH2 0x2F07 DUP4 PUSH2 0x2EB7 JUMP JUMPDEST SWAP3 POP POP PUSH1 0x1 DUP2 ADD SWAP1 POP PUSH2 0x2EE8 JUMP JUMPDEST POP DUP6 SWAP4 POP POP POP POP SWAP3 SWAP2 POP POP JUMP JUMPDEST PUSH1 0x0 PUSH1 0x20 DUP3 ADD SWAP1 POP DUP2 DUP2 SUB PUSH1 0x0 DUP4 ADD MSTORE PUSH2 0x2F3C DUP2 DUP5 PUSH2 0x2EC4 JUMP JUMPDEST SWAP1 POP SWAP3 SWAP2 POP POP JUMP JUMPDEST PUSH1 0x0 DUP1 PUSH1 0x0 PUSH1 0x60 DUP5 DUP7 SUB SLT ISZERO PUSH2 0x2F5D JUMPI PUSH2 0x2F5C PUSH2 0x2616 JUMP JUMPDEST JUMPDEST PUSH1 0x0 PUSH2 0x2F6B DUP7 DUP3 DUP8 ADD PUSH2 0x2669 JUMP JUMPDEST SWAP4 POP POP PUSH1 0x20 DUP5 ADD CALLDATALOAD PUSH8 0xFFFFFFFFFFFFFFFF DUP2 GT ISZERO PUSH2 0x2F8C JUMPI PUSH2 0x2F8B PUSH2 0x261B JUMP JUMPDEST JUMPDEST PUSH2 0x2F98 DUP7 DUP3 DUP8 ADD PUSH2 0x2AD0 JUMP JUMPDEST SWAP3 POP POP PUSH1 0x40 DUP5 ADD CALLDATALOAD PUSH8 0xFFFFFFFFFFFFFFFF DUP2 GT ISZERO PUSH2 0x2FB9 JUMPI PUSH2 0x2FB8 PUSH2 0x261B JUMP JUMPDEST JUMPDEST PUSH2 0x2FC5 DUP7 DUP3 DUP8 ADD PUSH2 0x2AD0 JUMP JUMPDEST SWAP2 POP POP SWAP3 POP SWAP3 POP SWAP3 JUMP JUMPDEST PUSH1 0x0 DUP1 PUSH1 0x0 DUP1 PUSH1 0x80 DUP6 DUP8 SUB SLT ISZERO PUSH2 0x2FE9 JUMPI PUSH2 0x2FE8 PUSH2 0x2616 JUMP JUMPDEST JUMPDEST PUSH1 0x0 PUSH2 0x2FF7 DUP8 DUP3 DUP9 ADD PUSH2 0x2669 JUMP JUMPDEST SWAP5 POP POP PUSH1 0x20 PUSH2 0x3008 DUP8 DUP3 DUP9 ADD PUSH2 0x269F JUMP JUMPDEST SWAP4 POP POP PUSH1 0x40 PUSH2 0x3019 DUP8 DUP3 DUP9 ADD PUSH2 0x269F JUMP JUMPDEST SWAP3 POP POP PUSH1 0x60 DUP6 ADD CALLDATALOAD PUSH8 0xFFFFFFFFFFFFFFFF DUP2 GT ISZERO PUSH2 0x303A JUMPI PUSH2 0x3039 PUSH2 0x261B JUMP JUMPDEST JUMPDEST PUSH2 0x3046 DUP8 DUP3 DUP9 ADD PUSH2 0x2B71 JUMP JUMPDEST SWAP2 POP POP SWAP3 SWAP6 SWAP2 SWAP5 POP SWAP3 POP JUMP JUMPDEST PUSH2 0x305B DUP2 PUSH2 0x2640 JUMP JUMPDEST DUP3 MSTORE POP POP JUMP JUMPDEST PUSH1 0x0 PUSH1 0x20 DUP3 ADD SWAP1 POP PUSH2 0x3076 PUSH1 0x0 DUP4 ADD DUP5 PUSH2 0x3052 JUMP JUMPDEST SWAP3 SWAP2 POP POP JUMP JUMPDEST PUSH2 0x3085 DUP2 PUSH2 0x27A3 JUMP JUMPDEST DUP2 EQ PUSH2 0x3090 JUMPI PUSH1 0x0 DUP1 REVERT JUMPDEST POP JUMP JUMPDEST PUSH1 0x0 DUP2 CALLDATALOAD SWAP1 POP PUSH2 0x30A2 DUP2 PUSH2 0x307C JUMP JUMPDEST SWAP3 SWAP2 POP POP JUMP JUMPDEST PUSH1 0x0 DUP1 PUSH1 0x40 DUP4 DUP6 SUB SLT ISZERO PUSH2 0x30BF JUMPI PUSH2 0x30BE PUSH2 0x2616 JUMP JUMPDEST JUMPDEST PUSH1 0x0 PUSH2 0x30CD DUP6 DUP3 DUP7 ADD PUSH2 0x2669 JUMP JUMPDEST SWAP3 POP POP PUSH1 0x20 PUSH2 0x30DE DUP6 DUP3 DUP7 ADD PUSH2 0x3093 JUMP JUMPDEST SWAP2 POP POP SWAP3 POP SWAP3 SWAP1 POP JUMP JUMPDEST PUSH1 0x0 DUP1 PUSH1 0x40 DUP4 DUP6 SUB SLT ISZERO PUSH2 0x30FF JUMPI PUSH2 0x30FE PUSH2 0x2616 JUMP JUMPDEST JUMPDEST PUSH1 0x0 PUSH2 0x310D DUP6 DUP3 DUP7 ADD PUSH2 0x2669 JUMP JUMPDEST SWAP3 POP POP PUSH1 0x20 PUSH2 0x311E DUP6 DUP3 DUP7 ADD PUSH2 0x2669 JUMP JUMPDEST SWAP2 POP POP SWAP3 POP SWAP3 SWAP1 POP JUMP JUMPDEST PUSH1 0x0 DUP1 PUSH1 0x0 DUP1 PUSH1 0x0 PUSH1 0xA0 DUP7 DUP9 SUB SLT ISZERO PUSH2 0x3144 JUMPI PUSH2 0x3143 PUSH2 0x2616 JUMP JUMPDEST JUMPDEST PUSH1 0x0 PUSH2 0x3152 DUP9 DUP3 DUP10 ADD PUSH2 0x2669 JUMP JUMPDEST SWAP6 POP POP PUSH1 0x20 PUSH2 0x3163 DUP9 DUP3 DUP10 ADD PUSH2 0x2669 JUMP JUMPDEST SWAP5 POP POP PUSH1 0x40 PUSH2 0x3174 DUP9 DUP3 DUP10 ADD PUSH2 0x269F JUMP JUMPDEST SWAP4 POP POP PUSH1 0x60 PUSH2 0x3185 DUP9 DUP3 DUP10 ADD PUSH2 0x269F JUMP JUMPDEST SWAP3 POP POP PUSH1 0x80 DUP7 ADD CALLDATALOAD PUSH8 0xFFFFFFFFFFFFFFFF DUP2 GT ISZERO PUSH2 0x31A6 JUMPI PUSH2 0x31A5 PUSH2 0x261B JUMP JUMPDEST JUMPDEST PUSH2 0x31B2 DUP9 DUP3 DUP10 ADD PUSH2 0x2B71 JUMP JUMPDEST SWAP2 POP POP SWAP3 SWAP6 POP SWAP3 SWAP6 SWAP1 SWAP4 POP JUMP JUMPDEST PUSH1 0x0 PUSH1 0x20 DUP3 DUP5 SUB SLT ISZERO PUSH2 0x31D5 JUMPI PUSH2 0x31D4 PUSH2 0x2616 JUMP JUMPDEST JUMPDEST PUSH1 0x0 PUSH2 0x31E3 DUP5 DUP3 DUP6 ADD PUSH2 0x2669 JUMP JUMPDEST SWAP2 POP POP SWAP3 SWAP2 POP POP JUMP JUMPDEST PUSH1 0x0 DUP1 PUSH1 0x0 PUSH1 0x60 DUP5 DUP7 SUB SLT ISZERO PUSH2 0x3205 JUMPI PUSH2 0x3204 PUSH2 0x2616 JUMP JUMPDEST JUMPDEST PUSH1 0x0 PUSH2 0x3213 DUP7 DUP3 DUP8 ADD PUSH2 0x2669 JUMP JUMPDEST SWAP4 POP POP PUSH1 0x20 PUSH2 0x3224 DUP7 DUP3 DUP8 ADD PUSH2 0x269F JUMP JUMPDEST SWAP3 POP POP PUSH1 0x40 PUSH2 0x3235 DUP7 DUP3 DUP8 ADD PUSH2 0x269F JUMP JUMPDEST SWAP2 POP POP SWAP3 POP SWAP3 POP SWAP3 JUMP JUMPDEST PUSH32 0x455243313135353A2061646472657373207A65726F206973206E6F7420612076 PUSH1 0x0 DUP3 ADD MSTORE PUSH32 0x616C6964206F776E657200000000000000000000000000000000000000000000 PUSH1 0x20 DUP3 ADD MSTORE POP JUMP JUMPDEST PUSH1 0x0 PUSH2 0x329B PUSH1 0x2A DUP4 PUSH2 0x29A0 JUMP JUMPDEST SWAP2 POP PUSH2 0x32A6 DUP3 PUSH2 0x323F JUMP JUMPDEST PUSH1 0x40 DUP3 ADD SWAP1 POP SWAP2 SWAP1 POP JUMP JUMPDEST PUSH1 0x0 PUSH1 0x20 DUP3 ADD SWAP1 POP DUP2 DUP2 SUB PUSH1 0x0 DUP4 ADD MSTORE PUSH2 0x32CA DUP2 PUSH2 0x328E JUMP JUMPDEST SWAP1 POP SWAP2 SWAP1 POP JUMP JUMPDEST PUSH1 0x0 DUP2 SWAP1 POP SWAP3 SWAP2 POP POP JUMP JUMPDEST PUSH1 0x0 PUSH2 0x32E7 DUP3 PUSH2 0x2995 JUMP JUMPDEST PUSH2 0x32F1 DUP2 DUP6 PUSH2 0x32D1 JUMP JUMPDEST SWAP4 POP PUSH2 0x3301 DUP2 DUP6 PUSH1 0x20 DUP7 ADD PUSH2 0x29B1 JUMP JUMPDEST DUP1 DUP5 ADD SWAP2 POP POP SWAP3 SWAP2 POP POP JUMP JUMPDEST PUSH32 0x2E6A736F6E000000000000000000000000000000000000000000000000000000 PUSH1 0x0 DUP3 ADD MSTORE POP JUMP JUMPDEST PUSH1 0x0 PUSH2 0x3343 PUSH1 0x5 DUP4 PUSH2 0x32D1 JUMP JUMPDEST SWAP2 POP PUSH2 0x334E DUP3 PUSH2 0x330D JUMP JUMPDEST PUSH1 0x5 DUP3 ADD SWAP1 POP SWAP2 SWAP1 POP JUMP JUMPDEST PUSH1 0x0 PUSH2 0x3365 DUP3 DUP6 PUSH2 0x32DC JUMP JUMPDEST SWAP2 POP PUSH2 0x3371 DUP3 DUP5 PUSH2 0x32DC JUMP JUMPDEST SWAP2 POP PUSH2 0x337C DUP3 PUSH2 0x3336 JUMP JUMPDEST SWAP2 POP DUP2 SWAP1 POP SWAP4 SWAP3 POP POP POP JUMP JUMPDEST PUSH32 0x455243313135353A2063616C6C6572206973206E6F7420746F6B656E206F776E PUSH1 0x0 DUP3 ADD MSTORE PUSH32 0x6572206F7220617070726F766564000000000000000000000000000000000000 PUSH1 0x20 DUP3 ADD MSTORE POP JUMP JUMPDEST PUSH1 0x0 PUSH2 0x33E4 PUSH1 0x2E DUP4 PUSH2 0x29A0 JUMP JUMPDEST SWAP2 POP PUSH2 0x33EF DUP3 PUSH2 0x3388 JUMP JUMPDEST PUSH1 0x40 DUP3 ADD SWAP1 POP SWAP2 SWAP1 POP JUMP JUMPDEST PUSH1 0x0 PUSH1 0x20 DUP3 ADD SWAP1 POP DUP2 DUP2 SUB PUSH1 0x0 DUP4 ADD MSTORE PUSH2 0x3413 DUP2 PUSH2 0x33D7 JUMP JUMPDEST SWAP1 POP SWAP2 SWAP1 POP JUMP JUMPDEST PUSH32 0x455243313135353A206163636F756E747320616E6420696473206C656E677468 PUSH1 0x0 DUP3 ADD MSTORE PUSH32 0x206D69736D617463680000000000000000000000000000000000000000000000 PUSH1 0x20 DUP3 ADD MSTORE POP JUMP JUMPDEST PUSH1 0x0 PUSH2 0x3476 PUSH1 0x29 DUP4 PUSH2 0x29A0 JUMP JUMPDEST SWAP2 POP PUSH2 0x3481 DUP3 PUSH2 0x341A JUMP JUMPDEST PUSH1 0x40 DUP3 ADD SWAP1 POP SWAP2 SWAP1 POP JUMP JUMPDEST PUSH1 0x0 PUSH1 0x20 DUP3 ADD SWAP1 POP DUP2 DUP2 SUB PUSH1 0x0 DUP4 ADD MSTORE PUSH2 0x34A5 DUP2 PUSH2 0x3469 JUMP JUMPDEST SWAP1 POP SWAP2 SWAP1 POP JUMP JUMPDEST PUSH32 0x4E487B7100000000000000000000000000000000000000000000000000000000 PUSH1 0x0 MSTORE PUSH1 0x32 PUSH1 0x4 MSTORE PUSH1 0x24 PUSH1 0x0 REVERT JUMPDEST PUSH32 0x4E487B7100000000000000000000000000000000000000000000000000000000 PUSH1 0x0 MSTORE PUSH1 0x11 PUSH1 0x4 MSTORE PUSH1 0x24 PUSH1 0x0 REVERT JUMPDEST PUSH1 0x0 PUSH2 0x3515 DUP3 PUSH2 0x267E JUMP JUMPDEST SWAP2 POP PUSH32 0xFFFFFFFFFFFFFFFFFFFFFFFFFFFFFFFFFFFFFFFFFFFFFFFFFFFFFFFFFFFFFFFF DUP3 SUB PUSH2 0x3547 JUMPI PUSH2 0x3546 PUSH2 0x34DB JUMP JUMPDEST JUMPDEST PUSH1 0x1 DUP3 ADD SWAP1 POP SWAP2 SWAP1 POP JUMP JUMPDEST PUSH32 0x4F776E61626C653A206E6577206F776E657220697320746865207A65726F2061 PUSH1 0x0 DUP3 ADD MSTORE PUSH32 0x6464726573730000000000000000000000000000000000000000000000000000 PUSH1 0x20 DUP3 ADD MSTORE POP JUMP JUMPDEST PUSH1 0x0 PUSH2 0x35AE PUSH1 0x26 DUP4 PUSH2 0x29A0 JUMP JUMPDEST SWAP2 POP PUSH2 0x35B9 DUP3 PUSH2 0x3552 JUMP JUMPDEST PUSH1 0x40 DUP3 ADD SWAP1 POP SWAP2 SWAP1 POP JUMP JUMPDEST PUSH1 0x0 PUSH1 0x20 DUP3 ADD SWAP1 POP DUP2 DUP2 SUB PUSH1 0x0 DUP4 ADD MSTORE PUSH2 0x35DD DUP2 PUSH2 0x35A1 JUMP JUMPDEST SWAP1 POP SWAP2 SWAP1 POP JUMP JUMPDEST PUSH32 0x4F776E61626C653A2063616C6C6572206973206E6F7420746865206F776E6572 PUSH1 0x0 DUP3 ADD MSTORE POP JUMP JUMPDEST PUSH1 0x0 PUSH2 0x361A PUSH1 0x20 DUP4 PUSH2 0x29A0 JUMP JUMPDEST SWAP2 POP PUSH2 0x3625 DUP3 PUSH2 0x35E4 JUMP JUMPDEST PUSH1 0x20 DUP3 ADD SWAP1 POP SWAP2 SWAP1 POP JUMP JUMPDEST PUSH1 0x0 PUSH1 0x20 DUP3 ADD SWAP1 POP DUP2 DUP2 SUB PUSH1 0x0 DUP4 ADD MSTORE PUSH2 0x3649 DUP2 PUSH2 0x360D JUMP JUMPDEST SWAP1 POP SWAP2 SWAP1 POP JUMP JUMPDEST PUSH32 0x4E487B7100000000000000000000000000000000000000000000000000000000 PUSH1 0x0 MSTORE PUSH1 0x22 PUSH1 0x4 MSTORE PUSH1 0x24 PUSH1 0x0 REVERT JUMPDEST PUSH1 0x0 PUSH1 0x2 DUP3 DIV SWAP1 POP PUSH1 0x1 DUP3 AND DUP1 PUSH2 0x3697 JUMPI PUSH1 0x7F DUP3 AND SWAP2 POP JUMPDEST PUSH1 0x20 DUP3 LT DUP2 SUB PUSH2 0x36AA JUMPI PUSH2 0x36A9 PUSH2 0x3650 JUMP JUMPDEST JUMPDEST POP SWAP2 SWAP1 POP JUMP JUMPDEST PUSH1 0x0 DUP2 SWAP1 POP DUP2 PUSH1 0x0 MSTORE PUSH1 0x20 PUSH1 0x0 KECCAK256 SWAP1 POP SWAP2 SWAP1 POP JUMP JUMPDEST PUSH1 0x0 PUSH1 0x20 PUSH1 0x1F DUP4 ADD DIV SWAP1 POP SWAP2 SWAP1 POP JUMP JUMPDEST PUSH1 0x0 DUP3 DUP3 SHL SWAP1 POP SWAP3 SWAP2 POP POP JUMP JUMPDEST PUSH1 0x0 PUSH1 0x8 DUP4 MUL PUSH2 0x3712 PUSH32 0xFFFFFFFFFFFFFFFFFFFFFFFFFFFFFFFFFFFFFFFFFFFFFFFFFFFFFFFFFFFFFFFF DUP3 PUSH2 0x36D5 JUMP JUMPDEST PUSH2 0x371C DUP7 DUP4 PUSH2 0x36D5 JUMP JUMPDEST SWAP6 POP DUP1 NOT DUP5 AND SWAP4 POP DUP1 DUP7 AND DUP5 OR SWAP3 POP POP POP SWAP4 SWAP3 POP POP POP JUMP JUMPDEST PUSH1 0x0 DUP2 SWAP1 POP SWAP2 SWAP1 POP JUMP JUMPDEST PUSH1 0x0 PUSH2 0x3759 PUSH2 0x3754 PUSH2 0x374F DUP5 PUSH2 0x267E JUMP JUMPDEST PUSH2 0x3734 JUMP JUMPDEST PUSH2 0x267E JUMP JUMPDEST SWAP1 POP SWAP2 SWAP1 POP JUMP JUMPDEST PUSH1 0x0 DUP2 SWAP1 POP SWAP2 SWAP1 POP JUMP JUMPDEST PUSH2 0x3773 DUP4 PUSH2 0x373E JUMP JUMPDEST PUSH2 0x3787 PUSH2 0x377F DUP3 PUSH2 0x3760 JUMP JUMPDEST DUP5 DUP5 SLOAD PUSH2 0x36E2 JUMP JUMPDEST DUP3 SSTORE POP POP POP POP JUMP JUMPDEST PUSH1 0x0 SWAP1 JUMP JUMPDEST PUSH2 0x379C PUSH2 0x378F JUMP JUMPDEST PUSH2 0x37A7 DUP2 DUP5 DUP5 PUSH2 0x376A JUMP JUMPDEST POP POP POP JUMP JUMPDEST JUMPDEST DUP2 DUP2 LT ISZERO PUSH2 0x37CB JUMPI PUSH2 0x37C0 PUSH1 0x0 DUP3 PUSH2 0x3794 JUMP JUMPDEST PUSH1 0x1 DUP2 ADD SWAP1 POP PUSH2 0x37AD JUMP JUMPDEST POP POP JUMP JUMPDEST PUSH1 0x1F DUP3 GT ISZERO PUSH2 0x3810 JUMPI PUSH2 0x37E1 DUP2 PUSH2 0x36B0 JUMP JUMPDEST PUSH2 0x37EA DUP5 PUSH2 0x36C5 JUMP JUMPDEST DUP2 ADD PUSH1 0x20 DUP6 LT ISZERO PUSH2 0x37F9 JUMPI DUP2 SWAP1 POP JUMPDEST PUSH2 0x380D PUSH2 0x3805 DUP6 PUSH2 0x36C5 JUMP JUMPDEST DUP4 ADD DUP3 PUSH2 0x37AC JUMP JUMPDEST POP POP JUMPDEST POP POP POP JUMP JUMPDEST PUSH1 0x0 DUP3 DUP3 SHR SWAP1 POP SWAP3 SWAP2 POP POP JUMP JUMPDEST PUSH1 0x0 PUSH2 0x3833 PUSH1 0x0 NOT DUP5 PUSH1 0x8 MUL PUSH2 0x3815 JUMP JUMPDEST NOT DUP1 DUP4 AND SWAP2 POP POP SWAP3 SWAP2 POP POP JUMP JUMPDEST PUSH1 0x0 PUSH2 0x384C DUP4 DUP4 PUSH2 0x3822 JUMP JUMPDEST SWAP2 POP DUP3 PUSH1 0x2 MUL DUP3 OR SWAP1 POP SWAP3 SWAP2 POP POP JUMP JUMPDEST PUSH2 0x3865 DUP3 PUSH2 0x2995 JUMP JUMPDEST PUSH8 0xFFFFFFFFFFFFFFFF DUP2 GT ISZERO PUSH2 0x387E JUMPI PUSH2 0x387D PUSH2 0x27F4 JUMP JUMPDEST JUMPDEST PUSH2 0x3888 DUP3 SLOAD PUSH2 0x367F JUMP JUMPDEST PUSH2 0x3893 DUP3 DUP3 DUP6 PUSH2 0x37CF JUMP JUMPDEST PUSH1 0x0 PUSH1 0x20 SWAP1 POP PUSH1 0x1F DUP4 GT PUSH1 0x1 DUP2 EQ PUSH2 0x38C6 JUMPI PUSH1 0x0 DUP5 ISZERO PUSH2 0x38B4 JUMPI DUP3 DUP8 ADD MLOAD SWAP1 POP JUMPDEST PUSH2 0x38BE DUP6 DUP3 PUSH2 0x3840 JUMP JUMPDEST DUP7 SSTORE POP PUSH2 0x3926 JUMP JUMPDEST PUSH1 0x1F NOT DUP5 AND PUSH2 0x38D4 DUP7 PUSH2 0x36B0 JUMP JUMPDEST PUSH1 0x0 JUMPDEST DUP3 DUP2 LT ISZERO PUSH2 0x38FC JUMPI DUP5 DUP10 ADD MLOAD DUP3 SSTORE PUSH1 0x1 DUP3 ADD SWAP2 POP PUSH1 0x20 DUP6 ADD SWAP5 POP PUSH1 0x20 DUP2 ADD SWAP1 POP PUSH2 0x38D7 JUMP JUMPDEST DUP7 DUP4 LT ISZERO PUSH2 0x3919 JUMPI DUP5 DUP10 ADD MLOAD PUSH2 0x3915 PUSH1 0x1F DUP10 AND DUP3 PUSH2 0x3822 JUMP JUMPDEST DUP4 SSTORE POP JUMPDEST PUSH1 0x1 PUSH1 0x2 DUP9 MUL ADD DUP9 SSTORE POP POP POP JUMPDEST POP POP POP POP POP POP JUMP JUMPDEST PUSH32 0x4E487B7100000000000000000000000000000000000000000000000000000000 PUSH1 0x0 MSTORE PUSH1 0x12 PUSH1 0x4 MSTORE PUSH1 0x24 PUSH1 0x0 REVERT JUMPDEST PUSH32 0x455243313135353A206D696E7420746F20746865207A65726F20616464726573 PUSH1 0x0 DUP3 ADD MSTORE PUSH32 0x7300000000000000000000000000000000000000000000000000000000000000 PUSH1 0x20 DUP3 ADD MSTORE POP JUMP JUMPDEST PUSH1 0x0 PUSH2 0x39B9 PUSH1 0x21 DUP4 PUSH2 0x29A0 JUMP JUMPDEST SWAP2 POP PUSH2 0x39C4 DUP3 PUSH2 0x395D JUMP JUMPDEST PUSH1 0x40 DUP3 ADD SWAP1 POP SWAP2 SWAP1 POP JUMP JUMPDEST PUSH1 0x0 PUSH1 0x20 DUP3 ADD SWAP1 POP DUP2 DUP2 SUB PUSH1 0x0 DUP4 ADD MSTORE PUSH2 0x39E8 DUP2 PUSH2 0x39AC JUMP JUMPDEST SWAP1 POP SWAP2 SWAP1 POP JUMP JUMPDEST PUSH32 0x455243313135353A2069647320616E6420616D6F756E7473206C656E67746820 PUSH1 0x0 DUP3 ADD MSTORE PUSH32 0x6D69736D61746368000000000000000000000000000000000000000000000000 PUSH1 0x20 DUP3 ADD MSTORE POP JUMP JUMPDEST PUSH1 0x0 PUSH2 0x3A4B PUSH1 0x28 DUP4 PUSH2 0x29A0 JUMP JUMPDEST SWAP2 POP PUSH2 0x3A56 DUP3 PUSH2 0x39EF JUMP JUMPDEST PUSH1 0x40 DUP3 ADD SWAP1 POP SWAP2 SWAP1 POP JUMP JUMPDEST PUSH1 0x0 PUSH1 0x20 DUP3 ADD SWAP1 POP DUP2 DUP2 SUB PUSH1 0x0 DUP4 ADD MSTORE PUSH2 0x3A7A DUP2 PUSH2 0x3A3E JUMP JUMPDEST SWAP1 POP SWAP2 SWAP1 POP JUMP JUMPDEST PUSH1 0x0 PUSH2 0x3A8C DUP3 PUSH2 0x267E JUMP JUMPDEST SWAP2 POP PUSH2 0x3A97 DUP4 PUSH2 0x267E JUMP JUMPDEST SWAP3 POP DUP3 DUP3 ADD SWAP1 POP DUP1 DUP3 GT ISZERO PUSH2 0x3AAF JUMPI PUSH2 0x3AAE PUSH2 0x34DB JUMP JUMPDEST JUMPDEST SWAP3 SWAP2 POP POP JUMP JUMPDEST PUSH1 0x0 PUSH1 0x40 DUP3 ADD SWAP1 POP DUP2 DUP2 SUB PUSH1 0x0 DUP4 ADD MSTORE PUSH2 0x3ACF DUP2 DUP6 PUSH2 0x2EC4 JUMP JUMPDEST SWAP1 POP DUP2 DUP2 SUB PUSH1 0x20 DUP4 ADD MSTORE PUSH2 0x3AE3 DUP2 DUP5 PUSH2 0x2EC4 JUMP JUMPDEST SWAP1 POP SWAP4 SWAP3 POP POP POP JUMP JUMPDEST PUSH32 0x455243313135353A207472616E7366657220746F20746865207A65726F206164 PUSH1 0x0 DUP3 ADD MSTORE PUSH32 0x6472657373000000000000000000000000000000000000000000000000000000 PUSH1 0x20 DUP3 ADD MSTORE POP JUMP JUMPDEST PUSH1 0x0 PUSH2 0x3B48 PUSH1 0x25 DUP4 PUSH2 0x29A0 JUMP JUMPDEST SWAP2 POP PUSH2 0x3B53 DUP3 PUSH2 0x3AEC JUMP JUMPDEST PUSH1 0x40 DUP3 ADD SWAP1 POP SWAP2 SWAP1 POP JUMP JUMPDEST PUSH1 0x0 PUSH1 0x20 DUP3 ADD SWAP1 POP DUP2 DUP2 SUB PUSH1 0x0 DUP4 ADD MSTORE PUSH2 0x3B77 DUP2 PUSH2 0x3B3B JUMP JUMPDEST SWAP1 POP SWAP2 SWAP1 POP JUMP JUMPDEST PUSH32 0x455243313135353A20696E73756666696369656E742062616C616E636520666F PUSH1 0x0 DUP3 ADD MSTORE PUSH32 0x72207472616E7366657200000000000000000000000000000000000000000000 PUSH1 0x20 DUP3 ADD MSTORE POP JUMP JUMPDEST PUSH1 0x0 PUSH2 0x3BDA PUSH1 0x2A DUP4 PUSH2 0x29A0 JUMP JUMPDEST SWAP2 POP PUSH2 0x3BE5 DUP3 PUSH2 0x3B7E JUMP JUMPDEST PUSH1 0x40 DUP3 ADD SWAP1 POP SWAP2 SWAP1 POP JUMP JUMPDEST PUSH1 0x0 PUSH1 0x20 DUP3 ADD SWAP1 POP DUP2 DUP2 SUB PUSH1 0x0 DUP4 ADD MSTORE PUSH2 0x3C09 DUP2 PUSH2 0x3BCD JUMP JUMPDEST SWAP1 POP SWAP2 SWAP1 POP JUMP JUMPDEST PUSH32 0x455243313135353A206275726E2066726F6D20746865207A65726F2061646472 PUSH1 0x0 DUP3 ADD MSTORE PUSH32 0x6573730000000000000000000000000000000000000000000000000000000000 PUSH1 0x20 DUP3 ADD MSTORE POP JUMP JUMPDEST PUSH1 0x0 PUSH2 0x3C6C PUSH1 0x23 DUP4 PUSH2 0x29A0 JUMP JUMPDEST SWAP2 POP PUSH2 0x3C77 DUP3 PUSH2 0x3C10 JUMP JUMPDEST PUSH1 0x40 DUP3 ADD SWAP1 POP SWAP2 SWAP1 POP JUMP JUMPDEST PUSH1 0x0 PUSH1 0x20 DUP3 ADD SWAP1 POP DUP2 DUP2 SUB PUSH1 0x0 DUP4 ADD MSTORE PUSH2 0x3C9B DUP2 PUSH2 0x3C5F JUMP JUMPDEST SWAP1 POP SWAP2 SWAP1 POP JUMP JUMPDEST PUSH32 0x455243313135353A206275726E20616D6F756E7420657863656564732062616C PUSH1 0x0 DUP3 ADD MSTORE PUSH32 0x616E636500000000000000000000000000000000000000000000000000000000 PUSH1 0x20 DUP3 ADD MSTORE POP JUMP JUMPDEST PUSH1 0x0 PUSH2 0x3CFE PUSH1 0x24 DUP4 PUSH2 0x29A0 JUMP JUMPDEST SWAP2 POP PUSH2 0x3D09 DUP3 PUSH2 0x3CA2 JUMP JUMPDEST PUSH1 0x40 DUP3 ADD SWAP1 POP SWAP2 SWAP1 POP JUMP JUMPDEST PUSH1 0x0 PUSH1 0x20 DUP3 ADD SWAP1 POP DUP2 DUP2 SUB PUSH1 0x0 DUP4 ADD MSTORE PUSH2 0x3D2D DUP2 PUSH2 0x3CF1 JUMP JUMPDEST SWAP1 POP SWAP2 SWAP1 POP JUMP JUMPDEST PUSH1 0x0 PUSH1 0x40 DUP3 ADD SWAP1 POP PUSH2 0x3D49 PUSH1 0x0 DUP4 ADD DUP6 PUSH2 0x26F4 JUMP JUMPDEST PUSH2 0x3D56 PUSH1 0x20 DUP4 ADD DUP5 PUSH2 0x26F4 JUMP JUMPDEST SWAP4 SWAP3 POP POP POP JUMP JUMPDEST PUSH32 0x455243313135353A2073657474696E6720617070726F76616C20737461747573 PUSH1 0x0 DUP3 ADD MSTORE PUSH32 0x20666F722073656C660000000000000000000000000000000000000000000000 PUSH1 0x20 DUP3 ADD MSTORE POP JUMP JUMPDEST PUSH1 0x0 PUSH2 0x3DB9 PUSH1 0x29 DUP4 PUSH2 0x29A0 JUMP JUMPDEST SWAP2 POP PUSH2 0x3DC4 DUP3 PUSH2 0x3D5D JUMP JUMPDEST PUSH1 0x40 DUP3 ADD SWAP1 POP SWAP2 SWAP1 POP JUMP JUMPDEST PUSH1 0x0 PUSH1 0x20 DUP3 ADD SWAP1 POP DUP2 DUP2 SUB PUSH1 0x0 DUP4 ADD MSTORE PUSH2 0x3DE8 DUP2 PUSH2 0x3DAC JUMP JUMPDEST SWAP1 POP SWAP2 SWAP1 POP JUMP JUMPDEST PUSH1 0x0 DUP2 MLOAD SWAP1 POP SWAP2 SWAP1 POP JUMP JUMPDEST PUSH1 0x0 DUP3 DUP3 MSTORE PUSH1 0x20 DUP3 ADD SWAP1 POP SWAP3 SWAP2 POP POP JUMP JUMPDEST PUSH1 0x0 PUSH2 0x3E16 DUP3 PUSH2 0x3DEF JUMP JUMPDEST PUSH2 0x3E20 DUP2 DUP6 PUSH2 0x3DFA JUMP JUMPDEST SWAP4 POP PUSH2 0x3E30 DUP2 DUP6 PUSH1 0x20 DUP7 ADD PUSH2 0x29B1 JUMP JUMPDEST PUSH2 0x3E39 DUP2 PUSH2 0x27E3 JUMP JUMPDEST DUP5 ADD SWAP2 POP POP SWAP3 SWAP2 POP POP JUMP JUMPDEST PUSH1 0x0 PUSH1 0xA0 DUP3 ADD SWAP1 POP PUSH2 0x3E59 PUSH1 0x0 DUP4 ADD DUP9 PUSH2 0x3052 JUMP JUMPDEST PUSH2 0x3E66 PUSH1 0x20 DUP4 ADD DUP8 PUSH2 0x3052 JUMP JUMPDEST DUP2 DUP2 SUB PUSH1 0x40 DUP4 ADD MSTORE PUSH2 0x3E78 DUP2 DUP7 PUSH2 0x2EC4 JUMP JUMPDEST SWAP1 POP DUP2 DUP2 SUB PUSH1 0x60 DUP4 ADD MSTORE PUSH2 0x3E8C DUP2 DUP6 PUSH2 0x2EC4 JUMP JUMPDEST SWAP1 POP DUP2 DUP2 SUB PUSH1 0x80 DUP4 ADD MSTORE PUSH2 0x3EA0 DUP2 DUP5 PUSH2 0x3E0B JUMP JUMPDEST SWAP1 POP SWAP7 SWAP6 POP POP POP POP POP POP JUMP JUMPDEST PUSH1 0x0 DUP2 MLOAD SWAP1 POP PUSH2 0x3EBB DUP2 PUSH2 0x274A JUMP JUMPDEST SWAP3 SWAP2 POP POP JUMP JUMPDEST PUSH1 0x0 PUSH1 0x20 DUP3 DUP5 SUB SLT ISZERO PUSH2 0x3ED7 JUMPI PUSH2 0x3ED6 PUSH2 0x2616 JUMP JUMPDEST JUMPDEST PUSH1 0x0 PUSH2 0x3EE5 DUP5 DUP3 DUP6 ADD PUSH2 0x3EAC JUMP JUMPDEST SWAP2 POP POP SWAP3 SWAP2 POP POP JUMP JUMPDEST PUSH1 0x0 DUP2 PUSH1 0xE0 SHR SWAP1 POP SWAP2 SWAP1 POP JUMP JUMPDEST PUSH1 0x0 PUSH1 0x3 RETURNDATASIZE GT ISZERO PUSH2 0x3F1A JUMPI PUSH1 0x4 PUSH1 0x0 DUP1 RETURNDATACOPY PUSH2 0x3F17 PUSH1 0x0 MLOAD PUSH2 0x3EEE JUMP JUMPDEST SWAP1 POP JUMPDEST SWAP1 JUMP JUMPDEST PUSH1 0x0 PUSH1 0x44 RETURNDATASIZE LT PUSH2 0x3FAA JUMPI PUSH2 0x3F2F PUSH2 0x260C JUMP JUMPDEST PUSH1 0x4 RETURNDATASIZE SUB PUSH1 0x4 DUP3 RETURNDATACOPY DUP1 MLOAD RETURNDATASIZE PUSH1 0x24 DUP3 ADD GT PUSH8 0xFFFFFFFFFFFFFFFF DUP3 GT OR ISZERO PUSH2 0x3F57 JUMPI POP POP PUSH2 0x3FAA JUMP JUMPDEST DUP1 DUP3 ADD DUP1 MLOAD PUSH8 0xFFFFFFFFFFFFFFFF DUP2 GT ISZERO PUSH2 0x3F75 JUMPI POP POP POP POP PUSH2 0x3FAA JUMP JUMPDEST DUP1 PUSH1 0x20 DUP4 ADD ADD PUSH1 0x4 RETURNDATASIZE SUB DUP6 ADD DUP2 GT ISZERO PUSH2 0x3F92 JUMPI POP POP POP POP POP PUSH2 0x3FAA JUMP JUMPDEST PUSH2 0x3FA1 DUP3 PUSH1 0x20 ADD DUP6 ADD DUP7 PUSH2 0x2823 JUMP JUMPDEST DUP3 SWAP6 POP POP POP POP POP POP JUMPDEST SWAP1 JUMP JUMPDEST PUSH32 0x455243313135353A207472616E7366657220746F206E6F6E2D45524331313535 PUSH1 0x0 DUP3 ADD MSTORE PUSH32 0x526563656976657220696D706C656D656E746572000000000000000000000000 PUSH1 0x20 DUP3 ADD MSTORE POP JUMP JUMPDEST PUSH1 0x0 PUSH2 0x4009 PUSH1 0x34 DUP4 PUSH2 0x29A0 JUMP JUMPDEST SWAP2 POP PUSH2 0x4014 DUP3 PUSH2 0x3FAD JUMP JUMPDEST PUSH1 0x40 DUP3 ADD SWAP1 POP SWAP2 SWAP1 POP JUMP JUMPDEST PUSH1 0x0 PUSH1 0x20 DUP3 ADD SWAP1 POP DUP2 DUP2 SUB PUSH1 0x0 DUP4 ADD MSTORE PUSH2 0x4038 DUP2 PUSH2 0x3FFC JUMP JUMPDEST SWAP1 POP SWAP2 SWAP1 POP JUMP JUMPDEST PUSH32 0x455243313135353A204552433131353552656365697665722072656A65637465 PUSH1 0x0 DUP3 ADD MSTORE PUSH32 0x6420746F6B656E73000000000000000000000000000000000000000000000000 PUSH1 0x20 DUP3 ADD MSTORE POP JUMP JUMPDEST PUSH1 0x0 PUSH2 0x409B PUSH1 0x28 DUP4 PUSH2 0x29A0 JUMP JUMPDEST SWAP2 POP PUSH2 0x40A6 DUP3 PUSH2 0x403F JUMP JUMPDEST PUSH1 0x40 DUP3 ADD SWAP1 POP SWAP2 SWAP1 POP JUMP JUMPDEST PUSH1 0x0 PUSH1 0x20 DUP3 ADD SWAP1 POP DUP2 DUP2 SUB PUSH1 0x0 DUP4 ADD MSTORE PUSH2 0x40CA DUP2 PUSH2 0x408E JUMP JUMPDEST SWAP1 POP SWAP2 SWAP1 POP JUMP JUMPDEST PUSH1 0x0 PUSH1 0xA0 DUP3 ADD SWAP1 POP PUSH2 0x40E6 PUSH1 0x0 DUP4 ADD DUP9 PUSH2 0x3052 JUMP JUMPDEST PUSH2 0x40F3 PUSH1 0x20 DUP4 ADD DUP8 PUSH2 0x3052 JUMP JUMPDEST PUSH2 0x4100 PUSH1 0x40 DUP4 ADD DUP7 PUSH2 0x26F4 JUMP JUMPDEST PUSH2 0x410D PUSH1 0x60 DUP4 ADD DUP6 PUSH2 0x26F4 JUMP JUMPDEST DUP2 DUP2 SUB PUSH1 0x80 DUP4 ADD MSTORE PUSH2 0x411F DUP2 DUP5 PUSH2 0x3E0B JUMP JUMPDEST SWAP1 POP SWAP7 SWAP6 POP POP POP POP POP POP JUMP JUMPDEST PUSH32 0x455243313135353A206275726E20616D6F756E74206578636565647320746F74 PUSH1 0x0 DUP3 ADD MSTORE PUSH32 0x616C537570706C79000000000000000000000000000000000000000000000000 PUSH1 0x20 DUP3 ADD MSTORE POP JUMP JUMPDEST PUSH1 0x0 PUSH2 0x4187 PUSH1 0x28 DUP4 PUSH2 0x29A0 JUMP JUMPDEST SWAP2 POP PUSH2 0x4192 DUP3 PUSH2 0x412B JUMP JUMPDEST PUSH1 0x40 DUP3 ADD SWAP1 POP SWAP2 SWAP1 POP JUMP JUMPDEST PUSH1 0x0 PUSH1 0x20 DUP3 ADD SWAP1 POP DUP2 DUP2 SUB PUSH1 0x0 DUP4 ADD MSTORE PUSH2 0x41B6 DUP2 PUSH2 0x417A JUMP JUMPDEST SWAP1 POP SWAP2 SWAP1 POP JUMP INVALID PUSH10 0x7066733A2F2F516D5661 PUSH2 0x7945 MLOAD CHAINID 0x4B PUSH11 0x4274746D5A586956364243 PUSH19 0x673538354C503554487047684542316E456269 CODESIZE MSTORE8 COINBASE CALLVALUE LOG2 PUSH5 0x6970667358 0x22 SLT KECCAK256 MSTORE MSTORE8 0xD1 0x2F DUP12 PUSH20 0xD9C4B011FD8909F1F8CE947D152CE80243600E24 0x1E 0xAB CALLDATASIZE 0xE4 JUMPI 0x4F PUSH5 0x736F6C6343 STOP ADDMOD SLT STOP CALLER PUSH10 0x7066733A2F2F516D6163 CODESIZE CODECOPY PUSH20 0x5A545347764B6B795961327672786452616B5052 GASLIMIT PUSH2 0x4746 0x4A MSTORE8 0x4E 0x4A MSTORE MSTORE JUMPI PUSH6 0x747A544C5154 0x4D 0x2F "
		},
		"gasEstimates": {
			"creation": {
				"codeDepositCost": "3387200",
				"executionCost": "infinite",
				"totalCost": "infinite"
			},
			"external": {
				"balanceOf(address,uint256)": "infinite",
				"balanceOfBatch(address[],uint256[])": "infinite",
				"burn(address,uint256,uint256)": "infinite",
				"burnBatch(address,uint256[],uint256[])": "infinite",
				"contractURI()": "infinite",
				"exists(uint256)": "2924",
				"isApprovedForAll(address,address)": "infinite",
				"mint(address,uint256,uint256,bytes)": "infinite",
				"mintBatch(address,uint256[],uint256[],bytes)": "infinite",
				"owner()": "2589",
				"renounceOwnership()": "30421",
				"safeBatchTransferFrom(address,address,uint256[],uint256[],bytes)": "infinite",
				"safeTransferFrom(address,address,uint256,uint256,bytes)": "infinite",
				"setApprovalForAll(address,bool)": "infinite",
				"setURI(string)": "infinite",
				"supportsInterface(bytes4)": "819",
				"totalSupply(uint256)": "infinite",
				"transferOwnership(address)": "30832",
				"uri(uint256)": "infinite"
			},
			"internal": {
				"_beforeTokenTransfer(address,address,address,uint256[] memory,uint256[] memory,bytes memory)": "infinite"
			}
		},
		"methodIdentifiers": {
			"balanceOf(address,uint256)": "00fdd58e",
			"balanceOfBatch(address[],uint256[])": "4e1273f4",
			"burn(address,uint256,uint256)": "f5298aca",
			"burnBatch(address,uint256[],uint256[])": "6b20c454",
			"contractURI()": "e8a3d485",
			"exists(uint256)": "4f558e79",
			"isApprovedForAll(address,address)": "e985e9c5",
			"mint(address,uint256,uint256,bytes)": "731133e9",
			"mintBatch(address,uint256[],uint256[],bytes)": "1f7fdffa",
			"owner()": "8da5cb5b",
			"renounceOwnership()": "715018a6",
			"safeBatchTransferFrom(address,address,uint256[],uint256[],bytes)": "2eb2c2d6",
			"safeTransferFrom(address,address,uint256,uint256,bytes)": "f242432a",
			"setApprovalForAll(address,bool)": "a22cb465",
			"setURI(string)": "02fe5305",
			"supportsInterface(bytes4)": "01ffc9a7",
			"totalSupply(uint256)": "bd85b039",
			"transferOwnership(address)": "f2fde38b",
			"uri(uint256)": "0e89341c"
		}
	},
	"abi": [
		{
			"inputs": [],
			"stateMutability": "nonpayable",
			"type": "constructor"
		},
		{
			"anonymous": false,
			"inputs": [
				{
					"indexed": true,
					"internalType": "address",
					"name": "account",
					"type": "address"
				},
				{
					"indexed": true,
					"internalType": "address",
					"name": "operator",
					"type": "address"
				},
				{
					"indexed": false,
					"internalType": "bool",
					"name": "approved",
					"type": "bool"
				}
			],
			"name": "ApprovalForAll",
			"type": "event"
		},
		{
			"anonymous": false,
			"inputs": [
				{
					"indexed": true,
					"internalType": "address",
					"name": "previousOwner",
					"type": "address"
				},
				{
					"indexed": true,
					"internalType": "address",
					"name": "newOwner",
					"type": "address"
				}
			],
			"name": "OwnershipTransferred",
			"type": "event"
		},
		{
			"anonymous": false,
			"inputs": [
				{
					"indexed": true,
					"internalType": "address",
					"name": "operator",
					"type": "address"
				},
				{
					"indexed": true,
					"internalType": "address",
					"name": "from",
					"type": "address"
				},
				{
					"indexed": true,
					"internalType": "address",
					"name": "to",
					"type": "address"
				},
				{
					"indexed": false,
					"internalType": "uint256[]",
					"name": "ids",
					"type": "uint256[]"
				},
				{
					"indexed": false,
					"internalType": "uint256[]",
					"name": "values",
					"type": "uint256[]"
				}
			],
			"name": "TransferBatch",
			"type": "event"
		},
		{
			"anonymous": false,
			"inputs": [
				{
					"indexed": true,
					"internalType": "address",
					"name": "operator",
					"type": "address"
				},
				{
					"indexed": true,
					"internalType": "address",
					"name": "from",
					"type": "address"
				},
				{
					"indexed": true,
					"internalType": "address",
					"name": "to",
					"type": "address"
				},
				{
					"indexed": false,
					"internalType": "uint256",
					"name": "id",
					"type": "uint256"
				},
				{
					"indexed": false,
					"internalType": "uint256",
					"name": "value",
					"type": "uint256"
				}
			],
			"name": "TransferSingle",
			"type": "event"
		},
		{
			"anonymous": false,
			"inputs": [
				{
					"indexed": false,
					"internalType": "string",
					"name": "value",
					"type": "string"
				},
				{
					"indexed": true,
					"internalType": "uint256",
					"name": "id",
					"type": "uint256"
				}
			],
			"name": "URI",
			"type": "event"
		},
		{
			"inputs": [
				{
					"internalType": "address",
					"name": "account",
					"type": "address"
				},
				{
					"internalType": "uint256",
					"name": "id",
					"type": "uint256"
				}
			],
			"name": "balanceOf",
			"outputs": [
				{
					"internalType": "uint256",
					"name": "",
					"type": "uint256"
				}
			],
			"stateMutability": "view",
			"type": "function"
		},
		{
			"inputs": [
				{
					"internalType": "address[]",
					"name": "accounts",
					"type": "address[]"
				},
				{
					"internalType": "uint256[]",
					"name": "ids",
					"type": "uint256[]"
				}
			],
			"name": "balanceOfBatch",
			"outputs": [
				{
					"internalType": "uint256[]",
					"name": "",
					"type": "uint256[]"
				}
			],
			"stateMutability": "view",
			"type": "function"
		},
		{
			"inputs": [
				{
					"internalType": "address",
					"name": "account",
					"type": "address"
				},
				{
					"internalType": "uint256",
					"name": "id",
					"type": "uint256"
				},
				{
					"internalType": "uint256",
					"name": "value",
					"type": "uint256"
				}
			],
			"name": "burn",
			"outputs": [],
			"stateMutability": "nonpayable",
			"type": "function"
		},
		{
			"inputs": [
				{
					"internalType": "address",
					"name": "account",
					"type": "address"
				},
				{
					"internalType": "uint256[]",
					"name": "ids",
					"type": "uint256[]"
				},
				{
					"internalType": "uint256[]",
					"name": "values",
					"type": "uint256[]"
				}
			],
			"name": "burnBatch",
			"outputs": [],
			"stateMutability": "nonpayable",
			"type": "function"
		},
		{
			"inputs": [],
			"name": "contractURI",
			"outputs": [
				{
					"internalType": "string",
					"name": "",
					"type": "string"
				}
			],
			"stateMutability": "pure",
			"type": "function"
		},
		{
			"inputs": [
				{
					"internalType": "uint256",
					"name": "id",
					"type": "uint256"
				}
			],
			"name": "exists",
			"outputs": [
				{
					"internalType": "bool",
					"name": "",
					"type": "bool"
				}
			],
			"stateMutability": "view",
			"type": "function"
		},
		{
			"inputs": [
				{
					"internalType": "address",
					"name": "account",
					"type": "address"
				},
				{
					"internalType": "address",
					"name": "operator",
					"type": "address"
				}
			],
			"name": "isApprovedForAll",
			"outputs": [
				{
					"internalType": "bool",
					"name": "",
					"type": "bool"
				}
			],
			"stateMutability": "view",
			"type": "function"
		},
		{
			"inputs": [
				{
					"internalType": "address",
					"name": "account",
					"type": "address"
				},
				{
					"internalType": "uint256",
					"name": "id",
					"type": "uint256"
				},
				{
					"internalType": "uint256",
					"name": "amount",
					"type": "uint256"
				},
				{
					"internalType": "bytes",
					"name": "data",
					"type": "bytes"
				}
			],
			"name": "mint",
			"outputs": [],
			"stateMutability": "nonpayable",
			"type": "function"
		},
		{
			"inputs": [
				{
					"internalType": "address",
					"name": "to",
					"type": "address"
				},
				{
					"internalType": "uint256[]",
					"name": "ids",
					"type": "uint256[]"
				},
				{
					"internalType": "uint256[]",
					"name": "amounts",
					"type": "uint256[]"
				},
				{
					"internalType": "bytes",
					"name": "data",
					"type": "bytes"
				}
			],
			"name": "mintBatch",
			"outputs": [],
			"stateMutability": "nonpayable",
			"type": "function"
		},
		{
			"inputs": [],
			"name": "owner",
			"outputs": [
				{
					"internalType": "address",
					"name": "",
					"type": "address"
				}
			],
			"stateMutability": "view",
			"type": "function"
		},
		{
			"inputs": [],
			"name": "renounceOwnership",
			"outputs": [],
			"stateMutability": "nonpayable",
			"type": "function"
		},
		{
			"inputs": [
				{
					"internalType": "address",
					"name": "from",
					"type": "address"
				},
				{
					"internalType": "address",
					"name": "to",
					"type": "address"
				},
				{
					"internalType": "uint256[]",
					"name": "ids",
					"type": "uint256[]"
				},
				{
					"internalType": "uint256[]",
					"name": "amounts",
					"type": "uint256[]"
				},
				{
					"internalType": "bytes",
					"name": "data",
					"type": "bytes"
				}
			],
			"name": "safeBatchTransferFrom",
			"outputs": [],
			"stateMutability": "nonpayable",
			"type": "function"
		},
		{
			"inputs": [
				{
					"internalType": "address",
					"name": "from",
					"type": "address"
				},
				{
					"internalType": "address",
					"name": "to",
					"type": "address"
				},
				{
					"internalType": "uint256",
					"name": "id",
					"type": "uint256"
				},
				{
					"internalType": "uint256",
					"name": "amount",
					"type": "uint256"
				},
				{
					"internalType": "bytes",
					"name": "data",
					"type": "bytes"
				}
			],
			"name": "safeTransferFrom",
			"outputs": [],
			"stateMutability": "nonpayable",
			"type": "function"
		},
		{
			"inputs": [
				{
					"internalType": "address",
					"name": "operator",
					"type": "address"
				},
				{
					"internalType": "bool",
					"name": "approved",
					"type": "bool"
				}
			],
			"name": "setApprovalForAll",
			"outputs": [],
			"stateMutability": "nonpayable",
			"type": "function"
		},
		{
			"inputs": [
				{
					"internalType": "string",
					"name": "newuri",
					"type": "string"
				}
			],
			"name": "setURI",
			"outputs": [],
			"stateMutability": "nonpayable",
			"type": "function"
		},
		{
			"inputs": [
				{
					"internalType": "bytes4",
					"name": "interfaceId",
					"type": "bytes4"
				}
			],
			"name": "supportsInterface",
			"outputs": [
				{
					"internalType": "bool",
					"name": "",
					"type": "bool"
				}
			],
			"stateMutability": "view",
			"type": "function"
		},
		{
			"inputs": [
				{
					"internalType": "uint256",
					"name": "id",
					"type": "uint256"
				}
			],
			"name": "totalSupply",
			"outputs": [
				{
					"internalType": "uint256",
					"name": "",
					"type": "uint256"
				}
			],
			"stateMutability": "view",
			"type": "function"
		},
		{
			"inputs": [
				{
					"internalType": "address",
					"name": "newOwner",
					"type": "address"
				}
			],
			"name": "transferOwnership",
			"outputs": [],
			"stateMutability": "nonpayable",
			"type": "function"
		},
		{
			"inputs": [
				{
					"internalType": "uint256",
					"name": "id",
					"type": "uint256"
				}
			],
			"name": "uri",
			"outputs": [
				{
					"internalType": "string",
					"name": "",
					"type": "string"
				}
			],
			"stateMutability": "view",
			"type": "function"
		}
	]
}