{
	"data": {
		"bytecode": {
			"linkReferences": {},
			"object": "60806040523480156200001157600080fd5b506040518060600160405280603f8152602001620042ba603f91396200003d816200006460201b60201c565b506200005e620000526200007960201b60201c565b6200008160201b60201c565b620004a8565b8060029081620000759190620003c1565b5050565b600033905090565b6000600360009054906101000a900473ffffffffffffffffffffffffffffffffffffffff16905081600360006101000a81548173ffffffffffffffffffffffffffffffffffffffff021916908373ffffffffffffffffffffffffffffffffffffffff1602179055508173ffffffffffffffffffffffffffffffffffffffff168173ffffffffffffffffffffffffffffffffffffffff167f8be0079c531659141344cd1fd0a4f28419497f9722a3daafe3b4186f6b6457e060405160405180910390a35050565b600081519050919050565b7f4e487b7100000000000000000000000000000000000000000000000000000000600052604160045260246000fd5b7f4e487b7100000000000000000000000000000000000000000000000000000000600052602260045260246000fd5b60006002820490506001821680620001c957607f821691505b602082108103620001df57620001de62000181565b5b50919050565b60008190508160005260206000209050919050565b60006020601f8301049050919050565b600082821b905092915050565b600060088302620002497fffffffffffffffffffffffffffffffffffffffffffffffffffffffffffffffff826200020a565b6200025586836200020a565b95508019841693508086168417925050509392505050565b6000819050919050565b6000819050919050565b6000620002a26200029c62000296846200026d565b62000277565b6200026d565b9050919050565b6000819050919050565b620002be8362000281565b620002d6620002cd82620002a9565b84845462000217565b825550505050565b600090565b620002ed620002de565b620002fa818484620002b3565b505050565b5b81811015620003225762000316600082620002e3565b60018101905062000300565b5050565b601f82111562000371576200033b81620001e5565b6200034684620001fa565b8101602085101562000356578190505b6200036e6200036585620001fa565b830182620002ff565b50505b505050565b600082821c905092915050565b6000620003966000198460080262000376565b1980831691505092915050565b6000620003b1838362000383565b9150826002028217905092915050565b620003cc8262000147565b67ffffffffffffffff811115620003e857620003e762000152565b5b620003f48254620001b0565b6200040182828562000326565b600060209050601f83116001811462000439576000841562000424578287015190505b620004308582620003a3565b865550620004a0565b601f1984166200044986620001e5565b60005b8281101562000473578489015182556001820191506020850194506020810190506200044c565b868310156200049357848901516200048f601f89168262000383565b8355505b6001600288020188555050505b505050505050565b613e0280620004b86000396000f3fe608060405234801561001057600080fd5b50600436106101155760003560e01c8063731133e9116100a2578063e8a3d48511610071578063e8a3d485146102ee578063e985e9c51461030c578063f242432a1461033c578063f2fde38b14610358578063f5298aca1461037457610115565b8063731133e9146102685780638da5cb5b14610284578063a22cb465146102a2578063bd85b039146102be57610115565b80632eb2c2d6116100e95780632eb2c2d6146101c65780634e1273f4146101e25780634f558e79146102125780636b20c45414610242578063715018a61461025e57610115565b8062fdd58e1461011a57806301ffc9a71461014a5780630e89341c1461017a5780631f7fdffa146101aa575b600080fd5b610134600480360381019061012f91906125c8565b610390565b6040516101419190612617565b60405180910390f35b610164600480360381019061015f919061268a565b610458565b60405161017191906126d2565b60405180910390f35b610194600480360381019061018f91906126ed565b61053a565b6040516101a191906127aa565b60405180910390f35b6101c460048036038101906101bf91906129c9565b61056b565b005b6101e060048036038101906101db9190612a84565b610585565b005b6101fc60048036038101906101f79190612c16565b610626565b6040516102099190612d4c565b60405180910390f35b61022c600480360381019061022791906126ed565b61073f565b60405161023991906126d2565b60405180910390f35b61025c60048036038101906102579190612d6e565b610753565b005b6102666107f0565b005b610282600480360381019061027d9190612df9565b610804565b005b61028c61081e565b6040516102999190612e8b565b60405180910390f35b6102bc60048036038101906102b79190612ed2565b610848565b005b6102d860048036038101906102d391906126ed565b61085e565b6040516102e59190612617565b60405180910390f35b6102f661087b565b60405161030391906127aa565b60405180910390f35b61032660048036038101906103219190612f12565b61089b565b60405161033391906126d2565b60405180910390f35b61035660048036038101906103519190612f52565b61092f565b005b610372600480360381019061036d9190612fe9565b6109d0565b005b61038e60048036038101906103899190613016565b610a53565b005b60008073ffffffffffffffffffffffffffffffffffffffff168373ffffffffffffffffffffffffffffffffffffffff1603610400576040517f08c379a00000000000000000000000000000000000000000000000000000000081526004016103f7906130db565b60405180910390fd5b60008083815260200190815260200160002060008473ffffffffffffffffffffffffffffffffffffffff1673ffffffffffffffffffffffffffffffffffffffff16815260200190815260200160002054905092915050565b60007fd9b67a26000000000000000000000000000000000000000000000000000000007bffffffffffffffffffffffffffffffffffffffffffffffffffffffff1916827bffffffffffffffffffffffffffffffffffffffffffffffffffffffff1916148061052357507f0e89341c000000000000000000000000000000000000000000000000000000007bffffffffffffffffffffffffffffffffffffffffffffffffffffffff1916827bffffffffffffffffffffffffffffffffffffffffffffffffffffffff1916145b80610533575061053282610af0565b5b9050919050565b606061054582610b5a565b60405160200161055591906131f5565b6040516020818303038152906040529050919050565b610573610c28565b61057f84848484610ca6565b50505050565b61058d610ed2565b73ffffffffffffffffffffffffffffffffffffffff168573ffffffffffffffffffffffffffffffffffffffff1614806105d357506105d2856105cd610ed2565b61089b565b5b610612576040517f08c379a000000000000000000000000000000000000000000000000000000000815260040161060990613294565b60405180910390fd5b61061f8585858585610eda565b5050505050565b6060815183511461066c576040517f08c379a000000000000000000000000000000000000000000000000000000000815260040161066390613326565b60405180910390fd5b6000835167ffffffffffffffff811115610689576106886127d1565b5b6040519080825280602002602001820160405280156106b75781602001602082028036833780820191505090505b50905060005b8451811015610734576107048582815181106106dc576106db613346565b5b60200260200101518583815181106106f7576106f6613346565b5b6020026020010151610390565b82828151811061071757610716613346565b5b6020026020010181815250508061072d906133a4565b90506106bd565b508091505092915050565b60008061074b8361085e565b119050919050565b61075b610ed2565b73ffffffffffffffffffffffffffffffffffffffff168373ffffffffffffffffffffffffffffffffffffffff1614806107a157506107a08361079b610ed2565b61089b565b5b6107e0576040517f08c379a00000000000000000000000000000000000000000000000000000000081526004016107d790613294565b60405180910390fd5b6107eb8383836111fb565b505050565b6107f8610c28565b61080260006114c9565b565b61080c610c28565b6108188484848461158f565b50505050565b6000600360009054906101000a900473ffffffffffffffffffffffffffffffffffffffff16905090565b61085a610853610ed2565b838361173f565b5050565b600060046000838152602001908152602001600020549050919050565b6060604051806080016040528060538152602001613d7a60539139905090565b6000600160008473ffffffffffffffffffffffffffffffffffffffff1673ffffffffffffffffffffffffffffffffffffffff16815260200190815260200160002060008373ffffffffffffffffffffffffffffffffffffffff1673ffffffffffffffffffffffffffffffffffffffff16815260200190815260200160002060009054906101000a900460ff16905092915050565b610937610ed2565b73ffffffffffffffffffffffffffffffffffffffff168573ffffffffffffffffffffffffffffffffffffffff16148061097d575061097c85610977610ed2565b61089b565b5b6109bc576040517f08c379a00000000000000000000000000000000000000000000000000000000081526004016109b390613294565b60405180910390fd5b6109c985858585856118ab565b5050505050565b6109d8610c28565b600073ffffffffffffffffffffffffffffffffffffffff168173ffffffffffffffffffffffffffffffffffffffff1603610a47576040517f08c379a0000000000000000000000000000000000000000000000000000000008152600401610a3e9061345e565b60405180910390fd5b610a50816114c9565b50565b610a5b610ed2565b73ffffffffffffffffffffffffffffffffffffffff168373ffffffffffffffffffffffffffffffffffffffff161480610aa15750610aa083610a9b610ed2565b61089b565b5b610ae0576040517f08c379a0000000000000000000000000000000000000000000000000000000008152600401610ad790613294565b60405180910390fd5b610aeb838383611b46565b505050565b60007f01ffc9a7000000000000000000000000000000000000000000000000000000007bffffffffffffffffffffffffffffffffffffffffffffffffffffffff1916827bffffffffffffffffffffffffffffffffffffffffffffffffffffffff1916149050919050565b606060006001610b6984611d8c565b01905060008167ffffffffffffffff811115610b8857610b876127d1565b5b6040519080825280601f01601f191660200182016040528015610bba5781602001600182028036833780820191505090505b509050600082602001820190505b600115610c1d578080600190039150507f3031323334353637383961626364656600000000000000000000000000000000600a86061a8153600a8581610c1157610c1061347e565b5b04945060008503610bc8575b819350505050919050565b610c30610ed2565b73ffffffffffffffffffffffffffffffffffffffff16610c4e61081e565b73ffffffffffffffffffffffffffffffffffffffff1614610ca4576040517f08c379a0000000000000000000000000000000000000000000000000000000008152600401610c9b906134f9565b60405180910390fd5b565b600073ffffffffffffffffffffffffffffffffffffffff168473ffffffffffffffffffffffffffffffffffffffff1603610d15576040517f08c379a0000000000000000000000000000000000000000000000000000000008152600401610d0c9061358b565b60405180910390fd5b8151835114610d59576040517f08c379a0000000000000000000000000000000000000000000000000000000008152600401610d509061361d565b60405180910390fd5b6000610d63610ed2565b9050610d7481600087878787611edf565b60005b8451811015610e2d57838181518110610d9357610d92613346565b5b6020026020010151600080878481518110610db157610db0613346565b5b6020026020010151815260200190815260200160002060008873ffffffffffffffffffffffffffffffffffffffff1673ffffffffffffffffffffffffffffffffffffffff1681526020019081526020016000206000828254610e13919061363d565b925050819055508080610e25906133a4565b915050610d77565b508473ffffffffffffffffffffffffffffffffffffffff16600073ffffffffffffffffffffffffffffffffffffffff168273ffffffffffffffffffffffffffffffffffffffff167f4a39dc06d4c0dbc64b70af90fd698a233a518aa5d07e595d983b8c0526c8f7fb8787604051610ea5929190613671565b60405180910390a4610ebc81600087878787611ef5565b610ecb81600087878787611efd565b5050505050565b600033905090565b8151835114610f1e576040517f08c379a0000000000000000000000000000000000000000000000000000000008152600401610f159061361d565b60405180910390fd5b600073ffffffffffffffffffffffffffffffffffffffff168473ffffffffffffffffffffffffffffffffffffffff1603610f8d576040517f08c379a0000000000000000000000000000000000000000000000000000000008152600401610f849061371a565b60405180910390fd5b6000610f97610ed2565b9050610fa7818787878787611edf565b60005b8451811015611158576000858281518110610fc857610fc7613346565b5b602002602001015190506000858381518110610fe757610fe6613346565b5b60200260200101519050600080600084815260200190815260200160002060008b73ffffffffffffffffffffffffffffffffffffffff1673ffffffffffffffffffffffffffffffffffffffff16815260200190815260200160002054905081811015611088576040517f08c379a000000000000000000000000000000000000000000000000000000000815260040161107f906137ac565b60405180910390fd5b81810360008085815260200190815260200160002060008c73ffffffffffffffffffffffffffffffffffffffff1673ffffffffffffffffffffffffffffffffffffffff168152602001908152602001600020819055508160008085815260200190815260200160002060008b73ffffffffffffffffffffffffffffffffffffffff1673ffffffffffffffffffffffffffffffffffffffff168152602001908152602001600020600082825461113d919061363d565b9250508190555050505080611151906133a4565b9050610faa565b508473ffffffffffffffffffffffffffffffffffffffff168673ffffffffffffffffffffffffffffffffffffffff168273ffffffffffffffffffffffffffffffffffffffff167f4a39dc06d4c0dbc64b70af90fd698a233a518aa5d07e595d983b8c0526c8f7fb87876040516111cf929190613671565b60405180910390a46111e5818787878787611ef5565b6111f3818787878787611efd565b505050505050565b600073ffffffffffffffffffffffffffffffffffffffff168373ffffffffffffffffffffffffffffffffffffffff160361126a576040517f08c379a00000000000000000000000000000000000000000000000000000000081526004016112619061383e565b60405180910390fd5b80518251146112ae576040517f08c379a00000000000000000000000000000000000000000000000000000000081526004016112a59061361d565b60405180910390fd5b60006112b8610ed2565b90506112d881856000868660405180602001604052806000815250611edf565b60005b83518110156114255760008482815181106112f9576112f8613346565b5b60200260200101519050600084838151811061131857611317613346565b5b60200260200101519050600080600084815260200190815260200160002060008973ffffffffffffffffffffffffffffffffffffffff1673ffffffffffffffffffffffffffffffffffffffff168152602001908152602001600020549050818110156113b9576040517f08c379a00000000000000000000000000000000000000000000000000000000081526004016113b0906138d0565b60405180910390fd5b81810360008085815260200190815260200160002060008a73ffffffffffffffffffffffffffffffffffffffff1673ffffffffffffffffffffffffffffffffffffffff16815260200190815260200160002081905550505050808061141d906133a4565b9150506112db565b50600073ffffffffffffffffffffffffffffffffffffffff168473ffffffffffffffffffffffffffffffffffffffff168273ffffffffffffffffffffffffffffffffffffffff167f4a39dc06d4c0dbc64b70af90fd698a233a518aa5d07e595d983b8c0526c8f7fb868660405161149d929190613671565b60405180910390a46114c381856000868660405180602001604052806000815250611ef5565b50505050565b6000600360009054906101000a900473ffffffffffffffffffffffffffffffffffffffff16905081600360006101000a81548173ffffffffffffffffffffffffffffffffffffffff021916908373ffffffffffffffffffffffffffffffffffffffff1602179055508173ffffffffffffffffffffffffffffffffffffffff168173ffffffffffffffffffffffffffffffffffffffff167f8be0079c531659141344cd1fd0a4f28419497f9722a3daafe3b4186f6b6457e060405160405180910390a35050565b600073ffffffffffffffffffffffffffffffffffffffff168473ffffffffffffffffffffffffffffffffffffffff16036115fe576040517f08c379a00000000000000000000000000000000000000000000000000000000081526004016115f59061358b565b60405180910390fd5b6000611608610ed2565b90506000611615856120d4565b90506000611622856120d4565b905061163383600089858589611edf565b8460008088815260200190815260200160002060008973ffffffffffffffffffffffffffffffffffffffff1673ffffffffffffffffffffffffffffffffffffffff1681526020019081526020016000206000828254611692919061363d565b925050819055508673ffffffffffffffffffffffffffffffffffffffff16600073ffffffffffffffffffffffffffffffffffffffff168473ffffffffffffffffffffffffffffffffffffffff167fc3d58168c5ae7397731d063d5bbf3d657854427343f4c083240f7aacaa2d0f6289896040516117109291906138f0565b60405180910390a461172783600089858589611ef5565b6117368360008989898961214e565b50505050505050565b8173ffffffffffffffffffffffffffffffffffffffff168373ffffffffffffffffffffffffffffffffffffffff16036117ad576040517f08c379a00000000000000000000000000000000000000000000000000000000081526004016117a49061398b565b60405180910390fd5b80600160008573ffffffffffffffffffffffffffffffffffffffff1673ffffffffffffffffffffffffffffffffffffffff16815260200190815260200160002060008473ffffffffffffffffffffffffffffffffffffffff1673ffffffffffffffffffffffffffffffffffffffff16815260200190815260200160002060006101000a81548160ff0219169083151502179055508173ffffffffffffffffffffffffffffffffffffffff168373ffffffffffffffffffffffffffffffffffffffff167f17307eab39ab6107e8899845ad3d59bd9653f200f220920489ca2b5937696c318360405161189e91906126d2565b60405180910390a3505050565b600073ffffffffffffffffffffffffffffffffffffffff168473ffffffffffffffffffffffffffffffffffffffff160361191a576040517f08c379a00000000000000000000000000000000000000000000000000000000081526004016119119061371a565b60405180910390fd5b6000611924610ed2565b90506000611931856120d4565b9050600061193e856120d4565b905061194e838989858589611edf565b600080600088815260200190815260200160002060008a73ffffffffffffffffffffffffffffffffffffffff1673ffffffffffffffffffffffffffffffffffffffff168152602001908152602001600020549050858110156119e5576040517f08c379a00000000000000000000000000000000000000000000000000000000081526004016119dc906137ac565b60405180910390fd5b85810360008089815260200190815260200160002060008b73ffffffffffffffffffffffffffffffffffffffff1673ffffffffffffffffffffffffffffffffffffffff168152602001908152602001600020819055508560008089815260200190815260200160002060008a73ffffffffffffffffffffffffffffffffffffffff1673ffffffffffffffffffffffffffffffffffffffff1681526020019081526020016000206000828254611a9a919061363d565b925050819055508773ffffffffffffffffffffffffffffffffffffffff168973ffffffffffffffffffffffffffffffffffffffff168573ffffffffffffffffffffffffffffffffffffffff167fc3d58168c5ae7397731d063d5bbf3d657854427343f4c083240f7aacaa2d0f628a8a604051611b179291906138f0565b60405180910390a4611b2d848a8a86868a611ef5565b611b3b848a8a8a8a8a61214e565b505050505050505050565b600073ffffffffffffffffffffffffffffffffffffffff168373ffffffffffffffffffffffffffffffffffffffff1603611bb5576040517f08c379a0000000000000000000000000000000000000000000000000000000008152600401611bac9061383e565b60405180910390fd5b6000611bbf610ed2565b90506000611bcc846120d4565b90506000611bd9846120d4565b9050611bf983876000858560405180602001604052806000815250611edf565b600080600087815260200190815260200160002060008873ffffffffffffffffffffffffffffffffffffffff1673ffffffffffffffffffffffffffffffffffffffff16815260200190815260200160002054905084811015611c90576040517f08c379a0000000000000000000000000000000000000000000000000000000008152600401611c87906138d0565b60405180910390fd5b84810360008088815260200190815260200160002060008973ffffffffffffffffffffffffffffffffffffffff1673ffffffffffffffffffffffffffffffffffffffff16815260200190815260200160002081905550600073ffffffffffffffffffffffffffffffffffffffff168773ffffffffffffffffffffffffffffffffffffffff168573ffffffffffffffffffffffffffffffffffffffff167fc3d58168c5ae7397731d063d5bbf3d657854427343f4c083240f7aacaa2d0f628989604051611d5d9291906138f0565b60405180910390a4611d8384886000868660405180602001604052806000815250611ef5565b50505050505050565b600080600090507a184f03e93ff9f4daa797ed6e38ed64bf6a1f0100000000000000008310611dea577a184f03e93ff9f4daa797ed6e38ed64bf6a1f0100000000000000008381611de057611ddf61347e565b5b0492506040810190505b6d04ee2d6d415b85acef81000000008310611e27576d04ee2d6d415b85acef81000000008381611e1d57611e1c61347e565b5b0492506020810190505b662386f26fc100008310611e5657662386f26fc100008381611e4c57611e4b61347e565b5b0492506010810190505b6305f5e1008310611e7f576305f5e1008381611e7557611e7461347e565b5b0492506008810190505b6127108310611ea4576127108381611e9a57611e9961347e565b5b0492506004810190505b60648310611ec75760648381611ebd57611ebc61347e565b5b0492506002810190505b600a8310611ed6576001810190505b80915050919050565b611eed868686868686612325565b505050505050565b505050505050565b611f1c8473ffffffffffffffffffffffffffffffffffffffff166124f5565b156120cc578373ffffffffffffffffffffffffffffffffffffffff1663bc197c8187878686866040518663ffffffff1660e01b8152600401611f62959493929190613a00565b6020604051808303816000875af1925050508015611f9e57506040513d601f19601f82011682018060405250810190611f9b9190613a7d565b60015b61204357611faa613ab7565b806308c379a0036120065750611fbe613ad9565b80611fc95750612008565b806040517f08c379a0000000000000000000000000000000000000000000000000000000008152600401611ffd91906127aa565b60405180910390fd5b505b6040517f08c379a000000000000000000000000000000000000000000000000000000000815260040161203a90613bdb565b60405180910390fd5b63bc197c8160e01b7bffffffffffffffffffffffffffffffffffffffffffffffffffffffff1916817bffffffffffffffffffffffffffffffffffffffffffffffffffffffff1916146120ca576040517f08c379a00000000000000000000000000000000000000000000000000000000081526004016120c190613c6d565b60405180910390fd5b505b505050505050565b60606000600167ffffffffffffffff8111156120f3576120f26127d1565b5b6040519080825280602002602001820160405280156121215781602001602082028036833780820191505090505b509050828160008151811061213957612138613346565b5b60200260200101818152505080915050919050565b61216d8473ffffffffffffffffffffffffffffffffffffffff166124f5565b1561231d578373ffffffffffffffffffffffffffffffffffffffff1663f23a6e6187878686866040518663ffffffff1660e01b81526004016121b3959493929190613c8d565b6020604051808303816000875af19250505080156121ef57506040513d601f19601f820116820180604052508101906121ec9190613a7d565b60015b612294576121fb613ab7565b806308c379a003612257575061220f613ad9565b8061221a5750612259565b806040517f08c379a000000000000000000000000000000000000000000000000000000000815260040161224e91906127aa565b60405180910390fd5b505b6040517f08c379a000000000000000000000000000000000000000000000000000000000815260040161228b90613bdb565b60405180910390fd5b63f23a6e6160e01b7bffffffffffffffffffffffffffffffffffffffffffffffffffffffff1916817bffffffffffffffffffffffffffffffffffffffffffffffffffffffff19161461231b576040517f08c379a000000000000000000000000000000000000000000000000000000000815260040161231290613c6d565b60405180910390fd5b505b505050505050565b612333868686868686612518565b600073ffffffffffffffffffffffffffffffffffffffff168573ffffffffffffffffffffffffffffffffffffffff16036123e45760005b83518110156123e25782818151811061238657612385613346565b5b6020026020010151600460008684815181106123a5576123a4613346565b5b6020026020010151815260200190815260200160002060008282546123ca919061363d565b92505081905550806123db906133a4565b905061236a565b505b600073ffffffffffffffffffffffffffffffffffffffff168473ffffffffffffffffffffffffffffffffffffffff16036124ed5760005b83518110156124eb57600084828151811061243957612438613346565b5b60200260200101519050600084838151811061245857612457613346565b5b60200260200101519050600060046000848152602001908152602001600020549050818110156124bd576040517f08c379a00000000000000000000000000000000000000000000000000000000081526004016124b490613d59565b60405180910390fd5b8181036004600085815260200190815260200160002081905550505050806124e4906133a4565b905061241b565b505b505050505050565b6000808273ffffffffffffffffffffffffffffffffffffffff163b119050919050565b505050505050565b6000604051905090565b600080fd5b600080fd5b600073ffffffffffffffffffffffffffffffffffffffff82169050919050565b600061255f82612534565b9050919050565b61256f81612554565b811461257a57600080fd5b50565b60008135905061258c81612566565b92915050565b6000819050919050565b6125a581612592565b81146125b057600080fd5b50565b6000813590506125c28161259c565b92915050565b600080604083850312156125df576125de61252a565b5b60006125ed8582860161257d565b92505060206125fe858286016125b3565b9150509250929050565b61261181612592565b82525050565b600060208201905061262c6000830184612608565b92915050565b60007fffffffff0000000000000000000000000000000000000000000000000000000082169050919050565b61266781612632565b811461267257600080fd5b50565b6000813590506126848161265e565b92915050565b6000602082840312156126a05761269f61252a565b5b60006126ae84828501612675565b91505092915050565b60008115159050919050565b6126cc816126b7565b82525050565b60006020820190506126e760008301846126c3565b92915050565b6000602082840312156127035761270261252a565b5b6000612711848285016125b3565b91505092915050565b600081519050919050565b600082825260208201905092915050565b60005b83811015612754578082015181840152602081019050612739565b60008484015250505050565b6000601f19601f8301169050919050565b600061277c8261271a565b6127868185612725565b9350612796818560208601612736565b61279f81612760565b840191505092915050565b600060208201905081810360008301526127c48184612771565b905092915050565b600080fd5b7f4e487b7100000000000000000000000000000000000000000000000000000000600052604160045260246000fd5b61280982612760565b810181811067ffffffffffffffff82111715612828576128276127d1565b5b80604052505050565b600061283b612520565b90506128478282612800565b919050565b600067ffffffffffffffff821115612867576128666127d1565b5b602082029050602081019050919050565b600080fd5b600061289061288b8461284c565b612831565b905080838252602082019050602084028301858111156128b3576128b2612878565b5b835b818110156128dc57806128c888826125b3565b8452602084019350506020810190506128b5565b5050509392505050565b600082601f8301126128fb576128fa6127cc565b5b813561290b84826020860161287d565b91505092915050565b600080fd5b600067ffffffffffffffff821115612934576129336127d1565b5b61293d82612760565b9050602081019050919050565b82818337600083830152505050565b600061296c61296784612919565b612831565b90508281526020810184848401111561298857612987612914565b5b61299384828561294a565b509392505050565b600082601f8301126129b0576129af6127cc565b5b81356129c0848260208601612959565b91505092915050565b600080600080608085870312156129e3576129e261252a565b5b60006129f18782880161257d565b945050602085013567ffffffffffffffff811115612a1257612a1161252f565b5b612a1e878288016128e6565b935050604085013567ffffffffffffffff811115612a3f57612a3e61252f565b5b612a4b878288016128e6565b925050606085013567ffffffffffffffff811115612a6c57612a6b61252f565b5b612a788782880161299b565b91505092959194509250565b600080600080600060a08688031215612aa057612a9f61252a565b5b6000612aae8882890161257d565b9550506020612abf8882890161257d565b945050604086013567ffffffffffffffff811115612ae057612adf61252f565b5b612aec888289016128e6565b935050606086013567ffffffffffffffff811115612b0d57612b0c61252f565b5b612b19888289016128e6565b925050608086013567ffffffffffffffff811115612b3a57612b3961252f565b5b612b468882890161299b565b9150509295509295909350565b600067ffffffffffffffff821115612b6e57612b6d6127d1565b5b602082029050602081019050919050565b6000612b92612b8d84612b53565b612831565b90508083825260208201905060208402830185811115612bb557612bb4612878565b5b835b81811015612bde5780612bca888261257d565b845260208401935050602081019050612bb7565b5050509392505050565b600082601f830112612bfd57612bfc6127cc565b5b8135612c0d848260208601612b7f565b91505092915050565b60008060408385031215612c2d57612c2c61252a565b5b600083013567ffffffffffffffff811115612c4b57612c4a61252f565b5b612c5785828601612be8565b925050602083013567ffffffffffffffff811115612c7857612c7761252f565b5b612c84858286016128e6565b9150509250929050565b600081519050919050565b600082825260208201905092915050565b6000819050602082019050919050565b612cc381612592565b82525050565b6000612cd58383612cba565b60208301905092915050565b6000602082019050919050565b6000612cf982612c8e565b612d038185612c99565b9350612d0e83612caa565b8060005b83811015612d3f578151612d268882612cc9565b9750612d3183612ce1565b925050600181019050612d12565b5085935050505092915050565b60006020820190508181036000830152612d668184612cee565b905092915050565b600080600060608486031215612d8757612d8661252a565b5b6000612d958682870161257d565b935050602084013567ffffffffffffffff811115612db657612db561252f565b5b612dc2868287016128e6565b925050604084013567ffffffffffffffff811115612de357612de261252f565b5b612def868287016128e6565b9150509250925092565b60008060008060808587031215612e1357612e1261252a565b5b6000612e218782880161257d565b9450506020612e32878288016125b3565b9350506040612e43878288016125b3565b925050606085013567ffffffffffffffff811115612e6457612e6361252f565b5b612e708782880161299b565b91505092959194509250565b612e8581612554565b82525050565b6000602082019050612ea06000830184612e7c565b92915050565b612eaf816126b7565b8114612eba57600080fd5b50565b600081359050612ecc81612ea6565b92915050565b60008060408385031215612ee957612ee861252a565b5b6000612ef78582860161257d565b9250506020612f0885828601612ebd565b9150509250929050565b60008060408385031215612f2957612f2861252a565b5b6000612f378582860161257d565b9250506020612f488582860161257d565b9150509250929050565b600080600080600060a08688031215612f6e57612f6d61252a565b5b6000612f7c8882890161257d565b9550506020612f8d8882890161257d565b9450506040612f9e888289016125b3565b9350506060612faf888289016125b3565b925050608086013567ffffffffffffffff811115612fd057612fcf61252f565b5b612fdc8882890161299b565b9150509295509295909350565b600060208284031215612fff57612ffe61252a565b5b600061300d8482850161257d565b91505092915050565b60008060006060848603121561302f5761302e61252a565b5b600061303d8682870161257d565b935050602061304e868287016125b3565b925050604061305f868287016125b3565b9150509250925092565b7f455243313135353a2061646472657373207a65726f206973206e6f742061207660008201527f616c6964206f776e657200000000000000000000000000000000000000000000602082015250565b60006130c5602a83612725565b91506130d082613069565b604082019050919050565b600060208201905081810360008301526130f4816130b8565b9050919050565b600081905092915050565b7f697066733a2f2f516d61633839735a545347764b6b795961327672786452616b60008201527f5052456147464a534e4a52525765747a544c51544d2f00000000000000000000602082015250565b60006131626036836130fb565b915061316d82613106565b603682019050919050565b60006131838261271a565b61318d81856130fb565b935061319d818560208601612736565b80840191505092915050565b7f2e6a736f6e000000000000000000000000000000000000000000000000000000600082015250565b60006131df6005836130fb565b91506131ea826131a9565b600582019050919050565b600061320082613155565b915061320c8284613178565b9150613217826131d2565b915081905092915050565b7f455243313135353a2063616c6c6572206973206e6f7420746f6b656e206f776e60008201527f6572206f7220617070726f766564000000000000000000000000000000000000602082015250565b600061327e602e83612725565b915061328982613222565b604082019050919050565b600060208201905081810360008301526132ad81613271565b9050919050565b7f455243313135353a206163636f756e747320616e6420696473206c656e67746860008201527f206d69736d617463680000000000000000000000000000000000000000000000602082015250565b6000613310602983612725565b915061331b826132b4565b604082019050919050565b6000602082019050818103600083015261333f81613303565b9050919050565b7f4e487b7100000000000000000000000000000000000000000000000000000000600052603260045260246000fd5b7f4e487b7100000000000000000000000000000000000000000000000000000000600052601160045260246000fd5b60006133af82612592565b91507fffffffffffffffffffffffffffffffffffffffffffffffffffffffffffffffff82036133e1576133e0613375565b5b600182019050919050565b7f4f776e61626c653a206e6577206f776e657220697320746865207a65726f206160008201527f6464726573730000000000000000000000000000000000000000000000000000602082015250565b6000613448602683612725565b9150613453826133ec565b604082019050919050565b600060208201905081810360008301526134778161343b565b9050919050565b7f4e487b7100000000000000000000000000000000000000000000000000000000600052601260045260246000fd5b7f4f776e61626c653a2063616c6c6572206973206e6f7420746865206f776e6572600082015250565b60006134e3602083612725565b91506134ee826134ad565b602082019050919050565b60006020820190508181036000830152613512816134d6565b9050919050565b7f455243313135353a206d696e7420746f20746865207a65726f2061646472657360008201527f7300000000000000000000000000000000000000000000000000000000000000602082015250565b6000613575602183612725565b915061358082613519565b604082019050919050565b600060208201905081810360008301526135a481613568565b9050919050565b7f455243313135353a2069647320616e6420616d6f756e7473206c656e6774682060008201527f6d69736d61746368000000000000000000000000000000000000000000000000602082015250565b6000613607602883612725565b9150613612826135ab565b604082019050919050565b60006020820190508181036000830152613636816135fa565b9050919050565b600061364882612592565b915061365383612592565b925082820190508082111561366b5761366a613375565b5b92915050565b6000604082019050818103600083015261368b8185612cee565b9050818103602083015261369f8184612cee565b90509392505050565b7f455243313135353a207472616e7366657220746f20746865207a65726f20616460008201527f6472657373000000000000000000000000000000000000000000000000000000602082015250565b6000613704602583612725565b915061370f826136a8565b604082019050919050565b60006020820190508181036000830152613733816136f7565b9050919050565b7f455243313135353a20696e73756666696369656e742062616c616e636520666f60008201527f72207472616e7366657200000000000000000000000000000000000000000000602082015250565b6000613796602a83612725565b91506137a18261373a565b604082019050919050565b600060208201905081810360008301526137c581613789565b9050919050565b7f455243313135353a206275726e2066726f6d20746865207a65726f206164647260008201527f6573730000000000000000000000000000000000000000000000000000000000602082015250565b6000613828602383612725565b9150613833826137cc565b604082019050919050565b600060208201905081810360008301526138578161381b565b9050919050565b7f455243313135353a206275726e20616d6f756e7420657863656564732062616c60008201527f616e636500000000000000000000000000000000000000000000000000000000602082015250565b60006138ba602483612725565b91506138c58261385e565b604082019050919050565b600060208201905081810360008301526138e9816138ad565b9050919050565b60006040820190506139056000830185612608565b6139126020830184612608565b9392505050565b7f455243313135353a2073657474696e6720617070726f76616c2073746174757360008201527f20666f722073656c660000000000000000000000000000000000000000000000602082015250565b6000613975602983612725565b915061398082613919565b604082019050919050565b600060208201905081810360008301526139a481613968565b9050919050565b600081519050919050565b600082825260208201905092915050565b60006139d2826139ab565b6139dc81856139b6565b93506139ec818560208601612736565b6139f581612760565b840191505092915050565b600060a082019050613a156000830188612e7c565b613a226020830187612e7c565b8181036040830152613a348186612cee565b90508181036060830152613a488185612cee565b90508181036080830152613a5c81846139c7565b90509695505050505050565b600081519050613a778161265e565b92915050565b600060208284031215613a9357613a9261252a565b5b6000613aa184828501613a68565b91505092915050565b60008160e01c9050919050565b600060033d1115613ad65760046000803e613ad3600051613aaa565b90505b90565b600060443d10613b6657613aeb612520565b60043d036004823e80513d602482011167ffffffffffffffff82111715613b13575050613b66565b808201805167ffffffffffffffff811115613b315750505050613b66565b80602083010160043d038501811115613b4e575050505050613b66565b613b5d82602001850186612800565b82955050505050505b90565b7f455243313135353a207472616e7366657220746f206e6f6e2d4552433131353560008201527f526563656976657220696d706c656d656e746572000000000000000000000000602082015250565b6000613bc5603483612725565b9150613bd082613b69565b604082019050919050565b60006020820190508181036000830152613bf481613bb8565b9050919050565b7f455243313135353a204552433131353552656365697665722072656a6563746560008201527f6420746f6b656e73000000000000000000000000000000000000000000000000602082015250565b6000613c57602883612725565b9150613c6282613bfb565b604082019050919050565b60006020820190508181036000830152613c8681613c4a565b9050919050565b600060a082019050613ca26000830188612e7c565b613caf6020830187612e7c565b613cbc6040830186612608565b613cc96060830185612608565b8181036080830152613cdb81846139c7565b90509695505050505050565b7f455243313135353a206275726e20616d6f756e74206578636565647320746f7460008201527f616c537570706c79000000000000000000000000000000000000000000000000602082015250565b6000613d43602883612725565b9150613d4e82613ce7565b604082019050919050565b60006020820190508181036000830152613d7281613d36565b905091905056fe68747470733a2f2f697066732e696f2f697066732f516d5158447559506455346538576437515866796279655857756a7932736d70776e4575314e626151326a3145712f636f6c6c656374696f6e2e6a736f6ea2646970667358221220e45dc726be2aad32a7e9b9690346b287750c2ca7a1d389679fcbe228d62c0fa664736f6c63430008120033697066733a2f2f516d61633839735a545347764b6b795961327672786452616b5052456147464a534e4a52525765747a544c51544d2f7b69647d2e6a736f6e",
			"opcodes": "PUSH1 0x80 PUSH1 0x40 MSTORE CALLVALUE DUP1 ISZERO PUSH3 0x11 JUMPI PUSH1 0x0 DUP1 REVERT JUMPDEST POP PUSH1 0x40 MLOAD DUP1 PUSH1 0x60 ADD PUSH1 0x40 MSTORE DUP1 PUSH1 0x3F DUP2 MSTORE PUSH1 0x20 ADD PUSH3 0x42BA PUSH1 0x3F SWAP2 CODECOPY PUSH3 0x3D DUP2 PUSH3 0x64 PUSH1 0x20 SHL PUSH1 0x20 SHR JUMP JUMPDEST POP PUSH3 0x5E PUSH3 0x52 PUSH3 0x79 PUSH1 0x20 SHL PUSH1 0x20 SHR JUMP JUMPDEST PUSH3 0x81 PUSH1 0x20 SHL PUSH1 0x20 SHR JUMP JUMPDEST PUSH3 0x4A8 JUMP JUMPDEST DUP1 PUSH1 0x2 SWAP1 DUP2 PUSH3 0x75 SWAP2 SWAP1 PUSH3 0x3C1 JUMP JUMPDEST POP POP JUMP JUMPDEST PUSH1 0x0 CALLER SWAP1 POP SWAP1 JUMP JUMPDEST PUSH1 0x0 PUSH1 0x3 PUSH1 0x0 SWAP1 SLOAD SWAP1 PUSH2 0x100 EXP SWAP1 DIV PUSH20 0xFFFFFFFFFFFFFFFFFFFFFFFFFFFFFFFFFFFFFFFF AND SWAP1 POP DUP2 PUSH1 0x3 PUSH1 0x0 PUSH2 0x100 EXP DUP2 SLOAD DUP2 PUSH20 0xFFFFFFFFFFFFFFFFFFFFFFFFFFFFFFFFFFFFFFFF MUL NOT AND SWAP1 DUP4 PUSH20 0xFFFFFFFFFFFFFFFFFFFFFFFFFFFFFFFFFFFFFFFF AND MUL OR SWAP1 SSTORE POP DUP2 PUSH20 0xFFFFFFFFFFFFFFFFFFFFFFFFFFFFFFFFFFFFFFFF AND DUP2 PUSH20 0xFFFFFFFFFFFFFFFFFFFFFFFFFFFFFFFFFFFFFFFF AND PUSH32 0x8BE0079C531659141344CD1FD0A4F28419497F9722A3DAAFE3B4186F6B6457E0 PUSH1 0x40 MLOAD PUSH1 0x40 MLOAD DUP1 SWAP2 SUB SWAP1 LOG3 POP POP JUMP JUMPDEST PUSH1 0x0 DUP2 MLOAD SWAP1 POP SWAP2 SWAP1 POP JUMP JUMPDEST PUSH32 0x4E487B7100000000000000000000000000000000000000000000000000000000 PUSH1 0x0 MSTORE PUSH1 0x41 PUSH1 0x4 MSTORE PUSH1 0x24 PUSH1 0x0 REVERT JUMPDEST PUSH32 0x4E487B7100000000000000000000000000000000000000000000000000000000 PUSH1 0x0 MSTORE PUSH1 0x22 PUSH1 0x4 MSTORE PUSH1 0x24 PUSH1 0x0 REVERT JUMPDEST PUSH1 0x0 PUSH1 0x2 DUP3 DIV SWAP1 POP PUSH1 0x1 DUP3 AND DUP1 PUSH3 0x1C9 JUMPI PUSH1 0x7F DUP3 AND SWAP2 POP JUMPDEST PUSH1 0x20 DUP3 LT DUP2 SUB PUSH3 0x1DF JUMPI PUSH3 0x1DE PUSH3 0x181 JUMP JUMPDEST JUMPDEST POP SWAP2 SWAP1 POP JUMP JUMPDEST PUSH1 0x0 DUP2 SWAP1 POP DUP2 PUSH1 0x0 MSTORE PUSH1 0x20 PUSH1 0x0 KECCAK256 SWAP1 POP SWAP2 SWAP1 POP JUMP JUMPDEST PUSH1 0x0 PUSH1 0x20 PUSH1 0x1F DUP4 ADD DIV SWAP1 POP SWAP2 SWAP1 POP JUMP JUMPDEST PUSH1 0x0 DUP3 DUP3 SHL SWAP1 POP SWAP3 SWAP2 POP POP JUMP JUMPDEST PUSH1 0x0 PUSH1 0x8 DUP4 MUL PUSH3 0x249 PUSH32 0xFFFFFFFFFFFFFFFFFFFFFFFFFFFFFFFFFFFFFFFFFFFFFFFFFFFFFFFFFFFFFFFF DUP3 PUSH3 0x20A JUMP JUMPDEST PUSH3 0x255 DUP7 DUP4 PUSH3 0x20A JUMP JUMPDEST SWAP6 POP DUP1 NOT DUP5 AND SWAP4 POP DUP1 DUP7 AND DUP5 OR SWAP3 POP POP POP SWAP4 SWAP3 POP POP POP JUMP JUMPDEST PUSH1 0x0 DUP2 SWAP1 POP SWAP2 SWAP1 POP JUMP JUMPDEST PUSH1 0x0 DUP2 SWAP1 POP SWAP2 SWAP1 POP JUMP JUMPDEST PUSH1 0x0 PUSH3 0x2A2 PUSH3 0x29C PUSH3 0x296 DUP5 PUSH3 0x26D JUMP JUMPDEST PUSH3 0x277 JUMP JUMPDEST PUSH3 0x26D JUMP JUMPDEST SWAP1 POP SWAP2 SWAP1 POP JUMP JUMPDEST PUSH1 0x0 DUP2 SWAP1 POP SWAP2 SWAP1 POP JUMP JUMPDEST PUSH3 0x2BE DUP4 PUSH3 0x281 JUMP JUMPDEST PUSH3 0x2D6 PUSH3 0x2CD DUP3 PUSH3 0x2A9 JUMP JUMPDEST DUP5 DUP5 SLOAD PUSH3 0x217 JUMP JUMPDEST DUP3 SSTORE POP POP POP POP JUMP JUMPDEST PUSH1 0x0 SWAP1 JUMP JUMPDEST PUSH3 0x2ED PUSH3 0x2DE JUMP JUMPDEST PUSH3 0x2FA DUP2 DUP5 DUP5 PUSH3 0x2B3 JUMP JUMPDEST POP POP POP JUMP JUMPDEST JUMPDEST DUP2 DUP2 LT ISZERO PUSH3 0x322 JUMPI PUSH3 0x316 PUSH1 0x0 DUP3 PUSH3 0x2E3 JUMP JUMPDEST PUSH1 0x1 DUP2 ADD SWAP1 POP PUSH3 0x300 JUMP JUMPDEST POP POP JUMP JUMPDEST PUSH1 0x1F DUP3 GT ISZERO PUSH3 0x371 JUMPI PUSH3 0x33B DUP2 PUSH3 0x1E5 JUMP JUMPDEST PUSH3 0x346 DUP5 PUSH3 0x1FA JUMP JUMPDEST DUP2 ADD PUSH1 0x20 DUP6 LT ISZERO PUSH3 0x356 JUMPI DUP2 SWAP1 POP JUMPDEST PUSH3 0x36E PUSH3 0x365 DUP6 PUSH3 0x1FA JUMP JUMPDEST DUP4 ADD DUP3 PUSH3 0x2FF JUMP JUMPDEST POP POP JUMPDEST POP POP POP JUMP JUMPDEST PUSH1 0x0 DUP3 DUP3 SHR SWAP1 POP SWAP3 SWAP2 POP POP JUMP JUMPDEST PUSH1 0x0 PUSH3 0x396 PUSH1 0x0 NOT DUP5 PUSH1 0x8 MUL PUSH3 0x376 JUMP JUMPDEST NOT DUP1 DUP4 AND SWAP2 POP POP SWAP3 SWAP2 POP POP JUMP JUMPDEST PUSH1 0x0 PUSH3 0x3B1 DUP4 DUP4 PUSH3 0x383 JUMP JUMPDEST SWAP2 POP DUP3 PUSH1 0x2 MUL DUP3 OR SWAP1 POP SWAP3 SWAP2 POP POP JUMP JUMPDEST PUSH3 0x3CC DUP3 PUSH3 0x147 JUMP JUMPDEST PUSH8 0xFFFFFFFFFFFFFFFF DUP2 GT ISZERO PUSH3 0x3E8 JUMPI PUSH3 0x3E7 PUSH3 0x152 JUMP JUMPDEST JUMPDEST PUSH3 0x3F4 DUP3 SLOAD PUSH3 0x1B0 JUMP JUMPDEST PUSH3 0x401 DUP3 DUP3 DUP6 PUSH3 0x326 JUMP JUMPDEST PUSH1 0x0 PUSH1 0x20 SWAP1 POP PUSH1 0x1F DUP4 GT PUSH1 0x1 DUP2 EQ PUSH3 0x439 JUMPI PUSH1 0x0 DUP5 ISZERO PUSH3 0x424 JUMPI DUP3 DUP8 ADD MLOAD SWAP1 POP JUMPDEST PUSH3 0x430 DUP6 DUP3 PUSH3 0x3A3 JUMP JUMPDEST DUP7 SSTORE POP PUSH3 0x4A0 JUMP JUMPDEST PUSH1 0x1F NOT DUP5 AND PUSH3 0x449 DUP7 PUSH3 0x1E5 JUMP JUMPDEST PUSH1 0x0 JUMPDEST DUP3 DUP2 LT ISZERO PUSH3 0x473 JUMPI DUP5 DUP10 ADD MLOAD DUP3 SSTORE PUSH1 0x1 DUP3 ADD SWAP2 POP PUSH1 0x20 DUP6 ADD SWAP5 POP PUSH1 0x20 DUP2 ADD SWAP1 POP PUSH3 0x44C JUMP JUMPDEST DUP7 DUP4 LT ISZERO PUSH3 0x493 JUMPI DUP5 DUP10 ADD MLOAD PUSH3 0x48F PUSH1 0x1F DUP10 AND DUP3 PUSH3 0x383 JUMP JUMPDEST DUP4 SSTORE POP JUMPDEST PUSH1 0x1 PUSH1 0x2 DUP9 MUL ADD DUP9 SSTORE POP POP POP JUMPDEST POP POP POP POP POP POP JUMP JUMPDEST PUSH2 0x3E02 DUP1 PUSH3 0x4B8 PUSH1 0x0 CODECOPY PUSH1 0x0 RETURN INVALID PUSH1 0x80 PUSH1 0x40 MSTORE CALLVALUE DUP1 ISZERO PUSH2 0x10 JUMPI PUSH1 0x0 DUP1 REVERT JUMPDEST POP PUSH1 0x4 CALLDATASIZE LT PUSH2 0x115 JUMPI PUSH1 0x0 CALLDATALOAD PUSH1 0xE0 SHR DUP1 PUSH4 0x731133E9 GT PUSH2 0xA2 JUMPI DUP1 PUSH4 0xE8A3D485 GT PUSH2 0x71 JUMPI DUP1 PUSH4 0xE8A3D485 EQ PUSH2 0x2EE JUMPI DUP1 PUSH4 0xE985E9C5 EQ PUSH2 0x30C JUMPI DUP1 PUSH4 0xF242432A EQ PUSH2 0x33C JUMPI DUP1 PUSH4 0xF2FDE38B EQ PUSH2 0x358 JUMPI DUP1 PUSH4 0xF5298ACA EQ PUSH2 0x374 JUMPI PUSH2 0x115 JUMP JUMPDEST DUP1 PUSH4 0x731133E9 EQ PUSH2 0x268 JUMPI DUP1 PUSH4 0x8DA5CB5B EQ PUSH2 0x284 JUMPI DUP1 PUSH4 0xA22CB465 EQ PUSH2 0x2A2 JUMPI DUP1 PUSH4 0xBD85B039 EQ PUSH2 0x2BE JUMPI PUSH2 0x115 JUMP JUMPDEST DUP1 PUSH4 0x2EB2C2D6 GT PUSH2 0xE9 JUMPI DUP1 PUSH4 0x2EB2C2D6 EQ PUSH2 0x1C6 JUMPI DUP1 PUSH4 0x4E1273F4 EQ PUSH2 0x1E2 JUMPI DUP1 PUSH4 0x4F558E79 EQ PUSH2 0x212 JUMPI DUP1 PUSH4 0x6B20C454 EQ PUSH2 0x242 JUMPI DUP1 PUSH4 0x715018A6 EQ PUSH2 0x25E JUMPI PUSH2 0x115 JUMP JUMPDEST DUP1 PUSH3 0xFDD58E EQ PUSH2 0x11A JUMPI DUP1 PUSH4 0x1FFC9A7 EQ PUSH2 0x14A JUMPI DUP1 PUSH4 0xE89341C EQ PUSH2 0x17A JUMPI DUP1 PUSH4 0x1F7FDFFA EQ PUSH2 0x1AA JUMPI JUMPDEST PUSH1 0x0 DUP1 REVERT JUMPDEST PUSH2 0x134 PUSH1 0x4 DUP1 CALLDATASIZE SUB DUP2 ADD SWAP1 PUSH2 0x12F SWAP2 SWAP1 PUSH2 0x25C8 JUMP JUMPDEST PUSH2 0x390 JUMP JUMPDEST PUSH1 0x40 MLOAD PUSH2 0x141 SWAP2 SWAP1 PUSH2 0x2617 JUMP JUMPDEST PUSH1 0x40 MLOAD DUP1 SWAP2 SUB SWAP1 RETURN JUMPDEST PUSH2 0x164 PUSH1 0x4 DUP1 CALLDATASIZE SUB DUP2 ADD SWAP1 PUSH2 0x15F SWAP2 SWAP1 PUSH2 0x268A JUMP JUMPDEST PUSH2 0x458 JUMP JUMPDEST PUSH1 0x40 MLOAD PUSH2 0x171 SWAP2 SWAP1 PUSH2 0x26D2 JUMP JUMPDEST PUSH1 0x40 MLOAD DUP1 SWAP2 SUB SWAP1 RETURN JUMPDEST PUSH2 0x194 PUSH1 0x4 DUP1 CALLDATASIZE SUB DUP2 ADD SWAP1 PUSH2 0x18F SWAP2 SWAP1 PUSH2 0x26ED JUMP JUMPDEST PUSH2 0x53A JUMP JUMPDEST PUSH1 0x40 MLOAD PUSH2 0x1A1 SWAP2 SWAP1 PUSH2 0x27AA JUMP JUMPDEST PUSH1 0x40 MLOAD DUP1 SWAP2 SUB SWAP1 RETURN JUMPDEST PUSH2 0x1C4 PUSH1 0x4 DUP1 CALLDATASIZE SUB DUP2 ADD SWAP1 PUSH2 0x1BF SWAP2 SWAP1 PUSH2 0x29C9 JUMP JUMPDEST PUSH2 0x56B JUMP JUMPDEST STOP JUMPDEST PUSH2 0x1E0 PUSH1 0x4 DUP1 CALLDATASIZE SUB DUP2 ADD SWAP1 PUSH2 0x1DB SWAP2 SWAP1 PUSH2 0x2A84 JUMP JUMPDEST PUSH2 0x585 JUMP JUMPDEST STOP JUMPDEST PUSH2 0x1FC PUSH1 0x4 DUP1 CALLDATASIZE SUB DUP2 ADD SWAP1 PUSH2 0x1F7 SWAP2 SWAP1 PUSH2 0x2C16 JUMP JUMPDEST PUSH2 0x626 JUMP JUMPDEST PUSH1 0x40 MLOAD PUSH2 0x209 SWAP2 SWAP1 PUSH2 0x2D4C JUMP JUMPDEST PUSH1 0x40 MLOAD DUP1 SWAP2 SUB SWAP1 RETURN JUMPDEST PUSH2 0x22C PUSH1 0x4 DUP1 CALLDATASIZE SUB DUP2 ADD SWAP1 PUSH2 0x227 SWAP2 SWAP1 PUSH2 0x26ED JUMP JUMPDEST PUSH2 0x73F JUMP JUMPDEST PUSH1 0x40 MLOAD PUSH2 0x239 SWAP2 SWAP1 PUSH2 0x26D2 JUMP JUMPDEST PUSH1 0x40 MLOAD DUP1 SWAP2 SUB SWAP1 RETURN JUMPDEST PUSH2 0x25C PUSH1 0x4 DUP1 CALLDATASIZE SUB DUP2 ADD SWAP1 PUSH2 0x257 SWAP2 SWAP1 PUSH2 0x2D6E JUMP JUMPDEST PUSH2 0x753 JUMP JUMPDEST STOP JUMPDEST PUSH2 0x266 PUSH2 0x7F0 JUMP JUMPDEST STOP JUMPDEST PUSH2 0x282 PUSH1 0x4 DUP1 CALLDATASIZE SUB DUP2 ADD SWAP1 PUSH2 0x27D SWAP2 SWAP1 PUSH2 0x2DF9 JUMP JUMPDEST PUSH2 0x804 JUMP JUMPDEST STOP JUMPDEST PUSH2 0x28C PUSH2 0x81E JUMP JUMPDEST PUSH1 0x40 MLOAD PUSH2 0x299 SWAP2 SWAP1 PUSH2 0x2E8B JUMP JUMPDEST PUSH1 0x40 MLOAD DUP1 SWAP2 SUB SWAP1 RETURN JUMPDEST PUSH2 0x2BC PUSH1 0x4 DUP1 CALLDATASIZE SUB DUP2 ADD SWAP1 PUSH2 0x2B7 SWAP2 SWAP1 PUSH2 0x2ED2 JUMP JUMPDEST PUSH2 0x848 JUMP JUMPDEST STOP JUMPDEST PUSH2 0x2D8 PUSH1 0x4 DUP1 CALLDATASIZE SUB DUP2 ADD SWAP1 PUSH2 0x2D3 SWAP2 SWAP1 PUSH2 0x26ED JUMP JUMPDEST PUSH2 0x85E JUMP JUMPDEST PUSH1 0x40 MLOAD PUSH2 0x2E5 SWAP2 SWAP1 PUSH2 0x2617 JUMP JUMPDEST PUSH1 0x40 MLOAD DUP1 SWAP2 SUB SWAP1 RETURN JUMPDEST PUSH2 0x2F6 PUSH2 0x87B JUMP JUMPDEST PUSH1 0x40 MLOAD PUSH2 0x303 SWAP2 SWAP1 PUSH2 0x27AA JUMP JUMPDEST PUSH1 0x40 MLOAD DUP1 SWAP2 SUB SWAP1 RETURN JUMPDEST PUSH2 0x326 PUSH1 0x4 DUP1 CALLDATASIZE SUB DUP2 ADD SWAP1 PUSH2 0x321 SWAP2 SWAP1 PUSH2 0x2F12 JUMP JUMPDEST PUSH2 0x89B JUMP JUMPDEST PUSH1 0x40 MLOAD PUSH2 0x333 SWAP2 SWAP1 PUSH2 0x26D2 JUMP JUMPDEST PUSH1 0x40 MLOAD DUP1 SWAP2 SUB SWAP1 RETURN JUMPDEST PUSH2 0x356 PUSH1 0x4 DUP1 CALLDATASIZE SUB DUP2 ADD SWAP1 PUSH2 0x351 SWAP2 SWAP1 PUSH2 0x2F52 JUMP JUMPDEST PUSH2 0x92F JUMP JUMPDEST STOP JUMPDEST PUSH2 0x372 PUSH1 0x4 DUP1 CALLDATASIZE SUB DUP2 ADD SWAP1 PUSH2 0x36D SWAP2 SWAP1 PUSH2 0x2FE9 JUMP JUMPDEST PUSH2 0x9D0 JUMP JUMPDEST STOP JUMPDEST PUSH2 0x38E PUSH1 0x4 DUP1 CALLDATASIZE SUB DUP2 ADD SWAP1 PUSH2 0x389 SWAP2 SWAP1 PUSH2 0x3016 JUMP JUMPDEST PUSH2 0xA53 JUMP JUMPDEST STOP JUMPDEST PUSH1 0x0 DUP1 PUSH20 0xFFFFFFFFFFFFFFFFFFFFFFFFFFFFFFFFFFFFFFFF AND DUP4 PUSH20 0xFFFFFFFFFFFFFFFFFFFFFFFFFFFFFFFFFFFFFFFF AND SUB PUSH2 0x400 JUMPI PUSH1 0x40 MLOAD PUSH32 0x8C379A000000000000000000000000000000000000000000000000000000000 DUP2 MSTORE PUSH1 0x4 ADD PUSH2 0x3F7 SWAP1 PUSH2 0x30DB JUMP JUMPDEST PUSH1 0x40 MLOAD DUP1 SWAP2 SUB SWAP1 REVERT JUMPDEST PUSH1 0x0 DUP1 DUP4 DUP2 MSTORE PUSH1 0x20 ADD SWAP1 DUP2 MSTORE PUSH1 0x20 ADD PUSH1 0x0 KECCAK256 PUSH1 0x0 DUP5 PUSH20 0xFFFFFFFFFFFFFFFFFFFFFFFFFFFFFFFFFFFFFFFF AND PUSH20 0xFFFFFFFFFFFFFFFFFFFFFFFFFFFFFFFFFFFFFFFF AND DUP2 MSTORE PUSH1 0x20 ADD SWAP1 DUP2 MSTORE PUSH1 0x20 ADD PUSH1 0x0 KECCAK256 SLOAD SWAP1 POP SWAP3 SWAP2 POP POP JUMP JUMPDEST PUSH1 0x0 PUSH32 0xD9B67A2600000000000000000000000000000000000000000000000000000000 PUSH28 0xFFFFFFFFFFFFFFFFFFFFFFFFFFFFFFFFFFFFFFFFFFFFFFFFFFFFFFFF NOT AND DUP3 PUSH28 0xFFFFFFFFFFFFFFFFFFFFFFFFFFFFFFFFFFFFFFFFFFFFFFFFFFFFFFFF NOT AND EQ DUP1 PUSH2 0x523 JUMPI POP PUSH32 0xE89341C00000000000000000000000000000000000000000000000000000000 PUSH28 0xFFFFFFFFFFFFFFFFFFFFFFFFFFFFFFFFFFFFFFFFFFFFFFFFFFFFFFFF NOT AND DUP3 PUSH28 0xFFFFFFFFFFFFFFFFFFFFFFFFFFFFFFFFFFFFFFFFFFFFFFFFFFFFFFFF NOT AND EQ JUMPDEST DUP1 PUSH2 0x533 JUMPI POP PUSH2 0x532 DUP3 PUSH2 0xAF0 JUMP JUMPDEST JUMPDEST SWAP1 POP SWAP2 SWAP1 POP JUMP JUMPDEST PUSH1 0x60 PUSH2 0x545 DUP3 PUSH2 0xB5A JUMP JUMPDEST PUSH1 0x40 MLOAD PUSH1 0x20 ADD PUSH2 0x555 SWAP2 SWAP1 PUSH2 0x31F5 JUMP JUMPDEST PUSH1 0x40 MLOAD PUSH1 0x20 DUP2 DUP4 SUB SUB DUP2 MSTORE SWAP1 PUSH1 0x40 MSTORE SWAP1 POP SWAP2 SWAP1 POP JUMP JUMPDEST PUSH2 0x573 PUSH2 0xC28 JUMP JUMPDEST PUSH2 0x57F DUP5 DUP5 DUP5 DUP5 PUSH2 0xCA6 JUMP JUMPDEST POP POP POP POP JUMP JUMPDEST PUSH2 0x58D PUSH2 0xED2 JUMP JUMPDEST PUSH20 0xFFFFFFFFFFFFFFFFFFFFFFFFFFFFFFFFFFFFFFFF AND DUP6 PUSH20 0xFFFFFFFFFFFFFFFFFFFFFFFFFFFFFFFFFFFFFFFF AND EQ DUP1 PUSH2 0x5D3 JUMPI POP PUSH2 0x5D2 DUP6 PUSH2 0x5CD PUSH2 0xED2 JUMP JUMPDEST PUSH2 0x89B JUMP JUMPDEST JUMPDEST PUSH2 0x612 JUMPI PUSH1 0x40 MLOAD PUSH32 0x8C379A000000000000000000000000000000000000000000000000000000000 DUP2 MSTORE PUSH1 0x4 ADD PUSH2 0x609 SWAP1 PUSH2 0x3294 JUMP JUMPDEST PUSH1 0x40 MLOAD DUP1 SWAP2 SUB SWAP1 REVERT JUMPDEST PUSH2 0x61F DUP6 DUP6 DUP6 DUP6 DUP6 PUSH2 0xEDA JUMP JUMPDEST POP POP POP POP POP JUMP JUMPDEST PUSH1 0x60 DUP2 MLOAD DUP4 MLOAD EQ PUSH2 0x66C JUMPI PUSH1 0x40 MLOAD PUSH32 0x8C379A000000000000000000000000000000000000000000000000000000000 DUP2 MSTORE PUSH1 0x4 ADD PUSH2 0x663 SWAP1 PUSH2 0x3326 JUMP JUMPDEST PUSH1 0x40 MLOAD DUP1 SWAP2 SUB SWAP1 REVERT JUMPDEST PUSH1 0x0 DUP4 MLOAD PUSH8 0xFFFFFFFFFFFFFFFF DUP2 GT ISZERO PUSH2 0x689 JUMPI PUSH2 0x688 PUSH2 0x27D1 JUMP JUMPDEST JUMPDEST PUSH1 0x40 MLOAD SWAP1 DUP1 DUP3 MSTORE DUP1 PUSH1 0x20 MUL PUSH1 0x20 ADD DUP3 ADD PUSH1 0x40 MSTORE DUP1 ISZERO PUSH2 0x6B7 JUMPI DUP2 PUSH1 0x20 ADD PUSH1 0x20 DUP3 MUL DUP1 CALLDATASIZE DUP4 CALLDATACOPY DUP1 DUP3 ADD SWAP2 POP POP SWAP1 POP JUMPDEST POP SWAP1 POP PUSH1 0x0 JUMPDEST DUP5 MLOAD DUP2 LT ISZERO PUSH2 0x734 JUMPI PUSH2 0x704 DUP6 DUP3 DUP2 MLOAD DUP2 LT PUSH2 0x6DC JUMPI PUSH2 0x6DB PUSH2 0x3346 JUMP JUMPDEST JUMPDEST PUSH1 0x20 MUL PUSH1 0x20 ADD ADD MLOAD DUP6 DUP4 DUP2 MLOAD DUP2 LT PUSH2 0x6F7 JUMPI PUSH2 0x6F6 PUSH2 0x3346 JUMP JUMPDEST JUMPDEST PUSH1 0x20 MUL PUSH1 0x20 ADD ADD MLOAD PUSH2 0x390 JUMP JUMPDEST DUP3 DUP3 DUP2 MLOAD DUP2 LT PUSH2 0x717 JUMPI PUSH2 0x716 PUSH2 0x3346 JUMP JUMPDEST JUMPDEST PUSH1 0x20 MUL PUSH1 0x20 ADD ADD DUP2 DUP2 MSTORE POP POP DUP1 PUSH2 0x72D SWAP1 PUSH2 0x33A4 JUMP JUMPDEST SWAP1 POP PUSH2 0x6BD JUMP JUMPDEST POP DUP1 SWAP2 POP POP SWAP3 SWAP2 POP POP JUMP JUMPDEST PUSH1 0x0 DUP1 PUSH2 0x74B DUP4 PUSH2 0x85E JUMP JUMPDEST GT SWAP1 POP SWAP2 SWAP1 POP JUMP JUMPDEST PUSH2 0x75B PUSH2 0xED2 JUMP JUMPDEST PUSH20 0xFFFFFFFFFFFFFFFFFFFFFFFFFFFFFFFFFFFFFFFF AND DUP4 PUSH20 0xFFFFFFFFFFFFFFFFFFFFFFFFFFFFFFFFFFFFFFFF AND EQ DUP1 PUSH2 0x7A1 JUMPI POP PUSH2 0x7A0 DUP4 PUSH2 0x79B PUSH2 0xED2 JUMP JUMPDEST PUSH2 0x89B JUMP JUMPDEST JUMPDEST PUSH2 0x7E0 JUMPI PUSH1 0x40 MLOAD PUSH32 0x8C379A000000000000000000000000000000000000000000000000000000000 DUP2 MSTORE PUSH1 0x4 ADD PUSH2 0x7D7 SWAP1 PUSH2 0x3294 JUMP JUMPDEST PUSH1 0x40 MLOAD DUP1 SWAP2 SUB SWAP1 REVERT JUMPDEST PUSH2 0x7EB DUP4 DUP4 DUP4 PUSH2 0x11FB JUMP JUMPDEST POP POP POP JUMP JUMPDEST PUSH2 0x7F8 PUSH2 0xC28 JUMP JUMPDEST PUSH2 0x802 PUSH1 0x0 PUSH2 0x14C9 JUMP JUMPDEST JUMP JUMPDEST PUSH2 0x80C PUSH2 0xC28 JUMP JUMPDEST PUSH2 0x818 DUP5 DUP5 DUP5 DUP5 PUSH2 0x158F JUMP JUMPDEST POP POP POP POP JUMP JUMPDEST PUSH1 0x0 PUSH1 0x3 PUSH1 0x0 SWAP1 SLOAD SWAP1 PUSH2 0x100 EXP SWAP1 DIV PUSH20 0xFFFFFFFFFFFFFFFFFFFFFFFFFFFFFFFFFFFFFFFF AND SWAP1 POP SWAP1 JUMP JUMPDEST PUSH2 0x85A PUSH2 0x853 PUSH2 0xED2 JUMP JUMPDEST DUP4 DUP4 PUSH2 0x173F JUMP JUMPDEST POP POP JUMP JUMPDEST PUSH1 0x0 PUSH1 0x4 PUSH1 0x0 DUP4 DUP2 MSTORE PUSH1 0x20 ADD SWAP1 DUP2 MSTORE PUSH1 0x20 ADD PUSH1 0x0 KECCAK256 SLOAD SWAP1 POP SWAP2 SWAP1 POP JUMP JUMPDEST PUSH1 0x60 PUSH1 0x40 MLOAD DUP1 PUSH1 0x80 ADD PUSH1 0x40 MSTORE DUP1 PUSH1 0x53 DUP2 MSTORE PUSH1 0x20 ADD PUSH2 0x3D7A PUSH1 0x53 SWAP2 CODECOPY SWAP1 POP SWAP1 JUMP JUMPDEST PUSH1 0x0 PUSH1 0x1 PUSH1 0x0 DUP5 PUSH20 0xFFFFFFFFFFFFFFFFFFFFFFFFFFFFFFFFFFFFFFFF AND PUSH20 0xFFFFFFFFFFFFFFFFFFFFFFFFFFFFFFFFFFFFFFFF AND DUP2 MSTORE PUSH1 0x20 ADD SWAP1 DUP2 MSTORE PUSH1 0x20 ADD PUSH1 0x0 KECCAK256 PUSH1 0x0 DUP4 PUSH20 0xFFFFFFFFFFFFFFFFFFFFFFFFFFFFFFFFFFFFFFFF AND PUSH20 0xFFFFFFFFFFFFFFFFFFFFFFFFFFFFFFFFFFFFFFFF AND DUP2 MSTORE PUSH1 0x20 ADD SWAP1 DUP2 MSTORE PUSH1 0x20 ADD PUSH1 0x0 KECCAK256 PUSH1 0x0 SWAP1 SLOAD SWAP1 PUSH2 0x100 EXP SWAP1 DIV PUSH1 0xFF AND SWAP1 POP SWAP3 SWAP2 POP POP JUMP JUMPDEST PUSH2 0x937 PUSH2 0xED2 JUMP JUMPDEST PUSH20 0xFFFFFFFFFFFFFFFFFFFFFFFFFFFFFFFFFFFFFFFF AND DUP6 PUSH20 0xFFFFFFFFFFFFFFFFFFFFFFFFFFFFFFFFFFFFFFFF AND EQ DUP1 PUSH2 0x97D JUMPI POP PUSH2 0x97C DUP6 PUSH2 0x977 PUSH2 0xED2 JUMP JUMPDEST PUSH2 0x89B JUMP JUMPDEST JUMPDEST PUSH2 0x9BC JUMPI PUSH1 0x40 MLOAD PUSH32 0x8C379A000000000000000000000000000000000000000000000000000000000 DUP2 MSTORE PUSH1 0x4 ADD PUSH2 0x9B3 SWAP1 PUSH2 0x3294 JUMP JUMPDEST PUSH1 0x40 MLOAD DUP1 SWAP2 SUB SWAP1 REVERT JUMPDEST PUSH2 0x9C9 DUP6 DUP6 DUP6 DUP6 DUP6 PUSH2 0x18AB JUMP JUMPDEST POP POP POP POP POP JUMP JUMPDEST PUSH2 0x9D8 PUSH2 0xC28 JUMP JUMPDEST PUSH1 0x0 PUSH20 0xFFFFFFFFFFFFFFFFFFFFFFFFFFFFFFFFFFFFFFFF AND DUP2 PUSH20 0xFFFFFFFFFFFFFFFFFFFFFFFFFFFFFFFFFFFFFFFF AND SUB PUSH2 0xA47 JUMPI PUSH1 0x40 MLOAD PUSH32 0x8C379A000000000000000000000000000000000000000000000000000000000 DUP2 MSTORE PUSH1 0x4 ADD PUSH2 0xA3E SWAP1 PUSH2 0x345E JUMP JUMPDEST PUSH1 0x40 MLOAD DUP1 SWAP2 SUB SWAP1 REVERT JUMPDEST PUSH2 0xA50 DUP2 PUSH2 0x14C9 JUMP JUMPDEST POP JUMP JUMPDEST PUSH2 0xA5B PUSH2 0xED2 JUMP JUMPDEST PUSH20 0xFFFFFFFFFFFFFFFFFFFFFFFFFFFFFFFFFFFFFFFF AND DUP4 PUSH20 0xFFFFFFFFFFFFFFFFFFFFFFFFFFFFFFFFFFFFFFFF AND EQ DUP1 PUSH2 0xAA1 JUMPI POP PUSH2 0xAA0 DUP4 PUSH2 0xA9B PUSH2 0xED2 JUMP JUMPDEST PUSH2 0x89B JUMP JUMPDEST JUMPDEST PUSH2 0xAE0 JUMPI PUSH1 0x40 MLOAD PUSH32 0x8C379A000000000000000000000000000000000000000000000000000000000 DUP2 MSTORE PUSH1 0x4 ADD PUSH2 0xAD7 SWAP1 PUSH2 0x3294 JUMP JUMPDEST PUSH1 0x40 MLOAD DUP1 SWAP2 SUB SWAP1 REVERT JUMPDEST PUSH2 0xAEB DUP4 DUP4 DUP4 PUSH2 0x1B46 JUMP JUMPDEST POP POP POP JUMP JUMPDEST PUSH1 0x0 PUSH32 0x1FFC9A700000000000000000000000000000000000000000000000000000000 PUSH28 0xFFFFFFFFFFFFFFFFFFFFFFFFFFFFFFFFFFFFFFFFFFFFFFFFFFFFFFFF NOT AND DUP3 PUSH28 0xFFFFFFFFFFFFFFFFFFFFFFFFFFFFFFFFFFFFFFFFFFFFFFFFFFFFFFFF NOT AND EQ SWAP1 POP SWAP2 SWAP1 POP JUMP JUMPDEST PUSH1 0x60 PUSH1 0x0 PUSH1 0x1 PUSH2 0xB69 DUP5 PUSH2 0x1D8C JUMP JUMPDEST ADD SWAP1 POP PUSH1 0x0 DUP2 PUSH8 0xFFFFFFFFFFFFFFFF DUP2 GT ISZERO PUSH2 0xB88 JUMPI PUSH2 0xB87 PUSH2 0x27D1 JUMP JUMPDEST JUMPDEST PUSH1 0x40 MLOAD SWAP1 DUP1 DUP3 MSTORE DUP1 PUSH1 0x1F ADD PUSH1 0x1F NOT AND PUSH1 0x20 ADD DUP3 ADD PUSH1 0x40 MSTORE DUP1 ISZERO PUSH2 0xBBA JUMPI DUP2 PUSH1 0x20 ADD PUSH1 0x1 DUP3 MUL DUP1 CALLDATASIZE DUP4 CALLDATACOPY DUP1 DUP3 ADD SWAP2 POP POP SWAP1 POP JUMPDEST POP SWAP1 POP PUSH1 0x0 DUP3 PUSH1 0x20 ADD DUP3 ADD SWAP1 POP JUMPDEST PUSH1 0x1 ISZERO PUSH2 0xC1D JUMPI DUP1 DUP1 PUSH1 0x1 SWAP1 SUB SWAP2 POP POP PUSH32 0x3031323334353637383961626364656600000000000000000000000000000000 PUSH1 0xA DUP7 MOD BYTE DUP2 MSTORE8 PUSH1 0xA DUP6 DUP2 PUSH2 0xC11 JUMPI PUSH2 0xC10 PUSH2 0x347E JUMP JUMPDEST JUMPDEST DIV SWAP5 POP PUSH1 0x0 DUP6 SUB PUSH2 0xBC8 JUMPI JUMPDEST DUP2 SWAP4 POP POP POP POP SWAP2 SWAP1 POP JUMP JUMPDEST PUSH2 0xC30 PUSH2 0xED2 JUMP JUMPDEST PUSH20 0xFFFFFFFFFFFFFFFFFFFFFFFFFFFFFFFFFFFFFFFF AND PUSH2 0xC4E PUSH2 0x81E JUMP JUMPDEST PUSH20 0xFFFFFFFFFFFFFFFFFFFFFFFFFFFFFFFFFFFFFFFF AND EQ PUSH2 0xCA4 JUMPI PUSH1 0x40 MLOAD PUSH32 0x8C379A000000000000000000000000000000000000000000000000000000000 DUP2 MSTORE PUSH1 0x4 ADD PUSH2 0xC9B SWAP1 PUSH2 0x34F9 JUMP JUMPDEST PUSH1 0x40 MLOAD DUP1 SWAP2 SUB SWAP1 REVERT JUMPDEST JUMP JUMPDEST PUSH1 0x0 PUSH20 0xFFFFFFFFFFFFFFFFFFFFFFFFFFFFFFFFFFFFFFFF AND DUP5 PUSH20 0xFFFFFFFFFFFFFFFFFFFFFFFFFFFFFFFFFFFFFFFF AND SUB PUSH2 0xD15 JUMPI PUSH1 0x40 MLOAD PUSH32 0x8C379A000000000000000000000000000000000000000000000000000000000 DUP2 MSTORE PUSH1 0x4 ADD PUSH2 0xD0C SWAP1 PUSH2 0x358B JUMP JUMPDEST PUSH1 0x40 MLOAD DUP1 SWAP2 SUB SWAP1 REVERT JUMPDEST DUP2 MLOAD DUP4 MLOAD EQ PUSH2 0xD59 JUMPI PUSH1 0x40 MLOAD PUSH32 0x8C379A000000000000000000000000000000000000000000000000000000000 DUP2 MSTORE PUSH1 0x4 ADD PUSH2 0xD50 SWAP1 PUSH2 0x361D JUMP JUMPDEST PUSH1 0x40 MLOAD DUP1 SWAP2 SUB SWAP1 REVERT JUMPDEST PUSH1 0x0 PUSH2 0xD63 PUSH2 0xED2 JUMP JUMPDEST SWAP1 POP PUSH2 0xD74 DUP2 PUSH1 0x0 DUP8 DUP8 DUP8 DUP8 PUSH2 0x1EDF JUMP JUMPDEST PUSH1 0x0 JUMPDEST DUP5 MLOAD DUP2 LT ISZERO PUSH2 0xE2D JUMPI DUP4 DUP2 DUP2 MLOAD DUP2 LT PUSH2 0xD93 JUMPI PUSH2 0xD92 PUSH2 0x3346 JUMP JUMPDEST JUMPDEST PUSH1 0x20 MUL PUSH1 0x20 ADD ADD MLOAD PUSH1 0x0 DUP1 DUP8 DUP5 DUP2 MLOAD DUP2 LT PUSH2 0xDB1 JUMPI PUSH2 0xDB0 PUSH2 0x3346 JUMP JUMPDEST JUMPDEST PUSH1 0x20 MUL PUSH1 0x20 ADD ADD MLOAD DUP2 MSTORE PUSH1 0x20 ADD SWAP1 DUP2 MSTORE PUSH1 0x20 ADD PUSH1 0x0 KECCAK256 PUSH1 0x0 DUP9 PUSH20 0xFFFFFFFFFFFFFFFFFFFFFFFFFFFFFFFFFFFFFFFF AND PUSH20 0xFFFFFFFFFFFFFFFFFFFFFFFFFFFFFFFFFFFFFFFF AND DUP2 MSTORE PUSH1 0x20 ADD SWAP1 DUP2 MSTORE PUSH1 0x20 ADD PUSH1 0x0 KECCAK256 PUSH1 0x0 DUP3 DUP3 SLOAD PUSH2 0xE13 SWAP2 SWAP1 PUSH2 0x363D JUMP JUMPDEST SWAP3 POP POP DUP2 SWAP1 SSTORE POP DUP1 DUP1 PUSH2 0xE25 SWAP1 PUSH2 0x33A4 JUMP JUMPDEST SWAP2 POP POP PUSH2 0xD77 JUMP JUMPDEST POP DUP5 PUSH20 0xFFFFFFFFFFFFFFFFFFFFFFFFFFFFFFFFFFFFFFFF AND PUSH1 0x0 PUSH20 0xFFFFFFFFFFFFFFFFFFFFFFFFFFFFFFFFFFFFFFFF AND DUP3 PUSH20 0xFFFFFFFFFFFFFFFFFFFFFFFFFFFFFFFFFFFFFFFF AND PUSH32 0x4A39DC06D4C0DBC64B70AF90FD698A233A518AA5D07E595D983B8C0526C8F7FB DUP8 DUP8 PUSH1 0x40 MLOAD PUSH2 0xEA5 SWAP3 SWAP2 SWAP1 PUSH2 0x3671 JUMP JUMPDEST PUSH1 0x40 MLOAD DUP1 SWAP2 SUB SWAP1 LOG4 PUSH2 0xEBC DUP2 PUSH1 0x0 DUP8 DUP8 DUP8 DUP8 PUSH2 0x1EF5 JUMP JUMPDEST PUSH2 0xECB DUP2 PUSH1 0x0 DUP8 DUP8 DUP8 DUP8 PUSH2 0x1EFD JUMP JUMPDEST POP POP POP POP POP JUMP JUMPDEST PUSH1 0x0 CALLER SWAP1 POP SWAP1 JUMP JUMPDEST DUP2 MLOAD DUP4 MLOAD EQ PUSH2 0xF1E JUMPI PUSH1 0x40 MLOAD PUSH32 0x8C379A000000000000000000000000000000000000000000000000000000000 DUP2 MSTORE PUSH1 0x4 ADD PUSH2 0xF15 SWAP1 PUSH2 0x361D JUMP JUMPDEST PUSH1 0x40 MLOAD DUP1 SWAP2 SUB SWAP1 REVERT JUMPDEST PUSH1 0x0 PUSH20 0xFFFFFFFFFFFFFFFFFFFFFFFFFFFFFFFFFFFFFFFF AND DUP5 PUSH20 0xFFFFFFFFFFFFFFFFFFFFFFFFFFFFFFFFFFFFFFFF AND SUB PUSH2 0xF8D JUMPI PUSH1 0x40 MLOAD PUSH32 0x8C379A000000000000000000000000000000000000000000000000000000000 DUP2 MSTORE PUSH1 0x4 ADD PUSH2 0xF84 SWAP1 PUSH2 0x371A JUMP JUMPDEST PUSH1 0x40 MLOAD DUP1 SWAP2 SUB SWAP1 REVERT JUMPDEST PUSH1 0x0 PUSH2 0xF97 PUSH2 0xED2 JUMP JUMPDEST SWAP1 POP PUSH2 0xFA7 DUP2 DUP8 DUP8 DUP8 DUP8 DUP8 PUSH2 0x1EDF JUMP JUMPDEST PUSH1 0x0 JUMPDEST DUP5 MLOAD DUP2 LT ISZERO PUSH2 0x1158 JUMPI PUSH1 0x0 DUP6 DUP3 DUP2 MLOAD DUP2 LT PUSH2 0xFC8 JUMPI PUSH2 0xFC7 PUSH2 0x3346 JUMP JUMPDEST JUMPDEST PUSH1 0x20 MUL PUSH1 0x20 ADD ADD MLOAD SWAP1 POP PUSH1 0x0 DUP6 DUP4 DUP2 MLOAD DUP2 LT PUSH2 0xFE7 JUMPI PUSH2 0xFE6 PUSH2 0x3346 JUMP JUMPDEST JUMPDEST PUSH1 0x20 MUL PUSH1 0x20 ADD ADD MLOAD SWAP1 POP PUSH1 0x0 DUP1 PUSH1 0x0 DUP5 DUP2 MSTORE PUSH1 0x20 ADD SWAP1 DUP2 MSTORE PUSH1 0x20 ADD PUSH1 0x0 KECCAK256 PUSH1 0x0 DUP12 PUSH20 0xFFFFFFFFFFFFFFFFFFFFFFFFFFFFFFFFFFFFFFFF AND PUSH20 0xFFFFFFFFFFFFFFFFFFFFFFFFFFFFFFFFFFFFFFFF AND DUP2 MSTORE PUSH1 0x20 ADD SWAP1 DUP2 MSTORE PUSH1 0x20 ADD PUSH1 0x0 KECCAK256 SLOAD SWAP1 POP DUP2 DUP2 LT ISZERO PUSH2 0x1088 JUMPI PUSH1 0x40 MLOAD PUSH32 0x8C379A000000000000000000000000000000000000000000000000000000000 DUP2 MSTORE PUSH1 0x4 ADD PUSH2 0x107F SWAP1 PUSH2 0x37AC JUMP JUMPDEST PUSH1 0x40 MLOAD DUP1 SWAP2 SUB SWAP1 REVERT JUMPDEST DUP2 DUP2 SUB PUSH1 0x0 DUP1 DUP6 DUP2 MSTORE PUSH1 0x20 ADD SWAP1 DUP2 MSTORE PUSH1 0x20 ADD PUSH1 0x0 KECCAK256 PUSH1 0x0 DUP13 PUSH20 0xFFFFFFFFFFFFFFFFFFFFFFFFFFFFFFFFFFFFFFFF AND PUSH20 0xFFFFFFFFFFFFFFFFFFFFFFFFFFFFFFFFFFFFFFFF AND DUP2 MSTORE PUSH1 0x20 ADD SWAP1 DUP2 MSTORE PUSH1 0x20 ADD PUSH1 0x0 KECCAK256 DUP2 SWAP1 SSTORE POP DUP2 PUSH1 0x0 DUP1 DUP6 DUP2 MSTORE PUSH1 0x20 ADD SWAP1 DUP2 MSTORE PUSH1 0x20 ADD PUSH1 0x0 KECCAK256 PUSH1 0x0 DUP12 PUSH20 0xFFFFFFFFFFFFFFFFFFFFFFFFFFFFFFFFFFFFFFFF AND PUSH20 0xFFFFFFFFFFFFFFFFFFFFFFFFFFFFFFFFFFFFFFFF AND DUP2 MSTORE PUSH1 0x20 ADD SWAP1 DUP2 MSTORE PUSH1 0x20 ADD PUSH1 0x0 KECCAK256 PUSH1 0x0 DUP3 DUP3 SLOAD PUSH2 0x113D SWAP2 SWAP1 PUSH2 0x363D JUMP JUMPDEST SWAP3 POP POP DUP2 SWAP1 SSTORE POP POP POP POP DUP1 PUSH2 0x1151 SWAP1 PUSH2 0x33A4 JUMP JUMPDEST SWAP1 POP PUSH2 0xFAA JUMP JUMPDEST POP DUP5 PUSH20 0xFFFFFFFFFFFFFFFFFFFFFFFFFFFFFFFFFFFFFFFF AND DUP7 PUSH20 0xFFFFFFFFFFFFFFFFFFFFFFFFFFFFFFFFFFFFFFFF AND DUP3 PUSH20 0xFFFFFFFFFFFFFFFFFFFFFFFFFFFFFFFFFFFFFFFF AND PUSH32 0x4A39DC06D4C0DBC64B70AF90FD698A233A518AA5D07E595D983B8C0526C8F7FB DUP8 DUP8 PUSH1 0x40 MLOAD PUSH2 0x11CF SWAP3 SWAP2 SWAP1 PUSH2 0x3671 JUMP JUMPDEST PUSH1 0x40 MLOAD DUP1 SWAP2 SUB SWAP1 LOG4 PUSH2 0x11E5 DUP2 DUP8 DUP8 DUP8 DUP8 DUP8 PUSH2 0x1EF5 JUMP JUMPDEST PUSH2 0x11F3 DUP2 DUP8 DUP8 DUP8 DUP8 DUP8 PUSH2 0x1EFD JUMP JUMPDEST POP POP POP POP POP POP JUMP JUMPDEST PUSH1 0x0 PUSH20 0xFFFFFFFFFFFFFFFFFFFFFFFFFFFFFFFFFFFFFFFF AND DUP4 PUSH20 0xFFFFFFFFFFFFFFFFFFFFFFFFFFFFFFFFFFFFFFFF AND SUB PUSH2 0x126A JUMPI PUSH1 0x40 MLOAD PUSH32 0x8C379A000000000000000000000000000000000000000000000000000000000 DUP2 MSTORE PUSH1 0x4 ADD PUSH2 0x1261 SWAP1 PUSH2 0x383E JUMP JUMPDEST PUSH1 0x40 MLOAD DUP1 SWAP2 SUB SWAP1 REVERT JUMPDEST DUP1 MLOAD DUP3 MLOAD EQ PUSH2 0x12AE JUMPI PUSH1 0x40 MLOAD PUSH32 0x8C379A000000000000000000000000000000000000000000000000000000000 DUP2 MSTORE PUSH1 0x4 ADD PUSH2 0x12A5 SWAP1 PUSH2 0x361D JUMP JUMPDEST PUSH1 0x40 MLOAD DUP1 SWAP2 SUB SWAP1 REVERT JUMPDEST PUSH1 0x0 PUSH2 0x12B8 PUSH2 0xED2 JUMP JUMPDEST SWAP1 POP PUSH2 0x12D8 DUP2 DUP6 PUSH1 0x0 DUP7 DUP7 PUSH1 0x40 MLOAD DUP1 PUSH1 0x20 ADD PUSH1 0x40 MSTORE DUP1 PUSH1 0x0 DUP2 MSTORE POP PUSH2 0x1EDF JUMP JUMPDEST PUSH1 0x0 JUMPDEST DUP4 MLOAD DUP2 LT ISZERO PUSH2 0x1425 JUMPI PUSH1 0x0 DUP5 DUP3 DUP2 MLOAD DUP2 LT PUSH2 0x12F9 JUMPI PUSH2 0x12F8 PUSH2 0x3346 JUMP JUMPDEST JUMPDEST PUSH1 0x20 MUL PUSH1 0x20 ADD ADD MLOAD SWAP1 POP PUSH1 0x0 DUP5 DUP4 DUP2 MLOAD DUP2 LT PUSH2 0x1318 JUMPI PUSH2 0x1317 PUSH2 0x3346 JUMP JUMPDEST JUMPDEST PUSH1 0x20 MUL PUSH1 0x20 ADD ADD MLOAD SWAP1 POP PUSH1 0x0 DUP1 PUSH1 0x0 DUP5 DUP2 MSTORE PUSH1 0x20 ADD SWAP1 DUP2 MSTORE PUSH1 0x20 ADD PUSH1 0x0 KECCAK256 PUSH1 0x0 DUP10 PUSH20 0xFFFFFFFFFFFFFFFFFFFFFFFFFFFFFFFFFFFFFFFF AND PUSH20 0xFFFFFFFFFFFFFFFFFFFFFFFFFFFFFFFFFFFFFFFF AND DUP2 MSTORE PUSH1 0x20 ADD SWAP1 DUP2 MSTORE PUSH1 0x20 ADD PUSH1 0x0 KECCAK256 SLOAD SWAP1 POP DUP2 DUP2 LT ISZERO PUSH2 0x13B9 JUMPI PUSH1 0x40 MLOAD PUSH32 0x8C379A000000000000000000000000000000000000000000000000000000000 DUP2 MSTORE PUSH1 0x4 ADD PUSH2 0x13B0 SWAP1 PUSH2 0x38D0 JUMP JUMPDEST PUSH1 0x40 MLOAD DUP1 SWAP2 SUB SWAP1 REVERT JUMPDEST DUP2 DUP2 SUB PUSH1 0x0 DUP1 DUP6 DUP2 MSTORE PUSH1 0x20 ADD SWAP1 DUP2 MSTORE PUSH1 0x20 ADD PUSH1 0x0 KECCAK256 PUSH1 0x0 DUP11 PUSH20 0xFFFFFFFFFFFFFFFFFFFFFFFFFFFFFFFFFFFFFFFF AND PUSH20 0xFFFFFFFFFFFFFFFFFFFFFFFFFFFFFFFFFFFFFFFF AND DUP2 MSTORE PUSH1 0x20 ADD SWAP1 DUP2 MSTORE PUSH1 0x20 ADD PUSH1 0x0 KECCAK256 DUP2 SWAP1 SSTORE POP POP POP POP DUP1 DUP1 PUSH2 0x141D SWAP1 PUSH2 0x33A4 JUMP JUMPDEST SWAP2 POP POP PUSH2 0x12DB JUMP JUMPDEST POP PUSH1 0x0 PUSH20 0xFFFFFFFFFFFFFFFFFFFFFFFFFFFFFFFFFFFFFFFF AND DUP5 PUSH20 0xFFFFFFFFFFFFFFFFFFFFFFFFFFFFFFFFFFFFFFFF AND DUP3 PUSH20 0xFFFFFFFFFFFFFFFFFFFFFFFFFFFFFFFFFFFFFFFF AND PUSH32 0x4A39DC06D4C0DBC64B70AF90FD698A233A518AA5D07E595D983B8C0526C8F7FB DUP7 DUP7 PUSH1 0x40 MLOAD PUSH2 0x149D SWAP3 SWAP2 SWAP1 PUSH2 0x3671 JUMP JUMPDEST PUSH1 0x40 MLOAD DUP1 SWAP2 SUB SWAP1 LOG4 PUSH2 0x14C3 DUP2 DUP6 PUSH1 0x0 DUP7 DUP7 PUSH1 0x40 MLOAD DUP1 PUSH1 0x20 ADD PUSH1 0x40 MSTORE DUP1 PUSH1 0x0 DUP2 MSTORE POP PUSH2 0x1EF5 JUMP JUMPDEST POP POP POP POP JUMP JUMPDEST PUSH1 0x0 PUSH1 0x3 PUSH1 0x0 SWAP1 SLOAD SWAP1 PUSH2 0x100 EXP SWAP1 DIV PUSH20 0xFFFFFFFFFFFFFFFFFFFFFFFFFFFFFFFFFFFFFFFF AND SWAP1 POP DUP2 PUSH1 0x3 PUSH1 0x0 PUSH2 0x100 EXP DUP2 SLOAD DUP2 PUSH20 0xFFFFFFFFFFFFFFFFFFFFFFFFFFFFFFFFFFFFFFFF MUL NOT AND SWAP1 DUP4 PUSH20 0xFFFFFFFFFFFFFFFFFFFFFFFFFFFFFFFFFFFFFFFF AND MUL OR SWAP1 SSTORE POP DUP2 PUSH20 0xFFFFFFFFFFFFFFFFFFFFFFFFFFFFFFFFFFFFFFFF AND DUP2 PUSH20 0xFFFFFFFFFFFFFFFFFFFFFFFFFFFFFFFFFFFFFFFF AND PUSH32 0x8BE0079C531659141344CD1FD0A4F28419497F9722A3DAAFE3B4186F6B6457E0 PUSH1 0x40 MLOAD PUSH1 0x40 MLOAD DUP1 SWAP2 SUB SWAP1 LOG3 POP POP JUMP JUMPDEST PUSH1 0x0 PUSH20 0xFFFFFFFFFFFFFFFFFFFFFFFFFFFFFFFFFFFFFFFF AND DUP5 PUSH20 0xFFFFFFFFFFFFFFFFFFFFFFFFFFFFFFFFFFFFFFFF AND SUB PUSH2 0x15FE JUMPI PUSH1 0x40 MLOAD PUSH32 0x8C379A000000000000000000000000000000000000000000000000000000000 DUP2 MSTORE PUSH1 0x4 ADD PUSH2 0x15F5 SWAP1 PUSH2 0x358B JUMP JUMPDEST PUSH1 0x40 MLOAD DUP1 SWAP2 SUB SWAP1 REVERT JUMPDEST PUSH1 0x0 PUSH2 0x1608 PUSH2 0xED2 JUMP JUMPDEST SWAP1 POP PUSH1 0x0 PUSH2 0x1615 DUP6 PUSH2 0x20D4 JUMP JUMPDEST SWAP1 POP PUSH1 0x0 PUSH2 0x1622 DUP6 PUSH2 0x20D4 JUMP JUMPDEST SWAP1 POP PUSH2 0x1633 DUP4 PUSH1 0x0 DUP10 DUP6 DUP6 DUP10 PUSH2 0x1EDF JUMP JUMPDEST DUP5 PUSH1 0x0 DUP1 DUP9 DUP2 MSTORE PUSH1 0x20 ADD SWAP1 DUP2 MSTORE PUSH1 0x20 ADD PUSH1 0x0 KECCAK256 PUSH1 0x0 DUP10 PUSH20 0xFFFFFFFFFFFFFFFFFFFFFFFFFFFFFFFFFFFFFFFF AND PUSH20 0xFFFFFFFFFFFFFFFFFFFFFFFFFFFFFFFFFFFFFFFF AND DUP2 MSTORE PUSH1 0x20 ADD SWAP1 DUP2 MSTORE PUSH1 0x20 ADD PUSH1 0x0 KECCAK256 PUSH1 0x0 DUP3 DUP3 SLOAD PUSH2 0x1692 SWAP2 SWAP1 PUSH2 0x363D JUMP JUMPDEST SWAP3 POP POP DUP2 SWAP1 SSTORE POP DUP7 PUSH20 0xFFFFFFFFFFFFFFFFFFFFFFFFFFFFFFFFFFFFFFFF AND PUSH1 0x0 PUSH20 0xFFFFFFFFFFFFFFFFFFFFFFFFFFFFFFFFFFFFFFFF AND DUP5 PUSH20 0xFFFFFFFFFFFFFFFFFFFFFFFFFFFFFFFFFFFFFFFF AND PUSH32 0xC3D58168C5AE7397731D063D5BBF3D657854427343F4C083240F7AACAA2D0F62 DUP10 DUP10 PUSH1 0x40 MLOAD PUSH2 0x1710 SWAP3 SWAP2 SWAP1 PUSH2 0x38F0 JUMP JUMPDEST PUSH1 0x40 MLOAD DUP1 SWAP2 SUB SWAP1 LOG4 PUSH2 0x1727 DUP4 PUSH1 0x0 DUP10 DUP6 DUP6 DUP10 PUSH2 0x1EF5 JUMP JUMPDEST PUSH2 0x1736 DUP4 PUSH1 0x0 DUP10 DUP10 DUP10 DUP10 PUSH2 0x214E JUMP JUMPDEST POP POP POP POP POP POP POP JUMP JUMPDEST DUP2 PUSH20 0xFFFFFFFFFFFFFFFFFFFFFFFFFFFFFFFFFFFFFFFF AND DUP4 PUSH20 0xFFFFFFFFFFFFFFFFFFFFFFFFFFFFFFFFFFFFFFFF AND SUB PUSH2 0x17AD JUMPI PUSH1 0x40 MLOAD PUSH32 0x8C379A000000000000000000000000000000000000000000000000000000000 DUP2 MSTORE PUSH1 0x4 ADD PUSH2 0x17A4 SWAP1 PUSH2 0x398B JUMP JUMPDEST PUSH1 0x40 MLOAD DUP1 SWAP2 SUB SWAP1 REVERT JUMPDEST DUP1 PUSH1 0x1 PUSH1 0x0 DUP6 PUSH20 0xFFFFFFFFFFFFFFFFFFFFFFFFFFFFFFFFFFFFFFFF AND PUSH20 0xFFFFFFFFFFFFFFFFFFFFFFFFFFFFFFFFFFFFFFFF AND DUP2 MSTORE PUSH1 0x20 ADD SWAP1 DUP2 MSTORE PUSH1 0x20 ADD PUSH1 0x0 KECCAK256 PUSH1 0x0 DUP5 PUSH20 0xFFFFFFFFFFFFFFFFFFFFFFFFFFFFFFFFFFFFFFFF AND PUSH20 0xFFFFFFFFFFFFFFFFFFFFFFFFFFFFFFFFFFFFFFFF AND DUP2 MSTORE PUSH1 0x20 ADD SWAP1 DUP2 MSTORE PUSH1 0x20 ADD PUSH1 0x0 KECCAK256 PUSH1 0x0 PUSH2 0x100 EXP DUP2 SLOAD DUP2 PUSH1 0xFF MUL NOT AND SWAP1 DUP4 ISZERO ISZERO MUL OR SWAP1 SSTORE POP DUP2 PUSH20 0xFFFFFFFFFFFFFFFFFFFFFFFFFFFFFFFFFFFFFFFF AND DUP4 PUSH20 0xFFFFFFFFFFFFFFFFFFFFFFFFFFFFFFFFFFFFFFFF AND PUSH32 0x17307EAB39AB6107E8899845AD3D59BD9653F200F220920489CA2B5937696C31 DUP4 PUSH1 0x40 MLOAD PUSH2 0x189E SWAP2 SWAP1 PUSH2 0x26D2 JUMP JUMPDEST PUSH1 0x40 MLOAD DUP1 SWAP2 SUB SWAP1 LOG3 POP POP POP JUMP JUMPDEST PUSH1 0x0 PUSH20 0xFFFFFFFFFFFFFFFFFFFFFFFFFFFFFFFFFFFFFFFF AND DUP5 PUSH20 0xFFFFFFFFFFFFFFFFFFFFFFFFFFFFFFFFFFFFFFFF AND SUB PUSH2 0x191A JUMPI PUSH1 0x40 MLOAD PUSH32 0x8C379A000000000000000000000000000000000000000000000000000000000 DUP2 MSTORE PUSH1 0x4 ADD PUSH2 0x1911 SWAP1 PUSH2 0x371A JUMP JUMPDEST PUSH1 0x40 MLOAD DUP1 SWAP2 SUB SWAP1 REVERT JUMPDEST PUSH1 0x0 PUSH2 0x1924 PUSH2 0xED2 JUMP JUMPDEST SWAP1 POP PUSH1 0x0 PUSH2 0x1931 DUP6 PUSH2 0x20D4 JUMP JUMPDEST SWAP1 POP PUSH1 0x0 PUSH2 0x193E DUP6 PUSH2 0x20D4 JUMP JUMPDEST SWAP1 POP PUSH2 0x194E DUP4 DUP10 DUP10 DUP6 DUP6 DUP10 PUSH2 0x1EDF JUMP JUMPDEST PUSH1 0x0 DUP1 PUSH1 0x0 DUP9 DUP2 MSTORE PUSH1 0x20 ADD SWAP1 DUP2 MSTORE PUSH1 0x20 ADD PUSH1 0x0 KECCAK256 PUSH1 0x0 DUP11 PUSH20 0xFFFFFFFFFFFFFFFFFFFFFFFFFFFFFFFFFFFFFFFF AND PUSH20 0xFFFFFFFFFFFFFFFFFFFFFFFFFFFFFFFFFFFFFFFF AND DUP2 MSTORE PUSH1 0x20 ADD SWAP1 DUP2 MSTORE PUSH1 0x20 ADD PUSH1 0x0 KECCAK256 SLOAD SWAP1 POP DUP6 DUP2 LT ISZERO PUSH2 0x19E5 JUMPI PUSH1 0x40 MLOAD PUSH32 0x8C379A000000000000000000000000000000000000000000000000000000000 DUP2 MSTORE PUSH1 0x4 ADD PUSH2 0x19DC SWAP1 PUSH2 0x37AC JUMP JUMPDEST PUSH1 0x40 MLOAD DUP1 SWAP2 SUB SWAP1 REVERT JUMPDEST DUP6 DUP2 SUB PUSH1 0x0 DUP1 DUP10 DUP2 MSTORE PUSH1 0x20 ADD SWAP1 DUP2 MSTORE PUSH1 0x20 ADD PUSH1 0x0 KECCAK256 PUSH1 0x0 DUP12 PUSH20 0xFFFFFFFFFFFFFFFFFFFFFFFFFFFFFFFFFFFFFFFF AND PUSH20 0xFFFFFFFFFFFFFFFFFFFFFFFFFFFFFFFFFFFFFFFF AND DUP2 MSTORE PUSH1 0x20 ADD SWAP1 DUP2 MSTORE PUSH1 0x20 ADD PUSH1 0x0 KECCAK256 DUP2 SWAP1 SSTORE POP DUP6 PUSH1 0x0 DUP1 DUP10 DUP2 MSTORE PUSH1 0x20 ADD SWAP1 DUP2 MSTORE PUSH1 0x20 ADD PUSH1 0x0 KECCAK256 PUSH1 0x0 DUP11 PUSH20 0xFFFFFFFFFFFFFFFFFFFFFFFFFFFFFFFFFFFFFFFF AND PUSH20 0xFFFFFFFFFFFFFFFFFFFFFFFFFFFFFFFFFFFFFFFF AND DUP2 MSTORE PUSH1 0x20 ADD SWAP1 DUP2 MSTORE PUSH1 0x20 ADD PUSH1 0x0 KECCAK256 PUSH1 0x0 DUP3 DUP3 SLOAD PUSH2 0x1A9A SWAP2 SWAP1 PUSH2 0x363D JUMP JUMPDEST SWAP3 POP POP DUP2 SWAP1 SSTORE POP DUP8 PUSH20 0xFFFFFFFFFFFFFFFFFFFFFFFFFFFFFFFFFFFFFFFF AND DUP10 PUSH20 0xFFFFFFFFFFFFFFFFFFFFFFFFFFFFFFFFFFFFFFFF AND DUP6 PUSH20 0xFFFFFFFFFFFFFFFFFFFFFFFFFFFFFFFFFFFFFFFF AND PUSH32 0xC3D58168C5AE7397731D063D5BBF3D657854427343F4C083240F7AACAA2D0F62 DUP11 DUP11 PUSH1 0x40 MLOAD PUSH2 0x1B17 SWAP3 SWAP2 SWAP1 PUSH2 0x38F0 JUMP JUMPDEST PUSH1 0x40 MLOAD DUP1 SWAP2 SUB SWAP1 LOG4 PUSH2 0x1B2D DUP5 DUP11 DUP11 DUP7 DUP7 DUP11 PUSH2 0x1EF5 JUMP JUMPDEST PUSH2 0x1B3B DUP5 DUP11 DUP11 DUP11 DUP11 DUP11 PUSH2 0x214E JUMP JUMPDEST POP POP POP POP POP POP POP POP POP JUMP JUMPDEST PUSH1 0x0 PUSH20 0xFFFFFFFFFFFFFFFFFFFFFFFFFFFFFFFFFFFFFFFF AND DUP4 PUSH20 0xFFFFFFFFFFFFFFFFFFFFFFFFFFFFFFFFFFFFFFFF AND SUB PUSH2 0x1BB5 JUMPI PUSH1 0x40 MLOAD PUSH32 0x8C379A000000000000000000000000000000000000000000000000000000000 DUP2 MSTORE PUSH1 0x4 ADD PUSH2 0x1BAC SWAP1 PUSH2 0x383E JUMP JUMPDEST PUSH1 0x40 MLOAD DUP1 SWAP2 SUB SWAP1 REVERT JUMPDEST PUSH1 0x0 PUSH2 0x1BBF PUSH2 0xED2 JUMP JUMPDEST SWAP1 POP PUSH1 0x0 PUSH2 0x1BCC DUP5 PUSH2 0x20D4 JUMP JUMPDEST SWAP1 POP PUSH1 0x0 PUSH2 0x1BD9 DUP5 PUSH2 0x20D4 JUMP JUMPDEST SWAP1 POP PUSH2 0x1BF9 DUP4 DUP8 PUSH1 0x0 DUP6 DUP6 PUSH1 0x40 MLOAD DUP1 PUSH1 0x20 ADD PUSH1 0x40 MSTORE DUP1 PUSH1 0x0 DUP2 MSTORE POP PUSH2 0x1EDF JUMP JUMPDEST PUSH1 0x0 DUP1 PUSH1 0x0 DUP8 DUP2 MSTORE PUSH1 0x20 ADD SWAP1 DUP2 MSTORE PUSH1 0x20 ADD PUSH1 0x0 KECCAK256 PUSH1 0x0 DUP9 PUSH20 0xFFFFFFFFFFFFFFFFFFFFFFFFFFFFFFFFFFFFFFFF AND PUSH20 0xFFFFFFFFFFFFFFFFFFFFFFFFFFFFFFFFFFFFFFFF AND DUP2 MSTORE PUSH1 0x20 ADD SWAP1 DUP2 MSTORE PUSH1 0x20 ADD PUSH1 0x0 KECCAK256 SLOAD SWAP1 POP DUP5 DUP2 LT ISZERO PUSH2 0x1C90 JUMPI PUSH1 0x40 MLOAD PUSH32 0x8C379A000000000000000000000000000000000000000000000000000000000 DUP2 MSTORE PUSH1 0x4 ADD PUSH2 0x1C87 SWAP1 PUSH2 0x38D0 JUMP JUMPDEST PUSH1 0x40 MLOAD DUP1 SWAP2 SUB SWAP1 REVERT JUMPDEST DUP5 DUP2 SUB PUSH1 0x0 DUP1 DUP9 DUP2 MSTORE PUSH1 0x20 ADD SWAP1 DUP2 MSTORE PUSH1 0x20 ADD PUSH1 0x0 KECCAK256 PUSH1 0x0 DUP10 PUSH20 0xFFFFFFFFFFFFFFFFFFFFFFFFFFFFFFFFFFFFFFFF AND PUSH20 0xFFFFFFFFFFFFFFFFFFFFFFFFFFFFFFFFFFFFFFFF AND DUP2 MSTORE PUSH1 0x20 ADD SWAP1 DUP2 MSTORE PUSH1 0x20 ADD PUSH1 0x0 KECCAK256 DUP2 SWAP1 SSTORE POP PUSH1 0x0 PUSH20 0xFFFFFFFFFFFFFFFFFFFFFFFFFFFFFFFFFFFFFFFF AND DUP8 PUSH20 0xFFFFFFFFFFFFFFFFFFFFFFFFFFFFFFFFFFFFFFFF AND DUP6 PUSH20 0xFFFFFFFFFFFFFFFFFFFFFFFFFFFFFFFFFFFFFFFF AND PUSH32 0xC3D58168C5AE7397731D063D5BBF3D657854427343F4C083240F7AACAA2D0F62 DUP10 DUP10 PUSH1 0x40 MLOAD PUSH2 0x1D5D SWAP3 SWAP2 SWAP1 PUSH2 0x38F0 JUMP JUMPDEST PUSH1 0x40 MLOAD DUP1 SWAP2 SUB SWAP1 LOG4 PUSH2 0x1D83 DUP5 DUP9 PUSH1 0x0 DUP7 DUP7 PUSH1 0x40 MLOAD DUP1 PUSH1 0x20 ADD PUSH1 0x40 MSTORE DUP1 PUSH1 0x0 DUP2 MSTORE POP PUSH2 0x1EF5 JUMP JUMPDEST POP POP POP POP POP POP POP JUMP JUMPDEST PUSH1 0x0 DUP1 PUSH1 0x0 SWAP1 POP PUSH27 0x184F03E93FF9F4DAA797ED6E38ED64BF6A1F010000000000000000 DUP4 LT PUSH2 0x1DEA JUMPI PUSH27 0x184F03E93FF9F4DAA797ED6E38ED64BF6A1F010000000000000000 DUP4 DUP2 PUSH2 0x1DE0 JUMPI PUSH2 0x1DDF PUSH2 0x347E JUMP JUMPDEST JUMPDEST DIV SWAP3 POP PUSH1 0x40 DUP2 ADD SWAP1 POP JUMPDEST PUSH14 0x4EE2D6D415B85ACEF8100000000 DUP4 LT PUSH2 0x1E27 JUMPI PUSH14 0x4EE2D6D415B85ACEF8100000000 DUP4 DUP2 PUSH2 0x1E1D JUMPI PUSH2 0x1E1C PUSH2 0x347E JUMP JUMPDEST JUMPDEST DIV SWAP3 POP PUSH1 0x20 DUP2 ADD SWAP1 POP JUMPDEST PUSH7 0x2386F26FC10000 DUP4 LT PUSH2 0x1E56 JUMPI PUSH7 0x2386F26FC10000 DUP4 DUP2 PUSH2 0x1E4C JUMPI PUSH2 0x1E4B PUSH2 0x347E JUMP JUMPDEST JUMPDEST DIV SWAP3 POP PUSH1 0x10 DUP2 ADD SWAP1 POP JUMPDEST PUSH4 0x5F5E100 DUP4 LT PUSH2 0x1E7F JUMPI PUSH4 0x5F5E100 DUP4 DUP2 PUSH2 0x1E75 JUMPI PUSH2 0x1E74 PUSH2 0x347E JUMP JUMPDEST JUMPDEST DIV SWAP3 POP PUSH1 0x8 DUP2 ADD SWAP1 POP JUMPDEST PUSH2 0x2710 DUP4 LT PUSH2 0x1EA4 JUMPI PUSH2 0x2710 DUP4 DUP2 PUSH2 0x1E9A JUMPI PUSH2 0x1E99 PUSH2 0x347E JUMP JUMPDEST JUMPDEST DIV SWAP3 POP PUSH1 0x4 DUP2 ADD SWAP1 POP JUMPDEST PUSH1 0x64 DUP4 LT PUSH2 0x1EC7 JUMPI PUSH1 0x64 DUP4 DUP2 PUSH2 0x1EBD JUMPI PUSH2 0x1EBC PUSH2 0x347E JUMP JUMPDEST JUMPDEST DIV SWAP3 POP PUSH1 0x2 DUP2 ADD SWAP1 POP JUMPDEST PUSH1 0xA DUP4 LT PUSH2 0x1ED6 JUMPI PUSH1 0x1 DUP2 ADD SWAP1 POP JUMPDEST DUP1 SWAP2 POP POP SWAP2 SWAP1 POP JUMP JUMPDEST PUSH2 0x1EED DUP7 DUP7 DUP7 DUP7 DUP7 DUP7 PUSH2 0x2325 JUMP JUMPDEST POP POP POP POP POP POP JUMP JUMPDEST POP POP POP POP POP POP JUMP JUMPDEST PUSH2 0x1F1C DUP5 PUSH20 0xFFFFFFFFFFFFFFFFFFFFFFFFFFFFFFFFFFFFFFFF AND PUSH2 0x24F5 JUMP JUMPDEST ISZERO PUSH2 0x20CC JUMPI DUP4 PUSH20 0xFFFFFFFFFFFFFFFFFFFFFFFFFFFFFFFFFFFFFFFF AND PUSH4 0xBC197C81 DUP8 DUP8 DUP7 DUP7 DUP7 PUSH1 0x40 MLOAD DUP7 PUSH4 0xFFFFFFFF AND PUSH1 0xE0 SHL DUP2 MSTORE PUSH1 0x4 ADD PUSH2 0x1F62 SWAP6 SWAP5 SWAP4 SWAP3 SWAP2 SWAP1 PUSH2 0x3A00 JUMP JUMPDEST PUSH1 0x20 PUSH1 0x40 MLOAD DUP1 DUP4 SUB DUP2 PUSH1 0x0 DUP8 GAS CALL SWAP3 POP POP POP DUP1 ISZERO PUSH2 0x1F9E JUMPI POP PUSH1 0x40 MLOAD RETURNDATASIZE PUSH1 0x1F NOT PUSH1 0x1F DUP3 ADD AND DUP3 ADD DUP1 PUSH1 0x40 MSTORE POP DUP2 ADD SWAP1 PUSH2 0x1F9B SWAP2 SWAP1 PUSH2 0x3A7D JUMP JUMPDEST PUSH1 0x1 JUMPDEST PUSH2 0x2043 JUMPI PUSH2 0x1FAA PUSH2 0x3AB7 JUMP JUMPDEST DUP1 PUSH4 0x8C379A0 SUB PUSH2 0x2006 JUMPI POP PUSH2 0x1FBE PUSH2 0x3AD9 JUMP JUMPDEST DUP1 PUSH2 0x1FC9 JUMPI POP PUSH2 0x2008 JUMP JUMPDEST DUP1 PUSH1 0x40 MLOAD PUSH32 0x8C379A000000000000000000000000000000000000000000000000000000000 DUP2 MSTORE PUSH1 0x4 ADD PUSH2 0x1FFD SWAP2 SWAP1 PUSH2 0x27AA JUMP JUMPDEST PUSH1 0x40 MLOAD DUP1 SWAP2 SUB SWAP1 REVERT JUMPDEST POP JUMPDEST PUSH1 0x40 MLOAD PUSH32 0x8C379A000000000000000000000000000000000000000000000000000000000 DUP2 MSTORE PUSH1 0x4 ADD PUSH2 0x203A SWAP1 PUSH2 0x3BDB JUMP JUMPDEST PUSH1 0x40 MLOAD DUP1 SWAP2 SUB SWAP1 REVERT JUMPDEST PUSH4 0xBC197C81 PUSH1 0xE0 SHL PUSH28 0xFFFFFFFFFFFFFFFFFFFFFFFFFFFFFFFFFFFFFFFFFFFFFFFFFFFFFFFF NOT AND DUP2 PUSH28 0xFFFFFFFFFFFFFFFFFFFFFFFFFFFFFFFFFFFFFFFFFFFFFFFFFFFFFFFF NOT AND EQ PUSH2 0x20CA JUMPI PUSH1 0x40 MLOAD PUSH32 0x8C379A000000000000000000000000000000000000000000000000000000000 DUP2 MSTORE PUSH1 0x4 ADD PUSH2 0x20C1 SWAP1 PUSH2 0x3C6D JUMP JUMPDEST PUSH1 0x40 MLOAD DUP1 SWAP2 SUB SWAP1 REVERT JUMPDEST POP JUMPDEST POP POP POP POP POP POP JUMP JUMPDEST PUSH1 0x60 PUSH1 0x0 PUSH1 0x1 PUSH8 0xFFFFFFFFFFFFFFFF DUP2 GT ISZERO PUSH2 0x20F3 JUMPI PUSH2 0x20F2 PUSH2 0x27D1 JUMP JUMPDEST JUMPDEST PUSH1 0x40 MLOAD SWAP1 DUP1 DUP3 MSTORE DUP1 PUSH1 0x20 MUL PUSH1 0x20 ADD DUP3 ADD PUSH1 0x40 MSTORE DUP1 ISZERO PUSH2 0x2121 JUMPI DUP2 PUSH1 0x20 ADD PUSH1 0x20 DUP3 MUL DUP1 CALLDATASIZE DUP4 CALLDATACOPY DUP1 DUP3 ADD SWAP2 POP POP SWAP1 POP JUMPDEST POP SWAP1 POP DUP3 DUP2 PUSH1 0x0 DUP2 MLOAD DUP2 LT PUSH2 0x2139 JUMPI PUSH2 0x2138 PUSH2 0x3346 JUMP JUMPDEST JUMPDEST PUSH1 0x20 MUL PUSH1 0x20 ADD ADD DUP2 DUP2 MSTORE POP POP DUP1 SWAP2 POP POP SWAP2 SWAP1 POP JUMP JUMPDEST PUSH2 0x216D DUP5 PUSH20 0xFFFFFFFFFFFFFFFFFFFFFFFFFFFFFFFFFFFFFFFF AND PUSH2 0x24F5 JUMP JUMPDEST ISZERO PUSH2 0x231D JUMPI DUP4 PUSH20 0xFFFFFFFFFFFFFFFFFFFFFFFFFFFFFFFFFFFFFFFF AND PUSH4 0xF23A6E61 DUP8 DUP8 DUP7 DUP7 DUP7 PUSH1 0x40 MLOAD DUP7 PUSH4 0xFFFFFFFF AND PUSH1 0xE0 SHL DUP2 MSTORE PUSH1 0x4 ADD PUSH2 0x21B3 SWAP6 SWAP5 SWAP4 SWAP3 SWAP2 SWAP1 PUSH2 0x3C8D JUMP JUMPDEST PUSH1 0x20 PUSH1 0x40 MLOAD DUP1 DUP4 SUB DUP2 PUSH1 0x0 DUP8 GAS CALL SWAP3 POP POP POP DUP1 ISZERO PUSH2 0x21EF JUMPI POP PUSH1 0x40 MLOAD RETURNDATASIZE PUSH1 0x1F NOT PUSH1 0x1F DUP3 ADD AND DUP3 ADD DUP1 PUSH1 0x40 MSTORE POP DUP2 ADD SWAP1 PUSH2 0x21EC SWAP2 SWAP1 PUSH2 0x3A7D JUMP JUMPDEST PUSH1 0x1 JUMPDEST PUSH2 0x2294 JUMPI PUSH2 0x21FB PUSH2 0x3AB7 JUMP JUMPDEST DUP1 PUSH4 0x8C379A0 SUB PUSH2 0x2257 JUMPI POP PUSH2 0x220F PUSH2 0x3AD9 JUMP JUMPDEST DUP1 PUSH2 0x221A JUMPI POP PUSH2 0x2259 JUMP JUMPDEST DUP1 PUSH1 0x40 MLOAD PUSH32 0x8C379A000000000000000000000000000000000000000000000000000000000 DUP2 MSTORE PUSH1 0x4 ADD PUSH2 0x224E SWAP2 SWAP1 PUSH2 0x27AA JUMP JUMPDEST PUSH1 0x40 MLOAD DUP1 SWAP2 SUB SWAP1 REVERT JUMPDEST POP JUMPDEST PUSH1 0x40 MLOAD PUSH32 0x8C379A000000000000000000000000000000000000000000000000000000000 DUP2 MSTORE PUSH1 0x4 ADD PUSH2 0x228B SWAP1 PUSH2 0x3BDB JUMP JUMPDEST PUSH1 0x40 MLOAD DUP1 SWAP2 SUB SWAP1 REVERT JUMPDEST PUSH4 0xF23A6E61 PUSH1 0xE0 SHL PUSH28 0xFFFFFFFFFFFFFFFFFFFFFFFFFFFFFFFFFFFFFFFFFFFFFFFFFFFFFFFF NOT AND DUP2 PUSH28 0xFFFFFFFFFFFFFFFFFFFFFFFFFFFFFFFFFFFFFFFFFFFFFFFFFFFFFFFF NOT AND EQ PUSH2 0x231B JUMPI PUSH1 0x40 MLOAD PUSH32 0x8C379A000000000000000000000000000000000000000000000000000000000 DUP2 MSTORE PUSH1 0x4 ADD PUSH2 0x2312 SWAP1 PUSH2 0x3C6D JUMP JUMPDEST PUSH1 0x40 MLOAD DUP1 SWAP2 SUB SWAP1 REVERT JUMPDEST POP JUMPDEST POP POP POP POP POP POP JUMP JUMPDEST PUSH2 0x2333 DUP7 DUP7 DUP7 DUP7 DUP7 DUP7 PUSH2 0x2518 JUMP JUMPDEST PUSH1 0x0 PUSH20 0xFFFFFFFFFFFFFFFFFFFFFFFFFFFFFFFFFFFFFFFF AND DUP6 PUSH20 0xFFFFFFFFFFFFFFFFFFFFFFFFFFFFFFFFFFFFFFFF AND SUB PUSH2 0x23E4 JUMPI PUSH1 0x0 JUMPDEST DUP4 MLOAD DUP2 LT ISZERO PUSH2 0x23E2 JUMPI DUP3 DUP2 DUP2 MLOAD DUP2 LT PUSH2 0x2386 JUMPI PUSH2 0x2385 PUSH2 0x3346 JUMP JUMPDEST JUMPDEST PUSH1 0x20 MUL PUSH1 0x20 ADD ADD MLOAD PUSH1 0x4 PUSH1 0x0 DUP7 DUP5 DUP2 MLOAD DUP2 LT PUSH2 0x23A5 JUMPI PUSH2 0x23A4 PUSH2 0x3346 JUMP JUMPDEST JUMPDEST PUSH1 0x20 MUL PUSH1 0x20 ADD ADD MLOAD DUP2 MSTORE PUSH1 0x20 ADD SWAP1 DUP2 MSTORE PUSH1 0x20 ADD PUSH1 0x0 KECCAK256 PUSH1 0x0 DUP3 DUP3 SLOAD PUSH2 0x23CA SWAP2 SWAP1 PUSH2 0x363D JUMP JUMPDEST SWAP3 POP POP DUP2 SWAP1 SSTORE POP DUP1 PUSH2 0x23DB SWAP1 PUSH2 0x33A4 JUMP JUMPDEST SWAP1 POP PUSH2 0x236A JUMP JUMPDEST POP JUMPDEST PUSH1 0x0 PUSH20 0xFFFFFFFFFFFFFFFFFFFFFFFFFFFFFFFFFFFFFFFF AND DUP5 PUSH20 0xFFFFFFFFFFFFFFFFFFFFFFFFFFFFFFFFFFFFFFFF AND SUB PUSH2 0x24ED JUMPI PUSH1 0x0 JUMPDEST DUP4 MLOAD DUP2 LT ISZERO PUSH2 0x24EB JUMPI PUSH1 0x0 DUP5 DUP3 DUP2 MLOAD DUP2 LT PUSH2 0x2439 JUMPI PUSH2 0x2438 PUSH2 0x3346 JUMP JUMPDEST JUMPDEST PUSH1 0x20 MUL PUSH1 0x20 ADD ADD MLOAD SWAP1 POP PUSH1 0x0 DUP5 DUP4 DUP2 MLOAD DUP2 LT PUSH2 0x2458 JUMPI PUSH2 0x2457 PUSH2 0x3346 JUMP JUMPDEST JUMPDEST PUSH1 0x20 MUL PUSH1 0x20 ADD ADD MLOAD SWAP1 POP PUSH1 0x0 PUSH1 0x4 PUSH1 0x0 DUP5 DUP2 MSTORE PUSH1 0x20 ADD SWAP1 DUP2 MSTORE PUSH1 0x20 ADD PUSH1 0x0 KECCAK256 SLOAD SWAP1 POP DUP2 DUP2 LT ISZERO PUSH2 0x24BD JUMPI PUSH1 0x40 MLOAD PUSH32 0x8C379A000000000000000000000000000000000000000000000000000000000 DUP2 MSTORE PUSH1 0x4 ADD PUSH2 0x24B4 SWAP1 PUSH2 0x3D59 JUMP JUMPDEST PUSH1 0x40 MLOAD DUP1 SWAP2 SUB SWAP1 REVERT JUMPDEST DUP2 DUP2 SUB PUSH1 0x4 PUSH1 0x0 DUP6 DUP2 MSTORE PUSH1 0x20 ADD SWAP1 DUP2 MSTORE PUSH1 0x20 ADD PUSH1 0x0 KECCAK256 DUP2 SWAP1 SSTORE POP POP POP POP DUP1 PUSH2 0x24E4 SWAP1 PUSH2 0x33A4 JUMP JUMPDEST SWAP1 POP PUSH2 0x241B JUMP JUMPDEST POP JUMPDEST POP POP POP POP POP POP JUMP JUMPDEST PUSH1 0x0 DUP1 DUP3 PUSH20 0xFFFFFFFFFFFFFFFFFFFFFFFFFFFFFFFFFFFFFFFF AND EXTCODESIZE GT SWAP1 POP SWAP2 SWAP1 POP JUMP JUMPDEST POP POP POP POP POP POP JUMP JUMPDEST PUSH1 0x0 PUSH1 0x40 MLOAD SWAP1 POP SWAP1 JUMP JUMPDEST PUSH1 0x0 DUP1 REVERT JUMPDEST PUSH1 0x0 DUP1 REVERT JUMPDEST PUSH1 0x0 PUSH20 0xFFFFFFFFFFFFFFFFFFFFFFFFFFFFFFFFFFFFFFFF DUP3 AND SWAP1 POP SWAP2 SWAP1 POP JUMP JUMPDEST PUSH1 0x0 PUSH2 0x255F DUP3 PUSH2 0x2534 JUMP JUMPDEST SWAP1 POP SWAP2 SWAP1 POP JUMP JUMPDEST PUSH2 0x256F DUP2 PUSH2 0x2554 JUMP JUMPDEST DUP2 EQ PUSH2 0x257A JUMPI PUSH1 0x0 DUP1 REVERT JUMPDEST POP JUMP JUMPDEST PUSH1 0x0 DUP2 CALLDATALOAD SWAP1 POP PUSH2 0x258C DUP2 PUSH2 0x2566 JUMP JUMPDEST SWAP3 SWAP2 POP POP JUMP JUMPDEST PUSH1 0x0 DUP2 SWAP1 POP SWAP2 SWAP1 POP JUMP JUMPDEST PUSH2 0x25A5 DUP2 PUSH2 0x2592 JUMP JUMPDEST DUP2 EQ PUSH2 0x25B0 JUMPI PUSH1 0x0 DUP1 REVERT JUMPDEST POP JUMP JUMPDEST PUSH1 0x0 DUP2 CALLDATALOAD SWAP1 POP PUSH2 0x25C2 DUP2 PUSH2 0x259C JUMP JUMPDEST SWAP3 SWAP2 POP POP JUMP JUMPDEST PUSH1 0x0 DUP1 PUSH1 0x40 DUP4 DUP6 SUB SLT ISZERO PUSH2 0x25DF JUMPI PUSH2 0x25DE PUSH2 0x252A JUMP JUMPDEST JUMPDEST PUSH1 0x0 PUSH2 0x25ED DUP6 DUP3 DUP7 ADD PUSH2 0x257D JUMP JUMPDEST SWAP3 POP POP PUSH1 0x20 PUSH2 0x25FE DUP6 DUP3 DUP7 ADD PUSH2 0x25B3 JUMP JUMPDEST SWAP2 POP POP SWAP3 POP SWAP3 SWAP1 POP JUMP JUMPDEST PUSH2 0x2611 DUP2 PUSH2 0x2592 JUMP JUMPDEST DUP3 MSTORE POP POP JUMP JUMPDEST PUSH1 0x0 PUSH1 0x20 DUP3 ADD SWAP1 POP PUSH2 0x262C PUSH1 0x0 DUP4 ADD DUP5 PUSH2 0x2608 JUMP JUMPDEST SWAP3 SWAP2 POP POP JUMP JUMPDEST PUSH1 0x0 PUSH32 0xFFFFFFFF00000000000000000000000000000000000000000000000000000000 DUP3 AND SWAP1 POP SWAP2 SWAP1 POP JUMP JUMPDEST PUSH2 0x2667 DUP2 PUSH2 0x2632 JUMP JUMPDEST DUP2 EQ PUSH2 0x2672 JUMPI PUSH1 0x0 DUP1 REVERT JUMPDEST POP JUMP JUMPDEST PUSH1 0x0 DUP2 CALLDATALOAD SWAP1 POP PUSH2 0x2684 DUP2 PUSH2 0x265E JUMP JUMPDEST SWAP3 SWAP2 POP POP JUMP JUMPDEST PUSH1 0x0 PUSH1 0x20 DUP3 DUP5 SUB SLT ISZERO PUSH2 0x26A0 JUMPI PUSH2 0x269F PUSH2 0x252A JUMP JUMPDEST JUMPDEST PUSH1 0x0 PUSH2 0x26AE DUP5 DUP3 DUP6 ADD PUSH2 0x2675 JUMP JUMPDEST SWAP2 POP POP SWAP3 SWAP2 POP POP JUMP JUMPDEST PUSH1 0x0 DUP2 ISZERO ISZERO SWAP1 POP SWAP2 SWAP1 POP JUMP JUMPDEST PUSH2 0x26CC DUP2 PUSH2 0x26B7 JUMP JUMPDEST DUP3 MSTORE POP POP JUMP JUMPDEST PUSH1 0x0 PUSH1 0x20 DUP3 ADD SWAP1 POP PUSH2 0x26E7 PUSH1 0x0 DUP4 ADD DUP5 PUSH2 0x26C3 JUMP JUMPDEST SWAP3 SWAP2 POP POP JUMP JUMPDEST PUSH1 0x0 PUSH1 0x20 DUP3 DUP5 SUB SLT ISZERO PUSH2 0x2703 JUMPI PUSH2 0x2702 PUSH2 0x252A JUMP JUMPDEST JUMPDEST PUSH1 0x0 PUSH2 0x2711 DUP5 DUP3 DUP6 ADD PUSH2 0x25B3 JUMP JUMPDEST SWAP2 POP POP SWAP3 SWAP2 POP POP JUMP JUMPDEST PUSH1 0x0 DUP2 MLOAD SWAP1 POP SWAP2 SWAP1 POP JUMP JUMPDEST PUSH1 0x0 DUP3 DUP3 MSTORE PUSH1 0x20 DUP3 ADD SWAP1 POP SWAP3 SWAP2 POP POP JUMP JUMPDEST PUSH1 0x0 JUMPDEST DUP4 DUP2 LT ISZERO PUSH2 0x2754 JUMPI DUP1 DUP3 ADD MLOAD DUP2 DUP5 ADD MSTORE PUSH1 0x20 DUP2 ADD SWAP1 POP PUSH2 0x2739 JUMP JUMPDEST PUSH1 0x0 DUP5 DUP5 ADD MSTORE POP POP POP POP JUMP JUMPDEST PUSH1 0x0 PUSH1 0x1F NOT PUSH1 0x1F DUP4 ADD AND SWAP1 POP SWAP2 SWAP1 POP JUMP JUMPDEST PUSH1 0x0 PUSH2 0x277C DUP3 PUSH2 0x271A JUMP JUMPDEST PUSH2 0x2786 DUP2 DUP6 PUSH2 0x2725 JUMP JUMPDEST SWAP4 POP PUSH2 0x2796 DUP2 DUP6 PUSH1 0x20 DUP7 ADD PUSH2 0x2736 JUMP JUMPDEST PUSH2 0x279F DUP2 PUSH2 0x2760 JUMP JUMPDEST DUP5 ADD SWAP2 POP POP SWAP3 SWAP2 POP POP JUMP JUMPDEST PUSH1 0x0 PUSH1 0x20 DUP3 ADD SWAP1 POP DUP2 DUP2 SUB PUSH1 0x0 DUP4 ADD MSTORE PUSH2 0x27C4 DUP2 DUP5 PUSH2 0x2771 JUMP JUMPDEST SWAP1 POP SWAP3 SWAP2 POP POP JUMP JUMPDEST PUSH1 0x0 DUP1 REVERT JUMPDEST PUSH32 0x4E487B7100000000000000000000000000000000000000000000000000000000 PUSH1 0x0 MSTORE PUSH1 0x41 PUSH1 0x4 MSTORE PUSH1 0x24 PUSH1 0x0 REVERT JUMPDEST PUSH2 0x2809 DUP3 PUSH2 0x2760 JUMP JUMPDEST DUP2 ADD DUP2 DUP2 LT PUSH8 0xFFFFFFFFFFFFFFFF DUP3 GT OR ISZERO PUSH2 0x2828 JUMPI PUSH2 0x2827 PUSH2 0x27D1 JUMP JUMPDEST JUMPDEST DUP1 PUSH1 0x40 MSTORE POP POP POP JUMP JUMPDEST PUSH1 0x0 PUSH2 0x283B PUSH2 0x2520 JUMP JUMPDEST SWAP1 POP PUSH2 0x2847 DUP3 DUP3 PUSH2 0x2800 JUMP JUMPDEST SWAP2 SWAP1 POP JUMP JUMPDEST PUSH1 0x0 PUSH8 0xFFFFFFFFFFFFFFFF DUP3 GT ISZERO PUSH2 0x2867 JUMPI PUSH2 0x2866 PUSH2 0x27D1 JUMP JUMPDEST JUMPDEST PUSH1 0x20 DUP3 MUL SWAP1 POP PUSH1 0x20 DUP2 ADD SWAP1 POP SWAP2 SWAP1 POP JUMP JUMPDEST PUSH1 0x0 DUP1 REVERT JUMPDEST PUSH1 0x0 PUSH2 0x2890 PUSH2 0x288B DUP5 PUSH2 0x284C JUMP JUMPDEST PUSH2 0x2831 JUMP JUMPDEST SWAP1 POP DUP1 DUP4 DUP3 MSTORE PUSH1 0x20 DUP3 ADD SWAP1 POP PUSH1 0x20 DUP5 MUL DUP4 ADD DUP6 DUP2 GT ISZERO PUSH2 0x28B3 JUMPI PUSH2 0x28B2 PUSH2 0x2878 JUMP JUMPDEST JUMPDEST DUP4 JUMPDEST DUP2 DUP2 LT ISZERO PUSH2 0x28DC JUMPI DUP1 PUSH2 0x28C8 DUP9 DUP3 PUSH2 0x25B3 JUMP JUMPDEST DUP5 MSTORE PUSH1 0x20 DUP5 ADD SWAP4 POP POP PUSH1 0x20 DUP2 ADD SWAP1 POP PUSH2 0x28B5 JUMP JUMPDEST POP POP POP SWAP4 SWAP3 POP POP POP JUMP JUMPDEST PUSH1 0x0 DUP3 PUSH1 0x1F DUP4 ADD SLT PUSH2 0x28FB JUMPI PUSH2 0x28FA PUSH2 0x27CC JUMP JUMPDEST JUMPDEST DUP2 CALLDATALOAD PUSH2 0x290B DUP5 DUP3 PUSH1 0x20 DUP7 ADD PUSH2 0x287D JUMP JUMPDEST SWAP2 POP POP SWAP3 SWAP2 POP POP JUMP JUMPDEST PUSH1 0x0 DUP1 REVERT JUMPDEST PUSH1 0x0 PUSH8 0xFFFFFFFFFFFFFFFF DUP3 GT ISZERO PUSH2 0x2934 JUMPI PUSH2 0x2933 PUSH2 0x27D1 JUMP JUMPDEST JUMPDEST PUSH2 0x293D DUP3 PUSH2 0x2760 JUMP JUMPDEST SWAP1 POP PUSH1 0x20 DUP2 ADD SWAP1 POP SWAP2 SWAP1 POP JUMP JUMPDEST DUP3 DUP2 DUP4 CALLDATACOPY PUSH1 0x0 DUP4 DUP4 ADD MSTORE POP POP POP JUMP JUMPDEST PUSH1 0x0 PUSH2 0x296C PUSH2 0x2967 DUP5 PUSH2 0x2919 JUMP JUMPDEST PUSH2 0x2831 JUMP JUMPDEST SWAP1 POP DUP3 DUP2 MSTORE PUSH1 0x20 DUP2 ADD DUP5 DUP5 DUP5 ADD GT ISZERO PUSH2 0x2988 JUMPI PUSH2 0x2987 PUSH2 0x2914 JUMP JUMPDEST JUMPDEST PUSH2 0x2993 DUP5 DUP3 DUP6 PUSH2 0x294A JUMP JUMPDEST POP SWAP4 SWAP3 POP POP POP JUMP JUMPDEST PUSH1 0x0 DUP3 PUSH1 0x1F DUP4 ADD SLT PUSH2 0x29B0 JUMPI PUSH2 0x29AF PUSH2 0x27CC JUMP JUMPDEST JUMPDEST DUP2 CALLDATALOAD PUSH2 0x29C0 DUP5 DUP3 PUSH1 0x20 DUP7 ADD PUSH2 0x2959 JUMP JUMPDEST SWAP2 POP POP SWAP3 SWAP2 POP POP JUMP JUMPDEST PUSH1 0x0 DUP1 PUSH1 0x0 DUP1 PUSH1 0x80 DUP6 DUP8 SUB SLT ISZERO PUSH2 0x29E3 JUMPI PUSH2 0x29E2 PUSH2 0x252A JUMP JUMPDEST JUMPDEST PUSH1 0x0 PUSH2 0x29F1 DUP8 DUP3 DUP9 ADD PUSH2 0x257D JUMP JUMPDEST SWAP5 POP POP PUSH1 0x20 DUP6 ADD CALLDATALOAD PUSH8 0xFFFFFFFFFFFFFFFF DUP2 GT ISZERO PUSH2 0x2A12 JUMPI PUSH2 0x2A11 PUSH2 0x252F JUMP JUMPDEST JUMPDEST PUSH2 0x2A1E DUP8 DUP3 DUP9 ADD PUSH2 0x28E6 JUMP JUMPDEST SWAP4 POP POP PUSH1 0x40 DUP6 ADD CALLDATALOAD PUSH8 0xFFFFFFFFFFFFFFFF DUP2 GT ISZERO PUSH2 0x2A3F JUMPI PUSH2 0x2A3E PUSH2 0x252F JUMP JUMPDEST JUMPDEST PUSH2 0x2A4B DUP8 DUP3 DUP9 ADD PUSH2 0x28E6 JUMP JUMPDEST SWAP3 POP POP PUSH1 0x60 DUP6 ADD CALLDATALOAD PUSH8 0xFFFFFFFFFFFFFFFF DUP2 GT ISZERO PUSH2 0x2A6C JUMPI PUSH2 0x2A6B PUSH2 0x252F JUMP JUMPDEST JUMPDEST PUSH2 0x2A78 DUP8 DUP3 DUP9 ADD PUSH2 0x299B JUMP JUMPDEST SWAP2 POP POP SWAP3 SWAP6 SWAP2 SWAP5 POP SWAP3 POP JUMP JUMPDEST PUSH1 0x0 DUP1 PUSH1 0x0 DUP1 PUSH1 0x0 PUSH1 0xA0 DUP7 DUP9 SUB SLT ISZERO PUSH2 0x2AA0 JUMPI PUSH2 0x2A9F PUSH2 0x252A JUMP JUMPDEST JUMPDEST PUSH1 0x0 PUSH2 0x2AAE DUP9 DUP3 DUP10 ADD PUSH2 0x257D JUMP JUMPDEST SWAP6 POP POP PUSH1 0x20 PUSH2 0x2ABF DUP9 DUP3 DUP10 ADD PUSH2 0x257D JUMP JUMPDEST SWAP5 POP POP PUSH1 0x40 DUP7 ADD CALLDATALOAD PUSH8 0xFFFFFFFFFFFFFFFF DUP2 GT ISZERO PUSH2 0x2AE0 JUMPI PUSH2 0x2ADF PUSH2 0x252F JUMP JUMPDEST JUMPDEST PUSH2 0x2AEC DUP9 DUP3 DUP10 ADD PUSH2 0x28E6 JUMP JUMPDEST SWAP4 POP POP PUSH1 0x60 DUP7 ADD CALLDATALOAD PUSH8 0xFFFFFFFFFFFFFFFF DUP2 GT ISZERO PUSH2 0x2B0D JUMPI PUSH2 0x2B0C PUSH2 0x252F JUMP JUMPDEST JUMPDEST PUSH2 0x2B19 DUP9 DUP3 DUP10 ADD PUSH2 0x28E6 JUMP JUMPDEST SWAP3 POP POP PUSH1 0x80 DUP7 ADD CALLDATALOAD PUSH8 0xFFFFFFFFFFFFFFFF DUP2 GT ISZERO PUSH2 0x2B3A JUMPI PUSH2 0x2B39 PUSH2 0x252F JUMP JUMPDEST JUMPDEST PUSH2 0x2B46 DUP9 DUP3 DUP10 ADD PUSH2 0x299B JUMP JUMPDEST SWAP2 POP POP SWAP3 SWAP6 POP SWAP3 SWAP6 SWAP1 SWAP4 POP JUMP JUMPDEST PUSH1 0x0 PUSH8 0xFFFFFFFFFFFFFFFF DUP3 GT ISZERO PUSH2 0x2B6E JUMPI PUSH2 0x2B6D PUSH2 0x27D1 JUMP JUMPDEST JUMPDEST PUSH1 0x20 DUP3 MUL SWAP1 POP PUSH1 0x20 DUP2 ADD SWAP1 POP SWAP2 SWAP1 POP JUMP JUMPDEST PUSH1 0x0 PUSH2 0x2B92 PUSH2 0x2B8D DUP5 PUSH2 0x2B53 JUMP JUMPDEST PUSH2 0x2831 JUMP JUMPDEST SWAP1 POP DUP1 DUP4 DUP3 MSTORE PUSH1 0x20 DUP3 ADD SWAP1 POP PUSH1 0x20 DUP5 MUL DUP4 ADD DUP6 DUP2 GT ISZERO PUSH2 0x2BB5 JUMPI PUSH2 0x2BB4 PUSH2 0x2878 JUMP JUMPDEST JUMPDEST DUP4 JUMPDEST DUP2 DUP2 LT ISZERO PUSH2 0x2BDE JUMPI DUP1 PUSH2 0x2BCA DUP9 DUP3 PUSH2 0x257D JUMP JUMPDEST DUP5 MSTORE PUSH1 0x20 DUP5 ADD SWAP4 POP POP PUSH1 0x20 DUP2 ADD SWAP1 POP PUSH2 0x2BB7 JUMP JUMPDEST POP POP POP SWAP4 SWAP3 POP POP POP JUMP JUMPDEST PUSH1 0x0 DUP3 PUSH1 0x1F DUP4 ADD SLT PUSH2 0x2BFD JUMPI PUSH2 0x2BFC PUSH2 0x27CC JUMP JUMPDEST JUMPDEST DUP2 CALLDATALOAD PUSH2 0x2C0D DUP5 DUP3 PUSH1 0x20 DUP7 ADD PUSH2 0x2B7F JUMP JUMPDEST SWAP2 POP POP SWAP3 SWAP2 POP POP JUMP JUMPDEST PUSH1 0x0 DUP1 PUSH1 0x40 DUP4 DUP6 SUB SLT ISZERO PUSH2 0x2C2D JUMPI PUSH2 0x2C2C PUSH2 0x252A JUMP JUMPDEST JUMPDEST PUSH1 0x0 DUP4 ADD CALLDATALOAD PUSH8 0xFFFFFFFFFFFFFFFF DUP2 GT ISZERO PUSH2 0x2C4B JUMPI PUSH2 0x2C4A PUSH2 0x252F JUMP JUMPDEST JUMPDEST PUSH2 0x2C57 DUP6 DUP3 DUP7 ADD PUSH2 0x2BE8 JUMP JUMPDEST SWAP3 POP POP PUSH1 0x20 DUP4 ADD CALLDATALOAD PUSH8 0xFFFFFFFFFFFFFFFF DUP2 GT ISZERO PUSH2 0x2C78 JUMPI PUSH2 0x2C77 PUSH2 0x252F JUMP JUMPDEST JUMPDEST PUSH2 0x2C84 DUP6 DUP3 DUP7 ADD PUSH2 0x28E6 JUMP JUMPDEST SWAP2 POP POP SWAP3 POP SWAP3 SWAP1 POP JUMP JUMPDEST PUSH1 0x0 DUP2 MLOAD SWAP1 POP SWAP2 SWAP1 POP JUMP JUMPDEST PUSH1 0x0 DUP3 DUP3 MSTORE PUSH1 0x20 DUP3 ADD SWAP1 POP SWAP3 SWAP2 POP POP JUMP JUMPDEST PUSH1 0x0 DUP2 SWAP1 POP PUSH1 0x20 DUP3 ADD SWAP1 POP SWAP2 SWAP1 POP JUMP JUMPDEST PUSH2 0x2CC3 DUP2 PUSH2 0x2592 JUMP JUMPDEST DUP3 MSTORE POP POP JUMP JUMPDEST PUSH1 0x0 PUSH2 0x2CD5 DUP4 DUP4 PUSH2 0x2CBA JUMP JUMPDEST PUSH1 0x20 DUP4 ADD SWAP1 POP SWAP3 SWAP2 POP POP JUMP JUMPDEST PUSH1 0x0 PUSH1 0x20 DUP3 ADD SWAP1 POP SWAP2 SWAP1 POP JUMP JUMPDEST PUSH1 0x0 PUSH2 0x2CF9 DUP3 PUSH2 0x2C8E JUMP JUMPDEST PUSH2 0x2D03 DUP2 DUP6 PUSH2 0x2C99 JUMP JUMPDEST SWAP4 POP PUSH2 0x2D0E DUP4 PUSH2 0x2CAA JUMP JUMPDEST DUP1 PUSH1 0x0 JUMPDEST DUP4 DUP2 LT ISZERO PUSH2 0x2D3F JUMPI DUP2 MLOAD PUSH2 0x2D26 DUP9 DUP3 PUSH2 0x2CC9 JUMP JUMPDEST SWAP8 POP PUSH2 0x2D31 DUP4 PUSH2 0x2CE1 JUMP JUMPDEST SWAP3 POP POP PUSH1 0x1 DUP2 ADD SWAP1 POP PUSH2 0x2D12 JUMP JUMPDEST POP DUP6 SWAP4 POP POP POP POP SWAP3 SWAP2 POP POP JUMP JUMPDEST PUSH1 0x0 PUSH1 0x20 DUP3 ADD SWAP1 POP DUP2 DUP2 SUB PUSH1 0x0 DUP4 ADD MSTORE PUSH2 0x2D66 DUP2 DUP5 PUSH2 0x2CEE JUMP JUMPDEST SWAP1 POP SWAP3 SWAP2 POP POP JUMP JUMPDEST PUSH1 0x0 DUP1 PUSH1 0x0 PUSH1 0x60 DUP5 DUP7 SUB SLT ISZERO PUSH2 0x2D87 JUMPI PUSH2 0x2D86 PUSH2 0x252A JUMP JUMPDEST JUMPDEST PUSH1 0x0 PUSH2 0x2D95 DUP7 DUP3 DUP8 ADD PUSH2 0x257D JUMP JUMPDEST SWAP4 POP POP PUSH1 0x20 DUP5 ADD CALLDATALOAD PUSH8 0xFFFFFFFFFFFFFFFF DUP2 GT ISZERO PUSH2 0x2DB6 JUMPI PUSH2 0x2DB5 PUSH2 0x252F JUMP JUMPDEST JUMPDEST PUSH2 0x2DC2 DUP7 DUP3 DUP8 ADD PUSH2 0x28E6 JUMP JUMPDEST SWAP3 POP POP PUSH1 0x40 DUP5 ADD CALLDATALOAD PUSH8 0xFFFFFFFFFFFFFFFF DUP2 GT ISZERO PUSH2 0x2DE3 JUMPI PUSH2 0x2DE2 PUSH2 0x252F JUMP JUMPDEST JUMPDEST PUSH2 0x2DEF DUP7 DUP3 DUP8 ADD PUSH2 0x28E6 JUMP JUMPDEST SWAP2 POP POP SWAP3 POP SWAP3 POP SWAP3 JUMP JUMPDEST PUSH1 0x0 DUP1 PUSH1 0x0 DUP1 PUSH1 0x80 DUP6 DUP8 SUB SLT ISZERO PUSH2 0x2E13 JUMPI PUSH2 0x2E12 PUSH2 0x252A JUMP JUMPDEST JUMPDEST PUSH1 0x0 PUSH2 0x2E21 DUP8 DUP3 DUP9 ADD PUSH2 0x257D JUMP JUMPDEST SWAP5 POP POP PUSH1 0x20 PUSH2 0x2E32 DUP8 DUP3 DUP9 ADD PUSH2 0x25B3 JUMP JUMPDEST SWAP4 POP POP PUSH1 0x40 PUSH2 0x2E43 DUP8 DUP3 DUP9 ADD PUSH2 0x25B3 JUMP JUMPDEST SWAP3 POP POP PUSH1 0x60 DUP6 ADD CALLDATALOAD PUSH8 0xFFFFFFFFFFFFFFFF DUP2 GT ISZERO PUSH2 0x2E64 JUMPI PUSH2 0x2E63 PUSH2 0x252F JUMP JUMPDEST JUMPDEST PUSH2 0x2E70 DUP8 DUP3 DUP9 ADD PUSH2 0x299B JUMP JUMPDEST SWAP2 POP POP SWAP3 SWAP6 SWAP2 SWAP5 POP SWAP3 POP JUMP JUMPDEST PUSH2 0x2E85 DUP2 PUSH2 0x2554 JUMP JUMPDEST DUP3 MSTORE POP POP JUMP JUMPDEST PUSH1 0x0 PUSH1 0x20 DUP3 ADD SWAP1 POP PUSH2 0x2EA0 PUSH1 0x0 DUP4 ADD DUP5 PUSH2 0x2E7C JUMP JUMPDEST SWAP3 SWAP2 POP POP JUMP JUMPDEST PUSH2 0x2EAF DUP2 PUSH2 0x26B7 JUMP JUMPDEST DUP2 EQ PUSH2 0x2EBA JUMPI PUSH1 0x0 DUP1 REVERT JUMPDEST POP JUMP JUMPDEST PUSH1 0x0 DUP2 CALLDATALOAD SWAP1 POP PUSH2 0x2ECC DUP2 PUSH2 0x2EA6 JUMP JUMPDEST SWAP3 SWAP2 POP POP JUMP JUMPDEST PUSH1 0x0 DUP1 PUSH1 0x40 DUP4 DUP6 SUB SLT ISZERO PUSH2 0x2EE9 JUMPI PUSH2 0x2EE8 PUSH2 0x252A JUMP JUMPDEST JUMPDEST PUSH1 0x0 PUSH2 0x2EF7 DUP6 DUP3 DUP7 ADD PUSH2 0x257D JUMP JUMPDEST SWAP3 POP POP PUSH1 0x20 PUSH2 0x2F08 DUP6 DUP3 DUP7 ADD PUSH2 0x2EBD JUMP JUMPDEST SWAP2 POP POP SWAP3 POP SWAP3 SWAP1 POP JUMP JUMPDEST PUSH1 0x0 DUP1 PUSH1 0x40 DUP4 DUP6 SUB SLT ISZERO PUSH2 0x2F29 JUMPI PUSH2 0x2F28 PUSH2 0x252A JUMP JUMPDEST JUMPDEST PUSH1 0x0 PUSH2 0x2F37 DUP6 DUP3 DUP7 ADD PUSH2 0x257D JUMP JUMPDEST SWAP3 POP POP PUSH1 0x20 PUSH2 0x2F48 DUP6 DUP3 DUP7 ADD PUSH2 0x257D JUMP JUMPDEST SWAP2 POP POP SWAP3 POP SWAP3 SWAP1 POP JUMP JUMPDEST PUSH1 0x0 DUP1 PUSH1 0x0 DUP1 PUSH1 0x0 PUSH1 0xA0 DUP7 DUP9 SUB SLT ISZERO PUSH2 0x2F6E JUMPI PUSH2 0x2F6D PUSH2 0x252A JUMP JUMPDEST JUMPDEST PUSH1 0x0 PUSH2 0x2F7C DUP9 DUP3 DUP10 ADD PUSH2 0x257D JUMP JUMPDEST SWAP6 POP POP PUSH1 0x20 PUSH2 0x2F8D DUP9 DUP3 DUP10 ADD PUSH2 0x257D JUMP JUMPDEST SWAP5 POP POP PUSH1 0x40 PUSH2 0x2F9E DUP9 DUP3 DUP10 ADD PUSH2 0x25B3 JUMP JUMPDEST SWAP4 POP POP PUSH1 0x60 PUSH2 0x2FAF DUP9 DUP3 DUP10 ADD PUSH2 0x25B3 JUMP JUMPDEST SWAP3 POP POP PUSH1 0x80 DUP7 ADD CALLDATALOAD PUSH8 0xFFFFFFFFFFFFFFFF DUP2 GT ISZERO PUSH2 0x2FD0 JUMPI PUSH2 0x2FCF PUSH2 0x252F JUMP JUMPDEST JUMPDEST PUSH2 0x2FDC DUP9 DUP3 DUP10 ADD PUSH2 0x299B JUMP JUMPDEST SWAP2 POP POP SWAP3 SWAP6 POP SWAP3 SWAP6 SWAP1 SWAP4 POP JUMP JUMPDEST PUSH1 0x0 PUSH1 0x20 DUP3 DUP5 SUB SLT ISZERO PUSH2 0x2FFF JUMPI PUSH2 0x2FFE PUSH2 0x252A JUMP JUMPDEST JUMPDEST PUSH1 0x0 PUSH2 0x300D DUP5 DUP3 DUP6 ADD PUSH2 0x257D JUMP JUMPDEST SWAP2 POP POP SWAP3 SWAP2 POP POP JUMP JUMPDEST PUSH1 0x0 DUP1 PUSH1 0x0 PUSH1 0x60 DUP5 DUP7 SUB SLT ISZERO PUSH2 0x302F JUMPI PUSH2 0x302E PUSH2 0x252A JUMP JUMPDEST JUMPDEST PUSH1 0x0 PUSH2 0x303D DUP7 DUP3 DUP8 ADD PUSH2 0x257D JUMP JUMPDEST SWAP4 POP POP PUSH1 0x20 PUSH2 0x304E DUP7 DUP3 DUP8 ADD PUSH2 0x25B3 JUMP JUMPDEST SWAP3 POP POP PUSH1 0x40 PUSH2 0x305F DUP7 DUP3 DUP8 ADD PUSH2 0x25B3 JUMP JUMPDEST SWAP2 POP POP SWAP3 POP SWAP3 POP SWAP3 JUMP JUMPDEST PUSH32 0x455243313135353A2061646472657373207A65726F206973206E6F7420612076 PUSH1 0x0 DUP3 ADD MSTORE PUSH32 0x616C6964206F776E657200000000000000000000000000000000000000000000 PUSH1 0x20 DUP3 ADD MSTORE POP JUMP JUMPDEST PUSH1 0x0 PUSH2 0x30C5 PUSH1 0x2A DUP4 PUSH2 0x2725 JUMP JUMPDEST SWAP2 POP PUSH2 0x30D0 DUP3 PUSH2 0x3069 JUMP JUMPDEST PUSH1 0x40 DUP3 ADD SWAP1 POP SWAP2 SWAP1 POP JUMP JUMPDEST PUSH1 0x0 PUSH1 0x20 DUP3 ADD SWAP1 POP DUP2 DUP2 SUB PUSH1 0x0 DUP4 ADD MSTORE PUSH2 0x30F4 DUP2 PUSH2 0x30B8 JUMP JUMPDEST SWAP1 POP SWAP2 SWAP1 POP JUMP JUMPDEST PUSH1 0x0 DUP2 SWAP1 POP SWAP3 SWAP2 POP POP JUMP JUMPDEST PUSH32 0x697066733A2F2F516D61633839735A545347764B6B795961327672786452616B PUSH1 0x0 DUP3 ADD MSTORE PUSH32 0x5052456147464A534E4A52525765747A544C51544D2F00000000000000000000 PUSH1 0x20 DUP3 ADD MSTORE POP JUMP JUMPDEST PUSH1 0x0 PUSH2 0x3162 PUSH1 0x36 DUP4 PUSH2 0x30FB JUMP JUMPDEST SWAP2 POP PUSH2 0x316D DUP3 PUSH2 0x3106 JUMP JUMPDEST PUSH1 0x36 DUP3 ADD SWAP1 POP SWAP2 SWAP1 POP JUMP JUMPDEST PUSH1 0x0 PUSH2 0x3183 DUP3 PUSH2 0x271A JUMP JUMPDEST PUSH2 0x318D DUP2 DUP6 PUSH2 0x30FB JUMP JUMPDEST SWAP4 POP PUSH2 0x319D DUP2 DUP6 PUSH1 0x20 DUP7 ADD PUSH2 0x2736 JUMP JUMPDEST DUP1 DUP5 ADD SWAP2 POP POP SWAP3 SWAP2 POP POP JUMP JUMPDEST PUSH32 0x2E6A736F6E000000000000000000000000000000000000000000000000000000 PUSH1 0x0 DUP3 ADD MSTORE POP JUMP JUMPDEST PUSH1 0x0 PUSH2 0x31DF PUSH1 0x5 DUP4 PUSH2 0x30FB JUMP JUMPDEST SWAP2 POP PUSH2 0x31EA DUP3 PUSH2 0x31A9 JUMP JUMPDEST PUSH1 0x5 DUP3 ADD SWAP1 POP SWAP2 SWAP1 POP JUMP JUMPDEST PUSH1 0x0 PUSH2 0x3200 DUP3 PUSH2 0x3155 JUMP JUMPDEST SWAP2 POP PUSH2 0x320C DUP3 DUP5 PUSH2 0x3178 JUMP JUMPDEST SWAP2 POP PUSH2 0x3217 DUP3 PUSH2 0x31D2 JUMP JUMPDEST SWAP2 POP DUP2 SWAP1 POP SWAP3 SWAP2 POP POP JUMP JUMPDEST PUSH32 0x455243313135353A2063616C6C6572206973206E6F7420746F6B656E206F776E PUSH1 0x0 DUP3 ADD MSTORE PUSH32 0x6572206F7220617070726F766564000000000000000000000000000000000000 PUSH1 0x20 DUP3 ADD MSTORE POP JUMP JUMPDEST PUSH1 0x0 PUSH2 0x327E PUSH1 0x2E DUP4 PUSH2 0x2725 JUMP JUMPDEST SWAP2 POP PUSH2 0x3289 DUP3 PUSH2 0x3222 JUMP JUMPDEST PUSH1 0x40 DUP3 ADD SWAP1 POP SWAP2 SWAP1 POP JUMP JUMPDEST PUSH1 0x0 PUSH1 0x20 DUP3 ADD SWAP1 POP DUP2 DUP2 SUB PUSH1 0x0 DUP4 ADD MSTORE PUSH2 0x32AD DUP2 PUSH2 0x3271 JUMP JUMPDEST SWAP1 POP SWAP2 SWAP1 POP JUMP JUMPDEST PUSH32 0x455243313135353A206163636F756E747320616E6420696473206C656E677468 PUSH1 0x0 DUP3 ADD MSTORE PUSH32 0x206D69736D617463680000000000000000000000000000000000000000000000 PUSH1 0x20 DUP3 ADD MSTORE POP JUMP JUMPDEST PUSH1 0x0 PUSH2 0x3310 PUSH1 0x29 DUP4 PUSH2 0x2725 JUMP JUMPDEST SWAP2 POP PUSH2 0x331B DUP3 PUSH2 0x32B4 JUMP JUMPDEST PUSH1 0x40 DUP3 ADD SWAP1 POP SWAP2 SWAP1 POP JUMP JUMPDEST PUSH1 0x0 PUSH1 0x20 DUP3 ADD SWAP1 POP DUP2 DUP2 SUB PUSH1 0x0 DUP4 ADD MSTORE PUSH2 0x333F DUP2 PUSH2 0x3303 JUMP JUMPDEST SWAP1 POP SWAP2 SWAP1 POP JUMP JUMPDEST PUSH32 0x4E487B7100000000000000000000000000000000000000000000000000000000 PUSH1 0x0 MSTORE PUSH1 0x32 PUSH1 0x4 MSTORE PUSH1 0x24 PUSH1 0x0 REVERT JUMPDEST PUSH32 0x4E487B7100000000000000000000000000000000000000000000000000000000 PUSH1 0x0 MSTORE PUSH1 0x11 PUSH1 0x4 MSTORE PUSH1 0x24 PUSH1 0x0 REVERT JUMPDEST PUSH1 0x0 PUSH2 0x33AF DUP3 PUSH2 0x2592 JUMP JUMPDEST SWAP2 POP PUSH32 0xFFFFFFFFFFFFFFFFFFFFFFFFFFFFFFFFFFFFFFFFFFFFFFFFFFFFFFFFFFFFFFFF DUP3 SUB PUSH2 0x33E1 JUMPI PUSH2 0x33E0 PUSH2 0x3375 JUMP JUMPDEST JUMPDEST PUSH1 0x1 DUP3 ADD SWAP1 POP SWAP2 SWAP1 POP JUMP JUMPDEST PUSH32 0x4F776E61626C653A206E6577206F776E657220697320746865207A65726F2061 PUSH1 0x0 DUP3 ADD MSTORE PUSH32 0x6464726573730000000000000000000000000000000000000000000000000000 PUSH1 0x20 DUP3 ADD MSTORE POP JUMP JUMPDEST PUSH1 0x0 PUSH2 0x3448 PUSH1 0x26 DUP4 PUSH2 0x2725 JUMP JUMPDEST SWAP2 POP PUSH2 0x3453 DUP3 PUSH2 0x33EC JUMP JUMPDEST PUSH1 0x40 DUP3 ADD SWAP1 POP SWAP2 SWAP1 POP JUMP JUMPDEST PUSH1 0x0 PUSH1 0x20 DUP3 ADD SWAP1 POP DUP2 DUP2 SUB PUSH1 0x0 DUP4 ADD MSTORE PUSH2 0x3477 DUP2 PUSH2 0x343B JUMP JUMPDEST SWAP1 POP SWAP2 SWAP1 POP JUMP JUMPDEST PUSH32 0x4E487B7100000000000000000000000000000000000000000000000000000000 PUSH1 0x0 MSTORE PUSH1 0x12 PUSH1 0x4 MSTORE PUSH1 0x24 PUSH1 0x0 REVERT JUMPDEST PUSH32 0x4F776E61626C653A2063616C6C6572206973206E6F7420746865206F776E6572 PUSH1 0x0 DUP3 ADD MSTORE POP JUMP JUMPDEST PUSH1 0x0 PUSH2 0x34E3 PUSH1 0x20 DUP4 PUSH2 0x2725 JUMP JUMPDEST SWAP2 POP PUSH2 0x34EE DUP3 PUSH2 0x34AD JUMP JUMPDEST PUSH1 0x20 DUP3 ADD SWAP1 POP SWAP2 SWAP1 POP JUMP JUMPDEST PUSH1 0x0 PUSH1 0x20 DUP3 ADD SWAP1 POP DUP2 DUP2 SUB PUSH1 0x0 DUP4 ADD MSTORE PUSH2 0x3512 DUP2 PUSH2 0x34D6 JUMP JUMPDEST SWAP1 POP SWAP2 SWAP1 POP JUMP JUMPDEST PUSH32 0x455243313135353A206D696E7420746F20746865207A65726F20616464726573 PUSH1 0x0 DUP3 ADD MSTORE PUSH32 0x7300000000000000000000000000000000000000000000000000000000000000 PUSH1 0x20 DUP3 ADD MSTORE POP JUMP JUMPDEST PUSH1 0x0 PUSH2 0x3575 PUSH1 0x21 DUP4 PUSH2 0x2725 JUMP JUMPDEST SWAP2 POP PUSH2 0x3580 DUP3 PUSH2 0x3519 JUMP JUMPDEST PUSH1 0x40 DUP3 ADD SWAP1 POP SWAP2 SWAP1 POP JUMP JUMPDEST PUSH1 0x0 PUSH1 0x20 DUP3 ADD SWAP1 POP DUP2 DUP2 SUB PUSH1 0x0 DUP4 ADD MSTORE PUSH2 0x35A4 DUP2 PUSH2 0x3568 JUMP JUMPDEST SWAP1 POP SWAP2 SWAP1 POP JUMP JUMPDEST PUSH32 0x455243313135353A2069647320616E6420616D6F756E7473206C656E67746820 PUSH1 0x0 DUP3 ADD MSTORE PUSH32 0x6D69736D61746368000000000000000000000000000000000000000000000000 PUSH1 0x20 DUP3 ADD MSTORE POP JUMP JUMPDEST PUSH1 0x0 PUSH2 0x3607 PUSH1 0x28 DUP4 PUSH2 0x2725 JUMP JUMPDEST SWAP2 POP PUSH2 0x3612 DUP3 PUSH2 0x35AB JUMP JUMPDEST PUSH1 0x40 DUP3 ADD SWAP1 POP SWAP2 SWAP1 POP JUMP JUMPDEST PUSH1 0x0 PUSH1 0x20 DUP3 ADD SWAP1 POP DUP2 DUP2 SUB PUSH1 0x0 DUP4 ADD MSTORE PUSH2 0x3636 DUP2 PUSH2 0x35FA JUMP JUMPDEST SWAP1 POP SWAP2 SWAP1 POP JUMP JUMPDEST PUSH1 0x0 PUSH2 0x3648 DUP3 PUSH2 0x2592 JUMP JUMPDEST SWAP2 POP PUSH2 0x3653 DUP4 PUSH2 0x2592 JUMP JUMPDEST SWAP3 POP DUP3 DUP3 ADD SWAP1 POP DUP1 DUP3 GT ISZERO PUSH2 0x366B JUMPI PUSH2 0x366A PUSH2 0x3375 JUMP JUMPDEST JUMPDEST SWAP3 SWAP2 POP POP JUMP JUMPDEST PUSH1 0x0 PUSH1 0x40 DUP3 ADD SWAP1 POP DUP2 DUP2 SUB PUSH1 0x0 DUP4 ADD MSTORE PUSH2 0x368B DUP2 DUP6 PUSH2 0x2CEE JUMP JUMPDEST SWAP1 POP DUP2 DUP2 SUB PUSH1 0x20 DUP4 ADD MSTORE PUSH2 0x369F DUP2 DUP5 PUSH2 0x2CEE JUMP JUMPDEST SWAP1 POP SWAP4 SWAP3 POP POP POP JUMP JUMPDEST PUSH32 0x455243313135353A207472616E7366657220746F20746865207A65726F206164 PUSH1 0x0 DUP3 ADD MSTORE PUSH32 0x6472657373000000000000000000000000000000000000000000000000000000 PUSH1 0x20 DUP3 ADD MSTORE POP JUMP JUMPDEST PUSH1 0x0 PUSH2 0x3704 PUSH1 0x25 DUP4 PUSH2 0x2725 JUMP JUMPDEST SWAP2 POP PUSH2 0x370F DUP3 PUSH2 0x36A8 JUMP JUMPDEST PUSH1 0x40 DUP3 ADD SWAP1 POP SWAP2 SWAP1 POP JUMP JUMPDEST PUSH1 0x0 PUSH1 0x20 DUP3 ADD SWAP1 POP DUP2 DUP2 SUB PUSH1 0x0 DUP4 ADD MSTORE PUSH2 0x3733 DUP2 PUSH2 0x36F7 JUMP JUMPDEST SWAP1 POP SWAP2 SWAP1 POP JUMP JUMPDEST PUSH32 0x455243313135353A20696E73756666696369656E742062616C616E636520666F PUSH1 0x0 DUP3 ADD MSTORE PUSH32 0x72207472616E7366657200000000000000000000000000000000000000000000 PUSH1 0x20 DUP3 ADD MSTORE POP JUMP JUMPDEST PUSH1 0x0 PUSH2 0x3796 PUSH1 0x2A DUP4 PUSH2 0x2725 JUMP JUMPDEST SWAP2 POP PUSH2 0x37A1 DUP3 PUSH2 0x373A JUMP JUMPDEST PUSH1 0x40 DUP3 ADD SWAP1 POP SWAP2 SWAP1 POP JUMP JUMPDEST PUSH1 0x0 PUSH1 0x20 DUP3 ADD SWAP1 POP DUP2 DUP2 SUB PUSH1 0x0 DUP4 ADD MSTORE PUSH2 0x37C5 DUP2 PUSH2 0x3789 JUMP JUMPDEST SWAP1 POP SWAP2 SWAP1 POP JUMP JUMPDEST PUSH32 0x455243313135353A206275726E2066726F6D20746865207A65726F2061646472 PUSH1 0x0 DUP3 ADD MSTORE PUSH32 0x6573730000000000000000000000000000000000000000000000000000000000 PUSH1 0x20 DUP3 ADD MSTORE POP JUMP JUMPDEST PUSH1 0x0 PUSH2 0x3828 PUSH1 0x23 DUP4 PUSH2 0x2725 JUMP JUMPDEST SWAP2 POP PUSH2 0x3833 DUP3 PUSH2 0x37CC JUMP JUMPDEST PUSH1 0x40 DUP3 ADD SWAP1 POP SWAP2 SWAP1 POP JUMP JUMPDEST PUSH1 0x0 PUSH1 0x20 DUP3 ADD SWAP1 POP DUP2 DUP2 SUB PUSH1 0x0 DUP4 ADD MSTORE PUSH2 0x3857 DUP2 PUSH2 0x381B JUMP JUMPDEST SWAP1 POP SWAP2 SWAP1 POP JUMP JUMPDEST PUSH32 0x455243313135353A206275726E20616D6F756E7420657863656564732062616C PUSH1 0x0 DUP3 ADD MSTORE PUSH32 0x616E636500000000000000000000000000000000000000000000000000000000 PUSH1 0x20 DUP3 ADD MSTORE POP JUMP JUMPDEST PUSH1 0x0 PUSH2 0x38BA PUSH1 0x24 DUP4 PUSH2 0x2725 JUMP JUMPDEST SWAP2 POP PUSH2 0x38C5 DUP3 PUSH2 0x385E JUMP JUMPDEST PUSH1 0x40 DUP3 ADD SWAP1 POP SWAP2 SWAP1 POP JUMP JUMPDEST PUSH1 0x0 PUSH1 0x20 DUP3 ADD SWAP1 POP DUP2 DUP2 SUB PUSH1 0x0 DUP4 ADD MSTORE PUSH2 0x38E9 DUP2 PUSH2 0x38AD JUMP JUMPDEST SWAP1 POP SWAP2 SWAP1 POP JUMP JUMPDEST PUSH1 0x0 PUSH1 0x40 DUP3 ADD SWAP1 POP PUSH2 0x3905 PUSH1 0x0 DUP4 ADD DUP6 PUSH2 0x2608 JUMP JUMPDEST PUSH2 0x3912 PUSH1 0x20 DUP4 ADD DUP5 PUSH2 0x2608 JUMP JUMPDEST SWAP4 SWAP3 POP POP POP JUMP JUMPDEST PUSH32 0x455243313135353A2073657474696E6720617070726F76616C20737461747573 PUSH1 0x0 DUP3 ADD MSTORE PUSH32 0x20666F722073656C660000000000000000000000000000000000000000000000 PUSH1 0x20 DUP3 ADD MSTORE POP JUMP JUMPDEST PUSH1 0x0 PUSH2 0x3975 PUSH1 0x29 DUP4 PUSH2 0x2725 JUMP JUMPDEST SWAP2 POP PUSH2 0x3980 DUP3 PUSH2 0x3919 JUMP JUMPDEST PUSH1 0x40 DUP3 ADD SWAP1 POP SWAP2 SWAP1 POP JUMP JUMPDEST PUSH1 0x0 PUSH1 0x20 DUP3 ADD SWAP1 POP DUP2 DUP2 SUB PUSH1 0x0 DUP4 ADD MSTORE PUSH2 0x39A4 DUP2 PUSH2 0x3968 JUMP JUMPDEST SWAP1 POP SWAP2 SWAP1 POP JUMP JUMPDEST PUSH1 0x0 DUP2 MLOAD SWAP1 POP SWAP2 SWAP1 POP JUMP JUMPDEST PUSH1 0x0 DUP3 DUP3 MSTORE PUSH1 0x20 DUP3 ADD SWAP1 POP SWAP3 SWAP2 POP POP JUMP JUMPDEST PUSH1 0x0 PUSH2 0x39D2 DUP3 PUSH2 0x39AB JUMP JUMPDEST PUSH2 0x39DC DUP2 DUP6 PUSH2 0x39B6 JUMP JUMPDEST SWAP4 POP PUSH2 0x39EC DUP2 DUP6 PUSH1 0x20 DUP7 ADD PUSH2 0x2736 JUMP JUMPDEST PUSH2 0x39F5 DUP2 PUSH2 0x2760 JUMP JUMPDEST DUP5 ADD SWAP2 POP POP SWAP3 SWAP2 POP POP JUMP JUMPDEST PUSH1 0x0 PUSH1 0xA0 DUP3 ADD SWAP1 POP PUSH2 0x3A15 PUSH1 0x0 DUP4 ADD DUP9 PUSH2 0x2E7C JUMP JUMPDEST PUSH2 0x3A22 PUSH1 0x20 DUP4 ADD DUP8 PUSH2 0x2E7C JUMP JUMPDEST DUP2 DUP2 SUB PUSH1 0x40 DUP4 ADD MSTORE PUSH2 0x3A34 DUP2 DUP7 PUSH2 0x2CEE JUMP JUMPDEST SWAP1 POP DUP2 DUP2 SUB PUSH1 0x60 DUP4 ADD MSTORE PUSH2 0x3A48 DUP2 DUP6 PUSH2 0x2CEE JUMP JUMPDEST SWAP1 POP DUP2 DUP2 SUB PUSH1 0x80 DUP4 ADD MSTORE PUSH2 0x3A5C DUP2 DUP5 PUSH2 0x39C7 JUMP JUMPDEST SWAP1 POP SWAP7 SWAP6 POP POP POP POP POP POP JUMP JUMPDEST PUSH1 0x0 DUP2 MLOAD SWAP1 POP PUSH2 0x3A77 DUP2 PUSH2 0x265E JUMP JUMPDEST SWAP3 SWAP2 POP POP JUMP JUMPDEST PUSH1 0x0 PUSH1 0x20 DUP3 DUP5 SUB SLT ISZERO PUSH2 0x3A93 JUMPI PUSH2 0x3A92 PUSH2 0x252A JUMP JUMPDEST JUMPDEST PUSH1 0x0 PUSH2 0x3AA1 DUP5 DUP3 DUP6 ADD PUSH2 0x3A68 JUMP JUMPDEST SWAP2 POP POP SWAP3 SWAP2 POP POP JUMP JUMPDEST PUSH1 0x0 DUP2 PUSH1 0xE0 SHR SWAP1 POP SWAP2 SWAP1 POP JUMP JUMPDEST PUSH1 0x0 PUSH1 0x3 RETURNDATASIZE GT ISZERO PUSH2 0x3AD6 JUMPI PUSH1 0x4 PUSH1 0x0 DUP1 RETURNDATACOPY PUSH2 0x3AD3 PUSH1 0x0 MLOAD PUSH2 0x3AAA JUMP JUMPDEST SWAP1 POP JUMPDEST SWAP1 JUMP JUMPDEST PUSH1 0x0 PUSH1 0x44 RETURNDATASIZE LT PUSH2 0x3B66 JUMPI PUSH2 0x3AEB PUSH2 0x2520 JUMP JUMPDEST PUSH1 0x4 RETURNDATASIZE SUB PUSH1 0x4 DUP3 RETURNDATACOPY DUP1 MLOAD RETURNDATASIZE PUSH1 0x24 DUP3 ADD GT PUSH8 0xFFFFFFFFFFFFFFFF DUP3 GT OR ISZERO PUSH2 0x3B13 JUMPI POP POP PUSH2 0x3B66 JUMP JUMPDEST DUP1 DUP3 ADD DUP1 MLOAD PUSH8 0xFFFFFFFFFFFFFFFF DUP2 GT ISZERO PUSH2 0x3B31 JUMPI POP POP POP POP PUSH2 0x3B66 JUMP JUMPDEST DUP1 PUSH1 0x20 DUP4 ADD ADD PUSH1 0x4 RETURNDATASIZE SUB DUP6 ADD DUP2 GT ISZERO PUSH2 0x3B4E JUMPI POP POP POP POP POP PUSH2 0x3B66 JUMP JUMPDEST PUSH2 0x3B5D DUP3 PUSH1 0x20 ADD DUP6 ADD DUP7 PUSH2 0x2800 JUMP JUMPDEST DUP3 SWAP6 POP POP POP POP POP POP JUMPDEST SWAP1 JUMP JUMPDEST PUSH32 0x455243313135353A207472616E7366657220746F206E6F6E2D45524331313535 PUSH1 0x0 DUP3 ADD MSTORE PUSH32 0x526563656976657220696D706C656D656E746572000000000000000000000000 PUSH1 0x20 DUP3 ADD MSTORE POP JUMP JUMPDEST PUSH1 0x0 PUSH2 0x3BC5 PUSH1 0x34 DUP4 PUSH2 0x2725 JUMP JUMPDEST SWAP2 POP PUSH2 0x3BD0 DUP3 PUSH2 0x3B69 JUMP JUMPDEST PUSH1 0x40 DUP3 ADD SWAP1 POP SWAP2 SWAP1 POP JUMP JUMPDEST PUSH1 0x0 PUSH1 0x20 DUP3 ADD SWAP1 POP DUP2 DUP2 SUB PUSH1 0x0 DUP4 ADD MSTORE PUSH2 0x3BF4 DUP2 PUSH2 0x3BB8 JUMP JUMPDEST SWAP1 POP SWAP2 SWAP1 POP JUMP JUMPDEST PUSH32 0x455243313135353A204552433131353552656365697665722072656A65637465 PUSH1 0x0 DUP3 ADD MSTORE PUSH32 0x6420746F6B656E73000000000000000000000000000000000000000000000000 PUSH1 0x20 DUP3 ADD MSTORE POP JUMP JUMPDEST PUSH1 0x0 PUSH2 0x3C57 PUSH1 0x28 DUP4 PUSH2 0x2725 JUMP JUMPDEST SWAP2 POP PUSH2 0x3C62 DUP3 PUSH2 0x3BFB JUMP JUMPDEST PUSH1 0x40 DUP3 ADD SWAP1 POP SWAP2 SWAP1 POP JUMP JUMPDEST PUSH1 0x0 PUSH1 0x20 DUP3 ADD SWAP1 POP DUP2 DUP2 SUB PUSH1 0x0 DUP4 ADD MSTORE PUSH2 0x3C86 DUP2 PUSH2 0x3C4A JUMP JUMPDEST SWAP1 POP SWAP2 SWAP1 POP JUMP JUMPDEST PUSH1 0x0 PUSH1 0xA0 DUP3 ADD SWAP1 POP PUSH2 0x3CA2 PUSH1 0x0 DUP4 ADD DUP9 PUSH2 0x2E7C JUMP JUMPDEST PUSH2 0x3CAF PUSH1 0x20 DUP4 ADD DUP8 PUSH2 0x2E7C JUMP JUMPDEST PUSH2 0x3CBC PUSH1 0x40 DUP4 ADD DUP7 PUSH2 0x2608 JUMP JUMPDEST PUSH2 0x3CC9 PUSH1 0x60 DUP4 ADD DUP6 PUSH2 0x2608 JUMP JUMPDEST DUP2 DUP2 SUB PUSH1 0x80 DUP4 ADD MSTORE PUSH2 0x3CDB DUP2 DUP5 PUSH2 0x39C7 JUMP JUMPDEST SWAP1 POP SWAP7 SWAP6 POP POP POP POP POP POP JUMP JUMPDEST PUSH32 0x455243313135353A206275726E20616D6F756E74206578636565647320746F74 PUSH1 0x0 DUP3 ADD MSTORE PUSH32 0x616C537570706C79000000000000000000000000000000000000000000000000 PUSH1 0x20 DUP3 ADD MSTORE POP JUMP JUMPDEST PUSH1 0x0 PUSH2 0x3D43 PUSH1 0x28 DUP4 PUSH2 0x2725 JUMP JUMPDEST SWAP2 POP PUSH2 0x3D4E DUP3 PUSH2 0x3CE7 JUMP JUMPDEST PUSH1 0x40 DUP3 ADD SWAP1 POP SWAP2 SWAP1 POP JUMP JUMPDEST PUSH1 0x0 PUSH1 0x20 DUP3 ADD SWAP1 POP DUP2 DUP2 SUB PUSH1 0x0 DUP4 ADD MSTORE PUSH2 0x3D72 DUP2 PUSH2 0x3D36 JUMP JUMPDEST SWAP1 POP SWAP2 SWAP1 POP JUMP INVALID PUSH9 0x747470733A2F2F6970 PUSH7 0x732E696F2F6970 PUSH7 0x732F516D515844 PUSH22 0x59506455346538576437515866796279655857756A79 ORIGIN PUSH20 0x6D70776E4575314E626151326A3145712F636F6C PUSH13 0x656374696F6E2E6A736F6EA264 PUSH10 0x70667358221220E45DC7 0x26 0xBE 0x2A 0xAD ORIGIN 0xA7 0xE9 0xB9 PUSH10 0x346B287750C2CA7A1D3 DUP10 PUSH8 0x9FCBE228D62C0FA6 PUSH5 0x736F6C6343 STOP ADDMOD SLT STOP CALLER PUSH10 0x7066733A2F2F516D6163 CODESIZE CODECOPY PUSH20 0x5A545347764B6B795961327672786452616B5052 GASLIMIT PUSH2 0x4746 0x4A MSTORE8 0x4E 0x4A MSTORE MSTORE JUMPI PUSH6 0x747A544C5154 0x4D 0x2F PUSH28 0x69647D2E6A736F6E0000000000000000000000000000000000000000 "
		},
		"gasEstimates": {
			"creation": {
				"codeDepositCost": "3174800",
				"executionCost": "infinite",
				"totalCost": "infinite"
			},
			"external": {
				"balanceOf(address,uint256)": "infinite",
				"balanceOfBatch(address[],uint256[])": "infinite",
				"burn(address,uint256,uint256)": "infinite",
				"burnBatch(address,uint256[],uint256[])": "infinite",
				"contractURI()": "infinite",
				"exists(uint256)": "2902",
				"isApprovedForAll(address,address)": "infinite",
				"mint(address,uint256,uint256,bytes)": "infinite",
				"mintBatch(address,uint256[],uint256[],bytes)": "infinite",
				"owner()": "2567",
				"renounceOwnership()": "30509",
				"safeBatchTransferFrom(address,address,uint256[],uint256[],bytes)": "infinite",
				"safeTransferFrom(address,address,uint256,uint256,bytes)": "infinite",
				"setApprovalForAll(address,bool)": "infinite",
				"supportsInterface(bytes4)": "819",
				"totalSupply(uint256)": "infinite",
				"transferOwnership(address)": "30832",
				"uri(uint256)": "infinite"
			},
			"internal": {
				"_beforeTokenTransfer(address,address,address,uint256[] memory,uint256[] memory,bytes memory)": "infinite"
			}
		},
		"methodIdentifiers": {
			"balanceOf(address,uint256)": "00fdd58e",
			"balanceOfBatch(address[],uint256[])": "4e1273f4",
			"burn(address,uint256,uint256)": "f5298aca",
			"burnBatch(address,uint256[],uint256[])": "6b20c454",
			"contractURI()": "e8a3d485",
			"exists(uint256)": "4f558e79",
			"isApprovedForAll(address,address)": "e985e9c5",
			"mint(address,uint256,uint256,bytes)": "731133e9",
			"mintBatch(address,uint256[],uint256[],bytes)": "1f7fdffa",
			"owner()": "8da5cb5b",
			"renounceOwnership()": "715018a6",
			"safeBatchTransferFrom(address,address,uint256[],uint256[],bytes)": "2eb2c2d6",
			"safeTransferFrom(address,address,uint256,uint256,bytes)": "f242432a",
			"setApprovalForAll(address,bool)": "a22cb465",
			"supportsInterface(bytes4)": "01ffc9a7",
			"totalSupply(uint256)": "bd85b039",
			"transferOwnership(address)": "f2fde38b",
			"uri(uint256)": "0e89341c"
		}
	},
	"abi": [
		{
			"inputs": [],
			"stateMutability": "nonpayable",
			"type": "constructor"
		},
		{
			"anonymous": false,
			"inputs": [
				{
					"indexed": true,
					"internalType": "address",
					"name": "account",
					"type": "address"
				},
				{
					"indexed": true,
					"internalType": "address",
					"name": "operator",
					"type": "address"
				},
				{
					"indexed": false,
					"internalType": "bool",
					"name": "approved",
					"type": "bool"
				}
			],
			"name": "ApprovalForAll",
			"type": "event"
		},
		{
			"anonymous": false,
			"inputs": [
				{
					"indexed": true,
					"internalType": "address",
					"name": "previousOwner",
					"type": "address"
				},
				{
					"indexed": true,
					"internalType": "address",
					"name": "newOwner",
					"type": "address"
				}
			],
			"name": "OwnershipTransferred",
			"type": "event"
		},
		{
			"anonymous": false,
			"inputs": [
				{
					"indexed": true,
					"internalType": "address",
					"name": "operator",
					"type": "address"
				},
				{
					"indexed": true,
					"internalType": "address",
					"name": "from",
					"type": "address"
				},
				{
					"indexed": true,
					"internalType": "address",
					"name": "to",
					"type": "address"
				},
				{
					"indexed": false,
					"internalType": "uint256[]",
					"name": "ids",
					"type": "uint256[]"
				},
				{
					"indexed": false,
					"internalType": "uint256[]",
					"name": "values",
					"type": "uint256[]"
				}
			],
			"name": "TransferBatch",
			"type": "event"
		},
		{
			"anonymous": false,
			"inputs": [
				{
					"indexed": true,
					"internalType": "address",
					"name": "operator",
					"type": "address"
				},
				{
					"indexed": true,
					"internalType": "address",
					"name": "from",
					"type": "address"
				},
				{
					"indexed": true,
					"internalType": "address",
					"name": "to",
					"type": "address"
				},
				{
					"indexed": false,
					"internalType": "uint256",
					"name": "id",
					"type": "uint256"
				},
				{
					"indexed": false,
					"internalType": "uint256",
					"name": "value",
					"type": "uint256"
				}
			],
			"name": "TransferSingle",
			"type": "event"
		},
		{
			"anonymous": false,
			"inputs": [
				{
					"indexed": false,
					"internalType": "string",
					"name": "value",
					"type": "string"
				},
				{
					"indexed": true,
					"internalType": "uint256",
					"name": "id",
					"type": "uint256"
				}
			],
			"name": "URI",
			"type": "event"
		},
		{
			"inputs": [
				{
					"internalType": "address",
					"name": "account",
					"type": "address"
				},
				{
					"internalType": "uint256",
					"name": "id",
					"type": "uint256"
				}
			],
			"name": "balanceOf",
			"outputs": [
				{
					"internalType": "uint256",
					"name": "",
					"type": "uint256"
				}
			],
			"stateMutability": "view",
			"type": "function"
		},
		{
			"inputs": [
				{
					"internalType": "address[]",
					"name": "accounts",
					"type": "address[]"
				},
				{
					"internalType": "uint256[]",
					"name": "ids",
					"type": "uint256[]"
				}
			],
			"name": "balanceOfBatch",
			"outputs": [
				{
					"internalType": "uint256[]",
					"name": "",
					"type": "uint256[]"
				}
			],
			"stateMutability": "view",
			"type": "function"
		},
		{
			"inputs": [
				{
					"internalType": "address",
					"name": "account",
					"type": "address"
				},
				{
					"internalType": "uint256",
					"name": "id",
					"type": "uint256"
				},
				{
					"internalType": "uint256",
					"name": "value",
					"type": "uint256"
				}
			],
			"name": "burn",
			"outputs": [],
			"stateMutability": "nonpayable",
			"type": "function"
		},
		{
			"inputs": [
				{
					"internalType": "address",
					"name": "account",
					"type": "address"
				},
				{
					"internalType": "uint256[]",
					"name": "ids",
					"type": "uint256[]"
				},
				{
					"internalType": "uint256[]",
					"name": "values",
					"type": "uint256[]"
				}
			],
			"name": "burnBatch",
			"outputs": [],
			"stateMutability": "nonpayable",
			"type": "function"
		},
		{
			"inputs": [],
			"name": "contractURI",
			"outputs": [
				{
					"internalType": "string",
					"name": "",
					"type": "string"
				}
			],
			"stateMutability": "pure",
			"type": "function"
		},
		{
			"inputs": [
				{
					"internalType": "uint256",
					"name": "id",
					"type": "uint256"
				}
			],
			"name": "exists",
			"outputs": [
				{
					"internalType": "bool",
					"name": "",
					"type": "bool"
				}
			],
			"stateMutability": "view",
			"type": "function"
		},
		{
			"inputs": [
				{
					"internalType": "address",
					"name": "account",
					"type": "address"
				},
				{
					"internalType": "address",
					"name": "operator",
					"type": "address"
				}
			],
			"name": "isApprovedForAll",
			"outputs": [
				{
					"internalType": "bool",
					"name": "",
					"type": "bool"
				}
			],
			"stateMutability": "view",
			"type": "function"
		},
		{
			"inputs": [
				{
					"internalType": "address",
					"name": "account",
					"type": "address"
				},
				{
					"internalType": "uint256",
					"name": "id",
					"type": "uint256"
				},
				{
					"internalType": "uint256",
					"name": "amount",
					"type": "uint256"
				},
				{
					"internalType": "bytes",
					"name": "data",
					"type": "bytes"
				}
			],
			"name": "mint",
			"outputs": [],
			"stateMutability": "nonpayable",
			"type": "function"
		},
		{
			"inputs": [
				{
					"internalType": "address",
					"name": "to",
					"type": "address"
				},
				{
					"internalType": "uint256[]",
					"name": "ids",
					"type": "uint256[]"
				},
				{
					"internalType": "uint256[]",
					"name": "amounts",
					"type": "uint256[]"
				},
				{
					"internalType": "bytes",
					"name": "data",
					"type": "bytes"
				}
			],
			"name": "mintBatch",
			"outputs": [],
			"stateMutability": "nonpayable",
			"type": "function"
		},
		{
			"inputs": [],
			"name": "owner",
			"outputs": [
				{
					"internalType": "address",
					"name": "",
					"type": "address"
				}
			],
			"stateMutability": "view",
			"type": "function"
		},
		{
			"inputs": [],
			"name": "renounceOwnership",
			"outputs": [],
			"stateMutability": "nonpayable",
			"type": "function"
		},
		{
			"inputs": [
				{
					"internalType": "address",
					"name": "from",
					"type": "address"
				},
				{
					"internalType": "address",
					"name": "to",
					"type": "address"
				},
				{
					"internalType": "uint256[]",
					"name": "ids",
					"type": "uint256[]"
				},
				{
					"internalType": "uint256[]",
					"name": "amounts",
					"type": "uint256[]"
				},
				{
					"internalType": "bytes",
					"name": "data",
					"type": "bytes"
				}
			],
			"name": "safeBatchTransferFrom",
			"outputs": [],
			"stateMutability": "nonpayable",
			"type": "function"
		},
		{
			"inputs": [
				{
					"internalType": "address",
					"name": "from",
					"type": "address"
				},
				{
					"internalType": "address",
					"name": "to",
					"type": "address"
				},
				{
					"internalType": "uint256",
					"name": "id",
					"type": "uint256"
				},
				{
					"internalType": "uint256",
					"name": "amount",
					"type": "uint256"
				},
				{
					"internalType": "bytes",
					"name": "data",
					"type": "bytes"
				}
			],
			"name": "safeTransferFrom",
			"outputs": [],
			"stateMutability": "nonpayable",
			"type": "function"
		},
		{
			"inputs": [
				{
					"internalType": "address",
					"name": "operator",
					"type": "address"
				},
				{
					"internalType": "bool",
					"name": "approved",
					"type": "bool"
				}
			],
			"name": "setApprovalForAll",
			"outputs": [],
			"stateMutability": "nonpayable",
			"type": "function"
		},
		{
			"inputs": [
				{
					"internalType": "bytes4",
					"name": "interfaceId",
					"type": "bytes4"
				}
			],
			"name": "supportsInterface",
			"outputs": [
				{
					"internalType": "bool",
					"name": "",
					"type": "bool"
				}
			],
			"stateMutability": "view",
			"type": "function"
		},
		{
			"inputs": [
				{
					"internalType": "uint256",
					"name": "id",
					"type": "uint256"
				}
			],
			"name": "totalSupply",
			"outputs": [
				{
					"internalType": "uint256",
					"name": "",
					"type": "uint256"
				}
			],
			"stateMutability": "view",
			"type": "function"
		},
		{
			"inputs": [
				{
					"internalType": "address",
					"name": "newOwner",
					"type": "address"
				}
			],
			"name": "transferOwnership",
			"outputs": [],
			"stateMutability": "nonpayable",
			"type": "function"
		},
		{
			"inputs": [
				{
					"internalType": "uint256",
					"name": "_tokenid",
					"type": "uint256"
				}
			],
			"name": "uri",
			"outputs": [
				{
					"internalType": "string",
					"name": "",
					"type": "string"
				}
			],
			"stateMutability": "pure",
			"type": "function"
		}
	]
}