{
	"data": {
		"bytecode": {
			"linkReferences": {},
			"object": "60806040523480156200001157600080fd5b506040518060400160405280600581526020017f65373231610000000000000000000000000000000000000000000000000000008152506040518060400160405280600481526020017f373231610000000000000000000000000000000000000000000000000000000081525081600290816200008f91906200042d565b508060039081620000a191906200042d565b50620000b2620000e060201b60201c565b6000819055505050620000da620000ce620000e560201b60201c565b620000ed60201b60201c565b62000514565b600090565b600033905090565b6000600860009054906101000a900473ffffffffffffffffffffffffffffffffffffffff16905081600860006101000a81548173ffffffffffffffffffffffffffffffffffffffff021916908373ffffffffffffffffffffffffffffffffffffffff1602179055508173ffffffffffffffffffffffffffffffffffffffff168173ffffffffffffffffffffffffffffffffffffffff167f8be0079c531659141344cd1fd0a4f28419497f9722a3daafe3b4186f6b6457e060405160405180910390a35050565b600081519050919050565b7f4e487b7100000000000000000000000000000000000000000000000000000000600052604160045260246000fd5b7f4e487b7100000000000000000000000000000000000000000000000000000000600052602260045260246000fd5b600060028204905060018216806200023557607f821691505b6020821081036200024b576200024a620001ed565b5b50919050565b60008190508160005260206000209050919050565b60006020601f8301049050919050565b600082821b905092915050565b600060088302620002b57fffffffffffffffffffffffffffffffffffffffffffffffffffffffffffffffff8262000276565b620002c1868362000276565b95508019841693508086168417925050509392505050565b6000819050919050565b6000819050919050565b60006200030e620003086200030284620002d9565b620002e3565b620002d9565b9050919050565b6000819050919050565b6200032a83620002ed565b62000342620003398262000315565b84845462000283565b825550505050565b600090565b620003596200034a565b620003668184846200031f565b505050565b5b818110156200038e57620003826000826200034f565b6001810190506200036c565b5050565b601f821115620003dd57620003a78162000251565b620003b28462000266565b81016020851015620003c2578190505b620003da620003d18562000266565b8301826200036b565b50505b505050565b600082821c905092915050565b60006200040260001984600802620003e2565b1980831691505092915050565b60006200041d8383620003ef565b9150826002028217905092915050565b6200043882620001b3565b67ffffffffffffffff811115620004545762000453620001be565b5b6200046082546200021c565b6200046d82828562000392565b600060209050601f831160018114620004a5576000841562000490578287015190505b6200049c85826200040f565b8655506200050c565b601f198416620004b58662000251565b60005b82811015620004df57848901518255600182019150602085019450602081019050620004b8565b86831015620004ff5784890151620004fb601f891682620003ef565b8355505b6001600288020188555050505b505050505050565b611f2f80620005246000396000f3fe6080604052600436106101095760003560e01c806370a0823111610095578063a22cb46511610064578063a22cb46514610342578063b88d4fde1461036b578063c87b56dd14610387578063e985e9c5146103c4578063f2fde38b1461040157610109565b806370a0823114610298578063715018a6146102d55780638da5cb5b146102ec57806395d89b411461031757610109565b8063095ea7b3116100dc578063095ea7b3146101dc57806318160ddd146101f857806323b872dd1461022357806342842e0e1461023f5780636352211e1461025b57610109565b806301ffc9a71461010e57806306fdde031461014b5780630788370314610176578063081812fc1461019f575b600080fd5b34801561011a57600080fd5b5061013560048036038101906101309190611625565b61042a565b604051610142919061166d565b60405180910390f35b34801561015757600080fd5b506101606104bc565b60405161016d9190611718565b60405180910390f35b34801561018257600080fd5b5061019d60048036038101906101989190611770565b61054e565b005b3480156101ab57600080fd5b506101c660048036038101906101c19190611770565b610563565b6040516101d391906117de565b60405180910390f35b6101f660048036038101906101f19190611825565b6105c1565b005b34801561020457600080fd5b5061020d6105d1565b60405161021a9190611874565b60405180910390f35b61023d6004803603810190610238919061188f565b6105e8565b005b6102596004803603810190610254919061188f565b6108a9565b005b34801561026757600080fd5b50610282600480360381019061027d9190611770565b6108c9565b60405161028f91906117de565b60405180910390f35b3480156102a457600080fd5b506102bf60048036038101906102ba91906118e2565b6108db565b6040516102cc9190611874565b60405180910390f35b3480156102e157600080fd5b506102ea610972565b005b3480156102f857600080fd5b50610301610986565b60405161030e91906117de565b60405180910390f35b34801561032357600080fd5b5061032c6109b0565b6040516103399190611718565b60405180910390f35b34801561034e57600080fd5b506103696004803603810190610364919061193b565b610a42565b005b61038560048036038101906103809190611ab0565b610b4d565b005b34801561039357600080fd5b506103ae60048036038101906103a99190611770565b610b9f565b6040516103bb9190611718565b60405180910390f35b3480156103d057600080fd5b506103eb60048036038101906103e69190611b33565b610c23565b6040516103f8919061166d565b60405180910390f35b34801561040d57600080fd5b50610428600480360381019061042391906118e2565b610cb7565b005b60006301ffc9a760e01b827bffffffffffffffffffffffffffffffffffffffffffffffffffffffff1916148061048557506380ac58cd60e01b827bffffffffffffffffffffffffffffffffffffffffffffffffffffffff1916145b806104b55750635b5e139f60e01b827bffffffffffffffffffffffffffffffffffffffffffffffffffffffff1916145b9050919050565b6060600280546104cb90611ba2565b80601f01602080910402602001604051908101604052809291908181526020018280546104f790611ba2565b80156105445780601f1061051957610100808354040283529160200191610544565b820191906000526020600020905b81548152906001019060200180831161052757829003601f168201915b5050505050905090565b610556610d3a565b6105603382610db8565b50565b600061056e82610dd6565b6105835761058263cf4700e460e01b610e4f565b5b6006600083815260200190815260200160002060000160009054906101000a900473ffffffffffffffffffffffffffffffffffffffff169050919050565b6105cd82826001610e59565b5050565b60006105db610f88565b6001546000540303905090565b60006105f382610f8d565b905073ffffffffffffffffffffffffffffffffffffffff8473ffffffffffffffffffffffffffffffffffffffff161693508373ffffffffffffffffffffffffffffffffffffffff168173ffffffffffffffffffffffffffffffffffffffff16146106685761066763a114810060e01b610e4f565b5b60008061067484611079565b9150915061068a81876106856110a0565b6110a8565b6106b55761069f8661069a6110a0565b610c23565b6106b4576106b36359c896be60e01b610e4f565b5b5b6106c286868660016110ec565b80156106cd57600082555b600560008773ffffffffffffffffffffffffffffffffffffffff1673ffffffffffffffffffffffffffffffffffffffff168152602001908152602001600020600081546001900391905081905550600560008673ffffffffffffffffffffffffffffffffffffffff1673ffffffffffffffffffffffffffffffffffffffff168152602001908152602001600020600081546001019190508190555061079b856107778888876110f2565b7c02000000000000000000000000000000000000000000000000000000001761111a565b600460008681526020019081526020016000208190555060007c0200000000000000000000000000000000000000000000000000000000841603610821576000600185019050600060046000838152602001908152602001600020540361081f57600054811461081e578360046000838152602001908152602001600020819055505b5b505b600073ffffffffffffffffffffffffffffffffffffffff8673ffffffffffffffffffffffffffffffffffffffff161690508481887fddf252ad1be2c89b69c2b068fc378daa952ba7f163c4a11628f55a4df523b3ef600080a4600081036108935761089263ea553b3460e01b610e4f565b5b6108a08787876001611145565b50505050505050565b6108c483838360405180602001604052806000815250610b4d565b505050565b60006108d482610f8d565b9050919050565b60008073ffffffffffffffffffffffffffffffffffffffff168273ffffffffffffffffffffffffffffffffffffffff160361092157610920638f4eb60460e01b610e4f565b5b67ffffffffffffffff600560008473ffffffffffffffffffffffffffffffffffffffff1673ffffffffffffffffffffffffffffffffffffffff16815260200190815260200160002054169050919050565b61097a610d3a565b610984600061114b565b565b6000600860009054906101000a900473ffffffffffffffffffffffffffffffffffffffff16905090565b6060600380546109bf90611ba2565b80601f01602080910402602001604051908101604052809291908181526020018280546109eb90611ba2565b8015610a385780601f10610a0d57610100808354040283529160200191610a38565b820191906000526020600020905b815481529060010190602001808311610a1b57829003601f168201915b5050505050905090565b8060076000610a4f6110a0565b73ffffffffffffffffffffffffffffffffffffffff1673ffffffffffffffffffffffffffffffffffffffff16815260200190815260200160002060008473ffffffffffffffffffffffffffffffffffffffff1673ffffffffffffffffffffffffffffffffffffffff16815260200190815260200160002060006101000a81548160ff0219169083151502179055508173ffffffffffffffffffffffffffffffffffffffff16610afc6110a0565b73ffffffffffffffffffffffffffffffffffffffff167f17307eab39ab6107e8899845ad3d59bd9653f200f220920489ca2b5937696c3183604051610b41919061166d565b60405180910390a35050565b610b588484846105e8565b60008373ffffffffffffffffffffffffffffffffffffffff163b14610b9957610b8384848484611211565b610b9857610b9763d1a57ed660e01b610e4f565b5b5b50505050565b6060610baa82610dd6565b610bbf57610bbe63a14c4b5060e01b610e4f565b5b6000610bc9611340565b90506000815103610be95760405180602001604052806000815250610c1b565b610bf1611340565b610bfa84611360565b604051602001610c0b929190611c5b565b6040516020818303038152906040525b915050919050565b6000600760008473ffffffffffffffffffffffffffffffffffffffff1673ffffffffffffffffffffffffffffffffffffffff16815260200190815260200160002060008373ffffffffffffffffffffffffffffffffffffffff1673ffffffffffffffffffffffffffffffffffffffff16815260200190815260200160002060009054906101000a900460ff16905092915050565b610cbf610d3a565b600073ffffffffffffffffffffffffffffffffffffffff168173ffffffffffffffffffffffffffffffffffffffff1603610d2e576040517f08c379a0000000000000000000000000000000000000000000000000000000008152600401610d2590611cfc565b60405180910390fd5b610d378161114b565b50565b610d426113b0565b73ffffffffffffffffffffffffffffffffffffffff16610d60610986565b73ffffffffffffffffffffffffffffffffffffffff1614610db6576040517f08c379a0000000000000000000000000000000000000000000000000000000008152600401610dad90611d68565b60405180910390fd5b565b610dd28282604051806020016040528060008152506113b8565b5050565b600081610de1610f88565b11610e4a57600054821015610e495760005b6000600460008581526020019081526020016000205491508103610e225782610e1b90611db7565b9250610df3565b60007c01000000000000000000000000000000000000000000000000000000008216149150505b5b919050565b8060005260046000fd5b6000610e64836108c9565b9050818015610ea657508073ffffffffffffffffffffffffffffffffffffffff16610e8d6110a0565b73ffffffffffffffffffffffffffffffffffffffff1614155b15610ed257610ebc81610eb76110a0565b610c23565b610ed157610ed063cfb3b94260e01b610e4f565b5b5b836006600085815260200190815260200160002060000160006101000a81548173ffffffffffffffffffffffffffffffffffffffff021916908373ffffffffffffffffffffffffffffffffffffffff160217905550828473ffffffffffffffffffffffffffffffffffffffff168273ffffffffffffffffffffffffffffffffffffffff167f8c5be1e5ebec7d5bd14f71427d1e84f3dd0314c0f7b2291e5b200ac8c7c3b92560405160405180910390a450505050565b600090565b600081610f98610f88565b1161106357600460008381526020019081526020016000205490506000810361103a576000548210610fd557610fd463df2d9b4260e01b610e4f565b5b5b600460008360019003935083815260200190815260200160002054905060008103156110355760007c0100000000000000000000000000000000000000000000000000000000821603156110745761103463df2d9b4260e01b610e4f565b5b610fd6565b60007c010000000000000000000000000000000000000000000000000000000082160315611074575b61107363df2d9b4260e01b610e4f565b5b919050565b60008060006006600085815260200190815260200160002090508092508254915050915091565b600033905090565b600073ffffffffffffffffffffffffffffffffffffffff8316925073ffffffffffffffffffffffffffffffffffffffff821691508382148383141790509392505050565b50505050565b60008060e883901c905060e861110986868461143d565b62ffffff16901b9150509392505050565b600073ffffffffffffffffffffffffffffffffffffffff83169250814260a01b178317905092915050565b50505050565b6000600860009054906101000a900473ffffffffffffffffffffffffffffffffffffffff16905081600860006101000a81548173ffffffffffffffffffffffffffffffffffffffff021916908373ffffffffffffffffffffffffffffffffffffffff1602179055508173ffffffffffffffffffffffffffffffffffffffff168173ffffffffffffffffffffffffffffffffffffffff167f8be0079c531659141344cd1fd0a4f28419497f9722a3daafe3b4186f6b6457e060405160405180910390a35050565b60008373ffffffffffffffffffffffffffffffffffffffff1663150b7a026112376110a0565b8786866040518563ffffffff1660e01b81526004016112599493929190611e35565b6020604051808303816000875af192505050801561129557506040513d601f19601f820116820180604052508101906112929190611e96565b60015b6112ed573d80600081146112c5576040519150601f19603f3d011682016040523d82523d6000602084013e6112ca565b606091505b5060008151036112e5576112e463d1a57ed660e01b610e4f565b5b805181602001fd5b63150b7a0260e01b7bffffffffffffffffffffffffffffffffffffffffffffffffffffffff1916817bffffffffffffffffffffffffffffffffffffffffffffffffffffffff191614915050949350505050565b6060604051806060016040528060368152602001611ec460369139905090565b606060a060405101806040526020810391506000825281835b60011561139b57600184039350600a81066030018453600a8104905080611379575b50828103602084039350808452505050919050565b600033905090565b6113c28383611446565b60008373ffffffffffffffffffffffffffffffffffffffff163b1461143857600080549050600083820390505b6114026000868380600101945086611211565b6114175761141663d1a57ed660e01b610e4f565b5b8181106113ef57816000541461143557611434600060e01b610e4f565b5b50505b505050565b60009392505050565b600080549050600082036114655761146463b562e8dd60e01b610e4f565b5b61147260008483856110ec565b6114928361148360008660006110f2565b61148c856115a9565b1761111a565b6004600083815260200190815260200160002081905550600160406001901b178202600560008573ffffffffffffffffffffffffffffffffffffffff1673ffffffffffffffffffffffffffffffffffffffff16815260200190815260200160002060008282540192505081905550600073ffffffffffffffffffffffffffffffffffffffff8473ffffffffffffffffffffffffffffffffffffffff161690506000810361154a57611549632e07630060e01b610e4f565b5b6000838301905060008390505b808360007fddf252ad1be2c89b69c2b068fc378daa952ba7f163c4a11628f55a4df523b3ef600080a481816001019150810361155757816000819055505050506115a46000848385611145565b505050565b60006001821460e11b9050919050565b6000604051905090565b600080fd5b600080fd5b60007fffffffff0000000000000000000000000000000000000000000000000000000082169050919050565b611602816115cd565b811461160d57600080fd5b50565b60008135905061161f816115f9565b92915050565b60006020828403121561163b5761163a6115c3565b5b600061164984828501611610565b91505092915050565b60008115159050919050565b61166781611652565b82525050565b6000602082019050611682600083018461165e565b92915050565b600081519050919050565b600082825260208201905092915050565b60005b838110156116c25780820151818401526020810190506116a7565b60008484015250505050565b6000601f19601f8301169050919050565b60006116ea82611688565b6116f48185611693565b93506117048185602086016116a4565b61170d816116ce565b840191505092915050565b6000602082019050818103600083015261173281846116df565b905092915050565b6000819050919050565b61174d8161173a565b811461175857600080fd5b50565b60008135905061176a81611744565b92915050565b600060208284031215611786576117856115c3565b5b60006117948482850161175b565b91505092915050565b600073ffffffffffffffffffffffffffffffffffffffff82169050919050565b60006117c88261179d565b9050919050565b6117d8816117bd565b82525050565b60006020820190506117f360008301846117cf565b92915050565b611802816117bd565b811461180d57600080fd5b50565b60008135905061181f816117f9565b92915050565b6000806040838503121561183c5761183b6115c3565b5b600061184a85828601611810565b925050602061185b8582860161175b565b9150509250929050565b61186e8161173a565b82525050565b60006020820190506118896000830184611865565b92915050565b6000806000606084860312156118a8576118a76115c3565b5b60006118b686828701611810565b93505060206118c786828701611810565b92505060406118d88682870161175b565b9150509250925092565b6000602082840312156118f8576118f76115c3565b5b600061190684828501611810565b91505092915050565b61191881611652565b811461192357600080fd5b50565b6000813590506119358161190f565b92915050565b60008060408385031215611952576119516115c3565b5b600061196085828601611810565b925050602061197185828601611926565b9150509250929050565b600080fd5b600080fd5b7f4e487b7100000000000000000000000000000000000000000000000000000000600052604160045260246000fd5b6119bd826116ce565b810181811067ffffffffffffffff821117156119dc576119db611985565b5b80604052505050565b60006119ef6115b9565b90506119fb82826119b4565b919050565b600067ffffffffffffffff821115611a1b57611a1a611985565b5b611a24826116ce565b9050602081019050919050565b82818337600083830152505050565b6000611a53611a4e84611a00565b6119e5565b905082815260208101848484011115611a6f57611a6e611980565b5b611a7a848285611a31565b509392505050565b600082601f830112611a9757611a9661197b565b5b8135611aa7848260208601611a40565b91505092915050565b60008060008060808587031215611aca57611ac96115c3565b5b6000611ad887828801611810565b9450506020611ae987828801611810565b9350506040611afa8782880161175b565b925050606085013567ffffffffffffffff811115611b1b57611b1a6115c8565b5b611b2787828801611a82565b91505092959194509250565b60008060408385031215611b4a57611b496115c3565b5b6000611b5885828601611810565b9250506020611b6985828601611810565b9150509250929050565b7f4e487b7100000000000000000000000000000000000000000000000000000000600052602260045260246000fd5b60006002820490506001821680611bba57607f821691505b602082108103611bcd57611bcc611b73565b5b50919050565b600081905092915050565b6000611be982611688565b611bf38185611bd3565b9350611c038185602086016116a4565b80840191505092915050565b7f2e6a736f6e000000000000000000000000000000000000000000000000000000600082015250565b6000611c45600583611bd3565b9150611c5082611c0f565b600582019050919050565b6000611c678285611bde565b9150611c738284611bde565b9150611c7e82611c38565b91508190509392505050565b7f4f776e61626c653a206e6577206f776e657220697320746865207a65726f206160008201527f6464726573730000000000000000000000000000000000000000000000000000602082015250565b6000611ce6602683611693565b9150611cf182611c8a565b604082019050919050565b60006020820190508181036000830152611d1581611cd9565b9050919050565b7f4f776e61626c653a2063616c6c6572206973206e6f7420746865206f776e6572600082015250565b6000611d52602083611693565b9150611d5d82611d1c565b602082019050919050565b60006020820190508181036000830152611d8181611d45565b9050919050565b7f4e487b7100000000000000000000000000000000000000000000000000000000600052601160045260246000fd5b6000611dc28261173a565b915060008203611dd557611dd4611d88565b5b600182039050919050565b600081519050919050565b600082825260208201905092915050565b6000611e0782611de0565b611e118185611deb565b9350611e218185602086016116a4565b611e2a816116ce565b840191505092915050565b6000608082019050611e4a60008301876117cf565b611e5760208301866117cf565b611e646040830185611865565b8181036060830152611e768184611dfc565b905095945050505050565b600081519050611e90816115f9565b92915050565b600060208284031215611eac57611eab6115c3565b5b6000611eba84828501611e81565b9150509291505056fe697066733a2f2f516d61633839735a545347764b6b795961327672786452616b5052456147464a534e4a52525765747a544c51544d2fa26469706673582212201c3a507d07ef27e5b7d6872ccf0730eefc86a7d7aed8526c7cf27498d5ed035b64736f6c63430008120033",
			"opcodes": "PUSH1 0x80 PUSH1 0x40 MSTORE CALLVALUE DUP1 ISZERO PUSH3 0x11 JUMPI PUSH1 0x0 DUP1 REVERT JUMPDEST POP PUSH1 0x40 MLOAD DUP1 PUSH1 0x40 ADD PUSH1 0x40 MSTORE DUP1 PUSH1 0x5 DUP2 MSTORE PUSH1 0x20 ADD PUSH32 0x6537323161000000000000000000000000000000000000000000000000000000 DUP2 MSTORE POP PUSH1 0x40 MLOAD DUP1 PUSH1 0x40 ADD PUSH1 0x40 MSTORE DUP1 PUSH1 0x4 DUP2 MSTORE PUSH1 0x20 ADD PUSH32 0x3732316100000000000000000000000000000000000000000000000000000000 DUP2 MSTORE POP DUP2 PUSH1 0x2 SWAP1 DUP2 PUSH3 0x8F SWAP2 SWAP1 PUSH3 0x42D JUMP JUMPDEST POP DUP1 PUSH1 0x3 SWAP1 DUP2 PUSH3 0xA1 SWAP2 SWAP1 PUSH3 0x42D JUMP JUMPDEST POP PUSH3 0xB2 PUSH3 0xE0 PUSH1 0x20 SHL PUSH1 0x20 SHR JUMP JUMPDEST PUSH1 0x0 DUP2 SWAP1 SSTORE POP POP POP PUSH3 0xDA PUSH3 0xCE PUSH3 0xE5 PUSH1 0x20 SHL PUSH1 0x20 SHR JUMP JUMPDEST PUSH3 0xED PUSH1 0x20 SHL PUSH1 0x20 SHR JUMP JUMPDEST PUSH3 0x514 JUMP JUMPDEST PUSH1 0x0 SWAP1 JUMP JUMPDEST PUSH1 0x0 CALLER SWAP1 POP SWAP1 JUMP JUMPDEST PUSH1 0x0 PUSH1 0x8 PUSH1 0x0 SWAP1 SLOAD SWAP1 PUSH2 0x100 EXP SWAP1 DIV PUSH20 0xFFFFFFFFFFFFFFFFFFFFFFFFFFFFFFFFFFFFFFFF AND SWAP1 POP DUP2 PUSH1 0x8 PUSH1 0x0 PUSH2 0x100 EXP DUP2 SLOAD DUP2 PUSH20 0xFFFFFFFFFFFFFFFFFFFFFFFFFFFFFFFFFFFFFFFF MUL NOT AND SWAP1 DUP4 PUSH20 0xFFFFFFFFFFFFFFFFFFFFFFFFFFFFFFFFFFFFFFFF AND MUL OR SWAP1 SSTORE POP DUP2 PUSH20 0xFFFFFFFFFFFFFFFFFFFFFFFFFFFFFFFFFFFFFFFF AND DUP2 PUSH20 0xFFFFFFFFFFFFFFFFFFFFFFFFFFFFFFFFFFFFFFFF AND PUSH32 0x8BE0079C531659141344CD1FD0A4F28419497F9722A3DAAFE3B4186F6B6457E0 PUSH1 0x40 MLOAD PUSH1 0x40 MLOAD DUP1 SWAP2 SUB SWAP1 LOG3 POP POP JUMP JUMPDEST PUSH1 0x0 DUP2 MLOAD SWAP1 POP SWAP2 SWAP1 POP JUMP JUMPDEST PUSH32 0x4E487B7100000000000000000000000000000000000000000000000000000000 PUSH1 0x0 MSTORE PUSH1 0x41 PUSH1 0x4 MSTORE PUSH1 0x24 PUSH1 0x0 REVERT JUMPDEST PUSH32 0x4E487B7100000000000000000000000000000000000000000000000000000000 PUSH1 0x0 MSTORE PUSH1 0x22 PUSH1 0x4 MSTORE PUSH1 0x24 PUSH1 0x0 REVERT JUMPDEST PUSH1 0x0 PUSH1 0x2 DUP3 DIV SWAP1 POP PUSH1 0x1 DUP3 AND DUP1 PUSH3 0x235 JUMPI PUSH1 0x7F DUP3 AND SWAP2 POP JUMPDEST PUSH1 0x20 DUP3 LT DUP2 SUB PUSH3 0x24B JUMPI PUSH3 0x24A PUSH3 0x1ED JUMP JUMPDEST JUMPDEST POP SWAP2 SWAP1 POP JUMP JUMPDEST PUSH1 0x0 DUP2 SWAP1 POP DUP2 PUSH1 0x0 MSTORE PUSH1 0x20 PUSH1 0x0 KECCAK256 SWAP1 POP SWAP2 SWAP1 POP JUMP JUMPDEST PUSH1 0x0 PUSH1 0x20 PUSH1 0x1F DUP4 ADD DIV SWAP1 POP SWAP2 SWAP1 POP JUMP JUMPDEST PUSH1 0x0 DUP3 DUP3 SHL SWAP1 POP SWAP3 SWAP2 POP POP JUMP JUMPDEST PUSH1 0x0 PUSH1 0x8 DUP4 MUL PUSH3 0x2B5 PUSH32 0xFFFFFFFFFFFFFFFFFFFFFFFFFFFFFFFFFFFFFFFFFFFFFFFFFFFFFFFFFFFFFFFF DUP3 PUSH3 0x276 JUMP JUMPDEST PUSH3 0x2C1 DUP7 DUP4 PUSH3 0x276 JUMP JUMPDEST SWAP6 POP DUP1 NOT DUP5 AND SWAP4 POP DUP1 DUP7 AND DUP5 OR SWAP3 POP POP POP SWAP4 SWAP3 POP POP POP JUMP JUMPDEST PUSH1 0x0 DUP2 SWAP1 POP SWAP2 SWAP1 POP JUMP JUMPDEST PUSH1 0x0 DUP2 SWAP1 POP SWAP2 SWAP1 POP JUMP JUMPDEST PUSH1 0x0 PUSH3 0x30E PUSH3 0x308 PUSH3 0x302 DUP5 PUSH3 0x2D9 JUMP JUMPDEST PUSH3 0x2E3 JUMP JUMPDEST PUSH3 0x2D9 JUMP JUMPDEST SWAP1 POP SWAP2 SWAP1 POP JUMP JUMPDEST PUSH1 0x0 DUP2 SWAP1 POP SWAP2 SWAP1 POP JUMP JUMPDEST PUSH3 0x32A DUP4 PUSH3 0x2ED JUMP JUMPDEST PUSH3 0x342 PUSH3 0x339 DUP3 PUSH3 0x315 JUMP JUMPDEST DUP5 DUP5 SLOAD PUSH3 0x283 JUMP JUMPDEST DUP3 SSTORE POP POP POP POP JUMP JUMPDEST PUSH1 0x0 SWAP1 JUMP JUMPDEST PUSH3 0x359 PUSH3 0x34A JUMP JUMPDEST PUSH3 0x366 DUP2 DUP5 DUP5 PUSH3 0x31F JUMP JUMPDEST POP POP POP JUMP JUMPDEST JUMPDEST DUP2 DUP2 LT ISZERO PUSH3 0x38E JUMPI PUSH3 0x382 PUSH1 0x0 DUP3 PUSH3 0x34F JUMP JUMPDEST PUSH1 0x1 DUP2 ADD SWAP1 POP PUSH3 0x36C JUMP JUMPDEST POP POP JUMP JUMPDEST PUSH1 0x1F DUP3 GT ISZERO PUSH3 0x3DD JUMPI PUSH3 0x3A7 DUP2 PUSH3 0x251 JUMP JUMPDEST PUSH3 0x3B2 DUP5 PUSH3 0x266 JUMP JUMPDEST DUP2 ADD PUSH1 0x20 DUP6 LT ISZERO PUSH3 0x3C2 JUMPI DUP2 SWAP1 POP JUMPDEST PUSH3 0x3DA PUSH3 0x3D1 DUP6 PUSH3 0x266 JUMP JUMPDEST DUP4 ADD DUP3 PUSH3 0x36B JUMP JUMPDEST POP POP JUMPDEST POP POP POP JUMP JUMPDEST PUSH1 0x0 DUP3 DUP3 SHR SWAP1 POP SWAP3 SWAP2 POP POP JUMP JUMPDEST PUSH1 0x0 PUSH3 0x402 PUSH1 0x0 NOT DUP5 PUSH1 0x8 MUL PUSH3 0x3E2 JUMP JUMPDEST NOT DUP1 DUP4 AND SWAP2 POP POP SWAP3 SWAP2 POP POP JUMP JUMPDEST PUSH1 0x0 PUSH3 0x41D DUP4 DUP4 PUSH3 0x3EF JUMP JUMPDEST SWAP2 POP DUP3 PUSH1 0x2 MUL DUP3 OR SWAP1 POP SWAP3 SWAP2 POP POP JUMP JUMPDEST PUSH3 0x438 DUP3 PUSH3 0x1B3 JUMP JUMPDEST PUSH8 0xFFFFFFFFFFFFFFFF DUP2 GT ISZERO PUSH3 0x454 JUMPI PUSH3 0x453 PUSH3 0x1BE JUMP JUMPDEST JUMPDEST PUSH3 0x460 DUP3 SLOAD PUSH3 0x21C JUMP JUMPDEST PUSH3 0x46D DUP3 DUP3 DUP6 PUSH3 0x392 JUMP JUMPDEST PUSH1 0x0 PUSH1 0x20 SWAP1 POP PUSH1 0x1F DUP4 GT PUSH1 0x1 DUP2 EQ PUSH3 0x4A5 JUMPI PUSH1 0x0 DUP5 ISZERO PUSH3 0x490 JUMPI DUP3 DUP8 ADD MLOAD SWAP1 POP JUMPDEST PUSH3 0x49C DUP6 DUP3 PUSH3 0x40F JUMP JUMPDEST DUP7 SSTORE POP PUSH3 0x50C JUMP JUMPDEST PUSH1 0x1F NOT DUP5 AND PUSH3 0x4B5 DUP7 PUSH3 0x251 JUMP JUMPDEST PUSH1 0x0 JUMPDEST DUP3 DUP2 LT ISZERO PUSH3 0x4DF JUMPI DUP5 DUP10 ADD MLOAD DUP3 SSTORE PUSH1 0x1 DUP3 ADD SWAP2 POP PUSH1 0x20 DUP6 ADD SWAP5 POP PUSH1 0x20 DUP2 ADD SWAP1 POP PUSH3 0x4B8 JUMP JUMPDEST DUP7 DUP4 LT ISZERO PUSH3 0x4FF JUMPI DUP5 DUP10 ADD MLOAD PUSH3 0x4FB PUSH1 0x1F DUP10 AND DUP3 PUSH3 0x3EF JUMP JUMPDEST DUP4 SSTORE POP JUMPDEST PUSH1 0x1 PUSH1 0x2 DUP9 MUL ADD DUP9 SSTORE POP POP POP JUMPDEST POP POP POP POP POP POP JUMP JUMPDEST PUSH2 0x1F2F DUP1 PUSH3 0x524 PUSH1 0x0 CODECOPY PUSH1 0x0 RETURN INVALID PUSH1 0x80 PUSH1 0x40 MSTORE PUSH1 0x4 CALLDATASIZE LT PUSH2 0x109 JUMPI PUSH1 0x0 CALLDATALOAD PUSH1 0xE0 SHR DUP1 PUSH4 0x70A08231 GT PUSH2 0x95 JUMPI DUP1 PUSH4 0xA22CB465 GT PUSH2 0x64 JUMPI DUP1 PUSH4 0xA22CB465 EQ PUSH2 0x342 JUMPI DUP1 PUSH4 0xB88D4FDE EQ PUSH2 0x36B JUMPI DUP1 PUSH4 0xC87B56DD EQ PUSH2 0x387 JUMPI DUP1 PUSH4 0xE985E9C5 EQ PUSH2 0x3C4 JUMPI DUP1 PUSH4 0xF2FDE38B EQ PUSH2 0x401 JUMPI PUSH2 0x109 JUMP JUMPDEST DUP1 PUSH4 0x70A08231 EQ PUSH2 0x298 JUMPI DUP1 PUSH4 0x715018A6 EQ PUSH2 0x2D5 JUMPI DUP1 PUSH4 0x8DA5CB5B EQ PUSH2 0x2EC JUMPI DUP1 PUSH4 0x95D89B41 EQ PUSH2 0x317 JUMPI PUSH2 0x109 JUMP JUMPDEST DUP1 PUSH4 0x95EA7B3 GT PUSH2 0xDC JUMPI DUP1 PUSH4 0x95EA7B3 EQ PUSH2 0x1DC JUMPI DUP1 PUSH4 0x18160DDD EQ PUSH2 0x1F8 JUMPI DUP1 PUSH4 0x23B872DD EQ PUSH2 0x223 JUMPI DUP1 PUSH4 0x42842E0E EQ PUSH2 0x23F JUMPI DUP1 PUSH4 0x6352211E EQ PUSH2 0x25B JUMPI PUSH2 0x109 JUMP JUMPDEST DUP1 PUSH4 0x1FFC9A7 EQ PUSH2 0x10E JUMPI DUP1 PUSH4 0x6FDDE03 EQ PUSH2 0x14B JUMPI DUP1 PUSH4 0x7883703 EQ PUSH2 0x176 JUMPI DUP1 PUSH4 0x81812FC EQ PUSH2 0x19F JUMPI JUMPDEST PUSH1 0x0 DUP1 REVERT JUMPDEST CALLVALUE DUP1 ISZERO PUSH2 0x11A JUMPI PUSH1 0x0 DUP1 REVERT JUMPDEST POP PUSH2 0x135 PUSH1 0x4 DUP1 CALLDATASIZE SUB DUP2 ADD SWAP1 PUSH2 0x130 SWAP2 SWAP1 PUSH2 0x1625 JUMP JUMPDEST PUSH2 0x42A JUMP JUMPDEST PUSH1 0x40 MLOAD PUSH2 0x142 SWAP2 SWAP1 PUSH2 0x166D JUMP JUMPDEST PUSH1 0x40 MLOAD DUP1 SWAP2 SUB SWAP1 RETURN JUMPDEST CALLVALUE DUP1 ISZERO PUSH2 0x157 JUMPI PUSH1 0x0 DUP1 REVERT JUMPDEST POP PUSH2 0x160 PUSH2 0x4BC JUMP JUMPDEST PUSH1 0x40 MLOAD PUSH2 0x16D SWAP2 SWAP1 PUSH2 0x1718 JUMP JUMPDEST PUSH1 0x40 MLOAD DUP1 SWAP2 SUB SWAP1 RETURN JUMPDEST CALLVALUE DUP1 ISZERO PUSH2 0x182 JUMPI PUSH1 0x0 DUP1 REVERT JUMPDEST POP PUSH2 0x19D PUSH1 0x4 DUP1 CALLDATASIZE SUB DUP2 ADD SWAP1 PUSH2 0x198 SWAP2 SWAP1 PUSH2 0x1770 JUMP JUMPDEST PUSH2 0x54E JUMP JUMPDEST STOP JUMPDEST CALLVALUE DUP1 ISZERO PUSH2 0x1AB JUMPI PUSH1 0x0 DUP1 REVERT JUMPDEST POP PUSH2 0x1C6 PUSH1 0x4 DUP1 CALLDATASIZE SUB DUP2 ADD SWAP1 PUSH2 0x1C1 SWAP2 SWAP1 PUSH2 0x1770 JUMP JUMPDEST PUSH2 0x563 JUMP JUMPDEST PUSH1 0x40 MLOAD PUSH2 0x1D3 SWAP2 SWAP1 PUSH2 0x17DE JUMP JUMPDEST PUSH1 0x40 MLOAD DUP1 SWAP2 SUB SWAP1 RETURN JUMPDEST PUSH2 0x1F6 PUSH1 0x4 DUP1 CALLDATASIZE SUB DUP2 ADD SWAP1 PUSH2 0x1F1 SWAP2 SWAP1 PUSH2 0x1825 JUMP JUMPDEST PUSH2 0x5C1 JUMP JUMPDEST STOP JUMPDEST CALLVALUE DUP1 ISZERO PUSH2 0x204 JUMPI PUSH1 0x0 DUP1 REVERT JUMPDEST POP PUSH2 0x20D PUSH2 0x5D1 JUMP JUMPDEST PUSH1 0x40 MLOAD PUSH2 0x21A SWAP2 SWAP1 PUSH2 0x1874 JUMP JUMPDEST PUSH1 0x40 MLOAD DUP1 SWAP2 SUB SWAP1 RETURN JUMPDEST PUSH2 0x23D PUSH1 0x4 DUP1 CALLDATASIZE SUB DUP2 ADD SWAP1 PUSH2 0x238 SWAP2 SWAP1 PUSH2 0x188F JUMP JUMPDEST PUSH2 0x5E8 JUMP JUMPDEST STOP JUMPDEST PUSH2 0x259 PUSH1 0x4 DUP1 CALLDATASIZE SUB DUP2 ADD SWAP1 PUSH2 0x254 SWAP2 SWAP1 PUSH2 0x188F JUMP JUMPDEST PUSH2 0x8A9 JUMP JUMPDEST STOP JUMPDEST CALLVALUE DUP1 ISZERO PUSH2 0x267 JUMPI PUSH1 0x0 DUP1 REVERT JUMPDEST POP PUSH2 0x282 PUSH1 0x4 DUP1 CALLDATASIZE SUB DUP2 ADD SWAP1 PUSH2 0x27D SWAP2 SWAP1 PUSH2 0x1770 JUMP JUMPDEST PUSH2 0x8C9 JUMP JUMPDEST PUSH1 0x40 MLOAD PUSH2 0x28F SWAP2 SWAP1 PUSH2 0x17DE JUMP JUMPDEST PUSH1 0x40 MLOAD DUP1 SWAP2 SUB SWAP1 RETURN JUMPDEST CALLVALUE DUP1 ISZERO PUSH2 0x2A4 JUMPI PUSH1 0x0 DUP1 REVERT JUMPDEST POP PUSH2 0x2BF PUSH1 0x4 DUP1 CALLDATASIZE SUB DUP2 ADD SWAP1 PUSH2 0x2BA SWAP2 SWAP1 PUSH2 0x18E2 JUMP JUMPDEST PUSH2 0x8DB JUMP JUMPDEST PUSH1 0x40 MLOAD PUSH2 0x2CC SWAP2 SWAP1 PUSH2 0x1874 JUMP JUMPDEST PUSH1 0x40 MLOAD DUP1 SWAP2 SUB SWAP1 RETURN JUMPDEST CALLVALUE DUP1 ISZERO PUSH2 0x2E1 JUMPI PUSH1 0x0 DUP1 REVERT JUMPDEST POP PUSH2 0x2EA PUSH2 0x972 JUMP JUMPDEST STOP JUMPDEST CALLVALUE DUP1 ISZERO PUSH2 0x2F8 JUMPI PUSH1 0x0 DUP1 REVERT JUMPDEST POP PUSH2 0x301 PUSH2 0x986 JUMP JUMPDEST PUSH1 0x40 MLOAD PUSH2 0x30E SWAP2 SWAP1 PUSH2 0x17DE JUMP JUMPDEST PUSH1 0x40 MLOAD DUP1 SWAP2 SUB SWAP1 RETURN JUMPDEST CALLVALUE DUP1 ISZERO PUSH2 0x323 JUMPI PUSH1 0x0 DUP1 REVERT JUMPDEST POP PUSH2 0x32C PUSH2 0x9B0 JUMP JUMPDEST PUSH1 0x40 MLOAD PUSH2 0x339 SWAP2 SWAP1 PUSH2 0x1718 JUMP JUMPDEST PUSH1 0x40 MLOAD DUP1 SWAP2 SUB SWAP1 RETURN JUMPDEST CALLVALUE DUP1 ISZERO PUSH2 0x34E JUMPI PUSH1 0x0 DUP1 REVERT JUMPDEST POP PUSH2 0x369 PUSH1 0x4 DUP1 CALLDATASIZE SUB DUP2 ADD SWAP1 PUSH2 0x364 SWAP2 SWAP1 PUSH2 0x193B JUMP JUMPDEST PUSH2 0xA42 JUMP JUMPDEST STOP JUMPDEST PUSH2 0x385 PUSH1 0x4 DUP1 CALLDATASIZE SUB DUP2 ADD SWAP1 PUSH2 0x380 SWAP2 SWAP1 PUSH2 0x1AB0 JUMP JUMPDEST PUSH2 0xB4D JUMP JUMPDEST STOP JUMPDEST CALLVALUE DUP1 ISZERO PUSH2 0x393 JUMPI PUSH1 0x0 DUP1 REVERT JUMPDEST POP PUSH2 0x3AE PUSH1 0x4 DUP1 CALLDATASIZE SUB DUP2 ADD SWAP1 PUSH2 0x3A9 SWAP2 SWAP1 PUSH2 0x1770 JUMP JUMPDEST PUSH2 0xB9F JUMP JUMPDEST PUSH1 0x40 MLOAD PUSH2 0x3BB SWAP2 SWAP1 PUSH2 0x1718 JUMP JUMPDEST PUSH1 0x40 MLOAD DUP1 SWAP2 SUB SWAP1 RETURN JUMPDEST CALLVALUE DUP1 ISZERO PUSH2 0x3D0 JUMPI PUSH1 0x0 DUP1 REVERT JUMPDEST POP PUSH2 0x3EB PUSH1 0x4 DUP1 CALLDATASIZE SUB DUP2 ADD SWAP1 PUSH2 0x3E6 SWAP2 SWAP1 PUSH2 0x1B33 JUMP JUMPDEST PUSH2 0xC23 JUMP JUMPDEST PUSH1 0x40 MLOAD PUSH2 0x3F8 SWAP2 SWAP1 PUSH2 0x166D JUMP JUMPDEST PUSH1 0x40 MLOAD DUP1 SWAP2 SUB SWAP1 RETURN JUMPDEST CALLVALUE DUP1 ISZERO PUSH2 0x40D JUMPI PUSH1 0x0 DUP1 REVERT JUMPDEST POP PUSH2 0x428 PUSH1 0x4 DUP1 CALLDATASIZE SUB DUP2 ADD SWAP1 PUSH2 0x423 SWAP2 SWAP1 PUSH2 0x18E2 JUMP JUMPDEST PUSH2 0xCB7 JUMP JUMPDEST STOP JUMPDEST PUSH1 0x0 PUSH4 0x1FFC9A7 PUSH1 0xE0 SHL DUP3 PUSH28 0xFFFFFFFFFFFFFFFFFFFFFFFFFFFFFFFFFFFFFFFFFFFFFFFFFFFFFFFF NOT AND EQ DUP1 PUSH2 0x485 JUMPI POP PUSH4 0x80AC58CD PUSH1 0xE0 SHL DUP3 PUSH28 0xFFFFFFFFFFFFFFFFFFFFFFFFFFFFFFFFFFFFFFFFFFFFFFFFFFFFFFFF NOT AND EQ JUMPDEST DUP1 PUSH2 0x4B5 JUMPI POP PUSH4 0x5B5E139F PUSH1 0xE0 SHL DUP3 PUSH28 0xFFFFFFFFFFFFFFFFFFFFFFFFFFFFFFFFFFFFFFFFFFFFFFFFFFFFFFFF NOT AND EQ JUMPDEST SWAP1 POP SWAP2 SWAP1 POP JUMP JUMPDEST PUSH1 0x60 PUSH1 0x2 DUP1 SLOAD PUSH2 0x4CB SWAP1 PUSH2 0x1BA2 JUMP JUMPDEST DUP1 PUSH1 0x1F ADD PUSH1 0x20 DUP1 SWAP2 DIV MUL PUSH1 0x20 ADD PUSH1 0x40 MLOAD SWAP1 DUP2 ADD PUSH1 0x40 MSTORE DUP1 SWAP3 SWAP2 SWAP1 DUP2 DUP2 MSTORE PUSH1 0x20 ADD DUP3 DUP1 SLOAD PUSH2 0x4F7 SWAP1 PUSH2 0x1BA2 JUMP JUMPDEST DUP1 ISZERO PUSH2 0x544 JUMPI DUP1 PUSH1 0x1F LT PUSH2 0x519 JUMPI PUSH2 0x100 DUP1 DUP4 SLOAD DIV MUL DUP4 MSTORE SWAP2 PUSH1 0x20 ADD SWAP2 PUSH2 0x544 JUMP JUMPDEST DUP3 ADD SWAP2 SWAP1 PUSH1 0x0 MSTORE PUSH1 0x20 PUSH1 0x0 KECCAK256 SWAP1 JUMPDEST DUP2 SLOAD DUP2 MSTORE SWAP1 PUSH1 0x1 ADD SWAP1 PUSH1 0x20 ADD DUP1 DUP4 GT PUSH2 0x527 JUMPI DUP3 SWAP1 SUB PUSH1 0x1F AND DUP3 ADD SWAP2 JUMPDEST POP POP POP POP POP SWAP1 POP SWAP1 JUMP JUMPDEST PUSH2 0x556 PUSH2 0xD3A JUMP JUMPDEST PUSH2 0x560 CALLER DUP3 PUSH2 0xDB8 JUMP JUMPDEST POP JUMP JUMPDEST PUSH1 0x0 PUSH2 0x56E DUP3 PUSH2 0xDD6 JUMP JUMPDEST PUSH2 0x583 JUMPI PUSH2 0x582 PUSH4 0xCF4700E4 PUSH1 0xE0 SHL PUSH2 0xE4F JUMP JUMPDEST JUMPDEST PUSH1 0x6 PUSH1 0x0 DUP4 DUP2 MSTORE PUSH1 0x20 ADD SWAP1 DUP2 MSTORE PUSH1 0x20 ADD PUSH1 0x0 KECCAK256 PUSH1 0x0 ADD PUSH1 0x0 SWAP1 SLOAD SWAP1 PUSH2 0x100 EXP SWAP1 DIV PUSH20 0xFFFFFFFFFFFFFFFFFFFFFFFFFFFFFFFFFFFFFFFF AND SWAP1 POP SWAP2 SWAP1 POP JUMP JUMPDEST PUSH2 0x5CD DUP3 DUP3 PUSH1 0x1 PUSH2 0xE59 JUMP JUMPDEST POP POP JUMP JUMPDEST PUSH1 0x0 PUSH2 0x5DB PUSH2 0xF88 JUMP JUMPDEST PUSH1 0x1 SLOAD PUSH1 0x0 SLOAD SUB SUB SWAP1 POP SWAP1 JUMP JUMPDEST PUSH1 0x0 PUSH2 0x5F3 DUP3 PUSH2 0xF8D JUMP JUMPDEST SWAP1 POP PUSH20 0xFFFFFFFFFFFFFFFFFFFFFFFFFFFFFFFFFFFFFFFF DUP5 PUSH20 0xFFFFFFFFFFFFFFFFFFFFFFFFFFFFFFFFFFFFFFFF AND AND SWAP4 POP DUP4 PUSH20 0xFFFFFFFFFFFFFFFFFFFFFFFFFFFFFFFFFFFFFFFF AND DUP2 PUSH20 0xFFFFFFFFFFFFFFFFFFFFFFFFFFFFFFFFFFFFFFFF AND EQ PUSH2 0x668 JUMPI PUSH2 0x667 PUSH4 0xA1148100 PUSH1 0xE0 SHL PUSH2 0xE4F JUMP JUMPDEST JUMPDEST PUSH1 0x0 DUP1 PUSH2 0x674 DUP5 PUSH2 0x1079 JUMP JUMPDEST SWAP2 POP SWAP2 POP PUSH2 0x68A DUP2 DUP8 PUSH2 0x685 PUSH2 0x10A0 JUMP JUMPDEST PUSH2 0x10A8 JUMP JUMPDEST PUSH2 0x6B5 JUMPI PUSH2 0x69F DUP7 PUSH2 0x69A PUSH2 0x10A0 JUMP JUMPDEST PUSH2 0xC23 JUMP JUMPDEST PUSH2 0x6B4 JUMPI PUSH2 0x6B3 PUSH4 0x59C896BE PUSH1 0xE0 SHL PUSH2 0xE4F JUMP JUMPDEST JUMPDEST JUMPDEST PUSH2 0x6C2 DUP7 DUP7 DUP7 PUSH1 0x1 PUSH2 0x10EC JUMP JUMPDEST DUP1 ISZERO PUSH2 0x6CD JUMPI PUSH1 0x0 DUP3 SSTORE JUMPDEST PUSH1 0x5 PUSH1 0x0 DUP8 PUSH20 0xFFFFFFFFFFFFFFFFFFFFFFFFFFFFFFFFFFFFFFFF AND PUSH20 0xFFFFFFFFFFFFFFFFFFFFFFFFFFFFFFFFFFFFFFFF AND DUP2 MSTORE PUSH1 0x20 ADD SWAP1 DUP2 MSTORE PUSH1 0x20 ADD PUSH1 0x0 KECCAK256 PUSH1 0x0 DUP2 SLOAD PUSH1 0x1 SWAP1 SUB SWAP2 SWAP1 POP DUP2 SWAP1 SSTORE POP PUSH1 0x5 PUSH1 0x0 DUP7 PUSH20 0xFFFFFFFFFFFFFFFFFFFFFFFFFFFFFFFFFFFFFFFF AND PUSH20 0xFFFFFFFFFFFFFFFFFFFFFFFFFFFFFFFFFFFFFFFF AND DUP2 MSTORE PUSH1 0x20 ADD SWAP1 DUP2 MSTORE PUSH1 0x20 ADD PUSH1 0x0 KECCAK256 PUSH1 0x0 DUP2 SLOAD PUSH1 0x1 ADD SWAP2 SWAP1 POP DUP2 SWAP1 SSTORE POP PUSH2 0x79B DUP6 PUSH2 0x777 DUP9 DUP9 DUP8 PUSH2 0x10F2 JUMP JUMPDEST PUSH29 0x200000000000000000000000000000000000000000000000000000000 OR PUSH2 0x111A JUMP JUMPDEST PUSH1 0x4 PUSH1 0x0 DUP7 DUP2 MSTORE PUSH1 0x20 ADD SWAP1 DUP2 MSTORE PUSH1 0x20 ADD PUSH1 0x0 KECCAK256 DUP2 SWAP1 SSTORE POP PUSH1 0x0 PUSH29 0x200000000000000000000000000000000000000000000000000000000 DUP5 AND SUB PUSH2 0x821 JUMPI PUSH1 0x0 PUSH1 0x1 DUP6 ADD SWAP1 POP PUSH1 0x0 PUSH1 0x4 PUSH1 0x0 DUP4 DUP2 MSTORE PUSH1 0x20 ADD SWAP1 DUP2 MSTORE PUSH1 0x20 ADD PUSH1 0x0 KECCAK256 SLOAD SUB PUSH2 0x81F JUMPI PUSH1 0x0 SLOAD DUP2 EQ PUSH2 0x81E JUMPI DUP4 PUSH1 0x4 PUSH1 0x0 DUP4 DUP2 MSTORE PUSH1 0x20 ADD SWAP1 DUP2 MSTORE PUSH1 0x20 ADD PUSH1 0x0 KECCAK256 DUP2 SWAP1 SSTORE POP JUMPDEST JUMPDEST POP JUMPDEST PUSH1 0x0 PUSH20 0xFFFFFFFFFFFFFFFFFFFFFFFFFFFFFFFFFFFFFFFF DUP7 PUSH20 0xFFFFFFFFFFFFFFFFFFFFFFFFFFFFFFFFFFFFFFFF AND AND SWAP1 POP DUP5 DUP2 DUP9 PUSH32 0xDDF252AD1BE2C89B69C2B068FC378DAA952BA7F163C4A11628F55A4DF523B3EF PUSH1 0x0 DUP1 LOG4 PUSH1 0x0 DUP2 SUB PUSH2 0x893 JUMPI PUSH2 0x892 PUSH4 0xEA553B34 PUSH1 0xE0 SHL PUSH2 0xE4F JUMP JUMPDEST JUMPDEST PUSH2 0x8A0 DUP8 DUP8 DUP8 PUSH1 0x1 PUSH2 0x1145 JUMP JUMPDEST POP POP POP POP POP POP POP JUMP JUMPDEST PUSH2 0x8C4 DUP4 DUP4 DUP4 PUSH1 0x40 MLOAD DUP1 PUSH1 0x20 ADD PUSH1 0x40 MSTORE DUP1 PUSH1 0x0 DUP2 MSTORE POP PUSH2 0xB4D JUMP JUMPDEST POP POP POP JUMP JUMPDEST PUSH1 0x0 PUSH2 0x8D4 DUP3 PUSH2 0xF8D JUMP JUMPDEST SWAP1 POP SWAP2 SWAP1 POP JUMP JUMPDEST PUSH1 0x0 DUP1 PUSH20 0xFFFFFFFFFFFFFFFFFFFFFFFFFFFFFFFFFFFFFFFF AND DUP3 PUSH20 0xFFFFFFFFFFFFFFFFFFFFFFFFFFFFFFFFFFFFFFFF AND SUB PUSH2 0x921 JUMPI PUSH2 0x920 PUSH4 0x8F4EB604 PUSH1 0xE0 SHL PUSH2 0xE4F JUMP JUMPDEST JUMPDEST PUSH8 0xFFFFFFFFFFFFFFFF PUSH1 0x5 PUSH1 0x0 DUP5 PUSH20 0xFFFFFFFFFFFFFFFFFFFFFFFFFFFFFFFFFFFFFFFF AND PUSH20 0xFFFFFFFFFFFFFFFFFFFFFFFFFFFFFFFFFFFFFFFF AND DUP2 MSTORE PUSH1 0x20 ADD SWAP1 DUP2 MSTORE PUSH1 0x20 ADD PUSH1 0x0 KECCAK256 SLOAD AND SWAP1 POP SWAP2 SWAP1 POP JUMP JUMPDEST PUSH2 0x97A PUSH2 0xD3A JUMP JUMPDEST PUSH2 0x984 PUSH1 0x0 PUSH2 0x114B JUMP JUMPDEST JUMP JUMPDEST PUSH1 0x0 PUSH1 0x8 PUSH1 0x0 SWAP1 SLOAD SWAP1 PUSH2 0x100 EXP SWAP1 DIV PUSH20 0xFFFFFFFFFFFFFFFFFFFFFFFFFFFFFFFFFFFFFFFF AND SWAP1 POP SWAP1 JUMP JUMPDEST PUSH1 0x60 PUSH1 0x3 DUP1 SLOAD PUSH2 0x9BF SWAP1 PUSH2 0x1BA2 JUMP JUMPDEST DUP1 PUSH1 0x1F ADD PUSH1 0x20 DUP1 SWAP2 DIV MUL PUSH1 0x20 ADD PUSH1 0x40 MLOAD SWAP1 DUP2 ADD PUSH1 0x40 MSTORE DUP1 SWAP3 SWAP2 SWAP1 DUP2 DUP2 MSTORE PUSH1 0x20 ADD DUP3 DUP1 SLOAD PUSH2 0x9EB SWAP1 PUSH2 0x1BA2 JUMP JUMPDEST DUP1 ISZERO PUSH2 0xA38 JUMPI DUP1 PUSH1 0x1F LT PUSH2 0xA0D JUMPI PUSH2 0x100 DUP1 DUP4 SLOAD DIV MUL DUP4 MSTORE SWAP2 PUSH1 0x20 ADD SWAP2 PUSH2 0xA38 JUMP JUMPDEST DUP3 ADD SWAP2 SWAP1 PUSH1 0x0 MSTORE PUSH1 0x20 PUSH1 0x0 KECCAK256 SWAP1 JUMPDEST DUP2 SLOAD DUP2 MSTORE SWAP1 PUSH1 0x1 ADD SWAP1 PUSH1 0x20 ADD DUP1 DUP4 GT PUSH2 0xA1B JUMPI DUP3 SWAP1 SUB PUSH1 0x1F AND DUP3 ADD SWAP2 JUMPDEST POP POP POP POP POP SWAP1 POP SWAP1 JUMP JUMPDEST DUP1 PUSH1 0x7 PUSH1 0x0 PUSH2 0xA4F PUSH2 0x10A0 JUMP JUMPDEST PUSH20 0xFFFFFFFFFFFFFFFFFFFFFFFFFFFFFFFFFFFFFFFF AND PUSH20 0xFFFFFFFFFFFFFFFFFFFFFFFFFFFFFFFFFFFFFFFF AND DUP2 MSTORE PUSH1 0x20 ADD SWAP1 DUP2 MSTORE PUSH1 0x20 ADD PUSH1 0x0 KECCAK256 PUSH1 0x0 DUP5 PUSH20 0xFFFFFFFFFFFFFFFFFFFFFFFFFFFFFFFFFFFFFFFF AND PUSH20 0xFFFFFFFFFFFFFFFFFFFFFFFFFFFFFFFFFFFFFFFF AND DUP2 MSTORE PUSH1 0x20 ADD SWAP1 DUP2 MSTORE PUSH1 0x20 ADD PUSH1 0x0 KECCAK256 PUSH1 0x0 PUSH2 0x100 EXP DUP2 SLOAD DUP2 PUSH1 0xFF MUL NOT AND SWAP1 DUP4 ISZERO ISZERO MUL OR SWAP1 SSTORE POP DUP2 PUSH20 0xFFFFFFFFFFFFFFFFFFFFFFFFFFFFFFFFFFFFFFFF AND PUSH2 0xAFC PUSH2 0x10A0 JUMP JUMPDEST PUSH20 0xFFFFFFFFFFFFFFFFFFFFFFFFFFFFFFFFFFFFFFFF AND PUSH32 0x17307EAB39AB6107E8899845AD3D59BD9653F200F220920489CA2B5937696C31 DUP4 PUSH1 0x40 MLOAD PUSH2 0xB41 SWAP2 SWAP1 PUSH2 0x166D JUMP JUMPDEST PUSH1 0x40 MLOAD DUP1 SWAP2 SUB SWAP1 LOG3 POP POP JUMP JUMPDEST PUSH2 0xB58 DUP5 DUP5 DUP5 PUSH2 0x5E8 JUMP JUMPDEST PUSH1 0x0 DUP4 PUSH20 0xFFFFFFFFFFFFFFFFFFFFFFFFFFFFFFFFFFFFFFFF AND EXTCODESIZE EQ PUSH2 0xB99 JUMPI PUSH2 0xB83 DUP5 DUP5 DUP5 DUP5 PUSH2 0x1211 JUMP JUMPDEST PUSH2 0xB98 JUMPI PUSH2 0xB97 PUSH4 0xD1A57ED6 PUSH1 0xE0 SHL PUSH2 0xE4F JUMP JUMPDEST JUMPDEST JUMPDEST POP POP POP POP JUMP JUMPDEST PUSH1 0x60 PUSH2 0xBAA DUP3 PUSH2 0xDD6 JUMP JUMPDEST PUSH2 0xBBF JUMPI PUSH2 0xBBE PUSH4 0xA14C4B50 PUSH1 0xE0 SHL PUSH2 0xE4F JUMP JUMPDEST JUMPDEST PUSH1 0x0 PUSH2 0xBC9 PUSH2 0x1340 JUMP JUMPDEST SWAP1 POP PUSH1 0x0 DUP2 MLOAD SUB PUSH2 0xBE9 JUMPI PUSH1 0x40 MLOAD DUP1 PUSH1 0x20 ADD PUSH1 0x40 MSTORE DUP1 PUSH1 0x0 DUP2 MSTORE POP PUSH2 0xC1B JUMP JUMPDEST PUSH2 0xBF1 PUSH2 0x1340 JUMP JUMPDEST PUSH2 0xBFA DUP5 PUSH2 0x1360 JUMP JUMPDEST PUSH1 0x40 MLOAD PUSH1 0x20 ADD PUSH2 0xC0B SWAP3 SWAP2 SWAP1 PUSH2 0x1C5B JUMP JUMPDEST PUSH1 0x40 MLOAD PUSH1 0x20 DUP2 DUP4 SUB SUB DUP2 MSTORE SWAP1 PUSH1 0x40 MSTORE JUMPDEST SWAP2 POP POP SWAP2 SWAP1 POP JUMP JUMPDEST PUSH1 0x0 PUSH1 0x7 PUSH1 0x0 DUP5 PUSH20 0xFFFFFFFFFFFFFFFFFFFFFFFFFFFFFFFFFFFFFFFF AND PUSH20 0xFFFFFFFFFFFFFFFFFFFFFFFFFFFFFFFFFFFFFFFF AND DUP2 MSTORE PUSH1 0x20 ADD SWAP1 DUP2 MSTORE PUSH1 0x20 ADD PUSH1 0x0 KECCAK256 PUSH1 0x0 DUP4 PUSH20 0xFFFFFFFFFFFFFFFFFFFFFFFFFFFFFFFFFFFFFFFF AND PUSH20 0xFFFFFFFFFFFFFFFFFFFFFFFFFFFFFFFFFFFFFFFF AND DUP2 MSTORE PUSH1 0x20 ADD SWAP1 DUP2 MSTORE PUSH1 0x20 ADD PUSH1 0x0 KECCAK256 PUSH1 0x0 SWAP1 SLOAD SWAP1 PUSH2 0x100 EXP SWAP1 DIV PUSH1 0xFF AND SWAP1 POP SWAP3 SWAP2 POP POP JUMP JUMPDEST PUSH2 0xCBF PUSH2 0xD3A JUMP JUMPDEST PUSH1 0x0 PUSH20 0xFFFFFFFFFFFFFFFFFFFFFFFFFFFFFFFFFFFFFFFF AND DUP2 PUSH20 0xFFFFFFFFFFFFFFFFFFFFFFFFFFFFFFFFFFFFFFFF AND SUB PUSH2 0xD2E JUMPI PUSH1 0x40 MLOAD PUSH32 0x8C379A000000000000000000000000000000000000000000000000000000000 DUP2 MSTORE PUSH1 0x4 ADD PUSH2 0xD25 SWAP1 PUSH2 0x1CFC JUMP JUMPDEST PUSH1 0x40 MLOAD DUP1 SWAP2 SUB SWAP1 REVERT JUMPDEST PUSH2 0xD37 DUP2 PUSH2 0x114B JUMP JUMPDEST POP JUMP JUMPDEST PUSH2 0xD42 PUSH2 0x13B0 JUMP JUMPDEST PUSH20 0xFFFFFFFFFFFFFFFFFFFFFFFFFFFFFFFFFFFFFFFF AND PUSH2 0xD60 PUSH2 0x986 JUMP JUMPDEST PUSH20 0xFFFFFFFFFFFFFFFFFFFFFFFFFFFFFFFFFFFFFFFF AND EQ PUSH2 0xDB6 JUMPI PUSH1 0x40 MLOAD PUSH32 0x8C379A000000000000000000000000000000000000000000000000000000000 DUP2 MSTORE PUSH1 0x4 ADD PUSH2 0xDAD SWAP1 PUSH2 0x1D68 JUMP JUMPDEST PUSH1 0x40 MLOAD DUP1 SWAP2 SUB SWAP1 REVERT JUMPDEST JUMP JUMPDEST PUSH2 0xDD2 DUP3 DUP3 PUSH1 0x40 MLOAD DUP1 PUSH1 0x20 ADD PUSH1 0x40 MSTORE DUP1 PUSH1 0x0 DUP2 MSTORE POP PUSH2 0x13B8 JUMP JUMPDEST POP POP JUMP JUMPDEST PUSH1 0x0 DUP2 PUSH2 0xDE1 PUSH2 0xF88 JUMP JUMPDEST GT PUSH2 0xE4A JUMPI PUSH1 0x0 SLOAD DUP3 LT ISZERO PUSH2 0xE49 JUMPI PUSH1 0x0 JUMPDEST PUSH1 0x0 PUSH1 0x4 PUSH1 0x0 DUP6 DUP2 MSTORE PUSH1 0x20 ADD SWAP1 DUP2 MSTORE PUSH1 0x20 ADD PUSH1 0x0 KECCAK256 SLOAD SWAP2 POP DUP2 SUB PUSH2 0xE22 JUMPI DUP3 PUSH2 0xE1B SWAP1 PUSH2 0x1DB7 JUMP JUMPDEST SWAP3 POP PUSH2 0xDF3 JUMP JUMPDEST PUSH1 0x0 PUSH29 0x100000000000000000000000000000000000000000000000000000000 DUP3 AND EQ SWAP2 POP POP JUMPDEST JUMPDEST SWAP2 SWAP1 POP JUMP JUMPDEST DUP1 PUSH1 0x0 MSTORE PUSH1 0x4 PUSH1 0x0 REVERT JUMPDEST PUSH1 0x0 PUSH2 0xE64 DUP4 PUSH2 0x8C9 JUMP JUMPDEST SWAP1 POP DUP2 DUP1 ISZERO PUSH2 0xEA6 JUMPI POP DUP1 PUSH20 0xFFFFFFFFFFFFFFFFFFFFFFFFFFFFFFFFFFFFFFFF AND PUSH2 0xE8D PUSH2 0x10A0 JUMP JUMPDEST PUSH20 0xFFFFFFFFFFFFFFFFFFFFFFFFFFFFFFFFFFFFFFFF AND EQ ISZERO JUMPDEST ISZERO PUSH2 0xED2 JUMPI PUSH2 0xEBC DUP2 PUSH2 0xEB7 PUSH2 0x10A0 JUMP JUMPDEST PUSH2 0xC23 JUMP JUMPDEST PUSH2 0xED1 JUMPI PUSH2 0xED0 PUSH4 0xCFB3B942 PUSH1 0xE0 SHL PUSH2 0xE4F JUMP JUMPDEST JUMPDEST JUMPDEST DUP4 PUSH1 0x6 PUSH1 0x0 DUP6 DUP2 MSTORE PUSH1 0x20 ADD SWAP1 DUP2 MSTORE PUSH1 0x20 ADD PUSH1 0x0 KECCAK256 PUSH1 0x0 ADD PUSH1 0x0 PUSH2 0x100 EXP DUP2 SLOAD DUP2 PUSH20 0xFFFFFFFFFFFFFFFFFFFFFFFFFFFFFFFFFFFFFFFF MUL NOT AND SWAP1 DUP4 PUSH20 0xFFFFFFFFFFFFFFFFFFFFFFFFFFFFFFFFFFFFFFFF AND MUL OR SWAP1 SSTORE POP DUP3 DUP5 PUSH20 0xFFFFFFFFFFFFFFFFFFFFFFFFFFFFFFFFFFFFFFFF AND DUP3 PUSH20 0xFFFFFFFFFFFFFFFFFFFFFFFFFFFFFFFFFFFFFFFF AND PUSH32 0x8C5BE1E5EBEC7D5BD14F71427D1E84F3DD0314C0F7B2291E5B200AC8C7C3B925 PUSH1 0x40 MLOAD PUSH1 0x40 MLOAD DUP1 SWAP2 SUB SWAP1 LOG4 POP POP POP POP JUMP JUMPDEST PUSH1 0x0 SWAP1 JUMP JUMPDEST PUSH1 0x0 DUP2 PUSH2 0xF98 PUSH2 0xF88 JUMP JUMPDEST GT PUSH2 0x1063 JUMPI PUSH1 0x4 PUSH1 0x0 DUP4 DUP2 MSTORE PUSH1 0x20 ADD SWAP1 DUP2 MSTORE PUSH1 0x20 ADD PUSH1 0x0 KECCAK256 SLOAD SWAP1 POP PUSH1 0x0 DUP2 SUB PUSH2 0x103A JUMPI PUSH1 0x0 SLOAD DUP3 LT PUSH2 0xFD5 JUMPI PUSH2 0xFD4 PUSH4 0xDF2D9B42 PUSH1 0xE0 SHL PUSH2 0xE4F JUMP JUMPDEST JUMPDEST JUMPDEST PUSH1 0x4 PUSH1 0x0 DUP4 PUSH1 0x1 SWAP1 SUB SWAP4 POP DUP4 DUP2 MSTORE PUSH1 0x20 ADD SWAP1 DUP2 MSTORE PUSH1 0x20 ADD PUSH1 0x0 KECCAK256 SLOAD SWAP1 POP PUSH1 0x0 DUP2 SUB ISZERO PUSH2 0x1035 JUMPI PUSH1 0x0 PUSH29 0x100000000000000000000000000000000000000000000000000000000 DUP3 AND SUB ISZERO PUSH2 0x1074 JUMPI PUSH2 0x1034 PUSH4 0xDF2D9B42 PUSH1 0xE0 SHL PUSH2 0xE4F JUMP JUMPDEST JUMPDEST PUSH2 0xFD6 JUMP JUMPDEST PUSH1 0x0 PUSH29 0x100000000000000000000000000000000000000000000000000000000 DUP3 AND SUB ISZERO PUSH2 0x1074 JUMPI JUMPDEST PUSH2 0x1073 PUSH4 0xDF2D9B42 PUSH1 0xE0 SHL PUSH2 0xE4F JUMP JUMPDEST JUMPDEST SWAP2 SWAP1 POP JUMP JUMPDEST PUSH1 0x0 DUP1 PUSH1 0x0 PUSH1 0x6 PUSH1 0x0 DUP6 DUP2 MSTORE PUSH1 0x20 ADD SWAP1 DUP2 MSTORE PUSH1 0x20 ADD PUSH1 0x0 KECCAK256 SWAP1 POP DUP1 SWAP3 POP DUP3 SLOAD SWAP2 POP POP SWAP2 POP SWAP2 JUMP JUMPDEST PUSH1 0x0 CALLER SWAP1 POP SWAP1 JUMP JUMPDEST PUSH1 0x0 PUSH20 0xFFFFFFFFFFFFFFFFFFFFFFFFFFFFFFFFFFFFFFFF DUP4 AND SWAP3 POP PUSH20 0xFFFFFFFFFFFFFFFFFFFFFFFFFFFFFFFFFFFFFFFF DUP3 AND SWAP2 POP DUP4 DUP3 EQ DUP4 DUP4 EQ OR SWAP1 POP SWAP4 SWAP3 POP POP POP JUMP JUMPDEST POP POP POP POP JUMP JUMPDEST PUSH1 0x0 DUP1 PUSH1 0xE8 DUP4 SWAP1 SHR SWAP1 POP PUSH1 0xE8 PUSH2 0x1109 DUP7 DUP7 DUP5 PUSH2 0x143D JUMP JUMPDEST PUSH3 0xFFFFFF AND SWAP1 SHL SWAP2 POP POP SWAP4 SWAP3 POP POP POP JUMP JUMPDEST PUSH1 0x0 PUSH20 0xFFFFFFFFFFFFFFFFFFFFFFFFFFFFFFFFFFFFFFFF DUP4 AND SWAP3 POP DUP2 TIMESTAMP PUSH1 0xA0 SHL OR DUP4 OR SWAP1 POP SWAP3 SWAP2 POP POP JUMP JUMPDEST POP POP POP POP JUMP JUMPDEST PUSH1 0x0 PUSH1 0x8 PUSH1 0x0 SWAP1 SLOAD SWAP1 PUSH2 0x100 EXP SWAP1 DIV PUSH20 0xFFFFFFFFFFFFFFFFFFFFFFFFFFFFFFFFFFFFFFFF AND SWAP1 POP DUP2 PUSH1 0x8 PUSH1 0x0 PUSH2 0x100 EXP DUP2 SLOAD DUP2 PUSH20 0xFFFFFFFFFFFFFFFFFFFFFFFFFFFFFFFFFFFFFFFF MUL NOT AND SWAP1 DUP4 PUSH20 0xFFFFFFFFFFFFFFFFFFFFFFFFFFFFFFFFFFFFFFFF AND MUL OR SWAP1 SSTORE POP DUP2 PUSH20 0xFFFFFFFFFFFFFFFFFFFFFFFFFFFFFFFFFFFFFFFF AND DUP2 PUSH20 0xFFFFFFFFFFFFFFFFFFFFFFFFFFFFFFFFFFFFFFFF AND PUSH32 0x8BE0079C531659141344CD1FD0A4F28419497F9722A3DAAFE3B4186F6B6457E0 PUSH1 0x40 MLOAD PUSH1 0x40 MLOAD DUP1 SWAP2 SUB SWAP1 LOG3 POP POP JUMP JUMPDEST PUSH1 0x0 DUP4 PUSH20 0xFFFFFFFFFFFFFFFFFFFFFFFFFFFFFFFFFFFFFFFF AND PUSH4 0x150B7A02 PUSH2 0x1237 PUSH2 0x10A0 JUMP JUMPDEST DUP8 DUP7 DUP7 PUSH1 0x40 MLOAD DUP6 PUSH4 0xFFFFFFFF AND PUSH1 0xE0 SHL DUP2 MSTORE PUSH1 0x4 ADD PUSH2 0x1259 SWAP5 SWAP4 SWAP3 SWAP2 SWAP1 PUSH2 0x1E35 JUMP JUMPDEST PUSH1 0x20 PUSH1 0x40 MLOAD DUP1 DUP4 SUB DUP2 PUSH1 0x0 DUP8 GAS CALL SWAP3 POP POP POP DUP1 ISZERO PUSH2 0x1295 JUMPI POP PUSH1 0x40 MLOAD RETURNDATASIZE PUSH1 0x1F NOT PUSH1 0x1F DUP3 ADD AND DUP3 ADD DUP1 PUSH1 0x40 MSTORE POP DUP2 ADD SWAP1 PUSH2 0x1292 SWAP2 SWAP1 PUSH2 0x1E96 JUMP JUMPDEST PUSH1 0x1 JUMPDEST PUSH2 0x12ED JUMPI RETURNDATASIZE DUP1 PUSH1 0x0 DUP2 EQ PUSH2 0x12C5 JUMPI PUSH1 0x40 MLOAD SWAP2 POP PUSH1 0x1F NOT PUSH1 0x3F RETURNDATASIZE ADD AND DUP3 ADD PUSH1 0x40 MSTORE RETURNDATASIZE DUP3 MSTORE RETURNDATASIZE PUSH1 0x0 PUSH1 0x20 DUP5 ADD RETURNDATACOPY PUSH2 0x12CA JUMP JUMPDEST PUSH1 0x60 SWAP2 POP JUMPDEST POP PUSH1 0x0 DUP2 MLOAD SUB PUSH2 0x12E5 JUMPI PUSH2 0x12E4 PUSH4 0xD1A57ED6 PUSH1 0xE0 SHL PUSH2 0xE4F JUMP JUMPDEST JUMPDEST DUP1 MLOAD DUP2 PUSH1 0x20 ADD REVERT JUMPDEST PUSH4 0x150B7A02 PUSH1 0xE0 SHL PUSH28 0xFFFFFFFFFFFFFFFFFFFFFFFFFFFFFFFFFFFFFFFFFFFFFFFFFFFFFFFF NOT AND DUP2 PUSH28 0xFFFFFFFFFFFFFFFFFFFFFFFFFFFFFFFFFFFFFFFFFFFFFFFFFFFFFFFF NOT AND EQ SWAP2 POP POP SWAP5 SWAP4 POP POP POP POP JUMP JUMPDEST PUSH1 0x60 PUSH1 0x40 MLOAD DUP1 PUSH1 0x60 ADD PUSH1 0x40 MSTORE DUP1 PUSH1 0x36 DUP2 MSTORE PUSH1 0x20 ADD PUSH2 0x1EC4 PUSH1 0x36 SWAP2 CODECOPY SWAP1 POP SWAP1 JUMP JUMPDEST PUSH1 0x60 PUSH1 0xA0 PUSH1 0x40 MLOAD ADD DUP1 PUSH1 0x40 MSTORE PUSH1 0x20 DUP2 SUB SWAP2 POP PUSH1 0x0 DUP3 MSTORE DUP2 DUP4 JUMPDEST PUSH1 0x1 ISZERO PUSH2 0x139B JUMPI PUSH1 0x1 DUP5 SUB SWAP4 POP PUSH1 0xA DUP2 MOD PUSH1 0x30 ADD DUP5 MSTORE8 PUSH1 0xA DUP2 DIV SWAP1 POP DUP1 PUSH2 0x1379 JUMPI JUMPDEST POP DUP3 DUP2 SUB PUSH1 0x20 DUP5 SUB SWAP4 POP DUP1 DUP5 MSTORE POP POP POP SWAP2 SWAP1 POP JUMP JUMPDEST PUSH1 0x0 CALLER SWAP1 POP SWAP1 JUMP JUMPDEST PUSH2 0x13C2 DUP4 DUP4 PUSH2 0x1446 JUMP JUMPDEST PUSH1 0x0 DUP4 PUSH20 0xFFFFFFFFFFFFFFFFFFFFFFFFFFFFFFFFFFFFFFFF AND EXTCODESIZE EQ PUSH2 0x1438 JUMPI PUSH1 0x0 DUP1 SLOAD SWAP1 POP PUSH1 0x0 DUP4 DUP3 SUB SWAP1 POP JUMPDEST PUSH2 0x1402 PUSH1 0x0 DUP7 DUP4 DUP1 PUSH1 0x1 ADD SWAP5 POP DUP7 PUSH2 0x1211 JUMP JUMPDEST PUSH2 0x1417 JUMPI PUSH2 0x1416 PUSH4 0xD1A57ED6 PUSH1 0xE0 SHL PUSH2 0xE4F JUMP JUMPDEST JUMPDEST DUP2 DUP2 LT PUSH2 0x13EF JUMPI DUP2 PUSH1 0x0 SLOAD EQ PUSH2 0x1435 JUMPI PUSH2 0x1434 PUSH1 0x0 PUSH1 0xE0 SHL PUSH2 0xE4F JUMP JUMPDEST JUMPDEST POP POP JUMPDEST POP POP POP JUMP JUMPDEST PUSH1 0x0 SWAP4 SWAP3 POP POP POP JUMP JUMPDEST PUSH1 0x0 DUP1 SLOAD SWAP1 POP PUSH1 0x0 DUP3 SUB PUSH2 0x1465 JUMPI PUSH2 0x1464 PUSH4 0xB562E8DD PUSH1 0xE0 SHL PUSH2 0xE4F JUMP JUMPDEST JUMPDEST PUSH2 0x1472 PUSH1 0x0 DUP5 DUP4 DUP6 PUSH2 0x10EC JUMP JUMPDEST PUSH2 0x1492 DUP4 PUSH2 0x1483 PUSH1 0x0 DUP7 PUSH1 0x0 PUSH2 0x10F2 JUMP JUMPDEST PUSH2 0x148C DUP6 PUSH2 0x15A9 JUMP JUMPDEST OR PUSH2 0x111A JUMP JUMPDEST PUSH1 0x4 PUSH1 0x0 DUP4 DUP2 MSTORE PUSH1 0x20 ADD SWAP1 DUP2 MSTORE PUSH1 0x20 ADD PUSH1 0x0 KECCAK256 DUP2 SWAP1 SSTORE POP PUSH1 0x1 PUSH1 0x40 PUSH1 0x1 SWAP1 SHL OR DUP3 MUL PUSH1 0x5 PUSH1 0x0 DUP6 PUSH20 0xFFFFFFFFFFFFFFFFFFFFFFFFFFFFFFFFFFFFFFFF AND PUSH20 0xFFFFFFFFFFFFFFFFFFFFFFFFFFFFFFFFFFFFFFFF AND DUP2 MSTORE PUSH1 0x20 ADD SWAP1 DUP2 MSTORE PUSH1 0x20 ADD PUSH1 0x0 KECCAK256 PUSH1 0x0 DUP3 DUP3 SLOAD ADD SWAP3 POP POP DUP2 SWAP1 SSTORE POP PUSH1 0x0 PUSH20 0xFFFFFFFFFFFFFFFFFFFFFFFFFFFFFFFFFFFFFFFF DUP5 PUSH20 0xFFFFFFFFFFFFFFFFFFFFFFFFFFFFFFFFFFFFFFFF AND AND SWAP1 POP PUSH1 0x0 DUP2 SUB PUSH2 0x154A JUMPI PUSH2 0x1549 PUSH4 0x2E076300 PUSH1 0xE0 SHL PUSH2 0xE4F JUMP JUMPDEST JUMPDEST PUSH1 0x0 DUP4 DUP4 ADD SWAP1 POP PUSH1 0x0 DUP4 SWAP1 POP JUMPDEST DUP1 DUP4 PUSH1 0x0 PUSH32 0xDDF252AD1BE2C89B69C2B068FC378DAA952BA7F163C4A11628F55A4DF523B3EF PUSH1 0x0 DUP1 LOG4 DUP2 DUP2 PUSH1 0x1 ADD SWAP2 POP DUP2 SUB PUSH2 0x1557 JUMPI DUP2 PUSH1 0x0 DUP2 SWAP1 SSTORE POP POP POP POP PUSH2 0x15A4 PUSH1 0x0 DUP5 DUP4 DUP6 PUSH2 0x1145 JUMP JUMPDEST POP POP POP JUMP JUMPDEST PUSH1 0x0 PUSH1 0x1 DUP3 EQ PUSH1 0xE1 SHL SWAP1 POP SWAP2 SWAP1 POP JUMP JUMPDEST PUSH1 0x0 PUSH1 0x40 MLOAD SWAP1 POP SWAP1 JUMP JUMPDEST PUSH1 0x0 DUP1 REVERT JUMPDEST PUSH1 0x0 DUP1 REVERT JUMPDEST PUSH1 0x0 PUSH32 0xFFFFFFFF00000000000000000000000000000000000000000000000000000000 DUP3 AND SWAP1 POP SWAP2 SWAP1 POP JUMP JUMPDEST PUSH2 0x1602 DUP2 PUSH2 0x15CD JUMP JUMPDEST DUP2 EQ PUSH2 0x160D JUMPI PUSH1 0x0 DUP1 REVERT JUMPDEST POP JUMP JUMPDEST PUSH1 0x0 DUP2 CALLDATALOAD SWAP1 POP PUSH2 0x161F DUP2 PUSH2 0x15F9 JUMP JUMPDEST SWAP3 SWAP2 POP POP JUMP JUMPDEST PUSH1 0x0 PUSH1 0x20 DUP3 DUP5 SUB SLT ISZERO PUSH2 0x163B JUMPI PUSH2 0x163A PUSH2 0x15C3 JUMP JUMPDEST JUMPDEST PUSH1 0x0 PUSH2 0x1649 DUP5 DUP3 DUP6 ADD PUSH2 0x1610 JUMP JUMPDEST SWAP2 POP POP SWAP3 SWAP2 POP POP JUMP JUMPDEST PUSH1 0x0 DUP2 ISZERO ISZERO SWAP1 POP SWAP2 SWAP1 POP JUMP JUMPDEST PUSH2 0x1667 DUP2 PUSH2 0x1652 JUMP JUMPDEST DUP3 MSTORE POP POP JUMP JUMPDEST PUSH1 0x0 PUSH1 0x20 DUP3 ADD SWAP1 POP PUSH2 0x1682 PUSH1 0x0 DUP4 ADD DUP5 PUSH2 0x165E JUMP JUMPDEST SWAP3 SWAP2 POP POP JUMP JUMPDEST PUSH1 0x0 DUP2 MLOAD SWAP1 POP SWAP2 SWAP1 POP JUMP JUMPDEST PUSH1 0x0 DUP3 DUP3 MSTORE PUSH1 0x20 DUP3 ADD SWAP1 POP SWAP3 SWAP2 POP POP JUMP JUMPDEST PUSH1 0x0 JUMPDEST DUP4 DUP2 LT ISZERO PUSH2 0x16C2 JUMPI DUP1 DUP3 ADD MLOAD DUP2 DUP5 ADD MSTORE PUSH1 0x20 DUP2 ADD SWAP1 POP PUSH2 0x16A7 JUMP JUMPDEST PUSH1 0x0 DUP5 DUP5 ADD MSTORE POP POP POP POP JUMP JUMPDEST PUSH1 0x0 PUSH1 0x1F NOT PUSH1 0x1F DUP4 ADD AND SWAP1 POP SWAP2 SWAP1 POP JUMP JUMPDEST PUSH1 0x0 PUSH2 0x16EA DUP3 PUSH2 0x1688 JUMP JUMPDEST PUSH2 0x16F4 DUP2 DUP6 PUSH2 0x1693 JUMP JUMPDEST SWAP4 POP PUSH2 0x1704 DUP2 DUP6 PUSH1 0x20 DUP7 ADD PUSH2 0x16A4 JUMP JUMPDEST PUSH2 0x170D DUP2 PUSH2 0x16CE JUMP JUMPDEST DUP5 ADD SWAP2 POP POP SWAP3 SWAP2 POP POP JUMP JUMPDEST PUSH1 0x0 PUSH1 0x20 DUP3 ADD SWAP1 POP DUP2 DUP2 SUB PUSH1 0x0 DUP4 ADD MSTORE PUSH2 0x1732 DUP2 DUP5 PUSH2 0x16DF JUMP JUMPDEST SWAP1 POP SWAP3 SWAP2 POP POP JUMP JUMPDEST PUSH1 0x0 DUP2 SWAP1 POP SWAP2 SWAP1 POP JUMP JUMPDEST PUSH2 0x174D DUP2 PUSH2 0x173A JUMP JUMPDEST DUP2 EQ PUSH2 0x1758 JUMPI PUSH1 0x0 DUP1 REVERT JUMPDEST POP JUMP JUMPDEST PUSH1 0x0 DUP2 CALLDATALOAD SWAP1 POP PUSH2 0x176A DUP2 PUSH2 0x1744 JUMP JUMPDEST SWAP3 SWAP2 POP POP JUMP JUMPDEST PUSH1 0x0 PUSH1 0x20 DUP3 DUP5 SUB SLT ISZERO PUSH2 0x1786 JUMPI PUSH2 0x1785 PUSH2 0x15C3 JUMP JUMPDEST JUMPDEST PUSH1 0x0 PUSH2 0x1794 DUP5 DUP3 DUP6 ADD PUSH2 0x175B JUMP JUMPDEST SWAP2 POP POP SWAP3 SWAP2 POP POP JUMP JUMPDEST PUSH1 0x0 PUSH20 0xFFFFFFFFFFFFFFFFFFFFFFFFFFFFFFFFFFFFFFFF DUP3 AND SWAP1 POP SWAP2 SWAP1 POP JUMP JUMPDEST PUSH1 0x0 PUSH2 0x17C8 DUP3 PUSH2 0x179D JUMP JUMPDEST SWAP1 POP SWAP2 SWAP1 POP JUMP JUMPDEST PUSH2 0x17D8 DUP2 PUSH2 0x17BD JUMP JUMPDEST DUP3 MSTORE POP POP JUMP JUMPDEST PUSH1 0x0 PUSH1 0x20 DUP3 ADD SWAP1 POP PUSH2 0x17F3 PUSH1 0x0 DUP4 ADD DUP5 PUSH2 0x17CF JUMP JUMPDEST SWAP3 SWAP2 POP POP JUMP JUMPDEST PUSH2 0x1802 DUP2 PUSH2 0x17BD JUMP JUMPDEST DUP2 EQ PUSH2 0x180D JUMPI PUSH1 0x0 DUP1 REVERT JUMPDEST POP JUMP JUMPDEST PUSH1 0x0 DUP2 CALLDATALOAD SWAP1 POP PUSH2 0x181F DUP2 PUSH2 0x17F9 JUMP JUMPDEST SWAP3 SWAP2 POP POP JUMP JUMPDEST PUSH1 0x0 DUP1 PUSH1 0x40 DUP4 DUP6 SUB SLT ISZERO PUSH2 0x183C JUMPI PUSH2 0x183B PUSH2 0x15C3 JUMP JUMPDEST JUMPDEST PUSH1 0x0 PUSH2 0x184A DUP6 DUP3 DUP7 ADD PUSH2 0x1810 JUMP JUMPDEST SWAP3 POP POP PUSH1 0x20 PUSH2 0x185B DUP6 DUP3 DUP7 ADD PUSH2 0x175B JUMP JUMPDEST SWAP2 POP POP SWAP3 POP SWAP3 SWAP1 POP JUMP JUMPDEST PUSH2 0x186E DUP2 PUSH2 0x173A JUMP JUMPDEST DUP3 MSTORE POP POP JUMP JUMPDEST PUSH1 0x0 PUSH1 0x20 DUP3 ADD SWAP1 POP PUSH2 0x1889 PUSH1 0x0 DUP4 ADD DUP5 PUSH2 0x1865 JUMP JUMPDEST SWAP3 SWAP2 POP POP JUMP JUMPDEST PUSH1 0x0 DUP1 PUSH1 0x0 PUSH1 0x60 DUP5 DUP7 SUB SLT ISZERO PUSH2 0x18A8 JUMPI PUSH2 0x18A7 PUSH2 0x15C3 JUMP JUMPDEST JUMPDEST PUSH1 0x0 PUSH2 0x18B6 DUP7 DUP3 DUP8 ADD PUSH2 0x1810 JUMP JUMPDEST SWAP4 POP POP PUSH1 0x20 PUSH2 0x18C7 DUP7 DUP3 DUP8 ADD PUSH2 0x1810 JUMP JUMPDEST SWAP3 POP POP PUSH1 0x40 PUSH2 0x18D8 DUP7 DUP3 DUP8 ADD PUSH2 0x175B JUMP JUMPDEST SWAP2 POP POP SWAP3 POP SWAP3 POP SWAP3 JUMP JUMPDEST PUSH1 0x0 PUSH1 0x20 DUP3 DUP5 SUB SLT ISZERO PUSH2 0x18F8 JUMPI PUSH2 0x18F7 PUSH2 0x15C3 JUMP JUMPDEST JUMPDEST PUSH1 0x0 PUSH2 0x1906 DUP5 DUP3 DUP6 ADD PUSH2 0x1810 JUMP JUMPDEST SWAP2 POP POP SWAP3 SWAP2 POP POP JUMP JUMPDEST PUSH2 0x1918 DUP2 PUSH2 0x1652 JUMP JUMPDEST DUP2 EQ PUSH2 0x1923 JUMPI PUSH1 0x0 DUP1 REVERT JUMPDEST POP JUMP JUMPDEST PUSH1 0x0 DUP2 CALLDATALOAD SWAP1 POP PUSH2 0x1935 DUP2 PUSH2 0x190F JUMP JUMPDEST SWAP3 SWAP2 POP POP JUMP JUMPDEST PUSH1 0x0 DUP1 PUSH1 0x40 DUP4 DUP6 SUB SLT ISZERO PUSH2 0x1952 JUMPI PUSH2 0x1951 PUSH2 0x15C3 JUMP JUMPDEST JUMPDEST PUSH1 0x0 PUSH2 0x1960 DUP6 DUP3 DUP7 ADD PUSH2 0x1810 JUMP JUMPDEST SWAP3 POP POP PUSH1 0x20 PUSH2 0x1971 DUP6 DUP3 DUP7 ADD PUSH2 0x1926 JUMP JUMPDEST SWAP2 POP POP SWAP3 POP SWAP3 SWAP1 POP JUMP JUMPDEST PUSH1 0x0 DUP1 REVERT JUMPDEST PUSH1 0x0 DUP1 REVERT JUMPDEST PUSH32 0x4E487B7100000000000000000000000000000000000000000000000000000000 PUSH1 0x0 MSTORE PUSH1 0x41 PUSH1 0x4 MSTORE PUSH1 0x24 PUSH1 0x0 REVERT JUMPDEST PUSH2 0x19BD DUP3 PUSH2 0x16CE JUMP JUMPDEST DUP2 ADD DUP2 DUP2 LT PUSH8 0xFFFFFFFFFFFFFFFF DUP3 GT OR ISZERO PUSH2 0x19DC JUMPI PUSH2 0x19DB PUSH2 0x1985 JUMP JUMPDEST JUMPDEST DUP1 PUSH1 0x40 MSTORE POP POP POP JUMP JUMPDEST PUSH1 0x0 PUSH2 0x19EF PUSH2 0x15B9 JUMP JUMPDEST SWAP1 POP PUSH2 0x19FB DUP3 DUP3 PUSH2 0x19B4 JUMP JUMPDEST SWAP2 SWAP1 POP JUMP JUMPDEST PUSH1 0x0 PUSH8 0xFFFFFFFFFFFFFFFF DUP3 GT ISZERO PUSH2 0x1A1B JUMPI PUSH2 0x1A1A PUSH2 0x1985 JUMP JUMPDEST JUMPDEST PUSH2 0x1A24 DUP3 PUSH2 0x16CE JUMP JUMPDEST SWAP1 POP PUSH1 0x20 DUP2 ADD SWAP1 POP SWAP2 SWAP1 POP JUMP JUMPDEST DUP3 DUP2 DUP4 CALLDATACOPY PUSH1 0x0 DUP4 DUP4 ADD MSTORE POP POP POP JUMP JUMPDEST PUSH1 0x0 PUSH2 0x1A53 PUSH2 0x1A4E DUP5 PUSH2 0x1A00 JUMP JUMPDEST PUSH2 0x19E5 JUMP JUMPDEST SWAP1 POP DUP3 DUP2 MSTORE PUSH1 0x20 DUP2 ADD DUP5 DUP5 DUP5 ADD GT ISZERO PUSH2 0x1A6F JUMPI PUSH2 0x1A6E PUSH2 0x1980 JUMP JUMPDEST JUMPDEST PUSH2 0x1A7A DUP5 DUP3 DUP6 PUSH2 0x1A31 JUMP JUMPDEST POP SWAP4 SWAP3 POP POP POP JUMP JUMPDEST PUSH1 0x0 DUP3 PUSH1 0x1F DUP4 ADD SLT PUSH2 0x1A97 JUMPI PUSH2 0x1A96 PUSH2 0x197B JUMP JUMPDEST JUMPDEST DUP2 CALLDATALOAD PUSH2 0x1AA7 DUP5 DUP3 PUSH1 0x20 DUP7 ADD PUSH2 0x1A40 JUMP JUMPDEST SWAP2 POP POP SWAP3 SWAP2 POP POP JUMP JUMPDEST PUSH1 0x0 DUP1 PUSH1 0x0 DUP1 PUSH1 0x80 DUP6 DUP8 SUB SLT ISZERO PUSH2 0x1ACA JUMPI PUSH2 0x1AC9 PUSH2 0x15C3 JUMP JUMPDEST JUMPDEST PUSH1 0x0 PUSH2 0x1AD8 DUP8 DUP3 DUP9 ADD PUSH2 0x1810 JUMP JUMPDEST SWAP5 POP POP PUSH1 0x20 PUSH2 0x1AE9 DUP8 DUP3 DUP9 ADD PUSH2 0x1810 JUMP JUMPDEST SWAP4 POP POP PUSH1 0x40 PUSH2 0x1AFA DUP8 DUP3 DUP9 ADD PUSH2 0x175B JUMP JUMPDEST SWAP3 POP POP PUSH1 0x60 DUP6 ADD CALLDATALOAD PUSH8 0xFFFFFFFFFFFFFFFF DUP2 GT ISZERO PUSH2 0x1B1B JUMPI PUSH2 0x1B1A PUSH2 0x15C8 JUMP JUMPDEST JUMPDEST PUSH2 0x1B27 DUP8 DUP3 DUP9 ADD PUSH2 0x1A82 JUMP JUMPDEST SWAP2 POP POP SWAP3 SWAP6 SWAP2 SWAP5 POP SWAP3 POP JUMP JUMPDEST PUSH1 0x0 DUP1 PUSH1 0x40 DUP4 DUP6 SUB SLT ISZERO PUSH2 0x1B4A JUMPI PUSH2 0x1B49 PUSH2 0x15C3 JUMP JUMPDEST JUMPDEST PUSH1 0x0 PUSH2 0x1B58 DUP6 DUP3 DUP7 ADD PUSH2 0x1810 JUMP JUMPDEST SWAP3 POP POP PUSH1 0x20 PUSH2 0x1B69 DUP6 DUP3 DUP7 ADD PUSH2 0x1810 JUMP JUMPDEST SWAP2 POP POP SWAP3 POP SWAP3 SWAP1 POP JUMP JUMPDEST PUSH32 0x4E487B7100000000000000000000000000000000000000000000000000000000 PUSH1 0x0 MSTORE PUSH1 0x22 PUSH1 0x4 MSTORE PUSH1 0x24 PUSH1 0x0 REVERT JUMPDEST PUSH1 0x0 PUSH1 0x2 DUP3 DIV SWAP1 POP PUSH1 0x1 DUP3 AND DUP1 PUSH2 0x1BBA JUMPI PUSH1 0x7F DUP3 AND SWAP2 POP JUMPDEST PUSH1 0x20 DUP3 LT DUP2 SUB PUSH2 0x1BCD JUMPI PUSH2 0x1BCC PUSH2 0x1B73 JUMP JUMPDEST JUMPDEST POP SWAP2 SWAP1 POP JUMP JUMPDEST PUSH1 0x0 DUP2 SWAP1 POP SWAP3 SWAP2 POP POP JUMP JUMPDEST PUSH1 0x0 PUSH2 0x1BE9 DUP3 PUSH2 0x1688 JUMP JUMPDEST PUSH2 0x1BF3 DUP2 DUP6 PUSH2 0x1BD3 JUMP JUMPDEST SWAP4 POP PUSH2 0x1C03 DUP2 DUP6 PUSH1 0x20 DUP7 ADD PUSH2 0x16A4 JUMP JUMPDEST DUP1 DUP5 ADD SWAP2 POP POP SWAP3 SWAP2 POP POP JUMP JUMPDEST PUSH32 0x2E6A736F6E000000000000000000000000000000000000000000000000000000 PUSH1 0x0 DUP3 ADD MSTORE POP JUMP JUMPDEST PUSH1 0x0 PUSH2 0x1C45 PUSH1 0x5 DUP4 PUSH2 0x1BD3 JUMP JUMPDEST SWAP2 POP PUSH2 0x1C50 DUP3 PUSH2 0x1C0F JUMP JUMPDEST PUSH1 0x5 DUP3 ADD SWAP1 POP SWAP2 SWAP1 POP JUMP JUMPDEST PUSH1 0x0 PUSH2 0x1C67 DUP3 DUP6 PUSH2 0x1BDE JUMP JUMPDEST SWAP2 POP PUSH2 0x1C73 DUP3 DUP5 PUSH2 0x1BDE JUMP JUMPDEST SWAP2 POP PUSH2 0x1C7E DUP3 PUSH2 0x1C38 JUMP JUMPDEST SWAP2 POP DUP2 SWAP1 POP SWAP4 SWAP3 POP POP POP JUMP JUMPDEST PUSH32 0x4F776E61626C653A206E6577206F776E657220697320746865207A65726F2061 PUSH1 0x0 DUP3 ADD MSTORE PUSH32 0x6464726573730000000000000000000000000000000000000000000000000000 PUSH1 0x20 DUP3 ADD MSTORE POP JUMP JUMPDEST PUSH1 0x0 PUSH2 0x1CE6 PUSH1 0x26 DUP4 PUSH2 0x1693 JUMP JUMPDEST SWAP2 POP PUSH2 0x1CF1 DUP3 PUSH2 0x1C8A JUMP JUMPDEST PUSH1 0x40 DUP3 ADD SWAP1 POP SWAP2 SWAP1 POP JUMP JUMPDEST PUSH1 0x0 PUSH1 0x20 DUP3 ADD SWAP1 POP DUP2 DUP2 SUB PUSH1 0x0 DUP4 ADD MSTORE PUSH2 0x1D15 DUP2 PUSH2 0x1CD9 JUMP JUMPDEST SWAP1 POP SWAP2 SWAP1 POP JUMP JUMPDEST PUSH32 0x4F776E61626C653A2063616C6C6572206973206E6F7420746865206F776E6572 PUSH1 0x0 DUP3 ADD MSTORE POP JUMP JUMPDEST PUSH1 0x0 PUSH2 0x1D52 PUSH1 0x20 DUP4 PUSH2 0x1693 JUMP JUMPDEST SWAP2 POP PUSH2 0x1D5D DUP3 PUSH2 0x1D1C JUMP JUMPDEST PUSH1 0x20 DUP3 ADD SWAP1 POP SWAP2 SWAP1 POP JUMP JUMPDEST PUSH1 0x0 PUSH1 0x20 DUP3 ADD SWAP1 POP DUP2 DUP2 SUB PUSH1 0x0 DUP4 ADD MSTORE PUSH2 0x1D81 DUP2 PUSH2 0x1D45 JUMP JUMPDEST SWAP1 POP SWAP2 SWAP1 POP JUMP JUMPDEST PUSH32 0x4E487B7100000000000000000000000000000000000000000000000000000000 PUSH1 0x0 MSTORE PUSH1 0x11 PUSH1 0x4 MSTORE PUSH1 0x24 PUSH1 0x0 REVERT JUMPDEST PUSH1 0x0 PUSH2 0x1DC2 DUP3 PUSH2 0x173A JUMP JUMPDEST SWAP2 POP PUSH1 0x0 DUP3 SUB PUSH2 0x1DD5 JUMPI PUSH2 0x1DD4 PUSH2 0x1D88 JUMP JUMPDEST JUMPDEST PUSH1 0x1 DUP3 SUB SWAP1 POP SWAP2 SWAP1 POP JUMP JUMPDEST PUSH1 0x0 DUP2 MLOAD SWAP1 POP SWAP2 SWAP1 POP JUMP JUMPDEST PUSH1 0x0 DUP3 DUP3 MSTORE PUSH1 0x20 DUP3 ADD SWAP1 POP SWAP3 SWAP2 POP POP JUMP JUMPDEST PUSH1 0x0 PUSH2 0x1E07 DUP3 PUSH2 0x1DE0 JUMP JUMPDEST PUSH2 0x1E11 DUP2 DUP6 PUSH2 0x1DEB JUMP JUMPDEST SWAP4 POP PUSH2 0x1E21 DUP2 DUP6 PUSH1 0x20 DUP7 ADD PUSH2 0x16A4 JUMP JUMPDEST PUSH2 0x1E2A DUP2 PUSH2 0x16CE JUMP JUMPDEST DUP5 ADD SWAP2 POP POP SWAP3 SWAP2 POP POP JUMP JUMPDEST PUSH1 0x0 PUSH1 0x80 DUP3 ADD SWAP1 POP PUSH2 0x1E4A PUSH1 0x0 DUP4 ADD DUP8 PUSH2 0x17CF JUMP JUMPDEST PUSH2 0x1E57 PUSH1 0x20 DUP4 ADD DUP7 PUSH2 0x17CF JUMP JUMPDEST PUSH2 0x1E64 PUSH1 0x40 DUP4 ADD DUP6 PUSH2 0x1865 JUMP JUMPDEST DUP2 DUP2 SUB PUSH1 0x60 DUP4 ADD MSTORE PUSH2 0x1E76 DUP2 DUP5 PUSH2 0x1DFC JUMP JUMPDEST SWAP1 POP SWAP6 SWAP5 POP POP POP POP POP JUMP JUMPDEST PUSH1 0x0 DUP2 MLOAD SWAP1 POP PUSH2 0x1E90 DUP2 PUSH2 0x15F9 JUMP JUMPDEST SWAP3 SWAP2 POP POP JUMP JUMPDEST PUSH1 0x0 PUSH1 0x20 DUP3 DUP5 SUB SLT ISZERO PUSH2 0x1EAC JUMPI PUSH2 0x1EAB PUSH2 0x15C3 JUMP JUMPDEST JUMPDEST PUSH1 0x0 PUSH2 0x1EBA DUP5 DUP3 DUP6 ADD PUSH2 0x1E81 JUMP JUMPDEST SWAP2 POP POP SWAP3 SWAP2 POP POP JUMP INVALID PUSH10 0x7066733A2F2F516D6163 CODESIZE CODECOPY PUSH20 0x5A545347764B6B795961327672786452616B5052 GASLIMIT PUSH2 0x4746 0x4A MSTORE8 0x4E 0x4A MSTORE MSTORE JUMPI PUSH6 0x747A544C5154 0x4D 0x2F LOG2 PUSH5 0x6970667358 0x22 SLT KECCAK256 SHR GASPRICE POP PUSH30 0x7EF27E5B7D6872CCF0730EEFC86A7D7AED8526C7CF27498D5ED035B6473 PUSH16 0x6C634300081200330000000000000000 "
		},
		"gasEstimates": {
			"creation": {
				"codeDepositCost": "1596600",
				"executionCost": "infinite",
				"totalCost": "infinite"
			},
			"external": {
				"Mint(uint256)": "infinite",
				"approve(address,uint256)": "infinite",
				"balanceOf(address)": "2905",
				"getApproved(uint256)": "infinite",
				"isApprovedForAll(address,address)": "infinite",
				"name()": "infinite",
				"owner()": "2589",
				"ownerOf(uint256)": "infinite",
				"renounceOwnership()": "30443",
				"safeTransferFrom(address,address,uint256)": "infinite",
				"safeTransferFrom(address,address,uint256,bytes)": "infinite",
				"setApprovalForAll(address,bool)": "infinite",
				"supportsInterface(bytes4)": "745",
				"symbol()": "infinite",
				"tokenURI(uint256)": "infinite",
				"totalSupply()": "4621",
				"transferFrom(address,address,uint256)": "infinite",
				"transferOwnership(address)": "30854"
			},
			"internal": {
				"_baseURI()": "infinite"
			}
		},
		"methodIdentifiers": {
			"Mint(uint256)": "07883703",
			"approve(address,uint256)": "095ea7b3",
			"balanceOf(address)": "70a08231",
			"getApproved(uint256)": "081812fc",
			"isApprovedForAll(address,address)": "e985e9c5",
			"name()": "06fdde03",
			"owner()": "8da5cb5b",
			"ownerOf(uint256)": "6352211e",
			"renounceOwnership()": "715018a6",
			"safeTransferFrom(address,address,uint256)": "42842e0e",
			"safeTransferFrom(address,address,uint256,bytes)": "b88d4fde",
			"setApprovalForAll(address,bool)": "a22cb465",
			"supportsInterface(bytes4)": "01ffc9a7",
			"symbol()": "95d89b41",
			"tokenURI(uint256)": "c87b56dd",
			"totalSupply()": "18160ddd",
			"transferFrom(address,address,uint256)": "23b872dd",
			"transferOwnership(address)": "f2fde38b"
		}
	},
	"abi": [
		{
			"inputs": [],
			"stateMutability": "nonpayable",
			"type": "constructor"
		},
		{
			"inputs": [],
			"name": "ApprovalCallerNotOwnerNorApproved",
			"type": "error"
		},
		{
			"inputs": [],
			"name": "ApprovalQueryForNonexistentToken",
			"type": "error"
		},
		{
			"inputs": [],
			"name": "BalanceQueryForZeroAddress",
			"type": "error"
		},
		{
			"inputs": [],
			"name": "MintERC2309QuantityExceedsLimit",
			"type": "error"
		},
		{
			"inputs": [],
			"name": "MintToZeroAddress",
			"type": "error"
		},
		{
			"inputs": [],
			"name": "MintZeroQuantity",
			"type": "error"
		},
		{
			"inputs": [],
			"name": "OwnerQueryForNonexistentToken",
			"type": "error"
		},
		{
			"inputs": [],
			"name": "OwnershipNotInitializedForExtraData",
			"type": "error"
		},
		{
			"inputs": [],
			"name": "TransferCallerNotOwnerNorApproved",
			"type": "error"
		},
		{
			"inputs": [],
			"name": "TransferFromIncorrectOwner",
			"type": "error"
		},
		{
			"inputs": [],
			"name": "TransferToNonERC721ReceiverImplementer",
			"type": "error"
		},
		{
			"inputs": [],
			"name": "TransferToZeroAddress",
			"type": "error"
		},
		{
			"inputs": [],
			"name": "URIQueryForNonexistentToken",
			"type": "error"
		},
		{
			"anonymous": false,
			"inputs": [
				{
					"indexed": true,
					"internalType": "address",
					"name": "owner",
					"type": "address"
				},
				{
					"indexed": true,
					"internalType": "address",
					"name": "approved",
					"type": "address"
				},
				{
					"indexed": true,
					"internalType": "uint256",
					"name": "tokenId",
					"type": "uint256"
				}
			],
			"name": "Approval",
			"type": "event"
		},
		{
			"anonymous": false,
			"inputs": [
				{
					"indexed": true,
					"internalType": "address",
					"name": "owner",
					"type": "address"
				},
				{
					"indexed": true,
					"internalType": "address",
					"name": "operator",
					"type": "address"
				},
				{
					"indexed": false,
					"internalType": "bool",
					"name": "approved",
					"type": "bool"
				}
			],
			"name": "ApprovalForAll",
			"type": "event"
		},
		{
			"anonymous": false,
			"inputs": [
				{
					"indexed": true,
					"internalType": "uint256",
					"name": "fromTokenId",
					"type": "uint256"
				},
				{
					"indexed": false,
					"internalType": "uint256",
					"name": "toTokenId",
					"type": "uint256"
				},
				{
					"indexed": true,
					"internalType": "address",
					"name": "from",
					"type": "address"
				},
				{
					"indexed": true,
					"internalType": "address",
					"name": "to",
					"type": "address"
				}
			],
			"name": "ConsecutiveTransfer",
			"type": "event"
		},
		{
			"anonymous": false,
			"inputs": [
				{
					"indexed": true,
					"internalType": "address",
					"name": "previousOwner",
					"type": "address"
				},
				{
					"indexed": true,
					"internalType": "address",
					"name": "newOwner",
					"type": "address"
				}
			],
			"name": "OwnershipTransferred",
			"type": "event"
		},
		{
			"anonymous": false,
			"inputs": [
				{
					"indexed": true,
					"internalType": "address",
					"name": "from",
					"type": "address"
				},
				{
					"indexed": true,
					"internalType": "address",
					"name": "to",
					"type": "address"
				},
				{
					"indexed": true,
					"internalType": "uint256",
					"name": "tokenId",
					"type": "uint256"
				}
			],
			"name": "Transfer",
			"type": "event"
		},
		{
			"inputs": [
				{
					"internalType": "uint256",
					"name": "n",
					"type": "uint256"
				}
			],
			"name": "Mint",
			"outputs": [],
			"stateMutability": "nonpayable",
			"type": "function"
		},
		{
			"inputs": [
				{
					"internalType": "address",
					"name": "to",
					"type": "address"
				},
				{
					"internalType": "uint256",
					"name": "tokenId",
					"type": "uint256"
				}
			],
			"name": "approve",
			"outputs": [],
			"stateMutability": "payable",
			"type": "function"
		},
		{
			"inputs": [
				{
					"internalType": "address",
					"name": "owner",
					"type": "address"
				}
			],
			"name": "balanceOf",
			"outputs": [
				{
					"internalType": "uint256",
					"name": "",
					"type": "uint256"
				}
			],
			"stateMutability": "view",
			"type": "function"
		},
		{
			"inputs": [
				{
					"internalType": "uint256",
					"name": "tokenId",
					"type": "uint256"
				}
			],
			"name": "getApproved",
			"outputs": [
				{
					"internalType": "address",
					"name": "",
					"type": "address"
				}
			],
			"stateMutability": "view",
			"type": "function"
		},
		{
			"inputs": [
				{
					"internalType": "address",
					"name": "owner",
					"type": "address"
				},
				{
					"internalType": "address",
					"name": "operator",
					"type": "address"
				}
			],
			"name": "isApprovedForAll",
			"outputs": [
				{
					"internalType": "bool",
					"name": "",
					"type": "bool"
				}
			],
			"stateMutability": "view",
			"type": "function"
		},
		{
			"inputs": [],
			"name": "name",
			"outputs": [
				{
					"internalType": "string",
					"name": "",
					"type": "string"
				}
			],
			"stateMutability": "view",
			"type": "function"
		},
		{
			"inputs": [],
			"name": "owner",
			"outputs": [
				{
					"internalType": "address",
					"name": "",
					"type": "address"
				}
			],
			"stateMutability": "view",
			"type": "function"
		},
		{
			"inputs": [
				{
					"internalType": "uint256",
					"name": "tokenId",
					"type": "uint256"
				}
			],
			"name": "ownerOf",
			"outputs": [
				{
					"internalType": "address",
					"name": "",
					"type": "address"
				}
			],
			"stateMutability": "view",
			"type": "function"
		},
		{
			"inputs": [],
			"name": "renounceOwnership",
			"outputs": [],
			"stateMutability": "nonpayable",
			"type": "function"
		},
		{
			"inputs": [
				{
					"internalType": "address",
					"name": "from",
					"type": "address"
				},
				{
					"internalType": "address",
					"name": "to",
					"type": "address"
				},
				{
					"internalType": "uint256",
					"name": "tokenId",
					"type": "uint256"
				}
			],
			"name": "safeTransferFrom",
			"outputs": [],
			"stateMutability": "payable",
			"type": "function"
		},
		{
			"inputs": [
				{
					"internalType": "address",
					"name": "from",
					"type": "address"
				},
				{
					"internalType": "address",
					"name": "to",
					"type": "address"
				},
				{
					"internalType": "uint256",
					"name": "tokenId",
					"type": "uint256"
				},
				{
					"internalType": "bytes",
					"name": "_data",
					"type": "bytes"
				}
			],
			"name": "safeTransferFrom",
			"outputs": [],
			"stateMutability": "payable",
			"type": "function"
		},
		{
			"inputs": [
				{
					"internalType": "address",
					"name": "operator",
					"type": "address"
				},
				{
					"internalType": "bool",
					"name": "approved",
					"type": "bool"
				}
			],
			"name": "setApprovalForAll",
			"outputs": [],
			"stateMutability": "nonpayable",
			"type": "function"
		},
		{
			"inputs": [
				{
					"internalType": "bytes4",
					"name": "interfaceId",
					"type": "bytes4"
				}
			],
			"name": "supportsInterface",
			"outputs": [
				{
					"internalType": "bool",
					"name": "",
					"type": "bool"
				}
			],
			"stateMutability": "view",
			"type": "function"
		},
		{
			"inputs": [],
			"name": "symbol",
			"outputs": [
				{
					"internalType": "string",
					"name": "",
					"type": "string"
				}
			],
			"stateMutability": "view",
			"type": "function"
		},
		{
			"inputs": [
				{
					"internalType": "uint256",
					"name": "tokenId",
					"type": "uint256"
				}
			],
			"name": "tokenURI",
			"outputs": [
				{
					"internalType": "string",
					"name": "",
					"type": "string"
				}
			],
			"stateMutability": "view",
			"type": "function"
		},
		{
			"inputs": [],
			"name": "totalSupply",
			"outputs": [
				{
					"internalType": "uint256",
					"name": "",
					"type": "uint256"
				}
			],
			"stateMutability": "view",
			"type": "function"
		},
		{
			"inputs": [
				{
					"internalType": "address",
					"name": "from",
					"type": "address"
				},
				{
					"internalType": "address",
					"name": "to",
					"type": "address"
				},
				{
					"internalType": "uint256",
					"name": "tokenId",
					"type": "uint256"
				}
			],
			"name": "transferFrom",
			"outputs": [],
			"stateMutability": "payable",
			"type": "function"
		},
		{
			"inputs": [
				{
					"internalType": "address",
					"name": "newOwner",
					"type": "address"
				}
			],
			"name": "transferOwnership",
			"outputs": [],
			"stateMutability": "nonpayable",
			"type": "function"
		}
	]
}