{
	"data": {
		"bytecode": {
			"linkReferences": {},
			"object": "608060405234801561001057600080fd5b506104e7806100206000396000f3fe608060405234801561001057600080fd5b50600436106100415760003560e01c806309762b9c146100465780630cb8ea3114610064578063f48ed29314610082575b600080fd5b61004e6100a0565b60405161005b9190610215565b60405180910390f35b61006c610114565b6040516100799190610215565b60405180910390f35b61008a610188565b6040516100979190610215565b60405180910390f35b600060026040516020016100b3906102d3565b6040516020818303038152906040526040516100cf9190610364565b602060405180830381855afa1580156100ec573d6000803e3d6000fd5b5050506040513d601f19601f8201168201806040525081019061010f91906103ac565b905090565b6000600260405160200161012790610471565b6040516020818303038152906040526040516101439190610364565b602060405180830381855afa158015610160573d6000803e3d6000fd5b5050506040513d601f19601f8201168201806040525081019061018391906103ac565b905090565b6000600260405160200161019b90610491565b6040516020818303038152906040526040516101b79190610364565b602060405180830381855afa1580156101d4573d6000803e3d6000fd5b5050506040513d601f19601f820116820180604052508101906101f791906103ac565b905090565b6000819050919050565b61020f816101fc565b82525050565b600060208201905061022a6000830184610206565b92915050565b600081905092915050565b7f6162630000000000000000000000000000000000000000000000000000000000600082015250565b6000610271600383610230565b915061027c8261023b565b600382019050919050565b7f6465660000000000000000000000000000000000000000000000000000000000600082015250565b60006102bd600383610230565b91506102c882610287565b600382019050919050565b60006102de82610264565b91506102e9826102b0565b9150819050919050565b600081519050919050565b600081905092915050565b60005b8381101561032757808201518184015260208101905061030c565b60008484015250505050565b600061033e826102f3565b61034881856102fe565b9350610358818560208601610309565b80840191505092915050565b60006103708284610333565b915081905092915050565b600080fd5b610389816101fc565b811461039457600080fd5b50565b6000815190506103a681610380565b92915050565b6000602082840312156103c2576103c161037b565b5b60006103d084828501610397565b91505092915050565b7f6162000000000000000000000000000000000000000000000000000000000000600082015250565b600061040f600283610230565b915061041a826103d9565b600282019050919050565b7f6364656600000000000000000000000000000000000000000000000000000000600082015250565b600061045b600483610230565b915061046682610425565b600482019050919050565b600061047c82610402565b91506104878261044e565b9150819050919050565b600061049c826102b0565b91506104a782610264565b915081905091905056fea264697066735822122053d1773795a7dbfe8de3752186859ba1443cf5e2814e08d1dae6f98f5b3f396264736f6c63430008120033",
			"opcodes": "PUSH1 0x80 PUSH1 0x40 MSTORE CALLVALUE DUP1 ISZERO PUSH2 0x10 JUMPI PUSH1 0x0 DUP1 REVERT JUMPDEST POP PUSH2 0x4E7 DUP1 PUSH2 0x20 PUSH1 0x0 CODECOPY PUSH1 0x0 RETURN INVALID PUSH1 0x80 PUSH1 0x40 MSTORE CALLVALUE DUP1 ISZERO PUSH2 0x10 JUMPI PUSH1 0x0 DUP1 REVERT JUMPDEST POP PUSH1 0x4 CALLDATASIZE LT PUSH2 0x41 JUMPI PUSH1 0x0 CALLDATALOAD PUSH1 0xE0 SHR DUP1 PUSH4 0x9762B9C EQ PUSH2 0x46 JUMPI DUP1 PUSH4 0xCB8EA31 EQ PUSH2 0x64 JUMPI DUP1 PUSH4 0xF48ED293 EQ PUSH2 0x82 JUMPI JUMPDEST PUSH1 0x0 DUP1 REVERT JUMPDEST PUSH2 0x4E PUSH2 0xA0 JUMP JUMPDEST PUSH1 0x40 MLOAD PUSH2 0x5B SWAP2 SWAP1 PUSH2 0x215 JUMP JUMPDEST PUSH1 0x40 MLOAD DUP1 SWAP2 SUB SWAP1 RETURN JUMPDEST PUSH2 0x6C PUSH2 0x114 JUMP JUMPDEST PUSH1 0x40 MLOAD PUSH2 0x79 SWAP2 SWAP1 PUSH2 0x215 JUMP JUMPDEST PUSH1 0x40 MLOAD DUP1 SWAP2 SUB SWAP1 RETURN JUMPDEST PUSH2 0x8A PUSH2 0x188 JUMP JUMPDEST PUSH1 0x40 MLOAD PUSH2 0x97 SWAP2 SWAP1 PUSH2 0x215 JUMP JUMPDEST PUSH1 0x40 MLOAD DUP1 SWAP2 SUB SWAP1 RETURN JUMPDEST PUSH1 0x0 PUSH1 0x2 PUSH1 0x40 MLOAD PUSH1 0x20 ADD PUSH2 0xB3 SWAP1 PUSH2 0x2D3 JUMP JUMPDEST PUSH1 0x40 MLOAD PUSH1 0x20 DUP2 DUP4 SUB SUB DUP2 MSTORE SWAP1 PUSH1 0x40 MSTORE PUSH1 0x40 MLOAD PUSH2 0xCF SWAP2 SWAP1 PUSH2 0x364 JUMP JUMPDEST PUSH1 0x20 PUSH1 0x40 MLOAD DUP1 DUP4 SUB DUP2 DUP6 GAS STATICCALL ISZERO DUP1 ISZERO PUSH2 0xEC JUMPI RETURNDATASIZE PUSH1 0x0 DUP1 RETURNDATACOPY RETURNDATASIZE PUSH1 0x0 REVERT JUMPDEST POP POP POP PUSH1 0x40 MLOAD RETURNDATASIZE PUSH1 0x1F NOT PUSH1 0x1F DUP3 ADD AND DUP3 ADD DUP1 PUSH1 0x40 MSTORE POP DUP2 ADD SWAP1 PUSH2 0x10F SWAP2 SWAP1 PUSH2 0x3AC JUMP JUMPDEST SWAP1 POP SWAP1 JUMP JUMPDEST PUSH1 0x0 PUSH1 0x2 PUSH1 0x40 MLOAD PUSH1 0x20 ADD PUSH2 0x127 SWAP1 PUSH2 0x471 JUMP JUMPDEST PUSH1 0x40 MLOAD PUSH1 0x20 DUP2 DUP4 SUB SUB DUP2 MSTORE SWAP1 PUSH1 0x40 MSTORE PUSH1 0x40 MLOAD PUSH2 0x143 SWAP2 SWAP1 PUSH2 0x364 JUMP JUMPDEST PUSH1 0x20 PUSH1 0x40 MLOAD DUP1 DUP4 SUB DUP2 DUP6 GAS STATICCALL ISZERO DUP1 ISZERO PUSH2 0x160 JUMPI RETURNDATASIZE PUSH1 0x0 DUP1 RETURNDATACOPY RETURNDATASIZE PUSH1 0x0 REVERT JUMPDEST POP POP POP PUSH1 0x40 MLOAD RETURNDATASIZE PUSH1 0x1F NOT PUSH1 0x1F DUP3 ADD AND DUP3 ADD DUP1 PUSH1 0x40 MSTORE POP DUP2 ADD SWAP1 PUSH2 0x183 SWAP2 SWAP1 PUSH2 0x3AC JUMP JUMPDEST SWAP1 POP SWAP1 JUMP JUMPDEST PUSH1 0x0 PUSH1 0x2 PUSH1 0x40 MLOAD PUSH1 0x20 ADD PUSH2 0x19B SWAP1 PUSH2 0x491 JUMP JUMPDEST PUSH1 0x40 MLOAD PUSH1 0x20 DUP2 DUP4 SUB SUB DUP2 MSTORE SWAP1 PUSH1 0x40 MSTORE PUSH1 0x40 MLOAD PUSH2 0x1B7 SWAP2 SWAP1 PUSH2 0x364 JUMP JUMPDEST PUSH1 0x20 PUSH1 0x40 MLOAD DUP1 DUP4 SUB DUP2 DUP6 GAS STATICCALL ISZERO DUP1 ISZERO PUSH2 0x1D4 JUMPI RETURNDATASIZE PUSH1 0x0 DUP1 RETURNDATACOPY RETURNDATASIZE PUSH1 0x0 REVERT JUMPDEST POP POP POP PUSH1 0x40 MLOAD RETURNDATASIZE PUSH1 0x1F NOT PUSH1 0x1F DUP3 ADD AND DUP3 ADD DUP1 PUSH1 0x40 MSTORE POP DUP2 ADD SWAP1 PUSH2 0x1F7 SWAP2 SWAP1 PUSH2 0x3AC JUMP JUMPDEST SWAP1 POP SWAP1 JUMP JUMPDEST PUSH1 0x0 DUP2 SWAP1 POP SWAP2 SWAP1 POP JUMP JUMPDEST PUSH2 0x20F DUP2 PUSH2 0x1FC JUMP JUMPDEST DUP3 MSTORE POP POP JUMP JUMPDEST PUSH1 0x0 PUSH1 0x20 DUP3 ADD SWAP1 POP PUSH2 0x22A PUSH1 0x0 DUP4 ADD DUP5 PUSH2 0x206 JUMP JUMPDEST SWAP3 SWAP2 POP POP JUMP JUMPDEST PUSH1 0x0 DUP2 SWAP1 POP SWAP3 SWAP2 POP POP JUMP JUMPDEST PUSH32 0x6162630000000000000000000000000000000000000000000000000000000000 PUSH1 0x0 DUP3 ADD MSTORE POP JUMP JUMPDEST PUSH1 0x0 PUSH2 0x271 PUSH1 0x3 DUP4 PUSH2 0x230 JUMP JUMPDEST SWAP2 POP PUSH2 0x27C DUP3 PUSH2 0x23B JUMP JUMPDEST PUSH1 0x3 DUP3 ADD SWAP1 POP SWAP2 SWAP1 POP JUMP JUMPDEST PUSH32 0x6465660000000000000000000000000000000000000000000000000000000000 PUSH1 0x0 DUP3 ADD MSTORE POP JUMP JUMPDEST PUSH1 0x0 PUSH2 0x2BD PUSH1 0x3 DUP4 PUSH2 0x230 JUMP JUMPDEST SWAP2 POP PUSH2 0x2C8 DUP3 PUSH2 0x287 JUMP JUMPDEST PUSH1 0x3 DUP3 ADD SWAP1 POP SWAP2 SWAP1 POP JUMP JUMPDEST PUSH1 0x0 PUSH2 0x2DE DUP3 PUSH2 0x264 JUMP JUMPDEST SWAP2 POP PUSH2 0x2E9 DUP3 PUSH2 0x2B0 JUMP JUMPDEST SWAP2 POP DUP2 SWAP1 POP SWAP2 SWAP1 POP JUMP JUMPDEST PUSH1 0x0 DUP2 MLOAD SWAP1 POP SWAP2 SWAP1 POP JUMP JUMPDEST PUSH1 0x0 DUP2 SWAP1 POP SWAP3 SWAP2 POP POP JUMP JUMPDEST PUSH1 0x0 JUMPDEST DUP4 DUP2 LT ISZERO PUSH2 0x327 JUMPI DUP1 DUP3 ADD MLOAD DUP2 DUP5 ADD MSTORE PUSH1 0x20 DUP2 ADD SWAP1 POP PUSH2 0x30C JUMP JUMPDEST PUSH1 0x0 DUP5 DUP5 ADD MSTORE POP POP POP POP JUMP JUMPDEST PUSH1 0x0 PUSH2 0x33E DUP3 PUSH2 0x2F3 JUMP JUMPDEST PUSH2 0x348 DUP2 DUP6 PUSH2 0x2FE JUMP JUMPDEST SWAP4 POP PUSH2 0x358 DUP2 DUP6 PUSH1 0x20 DUP7 ADD PUSH2 0x309 JUMP JUMPDEST DUP1 DUP5 ADD SWAP2 POP POP SWAP3 SWAP2 POP POP JUMP JUMPDEST PUSH1 0x0 PUSH2 0x370 DUP3 DUP5 PUSH2 0x333 JUMP JUMPDEST SWAP2 POP DUP2 SWAP1 POP SWAP3 SWAP2 POP POP JUMP JUMPDEST PUSH1 0x0 DUP1 REVERT JUMPDEST PUSH2 0x389 DUP2 PUSH2 0x1FC JUMP JUMPDEST DUP2 EQ PUSH2 0x394 JUMPI PUSH1 0x0 DUP1 REVERT JUMPDEST POP JUMP JUMPDEST PUSH1 0x0 DUP2 MLOAD SWAP1 POP PUSH2 0x3A6 DUP2 PUSH2 0x380 JUMP JUMPDEST SWAP3 SWAP2 POP POP JUMP JUMPDEST PUSH1 0x0 PUSH1 0x20 DUP3 DUP5 SUB SLT ISZERO PUSH2 0x3C2 JUMPI PUSH2 0x3C1 PUSH2 0x37B JUMP JUMPDEST JUMPDEST PUSH1 0x0 PUSH2 0x3D0 DUP5 DUP3 DUP6 ADD PUSH2 0x397 JUMP JUMPDEST SWAP2 POP POP SWAP3 SWAP2 POP POP JUMP JUMPDEST PUSH32 0x6162000000000000000000000000000000000000000000000000000000000000 PUSH1 0x0 DUP3 ADD MSTORE POP JUMP JUMPDEST PUSH1 0x0 PUSH2 0x40F PUSH1 0x2 DUP4 PUSH2 0x230 JUMP JUMPDEST SWAP2 POP PUSH2 0x41A DUP3 PUSH2 0x3D9 JUMP JUMPDEST PUSH1 0x2 DUP3 ADD SWAP1 POP SWAP2 SWAP1 POP JUMP JUMPDEST PUSH32 0x6364656600000000000000000000000000000000000000000000000000000000 PUSH1 0x0 DUP3 ADD MSTORE POP JUMP JUMPDEST PUSH1 0x0 PUSH2 0x45B PUSH1 0x4 DUP4 PUSH2 0x230 JUMP JUMPDEST SWAP2 POP PUSH2 0x466 DUP3 PUSH2 0x425 JUMP JUMPDEST PUSH1 0x4 DUP3 ADD SWAP1 POP SWAP2 SWAP1 POP JUMP JUMPDEST PUSH1 0x0 PUSH2 0x47C DUP3 PUSH2 0x402 JUMP JUMPDEST SWAP2 POP PUSH2 0x487 DUP3 PUSH2 0x44E JUMP JUMPDEST SWAP2 POP DUP2 SWAP1 POP SWAP2 SWAP1 POP JUMP JUMPDEST PUSH1 0x0 PUSH2 0x49C DUP3 PUSH2 0x2B0 JUMP JUMPDEST SWAP2 POP PUSH2 0x4A7 DUP3 PUSH2 0x264 JUMP JUMPDEST SWAP2 POP DUP2 SWAP1 POP SWAP2 SWAP1 POP JUMP INVALID LOG2 PUSH5 0x6970667358 0x22 SLT KECCAK256 MSTORE8 0xD1 PUSH24 0x3795A7DBFE8DE3752186859BA1443CF5E2814E08D1DAE6F9 DUP16 JUMPDEST EXTCODEHASH CODECOPY PUSH3 0x64736F PUSH13 0x63430008120033000000000000 "
		},
		"gasEstimates": {
			"creation": {
				"codeDepositCost": "251000",
				"executionCost": "294",
				"totalCost": "251294"
			},
			"external": {
				"hashsha256()": "infinite",
				"hashsha2561()": "infinite",
				"hashsha2562()": "infinite"
			}
		},
		"methodIdentifiers": {
			"hashsha256()": "09762b9c",
			"hashsha2561()": "0cb8ea31",
			"hashsha2562()": "f48ed293"
		}
	},
	"abi": [
		{
			"inputs": [],
			"name": "hashsha256",
			"outputs": [
				{
					"internalType": "bytes32",
					"name": "",
					"type": "bytes32"
				}
			],
			"stateMutability": "pure",
			"type": "function"
		},
		{
			"inputs": [],
			"name": "hashsha2561",
			"outputs": [
				{
					"internalType": "bytes32",
					"name": "",
					"type": "bytes32"
				}
			],
			"stateMutability": "pure",
			"type": "function"
		},
		{
			"inputs": [],
			"name": "hashsha2562",
			"outputs": [
				{
					"internalType": "bytes32",
					"name": "",
					"type": "bytes32"
				}
			],
			"stateMutability": "pure",
			"type": "function"
		}
	]
}