{
	"data": {
		"bytecode": {
			"linkReferences": {},
			"object": "608060405234801561001057600080fd5b50610b95806100206000396000f3fe608060405234801561001057600080fd5b50600436106100365760003560e01c8063984bc7001461003b578063acfc4f231461006b575b600080fd5b61005560048036038101906100509190610361565b61009c565b6040516100629190610496565b60405180910390f35b61008560048036038101906100809190610619565b6101de565b6040516100939291906106ce565b60405180910390f35b6100a46102f3565b6000600160008481526020019081526020016000205490506000805490508110610103576040517f08c379a00000000000000000000000000000000000000000000000000000000081526004016100fa9061074a565b60405180910390fd5b600081815481106101175761011661076a565b5b9060005260206000209060030201604051806060016040529081600082018054610140906107c8565b80601f016020809104026020016040519081016040528092919081815260200182805461016c906107c8565b80156101b95780601f1061018e576101008083540402835291602001916101b9565b820191906000526020600020905b81548152906001019060200180831161019c57829003601f168201915b5050505050815260200160018201548152602001600282015481525050915050919050565b606060008084846040516020016101f6929190610856565b604051602081830303815290604052805190602001209050600060405180606001604052808781526020018681526020018381525090506000819080600181540180825580915050600190039060005260206000209060030201600090919091909150600082015181600001908161026e9190610a2a565b506020820151816001015560408201518160020155505060016000805490506102979190610b2b565b6001600084815260200190815260200160002081905550816040518060400160405280600d81526020017f596f757220486173682069732000000000000000000000000000000000000000815250909350935050509250929050565b60405180606001604052806060815260200160008152602001600080191681525090565b6000604051905090565b600080fd5b600080fd5b6000819050919050565b61033e8161032b565b811461034957600080fd5b50565b60008135905061035b81610335565b92915050565b60006020828403121561037757610376610321565b5b60006103858482850161034c565b91505092915050565b600081519050919050565b600082825260208201905092915050565b60005b838110156103c85780820151818401526020810190506103ad565b60008484015250505050565b6000601f19601f8301169050919050565b60006103f08261038e565b6103fa8185610399565b935061040a8185602086016103aa565b610413816103d4565b840191505092915050565b6000819050919050565b6104318161041e565b82525050565b6104408161032b565b82525050565b6000606083016000830151848203600086015261046382826103e5565b91505060208301516104786020860182610428565b50604083015161048b6040860182610437565b508091505092915050565b600060208201905081810360008301526104b08184610446565b905092915050565b600080fd5b600080fd5b7f4e487b7100000000000000000000000000000000000000000000000000000000600052604160045260246000fd5b6104fa826103d4565b810181811067ffffffffffffffff82111715610519576105186104c2565b5b80604052505050565b600061052c610317565b905061053882826104f1565b919050565b600067ffffffffffffffff821115610558576105576104c2565b5b610561826103d4565b9050602081019050919050565b82818337600083830152505050565b600061059061058b8461053d565b610522565b9050828152602081018484840111156105ac576105ab6104bd565b5b6105b784828561056e565b509392505050565b600082601f8301126105d4576105d36104b8565b5b81356105e484826020860161057d565b91505092915050565b6105f68161041e565b811461060157600080fd5b50565b600081359050610613816105ed565b92915050565b600080604083850312156106305761062f610321565b5b600083013567ffffffffffffffff81111561064e5761064d610326565b5b61065a858286016105bf565b925050602061066b85828601610604565b9150509250929050565b600082825260208201905092915050565b60006106918261038e565b61069b8185610675565b93506106ab8185602086016103aa565b6106b4816103d4565b840191505092915050565b6106c88161032b565b82525050565b600060408201905081810360008301526106e88185610686565b90506106f760208301846106bf565b9392505050565b7f44617461204e6f7420417661696c61626c650000000000000000000000000000600082015250565b6000610734601283610675565b915061073f826106fe565b602082019050919050565b6000602082019050818103600083015261076381610727565b9050919050565b7f4e487b7100000000000000000000000000000000000000000000000000000000600052603260045260246000fd5b7f4e487b7100000000000000000000000000000000000000000000000000000000600052602260045260246000fd5b600060028204905060018216806107e057607f821691505b6020821081036107f3576107f2610799565b5b50919050565b600081905092915050565b600061080f8261038e565b61081981856107f9565b93506108298185602086016103aa565b80840191505092915050565b6000819050919050565b61085061084b8261041e565b610835565b82525050565b60006108628285610804565b915061086e828461083f565b6020820191508190509392505050565b60008190508160005260206000209050919050565b60006020601f8301049050919050565b600082821b905092915050565b6000600883026108e07fffffffffffffffffffffffffffffffffffffffffffffffffffffffffffffffff826108a3565b6108ea86836108a3565b95508019841693508086168417925050509392505050565b6000819050919050565b600061092761092261091d8461041e565b610902565b61041e565b9050919050565b6000819050919050565b6109418361090c565b61095561094d8261092e565b8484546108b0565b825550505050565b600090565b61096a61095d565b610975818484610938565b505050565b5b818110156109995761098e600082610962565b60018101905061097b565b5050565b601f8211156109de576109af8161087e565b6109b884610893565b810160208510156109c7578190505b6109db6109d385610893565b83018261097a565b50505b505050565b600082821c905092915050565b6000610a01600019846008026109e3565b1980831691505092915050565b6000610a1a83836109f0565b9150826002028217905092915050565b610a338261038e565b67ffffffffffffffff811115610a4c57610a4b6104c2565b5b610a5682546107c8565b610a6182828561099d565b600060209050601f831160018114610a945760008415610a82578287015190505b610a8c8582610a0e565b865550610af4565b601f198416610aa28661087e565b60005b82811015610aca57848901518255600182019150602085019450602081019050610aa5565b86831015610ae75784890151610ae3601f8916826109f0565b8355505b6001600288020188555050505b505050505050565b7f4e487b7100000000000000000000000000000000000000000000000000000000600052601160045260246000fd5b6000610b368261041e565b9150610b418361041e565b9250828203905081811115610b5957610b58610afc565b5b9291505056fea2646970667358221220ae082ab8f7b2655402d4aefe05fd49880dc0c5c71f1fb7c21037881be330f8d164736f6c63430008120033",
			"opcodes": "PUSH1 0x80 PUSH1 0x40 MSTORE CALLVALUE DUP1 ISZERO PUSH2 0x10 JUMPI PUSH1 0x0 DUP1 REVERT JUMPDEST POP PUSH2 0xB95 DUP1 PUSH2 0x20 PUSH1 0x0 CODECOPY PUSH1 0x0 RETURN INVALID PUSH1 0x80 PUSH1 0x40 MSTORE CALLVALUE DUP1 ISZERO PUSH2 0x10 JUMPI PUSH1 0x0 DUP1 REVERT JUMPDEST POP PUSH1 0x4 CALLDATASIZE LT PUSH2 0x36 JUMPI PUSH1 0x0 CALLDATALOAD PUSH1 0xE0 SHR DUP1 PUSH4 0x984BC700 EQ PUSH2 0x3B JUMPI DUP1 PUSH4 0xACFC4F23 EQ PUSH2 0x6B JUMPI JUMPDEST PUSH1 0x0 DUP1 REVERT JUMPDEST PUSH2 0x55 PUSH1 0x4 DUP1 CALLDATASIZE SUB DUP2 ADD SWAP1 PUSH2 0x50 SWAP2 SWAP1 PUSH2 0x361 JUMP JUMPDEST PUSH2 0x9C JUMP JUMPDEST PUSH1 0x40 MLOAD PUSH2 0x62 SWAP2 SWAP1 PUSH2 0x496 JUMP JUMPDEST PUSH1 0x40 MLOAD DUP1 SWAP2 SUB SWAP1 RETURN JUMPDEST PUSH2 0x85 PUSH1 0x4 DUP1 CALLDATASIZE SUB DUP2 ADD SWAP1 PUSH2 0x80 SWAP2 SWAP1 PUSH2 0x619 JUMP JUMPDEST PUSH2 0x1DE JUMP JUMPDEST PUSH1 0x40 MLOAD PUSH2 0x93 SWAP3 SWAP2 SWAP1 PUSH2 0x6CE JUMP JUMPDEST PUSH1 0x40 MLOAD DUP1 SWAP2 SUB SWAP1 RETURN JUMPDEST PUSH2 0xA4 PUSH2 0x2F3 JUMP JUMPDEST PUSH1 0x0 PUSH1 0x1 PUSH1 0x0 DUP5 DUP2 MSTORE PUSH1 0x20 ADD SWAP1 DUP2 MSTORE PUSH1 0x20 ADD PUSH1 0x0 KECCAK256 SLOAD SWAP1 POP PUSH1 0x0 DUP1 SLOAD SWAP1 POP DUP2 LT PUSH2 0x103 JUMPI PUSH1 0x40 MLOAD PUSH32 0x8C379A000000000000000000000000000000000000000000000000000000000 DUP2 MSTORE PUSH1 0x4 ADD PUSH2 0xFA SWAP1 PUSH2 0x74A JUMP JUMPDEST PUSH1 0x40 MLOAD DUP1 SWAP2 SUB SWAP1 REVERT JUMPDEST PUSH1 0x0 DUP2 DUP2 SLOAD DUP2 LT PUSH2 0x117 JUMPI PUSH2 0x116 PUSH2 0x76A JUMP JUMPDEST JUMPDEST SWAP1 PUSH1 0x0 MSTORE PUSH1 0x20 PUSH1 0x0 KECCAK256 SWAP1 PUSH1 0x3 MUL ADD PUSH1 0x40 MLOAD DUP1 PUSH1 0x60 ADD PUSH1 0x40 MSTORE SWAP1 DUP2 PUSH1 0x0 DUP3 ADD DUP1 SLOAD PUSH2 0x140 SWAP1 PUSH2 0x7C8 JUMP JUMPDEST DUP1 PUSH1 0x1F ADD PUSH1 0x20 DUP1 SWAP2 DIV MUL PUSH1 0x20 ADD PUSH1 0x40 MLOAD SWAP1 DUP2 ADD PUSH1 0x40 MSTORE DUP1 SWAP3 SWAP2 SWAP1 DUP2 DUP2 MSTORE PUSH1 0x20 ADD DUP3 DUP1 SLOAD PUSH2 0x16C SWAP1 PUSH2 0x7C8 JUMP JUMPDEST DUP1 ISZERO PUSH2 0x1B9 JUMPI DUP1 PUSH1 0x1F LT PUSH2 0x18E JUMPI PUSH2 0x100 DUP1 DUP4 SLOAD DIV MUL DUP4 MSTORE SWAP2 PUSH1 0x20 ADD SWAP2 PUSH2 0x1B9 JUMP JUMPDEST DUP3 ADD SWAP2 SWAP1 PUSH1 0x0 MSTORE PUSH1 0x20 PUSH1 0x0 KECCAK256 SWAP1 JUMPDEST DUP2 SLOAD DUP2 MSTORE SWAP1 PUSH1 0x1 ADD SWAP1 PUSH1 0x20 ADD DUP1 DUP4 GT PUSH2 0x19C JUMPI DUP3 SWAP1 SUB PUSH1 0x1F AND DUP3 ADD SWAP2 JUMPDEST POP POP POP POP POP DUP2 MSTORE PUSH1 0x20 ADD PUSH1 0x1 DUP3 ADD SLOAD DUP2 MSTORE PUSH1 0x20 ADD PUSH1 0x2 DUP3 ADD SLOAD DUP2 MSTORE POP POP SWAP2 POP POP SWAP2 SWAP1 POP JUMP JUMPDEST PUSH1 0x60 PUSH1 0x0 DUP1 DUP5 DUP5 PUSH1 0x40 MLOAD PUSH1 0x20 ADD PUSH2 0x1F6 SWAP3 SWAP2 SWAP1 PUSH2 0x856 JUMP JUMPDEST PUSH1 0x40 MLOAD PUSH1 0x20 DUP2 DUP4 SUB SUB DUP2 MSTORE SWAP1 PUSH1 0x40 MSTORE DUP1 MLOAD SWAP1 PUSH1 0x20 ADD KECCAK256 SWAP1 POP PUSH1 0x0 PUSH1 0x40 MLOAD DUP1 PUSH1 0x60 ADD PUSH1 0x40 MSTORE DUP1 DUP8 DUP2 MSTORE PUSH1 0x20 ADD DUP7 DUP2 MSTORE PUSH1 0x20 ADD DUP4 DUP2 MSTORE POP SWAP1 POP PUSH1 0x0 DUP2 SWAP1 DUP1 PUSH1 0x1 DUP2 SLOAD ADD DUP1 DUP3 SSTORE DUP1 SWAP2 POP POP PUSH1 0x1 SWAP1 SUB SWAP1 PUSH1 0x0 MSTORE PUSH1 0x20 PUSH1 0x0 KECCAK256 SWAP1 PUSH1 0x3 MUL ADD PUSH1 0x0 SWAP1 SWAP2 SWAP1 SWAP2 SWAP1 SWAP2 POP PUSH1 0x0 DUP3 ADD MLOAD DUP2 PUSH1 0x0 ADD SWAP1 DUP2 PUSH2 0x26E SWAP2 SWAP1 PUSH2 0xA2A JUMP JUMPDEST POP PUSH1 0x20 DUP3 ADD MLOAD DUP2 PUSH1 0x1 ADD SSTORE PUSH1 0x40 DUP3 ADD MLOAD DUP2 PUSH1 0x2 ADD SSTORE POP POP PUSH1 0x1 PUSH1 0x0 DUP1 SLOAD SWAP1 POP PUSH2 0x297 SWAP2 SWAP1 PUSH2 0xB2B JUMP JUMPDEST PUSH1 0x1 PUSH1 0x0 DUP5 DUP2 MSTORE PUSH1 0x20 ADD SWAP1 DUP2 MSTORE PUSH1 0x20 ADD PUSH1 0x0 KECCAK256 DUP2 SWAP1 SSTORE POP DUP2 PUSH1 0x40 MLOAD DUP1 PUSH1 0x40 ADD PUSH1 0x40 MSTORE DUP1 PUSH1 0xD DUP2 MSTORE PUSH1 0x20 ADD PUSH32 0x596F757220486173682069732000000000000000000000000000000000000000 DUP2 MSTORE POP SWAP1 SWAP4 POP SWAP4 POP POP POP SWAP3 POP SWAP3 SWAP1 POP JUMP JUMPDEST PUSH1 0x40 MLOAD DUP1 PUSH1 0x60 ADD PUSH1 0x40 MSTORE DUP1 PUSH1 0x60 DUP2 MSTORE PUSH1 0x20 ADD PUSH1 0x0 DUP2 MSTORE PUSH1 0x20 ADD PUSH1 0x0 DUP1 NOT AND DUP2 MSTORE POP SWAP1 JUMP JUMPDEST PUSH1 0x0 PUSH1 0x40 MLOAD SWAP1 POP SWAP1 JUMP JUMPDEST PUSH1 0x0 DUP1 REVERT JUMPDEST PUSH1 0x0 DUP1 REVERT JUMPDEST PUSH1 0x0 DUP2 SWAP1 POP SWAP2 SWAP1 POP JUMP JUMPDEST PUSH2 0x33E DUP2 PUSH2 0x32B JUMP JUMPDEST DUP2 EQ PUSH2 0x349 JUMPI PUSH1 0x0 DUP1 REVERT JUMPDEST POP JUMP JUMPDEST PUSH1 0x0 DUP2 CALLDATALOAD SWAP1 POP PUSH2 0x35B DUP2 PUSH2 0x335 JUMP JUMPDEST SWAP3 SWAP2 POP POP JUMP JUMPDEST PUSH1 0x0 PUSH1 0x20 DUP3 DUP5 SUB SLT ISZERO PUSH2 0x377 JUMPI PUSH2 0x376 PUSH2 0x321 JUMP JUMPDEST JUMPDEST PUSH1 0x0 PUSH2 0x385 DUP5 DUP3 DUP6 ADD PUSH2 0x34C JUMP JUMPDEST SWAP2 POP POP SWAP3 SWAP2 POP POP JUMP JUMPDEST PUSH1 0x0 DUP2 MLOAD SWAP1 POP SWAP2 SWAP1 POP JUMP JUMPDEST PUSH1 0x0 DUP3 DUP3 MSTORE PUSH1 0x20 DUP3 ADD SWAP1 POP SWAP3 SWAP2 POP POP JUMP JUMPDEST PUSH1 0x0 JUMPDEST DUP4 DUP2 LT ISZERO PUSH2 0x3C8 JUMPI DUP1 DUP3 ADD MLOAD DUP2 DUP5 ADD MSTORE PUSH1 0x20 DUP2 ADD SWAP1 POP PUSH2 0x3AD JUMP JUMPDEST PUSH1 0x0 DUP5 DUP5 ADD MSTORE POP POP POP POP JUMP JUMPDEST PUSH1 0x0 PUSH1 0x1F NOT PUSH1 0x1F DUP4 ADD AND SWAP1 POP SWAP2 SWAP1 POP JUMP JUMPDEST PUSH1 0x0 PUSH2 0x3F0 DUP3 PUSH2 0x38E JUMP JUMPDEST PUSH2 0x3FA DUP2 DUP6 PUSH2 0x399 JUMP JUMPDEST SWAP4 POP PUSH2 0x40A DUP2 DUP6 PUSH1 0x20 DUP7 ADD PUSH2 0x3AA JUMP JUMPDEST PUSH2 0x413 DUP2 PUSH2 0x3D4 JUMP JUMPDEST DUP5 ADD SWAP2 POP POP SWAP3 SWAP2 POP POP JUMP JUMPDEST PUSH1 0x0 DUP2 SWAP1 POP SWAP2 SWAP1 POP JUMP JUMPDEST PUSH2 0x431 DUP2 PUSH2 0x41E JUMP JUMPDEST DUP3 MSTORE POP POP JUMP JUMPDEST PUSH2 0x440 DUP2 PUSH2 0x32B JUMP JUMPDEST DUP3 MSTORE POP POP JUMP JUMPDEST PUSH1 0x0 PUSH1 0x60 DUP4 ADD PUSH1 0x0 DUP4 ADD MLOAD DUP5 DUP3 SUB PUSH1 0x0 DUP7 ADD MSTORE PUSH2 0x463 DUP3 DUP3 PUSH2 0x3E5 JUMP JUMPDEST SWAP2 POP POP PUSH1 0x20 DUP4 ADD MLOAD PUSH2 0x478 PUSH1 0x20 DUP7 ADD DUP3 PUSH2 0x428 JUMP JUMPDEST POP PUSH1 0x40 DUP4 ADD MLOAD PUSH2 0x48B PUSH1 0x40 DUP7 ADD DUP3 PUSH2 0x437 JUMP JUMPDEST POP DUP1 SWAP2 POP POP SWAP3 SWAP2 POP POP JUMP JUMPDEST PUSH1 0x0 PUSH1 0x20 DUP3 ADD SWAP1 POP DUP2 DUP2 SUB PUSH1 0x0 DUP4 ADD MSTORE PUSH2 0x4B0 DUP2 DUP5 PUSH2 0x446 JUMP JUMPDEST SWAP1 POP SWAP3 SWAP2 POP POP JUMP JUMPDEST PUSH1 0x0 DUP1 REVERT JUMPDEST PUSH1 0x0 DUP1 REVERT JUMPDEST PUSH32 0x4E487B7100000000000000000000000000000000000000000000000000000000 PUSH1 0x0 MSTORE PUSH1 0x41 PUSH1 0x4 MSTORE PUSH1 0x24 PUSH1 0x0 REVERT JUMPDEST PUSH2 0x4FA DUP3 PUSH2 0x3D4 JUMP JUMPDEST DUP2 ADD DUP2 DUP2 LT PUSH8 0xFFFFFFFFFFFFFFFF DUP3 GT OR ISZERO PUSH2 0x519 JUMPI PUSH2 0x518 PUSH2 0x4C2 JUMP JUMPDEST JUMPDEST DUP1 PUSH1 0x40 MSTORE POP POP POP JUMP JUMPDEST PUSH1 0x0 PUSH2 0x52C PUSH2 0x317 JUMP JUMPDEST SWAP1 POP PUSH2 0x538 DUP3 DUP3 PUSH2 0x4F1 JUMP JUMPDEST SWAP2 SWAP1 POP JUMP JUMPDEST PUSH1 0x0 PUSH8 0xFFFFFFFFFFFFFFFF DUP3 GT ISZERO PUSH2 0x558 JUMPI PUSH2 0x557 PUSH2 0x4C2 JUMP JUMPDEST JUMPDEST PUSH2 0x561 DUP3 PUSH2 0x3D4 JUMP JUMPDEST SWAP1 POP PUSH1 0x20 DUP2 ADD SWAP1 POP SWAP2 SWAP1 POP JUMP JUMPDEST DUP3 DUP2 DUP4 CALLDATACOPY PUSH1 0x0 DUP4 DUP4 ADD MSTORE POP POP POP JUMP JUMPDEST PUSH1 0x0 PUSH2 0x590 PUSH2 0x58B DUP5 PUSH2 0x53D JUMP JUMPDEST PUSH2 0x522 JUMP JUMPDEST SWAP1 POP DUP3 DUP2 MSTORE PUSH1 0x20 DUP2 ADD DUP5 DUP5 DUP5 ADD GT ISZERO PUSH2 0x5AC JUMPI PUSH2 0x5AB PUSH2 0x4BD JUMP JUMPDEST JUMPDEST PUSH2 0x5B7 DUP5 DUP3 DUP6 PUSH2 0x56E JUMP JUMPDEST POP SWAP4 SWAP3 POP POP POP JUMP JUMPDEST PUSH1 0x0 DUP3 PUSH1 0x1F DUP4 ADD SLT PUSH2 0x5D4 JUMPI PUSH2 0x5D3 PUSH2 0x4B8 JUMP JUMPDEST JUMPDEST DUP2 CALLDATALOAD PUSH2 0x5E4 DUP5 DUP3 PUSH1 0x20 DUP7 ADD PUSH2 0x57D JUMP JUMPDEST SWAP2 POP POP SWAP3 SWAP2 POP POP JUMP JUMPDEST PUSH2 0x5F6 DUP2 PUSH2 0x41E JUMP JUMPDEST DUP2 EQ PUSH2 0x601 JUMPI PUSH1 0x0 DUP1 REVERT JUMPDEST POP JUMP JUMPDEST PUSH1 0x0 DUP2 CALLDATALOAD SWAP1 POP PUSH2 0x613 DUP2 PUSH2 0x5ED JUMP JUMPDEST SWAP3 SWAP2 POP POP JUMP JUMPDEST PUSH1 0x0 DUP1 PUSH1 0x40 DUP4 DUP6 SUB SLT ISZERO PUSH2 0x630 JUMPI PUSH2 0x62F PUSH2 0x321 JUMP JUMPDEST JUMPDEST PUSH1 0x0 DUP4 ADD CALLDATALOAD PUSH8 0xFFFFFFFFFFFFFFFF DUP2 GT ISZERO PUSH2 0x64E JUMPI PUSH2 0x64D PUSH2 0x326 JUMP JUMPDEST JUMPDEST PUSH2 0x65A DUP6 DUP3 DUP7 ADD PUSH2 0x5BF JUMP JUMPDEST SWAP3 POP POP PUSH1 0x20 PUSH2 0x66B DUP6 DUP3 DUP7 ADD PUSH2 0x604 JUMP JUMPDEST SWAP2 POP POP SWAP3 POP SWAP3 SWAP1 POP JUMP JUMPDEST PUSH1 0x0 DUP3 DUP3 MSTORE PUSH1 0x20 DUP3 ADD SWAP1 POP SWAP3 SWAP2 POP POP JUMP JUMPDEST PUSH1 0x0 PUSH2 0x691 DUP3 PUSH2 0x38E JUMP JUMPDEST PUSH2 0x69B DUP2 DUP6 PUSH2 0x675 JUMP JUMPDEST SWAP4 POP PUSH2 0x6AB DUP2 DUP6 PUSH1 0x20 DUP7 ADD PUSH2 0x3AA JUMP JUMPDEST PUSH2 0x6B4 DUP2 PUSH2 0x3D4 JUMP JUMPDEST DUP5 ADD SWAP2 POP POP SWAP3 SWAP2 POP POP JUMP JUMPDEST PUSH2 0x6C8 DUP2 PUSH2 0x32B JUMP JUMPDEST DUP3 MSTORE POP POP JUMP JUMPDEST PUSH1 0x0 PUSH1 0x40 DUP3 ADD SWAP1 POP DUP2 DUP2 SUB PUSH1 0x0 DUP4 ADD MSTORE PUSH2 0x6E8 DUP2 DUP6 PUSH2 0x686 JUMP JUMPDEST SWAP1 POP PUSH2 0x6F7 PUSH1 0x20 DUP4 ADD DUP5 PUSH2 0x6BF JUMP JUMPDEST SWAP4 SWAP3 POP POP POP JUMP JUMPDEST PUSH32 0x44617461204E6F7420417661696C61626C650000000000000000000000000000 PUSH1 0x0 DUP3 ADD MSTORE POP JUMP JUMPDEST PUSH1 0x0 PUSH2 0x734 PUSH1 0x12 DUP4 PUSH2 0x675 JUMP JUMPDEST SWAP2 POP PUSH2 0x73F DUP3 PUSH2 0x6FE JUMP JUMPDEST PUSH1 0x20 DUP3 ADD SWAP1 POP SWAP2 SWAP1 POP JUMP JUMPDEST PUSH1 0x0 PUSH1 0x20 DUP3 ADD SWAP1 POP DUP2 DUP2 SUB PUSH1 0x0 DUP4 ADD MSTORE PUSH2 0x763 DUP2 PUSH2 0x727 JUMP JUMPDEST SWAP1 POP SWAP2 SWAP1 POP JUMP JUMPDEST PUSH32 0x4E487B7100000000000000000000000000000000000000000000000000000000 PUSH1 0x0 MSTORE PUSH1 0x32 PUSH1 0x4 MSTORE PUSH1 0x24 PUSH1 0x0 REVERT JUMPDEST PUSH32 0x4E487B7100000000000000000000000000000000000000000000000000000000 PUSH1 0x0 MSTORE PUSH1 0x22 PUSH1 0x4 MSTORE PUSH1 0x24 PUSH1 0x0 REVERT JUMPDEST PUSH1 0x0 PUSH1 0x2 DUP3 DIV SWAP1 POP PUSH1 0x1 DUP3 AND DUP1 PUSH2 0x7E0 JUMPI PUSH1 0x7F DUP3 AND SWAP2 POP JUMPDEST PUSH1 0x20 DUP3 LT DUP2 SUB PUSH2 0x7F3 JUMPI PUSH2 0x7F2 PUSH2 0x799 JUMP JUMPDEST JUMPDEST POP SWAP2 SWAP1 POP JUMP JUMPDEST PUSH1 0x0 DUP2 SWAP1 POP SWAP3 SWAP2 POP POP JUMP JUMPDEST PUSH1 0x0 PUSH2 0x80F DUP3 PUSH2 0x38E JUMP JUMPDEST PUSH2 0x819 DUP2 DUP6 PUSH2 0x7F9 JUMP JUMPDEST SWAP4 POP PUSH2 0x829 DUP2 DUP6 PUSH1 0x20 DUP7 ADD PUSH2 0x3AA JUMP JUMPDEST DUP1 DUP5 ADD SWAP2 POP POP SWAP3 SWAP2 POP POP JUMP JUMPDEST PUSH1 0x0 DUP2 SWAP1 POP SWAP2 SWAP1 POP JUMP JUMPDEST PUSH2 0x850 PUSH2 0x84B DUP3 PUSH2 0x41E JUMP JUMPDEST PUSH2 0x835 JUMP JUMPDEST DUP3 MSTORE POP POP JUMP JUMPDEST PUSH1 0x0 PUSH2 0x862 DUP3 DUP6 PUSH2 0x804 JUMP JUMPDEST SWAP2 POP PUSH2 0x86E DUP3 DUP5 PUSH2 0x83F JUMP JUMPDEST PUSH1 0x20 DUP3 ADD SWAP2 POP DUP2 SWAP1 POP SWAP4 SWAP3 POP POP POP JUMP JUMPDEST PUSH1 0x0 DUP2 SWAP1 POP DUP2 PUSH1 0x0 MSTORE PUSH1 0x20 PUSH1 0x0 KECCAK256 SWAP1 POP SWAP2 SWAP1 POP JUMP JUMPDEST PUSH1 0x0 PUSH1 0x20 PUSH1 0x1F DUP4 ADD DIV SWAP1 POP SWAP2 SWAP1 POP JUMP JUMPDEST PUSH1 0x0 DUP3 DUP3 SHL SWAP1 POP SWAP3 SWAP2 POP POP JUMP JUMPDEST PUSH1 0x0 PUSH1 0x8 DUP4 MUL PUSH2 0x8E0 PUSH32 0xFFFFFFFFFFFFFFFFFFFFFFFFFFFFFFFFFFFFFFFFFFFFFFFFFFFFFFFFFFFFFFFF DUP3 PUSH2 0x8A3 JUMP JUMPDEST PUSH2 0x8EA DUP7 DUP4 PUSH2 0x8A3 JUMP JUMPDEST SWAP6 POP DUP1 NOT DUP5 AND SWAP4 POP DUP1 DUP7 AND DUP5 OR SWAP3 POP POP POP SWAP4 SWAP3 POP POP POP JUMP JUMPDEST PUSH1 0x0 DUP2 SWAP1 POP SWAP2 SWAP1 POP JUMP JUMPDEST PUSH1 0x0 PUSH2 0x927 PUSH2 0x922 PUSH2 0x91D DUP5 PUSH2 0x41E JUMP JUMPDEST PUSH2 0x902 JUMP JUMPDEST PUSH2 0x41E JUMP JUMPDEST SWAP1 POP SWAP2 SWAP1 POP JUMP JUMPDEST PUSH1 0x0 DUP2 SWAP1 POP SWAP2 SWAP1 POP JUMP JUMPDEST PUSH2 0x941 DUP4 PUSH2 0x90C JUMP JUMPDEST PUSH2 0x955 PUSH2 0x94D DUP3 PUSH2 0x92E JUMP JUMPDEST DUP5 DUP5 SLOAD PUSH2 0x8B0 JUMP JUMPDEST DUP3 SSTORE POP POP POP POP JUMP JUMPDEST PUSH1 0x0 SWAP1 JUMP JUMPDEST PUSH2 0x96A PUSH2 0x95D JUMP JUMPDEST PUSH2 0x975 DUP2 DUP5 DUP5 PUSH2 0x938 JUMP JUMPDEST POP POP POP JUMP JUMPDEST JUMPDEST DUP2 DUP2 LT ISZERO PUSH2 0x999 JUMPI PUSH2 0x98E PUSH1 0x0 DUP3 PUSH2 0x962 JUMP JUMPDEST PUSH1 0x1 DUP2 ADD SWAP1 POP PUSH2 0x97B JUMP JUMPDEST POP POP JUMP JUMPDEST PUSH1 0x1F DUP3 GT ISZERO PUSH2 0x9DE JUMPI PUSH2 0x9AF DUP2 PUSH2 0x87E JUMP JUMPDEST PUSH2 0x9B8 DUP5 PUSH2 0x893 JUMP JUMPDEST DUP2 ADD PUSH1 0x20 DUP6 LT ISZERO PUSH2 0x9C7 JUMPI DUP2 SWAP1 POP JUMPDEST PUSH2 0x9DB PUSH2 0x9D3 DUP6 PUSH2 0x893 JUMP JUMPDEST DUP4 ADD DUP3 PUSH2 0x97A JUMP JUMPDEST POP POP JUMPDEST POP POP POP JUMP JUMPDEST PUSH1 0x0 DUP3 DUP3 SHR SWAP1 POP SWAP3 SWAP2 POP POP JUMP JUMPDEST PUSH1 0x0 PUSH2 0xA01 PUSH1 0x0 NOT DUP5 PUSH1 0x8 MUL PUSH2 0x9E3 JUMP JUMPDEST NOT DUP1 DUP4 AND SWAP2 POP POP SWAP3 SWAP2 POP POP JUMP JUMPDEST PUSH1 0x0 PUSH2 0xA1A DUP4 DUP4 PUSH2 0x9F0 JUMP JUMPDEST SWAP2 POP DUP3 PUSH1 0x2 MUL DUP3 OR SWAP1 POP SWAP3 SWAP2 POP POP JUMP JUMPDEST PUSH2 0xA33 DUP3 PUSH2 0x38E JUMP JUMPDEST PUSH8 0xFFFFFFFFFFFFFFFF DUP2 GT ISZERO PUSH2 0xA4C JUMPI PUSH2 0xA4B PUSH2 0x4C2 JUMP JUMPDEST JUMPDEST PUSH2 0xA56 DUP3 SLOAD PUSH2 0x7C8 JUMP JUMPDEST PUSH2 0xA61 DUP3 DUP3 DUP6 PUSH2 0x99D JUMP JUMPDEST PUSH1 0x0 PUSH1 0x20 SWAP1 POP PUSH1 0x1F DUP4 GT PUSH1 0x1 DUP2 EQ PUSH2 0xA94 JUMPI PUSH1 0x0 DUP5 ISZERO PUSH2 0xA82 JUMPI DUP3 DUP8 ADD MLOAD SWAP1 POP JUMPDEST PUSH2 0xA8C DUP6 DUP3 PUSH2 0xA0E JUMP JUMPDEST DUP7 SSTORE POP PUSH2 0xAF4 JUMP JUMPDEST PUSH1 0x1F NOT DUP5 AND PUSH2 0xAA2 DUP7 PUSH2 0x87E JUMP JUMPDEST PUSH1 0x0 JUMPDEST DUP3 DUP2 LT ISZERO PUSH2 0xACA JUMPI DUP5 DUP10 ADD MLOAD DUP3 SSTORE PUSH1 0x1 DUP3 ADD SWAP2 POP PUSH1 0x20 DUP6 ADD SWAP5 POP PUSH1 0x20 DUP2 ADD SWAP1 POP PUSH2 0xAA5 JUMP JUMPDEST DUP7 DUP4 LT ISZERO PUSH2 0xAE7 JUMPI DUP5 DUP10 ADD MLOAD PUSH2 0xAE3 PUSH1 0x1F DUP10 AND DUP3 PUSH2 0x9F0 JUMP JUMPDEST DUP4 SSTORE POP JUMPDEST PUSH1 0x1 PUSH1 0x2 DUP9 MUL ADD DUP9 SSTORE POP POP POP JUMPDEST POP POP POP POP POP POP JUMP JUMPDEST PUSH32 0x4E487B7100000000000000000000000000000000000000000000000000000000 PUSH1 0x0 MSTORE PUSH1 0x11 PUSH1 0x4 MSTORE PUSH1 0x24 PUSH1 0x0 REVERT JUMPDEST PUSH1 0x0 PUSH2 0xB36 DUP3 PUSH2 0x41E JUMP JUMPDEST SWAP2 POP PUSH2 0xB41 DUP4 PUSH2 0x41E JUMP JUMPDEST SWAP3 POP DUP3 DUP3 SUB SWAP1 POP DUP2 DUP2 GT ISZERO PUSH2 0xB59 JUMPI PUSH2 0xB58 PUSH2 0xAFC JUMP JUMPDEST JUMPDEST SWAP3 SWAP2 POP POP JUMP INVALID LOG2 PUSH5 0x6970667358 0x22 SLT KECCAK256 0xAE ADDMOD 0x2A 0xB8 0xF7 0xB2 PUSH6 0x5402D4AEFE05 REVERT 0x49 DUP9 0xD 0xC0 0xC5 0xC7 0x1F 0x1F 0xB7 0xC2 LT CALLDATACOPY DUP9 SHL 0xE3 ADDRESS 0xF8 0xD1 PUSH5 0x736F6C6343 STOP ADDMOD SLT STOP CALLER "
		},
		"gasEstimates": {
			"creation": {
				"codeDepositCost": "593000",
				"executionCost": "625",
				"totalCost": "593625"
			},
			"external": {
				"getDetails(bytes32)": "infinite",
				"initiallize(string,uint256)": "infinite"
			}
		},
		"methodIdentifiers": {
			"getDetails(bytes32)": "984bc700",
			"initiallize(string,uint256)": "acfc4f23"
		}
	},
	"abi": [
		{
			"inputs": [
				{
					"internalType": "bytes32",
					"name": "_hash",
					"type": "bytes32"
				}
			],
			"name": "getDetails",
			"outputs": [
				{
					"components": [
						{
							"internalType": "string",
							"name": "name",
							"type": "string"
						},
						{
							"internalType": "uint256",
							"name": "addhar",
							"type": "uint256"
						},
						{
							"internalType": "bytes32",
							"name": "hashcode",
							"type": "bytes32"
						}
					],
					"internalType": "struct forms.Details",
					"name": "",
					"type": "tuple"
				}
			],
			"stateMutability": "view",
			"type": "function"
		},
		{
			"inputs": [
				{
					"internalType": "string",
					"name": "_name",
					"type": "string"
				},
				{
					"internalType": "uint256",
					"name": "_addhar",
					"type": "uint256"
				}
			],
			"name": "initiallize",
			"outputs": [
				{
					"internalType": "string",
					"name": "",
					"type": "string"
				},
				{
					"internalType": "bytes32",
					"name": "",
					"type": "bytes32"
				}
			],
			"stateMutability": "nonpayable",
			"type": "function"
		}
	]
}