{
	"data": {
		"bytecode": {
			"linkReferences": {},
			"object": "608060405267016345785d8a00006008553480156200001d57600080fd5b506040516200374638038062003746833981810160405281019062000043919062000211565b6040518060400160405280600781526020017f4d79546f6b656e000000000000000000000000000000000000000000000000008152506040518060400160405280600381526020017f4d544b00000000000000000000000000000000000000000000000000000000008152508160009081620000c09190620004bd565b508060019081620000d29190620004bd565b505050620000f5620000e96200010360201b60201c565b6200010b60201b60201c565b8060078190555050620005a4565b600033905090565b6000600660009054906101000a900473ffffffffffffffffffffffffffffffffffffffff16905081600660006101000a81548173ffffffffffffffffffffffffffffffffffffffff021916908373ffffffffffffffffffffffffffffffffffffffff1602179055508173ffffffffffffffffffffffffffffffffffffffff168173ffffffffffffffffffffffffffffffffffffffff167f8be0079c531659141344cd1fd0a4f28419497f9722a3daafe3b4186f6b6457e060405160405180910390a35050565b600080fd5b6000819050919050565b620001eb81620001d6565b8114620001f757600080fd5b50565b6000815190506200020b81620001e0565b92915050565b6000602082840312156200022a5762000229620001d1565b5b60006200023a84828501620001fa565b91505092915050565b600081519050919050565b7f4e487b7100000000000000000000000000000000000000000000000000000000600052604160045260246000fd5b7f4e487b7100000000000000000000000000000000000000000000000000000000600052602260045260246000fd5b60006002820490506001821680620002c557607f821691505b602082108103620002db57620002da6200027d565b5b50919050565b60008190508160005260206000209050919050565b60006020601f8301049050919050565b600082821b905092915050565b600060088302620003457fffffffffffffffffffffffffffffffffffffffffffffffffffffffffffffffff8262000306565b62000351868362000306565b95508019841693508086168417925050509392505050565b6000819050919050565b6000819050919050565b60006200039e62000398620003928462000369565b62000373565b62000369565b9050919050565b6000819050919050565b620003ba836200037d565b620003d2620003c982620003a5565b84845462000313565b825550505050565b600090565b620003e9620003da565b620003f6818484620003af565b505050565b5b818110156200041e5762000412600082620003df565b600181019050620003fc565b5050565b601f8211156200046d576200043781620002e1565b6200044284620002f6565b8101602085101562000452578190505b6200046a6200046185620002f6565b830182620003fb565b50505b505050565b600082821c905092915050565b6000620004926000198460080262000472565b1980831691505092915050565b6000620004ad83836200047f565b9150826002028217905092915050565b620004c88262000243565b67ffffffffffffffff811115620004e457620004e36200024e565b5b620004f08254620002ac565b620004fd82828562000422565b600060209050601f83116001811462000535576000841562000520578287015190505b6200052c85826200049f565b8655506200059c565b601f1984166200054586620002e1565b60005b828110156200056f5784890151825560018201915060208501945060208101905062000548565b868310156200058f57848901516200058b601f8916826200047f565b8355505b6001600288020188555050505b505050505050565b61319280620005b46000396000f3fe60806040526004361061011f5760003560e01c80638da5cb5b116100a0578063c87b56dd11610064578063c87b56dd146103d6578063e95a71ae14610413578063e985e9c51461042f578063ebf0c7171461046c578063f2fde38b146104975761011f565b80638da5cb5b146102f157806395d89b411461031c578063a22cb46514610347578063b88d4fde14610370578063b8a20ed0146103995761011f565b8063312237cd116100e7578063312237cd1461021b57806342842e0e146102375780636352211e1461026057806370a082311461029d578063715018a6146102da5761011f565b806301ffc9a71461012457806306fdde0314610161578063081812fc1461018c578063095ea7b3146101c957806323b872dd146101f2575b600080fd5b34801561013057600080fd5b5061014b60048036038101906101469190611cdd565b6104c0565b6040516101589190611d25565b60405180910390f35b34801561016d57600080fd5b506101766105a2565b6040516101839190611dd0565b60405180910390f35b34801561019857600080fd5b506101b360048036038101906101ae9190611e28565b610634565b6040516101c09190611e96565b60405180910390f35b3480156101d557600080fd5b506101f060048036038101906101eb9190611edd565b6106b9565b005b3480156101fe57600080fd5b5061021960048036038101906102149190611f1d565b6107d0565b005b610235600480360381019061023091906120ee565b610830565b005b34801561024357600080fd5b5061025e60048036038101906102599190611f1d565b6108c6565b005b34801561026c57600080fd5b5061028760048036038101906102829190611e28565b6108e6565b6040516102949190611e96565b60405180910390f35b3480156102a957600080fd5b506102c460048036038101906102bf919061214a565b610997565b6040516102d19190612186565b60405180910390f35b3480156102e657600080fd5b506102ef610a4e565b005b3480156102fd57600080fd5b50610306610ad6565b6040516103139190611e96565b60405180910390f35b34801561032857600080fd5b50610331610b00565b60405161033e9190611dd0565b60405180910390f35b34801561035357600080fd5b5061036e600480360381019061036991906121cd565b610b92565b005b34801561037c57600080fd5b50610397600480360381019061039291906122c2565b610ba8565b005b3480156103a557600080fd5b506103c060048036038101906103bb9190612345565b610c0a565b6040516103cd9190611d25565b60405180910390f35b3480156103e257600080fd5b506103fd60048036038101906103f89190611e28565b610c21565b60405161040a9190611dd0565b60405180910390f35b61042d6004803603810190610428919061214a565b610cc8565b005b34801561043b57600080fd5b50610456600480360381019061045191906123a1565b610d33565b6040516104639190611d25565b60405180910390f35b34801561047857600080fd5b50610481610dc7565b60405161048e91906123f0565b60405180910390f35b3480156104a357600080fd5b506104be60048036038101906104b9919061214a565b610dcd565b005b60007f80ac58cd000000000000000000000000000000000000000000000000000000007bffffffffffffffffffffffffffffffffffffffffffffffffffffffff1916827bffffffffffffffffffffffffffffffffffffffffffffffffffffffff1916148061058b57507f5b5e139f000000000000000000000000000000000000000000000000000000007bffffffffffffffffffffffffffffffffffffffffffffffffffffffff1916827bffffffffffffffffffffffffffffffffffffffffffffffffffffffff1916145b8061059b575061059a82610ec4565b5b9050919050565b6060600080546105b19061243a565b80601f01602080910402602001604051908101604052809291908181526020018280546105dd9061243a565b801561062a5780601f106105ff5761010080835404028352916020019161062a565b820191906000526020600020905b81548152906001019060200180831161060d57829003601f168201915b5050505050905090565b600061063f82610f2e565b61067e576040517f08c379a0000000000000000000000000000000000000000000000000000000008152600401610675906124dd565b60405180910390fd5b6004600083815260200190815260200160002060009054906101000a900473ffffffffffffffffffffffffffffffffffffffff169050919050565b60006106c4826108e6565b90508073ffffffffffffffffffffffffffffffffffffffff168373ffffffffffffffffffffffffffffffffffffffff1603610734576040517f08c379a000000000000000000000000000000000000000000000000000000000815260040161072b9061256f565b60405180910390fd5b8073ffffffffffffffffffffffffffffffffffffffff16610753610f9a565b73ffffffffffffffffffffffffffffffffffffffff16148061078257506107818161077c610f9a565b610d33565b5b6107c1576040517f08c379a00000000000000000000000000000000000000000000000000000000081526004016107b890612601565b60405180910390fd5b6107cb8383610fa2565b505050565b6107e16107db610f9a565b8261105b565b610820576040517f08c379a000000000000000000000000000000000000000000000000000000000815260040161081790612693565b60405180910390fd5b61082b838383611139565b505050565b610860813360405160200161084591906126fb565b60405160208183030381529060405280519060200120610c0a565b61089f576040517f08c379a0000000000000000000000000000000000000000000000000000000008152600401610896906127ae565b60405180910390fd5b60006108ab600961139f565b90506108b760096113ad565b6108c183826113c3565b505050565b6108e183838360405180602001604052806000815250610ba8565b505050565b6000806002600084815260200190815260200160002060009054906101000a900473ffffffffffffffffffffffffffffffffffffffff169050600073ffffffffffffffffffffffffffffffffffffffff168173ffffffffffffffffffffffffffffffffffffffff160361098e576040517f08c379a000000000000000000000000000000000000000000000000000000000815260040161098590612840565b60405180910390fd5b80915050919050565b60008073ffffffffffffffffffffffffffffffffffffffff168273ffffffffffffffffffffffffffffffffffffffff1603610a07576040517f08c379a00000000000000000000000000000000000000000000000000000000081526004016109fe906128d2565b60405180910390fd5b600360008373ffffffffffffffffffffffffffffffffffffffff1673ffffffffffffffffffffffffffffffffffffffff168152602001908152602001600020549050919050565b610a56610f9a565b73ffffffffffffffffffffffffffffffffffffffff16610a74610ad6565b73ffffffffffffffffffffffffffffffffffffffff1614610aca576040517f08c379a0000000000000000000000000000000000000000000000000000000008152600401610ac19061293e565b60405180910390fd5b610ad460006113e1565b565b6000600660009054906101000a900473ffffffffffffffffffffffffffffffffffffffff16905090565b606060018054610b0f9061243a565b80601f0160208091040260200160405190810160405280929190818152602001828054610b3b9061243a565b8015610b885780601f10610b5d57610100808354040283529160200191610b88565b820191906000526020600020905b815481529060010190602001808311610b6b57829003601f168201915b5050505050905090565b610ba4610b9d610f9a565b83836114a7565b5050565b610bb9610bb3610f9a565b8361105b565b610bf8576040517f08c379a0000000000000000000000000000000000000000000000000000000008152600401610bef90612693565b60405180910390fd5b610c0484848484611613565b50505050565b6000610c19836007548461166f565b905092915050565b6060610c2c82610f2e565b610c6b576040517f08c379a0000000000000000000000000000000000000000000000000000000008152600401610c62906129d0565b60405180910390fd5b6000610c75611686565b90506000815111610c955760405180602001604052806000815250610cc0565b80610c9f8461169d565b604051602001610cb0929190612a2c565b6040516020818303038152906040525b915050919050565b600854341015610d0d576040517f08c379a0000000000000000000000000000000000000000000000000000000008152600401610d0490612a9c565b60405180910390fd5b6000610d19600961139f565b9050610d2560096113ad565b610d2f82826113c3565b5050565b6000600560008473ffffffffffffffffffffffffffffffffffffffff1673ffffffffffffffffffffffffffffffffffffffff16815260200190815260200160002060008373ffffffffffffffffffffffffffffffffffffffff1673ffffffffffffffffffffffffffffffffffffffff16815260200190815260200160002060009054906101000a900460ff16905092915050565b60075481565b610dd5610f9a565b73ffffffffffffffffffffffffffffffffffffffff16610df3610ad6565b73ffffffffffffffffffffffffffffffffffffffff1614610e49576040517f08c379a0000000000000000000000000000000000000000000000000000000008152600401610e409061293e565b60405180910390fd5b600073ffffffffffffffffffffffffffffffffffffffff168173ffffffffffffffffffffffffffffffffffffffff1603610eb8576040517f08c379a0000000000000000000000000000000000000000000000000000000008152600401610eaf90612b2e565b60405180910390fd5b610ec1816113e1565b50565b60007f01ffc9a7000000000000000000000000000000000000000000000000000000007bffffffffffffffffffffffffffffffffffffffffffffffffffffffff1916827bffffffffffffffffffffffffffffffffffffffffffffffffffffffff1916149050919050565b60008073ffffffffffffffffffffffffffffffffffffffff166002600084815260200190815260200160002060009054906101000a900473ffffffffffffffffffffffffffffffffffffffff1673ffffffffffffffffffffffffffffffffffffffff1614159050919050565b600033905090565b816004600083815260200190815260200160002060006101000a81548173ffffffffffffffffffffffffffffffffffffffff021916908373ffffffffffffffffffffffffffffffffffffffff160217905550808273ffffffffffffffffffffffffffffffffffffffff16611015836108e6565b73ffffffffffffffffffffffffffffffffffffffff167f8c5be1e5ebec7d5bd14f71427d1e84f3dd0314c0f7b2291e5b200ac8c7c3b92560405160405180910390a45050565b600061106682610f2e565b6110a5576040517f08c379a000000000000000000000000000000000000000000000000000000000815260040161109c90612bc0565b60405180910390fd5b60006110b0836108e6565b90508073ffffffffffffffffffffffffffffffffffffffff168473ffffffffffffffffffffffffffffffffffffffff16148061111f57508373ffffffffffffffffffffffffffffffffffffffff1661110784610634565b73ffffffffffffffffffffffffffffffffffffffff16145b80611130575061112f8185610d33565b5b91505092915050565b8273ffffffffffffffffffffffffffffffffffffffff16611159826108e6565b73ffffffffffffffffffffffffffffffffffffffff16146111af576040517f08c379a00000000000000000000000000000000000000000000000000000000081526004016111a690612c52565b60405180910390fd5b600073ffffffffffffffffffffffffffffffffffffffff168273ffffffffffffffffffffffffffffffffffffffff160361121e576040517f08c379a000000000000000000000000000000000000000000000000000000000815260040161121590612ce4565b60405180910390fd5b6112298383836117fd565b611234600082610fa2565b6001600360008573ffffffffffffffffffffffffffffffffffffffff1673ffffffffffffffffffffffffffffffffffffffff16815260200190815260200160002060008282546112849190612d33565b925050819055506001600360008473ffffffffffffffffffffffffffffffffffffffff1673ffffffffffffffffffffffffffffffffffffffff16815260200190815260200160002060008282546112db9190612d67565b92505081905550816002600083815260200190815260200160002060006101000a81548173ffffffffffffffffffffffffffffffffffffffff021916908373ffffffffffffffffffffffffffffffffffffffff160217905550808273ffffffffffffffffffffffffffffffffffffffff168473ffffffffffffffffffffffffffffffffffffffff167fddf252ad1be2c89b69c2b068fc378daa952ba7f163c4a11628f55a4df523b3ef60405160405180910390a461139a838383611802565b505050565b600081600001549050919050565b6001816000016000828254019250508190555050565b6113dd828260405180602001604052806000815250611807565b5050565b6000600660009054906101000a900473ffffffffffffffffffffffffffffffffffffffff16905081600660006101000a81548173ffffffffffffffffffffffffffffffffffffffff021916908373ffffffffffffffffffffffffffffffffffffffff1602179055508173ffffffffffffffffffffffffffffffffffffffff168173ffffffffffffffffffffffffffffffffffffffff167f8be0079c531659141344cd1fd0a4f28419497f9722a3daafe3b4186f6b6457e060405160405180910390a35050565b8173ffffffffffffffffffffffffffffffffffffffff168373ffffffffffffffffffffffffffffffffffffffff1603611515576040517f08c379a000000000000000000000000000000000000000000000000000000000815260040161150c90612de7565b60405180910390fd5b80600560008573ffffffffffffffffffffffffffffffffffffffff1673ffffffffffffffffffffffffffffffffffffffff16815260200190815260200160002060008473ffffffffffffffffffffffffffffffffffffffff1673ffffffffffffffffffffffffffffffffffffffff16815260200190815260200160002060006101000a81548160ff0219169083151502179055508173ffffffffffffffffffffffffffffffffffffffff168373ffffffffffffffffffffffffffffffffffffffff167f17307eab39ab6107e8899845ad3d59bd9653f200f220920489ca2b5937696c31836040516116069190611d25565b60405180910390a3505050565b61161e848484611139565b61162a84848484611862565b611669576040517f08c379a000000000000000000000000000000000000000000000000000000000815260040161166090612e79565b60405180910390fd5b50505050565b60008261167c85846119e9565b1490509392505050565b606060405180602001604052806000815250905090565b6060600082036116e4576040518060400160405280600181526020017f300000000000000000000000000000000000000000000000000000000000000081525090506117f8565b600082905060005b600082146117165780806116ff90612e99565b915050600a8261170f9190612f10565b91506116ec565b60008167ffffffffffffffff81111561173257611731611f75565b5b6040519080825280601f01601f1916602001820160405280156117645781602001600182028036833780820191505090505b5090505b600085146117f15760018261177d9190612d33565b9150600a8561178c9190612f41565b60306117989190612d67565b60f81b8183815181106117ae576117ad612f72565b5b60200101907effffffffffffffffffffffffffffffffffffffffffffffffffffffffffffff1916908160001a905350600a856117ea9190612f10565b9450611768565b8093505050505b919050565b505050565b505050565b6118118383611a5e565b61181e6000848484611862565b61185d576040517f08c379a000000000000000000000000000000000000000000000000000000000815260040161185490612e79565b60405180910390fd5b505050565b60006118838473ffffffffffffffffffffffffffffffffffffffff16611c37565b156119dc578373ffffffffffffffffffffffffffffffffffffffff1663150b7a026118ac610f9a565b8786866040518563ffffffff1660e01b81526004016118ce9493929190612ff6565b6020604051808303816000875af192505050801561190a57506040513d601f19601f820116820180604052508101906119079190613057565b60015b61198c573d806000811461193a576040519150601f19603f3d011682016040523d82523d6000602084013e61193f565b606091505b506000815103611984576040517f08c379a000000000000000000000000000000000000000000000000000000000815260040161197b90612e79565b60405180910390fd5b805181602001fd5b63150b7a0260e01b7bffffffffffffffffffffffffffffffffffffffffffffffffffffffff1916817bffffffffffffffffffffffffffffffffffffffffffffffffffffffff1916149150506119e1565b600190505b949350505050565b60008082905060005b8451811015611a53576000858281518110611a1057611a0f612f72565b5b60200260200101519050808311611a3257611a2b8382611c5a565b9250611a3f565b611a3c8184611c5a565b92505b508080611a4b90612e99565b9150506119f2565b508091505092915050565b600073ffffffffffffffffffffffffffffffffffffffff168273ffffffffffffffffffffffffffffffffffffffff1603611acd576040517f08c379a0000000000000000000000000000000000000000000000000000000008152600401611ac4906130d0565b60405180910390fd5b611ad681610f2e565b15611b16576040517f08c379a0000000000000000000000000000000000000000000000000000000008152600401611b0d9061313c565b60405180910390fd5b611b22600083836117fd565b6001600360008473ffffffffffffffffffffffffffffffffffffffff1673ffffffffffffffffffffffffffffffffffffffff1681526020019081526020016000206000828254611b729190612d67565b92505081905550816002600083815260200190815260200160002060006101000a81548173ffffffffffffffffffffffffffffffffffffffff021916908373ffffffffffffffffffffffffffffffffffffffff160217905550808273ffffffffffffffffffffffffffffffffffffffff16600073ffffffffffffffffffffffffffffffffffffffff167fddf252ad1be2c89b69c2b068fc378daa952ba7f163c4a11628f55a4df523b3ef60405160405180910390a4611c3360008383611802565b5050565b6000808273ffffffffffffffffffffffffffffffffffffffff163b119050919050565b600082600052816020526040600020905092915050565b6000604051905090565b600080fd5b600080fd5b60007fffffffff0000000000000000000000000000000000000000000000000000000082169050919050565b611cba81611c85565b8114611cc557600080fd5b50565b600081359050611cd781611cb1565b92915050565b600060208284031215611cf357611cf2611c7b565b5b6000611d0184828501611cc8565b91505092915050565b60008115159050919050565b611d1f81611d0a565b82525050565b6000602082019050611d3a6000830184611d16565b92915050565b600081519050919050565b600082825260208201905092915050565b60005b83811015611d7a578082015181840152602081019050611d5f565b60008484015250505050565b6000601f19601f8301169050919050565b6000611da282611d40565b611dac8185611d4b565b9350611dbc818560208601611d5c565b611dc581611d86565b840191505092915050565b60006020820190508181036000830152611dea8184611d97565b905092915050565b6000819050919050565b611e0581611df2565b8114611e1057600080fd5b50565b600081359050611e2281611dfc565b92915050565b600060208284031215611e3e57611e3d611c7b565b5b6000611e4c84828501611e13565b91505092915050565b600073ffffffffffffffffffffffffffffffffffffffff82169050919050565b6000611e8082611e55565b9050919050565b611e9081611e75565b82525050565b6000602082019050611eab6000830184611e87565b92915050565b611eba81611e75565b8114611ec557600080fd5b50565b600081359050611ed781611eb1565b92915050565b60008060408385031215611ef457611ef3611c7b565b5b6000611f0285828601611ec8565b9250506020611f1385828601611e13565b9150509250929050565b600080600060608486031215611f3657611f35611c7b565b5b6000611f4486828701611ec8565b9350506020611f5586828701611ec8565b9250506040611f6686828701611e13565b9150509250925092565b600080fd5b7f4e487b7100000000000000000000000000000000000000000000000000000000600052604160045260246000fd5b611fad82611d86565b810181811067ffffffffffffffff82111715611fcc57611fcb611f75565b5b80604052505050565b6000611fdf611c71565b9050611feb8282611fa4565b919050565b600067ffffffffffffffff82111561200b5761200a611f75565b5b602082029050602081019050919050565b600080fd5b6000819050919050565b61203481612021565b811461203f57600080fd5b50565b6000813590506120518161202b565b92915050565b600061206a61206584611ff0565b611fd5565b9050808382526020820190506020840283018581111561208d5761208c61201c565b5b835b818110156120b657806120a28882612042565b84526020840193505060208101905061208f565b5050509392505050565b600082601f8301126120d5576120d4611f70565b5b81356120e5848260208601612057565b91505092915050565b6000806040838503121561210557612104611c7b565b5b600061211385828601611ec8565b925050602083013567ffffffffffffffff81111561213457612133611c80565b5b612140858286016120c0565b9150509250929050565b6000602082840312156121605761215f611c7b565b5b600061216e84828501611ec8565b91505092915050565b61218081611df2565b82525050565b600060208201905061219b6000830184612177565b92915050565b6121aa81611d0a565b81146121b557600080fd5b50565b6000813590506121c7816121a1565b92915050565b600080604083850312156121e4576121e3611c7b565b5b60006121f285828601611ec8565b9250506020612203858286016121b8565b9150509250929050565b600080fd5b600067ffffffffffffffff82111561222d5761222c611f75565b5b61223682611d86565b9050602081019050919050565b82818337600083830152505050565b600061226561226084612212565b611fd5565b9050828152602081018484840111156122815761228061220d565b5b61228c848285612243565b509392505050565b600082601f8301126122a9576122a8611f70565b5b81356122b9848260208601612252565b91505092915050565b600080600080608085870312156122dc576122db611c7b565b5b60006122ea87828801611ec8565b94505060206122fb87828801611ec8565b935050604061230c87828801611e13565b925050606085013567ffffffffffffffff81111561232d5761232c611c80565b5b61233987828801612294565b91505092959194509250565b6000806040838503121561235c5761235b611c7b565b5b600083013567ffffffffffffffff81111561237a57612379611c80565b5b612386858286016120c0565b925050602061239785828601612042565b9150509250929050565b600080604083850312156123b8576123b7611c7b565b5b60006123c685828601611ec8565b92505060206123d785828601611ec8565b9150509250929050565b6123ea81612021565b82525050565b600060208201905061240560008301846123e1565b92915050565b7f4e487b7100000000000000000000000000000000000000000000000000000000600052602260045260246000fd5b6000600282049050600182168061245257607f821691505b6020821081036124655761246461240b565b5b50919050565b7f4552433732313a20617070726f76656420717565727920666f72206e6f6e657860008201527f697374656e7420746f6b656e0000000000000000000000000000000000000000602082015250565b60006124c7602c83611d4b565b91506124d28261246b565b604082019050919050565b600060208201905081810360008301526124f6816124ba565b9050919050565b7f4552433732313a20617070726f76616c20746f2063757272656e74206f776e6560008201527f7200000000000000000000000000000000000000000000000000000000000000602082015250565b6000612559602183611d4b565b9150612564826124fd565b604082019050919050565b600060208201905081810360008301526125888161254c565b9050919050565b7f4552433732313a20617070726f76652063616c6c6572206973206e6f74206f7760008201527f6e6572206e6f7220617070726f76656420666f7220616c6c0000000000000000602082015250565b60006125eb603883611d4b565b91506125f68261258f565b604082019050919050565b6000602082019050818103600083015261261a816125de565b9050919050565b7f4552433732313a207472616e736665722063616c6c6572206973206e6f74206f60008201527f776e6572206e6f7220617070726f766564000000000000000000000000000000602082015250565b600061267d603183611d4b565b915061268882612621565b604082019050919050565b600060208201905081810360008301526126ac81612670565b9050919050565b60008160601b9050919050565b60006126cb826126b3565b9050919050565b60006126dd826126c0565b9050919050565b6126f56126f082611e75565b6126d2565b82525050565b600061270782846126e4565b60148201915081905092915050565b7f4e6f7420612070617274206f6620416c6c6f776c6973742e205468657265666f60008201527f7265207061796d656e74206f6620302e3120657468657220706572206d696e7460208201527f2072657175697265640000000000000000000000000000000000000000000000604082015250565b6000612798604983611d4b565b91506127a382612716565b606082019050919050565b600060208201905081810360008301526127c78161278b565b9050919050565b7f4552433732313a206f776e657220717565727920666f72206e6f6e657869737460008201527f656e7420746f6b656e0000000000000000000000000000000000000000000000602082015250565b600061282a602983611d4b565b9150612835826127ce565b604082019050919050565b600060208201905081810360008301526128598161281d565b9050919050565b7f4552433732313a2062616c616e636520717565727920666f7220746865207a6560008201527f726f206164647265737300000000000000000000000000000000000000000000602082015250565b60006128bc602a83611d4b565b91506128c782612860565b604082019050919050565b600060208201905081810360008301526128eb816128af565b9050919050565b7f4f776e61626c653a2063616c6c6572206973206e6f7420746865206f776e6572600082015250565b6000612928602083611d4b565b9150612933826128f2565b602082019050919050565b600060208201905081810360008301526129578161291b565b9050919050565b7f4552433732314d657461646174613a2055524920717565727920666f72206e6f60008201527f6e6578697374656e7420746f6b656e0000000000000000000000000000000000602082015250565b60006129ba602f83611d4b565b91506129c58261295e565b604082019050919050565b600060208201905081810360008301526129e9816129ad565b9050919050565b600081905092915050565b6000612a0682611d40565b612a1081856129f0565b9350612a20818560208601611d5c565b80840191505092915050565b6000612a3882856129fb565b9150612a4482846129fb565b91508190509392505050565b7f506c656173652070617920746865207265717569726564207072696365000000600082015250565b6000612a86601d83611d4b565b9150612a9182612a50565b602082019050919050565b60006020820190508181036000830152612ab581612a79565b9050919050565b7f4f776e61626c653a206e6577206f776e657220697320746865207a65726f206160008201527f6464726573730000000000000000000000000000000000000000000000000000602082015250565b6000612b18602683611d4b565b9150612b2382612abc565b604082019050919050565b60006020820190508181036000830152612b4781612b0b565b9050919050565b7f4552433732313a206f70657261746f7220717565727920666f72206e6f6e657860008201527f697374656e7420746f6b656e0000000000000000000000000000000000000000602082015250565b6000612baa602c83611d4b565b9150612bb582612b4e565b604082019050919050565b60006020820190508181036000830152612bd981612b9d565b9050919050565b7f4552433732313a207472616e736665722066726f6d20696e636f72726563742060008201527f6f776e6572000000000000000000000000000000000000000000000000000000602082015250565b6000612c3c602583611d4b565b9150612c4782612be0565b604082019050919050565b60006020820190508181036000830152612c6b81612c2f565b9050919050565b7f4552433732313a207472616e7366657220746f20746865207a65726f2061646460008201527f7265737300000000000000000000000000000000000000000000000000000000602082015250565b6000612cce602483611d4b565b9150612cd982612c72565b604082019050919050565b60006020820190508181036000830152612cfd81612cc1565b9050919050565b7f4e487b7100000000000000000000000000000000000000000000000000000000600052601160045260246000fd5b6000612d3e82611df2565b9150612d4983611df2565b9250828203905081811115612d6157612d60612d04565b5b92915050565b6000612d7282611df2565b9150612d7d83611df2565b9250828201905080821115612d9557612d94612d04565b5b92915050565b7f4552433732313a20617070726f766520746f2063616c6c657200000000000000600082015250565b6000612dd1601983611d4b565b9150612ddc82612d9b565b602082019050919050565b60006020820190508181036000830152612e0081612dc4565b9050919050565b7f4552433732313a207472616e7366657220746f206e6f6e20455243373231526560008201527f63656976657220696d706c656d656e7465720000000000000000000000000000602082015250565b6000612e63603283611d4b565b9150612e6e82612e07565b604082019050919050565b60006020820190508181036000830152612e9281612e56565b9050919050565b6000612ea482611df2565b91507fffffffffffffffffffffffffffffffffffffffffffffffffffffffffffffffff8203612ed657612ed5612d04565b5b600182019050919050565b7f4e487b7100000000000000000000000000000000000000000000000000000000600052601260045260246000fd5b6000612f1b82611df2565b9150612f2683611df2565b925082612f3657612f35612ee1565b5b828204905092915050565b6000612f4c82611df2565b9150612f5783611df2565b925082612f6757612f66612ee1565b5b828206905092915050565b7f4e487b7100000000000000000000000000000000000000000000000000000000600052603260045260246000fd5b600081519050919050565b600082825260208201905092915050565b6000612fc882612fa1565b612fd28185612fac565b9350612fe2818560208601611d5c565b612feb81611d86565b840191505092915050565b600060808201905061300b6000830187611e87565b6130186020830186611e87565b6130256040830185612177565b81810360608301526130378184612fbd565b905095945050505050565b60008151905061305181611cb1565b92915050565b60006020828403121561306d5761306c611c7b565b5b600061307b84828501613042565b91505092915050565b7f4552433732313a206d696e7420746f20746865207a65726f2061646472657373600082015250565b60006130ba602083611d4b565b91506130c582613084565b602082019050919050565b600060208201905081810360008301526130e9816130ad565b9050919050565b7f4552433732313a20746f6b656e20616c7265616479206d696e74656400000000600082015250565b6000613126601c83611d4b565b9150613131826130f0565b602082019050919050565b6000602082019050818103600083015261315581613119565b905091905056fea2646970667358221220aaa245116b7434d3ab6b914e1241cf0d69c962f0e7f6ec6b05b493d645a0d74864736f6c63430008120033",
			"opcodes": "PUSH1 0x80 PUSH1 0x40 MSTORE PUSH8 0x16345785D8A0000 PUSH1 0x8 SSTORE CALLVALUE DUP1 ISZERO PUSH3 0x1D JUMPI PUSH1 0x0 DUP1 REVERT JUMPDEST POP PUSH1 0x40 MLOAD PUSH3 0x3746 CODESIZE SUB DUP1 PUSH3 0x3746 DUP4 CODECOPY DUP2 DUP2 ADD PUSH1 0x40 MSTORE DUP2 ADD SWAP1 PUSH3 0x43 SWAP2 SWAP1 PUSH3 0x211 JUMP JUMPDEST PUSH1 0x40 MLOAD DUP1 PUSH1 0x40 ADD PUSH1 0x40 MSTORE DUP1 PUSH1 0x7 DUP2 MSTORE PUSH1 0x20 ADD PUSH32 0x4D79546F6B656E00000000000000000000000000000000000000000000000000 DUP2 MSTORE POP PUSH1 0x40 MLOAD DUP1 PUSH1 0x40 ADD PUSH1 0x40 MSTORE DUP1 PUSH1 0x3 DUP2 MSTORE PUSH1 0x20 ADD PUSH32 0x4D544B0000000000000000000000000000000000000000000000000000000000 DUP2 MSTORE POP DUP2 PUSH1 0x0 SWAP1 DUP2 PUSH3 0xC0 SWAP2 SWAP1 PUSH3 0x4BD JUMP JUMPDEST POP DUP1 PUSH1 0x1 SWAP1 DUP2 PUSH3 0xD2 SWAP2 SWAP1 PUSH3 0x4BD JUMP JUMPDEST POP POP POP PUSH3 0xF5 PUSH3 0xE9 PUSH3 0x103 PUSH1 0x20 SHL PUSH1 0x20 SHR JUMP JUMPDEST PUSH3 0x10B PUSH1 0x20 SHL PUSH1 0x20 SHR JUMP JUMPDEST DUP1 PUSH1 0x7 DUP2 SWAP1 SSTORE POP POP PUSH3 0x5A4 JUMP JUMPDEST PUSH1 0x0 CALLER SWAP1 POP SWAP1 JUMP JUMPDEST PUSH1 0x0 PUSH1 0x6 PUSH1 0x0 SWAP1 SLOAD SWAP1 PUSH2 0x100 EXP SWAP1 DIV PUSH20 0xFFFFFFFFFFFFFFFFFFFFFFFFFFFFFFFFFFFFFFFF AND SWAP1 POP DUP2 PUSH1 0x6 PUSH1 0x0 PUSH2 0x100 EXP DUP2 SLOAD DUP2 PUSH20 0xFFFFFFFFFFFFFFFFFFFFFFFFFFFFFFFFFFFFFFFF MUL NOT AND SWAP1 DUP4 PUSH20 0xFFFFFFFFFFFFFFFFFFFFFFFFFFFFFFFFFFFFFFFF AND MUL OR SWAP1 SSTORE POP DUP2 PUSH20 0xFFFFFFFFFFFFFFFFFFFFFFFFFFFFFFFFFFFFFFFF AND DUP2 PUSH20 0xFFFFFFFFFFFFFFFFFFFFFFFFFFFFFFFFFFFFFFFF AND PUSH32 0x8BE0079C531659141344CD1FD0A4F28419497F9722A3DAAFE3B4186F6B6457E0 PUSH1 0x40 MLOAD PUSH1 0x40 MLOAD DUP1 SWAP2 SUB SWAP1 LOG3 POP POP JUMP JUMPDEST PUSH1 0x0 DUP1 REVERT JUMPDEST PUSH1 0x0 DUP2 SWAP1 POP SWAP2 SWAP1 POP JUMP JUMPDEST PUSH3 0x1EB DUP2 PUSH3 0x1D6 JUMP JUMPDEST DUP2 EQ PUSH3 0x1F7 JUMPI PUSH1 0x0 DUP1 REVERT JUMPDEST POP JUMP JUMPDEST PUSH1 0x0 DUP2 MLOAD SWAP1 POP PUSH3 0x20B DUP2 PUSH3 0x1E0 JUMP JUMPDEST SWAP3 SWAP2 POP POP JUMP JUMPDEST PUSH1 0x0 PUSH1 0x20 DUP3 DUP5 SUB SLT ISZERO PUSH3 0x22A JUMPI PUSH3 0x229 PUSH3 0x1D1 JUMP JUMPDEST JUMPDEST PUSH1 0x0 PUSH3 0x23A DUP5 DUP3 DUP6 ADD PUSH3 0x1FA JUMP JUMPDEST SWAP2 POP POP SWAP3 SWAP2 POP POP JUMP JUMPDEST PUSH1 0x0 DUP2 MLOAD SWAP1 POP SWAP2 SWAP1 POP JUMP JUMPDEST PUSH32 0x4E487B7100000000000000000000000000000000000000000000000000000000 PUSH1 0x0 MSTORE PUSH1 0x41 PUSH1 0x4 MSTORE PUSH1 0x24 PUSH1 0x0 REVERT JUMPDEST PUSH32 0x4E487B7100000000000000000000000000000000000000000000000000000000 PUSH1 0x0 MSTORE PUSH1 0x22 PUSH1 0x4 MSTORE PUSH1 0x24 PUSH1 0x0 REVERT JUMPDEST PUSH1 0x0 PUSH1 0x2 DUP3 DIV SWAP1 POP PUSH1 0x1 DUP3 AND DUP1 PUSH3 0x2C5 JUMPI PUSH1 0x7F DUP3 AND SWAP2 POP JUMPDEST PUSH1 0x20 DUP3 LT DUP2 SUB PUSH3 0x2DB JUMPI PUSH3 0x2DA PUSH3 0x27D JUMP JUMPDEST JUMPDEST POP SWAP2 SWAP1 POP JUMP JUMPDEST PUSH1 0x0 DUP2 SWAP1 POP DUP2 PUSH1 0x0 MSTORE PUSH1 0x20 PUSH1 0x0 KECCAK256 SWAP1 POP SWAP2 SWAP1 POP JUMP JUMPDEST PUSH1 0x0 PUSH1 0x20 PUSH1 0x1F DUP4 ADD DIV SWAP1 POP SWAP2 SWAP1 POP JUMP JUMPDEST PUSH1 0x0 DUP3 DUP3 SHL SWAP1 POP SWAP3 SWAP2 POP POP JUMP JUMPDEST PUSH1 0x0 PUSH1 0x8 DUP4 MUL PUSH3 0x345 PUSH32 0xFFFFFFFFFFFFFFFFFFFFFFFFFFFFFFFFFFFFFFFFFFFFFFFFFFFFFFFFFFFFFFFF DUP3 PUSH3 0x306 JUMP JUMPDEST PUSH3 0x351 DUP7 DUP4 PUSH3 0x306 JUMP JUMPDEST SWAP6 POP DUP1 NOT DUP5 AND SWAP4 POP DUP1 DUP7 AND DUP5 OR SWAP3 POP POP POP SWAP4 SWAP3 POP POP POP JUMP JUMPDEST PUSH1 0x0 DUP2 SWAP1 POP SWAP2 SWAP1 POP JUMP JUMPDEST PUSH1 0x0 DUP2 SWAP1 POP SWAP2 SWAP1 POP JUMP JUMPDEST PUSH1 0x0 PUSH3 0x39E PUSH3 0x398 PUSH3 0x392 DUP5 PUSH3 0x369 JUMP JUMPDEST PUSH3 0x373 JUMP JUMPDEST PUSH3 0x369 JUMP JUMPDEST SWAP1 POP SWAP2 SWAP1 POP JUMP JUMPDEST PUSH1 0x0 DUP2 SWAP1 POP SWAP2 SWAP1 POP JUMP JUMPDEST PUSH3 0x3BA DUP4 PUSH3 0x37D JUMP JUMPDEST PUSH3 0x3D2 PUSH3 0x3C9 DUP3 PUSH3 0x3A5 JUMP JUMPDEST DUP5 DUP5 SLOAD PUSH3 0x313 JUMP JUMPDEST DUP3 SSTORE POP POP POP POP JUMP JUMPDEST PUSH1 0x0 SWAP1 JUMP JUMPDEST PUSH3 0x3E9 PUSH3 0x3DA JUMP JUMPDEST PUSH3 0x3F6 DUP2 DUP5 DUP5 PUSH3 0x3AF JUMP JUMPDEST POP POP POP JUMP JUMPDEST JUMPDEST DUP2 DUP2 LT ISZERO PUSH3 0x41E JUMPI PUSH3 0x412 PUSH1 0x0 DUP3 PUSH3 0x3DF JUMP JUMPDEST PUSH1 0x1 DUP2 ADD SWAP1 POP PUSH3 0x3FC JUMP JUMPDEST POP POP JUMP JUMPDEST PUSH1 0x1F DUP3 GT ISZERO PUSH3 0x46D JUMPI PUSH3 0x437 DUP2 PUSH3 0x2E1 JUMP JUMPDEST PUSH3 0x442 DUP5 PUSH3 0x2F6 JUMP JUMPDEST DUP2 ADD PUSH1 0x20 DUP6 LT ISZERO PUSH3 0x452 JUMPI DUP2 SWAP1 POP JUMPDEST PUSH3 0x46A PUSH3 0x461 DUP6 PUSH3 0x2F6 JUMP JUMPDEST DUP4 ADD DUP3 PUSH3 0x3FB JUMP JUMPDEST POP POP JUMPDEST POP POP POP JUMP JUMPDEST PUSH1 0x0 DUP3 DUP3 SHR SWAP1 POP SWAP3 SWAP2 POP POP JUMP JUMPDEST PUSH1 0x0 PUSH3 0x492 PUSH1 0x0 NOT DUP5 PUSH1 0x8 MUL PUSH3 0x472 JUMP JUMPDEST NOT DUP1 DUP4 AND SWAP2 POP POP SWAP3 SWAP2 POP POP JUMP JUMPDEST PUSH1 0x0 PUSH3 0x4AD DUP4 DUP4 PUSH3 0x47F JUMP JUMPDEST SWAP2 POP DUP3 PUSH1 0x2 MUL DUP3 OR SWAP1 POP SWAP3 SWAP2 POP POP JUMP JUMPDEST PUSH3 0x4C8 DUP3 PUSH3 0x243 JUMP JUMPDEST PUSH8 0xFFFFFFFFFFFFFFFF DUP2 GT ISZERO PUSH3 0x4E4 JUMPI PUSH3 0x4E3 PUSH3 0x24E JUMP JUMPDEST JUMPDEST PUSH3 0x4F0 DUP3 SLOAD PUSH3 0x2AC JUMP JUMPDEST PUSH3 0x4FD DUP3 DUP3 DUP6 PUSH3 0x422 JUMP JUMPDEST PUSH1 0x0 PUSH1 0x20 SWAP1 POP PUSH1 0x1F DUP4 GT PUSH1 0x1 DUP2 EQ PUSH3 0x535 JUMPI PUSH1 0x0 DUP5 ISZERO PUSH3 0x520 JUMPI DUP3 DUP8 ADD MLOAD SWAP1 POP JUMPDEST PUSH3 0x52C DUP6 DUP3 PUSH3 0x49F JUMP JUMPDEST DUP7 SSTORE POP PUSH3 0x59C JUMP JUMPDEST PUSH1 0x1F NOT DUP5 AND PUSH3 0x545 DUP7 PUSH3 0x2E1 JUMP JUMPDEST PUSH1 0x0 JUMPDEST DUP3 DUP2 LT ISZERO PUSH3 0x56F JUMPI DUP5 DUP10 ADD MLOAD DUP3 SSTORE PUSH1 0x1 DUP3 ADD SWAP2 POP PUSH1 0x20 DUP6 ADD SWAP5 POP PUSH1 0x20 DUP2 ADD SWAP1 POP PUSH3 0x548 JUMP JUMPDEST DUP7 DUP4 LT ISZERO PUSH3 0x58F JUMPI DUP5 DUP10 ADD MLOAD PUSH3 0x58B PUSH1 0x1F DUP10 AND DUP3 PUSH3 0x47F JUMP JUMPDEST DUP4 SSTORE POP JUMPDEST PUSH1 0x1 PUSH1 0x2 DUP9 MUL ADD DUP9 SSTORE POP POP POP JUMPDEST POP POP POP POP POP POP JUMP JUMPDEST PUSH2 0x3192 DUP1 PUSH3 0x5B4 PUSH1 0x0 CODECOPY PUSH1 0x0 RETURN INVALID PUSH1 0x80 PUSH1 0x40 MSTORE PUSH1 0x4 CALLDATASIZE LT PUSH2 0x11F JUMPI PUSH1 0x0 CALLDATALOAD PUSH1 0xE0 SHR DUP1 PUSH4 0x8DA5CB5B GT PUSH2 0xA0 JUMPI DUP1 PUSH4 0xC87B56DD GT PUSH2 0x64 JUMPI DUP1 PUSH4 0xC87B56DD EQ PUSH2 0x3D6 JUMPI DUP1 PUSH4 0xE95A71AE EQ PUSH2 0x413 JUMPI DUP1 PUSH4 0xE985E9C5 EQ PUSH2 0x42F JUMPI DUP1 PUSH4 0xEBF0C717 EQ PUSH2 0x46C JUMPI DUP1 PUSH4 0xF2FDE38B EQ PUSH2 0x497 JUMPI PUSH2 0x11F JUMP JUMPDEST DUP1 PUSH4 0x8DA5CB5B EQ PUSH2 0x2F1 JUMPI DUP1 PUSH4 0x95D89B41 EQ PUSH2 0x31C JUMPI DUP1 PUSH4 0xA22CB465 EQ PUSH2 0x347 JUMPI DUP1 PUSH4 0xB88D4FDE EQ PUSH2 0x370 JUMPI DUP1 PUSH4 0xB8A20ED0 EQ PUSH2 0x399 JUMPI PUSH2 0x11F JUMP JUMPDEST DUP1 PUSH4 0x312237CD GT PUSH2 0xE7 JUMPI DUP1 PUSH4 0x312237CD EQ PUSH2 0x21B JUMPI DUP1 PUSH4 0x42842E0E EQ PUSH2 0x237 JUMPI DUP1 PUSH4 0x6352211E EQ PUSH2 0x260 JUMPI DUP1 PUSH4 0x70A08231 EQ PUSH2 0x29D JUMPI DUP1 PUSH4 0x715018A6 EQ PUSH2 0x2DA JUMPI PUSH2 0x11F JUMP JUMPDEST DUP1 PUSH4 0x1FFC9A7 EQ PUSH2 0x124 JUMPI DUP1 PUSH4 0x6FDDE03 EQ PUSH2 0x161 JUMPI DUP1 PUSH4 0x81812FC EQ PUSH2 0x18C JUMPI DUP1 PUSH4 0x95EA7B3 EQ PUSH2 0x1C9 JUMPI DUP1 PUSH4 0x23B872DD EQ PUSH2 0x1F2 JUMPI JUMPDEST PUSH1 0x0 DUP1 REVERT JUMPDEST CALLVALUE DUP1 ISZERO PUSH2 0x130 JUMPI PUSH1 0x0 DUP1 REVERT JUMPDEST POP PUSH2 0x14B PUSH1 0x4 DUP1 CALLDATASIZE SUB DUP2 ADD SWAP1 PUSH2 0x146 SWAP2 SWAP1 PUSH2 0x1CDD JUMP JUMPDEST PUSH2 0x4C0 JUMP JUMPDEST PUSH1 0x40 MLOAD PUSH2 0x158 SWAP2 SWAP1 PUSH2 0x1D25 JUMP JUMPDEST PUSH1 0x40 MLOAD DUP1 SWAP2 SUB SWAP1 RETURN JUMPDEST CALLVALUE DUP1 ISZERO PUSH2 0x16D JUMPI PUSH1 0x0 DUP1 REVERT JUMPDEST POP PUSH2 0x176 PUSH2 0x5A2 JUMP JUMPDEST PUSH1 0x40 MLOAD PUSH2 0x183 SWAP2 SWAP1 PUSH2 0x1DD0 JUMP JUMPDEST PUSH1 0x40 MLOAD DUP1 SWAP2 SUB SWAP1 RETURN JUMPDEST CALLVALUE DUP1 ISZERO PUSH2 0x198 JUMPI PUSH1 0x0 DUP1 REVERT JUMPDEST POP PUSH2 0x1B3 PUSH1 0x4 DUP1 CALLDATASIZE SUB DUP2 ADD SWAP1 PUSH2 0x1AE SWAP2 SWAP1 PUSH2 0x1E28 JUMP JUMPDEST PUSH2 0x634 JUMP JUMPDEST PUSH1 0x40 MLOAD PUSH2 0x1C0 SWAP2 SWAP1 PUSH2 0x1E96 JUMP JUMPDEST PUSH1 0x40 MLOAD DUP1 SWAP2 SUB SWAP1 RETURN JUMPDEST CALLVALUE DUP1 ISZERO PUSH2 0x1D5 JUMPI PUSH1 0x0 DUP1 REVERT JUMPDEST POP PUSH2 0x1F0 PUSH1 0x4 DUP1 CALLDATASIZE SUB DUP2 ADD SWAP1 PUSH2 0x1EB SWAP2 SWAP1 PUSH2 0x1EDD JUMP JUMPDEST PUSH2 0x6B9 JUMP JUMPDEST STOP JUMPDEST CALLVALUE DUP1 ISZERO PUSH2 0x1FE JUMPI PUSH1 0x0 DUP1 REVERT JUMPDEST POP PUSH2 0x219 PUSH1 0x4 DUP1 CALLDATASIZE SUB DUP2 ADD SWAP1 PUSH2 0x214 SWAP2 SWAP1 PUSH2 0x1F1D JUMP JUMPDEST PUSH2 0x7D0 JUMP JUMPDEST STOP JUMPDEST PUSH2 0x235 PUSH1 0x4 DUP1 CALLDATASIZE SUB DUP2 ADD SWAP1 PUSH2 0x230 SWAP2 SWAP1 PUSH2 0x20EE JUMP JUMPDEST PUSH2 0x830 JUMP JUMPDEST STOP JUMPDEST CALLVALUE DUP1 ISZERO PUSH2 0x243 JUMPI PUSH1 0x0 DUP1 REVERT JUMPDEST POP PUSH2 0x25E PUSH1 0x4 DUP1 CALLDATASIZE SUB DUP2 ADD SWAP1 PUSH2 0x259 SWAP2 SWAP1 PUSH2 0x1F1D JUMP JUMPDEST PUSH2 0x8C6 JUMP JUMPDEST STOP JUMPDEST CALLVALUE DUP1 ISZERO PUSH2 0x26C JUMPI PUSH1 0x0 DUP1 REVERT JUMPDEST POP PUSH2 0x287 PUSH1 0x4 DUP1 CALLDATASIZE SUB DUP2 ADD SWAP1 PUSH2 0x282 SWAP2 SWAP1 PUSH2 0x1E28 JUMP JUMPDEST PUSH2 0x8E6 JUMP JUMPDEST PUSH1 0x40 MLOAD PUSH2 0x294 SWAP2 SWAP1 PUSH2 0x1E96 JUMP JUMPDEST PUSH1 0x40 MLOAD DUP1 SWAP2 SUB SWAP1 RETURN JUMPDEST CALLVALUE DUP1 ISZERO PUSH2 0x2A9 JUMPI PUSH1 0x0 DUP1 REVERT JUMPDEST POP PUSH2 0x2C4 PUSH1 0x4 DUP1 CALLDATASIZE SUB DUP2 ADD SWAP1 PUSH2 0x2BF SWAP2 SWAP1 PUSH2 0x214A JUMP JUMPDEST PUSH2 0x997 JUMP JUMPDEST PUSH1 0x40 MLOAD PUSH2 0x2D1 SWAP2 SWAP1 PUSH2 0x2186 JUMP JUMPDEST PUSH1 0x40 MLOAD DUP1 SWAP2 SUB SWAP1 RETURN JUMPDEST CALLVALUE DUP1 ISZERO PUSH2 0x2E6 JUMPI PUSH1 0x0 DUP1 REVERT JUMPDEST POP PUSH2 0x2EF PUSH2 0xA4E JUMP JUMPDEST STOP JUMPDEST CALLVALUE DUP1 ISZERO PUSH2 0x2FD JUMPI PUSH1 0x0 DUP1 REVERT JUMPDEST POP PUSH2 0x306 PUSH2 0xAD6 JUMP JUMPDEST PUSH1 0x40 MLOAD PUSH2 0x313 SWAP2 SWAP1 PUSH2 0x1E96 JUMP JUMPDEST PUSH1 0x40 MLOAD DUP1 SWAP2 SUB SWAP1 RETURN JUMPDEST CALLVALUE DUP1 ISZERO PUSH2 0x328 JUMPI PUSH1 0x0 DUP1 REVERT JUMPDEST POP PUSH2 0x331 PUSH2 0xB00 JUMP JUMPDEST PUSH1 0x40 MLOAD PUSH2 0x33E SWAP2 SWAP1 PUSH2 0x1DD0 JUMP JUMPDEST PUSH1 0x40 MLOAD DUP1 SWAP2 SUB SWAP1 RETURN JUMPDEST CALLVALUE DUP1 ISZERO PUSH2 0x353 JUMPI PUSH1 0x0 DUP1 REVERT JUMPDEST POP PUSH2 0x36E PUSH1 0x4 DUP1 CALLDATASIZE SUB DUP2 ADD SWAP1 PUSH2 0x369 SWAP2 SWAP1 PUSH2 0x21CD JUMP JUMPDEST PUSH2 0xB92 JUMP JUMPDEST STOP JUMPDEST CALLVALUE DUP1 ISZERO PUSH2 0x37C JUMPI PUSH1 0x0 DUP1 REVERT JUMPDEST POP PUSH2 0x397 PUSH1 0x4 DUP1 CALLDATASIZE SUB DUP2 ADD SWAP1 PUSH2 0x392 SWAP2 SWAP1 PUSH2 0x22C2 JUMP JUMPDEST PUSH2 0xBA8 JUMP JUMPDEST STOP JUMPDEST CALLVALUE DUP1 ISZERO PUSH2 0x3A5 JUMPI PUSH1 0x0 DUP1 REVERT JUMPDEST POP PUSH2 0x3C0 PUSH1 0x4 DUP1 CALLDATASIZE SUB DUP2 ADD SWAP1 PUSH2 0x3BB SWAP2 SWAP1 PUSH2 0x2345 JUMP JUMPDEST PUSH2 0xC0A JUMP JUMPDEST PUSH1 0x40 MLOAD PUSH2 0x3CD SWAP2 SWAP1 PUSH2 0x1D25 JUMP JUMPDEST PUSH1 0x40 MLOAD DUP1 SWAP2 SUB SWAP1 RETURN JUMPDEST CALLVALUE DUP1 ISZERO PUSH2 0x3E2 JUMPI PUSH1 0x0 DUP1 REVERT JUMPDEST POP PUSH2 0x3FD PUSH1 0x4 DUP1 CALLDATASIZE SUB DUP2 ADD SWAP1 PUSH2 0x3F8 SWAP2 SWAP1 PUSH2 0x1E28 JUMP JUMPDEST PUSH2 0xC21 JUMP JUMPDEST PUSH1 0x40 MLOAD PUSH2 0x40A SWAP2 SWAP1 PUSH2 0x1DD0 JUMP JUMPDEST PUSH1 0x40 MLOAD DUP1 SWAP2 SUB SWAP1 RETURN JUMPDEST PUSH2 0x42D PUSH1 0x4 DUP1 CALLDATASIZE SUB DUP2 ADD SWAP1 PUSH2 0x428 SWAP2 SWAP1 PUSH2 0x214A JUMP JUMPDEST PUSH2 0xCC8 JUMP JUMPDEST STOP JUMPDEST CALLVALUE DUP1 ISZERO PUSH2 0x43B JUMPI PUSH1 0x0 DUP1 REVERT JUMPDEST POP PUSH2 0x456 PUSH1 0x4 DUP1 CALLDATASIZE SUB DUP2 ADD SWAP1 PUSH2 0x451 SWAP2 SWAP1 PUSH2 0x23A1 JUMP JUMPDEST PUSH2 0xD33 JUMP JUMPDEST PUSH1 0x40 MLOAD PUSH2 0x463 SWAP2 SWAP1 PUSH2 0x1D25 JUMP JUMPDEST PUSH1 0x40 MLOAD DUP1 SWAP2 SUB SWAP1 RETURN JUMPDEST CALLVALUE DUP1 ISZERO PUSH2 0x478 JUMPI PUSH1 0x0 DUP1 REVERT JUMPDEST POP PUSH2 0x481 PUSH2 0xDC7 JUMP JUMPDEST PUSH1 0x40 MLOAD PUSH2 0x48E SWAP2 SWAP1 PUSH2 0x23F0 JUMP JUMPDEST PUSH1 0x40 MLOAD DUP1 SWAP2 SUB SWAP1 RETURN JUMPDEST CALLVALUE DUP1 ISZERO PUSH2 0x4A3 JUMPI PUSH1 0x0 DUP1 REVERT JUMPDEST POP PUSH2 0x4BE PUSH1 0x4 DUP1 CALLDATASIZE SUB DUP2 ADD SWAP1 PUSH2 0x4B9 SWAP2 SWAP1 PUSH2 0x214A JUMP JUMPDEST PUSH2 0xDCD JUMP JUMPDEST STOP JUMPDEST PUSH1 0x0 PUSH32 0x80AC58CD00000000000000000000000000000000000000000000000000000000 PUSH28 0xFFFFFFFFFFFFFFFFFFFFFFFFFFFFFFFFFFFFFFFFFFFFFFFFFFFFFFFF NOT AND DUP3 PUSH28 0xFFFFFFFFFFFFFFFFFFFFFFFFFFFFFFFFFFFFFFFFFFFFFFFFFFFFFFFF NOT AND EQ DUP1 PUSH2 0x58B JUMPI POP PUSH32 0x5B5E139F00000000000000000000000000000000000000000000000000000000 PUSH28 0xFFFFFFFFFFFFFFFFFFFFFFFFFFFFFFFFFFFFFFFFFFFFFFFFFFFFFFFF NOT AND DUP3 PUSH28 0xFFFFFFFFFFFFFFFFFFFFFFFFFFFFFFFFFFFFFFFFFFFFFFFFFFFFFFFF NOT AND EQ JUMPDEST DUP1 PUSH2 0x59B JUMPI POP PUSH2 0x59A DUP3 PUSH2 0xEC4 JUMP JUMPDEST JUMPDEST SWAP1 POP SWAP2 SWAP1 POP JUMP JUMPDEST PUSH1 0x60 PUSH1 0x0 DUP1 SLOAD PUSH2 0x5B1 SWAP1 PUSH2 0x243A JUMP JUMPDEST DUP1 PUSH1 0x1F ADD PUSH1 0x20 DUP1 SWAP2 DIV MUL PUSH1 0x20 ADD PUSH1 0x40 MLOAD SWAP1 DUP2 ADD PUSH1 0x40 MSTORE DUP1 SWAP3 SWAP2 SWAP1 DUP2 DUP2 MSTORE PUSH1 0x20 ADD DUP3 DUP1 SLOAD PUSH2 0x5DD SWAP1 PUSH2 0x243A JUMP JUMPDEST DUP1 ISZERO PUSH2 0x62A JUMPI DUP1 PUSH1 0x1F LT PUSH2 0x5FF JUMPI PUSH2 0x100 DUP1 DUP4 SLOAD DIV MUL DUP4 MSTORE SWAP2 PUSH1 0x20 ADD SWAP2 PUSH2 0x62A JUMP JUMPDEST DUP3 ADD SWAP2 SWAP1 PUSH1 0x0 MSTORE PUSH1 0x20 PUSH1 0x0 KECCAK256 SWAP1 JUMPDEST DUP2 SLOAD DUP2 MSTORE SWAP1 PUSH1 0x1 ADD SWAP1 PUSH1 0x20 ADD DUP1 DUP4 GT PUSH2 0x60D JUMPI DUP3 SWAP1 SUB PUSH1 0x1F AND DUP3 ADD SWAP2 JUMPDEST POP POP POP POP POP SWAP1 POP SWAP1 JUMP JUMPDEST PUSH1 0x0 PUSH2 0x63F DUP3 PUSH2 0xF2E JUMP JUMPDEST PUSH2 0x67E JUMPI PUSH1 0x40 MLOAD PUSH32 0x8C379A000000000000000000000000000000000000000000000000000000000 DUP2 MSTORE PUSH1 0x4 ADD PUSH2 0x675 SWAP1 PUSH2 0x24DD JUMP JUMPDEST PUSH1 0x40 MLOAD DUP1 SWAP2 SUB SWAP1 REVERT JUMPDEST PUSH1 0x4 PUSH1 0x0 DUP4 DUP2 MSTORE PUSH1 0x20 ADD SWAP1 DUP2 MSTORE PUSH1 0x20 ADD PUSH1 0x0 KECCAK256 PUSH1 0x0 SWAP1 SLOAD SWAP1 PUSH2 0x100 EXP SWAP1 DIV PUSH20 0xFFFFFFFFFFFFFFFFFFFFFFFFFFFFFFFFFFFFFFFF AND SWAP1 POP SWAP2 SWAP1 POP JUMP JUMPDEST PUSH1 0x0 PUSH2 0x6C4 DUP3 PUSH2 0x8E6 JUMP JUMPDEST SWAP1 POP DUP1 PUSH20 0xFFFFFFFFFFFFFFFFFFFFFFFFFFFFFFFFFFFFFFFF AND DUP4 PUSH20 0xFFFFFFFFFFFFFFFFFFFFFFFFFFFFFFFFFFFFFFFF AND SUB PUSH2 0x734 JUMPI PUSH1 0x40 MLOAD PUSH32 0x8C379A000000000000000000000000000000000000000000000000000000000 DUP2 MSTORE PUSH1 0x4 ADD PUSH2 0x72B SWAP1 PUSH2 0x256F JUMP JUMPDEST PUSH1 0x40 MLOAD DUP1 SWAP2 SUB SWAP1 REVERT JUMPDEST DUP1 PUSH20 0xFFFFFFFFFFFFFFFFFFFFFFFFFFFFFFFFFFFFFFFF AND PUSH2 0x753 PUSH2 0xF9A JUMP JUMPDEST PUSH20 0xFFFFFFFFFFFFFFFFFFFFFFFFFFFFFFFFFFFFFFFF AND EQ DUP1 PUSH2 0x782 JUMPI POP PUSH2 0x781 DUP2 PUSH2 0x77C PUSH2 0xF9A JUMP JUMPDEST PUSH2 0xD33 JUMP JUMPDEST JUMPDEST PUSH2 0x7C1 JUMPI PUSH1 0x40 MLOAD PUSH32 0x8C379A000000000000000000000000000000000000000000000000000000000 DUP2 MSTORE PUSH1 0x4 ADD PUSH2 0x7B8 SWAP1 PUSH2 0x2601 JUMP JUMPDEST PUSH1 0x40 MLOAD DUP1 SWAP2 SUB SWAP1 REVERT JUMPDEST PUSH2 0x7CB DUP4 DUP4 PUSH2 0xFA2 JUMP JUMPDEST POP POP POP JUMP JUMPDEST PUSH2 0x7E1 PUSH2 0x7DB PUSH2 0xF9A JUMP JUMPDEST DUP3 PUSH2 0x105B JUMP JUMPDEST PUSH2 0x820 JUMPI PUSH1 0x40 MLOAD PUSH32 0x8C379A000000000000000000000000000000000000000000000000000000000 DUP2 MSTORE PUSH1 0x4 ADD PUSH2 0x817 SWAP1 PUSH2 0x2693 JUMP JUMPDEST PUSH1 0x40 MLOAD DUP1 SWAP2 SUB SWAP1 REVERT JUMPDEST PUSH2 0x82B DUP4 DUP4 DUP4 PUSH2 0x1139 JUMP JUMPDEST POP POP POP JUMP JUMPDEST PUSH2 0x860 DUP2 CALLER PUSH1 0x40 MLOAD PUSH1 0x20 ADD PUSH2 0x845 SWAP2 SWAP1 PUSH2 0x26FB JUMP JUMPDEST PUSH1 0x40 MLOAD PUSH1 0x20 DUP2 DUP4 SUB SUB DUP2 MSTORE SWAP1 PUSH1 0x40 MSTORE DUP1 MLOAD SWAP1 PUSH1 0x20 ADD KECCAK256 PUSH2 0xC0A JUMP JUMPDEST PUSH2 0x89F JUMPI PUSH1 0x40 MLOAD PUSH32 0x8C379A000000000000000000000000000000000000000000000000000000000 DUP2 MSTORE PUSH1 0x4 ADD PUSH2 0x896 SWAP1 PUSH2 0x27AE JUMP JUMPDEST PUSH1 0x40 MLOAD DUP1 SWAP2 SUB SWAP1 REVERT JUMPDEST PUSH1 0x0 PUSH2 0x8AB PUSH1 0x9 PUSH2 0x139F JUMP JUMPDEST SWAP1 POP PUSH2 0x8B7 PUSH1 0x9 PUSH2 0x13AD JUMP JUMPDEST PUSH2 0x8C1 DUP4 DUP3 PUSH2 0x13C3 JUMP JUMPDEST POP POP POP JUMP JUMPDEST PUSH2 0x8E1 DUP4 DUP4 DUP4 PUSH1 0x40 MLOAD DUP1 PUSH1 0x20 ADD PUSH1 0x40 MSTORE DUP1 PUSH1 0x0 DUP2 MSTORE POP PUSH2 0xBA8 JUMP JUMPDEST POP POP POP JUMP JUMPDEST PUSH1 0x0 DUP1 PUSH1 0x2 PUSH1 0x0 DUP5 DUP2 MSTORE PUSH1 0x20 ADD SWAP1 DUP2 MSTORE PUSH1 0x20 ADD PUSH1 0x0 KECCAK256 PUSH1 0x0 SWAP1 SLOAD SWAP1 PUSH2 0x100 EXP SWAP1 DIV PUSH20 0xFFFFFFFFFFFFFFFFFFFFFFFFFFFFFFFFFFFFFFFF AND SWAP1 POP PUSH1 0x0 PUSH20 0xFFFFFFFFFFFFFFFFFFFFFFFFFFFFFFFFFFFFFFFF AND DUP2 PUSH20 0xFFFFFFFFFFFFFFFFFFFFFFFFFFFFFFFFFFFFFFFF AND SUB PUSH2 0x98E JUMPI PUSH1 0x40 MLOAD PUSH32 0x8C379A000000000000000000000000000000000000000000000000000000000 DUP2 MSTORE PUSH1 0x4 ADD PUSH2 0x985 SWAP1 PUSH2 0x2840 JUMP JUMPDEST PUSH1 0x40 MLOAD DUP1 SWAP2 SUB SWAP1 REVERT JUMPDEST DUP1 SWAP2 POP POP SWAP2 SWAP1 POP JUMP JUMPDEST PUSH1 0x0 DUP1 PUSH20 0xFFFFFFFFFFFFFFFFFFFFFFFFFFFFFFFFFFFFFFFF AND DUP3 PUSH20 0xFFFFFFFFFFFFFFFFFFFFFFFFFFFFFFFFFFFFFFFF AND SUB PUSH2 0xA07 JUMPI PUSH1 0x40 MLOAD PUSH32 0x8C379A000000000000000000000000000000000000000000000000000000000 DUP2 MSTORE PUSH1 0x4 ADD PUSH2 0x9FE SWAP1 PUSH2 0x28D2 JUMP JUMPDEST PUSH1 0x40 MLOAD DUP1 SWAP2 SUB SWAP1 REVERT JUMPDEST PUSH1 0x3 PUSH1 0x0 DUP4 PUSH20 0xFFFFFFFFFFFFFFFFFFFFFFFFFFFFFFFFFFFFFFFF AND PUSH20 0xFFFFFFFFFFFFFFFFFFFFFFFFFFFFFFFFFFFFFFFF AND DUP2 MSTORE PUSH1 0x20 ADD SWAP1 DUP2 MSTORE PUSH1 0x20 ADD PUSH1 0x0 KECCAK256 SLOAD SWAP1 POP SWAP2 SWAP1 POP JUMP JUMPDEST PUSH2 0xA56 PUSH2 0xF9A JUMP JUMPDEST PUSH20 0xFFFFFFFFFFFFFFFFFFFFFFFFFFFFFFFFFFFFFFFF AND PUSH2 0xA74 PUSH2 0xAD6 JUMP JUMPDEST PUSH20 0xFFFFFFFFFFFFFFFFFFFFFFFFFFFFFFFFFFFFFFFF AND EQ PUSH2 0xACA JUMPI PUSH1 0x40 MLOAD PUSH32 0x8C379A000000000000000000000000000000000000000000000000000000000 DUP2 MSTORE PUSH1 0x4 ADD PUSH2 0xAC1 SWAP1 PUSH2 0x293E JUMP JUMPDEST PUSH1 0x40 MLOAD DUP1 SWAP2 SUB SWAP1 REVERT JUMPDEST PUSH2 0xAD4 PUSH1 0x0 PUSH2 0x13E1 JUMP JUMPDEST JUMP JUMPDEST PUSH1 0x0 PUSH1 0x6 PUSH1 0x0 SWAP1 SLOAD SWAP1 PUSH2 0x100 EXP SWAP1 DIV PUSH20 0xFFFFFFFFFFFFFFFFFFFFFFFFFFFFFFFFFFFFFFFF AND SWAP1 POP SWAP1 JUMP JUMPDEST PUSH1 0x60 PUSH1 0x1 DUP1 SLOAD PUSH2 0xB0F SWAP1 PUSH2 0x243A JUMP JUMPDEST DUP1 PUSH1 0x1F ADD PUSH1 0x20 DUP1 SWAP2 DIV MUL PUSH1 0x20 ADD PUSH1 0x40 MLOAD SWAP1 DUP2 ADD PUSH1 0x40 MSTORE DUP1 SWAP3 SWAP2 SWAP1 DUP2 DUP2 MSTORE PUSH1 0x20 ADD DUP3 DUP1 SLOAD PUSH2 0xB3B SWAP1 PUSH2 0x243A JUMP JUMPDEST DUP1 ISZERO PUSH2 0xB88 JUMPI DUP1 PUSH1 0x1F LT PUSH2 0xB5D JUMPI PUSH2 0x100 DUP1 DUP4 SLOAD DIV MUL DUP4 MSTORE SWAP2 PUSH1 0x20 ADD SWAP2 PUSH2 0xB88 JUMP JUMPDEST DUP3 ADD SWAP2 SWAP1 PUSH1 0x0 MSTORE PUSH1 0x20 PUSH1 0x0 KECCAK256 SWAP1 JUMPDEST DUP2 SLOAD DUP2 MSTORE SWAP1 PUSH1 0x1 ADD SWAP1 PUSH1 0x20 ADD DUP1 DUP4 GT PUSH2 0xB6B JUMPI DUP3 SWAP1 SUB PUSH1 0x1F AND DUP3 ADD SWAP2 JUMPDEST POP POP POP POP POP SWAP1 POP SWAP1 JUMP JUMPDEST PUSH2 0xBA4 PUSH2 0xB9D PUSH2 0xF9A JUMP JUMPDEST DUP4 DUP4 PUSH2 0x14A7 JUMP JUMPDEST POP POP JUMP JUMPDEST PUSH2 0xBB9 PUSH2 0xBB3 PUSH2 0xF9A JUMP JUMPDEST DUP4 PUSH2 0x105B JUMP JUMPDEST PUSH2 0xBF8 JUMPI PUSH1 0x40 MLOAD PUSH32 0x8C379A000000000000000000000000000000000000000000000000000000000 DUP2 MSTORE PUSH1 0x4 ADD PUSH2 0xBEF SWAP1 PUSH2 0x2693 JUMP JUMPDEST PUSH1 0x40 MLOAD DUP1 SWAP2 SUB SWAP1 REVERT JUMPDEST PUSH2 0xC04 DUP5 DUP5 DUP5 DUP5 PUSH2 0x1613 JUMP JUMPDEST POP POP POP POP JUMP JUMPDEST PUSH1 0x0 PUSH2 0xC19 DUP4 PUSH1 0x7 SLOAD DUP5 PUSH2 0x166F JUMP JUMPDEST SWAP1 POP SWAP3 SWAP2 POP POP JUMP JUMPDEST PUSH1 0x60 PUSH2 0xC2C DUP3 PUSH2 0xF2E JUMP JUMPDEST PUSH2 0xC6B JUMPI PUSH1 0x40 MLOAD PUSH32 0x8C379A000000000000000000000000000000000000000000000000000000000 DUP2 MSTORE PUSH1 0x4 ADD PUSH2 0xC62 SWAP1 PUSH2 0x29D0 JUMP JUMPDEST PUSH1 0x40 MLOAD DUP1 SWAP2 SUB SWAP1 REVERT JUMPDEST PUSH1 0x0 PUSH2 0xC75 PUSH2 0x1686 JUMP JUMPDEST SWAP1 POP PUSH1 0x0 DUP2 MLOAD GT PUSH2 0xC95 JUMPI PUSH1 0x40 MLOAD DUP1 PUSH1 0x20 ADD PUSH1 0x40 MSTORE DUP1 PUSH1 0x0 DUP2 MSTORE POP PUSH2 0xCC0 JUMP JUMPDEST DUP1 PUSH2 0xC9F DUP5 PUSH2 0x169D JUMP JUMPDEST PUSH1 0x40 MLOAD PUSH1 0x20 ADD PUSH2 0xCB0 SWAP3 SWAP2 SWAP1 PUSH2 0x2A2C JUMP JUMPDEST PUSH1 0x40 MLOAD PUSH1 0x20 DUP2 DUP4 SUB SUB DUP2 MSTORE SWAP1 PUSH1 0x40 MSTORE JUMPDEST SWAP2 POP POP SWAP2 SWAP1 POP JUMP JUMPDEST PUSH1 0x8 SLOAD CALLVALUE LT ISZERO PUSH2 0xD0D JUMPI PUSH1 0x40 MLOAD PUSH32 0x8C379A000000000000000000000000000000000000000000000000000000000 DUP2 MSTORE PUSH1 0x4 ADD PUSH2 0xD04 SWAP1 PUSH2 0x2A9C JUMP JUMPDEST PUSH1 0x40 MLOAD DUP1 SWAP2 SUB SWAP1 REVERT JUMPDEST PUSH1 0x0 PUSH2 0xD19 PUSH1 0x9 PUSH2 0x139F JUMP JUMPDEST SWAP1 POP PUSH2 0xD25 PUSH1 0x9 PUSH2 0x13AD JUMP JUMPDEST PUSH2 0xD2F DUP3 DUP3 PUSH2 0x13C3 JUMP JUMPDEST POP POP JUMP JUMPDEST PUSH1 0x0 PUSH1 0x5 PUSH1 0x0 DUP5 PUSH20 0xFFFFFFFFFFFFFFFFFFFFFFFFFFFFFFFFFFFFFFFF AND PUSH20 0xFFFFFFFFFFFFFFFFFFFFFFFFFFFFFFFFFFFFFFFF AND DUP2 MSTORE PUSH1 0x20 ADD SWAP1 DUP2 MSTORE PUSH1 0x20 ADD PUSH1 0x0 KECCAK256 PUSH1 0x0 DUP4 PUSH20 0xFFFFFFFFFFFFFFFFFFFFFFFFFFFFFFFFFFFFFFFF AND PUSH20 0xFFFFFFFFFFFFFFFFFFFFFFFFFFFFFFFFFFFFFFFF AND DUP2 MSTORE PUSH1 0x20 ADD SWAP1 DUP2 MSTORE PUSH1 0x20 ADD PUSH1 0x0 KECCAK256 PUSH1 0x0 SWAP1 SLOAD SWAP1 PUSH2 0x100 EXP SWAP1 DIV PUSH1 0xFF AND SWAP1 POP SWAP3 SWAP2 POP POP JUMP JUMPDEST PUSH1 0x7 SLOAD DUP2 JUMP JUMPDEST PUSH2 0xDD5 PUSH2 0xF9A JUMP JUMPDEST PUSH20 0xFFFFFFFFFFFFFFFFFFFFFFFFFFFFFFFFFFFFFFFF AND PUSH2 0xDF3 PUSH2 0xAD6 JUMP JUMPDEST PUSH20 0xFFFFFFFFFFFFFFFFFFFFFFFFFFFFFFFFFFFFFFFF AND EQ PUSH2 0xE49 JUMPI PUSH1 0x40 MLOAD PUSH32 0x8C379A000000000000000000000000000000000000000000000000000000000 DUP2 MSTORE PUSH1 0x4 ADD PUSH2 0xE40 SWAP1 PUSH2 0x293E JUMP JUMPDEST PUSH1 0x40 MLOAD DUP1 SWAP2 SUB SWAP1 REVERT JUMPDEST PUSH1 0x0 PUSH20 0xFFFFFFFFFFFFFFFFFFFFFFFFFFFFFFFFFFFFFFFF AND DUP2 PUSH20 0xFFFFFFFFFFFFFFFFFFFFFFFFFFFFFFFFFFFFFFFF AND SUB PUSH2 0xEB8 JUMPI PUSH1 0x40 MLOAD PUSH32 0x8C379A000000000000000000000000000000000000000000000000000000000 DUP2 MSTORE PUSH1 0x4 ADD PUSH2 0xEAF SWAP1 PUSH2 0x2B2E JUMP JUMPDEST PUSH1 0x40 MLOAD DUP1 SWAP2 SUB SWAP1 REVERT JUMPDEST PUSH2 0xEC1 DUP2 PUSH2 0x13E1 JUMP JUMPDEST POP JUMP JUMPDEST PUSH1 0x0 PUSH32 0x1FFC9A700000000000000000000000000000000000000000000000000000000 PUSH28 0xFFFFFFFFFFFFFFFFFFFFFFFFFFFFFFFFFFFFFFFFFFFFFFFFFFFFFFFF NOT AND DUP3 PUSH28 0xFFFFFFFFFFFFFFFFFFFFFFFFFFFFFFFFFFFFFFFFFFFFFFFFFFFFFFFF NOT AND EQ SWAP1 POP SWAP2 SWAP1 POP JUMP JUMPDEST PUSH1 0x0 DUP1 PUSH20 0xFFFFFFFFFFFFFFFFFFFFFFFFFFFFFFFFFFFFFFFF AND PUSH1 0x2 PUSH1 0x0 DUP5 DUP2 MSTORE PUSH1 0x20 ADD SWAP1 DUP2 MSTORE PUSH1 0x20 ADD PUSH1 0x0 KECCAK256 PUSH1 0x0 SWAP1 SLOAD SWAP1 PUSH2 0x100 EXP SWAP1 DIV PUSH20 0xFFFFFFFFFFFFFFFFFFFFFFFFFFFFFFFFFFFFFFFF AND PUSH20 0xFFFFFFFFFFFFFFFFFFFFFFFFFFFFFFFFFFFFFFFF AND EQ ISZERO SWAP1 POP SWAP2 SWAP1 POP JUMP JUMPDEST PUSH1 0x0 CALLER SWAP1 POP SWAP1 JUMP JUMPDEST DUP2 PUSH1 0x4 PUSH1 0x0 DUP4 DUP2 MSTORE PUSH1 0x20 ADD SWAP1 DUP2 MSTORE PUSH1 0x20 ADD PUSH1 0x0 KECCAK256 PUSH1 0x0 PUSH2 0x100 EXP DUP2 SLOAD DUP2 PUSH20 0xFFFFFFFFFFFFFFFFFFFFFFFFFFFFFFFFFFFFFFFF MUL NOT AND SWAP1 DUP4 PUSH20 0xFFFFFFFFFFFFFFFFFFFFFFFFFFFFFFFFFFFFFFFF AND MUL OR SWAP1 SSTORE POP DUP1 DUP3 PUSH20 0xFFFFFFFFFFFFFFFFFFFFFFFFFFFFFFFFFFFFFFFF AND PUSH2 0x1015 DUP4 PUSH2 0x8E6 JUMP JUMPDEST PUSH20 0xFFFFFFFFFFFFFFFFFFFFFFFFFFFFFFFFFFFFFFFF AND PUSH32 0x8C5BE1E5EBEC7D5BD14F71427D1E84F3DD0314C0F7B2291E5B200AC8C7C3B925 PUSH1 0x40 MLOAD PUSH1 0x40 MLOAD DUP1 SWAP2 SUB SWAP1 LOG4 POP POP JUMP JUMPDEST PUSH1 0x0 PUSH2 0x1066 DUP3 PUSH2 0xF2E JUMP JUMPDEST PUSH2 0x10A5 JUMPI PUSH1 0x40 MLOAD PUSH32 0x8C379A000000000000000000000000000000000000000000000000000000000 DUP2 MSTORE PUSH1 0x4 ADD PUSH2 0x109C SWAP1 PUSH2 0x2BC0 JUMP JUMPDEST PUSH1 0x40 MLOAD DUP1 SWAP2 SUB SWAP1 REVERT JUMPDEST PUSH1 0x0 PUSH2 0x10B0 DUP4 PUSH2 0x8E6 JUMP JUMPDEST SWAP1 POP DUP1 PUSH20 0xFFFFFFFFFFFFFFFFFFFFFFFFFFFFFFFFFFFFFFFF AND DUP5 PUSH20 0xFFFFFFFFFFFFFFFFFFFFFFFFFFFFFFFFFFFFFFFF AND EQ DUP1 PUSH2 0x111F JUMPI POP DUP4 PUSH20 0xFFFFFFFFFFFFFFFFFFFFFFFFFFFFFFFFFFFFFFFF AND PUSH2 0x1107 DUP5 PUSH2 0x634 JUMP JUMPDEST PUSH20 0xFFFFFFFFFFFFFFFFFFFFFFFFFFFFFFFFFFFFFFFF AND EQ JUMPDEST DUP1 PUSH2 0x1130 JUMPI POP PUSH2 0x112F DUP2 DUP6 PUSH2 0xD33 JUMP JUMPDEST JUMPDEST SWAP2 POP POP SWAP3 SWAP2 POP POP JUMP JUMPDEST DUP3 PUSH20 0xFFFFFFFFFFFFFFFFFFFFFFFFFFFFFFFFFFFFFFFF AND PUSH2 0x1159 DUP3 PUSH2 0x8E6 JUMP JUMPDEST PUSH20 0xFFFFFFFFFFFFFFFFFFFFFFFFFFFFFFFFFFFFFFFF AND EQ PUSH2 0x11AF JUMPI PUSH1 0x40 MLOAD PUSH32 0x8C379A000000000000000000000000000000000000000000000000000000000 DUP2 MSTORE PUSH1 0x4 ADD PUSH2 0x11A6 SWAP1 PUSH2 0x2C52 JUMP JUMPDEST PUSH1 0x40 MLOAD DUP1 SWAP2 SUB SWAP1 REVERT JUMPDEST PUSH1 0x0 PUSH20 0xFFFFFFFFFFFFFFFFFFFFFFFFFFFFFFFFFFFFFFFF AND DUP3 PUSH20 0xFFFFFFFFFFFFFFFFFFFFFFFFFFFFFFFFFFFFFFFF AND SUB PUSH2 0x121E JUMPI PUSH1 0x40 MLOAD PUSH32 0x8C379A000000000000000000000000000000000000000000000000000000000 DUP2 MSTORE PUSH1 0x4 ADD PUSH2 0x1215 SWAP1 PUSH2 0x2CE4 JUMP JUMPDEST PUSH1 0x40 MLOAD DUP1 SWAP2 SUB SWAP1 REVERT JUMPDEST PUSH2 0x1229 DUP4 DUP4 DUP4 PUSH2 0x17FD JUMP JUMPDEST PUSH2 0x1234 PUSH1 0x0 DUP3 PUSH2 0xFA2 JUMP JUMPDEST PUSH1 0x1 PUSH1 0x3 PUSH1 0x0 DUP6 PUSH20 0xFFFFFFFFFFFFFFFFFFFFFFFFFFFFFFFFFFFFFFFF AND PUSH20 0xFFFFFFFFFFFFFFFFFFFFFFFFFFFFFFFFFFFFFFFF AND DUP2 MSTORE PUSH1 0x20 ADD SWAP1 DUP2 MSTORE PUSH1 0x20 ADD PUSH1 0x0 KECCAK256 PUSH1 0x0 DUP3 DUP3 SLOAD PUSH2 0x1284 SWAP2 SWAP1 PUSH2 0x2D33 JUMP JUMPDEST SWAP3 POP POP DUP2 SWAP1 SSTORE POP PUSH1 0x1 PUSH1 0x3 PUSH1 0x0 DUP5 PUSH20 0xFFFFFFFFFFFFFFFFFFFFFFFFFFFFFFFFFFFFFFFF AND PUSH20 0xFFFFFFFFFFFFFFFFFFFFFFFFFFFFFFFFFFFFFFFF AND DUP2 MSTORE PUSH1 0x20 ADD SWAP1 DUP2 MSTORE PUSH1 0x20 ADD PUSH1 0x0 KECCAK256 PUSH1 0x0 DUP3 DUP3 SLOAD PUSH2 0x12DB SWAP2 SWAP1 PUSH2 0x2D67 JUMP JUMPDEST SWAP3 POP POP DUP2 SWAP1 SSTORE POP DUP2 PUSH1 0x2 PUSH1 0x0 DUP4 DUP2 MSTORE PUSH1 0x20 ADD SWAP1 DUP2 MSTORE PUSH1 0x20 ADD PUSH1 0x0 KECCAK256 PUSH1 0x0 PUSH2 0x100 EXP DUP2 SLOAD DUP2 PUSH20 0xFFFFFFFFFFFFFFFFFFFFFFFFFFFFFFFFFFFFFFFF MUL NOT AND SWAP1 DUP4 PUSH20 0xFFFFFFFFFFFFFFFFFFFFFFFFFFFFFFFFFFFFFFFF AND MUL OR SWAP1 SSTORE POP DUP1 DUP3 PUSH20 0xFFFFFFFFFFFFFFFFFFFFFFFFFFFFFFFFFFFFFFFF AND DUP5 PUSH20 0xFFFFFFFFFFFFFFFFFFFFFFFFFFFFFFFFFFFFFFFF AND PUSH32 0xDDF252AD1BE2C89B69C2B068FC378DAA952BA7F163C4A11628F55A4DF523B3EF PUSH1 0x40 MLOAD PUSH1 0x40 MLOAD DUP1 SWAP2 SUB SWAP1 LOG4 PUSH2 0x139A DUP4 DUP4 DUP4 PUSH2 0x1802 JUMP JUMPDEST POP POP POP JUMP JUMPDEST PUSH1 0x0 DUP2 PUSH1 0x0 ADD SLOAD SWAP1 POP SWAP2 SWAP1 POP JUMP JUMPDEST PUSH1 0x1 DUP2 PUSH1 0x0 ADD PUSH1 0x0 DUP3 DUP3 SLOAD ADD SWAP3 POP POP DUP2 SWAP1 SSTORE POP POP JUMP JUMPDEST PUSH2 0x13DD DUP3 DUP3 PUSH1 0x40 MLOAD DUP1 PUSH1 0x20 ADD PUSH1 0x40 MSTORE DUP1 PUSH1 0x0 DUP2 MSTORE POP PUSH2 0x1807 JUMP JUMPDEST POP POP JUMP JUMPDEST PUSH1 0x0 PUSH1 0x6 PUSH1 0x0 SWAP1 SLOAD SWAP1 PUSH2 0x100 EXP SWAP1 DIV PUSH20 0xFFFFFFFFFFFFFFFFFFFFFFFFFFFFFFFFFFFFFFFF AND SWAP1 POP DUP2 PUSH1 0x6 PUSH1 0x0 PUSH2 0x100 EXP DUP2 SLOAD DUP2 PUSH20 0xFFFFFFFFFFFFFFFFFFFFFFFFFFFFFFFFFFFFFFFF MUL NOT AND SWAP1 DUP4 PUSH20 0xFFFFFFFFFFFFFFFFFFFFFFFFFFFFFFFFFFFFFFFF AND MUL OR SWAP1 SSTORE POP DUP2 PUSH20 0xFFFFFFFFFFFFFFFFFFFFFFFFFFFFFFFFFFFFFFFF AND DUP2 PUSH20 0xFFFFFFFFFFFFFFFFFFFFFFFFFFFFFFFFFFFFFFFF AND PUSH32 0x8BE0079C531659141344CD1FD0A4F28419497F9722A3DAAFE3B4186F6B6457E0 PUSH1 0x40 MLOAD PUSH1 0x40 MLOAD DUP1 SWAP2 SUB SWAP1 LOG3 POP POP JUMP JUMPDEST DUP2 PUSH20 0xFFFFFFFFFFFFFFFFFFFFFFFFFFFFFFFFFFFFFFFF AND DUP4 PUSH20 0xFFFFFFFFFFFFFFFFFFFFFFFFFFFFFFFFFFFFFFFF AND SUB PUSH2 0x1515 JUMPI PUSH1 0x40 MLOAD PUSH32 0x8C379A000000000000000000000000000000000000000000000000000000000 DUP2 MSTORE PUSH1 0x4 ADD PUSH2 0x150C SWAP1 PUSH2 0x2DE7 JUMP JUMPDEST PUSH1 0x40 MLOAD DUP1 SWAP2 SUB SWAP1 REVERT JUMPDEST DUP1 PUSH1 0x5 PUSH1 0x0 DUP6 PUSH20 0xFFFFFFFFFFFFFFFFFFFFFFFFFFFFFFFFFFFFFFFF AND PUSH20 0xFFFFFFFFFFFFFFFFFFFFFFFFFFFFFFFFFFFFFFFF AND DUP2 MSTORE PUSH1 0x20 ADD SWAP1 DUP2 MSTORE PUSH1 0x20 ADD PUSH1 0x0 KECCAK256 PUSH1 0x0 DUP5 PUSH20 0xFFFFFFFFFFFFFFFFFFFFFFFFFFFFFFFFFFFFFFFF AND PUSH20 0xFFFFFFFFFFFFFFFFFFFFFFFFFFFFFFFFFFFFFFFF AND DUP2 MSTORE PUSH1 0x20 ADD SWAP1 DUP2 MSTORE PUSH1 0x20 ADD PUSH1 0x0 KECCAK256 PUSH1 0x0 PUSH2 0x100 EXP DUP2 SLOAD DUP2 PUSH1 0xFF MUL NOT AND SWAP1 DUP4 ISZERO ISZERO MUL OR SWAP1 SSTORE POP DUP2 PUSH20 0xFFFFFFFFFFFFFFFFFFFFFFFFFFFFFFFFFFFFFFFF AND DUP4 PUSH20 0xFFFFFFFFFFFFFFFFFFFFFFFFFFFFFFFFFFFFFFFF AND PUSH32 0x17307EAB39AB6107E8899845AD3D59BD9653F200F220920489CA2B5937696C31 DUP4 PUSH1 0x40 MLOAD PUSH2 0x1606 SWAP2 SWAP1 PUSH2 0x1D25 JUMP JUMPDEST PUSH1 0x40 MLOAD DUP1 SWAP2 SUB SWAP1 LOG3 POP POP POP JUMP JUMPDEST PUSH2 0x161E DUP5 DUP5 DUP5 PUSH2 0x1139 JUMP JUMPDEST PUSH2 0x162A DUP5 DUP5 DUP5 DUP5 PUSH2 0x1862 JUMP JUMPDEST PUSH2 0x1669 JUMPI PUSH1 0x40 MLOAD PUSH32 0x8C379A000000000000000000000000000000000000000000000000000000000 DUP2 MSTORE PUSH1 0x4 ADD PUSH2 0x1660 SWAP1 PUSH2 0x2E79 JUMP JUMPDEST PUSH1 0x40 MLOAD DUP1 SWAP2 SUB SWAP1 REVERT JUMPDEST POP POP POP POP JUMP JUMPDEST PUSH1 0x0 DUP3 PUSH2 0x167C DUP6 DUP5 PUSH2 0x19E9 JUMP JUMPDEST EQ SWAP1 POP SWAP4 SWAP3 POP POP POP JUMP JUMPDEST PUSH1 0x60 PUSH1 0x40 MLOAD DUP1 PUSH1 0x20 ADD PUSH1 0x40 MSTORE DUP1 PUSH1 0x0 DUP2 MSTORE POP SWAP1 POP SWAP1 JUMP JUMPDEST PUSH1 0x60 PUSH1 0x0 DUP3 SUB PUSH2 0x16E4 JUMPI PUSH1 0x40 MLOAD DUP1 PUSH1 0x40 ADD PUSH1 0x40 MSTORE DUP1 PUSH1 0x1 DUP2 MSTORE PUSH1 0x20 ADD PUSH32 0x3000000000000000000000000000000000000000000000000000000000000000 DUP2 MSTORE POP SWAP1 POP PUSH2 0x17F8 JUMP JUMPDEST PUSH1 0x0 DUP3 SWAP1 POP PUSH1 0x0 JUMPDEST PUSH1 0x0 DUP3 EQ PUSH2 0x1716 JUMPI DUP1 DUP1 PUSH2 0x16FF SWAP1 PUSH2 0x2E99 JUMP JUMPDEST SWAP2 POP POP PUSH1 0xA DUP3 PUSH2 0x170F SWAP2 SWAP1 PUSH2 0x2F10 JUMP JUMPDEST SWAP2 POP PUSH2 0x16EC JUMP JUMPDEST PUSH1 0x0 DUP2 PUSH8 0xFFFFFFFFFFFFFFFF DUP2 GT ISZERO PUSH2 0x1732 JUMPI PUSH2 0x1731 PUSH2 0x1F75 JUMP JUMPDEST JUMPDEST PUSH1 0x40 MLOAD SWAP1 DUP1 DUP3 MSTORE DUP1 PUSH1 0x1F ADD PUSH1 0x1F NOT AND PUSH1 0x20 ADD DUP3 ADD PUSH1 0x40 MSTORE DUP1 ISZERO PUSH2 0x1764 JUMPI DUP2 PUSH1 0x20 ADD PUSH1 0x1 DUP3 MUL DUP1 CALLDATASIZE DUP4 CALLDATACOPY DUP1 DUP3 ADD SWAP2 POP POP SWAP1 POP JUMPDEST POP SWAP1 POP JUMPDEST PUSH1 0x0 DUP6 EQ PUSH2 0x17F1 JUMPI PUSH1 0x1 DUP3 PUSH2 0x177D SWAP2 SWAP1 PUSH2 0x2D33 JUMP JUMPDEST SWAP2 POP PUSH1 0xA DUP6 PUSH2 0x178C SWAP2 SWAP1 PUSH2 0x2F41 JUMP JUMPDEST PUSH1 0x30 PUSH2 0x1798 SWAP2 SWAP1 PUSH2 0x2D67 JUMP JUMPDEST PUSH1 0xF8 SHL DUP2 DUP4 DUP2 MLOAD DUP2 LT PUSH2 0x17AE JUMPI PUSH2 0x17AD PUSH2 0x2F72 JUMP JUMPDEST JUMPDEST PUSH1 0x20 ADD ADD SWAP1 PUSH31 0xFFFFFFFFFFFFFFFFFFFFFFFFFFFFFFFFFFFFFFFFFFFFFFFFFFFFFFFFFFFFFF NOT AND SWAP1 DUP2 PUSH1 0x0 BYTE SWAP1 MSTORE8 POP PUSH1 0xA DUP6 PUSH2 0x17EA SWAP2 SWAP1 PUSH2 0x2F10 JUMP JUMPDEST SWAP5 POP PUSH2 0x1768 JUMP JUMPDEST DUP1 SWAP4 POP POP POP POP JUMPDEST SWAP2 SWAP1 POP JUMP JUMPDEST POP POP POP JUMP JUMPDEST POP POP POP JUMP JUMPDEST PUSH2 0x1811 DUP4 DUP4 PUSH2 0x1A5E JUMP JUMPDEST PUSH2 0x181E PUSH1 0x0 DUP5 DUP5 DUP5 PUSH2 0x1862 JUMP JUMPDEST PUSH2 0x185D JUMPI PUSH1 0x40 MLOAD PUSH32 0x8C379A000000000000000000000000000000000000000000000000000000000 DUP2 MSTORE PUSH1 0x4 ADD PUSH2 0x1854 SWAP1 PUSH2 0x2E79 JUMP JUMPDEST PUSH1 0x40 MLOAD DUP1 SWAP2 SUB SWAP1 REVERT JUMPDEST POP POP POP JUMP JUMPDEST PUSH1 0x0 PUSH2 0x1883 DUP5 PUSH20 0xFFFFFFFFFFFFFFFFFFFFFFFFFFFFFFFFFFFFFFFF AND PUSH2 0x1C37 JUMP JUMPDEST ISZERO PUSH2 0x19DC JUMPI DUP4 PUSH20 0xFFFFFFFFFFFFFFFFFFFFFFFFFFFFFFFFFFFFFFFF AND PUSH4 0x150B7A02 PUSH2 0x18AC PUSH2 0xF9A JUMP JUMPDEST DUP8 DUP7 DUP7 PUSH1 0x40 MLOAD DUP6 PUSH4 0xFFFFFFFF AND PUSH1 0xE0 SHL DUP2 MSTORE PUSH1 0x4 ADD PUSH2 0x18CE SWAP5 SWAP4 SWAP3 SWAP2 SWAP1 PUSH2 0x2FF6 JUMP JUMPDEST PUSH1 0x20 PUSH1 0x40 MLOAD DUP1 DUP4 SUB DUP2 PUSH1 0x0 DUP8 GAS CALL SWAP3 POP POP POP DUP1 ISZERO PUSH2 0x190A JUMPI POP PUSH1 0x40 MLOAD RETURNDATASIZE PUSH1 0x1F NOT PUSH1 0x1F DUP3 ADD AND DUP3 ADD DUP1 PUSH1 0x40 MSTORE POP DUP2 ADD SWAP1 PUSH2 0x1907 SWAP2 SWAP1 PUSH2 0x3057 JUMP JUMPDEST PUSH1 0x1 JUMPDEST PUSH2 0x198C JUMPI RETURNDATASIZE DUP1 PUSH1 0x0 DUP2 EQ PUSH2 0x193A JUMPI PUSH1 0x40 MLOAD SWAP2 POP PUSH1 0x1F NOT PUSH1 0x3F RETURNDATASIZE ADD AND DUP3 ADD PUSH1 0x40 MSTORE RETURNDATASIZE DUP3 MSTORE RETURNDATASIZE PUSH1 0x0 PUSH1 0x20 DUP5 ADD RETURNDATACOPY PUSH2 0x193F JUMP JUMPDEST PUSH1 0x60 SWAP2 POP JUMPDEST POP PUSH1 0x0 DUP2 MLOAD SUB PUSH2 0x1984 JUMPI PUSH1 0x40 MLOAD PUSH32 0x8C379A000000000000000000000000000000000000000000000000000000000 DUP2 MSTORE PUSH1 0x4 ADD PUSH2 0x197B SWAP1 PUSH2 0x2E79 JUMP JUMPDEST PUSH1 0x40 MLOAD DUP1 SWAP2 SUB SWAP1 REVERT JUMPDEST DUP1 MLOAD DUP2 PUSH1 0x20 ADD REVERT JUMPDEST PUSH4 0x150B7A02 PUSH1 0xE0 SHL PUSH28 0xFFFFFFFFFFFFFFFFFFFFFFFFFFFFFFFFFFFFFFFFFFFFFFFFFFFFFFFF NOT AND DUP2 PUSH28 0xFFFFFFFFFFFFFFFFFFFFFFFFFFFFFFFFFFFFFFFFFFFFFFFFFFFFFFFF NOT AND EQ SWAP2 POP POP PUSH2 0x19E1 JUMP JUMPDEST PUSH1 0x1 SWAP1 POP JUMPDEST SWAP5 SWAP4 POP POP POP POP JUMP JUMPDEST PUSH1 0x0 DUP1 DUP3 SWAP1 POP PUSH1 0x0 JUMPDEST DUP5 MLOAD DUP2 LT ISZERO PUSH2 0x1A53 JUMPI PUSH1 0x0 DUP6 DUP3 DUP2 MLOAD DUP2 LT PUSH2 0x1A10 JUMPI PUSH2 0x1A0F PUSH2 0x2F72 JUMP JUMPDEST JUMPDEST PUSH1 0x20 MUL PUSH1 0x20 ADD ADD MLOAD SWAP1 POP DUP1 DUP4 GT PUSH2 0x1A32 JUMPI PUSH2 0x1A2B DUP4 DUP3 PUSH2 0x1C5A JUMP JUMPDEST SWAP3 POP PUSH2 0x1A3F JUMP JUMPDEST PUSH2 0x1A3C DUP2 DUP5 PUSH2 0x1C5A JUMP JUMPDEST SWAP3 POP JUMPDEST POP DUP1 DUP1 PUSH2 0x1A4B SWAP1 PUSH2 0x2E99 JUMP JUMPDEST SWAP2 POP POP PUSH2 0x19F2 JUMP JUMPDEST POP DUP1 SWAP2 POP POP SWAP3 SWAP2 POP POP JUMP JUMPDEST PUSH1 0x0 PUSH20 0xFFFFFFFFFFFFFFFFFFFFFFFFFFFFFFFFFFFFFFFF AND DUP3 PUSH20 0xFFFFFFFFFFFFFFFFFFFFFFFFFFFFFFFFFFFFFFFF AND SUB PUSH2 0x1ACD JUMPI PUSH1 0x40 MLOAD PUSH32 0x8C379A000000000000000000000000000000000000000000000000000000000 DUP2 MSTORE PUSH1 0x4 ADD PUSH2 0x1AC4 SWAP1 PUSH2 0x30D0 JUMP JUMPDEST PUSH1 0x40 MLOAD DUP1 SWAP2 SUB SWAP1 REVERT JUMPDEST PUSH2 0x1AD6 DUP2 PUSH2 0xF2E JUMP JUMPDEST ISZERO PUSH2 0x1B16 JUMPI PUSH1 0x40 MLOAD PUSH32 0x8C379A000000000000000000000000000000000000000000000000000000000 DUP2 MSTORE PUSH1 0x4 ADD PUSH2 0x1B0D SWAP1 PUSH2 0x313C JUMP JUMPDEST PUSH1 0x40 MLOAD DUP1 SWAP2 SUB SWAP1 REVERT JUMPDEST PUSH2 0x1B22 PUSH1 0x0 DUP4 DUP4 PUSH2 0x17FD JUMP JUMPDEST PUSH1 0x1 PUSH1 0x3 PUSH1 0x0 DUP5 PUSH20 0xFFFFFFFFFFFFFFFFFFFFFFFFFFFFFFFFFFFFFFFF AND PUSH20 0xFFFFFFFFFFFFFFFFFFFFFFFFFFFFFFFFFFFFFFFF AND DUP2 MSTORE PUSH1 0x20 ADD SWAP1 DUP2 MSTORE PUSH1 0x20 ADD PUSH1 0x0 KECCAK256 PUSH1 0x0 DUP3 DUP3 SLOAD PUSH2 0x1B72 SWAP2 SWAP1 PUSH2 0x2D67 JUMP JUMPDEST SWAP3 POP POP DUP2 SWAP1 SSTORE POP DUP2 PUSH1 0x2 PUSH1 0x0 DUP4 DUP2 MSTORE PUSH1 0x20 ADD SWAP1 DUP2 MSTORE PUSH1 0x20 ADD PUSH1 0x0 KECCAK256 PUSH1 0x0 PUSH2 0x100 EXP DUP2 SLOAD DUP2 PUSH20 0xFFFFFFFFFFFFFFFFFFFFFFFFFFFFFFFFFFFFFFFF MUL NOT AND SWAP1 DUP4 PUSH20 0xFFFFFFFFFFFFFFFFFFFFFFFFFFFFFFFFFFFFFFFF AND MUL OR SWAP1 SSTORE POP DUP1 DUP3 PUSH20 0xFFFFFFFFFFFFFFFFFFFFFFFFFFFFFFFFFFFFFFFF AND PUSH1 0x0 PUSH20 0xFFFFFFFFFFFFFFFFFFFFFFFFFFFFFFFFFFFFFFFF AND PUSH32 0xDDF252AD1BE2C89B69C2B068FC378DAA952BA7F163C4A11628F55A4DF523B3EF PUSH1 0x40 MLOAD PUSH1 0x40 MLOAD DUP1 SWAP2 SUB SWAP1 LOG4 PUSH2 0x1C33 PUSH1 0x0 DUP4 DUP4 PUSH2 0x1802 JUMP JUMPDEST POP POP JUMP JUMPDEST PUSH1 0x0 DUP1 DUP3 PUSH20 0xFFFFFFFFFFFFFFFFFFFFFFFFFFFFFFFFFFFFFFFF AND EXTCODESIZE GT SWAP1 POP SWAP2 SWAP1 POP JUMP JUMPDEST PUSH1 0x0 DUP3 PUSH1 0x0 MSTORE DUP2 PUSH1 0x20 MSTORE PUSH1 0x40 PUSH1 0x0 KECCAK256 SWAP1 POP SWAP3 SWAP2 POP POP JUMP JUMPDEST PUSH1 0x0 PUSH1 0x40 MLOAD SWAP1 POP SWAP1 JUMP JUMPDEST PUSH1 0x0 DUP1 REVERT JUMPDEST PUSH1 0x0 DUP1 REVERT JUMPDEST PUSH1 0x0 PUSH32 0xFFFFFFFF00000000000000000000000000000000000000000000000000000000 DUP3 AND SWAP1 POP SWAP2 SWAP1 POP JUMP JUMPDEST PUSH2 0x1CBA DUP2 PUSH2 0x1C85 JUMP JUMPDEST DUP2 EQ PUSH2 0x1CC5 JUMPI PUSH1 0x0 DUP1 REVERT JUMPDEST POP JUMP JUMPDEST PUSH1 0x0 DUP2 CALLDATALOAD SWAP1 POP PUSH2 0x1CD7 DUP2 PUSH2 0x1CB1 JUMP JUMPDEST SWAP3 SWAP2 POP POP JUMP JUMPDEST PUSH1 0x0 PUSH1 0x20 DUP3 DUP5 SUB SLT ISZERO PUSH2 0x1CF3 JUMPI PUSH2 0x1CF2 PUSH2 0x1C7B JUMP JUMPDEST JUMPDEST PUSH1 0x0 PUSH2 0x1D01 DUP5 DUP3 DUP6 ADD PUSH2 0x1CC8 JUMP JUMPDEST SWAP2 POP POP SWAP3 SWAP2 POP POP JUMP JUMPDEST PUSH1 0x0 DUP2 ISZERO ISZERO SWAP1 POP SWAP2 SWAP1 POP JUMP JUMPDEST PUSH2 0x1D1F DUP2 PUSH2 0x1D0A JUMP JUMPDEST DUP3 MSTORE POP POP JUMP JUMPDEST PUSH1 0x0 PUSH1 0x20 DUP3 ADD SWAP1 POP PUSH2 0x1D3A PUSH1 0x0 DUP4 ADD DUP5 PUSH2 0x1D16 JUMP JUMPDEST SWAP3 SWAP2 POP POP JUMP JUMPDEST PUSH1 0x0 DUP2 MLOAD SWAP1 POP SWAP2 SWAP1 POP JUMP JUMPDEST PUSH1 0x0 DUP3 DUP3 MSTORE PUSH1 0x20 DUP3 ADD SWAP1 POP SWAP3 SWAP2 POP POP JUMP JUMPDEST PUSH1 0x0 JUMPDEST DUP4 DUP2 LT ISZERO PUSH2 0x1D7A JUMPI DUP1 DUP3 ADD MLOAD DUP2 DUP5 ADD MSTORE PUSH1 0x20 DUP2 ADD SWAP1 POP PUSH2 0x1D5F JUMP JUMPDEST PUSH1 0x0 DUP5 DUP5 ADD MSTORE POP POP POP POP JUMP JUMPDEST PUSH1 0x0 PUSH1 0x1F NOT PUSH1 0x1F DUP4 ADD AND SWAP1 POP SWAP2 SWAP1 POP JUMP JUMPDEST PUSH1 0x0 PUSH2 0x1DA2 DUP3 PUSH2 0x1D40 JUMP JUMPDEST PUSH2 0x1DAC DUP2 DUP6 PUSH2 0x1D4B JUMP JUMPDEST SWAP4 POP PUSH2 0x1DBC DUP2 DUP6 PUSH1 0x20 DUP7 ADD PUSH2 0x1D5C JUMP JUMPDEST PUSH2 0x1DC5 DUP2 PUSH2 0x1D86 JUMP JUMPDEST DUP5 ADD SWAP2 POP POP SWAP3 SWAP2 POP POP JUMP JUMPDEST PUSH1 0x0 PUSH1 0x20 DUP3 ADD SWAP1 POP DUP2 DUP2 SUB PUSH1 0x0 DUP4 ADD MSTORE PUSH2 0x1DEA DUP2 DUP5 PUSH2 0x1D97 JUMP JUMPDEST SWAP1 POP SWAP3 SWAP2 POP POP JUMP JUMPDEST PUSH1 0x0 DUP2 SWAP1 POP SWAP2 SWAP1 POP JUMP JUMPDEST PUSH2 0x1E05 DUP2 PUSH2 0x1DF2 JUMP JUMPDEST DUP2 EQ PUSH2 0x1E10 JUMPI PUSH1 0x0 DUP1 REVERT JUMPDEST POP JUMP JUMPDEST PUSH1 0x0 DUP2 CALLDATALOAD SWAP1 POP PUSH2 0x1E22 DUP2 PUSH2 0x1DFC JUMP JUMPDEST SWAP3 SWAP2 POP POP JUMP JUMPDEST PUSH1 0x0 PUSH1 0x20 DUP3 DUP5 SUB SLT ISZERO PUSH2 0x1E3E JUMPI PUSH2 0x1E3D PUSH2 0x1C7B JUMP JUMPDEST JUMPDEST PUSH1 0x0 PUSH2 0x1E4C DUP5 DUP3 DUP6 ADD PUSH2 0x1E13 JUMP JUMPDEST SWAP2 POP POP SWAP3 SWAP2 POP POP JUMP JUMPDEST PUSH1 0x0 PUSH20 0xFFFFFFFFFFFFFFFFFFFFFFFFFFFFFFFFFFFFFFFF DUP3 AND SWAP1 POP SWAP2 SWAP1 POP JUMP JUMPDEST PUSH1 0x0 PUSH2 0x1E80 DUP3 PUSH2 0x1E55 JUMP JUMPDEST SWAP1 POP SWAP2 SWAP1 POP JUMP JUMPDEST PUSH2 0x1E90 DUP2 PUSH2 0x1E75 JUMP JUMPDEST DUP3 MSTORE POP POP JUMP JUMPDEST PUSH1 0x0 PUSH1 0x20 DUP3 ADD SWAP1 POP PUSH2 0x1EAB PUSH1 0x0 DUP4 ADD DUP5 PUSH2 0x1E87 JUMP JUMPDEST SWAP3 SWAP2 POP POP JUMP JUMPDEST PUSH2 0x1EBA DUP2 PUSH2 0x1E75 JUMP JUMPDEST DUP2 EQ PUSH2 0x1EC5 JUMPI PUSH1 0x0 DUP1 REVERT JUMPDEST POP JUMP JUMPDEST PUSH1 0x0 DUP2 CALLDATALOAD SWAP1 POP PUSH2 0x1ED7 DUP2 PUSH2 0x1EB1 JUMP JUMPDEST SWAP3 SWAP2 POP POP JUMP JUMPDEST PUSH1 0x0 DUP1 PUSH1 0x40 DUP4 DUP6 SUB SLT ISZERO PUSH2 0x1EF4 JUMPI PUSH2 0x1EF3 PUSH2 0x1C7B JUMP JUMPDEST JUMPDEST PUSH1 0x0 PUSH2 0x1F02 DUP6 DUP3 DUP7 ADD PUSH2 0x1EC8 JUMP JUMPDEST SWAP3 POP POP PUSH1 0x20 PUSH2 0x1F13 DUP6 DUP3 DUP7 ADD PUSH2 0x1E13 JUMP JUMPDEST SWAP2 POP POP SWAP3 POP SWAP3 SWAP1 POP JUMP JUMPDEST PUSH1 0x0 DUP1 PUSH1 0x0 PUSH1 0x60 DUP5 DUP7 SUB SLT ISZERO PUSH2 0x1F36 JUMPI PUSH2 0x1F35 PUSH2 0x1C7B JUMP JUMPDEST JUMPDEST PUSH1 0x0 PUSH2 0x1F44 DUP7 DUP3 DUP8 ADD PUSH2 0x1EC8 JUMP JUMPDEST SWAP4 POP POP PUSH1 0x20 PUSH2 0x1F55 DUP7 DUP3 DUP8 ADD PUSH2 0x1EC8 JUMP JUMPDEST SWAP3 POP POP PUSH1 0x40 PUSH2 0x1F66 DUP7 DUP3 DUP8 ADD PUSH2 0x1E13 JUMP JUMPDEST SWAP2 POP POP SWAP3 POP SWAP3 POP SWAP3 JUMP JUMPDEST PUSH1 0x0 DUP1 REVERT JUMPDEST PUSH32 0x4E487B7100000000000000000000000000000000000000000000000000000000 PUSH1 0x0 MSTORE PUSH1 0x41 PUSH1 0x4 MSTORE PUSH1 0x24 PUSH1 0x0 REVERT JUMPDEST PUSH2 0x1FAD DUP3 PUSH2 0x1D86 JUMP JUMPDEST DUP2 ADD DUP2 DUP2 LT PUSH8 0xFFFFFFFFFFFFFFFF DUP3 GT OR ISZERO PUSH2 0x1FCC JUMPI PUSH2 0x1FCB PUSH2 0x1F75 JUMP JUMPDEST JUMPDEST DUP1 PUSH1 0x40 MSTORE POP POP POP JUMP JUMPDEST PUSH1 0x0 PUSH2 0x1FDF PUSH2 0x1C71 JUMP JUMPDEST SWAP1 POP PUSH2 0x1FEB DUP3 DUP3 PUSH2 0x1FA4 JUMP JUMPDEST SWAP2 SWAP1 POP JUMP JUMPDEST PUSH1 0x0 PUSH8 0xFFFFFFFFFFFFFFFF DUP3 GT ISZERO PUSH2 0x200B JUMPI PUSH2 0x200A PUSH2 0x1F75 JUMP JUMPDEST JUMPDEST PUSH1 0x20 DUP3 MUL SWAP1 POP PUSH1 0x20 DUP2 ADD SWAP1 POP SWAP2 SWAP1 POP JUMP JUMPDEST PUSH1 0x0 DUP1 REVERT JUMPDEST PUSH1 0x0 DUP2 SWAP1 POP SWAP2 SWAP1 POP JUMP JUMPDEST PUSH2 0x2034 DUP2 PUSH2 0x2021 JUMP JUMPDEST DUP2 EQ PUSH2 0x203F JUMPI PUSH1 0x0 DUP1 REVERT JUMPDEST POP JUMP JUMPDEST PUSH1 0x0 DUP2 CALLDATALOAD SWAP1 POP PUSH2 0x2051 DUP2 PUSH2 0x202B JUMP JUMPDEST SWAP3 SWAP2 POP POP JUMP JUMPDEST PUSH1 0x0 PUSH2 0x206A PUSH2 0x2065 DUP5 PUSH2 0x1FF0 JUMP JUMPDEST PUSH2 0x1FD5 JUMP JUMPDEST SWAP1 POP DUP1 DUP4 DUP3 MSTORE PUSH1 0x20 DUP3 ADD SWAP1 POP PUSH1 0x20 DUP5 MUL DUP4 ADD DUP6 DUP2 GT ISZERO PUSH2 0x208D JUMPI PUSH2 0x208C PUSH2 0x201C JUMP JUMPDEST JUMPDEST DUP4 JUMPDEST DUP2 DUP2 LT ISZERO PUSH2 0x20B6 JUMPI DUP1 PUSH2 0x20A2 DUP9 DUP3 PUSH2 0x2042 JUMP JUMPDEST DUP5 MSTORE PUSH1 0x20 DUP5 ADD SWAP4 POP POP PUSH1 0x20 DUP2 ADD SWAP1 POP PUSH2 0x208F JUMP JUMPDEST POP POP POP SWAP4 SWAP3 POP POP POP JUMP JUMPDEST PUSH1 0x0 DUP3 PUSH1 0x1F DUP4 ADD SLT PUSH2 0x20D5 JUMPI PUSH2 0x20D4 PUSH2 0x1F70 JUMP JUMPDEST JUMPDEST DUP2 CALLDATALOAD PUSH2 0x20E5 DUP5 DUP3 PUSH1 0x20 DUP7 ADD PUSH2 0x2057 JUMP JUMPDEST SWAP2 POP POP SWAP3 SWAP2 POP POP JUMP JUMPDEST PUSH1 0x0 DUP1 PUSH1 0x40 DUP4 DUP6 SUB SLT ISZERO PUSH2 0x2105 JUMPI PUSH2 0x2104 PUSH2 0x1C7B JUMP JUMPDEST JUMPDEST PUSH1 0x0 PUSH2 0x2113 DUP6 DUP3 DUP7 ADD PUSH2 0x1EC8 JUMP JUMPDEST SWAP3 POP POP PUSH1 0x20 DUP4 ADD CALLDATALOAD PUSH8 0xFFFFFFFFFFFFFFFF DUP2 GT ISZERO PUSH2 0x2134 JUMPI PUSH2 0x2133 PUSH2 0x1C80 JUMP JUMPDEST JUMPDEST PUSH2 0x2140 DUP6 DUP3 DUP7 ADD PUSH2 0x20C0 JUMP JUMPDEST SWAP2 POP POP SWAP3 POP SWAP3 SWAP1 POP JUMP JUMPDEST PUSH1 0x0 PUSH1 0x20 DUP3 DUP5 SUB SLT ISZERO PUSH2 0x2160 JUMPI PUSH2 0x215F PUSH2 0x1C7B JUMP JUMPDEST JUMPDEST PUSH1 0x0 PUSH2 0x216E DUP5 DUP3 DUP6 ADD PUSH2 0x1EC8 JUMP JUMPDEST SWAP2 POP POP SWAP3 SWAP2 POP POP JUMP JUMPDEST PUSH2 0x2180 DUP2 PUSH2 0x1DF2 JUMP JUMPDEST DUP3 MSTORE POP POP JUMP JUMPDEST PUSH1 0x0 PUSH1 0x20 DUP3 ADD SWAP1 POP PUSH2 0x219B PUSH1 0x0 DUP4 ADD DUP5 PUSH2 0x2177 JUMP JUMPDEST SWAP3 SWAP2 POP POP JUMP JUMPDEST PUSH2 0x21AA DUP2 PUSH2 0x1D0A JUMP JUMPDEST DUP2 EQ PUSH2 0x21B5 JUMPI PUSH1 0x0 DUP1 REVERT JUMPDEST POP JUMP JUMPDEST PUSH1 0x0 DUP2 CALLDATALOAD SWAP1 POP PUSH2 0x21C7 DUP2 PUSH2 0x21A1 JUMP JUMPDEST SWAP3 SWAP2 POP POP JUMP JUMPDEST PUSH1 0x0 DUP1 PUSH1 0x40 DUP4 DUP6 SUB SLT ISZERO PUSH2 0x21E4 JUMPI PUSH2 0x21E3 PUSH2 0x1C7B JUMP JUMPDEST JUMPDEST PUSH1 0x0 PUSH2 0x21F2 DUP6 DUP3 DUP7 ADD PUSH2 0x1EC8 JUMP JUMPDEST SWAP3 POP POP PUSH1 0x20 PUSH2 0x2203 DUP6 DUP3 DUP7 ADD PUSH2 0x21B8 JUMP JUMPDEST SWAP2 POP POP SWAP3 POP SWAP3 SWAP1 POP JUMP JUMPDEST PUSH1 0x0 DUP1 REVERT JUMPDEST PUSH1 0x0 PUSH8 0xFFFFFFFFFFFFFFFF DUP3 GT ISZERO PUSH2 0x222D JUMPI PUSH2 0x222C PUSH2 0x1F75 JUMP JUMPDEST JUMPDEST PUSH2 0x2236 DUP3 PUSH2 0x1D86 JUMP JUMPDEST SWAP1 POP PUSH1 0x20 DUP2 ADD SWAP1 POP SWAP2 SWAP1 POP JUMP JUMPDEST DUP3 DUP2 DUP4 CALLDATACOPY PUSH1 0x0 DUP4 DUP4 ADD MSTORE POP POP POP JUMP JUMPDEST PUSH1 0x0 PUSH2 0x2265 PUSH2 0x2260 DUP5 PUSH2 0x2212 JUMP JUMPDEST PUSH2 0x1FD5 JUMP JUMPDEST SWAP1 POP DUP3 DUP2 MSTORE PUSH1 0x20 DUP2 ADD DUP5 DUP5 DUP5 ADD GT ISZERO PUSH2 0x2281 JUMPI PUSH2 0x2280 PUSH2 0x220D JUMP JUMPDEST JUMPDEST PUSH2 0x228C DUP5 DUP3 DUP6 PUSH2 0x2243 JUMP JUMPDEST POP SWAP4 SWAP3 POP POP POP JUMP JUMPDEST PUSH1 0x0 DUP3 PUSH1 0x1F DUP4 ADD SLT PUSH2 0x22A9 JUMPI PUSH2 0x22A8 PUSH2 0x1F70 JUMP JUMPDEST JUMPDEST DUP2 CALLDATALOAD PUSH2 0x22B9 DUP5 DUP3 PUSH1 0x20 DUP7 ADD PUSH2 0x2252 JUMP JUMPDEST SWAP2 POP POP SWAP3 SWAP2 POP POP JUMP JUMPDEST PUSH1 0x0 DUP1 PUSH1 0x0 DUP1 PUSH1 0x80 DUP6 DUP8 SUB SLT ISZERO PUSH2 0x22DC JUMPI PUSH2 0x22DB PUSH2 0x1C7B JUMP JUMPDEST JUMPDEST PUSH1 0x0 PUSH2 0x22EA DUP8 DUP3 DUP9 ADD PUSH2 0x1EC8 JUMP JUMPDEST SWAP5 POP POP PUSH1 0x20 PUSH2 0x22FB DUP8 DUP3 DUP9 ADD PUSH2 0x1EC8 JUMP JUMPDEST SWAP4 POP POP PUSH1 0x40 PUSH2 0x230C DUP8 DUP3 DUP9 ADD PUSH2 0x1E13 JUMP JUMPDEST SWAP3 POP POP PUSH1 0x60 DUP6 ADD CALLDATALOAD PUSH8 0xFFFFFFFFFFFFFFFF DUP2 GT ISZERO PUSH2 0x232D JUMPI PUSH2 0x232C PUSH2 0x1C80 JUMP JUMPDEST JUMPDEST PUSH2 0x2339 DUP8 DUP3 DUP9 ADD PUSH2 0x2294 JUMP JUMPDEST SWAP2 POP POP SWAP3 SWAP6 SWAP2 SWAP5 POP SWAP3 POP JUMP JUMPDEST PUSH1 0x0 DUP1 PUSH1 0x40 DUP4 DUP6 SUB SLT ISZERO PUSH2 0x235C JUMPI PUSH2 0x235B PUSH2 0x1C7B JUMP JUMPDEST JUMPDEST PUSH1 0x0 DUP4 ADD CALLDATALOAD PUSH8 0xFFFFFFFFFFFFFFFF DUP2 GT ISZERO PUSH2 0x237A JUMPI PUSH2 0x2379 PUSH2 0x1C80 JUMP JUMPDEST JUMPDEST PUSH2 0x2386 DUP6 DUP3 DUP7 ADD PUSH2 0x20C0 JUMP JUMPDEST SWAP3 POP POP PUSH1 0x20 PUSH2 0x2397 DUP6 DUP3 DUP7 ADD PUSH2 0x2042 JUMP JUMPDEST SWAP2 POP POP SWAP3 POP SWAP3 SWAP1 POP JUMP JUMPDEST PUSH1 0x0 DUP1 PUSH1 0x40 DUP4 DUP6 SUB SLT ISZERO PUSH2 0x23B8 JUMPI PUSH2 0x23B7 PUSH2 0x1C7B JUMP JUMPDEST JUMPDEST PUSH1 0x0 PUSH2 0x23C6 DUP6 DUP3 DUP7 ADD PUSH2 0x1EC8 JUMP JUMPDEST SWAP3 POP POP PUSH1 0x20 PUSH2 0x23D7 DUP6 DUP3 DUP7 ADD PUSH2 0x1EC8 JUMP JUMPDEST SWAP2 POP POP SWAP3 POP SWAP3 SWAP1 POP JUMP JUMPDEST PUSH2 0x23EA DUP2 PUSH2 0x2021 JUMP JUMPDEST DUP3 MSTORE POP POP JUMP JUMPDEST PUSH1 0x0 PUSH1 0x20 DUP3 ADD SWAP1 POP PUSH2 0x2405 PUSH1 0x0 DUP4 ADD DUP5 PUSH2 0x23E1 JUMP JUMPDEST SWAP3 SWAP2 POP POP JUMP JUMPDEST PUSH32 0x4E487B7100000000000000000000000000000000000000000000000000000000 PUSH1 0x0 MSTORE PUSH1 0x22 PUSH1 0x4 MSTORE PUSH1 0x24 PUSH1 0x0 REVERT JUMPDEST PUSH1 0x0 PUSH1 0x2 DUP3 DIV SWAP1 POP PUSH1 0x1 DUP3 AND DUP1 PUSH2 0x2452 JUMPI PUSH1 0x7F DUP3 AND SWAP2 POP JUMPDEST PUSH1 0x20 DUP3 LT DUP2 SUB PUSH2 0x2465 JUMPI PUSH2 0x2464 PUSH2 0x240B JUMP JUMPDEST JUMPDEST POP SWAP2 SWAP1 POP JUMP JUMPDEST PUSH32 0x4552433732313A20617070726F76656420717565727920666F72206E6F6E6578 PUSH1 0x0 DUP3 ADD MSTORE PUSH32 0x697374656E7420746F6B656E0000000000000000000000000000000000000000 PUSH1 0x20 DUP3 ADD MSTORE POP JUMP JUMPDEST PUSH1 0x0 PUSH2 0x24C7 PUSH1 0x2C DUP4 PUSH2 0x1D4B JUMP JUMPDEST SWAP2 POP PUSH2 0x24D2 DUP3 PUSH2 0x246B JUMP JUMPDEST PUSH1 0x40 DUP3 ADD SWAP1 POP SWAP2 SWAP1 POP JUMP JUMPDEST PUSH1 0x0 PUSH1 0x20 DUP3 ADD SWAP1 POP DUP2 DUP2 SUB PUSH1 0x0 DUP4 ADD MSTORE PUSH2 0x24F6 DUP2 PUSH2 0x24BA JUMP JUMPDEST SWAP1 POP SWAP2 SWAP1 POP JUMP JUMPDEST PUSH32 0x4552433732313A20617070726F76616C20746F2063757272656E74206F776E65 PUSH1 0x0 DUP3 ADD MSTORE PUSH32 0x7200000000000000000000000000000000000000000000000000000000000000 PUSH1 0x20 DUP3 ADD MSTORE POP JUMP JUMPDEST PUSH1 0x0 PUSH2 0x2559 PUSH1 0x21 DUP4 PUSH2 0x1D4B JUMP JUMPDEST SWAP2 POP PUSH2 0x2564 DUP3 PUSH2 0x24FD JUMP JUMPDEST PUSH1 0x40 DUP3 ADD SWAP1 POP SWAP2 SWAP1 POP JUMP JUMPDEST PUSH1 0x0 PUSH1 0x20 DUP3 ADD SWAP1 POP DUP2 DUP2 SUB PUSH1 0x0 DUP4 ADD MSTORE PUSH2 0x2588 DUP2 PUSH2 0x254C JUMP JUMPDEST SWAP1 POP SWAP2 SWAP1 POP JUMP JUMPDEST PUSH32 0x4552433732313A20617070726F76652063616C6C6572206973206E6F74206F77 PUSH1 0x0 DUP3 ADD MSTORE PUSH32 0x6E6572206E6F7220617070726F76656420666F7220616C6C0000000000000000 PUSH1 0x20 DUP3 ADD MSTORE POP JUMP JUMPDEST PUSH1 0x0 PUSH2 0x25EB PUSH1 0x38 DUP4 PUSH2 0x1D4B JUMP JUMPDEST SWAP2 POP PUSH2 0x25F6 DUP3 PUSH2 0x258F JUMP JUMPDEST PUSH1 0x40 DUP3 ADD SWAP1 POP SWAP2 SWAP1 POP JUMP JUMPDEST PUSH1 0x0 PUSH1 0x20 DUP3 ADD SWAP1 POP DUP2 DUP2 SUB PUSH1 0x0 DUP4 ADD MSTORE PUSH2 0x261A DUP2 PUSH2 0x25DE JUMP JUMPDEST SWAP1 POP SWAP2 SWAP1 POP JUMP JUMPDEST PUSH32 0x4552433732313A207472616E736665722063616C6C6572206973206E6F74206F PUSH1 0x0 DUP3 ADD MSTORE PUSH32 0x776E6572206E6F7220617070726F766564000000000000000000000000000000 PUSH1 0x20 DUP3 ADD MSTORE POP JUMP JUMPDEST PUSH1 0x0 PUSH2 0x267D PUSH1 0x31 DUP4 PUSH2 0x1D4B JUMP JUMPDEST SWAP2 POP PUSH2 0x2688 DUP3 PUSH2 0x2621 JUMP JUMPDEST PUSH1 0x40 DUP3 ADD SWAP1 POP SWAP2 SWAP1 POP JUMP JUMPDEST PUSH1 0x0 PUSH1 0x20 DUP3 ADD SWAP1 POP DUP2 DUP2 SUB PUSH1 0x0 DUP4 ADD MSTORE PUSH2 0x26AC DUP2 PUSH2 0x2670 JUMP JUMPDEST SWAP1 POP SWAP2 SWAP1 POP JUMP JUMPDEST PUSH1 0x0 DUP2 PUSH1 0x60 SHL SWAP1 POP SWAP2 SWAP1 POP JUMP JUMPDEST PUSH1 0x0 PUSH2 0x26CB DUP3 PUSH2 0x26B3 JUMP JUMPDEST SWAP1 POP SWAP2 SWAP1 POP JUMP JUMPDEST PUSH1 0x0 PUSH2 0x26DD DUP3 PUSH2 0x26C0 JUMP JUMPDEST SWAP1 POP SWAP2 SWAP1 POP JUMP JUMPDEST PUSH2 0x26F5 PUSH2 0x26F0 DUP3 PUSH2 0x1E75 JUMP JUMPDEST PUSH2 0x26D2 JUMP JUMPDEST DUP3 MSTORE POP POP JUMP JUMPDEST PUSH1 0x0 PUSH2 0x2707 DUP3 DUP5 PUSH2 0x26E4 JUMP JUMPDEST PUSH1 0x14 DUP3 ADD SWAP2 POP DUP2 SWAP1 POP SWAP3 SWAP2 POP POP JUMP JUMPDEST PUSH32 0x4E6F7420612070617274206F6620416C6C6F776C6973742E205468657265666F PUSH1 0x0 DUP3 ADD MSTORE PUSH32 0x7265207061796D656E74206F6620302E3120657468657220706572206D696E74 PUSH1 0x20 DUP3 ADD MSTORE PUSH32 0x2072657175697265640000000000000000000000000000000000000000000000 PUSH1 0x40 DUP3 ADD MSTORE POP JUMP JUMPDEST PUSH1 0x0 PUSH2 0x2798 PUSH1 0x49 DUP4 PUSH2 0x1D4B JUMP JUMPDEST SWAP2 POP PUSH2 0x27A3 DUP3 PUSH2 0x2716 JUMP JUMPDEST PUSH1 0x60 DUP3 ADD SWAP1 POP SWAP2 SWAP1 POP JUMP JUMPDEST PUSH1 0x0 PUSH1 0x20 DUP3 ADD SWAP1 POP DUP2 DUP2 SUB PUSH1 0x0 DUP4 ADD MSTORE PUSH2 0x27C7 DUP2 PUSH2 0x278B JUMP JUMPDEST SWAP1 POP SWAP2 SWAP1 POP JUMP JUMPDEST PUSH32 0x4552433732313A206F776E657220717565727920666F72206E6F6E6578697374 PUSH1 0x0 DUP3 ADD MSTORE PUSH32 0x656E7420746F6B656E0000000000000000000000000000000000000000000000 PUSH1 0x20 DUP3 ADD MSTORE POP JUMP JUMPDEST PUSH1 0x0 PUSH2 0x282A PUSH1 0x29 DUP4 PUSH2 0x1D4B JUMP JUMPDEST SWAP2 POP PUSH2 0x2835 DUP3 PUSH2 0x27CE JUMP JUMPDEST PUSH1 0x40 DUP3 ADD SWAP1 POP SWAP2 SWAP1 POP JUMP JUMPDEST PUSH1 0x0 PUSH1 0x20 DUP3 ADD SWAP1 POP DUP2 DUP2 SUB PUSH1 0x0 DUP4 ADD MSTORE PUSH2 0x2859 DUP2 PUSH2 0x281D JUMP JUMPDEST SWAP1 POP SWAP2 SWAP1 POP JUMP JUMPDEST PUSH32 0x4552433732313A2062616C616E636520717565727920666F7220746865207A65 PUSH1 0x0 DUP3 ADD MSTORE PUSH32 0x726F206164647265737300000000000000000000000000000000000000000000 PUSH1 0x20 DUP3 ADD MSTORE POP JUMP JUMPDEST PUSH1 0x0 PUSH2 0x28BC PUSH1 0x2A DUP4 PUSH2 0x1D4B JUMP JUMPDEST SWAP2 POP PUSH2 0x28C7 DUP3 PUSH2 0x2860 JUMP JUMPDEST PUSH1 0x40 DUP3 ADD SWAP1 POP SWAP2 SWAP1 POP JUMP JUMPDEST PUSH1 0x0 PUSH1 0x20 DUP3 ADD SWAP1 POP DUP2 DUP2 SUB PUSH1 0x0 DUP4 ADD MSTORE PUSH2 0x28EB DUP2 PUSH2 0x28AF JUMP JUMPDEST SWAP1 POP SWAP2 SWAP1 POP JUMP JUMPDEST PUSH32 0x4F776E61626C653A2063616C6C6572206973206E6F7420746865206F776E6572 PUSH1 0x0 DUP3 ADD MSTORE POP JUMP JUMPDEST PUSH1 0x0 PUSH2 0x2928 PUSH1 0x20 DUP4 PUSH2 0x1D4B JUMP JUMPDEST SWAP2 POP PUSH2 0x2933 DUP3 PUSH2 0x28F2 JUMP JUMPDEST PUSH1 0x20 DUP3 ADD SWAP1 POP SWAP2 SWAP1 POP JUMP JUMPDEST PUSH1 0x0 PUSH1 0x20 DUP3 ADD SWAP1 POP DUP2 DUP2 SUB PUSH1 0x0 DUP4 ADD MSTORE PUSH2 0x2957 DUP2 PUSH2 0x291B JUMP JUMPDEST SWAP1 POP SWAP2 SWAP1 POP JUMP JUMPDEST PUSH32 0x4552433732314D657461646174613A2055524920717565727920666F72206E6F PUSH1 0x0 DUP3 ADD MSTORE PUSH32 0x6E6578697374656E7420746F6B656E0000000000000000000000000000000000 PUSH1 0x20 DUP3 ADD MSTORE POP JUMP JUMPDEST PUSH1 0x0 PUSH2 0x29BA PUSH1 0x2F DUP4 PUSH2 0x1D4B JUMP JUMPDEST SWAP2 POP PUSH2 0x29C5 DUP3 PUSH2 0x295E JUMP JUMPDEST PUSH1 0x40 DUP3 ADD SWAP1 POP SWAP2 SWAP1 POP JUMP JUMPDEST PUSH1 0x0 PUSH1 0x20 DUP3 ADD SWAP1 POP DUP2 DUP2 SUB PUSH1 0x0 DUP4 ADD MSTORE PUSH2 0x29E9 DUP2 PUSH2 0x29AD JUMP JUMPDEST SWAP1 POP SWAP2 SWAP1 POP JUMP JUMPDEST PUSH1 0x0 DUP2 SWAP1 POP SWAP3 SWAP2 POP POP JUMP JUMPDEST PUSH1 0x0 PUSH2 0x2A06 DUP3 PUSH2 0x1D40 JUMP JUMPDEST PUSH2 0x2A10 DUP2 DUP6 PUSH2 0x29F0 JUMP JUMPDEST SWAP4 POP PUSH2 0x2A20 DUP2 DUP6 PUSH1 0x20 DUP7 ADD PUSH2 0x1D5C JUMP JUMPDEST DUP1 DUP5 ADD SWAP2 POP POP SWAP3 SWAP2 POP POP JUMP JUMPDEST PUSH1 0x0 PUSH2 0x2A38 DUP3 DUP6 PUSH2 0x29FB JUMP JUMPDEST SWAP2 POP PUSH2 0x2A44 DUP3 DUP5 PUSH2 0x29FB JUMP JUMPDEST SWAP2 POP DUP2 SWAP1 POP SWAP4 SWAP3 POP POP POP JUMP JUMPDEST PUSH32 0x506C656173652070617920746865207265717569726564207072696365000000 PUSH1 0x0 DUP3 ADD MSTORE POP JUMP JUMPDEST PUSH1 0x0 PUSH2 0x2A86 PUSH1 0x1D DUP4 PUSH2 0x1D4B JUMP JUMPDEST SWAP2 POP PUSH2 0x2A91 DUP3 PUSH2 0x2A50 JUMP JUMPDEST PUSH1 0x20 DUP3 ADD SWAP1 POP SWAP2 SWAP1 POP JUMP JUMPDEST PUSH1 0x0 PUSH1 0x20 DUP3 ADD SWAP1 POP DUP2 DUP2 SUB PUSH1 0x0 DUP4 ADD MSTORE PUSH2 0x2AB5 DUP2 PUSH2 0x2A79 JUMP JUMPDEST SWAP1 POP SWAP2 SWAP1 POP JUMP JUMPDEST PUSH32 0x4F776E61626C653A206E6577206F776E657220697320746865207A65726F2061 PUSH1 0x0 DUP3 ADD MSTORE PUSH32 0x6464726573730000000000000000000000000000000000000000000000000000 PUSH1 0x20 DUP3 ADD MSTORE POP JUMP JUMPDEST PUSH1 0x0 PUSH2 0x2B18 PUSH1 0x26 DUP4 PUSH2 0x1D4B JUMP JUMPDEST SWAP2 POP PUSH2 0x2B23 DUP3 PUSH2 0x2ABC JUMP JUMPDEST PUSH1 0x40 DUP3 ADD SWAP1 POP SWAP2 SWAP1 POP JUMP JUMPDEST PUSH1 0x0 PUSH1 0x20 DUP3 ADD SWAP1 POP DUP2 DUP2 SUB PUSH1 0x0 DUP4 ADD MSTORE PUSH2 0x2B47 DUP2 PUSH2 0x2B0B JUMP JUMPDEST SWAP1 POP SWAP2 SWAP1 POP JUMP JUMPDEST PUSH32 0x4552433732313A206F70657261746F7220717565727920666F72206E6F6E6578 PUSH1 0x0 DUP3 ADD MSTORE PUSH32 0x697374656E7420746F6B656E0000000000000000000000000000000000000000 PUSH1 0x20 DUP3 ADD MSTORE POP JUMP JUMPDEST PUSH1 0x0 PUSH2 0x2BAA PUSH1 0x2C DUP4 PUSH2 0x1D4B JUMP JUMPDEST SWAP2 POP PUSH2 0x2BB5 DUP3 PUSH2 0x2B4E JUMP JUMPDEST PUSH1 0x40 DUP3 ADD SWAP1 POP SWAP2 SWAP1 POP JUMP JUMPDEST PUSH1 0x0 PUSH1 0x20 DUP3 ADD SWAP1 POP DUP2 DUP2 SUB PUSH1 0x0 DUP4 ADD MSTORE PUSH2 0x2BD9 DUP2 PUSH2 0x2B9D JUMP JUMPDEST SWAP1 POP SWAP2 SWAP1 POP JUMP JUMPDEST PUSH32 0x4552433732313A207472616E736665722066726F6D20696E636F727265637420 PUSH1 0x0 DUP3 ADD MSTORE PUSH32 0x6F776E6572000000000000000000000000000000000000000000000000000000 PUSH1 0x20 DUP3 ADD MSTORE POP JUMP JUMPDEST PUSH1 0x0 PUSH2 0x2C3C PUSH1 0x25 DUP4 PUSH2 0x1D4B JUMP JUMPDEST SWAP2 POP PUSH2 0x2C47 DUP3 PUSH2 0x2BE0 JUMP JUMPDEST PUSH1 0x40 DUP3 ADD SWAP1 POP SWAP2 SWAP1 POP JUMP JUMPDEST PUSH1 0x0 PUSH1 0x20 DUP3 ADD SWAP1 POP DUP2 DUP2 SUB PUSH1 0x0 DUP4 ADD MSTORE PUSH2 0x2C6B DUP2 PUSH2 0x2C2F JUMP JUMPDEST SWAP1 POP SWAP2 SWAP1 POP JUMP JUMPDEST PUSH32 0x4552433732313A207472616E7366657220746F20746865207A65726F20616464 PUSH1 0x0 DUP3 ADD MSTORE PUSH32 0x7265737300000000000000000000000000000000000000000000000000000000 PUSH1 0x20 DUP3 ADD MSTORE POP JUMP JUMPDEST PUSH1 0x0 PUSH2 0x2CCE PUSH1 0x24 DUP4 PUSH2 0x1D4B JUMP JUMPDEST SWAP2 POP PUSH2 0x2CD9 DUP3 PUSH2 0x2C72 JUMP JUMPDEST PUSH1 0x40 DUP3 ADD SWAP1 POP SWAP2 SWAP1 POP JUMP JUMPDEST PUSH1 0x0 PUSH1 0x20 DUP3 ADD SWAP1 POP DUP2 DUP2 SUB PUSH1 0x0 DUP4 ADD MSTORE PUSH2 0x2CFD DUP2 PUSH2 0x2CC1 JUMP JUMPDEST SWAP1 POP SWAP2 SWAP1 POP JUMP JUMPDEST PUSH32 0x4E487B7100000000000000000000000000000000000000000000000000000000 PUSH1 0x0 MSTORE PUSH1 0x11 PUSH1 0x4 MSTORE PUSH1 0x24 PUSH1 0x0 REVERT JUMPDEST PUSH1 0x0 PUSH2 0x2D3E DUP3 PUSH2 0x1DF2 JUMP JUMPDEST SWAP2 POP PUSH2 0x2D49 DUP4 PUSH2 0x1DF2 JUMP JUMPDEST SWAP3 POP DUP3 DUP3 SUB SWAP1 POP DUP2 DUP2 GT ISZERO PUSH2 0x2D61 JUMPI PUSH2 0x2D60 PUSH2 0x2D04 JUMP JUMPDEST JUMPDEST SWAP3 SWAP2 POP POP JUMP JUMPDEST PUSH1 0x0 PUSH2 0x2D72 DUP3 PUSH2 0x1DF2 JUMP JUMPDEST SWAP2 POP PUSH2 0x2D7D DUP4 PUSH2 0x1DF2 JUMP JUMPDEST SWAP3 POP DUP3 DUP3 ADD SWAP1 POP DUP1 DUP3 GT ISZERO PUSH2 0x2D95 JUMPI PUSH2 0x2D94 PUSH2 0x2D04 JUMP JUMPDEST JUMPDEST SWAP3 SWAP2 POP POP JUMP JUMPDEST PUSH32 0x4552433732313A20617070726F766520746F2063616C6C657200000000000000 PUSH1 0x0 DUP3 ADD MSTORE POP JUMP JUMPDEST PUSH1 0x0 PUSH2 0x2DD1 PUSH1 0x19 DUP4 PUSH2 0x1D4B JUMP JUMPDEST SWAP2 POP PUSH2 0x2DDC DUP3 PUSH2 0x2D9B JUMP JUMPDEST PUSH1 0x20 DUP3 ADD SWAP1 POP SWAP2 SWAP1 POP JUMP JUMPDEST PUSH1 0x0 PUSH1 0x20 DUP3 ADD SWAP1 POP DUP2 DUP2 SUB PUSH1 0x0 DUP4 ADD MSTORE PUSH2 0x2E00 DUP2 PUSH2 0x2DC4 JUMP JUMPDEST SWAP1 POP SWAP2 SWAP1 POP JUMP JUMPDEST PUSH32 0x4552433732313A207472616E7366657220746F206E6F6E204552433732315265 PUSH1 0x0 DUP3 ADD MSTORE PUSH32 0x63656976657220696D706C656D656E7465720000000000000000000000000000 PUSH1 0x20 DUP3 ADD MSTORE POP JUMP JUMPDEST PUSH1 0x0 PUSH2 0x2E63 PUSH1 0x32 DUP4 PUSH2 0x1D4B JUMP JUMPDEST SWAP2 POP PUSH2 0x2E6E DUP3 PUSH2 0x2E07 JUMP JUMPDEST PUSH1 0x40 DUP3 ADD SWAP1 POP SWAP2 SWAP1 POP JUMP JUMPDEST PUSH1 0x0 PUSH1 0x20 DUP3 ADD SWAP1 POP DUP2 DUP2 SUB PUSH1 0x0 DUP4 ADD MSTORE PUSH2 0x2E92 DUP2 PUSH2 0x2E56 JUMP JUMPDEST SWAP1 POP SWAP2 SWAP1 POP JUMP JUMPDEST PUSH1 0x0 PUSH2 0x2EA4 DUP3 PUSH2 0x1DF2 JUMP JUMPDEST SWAP2 POP PUSH32 0xFFFFFFFFFFFFFFFFFFFFFFFFFFFFFFFFFFFFFFFFFFFFFFFFFFFFFFFFFFFFFFFF DUP3 SUB PUSH2 0x2ED6 JUMPI PUSH2 0x2ED5 PUSH2 0x2D04 JUMP JUMPDEST JUMPDEST PUSH1 0x1 DUP3 ADD SWAP1 POP SWAP2 SWAP1 POP JUMP JUMPDEST PUSH32 0x4E487B7100000000000000000000000000000000000000000000000000000000 PUSH1 0x0 MSTORE PUSH1 0x12 PUSH1 0x4 MSTORE PUSH1 0x24 PUSH1 0x0 REVERT JUMPDEST PUSH1 0x0 PUSH2 0x2F1B DUP3 PUSH2 0x1DF2 JUMP JUMPDEST SWAP2 POP PUSH2 0x2F26 DUP4 PUSH2 0x1DF2 JUMP JUMPDEST SWAP3 POP DUP3 PUSH2 0x2F36 JUMPI PUSH2 0x2F35 PUSH2 0x2EE1 JUMP JUMPDEST JUMPDEST DUP3 DUP3 DIV SWAP1 POP SWAP3 SWAP2 POP POP JUMP JUMPDEST PUSH1 0x0 PUSH2 0x2F4C DUP3 PUSH2 0x1DF2 JUMP JUMPDEST SWAP2 POP PUSH2 0x2F57 DUP4 PUSH2 0x1DF2 JUMP JUMPDEST SWAP3 POP DUP3 PUSH2 0x2F67 JUMPI PUSH2 0x2F66 PUSH2 0x2EE1 JUMP JUMPDEST JUMPDEST DUP3 DUP3 MOD SWAP1 POP SWAP3 SWAP2 POP POP JUMP JUMPDEST PUSH32 0x4E487B7100000000000000000000000000000000000000000000000000000000 PUSH1 0x0 MSTORE PUSH1 0x32 PUSH1 0x4 MSTORE PUSH1 0x24 PUSH1 0x0 REVERT JUMPDEST PUSH1 0x0 DUP2 MLOAD SWAP1 POP SWAP2 SWAP1 POP JUMP JUMPDEST PUSH1 0x0 DUP3 DUP3 MSTORE PUSH1 0x20 DUP3 ADD SWAP1 POP SWAP3 SWAP2 POP POP JUMP JUMPDEST PUSH1 0x0 PUSH2 0x2FC8 DUP3 PUSH2 0x2FA1 JUMP JUMPDEST PUSH2 0x2FD2 DUP2 DUP6 PUSH2 0x2FAC JUMP JUMPDEST SWAP4 POP PUSH2 0x2FE2 DUP2 DUP6 PUSH1 0x20 DUP7 ADD PUSH2 0x1D5C JUMP JUMPDEST PUSH2 0x2FEB DUP2 PUSH2 0x1D86 JUMP JUMPDEST DUP5 ADD SWAP2 POP POP SWAP3 SWAP2 POP POP JUMP JUMPDEST PUSH1 0x0 PUSH1 0x80 DUP3 ADD SWAP1 POP PUSH2 0x300B PUSH1 0x0 DUP4 ADD DUP8 PUSH2 0x1E87 JUMP JUMPDEST PUSH2 0x3018 PUSH1 0x20 DUP4 ADD DUP7 PUSH2 0x1E87 JUMP JUMPDEST PUSH2 0x3025 PUSH1 0x40 DUP4 ADD DUP6 PUSH2 0x2177 JUMP JUMPDEST DUP2 DUP2 SUB PUSH1 0x60 DUP4 ADD MSTORE PUSH2 0x3037 DUP2 DUP5 PUSH2 0x2FBD JUMP JUMPDEST SWAP1 POP SWAP6 SWAP5 POP POP POP POP POP JUMP JUMPDEST PUSH1 0x0 DUP2 MLOAD SWAP1 POP PUSH2 0x3051 DUP2 PUSH2 0x1CB1 JUMP JUMPDEST SWAP3 SWAP2 POP POP JUMP JUMPDEST PUSH1 0x0 PUSH1 0x20 DUP3 DUP5 SUB SLT ISZERO PUSH2 0x306D JUMPI PUSH2 0x306C PUSH2 0x1C7B JUMP JUMPDEST JUMPDEST PUSH1 0x0 PUSH2 0x307B DUP5 DUP3 DUP6 ADD PUSH2 0x3042 JUMP JUMPDEST SWAP2 POP POP SWAP3 SWAP2 POP POP JUMP JUMPDEST PUSH32 0x4552433732313A206D696E7420746F20746865207A65726F2061646472657373 PUSH1 0x0 DUP3 ADD MSTORE POP JUMP JUMPDEST PUSH1 0x0 PUSH2 0x30BA PUSH1 0x20 DUP4 PUSH2 0x1D4B JUMP JUMPDEST SWAP2 POP PUSH2 0x30C5 DUP3 PUSH2 0x3084 JUMP JUMPDEST PUSH1 0x20 DUP3 ADD SWAP1 POP SWAP2 SWAP1 POP JUMP JUMPDEST PUSH1 0x0 PUSH1 0x20 DUP3 ADD SWAP1 POP DUP2 DUP2 SUB PUSH1 0x0 DUP4 ADD MSTORE PUSH2 0x30E9 DUP2 PUSH2 0x30AD JUMP JUMPDEST SWAP1 POP SWAP2 SWAP1 POP JUMP JUMPDEST PUSH32 0x4552433732313A20746F6B656E20616C7265616479206D696E74656400000000 PUSH1 0x0 DUP3 ADD MSTORE POP JUMP JUMPDEST PUSH1 0x0 PUSH2 0x3126 PUSH1 0x1C DUP4 PUSH2 0x1D4B JUMP JUMPDEST SWAP2 POP PUSH2 0x3131 DUP3 PUSH2 0x30F0 JUMP JUMPDEST PUSH1 0x20 DUP3 ADD SWAP1 POP SWAP2 SWAP1 POP JUMP JUMPDEST PUSH1 0x0 PUSH1 0x20 DUP3 ADD SWAP1 POP DUP2 DUP2 SUB PUSH1 0x0 DUP4 ADD MSTORE PUSH2 0x3155 DUP2 PUSH2 0x3119 JUMP JUMPDEST SWAP1 POP SWAP2 SWAP1 POP JUMP INVALID LOG2 PUSH5 0x6970667358 0x22 SLT KECCAK256 0xAA LOG2 GASLIMIT GT PUSH12 0x7434D3AB6B914E1241CF0D69 0xC9 PUSH3 0xF0E7F6 0xEC PUSH12 0x5B493D645A0D74864736F6C PUSH4 0x43000812 STOP CALLER "
		},
		"gasEstimates": {
			"creation": {
				"codeDepositCost": "2538000",
				"executionCost": "infinite",
				"totalCost": "infinite"
			},
			"external": {
				"approve(address,uint256)": "infinite",
				"balanceOf(address)": "2965",
				"getApproved(uint256)": "5228",
				"isApprovedForAll(address,address)": "infinite",
				"isValid(bytes32[],bytes32)": "infinite",
				"name()": "infinite",
				"owner()": "2545",
				"ownerOf(uint256)": "3041",
				"paidMint(address)": "infinite",
				"renounceOwnership()": "30485",
				"root()": "2517",
				"safeMint(address,bytes32[])": "infinite",
				"safeTransferFrom(address,address,uint256)": "infinite",
				"safeTransferFrom(address,address,uint256,bytes)": "infinite",
				"setApprovalForAll(address,bool)": "infinite",
				"supportsInterface(bytes4)": "797",
				"symbol()": "infinite",
				"tokenURI(uint256)": "3343",
				"transferFrom(address,address,uint256)": "infinite",
				"transferOwnership(address)": "30830"
			}
		},
		"methodIdentifiers": {
			"approve(address,uint256)": "095ea7b3",
			"balanceOf(address)": "70a08231",
			"getApproved(uint256)": "081812fc",
			"isApprovedForAll(address,address)": "e985e9c5",
			"isValid(bytes32[],bytes32)": "b8a20ed0",
			"name()": "06fdde03",
			"owner()": "8da5cb5b",
			"ownerOf(uint256)": "6352211e",
			"paidMint(address)": "e95a71ae",
			"renounceOwnership()": "715018a6",
			"root()": "ebf0c717",
			"safeMint(address,bytes32[])": "312237cd",
			"safeTransferFrom(address,address,uint256)": "42842e0e",
			"safeTransferFrom(address,address,uint256,bytes)": "b88d4fde",
			"setApprovalForAll(address,bool)": "a22cb465",
			"supportsInterface(bytes4)": "01ffc9a7",
			"symbol()": "95d89b41",
			"tokenURI(uint256)": "c87b56dd",
			"transferFrom(address,address,uint256)": "23b872dd",
			"transferOwnership(address)": "f2fde38b"
		}
	},
	"abi": [
		{
			"inputs": [
				{
					"internalType": "bytes32",
					"name": "_root",
					"type": "bytes32"
				}
			],
			"stateMutability": "nonpayable",
			"type": "constructor"
		},
		{
			"anonymous": false,
			"inputs": [
				{
					"indexed": true,
					"internalType": "address",
					"name": "owner",
					"type": "address"
				},
				{
					"indexed": true,
					"internalType": "address",
					"name": "approved",
					"type": "address"
				},
				{
					"indexed": true,
					"internalType": "uint256",
					"name": "tokenId",
					"type": "uint256"
				}
			],
			"name": "Approval",
			"type": "event"
		},
		{
			"anonymous": false,
			"inputs": [
				{
					"indexed": true,
					"internalType": "address",
					"name": "owner",
					"type": "address"
				},
				{
					"indexed": true,
					"internalType": "address",
					"name": "operator",
					"type": "address"
				},
				{
					"indexed": false,
					"internalType": "bool",
					"name": "approved",
					"type": "bool"
				}
			],
			"name": "ApprovalForAll",
			"type": "event"
		},
		{
			"anonymous": false,
			"inputs": [
				{
					"indexed": true,
					"internalType": "address",
					"name": "previousOwner",
					"type": "address"
				},
				{
					"indexed": true,
					"internalType": "address",
					"name": "newOwner",
					"type": "address"
				}
			],
			"name": "OwnershipTransferred",
			"type": "event"
		},
		{
			"anonymous": false,
			"inputs": [
				{
					"indexed": true,
					"internalType": "address",
					"name": "from",
					"type": "address"
				},
				{
					"indexed": true,
					"internalType": "address",
					"name": "to",
					"type": "address"
				},
				{
					"indexed": true,
					"internalType": "uint256",
					"name": "tokenId",
					"type": "uint256"
				}
			],
			"name": "Transfer",
			"type": "event"
		},
		{
			"inputs": [
				{
					"internalType": "address",
					"name": "to",
					"type": "address"
				},
				{
					"internalType": "uint256",
					"name": "tokenId",
					"type": "uint256"
				}
			],
			"name": "approve",
			"outputs": [],
			"stateMutability": "nonpayable",
			"type": "function"
		},
		{
			"inputs": [
				{
					"internalType": "address",
					"name": "owner",
					"type": "address"
				}
			],
			"name": "balanceOf",
			"outputs": [
				{
					"internalType": "uint256",
					"name": "",
					"type": "uint256"
				}
			],
			"stateMutability": "view",
			"type": "function"
		},
		{
			"inputs": [
				{
					"internalType": "uint256",
					"name": "tokenId",
					"type": "uint256"
				}
			],
			"name": "getApproved",
			"outputs": [
				{
					"internalType": "address",
					"name": "",
					"type": "address"
				}
			],
			"stateMutability": "view",
			"type": "function"
		},
		{
			"inputs": [
				{
					"internalType": "address",
					"name": "owner",
					"type": "address"
				},
				{
					"internalType": "address",
					"name": "operator",
					"type": "address"
				}
			],
			"name": "isApprovedForAll",
			"outputs": [
				{
					"internalType": "bool",
					"name": "",
					"type": "bool"
				}
			],
			"stateMutability": "view",
			"type": "function"
		},
		{
			"inputs": [
				{
					"internalType": "bytes32[]",
					"name": "proof",
					"type": "bytes32[]"
				},
				{
					"internalType": "bytes32",
					"name": "leaf",
					"type": "bytes32"
				}
			],
			"name": "isValid",
			"outputs": [
				{
					"internalType": "bool",
					"name": "",
					"type": "bool"
				}
			],
			"stateMutability": "view",
			"type": "function"
		},
		{
			"inputs": [],
			"name": "name",
			"outputs": [
				{
					"internalType": "string",
					"name": "",
					"type": "string"
				}
			],
			"stateMutability": "view",
			"type": "function"
		},
		{
			"inputs": [],
			"name": "owner",
			"outputs": [
				{
					"internalType": "address",
					"name": "",
					"type": "address"
				}
			],
			"stateMutability": "view",
			"type": "function"
		},
		{
			"inputs": [
				{
					"internalType": "uint256",
					"name": "tokenId",
					"type": "uint256"
				}
			],
			"name": "ownerOf",
			"outputs": [
				{
					"internalType": "address",
					"name": "",
					"type": "address"
				}
			],
			"stateMutability": "view",
			"type": "function"
		},
		{
			"inputs": [
				{
					"internalType": "address",
					"name": "to",
					"type": "address"
				}
			],
			"name": "paidMint",
			"outputs": [],
			"stateMutability": "payable",
			"type": "function"
		},
		{
			"inputs": [],
			"name": "renounceOwnership",
			"outputs": [],
			"stateMutability": "nonpayable",
			"type": "function"
		},
		{
			"inputs": [],
			"name": "root",
			"outputs": [
				{
					"internalType": "bytes32",
					"name": "",
					"type": "bytes32"
				}
			],
			"stateMutability": "view",
			"type": "function"
		},
		{
			"inputs": [
				{
					"internalType": "address",
					"name": "to",
					"type": "address"
				},
				{
					"internalType": "bytes32[]",
					"name": "proof",
					"type": "bytes32[]"
				}
			],
			"name": "safeMint",
			"outputs": [],
			"stateMutability": "payable",
			"type": "function"
		},
		{
			"inputs": [
				{
					"internalType": "address",
					"name": "from",
					"type": "address"
				},
				{
					"internalType": "address",
					"name": "to",
					"type": "address"
				},
				{
					"internalType": "uint256",
					"name": "tokenId",
					"type": "uint256"
				}
			],
			"name": "safeTransferFrom",
			"outputs": [],
			"stateMutability": "nonpayable",
			"type": "function"
		},
		{
			"inputs": [
				{
					"internalType": "address",
					"name": "from",
					"type": "address"
				},
				{
					"internalType": "address",
					"name": "to",
					"type": "address"
				},
				{
					"internalType": "uint256",
					"name": "tokenId",
					"type": "uint256"
				},
				{
					"internalType": "bytes",
					"name": "_data",
					"type": "bytes"
				}
			],
			"name": "safeTransferFrom",
			"outputs": [],
			"stateMutability": "nonpayable",
			"type": "function"
		},
		{
			"inputs": [
				{
					"internalType": "address",
					"name": "operator",
					"type": "address"
				},
				{
					"internalType": "bool",
					"name": "approved",
					"type": "bool"
				}
			],
			"name": "setApprovalForAll",
			"outputs": [],
			"stateMutability": "nonpayable",
			"type": "function"
		},
		{
			"inputs": [
				{
					"internalType": "bytes4",
					"name": "interfaceId",
					"type": "bytes4"
				}
			],
			"name": "supportsInterface",
			"outputs": [
				{
					"internalType": "bool",
					"name": "",
					"type": "bool"
				}
			],
			"stateMutability": "view",
			"type": "function"
		},
		{
			"inputs": [],
			"name": "symbol",
			"outputs": [
				{
					"internalType": "string",
					"name": "",
					"type": "string"
				}
			],
			"stateMutability": "view",
			"type": "function"
		},
		{
			"inputs": [
				{
					"internalType": "uint256",
					"name": "tokenId",
					"type": "uint256"
				}
			],
			"name": "tokenURI",
			"outputs": [
				{
					"internalType": "string",
					"name": "",
					"type": "string"
				}
			],
			"stateMutability": "view",
			"type": "function"
		},
		{
			"inputs": [
				{
					"internalType": "address",
					"name": "from",
					"type": "address"
				},
				{
					"internalType": "address",
					"name": "to",
					"type": "address"
				},
				{
					"internalType": "uint256",
					"name": "tokenId",
					"type": "uint256"
				}
			],
			"name": "transferFrom",
			"outputs": [],
			"stateMutability": "nonpayable",
			"type": "function"
		},
		{
			"inputs": [
				{
					"internalType": "address",
					"name": "newOwner",
					"type": "address"
				}
			],
			"name": "transferOwnership",
			"outputs": [],
			"stateMutability": "nonpayable",
			"type": "function"
		}
	]
}