{
	"data": {
		"bytecode": {
			"linkReferences": {},
			"object": "608060405267016345785d8a00006008553480156200001d57600080fd5b506040518060400160405280600681526020017f52757065657300000000000000000000000000000000000000000000000000008152506040518060400160405280600281526020017f527300000000000000000000000000000000000000000000000000000000000081525081600090816200009b91906200041e565b508060019081620000ad91906200041e565b505050620000d0620000c4620000d660201b60201c565b620000de60201b60201c565b62000505565b600033905090565b6000600660009054906101000a900473ffffffffffffffffffffffffffffffffffffffff16905081600660006101000a81548173ffffffffffffffffffffffffffffffffffffffff021916908373ffffffffffffffffffffffffffffffffffffffff1602179055508173ffffffffffffffffffffffffffffffffffffffff168173ffffffffffffffffffffffffffffffffffffffff167f8be0079c531659141344cd1fd0a4f28419497f9722a3daafe3b4186f6b6457e060405160405180910390a35050565b600081519050919050565b7f4e487b7100000000000000000000000000000000000000000000000000000000600052604160045260246000fd5b7f4e487b7100000000000000000000000000000000000000000000000000000000600052602260045260246000fd5b600060028204905060018216806200022657607f821691505b6020821081036200023c576200023b620001de565b5b50919050565b60008190508160005260206000209050919050565b60006020601f8301049050919050565b600082821b905092915050565b600060088302620002a67fffffffffffffffffffffffffffffffffffffffffffffffffffffffffffffffff8262000267565b620002b2868362000267565b95508019841693508086168417925050509392505050565b6000819050919050565b6000819050919050565b6000620002ff620002f9620002f384620002ca565b620002d4565b620002ca565b9050919050565b6000819050919050565b6200031b83620002de565b620003336200032a8262000306565b84845462000274565b825550505050565b600090565b6200034a6200033b565b6200035781848462000310565b505050565b5b818110156200037f576200037360008262000340565b6001810190506200035d565b5050565b601f821115620003ce57620003988162000242565b620003a38462000257565b81016020851015620003b3578190505b620003cb620003c28562000257565b8301826200035c565b50505b505050565b600082821c905092915050565b6000620003f360001984600802620003d3565b1980831691505092915050565b60006200040e8383620003e0565b9150826002028217905092915050565b6200042982620001a4565b67ffffffffffffffff811115620004455762000444620001af565b5b6200045182546200020d565b6200045e82828562000383565b600060209050601f83116001811462000496576000841562000481578287015190505b6200048d858262000400565b865550620004fd565b601f198416620004a68662000242565b60005b82811015620004d057848901518255600182019150602085019450602081019050620004a9565b86831015620004f05784890151620004ec601f891682620003e0565b8355505b6001600288020188555050505b505050505050565b612d3080620005156000396000f3fe6080604052600436106101355760003560e01c80636a61e5fc116100ab57806395d89b411161006f57806395d89b41146103f1578063a22cb4651461041c578063b88d4fde14610445578063c87b56dd1461046e578063e985e9c5146104ab578063f2fde38b146104e857610135565b80636a61e5fc1461031e57806370a0823114610347578063715018a6146103845780637ff9b5961461039b5780638da5cb5b146103c657610135565b806323b872dd116100fd57806323b872dd146102125780632890e0d71461023b57806342842e0e146102645780634903b0d11461028d5780635fd8c710146102ca5780636352211e146102e157610135565b806301ffc9a71461013a57806306fdde0314610177578063081812fc146101a2578063095ea7b3146101df57806314f710fe14610208575b600080fd5b34801561014657600080fd5b50610161600480360381019061015c9190611e56565b610511565b60405161016e9190611e9e565b60405180910390f35b34801561018357600080fd5b5061018c6105f3565b6040516101999190611f49565b60405180910390f35b3480156101ae57600080fd5b506101c960048036038101906101c49190611fa1565b610685565b6040516101d6919061200f565b60405180910390f35b3480156101eb57600080fd5b5061020660048036038101906102019190612056565b6106cb565b005b6102106107e2565b005b34801561021e57600080fd5b5061023960048036038101906102349190612096565b610864565b005b34801561024757600080fd5b50610262600480360381019061025d9190611fa1565b6108c4565b005b34801561027057600080fd5b5061028b60048036038101906102869190612096565b6108f1565b005b34801561029957600080fd5b506102b460048036038101906102af9190611fa1565b610911565b6040516102c191906120f8565b60405180910390f35b3480156102d657600080fd5b506102df610929565b005b3480156102ed57600080fd5b5061030860048036038101906103039190611fa1565b6109c3565b604051610315919061200f565b60405180910390f35b34801561032a57600080fd5b5061034560048036038101906103409190611fa1565b610a49565b005b34801561035357600080fd5b5061036e60048036038101906103699190612113565b610a5b565b60405161037b91906120f8565b60405180910390f35b34801561039057600080fd5b50610399610b12565b005b3480156103a757600080fd5b506103b0610b26565b6040516103bd91906120f8565b60405180910390f35b3480156103d257600080fd5b506103db610b2c565b6040516103e8919061200f565b60405180910390f35b3480156103fd57600080fd5b50610406610b56565b6040516104139190611f49565b60405180910390f35b34801561042857600080fd5b50610443600480360381019061043e919061216c565b610be8565b005b34801561045157600080fd5b5061046c600480360381019061046791906122e1565b610bfe565b005b34801561047a57600080fd5b5061049560048036038101906104909190611fa1565b610c60565b6040516104a29190611f49565b60405180910390f35b3480156104b757600080fd5b506104d260048036038101906104cd9190612364565b610cc8565b6040516104df9190611e9e565b60405180910390f35b3480156104f457600080fd5b5061050f600480360381019061050a9190612113565b610d5c565b005b60007f80ac58cd000000000000000000000000000000000000000000000000000000007bffffffffffffffffffffffffffffffffffffffffffffffffffffffff1916827bffffffffffffffffffffffffffffffffffffffffffffffffffffffff191614806105dc57507f5b5e139f000000000000000000000000000000000000000000000000000000007bffffffffffffffffffffffffffffffffffffffffffffffffffffffff1916827bffffffffffffffffffffffffffffffffffffffffffffffffffffffff1916145b806105ec57506105eb82610ddf565b5b9050919050565b606060008054610602906123d3565b80601f016020809104026020016040519081016040528092919081815260200182805461062e906123d3565b801561067b5780601f106106505761010080835404028352916020019161067b565b820191906000526020600020905b81548152906001019060200180831161065e57829003601f168201915b5050505050905090565b600061069082610e49565b6004600083815260200190815260200160002060009054906101000a900473ffffffffffffffffffffffffffffffffffffffff169050919050565b60006106d6826109c3565b90508073ffffffffffffffffffffffffffffffffffffffff168373ffffffffffffffffffffffffffffffffffffffff1603610746576040517f08c379a000000000000000000000000000000000000000000000000000000000815260040161073d90612476565b60405180910390fd5b8073ffffffffffffffffffffffffffffffffffffffff16610765610e94565b73ffffffffffffffffffffffffffffffffffffffff16148061079457506107938161078e610e94565b610cc8565b5b6107d3576040517f08c379a00000000000000000000000000000000000000000000000000000000081526004016107ca90612508565b60405180910390fd5b6107dd8383610e9c565b505050565b600854341015610827576040517f08c379a000000000000000000000000000000000000000000000000000000000815260040161081e90612574565b60405180910390fd5b6108316007610f55565b600061083d6007610f6b565b90506108493382610f79565b34600960008381526020019081526020016000208190555050565b61087561086f610e94565b82611196565b6108b4576040517f08c379a00000000000000000000000000000000000000000000000000000000081526004016108ab90612606565b60405180910390fd5b6108bf83838361122b565b505050565b6108cc611524565b6108d5816115a2565b6000600960008381526020019081526020016000208190555050565b61090c83838360405180602001604052806000815250610bfe565b505050565b60096020528060005260406000206000915090505481565b610931611524565b600047905060008111610979576040517f08c379a000000000000000000000000000000000000000000000000000000000815260040161097090612672565b60405180910390fd5b3373ffffffffffffffffffffffffffffffffffffffff166108fc829081150290604051600060405180830381858888f193505050501580156109bf573d6000803e3d6000fd5b5050565b6000806109cf836116f0565b9050600073ffffffffffffffffffffffffffffffffffffffff168173ffffffffffffffffffffffffffffffffffffffff1603610a40576040517f08c379a0000000000000000000000000000000000000000000000000000000008152600401610a37906126de565b60405180910390fd5b80915050919050565b610a51611524565b8060088190555050565b60008073ffffffffffffffffffffffffffffffffffffffff168273ffffffffffffffffffffffffffffffffffffffff1603610acb576040517f08c379a0000000000000000000000000000000000000000000000000000000008152600401610ac290612770565b60405180910390fd5b600360008373ffffffffffffffffffffffffffffffffffffffff1673ffffffffffffffffffffffffffffffffffffffff168152602001908152602001600020549050919050565b610b1a611524565b610b24600061172d565b565b60085481565b6000600660009054906101000a900473ffffffffffffffffffffffffffffffffffffffff16905090565b606060018054610b65906123d3565b80601f0160208091040260200160405190810160405280929190818152602001828054610b91906123d3565b8015610bde5780601f10610bb357610100808354040283529160200191610bde565b820191906000526020600020905b815481529060010190602001808311610bc157829003601f168201915b5050505050905090565b610bfa610bf3610e94565b83836117f3565b5050565b610c0f610c09610e94565b83611196565b610c4e576040517f08c379a0000000000000000000000000000000000000000000000000000000008152600401610c4590612606565b60405180910390fd5b610c5a8484848461195f565b50505050565b6060610c6b82610e49565b6000610c756119bb565b90506000815111610c955760405180602001604052806000815250610cc0565b80610c9f846119d2565b604051602001610cb09291906127cc565b6040516020818303038152906040525b915050919050565b6000600560008473ffffffffffffffffffffffffffffffffffffffff1673ffffffffffffffffffffffffffffffffffffffff16815260200190815260200160002060008373ffffffffffffffffffffffffffffffffffffffff1673ffffffffffffffffffffffffffffffffffffffff16815260200190815260200160002060009054906101000a900460ff16905092915050565b610d64611524565b600073ffffffffffffffffffffffffffffffffffffffff168173ffffffffffffffffffffffffffffffffffffffff1603610dd3576040517f08c379a0000000000000000000000000000000000000000000000000000000008152600401610dca90612862565b60405180910390fd5b610ddc8161172d565b50565b60007f01ffc9a7000000000000000000000000000000000000000000000000000000007bffffffffffffffffffffffffffffffffffffffffffffffffffffffff1916827bffffffffffffffffffffffffffffffffffffffffffffffffffffffff1916149050919050565b610e5281611aa0565b610e91576040517f08c379a0000000000000000000000000000000000000000000000000000000008152600401610e88906126de565b60405180910390fd5b50565b600033905090565b816004600083815260200190815260200160002060006101000a81548173ffffffffffffffffffffffffffffffffffffffff021916908373ffffffffffffffffffffffffffffffffffffffff160217905550808273ffffffffffffffffffffffffffffffffffffffff16610f0f836109c3565b73ffffffffffffffffffffffffffffffffffffffff167f8c5be1e5ebec7d5bd14f71427d1e84f3dd0314c0f7b2291e5b200ac8c7c3b92560405160405180910390a45050565b6001816000016000828254019250508190555050565b600081600001549050919050565b600073ffffffffffffffffffffffffffffffffffffffff168273ffffffffffffffffffffffffffffffffffffffff1603610fe8576040517f08c379a0000000000000000000000000000000000000000000000000000000008152600401610fdf906128ce565b60405180910390fd5b610ff181611aa0565b15611031576040517f08c379a00000000000000000000000000000000000000000000000000000000081526004016110289061293a565b60405180910390fd5b61103f600083836001611ae1565b61104881611aa0565b15611088576040517f08c379a000000000000000000000000000000000000000000000000000000000815260040161107f9061293a565b60405180910390fd5b6001600360008473ffffffffffffffffffffffffffffffffffffffff1673ffffffffffffffffffffffffffffffffffffffff16815260200190815260200160002060008282540192505081905550816002600083815260200190815260200160002060006101000a81548173ffffffffffffffffffffffffffffffffffffffff021916908373ffffffffffffffffffffffffffffffffffffffff160217905550808273ffffffffffffffffffffffffffffffffffffffff16600073ffffffffffffffffffffffffffffffffffffffff167fddf252ad1be2c89b69c2b068fc378daa952ba7f163c4a11628f55a4df523b3ef60405160405180910390a4611192600083836001611ae7565b5050565b6000806111a2836109c3565b90508073ffffffffffffffffffffffffffffffffffffffff168473ffffffffffffffffffffffffffffffffffffffff1614806111e457506111e38185610cc8565b5b8061122257508373ffffffffffffffffffffffffffffffffffffffff1661120a84610685565b73ffffffffffffffffffffffffffffffffffffffff16145b91505092915050565b8273ffffffffffffffffffffffffffffffffffffffff1661124b826109c3565b73ffffffffffffffffffffffffffffffffffffffff16146112a1576040517f08c379a0000000000000000000000000000000000000000000000000000000008152600401611298906129cc565b60405180910390fd5b600073ffffffffffffffffffffffffffffffffffffffff168273ffffffffffffffffffffffffffffffffffffffff1603611310576040517f08c379a000000000000000000000000000000000000000000000000000000000815260040161130790612a5e565b60405180910390fd5b61131d8383836001611ae1565b8273ffffffffffffffffffffffffffffffffffffffff1661133d826109c3565b73ffffffffffffffffffffffffffffffffffffffff1614611393576040517f08c379a000000000000000000000000000000000000000000000000000000000815260040161138a906129cc565b60405180910390fd5b6004600082815260200190815260200160002060006101000a81549073ffffffffffffffffffffffffffffffffffffffff02191690556001600360008573ffffffffffffffffffffffffffffffffffffffff1673ffffffffffffffffffffffffffffffffffffffff168152602001908152602001600020600082825403925050819055506001600360008473ffffffffffffffffffffffffffffffffffffffff1673ffffffffffffffffffffffffffffffffffffffff16815260200190815260200160002060008282540192505081905550816002600083815260200190815260200160002060006101000a81548173ffffffffffffffffffffffffffffffffffffffff021916908373ffffffffffffffffffffffffffffffffffffffff160217905550808273ffffffffffffffffffffffffffffffffffffffff168473ffffffffffffffffffffffffffffffffffffffff167fddf252ad1be2c89b69c2b068fc378daa952ba7f163c4a11628f55a4df523b3ef60405160405180910390a461151f8383836001611ae7565b505050565b61152c610e94565b73ffffffffffffffffffffffffffffffffffffffff1661154a610b2c565b73ffffffffffffffffffffffffffffffffffffffff16146115a0576040517f08c379a000000000000000000000000000000000000000000000000000000000815260040161159790612aca565b60405180910390fd5b565b60006115ad826109c3565b90506115bd816000846001611ae1565b6115c6826109c3565b90506004600083815260200190815260200160002060006101000a81549073ffffffffffffffffffffffffffffffffffffffff02191690556001600360008373ffffffffffffffffffffffffffffffffffffffff1673ffffffffffffffffffffffffffffffffffffffff168152602001908152602001600020600082825403925050819055506002600083815260200190815260200160002060006101000a81549073ffffffffffffffffffffffffffffffffffffffff021916905581600073ffffffffffffffffffffffffffffffffffffffff168273ffffffffffffffffffffffffffffffffffffffff167fddf252ad1be2c89b69c2b068fc378daa952ba7f163c4a11628f55a4df523b3ef60405160405180910390a46116ec816000846001611ae7565b5050565b60006002600083815260200190815260200160002060009054906101000a900473ffffffffffffffffffffffffffffffffffffffff169050919050565b6000600660009054906101000a900473ffffffffffffffffffffffffffffffffffffffff16905081600660006101000a81548173ffffffffffffffffffffffffffffffffffffffff021916908373ffffffffffffffffffffffffffffffffffffffff1602179055508173ffffffffffffffffffffffffffffffffffffffff168173ffffffffffffffffffffffffffffffffffffffff167f8be0079c531659141344cd1fd0a4f28419497f9722a3daafe3b4186f6b6457e060405160405180910390a35050565b8173ffffffffffffffffffffffffffffffffffffffff168373ffffffffffffffffffffffffffffffffffffffff1603611861576040517f08c379a000000000000000000000000000000000000000000000000000000000815260040161185890612b36565b60405180910390fd5b80600560008573ffffffffffffffffffffffffffffffffffffffff1673ffffffffffffffffffffffffffffffffffffffff16815260200190815260200160002060008473ffffffffffffffffffffffffffffffffffffffff1673ffffffffffffffffffffffffffffffffffffffff16815260200190815260200160002060006101000a81548160ff0219169083151502179055508173ffffffffffffffffffffffffffffffffffffffff168373ffffffffffffffffffffffffffffffffffffffff167f17307eab39ab6107e8899845ad3d59bd9653f200f220920489ca2b5937696c31836040516119529190611e9e565b60405180910390a3505050565b61196a84848461122b565b61197684848484611aed565b6119b5576040517f08c379a00000000000000000000000000000000000000000000000000000000081526004016119ac90612bc8565b60405180910390fd5b50505050565b606060405180602001604052806000815250905090565b6060600060016119e184611c74565b01905060008167ffffffffffffffff811115611a00576119ff6121b6565b5b6040519080825280601f01601f191660200182016040528015611a325781602001600182028036833780820191505090505b509050600082602001820190505b600115611a95578080600190039150507f3031323334353637383961626364656600000000000000000000000000000000600a86061a8153600a8581611a8957611a88612be8565b5b04945060008503611a40575b819350505050919050565b60008073ffffffffffffffffffffffffffffffffffffffff16611ac2836116f0565b73ffffffffffffffffffffffffffffffffffffffff1614159050919050565b50505050565b50505050565b6000611b0e8473ffffffffffffffffffffffffffffffffffffffff16611dc7565b15611c67578373ffffffffffffffffffffffffffffffffffffffff1663150b7a02611b37610e94565b8786866040518563ffffffff1660e01b8152600401611b599493929190612c6c565b6020604051808303816000875af1925050508015611b9557506040513d601f19601f82011682018060405250810190611b929190612ccd565b60015b611c17573d8060008114611bc5576040519150601f19603f3d011682016040523d82523d6000602084013e611bca565b606091505b506000815103611c0f576040517f08c379a0000000000000000000000000000000000000000000000000000000008152600401611c0690612bc8565b60405180910390fd5b805181602001fd5b63150b7a0260e01b7bffffffffffffffffffffffffffffffffffffffffffffffffffffffff1916817bffffffffffffffffffffffffffffffffffffffffffffffffffffffff191614915050611c6c565b600190505b949350505050565b600080600090507a184f03e93ff9f4daa797ed6e38ed64bf6a1f0100000000000000008310611cd2577a184f03e93ff9f4daa797ed6e38ed64bf6a1f0100000000000000008381611cc857611cc7612be8565b5b0492506040810190505b6d04ee2d6d415b85acef81000000008310611d0f576d04ee2d6d415b85acef81000000008381611d0557611d04612be8565b5b0492506020810190505b662386f26fc100008310611d3e57662386f26fc100008381611d3457611d33612be8565b5b0492506010810190505b6305f5e1008310611d67576305f5e1008381611d5d57611d5c612be8565b5b0492506008810190505b6127108310611d8c576127108381611d8257611d81612be8565b5b0492506004810190505b60648310611daf5760648381611da557611da4612be8565b5b0492506002810190505b600a8310611dbe576001810190505b80915050919050565b6000808273ffffffffffffffffffffffffffffffffffffffff163b119050919050565b6000604051905090565b600080fd5b600080fd5b60007fffffffff0000000000000000000000000000000000000000000000000000000082169050919050565b611e3381611dfe565b8114611e3e57600080fd5b50565b600081359050611e5081611e2a565b92915050565b600060208284031215611e6c57611e6b611df4565b5b6000611e7a84828501611e41565b91505092915050565b60008115159050919050565b611e9881611e83565b82525050565b6000602082019050611eb36000830184611e8f565b92915050565b600081519050919050565b600082825260208201905092915050565b60005b83811015611ef3578082015181840152602081019050611ed8565b60008484015250505050565b6000601f19601f8301169050919050565b6000611f1b82611eb9565b611f258185611ec4565b9350611f35818560208601611ed5565b611f3e81611eff565b840191505092915050565b60006020820190508181036000830152611f638184611f10565b905092915050565b6000819050919050565b611f7e81611f6b565b8114611f8957600080fd5b50565b600081359050611f9b81611f75565b92915050565b600060208284031215611fb757611fb6611df4565b5b6000611fc584828501611f8c565b91505092915050565b600073ffffffffffffffffffffffffffffffffffffffff82169050919050565b6000611ff982611fce565b9050919050565b61200981611fee565b82525050565b60006020820190506120246000830184612000565b92915050565b61203381611fee565b811461203e57600080fd5b50565b6000813590506120508161202a565b92915050565b6000806040838503121561206d5761206c611df4565b5b600061207b85828601612041565b925050602061208c85828601611f8c565b9150509250929050565b6000806000606084860312156120af576120ae611df4565b5b60006120bd86828701612041565b93505060206120ce86828701612041565b92505060406120df86828701611f8c565b9150509250925092565b6120f281611f6b565b82525050565b600060208201905061210d60008301846120e9565b92915050565b60006020828403121561212957612128611df4565b5b600061213784828501612041565b91505092915050565b61214981611e83565b811461215457600080fd5b50565b60008135905061216681612140565b92915050565b6000806040838503121561218357612182611df4565b5b600061219185828601612041565b92505060206121a285828601612157565b9150509250929050565b600080fd5b600080fd5b7f4e487b7100000000000000000000000000000000000000000000000000000000600052604160045260246000fd5b6121ee82611eff565b810181811067ffffffffffffffff8211171561220d5761220c6121b6565b5b80604052505050565b6000612220611dea565b905061222c82826121e5565b919050565b600067ffffffffffffffff82111561224c5761224b6121b6565b5b61225582611eff565b9050602081019050919050565b82818337600083830152505050565b600061228461227f84612231565b612216565b9050828152602081018484840111156122a05761229f6121b1565b5b6122ab848285612262565b509392505050565b600082601f8301126122c8576122c76121ac565b5b81356122d8848260208601612271565b91505092915050565b600080600080608085870312156122fb576122fa611df4565b5b600061230987828801612041565b945050602061231a87828801612041565b935050604061232b87828801611f8c565b925050606085013567ffffffffffffffff81111561234c5761234b611df9565b5b612358878288016122b3565b91505092959194509250565b6000806040838503121561237b5761237a611df4565b5b600061238985828601612041565b925050602061239a85828601612041565b9150509250929050565b7f4e487b7100000000000000000000000000000000000000000000000000000000600052602260045260246000fd5b600060028204905060018216806123eb57607f821691505b6020821081036123fe576123fd6123a4565b5b50919050565b7f4552433732313a20617070726f76616c20746f2063757272656e74206f776e6560008201527f7200000000000000000000000000000000000000000000000000000000000000602082015250565b6000612460602183611ec4565b915061246b82612404565b604082019050919050565b6000602082019050818103600083015261248f81612453565b9050919050565b7f4552433732313a20617070726f76652063616c6c6572206973206e6f7420746f60008201527f6b656e206f776e6572206f7220617070726f76656420666f7220616c6c000000602082015250565b60006124f2603d83611ec4565b91506124fd82612496565b604082019050919050565b60006020820190508181036000830152612521816124e5565b9050919050565b7f496e73756666696369656e742066756e64730000000000000000000000000000600082015250565b600061255e601283611ec4565b915061256982612528565b602082019050919050565b6000602082019050818103600083015261258d81612551565b9050919050565b7f4552433732313a2063616c6c6572206973206e6f7420746f6b656e206f776e6560008201527f72206f7220617070726f76656400000000000000000000000000000000000000602082015250565b60006125f0602d83611ec4565b91506125fb82612594565b604082019050919050565b6000602082019050818103600083015261261f816125e3565b9050919050565b7f4e6f2062616c616e636520746f20776974686472617700000000000000000000600082015250565b600061265c601683611ec4565b915061266782612626565b602082019050919050565b6000602082019050818103600083015261268b8161264f565b9050919050565b7f4552433732313a20696e76616c696420746f6b656e2049440000000000000000600082015250565b60006126c8601883611ec4565b91506126d382612692565b602082019050919050565b600060208201905081810360008301526126f7816126bb565b9050919050565b7f4552433732313a2061646472657373207a65726f206973206e6f74206120766160008201527f6c6964206f776e65720000000000000000000000000000000000000000000000602082015250565b600061275a602983611ec4565b9150612765826126fe565b604082019050919050565b600060208201905081810360008301526127898161274d565b9050919050565b600081905092915050565b60006127a682611eb9565b6127b08185612790565b93506127c0818560208601611ed5565b80840191505092915050565b60006127d8828561279b565b91506127e4828461279b565b91508190509392505050565b7f4f776e61626c653a206e6577206f776e657220697320746865207a65726f206160008201527f6464726573730000000000000000000000000000000000000000000000000000602082015250565b600061284c602683611ec4565b9150612857826127f0565b604082019050919050565b6000602082019050818103600083015261287b8161283f565b9050919050565b7f4552433732313a206d696e7420746f20746865207a65726f2061646472657373600082015250565b60006128b8602083611ec4565b91506128c382612882565b602082019050919050565b600060208201905081810360008301526128e7816128ab565b9050919050565b7f4552433732313a20746f6b656e20616c7265616479206d696e74656400000000600082015250565b6000612924601c83611ec4565b915061292f826128ee565b602082019050919050565b6000602082019050818103600083015261295381612917565b9050919050565b7f4552433732313a207472616e736665722066726f6d20696e636f72726563742060008201527f6f776e6572000000000000000000000000000000000000000000000000000000602082015250565b60006129b6602583611ec4565b91506129c18261295a565b604082019050919050565b600060208201905081810360008301526129e5816129a9565b9050919050565b7f4552433732313a207472616e7366657220746f20746865207a65726f2061646460008201527f7265737300000000000000000000000000000000000000000000000000000000602082015250565b6000612a48602483611ec4565b9150612a53826129ec565b604082019050919050565b60006020820190508181036000830152612a7781612a3b565b9050919050565b7f4f776e61626c653a2063616c6c6572206973206e6f7420746865206f776e6572600082015250565b6000612ab4602083611ec4565b9150612abf82612a7e565b602082019050919050565b60006020820190508181036000830152612ae381612aa7565b9050919050565b7f4552433732313a20617070726f766520746f2063616c6c657200000000000000600082015250565b6000612b20601983611ec4565b9150612b2b82612aea565b602082019050919050565b60006020820190508181036000830152612b4f81612b13565b9050919050565b7f4552433732313a207472616e7366657220746f206e6f6e20455243373231526560008201527f63656976657220696d706c656d656e7465720000000000000000000000000000602082015250565b6000612bb2603283611ec4565b9150612bbd82612b56565b604082019050919050565b60006020820190508181036000830152612be181612ba5565b9050919050565b7f4e487b7100000000000000000000000000000000000000000000000000000000600052601260045260246000fd5b600081519050919050565b600082825260208201905092915050565b6000612c3e82612c17565b612c488185612c22565b9350612c58818560208601611ed5565b612c6181611eff565b840191505092915050565b6000608082019050612c816000830187612000565b612c8e6020830186612000565b612c9b60408301856120e9565b8181036060830152612cad8184612c33565b905095945050505050565b600081519050612cc781611e2a565b92915050565b600060208284031215612ce357612ce2611df4565b5b6000612cf184828501612cb8565b9150509291505056fea2646970667358221220a83e98aac7afcae4a30bde07af3b2eb1aef46ec7cb68520e9ce0c657248033a464736f6c63430008120033",
			"opcodes": "PUSH1 0x80 PUSH1 0x40 MSTORE PUSH8 0x16345785D8A0000 PUSH1 0x8 SSTORE CALLVALUE DUP1 ISZERO PUSH3 0x1D JUMPI PUSH1 0x0 DUP1 REVERT JUMPDEST POP PUSH1 0x40 MLOAD DUP1 PUSH1 0x40 ADD PUSH1 0x40 MSTORE DUP1 PUSH1 0x6 DUP2 MSTORE PUSH1 0x20 ADD PUSH32 0x5275706565730000000000000000000000000000000000000000000000000000 DUP2 MSTORE POP PUSH1 0x40 MLOAD DUP1 PUSH1 0x40 ADD PUSH1 0x40 MSTORE DUP1 PUSH1 0x2 DUP2 MSTORE PUSH1 0x20 ADD PUSH32 0x5273000000000000000000000000000000000000000000000000000000000000 DUP2 MSTORE POP DUP2 PUSH1 0x0 SWAP1 DUP2 PUSH3 0x9B SWAP2 SWAP1 PUSH3 0x41E JUMP JUMPDEST POP DUP1 PUSH1 0x1 SWAP1 DUP2 PUSH3 0xAD SWAP2 SWAP1 PUSH3 0x41E JUMP JUMPDEST POP POP POP PUSH3 0xD0 PUSH3 0xC4 PUSH3 0xD6 PUSH1 0x20 SHL PUSH1 0x20 SHR JUMP JUMPDEST PUSH3 0xDE PUSH1 0x20 SHL PUSH1 0x20 SHR JUMP JUMPDEST PUSH3 0x505 JUMP JUMPDEST PUSH1 0x0 CALLER SWAP1 POP SWAP1 JUMP JUMPDEST PUSH1 0x0 PUSH1 0x6 PUSH1 0x0 SWAP1 SLOAD SWAP1 PUSH2 0x100 EXP SWAP1 DIV PUSH20 0xFFFFFFFFFFFFFFFFFFFFFFFFFFFFFFFFFFFFFFFF AND SWAP1 POP DUP2 PUSH1 0x6 PUSH1 0x0 PUSH2 0x100 EXP DUP2 SLOAD DUP2 PUSH20 0xFFFFFFFFFFFFFFFFFFFFFFFFFFFFFFFFFFFFFFFF MUL NOT AND SWAP1 DUP4 PUSH20 0xFFFFFFFFFFFFFFFFFFFFFFFFFFFFFFFFFFFFFFFF AND MUL OR SWAP1 SSTORE POP DUP2 PUSH20 0xFFFFFFFFFFFFFFFFFFFFFFFFFFFFFFFFFFFFFFFF AND DUP2 PUSH20 0xFFFFFFFFFFFFFFFFFFFFFFFFFFFFFFFFFFFFFFFF AND PUSH32 0x8BE0079C531659141344CD1FD0A4F28419497F9722A3DAAFE3B4186F6B6457E0 PUSH1 0x40 MLOAD PUSH1 0x40 MLOAD DUP1 SWAP2 SUB SWAP1 LOG3 POP POP JUMP JUMPDEST PUSH1 0x0 DUP2 MLOAD SWAP1 POP SWAP2 SWAP1 POP JUMP JUMPDEST PUSH32 0x4E487B7100000000000000000000000000000000000000000000000000000000 PUSH1 0x0 MSTORE PUSH1 0x41 PUSH1 0x4 MSTORE PUSH1 0x24 PUSH1 0x0 REVERT JUMPDEST PUSH32 0x4E487B7100000000000000000000000000000000000000000000000000000000 PUSH1 0x0 MSTORE PUSH1 0x22 PUSH1 0x4 MSTORE PUSH1 0x24 PUSH1 0x0 REVERT JUMPDEST PUSH1 0x0 PUSH1 0x2 DUP3 DIV SWAP1 POP PUSH1 0x1 DUP3 AND DUP1 PUSH3 0x226 JUMPI PUSH1 0x7F DUP3 AND SWAP2 POP JUMPDEST PUSH1 0x20 DUP3 LT DUP2 SUB PUSH3 0x23C JUMPI PUSH3 0x23B PUSH3 0x1DE JUMP JUMPDEST JUMPDEST POP SWAP2 SWAP1 POP JUMP JUMPDEST PUSH1 0x0 DUP2 SWAP1 POP DUP2 PUSH1 0x0 MSTORE PUSH1 0x20 PUSH1 0x0 KECCAK256 SWAP1 POP SWAP2 SWAP1 POP JUMP JUMPDEST PUSH1 0x0 PUSH1 0x20 PUSH1 0x1F DUP4 ADD DIV SWAP1 POP SWAP2 SWAP1 POP JUMP JUMPDEST PUSH1 0x0 DUP3 DUP3 SHL SWAP1 POP SWAP3 SWAP2 POP POP JUMP JUMPDEST PUSH1 0x0 PUSH1 0x8 DUP4 MUL PUSH3 0x2A6 PUSH32 0xFFFFFFFFFFFFFFFFFFFFFFFFFFFFFFFFFFFFFFFFFFFFFFFFFFFFFFFFFFFFFFFF DUP3 PUSH3 0x267 JUMP JUMPDEST PUSH3 0x2B2 DUP7 DUP4 PUSH3 0x267 JUMP JUMPDEST SWAP6 POP DUP1 NOT DUP5 AND SWAP4 POP DUP1 DUP7 AND DUP5 OR SWAP3 POP POP POP SWAP4 SWAP3 POP POP POP JUMP JUMPDEST PUSH1 0x0 DUP2 SWAP1 POP SWAP2 SWAP1 POP JUMP JUMPDEST PUSH1 0x0 DUP2 SWAP1 POP SWAP2 SWAP1 POP JUMP JUMPDEST PUSH1 0x0 PUSH3 0x2FF PUSH3 0x2F9 PUSH3 0x2F3 DUP5 PUSH3 0x2CA JUMP JUMPDEST PUSH3 0x2D4 JUMP JUMPDEST PUSH3 0x2CA JUMP JUMPDEST SWAP1 POP SWAP2 SWAP1 POP JUMP JUMPDEST PUSH1 0x0 DUP2 SWAP1 POP SWAP2 SWAP1 POP JUMP JUMPDEST PUSH3 0x31B DUP4 PUSH3 0x2DE JUMP JUMPDEST PUSH3 0x333 PUSH3 0x32A DUP3 PUSH3 0x306 JUMP JUMPDEST DUP5 DUP5 SLOAD PUSH3 0x274 JUMP JUMPDEST DUP3 SSTORE POP POP POP POP JUMP JUMPDEST PUSH1 0x0 SWAP1 JUMP JUMPDEST PUSH3 0x34A PUSH3 0x33B JUMP JUMPDEST PUSH3 0x357 DUP2 DUP5 DUP5 PUSH3 0x310 JUMP JUMPDEST POP POP POP JUMP JUMPDEST JUMPDEST DUP2 DUP2 LT ISZERO PUSH3 0x37F JUMPI PUSH3 0x373 PUSH1 0x0 DUP3 PUSH3 0x340 JUMP JUMPDEST PUSH1 0x1 DUP2 ADD SWAP1 POP PUSH3 0x35D JUMP JUMPDEST POP POP JUMP JUMPDEST PUSH1 0x1F DUP3 GT ISZERO PUSH3 0x3CE JUMPI PUSH3 0x398 DUP2 PUSH3 0x242 JUMP JUMPDEST PUSH3 0x3A3 DUP5 PUSH3 0x257 JUMP JUMPDEST DUP2 ADD PUSH1 0x20 DUP6 LT ISZERO PUSH3 0x3B3 JUMPI DUP2 SWAP1 POP JUMPDEST PUSH3 0x3CB PUSH3 0x3C2 DUP6 PUSH3 0x257 JUMP JUMPDEST DUP4 ADD DUP3 PUSH3 0x35C JUMP JUMPDEST POP POP JUMPDEST POP POP POP JUMP JUMPDEST PUSH1 0x0 DUP3 DUP3 SHR SWAP1 POP SWAP3 SWAP2 POP POP JUMP JUMPDEST PUSH1 0x0 PUSH3 0x3F3 PUSH1 0x0 NOT DUP5 PUSH1 0x8 MUL PUSH3 0x3D3 JUMP JUMPDEST NOT DUP1 DUP4 AND SWAP2 POP POP SWAP3 SWAP2 POP POP JUMP JUMPDEST PUSH1 0x0 PUSH3 0x40E DUP4 DUP4 PUSH3 0x3E0 JUMP JUMPDEST SWAP2 POP DUP3 PUSH1 0x2 MUL DUP3 OR SWAP1 POP SWAP3 SWAP2 POP POP JUMP JUMPDEST PUSH3 0x429 DUP3 PUSH3 0x1A4 JUMP JUMPDEST PUSH8 0xFFFFFFFFFFFFFFFF DUP2 GT ISZERO PUSH3 0x445 JUMPI PUSH3 0x444 PUSH3 0x1AF JUMP JUMPDEST JUMPDEST PUSH3 0x451 DUP3 SLOAD PUSH3 0x20D JUMP JUMPDEST PUSH3 0x45E DUP3 DUP3 DUP6 PUSH3 0x383 JUMP JUMPDEST PUSH1 0x0 PUSH1 0x20 SWAP1 POP PUSH1 0x1F DUP4 GT PUSH1 0x1 DUP2 EQ PUSH3 0x496 JUMPI PUSH1 0x0 DUP5 ISZERO PUSH3 0x481 JUMPI DUP3 DUP8 ADD MLOAD SWAP1 POP JUMPDEST PUSH3 0x48D DUP6 DUP3 PUSH3 0x400 JUMP JUMPDEST DUP7 SSTORE POP PUSH3 0x4FD JUMP JUMPDEST PUSH1 0x1F NOT DUP5 AND PUSH3 0x4A6 DUP7 PUSH3 0x242 JUMP JUMPDEST PUSH1 0x0 JUMPDEST DUP3 DUP2 LT ISZERO PUSH3 0x4D0 JUMPI DUP5 DUP10 ADD MLOAD DUP3 SSTORE PUSH1 0x1 DUP3 ADD SWAP2 POP PUSH1 0x20 DUP6 ADD SWAP5 POP PUSH1 0x20 DUP2 ADD SWAP1 POP PUSH3 0x4A9 JUMP JUMPDEST DUP7 DUP4 LT ISZERO PUSH3 0x4F0 JUMPI DUP5 DUP10 ADD MLOAD PUSH3 0x4EC PUSH1 0x1F DUP10 AND DUP3 PUSH3 0x3E0 JUMP JUMPDEST DUP4 SSTORE POP JUMPDEST PUSH1 0x1 PUSH1 0x2 DUP9 MUL ADD DUP9 SSTORE POP POP POP JUMPDEST POP POP POP POP POP POP JUMP JUMPDEST PUSH2 0x2D30 DUP1 PUSH3 0x515 PUSH1 0x0 CODECOPY PUSH1 0x0 RETURN INVALID PUSH1 0x80 PUSH1 0x40 MSTORE PUSH1 0x4 CALLDATASIZE LT PUSH2 0x135 JUMPI PUSH1 0x0 CALLDATALOAD PUSH1 0xE0 SHR DUP1 PUSH4 0x6A61E5FC GT PUSH2 0xAB JUMPI DUP1 PUSH4 0x95D89B41 GT PUSH2 0x6F JUMPI DUP1 PUSH4 0x95D89B41 EQ PUSH2 0x3F1 JUMPI DUP1 PUSH4 0xA22CB465 EQ PUSH2 0x41C JUMPI DUP1 PUSH4 0xB88D4FDE EQ PUSH2 0x445 JUMPI DUP1 PUSH4 0xC87B56DD EQ PUSH2 0x46E JUMPI DUP1 PUSH4 0xE985E9C5 EQ PUSH2 0x4AB JUMPI DUP1 PUSH4 0xF2FDE38B EQ PUSH2 0x4E8 JUMPI PUSH2 0x135 JUMP JUMPDEST DUP1 PUSH4 0x6A61E5FC EQ PUSH2 0x31E JUMPI DUP1 PUSH4 0x70A08231 EQ PUSH2 0x347 JUMPI DUP1 PUSH4 0x715018A6 EQ PUSH2 0x384 JUMPI DUP1 PUSH4 0x7FF9B596 EQ PUSH2 0x39B JUMPI DUP1 PUSH4 0x8DA5CB5B EQ PUSH2 0x3C6 JUMPI PUSH2 0x135 JUMP JUMPDEST DUP1 PUSH4 0x23B872DD GT PUSH2 0xFD JUMPI DUP1 PUSH4 0x23B872DD EQ PUSH2 0x212 JUMPI DUP1 PUSH4 0x2890E0D7 EQ PUSH2 0x23B JUMPI DUP1 PUSH4 0x42842E0E EQ PUSH2 0x264 JUMPI DUP1 PUSH4 0x4903B0D1 EQ PUSH2 0x28D JUMPI DUP1 PUSH4 0x5FD8C710 EQ PUSH2 0x2CA JUMPI DUP1 PUSH4 0x6352211E EQ PUSH2 0x2E1 JUMPI PUSH2 0x135 JUMP JUMPDEST DUP1 PUSH4 0x1FFC9A7 EQ PUSH2 0x13A JUMPI DUP1 PUSH4 0x6FDDE03 EQ PUSH2 0x177 JUMPI DUP1 PUSH4 0x81812FC EQ PUSH2 0x1A2 JUMPI DUP1 PUSH4 0x95EA7B3 EQ PUSH2 0x1DF JUMPI DUP1 PUSH4 0x14F710FE EQ PUSH2 0x208 JUMPI JUMPDEST PUSH1 0x0 DUP1 REVERT JUMPDEST CALLVALUE DUP1 ISZERO PUSH2 0x146 JUMPI PUSH1 0x0 DUP1 REVERT JUMPDEST POP PUSH2 0x161 PUSH1 0x4 DUP1 CALLDATASIZE SUB DUP2 ADD SWAP1 PUSH2 0x15C SWAP2 SWAP1 PUSH2 0x1E56 JUMP JUMPDEST PUSH2 0x511 JUMP JUMPDEST PUSH1 0x40 MLOAD PUSH2 0x16E SWAP2 SWAP1 PUSH2 0x1E9E JUMP JUMPDEST PUSH1 0x40 MLOAD DUP1 SWAP2 SUB SWAP1 RETURN JUMPDEST CALLVALUE DUP1 ISZERO PUSH2 0x183 JUMPI PUSH1 0x0 DUP1 REVERT JUMPDEST POP PUSH2 0x18C PUSH2 0x5F3 JUMP JUMPDEST PUSH1 0x40 MLOAD PUSH2 0x199 SWAP2 SWAP1 PUSH2 0x1F49 JUMP JUMPDEST PUSH1 0x40 MLOAD DUP1 SWAP2 SUB SWAP1 RETURN JUMPDEST CALLVALUE DUP1 ISZERO PUSH2 0x1AE JUMPI PUSH1 0x0 DUP1 REVERT JUMPDEST POP PUSH2 0x1C9 PUSH1 0x4 DUP1 CALLDATASIZE SUB DUP2 ADD SWAP1 PUSH2 0x1C4 SWAP2 SWAP1 PUSH2 0x1FA1 JUMP JUMPDEST PUSH2 0x685 JUMP JUMPDEST PUSH1 0x40 MLOAD PUSH2 0x1D6 SWAP2 SWAP1 PUSH2 0x200F JUMP JUMPDEST PUSH1 0x40 MLOAD DUP1 SWAP2 SUB SWAP1 RETURN JUMPDEST CALLVALUE DUP1 ISZERO PUSH2 0x1EB JUMPI PUSH1 0x0 DUP1 REVERT JUMPDEST POP PUSH2 0x206 PUSH1 0x4 DUP1 CALLDATASIZE SUB DUP2 ADD SWAP1 PUSH2 0x201 SWAP2 SWAP1 PUSH2 0x2056 JUMP JUMPDEST PUSH2 0x6CB JUMP JUMPDEST STOP JUMPDEST PUSH2 0x210 PUSH2 0x7E2 JUMP JUMPDEST STOP JUMPDEST CALLVALUE DUP1 ISZERO PUSH2 0x21E JUMPI PUSH1 0x0 DUP1 REVERT JUMPDEST POP PUSH2 0x239 PUSH1 0x4 DUP1 CALLDATASIZE SUB DUP2 ADD SWAP1 PUSH2 0x234 SWAP2 SWAP1 PUSH2 0x2096 JUMP JUMPDEST PUSH2 0x864 JUMP JUMPDEST STOP JUMPDEST CALLVALUE DUP1 ISZERO PUSH2 0x247 JUMPI PUSH1 0x0 DUP1 REVERT JUMPDEST POP PUSH2 0x262 PUSH1 0x4 DUP1 CALLDATASIZE SUB DUP2 ADD SWAP1 PUSH2 0x25D SWAP2 SWAP1 PUSH2 0x1FA1 JUMP JUMPDEST PUSH2 0x8C4 JUMP JUMPDEST STOP JUMPDEST CALLVALUE DUP1 ISZERO PUSH2 0x270 JUMPI PUSH1 0x0 DUP1 REVERT JUMPDEST POP PUSH2 0x28B PUSH1 0x4 DUP1 CALLDATASIZE SUB DUP2 ADD SWAP1 PUSH2 0x286 SWAP2 SWAP1 PUSH2 0x2096 JUMP JUMPDEST PUSH2 0x8F1 JUMP JUMPDEST STOP JUMPDEST CALLVALUE DUP1 ISZERO PUSH2 0x299 JUMPI PUSH1 0x0 DUP1 REVERT JUMPDEST POP PUSH2 0x2B4 PUSH1 0x4 DUP1 CALLDATASIZE SUB DUP2 ADD SWAP1 PUSH2 0x2AF SWAP2 SWAP1 PUSH2 0x1FA1 JUMP JUMPDEST PUSH2 0x911 JUMP JUMPDEST PUSH1 0x40 MLOAD PUSH2 0x2C1 SWAP2 SWAP1 PUSH2 0x20F8 JUMP JUMPDEST PUSH1 0x40 MLOAD DUP1 SWAP2 SUB SWAP1 RETURN JUMPDEST CALLVALUE DUP1 ISZERO PUSH2 0x2D6 JUMPI PUSH1 0x0 DUP1 REVERT JUMPDEST POP PUSH2 0x2DF PUSH2 0x929 JUMP JUMPDEST STOP JUMPDEST CALLVALUE DUP1 ISZERO PUSH2 0x2ED JUMPI PUSH1 0x0 DUP1 REVERT JUMPDEST POP PUSH2 0x308 PUSH1 0x4 DUP1 CALLDATASIZE SUB DUP2 ADD SWAP1 PUSH2 0x303 SWAP2 SWAP1 PUSH2 0x1FA1 JUMP JUMPDEST PUSH2 0x9C3 JUMP JUMPDEST PUSH1 0x40 MLOAD PUSH2 0x315 SWAP2 SWAP1 PUSH2 0x200F JUMP JUMPDEST PUSH1 0x40 MLOAD DUP1 SWAP2 SUB SWAP1 RETURN JUMPDEST CALLVALUE DUP1 ISZERO PUSH2 0x32A JUMPI PUSH1 0x0 DUP1 REVERT JUMPDEST POP PUSH2 0x345 PUSH1 0x4 DUP1 CALLDATASIZE SUB DUP2 ADD SWAP1 PUSH2 0x340 SWAP2 SWAP1 PUSH2 0x1FA1 JUMP JUMPDEST PUSH2 0xA49 JUMP JUMPDEST STOP JUMPDEST CALLVALUE DUP1 ISZERO PUSH2 0x353 JUMPI PUSH1 0x0 DUP1 REVERT JUMPDEST POP PUSH2 0x36E PUSH1 0x4 DUP1 CALLDATASIZE SUB DUP2 ADD SWAP1 PUSH2 0x369 SWAP2 SWAP1 PUSH2 0x2113 JUMP JUMPDEST PUSH2 0xA5B JUMP JUMPDEST PUSH1 0x40 MLOAD PUSH2 0x37B SWAP2 SWAP1 PUSH2 0x20F8 JUMP JUMPDEST PUSH1 0x40 MLOAD DUP1 SWAP2 SUB SWAP1 RETURN JUMPDEST CALLVALUE DUP1 ISZERO PUSH2 0x390 JUMPI PUSH1 0x0 DUP1 REVERT JUMPDEST POP PUSH2 0x399 PUSH2 0xB12 JUMP JUMPDEST STOP JUMPDEST CALLVALUE DUP1 ISZERO PUSH2 0x3A7 JUMPI PUSH1 0x0 DUP1 REVERT JUMPDEST POP PUSH2 0x3B0 PUSH2 0xB26 JUMP JUMPDEST PUSH1 0x40 MLOAD PUSH2 0x3BD SWAP2 SWAP1 PUSH2 0x20F8 JUMP JUMPDEST PUSH1 0x40 MLOAD DUP1 SWAP2 SUB SWAP1 RETURN JUMPDEST CALLVALUE DUP1 ISZERO PUSH2 0x3D2 JUMPI PUSH1 0x0 DUP1 REVERT JUMPDEST POP PUSH2 0x3DB PUSH2 0xB2C JUMP JUMPDEST PUSH1 0x40 MLOAD PUSH2 0x3E8 SWAP2 SWAP1 PUSH2 0x200F JUMP JUMPDEST PUSH1 0x40 MLOAD DUP1 SWAP2 SUB SWAP1 RETURN JUMPDEST CALLVALUE DUP1 ISZERO PUSH2 0x3FD JUMPI PUSH1 0x0 DUP1 REVERT JUMPDEST POP PUSH2 0x406 PUSH2 0xB56 JUMP JUMPDEST PUSH1 0x40 MLOAD PUSH2 0x413 SWAP2 SWAP1 PUSH2 0x1F49 JUMP JUMPDEST PUSH1 0x40 MLOAD DUP1 SWAP2 SUB SWAP1 RETURN JUMPDEST CALLVALUE DUP1 ISZERO PUSH2 0x428 JUMPI PUSH1 0x0 DUP1 REVERT JUMPDEST POP PUSH2 0x443 PUSH1 0x4 DUP1 CALLDATASIZE SUB DUP2 ADD SWAP1 PUSH2 0x43E SWAP2 SWAP1 PUSH2 0x216C JUMP JUMPDEST PUSH2 0xBE8 JUMP JUMPDEST STOP JUMPDEST CALLVALUE DUP1 ISZERO PUSH2 0x451 JUMPI PUSH1 0x0 DUP1 REVERT JUMPDEST POP PUSH2 0x46C PUSH1 0x4 DUP1 CALLDATASIZE SUB DUP2 ADD SWAP1 PUSH2 0x467 SWAP2 SWAP1 PUSH2 0x22E1 JUMP JUMPDEST PUSH2 0xBFE JUMP JUMPDEST STOP JUMPDEST CALLVALUE DUP1 ISZERO PUSH2 0x47A JUMPI PUSH1 0x0 DUP1 REVERT JUMPDEST POP PUSH2 0x495 PUSH1 0x4 DUP1 CALLDATASIZE SUB DUP2 ADD SWAP1 PUSH2 0x490 SWAP2 SWAP1 PUSH2 0x1FA1 JUMP JUMPDEST PUSH2 0xC60 JUMP JUMPDEST PUSH1 0x40 MLOAD PUSH2 0x4A2 SWAP2 SWAP1 PUSH2 0x1F49 JUMP JUMPDEST PUSH1 0x40 MLOAD DUP1 SWAP2 SUB SWAP1 RETURN JUMPDEST CALLVALUE DUP1 ISZERO PUSH2 0x4B7 JUMPI PUSH1 0x0 DUP1 REVERT JUMPDEST POP PUSH2 0x4D2 PUSH1 0x4 DUP1 CALLDATASIZE SUB DUP2 ADD SWAP1 PUSH2 0x4CD SWAP2 SWAP1 PUSH2 0x2364 JUMP JUMPDEST PUSH2 0xCC8 JUMP JUMPDEST PUSH1 0x40 MLOAD PUSH2 0x4DF SWAP2 SWAP1 PUSH2 0x1E9E JUMP JUMPDEST PUSH1 0x40 MLOAD DUP1 SWAP2 SUB SWAP1 RETURN JUMPDEST CALLVALUE DUP1 ISZERO PUSH2 0x4F4 JUMPI PUSH1 0x0 DUP1 REVERT JUMPDEST POP PUSH2 0x50F PUSH1 0x4 DUP1 CALLDATASIZE SUB DUP2 ADD SWAP1 PUSH2 0x50A SWAP2 SWAP1 PUSH2 0x2113 JUMP JUMPDEST PUSH2 0xD5C JUMP JUMPDEST STOP JUMPDEST PUSH1 0x0 PUSH32 0x80AC58CD00000000000000000000000000000000000000000000000000000000 PUSH28 0xFFFFFFFFFFFFFFFFFFFFFFFFFFFFFFFFFFFFFFFFFFFFFFFFFFFFFFFF NOT AND DUP3 PUSH28 0xFFFFFFFFFFFFFFFFFFFFFFFFFFFFFFFFFFFFFFFFFFFFFFFFFFFFFFFF NOT AND EQ DUP1 PUSH2 0x5DC JUMPI POP PUSH32 0x5B5E139F00000000000000000000000000000000000000000000000000000000 PUSH28 0xFFFFFFFFFFFFFFFFFFFFFFFFFFFFFFFFFFFFFFFFFFFFFFFFFFFFFFFF NOT AND DUP3 PUSH28 0xFFFFFFFFFFFFFFFFFFFFFFFFFFFFFFFFFFFFFFFFFFFFFFFFFFFFFFFF NOT AND EQ JUMPDEST DUP1 PUSH2 0x5EC JUMPI POP PUSH2 0x5EB DUP3 PUSH2 0xDDF JUMP JUMPDEST JUMPDEST SWAP1 POP SWAP2 SWAP1 POP JUMP JUMPDEST PUSH1 0x60 PUSH1 0x0 DUP1 SLOAD PUSH2 0x602 SWAP1 PUSH2 0x23D3 JUMP JUMPDEST DUP1 PUSH1 0x1F ADD PUSH1 0x20 DUP1 SWAP2 DIV MUL PUSH1 0x20 ADD PUSH1 0x40 MLOAD SWAP1 DUP2 ADD PUSH1 0x40 MSTORE DUP1 SWAP3 SWAP2 SWAP1 DUP2 DUP2 MSTORE PUSH1 0x20 ADD DUP3 DUP1 SLOAD PUSH2 0x62E SWAP1 PUSH2 0x23D3 JUMP JUMPDEST DUP1 ISZERO PUSH2 0x67B JUMPI DUP1 PUSH1 0x1F LT PUSH2 0x650 JUMPI PUSH2 0x100 DUP1 DUP4 SLOAD DIV MUL DUP4 MSTORE SWAP2 PUSH1 0x20 ADD SWAP2 PUSH2 0x67B JUMP JUMPDEST DUP3 ADD SWAP2 SWAP1 PUSH1 0x0 MSTORE PUSH1 0x20 PUSH1 0x0 KECCAK256 SWAP1 JUMPDEST DUP2 SLOAD DUP2 MSTORE SWAP1 PUSH1 0x1 ADD SWAP1 PUSH1 0x20 ADD DUP1 DUP4 GT PUSH2 0x65E JUMPI DUP3 SWAP1 SUB PUSH1 0x1F AND DUP3 ADD SWAP2 JUMPDEST POP POP POP POP POP SWAP1 POP SWAP1 JUMP JUMPDEST PUSH1 0x0 PUSH2 0x690 DUP3 PUSH2 0xE49 JUMP JUMPDEST PUSH1 0x4 PUSH1 0x0 DUP4 DUP2 MSTORE PUSH1 0x20 ADD SWAP1 DUP2 MSTORE PUSH1 0x20 ADD PUSH1 0x0 KECCAK256 PUSH1 0x0 SWAP1 SLOAD SWAP1 PUSH2 0x100 EXP SWAP1 DIV PUSH20 0xFFFFFFFFFFFFFFFFFFFFFFFFFFFFFFFFFFFFFFFF AND SWAP1 POP SWAP2 SWAP1 POP JUMP JUMPDEST PUSH1 0x0 PUSH2 0x6D6 DUP3 PUSH2 0x9C3 JUMP JUMPDEST SWAP1 POP DUP1 PUSH20 0xFFFFFFFFFFFFFFFFFFFFFFFFFFFFFFFFFFFFFFFF AND DUP4 PUSH20 0xFFFFFFFFFFFFFFFFFFFFFFFFFFFFFFFFFFFFFFFF AND SUB PUSH2 0x746 JUMPI PUSH1 0x40 MLOAD PUSH32 0x8C379A000000000000000000000000000000000000000000000000000000000 DUP2 MSTORE PUSH1 0x4 ADD PUSH2 0x73D SWAP1 PUSH2 0x2476 JUMP JUMPDEST PUSH1 0x40 MLOAD DUP1 SWAP2 SUB SWAP1 REVERT JUMPDEST DUP1 PUSH20 0xFFFFFFFFFFFFFFFFFFFFFFFFFFFFFFFFFFFFFFFF AND PUSH2 0x765 PUSH2 0xE94 JUMP JUMPDEST PUSH20 0xFFFFFFFFFFFFFFFFFFFFFFFFFFFFFFFFFFFFFFFF AND EQ DUP1 PUSH2 0x794 JUMPI POP PUSH2 0x793 DUP2 PUSH2 0x78E PUSH2 0xE94 JUMP JUMPDEST PUSH2 0xCC8 JUMP JUMPDEST JUMPDEST PUSH2 0x7D3 JUMPI PUSH1 0x40 MLOAD PUSH32 0x8C379A000000000000000000000000000000000000000000000000000000000 DUP2 MSTORE PUSH1 0x4 ADD PUSH2 0x7CA SWAP1 PUSH2 0x2508 JUMP JUMPDEST PUSH1 0x40 MLOAD DUP1 SWAP2 SUB SWAP1 REVERT JUMPDEST PUSH2 0x7DD DUP4 DUP4 PUSH2 0xE9C JUMP JUMPDEST POP POP POP JUMP JUMPDEST PUSH1 0x8 SLOAD CALLVALUE LT ISZERO PUSH2 0x827 JUMPI PUSH1 0x40 MLOAD PUSH32 0x8C379A000000000000000000000000000000000000000000000000000000000 DUP2 MSTORE PUSH1 0x4 ADD PUSH2 0x81E SWAP1 PUSH2 0x2574 JUMP JUMPDEST PUSH1 0x40 MLOAD DUP1 SWAP2 SUB SWAP1 REVERT JUMPDEST PUSH2 0x831 PUSH1 0x7 PUSH2 0xF55 JUMP JUMPDEST PUSH1 0x0 PUSH2 0x83D PUSH1 0x7 PUSH2 0xF6B JUMP JUMPDEST SWAP1 POP PUSH2 0x849 CALLER DUP3 PUSH2 0xF79 JUMP JUMPDEST CALLVALUE PUSH1 0x9 PUSH1 0x0 DUP4 DUP2 MSTORE PUSH1 0x20 ADD SWAP1 DUP2 MSTORE PUSH1 0x20 ADD PUSH1 0x0 KECCAK256 DUP2 SWAP1 SSTORE POP POP JUMP JUMPDEST PUSH2 0x875 PUSH2 0x86F PUSH2 0xE94 JUMP JUMPDEST DUP3 PUSH2 0x1196 JUMP JUMPDEST PUSH2 0x8B4 JUMPI PUSH1 0x40 MLOAD PUSH32 0x8C379A000000000000000000000000000000000000000000000000000000000 DUP2 MSTORE PUSH1 0x4 ADD PUSH2 0x8AB SWAP1 PUSH2 0x2606 JUMP JUMPDEST PUSH1 0x40 MLOAD DUP1 SWAP2 SUB SWAP1 REVERT JUMPDEST PUSH2 0x8BF DUP4 DUP4 DUP4 PUSH2 0x122B JUMP JUMPDEST POP POP POP JUMP JUMPDEST PUSH2 0x8CC PUSH2 0x1524 JUMP JUMPDEST PUSH2 0x8D5 DUP2 PUSH2 0x15A2 JUMP JUMPDEST PUSH1 0x0 PUSH1 0x9 PUSH1 0x0 DUP4 DUP2 MSTORE PUSH1 0x20 ADD SWAP1 DUP2 MSTORE PUSH1 0x20 ADD PUSH1 0x0 KECCAK256 DUP2 SWAP1 SSTORE POP POP JUMP JUMPDEST PUSH2 0x90C DUP4 DUP4 DUP4 PUSH1 0x40 MLOAD DUP1 PUSH1 0x20 ADD PUSH1 0x40 MSTORE DUP1 PUSH1 0x0 DUP2 MSTORE POP PUSH2 0xBFE JUMP JUMPDEST POP POP POP JUMP JUMPDEST PUSH1 0x9 PUSH1 0x20 MSTORE DUP1 PUSH1 0x0 MSTORE PUSH1 0x40 PUSH1 0x0 KECCAK256 PUSH1 0x0 SWAP2 POP SWAP1 POP SLOAD DUP2 JUMP JUMPDEST PUSH2 0x931 PUSH2 0x1524 JUMP JUMPDEST PUSH1 0x0 SELFBALANCE SWAP1 POP PUSH1 0x0 DUP2 GT PUSH2 0x979 JUMPI PUSH1 0x40 MLOAD PUSH32 0x8C379A000000000000000000000000000000000000000000000000000000000 DUP2 MSTORE PUSH1 0x4 ADD PUSH2 0x970 SWAP1 PUSH2 0x2672 JUMP JUMPDEST PUSH1 0x40 MLOAD DUP1 SWAP2 SUB SWAP1 REVERT JUMPDEST CALLER PUSH20 0xFFFFFFFFFFFFFFFFFFFFFFFFFFFFFFFFFFFFFFFF AND PUSH2 0x8FC DUP3 SWAP1 DUP2 ISZERO MUL SWAP1 PUSH1 0x40 MLOAD PUSH1 0x0 PUSH1 0x40 MLOAD DUP1 DUP4 SUB DUP2 DUP6 DUP9 DUP9 CALL SWAP4 POP POP POP POP ISZERO DUP1 ISZERO PUSH2 0x9BF JUMPI RETURNDATASIZE PUSH1 0x0 DUP1 RETURNDATACOPY RETURNDATASIZE PUSH1 0x0 REVERT JUMPDEST POP POP JUMP JUMPDEST PUSH1 0x0 DUP1 PUSH2 0x9CF DUP4 PUSH2 0x16F0 JUMP JUMPDEST SWAP1 POP PUSH1 0x0 PUSH20 0xFFFFFFFFFFFFFFFFFFFFFFFFFFFFFFFFFFFFFFFF AND DUP2 PUSH20 0xFFFFFFFFFFFFFFFFFFFFFFFFFFFFFFFFFFFFFFFF AND SUB PUSH2 0xA40 JUMPI PUSH1 0x40 MLOAD PUSH32 0x8C379A000000000000000000000000000000000000000000000000000000000 DUP2 MSTORE PUSH1 0x4 ADD PUSH2 0xA37 SWAP1 PUSH2 0x26DE JUMP JUMPDEST PUSH1 0x40 MLOAD DUP1 SWAP2 SUB SWAP1 REVERT JUMPDEST DUP1 SWAP2 POP POP SWAP2 SWAP1 POP JUMP JUMPDEST PUSH2 0xA51 PUSH2 0x1524 JUMP JUMPDEST DUP1 PUSH1 0x8 DUP2 SWAP1 SSTORE POP POP JUMP JUMPDEST PUSH1 0x0 DUP1 PUSH20 0xFFFFFFFFFFFFFFFFFFFFFFFFFFFFFFFFFFFFFFFF AND DUP3 PUSH20 0xFFFFFFFFFFFFFFFFFFFFFFFFFFFFFFFFFFFFFFFF AND SUB PUSH2 0xACB JUMPI PUSH1 0x40 MLOAD PUSH32 0x8C379A000000000000000000000000000000000000000000000000000000000 DUP2 MSTORE PUSH1 0x4 ADD PUSH2 0xAC2 SWAP1 PUSH2 0x2770 JUMP JUMPDEST PUSH1 0x40 MLOAD DUP1 SWAP2 SUB SWAP1 REVERT JUMPDEST PUSH1 0x3 PUSH1 0x0 DUP4 PUSH20 0xFFFFFFFFFFFFFFFFFFFFFFFFFFFFFFFFFFFFFFFF AND PUSH20 0xFFFFFFFFFFFFFFFFFFFFFFFFFFFFFFFFFFFFFFFF AND DUP2 MSTORE PUSH1 0x20 ADD SWAP1 DUP2 MSTORE PUSH1 0x20 ADD PUSH1 0x0 KECCAK256 SLOAD SWAP1 POP SWAP2 SWAP1 POP JUMP JUMPDEST PUSH2 0xB1A PUSH2 0x1524 JUMP JUMPDEST PUSH2 0xB24 PUSH1 0x0 PUSH2 0x172D JUMP JUMPDEST JUMP JUMPDEST PUSH1 0x8 SLOAD DUP2 JUMP JUMPDEST PUSH1 0x0 PUSH1 0x6 PUSH1 0x0 SWAP1 SLOAD SWAP1 PUSH2 0x100 EXP SWAP1 DIV PUSH20 0xFFFFFFFFFFFFFFFFFFFFFFFFFFFFFFFFFFFFFFFF AND SWAP1 POP SWAP1 JUMP JUMPDEST PUSH1 0x60 PUSH1 0x1 DUP1 SLOAD PUSH2 0xB65 SWAP1 PUSH2 0x23D3 JUMP JUMPDEST DUP1 PUSH1 0x1F ADD PUSH1 0x20 DUP1 SWAP2 DIV MUL PUSH1 0x20 ADD PUSH1 0x40 MLOAD SWAP1 DUP2 ADD PUSH1 0x40 MSTORE DUP1 SWAP3 SWAP2 SWAP1 DUP2 DUP2 MSTORE PUSH1 0x20 ADD DUP3 DUP1 SLOAD PUSH2 0xB91 SWAP1 PUSH2 0x23D3 JUMP JUMPDEST DUP1 ISZERO PUSH2 0xBDE JUMPI DUP1 PUSH1 0x1F LT PUSH2 0xBB3 JUMPI PUSH2 0x100 DUP1 DUP4 SLOAD DIV MUL DUP4 MSTORE SWAP2 PUSH1 0x20 ADD SWAP2 PUSH2 0xBDE JUMP JUMPDEST DUP3 ADD SWAP2 SWAP1 PUSH1 0x0 MSTORE PUSH1 0x20 PUSH1 0x0 KECCAK256 SWAP1 JUMPDEST DUP2 SLOAD DUP2 MSTORE SWAP1 PUSH1 0x1 ADD SWAP1 PUSH1 0x20 ADD DUP1 DUP4 GT PUSH2 0xBC1 JUMPI DUP3 SWAP1 SUB PUSH1 0x1F AND DUP3 ADD SWAP2 JUMPDEST POP POP POP POP POP SWAP1 POP SWAP1 JUMP JUMPDEST PUSH2 0xBFA PUSH2 0xBF3 PUSH2 0xE94 JUMP JUMPDEST DUP4 DUP4 PUSH2 0x17F3 JUMP JUMPDEST POP POP JUMP JUMPDEST PUSH2 0xC0F PUSH2 0xC09 PUSH2 0xE94 JUMP JUMPDEST DUP4 PUSH2 0x1196 JUMP JUMPDEST PUSH2 0xC4E JUMPI PUSH1 0x40 MLOAD PUSH32 0x8C379A000000000000000000000000000000000000000000000000000000000 DUP2 MSTORE PUSH1 0x4 ADD PUSH2 0xC45 SWAP1 PUSH2 0x2606 JUMP JUMPDEST PUSH1 0x40 MLOAD DUP1 SWAP2 SUB SWAP1 REVERT JUMPDEST PUSH2 0xC5A DUP5 DUP5 DUP5 DUP5 PUSH2 0x195F JUMP JUMPDEST POP POP POP POP JUMP JUMPDEST PUSH1 0x60 PUSH2 0xC6B DUP3 PUSH2 0xE49 JUMP JUMPDEST PUSH1 0x0 PUSH2 0xC75 PUSH2 0x19BB JUMP JUMPDEST SWAP1 POP PUSH1 0x0 DUP2 MLOAD GT PUSH2 0xC95 JUMPI PUSH1 0x40 MLOAD DUP1 PUSH1 0x20 ADD PUSH1 0x40 MSTORE DUP1 PUSH1 0x0 DUP2 MSTORE POP PUSH2 0xCC0 JUMP JUMPDEST DUP1 PUSH2 0xC9F DUP5 PUSH2 0x19D2 JUMP JUMPDEST PUSH1 0x40 MLOAD PUSH1 0x20 ADD PUSH2 0xCB0 SWAP3 SWAP2 SWAP1 PUSH2 0x27CC JUMP JUMPDEST PUSH1 0x40 MLOAD PUSH1 0x20 DUP2 DUP4 SUB SUB DUP2 MSTORE SWAP1 PUSH1 0x40 MSTORE JUMPDEST SWAP2 POP POP SWAP2 SWAP1 POP JUMP JUMPDEST PUSH1 0x0 PUSH1 0x5 PUSH1 0x0 DUP5 PUSH20 0xFFFFFFFFFFFFFFFFFFFFFFFFFFFFFFFFFFFFFFFF AND PUSH20 0xFFFFFFFFFFFFFFFFFFFFFFFFFFFFFFFFFFFFFFFF AND DUP2 MSTORE PUSH1 0x20 ADD SWAP1 DUP2 MSTORE PUSH1 0x20 ADD PUSH1 0x0 KECCAK256 PUSH1 0x0 DUP4 PUSH20 0xFFFFFFFFFFFFFFFFFFFFFFFFFFFFFFFFFFFFFFFF AND PUSH20 0xFFFFFFFFFFFFFFFFFFFFFFFFFFFFFFFFFFFFFFFF AND DUP2 MSTORE PUSH1 0x20 ADD SWAP1 DUP2 MSTORE PUSH1 0x20 ADD PUSH1 0x0 KECCAK256 PUSH1 0x0 SWAP1 SLOAD SWAP1 PUSH2 0x100 EXP SWAP1 DIV PUSH1 0xFF AND SWAP1 POP SWAP3 SWAP2 POP POP JUMP JUMPDEST PUSH2 0xD64 PUSH2 0x1524 JUMP JUMPDEST PUSH1 0x0 PUSH20 0xFFFFFFFFFFFFFFFFFFFFFFFFFFFFFFFFFFFFFFFF AND DUP2 PUSH20 0xFFFFFFFFFFFFFFFFFFFFFFFFFFFFFFFFFFFFFFFF AND SUB PUSH2 0xDD3 JUMPI PUSH1 0x40 MLOAD PUSH32 0x8C379A000000000000000000000000000000000000000000000000000000000 DUP2 MSTORE PUSH1 0x4 ADD PUSH2 0xDCA SWAP1 PUSH2 0x2862 JUMP JUMPDEST PUSH1 0x40 MLOAD DUP1 SWAP2 SUB SWAP1 REVERT JUMPDEST PUSH2 0xDDC DUP2 PUSH2 0x172D JUMP JUMPDEST POP JUMP JUMPDEST PUSH1 0x0 PUSH32 0x1FFC9A700000000000000000000000000000000000000000000000000000000 PUSH28 0xFFFFFFFFFFFFFFFFFFFFFFFFFFFFFFFFFFFFFFFFFFFFFFFFFFFFFFFF NOT AND DUP3 PUSH28 0xFFFFFFFFFFFFFFFFFFFFFFFFFFFFFFFFFFFFFFFFFFFFFFFFFFFFFFFF NOT AND EQ SWAP1 POP SWAP2 SWAP1 POP JUMP JUMPDEST PUSH2 0xE52 DUP2 PUSH2 0x1AA0 JUMP JUMPDEST PUSH2 0xE91 JUMPI PUSH1 0x40 MLOAD PUSH32 0x8C379A000000000000000000000000000000000000000000000000000000000 DUP2 MSTORE PUSH1 0x4 ADD PUSH2 0xE88 SWAP1 PUSH2 0x26DE JUMP JUMPDEST PUSH1 0x40 MLOAD DUP1 SWAP2 SUB SWAP1 REVERT JUMPDEST POP JUMP JUMPDEST PUSH1 0x0 CALLER SWAP1 POP SWAP1 JUMP JUMPDEST DUP2 PUSH1 0x4 PUSH1 0x0 DUP4 DUP2 MSTORE PUSH1 0x20 ADD SWAP1 DUP2 MSTORE PUSH1 0x20 ADD PUSH1 0x0 KECCAK256 PUSH1 0x0 PUSH2 0x100 EXP DUP2 SLOAD DUP2 PUSH20 0xFFFFFFFFFFFFFFFFFFFFFFFFFFFFFFFFFFFFFFFF MUL NOT AND SWAP1 DUP4 PUSH20 0xFFFFFFFFFFFFFFFFFFFFFFFFFFFFFFFFFFFFFFFF AND MUL OR SWAP1 SSTORE POP DUP1 DUP3 PUSH20 0xFFFFFFFFFFFFFFFFFFFFFFFFFFFFFFFFFFFFFFFF AND PUSH2 0xF0F DUP4 PUSH2 0x9C3 JUMP JUMPDEST PUSH20 0xFFFFFFFFFFFFFFFFFFFFFFFFFFFFFFFFFFFFFFFF AND PUSH32 0x8C5BE1E5EBEC7D5BD14F71427D1E84F3DD0314C0F7B2291E5B200AC8C7C3B925 PUSH1 0x40 MLOAD PUSH1 0x40 MLOAD DUP1 SWAP2 SUB SWAP1 LOG4 POP POP JUMP JUMPDEST PUSH1 0x1 DUP2 PUSH1 0x0 ADD PUSH1 0x0 DUP3 DUP3 SLOAD ADD SWAP3 POP POP DUP2 SWAP1 SSTORE POP POP JUMP JUMPDEST PUSH1 0x0 DUP2 PUSH1 0x0 ADD SLOAD SWAP1 POP SWAP2 SWAP1 POP JUMP JUMPDEST PUSH1 0x0 PUSH20 0xFFFFFFFFFFFFFFFFFFFFFFFFFFFFFFFFFFFFFFFF AND DUP3 PUSH20 0xFFFFFFFFFFFFFFFFFFFFFFFFFFFFFFFFFFFFFFFF AND SUB PUSH2 0xFE8 JUMPI PUSH1 0x40 MLOAD PUSH32 0x8C379A000000000000000000000000000000000000000000000000000000000 DUP2 MSTORE PUSH1 0x4 ADD PUSH2 0xFDF SWAP1 PUSH2 0x28CE JUMP JUMPDEST PUSH1 0x40 MLOAD DUP1 SWAP2 SUB SWAP1 REVERT JUMPDEST PUSH2 0xFF1 DUP2 PUSH2 0x1AA0 JUMP JUMPDEST ISZERO PUSH2 0x1031 JUMPI PUSH1 0x40 MLOAD PUSH32 0x8C379A000000000000000000000000000000000000000000000000000000000 DUP2 MSTORE PUSH1 0x4 ADD PUSH2 0x1028 SWAP1 PUSH2 0x293A JUMP JUMPDEST PUSH1 0x40 MLOAD DUP1 SWAP2 SUB SWAP1 REVERT JUMPDEST PUSH2 0x103F PUSH1 0x0 DUP4 DUP4 PUSH1 0x1 PUSH2 0x1AE1 JUMP JUMPDEST PUSH2 0x1048 DUP2 PUSH2 0x1AA0 JUMP JUMPDEST ISZERO PUSH2 0x1088 JUMPI PUSH1 0x40 MLOAD PUSH32 0x8C379A000000000000000000000000000000000000000000000000000000000 DUP2 MSTORE PUSH1 0x4 ADD PUSH2 0x107F SWAP1 PUSH2 0x293A JUMP JUMPDEST PUSH1 0x40 MLOAD DUP1 SWAP2 SUB SWAP1 REVERT JUMPDEST PUSH1 0x1 PUSH1 0x3 PUSH1 0x0 DUP5 PUSH20 0xFFFFFFFFFFFFFFFFFFFFFFFFFFFFFFFFFFFFFFFF AND PUSH20 0xFFFFFFFFFFFFFFFFFFFFFFFFFFFFFFFFFFFFFFFF AND DUP2 MSTORE PUSH1 0x20 ADD SWAP1 DUP2 MSTORE PUSH1 0x20 ADD PUSH1 0x0 KECCAK256 PUSH1 0x0 DUP3 DUP3 SLOAD ADD SWAP3 POP POP DUP2 SWAP1 SSTORE POP DUP2 PUSH1 0x2 PUSH1 0x0 DUP4 DUP2 MSTORE PUSH1 0x20 ADD SWAP1 DUP2 MSTORE PUSH1 0x20 ADD PUSH1 0x0 KECCAK256 PUSH1 0x0 PUSH2 0x100 EXP DUP2 SLOAD DUP2 PUSH20 0xFFFFFFFFFFFFFFFFFFFFFFFFFFFFFFFFFFFFFFFF MUL NOT AND SWAP1 DUP4 PUSH20 0xFFFFFFFFFFFFFFFFFFFFFFFFFFFFFFFFFFFFFFFF AND MUL OR SWAP1 SSTORE POP DUP1 DUP3 PUSH20 0xFFFFFFFFFFFFFFFFFFFFFFFFFFFFFFFFFFFFFFFF AND PUSH1 0x0 PUSH20 0xFFFFFFFFFFFFFFFFFFFFFFFFFFFFFFFFFFFFFFFF AND PUSH32 0xDDF252AD1BE2C89B69C2B068FC378DAA952BA7F163C4A11628F55A4DF523B3EF PUSH1 0x40 MLOAD PUSH1 0x40 MLOAD DUP1 SWAP2 SUB SWAP1 LOG4 PUSH2 0x1192 PUSH1 0x0 DUP4 DUP4 PUSH1 0x1 PUSH2 0x1AE7 JUMP JUMPDEST POP POP JUMP JUMPDEST PUSH1 0x0 DUP1 PUSH2 0x11A2 DUP4 PUSH2 0x9C3 JUMP JUMPDEST SWAP1 POP DUP1 PUSH20 0xFFFFFFFFFFFFFFFFFFFFFFFFFFFFFFFFFFFFFFFF AND DUP5 PUSH20 0xFFFFFFFFFFFFFFFFFFFFFFFFFFFFFFFFFFFFFFFF AND EQ DUP1 PUSH2 0x11E4 JUMPI POP PUSH2 0x11E3 DUP2 DUP6 PUSH2 0xCC8 JUMP JUMPDEST JUMPDEST DUP1 PUSH2 0x1222 JUMPI POP DUP4 PUSH20 0xFFFFFFFFFFFFFFFFFFFFFFFFFFFFFFFFFFFFFFFF AND PUSH2 0x120A DUP5 PUSH2 0x685 JUMP JUMPDEST PUSH20 0xFFFFFFFFFFFFFFFFFFFFFFFFFFFFFFFFFFFFFFFF AND EQ JUMPDEST SWAP2 POP POP SWAP3 SWAP2 POP POP JUMP JUMPDEST DUP3 PUSH20 0xFFFFFFFFFFFFFFFFFFFFFFFFFFFFFFFFFFFFFFFF AND PUSH2 0x124B DUP3 PUSH2 0x9C3 JUMP JUMPDEST PUSH20 0xFFFFFFFFFFFFFFFFFFFFFFFFFFFFFFFFFFFFFFFF AND EQ PUSH2 0x12A1 JUMPI PUSH1 0x40 MLOAD PUSH32 0x8C379A000000000000000000000000000000000000000000000000000000000 DUP2 MSTORE PUSH1 0x4 ADD PUSH2 0x1298 SWAP1 PUSH2 0x29CC JUMP JUMPDEST PUSH1 0x40 MLOAD DUP1 SWAP2 SUB SWAP1 REVERT JUMPDEST PUSH1 0x0 PUSH20 0xFFFFFFFFFFFFFFFFFFFFFFFFFFFFFFFFFFFFFFFF AND DUP3 PUSH20 0xFFFFFFFFFFFFFFFFFFFFFFFFFFFFFFFFFFFFFFFF AND SUB PUSH2 0x1310 JUMPI PUSH1 0x40 MLOAD PUSH32 0x8C379A000000000000000000000000000000000000000000000000000000000 DUP2 MSTORE PUSH1 0x4 ADD PUSH2 0x1307 SWAP1 PUSH2 0x2A5E JUMP JUMPDEST PUSH1 0x40 MLOAD DUP1 SWAP2 SUB SWAP1 REVERT JUMPDEST PUSH2 0x131D DUP4 DUP4 DUP4 PUSH1 0x1 PUSH2 0x1AE1 JUMP JUMPDEST DUP3 PUSH20 0xFFFFFFFFFFFFFFFFFFFFFFFFFFFFFFFFFFFFFFFF AND PUSH2 0x133D DUP3 PUSH2 0x9C3 JUMP JUMPDEST PUSH20 0xFFFFFFFFFFFFFFFFFFFFFFFFFFFFFFFFFFFFFFFF AND EQ PUSH2 0x1393 JUMPI PUSH1 0x40 MLOAD PUSH32 0x8C379A000000000000000000000000000000000000000000000000000000000 DUP2 MSTORE PUSH1 0x4 ADD PUSH2 0x138A SWAP1 PUSH2 0x29CC JUMP JUMPDEST PUSH1 0x40 MLOAD DUP1 SWAP2 SUB SWAP1 REVERT JUMPDEST PUSH1 0x4 PUSH1 0x0 DUP3 DUP2 MSTORE PUSH1 0x20 ADD SWAP1 DUP2 MSTORE PUSH1 0x20 ADD PUSH1 0x0 KECCAK256 PUSH1 0x0 PUSH2 0x100 EXP DUP2 SLOAD SWAP1 PUSH20 0xFFFFFFFFFFFFFFFFFFFFFFFFFFFFFFFFFFFFFFFF MUL NOT AND SWAP1 SSTORE PUSH1 0x1 PUSH1 0x3 PUSH1 0x0 DUP6 PUSH20 0xFFFFFFFFFFFFFFFFFFFFFFFFFFFFFFFFFFFFFFFF AND PUSH20 0xFFFFFFFFFFFFFFFFFFFFFFFFFFFFFFFFFFFFFFFF AND DUP2 MSTORE PUSH1 0x20 ADD SWAP1 DUP2 MSTORE PUSH1 0x20 ADD PUSH1 0x0 KECCAK256 PUSH1 0x0 DUP3 DUP3 SLOAD SUB SWAP3 POP POP DUP2 SWAP1 SSTORE POP PUSH1 0x1 PUSH1 0x3 PUSH1 0x0 DUP5 PUSH20 0xFFFFFFFFFFFFFFFFFFFFFFFFFFFFFFFFFFFFFFFF AND PUSH20 0xFFFFFFFFFFFFFFFFFFFFFFFFFFFFFFFFFFFFFFFF AND DUP2 MSTORE PUSH1 0x20 ADD SWAP1 DUP2 MSTORE PUSH1 0x20 ADD PUSH1 0x0 KECCAK256 PUSH1 0x0 DUP3 DUP3 SLOAD ADD SWAP3 POP POP DUP2 SWAP1 SSTORE POP DUP2 PUSH1 0x2 PUSH1 0x0 DUP4 DUP2 MSTORE PUSH1 0x20 ADD SWAP1 DUP2 MSTORE PUSH1 0x20 ADD PUSH1 0x0 KECCAK256 PUSH1 0x0 PUSH2 0x100 EXP DUP2 SLOAD DUP2 PUSH20 0xFFFFFFFFFFFFFFFFFFFFFFFFFFFFFFFFFFFFFFFF MUL NOT AND SWAP1 DUP4 PUSH20 0xFFFFFFFFFFFFFFFFFFFFFFFFFFFFFFFFFFFFFFFF AND MUL OR SWAP1 SSTORE POP DUP1 DUP3 PUSH20 0xFFFFFFFFFFFFFFFFFFFFFFFFFFFFFFFFFFFFFFFF AND DUP5 PUSH20 0xFFFFFFFFFFFFFFFFFFFFFFFFFFFFFFFFFFFFFFFF AND PUSH32 0xDDF252AD1BE2C89B69C2B068FC378DAA952BA7F163C4A11628F55A4DF523B3EF PUSH1 0x40 MLOAD PUSH1 0x40 MLOAD DUP1 SWAP2 SUB SWAP1 LOG4 PUSH2 0x151F DUP4 DUP4 DUP4 PUSH1 0x1 PUSH2 0x1AE7 JUMP JUMPDEST POP POP POP JUMP JUMPDEST PUSH2 0x152C PUSH2 0xE94 JUMP JUMPDEST PUSH20 0xFFFFFFFFFFFFFFFFFFFFFFFFFFFFFFFFFFFFFFFF AND PUSH2 0x154A PUSH2 0xB2C JUMP JUMPDEST PUSH20 0xFFFFFFFFFFFFFFFFFFFFFFFFFFFFFFFFFFFFFFFF AND EQ PUSH2 0x15A0 JUMPI PUSH1 0x40 MLOAD PUSH32 0x8C379A000000000000000000000000000000000000000000000000000000000 DUP2 MSTORE PUSH1 0x4 ADD PUSH2 0x1597 SWAP1 PUSH2 0x2ACA JUMP JUMPDEST PUSH1 0x40 MLOAD DUP1 SWAP2 SUB SWAP1 REVERT JUMPDEST JUMP JUMPDEST PUSH1 0x0 PUSH2 0x15AD DUP3 PUSH2 0x9C3 JUMP JUMPDEST SWAP1 POP PUSH2 0x15BD DUP2 PUSH1 0x0 DUP5 PUSH1 0x1 PUSH2 0x1AE1 JUMP JUMPDEST PUSH2 0x15C6 DUP3 PUSH2 0x9C3 JUMP JUMPDEST SWAP1 POP PUSH1 0x4 PUSH1 0x0 DUP4 DUP2 MSTORE PUSH1 0x20 ADD SWAP1 DUP2 MSTORE PUSH1 0x20 ADD PUSH1 0x0 KECCAK256 PUSH1 0x0 PUSH2 0x100 EXP DUP2 SLOAD SWAP1 PUSH20 0xFFFFFFFFFFFFFFFFFFFFFFFFFFFFFFFFFFFFFFFF MUL NOT AND SWAP1 SSTORE PUSH1 0x1 PUSH1 0x3 PUSH1 0x0 DUP4 PUSH20 0xFFFFFFFFFFFFFFFFFFFFFFFFFFFFFFFFFFFFFFFF AND PUSH20 0xFFFFFFFFFFFFFFFFFFFFFFFFFFFFFFFFFFFFFFFF AND DUP2 MSTORE PUSH1 0x20 ADD SWAP1 DUP2 MSTORE PUSH1 0x20 ADD PUSH1 0x0 KECCAK256 PUSH1 0x0 DUP3 DUP3 SLOAD SUB SWAP3 POP POP DUP2 SWAP1 SSTORE POP PUSH1 0x2 PUSH1 0x0 DUP4 DUP2 MSTORE PUSH1 0x20 ADD SWAP1 DUP2 MSTORE PUSH1 0x20 ADD PUSH1 0x0 KECCAK256 PUSH1 0x0 PUSH2 0x100 EXP DUP2 SLOAD SWAP1 PUSH20 0xFFFFFFFFFFFFFFFFFFFFFFFFFFFFFFFFFFFFFFFF MUL NOT AND SWAP1 SSTORE DUP2 PUSH1 0x0 PUSH20 0xFFFFFFFFFFFFFFFFFFFFFFFFFFFFFFFFFFFFFFFF AND DUP3 PUSH20 0xFFFFFFFFFFFFFFFFFFFFFFFFFFFFFFFFFFFFFFFF AND PUSH32 0xDDF252AD1BE2C89B69C2B068FC378DAA952BA7F163C4A11628F55A4DF523B3EF PUSH1 0x40 MLOAD PUSH1 0x40 MLOAD DUP1 SWAP2 SUB SWAP1 LOG4 PUSH2 0x16EC DUP2 PUSH1 0x0 DUP5 PUSH1 0x1 PUSH2 0x1AE7 JUMP JUMPDEST POP POP JUMP JUMPDEST PUSH1 0x0 PUSH1 0x2 PUSH1 0x0 DUP4 DUP2 MSTORE PUSH1 0x20 ADD SWAP1 DUP2 MSTORE PUSH1 0x20 ADD PUSH1 0x0 KECCAK256 PUSH1 0x0 SWAP1 SLOAD SWAP1 PUSH2 0x100 EXP SWAP1 DIV PUSH20 0xFFFFFFFFFFFFFFFFFFFFFFFFFFFFFFFFFFFFFFFF AND SWAP1 POP SWAP2 SWAP1 POP JUMP JUMPDEST PUSH1 0x0 PUSH1 0x6 PUSH1 0x0 SWAP1 SLOAD SWAP1 PUSH2 0x100 EXP SWAP1 DIV PUSH20 0xFFFFFFFFFFFFFFFFFFFFFFFFFFFFFFFFFFFFFFFF AND SWAP1 POP DUP2 PUSH1 0x6 PUSH1 0x0 PUSH2 0x100 EXP DUP2 SLOAD DUP2 PUSH20 0xFFFFFFFFFFFFFFFFFFFFFFFFFFFFFFFFFFFFFFFF MUL NOT AND SWAP1 DUP4 PUSH20 0xFFFFFFFFFFFFFFFFFFFFFFFFFFFFFFFFFFFFFFFF AND MUL OR SWAP1 SSTORE POP DUP2 PUSH20 0xFFFFFFFFFFFFFFFFFFFFFFFFFFFFFFFFFFFFFFFF AND DUP2 PUSH20 0xFFFFFFFFFFFFFFFFFFFFFFFFFFFFFFFFFFFFFFFF AND PUSH32 0x8BE0079C531659141344CD1FD0A4F28419497F9722A3DAAFE3B4186F6B6457E0 PUSH1 0x40 MLOAD PUSH1 0x40 MLOAD DUP1 SWAP2 SUB SWAP1 LOG3 POP POP JUMP JUMPDEST DUP2 PUSH20 0xFFFFFFFFFFFFFFFFFFFFFFFFFFFFFFFFFFFFFFFF AND DUP4 PUSH20 0xFFFFFFFFFFFFFFFFFFFFFFFFFFFFFFFFFFFFFFFF AND SUB PUSH2 0x1861 JUMPI PUSH1 0x40 MLOAD PUSH32 0x8C379A000000000000000000000000000000000000000000000000000000000 DUP2 MSTORE PUSH1 0x4 ADD PUSH2 0x1858 SWAP1 PUSH2 0x2B36 JUMP JUMPDEST PUSH1 0x40 MLOAD DUP1 SWAP2 SUB SWAP1 REVERT JUMPDEST DUP1 PUSH1 0x5 PUSH1 0x0 DUP6 PUSH20 0xFFFFFFFFFFFFFFFFFFFFFFFFFFFFFFFFFFFFFFFF AND PUSH20 0xFFFFFFFFFFFFFFFFFFFFFFFFFFFFFFFFFFFFFFFF AND DUP2 MSTORE PUSH1 0x20 ADD SWAP1 DUP2 MSTORE PUSH1 0x20 ADD PUSH1 0x0 KECCAK256 PUSH1 0x0 DUP5 PUSH20 0xFFFFFFFFFFFFFFFFFFFFFFFFFFFFFFFFFFFFFFFF AND PUSH20 0xFFFFFFFFFFFFFFFFFFFFFFFFFFFFFFFFFFFFFFFF AND DUP2 MSTORE PUSH1 0x20 ADD SWAP1 DUP2 MSTORE PUSH1 0x20 ADD PUSH1 0x0 KECCAK256 PUSH1 0x0 PUSH2 0x100 EXP DUP2 SLOAD DUP2 PUSH1 0xFF MUL NOT AND SWAP1 DUP4 ISZERO ISZERO MUL OR SWAP1 SSTORE POP DUP2 PUSH20 0xFFFFFFFFFFFFFFFFFFFFFFFFFFFFFFFFFFFFFFFF AND DUP4 PUSH20 0xFFFFFFFFFFFFFFFFFFFFFFFFFFFFFFFFFFFFFFFF AND PUSH32 0x17307EAB39AB6107E8899845AD3D59BD9653F200F220920489CA2B5937696C31 DUP4 PUSH1 0x40 MLOAD PUSH2 0x1952 SWAP2 SWAP1 PUSH2 0x1E9E JUMP JUMPDEST PUSH1 0x40 MLOAD DUP1 SWAP2 SUB SWAP1 LOG3 POP POP POP JUMP JUMPDEST PUSH2 0x196A DUP5 DUP5 DUP5 PUSH2 0x122B JUMP JUMPDEST PUSH2 0x1976 DUP5 DUP5 DUP5 DUP5 PUSH2 0x1AED JUMP JUMPDEST PUSH2 0x19B5 JUMPI PUSH1 0x40 MLOAD PUSH32 0x8C379A000000000000000000000000000000000000000000000000000000000 DUP2 MSTORE PUSH1 0x4 ADD PUSH2 0x19AC SWAP1 PUSH2 0x2BC8 JUMP JUMPDEST PUSH1 0x40 MLOAD DUP1 SWAP2 SUB SWAP1 REVERT JUMPDEST POP POP POP POP JUMP JUMPDEST PUSH1 0x60 PUSH1 0x40 MLOAD DUP1 PUSH1 0x20 ADD PUSH1 0x40 MSTORE DUP1 PUSH1 0x0 DUP2 MSTORE POP SWAP1 POP SWAP1 JUMP JUMPDEST PUSH1 0x60 PUSH1 0x0 PUSH1 0x1 PUSH2 0x19E1 DUP5 PUSH2 0x1C74 JUMP JUMPDEST ADD SWAP1 POP PUSH1 0x0 DUP2 PUSH8 0xFFFFFFFFFFFFFFFF DUP2 GT ISZERO PUSH2 0x1A00 JUMPI PUSH2 0x19FF PUSH2 0x21B6 JUMP JUMPDEST JUMPDEST PUSH1 0x40 MLOAD SWAP1 DUP1 DUP3 MSTORE DUP1 PUSH1 0x1F ADD PUSH1 0x1F NOT AND PUSH1 0x20 ADD DUP3 ADD PUSH1 0x40 MSTORE DUP1 ISZERO PUSH2 0x1A32 JUMPI DUP2 PUSH1 0x20 ADD PUSH1 0x1 DUP3 MUL DUP1 CALLDATASIZE DUP4 CALLDATACOPY DUP1 DUP3 ADD SWAP2 POP POP SWAP1 POP JUMPDEST POP SWAP1 POP PUSH1 0x0 DUP3 PUSH1 0x20 ADD DUP3 ADD SWAP1 POP JUMPDEST PUSH1 0x1 ISZERO PUSH2 0x1A95 JUMPI DUP1 DUP1 PUSH1 0x1 SWAP1 SUB SWAP2 POP POP PUSH32 0x3031323334353637383961626364656600000000000000000000000000000000 PUSH1 0xA DUP7 MOD BYTE DUP2 MSTORE8 PUSH1 0xA DUP6 DUP2 PUSH2 0x1A89 JUMPI PUSH2 0x1A88 PUSH2 0x2BE8 JUMP JUMPDEST JUMPDEST DIV SWAP5 POP PUSH1 0x0 DUP6 SUB PUSH2 0x1A40 JUMPI JUMPDEST DUP2 SWAP4 POP POP POP POP SWAP2 SWAP1 POP JUMP JUMPDEST PUSH1 0x0 DUP1 PUSH20 0xFFFFFFFFFFFFFFFFFFFFFFFFFFFFFFFFFFFFFFFF AND PUSH2 0x1AC2 DUP4 PUSH2 0x16F0 JUMP JUMPDEST PUSH20 0xFFFFFFFFFFFFFFFFFFFFFFFFFFFFFFFFFFFFFFFF AND EQ ISZERO SWAP1 POP SWAP2 SWAP1 POP JUMP JUMPDEST POP POP POP POP JUMP JUMPDEST POP POP POP POP JUMP JUMPDEST PUSH1 0x0 PUSH2 0x1B0E DUP5 PUSH20 0xFFFFFFFFFFFFFFFFFFFFFFFFFFFFFFFFFFFFFFFF AND PUSH2 0x1DC7 JUMP JUMPDEST ISZERO PUSH2 0x1C67 JUMPI DUP4 PUSH20 0xFFFFFFFFFFFFFFFFFFFFFFFFFFFFFFFFFFFFFFFF AND PUSH4 0x150B7A02 PUSH2 0x1B37 PUSH2 0xE94 JUMP JUMPDEST DUP8 DUP7 DUP7 PUSH1 0x40 MLOAD DUP6 PUSH4 0xFFFFFFFF AND PUSH1 0xE0 SHL DUP2 MSTORE PUSH1 0x4 ADD PUSH2 0x1B59 SWAP5 SWAP4 SWAP3 SWAP2 SWAP1 PUSH2 0x2C6C JUMP JUMPDEST PUSH1 0x20 PUSH1 0x40 MLOAD DUP1 DUP4 SUB DUP2 PUSH1 0x0 DUP8 GAS CALL SWAP3 POP POP POP DUP1 ISZERO PUSH2 0x1B95 JUMPI POP PUSH1 0x40 MLOAD RETURNDATASIZE PUSH1 0x1F NOT PUSH1 0x1F DUP3 ADD AND DUP3 ADD DUP1 PUSH1 0x40 MSTORE POP DUP2 ADD SWAP1 PUSH2 0x1B92 SWAP2 SWAP1 PUSH2 0x2CCD JUMP JUMPDEST PUSH1 0x1 JUMPDEST PUSH2 0x1C17 JUMPI RETURNDATASIZE DUP1 PUSH1 0x0 DUP2 EQ PUSH2 0x1BC5 JUMPI PUSH1 0x40 MLOAD SWAP2 POP PUSH1 0x1F NOT PUSH1 0x3F RETURNDATASIZE ADD AND DUP3 ADD PUSH1 0x40 MSTORE RETURNDATASIZE DUP3 MSTORE RETURNDATASIZE PUSH1 0x0 PUSH1 0x20 DUP5 ADD RETURNDATACOPY PUSH2 0x1BCA JUMP JUMPDEST PUSH1 0x60 SWAP2 POP JUMPDEST POP PUSH1 0x0 DUP2 MLOAD SUB PUSH2 0x1C0F JUMPI PUSH1 0x40 MLOAD PUSH32 0x8C379A000000000000000000000000000000000000000000000000000000000 DUP2 MSTORE PUSH1 0x4 ADD PUSH2 0x1C06 SWAP1 PUSH2 0x2BC8 JUMP JUMPDEST PUSH1 0x40 MLOAD DUP1 SWAP2 SUB SWAP1 REVERT JUMPDEST DUP1 MLOAD DUP2 PUSH1 0x20 ADD REVERT JUMPDEST PUSH4 0x150B7A02 PUSH1 0xE0 SHL PUSH28 0xFFFFFFFFFFFFFFFFFFFFFFFFFFFFFFFFFFFFFFFFFFFFFFFFFFFFFFFF NOT AND DUP2 PUSH28 0xFFFFFFFFFFFFFFFFFFFFFFFFFFFFFFFFFFFFFFFFFFFFFFFFFFFFFFFF NOT AND EQ SWAP2 POP POP PUSH2 0x1C6C JUMP JUMPDEST PUSH1 0x1 SWAP1 POP JUMPDEST SWAP5 SWAP4 POP POP POP POP JUMP JUMPDEST PUSH1 0x0 DUP1 PUSH1 0x0 SWAP1 POP PUSH27 0x184F03E93FF9F4DAA797ED6E38ED64BF6A1F010000000000000000 DUP4 LT PUSH2 0x1CD2 JUMPI PUSH27 0x184F03E93FF9F4DAA797ED6E38ED64BF6A1F010000000000000000 DUP4 DUP2 PUSH2 0x1CC8 JUMPI PUSH2 0x1CC7 PUSH2 0x2BE8 JUMP JUMPDEST JUMPDEST DIV SWAP3 POP PUSH1 0x40 DUP2 ADD SWAP1 POP JUMPDEST PUSH14 0x4EE2D6D415B85ACEF8100000000 DUP4 LT PUSH2 0x1D0F JUMPI PUSH14 0x4EE2D6D415B85ACEF8100000000 DUP4 DUP2 PUSH2 0x1D05 JUMPI PUSH2 0x1D04 PUSH2 0x2BE8 JUMP JUMPDEST JUMPDEST DIV SWAP3 POP PUSH1 0x20 DUP2 ADD SWAP1 POP JUMPDEST PUSH7 0x2386F26FC10000 DUP4 LT PUSH2 0x1D3E JUMPI PUSH7 0x2386F26FC10000 DUP4 DUP2 PUSH2 0x1D34 JUMPI PUSH2 0x1D33 PUSH2 0x2BE8 JUMP JUMPDEST JUMPDEST DIV SWAP3 POP PUSH1 0x10 DUP2 ADD SWAP1 POP JUMPDEST PUSH4 0x5F5E100 DUP4 LT PUSH2 0x1D67 JUMPI PUSH4 0x5F5E100 DUP4 DUP2 PUSH2 0x1D5D JUMPI PUSH2 0x1D5C PUSH2 0x2BE8 JUMP JUMPDEST JUMPDEST DIV SWAP3 POP PUSH1 0x8 DUP2 ADD SWAP1 POP JUMPDEST PUSH2 0x2710 DUP4 LT PUSH2 0x1D8C JUMPI PUSH2 0x2710 DUP4 DUP2 PUSH2 0x1D82 JUMPI PUSH2 0x1D81 PUSH2 0x2BE8 JUMP JUMPDEST JUMPDEST DIV SWAP3 POP PUSH1 0x4 DUP2 ADD SWAP1 POP JUMPDEST PUSH1 0x64 DUP4 LT PUSH2 0x1DAF JUMPI PUSH1 0x64 DUP4 DUP2 PUSH2 0x1DA5 JUMPI PUSH2 0x1DA4 PUSH2 0x2BE8 JUMP JUMPDEST JUMPDEST DIV SWAP3 POP PUSH1 0x2 DUP2 ADD SWAP1 POP JUMPDEST PUSH1 0xA DUP4 LT PUSH2 0x1DBE JUMPI PUSH1 0x1 DUP2 ADD SWAP1 POP JUMPDEST DUP1 SWAP2 POP POP SWAP2 SWAP1 POP JUMP JUMPDEST PUSH1 0x0 DUP1 DUP3 PUSH20 0xFFFFFFFFFFFFFFFFFFFFFFFFFFFFFFFFFFFFFFFF AND EXTCODESIZE GT SWAP1 POP SWAP2 SWAP1 POP JUMP JUMPDEST PUSH1 0x0 PUSH1 0x40 MLOAD SWAP1 POP SWAP1 JUMP JUMPDEST PUSH1 0x0 DUP1 REVERT JUMPDEST PUSH1 0x0 DUP1 REVERT JUMPDEST PUSH1 0x0 PUSH32 0xFFFFFFFF00000000000000000000000000000000000000000000000000000000 DUP3 AND SWAP1 POP SWAP2 SWAP1 POP JUMP JUMPDEST PUSH2 0x1E33 DUP2 PUSH2 0x1DFE JUMP JUMPDEST DUP2 EQ PUSH2 0x1E3E JUMPI PUSH1 0x0 DUP1 REVERT JUMPDEST POP JUMP JUMPDEST PUSH1 0x0 DUP2 CALLDATALOAD SWAP1 POP PUSH2 0x1E50 DUP2 PUSH2 0x1E2A JUMP JUMPDEST SWAP3 SWAP2 POP POP JUMP JUMPDEST PUSH1 0x0 PUSH1 0x20 DUP3 DUP5 SUB SLT ISZERO PUSH2 0x1E6C JUMPI PUSH2 0x1E6B PUSH2 0x1DF4 JUMP JUMPDEST JUMPDEST PUSH1 0x0 PUSH2 0x1E7A DUP5 DUP3 DUP6 ADD PUSH2 0x1E41 JUMP JUMPDEST SWAP2 POP POP SWAP3 SWAP2 POP POP JUMP JUMPDEST PUSH1 0x0 DUP2 ISZERO ISZERO SWAP1 POP SWAP2 SWAP1 POP JUMP JUMPDEST PUSH2 0x1E98 DUP2 PUSH2 0x1E83 JUMP JUMPDEST DUP3 MSTORE POP POP JUMP JUMPDEST PUSH1 0x0 PUSH1 0x20 DUP3 ADD SWAP1 POP PUSH2 0x1EB3 PUSH1 0x0 DUP4 ADD DUP5 PUSH2 0x1E8F JUMP JUMPDEST SWAP3 SWAP2 POP POP JUMP JUMPDEST PUSH1 0x0 DUP2 MLOAD SWAP1 POP SWAP2 SWAP1 POP JUMP JUMPDEST PUSH1 0x0 DUP3 DUP3 MSTORE PUSH1 0x20 DUP3 ADD SWAP1 POP SWAP3 SWAP2 POP POP JUMP JUMPDEST PUSH1 0x0 JUMPDEST DUP4 DUP2 LT ISZERO PUSH2 0x1EF3 JUMPI DUP1 DUP3 ADD MLOAD DUP2 DUP5 ADD MSTORE PUSH1 0x20 DUP2 ADD SWAP1 POP PUSH2 0x1ED8 JUMP JUMPDEST PUSH1 0x0 DUP5 DUP5 ADD MSTORE POP POP POP POP JUMP JUMPDEST PUSH1 0x0 PUSH1 0x1F NOT PUSH1 0x1F DUP4 ADD AND SWAP1 POP SWAP2 SWAP1 POP JUMP JUMPDEST PUSH1 0x0 PUSH2 0x1F1B DUP3 PUSH2 0x1EB9 JUMP JUMPDEST PUSH2 0x1F25 DUP2 DUP6 PUSH2 0x1EC4 JUMP JUMPDEST SWAP4 POP PUSH2 0x1F35 DUP2 DUP6 PUSH1 0x20 DUP7 ADD PUSH2 0x1ED5 JUMP JUMPDEST PUSH2 0x1F3E DUP2 PUSH2 0x1EFF JUMP JUMPDEST DUP5 ADD SWAP2 POP POP SWAP3 SWAP2 POP POP JUMP JUMPDEST PUSH1 0x0 PUSH1 0x20 DUP3 ADD SWAP1 POP DUP2 DUP2 SUB PUSH1 0x0 DUP4 ADD MSTORE PUSH2 0x1F63 DUP2 DUP5 PUSH2 0x1F10 JUMP JUMPDEST SWAP1 POP SWAP3 SWAP2 POP POP JUMP JUMPDEST PUSH1 0x0 DUP2 SWAP1 POP SWAP2 SWAP1 POP JUMP JUMPDEST PUSH2 0x1F7E DUP2 PUSH2 0x1F6B JUMP JUMPDEST DUP2 EQ PUSH2 0x1F89 JUMPI PUSH1 0x0 DUP1 REVERT JUMPDEST POP JUMP JUMPDEST PUSH1 0x0 DUP2 CALLDATALOAD SWAP1 POP PUSH2 0x1F9B DUP2 PUSH2 0x1F75 JUMP JUMPDEST SWAP3 SWAP2 POP POP JUMP JUMPDEST PUSH1 0x0 PUSH1 0x20 DUP3 DUP5 SUB SLT ISZERO PUSH2 0x1FB7 JUMPI PUSH2 0x1FB6 PUSH2 0x1DF4 JUMP JUMPDEST JUMPDEST PUSH1 0x0 PUSH2 0x1FC5 DUP5 DUP3 DUP6 ADD PUSH2 0x1F8C JUMP JUMPDEST SWAP2 POP POP SWAP3 SWAP2 POP POP JUMP JUMPDEST PUSH1 0x0 PUSH20 0xFFFFFFFFFFFFFFFFFFFFFFFFFFFFFFFFFFFFFFFF DUP3 AND SWAP1 POP SWAP2 SWAP1 POP JUMP JUMPDEST PUSH1 0x0 PUSH2 0x1FF9 DUP3 PUSH2 0x1FCE JUMP JUMPDEST SWAP1 POP SWAP2 SWAP1 POP JUMP JUMPDEST PUSH2 0x2009 DUP2 PUSH2 0x1FEE JUMP JUMPDEST DUP3 MSTORE POP POP JUMP JUMPDEST PUSH1 0x0 PUSH1 0x20 DUP3 ADD SWAP1 POP PUSH2 0x2024 PUSH1 0x0 DUP4 ADD DUP5 PUSH2 0x2000 JUMP JUMPDEST SWAP3 SWAP2 POP POP JUMP JUMPDEST PUSH2 0x2033 DUP2 PUSH2 0x1FEE JUMP JUMPDEST DUP2 EQ PUSH2 0x203E JUMPI PUSH1 0x0 DUP1 REVERT JUMPDEST POP JUMP JUMPDEST PUSH1 0x0 DUP2 CALLDATALOAD SWAP1 POP PUSH2 0x2050 DUP2 PUSH2 0x202A JUMP JUMPDEST SWAP3 SWAP2 POP POP JUMP JUMPDEST PUSH1 0x0 DUP1 PUSH1 0x40 DUP4 DUP6 SUB SLT ISZERO PUSH2 0x206D JUMPI PUSH2 0x206C PUSH2 0x1DF4 JUMP JUMPDEST JUMPDEST PUSH1 0x0 PUSH2 0x207B DUP6 DUP3 DUP7 ADD PUSH2 0x2041 JUMP JUMPDEST SWAP3 POP POP PUSH1 0x20 PUSH2 0x208C DUP6 DUP3 DUP7 ADD PUSH2 0x1F8C JUMP JUMPDEST SWAP2 POP POP SWAP3 POP SWAP3 SWAP1 POP JUMP JUMPDEST PUSH1 0x0 DUP1 PUSH1 0x0 PUSH1 0x60 DUP5 DUP7 SUB SLT ISZERO PUSH2 0x20AF JUMPI PUSH2 0x20AE PUSH2 0x1DF4 JUMP JUMPDEST JUMPDEST PUSH1 0x0 PUSH2 0x20BD DUP7 DUP3 DUP8 ADD PUSH2 0x2041 JUMP JUMPDEST SWAP4 POP POP PUSH1 0x20 PUSH2 0x20CE DUP7 DUP3 DUP8 ADD PUSH2 0x2041 JUMP JUMPDEST SWAP3 POP POP PUSH1 0x40 PUSH2 0x20DF DUP7 DUP3 DUP8 ADD PUSH2 0x1F8C JUMP JUMPDEST SWAP2 POP POP SWAP3 POP SWAP3 POP SWAP3 JUMP JUMPDEST PUSH2 0x20F2 DUP2 PUSH2 0x1F6B JUMP JUMPDEST DUP3 MSTORE POP POP JUMP JUMPDEST PUSH1 0x0 PUSH1 0x20 DUP3 ADD SWAP1 POP PUSH2 0x210D PUSH1 0x0 DUP4 ADD DUP5 PUSH2 0x20E9 JUMP JUMPDEST SWAP3 SWAP2 POP POP JUMP JUMPDEST PUSH1 0x0 PUSH1 0x20 DUP3 DUP5 SUB SLT ISZERO PUSH2 0x2129 JUMPI PUSH2 0x2128 PUSH2 0x1DF4 JUMP JUMPDEST JUMPDEST PUSH1 0x0 PUSH2 0x2137 DUP5 DUP3 DUP6 ADD PUSH2 0x2041 JUMP JUMPDEST SWAP2 POP POP SWAP3 SWAP2 POP POP JUMP JUMPDEST PUSH2 0x2149 DUP2 PUSH2 0x1E83 JUMP JUMPDEST DUP2 EQ PUSH2 0x2154 JUMPI PUSH1 0x0 DUP1 REVERT JUMPDEST POP JUMP JUMPDEST PUSH1 0x0 DUP2 CALLDATALOAD SWAP1 POP PUSH2 0x2166 DUP2 PUSH2 0x2140 JUMP JUMPDEST SWAP3 SWAP2 POP POP JUMP JUMPDEST PUSH1 0x0 DUP1 PUSH1 0x40 DUP4 DUP6 SUB SLT ISZERO PUSH2 0x2183 JUMPI PUSH2 0x2182 PUSH2 0x1DF4 JUMP JUMPDEST JUMPDEST PUSH1 0x0 PUSH2 0x2191 DUP6 DUP3 DUP7 ADD PUSH2 0x2041 JUMP JUMPDEST SWAP3 POP POP PUSH1 0x20 PUSH2 0x21A2 DUP6 DUP3 DUP7 ADD PUSH2 0x2157 JUMP JUMPDEST SWAP2 POP POP SWAP3 POP SWAP3 SWAP1 POP JUMP JUMPDEST PUSH1 0x0 DUP1 REVERT JUMPDEST PUSH1 0x0 DUP1 REVERT JUMPDEST PUSH32 0x4E487B7100000000000000000000000000000000000000000000000000000000 PUSH1 0x0 MSTORE PUSH1 0x41 PUSH1 0x4 MSTORE PUSH1 0x24 PUSH1 0x0 REVERT JUMPDEST PUSH2 0x21EE DUP3 PUSH2 0x1EFF JUMP JUMPDEST DUP2 ADD DUP2 DUP2 LT PUSH8 0xFFFFFFFFFFFFFFFF DUP3 GT OR ISZERO PUSH2 0x220D JUMPI PUSH2 0x220C PUSH2 0x21B6 JUMP JUMPDEST JUMPDEST DUP1 PUSH1 0x40 MSTORE POP POP POP JUMP JUMPDEST PUSH1 0x0 PUSH2 0x2220 PUSH2 0x1DEA JUMP JUMPDEST SWAP1 POP PUSH2 0x222C DUP3 DUP3 PUSH2 0x21E5 JUMP JUMPDEST SWAP2 SWAP1 POP JUMP JUMPDEST PUSH1 0x0 PUSH8 0xFFFFFFFFFFFFFFFF DUP3 GT ISZERO PUSH2 0x224C JUMPI PUSH2 0x224B PUSH2 0x21B6 JUMP JUMPDEST JUMPDEST PUSH2 0x2255 DUP3 PUSH2 0x1EFF JUMP JUMPDEST SWAP1 POP PUSH1 0x20 DUP2 ADD SWAP1 POP SWAP2 SWAP1 POP JUMP JUMPDEST DUP3 DUP2 DUP4 CALLDATACOPY PUSH1 0x0 DUP4 DUP4 ADD MSTORE POP POP POP JUMP JUMPDEST PUSH1 0x0 PUSH2 0x2284 PUSH2 0x227F DUP5 PUSH2 0x2231 JUMP JUMPDEST PUSH2 0x2216 JUMP JUMPDEST SWAP1 POP DUP3 DUP2 MSTORE PUSH1 0x20 DUP2 ADD DUP5 DUP5 DUP5 ADD GT ISZERO PUSH2 0x22A0 JUMPI PUSH2 0x229F PUSH2 0x21B1 JUMP JUMPDEST JUMPDEST PUSH2 0x22AB DUP5 DUP3 DUP6 PUSH2 0x2262 JUMP JUMPDEST POP SWAP4 SWAP3 POP POP POP JUMP JUMPDEST PUSH1 0x0 DUP3 PUSH1 0x1F DUP4 ADD SLT PUSH2 0x22C8 JUMPI PUSH2 0x22C7 PUSH2 0x21AC JUMP JUMPDEST JUMPDEST DUP2 CALLDATALOAD PUSH2 0x22D8 DUP5 DUP3 PUSH1 0x20 DUP7 ADD PUSH2 0x2271 JUMP JUMPDEST SWAP2 POP POP SWAP3 SWAP2 POP POP JUMP JUMPDEST PUSH1 0x0 DUP1 PUSH1 0x0 DUP1 PUSH1 0x80 DUP6 DUP8 SUB SLT ISZERO PUSH2 0x22FB JUMPI PUSH2 0x22FA PUSH2 0x1DF4 JUMP JUMPDEST JUMPDEST PUSH1 0x0 PUSH2 0x2309 DUP8 DUP3 DUP9 ADD PUSH2 0x2041 JUMP JUMPDEST SWAP5 POP POP PUSH1 0x20 PUSH2 0x231A DUP8 DUP3 DUP9 ADD PUSH2 0x2041 JUMP JUMPDEST SWAP4 POP POP PUSH1 0x40 PUSH2 0x232B DUP8 DUP3 DUP9 ADD PUSH2 0x1F8C JUMP JUMPDEST SWAP3 POP POP PUSH1 0x60 DUP6 ADD CALLDATALOAD PUSH8 0xFFFFFFFFFFFFFFFF DUP2 GT ISZERO PUSH2 0x234C JUMPI PUSH2 0x234B PUSH2 0x1DF9 JUMP JUMPDEST JUMPDEST PUSH2 0x2358 DUP8 DUP3 DUP9 ADD PUSH2 0x22B3 JUMP JUMPDEST SWAP2 POP POP SWAP3 SWAP6 SWAP2 SWAP5 POP SWAP3 POP JUMP JUMPDEST PUSH1 0x0 DUP1 PUSH1 0x40 DUP4 DUP6 SUB SLT ISZERO PUSH2 0x237B JUMPI PUSH2 0x237A PUSH2 0x1DF4 JUMP JUMPDEST JUMPDEST PUSH1 0x0 PUSH2 0x2389 DUP6 DUP3 DUP7 ADD PUSH2 0x2041 JUMP JUMPDEST SWAP3 POP POP PUSH1 0x20 PUSH2 0x239A DUP6 DUP3 DUP7 ADD PUSH2 0x2041 JUMP JUMPDEST SWAP2 POP POP SWAP3 POP SWAP3 SWAP1 POP JUMP JUMPDEST PUSH32 0x4E487B7100000000000000000000000000000000000000000000000000000000 PUSH1 0x0 MSTORE PUSH1 0x22 PUSH1 0x4 MSTORE PUSH1 0x24 PUSH1 0x0 REVERT JUMPDEST PUSH1 0x0 PUSH1 0x2 DUP3 DIV SWAP1 POP PUSH1 0x1 DUP3 AND DUP1 PUSH2 0x23EB JUMPI PUSH1 0x7F DUP3 AND SWAP2 POP JUMPDEST PUSH1 0x20 DUP3 LT DUP2 SUB PUSH2 0x23FE JUMPI PUSH2 0x23FD PUSH2 0x23A4 JUMP JUMPDEST JUMPDEST POP SWAP2 SWAP1 POP JUMP JUMPDEST PUSH32 0x4552433732313A20617070726F76616C20746F2063757272656E74206F776E65 PUSH1 0x0 DUP3 ADD MSTORE PUSH32 0x7200000000000000000000000000000000000000000000000000000000000000 PUSH1 0x20 DUP3 ADD MSTORE POP JUMP JUMPDEST PUSH1 0x0 PUSH2 0x2460 PUSH1 0x21 DUP4 PUSH2 0x1EC4 JUMP JUMPDEST SWAP2 POP PUSH2 0x246B DUP3 PUSH2 0x2404 JUMP JUMPDEST PUSH1 0x40 DUP3 ADD SWAP1 POP SWAP2 SWAP1 POP JUMP JUMPDEST PUSH1 0x0 PUSH1 0x20 DUP3 ADD SWAP1 POP DUP2 DUP2 SUB PUSH1 0x0 DUP4 ADD MSTORE PUSH2 0x248F DUP2 PUSH2 0x2453 JUMP JUMPDEST SWAP1 POP SWAP2 SWAP1 POP JUMP JUMPDEST PUSH32 0x4552433732313A20617070726F76652063616C6C6572206973206E6F7420746F PUSH1 0x0 DUP3 ADD MSTORE PUSH32 0x6B656E206F776E6572206F7220617070726F76656420666F7220616C6C000000 PUSH1 0x20 DUP3 ADD MSTORE POP JUMP JUMPDEST PUSH1 0x0 PUSH2 0x24F2 PUSH1 0x3D DUP4 PUSH2 0x1EC4 JUMP JUMPDEST SWAP2 POP PUSH2 0x24FD DUP3 PUSH2 0x2496 JUMP JUMPDEST PUSH1 0x40 DUP3 ADD SWAP1 POP SWAP2 SWAP1 POP JUMP JUMPDEST PUSH1 0x0 PUSH1 0x20 DUP3 ADD SWAP1 POP DUP2 DUP2 SUB PUSH1 0x0 DUP4 ADD MSTORE PUSH2 0x2521 DUP2 PUSH2 0x24E5 JUMP JUMPDEST SWAP1 POP SWAP2 SWAP1 POP JUMP JUMPDEST PUSH32 0x496E73756666696369656E742066756E64730000000000000000000000000000 PUSH1 0x0 DUP3 ADD MSTORE POP JUMP JUMPDEST PUSH1 0x0 PUSH2 0x255E PUSH1 0x12 DUP4 PUSH2 0x1EC4 JUMP JUMPDEST SWAP2 POP PUSH2 0x2569 DUP3 PUSH2 0x2528 JUMP JUMPDEST PUSH1 0x20 DUP3 ADD SWAP1 POP SWAP2 SWAP1 POP JUMP JUMPDEST PUSH1 0x0 PUSH1 0x20 DUP3 ADD SWAP1 POP DUP2 DUP2 SUB PUSH1 0x0 DUP4 ADD MSTORE PUSH2 0x258D DUP2 PUSH2 0x2551 JUMP JUMPDEST SWAP1 POP SWAP2 SWAP1 POP JUMP JUMPDEST PUSH32 0x4552433732313A2063616C6C6572206973206E6F7420746F6B656E206F776E65 PUSH1 0x0 DUP3 ADD MSTORE PUSH32 0x72206F7220617070726F76656400000000000000000000000000000000000000 PUSH1 0x20 DUP3 ADD MSTORE POP JUMP JUMPDEST PUSH1 0x0 PUSH2 0x25F0 PUSH1 0x2D DUP4 PUSH2 0x1EC4 JUMP JUMPDEST SWAP2 POP PUSH2 0x25FB DUP3 PUSH2 0x2594 JUMP JUMPDEST PUSH1 0x40 DUP3 ADD SWAP1 POP SWAP2 SWAP1 POP JUMP JUMPDEST PUSH1 0x0 PUSH1 0x20 DUP3 ADD SWAP1 POP DUP2 DUP2 SUB PUSH1 0x0 DUP4 ADD MSTORE PUSH2 0x261F DUP2 PUSH2 0x25E3 JUMP JUMPDEST SWAP1 POP SWAP2 SWAP1 POP JUMP JUMPDEST PUSH32 0x4E6F2062616C616E636520746F20776974686472617700000000000000000000 PUSH1 0x0 DUP3 ADD MSTORE POP JUMP JUMPDEST PUSH1 0x0 PUSH2 0x265C PUSH1 0x16 DUP4 PUSH2 0x1EC4 JUMP JUMPDEST SWAP2 POP PUSH2 0x2667 DUP3 PUSH2 0x2626 JUMP JUMPDEST PUSH1 0x20 DUP3 ADD SWAP1 POP SWAP2 SWAP1 POP JUMP JUMPDEST PUSH1 0x0 PUSH1 0x20 DUP3 ADD SWAP1 POP DUP2 DUP2 SUB PUSH1 0x0 DUP4 ADD MSTORE PUSH2 0x268B DUP2 PUSH2 0x264F JUMP JUMPDEST SWAP1 POP SWAP2 SWAP1 POP JUMP JUMPDEST PUSH32 0x4552433732313A20696E76616C696420746F6B656E2049440000000000000000 PUSH1 0x0 DUP3 ADD MSTORE POP JUMP JUMPDEST PUSH1 0x0 PUSH2 0x26C8 PUSH1 0x18 DUP4 PUSH2 0x1EC4 JUMP JUMPDEST SWAP2 POP PUSH2 0x26D3 DUP3 PUSH2 0x2692 JUMP JUMPDEST PUSH1 0x20 DUP3 ADD SWAP1 POP SWAP2 SWAP1 POP JUMP JUMPDEST PUSH1 0x0 PUSH1 0x20 DUP3 ADD SWAP1 POP DUP2 DUP2 SUB PUSH1 0x0 DUP4 ADD MSTORE PUSH2 0x26F7 DUP2 PUSH2 0x26BB JUMP JUMPDEST SWAP1 POP SWAP2 SWAP1 POP JUMP JUMPDEST PUSH32 0x4552433732313A2061646472657373207A65726F206973206E6F742061207661 PUSH1 0x0 DUP3 ADD MSTORE PUSH32 0x6C6964206F776E65720000000000000000000000000000000000000000000000 PUSH1 0x20 DUP3 ADD MSTORE POP JUMP JUMPDEST PUSH1 0x0 PUSH2 0x275A PUSH1 0x29 DUP4 PUSH2 0x1EC4 JUMP JUMPDEST SWAP2 POP PUSH2 0x2765 DUP3 PUSH2 0x26FE JUMP JUMPDEST PUSH1 0x40 DUP3 ADD SWAP1 POP SWAP2 SWAP1 POP JUMP JUMPDEST PUSH1 0x0 PUSH1 0x20 DUP3 ADD SWAP1 POP DUP2 DUP2 SUB PUSH1 0x0 DUP4 ADD MSTORE PUSH2 0x2789 DUP2 PUSH2 0x274D JUMP JUMPDEST SWAP1 POP SWAP2 SWAP1 POP JUMP JUMPDEST PUSH1 0x0 DUP2 SWAP1 POP SWAP3 SWAP2 POP POP JUMP JUMPDEST PUSH1 0x0 PUSH2 0x27A6 DUP3 PUSH2 0x1EB9 JUMP JUMPDEST PUSH2 0x27B0 DUP2 DUP6 PUSH2 0x2790 JUMP JUMPDEST SWAP4 POP PUSH2 0x27C0 DUP2 DUP6 PUSH1 0x20 DUP7 ADD PUSH2 0x1ED5 JUMP JUMPDEST DUP1 DUP5 ADD SWAP2 POP POP SWAP3 SWAP2 POP POP JUMP JUMPDEST PUSH1 0x0 PUSH2 0x27D8 DUP3 DUP6 PUSH2 0x279B JUMP JUMPDEST SWAP2 POP PUSH2 0x27E4 DUP3 DUP5 PUSH2 0x279B JUMP JUMPDEST SWAP2 POP DUP2 SWAP1 POP SWAP4 SWAP3 POP POP POP JUMP JUMPDEST PUSH32 0x4F776E61626C653A206E6577206F776E657220697320746865207A65726F2061 PUSH1 0x0 DUP3 ADD MSTORE PUSH32 0x6464726573730000000000000000000000000000000000000000000000000000 PUSH1 0x20 DUP3 ADD MSTORE POP JUMP JUMPDEST PUSH1 0x0 PUSH2 0x284C PUSH1 0x26 DUP4 PUSH2 0x1EC4 JUMP JUMPDEST SWAP2 POP PUSH2 0x2857 DUP3 PUSH2 0x27F0 JUMP JUMPDEST PUSH1 0x40 DUP3 ADD SWAP1 POP SWAP2 SWAP1 POP JUMP JUMPDEST PUSH1 0x0 PUSH1 0x20 DUP3 ADD SWAP1 POP DUP2 DUP2 SUB PUSH1 0x0 DUP4 ADD MSTORE PUSH2 0x287B DUP2 PUSH2 0x283F JUMP JUMPDEST SWAP1 POP SWAP2 SWAP1 POP JUMP JUMPDEST PUSH32 0x4552433732313A206D696E7420746F20746865207A65726F2061646472657373 PUSH1 0x0 DUP3 ADD MSTORE POP JUMP JUMPDEST PUSH1 0x0 PUSH2 0x28B8 PUSH1 0x20 DUP4 PUSH2 0x1EC4 JUMP JUMPDEST SWAP2 POP PUSH2 0x28C3 DUP3 PUSH2 0x2882 JUMP JUMPDEST PUSH1 0x20 DUP3 ADD SWAP1 POP SWAP2 SWAP1 POP JUMP JUMPDEST PUSH1 0x0 PUSH1 0x20 DUP3 ADD SWAP1 POP DUP2 DUP2 SUB PUSH1 0x0 DUP4 ADD MSTORE PUSH2 0x28E7 DUP2 PUSH2 0x28AB JUMP JUMPDEST SWAP1 POP SWAP2 SWAP1 POP JUMP JUMPDEST PUSH32 0x4552433732313A20746F6B656E20616C7265616479206D696E74656400000000 PUSH1 0x0 DUP3 ADD MSTORE POP JUMP JUMPDEST PUSH1 0x0 PUSH2 0x2924 PUSH1 0x1C DUP4 PUSH2 0x1EC4 JUMP JUMPDEST SWAP2 POP PUSH2 0x292F DUP3 PUSH2 0x28EE JUMP JUMPDEST PUSH1 0x20 DUP3 ADD SWAP1 POP SWAP2 SWAP1 POP JUMP JUMPDEST PUSH1 0x0 PUSH1 0x20 DUP3 ADD SWAP1 POP DUP2 DUP2 SUB PUSH1 0x0 DUP4 ADD MSTORE PUSH2 0x2953 DUP2 PUSH2 0x2917 JUMP JUMPDEST SWAP1 POP SWAP2 SWAP1 POP JUMP JUMPDEST PUSH32 0x4552433732313A207472616E736665722066726F6D20696E636F727265637420 PUSH1 0x0 DUP3 ADD MSTORE PUSH32 0x6F776E6572000000000000000000000000000000000000000000000000000000 PUSH1 0x20 DUP3 ADD MSTORE POP JUMP JUMPDEST PUSH1 0x0 PUSH2 0x29B6 PUSH1 0x25 DUP4 PUSH2 0x1EC4 JUMP JUMPDEST SWAP2 POP PUSH2 0x29C1 DUP3 PUSH2 0x295A JUMP JUMPDEST PUSH1 0x40 DUP3 ADD SWAP1 POP SWAP2 SWAP1 POP JUMP JUMPDEST PUSH1 0x0 PUSH1 0x20 DUP3 ADD SWAP1 POP DUP2 DUP2 SUB PUSH1 0x0 DUP4 ADD MSTORE PUSH2 0x29E5 DUP2 PUSH2 0x29A9 JUMP JUMPDEST SWAP1 POP SWAP2 SWAP1 POP JUMP JUMPDEST PUSH32 0x4552433732313A207472616E7366657220746F20746865207A65726F20616464 PUSH1 0x0 DUP3 ADD MSTORE PUSH32 0x7265737300000000000000000000000000000000000000000000000000000000 PUSH1 0x20 DUP3 ADD MSTORE POP JUMP JUMPDEST PUSH1 0x0 PUSH2 0x2A48 PUSH1 0x24 DUP4 PUSH2 0x1EC4 JUMP JUMPDEST SWAP2 POP PUSH2 0x2A53 DUP3 PUSH2 0x29EC JUMP JUMPDEST PUSH1 0x40 DUP3 ADD SWAP1 POP SWAP2 SWAP1 POP JUMP JUMPDEST PUSH1 0x0 PUSH1 0x20 DUP3 ADD SWAP1 POP DUP2 DUP2 SUB PUSH1 0x0 DUP4 ADD MSTORE PUSH2 0x2A77 DUP2 PUSH2 0x2A3B JUMP JUMPDEST SWAP1 POP SWAP2 SWAP1 POP JUMP JUMPDEST PUSH32 0x4F776E61626C653A2063616C6C6572206973206E6F7420746865206F776E6572 PUSH1 0x0 DUP3 ADD MSTORE POP JUMP JUMPDEST PUSH1 0x0 PUSH2 0x2AB4 PUSH1 0x20 DUP4 PUSH2 0x1EC4 JUMP JUMPDEST SWAP2 POP PUSH2 0x2ABF DUP3 PUSH2 0x2A7E JUMP JUMPDEST PUSH1 0x20 DUP3 ADD SWAP1 POP SWAP2 SWAP1 POP JUMP JUMPDEST PUSH1 0x0 PUSH1 0x20 DUP3 ADD SWAP1 POP DUP2 DUP2 SUB PUSH1 0x0 DUP4 ADD MSTORE PUSH2 0x2AE3 DUP2 PUSH2 0x2AA7 JUMP JUMPDEST SWAP1 POP SWAP2 SWAP1 POP JUMP JUMPDEST PUSH32 0x4552433732313A20617070726F766520746F2063616C6C657200000000000000 PUSH1 0x0 DUP3 ADD MSTORE POP JUMP JUMPDEST PUSH1 0x0 PUSH2 0x2B20 PUSH1 0x19 DUP4 PUSH2 0x1EC4 JUMP JUMPDEST SWAP2 POP PUSH2 0x2B2B DUP3 PUSH2 0x2AEA JUMP JUMPDEST PUSH1 0x20 DUP3 ADD SWAP1 POP SWAP2 SWAP1 POP JUMP JUMPDEST PUSH1 0x0 PUSH1 0x20 DUP3 ADD SWAP1 POP DUP2 DUP2 SUB PUSH1 0x0 DUP4 ADD MSTORE PUSH2 0x2B4F DUP2 PUSH2 0x2B13 JUMP JUMPDEST SWAP1 POP SWAP2 SWAP1 POP JUMP JUMPDEST PUSH32 0x4552433732313A207472616E7366657220746F206E6F6E204552433732315265 PUSH1 0x0 DUP3 ADD MSTORE PUSH32 0x63656976657220696D706C656D656E7465720000000000000000000000000000 PUSH1 0x20 DUP3 ADD MSTORE POP JUMP JUMPDEST PUSH1 0x0 PUSH2 0x2BB2 PUSH1 0x32 DUP4 PUSH2 0x1EC4 JUMP JUMPDEST SWAP2 POP PUSH2 0x2BBD DUP3 PUSH2 0x2B56 JUMP JUMPDEST PUSH1 0x40 DUP3 ADD SWAP1 POP SWAP2 SWAP1 POP JUMP JUMPDEST PUSH1 0x0 PUSH1 0x20 DUP3 ADD SWAP1 POP DUP2 DUP2 SUB PUSH1 0x0 DUP4 ADD MSTORE PUSH2 0x2BE1 DUP2 PUSH2 0x2BA5 JUMP JUMPDEST SWAP1 POP SWAP2 SWAP1 POP JUMP JUMPDEST PUSH32 0x4E487B7100000000000000000000000000000000000000000000000000000000 PUSH1 0x0 MSTORE PUSH1 0x12 PUSH1 0x4 MSTORE PUSH1 0x24 PUSH1 0x0 REVERT JUMPDEST PUSH1 0x0 DUP2 MLOAD SWAP1 POP SWAP2 SWAP1 POP JUMP JUMPDEST PUSH1 0x0 DUP3 DUP3 MSTORE PUSH1 0x20 DUP3 ADD SWAP1 POP SWAP3 SWAP2 POP POP JUMP JUMPDEST PUSH1 0x0 PUSH2 0x2C3E DUP3 PUSH2 0x2C17 JUMP JUMPDEST PUSH2 0x2C48 DUP2 DUP6 PUSH2 0x2C22 JUMP JUMPDEST SWAP4 POP PUSH2 0x2C58 DUP2 DUP6 PUSH1 0x20 DUP7 ADD PUSH2 0x1ED5 JUMP JUMPDEST PUSH2 0x2C61 DUP2 PUSH2 0x1EFF JUMP JUMPDEST DUP5 ADD SWAP2 POP POP SWAP3 SWAP2 POP POP JUMP JUMPDEST PUSH1 0x0 PUSH1 0x80 DUP3 ADD SWAP1 POP PUSH2 0x2C81 PUSH1 0x0 DUP4 ADD DUP8 PUSH2 0x2000 JUMP JUMPDEST PUSH2 0x2C8E PUSH1 0x20 DUP4 ADD DUP7 PUSH2 0x2000 JUMP JUMPDEST PUSH2 0x2C9B PUSH1 0x40 DUP4 ADD DUP6 PUSH2 0x20E9 JUMP JUMPDEST DUP2 DUP2 SUB PUSH1 0x60 DUP4 ADD MSTORE PUSH2 0x2CAD DUP2 DUP5 PUSH2 0x2C33 JUMP JUMPDEST SWAP1 POP SWAP6 SWAP5 POP POP POP POP POP JUMP JUMPDEST PUSH1 0x0 DUP2 MLOAD SWAP1 POP PUSH2 0x2CC7 DUP2 PUSH2 0x1E2A JUMP JUMPDEST SWAP3 SWAP2 POP POP JUMP JUMPDEST PUSH1 0x0 PUSH1 0x20 DUP3 DUP5 SUB SLT ISZERO PUSH2 0x2CE3 JUMPI PUSH2 0x2CE2 PUSH2 0x1DF4 JUMP JUMPDEST JUMPDEST PUSH1 0x0 PUSH2 0x2CF1 DUP5 DUP3 DUP6 ADD PUSH2 0x2CB8 JUMP JUMPDEST SWAP2 POP POP SWAP3 SWAP2 POP POP JUMP INVALID LOG2 PUSH5 0x6970667358 0x22 SLT KECCAK256 0xA8 RETURNDATACOPY SWAP9 0xAA 0xC7 0xAF 0xCA 0xE4 LOG3 SIGNEXTEND 0xDE SMOD 0xAF EXTCODESIZE 0x2E 0xB1 0xAE DELEGATECALL PUSH15 0xC7CB68520E9CE0C657248033A46473 PUSH16 0x6C634300081200330000000000000000 "
		},
		"gasEstimates": {
			"creation": {
				"codeDepositCost": "2313600",
				"executionCost": "infinite",
				"totalCost": "infinite"
			},
			"external": {
				"approve(address,uint256)": "infinite",
				"balanceOf(address)": "2921",
				"balances(uint256)": "infinite",
				"burnNFT(uint256)": "infinite",
				"getApproved(uint256)": "5300",
				"isApprovedForAll(address,address)": "infinite",
				"mintNFT()": "infinite",
				"name()": "infinite",
				"owner()": "2633",
				"ownerOf(uint256)": "3132",
				"renounceOwnership()": "30465",
				"safeTransferFrom(address,address,uint256)": "infinite",
				"safeTransferFrom(address,address,uint256,bytes)": "infinite",
				"setApprovalForAll(address,bool)": "infinite",
				"setTokenPrice(uint256)": "24807",
				"supportsInterface(bytes4)": "797",
				"symbol()": "infinite",
				"tokenPrice()": "2518",
				"tokenURI(uint256)": "3481",
				"transferFrom(address,address,uint256)": "infinite",
				"transferOwnership(address)": "30876",
				"withdrawBalance()": "infinite"
			}
		},
		"methodIdentifiers": {
			"approve(address,uint256)": "095ea7b3",
			"balanceOf(address)": "70a08231",
			"balances(uint256)": "4903b0d1",
			"burnNFT(uint256)": "2890e0d7",
			"getApproved(uint256)": "081812fc",
			"isApprovedForAll(address,address)": "e985e9c5",
			"mintNFT()": "14f710fe",
			"name()": "06fdde03",
			"owner()": "8da5cb5b",
			"ownerOf(uint256)": "6352211e",
			"renounceOwnership()": "715018a6",
			"safeTransferFrom(address,address,uint256)": "42842e0e",
			"safeTransferFrom(address,address,uint256,bytes)": "b88d4fde",
			"setApprovalForAll(address,bool)": "a22cb465",
			"setTokenPrice(uint256)": "6a61e5fc",
			"supportsInterface(bytes4)": "01ffc9a7",
			"symbol()": "95d89b41",
			"tokenPrice()": "7ff9b596",
			"tokenURI(uint256)": "c87b56dd",
			"transferFrom(address,address,uint256)": "23b872dd",
			"transferOwnership(address)": "f2fde38b",
			"withdrawBalance()": "5fd8c710"
		}
	},
	"abi": [
		{
			"inputs": [],
			"stateMutability": "nonpayable",
			"type": "constructor"
		},
		{
			"anonymous": false,
			"inputs": [
				{
					"indexed": true,
					"internalType": "address",
					"name": "owner",
					"type": "address"
				},
				{
					"indexed": true,
					"internalType": "address",
					"name": "approved",
					"type": "address"
				},
				{
					"indexed": true,
					"internalType": "uint256",
					"name": "tokenId",
					"type": "uint256"
				}
			],
			"name": "Approval",
			"type": "event"
		},
		{
			"anonymous": false,
			"inputs": [
				{
					"indexed": true,
					"internalType": "address",
					"name": "owner",
					"type": "address"
				},
				{
					"indexed": true,
					"internalType": "address",
					"name": "operator",
					"type": "address"
				},
				{
					"indexed": false,
					"internalType": "bool",
					"name": "approved",
					"type": "bool"
				}
			],
			"name": "ApprovalForAll",
			"type": "event"
		},
		{
			"anonymous": false,
			"inputs": [
				{
					"indexed": true,
					"internalType": "address",
					"name": "previousOwner",
					"type": "address"
				},
				{
					"indexed": true,
					"internalType": "address",
					"name": "newOwner",
					"type": "address"
				}
			],
			"name": "OwnershipTransferred",
			"type": "event"
		},
		{
			"anonymous": false,
			"inputs": [
				{
					"indexed": true,
					"internalType": "address",
					"name": "from",
					"type": "address"
				},
				{
					"indexed": true,
					"internalType": "address",
					"name": "to",
					"type": "address"
				},
				{
					"indexed": true,
					"internalType": "uint256",
					"name": "tokenId",
					"type": "uint256"
				}
			],
			"name": "Transfer",
			"type": "event"
		},
		{
			"inputs": [
				{
					"internalType": "address",
					"name": "to",
					"type": "address"
				},
				{
					"internalType": "uint256",
					"name": "tokenId",
					"type": "uint256"
				}
			],
			"name": "approve",
			"outputs": [],
			"stateMutability": "nonpayable",
			"type": "function"
		},
		{
			"inputs": [
				{
					"internalType": "address",
					"name": "owner",
					"type": "address"
				}
			],
			"name": "balanceOf",
			"outputs": [
				{
					"internalType": "uint256",
					"name": "",
					"type": "uint256"
				}
			],
			"stateMutability": "view",
			"type": "function"
		},
		{
			"inputs": [
				{
					"internalType": "uint256",
					"name": "",
					"type": "uint256"
				}
			],
			"name": "balances",
			"outputs": [
				{
					"internalType": "uint256",
					"name": "",
					"type": "uint256"
				}
			],
			"stateMutability": "view",
			"type": "function"
		},
		{
			"inputs": [
				{
					"internalType": "uint256",
					"name": "tokenId",
					"type": "uint256"
				}
			],
			"name": "burnNFT",
			"outputs": [],
			"stateMutability": "nonpayable",
			"type": "function"
		},
		{
			"inputs": [
				{
					"internalType": "uint256",
					"name": "tokenId",
					"type": "uint256"
				}
			],
			"name": "getApproved",
			"outputs": [
				{
					"internalType": "address",
					"name": "",
					"type": "address"
				}
			],
			"stateMutability": "view",
			"type": "function"
		},
		{
			"inputs": [
				{
					"internalType": "address",
					"name": "owner",
					"type": "address"
				},
				{
					"internalType": "address",
					"name": "operator",
					"type": "address"
				}
			],
			"name": "isApprovedForAll",
			"outputs": [
				{
					"internalType": "bool",
					"name": "",
					"type": "bool"
				}
			],
			"stateMutability": "view",
			"type": "function"
		},
		{
			"inputs": [],
			"name": "mintNFT",
			"outputs": [],
			"stateMutability": "payable",
			"type": "function"
		},
		{
			"inputs": [],
			"name": "name",
			"outputs": [
				{
					"internalType": "string",
					"name": "",
					"type": "string"
				}
			],
			"stateMutability": "view",
			"type": "function"
		},
		{
			"inputs": [],
			"name": "owner",
			"outputs": [
				{
					"internalType": "address",
					"name": "",
					"type": "address"
				}
			],
			"stateMutability": "view",
			"type": "function"
		},
		{
			"inputs": [
				{
					"internalType": "uint256",
					"name": "tokenId",
					"type": "uint256"
				}
			],
			"name": "ownerOf",
			"outputs": [
				{
					"internalType": "address",
					"name": "",
					"type": "address"
				}
			],
			"stateMutability": "view",
			"type": "function"
		},
		{
			"inputs": [],
			"name": "renounceOwnership",
			"outputs": [],
			"stateMutability": "nonpayable",
			"type": "function"
		},
		{
			"inputs": [
				{
					"internalType": "address",
					"name": "from",
					"type": "address"
				},
				{
					"internalType": "address",
					"name": "to",
					"type": "address"
				},
				{
					"internalType": "uint256",
					"name": "tokenId",
					"type": "uint256"
				}
			],
			"name": "safeTransferFrom",
			"outputs": [],
			"stateMutability": "nonpayable",
			"type": "function"
		},
		{
			"inputs": [
				{
					"internalType": "address",
					"name": "from",
					"type": "address"
				},
				{
					"internalType": "address",
					"name": "to",
					"type": "address"
				},
				{
					"internalType": "uint256",
					"name": "tokenId",
					"type": "uint256"
				},
				{
					"internalType": "bytes",
					"name": "data",
					"type": "bytes"
				}
			],
			"name": "safeTransferFrom",
			"outputs": [],
			"stateMutability": "nonpayable",
			"type": "function"
		},
		{
			"inputs": [
				{
					"internalType": "address",
					"name": "operator",
					"type": "address"
				},
				{
					"internalType": "bool",
					"name": "approved",
					"type": "bool"
				}
			],
			"name": "setApprovalForAll",
			"outputs": [],
			"stateMutability": "nonpayable",
			"type": "function"
		},
		{
			"inputs": [
				{
					"internalType": "uint256",
					"name": "newPrice",
					"type": "uint256"
				}
			],
			"name": "setTokenPrice",
			"outputs": [],
			"stateMutability": "nonpayable",
			"type": "function"
		},
		{
			"inputs": [
				{
					"internalType": "bytes4",
					"name": "interfaceId",
					"type": "bytes4"
				}
			],
			"name": "supportsInterface",
			"outputs": [
				{
					"internalType": "bool",
					"name": "",
					"type": "bool"
				}
			],
			"stateMutability": "view",
			"type": "function"
		},
		{
			"inputs": [],
			"name": "symbol",
			"outputs": [
				{
					"internalType": "string",
					"name": "",
					"type": "string"
				}
			],
			"stateMutability": "view",
			"type": "function"
		},
		{
			"inputs": [],
			"name": "tokenPrice",
			"outputs": [
				{
					"internalType": "uint256",
					"name": "",
					"type": "uint256"
				}
			],
			"stateMutability": "view",
			"type": "function"
		},
		{
			"inputs": [
				{
					"internalType": "uint256",
					"name": "tokenId",
					"type": "uint256"
				}
			],
			"name": "tokenURI",
			"outputs": [
				{
					"internalType": "string",
					"name": "",
					"type": "string"
				}
			],
			"stateMutability": "view",
			"type": "function"
		},
		{
			"inputs": [
				{
					"internalType": "address",
					"name": "from",
					"type": "address"
				},
				{
					"internalType": "address",
					"name": "to",
					"type": "address"
				},
				{
					"internalType": "uint256",
					"name": "tokenId",
					"type": "uint256"
				}
			],
			"name": "transferFrom",
			"outputs": [],
			"stateMutability": "nonpayable",
			"type": "function"
		},
		{
			"inputs": [
				{
					"internalType": "address",
					"name": "newOwner",
					"type": "address"
				}
			],
			"name": "transferOwnership",
			"outputs": [],
			"stateMutability": "nonpayable",
			"type": "function"
		},
		{
			"inputs": [],
			"name": "withdrawBalance",
			"outputs": [],
			"stateMutability": "nonpayable",
			"type": "function"
		}
	]
}