{
	"data": {
		"bytecode": {
			"linkReferences": {},
			"object": "608060405234801561001057600080fd5b506105a8806100206000396000f3fe608060405234801561001057600080fd5b50600436106100575760003560e01c80633e3449721461005c578063584b62a11461007a5780637b0472f0146100ac578063e9c4aa6a146100c8578063ea0bb54b146100fa575b600080fd5b61006461012a565b6040516100719190610354565b60405180910390f35b610094600480360381019061008f91906103fe565b610170565b6040516100a39392919061043e565b60405180910390f35b6100c660048036038101906100c19190610475565b6101a7565b005b6100e260048036038101906100dd91906104b5565b6102ae565b6040516100f19392919061043e565b60405180910390f35b610114600480360381019061010f91906104e2565b610323565b6040516101219190610354565b60405180910390f35b60008060003373ffffffffffffffffffffffffffffffffffffffff1673ffffffffffffffffffffffffffffffffffffffff16815260200190815260200160002054905090565b6001602052816000526040600020602052806000526040600020600091509150508060000154908060010154908060020154905083565b600060016000803373ffffffffffffffffffffffffffffffffffffffff1673ffffffffffffffffffffffffffffffffffffffff168152602001908152602001600020546101f4919061053e565b9050806000803373ffffffffffffffffffffffffffffffffffffffff1673ffffffffffffffffffffffffffffffffffffffff168152602001908152602001600020819055506000600160003373ffffffffffffffffffffffffffffffffffffffff1673ffffffffffffffffffffffffffffffffffffffff1681526020019081526020016000206000838152602001908152602001600020905083816000018190555042816001018190555082816002018190555050505050565b600080600080600160003373ffffffffffffffffffffffffffffffffffffffff1673ffffffffffffffffffffffffffffffffffffffff16815260200190815260200160002060008681526020019081526020016000209050806000015481600101548260020154935093509350509193909250565b60006020528060005260406000206000915090505481565b6000819050919050565b61034e8161033b565b82525050565b60006020820190506103696000830184610345565b92915050565b600080fd5b600073ffffffffffffffffffffffffffffffffffffffff82169050919050565b600061039f82610374565b9050919050565b6103af81610394565b81146103ba57600080fd5b50565b6000813590506103cc816103a6565b92915050565b6103db8161033b565b81146103e657600080fd5b50565b6000813590506103f8816103d2565b92915050565b600080604083850312156104155761041461036f565b5b6000610423858286016103bd565b9250506020610434858286016103e9565b9150509250929050565b60006060820190506104536000830186610345565b6104606020830185610345565b61046d6040830184610345565b949350505050565b6000806040838503121561048c5761048b61036f565b5b600061049a858286016103e9565b92505060206104ab858286016103e9565b9150509250929050565b6000602082840312156104cb576104ca61036f565b5b60006104d9848285016103e9565b91505092915050565b6000602082840312156104f8576104f761036f565b5b6000610506848285016103bd565b91505092915050565b7f4e487b7100000000000000000000000000000000000000000000000000000000600052601160045260246000fd5b60006105498261033b565b91506105548361033b565b925082820190508082111561056c5761056b61050f565b5b9291505056fea2646970667358221220a658c3458c7e57562581f3dd4839905ebda7f5ebb7b667973b9c965572f1e44964736f6c63430008120033",
			"opcodes": "PUSH1 0x80 PUSH1 0x40 MSTORE CALLVALUE DUP1 ISZERO PUSH2 0x10 JUMPI PUSH1 0x0 DUP1 REVERT JUMPDEST POP PUSH2 0x5A8 DUP1 PUSH2 0x20 PUSH1 0x0 CODECOPY PUSH1 0x0 RETURN INVALID PUSH1 0x80 PUSH1 0x40 MSTORE CALLVALUE DUP1 ISZERO PUSH2 0x10 JUMPI PUSH1 0x0 DUP1 REVERT JUMPDEST POP PUSH1 0x4 CALLDATASIZE LT PUSH2 0x57 JUMPI PUSH1 0x0 CALLDATALOAD PUSH1 0xE0 SHR DUP1 PUSH4 0x3E344972 EQ PUSH2 0x5C JUMPI DUP1 PUSH4 0x584B62A1 EQ PUSH2 0x7A JUMPI DUP1 PUSH4 0x7B0472F0 EQ PUSH2 0xAC JUMPI DUP1 PUSH4 0xE9C4AA6A EQ PUSH2 0xC8 JUMPI DUP1 PUSH4 0xEA0BB54B EQ PUSH2 0xFA JUMPI JUMPDEST PUSH1 0x0 DUP1 REVERT JUMPDEST PUSH2 0x64 PUSH2 0x12A JUMP JUMPDEST PUSH1 0x40 MLOAD PUSH2 0x71 SWAP2 SWAP1 PUSH2 0x354 JUMP JUMPDEST PUSH1 0x40 MLOAD DUP1 SWAP2 SUB SWAP1 RETURN JUMPDEST PUSH2 0x94 PUSH1 0x4 DUP1 CALLDATASIZE SUB DUP2 ADD SWAP1 PUSH2 0x8F SWAP2 SWAP1 PUSH2 0x3FE JUMP JUMPDEST PUSH2 0x170 JUMP JUMPDEST PUSH1 0x40 MLOAD PUSH2 0xA3 SWAP4 SWAP3 SWAP2 SWAP1 PUSH2 0x43E JUMP JUMPDEST PUSH1 0x40 MLOAD DUP1 SWAP2 SUB SWAP1 RETURN JUMPDEST PUSH2 0xC6 PUSH1 0x4 DUP1 CALLDATASIZE SUB DUP2 ADD SWAP1 PUSH2 0xC1 SWAP2 SWAP1 PUSH2 0x475 JUMP JUMPDEST PUSH2 0x1A7 JUMP JUMPDEST STOP JUMPDEST PUSH2 0xE2 PUSH1 0x4 DUP1 CALLDATASIZE SUB DUP2 ADD SWAP1 PUSH2 0xDD SWAP2 SWAP1 PUSH2 0x4B5 JUMP JUMPDEST PUSH2 0x2AE JUMP JUMPDEST PUSH1 0x40 MLOAD PUSH2 0xF1 SWAP4 SWAP3 SWAP2 SWAP1 PUSH2 0x43E JUMP JUMPDEST PUSH1 0x40 MLOAD DUP1 SWAP2 SUB SWAP1 RETURN JUMPDEST PUSH2 0x114 PUSH1 0x4 DUP1 CALLDATASIZE SUB DUP2 ADD SWAP1 PUSH2 0x10F SWAP2 SWAP1 PUSH2 0x4E2 JUMP JUMPDEST PUSH2 0x323 JUMP JUMPDEST PUSH1 0x40 MLOAD PUSH2 0x121 SWAP2 SWAP1 PUSH2 0x354 JUMP JUMPDEST PUSH1 0x40 MLOAD DUP1 SWAP2 SUB SWAP1 RETURN JUMPDEST PUSH1 0x0 DUP1 PUSH1 0x0 CALLER PUSH20 0xFFFFFFFFFFFFFFFFFFFFFFFFFFFFFFFFFFFFFFFF AND PUSH20 0xFFFFFFFFFFFFFFFFFFFFFFFFFFFFFFFFFFFFFFFF AND DUP2 MSTORE PUSH1 0x20 ADD SWAP1 DUP2 MSTORE PUSH1 0x20 ADD PUSH1 0x0 KECCAK256 SLOAD SWAP1 POP SWAP1 JUMP JUMPDEST PUSH1 0x1 PUSH1 0x20 MSTORE DUP2 PUSH1 0x0 MSTORE PUSH1 0x40 PUSH1 0x0 KECCAK256 PUSH1 0x20 MSTORE DUP1 PUSH1 0x0 MSTORE PUSH1 0x40 PUSH1 0x0 KECCAK256 PUSH1 0x0 SWAP2 POP SWAP2 POP POP DUP1 PUSH1 0x0 ADD SLOAD SWAP1 DUP1 PUSH1 0x1 ADD SLOAD SWAP1 DUP1 PUSH1 0x2 ADD SLOAD SWAP1 POP DUP4 JUMP JUMPDEST PUSH1 0x0 PUSH1 0x1 PUSH1 0x0 DUP1 CALLER PUSH20 0xFFFFFFFFFFFFFFFFFFFFFFFFFFFFFFFFFFFFFFFF AND PUSH20 0xFFFFFFFFFFFFFFFFFFFFFFFFFFFFFFFFFFFFFFFF AND DUP2 MSTORE PUSH1 0x20 ADD SWAP1 DUP2 MSTORE PUSH1 0x20 ADD PUSH1 0x0 KECCAK256 SLOAD PUSH2 0x1F4 SWAP2 SWAP1 PUSH2 0x53E JUMP JUMPDEST SWAP1 POP DUP1 PUSH1 0x0 DUP1 CALLER PUSH20 0xFFFFFFFFFFFFFFFFFFFFFFFFFFFFFFFFFFFFFFFF AND PUSH20 0xFFFFFFFFFFFFFFFFFFFFFFFFFFFFFFFFFFFFFFFF AND DUP2 MSTORE PUSH1 0x20 ADD SWAP1 DUP2 MSTORE PUSH1 0x20 ADD PUSH1 0x0 KECCAK256 DUP2 SWAP1 SSTORE POP PUSH1 0x0 PUSH1 0x1 PUSH1 0x0 CALLER PUSH20 0xFFFFFFFFFFFFFFFFFFFFFFFFFFFFFFFFFFFFFFFF AND PUSH20 0xFFFFFFFFFFFFFFFFFFFFFFFFFFFFFFFFFFFFFFFF AND DUP2 MSTORE PUSH1 0x20 ADD SWAP1 DUP2 MSTORE PUSH1 0x20 ADD PUSH1 0x0 KECCAK256 PUSH1 0x0 DUP4 DUP2 MSTORE PUSH1 0x20 ADD SWAP1 DUP2 MSTORE PUSH1 0x20 ADD PUSH1 0x0 KECCAK256 SWAP1 POP DUP4 DUP2 PUSH1 0x0 ADD DUP2 SWAP1 SSTORE POP TIMESTAMP DUP2 PUSH1 0x1 ADD DUP2 SWAP1 SSTORE POP DUP3 DUP2 PUSH1 0x2 ADD DUP2 SWAP1 SSTORE POP POP POP POP POP JUMP JUMPDEST PUSH1 0x0 DUP1 PUSH1 0x0 DUP1 PUSH1 0x1 PUSH1 0x0 CALLER PUSH20 0xFFFFFFFFFFFFFFFFFFFFFFFFFFFFFFFFFFFFFFFF AND PUSH20 0xFFFFFFFFFFFFFFFFFFFFFFFFFFFFFFFFFFFFFFFF AND DUP2 MSTORE PUSH1 0x20 ADD SWAP1 DUP2 MSTORE PUSH1 0x20 ADD PUSH1 0x0 KECCAK256 PUSH1 0x0 DUP7 DUP2 MSTORE PUSH1 0x20 ADD SWAP1 DUP2 MSTORE PUSH1 0x20 ADD PUSH1 0x0 KECCAK256 SWAP1 POP DUP1 PUSH1 0x0 ADD SLOAD DUP2 PUSH1 0x1 ADD SLOAD DUP3 PUSH1 0x2 ADD SLOAD SWAP4 POP SWAP4 POP SWAP4 POP POP SWAP2 SWAP4 SWAP1 SWAP3 POP JUMP JUMPDEST PUSH1 0x0 PUSH1 0x20 MSTORE DUP1 PUSH1 0x0 MSTORE PUSH1 0x40 PUSH1 0x0 KECCAK256 PUSH1 0x0 SWAP2 POP SWAP1 POP SLOAD DUP2 JUMP JUMPDEST PUSH1 0x0 DUP2 SWAP1 POP SWAP2 SWAP1 POP JUMP JUMPDEST PUSH2 0x34E DUP2 PUSH2 0x33B JUMP JUMPDEST DUP3 MSTORE POP POP JUMP JUMPDEST PUSH1 0x0 PUSH1 0x20 DUP3 ADD SWAP1 POP PUSH2 0x369 PUSH1 0x0 DUP4 ADD DUP5 PUSH2 0x345 JUMP JUMPDEST SWAP3 SWAP2 POP POP JUMP JUMPDEST PUSH1 0x0 DUP1 REVERT JUMPDEST PUSH1 0x0 PUSH20 0xFFFFFFFFFFFFFFFFFFFFFFFFFFFFFFFFFFFFFFFF DUP3 AND SWAP1 POP SWAP2 SWAP1 POP JUMP JUMPDEST PUSH1 0x0 PUSH2 0x39F DUP3 PUSH2 0x374 JUMP JUMPDEST SWAP1 POP SWAP2 SWAP1 POP JUMP JUMPDEST PUSH2 0x3AF DUP2 PUSH2 0x394 JUMP JUMPDEST DUP2 EQ PUSH2 0x3BA JUMPI PUSH1 0x0 DUP1 REVERT JUMPDEST POP JUMP JUMPDEST PUSH1 0x0 DUP2 CALLDATALOAD SWAP1 POP PUSH2 0x3CC DUP2 PUSH2 0x3A6 JUMP JUMPDEST SWAP3 SWAP2 POP POP JUMP JUMPDEST PUSH2 0x3DB DUP2 PUSH2 0x33B JUMP JUMPDEST DUP2 EQ PUSH2 0x3E6 JUMPI PUSH1 0x0 DUP1 REVERT JUMPDEST POP JUMP JUMPDEST PUSH1 0x0 DUP2 CALLDATALOAD SWAP1 POP PUSH2 0x3F8 DUP2 PUSH2 0x3D2 JUMP JUMPDEST SWAP3 SWAP2 POP POP JUMP JUMPDEST PUSH1 0x0 DUP1 PUSH1 0x40 DUP4 DUP6 SUB SLT ISZERO PUSH2 0x415 JUMPI PUSH2 0x414 PUSH2 0x36F JUMP JUMPDEST JUMPDEST PUSH1 0x0 PUSH2 0x423 DUP6 DUP3 DUP7 ADD PUSH2 0x3BD JUMP JUMPDEST SWAP3 POP POP PUSH1 0x20 PUSH2 0x434 DUP6 DUP3 DUP7 ADD PUSH2 0x3E9 JUMP JUMPDEST SWAP2 POP POP SWAP3 POP SWAP3 SWAP1 POP JUMP JUMPDEST PUSH1 0x0 PUSH1 0x60 DUP3 ADD SWAP1 POP PUSH2 0x453 PUSH1 0x0 DUP4 ADD DUP7 PUSH2 0x345 JUMP JUMPDEST PUSH2 0x460 PUSH1 0x20 DUP4 ADD DUP6 PUSH2 0x345 JUMP JUMPDEST PUSH2 0x46D PUSH1 0x40 DUP4 ADD DUP5 PUSH2 0x345 JUMP JUMPDEST SWAP5 SWAP4 POP POP POP POP JUMP JUMPDEST PUSH1 0x0 DUP1 PUSH1 0x40 DUP4 DUP6 SUB SLT ISZERO PUSH2 0x48C JUMPI PUSH2 0x48B PUSH2 0x36F JUMP JUMPDEST JUMPDEST PUSH1 0x0 PUSH2 0x49A DUP6 DUP3 DUP7 ADD PUSH2 0x3E9 JUMP JUMPDEST SWAP3 POP POP PUSH1 0x20 PUSH2 0x4AB DUP6 DUP3 DUP7 ADD PUSH2 0x3E9 JUMP JUMPDEST SWAP2 POP POP SWAP3 POP SWAP3 SWAP1 POP JUMP JUMPDEST PUSH1 0x0 PUSH1 0x20 DUP3 DUP5 SUB SLT ISZERO PUSH2 0x4CB JUMPI PUSH2 0x4CA PUSH2 0x36F JUMP JUMPDEST JUMPDEST PUSH1 0x0 PUSH2 0x4D9 DUP5 DUP3 DUP6 ADD PUSH2 0x3E9 JUMP JUMPDEST SWAP2 POP POP SWAP3 SWAP2 POP POP JUMP JUMPDEST PUSH1 0x0 PUSH1 0x20 DUP3 DUP5 SUB SLT ISZERO PUSH2 0x4F8 JUMPI PUSH2 0x4F7 PUSH2 0x36F JUMP JUMPDEST JUMPDEST PUSH1 0x0 PUSH2 0x506 DUP5 DUP3 DUP6 ADD PUSH2 0x3BD JUMP JUMPDEST SWAP2 POP POP SWAP3 SWAP2 POP POP JUMP JUMPDEST PUSH32 0x4E487B7100000000000000000000000000000000000000000000000000000000 PUSH1 0x0 MSTORE PUSH1 0x11 PUSH1 0x4 MSTORE PUSH1 0x24 PUSH1 0x0 REVERT JUMPDEST PUSH1 0x0 PUSH2 0x549 DUP3 PUSH2 0x33B JUMP JUMPDEST SWAP2 POP PUSH2 0x554 DUP4 PUSH2 0x33B JUMP JUMPDEST SWAP3 POP DUP3 DUP3 ADD SWAP1 POP DUP1 DUP3 GT ISZERO PUSH2 0x56C JUMPI PUSH2 0x56B PUSH2 0x50F JUMP JUMPDEST JUMPDEST SWAP3 SWAP2 POP POP JUMP INVALID LOG2 PUSH5 0x6970667358 0x22 SLT KECCAK256 0xA6 PC 0xC3 GASLIMIT DUP13 PUSH31 0x57562581F3DD4839905EBDA7F5EBB7B667973B9C965572F1E44964736F6C63 NUMBER STOP ADDMOD SLT STOP CALLER "
		},
		"gasEstimates": {
			"creation": {
				"codeDepositCost": "289600",
				"executionCost": "331",
				"totalCost": "289931"
			},
			"external": {
				"getLastStakeId()": "2504",
				"getStakingInfo(uint256)": "infinite",
				"lastStakeId(address)": "2880",
				"stake(uint256,uint256)": "infinite",
				"stakes(address,uint256)": "infinite"
			}
		},
		"methodIdentifiers": {
			"getLastStakeId()": "3e344972",
			"getStakingInfo(uint256)": "e9c4aa6a",
			"lastStakeId(address)": "ea0bb54b",
			"stake(uint256,uint256)": "7b0472f0",
			"stakes(address,uint256)": "584b62a1"
		}
	},
	"abi": [
		{
			"inputs": [],
			"name": "getLastStakeId",
			"outputs": [
				{
					"internalType": "uint256",
					"name": "",
					"type": "uint256"
				}
			],
			"stateMutability": "view",
			"type": "function"
		},
		{
			"inputs": [
				{
					"internalType": "uint256",
					"name": "id",
					"type": "uint256"
				}
			],
			"name": "getStakingInfo",
			"outputs": [
				{
					"internalType": "uint256",
					"name": "",
					"type": "uint256"
				},
				{
					"internalType": "uint256",
					"name": "",
					"type": "uint256"
				},
				{
					"internalType": "uint256",
					"name": "",
					"type": "uint256"
				}
			],
			"stateMutability": "view",
			"type": "function"
		},
		{
			"inputs": [
				{
					"internalType": "address",
					"name": "",
					"type": "address"
				}
			],
			"name": "lastStakeId",
			"outputs": [
				{
					"internalType": "uint256",
					"name": "",
					"type": "uint256"
				}
			],
			"stateMutability": "view",
			"type": "function"
		},
		{
			"inputs": [
				{
					"internalType": "uint256",
					"name": "amount",
					"type": "uint256"
				},
				{
					"internalType": "uint256",
					"name": "duration",
					"type": "uint256"
				}
			],
			"name": "stake",
			"outputs": [],
			"stateMutability": "nonpayable",
			"type": "function"
		},
		{
			"inputs": [
				{
					"internalType": "address",
					"name": "",
					"type": "address"
				},
				{
					"internalType": "uint256",
					"name": "",
					"type": "uint256"
				}
			],
			"name": "stakes",
			"outputs": [
				{
					"internalType": "uint256",
					"name": "stakedAmount",
					"type": "uint256"
				},
				{
					"internalType": "uint256",
					"name": "stakedTime",
					"type": "uint256"
				},
				{
					"internalType": "uint256",
					"name": "duration",
					"type": "uint256"
				}
			],
			"stateMutability": "view",
			"type": "function"
		}
	]
}